{
	"data": {
		"bytecode": {
			"linkReferences": {},
			"object": "61016060405268056bc75e2d63100000600b556802b5e3af16b1880000600c5562015180600d5534801561003257600080fd5b50604051614ffa380380614ffa8339810160408190526100519161036f565b603c61012c68056bc75e2d631000006040518060400160405280600b81526020016a4f70656e576f726b44414f60a81b8152508061009361019660201b60201c565b61009e8260006101b1565b610120526100ad8160016101b1565b61014052815160208084019190912060e052815190820120610100524660a05261013a60e05161010051604080517f8b73c3c69bb8fe3d512ecc4cf759cc79239f7b179b0ffacaa9a75d522b39400f60208201529081019290925260608201524660808201523060a082015260009060c00160405160208183030381529060405280519060200120905090565b60805250503060c052600361014f828261043e565b5061015b9050836101e4565b6101648261024a565b61016d816102f0565b5050600a80546001600160a01b0319166001600160a01b0393909316929092179091555061056e565b6040805180820190915260018152603160f81b602082015290565b60006020835110156101cd576101c683610331565b90506101de565b816101d8848261043e565b5060ff90505b92915050565b6008546040805165ffffffffffff928316815291831660208301527fc565b045403dc03c2eea82b81a0465edad9e2e7fc4d97e11421c209da93d7a93910160405180910390a16008805465ffffffffffff191665ffffffffffff92909216919091179055565b8063ffffffff166000036102795760405163f1cfbf0560e01b8152600060048201526024015b60405180910390fd5b6008546040805163ffffffff66010000000000009093048316815291831660208301527f7e3f7f0708a84de9203036abaa450dccc85ad5ff52f78c170f3edb55cf5e8828910160405180910390a16008805463ffffffff90921666010000000000000263ffffffff60301b19909216919091179055565b60075460408051918252602082018390527fccb45da8d5717e6c4544694297c4ba5cf151d455c9bb0ed4fc7a38411bc05461910160405180910390a1600755565b600080829050601f8151111561035c578260405163305a27a960e01b815260040161027091906104fc565b80516103678261054a565b179392505050565b60006020828403121561038157600080fd5b81516001600160a01b038116811461039857600080fd5b9392505050565b634e487b7160e01b600052604160045260246000fd5b600181811c908216806103c957607f821691505b6020821081036103e957634e487b7160e01b600052602260045260246000fd5b50919050565b601f82111561043957806000526020600020601f840160051c810160208510156104165750805b601f840160051c820191505b818110156104365760008155600101610422565b50505b505050565b81516001600160401b038111156104575761045761039f565b61046b8161046584546103b5565b846103ef565b6020601f82116001811461049f57600083156104875750848201515b600019600385901b1c1916600184901b178455610436565b600084815260208120601f198516915b828110156104cf57878501518255602094850194600190920191016104af565b50848210156104ed5786840151600019600387901b60f8161c191681555b50505050600190811b01905550565b602081526000825180602084015260005b8181101561052a576020818601810151604086840101520161050d565b506000604082850101526040601f19601f83011684010191505092915050565b805160208083015191908110156103e95760001960209190910360031b1b16919050565b60805160a05160c05160e051610100516101205161014051614a326105c86000396000612cb901526000612c8c01526000612fb501526000612f8d01526000612ee801526000612f1201526000612f3c0152614a326000f3fe60806040526004361061041f5760003560e01c80637b3c71d31161021e578063c01f9e3711610123578063deaaa7cc116100ab578063efa90d361161007a578063efa90d3614610ee6578063f1de9a7714610efb578063f23a6e6114610f11578063f8ce560a14610f3d578063f9a5c63914610f6657600080fd5b8063deaaa7cc14610e52578063e540d01d14610e86578063eb9019d414610ea6578063ece40cc114610ec657600080fd5b8063c3214d6c116100f2578063c3214d6c14610d48578063c59057e414610d68578063cb1c2b5c14610d88578063cdbdb29314610da5578063dd4e2ba514610e0c57600080fd5b8063c01f9e3714610ce0578063c08cc02d14610d00578063c0e393c414610d15578063c28bc2fa14610d3557600080fd5b80639b644a23116101a6578063ab58fb8e11610175578063ab58fb8e14610c27578063ab65037d14610c5f578063b58131b014610c7f578063bb4d443614610c94578063bc197c8114610cb457600080fd5b80639b644a2314610ba6578063a89fd08214610bc6578063a8f8a66814610be6578063a9a9529414610c0657600080fd5b806384b0196e116101ed57806384b0196e14610afb5780638ff262e314610b2357806391ddadf414610b43578063922d01e914610b665780639a802a6d14610b8657600080fd5b80637b3c71d314610a655780637d5e81e214610a855780637ecebe0014610aa55780638082139814610adb57600080fd5b8063452115d6116103245780635f398a14116102ac578063701ea6de1161027b578063701ea6de1461095d57806371a1aea71461097d578063733bdef0146109a05780637905188714610a255780637b0472f014610a4557600080fd5b80635f398a14146108cb57806368ce7d8a146108eb5780636e4f88c81461090b5780636f1e85331461092d57600080fd5b806354fd4d50116102f357806354fd4d501461080b5780635678138814610835578063587cde1e146108555780635b8d0e0d1461088b5780635c19a95c146108ab57600080fd5b8063452115d6146107645780634804874c146107845780634bf5d7e91461079a578063544ffc9c146107d157600080fd5b80632d63f693116103a757806335680dc21161037657806335680dc2146106b55780633890b152146106d55780633932abb1146107025780633e4f49e614610717578063438596321461074457600080fd5b80632d63f693146106365780632def6620146106565780632fe3e2611461066b5780633222012f1461069f57600080fd5b8063143489d0116103ee578063143489d01461051a578063150b7a0214610568578063160cbed7146105ac57806316934fc4146105cc5780632656227d1461062357600080fd5b806301ffc9a71461042c57806302a251a31461046157806306fdde031461048d5780630cb4196d146104af57600080fd5b36610427575b005b600080fd5b34801561043857600080fd5b5061044c610447366004613a15565b610f93565b60405190151581526020015b60405180910390f35b34801561046d57600080fd5b50600854600160301b900463ffffffff165b604051908152602001610458565b34801561049957600080fd5b506104a2611005565b6040516104589190613a8f565b3480156104bb57600080fd5b506104f56104ca366004613abe565b600e602052600090815260409020805460018201546002909201546001600160a01b03909116919083565b604080516001600160a01b039094168452602084019290925290820152606001610458565b34801561052657600080fd5b50610550610535366004613ad9565b6000908152600460205260409020546001600160a01b031690565b6040516001600160a01b039091168152602001610458565b34801561057457600080fd5b50610593610583366004613bb3565b630a85bd0160e11b949350505050565b6040516001600160e01b03199091168152602001610458565b3480156105b857600080fd5b5061047f6105c7366004613d87565b611097565b3480156105d857600080fd5b506106086105e7366004613abe565b600f6020526000908152604090208054600182015460029092015490919083565b60408051938452602084019290925290820152606001610458565b61047f610631366004613d87565b6110e1565b34801561064257600080fd5b5061047f610651366004613ad9565b61120c565b34801561066257600080fd5b5061042561122d565b34801561067757600080fd5b5061047f7f3e83946653575f9a39005e1545185629e92736b7528ab20ca3816f315424a81181565b3480156106ab57600080fd5b5061047f600d5481565b3480156106c157600080fd5b506104256106d0366004613ad9565b6114a2565b3480156106e157600080fd5b5061047f6106f0366004613abe565b60106020526000908152604090205481565b34801561070e57600080fd5b5061047f6114aa565b34801561072357600080fd5b50610737610732366004613ad9565b6114bd565b6040516104589190613e58565b34801561075057600080fd5b5061044c61075f366004613e66565b6115ec565b34801561077057600080fd5b5061047f61077f366004613d87565b61161d565b34801561079057600080fd5b5061047f600b5481565b3480156107a657600080fd5b5060408051808201909152600e81526d06d6f64653d74696d657374616d760941b60208201526104a2565b3480156107dd57600080fd5b506106086107ec366004613ad9565b6000908152600960205260409020805460018201546002909201549092565b34801561081757600080fd5b506040805180820190915260018152603160f81b60208201526104a2565b34801561084157600080fd5b5061047f610850366004613ea3565b61167f565b34801561086157600080fd5b50610550610870366004613abe565b6011602052600090815260409020546001600160a01b031681565b34801561089757600080fd5b5061047f6108a6366004613f0e565b6116a8565b3480156108b757600080fd5b506104256108c6366004613abe565b611807565b3480156108d757600080fd5b5061047f6108e6366004613fd0565b6119cd565b3480156108f757600080fd5b50610425610906366004614057565b611a17565b34801561091757600080fd5b50610920611ba1565b60405161045891906140c6565b34801561093957600080fd5b5061044c610948366004613abe565b60136020526000908152604090205460ff1681565b34801561096957600080fd5b5061047f610978366004613abe565b611c02565b34801561098957600080fd5b50610992611c4f565b60405161045892919061410b565b3480156109ac57600080fd5b50610a036109bb366004613abe565b6001600160a01b03166000908152600f602090815260409182902082516060810184528154808252600183015493820184905260029092015493018390529290919083151590565b6040805194855260208501939093529183015215156060820152608001610458565b348015610a3157600080fd5b50610425610a4036600461416d565b611e1a565b348015610a5157600080fd5b50610425610a60366004614195565b611e2b565b348015610a7157600080fd5b5061047f610a803660046141b7565b612074565b348015610a9157600080fd5b5061047f610aa0366004614210565b6120c6565b348015610ab157600080fd5b5061047f610ac0366004613abe565b6001600160a01b031660009081526002602052604090205490565b348015610ae757600080fd5b50610425610af6366004613ad9565b612176565b348015610b0757600080fd5b50610b10612183565b60405161045897969594939291906142d4565b348015610b2f57600080fd5b5061047f610b3e366004614344565b6121c9565b348015610b4f57600080fd5b5060405165ffffffffffff42168152602001610458565b348015610b7257600080fd5b50610425610b81366004613ad9565b61229b565b348015610b9257600080fd5b5061047f610ba1366004614393565b6122a8565b348015610bb257600080fd5b5061047f610bc1366004613ad9565b6122b5565b348015610bd257600080fd5b50600a54610550906001600160a01b031681565b348015610bf257600080fd5b5061047f610c01366004613d87565b6122d6565b348015610c1257600080fd5b5061044c610c21366004613ad9565b50600090565b348015610c3357600080fd5b5061047f610c42366004613ad9565b60009081526004602052604090206001015465ffffffffffff1690565b348015610c6b57600080fd5b50610425610c7a3660046143e9565b6122ed565b348015610c8b57600080fd5b5061047f6123da565b348015610ca057600080fd5b50610608610caf366004613abe565b6123e5565b348015610cc057600080fd5b50610593610ccf36600461441c565b63bc197c8160e01b95945050505050565b348015610cec57600080fd5b5061047f610cfb366004613ad9565b612478565b348015610d0c57600080fd5b5060145461047f565b348015610d2157600080fd5b50610425610d30366004613ad9565b6124bb565b610425610d433660046144b6565b6124c8565b348015610d5457600080fd5b50610550610d63366004613ad9565b612548565b348015610d7457600080fd5b5061047f610d83366004613d87565b612572565b348015610d9457600080fd5b5061047f68056bc75e2d6310000081565b348015610db157600080fd5b506104f5610dc0366004613abe565b6001600160a01b038082166000908152600e6020908152604091829020825160608101845281549094168085526001820154928501839052600290910154939092018390529093909250565b348015610e1857600080fd5b506040805180820190915260208082527f737570706f72743d627261766f2671756f72756d3d666f722c6162737461696e908201526104a2565b348015610e5e57600080fd5b5061047f7ff2aad550cf55f045cb27e9c559f9889fdfb6e6cdaa032301d6ea397784ae51d781565b348015610e9257600080fd5b50610425610ea13660046144f7565b6125ac565b348015610eb257600080fd5b5061047f610ec1366004614057565b6125bd565b348015610ed257600080fd5b50610425610ee1366004613ad9565b6125de565b348015610ef257600080fd5b506109926125ef565b348015610f0757600080fd5b5061047f600c5481565b348015610f1d57600080fd5b50610593610f2c36600461451d565b63f23a6e6160e01b95945050505050565b348015610f4957600080fd5b5061047f610f58366004613ad9565b506802b5e3af16b188000090565b348015610f7257600080fd5b5061047f610f81366004613abe565b60126020526000908152604090205481565b60006001600160e01b031982166366defe7760e11b1480610fc457506001600160e01b031982166332a2ad4360e11b145b80610fdf57506001600160e01b03198216630271189760e51b145b80610ffa57506301ffc9a760e01b6001600160e01b03198316145b92915050565b905090565b60606003805461101490614575565b80601f016020809104026020016040519081016040528092919081815260200182805461104090614575565b801561108d5780601f106110625761010080835404028352916020019161108d565b820191906000526020600020905b81548152906001019060200180831161107057829003601f168201915b5050505050905090565b6000806110a6868686866122d6565b90506110bb816110b6600461272e565b612751565b506000604051634844252360e11b815260040160405180910390fd5b5095945050505050565b6000806110f0868686866122d6565b905061111081611100600561272e565b61110a600461272e565b17612751565b506000818152600460205260409020805460ff60f01b1916600160f01b179055306111383090565b6001600160a01b0316146111c25760005b86518110156111c057306001600160a01b031687828151811061116e5761116e6145af565b60200260200101516001600160a01b0316036111b8576111b8858281518110611199576111996145af565b602002602001015180519060200120600561279090919063ffffffff16565b600101611149565b505b6111cf81878787876127f2565b6040518181527f712ae1383f79ac853f8d882153778e0260ef8f03b504e2866e0593e04d2b291f906020015b60405180910390a195945050505050565b600090815260046020526040902054600160a01b900465ffffffffffff1690565b336000908152600f602090815260409182902082516060810184528154808252600183015493820193909352600290910154928101929092526112a85760405162461bcd60e51b815260206004820152600e60248201526d139bc81cdd185ad948199bdd5b9960921b60448201526064015b60405180910390fd5b80602001514210156112f15760405162461bcd60e51b815260206004820152601260248201527114dd185ad9481cdd1a5b1b081b1bd8dad95960721b604482015260640161129f565b336000908152601060205260408120549003611366573360008181526010602052604090204290819055600d547f57e41df54512c76148b5ba9b643d149752b0d35e493b969bd017d0a3fe5228cf919061134b90826145db565b6040805192835260208301919091520160405180910390a250565b600d543360009081526010602052604090205461138391906145db565b4210156113ca5760405162461bcd60e51b8152602060048201526015602482015274155b9cdd185ad94819195b185e481b9bdd081b595d605a1b604482015260640161129f565b336000908152600f602052604081205490036113f857336000908152601360205260409020805460ff191690555b336000818152600f6020908152604080832083815560018101849055600201839055601090915280822091909155600a548351915163a9059cbb60e01b8152600481019390935260248301919091526001600160a01b03169063a9059cbb906044016020604051808303816000875af1158015611479573d6000803e3d6000fd5b505050506040513d601f19601f8201168201806040525081019061149d91906145ee565b505b50565b61149f6128cc565b600061100060085465ffffffffffff1690565b6000818152600460205260408120805460ff600160f01b8204811691600160f81b90041681156114f257506007949350505050565b801561150357506002949350505050565b600061150e8661120c565b90508060000361153457604051636ad0607560e01b81526004810187905260240161129f565b65ffffffffffff4216808210611551575060009695505050505050565b600061155c88612478565b905081811061157357506001979650505050505050565b61157c88612903565b158061159c57506000888152600960205260409020805460019091015411155b156115af57506003979650505050505050565b60008881526004602052604090206001015465ffffffffffff166000036115de57506004979650505050505050565b506005979650505050505050565b60008281526009602090815260408083206001600160a01b038516845260030190915281205460ff165b9392505050565b60008061162c868686866122d6565b905033611639828261293a565b61166857604051638fe5d8a960e01b8152600481018390526001600160a01b038216602482015260440161129f565b61167487878787612981565b979650505050505050565b6000803390506116a084828560405180602001604052806000815250612a32565b949350505050565b60008061178b876117857f3e83946653575f9a39005e1545185629e92736b7528ab20ca3816f315424a8118c8c8c6116fd8e6001600160a01b0316600090815260026020526040902080546001810190915590565b8d8d60405161170d929190614610565b60405180910390208c8051906020012060405160200161176a9796959493929190968752602087019590955260ff9390931660408601526001600160a01b03919091166060850152608084015260a083015260c082015260e00190565b60405160208183030381529060405280519060200120612a55565b85612a82565b9050806117b6576040516394ab6c0760e01b81526001600160a01b038816600482015260240161129f565b6117fa89888a89898080601f0160208091040260200160405190810160405280939291908181526020018383808284376000920191909152508b9250612af6915050565b9998505050505050505050565b336000908152601160205260409020546001600160a01b0390811690821681900361187e5760405162461bcd60e51b815260206004820152602160248201527f416c72656164792064656c65676174656420746f2074686973206164647265736044820152607360f81b606482015260840161129f565b336000908152600f60205260409020546118d15760405162461bcd60e51b81526020600482015260146024820152734e6f207374616b6520746f2064656c656761746560601b604482015260640161129f565b336000908152600f60205260408120600281015490546118f19190614620565b90506001600160a01b03821615611930576001600160a01b0382166000908152601260205260408120805483929061192a908490614637565b90915550505b6001600160a01b0383161561196d576001600160a01b038316600090815260126020526040812080548392906119679084906145db565b90915550505b3360008181526011602052604080822080546001600160a01b0319166001600160a01b03888116918217909255915191939086169290917f3134e8a2e6d97e929a7e54011ea5485d7d196dd5f0ba4d4ef95803e8e3fc257f9190a4505050565b60008033905061167487828888888080601f0160208091040260200160405190810160405280939291908181526020018383808284376000920191909152508a9250612af6915050565b611a1f6128cc565b6001600160a01b0382166000908152600f6020526040902054611a755760405162461bcd60e51b815260206004820152600e60248201526d139bc81cdd185ad948199bdd5b9960921b604482015260640161129f565b6001600160a01b0382166000908152600f6020526040902054811115611add5760405162461bcd60e51b815260206004820152601b60248201527f52656d6f766520616d6f756e742065786365656473207374616b650000000000604482015260640161129f565b6001600160a01b0382166000908152600f602052604081208054839290611b05908490614637565b90915550506001600160a01b0382166000908152600f602052604090205468056bc75e2d631000001115611b5a576001600160a01b0382166000908152600f6020526040812081815560018101829055600201555b816001600160a01b03167fa018dcbc822f59fb0d0c3e7a86c8e4259b9676cdea9e5fc26279b9c4c5d86eef82604051611b9591815260200190565b60405180910390a25050565b6060601580548060200260200160405190810160405280929190818152602001828054801561108d57602002820191906000526020600020905b81546001600160a01b03168152600190910190602001808311611bdb575050505050905090565b6001600160a01b0381166000908152601060205260408120548103611c2957506000919050565b600d546001600160a01b038316600090815260106020526040902054610ffa91906145db565b6060806000805b601454811015611cb4576001611c8860148381548110611c7857611c786145af565b90600052602060002001546114bd565b6007811115611c9957611c99613e20565b03611cac5781611ca88161464a565b9250505b600101611c56565b50806001600160401b03811115611ccd57611ccd613af2565b604051908082528060200260200182016040528015611cf6578160200160208202803683370190505b509250806001600160401b03811115611d1157611d11613af2565b604051908082528060200260200182016040528015611d3a578160200160208202803683370190505b5091506000805b601454811015611e13576000611d6360148381548110611c7857611c786145af565b90506001816007811115611d7957611d79613e20565b03611e0a5760148281548110611d9157611d916145af565b9060005260206000200154868481518110611dae57611dae6145af565b60200260200101818152505080858481518110611dcd57611dcd6145af565b60200260200101906007811115611de657611de6613e20565b90816007811115611df957611df9613e20565b90525082611e068161464a565b9350505b50600101611d41565b5050509091565b611e226128cc565b61149f81612b6f565b68056bc75e2d63100000821015611e845760405162461bcd60e51b815260206004820152601b60248201527f4d696e696d756d207374616b652069732031303020746f6b656e730000000000604482015260640161129f565b60018110158015611e96575060038111155b611ee25760405162461bcd60e51b815260206004820152601c60248201527f4475726174696f6e206d75737420626520312d33206d696e7574657300000000604482015260640161129f565b336000908152600f602052604090205415611f315760405162461bcd60e51b815260206004820152600f60248201526e416c7265616479207374616b696e6760881b604482015260640161129f565b600a546040516323b872dd60e01b8152336004820152306024820152604481018490526001600160a01b03909116906323b872dd906064016020604051808303816000875af1158015611f88573d6000803e3d6000fd5b505050506040513d601f19601f82011682018060405250810190611fac91906145ee565b50604051806060016040528083815260200182603c611fcb9190614620565b611fd590426145db565b81526020908101839052336000908152600f8252604080822084518155848401516001820155938101516002909401939093556013909152205460ff1661149d576015805460018181019092557f55f448fdea98c4d29eb340757ef0a66cd03dbb9538908a6a81d96026b71ec4750180546001600160a01b031916339081179091556000908152601360205260409020805460ff191690911790555050565b6000803390506120bc86828787878080601f016020809104026020016040519081016040528093929190818152602001838380828437600092019190915250612a3292505050565b9695505050505050565b600b54336000908152600f6020526040812054909111156121295760405162461bcd60e51b815260206004820152601d60248201527f496e73756666696369656e74207374616b6520746f2070726f706f7365000000604482015260640161129f565b600061213786868686612bd5565b601480546001810182556000919091527fce6d7b5282bd9a3661ae061feed1dbda4e52ab073b1f9285be6e155d9c38d4ec018190559695505050505050565b61217e6128cc565b600d55565b600060608060008060006060612197612c85565b61219f612cb2565b60408051600080825260208201909252600f60f81b9b939a50919850469750309650945092509050565b600080612255846117857ff2aad550cf55f045cb27e9c559f9889fdfb6e6cdaa032301d6ea397784ae51d789898961221e8b6001600160a01b0316600090815260026020526040902080546001810190915590565b60408051602081019690965285019390935260ff90911660608401526001600160a01b0316608083015260a082015260c00161176a565b905080612280576040516394ab6c0760e01b81526001600160a01b038516600482015260240161129f565b6120bc86858760405180602001604052806000815250612a32565b6122a36128cc565b600c55565b60006116a0848484612cdf565b601481815481106122c557600080fd5b600091825260209091200154905081565b60006122e485858585612572565b95945050505050565b6122f56128cc565b6001600160a01b0383166123445760405162461bcd60e51b8152602060048201526016602482015275496e76616c6964206561726e6572206164647265737360501b604482015260640161129f565b604080516060810182526001600160a01b0385811680835260208084018781528486018781526000848152600e8452879020955186546001600160a01b03191695169490941785555160018501559151600290930192909255825185815290810184905290917fff1b7739ef48ea8e5cac55fcf2e131f33e741fda310ae7b33b5b510f57c10e32910160405180910390a2505050565b600061100060075490565b6001600160a01b0381166000908152600f6020908152604080832081516060810183528154808252600183015494820194909452600290910154918101919091528291829190612436576000612447565b604081015181516124479190614620565b6001600160a01b038616600090815260126020526040902054909450925061246f83856145db565b93959294505050565b6000818152600460205260408120546124ad90600160d01b810463ffffffff1690600160a01b900465ffffffffffff16614663565b65ffffffffffff1692915050565b6124c36128cc565b600b55565b6124d06128cc565b600080856001600160a01b03168585856040516124ee929190614610565b60006040518083038185875af1925050503d806000811461252b576040519150601f19603f3d011682016040523d82523d6000602084013e612530565b606091505b509150915061253f8282612d5f565b50505050505050565b6015818154811061255857600080fd5b6000918252602090912001546001600160a01b0316905081565b60008484848460405160200161258b94939291906146d1565b60408051601f19818403018152919052805160209091012095945050505050565b6125b46128cc565b61149f81612d7b565b600061161683836125d960408051602081019091526000815290565b612cdf565b6125e66128cc565b61149f81612e19565b60145460609081906001600160401b0381111561260e5761260e613af2565b604051908082528060200260200182016040528015612637578160200160208202803683370190505b506014549092506001600160401b0381111561265557612655613af2565b60405190808252806020026020018201604052801561267e578160200160208202803683370190505b50905060005b60145481101561272957601481815481106126a1576126a16145af565b90600052602060002001548382815181106126be576126be6145af565b6020026020010181815250506126e060148281548110611c7857611c786145af565b8282815181106126f2576126f26145af565b6020026020010190600781111561270b5761270b613e20565b9081600781111561271e5761271e613e20565b905250600101612684565b509091565b600081600781111561274257612742613e20565b600160ff919091161b92915050565b60008061275d846114bd565b905060008361276b8361272e565b1603611616578381846040516331b75e4d60e01b815260040161129f9392919061471c565b81546001600160801b03600160801b8204811691811660018301909116036127bc576127bc6041612e5a565b6001600160801b03808216600090815260018086016020526040909120939093558354919092018216600160801b029116179055565b60005b84518110156128c457600080868381518110612813576128136145af565b60200260200101516001600160a01b0316868481518110612836576128366145af565b6020026020010151868581518110612850576128506145af565b6020026020010151604051612865919061473e565b60006040518083038185875af1925050503d80600081146128a2576040519150601f19603f3d011682016040523d82523d6000602084013e6128a7565b606091505b50915091506128b68282612d5f565b5050508060010190506127f5565b505050505050565b3033146128ee576040516347096e4760e01b815233600482015260240161129f565b565b806128fb6005612e6c565b036128f05750565b60008181526009602052604081206002810154600182015461292591906145db565b612931610f588561120c565b11159392505050565b600080612946846114bd565b600781111561295757612957613e20565b148015611616575050600091825260046020526040909120546001600160a01b0391821691161490565b600080612990868686866122d6565b90506129de816129a0600761272e565b6129aa600661272e565b6129b4600261272e565b60016129c160078261475a565b6129cc906002614852565b6129d69190614637565b181818612751565b506000818152600460205260409081902080546001600160f81b0316600160f81b179055517f789cf55be980739dad1d0699b93b58e806b51c9d96619bfa8fe0a28abaa7b30c906111fb9083815260200190565b60006122e485858585612a5060408051602081019091526000815290565b612af6565b6000610ffa612a62612edb565b8360405161190160f01b8152600281019290925260228201526042902090565b6000836001600160a01b03163b600003612ae457600080612aa38585613006565b5090925090506000816003811115612abd57612abd613e20565b148015612adb5750856001600160a01b0316826001600160a01b0316145b92505050611616565b612aef848484613053565b9050611616565b600c546001600160a01b0385166000908152600f602052604081205490911115612b625760405162461bcd60e51b815260206004820152601a60248201527f496e73756666696369656e74207374616b6520746f20766f7465000000000000604482015260640161129f565b6120bc868686868661312e565b6008546040805165ffffffffffff928316815291831660208301527fc565b045403dc03c2eea82b81a0465edad9e2e7fc4d97e11421c209da93d7a93910160405180910390a16008805465ffffffffffff191665ffffffffffff92909216919091179055565b600033612be28184613210565b612c0a5760405163d9b3955760e01b81526001600160a01b038216600482015260240161129f565b6000612c146123da565b90508015612c78576000612c3a83612c2d600142614861565b65ffffffffffff166125bd565b905081811015612c7657604051636121770b60e11b81526001600160a01b0384166004820152602481018290526044810183905260640161129f565b505b6116748787878786613296565b60606110007f000000000000000000000000000000000000000000000000000000000000000060006134ae565b60606110007f000000000000000000000000000000000000000000000000000000000000000060016134ae565b6001600160a01b0383166000908152600f60209081526040808320815160608101835281548082526001830154948201949094526002909101549181019190915290829015612d3c5760408201518251612d399190614620565b90505b6001600160a01b03861660009081526012602052604081205461167490836145db565b606082612d7457612d6f82613559565b610ffa565b5080610ffa565b8063ffffffff16600003612da55760405163f1cfbf0560e01b81526000600482015260240161129f565b6008546040805163ffffffff600160301b9093048316815291831660208301527f7e3f7f0708a84de9203036abaa450dccc85ad5ff52f78c170f3edb55cf5e8828910160405180910390a16008805463ffffffff909216600160301b0269ffffffff00000000000019909216919091179055565b60075460408051918252602082018390527fccb45da8d5717e6c4544694297c4ba5cf151d455c9bb0ed4fc7a38411bc05461910160405180910390a1600755565b634e487b71600052806020526024601cfd5b80546000906001600160801b0380821691600160801b9004168103612e9557612e956031612e5a565b6001600160801b038181166000908152600185810160205260408220805492905585546fffffffffffffffffffffffffffffffff19169301909116919091179092555090565b6000306001600160a01b037f000000000000000000000000000000000000000000000000000000000000000016148015612f3457507f000000000000000000000000000000000000000000000000000000000000000046145b15612f5e57507f000000000000000000000000000000000000000000000000000000000000000090565b611000604080517f8b73c3c69bb8fe3d512ecc4cf759cc79239f7b179b0ffacaa9a75d522b39400f60208201527f0000000000000000000000000000000000000000000000000000000000000000918101919091527f000000000000000000000000000000000000000000000000000000000000000060608201524660808201523060a082015260009060c00160405160208183030381529060405280519060200120905090565b600080600083516041036130405760208401516040850151606086015160001a61303288828585613582565b95509550955050505061304c565b50508151600091506002905b9250925092565b6000806000856001600160a01b0316858560405160240161307592919061487f565b60408051601f198184030181529181526020820180516001600160e01b0316630b135d3f60e11b179052516130aa919061473e565b600060405180830381855afa9150503d80600081146130e5576040519150601f19603f3d011682016040523d82523d6000602084013e6130ea565b606091505b50915091508180156130fe57506020815110155b80156120bc57508051630b135d3f60e11b906131239083016020908101908401614898565b149695505050505050565b600061313e866110b6600161272e565b5060006131548661314e8961120c565b85612cdf565b905060006131658888888588613651565b905083516000036131bc57866001600160a01b03167fb8e138887d0aa13bab447e82de9d5c1777041ecd21ca36ba824ff1e6c07ddda4898884896040516131af94939291906148b1565b60405180910390a2611674565b866001600160a01b03167fe2babfbac5889a709b63bb7f598b324e08bc5a4fb9ec647fb3cbc9ec07eb871289888489896040516131fd9594939291906148d9565b60405180910390a2979650505050505050565b80516000906034811015613228576001915050610ffa565b60131981840101516001600160b01b03198116692370726f706f7365723d60b01b1461325957600192505050610ffa565b60008061326a86602a860386613754565b915091508115806116745750866001600160a01b0316816001600160a01b031614979650505050505050565b60006132ab86868686805190602001206122d6565b9050845186511415806132c057508351865114155b806132ca57508551155b156132ff57855184518651604051630447b05d60e41b815260048101939093526024830191909152604482015260640161129f565b600081815260046020526040902054600160a01b900465ffffffffffff161561334a578061332c826114bd565b6040516331b75e4d60e01b815261129f92919060009060040161471c565b60006133546114aa565b6133669065ffffffffffff42166145db565b9050600061338160085463ffffffff600160301b9091041690565b600084815260046020526040902080546001600160a01b0319166001600160a01b0387161781559091506133b483613807565b815465ffffffffffff91909116600160a01b0265ffffffffffff60a01b199091161781556133e18261383e565b815463ffffffff91909116600160d01b0263ffffffff60d01b1990911617815588517f7d84a6263ae0d98d3329bd7b46bb4e8d6f98cd35a7adb45c274c8b7fd5ebd5e090859087908c908c906001600160401b0381111561344457613444613af2565b60405190808252806020026020018201604052801561347757816020015b60608152602001906001900390816134625790505b508c896134848a826145db565b8e60405161349a9998979695949392919061491f565b60405180910390a150505095945050505050565b606060ff83146134c8576134c18361386f565b9050610ffa565b8180546134d490614575565b80601f016020809104026020016040519081016040528092919081815260200182805461350090614575565b801561354d5780601f106135225761010080835404028352916020019161354d565b820191906000526020600020905b81548152906001019060200180831161353057829003601f168201915b50505050509050610ffa565b8051156135695780518082602001fd5b60405163d6bda27560e01b815260040160405180910390fd5b600080807f7fffffffffffffffffffffffffffffff5d576e7357a4501ddfe92f46681b20a08411156135bd5750600091506003905082613647565b604080516000808252602082018084528a905260ff891692820192909252606081018790526080810186905260019060a0016020604051602081039080840390855afa158015613611573d6000803e3d6000fd5b5050604051601f1901519150506001600160a01b03811661363d57506000925060019150829050613647565b9250600091508190505b9450945094915050565b60008581526009602090815260408083206001600160a01b03881684526003810190925282205460ff16156136a4576040516371c6af4960e01b81526001600160a01b038716600482015260240161129f565b6001600160a01b03861660009081526003820160205260409020805460ff1916600117905560ff85166136f057838160000160008282546136e591906145db565b909155506137499050565b60001960ff86160161371057838160010160008282546136e591906145db565b60011960ff86160161373057838160020160008282546136e591906145db565b6040516303599be160e11b815260040160405180910390fd5b509195945050505050565b600080845183118061376557508284115b15613775575060009050806137ff565b60006137828560016145db565b841180156137aa575061060f60f31b61379e8787016020015190565b6001600160f01b031916145b905060006137bb8215156002614620565b6137c69060286145db565b9050806137d38787614637565b036137f5576000806137e68989896138ae565b90965094506137ff9350505050565b6000809350935050505b935093915050565b600065ffffffffffff82111561383a576040516306dfcc6560e41b8152603060048201526024810183905260440161129f565b5090565b600063ffffffff82111561383a576040516306dfcc6560e41b8152602060048201526024810183905260440161129f565b6060600061387c83613974565b604080516020808252818301909252919250600091906020820181803683375050509182525060208101929092525090565b60008084816138be8660016145db565b851180156138e6575061060f60f31b6138da8388016020015190565b6001600160f01b031916145b905060006138f78215156002614620565b9050600080613906838a6145db565b90505b878110156139635760006139286139238784016020015190565b61399c565b9050600f8160ff16111561394857600080975097505050505050506137ff565b613953601084614620565b60ff909116019150600101613909565b506001999098509650505050505050565b600060ff8216601f811115610ffa57604051632cd44ac360e21b815260040160405180910390fd5b600060f882901c602f811180156139b65750603a8160ff16105b156139c457602f1901610ffa565b60608160ff161180156139da575060678160ff16105b156139e85760561901610ffa565b60408160ff161180156139fe575060478160ff16105b15613a0c5760361901610ffa565b5060ff92915050565b600060208284031215613a2757600080fd5b81356001600160e01b03198116811461161657600080fd5b60005b83811015613a5a578181015183820152602001613a42565b50506000910152565b60008151808452613a7b816020860160208601613a3f565b601f01601f19169290920160200192915050565b6020815260006116166020830184613a63565b80356001600160a01b0381168114613ab957600080fd5b919050565b600060208284031215613ad057600080fd5b61161682613aa2565b600060208284031215613aeb57600080fd5b5035919050565b634e487b7160e01b600052604160045260246000fd5b604051601f8201601f191681016001600160401b0381118282101715613b3057613b30613af2565b604052919050565b6000806001600160401b03841115613b5257613b52613af2565b50601f8301601f1916602001613b6781613b08565b915050828152838383011115613b7c57600080fd5b828260208301376000602084830101529392505050565b600082601f830112613ba457600080fd5b61161683833560208501613b38565b60008060008060808587031215613bc957600080fd5b613bd285613aa2565b9350613be060208601613aa2565b92506040850135915060608501356001600160401b03811115613c0257600080fd5b613c0e87828801613b93565b91505092959194509250565b60006001600160401b03821115613c3357613c33613af2565b5060051b60200190565b600082601f830112613c4e57600080fd5b8135613c61613c5c82613c1a565b613b08565b8082825260208201915060208360051b860101925085831115613c8357600080fd5b602085015b838110156110d757613c9981613aa2565b835260209283019201613c88565b600082601f830112613cb857600080fd5b8135613cc6613c5c82613c1a565b8082825260208201915060208360051b860101925085831115613ce857600080fd5b602085015b838110156110d7578035835260209283019201613ced565b600082601f830112613d1657600080fd5b8135613d24613c5c82613c1a565b8082825260208201915060208360051b860101925085831115613d4657600080fd5b602085015b838110156110d75780356001600160401b03811115613d6957600080fd5b613d78886020838a0101613b93565b84525060209283019201613d4b565b60008060008060808587031215613d9d57600080fd5b84356001600160401b03811115613db357600080fd5b613dbf87828801613c3d565b94505060208501356001600160401b03811115613ddb57600080fd5b613de787828801613ca7565b93505060408501356001600160401b03811115613e0357600080fd5b613e0f87828801613d05565b949793965093946060013593505050565b634e487b7160e01b600052602160045260246000fd5b60088110613e5457634e487b7160e01b600052602160045260246000fd5b9052565b60208101610ffa8284613e36565b60008060408385031215613e7957600080fd5b82359150613e8960208401613aa2565b90509250929050565b803560ff81168114613ab957600080fd5b60008060408385031215613eb657600080fd5b82359150613e8960208401613e92565b60008083601f840112613ed857600080fd5b5081356001600160401b03811115613eef57600080fd5b602083019150836020828501011115613f0757600080fd5b9250929050565b600080600080600080600060c0888a031215613f2957600080fd5b87359650613f3960208901613e92565b9550613f4760408901613aa2565b945060608801356001600160401b03811115613f6257600080fd5b613f6e8a828b01613ec6565b90955093505060808801356001600160401b03811115613f8d57600080fd5b613f998a828b01613b93565b92505060a08801356001600160401b03811115613fb557600080fd5b613fc18a828b01613b93565b91505092959891949750929550565b600080600080600060808688031215613fe857600080fd5b85359450613ff860208701613e92565b935060408601356001600160401b0381111561401357600080fd5b61401f88828901613ec6565b90945092505060608601356001600160401b0381111561403e57600080fd5b61404a88828901613b93565b9150509295509295909350565b6000806040838503121561406a57600080fd5b61407383613aa2565b946020939093013593505050565b600081518084526020840193506020830160005b828110156140bc5781516001600160a01b0316865260209586019590910190600101614095565b5093949350505050565b6020815260006116166020830184614081565b600081518084526020840193506020830160005b828110156140bc5781518652602095860195909101906001016140ed565b60408152600061411e60408301856140d9565b828103602084015280845180835260208301915060208601925060005b818110156141615761414e838551613e36565b602093840193929092019160010161413b565b50909695505050505050565b60006020828403121561417f57600080fd5b813565ffffffffffff8116811461161657600080fd5b600080604083850312156141a857600080fd5b50508035926020909101359150565b600080600080606085870312156141cd57600080fd5b843593506141dd60208601613e92565b925060408501356001600160401b038111156141f857600080fd5b61420487828801613ec6565b95989497509550505050565b6000806000806080858703121561422657600080fd5b84356001600160401b0381111561423c57600080fd5b61424887828801613c3d565b94505060208501356001600160401b0381111561426457600080fd5b61427087828801613ca7565b93505060408501356001600160401b0381111561428c57600080fd5b61429887828801613d05565b92505060608501356001600160401b038111156142b457600080fd5b8501601f810187136142c557600080fd5b613c0e87823560208401613b38565b60ff60f81b8816815260e0602082015260006142f360e0830189613a63565b82810360408401526143058189613a63565b606084018890526001600160a01b038716608085015260a0840186905283810360c0850152905061433681856140d9565b9a9950505050505050505050565b6000806000806080858703121561435a57600080fd5b8435935061436a60208601613e92565b925061437860408601613aa2565b915060608501356001600160401b03811115613c0257600080fd5b6000806000606084860312156143a857600080fd5b6143b184613aa2565b92506020840135915060408401356001600160401b038111156143d357600080fd5b6143df86828701613b93565b9150509250925092565b6000806000606084860312156143fe57600080fd5b61440784613aa2565b95602085013595506040909401359392505050565b600080600080600060a0868803121561443457600080fd5b61443d86613aa2565b945061444b60208701613aa2565b935060408601356001600160401b0381111561446657600080fd5b61447288828901613ca7565b93505060608601356001600160401b0381111561448e57600080fd5b61449a88828901613ca7565b92505060808601356001600160401b0381111561403e57600080fd5b600080600080606085870312156144cc57600080fd5b6144d585613aa2565b93506020850135925060408501356001600160401b038111156141f857600080fd5b60006020828403121561450957600080fd5b813563ffffffff8116811461161657600080fd5b600080600080600060a0868803121561453557600080fd5b61453e86613aa2565b945061454c60208701613aa2565b9350604086013592506060860135915060808601356001600160401b0381111561403e57600080fd5b600181811c9082168061458957607f821691505b6020821081036145a957634e487b7160e01b600052602260045260246000fd5b50919050565b634e487b7160e01b600052603260045260246000fd5b634e487b7160e01b600052601160045260246000fd5b80820180821115610ffa57610ffa6145c5565b60006020828403121561460057600080fd5b8151801515811461161657600080fd5b8183823760009101908152919050565b8082028115828204841417610ffa57610ffa6145c5565b81810381811115610ffa57610ffa6145c5565b60006001820161465c5761465c6145c5565b5060010190565b65ffffffffffff8181168382160190811115610ffa57610ffa6145c5565b600082825180855260208501945060208160051b8301016020850160005b8381101561416157601f198584030188526146bb838351613a63565b602098890198909350919091019060010161469f565b6080815260006146e46080830187614081565b82810360208401526146f681876140d9565b9050828103604084015261470a8186614681565b91505082606083015295945050505050565b838152606081016147306020830185613e36565b826040830152949350505050565b60008251614750818460208701613a3f565b9190910192915050565b60ff8181168382160190811115610ffa57610ffa6145c5565b6001815b60018411156137ff57808504811115614792576147926145c5565b60018416156147a057908102905b60019390931c928002614777565b6000826147bd57506001610ffa565b816147ca57506000610ffa565b81600181146147e057600281146147ea57614806565b6001915050610ffa565b60ff8411156147fb576147fb6145c5565b50506001821b610ffa565b5060208310610133831016604e8410600b8410161715614829575081810a610ffa565b6148366000198484614773565b806000190482111561484a5761484a6145c5565b029392505050565b600061161660ff8416836147ae565b65ffffffffffff8281168282160390811115610ffa57610ffa6145c5565b8281526040602082015260006116a06040830184613a63565b6000602082840312156148aa57600080fd5b5051919050565b84815260ff841660208201528260408201526080606082015260006120bc6080830184613a63565b85815260ff8516602082015283604082015260a06060820152600061490160a0830185613a63565b82810360808401526149138185613a63565b98975050505050505050565b8981526001600160a01b03891660208201526101206040820181905260009061494a9083018a614081565b828103606084015261495c818a6140d9565b9050828103608084015280885180835260208301915060208160051b84010160208b0160005b838110156149b457601f1986840301855261499e838351613a63565b6020958601959093509190910190600101614982565b505085810360a08701526149c8818b614681565b93505050508560c08401528460e08401528281036101008401526149ec8185613a63565b9c9b50505050505050505050505056fea2646970667358221220f0c21fd44c622003d2fedba5422a8eb90ad98d8b04b0b56b9e4c16ce058d301e64736f6c634300081c0033",
			"opcodes": "PUSH2 0x160 PUSH1 0x40 MSTORE PUSH9 0x56BC75E2D63100000 PUSH1 0xB SSTORE PUSH9 0x2B5E3AF16B1880000 PUSH1 0xC SSTORE PUSH3 0x15180 PUSH1 0xD SSTORE CALLVALUE DUP1 ISZERO PUSH2 0x32 JUMPI PUSH1 0x0 DUP1 REVERT JUMPDEST POP PUSH1 0x40 MLOAD PUSH2 0x4FFA CODESIZE SUB DUP1 PUSH2 0x4FFA DUP4 CODECOPY DUP2 ADD PUSH1 0x40 DUP2 SWAP1 MSTORE PUSH2 0x51 SWAP2 PUSH2 0x36F JUMP JUMPDEST PUSH1 0x3C PUSH2 0x12C PUSH9 0x56BC75E2D63100000 PUSH1 0x40 MLOAD DUP1 PUSH1 0x40 ADD PUSH1 0x40 MSTORE DUP1 PUSH1 0xB DUP2 MSTORE PUSH1 0x20 ADD PUSH11 0x4F70656E576F726B44414F PUSH1 0xA8 SHL DUP2 MSTORE POP DUP1 PUSH2 0x93 PUSH2 0x196 PUSH1 0x20 SHL PUSH1 0x20 SHR JUMP JUMPDEST PUSH2 0x9E DUP3 PUSH1 0x0 PUSH2 0x1B1 JUMP JUMPDEST PUSH2 0x120 MSTORE PUSH2 0xAD DUP2 PUSH1 0x1 PUSH2 0x1B1 JUMP JUMPDEST PUSH2 0x140 MSTORE DUP2 MLOAD PUSH1 0x20 DUP1 DUP5 ADD SWAP2 SWAP1 SWAP2 KECCAK256 PUSH1 0xE0 MSTORE DUP2 MLOAD SWAP1 DUP3 ADD KECCAK256 PUSH2 0x100 MSTORE CHAINID PUSH1 0xA0 MSTORE PUSH2 0x13A PUSH1 0xE0 MLOAD PUSH2 0x100 MLOAD PUSH1 0x40 DUP1 MLOAD PUSH32 0x8B73C3C69BB8FE3D512ECC4CF759CC79239F7B179B0FFACAA9A75D522B39400F PUSH1 0x20 DUP3 ADD MSTORE SWAP1 DUP2 ADD SWAP3 SWAP1 SWAP3 MSTORE PUSH1 0x60 DUP3 ADD MSTORE CHAINID PUSH1 0x80 DUP3 ADD MSTORE ADDRESS PUSH1 0xA0 DUP3 ADD MSTORE PUSH1 0x0 SWAP1 PUSH1 0xC0 ADD PUSH1 0x40 MLOAD PUSH1 0x20 DUP2 DUP4 SUB SUB DUP2 MSTORE SWAP1 PUSH1 0x40 MSTORE DUP1 MLOAD SWAP1 PUSH1 0x20 ADD KECCAK256 SWAP1 POP SWAP1 JUMP JUMPDEST PUSH1 0x80 MSTORE POP POP ADDRESS PUSH1 0xC0 MSTORE PUSH1 0x3 PUSH2 0x14F DUP3 DUP3 PUSH2 0x43E JUMP JUMPDEST POP PUSH2 0x15B SWAP1 POP DUP4 PUSH2 0x1E4 JUMP JUMPDEST PUSH2 0x164 DUP3 PUSH2 0x24A JUMP JUMPDEST PUSH2 0x16D DUP2 PUSH2 0x2F0 JUMP JUMPDEST POP POP PUSH1 0xA DUP1 SLOAD PUSH1 0x1 PUSH1 0x1 PUSH1 0xA0 SHL SUB NOT AND PUSH1 0x1 PUSH1 0x1 PUSH1 0xA0 SHL SUB SWAP4 SWAP1 SWAP4 AND SWAP3 SWAP1 SWAP3 OR SWAP1 SWAP2 SSTORE POP PUSH2 0x56E JUMP JUMPDEST PUSH1 0x40 DUP1 MLOAD DUP1 DUP3 ADD SWAP1 SWAP2 MSTORE PUSH1 0x1 DUP2 MSTORE PUSH1 0x31 PUSH1 0xF8 SHL PUSH1 0x20 DUP3 ADD MSTORE SWAP1 JUMP JUMPDEST PUSH1 0x0 PUSH1 0x20 DUP4 MLOAD LT ISZERO PUSH2 0x1CD JUMPI PUSH2 0x1C6 DUP4 PUSH2 0x331 JUMP JUMPDEST SWAP1 POP PUSH2 0x1DE JUMP JUMPDEST DUP2 PUSH2 0x1D8 DUP5 DUP3 PUSH2 0x43E JUMP JUMPDEST POP PUSH1 0xFF SWAP1 POP JUMPDEST SWAP3 SWAP2 POP POP JUMP JUMPDEST PUSH1 0x8 SLOAD PUSH1 0x40 DUP1 MLOAD PUSH6 0xFFFFFFFFFFFF SWAP3 DUP4 AND DUP2 MSTORE SWAP2 DUP4 AND PUSH1 0x20 DUP4 ADD MSTORE PUSH32 0xC565B045403DC03C2EEA82B81A0465EDAD9E2E7FC4D97E11421C209DA93D7A93 SWAP2 ADD PUSH1 0x40 MLOAD DUP1 SWAP2 SUB SWAP1 LOG1 PUSH1 0x8 DUP1 SLOAD PUSH6 0xFFFFFFFFFFFF NOT AND PUSH6 0xFFFFFFFFFFFF SWAP3 SWAP1 SWAP3 AND SWAP2 SWAP1 SWAP2 OR SWAP1 SSTORE JUMP JUMPDEST DUP1 PUSH4 0xFFFFFFFF AND PUSH1 0x0 SUB PUSH2 0x279 JUMPI PUSH1 0x40 MLOAD PUSH4 0xF1CFBF05 PUSH1 0xE0 SHL DUP2 MSTORE PUSH1 0x0 PUSH1 0x4 DUP3 ADD MSTORE PUSH1 0x24 ADD JUMPDEST PUSH1 0x40 MLOAD DUP1 SWAP2 SUB SWAP1 REVERT JUMPDEST PUSH1 0x8 SLOAD PUSH1 0x40 DUP1 MLOAD PUSH4 0xFFFFFFFF PUSH7 0x1000000000000 SWAP1 SWAP4 DIV DUP4 AND DUP2 MSTORE SWAP2 DUP4 AND PUSH1 0x20 DUP4 ADD MSTORE PUSH32 0x7E3F7F0708A84DE9203036ABAA450DCCC85AD5FF52F78C170F3EDB55CF5E8828 SWAP2 ADD PUSH1 0x40 MLOAD DUP1 SWAP2 SUB SWAP1 LOG1 PUSH1 0x8 DUP1 SLOAD PUSH4 0xFFFFFFFF SWAP1 SWAP3 AND PUSH7 0x1000000000000 MUL PUSH4 0xFFFFFFFF PUSH1 0x30 SHL NOT SWAP1 SWAP3 AND SWAP2 SWAP1 SWAP2 OR SWAP1 SSTORE JUMP JUMPDEST PUSH1 0x7 SLOAD PUSH1 0x40 DUP1 MLOAD SWAP2 DUP3 MSTORE PUSH1 0x20 DUP3 ADD DUP4 SWAP1 MSTORE PUSH32 0xCCB45DA8D5717E6C4544694297C4BA5CF151D455C9BB0ED4FC7A38411BC05461 SWAP2 ADD PUSH1 0x40 MLOAD DUP1 SWAP2 SUB SWAP1 LOG1 PUSH1 0x7 SSTORE JUMP JUMPDEST PUSH1 0x0 DUP1 DUP3 SWAP1 POP PUSH1 0x1F DUP2 MLOAD GT ISZERO PUSH2 0x35C JUMPI DUP3 PUSH1 0x40 MLOAD PUSH4 0x305A27A9 PUSH1 0xE0 SHL DUP2 MSTORE PUSH1 0x4 ADD PUSH2 0x270 SWAP2 SWAP1 PUSH2 0x4FC JUMP JUMPDEST DUP1 MLOAD PUSH2 0x367 DUP3 PUSH2 0x54A JUMP JUMPDEST OR SWAP4 SWAP3 POP POP POP JUMP JUMPDEST PUSH1 0x0 PUSH1 0x20 DUP3 DUP5 SUB SLT ISZERO PUSH2 0x381 JUMPI PUSH1 0x0 DUP1 REVERT JUMPDEST DUP2 MLOAD PUSH1 0x1 PUSH1 0x1 PUSH1 0xA0 SHL SUB DUP2 AND DUP2 EQ PUSH2 0x398 JUMPI PUSH1 0x0 DUP1 REVERT JUMPDEST SWAP4 SWAP3 POP POP POP JUMP JUMPDEST PUSH4 0x4E487B71 PUSH1 0xE0 SHL PUSH1 0x0 MSTORE PUSH1 0x41 PUSH1 0x4 MSTORE PUSH1 0x24 PUSH1 0x0 REVERT JUMPDEST PUSH1 0x1 DUP2 DUP2 SHR SWAP1 DUP3 AND DUP1 PUSH2 0x3C9 JUMPI PUSH1 0x7F DUP3 AND SWAP2 POP JUMPDEST PUSH1 0x20 DUP3 LT DUP2 SUB PUSH2 0x3E9 JUMPI PUSH4 0x4E487B71 PUSH1 0xE0 SHL PUSH1 0x0 MSTORE PUSH1 0x22 PUSH1 0x4 MSTORE PUSH1 0x24 PUSH1 0x0 REVERT JUMPDEST POP SWAP2 SWAP1 POP JUMP JUMPDEST PUSH1 0x1F DUP3 GT ISZERO PUSH2 0x439 JUMPI DUP1 PUSH1 0x0 MSTORE PUSH1 0x20 PUSH1 0x0 KECCAK256 PUSH1 0x1F DUP5 ADD PUSH1 0x5 SHR DUP2 ADD PUSH1 0x20 DUP6 LT ISZERO PUSH2 0x416 JUMPI POP DUP1 JUMPDEST PUSH1 0x1F DUP5 ADD PUSH1 0x5 SHR DUP3 ADD SWAP2 POP JUMPDEST DUP2 DUP2 LT ISZERO PUSH2 0x436 JUMPI PUSH1 0x0 DUP2 SSTORE PUSH1 0x1 ADD PUSH2 0x422 JUMP JUMPDEST POP POP JUMPDEST POP POP POP JUMP JUMPDEST DUP2 MLOAD PUSH1 0x1 PUSH1 0x1 PUSH1 0x40 SHL SUB DUP2 GT ISZERO PUSH2 0x457 JUMPI PUSH2 0x457 PUSH2 0x39F JUMP JUMPDEST PUSH2 0x46B DUP2 PUSH2 0x465 DUP5 SLOAD PUSH2 0x3B5 JUMP JUMPDEST DUP5 PUSH2 0x3EF JUMP JUMPDEST PUSH1 0x20 PUSH1 0x1F DUP3 GT PUSH1 0x1 DUP2 EQ PUSH2 0x49F JUMPI PUSH1 0x0 DUP4 ISZERO PUSH2 0x487 JUMPI POP DUP5 DUP3 ADD MLOAD JUMPDEST PUSH1 0x0 NOT PUSH1 0x3 DUP6 SWAP1 SHL SHR NOT AND PUSH1 0x1 DUP5 SWAP1 SHL OR DUP5 SSTORE PUSH2 0x436 JUMP JUMPDEST PUSH1 0x0 DUP5 DUP2 MSTORE PUSH1 0x20 DUP2 KECCAK256 PUSH1 0x1F NOT DUP6 AND SWAP2 JUMPDEST DUP3 DUP2 LT ISZERO PUSH2 0x4CF JUMPI DUP8 DUP6 ADD MLOAD DUP3 SSTORE PUSH1 0x20 SWAP5 DUP6 ADD SWAP5 PUSH1 0x1 SWAP1 SWAP3 ADD SWAP2 ADD PUSH2 0x4AF JUMP JUMPDEST POP DUP5 DUP3 LT ISZERO PUSH2 0x4ED JUMPI DUP7 DUP5 ADD MLOAD PUSH1 0x0 NOT PUSH1 0x3 DUP8 SWAP1 SHL PUSH1 0xF8 AND SHR NOT AND DUP2 SSTORE JUMPDEST POP POP POP POP PUSH1 0x1 SWAP1 DUP2 SHL ADD SWAP1 SSTORE POP JUMP JUMPDEST PUSH1 0x20 DUP2 MSTORE PUSH1 0x0 DUP3 MLOAD DUP1 PUSH1 0x20 DUP5 ADD MSTORE PUSH1 0x0 JUMPDEST DUP2 DUP2 LT ISZERO PUSH2 0x52A JUMPI PUSH1 0x20 DUP2 DUP7 ADD DUP2 ADD MLOAD PUSH1 0x40 DUP7 DUP5 ADD ADD MSTORE ADD PUSH2 0x50D JUMP JUMPDEST POP PUSH1 0x0 PUSH1 0x40 DUP3 DUP6 ADD ADD MSTORE PUSH1 0x40 PUSH1 0x1F NOT PUSH1 0x1F DUP4 ADD AND DUP5 ADD ADD SWAP2 POP POP SWAP3 SWAP2 POP POP JUMP JUMPDEST DUP1 MLOAD PUSH1 0x20 DUP1 DUP4 ADD MLOAD SWAP2 SWAP1 DUP2 LT ISZERO PUSH2 0x3E9 JUMPI PUSH1 0x0 NOT PUSH1 0x20 SWAP2 SWAP1 SWAP2 SUB PUSH1 0x3 SHL SHL AND SWAP2 SWAP1 POP JUMP JUMPDEST PUSH1 0x80 MLOAD PUSH1 0xA0 MLOAD PUSH1 0xC0 MLOAD PUSH1 0xE0 MLOAD PUSH2 0x100 MLOAD PUSH2 0x120 MLOAD PUSH2 0x140 MLOAD PUSH2 0x4A32 PUSH2 0x5C8 PUSH1 0x0 CODECOPY PUSH1 0x0 PUSH2 0x2CB9 ADD MSTORE PUSH1 0x0 PUSH2 0x2C8C ADD MSTORE PUSH1 0x0 PUSH2 0x2FB5 ADD MSTORE PUSH1 0x0 PUSH2 0x2F8D ADD MSTORE PUSH1 0x0 PUSH2 0x2EE8 ADD MSTORE PUSH1 0x0 PUSH2 0x2F12 ADD MSTORE PUSH1 0x0 PUSH2 0x2F3C ADD MSTORE PUSH2 0x4A32 PUSH1 0x0 RETURN INVALID PUSH1 0x80 PUSH1 0x40 MSTORE PUSH1 0x4 CALLDATASIZE LT PUSH2 0x41F JUMPI PUSH1 0x0 CALLDATALOAD PUSH1 0xE0 SHR DUP1 PUSH4 0x7B3C71D3 GT PUSH2 0x21E JUMPI DUP1 PUSH4 0xC01F9E37 GT PUSH2 0x123 JUMPI DUP1 PUSH4 0xDEAAA7CC GT PUSH2 0xAB JUMPI DUP1 PUSH4 0xEFA90D36 GT PUSH2 0x7A JUMPI DUP1 PUSH4 0xEFA90D36 EQ PUSH2 0xEE6 JUMPI DUP1 PUSH4 0xF1DE9A77 EQ PUSH2 0xEFB JUMPI DUP1 PUSH4 0xF23A6E61 EQ PUSH2 0xF11 JUMPI DUP1 PUSH4 0xF8CE560A EQ PUSH2 0xF3D JUMPI DUP1 PUSH4 0xF9A5C639 EQ PUSH2 0xF66 JUMPI PUSH1 0x0 DUP1 REVERT JUMPDEST DUP1 PUSH4 0xDEAAA7CC EQ PUSH2 0xE52 JUMPI DUP1 PUSH4 0xE540D01D EQ PUSH2 0xE86 JUMPI DUP1 PUSH4 0xEB9019D4 EQ PUSH2 0xEA6 JUMPI DUP1 PUSH4 0xECE40CC1 EQ PUSH2 0xEC6 JUMPI PUSH1 0x0 DUP1 REVERT JUMPDEST DUP1 PUSH4 0xC3214D6C GT PUSH2 0xF2 JUMPI DUP1 PUSH4 0xC3214D6C EQ PUSH2 0xD48 JUMPI DUP1 PUSH4 0xC59057E4 EQ PUSH2 0xD68 JUMPI DUP1 PUSH4 0xCB1C2B5C EQ PUSH2 0xD88 JUMPI DUP1 PUSH4 0xCDBDB293 EQ PUSH2 0xDA5 JUMPI DUP1 PUSH4 0xDD4E2BA5 EQ PUSH2 0xE0C JUMPI PUSH1 0x0 DUP1 REVERT JUMPDEST DUP1 PUSH4 0xC01F9E37 EQ PUSH2 0xCE0 JUMPI DUP1 PUSH4 0xC08CC02D EQ PUSH2 0xD00 JUMPI DUP1 PUSH4 0xC0E393C4 EQ PUSH2 0xD15 JUMPI DUP1 PUSH4 0xC28BC2FA EQ PUSH2 0xD35 JUMPI PUSH1 0x0 DUP1 REVERT JUMPDEST DUP1 PUSH4 0x9B644A23 GT PUSH2 0x1A6 JUMPI DUP1 PUSH4 0xAB58FB8E GT PUSH2 0x175 JUMPI DUP1 PUSH4 0xAB58FB8E EQ PUSH2 0xC27 JUMPI DUP1 PUSH4 0xAB65037D EQ PUSH2 0xC5F JUMPI DUP1 PUSH4 0xB58131B0 EQ PUSH2 0xC7F JUMPI DUP1 PUSH4 0xBB4D4436 EQ PUSH2 0xC94 JUMPI DUP1 PUSH4 0xBC197C81 EQ PUSH2 0xCB4 JUMPI PUSH1 0x0 DUP1 REVERT JUMPDEST DUP1 PUSH4 0x9B644A23 EQ PUSH2 0xBA6 JUMPI DUP1 PUSH4 0xA89FD082 EQ PUSH2 0xBC6 JUMPI DUP1 PUSH4 0xA8F8A668 EQ PUSH2 0xBE6 JUMPI DUP1 PUSH4 0xA9A95294 EQ PUSH2 0xC06 JUMPI PUSH1 0x0 DUP1 REVERT JUMPDEST DUP1 PUSH4 0x84B0196E GT PUSH2 0x1ED JUMPI DUP1 PUSH4 0x84B0196E EQ PUSH2 0xAFB JUMPI DUP1 PUSH4 0x8FF262E3 EQ PUSH2 0xB23 JUMPI DUP1 PUSH4 0x91DDADF4 EQ PUSH2 0xB43 JUMPI DUP1 PUSH4 0x922D01E9 EQ PUSH2 0xB66 JUMPI DUP1 PUSH4 0x9A802A6D EQ PUSH2 0xB86 JUMPI PUSH1 0x0 DUP1 REVERT JUMPDEST DUP1 PUSH4 0x7B3C71D3 EQ PUSH2 0xA65 JUMPI DUP1 PUSH4 0x7D5E81E2 EQ PUSH2 0xA85 JUMPI DUP1 PUSH4 0x7ECEBE00 EQ PUSH2 0xAA5 JUMPI DUP1 PUSH4 0x80821398 EQ PUSH2 0xADB JUMPI PUSH1 0x0 DUP1 REVERT JUMPDEST DUP1 PUSH4 0x452115D6 GT PUSH2 0x324 JUMPI DUP1 PUSH4 0x5F398A14 GT PUSH2 0x2AC JUMPI DUP1 PUSH4 0x701EA6DE GT PUSH2 0x27B JUMPI DUP1 PUSH4 0x701EA6DE EQ PUSH2 0x95D JUMPI DUP1 PUSH4 0x71A1AEA7 EQ PUSH2 0x97D JUMPI DUP1 PUSH4 0x733BDEF0 EQ PUSH2 0x9A0 JUMPI DUP1 PUSH4 0x79051887 EQ PUSH2 0xA25 JUMPI DUP1 PUSH4 0x7B0472F0 EQ PUSH2 0xA45 JUMPI PUSH1 0x0 DUP1 REVERT JUMPDEST DUP1 PUSH4 0x5F398A14 EQ PUSH2 0x8CB JUMPI DUP1 PUSH4 0x68CE7D8A EQ PUSH2 0x8EB JUMPI DUP1 PUSH4 0x6E4F88C8 EQ PUSH2 0x90B JUMPI DUP1 PUSH4 0x6F1E8533 EQ PUSH2 0x92D JUMPI PUSH1 0x0 DUP1 REVERT JUMPDEST DUP1 PUSH4 0x54FD4D50 GT PUSH2 0x2F3 JUMPI DUP1 PUSH4 0x54FD4D50 EQ PUSH2 0x80B JUMPI DUP1 PUSH4 0x56781388 EQ PUSH2 0x835 JUMPI DUP1 PUSH4 0x587CDE1E EQ PUSH2 0x855 JUMPI DUP1 PUSH4 0x5B8D0E0D EQ PUSH2 0x88B JUMPI DUP1 PUSH4 0x5C19A95C EQ PUSH2 0x8AB JUMPI PUSH1 0x0 DUP1 REVERT JUMPDEST DUP1 PUSH4 0x452115D6 EQ PUSH2 0x764 JUMPI DUP1 PUSH4 0x4804874C EQ PUSH2 0x784 JUMPI DUP1 PUSH4 0x4BF5D7E9 EQ PUSH2 0x79A JUMPI DUP1 PUSH4 0x544FFC9C EQ PUSH2 0x7D1 JUMPI PUSH1 0x0 DUP1 REVERT JUMPDEST DUP1 PUSH4 0x2D63F693 GT PUSH2 0x3A7 JUMPI DUP1 PUSH4 0x35680DC2 GT PUSH2 0x376 JUMPI DUP1 PUSH4 0x35680DC2 EQ PUSH2 0x6B5 JUMPI DUP1 PUSH4 0x3890B152 EQ PUSH2 0x6D5 JUMPI DUP1 PUSH4 0x3932ABB1 EQ PUSH2 0x702 JUMPI DUP1 PUSH4 0x3E4F49E6 EQ PUSH2 0x717 JUMPI DUP1 PUSH4 0x43859632 EQ PUSH2 0x744 JUMPI PUSH1 0x0 DUP1 REVERT JUMPDEST DUP1 PUSH4 0x2D63F693 EQ PUSH2 0x636 JUMPI DUP1 PUSH4 0x2DEF6620 EQ PUSH2 0x656 JUMPI DUP1 PUSH4 0x2FE3E261 EQ PUSH2 0x66B JUMPI DUP1 PUSH4 0x3222012F EQ PUSH2 0x69F JUMPI PUSH1 0x0 DUP1 REVERT JUMPDEST DUP1 PUSH4 0x143489D0 GT PUSH2 0x3EE JUMPI DUP1 PUSH4 0x143489D0 EQ PUSH2 0x51A JUMPI DUP1 PUSH4 0x150B7A02 EQ PUSH2 0x568 JUMPI DUP1 PUSH4 0x160CBED7 EQ PUSH2 0x5AC JUMPI DUP1 PUSH4 0x16934FC4 EQ PUSH2 0x5CC JUMPI DUP1 PUSH4 0x2656227D EQ PUSH2 0x623 JUMPI PUSH1 0x0 DUP1 REVERT JUMPDEST DUP1 PUSH4 0x1FFC9A7 EQ PUSH2 0x42C JUMPI DUP1 PUSH4 0x2A251A3 EQ PUSH2 0x461 JUMPI DUP1 PUSH4 0x6FDDE03 EQ PUSH2 0x48D JUMPI DUP1 PUSH4 0xCB4196D EQ PUSH2 0x4AF JUMPI PUSH1 0x0 DUP1 REVERT JUMPDEST CALLDATASIZE PUSH2 0x427 JUMPI JUMPDEST STOP JUMPDEST PUSH1 0x0 DUP1 REVERT JUMPDEST CALLVALUE DUP1 ISZERO PUSH2 0x438 JUMPI PUSH1 0x0 DUP1 REVERT JUMPDEST POP PUSH2 0x44C PUSH2 0x447 CALLDATASIZE PUSH1 0x4 PUSH2 0x3A15 JUMP JUMPDEST PUSH2 0xF93 JUMP JUMPDEST PUSH1 0x40 MLOAD SWAP1 ISZERO ISZERO DUP2 MSTORE PUSH1 0x20 ADD JUMPDEST PUSH1 0x40 MLOAD DUP1 SWAP2 SUB SWAP1 RETURN JUMPDEST CALLVALUE DUP1 ISZERO PUSH2 0x46D JUMPI PUSH1 0x0 DUP1 REVERT JUMPDEST POP PUSH1 0x8 SLOAD PUSH1 0x1 PUSH1 0x30 SHL SWAP1 DIV PUSH4 0xFFFFFFFF AND JUMPDEST PUSH1 0x40 MLOAD SWAP1 DUP2 MSTORE PUSH1 0x20 ADD PUSH2 0x458 JUMP JUMPDEST CALLVALUE DUP1 ISZERO PUSH2 0x499 JUMPI PUSH1 0x0 DUP1 REVERT JUMPDEST POP PUSH2 0x4A2 PUSH2 0x1005 JUMP JUMPDEST PUSH1 0x40 MLOAD PUSH2 0x458 SWAP2 SWAP1 PUSH2 0x3A8F JUMP JUMPDEST CALLVALUE DUP1 ISZERO PUSH2 0x4BB JUMPI PUSH1 0x0 DUP1 REVERT JUMPDEST POP PUSH2 0x4F5 PUSH2 0x4CA CALLDATASIZE PUSH1 0x4 PUSH2 0x3ABE JUMP JUMPDEST PUSH1 0xE PUSH1 0x20 MSTORE PUSH1 0x0 SWAP1 DUP2 MSTORE PUSH1 0x40 SWAP1 KECCAK256 DUP1 SLOAD PUSH1 0x1 DUP3 ADD SLOAD PUSH1 0x2 SWAP1 SWAP3 ADD SLOAD PUSH1 0x1 PUSH1 0x1 PUSH1 0xA0 SHL SUB SWAP1 SWAP2 AND SWAP2 SWAP1 DUP4 JUMP JUMPDEST PUSH1 0x40 DUP1 MLOAD PUSH1 0x1 PUSH1 0x1 PUSH1 0xA0 SHL SUB SWAP1 SWAP5 AND DUP5 MSTORE PUSH1 0x20 DUP5 ADD SWAP3 SWAP1 SWAP3 MSTORE SWAP1 DUP3 ADD MSTORE PUSH1 0x60 ADD PUSH2 0x458 JUMP JUMPDEST CALLVALUE DUP1 ISZERO PUSH2 0x526 JUMPI PUSH1 0x0 DUP1 REVERT JUMPDEST POP PUSH2 0x550 PUSH2 0x535 CALLDATASIZE PUSH1 0x4 PUSH2 0x3AD9 JUMP JUMPDEST PUSH1 0x0 SWAP1 DUP2 MSTORE PUSH1 0x4 PUSH1 0x20 MSTORE PUSH1 0x40 SWAP1 KECCAK256 SLOAD PUSH1 0x1 PUSH1 0x1 PUSH1 0xA0 SHL SUB AND SWAP1 JUMP JUMPDEST PUSH1 0x40 MLOAD PUSH1 0x1 PUSH1 0x1 PUSH1 0xA0 SHL SUB SWAP1 SWAP2 AND DUP2 MSTORE PUSH1 0x20 ADD PUSH2 0x458 JUMP JUMPDEST CALLVALUE DUP1 ISZERO PUSH2 0x574 JUMPI PUSH1 0x0 DUP1 REVERT JUMPDEST POP PUSH2 0x593 PUSH2 0x583 CALLDATASIZE PUSH1 0x4 PUSH2 0x3BB3 JUMP JUMPDEST PUSH4 0xA85BD01 PUSH1 0xE1 SHL SWAP5 SWAP4 POP POP POP POP JUMP JUMPDEST PUSH1 0x40 MLOAD PUSH1 0x1 PUSH1 0x1 PUSH1 0xE0 SHL SUB NOT SWAP1 SWAP2 AND DUP2 MSTORE PUSH1 0x20 ADD PUSH2 0x458 JUMP JUMPDEST CALLVALUE DUP1 ISZERO PUSH2 0x5B8 JUMPI PUSH1 0x0 DUP1 REVERT JUMPDEST POP PUSH2 0x47F PUSH2 0x5C7 CALLDATASIZE PUSH1 0x4 PUSH2 0x3D87 JUMP JUMPDEST PUSH2 0x1097 JUMP JUMPDEST CALLVALUE DUP1 ISZERO PUSH2 0x5D8 JUMPI PUSH1 0x0 DUP1 REVERT JUMPDEST POP PUSH2 0x608 PUSH2 0x5E7 CALLDATASIZE PUSH1 0x4 PUSH2 0x3ABE JUMP JUMPDEST PUSH1 0xF PUSH1 0x20 MSTORE PUSH1 0x0 SWAP1 DUP2 MSTORE PUSH1 0x40 SWAP1 KECCAK256 DUP1 SLOAD PUSH1 0x1 DUP3 ADD SLOAD PUSH1 0x2 SWAP1 SWAP3 ADD SLOAD SWAP1 SWAP2 SWAP1 DUP4 JUMP JUMPDEST PUSH1 0x40 DUP1 MLOAD SWAP4 DUP5 MSTORE PUSH1 0x20 DUP5 ADD SWAP3 SWAP1 SWAP3 MSTORE SWAP1 DUP3 ADD MSTORE PUSH1 0x60 ADD PUSH2 0x458 JUMP JUMPDEST PUSH2 0x47F PUSH2 0x631 CALLDATASIZE PUSH1 0x4 PUSH2 0x3D87 JUMP JUMPDEST PUSH2 0x10E1 JUMP JUMPDEST CALLVALUE DUP1 ISZERO PUSH2 0x642 JUMPI PUSH1 0x0 DUP1 REVERT JUMPDEST POP PUSH2 0x47F PUSH2 0x651 CALLDATASIZE PUSH1 0x4 PUSH2 0x3AD9 JUMP JUMPDEST PUSH2 0x120C JUMP JUMPDEST CALLVALUE DUP1 ISZERO PUSH2 0x662 JUMPI PUSH1 0x0 DUP1 REVERT JUMPDEST POP PUSH2 0x425 PUSH2 0x122D JUMP JUMPDEST CALLVALUE DUP1 ISZERO PUSH2 0x677 JUMPI PUSH1 0x0 DUP1 REVERT JUMPDEST POP PUSH2 0x47F PUSH32 0x3E83946653575F9A39005E1545185629E92736B7528AB20CA3816F315424A811 DUP2 JUMP JUMPDEST CALLVALUE DUP1 ISZERO PUSH2 0x6AB JUMPI PUSH1 0x0 DUP1 REVERT JUMPDEST POP PUSH2 0x47F PUSH1 0xD SLOAD DUP2 JUMP JUMPDEST CALLVALUE DUP1 ISZERO PUSH2 0x6C1 JUMPI PUSH1 0x0 DUP1 REVERT JUMPDEST POP PUSH2 0x425 PUSH2 0x6D0 CALLDATASIZE PUSH1 0x4 PUSH2 0x3AD9 JUMP JUMPDEST PUSH2 0x14A2 JUMP JUMPDEST CALLVALUE DUP1 ISZERO PUSH2 0x6E1 JUMPI PUSH1 0x0 DUP1 REVERT JUMPDEST POP PUSH2 0x47F PUSH2 0x6F0 CALLDATASIZE PUSH1 0x4 PUSH2 0x3ABE JUMP JUMPDEST PUSH1 0x10 PUSH1 0x20 MSTORE PUSH1 0x0 SWAP1 DUP2 MSTORE PUSH1 0x40 SWAP1 KECCAK256 SLOAD DUP2 JUMP JUMPDEST CALLVALUE DUP1 ISZERO PUSH2 0x70E JUMPI PUSH1 0x0 DUP1 REVERT JUMPDEST POP PUSH2 0x47F PUSH2 0x14AA JUMP JUMPDEST CALLVALUE DUP1 ISZERO PUSH2 0x723 JUMPI PUSH1 0x0 DUP1 REVERT JUMPDEST POP PUSH2 0x737 PUSH2 0x732 CALLDATASIZE PUSH1 0x4 PUSH2 0x3AD9 JUMP JUMPDEST PUSH2 0x14BD JUMP JUMPDEST PUSH1 0x40 MLOAD PUSH2 0x458 SWAP2 SWAP1 PUSH2 0x3E58 JUMP JUMPDEST CALLVALUE DUP1 ISZERO PUSH2 0x750 JUMPI PUSH1 0x0 DUP1 REVERT JUMPDEST POP PUSH2 0x44C PUSH2 0x75F CALLDATASIZE PUSH1 0x4 PUSH2 0x3E66 JUMP JUMPDEST PUSH2 0x15EC JUMP JUMPDEST CALLVALUE DUP1 ISZERO PUSH2 0x770 JUMPI PUSH1 0x0 DUP1 REVERT JUMPDEST POP PUSH2 0x47F PUSH2 0x77F CALLDATASIZE PUSH1 0x4 PUSH2 0x3D87 JUMP JUMPDEST PUSH2 0x161D JUMP JUMPDEST CALLVALUE DUP1 ISZERO PUSH2 0x790 JUMPI PUSH1 0x0 DUP1 REVERT JUMPDEST POP PUSH2 0x47F PUSH1 0xB SLOAD DUP2 JUMP JUMPDEST CALLVALUE DUP1 ISZERO PUSH2 0x7A6 JUMPI PUSH1 0x0 DUP1 REVERT JUMPDEST POP PUSH1 0x40 DUP1 MLOAD DUP1 DUP3 ADD SWAP1 SWAP2 MSTORE PUSH1 0xE DUP2 MSTORE PUSH14 0x6D6F64653D74696D657374616D7 PUSH1 0x94 SHL PUSH1 0x20 DUP3 ADD MSTORE PUSH2 0x4A2 JUMP JUMPDEST CALLVALUE DUP1 ISZERO PUSH2 0x7DD JUMPI PUSH1 0x0 DUP1 REVERT JUMPDEST POP PUSH2 0x608 PUSH2 0x7EC CALLDATASIZE PUSH1 0x4 PUSH2 0x3AD9 JUMP JUMPDEST PUSH1 0x0 SWAP1 DUP2 MSTORE PUSH1 0x9 PUSH1 0x20 MSTORE PUSH1 0x40 SWAP1 KECCAK256 DUP1 SLOAD PUSH1 0x1 DUP3 ADD SLOAD PUSH1 0x2 SWAP1 SWAP3 ADD SLOAD SWAP1 SWAP3 JUMP JUMPDEST CALLVALUE DUP1 ISZERO PUSH2 0x817 JUMPI PUSH1 0x0 DUP1 REVERT JUMPDEST POP PUSH1 0x40 DUP1 MLOAD DUP1 DUP3 ADD SWAP1 SWAP2 MSTORE PUSH1 0x1 DUP2 MSTORE PUSH1 0x31 PUSH1 0xF8 SHL PUSH1 0x20 DUP3 ADD MSTORE PUSH2 0x4A2 JUMP JUMPDEST CALLVALUE DUP1 ISZERO PUSH2 0x841 JUMPI PUSH1 0x0 DUP1 REVERT JUMPDEST POP PUSH2 0x47F PUSH2 0x850 CALLDATASIZE PUSH1 0x4 PUSH2 0x3EA3 JUMP JUMPDEST PUSH2 0x167F JUMP JUMPDEST CALLVALUE DUP1 ISZERO PUSH2 0x861 JUMPI PUSH1 0x0 DUP1 REVERT JUMPDEST POP PUSH2 0x550 PUSH2 0x870 CALLDATASIZE PUSH1 0x4 PUSH2 0x3ABE JUMP JUMPDEST PUSH1 0x11 PUSH1 0x20 MSTORE PUSH1 0x0 SWAP1 DUP2 MSTORE PUSH1 0x40 SWAP1 KECCAK256 SLOAD PUSH1 0x1 PUSH1 0x1 PUSH1 0xA0 SHL SUB AND DUP2 JUMP JUMPDEST CALLVALUE DUP1 ISZERO PUSH2 0x897 JUMPI PUSH1 0x0 DUP1 REVERT JUMPDEST POP PUSH2 0x47F PUSH2 0x8A6 CALLDATASIZE PUSH1 0x4 PUSH2 0x3F0E JUMP JUMPDEST PUSH2 0x16A8 JUMP JUMPDEST CALLVALUE DUP1 ISZERO PUSH2 0x8B7 JUMPI PUSH1 0x0 DUP1 REVERT JUMPDEST POP PUSH2 0x425 PUSH2 0x8C6 CALLDATASIZE PUSH1 0x4 PUSH2 0x3ABE JUMP JUMPDEST PUSH2 0x1807 JUMP JUMPDEST CALLVALUE DUP1 ISZERO PUSH2 0x8D7 JUMPI PUSH1 0x0 DUP1 REVERT JUMPDEST POP PUSH2 0x47F PUSH2 0x8E6 CALLDATASIZE PUSH1 0x4 PUSH2 0x3FD0 JUMP JUMPDEST PUSH2 0x19CD JUMP JUMPDEST CALLVALUE DUP1 ISZERO PUSH2 0x8F7 JUMPI PUSH1 0x0 DUP1 REVERT JUMPDEST POP PUSH2 0x425 PUSH2 0x906 CALLDATASIZE PUSH1 0x4 PUSH2 0x4057 JUMP JUMPDEST PUSH2 0x1A17 JUMP JUMPDEST CALLVALUE DUP1 ISZERO PUSH2 0x917 JUMPI PUSH1 0x0 DUP1 REVERT JUMPDEST POP PUSH2 0x920 PUSH2 0x1BA1 JUMP JUMPDEST PUSH1 0x40 MLOAD PUSH2 0x458 SWAP2 SWAP1 PUSH2 0x40C6 JUMP JUMPDEST CALLVALUE DUP1 ISZERO PUSH2 0x939 JUMPI PUSH1 0x0 DUP1 REVERT JUMPDEST POP PUSH2 0x44C PUSH2 0x948 CALLDATASIZE PUSH1 0x4 PUSH2 0x3ABE JUMP JUMPDEST PUSH1 0x13 PUSH1 0x20 MSTORE PUSH1 0x0 SWAP1 DUP2 MSTORE PUSH1 0x40 SWAP1 KECCAK256 SLOAD PUSH1 0xFF AND DUP2 JUMP JUMPDEST CALLVALUE DUP1 ISZERO PUSH2 0x969 JUMPI PUSH1 0x0 DUP1 REVERT JUMPDEST POP PUSH2 0x47F PUSH2 0x978 CALLDATASIZE PUSH1 0x4 PUSH2 0x3ABE JUMP JUMPDEST PUSH2 0x1C02 JUMP JUMPDEST CALLVALUE DUP1 ISZERO PUSH2 0x989 JUMPI PUSH1 0x0 DUP1 REVERT JUMPDEST POP PUSH2 0x992 PUSH2 0x1C4F JUMP JUMPDEST PUSH1 0x40 MLOAD PUSH2 0x458 SWAP3 SWAP2 SWAP1 PUSH2 0x410B JUMP JUMPDEST CALLVALUE DUP1 ISZERO PUSH2 0x9AC JUMPI PUSH1 0x0 DUP1 REVERT JUMPDEST POP PUSH2 0xA03 PUSH2 0x9BB CALLDATASIZE PUSH1 0x4 PUSH2 0x3ABE JUMP JUMPDEST PUSH1 0x1 PUSH1 0x1 PUSH1 0xA0 SHL SUB AND PUSH1 0x0 SWAP1 DUP2 MSTORE PUSH1 0xF PUSH1 0x20 SWAP1 DUP2 MSTORE PUSH1 0x40 SWAP2 DUP3 SWAP1 KECCAK256 DUP3 MLOAD PUSH1 0x60 DUP2 ADD DUP5 MSTORE DUP2 SLOAD DUP1 DUP3 MSTORE PUSH1 0x1 DUP4 ADD SLOAD SWAP4 DUP3 ADD DUP5 SWAP1 MSTORE PUSH1 0x2 SWAP1 SWAP3 ADD SLOAD SWAP4 ADD DUP4 SWAP1 MSTORE SWAP3 SWAP1 SWAP2 SWAP1 DUP4 ISZERO ISZERO SWAP1 JUMP JUMPDEST PUSH1 0x40 DUP1 MLOAD SWAP5 DUP6 MSTORE PUSH1 0x20 DUP6 ADD SWAP4 SWAP1 SWAP4 MSTORE SWAP2 DUP4 ADD MSTORE ISZERO ISZERO PUSH1 0x60 DUP3 ADD MSTORE PUSH1 0x80 ADD PUSH2 0x458 JUMP JUMPDEST CALLVALUE DUP1 ISZERO PUSH2 0xA31 JUMPI PUSH1 0x0 DUP1 REVERT JUMPDEST POP PUSH2 0x425 PUSH2 0xA40 CALLDATASIZE PUSH1 0x4 PUSH2 0x416D JUMP JUMPDEST PUSH2 0x1E1A JUMP JUMPDEST CALLVALUE DUP1 ISZERO PUSH2 0xA51 JUMPI PUSH1 0x0 DUP1 REVERT JUMPDEST POP PUSH2 0x425 PUSH2 0xA60 CALLDATASIZE PUSH1 0x4 PUSH2 0x4195 JUMP JUMPDEST PUSH2 0x1E2B JUMP JUMPDEST CALLVALUE DUP1 ISZERO PUSH2 0xA71 JUMPI PUSH1 0x0 DUP1 REVERT JUMPDEST POP PUSH2 0x47F PUSH2 0xA80 CALLDATASIZE PUSH1 0x4 PUSH2 0x41B7 JUMP JUMPDEST PUSH2 0x2074 JUMP JUMPDEST CALLVALUE DUP1 ISZERO PUSH2 0xA91 JUMPI PUSH1 0x0 DUP1 REVERT JUMPDEST POP PUSH2 0x47F PUSH2 0xAA0 CALLDATASIZE PUSH1 0x4 PUSH2 0x4210 JUMP JUMPDEST PUSH2 0x20C6 JUMP JUMPDEST CALLVALUE DUP1 ISZERO PUSH2 0xAB1 JUMPI PUSH1 0x0 DUP1 REVERT JUMPDEST POP PUSH2 0x47F PUSH2 0xAC0 CALLDATASIZE PUSH1 0x4 PUSH2 0x3ABE JUMP JUMPDEST PUSH1 0x1 PUSH1 0x1 PUSH1 0xA0 SHL SUB AND PUSH1 0x0 SWAP1 DUP2 MSTORE PUSH1 0x2 PUSH1 0x20 MSTORE PUSH1 0x40 SWAP1 KECCAK256 SLOAD SWAP1 JUMP JUMPDEST CALLVALUE DUP1 ISZERO PUSH2 0xAE7 JUMPI PUSH1 0x0 DUP1 REVERT JUMPDEST POP PUSH2 0x425 PUSH2 0xAF6 CALLDATASIZE PUSH1 0x4 PUSH2 0x3AD9 JUMP JUMPDEST PUSH2 0x2176 JUMP JUMPDEST CALLVALUE DUP1 ISZERO PUSH2 0xB07 JUMPI PUSH1 0x0 DUP1 REVERT JUMPDEST POP PUSH2 0xB10 PUSH2 0x2183 JUMP JUMPDEST PUSH1 0x40 MLOAD PUSH2 0x458 SWAP8 SWAP7 SWAP6 SWAP5 SWAP4 SWAP3 SWAP2 SWAP1 PUSH2 0x42D4 JUMP JUMPDEST CALLVALUE DUP1 ISZERO PUSH2 0xB2F JUMPI PUSH1 0x0 DUP1 REVERT JUMPDEST POP PUSH2 0x47F PUSH2 0xB3E CALLDATASIZE PUSH1 0x4 PUSH2 0x4344 JUMP JUMPDEST PUSH2 0x21C9 JUMP JUMPDEST CALLVALUE DUP1 ISZERO PUSH2 0xB4F JUMPI PUSH1 0x0 DUP1 REVERT JUMPDEST POP PUSH1 0x40 MLOAD PUSH6 0xFFFFFFFFFFFF TIMESTAMP AND DUP2 MSTORE PUSH1 0x20 ADD PUSH2 0x458 JUMP JUMPDEST CALLVALUE DUP1 ISZERO PUSH2 0xB72 JUMPI PUSH1 0x0 DUP1 REVERT JUMPDEST POP PUSH2 0x425 PUSH2 0xB81 CALLDATASIZE PUSH1 0x4 PUSH2 0x3AD9 JUMP JUMPDEST PUSH2 0x229B JUMP JUMPDEST CALLVALUE DUP1 ISZERO PUSH2 0xB92 JUMPI PUSH1 0x0 DUP1 REVERT JUMPDEST POP PUSH2 0x47F PUSH2 0xBA1 CALLDATASIZE PUSH1 0x4 PUSH2 0x4393 JUMP JUMPDEST PUSH2 0x22A8 JUMP JUMPDEST CALLVALUE DUP1 ISZERO PUSH2 0xBB2 JUMPI PUSH1 0x0 DUP1 REVERT JUMPDEST POP PUSH2 0x47F PUSH2 0xBC1 CALLDATASIZE PUSH1 0x4 PUSH2 0x3AD9 JUMP JUMPDEST PUSH2 0x22B5 JUMP JUMPDEST CALLVALUE DUP1 ISZERO PUSH2 0xBD2 JUMPI PUSH1 0x0 DUP1 REVERT JUMPDEST POP PUSH1 0xA SLOAD PUSH2 0x550 SWAP1 PUSH1 0x1 PUSH1 0x1 PUSH1 0xA0 SHL SUB AND DUP2 JUMP JUMPDEST CALLVALUE DUP1 ISZERO PUSH2 0xBF2 JUMPI PUSH1 0x0 DUP1 REVERT JUMPDEST POP PUSH2 0x47F PUSH2 0xC01 CALLDATASIZE PUSH1 0x4 PUSH2 0x3D87 JUMP JUMPDEST PUSH2 0x22D6 JUMP JUMPDEST CALLVALUE DUP1 ISZERO PUSH2 0xC12 JUMPI PUSH1 0x0 DUP1 REVERT JUMPDEST POP PUSH2 0x44C PUSH2 0xC21 CALLDATASIZE PUSH1 0x4 PUSH2 0x3AD9 JUMP JUMPDEST POP PUSH1 0x0 SWAP1 JUMP JUMPDEST CALLVALUE DUP1 ISZERO PUSH2 0xC33 JUMPI PUSH1 0x0 DUP1 REVERT JUMPDEST POP PUSH2 0x47F PUSH2 0xC42 CALLDATASIZE PUSH1 0x4 PUSH2 0x3AD9 JUMP JUMPDEST PUSH1 0x0 SWAP1 DUP2 MSTORE PUSH1 0x4 PUSH1 0x20 MSTORE PUSH1 0x40 SWAP1 KECCAK256 PUSH1 0x1 ADD SLOAD PUSH6 0xFFFFFFFFFFFF AND SWAP1 JUMP JUMPDEST CALLVALUE DUP1 ISZERO PUSH2 0xC6B JUMPI PUSH1 0x0 DUP1 REVERT JUMPDEST POP PUSH2 0x425 PUSH2 0xC7A CALLDATASIZE PUSH1 0x4 PUSH2 0x43E9 JUMP JUMPDEST PUSH2 0x22ED JUMP JUMPDEST CALLVALUE DUP1 ISZERO PUSH2 0xC8B JUMPI PUSH1 0x0 DUP1 REVERT JUMPDEST POP PUSH2 0x47F PUSH2 0x23DA JUMP JUMPDEST CALLVALUE DUP1 ISZERO PUSH2 0xCA0 JUMPI PUSH1 0x0 DUP1 REVERT JUMPDEST POP PUSH2 0x608 PUSH2 0xCAF CALLDATASIZE PUSH1 0x4 PUSH2 0x3ABE JUMP JUMPDEST PUSH2 0x23E5 JUMP JUMPDEST CALLVALUE DUP1 ISZERO PUSH2 0xCC0 JUMPI PUSH1 0x0 DUP1 REVERT JUMPDEST POP PUSH2 0x593 PUSH2 0xCCF CALLDATASIZE PUSH1 0x4 PUSH2 0x441C JUMP JUMPDEST PUSH4 0xBC197C81 PUSH1 0xE0 SHL SWAP6 SWAP5 POP POP POP POP POP JUMP JUMPDEST CALLVALUE DUP1 ISZERO PUSH2 0xCEC JUMPI PUSH1 0x0 DUP1 REVERT JUMPDEST POP PUSH2 0x47F PUSH2 0xCFB CALLDATASIZE PUSH1 0x4 PUSH2 0x3AD9 JUMP JUMPDEST PUSH2 0x2478 JUMP JUMPDEST CALLVALUE DUP1 ISZERO PUSH2 0xD0C JUMPI PUSH1 0x0 DUP1 REVERT JUMPDEST POP PUSH1 0x14 SLOAD PUSH2 0x47F JUMP JUMPDEST CALLVALUE DUP1 ISZERO PUSH2 0xD21 JUMPI PUSH1 0x0 DUP1 REVERT JUMPDEST POP PUSH2 0x425 PUSH2 0xD30 CALLDATASIZE PUSH1 0x4 PUSH2 0x3AD9 JUMP JUMPDEST PUSH2 0x24BB JUMP JUMPDEST PUSH2 0x425 PUSH2 0xD43 CALLDATASIZE PUSH1 0x4 PUSH2 0x44B6 JUMP JUMPDEST PUSH2 0x24C8 JUMP JUMPDEST CALLVALUE DUP1 ISZERO PUSH2 0xD54 JUMPI PUSH1 0x0 DUP1 REVERT JUMPDEST POP PUSH2 0x550 PUSH2 0xD63 CALLDATASIZE PUSH1 0x4 PUSH2 0x3AD9 JUMP JUMPDEST PUSH2 0x2548 JUMP JUMPDEST CALLVALUE DUP1 ISZERO PUSH2 0xD74 JUMPI PUSH1 0x0 DUP1 REVERT JUMPDEST POP PUSH2 0x47F PUSH2 0xD83 CALLDATASIZE PUSH1 0x4 PUSH2 0x3D87 JUMP JUMPDEST PUSH2 0x2572 JUMP JUMPDEST CALLVALUE DUP1 ISZERO PUSH2 0xD94 JUMPI PUSH1 0x0 DUP1 REVERT JUMPDEST POP PUSH2 0x47F PUSH9 0x56BC75E2D63100000 DUP2 JUMP JUMPDEST CALLVALUE DUP1 ISZERO PUSH2 0xDB1 JUMPI PUSH1 0x0 DUP1 REVERT JUMPDEST POP PUSH2 0x4F5 PUSH2 0xDC0 CALLDATASIZE PUSH1 0x4 PUSH2 0x3ABE JUMP JUMPDEST PUSH1 0x1 PUSH1 0x1 PUSH1 0xA0 SHL SUB DUP1 DUP3 AND PUSH1 0x0 SWAP1 DUP2 MSTORE PUSH1 0xE PUSH1 0x20 SWAP1 DUP2 MSTORE PUSH1 0x40 SWAP2 DUP3 SWAP1 KECCAK256 DUP3 MLOAD PUSH1 0x60 DUP2 ADD DUP5 MSTORE DUP2 SLOAD SWAP1 SWAP5 AND DUP1 DUP6 MSTORE PUSH1 0x1 DUP3 ADD SLOAD SWAP3 DUP6 ADD DUP4 SWAP1 MSTORE PUSH1 0x2 SWAP1 SWAP2 ADD SLOAD SWAP4 SWAP1 SWAP3 ADD DUP4 SWAP1 MSTORE SWAP1 SWAP4 SWAP1 SWAP3 POP JUMP JUMPDEST CALLVALUE DUP1 ISZERO PUSH2 0xE18 JUMPI PUSH1 0x0 DUP1 REVERT JUMPDEST POP PUSH1 0x40 DUP1 MLOAD DUP1 DUP3 ADD SWAP1 SWAP2 MSTORE PUSH1 0x20 DUP1 DUP3 MSTORE PUSH32 0x737570706F72743D627261766F2671756F72756D3D666F722C6162737461696E SWAP1 DUP3 ADD MSTORE PUSH2 0x4A2 JUMP JUMPDEST CALLVALUE DUP1 ISZERO PUSH2 0xE5E JUMPI PUSH1 0x0 DUP1 REVERT JUMPDEST POP PUSH2 0x47F PUSH32 0xF2AAD550CF55F045CB27E9C559F9889FDFB6E6CDAA032301D6EA397784AE51D7 DUP2 JUMP JUMPDEST CALLVALUE DUP1 ISZERO PUSH2 0xE92 JUMPI PUSH1 0x0 DUP1 REVERT JUMPDEST POP PUSH2 0x425 PUSH2 0xEA1 CALLDATASIZE PUSH1 0x4 PUSH2 0x44F7 JUMP JUMPDEST PUSH2 0x25AC JUMP JUMPDEST CALLVALUE DUP1 ISZERO PUSH2 0xEB2 JUMPI PUSH1 0x0 DUP1 REVERT JUMPDEST POP PUSH2 0x47F PUSH2 0xEC1 CALLDATASIZE PUSH1 0x4 PUSH2 0x4057 JUMP JUMPDEST PUSH2 0x25BD JUMP JUMPDEST CALLVALUE DUP1 ISZERO PUSH2 0xED2 JUMPI PUSH1 0x0 DUP1 REVERT JUMPDEST POP PUSH2 0x425 PUSH2 0xEE1 CALLDATASIZE PUSH1 0x4 PUSH2 0x3AD9 JUMP JUMPDEST PUSH2 0x25DE JUMP JUMPDEST CALLVALUE DUP1 ISZERO PUSH2 0xEF2 JUMPI PUSH1 0x0 DUP1 REVERT JUMPDEST POP PUSH2 0x992 PUSH2 0x25EF JUMP JUMPDEST CALLVALUE DUP1 ISZERO PUSH2 0xF07 JUMPI PUSH1 0x0 DUP1 REVERT JUMPDEST POP PUSH2 0x47F PUSH1 0xC SLOAD DUP2 JUMP JUMPDEST CALLVALUE DUP1 ISZERO PUSH2 0xF1D JUMPI PUSH1 0x0 DUP1 REVERT JUMPDEST POP PUSH2 0x593 PUSH2 0xF2C CALLDATASIZE PUSH1 0x4 PUSH2 0x451D JUMP JUMPDEST PUSH4 0xF23A6E61 PUSH1 0xE0 SHL SWAP6 SWAP5 POP POP POP POP POP JUMP JUMPDEST CALLVALUE DUP1 ISZERO PUSH2 0xF49 JUMPI PUSH1 0x0 DUP1 REVERT JUMPDEST POP PUSH2 0x47F PUSH2 0xF58 CALLDATASIZE PUSH1 0x4 PUSH2 0x3AD9 JUMP JUMPDEST POP PUSH9 0x2B5E3AF16B1880000 SWAP1 JUMP JUMPDEST CALLVALUE DUP1 ISZERO PUSH2 0xF72 JUMPI PUSH1 0x0 DUP1 REVERT JUMPDEST POP PUSH2 0x47F PUSH2 0xF81 CALLDATASIZE PUSH1 0x4 PUSH2 0x3ABE JUMP JUMPDEST PUSH1 0x12 PUSH1 0x20 MSTORE PUSH1 0x0 SWAP1 DUP2 MSTORE PUSH1 0x40 SWAP1 KECCAK256 SLOAD DUP2 JUMP JUMPDEST PUSH1 0x0 PUSH1 0x1 PUSH1 0x1 PUSH1 0xE0 SHL SUB NOT DUP3 AND PUSH4 0x66DEFE77 PUSH1 0xE1 SHL EQ DUP1 PUSH2 0xFC4 JUMPI POP PUSH1 0x1 PUSH1 0x1 PUSH1 0xE0 SHL SUB NOT DUP3 AND PUSH4 0x32A2AD43 PUSH1 0xE1 SHL EQ JUMPDEST DUP1 PUSH2 0xFDF JUMPI POP PUSH1 0x1 PUSH1 0x1 PUSH1 0xE0 SHL SUB NOT DUP3 AND PUSH4 0x2711897 PUSH1 0xE5 SHL EQ JUMPDEST DUP1 PUSH2 0xFFA JUMPI POP PUSH4 0x1FFC9A7 PUSH1 0xE0 SHL PUSH1 0x1 PUSH1 0x1 PUSH1 0xE0 SHL SUB NOT DUP4 AND EQ JUMPDEST SWAP3 SWAP2 POP POP JUMP JUMPDEST SWAP1 POP SWAP1 JUMP JUMPDEST PUSH1 0x60 PUSH1 0x3 DUP1 SLOAD PUSH2 0x1014 SWAP1 PUSH2 0x4575 JUMP JUMPDEST DUP1 PUSH1 0x1F ADD PUSH1 0x20 DUP1 SWAP2 DIV MUL PUSH1 0x20 ADD PUSH1 0x40 MLOAD SWAP1 DUP2 ADD PUSH1 0x40 MSTORE DUP1 SWAP3 SWAP2 SWAP1 DUP2 DUP2 MSTORE PUSH1 0x20 ADD DUP3 DUP1 SLOAD PUSH2 0x1040 SWAP1 PUSH2 0x4575 JUMP JUMPDEST DUP1 ISZERO PUSH2 0x108D JUMPI DUP1 PUSH1 0x1F LT PUSH2 0x1062 JUMPI PUSH2 0x100 DUP1 DUP4 SLOAD DIV MUL DUP4 MSTORE SWAP2 PUSH1 0x20 ADD SWAP2 PUSH2 0x108D JUMP JUMPDEST DUP3 ADD SWAP2 SWAP1 PUSH1 0x0 MSTORE PUSH1 0x20 PUSH1 0x0 KECCAK256 SWAP1 JUMPDEST DUP2 SLOAD DUP2 MSTORE SWAP1 PUSH1 0x1 ADD SWAP1 PUSH1 0x20 ADD DUP1 DUP4 GT PUSH2 0x1070 JUMPI DUP3 SWAP1 SUB PUSH1 0x1F AND DUP3 ADD SWAP2 JUMPDEST POP POP POP POP POP SWAP1 POP SWAP1 JUMP JUMPDEST PUSH1 0x0 DUP1 PUSH2 0x10A6 DUP7 DUP7 DUP7 DUP7 PUSH2 0x22D6 JUMP JUMPDEST SWAP1 POP PUSH2 0x10BB DUP2 PUSH2 0x10B6 PUSH1 0x4 PUSH2 0x272E JUMP JUMPDEST PUSH2 0x2751 JUMP JUMPDEST POP PUSH1 0x0 PUSH1 0x40 MLOAD PUSH4 0x48442523 PUSH1 0xE1 SHL DUP2 MSTORE PUSH1 0x4 ADD PUSH1 0x40 MLOAD DUP1 SWAP2 SUB SWAP1 REVERT JUMPDEST POP SWAP6 SWAP5 POP POP POP POP POP JUMP JUMPDEST PUSH1 0x0 DUP1 PUSH2 0x10F0 DUP7 DUP7 DUP7 DUP7 PUSH2 0x22D6 JUMP JUMPDEST SWAP1 POP PUSH2 0x1110 DUP2 PUSH2 0x1100 PUSH1 0x5 PUSH2 0x272E JUMP JUMPDEST PUSH2 0x110A PUSH1 0x4 PUSH2 0x272E JUMP JUMPDEST OR PUSH2 0x2751 JUMP JUMPDEST POP PUSH1 0x0 DUP2 DUP2 MSTORE PUSH1 0x4 PUSH1 0x20 MSTORE PUSH1 0x40 SWAP1 KECCAK256 DUP1 SLOAD PUSH1 0xFF PUSH1 0xF0 SHL NOT AND PUSH1 0x1 PUSH1 0xF0 SHL OR SWAP1 SSTORE ADDRESS PUSH2 0x1138 ADDRESS SWAP1 JUMP JUMPDEST PUSH1 0x1 PUSH1 0x1 PUSH1 0xA0 SHL SUB AND EQ PUSH2 0x11C2 JUMPI PUSH1 0x0 JUMPDEST DUP7 MLOAD DUP2 LT ISZERO PUSH2 0x11C0 JUMPI ADDRESS PUSH1 0x1 PUSH1 0x1 PUSH1 0xA0 SHL SUB AND DUP8 DUP3 DUP2 MLOAD DUP2 LT PUSH2 0x116E JUMPI PUSH2 0x116E PUSH2 0x45AF JUMP JUMPDEST PUSH1 0x20 MUL PUSH1 0x20 ADD ADD MLOAD PUSH1 0x1 PUSH1 0x1 PUSH1 0xA0 SHL SUB AND SUB PUSH2 0x11B8 JUMPI PUSH2 0x11B8 DUP6 DUP3 DUP2 MLOAD DUP2 LT PUSH2 0x1199 JUMPI PUSH2 0x1199 PUSH2 0x45AF JUMP JUMPDEST PUSH1 0x20 MUL PUSH1 0x20 ADD ADD MLOAD DUP1 MLOAD SWAP1 PUSH1 0x20 ADD KECCAK256 PUSH1 0x5 PUSH2 0x2790 SWAP1 SWAP2 SWAP1 PUSH4 0xFFFFFFFF AND JUMP JUMPDEST PUSH1 0x1 ADD PUSH2 0x1149 JUMP JUMPDEST POP JUMPDEST PUSH2 0x11CF DUP2 DUP8 DUP8 DUP8 DUP8 PUSH2 0x27F2 JUMP JUMPDEST PUSH1 0x40 MLOAD DUP2 DUP2 MSTORE PUSH32 0x712AE1383F79AC853F8D882153778E0260EF8F03B504E2866E0593E04D2B291F SWAP1 PUSH1 0x20 ADD JUMPDEST PUSH1 0x40 MLOAD DUP1 SWAP2 SUB SWAP1 LOG1 SWAP6 SWAP5 POP POP POP POP POP JUMP JUMPDEST PUSH1 0x0 SWAP1 DUP2 MSTORE PUSH1 0x4 PUSH1 0x20 MSTORE PUSH1 0x40 SWAP1 KECCAK256 SLOAD PUSH1 0x1 PUSH1 0xA0 SHL SWAP1 DIV PUSH6 0xFFFFFFFFFFFF AND SWAP1 JUMP JUMPDEST CALLER PUSH1 0x0 SWAP1 DUP2 MSTORE PUSH1 0xF PUSH1 0x20 SWAP1 DUP2 MSTORE PUSH1 0x40 SWAP2 DUP3 SWAP1 KECCAK256 DUP3 MLOAD PUSH1 0x60 DUP2 ADD DUP5 MSTORE DUP2 SLOAD DUP1 DUP3 MSTORE PUSH1 0x1 DUP4 ADD SLOAD SWAP4 DUP3 ADD SWAP4 SWAP1 SWAP4 MSTORE PUSH1 0x2 SWAP1 SWAP2 ADD SLOAD SWAP3 DUP2 ADD SWAP3 SWAP1 SWAP3 MSTORE PUSH2 0x12A8 JUMPI PUSH1 0x40 MLOAD PUSH3 0x461BCD PUSH1 0xE5 SHL DUP2 MSTORE PUSH1 0x20 PUSH1 0x4 DUP3 ADD MSTORE PUSH1 0xE PUSH1 0x24 DUP3 ADD MSTORE PUSH14 0x139BC81CDD185AD948199BDD5B99 PUSH1 0x92 SHL PUSH1 0x44 DUP3 ADD MSTORE PUSH1 0x64 ADD JUMPDEST PUSH1 0x40 MLOAD DUP1 SWAP2 SUB SWAP1 REVERT JUMPDEST DUP1 PUSH1 0x20 ADD MLOAD TIMESTAMP LT ISZERO PUSH2 0x12F1 JUMPI PUSH1 0x40 MLOAD PUSH3 0x461BCD PUSH1 0xE5 SHL DUP2 MSTORE PUSH1 0x20 PUSH1 0x4 DUP3 ADD MSTORE PUSH1 0x12 PUSH1 0x24 DUP3 ADD MSTORE PUSH18 0x14DD185AD9481CDD1A5B1B081B1BD8DAD959 PUSH1 0x72 SHL PUSH1 0x44 DUP3 ADD MSTORE PUSH1 0x64 ADD PUSH2 0x129F JUMP JUMPDEST CALLER PUSH1 0x0 SWAP1 DUP2 MSTORE PUSH1 0x10 PUSH1 0x20 MSTORE PUSH1 0x40 DUP2 KECCAK256 SLOAD SWAP1 SUB PUSH2 0x1366 JUMPI CALLER PUSH1 0x0 DUP2 DUP2 MSTORE PUSH1 0x10 PUSH1 0x20 MSTORE PUSH1 0x40 SWAP1 KECCAK256 TIMESTAMP SWAP1 DUP2 SWAP1 SSTORE PUSH1 0xD SLOAD PUSH32 0x57E41DF54512C76148B5BA9B643D149752B0D35E493B969BD017D0A3FE5228CF SWAP2 SWAP1 PUSH2 0x134B SWAP1 DUP3 PUSH2 0x45DB JUMP JUMPDEST PUSH1 0x40 DUP1 MLOAD SWAP3 DUP4 MSTORE PUSH1 0x20 DUP4 ADD SWAP2 SWAP1 SWAP2 MSTORE ADD PUSH1 0x40 MLOAD DUP1 SWAP2 SUB SWAP1 LOG2 POP JUMP JUMPDEST PUSH1 0xD SLOAD CALLER PUSH1 0x0 SWAP1 DUP2 MSTORE PUSH1 0x10 PUSH1 0x20 MSTORE PUSH1 0x40 SWAP1 KECCAK256 SLOAD PUSH2 0x1383 SWAP2 SWAP1 PUSH2 0x45DB JUMP JUMPDEST TIMESTAMP LT ISZERO PUSH2 0x13CA JUMPI PUSH1 0x40 MLOAD PUSH3 0x461BCD PUSH1 0xE5 SHL DUP2 MSTORE PUSH1 0x20 PUSH1 0x4 DUP3 ADD MSTORE PUSH1 0x15 PUSH1 0x24 DUP3 ADD MSTORE PUSH21 0x155B9CDD185AD94819195B185E481B9BDD081B595D PUSH1 0x5A SHL PUSH1 0x44 DUP3 ADD MSTORE PUSH1 0x64 ADD PUSH2 0x129F JUMP JUMPDEST CALLER PUSH1 0x0 SWAP1 DUP2 MSTORE PUSH1 0xF PUSH1 0x20 MSTORE PUSH1 0x40 DUP2 KECCAK256 SLOAD SWAP1 SUB PUSH2 0x13F8 JUMPI CALLER PUSH1 0x0 SWAP1 DUP2 MSTORE PUSH1 0x13 PUSH1 0x20 MSTORE PUSH1 0x40 SWAP1 KECCAK256 DUP1 SLOAD PUSH1 0xFF NOT AND SWAP1 SSTORE JUMPDEST CALLER PUSH1 0x0 DUP2 DUP2 MSTORE PUSH1 0xF PUSH1 0x20 SWAP1 DUP2 MSTORE PUSH1 0x40 DUP1 DUP4 KECCAK256 DUP4 DUP2 SSTORE PUSH1 0x1 DUP2 ADD DUP5 SWAP1 SSTORE PUSH1 0x2 ADD DUP4 SWAP1 SSTORE PUSH1 0x10 SWAP1 SWAP2 MSTORE DUP1 DUP3 KECCAK256 SWAP2 SWAP1 SWAP2 SSTORE PUSH1 0xA SLOAD DUP4 MLOAD SWAP2 MLOAD PUSH4 0xA9059CBB PUSH1 0xE0 SHL DUP2 MSTORE PUSH1 0x4 DUP2 ADD SWAP4 SWAP1 SWAP4 MSTORE PUSH1 0x24 DUP4 ADD SWAP2 SWAP1 SWAP2 MSTORE PUSH1 0x1 PUSH1 0x1 PUSH1 0xA0 SHL SUB AND SWAP1 PUSH4 0xA9059CBB SWAP1 PUSH1 0x44 ADD PUSH1 0x20 PUSH1 0x40 MLOAD DUP1 DUP4 SUB DUP2 PUSH1 0x0 DUP8 GAS CALL ISZERO DUP1 ISZERO PUSH2 0x1479 JUMPI RETURNDATASIZE PUSH1 0x0 DUP1 RETURNDATACOPY RETURNDATASIZE PUSH1 0x0 REVERT JUMPDEST POP POP POP POP PUSH1 0x40 MLOAD RETURNDATASIZE PUSH1 0x1F NOT PUSH1 0x1F DUP3 ADD AND DUP3 ADD DUP1 PUSH1 0x40 MSTORE POP DUP2 ADD SWAP1 PUSH2 0x149D SWAP2 SWAP1 PUSH2 0x45EE JUMP JUMPDEST POP JUMPDEST POP JUMP JUMPDEST PUSH2 0x149F PUSH2 0x28CC JUMP JUMPDEST PUSH1 0x0 PUSH2 0x1000 PUSH1 0x8 SLOAD PUSH6 0xFFFFFFFFFFFF AND SWAP1 JUMP JUMPDEST PUSH1 0x0 DUP2 DUP2 MSTORE PUSH1 0x4 PUSH1 0x20 MSTORE PUSH1 0x40 DUP2 KECCAK256 DUP1 SLOAD PUSH1 0xFF PUSH1 0x1 PUSH1 0xF0 SHL DUP3 DIV DUP2 AND SWAP2 PUSH1 0x1 PUSH1 0xF8 SHL SWAP1 DIV AND DUP2 ISZERO PUSH2 0x14F2 JUMPI POP PUSH1 0x7 SWAP5 SWAP4 POP POP POP POP JUMP JUMPDEST DUP1 ISZERO PUSH2 0x1503 JUMPI POP PUSH1 0x2 SWAP5 SWAP4 POP POP POP POP JUMP JUMPDEST PUSH1 0x0 PUSH2 0x150E DUP7 PUSH2 0x120C JUMP JUMPDEST SWAP1 POP DUP1 PUSH1 0x0 SUB PUSH2 0x1534 JUMPI PUSH1 0x40 MLOAD PUSH4 0x6AD06075 PUSH1 0xE0 SHL DUP2 MSTORE PUSH1 0x4 DUP2 ADD DUP8 SWAP1 MSTORE PUSH1 0x24 ADD PUSH2 0x129F JUMP JUMPDEST PUSH6 0xFFFFFFFFFFFF TIMESTAMP AND DUP1 DUP3 LT PUSH2 0x1551 JUMPI POP PUSH1 0x0 SWAP7 SWAP6 POP POP POP POP POP POP JUMP JUMPDEST PUSH1 0x0 PUSH2 0x155C DUP9 PUSH2 0x2478 JUMP JUMPDEST SWAP1 POP DUP2 DUP2 LT PUSH2 0x1573 JUMPI POP PUSH1 0x1 SWAP8 SWAP7 POP POP POP POP POP POP POP JUMP JUMPDEST PUSH2 0x157C DUP9 PUSH2 0x2903 JUMP JUMPDEST ISZERO DUP1 PUSH2 0x159C JUMPI POP PUSH1 0x0 DUP9 DUP2 MSTORE PUSH1 0x9 PUSH1 0x20 MSTORE PUSH1 0x40 SWAP1 KECCAK256 DUP1 SLOAD PUSH1 0x1 SWAP1 SWAP2 ADD SLOAD GT ISZERO JUMPDEST ISZERO PUSH2 0x15AF JUMPI POP PUSH1 0x3 SWAP8 SWAP7 POP POP POP POP POP POP POP JUMP JUMPDEST PUSH1 0x0 DUP9 DUP2 MSTORE PUSH1 0x4 PUSH1 0x20 MSTORE PUSH1 0x40 SWAP1 KECCAK256 PUSH1 0x1 ADD SLOAD PUSH6 0xFFFFFFFFFFFF AND PUSH1 0x0 SUB PUSH2 0x15DE JUMPI POP PUSH1 0x4 SWAP8 SWAP7 POP POP POP POP POP POP POP JUMP JUMPDEST POP PUSH1 0x5 SWAP8 SWAP7 POP POP POP POP POP POP POP JUMP JUMPDEST PUSH1 0x0 DUP3 DUP2 MSTORE PUSH1 0x9 PUSH1 0x20 SWAP1 DUP2 MSTORE PUSH1 0x40 DUP1 DUP4 KECCAK256 PUSH1 0x1 PUSH1 0x1 PUSH1 0xA0 SHL SUB DUP6 AND DUP5 MSTORE PUSH1 0x3 ADD SWAP1 SWAP2 MSTORE DUP2 KECCAK256 SLOAD PUSH1 0xFF AND JUMPDEST SWAP4 SWAP3 POP POP POP JUMP JUMPDEST PUSH1 0x0 DUP1 PUSH2 0x162C DUP7 DUP7 DUP7 DUP7 PUSH2 0x22D6 JUMP JUMPDEST SWAP1 POP CALLER PUSH2 0x1639 DUP3 DUP3 PUSH2 0x293A JUMP JUMPDEST PUSH2 0x1668 JUMPI PUSH1 0x40 MLOAD PUSH4 0x8FE5D8A9 PUSH1 0xE0 SHL DUP2 MSTORE PUSH1 0x4 DUP2 ADD DUP4 SWAP1 MSTORE PUSH1 0x1 PUSH1 0x1 PUSH1 0xA0 SHL SUB DUP3 AND PUSH1 0x24 DUP3 ADD MSTORE PUSH1 0x44 ADD PUSH2 0x129F JUMP JUMPDEST PUSH2 0x1674 DUP8 DUP8 DUP8 DUP8 PUSH2 0x2981 JUMP JUMPDEST SWAP8 SWAP7 POP POP POP POP POP POP POP JUMP JUMPDEST PUSH1 0x0 DUP1 CALLER SWAP1 POP PUSH2 0x16A0 DUP5 DUP3 DUP6 PUSH1 0x40 MLOAD DUP1 PUSH1 0x20 ADD PUSH1 0x40 MSTORE DUP1 PUSH1 0x0 DUP2 MSTORE POP PUSH2 0x2A32 JUMP JUMPDEST SWAP5 SWAP4 POP POP POP POP JUMP JUMPDEST PUSH1 0x0 DUP1 PUSH2 0x178B DUP8 PUSH2 0x1785 PUSH32 0x3E83946653575F9A39005E1545185629E92736B7528AB20CA3816F315424A811 DUP13 DUP13 DUP13 PUSH2 0x16FD DUP15 PUSH1 0x1 PUSH1 0x1 PUSH1 0xA0 SHL SUB AND PUSH1 0x0 SWAP1 DUP2 MSTORE PUSH1 0x2 PUSH1 0x20 MSTORE PUSH1 0x40 SWAP1 KECCAK256 DUP1 SLOAD PUSH1 0x1 DUP2 ADD SWAP1 SWAP2 SSTORE SWAP1 JUMP JUMPDEST DUP14 DUP14 PUSH1 0x40 MLOAD PUSH2 0x170D SWAP3 SWAP2 SWAP1 PUSH2 0x4610 JUMP JUMPDEST PUSH1 0x40 MLOAD DUP1 SWAP2 SUB SWAP1 KECCAK256 DUP13 DUP1 MLOAD SWAP1 PUSH1 0x20 ADD KECCAK256 PUSH1 0x40 MLOAD PUSH1 0x20 ADD PUSH2 0x176A SWAP8 SWAP7 SWAP6 SWAP5 SWAP4 SWAP3 SWAP2 SWAP1 SWAP7 DUP8 MSTORE PUSH1 0x20 DUP8 ADD SWAP6 SWAP1 SWAP6 MSTORE PUSH1 0xFF SWAP4 SWAP1 SWAP4 AND PUSH1 0x40 DUP7 ADD MSTORE PUSH1 0x1 PUSH1 0x1 PUSH1 0xA0 SHL SUB SWAP2 SWAP1 SWAP2 AND PUSH1 0x60 DUP6 ADD MSTORE PUSH1 0x80 DUP5 ADD MSTORE PUSH1 0xA0 DUP4 ADD MSTORE PUSH1 0xC0 DUP3 ADD MSTORE PUSH1 0xE0 ADD SWAP1 JUMP JUMPDEST PUSH1 0x40 MLOAD PUSH1 0x20 DUP2 DUP4 SUB SUB DUP2 MSTORE SWAP1 PUSH1 0x40 MSTORE DUP1 MLOAD SWAP1 PUSH1 0x20 ADD KECCAK256 PUSH2 0x2A55 JUMP JUMPDEST DUP6 PUSH2 0x2A82 JUMP JUMPDEST SWAP1 POP DUP1 PUSH2 0x17B6 JUMPI PUSH1 0x40 MLOAD PUSH4 0x94AB6C07 PUSH1 0xE0 SHL DUP2 MSTORE PUSH1 0x1 PUSH1 0x1 PUSH1 0xA0 SHL SUB DUP9 AND PUSH1 0x4 DUP3 ADD MSTORE PUSH1 0x24 ADD PUSH2 0x129F JUMP JUMPDEST PUSH2 0x17FA DUP10 DUP9 DUP11 DUP10 DUP10 DUP1 DUP1 PUSH1 0x1F ADD PUSH1 0x20 DUP1 SWAP2 DIV MUL PUSH1 0x20 ADD PUSH1 0x40 MLOAD SWAP1 DUP2 ADD PUSH1 0x40 MSTORE DUP1 SWAP4 SWAP3 SWAP2 SWAP1 DUP2 DUP2 MSTORE PUSH1 0x20 ADD DUP4 DUP4 DUP1 DUP3 DUP5 CALLDATACOPY PUSH1 0x0 SWAP3 ADD SWAP2 SWAP1 SWAP2 MSTORE POP DUP12 SWAP3 POP PUSH2 0x2AF6 SWAP2 POP POP JUMP JUMPDEST SWAP10 SWAP9 POP POP POP POP POP POP POP POP POP JUMP JUMPDEST CALLER PUSH1 0x0 SWAP1 DUP2 MSTORE PUSH1 0x11 PUSH1 0x20 MSTORE PUSH1 0x40 SWAP1 KECCAK256 SLOAD PUSH1 0x1 PUSH1 0x1 PUSH1 0xA0 SHL SUB SWAP1 DUP2 AND SWAP1 DUP3 AND DUP2 SWAP1 SUB PUSH2 0x187E JUMPI PUSH1 0x40 MLOAD PUSH3 0x461BCD PUSH1 0xE5 SHL DUP2 MSTORE PUSH1 0x20 PUSH1 0x4 DUP3 ADD MSTORE PUSH1 0x21 PUSH1 0x24 DUP3 ADD MSTORE PUSH32 0x416C72656164792064656C65676174656420746F207468697320616464726573 PUSH1 0x44 DUP3 ADD MSTORE PUSH1 0x73 PUSH1 0xF8 SHL PUSH1 0x64 DUP3 ADD MSTORE PUSH1 0x84 ADD PUSH2 0x129F JUMP JUMPDEST CALLER PUSH1 0x0 SWAP1 DUP2 MSTORE PUSH1 0xF PUSH1 0x20 MSTORE PUSH1 0x40 SWAP1 KECCAK256 SLOAD PUSH2 0x18D1 JUMPI PUSH1 0x40 MLOAD PUSH3 0x461BCD PUSH1 0xE5 SHL DUP2 MSTORE PUSH1 0x20 PUSH1 0x4 DUP3 ADD MSTORE PUSH1 0x14 PUSH1 0x24 DUP3 ADD MSTORE PUSH20 0x4E6F207374616B6520746F2064656C6567617465 PUSH1 0x60 SHL PUSH1 0x44 DUP3 ADD MSTORE PUSH1 0x64 ADD PUSH2 0x129F JUMP JUMPDEST CALLER PUSH1 0x0 SWAP1 DUP2 MSTORE PUSH1 0xF PUSH1 0x20 MSTORE PUSH1 0x40 DUP2 KECCAK256 PUSH1 0x2 DUP2 ADD SLOAD SWAP1 SLOAD PUSH2 0x18F1 SWAP2 SWAP1 PUSH2 0x4620 JUMP JUMPDEST SWAP1 POP PUSH1 0x1 PUSH1 0x1 PUSH1 0xA0 SHL SUB DUP3 AND ISZERO PUSH2 0x1930 JUMPI PUSH1 0x1 PUSH1 0x1 PUSH1 0xA0 SHL SUB DUP3 AND PUSH1 0x0 SWAP1 DUP2 MSTORE PUSH1 0x12 PUSH1 0x20 MSTORE PUSH1 0x40 DUP2 KECCAK256 DUP1 SLOAD DUP4 SWAP3 SWAP1 PUSH2 0x192A SWAP1 DUP5 SWAP1 PUSH2 0x4637 JUMP JUMPDEST SWAP1 SWAP2 SSTORE POP POP JUMPDEST PUSH1 0x1 PUSH1 0x1 PUSH1 0xA0 SHL SUB DUP4 AND ISZERO PUSH2 0x196D JUMPI PUSH1 0x1 PUSH1 0x1 PUSH1 0xA0 SHL SUB DUP4 AND PUSH1 0x0 SWAP1 DUP2 MSTORE PUSH1 0x12 PUSH1 0x20 MSTORE PUSH1 0x40 DUP2 KECCAK256 DUP1 SLOAD DUP4 SWAP3 SWAP1 PUSH2 0x1967 SWAP1 DUP5 SWAP1 PUSH2 0x45DB JUMP JUMPDEST SWAP1 SWAP2 SSTORE POP POP JUMPDEST CALLER PUSH1 0x0 DUP2 DUP2 MSTORE PUSH1 0x11 PUSH1 0x20 MSTORE PUSH1 0x40 DUP1 DUP3 KECCAK256 DUP1 SLOAD PUSH1 0x1 PUSH1 0x1 PUSH1 0xA0 SHL SUB NOT AND PUSH1 0x1 PUSH1 0x1 PUSH1 0xA0 SHL SUB DUP9 DUP2 AND SWAP2 DUP3 OR SWAP1 SWAP3 SSTORE SWAP2 MLOAD SWAP2 SWAP4 SWAP1 DUP7 AND SWAP3 SWAP1 SWAP2 PUSH32 0x3134E8A2E6D97E929A7E54011EA5485D7D196DD5F0BA4D4EF95803E8E3FC257F SWAP2 SWAP1 LOG4 POP POP POP JUMP JUMPDEST PUSH1 0x0 DUP1 CALLER SWAP1 POP PUSH2 0x1674 DUP8 DUP3 DUP9 DUP9 DUP9 DUP1 DUP1 PUSH1 0x1F ADD PUSH1 0x20 DUP1 SWAP2 DIV MUL PUSH1 0x20 ADD PUSH1 0x40 MLOAD SWAP1 DUP2 ADD PUSH1 0x40 MSTORE DUP1 SWAP4 SWAP3 SWAP2 SWAP1 DUP2 DUP2 MSTORE PUSH1 0x20 ADD DUP4 DUP4 DUP1 DUP3 DUP5 CALLDATACOPY PUSH1 0x0 SWAP3 ADD SWAP2 SWAP1 SWAP2 MSTORE POP DUP11 SWAP3 POP PUSH2 0x2AF6 SWAP2 POP POP JUMP JUMPDEST PUSH2 0x1A1F PUSH2 0x28CC JUMP JUMPDEST PUSH1 0x1 PUSH1 0x1 PUSH1 0xA0 SHL SUB DUP3 AND PUSH1 0x0 SWAP1 DUP2 MSTORE PUSH1 0xF PUSH1 0x20 MSTORE PUSH1 0x40 SWAP1 KECCAK256 SLOAD PUSH2 0x1A75 JUMPI PUSH1 0x40 MLOAD PUSH3 0x461BCD PUSH1 0xE5 SHL DUP2 MSTORE PUSH1 0x20 PUSH1 0x4 DUP3 ADD MSTORE PUSH1 0xE PUSH1 0x24 DUP3 ADD MSTORE PUSH14 0x139BC81CDD185AD948199BDD5B99 PUSH1 0x92 SHL PUSH1 0x44 DUP3 ADD MSTORE PUSH1 0x64 ADD PUSH2 0x129F JUMP JUMPDEST PUSH1 0x1 PUSH1 0x1 PUSH1 0xA0 SHL SUB DUP3 AND PUSH1 0x0 SWAP1 DUP2 MSTORE PUSH1 0xF PUSH1 0x20 MSTORE PUSH1 0x40 SWAP1 KECCAK256 SLOAD DUP2 GT ISZERO PUSH2 0x1ADD JUMPI PUSH1 0x40 MLOAD PUSH3 0x461BCD PUSH1 0xE5 SHL DUP2 MSTORE PUSH1 0x20 PUSH1 0x4 DUP3 ADD MSTORE PUSH1 0x1B PUSH1 0x24 DUP3 ADD MSTORE PUSH32 0x52656D6F766520616D6F756E742065786365656473207374616B650000000000 PUSH1 0x44 DUP3 ADD MSTORE PUSH1 0x64 ADD PUSH2 0x129F JUMP JUMPDEST PUSH1 0x1 PUSH1 0x1 PUSH1 0xA0 SHL SUB DUP3 AND PUSH1 0x0 SWAP1 DUP2 MSTORE PUSH1 0xF PUSH1 0x20 MSTORE PUSH1 0x40 DUP2 KECCAK256 DUP1 SLOAD DUP4 SWAP3 SWAP1 PUSH2 0x1B05 SWAP1 DUP5 SWAP1 PUSH2 0x4637 JUMP JUMPDEST SWAP1 SWAP2 SSTORE POP POP PUSH1 0x1 PUSH1 0x1 PUSH1 0xA0 SHL SUB DUP3 AND PUSH1 0x0 SWAP1 DUP2 MSTORE PUSH1 0xF PUSH1 0x20 MSTORE PUSH1 0x40 SWAP1 KECCAK256 SLOAD PUSH9 0x56BC75E2D63100000 GT ISZERO PUSH2 0x1B5A JUMPI PUSH1 0x1 PUSH1 0x1 PUSH1 0xA0 SHL SUB DUP3 AND PUSH1 0x0 SWAP1 DUP2 MSTORE PUSH1 0xF PUSH1 0x20 MSTORE PUSH1 0x40 DUP2 KECCAK256 DUP2 DUP2 SSTORE PUSH1 0x1 DUP2 ADD DUP3 SWAP1 SSTORE PUSH1 0x2 ADD SSTORE JUMPDEST DUP2 PUSH1 0x1 PUSH1 0x1 PUSH1 0xA0 SHL SUB AND PUSH32 0xA018DCBC822F59FB0D0C3E7A86C8E4259B9676CDEA9E5FC26279B9C4C5D86EEF DUP3 PUSH1 0x40 MLOAD PUSH2 0x1B95 SWAP2 DUP2 MSTORE PUSH1 0x20 ADD SWAP1 JUMP JUMPDEST PUSH1 0x40 MLOAD DUP1 SWAP2 SUB SWAP1 LOG2 POP POP JUMP JUMPDEST PUSH1 0x60 PUSH1 0x15 DUP1 SLOAD DUP1 PUSH1 0x20 MUL PUSH1 0x20 ADD PUSH1 0x40 MLOAD SWAP1 DUP2 ADD PUSH1 0x40 MSTORE DUP1 SWAP3 SWAP2 SWAP1 DUP2 DUP2 MSTORE PUSH1 0x20 ADD DUP3 DUP1 SLOAD DUP1 ISZERO PUSH2 0x108D JUMPI PUSH1 0x20 MUL DUP3 ADD SWAP2 SWAP1 PUSH1 0x0 MSTORE PUSH1 0x20 PUSH1 0x0 KECCAK256 SWAP1 JUMPDEST DUP2 SLOAD PUSH1 0x1 PUSH1 0x1 PUSH1 0xA0 SHL SUB AND DUP2 MSTORE PUSH1 0x1 SWAP1 SWAP2 ADD SWAP1 PUSH1 0x20 ADD DUP1 DUP4 GT PUSH2 0x1BDB JUMPI POP POP POP POP POP SWAP1 POP SWAP1 JUMP JUMPDEST PUSH1 0x1 PUSH1 0x1 PUSH1 0xA0 SHL SUB DUP2 AND PUSH1 0x0 SWAP1 DUP2 MSTORE PUSH1 0x10 PUSH1 0x20 MSTORE PUSH1 0x40 DUP2 KECCAK256 SLOAD DUP2 SUB PUSH2 0x1C29 JUMPI POP PUSH1 0x0 SWAP2 SWAP1 POP JUMP JUMPDEST PUSH1 0xD SLOAD PUSH1 0x1 PUSH1 0x1 PUSH1 0xA0 SHL SUB DUP4 AND PUSH1 0x0 SWAP1 DUP2 MSTORE PUSH1 0x10 PUSH1 0x20 MSTORE PUSH1 0x40 SWAP1 KECCAK256 SLOAD PUSH2 0xFFA SWAP2 SWAP1 PUSH2 0x45DB JUMP JUMPDEST PUSH1 0x60 DUP1 PUSH1 0x0 DUP1 JUMPDEST PUSH1 0x14 SLOAD DUP2 LT ISZERO PUSH2 0x1CB4 JUMPI PUSH1 0x1 PUSH2 0x1C88 PUSH1 0x14 DUP4 DUP2 SLOAD DUP2 LT PUSH2 0x1C78 JUMPI PUSH2 0x1C78 PUSH2 0x45AF JUMP JUMPDEST SWAP1 PUSH1 0x0 MSTORE PUSH1 0x20 PUSH1 0x0 KECCAK256 ADD SLOAD PUSH2 0x14BD JUMP JUMPDEST PUSH1 0x7 DUP2 GT ISZERO PUSH2 0x1C99 JUMPI PUSH2 0x1C99 PUSH2 0x3E20 JUMP JUMPDEST SUB PUSH2 0x1CAC JUMPI DUP2 PUSH2 0x1CA8 DUP2 PUSH2 0x464A JUMP JUMPDEST SWAP3 POP POP JUMPDEST PUSH1 0x1 ADD PUSH2 0x1C56 JUMP JUMPDEST POP DUP1 PUSH1 0x1 PUSH1 0x1 PUSH1 0x40 SHL SUB DUP2 GT ISZERO PUSH2 0x1CCD JUMPI PUSH2 0x1CCD PUSH2 0x3AF2 JUMP JUMPDEST PUSH1 0x40 MLOAD SWAP1 DUP1 DUP3 MSTORE DUP1 PUSH1 0x20 MUL PUSH1 0x20 ADD DUP3 ADD PUSH1 0x40 MSTORE DUP1 ISZERO PUSH2 0x1CF6 JUMPI DUP2 PUSH1 0x20 ADD PUSH1 0x20 DUP3 MUL DUP1 CALLDATASIZE DUP4 CALLDATACOPY ADD SWAP1 POP JUMPDEST POP SWAP3 POP DUP1 PUSH1 0x1 PUSH1 0x1 PUSH1 0x40 SHL SUB DUP2 GT ISZERO PUSH2 0x1D11 JUMPI PUSH2 0x1D11 PUSH2 0x3AF2 JUMP JUMPDEST PUSH1 0x40 MLOAD SWAP1 DUP1 DUP3 MSTORE DUP1 PUSH1 0x20 MUL PUSH1 0x20 ADD DUP3 ADD PUSH1 0x40 MSTORE DUP1 ISZERO PUSH2 0x1D3A JUMPI DUP2 PUSH1 0x20 ADD PUSH1 0x20 DUP3 MUL DUP1 CALLDATASIZE DUP4 CALLDATACOPY ADD SWAP1 POP JUMPDEST POP SWAP2 POP PUSH1 0x0 DUP1 JUMPDEST PUSH1 0x14 SLOAD DUP2 LT ISZERO PUSH2 0x1E13 JUMPI PUSH1 0x0 PUSH2 0x1D63 PUSH1 0x14 DUP4 DUP2 SLOAD DUP2 LT PUSH2 0x1C78 JUMPI PUSH2 0x1C78 PUSH2 0x45AF JUMP JUMPDEST SWAP1 POP PUSH1 0x1 DUP2 PUSH1 0x7 DUP2 GT ISZERO PUSH2 0x1D79 JUMPI PUSH2 0x1D79 PUSH2 0x3E20 JUMP JUMPDEST SUB PUSH2 0x1E0A JUMPI PUSH1 0x14 DUP3 DUP2 SLOAD DUP2 LT PUSH2 0x1D91 JUMPI PUSH2 0x1D91 PUSH2 0x45AF JUMP JUMPDEST SWAP1 PUSH1 0x0 MSTORE PUSH1 0x20 PUSH1 0x0 KECCAK256 ADD SLOAD DUP7 DUP5 DUP2 MLOAD DUP2 LT PUSH2 0x1DAE JUMPI PUSH2 0x1DAE PUSH2 0x45AF JUMP JUMPDEST PUSH1 0x20 MUL PUSH1 0x20 ADD ADD DUP2 DUP2 MSTORE POP POP DUP1 DUP6 DUP5 DUP2 MLOAD DUP2 LT PUSH2 0x1DCD JUMPI PUSH2 0x1DCD PUSH2 0x45AF JUMP JUMPDEST PUSH1 0x20 MUL PUSH1 0x20 ADD ADD SWAP1 PUSH1 0x7 DUP2 GT ISZERO PUSH2 0x1DE6 JUMPI PUSH2 0x1DE6 PUSH2 0x3E20 JUMP JUMPDEST SWAP1 DUP2 PUSH1 0x7 DUP2 GT ISZERO PUSH2 0x1DF9 JUMPI PUSH2 0x1DF9 PUSH2 0x3E20 JUMP JUMPDEST SWAP1 MSTORE POP DUP3 PUSH2 0x1E06 DUP2 PUSH2 0x464A JUMP JUMPDEST SWAP4 POP POP JUMPDEST POP PUSH1 0x1 ADD PUSH2 0x1D41 JUMP JUMPDEST POP POP POP SWAP1 SWAP2 JUMP JUMPDEST PUSH2 0x1E22 PUSH2 0x28CC JUMP JUMPDEST PUSH2 0x149F DUP2 PUSH2 0x2B6F JUMP JUMPDEST PUSH9 0x56BC75E2D63100000 DUP3 LT ISZERO PUSH2 0x1E84 JUMPI PUSH1 0x40 MLOAD PUSH3 0x461BCD PUSH1 0xE5 SHL DUP2 MSTORE PUSH1 0x20 PUSH1 0x4 DUP3 ADD MSTORE PUSH1 0x1B PUSH1 0x24 DUP3 ADD MSTORE PUSH32 0x4D696E696D756D207374616B652069732031303020746F6B656E730000000000 PUSH1 0x44 DUP3 ADD MSTORE PUSH1 0x64 ADD PUSH2 0x129F JUMP JUMPDEST PUSH1 0x1 DUP2 LT ISZERO DUP1 ISZERO PUSH2 0x1E96 JUMPI POP PUSH1 0x3 DUP2 GT ISZERO JUMPDEST PUSH2 0x1EE2 JUMPI PUSH1 0x40 MLOAD PUSH3 0x461BCD PUSH1 0xE5 SHL DUP2 MSTORE PUSH1 0x20 PUSH1 0x4 DUP3 ADD MSTORE PUSH1 0x1C PUSH1 0x24 DUP3 ADD MSTORE PUSH32 0x4475726174696F6E206D75737420626520312D33206D696E7574657300000000 PUSH1 0x44 DUP3 ADD MSTORE PUSH1 0x64 ADD PUSH2 0x129F JUMP JUMPDEST CALLER PUSH1 0x0 SWAP1 DUP2 MSTORE PUSH1 0xF PUSH1 0x20 MSTORE PUSH1 0x40 SWAP1 KECCAK256 SLOAD ISZERO PUSH2 0x1F31 JUMPI PUSH1 0x40 MLOAD PUSH3 0x461BCD PUSH1 0xE5 SHL DUP2 MSTORE PUSH1 0x20 PUSH1 0x4 DUP3 ADD MSTORE PUSH1 0xF PUSH1 0x24 DUP3 ADD MSTORE PUSH15 0x416C7265616479207374616B696E67 PUSH1 0x88 SHL PUSH1 0x44 DUP3 ADD MSTORE PUSH1 0x64 ADD PUSH2 0x129F JUMP JUMPDEST PUSH1 0xA SLOAD PUSH1 0x40 MLOAD PUSH4 0x23B872DD PUSH1 0xE0 SHL DUP2 MSTORE CALLER PUSH1 0x4 DUP3 ADD MSTORE ADDRESS PUSH1 0x24 DUP3 ADD MSTORE PUSH1 0x44 DUP2 ADD DUP5 SWAP1 MSTORE PUSH1 0x1 PUSH1 0x1 PUSH1 0xA0 SHL SUB SWAP1 SWAP2 AND SWAP1 PUSH4 0x23B872DD SWAP1 PUSH1 0x64 ADD PUSH1 0x20 PUSH1 0x40 MLOAD DUP1 DUP4 SUB DUP2 PUSH1 0x0 DUP8 GAS CALL ISZERO DUP1 ISZERO PUSH2 0x1F88 JUMPI RETURNDATASIZE PUSH1 0x0 DUP1 RETURNDATACOPY RETURNDATASIZE PUSH1 0x0 REVERT JUMPDEST POP POP POP POP PUSH1 0x40 MLOAD RETURNDATASIZE PUSH1 0x1F NOT PUSH1 0x1F DUP3 ADD AND DUP3 ADD DUP1 PUSH1 0x40 MSTORE POP DUP2 ADD SWAP1 PUSH2 0x1FAC SWAP2 SWAP1 PUSH2 0x45EE JUMP JUMPDEST POP PUSH1 0x40 MLOAD DUP1 PUSH1 0x60 ADD PUSH1 0x40 MSTORE DUP1 DUP4 DUP2 MSTORE PUSH1 0x20 ADD DUP3 PUSH1 0x3C PUSH2 0x1FCB SWAP2 SWAP1 PUSH2 0x4620 JUMP JUMPDEST PUSH2 0x1FD5 SWAP1 TIMESTAMP PUSH2 0x45DB JUMP JUMPDEST DUP2 MSTORE PUSH1 0x20 SWAP1 DUP2 ADD DUP4 SWAP1 MSTORE CALLER PUSH1 0x0 SWAP1 DUP2 MSTORE PUSH1 0xF DUP3 MSTORE PUSH1 0x40 DUP1 DUP3 KECCAK256 DUP5 MLOAD DUP2 SSTORE DUP5 DUP5 ADD MLOAD PUSH1 0x1 DUP3 ADD SSTORE SWAP4 DUP2 ADD MLOAD PUSH1 0x2 SWAP1 SWAP5 ADD SWAP4 SWAP1 SWAP4 SSTORE PUSH1 0x13 SWAP1 SWAP2 MSTORE KECCAK256 SLOAD PUSH1 0xFF AND PUSH2 0x149D JUMPI PUSH1 0x15 DUP1 SLOAD PUSH1 0x1 DUP2 DUP2 ADD SWAP1 SWAP3 SSTORE PUSH32 0x55F448FDEA98C4D29EB340757EF0A66CD03DBB9538908A6A81D96026B71EC475 ADD DUP1 SLOAD PUSH1 0x1 PUSH1 0x1 PUSH1 0xA0 SHL SUB NOT AND CALLER SWAP1 DUP2 OR SWAP1 SWAP2 SSTORE PUSH1 0x0 SWAP1 DUP2 MSTORE PUSH1 0x13 PUSH1 0x20 MSTORE PUSH1 0x40 SWAP1 KECCAK256 DUP1 SLOAD PUSH1 0xFF NOT AND SWAP1 SWAP2 OR SWAP1 SSTORE POP POP JUMP JUMPDEST PUSH1 0x0 DUP1 CALLER SWAP1 POP PUSH2 0x20BC DUP7 DUP3 DUP8 DUP8 DUP8 DUP1 DUP1 PUSH1 0x1F ADD PUSH1 0x20 DUP1 SWAP2 DIV MUL PUSH1 0x20 ADD PUSH1 0x40 MLOAD SWAP1 DUP2 ADD PUSH1 0x40 MSTORE DUP1 SWAP4 SWAP3 SWAP2 SWAP1 DUP2 DUP2 MSTORE PUSH1 0x20 ADD DUP4 DUP4 DUP1 DUP3 DUP5 CALLDATACOPY PUSH1 0x0 SWAP3 ADD SWAP2 SWAP1 SWAP2 MSTORE POP PUSH2 0x2A32 SWAP3 POP POP POP JUMP JUMPDEST SWAP7 SWAP6 POP POP POP POP POP POP JUMP JUMPDEST PUSH1 0xB SLOAD CALLER PUSH1 0x0 SWAP1 DUP2 MSTORE PUSH1 0xF PUSH1 0x20 MSTORE PUSH1 0x40 DUP2 KECCAK256 SLOAD SWAP1 SWAP2 GT ISZERO PUSH2 0x2129 JUMPI PUSH1 0x40 MLOAD PUSH3 0x461BCD PUSH1 0xE5 SHL DUP2 MSTORE PUSH1 0x20 PUSH1 0x4 DUP3 ADD MSTORE PUSH1 0x1D PUSH1 0x24 DUP3 ADD MSTORE PUSH32 0x496E73756666696369656E74207374616B6520746F2070726F706F7365000000 PUSH1 0x44 DUP3 ADD MSTORE PUSH1 0x64 ADD PUSH2 0x129F JUMP JUMPDEST PUSH1 0x0 PUSH2 0x2137 DUP7 DUP7 DUP7 DUP7 PUSH2 0x2BD5 JUMP JUMPDEST PUSH1 0x14 DUP1 SLOAD PUSH1 0x1 DUP2 ADD DUP3 SSTORE PUSH1 0x0 SWAP2 SWAP1 SWAP2 MSTORE PUSH32 0xCE6D7B5282BD9A3661AE061FEED1DBDA4E52AB073B1F9285BE6E155D9C38D4EC ADD DUP2 SWAP1 SSTORE SWAP7 SWAP6 POP POP POP POP POP POP JUMP JUMPDEST PUSH2 0x217E PUSH2 0x28CC JUMP JUMPDEST PUSH1 0xD SSTORE JUMP JUMPDEST PUSH1 0x0 PUSH1 0x60 DUP1 PUSH1 0x0 DUP1 PUSH1 0x0 PUSH1 0x60 PUSH2 0x2197 PUSH2 0x2C85 JUMP JUMPDEST PUSH2 0x219F PUSH2 0x2CB2 JUMP JUMPDEST PUSH1 0x40 DUP1 MLOAD PUSH1 0x0 DUP1 DUP3 MSTORE PUSH1 0x20 DUP3 ADD SWAP1 SWAP3 MSTORE PUSH1 0xF PUSH1 0xF8 SHL SWAP12 SWAP4 SWAP11 POP SWAP2 SWAP9 POP CHAINID SWAP8 POP ADDRESS SWAP7 POP SWAP5 POP SWAP3 POP SWAP1 POP JUMP JUMPDEST PUSH1 0x0 DUP1 PUSH2 0x2255 DUP5 PUSH2 0x1785 PUSH32 0xF2AAD550CF55F045CB27E9C559F9889FDFB6E6CDAA032301D6EA397784AE51D7 DUP10 DUP10 DUP10 PUSH2 0x221E DUP12 PUSH1 0x1 PUSH1 0x1 PUSH1 0xA0 SHL SUB AND PUSH1 0x0 SWAP1 DUP2 MSTORE PUSH1 0x2 PUSH1 0x20 MSTORE PUSH1 0x40 SWAP1 KECCAK256 DUP1 SLOAD PUSH1 0x1 DUP2 ADD SWAP1 SWAP2 SSTORE SWAP1 JUMP JUMPDEST PUSH1 0x40 DUP1 MLOAD PUSH1 0x20 DUP2 ADD SWAP7 SWAP1 SWAP7 MSTORE DUP6 ADD SWAP4 SWAP1 SWAP4 MSTORE PUSH1 0xFF SWAP1 SWAP2 AND PUSH1 0x60 DUP5 ADD MSTORE PUSH1 0x1 PUSH1 0x1 PUSH1 0xA0 SHL SUB AND PUSH1 0x80 DUP4 ADD MSTORE PUSH1 0xA0 DUP3 ADD MSTORE PUSH1 0xC0 ADD PUSH2 0x176A JUMP JUMPDEST SWAP1 POP DUP1 PUSH2 0x2280 JUMPI PUSH1 0x40 MLOAD PUSH4 0x94AB6C07 PUSH1 0xE0 SHL DUP2 MSTORE PUSH1 0x1 PUSH1 0x1 PUSH1 0xA0 SHL SUB DUP6 AND PUSH1 0x4 DUP3 ADD MSTORE PUSH1 0x24 ADD PUSH2 0x129F JUMP JUMPDEST PUSH2 0x20BC DUP7 DUP6 DUP8 PUSH1 0x40 MLOAD DUP1 PUSH1 0x20 ADD PUSH1 0x40 MSTORE DUP1 PUSH1 0x0 DUP2 MSTORE POP PUSH2 0x2A32 JUMP JUMPDEST PUSH2 0x22A3 PUSH2 0x28CC JUMP JUMPDEST PUSH1 0xC SSTORE JUMP JUMPDEST PUSH1 0x0 PUSH2 0x16A0 DUP5 DUP5 DUP5 PUSH2 0x2CDF JUMP JUMPDEST PUSH1 0x14 DUP2 DUP2 SLOAD DUP2 LT PUSH2 0x22C5 JUMPI PUSH1 0x0 DUP1 REVERT JUMPDEST PUSH1 0x0 SWAP2 DUP3 MSTORE PUSH1 0x20 SWAP1 SWAP2 KECCAK256 ADD SLOAD SWAP1 POP DUP2 JUMP JUMPDEST PUSH1 0x0 PUSH2 0x22E4 DUP6 DUP6 DUP6 DUP6 PUSH2 0x2572 JUMP JUMPDEST SWAP6 SWAP5 POP POP POP POP POP JUMP JUMPDEST PUSH2 0x22F5 PUSH2 0x28CC JUMP JUMPDEST PUSH1 0x1 PUSH1 0x1 PUSH1 0xA0 SHL SUB DUP4 AND PUSH2 0x2344 JUMPI PUSH1 0x40 MLOAD PUSH3 0x461BCD PUSH1 0xE5 SHL DUP2 MSTORE PUSH1 0x20 PUSH1 0x4 DUP3 ADD MSTORE PUSH1 0x16 PUSH1 0x24 DUP3 ADD MSTORE PUSH22 0x496E76616C6964206561726E65722061646472657373 PUSH1 0x50 SHL PUSH1 0x44 DUP3 ADD MSTORE PUSH1 0x64 ADD PUSH2 0x129F JUMP JUMPDEST PUSH1 0x40 DUP1 MLOAD PUSH1 0x60 DUP2 ADD DUP3 MSTORE PUSH1 0x1 PUSH1 0x1 PUSH1 0xA0 SHL SUB DUP6 DUP2 AND DUP1 DUP4 MSTORE PUSH1 0x20 DUP1 DUP5 ADD DUP8 DUP2 MSTORE DUP5 DUP7 ADD DUP8 DUP2 MSTORE PUSH1 0x0 DUP5 DUP2 MSTORE PUSH1 0xE DUP5 MSTORE DUP8 SWAP1 KECCAK256 SWAP6 MLOAD DUP7 SLOAD PUSH1 0x1 PUSH1 0x1 PUSH1 0xA0 SHL SUB NOT AND SWAP6 AND SWAP5 SWAP1 SWAP5 OR DUP6 SSTORE MLOAD PUSH1 0x1 DUP6 ADD SSTORE SWAP2 MLOAD PUSH1 0x2 SWAP1 SWAP4 ADD SWAP3 SWAP1 SWAP3 SSTORE DUP3 MLOAD DUP6 DUP2 MSTORE SWAP1 DUP2 ADD DUP5 SWAP1 MSTORE SWAP1 SWAP2 PUSH32 0xFF1B7739EF48EA8E5CAC55FCF2E131F33E741FDA310AE7B33B5B510F57C10E32 SWAP2 ADD PUSH1 0x40 MLOAD DUP1 SWAP2 SUB SWAP1 LOG2 POP POP POP JUMP JUMPDEST PUSH1 0x0 PUSH2 0x1000 PUSH1 0x7 SLOAD SWAP1 JUMP JUMPDEST PUSH1 0x1 PUSH1 0x1 PUSH1 0xA0 SHL SUB DUP2 AND PUSH1 0x0 SWAP1 DUP2 MSTORE PUSH1 0xF PUSH1 0x20 SWAP1 DUP2 MSTORE PUSH1 0x40 DUP1 DUP4 KECCAK256 DUP2 MLOAD PUSH1 0x60 DUP2 ADD DUP4 MSTORE DUP2 SLOAD DUP1 DUP3 MSTORE PUSH1 0x1 DUP4 ADD SLOAD SWAP5 DUP3 ADD SWAP5 SWAP1 SWAP5 MSTORE PUSH1 0x2 SWAP1 SWAP2 ADD SLOAD SWAP2 DUP2 ADD SWAP2 SWAP1 SWAP2 MSTORE DUP3 SWAP2 DUP3 SWAP2 SWAP1 PUSH2 0x2436 JUMPI PUSH1 0x0 PUSH2 0x2447 JUMP JUMPDEST PUSH1 0x40 DUP2 ADD MLOAD DUP2 MLOAD PUSH2 0x2447 SWAP2 SWAP1 PUSH2 0x4620 JUMP JUMPDEST PUSH1 0x1 PUSH1 0x1 PUSH1 0xA0 SHL SUB DUP7 AND PUSH1 0x0 SWAP1 DUP2 MSTORE PUSH1 0x12 PUSH1 0x20 MSTORE PUSH1 0x40 SWAP1 KECCAK256 SLOAD SWAP1 SWAP5 POP SWAP3 POP PUSH2 0x246F DUP4 DUP6 PUSH2 0x45DB JUMP JUMPDEST SWAP4 SWAP6 SWAP3 SWAP5 POP POP POP JUMP JUMPDEST PUSH1 0x0 DUP2 DUP2 MSTORE PUSH1 0x4 PUSH1 0x20 MSTORE PUSH1 0x40 DUP2 KECCAK256 SLOAD PUSH2 0x24AD SWAP1 PUSH1 0x1 PUSH1 0xD0 SHL DUP2 DIV PUSH4 0xFFFFFFFF AND SWAP1 PUSH1 0x1 PUSH1 0xA0 SHL SWAP1 DIV PUSH6 0xFFFFFFFFFFFF AND PUSH2 0x4663 JUMP JUMPDEST PUSH6 0xFFFFFFFFFFFF AND SWAP3 SWAP2 POP POP JUMP JUMPDEST PUSH2 0x24C3 PUSH2 0x28CC JUMP JUMPDEST PUSH1 0xB SSTORE JUMP JUMPDEST PUSH2 0x24D0 PUSH2 0x28CC JUMP JUMPDEST PUSH1 0x0 DUP1 DUP6 PUSH1 0x1 PUSH1 0x1 PUSH1 0xA0 SHL SUB AND DUP6 DUP6 DUP6 PUSH1 0x40 MLOAD PUSH2 0x24EE SWAP3 SWAP2 SWAP1 PUSH2 0x4610 JUMP JUMPDEST PUSH1 0x0 PUSH1 0x40 MLOAD DUP1 DUP4 SUB DUP2 DUP6 DUP8 GAS CALL SWAP3 POP POP POP RETURNDATASIZE DUP1 PUSH1 0x0 DUP2 EQ PUSH2 0x252B JUMPI PUSH1 0x40 MLOAD SWAP2 POP PUSH1 0x1F NOT PUSH1 0x3F RETURNDATASIZE ADD AND DUP3 ADD PUSH1 0x40 MSTORE RETURNDATASIZE DUP3 MSTORE RETURNDATASIZE PUSH1 0x0 PUSH1 0x20 DUP5 ADD RETURNDATACOPY PUSH2 0x2530 JUMP JUMPDEST PUSH1 0x60 SWAP2 POP JUMPDEST POP SWAP2 POP SWAP2 POP PUSH2 0x253F DUP3 DUP3 PUSH2 0x2D5F JUMP JUMPDEST POP POP POP POP POP POP POP JUMP JUMPDEST PUSH1 0x15 DUP2 DUP2 SLOAD DUP2 LT PUSH2 0x2558 JUMPI PUSH1 0x0 DUP1 REVERT JUMPDEST PUSH1 0x0 SWAP2 DUP3 MSTORE PUSH1 0x20 SWAP1 SWAP2 KECCAK256 ADD SLOAD PUSH1 0x1 PUSH1 0x1 PUSH1 0xA0 SHL SUB AND SWAP1 POP DUP2 JUMP JUMPDEST PUSH1 0x0 DUP5 DUP5 DUP5 DUP5 PUSH1 0x40 MLOAD PUSH1 0x20 ADD PUSH2 0x258B SWAP5 SWAP4 SWAP3 SWAP2 SWAP1 PUSH2 0x46D1 JUMP JUMPDEST PUSH1 0x40 DUP1 MLOAD PUSH1 0x1F NOT DUP2 DUP5 SUB ADD DUP2 MSTORE SWAP2 SWAP1 MSTORE DUP1 MLOAD PUSH1 0x20 SWAP1 SWAP2 ADD KECCAK256 SWAP6 SWAP5 POP POP POP POP POP JUMP JUMPDEST PUSH2 0x25B4 PUSH2 0x28CC JUMP JUMPDEST PUSH2 0x149F DUP2 PUSH2 0x2D7B JUMP JUMPDEST PUSH1 0x0 PUSH2 0x1616 DUP4 DUP4 PUSH2 0x25D9 PUSH1 0x40 DUP1 MLOAD PUSH1 0x20 DUP2 ADD SWAP1 SWAP2 MSTORE PUSH1 0x0 DUP2 MSTORE SWAP1 JUMP JUMPDEST PUSH2 0x2CDF JUMP JUMPDEST PUSH2 0x25E6 PUSH2 0x28CC JUMP JUMPDEST PUSH2 0x149F DUP2 PUSH2 0x2E19 JUMP JUMPDEST PUSH1 0x14 SLOAD PUSH1 0x60 SWAP1 DUP2 SWAP1 PUSH1 0x1 PUSH1 0x1 PUSH1 0x40 SHL SUB DUP2 GT ISZERO PUSH2 0x260E JUMPI PUSH2 0x260E PUSH2 0x3AF2 JUMP JUMPDEST PUSH1 0x40 MLOAD SWAP1 DUP1 DUP3 MSTORE DUP1 PUSH1 0x20 MUL PUSH1 0x20 ADD DUP3 ADD PUSH1 0x40 MSTORE DUP1 ISZERO PUSH2 0x2637 JUMPI DUP2 PUSH1 0x20 ADD PUSH1 0x20 DUP3 MUL DUP1 CALLDATASIZE DUP4 CALLDATACOPY ADD SWAP1 POP JUMPDEST POP PUSH1 0x14 SLOAD SWAP1 SWAP3 POP PUSH1 0x1 PUSH1 0x1 PUSH1 0x40 SHL SUB DUP2 GT ISZERO PUSH2 0x2655 JUMPI PUSH2 0x2655 PUSH2 0x3AF2 JUMP JUMPDEST PUSH1 0x40 MLOAD SWAP1 DUP1 DUP3 MSTORE DUP1 PUSH1 0x20 MUL PUSH1 0x20 ADD DUP3 ADD PUSH1 0x40 MSTORE DUP1 ISZERO PUSH2 0x267E JUMPI DUP2 PUSH1 0x20 ADD PUSH1 0x20 DUP3 MUL DUP1 CALLDATASIZE DUP4 CALLDATACOPY ADD SWAP1 POP JUMPDEST POP SWAP1 POP PUSH1 0x0 JUMPDEST PUSH1 0x14 SLOAD DUP2 LT ISZERO PUSH2 0x2729 JUMPI PUSH1 0x14 DUP2 DUP2 SLOAD DUP2 LT PUSH2 0x26A1 JUMPI PUSH2 0x26A1 PUSH2 0x45AF JUMP JUMPDEST SWAP1 PUSH1 0x0 MSTORE PUSH1 0x20 PUSH1 0x0 KECCAK256 ADD SLOAD DUP4 DUP3 DUP2 MLOAD DUP2 LT PUSH2 0x26BE JUMPI PUSH2 0x26BE PUSH2 0x45AF JUMP JUMPDEST PUSH1 0x20 MUL PUSH1 0x20 ADD ADD DUP2 DUP2 MSTORE POP POP PUSH2 0x26E0 PUSH1 0x14 DUP3 DUP2 SLOAD DUP2 LT PUSH2 0x1C78 JUMPI PUSH2 0x1C78 PUSH2 0x45AF JUMP JUMPDEST DUP3 DUP3 DUP2 MLOAD DUP2 LT PUSH2 0x26F2 JUMPI PUSH2 0x26F2 PUSH2 0x45AF JUMP JUMPDEST PUSH1 0x20 MUL PUSH1 0x20 ADD ADD SWAP1 PUSH1 0x7 DUP2 GT ISZERO PUSH2 0x270B JUMPI PUSH2 0x270B PUSH2 0x3E20 JUMP JUMPDEST SWAP1 DUP2 PUSH1 0x7 DUP2 GT ISZERO PUSH2 0x271E JUMPI PUSH2 0x271E PUSH2 0x3E20 JUMP JUMPDEST SWAP1 MSTORE POP PUSH1 0x1 ADD PUSH2 0x2684 JUMP JUMPDEST POP SWAP1 SWAP2 JUMP JUMPDEST PUSH1 0x0 DUP2 PUSH1 0x7 DUP2 GT ISZERO PUSH2 0x2742 JUMPI PUSH2 0x2742 PUSH2 0x3E20 JUMP JUMPDEST PUSH1 0x1 PUSH1 0xFF SWAP2 SWAP1 SWAP2 AND SHL SWAP3 SWAP2 POP POP JUMP JUMPDEST PUSH1 0x0 DUP1 PUSH2 0x275D DUP5 PUSH2 0x14BD JUMP JUMPDEST SWAP1 POP PUSH1 0x0 DUP4 PUSH2 0x276B DUP4 PUSH2 0x272E JUMP JUMPDEST AND SUB PUSH2 0x1616 JUMPI DUP4 DUP2 DUP5 PUSH1 0x40 MLOAD PUSH4 0x31B75E4D PUSH1 0xE0 SHL DUP2 MSTORE PUSH1 0x4 ADD PUSH2 0x129F SWAP4 SWAP3 SWAP2 SWAP1 PUSH2 0x471C JUMP JUMPDEST DUP2 SLOAD PUSH1 0x1 PUSH1 0x1 PUSH1 0x80 SHL SUB PUSH1 0x1 PUSH1 0x80 SHL DUP3 DIV DUP2 AND SWAP2 DUP2 AND PUSH1 0x1 DUP4 ADD SWAP1 SWAP2 AND SUB PUSH2 0x27BC JUMPI PUSH2 0x27BC PUSH1 0x41 PUSH2 0x2E5A JUMP JUMPDEST PUSH1 0x1 PUSH1 0x1 PUSH1 0x80 SHL SUB DUP1 DUP3 AND PUSH1 0x0 SWAP1 DUP2 MSTORE PUSH1 0x1 DUP1 DUP7 ADD PUSH1 0x20 MSTORE PUSH1 0x40 SWAP1 SWAP2 KECCAK256 SWAP4 SWAP1 SWAP4 SSTORE DUP4 SLOAD SWAP2 SWAP1 SWAP3 ADD DUP3 AND PUSH1 0x1 PUSH1 0x80 SHL MUL SWAP2 AND OR SWAP1 SSTORE JUMP JUMPDEST PUSH1 0x0 JUMPDEST DUP5 MLOAD DUP2 LT ISZERO PUSH2 0x28C4 JUMPI PUSH1 0x0 DUP1 DUP7 DUP4 DUP2 MLOAD DUP2 LT PUSH2 0x2813 JUMPI PUSH2 0x2813 PUSH2 0x45AF JUMP JUMPDEST PUSH1 0x20 MUL PUSH1 0x20 ADD ADD MLOAD PUSH1 0x1 PUSH1 0x1 PUSH1 0xA0 SHL SUB AND DUP7 DUP5 DUP2 MLOAD DUP2 LT PUSH2 0x2836 JUMPI PUSH2 0x2836 PUSH2 0x45AF JUMP JUMPDEST PUSH1 0x20 MUL PUSH1 0x20 ADD ADD MLOAD DUP7 DUP6 DUP2 MLOAD DUP2 LT PUSH2 0x2850 JUMPI PUSH2 0x2850 PUSH2 0x45AF JUMP JUMPDEST PUSH1 0x20 MUL PUSH1 0x20 ADD ADD MLOAD PUSH1 0x40 MLOAD PUSH2 0x2865 SWAP2 SWAP1 PUSH2 0x473E JUMP JUMPDEST PUSH1 0x0 PUSH1 0x40 MLOAD DUP1 DUP4 SUB DUP2 DUP6 DUP8 GAS CALL SWAP3 POP POP POP RETURNDATASIZE DUP1 PUSH1 0x0 DUP2 EQ PUSH2 0x28A2 JUMPI PUSH1 0x40 MLOAD SWAP2 POP PUSH1 0x1F NOT PUSH1 0x3F RETURNDATASIZE ADD AND DUP3 ADD PUSH1 0x40 MSTORE RETURNDATASIZE DUP3 MSTORE RETURNDATASIZE PUSH1 0x0 PUSH1 0x20 DUP5 ADD RETURNDATACOPY PUSH2 0x28A7 JUMP JUMPDEST PUSH1 0x60 SWAP2 POP JUMPDEST POP SWAP2 POP SWAP2 POP PUSH2 0x28B6 DUP3 DUP3 PUSH2 0x2D5F JUMP JUMPDEST POP POP POP DUP1 PUSH1 0x1 ADD SWAP1 POP PUSH2 0x27F5 JUMP JUMPDEST POP POP POP POP POP POP JUMP JUMPDEST ADDRESS CALLER EQ PUSH2 0x28EE JUMPI PUSH1 0x40 MLOAD PUSH4 0x47096E47 PUSH1 0xE0 SHL DUP2 MSTORE CALLER PUSH1 0x4 DUP3 ADD MSTORE PUSH1 0x24 ADD PUSH2 0x129F JUMP JUMPDEST JUMP JUMPDEST DUP1 PUSH2 0x28FB PUSH1 0x5 PUSH2 0x2E6C JUMP JUMPDEST SUB PUSH2 0x28F0 JUMPI POP JUMP JUMPDEST PUSH1 0x0 DUP2 DUP2 MSTORE PUSH1 0x9 PUSH1 0x20 MSTORE PUSH1 0x40 DUP2 KECCAK256 PUSH1 0x2 DUP2 ADD SLOAD PUSH1 0x1 DUP3 ADD SLOAD PUSH2 0x2925 SWAP2 SWAP1 PUSH2 0x45DB JUMP JUMPDEST PUSH2 0x2931 PUSH2 0xF58 DUP6 PUSH2 0x120C JUMP JUMPDEST GT ISZERO SWAP4 SWAP3 POP POP POP JUMP JUMPDEST PUSH1 0x0 DUP1 PUSH2 0x2946 DUP5 PUSH2 0x14BD JUMP JUMPDEST PUSH1 0x7 DUP2 GT ISZERO PUSH2 0x2957 JUMPI PUSH2 0x2957 PUSH2 0x3E20 JUMP JUMPDEST EQ DUP1 ISZERO PUSH2 0x1616 JUMPI POP POP PUSH1 0x0 SWAP2 DUP3 MSTORE PUSH1 0x4 PUSH1 0x20 MSTORE PUSH1 0x40 SWAP1 SWAP2 KECCAK256 SLOAD PUSH1 0x1 PUSH1 0x1 PUSH1 0xA0 SHL SUB SWAP2 DUP3 AND SWAP2 AND EQ SWAP1 JUMP JUMPDEST PUSH1 0x0 DUP1 PUSH2 0x2990 DUP7 DUP7 DUP7 DUP7 PUSH2 0x22D6 JUMP JUMPDEST SWAP1 POP PUSH2 0x29DE DUP2 PUSH2 0x29A0 PUSH1 0x7 PUSH2 0x272E JUMP JUMPDEST PUSH2 0x29AA PUSH1 0x6 PUSH2 0x272E JUMP JUMPDEST PUSH2 0x29B4 PUSH1 0x2 PUSH2 0x272E JUMP JUMPDEST PUSH1 0x1 PUSH2 0x29C1 PUSH1 0x7 DUP3 PUSH2 0x475A JUMP JUMPDEST PUSH2 0x29CC SWAP1 PUSH1 0x2 PUSH2 0x4852 JUMP JUMPDEST PUSH2 0x29D6 SWAP2 SWAP1 PUSH2 0x4637 JUMP JUMPDEST XOR XOR XOR PUSH2 0x2751 JUMP JUMPDEST POP PUSH1 0x0 DUP2 DUP2 MSTORE PUSH1 0x4 PUSH1 0x20 MSTORE PUSH1 0x40 SWAP1 DUP2 SWAP1 KECCAK256 DUP1 SLOAD PUSH1 0x1 PUSH1 0x1 PUSH1 0xF8 SHL SUB AND PUSH1 0x1 PUSH1 0xF8 SHL OR SWAP1 SSTORE MLOAD PUSH32 0x789CF55BE980739DAD1D0699B93B58E806B51C9D96619BFA8FE0A28ABAA7B30C SWAP1 PUSH2 0x11FB SWAP1 DUP4 DUP2 MSTORE PUSH1 0x20 ADD SWAP1 JUMP JUMPDEST PUSH1 0x0 PUSH2 0x22E4 DUP6 DUP6 DUP6 DUP6 PUSH2 0x2A50 PUSH1 0x40 DUP1 MLOAD PUSH1 0x20 DUP2 ADD SWAP1 SWAP2 MSTORE PUSH1 0x0 DUP2 MSTORE SWAP1 JUMP JUMPDEST PUSH2 0x2AF6 JUMP JUMPDEST PUSH1 0x0 PUSH2 0xFFA PUSH2 0x2A62 PUSH2 0x2EDB JUMP JUMPDEST DUP4 PUSH1 0x40 MLOAD PUSH2 0x1901 PUSH1 0xF0 SHL DUP2 MSTORE PUSH1 0x2 DUP2 ADD SWAP3 SWAP1 SWAP3 MSTORE PUSH1 0x22 DUP3 ADD MSTORE PUSH1 0x42 SWAP1 KECCAK256 SWAP1 JUMP JUMPDEST PUSH1 0x0 DUP4 PUSH1 0x1 PUSH1 0x1 PUSH1 0xA0 SHL SUB AND EXTCODESIZE PUSH1 0x0 SUB PUSH2 0x2AE4 JUMPI PUSH1 0x0 DUP1 PUSH2 0x2AA3 DUP6 DUP6 PUSH2 0x3006 JUMP JUMPDEST POP SWAP1 SWAP3 POP SWAP1 POP PUSH1 0x0 DUP2 PUSH1 0x3 DUP2 GT ISZERO PUSH2 0x2ABD JUMPI PUSH2 0x2ABD PUSH2 0x3E20 JUMP JUMPDEST EQ DUP1 ISZERO PUSH2 0x2ADB JUMPI POP DUP6 PUSH1 0x1 PUSH1 0x1 PUSH1 0xA0 SHL SUB AND DUP3 PUSH1 0x1 PUSH1 0x1 PUSH1 0xA0 SHL SUB AND EQ JUMPDEST SWAP3 POP POP POP PUSH2 0x1616 JUMP JUMPDEST PUSH2 0x2AEF DUP5 DUP5 DUP5 PUSH2 0x3053 JUMP JUMPDEST SWAP1 POP PUSH2 0x1616 JUMP JUMPDEST PUSH1 0xC SLOAD PUSH1 0x1 PUSH1 0x1 PUSH1 0xA0 SHL SUB DUP6 AND PUSH1 0x0 SWAP1 DUP2 MSTORE PUSH1 0xF PUSH1 0x20 MSTORE PUSH1 0x40 DUP2 KECCAK256 SLOAD SWAP1 SWAP2 GT ISZERO PUSH2 0x2B62 JUMPI PUSH1 0x40 MLOAD PUSH3 0x461BCD PUSH1 0xE5 SHL DUP2 MSTORE PUSH1 0x20 PUSH1 0x4 DUP3 ADD MSTORE PUSH1 0x1A PUSH1 0x24 DUP3 ADD MSTORE PUSH32 0x496E73756666696369656E74207374616B6520746F20766F7465000000000000 PUSH1 0x44 DUP3 ADD MSTORE PUSH1 0x64 ADD PUSH2 0x129F JUMP JUMPDEST PUSH2 0x20BC DUP7 DUP7 DUP7 DUP7 DUP7 PUSH2 0x312E JUMP JUMPDEST PUSH1 0x8 SLOAD PUSH1 0x40 DUP1 MLOAD PUSH6 0xFFFFFFFFFFFF SWAP3 DUP4 AND DUP2 MSTORE SWAP2 DUP4 AND PUSH1 0x20 DUP4 ADD MSTORE PUSH32 0xC565B045403DC03C2EEA82B81A0465EDAD9E2E7FC4D97E11421C209DA93D7A93 SWAP2 ADD PUSH1 0x40 MLOAD DUP1 SWAP2 SUB SWAP1 LOG1 PUSH1 0x8 DUP1 SLOAD PUSH6 0xFFFFFFFFFFFF NOT AND PUSH6 0xFFFFFFFFFFFF SWAP3 SWAP1 SWAP3 AND SWAP2 SWAP1 SWAP2 OR SWAP1 SSTORE JUMP JUMPDEST PUSH1 0x0 CALLER PUSH2 0x2BE2 DUP2 DUP5 PUSH2 0x3210 JUMP JUMPDEST PUSH2 0x2C0A JUMPI PUSH1 0x40 MLOAD PUSH4 0xD9B39557 PUSH1 0xE0 SHL DUP2 MSTORE PUSH1 0x1 PUSH1 0x1 PUSH1 0xA0 SHL SUB DUP3 AND PUSH1 0x4 DUP3 ADD MSTORE PUSH1 0x24 ADD PUSH2 0x129F JUMP JUMPDEST PUSH1 0x0 PUSH2 0x2C14 PUSH2 0x23DA JUMP JUMPDEST SWAP1 POP DUP1 ISZERO PUSH2 0x2C78 JUMPI PUSH1 0x0 PUSH2 0x2C3A DUP4 PUSH2 0x2C2D PUSH1 0x1 TIMESTAMP PUSH2 0x4861 JUMP JUMPDEST PUSH6 0xFFFFFFFFFFFF AND PUSH2 0x25BD JUMP JUMPDEST SWAP1 POP DUP2 DUP2 LT ISZERO PUSH2 0x2C76 JUMPI PUSH1 0x40 MLOAD PUSH4 0x6121770B PUSH1 0xE1 SHL DUP2 MSTORE PUSH1 0x1 PUSH1 0x1 PUSH1 0xA0 SHL SUB DUP5 AND PUSH1 0x4 DUP3 ADD MSTORE PUSH1 0x24 DUP2 ADD DUP3 SWAP1 MSTORE PUSH1 0x44 DUP2 ADD DUP4 SWAP1 MSTORE PUSH1 0x64 ADD PUSH2 0x129F JUMP JUMPDEST POP JUMPDEST PUSH2 0x1674 DUP8 DUP8 DUP8 DUP8 DUP7 PUSH2 0x3296 JUMP JUMPDEST PUSH1 0x60 PUSH2 0x1000 PUSH32 0x0 PUSH1 0x0 PUSH2 0x34AE JUMP JUMPDEST PUSH1 0x60 PUSH2 0x1000 PUSH32 0x0 PUSH1 0x1 PUSH2 0x34AE JUMP JUMPDEST PUSH1 0x1 PUSH1 0x1 PUSH1 0xA0 SHL SUB DUP4 AND PUSH1 0x0 SWAP1 DUP2 MSTORE PUSH1 0xF PUSH1 0x20 SWAP1 DUP2 MSTORE PUSH1 0x40 DUP1 DUP4 KECCAK256 DUP2 MLOAD PUSH1 0x60 DUP2 ADD DUP4 MSTORE DUP2 SLOAD DUP1 DUP3 MSTORE PUSH1 0x1 DUP4 ADD SLOAD SWAP5 DUP3 ADD SWAP5 SWAP1 SWAP5 MSTORE PUSH1 0x2 SWAP1 SWAP2 ADD SLOAD SWAP2 DUP2 ADD SWAP2 SWAP1 SWAP2 MSTORE SWAP1 DUP3 SWAP1 ISZERO PUSH2 0x2D3C JUMPI PUSH1 0x40 DUP3 ADD MLOAD DUP3 MLOAD PUSH2 0x2D39 SWAP2 SWAP1 PUSH2 0x4620 JUMP JUMPDEST SWAP1 POP JUMPDEST PUSH1 0x1 PUSH1 0x1 PUSH1 0xA0 SHL SUB DUP7 AND PUSH1 0x0 SWAP1 DUP2 MSTORE PUSH1 0x12 PUSH1 0x20 MSTORE PUSH1 0x40 DUP2 KECCAK256 SLOAD PUSH2 0x1674 SWAP1 DUP4 PUSH2 0x45DB JUMP JUMPDEST PUSH1 0x60 DUP3 PUSH2 0x2D74 JUMPI PUSH2 0x2D6F DUP3 PUSH2 0x3559 JUMP JUMPDEST PUSH2 0xFFA JUMP JUMPDEST POP DUP1 PUSH2 0xFFA JUMP JUMPDEST DUP1 PUSH4 0xFFFFFFFF AND PUSH1 0x0 SUB PUSH2 0x2DA5 JUMPI PUSH1 0x40 MLOAD PUSH4 0xF1CFBF05 PUSH1 0xE0 SHL DUP2 MSTORE PUSH1 0x0 PUSH1 0x4 DUP3 ADD MSTORE PUSH1 0x24 ADD PUSH2 0x129F JUMP JUMPDEST PUSH1 0x8 SLOAD PUSH1 0x40 DUP1 MLOAD PUSH4 0xFFFFFFFF PUSH1 0x1 PUSH1 0x30 SHL SWAP1 SWAP4 DIV DUP4 AND DUP2 MSTORE SWAP2 DUP4 AND PUSH1 0x20 DUP4 ADD MSTORE PUSH32 0x7E3F7F0708A84DE9203036ABAA450DCCC85AD5FF52F78C170F3EDB55CF5E8828 SWAP2 ADD PUSH1 0x40 MLOAD DUP1 SWAP2 SUB SWAP1 LOG1 PUSH1 0x8 DUP1 SLOAD PUSH4 0xFFFFFFFF SWAP1 SWAP3 AND PUSH1 0x1 PUSH1 0x30 SHL MUL PUSH10 0xFFFFFFFF000000000000 NOT SWAP1 SWAP3 AND SWAP2 SWAP1 SWAP2 OR SWAP1 SSTORE JUMP JUMPDEST PUSH1 0x7 SLOAD PUSH1 0x40 DUP1 MLOAD SWAP2 DUP3 MSTORE PUSH1 0x20 DUP3 ADD DUP4 SWAP1 MSTORE PUSH32 0xCCB45DA8D5717E6C4544694297C4BA5CF151D455C9BB0ED4FC7A38411BC05461 SWAP2 ADD PUSH1 0x40 MLOAD DUP1 SWAP2 SUB SWAP1 LOG1 PUSH1 0x7 SSTORE JUMP JUMPDEST PUSH4 0x4E487B71 PUSH1 0x0 MSTORE DUP1 PUSH1 0x20 MSTORE PUSH1 0x24 PUSH1 0x1C REVERT JUMPDEST DUP1 SLOAD PUSH1 0x0 SWAP1 PUSH1 0x1 PUSH1 0x1 PUSH1 0x80 SHL SUB DUP1 DUP3 AND SWAP2 PUSH1 0x1 PUSH1 0x80 SHL SWAP1 DIV AND DUP2 SUB PUSH2 0x2E95 JUMPI PUSH2 0x2E95 PUSH1 0x31 PUSH2 0x2E5A JUMP JUMPDEST PUSH1 0x1 PUSH1 0x1 PUSH1 0x80 SHL SUB DUP2 DUP2 AND PUSH1 0x0 SWAP1 DUP2 MSTORE PUSH1 0x1 DUP6 DUP2 ADD PUSH1 0x20 MSTORE PUSH1 0x40 DUP3 KECCAK256 DUP1 SLOAD SWAP3 SWAP1 SSTORE DUP6 SLOAD PUSH16 0xFFFFFFFFFFFFFFFFFFFFFFFFFFFFFFFF NOT AND SWAP4 ADD SWAP1 SWAP2 AND SWAP2 SWAP1 SWAP2 OR SWAP1 SWAP3 SSTORE POP SWAP1 JUMP JUMPDEST PUSH1 0x0 ADDRESS PUSH1 0x1 PUSH1 0x1 PUSH1 0xA0 SHL SUB PUSH32 0x0 AND EQ DUP1 ISZERO PUSH2 0x2F34 JUMPI POP PUSH32 0x0 CHAINID EQ JUMPDEST ISZERO PUSH2 0x2F5E JUMPI POP PUSH32 0x0 SWAP1 JUMP JUMPDEST PUSH2 0x1000 PUSH1 0x40 DUP1 MLOAD PUSH32 0x8B73C3C69BB8FE3D512ECC4CF759CC79239F7B179B0FFACAA9A75D522B39400F PUSH1 0x20 DUP3 ADD MSTORE PUSH32 0x0 SWAP2 DUP2 ADD SWAP2 SWAP1 SWAP2 MSTORE PUSH32 0x0 PUSH1 0x60 DUP3 ADD MSTORE CHAINID PUSH1 0x80 DUP3 ADD MSTORE ADDRESS PUSH1 0xA0 DUP3 ADD MSTORE PUSH1 0x0 SWAP1 PUSH1 0xC0 ADD PUSH1 0x40 MLOAD PUSH1 0x20 DUP2 DUP4 SUB SUB DUP2 MSTORE SWAP1 PUSH1 0x40 MSTORE DUP1 MLOAD SWAP1 PUSH1 0x20 ADD KECCAK256 SWAP1 POP SWAP1 JUMP JUMPDEST PUSH1 0x0 DUP1 PUSH1 0x0 DUP4 MLOAD PUSH1 0x41 SUB PUSH2 0x3040 JUMPI PUSH1 0x20 DUP5 ADD MLOAD PUSH1 0x40 DUP6 ADD MLOAD PUSH1 0x60 DUP7 ADD MLOAD PUSH1 0x0 BYTE PUSH2 0x3032 DUP9 DUP3 DUP6 DUP6 PUSH2 0x3582 JUMP JUMPDEST SWAP6 POP SWAP6 POP SWAP6 POP POP POP POP PUSH2 0x304C JUMP JUMPDEST POP POP DUP2 MLOAD PUSH1 0x0 SWAP2 POP PUSH1 0x2 SWAP1 JUMPDEST SWAP3 POP SWAP3 POP SWAP3 JUMP JUMPDEST PUSH1 0x0 DUP1 PUSH1 0x0 DUP6 PUSH1 0x1 PUSH1 0x1 PUSH1 0xA0 SHL SUB AND DUP6 DUP6 PUSH1 0x40 MLOAD PUSH1 0x24 ADD PUSH2 0x3075 SWAP3 SWAP2 SWAP1 PUSH2 0x487F JUMP JUMPDEST PUSH1 0x40 DUP1 MLOAD PUSH1 0x1F NOT DUP2 DUP5 SUB ADD DUP2 MSTORE SWAP2 DUP2 MSTORE PUSH1 0x20 DUP3 ADD DUP1 MLOAD PUSH1 0x1 PUSH1 0x1 PUSH1 0xE0 SHL SUB AND PUSH4 0xB135D3F PUSH1 0xE1 SHL OR SWAP1 MSTORE MLOAD PUSH2 0x30AA SWAP2 SWAP1 PUSH2 0x473E JUMP JUMPDEST PUSH1 0x0 PUSH1 0x40 MLOAD DUP1 DUP4 SUB DUP2 DUP6 GAS STATICCALL SWAP2 POP POP RETURNDATASIZE DUP1 PUSH1 0x0 DUP2 EQ PUSH2 0x30E5 JUMPI PUSH1 0x40 MLOAD SWAP2 POP PUSH1 0x1F NOT PUSH1 0x3F RETURNDATASIZE ADD AND DUP3 ADD PUSH1 0x40 MSTORE RETURNDATASIZE DUP3 MSTORE RETURNDATASIZE PUSH1 0x0 PUSH1 0x20 DUP5 ADD RETURNDATACOPY PUSH2 0x30EA JUMP JUMPDEST PUSH1 0x60 SWAP2 POP JUMPDEST POP SWAP2 POP SWAP2 POP DUP2 DUP1 ISZERO PUSH2 0x30FE JUMPI POP PUSH1 0x20 DUP2 MLOAD LT ISZERO JUMPDEST DUP1 ISZERO PUSH2 0x20BC JUMPI POP DUP1 MLOAD PUSH4 0xB135D3F PUSH1 0xE1 SHL SWAP1 PUSH2 0x3123 SWAP1 DUP4 ADD PUSH1 0x20 SWAP1 DUP2 ADD SWAP1 DUP5 ADD PUSH2 0x4898 JUMP JUMPDEST EQ SWAP7 SWAP6 POP POP POP POP POP POP JUMP JUMPDEST PUSH1 0x0 PUSH2 0x313E DUP7 PUSH2 0x10B6 PUSH1 0x1 PUSH2 0x272E JUMP JUMPDEST POP PUSH1 0x0 PUSH2 0x3154 DUP7 PUSH2 0x314E DUP10 PUSH2 0x120C JUMP JUMPDEST DUP6 PUSH2 0x2CDF JUMP JUMPDEST SWAP1 POP PUSH1 0x0 PUSH2 0x3165 DUP9 DUP9 DUP9 DUP6 DUP9 PUSH2 0x3651 JUMP JUMPDEST SWAP1 POP DUP4 MLOAD PUSH1 0x0 SUB PUSH2 0x31BC JUMPI DUP7 PUSH1 0x1 PUSH1 0x1 PUSH1 0xA0 SHL SUB AND PUSH32 0xB8E138887D0AA13BAB447E82DE9D5C1777041ECD21CA36BA824FF1E6C07DDDA4 DUP10 DUP9 DUP5 DUP10 PUSH1 0x40 MLOAD PUSH2 0x31AF SWAP5 SWAP4 SWAP3 SWAP2 SWAP1 PUSH2 0x48B1 JUMP JUMPDEST PUSH1 0x40 MLOAD DUP1 SWAP2 SUB SWAP1 LOG2 PUSH2 0x1674 JUMP JUMPDEST DUP7 PUSH1 0x1 PUSH1 0x1 PUSH1 0xA0 SHL SUB AND PUSH32 0xE2BABFBAC5889A709B63BB7F598B324E08BC5A4FB9EC647FB3CBC9EC07EB8712 DUP10 DUP9 DUP5 DUP10 DUP10 PUSH1 0x40 MLOAD PUSH2 0x31FD SWAP6 SWAP5 SWAP4 SWAP3 SWAP2 SWAP1 PUSH2 0x48D9 JUMP JUMPDEST PUSH1 0x40 MLOAD DUP1 SWAP2 SUB SWAP1 LOG2 SWAP8 SWAP7 POP POP POP POP POP POP POP JUMP JUMPDEST DUP1 MLOAD PUSH1 0x0 SWAP1 PUSH1 0x34 DUP2 LT ISZERO PUSH2 0x3228 JUMPI PUSH1 0x1 SWAP2 POP POP PUSH2 0xFFA JUMP JUMPDEST PUSH1 0x13 NOT DUP2 DUP5 ADD ADD MLOAD PUSH1 0x1 PUSH1 0x1 PUSH1 0xB0 SHL SUB NOT DUP2 AND PUSH10 0x2370726F706F7365723D PUSH1 0xB0 SHL EQ PUSH2 0x3259 JUMPI PUSH1 0x1 SWAP3 POP POP POP PUSH2 0xFFA JUMP JUMPDEST PUSH1 0x0 DUP1 PUSH2 0x326A DUP7 PUSH1 0x2A DUP7 SUB DUP7 PUSH2 0x3754 JUMP JUMPDEST SWAP2 POP SWAP2 POP DUP2 ISZERO DUP1 PUSH2 0x1674 JUMPI POP DUP7 PUSH1 0x1 PUSH1 0x1 PUSH1 0xA0 SHL SUB AND DUP2 PUSH1 0x1 PUSH1 0x1 PUSH1 0xA0 SHL SUB AND EQ SWAP8 SWAP7 POP POP POP POP POP POP POP JUMP JUMPDEST PUSH1 0x0 PUSH2 0x32AB DUP7 DUP7 DUP7 DUP7 DUP1 MLOAD SWAP1 PUSH1 0x20 ADD KECCAK256 PUSH2 0x22D6 JUMP JUMPDEST SWAP1 POP DUP5 MLOAD DUP7 MLOAD EQ ISZERO DUP1 PUSH2 0x32C0 JUMPI POP DUP4 MLOAD DUP7 MLOAD EQ ISZERO JUMPDEST DUP1 PUSH2 0x32CA JUMPI POP DUP6 MLOAD ISZERO JUMPDEST ISZERO PUSH2 0x32FF JUMPI DUP6 MLOAD DUP5 MLOAD DUP7 MLOAD PUSH1 0x40 MLOAD PUSH4 0x447B05D PUSH1 0xE4 SHL DUP2 MSTORE PUSH1 0x4 DUP2 ADD SWAP4 SWAP1 SWAP4 MSTORE PUSH1 0x24 DUP4 ADD SWAP2 SWAP1 SWAP2 MSTORE PUSH1 0x44 DUP3 ADD MSTORE PUSH1 0x64 ADD PUSH2 0x129F JUMP JUMPDEST PUSH1 0x0 DUP2 DUP2 MSTORE PUSH1 0x4 PUSH1 0x20 MSTORE PUSH1 0x40 SWAP1 KECCAK256 SLOAD PUSH1 0x1 PUSH1 0xA0 SHL SWAP1 DIV PUSH6 0xFFFFFFFFFFFF AND ISZERO PUSH2 0x334A JUMPI DUP1 PUSH2 0x332C DUP3 PUSH2 0x14BD JUMP JUMPDEST PUSH1 0x40 MLOAD PUSH4 0x31B75E4D PUSH1 0xE0 SHL DUP2 MSTORE PUSH2 0x129F SWAP3 SWAP2 SWAP1 PUSH1 0x0 SWAP1 PUSH1 0x4 ADD PUSH2 0x471C JUMP JUMPDEST PUSH1 0x0 PUSH2 0x3354 PUSH2 0x14AA JUMP JUMPDEST PUSH2 0x3366 SWAP1 PUSH6 0xFFFFFFFFFFFF TIMESTAMP AND PUSH2 0x45DB JUMP JUMPDEST SWAP1 POP PUSH1 0x0 PUSH2 0x3381 PUSH1 0x8 SLOAD PUSH4 0xFFFFFFFF PUSH1 0x1 PUSH1 0x30 SHL SWAP1 SWAP2 DIV AND SWAP1 JUMP JUMPDEST PUSH1 0x0 DUP5 DUP2 MSTORE PUSH1 0x4 PUSH1 0x20 MSTORE PUSH1 0x40 SWAP1 KECCAK256 DUP1 SLOAD PUSH1 0x1 PUSH1 0x1 PUSH1 0xA0 SHL SUB NOT AND PUSH1 0x1 PUSH1 0x1 PUSH1 0xA0 SHL SUB DUP8 AND OR DUP2 SSTORE SWAP1 SWAP2 POP PUSH2 0x33B4 DUP4 PUSH2 0x3807 JUMP JUMPDEST DUP2 SLOAD PUSH6 0xFFFFFFFFFFFF SWAP2 SWAP1 SWAP2 AND PUSH1 0x1 PUSH1 0xA0 SHL MUL PUSH6 0xFFFFFFFFFFFF PUSH1 0xA0 SHL NOT SWAP1 SWAP2 AND OR DUP2 SSTORE PUSH2 0x33E1 DUP3 PUSH2 0x383E JUMP JUMPDEST DUP2 SLOAD PUSH4 0xFFFFFFFF SWAP2 SWAP1 SWAP2 AND PUSH1 0x1 PUSH1 0xD0 SHL MUL PUSH4 0xFFFFFFFF PUSH1 0xD0 SHL NOT SWAP1 SWAP2 AND OR DUP2 SSTORE DUP9 MLOAD PUSH32 0x7D84A6263AE0D98D3329BD7B46BB4E8D6F98CD35A7ADB45C274C8B7FD5EBD5E0 SWAP1 DUP6 SWAP1 DUP8 SWAP1 DUP13 SWAP1 DUP13 SWAP1 PUSH1 0x1 PUSH1 0x1 PUSH1 0x40 SHL SUB DUP2 GT ISZERO PUSH2 0x3444 JUMPI PUSH2 0x3444 PUSH2 0x3AF2 JUMP JUMPDEST PUSH1 0x40 MLOAD SWAP1 DUP1 DUP3 MSTORE DUP1 PUSH1 0x20 MUL PUSH1 0x20 ADD DUP3 ADD PUSH1 0x40 MSTORE DUP1 ISZERO PUSH2 0x3477 JUMPI DUP2 PUSH1 0x20 ADD JUMPDEST PUSH1 0x60 DUP2 MSTORE PUSH1 0x20 ADD SWAP1 PUSH1 0x1 SWAP1 SUB SWAP1 DUP2 PUSH2 0x3462 JUMPI SWAP1 POP JUMPDEST POP DUP13 DUP10 PUSH2 0x3484 DUP11 DUP3 PUSH2 0x45DB JUMP JUMPDEST DUP15 PUSH1 0x40 MLOAD PUSH2 0x349A SWAP10 SWAP9 SWAP8 SWAP7 SWAP6 SWAP5 SWAP4 SWAP3 SWAP2 SWAP1 PUSH2 0x491F JUMP JUMPDEST PUSH1 0x40 MLOAD DUP1 SWAP2 SUB SWAP1 LOG1 POP POP POP SWAP6 SWAP5 POP POP POP POP POP JUMP JUMPDEST PUSH1 0x60 PUSH1 0xFF DUP4 EQ PUSH2 0x34C8 JUMPI PUSH2 0x34C1 DUP4 PUSH2 0x386F JUMP JUMPDEST SWAP1 POP PUSH2 0xFFA JUMP JUMPDEST DUP2 DUP1 SLOAD PUSH2 0x34D4 SWAP1 PUSH2 0x4575 JUMP JUMPDEST DUP1 PUSH1 0x1F ADD PUSH1 0x20 DUP1 SWAP2 DIV MUL PUSH1 0x20 ADD PUSH1 0x40 MLOAD SWAP1 DUP2 ADD PUSH1 0x40 MSTORE DUP1 SWAP3 SWAP2 SWAP1 DUP2 DUP2 MSTORE PUSH1 0x20 ADD DUP3 DUP1 SLOAD PUSH2 0x3500 SWAP1 PUSH2 0x4575 JUMP JUMPDEST DUP1 ISZERO PUSH2 0x354D JUMPI DUP1 PUSH1 0x1F LT PUSH2 0x3522 JUMPI PUSH2 0x100 DUP1 DUP4 SLOAD DIV MUL DUP4 MSTORE SWAP2 PUSH1 0x20 ADD SWAP2 PUSH2 0x354D JUMP JUMPDEST DUP3 ADD SWAP2 SWAP1 PUSH1 0x0 MSTORE PUSH1 0x20 PUSH1 0x0 KECCAK256 SWAP1 JUMPDEST DUP2 SLOAD DUP2 MSTORE SWAP1 PUSH1 0x1 ADD SWAP1 PUSH1 0x20 ADD DUP1 DUP4 GT PUSH2 0x3530 JUMPI DUP3 SWAP1 SUB PUSH1 0x1F AND DUP3 ADD SWAP2 JUMPDEST POP POP POP POP POP SWAP1 POP PUSH2 0xFFA JUMP JUMPDEST DUP1 MLOAD ISZERO PUSH2 0x3569 JUMPI DUP1 MLOAD DUP1 DUP3 PUSH1 0x20 ADD REVERT JUMPDEST PUSH1 0x40 MLOAD PUSH4 0xD6BDA275 PUSH1 0xE0 SHL DUP2 MSTORE PUSH1 0x4 ADD PUSH1 0x40 MLOAD DUP1 SWAP2 SUB SWAP1 REVERT JUMPDEST PUSH1 0x0 DUP1 DUP1 PUSH32 0x7FFFFFFFFFFFFFFFFFFFFFFFFFFFFFFF5D576E7357A4501DDFE92F46681B20A0 DUP5 GT ISZERO PUSH2 0x35BD JUMPI POP PUSH1 0x0 SWAP2 POP PUSH1 0x3 SWAP1 POP DUP3 PUSH2 0x3647 JUMP JUMPDEST PUSH1 0x40 DUP1 MLOAD PUSH1 0x0 DUP1 DUP3 MSTORE PUSH1 0x20 DUP3 ADD DUP1 DUP5 MSTORE DUP11 SWAP1 MSTORE PUSH1 0xFF DUP10 AND SWAP3 DUP3 ADD SWAP3 SWAP1 SWAP3 MSTORE PUSH1 0x60 DUP2 ADD DUP8 SWAP1 MSTORE PUSH1 0x80 DUP2 ADD DUP7 SWAP1 MSTORE PUSH1 0x1 SWAP1 PUSH1 0xA0 ADD PUSH1 0x20 PUSH1 0x40 MLOAD PUSH1 0x20 DUP2 SUB SWAP1 DUP1 DUP5 SUB SWAP1 DUP6 GAS STATICCALL ISZERO DUP1 ISZERO PUSH2 0x3611 JUMPI RETURNDATASIZE PUSH1 0x0 DUP1 RETURNDATACOPY RETURNDATASIZE PUSH1 0x0 REVERT JUMPDEST POP POP PUSH1 0x40 MLOAD PUSH1 0x1F NOT ADD MLOAD SWAP2 POP POP PUSH1 0x1 PUSH1 0x1 PUSH1 0xA0 SHL SUB DUP2 AND PUSH2 0x363D JUMPI POP PUSH1 0x0 SWAP3 POP PUSH1 0x1 SWAP2 POP DUP3 SWAP1 POP PUSH2 0x3647 JUMP JUMPDEST SWAP3 POP PUSH1 0x0 SWAP2 POP DUP2 SWAP1 POP JUMPDEST SWAP5 POP SWAP5 POP SWAP5 SWAP2 POP POP JUMP JUMPDEST PUSH1 0x0 DUP6 DUP2 MSTORE PUSH1 0x9 PUSH1 0x20 SWAP1 DUP2 MSTORE PUSH1 0x40 DUP1 DUP4 KECCAK256 PUSH1 0x1 PUSH1 0x1 PUSH1 0xA0 SHL SUB DUP9 AND DUP5 MSTORE PUSH1 0x3 DUP2 ADD SWAP1 SWAP3 MSTORE DUP3 KECCAK256 SLOAD PUSH1 0xFF AND ISZERO PUSH2 0x36A4 JUMPI PUSH1 0x40 MLOAD PUSH4 0x71C6AF49 PUSH1 0xE0 SHL DUP2 MSTORE PUSH1 0x1 PUSH1 0x1 PUSH1 0xA0 SHL SUB DUP8 AND PUSH1 0x4 DUP3 ADD MSTORE PUSH1 0x24 ADD PUSH2 0x129F JUMP JUMPDEST PUSH1 0x1 PUSH1 0x1 PUSH1 0xA0 SHL SUB DUP7 AND PUSH1 0x0 SWAP1 DUP2 MSTORE PUSH1 0x3 DUP3 ADD PUSH1 0x20 MSTORE PUSH1 0x40 SWAP1 KECCAK256 DUP1 SLOAD PUSH1 0xFF NOT AND PUSH1 0x1 OR SWAP1 SSTORE PUSH1 0xFF DUP6 AND PUSH2 0x36F0 JUMPI DUP4 DUP2 PUSH1 0x0 ADD PUSH1 0x0 DUP3 DUP3 SLOAD PUSH2 0x36E5 SWAP2 SWAP1 PUSH2 0x45DB JUMP JUMPDEST SWAP1 SWAP2 SSTORE POP PUSH2 0x3749 SWAP1 POP JUMP JUMPDEST PUSH1 0x0 NOT PUSH1 0xFF DUP7 AND ADD PUSH2 0x3710 JUMPI DUP4 DUP2 PUSH1 0x1 ADD PUSH1 0x0 DUP3 DUP3 SLOAD PUSH2 0x36E5 SWAP2 SWAP1 PUSH2 0x45DB JUMP JUMPDEST PUSH1 0x1 NOT PUSH1 0xFF DUP7 AND ADD PUSH2 0x3730 JUMPI DUP4 DUP2 PUSH1 0x2 ADD PUSH1 0x0 DUP3 DUP3 SLOAD PUSH2 0x36E5 SWAP2 SWAP1 PUSH2 0x45DB JUMP JUMPDEST PUSH1 0x40 MLOAD PUSH4 0x3599BE1 PUSH1 0xE1 SHL DUP2 MSTORE PUSH1 0x4 ADD PUSH1 0x40 MLOAD DUP1 SWAP2 SUB SWAP1 REVERT JUMPDEST POP SWAP2 SWAP6 SWAP5 POP POP POP POP POP JUMP JUMPDEST PUSH1 0x0 DUP1 DUP5 MLOAD DUP4 GT DUP1 PUSH2 0x3765 JUMPI POP DUP3 DUP5 GT JUMPDEST ISZERO PUSH2 0x3775 JUMPI POP PUSH1 0x0 SWAP1 POP DUP1 PUSH2 0x37FF JUMP JUMPDEST PUSH1 0x0 PUSH2 0x3782 DUP6 PUSH1 0x1 PUSH2 0x45DB JUMP JUMPDEST DUP5 GT DUP1 ISZERO PUSH2 0x37AA JUMPI POP PUSH2 0x60F PUSH1 0xF3 SHL PUSH2 0x379E DUP8 DUP8 ADD PUSH1 0x20 ADD MLOAD SWAP1 JUMP JUMPDEST PUSH1 0x1 PUSH1 0x1 PUSH1 0xF0 SHL SUB NOT AND EQ JUMPDEST SWAP1 POP PUSH1 0x0 PUSH2 0x37BB DUP3 ISZERO ISZERO PUSH1 0x2 PUSH2 0x4620 JUMP JUMPDEST PUSH2 0x37C6 SWAP1 PUSH1 0x28 PUSH2 0x45DB JUMP JUMPDEST SWAP1 POP DUP1 PUSH2 0x37D3 DUP8 DUP8 PUSH2 0x4637 JUMP JUMPDEST SUB PUSH2 0x37F5 JUMPI PUSH1 0x0 DUP1 PUSH2 0x37E6 DUP10 DUP10 DUP10 PUSH2 0x38AE JUMP JUMPDEST SWAP1 SWAP7 POP SWAP5 POP PUSH2 0x37FF SWAP4 POP POP POP POP JUMP JUMPDEST PUSH1 0x0 DUP1 SWAP4 POP SWAP4 POP POP POP JUMPDEST SWAP4 POP SWAP4 SWAP2 POP POP JUMP JUMPDEST PUSH1 0x0 PUSH6 0xFFFFFFFFFFFF DUP3 GT ISZERO PUSH2 0x383A JUMPI PUSH1 0x40 MLOAD PUSH4 0x6DFCC65 PUSH1 0xE4 SHL DUP2 MSTORE PUSH1 0x30 PUSH1 0x4 DUP3 ADD MSTORE PUSH1 0x24 DUP2 ADD DUP4 SWAP1 MSTORE PUSH1 0x44 ADD PUSH2 0x129F JUMP JUMPDEST POP SWAP1 JUMP JUMPDEST PUSH1 0x0 PUSH4 0xFFFFFFFF DUP3 GT ISZERO PUSH2 0x383A JUMPI PUSH1 0x40 MLOAD PUSH4 0x6DFCC65 PUSH1 0xE4 SHL DUP2 MSTORE PUSH1 0x20 PUSH1 0x4 DUP3 ADD MSTORE PUSH1 0x24 DUP2 ADD DUP4 SWAP1 MSTORE PUSH1 0x44 ADD PUSH2 0x129F JUMP JUMPDEST PUSH1 0x60 PUSH1 0x0 PUSH2 0x387C DUP4 PUSH2 0x3974 JUMP JUMPDEST PUSH1 0x40 DUP1 MLOAD PUSH1 0x20 DUP1 DUP3 MSTORE DUP2 DUP4 ADD SWAP1 SWAP3 MSTORE SWAP2 SWAP3 POP PUSH1 0x0 SWAP2 SWAP1 PUSH1 0x20 DUP3 ADD DUP2 DUP1 CALLDATASIZE DUP4 CALLDATACOPY POP POP POP SWAP2 DUP3 MSTORE POP PUSH1 0x20 DUP2 ADD SWAP3 SWAP1 SWAP3 MSTORE POP SWAP1 JUMP JUMPDEST PUSH1 0x0 DUP1 DUP5 DUP2 PUSH2 0x38BE DUP7 PUSH1 0x1 PUSH2 0x45DB JUMP JUMPDEST DUP6 GT DUP1 ISZERO PUSH2 0x38E6 JUMPI POP PUSH2 0x60F PUSH1 0xF3 SHL PUSH2 0x38DA DUP4 DUP9 ADD PUSH1 0x20 ADD MLOAD SWAP1 JUMP JUMPDEST PUSH1 0x1 PUSH1 0x1 PUSH1 0xF0 SHL SUB NOT AND EQ JUMPDEST SWAP1 POP PUSH1 0x0 PUSH2 0x38F7 DUP3 ISZERO ISZERO PUSH1 0x2 PUSH2 0x4620 JUMP JUMPDEST SWAP1 POP PUSH1 0x0 DUP1 PUSH2 0x3906 DUP4 DUP11 PUSH2 0x45DB JUMP JUMPDEST SWAP1 POP JUMPDEST DUP8 DUP2 LT ISZERO PUSH2 0x3963 JUMPI PUSH1 0x0 PUSH2 0x3928 PUSH2 0x3923 DUP8 DUP5 ADD PUSH1 0x20 ADD MLOAD SWAP1 JUMP JUMPDEST PUSH2 0x399C JUMP JUMPDEST SWAP1 POP PUSH1 0xF DUP2 PUSH1 0xFF AND GT ISZERO PUSH2 0x3948 JUMPI PUSH1 0x0 DUP1 SWAP8 POP SWAP8 POP POP POP POP POP POP POP PUSH2 0x37FF JUMP JUMPDEST PUSH2 0x3953 PUSH1 0x10 DUP5 PUSH2 0x4620 JUMP JUMPDEST PUSH1 0xFF SWAP1 SWAP2 AND ADD SWAP2 POP PUSH1 0x1 ADD PUSH2 0x3909 JUMP JUMPDEST POP PUSH1 0x1 SWAP10 SWAP1 SWAP9 POP SWAP7 POP POP POP POP POP POP POP JUMP JUMPDEST PUSH1 0x0 PUSH1 0xFF DUP3 AND PUSH1 0x1F DUP2 GT ISZERO PUSH2 0xFFA JUMPI PUSH1 0x40 MLOAD PUSH4 0x2CD44AC3 PUSH1 0xE2 SHL DUP2 MSTORE PUSH1 0x4 ADD PUSH1 0x40 MLOAD DUP1 SWAP2 SUB SWAP1 REVERT JUMPDEST PUSH1 0x0 PUSH1 0xF8 DUP3 SWAP1 SHR PUSH1 0x2F DUP2 GT DUP1 ISZERO PUSH2 0x39B6 JUMPI POP PUSH1 0x3A DUP2 PUSH1 0xFF AND LT JUMPDEST ISZERO PUSH2 0x39C4 JUMPI PUSH1 0x2F NOT ADD PUSH2 0xFFA JUMP JUMPDEST PUSH1 0x60 DUP2 PUSH1 0xFF AND GT DUP1 ISZERO PUSH2 0x39DA JUMPI POP PUSH1 0x67 DUP2 PUSH1 0xFF AND LT JUMPDEST ISZERO PUSH2 0x39E8 JUMPI PUSH1 0x56 NOT ADD PUSH2 0xFFA JUMP JUMPDEST PUSH1 0x40 DUP2 PUSH1 0xFF AND GT DUP1 ISZERO PUSH2 0x39FE JUMPI POP PUSH1 0x47 DUP2 PUSH1 0xFF AND LT JUMPDEST ISZERO PUSH2 0x3A0C JUMPI PUSH1 0x36 NOT ADD PUSH2 0xFFA JUMP JUMPDEST POP PUSH1 0xFF SWAP3 SWAP2 POP POP JUMP JUMPDEST PUSH1 0x0 PUSH1 0x20 DUP3 DUP5 SUB SLT ISZERO PUSH2 0x3A27 JUMPI PUSH1 0x0 DUP1 REVERT JUMPDEST DUP2 CALLDATALOAD PUSH1 0x1 PUSH1 0x1 PUSH1 0xE0 SHL SUB NOT DUP2 AND DUP2 EQ PUSH2 0x1616 JUMPI PUSH1 0x0 DUP1 REVERT JUMPDEST PUSH1 0x0 JUMPDEST DUP4 DUP2 LT ISZERO PUSH2 0x3A5A JUMPI DUP2 DUP2 ADD MLOAD DUP4 DUP3 ADD MSTORE PUSH1 0x20 ADD PUSH2 0x3A42 JUMP JUMPDEST POP POP PUSH1 0x0 SWAP2 ADD MSTORE JUMP JUMPDEST PUSH1 0x0 DUP2 MLOAD DUP1 DUP5 MSTORE PUSH2 0x3A7B DUP2 PUSH1 0x20 DUP7 ADD PUSH1 0x20 DUP7 ADD PUSH2 0x3A3F JUMP JUMPDEST PUSH1 0x1F ADD PUSH1 0x1F NOT AND SWAP3 SWAP1 SWAP3 ADD PUSH1 0x20 ADD SWAP3 SWAP2 POP POP JUMP JUMPDEST PUSH1 0x20 DUP2 MSTORE PUSH1 0x0 PUSH2 0x1616 PUSH1 0x20 DUP4 ADD DUP5 PUSH2 0x3A63 JUMP JUMPDEST DUP1 CALLDATALOAD PUSH1 0x1 PUSH1 0x1 PUSH1 0xA0 SHL SUB DUP2 AND DUP2 EQ PUSH2 0x3AB9 JUMPI PUSH1 0x0 DUP1 REVERT JUMPDEST SWAP2 SWAP1 POP JUMP JUMPDEST PUSH1 0x0 PUSH1 0x20 DUP3 DUP5 SUB SLT ISZERO PUSH2 0x3AD0 JUMPI PUSH1 0x0 DUP1 REVERT JUMPDEST PUSH2 0x1616 DUP3 PUSH2 0x3AA2 JUMP JUMPDEST PUSH1 0x0 PUSH1 0x20 DUP3 DUP5 SUB SLT ISZERO PUSH2 0x3AEB JUMPI PUSH1 0x0 DUP1 REVERT JUMPDEST POP CALLDATALOAD SWAP2 SWAP1 POP JUMP JUMPDEST PUSH4 0x4E487B71 PUSH1 0xE0 SHL PUSH1 0x0 MSTORE PUSH1 0x41 PUSH1 0x4 MSTORE PUSH1 0x24 PUSH1 0x0 REVERT JUMPDEST PUSH1 0x40 MLOAD PUSH1 0x1F DUP3 ADD PUSH1 0x1F NOT AND DUP2 ADD PUSH1 0x1 PUSH1 0x1 PUSH1 0x40 SHL SUB DUP2 GT DUP3 DUP3 LT OR ISZERO PUSH2 0x3B30 JUMPI PUSH2 0x3B30 PUSH2 0x3AF2 JUMP JUMPDEST PUSH1 0x40 MSTORE SWAP2 SWAP1 POP JUMP JUMPDEST PUSH1 0x0 DUP1 PUSH1 0x1 PUSH1 0x1 PUSH1 0x40 SHL SUB DUP5 GT ISZERO PUSH2 0x3B52 JUMPI PUSH2 0x3B52 PUSH2 0x3AF2 JUMP JUMPDEST POP PUSH1 0x1F DUP4 ADD PUSH1 0x1F NOT AND PUSH1 0x20 ADD PUSH2 0x3B67 DUP2 PUSH2 0x3B08 JUMP JUMPDEST SWAP2 POP POP DUP3 DUP2 MSTORE DUP4 DUP4 DUP4 ADD GT ISZERO PUSH2 0x3B7C JUMPI PUSH1 0x0 DUP1 REVERT JUMPDEST DUP3 DUP3 PUSH1 0x20 DUP4 ADD CALLDATACOPY PUSH1 0x0 PUSH1 0x20 DUP5 DUP4 ADD ADD MSTORE SWAP4 SWAP3 POP POP POP JUMP JUMPDEST PUSH1 0x0 DUP3 PUSH1 0x1F DUP4 ADD SLT PUSH2 0x3BA4 JUMPI PUSH1 0x0 DUP1 REVERT JUMPDEST PUSH2 0x1616 DUP4 DUP4 CALLDATALOAD PUSH1 0x20 DUP6 ADD PUSH2 0x3B38 JUMP JUMPDEST PUSH1 0x0 DUP1 PUSH1 0x0 DUP1 PUSH1 0x80 DUP6 DUP8 SUB SLT ISZERO PUSH2 0x3BC9 JUMPI PUSH1 0x0 DUP1 REVERT JUMPDEST PUSH2 0x3BD2 DUP6 PUSH2 0x3AA2 JUMP JUMPDEST SWAP4 POP PUSH2 0x3BE0 PUSH1 0x20 DUP7 ADD PUSH2 0x3AA2 JUMP JUMPDEST SWAP3 POP PUSH1 0x40 DUP6 ADD CALLDATALOAD SWAP2 POP PUSH1 0x60 DUP6 ADD CALLDATALOAD PUSH1 0x1 PUSH1 0x1 PUSH1 0x40 SHL SUB DUP2 GT ISZERO PUSH2 0x3C02 JUMPI PUSH1 0x0 DUP1 REVERT JUMPDEST PUSH2 0x3C0E DUP8 DUP3 DUP9 ADD PUSH2 0x3B93 JUMP JUMPDEST SWAP2 POP POP SWAP3 SWAP6 SWAP2 SWAP5 POP SWAP3 POP JUMP JUMPDEST PUSH1 0x0 PUSH1 0x1 PUSH1 0x1 PUSH1 0x40 SHL SUB DUP3 GT ISZERO PUSH2 0x3C33 JUMPI PUSH2 0x3C33 PUSH2 0x3AF2 JUMP JUMPDEST POP PUSH1 0x5 SHL PUSH1 0x20 ADD SWAP1 JUMP JUMPDEST PUSH1 0x0 DUP3 PUSH1 0x1F DUP4 ADD SLT PUSH2 0x3C4E JUMPI PUSH1 0x0 DUP1 REVERT JUMPDEST DUP2 CALLDATALOAD PUSH2 0x3C61 PUSH2 0x3C5C DUP3 PUSH2 0x3C1A JUMP JUMPDEST PUSH2 0x3B08 JUMP JUMPDEST DUP1 DUP3 DUP3 MSTORE PUSH1 0x20 DUP3 ADD SWAP2 POP PUSH1 0x20 DUP4 PUSH1 0x5 SHL DUP7 ADD ADD SWAP3 POP DUP6 DUP4 GT ISZERO PUSH2 0x3C83 JUMPI PUSH1 0x0 DUP1 REVERT JUMPDEST PUSH1 0x20 DUP6 ADD JUMPDEST DUP4 DUP2 LT ISZERO PUSH2 0x10D7 JUMPI PUSH2 0x3C99 DUP2 PUSH2 0x3AA2 JUMP JUMPDEST DUP4 MSTORE PUSH1 0x20 SWAP3 DUP4 ADD SWAP3 ADD PUSH2 0x3C88 JUMP JUMPDEST PUSH1 0x0 DUP3 PUSH1 0x1F DUP4 ADD SLT PUSH2 0x3CB8 JUMPI PUSH1 0x0 DUP1 REVERT JUMPDEST DUP2 CALLDATALOAD PUSH2 0x3CC6 PUSH2 0x3C5C DUP3 PUSH2 0x3C1A JUMP JUMPDEST DUP1 DUP3 DUP3 MSTORE PUSH1 0x20 DUP3 ADD SWAP2 POP PUSH1 0x20 DUP4 PUSH1 0x5 SHL DUP7 ADD ADD SWAP3 POP DUP6 DUP4 GT ISZERO PUSH2 0x3CE8 JUMPI PUSH1 0x0 DUP1 REVERT JUMPDEST PUSH1 0x20 DUP6 ADD JUMPDEST DUP4 DUP2 LT ISZERO PUSH2 0x10D7 JUMPI DUP1 CALLDATALOAD DUP4 MSTORE PUSH1 0x20 SWAP3 DUP4 ADD SWAP3 ADD PUSH2 0x3CED JUMP JUMPDEST PUSH1 0x0 DUP3 PUSH1 0x1F DUP4 ADD SLT PUSH2 0x3D16 JUMPI PUSH1 0x0 DUP1 REVERT JUMPDEST DUP2 CALLDATALOAD PUSH2 0x3D24 PUSH2 0x3C5C DUP3 PUSH2 0x3C1A JUMP JUMPDEST DUP1 DUP3 DUP3 MSTORE PUSH1 0x20 DUP3 ADD SWAP2 POP PUSH1 0x20 DUP4 PUSH1 0x5 SHL DUP7 ADD ADD SWAP3 POP DUP6 DUP4 GT ISZERO PUSH2 0x3D46 JUMPI PUSH1 0x0 DUP1 REVERT JUMPDEST PUSH1 0x20 DUP6 ADD JUMPDEST DUP4 DUP2 LT ISZERO PUSH2 0x10D7 JUMPI DUP1 CALLDATALOAD PUSH1 0x1 PUSH1 0x1 PUSH1 0x40 SHL SUB DUP2 GT ISZERO PUSH2 0x3D69 JUMPI PUSH1 0x0 DUP1 REVERT JUMPDEST PUSH2 0x3D78 DUP9 PUSH1 0x20 DUP4 DUP11 ADD ADD PUSH2 0x3B93 JUMP JUMPDEST DUP5 MSTORE POP PUSH1 0x20 SWAP3 DUP4 ADD SWAP3 ADD PUSH2 0x3D4B JUMP JUMPDEST PUSH1 0x0 DUP1 PUSH1 0x0 DUP1 PUSH1 0x80 DUP6 DUP8 SUB SLT ISZERO PUSH2 0x3D9D JUMPI PUSH1 0x0 DUP1 REVERT JUMPDEST DUP5 CALLDATALOAD PUSH1 0x1 PUSH1 0x1 PUSH1 0x40 SHL SUB DUP2 GT ISZERO PUSH2 0x3DB3 JUMPI PUSH1 0x0 DUP1 REVERT JUMPDEST PUSH2 0x3DBF DUP8 DUP3 DUP9 ADD PUSH2 0x3C3D JUMP JUMPDEST SWAP5 POP POP PUSH1 0x20 DUP6 ADD CALLDATALOAD PUSH1 0x1 PUSH1 0x1 PUSH1 0x40 SHL SUB DUP2 GT ISZERO PUSH2 0x3DDB JUMPI PUSH1 0x0 DUP1 REVERT JUMPDEST PUSH2 0x3DE7 DUP8 DUP3 DUP9 ADD PUSH2 0x3CA7 JUMP JUMPDEST SWAP4 POP POP PUSH1 0x40 DUP6 ADD CALLDATALOAD PUSH1 0x1 PUSH1 0x1 PUSH1 0x40 SHL SUB DUP2 GT ISZERO PUSH2 0x3E03 JUMPI PUSH1 0x0 DUP1 REVERT JUMPDEST PUSH2 0x3E0F DUP8 DUP3 DUP9 ADD PUSH2 0x3D05 JUMP JUMPDEST SWAP5 SWAP8 SWAP4 SWAP7 POP SWAP4 SWAP5 PUSH1 0x60 ADD CALLDATALOAD SWAP4 POP POP POP JUMP JUMPDEST PUSH4 0x4E487B71 PUSH1 0xE0 SHL PUSH1 0x0 MSTORE PUSH1 0x21 PUSH1 0x4 MSTORE PUSH1 0x24 PUSH1 0x0 REVERT JUMPDEST PUSH1 0x8 DUP2 LT PUSH2 0x3E54 JUMPI PUSH4 0x4E487B71 PUSH1 0xE0 SHL PUSH1 0x0 MSTORE PUSH1 0x21 PUSH1 0x4 MSTORE PUSH1 0x24 PUSH1 0x0 REVERT JUMPDEST SWAP1 MSTORE JUMP JUMPDEST PUSH1 0x20 DUP2 ADD PUSH2 0xFFA DUP3 DUP5 PUSH2 0x3E36 JUMP JUMPDEST PUSH1 0x0 DUP1 PUSH1 0x40 DUP4 DUP6 SUB SLT ISZERO PUSH2 0x3E79 JUMPI PUSH1 0x0 DUP1 REVERT JUMPDEST DUP3 CALLDATALOAD SWAP2 POP PUSH2 0x3E89 PUSH1 0x20 DUP5 ADD PUSH2 0x3AA2 JUMP JUMPDEST SWAP1 POP SWAP3 POP SWAP3 SWAP1 POP JUMP JUMPDEST DUP1 CALLDATALOAD PUSH1 0xFF DUP2 AND DUP2 EQ PUSH2 0x3AB9 JUMPI PUSH1 0x0 DUP1 REVERT JUMPDEST PUSH1 0x0 DUP1 PUSH1 0x40 DUP4 DUP6 SUB SLT ISZERO PUSH2 0x3EB6 JUMPI PUSH1 0x0 DUP1 REVERT JUMPDEST DUP3 CALLDATALOAD SWAP2 POP PUSH2 0x3E89 PUSH1 0x20 DUP5 ADD PUSH2 0x3E92 JUMP JUMPDEST PUSH1 0x0 DUP1 DUP4 PUSH1 0x1F DUP5 ADD SLT PUSH2 0x3ED8 JUMPI PUSH1 0x0 DUP1 REVERT JUMPDEST POP DUP2 CALLDATALOAD PUSH1 0x1 PUSH1 0x1 PUSH1 0x40 SHL SUB DUP2 GT ISZERO PUSH2 0x3EEF JUMPI PUSH1 0x0 DUP1 REVERT JUMPDEST PUSH1 0x20 DUP4 ADD SWAP2 POP DUP4 PUSH1 0x20 DUP3 DUP6 ADD ADD GT ISZERO PUSH2 0x3F07 JUMPI PUSH1 0x0 DUP1 REVERT JUMPDEST SWAP3 POP SWAP3 SWAP1 POP JUMP JUMPDEST PUSH1 0x0 DUP1 PUSH1 0x0 DUP1 PUSH1 0x0 DUP1 PUSH1 0x0 PUSH1 0xC0 DUP9 DUP11 SUB SLT ISZERO PUSH2 0x3F29 JUMPI PUSH1 0x0 DUP1 REVERT JUMPDEST DUP8 CALLDATALOAD SWAP7 POP PUSH2 0x3F39 PUSH1 0x20 DUP10 ADD PUSH2 0x3E92 JUMP JUMPDEST SWAP6 POP PUSH2 0x3F47 PUSH1 0x40 DUP10 ADD PUSH2 0x3AA2 JUMP JUMPDEST SWAP5 POP PUSH1 0x60 DUP9 ADD CALLDATALOAD PUSH1 0x1 PUSH1 0x1 PUSH1 0x40 SHL SUB DUP2 GT ISZERO PUSH2 0x3F62 JUMPI PUSH1 0x0 DUP1 REVERT JUMPDEST PUSH2 0x3F6E DUP11 DUP3 DUP12 ADD PUSH2 0x3EC6 JUMP JUMPDEST SWAP1 SWAP6 POP SWAP4 POP POP PUSH1 0x80 DUP9 ADD CALLDATALOAD PUSH1 0x1 PUSH1 0x1 PUSH1 0x40 SHL SUB DUP2 GT ISZERO PUSH2 0x3F8D JUMPI PUSH1 0x0 DUP1 REVERT JUMPDEST PUSH2 0x3F99 DUP11 DUP3 DUP12 ADD PUSH2 0x3B93 JUMP JUMPDEST SWAP3 POP POP PUSH1 0xA0 DUP9 ADD CALLDATALOAD PUSH1 0x1 PUSH1 0x1 PUSH1 0x40 SHL SUB DUP2 GT ISZERO PUSH2 0x3FB5 JUMPI PUSH1 0x0 DUP1 REVERT JUMPDEST PUSH2 0x3FC1 DUP11 DUP3 DUP12 ADD PUSH2 0x3B93 JUMP JUMPDEST SWAP2 POP POP SWAP3 SWAP6 SWAP9 SWAP2 SWAP5 SWAP8 POP SWAP3 SWAP6 POP JUMP JUMPDEST PUSH1 0x0 DUP1 PUSH1 0x0 DUP1 PUSH1 0x0 PUSH1 0x80 DUP7 DUP9 SUB SLT ISZERO PUSH2 0x3FE8 JUMPI PUSH1 0x0 DUP1 REVERT JUMPDEST DUP6 CALLDATALOAD SWAP5 POP PUSH2 0x3FF8 PUSH1 0x20 DUP8 ADD PUSH2 0x3E92 JUMP JUMPDEST SWAP4 POP PUSH1 0x40 DUP7 ADD CALLDATALOAD PUSH1 0x1 PUSH1 0x1 PUSH1 0x40 SHL SUB DUP2 GT ISZERO PUSH2 0x4013 JUMPI PUSH1 0x0 DUP1 REVERT JUMPDEST PUSH2 0x401F DUP9 DUP3 DUP10 ADD PUSH2 0x3EC6 JUMP JUMPDEST SWAP1 SWAP5 POP SWAP3 POP POP PUSH1 0x60 DUP7 ADD CALLDATALOAD PUSH1 0x1 PUSH1 0x1 PUSH1 0x40 SHL SUB DUP2 GT ISZERO PUSH2 0x403E JUMPI PUSH1 0x0 DUP1 REVERT JUMPDEST PUSH2 0x404A DUP9 DUP3 DUP10 ADD PUSH2 0x3B93 JUMP JUMPDEST SWAP2 POP POP SWAP3 SWAP6 POP SWAP3 SWAP6 SWAP1 SWAP4 POP JUMP JUMPDEST PUSH1 0x0 DUP1 PUSH1 0x40 DUP4 DUP6 SUB SLT ISZERO PUSH2 0x406A JUMPI PUSH1 0x0 DUP1 REVERT JUMPDEST PUSH2 0x4073 DUP4 PUSH2 0x3AA2 JUMP JUMPDEST SWAP5 PUSH1 0x20 SWAP4 SWAP1 SWAP4 ADD CALLDATALOAD SWAP4 POP POP POP JUMP JUMPDEST PUSH1 0x0 DUP2 MLOAD DUP1 DUP5 MSTORE PUSH1 0x20 DUP5 ADD SWAP4 POP PUSH1 0x20 DUP4 ADD PUSH1 0x0 JUMPDEST DUP3 DUP2 LT ISZERO PUSH2 0x40BC JUMPI DUP2 MLOAD PUSH1 0x1 PUSH1 0x1 PUSH1 0xA0 SHL SUB AND DUP7 MSTORE PUSH1 0x20 SWAP6 DUP7 ADD SWAP6 SWAP1 SWAP2 ADD SWAP1 PUSH1 0x1 ADD PUSH2 0x4095 JUMP JUMPDEST POP SWAP4 SWAP5 SWAP4 POP POP POP POP JUMP JUMPDEST PUSH1 0x20 DUP2 MSTORE PUSH1 0x0 PUSH2 0x1616 PUSH1 0x20 DUP4 ADD DUP5 PUSH2 0x4081 JUMP JUMPDEST PUSH1 0x0 DUP2 MLOAD DUP1 DUP5 MSTORE PUSH1 0x20 DUP5 ADD SWAP4 POP PUSH1 0x20 DUP4 ADD PUSH1 0x0 JUMPDEST DUP3 DUP2 LT ISZERO PUSH2 0x40BC JUMPI DUP2 MLOAD DUP7 MSTORE PUSH1 0x20 SWAP6 DUP7 ADD SWAP6 SWAP1 SWAP2 ADD SWAP1 PUSH1 0x1 ADD PUSH2 0x40ED JUMP JUMPDEST PUSH1 0x40 DUP2 MSTORE PUSH1 0x0 PUSH2 0x411E PUSH1 0x40 DUP4 ADD DUP6 PUSH2 0x40D9 JUMP JUMPDEST DUP3 DUP2 SUB PUSH1 0x20 DUP5 ADD MSTORE DUP1 DUP5 MLOAD DUP1 DUP4 MSTORE PUSH1 0x20 DUP4 ADD SWAP2 POP PUSH1 0x20 DUP7 ADD SWAP3 POP PUSH1 0x0 JUMPDEST DUP2 DUP2 LT ISZERO PUSH2 0x4161 JUMPI PUSH2 0x414E DUP4 DUP6 MLOAD PUSH2 0x3E36 JUMP JUMPDEST PUSH1 0x20 SWAP4 DUP5 ADD SWAP4 SWAP3 SWAP1 SWAP3 ADD SWAP2 PUSH1 0x1 ADD PUSH2 0x413B JUMP JUMPDEST POP SWAP1 SWAP7 SWAP6 POP POP POP POP POP POP JUMP JUMPDEST PUSH1 0x0 PUSH1 0x20 DUP3 DUP5 SUB SLT ISZERO PUSH2 0x417F JUMPI PUSH1 0x0 DUP1 REVERT JUMPDEST DUP2 CALLDATALOAD PUSH6 0xFFFFFFFFFFFF DUP2 AND DUP2 EQ PUSH2 0x1616 JUMPI PUSH1 0x0 DUP1 REVERT JUMPDEST PUSH1 0x0 DUP1 PUSH1 0x40 DUP4 DUP6 SUB SLT ISZERO PUSH2 0x41A8 JUMPI PUSH1 0x0 DUP1 REVERT JUMPDEST POP POP DUP1 CALLDATALOAD SWAP3 PUSH1 0x20 SWAP1 SWAP2 ADD CALLDATALOAD SWAP2 POP JUMP JUMPDEST PUSH1 0x0 DUP1 PUSH1 0x0 DUP1 PUSH1 0x60 DUP6 DUP8 SUB SLT ISZERO PUSH2 0x41CD JUMPI PUSH1 0x0 DUP1 REVERT JUMPDEST DUP5 CALLDATALOAD SWAP4 POP PUSH2 0x41DD PUSH1 0x20 DUP7 ADD PUSH2 0x3E92 JUMP JUMPDEST SWAP3 POP PUSH1 0x40 DUP6 ADD CALLDATALOAD PUSH1 0x1 PUSH1 0x1 PUSH1 0x40 SHL SUB DUP2 GT ISZERO PUSH2 0x41F8 JUMPI PUSH1 0x0 DUP1 REVERT JUMPDEST PUSH2 0x4204 DUP8 DUP3 DUP9 ADD PUSH2 0x3EC6 JUMP JUMPDEST SWAP6 SWAP9 SWAP5 SWAP8 POP SWAP6 POP POP POP POP JUMP JUMPDEST PUSH1 0x0 DUP1 PUSH1 0x0 DUP1 PUSH1 0x80 DUP6 DUP8 SUB SLT ISZERO PUSH2 0x4226 JUMPI PUSH1 0x0 DUP1 REVERT JUMPDEST DUP5 CALLDATALOAD PUSH1 0x1 PUSH1 0x1 PUSH1 0x40 SHL SUB DUP2 GT ISZERO PUSH2 0x423C JUMPI PUSH1 0x0 DUP1 REVERT JUMPDEST PUSH2 0x4248 DUP8 DUP3 DUP9 ADD PUSH2 0x3C3D JUMP JUMPDEST SWAP5 POP POP PUSH1 0x20 DUP6 ADD CALLDATALOAD PUSH1 0x1 PUSH1 0x1 PUSH1 0x40 SHL SUB DUP2 GT ISZERO PUSH2 0x4264 JUMPI PUSH1 0x0 DUP1 REVERT JUMPDEST PUSH2 0x4270 DUP8 DUP3 DUP9 ADD PUSH2 0x3CA7 JUMP JUMPDEST SWAP4 POP POP PUSH1 0x40 DUP6 ADD CALLDATALOAD PUSH1 0x1 PUSH1 0x1 PUSH1 0x40 SHL SUB DUP2 GT ISZERO PUSH2 0x428C JUMPI PUSH1 0x0 DUP1 REVERT JUMPDEST PUSH2 0x4298 DUP8 DUP3 DUP9 ADD PUSH2 0x3D05 JUMP JUMPDEST SWAP3 POP POP PUSH1 0x60 DUP6 ADD CALLDATALOAD PUSH1 0x1 PUSH1 0x1 PUSH1 0x40 SHL SUB DUP2 GT ISZERO PUSH2 0x42B4 JUMPI PUSH1 0x0 DUP1 REVERT JUMPDEST DUP6 ADD PUSH1 0x1F DUP2 ADD DUP8 SGT PUSH2 0x42C5 JUMPI PUSH1 0x0 DUP1 REVERT JUMPDEST PUSH2 0x3C0E DUP8 DUP3 CALLDATALOAD PUSH1 0x20 DUP5 ADD PUSH2 0x3B38 JUMP JUMPDEST PUSH1 0xFF PUSH1 0xF8 SHL DUP9 AND DUP2 MSTORE PUSH1 0xE0 PUSH1 0x20 DUP3 ADD MSTORE PUSH1 0x0 PUSH2 0x42F3 PUSH1 0xE0 DUP4 ADD DUP10 PUSH2 0x3A63 JUMP JUMPDEST DUP3 DUP2 SUB PUSH1 0x40 DUP5 ADD MSTORE PUSH2 0x4305 DUP2 DUP10 PUSH2 0x3A63 JUMP JUMPDEST PUSH1 0x60 DUP5 ADD DUP9 SWAP1 MSTORE PUSH1 0x1 PUSH1 0x1 PUSH1 0xA0 SHL SUB DUP8 AND PUSH1 0x80 DUP6 ADD MSTORE PUSH1 0xA0 DUP5 ADD DUP7 SWAP1 MSTORE DUP4 DUP2 SUB PUSH1 0xC0 DUP6 ADD MSTORE SWAP1 POP PUSH2 0x4336 DUP2 DUP6 PUSH2 0x40D9 JUMP JUMPDEST SWAP11 SWAP10 POP POP POP POP POP POP POP POP POP POP JUMP JUMPDEST PUSH1 0x0 DUP1 PUSH1 0x0 DUP1 PUSH1 0x80 DUP6 DUP8 SUB SLT ISZERO PUSH2 0x435A JUMPI PUSH1 0x0 DUP1 REVERT JUMPDEST DUP5 CALLDATALOAD SWAP4 POP PUSH2 0x436A PUSH1 0x20 DUP7 ADD PUSH2 0x3E92 JUMP JUMPDEST SWAP3 POP PUSH2 0x4378 PUSH1 0x40 DUP7 ADD PUSH2 0x3AA2 JUMP JUMPDEST SWAP2 POP PUSH1 0x60 DUP6 ADD CALLDATALOAD PUSH1 0x1 PUSH1 0x1 PUSH1 0x40 SHL SUB DUP2 GT ISZERO PUSH2 0x3C02 JUMPI PUSH1 0x0 DUP1 REVERT JUMPDEST PUSH1 0x0 DUP1 PUSH1 0x0 PUSH1 0x60 DUP5 DUP7 SUB SLT ISZERO PUSH2 0x43A8 JUMPI PUSH1 0x0 DUP1 REVERT JUMPDEST PUSH2 0x43B1 DUP5 PUSH2 0x3AA2 JUMP JUMPDEST SWAP3 POP PUSH1 0x20 DUP5 ADD CALLDATALOAD SWAP2 POP PUSH1 0x40 DUP5 ADD CALLDATALOAD PUSH1 0x1 PUSH1 0x1 PUSH1 0x40 SHL SUB DUP2 GT ISZERO PUSH2 0x43D3 JUMPI PUSH1 0x0 DUP1 REVERT JUMPDEST PUSH2 0x43DF DUP7 DUP3 DUP8 ADD PUSH2 0x3B93 JUMP JUMPDEST SWAP2 POP POP SWAP3 POP SWAP3 POP SWAP3 JUMP JUMPDEST PUSH1 0x0 DUP1 PUSH1 0x0 PUSH1 0x60 DUP5 DUP7 SUB SLT ISZERO PUSH2 0x43FE JUMPI PUSH1 0x0 DUP1 REVERT JUMPDEST PUSH2 0x4407 DUP5 PUSH2 0x3AA2 JUMP JUMPDEST SWAP6 PUSH1 0x20 DUP6 ADD CALLDATALOAD SWAP6 POP PUSH1 0x40 SWAP1 SWAP5 ADD CALLDATALOAD SWAP4 SWAP3 POP POP POP JUMP JUMPDEST PUSH1 0x0 DUP1 PUSH1 0x0 DUP1 PUSH1 0x0 PUSH1 0xA0 DUP7 DUP9 SUB SLT ISZERO PUSH2 0x4434 JUMPI PUSH1 0x0 DUP1 REVERT JUMPDEST PUSH2 0x443D DUP7 PUSH2 0x3AA2 JUMP JUMPDEST SWAP5 POP PUSH2 0x444B PUSH1 0x20 DUP8 ADD PUSH2 0x3AA2 JUMP JUMPDEST SWAP4 POP PUSH1 0x40 DUP7 ADD CALLDATALOAD PUSH1 0x1 PUSH1 0x1 PUSH1 0x40 SHL SUB DUP2 GT ISZERO PUSH2 0x4466 JUMPI PUSH1 0x0 DUP1 REVERT JUMPDEST PUSH2 0x4472 DUP9 DUP3 DUP10 ADD PUSH2 0x3CA7 JUMP JUMPDEST SWAP4 POP POP PUSH1 0x60 DUP7 ADD CALLDATALOAD PUSH1 0x1 PUSH1 0x1 PUSH1 0x40 SHL SUB DUP2 GT ISZERO PUSH2 0x448E JUMPI PUSH1 0x0 DUP1 REVERT JUMPDEST PUSH2 0x449A DUP9 DUP3 DUP10 ADD PUSH2 0x3CA7 JUMP JUMPDEST SWAP3 POP POP PUSH1 0x80 DUP7 ADD CALLDATALOAD PUSH1 0x1 PUSH1 0x1 PUSH1 0x40 SHL SUB DUP2 GT ISZERO PUSH2 0x403E JUMPI PUSH1 0x0 DUP1 REVERT JUMPDEST PUSH1 0x0 DUP1 PUSH1 0x0 DUP1 PUSH1 0x60 DUP6 DUP8 SUB SLT ISZERO PUSH2 0x44CC JUMPI PUSH1 0x0 DUP1 REVERT JUMPDEST PUSH2 0x44D5 DUP6 PUSH2 0x3AA2 JUMP JUMPDEST SWAP4 POP PUSH1 0x20 DUP6 ADD CALLDATALOAD SWAP3 POP PUSH1 0x40 DUP6 ADD CALLDATALOAD PUSH1 0x1 PUSH1 0x1 PUSH1 0x40 SHL SUB DUP2 GT ISZERO PUSH2 0x41F8 JUMPI PUSH1 0x0 DUP1 REVERT JUMPDEST PUSH1 0x0 PUSH1 0x20 DUP3 DUP5 SUB SLT ISZERO PUSH2 0x4509 JUMPI PUSH1 0x0 DUP1 REVERT JUMPDEST DUP2 CALLDATALOAD PUSH4 0xFFFFFFFF DUP2 AND DUP2 EQ PUSH2 0x1616 JUMPI PUSH1 0x0 DUP1 REVERT JUMPDEST PUSH1 0x0 DUP1 PUSH1 0x0 DUP1 PUSH1 0x0 PUSH1 0xA0 DUP7 DUP9 SUB SLT ISZERO PUSH2 0x4535 JUMPI PUSH1 0x0 DUP1 REVERT JUMPDEST PUSH2 0x453E DUP7 PUSH2 0x3AA2 JUMP JUMPDEST SWAP5 POP PUSH2 0x454C PUSH1 0x20 DUP8 ADD PUSH2 0x3AA2 JUMP JUMPDEST SWAP4 POP PUSH1 0x40 DUP7 ADD CALLDATALOAD SWAP3 POP PUSH1 0x60 DUP7 ADD CALLDATALOAD SWAP2 POP PUSH1 0x80 DUP7 ADD CALLDATALOAD PUSH1 0x1 PUSH1 0x1 PUSH1 0x40 SHL SUB DUP2 GT ISZERO PUSH2 0x403E JUMPI PUSH1 0x0 DUP1 REVERT JUMPDEST PUSH1 0x1 DUP2 DUP2 SHR SWAP1 DUP3 AND DUP1 PUSH2 0x4589 JUMPI PUSH1 0x7F DUP3 AND SWAP2 POP JUMPDEST PUSH1 0x20 DUP3 LT DUP2 SUB PUSH2 0x45A9 JUMPI PUSH4 0x4E487B71 PUSH1 0xE0 SHL PUSH1 0x0 MSTORE PUSH1 0x22 PUSH1 0x4 MSTORE PUSH1 0x24 PUSH1 0x0 REVERT JUMPDEST POP SWAP2 SWAP1 POP JUMP JUMPDEST PUSH4 0x4E487B71 PUSH1 0xE0 SHL PUSH1 0x0 MSTORE PUSH1 0x32 PUSH1 0x4 MSTORE PUSH1 0x24 PUSH1 0x0 REVERT JUMPDEST PUSH4 0x4E487B71 PUSH1 0xE0 SHL PUSH1 0x0 MSTORE PUSH1 0x11 PUSH1 0x4 MSTORE PUSH1 0x24 PUSH1 0x0 REVERT JUMPDEST DUP1 DUP3 ADD DUP1 DUP3 GT ISZERO PUSH2 0xFFA JUMPI PUSH2 0xFFA PUSH2 0x45C5 JUMP JUMPDEST PUSH1 0x0 PUSH1 0x20 DUP3 DUP5 SUB SLT ISZERO PUSH2 0x4600 JUMPI PUSH1 0x0 DUP1 REVERT JUMPDEST DUP2 MLOAD DUP1 ISZERO ISZERO DUP2 EQ PUSH2 0x1616 JUMPI PUSH1 0x0 DUP1 REVERT JUMPDEST DUP2 DUP4 DUP3 CALLDATACOPY PUSH1 0x0 SWAP2 ADD SWAP1 DUP2 MSTORE SWAP2 SWAP1 POP JUMP JUMPDEST DUP1 DUP3 MUL DUP2 ISZERO DUP3 DUP3 DIV DUP5 EQ OR PUSH2 0xFFA JUMPI PUSH2 0xFFA PUSH2 0x45C5 JUMP JUMPDEST DUP2 DUP2 SUB DUP2 DUP2 GT ISZERO PUSH2 0xFFA JUMPI PUSH2 0xFFA PUSH2 0x45C5 JUMP JUMPDEST PUSH1 0x0 PUSH1 0x1 DUP3 ADD PUSH2 0x465C JUMPI PUSH2 0x465C PUSH2 0x45C5 JUMP JUMPDEST POP PUSH1 0x1 ADD SWAP1 JUMP JUMPDEST PUSH6 0xFFFFFFFFFFFF DUP2 DUP2 AND DUP4 DUP3 AND ADD SWAP1 DUP2 GT ISZERO PUSH2 0xFFA JUMPI PUSH2 0xFFA PUSH2 0x45C5 JUMP JUMPDEST PUSH1 0x0 DUP3 DUP3 MLOAD DUP1 DUP6 MSTORE PUSH1 0x20 DUP6 ADD SWAP5 POP PUSH1 0x20 DUP2 PUSH1 0x5 SHL DUP4 ADD ADD PUSH1 0x20 DUP6 ADD PUSH1 0x0 JUMPDEST DUP4 DUP2 LT ISZERO PUSH2 0x4161 JUMPI PUSH1 0x1F NOT DUP6 DUP5 SUB ADD DUP9 MSTORE PUSH2 0x46BB DUP4 DUP4 MLOAD PUSH2 0x3A63 JUMP JUMPDEST PUSH1 0x20 SWAP9 DUP10 ADD SWAP9 SWAP1 SWAP4 POP SWAP2 SWAP1 SWAP2 ADD SWAP1 PUSH1 0x1 ADD PUSH2 0x469F JUMP JUMPDEST PUSH1 0x80 DUP2 MSTORE PUSH1 0x0 PUSH2 0x46E4 PUSH1 0x80 DUP4 ADD DUP8 PUSH2 0x4081 JUMP JUMPDEST DUP3 DUP2 SUB PUSH1 0x20 DUP5 ADD MSTORE PUSH2 0x46F6 DUP2 DUP8 PUSH2 0x40D9 JUMP JUMPDEST SWAP1 POP DUP3 DUP2 SUB PUSH1 0x40 DUP5 ADD MSTORE PUSH2 0x470A DUP2 DUP7 PUSH2 0x4681 JUMP JUMPDEST SWAP2 POP POP DUP3 PUSH1 0x60 DUP4 ADD MSTORE SWAP6 SWAP5 POP POP POP POP POP JUMP JUMPDEST DUP4 DUP2 MSTORE PUSH1 0x60 DUP2 ADD PUSH2 0x4730 PUSH1 0x20 DUP4 ADD DUP6 PUSH2 0x3E36 JUMP JUMPDEST DUP3 PUSH1 0x40 DUP4 ADD MSTORE SWAP5 SWAP4 POP POP POP POP JUMP JUMPDEST PUSH1 0x0 DUP3 MLOAD PUSH2 0x4750 DUP2 DUP5 PUSH1 0x20 DUP8 ADD PUSH2 0x3A3F JUMP JUMPDEST SWAP2 SWAP1 SWAP2 ADD SWAP3 SWAP2 POP POP JUMP JUMPDEST PUSH1 0xFF DUP2 DUP2 AND DUP4 DUP3 AND ADD SWAP1 DUP2 GT ISZERO PUSH2 0xFFA JUMPI PUSH2 0xFFA PUSH2 0x45C5 JUMP JUMPDEST PUSH1 0x1 DUP2 JUMPDEST PUSH1 0x1 DUP5 GT ISZERO PUSH2 0x37FF JUMPI DUP1 DUP6 DIV DUP2 GT ISZERO PUSH2 0x4792 JUMPI PUSH2 0x4792 PUSH2 0x45C5 JUMP JUMPDEST PUSH1 0x1 DUP5 AND ISZERO PUSH2 0x47A0 JUMPI SWAP1 DUP2 MUL SWAP1 JUMPDEST PUSH1 0x1 SWAP4 SWAP1 SWAP4 SHR SWAP3 DUP1 MUL PUSH2 0x4777 JUMP JUMPDEST PUSH1 0x0 DUP3 PUSH2 0x47BD JUMPI POP PUSH1 0x1 PUSH2 0xFFA JUMP JUMPDEST DUP2 PUSH2 0x47CA JUMPI POP PUSH1 0x0 PUSH2 0xFFA JUMP JUMPDEST DUP2 PUSH1 0x1 DUP2 EQ PUSH2 0x47E0 JUMPI PUSH1 0x2 DUP2 EQ PUSH2 0x47EA JUMPI PUSH2 0x4806 JUMP JUMPDEST PUSH1 0x1 SWAP2 POP POP PUSH2 0xFFA JUMP JUMPDEST PUSH1 0xFF DUP5 GT ISZERO PUSH2 0x47FB JUMPI PUSH2 0x47FB PUSH2 0x45C5 JUMP JUMPDEST POP POP PUSH1 0x1 DUP3 SHL PUSH2 0xFFA JUMP JUMPDEST POP PUSH1 0x20 DUP4 LT PUSH2 0x133 DUP4 LT AND PUSH1 0x4E DUP5 LT PUSH1 0xB DUP5 LT AND OR ISZERO PUSH2 0x4829 JUMPI POP DUP2 DUP2 EXP PUSH2 0xFFA JUMP JUMPDEST PUSH2 0x4836 PUSH1 0x0 NOT DUP5 DUP5 PUSH2 0x4773 JUMP JUMPDEST DUP1 PUSH1 0x0 NOT DIV DUP3 GT ISZERO PUSH2 0x484A JUMPI PUSH2 0x484A PUSH2 0x45C5 JUMP JUMPDEST MUL SWAP4 SWAP3 POP POP POP JUMP JUMPDEST PUSH1 0x0 PUSH2 0x1616 PUSH1 0xFF DUP5 AND DUP4 PUSH2 0x47AE JUMP JUMPDEST PUSH6 0xFFFFFFFFFFFF DUP3 DUP2 AND DUP3 DUP3 AND SUB SWAP1 DUP2 GT ISZERO PUSH2 0xFFA JUMPI PUSH2 0xFFA PUSH2 0x45C5 JUMP JUMPDEST DUP3 DUP2 MSTORE PUSH1 0x40 PUSH1 0x20 DUP3 ADD MSTORE PUSH1 0x0 PUSH2 0x16A0 PUSH1 0x40 DUP4 ADD DUP5 PUSH2 0x3A63 JUMP JUMPDEST PUSH1 0x0 PUSH1 0x20 DUP3 DUP5 SUB SLT ISZERO PUSH2 0x48AA JUMPI PUSH1 0x0 DUP1 REVERT JUMPDEST POP MLOAD SWAP2 SWAP1 POP JUMP JUMPDEST DUP5 DUP2 MSTORE PUSH1 0xFF DUP5 AND PUSH1 0x20 DUP3 ADD MSTORE DUP3 PUSH1 0x40 DUP3 ADD MSTORE PUSH1 0x80 PUSH1 0x60 DUP3 ADD MSTORE PUSH1 0x0 PUSH2 0x20BC PUSH1 0x80 DUP4 ADD DUP5 PUSH2 0x3A63 JUMP JUMPDEST DUP6 DUP2 MSTORE PUSH1 0xFF DUP6 AND PUSH1 0x20 DUP3 ADD MSTORE DUP4 PUSH1 0x40 DUP3 ADD MSTORE PUSH1 0xA0 PUSH1 0x60 DUP3 ADD MSTORE PUSH1 0x0 PUSH2 0x4901 PUSH1 0xA0 DUP4 ADD DUP6 PUSH2 0x3A63 JUMP JUMPDEST DUP3 DUP2 SUB PUSH1 0x80 DUP5 ADD MSTORE PUSH2 0x4913 DUP2 DUP6 PUSH2 0x3A63 JUMP JUMPDEST SWAP9 SWAP8 POP POP POP POP POP POP POP POP JUMP JUMPDEST DUP10 DUP2 MSTORE PUSH1 0x1 PUSH1 0x1 PUSH1 0xA0 SHL SUB DUP10 AND PUSH1 0x20 DUP3 ADD MSTORE PUSH2 0x120 PUSH1 0x40 DUP3 ADD DUP2 SWAP1 MSTORE PUSH1 0x0 SWAP1 PUSH2 0x494A SWAP1 DUP4 ADD DUP11 PUSH2 0x4081 JUMP JUMPDEST DUP3 DUP2 SUB PUSH1 0x60 DUP5 ADD MSTORE PUSH2 0x495C DUP2 DUP11 PUSH2 0x40D9 JUMP JUMPDEST SWAP1 POP DUP3 DUP2 SUB PUSH1 0x80 DUP5 ADD MSTORE DUP1 DUP9 MLOAD DUP1 DUP4 MSTORE PUSH1 0x20 DUP4 ADD SWAP2 POP PUSH1 0x20 DUP2 PUSH1 0x5 SHL DUP5 ADD ADD PUSH1 0x20 DUP12 ADD PUSH1 0x0 JUMPDEST DUP4 DUP2 LT ISZERO PUSH2 0x49B4 JUMPI PUSH1 0x1F NOT DUP7 DUP5 SUB ADD DUP6 MSTORE PUSH2 0x499E DUP4 DUP4 MLOAD PUSH2 0x3A63 JUMP JUMPDEST PUSH1 0x20 SWAP6 DUP7 ADD SWAP6 SWAP1 SWAP4 POP SWAP2 SWAP1 SWAP2 ADD SWAP1 PUSH1 0x1 ADD PUSH2 0x4982 JUMP JUMPDEST POP POP DUP6 DUP2 SUB PUSH1 0xA0 DUP8 ADD MSTORE PUSH2 0x49C8 DUP2 DUP12 PUSH2 0x4681 JUMP JUMPDEST SWAP4 POP POP POP POP DUP6 PUSH1 0xC0 DUP5 ADD MSTORE DUP5 PUSH1 0xE0 DUP5 ADD MSTORE DUP3 DUP2 SUB PUSH2 0x100 DUP5 ADD MSTORE PUSH2 0x49EC DUP2 DUP6 PUSH2 0x3A63 JUMP JUMPDEST SWAP13 SWAP12 POP POP POP POP POP POP POP POP POP POP POP POP JUMP INVALID LOG2 PUSH5 0x6970667358 0x22 SLT KECCAK256 CREATE 0xC2 0x1F 0xD4 0x4C PUSH3 0x2003D2 INVALID 0xDB 0xA5 TIMESTAMP 0x2A DUP15 0xB9 EXP 0xD9 DUP14 DUP12 DIV 0xB0 0xB5 PUSH12 0x9E4C16CE058D301E64736F6C PUSH4 0x4300081C STOP CALLER "
		},
		"gasEstimates": {
			"creation": {
				"codeDepositCost": "3798800",
				"executionCost": "infinite",
				"totalCost": "infinite"
			},
			"external": {
				"BALLOT_TYPEHASH()": "262",
				"CLOCK_MODE()": "infinite",
				"COUNTING_MODE()": "infinite",
				"EXTENDED_BALLOT_TYPEHASH()": "308",
				"MIN_STAKE()": "306",
				"addOrUpdateEarner(address,uint256,uint256)": "70894",
				"allStakers(uint256)": "4681",
				"cancel(address[],uint256[],bytes[],bytes32)": "infinite",
				"castVote(uint256,uint8)": "infinite",
				"castVoteBySig(uint256,uint8,address,bytes)": "infinite",
				"castVoteWithReason(uint256,uint8,string)": "infinite",
				"castVoteWithReasonAndParams(uint256,uint8,string,bytes)": "infinite",
				"castVoteWithReasonAndParamsBySig(uint256,uint8,address,string,bytes,bytes)": "infinite",
				"clock()": "294",
				"delegate(address)": "infinite",
				"delegatedVotingPower(address)": "2673",
				"delegates(address)": "2670",
				"earners(address)": "6972",
				"eip712Domain()": "infinite",
				"execute(address[],uint256[],bytes[],bytes32)": "infinite",
				"getActiveProposalIds()": "infinite",
				"getAllProposalIds()": "infinite",
				"getAllStakers()": "infinite",
				"getEarner(address)": "7073",
				"getProposalCount()": "2382",
				"getProposalId(address[],uint256[],bytes[],bytes32)": "infinite",
				"getStakerInfo(address)": "7040",
				"getUnstakeAvailableTime(address)": "infinite",
				"getVotes(address,uint256)": "9405",
				"getVotesWithParams(address,uint256,bytes)": "infinite",
				"getVotingPower(address)": "9377",
				"hasVoted(uint256,address)": "2820",
				"hashProposal(address[],uint256[],bytes[],bytes32)": "infinite",
				"isStaker(address)": "2654",
				"name()": "infinite",
				"nonces(address)": "2650",
				"onERC1155BatchReceived(address,address,uint256[],uint256[],bytes)": "infinite",
				"onERC1155Received(address,address,uint256,uint256,bytes)": "infinite",
				"onERC721Received(address,address,uint256,bytes)": "infinite",
				"openworkToken()": "2427",
				"proposalDeadline(uint256)": "2667",
				"proposalEta(uint256)": "2517",
				"proposalIds(uint256)": "4643",
				"proposalNeedsQueuing(uint256)": "403",
				"proposalProposer(uint256)": "2546",
				"proposalSnapshot(uint256)": "2542",
				"proposalStakeThreshold()": "2386",
				"proposalThreshold()": "2441",
				"proposalVotes(uint256)": "6842",
				"propose(address[],uint256[],bytes[],string)": "infinite",
				"queue(address[],uint256[],bytes[],bytes32)": "infinite",
				"quorum(uint256)": "406",
				"relay(address,uint256,bytes)": "infinite",
				"removeStake(address,uint256)": "48067",
				"setProposalThreshold(uint256)": "25968",
				"setVotingDelay(uint48)": "28156",
				"setVotingPeriod(uint32)": "28175",
				"stake(uint256,uint256)": "infinite",
				"stakes(address)": "6929",
				"state(uint256)": "infinite",
				"supportsInterface(bytes4)": "606",
				"unstake()": "35038",
				"unstakeDelay()": "2430",
				"unstakeRequestTime(address)": "2609",
				"updateProposalStakeThreshold(uint256)": "22481",
				"updateQuorum(uint256)": "395",
				"updateUnstakeDelay(uint256)": "22504",
				"updateVotingStakeThreshold(uint256)": "22503",
				"version()": "infinite",
				"votingDelay()": "2448",
				"votingPeriod()": "2396",
				"votingStakeThreshold()": "2383"
			},
			"internal": {
				"_castVote(uint256,address,uint8,string memory,bytes memory)": "infinite",
				"_getVotes(address,uint256,bytes memory)": "infinite"
			}
		},
		"methodIdentifiers": {
			"BALLOT_TYPEHASH()": "deaaa7cc",
			"CLOCK_MODE()": "4bf5d7e9",
			"COUNTING_MODE()": "dd4e2ba5",
			"EXTENDED_BALLOT_TYPEHASH()": "2fe3e261",
			"MIN_STAKE()": "cb1c2b5c",
			"addOrUpdateEarner(address,uint256,uint256)": "ab65037d",
			"allStakers(uint256)": "c3214d6c",
			"cancel(address[],uint256[],bytes[],bytes32)": "452115d6",
			"castVote(uint256,uint8)": "56781388",
			"castVoteBySig(uint256,uint8,address,bytes)": "8ff262e3",
			"castVoteWithReason(uint256,uint8,string)": "7b3c71d3",
			"castVoteWithReasonAndParams(uint256,uint8,string,bytes)": "5f398a14",
			"castVoteWithReasonAndParamsBySig(uint256,uint8,address,string,bytes,bytes)": "5b8d0e0d",
			"clock()": "91ddadf4",
			"delegate(address)": "5c19a95c",
			"delegatedVotingPower(address)": "f9a5c639",
			"delegates(address)": "587cde1e",
			"earners(address)": "0cb4196d",
			"eip712Domain()": "84b0196e",
			"execute(address[],uint256[],bytes[],bytes32)": "2656227d",
			"getActiveProposalIds()": "71a1aea7",
			"getAllProposalIds()": "efa90d36",
			"getAllStakers()": "6e4f88c8",
			"getEarner(address)": "cdbdb293",
			"getProposalCount()": "c08cc02d",
			"getProposalId(address[],uint256[],bytes[],bytes32)": "a8f8a668",
			"getStakerInfo(address)": "733bdef0",
			"getUnstakeAvailableTime(address)": "701ea6de",
			"getVotes(address,uint256)": "eb9019d4",
			"getVotesWithParams(address,uint256,bytes)": "9a802a6d",
			"getVotingPower(address)": "bb4d4436",
			"hasVoted(uint256,address)": "43859632",
			"hashProposal(address[],uint256[],bytes[],bytes32)": "c59057e4",
			"isStaker(address)": "6f1e8533",
			"name()": "06fdde03",
			"nonces(address)": "7ecebe00",
			"onERC1155BatchReceived(address,address,uint256[],uint256[],bytes)": "bc197c81",
			"onERC1155Received(address,address,uint256,uint256,bytes)": "f23a6e61",
			"onERC721Received(address,address,uint256,bytes)": "150b7a02",
			"openworkToken()": "a89fd082",
			"proposalDeadline(uint256)": "c01f9e37",
			"proposalEta(uint256)": "ab58fb8e",
			"proposalIds(uint256)": "9b644a23",
			"proposalNeedsQueuing(uint256)": "a9a95294",
			"proposalProposer(uint256)": "143489d0",
			"proposalSnapshot(uint256)": "2d63f693",
			"proposalStakeThreshold()": "4804874c",
			"proposalThreshold()": "b58131b0",
			"proposalVotes(uint256)": "544ffc9c",
			"propose(address[],uint256[],bytes[],string)": "7d5e81e2",
			"queue(address[],uint256[],bytes[],bytes32)": "160cbed7",
			"quorum(uint256)": "f8ce560a",
			"relay(address,uint256,bytes)": "c28bc2fa",
			"removeStake(address,uint256)": "68ce7d8a",
			"setProposalThreshold(uint256)": "ece40cc1",
			"setVotingDelay(uint48)": "79051887",
			"setVotingPeriod(uint32)": "e540d01d",
			"stake(uint256,uint256)": "7b0472f0",
			"stakes(address)": "16934fc4",
			"state(uint256)": "3e4f49e6",
			"supportsInterface(bytes4)": "01ffc9a7",
			"unstake()": "2def6620",
			"unstakeDelay()": "3222012f",
			"unstakeRequestTime(address)": "3890b152",
			"updateProposalStakeThreshold(uint256)": "c0e393c4",
			"updateQuorum(uint256)": "35680dc2",
			"updateUnstakeDelay(uint256)": "80821398",
			"updateVotingStakeThreshold(uint256)": "922d01e9",
			"version()": "54fd4d50",
			"votingDelay()": "3932abb1",
			"votingPeriod()": "02a251a3",
			"votingStakeThreshold()": "f1de9a77"
		}
	},
	"abi": [
		{
			"inputs": [
				{
					"internalType": "address",
					"name": "_openworkToken",
					"type": "address"
				}
			],
			"stateMutability": "nonpayable",
			"type": "constructor"
		},
		{
			"inputs": [],
			"name": "FailedCall",
			"type": "error"
		},
		{
			"inputs": [
				{
					"internalType": "address",
					"name": "voter",
					"type": "address"
				}
			],
			"name": "GovernorAlreadyCastVote",
			"type": "error"
		},
		{
			"inputs": [
				{
					"internalType": "uint256",
					"name": "proposalId",
					"type": "uint256"
				}
			],
			"name": "GovernorAlreadyQueuedProposal",
			"type": "error"
		},
		{
			"inputs": [],
			"name": "GovernorDisabledDeposit",
			"type": "error"
		},
		{
			"inputs": [
				{
					"internalType": "address",
					"name": "proposer",
					"type": "address"
				},
				{
					"internalType": "uint256",
					"name": "votes",
					"type": "uint256"
				},
				{
					"internalType": "uint256",
					"name": "threshold",
					"type": "uint256"
				}
			],
			"name": "GovernorInsufficientProposerVotes",
			"type": "error"
		},
		{
			"inputs": [
				{
					"internalType": "uint256",
					"name": "targets",
					"type": "uint256"
				},
				{
					"internalType": "uint256",
					"name": "calldatas",
					"type": "uint256"
				},
				{
					"internalType": "uint256",
					"name": "values",
					"type": "uint256"
				}
			],
			"name": "GovernorInvalidProposalLength",
			"type": "error"
		},
		{
			"inputs": [
				{
					"internalType": "address",
					"name": "voter",
					"type": "address"
				}
			],
			"name": "GovernorInvalidSignature",
			"type": "error"
		},
		{
			"inputs": [],
			"name": "GovernorInvalidVoteParams",
			"type": "error"
		},
		{
			"inputs": [],
			"name": "GovernorInvalidVoteType",
			"type": "error"
		},
		{
			"inputs": [
				{
					"internalType": "uint256",
					"name": "votingPeriod",
					"type": "uint256"
				}
			],
			"name": "GovernorInvalidVotingPeriod",
			"type": "error"
		},
		{
			"inputs": [
				{
					"internalType": "uint256",
					"name": "proposalId",
					"type": "uint256"
				}
			],
			"name": "GovernorNonexistentProposal",
			"type": "error"
		},
		{
			"inputs": [
				{
					"internalType": "uint256",
					"name": "proposalId",
					"type": "uint256"
				}
			],
			"name": "GovernorNotQueuedProposal",
			"type": "error"
		},
		{
			"inputs": [
				{
					"internalType": "address",
					"name": "account",
					"type": "address"
				}
			],
			"name": "GovernorOnlyExecutor",
			"type": "error"
		},
		{
			"inputs": [],
			"name": "GovernorQueueNotImplemented",
			"type": "error"
		},
		{
			"inputs": [
				{
					"internalType": "address",
					"name": "proposer",
					"type": "address"
				}
			],
			"name": "GovernorRestrictedProposer",
			"type": "error"
		},
		{
			"inputs": [
				{
					"internalType": "uint256",
					"name": "proposalId",
					"type": "uint256"
				},
				{
					"internalType": "address",
					"name": "account",
					"type": "address"
				}
			],
			"name": "GovernorUnableToCancel",
			"type": "error"
		},
		{
			"inputs": [
				{
					"internalType": "uint256",
					"name": "proposalId",
					"type": "uint256"
				},
				{
					"internalType": "enum IGovernor.ProposalState",
					"name": "current",
					"type": "uint8"
				},
				{
					"internalType": "bytes32",
					"name": "expectedStates",
					"type": "bytes32"
				}
			],
			"name": "GovernorUnexpectedProposalState",
			"type": "error"
		},
		{
			"inputs": [
				{
					"internalType": "address",
					"name": "account",
					"type": "address"
				},
				{
					"internalType": "uint256",
					"name": "currentNonce",
					"type": "uint256"
				}
			],
			"name": "InvalidAccountNonce",
			"type": "error"
		},
		{
			"inputs": [],
			"name": "InvalidShortString",
			"type": "error"
		},
		{
			"inputs": [
				{
					"internalType": "uint8",
					"name": "bits",
					"type": "uint8"
				},
				{
					"internalType": "uint256",
					"name": "value",
					"type": "uint256"
				}
			],
			"name": "SafeCastOverflowedUintDowncast",
			"type": "error"
		},
		{
			"inputs": [
				{
					"internalType": "string",
					"name": "str",
					"type": "string"
				}
			],
			"name": "StringTooLong",
			"type": "error"
		},
		{
			"anonymous": false,
			"inputs": [
				{
					"indexed": true,
					"internalType": "address",
					"name": "delegator",
					"type": "address"
				},
				{
					"indexed": true,
					"internalType": "address",
					"name": "fromDelegate",
					"type": "address"
				},
				{
					"indexed": true,
					"internalType": "address",
					"name": "toDelegate",
					"type": "address"
				}
			],
			"name": "DelegateChanged",
			"type": "event"
		},
		{
			"anonymous": false,
			"inputs": [],
			"name": "EIP712DomainChanged",
			"type": "event"
		},
		{
			"anonymous": false,
			"inputs": [
				{
					"indexed": true,
					"internalType": "address",
					"name": "earner",
					"type": "address"
				},
				{
					"indexed": false,
					"internalType": "uint256",
					"name": "newBalance",
					"type": "uint256"
				},
				{
					"indexed": false,
					"internalType": "uint256",
					"name": "totalGovernanceActions",
					"type": "uint256"
				}
			],
			"name": "EarnerUpdated",
			"type": "event"
		},
		{
			"anonymous": false,
			"inputs": [
				{
					"indexed": false,
					"internalType": "uint256",
					"name": "proposalId",
					"type": "uint256"
				}
			],
			"name": "ProposalCanceled",
			"type": "event"
		},
		{
			"anonymous": false,
			"inputs": [
				{
					"indexed": false,
					"internalType": "uint256",
					"name": "proposalId",
					"type": "uint256"
				},
				{
					"indexed": false,
					"internalType": "address",
					"name": "proposer",
					"type": "address"
				},
				{
					"indexed": false,
					"internalType": "address[]",
					"name": "targets",
					"type": "address[]"
				},
				{
					"indexed": false,
					"internalType": "uint256[]",
					"name": "values",
					"type": "uint256[]"
				},
				{
					"indexed": false,
					"internalType": "string[]",
					"name": "signatures",
					"type": "string[]"
				},
				{
					"indexed": false,
					"internalType": "bytes[]",
					"name": "calldatas",
					"type": "bytes[]"
				},
				{
					"indexed": false,
					"internalType": "uint256",
					"name": "voteStart",
					"type": "uint256"
				},
				{
					"indexed": false,
					"internalType": "uint256",
					"name": "voteEnd",
					"type": "uint256"
				},
				{
					"indexed": false,
					"internalType": "string",
					"name": "description",
					"type": "string"
				}
			],
			"name": "ProposalCreated",
			"type": "event"
		},
		{
			"anonymous": false,
			"inputs": [
				{
					"indexed": false,
					"internalType": "uint256",
					"name": "proposalId",
					"type": "uint256"
				}
			],
			"name": "ProposalExecuted",
			"type": "event"
		},
		{
			"anonymous": false,
			"inputs": [
				{
					"indexed": false,
					"internalType": "uint256",
					"name": "proposalId",
					"type": "uint256"
				},
				{
					"indexed": false,
					"internalType": "uint256",
					"name": "etaSeconds",
					"type": "uint256"
				}
			],
			"name": "ProposalQueued",
			"type": "event"
		},
		{
			"anonymous": false,
			"inputs": [
				{
					"indexed": false,
					"internalType": "uint256",
					"name": "oldProposalThreshold",
					"type": "uint256"
				},
				{
					"indexed": false,
					"internalType": "uint256",
					"name": "newProposalThreshold",
					"type": "uint256"
				}
			],
			"name": "ProposalThresholdSet",
			"type": "event"
		},
		{
			"anonymous": false,
			"inputs": [
				{
					"indexed": true,
					"internalType": "address",
					"name": "staker",
					"type": "address"
				},
				{
					"indexed": false,
					"internalType": "uint256",
					"name": "amount",
					"type": "uint256"
				}
			],
			"name": "StakeRemoved",
			"type": "event"
		},
		{
			"anonymous": false,
			"inputs": [
				{
					"indexed": true,
					"internalType": "address",
					"name": "staker",
					"type": "address"
				},
				{
					"indexed": false,
					"internalType": "uint256",
					"name": "requestTime",
					"type": "uint256"
				},
				{
					"indexed": false,
					"internalType": "uint256",
					"name": "availableTime",
					"type": "uint256"
				}
			],
			"name": "UnstakeRequested",
			"type": "event"
		},
		{
			"anonymous": false,
			"inputs": [
				{
					"indexed": true,
					"internalType": "address",
					"name": "voter",
					"type": "address"
				},
				{
					"indexed": false,
					"internalType": "uint256",
					"name": "proposalId",
					"type": "uint256"
				},
				{
					"indexed": false,
					"internalType": "uint8",
					"name": "support",
					"type": "uint8"
				},
				{
					"indexed": false,
					"internalType": "uint256",
					"name": "weight",
					"type": "uint256"
				},
				{
					"indexed": false,
					"internalType": "string",
					"name": "reason",
					"type": "string"
				}
			],
			"name": "VoteCast",
			"type": "event"
		},
		{
			"anonymous": false,
			"inputs": [
				{
					"indexed": true,
					"internalType": "address",
					"name": "voter",
					"type": "address"
				},
				{
					"indexed": false,
					"internalType": "uint256",
					"name": "proposalId",
					"type": "uint256"
				},
				{
					"indexed": false,
					"internalType": "uint8",
					"name": "support",
					"type": "uint8"
				},
				{
					"indexed": false,
					"internalType": "uint256",
					"name": "weight",
					"type": "uint256"
				},
				{
					"indexed": false,
					"internalType": "string",
					"name": "reason",
					"type": "string"
				},
				{
					"indexed": false,
					"internalType": "bytes",
					"name": "params",
					"type": "bytes"
				}
			],
			"name": "VoteCastWithParams",
			"type": "event"
		},
		{
			"anonymous": false,
			"inputs": [
				{
					"indexed": false,
					"internalType": "uint256",
					"name": "oldVotingDelay",
					"type": "uint256"
				},
				{
					"indexed": false,
					"internalType": "uint256",
					"name": "newVotingDelay",
					"type": "uint256"
				}
			],
			"name": "VotingDelaySet",
			"type": "event"
		},
		{
			"anonymous": false,
			"inputs": [
				{
					"indexed": false,
					"internalType": "uint256",
					"name": "oldVotingPeriod",
					"type": "uint256"
				},
				{
					"indexed": false,
					"internalType": "uint256",
					"name": "newVotingPeriod",
					"type": "uint256"
				}
			],
			"name": "VotingPeriodSet",
			"type": "event"
		},
		{
			"inputs": [],
			"name": "BALLOT_TYPEHASH",
			"outputs": [
				{
					"internalType": "bytes32",
					"name": "",
					"type": "bytes32"
				}
			],
			"stateMutability": "view",
			"type": "function"
		},
		{
			"inputs": [],
			"name": "CLOCK_MODE",
			"outputs": [
				{
					"internalType": "string",
					"name": "",
					"type": "string"
				}
			],
			"stateMutability": "pure",
			"type": "function"
		},
		{
			"inputs": [],
			"name": "COUNTING_MODE",
			"outputs": [
				{
					"internalType": "string",
					"name": "",
					"type": "string"
				}
			],
			"stateMutability": "pure",
			"type": "function"
		},
		{
			"inputs": [],
			"name": "EXTENDED_BALLOT_TYPEHASH",
			"outputs": [
				{
					"internalType": "bytes32",
					"name": "",
					"type": "bytes32"
				}
			],
			"stateMutability": "view",
			"type": "function"
		},
		{
			"inputs": [],
			"name": "MIN_STAKE",
			"outputs": [
				{
					"internalType": "uint256",
					"name": "",
					"type": "uint256"
				}
			],
			"stateMutability": "view",
			"type": "function"
		},
		{
			"inputs": [
				{
					"internalType": "address",
					"name": "earnerAddress",
					"type": "address"
				},
				{
					"internalType": "uint256",
					"name": "balance",
					"type": "uint256"
				},
				{
					"internalType": "uint256",
					"name": "governanceActions",
					"type": "uint256"
				}
			],
			"name": "addOrUpdateEarner",
			"outputs": [],
			"stateMutability": "nonpayable",
			"type": "function"
		},
		{
			"inputs": [
				{
					"internalType": "uint256",
					"name": "",
					"type": "uint256"
				}
			],
			"name": "allStakers",
			"outputs": [
				{
					"internalType": "address",
					"name": "",
					"type": "address"
				}
			],
			"stateMutability": "view",
			"type": "function"
		},
		{
			"inputs": [
				{
					"internalType": "address[]",
					"name": "targets",
					"type": "address[]"
				},
				{
					"internalType": "uint256[]",
					"name": "values",
					"type": "uint256[]"
				},
				{
					"internalType": "bytes[]",
					"name": "calldatas",
					"type": "bytes[]"
				},
				{
					"internalType": "bytes32",
					"name": "descriptionHash",
					"type": "bytes32"
				}
			],
			"name": "cancel",
			"outputs": [
				{
					"internalType": "uint256",
					"name": "",
					"type": "uint256"
				}
			],
			"stateMutability": "nonpayable",
			"type": "function"
		},
		{
			"inputs": [
				{
					"internalType": "uint256",
					"name": "proposalId",
					"type": "uint256"
				},
				{
					"internalType": "uint8",
					"name": "support",
					"type": "uint8"
				}
			],
			"name": "castVote",
			"outputs": [
				{
					"internalType": "uint256",
					"name": "",
					"type": "uint256"
				}
			],
			"stateMutability": "nonpayable",
			"type": "function"
		},
		{
			"inputs": [
				{
					"internalType": "uint256",
					"name": "proposalId",
					"type": "uint256"
				},
				{
					"internalType": "uint8",
					"name": "support",
					"type": "uint8"
				},
				{
					"internalType": "address",
					"name": "voter",
					"type": "address"
				},
				{
					"internalType": "bytes",
					"name": "signature",
					"type": "bytes"
				}
			],
			"name": "castVoteBySig",
			"outputs": [
				{
					"internalType": "uint256",
					"name": "",
					"type": "uint256"
				}
			],
			"stateMutability": "nonpayable",
			"type": "function"
		},
		{
			"inputs": [
				{
					"internalType": "uint256",
					"name": "proposalId",
					"type": "uint256"
				},
				{
					"internalType": "uint8",
					"name": "support",
					"type": "uint8"
				},
				{
					"internalType": "string",
					"name": "reason",
					"type": "string"
				}
			],
			"name": "castVoteWithReason",
			"outputs": [
				{
					"internalType": "uint256",
					"name": "",
					"type": "uint256"
				}
			],
			"stateMutability": "nonpayable",
			"type": "function"
		},
		{
			"inputs": [
				{
					"internalType": "uint256",
					"name": "proposalId",
					"type": "uint256"
				},
				{
					"internalType": "uint8",
					"name": "support",
					"type": "uint8"
				},
				{
					"internalType": "string",
					"name": "reason",
					"type": "string"
				},
				{
					"internalType": "bytes",
					"name": "params",
					"type": "bytes"
				}
			],
			"name": "castVoteWithReasonAndParams",
			"outputs": [
				{
					"internalType": "uint256",
					"name": "",
					"type": "uint256"
				}
			],
			"stateMutability": "nonpayable",
			"type": "function"
		},
		{
			"inputs": [
				{
					"internalType": "uint256",
					"name": "proposalId",
					"type": "uint256"
				},
				{
					"internalType": "uint8",
					"name": "support",
					"type": "uint8"
				},
				{
					"internalType": "address",
					"name": "voter",
					"type": "address"
				},
				{
					"internalType": "string",
					"name": "reason",
					"type": "string"
				},
				{
					"internalType": "bytes",
					"name": "params",
					"type": "bytes"
				},
				{
					"internalType": "bytes",
					"name": "signature",
					"type": "bytes"
				}
			],
			"name": "castVoteWithReasonAndParamsBySig",
			"outputs": [
				{
					"internalType": "uint256",
					"name": "",
					"type": "uint256"
				}
			],
			"stateMutability": "nonpayable",
			"type": "function"
		},
		{
			"inputs": [],
			"name": "clock",
			"outputs": [
				{
					"internalType": "uint48",
					"name": "",
					"type": "uint48"
				}
			],
			"stateMutability": "view",
			"type": "function"
		},
		{
			"inputs": [
				{
					"internalType": "address",
					"name": "delegatee",
					"type": "address"
				}
			],
			"name": "delegate",
			"outputs": [],
			"stateMutability": "nonpayable",
			"type": "function"
		},
		{
			"inputs": [
				{
					"internalType": "address",
					"name": "",
					"type": "address"
				}
			],
			"name": "delegatedVotingPower",
			"outputs": [
				{
					"internalType": "uint256",
					"name": "",
					"type": "uint256"
				}
			],
			"stateMutability": "view",
			"type": "function"
		},
		{
			"inputs": [
				{
					"internalType": "address",
					"name": "",
					"type": "address"
				}
			],
			"name": "delegates",
			"outputs": [
				{
					"internalType": "address",
					"name": "",
					"type": "address"
				}
			],
			"stateMutability": "view",
			"type": "function"
		},
		{
			"inputs": [
				{
					"internalType": "address",
					"name": "",
					"type": "address"
				}
			],
			"name": "earners",
			"outputs": [
				{
					"internalType": "address",
					"name": "earnerAddress",
					"type": "address"
				},
				{
					"internalType": "uint256",
					"name": "balance",
					"type": "uint256"
				},
				{
					"internalType": "uint256",
					"name": "total_governance_actions",
					"type": "uint256"
				}
			],
			"stateMutability": "view",
			"type": "function"
		},
		{
			"inputs": [],
			"name": "eip712Domain",
			"outputs": [
				{
					"internalType": "bytes1",
					"name": "fields",
					"type": "bytes1"
				},
				{
					"internalType": "string",
					"name": "name",
					"type": "string"
				},
				{
					"internalType": "string",
					"name": "version",
					"type": "string"
				},
				{
					"internalType": "uint256",
					"name": "chainId",
					"type": "uint256"
				},
				{
					"internalType": "address",
					"name": "verifyingContract",
					"type": "address"
				},
				{
					"internalType": "bytes32",
					"name": "salt",
					"type": "bytes32"
				},
				{
					"internalType": "uint256[]",
					"name": "extensions",
					"type": "uint256[]"
				}
			],
			"stateMutability": "view",
			"type": "function"
		},
		{
			"inputs": [
				{
					"internalType": "address[]",
					"name": "targets",
					"type": "address[]"
				},
				{
					"internalType": "uint256[]",
					"name": "values",
					"type": "uint256[]"
				},
				{
					"internalType": "bytes[]",
					"name": "calldatas",
					"type": "bytes[]"
				},
				{
					"internalType": "bytes32",
					"name": "descriptionHash",
					"type": "bytes32"
				}
			],
			"name": "execute",
			"outputs": [
				{
					"internalType": "uint256",
					"name": "",
					"type": "uint256"
				}
			],
			"stateMutability": "payable",
			"type": "function"
		},
		{
			"inputs": [],
			"name": "getActiveProposalIds",
			"outputs": [
				{
					"internalType": "uint256[]",
					"name": "activeIds",
					"type": "uint256[]"
				},
				{
					"internalType": "enum IGovernor.ProposalState[]",
					"name": "states",
					"type": "uint8[]"
				}
			],
			"stateMutability": "view",
			"type": "function"
		},
		{
			"inputs": [],
			"name": "getAllProposalIds",
			"outputs": [
				{
					"internalType": "uint256[]",
					"name": "ids",
					"type": "uint256[]"
				},
				{
					"internalType": "enum IGovernor.ProposalState[]",
					"name": "states",
					"type": "uint8[]"
				}
			],
			"stateMutability": "view",
			"type": "function"
		},
		{
			"inputs": [],
			"name": "getAllStakers",
			"outputs": [
				{
					"internalType": "address[]",
					"name": "",
					"type": "address[]"
				}
			],
			"stateMutability": "view",
			"type": "function"
		},
		{
			"inputs": [
				{
					"internalType": "address",
					"name": "earnerAddress",
					"type": "address"
				}
			],
			"name": "getEarner",
			"outputs": [
				{
					"internalType": "address",
					"name": "",
					"type": "address"
				},
				{
					"internalType": "uint256",
					"name": "",
					"type": "uint256"
				},
				{
					"internalType": "uint256",
					"name": "",
					"type": "uint256"
				}
			],
			"stateMutability": "view",
			"type": "function"
		},
		{
			"inputs": [],
			"name": "getProposalCount",
			"outputs": [
				{
					"internalType": "uint256",
					"name": "",
					"type": "uint256"
				}
			],
			"stateMutability": "view",
			"type": "function"
		},
		{
			"inputs": [
				{
					"internalType": "address[]",
					"name": "targets",
					"type": "address[]"
				},
				{
					"internalType": "uint256[]",
					"name": "values",
					"type": "uint256[]"
				},
				{
					"internalType": "bytes[]",
					"name": "calldatas",
					"type": "bytes[]"
				},
				{
					"internalType": "bytes32",
					"name": "descriptionHash",
					"type": "bytes32"
				}
			],
			"name": "getProposalId",
			"outputs": [
				{
					"internalType": "uint256",
					"name": "",
					"type": "uint256"
				}
			],
			"stateMutability": "view",
			"type": "function"
		},
		{
			"inputs": [
				{
					"internalType": "address",
					"name": "staker",
					"type": "address"
				}
			],
			"name": "getStakerInfo",
			"outputs": [
				{
					"internalType": "uint256",
					"name": "amount",
					"type": "uint256"
				},
				{
					"internalType": "uint256",
					"name": "unlockTime",
					"type": "uint256"
				},
				{
					"internalType": "uint256",
					"name": "durationMinutes",
					"type": "uint256"
				},
				{
					"internalType": "bool",
					"name": "hasStake",
					"type": "bool"
				}
			],
			"stateMutability": "view",
			"type": "function"
		},
		{
			"inputs": [
				{
					"internalType": "address",
					"name": "staker",
					"type": "address"
				}
			],
			"name": "getUnstakeAvailableTime",
			"outputs": [
				{
					"internalType": "uint256",
					"name": "",
					"type": "uint256"
				}
			],
			"stateMutability": "view",
			"type": "function"
		},
		{
			"inputs": [
				{
					"internalType": "address",
					"name": "account",
					"type": "address"
				},
				{
					"internalType": "uint256",
					"name": "timepoint",
					"type": "uint256"
				}
			],
			"name": "getVotes",
			"outputs": [
				{
					"internalType": "uint256",
					"name": "",
					"type": "uint256"
				}
			],
			"stateMutability": "view",
			"type": "function"
		},
		{
			"inputs": [
				{
					"internalType": "address",
					"name": "account",
					"type": "address"
				},
				{
					"internalType": "uint256",
					"name": "timepoint",
					"type": "uint256"
				},
				{
					"internalType": "bytes",
					"name": "params",
					"type": "bytes"
				}
			],
			"name": "getVotesWithParams",
			"outputs": [
				{
					"internalType": "uint256",
					"name": "",
					"type": "uint256"
				}
			],
			"stateMutability": "view",
			"type": "function"
		},
		{
			"inputs": [
				{
					"internalType": "address",
					"name": "account",
					"type": "address"
				}
			],
			"name": "getVotingPower",
			"outputs": [
				{
					"internalType": "uint256",
					"name": "own",
					"type": "uint256"
				},
				{
					"internalType": "uint256",
					"name": "delegated",
					"type": "uint256"
				},
				{
					"internalType": "uint256",
					"name": "total",
					"type": "uint256"
				}
			],
			"stateMutability": "view",
			"type": "function"
		},
		{
			"inputs": [
				{
					"internalType": "uint256",
					"name": "proposalId",
					"type": "uint256"
				},
				{
					"internalType": "address",
					"name": "account",
					"type": "address"
				}
			],
			"name": "hasVoted",
			"outputs": [
				{
					"internalType": "bool",
					"name": "",
					"type": "bool"
				}
			],
			"stateMutability": "view",
			"type": "function"
		},
		{
			"inputs": [
				{
					"internalType": "address[]",
					"name": "targets",
					"type": "address[]"
				},
				{
					"internalType": "uint256[]",
					"name": "values",
					"type": "uint256[]"
				},
				{
					"internalType": "bytes[]",
					"name": "calldatas",
					"type": "bytes[]"
				},
				{
					"internalType": "bytes32",
					"name": "descriptionHash",
					"type": "bytes32"
				}
			],
			"name": "hashProposal",
			"outputs": [
				{
					"internalType": "uint256",
					"name": "",
					"type": "uint256"
				}
			],
			"stateMutability": "pure",
			"type": "function"
		},
		{
			"inputs": [
				{
					"internalType": "address",
					"name": "",
					"type": "address"
				}
			],
			"name": "isStaker",
			"outputs": [
				{
					"internalType": "bool",
					"name": "",
					"type": "bool"
				}
			],
			"stateMutability": "view",
			"type": "function"
		},
		{
			"inputs": [],
			"name": "name",
			"outputs": [
				{
					"internalType": "string",
					"name": "",
					"type": "string"
				}
			],
			"stateMutability": "view",
			"type": "function"
		},
		{
			"inputs": [
				{
					"internalType": "address",
					"name": "owner",
					"type": "address"
				}
			],
			"name": "nonces",
			"outputs": [
				{
					"internalType": "uint256",
					"name": "",
					"type": "uint256"
				}
			],
			"stateMutability": "view",
			"type": "function"
		},
		{
			"inputs": [
				{
					"internalType": "address",
					"name": "",
					"type": "address"
				},
				{
					"internalType": "address",
					"name": "",
					"type": "address"
				},
				{
					"internalType": "uint256[]",
					"name": "",
					"type": "uint256[]"
				},
				{
					"internalType": "uint256[]",
					"name": "",
					"type": "uint256[]"
				},
				{
					"internalType": "bytes",
					"name": "",
					"type": "bytes"
				}
			],
			"name": "onERC1155BatchReceived",
			"outputs": [
				{
					"internalType": "bytes4",
					"name": "",
					"type": "bytes4"
				}
			],
			"stateMutability": "nonpayable",
			"type": "function"
		},
		{
			"inputs": [
				{
					"internalType": "address",
					"name": "",
					"type": "address"
				},
				{
					"internalType": "address",
					"name": "",
					"type": "address"
				},
				{
					"internalType": "uint256",
					"name": "",
					"type": "uint256"
				},
				{
					"internalType": "uint256",
					"name": "",
					"type": "uint256"
				},
				{
					"internalType": "bytes",
					"name": "",
					"type": "bytes"
				}
			],
			"name": "onERC1155Received",
			"outputs": [
				{
					"internalType": "bytes4",
					"name": "",
					"type": "bytes4"
				}
			],
			"stateMutability": "nonpayable",
			"type": "function"
		},
		{
			"inputs": [
				{
					"internalType": "address",
					"name": "",
					"type": "address"
				},
				{
					"internalType": "address",
					"name": "",
					"type": "address"
				},
				{
					"internalType": "uint256",
					"name": "",
					"type": "uint256"
				},
				{
					"internalType": "bytes",
					"name": "",
					"type": "bytes"
				}
			],
			"name": "onERC721Received",
			"outputs": [
				{
					"internalType": "bytes4",
					"name": "",
					"type": "bytes4"
				}
			],
			"stateMutability": "nonpayable",
			"type": "function"
		},
		{
			"inputs": [],
			"name": "openworkToken",
			"outputs": [
				{
					"internalType": "contract IERC20",
					"name": "",
					"type": "address"
				}
			],
			"stateMutability": "view",
			"type": "function"
		},
		{
			"inputs": [
				{
					"internalType": "uint256",
					"name": "proposalId",
					"type": "uint256"
				}
			],
			"name": "proposalDeadline",
			"outputs": [
				{
					"internalType": "uint256",
					"name": "",
					"type": "uint256"
				}
			],
			"stateMutability": "view",
			"type": "function"
		},
		{
			"inputs": [
				{
					"internalType": "uint256",
					"name": "proposalId",
					"type": "uint256"
				}
			],
			"name": "proposalEta",
			"outputs": [
				{
					"internalType": "uint256",
					"name": "",
					"type": "uint256"
				}
			],
			"stateMutability": "view",
			"type": "function"
		},
		{
			"inputs": [
				{
					"internalType": "uint256",
					"name": "",
					"type": "uint256"
				}
			],
			"name": "proposalIds",
			"outputs": [
				{
					"internalType": "uint256",
					"name": "",
					"type": "uint256"
				}
			],
			"stateMutability": "view",
			"type": "function"
		},
		{
			"inputs": [
				{
					"internalType": "uint256",
					"name": "",
					"type": "uint256"
				}
			],
			"name": "proposalNeedsQueuing",
			"outputs": [
				{
					"internalType": "bool",
					"name": "",
					"type": "bool"
				}
			],
			"stateMutability": "view",
			"type": "function"
		},
		{
			"inputs": [
				{
					"internalType": "uint256",
					"name": "proposalId",
					"type": "uint256"
				}
			],
			"name": "proposalProposer",
			"outputs": [
				{
					"internalType": "address",
					"name": "",
					"type": "address"
				}
			],
			"stateMutability": "view",
			"type": "function"
		},
		{
			"inputs": [
				{
					"internalType": "uint256",
					"name": "proposalId",
					"type": "uint256"
				}
			],
			"name": "proposalSnapshot",
			"outputs": [
				{
					"internalType": "uint256",
					"name": "",
					"type": "uint256"
				}
			],
			"stateMutability": "view",
			"type": "function"
		},
		{
			"inputs": [],
			"name": "proposalStakeThreshold",
			"outputs": [
				{
					"internalType": "uint256",
					"name": "",
					"type": "uint256"
				}
			],
			"stateMutability": "view",
			"type": "function"
		},
		{
			"inputs": [],
			"name": "proposalThreshold",
			"outputs": [
				{
					"internalType": "uint256",
					"name": "",
					"type": "uint256"
				}
			],
			"stateMutability": "view",
			"type": "function"
		},
		{
			"inputs": [
				{
					"internalType": "uint256",
					"name": "proposalId",
					"type": "uint256"
				}
			],
			"name": "proposalVotes",
			"outputs": [
				{
					"internalType": "uint256",
					"name": "againstVotes",
					"type": "uint256"
				},
				{
					"internalType": "uint256",
					"name": "forVotes",
					"type": "uint256"
				},
				{
					"internalType": "uint256",
					"name": "abstainVotes",
					"type": "uint256"
				}
			],
			"stateMutability": "view",
			"type": "function"
		},
		{
			"inputs": [
				{
					"internalType": "address[]",
					"name": "targets",
					"type": "address[]"
				},
				{
					"internalType": "uint256[]",
					"name": "values",
					"type": "uint256[]"
				},
				{
					"internalType": "bytes[]",
					"name": "calldatas",
					"type": "bytes[]"
				},
				{
					"internalType": "string",
					"name": "description",
					"type": "string"
				}
			],
			"name": "propose",
			"outputs": [
				{
					"internalType": "uint256",
					"name": "",
					"type": "uint256"
				}
			],
			"stateMutability": "nonpayable",
			"type": "function"
		},
		{
			"inputs": [
				{
					"internalType": "address[]",
					"name": "targets",
					"type": "address[]"
				},
				{
					"internalType": "uint256[]",
					"name": "values",
					"type": "uint256[]"
				},
				{
					"internalType": "bytes[]",
					"name": "calldatas",
					"type": "bytes[]"
				},
				{
					"internalType": "bytes32",
					"name": "descriptionHash",
					"type": "bytes32"
				}
			],
			"name": "queue",
			"outputs": [
				{
					"internalType": "uint256",
					"name": "",
					"type": "uint256"
				}
			],
			"stateMutability": "nonpayable",
			"type": "function"
		},
		{
			"inputs": [
				{
					"internalType": "uint256",
					"name": "",
					"type": "uint256"
				}
			],
			"name": "quorum",
			"outputs": [
				{
					"internalType": "uint256",
					"name": "",
					"type": "uint256"
				}
			],
			"stateMutability": "pure",
			"type": "function"
		},
		{
			"inputs": [
				{
					"internalType": "address",
					"name": "target",
					"type": "address"
				},
				{
					"internalType": "uint256",
					"name": "value",
					"type": "uint256"
				},
				{
					"internalType": "bytes",
					"name": "data",
					"type": "bytes"
				}
			],
			"name": "relay",
			"outputs": [],
			"stateMutability": "payable",
			"type": "function"
		},
		{
			"inputs": [
				{
					"internalType": "address",
					"name": "staker",
					"type": "address"
				},
				{
					"internalType": "uint256",
					"name": "removeAmount",
					"type": "uint256"
				}
			],
			"name": "removeStake",
			"outputs": [],
			"stateMutability": "nonpayable",
			"type": "function"
		},
		{
			"inputs": [
				{
					"internalType": "uint256",
					"name": "newProposalThreshold",
					"type": "uint256"
				}
			],
			"name": "setProposalThreshold",
			"outputs": [],
			"stateMutability": "nonpayable",
			"type": "function"
		},
		{
			"inputs": [
				{
					"internalType": "uint48",
					"name": "newVotingDelay",
					"type": "uint48"
				}
			],
			"name": "setVotingDelay",
			"outputs": [],
			"stateMutability": "nonpayable",
			"type": "function"
		},
		{
			"inputs": [
				{
					"internalType": "uint32",
					"name": "newVotingPeriod",
					"type": "uint32"
				}
			],
			"name": "setVotingPeriod",
			"outputs": [],
			"stateMutability": "nonpayable",
			"type": "function"
		},
		{
			"inputs": [
				{
					"internalType": "uint256",
					"name": "amount",
					"type": "uint256"
				},
				{
					"internalType": "uint256",
					"name": "durationMinutes",
					"type": "uint256"
				}
			],
			"name": "stake",
			"outputs": [],
			"stateMutability": "nonpayable",
			"type": "function"
		},
		{
			"inputs": [
				{
					"internalType": "address",
					"name": "",
					"type": "address"
				}
			],
			"name": "stakes",
			"outputs": [
				{
					"internalType": "uint256",
					"name": "amount",
					"type": "uint256"
				},
				{
					"internalType": "uint256",
					"name": "unlockTime",
					"type": "uint256"
				},
				{
					"internalType": "uint256",
					"name": "durationMinutes",
					"type": "uint256"
				}
			],
			"stateMutability": "view",
			"type": "function"
		},
		{
			"inputs": [
				{
					"internalType": "uint256",
					"name": "proposalId",
					"type": "uint256"
				}
			],
			"name": "state",
			"outputs": [
				{
					"internalType": "enum IGovernor.ProposalState",
					"name": "",
					"type": "uint8"
				}
			],
			"stateMutability": "view",
			"type": "function"
		},
		{
			"inputs": [
				{
					"internalType": "bytes4",
					"name": "interfaceId",
					"type": "bytes4"
				}
			],
			"name": "supportsInterface",
			"outputs": [
				{
					"internalType": "bool",
					"name": "",
					"type": "bool"
				}
			],
			"stateMutability": "view",
			"type": "function"
		},
		{
			"inputs": [],
			"name": "unstake",
			"outputs": [],
			"stateMutability": "nonpayable",
			"type": "function"
		},
		{
			"inputs": [],
			"name": "unstakeDelay",
			"outputs": [
				{
					"internalType": "uint256",
					"name": "",
					"type": "uint256"
				}
			],
			"stateMutability": "view",
			"type": "function"
		},
		{
			"inputs": [
				{
					"internalType": "address",
					"name": "",
					"type": "address"
				}
			],
			"name": "unstakeRequestTime",
			"outputs": [
				{
					"internalType": "uint256",
					"name": "",
					"type": "uint256"
				}
			],
			"stateMutability": "view",
			"type": "function"
		},
		{
			"inputs": [
				{
					"internalType": "uint256",
					"name": "newThreshold",
					"type": "uint256"
				}
			],
			"name": "updateProposalStakeThreshold",
			"outputs": [],
			"stateMutability": "nonpayable",
			"type": "function"
		},
		{
			"inputs": [
				{
					"internalType": "uint256",
					"name": "newQuorum",
					"type": "uint256"
				}
			],
			"name": "updateQuorum",
			"outputs": [],
			"stateMutability": "nonpayable",
			"type": "function"
		},
		{
			"inputs": [
				{
					"internalType": "uint256",
					"name": "newDelay",
					"type": "uint256"
				}
			],
			"name": "updateUnstakeDelay",
			"outputs": [],
			"stateMutability": "nonpayable",
			"type": "function"
		},
		{
			"inputs": [
				{
					"internalType": "uint256",
					"name": "newThreshold",
					"type": "uint256"
				}
			],
			"name": "updateVotingStakeThreshold",
			"outputs": [],
			"stateMutability": "nonpayable",
			"type": "function"
		},
		{
			"inputs": [],
			"name": "version",
			"outputs": [
				{
					"internalType": "string",
					"name": "",
					"type": "string"
				}
			],
			"stateMutability": "view",
			"type": "function"
		},
		{
			"inputs": [],
			"name": "votingDelay",
			"outputs": [
				{
					"internalType": "uint256",
					"name": "",
					"type": "uint256"
				}
			],
			"stateMutability": "view",
			"type": "function"
		},
		{
			"inputs": [],
			"name": "votingPeriod",
			"outputs": [
				{
					"internalType": "uint256",
					"name": "",
					"type": "uint256"
				}
			],
			"stateMutability": "view",
			"type": "function"
		},
		{
			"inputs": [],
			"name": "votingStakeThreshold",
			"outputs": [
				{
					"internalType": "uint256",
					"name": "",
					"type": "uint256"
				}
			],
			"stateMutability": "view",
			"type": "function"
		},
		{
			"stateMutability": "payable",
			"type": "receive"
		}
	]
}