{
	"profile-sender-wrapper-uups.sol": {
		"ProfileSenderWrapper": {
			"abi": [
				{
					"inputs": [],
					"stateMutability": "nonpayable",
					"type": "constructor"
				},
				{
					"inputs": [
						{
							"internalType": "address",
							"name": "target",
							"type": "address"
						}
					],
					"name": "AddressEmptyCode",
					"type": "error"
				},
				{
					"inputs": [
						{
							"internalType": "address",
							"name": "implementation",
							"type": "address"
						}
					],
					"name": "ERC1967InvalidImplementation",
					"type": "error"
				},
				{
					"inputs": [],
					"name": "ERC1967NonPayable",
					"type": "error"
				},
				{
					"inputs": [],
					"name": "FailedCall",
					"type": "error"
				},
				{
					"inputs": [],
					"name": "InvalidInitialization",
					"type": "error"
				},
				{
					"inputs": [],
					"name": "NotInitializing",
					"type": "error"
				},
				{
					"inputs": [
						{
							"internalType": "address",
							"name": "owner",
							"type": "address"
						}
					],
					"name": "OwnableInvalidOwner",
					"type": "error"
				},
				{
					"inputs": [
						{
							"internalType": "address",
							"name": "account",
							"type": "address"
						}
					],
					"name": "OwnableUnauthorizedAccount",
					"type": "error"
				},
				{
					"inputs": [],
					"name": "UUPSUnauthorizedCallContext",
					"type": "error"
				},
				{
					"inputs": [
						{
							"internalType": "bytes32",
							"name": "slot",
							"type": "bytes32"
						}
					],
					"name": "UUPSUnsupportedProxiableUUID",
					"type": "error"
				},
				{
					"anonymous": false,
					"inputs": [
						{
							"indexed": false,
							"internalType": "uint64",
							"name": "version",
							"type": "uint64"
						}
					],
					"name": "Initialized",
					"type": "event"
				},
				{
					"anonymous": false,
					"inputs": [
						{
							"indexed": true,
							"internalType": "address",
							"name": "previousOwner",
							"type": "address"
						},
						{
							"indexed": true,
							"internalType": "address",
							"name": "newOwner",
							"type": "address"
						}
					],
					"name": "OwnershipTransferred",
					"type": "event"
				},
				{
					"anonymous": false,
					"inputs": [
						{
							"indexed": true,
							"internalType": "address",
							"name": "newProfileSender",
							"type": "address"
						}
					],
					"name": "ProfileSenderUpdated",
					"type": "event"
				},
				{
					"anonymous": false,
					"inputs": [
						{
							"indexed": true,
							"internalType": "address",
							"name": "implementation",
							"type": "address"
						}
					],
					"name": "Upgraded",
					"type": "event"
				},
				{
					"inputs": [],
					"name": "UPGRADE_INTERFACE_VERSION",
					"outputs": [
						{
							"internalType": "string",
							"name": "",
							"type": "string"
						}
					],
					"stateMutability": "view",
					"type": "function"
				},
				{
					"inputs": [
						{
							"internalType": "uint32",
							"name": "_dstEid",
							"type": "uint32"
						},
						{
							"internalType": "string",
							"name": "_username",
							"type": "string"
						},
						{
							"internalType": "bytes",
							"name": "_options",
							"type": "bytes"
						}
					],
					"name": "createProfile",
					"outputs": [],
					"stateMutability": "payable",
					"type": "function"
				},
				{
					"inputs": [
						{
							"internalType": "address",
							"name": "_profileSender",
							"type": "address"
						},
						{
							"internalType": "address",
							"name": "_owner",
							"type": "address"
						}
					],
					"name": "initialize",
					"outputs": [],
					"stateMutability": "nonpayable",
					"type": "function"
				},
				{
					"inputs": [
						{
							"internalType": "address",
							"name": "_owner",
							"type": "address"
						}
					],
					"name": "initialize",
					"outputs": [],
					"stateMutability": "nonpayable",
					"type": "function"
				},
				{
					"inputs": [],
					"name": "owner",
					"outputs": [
						{
							"internalType": "address",
							"name": "",
							"type": "address"
						}
					],
					"stateMutability": "view",
					"type": "function"
				},
				{
					"inputs": [],
					"name": "profileSender",
					"outputs": [
						{
							"internalType": "contract IArbitrumProfileSender",
							"name": "",
							"type": "address"
						}
					],
					"stateMutability": "view",
					"type": "function"
				},
				{
					"inputs": [],
					"name": "proxiableUUID",
					"outputs": [
						{
							"internalType": "bytes32",
							"name": "",
							"type": "bytes32"
						}
					],
					"stateMutability": "view",
					"type": "function"
				},
				{
					"inputs": [],
					"name": "renounceOwnership",
					"outputs": [],
					"stateMutability": "nonpayable",
					"type": "function"
				},
				{
					"inputs": [
						{
							"internalType": "uint32",
							"name": "_eid",
							"type": "uint32"
						},
						{
							"internalType": "bytes32",
							"name": "_peer",
							"type": "bytes32"
						}
					],
					"name": "setPeer",
					"outputs": [],
					"stateMutability": "nonpayable",
					"type": "function"
				},
				{
					"inputs": [
						{
							"internalType": "address",
							"name": "_profileSender",
							"type": "address"
						}
					],
					"name": "setProfileSender",
					"outputs": [],
					"stateMutability": "nonpayable",
					"type": "function"
				},
				{
					"inputs": [
						{
							"internalType": "address",
							"name": "newOwner",
							"type": "address"
						}
					],
					"name": "transferOwnership",
					"outputs": [],
					"stateMutability": "nonpayable",
					"type": "function"
				},
				{
					"inputs": [
						{
							"internalType": "address",
							"name": "newImplementation",
							"type": "address"
						},
						{
							"internalType": "bytes",
							"name": "data",
							"type": "bytes"
						}
					],
					"name": "upgradeToAndCall",
					"outputs": [],
					"stateMutability": "payable",
					"type": "function"
				}
			],
			"devdoc": {
				"details": "Minimal UUPS upgradeable wrapper for ArbitrumProfileSender",
				"errors": {
					"AddressEmptyCode(address)": [
						{
							"details": "There's no code at `target` (it is not a contract)."
						}
					],
					"ERC1967InvalidImplementation(address)": [
						{
							"details": "The `implementation` of the proxy is invalid."
						}
					],
					"ERC1967NonPayable()": [
						{
							"details": "An upgrade function sees `msg.value > 0` that may be lost."
						}
					],
					"FailedCall()": [
						{
							"details": "A call to an address target failed. The target may have reverted."
						}
					],
					"InvalidInitialization()": [
						{
							"details": "The contract is already initialized."
						}
					],
					"NotInitializing()": [
						{
							"details": "The contract is not initializing."
						}
					],
					"OwnableInvalidOwner(address)": [
						{
							"details": "The owner is not a valid owner account. (eg. `address(0)`)"
						}
					],
					"OwnableUnauthorizedAccount(address)": [
						{
							"details": "The caller account is not authorized to perform an operation."
						}
					],
					"UUPSUnauthorizedCallContext()": [
						{
							"details": "The call is from an unauthorized context."
						}
					],
					"UUPSUnsupportedProxiableUUID(bytes32)": [
						{
							"details": "The storage `slot` is unsupported as a UUID."
						}
					]
				},
				"events": {
					"Initialized(uint64)": {
						"details": "Triggered when the contract has been initialized or reinitialized."
					},
					"Upgraded(address)": {
						"details": "Emitted when the implementation is upgraded."
					}
				},
				"kind": "dev",
				"methods": {
					"constructor": {
						"custom:oz-upgrades-unsafe-allow": "constructor"
					},
					"createProfile(uint32,string,bytes)": {
						"details": "Calls createProfile on the ArbitrumProfileSender contract"
					},
					"owner()": {
						"details": "Returns the address of the current owner."
					},
					"proxiableUUID()": {
						"details": "Implementation of the ERC-1822 {proxiableUUID} function. This returns the storage slot used by the implementation. It is used to validate the implementation's compatibility when performing an upgrade. IMPORTANT: A proxy pointing at a proxiable contract should not be considered proxiable itself, because this risks bricking a proxy that upgrades to it, by delegating to itself until out of gas. Thus it is critical that this function revert if invoked through a proxy. This is guaranteed by the `notDelegated` modifier."
					},
					"renounceOwnership()": {
						"details": "Leaves the contract without owner. It will not be possible to call `onlyOwner` functions. Can only be called by the current owner. NOTE: Renouncing ownership will leave the contract without an owner, thereby disabling any functionality that is only available to the owner."
					},
					"setPeer(uint32,bytes32)": {
						"details": "Calls setPeer on the ArbitrumProfileSender contract (only owner)"
					},
					"setProfileSender(address)": {
						"details": "Updates the profile sender contract address (only owner)"
					},
					"transferOwnership(address)": {
						"details": "Transfers ownership of the contract to a new account (`newOwner`). Can only be called by the current owner."
					},
					"upgradeToAndCall(address,bytes)": {
						"custom:oz-upgrades-unsafe-allow-reachable": "delegatecall",
						"details": "Upgrade the implementation of the proxy to `newImplementation`, and subsequently execute the function call encoded in `data`. Calls {_authorizeUpgrade}. Emits an {Upgraded} event."
					}
				},
				"title": "ProfileSenderWrapper",
				"version": 1
			},
			"evm": {
				"assembly": "    /* \"profile-sender-wrapper-uups.sol\":640:2601  contract ProfileSenderWrapper is Initializable, UUPSUpgradeable, OwnableUpgradeable {... */\n  mstore(0x40, 0xa0)\n    /* \"@openzeppelin/contracts-upgradeable/proxy/utils/UUPSUpgradeable.sol\":1171:1175  this */\n  address\n    /* \"@openzeppelin/contracts-upgradeable/proxy/utils/UUPSUpgradeable.sol\":1128:1176  address private immutable __self = address(this) */\n  0xffffffffffffffffffffffffffffffffffffffff\n  and\n  0x80\n  swap1\n  0xffffffffffffffffffffffffffffffffffffffff\n  and\n  dup2\n  mstore\n  pop\n    /* \"profile-sender-wrapper-uups.sol\":900:953  constructor() {... */\n  callvalue\n  dup1\n  iszero\n  tag_1\n  jumpi\n  0x00\n  dup1\n  revert\ntag_1:\n  pop\n    /* \"profile-sender-wrapper-uups.sol\":924:946  _disableInitializers() */\n  tag_4\n    /* \"profile-sender-wrapper-uups.sol\":924:944  _disableInitializers */\n  shl(0x20, tag_5)\n    /* \"profile-sender-wrapper-uups.sol\":924:946  _disableInitializers() */\n  0x20\n  shr\n  jump\t// in\ntag_4:\n    /* \"profile-sender-wrapper-uups.sol\":640:2601  contract ProfileSenderWrapper is Initializable, UUPSUpgradeable, OwnableUpgradeable {... */\n  jump(tag_6)\n    /* \"@openzeppelin/contracts-upgradeable/proxy/utils/Initializable.sol\":7709:8131  function _disableInitializers() internal virtual {... */\ntag_5:\n    /* \"@openzeppelin/contracts-upgradeable/proxy/utils/Initializable.sol\":7824:7854  InitializableStorage storage $ */\n  0x00\n    /* \"@openzeppelin/contracts-upgradeable/proxy/utils/Initializable.sol\":7857:7883  _getInitializableStorage() */\n  tag_8\n    /* \"@openzeppelin/contracts-upgradeable/proxy/utils/Initializable.sol\":7857:7881  _getInitializableStorage */\n  shl(0x20, tag_9)\n    /* \"@openzeppelin/contracts-upgradeable/proxy/utils/Initializable.sol\":7857:7883  _getInitializableStorage() */\n  0x20\n  shr\n  jump\t// in\ntag_8:\n    /* \"@openzeppelin/contracts-upgradeable/proxy/utils/Initializable.sol\":7824:7883  InitializableStorage storage $ = _getInitializableStorage() */\n  swap1\n  pop\n    /* \"@openzeppelin/contracts-upgradeable/proxy/utils/Initializable.sol\":7898:7899  $ */\n  dup1\n    /* \"@openzeppelin/contracts-upgradeable/proxy/utils/Initializable.sol\":7898:7913  $._initializing */\n  0x00\n  add\n  0x08\n  swap1\n  sload\n  swap1\n  0x0100\n  exp\n  swap1\n  div\n  0xff\n  and\n    /* \"@openzeppelin/contracts-upgradeable/proxy/utils/Initializable.sol\":7894:7970  if ($._initializing) {... */\n  iszero\n  tag_10\n  jumpi\n    /* \"@openzeppelin/contracts-upgradeable/proxy/utils/Initializable.sol\":7936:7959  InvalidInitialization() */\n  mload(0x40)\n  0xf92ee8a900000000000000000000000000000000000000000000000000000000\n  dup2\n  mstore\n  0x04\n  add\n  mload(0x40)\n  dup1\n  swap2\n  sub\n  swap1\n  revert\n    /* \"@openzeppelin/contracts-upgradeable/proxy/utils/Initializable.sol\":7894:7970  if ($._initializing) {... */\ntag_10:\n    /* \"@openzeppelin/contracts-upgradeable/proxy/utils/Initializable.sol\":8001:8017  type(uint64).max */\n  0xffffffffffffffff\n    /* \"@openzeppelin/contracts-upgradeable/proxy/utils/Initializable.sol\":7983:8017  $._initialized != type(uint64).max */\n  dup1\n  and\n    /* \"@openzeppelin/contracts-upgradeable/proxy/utils/Initializable.sol\":7983:7984  $ */\n  dup2\n    /* \"@openzeppelin/contracts-upgradeable/proxy/utils/Initializable.sol\":7983:7997  $._initialized */\n  0x00\n  add\n  0x00\n  swap1\n  sload\n  swap1\n  0x0100\n  exp\n  swap1\n  div\n  0xffffffffffffffff\n  and\n    /* \"@openzeppelin/contracts-upgradeable/proxy/utils/Initializable.sol\":7983:8017  $._initialized != type(uint64).max */\n  0xffffffffffffffff\n  and\n  eq\n    /* \"@openzeppelin/contracts-upgradeable/proxy/utils/Initializable.sol\":7979:8125  if ($._initialized != type(uint64).max) {... */\n  tag_11\n  jumpi\n    /* \"@openzeppelin/contracts-upgradeable/proxy/utils/Initializable.sol\":8050:8066  type(uint64).max */\n  0xffffffffffffffff\n    /* \"@openzeppelin/contracts-upgradeable/proxy/utils/Initializable.sol\":8033:8034  $ */\n  dup2\n    /* \"@openzeppelin/contracts-upgradeable/proxy/utils/Initializable.sol\":8033:8047  $._initialized */\n  0x00\n  add\n  0x00\n    /* \"@openzeppelin/contracts-upgradeable/proxy/utils/Initializable.sol\":8033:8066  $._initialized = type(uint64).max */\n  0x0100\n  exp\n  dup2\n  sload\n  dup2\n  0xffffffffffffffff\n  mul\n  not\n  and\n  swap1\n  dup4\n  0xffffffffffffffff\n  and\n  mul\n  or\n  swap1\n  sstore\n  pop\n    /* \"@openzeppelin/contracts-upgradeable/proxy/utils/Initializable.sol\":8085:8114  Initialized(type(uint64).max) */\n  0xc7f505b2f371ae2175ee4913f4499e1f2633a7b5936321eed1cdaeb6115181d2\n    /* \"@openzeppelin/contracts-upgradeable/proxy/utils/Initializable.sol\":8097:8113  type(uint64).max */\n  0xffffffffffffffff\n    /* \"@openzeppelin/contracts-upgradeable/proxy/utils/Initializable.sol\":8085:8114  Initialized(type(uint64).max) */\n  mload(0x40)\n  tag_12\n  swap2\n  swap1\n  tag_13\n  jump\t// in\ntag_12:\n  mload(0x40)\n  dup1\n  swap2\n  sub\n  swap1\n  log1\n    /* \"@openzeppelin/contracts-upgradeable/proxy/utils/Initializable.sol\":7979:8125  if ($._initialized != type(uint64).max) {... */\ntag_11:\n    /* \"@openzeppelin/contracts-upgradeable/proxy/utils/Initializable.sol\":7758:8131  {... */\n  pop\n    /* \"@openzeppelin/contracts-upgradeable/proxy/utils/Initializable.sol\":7709:8131  function _disableInitializers() internal virtual {... */\n  jump\t// out\n    /* \"@openzeppelin/contracts-upgradeable/proxy/utils/Initializable.sol\":9071:9276  function _getInitializableStorage() private pure returns (InitializableStorage storage $) {... */\ntag_9:\n    /* \"@openzeppelin/contracts-upgradeable/proxy/utils/Initializable.sol\":9129:9159  InitializableStorage storage $ */\n  0x00\n    /* \"@openzeppelin/contracts-upgradeable/proxy/utils/Initializable.sol\":9171:9183  bytes32 slot */\n  dup1\n    /* \"@openzeppelin/contracts-upgradeable/proxy/utils/Initializable.sol\":9186:9213  _initializableStorageSlot() */\n  tag_15\n    /* \"@openzeppelin/contracts-upgradeable/proxy/utils/Initializable.sol\":9186:9211  _initializableStorageSlot */\n  shl(0x20, tag_16)\n    /* \"@openzeppelin/contracts-upgradeable/proxy/utils/Initializable.sol\":9186:9213  _initializableStorageSlot() */\n  0x20\n  shr\n  jump\t// in\ntag_15:\n    /* \"@openzeppelin/contracts-upgradeable/proxy/utils/Initializable.sol\":9171:9213  bytes32 slot = _initializableStorageSlot() */\n  swap1\n  pop\n    /* \"@openzeppelin/contracts-upgradeable/proxy/utils/Initializable.sol\":9256:9260  slot */\n  dup1\n    /* \"@openzeppelin/contracts-upgradeable/proxy/utils/Initializable.sol\":9246:9260  $.slot := slot */\n  swap2\n  pop\n    /* \"@openzeppelin/contracts-upgradeable/proxy/utils/Initializable.sol\":9232:9270  {... */\n  pop\n    /* \"@openzeppelin/contracts-upgradeable/proxy/utils/Initializable.sol\":9071:9276  function _getInitializableStorage() private pure returns (InitializableStorage storage $) {... */\n  swap1\n  jump\t// out\n    /* \"@openzeppelin/contracts-upgradeable/proxy/utils/Initializable.sol\":8819:8941  function _initializableStorageSlot() internal pure virtual returns (bytes32) {... */\ntag_16:\n    /* \"@openzeppelin/contracts-upgradeable/proxy/utils/Initializable.sol\":8887:8894  bytes32 */\n  0x00\n    /* \"@openzeppelin/contracts-upgradeable/proxy/utils/Initializable.sol\":3147:3213  0xf0c57e16840df040f15088dc2f81fe391c3923bec73e23a9662efc9c229c6a00 */\n  0xf0c57e16840df040f15088dc2f81fe391c3923bec73e23a9662efc9c229c6a00\n    /* \"@openzeppelin/contracts-upgradeable/proxy/utils/Initializable.sol\":8913:8934  INITIALIZABLE_STORAGE */\n  0x00\n  shl\n    /* \"@openzeppelin/contracts-upgradeable/proxy/utils/Initializable.sol\":8906:8934  return INITIALIZABLE_STORAGE */\n  swap1\n  pop\n    /* \"@openzeppelin/contracts-upgradeable/proxy/utils/Initializable.sol\":8819:8941  function _initializableStorageSlot() internal pure virtual returns (bytes32) {... */\n  swap1\n  jump\t// out\n    /* \"#utility.yul\":7:108   */\ntag_18:\n    /* \"#utility.yul\":43:50   */\n  0x00\n    /* \"#utility.yul\":83:101   */\n  0xffffffffffffffff\n    /* \"#utility.yul\":76:81   */\n  dup3\n    /* \"#utility.yul\":72:102   */\n  and\n    /* \"#utility.yul\":61:102   */\n  swap1\n  pop\n    /* \"#utility.yul\":7:108   */\n  swap2\n  swap1\n  pop\n  jump\t// out\n    /* \"#utility.yul\":114:229   */\ntag_19:\n    /* \"#utility.yul\":199:222   */\n  tag_23\n    /* \"#utility.yul\":216:221   */\n  dup2\n    /* \"#utility.yul\":199:222   */\n  tag_18\n  jump\t// in\ntag_23:\n    /* \"#utility.yul\":194:197   */\n  dup3\n    /* \"#utility.yul\":187:223   */\n  mstore\n    /* \"#utility.yul\":114:229   */\n  pop\n  pop\n  jump\t// out\n    /* \"#utility.yul\":235:453   */\ntag_13:\n    /* \"#utility.yul\":326:330   */\n  0x00\n    /* \"#utility.yul\":364:366   */\n  0x20\n    /* \"#utility.yul\":353:362   */\n  dup3\n    /* \"#utility.yul\":349:367   */\n  add\n    /* \"#utility.yul\":341:367   */\n  swap1\n  pop\n    /* \"#utility.yul\":377:446   */\n  tag_25\n    /* \"#utility.yul\":443:444   */\n  0x00\n    /* \"#utility.yul\":432:441   */\n  dup4\n    /* \"#utility.yul\":428:445   */\n  add\n    /* \"#utility.yul\":419:425   */\n  dup5\n    /* \"#utility.yul\":377:446   */\n  tag_19\n  jump\t// in\ntag_25:\n    /* \"#utility.yul\":235:453   */\n  swap3\n  swap2\n  pop\n  pop\n  jump\t// out\n    /* \"profile-sender-wrapper-uups.sol\":640:2601  contract ProfileSenderWrapper is Initializable, UUPSUpgradeable, OwnableUpgradeable {... */\ntag_6:\n  mload(0x80)\n  codecopy(0x00, dataOffset(sub_0), dataSize(sub_0))\n  0x00\n  assignImmutable(\"0x4ce4dab4689da140a0c12de1a6af6b8f679594aeb723205f513e052d27f5b26f\")\n  return(0x00, dataSize(sub_0))\nstop\n\nsub_0: assembly {\n        /* \"profile-sender-wrapper-uups.sol\":640:2601  contract ProfileSenderWrapper is Initializable, UUPSUpgradeable, OwnableUpgradeable {... */\n      mstore(0x40, 0x80)\n      jumpi(tag_1, lt(calldatasize, 0x04))\n      shr(0xe0, calldataload(0x00))\n      dup1\n      0x715018a6\n      gt\n      tag_14\n      jumpi\n      dup1\n      0x715018a6\n      eq\n      tag_8\n      jumpi\n      dup1\n      0x8da5cb5b\n      eq\n      tag_9\n      jumpi\n      dup1\n      0xa6b31389\n      eq\n      tag_10\n      jumpi\n      dup1\n      0xad3cb1cc\n      eq\n      tag_11\n      jumpi\n      dup1\n      0xc4d66de8\n      eq\n      tag_12\n      jumpi\n      dup1\n      0xf2fde38b\n      eq\n      tag_13\n      jumpi\n      jump(tag_1)\n    tag_14:\n      dup1\n      0x0f0322ad\n      eq\n      tag_2\n      jumpi\n      dup1\n      0x306e1d95\n      eq\n      tag_3\n      jumpi\n      dup1\n      0x3400288b\n      eq\n      tag_4\n      jumpi\n      dup1\n      0x485cc955\n      eq\n      tag_5\n      jumpi\n      dup1\n      0x4f1ef286\n      eq\n      tag_6\n      jumpi\n      dup1\n      0x52d1902d\n      eq\n      tag_7\n      jumpi\n    tag_1:\n      0x00\n      dup1\n      revert\n        /* \"profile-sender-wrapper-uups.sol\":730:773  IArbitrumProfileSender public profileSender */\n    tag_2:\n      callvalue\n      dup1\n      iszero\n      tag_15\n      jumpi\n      0x00\n      dup1\n      revert\n    tag_15:\n      pop\n      tag_16\n      tag_17\n      jump\t// in\n    tag_16:\n      mload(0x40)\n      tag_18\n      swap2\n      swap1\n      tag_19\n      jump\t// in\n    tag_18:\n      mload(0x40)\n      dup1\n      swap2\n      sub\n      swap1\n      return\n        /* \"profile-sender-wrapper-uups.sol\":1553:1863  function createProfile(... */\n    tag_3:\n      tag_20\n      0x04\n      dup1\n      calldatasize\n      sub\n      dup2\n      add\n      swap1\n      tag_21\n      swap2\n      swap1\n      tag_22\n      jump\t// in\n    tag_21:\n      tag_23\n      jump\t// in\n    tag_20:\n      stop\n        /* \"profile-sender-wrapper-uups.sol\":1962:2157  function setPeer(uint32 _eid, bytes32 _peer) external onlyOwner {... */\n    tag_4:\n      callvalue\n      dup1\n      iszero\n      tag_24\n      jumpi\n      0x00\n      dup1\n      revert\n    tag_24:\n      pop\n      tag_25\n      0x04\n      dup1\n      calldatasize\n      sub\n      dup2\n      add\n      swap1\n      tag_26\n      swap2\n      swap1\n      tag_27\n      jump\t// in\n    tag_26:\n      tag_28\n      jump\t// in\n    tag_25:\n      stop\n        /* \"profile-sender-wrapper-uups.sol\":1245:1461  function initialize(address _profileSender, address _owner) public initializer {... */\n    tag_5:\n      callvalue\n      dup1\n      iszero\n      tag_29\n      jumpi\n      0x00\n      dup1\n      revert\n    tag_29:\n      pop\n      tag_30\n      0x04\n      dup1\n      calldatasize\n      sub\n      dup2\n      add\n      swap1\n      tag_31\n      swap2\n      swap1\n      tag_32\n      jump\t// in\n    tag_31:\n      tag_33\n      jump\t// in\n    tag_30:\n      stop\n        /* \"@openzeppelin/contracts-upgradeable/proxy/utils/UUPSUpgradeable.sol\":4161:4375  function upgradeToAndCall(address newImplementation, bytes memory data) public payable virtual onlyProxy {... */\n    tag_6:\n      tag_34\n      0x04\n      dup1\n      calldatasize\n      sub\n      dup2\n      add\n      swap1\n      tag_35\n      swap2\n      swap1\n      tag_36\n      jump\t// in\n    tag_35:\n      tag_37\n      jump\t// in\n    tag_34:\n      stop\n        /* \"@openzeppelin/contracts-upgradeable/proxy/utils/UUPSUpgradeable.sol\":3708:3842  function proxiableUUID() external view virtual notDelegated returns (bytes32) {... */\n    tag_7:\n      callvalue\n      dup1\n      iszero\n      tag_38\n      jumpi\n      0x00\n      dup1\n      revert\n    tag_38:\n      pop\n      tag_39\n      tag_40\n      jump\t// in\n    tag_39:\n      mload(0x40)\n      tag_41\n      swap2\n      swap1\n      tag_42\n      jump\t// in\n    tag_41:\n      mload(0x40)\n      dup1\n      swap2\n      sub\n      swap1\n      return\n        /* \"@openzeppelin/contracts-upgradeable/access/OwnableUpgradeable.sol\":3155:3256  function renounceOwnership() public virtual onlyOwner {... */\n    tag_8:\n      callvalue\n      dup1\n      iszero\n      tag_43\n      jumpi\n      0x00\n      dup1\n      revert\n    tag_43:\n      pop\n      tag_44\n      tag_45\n      jump\t// in\n    tag_44:\n      stop\n        /* \"@openzeppelin/contracts-upgradeable/access/OwnableUpgradeable.sol\":2441:2585  function owner() public view virtual returns (address) {... */\n    tag_9:\n      callvalue\n      dup1\n      iszero\n      tag_46\n      jumpi\n      0x00\n      dup1\n      revert\n    tag_46:\n      pop\n      tag_47\n      tag_48\n      jump\t// in\n    tag_47:\n      mload(0x40)\n      tag_49\n      swap2\n      swap1\n      tag_50\n      jump\t// in\n    tag_49:\n      mload(0x40)\n      dup1\n      swap2\n      sub\n      swap1\n      return\n        /* \"profile-sender-wrapper-uups.sol\":2248:2439  function setProfileSender(address _profileSender) external onlyOwner {... */\n    tag_10:\n      callvalue\n      dup1\n      iszero\n      tag_51\n      jumpi\n      0x00\n      dup1\n      revert\n    tag_51:\n      pop\n      tag_52\n      0x04\n      dup1\n      calldatasize\n      sub\n      dup2\n      add\n      swap1\n      tag_53\n      swap2\n      swap1\n      tag_54\n      jump\t// in\n    tag_53:\n      tag_55\n      jump\t// in\n    tag_52:\n      stop\n        /* \"@openzeppelin/contracts-upgradeable/proxy/utils/UUPSUpgradeable.sol\":1819:1877  string public constant UPGRADE_INTERFACE_VERSION = \"5.0.0\" */\n    tag_11:\n      callvalue\n      dup1\n      iszero\n      tag_56\n      jumpi\n      0x00\n      dup1\n      revert\n    tag_56:\n      pop\n      tag_57\n      tag_58\n      jump\t// in\n    tag_57:\n      mload(0x40)\n      tag_59\n      swap2\n      swap1\n      tag_60\n      jump\t// in\n    tag_59:\n      mload(0x40)\n      dup1\n      swap2\n      sub\n      swap1\n      return\n        /* \"profile-sender-wrapper-uups.sol\":959:1151  function initialize(address _owner) public initializer {... */\n    tag_12:\n      callvalue\n      dup1\n      iszero\n      tag_61\n      jumpi\n      0x00\n      dup1\n      revert\n    tag_61:\n      pop\n      tag_62\n      0x04\n      dup1\n      calldatasize\n      sub\n      dup2\n      add\n      swap1\n      tag_63\n      swap2\n      swap1\n      tag_54\n      jump\t// in\n    tag_63:\n      tag_64\n      jump\t// in\n    tag_62:\n      stop\n        /* \"@openzeppelin/contracts-upgradeable/access/OwnableUpgradeable.sol\":3405:3620  function transferOwnership(address newOwner) public virtual onlyOwner {... */\n    tag_13:\n      callvalue\n      dup1\n      iszero\n      tag_65\n      jumpi\n      0x00\n      dup1\n      revert\n    tag_65:\n      pop\n      tag_66\n      0x04\n      dup1\n      calldatasize\n      sub\n      dup2\n      add\n      swap1\n      tag_67\n      swap2\n      swap1\n      tag_54\n      jump\t// in\n    tag_67:\n      tag_68\n      jump\t// in\n    tag_66:\n      stop\n        /* \"profile-sender-wrapper-uups.sol\":730:773  IArbitrumProfileSender public profileSender */\n    tag_17:\n      0x00\n      dup1\n      sload\n      swap1\n      0x0100\n      exp\n      swap1\n      div\n      0xffffffffffffffffffffffffffffffffffffffff\n      and\n      dup2\n      jump\t// out\n        /* \"profile-sender-wrapper-uups.sol\":1553:1863  function createProfile(... */\n    tag_23:\n        /* \"profile-sender-wrapper-uups.sol\":1743:1744  0 */\n      0x00\n        /* \"profile-sender-wrapper-uups.sol\":1709:1745  address(profileSender) != address(0) */\n      0xffffffffffffffffffffffffffffffffffffffff\n      and\n        /* \"profile-sender-wrapper-uups.sol\":1717:1730  profileSender */\n      0x00\n      dup1\n      sload\n      swap1\n      0x0100\n      exp\n      swap1\n      div\n      0xffffffffffffffffffffffffffffffffffffffff\n      and\n        /* \"profile-sender-wrapper-uups.sol\":1709:1745  address(profileSender) != address(0) */\n      0xffffffffffffffffffffffffffffffffffffffff\n      and\n      sub\n        /* \"profile-sender-wrapper-uups.sol\":1701:1771  require(address(profileSender) != address(0), \"ProfileSender not set\") */\n      tag_70\n      jumpi\n      mload(0x40)\n      0x08c379a000000000000000000000000000000000000000000000000000000000\n      dup2\n      mstore\n      0x04\n      add\n      tag_71\n      swap1\n      tag_72\n      jump\t// in\n    tag_71:\n      mload(0x40)\n      dup1\n      swap2\n      sub\n      swap1\n      revert\n    tag_70:\n        /* \"profile-sender-wrapper-uups.sol\":1781:1794  profileSender */\n      0x00\n      dup1\n      sload\n      swap1\n      0x0100\n      exp\n      swap1\n      div\n      0xffffffffffffffffffffffffffffffffffffffff\n      and\n        /* \"profile-sender-wrapper-uups.sol\":1781:1808  profileSender.createProfile */\n      0xffffffffffffffffffffffffffffffffffffffff\n      and\n      0x306e1d95\n        /* \"profile-sender-wrapper-uups.sol\":1816:1825  msg.value */\n      callvalue\n        /* \"profile-sender-wrapper-uups.sol\":1827:1834  _dstEid */\n      dup8\n        /* \"profile-sender-wrapper-uups.sol\":1836:1845  _username */\n      dup8\n      dup8\n        /* \"profile-sender-wrapper-uups.sol\":1847:1855  _options */\n      dup8\n      dup8\n        /* \"profile-sender-wrapper-uups.sol\":1781:1856  profileSender.createProfile{value: msg.value}(_dstEid, _username, _options) */\n      mload(0x40)\n      dup8\n      0xffffffff\n      and\n      0xe0\n      shl\n      dup2\n      mstore\n      0x04\n      add\n      tag_73\n      swap6\n      swap5\n      swap4\n      swap3\n      swap2\n      swap1\n      tag_74\n      jump\t// in\n    tag_73:\n      0x00\n      mload(0x40)\n      dup1\n      dup4\n      sub\n      dup2\n      dup6\n      dup9\n      dup1\n      extcodesize\n      iszero\n      dup1\n      iszero\n      tag_75\n      jumpi\n      0x00\n      dup1\n      revert\n    tag_75:\n      pop\n      gas\n      call\n      iszero\n      dup1\n      iszero\n      tag_77\n      jumpi\n      returndatasize\n      0x00\n      dup1\n      returndatacopy\n      revert(0x00, returndatasize)\n    tag_77:\n      pop\n      pop\n      pop\n      pop\n      pop\n        /* \"profile-sender-wrapper-uups.sol\":1553:1863  function createProfile(... */\n      pop\n      pop\n      pop\n      pop\n      pop\n      jump\t// out\n        /* \"profile-sender-wrapper-uups.sol\":1962:2157  function setPeer(uint32 _eid, bytes32 _peer) external onlyOwner {... */\n    tag_28:\n        /* \"@openzeppelin/contracts-upgradeable/access/OwnableUpgradeable.sol\":2334:2347  _checkOwner() */\n      tag_79\n        /* \"@openzeppelin/contracts-upgradeable/access/OwnableUpgradeable.sol\":2334:2345  _checkOwner */\n      tag_80\n        /* \"@openzeppelin/contracts-upgradeable/access/OwnableUpgradeable.sol\":2334:2347  _checkOwner() */\n      jump\t// in\n    tag_79:\n        /* \"profile-sender-wrapper-uups.sol\":2078:2079  0 */\n      0x00\n        /* \"profile-sender-wrapper-uups.sol\":2044:2080  address(profileSender) != address(0) */\n      0xffffffffffffffffffffffffffffffffffffffff\n      and\n        /* \"profile-sender-wrapper-uups.sol\":2052:2065  profileSender */\n      0x00\n      dup1\n      sload\n      swap1\n      0x0100\n      exp\n      swap1\n      div\n      0xffffffffffffffffffffffffffffffffffffffff\n      and\n        /* \"profile-sender-wrapper-uups.sol\":2044:2080  address(profileSender) != address(0) */\n      0xffffffffffffffffffffffffffffffffffffffff\n      and\n      sub\n        /* \"profile-sender-wrapper-uups.sol\":2036:2106  require(address(profileSender) != address(0), \"ProfileSender not set\") */\n      tag_82\n      jumpi\n      mload(0x40)\n      0x08c379a000000000000000000000000000000000000000000000000000000000\n      dup2\n      mstore\n      0x04\n      add\n      tag_83\n      swap1\n      tag_72\n      jump\t// in\n    tag_83:\n      mload(0x40)\n      dup1\n      swap2\n      sub\n      swap1\n      revert\n    tag_82:\n        /* \"profile-sender-wrapper-uups.sol\":2116:2129  profileSender */\n      0x00\n      dup1\n      sload\n      swap1\n      0x0100\n      exp\n      swap1\n      div\n      0xffffffffffffffffffffffffffffffffffffffff\n      and\n        /* \"profile-sender-wrapper-uups.sol\":2116:2137  profileSender.setPeer */\n      0xffffffffffffffffffffffffffffffffffffffff\n      and\n      0x3400288b\n        /* \"profile-sender-wrapper-uups.sol\":2138:2142  _eid */\n      dup4\n        /* \"profile-sender-wrapper-uups.sol\":2144:2149  _peer */\n      dup4\n        /* \"profile-sender-wrapper-uups.sol\":2116:2150  profileSender.setPeer(_eid, _peer) */\n      mload(0x40)\n      dup4\n      0xffffffff\n      and\n      0xe0\n      shl\n      dup2\n      mstore\n      0x04\n      add\n      tag_84\n      swap3\n      swap2\n      swap1\n      tag_85\n      jump\t// in\n    tag_84:\n      0x00\n      mload(0x40)\n      dup1\n      dup4\n      sub\n      dup2\n      0x00\n      dup8\n      dup1\n      extcodesize\n      iszero\n      dup1\n      iszero\n      tag_86\n      jumpi\n      0x00\n      dup1\n      revert\n    tag_86:\n      pop\n      gas\n      call\n      iszero\n      dup1\n      iszero\n      tag_88\n      jumpi\n      returndatasize\n      0x00\n      dup1\n      returndatacopy\n      revert(0x00, returndatasize)\n    tag_88:\n      pop\n      pop\n      pop\n      pop\n        /* \"profile-sender-wrapper-uups.sol\":1962:2157  function setPeer(uint32 _eid, bytes32 _peer) external onlyOwner {... */\n      pop\n      pop\n      jump\t// out\n        /* \"profile-sender-wrapper-uups.sol\":1245:1461  function initialize(address _profileSender, address _owner) public initializer {... */\n    tag_33:\n        /* \"@openzeppelin/contracts-upgradeable/proxy/utils/Initializable.sol\":4158:4188  InitializableStorage storage $ */\n      0x00\n        /* \"@openzeppelin/contracts-upgradeable/proxy/utils/Initializable.sol\":4191:4217  _getInitializableStorage() */\n      tag_90\n        /* \"@openzeppelin/contracts-upgradeable/proxy/utils/Initializable.sol\":4191:4215  _getInitializableStorage */\n      tag_91\n        /* \"@openzeppelin/contracts-upgradeable/proxy/utils/Initializable.sol\":4191:4217  _getInitializableStorage() */\n      jump\t// in\n    tag_90:\n        /* \"@openzeppelin/contracts-upgradeable/proxy/utils/Initializable.sol\":4158:4217  InitializableStorage storage $ = _getInitializableStorage() */\n      swap1\n      pop\n        /* \"@openzeppelin/contracts-upgradeable/proxy/utils/Initializable.sol\":4279:4298  bool isTopLevelCall */\n      0x00\n        /* \"@openzeppelin/contracts-upgradeable/proxy/utils/Initializable.sol\":4302:4303  $ */\n      dup2\n        /* \"@openzeppelin/contracts-upgradeable/proxy/utils/Initializable.sol\":4302:4317  $._initializing */\n      0x00\n      add\n      0x08\n      swap1\n      sload\n      swap1\n      0x0100\n      exp\n      swap1\n      div\n      0xff\n      and\n        /* \"@openzeppelin/contracts-upgradeable/proxy/utils/Initializable.sol\":4301:4317  !$._initializing */\n      iszero\n        /* \"@openzeppelin/contracts-upgradeable/proxy/utils/Initializable.sol\":4279:4317  bool isTopLevelCall = !$._initializing */\n      swap1\n      pop\n        /* \"@openzeppelin/contracts-upgradeable/proxy/utils/Initializable.sol\":4327:4345  uint64 initialized */\n      0x00\n        /* \"@openzeppelin/contracts-upgradeable/proxy/utils/Initializable.sol\":4348:4349  $ */\n      dup3\n        /* \"@openzeppelin/contracts-upgradeable/proxy/utils/Initializable.sol\":4348:4362  $._initialized */\n      0x00\n      add\n      0x00\n      swap1\n      sload\n      swap1\n      0x0100\n      exp\n      swap1\n      div\n      0xffffffffffffffff\n      and\n        /* \"@openzeppelin/contracts-upgradeable/proxy/utils/Initializable.sol\":4327:4362  uint64 initialized = $._initialized */\n      swap1\n      pop\n        /* \"@openzeppelin/contracts-upgradeable/proxy/utils/Initializable.sol\":4704:4721  bool initialSetup */\n      0x00\n        /* \"@openzeppelin/contracts-upgradeable/proxy/utils/Initializable.sol\":4739:4740  0 */\n      dup1\n        /* \"@openzeppelin/contracts-upgradeable/proxy/utils/Initializable.sol\":4724:4735  initialized */\n      dup3\n        /* \"@openzeppelin/contracts-upgradeable/proxy/utils/Initializable.sol\":4724:4740  initialized == 0 */\n      0xffffffffffffffff\n      and\n      eq\n        /* \"@openzeppelin/contracts-upgradeable/proxy/utils/Initializable.sol\":4724:4758  initialized == 0 && isTopLevelCall */\n      dup1\n      iszero\n      tag_92\n      jumpi\n      pop\n        /* \"@openzeppelin/contracts-upgradeable/proxy/utils/Initializable.sol\":4744:4758  isTopLevelCall */\n      dup3\n        /* \"@openzeppelin/contracts-upgradeable/proxy/utils/Initializable.sol\":4724:4758  initialized == 0 && isTopLevelCall */\n    tag_92:\n        /* \"@openzeppelin/contracts-upgradeable/proxy/utils/Initializable.sol\":4704:4758  bool initialSetup = initialized == 0 && isTopLevelCall */\n      swap1\n      pop\n        /* \"@openzeppelin/contracts-upgradeable/proxy/utils/Initializable.sol\":4768:4785  bool construction */\n      0x00\n        /* \"@openzeppelin/contracts-upgradeable/proxy/utils/Initializable.sol\":4803:4804  1 */\n      0x01\n        /* \"@openzeppelin/contracts-upgradeable/proxy/utils/Initializable.sol\":4788:4799  initialized */\n      dup4\n        /* \"@openzeppelin/contracts-upgradeable/proxy/utils/Initializable.sol\":4788:4804  initialized == 1 */\n      0xffffffffffffffff\n      and\n      eq\n        /* \"@openzeppelin/contracts-upgradeable/proxy/utils/Initializable.sol\":4788:4838  initialized == 1 && address(this).code.length == 0 */\n      dup1\n      iszero\n      tag_93\n      jumpi\n      pop\n        /* \"@openzeppelin/contracts-upgradeable/proxy/utils/Initializable.sol\":4837:4838  0 */\n      0x00\n        /* \"@openzeppelin/contracts-upgradeable/proxy/utils/Initializable.sol\":4816:4820  this */\n      address\n        /* \"@openzeppelin/contracts-upgradeable/proxy/utils/Initializable.sol\":4808:4833  address(this).code.length */\n      0xffffffffffffffffffffffffffffffffffffffff\n      and\n      extcodesize\n        /* \"@openzeppelin/contracts-upgradeable/proxy/utils/Initializable.sol\":4808:4838  address(this).code.length == 0 */\n      eq\n        /* \"@openzeppelin/contracts-upgradeable/proxy/utils/Initializable.sol\":4788:4838  initialized == 1 && address(this).code.length == 0 */\n    tag_93:\n        /* \"@openzeppelin/contracts-upgradeable/proxy/utils/Initializable.sol\":4768:4838  bool construction = initialized == 1 && address(this).code.length == 0 */\n      swap1\n      pop\n        /* \"@openzeppelin/contracts-upgradeable/proxy/utils/Initializable.sol\":4854:4866  initialSetup */\n      dup2\n        /* \"@openzeppelin/contracts-upgradeable/proxy/utils/Initializable.sol\":4853:4866  !initialSetup */\n      iszero\n        /* \"@openzeppelin/contracts-upgradeable/proxy/utils/Initializable.sol\":4853:4883  !initialSetup && !construction */\n      dup1\n      iszero\n      tag_94\n      jumpi\n      pop\n        /* \"@openzeppelin/contracts-upgradeable/proxy/utils/Initializable.sol\":4871:4883  construction */\n      dup1\n        /* \"@openzeppelin/contracts-upgradeable/proxy/utils/Initializable.sol\":4870:4883  !construction */\n      iszero\n        /* \"@openzeppelin/contracts-upgradeable/proxy/utils/Initializable.sol\":4853:4883  !initialSetup && !construction */\n    tag_94:\n        /* \"@openzeppelin/contracts-upgradeable/proxy/utils/Initializable.sol\":4849:4940  if (!initialSetup && !construction) {... */\n      iszero\n      tag_95\n      jumpi\n        /* \"@openzeppelin/contracts-upgradeable/proxy/utils/Initializable.sol\":4906:4929  InvalidInitialization() */\n      mload(0x40)\n      0xf92ee8a900000000000000000000000000000000000000000000000000000000\n      dup2\n      mstore\n      0x04\n      add\n      mload(0x40)\n      dup1\n      swap2\n      sub\n      swap1\n      revert\n        /* \"@openzeppelin/contracts-upgradeable/proxy/utils/Initializable.sol\":4849:4940  if (!initialSetup && !construction) {... */\n    tag_95:\n        /* \"@openzeppelin/contracts-upgradeable/proxy/utils/Initializable.sol\":4966:4967  1 */\n      0x01\n        /* \"@openzeppelin/contracts-upgradeable/proxy/utils/Initializable.sol\":4949:4950  $ */\n      dup6\n        /* \"@openzeppelin/contracts-upgradeable/proxy/utils/Initializable.sol\":4949:4963  $._initialized */\n      0x00\n      add\n      0x00\n        /* \"@openzeppelin/contracts-upgradeable/proxy/utils/Initializable.sol\":4949:4967  $._initialized = 1 */\n      0x0100\n      exp\n      dup2\n      sload\n      dup2\n      0xffffffffffffffff\n      mul\n      not\n      and\n      swap1\n      dup4\n      0xffffffffffffffff\n      and\n      mul\n      or\n      swap1\n      sstore\n      pop\n        /* \"@openzeppelin/contracts-upgradeable/proxy/utils/Initializable.sol\":4981:4995  isTopLevelCall */\n      dup4\n        /* \"@openzeppelin/contracts-upgradeable/proxy/utils/Initializable.sol\":4977:5044  if (isTopLevelCall) {... */\n      iszero\n      tag_96\n      jumpi\n        /* \"@openzeppelin/contracts-upgradeable/proxy/utils/Initializable.sol\":5029:5033  true */\n      0x01\n        /* \"@openzeppelin/contracts-upgradeable/proxy/utils/Initializable.sol\":5011:5012  $ */\n      dup6\n        /* \"@openzeppelin/contracts-upgradeable/proxy/utils/Initializable.sol\":5011:5026  $._initializing */\n      0x00\n      add\n      0x08\n        /* \"@openzeppelin/contracts-upgradeable/proxy/utils/Initializable.sol\":5011:5033  $._initializing = true */\n      0x0100\n      exp\n      dup2\n      sload\n      dup2\n      0xff\n      mul\n      not\n      and\n      swap1\n      dup4\n      iszero\n      iszero\n      mul\n      or\n      swap1\n      sstore\n      pop\n        /* \"@openzeppelin/contracts-upgradeable/proxy/utils/Initializable.sol\":4977:5044  if (isTopLevelCall) {... */\n    tag_96:\n        /* \"profile-sender-wrapper-uups.sol\":1334:1356  __Ownable_init(_owner) */\n      tag_98\n        /* \"profile-sender-wrapper-uups.sol\":1349:1355  _owner */\n      dup7\n        /* \"profile-sender-wrapper-uups.sol\":1334:1348  __Ownable_init */\n      tag_99\n        /* \"profile-sender-wrapper-uups.sol\":1334:1356  __Ownable_init(_owner) */\n      jump\t// in\n    tag_98:\n        /* \"profile-sender-wrapper-uups.sol\":1366:1390  __UUPSUpgradeable_init() */\n      tag_100\n        /* \"profile-sender-wrapper-uups.sol\":1366:1388  __UUPSUpgradeable_init */\n      tag_101\n        /* \"profile-sender-wrapper-uups.sol\":1366:1390  __UUPSUpgradeable_init() */\n      jump\t// in\n    tag_100:\n        /* \"profile-sender-wrapper-uups.sol\":1439:1453  _profileSender */\n      dup7\n        /* \"profile-sender-wrapper-uups.sol\":1400:1413  profileSender */\n      0x00\n      dup1\n        /* \"profile-sender-wrapper-uups.sol\":1400:1454  profileSender = IArbitrumProfileSender(_profileSender) */\n      0x0100\n      exp\n      dup2\n      sload\n      dup2\n      0xffffffffffffffffffffffffffffffffffffffff\n      mul\n      not\n      and\n      swap1\n      dup4\n      0xffffffffffffffffffffffffffffffffffffffff\n      and\n      mul\n      or\n      swap1\n      sstore\n      pop\n        /* \"@openzeppelin/contracts-upgradeable/proxy/utils/Initializable.sol\":5068:5082  isTopLevelCall */\n      dup4\n        /* \"@openzeppelin/contracts-upgradeable/proxy/utils/Initializable.sol\":5064:5165  if (isTopLevelCall) {... */\n      iszero\n      tag_102\n      jumpi\n        /* \"@openzeppelin/contracts-upgradeable/proxy/utils/Initializable.sol\":5116:5121  false */\n      0x00\n        /* \"@openzeppelin/contracts-upgradeable/proxy/utils/Initializable.sol\":5098:5099  $ */\n      dup6\n        /* \"@openzeppelin/contracts-upgradeable/proxy/utils/Initializable.sol\":5098:5113  $._initializing */\n      0x00\n      add\n      0x08\n        /* \"@openzeppelin/contracts-upgradeable/proxy/utils/Initializable.sol\":5098:5121  $._initializing = false */\n      0x0100\n      exp\n      dup2\n      sload\n      dup2\n      0xff\n      mul\n      not\n      and\n      swap1\n      dup4\n      iszero\n      iszero\n      mul\n      or\n      swap1\n      sstore\n      pop\n        /* \"@openzeppelin/contracts-upgradeable/proxy/utils/Initializable.sol\":5140:5154  Initialized(1) */\n      0xc7f505b2f371ae2175ee4913f4499e1f2633a7b5936321eed1cdaeb6115181d2\n        /* \"@openzeppelin/contracts-upgradeable/proxy/utils/Initializable.sol\":5152:5153  1 */\n      0x01\n        /* \"@openzeppelin/contracts-upgradeable/proxy/utils/Initializable.sol\":5140:5154  Initialized(1) */\n      mload(0x40)\n      tag_103\n      swap2\n      swap1\n      tag_104\n      jump\t// in\n    tag_103:\n      mload(0x40)\n      dup1\n      swap2\n      sub\n      swap1\n      log1\n        /* \"@openzeppelin/contracts-upgradeable/proxy/utils/Initializable.sol\":5064:5165  if (isTopLevelCall) {... */\n    tag_102:\n        /* \"@openzeppelin/contracts-upgradeable/proxy/utils/Initializable.sol\":4092:5171  {... */\n      pop\n      pop\n      pop\n      pop\n      pop\n        /* \"profile-sender-wrapper-uups.sol\":1245:1461  function initialize(address _profileSender, address _owner) public initializer {... */\n      pop\n      pop\n      jump\t// out\n        /* \"@openzeppelin/contracts-upgradeable/proxy/utils/UUPSUpgradeable.sol\":4161:4375  function upgradeToAndCall(address newImplementation, bytes memory data) public payable virtual onlyProxy {... */\n    tag_37:\n        /* \"@openzeppelin/contracts-upgradeable/proxy/utils/UUPSUpgradeable.sol\":2655:2668  _checkProxy() */\n      tag_106\n        /* \"@openzeppelin/contracts-upgradeable/proxy/utils/UUPSUpgradeable.sol\":2655:2666  _checkProxy */\n      tag_107\n        /* \"@openzeppelin/contracts-upgradeable/proxy/utils/UUPSUpgradeable.sol\":2655:2668  _checkProxy() */\n      jump\t// in\n    tag_106:\n        /* \"@openzeppelin/contracts-upgradeable/proxy/utils/UUPSUpgradeable.sol\":4276:4312  _authorizeUpgrade(newImplementation) */\n      tag_109\n        /* \"@openzeppelin/contracts-upgradeable/proxy/utils/UUPSUpgradeable.sol\":4294:4311  newImplementation */\n      dup3\n        /* \"@openzeppelin/contracts-upgradeable/proxy/utils/UUPSUpgradeable.sol\":4276:4293  _authorizeUpgrade */\n      tag_110\n        /* \"@openzeppelin/contracts-upgradeable/proxy/utils/UUPSUpgradeable.sol\":4276:4312  _authorizeUpgrade(newImplementation) */\n      jump\t// in\n    tag_109:\n        /* \"@openzeppelin/contracts-upgradeable/proxy/utils/UUPSUpgradeable.sol\":4322:4368  _upgradeToAndCallUUPS(newImplementation, data) */\n      tag_111\n        /* \"@openzeppelin/contracts-upgradeable/proxy/utils/UUPSUpgradeable.sol\":4344:4361  newImplementation */\n      dup3\n        /* \"@openzeppelin/contracts-upgradeable/proxy/utils/UUPSUpgradeable.sol\":4363:4367  data */\n      dup3\n        /* \"@openzeppelin/contracts-upgradeable/proxy/utils/UUPSUpgradeable.sol\":4322:4343  _upgradeToAndCallUUPS */\n      tag_112\n        /* \"@openzeppelin/contracts-upgradeable/proxy/utils/UUPSUpgradeable.sol\":4322:4368  _upgradeToAndCallUUPS(newImplementation, data) */\n      jump\t// in\n    tag_111:\n        /* \"@openzeppelin/contracts-upgradeable/proxy/utils/UUPSUpgradeable.sol\":4161:4375  function upgradeToAndCall(address newImplementation, bytes memory data) public payable virtual onlyProxy {... */\n      pop\n      pop\n      jump\t// out\n        /* \"@openzeppelin/contracts-upgradeable/proxy/utils/UUPSUpgradeable.sol\":3708:3842  function proxiableUUID() external view virtual notDelegated returns (bytes32) {... */\n    tag_40:\n        /* \"@openzeppelin/contracts-upgradeable/proxy/utils/UUPSUpgradeable.sol\":3777:3784  bytes32 */\n      0x00\n        /* \"@openzeppelin/contracts-upgradeable/proxy/utils/UUPSUpgradeable.sol\":2926:2946  _checkNotDelegated() */\n      tag_114\n        /* \"@openzeppelin/contracts-upgradeable/proxy/utils/UUPSUpgradeable.sol\":2926:2944  _checkNotDelegated */\n      tag_115\n        /* \"@openzeppelin/contracts-upgradeable/proxy/utils/UUPSUpgradeable.sol\":2926:2946  _checkNotDelegated() */\n      jump\t// in\n    tag_114:\n        /* \"@openzeppelin/contracts/proxy/ERC1967/ERC1967Utils.sol\":811:877  0x360894a13ba1a3210667c828492db98dca3e2076cc3735a920a3ca505d382bbc */\n      0x360894a13ba1a3210667c828492db98dca3e2076cc3735a920a3ca505d382bbc\n        /* \"@openzeppelin/contracts-upgradeable/proxy/utils/UUPSUpgradeable.sol\":3803:3835  ERC1967Utils.IMPLEMENTATION_SLOT */\n      0x00\n      shl\n        /* \"@openzeppelin/contracts-upgradeable/proxy/utils/UUPSUpgradeable.sol\":3796:3835  return ERC1967Utils.IMPLEMENTATION_SLOT */\n      swap1\n      pop\n        /* \"@openzeppelin/contracts-upgradeable/proxy/utils/UUPSUpgradeable.sol\":3708:3842  function proxiableUUID() external view virtual notDelegated returns (bytes32) {... */\n      swap1\n      jump\t// out\n        /* \"@openzeppelin/contracts-upgradeable/access/OwnableUpgradeable.sol\":3155:3256  function renounceOwnership() public virtual onlyOwner {... */\n    tag_45:\n        /* \"@openzeppelin/contracts-upgradeable/access/OwnableUpgradeable.sol\":2334:2347  _checkOwner() */\n      tag_118\n        /* \"@openzeppelin/contracts-upgradeable/access/OwnableUpgradeable.sol\":2334:2345  _checkOwner */\n      tag_80\n        /* \"@openzeppelin/contracts-upgradeable/access/OwnableUpgradeable.sol\":2334:2347  _checkOwner() */\n      jump\t// in\n    tag_118:\n        /* \"@openzeppelin/contracts-upgradeable/access/OwnableUpgradeable.sol\":3219:3249  _transferOwnership(address(0)) */\n      tag_120\n        /* \"@openzeppelin/contracts-upgradeable/access/OwnableUpgradeable.sol\":3246:3247  0 */\n      0x00\n        /* \"@openzeppelin/contracts-upgradeable/access/OwnableUpgradeable.sol\":3219:3237  _transferOwnership */\n      tag_121\n        /* \"@openzeppelin/contracts-upgradeable/access/OwnableUpgradeable.sol\":3219:3249  _transferOwnership(address(0)) */\n      jump\t// in\n    tag_120:\n        /* \"@openzeppelin/contracts-upgradeable/access/OwnableUpgradeable.sol\":3155:3256  function renounceOwnership() public virtual onlyOwner {... */\n      jump\t// out\n        /* \"@openzeppelin/contracts-upgradeable/access/OwnableUpgradeable.sol\":2441:2585  function owner() public view virtual returns (address) {... */\n    tag_48:\n        /* \"@openzeppelin/contracts-upgradeable/access/OwnableUpgradeable.sol\":2487:2494  address */\n      0x00\n        /* \"@openzeppelin/contracts-upgradeable/access/OwnableUpgradeable.sol\":2506:2530  OwnableStorage storage $ */\n      dup1\n        /* \"@openzeppelin/contracts-upgradeable/access/OwnableUpgradeable.sol\":2533:2553  _getOwnableStorage() */\n      tag_123\n        /* \"@openzeppelin/contracts-upgradeable/access/OwnableUpgradeable.sol\":2533:2551  _getOwnableStorage */\n      tag_124\n        /* \"@openzeppelin/contracts-upgradeable/access/OwnableUpgradeable.sol\":2533:2553  _getOwnableStorage() */\n      jump\t// in\n    tag_123:\n        /* \"@openzeppelin/contracts-upgradeable/access/OwnableUpgradeable.sol\":2506:2553  OwnableStorage storage $ = _getOwnableStorage() */\n      swap1\n      pop\n        /* \"@openzeppelin/contracts-upgradeable/access/OwnableUpgradeable.sol\":2570:2571  $ */\n      dup1\n        /* \"@openzeppelin/contracts-upgradeable/access/OwnableUpgradeable.sol\":2570:2578  $._owner */\n      0x00\n      add\n      0x00\n      swap1\n      sload\n      swap1\n      0x0100\n      exp\n      swap1\n      div\n      0xffffffffffffffffffffffffffffffffffffffff\n      and\n        /* \"@openzeppelin/contracts-upgradeable/access/OwnableUpgradeable.sol\":2563:2578  return $._owner */\n      swap2\n      pop\n      pop\n        /* \"@openzeppelin/contracts-upgradeable/access/OwnableUpgradeable.sol\":2441:2585  function owner() public view virtual returns (address) {... */\n      swap1\n      jump\t// out\n        /* \"profile-sender-wrapper-uups.sol\":2248:2439  function setProfileSender(address _profileSender) external onlyOwner {... */\n    tag_55:\n        /* \"@openzeppelin/contracts-upgradeable/access/OwnableUpgradeable.sol\":2334:2347  _checkOwner() */\n      tag_126\n        /* \"@openzeppelin/contracts-upgradeable/access/OwnableUpgradeable.sol\":2334:2345  _checkOwner */\n      tag_80\n        /* \"@openzeppelin/contracts-upgradeable/access/OwnableUpgradeable.sol\":2334:2347  _checkOwner() */\n      jump\t// in\n    tag_126:\n        /* \"profile-sender-wrapper-uups.sol\":2366:2380  _profileSender */\n      dup1\n        /* \"profile-sender-wrapper-uups.sol\":2327:2340  profileSender */\n      0x00\n      dup1\n        /* \"profile-sender-wrapper-uups.sol\":2327:2381  profileSender = IArbitrumProfileSender(_profileSender) */\n      0x0100\n      exp\n      dup2\n      sload\n      dup2\n      0xffffffffffffffffffffffffffffffffffffffff\n      mul\n      not\n      and\n      swap1\n      dup4\n      0xffffffffffffffffffffffffffffffffffffffff\n      and\n      mul\n      or\n      swap1\n      sstore\n      pop\n        /* \"profile-sender-wrapper-uups.sol\":2417:2431  _profileSender */\n      dup1\n        /* \"profile-sender-wrapper-uups.sol\":2396:2432  ProfileSenderUpdated(_profileSender) */\n      0xffffffffffffffffffffffffffffffffffffffff\n      and\n      0x8670e8d664db069076c6d917edd88d7440e81881fe8d92e754f087e1012f72da\n      mload(0x40)\n      mload(0x40)\n      dup1\n      swap2\n      sub\n      swap1\n      log2\n        /* \"profile-sender-wrapper-uups.sol\":2248:2439  function setProfileSender(address _profileSender) external onlyOwner {... */\n      pop\n      jump\t// out\n        /* \"@openzeppelin/contracts-upgradeable/proxy/utils/UUPSUpgradeable.sol\":1819:1877  string public constant UPGRADE_INTERFACE_VERSION = \"5.0.0\" */\n    tag_58:\n      mload(0x40)\n      dup1\n      0x40\n      add\n      0x40\n      mstore\n      dup1\n      0x05\n      dup2\n      mstore\n      0x20\n      add\n      0x352e302e30000000000000000000000000000000000000000000000000000000\n      dup2\n      mstore\n      pop\n      dup2\n      jump\t// out\n        /* \"profile-sender-wrapper-uups.sol\":959:1151  function initialize(address _owner) public initializer {... */\n    tag_64:\n        /* \"@openzeppelin/contracts-upgradeable/proxy/utils/Initializable.sol\":4158:4188  InitializableStorage storage $ */\n      0x00\n        /* \"@openzeppelin/contracts-upgradeable/proxy/utils/Initializable.sol\":4191:4217  _getInitializableStorage() */\n      tag_129\n        /* \"@openzeppelin/contracts-upgradeable/proxy/utils/Initializable.sol\":4191:4215  _getInitializableStorage */\n      tag_91\n        /* \"@openzeppelin/contracts-upgradeable/proxy/utils/Initializable.sol\":4191:4217  _getInitializableStorage() */\n      jump\t// in\n    tag_129:\n        /* \"@openzeppelin/contracts-upgradeable/proxy/utils/Initializable.sol\":4158:4217  InitializableStorage storage $ = _getInitializableStorage() */\n      swap1\n      pop\n        /* \"@openzeppelin/contracts-upgradeable/proxy/utils/Initializable.sol\":4279:4298  bool isTopLevelCall */\n      0x00\n        /* \"@openzeppelin/contracts-upgradeable/proxy/utils/Initializable.sol\":4302:4303  $ */\n      dup2\n        /* \"@openzeppelin/contracts-upgradeable/proxy/utils/Initializable.sol\":4302:4317  $._initializing */\n      0x00\n      add\n      0x08\n      swap1\n      sload\n      swap1\n      0x0100\n      exp\n      swap1\n      div\n      0xff\n      and\n        /* \"@openzeppelin/contracts-upgradeable/proxy/utils/Initializable.sol\":4301:4317  !$._initializing */\n      iszero\n        /* \"@openzeppelin/contracts-upgradeable/proxy/utils/Initializable.sol\":4279:4317  bool isTopLevelCall = !$._initializing */\n      swap1\n      pop\n        /* \"@openzeppelin/contracts-upgradeable/proxy/utils/Initializable.sol\":4327:4345  uint64 initialized */\n      0x00\n        /* \"@openzeppelin/contracts-upgradeable/proxy/utils/Initializable.sol\":4348:4349  $ */\n      dup3\n        /* \"@openzeppelin/contracts-upgradeable/proxy/utils/Initializable.sol\":4348:4362  $._initialized */\n      0x00\n      add\n      0x00\n      swap1\n      sload\n      swap1\n      0x0100\n      exp\n      swap1\n      div\n      0xffffffffffffffff\n      and\n        /* \"@openzeppelin/contracts-upgradeable/proxy/utils/Initializable.sol\":4327:4362  uint64 initialized = $._initialized */\n      swap1\n      pop\n        /* \"@openzeppelin/contracts-upgradeable/proxy/utils/Initializable.sol\":4704:4721  bool initialSetup */\n      0x00\n        /* \"@openzeppelin/contracts-upgradeable/proxy/utils/Initializable.sol\":4739:4740  0 */\n      dup1\n        /* \"@openzeppelin/contracts-upgradeable/proxy/utils/Initializable.sol\":4724:4735  initialized */\n      dup3\n        /* \"@openzeppelin/contracts-upgradeable/proxy/utils/Initializable.sol\":4724:4740  initialized == 0 */\n      0xffffffffffffffff\n      and\n      eq\n        /* \"@openzeppelin/contracts-upgradeable/proxy/utils/Initializable.sol\":4724:4758  initialized == 0 && isTopLevelCall */\n      dup1\n      iszero\n      tag_130\n      jumpi\n      pop\n        /* \"@openzeppelin/contracts-upgradeable/proxy/utils/Initializable.sol\":4744:4758  isTopLevelCall */\n      dup3\n        /* \"@openzeppelin/contracts-upgradeable/proxy/utils/Initializable.sol\":4724:4758  initialized == 0 && isTopLevelCall */\n    tag_130:\n        /* \"@openzeppelin/contracts-upgradeable/proxy/utils/Initializable.sol\":4704:4758  bool initialSetup = initialized == 0 && isTopLevelCall */\n      swap1\n      pop\n        /* \"@openzeppelin/contracts-upgradeable/proxy/utils/Initializable.sol\":4768:4785  bool construction */\n      0x00\n        /* \"@openzeppelin/contracts-upgradeable/proxy/utils/Initializable.sol\":4803:4804  1 */\n      0x01\n        /* \"@openzeppelin/contracts-upgradeable/proxy/utils/Initializable.sol\":4788:4799  initialized */\n      dup4\n        /* \"@openzeppelin/contracts-upgradeable/proxy/utils/Initializable.sol\":4788:4804  initialized == 1 */\n      0xffffffffffffffff\n      and\n      eq\n        /* \"@openzeppelin/contracts-upgradeable/proxy/utils/Initializable.sol\":4788:4838  initialized == 1 && address(this).code.length == 0 */\n      dup1\n      iszero\n      tag_131\n      jumpi\n      pop\n        /* \"@openzeppelin/contracts-upgradeable/proxy/utils/Initializable.sol\":4837:4838  0 */\n      0x00\n        /* \"@openzeppelin/contracts-upgradeable/proxy/utils/Initializable.sol\":4816:4820  this */\n      address\n        /* \"@openzeppelin/contracts-upgradeable/proxy/utils/Initializable.sol\":4808:4833  address(this).code.length */\n      0xffffffffffffffffffffffffffffffffffffffff\n      and\n      extcodesize\n        /* \"@openzeppelin/contracts-upgradeable/proxy/utils/Initializable.sol\":4808:4838  address(this).code.length == 0 */\n      eq\n        /* \"@openzeppelin/contracts-upgradeable/proxy/utils/Initializable.sol\":4788:4838  initialized == 1 && address(this).code.length == 0 */\n    tag_131:\n        /* \"@openzeppelin/contracts-upgradeable/proxy/utils/Initializable.sol\":4768:4838  bool construction = initialized == 1 && address(this).code.length == 0 */\n      swap1\n      pop\n        /* \"@openzeppelin/contracts-upgradeable/proxy/utils/Initializable.sol\":4854:4866  initialSetup */\n      dup2\n        /* \"@openzeppelin/contracts-upgradeable/proxy/utils/Initializable.sol\":4853:4866  !initialSetup */\n      iszero\n        /* \"@openzeppelin/contracts-upgradeable/proxy/utils/Initializable.sol\":4853:4883  !initialSetup && !construction */\n      dup1\n      iszero\n      tag_132\n      jumpi\n      pop\n        /* \"@openzeppelin/contracts-upgradeable/proxy/utils/Initializable.sol\":4871:4883  construction */\n      dup1\n        /* \"@openzeppelin/contracts-upgradeable/proxy/utils/Initializable.sol\":4870:4883  !construction */\n      iszero\n        /* \"@openzeppelin/contracts-upgradeable/proxy/utils/Initializable.sol\":4853:4883  !initialSetup && !construction */\n    tag_132:\n        /* \"@openzeppelin/contracts-upgradeable/proxy/utils/Initializable.sol\":4849:4940  if (!initialSetup && !construction) {... */\n      iszero\n      tag_133\n      jumpi\n        /* \"@openzeppelin/contracts-upgradeable/proxy/utils/Initializable.sol\":4906:4929  InvalidInitialization() */\n      mload(0x40)\n      0xf92ee8a900000000000000000000000000000000000000000000000000000000\n      dup2\n      mstore\n      0x04\n      add\n      mload(0x40)\n      dup1\n      swap2\n      sub\n      swap1\n      revert\n        /* \"@openzeppelin/contracts-upgradeable/proxy/utils/Initializable.sol\":4849:4940  if (!initialSetup && !construction) {... */\n    tag_133:\n        /* \"@openzeppelin/contracts-upgradeable/proxy/utils/Initializable.sol\":4966:4967  1 */\n      0x01\n        /* \"@openzeppelin/contracts-upgradeable/proxy/utils/Initializable.sol\":4949:4950  $ */\n      dup6\n        /* \"@openzeppelin/contracts-upgradeable/proxy/utils/Initializable.sol\":4949:4963  $._initialized */\n      0x00\n      add\n      0x00\n        /* \"@openzeppelin/contracts-upgradeable/proxy/utils/Initializable.sol\":4949:4967  $._initialized = 1 */\n      0x0100\n      exp\n      dup2\n      sload\n      dup2\n      0xffffffffffffffff\n      mul\n      not\n      and\n      swap1\n      dup4\n      0xffffffffffffffff\n      and\n      mul\n      or\n      swap1\n      sstore\n      pop\n        /* \"@openzeppelin/contracts-upgradeable/proxy/utils/Initializable.sol\":4981:4995  isTopLevelCall */\n      dup4\n        /* \"@openzeppelin/contracts-upgradeable/proxy/utils/Initializable.sol\":4977:5044  if (isTopLevelCall) {... */\n      iszero\n      tag_134\n      jumpi\n        /* \"@openzeppelin/contracts-upgradeable/proxy/utils/Initializable.sol\":5029:5033  true */\n      0x01\n        /* \"@openzeppelin/contracts-upgradeable/proxy/utils/Initializable.sol\":5011:5012  $ */\n      dup6\n        /* \"@openzeppelin/contracts-upgradeable/proxy/utils/Initializable.sol\":5011:5026  $._initializing */\n      0x00\n      add\n      0x08\n        /* \"@openzeppelin/contracts-upgradeable/proxy/utils/Initializable.sol\":5011:5033  $._initializing = true */\n      0x0100\n      exp\n      dup2\n      sload\n      dup2\n      0xff\n      mul\n      not\n      and\n      swap1\n      dup4\n      iszero\n      iszero\n      mul\n      or\n      swap1\n      sstore\n      pop\n        /* \"@openzeppelin/contracts-upgradeable/proxy/utils/Initializable.sol\":4977:5044  if (isTopLevelCall) {... */\n    tag_134:\n        /* \"profile-sender-wrapper-uups.sol\":1024:1046  __Ownable_init(_owner) */\n      tag_136\n        /* \"profile-sender-wrapper-uups.sol\":1039:1045  _owner */\n      dup7\n        /* \"profile-sender-wrapper-uups.sol\":1024:1038  __Ownable_init */\n      tag_99\n        /* \"profile-sender-wrapper-uups.sol\":1024:1046  __Ownable_init(_owner) */\n      jump\t// in\n    tag_136:\n        /* \"profile-sender-wrapper-uups.sol\":1056:1080  __UUPSUpgradeable_init() */\n      tag_137\n        /* \"profile-sender-wrapper-uups.sol\":1056:1078  __UUPSUpgradeable_init */\n      tag_101\n        /* \"profile-sender-wrapper-uups.sol\":1056:1080  __UUPSUpgradeable_init() */\n      jump\t// in\n    tag_137:\n        /* \"@openzeppelin/contracts-upgradeable/proxy/utils/Initializable.sol\":5068:5082  isTopLevelCall */\n      dup4\n        /* \"@openzeppelin/contracts-upgradeable/proxy/utils/Initializable.sol\":5064:5165  if (isTopLevelCall) {... */\n      iszero\n      tag_138\n      jumpi\n        /* \"@openzeppelin/contracts-upgradeable/proxy/utils/Initializable.sol\":5116:5121  false */\n      0x00\n        /* \"@openzeppelin/contracts-upgradeable/proxy/utils/Initializable.sol\":5098:5099  $ */\n      dup6\n        /* \"@openzeppelin/contracts-upgradeable/proxy/utils/Initializable.sol\":5098:5113  $._initializing */\n      0x00\n      add\n      0x08\n        /* \"@openzeppelin/contracts-upgradeable/proxy/utils/Initializable.sol\":5098:5121  $._initializing = false */\n      0x0100\n      exp\n      dup2\n      sload\n      dup2\n      0xff\n      mul\n      not\n      and\n      swap1\n      dup4\n      iszero\n      iszero\n      mul\n      or\n      swap1\n      sstore\n      pop\n        /* \"@openzeppelin/contracts-upgradeable/proxy/utils/Initializable.sol\":5140:5154  Initialized(1) */\n      0xc7f505b2f371ae2175ee4913f4499e1f2633a7b5936321eed1cdaeb6115181d2\n        /* \"@openzeppelin/contracts-upgradeable/proxy/utils/Initializable.sol\":5152:5153  1 */\n      0x01\n        /* \"@openzeppelin/contracts-upgradeable/proxy/utils/Initializable.sol\":5140:5154  Initialized(1) */\n      mload(0x40)\n      tag_139\n      swap2\n      swap1\n      tag_104\n      jump\t// in\n    tag_139:\n      mload(0x40)\n      dup1\n      swap2\n      sub\n      swap1\n      log1\n        /* \"@openzeppelin/contracts-upgradeable/proxy/utils/Initializable.sol\":5064:5165  if (isTopLevelCall) {... */\n    tag_138:\n        /* \"@openzeppelin/contracts-upgradeable/proxy/utils/Initializable.sol\":4092:5171  {... */\n      pop\n      pop\n      pop\n      pop\n      pop\n        /* \"profile-sender-wrapper-uups.sol\":959:1151  function initialize(address _owner) public initializer {... */\n      pop\n      jump\t// out\n        /* \"@openzeppelin/contracts-upgradeable/access/OwnableUpgradeable.sol\":3405:3620  function transferOwnership(address newOwner) public virtual onlyOwner {... */\n    tag_68:\n        /* \"@openzeppelin/contracts-upgradeable/access/OwnableUpgradeable.sol\":2334:2347  _checkOwner() */\n      tag_141\n        /* \"@openzeppelin/contracts-upgradeable/access/OwnableUpgradeable.sol\":2334:2345  _checkOwner */\n      tag_80\n        /* \"@openzeppelin/contracts-upgradeable/access/OwnableUpgradeable.sol\":2334:2347  _checkOwner() */\n      jump\t// in\n    tag_141:\n        /* \"@openzeppelin/contracts-upgradeable/access/OwnableUpgradeable.sol\":3509:3510  0 */\n      0x00\n        /* \"@openzeppelin/contracts-upgradeable/access/OwnableUpgradeable.sol\":3489:3511  newOwner == address(0) */\n      0xffffffffffffffffffffffffffffffffffffffff\n      and\n        /* \"@openzeppelin/contracts-upgradeable/access/OwnableUpgradeable.sol\":3489:3497  newOwner */\n      dup2\n        /* \"@openzeppelin/contracts-upgradeable/access/OwnableUpgradeable.sol\":3489:3511  newOwner == address(0) */\n      0xffffffffffffffffffffffffffffffffffffffff\n      and\n      sub\n        /* \"@openzeppelin/contracts-upgradeable/access/OwnableUpgradeable.sol\":3485:3576  if (newOwner == address(0)) {... */\n      tag_143\n      jumpi\n        /* \"@openzeppelin/contracts-upgradeable/access/OwnableUpgradeable.sol\":3562:3563  0 */\n      0x00\n        /* \"@openzeppelin/contracts-upgradeable/access/OwnableUpgradeable.sol\":3534:3565  OwnableInvalidOwner(address(0)) */\n      mload(0x40)\n      0x1e4fbdf700000000000000000000000000000000000000000000000000000000\n      dup2\n      mstore\n      0x04\n      add\n      tag_144\n      swap2\n      swap1\n      tag_50\n      jump\t// in\n    tag_144:\n      mload(0x40)\n      dup1\n      swap2\n      sub\n      swap1\n      revert\n        /* \"@openzeppelin/contracts-upgradeable/access/OwnableUpgradeable.sol\":3485:3576  if (newOwner == address(0)) {... */\n    tag_143:\n        /* \"@openzeppelin/contracts-upgradeable/access/OwnableUpgradeable.sol\":3585:3613  _transferOwnership(newOwner) */\n      tag_145\n        /* \"@openzeppelin/contracts-upgradeable/access/OwnableUpgradeable.sol\":3604:3612  newOwner */\n      dup2\n        /* \"@openzeppelin/contracts-upgradeable/access/OwnableUpgradeable.sol\":3585:3603  _transferOwnership */\n      tag_121\n        /* \"@openzeppelin/contracts-upgradeable/access/OwnableUpgradeable.sol\":3585:3613  _transferOwnership(newOwner) */\n      jump\t// in\n    tag_145:\n        /* \"@openzeppelin/contracts-upgradeable/access/OwnableUpgradeable.sol\":3405:3620  function transferOwnership(address newOwner) public virtual onlyOwner {... */\n      pop\n      jump\t// out\n        /* \"@openzeppelin/contracts-upgradeable/access/OwnableUpgradeable.sol\":2658:2820  function _checkOwner() internal view virtual {... */\n    tag_80:\n        /* \"@openzeppelin/contracts-upgradeable/access/OwnableUpgradeable.sol\":2728:2740  _msgSender() */\n      tag_147\n        /* \"@openzeppelin/contracts-upgradeable/access/OwnableUpgradeable.sol\":2728:2738  _msgSender */\n      tag_148\n        /* \"@openzeppelin/contracts-upgradeable/access/OwnableUpgradeable.sol\":2728:2740  _msgSender() */\n      jump\t// in\n    tag_147:\n        /* \"@openzeppelin/contracts-upgradeable/access/OwnableUpgradeable.sol\":2717:2740  owner() != _msgSender() */\n      0xffffffffffffffffffffffffffffffffffffffff\n      and\n        /* \"@openzeppelin/contracts-upgradeable/access/OwnableUpgradeable.sol\":2717:2724  owner() */\n      tag_149\n        /* \"@openzeppelin/contracts-upgradeable/access/OwnableUpgradeable.sol\":2717:2722  owner */\n      tag_48\n        /* \"@openzeppelin/contracts-upgradeable/access/OwnableUpgradeable.sol\":2717:2724  owner() */\n      jump\t// in\n    tag_149:\n        /* \"@openzeppelin/contracts-upgradeable/access/OwnableUpgradeable.sol\":2717:2740  owner() != _msgSender() */\n      0xffffffffffffffffffffffffffffffffffffffff\n      and\n      eq\n        /* \"@openzeppelin/contracts-upgradeable/access/OwnableUpgradeable.sol\":2713:2814  if (owner() != _msgSender()) {... */\n      tag_150\n      jumpi\n        /* \"@openzeppelin/contracts-upgradeable/access/OwnableUpgradeable.sol\":2790:2802  _msgSender() */\n      tag_151\n        /* \"@openzeppelin/contracts-upgradeable/access/OwnableUpgradeable.sol\":2790:2800  _msgSender */\n      tag_148\n        /* \"@openzeppelin/contracts-upgradeable/access/OwnableUpgradeable.sol\":2790:2802  _msgSender() */\n      jump\t// in\n    tag_151:\n        /* \"@openzeppelin/contracts-upgradeable/access/OwnableUpgradeable.sol\":2763:2803  OwnableUnauthorizedAccount(_msgSender()) */\n      mload(0x40)\n      0x118cdaa700000000000000000000000000000000000000000000000000000000\n      dup2\n      mstore\n      0x04\n      add\n      tag_152\n      swap2\n      swap1\n      tag_50\n      jump\t// in\n    tag_152:\n      mload(0x40)\n      dup1\n      swap2\n      sub\n      swap1\n      revert\n        /* \"@openzeppelin/contracts-upgradeable/access/OwnableUpgradeable.sol\":2713:2814  if (owner() != _msgSender()) {... */\n    tag_150:\n        /* \"@openzeppelin/contracts-upgradeable/access/OwnableUpgradeable.sol\":2658:2820  function _checkOwner() internal view virtual {... */\n      jump\t// out\n        /* \"@openzeppelin/contracts-upgradeable/proxy/utils/Initializable.sol\":9071:9276  function _getInitializableStorage() private pure returns (InitializableStorage storage $) {... */\n    tag_91:\n        /* \"@openzeppelin/contracts-upgradeable/proxy/utils/Initializable.sol\":9129:9159  InitializableStorage storage $ */\n      0x00\n        /* \"@openzeppelin/contracts-upgradeable/proxy/utils/Initializable.sol\":9171:9183  bytes32 slot */\n      dup1\n        /* \"@openzeppelin/contracts-upgradeable/proxy/utils/Initializable.sol\":9186:9213  _initializableStorageSlot() */\n      tag_154\n        /* \"@openzeppelin/contracts-upgradeable/proxy/utils/Initializable.sol\":9186:9211  _initializableStorageSlot */\n      tag_155\n        /* \"@openzeppelin/contracts-upgradeable/proxy/utils/Initializable.sol\":9186:9213  _initializableStorageSlot() */\n      jump\t// in\n    tag_154:\n        /* \"@openzeppelin/contracts-upgradeable/proxy/utils/Initializable.sol\":9171:9213  bytes32 slot = _initializableStorageSlot() */\n      swap1\n      pop\n        /* \"@openzeppelin/contracts-upgradeable/proxy/utils/Initializable.sol\":9256:9260  slot */\n      dup1\n        /* \"@openzeppelin/contracts-upgradeable/proxy/utils/Initializable.sol\":9246:9260  $.slot := slot */\n      swap2\n      pop\n        /* \"@openzeppelin/contracts-upgradeable/proxy/utils/Initializable.sol\":9232:9270  {... */\n      pop\n        /* \"@openzeppelin/contracts-upgradeable/proxy/utils/Initializable.sol\":9071:9276  function _getInitializableStorage() private pure returns (InitializableStorage storage $) {... */\n      swap1\n      jump\t// out\n        /* \"@openzeppelin/contracts-upgradeable/access/OwnableUpgradeable.sol\":1847:1974  function __Ownable_init(address initialOwner) internal onlyInitializing {... */\n    tag_99:\n        /* \"@openzeppelin/contracts-upgradeable/proxy/utils/Initializable.sol\":6929:6949  _checkInitializing() */\n      tag_157\n        /* \"@openzeppelin/contracts-upgradeable/proxy/utils/Initializable.sol\":6929:6947  _checkInitializing */\n      tag_158\n        /* \"@openzeppelin/contracts-upgradeable/proxy/utils/Initializable.sol\":6929:6949  _checkInitializing() */\n      jump\t// in\n    tag_157:\n        /* \"@openzeppelin/contracts-upgradeable/access/OwnableUpgradeable.sol\":1929:1967  __Ownable_init_unchained(initialOwner) */\n      tag_160\n        /* \"@openzeppelin/contracts-upgradeable/access/OwnableUpgradeable.sol\":1954:1966  initialOwner */\n      dup2\n        /* \"@openzeppelin/contracts-upgradeable/access/OwnableUpgradeable.sol\":1929:1953  __Ownable_init_unchained */\n      tag_161\n        /* \"@openzeppelin/contracts-upgradeable/access/OwnableUpgradeable.sol\":1929:1967  __Ownable_init_unchained(initialOwner) */\n      jump\t// in\n    tag_160:\n        /* \"@openzeppelin/contracts-upgradeable/access/OwnableUpgradeable.sol\":1847:1974  function __Ownable_init(address initialOwner) internal onlyInitializing {... */\n      pop\n      jump\t// out\n        /* \"@openzeppelin/contracts-upgradeable/proxy/utils/UUPSUpgradeable.sol\":2970:3037  function __UUPSUpgradeable_init() internal onlyInitializing {... */\n    tag_101:\n        /* \"@openzeppelin/contracts-upgradeable/proxy/utils/Initializable.sol\":6929:6949  _checkInitializing() */\n      tag_163\n        /* \"@openzeppelin/contracts-upgradeable/proxy/utils/Initializable.sol\":6929:6947  _checkInitializing */\n      tag_158\n        /* \"@openzeppelin/contracts-upgradeable/proxy/utils/Initializable.sol\":6929:6949  _checkInitializing() */\n      jump\t// in\n    tag_163:\n        /* \"@openzeppelin/contracts-upgradeable/proxy/utils/UUPSUpgradeable.sol\":2970:3037  function __UUPSUpgradeable_init() internal onlyInitializing {... */\n      jump\t// out\n        /* \"@openzeppelin/contracts-upgradeable/proxy/utils/UUPSUpgradeable.sol\":4578:4890  function _checkProxy() internal view virtual {... */\n    tag_107:\n        /* \"@openzeppelin/contracts-upgradeable/proxy/utils/UUPSUpgradeable.sol\":4667:4673  __self */\n      immutable(\"0x4ce4dab4689da140a0c12de1a6af6b8f679594aeb723205f513e052d27f5b26f\")\n        /* \"@openzeppelin/contracts-upgradeable/proxy/utils/UUPSUpgradeable.sol\":4650:4673  address(this) == __self */\n      0xffffffffffffffffffffffffffffffffffffffff\n      and\n        /* \"@openzeppelin/contracts-upgradeable/proxy/utils/UUPSUpgradeable.sol\":4658:4662  this */\n      address\n        /* \"@openzeppelin/contracts-upgradeable/proxy/utils/UUPSUpgradeable.sol\":4650:4673  address(this) == __self */\n      0xffffffffffffffffffffffffffffffffffffffff\n      and\n      eq\n        /* \"@openzeppelin/contracts-upgradeable/proxy/utils/UUPSUpgradeable.sol\":4650:4770  address(this) == __self || // Must be called through delegatecall... */\n      dup1\n      tag_166\n      jumpi\n      pop\n        /* \"@openzeppelin/contracts-upgradeable/proxy/utils/UUPSUpgradeable.sol\":4764:4770  __self */\n      immutable(\"0x4ce4dab4689da140a0c12de1a6af6b8f679594aeb723205f513e052d27f5b26f\")\n        /* \"@openzeppelin/contracts-upgradeable/proxy/utils/UUPSUpgradeable.sol\":4728:4770  ERC1967Utils.getImplementation() != __self */\n      0xffffffffffffffffffffffffffffffffffffffff\n      and\n        /* \"@openzeppelin/contracts-upgradeable/proxy/utils/UUPSUpgradeable.sol\":4728:4760  ERC1967Utils.getImplementation() */\n      tag_167\n        /* \"@openzeppelin/contracts-upgradeable/proxy/utils/UUPSUpgradeable.sol\":4728:4758  ERC1967Utils.getImplementation */\n      tag_168\n        /* \"@openzeppelin/contracts-upgradeable/proxy/utils/UUPSUpgradeable.sol\":4728:4760  ERC1967Utils.getImplementation() */\n      jump\t// in\n    tag_167:\n        /* \"@openzeppelin/contracts-upgradeable/proxy/utils/UUPSUpgradeable.sol\":4728:4770  ERC1967Utils.getImplementation() != __self */\n      0xffffffffffffffffffffffffffffffffffffffff\n      and\n      eq\n      iszero\n        /* \"@openzeppelin/contracts-upgradeable/proxy/utils/UUPSUpgradeable.sol\":4650:4770  address(this) == __self || // Must be called through delegatecall... */\n    tag_166:\n        /* \"@openzeppelin/contracts-upgradeable/proxy/utils/UUPSUpgradeable.sol\":4633:4884  if (... */\n      iszero\n      tag_169\n      jumpi\n        /* \"@openzeppelin/contracts-upgradeable/proxy/utils/UUPSUpgradeable.sol\":4844:4873  UUPSUnauthorizedCallContext() */\n      mload(0x40)\n      0xe07c8dba00000000000000000000000000000000000000000000000000000000\n      dup2\n      mstore\n      0x04\n      add\n      mload(0x40)\n      dup1\n      swap2\n      sub\n      swap1\n      revert\n        /* \"@openzeppelin/contracts-upgradeable/proxy/utils/UUPSUpgradeable.sol\":4633:4884  if (... */\n    tag_169:\n        /* \"@openzeppelin/contracts-upgradeable/proxy/utils/UUPSUpgradeable.sol\":4578:4890  function _checkProxy() internal view virtual {... */\n      jump\t// out\n        /* \"profile-sender-wrapper-uups.sol\":2515:2599  function _authorizeUpgrade(address newImplementation) internal override onlyOwner {} */\n    tag_110:\n        /* \"@openzeppelin/contracts-upgradeable/access/OwnableUpgradeable.sol\":2334:2347  _checkOwner() */\n      tag_171\n        /* \"@openzeppelin/contracts-upgradeable/access/OwnableUpgradeable.sol\":2334:2345  _checkOwner */\n      tag_80\n        /* \"@openzeppelin/contracts-upgradeable/access/OwnableUpgradeable.sol\":2334:2347  _checkOwner() */\n      jump\t// in\n    tag_171:\n        /* \"profile-sender-wrapper-uups.sol\":2515:2599  function _authorizeUpgrade(address newImplementation) internal override onlyOwner {} */\n      pop\n      jump\t// out\n        /* \"@openzeppelin/contracts-upgradeable/proxy/utils/UUPSUpgradeable.sol\":6032:6570  function _upgradeToAndCallUUPS(address newImplementation, bytes memory data) private {... */\n    tag_112:\n        /* \"@openzeppelin/contracts-upgradeable/proxy/utils/UUPSUpgradeable.sol\":6149:6166  newImplementation */\n      dup2\n        /* \"@openzeppelin/contracts-upgradeable/proxy/utils/UUPSUpgradeable.sol\":6131:6181  IERC1822Proxiable(newImplementation).proxiableUUID */\n      0xffffffffffffffffffffffffffffffffffffffff\n      and\n      0x52d1902d\n        /* \"@openzeppelin/contracts-upgradeable/proxy/utils/UUPSUpgradeable.sol\":6131:6183  IERC1822Proxiable(newImplementation).proxiableUUID() */\n      mload(0x40)\n      dup2\n      0xffffffff\n      and\n      0xe0\n      shl\n      dup2\n      mstore\n      0x04\n      add\n      0x20\n      mload(0x40)\n      dup1\n      dup4\n      sub\n      dup2\n      dup7\n      gas\n      staticcall\n      swap3\n      pop\n      pop\n      pop\n      dup1\n      iszero\n      tag_174\n      jumpi\n      pop\n      mload(0x40)\n      returndatasize\n      not(0x1f)\n      0x1f\n      dup3\n      add\n      and\n      dup3\n      add\n      dup1\n      0x40\n      mstore\n      pop\n      dup2\n      add\n      swap1\n      tag_175\n      swap2\n      swap1\n      tag_176\n      jump\t// in\n    tag_175:\n      0x01\n    tag_174:\n        /* \"@openzeppelin/contracts-upgradeable/proxy/utils/UUPSUpgradeable.sol\":6127:6564  try IERC1822Proxiable(newImplementation).proxiableUUID() returns (bytes32 slot) {... */\n      tag_177\n      jumpi\n        /* \"@openzeppelin/contracts-upgradeable/proxy/utils/UUPSUpgradeable.sol\":6535:6552  newImplementation */\n      dup2\n        /* \"@openzeppelin/contracts-upgradeable/proxy/utils/UUPSUpgradeable.sol\":6493:6553  ERC1967Utils.ERC1967InvalidImplementation(newImplementation) */\n      mload(0x40)\n      0x4c9c8ce300000000000000000000000000000000000000000000000000000000\n      dup2\n      mstore\n      0x04\n      add\n      tag_181\n      swap2\n      swap1\n      tag_50\n      jump\t// in\n    tag_181:\n      mload(0x40)\n      dup1\n      swap2\n      sub\n      swap1\n      revert\n        /* \"@openzeppelin/contracts-upgradeable/proxy/utils/UUPSUpgradeable.sol\":6127:6564  try IERC1822Proxiable(newImplementation).proxiableUUID() returns (bytes32 slot) {... */\n    tag_177:\n        /* \"@openzeppelin/contracts/proxy/ERC1967/ERC1967Utils.sol\":811:877  0x360894a13ba1a3210667c828492db98dca3e2076cc3735a920a3ca505d382bbc */\n      0x360894a13ba1a3210667c828492db98dca3e2076cc3735a920a3ca505d382bbc\n        /* \"@openzeppelin/contracts-upgradeable/proxy/utils/UUPSUpgradeable.sol\":6233:6265  ERC1967Utils.IMPLEMENTATION_SLOT */\n      0x00\n      shl\n        /* \"@openzeppelin/contracts-upgradeable/proxy/utils/UUPSUpgradeable.sol\":6225:6229  slot */\n      dup2\n        /* \"@openzeppelin/contracts-upgradeable/proxy/utils/UUPSUpgradeable.sol\":6225:6265  slot != ERC1967Utils.IMPLEMENTATION_SLOT */\n      eq\n        /* \"@openzeppelin/contracts-upgradeable/proxy/utils/UUPSUpgradeable.sol\":6221:6341  if (slot != ERC1967Utils.IMPLEMENTATION_SLOT) {... */\n      tag_183\n      jumpi\n        /* \"@openzeppelin/contracts-upgradeable/proxy/utils/UUPSUpgradeable.sol\":6321:6325  slot */\n      dup1\n        /* \"@openzeppelin/contracts-upgradeable/proxy/utils/UUPSUpgradeable.sol\":6292:6326  UUPSUnsupportedProxiableUUID(slot) */\n      mload(0x40)\n      0xaa1d49a400000000000000000000000000000000000000000000000000000000\n      dup2\n      mstore\n      0x04\n      add\n      tag_184\n      swap2\n      swap1\n      tag_42\n      jump\t// in\n    tag_184:\n      mload(0x40)\n      dup1\n      swap2\n      sub\n      swap1\n      revert\n        /* \"@openzeppelin/contracts-upgradeable/proxy/utils/UUPSUpgradeable.sol\":6221:6341  if (slot != ERC1967Utils.IMPLEMENTATION_SLOT) {... */\n    tag_183:\n        /* \"@openzeppelin/contracts-upgradeable/proxy/utils/UUPSUpgradeable.sol\":6354:6408  ERC1967Utils.upgradeToAndCall(newImplementation, data) */\n      tag_185\n        /* \"@openzeppelin/contracts-upgradeable/proxy/utils/UUPSUpgradeable.sol\":6384:6401  newImplementation */\n      dup4\n        /* \"@openzeppelin/contracts-upgradeable/proxy/utils/UUPSUpgradeable.sol\":6403:6407  data */\n      dup4\n        /* \"@openzeppelin/contracts-upgradeable/proxy/utils/UUPSUpgradeable.sol\":6354:6383  ERC1967Utils.upgradeToAndCall */\n      tag_186\n        /* \"@openzeppelin/contracts-upgradeable/proxy/utils/UUPSUpgradeable.sol\":6354:6408  ERC1967Utils.upgradeToAndCall(newImplementation, data) */\n      jump\t// in\n    tag_185:\n        /* \"@openzeppelin/contracts-upgradeable/proxy/utils/UUPSUpgradeable.sol\":6184:6419  returns (bytes32 slot) {... */\n      pop\n        /* \"@openzeppelin/contracts-upgradeable/proxy/utils/UUPSUpgradeable.sol\":6032:6570  function _upgradeToAndCallUUPS(address newImplementation, bytes memory data) private {... */\n      pop\n      pop\n      jump\t// out\n        /* \"@openzeppelin/contracts-upgradeable/proxy/utils/UUPSUpgradeable.sol\":5007:5220  function _checkNotDelegated() internal view virtual {... */\n    tag_115:\n        /* \"@openzeppelin/contracts-upgradeable/proxy/utils/UUPSUpgradeable.sol\":5090:5096  __self */\n      immutable(\"0x4ce4dab4689da140a0c12de1a6af6b8f679594aeb723205f513e052d27f5b26f\")\n        /* \"@openzeppelin/contracts-upgradeable/proxy/utils/UUPSUpgradeable.sol\":5073:5096  address(this) != __self */\n      0xffffffffffffffffffffffffffffffffffffffff\n      and\n        /* \"@openzeppelin/contracts-upgradeable/proxy/utils/UUPSUpgradeable.sol\":5081:5085  this */\n      address\n        /* \"@openzeppelin/contracts-upgradeable/proxy/utils/UUPSUpgradeable.sol\":5073:5096  address(this) != __self */\n      0xffffffffffffffffffffffffffffffffffffffff\n      and\n      eq\n        /* \"@openzeppelin/contracts-upgradeable/proxy/utils/UUPSUpgradeable.sol\":5069:5214  if (address(this) != __self) {... */\n      tag_188\n      jumpi\n        /* \"@openzeppelin/contracts-upgradeable/proxy/utils/UUPSUpgradeable.sol\":5174:5203  UUPSUnauthorizedCallContext() */\n      mload(0x40)\n      0xe07c8dba00000000000000000000000000000000000000000000000000000000\n      dup2\n      mstore\n      0x04\n      add\n      mload(0x40)\n      dup1\n      swap2\n      sub\n      swap1\n      revert\n        /* \"@openzeppelin/contracts-upgradeable/proxy/utils/UUPSUpgradeable.sol\":5069:5214  if (address(this) != __self) {... */\n    tag_188:\n        /* \"@openzeppelin/contracts-upgradeable/proxy/utils/UUPSUpgradeable.sol\":5007:5220  function _checkNotDelegated() internal view virtual {... */\n      jump\t// out\n        /* \"@openzeppelin/contracts-upgradeable/access/OwnableUpgradeable.sol\":3774:4022  function _transferOwnership(address newOwner) internal virtual {... */\n    tag_121:\n        /* \"@openzeppelin/contracts-upgradeable/access/OwnableUpgradeable.sol\":3847:3871  OwnableStorage storage $ */\n      0x00\n        /* \"@openzeppelin/contracts-upgradeable/access/OwnableUpgradeable.sol\":3874:3894  _getOwnableStorage() */\n      tag_190\n        /* \"@openzeppelin/contracts-upgradeable/access/OwnableUpgradeable.sol\":3874:3892  _getOwnableStorage */\n      tag_124\n        /* \"@openzeppelin/contracts-upgradeable/access/OwnableUpgradeable.sol\":3874:3894  _getOwnableStorage() */\n      jump\t// in\n    tag_190:\n        /* \"@openzeppelin/contracts-upgradeable/access/OwnableUpgradeable.sol\":3847:3894  OwnableStorage storage $ = _getOwnableStorage() */\n      swap1\n      pop\n        /* \"@openzeppelin/contracts-upgradeable/access/OwnableUpgradeable.sol\":3904:3920  address oldOwner */\n      0x00\n        /* \"@openzeppelin/contracts-upgradeable/access/OwnableUpgradeable.sol\":3923:3924  $ */\n      dup2\n        /* \"@openzeppelin/contracts-upgradeable/access/OwnableUpgradeable.sol\":3923:3931  $._owner */\n      0x00\n      add\n      0x00\n      swap1\n      sload\n      swap1\n      0x0100\n      exp\n      swap1\n      div\n      0xffffffffffffffffffffffffffffffffffffffff\n      and\n        /* \"@openzeppelin/contracts-upgradeable/access/OwnableUpgradeable.sol\":3904:3931  address oldOwner = $._owner */\n      swap1\n      pop\n        /* \"@openzeppelin/contracts-upgradeable/access/OwnableUpgradeable.sol\":3952:3960  newOwner */\n      dup3\n        /* \"@openzeppelin/contracts-upgradeable/access/OwnableUpgradeable.sol\":3941:3942  $ */\n      dup3\n        /* \"@openzeppelin/contracts-upgradeable/access/OwnableUpgradeable.sol\":3941:3949  $._owner */\n      0x00\n      add\n      0x00\n        /* \"@openzeppelin/contracts-upgradeable/access/OwnableUpgradeable.sol\":3941:3960  $._owner = newOwner */\n      0x0100\n      exp\n      dup2\n      sload\n      dup2\n      0xffffffffffffffffffffffffffffffffffffffff\n      mul\n      not\n      and\n      swap1\n      dup4\n      0xffffffffffffffffffffffffffffffffffffffff\n      and\n      mul\n      or\n      swap1\n      sstore\n      pop\n        /* \"@openzeppelin/contracts-upgradeable/access/OwnableUpgradeable.sol\":4006:4014  newOwner */\n      dup3\n        /* \"@openzeppelin/contracts-upgradeable/access/OwnableUpgradeable.sol\":3975:4015  OwnershipTransferred(oldOwner, newOwner) */\n      0xffffffffffffffffffffffffffffffffffffffff\n      and\n        /* \"@openzeppelin/contracts-upgradeable/access/OwnableUpgradeable.sol\":3996:4004  oldOwner */\n      dup2\n        /* \"@openzeppelin/contracts-upgradeable/access/OwnableUpgradeable.sol\":3975:4015  OwnershipTransferred(oldOwner, newOwner) */\n      0xffffffffffffffffffffffffffffffffffffffff\n      and\n      0x8be0079c531659141344cd1fd0a4f28419497f9722a3daafe3b4186f6b6457e0\n      mload(0x40)\n      mload(0x40)\n      dup1\n      swap2\n      sub\n      swap1\n      log3\n        /* \"@openzeppelin/contracts-upgradeable/access/OwnableUpgradeable.sol\":3837:4022  {... */\n      pop\n      pop\n        /* \"@openzeppelin/contracts-upgradeable/access/OwnableUpgradeable.sol\":3774:4022  function _transferOwnership(address newOwner) internal virtual {... */\n      pop\n      jump\t// out\n        /* \"@openzeppelin/contracts-upgradeable/access/OwnableUpgradeable.sol\":1192:1351  function _getOwnableStorage() private pure returns (OwnableStorage storage $) {... */\n    tag_124:\n        /* \"@openzeppelin/contracts-upgradeable/access/OwnableUpgradeable.sol\":1244:1268  OwnableStorage storage $ */\n      0x00\n        /* \"@openzeppelin/contracts-upgradeable/access/OwnableUpgradeable.sol\":1313:1335  OwnableStorageLocation */\n      0x9016d09d72d40fdae2fd8ceac6b6234c7706214fd39c1cd1e609a0528c199300\n        /* \"@openzeppelin/contracts-upgradeable/access/OwnableUpgradeable.sol\":1303:1335  $.slot := OwnableStorageLocation */\n      swap1\n      pop\n        /* \"@openzeppelin/contracts-upgradeable/access/OwnableUpgradeable.sol\":1192:1351  function _getOwnableStorage() private pure returns (OwnableStorage storage $) {... */\n      swap1\n      jump\t// out\n        /* \"@openzeppelin/contracts-upgradeable/utils/ContextUpgradeable.sol\":887:983  function _msgSender() internal view virtual returns (address) {... */\n    tag_148:\n        /* \"@openzeppelin/contracts-upgradeable/utils/ContextUpgradeable.sol\":940:947  address */\n      0x00\n        /* \"@openzeppelin/contracts-upgradeable/utils/ContextUpgradeable.sol\":966:976  msg.sender */\n      caller\n        /* \"@openzeppelin/contracts-upgradeable/utils/ContextUpgradeable.sol\":959:976  return msg.sender */\n      swap1\n      pop\n        /* \"@openzeppelin/contracts-upgradeable/utils/ContextUpgradeable.sol\":887:983  function _msgSender() internal view virtual returns (address) {... */\n      swap1\n      jump\t// out\n        /* \"@openzeppelin/contracts-upgradeable/proxy/utils/Initializable.sol\":8819:8941  function _initializableStorageSlot() internal pure virtual returns (bytes32) {... */\n    tag_155:\n        /* \"@openzeppelin/contracts-upgradeable/proxy/utils/Initializable.sol\":8887:8894  bytes32 */\n      0x00\n        /* \"@openzeppelin/contracts-upgradeable/proxy/utils/Initializable.sol\":3147:3213  0xf0c57e16840df040f15088dc2f81fe391c3923bec73e23a9662efc9c229c6a00 */\n      0xf0c57e16840df040f15088dc2f81fe391c3923bec73e23a9662efc9c229c6a00\n        /* \"@openzeppelin/contracts-upgradeable/proxy/utils/Initializable.sol\":8913:8934  INITIALIZABLE_STORAGE */\n      0x00\n      shl\n        /* \"@openzeppelin/contracts-upgradeable/proxy/utils/Initializable.sol\":8906:8934  return INITIALIZABLE_STORAGE */\n      swap1\n      pop\n        /* \"@openzeppelin/contracts-upgradeable/proxy/utils/Initializable.sol\":8819:8941  function _initializableStorageSlot() internal pure virtual returns (bytes32) {... */\n      swap1\n      jump\t// out\n        /* \"@openzeppelin/contracts-upgradeable/proxy/utils/Initializable.sol\":7082:7223  function _checkInitializing() internal view virtual {... */\n    tag_158:\n        /* \"@openzeppelin/contracts-upgradeable/proxy/utils/Initializable.sol\":7149:7166  _isInitializing() */\n      tag_195\n        /* \"@openzeppelin/contracts-upgradeable/proxy/utils/Initializable.sol\":7149:7164  _isInitializing */\n      tag_196\n        /* \"@openzeppelin/contracts-upgradeable/proxy/utils/Initializable.sol\":7149:7166  _isInitializing() */\n      jump\t// in\n    tag_195:\n        /* \"@openzeppelin/contracts-upgradeable/proxy/utils/Initializable.sol\":7144:7217  if (!_isInitializing()) {... */\n      tag_197\n      jumpi\n        /* \"@openzeppelin/contracts-upgradeable/proxy/utils/Initializable.sol\":7189:7206  NotInitializing() */\n      mload(0x40)\n      0xd7e6bcf800000000000000000000000000000000000000000000000000000000\n      dup2\n      mstore\n      0x04\n      add\n      mload(0x40)\n      dup1\n      swap2\n      sub\n      swap1\n      revert\n        /* \"@openzeppelin/contracts-upgradeable/proxy/utils/Initializable.sol\":7144:7217  if (!_isInitializing()) {... */\n    tag_197:\n        /* \"@openzeppelin/contracts-upgradeable/proxy/utils/Initializable.sol\":7082:7223  function _checkInitializing() internal view virtual {... */\n      jump\t// out\n        /* \"@openzeppelin/contracts-upgradeable/access/OwnableUpgradeable.sol\":1980:2215  function __Ownable_init_unchained(address initialOwner) internal onlyInitializing {... */\n    tag_161:\n        /* \"@openzeppelin/contracts-upgradeable/proxy/utils/Initializable.sol\":6929:6949  _checkInitializing() */\n      tag_199\n        /* \"@openzeppelin/contracts-upgradeable/proxy/utils/Initializable.sol\":6929:6947  _checkInitializing */\n      tag_158\n        /* \"@openzeppelin/contracts-upgradeable/proxy/utils/Initializable.sol\":6929:6949  _checkInitializing() */\n      jump\t// in\n    tag_199:\n        /* \"@openzeppelin/contracts-upgradeable/access/OwnableUpgradeable.sol\":2100:2101  0 */\n      0x00\n        /* \"@openzeppelin/contracts-upgradeable/access/OwnableUpgradeable.sol\":2076:2102  initialOwner == address(0) */\n      0xffffffffffffffffffffffffffffffffffffffff\n      and\n        /* \"@openzeppelin/contracts-upgradeable/access/OwnableUpgradeable.sol\":2076:2088  initialOwner */\n      dup2\n        /* \"@openzeppelin/contracts-upgradeable/access/OwnableUpgradeable.sol\":2076:2102  initialOwner == address(0) */\n      0xffffffffffffffffffffffffffffffffffffffff\n      and\n      sub\n        /* \"@openzeppelin/contracts-upgradeable/access/OwnableUpgradeable.sol\":2072:2167  if (initialOwner == address(0)) {... */\n      tag_201\n      jumpi\n        /* \"@openzeppelin/contracts-upgradeable/access/OwnableUpgradeable.sol\":2153:2154  0 */\n      0x00\n        /* \"@openzeppelin/contracts-upgradeable/access/OwnableUpgradeable.sol\":2125:2156  OwnableInvalidOwner(address(0)) */\n      mload(0x40)\n      0x1e4fbdf700000000000000000000000000000000000000000000000000000000\n      dup2\n      mstore\n      0x04\n      add\n      tag_202\n      swap2\n      swap1\n      tag_50\n      jump\t// in\n    tag_202:\n      mload(0x40)\n      dup1\n      swap2\n      sub\n      swap1\n      revert\n        /* \"@openzeppelin/contracts-upgradeable/access/OwnableUpgradeable.sol\":2072:2167  if (initialOwner == address(0)) {... */\n    tag_201:\n        /* \"@openzeppelin/contracts-upgradeable/access/OwnableUpgradeable.sol\":2176:2208  _transferOwnership(initialOwner) */\n      tag_203\n        /* \"@openzeppelin/contracts-upgradeable/access/OwnableUpgradeable.sol\":2195:2207  initialOwner */\n      dup2\n        /* \"@openzeppelin/contracts-upgradeable/access/OwnableUpgradeable.sol\":2176:2194  _transferOwnership */\n      tag_121\n        /* \"@openzeppelin/contracts-upgradeable/access/OwnableUpgradeable.sol\":2176:2208  _transferOwnership(initialOwner) */\n      jump\t// in\n    tag_203:\n        /* \"@openzeppelin/contracts-upgradeable/access/OwnableUpgradeable.sol\":1980:2215  function __Ownable_init_unchained(address initialOwner) internal onlyInitializing {... */\n      pop\n      jump\t// out\n        /* \"@openzeppelin/contracts/proxy/ERC1967/ERC1967Utils.sol\":1441:1579  function getImplementation() internal view returns (address) {... */\n    tag_168:\n        /* \"@openzeppelin/contracts/proxy/ERC1967/ERC1967Utils.sol\":1493:1500  address */\n      0x00\n        /* \"@openzeppelin/contracts/proxy/ERC1967/ERC1967Utils.sol\":1519:1566  StorageSlot.getAddressSlot(IMPLEMENTATION_SLOT) */\n      tag_205\n        /* \"@openzeppelin/contracts/proxy/ERC1967/ERC1967Utils.sol\":811:877  0x360894a13ba1a3210667c828492db98dca3e2076cc3735a920a3ca505d382bbc */\n      0x360894a13ba1a3210667c828492db98dca3e2076cc3735a920a3ca505d382bbc\n        /* \"@openzeppelin/contracts/proxy/ERC1967/ERC1967Utils.sol\":1546:1565  IMPLEMENTATION_SLOT */\n      0x00\n      shl\n        /* \"@openzeppelin/contracts/proxy/ERC1967/ERC1967Utils.sol\":1519:1545  StorageSlot.getAddressSlot */\n      tag_206\n        /* \"@openzeppelin/contracts/proxy/ERC1967/ERC1967Utils.sol\":1519:1566  StorageSlot.getAddressSlot(IMPLEMENTATION_SLOT) */\n      jump\t// in\n    tag_205:\n        /* \"@openzeppelin/contracts/proxy/ERC1967/ERC1967Utils.sol\":1519:1572  StorageSlot.getAddressSlot(IMPLEMENTATION_SLOT).value */\n      0x00\n      add\n      0x00\n      swap1\n      sload\n      swap1\n      0x0100\n      exp\n      swap1\n      div\n      0xffffffffffffffffffffffffffffffffffffffff\n      and\n        /* \"@openzeppelin/contracts/proxy/ERC1967/ERC1967Utils.sol\":1512:1572  return StorageSlot.getAddressSlot(IMPLEMENTATION_SLOT).value */\n      swap1\n      pop\n        /* \"@openzeppelin/contracts/proxy/ERC1967/ERC1967Utils.sol\":1441:1579  function getImplementation() internal view returns (address) {... */\n      swap1\n      jump\t// out\n        /* \"@openzeppelin/contracts/proxy/ERC1967/ERC1967Utils.sol\":2264:2608  function upgradeToAndCall(address newImplementation, bytes memory data) internal {... */\n    tag_186:\n        /* \"@openzeppelin/contracts/proxy/ERC1967/ERC1967Utils.sol\":2355:2392  _setImplementation(newImplementation) */\n      tag_208\n        /* \"@openzeppelin/contracts/proxy/ERC1967/ERC1967Utils.sol\":2374:2391  newImplementation */\n      dup3\n        /* \"@openzeppelin/contracts/proxy/ERC1967/ERC1967Utils.sol\":2355:2373  _setImplementation */\n      tag_209\n        /* \"@openzeppelin/contracts/proxy/ERC1967/ERC1967Utils.sol\":2355:2392  _setImplementation(newImplementation) */\n      jump\t// in\n    tag_208:\n        /* \"@openzeppelin/contracts/proxy/ERC1967/ERC1967Utils.sol\":2425:2442  newImplementation */\n      dup2\n        /* \"@openzeppelin/contracts/proxy/ERC1967/ERC1967Utils.sol\":2407:2443  IERC1967.Upgraded(newImplementation) */\n      0xffffffffffffffffffffffffffffffffffffffff\n      and\n      0xbc7cd75a20ee27fd9adebab32041f755214dbc6bffa90cc0225b39da2e5c2d3b\n      mload(0x40)\n      mload(0x40)\n      dup1\n      swap2\n      sub\n      swap1\n      log2\n        /* \"@openzeppelin/contracts/proxy/ERC1967/ERC1967Utils.sol\":2472:2473  0 */\n      0x00\n        /* \"@openzeppelin/contracts/proxy/ERC1967/ERC1967Utils.sol\":2458:2462  data */\n      dup2\n        /* \"@openzeppelin/contracts/proxy/ERC1967/ERC1967Utils.sol\":2458:2469  data.length */\n      mload\n        /* \"@openzeppelin/contracts/proxy/ERC1967/ERC1967Utils.sol\":2458:2473  data.length > 0 */\n      gt\n        /* \"@openzeppelin/contracts/proxy/ERC1967/ERC1967Utils.sol\":2454:2602  if (data.length > 0) {... */\n      iszero\n      tag_210\n      jumpi\n        /* \"@openzeppelin/contracts/proxy/ERC1967/ERC1967Utils.sol\":2489:2542  Address.functionDelegateCall(newImplementation, data) */\n      tag_211\n        /* \"@openzeppelin/contracts/proxy/ERC1967/ERC1967Utils.sol\":2518:2535  newImplementation */\n      dup3\n        /* \"@openzeppelin/contracts/proxy/ERC1967/ERC1967Utils.sol\":2537:2541  data */\n      dup3\n        /* \"@openzeppelin/contracts/proxy/ERC1967/ERC1967Utils.sol\":2489:2517  Address.functionDelegateCall */\n      tag_212\n        /* \"@openzeppelin/contracts/proxy/ERC1967/ERC1967Utils.sol\":2489:2542  Address.functionDelegateCall(newImplementation, data) */\n      jump\t// in\n    tag_211:\n      pop\n        /* \"@openzeppelin/contracts/proxy/ERC1967/ERC1967Utils.sol\":2454:2602  if (data.length > 0) {... */\n      jump(tag_213)\n    tag_210:\n        /* \"@openzeppelin/contracts/proxy/ERC1967/ERC1967Utils.sol\":2573:2591  _checkNonPayable() */\n      tag_214\n        /* \"@openzeppelin/contracts/proxy/ERC1967/ERC1967Utils.sol\":2573:2589  _checkNonPayable */\n      tag_215\n        /* \"@openzeppelin/contracts/proxy/ERC1967/ERC1967Utils.sol\":2573:2591  _checkNonPayable() */\n      jump\t// in\n    tag_214:\n        /* \"@openzeppelin/contracts/proxy/ERC1967/ERC1967Utils.sol\":2454:2602  if (data.length > 0) {... */\n    tag_213:\n        /* \"@openzeppelin/contracts/proxy/ERC1967/ERC1967Utils.sol\":2264:2608  function upgradeToAndCall(address newImplementation, bytes memory data) internal {... */\n      pop\n      pop\n      jump\t// out\n        /* \"@openzeppelin/contracts-upgradeable/proxy/utils/Initializable.sol\":8485:8605  function _isInitializing() internal view returns (bool) {... */\n    tag_196:\n        /* \"@openzeppelin/contracts-upgradeable/proxy/utils/Initializable.sol\":8535:8539  bool */\n      0x00\n        /* \"@openzeppelin/contracts-upgradeable/proxy/utils/Initializable.sol\":8558:8584  _getInitializableStorage() */\n      tag_217\n        /* \"@openzeppelin/contracts-upgradeable/proxy/utils/Initializable.sol\":8558:8582  _getInitializableStorage */\n      tag_91\n        /* \"@openzeppelin/contracts-upgradeable/proxy/utils/Initializable.sol\":8558:8584  _getInitializableStorage() */\n      jump\t// in\n    tag_217:\n        /* \"@openzeppelin/contracts-upgradeable/proxy/utils/Initializable.sol\":8558:8598  _getInitializableStorage()._initializing */\n      0x00\n      add\n      0x08\n      swap1\n      sload\n      swap1\n      0x0100\n      exp\n      swap1\n      div\n      0xff\n      and\n        /* \"@openzeppelin/contracts-upgradeable/proxy/utils/Initializable.sol\":8551:8598  return _getInitializableStorage()._initializing */\n      swap1\n      pop\n        /* \"@openzeppelin/contracts-upgradeable/proxy/utils/Initializable.sol\":8485:8605  function _isInitializing() internal view returns (bool) {... */\n      swap1\n      jump\t// out\n        /* \"@openzeppelin/contracts/utils/StorageSlot.sol\":1899:2062  function getAddressSlot(bytes32 slot) internal pure returns (AddressSlot storage r) {... */\n    tag_206:\n        /* \"@openzeppelin/contracts/utils/StorageSlot.sol\":1960:1981  AddressSlot storage r */\n      0x00\n        /* \"@openzeppelin/contracts/utils/StorageSlot.sol\":2042:2046  slot */\n      dup2\n        /* \"@openzeppelin/contracts/utils/StorageSlot.sol\":2032:2046  r.slot := slot */\n      swap1\n      pop\n        /* \"@openzeppelin/contracts/utils/StorageSlot.sol\":1899:2062  function getAddressSlot(bytes32 slot) internal pure returns (AddressSlot storage r) {... */\n      swap2\n      swap1\n      pop\n      jump\t// out\n        /* \"@openzeppelin/contracts/proxy/ERC1967/ERC1967Utils.sol\":1671:1952  function _setImplementation(address newImplementation) private {... */\n    tag_209:\n        /* \"@openzeppelin/contracts/proxy/ERC1967/ERC1967Utils.sol\":1781:1782  0 */\n      0x00\n        /* \"@openzeppelin/contracts/proxy/ERC1967/ERC1967Utils.sol\":1748:1765  newImplementation */\n      dup2\n        /* \"@openzeppelin/contracts/proxy/ERC1967/ERC1967Utils.sol\":1748:1777  newImplementation.code.length */\n      0xffffffffffffffffffffffffffffffffffffffff\n      and\n      extcodesize\n        /* \"@openzeppelin/contracts/proxy/ERC1967/ERC1967Utils.sol\":1748:1782  newImplementation.code.length == 0 */\n      sub\n        /* \"@openzeppelin/contracts/proxy/ERC1967/ERC1967Utils.sol\":1744:1863  if (newImplementation.code.length == 0) {... */\n      tag_220\n      jumpi\n        /* \"@openzeppelin/contracts/proxy/ERC1967/ERC1967Utils.sol\":1834:1851  newImplementation */\n      dup1\n        /* \"@openzeppelin/contracts/proxy/ERC1967/ERC1967Utils.sol\":1805:1852  ERC1967InvalidImplementation(newImplementation) */\n      mload(0x40)\n      0x4c9c8ce300000000000000000000000000000000000000000000000000000000\n      dup2\n      mstore\n      0x04\n      add\n      tag_221\n      swap2\n      swap1\n      tag_50\n      jump\t// in\n    tag_221:\n      mload(0x40)\n      dup1\n      swap2\n      sub\n      swap1\n      revert\n        /* \"@openzeppelin/contracts/proxy/ERC1967/ERC1967Utils.sol\":1744:1863  if (newImplementation.code.length == 0) {... */\n    tag_220:\n        /* \"@openzeppelin/contracts/proxy/ERC1967/ERC1967Utils.sol\":1928:1945  newImplementation */\n      dup1\n        /* \"@openzeppelin/contracts/proxy/ERC1967/ERC1967Utils.sol\":1872:1919  StorageSlot.getAddressSlot(IMPLEMENTATION_SLOT) */\n      tag_222\n        /* \"@openzeppelin/contracts/proxy/ERC1967/ERC1967Utils.sol\":811:877  0x360894a13ba1a3210667c828492db98dca3e2076cc3735a920a3ca505d382bbc */\n      0x360894a13ba1a3210667c828492db98dca3e2076cc3735a920a3ca505d382bbc\n        /* \"@openzeppelin/contracts/proxy/ERC1967/ERC1967Utils.sol\":1899:1918  IMPLEMENTATION_SLOT */\n      0x00\n      shl\n        /* \"@openzeppelin/contracts/proxy/ERC1967/ERC1967Utils.sol\":1872:1898  StorageSlot.getAddressSlot */\n      tag_206\n        /* \"@openzeppelin/contracts/proxy/ERC1967/ERC1967Utils.sol\":1872:1919  StorageSlot.getAddressSlot(IMPLEMENTATION_SLOT) */\n      jump\t// in\n    tag_222:\n        /* \"@openzeppelin/contracts/proxy/ERC1967/ERC1967Utils.sol\":1872:1925  StorageSlot.getAddressSlot(IMPLEMENTATION_SLOT).value */\n      0x00\n      add\n      0x00\n        /* \"@openzeppelin/contracts/proxy/ERC1967/ERC1967Utils.sol\":1872:1945  StorageSlot.getAddressSlot(IMPLEMENTATION_SLOT).value = newImplementation */\n      0x0100\n      exp\n      dup2\n      sload\n      dup2\n      0xffffffffffffffffffffffffffffffffffffffff\n      mul\n      not\n      and\n      swap1\n      dup4\n      0xffffffffffffffffffffffffffffffffffffffff\n      and\n      mul\n      or\n      swap1\n      sstore\n      pop\n        /* \"@openzeppelin/contracts/proxy/ERC1967/ERC1967Utils.sol\":1671:1952  function _setImplementation(address newImplementation) private {... */\n      pop\n      jump\t// out\n        /* \"@openzeppelin/contracts/utils/Address.sol\":3916:4169  function functionDelegateCall(address target, bytes memory data) internal returns (bytes memory) {... */\n    tag_212:\n        /* \"@openzeppelin/contracts/utils/Address.sol\":3999:4011  bytes memory */\n      0x60\n        /* \"@openzeppelin/contracts/utils/Address.sol\":4024:4036  bool success */\n      0x00\n        /* \"@openzeppelin/contracts/utils/Address.sol\":4038:4061  bytes memory returndata */\n      dup1\n        /* \"@openzeppelin/contracts/utils/Address.sol\":4065:4071  target */\n      dup5\n        /* \"@openzeppelin/contracts/utils/Address.sol\":4065:4084  target.delegatecall */\n      0xffffffffffffffffffffffffffffffffffffffff\n      and\n        /* \"@openzeppelin/contracts/utils/Address.sol\":4085:4089  data */\n      dup5\n        /* \"@openzeppelin/contracts/utils/Address.sol\":4065:4090  target.delegatecall(data) */\n      mload(0x40)\n      tag_224\n      swap2\n      swap1\n      tag_225\n      jump\t// in\n    tag_224:\n      0x00\n      mload(0x40)\n      dup1\n      dup4\n      sub\n      dup2\n      dup6\n      gas\n      delegatecall\n      swap2\n      pop\n      pop\n      returndatasize\n      dup1\n      0x00\n      dup2\n      eq\n      tag_228\n      jumpi\n      mload(0x40)\n      swap2\n      pop\n      and(add(returndatasize, 0x3f), not(0x1f))\n      dup3\n      add\n      0x40\n      mstore\n      returndatasize\n      dup3\n      mstore\n      returndatasize\n      0x00\n      0x20\n      dup5\n      add\n      returndatacopy\n      jump(tag_227)\n    tag_228:\n      0x60\n      swap2\n      pop\n    tag_227:\n      pop\n        /* \"@openzeppelin/contracts/utils/Address.sol\":4023:4090  (bool success, bytes memory returndata) = target.delegatecall(data) */\n      swap2\n      pop\n      swap2\n      pop\n        /* \"@openzeppelin/contracts/utils/Address.sol\":4107:4162  verifyCallResultFromTarget(target, success, returndata) */\n      tag_229\n        /* \"@openzeppelin/contracts/utils/Address.sol\":4134:4140  target */\n      dup6\n        /* \"@openzeppelin/contracts/utils/Address.sol\":4142:4149  success */\n      dup4\n        /* \"@openzeppelin/contracts/utils/Address.sol\":4151:4161  returndata */\n      dup4\n        /* \"@openzeppelin/contracts/utils/Address.sol\":4107:4133  verifyCallResultFromTarget */\n      tag_230\n        /* \"@openzeppelin/contracts/utils/Address.sol\":4107:4162  verifyCallResultFromTarget(target, success, returndata) */\n      jump\t// in\n    tag_229:\n        /* \"@openzeppelin/contracts/utils/Address.sol\":4100:4162  return verifyCallResultFromTarget(target, success, returndata) */\n      swap3\n      pop\n      pop\n      pop\n        /* \"@openzeppelin/contracts/utils/Address.sol\":3916:4169  function functionDelegateCall(address target, bytes memory data) internal returns (bytes memory) {... */\n      swap3\n      swap2\n      pop\n      pop\n      jump\t// out\n        /* \"@openzeppelin/contracts/proxy/ERC1967/ERC1967Utils.sol\":6113:6235  function _checkNonPayable() private {... */\n    tag_215:\n        /* \"@openzeppelin/contracts/proxy/ERC1967/ERC1967Utils.sol\":6175:6176  0 */\n      0x00\n        /* \"@openzeppelin/contracts/proxy/ERC1967/ERC1967Utils.sol\":6163:6172  msg.value */\n      callvalue\n        /* \"@openzeppelin/contracts/proxy/ERC1967/ERC1967Utils.sol\":6163:6176  msg.value > 0 */\n      gt\n        /* \"@openzeppelin/contracts/proxy/ERC1967/ERC1967Utils.sol\":6159:6229  if (msg.value > 0) {... */\n      iszero\n      tag_232\n      jumpi\n        /* \"@openzeppelin/contracts/proxy/ERC1967/ERC1967Utils.sol\":6199:6218  ERC1967NonPayable() */\n      mload(0x40)\n      0xb398979f00000000000000000000000000000000000000000000000000000000\n      dup2\n      mstore\n      0x04\n      add\n      mload(0x40)\n      dup1\n      swap2\n      sub\n      swap1\n      revert\n        /* \"@openzeppelin/contracts/proxy/ERC1967/ERC1967Utils.sol\":6159:6229  if (msg.value > 0) {... */\n    tag_232:\n        /* \"@openzeppelin/contracts/proxy/ERC1967/ERC1967Utils.sol\":6113:6235  function _checkNonPayable() private {... */\n      jump\t// out\n        /* \"@openzeppelin/contracts/utils/Address.sol\":4437:5019  function verifyCallResultFromTarget(... */\n    tag_230:\n        /* \"@openzeppelin/contracts/utils/Address.sol\":4581:4593  bytes memory */\n      0x60\n        /* \"@openzeppelin/contracts/utils/Address.sol\":4610:4617  success */\n      dup3\n        /* \"@openzeppelin/contracts/utils/Address.sol\":4605:5013  if (!success) {... */\n      tag_234\n      jumpi\n        /* \"@openzeppelin/contracts/utils/Address.sol\":4633:4652  _revert(returndata) */\n      tag_235\n        /* \"@openzeppelin/contracts/utils/Address.sol\":4641:4651  returndata */\n      dup3\n        /* \"@openzeppelin/contracts/utils/Address.sol\":4633:4640  _revert */\n      tag_236\n        /* \"@openzeppelin/contracts/utils/Address.sol\":4633:4652  _revert(returndata) */\n      jump\t// in\n    tag_235:\n        /* \"@openzeppelin/contracts/utils/Address.sol\":4605:5013  if (!success) {... */\n      jump(tag_237)\n    tag_234:\n        /* \"@openzeppelin/contracts/utils/Address.sol\":4878:4879  0 */\n      0x00\n        /* \"@openzeppelin/contracts/utils/Address.sol\":4857:4867  returndata */\n      dup3\n        /* \"@openzeppelin/contracts/utils/Address.sol\":4857:4874  returndata.length */\n      mload\n        /* \"@openzeppelin/contracts/utils/Address.sol\":4857:4879  returndata.length == 0 */\n      eq\n        /* \"@openzeppelin/contracts/utils/Address.sol\":4857:4906  returndata.length == 0 && target.code.length == 0 */\n      dup1\n      iszero\n      tag_238\n      jumpi\n      pop\n        /* \"@openzeppelin/contracts/utils/Address.sol\":4905:4906  0 */\n      0x00\n        /* \"@openzeppelin/contracts/utils/Address.sol\":4883:4889  target */\n      dup5\n        /* \"@openzeppelin/contracts/utils/Address.sol\":4883:4901  target.code.length */\n      0xffffffffffffffffffffffffffffffffffffffff\n      and\n      extcodesize\n        /* \"@openzeppelin/contracts/utils/Address.sol\":4883:4906  target.code.length == 0 */\n      eq\n        /* \"@openzeppelin/contracts/utils/Address.sol\":4857:4906  returndata.length == 0 && target.code.length == 0 */\n    tag_238:\n        /* \"@openzeppelin/contracts/utils/Address.sol\":4853:4972  if (returndata.length == 0 && target.code.length == 0) {... */\n      iszero\n      tag_239\n      jumpi\n        /* \"@openzeppelin/contracts/utils/Address.sol\":4950:4956  target */\n      dup4\n        /* \"@openzeppelin/contracts/utils/Address.sol\":4933:4957  AddressEmptyCode(target) */\n      mload(0x40)\n      0x9996b31500000000000000000000000000000000000000000000000000000000\n      dup2\n      mstore\n      0x04\n      add\n      tag_240\n      swap2\n      swap1\n      tag_50\n      jump\t// in\n    tag_240:\n      mload(0x40)\n      dup1\n      swap2\n      sub\n      swap1\n      revert\n        /* \"@openzeppelin/contracts/utils/Address.sol\":4853:4972  if (returndata.length == 0 && target.code.length == 0) {... */\n    tag_239:\n        /* \"@openzeppelin/contracts/utils/Address.sol\":4992:5002  returndata */\n      dup2\n        /* \"@openzeppelin/contracts/utils/Address.sol\":4985:5002  return returndata */\n      swap1\n      pop\n      jump(tag_233)\n        /* \"@openzeppelin/contracts/utils/Address.sol\":4605:5013  if (!success) {... */\n    tag_237:\n        /* \"@openzeppelin/contracts/utils/Address.sol\":4437:5019  function verifyCallResultFromTarget(... */\n    tag_233:\n      swap4\n      swap3\n      pop\n      pop\n      pop\n      jump\t// out\n        /* \"@openzeppelin/contracts/utils/Address.sol\":5559:6046  function _revert(bytes memory returndata) private pure {... */\n    tag_236:\n        /* \"@openzeppelin/contracts/utils/Address.sol\":5710:5711  0 */\n      0x00\n        /* \"@openzeppelin/contracts/utils/Address.sol\":5690:5700  returndata */\n      dup2\n        /* \"@openzeppelin/contracts/utils/Address.sol\":5690:5707  returndata.length */\n      mload\n        /* \"@openzeppelin/contracts/utils/Address.sol\":5690:5711  returndata.length > 0 */\n      gt\n        /* \"@openzeppelin/contracts/utils/Address.sol\":5686:6040  if (returndata.length > 0) {... */\n      iszero\n      tag_242\n      jumpi\n        /* \"@openzeppelin/contracts/utils/Address.sol\":5887:5897  returndata */\n      dup1\n        /* \"@openzeppelin/contracts/utils/Address.sol\":5881:5898  mload(returndata) */\n      mload\n        /* \"@openzeppelin/contracts/utils/Address.sol\":5943:5958  returndata_size */\n      dup1\n        /* \"@openzeppelin/contracts/utils/Address.sol\":5930:5940  returndata */\n      dup3\n        /* \"@openzeppelin/contracts/utils/Address.sol\":5926:5928  32 */\n      0x20\n        /* \"@openzeppelin/contracts/utils/Address.sol\":5922:5941  add(32, returndata) */\n      add\n        /* \"@openzeppelin/contracts/utils/Address.sol\":5915:5959  revert(add(32, returndata), returndata_size) */\n      revert\n        /* \"@openzeppelin/contracts/utils/Address.sol\":5686:6040  if (returndata.length > 0) {... */\n    tag_242:\n        /* \"@openzeppelin/contracts/utils/Address.sol\":6010:6029  Errors.FailedCall() */\n      mload(0x40)\n      0xd6bda27500000000000000000000000000000000000000000000000000000000\n      dup2\n      mstore\n      0x04\n      add\n      mload(0x40)\n      dup1\n      swap2\n      sub\n      swap1\n      revert\n        /* \"#utility.yul\":7:133   */\n    tag_244:\n        /* \"#utility.yul\":44:51   */\n      0x00\n        /* \"#utility.yul\":84:126   */\n      0xffffffffffffffffffffffffffffffffffffffff\n        /* \"#utility.yul\":77:82   */\n      dup3\n        /* \"#utility.yul\":73:127   */\n      and\n        /* \"#utility.yul\":62:127   */\n      swap1\n      pop\n        /* \"#utility.yul\":7:133   */\n      swap2\n      swap1\n      pop\n      jump\t// out\n        /* \"#utility.yul\":139:199   */\n    tag_245:\n        /* \"#utility.yul\":167:170   */\n      0x00\n        /* \"#utility.yul\":188:193   */\n      dup2\n        /* \"#utility.yul\":181:193   */\n      swap1\n      pop\n        /* \"#utility.yul\":139:199   */\n      swap2\n      swap1\n      pop\n      jump\t// out\n        /* \"#utility.yul\":205:347   */\n    tag_246:\n        /* \"#utility.yul\":255:264   */\n      0x00\n        /* \"#utility.yul\":288:341   */\n      tag_300\n        /* \"#utility.yul\":306:340   */\n      tag_301\n        /* \"#utility.yul\":315:339   */\n      tag_302\n        /* \"#utility.yul\":333:338   */\n      dup5\n        /* \"#utility.yul\":315:339   */\n      tag_244\n      jump\t// in\n    tag_302:\n        /* \"#utility.yul\":306:340   */\n      tag_245\n      jump\t// in\n    tag_301:\n        /* \"#utility.yul\":288:341   */\n      tag_244\n      jump\t// in\n    tag_300:\n        /* \"#utility.yul\":275:341   */\n      swap1\n      pop\n        /* \"#utility.yul\":205:347   */\n      swap2\n      swap1\n      pop\n      jump\t// out\n        /* \"#utility.yul\":353:479   */\n    tag_247:\n        /* \"#utility.yul\":403:412   */\n      0x00\n        /* \"#utility.yul\":436:473   */\n      tag_304\n        /* \"#utility.yul\":467:472   */\n      dup3\n        /* \"#utility.yul\":436:473   */\n      tag_246\n      jump\t// in\n    tag_304:\n        /* \"#utility.yul\":423:473   */\n      swap1\n      pop\n        /* \"#utility.yul\":353:479   */\n      swap2\n      swap1\n      pop\n      jump\t// out\n        /* \"#utility.yul\":485:642   */\n    tag_248:\n        /* \"#utility.yul\":566:575   */\n      0x00\n        /* \"#utility.yul\":599:636   */\n      tag_306\n        /* \"#utility.yul\":630:635   */\n      dup3\n        /* \"#utility.yul\":599:636   */\n      tag_247\n      jump\t// in\n    tag_306:\n        /* \"#utility.yul\":586:636   */\n      swap1\n      pop\n        /* \"#utility.yul\":485:642   */\n      swap2\n      swap1\n      pop\n      jump\t// out\n        /* \"#utility.yul\":648:841   */\n    tag_249:\n        /* \"#utility.yul\":766:834   */\n      tag_308\n        /* \"#utility.yul\":828:833   */\n      dup2\n        /* \"#utility.yul\":766:834   */\n      tag_248\n      jump\t// in\n    tag_308:\n        /* \"#utility.yul\":761:764   */\n      dup3\n        /* \"#utility.yul\":754:835   */\n      mstore\n        /* \"#utility.yul\":648:841   */\n      pop\n      pop\n      jump\t// out\n        /* \"#utility.yul\":847:1131   */\n    tag_19:\n        /* \"#utility.yul\":971:975   */\n      0x00\n        /* \"#utility.yul\":1009:1011   */\n      0x20\n        /* \"#utility.yul\":998:1007   */\n      dup3\n        /* \"#utility.yul\":994:1012   */\n      add\n        /* \"#utility.yul\":986:1012   */\n      swap1\n      pop\n        /* \"#utility.yul\":1022:1124   */\n      tag_310\n        /* \"#utility.yul\":1121:1122   */\n      0x00\n        /* \"#utility.yul\":1110:1119   */\n      dup4\n        /* \"#utility.yul\":1106:1123   */\n      add\n        /* \"#utility.yul\":1097:1103   */\n      dup5\n        /* \"#utility.yul\":1022:1124   */\n      tag_249\n      jump\t// in\n    tag_310:\n        /* \"#utility.yul\":847:1131   */\n      swap3\n      swap2\n      pop\n      pop\n      jump\t// out\n        /* \"#utility.yul\":1137:1212   */\n    tag_250:\n        /* \"#utility.yul\":1170:1176   */\n      0x00\n        /* \"#utility.yul\":1203:1205   */\n      0x40\n        /* \"#utility.yul\":1197:1206   */\n      mload\n        /* \"#utility.yul\":1187:1206   */\n      swap1\n      pop\n        /* \"#utility.yul\":1137:1212   */\n      swap1\n      jump\t// out\n        /* \"#utility.yul\":1218:1335   */\n    tag_251:\n        /* \"#utility.yul\":1327:1328   */\n      0x00\n        /* \"#utility.yul\":1324:1325   */\n      dup1\n        /* \"#utility.yul\":1317:1329   */\n      revert\n        /* \"#utility.yul\":1341:1458   */\n    tag_252:\n        /* \"#utility.yul\":1450:1451   */\n      0x00\n        /* \"#utility.yul\":1447:1448   */\n      dup1\n        /* \"#utility.yul\":1440:1452   */\n      revert\n        /* \"#utility.yul\":1464:1557   */\n    tag_253:\n        /* \"#utility.yul\":1500:1507   */\n      0x00\n        /* \"#utility.yul\":1540:1550   */\n      0xffffffff\n        /* \"#utility.yul\":1533:1538   */\n      dup3\n        /* \"#utility.yul\":1529:1551   */\n      and\n        /* \"#utility.yul\":1518:1551   */\n      swap1\n      pop\n        /* \"#utility.yul\":1464:1557   */\n      swap2\n      swap1\n      pop\n      jump\t// out\n        /* \"#utility.yul\":1563:1683   */\n    tag_254:\n        /* \"#utility.yul\":1635:1658   */\n      tag_316\n        /* \"#utility.yul\":1652:1657   */\n      dup2\n        /* \"#utility.yul\":1635:1658   */\n      tag_253\n      jump\t// in\n    tag_316:\n        /* \"#utility.yul\":1628:1633   */\n      dup2\n        /* \"#utility.yul\":1625:1659   */\n      eq\n        /* \"#utility.yul\":1615:1677   */\n      tag_317\n      jumpi\n        /* \"#utility.yul\":1673:1674   */\n      0x00\n        /* \"#utility.yul\":1670:1671   */\n      dup1\n        /* \"#utility.yul\":1663:1675   */\n      revert\n        /* \"#utility.yul\":1615:1677   */\n    tag_317:\n        /* \"#utility.yul\":1563:1683   */\n      pop\n      jump\t// out\n        /* \"#utility.yul\":1689:1826   */\n    tag_255:\n        /* \"#utility.yul\":1734:1739   */\n      0x00\n        /* \"#utility.yul\":1772:1778   */\n      dup2\n        /* \"#utility.yul\":1759:1779   */\n      calldataload\n        /* \"#utility.yul\":1750:1779   */\n      swap1\n      pop\n        /* \"#utility.yul\":1788:1820   */\n      tag_319\n        /* \"#utility.yul\":1814:1819   */\n      dup2\n        /* \"#utility.yul\":1788:1820   */\n      tag_254\n      jump\t// in\n    tag_319:\n        /* \"#utility.yul\":1689:1826   */\n      swap3\n      swap2\n      pop\n      pop\n      jump\t// out\n        /* \"#utility.yul\":1832:1949   */\n    tag_256:\n        /* \"#utility.yul\":1941:1942   */\n      0x00\n        /* \"#utility.yul\":1938:1939   */\n      dup1\n        /* \"#utility.yul\":1931:1943   */\n      revert\n        /* \"#utility.yul\":1955:2072   */\n    tag_257:\n        /* \"#utility.yul\":2064:2065   */\n      0x00\n        /* \"#utility.yul\":2061:2062   */\n      dup1\n        /* \"#utility.yul\":2054:2066   */\n      revert\n        /* \"#utility.yul\":2078:2195   */\n    tag_258:\n        /* \"#utility.yul\":2187:2188   */\n      0x00\n        /* \"#utility.yul\":2184:2185   */\n      dup1\n        /* \"#utility.yul\":2177:2189   */\n      revert\n        /* \"#utility.yul\":2215:2768   */\n    tag_259:\n        /* \"#utility.yul\":2273:2281   */\n      0x00\n        /* \"#utility.yul\":2283:2289   */\n      dup1\n        /* \"#utility.yul\":2333:2336   */\n      dup4\n        /* \"#utility.yul\":2326:2330   */\n      0x1f\n        /* \"#utility.yul\":2318:2324   */\n      dup5\n        /* \"#utility.yul\":2314:2331   */\n      add\n        /* \"#utility.yul\":2310:2337   */\n      slt\n        /* \"#utility.yul\":2300:2422   */\n      tag_324\n      jumpi\n        /* \"#utility.yul\":2341:2420   */\n      tag_325\n      tag_256\n      jump\t// in\n    tag_325:\n        /* \"#utility.yul\":2300:2422   */\n    tag_324:\n        /* \"#utility.yul\":2454:2460   */\n      dup3\n        /* \"#utility.yul\":2441:2461   */\n      calldataload\n        /* \"#utility.yul\":2431:2461   */\n      swap1\n      pop\n        /* \"#utility.yul\":2484:2502   */\n      0xffffffffffffffff\n        /* \"#utility.yul\":2476:2482   */\n      dup2\n        /* \"#utility.yul\":2473:2503   */\n      gt\n        /* \"#utility.yul\":2470:2587   */\n      iszero\n      tag_326\n      jumpi\n        /* \"#utility.yul\":2506:2585   */\n      tag_327\n      tag_257\n      jump\t// in\n    tag_327:\n        /* \"#utility.yul\":2470:2587   */\n    tag_326:\n        /* \"#utility.yul\":2620:2624   */\n      0x20\n        /* \"#utility.yul\":2612:2618   */\n      dup4\n        /* \"#utility.yul\":2608:2625   */\n      add\n        /* \"#utility.yul\":2596:2625   */\n      swap2\n      pop\n        /* \"#utility.yul\":2674:2677   */\n      dup4\n        /* \"#utility.yul\":2666:2670   */\n      0x01\n        /* \"#utility.yul\":2658:2664   */\n      dup3\n        /* \"#utility.yul\":2654:2671   */\n      mul\n        /* \"#utility.yul\":2644:2652   */\n      dup4\n        /* \"#utility.yul\":2640:2672   */\n      add\n        /* \"#utility.yul\":2637:2678   */\n      gt\n        /* \"#utility.yul\":2634:2762   */\n      iszero\n      tag_328\n      jumpi\n        /* \"#utility.yul\":2681:2760   */\n      tag_329\n      tag_258\n      jump\t// in\n    tag_329:\n        /* \"#utility.yul\":2634:2762   */\n    tag_328:\n        /* \"#utility.yul\":2215:2768   */\n      swap3\n      pop\n      swap3\n      swap1\n      pop\n      jump\t// out\n        /* \"#utility.yul\":2787:3339   */\n    tag_260:\n        /* \"#utility.yul\":2844:2852   */\n      0x00\n        /* \"#utility.yul\":2854:2860   */\n      dup1\n        /* \"#utility.yul\":2904:2907   */\n      dup4\n        /* \"#utility.yul\":2897:2901   */\n      0x1f\n        /* \"#utility.yul\":2889:2895   */\n      dup5\n        /* \"#utility.yul\":2885:2902   */\n      add\n        /* \"#utility.yul\":2881:2908   */\n      slt\n        /* \"#utility.yul\":2871:2993   */\n      tag_331\n      jumpi\n        /* \"#utility.yul\":2912:2991   */\n      tag_332\n      tag_256\n      jump\t// in\n    tag_332:\n        /* \"#utility.yul\":2871:2993   */\n    tag_331:\n        /* \"#utility.yul\":3025:3031   */\n      dup3\n        /* \"#utility.yul\":3012:3032   */\n      calldataload\n        /* \"#utility.yul\":3002:3032   */\n      swap1\n      pop\n        /* \"#utility.yul\":3055:3073   */\n      0xffffffffffffffff\n        /* \"#utility.yul\":3047:3053   */\n      dup2\n        /* \"#utility.yul\":3044:3074   */\n      gt\n        /* \"#utility.yul\":3041:3158   */\n      iszero\n      tag_333\n      jumpi\n        /* \"#utility.yul\":3077:3156   */\n      tag_334\n      tag_257\n      jump\t// in\n    tag_334:\n        /* \"#utility.yul\":3041:3158   */\n    tag_333:\n        /* \"#utility.yul\":3191:3195   */\n      0x20\n        /* \"#utility.yul\":3183:3189   */\n      dup4\n        /* \"#utility.yul\":3179:3196   */\n      add\n        /* \"#utility.yul\":3167:3196   */\n      swap2\n      pop\n        /* \"#utility.yul\":3245:3248   */\n      dup4\n        /* \"#utility.yul\":3237:3241   */\n      0x01\n        /* \"#utility.yul\":3229:3235   */\n      dup3\n        /* \"#utility.yul\":3225:3242   */\n      mul\n        /* \"#utility.yul\":3215:3223   */\n      dup4\n        /* \"#utility.yul\":3211:3243   */\n      add\n        /* \"#utility.yul\":3208:3249   */\n      gt\n        /* \"#utility.yul\":3205:3333   */\n      iszero\n      tag_335\n      jumpi\n        /* \"#utility.yul\":3252:3331   */\n      tag_336\n      tag_258\n      jump\t// in\n    tag_336:\n        /* \"#utility.yul\":3205:3333   */\n    tag_335:\n        /* \"#utility.yul\":2787:3339   */\n      swap3\n      pop\n      swap3\n      swap1\n      pop\n      jump\t// out\n        /* \"#utility.yul\":3345:4360   */\n    tag_22:\n        /* \"#utility.yul\":3444:3450   */\n      0x00\n        /* \"#utility.yul\":3452:3458   */\n      dup1\n        /* \"#utility.yul\":3460:3466   */\n      0x00\n        /* \"#utility.yul\":3468:3474   */\n      dup1\n        /* \"#utility.yul\":3476:3482   */\n      0x00\n        /* \"#utility.yul\":3525:3527   */\n      0x60\n        /* \"#utility.yul\":3513:3522   */\n      dup7\n        /* \"#utility.yul\":3504:3511   */\n      dup9\n        /* \"#utility.yul\":3500:3523   */\n      sub\n        /* \"#utility.yul\":3496:3528   */\n      slt\n        /* \"#utility.yul\":3493:3612   */\n      iszero\n      tag_338\n      jumpi\n        /* \"#utility.yul\":3531:3610   */\n      tag_339\n      tag_251\n      jump\t// in\n    tag_339:\n        /* \"#utility.yul\":3493:3612   */\n    tag_338:\n        /* \"#utility.yul\":3651:3652   */\n      0x00\n        /* \"#utility.yul\":3676:3728   */\n      tag_340\n        /* \"#utility.yul\":3720:3727   */\n      dup9\n        /* \"#utility.yul\":3711:3717   */\n      dup3\n        /* \"#utility.yul\":3700:3709   */\n      dup10\n        /* \"#utility.yul\":3696:3718   */\n      add\n        /* \"#utility.yul\":3676:3728   */\n      tag_255\n      jump\t// in\n    tag_340:\n        /* \"#utility.yul\":3666:3728   */\n      swap6\n      pop\n        /* \"#utility.yul\":3622:3738   */\n      pop\n        /* \"#utility.yul\":3805:3807   */\n      0x20\n        /* \"#utility.yul\":3794:3803   */\n      dup7\n        /* \"#utility.yul\":3790:3808   */\n      add\n        /* \"#utility.yul\":3777:3809   */\n      calldataload\n        /* \"#utility.yul\":3836:3854   */\n      0xffffffffffffffff\n        /* \"#utility.yul\":3828:3834   */\n      dup2\n        /* \"#utility.yul\":3825:3855   */\n      gt\n        /* \"#utility.yul\":3822:3939   */\n      iszero\n      tag_341\n      jumpi\n        /* \"#utility.yul\":3858:3937   */\n      tag_342\n      tag_252\n      jump\t// in\n    tag_342:\n        /* \"#utility.yul\":3822:3939   */\n    tag_341:\n        /* \"#utility.yul\":3971:4036   */\n      tag_343\n        /* \"#utility.yul\":4028:4035   */\n      dup9\n        /* \"#utility.yul\":4019:4025   */\n      dup3\n        /* \"#utility.yul\":4008:4017   */\n      dup10\n        /* \"#utility.yul\":4004:4026   */\n      add\n        /* \"#utility.yul\":3971:4036   */\n      tag_259\n      jump\t// in\n    tag_343:\n        /* \"#utility.yul\":3953:4036   */\n      swap5\n      pop\n      swap5\n      pop\n        /* \"#utility.yul\":3748:4046   */\n      pop\n        /* \"#utility.yul\":4113:4115   */\n      0x40\n        /* \"#utility.yul\":4102:4111   */\n      dup7\n        /* \"#utility.yul\":4098:4116   */\n      add\n        /* \"#utility.yul\":4085:4117   */\n      calldataload\n        /* \"#utility.yul\":4144:4162   */\n      0xffffffffffffffff\n        /* \"#utility.yul\":4136:4142   */\n      dup2\n        /* \"#utility.yul\":4133:4163   */\n      gt\n        /* \"#utility.yul\":4130:4247   */\n      iszero\n      tag_344\n      jumpi\n        /* \"#utility.yul\":4166:4245   */\n      tag_345\n      tag_252\n      jump\t// in\n    tag_345:\n        /* \"#utility.yul\":4130:4247   */\n    tag_344:\n        /* \"#utility.yul\":4279:4343   */\n      tag_346\n        /* \"#utility.yul\":4335:4342   */\n      dup9\n        /* \"#utility.yul\":4326:4332   */\n      dup3\n        /* \"#utility.yul\":4315:4324   */\n      dup10\n        /* \"#utility.yul\":4311:4333   */\n      add\n        /* \"#utility.yul\":4279:4343   */\n      tag_260\n      jump\t// in\n    tag_346:\n        /* \"#utility.yul\":4261:4343   */\n      swap3\n      pop\n      swap3\n      pop\n        /* \"#utility.yul\":4056:4353   */\n      pop\n        /* \"#utility.yul\":3345:4360   */\n      swap3\n      swap6\n      pop\n      swap3\n      swap6\n      swap1\n      swap4\n      pop\n      jump\t// out\n        /* \"#utility.yul\":4366:4443   */\n    tag_261:\n        /* \"#utility.yul\":4403:4410   */\n      0x00\n        /* \"#utility.yul\":4432:4437   */\n      dup2\n        /* \"#utility.yul\":4421:4437   */\n      swap1\n      pop\n        /* \"#utility.yul\":4366:4443   */\n      swap2\n      swap1\n      pop\n      jump\t// out\n        /* \"#utility.yul\":4449:4571   */\n    tag_262:\n        /* \"#utility.yul\":4522:4546   */\n      tag_349\n        /* \"#utility.yul\":4540:4545   */\n      dup2\n        /* \"#utility.yul\":4522:4546   */\n      tag_261\n      jump\t// in\n    tag_349:\n        /* \"#utility.yul\":4515:4520   */\n      dup2\n        /* \"#utility.yul\":4512:4547   */\n      eq\n        /* \"#utility.yul\":4502:4565   */\n      tag_350\n      jumpi\n        /* \"#utility.yul\":4561:4562   */\n      0x00\n        /* \"#utility.yul\":4558:4559   */\n      dup1\n        /* \"#utility.yul\":4551:4563   */\n      revert\n        /* \"#utility.yul\":4502:4565   */\n    tag_350:\n        /* \"#utility.yul\":4449:4571   */\n      pop\n      jump\t// out\n        /* \"#utility.yul\":4577:4716   */\n    tag_263:\n        /* \"#utility.yul\":4623:4628   */\n      0x00\n        /* \"#utility.yul\":4661:4667   */\n      dup2\n        /* \"#utility.yul\":4648:4668   */\n      calldataload\n        /* \"#utility.yul\":4639:4668   */\n      swap1\n      pop\n        /* \"#utility.yul\":4677:4710   */\n      tag_352\n        /* \"#utility.yul\":4704:4709   */\n      dup2\n        /* \"#utility.yul\":4677:4710   */\n      tag_262\n      jump\t// in\n    tag_352:\n        /* \"#utility.yul\":4577:4716   */\n      swap3\n      swap2\n      pop\n      pop\n      jump\t// out\n        /* \"#utility.yul\":4722:5194   */\n    tag_27:\n        /* \"#utility.yul\":4789:4795   */\n      0x00\n        /* \"#utility.yul\":4797:4803   */\n      dup1\n        /* \"#utility.yul\":4846:4848   */\n      0x40\n        /* \"#utility.yul\":4834:4843   */\n      dup4\n        /* \"#utility.yul\":4825:4832   */\n      dup6\n        /* \"#utility.yul\":4821:4844   */\n      sub\n        /* \"#utility.yul\":4817:4849   */\n      slt\n        /* \"#utility.yul\":4814:4933   */\n      iszero\n      tag_354\n      jumpi\n        /* \"#utility.yul\":4852:4931   */\n      tag_355\n      tag_251\n      jump\t// in\n    tag_355:\n        /* \"#utility.yul\":4814:4933   */\n    tag_354:\n        /* \"#utility.yul\":4972:4973   */\n      0x00\n        /* \"#utility.yul\":4997:5049   */\n      tag_356\n        /* \"#utility.yul\":5041:5048   */\n      dup6\n        /* \"#utility.yul\":5032:5038   */\n      dup3\n        /* \"#utility.yul\":5021:5030   */\n      dup7\n        /* \"#utility.yul\":5017:5039   */\n      add\n        /* \"#utility.yul\":4997:5049   */\n      tag_255\n      jump\t// in\n    tag_356:\n        /* \"#utility.yul\":4987:5049   */\n      swap3\n      pop\n        /* \"#utility.yul\":4943:5059   */\n      pop\n        /* \"#utility.yul\":5098:5100   */\n      0x20\n        /* \"#utility.yul\":5124:5177   */\n      tag_357\n        /* \"#utility.yul\":5169:5176   */\n      dup6\n        /* \"#utility.yul\":5160:5166   */\n      dup3\n        /* \"#utility.yul\":5149:5158   */\n      dup7\n        /* \"#utility.yul\":5145:5167   */\n      add\n        /* \"#utility.yul\":5124:5177   */\n      tag_263\n      jump\t// in\n    tag_357:\n        /* \"#utility.yul\":5114:5177   */\n      swap2\n      pop\n        /* \"#utility.yul\":5069:5187   */\n      pop\n        /* \"#utility.yul\":4722:5194   */\n      swap3\n      pop\n      swap3\n      swap1\n      pop\n      jump\t// out\n        /* \"#utility.yul\":5200:5296   */\n    tag_264:\n        /* \"#utility.yul\":5237:5244   */\n      0x00\n        /* \"#utility.yul\":5266:5290   */\n      tag_359\n        /* \"#utility.yul\":5284:5289   */\n      dup3\n        /* \"#utility.yul\":5266:5290   */\n      tag_244\n      jump\t// in\n    tag_359:\n        /* \"#utility.yul\":5255:5290   */\n      swap1\n      pop\n        /* \"#utility.yul\":5200:5296   */\n      swap2\n      swap1\n      pop\n      jump\t// out\n        /* \"#utility.yul\":5302:5424   */\n    tag_265:\n        /* \"#utility.yul\":5375:5399   */\n      tag_361\n        /* \"#utility.yul\":5393:5398   */\n      dup2\n        /* \"#utility.yul\":5375:5399   */\n      tag_264\n      jump\t// in\n    tag_361:\n        /* \"#utility.yul\":5368:5373   */\n      dup2\n        /* \"#utility.yul\":5365:5400   */\n      eq\n        /* \"#utility.yul\":5355:5418   */\n      tag_362\n      jumpi\n        /* \"#utility.yul\":5414:5415   */\n      0x00\n        /* \"#utility.yul\":5411:5412   */\n      dup1\n        /* \"#utility.yul\":5404:5416   */\n      revert\n        /* \"#utility.yul\":5355:5418   */\n    tag_362:\n        /* \"#utility.yul\":5302:5424   */\n      pop\n      jump\t// out\n        /* \"#utility.yul\":5430:5569   */\n    tag_266:\n        /* \"#utility.yul\":5476:5481   */\n      0x00\n        /* \"#utility.yul\":5514:5520   */\n      dup2\n        /* \"#utility.yul\":5501:5521   */\n      calldataload\n        /* \"#utility.yul\":5492:5521   */\n      swap1\n      pop\n        /* \"#utility.yul\":5530:5563   */\n      tag_364\n        /* \"#utility.yul\":5557:5562   */\n      dup2\n        /* \"#utility.yul\":5530:5563   */\n      tag_265\n      jump\t// in\n    tag_364:\n        /* \"#utility.yul\":5430:5569   */\n      swap3\n      swap2\n      pop\n      pop\n      jump\t// out\n        /* \"#utility.yul\":5575:6049   */\n    tag_32:\n        /* \"#utility.yul\":5643:5649   */\n      0x00\n        /* \"#utility.yul\":5651:5657   */\n      dup1\n        /* \"#utility.yul\":5700:5702   */\n      0x40\n        /* \"#utility.yul\":5688:5697   */\n      dup4\n        /* \"#utility.yul\":5679:5686   */\n      dup6\n        /* \"#utility.yul\":5675:5698   */\n      sub\n        /* \"#utility.yul\":5671:5703   */\n      slt\n        /* \"#utility.yul\":5668:5787   */\n      iszero\n      tag_366\n      jumpi\n        /* \"#utility.yul\":5706:5785   */\n      tag_367\n      tag_251\n      jump\t// in\n    tag_367:\n        /* \"#utility.yul\":5668:5787   */\n    tag_366:\n        /* \"#utility.yul\":5826:5827   */\n      0x00\n        /* \"#utility.yul\":5851:5904   */\n      tag_368\n        /* \"#utility.yul\":5896:5903   */\n      dup6\n        /* \"#utility.yul\":5887:5893   */\n      dup3\n        /* \"#utility.yul\":5876:5885   */\n      dup7\n        /* \"#utility.yul\":5872:5894   */\n      add\n        /* \"#utility.yul\":5851:5904   */\n      tag_266\n      jump\t// in\n    tag_368:\n        /* \"#utility.yul\":5841:5904   */\n      swap3\n      pop\n        /* \"#utility.yul\":5797:5914   */\n      pop\n        /* \"#utility.yul\":5953:5955   */\n      0x20\n        /* \"#utility.yul\":5979:6032   */\n      tag_369\n        /* \"#utility.yul\":6024:6031   */\n      dup6\n        /* \"#utility.yul\":6015:6021   */\n      dup3\n        /* \"#utility.yul\":6004:6013   */\n      dup7\n        /* \"#utility.yul\":6000:6022   */\n      add\n        /* \"#utility.yul\":5979:6032   */\n      tag_266\n      jump\t// in\n    tag_369:\n        /* \"#utility.yul\":5969:6032   */\n      swap2\n      pop\n        /* \"#utility.yul\":5924:6042   */\n      pop\n        /* \"#utility.yul\":5575:6049   */\n      swap3\n      pop\n      swap3\n      swap1\n      pop\n      jump\t// out\n        /* \"#utility.yul\":6055:6172   */\n    tag_267:\n        /* \"#utility.yul\":6164:6165   */\n      0x00\n        /* \"#utility.yul\":6161:6162   */\n      dup1\n        /* \"#utility.yul\":6154:6166   */\n      revert\n        /* \"#utility.yul\":6178:6280   */\n    tag_268:\n        /* \"#utility.yul\":6219:6225   */\n      0x00\n        /* \"#utility.yul\":6270:6272   */\n      0x1f\n        /* \"#utility.yul\":6266:6273   */\n      not\n        /* \"#utility.yul\":6261:6263   */\n      0x1f\n        /* \"#utility.yul\":6254:6259   */\n      dup4\n        /* \"#utility.yul\":6250:6264   */\n      add\n        /* \"#utility.yul\":6246:6274   */\n      and\n        /* \"#utility.yul\":6236:6274   */\n      swap1\n      pop\n        /* \"#utility.yul\":6178:6280   */\n      swap2\n      swap1\n      pop\n      jump\t// out\n        /* \"#utility.yul\":6286:6466   */\n    tag_269:\n        /* \"#utility.yul\":6334:6411   */\n      0x4e487b7100000000000000000000000000000000000000000000000000000000\n        /* \"#utility.yul\":6331:6332   */\n      0x00\n        /* \"#utility.yul\":6324:6412   */\n      mstore\n        /* \"#utility.yul\":6431:6435   */\n      0x41\n        /* \"#utility.yul\":6428:6429   */\n      0x04\n        /* \"#utility.yul\":6421:6436   */\n      mstore\n        /* \"#utility.yul\":6455:6459   */\n      0x24\n        /* \"#utility.yul\":6452:6453   */\n      0x00\n        /* \"#utility.yul\":6445:6460   */\n      revert\n        /* \"#utility.yul\":6472:6753   */\n    tag_270:\n        /* \"#utility.yul\":6555:6582   */\n      tag_374\n        /* \"#utility.yul\":6577:6581   */\n      dup3\n        /* \"#utility.yul\":6555:6582   */\n      tag_268\n      jump\t// in\n    tag_374:\n        /* \"#utility.yul\":6547:6553   */\n      dup2\n        /* \"#utility.yul\":6543:6583   */\n      add\n        /* \"#utility.yul\":6685:6691   */\n      dup2\n        /* \"#utility.yul\":6673:6683   */\n      dup2\n        /* \"#utility.yul\":6670:6692   */\n      lt\n        /* \"#utility.yul\":6649:6667   */\n      0xffffffffffffffff\n        /* \"#utility.yul\":6637:6647   */\n      dup3\n        /* \"#utility.yul\":6634:6668   */\n      gt\n        /* \"#utility.yul\":6631:6693   */\n      or\n        /* \"#utility.yul\":6628:6716   */\n      iszero\n      tag_375\n      jumpi\n        /* \"#utility.yul\":6696:6714   */\n      tag_376\n      tag_269\n      jump\t// in\n    tag_376:\n        /* \"#utility.yul\":6628:6716   */\n    tag_375:\n        /* \"#utility.yul\":6736:6746   */\n      dup1\n        /* \"#utility.yul\":6732:6734   */\n      0x40\n        /* \"#utility.yul\":6725:6747   */\n      mstore\n        /* \"#utility.yul\":6515:6753   */\n      pop\n        /* \"#utility.yul\":6472:6753   */\n      pop\n      pop\n      jump\t// out\n        /* \"#utility.yul\":6759:6888   */\n    tag_271:\n        /* \"#utility.yul\":6793:6799   */\n      0x00\n        /* \"#utility.yul\":6820:6840   */\n      tag_378\n      tag_250\n      jump\t// in\n    tag_378:\n        /* \"#utility.yul\":6810:6840   */\n      swap1\n      pop\n        /* \"#utility.yul\":6849:6882   */\n      tag_379\n        /* \"#utility.yul\":6877:6881   */\n      dup3\n        /* \"#utility.yul\":6869:6875   */\n      dup3\n        /* \"#utility.yul\":6849:6882   */\n      tag_270\n      jump\t// in\n    tag_379:\n        /* \"#utility.yul\":6759:6888   */\n      swap2\n      swap1\n      pop\n      jump\t// out\n        /* \"#utility.yul\":6894:7201   */\n    tag_272:\n        /* \"#utility.yul\":6955:6959   */\n      0x00\n        /* \"#utility.yul\":7045:7063   */\n      0xffffffffffffffff\n        /* \"#utility.yul\":7037:7043   */\n      dup3\n        /* \"#utility.yul\":7034:7064   */\n      gt\n        /* \"#utility.yul\":7031:7087   */\n      iszero\n      tag_381\n      jumpi\n        /* \"#utility.yul\":7067:7085   */\n      tag_382\n      tag_269\n      jump\t// in\n    tag_382:\n        /* \"#utility.yul\":7031:7087   */\n    tag_381:\n        /* \"#utility.yul\":7105:7134   */\n      tag_383\n        /* \"#utility.yul\":7127:7133   */\n      dup3\n        /* \"#utility.yul\":7105:7134   */\n      tag_268\n      jump\t// in\n    tag_383:\n        /* \"#utility.yul\":7097:7134   */\n      swap1\n      pop\n        /* \"#utility.yul\":7189:7193   */\n      0x20\n        /* \"#utility.yul\":7183:7187   */\n      dup2\n        /* \"#utility.yul\":7179:7194   */\n      add\n        /* \"#utility.yul\":7171:7194   */\n      swap1\n      pop\n        /* \"#utility.yul\":6894:7201   */\n      swap2\n      swap1\n      pop\n      jump\t// out\n        /* \"#utility.yul\":7207:7355   */\n    tag_273:\n        /* \"#utility.yul\":7305:7311   */\n      dup3\n        /* \"#utility.yul\":7300:7303   */\n      dup2\n        /* \"#utility.yul\":7295:7298   */\n      dup4\n        /* \"#utility.yul\":7282:7312   */\n      calldatacopy\n        /* \"#utility.yul\":7346:7347   */\n      0x00\n        /* \"#utility.yul\":7337:7343   */\n      dup4\n        /* \"#utility.yul\":7332:7335   */\n      dup4\n        /* \"#utility.yul\":7328:7344   */\n      add\n        /* \"#utility.yul\":7321:7348   */\n      mstore\n        /* \"#utility.yul\":7207:7355   */\n      pop\n      pop\n      pop\n      jump\t// out\n        /* \"#utility.yul\":7361:7784   */\n    tag_274:\n        /* \"#utility.yul\":7438:7443   */\n      0x00\n        /* \"#utility.yul\":7463:7528   */\n      tag_386\n        /* \"#utility.yul\":7479:7527   */\n      tag_387\n        /* \"#utility.yul\":7520:7526   */\n      dup5\n        /* \"#utility.yul\":7479:7527   */\n      tag_272\n      jump\t// in\n    tag_387:\n        /* \"#utility.yul\":7463:7528   */\n      tag_271\n      jump\t// in\n    tag_386:\n        /* \"#utility.yul\":7454:7528   */\n      swap1\n      pop\n        /* \"#utility.yul\":7551:7557   */\n      dup3\n        /* \"#utility.yul\":7544:7549   */\n      dup2\n        /* \"#utility.yul\":7537:7558   */\n      mstore\n        /* \"#utility.yul\":7589:7593   */\n      0x20\n        /* \"#utility.yul\":7582:7587   */\n      dup2\n        /* \"#utility.yul\":7578:7594   */\n      add\n        /* \"#utility.yul\":7627:7630   */\n      dup5\n        /* \"#utility.yul\":7618:7624   */\n      dup5\n        /* \"#utility.yul\":7613:7616   */\n      dup5\n        /* \"#utility.yul\":7609:7625   */\n      add\n        /* \"#utility.yul\":7606:7631   */\n      gt\n        /* \"#utility.yul\":7603:7715   */\n      iszero\n      tag_388\n      jumpi\n        /* \"#utility.yul\":7634:7713   */\n      tag_389\n      tag_267\n      jump\t// in\n    tag_389:\n        /* \"#utility.yul\":7603:7715   */\n    tag_388:\n        /* \"#utility.yul\":7724:7778   */\n      tag_390\n        /* \"#utility.yul\":7771:7777   */\n      dup5\n        /* \"#utility.yul\":7766:7769   */\n      dup3\n        /* \"#utility.yul\":7761:7764   */\n      dup6\n        /* \"#utility.yul\":7724:7778   */\n      tag_273\n      jump\t// in\n    tag_390:\n        /* \"#utility.yul\":7444:7784   */\n      pop\n        /* \"#utility.yul\":7361:7784   */\n      swap4\n      swap3\n      pop\n      pop\n      pop\n      jump\t// out\n        /* \"#utility.yul\":7803:8141   */\n    tag_275:\n        /* \"#utility.yul\":7858:7863   */\n      0x00\n        /* \"#utility.yul\":7907:7910   */\n      dup3\n        /* \"#utility.yul\":7900:7904   */\n      0x1f\n        /* \"#utility.yul\":7892:7898   */\n      dup4\n        /* \"#utility.yul\":7888:7905   */\n      add\n        /* \"#utility.yul\":7884:7911   */\n      slt\n        /* \"#utility.yul\":7874:7996   */\n      tag_392\n      jumpi\n        /* \"#utility.yul\":7915:7994   */\n      tag_393\n      tag_256\n      jump\t// in\n    tag_393:\n        /* \"#utility.yul\":7874:7996   */\n    tag_392:\n        /* \"#utility.yul\":8032:8038   */\n      dup2\n        /* \"#utility.yul\":8019:8039   */\n      calldataload\n        /* \"#utility.yul\":8057:8135   */\n      tag_394\n        /* \"#utility.yul\":8131:8134   */\n      dup5\n        /* \"#utility.yul\":8123:8129   */\n      dup3\n        /* \"#utility.yul\":8116:8120   */\n      0x20\n        /* \"#utility.yul\":8108:8114   */\n      dup7\n        /* \"#utility.yul\":8104:8121   */\n      add\n        /* \"#utility.yul\":8057:8135   */\n      tag_274\n      jump\t// in\n    tag_394:\n        /* \"#utility.yul\":8048:8135   */\n      swap2\n      pop\n        /* \"#utility.yul\":7864:8141   */\n      pop\n        /* \"#utility.yul\":7803:8141   */\n      swap3\n      swap2\n      pop\n      pop\n      jump\t// out\n        /* \"#utility.yul\":8147:8799   */\n    tag_36:\n        /* \"#utility.yul\":8224:8230   */\n      0x00\n        /* \"#utility.yul\":8232:8238   */\n      dup1\n        /* \"#utility.yul\":8281:8283   */\n      0x40\n        /* \"#utility.yul\":8269:8278   */\n      dup4\n        /* \"#utility.yul\":8260:8267   */\n      dup6\n        /* \"#utility.yul\":8256:8279   */\n      sub\n        /* \"#utility.yul\":8252:8284   */\n      slt\n        /* \"#utility.yul\":8249:8368   */\n      iszero\n      tag_396\n      jumpi\n        /* \"#utility.yul\":8287:8366   */\n      tag_397\n      tag_251\n      jump\t// in\n    tag_397:\n        /* \"#utility.yul\":8249:8368   */\n    tag_396:\n        /* \"#utility.yul\":8407:8408   */\n      0x00\n        /* \"#utility.yul\":8432:8485   */\n      tag_398\n        /* \"#utility.yul\":8477:8484   */\n      dup6\n        /* \"#utility.yul\":8468:8474   */\n      dup3\n        /* \"#utility.yul\":8457:8466   */\n      dup7\n        /* \"#utility.yul\":8453:8475   */\n      add\n        /* \"#utility.yul\":8432:8485   */\n      tag_266\n      jump\t// in\n    tag_398:\n        /* \"#utility.yul\":8422:8485   */\n      swap3\n      pop\n        /* \"#utility.yul\":8378:8495   */\n      pop\n        /* \"#utility.yul\":8562:8564   */\n      0x20\n        /* \"#utility.yul\":8551:8560   */\n      dup4\n        /* \"#utility.yul\":8547:8565   */\n      add\n        /* \"#utility.yul\":8534:8566   */\n      calldataload\n        /* \"#utility.yul\":8593:8611   */\n      0xffffffffffffffff\n        /* \"#utility.yul\":8585:8591   */\n      dup2\n        /* \"#utility.yul\":8582:8612   */\n      gt\n        /* \"#utility.yul\":8579:8696   */\n      iszero\n      tag_399\n      jumpi\n        /* \"#utility.yul\":8615:8694   */\n      tag_400\n      tag_252\n      jump\t// in\n    tag_400:\n        /* \"#utility.yul\":8579:8696   */\n    tag_399:\n        /* \"#utility.yul\":8720:8782   */\n      tag_401\n        /* \"#utility.yul\":8774:8781   */\n      dup6\n        /* \"#utility.yul\":8765:8771   */\n      dup3\n        /* \"#utility.yul\":8754:8763   */\n      dup7\n        /* \"#utility.yul\":8750:8772   */\n      add\n        /* \"#utility.yul\":8720:8782   */\n      tag_275\n      jump\t// in\n    tag_401:\n        /* \"#utility.yul\":8710:8782   */\n      swap2\n      pop\n        /* \"#utility.yul\":8505:8792   */\n      pop\n        /* \"#utility.yul\":8147:8799   */\n      swap3\n      pop\n      swap3\n      swap1\n      pop\n      jump\t// out\n        /* \"#utility.yul\":8805:8923   */\n    tag_276:\n        /* \"#utility.yul\":8892:8916   */\n      tag_403\n        /* \"#utility.yul\":8910:8915   */\n      dup2\n        /* \"#utility.yul\":8892:8916   */\n      tag_261\n      jump\t// in\n    tag_403:\n        /* \"#utility.yul\":8887:8890   */\n      dup3\n        /* \"#utility.yul\":8880:8917   */\n      mstore\n        /* \"#utility.yul\":8805:8923   */\n      pop\n      pop\n      jump\t// out\n        /* \"#utility.yul\":8929:9151   */\n    tag_42:\n        /* \"#utility.yul\":9022:9026   */\n      0x00\n        /* \"#utility.yul\":9060:9062   */\n      0x20\n        /* \"#utility.yul\":9049:9058   */\n      dup3\n        /* \"#utility.yul\":9045:9063   */\n      add\n        /* \"#utility.yul\":9037:9063   */\n      swap1\n      pop\n        /* \"#utility.yul\":9073:9144   */\n      tag_405\n        /* \"#utility.yul\":9141:9142   */\n      0x00\n        /* \"#utility.yul\":9130:9139   */\n      dup4\n        /* \"#utility.yul\":9126:9143   */\n      add\n        /* \"#utility.yul\":9117:9123   */\n      dup5\n        /* \"#utility.yul\":9073:9144   */\n      tag_276\n      jump\t// in\n    tag_405:\n        /* \"#utility.yul\":8929:9151   */\n      swap3\n      swap2\n      pop\n      pop\n      jump\t// out\n        /* \"#utility.yul\":9157:9275   */\n    tag_277:\n        /* \"#utility.yul\":9244:9268   */\n      tag_407\n        /* \"#utility.yul\":9262:9267   */\n      dup2\n        /* \"#utility.yul\":9244:9268   */\n      tag_264\n      jump\t// in\n    tag_407:\n        /* \"#utility.yul\":9239:9242   */\n      dup3\n        /* \"#utility.yul\":9232:9269   */\n      mstore\n        /* \"#utility.yul\":9157:9275   */\n      pop\n      pop\n      jump\t// out\n        /* \"#utility.yul\":9281:9503   */\n    tag_50:\n        /* \"#utility.yul\":9374:9378   */\n      0x00\n        /* \"#utility.yul\":9412:9414   */\n      0x20\n        /* \"#utility.yul\":9401:9410   */\n      dup3\n        /* \"#utility.yul\":9397:9415   */\n      add\n        /* \"#utility.yul\":9389:9415   */\n      swap1\n      pop\n        /* \"#utility.yul\":9425:9496   */\n      tag_409\n        /* \"#utility.yul\":9493:9494   */\n      0x00\n        /* \"#utility.yul\":9482:9491   */\n      dup4\n        /* \"#utility.yul\":9478:9495   */\n      add\n        /* \"#utility.yul\":9469:9475   */\n      dup5\n        /* \"#utility.yul\":9425:9496   */\n      tag_277\n      jump\t// in\n    tag_409:\n        /* \"#utility.yul\":9281:9503   */\n      swap3\n      swap2\n      pop\n      pop\n      jump\t// out\n        /* \"#utility.yul\":9509:9838   */\n    tag_54:\n        /* \"#utility.yul\":9568:9574   */\n      0x00\n        /* \"#utility.yul\":9617:9619   */\n      0x20\n        /* \"#utility.yul\":9605:9614   */\n      dup3\n        /* \"#utility.yul\":9596:9603   */\n      dup5\n        /* \"#utility.yul\":9592:9615   */\n      sub\n        /* \"#utility.yul\":9588:9620   */\n      slt\n        /* \"#utility.yul\":9585:9704   */\n      iszero\n      tag_411\n      jumpi\n        /* \"#utility.yul\":9623:9702   */\n      tag_412\n      tag_251\n      jump\t// in\n    tag_412:\n        /* \"#utility.yul\":9585:9704   */\n    tag_411:\n        /* \"#utility.yul\":9743:9744   */\n      0x00\n        /* \"#utility.yul\":9768:9821   */\n      tag_413\n        /* \"#utility.yul\":9813:9820   */\n      dup5\n        /* \"#utility.yul\":9804:9810   */\n      dup3\n        /* \"#utility.yul\":9793:9802   */\n      dup6\n        /* \"#utility.yul\":9789:9811   */\n      add\n        /* \"#utility.yul\":9768:9821   */\n      tag_266\n      jump\t// in\n    tag_413:\n        /* \"#utility.yul\":9758:9821   */\n      swap2\n      pop\n        /* \"#utility.yul\":9714:9831   */\n      pop\n        /* \"#utility.yul\":9509:9838   */\n      swap3\n      swap2\n      pop\n      pop\n      jump\t// out\n        /* \"#utility.yul\":9844:9943   */\n    tag_278:\n        /* \"#utility.yul\":9896:9902   */\n      0x00\n        /* \"#utility.yul\":9930:9935   */\n      dup2\n        /* \"#utility.yul\":9924:9936   */\n      mload\n        /* \"#utility.yul\":9914:9936   */\n      swap1\n      pop\n        /* \"#utility.yul\":9844:9943   */\n      swap2\n      swap1\n      pop\n      jump\t// out\n        /* \"#utility.yul\":9949:10118   */\n    tag_279:\n        /* \"#utility.yul\":10033:10044   */\n      0x00\n        /* \"#utility.yul\":10067:10073   */\n      dup3\n        /* \"#utility.yul\":10062:10065   */\n      dup3\n        /* \"#utility.yul\":10055:10074   */\n      mstore\n        /* \"#utility.yul\":10107:10111   */\n      0x20\n        /* \"#utility.yul\":10102:10105   */\n      dup3\n        /* \"#utility.yul\":10098:10112   */\n      add\n        /* \"#utility.yul\":10083:10112   */\n      swap1\n      pop\n        /* \"#utility.yul\":9949:10118   */\n      swap3\n      swap2\n      pop\n      pop\n      jump\t// out\n        /* \"#utility.yul\":10124:10372   */\n    tag_280:\n        /* \"#utility.yul\":10206:10207   */\n      0x00\n        /* \"#utility.yul\":10216:10329   */\n    tag_417:\n        /* \"#utility.yul\":10230:10236   */\n      dup4\n        /* \"#utility.yul\":10227:10228   */\n      dup2\n        /* \"#utility.yul\":10224:10237   */\n      lt\n        /* \"#utility.yul\":10216:10329   */\n      iszero\n      tag_419\n      jumpi\n        /* \"#utility.yul\":10315:10316   */\n      dup1\n        /* \"#utility.yul\":10310:10313   */\n      dup3\n        /* \"#utility.yul\":10306:10317   */\n      add\n        /* \"#utility.yul\":10300:10318   */\n      mload\n        /* \"#utility.yul\":10296:10297   */\n      dup2\n        /* \"#utility.yul\":10291:10294   */\n      dup5\n        /* \"#utility.yul\":10287:10298   */\n      add\n        /* \"#utility.yul\":10280:10319   */\n      mstore\n        /* \"#utility.yul\":10252:10254   */\n      0x20\n        /* \"#utility.yul\":10249:10250   */\n      dup2\n        /* \"#utility.yul\":10245:10255   */\n      add\n        /* \"#utility.yul\":10240:10255   */\n      swap1\n      pop\n        /* \"#utility.yul\":10216:10329   */\n      jump(tag_417)\n    tag_419:\n        /* \"#utility.yul\":10363:10364   */\n      0x00\n        /* \"#utility.yul\":10354:10360   */\n      dup5\n        /* \"#utility.yul\":10349:10352   */\n      dup5\n        /* \"#utility.yul\":10345:10361   */\n      add\n        /* \"#utility.yul\":10338:10365   */\n      mstore\n        /* \"#utility.yul\":10186:10372   */\n      pop\n        /* \"#utility.yul\":10124:10372   */\n      pop\n      pop\n      pop\n      jump\t// out\n        /* \"#utility.yul\":10378:10755   */\n    tag_281:\n        /* \"#utility.yul\":10466:10469   */\n      0x00\n        /* \"#utility.yul\":10494:10533   */\n      tag_421\n        /* \"#utility.yul\":10527:10532   */\n      dup3\n        /* \"#utility.yul\":10494:10533   */\n      tag_278\n      jump\t// in\n    tag_421:\n        /* \"#utility.yul\":10549:10620   */\n      tag_422\n        /* \"#utility.yul\":10613:10619   */\n      dup2\n        /* \"#utility.yul\":10608:10611   */\n      dup6\n        /* \"#utility.yul\":10549:10620   */\n      tag_279\n      jump\t// in\n    tag_422:\n        /* \"#utility.yul\":10542:10620   */\n      swap4\n      pop\n        /* \"#utility.yul\":10629:10694   */\n      tag_423\n        /* \"#utility.yul\":10687:10693   */\n      dup2\n        /* \"#utility.yul\":10682:10685   */\n      dup6\n        /* \"#utility.yul\":10675:10679   */\n      0x20\n        /* \"#utility.yul\":10668:10673   */\n      dup7\n        /* \"#utility.yul\":10664:10680   */\n      add\n        /* \"#utility.yul\":10629:10694   */\n      tag_280\n      jump\t// in\n    tag_423:\n        /* \"#utility.yul\":10719:10748   */\n      tag_424\n        /* \"#utility.yul\":10741:10747   */\n      dup2\n        /* \"#utility.yul\":10719:10748   */\n      tag_268\n      jump\t// in\n    tag_424:\n        /* \"#utility.yul\":10714:10717   */\n      dup5\n        /* \"#utility.yul\":10710:10749   */\n      add\n        /* \"#utility.yul\":10703:10749   */\n      swap2\n      pop\n        /* \"#utility.yul\":10470:10755   */\n      pop\n        /* \"#utility.yul\":10378:10755   */\n      swap3\n      swap2\n      pop\n      pop\n      jump\t// out\n        /* \"#utility.yul\":10761:11074   */\n    tag_60:\n        /* \"#utility.yul\":10874:10878   */\n      0x00\n        /* \"#utility.yul\":10912:10914   */\n      0x20\n        /* \"#utility.yul\":10901:10910   */\n      dup3\n        /* \"#utility.yul\":10897:10915   */\n      add\n        /* \"#utility.yul\":10889:10915   */\n      swap1\n      pop\n        /* \"#utility.yul\":10961:10970   */\n      dup2\n        /* \"#utility.yul\":10955:10959   */\n      dup2\n        /* \"#utility.yul\":10951:10971   */\n      sub\n        /* \"#utility.yul\":10947:10948   */\n      0x00\n        /* \"#utility.yul\":10936:10945   */\n      dup4\n        /* \"#utility.yul\":10932:10949   */\n      add\n        /* \"#utility.yul\":10925:10972   */\n      mstore\n        /* \"#utility.yul\":10989:11067   */\n      tag_426\n        /* \"#utility.yul\":11062:11066   */\n      dup2\n        /* \"#utility.yul\":11053:11059   */\n      dup5\n        /* \"#utility.yul\":10989:11067   */\n      tag_281\n      jump\t// in\n    tag_426:\n        /* \"#utility.yul\":10981:11067   */\n      swap1\n      pop\n        /* \"#utility.yul\":10761:11074   */\n      swap3\n      swap2\n      pop\n      pop\n      jump\t// out\n        /* \"#utility.yul\":11080:11251   */\n    tag_282:\n        /* \"#utility.yul\":11220:11243   */\n      0x50726f66696c6553656e646572206e6f74207365740000000000000000000000\n        /* \"#utility.yul\":11216:11217   */\n      0x00\n        /* \"#utility.yul\":11208:11214   */\n      dup3\n        /* \"#utility.yul\":11204:11218   */\n      add\n        /* \"#utility.yul\":11197:11244   */\n      mstore\n        /* \"#utility.yul\":11080:11251   */\n      pop\n      jump\t// out\n        /* \"#utility.yul\":11257:11623   */\n    tag_283:\n        /* \"#utility.yul\":11399:11402   */\n      0x00\n        /* \"#utility.yul\":11420:11487   */\n      tag_429\n        /* \"#utility.yul\":11484:11486   */\n      0x15\n        /* \"#utility.yul\":11479:11482   */\n      dup4\n        /* \"#utility.yul\":11420:11487   */\n      tag_279\n      jump\t// in\n    tag_429:\n        /* \"#utility.yul\":11413:11487   */\n      swap2\n      pop\n        /* \"#utility.yul\":11496:11589   */\n      tag_430\n        /* \"#utility.yul\":11585:11588   */\n      dup3\n        /* \"#utility.yul\":11496:11589   */\n      tag_282\n      jump\t// in\n    tag_430:\n        /* \"#utility.yul\":11614:11616   */\n      0x20\n        /* \"#utility.yul\":11609:11612   */\n      dup3\n        /* \"#utility.yul\":11605:11617   */\n      add\n        /* \"#utility.yul\":11598:11617   */\n      swap1\n      pop\n        /* \"#utility.yul\":11257:11623   */\n      swap2\n      swap1\n      pop\n      jump\t// out\n        /* \"#utility.yul\":11629:12048   */\n    tag_72:\n        /* \"#utility.yul\":11795:11799   */\n      0x00\n        /* \"#utility.yul\":11833:11835   */\n      0x20\n        /* \"#utility.yul\":11822:11831   */\n      dup3\n        /* \"#utility.yul\":11818:11836   */\n      add\n        /* \"#utility.yul\":11810:11836   */\n      swap1\n      pop\n        /* \"#utility.yul\":11882:11891   */\n      dup2\n        /* \"#utility.yul\":11876:11880   */\n      dup2\n        /* \"#utility.yul\":11872:11892   */\n      sub\n        /* \"#utility.yul\":11868:11869   */\n      0x00\n        /* \"#utility.yul\":11857:11866   */\n      dup4\n        /* \"#utility.yul\":11853:11870   */\n      add\n        /* \"#utility.yul\":11846:11893   */\n      mstore\n        /* \"#utility.yul\":11910:12041   */\n      tag_432\n        /* \"#utility.yul\":12036:12040   */\n      dup2\n        /* \"#utility.yul\":11910:12041   */\n      tag_283\n      jump\t// in\n    tag_432:\n        /* \"#utility.yul\":11902:12041   */\n      swap1\n      pop\n        /* \"#utility.yul\":11629:12048   */\n      swap2\n      swap1\n      pop\n      jump\t// out\n        /* \"#utility.yul\":12054:12169   */\n    tag_284:\n        /* \"#utility.yul\":12139:12162   */\n      tag_434\n        /* \"#utility.yul\":12156:12161   */\n      dup2\n        /* \"#utility.yul\":12139:12162   */\n      tag_253\n      jump\t// in\n    tag_434:\n        /* \"#utility.yul\":12134:12137   */\n      dup3\n        /* \"#utility.yul\":12127:12163   */\n      mstore\n        /* \"#utility.yul\":12054:12169   */\n      pop\n      pop\n      jump\t// out\n        /* \"#utility.yul\":12199:12516   */\n    tag_285:\n        /* \"#utility.yul\":12297:12300   */\n      0x00\n        /* \"#utility.yul\":12318:12389   */\n      tag_436\n        /* \"#utility.yul\":12382:12388   */\n      dup4\n        /* \"#utility.yul\":12377:12380   */\n      dup6\n        /* \"#utility.yul\":12318:12389   */\n      tag_279\n      jump\t// in\n    tag_436:\n        /* \"#utility.yul\":12311:12389   */\n      swap4\n      pop\n        /* \"#utility.yul\":12399:12455   */\n      tag_437\n        /* \"#utility.yul\":12448:12454   */\n      dup4\n        /* \"#utility.yul\":12443:12446   */\n      dup6\n        /* \"#utility.yul\":12436:12441   */\n      dup5\n        /* \"#utility.yul\":12399:12455   */\n      tag_273\n      jump\t// in\n    tag_437:\n        /* \"#utility.yul\":12480:12509   */\n      tag_438\n        /* \"#utility.yul\":12502:12508   */\n      dup4\n        /* \"#utility.yul\":12480:12509   */\n      tag_268\n      jump\t// in\n    tag_438:\n        /* \"#utility.yul\":12475:12478   */\n      dup5\n        /* \"#utility.yul\":12471:12510   */\n      add\n        /* \"#utility.yul\":12464:12510   */\n      swap1\n      pop\n        /* \"#utility.yul\":12199:12516   */\n      swap4\n      swap3\n      pop\n      pop\n      pop\n      jump\t// out\n        /* \"#utility.yul\":12522:12690   */\n    tag_286:\n        /* \"#utility.yul\":12605:12616   */\n      0x00\n        /* \"#utility.yul\":12639:12645   */\n      dup3\n        /* \"#utility.yul\":12634:12637   */\n      dup3\n        /* \"#utility.yul\":12627:12646   */\n      mstore\n        /* \"#utility.yul\":12679:12683   */\n      0x20\n        /* \"#utility.yul\":12674:12677   */\n      dup3\n        /* \"#utility.yul\":12670:12684   */\n      add\n        /* \"#utility.yul\":12655:12684   */\n      swap1\n      pop\n        /* \"#utility.yul\":12522:12690   */\n      swap3\n      swap2\n      pop\n      pop\n      jump\t// out\n        /* \"#utility.yul\":12718:13032   */\n    tag_287:\n        /* \"#utility.yul\":12814:12817   */\n      0x00\n        /* \"#utility.yul\":12835:12905   */\n      tag_441\n        /* \"#utility.yul\":12898:12904   */\n      dup4\n        /* \"#utility.yul\":12893:12896   */\n      dup6\n        /* \"#utility.yul\":12835:12905   */\n      tag_286\n      jump\t// in\n    tag_441:\n        /* \"#utility.yul\":12828:12905   */\n      swap4\n      pop\n        /* \"#utility.yul\":12915:12971   */\n      tag_442\n        /* \"#utility.yul\":12964:12970   */\n      dup4\n        /* \"#utility.yul\":12959:12962   */\n      dup6\n        /* \"#utility.yul\":12952:12957   */\n      dup5\n        /* \"#utility.yul\":12915:12971   */\n      tag_273\n      jump\t// in\n    tag_442:\n        /* \"#utility.yul\":12996:13025   */\n      tag_443\n        /* \"#utility.yul\":13018:13024   */\n      dup4\n        /* \"#utility.yul\":12996:13025   */\n      tag_268\n      jump\t// in\n    tag_443:\n        /* \"#utility.yul\":12991:12994   */\n      dup5\n        /* \"#utility.yul\":12987:13026   */\n      add\n        /* \"#utility.yul\":12980:13026   */\n      swap1\n      pop\n        /* \"#utility.yul\":12718:13032   */\n      swap4\n      swap3\n      pop\n      pop\n      pop\n      jump\t// out\n        /* \"#utility.yul\":13038:13694   */\n    tag_74:\n        /* \"#utility.yul\":13243:13247   */\n      0x00\n        /* \"#utility.yul\":13281:13283   */\n      0x60\n        /* \"#utility.yul\":13270:13279   */\n      dup3\n        /* \"#utility.yul\":13266:13284   */\n      add\n        /* \"#utility.yul\":13258:13284   */\n      swap1\n      pop\n        /* \"#utility.yul\":13294:13363   */\n      tag_445\n        /* \"#utility.yul\":13360:13361   */\n      0x00\n        /* \"#utility.yul\":13349:13358   */\n      dup4\n        /* \"#utility.yul\":13345:13362   */\n      add\n        /* \"#utility.yul\":13336:13342   */\n      dup9\n        /* \"#utility.yul\":13294:13363   */\n      tag_284\n      jump\t// in\n    tag_445:\n        /* \"#utility.yul\":13410:13419   */\n      dup2\n        /* \"#utility.yul\":13404:13408   */\n      dup2\n        /* \"#utility.yul\":13400:13420   */\n      sub\n        /* \"#utility.yul\":13395:13397   */\n      0x20\n        /* \"#utility.yul\":13384:13393   */\n      dup4\n        /* \"#utility.yul\":13380:13398   */\n      add\n        /* \"#utility.yul\":13373:13421   */\n      mstore\n        /* \"#utility.yul\":13438:13526   */\n      tag_446\n        /* \"#utility.yul\":13521:13525   */\n      dup2\n        /* \"#utility.yul\":13512:13518   */\n      dup7\n        /* \"#utility.yul\":13504:13510   */\n      dup9\n        /* \"#utility.yul\":13438:13526   */\n      tag_285\n      jump\t// in\n    tag_446:\n        /* \"#utility.yul\":13430:13526   */\n      swap1\n      pop\n        /* \"#utility.yul\":13573:13582   */\n      dup2\n        /* \"#utility.yul\":13567:13571   */\n      dup2\n        /* \"#utility.yul\":13563:13583   */\n      sub\n        /* \"#utility.yul\":13558:13560   */\n      0x40\n        /* \"#utility.yul\":13547:13556   */\n      dup4\n        /* \"#utility.yul\":13543:13561   */\n      add\n        /* \"#utility.yul\":13536:13584   */\n      mstore\n        /* \"#utility.yul\":13601:13687   */\n      tag_447\n        /* \"#utility.yul\":13682:13686   */\n      dup2\n        /* \"#utility.yul\":13673:13679   */\n      dup5\n        /* \"#utility.yul\":13665:13671   */\n      dup7\n        /* \"#utility.yul\":13601:13687   */\n      tag_287\n      jump\t// in\n    tag_447:\n        /* \"#utility.yul\":13593:13687   */\n      swap1\n      pop\n        /* \"#utility.yul\":13038:13694   */\n      swap7\n      swap6\n      pop\n      pop\n      pop\n      pop\n      pop\n      pop\n      jump\t// out\n        /* \"#utility.yul\":13700:14028   */\n    tag_85:\n        /* \"#utility.yul\":13819:13823   */\n      0x00\n        /* \"#utility.yul\":13857:13859   */\n      0x40\n        /* \"#utility.yul\":13846:13855   */\n      dup3\n        /* \"#utility.yul\":13842:13860   */\n      add\n        /* \"#utility.yul\":13834:13860   */\n      swap1\n      pop\n        /* \"#utility.yul\":13870:13939   */\n      tag_449\n        /* \"#utility.yul\":13936:13937   */\n      0x00\n        /* \"#utility.yul\":13925:13934   */\n      dup4\n        /* \"#utility.yul\":13921:13938   */\n      add\n        /* \"#utility.yul\":13912:13918   */\n      dup6\n        /* \"#utility.yul\":13870:13939   */\n      tag_284\n      jump\t// in\n    tag_449:\n        /* \"#utility.yul\":13949:14021   */\n      tag_450\n        /* \"#utility.yul\":14017:14019   */\n      0x20\n        /* \"#utility.yul\":14006:14015   */\n      dup4\n        /* \"#utility.yul\":14002:14020   */\n      add\n        /* \"#utility.yul\":13993:13999   */\n      dup5\n        /* \"#utility.yul\":13949:14021   */\n      tag_276\n      jump\t// in\n    tag_450:\n        /* \"#utility.yul\":13700:14028   */\n      swap4\n      swap3\n      pop\n      pop\n      pop\n      jump\t// out\n        /* \"#utility.yul\":14034:14119   */\n    tag_288:\n        /* \"#utility.yul\":14079:14086   */\n      0x00\n        /* \"#utility.yul\":14108:14113   */\n      dup2\n        /* \"#utility.yul\":14097:14113   */\n      swap1\n      pop\n        /* \"#utility.yul\":14034:14119   */\n      swap2\n      swap1\n      pop\n      jump\t// out\n        /* \"#utility.yul\":14125:14226   */\n    tag_289:\n        /* \"#utility.yul\":14161:14168   */\n      0x00\n        /* \"#utility.yul\":14201:14219   */\n      0xffffffffffffffff\n        /* \"#utility.yul\":14194:14199   */\n      dup3\n        /* \"#utility.yul\":14190:14220   */\n      and\n        /* \"#utility.yul\":14179:14220   */\n      swap1\n      pop\n        /* \"#utility.yul\":14125:14226   */\n      swap2\n      swap1\n      pop\n      jump\t// out\n        /* \"#utility.yul\":14232:14388   */\n    tag_290:\n        /* \"#utility.yul\":14289:14298   */\n      0x00\n        /* \"#utility.yul\":14322:14382   */\n      tag_454\n        /* \"#utility.yul\":14339:14381   */\n      tag_455\n        /* \"#utility.yul\":14348:14380   */\n      tag_456\n        /* \"#utility.yul\":14374:14379   */\n      dup5\n        /* \"#utility.yul\":14348:14380   */\n      tag_288\n      jump\t// in\n    tag_456:\n        /* \"#utility.yul\":14339:14381   */\n      tag_245\n      jump\t// in\n    tag_455:\n        /* \"#utility.yul\":14322:14382   */\n      tag_289\n      jump\t// in\n    tag_454:\n        /* \"#utility.yul\":14309:14382   */\n      swap1\n      pop\n        /* \"#utility.yul\":14232:14388   */\n      swap2\n      swap1\n      pop\n      jump\t// out\n        /* \"#utility.yul\":14394:14539   */\n    tag_291:\n        /* \"#utility.yul\":14488:14532   */\n      tag_458\n        /* \"#utility.yul\":14526:14531   */\n      dup2\n        /* \"#utility.yul\":14488:14532   */\n      tag_290\n      jump\t// in\n    tag_458:\n        /* \"#utility.yul\":14483:14486   */\n      dup3\n        /* \"#utility.yul\":14476:14533   */\n      mstore\n        /* \"#utility.yul\":14394:14539   */\n      pop\n      pop\n      jump\t// out\n        /* \"#utility.yul\":14545:14781   */\n    tag_104:\n        /* \"#utility.yul\":14645:14649   */\n      0x00\n        /* \"#utility.yul\":14683:14685   */\n      0x20\n        /* \"#utility.yul\":14672:14681   */\n      dup3\n        /* \"#utility.yul\":14668:14686   */\n      add\n        /* \"#utility.yul\":14660:14686   */\n      swap1\n      pop\n        /* \"#utility.yul\":14696:14774   */\n      tag_460\n        /* \"#utility.yul\":14771:14772   */\n      0x00\n        /* \"#utility.yul\":14760:14769   */\n      dup4\n        /* \"#utility.yul\":14756:14773   */\n      add\n        /* \"#utility.yul\":14747:14753   */\n      dup5\n        /* \"#utility.yul\":14696:14774   */\n      tag_291\n      jump\t// in\n    tag_460:\n        /* \"#utility.yul\":14545:14781   */\n      swap3\n      swap2\n      pop\n      pop\n      jump\t// out\n        /* \"#utility.yul\":14787:14930   */\n    tag_292:\n        /* \"#utility.yul\":14844:14849   */\n      0x00\n        /* \"#utility.yul\":14875:14881   */\n      dup2\n        /* \"#utility.yul\":14869:14882   */\n      mload\n        /* \"#utility.yul\":14860:14882   */\n      swap1\n      pop\n        /* \"#utility.yul\":14891:14924   */\n      tag_462\n        /* \"#utility.yul\":14918:14923   */\n      dup2\n        /* \"#utility.yul\":14891:14924   */\n      tag_262\n      jump\t// in\n    tag_462:\n        /* \"#utility.yul\":14787:14930   */\n      swap3\n      swap2\n      pop\n      pop\n      jump\t// out\n        /* \"#utility.yul\":14936:15287   */\n    tag_176:\n        /* \"#utility.yul\":15006:15012   */\n      0x00\n        /* \"#utility.yul\":15055:15057   */\n      0x20\n        /* \"#utility.yul\":15043:15052   */\n      dup3\n        /* \"#utility.yul\":15034:15041   */\n      dup5\n        /* \"#utility.yul\":15030:15053   */\n      sub\n        /* \"#utility.yul\":15026:15058   */\n      slt\n        /* \"#utility.yul\":15023:15142   */\n      iszero\n      tag_464\n      jumpi\n        /* \"#utility.yul\":15061:15140   */\n      tag_465\n      tag_251\n      jump\t// in\n    tag_465:\n        /* \"#utility.yul\":15023:15142   */\n    tag_464:\n        /* \"#utility.yul\":15181:15182   */\n      0x00\n        /* \"#utility.yul\":15206:15270   */\n      tag_466\n        /* \"#utility.yul\":15262:15269   */\n      dup5\n        /* \"#utility.yul\":15253:15259   */\n      dup3\n        /* \"#utility.yul\":15242:15251   */\n      dup6\n        /* \"#utility.yul\":15238:15260   */\n      add\n        /* \"#utility.yul\":15206:15270   */\n      tag_292\n      jump\t// in\n    tag_466:\n        /* \"#utility.yul\":15196:15270   */\n      swap2\n      pop\n        /* \"#utility.yul\":15152:15280   */\n      pop\n        /* \"#utility.yul\":14936:15287   */\n      swap3\n      swap2\n      pop\n      pop\n      jump\t// out\n        /* \"#utility.yul\":15293:15391   */\n    tag_293:\n        /* \"#utility.yul\":15344:15350   */\n      0x00\n        /* \"#utility.yul\":15378:15383   */\n      dup2\n        /* \"#utility.yul\":15372:15384   */\n      mload\n        /* \"#utility.yul\":15362:15384   */\n      swap1\n      pop\n        /* \"#utility.yul\":15293:15391   */\n      swap2\n      swap1\n      pop\n      jump\t// out\n        /* \"#utility.yul\":15397:15544   */\n    tag_294:\n        /* \"#utility.yul\":15498:15509   */\n      0x00\n        /* \"#utility.yul\":15535:15538   */\n      dup2\n        /* \"#utility.yul\":15520:15538   */\n      swap1\n      pop\n        /* \"#utility.yul\":15397:15544   */\n      swap3\n      swap2\n      pop\n      pop\n      jump\t// out\n        /* \"#utility.yul\":15550:15936   */\n    tag_295:\n        /* \"#utility.yul\":15654:15657   */\n      0x00\n        /* \"#utility.yul\":15682:15720   */\n      tag_470\n        /* \"#utility.yul\":15714:15719   */\n      dup3\n        /* \"#utility.yul\":15682:15720   */\n      tag_293\n      jump\t// in\n    tag_470:\n        /* \"#utility.yul\":15736:15824   */\n      tag_471\n        /* \"#utility.yul\":15817:15823   */\n      dup2\n        /* \"#utility.yul\":15812:15815   */\n      dup6\n        /* \"#utility.yul\":15736:15824   */\n      tag_294\n      jump\t// in\n    tag_471:\n        /* \"#utility.yul\":15729:15824   */\n      swap4\n      pop\n        /* \"#utility.yul\":15833:15898   */\n      tag_472\n        /* \"#utility.yul\":15891:15897   */\n      dup2\n        /* \"#utility.yul\":15886:15889   */\n      dup6\n        /* \"#utility.yul\":15879:15883   */\n      0x20\n        /* \"#utility.yul\":15872:15877   */\n      dup7\n        /* \"#utility.yul\":15868:15884   */\n      add\n        /* \"#utility.yul\":15833:15898   */\n      tag_280\n      jump\t// in\n    tag_472:\n        /* \"#utility.yul\":15923:15929   */\n      dup1\n        /* \"#utility.yul\":15918:15921   */\n      dup5\n        /* \"#utility.yul\":15914:15930   */\n      add\n        /* \"#utility.yul\":15907:15930   */\n      swap2\n      pop\n        /* \"#utility.yul\":15658:15936   */\n      pop\n        /* \"#utility.yul\":15550:15936   */\n      swap3\n      swap2\n      pop\n      pop\n      jump\t// out\n        /* \"#utility.yul\":15942:16213   */\n    tag_225:\n        /* \"#utility.yul\":16072:16075   */\n      0x00\n        /* \"#utility.yul\":16094:16187   */\n      tag_474\n        /* \"#utility.yul\":16183:16186   */\n      dup3\n        /* \"#utility.yul\":16174:16180   */\n      dup5\n        /* \"#utility.yul\":16094:16187   */\n      tag_295\n      jump\t// in\n    tag_474:\n        /* \"#utility.yul\":16087:16187   */\n      swap2\n      pop\n        /* \"#utility.yul\":16204:16207   */\n      dup2\n        /* \"#utility.yul\":16197:16207   */\n      swap1\n      pop\n        /* \"#utility.yul\":15942:16213   */\n      swap3\n      swap2\n      pop\n      pop\n      jump\t// out\n\n    auxdata: 0xa264697066735822122029794019c8d548dee6e9c5cd4863c019265a6aa236aa63a742dd21397462a72e64736f6c634300081e0033\n}\n",
				"bytecode": {
					"linkReferences": {},
					"object": "60a06040523073ffffffffffffffffffffffffffffffffffffffff1660809073ffffffffffffffffffffffffffffffffffffffff1681525034801561004357600080fd5b5061005261005760201b60201c565b6101de565b600061006761015b60201b60201c565b90508060000160089054906101000a900460ff16156100b2576040517ff92ee8a900000000000000000000000000000000000000000000000000000000815260040160405180910390fd5b67ffffffffffffffff80168160000160009054906101000a900467ffffffffffffffff1667ffffffffffffffff16146101585767ffffffffffffffff8160000160006101000a81548167ffffffffffffffff021916908367ffffffffffffffff1602179055507fc7f505b2f371ae2175ee4913f4499e1f2633a7b5936321eed1cdaeb6115181d267ffffffffffffffff60405161014f91906101c3565b60405180910390a15b50565b60008061016c61017560201b60201c565b90508091505090565b60007ff0c57e16840df040f15088dc2f81fe391c3923bec73e23a9662efc9c229c6a0060001b905090565b600067ffffffffffffffff82169050919050565b6101bd816101a0565b82525050565b60006020820190506101d860008301846101b4565b92915050565b608051611b6761020760003960008181610aff01528181610b540152610d0f0152611b676000f3fe6080604052600436106100a75760003560e01c8063715018a611610064578063715018a61461018c5780638da5cb5b146101a3578063a6b31389146101ce578063ad3cb1cc146101f7578063c4d66de814610222578063f2fde38b1461024b576100a7565b80630f0322ad146100ac578063306e1d95146100d75780633400288b146100f3578063485cc9551461011c5780634f1ef2861461014557806352d1902d14610161575b600080fd5b3480156100b857600080fd5b506100c1610274565b6040516100ce9190611361565b60405180910390f35b6100f160048036038101906100ec9190611487565b610298565b005b3480156100ff57600080fd5b5061011a60048036038101906101159190611552565b6103c2565b005b34801561012857600080fd5b50610143600480360381019061013e91906115d0565b6104ea565b005b61015f600480360381019061015a9190611751565b6106c2565b005b34801561016d57600080fd5b506101766106e1565b60405161018391906117bc565b60405180910390f35b34801561019857600080fd5b506101a1610714565b005b3480156101af57600080fd5b506101b8610728565b6040516101c591906117e6565b60405180910390f35b3480156101da57600080fd5b506101f560048036038101906101f09190611801565b610760565b005b34801561020357600080fd5b5061020c6107ee565b60405161021991906118ad565b60405180910390f35b34801561022e57600080fd5b5061024960048036038101906102449190611801565b610827565b005b34801561025757600080fd5b50610272600480360381019061026d9190611801565b6109be565b005b60008054906101000a900473ffffffffffffffffffffffffffffffffffffffff1681565b600073ffffffffffffffffffffffffffffffffffffffff1660008054906101000a900473ffffffffffffffffffffffffffffffffffffffff1673ffffffffffffffffffffffffffffffffffffffff1603610327576040517f08c379a000000000000000000000000000000000000000000000000000000000815260040161031e9061191b565b60405180910390fd5b60008054906101000a900473ffffffffffffffffffffffffffffffffffffffff1673ffffffffffffffffffffffffffffffffffffffff1663306e1d953487878787876040518763ffffffff1660e01b81526004016103899594939291906119b5565b6000604051808303818588803b1580156103a257600080fd5b505af11580156103b6573d6000803e3d6000fd5b50505050505050505050565b6103ca610a44565b600073ffffffffffffffffffffffffffffffffffffffff1660008054906101000a900473ffffffffffffffffffffffffffffffffffffffff1673ffffffffffffffffffffffffffffffffffffffff1603610459576040517f08c379a00000000000000000000000000000000000000000000000000000000081526004016104509061191b565b60405180910390fd5b60008054906101000a900473ffffffffffffffffffffffffffffffffffffffff1673ffffffffffffffffffffffffffffffffffffffff16633400288b83836040518363ffffffff1660e01b81526004016104b49291906119fe565b600060405180830381600087803b1580156104ce57600080fd5b505af11580156104e2573d6000803e3d6000fd5b505050505050565b60006104f4610acb565b905060008160000160089054906101000a900460ff1615905060008260000160009054906101000a900467ffffffffffffffff1690506000808267ffffffffffffffff161480156105425750825b9050600060018367ffffffffffffffff16148015610577575060003073ffffffffffffffffffffffffffffffffffffffff163b145b905081158015610585575080155b156105bc576040517ff92ee8a900000000000000000000000000000000000000000000000000000000815260040160405180910390fd5b60018560000160006101000a81548167ffffffffffffffff021916908367ffffffffffffffff160217905550831561060c5760018560000160086101000a81548160ff0219169083151502179055505b61061586610adf565b61061d610af3565b866000806101000a81548173ffffffffffffffffffffffffffffffffffffffff021916908373ffffffffffffffffffffffffffffffffffffffff16021790555083156106b95760008560000160086101000a81548160ff0219169083151502179055507fc7f505b2f371ae2175ee4913f4499e1f2633a7b5936321eed1cdaeb6115181d260016040516106b09190611a76565b60405180910390a15b50505050505050565b6106ca610afd565b6106d382610be3565b6106dd8282610bee565b5050565b60006106eb610d0d565b7f360894a13ba1a3210667c828492db98dca3e2076cc3735a920a3ca505d382bbc60001b905090565b61071c610a44565b6107266000610d94565b565b600080610733610e6b565b90508060000160009054906101000a900473ffffffffffffffffffffffffffffffffffffffff1691505090565b610768610a44565b806000806101000a81548173ffffffffffffffffffffffffffffffffffffffff021916908373ffffffffffffffffffffffffffffffffffffffff1602179055508073ffffffffffffffffffffffffffffffffffffffff167f8670e8d664db069076c6d917edd88d7440e81881fe8d92e754f087e1012f72da60405160405180910390a250565b6040518060400160405280600581526020017f352e302e3000000000000000000000000000000000000000000000000000000081525081565b6000610831610acb565b905060008160000160089054906101000a900460ff1615905060008260000160009054906101000a900467ffffffffffffffff1690506000808267ffffffffffffffff1614801561087f5750825b9050600060018367ffffffffffffffff161480156108b4575060003073ffffffffffffffffffffffffffffffffffffffff163b145b9050811580156108c2575080155b156108f9576040517ff92ee8a900000000000000000000000000000000000000000000000000000000815260040160405180910390fd5b60018560000160006101000a81548167ffffffffffffffff021916908367ffffffffffffffff16021790555083156109495760018560000160086101000a81548160ff0219169083151502179055505b61095286610adf565b61095a610af3565b83156109b65760008560000160086101000a81548160ff0219169083151502179055507fc7f505b2f371ae2175ee4913f4499e1f2633a7b5936321eed1cdaeb6115181d260016040516109ad9190611a76565b60405180910390a15b505050505050565b6109c6610a44565b600073ffffffffffffffffffffffffffffffffffffffff168173ffffffffffffffffffffffffffffffffffffffff1603610a385760006040517f1e4fbdf7000000000000000000000000000000000000000000000000000000008152600401610a2f91906117e6565b60405180910390fd5b610a4181610d94565b50565b610a4c610e93565b73ffffffffffffffffffffffffffffffffffffffff16610a6a610728565b73ffffffffffffffffffffffffffffffffffffffff1614610ac957610a8d610e93565b6040517f118cdaa7000000000000000000000000000000000000000000000000000000008152600401610ac091906117e6565b60405180910390fd5b565b600080610ad6610e9b565b90508091505090565b610ae7610ec6565b610af081610f06565b50565b610afb610ec6565b565b7f000000000000000000000000000000000000000000000000000000000000000073ffffffffffffffffffffffffffffffffffffffff163073ffffffffffffffffffffffffffffffffffffffff161480610baa57507f000000000000000000000000000000000000000000000000000000000000000073ffffffffffffffffffffffffffffffffffffffff16610b91610f8c565b73ffffffffffffffffffffffffffffffffffffffff1614155b15610be1576040517fe07c8dba00000000000000000000000000000000000000000000000000000000815260040160405180910390fd5b565b610beb610a44565b50565b8173ffffffffffffffffffffffffffffffffffffffff166352d1902d6040518163ffffffff1660e01b8152600401602060405180830381865afa925050508015610c5657506040513d601f19601f82011682018060405250810190610c539190611aa6565b60015b610c9757816040517f4c9c8ce3000000000000000000000000000000000000000000000000000000008152600401610c8e91906117e6565b60405180910390fd5b7f360894a13ba1a3210667c828492db98dca3e2076cc3735a920a3ca505d382bbc60001b8114610cfe57806040517faa1d49a4000000000000000000000000000000000000000000000000000000008152600401610cf591906117bc565b60405180910390fd5b610d088383610fe3565b505050565b7f000000000000000000000000000000000000000000000000000000000000000073ffffffffffffffffffffffffffffffffffffffff163073ffffffffffffffffffffffffffffffffffffffff1614610d92576040517fe07c8dba00000000000000000000000000000000000000000000000000000000815260040160405180910390fd5b565b6000610d9e610e6b565b905060008160000160009054906101000a900473ffffffffffffffffffffffffffffffffffffffff169050828260000160006101000a81548173ffffffffffffffffffffffffffffffffffffffff021916908373ffffffffffffffffffffffffffffffffffffffff1602179055508273ffffffffffffffffffffffffffffffffffffffff168173ffffffffffffffffffffffffffffffffffffffff167f8be0079c531659141344cd1fd0a4f28419497f9722a3daafe3b4186f6b6457e060405160405180910390a3505050565b60007f9016d09d72d40fdae2fd8ceac6b6234c7706214fd39c1cd1e609a0528c199300905090565b600033905090565b60007ff0c57e16840df040f15088dc2f81fe391c3923bec73e23a9662efc9c229c6a0060001b905090565b610ece611056565b610f04576040517fd7e6bcf800000000000000000000000000000000000000000000000000000000815260040160405180910390fd5b565b610f0e610ec6565b600073ffffffffffffffffffffffffffffffffffffffff168173ffffffffffffffffffffffffffffffffffffffff1603610f805760006040517f1e4fbdf7000000000000000000000000000000000000000000000000000000008152600401610f7791906117e6565b60405180910390fd5b610f8981610d94565b50565b6000610fba7f360894a13ba1a3210667c828492db98dca3e2076cc3735a920a3ca505d382bbc60001b611076565b60000160009054906101000a900473ffffffffffffffffffffffffffffffffffffffff16905090565b610fec82611080565b8173ffffffffffffffffffffffffffffffffffffffff167fbc7cd75a20ee27fd9adebab32041f755214dbc6bffa90cc0225b39da2e5c2d3b60405160405180910390a260008151111561104957611043828261114d565b50611052565b6110516111d1565b5b5050565b6000611060610acb565b60000160089054906101000a900460ff16905090565b6000819050919050565b60008173ffffffffffffffffffffffffffffffffffffffff163b036110dc57806040517f4c9c8ce30000000000000000000000000000000000000000000000000000000081526004016110d391906117e6565b60405180910390fd5b806111097f360894a13ba1a3210667c828492db98dca3e2076cc3735a920a3ca505d382bbc60001b611076565b60000160006101000a81548173ffffffffffffffffffffffffffffffffffffffff021916908373ffffffffffffffffffffffffffffffffffffffff16021790555050565b60606000808473ffffffffffffffffffffffffffffffffffffffff16846040516111779190611b1a565b600060405180830381855af49150503d80600081146111b2576040519150601f19603f3d011682016040523d82523d6000602084013e6111b7565b606091505b50915091506111c785838361120e565b9250505092915050565b600034111561120c576040517fb398979f00000000000000000000000000000000000000000000000000000000815260040160405180910390fd5b565b6060826112235761121e8261129d565b611295565b6000825114801561124b575060008473ffffffffffffffffffffffffffffffffffffffff163b145b1561128d57836040517f9996b31500000000000000000000000000000000000000000000000000000000815260040161128491906117e6565b60405180910390fd5b819050611296565b5b9392505050565b6000815111156112b05780518082602001fd5b6040517fd6bda27500000000000000000000000000000000000000000000000000000000815260040160405180910390fd5b600073ffffffffffffffffffffffffffffffffffffffff82169050919050565b6000819050919050565b600061132761132261131d846112e2565b611302565b6112e2565b9050919050565b60006113398261130c565b9050919050565b600061134b8261132e565b9050919050565b61135b81611340565b82525050565b60006020820190506113766000830184611352565b92915050565b6000604051905090565b600080fd5b600080fd5b600063ffffffff82169050919050565b6113a981611390565b81146113b457600080fd5b50565b6000813590506113c6816113a0565b92915050565b600080fd5b600080fd5b600080fd5b60008083601f8401126113f1576113f06113cc565b5b8235905067ffffffffffffffff81111561140e5761140d6113d1565b5b60208301915083600182028301111561142a576114296113d6565b5b9250929050565b60008083601f840112611447576114466113cc565b5b8235905067ffffffffffffffff811115611464576114636113d1565b5b6020830191508360018202830111156114805761147f6113d6565b5b9250929050565b6000806000806000606086880312156114a3576114a2611386565b5b60006114b1888289016113b7565b955050602086013567ffffffffffffffff8111156114d2576114d161138b565b5b6114de888289016113db565b9450945050604086013567ffffffffffffffff8111156115015761150061138b565b5b61150d88828901611431565b92509250509295509295909350565b6000819050919050565b61152f8161151c565b811461153a57600080fd5b50565b60008135905061154c81611526565b92915050565b6000806040838503121561156957611568611386565b5b6000611577858286016113b7565b92505060206115888582860161153d565b9150509250929050565b600061159d826112e2565b9050919050565b6115ad81611592565b81146115b857600080fd5b50565b6000813590506115ca816115a4565b92915050565b600080604083850312156115e7576115e6611386565b5b60006115f5858286016115bb565b9250506020611606858286016115bb565b9150509250929050565b600080fd5b6000601f19601f8301169050919050565b7f4e487b7100000000000000000000000000000000000000000000000000000000600052604160045260246000fd5b61165e82611615565b810181811067ffffffffffffffff8211171561167d5761167c611626565b5b80604052505050565b600061169061137c565b905061169c8282611655565b919050565b600067ffffffffffffffff8211156116bc576116bb611626565b5b6116c582611615565b9050602081019050919050565b82818337600083830152505050565b60006116f46116ef846116a1565b611686565b9050828152602081018484840111156117105761170f611610565b5b61171b8482856116d2565b509392505050565b600082601f830112611738576117376113cc565b5b81356117488482602086016116e1565b91505092915050565b6000806040838503121561176857611767611386565b5b6000611776858286016115bb565b925050602083013567ffffffffffffffff8111156117975761179661138b565b5b6117a385828601611723565b9150509250929050565b6117b68161151c565b82525050565b60006020820190506117d160008301846117ad565b92915050565b6117e081611592565b82525050565b60006020820190506117fb60008301846117d7565b92915050565b60006020828403121561181757611816611386565b5b6000611825848285016115bb565b91505092915050565b600081519050919050565b600082825260208201905092915050565b60005b8381101561186857808201518184015260208101905061184d565b60008484015250505050565b600061187f8261182e565b6118898185611839565b935061189981856020860161184a565b6118a281611615565b840191505092915050565b600060208201905081810360008301526118c78184611874565b905092915050565b7f50726f66696c6553656e646572206e6f74207365740000000000000000000000600082015250565b6000611905601583611839565b9150611910826118cf565b602082019050919050565b60006020820190508181036000830152611934816118f8565b9050919050565b61194481611390565b82525050565b60006119568385611839565b93506119638385846116d2565b61196c83611615565b840190509392505050565b600082825260208201905092915050565b60006119948385611977565b93506119a18385846116d2565b6119aa83611615565b840190509392505050565b60006060820190506119ca600083018861193b565b81810360208301526119dd81868861194a565b905081810360408301526119f2818486611988565b90509695505050505050565b6000604082019050611a13600083018561193b565b611a2060208301846117ad565b9392505050565b6000819050919050565b600067ffffffffffffffff82169050919050565b6000611a60611a5b611a5684611a27565b611302565b611a31565b9050919050565b611a7081611a45565b82525050565b6000602082019050611a8b6000830184611a67565b92915050565b600081519050611aa081611526565b92915050565b600060208284031215611abc57611abb611386565b5b6000611aca84828501611a91565b91505092915050565b600081519050919050565b600081905092915050565b6000611af482611ad3565b611afe8185611ade565b9350611b0e81856020860161184a565b80840191505092915050565b6000611b268284611ae9565b91508190509291505056fea264697066735822122029794019c8d548dee6e9c5cd4863c019265a6aa236aa63a742dd21397462a72e64736f6c634300081e0033",
					"opcodes": "PUSH1 0xA0 PUSH1 0x40 MSTORE ADDRESS PUSH20 0xFFFFFFFFFFFFFFFFFFFFFFFFFFFFFFFFFFFFFFFF AND PUSH1 0x80 SWAP1 PUSH20 0xFFFFFFFFFFFFFFFFFFFFFFFFFFFFFFFFFFFFFFFF AND DUP2 MSTORE POP CALLVALUE DUP1 ISZERO PUSH2 0x43 JUMPI PUSH1 0x0 DUP1 REVERT JUMPDEST POP PUSH2 0x52 PUSH2 0x57 PUSH1 0x20 SHL PUSH1 0x20 SHR JUMP JUMPDEST PUSH2 0x1DE JUMP JUMPDEST PUSH1 0x0 PUSH2 0x67 PUSH2 0x15B PUSH1 0x20 SHL PUSH1 0x20 SHR JUMP JUMPDEST SWAP1 POP DUP1 PUSH1 0x0 ADD PUSH1 0x8 SWAP1 SLOAD SWAP1 PUSH2 0x100 EXP SWAP1 DIV PUSH1 0xFF AND ISZERO PUSH2 0xB2 JUMPI PUSH1 0x40 MLOAD PUSH32 0xF92EE8A900000000000000000000000000000000000000000000000000000000 DUP2 MSTORE PUSH1 0x4 ADD PUSH1 0x40 MLOAD DUP1 SWAP2 SUB SWAP1 REVERT JUMPDEST PUSH8 0xFFFFFFFFFFFFFFFF DUP1 AND DUP2 PUSH1 0x0 ADD PUSH1 0x0 SWAP1 SLOAD SWAP1 PUSH2 0x100 EXP SWAP1 DIV PUSH8 0xFFFFFFFFFFFFFFFF AND PUSH8 0xFFFFFFFFFFFFFFFF AND EQ PUSH2 0x158 JUMPI PUSH8 0xFFFFFFFFFFFFFFFF DUP2 PUSH1 0x0 ADD PUSH1 0x0 PUSH2 0x100 EXP DUP2 SLOAD DUP2 PUSH8 0xFFFFFFFFFFFFFFFF MUL NOT AND SWAP1 DUP4 PUSH8 0xFFFFFFFFFFFFFFFF AND MUL OR SWAP1 SSTORE POP PUSH32 0xC7F505B2F371AE2175EE4913F4499E1F2633A7B5936321EED1CDAEB6115181D2 PUSH8 0xFFFFFFFFFFFFFFFF PUSH1 0x40 MLOAD PUSH2 0x14F SWAP2 SWAP1 PUSH2 0x1C3 JUMP JUMPDEST PUSH1 0x40 MLOAD DUP1 SWAP2 SUB SWAP1 LOG1 JUMPDEST POP JUMP JUMPDEST PUSH1 0x0 DUP1 PUSH2 0x16C PUSH2 0x175 PUSH1 0x20 SHL PUSH1 0x20 SHR JUMP JUMPDEST SWAP1 POP DUP1 SWAP2 POP POP SWAP1 JUMP JUMPDEST PUSH1 0x0 PUSH32 0xF0C57E16840DF040F15088DC2F81FE391C3923BEC73E23A9662EFC9C229C6A00 PUSH1 0x0 SHL SWAP1 POP SWAP1 JUMP JUMPDEST PUSH1 0x0 PUSH8 0xFFFFFFFFFFFFFFFF DUP3 AND SWAP1 POP SWAP2 SWAP1 POP JUMP JUMPDEST PUSH2 0x1BD DUP2 PUSH2 0x1A0 JUMP JUMPDEST DUP3 MSTORE POP POP JUMP JUMPDEST PUSH1 0x0 PUSH1 0x20 DUP3 ADD SWAP1 POP PUSH2 0x1D8 PUSH1 0x0 DUP4 ADD DUP5 PUSH2 0x1B4 JUMP JUMPDEST SWAP3 SWAP2 POP POP JUMP JUMPDEST PUSH1 0x80 MLOAD PUSH2 0x1B67 PUSH2 0x207 PUSH1 0x0 CODECOPY PUSH1 0x0 DUP2 DUP2 PUSH2 0xAFF ADD MSTORE DUP2 DUP2 PUSH2 0xB54 ADD MSTORE PUSH2 0xD0F ADD MSTORE PUSH2 0x1B67 PUSH1 0x0 RETURN INVALID PUSH1 0x80 PUSH1 0x40 MSTORE PUSH1 0x4 CALLDATASIZE LT PUSH2 0xA7 JUMPI PUSH1 0x0 CALLDATALOAD PUSH1 0xE0 SHR DUP1 PUSH4 0x715018A6 GT PUSH2 0x64 JUMPI DUP1 PUSH4 0x715018A6 EQ PUSH2 0x18C JUMPI DUP1 PUSH4 0x8DA5CB5B EQ PUSH2 0x1A3 JUMPI DUP1 PUSH4 0xA6B31389 EQ PUSH2 0x1CE JUMPI DUP1 PUSH4 0xAD3CB1CC EQ PUSH2 0x1F7 JUMPI DUP1 PUSH4 0xC4D66DE8 EQ PUSH2 0x222 JUMPI DUP1 PUSH4 0xF2FDE38B EQ PUSH2 0x24B JUMPI PUSH2 0xA7 JUMP JUMPDEST DUP1 PUSH4 0xF0322AD EQ PUSH2 0xAC JUMPI DUP1 PUSH4 0x306E1D95 EQ PUSH2 0xD7 JUMPI DUP1 PUSH4 0x3400288B EQ PUSH2 0xF3 JUMPI DUP1 PUSH4 0x485CC955 EQ PUSH2 0x11C JUMPI DUP1 PUSH4 0x4F1EF286 EQ PUSH2 0x145 JUMPI DUP1 PUSH4 0x52D1902D EQ PUSH2 0x161 JUMPI JUMPDEST PUSH1 0x0 DUP1 REVERT JUMPDEST CALLVALUE DUP1 ISZERO PUSH2 0xB8 JUMPI PUSH1 0x0 DUP1 REVERT JUMPDEST POP PUSH2 0xC1 PUSH2 0x274 JUMP JUMPDEST PUSH1 0x40 MLOAD PUSH2 0xCE SWAP2 SWAP1 PUSH2 0x1361 JUMP JUMPDEST PUSH1 0x40 MLOAD DUP1 SWAP2 SUB SWAP1 RETURN JUMPDEST PUSH2 0xF1 PUSH1 0x4 DUP1 CALLDATASIZE SUB DUP2 ADD SWAP1 PUSH2 0xEC SWAP2 SWAP1 PUSH2 0x1487 JUMP JUMPDEST PUSH2 0x298 JUMP JUMPDEST STOP JUMPDEST CALLVALUE DUP1 ISZERO PUSH2 0xFF JUMPI PUSH1 0x0 DUP1 REVERT JUMPDEST POP PUSH2 0x11A PUSH1 0x4 DUP1 CALLDATASIZE SUB DUP2 ADD SWAP1 PUSH2 0x115 SWAP2 SWAP1 PUSH2 0x1552 JUMP JUMPDEST PUSH2 0x3C2 JUMP JUMPDEST STOP JUMPDEST CALLVALUE DUP1 ISZERO PUSH2 0x128 JUMPI PUSH1 0x0 DUP1 REVERT JUMPDEST POP PUSH2 0x143 PUSH1 0x4 DUP1 CALLDATASIZE SUB DUP2 ADD SWAP1 PUSH2 0x13E SWAP2 SWAP1 PUSH2 0x15D0 JUMP JUMPDEST PUSH2 0x4EA JUMP JUMPDEST STOP JUMPDEST PUSH2 0x15F PUSH1 0x4 DUP1 CALLDATASIZE SUB DUP2 ADD SWAP1 PUSH2 0x15A SWAP2 SWAP1 PUSH2 0x1751 JUMP JUMPDEST PUSH2 0x6C2 JUMP JUMPDEST STOP JUMPDEST CALLVALUE DUP1 ISZERO PUSH2 0x16D JUMPI PUSH1 0x0 DUP1 REVERT JUMPDEST POP PUSH2 0x176 PUSH2 0x6E1 JUMP JUMPDEST PUSH1 0x40 MLOAD PUSH2 0x183 SWAP2 SWAP1 PUSH2 0x17BC JUMP JUMPDEST PUSH1 0x40 MLOAD DUP1 SWAP2 SUB SWAP1 RETURN JUMPDEST CALLVALUE DUP1 ISZERO PUSH2 0x198 JUMPI PUSH1 0x0 DUP1 REVERT JUMPDEST POP PUSH2 0x1A1 PUSH2 0x714 JUMP JUMPDEST STOP JUMPDEST CALLVALUE DUP1 ISZERO PUSH2 0x1AF JUMPI PUSH1 0x0 DUP1 REVERT JUMPDEST POP PUSH2 0x1B8 PUSH2 0x728 JUMP JUMPDEST PUSH1 0x40 MLOAD PUSH2 0x1C5 SWAP2 SWAP1 PUSH2 0x17E6 JUMP JUMPDEST PUSH1 0x40 MLOAD DUP1 SWAP2 SUB SWAP1 RETURN JUMPDEST CALLVALUE DUP1 ISZERO PUSH2 0x1DA JUMPI PUSH1 0x0 DUP1 REVERT JUMPDEST POP PUSH2 0x1F5 PUSH1 0x4 DUP1 CALLDATASIZE SUB DUP2 ADD SWAP1 PUSH2 0x1F0 SWAP2 SWAP1 PUSH2 0x1801 JUMP JUMPDEST PUSH2 0x760 JUMP JUMPDEST STOP JUMPDEST CALLVALUE DUP1 ISZERO PUSH2 0x203 JUMPI PUSH1 0x0 DUP1 REVERT JUMPDEST POP PUSH2 0x20C PUSH2 0x7EE JUMP JUMPDEST PUSH1 0x40 MLOAD PUSH2 0x219 SWAP2 SWAP1 PUSH2 0x18AD JUMP JUMPDEST PUSH1 0x40 MLOAD DUP1 SWAP2 SUB SWAP1 RETURN JUMPDEST CALLVALUE DUP1 ISZERO PUSH2 0x22E JUMPI PUSH1 0x0 DUP1 REVERT JUMPDEST POP PUSH2 0x249 PUSH1 0x4 DUP1 CALLDATASIZE SUB DUP2 ADD SWAP1 PUSH2 0x244 SWAP2 SWAP1 PUSH2 0x1801 JUMP JUMPDEST PUSH2 0x827 JUMP JUMPDEST STOP JUMPDEST CALLVALUE DUP1 ISZERO PUSH2 0x257 JUMPI PUSH1 0x0 DUP1 REVERT JUMPDEST POP PUSH2 0x272 PUSH1 0x4 DUP1 CALLDATASIZE SUB DUP2 ADD SWAP1 PUSH2 0x26D SWAP2 SWAP1 PUSH2 0x1801 JUMP JUMPDEST PUSH2 0x9BE JUMP JUMPDEST STOP JUMPDEST PUSH1 0x0 DUP1 SLOAD SWAP1 PUSH2 0x100 EXP SWAP1 DIV PUSH20 0xFFFFFFFFFFFFFFFFFFFFFFFFFFFFFFFFFFFFFFFF AND DUP2 JUMP JUMPDEST PUSH1 0x0 PUSH20 0xFFFFFFFFFFFFFFFFFFFFFFFFFFFFFFFFFFFFFFFF AND PUSH1 0x0 DUP1 SLOAD SWAP1 PUSH2 0x100 EXP SWAP1 DIV PUSH20 0xFFFFFFFFFFFFFFFFFFFFFFFFFFFFFFFFFFFFFFFF AND PUSH20 0xFFFFFFFFFFFFFFFFFFFFFFFFFFFFFFFFFFFFFFFF AND SUB PUSH2 0x327 JUMPI PUSH1 0x40 MLOAD PUSH32 0x8C379A000000000000000000000000000000000000000000000000000000000 DUP2 MSTORE PUSH1 0x4 ADD PUSH2 0x31E SWAP1 PUSH2 0x191B JUMP JUMPDEST PUSH1 0x40 MLOAD DUP1 SWAP2 SUB SWAP1 REVERT JUMPDEST PUSH1 0x0 DUP1 SLOAD SWAP1 PUSH2 0x100 EXP SWAP1 DIV PUSH20 0xFFFFFFFFFFFFFFFFFFFFFFFFFFFFFFFFFFFFFFFF AND PUSH20 0xFFFFFFFFFFFFFFFFFFFFFFFFFFFFFFFFFFFFFFFF AND PUSH4 0x306E1D95 CALLVALUE DUP8 DUP8 DUP8 DUP8 DUP8 PUSH1 0x40 MLOAD DUP8 PUSH4 0xFFFFFFFF AND PUSH1 0xE0 SHL DUP2 MSTORE PUSH1 0x4 ADD PUSH2 0x389 SWAP6 SWAP5 SWAP4 SWAP3 SWAP2 SWAP1 PUSH2 0x19B5 JUMP JUMPDEST PUSH1 0x0 PUSH1 0x40 MLOAD DUP1 DUP4 SUB DUP2 DUP6 DUP9 DUP1 EXTCODESIZE ISZERO DUP1 ISZERO PUSH2 0x3A2 JUMPI PUSH1 0x0 DUP1 REVERT JUMPDEST POP GAS CALL ISZERO DUP1 ISZERO PUSH2 0x3B6 JUMPI RETURNDATASIZE PUSH1 0x0 DUP1 RETURNDATACOPY RETURNDATASIZE PUSH1 0x0 REVERT JUMPDEST POP POP POP POP POP POP POP POP POP POP JUMP JUMPDEST PUSH2 0x3CA PUSH2 0xA44 JUMP JUMPDEST PUSH1 0x0 PUSH20 0xFFFFFFFFFFFFFFFFFFFFFFFFFFFFFFFFFFFFFFFF AND PUSH1 0x0 DUP1 SLOAD SWAP1 PUSH2 0x100 EXP SWAP1 DIV PUSH20 0xFFFFFFFFFFFFFFFFFFFFFFFFFFFFFFFFFFFFFFFF AND PUSH20 0xFFFFFFFFFFFFFFFFFFFFFFFFFFFFFFFFFFFFFFFF AND SUB PUSH2 0x459 JUMPI PUSH1 0x40 MLOAD PUSH32 0x8C379A000000000000000000000000000000000000000000000000000000000 DUP2 MSTORE PUSH1 0x4 ADD PUSH2 0x450 SWAP1 PUSH2 0x191B JUMP JUMPDEST PUSH1 0x40 MLOAD DUP1 SWAP2 SUB SWAP1 REVERT JUMPDEST PUSH1 0x0 DUP1 SLOAD SWAP1 PUSH2 0x100 EXP SWAP1 DIV PUSH20 0xFFFFFFFFFFFFFFFFFFFFFFFFFFFFFFFFFFFFFFFF AND PUSH20 0xFFFFFFFFFFFFFFFFFFFFFFFFFFFFFFFFFFFFFFFF AND PUSH4 0x3400288B DUP4 DUP4 PUSH1 0x40 MLOAD DUP4 PUSH4 0xFFFFFFFF AND PUSH1 0xE0 SHL DUP2 MSTORE PUSH1 0x4 ADD PUSH2 0x4B4 SWAP3 SWAP2 SWAP1 PUSH2 0x19FE JUMP JUMPDEST PUSH1 0x0 PUSH1 0x40 MLOAD DUP1 DUP4 SUB DUP2 PUSH1 0x0 DUP8 DUP1 EXTCODESIZE ISZERO DUP1 ISZERO PUSH2 0x4CE JUMPI PUSH1 0x0 DUP1 REVERT JUMPDEST POP GAS CALL ISZERO DUP1 ISZERO PUSH2 0x4E2 JUMPI RETURNDATASIZE PUSH1 0x0 DUP1 RETURNDATACOPY RETURNDATASIZE PUSH1 0x0 REVERT JUMPDEST POP POP POP POP POP POP JUMP JUMPDEST PUSH1 0x0 PUSH2 0x4F4 PUSH2 0xACB JUMP JUMPDEST SWAP1 POP PUSH1 0x0 DUP2 PUSH1 0x0 ADD PUSH1 0x8 SWAP1 SLOAD SWAP1 PUSH2 0x100 EXP SWAP1 DIV PUSH1 0xFF AND ISZERO SWAP1 POP PUSH1 0x0 DUP3 PUSH1 0x0 ADD PUSH1 0x0 SWAP1 SLOAD SWAP1 PUSH2 0x100 EXP SWAP1 DIV PUSH8 0xFFFFFFFFFFFFFFFF AND SWAP1 POP PUSH1 0x0 DUP1 DUP3 PUSH8 0xFFFFFFFFFFFFFFFF AND EQ DUP1 ISZERO PUSH2 0x542 JUMPI POP DUP3 JUMPDEST SWAP1 POP PUSH1 0x0 PUSH1 0x1 DUP4 PUSH8 0xFFFFFFFFFFFFFFFF AND EQ DUP1 ISZERO PUSH2 0x577 JUMPI POP PUSH1 0x0 ADDRESS PUSH20 0xFFFFFFFFFFFFFFFFFFFFFFFFFFFFFFFFFFFFFFFF AND EXTCODESIZE EQ JUMPDEST SWAP1 POP DUP2 ISZERO DUP1 ISZERO PUSH2 0x585 JUMPI POP DUP1 ISZERO JUMPDEST ISZERO PUSH2 0x5BC JUMPI PUSH1 0x40 MLOAD PUSH32 0xF92EE8A900000000000000000000000000000000000000000000000000000000 DUP2 MSTORE PUSH1 0x4 ADD PUSH1 0x40 MLOAD DUP1 SWAP2 SUB SWAP1 REVERT JUMPDEST PUSH1 0x1 DUP6 PUSH1 0x0 ADD PUSH1 0x0 PUSH2 0x100 EXP DUP2 SLOAD DUP2 PUSH8 0xFFFFFFFFFFFFFFFF MUL NOT AND SWAP1 DUP4 PUSH8 0xFFFFFFFFFFFFFFFF AND MUL OR SWAP1 SSTORE POP DUP4 ISZERO PUSH2 0x60C JUMPI PUSH1 0x1 DUP6 PUSH1 0x0 ADD PUSH1 0x8 PUSH2 0x100 EXP DUP2 SLOAD DUP2 PUSH1 0xFF MUL NOT AND SWAP1 DUP4 ISZERO ISZERO MUL OR SWAP1 SSTORE POP JUMPDEST PUSH2 0x615 DUP7 PUSH2 0xADF JUMP JUMPDEST PUSH2 0x61D PUSH2 0xAF3 JUMP JUMPDEST DUP7 PUSH1 0x0 DUP1 PUSH2 0x100 EXP DUP2 SLOAD DUP2 PUSH20 0xFFFFFFFFFFFFFFFFFFFFFFFFFFFFFFFFFFFFFFFF MUL NOT AND SWAP1 DUP4 PUSH20 0xFFFFFFFFFFFFFFFFFFFFFFFFFFFFFFFFFFFFFFFF AND MUL OR SWAP1 SSTORE POP DUP4 ISZERO PUSH2 0x6B9 JUMPI PUSH1 0x0 DUP6 PUSH1 0x0 ADD PUSH1 0x8 PUSH2 0x100 EXP DUP2 SLOAD DUP2 PUSH1 0xFF MUL NOT AND SWAP1 DUP4 ISZERO ISZERO MUL OR SWAP1 SSTORE POP PUSH32 0xC7F505B2F371AE2175EE4913F4499E1F2633A7B5936321EED1CDAEB6115181D2 PUSH1 0x1 PUSH1 0x40 MLOAD PUSH2 0x6B0 SWAP2 SWAP1 PUSH2 0x1A76 JUMP JUMPDEST PUSH1 0x40 MLOAD DUP1 SWAP2 SUB SWAP1 LOG1 JUMPDEST POP POP POP POP POP POP POP JUMP JUMPDEST PUSH2 0x6CA PUSH2 0xAFD JUMP JUMPDEST PUSH2 0x6D3 DUP3 PUSH2 0xBE3 JUMP JUMPDEST PUSH2 0x6DD DUP3 DUP3 PUSH2 0xBEE JUMP JUMPDEST POP POP JUMP JUMPDEST PUSH1 0x0 PUSH2 0x6EB PUSH2 0xD0D JUMP JUMPDEST PUSH32 0x360894A13BA1A3210667C828492DB98DCA3E2076CC3735A920A3CA505D382BBC PUSH1 0x0 SHL SWAP1 POP SWAP1 JUMP JUMPDEST PUSH2 0x71C PUSH2 0xA44 JUMP JUMPDEST PUSH2 0x726 PUSH1 0x0 PUSH2 0xD94 JUMP JUMPDEST JUMP JUMPDEST PUSH1 0x0 DUP1 PUSH2 0x733 PUSH2 0xE6B JUMP JUMPDEST SWAP1 POP DUP1 PUSH1 0x0 ADD PUSH1 0x0 SWAP1 SLOAD SWAP1 PUSH2 0x100 EXP SWAP1 DIV PUSH20 0xFFFFFFFFFFFFFFFFFFFFFFFFFFFFFFFFFFFFFFFF AND SWAP2 POP POP SWAP1 JUMP JUMPDEST PUSH2 0x768 PUSH2 0xA44 JUMP JUMPDEST DUP1 PUSH1 0x0 DUP1 PUSH2 0x100 EXP DUP2 SLOAD DUP2 PUSH20 0xFFFFFFFFFFFFFFFFFFFFFFFFFFFFFFFFFFFFFFFF MUL NOT AND SWAP1 DUP4 PUSH20 0xFFFFFFFFFFFFFFFFFFFFFFFFFFFFFFFFFFFFFFFF AND MUL OR SWAP1 SSTORE POP DUP1 PUSH20 0xFFFFFFFFFFFFFFFFFFFFFFFFFFFFFFFFFFFFFFFF AND PUSH32 0x8670E8D664DB069076C6D917EDD88D7440E81881FE8D92E754F087E1012F72DA PUSH1 0x40 MLOAD PUSH1 0x40 MLOAD DUP1 SWAP2 SUB SWAP1 LOG2 POP JUMP JUMPDEST PUSH1 0x40 MLOAD DUP1 PUSH1 0x40 ADD PUSH1 0x40 MSTORE DUP1 PUSH1 0x5 DUP2 MSTORE PUSH1 0x20 ADD PUSH32 0x352E302E30000000000000000000000000000000000000000000000000000000 DUP2 MSTORE POP DUP2 JUMP JUMPDEST PUSH1 0x0 PUSH2 0x831 PUSH2 0xACB JUMP JUMPDEST SWAP1 POP PUSH1 0x0 DUP2 PUSH1 0x0 ADD PUSH1 0x8 SWAP1 SLOAD SWAP1 PUSH2 0x100 EXP SWAP1 DIV PUSH1 0xFF AND ISZERO SWAP1 POP PUSH1 0x0 DUP3 PUSH1 0x0 ADD PUSH1 0x0 SWAP1 SLOAD SWAP1 PUSH2 0x100 EXP SWAP1 DIV PUSH8 0xFFFFFFFFFFFFFFFF AND SWAP1 POP PUSH1 0x0 DUP1 DUP3 PUSH8 0xFFFFFFFFFFFFFFFF AND EQ DUP1 ISZERO PUSH2 0x87F JUMPI POP DUP3 JUMPDEST SWAP1 POP PUSH1 0x0 PUSH1 0x1 DUP4 PUSH8 0xFFFFFFFFFFFFFFFF AND EQ DUP1 ISZERO PUSH2 0x8B4 JUMPI POP PUSH1 0x0 ADDRESS PUSH20 0xFFFFFFFFFFFFFFFFFFFFFFFFFFFFFFFFFFFFFFFF AND EXTCODESIZE EQ JUMPDEST SWAP1 POP DUP2 ISZERO DUP1 ISZERO PUSH2 0x8C2 JUMPI POP DUP1 ISZERO JUMPDEST ISZERO PUSH2 0x8F9 JUMPI PUSH1 0x40 MLOAD PUSH32 0xF92EE8A900000000000000000000000000000000000000000000000000000000 DUP2 MSTORE PUSH1 0x4 ADD PUSH1 0x40 MLOAD DUP1 SWAP2 SUB SWAP1 REVERT JUMPDEST PUSH1 0x1 DUP6 PUSH1 0x0 ADD PUSH1 0x0 PUSH2 0x100 EXP DUP2 SLOAD DUP2 PUSH8 0xFFFFFFFFFFFFFFFF MUL NOT AND SWAP1 DUP4 PUSH8 0xFFFFFFFFFFFFFFFF AND MUL OR SWAP1 SSTORE POP DUP4 ISZERO PUSH2 0x949 JUMPI PUSH1 0x1 DUP6 PUSH1 0x0 ADD PUSH1 0x8 PUSH2 0x100 EXP DUP2 SLOAD DUP2 PUSH1 0xFF MUL NOT AND SWAP1 DUP4 ISZERO ISZERO MUL OR SWAP1 SSTORE POP JUMPDEST PUSH2 0x952 DUP7 PUSH2 0xADF JUMP JUMPDEST PUSH2 0x95A PUSH2 0xAF3 JUMP JUMPDEST DUP4 ISZERO PUSH2 0x9B6 JUMPI PUSH1 0x0 DUP6 PUSH1 0x0 ADD PUSH1 0x8 PUSH2 0x100 EXP DUP2 SLOAD DUP2 PUSH1 0xFF MUL NOT AND SWAP1 DUP4 ISZERO ISZERO MUL OR SWAP1 SSTORE POP PUSH32 0xC7F505B2F371AE2175EE4913F4499E1F2633A7B5936321EED1CDAEB6115181D2 PUSH1 0x1 PUSH1 0x40 MLOAD PUSH2 0x9AD SWAP2 SWAP1 PUSH2 0x1A76 JUMP JUMPDEST PUSH1 0x40 MLOAD DUP1 SWAP2 SUB SWAP1 LOG1 JUMPDEST POP POP POP POP POP POP JUMP JUMPDEST PUSH2 0x9C6 PUSH2 0xA44 JUMP JUMPDEST PUSH1 0x0 PUSH20 0xFFFFFFFFFFFFFFFFFFFFFFFFFFFFFFFFFFFFFFFF AND DUP2 PUSH20 0xFFFFFFFFFFFFFFFFFFFFFFFFFFFFFFFFFFFFFFFF AND SUB PUSH2 0xA38 JUMPI PUSH1 0x0 PUSH1 0x40 MLOAD PUSH32 0x1E4FBDF700000000000000000000000000000000000000000000000000000000 DUP2 MSTORE PUSH1 0x4 ADD PUSH2 0xA2F SWAP2 SWAP1 PUSH2 0x17E6 JUMP JUMPDEST PUSH1 0x40 MLOAD DUP1 SWAP2 SUB SWAP1 REVERT JUMPDEST PUSH2 0xA41 DUP2 PUSH2 0xD94 JUMP JUMPDEST POP JUMP JUMPDEST PUSH2 0xA4C PUSH2 0xE93 JUMP JUMPDEST PUSH20 0xFFFFFFFFFFFFFFFFFFFFFFFFFFFFFFFFFFFFFFFF AND PUSH2 0xA6A PUSH2 0x728 JUMP JUMPDEST PUSH20 0xFFFFFFFFFFFFFFFFFFFFFFFFFFFFFFFFFFFFFFFF AND EQ PUSH2 0xAC9 JUMPI PUSH2 0xA8D PUSH2 0xE93 JUMP JUMPDEST PUSH1 0x40 MLOAD PUSH32 0x118CDAA700000000000000000000000000000000000000000000000000000000 DUP2 MSTORE PUSH1 0x4 ADD PUSH2 0xAC0 SWAP2 SWAP1 PUSH2 0x17E6 JUMP JUMPDEST PUSH1 0x40 MLOAD DUP1 SWAP2 SUB SWAP1 REVERT JUMPDEST JUMP JUMPDEST PUSH1 0x0 DUP1 PUSH2 0xAD6 PUSH2 0xE9B JUMP JUMPDEST SWAP1 POP DUP1 SWAP2 POP POP SWAP1 JUMP JUMPDEST PUSH2 0xAE7 PUSH2 0xEC6 JUMP JUMPDEST PUSH2 0xAF0 DUP2 PUSH2 0xF06 JUMP JUMPDEST POP JUMP JUMPDEST PUSH2 0xAFB PUSH2 0xEC6 JUMP JUMPDEST JUMP JUMPDEST PUSH32 0x0 PUSH20 0xFFFFFFFFFFFFFFFFFFFFFFFFFFFFFFFFFFFFFFFF AND ADDRESS PUSH20 0xFFFFFFFFFFFFFFFFFFFFFFFFFFFFFFFFFFFFFFFF AND EQ DUP1 PUSH2 0xBAA JUMPI POP PUSH32 0x0 PUSH20 0xFFFFFFFFFFFFFFFFFFFFFFFFFFFFFFFFFFFFFFFF AND PUSH2 0xB91 PUSH2 0xF8C JUMP JUMPDEST PUSH20 0xFFFFFFFFFFFFFFFFFFFFFFFFFFFFFFFFFFFFFFFF AND EQ ISZERO JUMPDEST ISZERO PUSH2 0xBE1 JUMPI PUSH1 0x40 MLOAD PUSH32 0xE07C8DBA00000000000000000000000000000000000000000000000000000000 DUP2 MSTORE PUSH1 0x4 ADD PUSH1 0x40 MLOAD DUP1 SWAP2 SUB SWAP1 REVERT JUMPDEST JUMP JUMPDEST PUSH2 0xBEB PUSH2 0xA44 JUMP JUMPDEST POP JUMP JUMPDEST DUP2 PUSH20 0xFFFFFFFFFFFFFFFFFFFFFFFFFFFFFFFFFFFFFFFF AND PUSH4 0x52D1902D PUSH1 0x40 MLOAD DUP2 PUSH4 0xFFFFFFFF AND PUSH1 0xE0 SHL DUP2 MSTORE PUSH1 0x4 ADD PUSH1 0x20 PUSH1 0x40 MLOAD DUP1 DUP4 SUB DUP2 DUP7 GAS STATICCALL SWAP3 POP POP POP DUP1 ISZERO PUSH2 0xC56 JUMPI POP PUSH1 0x40 MLOAD RETURNDATASIZE PUSH1 0x1F NOT PUSH1 0x1F DUP3 ADD AND DUP3 ADD DUP1 PUSH1 0x40 MSTORE POP DUP2 ADD SWAP1 PUSH2 0xC53 SWAP2 SWAP1 PUSH2 0x1AA6 JUMP JUMPDEST PUSH1 0x1 JUMPDEST PUSH2 0xC97 JUMPI DUP2 PUSH1 0x40 MLOAD PUSH32 0x4C9C8CE300000000000000000000000000000000000000000000000000000000 DUP2 MSTORE PUSH1 0x4 ADD PUSH2 0xC8E SWAP2 SWAP1 PUSH2 0x17E6 JUMP JUMPDEST PUSH1 0x40 MLOAD DUP1 SWAP2 SUB SWAP1 REVERT JUMPDEST PUSH32 0x360894A13BA1A3210667C828492DB98DCA3E2076CC3735A920A3CA505D382BBC PUSH1 0x0 SHL DUP2 EQ PUSH2 0xCFE JUMPI DUP1 PUSH1 0x40 MLOAD PUSH32 0xAA1D49A400000000000000000000000000000000000000000000000000000000 DUP2 MSTORE PUSH1 0x4 ADD PUSH2 0xCF5 SWAP2 SWAP1 PUSH2 0x17BC JUMP JUMPDEST PUSH1 0x40 MLOAD DUP1 SWAP2 SUB SWAP1 REVERT JUMPDEST PUSH2 0xD08 DUP4 DUP4 PUSH2 0xFE3 JUMP JUMPDEST POP POP POP JUMP JUMPDEST PUSH32 0x0 PUSH20 0xFFFFFFFFFFFFFFFFFFFFFFFFFFFFFFFFFFFFFFFF AND ADDRESS PUSH20 0xFFFFFFFFFFFFFFFFFFFFFFFFFFFFFFFFFFFFFFFF AND EQ PUSH2 0xD92 JUMPI PUSH1 0x40 MLOAD PUSH32 0xE07C8DBA00000000000000000000000000000000000000000000000000000000 DUP2 MSTORE PUSH1 0x4 ADD PUSH1 0x40 MLOAD DUP1 SWAP2 SUB SWAP1 REVERT JUMPDEST JUMP JUMPDEST PUSH1 0x0 PUSH2 0xD9E PUSH2 0xE6B JUMP JUMPDEST SWAP1 POP PUSH1 0x0 DUP2 PUSH1 0x0 ADD PUSH1 0x0 SWAP1 SLOAD SWAP1 PUSH2 0x100 EXP SWAP1 DIV PUSH20 0xFFFFFFFFFFFFFFFFFFFFFFFFFFFFFFFFFFFFFFFF AND SWAP1 POP DUP3 DUP3 PUSH1 0x0 ADD PUSH1 0x0 PUSH2 0x100 EXP DUP2 SLOAD DUP2 PUSH20 0xFFFFFFFFFFFFFFFFFFFFFFFFFFFFFFFFFFFFFFFF MUL NOT AND SWAP1 DUP4 PUSH20 0xFFFFFFFFFFFFFFFFFFFFFFFFFFFFFFFFFFFFFFFF AND MUL OR SWAP1 SSTORE POP DUP3 PUSH20 0xFFFFFFFFFFFFFFFFFFFFFFFFFFFFFFFFFFFFFFFF AND DUP2 PUSH20 0xFFFFFFFFFFFFFFFFFFFFFFFFFFFFFFFFFFFFFFFF AND PUSH32 0x8BE0079C531659141344CD1FD0A4F28419497F9722A3DAAFE3B4186F6B6457E0 PUSH1 0x40 MLOAD PUSH1 0x40 MLOAD DUP1 SWAP2 SUB SWAP1 LOG3 POP POP POP JUMP JUMPDEST PUSH1 0x0 PUSH32 0x9016D09D72D40FDAE2FD8CEAC6B6234C7706214FD39C1CD1E609A0528C199300 SWAP1 POP SWAP1 JUMP JUMPDEST PUSH1 0x0 CALLER SWAP1 POP SWAP1 JUMP JUMPDEST PUSH1 0x0 PUSH32 0xF0C57E16840DF040F15088DC2F81FE391C3923BEC73E23A9662EFC9C229C6A00 PUSH1 0x0 SHL SWAP1 POP SWAP1 JUMP JUMPDEST PUSH2 0xECE PUSH2 0x1056 JUMP JUMPDEST PUSH2 0xF04 JUMPI PUSH1 0x40 MLOAD PUSH32 0xD7E6BCF800000000000000000000000000000000000000000000000000000000 DUP2 MSTORE PUSH1 0x4 ADD PUSH1 0x40 MLOAD DUP1 SWAP2 SUB SWAP1 REVERT JUMPDEST JUMP JUMPDEST PUSH2 0xF0E PUSH2 0xEC6 JUMP JUMPDEST PUSH1 0x0 PUSH20 0xFFFFFFFFFFFFFFFFFFFFFFFFFFFFFFFFFFFFFFFF AND DUP2 PUSH20 0xFFFFFFFFFFFFFFFFFFFFFFFFFFFFFFFFFFFFFFFF AND SUB PUSH2 0xF80 JUMPI PUSH1 0x0 PUSH1 0x40 MLOAD PUSH32 0x1E4FBDF700000000000000000000000000000000000000000000000000000000 DUP2 MSTORE PUSH1 0x4 ADD PUSH2 0xF77 SWAP2 SWAP1 PUSH2 0x17E6 JUMP JUMPDEST PUSH1 0x40 MLOAD DUP1 SWAP2 SUB SWAP1 REVERT JUMPDEST PUSH2 0xF89 DUP2 PUSH2 0xD94 JUMP JUMPDEST POP JUMP JUMPDEST PUSH1 0x0 PUSH2 0xFBA PUSH32 0x360894A13BA1A3210667C828492DB98DCA3E2076CC3735A920A3CA505D382BBC PUSH1 0x0 SHL PUSH2 0x1076 JUMP JUMPDEST PUSH1 0x0 ADD PUSH1 0x0 SWAP1 SLOAD SWAP1 PUSH2 0x100 EXP SWAP1 DIV PUSH20 0xFFFFFFFFFFFFFFFFFFFFFFFFFFFFFFFFFFFFFFFF AND SWAP1 POP SWAP1 JUMP JUMPDEST PUSH2 0xFEC DUP3 PUSH2 0x1080 JUMP JUMPDEST DUP2 PUSH20 0xFFFFFFFFFFFFFFFFFFFFFFFFFFFFFFFFFFFFFFFF AND PUSH32 0xBC7CD75A20EE27FD9ADEBAB32041F755214DBC6BFFA90CC0225B39DA2E5C2D3B PUSH1 0x40 MLOAD PUSH1 0x40 MLOAD DUP1 SWAP2 SUB SWAP1 LOG2 PUSH1 0x0 DUP2 MLOAD GT ISZERO PUSH2 0x1049 JUMPI PUSH2 0x1043 DUP3 DUP3 PUSH2 0x114D JUMP JUMPDEST POP PUSH2 0x1052 JUMP JUMPDEST PUSH2 0x1051 PUSH2 0x11D1 JUMP JUMPDEST JUMPDEST POP POP JUMP JUMPDEST PUSH1 0x0 PUSH2 0x1060 PUSH2 0xACB JUMP JUMPDEST PUSH1 0x0 ADD PUSH1 0x8 SWAP1 SLOAD SWAP1 PUSH2 0x100 EXP SWAP1 DIV PUSH1 0xFF AND SWAP1 POP SWAP1 JUMP JUMPDEST PUSH1 0x0 DUP2 SWAP1 POP SWAP2 SWAP1 POP JUMP JUMPDEST PUSH1 0x0 DUP2 PUSH20 0xFFFFFFFFFFFFFFFFFFFFFFFFFFFFFFFFFFFFFFFF AND EXTCODESIZE SUB PUSH2 0x10DC JUMPI DUP1 PUSH1 0x40 MLOAD PUSH32 0x4C9C8CE300000000000000000000000000000000000000000000000000000000 DUP2 MSTORE PUSH1 0x4 ADD PUSH2 0x10D3 SWAP2 SWAP1 PUSH2 0x17E6 JUMP JUMPDEST PUSH1 0x40 MLOAD DUP1 SWAP2 SUB SWAP1 REVERT JUMPDEST DUP1 PUSH2 0x1109 PUSH32 0x360894A13BA1A3210667C828492DB98DCA3E2076CC3735A920A3CA505D382BBC PUSH1 0x0 SHL PUSH2 0x1076 JUMP JUMPDEST PUSH1 0x0 ADD PUSH1 0x0 PUSH2 0x100 EXP DUP2 SLOAD DUP2 PUSH20 0xFFFFFFFFFFFFFFFFFFFFFFFFFFFFFFFFFFFFFFFF MUL NOT AND SWAP1 DUP4 PUSH20 0xFFFFFFFFFFFFFFFFFFFFFFFFFFFFFFFFFFFFFFFF AND MUL OR SWAP1 SSTORE POP POP JUMP JUMPDEST PUSH1 0x60 PUSH1 0x0 DUP1 DUP5 PUSH20 0xFFFFFFFFFFFFFFFFFFFFFFFFFFFFFFFFFFFFFFFF AND DUP5 PUSH1 0x40 MLOAD PUSH2 0x1177 SWAP2 SWAP1 PUSH2 0x1B1A JUMP JUMPDEST PUSH1 0x0 PUSH1 0x40 MLOAD DUP1 DUP4 SUB DUP2 DUP6 GAS DELEGATECALL SWAP2 POP POP RETURNDATASIZE DUP1 PUSH1 0x0 DUP2 EQ PUSH2 0x11B2 JUMPI PUSH1 0x40 MLOAD SWAP2 POP PUSH1 0x1F NOT PUSH1 0x3F RETURNDATASIZE ADD AND DUP3 ADD PUSH1 0x40 MSTORE RETURNDATASIZE DUP3 MSTORE RETURNDATASIZE PUSH1 0x0 PUSH1 0x20 DUP5 ADD RETURNDATACOPY PUSH2 0x11B7 JUMP JUMPDEST PUSH1 0x60 SWAP2 POP JUMPDEST POP SWAP2 POP SWAP2 POP PUSH2 0x11C7 DUP6 DUP4 DUP4 PUSH2 0x120E JUMP JUMPDEST SWAP3 POP POP POP SWAP3 SWAP2 POP POP JUMP JUMPDEST PUSH1 0x0 CALLVALUE GT ISZERO PUSH2 0x120C JUMPI PUSH1 0x40 MLOAD PUSH32 0xB398979F00000000000000000000000000000000000000000000000000000000 DUP2 MSTORE PUSH1 0x4 ADD PUSH1 0x40 MLOAD DUP1 SWAP2 SUB SWAP1 REVERT JUMPDEST JUMP JUMPDEST PUSH1 0x60 DUP3 PUSH2 0x1223 JUMPI PUSH2 0x121E DUP3 PUSH2 0x129D JUMP JUMPDEST PUSH2 0x1295 JUMP JUMPDEST PUSH1 0x0 DUP3 MLOAD EQ DUP1 ISZERO PUSH2 0x124B JUMPI POP PUSH1 0x0 DUP5 PUSH20 0xFFFFFFFFFFFFFFFFFFFFFFFFFFFFFFFFFFFFFFFF AND EXTCODESIZE EQ JUMPDEST ISZERO PUSH2 0x128D JUMPI DUP4 PUSH1 0x40 MLOAD PUSH32 0x9996B31500000000000000000000000000000000000000000000000000000000 DUP2 MSTORE PUSH1 0x4 ADD PUSH2 0x1284 SWAP2 SWAP1 PUSH2 0x17E6 JUMP JUMPDEST PUSH1 0x40 MLOAD DUP1 SWAP2 SUB SWAP1 REVERT JUMPDEST DUP2 SWAP1 POP PUSH2 0x1296 JUMP JUMPDEST JUMPDEST SWAP4 SWAP3 POP POP POP JUMP JUMPDEST PUSH1 0x0 DUP2 MLOAD GT ISZERO PUSH2 0x12B0 JUMPI DUP1 MLOAD DUP1 DUP3 PUSH1 0x20 ADD REVERT JUMPDEST PUSH1 0x40 MLOAD PUSH32 0xD6BDA27500000000000000000000000000000000000000000000000000000000 DUP2 MSTORE PUSH1 0x4 ADD PUSH1 0x40 MLOAD DUP1 SWAP2 SUB SWAP1 REVERT JUMPDEST PUSH1 0x0 PUSH20 0xFFFFFFFFFFFFFFFFFFFFFFFFFFFFFFFFFFFFFFFF DUP3 AND SWAP1 POP SWAP2 SWAP1 POP JUMP JUMPDEST PUSH1 0x0 DUP2 SWAP1 POP SWAP2 SWAP1 POP JUMP JUMPDEST PUSH1 0x0 PUSH2 0x1327 PUSH2 0x1322 PUSH2 0x131D DUP5 PUSH2 0x12E2 JUMP JUMPDEST PUSH2 0x1302 JUMP JUMPDEST PUSH2 0x12E2 JUMP JUMPDEST SWAP1 POP SWAP2 SWAP1 POP JUMP JUMPDEST PUSH1 0x0 PUSH2 0x1339 DUP3 PUSH2 0x130C JUMP JUMPDEST SWAP1 POP SWAP2 SWAP1 POP JUMP JUMPDEST PUSH1 0x0 PUSH2 0x134B DUP3 PUSH2 0x132E JUMP JUMPDEST SWAP1 POP SWAP2 SWAP1 POP JUMP JUMPDEST PUSH2 0x135B DUP2 PUSH2 0x1340 JUMP JUMPDEST DUP3 MSTORE POP POP JUMP JUMPDEST PUSH1 0x0 PUSH1 0x20 DUP3 ADD SWAP1 POP PUSH2 0x1376 PUSH1 0x0 DUP4 ADD DUP5 PUSH2 0x1352 JUMP JUMPDEST SWAP3 SWAP2 POP POP JUMP JUMPDEST PUSH1 0x0 PUSH1 0x40 MLOAD SWAP1 POP SWAP1 JUMP JUMPDEST PUSH1 0x0 DUP1 REVERT JUMPDEST PUSH1 0x0 DUP1 REVERT JUMPDEST PUSH1 0x0 PUSH4 0xFFFFFFFF DUP3 AND SWAP1 POP SWAP2 SWAP1 POP JUMP JUMPDEST PUSH2 0x13A9 DUP2 PUSH2 0x1390 JUMP JUMPDEST DUP2 EQ PUSH2 0x13B4 JUMPI PUSH1 0x0 DUP1 REVERT JUMPDEST POP JUMP JUMPDEST PUSH1 0x0 DUP2 CALLDATALOAD SWAP1 POP PUSH2 0x13C6 DUP2 PUSH2 0x13A0 JUMP JUMPDEST SWAP3 SWAP2 POP POP JUMP JUMPDEST PUSH1 0x0 DUP1 REVERT JUMPDEST PUSH1 0x0 DUP1 REVERT JUMPDEST PUSH1 0x0 DUP1 REVERT JUMPDEST PUSH1 0x0 DUP1 DUP4 PUSH1 0x1F DUP5 ADD SLT PUSH2 0x13F1 JUMPI PUSH2 0x13F0 PUSH2 0x13CC JUMP JUMPDEST JUMPDEST DUP3 CALLDATALOAD SWAP1 POP PUSH8 0xFFFFFFFFFFFFFFFF DUP2 GT ISZERO PUSH2 0x140E JUMPI PUSH2 0x140D PUSH2 0x13D1 JUMP JUMPDEST JUMPDEST PUSH1 0x20 DUP4 ADD SWAP2 POP DUP4 PUSH1 0x1 DUP3 MUL DUP4 ADD GT ISZERO PUSH2 0x142A JUMPI PUSH2 0x1429 PUSH2 0x13D6 JUMP JUMPDEST JUMPDEST SWAP3 POP SWAP3 SWAP1 POP JUMP JUMPDEST PUSH1 0x0 DUP1 DUP4 PUSH1 0x1F DUP5 ADD SLT PUSH2 0x1447 JUMPI PUSH2 0x1446 PUSH2 0x13CC JUMP JUMPDEST JUMPDEST DUP3 CALLDATALOAD SWAP1 POP PUSH8 0xFFFFFFFFFFFFFFFF DUP2 GT ISZERO PUSH2 0x1464 JUMPI PUSH2 0x1463 PUSH2 0x13D1 JUMP JUMPDEST JUMPDEST PUSH1 0x20 DUP4 ADD SWAP2 POP DUP4 PUSH1 0x1 DUP3 MUL DUP4 ADD GT ISZERO PUSH2 0x1480 JUMPI PUSH2 0x147F PUSH2 0x13D6 JUMP JUMPDEST JUMPDEST SWAP3 POP SWAP3 SWAP1 POP JUMP JUMPDEST PUSH1 0x0 DUP1 PUSH1 0x0 DUP1 PUSH1 0x0 PUSH1 0x60 DUP7 DUP9 SUB SLT ISZERO PUSH2 0x14A3 JUMPI PUSH2 0x14A2 PUSH2 0x1386 JUMP JUMPDEST JUMPDEST PUSH1 0x0 PUSH2 0x14B1 DUP9 DUP3 DUP10 ADD PUSH2 0x13B7 JUMP JUMPDEST SWAP6 POP POP PUSH1 0x20 DUP7 ADD CALLDATALOAD PUSH8 0xFFFFFFFFFFFFFFFF DUP2 GT ISZERO PUSH2 0x14D2 JUMPI PUSH2 0x14D1 PUSH2 0x138B JUMP JUMPDEST JUMPDEST PUSH2 0x14DE DUP9 DUP3 DUP10 ADD PUSH2 0x13DB JUMP JUMPDEST SWAP5 POP SWAP5 POP POP PUSH1 0x40 DUP7 ADD CALLDATALOAD PUSH8 0xFFFFFFFFFFFFFFFF DUP2 GT ISZERO PUSH2 0x1501 JUMPI PUSH2 0x1500 PUSH2 0x138B JUMP JUMPDEST JUMPDEST PUSH2 0x150D DUP9 DUP3 DUP10 ADD PUSH2 0x1431 JUMP JUMPDEST SWAP3 POP SWAP3 POP POP SWAP3 SWAP6 POP SWAP3 SWAP6 SWAP1 SWAP4 POP JUMP JUMPDEST PUSH1 0x0 DUP2 SWAP1 POP SWAP2 SWAP1 POP JUMP JUMPDEST PUSH2 0x152F DUP2 PUSH2 0x151C JUMP JUMPDEST DUP2 EQ PUSH2 0x153A JUMPI PUSH1 0x0 DUP1 REVERT JUMPDEST POP JUMP JUMPDEST PUSH1 0x0 DUP2 CALLDATALOAD SWAP1 POP PUSH2 0x154C DUP2 PUSH2 0x1526 JUMP JUMPDEST SWAP3 SWAP2 POP POP JUMP JUMPDEST PUSH1 0x0 DUP1 PUSH1 0x40 DUP4 DUP6 SUB SLT ISZERO PUSH2 0x1569 JUMPI PUSH2 0x1568 PUSH2 0x1386 JUMP JUMPDEST JUMPDEST PUSH1 0x0 PUSH2 0x1577 DUP6 DUP3 DUP7 ADD PUSH2 0x13B7 JUMP JUMPDEST SWAP3 POP POP PUSH1 0x20 PUSH2 0x1588 DUP6 DUP3 DUP7 ADD PUSH2 0x153D JUMP JUMPDEST SWAP2 POP POP SWAP3 POP SWAP3 SWAP1 POP JUMP JUMPDEST PUSH1 0x0 PUSH2 0x159D DUP3 PUSH2 0x12E2 JUMP JUMPDEST SWAP1 POP SWAP2 SWAP1 POP JUMP JUMPDEST PUSH2 0x15AD DUP2 PUSH2 0x1592 JUMP JUMPDEST DUP2 EQ PUSH2 0x15B8 JUMPI PUSH1 0x0 DUP1 REVERT JUMPDEST POP JUMP JUMPDEST PUSH1 0x0 DUP2 CALLDATALOAD SWAP1 POP PUSH2 0x15CA DUP2 PUSH2 0x15A4 JUMP JUMPDEST SWAP3 SWAP2 POP POP JUMP JUMPDEST PUSH1 0x0 DUP1 PUSH1 0x40 DUP4 DUP6 SUB SLT ISZERO PUSH2 0x15E7 JUMPI PUSH2 0x15E6 PUSH2 0x1386 JUMP JUMPDEST JUMPDEST PUSH1 0x0 PUSH2 0x15F5 DUP6 DUP3 DUP7 ADD PUSH2 0x15BB JUMP JUMPDEST SWAP3 POP POP PUSH1 0x20 PUSH2 0x1606 DUP6 DUP3 DUP7 ADD PUSH2 0x15BB JUMP JUMPDEST SWAP2 POP POP SWAP3 POP SWAP3 SWAP1 POP JUMP JUMPDEST PUSH1 0x0 DUP1 REVERT JUMPDEST PUSH1 0x0 PUSH1 0x1F NOT PUSH1 0x1F DUP4 ADD AND SWAP1 POP SWAP2 SWAP1 POP JUMP JUMPDEST PUSH32 0x4E487B7100000000000000000000000000000000000000000000000000000000 PUSH1 0x0 MSTORE PUSH1 0x41 PUSH1 0x4 MSTORE PUSH1 0x24 PUSH1 0x0 REVERT JUMPDEST PUSH2 0x165E DUP3 PUSH2 0x1615 JUMP JUMPDEST DUP2 ADD DUP2 DUP2 LT PUSH8 0xFFFFFFFFFFFFFFFF DUP3 GT OR ISZERO PUSH2 0x167D JUMPI PUSH2 0x167C PUSH2 0x1626 JUMP JUMPDEST JUMPDEST DUP1 PUSH1 0x40 MSTORE POP POP POP JUMP JUMPDEST PUSH1 0x0 PUSH2 0x1690 PUSH2 0x137C JUMP JUMPDEST SWAP1 POP PUSH2 0x169C DUP3 DUP3 PUSH2 0x1655 JUMP JUMPDEST SWAP2 SWAP1 POP JUMP JUMPDEST PUSH1 0x0 PUSH8 0xFFFFFFFFFFFFFFFF DUP3 GT ISZERO PUSH2 0x16BC JUMPI PUSH2 0x16BB PUSH2 0x1626 JUMP JUMPDEST JUMPDEST PUSH2 0x16C5 DUP3 PUSH2 0x1615 JUMP JUMPDEST SWAP1 POP PUSH1 0x20 DUP2 ADD SWAP1 POP SWAP2 SWAP1 POP JUMP JUMPDEST DUP3 DUP2 DUP4 CALLDATACOPY PUSH1 0x0 DUP4 DUP4 ADD MSTORE POP POP POP JUMP JUMPDEST PUSH1 0x0 PUSH2 0x16F4 PUSH2 0x16EF DUP5 PUSH2 0x16A1 JUMP JUMPDEST PUSH2 0x1686 JUMP JUMPDEST SWAP1 POP DUP3 DUP2 MSTORE PUSH1 0x20 DUP2 ADD DUP5 DUP5 DUP5 ADD GT ISZERO PUSH2 0x1710 JUMPI PUSH2 0x170F PUSH2 0x1610 JUMP JUMPDEST JUMPDEST PUSH2 0x171B DUP5 DUP3 DUP6 PUSH2 0x16D2 JUMP JUMPDEST POP SWAP4 SWAP3 POP POP POP JUMP JUMPDEST PUSH1 0x0 DUP3 PUSH1 0x1F DUP4 ADD SLT PUSH2 0x1738 JUMPI PUSH2 0x1737 PUSH2 0x13CC JUMP JUMPDEST JUMPDEST DUP2 CALLDATALOAD PUSH2 0x1748 DUP5 DUP3 PUSH1 0x20 DUP7 ADD PUSH2 0x16E1 JUMP JUMPDEST SWAP2 POP POP SWAP3 SWAP2 POP POP JUMP JUMPDEST PUSH1 0x0 DUP1 PUSH1 0x40 DUP4 DUP6 SUB SLT ISZERO PUSH2 0x1768 JUMPI PUSH2 0x1767 PUSH2 0x1386 JUMP JUMPDEST JUMPDEST PUSH1 0x0 PUSH2 0x1776 DUP6 DUP3 DUP7 ADD PUSH2 0x15BB JUMP JUMPDEST SWAP3 POP POP PUSH1 0x20 DUP4 ADD CALLDATALOAD PUSH8 0xFFFFFFFFFFFFFFFF DUP2 GT ISZERO PUSH2 0x1797 JUMPI PUSH2 0x1796 PUSH2 0x138B JUMP JUMPDEST JUMPDEST PUSH2 0x17A3 DUP6 DUP3 DUP7 ADD PUSH2 0x1723 JUMP JUMPDEST SWAP2 POP POP SWAP3 POP SWAP3 SWAP1 POP JUMP JUMPDEST PUSH2 0x17B6 DUP2 PUSH2 0x151C JUMP JUMPDEST DUP3 MSTORE POP POP JUMP JUMPDEST PUSH1 0x0 PUSH1 0x20 DUP3 ADD SWAP1 POP PUSH2 0x17D1 PUSH1 0x0 DUP4 ADD DUP5 PUSH2 0x17AD JUMP JUMPDEST SWAP3 SWAP2 POP POP JUMP JUMPDEST PUSH2 0x17E0 DUP2 PUSH2 0x1592 JUMP JUMPDEST DUP3 MSTORE POP POP JUMP JUMPDEST PUSH1 0x0 PUSH1 0x20 DUP3 ADD SWAP1 POP PUSH2 0x17FB PUSH1 0x0 DUP4 ADD DUP5 PUSH2 0x17D7 JUMP JUMPDEST SWAP3 SWAP2 POP POP JUMP JUMPDEST PUSH1 0x0 PUSH1 0x20 DUP3 DUP5 SUB SLT ISZERO PUSH2 0x1817 JUMPI PUSH2 0x1816 PUSH2 0x1386 JUMP JUMPDEST JUMPDEST PUSH1 0x0 PUSH2 0x1825 DUP5 DUP3 DUP6 ADD PUSH2 0x15BB JUMP JUMPDEST SWAP2 POP POP SWAP3 SWAP2 POP POP JUMP JUMPDEST PUSH1 0x0 DUP2 MLOAD SWAP1 POP SWAP2 SWAP1 POP JUMP JUMPDEST PUSH1 0x0 DUP3 DUP3 MSTORE PUSH1 0x20 DUP3 ADD SWAP1 POP SWAP3 SWAP2 POP POP JUMP JUMPDEST PUSH1 0x0 JUMPDEST DUP4 DUP2 LT ISZERO PUSH2 0x1868 JUMPI DUP1 DUP3 ADD MLOAD DUP2 DUP5 ADD MSTORE PUSH1 0x20 DUP2 ADD SWAP1 POP PUSH2 0x184D JUMP JUMPDEST PUSH1 0x0 DUP5 DUP5 ADD MSTORE POP POP POP POP JUMP JUMPDEST PUSH1 0x0 PUSH2 0x187F DUP3 PUSH2 0x182E JUMP JUMPDEST PUSH2 0x1889 DUP2 DUP6 PUSH2 0x1839 JUMP JUMPDEST SWAP4 POP PUSH2 0x1899 DUP2 DUP6 PUSH1 0x20 DUP7 ADD PUSH2 0x184A JUMP JUMPDEST PUSH2 0x18A2 DUP2 PUSH2 0x1615 JUMP JUMPDEST DUP5 ADD SWAP2 POP POP SWAP3 SWAP2 POP POP JUMP JUMPDEST PUSH1 0x0 PUSH1 0x20 DUP3 ADD SWAP1 POP DUP2 DUP2 SUB PUSH1 0x0 DUP4 ADD MSTORE PUSH2 0x18C7 DUP2 DUP5 PUSH2 0x1874 JUMP JUMPDEST SWAP1 POP SWAP3 SWAP2 POP POP JUMP JUMPDEST PUSH32 0x50726F66696C6553656E646572206E6F74207365740000000000000000000000 PUSH1 0x0 DUP3 ADD MSTORE POP JUMP JUMPDEST PUSH1 0x0 PUSH2 0x1905 PUSH1 0x15 DUP4 PUSH2 0x1839 JUMP JUMPDEST SWAP2 POP PUSH2 0x1910 DUP3 PUSH2 0x18CF JUMP JUMPDEST PUSH1 0x20 DUP3 ADD SWAP1 POP SWAP2 SWAP1 POP JUMP JUMPDEST PUSH1 0x0 PUSH1 0x20 DUP3 ADD SWAP1 POP DUP2 DUP2 SUB PUSH1 0x0 DUP4 ADD MSTORE PUSH2 0x1934 DUP2 PUSH2 0x18F8 JUMP JUMPDEST SWAP1 POP SWAP2 SWAP1 POP JUMP JUMPDEST PUSH2 0x1944 DUP2 PUSH2 0x1390 JUMP JUMPDEST DUP3 MSTORE POP POP JUMP JUMPDEST PUSH1 0x0 PUSH2 0x1956 DUP4 DUP6 PUSH2 0x1839 JUMP JUMPDEST SWAP4 POP PUSH2 0x1963 DUP4 DUP6 DUP5 PUSH2 0x16D2 JUMP JUMPDEST PUSH2 0x196C DUP4 PUSH2 0x1615 JUMP JUMPDEST DUP5 ADD SWAP1 POP SWAP4 SWAP3 POP POP POP JUMP JUMPDEST PUSH1 0x0 DUP3 DUP3 MSTORE PUSH1 0x20 DUP3 ADD SWAP1 POP SWAP3 SWAP2 POP POP JUMP JUMPDEST PUSH1 0x0 PUSH2 0x1994 DUP4 DUP6 PUSH2 0x1977 JUMP JUMPDEST SWAP4 POP PUSH2 0x19A1 DUP4 DUP6 DUP5 PUSH2 0x16D2 JUMP JUMPDEST PUSH2 0x19AA DUP4 PUSH2 0x1615 JUMP JUMPDEST DUP5 ADD SWAP1 POP SWAP4 SWAP3 POP POP POP JUMP JUMPDEST PUSH1 0x0 PUSH1 0x60 DUP3 ADD SWAP1 POP PUSH2 0x19CA PUSH1 0x0 DUP4 ADD DUP9 PUSH2 0x193B JUMP JUMPDEST DUP2 DUP2 SUB PUSH1 0x20 DUP4 ADD MSTORE PUSH2 0x19DD DUP2 DUP7 DUP9 PUSH2 0x194A JUMP JUMPDEST SWAP1 POP DUP2 DUP2 SUB PUSH1 0x40 DUP4 ADD MSTORE PUSH2 0x19F2 DUP2 DUP5 DUP7 PUSH2 0x1988 JUMP JUMPDEST SWAP1 POP SWAP7 SWAP6 POP POP POP POP POP POP JUMP JUMPDEST PUSH1 0x0 PUSH1 0x40 DUP3 ADD SWAP1 POP PUSH2 0x1A13 PUSH1 0x0 DUP4 ADD DUP6 PUSH2 0x193B JUMP JUMPDEST PUSH2 0x1A20 PUSH1 0x20 DUP4 ADD DUP5 PUSH2 0x17AD JUMP JUMPDEST SWAP4 SWAP3 POP POP POP JUMP JUMPDEST PUSH1 0x0 DUP2 SWAP1 POP SWAP2 SWAP1 POP JUMP JUMPDEST PUSH1 0x0 PUSH8 0xFFFFFFFFFFFFFFFF DUP3 AND SWAP1 POP SWAP2 SWAP1 POP JUMP JUMPDEST PUSH1 0x0 PUSH2 0x1A60 PUSH2 0x1A5B PUSH2 0x1A56 DUP5 PUSH2 0x1A27 JUMP JUMPDEST PUSH2 0x1302 JUMP JUMPDEST PUSH2 0x1A31 JUMP JUMPDEST SWAP1 POP SWAP2 SWAP1 POP JUMP JUMPDEST PUSH2 0x1A70 DUP2 PUSH2 0x1A45 JUMP JUMPDEST DUP3 MSTORE POP POP JUMP JUMPDEST PUSH1 0x0 PUSH1 0x20 DUP3 ADD SWAP1 POP PUSH2 0x1A8B PUSH1 0x0 DUP4 ADD DUP5 PUSH2 0x1A67 JUMP JUMPDEST SWAP3 SWAP2 POP POP JUMP JUMPDEST PUSH1 0x0 DUP2 MLOAD SWAP1 POP PUSH2 0x1AA0 DUP2 PUSH2 0x1526 JUMP JUMPDEST SWAP3 SWAP2 POP POP JUMP JUMPDEST PUSH1 0x0 PUSH1 0x20 DUP3 DUP5 SUB SLT ISZERO PUSH2 0x1ABC JUMPI PUSH2 0x1ABB PUSH2 0x1386 JUMP JUMPDEST JUMPDEST PUSH1 0x0 PUSH2 0x1ACA DUP5 DUP3 DUP6 ADD PUSH2 0x1A91 JUMP JUMPDEST SWAP2 POP POP SWAP3 SWAP2 POP POP JUMP JUMPDEST PUSH1 0x0 DUP2 MLOAD SWAP1 POP SWAP2 SWAP1 POP JUMP JUMPDEST PUSH1 0x0 DUP2 SWAP1 POP SWAP3 SWAP2 POP POP JUMP JUMPDEST PUSH1 0x0 PUSH2 0x1AF4 DUP3 PUSH2 0x1AD3 JUMP JUMPDEST PUSH2 0x1AFE DUP2 DUP6 PUSH2 0x1ADE JUMP JUMPDEST SWAP4 POP PUSH2 0x1B0E DUP2 DUP6 PUSH1 0x20 DUP7 ADD PUSH2 0x184A JUMP JUMPDEST DUP1 DUP5 ADD SWAP2 POP POP SWAP3 SWAP2 POP POP JUMP JUMPDEST PUSH1 0x0 PUSH2 0x1B26 DUP3 DUP5 PUSH2 0x1AE9 JUMP JUMPDEST SWAP2 POP DUP2 SWAP1 POP SWAP3 SWAP2 POP POP JUMP INVALID LOG2 PUSH5 0x6970667358 0x22 SLT KECCAK256 0x29 PUSH26 0x4019C8D548DEE6E9C5CD4863C019265A6AA236AA63A742DD2139 PUSH21 0x62A72E64736F6C634300081E003300000000000000 "
				},
				"gasEstimates": {
					"creation": {
						"codeDepositCost": "1403000",
						"executionCost": "infinite",
						"totalCost": "infinite"
					},
					"external": {
						"UPGRADE_INTERFACE_VERSION()": "infinite",
						"createProfile(uint32,string,bytes)": "infinite",
						"initialize(address)": "infinite",
						"initialize(address,address)": "infinite",
						"owner()": "2598",
						"profileSender()": "infinite",
						"proxiableUUID()": "infinite",
						"renounceOwnership()": "infinite",
						"setPeer(uint32,bytes32)": "infinite",
						"setProfileSender(address)": "infinite",
						"transferOwnership(address)": "infinite",
						"upgradeToAndCall(address,bytes)": "infinite"
					},
					"internal": {
						"_authorizeUpgrade(address)": "infinite"
					}
				},
				"methodIdentifiers": {
					"UPGRADE_INTERFACE_VERSION()": "ad3cb1cc",
					"createProfile(uint32,string,bytes)": "306e1d95",
					"initialize(address)": "c4d66de8",
					"initialize(address,address)": "485cc955",
					"owner()": "8da5cb5b",
					"profileSender()": "0f0322ad",
					"proxiableUUID()": "52d1902d",
					"renounceOwnership()": "715018a6",
					"setPeer(uint32,bytes32)": "3400288b",
					"setProfileSender(address)": "a6b31389",
					"transferOwnership(address)": "f2fde38b",
					"upgradeToAndCall(address,bytes)": "4f1ef286"
				}
			},
			"storageLayout": {
				"storage": [
					{
						"astId": 1463,
						"contract": "profile-sender-wrapper-uups.sol:ProfileSenderWrapper",
						"label": "profileSender",
						"offset": 0,
						"slot": "0",
						"type": "t_contract(IArbitrumProfileSender)1453"
					}
				],
				"types": {
					"t_contract(IArbitrumProfileSender)1453": {
						"encoding": "inplace",
						"label": "contract IArbitrumProfileSender",
						"numberOfBytes": "20"
					}
				}
			},
			"userdoc": {
				"kind": "user",
				"methods": {},
				"version": 1
			}
		}
	}
}