{
	"profile-with-fee-uups.sol": {
		"LocalOpenWorkV2": {
			"abi": [
				{
					"inputs": [],
					"stateMutability": "nonpayable",
					"type": "constructor"
				},
				{
					"inputs": [
						{
							"internalType": "address",
							"name": "target",
							"type": "address"
						}
					],
					"name": "AddressEmptyCode",
					"type": "error"
				},
				{
					"inputs": [
						{
							"internalType": "address",
							"name": "implementation",
							"type": "address"
						}
					],
					"name": "ERC1967InvalidImplementation",
					"type": "error"
				},
				{
					"inputs": [],
					"name": "ERC1967NonPayable",
					"type": "error"
				},
				{
					"inputs": [],
					"name": "FailedCall",
					"type": "error"
				},
				{
					"inputs": [],
					"name": "InvalidInitialization",
					"type": "error"
				},
				{
					"inputs": [
						{
							"internalType": "bytes32",
							"name": "peer",
							"type": "bytes32"
						}
					],
					"name": "InvalidPeer",
					"type": "error"
				},
				{
					"inputs": [
						{
							"internalType": "uint32",
							"name": "eid",
							"type": "uint32"
						}
					],
					"name": "NoPeer",
					"type": "error"
				},
				{
					"inputs": [],
					"name": "NotInitializing",
					"type": "error"
				},
				{
					"inputs": [],
					"name": "OnlyEndpoint",
					"type": "error"
				},
				{
					"inputs": [
						{
							"internalType": "address",
							"name": "owner",
							"type": "address"
						}
					],
					"name": "OwnableInvalidOwner",
					"type": "error"
				},
				{
					"inputs": [
						{
							"internalType": "address",
							"name": "account",
							"type": "address"
						}
					],
					"name": "OwnableUnauthorizedAccount",
					"type": "error"
				},
				{
					"inputs": [],
					"name": "UUPSUnauthorizedCallContext",
					"type": "error"
				},
				{
					"inputs": [
						{
							"internalType": "bytes32",
							"name": "slot",
							"type": "bytes32"
						}
					],
					"name": "UUPSUnsupportedProxiableUUID",
					"type": "error"
				},
				{
					"anonymous": false,
					"inputs": [
						{
							"indexed": true,
							"internalType": "address",
							"name": "to",
							"type": "address"
						},
						{
							"indexed": false,
							"internalType": "uint256",
							"name": "amount",
							"type": "uint256"
						}
					],
					"name": "FeesWithdrawn",
					"type": "event"
				},
				{
					"anonymous": false,
					"inputs": [
						{
							"indexed": false,
							"internalType": "uint64",
							"name": "version",
							"type": "uint64"
						}
					],
					"name": "Initialized",
					"type": "event"
				},
				{
					"anonymous": false,
					"inputs": [
						{
							"indexed": true,
							"internalType": "address",
							"name": "previousOwner",
							"type": "address"
						},
						{
							"indexed": true,
							"internalType": "address",
							"name": "newOwner",
							"type": "address"
						}
					],
					"name": "OwnershipTransferred",
					"type": "event"
				},
				{
					"anonymous": false,
					"inputs": [
						{
							"indexed": true,
							"internalType": "uint32",
							"name": "eid",
							"type": "uint32"
						},
						{
							"indexed": false,
							"internalType": "bytes32",
							"name": "peer",
							"type": "bytes32"
						}
					],
					"name": "PeerSet",
					"type": "event"
				},
				{
					"anonymous": false,
					"inputs": [
						{
							"indexed": true,
							"internalType": "address",
							"name": "implementation",
							"type": "address"
						}
					],
					"name": "Upgraded",
					"type": "event"
				},
				{
					"anonymous": false,
					"inputs": [
						{
							"indexed": true,
							"internalType": "uint32",
							"name": "dstEid",
							"type": "uint32"
						},
						{
							"indexed": true,
							"internalType": "address",
							"name": "user",
							"type": "address"
						},
						{
							"indexed": false,
							"internalType": "string",
							"name": "name",
							"type": "string"
						},
						{
							"indexed": false,
							"internalType": "uint256",
							"name": "usdtFee",
							"type": "uint256"
						}
					],
					"name": "UserProfileSent",
					"type": "event"
				},
				{
					"inputs": [],
					"name": "UPGRADE_INTERFACE_VERSION",
					"outputs": [
						{
							"internalType": "string",
							"name": "",
							"type": "string"
						}
					],
					"stateMutability": "view",
					"type": "function"
				},
				{
					"inputs": [
						{
							"internalType": "uint32",
							"name": "_dstEid",
							"type": "uint32"
						},
						{
							"internalType": "string",
							"name": "name",
							"type": "string"
						},
						{
							"internalType": "string[]",
							"name": "skills",
							"type": "string[]"
						},
						{
							"internalType": "string",
							"name": "profileHash",
							"type": "string"
						},
						{
							"internalType": "uint256",
							"name": "usdtFee",
							"type": "uint256"
						},
						{
							"internalType": "bytes",
							"name": "_options",
							"type": "bytes"
						}
					],
					"name": "createUserProfile",
					"outputs": [],
					"stateMutability": "payable",
					"type": "function"
				},
				{
					"inputs": [],
					"name": "endpoint",
					"outputs": [
						{
							"internalType": "contract ILayerZeroEndpointV2",
							"name": "",
							"type": "address"
						}
					],
					"stateMutability": "view",
					"type": "function"
				},
				{
					"inputs": [
						{
							"internalType": "address",
							"name": "_endpoint",
							"type": "address"
						},
						{
							"internalType": "address",
							"name": "_owner",
							"type": "address"
						},
						{
							"internalType": "address",
							"name": "_usdToken",
							"type": "address"
						}
					],
					"name": "initialize",
					"outputs": [],
					"stateMutability": "nonpayable",
					"type": "function"
				},
				{
					"inputs": [
						{
							"components": [
								{
									"internalType": "uint32",
									"name": "srcEid",
									"type": "uint32"
								},
								{
									"internalType": "bytes32",
									"name": "sender",
									"type": "bytes32"
								},
								{
									"internalType": "uint64",
									"name": "nonce",
									"type": "uint64"
								}
							],
							"internalType": "struct Origin",
							"name": "_origin",
							"type": "tuple"
						},
						{
							"internalType": "bytes32",
							"name": "_guid",
							"type": "bytes32"
						},
						{
							"internalType": "bytes",
							"name": "_message",
							"type": "bytes"
						},
						{
							"internalType": "address",
							"name": "_executor",
							"type": "address"
						},
						{
							"internalType": "bytes",
							"name": "_extraData",
							"type": "bytes"
						}
					],
					"name": "lzReceive",
					"outputs": [],
					"stateMutability": "payable",
					"type": "function"
				},
				{
					"inputs": [],
					"name": "owner",
					"outputs": [
						{
							"internalType": "address",
							"name": "",
							"type": "address"
						}
					],
					"stateMutability": "view",
					"type": "function"
				},
				{
					"inputs": [
						{
							"internalType": "uint32",
							"name": "",
							"type": "uint32"
						}
					],
					"name": "peers",
					"outputs": [
						{
							"internalType": "bytes32",
							"name": "",
							"type": "bytes32"
						}
					],
					"stateMutability": "view",
					"type": "function"
				},
				{
					"inputs": [],
					"name": "proxiableUUID",
					"outputs": [
						{
							"internalType": "bytes32",
							"name": "",
							"type": "bytes32"
						}
					],
					"stateMutability": "view",
					"type": "function"
				},
				{
					"inputs": [
						{
							"internalType": "uint32",
							"name": "_dstEid",
							"type": "uint32"
						},
						{
							"internalType": "string",
							"name": "name",
							"type": "string"
						},
						{
							"internalType": "string[]",
							"name": "skills",
							"type": "string[]"
						},
						{
							"internalType": "string",
							"name": "profileHash",
							"type": "string"
						},
						{
							"internalType": "bytes",
							"name": "_options",
							"type": "bytes"
						}
					],
					"name": "quoteCreateUserProfile",
					"outputs": [
						{
							"components": [
								{
									"internalType": "uint256",
									"name": "nativeFee",
									"type": "uint256"
								},
								{
									"internalType": "uint256",
									"name": "lzTokenFee",
									"type": "uint256"
								}
							],
							"internalType": "struct MessagingFee",
							"name": "",
							"type": "tuple"
						}
					],
					"stateMutability": "view",
					"type": "function"
				},
				{
					"inputs": [],
					"name": "renounceOwnership",
					"outputs": [],
					"stateMutability": "nonpayable",
					"type": "function"
				},
				{
					"inputs": [
						{
							"internalType": "uint32",
							"name": "_eid",
							"type": "uint32"
						},
						{
							"internalType": "bytes32",
							"name": "_peer",
							"type": "bytes32"
						}
					],
					"name": "setPeer",
					"outputs": [],
					"stateMutability": "nonpayable",
					"type": "function"
				},
				{
					"inputs": [
						{
							"internalType": "address",
							"name": "newOwner",
							"type": "address"
						}
					],
					"name": "transferOwnership",
					"outputs": [],
					"stateMutability": "nonpayable",
					"type": "function"
				},
				{
					"inputs": [
						{
							"internalType": "address",
							"name": "newImplementation",
							"type": "address"
						},
						{
							"internalType": "bytes",
							"name": "data",
							"type": "bytes"
						}
					],
					"name": "upgradeToAndCall",
					"outputs": [],
					"stateMutability": "payable",
					"type": "function"
				},
				{
					"inputs": [],
					"name": "usdToken",
					"outputs": [
						{
							"internalType": "contract IERC20",
							"name": "",
							"type": "address"
						}
					],
					"stateMutability": "view",
					"type": "function"
				},
				{
					"inputs": [],
					"name": "version",
					"outputs": [
						{
							"internalType": "string",
							"name": "",
							"type": "string"
						}
					],
					"stateMutability": "pure",
					"type": "function"
				},
				{
					"inputs": [
						{
							"internalType": "address",
							"name": "to",
							"type": "address"
						},
						{
							"internalType": "uint256",
							"name": "amount",
							"type": "uint256"
						}
					],
					"name": "withdrawFees",
					"outputs": [],
					"stateMutability": "nonpayable",
					"type": "function"
				},
				{
					"stateMutability": "payable",
					"type": "receive"
				}
			],
			"devdoc": {
				"details": "UUPS Upgradeable contract for user profile creation with USDT fees",
				"errors": {
					"AddressEmptyCode(address)": [
						{
							"details": "There's no code at `target` (it is not a contract)."
						}
					],
					"ERC1967InvalidImplementation(address)": [
						{
							"details": "The `implementation` of the proxy is invalid."
						}
					],
					"ERC1967NonPayable()": [
						{
							"details": "An upgrade function sees `msg.value > 0` that may be lost."
						}
					],
					"FailedCall()": [
						{
							"details": "A call to an address target failed. The target may have reverted."
						}
					],
					"InvalidInitialization()": [
						{
							"details": "The contract is already initialized."
						}
					],
					"NotInitializing()": [
						{
							"details": "The contract is not initializing."
						}
					],
					"OwnableInvalidOwner(address)": [
						{
							"details": "The owner is not a valid owner account. (eg. `address(0)`)"
						}
					],
					"OwnableUnauthorizedAccount(address)": [
						{
							"details": "The caller account is not authorized to perform an operation."
						}
					],
					"UUPSUnauthorizedCallContext()": [
						{
							"details": "The call is from an unauthorized context."
						}
					],
					"UUPSUnsupportedProxiableUUID(bytes32)": [
						{
							"details": "The storage `slot` is unsupported as a UUID."
						}
					]
				},
				"events": {
					"Initialized(uint64)": {
						"details": "Triggered when the contract has been initialized or reinitialized."
					},
					"Upgraded(address)": {
						"details": "Emitted when the implementation is upgraded."
					}
				},
				"kind": "dev",
				"methods": {
					"constructor": {
						"custom:oz-upgrades-unsafe-allow": "constructor"
					},
					"owner()": {
						"details": "Returns the address of the current owner."
					},
					"proxiableUUID()": {
						"details": "Implementation of the ERC-1822 {proxiableUUID} function. This returns the storage slot used by the implementation. It is used to validate the implementation's compatibility when performing an upgrade. IMPORTANT: A proxy pointing at a proxiable contract should not be considered proxiable itself, because this risks bricking a proxy that upgrades to it, by delegating to itself until out of gas. Thus it is critical that this function revert if invoked through a proxy. This is guaranteed by the `notDelegated` modifier."
					},
					"renounceOwnership()": {
						"details": "Leaves the contract without owner. It will not be possible to call `onlyOwner` functions. Can only be called by the current owner. NOTE: Renouncing ownership will leave the contract without an owner, thereby disabling any functionality that is only available to the owner."
					},
					"transferOwnership(address)": {
						"details": "Transfers ownership of the contract to a new account (`newOwner`). Can only be called by the current owner."
					},
					"upgradeToAndCall(address,bytes)": {
						"custom:oz-upgrades-unsafe-allow-reachable": "delegatecall",
						"details": "Upgrade the implementation of the proxy to `newImplementation`, and subsequently execute the function call encoded in `data`. Calls {_authorizeUpgrade}. Emits an {Upgraded} event."
					}
				},
				"title": "LocalOpenWorkV2",
				"version": 1
			},
			"evm": {
				"assembly": "    /* \"profile-with-fee-uups.sol\":492:5463  contract LocalOpenWorkV2 is BaseLayerZeroUpgradeable, ReentrancyGuardUpgradeable {... */\n  mstore(0x40, 0xa0)\n    /* \"@openzeppelin/contracts-upgradeable/proxy/utils/UUPSUpgradeable.sol\":1171:1175  this */\n  address\n    /* \"@openzeppelin/contracts-upgradeable/proxy/utils/UUPSUpgradeable.sol\":1128:1176  address private immutable __self = address(this) */\n  0x80\n  mstore\n    /* \"profile-with-fee-uups.sol\":1628:1681  constructor() {... */\n  callvalue\n  dup1\n  iszero\n  tag_1\n  jumpi\n  0x00\n  dup1\n  revert\ntag_1:\n  pop\n    /* \"profile-with-fee-uups.sol\":1652:1674  _disableInitializers() */\n  tag_4\n    /* \"profile-with-fee-uups.sol\":1652:1672  _disableInitializers */\n  tag_5\n    /* \"profile-with-fee-uups.sol\":1652:1674  _disableInitializers() */\n  jump\t// in\ntag_4:\n    /* \"profile-with-fee-uups.sol\":492:5463  contract LocalOpenWorkV2 is BaseLayerZeroUpgradeable, ReentrancyGuardUpgradeable {... */\n  jump(tag_18)\n    /* \"@openzeppelin/contracts-upgradeable/proxy/utils/Initializable.sol\":7709:8131  function _disableInitializers() internal virtual {... */\ntag_5:\n    /* \"@openzeppelin/contracts-upgradeable/proxy/utils/Initializable.sol\":3147:3213  0xf0c57e16840df040f15088dc2f81fe391c3923bec73e23a9662efc9c229c6a00 */\n  0xf0c57e16840df040f15088dc2f81fe391c3923bec73e23a9662efc9c229c6a00\n    /* \"@openzeppelin/contracts-upgradeable/proxy/utils/Initializable.sol\":7898:7913  $._initializing */\n  dup1\n  sload\n  0x010000000000000000\n  swap1\n  div\n  0xff\n  and\n    /* \"@openzeppelin/contracts-upgradeable/proxy/utils/Initializable.sol\":7894:7970  if ($._initializing) {... */\n  iszero\n  tag_10\n  jumpi\n    /* \"@openzeppelin/contracts-upgradeable/proxy/utils/Initializable.sol\":7936:7959  InvalidInitialization() */\n  mload(0x40)\n  shl(0xe0, 0xf92ee8a9)\n  dup2\n  mstore\n  0x04\n  add\n  mload(0x40)\n  dup1\n  swap2\n  sub\n  swap1\n  revert\n    /* \"@openzeppelin/contracts-upgradeable/proxy/utils/Initializable.sol\":7894:7970  if ($._initializing) {... */\ntag_10:\n    /* \"@openzeppelin/contracts-upgradeable/proxy/utils/Initializable.sol\":7983:7997  $._initialized */\n  dup1\n  sload\n  sub(shl(0x40, 0x01), 0x01)\n  swap1\n  dup2\n  and\n    /* \"@openzeppelin/contracts-upgradeable/proxy/utils/Initializable.sol\":7983:8017  $._initialized != type(uint64).max */\n  eq\n    /* \"@openzeppelin/contracts-upgradeable/proxy/utils/Initializable.sol\":7979:8125  if ($._initialized != type(uint64).max) {... */\n  tag_11\n  jumpi\n    /* \"@openzeppelin/contracts-upgradeable/proxy/utils/Initializable.sol\":8033:8066  $._initialized = type(uint64).max */\n  dup1\n  sload\n  not(sub(shl(0x40, 0x01), 0x01))\n  and\n  sub(shl(0x40, 0x01), 0x01)\n  swap1\n  dup2\n  or\n  dup3\n  sstore\n    /* \"@openzeppelin/contracts-upgradeable/proxy/utils/Initializable.sol\":8085:8114  Initialized(type(uint64).max) */\n  mload(0x40)\n    /* \"#utility.yul\":158:208   */\n  swap1\n  dup2\n  mstore\n    /* \"@openzeppelin/contracts-upgradeable/proxy/utils/Initializable.sol\":8085:8114  Initialized(type(uint64).max) */\n  0xc7f505b2f371ae2175ee4913f4499e1f2633a7b5936321eed1cdaeb6115181d2\n  swap1\n    /* \"#utility.yul\":146:148   */\n  0x20\n    /* \"#utility.yul\":131:149   */\n  add\n    /* \"@openzeppelin/contracts-upgradeable/proxy/utils/Initializable.sol\":8085:8114  Initialized(type(uint64).max) */\n  mload(0x40)\n  dup1\n  swap2\n  sub\n  swap1\n  log1\n    /* \"@openzeppelin/contracts-upgradeable/proxy/utils/Initializable.sol\":7979:8125  if ($._initialized != type(uint64).max) {... */\ntag_11:\n    /* \"@openzeppelin/contracts-upgradeable/proxy/utils/Initializable.sol\":7758:8131  {... */\n  pop\n    /* \"@openzeppelin/contracts-upgradeable/proxy/utils/Initializable.sol\":7709:8131  function _disableInitializers() internal virtual {... */\n  jump\t// out\n    /* \"#utility.yul\":14:214   */\ntag_18:\n    /* \"profile-with-fee-uups.sol\":492:5463  contract LocalOpenWorkV2 is BaseLayerZeroUpgradeable, ReentrancyGuardUpgradeable {... */\n  mload(0x80)\n  codecopy(0x00, dataOffset(sub_0), dataSize(sub_0))\n  0x00\n  assignImmutable(\"0x59f40d5fdf1977cb80169560e7963351b8a751d0f730a704cbdf6c389513ebdb\")\n  return(0x00, dataSize(sub_0))\nstop\n\nsub_0: assembly {\n        /* \"profile-with-fee-uups.sol\":492:5463  contract LocalOpenWorkV2 is BaseLayerZeroUpgradeable, ReentrancyGuardUpgradeable {... */\n      mstore(0x40, 0x80)\n      jumpi(tag_1, lt(calldatasize, 0x04))\n      shr(0xe0, calldataload(0x00))\n      dup1\n      0x715018a6\n      gt\n      tag_19\n      jumpi\n      dup1\n      0xbb0b6a53\n      gt\n      tag_20\n      jumpi\n      dup1\n      0xbb0b6a53\n      eq\n      tag_15\n      jumpi\n      dup1\n      0xc0c53b8b\n      eq\n      tag_16\n      jumpi\n      dup1\n      0xf2fde38b\n      eq\n      tag_17\n      jumpi\n      dup1\n      0xf897a22b\n      eq\n      tag_18\n      jumpi\n      0x00\n      dup1\n      revert\n    tag_20:\n      dup1\n      0x715018a6\n      eq\n      tag_11\n      jumpi\n      dup1\n      0x8da5cb5b\n      eq\n      tag_12\n      jumpi\n      dup1\n      0xad3b1b47\n      eq\n      tag_13\n      jumpi\n      dup1\n      0xad3cb1cc\n      eq\n      tag_14\n      jumpi\n      0x00\n      dup1\n      revert\n    tag_19:\n      dup1\n      0x54fd4d50\n      gt\n      tag_21\n      jumpi\n      dup1\n      0x54fd4d50\n      eq\n      tag_7\n      jumpi\n      dup1\n      0x5e280f11\n      eq\n      tag_8\n      jumpi\n      dup1\n      0x64bd90eb\n      eq\n      tag_9\n      jumpi\n      dup1\n      0x682d54e6\n      eq\n      tag_10\n      jumpi\n      0x00\n      dup1\n      revert\n    tag_21:\n      dup1\n      0x13137d65\n      eq\n      tag_3\n      jumpi\n      dup1\n      0x3400288b\n      eq\n      tag_4\n      jumpi\n      dup1\n      0x4f1ef286\n      eq\n      tag_5\n      jumpi\n      dup1\n      0x52d1902d\n      eq\n      tag_6\n      jumpi\n      0x00\n      dup1\n      revert\n    tag_1:\n      jumpi(tag_2, calldatasize)\n      stop\n    tag_2:\n      0x00\n      dup1\n      revert\n        /* \"BaseLayerZeroUpgradeable.sol\":4350:4785  function lzReceive(... */\n    tag_3:\n      tag_24\n      tag_25\n      calldatasize\n      0x04\n      tag_26\n      jump\t// in\n    tag_25:\n      tag_27\n      jump\t// in\n    tag_24:\n      stop\n        /* \"BaseLayerZeroUpgradeable.sol\":2584:2779  function setPeer(uint32 _eid, bytes32 _peer) external onlyOwner {... */\n    tag_4:\n      callvalue\n      dup1\n      iszero\n      tag_28\n      jumpi\n      0x00\n      dup1\n      revert\n    tag_28:\n      pop\n      tag_24\n      tag_30\n      calldatasize\n      0x04\n      tag_31\n      jump\t// in\n    tag_30:\n      tag_32\n      jump\t// in\n        /* \"@openzeppelin/contracts-upgradeable/proxy/utils/UUPSUpgradeable.sol\":4161:4375  function upgradeToAndCall(address newImplementation, bytes memory data) public payable virtual onlyProxy {... */\n    tag_5:\n      tag_24\n      tag_34\n      calldatasize\n      0x04\n      tag_35\n      jump\t// in\n    tag_34:\n      tag_36\n      jump\t// in\n        /* \"@openzeppelin/contracts-upgradeable/proxy/utils/UUPSUpgradeable.sol\":3708:3842  function proxiableUUID() external view virtual notDelegated returns (bytes32) {... */\n    tag_6:\n      callvalue\n      dup1\n      iszero\n      tag_37\n      jumpi\n      0x00\n      dup1\n      revert\n    tag_37:\n      pop\n      tag_38\n      tag_39\n      jump\t// in\n    tag_38:\n      mload(0x40)\n        /* \"#utility.yul\":3626:3651   */\n      swap1\n      dup2\n      mstore\n        /* \"#utility.yul\":3614:3616   */\n      0x20\n        /* \"#utility.yul\":3599:3617   */\n      add\n        /* \"@openzeppelin/contracts-upgradeable/proxy/utils/UUPSUpgradeable.sol\":3708:3842  function proxiableUUID() external view virtual notDelegated returns (bytes32) {... */\n    tag_40:\n      mload(0x40)\n      dup1\n      swap2\n      sub\n      swap1\n      return\n        /* \"profile-with-fee-uups.sol\":5086:5174  function version() external pure returns (string memory) {... */\n    tag_7:\n      callvalue\n      dup1\n      iszero\n      tag_42\n      jumpi\n      0x00\n      dup1\n      revert\n    tag_42:\n      pop\n        /* \"profile-with-fee-uups.sol\":5153:5167  return \"2.0.0\" */\n      0x40\n      dup1\n      mload\n      dup1\n      dup3\n      add\n      swap1\n      swap2\n      mstore\n      0x05\n      dup2\n      mstore\n      shl(0xdc, 0x0322e302e3)\n      0x20\n      dup3\n      add\n      mstore\n        /* \"profile-with-fee-uups.sol\":5086:5174  function version() external pure returns (string memory) {... */\n    tag_43:\n      mload(0x40)\n      tag_40\n      swap2\n      swap1\n      tag_46\n      jump\t// in\n        /* \"BaseLayerZeroUpgradeable.sol\":1084:1120  ILayerZeroEndpointV2 public endpoint */\n    tag_8:\n      callvalue\n      dup1\n      iszero\n      tag_47\n      jumpi\n      0x00\n      dup1\n      revert\n    tag_47:\n      pop\n      sload(0x00)\n      tag_48\n      swap1\n      sub(shl(0xa0, 0x01), 0x01)\n      and\n      dup2\n      jump\n    tag_48:\n      mload(0x40)\n      sub(shl(0xa0, 0x01), 0x01)\n        /* \"#utility.yul\":4610:4665   */\n      swap1\n      swap2\n      and\n        /* \"#utility.yul\":4592:4666   */\n      dup2\n      mstore\n        /* \"#utility.yul\":4580:4582   */\n      0x20\n        /* \"#utility.yul\":4565:4583   */\n      add\n        /* \"BaseLayerZeroUpgradeable.sol\":1084:1120  ILayerZeroEndpointV2 public endpoint */\n      tag_40\n        /* \"#utility.yul\":4418:4672   */\n      jump\n        /* \"profile-with-fee-uups.sol\":2198:3227  function createUserProfile(... */\n    tag_9:\n      tag_24\n      tag_53\n      calldatasize\n      0x04\n      tag_54\n      jump\t// in\n    tag_53:\n      tag_55\n      jump\t// in\n        /* \"profile-with-fee-uups.sol\":3233:3678  function quoteCreateUserProfile(... */\n    tag_10:\n      callvalue\n      dup1\n      iszero\n      tag_56\n      jumpi\n      0x00\n      dup1\n      revert\n    tag_56:\n      pop\n      tag_57\n      tag_58\n      calldatasize\n      0x04\n      tag_59\n      jump\t// in\n    tag_58:\n      tag_60\n      jump\t// in\n    tag_57:\n      0x40\n      dup1\n      mload\n        /* \"#utility.yul\":8464:8477   */\n      dup3\n      mload\n        /* \"#utility.yul\":8446:8478   */\n      dup2\n      mstore\n        /* \"#utility.yul\":8534:8538   */\n      0x20\n        /* \"#utility.yul\":8522:8539   */\n      swap3\n      dup4\n      add\n        /* \"#utility.yul\":8516:8540   */\n      mload\n        /* \"#utility.yul\":8494:8514   */\n      swap3\n      dup2\n      add\n        /* \"#utility.yul\":8487:8541   */\n      swap3\n      swap1\n      swap3\n      mstore\n        /* \"#utility.yul\":8419:8437   */\n      add\n        /* \"profile-with-fee-uups.sol\":3233:3678  function quoteCreateUserProfile(... */\n      tag_40\n        /* \"#utility.yul\":8244:8547   */\n      jump\n        /* \"@openzeppelin/contracts-upgradeable/access/OwnableUpgradeable.sol\":3155:3256  function renounceOwnership() public virtual onlyOwner {... */\n    tag_11:\n      callvalue\n      dup1\n      iszero\n      tag_63\n      jumpi\n      0x00\n      dup1\n      revert\n    tag_63:\n      pop\n      tag_24\n      tag_65\n      jump\t// in\n        /* \"@openzeppelin/contracts-upgradeable/access/OwnableUpgradeable.sol\":2441:2585  function owner() public view virtual returns (address) {... */\n    tag_12:\n      callvalue\n      dup1\n      iszero\n      tag_66\n      jumpi\n      0x00\n      dup1\n      revert\n    tag_66:\n      pop\n        /* \"@openzeppelin/contracts-upgradeable/access/OwnableUpgradeable.sol\":1313:1335  OwnableStorageLocation */\n      0x9016d09d72d40fdae2fd8ceac6b6234c7706214fd39c1cd1e609a0528c199300\n        /* \"@openzeppelin/contracts-upgradeable/access/OwnableUpgradeable.sol\":2570:2578  $._owner */\n      sload\n      sub(shl(0xa0, 0x01), 0x01)\n      and\n        /* \"@openzeppelin/contracts-upgradeable/access/OwnableUpgradeable.sol\":2441:2585  function owner() public view virtual returns (address) {... */\n      jump(tag_48)\n        /* \"profile-with-fee-uups.sol\":3939:4122  function withdrawFees(address to, uint256 amount) external onlyOwner {... */\n    tag_13:\n      callvalue\n      dup1\n      iszero\n      tag_71\n      jumpi\n      0x00\n      dup1\n      revert\n    tag_71:\n      pop\n      tag_24\n      tag_73\n      calldatasize\n      0x04\n      tag_74\n      jump\t// in\n    tag_73:\n      tag_75\n      jump\t// in\n        /* \"@openzeppelin/contracts-upgradeable/proxy/utils/UUPSUpgradeable.sol\":1819:1877  string public constant UPGRADE_INTERFACE_VERSION = \"5.0.0\" */\n    tag_14:\n      callvalue\n      dup1\n      iszero\n      tag_76\n      jumpi\n      0x00\n      dup1\n      revert\n    tag_76:\n      pop\n      tag_43\n      mload(0x40)\n      dup1\n      0x40\n      add\n      0x40\n      mstore\n      dup1\n      0x05\n      dup2\n      mstore\n      0x20\n      add\n      shl(0xdc, 0x0352e302e3)\n      dup2\n      mstore\n      pop\n      dup2\n      jump\n        /* \"BaseLayerZeroUpgradeable.sol\":1126:1165  mapping(uint32 => bytes32) public peers */\n    tag_15:\n      callvalue\n      dup1\n      iszero\n      tag_80\n      jumpi\n      0x00\n      dup1\n      revert\n    tag_80:\n      pop\n      tag_38\n      tag_82\n      calldatasize\n      0x04\n      tag_83\n      jump\t// in\n    tag_82:\n      mstore(0x20, 0x01)\n      0x00\n      swap1\n      dup2\n      mstore\n      0x40\n      swap1\n      keccak256\n      sload\n      dup2\n      jump\n        /* \"profile-with-fee-uups.sol\":1687:1938  function initialize(... */\n    tag_16:\n      callvalue\n      dup1\n      iszero\n      tag_86\n      jumpi\n      0x00\n      dup1\n      revert\n    tag_86:\n      pop\n      tag_24\n      tag_88\n      calldatasize\n      0x04\n      tag_89\n      jump\t// in\n    tag_88:\n      tag_90\n      jump\t// in\n        /* \"@openzeppelin/contracts-upgradeable/access/OwnableUpgradeable.sol\":3405:3620  function transferOwnership(address newOwner) public virtual onlyOwner {... */\n    tag_17:\n      callvalue\n      dup1\n      iszero\n      tag_91\n      jumpi\n      0x00\n      dup1\n      revert\n    tag_91:\n      pop\n      tag_24\n      tag_93\n      calldatasize\n      0x04\n      tag_94\n      jump\t// in\n    tag_93:\n      tag_95\n      jump\t// in\n        /* \"profile-with-fee-uups.sol\":834:856  IERC20 public usdToken */\n    tag_18:\n      callvalue\n      dup1\n      iszero\n      tag_96\n      jumpi\n      0x00\n      dup1\n      revert\n    tag_96:\n      pop\n      sload(0x64)\n      tag_48\n      swap1\n      sub(shl(0xa0, 0x01), 0x01)\n      and\n      dup2\n      jump\n        /* \"BaseLayerZeroUpgradeable.sol\":4350:4785  function lzReceive(... */\n    tag_27:\n        /* \"BaseLayerZeroUpgradeable.sol\":4579:4587  endpoint */\n      and(sub(shl(0xa0, 0x01), 0x01), sload(0x00))\n        /* \"BaseLayerZeroUpgradeable.sol\":4557:4567  msg.sender */\n      caller\n        /* \"BaseLayerZeroUpgradeable.sol\":4557:4588  msg.sender != address(endpoint) */\n      eq\n        /* \"BaseLayerZeroUpgradeable.sol\":4553:4611  if (msg.sender != address(endpoint)) revert OnlyEndpoint() */\n      tag_102\n      jumpi\n        /* \"BaseLayerZeroUpgradeable.sol\":4597:4611  OnlyEndpoint() */\n      mload(0x40)\n      shl(0xe3, 0x0fd72cd9)\n      dup2\n      mstore\n      0x04\n      add\n      mload(0x40)\n      dup1\n      swap2\n      sub\n      swap1\n      revert\n        /* \"BaseLayerZeroUpgradeable.sol\":4553:4611  if (msg.sender != address(endpoint)) revert OnlyEndpoint() */\n    tag_102:\n        /* \"BaseLayerZeroUpgradeable.sol\":4643:4648  peers */\n      0x01\n        /* \"BaseLayerZeroUpgradeable.sol\":4643:4664  peers[_origin.srcEid] */\n      0x00\n        /* \"BaseLayerZeroUpgradeable.sol\":4649:4663  _origin.srcEid */\n      tag_103\n      0x20\n      dup11\n      add\n        /* \"BaseLayerZeroUpgradeable.sol\":4649:4656  _origin */\n      dup11\n        /* \"BaseLayerZeroUpgradeable.sol\":4649:4663  _origin.srcEid */\n      tag_83\n      jump\t// in\n    tag_103:\n        /* \"BaseLayerZeroUpgradeable.sol\":4643:4664  peers[_origin.srcEid] */\n      0xffffffff\n      and\n      0xffffffff\n      and\n      dup2\n      mstore\n      0x20\n      add\n      swap1\n      dup2\n      mstore\n      0x20\n      add\n      0x00\n      keccak256\n      sload\n        /* \"BaseLayerZeroUpgradeable.sol\":4625:4632  _origin */\n      dup8\n        /* \"BaseLayerZeroUpgradeable.sol\":4625:4639  _origin.sender */\n      0x20\n      add\n      calldataload\n        /* \"BaseLayerZeroUpgradeable.sol\":4625:4664  _origin.sender != peers[_origin.srcEid] */\n      eq\n        /* \"BaseLayerZeroUpgradeable.sol\":4621:4700  if (_origin.sender != peers[_origin.srcEid]) revert InvalidPeer(_origin.sender) */\n      tag_104\n      jumpi\n        /* \"BaseLayerZeroUpgradeable.sol\":4673:4700  InvalidPeer(_origin.sender) */\n      mload(0x40)\n      shl(0xe2, 0x316693d9)\n      dup2\n      mstore\n        /* \"BaseLayerZeroUpgradeable.sol\":4685:4699  _origin.sender */\n      0x20\n      dup9\n      add\n      calldataload\n        /* \"BaseLayerZeroUpgradeable.sol\":4673:4700  InvalidPeer(_origin.sender) */\n      0x04\n      dup3\n      add\n        /* \"#utility.yul\":3626:3651   */\n      mstore\n        /* \"#utility.yul\":3599:3617   */\n      0x24\n      add\n        /* \"BaseLayerZeroUpgradeable.sol\":4673:4700  InvalidPeer(_origin.sender) */\n    tag_105:\n      mload(0x40)\n      dup1\n      swap2\n      sub\n      swap1\n      revert\n        /* \"BaseLayerZeroUpgradeable.sol\":4621:4700  if (_origin.sender != peers[_origin.srcEid]) revert InvalidPeer(_origin.sender) */\n    tag_104:\n        /* \"BaseLayerZeroUpgradeable.sol\":4350:4785  function lzReceive(... */\n      pop\n      pop\n      pop\n      pop\n      pop\n      pop\n      pop\n      jump\t// out\n        /* \"BaseLayerZeroUpgradeable.sol\":2584:2779  function setPeer(uint32 _eid, bytes32 _peer) external onlyOwner {... */\n    tag_32:\n        /* \"@openzeppelin/contracts-upgradeable/access/OwnableUpgradeable.sol\":2334:2347  _checkOwner() */\n      tag_109\n        /* \"@openzeppelin/contracts-upgradeable/access/OwnableUpgradeable.sol\":2334:2345  _checkOwner */\n      tag_110\n        /* \"@openzeppelin/contracts-upgradeable/access/OwnableUpgradeable.sol\":2334:2347  _checkOwner() */\n      jump\t// in\n    tag_109:\n        /* \"BaseLayerZeroUpgradeable.sol\":2662:2667  _peer */\n      dup1\n        /* \"BaseLayerZeroUpgradeable.sol\":2658:2708  if (_peer == bytes32(0)) revert InvalidPeer(_peer) */\n      tag_112\n      jumpi\n        /* \"BaseLayerZeroUpgradeable.sol\":2690:2708  InvalidPeer(_peer) */\n      mload(0x40)\n      shl(0xe2, 0x316693d9)\n      dup2\n      mstore\n      0x04\n      dup2\n      add\n        /* \"#utility.yul\":3626:3651   */\n      dup3\n      swap1\n      mstore\n        /* \"#utility.yul\":3599:3617   */\n      0x24\n      add\n        /* \"BaseLayerZeroUpgradeable.sol\":2690:2708  InvalidPeer(_peer) */\n      tag_105\n        /* \"#utility.yul\":3480:3657   */\n      jump\n        /* \"BaseLayerZeroUpgradeable.sol\":2658:2708  if (_peer == bytes32(0)) revert InvalidPeer(_peer) */\n    tag_112:\n        /* \"BaseLayerZeroUpgradeable.sol\":2718:2729  peers[_eid] */\n      0xffffffff\n      dup3\n      and\n      0x00\n      dup2\n      dup2\n      mstore\n        /* \"BaseLayerZeroUpgradeable.sol\":2718:2723  peers */\n      0x01\n        /* \"BaseLayerZeroUpgradeable.sol\":2718:2729  peers[_eid] */\n      0x20\n      mstore\n      0x40\n      swap1\n      dup2\n      swap1\n      keccak256\n        /* \"BaseLayerZeroUpgradeable.sol\":2718:2737  peers[_eid] = _peer */\n      dup4\n      swap1\n      sstore\n        /* \"BaseLayerZeroUpgradeable.sol\":2752:2772  PeerSet(_eid, _peer) */\n      mload\n      0x238399d427b947898edb290f5ff0f9109849b1c3ba196a42e35f00c50a54b98b\n      swap1\n      tag_114\n      swap1\n        /* \"BaseLayerZeroUpgradeable.sol\":2732:2737  _peer */\n      dup5\n        /* \"#utility.yul\":3626:3651   */\n      dup2\n      mstore\n        /* \"#utility.yul\":3614:3616   */\n      0x20\n        /* \"#utility.yul\":3599:3617   */\n      add\n      swap1\n        /* \"#utility.yul\":3480:3657   */\n      jump\n        /* \"BaseLayerZeroUpgradeable.sol\":2752:2772  PeerSet(_eid, _peer) */\n    tag_114:\n      mload(0x40)\n      dup1\n      swap2\n      sub\n      swap1\n      log2\n        /* \"BaseLayerZeroUpgradeable.sol\":2584:2779  function setPeer(uint32 _eid, bytes32 _peer) external onlyOwner {... */\n      pop\n      pop\n      jump\t// out\n        /* \"@openzeppelin/contracts-upgradeable/proxy/utils/UUPSUpgradeable.sol\":4161:4375  function upgradeToAndCall(address newImplementation, bytes memory data) public payable virtual onlyProxy {... */\n    tag_36:\n        /* \"@openzeppelin/contracts-upgradeable/proxy/utils/UUPSUpgradeable.sol\":2655:2668  _checkProxy() */\n      tag_116\n        /* \"@openzeppelin/contracts-upgradeable/proxy/utils/UUPSUpgradeable.sol\":2655:2666  _checkProxy */\n      tag_117\n        /* \"@openzeppelin/contracts-upgradeable/proxy/utils/UUPSUpgradeable.sol\":2655:2668  _checkProxy() */\n      jump\t// in\n    tag_116:\n        /* \"@openzeppelin/contracts-upgradeable/proxy/utils/UUPSUpgradeable.sol\":4276:4312  _authorizeUpgrade(newImplementation) */\n      tag_119\n        /* \"@openzeppelin/contracts-upgradeable/proxy/utils/UUPSUpgradeable.sol\":4294:4311  newImplementation */\n      dup3\n        /* \"@openzeppelin/contracts-upgradeable/proxy/utils/UUPSUpgradeable.sol\":4276:4293  _authorizeUpgrade */\n      tag_120\n        /* \"@openzeppelin/contracts-upgradeable/proxy/utils/UUPSUpgradeable.sol\":4276:4312  _authorizeUpgrade(newImplementation) */\n      jump\t// in\n    tag_119:\n        /* \"@openzeppelin/contracts-upgradeable/proxy/utils/UUPSUpgradeable.sol\":4322:4368  _upgradeToAndCallUUPS(newImplementation, data) */\n      tag_121\n        /* \"@openzeppelin/contracts-upgradeable/proxy/utils/UUPSUpgradeable.sol\":4344:4361  newImplementation */\n      dup3\n        /* \"@openzeppelin/contracts-upgradeable/proxy/utils/UUPSUpgradeable.sol\":4363:4367  data */\n      dup3\n        /* \"@openzeppelin/contracts-upgradeable/proxy/utils/UUPSUpgradeable.sol\":4322:4343  _upgradeToAndCallUUPS */\n      tag_122\n        /* \"@openzeppelin/contracts-upgradeable/proxy/utils/UUPSUpgradeable.sol\":4322:4368  _upgradeToAndCallUUPS(newImplementation, data) */\n      jump\t// in\n    tag_121:\n        /* \"@openzeppelin/contracts-upgradeable/proxy/utils/UUPSUpgradeable.sol\":4161:4375  function upgradeToAndCall(address newImplementation, bytes memory data) public payable virtual onlyProxy {... */\n      pop\n      pop\n      jump\t// out\n        /* \"@openzeppelin/contracts-upgradeable/proxy/utils/UUPSUpgradeable.sol\":3708:3842  function proxiableUUID() external view virtual notDelegated returns (bytes32) {... */\n    tag_39:\n        /* \"@openzeppelin/contracts-upgradeable/proxy/utils/UUPSUpgradeable.sol\":3777:3784  bytes32 */\n      0x00\n        /* \"@openzeppelin/contracts-upgradeable/proxy/utils/UUPSUpgradeable.sol\":2926:2946  _checkNotDelegated() */\n      tag_124\n        /* \"@openzeppelin/contracts-upgradeable/proxy/utils/UUPSUpgradeable.sol\":2926:2944  _checkNotDelegated */\n      tag_125\n        /* \"@openzeppelin/contracts-upgradeable/proxy/utils/UUPSUpgradeable.sol\":2926:2946  _checkNotDelegated() */\n      jump\t// in\n    tag_124:\n      pop\n        /* \"@openzeppelin/contracts/proxy/ERC1967/ERC1967Utils.sol\":811:877  0x360894a13ba1a3210667c828492db98dca3e2076cc3735a920a3ca505d382bbc */\n      0x360894a13ba1a3210667c828492db98dca3e2076cc3735a920a3ca505d382bbc\n        /* \"@openzeppelin/contracts-upgradeable/proxy/utils/UUPSUpgradeable.sol\":3708:3842  function proxiableUUID() external view virtual notDelegated returns (bytes32) {... */\n      swap1\n      jump\t// out\n        /* \"profile-with-fee-uups.sol\":2198:3227  function createUserProfile(... */\n    tag_55:\n        /* \"@openzeppelin/contracts-upgradeable/security/ReentrancyGuardUpgradeable.sol\":2526:2547  _nonReentrantBefore() */\n      tag_129\n        /* \"@openzeppelin/contracts-upgradeable/security/ReentrancyGuardUpgradeable.sol\":2526:2545  _nonReentrantBefore */\n      tag_130\n        /* \"@openzeppelin/contracts-upgradeable/security/ReentrancyGuardUpgradeable.sol\":2526:2547  _nonReentrantBefore() */\n      jump\t// in\n    tag_129:\n        /* \"profile-with-fee-uups.sol\":2477:2478  0 */\n      0x00\n        /* \"profile-with-fee-uups.sol\":2462:2466  name */\n      dup7\n        /* \"profile-with-fee-uups.sol\":2456:2474  bytes(name).length */\n      mload\n        /* \"profile-with-fee-uups.sol\":2456:2478  bytes(name).length > 0 */\n      gt\n        /* \"profile-with-fee-uups.sol\":2448:2493  require(bytes(name).length > 0, \"Name empty\") */\n      tag_132\n      jumpi\n      mload(0x40)\n      shl(0xe5, 0x461bcd)\n      dup2\n      mstore\n        /* \"#utility.yul\":10255:10257   */\n      0x20\n        /* \"profile-with-fee-uups.sol\":2448:2493  require(bytes(name).length > 0, \"Name empty\") */\n      0x04\n      dup3\n      add\n        /* \"#utility.yul\":10237:10258   */\n      mstore\n        /* \"#utility.yul\":10294:10296   */\n      0x0a\n        /* \"#utility.yul\":10274:10292   */\n      0x24\n      dup3\n      add\n        /* \"#utility.yul\":10267:10297   */\n      mstore\n      shl(0xb0, 0x4e616d6520656d707479)\n        /* \"#utility.yul\":10313:10331   */\n      0x44\n      dup3\n      add\n        /* \"#utility.yul\":10306:10346   */\n      mstore\n        /* \"#utility.yul\":10363:10381   */\n      0x64\n      add\n        /* \"profile-with-fee-uups.sol\":2448:2493  require(bytes(name).length > 0, \"Name empty\") */\n      tag_105\n        /* \"#utility.yul\":10053:10387   */\n      jump\n        /* \"profile-with-fee-uups.sol\":2448:2493  require(bytes(name).length > 0, \"Name empty\") */\n    tag_132:\n        /* \"profile-with-fee-uups.sol\":2527:2528  0 */\n      0x00\n        /* \"profile-with-fee-uups.sol\":2511:2517  skills */\n      dup6\n        /* \"profile-with-fee-uups.sol\":2511:2524  skills.length */\n      mload\n        /* \"profile-with-fee-uups.sol\":2511:2528  skills.length > 0 */\n      gt\n        /* \"profile-with-fee-uups.sol\":2503:2545  require(skills.length > 0, \"Skills empty\") */\n      tag_135\n      jumpi\n      mload(0x40)\n      shl(0xe5, 0x461bcd)\n      dup2\n      mstore\n        /* \"#utility.yul\":10594:10596   */\n      0x20\n        /* \"profile-with-fee-uups.sol\":2503:2545  require(skills.length > 0, \"Skills empty\") */\n      0x04\n      dup3\n      add\n        /* \"#utility.yul\":10576:10597   */\n      mstore\n        /* \"#utility.yul\":10633:10635   */\n      0x0c\n        /* \"#utility.yul\":10613:10631   */\n      0x24\n      dup3\n      add\n        /* \"#utility.yul\":10606:10636   */\n      mstore\n      shl(0xa0, 0x536b696c6c7320656d707479)\n        /* \"#utility.yul\":10652:10670   */\n      0x44\n      dup3\n      add\n        /* \"#utility.yul\":10645:10687   */\n      mstore\n        /* \"#utility.yul\":10704:10722   */\n      0x64\n      add\n        /* \"profile-with-fee-uups.sol\":2503:2545  require(skills.length > 0, \"Skills empty\") */\n      tag_105\n        /* \"#utility.yul\":10392:10728   */\n      jump\n        /* \"profile-with-fee-uups.sol\":2503:2545  require(skills.length > 0, \"Skills empty\") */\n    tag_135:\n        /* \"profile-with-fee-uups.sol\":2573:2574  0 */\n      0x00\n        /* \"profile-with-fee-uups.sol\":2563:2570  usdtFee */\n      dup4\n        /* \"profile-with-fee-uups.sol\":2563:2574  usdtFee > 0 */\n      gt\n        /* \"profile-with-fee-uups.sol\":2555:2592  require(usdtFee > 0, \"USDT fee zero\") */\n      tag_138\n      jumpi\n      mload(0x40)\n      shl(0xe5, 0x461bcd)\n      dup2\n      mstore\n        /* \"#utility.yul\":10935:10937   */\n      0x20\n        /* \"profile-with-fee-uups.sol\":2555:2592  require(usdtFee > 0, \"USDT fee zero\") */\n      0x04\n      dup3\n      add\n        /* \"#utility.yul\":10917:10938   */\n      mstore\n        /* \"#utility.yul\":10974:10976   */\n      0x0d\n        /* \"#utility.yul\":10954:10972   */\n      0x24\n      dup3\n      add\n        /* \"#utility.yul\":10947:10977   */\n      mstore\n      shl(0x98, 0x5553445420666565207a65726f)\n        /* \"#utility.yul\":10993:11011   */\n      0x44\n      dup3\n      add\n        /* \"#utility.yul\":10986:11029   */\n      mstore\n        /* \"#utility.yul\":11046:11064   */\n      0x64\n      add\n        /* \"profile-with-fee-uups.sol\":2555:2592  require(usdtFee > 0, \"USDT fee zero\") */\n      tag_105\n        /* \"#utility.yul\":10733:11070   */\n      jump\n        /* \"profile-with-fee-uups.sol\":2555:2592  require(usdtFee > 0, \"USDT fee zero\") */\n    tag_138:\n        /* \"profile-with-fee-uups.sol\":2626:2640  peers[_dstEid] */\n      0xffffffff\n      dup8\n      and\n        /* \"profile-with-fee-uups.sol\":2611:2623  bytes32 peer */\n      0x00\n        /* \"profile-with-fee-uups.sol\":2626:2640  peers[_dstEid] */\n      swap1\n      dup2\n      mstore\n        /* \"profile-with-fee-uups.sol\":2626:2631  peers */\n      0x01\n        /* \"profile-with-fee-uups.sol\":2626:2640  peers[_dstEid] */\n      0x20\n      mstore\n      0x40\n      swap1\n      keccak256\n      sload\n      dup1\n        /* \"profile-with-fee-uups.sol\":2650:2696  if (peer == bytes32(0)) revert NoPeer(_dstEid) */\n      tag_141\n      jumpi\n        /* \"profile-with-fee-uups.sol\":2681:2696  NoPeer(_dstEid) */\n      mload(0x40)\n      shl(0xe0, 0xf6ff4fb7)\n      dup2\n      mstore\n        /* \"#utility.yul\":11249:11259   */\n      0xffffffff\n        /* \"#utility.yul\":11237:11260   */\n      dup10\n      and\n        /* \"profile-with-fee-uups.sol\":2681:2696  NoPeer(_dstEid) */\n      0x04\n      dup3\n      add\n        /* \"#utility.yul\":11219:11261   */\n      mstore\n        /* \"#utility.yul\":11192:11210   */\n      0x24\n      add\n        /* \"profile-with-fee-uups.sol\":2681:2696  NoPeer(_dstEid) */\n      tag_105\n        /* \"#utility.yul\":11075:11267   */\n      jump\n        /* \"profile-with-fee-uups.sol\":2650:2696  if (peer == bytes32(0)) revert NoPeer(_dstEid) */\n    tag_141:\n        /* \"profile-with-fee-uups.sol\":2728:2736  usdToken */\n      0x64\n      dup1\n      sload\n        /* \"profile-with-fee-uups.sol\":2728:2785  usdToken.transferFrom(msg.sender, address(this), usdtFee) */\n      mload(0x40)\n      shl(0xe0, 0x23b872dd)\n      dup2\n      mstore\n        /* \"profile-with-fee-uups.sol\":2750:2760  msg.sender */\n      caller\n        /* \"profile-with-fee-uups.sol\":2728:2785  usdToken.transferFrom(msg.sender, address(this), usdtFee) */\n      0x04\n      dup3\n      add\n        /* \"#utility.yul\":11474:11548   */\n      mstore\n        /* \"profile-with-fee-uups.sol\":2770:2774  this */\n      address\n        /* \"#utility.yul\":11564:11582   */\n      0x24\n      dup3\n      add\n        /* \"#utility.yul\":11557:11640   */\n      mstore\n        /* \"#utility.yul\":11656:11674   */\n      0x44\n      dup2\n      add\n        /* \"#utility.yul\":11649:11683   */\n      dup8\n      swap1\n      mstore\n      sub(shl(0xa0, 0x01), 0x01)\n        /* \"profile-with-fee-uups.sol\":2728:2736  usdToken */\n      swap1\n      swap2\n      and\n      swap2\n        /* \"profile-with-fee-uups.sol\":2728:2749  usdToken.transferFrom */\n      0x23b872dd\n      swap2\n        /* \"#utility.yul\":11447:11465   */\n      add\n        /* \"profile-with-fee-uups.sol\":2728:2785  usdToken.transferFrom(msg.sender, address(this), usdtFee) */\n      0x20\n      mload(0x40)\n      dup1\n      dup4\n      sub\n      dup2\n      0x00\n      dup8\n      gas\n      call\n      iszero\n      dup1\n      iszero\n      tag_147\n      jumpi\n      returndatasize\n      0x00\n      dup1\n      returndatacopy\n      revert(0x00, returndatasize)\n    tag_147:\n      pop\n      pop\n      pop\n      pop\n      mload(0x40)\n      returndatasize\n      not(0x1f)\n      0x1f\n      dup3\n      add\n      and\n      dup3\n      add\n      dup1\n      0x40\n      mstore\n      pop\n      dup2\n      add\n      swap1\n      tag_148\n      swap2\n      swap1\n      tag_149\n      jump\t// in\n    tag_148:\n        /* \"profile-with-fee-uups.sol\":2707:2831  require(... */\n      tag_150\n      jumpi\n      mload(0x40)\n      shl(0xe5, 0x461bcd)\n      dup2\n      mstore\n        /* \"#utility.yul\":12178:12180   */\n      0x20\n        /* \"profile-with-fee-uups.sol\":2707:2831  require(... */\n      0x04\n      dup3\n      add\n        /* \"#utility.yul\":12160:12181   */\n      mstore\n        /* \"#utility.yul\":12217:12219   */\n      0x14\n        /* \"#utility.yul\":12197:12215   */\n      0x24\n      dup3\n      add\n        /* \"#utility.yul\":12190:12220   */\n      mstore\n        /* \"#utility.yul\":12256:12278   */\n      0x55534454207472616e73666572206661696c6564000000000000000000000000\n        /* \"#utility.yul\":12236:12254   */\n      0x44\n      dup3\n      add\n        /* \"#utility.yul\":12229:12279   */\n      mstore\n        /* \"#utility.yul\":12296:12314   */\n      0x64\n      add\n        /* \"profile-with-fee-uups.sol\":2707:2831  require(... */\n      tag_105\n        /* \"#utility.yul\":11976:12320   */\n      jump\n        /* \"profile-with-fee-uups.sol\":2707:2831  require(... */\n    tag_150:\n        /* \"profile-with-fee-uups.sol\":2842:2862  bytes memory payload */\n      0x00\n        /* \"profile-with-fee-uups.sol\":2876:2886  msg.sender */\n      caller\n        /* \"profile-with-fee-uups.sol\":2888:2892  name */\n      dup9\n        /* \"profile-with-fee-uups.sol\":2894:2900  skills */\n      dup9\n        /* \"profile-with-fee-uups.sol\":2902:2913  profileHash */\n      dup9\n        /* \"profile-with-fee-uups.sol\":2865:2914  abi.encode(msg.sender, name, skills, profileHash) */\n      add(0x20, mload(0x40))\n      tag_153\n      swap5\n      swap4\n      swap3\n      swap2\n      swap1\n      tag_154\n      jump\t// in\n    tag_153:\n      0x40\n      dup1\n      mload\n      not(0x1f)\n      dup2\n      dup5\n      sub\n      add\n      dup2\n      mstore\n      0x20\n        /* \"profile-with-fee-uups.sol\":2950:2991  _quote(_dstEid, payload, _options, false) */\n      0x1f\n      dup8\n      add\n      dup2\n      swap1\n      div\n      dup2\n      mul\n      dup5\n      add\n      dup2\n      add\n      swap1\n      swap3\n      mstore\n      dup6\n      dup4\n      mstore\n        /* \"profile-with-fee-uups.sol\":2865:2914  abi.encode(msg.sender, name, skills, profileHash) */\n      swap3\n      pop\n        /* \"profile-with-fee-uups.sol\":2924:2947  MessagingFee memory fee */\n      0x00\n      swap2\n        /* \"profile-with-fee-uups.sol\":2950:2991  _quote(_dstEid, payload, _options, false) */\n      tag_155\n      swap2\n        /* \"profile-with-fee-uups.sol\":2957:2964  _dstEid */\n      dup13\n      swap2\n        /* \"profile-with-fee-uups.sol\":2865:2914  abi.encode(msg.sender, name, skills, profileHash) */\n      dup6\n      swap2\n        /* \"profile-with-fee-uups.sol\":2975:2983  _options */\n      dup10\n      swap1\n      dup10\n      swap1\n      dup2\n      swap1\n        /* \"profile-with-fee-uups.sol\":2950:2991  _quote(_dstEid, payload, _options, false) */\n      dup5\n      add\n        /* \"profile-with-fee-uups.sol\":2975:2983  _options */\n      dup4\n      dup3\n      dup1\n      dup3\n        /* \"profile-with-fee-uups.sol\":2950:2991  _quote(_dstEid, payload, _options, false) */\n      dup5\n      calldatacopy\n      0x00\n      swap3\n      add\n      dup3\n      swap1\n      mstore\n      pop\n      swap3\n      pop\n        /* \"profile-with-fee-uups.sol\":2950:2956  _quote */\n      tag_156\n      swap2\n      pop\n      pop\n        /* \"profile-with-fee-uups.sol\":2950:2991  _quote(_dstEid, payload, _options, false) */\n      jump\t// in\n    tag_155:\n        /* \"profile-with-fee-uups.sol\":3022:3035  fee.nativeFee */\n      dup1\n      mload\n        /* \"profile-with-fee-uups.sol\":2924:2991  MessagingFee memory fee = _quote(_dstEid, payload, _options, false) */\n      swap1\n      swap2\n      pop\n        /* \"profile-with-fee-uups.sol\":3009:3018  msg.value */\n      callvalue\n        /* \"profile-with-fee-uups.sol\":3009:3035  msg.value >= fee.nativeFee */\n      lt\n      iszero\n        /* \"profile-with-fee-uups.sol\":3001:3058  require(msg.value >= fee.nativeFee, \"Native fee too low\") */\n      tag_157\n      jumpi\n      mload(0x40)\n      shl(0xe5, 0x461bcd)\n      dup2\n      mstore\n        /* \"#utility.yul\":13695:13697   */\n      0x20\n        /* \"profile-with-fee-uups.sol\":3001:3058  require(msg.value >= fee.nativeFee, \"Native fee too low\") */\n      0x04\n      dup3\n      add\n        /* \"#utility.yul\":13677:13698   */\n      mstore\n        /* \"#utility.yul\":13734:13736   */\n      0x12\n        /* \"#utility.yul\":13714:13732   */\n      0x24\n      dup3\n      add\n        /* \"#utility.yul\":13707:13737   */\n      mstore\n      shl(0x70, 0x4e61746976652066656520746f6f206c6f77)\n        /* \"#utility.yul\":13753:13771   */\n      0x44\n      dup3\n      add\n        /* \"#utility.yul\":13746:13794   */\n      mstore\n        /* \"#utility.yul\":13811:13829   */\n      0x64\n      add\n        /* \"profile-with-fee-uups.sol\":3001:3058  require(msg.value >= fee.nativeFee, \"Native fee too low\") */\n      tag_105\n        /* \"#utility.yul\":13493:13835   */\n      jump\n        /* \"profile-with-fee-uups.sol\":3001:3058  require(msg.value >= fee.nativeFee, \"Native fee too low\") */\n    tag_157:\n        /* \"profile-with-fee-uups.sol\":3069:3153  _lzSend(_dstEid, payload, _options, MessagingFee(msg.value, 0), payable(msg.sender)) */\n      tag_160\n        /* \"profile-with-fee-uups.sol\":3077:3084  _dstEid */\n      dup11\n        /* \"profile-with-fee-uups.sol\":3086:3093  payload */\n      dup4\n        /* \"profile-with-fee-uups.sol\":3095:3103  _options */\n      dup8\n      dup8\n        /* \"profile-with-fee-uups.sol\":3069:3153  _lzSend(_dstEid, payload, _options, MessagingFee(msg.value, 0), payable(msg.sender)) */\n      dup1\n      dup1\n      0x1f\n      add\n      0x20\n      dup1\n      swap2\n      div\n      mul\n      0x20\n      add\n      mload(0x40)\n      swap1\n      dup2\n      add\n      0x40\n      mstore\n      dup1\n      swap4\n      swap3\n      swap2\n      swap1\n      dup2\n      dup2\n      mstore\n      0x20\n      add\n      dup4\n      dup4\n      dup1\n      dup3\n      dup5\n      calldatacopy\n      0x00\n      swap3\n      add\n      dup3\n      swap1\n      mstore\n      pop\n        /* \"profile-with-fee-uups.sol\":3105:3131  MessagingFee(msg.value, 0) */\n      0x40\n      dup1\n      mload\n      dup1\n      dup3\n      add\n      swap1\n      swap2\n      mstore\n        /* \"profile-with-fee-uups.sol\":3118:3127  msg.value */\n      callvalue\n        /* \"profile-with-fee-uups.sol\":3105:3131  MessagingFee(msg.value, 0) */\n      dup2\n      mstore\n      0x20\n      dup2\n      add\n      swap2\n      swap1\n      swap2\n      mstore\n      swap3\n      pop\n        /* \"profile-with-fee-uups.sol\":3141:3151  msg.sender */\n      caller\n      swap2\n      pop\n        /* \"profile-with-fee-uups.sol\":3069:3076  _lzSend */\n      tag_161\n      swap1\n      pop\n        /* \"profile-with-fee-uups.sol\":3069:3153  _lzSend(_dstEid, payload, _options, MessagingFee(msg.value, 0), payable(msg.sender)) */\n      jump\t// in\n    tag_160:\n      pop\n        /* \"profile-with-fee-uups.sol\":3194:3204  msg.sender */\n      caller\n      sub(shl(0xa0, 0x01), 0x01)\n        /* \"profile-with-fee-uups.sol\":3169:3220  UserProfileSent(_dstEid, msg.sender, name, usdtFee) */\n      and\n        /* \"profile-with-fee-uups.sol\":3185:3192  _dstEid */\n      dup11\n        /* \"profile-with-fee-uups.sol\":3169:3220  UserProfileSent(_dstEid, msg.sender, name, usdtFee) */\n      0xffffffff\n      and\n      0x367df553a20f9d6a48f562a05a838605d973217c1e3980b1c5d542e2eeaafb63\n        /* \"profile-with-fee-uups.sol\":3206:3210  name */\n      dup12\n        /* \"profile-with-fee-uups.sol\":3212:3219  usdtFee */\n      dup10\n        /* \"profile-with-fee-uups.sol\":3169:3220  UserProfileSent(_dstEid, msg.sender, name, usdtFee) */\n      mload(0x40)\n      tag_162\n      swap3\n      swap2\n      swap1\n      tag_163\n      jump\t// in\n    tag_162:\n      mload(0x40)\n      dup1\n      swap2\n      sub\n      swap1\n      log3\n        /* \"profile-with-fee-uups.sol\":2438:3227  {... */\n      pop\n      pop\n      pop\n        /* \"@openzeppelin/contracts-upgradeable/security/ReentrancyGuardUpgradeable.sol\":2568:2588  _nonReentrantAfter() */\n      tag_104\n        /* \"@openzeppelin/contracts-upgradeable/security/ReentrancyGuardUpgradeable.sol\":1808:1809  1 */\n      0x01\n        /* \"@openzeppelin/contracts-upgradeable/security/ReentrancyGuardUpgradeable.sol\":3074:3081  _status */\n      0x32\n        /* \"@openzeppelin/contracts-upgradeable/security/ReentrancyGuardUpgradeable.sol\":3074:3096  _status = _NOT_ENTERED */\n      sstore\n        /* \"@openzeppelin/contracts-upgradeable/security/ReentrancyGuardUpgradeable.sol\":2894:3103  function _nonReentrantAfter() private {... */\n      jump\n        /* \"profile-with-fee-uups.sol\":3233:3678  function quoteCreateUserProfile(... */\n    tag_60:\n      0x40\n      dup1\n      mload\n      dup1\n      dup3\n      add\n      swap1\n      swap2\n      mstore\n      0x00\n      dup1\n      dup3\n      mstore\n      0x20\n      dup3\n      add\n      mstore\n        /* \"profile-with-fee-uups.sol\":3492:3506  peers[_dstEid] */\n      0xffffffff\n      dup8\n      and\n        /* \"profile-with-fee-uups.sol\":3477:3489  bytes32 peer */\n      0x00\n        /* \"profile-with-fee-uups.sol\":3492:3506  peers[_dstEid] */\n      swap1\n      dup2\n      mstore\n        /* \"profile-with-fee-uups.sol\":3492:3497  peers */\n      0x01\n        /* \"profile-with-fee-uups.sol\":3492:3506  peers[_dstEid] */\n      0x20\n      mstore\n      0x40\n      swap1\n      keccak256\n      sload\n      dup1\n        /* \"profile-with-fee-uups.sol\":3516:3562  if (peer == bytes32(0)) revert NoPeer(_dstEid) */\n      tag_169\n      jumpi\n        /* \"profile-with-fee-uups.sol\":3547:3562  NoPeer(_dstEid) */\n      mload(0x40)\n      shl(0xe0, 0xf6ff4fb7)\n      dup2\n      mstore\n        /* \"#utility.yul\":11249:11259   */\n      0xffffffff\n        /* \"#utility.yul\":11237:11260   */\n      dup10\n      and\n        /* \"profile-with-fee-uups.sol\":3547:3562  NoPeer(_dstEid) */\n      0x04\n      dup3\n      add\n        /* \"#utility.yul\":11219:11261   */\n      mstore\n        /* \"#utility.yul\":11192:11210   */\n      0x24\n      add\n        /* \"profile-with-fee-uups.sol\":3547:3562  NoPeer(_dstEid) */\n      tag_105\n        /* \"#utility.yul\":11075:11267   */\n      jump\n        /* \"profile-with-fee-uups.sol\":3516:3562  if (peer == bytes32(0)) revert NoPeer(_dstEid) */\n    tag_169:\n        /* \"profile-with-fee-uups.sol\":3588:3671  _quote(_dstEid, abi.encode(msg.sender, name, skills, profileHash), _options, false) */\n      tag_171\n        /* \"profile-with-fee-uups.sol\":3595:3602  _dstEid */\n      dup9\n        /* \"profile-with-fee-uups.sol\":3615:3625  msg.sender */\n      caller\n        /* \"profile-with-fee-uups.sol\":3627:3631  name */\n      dup10\n        /* \"profile-with-fee-uups.sol\":3633:3639  skills */\n      dup10\n        /* \"profile-with-fee-uups.sol\":3641:3652  profileHash */\n      dup10\n        /* \"profile-with-fee-uups.sol\":3604:3653  abi.encode(msg.sender, name, skills, profileHash) */\n      add(0x20, mload(0x40))\n      tag_172\n      swap5\n      swap4\n      swap3\n      swap2\n      swap1\n      tag_154\n      jump\t// in\n    tag_172:\n      0x40\n      dup1\n      mload\n      not(0x1f)\n      dup2\n      dup5\n      sub\n      add\n      dup2\n      mstore\n      0x20\n        /* \"profile-with-fee-uups.sol\":3588:3671  _quote(_dstEid, abi.encode(msg.sender, name, skills, profileHash), _options, false) */\n      0x1f\n      dup10\n      add\n      dup2\n      swap1\n      div\n      dup2\n      mul\n      dup5\n      add\n      dup2\n      add\n      swap1\n      swap3\n      mstore\n      dup8\n      dup4\n      mstore\n        /* \"profile-with-fee-uups.sol\":3604:3653  abi.encode(msg.sender, name, skills, profileHash) */\n      swap2\n      swap1\n        /* \"profile-with-fee-uups.sol\":3655:3663  _options */\n      dup9\n      swap1\n      dup9\n      swap1\n      dup2\n      swap1\n        /* \"profile-with-fee-uups.sol\":3588:3671  _quote(_dstEid, abi.encode(msg.sender, name, skills, profileHash), _options, false) */\n      dup5\n      add\n        /* \"profile-with-fee-uups.sol\":3655:3663  _options */\n      dup4\n      dup3\n      dup1\n      dup3\n        /* \"profile-with-fee-uups.sol\":3588:3671  _quote(_dstEid, abi.encode(msg.sender, name, skills, profileHash), _options, false) */\n      dup5\n      calldatacopy\n      0x00\n      swap3\n      add\n      dup3\n      swap1\n      mstore\n      pop\n      swap3\n      pop\n        /* \"profile-with-fee-uups.sol\":3588:3594  _quote */\n      tag_156\n      swap2\n      pop\n      pop\n        /* \"profile-with-fee-uups.sol\":3588:3671  _quote(_dstEid, abi.encode(msg.sender, name, skills, profileHash), _options, false) */\n      jump\t// in\n    tag_171:\n        /* \"profile-with-fee-uups.sol\":3581:3671  return _quote(_dstEid, abi.encode(msg.sender, name, skills, profileHash), _options, false) */\n      swap9\n        /* \"profile-with-fee-uups.sol\":3233:3678  function quoteCreateUserProfile(... */\n      swap8\n      pop\n      pop\n      pop\n      pop\n      pop\n      pop\n      pop\n      pop\n      jump\t// out\n        /* \"@openzeppelin/contracts-upgradeable/access/OwnableUpgradeable.sol\":3155:3256  function renounceOwnership() public virtual onlyOwner {... */\n    tag_65:\n        /* \"@openzeppelin/contracts-upgradeable/access/OwnableUpgradeable.sol\":2334:2347  _checkOwner() */\n      tag_174\n        /* \"@openzeppelin/contracts-upgradeable/access/OwnableUpgradeable.sol\":2334:2345  _checkOwner */\n      tag_110\n        /* \"@openzeppelin/contracts-upgradeable/access/OwnableUpgradeable.sol\":2334:2347  _checkOwner() */\n      jump\t// in\n    tag_174:\n        /* \"@openzeppelin/contracts-upgradeable/access/OwnableUpgradeable.sol\":3219:3249  _transferOwnership(address(0)) */\n      tag_176\n        /* \"@openzeppelin/contracts-upgradeable/access/OwnableUpgradeable.sol\":3246:3247  0 */\n      0x00\n        /* \"@openzeppelin/contracts-upgradeable/access/OwnableUpgradeable.sol\":3219:3237  _transferOwnership */\n      tag_177\n        /* \"@openzeppelin/contracts-upgradeable/access/OwnableUpgradeable.sol\":3219:3249  _transferOwnership(address(0)) */\n      jump\t// in\n    tag_176:\n        /* \"@openzeppelin/contracts-upgradeable/access/OwnableUpgradeable.sol\":3155:3256  function renounceOwnership() public virtual onlyOwner {... */\n      jump\t// out\n        /* \"profile-with-fee-uups.sol\":3939:4122  function withdrawFees(address to, uint256 amount) external onlyOwner {... */\n    tag_75:\n        /* \"@openzeppelin/contracts-upgradeable/access/OwnableUpgradeable.sol\":2334:2347  _checkOwner() */\n      tag_182\n        /* \"@openzeppelin/contracts-upgradeable/access/OwnableUpgradeable.sol\":2334:2345  _checkOwner */\n      tag_110\n        /* \"@openzeppelin/contracts-upgradeable/access/OwnableUpgradeable.sol\":2334:2347  _checkOwner() */\n      jump\t// in\n    tag_182:\n        /* \"profile-with-fee-uups.sol\":4026:4034  usdToken */\n      sload(0x64)\n        /* \"profile-with-fee-uups.sol\":4026:4055  usdToken.transfer(to, amount) */\n      mload(0x40)\n      shl(0xe0, 0xa9059cbb)\n      dup2\n      mstore\n      sub(shl(0xa0, 0x01), 0x01)\n        /* \"#utility.yul\":14328:14383   */\n      dup5\n      dup2\n      and\n        /* \"profile-with-fee-uups.sol\":4026:4055  usdToken.transfer(to, amount) */\n      0x04\n      dup4\n      add\n        /* \"#utility.yul\":14310:14384   */\n      mstore\n        /* \"#utility.yul\":14400:14418   */\n      0x24\n      dup3\n      add\n        /* \"#utility.yul\":14393:14427   */\n      dup5\n      swap1\n      mstore\n        /* \"profile-with-fee-uups.sol\":4026:4034  usdToken */\n      swap1\n      swap2\n      and\n      swap1\n        /* \"profile-with-fee-uups.sol\":4026:4043  usdToken.transfer */\n      0xa9059cbb\n      swap1\n        /* \"#utility.yul\":14283:14301   */\n      0x44\n      add\n        /* \"profile-with-fee-uups.sol\":4026:4055  usdToken.transfer(to, amount) */\n      0x20\n      mload(0x40)\n      dup1\n      dup4\n      sub\n      dup2\n      0x00\n      dup8\n      gas\n      call\n      iszero\n      dup1\n      iszero\n      tag_187\n      jumpi\n      returndatasize\n      0x00\n      dup1\n      returndatacopy\n      revert(0x00, returndatasize)\n    tag_187:\n      pop\n      pop\n      pop\n      pop\n      mload(0x40)\n      returndatasize\n      not(0x1f)\n      0x1f\n      dup3\n      add\n      and\n      dup3\n      add\n      dup1\n      0x40\n      mstore\n      pop\n      dup2\n      add\n      swap1\n      tag_188\n      swap2\n      swap1\n      tag_149\n      jump\t// in\n    tag_188:\n        /* \"profile-with-fee-uups.sol\":4018:4075  require(usdToken.transfer(to, amount), \"Withdraw failed\") */\n      tag_189\n      jumpi\n      mload(0x40)\n      shl(0xe5, 0x461bcd)\n      dup2\n      mstore\n        /* \"#utility.yul\":14640:14642   */\n      0x20\n        /* \"profile-with-fee-uups.sol\":4018:4075  require(usdToken.transfer(to, amount), \"Withdraw failed\") */\n      0x04\n      dup3\n      add\n        /* \"#utility.yul\":14622:14643   */\n      mstore\n        /* \"#utility.yul\":14679:14681   */\n      0x0f\n        /* \"#utility.yul\":14659:14677   */\n      0x24\n      dup3\n      add\n        /* \"#utility.yul\":14652:14682   */\n      mstore\n      shl(0x8a, 0x15da5d1a191c985dc819985a5b1959)\n        /* \"#utility.yul\":14698:14716   */\n      0x44\n      dup3\n      add\n        /* \"#utility.yul\":14691:14736   */\n      mstore\n        /* \"#utility.yul\":14753:14771   */\n      0x64\n      add\n        /* \"profile-with-fee-uups.sol\":4018:4075  require(usdToken.transfer(to, amount), \"Withdraw failed\") */\n      tag_105\n        /* \"#utility.yul\":14438:14777   */\n      jump\n        /* \"profile-with-fee-uups.sol\":4018:4075  require(usdToken.transfer(to, amount), \"Withdraw failed\") */\n    tag_189:\n        /* \"profile-with-fee-uups.sol\":4104:4106  to */\n      dup2\n      sub(shl(0xa0, 0x01), 0x01)\n        /* \"profile-with-fee-uups.sol\":4090:4115  FeesWithdrawn(to, amount) */\n      and\n      0xc0819c13be868895eb93e40eaceb96de976442fa1d404e5c55f14bb65a8c489a\n        /* \"profile-with-fee-uups.sol\":4108:4114  amount */\n      dup3\n        /* \"profile-with-fee-uups.sol\":4090:4115  FeesWithdrawn(to, amount) */\n      mload(0x40)\n      tag_114\n      swap2\n        /* \"#utility.yul\":3626:3651   */\n      dup2\n      mstore\n        /* \"#utility.yul\":3614:3616   */\n      0x20\n        /* \"#utility.yul\":3599:3617   */\n      add\n      swap1\n        /* \"#utility.yul\":3480:3657   */\n      jump\n        /* \"profile-with-fee-uups.sol\":1687:1938  function initialize(... */\n    tag_90:\n        /* \"@openzeppelin/contracts-upgradeable/proxy/utils/Initializable.sol\":3147:3213  0xf0c57e16840df040f15088dc2f81fe391c3923bec73e23a9662efc9c229c6a00 */\n      0xf0c57e16840df040f15088dc2f81fe391c3923bec73e23a9662efc9c229c6a00\n        /* \"@openzeppelin/contracts-upgradeable/proxy/utils/Initializable.sol\":4302:4317  $._initializing */\n      dup1\n      sload\n      shl(0x40, 0x01)\n      dup2\n      div\n      0xff\n      and\n        /* \"@openzeppelin/contracts-upgradeable/proxy/utils/Initializable.sol\":4301:4317  !$._initializing */\n      iszero\n      swap1\n      sub(shl(0x40, 0x01), 0x01)\n        /* \"@openzeppelin/contracts-upgradeable/proxy/utils/Initializable.sol\":4348:4362  $._initialized */\n      and\n        /* \"@openzeppelin/contracts-upgradeable/proxy/utils/Initializable.sol\":4158:4188  InitializableStorage storage $ */\n      0x00\n        /* \"@openzeppelin/contracts-upgradeable/proxy/utils/Initializable.sol\":4724:4740  initialized == 0 */\n      dup2\n      iszero\n        /* \"@openzeppelin/contracts-upgradeable/proxy/utils/Initializable.sol\":4724:4758  initialized == 0 && isTopLevelCall */\n      dup1\n      iszero\n      tag_197\n      jumpi\n      pop\n        /* \"@openzeppelin/contracts-upgradeable/proxy/utils/Initializable.sol\":4744:4758  isTopLevelCall */\n      dup3\n        /* \"@openzeppelin/contracts-upgradeable/proxy/utils/Initializable.sol\":4724:4758  initialized == 0 && isTopLevelCall */\n    tag_197:\n        /* \"@openzeppelin/contracts-upgradeable/proxy/utils/Initializable.sol\":4704:4758  bool initialSetup = initialized == 0 && isTopLevelCall */\n      swap1\n      pop\n        /* \"@openzeppelin/contracts-upgradeable/proxy/utils/Initializable.sol\":4768:4785  bool construction */\n      0x00\n        /* \"@openzeppelin/contracts-upgradeable/proxy/utils/Initializable.sol\":4788:4799  initialized */\n      dup3\n      sub(shl(0x40, 0x01), 0x01)\n        /* \"@openzeppelin/contracts-upgradeable/proxy/utils/Initializable.sol\":4788:4804  initialized == 1 */\n      and\n        /* \"@openzeppelin/contracts-upgradeable/proxy/utils/Initializable.sol\":4803:4804  1 */\n      0x01\n        /* \"@openzeppelin/contracts-upgradeable/proxy/utils/Initializable.sol\":4788:4804  initialized == 1 */\n      eq\n        /* \"@openzeppelin/contracts-upgradeable/proxy/utils/Initializable.sol\":4788:4838  initialized == 1 && address(this).code.length == 0 */\n      dup1\n      iszero\n      tag_198\n      jumpi\n      pop\n        /* \"@openzeppelin/contracts-upgradeable/proxy/utils/Initializable.sol\":4816:4820  this */\n      address\n        /* \"@openzeppelin/contracts-upgradeable/proxy/utils/Initializable.sol\":4808:4833  address(this).code.length */\n      extcodesize\n        /* \"@openzeppelin/contracts-upgradeable/proxy/utils/Initializable.sol\":4808:4838  address(this).code.length == 0 */\n      iszero\n        /* \"@openzeppelin/contracts-upgradeable/proxy/utils/Initializable.sol\":4788:4838  initialized == 1 && address(this).code.length == 0 */\n    tag_198:\n        /* \"@openzeppelin/contracts-upgradeable/proxy/utils/Initializable.sol\":4768:4838  bool construction = initialized == 1 && address(this).code.length == 0 */\n      swap1\n      pop\n        /* \"@openzeppelin/contracts-upgradeable/proxy/utils/Initializable.sol\":4854:4866  initialSetup */\n      dup2\n        /* \"@openzeppelin/contracts-upgradeable/proxy/utils/Initializable.sol\":4853:4866  !initialSetup */\n      iszero\n        /* \"@openzeppelin/contracts-upgradeable/proxy/utils/Initializable.sol\":4853:4883  !initialSetup && !construction */\n      dup1\n      iszero\n      tag_199\n      jumpi\n      pop\n        /* \"@openzeppelin/contracts-upgradeable/proxy/utils/Initializable.sol\":4871:4883  construction */\n      dup1\n        /* \"@openzeppelin/contracts-upgradeable/proxy/utils/Initializable.sol\":4870:4883  !construction */\n      iszero\n        /* \"@openzeppelin/contracts-upgradeable/proxy/utils/Initializable.sol\":4853:4883  !initialSetup && !construction */\n    tag_199:\n        /* \"@openzeppelin/contracts-upgradeable/proxy/utils/Initializable.sol\":4849:4940  if (!initialSetup && !construction) {... */\n      iszero\n      tag_200\n      jumpi\n        /* \"@openzeppelin/contracts-upgradeable/proxy/utils/Initializable.sol\":4906:4929  InvalidInitialization() */\n      mload(0x40)\n      shl(0xe0, 0xf92ee8a9)\n      dup2\n      mstore\n      0x04\n      add\n      mload(0x40)\n      dup1\n      swap2\n      sub\n      swap1\n      revert\n        /* \"@openzeppelin/contracts-upgradeable/proxy/utils/Initializable.sol\":4849:4940  if (!initialSetup && !construction) {... */\n    tag_200:\n        /* \"@openzeppelin/contracts-upgradeable/proxy/utils/Initializable.sol\":4949:4967  $._initialized = 1 */\n      dup5\n      sload\n      not(0xffffffffffffffff)\n      and\n        /* \"@openzeppelin/contracts-upgradeable/proxy/utils/Initializable.sol\":4966:4967  1 */\n      0x01\n        /* \"@openzeppelin/contracts-upgradeable/proxy/utils/Initializable.sol\":4949:4967  $._initialized = 1 */\n      or\n      dup6\n      sstore\n        /* \"@openzeppelin/contracts-upgradeable/proxy/utils/Initializable.sol\":4977:5044  if (isTopLevelCall) {... */\n      dup4\n      iszero\n      tag_201\n      jumpi\n        /* \"@openzeppelin/contracts-upgradeable/proxy/utils/Initializable.sol\":5011:5033  $._initializing = true */\n      dup5\n      sload\n      not(shl(0x40, 0xff))\n      and\n      shl(0x40, 0x01)\n      or\n      dup6\n      sstore\n        /* \"@openzeppelin/contracts-upgradeable/proxy/utils/Initializable.sol\":4977:5044  if (isTopLevelCall) {... */\n    tag_201:\n        /* \"profile-with-fee-uups.sol\":1820:1859  __BaseLayerZero_init(_endpoint, _owner) */\n      tag_203\n        /* \"profile-with-fee-uups.sol\":1841:1850  _endpoint */\n      dup9\n        /* \"profile-with-fee-uups.sol\":1852:1858  _owner */\n      dup9\n        /* \"profile-with-fee-uups.sol\":1820:1840  __BaseLayerZero_init */\n      tag_204\n        /* \"profile-with-fee-uups.sol\":1820:1859  __BaseLayerZero_init(_endpoint, _owner) */\n      jump\t// in\n    tag_203:\n        /* \"profile-with-fee-uups.sol\":1869:1893  __ReentrancyGuard_init() */\n      tag_205\n        /* \"profile-with-fee-uups.sol\":1869:1891  __ReentrancyGuard_init */\n      tag_206\n        /* \"profile-with-fee-uups.sol\":1869:1893  __ReentrancyGuard_init() */\n      jump\t// in\n    tag_205:\n        /* \"profile-with-fee-uups.sol\":1903:1911  usdToken */\n      0x64\n        /* \"profile-with-fee-uups.sol\":1903:1931  usdToken = IERC20(_usdToken) */\n      dup1\n      sload\n      not(sub(shl(0xa0, 0x01), 0x01))\n      and\n      sub(shl(0xa0, 0x01), 0x01)\n      dup9\n      and\n      or\n      swap1\n      sstore\n        /* \"@openzeppelin/contracts-upgradeable/proxy/utils/Initializable.sol\":5064:5165  if (isTopLevelCall) {... */\n      dup4\n      iszero\n      tag_207\n      jumpi\n        /* \"@openzeppelin/contracts-upgradeable/proxy/utils/Initializable.sol\":5098:5121  $._initializing = false */\n      dup5\n      sload\n      not(shl(0x40, 0xff))\n      and\n      dup6\n      sstore\n        /* \"@openzeppelin/contracts-upgradeable/proxy/utils/Initializable.sol\":5140:5154  Initialized(1) */\n      mload(0x40)\n      0x01\n        /* \"#utility.yul\":15117:15167   */\n      dup2\n      mstore\n        /* \"@openzeppelin/contracts-upgradeable/proxy/utils/Initializable.sol\":5140:5154  Initialized(1) */\n      0xc7f505b2f371ae2175ee4913f4499e1f2633a7b5936321eed1cdaeb6115181d2\n      swap1\n        /* \"#utility.yul\":15105:15107   */\n      0x20\n        /* \"#utility.yul\":15090:15108   */\n      add\n        /* \"@openzeppelin/contracts-upgradeable/proxy/utils/Initializable.sol\":5140:5154  Initialized(1) */\n      mload(0x40)\n      dup1\n      swap2\n      sub\n      swap1\n      log1\n        /* \"@openzeppelin/contracts-upgradeable/proxy/utils/Initializable.sol\":5064:5165  if (isTopLevelCall) {... */\n    tag_207:\n        /* \"@openzeppelin/contracts-upgradeable/proxy/utils/Initializable.sol\":4092:5171  {... */\n      pop\n      pop\n      pop\n      pop\n      pop\n        /* \"profile-with-fee-uups.sol\":1687:1938  function initialize(... */\n      pop\n      pop\n      pop\n      jump\t// out\n        /* \"@openzeppelin/contracts-upgradeable/access/OwnableUpgradeable.sol\":3405:3620  function transferOwnership(address newOwner) public virtual onlyOwner {... */\n    tag_95:\n        /* \"@openzeppelin/contracts-upgradeable/access/OwnableUpgradeable.sol\":2334:2347  _checkOwner() */\n      tag_211\n        /* \"@openzeppelin/contracts-upgradeable/access/OwnableUpgradeable.sol\":2334:2345  _checkOwner */\n      tag_110\n        /* \"@openzeppelin/contracts-upgradeable/access/OwnableUpgradeable.sol\":2334:2347  _checkOwner() */\n      jump\t// in\n    tag_211:\n      sub(shl(0xa0, 0x01), 0x01)\n        /* \"@openzeppelin/contracts-upgradeable/access/OwnableUpgradeable.sol\":3489:3511  newOwner == address(0) */\n      dup2\n      and\n        /* \"@openzeppelin/contracts-upgradeable/access/OwnableUpgradeable.sol\":3485:3576  if (newOwner == address(0)) {... */\n      tag_213\n      jumpi\n        /* \"@openzeppelin/contracts-upgradeable/access/OwnableUpgradeable.sol\":3534:3565  OwnableInvalidOwner(address(0)) */\n      mload(0x40)\n      shl(0xe0, 0x1e4fbdf7)\n      dup2\n      mstore\n        /* \"@openzeppelin/contracts-upgradeable/access/OwnableUpgradeable.sol\":3562:3563  0 */\n      0x00\n        /* \"@openzeppelin/contracts-upgradeable/access/OwnableUpgradeable.sol\":3534:3565  OwnableInvalidOwner(address(0)) */\n      0x04\n      dup3\n      add\n        /* \"#utility.yul\":4592:4666   */\n      mstore\n        /* \"#utility.yul\":4565:4583   */\n      0x24\n      add\n        /* \"@openzeppelin/contracts-upgradeable/access/OwnableUpgradeable.sol\":3534:3565  OwnableInvalidOwner(address(0)) */\n      tag_105\n        /* \"#utility.yul\":4418:4672   */\n      jump\n        /* \"@openzeppelin/contracts-upgradeable/access/OwnableUpgradeable.sol\":3485:3576  if (newOwner == address(0)) {... */\n    tag_213:\n        /* \"@openzeppelin/contracts-upgradeable/access/OwnableUpgradeable.sol\":3585:3613  _transferOwnership(newOwner) */\n      tag_215\n        /* \"@openzeppelin/contracts-upgradeable/access/OwnableUpgradeable.sol\":3604:3612  newOwner */\n      dup2\n        /* \"@openzeppelin/contracts-upgradeable/access/OwnableUpgradeable.sol\":3585:3603  _transferOwnership */\n      tag_177\n        /* \"@openzeppelin/contracts-upgradeable/access/OwnableUpgradeable.sol\":3585:3613  _transferOwnership(newOwner) */\n      jump\t// in\n    tag_215:\n        /* \"@openzeppelin/contracts-upgradeable/access/OwnableUpgradeable.sol\":3405:3620  function transferOwnership(address newOwner) public virtual onlyOwner {... */\n      pop\n      jump\t// out\n        /* \"@openzeppelin/contracts-upgradeable/access/OwnableUpgradeable.sol\":2658:2820  function _checkOwner() internal view virtual {... */\n    tag_110:\n        /* \"@openzeppelin/contracts-upgradeable/utils/ContextUpgradeable.sol\":966:976  msg.sender */\n      caller\n        /* \"@openzeppelin/contracts-upgradeable/access/OwnableUpgradeable.sol\":2717:2724  owner() */\n      tag_220\n        /* \"@openzeppelin/contracts-upgradeable/access/OwnableUpgradeable.sol\":1313:1335  OwnableStorageLocation */\n      0x9016d09d72d40fdae2fd8ceac6b6234c7706214fd39c1cd1e609a0528c199300\n        /* \"@openzeppelin/contracts-upgradeable/access/OwnableUpgradeable.sol\":2570:2578  $._owner */\n      sload\n      sub(shl(0xa0, 0x01), 0x01)\n      and\n      swap1\n        /* \"@openzeppelin/contracts-upgradeable/access/OwnableUpgradeable.sol\":2441:2585  function owner() public view virtual returns (address) {... */\n      jump\n        /* \"@openzeppelin/contracts-upgradeable/access/OwnableUpgradeable.sol\":2717:2724  owner() */\n    tag_220:\n      sub(shl(0xa0, 0x01), 0x01)\n        /* \"@openzeppelin/contracts-upgradeable/access/OwnableUpgradeable.sol\":2717:2740  owner() != _msgSender() */\n      and\n      eq\n        /* \"@openzeppelin/contracts-upgradeable/access/OwnableUpgradeable.sol\":2713:2814  if (owner() != _msgSender()) {... */\n      tag_176\n      jumpi\n        /* \"@openzeppelin/contracts-upgradeable/access/OwnableUpgradeable.sol\":2763:2803  OwnableUnauthorizedAccount(_msgSender()) */\n      mload(0x40)\n      shl(0xe0, 0x118cdaa7)\n      dup2\n      mstore\n        /* \"@openzeppelin/contracts-upgradeable/utils/ContextUpgradeable.sol\":966:976  msg.sender */\n      caller\n        /* \"@openzeppelin/contracts-upgradeable/access/OwnableUpgradeable.sol\":2763:2803  OwnableUnauthorizedAccount(_msgSender()) */\n      0x04\n      dup3\n      add\n        /* \"#utility.yul\":4592:4666   */\n      mstore\n        /* \"#utility.yul\":4565:4583   */\n      0x24\n      add\n        /* \"@openzeppelin/contracts-upgradeable/access/OwnableUpgradeable.sol\":2763:2803  OwnableUnauthorizedAccount(_msgSender()) */\n      tag_105\n        /* \"#utility.yul\":4418:4672   */\n      jump\n        /* \"@openzeppelin/contracts-upgradeable/proxy/utils/UUPSUpgradeable.sol\":4578:4890  function _checkProxy() internal view virtual {... */\n    tag_117:\n        /* \"@openzeppelin/contracts-upgradeable/proxy/utils/UUPSUpgradeable.sol\":4658:4662  this */\n      address\n      sub(shl(0xa0, 0x01), 0x01)\n        /* \"@openzeppelin/contracts-upgradeable/proxy/utils/UUPSUpgradeable.sol\":4667:4673  __self */\n      immutable(\"0x59f40d5fdf1977cb80169560e7963351b8a751d0f730a704cbdf6c389513ebdb\")\n        /* \"@openzeppelin/contracts-upgradeable/proxy/utils/UUPSUpgradeable.sol\":4650:4673  address(this) == __self */\n      and\n      eq\n      dup1\n        /* \"@openzeppelin/contracts-upgradeable/proxy/utils/UUPSUpgradeable.sol\":4650:4770  address(this) == __self || // Must be called through delegatecall... */\n      tag_225\n      jumpi\n      pop\n        /* \"@openzeppelin/contracts-upgradeable/proxy/utils/UUPSUpgradeable.sol\":4764:4770  __self */\n      immutable(\"0x59f40d5fdf1977cb80169560e7963351b8a751d0f730a704cbdf6c389513ebdb\")\n      sub(shl(0xa0, 0x01), 0x01)\n        /* \"@openzeppelin/contracts-upgradeable/proxy/utils/UUPSUpgradeable.sol\":4728:4770  ERC1967Utils.getImplementation() != __self */\n      and\n        /* \"@openzeppelin/contracts-upgradeable/proxy/utils/UUPSUpgradeable.sol\":4728:4760  ERC1967Utils.getImplementation() */\n      tag_226\n        /* \"@openzeppelin/contracts/proxy/ERC1967/ERC1967Utils.sol\":811:877  0x360894a13ba1a3210667c828492db98dca3e2076cc3735a920a3ca505d382bbc */\n      0x360894a13ba1a3210667c828492db98dca3e2076cc3735a920a3ca505d382bbc\n        /* \"@openzeppelin/contracts/proxy/ERC1967/ERC1967Utils.sol\":1519:1572  StorageSlot.getAddressSlot(IMPLEMENTATION_SLOT).value */\n      sload\n      sub(shl(0xa0, 0x01), 0x01)\n      and\n      swap1\n        /* \"@openzeppelin/contracts/proxy/ERC1967/ERC1967Utils.sol\":1441:1579  function getImplementation() internal view returns (address) {... */\n      jump\n        /* \"@openzeppelin/contracts-upgradeable/proxy/utils/UUPSUpgradeable.sol\":4728:4760  ERC1967Utils.getImplementation() */\n    tag_226:\n      sub(shl(0xa0, 0x01), 0x01)\n        /* \"@openzeppelin/contracts-upgradeable/proxy/utils/UUPSUpgradeable.sol\":4728:4770  ERC1967Utils.getImplementation() != __self */\n      and\n      eq\n      iszero\n        /* \"@openzeppelin/contracts-upgradeable/proxy/utils/UUPSUpgradeable.sol\":4650:4770  address(this) == __self || // Must be called through delegatecall... */\n    tag_225:\n        /* \"@openzeppelin/contracts-upgradeable/proxy/utils/UUPSUpgradeable.sol\":4633:4884  if (... */\n      iszero\n      tag_176\n      jumpi\n        /* \"@openzeppelin/contracts-upgradeable/proxy/utils/UUPSUpgradeable.sol\":4844:4873  UUPSUnauthorizedCallContext() */\n      mload(0x40)\n      shl(0xe1, 0x703e46dd)\n      dup2\n      mstore\n      0x04\n      add\n      mload(0x40)\n      dup1\n      swap2\n      sub\n      swap1\n      revert\n        /* \"BaseLayerZeroUpgradeable.sol\":5247:5331  function _authorizeUpgrade(address newImplementation) internal override onlyOwner {} */\n    tag_120:\n        /* \"@openzeppelin/contracts-upgradeable/access/OwnableUpgradeable.sol\":2334:2347  _checkOwner() */\n      tag_215\n        /* \"@openzeppelin/contracts-upgradeable/access/OwnableUpgradeable.sol\":2334:2345  _checkOwner */\n      tag_110\n        /* \"@openzeppelin/contracts-upgradeable/access/OwnableUpgradeable.sol\":2334:2347  _checkOwner() */\n      jump\t// in\n        /* \"@openzeppelin/contracts-upgradeable/proxy/utils/UUPSUpgradeable.sol\":6032:6570  function _upgradeToAndCallUUPS(address newImplementation, bytes memory data) private {... */\n    tag_122:\n        /* \"@openzeppelin/contracts-upgradeable/proxy/utils/UUPSUpgradeable.sol\":6149:6166  newImplementation */\n      dup2\n      sub(shl(0xa0, 0x01), 0x01)\n        /* \"@openzeppelin/contracts-upgradeable/proxy/utils/UUPSUpgradeable.sol\":6131:6181  IERC1822Proxiable(newImplementation).proxiableUUID */\n      and\n      0x52d1902d\n        /* \"@openzeppelin/contracts-upgradeable/proxy/utils/UUPSUpgradeable.sol\":6131:6183  IERC1822Proxiable(newImplementation).proxiableUUID() */\n      mload(0x40)\n      dup2\n      0xffffffff\n      and\n      0xe0\n      shl\n      dup2\n      mstore\n      0x04\n      add\n      0x20\n      mload(0x40)\n      dup1\n      dup4\n      sub\n      dup2\n      dup7\n      gas\n      staticcall\n      swap3\n      pop\n      pop\n      pop\n      dup1\n      iszero\n      tag_233\n      jumpi\n      pop\n      0x40\n      dup1\n      mload\n      0x1f\n      returndatasize\n      swap1\n      dup2\n      add\n      not(0x1f)\n      and\n      dup3\n      add\n      swap1\n      swap3\n      mstore\n      tag_234\n      swap2\n      dup2\n      add\n      swap1\n      tag_235\n      jump\t// in\n    tag_234:\n      0x01\n    tag_233:\n        /* \"@openzeppelin/contracts-upgradeable/proxy/utils/UUPSUpgradeable.sol\":6127:6564  try IERC1822Proxiable(newImplementation).proxiableUUID() returns (bytes32 slot) {... */\n      tag_236\n      jumpi\n        /* \"@openzeppelin/contracts-upgradeable/proxy/utils/UUPSUpgradeable.sol\":6493:6553  ERC1967Utils.ERC1967InvalidImplementation(newImplementation) */\n      mload(0x40)\n      shl(0xe0, 0x4c9c8ce3)\n      dup2\n      mstore\n      sub(shl(0xa0, 0x01), 0x01)\n        /* \"#utility.yul\":4610:4665   */\n      dup4\n      and\n        /* \"@openzeppelin/contracts-upgradeable/proxy/utils/UUPSUpgradeable.sol\":6493:6553  ERC1967Utils.ERC1967InvalidImplementation(newImplementation) */\n      0x04\n      dup3\n      add\n        /* \"#utility.yul\":4592:4666   */\n      mstore\n        /* \"#utility.yul\":4565:4583   */\n      0x24\n      add\n        /* \"@openzeppelin/contracts-upgradeable/proxy/utils/UUPSUpgradeable.sol\":6493:6553  ERC1967Utils.ERC1967InvalidImplementation(newImplementation) */\n      tag_105\n        /* \"#utility.yul\":4418:4672   */\n      jump\n        /* \"@openzeppelin/contracts-upgradeable/proxy/utils/UUPSUpgradeable.sol\":6127:6564  try IERC1822Proxiable(newImplementation).proxiableUUID() returns (bytes32 slot) {... */\n    tag_236:\n        /* \"@openzeppelin/contracts/proxy/ERC1967/ERC1967Utils.sol\":811:877  0x360894a13ba1a3210667c828492db98dca3e2076cc3735a920a3ca505d382bbc */\n      0x360894a13ba1a3210667c828492db98dca3e2076cc3735a920a3ca505d382bbc\n        /* \"@openzeppelin/contracts-upgradeable/proxy/utils/UUPSUpgradeable.sol\":6225:6265  slot != ERC1967Utils.IMPLEMENTATION_SLOT */\n      dup2\n      eq\n        /* \"@openzeppelin/contracts-upgradeable/proxy/utils/UUPSUpgradeable.sol\":6221:6341  if (slot != ERC1967Utils.IMPLEMENTATION_SLOT) {... */\n      tag_242\n      jumpi\n        /* \"@openzeppelin/contracts-upgradeable/proxy/utils/UUPSUpgradeable.sol\":6292:6326  UUPSUnsupportedProxiableUUID(slot) */\n      mload(0x40)\n      shl(0xe2, 0x2a875269)\n      dup2\n      mstore\n      0x04\n      dup2\n      add\n        /* \"#utility.yul\":3626:3651   */\n      dup3\n      swap1\n      mstore\n        /* \"#utility.yul\":3599:3617   */\n      0x24\n      add\n        /* \"@openzeppelin/contracts-upgradeable/proxy/utils/UUPSUpgradeable.sol\":6292:6326  UUPSUnsupportedProxiableUUID(slot) */\n      tag_105\n        /* \"#utility.yul\":3480:3657   */\n      jump\n        /* \"@openzeppelin/contracts-upgradeable/proxy/utils/UUPSUpgradeable.sol\":6221:6341  if (slot != ERC1967Utils.IMPLEMENTATION_SLOT) {... */\n    tag_242:\n        /* \"@openzeppelin/contracts-upgradeable/proxy/utils/UUPSUpgradeable.sol\":6354:6408  ERC1967Utils.upgradeToAndCall(newImplementation, data) */\n      tag_244\n        /* \"@openzeppelin/contracts-upgradeable/proxy/utils/UUPSUpgradeable.sol\":6384:6401  newImplementation */\n      dup4\n        /* \"@openzeppelin/contracts-upgradeable/proxy/utils/UUPSUpgradeable.sol\":6403:6407  data */\n      dup4\n        /* \"@openzeppelin/contracts-upgradeable/proxy/utils/UUPSUpgradeable.sol\":6354:6383  ERC1967Utils.upgradeToAndCall */\n      tag_245\n        /* \"@openzeppelin/contracts-upgradeable/proxy/utils/UUPSUpgradeable.sol\":6354:6408  ERC1967Utils.upgradeToAndCall(newImplementation, data) */\n      jump\t// in\n    tag_244:\n        /* \"@openzeppelin/contracts-upgradeable/proxy/utils/UUPSUpgradeable.sol\":6184:6419  returns (bytes32 slot) {... */\n      pop\n        /* \"@openzeppelin/contracts-upgradeable/proxy/utils/UUPSUpgradeable.sol\":6032:6570  function _upgradeToAndCallUUPS(address newImplementation, bytes memory data) private {... */\n      pop\n      pop\n      jump\t// out\n        /* \"@openzeppelin/contracts-upgradeable/proxy/utils/UUPSUpgradeable.sol\":5007:5220  function _checkNotDelegated() internal view virtual {... */\n    tag_125:\n        /* \"@openzeppelin/contracts-upgradeable/proxy/utils/UUPSUpgradeable.sol\":5081:5085  this */\n      address\n      sub(shl(0xa0, 0x01), 0x01)\n        /* \"@openzeppelin/contracts-upgradeable/proxy/utils/UUPSUpgradeable.sol\":5090:5096  __self */\n      immutable(\"0x59f40d5fdf1977cb80169560e7963351b8a751d0f730a704cbdf6c389513ebdb\")\n        /* \"@openzeppelin/contracts-upgradeable/proxy/utils/UUPSUpgradeable.sol\":5073:5096  address(this) != __self */\n      and\n      eq\n        /* \"@openzeppelin/contracts-upgradeable/proxy/utils/UUPSUpgradeable.sol\":5069:5214  if (address(this) != __self) {... */\n      tag_176\n      jumpi\n        /* \"@openzeppelin/contracts-upgradeable/proxy/utils/UUPSUpgradeable.sol\":5174:5203  UUPSUnauthorizedCallContext() */\n      mload(0x40)\n      shl(0xe1, 0x703e46dd)\n      dup2\n      mstore\n      0x04\n      add\n      mload(0x40)\n      dup1\n      swap2\n      sub\n      swap1\n      revert\n        /* \"@openzeppelin/contracts-upgradeable/security/ReentrancyGuardUpgradeable.sol\":2601:2888  function _nonReentrantBefore() private {... */\n    tag_130:\n        /* \"@openzeppelin/contracts-upgradeable/security/ReentrancyGuardUpgradeable.sol\":1851:1852  2 */\n      0x02\n        /* \"@openzeppelin/contracts-upgradeable/security/ReentrancyGuardUpgradeable.sol\":2733:2740  _status */\n      sload(0x32)\n        /* \"@openzeppelin/contracts-upgradeable/security/ReentrancyGuardUpgradeable.sol\":2733:2752  _status != _ENTERED */\n      sub\n        /* \"@openzeppelin/contracts-upgradeable/security/ReentrancyGuardUpgradeable.sol\":2725:2788  require(_status != _ENTERED, \"ReentrancyGuard: reentrant call\") */\n      tag_249\n      jumpi\n      mload(0x40)\n      shl(0xe5, 0x461bcd)\n      dup2\n      mstore\n        /* \"#utility.yul\":15615:15617   */\n      0x20\n        /* \"@openzeppelin/contracts-upgradeable/security/ReentrancyGuardUpgradeable.sol\":2725:2788  require(_status != _ENTERED, \"ReentrancyGuard: reentrant call\") */\n      0x04\n      dup3\n      add\n        /* \"#utility.yul\":15597:15618   */\n      mstore\n        /* \"#utility.yul\":15654:15656   */\n      0x1f\n        /* \"#utility.yul\":15634:15652   */\n      0x24\n      dup3\n      add\n        /* \"#utility.yul\":15627:15657   */\n      mstore\n        /* \"#utility.yul\":15693:15726   */\n      0x5265656e7472616e637947756172643a207265656e7472616e742063616c6c00\n        /* \"#utility.yul\":15673:15691   */\n      0x44\n      dup3\n      add\n        /* \"#utility.yul\":15666:15727   */\n      mstore\n        /* \"#utility.yul\":15744:15762   */\n      0x64\n      add\n        /* \"@openzeppelin/contracts-upgradeable/security/ReentrancyGuardUpgradeable.sol\":2725:2788  require(_status != _ENTERED, \"ReentrancyGuard: reentrant call\") */\n      tag_105\n        /* \"#utility.yul\":15413:15768   */\n      jump\n        /* \"@openzeppelin/contracts-upgradeable/security/ReentrancyGuardUpgradeable.sol\":2725:2788  require(_status != _ENTERED, \"ReentrancyGuard: reentrant call\") */\n    tag_249:\n        /* \"@openzeppelin/contracts-upgradeable/security/ReentrancyGuardUpgradeable.sol\":1851:1852  2 */\n      0x02\n        /* \"@openzeppelin/contracts-upgradeable/security/ReentrancyGuardUpgradeable.sol\":2863:2870  _status */\n      0x32\n        /* \"@openzeppelin/contracts-upgradeable/security/ReentrancyGuardUpgradeable.sol\":2863:2881  _status = _ENTERED */\n      sstore\n        /* \"@openzeppelin/contracts-upgradeable/security/ReentrancyGuardUpgradeable.sol\":2601:2888  function _nonReentrantBefore() private {... */\n      jump\t// out\n        /* \"BaseLayerZeroUpgradeable.sol\":3039:3529  function _quote(... */\n    tag_156:\n      0x40\n      dup1\n      mload\n      dup1\n      dup3\n      add\n      dup3\n      mstore\n      0x00\n      dup1\n      dup3\n      mstore\n      0x20\n      dup1\n      dup4\n      add\n      dup3\n      swap1\n      mstore\n        /* \"BaseLayerZeroUpgradeable.sol\":3236:3244  endpoint */\n      dup2\n      sload\n        /* \"BaseLayerZeroUpgradeable.sol\":3264:3485  MessagingParams({... */\n      dup5\n      mload\n      0xa0\n      dup2\n      add\n      dup7\n      mstore\n      0xffffffff\n      dup11\n      and\n      dup1\n      dup3\n      mstore\n        /* \"BaseLayerZeroUpgradeable.sol\":3341:3355  peers[_dstEid] */\n      dup5\n      mstore\n        /* \"BaseLayerZeroUpgradeable.sol\":3236:3244  endpoint */\n      0x01\n        /* \"BaseLayerZeroUpgradeable.sol\":3341:3355  peers[_dstEid] */\n      dup4\n      mstore\n      swap3\n      dup6\n      swap1\n      keccak256\n      sload\n        /* \"BaseLayerZeroUpgradeable.sol\":3264:3485  MessagingParams({... */\n      swap2\n      dup4\n      add\n      swap2\n      swap1\n      swap2\n      mstore\n      dup2\n      dup5\n      add\n      dup8\n      swap1\n      mstore\n      0x60\n      dup3\n      add\n      dup7\n      swap1\n      mstore\n      dup5\n      iszero\n      iszero\n      0x80\n      dup4\n      add\n      mstore\n        /* \"BaseLayerZeroUpgradeable.sol\":3236:3522  endpoint.quote(... */\n      swap3\n      mload\n      shl(0xe3, 0x1bb8518b)\n      dup2\n      mstore\n      swap2\n      swap3\n      sub(shl(0xa0, 0x01), 0x01)\n        /* \"BaseLayerZeroUpgradeable.sol\":3236:3244  endpoint */\n      and\n      swap2\n        /* \"BaseLayerZeroUpgradeable.sol\":3236:3250  endpoint.quote */\n      0xddc28c58\n      swap2\n        /* \"BaseLayerZeroUpgradeable.sol\":3236:3522  endpoint.quote(... */\n      tag_254\n      swap2\n        /* \"BaseLayerZeroUpgradeable.sol\":3507:3511  this */\n      address\n      swap1\n        /* \"BaseLayerZeroUpgradeable.sol\":3236:3522  endpoint.quote(... */\n      0x04\n      add\n      tag_255\n      jump\t// in\n    tag_254:\n      0x40\n      dup1\n      mload\n      dup1\n      dup4\n      sub\n      dup2\n      dup7\n      gas\n      staticcall\n      iszero\n      dup1\n      iszero\n      tag_257\n      jumpi\n      returndatasize\n      0x00\n      dup1\n      returndatacopy\n      revert(0x00, returndatasize)\n    tag_257:\n      pop\n      pop\n      pop\n      pop\n      mload(0x40)\n      returndatasize\n      not(0x1f)\n      0x1f\n      dup3\n      add\n      and\n      dup3\n      add\n      dup1\n      0x40\n      mstore\n      pop\n      dup2\n      add\n      swap1\n      tag_258\n      swap2\n      swap1\n      tag_259\n      jump\t// in\n    tag_258:\n        /* \"BaseLayerZeroUpgradeable.sol\":3229:3522  return endpoint.quote(... */\n      swap6\n        /* \"BaseLayerZeroUpgradeable.sol\":3039:3529  function _quote(... */\n      swap5\n      pop\n      pop\n      pop\n      pop\n      pop\n      jump\t// out\n        /* \"BaseLayerZeroUpgradeable.sol\":3535:4090  function _lzSend(... */\n    tag_161:\n        /* \"BaseLayerZeroUpgradeable.sol\":3731:3754  MessagingReceipt memory */\n      tag_260\n      tag_261\n      jump\t// in\n    tag_260:\n        /* \"BaseLayerZeroUpgradeable.sol\":3773:3781  endpoint */\n      0x00\n      dup1\n      sload\n        /* \"BaseLayerZeroUpgradeable.sol\":3794:3808  _fee.nativeFee */\n      dup5\n      mload\n        /* \"BaseLayerZeroUpgradeable.sol\":3823:4050  MessagingParams({... */\n      0x40\n      dup1\n      mload\n      0xa0\n      dup2\n      add\n      dup3\n      mstore\n      0xffffffff\n      dup12\n      and\n      dup1\n      dup3\n      mstore\n        /* \"BaseLayerZeroUpgradeable.sol\":3900:3914  peers[_dstEid] */\n      dup6\n      mstore\n        /* \"BaseLayerZeroUpgradeable.sol\":3773:3781  endpoint */\n      0x01\n        /* \"BaseLayerZeroUpgradeable.sol\":3823:4050  MessagingParams({... */\n      0x20\n        /* \"BaseLayerZeroUpgradeable.sol\":3900:3914  peers[_dstEid] */\n      swap1\n      dup2\n      mstore\n      swap5\n      dup3\n      swap1\n      keccak256\n      sload\n        /* \"BaseLayerZeroUpgradeable.sol\":3823:4050  MessagingParams({... */\n      dup6\n      dup3\n      add\n      mstore\n      dup1\n      dup3\n      add\n      dup11\n      swap1\n      mstore\n      0x60\n      dup2\n      add\n      dup10\n      swap1\n      mstore\n        /* \"BaseLayerZeroUpgradeable.sol\":4016:4031  _fee.lzTokenFee */\n      swap4\n      dup8\n      add\n      mload\n        /* \"BaseLayerZeroUpgradeable.sol\":4016:4035  _fee.lzTokenFee > 0 */\n      iszero\n      iszero\n        /* \"BaseLayerZeroUpgradeable.sol\":3823:4050  MessagingParams({... */\n      0x80\n      dup6\n      add\n      mstore\n        /* \"BaseLayerZeroUpgradeable.sol\":3773:4083  endpoint.send{value: _fee.nativeFee}(... */\n      mload\n      shl(0xe4, 0x02637a45)\n      dup2\n      mstore\n      sub(shl(0xa0, 0x01), 0x01)\n        /* \"BaseLayerZeroUpgradeable.sol\":3773:3781  endpoint */\n      swap1\n      swap3\n      and\n      swap3\n        /* \"BaseLayerZeroUpgradeable.sol\":3773:3786  endpoint.send */\n      0x2637a450\n      swap3\n        /* \"BaseLayerZeroUpgradeable.sol\":3773:4083  endpoint.send{value: _fee.nativeFee}(... */\n      tag_263\n      swap2\n        /* \"BaseLayerZeroUpgradeable.sol\":3823:4050  MessagingParams({... */\n      swap1\n        /* \"BaseLayerZeroUpgradeable.sol\":4064:4073  _refundTo */\n      dup8\n      swap1\n        /* \"BaseLayerZeroUpgradeable.sol\":3773:4083  endpoint.send{value: _fee.nativeFee}(... */\n      0x04\n      add\n      tag_255\n      jump\t// in\n    tag_263:\n      0x80\n      mload(0x40)\n      dup1\n      dup4\n      sub\n      dup2\n      dup6\n      dup9\n      gas\n      call\n      iszero\n      dup1\n      iszero\n      tag_266\n      jumpi\n      returndatasize\n      0x00\n      dup1\n      returndatacopy\n      revert(0x00, returndatasize)\n    tag_266:\n      pop\n      pop\n      pop\n      pop\n      pop\n      mload(0x40)\n      returndatasize\n      not(0x1f)\n      0x1f\n      dup3\n      add\n      and\n      dup3\n      add\n      dup1\n      0x40\n      mstore\n      pop\n      dup2\n      add\n      swap1\n      tag_267\n      swap2\n      swap1\n      tag_268\n      jump\t// in\n    tag_267:\n        /* \"BaseLayerZeroUpgradeable.sol\":3766:4083  return endpoint.send{value: _fee.nativeFee}(... */\n      swap7\n        /* \"BaseLayerZeroUpgradeable.sol\":3535:4090  function _lzSend(... */\n      swap6\n      pop\n      pop\n      pop\n      pop\n      pop\n      pop\n      jump\t// out\n        /* \"@openzeppelin/contracts-upgradeable/security/ReentrancyGuardUpgradeable.sol\":2894:3103  function _nonReentrantAfter() private {... */\n    tag_165:\n        /* \"@openzeppelin/contracts-upgradeable/security/ReentrancyGuardUpgradeable.sol\":1808:1809  1 */\n      0x01\n        /* \"@openzeppelin/contracts-upgradeable/security/ReentrancyGuardUpgradeable.sol\":3074:3081  _status */\n      0x32\n        /* \"@openzeppelin/contracts-upgradeable/security/ReentrancyGuardUpgradeable.sol\":3074:3096  _status = _NOT_ENTERED */\n      sstore\n        /* \"@openzeppelin/contracts-upgradeable/security/ReentrancyGuardUpgradeable.sol\":2894:3103  function _nonReentrantAfter() private {... */\n      jump\t// out\n        /* \"@openzeppelin/contracts-upgradeable/access/OwnableUpgradeable.sol\":3774:4022  function _transferOwnership(address newOwner) internal virtual {... */\n    tag_177:\n        /* \"@openzeppelin/contracts-upgradeable/access/OwnableUpgradeable.sol\":1313:1335  OwnableStorageLocation */\n      0x9016d09d72d40fdae2fd8ceac6b6234c7706214fd39c1cd1e609a0528c199300\n        /* \"@openzeppelin/contracts-upgradeable/access/OwnableUpgradeable.sol\":3923:3931  $._owner */\n      dup1\n      sload\n      not(sub(shl(0xa0, 0x01), 0x01))\n        /* \"@openzeppelin/contracts-upgradeable/access/OwnableUpgradeable.sol\":3941:3960  $._owner = newOwner */\n      dup2\n      and\n      sub(shl(0xa0, 0x01), 0x01)\n      dup5\n      dup2\n      and\n      swap2\n      dup3\n      or\n      dup5\n      sstore\n        /* \"@openzeppelin/contracts-upgradeable/access/OwnableUpgradeable.sol\":3975:4015  OwnershipTransferred(oldOwner, newOwner) */\n      mload(0x40)\n        /* \"@openzeppelin/contracts-upgradeable/access/OwnableUpgradeable.sol\":3923:3931  $._owner */\n      swap3\n      and\n      swap2\n      dup3\n      swap1\n        /* \"@openzeppelin/contracts-upgradeable/access/OwnableUpgradeable.sol\":3975:4015  OwnershipTransferred(oldOwner, newOwner) */\n      0x8be0079c531659141344cd1fd0a4f28419497f9722a3daafe3b4186f6b6457e0\n      swap1\n        /* \"@openzeppelin/contracts-upgradeable/access/OwnableUpgradeable.sol\":3847:3871  OwnableStorage storage $ */\n      0x00\n      swap1\n        /* \"@openzeppelin/contracts-upgradeable/access/OwnableUpgradeable.sol\":3975:4015  OwnershipTransferred(oldOwner, newOwner) */\n      log3\n        /* \"@openzeppelin/contracts-upgradeable/access/OwnableUpgradeable.sol\":3837:4022  {... */\n      pop\n      pop\n        /* \"@openzeppelin/contracts-upgradeable/access/OwnableUpgradeable.sol\":3774:4022  function _transferOwnership(address newOwner) internal virtual {... */\n      pop\n      jump\t// out\n        /* \"BaseLayerZeroUpgradeable.sol\":2085:2323  function __BaseLayerZero_init(... */\n    tag_204:\n        /* \"@openzeppelin/contracts-upgradeable/proxy/utils/Initializable.sol\":6929:6949  _checkInitializing() */\n      tag_277\n        /* \"@openzeppelin/contracts-upgradeable/proxy/utils/Initializable.sol\":6929:6947  _checkInitializing */\n      tag_278\n        /* \"@openzeppelin/contracts-upgradeable/proxy/utils/Initializable.sol\":6929:6949  _checkInitializing() */\n      jump\t// in\n    tag_277:\n        /* \"BaseLayerZeroUpgradeable.sol\":2208:2230  __Ownable_init(_owner) */\n      tag_280\n        /* \"BaseLayerZeroUpgradeable.sol\":2223:2229  _owner */\n      dup2\n        /* \"BaseLayerZeroUpgradeable.sol\":2208:2222  __Ownable_init */\n      tag_281\n        /* \"BaseLayerZeroUpgradeable.sol\":2208:2230  __Ownable_init(_owner) */\n      jump\t// in\n    tag_280:\n        /* \"BaseLayerZeroUpgradeable.sol\":2240:2264  __UUPSUpgradeable_init() */\n      tag_282\n        /* \"BaseLayerZeroUpgradeable.sol\":2240:2262  __UUPSUpgradeable_init */\n      tag_283\n        /* \"BaseLayerZeroUpgradeable.sol\":2240:2264  __UUPSUpgradeable_init() */\n      jump\t// in\n    tag_282:\n      pop\n        /* \"BaseLayerZeroUpgradeable.sol\":2274:2282  endpoint */\n      0x00\n        /* \"BaseLayerZeroUpgradeable.sol\":2274:2316  endpoint = ILayerZeroEndpointV2(_endpoint) */\n      dup1\n      sload\n      not(sub(shl(0xa0, 0x01), 0x01))\n      and\n      sub(shl(0xa0, 0x01), 0x01)\n      swap3\n      swap1\n      swap3\n      and\n      swap2\n      swap1\n      swap2\n      or\n      swap1\n      sstore\n        /* \"BaseLayerZeroUpgradeable.sol\":2085:2323  function __BaseLayerZero_init(... */\n      jump\t// out\n        /* \"@openzeppelin/contracts-upgradeable/security/ReentrancyGuardUpgradeable.sol\":1889:2000  function __ReentrancyGuard_init() internal onlyInitializing {... */\n    tag_206:\n        /* \"@openzeppelin/contracts-upgradeable/proxy/utils/Initializable.sol\":6929:6949  _checkInitializing() */\n      tag_285\n        /* \"@openzeppelin/contracts-upgradeable/proxy/utils/Initializable.sol\":6929:6947  _checkInitializing */\n      tag_278\n        /* \"@openzeppelin/contracts-upgradeable/proxy/utils/Initializable.sol\":6929:6949  _checkInitializing() */\n      jump\t// in\n    tag_285:\n        /* \"@openzeppelin/contracts-upgradeable/security/ReentrancyGuardUpgradeable.sol\":1959:1993  __ReentrancyGuard_init_unchained() */\n      tag_176\n        /* \"@openzeppelin/contracts-upgradeable/security/ReentrancyGuardUpgradeable.sol\":1959:1991  __ReentrancyGuard_init_unchained */\n      tag_288\n        /* \"@openzeppelin/contracts-upgradeable/security/ReentrancyGuardUpgradeable.sol\":1959:1993  __ReentrancyGuard_init_unchained() */\n      jump\t// in\n        /* \"@openzeppelin/contracts/proxy/ERC1967/ERC1967Utils.sol\":2264:2608  function upgradeToAndCall(address newImplementation, bytes memory data) internal {... */\n    tag_245:\n        /* \"@openzeppelin/contracts/proxy/ERC1967/ERC1967Utils.sol\":2355:2392  _setImplementation(newImplementation) */\n      tag_294\n        /* \"@openzeppelin/contracts/proxy/ERC1967/ERC1967Utils.sol\":2374:2391  newImplementation */\n      dup3\n        /* \"@openzeppelin/contracts/proxy/ERC1967/ERC1967Utils.sol\":2355:2373  _setImplementation */\n      tag_295\n        /* \"@openzeppelin/contracts/proxy/ERC1967/ERC1967Utils.sol\":2355:2392  _setImplementation(newImplementation) */\n      jump\t// in\n    tag_294:\n        /* \"@openzeppelin/contracts/proxy/ERC1967/ERC1967Utils.sol\":2407:2443  IERC1967.Upgraded(newImplementation) */\n      mload(0x40)\n      sub(shl(0xa0, 0x01), 0x01)\n      dup4\n      and\n      swap1\n      0xbc7cd75a20ee27fd9adebab32041f755214dbc6bffa90cc0225b39da2e5c2d3b\n      swap1\n      0x00\n      swap1\n      log2\n        /* \"@openzeppelin/contracts/proxy/ERC1967/ERC1967Utils.sol\":2458:2469  data.length */\n      dup1\n      mload\n        /* \"@openzeppelin/contracts/proxy/ERC1967/ERC1967Utils.sol\":2458:2473  data.length > 0 */\n      iszero\n        /* \"@openzeppelin/contracts/proxy/ERC1967/ERC1967Utils.sol\":2454:2602  if (data.length > 0) {... */\n      tag_296\n      jumpi\n        /* \"@openzeppelin/contracts/proxy/ERC1967/ERC1967Utils.sol\":2489:2542  Address.functionDelegateCall(newImplementation, data) */\n      tag_244\n        /* \"@openzeppelin/contracts/proxy/ERC1967/ERC1967Utils.sol\":2518:2535  newImplementation */\n      dup3\n        /* \"@openzeppelin/contracts/proxy/ERC1967/ERC1967Utils.sol\":2537:2541  data */\n      dup3\n        /* \"@openzeppelin/contracts/proxy/ERC1967/ERC1967Utils.sol\":2489:2517  Address.functionDelegateCall */\n      tag_298\n        /* \"@openzeppelin/contracts/proxy/ERC1967/ERC1967Utils.sol\":2489:2542  Address.functionDelegateCall(newImplementation, data) */\n      jump\t// in\n        /* \"@openzeppelin/contracts/proxy/ERC1967/ERC1967Utils.sol\":2454:2602  if (data.length > 0) {... */\n    tag_296:\n        /* \"@openzeppelin/contracts/proxy/ERC1967/ERC1967Utils.sol\":2573:2591  _checkNonPayable() */\n      tag_121\n        /* \"@openzeppelin/contracts/proxy/ERC1967/ERC1967Utils.sol\":2573:2589  _checkNonPayable */\n      tag_301\n        /* \"@openzeppelin/contracts/proxy/ERC1967/ERC1967Utils.sol\":2573:2591  _checkNonPayable() */\n      jump\t// in\n        /* \"@openzeppelin/contracts-upgradeable/proxy/utils/Initializable.sol\":7082:7223  function _checkInitializing() internal view virtual {... */\n    tag_278:\n        /* \"@openzeppelin/contracts-upgradeable/proxy/utils/Initializable.sol\":3147:3213  0xf0c57e16840df040f15088dc2f81fe391c3923bec73e23a9662efc9c229c6a00 */\n      0xf0c57e16840df040f15088dc2f81fe391c3923bec73e23a9662efc9c229c6a00\n        /* \"@openzeppelin/contracts-upgradeable/proxy/utils/Initializable.sol\":8558:8598  _getInitializableStorage()._initializing */\n      sload\n      shl(0x40, 0x01)\n      swap1\n      div\n      0xff\n      and\n        /* \"@openzeppelin/contracts-upgradeable/proxy/utils/Initializable.sol\":7144:7217  if (!_isInitializing()) {... */\n      tag_176\n      jumpi\n        /* \"@openzeppelin/contracts-upgradeable/proxy/utils/Initializable.sol\":7189:7206  NotInitializing() */\n      mload(0x40)\n      shl(0xe3, 0x1afcd79f)\n      dup2\n      mstore\n      0x04\n      add\n      mload(0x40)\n      dup1\n      swap2\n      sub\n      swap1\n      revert\n        /* \"@openzeppelin/contracts-upgradeable/access/OwnableUpgradeable.sol\":1847:1974  function __Ownable_init(address initialOwner) internal onlyInitializing {... */\n    tag_281:\n        /* \"@openzeppelin/contracts-upgradeable/proxy/utils/Initializable.sol\":6929:6949  _checkInitializing() */\n      tag_308\n        /* \"@openzeppelin/contracts-upgradeable/proxy/utils/Initializable.sol\":6929:6947  _checkInitializing */\n      tag_278\n        /* \"@openzeppelin/contracts-upgradeable/proxy/utils/Initializable.sol\":6929:6949  _checkInitializing() */\n      jump\t// in\n    tag_308:\n        /* \"@openzeppelin/contracts-upgradeable/access/OwnableUpgradeable.sol\":1929:1967  __Ownable_init_unchained(initialOwner) */\n      tag_215\n        /* \"@openzeppelin/contracts-upgradeable/access/OwnableUpgradeable.sol\":1954:1966  initialOwner */\n      dup2\n        /* \"@openzeppelin/contracts-upgradeable/access/OwnableUpgradeable.sol\":1929:1953  __Ownable_init_unchained */\n      tag_311\n        /* \"@openzeppelin/contracts-upgradeable/access/OwnableUpgradeable.sol\":1929:1967  __Ownable_init_unchained(initialOwner) */\n      jump\t// in\n        /* \"@openzeppelin/contracts-upgradeable/proxy/utils/UUPSUpgradeable.sol\":2970:3037  function __UUPSUpgradeable_init() internal onlyInitializing {... */\n    tag_283:\n        /* \"@openzeppelin/contracts-upgradeable/proxy/utils/Initializable.sol\":6929:6949  _checkInitializing() */\n      tag_176\n        /* \"@openzeppelin/contracts-upgradeable/proxy/utils/Initializable.sol\":6929:6947  _checkInitializing */\n      tag_278\n        /* \"@openzeppelin/contracts-upgradeable/proxy/utils/Initializable.sol\":6929:6949  _checkInitializing() */\n      jump\t// in\n        /* \"@openzeppelin/contracts-upgradeable/security/ReentrancyGuardUpgradeable.sol\":2006:2115  function __ReentrancyGuard_init_unchained() internal onlyInitializing {... */\n    tag_288:\n        /* \"@openzeppelin/contracts-upgradeable/proxy/utils/Initializable.sol\":6929:6949  _checkInitializing() */\n      tag_165\n        /* \"@openzeppelin/contracts-upgradeable/proxy/utils/Initializable.sol\":6929:6947  _checkInitializing */\n      tag_278\n        /* \"@openzeppelin/contracts-upgradeable/proxy/utils/Initializable.sol\":6929:6949  _checkInitializing() */\n      jump\t// in\n        /* \"@openzeppelin/contracts/proxy/ERC1967/ERC1967Utils.sol\":1671:1952  function _setImplementation(address newImplementation) private {... */\n    tag_295:\n        /* \"@openzeppelin/contracts/proxy/ERC1967/ERC1967Utils.sol\":1748:1765  newImplementation */\n      dup1\n      sub(shl(0xa0, 0x01), 0x01)\n        /* \"@openzeppelin/contracts/proxy/ERC1967/ERC1967Utils.sol\":1748:1777  newImplementation.code.length */\n      and\n      extcodesize\n        /* \"@openzeppelin/contracts/proxy/ERC1967/ERC1967Utils.sol\":1781:1782  0 */\n      0x00\n        /* \"@openzeppelin/contracts/proxy/ERC1967/ERC1967Utils.sol\":1748:1782  newImplementation.code.length == 0 */\n      sub\n        /* \"@openzeppelin/contracts/proxy/ERC1967/ERC1967Utils.sol\":1744:1863  if (newImplementation.code.length == 0) {... */\n      tag_320\n      jumpi\n        /* \"@openzeppelin/contracts/proxy/ERC1967/ERC1967Utils.sol\":1805:1852  ERC1967InvalidImplementation(newImplementation) */\n      mload(0x40)\n      shl(0xe0, 0x4c9c8ce3)\n      dup2\n      mstore\n      sub(shl(0xa0, 0x01), 0x01)\n        /* \"#utility.yul\":4610:4665   */\n      dup3\n      and\n        /* \"@openzeppelin/contracts/proxy/ERC1967/ERC1967Utils.sol\":1805:1852  ERC1967InvalidImplementation(newImplementation) */\n      0x04\n      dup3\n      add\n        /* \"#utility.yul\":4592:4666   */\n      mstore\n        /* \"#utility.yul\":4565:4583   */\n      0x24\n      add\n        /* \"@openzeppelin/contracts/proxy/ERC1967/ERC1967Utils.sol\":1805:1852  ERC1967InvalidImplementation(newImplementation) */\n      tag_105\n        /* \"#utility.yul\":4418:4672   */\n      jump\n        /* \"@openzeppelin/contracts/proxy/ERC1967/ERC1967Utils.sol\":1744:1863  if (newImplementation.code.length == 0) {... */\n    tag_320:\n        /* \"@openzeppelin/contracts/proxy/ERC1967/ERC1967Utils.sol\":811:877  0x360894a13ba1a3210667c828492db98dca3e2076cc3735a920a3ca505d382bbc */\n      0x360894a13ba1a3210667c828492db98dca3e2076cc3735a920a3ca505d382bbc\n        /* \"@openzeppelin/contracts/proxy/ERC1967/ERC1967Utils.sol\":1872:1945  StorageSlot.getAddressSlot(IMPLEMENTATION_SLOT).value = newImplementation */\n      dup1\n      sload\n      not(sub(shl(0xa0, 0x01), 0x01))\n      and\n      sub(shl(0xa0, 0x01), 0x01)\n      swap3\n      swap1\n      swap3\n      and\n      swap2\n      swap1\n      swap2\n      or\n      swap1\n      sstore\n        /* \"@openzeppelin/contracts/proxy/ERC1967/ERC1967Utils.sol\":1671:1952  function _setImplementation(address newImplementation) private {... */\n      jump\t// out\n        /* \"@openzeppelin/contracts/utils/Address.sol\":3916:4169  function functionDelegateCall(address target, bytes memory data) internal returns (bytes memory) {... */\n    tag_298:\n        /* \"@openzeppelin/contracts/utils/Address.sol\":3999:4011  bytes memory */\n      0x60\n        /* \"@openzeppelin/contracts/utils/Address.sol\":4024:4036  bool success */\n      0x00\n        /* \"@openzeppelin/contracts/utils/Address.sol\":4038:4061  bytes memory returndata */\n      dup1\n        /* \"@openzeppelin/contracts/utils/Address.sol\":4065:4071  target */\n      dup5\n      sub(shl(0xa0, 0x01), 0x01)\n        /* \"@openzeppelin/contracts/utils/Address.sol\":4065:4084  target.delegatecall */\n      and\n        /* \"@openzeppelin/contracts/utils/Address.sol\":4085:4089  data */\n      dup5\n        /* \"@openzeppelin/contracts/utils/Address.sol\":4065:4090  target.delegatecall(data) */\n      mload(0x40)\n      tag_324\n      swap2\n      swap1\n      tag_325\n      jump\t// in\n    tag_324:\n      0x00\n      mload(0x40)\n      dup1\n      dup4\n      sub\n      dup2\n      dup6\n      gas\n      delegatecall\n      swap2\n      pop\n      pop\n      returndatasize\n      dup1\n      0x00\n      dup2\n      eq\n      tag_328\n      jumpi\n      mload(0x40)\n      swap2\n      pop\n      and(add(returndatasize, 0x3f), not(0x1f))\n      dup3\n      add\n      0x40\n      mstore\n      returndatasize\n      dup3\n      mstore\n      returndatasize\n      0x00\n      0x20\n      dup5\n      add\n      returndatacopy\n      jump(tag_327)\n    tag_328:\n      0x60\n      swap2\n      pop\n    tag_327:\n      pop\n        /* \"@openzeppelin/contracts/utils/Address.sol\":4023:4090  (bool success, bytes memory returndata) = target.delegatecall(data) */\n      swap2\n      pop\n      swap2\n      pop\n        /* \"@openzeppelin/contracts/utils/Address.sol\":4107:4162  verifyCallResultFromTarget(target, success, returndata) */\n      tag_258\n        /* \"@openzeppelin/contracts/utils/Address.sol\":4134:4140  target */\n      dup6\n        /* \"@openzeppelin/contracts/utils/Address.sol\":4142:4149  success */\n      dup4\n        /* \"@openzeppelin/contracts/utils/Address.sol\":4151:4161  returndata */\n      dup4\n        /* \"@openzeppelin/contracts/utils/Address.sol\":4107:4133  verifyCallResultFromTarget */\n      tag_330\n        /* \"@openzeppelin/contracts/utils/Address.sol\":4107:4162  verifyCallResultFromTarget(target, success, returndata) */\n      jump\t// in\n        /* \"@openzeppelin/contracts/proxy/ERC1967/ERC1967Utils.sol\":6113:6235  function _checkNonPayable() private {... */\n    tag_301:\n        /* \"@openzeppelin/contracts/proxy/ERC1967/ERC1967Utils.sol\":6163:6172  msg.value */\n      callvalue\n        /* \"@openzeppelin/contracts/proxy/ERC1967/ERC1967Utils.sol\":6163:6176  msg.value > 0 */\n      iszero\n        /* \"@openzeppelin/contracts/proxy/ERC1967/ERC1967Utils.sol\":6159:6229  if (msg.value > 0) {... */\n      tag_176\n      jumpi\n        /* \"@openzeppelin/contracts/proxy/ERC1967/ERC1967Utils.sol\":6199:6218  ERC1967NonPayable() */\n      mload(0x40)\n      shl(0xe0, 0xb398979f)\n      dup2\n      mstore\n      0x04\n      add\n      mload(0x40)\n      dup1\n      swap2\n      sub\n      swap1\n      revert\n        /* \"@openzeppelin/contracts-upgradeable/access/OwnableUpgradeable.sol\":1980:2215  function __Ownable_init_unchained(address initialOwner) internal onlyInitializing {... */\n    tag_311:\n        /* \"@openzeppelin/contracts-upgradeable/proxy/utils/Initializable.sol\":6929:6949  _checkInitializing() */\n      tag_211\n        /* \"@openzeppelin/contracts-upgradeable/proxy/utils/Initializable.sol\":6929:6947  _checkInitializing */\n      tag_278\n        /* \"@openzeppelin/contracts-upgradeable/proxy/utils/Initializable.sol\":6929:6949  _checkInitializing() */\n      jump\t// in\n        /* \"@openzeppelin/contracts/utils/Address.sol\":4437:5019  function verifyCallResultFromTarget(... */\n    tag_330:\n        /* \"@openzeppelin/contracts/utils/Address.sol\":4581:4593  bytes memory */\n      0x60\n        /* \"@openzeppelin/contracts/utils/Address.sol\":4610:4617  success */\n      dup3\n        /* \"@openzeppelin/contracts/utils/Address.sol\":4605:5013  if (!success) {... */\n      tag_342\n      jumpi\n        /* \"@openzeppelin/contracts/utils/Address.sol\":4633:4652  _revert(returndata) */\n      tag_343\n        /* \"@openzeppelin/contracts/utils/Address.sol\":4641:4651  returndata */\n      dup3\n        /* \"@openzeppelin/contracts/utils/Address.sol\":4633:4640  _revert */\n      tag_344\n        /* \"@openzeppelin/contracts/utils/Address.sol\":4633:4652  _revert(returndata) */\n      jump\t// in\n    tag_343:\n        /* \"@openzeppelin/contracts/utils/Address.sol\":4605:5013  if (!success) {... */\n      jump(tag_345)\n    tag_342:\n        /* \"@openzeppelin/contracts/utils/Address.sol\":4857:4874  returndata.length */\n      dup2\n      mload\n        /* \"@openzeppelin/contracts/utils/Address.sol\":4857:4879  returndata.length == 0 */\n      iszero\n        /* \"@openzeppelin/contracts/utils/Address.sol\":4857:4906  returndata.length == 0 && target.code.length == 0 */\n      dup1\n      iszero\n      tag_346\n      jumpi\n      pop\n      sub(shl(0xa0, 0x01), 0x01)\n        /* \"@openzeppelin/contracts/utils/Address.sol\":4883:4901  target.code.length */\n      dup5\n      and\n      extcodesize\n        /* \"@openzeppelin/contracts/utils/Address.sol\":4883:4906  target.code.length == 0 */\n      iszero\n        /* \"@openzeppelin/contracts/utils/Address.sol\":4857:4906  returndata.length == 0 && target.code.length == 0 */\n    tag_346:\n        /* \"@openzeppelin/contracts/utils/Address.sol\":4853:4972  if (returndata.length == 0 && target.code.length == 0) {... */\n      iszero\n      tag_347\n      jumpi\n        /* \"@openzeppelin/contracts/utils/Address.sol\":4933:4957  AddressEmptyCode(target) */\n      mload(0x40)\n      shl(0xe0, 0x9996b315)\n      dup2\n      mstore\n      sub(shl(0xa0, 0x01), 0x01)\n        /* \"#utility.yul\":4610:4665   */\n      dup6\n      and\n        /* \"@openzeppelin/contracts/utils/Address.sol\":4933:4957  AddressEmptyCode(target) */\n      0x04\n      dup3\n      add\n        /* \"#utility.yul\":4592:4666   */\n      mstore\n        /* \"#utility.yul\":4565:4583   */\n      0x24\n      add\n        /* \"@openzeppelin/contracts/utils/Address.sol\":4933:4957  AddressEmptyCode(target) */\n      tag_105\n        /* \"#utility.yul\":4418:4672   */\n      jump\n        /* \"@openzeppelin/contracts/utils/Address.sol\":4853:4972  if (returndata.length == 0 && target.code.length == 0) {... */\n    tag_347:\n      pop\n        /* \"@openzeppelin/contracts/utils/Address.sol\":4992:5002  returndata */\n      dup1\n        /* \"@openzeppelin/contracts/utils/Address.sol\":4605:5013  if (!success) {... */\n    tag_345:\n        /* \"@openzeppelin/contracts/utils/Address.sol\":4437:5019  function verifyCallResultFromTarget(... */\n      swap4\n      swap3\n      pop\n      pop\n      pop\n      jump\t// out\n        /* \"@openzeppelin/contracts/utils/Address.sol\":5559:6046  function _revert(bytes memory returndata) private pure {... */\n    tag_344:\n        /* \"@openzeppelin/contracts/utils/Address.sol\":5690:5707  returndata.length */\n      dup1\n      mload\n        /* \"@openzeppelin/contracts/utils/Address.sol\":5690:5711  returndata.length > 0 */\n      iszero\n        /* \"@openzeppelin/contracts/utils/Address.sol\":5686:6040  if (returndata.length > 0) {... */\n      tag_350\n      jumpi\n        /* \"@openzeppelin/contracts/utils/Address.sol\":5887:5897  returndata */\n      dup1\n        /* \"@openzeppelin/contracts/utils/Address.sol\":5881:5898  mload(returndata) */\n      mload\n        /* \"@openzeppelin/contracts/utils/Address.sol\":5943:5958  returndata_size */\n      dup1\n        /* \"@openzeppelin/contracts/utils/Address.sol\":5930:5940  returndata */\n      dup3\n        /* \"@openzeppelin/contracts/utils/Address.sol\":5926:5928  32 */\n      0x20\n        /* \"@openzeppelin/contracts/utils/Address.sol\":5922:5941  add(32, returndata) */\n      add\n        /* \"@openzeppelin/contracts/utils/Address.sol\":5915:5959  revert(add(32, returndata), returndata_size) */\n      revert\n        /* \"@openzeppelin/contracts/utils/Address.sol\":5686:6040  if (returndata.length > 0) {... */\n    tag_350:\n        /* \"@openzeppelin/contracts/utils/Address.sol\":6010:6029  Errors.FailedCall() */\n      mload(0x40)\n      shl(0xe0, 0xd6bda275)\n      dup2\n      mstore\n      0x04\n      add\n      mload(0x40)\n      dup1\n      swap2\n      sub\n      swap1\n      revert\n    tag_261:\n      mload(0x40)\n      dup1\n      0x60\n      add\n      0x40\n      mstore\n      dup1\n      0x00\n      dup1\n      not\n      and\n      dup2\n      mstore\n      0x20\n      add\n      and(sub(shl(0x40, 0x01), 0x01), 0x00)\n      dup2\n      mstore\n      0x20\n      add\n      tag_352\n      mload(0x40)\n      dup1\n      0x40\n      add\n      0x40\n      mstore\n      dup1\n      0x00\n      dup2\n      mstore\n      0x20\n      add\n      0x00\n      dup2\n      mstore\n      pop\n      swap1\n      jump\n    tag_352:\n      swap1\n      mstore\n      swap1\n      jump\t// out\n        /* \"#utility.yul\":14:361   */\n    tag_353:\n        /* \"#utility.yul\":65:73   */\n      0x00\n        /* \"#utility.yul\":75:81   */\n      dup1\n        /* \"#utility.yul\":129:132   */\n      dup4\n        /* \"#utility.yul\":122:126   */\n      0x1f\n        /* \"#utility.yul\":114:120   */\n      dup5\n        /* \"#utility.yul\":110:127   */\n      add\n        /* \"#utility.yul\":106:133   */\n      slt\n        /* \"#utility.yul\":96:151   */\n      tag_367\n      jumpi\n        /* \"#utility.yul\":147:148   */\n      0x00\n        /* \"#utility.yul\":144:145   */\n      dup1\n        /* \"#utility.yul\":137:149   */\n      revert\n        /* \"#utility.yul\":96:151   */\n    tag_367:\n      pop\n        /* \"#utility.yul\":170:190   */\n      dup2\n      calldataload\n      sub(shl(0x40, 0x01), 0x01)\n        /* \"#utility.yul\":202:232   */\n      dup2\n      gt\n        /* \"#utility.yul\":199:249   */\n      iszero\n      tag_368\n      jumpi\n        /* \"#utility.yul\":245:246   */\n      0x00\n        /* \"#utility.yul\":242:243   */\n      dup1\n        /* \"#utility.yul\":235:247   */\n      revert\n        /* \"#utility.yul\":199:249   */\n    tag_368:\n        /* \"#utility.yul\":282:286   */\n      0x20\n        /* \"#utility.yul\":274:280   */\n      dup4\n        /* \"#utility.yul\":270:287   */\n      add\n        /* \"#utility.yul\":258:287   */\n      swap2\n      pop\n        /* \"#utility.yul\":334:337   */\n      dup4\n        /* \"#utility.yul\":327:331   */\n      0x20\n        /* \"#utility.yul\":318:324   */\n      dup3\n        /* \"#utility.yul\":310:316   */\n      dup6\n        /* \"#utility.yul\":306:325   */\n      add\n        /* \"#utility.yul\":302:332   */\n      add\n        /* \"#utility.yul\":299:338   */\n      gt\n        /* \"#utility.yul\":296:355   */\n      iszero\n      tag_369\n      jumpi\n        /* \"#utility.yul\":351:352   */\n      0x00\n        /* \"#utility.yul\":348:349   */\n      dup1\n        /* \"#utility.yul\":341:353   */\n      revert\n        /* \"#utility.yul\":296:355   */\n    tag_369:\n        /* \"#utility.yul\":14:361   */\n      swap3\n      pop\n      swap3\n      swap1\n      pop\n      jump\t// out\n        /* \"#utility.yul\":366:562   */\n    tag_354:\n        /* \"#utility.yul\":434:454   */\n      dup1\n      calldataload\n      sub(shl(0xa0, 0x01), 0x01)\n        /* \"#utility.yul\":483:537   */\n      dup2\n      and\n        /* \"#utility.yul\":473:538   */\n      dup2\n      eq\n        /* \"#utility.yul\":463:556   */\n      tag_371\n      jumpi\n        /* \"#utility.yul\":552:553   */\n      0x00\n        /* \"#utility.yul\":549:550   */\n      dup1\n        /* \"#utility.yul\":542:554   */\n      revert\n        /* \"#utility.yul\":463:556   */\n    tag_371:\n        /* \"#utility.yul\":366:562   */\n      swap2\n      swap1\n      pop\n      jump\t// out\n        /* \"#utility.yul\":567:1610   */\n    tag_26:\n        /* \"#utility.yul\":708:714   */\n      0x00\n        /* \"#utility.yul\":716:722   */\n      dup1\n        /* \"#utility.yul\":724:730   */\n      0x00\n        /* \"#utility.yul\":732:738   */\n      dup1\n        /* \"#utility.yul\":740:746   */\n      0x00\n        /* \"#utility.yul\":748:754   */\n      dup1\n        /* \"#utility.yul\":756:762   */\n      0x00\n        /* \"#utility.yul\":800:809   */\n      dup8\n        /* \"#utility.yul\":791:798   */\n      dup10\n        /* \"#utility.yul\":787:810   */\n      sub\n        /* \"#utility.yul\":830:833   */\n      0xe0\n        /* \"#utility.yul\":826:828   */\n      dup2\n        /* \"#utility.yul\":822:834   */\n      slt\n        /* \"#utility.yul\":819:851   */\n      iszero\n      tag_373\n      jumpi\n        /* \"#utility.yul\":847:848   */\n      0x00\n        /* \"#utility.yul\":844:845   */\n      dup1\n        /* \"#utility.yul\":837:849   */\n      revert\n        /* \"#utility.yul\":819:851   */\n    tag_373:\n        /* \"#utility.yul\":871:873   */\n      0x60\n        /* \"#utility.yul\":867:869   */\n      dup2\n        /* \"#utility.yul\":863:874   */\n      slt\n        /* \"#utility.yul\":860:891   */\n      iszero\n      tag_374\n      jumpi\n        /* \"#utility.yul\":887:888   */\n      0x00\n        /* \"#utility.yul\":884:885   */\n      dup1\n        /* \"#utility.yul\":877:889   */\n      revert\n        /* \"#utility.yul\":860:891   */\n    tag_374:\n      pop\n        /* \"#utility.yul\":910:919   */\n      dup8\n      swap7\n      pop\n        /* \"#utility.yul\":988:990   */\n      0x60\n        /* \"#utility.yul\":973:991   */\n      dup8\n      add\n        /* \"#utility.yul\":960:992   */\n      calldataload\n      swap6\n      pop\n        /* \"#utility.yul\":1067:1070   */\n      0x80\n        /* \"#utility.yul\":1052:1071   */\n      dup8\n      add\n        /* \"#utility.yul\":1039:1072   */\n      calldataload\n      sub(shl(0x40, 0x01), 0x01)\n        /* \"#utility.yul\":1084:1114   */\n      dup2\n      gt\n        /* \"#utility.yul\":1081:1131   */\n      iszero\n      tag_375\n      jumpi\n        /* \"#utility.yul\":1127:1128   */\n      0x00\n        /* \"#utility.yul\":1124:1125   */\n      dup1\n        /* \"#utility.yul\":1117:1129   */\n      revert\n        /* \"#utility.yul\":1081:1131   */\n    tag_375:\n        /* \"#utility.yul\":1166:1224   */\n      tag_376\n        /* \"#utility.yul\":1216:1223   */\n      dup11\n        /* \"#utility.yul\":1207:1213   */\n      dup3\n        /* \"#utility.yul\":1196:1205   */\n      dup12\n        /* \"#utility.yul\":1192:1214   */\n      add\n        /* \"#utility.yul\":1166:1224   */\n      tag_353\n      jump\t// in\n    tag_376:\n        /* \"#utility.yul\":1243:1251   */\n      swap1\n      swap7\n      pop\n        /* \"#utility.yul\":1140:1224   */\n      swap5\n      pop\n        /* \"#utility.yul\":1297:1336   */\n      tag_377\n      swap1\n      pop\n        /* \"#utility.yul\":1331:1334   */\n      0xa0\n        /* \"#utility.yul\":1316:1335   */\n      dup10\n      add\n        /* \"#utility.yul\":1297:1336   */\n      tag_354\n      jump\t// in\n    tag_377:\n        /* \"#utility.yul\":1287:1336   */\n      swap3\n      pop\n        /* \"#utility.yul\":1389:1392   */\n      0xc0\n        /* \"#utility.yul\":1378:1387   */\n      dup9\n        /* \"#utility.yul\":1374:1393   */\n      add\n        /* \"#utility.yul\":1361:1394   */\n      calldataload\n      sub(shl(0x40, 0x01), 0x01)\n        /* \"#utility.yul\":1409:1417   */\n      dup2\n        /* \"#utility.yul\":1406:1438   */\n      gt\n        /* \"#utility.yul\":1403:1455   */\n      iszero\n      tag_378\n      jumpi\n        /* \"#utility.yul\":1451:1452   */\n      0x00\n        /* \"#utility.yul\":1448:1449   */\n      dup1\n        /* \"#utility.yul\":1441:1453   */\n      revert\n        /* \"#utility.yul\":1403:1455   */\n    tag_378:\n        /* \"#utility.yul\":1490:1550   */\n      tag_379\n        /* \"#utility.yul\":1542:1549   */\n      dup11\n        /* \"#utility.yul\":1531:1539   */\n      dup3\n        /* \"#utility.yul\":1520:1529   */\n      dup12\n        /* \"#utility.yul\":1516:1540   */\n      add\n        /* \"#utility.yul\":1490:1550   */\n      tag_353\n      jump\t// in\n    tag_379:\n        /* \"#utility.yul\":567:1610   */\n      swap9\n      swap12\n      swap8\n      swap11\n      pop\n      swap6\n      swap9\n      pop\n      swap4\n      swap7\n      swap3\n      swap6\n        /* \"#utility.yul\":1464:1550   */\n      swap3\n      swap4\n      pop\n      pop\n      pop\n        /* \"#utility.yul\":567:1610   */\n      jump\t// out\n        /* \"#utility.yul\":1615:1778   */\n    tag_355:\n        /* \"#utility.yul\":1682:1702   */\n      dup1\n      calldataload\n        /* \"#utility.yul\":1742:1752   */\n      0xffffffff\n        /* \"#utility.yul\":1731:1753   */\n      dup2\n      and\n        /* \"#utility.yul\":1721:1754   */\n      dup2\n      eq\n        /* \"#utility.yul\":1711:1772   */\n      tag_371\n      jumpi\n        /* \"#utility.yul\":1768:1769   */\n      0x00\n        /* \"#utility.yul\":1765:1766   */\n      dup1\n        /* \"#utility.yul\":1758:1770   */\n      revert\n        /* \"#utility.yul\":1783:2081   */\n    tag_31:\n        /* \"#utility.yul\":1850:1856   */\n      0x00\n        /* \"#utility.yul\":1858:1864   */\n      dup1\n        /* \"#utility.yul\":1911:1913   */\n      0x40\n        /* \"#utility.yul\":1899:1908   */\n      dup4\n        /* \"#utility.yul\":1890:1897   */\n      dup6\n        /* \"#utility.yul\":1886:1909   */\n      sub\n        /* \"#utility.yul\":1882:1914   */\n      slt\n        /* \"#utility.yul\":1879:1931   */\n      iszero\n      tag_383\n      jumpi\n        /* \"#utility.yul\":1927:1928   */\n      0x00\n        /* \"#utility.yul\":1924:1925   */\n      dup1\n        /* \"#utility.yul\":1917:1929   */\n      revert\n        /* \"#utility.yul\":1879:1931   */\n    tag_383:\n        /* \"#utility.yul\":1950:1978   */\n      tag_384\n        /* \"#utility.yul\":1968:1977   */\n      dup4\n        /* \"#utility.yul\":1950:1978   */\n      tag_355\n      jump\t// in\n    tag_384:\n        /* \"#utility.yul\":1940:1978   */\n      swap5\n        /* \"#utility.yul\":2047:2049   */\n      0x20\n        /* \"#utility.yul\":2032:2050   */\n      swap4\n      swap1\n      swap4\n      add\n        /* \"#utility.yul\":2019:2051   */\n      calldataload\n      swap4\n      pop\n      pop\n      pop\n        /* \"#utility.yul\":1783:2081   */\n      jump\t// out\n        /* \"#utility.yul\":2086:2213   */\n    tag_356:\n        /* \"#utility.yul\":2147:2157   */\n      0x4e487b71\n        /* \"#utility.yul\":2142:2145   */\n      0xe0\n        /* \"#utility.yul\":2138:2158   */\n      shl\n        /* \"#utility.yul\":2135:2136   */\n      0x00\n        /* \"#utility.yul\":2128:2159   */\n      mstore\n        /* \"#utility.yul\":2178:2182   */\n      0x41\n        /* \"#utility.yul\":2175:2176   */\n      0x04\n        /* \"#utility.yul\":2168:2183   */\n      mstore\n        /* \"#utility.yul\":2202:2206   */\n      0x24\n        /* \"#utility.yul\":2199:2200   */\n      0x00\n        /* \"#utility.yul\":2192:2207   */\n      revert\n        /* \"#utility.yul\":2218:2493   */\n    tag_357:\n        /* \"#utility.yul\":2289:2291   */\n      0x40\n        /* \"#utility.yul\":2283:2292   */\n      mload\n        /* \"#utility.yul\":2354:2356   */\n      0x1f\n        /* \"#utility.yul\":2335:2348   */\n      dup3\n      add\n      not(0x1f)\n        /* \"#utility.yul\":2331:2358   */\n      and\n        /* \"#utility.yul\":2319:2359   */\n      dup2\n      add\n      sub(shl(0x40, 0x01), 0x01)\n        /* \"#utility.yul\":2374:2408   */\n      dup2\n      gt\n        /* \"#utility.yul\":2410:2432   */\n      dup3\n      dup3\n      lt\n        /* \"#utility.yul\":2371:2433   */\n      or\n        /* \"#utility.yul\":2368:2456   */\n      iszero\n      tag_388\n      jumpi\n        /* \"#utility.yul\":2436:2454   */\n      tag_388\n      tag_356\n      jump\t// in\n    tag_388:\n        /* \"#utility.yul\":2472:2474   */\n      0x40\n        /* \"#utility.yul\":2465:2487   */\n      mstore\n        /* \"#utility.yul\":2218:2493   */\n      swap2\n      swap1\n      pop\n      jump\t// out\n        /* \"#utility.yul\":2498:2947   */\n    tag_358:\n        /* \"#utility.yul\":2562:2567   */\n      0x00\n        /* \"#utility.yul\":2594:2595   */\n      dup1\n      sub(shl(0x40, 0x01), 0x01)\n        /* \"#utility.yul\":2610:2616   */\n      dup5\n        /* \"#utility.yul\":2607:2637   */\n      gt\n        /* \"#utility.yul\":2604:2660   */\n      iszero\n      tag_391\n      jumpi\n        /* \"#utility.yul\":2640:2658   */\n      tag_391\n      tag_356\n      jump\t// in\n    tag_391:\n      pop\n        /* \"#utility.yul\":2706:2708   */\n      0x1f\n        /* \"#utility.yul\":2685:2700   */\n      dup4\n      add\n      not(0x1f)\n        /* \"#utility.yul\":2681:2710   */\n      and\n        /* \"#utility.yul\":2712:2716   */\n      0x20\n        /* \"#utility.yul\":2677:2717   */\n      add\n        /* \"#utility.yul\":2735:2756   */\n      tag_392\n        /* \"#utility.yul\":2677:2717   */\n      dup2\n        /* \"#utility.yul\":2735:2756   */\n      tag_357\n      jump\t// in\n    tag_392:\n        /* \"#utility.yul\":2726:2756   */\n      swap2\n      pop\n      pop\n        /* \"#utility.yul\":2779:2785   */\n      dup3\n        /* \"#utility.yul\":2772:2777   */\n      dup2\n        /* \"#utility.yul\":2765:2786   */\n      mstore\n        /* \"#utility.yul\":2819:2822   */\n      dup4\n        /* \"#utility.yul\":2810:2816   */\n      dup4\n        /* \"#utility.yul\":2805:2808   */\n      dup4\n        /* \"#utility.yul\":2801:2817   */\n      add\n        /* \"#utility.yul\":2798:2823   */\n      gt\n        /* \"#utility.yul\":2795:2840   */\n      iszero\n      tag_393\n      jumpi\n        /* \"#utility.yul\":2836:2837   */\n      0x00\n        /* \"#utility.yul\":2833:2834   */\n      dup1\n        /* \"#utility.yul\":2826:2838   */\n      revert\n        /* \"#utility.yul\":2795:2840   */\n    tag_393:\n        /* \"#utility.yul\":2885:2891   */\n      dup3\n        /* \"#utility.yul\":2880:2883   */\n      dup3\n        /* \"#utility.yul\":2873:2877   */\n      0x20\n        /* \"#utility.yul\":2866:2871   */\n      dup4\n        /* \"#utility.yul\":2862:2878   */\n      add\n        /* \"#utility.yul\":2849:2892   */\n      calldatacopy\n        /* \"#utility.yul\":2939:2940   */\n      0x00\n        /* \"#utility.yul\":2932:2936   */\n      0x20\n        /* \"#utility.yul\":2923:2929   */\n      dup5\n        /* \"#utility.yul\":2916:2921   */\n      dup4\n        /* \"#utility.yul\":2912:2930   */\n      add\n        /* \"#utility.yul\":2908:2937   */\n      add\n        /* \"#utility.yul\":2901:2941   */\n      mstore\n        /* \"#utility.yul\":2498:2947   */\n      swap4\n      swap3\n      pop\n      pop\n      pop\n      jump\t// out\n        /* \"#utility.yul\":2952:3475   */\n    tag_35:\n        /* \"#utility.yul\":3029:3035   */\n      0x00\n        /* \"#utility.yul\":3037:3043   */\n      dup1\n        /* \"#utility.yul\":3090:3092   */\n      0x40\n        /* \"#utility.yul\":3078:3087   */\n      dup4\n        /* \"#utility.yul\":3069:3076   */\n      dup6\n        /* \"#utility.yul\":3065:3088   */\n      sub\n        /* \"#utility.yul\":3061:3093   */\n      slt\n        /* \"#utility.yul\":3058:3110   */\n      iszero\n      tag_395\n      jumpi\n        /* \"#utility.yul\":3106:3107   */\n      0x00\n        /* \"#utility.yul\":3103:3104   */\n      dup1\n        /* \"#utility.yul\":3096:3108   */\n      revert\n        /* \"#utility.yul\":3058:3110   */\n    tag_395:\n        /* \"#utility.yul\":3129:3158   */\n      tag_396\n        /* \"#utility.yul\":3148:3157   */\n      dup4\n        /* \"#utility.yul\":3129:3158   */\n      tag_354\n      jump\t// in\n    tag_396:\n        /* \"#utility.yul\":3119:3158   */\n      swap2\n      pop\n        /* \"#utility.yul\":3209:3211   */\n      0x20\n        /* \"#utility.yul\":3198:3207   */\n      dup4\n        /* \"#utility.yul\":3194:3212   */\n      add\n        /* \"#utility.yul\":3181:3213   */\n      calldataload\n      sub(shl(0x40, 0x01), 0x01)\n        /* \"#utility.yul\":3228:3234   */\n      dup2\n        /* \"#utility.yul\":3225:3255   */\n      gt\n        /* \"#utility.yul\":3222:3272   */\n      iszero\n      tag_397\n      jumpi\n        /* \"#utility.yul\":3268:3269   */\n      0x00\n        /* \"#utility.yul\":3265:3266   */\n      dup1\n        /* \"#utility.yul\":3258:3270   */\n      revert\n        /* \"#utility.yul\":3222:3272   */\n    tag_397:\n        /* \"#utility.yul\":3291:3313   */\n      dup4\n      add\n        /* \"#utility.yul\":3344:3348   */\n      0x1f\n        /* \"#utility.yul\":3336:3349   */\n      dup2\n      add\n        /* \"#utility.yul\":3332:3359   */\n      dup6\n      sgt\n        /* \"#utility.yul\":3322:3377   */\n      tag_398\n      jumpi\n        /* \"#utility.yul\":3373:3374   */\n      0x00\n        /* \"#utility.yul\":3370:3371   */\n      dup1\n        /* \"#utility.yul\":3363:3375   */\n      revert\n        /* \"#utility.yul\":3322:3377   */\n    tag_398:\n        /* \"#utility.yul\":3396:3469   */\n      tag_399\n        /* \"#utility.yul\":3461:3468   */\n      dup6\n        /* \"#utility.yul\":3456:3458   */\n      dup3\n        /* \"#utility.yul\":3443:3459   */\n      calldataload\n        /* \"#utility.yul\":3438:3440   */\n      0x20\n        /* \"#utility.yul\":3434:3436   */\n      dup5\n        /* \"#utility.yul\":3430:3441   */\n      add\n        /* \"#utility.yul\":3396:3469   */\n      tag_358\n      jump\t// in\n    tag_399:\n        /* \"#utility.yul\":3386:3469   */\n      swap2\n      pop\n      pop\n        /* \"#utility.yul\":2952:3475   */\n      swap3\n      pop\n      swap3\n      swap1\n      pop\n      jump\t// out\n        /* \"#utility.yul\":3662:3912   */\n    tag_359:\n        /* \"#utility.yul\":3747:3748   */\n      0x00\n        /* \"#utility.yul\":3757:3870   */\n    tag_402:\n        /* \"#utility.yul\":3771:3777   */\n      dup4\n        /* \"#utility.yul\":3768:3769   */\n      dup2\n        /* \"#utility.yul\":3765:3778   */\n      lt\n        /* \"#utility.yul\":3757:3870   */\n      iszero\n      tag_404\n      jumpi\n        /* \"#utility.yul\":3847:3858   */\n      dup2\n      dup2\n      add\n        /* \"#utility.yul\":3841:3859   */\n      mload\n        /* \"#utility.yul\":3828:3839   */\n      dup4\n      dup3\n      add\n        /* \"#utility.yul\":3821:3860   */\n      mstore\n        /* \"#utility.yul\":3793:3795   */\n      0x20\n        /* \"#utility.yul\":3786:3796   */\n      add\n        /* \"#utility.yul\":3757:3870   */\n      jump(tag_402)\n    tag_404:\n      pop\n      pop\n        /* \"#utility.yul\":3904:3905   */\n      0x00\n        /* \"#utility.yul\":3886:3902   */\n      swap2\n      add\n        /* \"#utility.yul\":3879:3906   */\n      mstore\n        /* \"#utility.yul\":3662:3912   */\n      jump\t// out\n        /* \"#utility.yul\":3917:4188   */\n    tag_360:\n        /* \"#utility.yul\":3959:3962   */\n      0x00\n        /* \"#utility.yul\":3997:4002   */\n      dup2\n        /* \"#utility.yul\":3991:4003   */\n      mload\n        /* \"#utility.yul\":4024:4030   */\n      dup1\n        /* \"#utility.yul\":4019:4022   */\n      dup5\n        /* \"#utility.yul\":4012:4031   */\n      mstore\n        /* \"#utility.yul\":4040:4116   */\n      tag_406\n        /* \"#utility.yul\":4109:4115   */\n      dup2\n        /* \"#utility.yul\":4102:4106   */\n      0x20\n        /* \"#utility.yul\":4097:4100   */\n      dup7\n        /* \"#utility.yul\":4093:4107   */\n      add\n        /* \"#utility.yul\":4086:4090   */\n      0x20\n        /* \"#utility.yul\":4079:4084   */\n      dup7\n        /* \"#utility.yul\":4075:4091   */\n      add\n        /* \"#utility.yul\":4040:4116   */\n      tag_359\n      jump\t// in\n    tag_406:\n        /* \"#utility.yul\":4170:4172   */\n      0x1f\n        /* \"#utility.yul\":4149:4164   */\n      add\n      not(0x1f)\n        /* \"#utility.yul\":4145:4174   */\n      and\n        /* \"#utility.yul\":4136:4175   */\n      swap3\n      swap1\n      swap3\n      add\n        /* \"#utility.yul\":4177:4181   */\n      0x20\n        /* \"#utility.yul\":4132:4182   */\n      add\n      swap3\n        /* \"#utility.yul\":3917:4188   */\n      swap2\n      pop\n      pop\n      jump\t// out\n        /* \"#utility.yul\":4193:4413   */\n    tag_46:\n        /* \"#utility.yul\":4342:4344   */\n      0x20\n        /* \"#utility.yul\":4331:4340   */\n      dup2\n        /* \"#utility.yul\":4324:4345   */\n      mstore\n        /* \"#utility.yul\":4305:4309   */\n      0x00\n        /* \"#utility.yul\":4362:4407   */\n      tag_345\n        /* \"#utility.yul\":4403:4405   */\n      0x20\n        /* \"#utility.yul\":4392:4401   */\n      dup4\n        /* \"#utility.yul\":4388:4406   */\n      add\n        /* \"#utility.yul\":4380:4386   */\n      dup5\n        /* \"#utility.yul\":4362:4407   */\n      tag_360\n      jump\t// in\n        /* \"#utility.yul\":4677:4898   */\n    tag_361:\n        /* \"#utility.yul\":4720:4725   */\n      0x00\n        /* \"#utility.yul\":4773:4776   */\n      dup3\n        /* \"#utility.yul\":4766:4770   */\n      0x1f\n        /* \"#utility.yul\":4758:4764   */\n      dup4\n        /* \"#utility.yul\":4754:4771   */\n      add\n        /* \"#utility.yul\":4750:4777   */\n      slt\n        /* \"#utility.yul\":4740:4795   */\n      tag_411\n      jumpi\n        /* \"#utility.yul\":4791:4792   */\n      0x00\n        /* \"#utility.yul\":4788:4789   */\n      dup1\n        /* \"#utility.yul\":4781:4793   */\n      revert\n        /* \"#utility.yul\":4740:4795   */\n    tag_411:\n        /* \"#utility.yul\":4813:4892   */\n      tag_345\n        /* \"#utility.yul\":4888:4891   */\n      dup4\n        /* \"#utility.yul\":4879:4885   */\n      dup4\n        /* \"#utility.yul\":4866:4886   */\n      calldataload\n        /* \"#utility.yul\":4859:4863   */\n      0x20\n        /* \"#utility.yul\":4851:4857   */\n      dup6\n        /* \"#utility.yul\":4847:4864   */\n      add\n        /* \"#utility.yul\":4813:4892   */\n      tag_358\n      jump\t// in\n        /* \"#utility.yul\":4903:5782   */\n    tag_362:\n        /* \"#utility.yul\":4956:4961   */\n      0x00\n        /* \"#utility.yul\":5009:5012   */\n      dup3\n        /* \"#utility.yul\":5002:5006   */\n      0x1f\n        /* \"#utility.yul\":4994:5000   */\n      dup4\n        /* \"#utility.yul\":4990:5007   */\n      add\n        /* \"#utility.yul\":4986:5013   */\n      slt\n        /* \"#utility.yul\":4976:5031   */\n      tag_414\n      jumpi\n        /* \"#utility.yul\":5027:5028   */\n      0x00\n        /* \"#utility.yul\":5024:5025   */\n      dup1\n        /* \"#utility.yul\":5017:5029   */\n      revert\n        /* \"#utility.yul\":4976:5031   */\n    tag_414:\n        /* \"#utility.yul\":5067:5073   */\n      dup2\n        /* \"#utility.yul\":5054:5074   */\n      calldataload\n      sub(shl(0x40, 0x01), 0x01)\n        /* \"#utility.yul\":5089:5095   */\n      dup2\n        /* \"#utility.yul\":5086:5116   */\n      gt\n        /* \"#utility.yul\":5083:5139   */\n      iszero\n      tag_416\n      jumpi\n        /* \"#utility.yul\":5119:5137   */\n      tag_416\n      tag_356\n      jump\t// in\n    tag_416:\n        /* \"#utility.yul\":5165:5171   */\n      dup1\n        /* \"#utility.yul\":5162:5163   */\n      0x05\n        /* \"#utility.yul\":5158:5172   */\n      shl\n        /* \"#utility.yul\":5192:5222   */\n      tag_417\n        /* \"#utility.yul\":5216:5220   */\n      0x20\n        /* \"#utility.yul\":5212:5214   */\n      dup3\n        /* \"#utility.yul\":5208:5221   */\n      add\n        /* \"#utility.yul\":5192:5222   */\n      tag_357\n      jump\t// in\n    tag_417:\n        /* \"#utility.yul\":5258:5277   */\n      swap2\n      dup3\n      mstore\n        /* \"#utility.yul\":5302:5306   */\n      0x20\n        /* \"#utility.yul\":5334:5349   */\n      dup2\n      dup6\n      add\n        /* \"#utility.yul\":5330:5356   */\n      dup2\n      add\n      swap3\n        /* \"#utility.yul\":5293:5307   */\n      swap1\n      dup2\n      add\n      swap1\n        /* \"#utility.yul\":5368:5383   */\n      dup7\n      dup5\n      gt\n        /* \"#utility.yul\":5365:5400   */\n      iszero\n      tag_418\n      jumpi\n        /* \"#utility.yul\":5396:5397   */\n      0x00\n        /* \"#utility.yul\":5393:5394   */\n      dup1\n        /* \"#utility.yul\":5386:5398   */\n      revert\n        /* \"#utility.yul\":5365:5400   */\n    tag_418:\n        /* \"#utility.yul\":5432:5436   */\n      0x20\n        /* \"#utility.yul\":5424:5430   */\n      dup7\n        /* \"#utility.yul\":5420:5437   */\n      add\n        /* \"#utility.yul\":5409:5437   */\n      swap3\n      pop\n        /* \"#utility.yul\":5446:5751   */\n    tag_419:\n        /* \"#utility.yul\":5462:5468   */\n      dup4\n        /* \"#utility.yul\":5457:5460   */\n      dup4\n        /* \"#utility.yul\":5454:5469   */\n      lt\n        /* \"#utility.yul\":5446:5751   */\n      iszero\n      tag_267\n      jumpi\n        /* \"#utility.yul\":5550:5553   */\n      dup3\n        /* \"#utility.yul\":5537:5554   */\n      calldataload\n      sub(shl(0x40, 0x01), 0x01)\n        /* \"#utility.yul\":5573:5584   */\n      dup2\n        /* \"#utility.yul\":5570:5605   */\n      gt\n        /* \"#utility.yul\":5567:5622   */\n      iszero\n      tag_422\n      jumpi\n        /* \"#utility.yul\":5618:5619   */\n      0x00\n        /* \"#utility.yul\":5615:5616   */\n      dup1\n        /* \"#utility.yul\":5608:5620   */\n      revert\n        /* \"#utility.yul\":5567:5622   */\n    tag_422:\n        /* \"#utility.yul\":5647:5706   */\n      tag_423\n        /* \"#utility.yul\":5702:5705   */\n      dup9\n        /* \"#utility.yul\":5695:5699   */\n      0x20\n        /* \"#utility.yul\":5681:5692   */\n      dup4\n        /* \"#utility.yul\":5673:5679   */\n      dup11\n        /* \"#utility.yul\":5669:5693   */\n      add\n        /* \"#utility.yul\":5665:5700   */\n      add\n        /* \"#utility.yul\":5647:5706   */\n      tag_361\n      jump\t// in\n    tag_423:\n        /* \"#utility.yul\":5635:5707   */\n      dup4\n      mstore\n      pop\n        /* \"#utility.yul\":5736:5740   */\n      0x20\n        /* \"#utility.yul\":5479:5493   */\n      swap3\n      dup4\n      add\n      swap3\n        /* \"#utility.yul\":5727:5741   */\n      swap1\n      swap2\n      add\n      swap1\n        /* \"#utility.yul\":5446:5751   */\n      jump(tag_419)\n        /* \"#utility.yul\":5787:7068   */\n    tag_54:\n        /* \"#utility.yul\":5956:5962   */\n      0x00\n        /* \"#utility.yul\":5964:5970   */\n      dup1\n        /* \"#utility.yul\":5972:5978   */\n      0x00\n        /* \"#utility.yul\":5980:5986   */\n      dup1\n        /* \"#utility.yul\":5988:5994   */\n      0x00\n        /* \"#utility.yul\":5996:6002   */\n      dup1\n        /* \"#utility.yul\":6004:6010   */\n      0x00\n        /* \"#utility.yul\":6057:6060   */\n      0xc0\n        /* \"#utility.yul\":6045:6054   */\n      dup9\n        /* \"#utility.yul\":6036:6043   */\n      dup11\n        /* \"#utility.yul\":6032:6055   */\n      sub\n        /* \"#utility.yul\":6028:6061   */\n      slt\n        /* \"#utility.yul\":6025:6078   */\n      iszero\n      tag_425\n      jumpi\n        /* \"#utility.yul\":6074:6075   */\n      0x00\n        /* \"#utility.yul\":6071:6072   */\n      dup1\n        /* \"#utility.yul\":6064:6076   */\n      revert\n        /* \"#utility.yul\":6025:6078   */\n    tag_425:\n        /* \"#utility.yul\":6097:6125   */\n      tag_426\n        /* \"#utility.yul\":6115:6124   */\n      dup9\n        /* \"#utility.yul\":6097:6125   */\n      tag_355\n      jump\t// in\n    tag_426:\n        /* \"#utility.yul\":6087:6125   */\n      swap7\n      pop\n        /* \"#utility.yul\":6176:6178   */\n      0x20\n        /* \"#utility.yul\":6165:6174   */\n      dup9\n        /* \"#utility.yul\":6161:6179   */\n      add\n        /* \"#utility.yul\":6148:6180   */\n      calldataload\n      sub(shl(0x40, 0x01), 0x01)\n        /* \"#utility.yul\":6195:6201   */\n      dup2\n        /* \"#utility.yul\":6192:6222   */\n      gt\n        /* \"#utility.yul\":6189:6239   */\n      iszero\n      tag_427\n      jumpi\n        /* \"#utility.yul\":6235:6236   */\n      0x00\n        /* \"#utility.yul\":6232:6233   */\n      dup1\n        /* \"#utility.yul\":6225:6237   */\n      revert\n        /* \"#utility.yul\":6189:6239   */\n    tag_427:\n        /* \"#utility.yul\":6258:6308   */\n      tag_428\n        /* \"#utility.yul\":6300:6307   */\n      dup11\n        /* \"#utility.yul\":6291:6297   */\n      dup3\n        /* \"#utility.yul\":6280:6289   */\n      dup12\n        /* \"#utility.yul\":6276:6298   */\n      add\n        /* \"#utility.yul\":6258:6308   */\n      tag_361\n      jump\t// in\n    tag_428:\n        /* \"#utility.yul\":6248:6308   */\n      swap7\n      pop\n      pop\n        /* \"#utility.yul\":6361:6363   */\n      0x40\n        /* \"#utility.yul\":6350:6359   */\n      dup9\n        /* \"#utility.yul\":6346:6364   */\n      add\n        /* \"#utility.yul\":6333:6365   */\n      calldataload\n      sub(shl(0x40, 0x01), 0x01)\n        /* \"#utility.yul\":6380:6388   */\n      dup2\n        /* \"#utility.yul\":6377:6409   */\n      gt\n        /* \"#utility.yul\":6374:6426   */\n      iszero\n      tag_429\n      jumpi\n        /* \"#utility.yul\":6422:6423   */\n      0x00\n        /* \"#utility.yul\":6419:6420   */\n      dup1\n        /* \"#utility.yul\":6412:6424   */\n      revert\n        /* \"#utility.yul\":6374:6426   */\n    tag_429:\n        /* \"#utility.yul\":6445:6507   */\n      tag_430\n        /* \"#utility.yul\":6499:6506   */\n      dup11\n        /* \"#utility.yul\":6488:6496   */\n      dup3\n        /* \"#utility.yul\":6477:6486   */\n      dup12\n        /* \"#utility.yul\":6473:6497   */\n      add\n        /* \"#utility.yul\":6445:6507   */\n      tag_362\n      jump\t// in\n    tag_430:\n        /* \"#utility.yul\":6435:6507   */\n      swap6\n      pop\n      pop\n        /* \"#utility.yul\":6560:6562   */\n      0x60\n        /* \"#utility.yul\":6549:6558   */\n      dup9\n        /* \"#utility.yul\":6545:6563   */\n      add\n        /* \"#utility.yul\":6532:6564   */\n      calldataload\n      sub(shl(0x40, 0x01), 0x01)\n        /* \"#utility.yul\":6579:6587   */\n      dup2\n        /* \"#utility.yul\":6576:6608   */\n      gt\n        /* \"#utility.yul\":6573:6625   */\n      iszero\n      tag_431\n      jumpi\n        /* \"#utility.yul\":6621:6622   */\n      0x00\n        /* \"#utility.yul\":6618:6619   */\n      dup1\n        /* \"#utility.yul\":6611:6623   */\n      revert\n        /* \"#utility.yul\":6573:6625   */\n    tag_431:\n        /* \"#utility.yul\":6644:6696   */\n      tag_432\n        /* \"#utility.yul\":6688:6695   */\n      dup11\n        /* \"#utility.yul\":6677:6685   */\n      dup3\n        /* \"#utility.yul\":6666:6675   */\n      dup12\n        /* \"#utility.yul\":6662:6686   */\n      add\n        /* \"#utility.yul\":6644:6696   */\n      tag_361\n      jump\t// in\n    tag_432:\n        /* \"#utility.yul\":6634:6696   */\n      swap5\n      pop\n      pop\n        /* \"#utility.yul\":6765:6768   */\n      0x80\n        /* \"#utility.yul\":6750:6769   */\n      dup9\n      add\n        /* \"#utility.yul\":6737:6770   */\n      calldataload\n      swap3\n      pop\n        /* \"#utility.yul\":6847:6850   */\n      0xa0\n        /* \"#utility.yul\":6832:6851   */\n      dup9\n      add\n        /* \"#utility.yul\":6819:6852   */\n      calldataload\n      sub(shl(0x40, 0x01), 0x01)\n        /* \"#utility.yul\":6864:6896   */\n      dup2\n      gt\n        /* \"#utility.yul\":6861:6913   */\n      iszero\n      tag_378\n      jumpi\n        /* \"#utility.yul\":6909:6910   */\n      0x00\n        /* \"#utility.yul\":6906:6907   */\n      dup1\n        /* \"#utility.yul\":6899:6911   */\n      revert\n        /* \"#utility.yul\":7073:8239   */\n    tag_59:\n        /* \"#utility.yul\":7233:7239   */\n      0x00\n        /* \"#utility.yul\":7241:7247   */\n      dup1\n        /* \"#utility.yul\":7249:7255   */\n      0x00\n        /* \"#utility.yul\":7257:7263   */\n      dup1\n        /* \"#utility.yul\":7265:7271   */\n      0x00\n        /* \"#utility.yul\":7273:7279   */\n      dup1\n        /* \"#utility.yul\":7326:7329   */\n      0xa0\n        /* \"#utility.yul\":7314:7323   */\n      dup8\n        /* \"#utility.yul\":7305:7312   */\n      dup10\n        /* \"#utility.yul\":7301:7324   */\n      sub\n        /* \"#utility.yul\":7297:7330   */\n      slt\n        /* \"#utility.yul\":7294:7347   */\n      iszero\n      tag_436\n      jumpi\n        /* \"#utility.yul\":7343:7344   */\n      0x00\n        /* \"#utility.yul\":7340:7341   */\n      dup1\n        /* \"#utility.yul\":7333:7345   */\n      revert\n        /* \"#utility.yul\":7294:7347   */\n    tag_436:\n        /* \"#utility.yul\":7366:7394   */\n      tag_437\n        /* \"#utility.yul\":7384:7393   */\n      dup8\n        /* \"#utility.yul\":7366:7394   */\n      tag_355\n      jump\t// in\n    tag_437:\n        /* \"#utility.yul\":7356:7394   */\n      swap6\n      pop\n        /* \"#utility.yul\":7445:7447   */\n      0x20\n        /* \"#utility.yul\":7434:7443   */\n      dup8\n        /* \"#utility.yul\":7430:7448   */\n      add\n        /* \"#utility.yul\":7417:7449   */\n      calldataload\n      sub(shl(0x40, 0x01), 0x01)\n        /* \"#utility.yul\":7464:7470   */\n      dup2\n        /* \"#utility.yul\":7461:7491   */\n      gt\n        /* \"#utility.yul\":7458:7508   */\n      iszero\n      tag_438\n      jumpi\n        /* \"#utility.yul\":7504:7505   */\n      0x00\n        /* \"#utility.yul\":7501:7502   */\n      dup1\n        /* \"#utility.yul\":7494:7506   */\n      revert\n        /* \"#utility.yul\":7458:7508   */\n    tag_438:\n        /* \"#utility.yul\":7527:7577   */\n      tag_439\n        /* \"#utility.yul\":7569:7576   */\n      dup10\n        /* \"#utility.yul\":7560:7566   */\n      dup3\n        /* \"#utility.yul\":7549:7558   */\n      dup11\n        /* \"#utility.yul\":7545:7567   */\n      add\n        /* \"#utility.yul\":7527:7577   */\n      tag_361\n      jump\t// in\n    tag_439:\n        /* \"#utility.yul\":7517:7577   */\n      swap6\n      pop\n      pop\n        /* \"#utility.yul\":7630:7632   */\n      0x40\n        /* \"#utility.yul\":7619:7628   */\n      dup8\n        /* \"#utility.yul\":7615:7633   */\n      add\n        /* \"#utility.yul\":7602:7634   */\n      calldataload\n      sub(shl(0x40, 0x01), 0x01)\n        /* \"#utility.yul\":7649:7657   */\n      dup2\n        /* \"#utility.yul\":7646:7678   */\n      gt\n        /* \"#utility.yul\":7643:7695   */\n      iszero\n      tag_440\n      jumpi\n        /* \"#utility.yul\":7691:7692   */\n      0x00\n        /* \"#utility.yul\":7688:7689   */\n      dup1\n        /* \"#utility.yul\":7681:7693   */\n      revert\n        /* \"#utility.yul\":7643:7695   */\n    tag_440:\n        /* \"#utility.yul\":7714:7776   */\n      tag_441\n        /* \"#utility.yul\":7768:7775   */\n      dup10\n        /* \"#utility.yul\":7757:7765   */\n      dup3\n        /* \"#utility.yul\":7746:7755   */\n      dup11\n        /* \"#utility.yul\":7742:7766   */\n      add\n        /* \"#utility.yul\":7714:7776   */\n      tag_362\n      jump\t// in\n    tag_441:\n        /* \"#utility.yul\":7704:7776   */\n      swap5\n      pop\n      pop\n        /* \"#utility.yul\":7829:7831   */\n      0x60\n        /* \"#utility.yul\":7818:7827   */\n      dup8\n        /* \"#utility.yul\":7814:7832   */\n      add\n        /* \"#utility.yul\":7801:7833   */\n      calldataload\n      sub(shl(0x40, 0x01), 0x01)\n        /* \"#utility.yul\":7848:7856   */\n      dup2\n        /* \"#utility.yul\":7845:7877   */\n      gt\n        /* \"#utility.yul\":7842:7894   */\n      iszero\n      tag_442\n      jumpi\n        /* \"#utility.yul\":7890:7891   */\n      0x00\n        /* \"#utility.yul\":7887:7888   */\n      dup1\n        /* \"#utility.yul\":7880:7892   */\n      revert\n        /* \"#utility.yul\":7842:7894   */\n    tag_442:\n        /* \"#utility.yul\":7913:7965   */\n      tag_443\n        /* \"#utility.yul\":7957:7964   */\n      dup10\n        /* \"#utility.yul\":7946:7954   */\n      dup3\n        /* \"#utility.yul\":7935:7944   */\n      dup11\n        /* \"#utility.yul\":7931:7955   */\n      add\n        /* \"#utility.yul\":7913:7965   */\n      tag_361\n      jump\t// in\n    tag_443:\n        /* \"#utility.yul\":7903:7965   */\n      swap4\n      pop\n      pop\n        /* \"#utility.yul\":8018:8021   */\n      0x80\n        /* \"#utility.yul\":8007:8016   */\n      dup8\n        /* \"#utility.yul\":8003:8022   */\n      add\n        /* \"#utility.yul\":7990:8023   */\n      calldataload\n      sub(shl(0x40, 0x01), 0x01)\n        /* \"#utility.yul\":8038:8046   */\n      dup2\n        /* \"#utility.yul\":8035:8067   */\n      gt\n        /* \"#utility.yul\":8032:8084   */\n      iszero\n      tag_444\n      jumpi\n        /* \"#utility.yul\":8080:8081   */\n      0x00\n        /* \"#utility.yul\":8077:8078   */\n      dup1\n        /* \"#utility.yul\":8070:8082   */\n      revert\n        /* \"#utility.yul\":8032:8084   */\n    tag_444:\n        /* \"#utility.yul\":8119:8179   */\n      tag_445\n        /* \"#utility.yul\":8171:8178   */\n      dup10\n        /* \"#utility.yul\":8160:8168   */\n      dup3\n        /* \"#utility.yul\":8149:8158   */\n      dup11\n        /* \"#utility.yul\":8145:8169   */\n      add\n        /* \"#utility.yul\":8119:8179   */\n      tag_353\n      jump\t// in\n    tag_445:\n        /* \"#utility.yul\":7073:8239   */\n      swap8\n      swap11\n      swap7\n      swap10\n      pop\n      swap5\n      swap8\n      pop\n      swap3\n      swap6\n        /* \"#utility.yul\":8198:8206   */\n      swap4\n      swap5\n        /* \"#utility.yul\":7073:8239   */\n      swap3\n      pop\n      pop\n      pop\n      jump\t// out\n        /* \"#utility.yul\":8783:9083   */\n    tag_74:\n        /* \"#utility.yul\":8851:8857   */\n      0x00\n        /* \"#utility.yul\":8859:8865   */\n      dup1\n        /* \"#utility.yul\":8912:8914   */\n      0x40\n        /* \"#utility.yul\":8900:8909   */\n      dup4\n        /* \"#utility.yul\":8891:8898   */\n      dup6\n        /* \"#utility.yul\":8887:8910   */\n      sub\n        /* \"#utility.yul\":8883:8915   */\n      slt\n        /* \"#utility.yul\":8880:8932   */\n      iszero\n      tag_449\n      jumpi\n        /* \"#utility.yul\":8928:8929   */\n      0x00\n        /* \"#utility.yul\":8925:8926   */\n      dup1\n        /* \"#utility.yul\":8918:8930   */\n      revert\n        /* \"#utility.yul\":8880:8932   */\n    tag_449:\n        /* \"#utility.yul\":8951:8980   */\n      tag_384\n        /* \"#utility.yul\":8970:8979   */\n      dup4\n        /* \"#utility.yul\":8951:8980   */\n      tag_354\n      jump\t// in\n        /* \"#utility.yul\":9088:9272   */\n    tag_83:\n        /* \"#utility.yul\":9146:9152   */\n      0x00\n        /* \"#utility.yul\":9199:9201   */\n      0x20\n        /* \"#utility.yul\":9187:9196   */\n      dup3\n        /* \"#utility.yul\":9178:9185   */\n      dup5\n        /* \"#utility.yul\":9174:9197   */\n      sub\n        /* \"#utility.yul\":9170:9202   */\n      slt\n        /* \"#utility.yul\":9167:9219   */\n      iszero\n      tag_452\n      jumpi\n        /* \"#utility.yul\":9215:9216   */\n      0x00\n        /* \"#utility.yul\":9212:9213   */\n      dup1\n        /* \"#utility.yul\":9205:9217   */\n      revert\n        /* \"#utility.yul\":9167:9219   */\n    tag_452:\n        /* \"#utility.yul\":9238:9266   */\n      tag_345\n        /* \"#utility.yul\":9256:9265   */\n      dup3\n        /* \"#utility.yul\":9238:9266   */\n      tag_355\n      jump\t// in\n        /* \"#utility.yul\":9277:9611   */\n    tag_89:\n        /* \"#utility.yul\":9354:9360   */\n      0x00\n        /* \"#utility.yul\":9362:9368   */\n      dup1\n        /* \"#utility.yul\":9370:9376   */\n      0x00\n        /* \"#utility.yul\":9423:9425   */\n      0x60\n        /* \"#utility.yul\":9411:9420   */\n      dup5\n        /* \"#utility.yul\":9402:9409   */\n      dup7\n        /* \"#utility.yul\":9398:9421   */\n      sub\n        /* \"#utility.yul\":9394:9426   */\n      slt\n        /* \"#utility.yul\":9391:9443   */\n      iszero\n      tag_455\n      jumpi\n        /* \"#utility.yul\":9439:9440   */\n      0x00\n        /* \"#utility.yul\":9436:9437   */\n      dup1\n        /* \"#utility.yul\":9429:9441   */\n      revert\n        /* \"#utility.yul\":9391:9443   */\n    tag_455:\n        /* \"#utility.yul\":9462:9491   */\n      tag_456\n        /* \"#utility.yul\":9481:9490   */\n      dup5\n        /* \"#utility.yul\":9462:9491   */\n      tag_354\n      jump\t// in\n    tag_456:\n        /* \"#utility.yul\":9452:9491   */\n      swap3\n      pop\n        /* \"#utility.yul\":9510:9548   */\n      tag_457\n        /* \"#utility.yul\":9544:9546   */\n      0x20\n        /* \"#utility.yul\":9533:9542   */\n      dup6\n        /* \"#utility.yul\":9529:9547   */\n      add\n        /* \"#utility.yul\":9510:9548   */\n      tag_354\n      jump\t// in\n    tag_457:\n        /* \"#utility.yul\":9500:9548   */\n      swap2\n      pop\n        /* \"#utility.yul\":9567:9605   */\n      tag_458\n        /* \"#utility.yul\":9601:9603   */\n      0x40\n        /* \"#utility.yul\":9590:9599   */\n      dup6\n        /* \"#utility.yul\":9586:9604   */\n      add\n        /* \"#utility.yul\":9567:9605   */\n      tag_354\n      jump\t// in\n    tag_458:\n        /* \"#utility.yul\":9557:9605   */\n      swap1\n      pop\n        /* \"#utility.yul\":9277:9611   */\n      swap3\n      pop\n      swap3\n      pop\n      swap3\n      jump\t// out\n        /* \"#utility.yul\":9616:9802   */\n    tag_94:\n        /* \"#utility.yul\":9675:9681   */\n      0x00\n        /* \"#utility.yul\":9728:9730   */\n      0x20\n        /* \"#utility.yul\":9716:9725   */\n      dup3\n        /* \"#utility.yul\":9707:9714   */\n      dup5\n        /* \"#utility.yul\":9703:9726   */\n      sub\n        /* \"#utility.yul\":9699:9731   */\n      slt\n        /* \"#utility.yul\":9696:9748   */\n      iszero\n      tag_460\n      jumpi\n        /* \"#utility.yul\":9744:9745   */\n      0x00\n        /* \"#utility.yul\":9741:9742   */\n      dup1\n        /* \"#utility.yul\":9734:9746   */\n      revert\n        /* \"#utility.yul\":9696:9748   */\n    tag_460:\n        /* \"#utility.yul\":9767:9796   */\n      tag_345\n        /* \"#utility.yul\":9786:9795   */\n      dup3\n        /* \"#utility.yul\":9767:9796   */\n      tag_354\n      jump\t// in\n        /* \"#utility.yul\":11694:11971   */\n    tag_149:\n        /* \"#utility.yul\":11761:11767   */\n      0x00\n        /* \"#utility.yul\":11814:11816   */\n      0x20\n        /* \"#utility.yul\":11802:11811   */\n      dup3\n        /* \"#utility.yul\":11793:11800   */\n      dup5\n        /* \"#utility.yul\":11789:11812   */\n      sub\n        /* \"#utility.yul\":11785:11817   */\n      slt\n        /* \"#utility.yul\":11782:11834   */\n      iszero\n      tag_469\n      jumpi\n        /* \"#utility.yul\":11830:11831   */\n      0x00\n        /* \"#utility.yul\":11827:11828   */\n      dup1\n        /* \"#utility.yul\":11820:11832   */\n      revert\n        /* \"#utility.yul\":11782:11834   */\n    tag_469:\n        /* \"#utility.yul\":11862:11871   */\n      dup2\n        /* \"#utility.yul\":11856:11872   */\n      mload\n        /* \"#utility.yul\":11915:11920   */\n      dup1\n        /* \"#utility.yul\":11908:11921   */\n      iszero\n        /* \"#utility.yul\":11901:11922   */\n      iszero\n        /* \"#utility.yul\":11894:11899   */\n      dup2\n        /* \"#utility.yul\":11891:11923   */\n      eq\n        /* \"#utility.yul\":11881:11941   */\n      tag_345\n      jumpi\n        /* \"#utility.yul\":11937:11938   */\n      0x00\n        /* \"#utility.yul\":11934:11935   */\n      dup1\n        /* \"#utility.yul\":11927:11939   */\n      revert\n        /* \"#utility.yul\":12325:13488   */\n    tag_154:\n      sub(shl(0xa0, 0x01), 0x01)\n        /* \"#utility.yul\":12652:12658   */\n      dup6\n        /* \"#utility.yul\":12648:12703   */\n      and\n        /* \"#utility.yul\":12637:12646   */\n      dup2\n        /* \"#utility.yul\":12630:12704   */\n      mstore\n        /* \"#utility.yul\":12740:12743   */\n      0x80\n        /* \"#utility.yul\":12735:12737   */\n      0x20\n        /* \"#utility.yul\":12724:12733   */\n      dup3\n        /* \"#utility.yul\":12720:12738   */\n      add\n        /* \"#utility.yul\":12713:12744   */\n      mstore\n        /* \"#utility.yul\":12611:12615   */\n      0x00\n        /* \"#utility.yul\":12767:12813   */\n      tag_473\n        /* \"#utility.yul\":12808:12811   */\n      0x80\n        /* \"#utility.yul\":12797:12806   */\n      dup4\n        /* \"#utility.yul\":12793:12812   */\n      add\n        /* \"#utility.yul\":12785:12791   */\n      dup7\n        /* \"#utility.yul\":12767:12813   */\n      tag_360\n      jump\t// in\n    tag_473:\n        /* \"#utility.yul\":12861:12870   */\n      dup3\n        /* \"#utility.yul\":12853:12859   */\n      dup2\n        /* \"#utility.yul\":12849:12871   */\n      sub\n        /* \"#utility.yul\":12844:12846   */\n      0x40\n        /* \"#utility.yul\":12833:12842   */\n      dup5\n        /* \"#utility.yul\":12829:12847   */\n      add\n        /* \"#utility.yul\":12822:12872   */\n      mstore\n        /* \"#utility.yul\":12892:12898   */\n      dup1\n        /* \"#utility.yul\":12927:12933   */\n      dup6\n        /* \"#utility.yul\":12921:12934   */\n      mload\n        /* \"#utility.yul\":12958:12964   */\n      dup1\n        /* \"#utility.yul\":12950:12956   */\n      dup4\n        /* \"#utility.yul\":12943:12965   */\n      mstore\n        /* \"#utility.yul\":12993:12995   */\n      0x20\n        /* \"#utility.yul\":12985:12991   */\n      dup4\n        /* \"#utility.yul\":12981:12996   */\n      add\n        /* \"#utility.yul\":12974:12996   */\n      swap2\n      pop\n        /* \"#utility.yul\":13052:13054   */\n      0x20\n        /* \"#utility.yul\":13042:13048   */\n      dup2\n        /* \"#utility.yul\":13039:13040   */\n      0x05\n        /* \"#utility.yul\":13035:13049   */\n      shl\n        /* \"#utility.yul\":13027:13033   */\n      dup5\n        /* \"#utility.yul\":13023:13050   */\n      add\n        /* \"#utility.yul\":13019:13055   */\n      add\n        /* \"#utility.yul\":13090:13092   */\n      0x20\n        /* \"#utility.yul\":13082:13088   */\n      dup9\n        /* \"#utility.yul\":13078:13093   */\n      add\n        /* \"#utility.yul\":13111:13112   */\n      0x00\n        /* \"#utility.yul\":13121:13373   */\n    tag_474:\n        /* \"#utility.yul\":13135:13141   */\n      dup4\n        /* \"#utility.yul\":13132:13133   */\n      dup2\n        /* \"#utility.yul\":13129:13142   */\n      lt\n        /* \"#utility.yul\":13121:13373   */\n      iszero\n      tag_476\n      jumpi\n        /* \"#utility.yul\":13225:13227   */\n      0x1f\n        /* \"#utility.yul\":13221:13228   */\n      not\n        /* \"#utility.yul\":13212:13218   */\n      dup7\n        /* \"#utility.yul\":13204:13210   */\n      dup5\n        /* \"#utility.yul\":13200:13219   */\n      sub\n        /* \"#utility.yul\":13196:13229   */\n      add\n        /* \"#utility.yul\":13191:13194   */\n      dup6\n        /* \"#utility.yul\":13184:13230   */\n      mstore\n        /* \"#utility.yul\":13253:13293   */\n      tag_477\n        /* \"#utility.yul\":13286:13292   */\n      dup4\n        /* \"#utility.yul\":13277:13283   */\n      dup4\n        /* \"#utility.yul\":13271:13284   */\n      mload\n        /* \"#utility.yul\":13253:13293   */\n      tag_360\n      jump\t// in\n    tag_477:\n        /* \"#utility.yul\":13328:13330   */\n      0x20\n        /* \"#utility.yul\":13351:13363   */\n      swap6\n      dup7\n      add\n      swap6\n        /* \"#utility.yul\":13243:13293   */\n      swap1\n      swap4\n      pop\n        /* \"#utility.yul\":13316:13331   */\n      swap2\n      swap1\n      swap2\n      add\n      swap1\n        /* \"#utility.yul\":13157:13158   */\n      0x01\n        /* \"#utility.yul\":13150:13159   */\n      add\n        /* \"#utility.yul\":13121:13373   */\n      jump(tag_474)\n    tag_476:\n        /* \"#utility.yul\":13125:13128   */\n      pop\n      pop\n        /* \"#utility.yul\":13421:13430   */\n      dup6\n        /* \"#utility.yul\":13413:13419   */\n      dup2\n        /* \"#utility.yul\":13409:13431   */\n      sub\n        /* \"#utility.yul\":13404:13406   */\n      0x60\n        /* \"#utility.yul\":13393:13402   */\n      dup8\n        /* \"#utility.yul\":13389:13407   */\n      add\n        /* \"#utility.yul\":13382:13432   */\n      mstore\n        /* \"#utility.yul\":13449:13482   */\n      tag_478\n        /* \"#utility.yul\":13475:13481   */\n      dup2\n        /* \"#utility.yul\":13467:13473   */\n      dup9\n        /* \"#utility.yul\":13449:13482   */\n      tag_360\n      jump\t// in\n    tag_478:\n        /* \"#utility.yul\":13441:13482   */\n      swap11\n        /* \"#utility.yul\":12325:13488   */\n      swap10\n      pop\n      pop\n      pop\n      pop\n      pop\n      pop\n      pop\n      pop\n      pop\n      pop\n      jump\t// out\n        /* \"#utility.yul\":13840:14131   */\n    tag_163:\n        /* \"#utility.yul\":14017:14019   */\n      0x40\n        /* \"#utility.yul\":14006:14015   */\n      dup2\n        /* \"#utility.yul\":13999:14020   */\n      mstore\n        /* \"#utility.yul\":13980:13984   */\n      0x00\n        /* \"#utility.yul\":14037:14082   */\n      tag_481\n        /* \"#utility.yul\":14078:14080   */\n      0x40\n        /* \"#utility.yul\":14067:14076   */\n      dup4\n        /* \"#utility.yul\":14063:14081   */\n      add\n        /* \"#utility.yul\":14055:14061   */\n      dup6\n        /* \"#utility.yul\":14037:14082   */\n      tag_360\n      jump\t// in\n    tag_481:\n        /* \"#utility.yul\":14029:14082   */\n      swap1\n      pop\n        /* \"#utility.yul\":14118:14124   */\n      dup3\n        /* \"#utility.yul\":14113:14115   */\n      0x20\n        /* \"#utility.yul\":14102:14111   */\n      dup4\n        /* \"#utility.yul\":14098:14116   */\n      add\n        /* \"#utility.yul\":14091:14125   */\n      mstore\n        /* \"#utility.yul\":13840:14131   */\n      swap4\n      swap3\n      pop\n      pop\n      pop\n      jump\t// out\n        /* \"#utility.yul\":15178:15408   */\n    tag_235:\n        /* \"#utility.yul\":15248:15254   */\n      0x00\n        /* \"#utility.yul\":15301:15303   */\n      0x20\n        /* \"#utility.yul\":15289:15298   */\n      dup3\n        /* \"#utility.yul\":15280:15287   */\n      dup5\n        /* \"#utility.yul\":15276:15299   */\n      sub\n        /* \"#utility.yul\":15272:15304   */\n      slt\n        /* \"#utility.yul\":15269:15321   */\n      iszero\n      tag_487\n      jumpi\n        /* \"#utility.yul\":15317:15318   */\n      0x00\n        /* \"#utility.yul\":15314:15315   */\n      dup1\n        /* \"#utility.yul\":15307:15319   */\n      revert\n        /* \"#utility.yul\":15269:15321   */\n    tag_487:\n      pop\n        /* \"#utility.yul\":15362:15378   */\n      mload\n      swap2\n        /* \"#utility.yul\":15178:15408   */\n      swap1\n      pop\n      jump\t// out\n        /* \"#utility.yul\":15773:16367   */\n    tag_363:\n        /* \"#utility.yul\":15879:15889   */\n      0xffffffff\n        /* \"#utility.yul\":15871:15876   */\n      dup2\n        /* \"#utility.yul\":15865:15877   */\n      mload\n        /* \"#utility.yul\":15861:15890   */\n      and\n        /* \"#utility.yul\":15856:15859   */\n      dup3\n        /* \"#utility.yul\":15849:15891   */\n      mstore\n        /* \"#utility.yul\":15940:15944   */\n      0x20\n        /* \"#utility.yul\":15933:15938   */\n      dup2\n        /* \"#utility.yul\":15929:15945   */\n      add\n        /* \"#utility.yul\":15923:15946   */\n      mload\n        /* \"#utility.yul\":15916:15920   */\n      0x20\n        /* \"#utility.yul\":15911:15914   */\n      dup4\n        /* \"#utility.yul\":15907:15921   */\n      add\n        /* \"#utility.yul\":15900:15947   */\n      mstore\n        /* \"#utility.yul\":15831:15834   */\n      0x00\n        /* \"#utility.yul\":15993:15997   */\n      0x40\n        /* \"#utility.yul\":15986:15991   */\n      dup3\n        /* \"#utility.yul\":15982:15998   */\n      add\n        /* \"#utility.yul\":15976:15999   */\n      mload\n        /* \"#utility.yul\":16031:16035   */\n      0xa0\n        /* \"#utility.yul\":16024:16028   */\n      0x40\n        /* \"#utility.yul\":16019:16022   */\n      dup6\n        /* \"#utility.yul\":16015:16029   */\n      add\n        /* \"#utility.yul\":16008:16036   */\n      mstore\n        /* \"#utility.yul\":16057:16104   */\n      tag_490\n        /* \"#utility.yul\":16098:16102   */\n      0xa0\n        /* \"#utility.yul\":16093:16096   */\n      dup6\n        /* \"#utility.yul\":16089:16103   */\n      add\n        /* \"#utility.yul\":16075:16087   */\n      dup3\n        /* \"#utility.yul\":16057:16104   */\n      tag_360\n      jump\t// in\n    tag_490:\n        /* \"#utility.yul\":16045:16104   */\n      swap1\n      pop\n        /* \"#utility.yul\":16152:16156   */\n      0x60\n        /* \"#utility.yul\":16145:16150   */\n      dup4\n        /* \"#utility.yul\":16141:16157   */\n      add\n        /* \"#utility.yul\":16135:16158   */\n      mload\n        /* \"#utility.yul\":16200:16203   */\n      dup5\n        /* \"#utility.yul\":16194:16198   */\n      dup3\n        /* \"#utility.yul\":16190:16204   */\n      sub\n        /* \"#utility.yul\":16183:16187   */\n      0x60\n        /* \"#utility.yul\":16178:16181   */\n      dup7\n        /* \"#utility.yul\":16174:16188   */\n      add\n        /* \"#utility.yul\":16167:16205   */\n      mstore\n        /* \"#utility.yul\":16228:16267   */\n      tag_491\n        /* \"#utility.yul\":16262:16266   */\n      dup3\n        /* \"#utility.yul\":16246:16260   */\n      dup3\n        /* \"#utility.yul\":16228:16267   */\n      tag_360\n      jump\t// in\n    tag_491:\n        /* \"#utility.yul\":16214:16267   */\n      swap2\n      pop\n      pop\n        /* \"#utility.yul\":16330:16334   */\n      0x80\n        /* \"#utility.yul\":16323:16328   */\n      dup4\n        /* \"#utility.yul\":16319:16335   */\n      add\n        /* \"#utility.yul\":16313:16336   */\n      mload\n        /* \"#utility.yul\":16306:16337   */\n      iszero\n        /* \"#utility.yul\":16299:16338   */\n      iszero\n        /* \"#utility.yul\":16292:16296   */\n      0x80\n        /* \"#utility.yul\":16287:16290   */\n      dup6\n        /* \"#utility.yul\":16283:16297   */\n      add\n        /* \"#utility.yul\":16276:16339   */\n      mstore\n        /* \"#utility.yul\":16355:16361   */\n      dup1\n        /* \"#utility.yul\":16348:16361   */\n      swap2\n      pop\n      pop\n        /* \"#utility.yul\":15773:16367   */\n      swap3\n      swap2\n      pop\n      pop\n      jump\t// out\n        /* \"#utility.yul\":16372:16770   */\n    tag_255:\n        /* \"#utility.yul\":16591:16593   */\n      0x40\n        /* \"#utility.yul\":16580:16589   */\n      dup2\n        /* \"#utility.yul\":16573:16594   */\n      mstore\n        /* \"#utility.yul\":16554:16558   */\n      0x00\n        /* \"#utility.yul\":16611:16672   */\n      tag_493\n        /* \"#utility.yul\":16668:16670   */\n      0x40\n        /* \"#utility.yul\":16657:16666   */\n      dup4\n        /* \"#utility.yul\":16653:16671   */\n      add\n        /* \"#utility.yul\":16645:16651   */\n      dup6\n        /* \"#utility.yul\":16611:16672   */\n      tag_363\n      jump\t// in\n    tag_493:\n        /* \"#utility.yul\":16603:16672   */\n      swap1\n      pop\n      sub(shl(0xa0, 0x01), 0x01)\n        /* \"#utility.yul\":16712:16718   */\n      dup4\n        /* \"#utility.yul\":16708:16763   */\n      and\n        /* \"#utility.yul\":16703:16705   */\n      0x20\n        /* \"#utility.yul\":16692:16701   */\n      dup4\n        /* \"#utility.yul\":16688:16706   */\n      add\n        /* \"#utility.yul\":16681:16764   */\n      mstore\n        /* \"#utility.yul\":16372:16770   */\n      swap4\n      swap3\n      pop\n      pop\n      pop\n      jump\t// out\n        /* \"#utility.yul\":16775:17377   */\n    tag_364:\n        /* \"#utility.yul\":16845:16850   */\n      0x00\n        /* \"#utility.yul\":16893:16897   */\n      0x40\n        /* \"#utility.yul\":16881:16890   */\n      dup3\n        /* \"#utility.yul\":16876:16879   */\n      dup5\n        /* \"#utility.yul\":16872:16891   */\n      sub\n        /* \"#utility.yul\":16868:16898   */\n      slt\n        /* \"#utility.yul\":16865:16915   */\n      iszero\n      tag_495\n      jumpi\n        /* \"#utility.yul\":16911:16912   */\n      0x00\n        /* \"#utility.yul\":16908:16909   */\n      dup1\n        /* \"#utility.yul\":16901:16913   */\n      revert\n        /* \"#utility.yul\":16865:16915   */\n    tag_495:\n        /* \"#utility.yul\":16964:16968   */\n      0x40\n        /* \"#utility.yul\":16958:16969   */\n      dup1\n      mload\n      swap1\n        /* \"#utility.yul\":16996:17013   */\n      dup2\n      add\n      sub(shl(0x40, 0x01), 0x01)\n        /* \"#utility.yul\":17028:17062   */\n      dup2\n      gt\n        /* \"#utility.yul\":17064:17086   */\n      dup3\n      dup3\n      lt\n        /* \"#utility.yul\":17025:17087   */\n      or\n        /* \"#utility.yul\":17022:17110   */\n      iszero\n      tag_497\n      jumpi\n        /* \"#utility.yul\":17090:17108   */\n      tag_497\n      tag_356\n      jump\t// in\n    tag_497:\n        /* \"#utility.yul\":17126:17130   */\n      0x40\n        /* \"#utility.yul\":17119:17143   */\n      mstore\n        /* \"#utility.yul\":17212:17228   */\n      dup3\n      mload\n        /* \"#utility.yul\":17237:17260   */\n      dup2\n      mstore\n        /* \"#utility.yul\":17326:17328   */\n      0x20\n        /* \"#utility.yul\":17311:17329   */\n      swap3\n      dup4\n      add\n        /* \"#utility.yul\":17305:17330   */\n      mload\n        /* \"#utility.yul\":17346:17361   */\n      swap3\n      dup2\n      add\n        /* \"#utility.yul\":17339:17371   */\n      swap3\n      swap1\n      swap3\n      mstore\n      pop\n        /* \"#utility.yul\":17161:17167   */\n      swap2\n        /* \"#utility.yul\":16775:17377   */\n      swap1\n      pop\n      jump\t// out\n        /* \"#utility.yul\":17382:17639   */\n    tag_259:\n        /* \"#utility.yul\":17480:17486   */\n      0x00\n        /* \"#utility.yul\":17533:17535   */\n      0x40\n        /* \"#utility.yul\":17521:17530   */\n      dup3\n        /* \"#utility.yul\":17512:17519   */\n      dup5\n        /* \"#utility.yul\":17508:17531   */\n      sub\n        /* \"#utility.yul\":17504:17536   */\n      slt\n        /* \"#utility.yul\":17501:17553   */\n      iszero\n      tag_499\n      jumpi\n        /* \"#utility.yul\":17549:17550   */\n      0x00\n        /* \"#utility.yul\":17546:17547   */\n      dup1\n        /* \"#utility.yul\":17539:17551   */\n      revert\n        /* \"#utility.yul\":17501:17553   */\n    tag_499:\n        /* \"#utility.yul\":17572:17633   */\n      tag_345\n        /* \"#utility.yul\":17625:17632   */\n      dup4\n        /* \"#utility.yul\":17614:17623   */\n      dup4\n        /* \"#utility.yul\":17572:17633   */\n      tag_364\n      jump\t// in\n        /* \"#utility.yul\":18055:18890   */\n    tag_268:\n        /* \"#utility.yul\":18157:18163   */\n      0x00\n        /* \"#utility.yul\":18217:18220   */\n      0x80\n        /* \"#utility.yul\":18205:18214   */\n      dup3\n        /* \"#utility.yul\":18196:18203   */\n      dup5\n        /* \"#utility.yul\":18192:18215   */\n      sub\n        /* \"#utility.yul\":18188:18221   */\n      slt\n        /* \"#utility.yul\":18233:18235   */\n      dup1\n        /* \"#utility.yul\":18230:18252   */\n      iszero\n      tag_504\n      jumpi\n        /* \"#utility.yul\":18248:18249   */\n      0x00\n        /* \"#utility.yul\":18245:18246   */\n      dup1\n        /* \"#utility.yul\":18238:18250   */\n      revert\n        /* \"#utility.yul\":18230:18252   */\n    tag_504:\n      pop\n        /* \"#utility.yul\":18318:18320   */\n      0x40\n        /* \"#utility.yul\":18312:18321   */\n      mload\n        /* \"#utility.yul\":18267:18268   */\n      0x00\n      swap1\n        /* \"#utility.yul\":18360:18364   */\n      0x60\n        /* \"#utility.yul\":18348:18365   */\n      dup2\n      add\n      sub(shl(0x40, 0x01), 0x01)\n        /* \"#utility.yul\":18380:18414   */\n      dup2\n      gt\n        /* \"#utility.yul\":18416:18438   */\n      dup3\n      dup3\n      lt\n        /* \"#utility.yul\":18377:18439   */\n      or\n        /* \"#utility.yul\":18374:18462   */\n      iszero\n      tag_506\n      jumpi\n        /* \"#utility.yul\":18442:18460   */\n      tag_506\n      tag_356\n      jump\t// in\n    tag_506:\n        /* \"#utility.yul\":18478:18480   */\n      0x40\n        /* \"#utility.yul\":18471:18493   */\n      mstore\n        /* \"#utility.yul\":18535:18551   */\n      dup4\n      mload\n        /* \"#utility.yul\":18560:18581   */\n      dup2\n      mstore\n        /* \"#utility.yul\":18626:18628   */\n      0x20\n        /* \"#utility.yul\":18611:18629   */\n      dup5\n      add\n        /* \"#utility.yul\":18605:18630   */\n      mload\n      sub(shl(0x40, 0x01), 0x01)\n        /* \"#utility.yul\":18661:18693   */\n      dup2\n      and\n        /* \"#utility.yul\":18649:18694   */\n      dup2\n      eq\n        /* \"#utility.yul\":18639:18714   */\n      tag_507\n      jumpi\n        /* \"#utility.yul\":18709:18711   */\n      dup3\n        /* \"#utility.yul\":18705:18707   */\n      dup4\n        /* \"#utility.yul\":18698:18712   */\n      revert\n        /* \"#utility.yul\":18639:18714   */\n    tag_507:\n        /* \"#utility.yul\":18742:18744   */\n      0x20\n        /* \"#utility.yul\":18730:18745   */\n      dup3\n      add\n        /* \"#utility.yul\":18723:18755   */\n      mstore\n        /* \"#utility.yul\":18788:18858   */\n      tag_508\n        /* \"#utility.yul\":18850:18857   */\n      dup6\n        /* \"#utility.yul\":18845:18847   */\n      0x40\n        /* \"#utility.yul\":18830:18848   */\n      dup7\n      add\n        /* \"#utility.yul\":18788:18858   */\n      tag_364\n      jump\t// in\n    tag_508:\n        /* \"#utility.yul\":18783:18785   */\n      0x40\n        /* \"#utility.yul\":18771:18786   */\n      dup3\n      add\n        /* \"#utility.yul\":18764:18859   */\n      mstore\n        /* \"#utility.yul\":18775:18781   */\n      swap5\n        /* \"#utility.yul\":18055:18890   */\n      swap4\n      pop\n      pop\n      pop\n      pop\n      jump\t// out\n        /* \"#utility.yul\":18895:19182   */\n    tag_325:\n        /* \"#utility.yul\":19024:19027   */\n      0x00\n        /* \"#utility.yul\":19062:19068   */\n      dup3\n        /* \"#utility.yul\":19056:19069   */\n      mload\n        /* \"#utility.yul\":19078:19144   */\n      tag_510\n        /* \"#utility.yul\":19137:19143   */\n      dup2\n        /* \"#utility.yul\":19132:19135   */\n      dup5\n        /* \"#utility.yul\":19125:19129   */\n      0x20\n        /* \"#utility.yul\":19117:19123   */\n      dup8\n        /* \"#utility.yul\":19113:19130   */\n      add\n        /* \"#utility.yul\":19078:19144   */\n      tag_359\n      jump\t// in\n    tag_510:\n        /* \"#utility.yul\":19160:19176   */\n      swap2\n      swap1\n      swap2\n      add\n      swap3\n        /* \"#utility.yul\":18895:19182   */\n      swap2\n      pop\n      pop\n      jump\t// out\n\n    auxdata: 0xa26469706673582212208f53a655c4a18b3fb5d1446b6f291069bb54a5945ee3358f86d0146f5da3730a64736f6c634300081c0033\n}\n",
				"bytecode": {
					"linkReferences": {},
					"object": "60a06040523060805234801561001457600080fd5b5061001d610022565b6100d4565b7ff0c57e16840df040f15088dc2f81fe391c3923bec73e23a9662efc9c229c6a00805468010000000000000000900460ff16156100725760405163f92ee8a960e01b815260040160405180910390fd5b80546001600160401b03908116146100d15780546001600160401b0319166001600160401b0390811782556040519081527fc7f505b2f371ae2175ee4913f4499e1f2633a7b5936321eed1cdaeb6115181d29060200160405180910390a15b50565b608051611add6100fd60003960008181610b8301528181610bac0152610d160152611add6000f3fe6080604052600436106100f75760003560e01c8063715018a61161008a578063bb0b6a5311610059578063bb0b6a53146102d3578063c0c53b8b14610300578063f2fde38b14610320578063f897a22b1461034057600080fd5b8063715018a6146102305780638da5cb5b14610245578063ad3b1b4714610282578063ad3cb1cc146102a257600080fd5b806354fd4d50116100c657806354fd4d50146101735780635e280f11146101aa57806364bd90eb146101e2578063682d54e6146101f557600080fd5b806313137d65146101035780633400288b146101185780634f1ef2861461013857806352d1902d1461014b57600080fd5b366100fe57005b600080fd5b6101166101113660046112fa565b610360565b005b34801561012457600080fd5b506101166101333660046113b5565b6103ee565b610116610146366004611480565b61046d565b34801561015757600080fd5b5061016061048c565b6040519081526020015b60405180910390f35b34801561017f57600080fd5b506040805180820190915260058152640322e302e360dc1b60208201525b60405161016a9190611531565b3480156101b657600080fd5b506000546101ca906001600160a01b031681565b6040516001600160a01b03909116815260200161016a565b6101166101f0366004611600565b6104bb565b34801561020157600080fd5b506102156102103660046116be565b6107e4565b6040805182518152602092830151928101929092520161016a565b34801561023c57600080fd5b5061011661089f565b34801561025157600080fd5b507f9016d09d72d40fdae2fd8ceac6b6234c7706214fd39c1cd1e609a0528c199300546001600160a01b03166101ca565b34801561028e57600080fd5b5061011661029d366004611791565b6108b3565b3480156102ae57600080fd5b5061019d604051806040016040528060058152602001640352e302e360dc1b81525081565b3480156102df57600080fd5b506101606102ee3660046117ad565b60016020526000908152604090205481565b34801561030c57600080fd5b5061011661031b3660046117c8565b6109ab565b34801561032c57600080fd5b5061011661033b36600461180b565b610adf565b34801561034c57600080fd5b506064546101ca906001600160a01b031681565b6000546001600160a01b0316331461038b57604051630fd72cd960e31b815260040160405180910390fd5b6001600061039c60208a018a6117ad565b63ffffffff1663ffffffff168152602001908152602001600020548760200135146103e55760405163316693d960e21b8152602088013560048201526024015b60405180910390fd5b50505050505050565b6103f6610b1d565b806104175760405163316693d960e21b8152600481018290526024016103dc565b63ffffffff821660008181526001602052604090819020839055517f238399d427b947898edb290f5ff0f9109849b1c3ba196a42e35f00c50a54b98b906104619084815260200190565b60405180910390a25050565b610475610b78565b61047e82610c2f565b6104888282610c37565b5050565b6000610496610d0b565b507f360894a13ba1a3210667c828492db98dca3e2076cc3735a920a3ca505d382bbc90565b6104c3610d54565b60008651116105015760405162461bcd60e51b815260206004820152600a6024820152694e616d6520656d70747960b01b60448201526064016103dc565b60008551116105415760405162461bcd60e51b815260206004820152600c60248201526b536b696c6c7320656d70747960a01b60448201526064016103dc565b600083116105815760405162461bcd60e51b815260206004820152600d60248201526c5553445420666565207a65726f60981b60448201526064016103dc565b63ffffffff8716600090815260016020526040902054806105bd5760405163f6ff4fb760e01b815263ffffffff891660048201526024016103dc565b606480546040516323b872dd60e01b8152336004820152306024820152604481018790526001600160a01b03909116916323b872dd91016020604051808303816000875af1158015610613573d6000803e3d6000fd5b505050506040513d601f19601f820116820180604052508101906106379190611826565b6106835760405162461bcd60e51b815260206004820152601460248201527f55534454207472616e73666572206661696c656400000000000000000000000060448201526064016103dc565b60003388888860405160200161069c9493929190611848565b60408051601f198184030181526020601f870181900481028401810190925285835292506000916106eb918c918591899089908190840183828082843760009201829052509250610dad915050565b80519091503410156107345760405162461bcd60e51b81526020600482015260126024820152714e61746976652066656520746f6f206c6f7760701b60448201526064016103dc565b61078c8a8387878080601f01602080910402602001604051908101604052809392919081815260200183838082843760009201829052506040805180820190915234815260208101919091529250339150610e739050565b50336001600160a01b03168a63ffffffff167f367df553a20f9d6a48f562a05a838605d973217c1e3980b1c5d542e2eeaafb638b896040516107cf9291906118e2565b60405180910390a35050506103e56001603255565b604080518082019091526000808252602082015263ffffffff8716600090815260016020526040902054806108345760405163f6ff4fb760e01b815263ffffffff891660048201526024016103dc565b610893883389898960405160200161084f9493929190611848565b60408051601f198184030181526020601f89018190048102840181019092528783529190889088908190840183828082843760009201829052509250610dad915050565b98975050505050505050565b6108a7610b1d565b6108b16000610f3f565b565b6108bb610b1d565b60645460405163a9059cbb60e01b81526001600160a01b038481166004830152602482018490529091169063a9059cbb906044016020604051808303816000875af115801561090e573d6000803e3d6000fd5b505050506040513d601f19601f820116820180604052508101906109329190611826565b6109705760405162461bcd60e51b815260206004820152600f60248201526e15da5d1a191c985dc819985a5b1959608a1b60448201526064016103dc565b816001600160a01b03167fc0819c13be868895eb93e40eaceb96de976442fa1d404e5c55f14bb65a8c489a8260405161046191815260200190565b7ff0c57e16840df040f15088dc2f81fe391c3923bec73e23a9662efc9c229c6a008054600160401b810460ff1615906001600160401b03166000811580156109f05750825b90506000826001600160401b03166001148015610a0c5750303b155b905081158015610a1a575080155b15610a385760405163f92ee8a960e01b815260040160405180910390fd5b845467ffffffffffffffff191660011785558315610a6257845460ff60401b1916600160401b1785555b610a6c8888610fb0565b610a74610fec565b606480546001600160a01b0319166001600160a01b0388161790558315610ad557845460ff60401b19168555604051600181527fc7f505b2f371ae2175ee4913f4499e1f2633a7b5936321eed1cdaeb6115181d29060200160405180910390a15b5050505050505050565b610ae7610b1d565b6001600160a01b038116610b1157604051631e4fbdf760e01b8152600060048201526024016103dc565b610b1a81610f3f565b50565b33610b4f7f9016d09d72d40fdae2fd8ceac6b6234c7706214fd39c1cd1e609a0528c199300546001600160a01b031690565b6001600160a01b0316146108b15760405163118cdaa760e01b81523360048201526024016103dc565b306001600160a01b037f0000000000000000000000000000000000000000000000000000000000000000161480610c1157507f00000000000000000000000000000000000000000000000000000000000000006001600160a01b0316610c057f360894a13ba1a3210667c828492db98dca3e2076cc3735a920a3ca505d382bbc546001600160a01b031690565b6001600160a01b031614155b156108b15760405163703e46dd60e11b815260040160405180910390fd5b610b1a610b1d565b816001600160a01b03166352d1902d6040518163ffffffff1660e01b8152600401602060405180830381865afa925050508015610c91575060408051601f3d908101601f19168201909252610c8e91810190611904565b60015b610cb957604051634c9c8ce360e01b81526001600160a01b03831660048201526024016103dc565b7f360894a13ba1a3210667c828492db98dca3e2076cc3735a920a3ca505d382bbc8114610cfc57604051632a87526960e21b8152600481018290526024016103dc565b610d068383610ffc565b505050565b306001600160a01b037f000000000000000000000000000000000000000000000000000000000000000016146108b15760405163703e46dd60e11b815260040160405180910390fd5b600260325403610da65760405162461bcd60e51b815260206004820152601f60248201527f5265656e7472616e637947756172643a207265656e7472616e742063616c6c0060448201526064016103dc565b6002603255565b604080518082018252600080825260208083018290528154845160a08101865263ffffffff8a168082528452600183529285902054918301919091528184018790526060820186905284151560808301529251631bb8518b60e31b815291926001600160a01b03169163ddc28c5891610e2a91309060040161197e565b6040805180830381865afa158015610e46573d6000803e3d6000fd5b505050506040513d601f19601f82011682018060405250810190610e6a91906119f7565b95945050505050565b610e7b61124f565b6000805484516040805160a08101825263ffffffff8b168082528552600160209081529482902054858201528082018a9052606081018990529387015115156080850152516302637a4560e41b81526001600160a01b0390921692632637a45092610eeb9190879060040161197e565b60806040518083038185885af1158015610f09573d6000803e3d6000fd5b50505050506040513d601f19601f82011682018060405250810190610f2e9190611a13565b9695505050505050565b6001603255565b7f9016d09d72d40fdae2fd8ceac6b6234c7706214fd39c1cd1e609a0528c19930080546001600160a01b031981166001600160a01b03848116918217845560405192169182907f8be0079c531659141344cd1fd0a4f28419497f9722a3daafe3b4186f6b6457e090600090a3505050565b610fb8611052565b610fc18161109b565b610fc96110ac565b50600080546001600160a01b0319166001600160a01b0392909216919091179055565b610ff4611052565b6108b16110b4565b611005826110bc565b6040516001600160a01b038316907fbc7cd75a20ee27fd9adebab32041f755214dbc6bffa90cc0225b39da2e5c2d3b90600090a280511561104a57610d068282611133565b6104886111a0565b7ff0c57e16840df040f15088dc2f81fe391c3923bec73e23a9662efc9c229c6a0054600160401b900460ff166108b157604051631afcd79f60e31b815260040160405180910390fd5b6110a3611052565b610b1a816111bf565b6108b1611052565b610f38611052565b806001600160a01b03163b6000036110f257604051634c9c8ce360e01b81526001600160a01b03821660048201526024016103dc565b7f360894a13ba1a3210667c828492db98dca3e2076cc3735a920a3ca505d382bbc80546001600160a01b0319166001600160a01b0392909216919091179055565b6060600080846001600160a01b0316846040516111509190611a8b565b600060405180830381855af49150503d806000811461118b576040519150601f19603f3d011682016040523d82523d6000602084013e611190565b606091505b5091509150610e6a8583836111c7565b34156108b15760405163b398979f60e01b815260040160405180910390fd5b610ae7611052565b6060826111dc576111d782611226565b61121f565b81511580156111f357506001600160a01b0384163b155b1561121c57604051639996b31560e01b81526001600160a01b03851660048201526024016103dc565b50805b9392505050565b8051156112365780518082602001fd5b60405163d6bda27560e01b815260040160405180910390fd5b60405180606001604052806000801916815260200160006001600160401b03168152602001611291604051806040016040528060008152602001600081525090565b905290565b60008083601f8401126112a857600080fd5b5081356001600160401b038111156112bf57600080fd5b6020830191508360208285010111156112d757600080fd5b9250929050565b80356001600160a01b03811681146112f557600080fd5b919050565b600080600080600080600087890360e081121561131657600080fd5b606081121561132457600080fd5b508796506060870135955060808701356001600160401b0381111561134857600080fd5b6113548a828b01611296565b9096509450611367905060a089016112de565b925060c08801356001600160401b0381111561138257600080fd5b61138e8a828b01611296565b989b979a50959850939692959293505050565b803563ffffffff811681146112f557600080fd5b600080604083850312156113c857600080fd5b6113d1836113a1565b946020939093013593505050565b634e487b7160e01b600052604160045260246000fd5b604051601f8201601f191681016001600160401b038111828210171561141d5761141d6113df565b604052919050565b6000806001600160401b0384111561143f5761143f6113df565b50601f8301601f1916602001611454816113f5565b91505082815283838301111561146957600080fd5b828260208301376000602084830101529392505050565b6000806040838503121561149357600080fd5b61149c836112de565b915060208301356001600160401b038111156114b757600080fd5b8301601f810185136114c857600080fd5b6114d785823560208401611425565b9150509250929050565b60005b838110156114fc5781810151838201526020016114e4565b50506000910152565b6000815180845261151d8160208601602086016114e1565b601f01601f19169290920160200192915050565b60208152600061121f6020830184611505565b600082601f83011261155557600080fd5b61121f83833560208501611425565b600082601f83011261157557600080fd5b81356001600160401b0381111561158e5761158e6113df565b8060051b61159e602082016113f5565b918252602081850181019290810190868411156115ba57600080fd5b6020860192505b83831015610f2e5782356001600160401b038111156115df57600080fd5b6115ee886020838a0101611544565b835250602092830192909101906115c1565b600080600080600080600060c0888a03121561161b57600080fd5b611624886113a1565b965060208801356001600160401b0381111561163f57600080fd5b61164b8a828b01611544565b96505060408801356001600160401b0381111561166757600080fd5b6116738a828b01611564565b95505060608801356001600160401b0381111561168f57600080fd5b61169b8a828b01611544565b9450506080880135925060a08801356001600160401b0381111561138257600080fd5b60008060008060008060a087890312156116d757600080fd5b6116e0876113a1565b955060208701356001600160401b038111156116fb57600080fd5b61170789828a01611544565b95505060408701356001600160401b0381111561172357600080fd5b61172f89828a01611564565b94505060608701356001600160401b0381111561174b57600080fd5b61175789828a01611544565b93505060808701356001600160401b0381111561177357600080fd5b61177f89828a01611296565b979a9699509497509295939492505050565b600080604083850312156117a457600080fd5b6113d1836112de565b6000602082840312156117bf57600080fd5b61121f826113a1565b6000806000606084860312156117dd57600080fd5b6117e6846112de565b92506117f4602085016112de565b9150611802604085016112de565b90509250925092565b60006020828403121561181d57600080fd5b61121f826112de565b60006020828403121561183857600080fd5b8151801515811461121f57600080fd5b6001600160a01b038516815260806020820152600061186a6080830186611505565b828103604084015280855180835260208301915060208160051b8401016020880160005b838110156118c057601f198684030185526118aa838351611505565b602095860195909350919091019060010161188e565b505085810360608701526118d48188611505565b9a9950505050505050505050565b6040815260006118f56040830185611505565b90508260208301529392505050565b60006020828403121561191657600080fd5b5051919050565b63ffffffff8151168252602081015160208301526000604082015160a0604085015261194c60a0850182611505565b9050606083015184820360608601526119658282611505565b9150506080830151151560808501528091505092915050565b604081526000611991604083018561191d565b90506001600160a01b03831660208301529392505050565b6000604082840312156119bb57600080fd5b604080519081016001600160401b03811182821017156119dd576119dd6113df565b604052825181526020928301519281019290925250919050565b600060408284031215611a0957600080fd5b61121f83836119a9565b60006080828403128015611a2657600080fd5b50604051600090606081016001600160401b0381118282101715611a4c57611a4c6113df565b6040528351815260208401516001600160401b0381168114611a6c578283fd5b6020820152611a7e85604086016119a9565b6040820152949350505050565b60008251611a9d8184602087016114e1565b919091019291505056fea26469706673582212208f53a655c4a18b3fb5d1446b6f291069bb54a5945ee3358f86d0146f5da3730a64736f6c634300081c0033",
					"opcodes": "PUSH1 0xA0 PUSH1 0x40 MSTORE ADDRESS PUSH1 0x80 MSTORE CALLVALUE DUP1 ISZERO PUSH2 0x14 JUMPI PUSH1 0x0 DUP1 REVERT JUMPDEST POP PUSH2 0x1D PUSH2 0x22 JUMP JUMPDEST PUSH2 0xD4 JUMP JUMPDEST PUSH32 0xF0C57E16840DF040F15088DC2F81FE391C3923BEC73E23A9662EFC9C229C6A00 DUP1 SLOAD PUSH9 0x10000000000000000 SWAP1 DIV PUSH1 0xFF AND ISZERO PUSH2 0x72 JUMPI PUSH1 0x40 MLOAD PUSH4 0xF92EE8A9 PUSH1 0xE0 SHL DUP2 MSTORE PUSH1 0x4 ADD PUSH1 0x40 MLOAD DUP1 SWAP2 SUB SWAP1 REVERT JUMPDEST DUP1 SLOAD PUSH1 0x1 PUSH1 0x1 PUSH1 0x40 SHL SUB SWAP1 DUP2 AND EQ PUSH2 0xD1 JUMPI DUP1 SLOAD PUSH1 0x1 PUSH1 0x1 PUSH1 0x40 SHL SUB NOT AND PUSH1 0x1 PUSH1 0x1 PUSH1 0x40 SHL SUB SWAP1 DUP2 OR DUP3 SSTORE PUSH1 0x40 MLOAD SWAP1 DUP2 MSTORE PUSH32 0xC7F505B2F371AE2175EE4913F4499E1F2633A7B5936321EED1CDAEB6115181D2 SWAP1 PUSH1 0x20 ADD PUSH1 0x40 MLOAD DUP1 SWAP2 SUB SWAP1 LOG1 JUMPDEST POP JUMP JUMPDEST PUSH1 0x80 MLOAD PUSH2 0x1ADD PUSH2 0xFD PUSH1 0x0 CODECOPY PUSH1 0x0 DUP2 DUP2 PUSH2 0xB83 ADD MSTORE DUP2 DUP2 PUSH2 0xBAC ADD MSTORE PUSH2 0xD16 ADD MSTORE PUSH2 0x1ADD PUSH1 0x0 RETURN INVALID PUSH1 0x80 PUSH1 0x40 MSTORE PUSH1 0x4 CALLDATASIZE LT PUSH2 0xF7 JUMPI PUSH1 0x0 CALLDATALOAD PUSH1 0xE0 SHR DUP1 PUSH4 0x715018A6 GT PUSH2 0x8A JUMPI DUP1 PUSH4 0xBB0B6A53 GT PUSH2 0x59 JUMPI DUP1 PUSH4 0xBB0B6A53 EQ PUSH2 0x2D3 JUMPI DUP1 PUSH4 0xC0C53B8B EQ PUSH2 0x300 JUMPI DUP1 PUSH4 0xF2FDE38B EQ PUSH2 0x320 JUMPI DUP1 PUSH4 0xF897A22B EQ PUSH2 0x340 JUMPI PUSH1 0x0 DUP1 REVERT JUMPDEST DUP1 PUSH4 0x715018A6 EQ PUSH2 0x230 JUMPI DUP1 PUSH4 0x8DA5CB5B EQ PUSH2 0x245 JUMPI DUP1 PUSH4 0xAD3B1B47 EQ PUSH2 0x282 JUMPI DUP1 PUSH4 0xAD3CB1CC EQ PUSH2 0x2A2 JUMPI PUSH1 0x0 DUP1 REVERT JUMPDEST DUP1 PUSH4 0x54FD4D50 GT PUSH2 0xC6 JUMPI DUP1 PUSH4 0x54FD4D50 EQ PUSH2 0x173 JUMPI DUP1 PUSH4 0x5E280F11 EQ PUSH2 0x1AA JUMPI DUP1 PUSH4 0x64BD90EB EQ PUSH2 0x1E2 JUMPI DUP1 PUSH4 0x682D54E6 EQ PUSH2 0x1F5 JUMPI PUSH1 0x0 DUP1 REVERT JUMPDEST DUP1 PUSH4 0x13137D65 EQ PUSH2 0x103 JUMPI DUP1 PUSH4 0x3400288B EQ PUSH2 0x118 JUMPI DUP1 PUSH4 0x4F1EF286 EQ PUSH2 0x138 JUMPI DUP1 PUSH4 0x52D1902D EQ PUSH2 0x14B JUMPI PUSH1 0x0 DUP1 REVERT JUMPDEST CALLDATASIZE PUSH2 0xFE JUMPI STOP JUMPDEST PUSH1 0x0 DUP1 REVERT JUMPDEST PUSH2 0x116 PUSH2 0x111 CALLDATASIZE PUSH1 0x4 PUSH2 0x12FA JUMP JUMPDEST PUSH2 0x360 JUMP JUMPDEST STOP JUMPDEST CALLVALUE DUP1 ISZERO PUSH2 0x124 JUMPI PUSH1 0x0 DUP1 REVERT JUMPDEST POP PUSH2 0x116 PUSH2 0x133 CALLDATASIZE PUSH1 0x4 PUSH2 0x13B5 JUMP JUMPDEST PUSH2 0x3EE JUMP JUMPDEST PUSH2 0x116 PUSH2 0x146 CALLDATASIZE PUSH1 0x4 PUSH2 0x1480 JUMP JUMPDEST PUSH2 0x46D JUMP JUMPDEST CALLVALUE DUP1 ISZERO PUSH2 0x157 JUMPI PUSH1 0x0 DUP1 REVERT JUMPDEST POP PUSH2 0x160 PUSH2 0x48C JUMP JUMPDEST PUSH1 0x40 MLOAD SWAP1 DUP2 MSTORE PUSH1 0x20 ADD JUMPDEST PUSH1 0x40 MLOAD DUP1 SWAP2 SUB SWAP1 RETURN JUMPDEST CALLVALUE DUP1 ISZERO PUSH2 0x17F JUMPI PUSH1 0x0 DUP1 REVERT JUMPDEST POP PUSH1 0x40 DUP1 MLOAD DUP1 DUP3 ADD SWAP1 SWAP2 MSTORE PUSH1 0x5 DUP2 MSTORE PUSH5 0x322E302E3 PUSH1 0xDC SHL PUSH1 0x20 DUP3 ADD MSTORE JUMPDEST PUSH1 0x40 MLOAD PUSH2 0x16A SWAP2 SWAP1 PUSH2 0x1531 JUMP JUMPDEST CALLVALUE DUP1 ISZERO PUSH2 0x1B6 JUMPI PUSH1 0x0 DUP1 REVERT JUMPDEST POP PUSH1 0x0 SLOAD PUSH2 0x1CA SWAP1 PUSH1 0x1 PUSH1 0x1 PUSH1 0xA0 SHL SUB AND DUP2 JUMP JUMPDEST PUSH1 0x40 MLOAD PUSH1 0x1 PUSH1 0x1 PUSH1 0xA0 SHL SUB SWAP1 SWAP2 AND DUP2 MSTORE PUSH1 0x20 ADD PUSH2 0x16A JUMP JUMPDEST PUSH2 0x116 PUSH2 0x1F0 CALLDATASIZE PUSH1 0x4 PUSH2 0x1600 JUMP JUMPDEST PUSH2 0x4BB JUMP JUMPDEST CALLVALUE DUP1 ISZERO PUSH2 0x201 JUMPI PUSH1 0x0 DUP1 REVERT JUMPDEST POP PUSH2 0x215 PUSH2 0x210 CALLDATASIZE PUSH1 0x4 PUSH2 0x16BE JUMP JUMPDEST PUSH2 0x7E4 JUMP JUMPDEST PUSH1 0x40 DUP1 MLOAD DUP3 MLOAD DUP2 MSTORE PUSH1 0x20 SWAP3 DUP4 ADD MLOAD SWAP3 DUP2 ADD SWAP3 SWAP1 SWAP3 MSTORE ADD PUSH2 0x16A JUMP JUMPDEST CALLVALUE DUP1 ISZERO PUSH2 0x23C JUMPI PUSH1 0x0 DUP1 REVERT JUMPDEST POP PUSH2 0x116 PUSH2 0x89F JUMP JUMPDEST CALLVALUE DUP1 ISZERO PUSH2 0x251 JUMPI PUSH1 0x0 DUP1 REVERT JUMPDEST POP PUSH32 0x9016D09D72D40FDAE2FD8CEAC6B6234C7706214FD39C1CD1E609A0528C199300 SLOAD PUSH1 0x1 PUSH1 0x1 PUSH1 0xA0 SHL SUB AND PUSH2 0x1CA JUMP JUMPDEST CALLVALUE DUP1 ISZERO PUSH2 0x28E JUMPI PUSH1 0x0 DUP1 REVERT JUMPDEST POP PUSH2 0x116 PUSH2 0x29D CALLDATASIZE PUSH1 0x4 PUSH2 0x1791 JUMP JUMPDEST PUSH2 0x8B3 JUMP JUMPDEST CALLVALUE DUP1 ISZERO PUSH2 0x2AE JUMPI PUSH1 0x0 DUP1 REVERT JUMPDEST POP PUSH2 0x19D PUSH1 0x40 MLOAD DUP1 PUSH1 0x40 ADD PUSH1 0x40 MSTORE DUP1 PUSH1 0x5 DUP2 MSTORE PUSH1 0x20 ADD PUSH5 0x352E302E3 PUSH1 0xDC SHL DUP2 MSTORE POP DUP2 JUMP JUMPDEST CALLVALUE DUP1 ISZERO PUSH2 0x2DF JUMPI PUSH1 0x0 DUP1 REVERT JUMPDEST POP PUSH2 0x160 PUSH2 0x2EE CALLDATASIZE PUSH1 0x4 PUSH2 0x17AD JUMP JUMPDEST PUSH1 0x1 PUSH1 0x20 MSTORE PUSH1 0x0 SWAP1 DUP2 MSTORE PUSH1 0x40 SWAP1 KECCAK256 SLOAD DUP2 JUMP JUMPDEST CALLVALUE DUP1 ISZERO PUSH2 0x30C JUMPI PUSH1 0x0 DUP1 REVERT JUMPDEST POP PUSH2 0x116 PUSH2 0x31B CALLDATASIZE PUSH1 0x4 PUSH2 0x17C8 JUMP JUMPDEST PUSH2 0x9AB JUMP JUMPDEST CALLVALUE DUP1 ISZERO PUSH2 0x32C JUMPI PUSH1 0x0 DUP1 REVERT JUMPDEST POP PUSH2 0x116 PUSH2 0x33B CALLDATASIZE PUSH1 0x4 PUSH2 0x180B JUMP JUMPDEST PUSH2 0xADF JUMP JUMPDEST CALLVALUE DUP1 ISZERO PUSH2 0x34C JUMPI PUSH1 0x0 DUP1 REVERT JUMPDEST POP PUSH1 0x64 SLOAD PUSH2 0x1CA SWAP1 PUSH1 0x1 PUSH1 0x1 PUSH1 0xA0 SHL SUB AND DUP2 JUMP JUMPDEST PUSH1 0x0 SLOAD PUSH1 0x1 PUSH1 0x1 PUSH1 0xA0 SHL SUB AND CALLER EQ PUSH2 0x38B JUMPI PUSH1 0x40 MLOAD PUSH4 0xFD72CD9 PUSH1 0xE3 SHL DUP2 MSTORE PUSH1 0x4 ADD PUSH1 0x40 MLOAD DUP1 SWAP2 SUB SWAP1 REVERT JUMPDEST PUSH1 0x1 PUSH1 0x0 PUSH2 0x39C PUSH1 0x20 DUP11 ADD DUP11 PUSH2 0x17AD JUMP JUMPDEST PUSH4 0xFFFFFFFF AND PUSH4 0xFFFFFFFF AND DUP2 MSTORE PUSH1 0x20 ADD SWAP1 DUP2 MSTORE PUSH1 0x20 ADD PUSH1 0x0 KECCAK256 SLOAD DUP8 PUSH1 0x20 ADD CALLDATALOAD EQ PUSH2 0x3E5 JUMPI PUSH1 0x40 MLOAD PUSH4 0x316693D9 PUSH1 0xE2 SHL DUP2 MSTORE PUSH1 0x20 DUP9 ADD CALLDATALOAD PUSH1 0x4 DUP3 ADD MSTORE PUSH1 0x24 ADD JUMPDEST PUSH1 0x40 MLOAD DUP1 SWAP2 SUB SWAP1 REVERT JUMPDEST POP POP POP POP POP POP POP JUMP JUMPDEST PUSH2 0x3F6 PUSH2 0xB1D JUMP JUMPDEST DUP1 PUSH2 0x417 JUMPI PUSH1 0x40 MLOAD PUSH4 0x316693D9 PUSH1 0xE2 SHL DUP2 MSTORE PUSH1 0x4 DUP2 ADD DUP3 SWAP1 MSTORE PUSH1 0x24 ADD PUSH2 0x3DC JUMP JUMPDEST PUSH4 0xFFFFFFFF DUP3 AND PUSH1 0x0 DUP2 DUP2 MSTORE PUSH1 0x1 PUSH1 0x20 MSTORE PUSH1 0x40 SWAP1 DUP2 SWAP1 KECCAK256 DUP4 SWAP1 SSTORE MLOAD PUSH32 0x238399D427B947898EDB290F5FF0F9109849B1C3BA196A42E35F00C50A54B98B SWAP1 PUSH2 0x461 SWAP1 DUP5 DUP2 MSTORE PUSH1 0x20 ADD SWAP1 JUMP JUMPDEST PUSH1 0x40 MLOAD DUP1 SWAP2 SUB SWAP1 LOG2 POP POP JUMP JUMPDEST PUSH2 0x475 PUSH2 0xB78 JUMP JUMPDEST PUSH2 0x47E DUP3 PUSH2 0xC2F JUMP JUMPDEST PUSH2 0x488 DUP3 DUP3 PUSH2 0xC37 JUMP JUMPDEST POP POP JUMP JUMPDEST PUSH1 0x0 PUSH2 0x496 PUSH2 0xD0B JUMP JUMPDEST POP PUSH32 0x360894A13BA1A3210667C828492DB98DCA3E2076CC3735A920A3CA505D382BBC SWAP1 JUMP JUMPDEST PUSH2 0x4C3 PUSH2 0xD54 JUMP JUMPDEST PUSH1 0x0 DUP7 MLOAD GT PUSH2 0x501 JUMPI PUSH1 0x40 MLOAD PUSH3 0x461BCD PUSH1 0xE5 SHL DUP2 MSTORE PUSH1 0x20 PUSH1 0x4 DUP3 ADD MSTORE PUSH1 0xA PUSH1 0x24 DUP3 ADD MSTORE PUSH10 0x4E616D6520656D707479 PUSH1 0xB0 SHL PUSH1 0x44 DUP3 ADD MSTORE PUSH1 0x64 ADD PUSH2 0x3DC JUMP JUMPDEST PUSH1 0x0 DUP6 MLOAD GT PUSH2 0x541 JUMPI PUSH1 0x40 MLOAD PUSH3 0x461BCD PUSH1 0xE5 SHL DUP2 MSTORE PUSH1 0x20 PUSH1 0x4 DUP3 ADD MSTORE PUSH1 0xC PUSH1 0x24 DUP3 ADD MSTORE PUSH12 0x536B696C6C7320656D707479 PUSH1 0xA0 SHL PUSH1 0x44 DUP3 ADD MSTORE PUSH1 0x64 ADD PUSH2 0x3DC JUMP JUMPDEST PUSH1 0x0 DUP4 GT PUSH2 0x581 JUMPI PUSH1 0x40 MLOAD PUSH3 0x461BCD PUSH1 0xE5 SHL DUP2 MSTORE PUSH1 0x20 PUSH1 0x4 DUP3 ADD MSTORE PUSH1 0xD PUSH1 0x24 DUP3 ADD MSTORE PUSH13 0x5553445420666565207A65726F PUSH1 0x98 SHL PUSH1 0x44 DUP3 ADD MSTORE PUSH1 0x64 ADD PUSH2 0x3DC JUMP JUMPDEST PUSH4 0xFFFFFFFF DUP8 AND PUSH1 0x0 SWAP1 DUP2 MSTORE PUSH1 0x1 PUSH1 0x20 MSTORE PUSH1 0x40 SWAP1 KECCAK256 SLOAD DUP1 PUSH2 0x5BD JUMPI PUSH1 0x40 MLOAD PUSH4 0xF6FF4FB7 PUSH1 0xE0 SHL DUP2 MSTORE PUSH4 0xFFFFFFFF DUP10 AND PUSH1 0x4 DUP3 ADD MSTORE PUSH1 0x24 ADD PUSH2 0x3DC JUMP JUMPDEST PUSH1 0x64 DUP1 SLOAD PUSH1 0x40 MLOAD PUSH4 0x23B872DD PUSH1 0xE0 SHL DUP2 MSTORE CALLER PUSH1 0x4 DUP3 ADD MSTORE ADDRESS PUSH1 0x24 DUP3 ADD MSTORE PUSH1 0x44 DUP2 ADD DUP8 SWAP1 MSTORE PUSH1 0x1 PUSH1 0x1 PUSH1 0xA0 SHL SUB SWAP1 SWAP2 AND SWAP2 PUSH4 0x23B872DD SWAP2 ADD PUSH1 0x20 PUSH1 0x40 MLOAD DUP1 DUP4 SUB DUP2 PUSH1 0x0 DUP8 GAS CALL ISZERO DUP1 ISZERO PUSH2 0x613 JUMPI RETURNDATASIZE PUSH1 0x0 DUP1 RETURNDATACOPY RETURNDATASIZE PUSH1 0x0 REVERT JUMPDEST POP POP POP POP PUSH1 0x40 MLOAD RETURNDATASIZE PUSH1 0x1F NOT PUSH1 0x1F DUP3 ADD AND DUP3 ADD DUP1 PUSH1 0x40 MSTORE POP DUP2 ADD SWAP1 PUSH2 0x637 SWAP2 SWAP1 PUSH2 0x1826 JUMP JUMPDEST PUSH2 0x683 JUMPI PUSH1 0x40 MLOAD PUSH3 0x461BCD PUSH1 0xE5 SHL DUP2 MSTORE PUSH1 0x20 PUSH1 0x4 DUP3 ADD MSTORE PUSH1 0x14 PUSH1 0x24 DUP3 ADD MSTORE PUSH32 0x55534454207472616E73666572206661696C6564000000000000000000000000 PUSH1 0x44 DUP3 ADD MSTORE PUSH1 0x64 ADD PUSH2 0x3DC JUMP JUMPDEST PUSH1 0x0 CALLER DUP9 DUP9 DUP9 PUSH1 0x40 MLOAD PUSH1 0x20 ADD PUSH2 0x69C SWAP5 SWAP4 SWAP3 SWAP2 SWAP1 PUSH2 0x1848 JUMP JUMPDEST PUSH1 0x40 DUP1 MLOAD PUSH1 0x1F NOT DUP2 DUP5 SUB ADD DUP2 MSTORE PUSH1 0x20 PUSH1 0x1F DUP8 ADD DUP2 SWAP1 DIV DUP2 MUL DUP5 ADD DUP2 ADD SWAP1 SWAP3 MSTORE DUP6 DUP4 MSTORE SWAP3 POP PUSH1 0x0 SWAP2 PUSH2 0x6EB SWAP2 DUP13 SWAP2 DUP6 SWAP2 DUP10 SWAP1 DUP10 SWAP1 DUP2 SWAP1 DUP5 ADD DUP4 DUP3 DUP1 DUP3 DUP5 CALLDATACOPY PUSH1 0x0 SWAP3 ADD DUP3 SWAP1 MSTORE POP SWAP3 POP PUSH2 0xDAD SWAP2 POP POP JUMP JUMPDEST DUP1 MLOAD SWAP1 SWAP2 POP CALLVALUE LT ISZERO PUSH2 0x734 JUMPI PUSH1 0x40 MLOAD PUSH3 0x461BCD PUSH1 0xE5 SHL DUP2 MSTORE PUSH1 0x20 PUSH1 0x4 DUP3 ADD MSTORE PUSH1 0x12 PUSH1 0x24 DUP3 ADD MSTORE PUSH18 0x4E61746976652066656520746F6F206C6F77 PUSH1 0x70 SHL PUSH1 0x44 DUP3 ADD MSTORE PUSH1 0x64 ADD PUSH2 0x3DC JUMP JUMPDEST PUSH2 0x78C DUP11 DUP4 DUP8 DUP8 DUP1 DUP1 PUSH1 0x1F ADD PUSH1 0x20 DUP1 SWAP2 DIV MUL PUSH1 0x20 ADD PUSH1 0x40 MLOAD SWAP1 DUP2 ADD PUSH1 0x40 MSTORE DUP1 SWAP4 SWAP3 SWAP2 SWAP1 DUP2 DUP2 MSTORE PUSH1 0x20 ADD DUP4 DUP4 DUP1 DUP3 DUP5 CALLDATACOPY PUSH1 0x0 SWAP3 ADD DUP3 SWAP1 MSTORE POP PUSH1 0x40 DUP1 MLOAD DUP1 DUP3 ADD SWAP1 SWAP2 MSTORE CALLVALUE DUP2 MSTORE PUSH1 0x20 DUP2 ADD SWAP2 SWAP1 SWAP2 MSTORE SWAP3 POP CALLER SWAP2 POP PUSH2 0xE73 SWAP1 POP JUMP JUMPDEST POP CALLER PUSH1 0x1 PUSH1 0x1 PUSH1 0xA0 SHL SUB AND DUP11 PUSH4 0xFFFFFFFF AND PUSH32 0x367DF553A20F9D6A48F562A05A838605D973217C1E3980B1C5D542E2EEAAFB63 DUP12 DUP10 PUSH1 0x40 MLOAD PUSH2 0x7CF SWAP3 SWAP2 SWAP1 PUSH2 0x18E2 JUMP JUMPDEST PUSH1 0x40 MLOAD DUP1 SWAP2 SUB SWAP1 LOG3 POP POP POP PUSH2 0x3E5 PUSH1 0x1 PUSH1 0x32 SSTORE JUMP JUMPDEST PUSH1 0x40 DUP1 MLOAD DUP1 DUP3 ADD SWAP1 SWAP2 MSTORE PUSH1 0x0 DUP1 DUP3 MSTORE PUSH1 0x20 DUP3 ADD MSTORE PUSH4 0xFFFFFFFF DUP8 AND PUSH1 0x0 SWAP1 DUP2 MSTORE PUSH1 0x1 PUSH1 0x20 MSTORE PUSH1 0x40 SWAP1 KECCAK256 SLOAD DUP1 PUSH2 0x834 JUMPI PUSH1 0x40 MLOAD PUSH4 0xF6FF4FB7 PUSH1 0xE0 SHL DUP2 MSTORE PUSH4 0xFFFFFFFF DUP10 AND PUSH1 0x4 DUP3 ADD MSTORE PUSH1 0x24 ADD PUSH2 0x3DC JUMP JUMPDEST PUSH2 0x893 DUP9 CALLER DUP10 DUP10 DUP10 PUSH1 0x40 MLOAD PUSH1 0x20 ADD PUSH2 0x84F SWAP5 SWAP4 SWAP3 SWAP2 SWAP1 PUSH2 0x1848 JUMP JUMPDEST PUSH1 0x40 DUP1 MLOAD PUSH1 0x1F NOT DUP2 DUP5 SUB ADD DUP2 MSTORE PUSH1 0x20 PUSH1 0x1F DUP10 ADD DUP2 SWAP1 DIV DUP2 MUL DUP5 ADD DUP2 ADD SWAP1 SWAP3 MSTORE DUP8 DUP4 MSTORE SWAP2 SWAP1 DUP9 SWAP1 DUP9 SWAP1 DUP2 SWAP1 DUP5 ADD DUP4 DUP3 DUP1 DUP3 DUP5 CALLDATACOPY PUSH1 0x0 SWAP3 ADD DUP3 SWAP1 MSTORE POP SWAP3 POP PUSH2 0xDAD SWAP2 POP POP JUMP JUMPDEST SWAP9 SWAP8 POP POP POP POP POP POP POP POP JUMP JUMPDEST PUSH2 0x8A7 PUSH2 0xB1D JUMP JUMPDEST PUSH2 0x8B1 PUSH1 0x0 PUSH2 0xF3F JUMP JUMPDEST JUMP JUMPDEST PUSH2 0x8BB PUSH2 0xB1D JUMP JUMPDEST PUSH1 0x64 SLOAD PUSH1 0x40 MLOAD PUSH4 0xA9059CBB PUSH1 0xE0 SHL DUP2 MSTORE PUSH1 0x1 PUSH1 0x1 PUSH1 0xA0 SHL SUB DUP5 DUP2 AND PUSH1 0x4 DUP4 ADD MSTORE PUSH1 0x24 DUP3 ADD DUP5 SWAP1 MSTORE SWAP1 SWAP2 AND SWAP1 PUSH4 0xA9059CBB SWAP1 PUSH1 0x44 ADD PUSH1 0x20 PUSH1 0x40 MLOAD DUP1 DUP4 SUB DUP2 PUSH1 0x0 DUP8 GAS CALL ISZERO DUP1 ISZERO PUSH2 0x90E JUMPI RETURNDATASIZE PUSH1 0x0 DUP1 RETURNDATACOPY RETURNDATASIZE PUSH1 0x0 REVERT JUMPDEST POP POP POP POP PUSH1 0x40 MLOAD RETURNDATASIZE PUSH1 0x1F NOT PUSH1 0x1F DUP3 ADD AND DUP3 ADD DUP1 PUSH1 0x40 MSTORE POP DUP2 ADD SWAP1 PUSH2 0x932 SWAP2 SWAP1 PUSH2 0x1826 JUMP JUMPDEST PUSH2 0x970 JUMPI PUSH1 0x40 MLOAD PUSH3 0x461BCD PUSH1 0xE5 SHL DUP2 MSTORE PUSH1 0x20 PUSH1 0x4 DUP3 ADD MSTORE PUSH1 0xF PUSH1 0x24 DUP3 ADD MSTORE PUSH15 0x15DA5D1A191C985DC819985A5B1959 PUSH1 0x8A SHL PUSH1 0x44 DUP3 ADD MSTORE PUSH1 0x64 ADD PUSH2 0x3DC JUMP JUMPDEST DUP2 PUSH1 0x1 PUSH1 0x1 PUSH1 0xA0 SHL SUB AND PUSH32 0xC0819C13BE868895EB93E40EACEB96DE976442FA1D404E5C55F14BB65A8C489A DUP3 PUSH1 0x40 MLOAD PUSH2 0x461 SWAP2 DUP2 MSTORE PUSH1 0x20 ADD SWAP1 JUMP JUMPDEST PUSH32 0xF0C57E16840DF040F15088DC2F81FE391C3923BEC73E23A9662EFC9C229C6A00 DUP1 SLOAD PUSH1 0x1 PUSH1 0x40 SHL DUP2 DIV PUSH1 0xFF AND ISZERO SWAP1 PUSH1 0x1 PUSH1 0x1 PUSH1 0x40 SHL SUB AND PUSH1 0x0 DUP2 ISZERO DUP1 ISZERO PUSH2 0x9F0 JUMPI POP DUP3 JUMPDEST SWAP1 POP PUSH1 0x0 DUP3 PUSH1 0x1 PUSH1 0x1 PUSH1 0x40 SHL SUB AND PUSH1 0x1 EQ DUP1 ISZERO PUSH2 0xA0C JUMPI POP ADDRESS EXTCODESIZE ISZERO JUMPDEST SWAP1 POP DUP2 ISZERO DUP1 ISZERO PUSH2 0xA1A JUMPI POP DUP1 ISZERO JUMPDEST ISZERO PUSH2 0xA38 JUMPI PUSH1 0x40 MLOAD PUSH4 0xF92EE8A9 PUSH1 0xE0 SHL DUP2 MSTORE PUSH1 0x4 ADD PUSH1 0x40 MLOAD DUP1 SWAP2 SUB SWAP1 REVERT JUMPDEST DUP5 SLOAD PUSH8 0xFFFFFFFFFFFFFFFF NOT AND PUSH1 0x1 OR DUP6 SSTORE DUP4 ISZERO PUSH2 0xA62 JUMPI DUP5 SLOAD PUSH1 0xFF PUSH1 0x40 SHL NOT AND PUSH1 0x1 PUSH1 0x40 SHL OR DUP6 SSTORE JUMPDEST PUSH2 0xA6C DUP9 DUP9 PUSH2 0xFB0 JUMP JUMPDEST PUSH2 0xA74 PUSH2 0xFEC JUMP JUMPDEST PUSH1 0x64 DUP1 SLOAD PUSH1 0x1 PUSH1 0x1 PUSH1 0xA0 SHL SUB NOT AND PUSH1 0x1 PUSH1 0x1 PUSH1 0xA0 SHL SUB DUP9 AND OR SWAP1 SSTORE DUP4 ISZERO PUSH2 0xAD5 JUMPI DUP5 SLOAD PUSH1 0xFF PUSH1 0x40 SHL NOT AND DUP6 SSTORE PUSH1 0x40 MLOAD PUSH1 0x1 DUP2 MSTORE PUSH32 0xC7F505B2F371AE2175EE4913F4499E1F2633A7B5936321EED1CDAEB6115181D2 SWAP1 PUSH1 0x20 ADD PUSH1 0x40 MLOAD DUP1 SWAP2 SUB SWAP1 LOG1 JUMPDEST POP POP POP POP POP POP POP POP JUMP JUMPDEST PUSH2 0xAE7 PUSH2 0xB1D JUMP JUMPDEST PUSH1 0x1 PUSH1 0x1 PUSH1 0xA0 SHL SUB DUP2 AND PUSH2 0xB11 JUMPI PUSH1 0x40 MLOAD PUSH4 0x1E4FBDF7 PUSH1 0xE0 SHL DUP2 MSTORE PUSH1 0x0 PUSH1 0x4 DUP3 ADD MSTORE PUSH1 0x24 ADD PUSH2 0x3DC JUMP JUMPDEST PUSH2 0xB1A DUP2 PUSH2 0xF3F JUMP JUMPDEST POP JUMP JUMPDEST CALLER PUSH2 0xB4F PUSH32 0x9016D09D72D40FDAE2FD8CEAC6B6234C7706214FD39C1CD1E609A0528C199300 SLOAD PUSH1 0x1 PUSH1 0x1 PUSH1 0xA0 SHL SUB AND SWAP1 JUMP JUMPDEST PUSH1 0x1 PUSH1 0x1 PUSH1 0xA0 SHL SUB AND EQ PUSH2 0x8B1 JUMPI PUSH1 0x40 MLOAD PUSH4 0x118CDAA7 PUSH1 0xE0 SHL DUP2 MSTORE CALLER PUSH1 0x4 DUP3 ADD MSTORE PUSH1 0x24 ADD PUSH2 0x3DC JUMP JUMPDEST ADDRESS PUSH1 0x1 PUSH1 0x1 PUSH1 0xA0 SHL SUB PUSH32 0x0 AND EQ DUP1 PUSH2 0xC11 JUMPI POP PUSH32 0x0 PUSH1 0x1 PUSH1 0x1 PUSH1 0xA0 SHL SUB AND PUSH2 0xC05 PUSH32 0x360894A13BA1A3210667C828492DB98DCA3E2076CC3735A920A3CA505D382BBC SLOAD PUSH1 0x1 PUSH1 0x1 PUSH1 0xA0 SHL SUB AND SWAP1 JUMP JUMPDEST PUSH1 0x1 PUSH1 0x1 PUSH1 0xA0 SHL SUB AND EQ ISZERO JUMPDEST ISZERO PUSH2 0x8B1 JUMPI PUSH1 0x40 MLOAD PUSH4 0x703E46DD PUSH1 0xE1 SHL DUP2 MSTORE PUSH1 0x4 ADD PUSH1 0x40 MLOAD DUP1 SWAP2 SUB SWAP1 REVERT JUMPDEST PUSH2 0xB1A PUSH2 0xB1D JUMP JUMPDEST DUP2 PUSH1 0x1 PUSH1 0x1 PUSH1 0xA0 SHL SUB AND PUSH4 0x52D1902D PUSH1 0x40 MLOAD DUP2 PUSH4 0xFFFFFFFF AND PUSH1 0xE0 SHL DUP2 MSTORE PUSH1 0x4 ADD PUSH1 0x20 PUSH1 0x40 MLOAD DUP1 DUP4 SUB DUP2 DUP7 GAS STATICCALL SWAP3 POP POP POP DUP1 ISZERO PUSH2 0xC91 JUMPI POP PUSH1 0x40 DUP1 MLOAD PUSH1 0x1F RETURNDATASIZE SWAP1 DUP2 ADD PUSH1 0x1F NOT AND DUP3 ADD SWAP1 SWAP3 MSTORE PUSH2 0xC8E SWAP2 DUP2 ADD SWAP1 PUSH2 0x1904 JUMP JUMPDEST PUSH1 0x1 JUMPDEST PUSH2 0xCB9 JUMPI PUSH1 0x40 MLOAD PUSH4 0x4C9C8CE3 PUSH1 0xE0 SHL DUP2 MSTORE PUSH1 0x1 PUSH1 0x1 PUSH1 0xA0 SHL SUB DUP4 AND PUSH1 0x4 DUP3 ADD MSTORE PUSH1 0x24 ADD PUSH2 0x3DC JUMP JUMPDEST PUSH32 0x360894A13BA1A3210667C828492DB98DCA3E2076CC3735A920A3CA505D382BBC DUP2 EQ PUSH2 0xCFC JUMPI PUSH1 0x40 MLOAD PUSH4 0x2A875269 PUSH1 0xE2 SHL DUP2 MSTORE PUSH1 0x4 DUP2 ADD DUP3 SWAP1 MSTORE PUSH1 0x24 ADD PUSH2 0x3DC JUMP JUMPDEST PUSH2 0xD06 DUP4 DUP4 PUSH2 0xFFC JUMP JUMPDEST POP POP POP JUMP JUMPDEST ADDRESS PUSH1 0x1 PUSH1 0x1 PUSH1 0xA0 SHL SUB PUSH32 0x0 AND EQ PUSH2 0x8B1 JUMPI PUSH1 0x40 MLOAD PUSH4 0x703E46DD PUSH1 0xE1 SHL DUP2 MSTORE PUSH1 0x4 ADD PUSH1 0x40 MLOAD DUP1 SWAP2 SUB SWAP1 REVERT JUMPDEST PUSH1 0x2 PUSH1 0x32 SLOAD SUB PUSH2 0xDA6 JUMPI PUSH1 0x40 MLOAD PUSH3 0x461BCD PUSH1 0xE5 SHL DUP2 MSTORE PUSH1 0x20 PUSH1 0x4 DUP3 ADD MSTORE PUSH1 0x1F PUSH1 0x24 DUP3 ADD MSTORE PUSH32 0x5265656E7472616E637947756172643A207265656E7472616E742063616C6C00 PUSH1 0x44 DUP3 ADD MSTORE PUSH1 0x64 ADD PUSH2 0x3DC JUMP JUMPDEST PUSH1 0x2 PUSH1 0x32 SSTORE JUMP JUMPDEST PUSH1 0x40 DUP1 MLOAD DUP1 DUP3 ADD DUP3 MSTORE PUSH1 0x0 DUP1 DUP3 MSTORE PUSH1 0x20 DUP1 DUP4 ADD DUP3 SWAP1 MSTORE DUP2 SLOAD DUP5 MLOAD PUSH1 0xA0 DUP2 ADD DUP7 MSTORE PUSH4 0xFFFFFFFF DUP11 AND DUP1 DUP3 MSTORE DUP5 MSTORE PUSH1 0x1 DUP4 MSTORE SWAP3 DUP6 SWAP1 KECCAK256 SLOAD SWAP2 DUP4 ADD SWAP2 SWAP1 SWAP2 MSTORE DUP2 DUP5 ADD DUP8 SWAP1 MSTORE PUSH1 0x60 DUP3 ADD DUP7 SWAP1 MSTORE DUP5 ISZERO ISZERO PUSH1 0x80 DUP4 ADD MSTORE SWAP3 MLOAD PUSH4 0x1BB8518B PUSH1 0xE3 SHL DUP2 MSTORE SWAP2 SWAP3 PUSH1 0x1 PUSH1 0x1 PUSH1 0xA0 SHL SUB AND SWAP2 PUSH4 0xDDC28C58 SWAP2 PUSH2 0xE2A SWAP2 ADDRESS SWAP1 PUSH1 0x4 ADD PUSH2 0x197E JUMP JUMPDEST PUSH1 0x40 DUP1 MLOAD DUP1 DUP4 SUB DUP2 DUP7 GAS STATICCALL ISZERO DUP1 ISZERO PUSH2 0xE46 JUMPI RETURNDATASIZE PUSH1 0x0 DUP1 RETURNDATACOPY RETURNDATASIZE PUSH1 0x0 REVERT JUMPDEST POP POP POP POP PUSH1 0x40 MLOAD RETURNDATASIZE PUSH1 0x1F NOT PUSH1 0x1F DUP3 ADD AND DUP3 ADD DUP1 PUSH1 0x40 MSTORE POP DUP2 ADD SWAP1 PUSH2 0xE6A SWAP2 SWAP1 PUSH2 0x19F7 JUMP JUMPDEST SWAP6 SWAP5 POP POP POP POP POP JUMP JUMPDEST PUSH2 0xE7B PUSH2 0x124F JUMP JUMPDEST PUSH1 0x0 DUP1 SLOAD DUP5 MLOAD PUSH1 0x40 DUP1 MLOAD PUSH1 0xA0 DUP2 ADD DUP3 MSTORE PUSH4 0xFFFFFFFF DUP12 AND DUP1 DUP3 MSTORE DUP6 MSTORE PUSH1 0x1 PUSH1 0x20 SWAP1 DUP2 MSTORE SWAP5 DUP3 SWAP1 KECCAK256 SLOAD DUP6 DUP3 ADD MSTORE DUP1 DUP3 ADD DUP11 SWAP1 MSTORE PUSH1 0x60 DUP2 ADD DUP10 SWAP1 MSTORE SWAP4 DUP8 ADD MLOAD ISZERO ISZERO PUSH1 0x80 DUP6 ADD MSTORE MLOAD PUSH4 0x2637A45 PUSH1 0xE4 SHL DUP2 MSTORE PUSH1 0x1 PUSH1 0x1 PUSH1 0xA0 SHL SUB SWAP1 SWAP3 AND SWAP3 PUSH4 0x2637A450 SWAP3 PUSH2 0xEEB SWAP2 SWAP1 DUP8 SWAP1 PUSH1 0x4 ADD PUSH2 0x197E JUMP JUMPDEST PUSH1 0x80 PUSH1 0x40 MLOAD DUP1 DUP4 SUB DUP2 DUP6 DUP9 GAS CALL ISZERO DUP1 ISZERO PUSH2 0xF09 JUMPI RETURNDATASIZE PUSH1 0x0 DUP1 RETURNDATACOPY RETURNDATASIZE PUSH1 0x0 REVERT JUMPDEST POP POP POP POP POP PUSH1 0x40 MLOAD RETURNDATASIZE PUSH1 0x1F NOT PUSH1 0x1F DUP3 ADD AND DUP3 ADD DUP1 PUSH1 0x40 MSTORE POP DUP2 ADD SWAP1 PUSH2 0xF2E SWAP2 SWAP1 PUSH2 0x1A13 JUMP JUMPDEST SWAP7 SWAP6 POP POP POP POP POP POP JUMP JUMPDEST PUSH1 0x1 PUSH1 0x32 SSTORE JUMP JUMPDEST PUSH32 0x9016D09D72D40FDAE2FD8CEAC6B6234C7706214FD39C1CD1E609A0528C199300 DUP1 SLOAD PUSH1 0x1 PUSH1 0x1 PUSH1 0xA0 SHL SUB NOT DUP2 AND PUSH1 0x1 PUSH1 0x1 PUSH1 0xA0 SHL SUB DUP5 DUP2 AND SWAP2 DUP3 OR DUP5 SSTORE PUSH1 0x40 MLOAD SWAP3 AND SWAP2 DUP3 SWAP1 PUSH32 0x8BE0079C531659141344CD1FD0A4F28419497F9722A3DAAFE3B4186F6B6457E0 SWAP1 PUSH1 0x0 SWAP1 LOG3 POP POP POP JUMP JUMPDEST PUSH2 0xFB8 PUSH2 0x1052 JUMP JUMPDEST PUSH2 0xFC1 DUP2 PUSH2 0x109B JUMP JUMPDEST PUSH2 0xFC9 PUSH2 0x10AC JUMP JUMPDEST POP PUSH1 0x0 DUP1 SLOAD PUSH1 0x1 PUSH1 0x1 PUSH1 0xA0 SHL SUB NOT AND PUSH1 0x1 PUSH1 0x1 PUSH1 0xA0 SHL SUB SWAP3 SWAP1 SWAP3 AND SWAP2 SWAP1 SWAP2 OR SWAP1 SSTORE JUMP JUMPDEST PUSH2 0xFF4 PUSH2 0x1052 JUMP JUMPDEST PUSH2 0x8B1 PUSH2 0x10B4 JUMP JUMPDEST PUSH2 0x1005 DUP3 PUSH2 0x10BC JUMP JUMPDEST PUSH1 0x40 MLOAD PUSH1 0x1 PUSH1 0x1 PUSH1 0xA0 SHL SUB DUP4 AND SWAP1 PUSH32 0xBC7CD75A20EE27FD9ADEBAB32041F755214DBC6BFFA90CC0225B39DA2E5C2D3B SWAP1 PUSH1 0x0 SWAP1 LOG2 DUP1 MLOAD ISZERO PUSH2 0x104A JUMPI PUSH2 0xD06 DUP3 DUP3 PUSH2 0x1133 JUMP JUMPDEST PUSH2 0x488 PUSH2 0x11A0 JUMP JUMPDEST PUSH32 0xF0C57E16840DF040F15088DC2F81FE391C3923BEC73E23A9662EFC9C229C6A00 SLOAD PUSH1 0x1 PUSH1 0x40 SHL SWAP1 DIV PUSH1 0xFF AND PUSH2 0x8B1 JUMPI PUSH1 0x40 MLOAD PUSH4 0x1AFCD79F PUSH1 0xE3 SHL DUP2 MSTORE PUSH1 0x4 ADD PUSH1 0x40 MLOAD DUP1 SWAP2 SUB SWAP1 REVERT JUMPDEST PUSH2 0x10A3 PUSH2 0x1052 JUMP JUMPDEST PUSH2 0xB1A DUP2 PUSH2 0x11BF JUMP JUMPDEST PUSH2 0x8B1 PUSH2 0x1052 JUMP JUMPDEST PUSH2 0xF38 PUSH2 0x1052 JUMP JUMPDEST DUP1 PUSH1 0x1 PUSH1 0x1 PUSH1 0xA0 SHL SUB AND EXTCODESIZE PUSH1 0x0 SUB PUSH2 0x10F2 JUMPI PUSH1 0x40 MLOAD PUSH4 0x4C9C8CE3 PUSH1 0xE0 SHL DUP2 MSTORE PUSH1 0x1 PUSH1 0x1 PUSH1 0xA0 SHL SUB DUP3 AND PUSH1 0x4 DUP3 ADD MSTORE PUSH1 0x24 ADD PUSH2 0x3DC JUMP JUMPDEST PUSH32 0x360894A13BA1A3210667C828492DB98DCA3E2076CC3735A920A3CA505D382BBC DUP1 SLOAD PUSH1 0x1 PUSH1 0x1 PUSH1 0xA0 SHL SUB NOT AND PUSH1 0x1 PUSH1 0x1 PUSH1 0xA0 SHL SUB SWAP3 SWAP1 SWAP3 AND SWAP2 SWAP1 SWAP2 OR SWAP1 SSTORE JUMP JUMPDEST PUSH1 0x60 PUSH1 0x0 DUP1 DUP5 PUSH1 0x1 PUSH1 0x1 PUSH1 0xA0 SHL SUB AND DUP5 PUSH1 0x40 MLOAD PUSH2 0x1150 SWAP2 SWAP1 PUSH2 0x1A8B JUMP JUMPDEST PUSH1 0x0 PUSH1 0x40 MLOAD DUP1 DUP4 SUB DUP2 DUP6 GAS DELEGATECALL SWAP2 POP POP RETURNDATASIZE DUP1 PUSH1 0x0 DUP2 EQ PUSH2 0x118B JUMPI PUSH1 0x40 MLOAD SWAP2 POP PUSH1 0x1F NOT PUSH1 0x3F RETURNDATASIZE ADD AND DUP3 ADD PUSH1 0x40 MSTORE RETURNDATASIZE DUP3 MSTORE RETURNDATASIZE PUSH1 0x0 PUSH1 0x20 DUP5 ADD RETURNDATACOPY PUSH2 0x1190 JUMP JUMPDEST PUSH1 0x60 SWAP2 POP JUMPDEST POP SWAP2 POP SWAP2 POP PUSH2 0xE6A DUP6 DUP4 DUP4 PUSH2 0x11C7 JUMP JUMPDEST CALLVALUE ISZERO PUSH2 0x8B1 JUMPI PUSH1 0x40 MLOAD PUSH4 0xB398979F PUSH1 0xE0 SHL DUP2 MSTORE PUSH1 0x4 ADD PUSH1 0x40 MLOAD DUP1 SWAP2 SUB SWAP1 REVERT JUMPDEST PUSH2 0xAE7 PUSH2 0x1052 JUMP JUMPDEST PUSH1 0x60 DUP3 PUSH2 0x11DC JUMPI PUSH2 0x11D7 DUP3 PUSH2 0x1226 JUMP JUMPDEST PUSH2 0x121F JUMP JUMPDEST DUP2 MLOAD ISZERO DUP1 ISZERO PUSH2 0x11F3 JUMPI POP PUSH1 0x1 PUSH1 0x1 PUSH1 0xA0 SHL SUB DUP5 AND EXTCODESIZE ISZERO JUMPDEST ISZERO PUSH2 0x121C JUMPI PUSH1 0x40 MLOAD PUSH4 0x9996B315 PUSH1 0xE0 SHL DUP2 MSTORE PUSH1 0x1 PUSH1 0x1 PUSH1 0xA0 SHL SUB DUP6 AND PUSH1 0x4 DUP3 ADD MSTORE PUSH1 0x24 ADD PUSH2 0x3DC JUMP JUMPDEST POP DUP1 JUMPDEST SWAP4 SWAP3 POP POP POP JUMP JUMPDEST DUP1 MLOAD ISZERO PUSH2 0x1236 JUMPI DUP1 MLOAD DUP1 DUP3 PUSH1 0x20 ADD REVERT JUMPDEST PUSH1 0x40 MLOAD PUSH4 0xD6BDA275 PUSH1 0xE0 SHL DUP2 MSTORE PUSH1 0x4 ADD PUSH1 0x40 MLOAD DUP1 SWAP2 SUB SWAP1 REVERT JUMPDEST PUSH1 0x40 MLOAD DUP1 PUSH1 0x60 ADD PUSH1 0x40 MSTORE DUP1 PUSH1 0x0 DUP1 NOT AND DUP2 MSTORE PUSH1 0x20 ADD PUSH1 0x0 PUSH1 0x1 PUSH1 0x1 PUSH1 0x40 SHL SUB AND DUP2 MSTORE PUSH1 0x20 ADD PUSH2 0x1291 PUSH1 0x40 MLOAD DUP1 PUSH1 0x40 ADD PUSH1 0x40 MSTORE DUP1 PUSH1 0x0 DUP2 MSTORE PUSH1 0x20 ADD PUSH1 0x0 DUP2 MSTORE POP SWAP1 JUMP JUMPDEST SWAP1 MSTORE SWAP1 JUMP JUMPDEST PUSH1 0x0 DUP1 DUP4 PUSH1 0x1F DUP5 ADD SLT PUSH2 0x12A8 JUMPI PUSH1 0x0 DUP1 REVERT JUMPDEST POP DUP2 CALLDATALOAD PUSH1 0x1 PUSH1 0x1 PUSH1 0x40 SHL SUB DUP2 GT ISZERO PUSH2 0x12BF JUMPI PUSH1 0x0 DUP1 REVERT JUMPDEST PUSH1 0x20 DUP4 ADD SWAP2 POP DUP4 PUSH1 0x20 DUP3 DUP6 ADD ADD GT ISZERO PUSH2 0x12D7 JUMPI PUSH1 0x0 DUP1 REVERT JUMPDEST SWAP3 POP SWAP3 SWAP1 POP JUMP JUMPDEST DUP1 CALLDATALOAD PUSH1 0x1 PUSH1 0x1 PUSH1 0xA0 SHL SUB DUP2 AND DUP2 EQ PUSH2 0x12F5 JUMPI PUSH1 0x0 DUP1 REVERT JUMPDEST SWAP2 SWAP1 POP JUMP JUMPDEST PUSH1 0x0 DUP1 PUSH1 0x0 DUP1 PUSH1 0x0 DUP1 PUSH1 0x0 DUP8 DUP10 SUB PUSH1 0xE0 DUP2 SLT ISZERO PUSH2 0x1316 JUMPI PUSH1 0x0 DUP1 REVERT JUMPDEST PUSH1 0x60 DUP2 SLT ISZERO PUSH2 0x1324 JUMPI PUSH1 0x0 DUP1 REVERT JUMPDEST POP DUP8 SWAP7 POP PUSH1 0x60 DUP8 ADD CALLDATALOAD SWAP6 POP PUSH1 0x80 DUP8 ADD CALLDATALOAD PUSH1 0x1 PUSH1 0x1 PUSH1 0x40 SHL SUB DUP2 GT ISZERO PUSH2 0x1348 JUMPI PUSH1 0x0 DUP1 REVERT JUMPDEST PUSH2 0x1354 DUP11 DUP3 DUP12 ADD PUSH2 0x1296 JUMP JUMPDEST SWAP1 SWAP7 POP SWAP5 POP PUSH2 0x1367 SWAP1 POP PUSH1 0xA0 DUP10 ADD PUSH2 0x12DE JUMP JUMPDEST SWAP3 POP PUSH1 0xC0 DUP9 ADD CALLDATALOAD PUSH1 0x1 PUSH1 0x1 PUSH1 0x40 SHL SUB DUP2 GT ISZERO PUSH2 0x1382 JUMPI PUSH1 0x0 DUP1 REVERT JUMPDEST PUSH2 0x138E DUP11 DUP3 DUP12 ADD PUSH2 0x1296 JUMP JUMPDEST SWAP9 SWAP12 SWAP8 SWAP11 POP SWAP6 SWAP9 POP SWAP4 SWAP7 SWAP3 SWAP6 SWAP3 SWAP4 POP POP POP JUMP JUMPDEST DUP1 CALLDATALOAD PUSH4 0xFFFFFFFF DUP2 AND DUP2 EQ PUSH2 0x12F5 JUMPI PUSH1 0x0 DUP1 REVERT JUMPDEST PUSH1 0x0 DUP1 PUSH1 0x40 DUP4 DUP6 SUB SLT ISZERO PUSH2 0x13C8 JUMPI PUSH1 0x0 DUP1 REVERT JUMPDEST PUSH2 0x13D1 DUP4 PUSH2 0x13A1 JUMP JUMPDEST SWAP5 PUSH1 0x20 SWAP4 SWAP1 SWAP4 ADD CALLDATALOAD SWAP4 POP POP POP JUMP JUMPDEST PUSH4 0x4E487B71 PUSH1 0xE0 SHL PUSH1 0x0 MSTORE PUSH1 0x41 PUSH1 0x4 MSTORE PUSH1 0x24 PUSH1 0x0 REVERT JUMPDEST PUSH1 0x40 MLOAD PUSH1 0x1F DUP3 ADD PUSH1 0x1F NOT AND DUP2 ADD PUSH1 0x1 PUSH1 0x1 PUSH1 0x40 SHL SUB DUP2 GT DUP3 DUP3 LT OR ISZERO PUSH2 0x141D JUMPI PUSH2 0x141D PUSH2 0x13DF JUMP JUMPDEST PUSH1 0x40 MSTORE SWAP2 SWAP1 POP JUMP JUMPDEST PUSH1 0x0 DUP1 PUSH1 0x1 PUSH1 0x1 PUSH1 0x40 SHL SUB DUP5 GT ISZERO PUSH2 0x143F JUMPI PUSH2 0x143F PUSH2 0x13DF JUMP JUMPDEST POP PUSH1 0x1F DUP4 ADD PUSH1 0x1F NOT AND PUSH1 0x20 ADD PUSH2 0x1454 DUP2 PUSH2 0x13F5 JUMP JUMPDEST SWAP2 POP POP DUP3 DUP2 MSTORE DUP4 DUP4 DUP4 ADD GT ISZERO PUSH2 0x1469 JUMPI PUSH1 0x0 DUP1 REVERT JUMPDEST DUP3 DUP3 PUSH1 0x20 DUP4 ADD CALLDATACOPY PUSH1 0x0 PUSH1 0x20 DUP5 DUP4 ADD ADD MSTORE SWAP4 SWAP3 POP POP POP JUMP JUMPDEST PUSH1 0x0 DUP1 PUSH1 0x40 DUP4 DUP6 SUB SLT ISZERO PUSH2 0x1493 JUMPI PUSH1 0x0 DUP1 REVERT JUMPDEST PUSH2 0x149C DUP4 PUSH2 0x12DE JUMP JUMPDEST SWAP2 POP PUSH1 0x20 DUP4 ADD CALLDATALOAD PUSH1 0x1 PUSH1 0x1 PUSH1 0x40 SHL SUB DUP2 GT ISZERO PUSH2 0x14B7 JUMPI PUSH1 0x0 DUP1 REVERT JUMPDEST DUP4 ADD PUSH1 0x1F DUP2 ADD DUP6 SGT PUSH2 0x14C8 JUMPI PUSH1 0x0 DUP1 REVERT JUMPDEST PUSH2 0x14D7 DUP6 DUP3 CALLDATALOAD PUSH1 0x20 DUP5 ADD PUSH2 0x1425 JUMP JUMPDEST SWAP2 POP POP SWAP3 POP SWAP3 SWAP1 POP JUMP JUMPDEST PUSH1 0x0 JUMPDEST DUP4 DUP2 LT ISZERO PUSH2 0x14FC JUMPI DUP2 DUP2 ADD MLOAD DUP4 DUP3 ADD MSTORE PUSH1 0x20 ADD PUSH2 0x14E4 JUMP JUMPDEST POP POP PUSH1 0x0 SWAP2 ADD MSTORE JUMP JUMPDEST PUSH1 0x0 DUP2 MLOAD DUP1 DUP5 MSTORE PUSH2 0x151D DUP2 PUSH1 0x20 DUP7 ADD PUSH1 0x20 DUP7 ADD PUSH2 0x14E1 JUMP JUMPDEST PUSH1 0x1F ADD PUSH1 0x1F NOT AND SWAP3 SWAP1 SWAP3 ADD PUSH1 0x20 ADD SWAP3 SWAP2 POP POP JUMP JUMPDEST PUSH1 0x20 DUP2 MSTORE PUSH1 0x0 PUSH2 0x121F PUSH1 0x20 DUP4 ADD DUP5 PUSH2 0x1505 JUMP JUMPDEST PUSH1 0x0 DUP3 PUSH1 0x1F DUP4 ADD SLT PUSH2 0x1555 JUMPI PUSH1 0x0 DUP1 REVERT JUMPDEST PUSH2 0x121F DUP4 DUP4 CALLDATALOAD PUSH1 0x20 DUP6 ADD PUSH2 0x1425 JUMP JUMPDEST PUSH1 0x0 DUP3 PUSH1 0x1F DUP4 ADD SLT PUSH2 0x1575 JUMPI PUSH1 0x0 DUP1 REVERT JUMPDEST DUP2 CALLDATALOAD PUSH1 0x1 PUSH1 0x1 PUSH1 0x40 SHL SUB DUP2 GT ISZERO PUSH2 0x158E JUMPI PUSH2 0x158E PUSH2 0x13DF JUMP JUMPDEST DUP1 PUSH1 0x5 SHL PUSH2 0x159E PUSH1 0x20 DUP3 ADD PUSH2 0x13F5 JUMP JUMPDEST SWAP2 DUP3 MSTORE PUSH1 0x20 DUP2 DUP6 ADD DUP2 ADD SWAP3 SWAP1 DUP2 ADD SWAP1 DUP7 DUP5 GT ISZERO PUSH2 0x15BA JUMPI PUSH1 0x0 DUP1 REVERT JUMPDEST PUSH1 0x20 DUP7 ADD SWAP3 POP JUMPDEST DUP4 DUP4 LT ISZERO PUSH2 0xF2E JUMPI DUP3 CALLDATALOAD PUSH1 0x1 PUSH1 0x1 PUSH1 0x40 SHL SUB DUP2 GT ISZERO PUSH2 0x15DF JUMPI PUSH1 0x0 DUP1 REVERT JUMPDEST PUSH2 0x15EE DUP9 PUSH1 0x20 DUP4 DUP11 ADD ADD PUSH2 0x1544 JUMP JUMPDEST DUP4 MSTORE POP PUSH1 0x20 SWAP3 DUP4 ADD SWAP3 SWAP1 SWAP2 ADD SWAP1 PUSH2 0x15C1 JUMP JUMPDEST PUSH1 0x0 DUP1 PUSH1 0x0 DUP1 PUSH1 0x0 DUP1 PUSH1 0x0 PUSH1 0xC0 DUP9 DUP11 SUB SLT ISZERO PUSH2 0x161B JUMPI PUSH1 0x0 DUP1 REVERT JUMPDEST PUSH2 0x1624 DUP9 PUSH2 0x13A1 JUMP JUMPDEST SWAP7 POP PUSH1 0x20 DUP9 ADD CALLDATALOAD PUSH1 0x1 PUSH1 0x1 PUSH1 0x40 SHL SUB DUP2 GT ISZERO PUSH2 0x163F JUMPI PUSH1 0x0 DUP1 REVERT JUMPDEST PUSH2 0x164B DUP11 DUP3 DUP12 ADD PUSH2 0x1544 JUMP JUMPDEST SWAP7 POP POP PUSH1 0x40 DUP9 ADD CALLDATALOAD PUSH1 0x1 PUSH1 0x1 PUSH1 0x40 SHL SUB DUP2 GT ISZERO PUSH2 0x1667 JUMPI PUSH1 0x0 DUP1 REVERT JUMPDEST PUSH2 0x1673 DUP11 DUP3 DUP12 ADD PUSH2 0x1564 JUMP JUMPDEST SWAP6 POP POP PUSH1 0x60 DUP9 ADD CALLDATALOAD PUSH1 0x1 PUSH1 0x1 PUSH1 0x40 SHL SUB DUP2 GT ISZERO PUSH2 0x168F JUMPI PUSH1 0x0 DUP1 REVERT JUMPDEST PUSH2 0x169B DUP11 DUP3 DUP12 ADD PUSH2 0x1544 JUMP JUMPDEST SWAP5 POP POP PUSH1 0x80 DUP9 ADD CALLDATALOAD SWAP3 POP PUSH1 0xA0 DUP9 ADD CALLDATALOAD PUSH1 0x1 PUSH1 0x1 PUSH1 0x40 SHL SUB DUP2 GT ISZERO PUSH2 0x1382 JUMPI PUSH1 0x0 DUP1 REVERT JUMPDEST PUSH1 0x0 DUP1 PUSH1 0x0 DUP1 PUSH1 0x0 DUP1 PUSH1 0xA0 DUP8 DUP10 SUB SLT ISZERO PUSH2 0x16D7 JUMPI PUSH1 0x0 DUP1 REVERT JUMPDEST PUSH2 0x16E0 DUP8 PUSH2 0x13A1 JUMP JUMPDEST SWAP6 POP PUSH1 0x20 DUP8 ADD CALLDATALOAD PUSH1 0x1 PUSH1 0x1 PUSH1 0x40 SHL SUB DUP2 GT ISZERO PUSH2 0x16FB JUMPI PUSH1 0x0 DUP1 REVERT JUMPDEST PUSH2 0x1707 DUP10 DUP3 DUP11 ADD PUSH2 0x1544 JUMP JUMPDEST SWAP6 POP POP PUSH1 0x40 DUP8 ADD CALLDATALOAD PUSH1 0x1 PUSH1 0x1 PUSH1 0x40 SHL SUB DUP2 GT ISZERO PUSH2 0x1723 JUMPI PUSH1 0x0 DUP1 REVERT JUMPDEST PUSH2 0x172F DUP10 DUP3 DUP11 ADD PUSH2 0x1564 JUMP JUMPDEST SWAP5 POP POP PUSH1 0x60 DUP8 ADD CALLDATALOAD PUSH1 0x1 PUSH1 0x1 PUSH1 0x40 SHL SUB DUP2 GT ISZERO PUSH2 0x174B JUMPI PUSH1 0x0 DUP1 REVERT JUMPDEST PUSH2 0x1757 DUP10 DUP3 DUP11 ADD PUSH2 0x1544 JUMP JUMPDEST SWAP4 POP POP PUSH1 0x80 DUP8 ADD CALLDATALOAD PUSH1 0x1 PUSH1 0x1 PUSH1 0x40 SHL SUB DUP2 GT ISZERO PUSH2 0x1773 JUMPI PUSH1 0x0 DUP1 REVERT JUMPDEST PUSH2 0x177F DUP10 DUP3 DUP11 ADD PUSH2 0x1296 JUMP JUMPDEST SWAP8 SWAP11 SWAP7 SWAP10 POP SWAP5 SWAP8 POP SWAP3 SWAP6 SWAP4 SWAP5 SWAP3 POP POP POP JUMP JUMPDEST PUSH1 0x0 DUP1 PUSH1 0x40 DUP4 DUP6 SUB SLT ISZERO PUSH2 0x17A4 JUMPI PUSH1 0x0 DUP1 REVERT JUMPDEST PUSH2 0x13D1 DUP4 PUSH2 0x12DE JUMP JUMPDEST PUSH1 0x0 PUSH1 0x20 DUP3 DUP5 SUB SLT ISZERO PUSH2 0x17BF JUMPI PUSH1 0x0 DUP1 REVERT JUMPDEST PUSH2 0x121F DUP3 PUSH2 0x13A1 JUMP JUMPDEST PUSH1 0x0 DUP1 PUSH1 0x0 PUSH1 0x60 DUP5 DUP7 SUB SLT ISZERO PUSH2 0x17DD JUMPI PUSH1 0x0 DUP1 REVERT JUMPDEST PUSH2 0x17E6 DUP5 PUSH2 0x12DE JUMP JUMPDEST SWAP3 POP PUSH2 0x17F4 PUSH1 0x20 DUP6 ADD PUSH2 0x12DE JUMP JUMPDEST SWAP2 POP PUSH2 0x1802 PUSH1 0x40 DUP6 ADD PUSH2 0x12DE JUMP JUMPDEST SWAP1 POP SWAP3 POP SWAP3 POP SWAP3 JUMP JUMPDEST PUSH1 0x0 PUSH1 0x20 DUP3 DUP5 SUB SLT ISZERO PUSH2 0x181D JUMPI PUSH1 0x0 DUP1 REVERT JUMPDEST PUSH2 0x121F DUP3 PUSH2 0x12DE JUMP JUMPDEST PUSH1 0x0 PUSH1 0x20 DUP3 DUP5 SUB SLT ISZERO PUSH2 0x1838 JUMPI PUSH1 0x0 DUP1 REVERT JUMPDEST DUP2 MLOAD DUP1 ISZERO ISZERO DUP2 EQ PUSH2 0x121F JUMPI PUSH1 0x0 DUP1 REVERT JUMPDEST PUSH1 0x1 PUSH1 0x1 PUSH1 0xA0 SHL SUB DUP6 AND DUP2 MSTORE PUSH1 0x80 PUSH1 0x20 DUP3 ADD MSTORE PUSH1 0x0 PUSH2 0x186A PUSH1 0x80 DUP4 ADD DUP7 PUSH2 0x1505 JUMP JUMPDEST DUP3 DUP2 SUB PUSH1 0x40 DUP5 ADD MSTORE DUP1 DUP6 MLOAD DUP1 DUP4 MSTORE PUSH1 0x20 DUP4 ADD SWAP2 POP PUSH1 0x20 DUP2 PUSH1 0x5 SHL DUP5 ADD ADD PUSH1 0x20 DUP9 ADD PUSH1 0x0 JUMPDEST DUP4 DUP2 LT ISZERO PUSH2 0x18C0 JUMPI PUSH1 0x1F NOT DUP7 DUP5 SUB ADD DUP6 MSTORE PUSH2 0x18AA DUP4 DUP4 MLOAD PUSH2 0x1505 JUMP JUMPDEST PUSH1 0x20 SWAP6 DUP7 ADD SWAP6 SWAP1 SWAP4 POP SWAP2 SWAP1 SWAP2 ADD SWAP1 PUSH1 0x1 ADD PUSH2 0x188E JUMP JUMPDEST POP POP DUP6 DUP2 SUB PUSH1 0x60 DUP8 ADD MSTORE PUSH2 0x18D4 DUP2 DUP9 PUSH2 0x1505 JUMP JUMPDEST SWAP11 SWAP10 POP POP POP POP POP POP POP POP POP POP JUMP JUMPDEST PUSH1 0x40 DUP2 MSTORE PUSH1 0x0 PUSH2 0x18F5 PUSH1 0x40 DUP4 ADD DUP6 PUSH2 0x1505 JUMP JUMPDEST SWAP1 POP DUP3 PUSH1 0x20 DUP4 ADD MSTORE SWAP4 SWAP3 POP POP POP JUMP JUMPDEST PUSH1 0x0 PUSH1 0x20 DUP3 DUP5 SUB SLT ISZERO PUSH2 0x1916 JUMPI PUSH1 0x0 DUP1 REVERT JUMPDEST POP MLOAD SWAP2 SWAP1 POP JUMP JUMPDEST PUSH4 0xFFFFFFFF DUP2 MLOAD AND DUP3 MSTORE PUSH1 0x20 DUP2 ADD MLOAD PUSH1 0x20 DUP4 ADD MSTORE PUSH1 0x0 PUSH1 0x40 DUP3 ADD MLOAD PUSH1 0xA0 PUSH1 0x40 DUP6 ADD MSTORE PUSH2 0x194C PUSH1 0xA0 DUP6 ADD DUP3 PUSH2 0x1505 JUMP JUMPDEST SWAP1 POP PUSH1 0x60 DUP4 ADD MLOAD DUP5 DUP3 SUB PUSH1 0x60 DUP7 ADD MSTORE PUSH2 0x1965 DUP3 DUP3 PUSH2 0x1505 JUMP JUMPDEST SWAP2 POP POP PUSH1 0x80 DUP4 ADD MLOAD ISZERO ISZERO PUSH1 0x80 DUP6 ADD MSTORE DUP1 SWAP2 POP POP SWAP3 SWAP2 POP POP JUMP JUMPDEST PUSH1 0x40 DUP2 MSTORE PUSH1 0x0 PUSH2 0x1991 PUSH1 0x40 DUP4 ADD DUP6 PUSH2 0x191D JUMP JUMPDEST SWAP1 POP PUSH1 0x1 PUSH1 0x1 PUSH1 0xA0 SHL SUB DUP4 AND PUSH1 0x20 DUP4 ADD MSTORE SWAP4 SWAP3 POP POP POP JUMP JUMPDEST PUSH1 0x0 PUSH1 0x40 DUP3 DUP5 SUB SLT ISZERO PUSH2 0x19BB JUMPI PUSH1 0x0 DUP1 REVERT JUMPDEST PUSH1 0x40 DUP1 MLOAD SWAP1 DUP2 ADD PUSH1 0x1 PUSH1 0x1 PUSH1 0x40 SHL SUB DUP2 GT DUP3 DUP3 LT OR ISZERO PUSH2 0x19DD JUMPI PUSH2 0x19DD PUSH2 0x13DF JUMP JUMPDEST PUSH1 0x40 MSTORE DUP3 MLOAD DUP2 MSTORE PUSH1 0x20 SWAP3 DUP4 ADD MLOAD SWAP3 DUP2 ADD SWAP3 SWAP1 SWAP3 MSTORE POP SWAP2 SWAP1 POP JUMP JUMPDEST PUSH1 0x0 PUSH1 0x40 DUP3 DUP5 SUB SLT ISZERO PUSH2 0x1A09 JUMPI PUSH1 0x0 DUP1 REVERT JUMPDEST PUSH2 0x121F DUP4 DUP4 PUSH2 0x19A9 JUMP JUMPDEST PUSH1 0x0 PUSH1 0x80 DUP3 DUP5 SUB SLT DUP1 ISZERO PUSH2 0x1A26 JUMPI PUSH1 0x0 DUP1 REVERT JUMPDEST POP PUSH1 0x40 MLOAD PUSH1 0x0 SWAP1 PUSH1 0x60 DUP2 ADD PUSH1 0x1 PUSH1 0x1 PUSH1 0x40 SHL SUB DUP2 GT DUP3 DUP3 LT OR ISZERO PUSH2 0x1A4C JUMPI PUSH2 0x1A4C PUSH2 0x13DF JUMP JUMPDEST PUSH1 0x40 MSTORE DUP4 MLOAD DUP2 MSTORE PUSH1 0x20 DUP5 ADD MLOAD PUSH1 0x1 PUSH1 0x1 PUSH1 0x40 SHL SUB DUP2 AND DUP2 EQ PUSH2 0x1A6C JUMPI DUP3 DUP4 REVERT JUMPDEST PUSH1 0x20 DUP3 ADD MSTORE PUSH2 0x1A7E DUP6 PUSH1 0x40 DUP7 ADD PUSH2 0x19A9 JUMP JUMPDEST PUSH1 0x40 DUP3 ADD MSTORE SWAP5 SWAP4 POP POP POP POP JUMP JUMPDEST PUSH1 0x0 DUP3 MLOAD PUSH2 0x1A9D DUP2 DUP5 PUSH1 0x20 DUP8 ADD PUSH2 0x14E1 JUMP JUMPDEST SWAP2 SWAP1 SWAP2 ADD SWAP3 SWAP2 POP POP JUMP INVALID LOG2 PUSH5 0x6970667358 0x22 SLT KECCAK256 DUP16 MSTORE8 0xA6 SSTORE 0xC4 LOG1 DUP12 EXTCODEHASH 0xB5 0xD1 PREVRANDAO PUSH12 0x6F291069BB54A5945EE3358F DUP7 0xD0 EQ PUSH16 0x5DA3730A64736F6C634300081C003300 "
				},
				"gasEstimates": {
					"creation": {
						"codeDepositCost": "1375400",
						"executionCost": "infinite",
						"totalCost": "infinite"
					},
					"external": {
						"UPGRADE_INTERFACE_VERSION()": "infinite",
						"createUserProfile(uint32,string,string[],string,uint256,bytes)": "infinite",
						"endpoint()": "2382",
						"initialize(address,address,address)": "infinite",
						"lzReceive((uint32,bytes32,uint64),bytes32,bytes,address,bytes)": "infinite",
						"owner()": "2376",
						"peers(uint32)": "2518",
						"proxiableUUID()": "infinite",
						"quoteCreateUserProfile(uint32,string,string[],string,bytes)": "infinite",
						"renounceOwnership()": "infinite",
						"setPeer(uint32,bytes32)": "26212",
						"transferOwnership(address)": "28434",
						"upgradeToAndCall(address,bytes)": "infinite",
						"usdToken()": "2425",
						"version()": "infinite",
						"withdrawFees(address,uint256)": "infinite"
					},
					"internal": {
						"_lzReceive(struct Origin calldata,bytes32,bytes calldata,address,bytes calldata)": "infinite"
					}
				},
				"methodIdentifiers": {
					"UPGRADE_INTERFACE_VERSION()": "ad3cb1cc",
					"createUserProfile(uint32,string,string[],string,uint256,bytes)": "64bd90eb",
					"endpoint()": "5e280f11",
					"initialize(address,address,address)": "c0c53b8b",
					"lzReceive((uint32,bytes32,uint64),bytes32,bytes,address,bytes)": "13137d65",
					"owner()": "8da5cb5b",
					"peers(uint32)": "bb0b6a53",
					"proxiableUUID()": "52d1902d",
					"quoteCreateUserProfile(uint32,string,string[],string,bytes)": "682d54e6",
					"renounceOwnership()": "715018a6",
					"setPeer(uint32,bytes32)": "3400288b",
					"transferOwnership(address)": "f2fde38b",
					"upgradeToAndCall(address,bytes)": "4f1ef286",
					"usdToken()": "f897a22b",
					"version()": "54fd4d50",
					"withdrawFees(address,uint256)": "ad3b1b47"
				}
			},
			"storageLayout": {
				"storage": [
					{
						"astId": 3674,
						"contract": "profile-with-fee-uups.sol:LocalOpenWorkV2",
						"label": "endpoint",
						"offset": 0,
						"slot": "0",
						"type": "t_contract(ILayerZeroEndpointV2)202"
					},
					{
						"astId": 3678,
						"contract": "profile-with-fee-uups.sol:LocalOpenWorkV2",
						"label": "peers",
						"offset": 0,
						"slot": "1",
						"type": "t_mapping(t_uint32,t_bytes32)"
					},
					{
						"astId": 3893,
						"contract": "profile-with-fee-uups.sol:LocalOpenWorkV2",
						"label": "__gap",
						"offset": 0,
						"slot": "2",
						"type": "t_array(t_uint256)48_storage"
					},
					{
						"astId": 1978,
						"contract": "profile-with-fee-uups.sol:LocalOpenWorkV2",
						"label": "_status",
						"offset": 0,
						"slot": "50",
						"type": "t_uint256"
					},
					{
						"astId": 2047,
						"contract": "profile-with-fee-uups.sol:LocalOpenWorkV2",
						"label": "__gap",
						"offset": 0,
						"slot": "51",
						"type": "t_array(t_uint256)49_storage"
					},
					{
						"astId": 3912,
						"contract": "profile-with-fee-uups.sol:LocalOpenWorkV2",
						"label": "usdToken",
						"offset": 0,
						"slot": "100",
						"type": "t_contract(IERC20)2745"
					},
					{
						"astId": 4197,
						"contract": "profile-with-fee-uups.sol:LocalOpenWorkV2",
						"label": "__gap",
						"offset": 0,
						"slot": "101",
						"type": "t_array(t_uint256)49_storage"
					}
				],
				"types": {
					"t_array(t_uint256)48_storage": {
						"base": "t_uint256",
						"encoding": "inplace",
						"label": "uint256[48]",
						"numberOfBytes": "1536"
					},
					"t_array(t_uint256)49_storage": {
						"base": "t_uint256",
						"encoding": "inplace",
						"label": "uint256[49]",
						"numberOfBytes": "1568"
					},
					"t_bytes32": {
						"encoding": "inplace",
						"label": "bytes32",
						"numberOfBytes": "32"
					},
					"t_contract(IERC20)2745": {
						"encoding": "inplace",
						"label": "contract IERC20",
						"numberOfBytes": "20"
					},
					"t_contract(ILayerZeroEndpointV2)202": {
						"encoding": "inplace",
						"label": "contract ILayerZeroEndpointV2",
						"numberOfBytes": "20"
					},
					"t_mapping(t_uint32,t_bytes32)": {
						"encoding": "mapping",
						"key": "t_uint32",
						"label": "mapping(uint32 => bytes32)",
						"numberOfBytes": "32",
						"value": "t_bytes32"
					},
					"t_uint256": {
						"encoding": "inplace",
						"label": "uint256",
						"numberOfBytes": "32"
					},
					"t_uint32": {
						"encoding": "inplace",
						"label": "uint32",
						"numberOfBytes": "4"
					}
				}
			},
			"userdoc": {
				"kind": "user",
				"methods": {},
				"version": 1
			}
		}
	}
}