{
	"profile-fees-getter.sol": {
		"LocalOpenWorkV2": {
			"abi": [
				{
					"inputs": [
						{
							"internalType": "address",
							"name": "_endpoint",
							"type": "address"
						},
						{
							"internalType": "address",
							"name": "_owner",
							"type": "address"
						},
						{
							"internalType": "address",
							"name": "_usdToken",
							"type": "address"
						}
					],
					"stateMutability": "nonpayable",
					"type": "constructor"
				},
				{
					"inputs": [],
					"name": "InvalidDelegate",
					"type": "error"
				},
				{
					"inputs": [],
					"name": "InvalidEndpointCall",
					"type": "error"
				},
				{
					"inputs": [],
					"name": "LzTokenUnavailable",
					"type": "error"
				},
				{
					"inputs": [
						{
							"internalType": "uint32",
							"name": "eid",
							"type": "uint32"
						}
					],
					"name": "NoPeer",
					"type": "error"
				},
				{
					"inputs": [
						{
							"internalType": "uint256",
							"name": "msgValue",
							"type": "uint256"
						}
					],
					"name": "NotEnoughNative",
					"type": "error"
				},
				{
					"inputs": [
						{
							"internalType": "address",
							"name": "addr",
							"type": "address"
						}
					],
					"name": "OnlyEndpoint",
					"type": "error"
				},
				{
					"inputs": [
						{
							"internalType": "uint32",
							"name": "eid",
							"type": "uint32"
						},
						{
							"internalType": "bytes32",
							"name": "sender",
							"type": "bytes32"
						}
					],
					"name": "OnlyPeer",
					"type": "error"
				},
				{
					"inputs": [
						{
							"internalType": "address",
							"name": "owner",
							"type": "address"
						}
					],
					"name": "OwnableInvalidOwner",
					"type": "error"
				},
				{
					"inputs": [
						{
							"internalType": "address",
							"name": "account",
							"type": "address"
						}
					],
					"name": "OwnableUnauthorizedAccount",
					"type": "error"
				},
				{
					"inputs": [
						{
							"internalType": "address",
							"name": "token",
							"type": "address"
						}
					],
					"name": "SafeERC20FailedOperation",
					"type": "error"
				},
				{
					"anonymous": false,
					"inputs": [
						{
							"indexed": true,
							"internalType": "address",
							"name": "to",
							"type": "address"
						},
						{
							"indexed": false,
							"internalType": "uint256",
							"name": "amount",
							"type": "uint256"
						}
					],
					"name": "FeesWithdrawn",
					"type": "event"
				},
				{
					"anonymous": false,
					"inputs": [
						{
							"indexed": true,
							"internalType": "address",
							"name": "previousOwner",
							"type": "address"
						},
						{
							"indexed": true,
							"internalType": "address",
							"name": "newOwner",
							"type": "address"
						}
					],
					"name": "OwnershipTransferred",
					"type": "event"
				},
				{
					"anonymous": false,
					"inputs": [
						{
							"indexed": false,
							"internalType": "uint32",
							"name": "eid",
							"type": "uint32"
						},
						{
							"indexed": false,
							"internalType": "bytes32",
							"name": "peer",
							"type": "bytes32"
						}
					],
					"name": "PeerSet",
					"type": "event"
				},
				{
					"anonymous": false,
					"inputs": [
						{
							"indexed": true,
							"internalType": "address",
							"name": "requester",
							"type": "address"
						},
						{
							"indexed": true,
							"internalType": "uint256",
							"name": "profileId",
							"type": "uint256"
						},
						{
							"indexed": false,
							"internalType": "address",
							"name": "user",
							"type": "address"
						},
						{
							"indexed": false,
							"internalType": "string",
							"name": "name",
							"type": "string"
						}
					],
					"name": "ProfileReceived",
					"type": "event"
				},
				{
					"anonymous": false,
					"inputs": [
						{
							"indexed": true,
							"internalType": "uint32",
							"name": "dstEid",
							"type": "uint32"
						},
						{
							"indexed": true,
							"internalType": "address",
							"name": "requester",
							"type": "address"
						},
						{
							"indexed": false,
							"internalType": "uint256",
							"name": "profileId",
							"type": "uint256"
						},
						{
							"indexed": false,
							"internalType": "bytes32",
							"name": "requestId",
							"type": "bytes32"
						}
					],
					"name": "ProfileRequested",
					"type": "event"
				},
				{
					"anonymous": false,
					"inputs": [
						{
							"indexed": true,
							"internalType": "uint32",
							"name": "dstEid",
							"type": "uint32"
						},
						{
							"indexed": true,
							"internalType": "address",
							"name": "user",
							"type": "address"
						},
						{
							"indexed": false,
							"internalType": "string",
							"name": "name",
							"type": "string"
						},
						{
							"indexed": false,
							"internalType": "uint256",
							"name": "usdtFee",
							"type": "uint256"
						}
					],
					"name": "UserProfileSent",
					"type": "event"
				},
				{
					"inputs": [
						{
							"components": [
								{
									"internalType": "uint32",
									"name": "srcEid",
									"type": "uint32"
								},
								{
									"internalType": "bytes32",
									"name": "sender",
									"type": "bytes32"
								},
								{
									"internalType": "uint64",
									"name": "nonce",
									"type": "uint64"
								}
							],
							"internalType": "struct Origin",
							"name": "origin",
							"type": "tuple"
						}
					],
					"name": "allowInitializePath",
					"outputs": [
						{
							"internalType": "bool",
							"name": "",
							"type": "bool"
						}
					],
					"stateMutability": "view",
					"type": "function"
				},
				{
					"inputs": [
						{
							"internalType": "uint32",
							"name": "_dstEid",
							"type": "uint32"
						},
						{
							"internalType": "string",
							"name": "name",
							"type": "string"
						},
						{
							"internalType": "string[]",
							"name": "skills",
							"type": "string[]"
						},
						{
							"internalType": "string",
							"name": "profileHash",
							"type": "string"
						},
						{
							"internalType": "uint256",
							"name": "usdtFee",
							"type": "uint256"
						},
						{
							"internalType": "bytes",
							"name": "_options",
							"type": "bytes"
						}
					],
					"name": "createUserProfile",
					"outputs": [],
					"stateMutability": "payable",
					"type": "function"
				},
				{
					"inputs": [],
					"name": "endpoint",
					"outputs": [
						{
							"internalType": "contract ILayerZeroEndpointV2",
							"name": "",
							"type": "address"
						}
					],
					"stateMutability": "view",
					"type": "function"
				},
				{
					"inputs": [
						{
							"internalType": "uint256",
							"name": "profileId",
							"type": "uint256"
						}
					],
					"name": "getCachedProfile",
					"outputs": [
						{
							"internalType": "address",
							"name": "user",
							"type": "address"
						},
						{
							"internalType": "string",
							"name": "name",
							"type": "string"
						},
						{
							"internalType": "string[]",
							"name": "skills",
							"type": "string[]"
						},
						{
							"internalType": "string",
							"name": "profileHash",
							"type": "string"
						},
						{
							"internalType": "uint256",
							"name": "createdAt",
							"type": "uint256"
						},
						{
							"internalType": "bool",
							"name": "exists",
							"type": "bool"
						}
					],
					"stateMutability": "view",
					"type": "function"
				},
				{
					"inputs": [
						{
							"internalType": "bytes32",
							"name": "requestId",
							"type": "bytes32"
						}
					],
					"name": "getPendingRequester",
					"outputs": [
						{
							"internalType": "address",
							"name": "",
							"type": "address"
						}
					],
					"stateMutability": "view",
					"type": "function"
				},
				{
					"inputs": [
						{
							"internalType": "uint32",
							"name": "_dstEid",
							"type": "uint32"
						},
						{
							"internalType": "uint256",
							"name": "profileId",
							"type": "uint256"
						},
						{
							"internalType": "bytes",
							"name": "_options",
							"type": "bytes"
						}
					],
					"name": "getProfileCrossChain",
					"outputs": [],
					"stateMutability": "payable",
					"type": "function"
				},
				{
					"inputs": [
						{
							"components": [
								{
									"internalType": "uint32",
									"name": "srcEid",
									"type": "uint32"
								},
								{
									"internalType": "bytes32",
									"name": "sender",
									"type": "bytes32"
								},
								{
									"internalType": "uint64",
									"name": "nonce",
									"type": "uint64"
								}
							],
							"internalType": "struct Origin",
							"name": "",
							"type": "tuple"
						},
						{
							"internalType": "bytes",
							"name": "",
							"type": "bytes"
						},
						{
							"internalType": "address",
							"name": "_sender",
							"type": "address"
						}
					],
					"name": "isComposeMsgSender",
					"outputs": [
						{
							"internalType": "bool",
							"name": "",
							"type": "bool"
						}
					],
					"stateMutability": "view",
					"type": "function"
				},
				{
					"inputs": [
						{
							"components": [
								{
									"internalType": "uint32",
									"name": "srcEid",
									"type": "uint32"
								},
								{
									"internalType": "bytes32",
									"name": "sender",
									"type": "bytes32"
								},
								{
									"internalType": "uint64",
									"name": "nonce",
									"type": "uint64"
								}
							],
							"internalType": "struct Origin",
							"name": "_origin",
							"type": "tuple"
						},
						{
							"internalType": "bytes32",
							"name": "_guid",
							"type": "bytes32"
						},
						{
							"internalType": "bytes",
							"name": "_message",
							"type": "bytes"
						},
						{
							"internalType": "address",
							"name": "_executor",
							"type": "address"
						},
						{
							"internalType": "bytes",
							"name": "_extraData",
							"type": "bytes"
						}
					],
					"name": "lzReceive",
					"outputs": [],
					"stateMutability": "payable",
					"type": "function"
				},
				{
					"inputs": [
						{
							"internalType": "uint32",
							"name": "",
							"type": "uint32"
						},
						{
							"internalType": "bytes32",
							"name": "",
							"type": "bytes32"
						}
					],
					"name": "nextNonce",
					"outputs": [
						{
							"internalType": "uint64",
							"name": "nonce",
							"type": "uint64"
						}
					],
					"stateMutability": "view",
					"type": "function"
				},
				{
					"inputs": [],
					"name": "oAppVersion",
					"outputs": [
						{
							"internalType": "uint64",
							"name": "senderVersion",
							"type": "uint64"
						},
						{
							"internalType": "uint64",
							"name": "receiverVersion",
							"type": "uint64"
						}
					],
					"stateMutability": "pure",
					"type": "function"
				},
				{
					"inputs": [],
					"name": "owner",
					"outputs": [
						{
							"internalType": "address",
							"name": "",
							"type": "address"
						}
					],
					"stateMutability": "view",
					"type": "function"
				},
				{
					"inputs": [
						{
							"internalType": "uint32",
							"name": "eid",
							"type": "uint32"
						}
					],
					"name": "peers",
					"outputs": [
						{
							"internalType": "bytes32",
							"name": "peer",
							"type": "bytes32"
						}
					],
					"stateMutability": "view",
					"type": "function"
				},
				{
					"inputs": [
						{
							"internalType": "uint32",
							"name": "_dstEid",
							"type": "uint32"
						},
						{
							"internalType": "string",
							"name": "name",
							"type": "string"
						},
						{
							"internalType": "string[]",
							"name": "skills",
							"type": "string[]"
						},
						{
							"internalType": "string",
							"name": "profileHash",
							"type": "string"
						},
						{
							"internalType": "uint256",
							"name": "usdtFee",
							"type": "uint256"
						},
						{
							"internalType": "bytes",
							"name": "_options",
							"type": "bytes"
						}
					],
					"name": "quoteCreateUserProfile",
					"outputs": [
						{
							"components": [
								{
									"internalType": "uint256",
									"name": "nativeFee",
									"type": "uint256"
								},
								{
									"internalType": "uint256",
									"name": "lzTokenFee",
									"type": "uint256"
								}
							],
							"internalType": "struct MessagingFee",
							"name": "",
							"type": "tuple"
						}
					],
					"stateMutability": "view",
					"type": "function"
				},
				{
					"inputs": [
						{
							"internalType": "uint32",
							"name": "_dstEid",
							"type": "uint32"
						},
						{
							"internalType": "uint256",
							"name": "profileId",
							"type": "uint256"
						},
						{
							"internalType": "bytes",
							"name": "_options",
							"type": "bytes"
						}
					],
					"name": "quoteGetProfile",
					"outputs": [
						{
							"components": [
								{
									"internalType": "uint256",
									"name": "nativeFee",
									"type": "uint256"
								},
								{
									"internalType": "uint256",
									"name": "lzTokenFee",
									"type": "uint256"
								}
							],
							"internalType": "struct MessagingFee",
							"name": "",
							"type": "tuple"
						}
					],
					"stateMutability": "view",
					"type": "function"
				},
				{
					"inputs": [],
					"name": "renounceOwnership",
					"outputs": [],
					"stateMutability": "nonpayable",
					"type": "function"
				},
				{
					"inputs": [
						{
							"internalType": "address",
							"name": "_delegate",
							"type": "address"
						}
					],
					"name": "setDelegate",
					"outputs": [],
					"stateMutability": "nonpayable",
					"type": "function"
				},
				{
					"inputs": [
						{
							"internalType": "uint32",
							"name": "_eid",
							"type": "uint32"
						},
						{
							"internalType": "bytes32",
							"name": "_peer",
							"type": "bytes32"
						}
					],
					"name": "setPeer",
					"outputs": [],
					"stateMutability": "nonpayable",
					"type": "function"
				},
				{
					"inputs": [
						{
							"internalType": "address",
							"name": "newOwner",
							"type": "address"
						}
					],
					"name": "transferOwnership",
					"outputs": [],
					"stateMutability": "nonpayable",
					"type": "function"
				},
				{
					"inputs": [],
					"name": "usdToken",
					"outputs": [
						{
							"internalType": "contract IERC20",
							"name": "",
							"type": "address"
						}
					],
					"stateMutability": "view",
					"type": "function"
				},
				{
					"inputs": [
						{
							"internalType": "address",
							"name": "to",
							"type": "address"
						},
						{
							"internalType": "uint256",
							"name": "amount",
							"type": "uint256"
						}
					],
					"name": "withdrawFees",
					"outputs": [],
					"stateMutability": "nonpayable",
					"type": "function"
				},
				{
					"stateMutability": "payable",
					"type": "receive"
				}
			],
			"devdoc": {
				"details": "LayerZero V2 OApp that lets **each caller decide the USDT fee** they deposit with the      profile-creation message. Also supports cross-chain profile retrieval using ABA pattern.",
				"errors": {
					"OwnableInvalidOwner(address)": [
						{
							"details": "The owner is not a valid owner account. (eg. `address(0)`)"
						}
					],
					"OwnableUnauthorizedAccount(address)": [
						{
							"details": "The caller account is not authorized to perform an operation."
						}
					],
					"SafeERC20FailedOperation(address)": [
						{
							"details": "An operation with an ERC-20 token failed."
						}
					]
				},
				"kind": "dev",
				"methods": {
					"allowInitializePath((uint32,bytes32,uint64))": {
						"details": "This indicates to the endpoint that the OApp has enabled msgs for this particular path to be received.This defaults to assuming if a peer has been set, its initialized. Can be overridden by the OApp if there is other logic to determine this.",
						"params": {
							"origin": "The origin information containing the source endpoint and sender address."
						},
						"returns": {
							"_0": "Whether the path has been initialized."
						}
					},
					"createUserProfile(uint32,string,string[],string,uint256,bytes)": {
						"params": {
							"_dstEid": "LayerZero destination chain ID",
							"_options": "LayerZero options (e.g., gas limits); pass empty bytes if unsure",
							"name": "User name",
							"profileHash": "IPFS / Arweave hash",
							"skills": "Array of skills",
							"usdtFee": "Amount of USDT caller wants to deposit (6-dec units)"
						}
					},
					"getProfileCrossChain(uint32,uint256,bytes)": {
						"params": {
							"_dstEid": "LayerZero destination chain ID where profiles are stored",
							"_options": "LayerZero options for both request and response",
							"profileId": "Profile ID to retrieve"
						}
					},
					"isComposeMsgSender((uint32,bytes32,uint64),bytes,address)": {
						"details": "_origin The origin information containing the source endpoint and sender address.  - srcEid: The source chain endpoint ID.  - sender: The sender address on the src chain.  - nonce: The nonce of the message._message The lzReceive payload.Applications can optionally choose to implement separate composeMsg senders that are NOT the bridging layer.The default sender IS the OAppReceiver implementer.",
						"params": {
							"_sender": "The sender address."
						},
						"returns": {
							"_0": "isSender Is a valid sender."
						}
					},
					"lzReceive((uint32,bytes32,uint64),bytes32,bytes,address,bytes)": {
						"details": "Entry point for receiving messages or packets from the endpoint.Entry point for receiving msg/packet from the LayerZero endpoint.",
						"params": {
							"_executor": "The address of the executor for the received message.",
							"_extraData": "Additional arbitrary data provided by the corresponding executor.",
							"_guid": "The unique identifier for the received LayerZero message.",
							"_message": "The payload of the received message.",
							"_origin": "The origin information containing the source endpoint and sender address.  - srcEid: The source chain endpoint ID.  - sender: The sender address on the src chain.  - nonce: The nonce of the message."
						}
					},
					"nextNonce(uint32,bytes32)": {
						"details": "_srcEid The source endpoint ID._sender The sender address.The path nonce starts from 1. If 0 is returned it means that there is NO nonce ordered enforcement.Is required by the off-chain executor to determine the OApp expects msg execution is ordered.This is also enforced by the OApp.By default this is NOT enabled. ie. nextNonce is hardcoded to return 0.",
						"returns": {
							"nonce": "The next nonce."
						}
					},
					"oAppVersion()": {
						"returns": {
							"receiverVersion": "The version of the OAppReceiver.sol implementation.",
							"senderVersion": "The version of the OAppSender.sol implementation."
						}
					},
					"owner()": {
						"details": "Returns the address of the current owner."
					},
					"renounceOwnership()": {
						"details": "Leaves the contract without owner. It will not be possible to call `onlyOwner` functions. Can only be called by the current owner. NOTE: Renouncing ownership will leave the contract without an owner, thereby disabling any functionality that is only available to the owner."
					},
					"setDelegate(address)": {
						"details": "Only the owner/admin of the OApp can call this function.Provides the ability for a delegate to set configs, on behalf of the OApp, directly on the Endpoint contract.",
						"params": {
							"_delegate": "The address of the delegate to be set."
						}
					},
					"setPeer(uint32,bytes32)": {
						"details": "Only the owner/admin of the OApp can call this function.Indicates that the peer is trusted to send LayerZero messages to this OApp.Set this to bytes32(0) to remove the peer address.Peer is a bytes32 to accommodate non-evm chains.",
						"params": {
							"_eid": "The endpoint ID.",
							"_peer": "The address of the peer to be associated with the corresponding endpoint."
						}
					},
					"transferOwnership(address)": {
						"details": "Transfers ownership of the contract to a new account (`newOwner`). Can only be called by the current owner."
					}
				},
				"title": "LocalOpenWorkV2",
				"version": 1
			},
			"evm": {
				"assembly": "    /* \"profile-fees-getter.sol\":584:11150  contract LocalOpenWorkV2 is OApp, ReentrancyGuard {... */\n  mstore(0x40, 0xc0)\n    /* \"profile-fees-getter.sol\":2842:3023  constructor(... */\n  callvalue\n  dup1\n  iszero\n  tag_1\n  jumpi\n  0x00\n  dup1\n  revert\ntag_1:\n  pop\n  mload(0x40)\n  sub(codesize, bytecodeSize)\n  dup1\n  bytecodeSize\n  dup4\n  codecopy\n  dup2\n  add\n  0x40\n  dup2\n  swap1\n  mstore\n  tag_2\n  swap2\n  tag_3\n  jump\t// in\ntag_2:\n    /* \"profile-fees-getter.sol\":2943:2952  _endpoint */\n  dup3\n    /* \"profile-fees-getter.sol\":2954:2960  _owner */\n  dup3\n    /* \"profile-fees-getter.sol\":2943:2952  _endpoint */\n  dup2\n    /* \"profile-fees-getter.sol\":2954:2960  _owner */\n  dup2\n  dup1\n  sub(shl(0xa0, 0x01), 0x01)\n    /* \"@openzeppelin/contracts/access/Ownable.sol\":1273:1299  initialOwner == address(0) */\n  dup2\n  and\n    /* \"@openzeppelin/contracts/access/Ownable.sol\":1269:1364  if (initialOwner == address(0)) {... */\n  tag_10\n  jumpi\n    /* \"@openzeppelin/contracts/access/Ownable.sol\":1322:1353  OwnableInvalidOwner(address(0)) */\n  mload(0x40)\n  shl(0xe0, 0x1e4fbdf7)\n  dup2\n  mstore\n    /* \"@openzeppelin/contracts/access/Ownable.sol\":1350:1351  0 */\n  0x00\n    /* \"@openzeppelin/contracts/access/Ownable.sol\":1322:1353  OwnableInvalidOwner(address(0)) */\n  0x04\n  dup3\n  add\n    /* \"#utility.yul\":725:776   */\n  mstore\n    /* \"#utility.yul\":698:716   */\n  0x24\n  add\n    /* \"@openzeppelin/contracts/access/Ownable.sol\":1322:1353  OwnableInvalidOwner(address(0)) */\n  mload(0x40)\n  dup1\n  swap2\n  sub\n  swap1\n  revert\n    /* \"@openzeppelin/contracts/access/Ownable.sol\":1269:1364  if (initialOwner == address(0)) {... */\ntag_10:\n    /* \"@openzeppelin/contracts/access/Ownable.sol\":1373:1405  _transferOwnership(initialOwner) */\n  tag_13\n    /* \"@openzeppelin/contracts/access/Ownable.sol\":1392:1404  initialOwner */\n  dup2\n    /* \"@openzeppelin/contracts/access/Ownable.sol\":1373:1391  _transferOwnership */\n  tag_14\n    /* \"@openzeppelin/contracts/access/Ownable.sol\":1373:1405  _transferOwnership(initialOwner) */\n  jump\t// in\ntag_13:\n  pop\n  sub(shl(0xa0, 0x01), 0x01)\n    /* \"@layerzerolabs/oapp-evm/contracts/oapp/OAppCore.sol\":1047:1089  endpoint = ILayerZeroEndpointV2(_endpoint) */\n  dup1\n  dup4\n  and\n  0x80\n  mstore\n    /* \"@layerzerolabs/oapp-evm/contracts/oapp/OAppCore.sol\":1104:1127  _delegate == address(0) */\n  dup2\n  and\n    /* \"@layerzerolabs/oapp-evm/contracts/oapp/OAppCore.sol\":1100:1153  if (_delegate == address(0)) revert InvalidDelegate() */\n  tag_16\n  jumpi\n    /* \"@layerzerolabs/oapp-evm/contracts/oapp/OAppCore.sol\":1136:1153  InvalidDelegate() */\n  mload(0x40)\n  shl(0xe2, 0x2d618d81)\n  dup2\n  mstore\n  0x04\n  add\n  mload(0x40)\n  dup1\n  swap2\n  sub\n  swap1\n  revert\n    /* \"@layerzerolabs/oapp-evm/contracts/oapp/OAppCore.sol\":1100:1153  if (_delegate == address(0)) revert InvalidDelegate() */\ntag_16:\n    /* \"@layerzerolabs/oapp-evm/contracts/oapp/OAppCore.sol\":1163:1171  endpoint */\n  mload(0x80)\n    /* \"@layerzerolabs/oapp-evm/contracts/oapp/OAppCore.sol\":1163:1194  endpoint.setDelegate(_delegate) */\n  mload(0x40)\n  shl(0xe0, 0xca5eb5e1)\n  dup2\n  mstore\n  sub(shl(0xa0, 0x01), 0x01)\n    /* \"#utility.yul\":743:775   */\n  dup4\n  dup2\n  and\n    /* \"@layerzerolabs/oapp-evm/contracts/oapp/OAppCore.sol\":1163:1194  endpoint.setDelegate(_delegate) */\n  0x04\n  dup4\n  add\n    /* \"#utility.yul\":725:776   */\n  mstore\n    /* \"@layerzerolabs/oapp-evm/contracts/oapp/OAppCore.sol\":1163:1183  endpoint.setDelegate */\n  swap1\n  swap2\n  and\n  swap1\n  0xca5eb5e1\n  swap1\n    /* \"#utility.yul\":698:716   */\n  0x24\n  add\n    /* \"@layerzerolabs/oapp-evm/contracts/oapp/OAppCore.sol\":1163:1194  endpoint.setDelegate(_delegate) */\n  0x00\n  mload(0x40)\n  dup1\n  dup4\n  sub\n  dup2\n  0x00\n  dup8\n  dup1\n  extcodesize\n  iszero\n  dup1\n  iszero\n  tag_18\n  jumpi\n  0x00\n  dup1\n  revert\ntag_18:\n  pop\n  gas\n  call\n  iszero\n  dup1\n  iszero\n  tag_20\n  jumpi\n  returndatasize\n  0x00\n  dup1\n  returndatacopy\n  revert(0x00, returndatasize)\ntag_20:\n  pop\n  pop\n    /* \"@openzeppelin/contracts/security/ReentrancyGuard.sol\":1716:1717  1 */\n  0x01\n    /* \"@openzeppelin/contracts/security/ReentrancyGuard.sol\":1821:1828  _status */\n  0x02\n    /* \"@openzeppelin/contracts/security/ReentrancyGuard.sol\":1821:1843  _status = _NOT_ENTERED */\n  sstore\n  pop\n  pop\n  pop\n  sub(shl(0xa0, 0x01), 0x01)\n    /* \"profile-fees-getter.sol\":2988:3016  usdToken = IERC20(_usdToken) */\n  swap1\n  swap4\n  and\n  0xa0\n  mstore\n  pop\n    /* \"profile-fees-getter.sol\":584:11150  contract LocalOpenWorkV2 is OApp, ReentrancyGuard {... */\n  tag_27\n  swap4\n  pop\n  pop\n  pop\n  pop\n  jump\n    /* \"@openzeppelin/contracts/access/Ownable.sol\":2912:3099  function _transferOwnership(address newOwner) internal virtual {... */\ntag_14:\n    /* \"@openzeppelin/contracts/access/Ownable.sol\":2985:3001  address oldOwner */\n  0x00\n    /* \"@openzeppelin/contracts/access/Ownable.sol\":3004:3010  _owner */\n  dup1\n  sload\n  sub(shl(0xa0, 0x01), 0x01)\n    /* \"@openzeppelin/contracts/access/Ownable.sol\":3020:3037  _owner = newOwner */\n  dup4\n  dup2\n  and\n  not(sub(shl(0xa0, 0x01), 0x01))\n  dup4\n  and\n  dup2\n  or\n  dup5\n  sstore\n    /* \"@openzeppelin/contracts/access/Ownable.sol\":3052:3092  OwnershipTransferred(oldOwner, newOwner) */\n  mload(0x40)\n    /* \"@openzeppelin/contracts/access/Ownable.sol\":3004:3010  _owner */\n  swap2\n  swap1\n  swap3\n  and\n  swap3\n  dup4\n  swap2\n    /* \"@openzeppelin/contracts/access/Ownable.sol\":3052:3092  OwnershipTransferred(oldOwner, newOwner) */\n  0x8be0079c531659141344cd1fd0a4f28419497f9722a3daafe3b4186f6b6457e0\n  swap2\n    /* \"@openzeppelin/contracts/access/Ownable.sol\":2985:3001  address oldOwner */\n  swap1\n    /* \"@openzeppelin/contracts/access/Ownable.sol\":3052:3092  OwnershipTransferred(oldOwner, newOwner) */\n  log3\n    /* \"@openzeppelin/contracts/access/Ownable.sol\":2975:3099  {... */\n  pop\n    /* \"@openzeppelin/contracts/access/Ownable.sol\":2912:3099  function _transferOwnership(address newOwner) internal virtual {... */\n  pop\n  jump\t// out\n    /* \"#utility.yul\":14:191   */\ntag_26:\n    /* \"#utility.yul\":93:106   */\n  dup1\n  mload\n  sub(shl(0xa0, 0x01), 0x01)\n    /* \"#utility.yul\":135:166   */\n  dup2\n  and\n    /* \"#utility.yul\":125:167   */\n  dup2\n  eq\n    /* \"#utility.yul\":115:185   */\n  tag_29\n  jumpi\n    /* \"#utility.yul\":181:182   */\n  0x00\n    /* \"#utility.yul\":178:179   */\n  dup1\n    /* \"#utility.yul\":171:183   */\n  revert\n    /* \"#utility.yul\":115:185   */\ntag_29:\n    /* \"#utility.yul\":14:191   */\n  swap2\n  swap1\n  pop\n  jump\t// out\n    /* \"#utility.yul\":196:574   */\ntag_3:\n    /* \"#utility.yul\":284:290   */\n  0x00\n    /* \"#utility.yul\":292:298   */\n  dup1\n    /* \"#utility.yul\":300:306   */\n  0x00\n    /* \"#utility.yul\":353:355   */\n  0x60\n    /* \"#utility.yul\":341:350   */\n  dup5\n    /* \"#utility.yul\":332:339   */\n  dup7\n    /* \"#utility.yul\":328:351   */\n  sub\n    /* \"#utility.yul\":324:356   */\n  slt\n    /* \"#utility.yul\":321:373   */\n  iszero\n  tag_31\n  jumpi\n    /* \"#utility.yul\":369:370   */\n  0x00\n    /* \"#utility.yul\":366:367   */\n  dup1\n    /* \"#utility.yul\":359:371   */\n  revert\n    /* \"#utility.yul\":321:373   */\ntag_31:\n    /* \"#utility.yul\":392:432   */\n  tag_32\n    /* \"#utility.yul\":422:431   */\n  dup5\n    /* \"#utility.yul\":392:432   */\n  tag_26\n  jump\t// in\ntag_32:\n    /* \"#utility.yul\":382:432   */\n  swap3\n  pop\n    /* \"#utility.yul\":451:500   */\n  tag_33\n    /* \"#utility.yul\":496:498   */\n  0x20\n    /* \"#utility.yul\":485:494   */\n  dup6\n    /* \"#utility.yul\":481:499   */\n  add\n    /* \"#utility.yul\":451:500   */\n  tag_26\n  jump\t// in\ntag_33:\n    /* \"#utility.yul\":441:500   */\n  swap2\n  pop\n    /* \"#utility.yul\":519:568   */\n  tag_34\n    /* \"#utility.yul\":564:566   */\n  0x40\n    /* \"#utility.yul\":553:562   */\n  dup6\n    /* \"#utility.yul\":549:567   */\n  add\n    /* \"#utility.yul\":519:568   */\n  tag_26\n  jump\t// in\ntag_34:\n    /* \"#utility.yul\":509:568   */\n  swap1\n  pop\n    /* \"#utility.yul\":196:574   */\n  swap3\n  pop\n  swap3\n  pop\n  swap3\n  jump\t// out\n    /* \"#utility.yul\":579:782   */\ntag_27:\n    /* \"profile-fees-getter.sol\":584:11150  contract LocalOpenWorkV2 is OApp, ReentrancyGuard {... */\n  mload(0x80)\n  mload(0xa0)\n  codecopy(0x00, dataOffset(sub_0), dataSize(sub_0))\n  0x00\n  assignImmutable(\"0xcdfed618b24ea0dfa197ef820b472c0d8ebadf241f9bdb49f6c3e690683940c5\")\n  0x00\n  assignImmutable(\"0xef80077fd7ee005d1b0377e3e959eb59d0ca83c4839422f862a3540a66a91fb5\")\n  return(0x00, dataSize(sub_0))\nstop\n\nsub_0: assembly {\n        /* \"profile-fees-getter.sol\":584:11150  contract LocalOpenWorkV2 is OApp, ReentrancyGuard {... */\n      mstore(0x40, 0x80)\n      jumpi(tag_1, lt(calldatasize, 0x04))\n      shr(0xe0, calldataload(0x00))\n      dup1\n      0x82413eac\n      gt\n      tag_23\n      jumpi\n      dup1\n      0xca5eb5e1\n      gt\n      tag_24\n      jumpi\n      dup1\n      0xca5eb5e1\n      eq\n      tag_18\n      jumpi\n      dup1\n      0xf2fde38b\n      eq\n      tag_19\n      jumpi\n      dup1\n      0xf897a22b\n      eq\n      tag_20\n      jumpi\n      dup1\n      0xfa49def1\n      eq\n      tag_21\n      jumpi\n      dup1\n      0xff7bd03d\n      eq\n      tag_22\n      jumpi\n      0x00\n      dup1\n      revert\n    tag_24:\n      dup1\n      0x82413eac\n      eq\n      tag_13\n      jumpi\n      dup1\n      0x8da5cb5b\n      eq\n      tag_14\n      jumpi\n      dup1\n      0xad3b1b47\n      eq\n      tag_15\n      jumpi\n      dup1\n      0xbb0b6a53\n      eq\n      tag_16\n      jumpi\n      dup1\n      0xc7533941\n      eq\n      tag_17\n      jumpi\n      0x00\n      dup1\n      revert\n    tag_23:\n      dup1\n      0x58f5228e\n      gt\n      tag_25\n      jumpi\n      dup1\n      0x58f5228e\n      eq\n      tag_8\n      jumpi\n      dup1\n      0x5e280f11\n      eq\n      tag_9\n      jumpi\n      dup1\n      0x64bd90eb\n      eq\n      tag_10\n      jumpi\n      dup1\n      0x715018a6\n      eq\n      tag_11\n      jumpi\n      dup1\n      0x7d25a05e\n      eq\n      tag_12\n      jumpi\n      0x00\n      dup1\n      revert\n    tag_25:\n      dup1\n      0x13137d65\n      eq\n      tag_3\n      jumpi\n      dup1\n      0x17442b70\n      eq\n      tag_4\n      jumpi\n      dup1\n      0x3400288b\n      eq\n      tag_5\n      jumpi\n      dup1\n      0x42dc6299\n      eq\n      tag_6\n      jumpi\n      dup1\n      0x48967a46\n      eq\n      tag_7\n      jumpi\n      0x00\n      dup1\n      revert\n    tag_1:\n      jumpi(tag_2, calldatasize)\n      stop\n    tag_2:\n      0x00\n      dup1\n      revert\n        /* \"@layerzerolabs/oapp-evm/contracts/oapp/OAppReceiver.sol\":4368:5076  function lzReceive(... */\n    tag_3:\n      tag_28\n      tag_29\n      calldatasize\n      0x04\n      tag_30\n      jump\t// in\n    tag_29:\n      tag_31\n      jump\t// in\n    tag_28:\n      stop\n        /* \"@layerzerolabs/oapp-evm/contracts/oapp/OApp.sol\":1287:1522  function oAppVersion()... */\n    tag_4:\n      callvalue\n      dup1\n      iszero\n      tag_32\n      jumpi\n      0x00\n      dup1\n      revert\n    tag_32:\n      pop\n      0x40\n      dup1\n      mload\n        /* \"@layerzerolabs/oapp-evm/contracts/oapp/OAppSender.sol\":843:844  1 */\n      0x01\n        /* \"#utility.yul\":1952:2002   */\n      dup2\n      mstore\n        /* \"@layerzerolabs/oapp-evm/contracts/oapp/OAppReceiver.sol\":678:679  2 */\n      0x02\n        /* \"#utility.yul\":2033:2035   */\n      0x20\n        /* \"#utility.yul\":2018:2036   */\n      dup3\n      add\n        /* \"#utility.yul\":2011:2070   */\n      mstore\n        /* \"#utility.yul\":1925:1943   */\n      add\n        /* \"@layerzerolabs/oapp-evm/contracts/oapp/OApp.sol\":1287:1522  function oAppVersion()... */\n    tag_35:\n      mload(0x40)\n      dup1\n      swap2\n      sub\n      swap1\n      return\n        /* \"@layerzerolabs/oapp-evm/contracts/oapp/OAppCore.sol\":1724:1832  function setPeer(uint32 _eid, bytes32 _peer) public virtual onlyOwner {... */\n    tag_5:\n      callvalue\n      dup1\n      iszero\n      tag_37\n      jumpi\n      0x00\n      dup1\n      revert\n    tag_37:\n      pop\n      tag_28\n      tag_39\n      calldatasize\n      0x04\n      tag_40\n      jump\t// in\n    tag_39:\n      tag_41\n      jump\t// in\n        /* \"profile-fees-getter.sol\":7359:7754  function quoteGetProfile(... */\n    tag_6:\n      callvalue\n      dup1\n      iszero\n      tag_42\n      jumpi\n      0x00\n      dup1\n      revert\n    tag_42:\n      pop\n      tag_43\n      tag_44\n      calldatasize\n      0x04\n      tag_45\n      jump\t// in\n    tag_44:\n      tag_46\n      jump\t// in\n    tag_43:\n      0x40\n      dup1\n      mload\n        /* \"#utility.yul\":3372:3385   */\n      dup3\n      mload\n        /* \"#utility.yul\":3354:3386   */\n      dup2\n      mstore\n        /* \"#utility.yul\":3442:3446   */\n      0x20\n        /* \"#utility.yul\":3430:3447   */\n      swap3\n      dup4\n      add\n        /* \"#utility.yul\":3424:3448   */\n      mload\n        /* \"#utility.yul\":3402:3422   */\n      swap3\n      dup2\n      add\n        /* \"#utility.yul\":3395:3449   */\n      swap3\n      swap1\n      swap3\n      mstore\n        /* \"#utility.yul\":3327:3345   */\n      add\n        /* \"profile-fees-getter.sol\":7359:7754  function quoteGetProfile(... */\n      tag_35\n        /* \"#utility.yul\":3152:3455   */\n      jump\n        /* \"profile-fees-getter.sol\":5407:6567  function getProfileCrossChain(... */\n    tag_7:\n      tag_28\n      tag_50\n      calldatasize\n      0x04\n      tag_45\n      jump\t// in\n    tag_50:\n      tag_51\n      jump\t// in\n        /* \"profile-fees-getter.sol\":10210:10340  function getPendingRequester(bytes32 requestId) external view returns (address) {... */\n    tag_8:\n      callvalue\n      dup1\n      iszero\n      tag_52\n      jumpi\n      0x00\n      dup1\n      revert\n    tag_52:\n      pop\n      tag_53\n      tag_54\n      calldatasize\n      0x04\n      tag_55\n      jump\t// in\n    tag_54:\n        /* \"profile-fees-getter.sol\":10281:10288  address */\n      0x00\n        /* \"profile-fees-getter.sol\":10307:10333  pendingRequests[requestId] */\n      swap1\n      dup2\n      mstore\n        /* \"profile-fees-getter.sol\":10307:10322  pendingRequests */\n      0x03\n        /* \"profile-fees-getter.sol\":10307:10333  pendingRequests[requestId] */\n      0x20\n      mstore\n      0x40\n      swap1\n      keccak256\n      sload\n      sub(shl(0xa0, 0x01), 0x01)\n      and\n      swap1\n        /* \"profile-fees-getter.sol\":10210:10340  function getPendingRequester(bytes32 requestId) external view returns (address) {... */\n      jump\n    tag_53:\n      mload(0x40)\n      sub(shl(0xa0, 0x01), 0x01)\n        /* \"#utility.yul\":3855:3910   */\n      swap1\n      swap2\n      and\n        /* \"#utility.yul\":3837:3911   */\n      dup2\n      mstore\n        /* \"#utility.yul\":3825:3827   */\n      0x20\n        /* \"#utility.yul\":3810:3828   */\n      add\n        /* \"profile-fees-getter.sol\":10210:10340  function getPendingRequester(bytes32 requestId) external view returns (address) {... */\n      tag_35\n        /* \"#utility.yul\":3691:3917   */\n      jump\n        /* \"@layerzerolabs/oapp-evm/contracts/oapp/OAppCore.sol\":446:492  ILayerZeroEndpointV2 public immutable endpoint */\n    tag_9:\n      callvalue\n      dup1\n      iszero\n      tag_59\n      jumpi\n      0x00\n      dup1\n      revert\n    tag_59:\n      pop\n      tag_53\n      immutable(\"0xef80077fd7ee005d1b0377e3e959eb59d0ca83c4839422f862a3540a66a91fb5\")\n      dup2\n      jump\n        /* \"profile-fees-getter.sol\":3652:4927  function createUserProfile(... */\n    tag_10:\n      tag_28\n      tag_65\n      calldatasize\n      0x04\n      tag_66\n      jump\t// in\n    tag_65:\n      tag_67\n      jump\t// in\n        /* \"@openzeppelin/contracts/access/Ownable.sol\":2293:2394  function renounceOwnership() public virtual onlyOwner {... */\n    tag_11:\n      callvalue\n      dup1\n      iszero\n      tag_68\n      jumpi\n      0x00\n      dup1\n      revert\n    tag_68:\n      pop\n      tag_28\n      tag_70\n      jump\t// in\n        /* \"@layerzerolabs/oapp-evm/contracts/oapp/OAppReceiver.sol\":3507:3635  function nextNonce(uint32 /*_srcEid*/, bytes32 /*_sender*/) public view virtual returns (uint64 nonce) {... */\n    tag_12:\n      callvalue\n      dup1\n      iszero\n      tag_71\n      jumpi\n      0x00\n      dup1\n      revert\n    tag_71:\n      pop\n      tag_72\n      tag_73\n      calldatasize\n      0x04\n      tag_40\n      jump\t// in\n    tag_73:\n        /* \"@layerzerolabs/oapp-evm/contracts/oapp/OAppReceiver.sol\":3596:3608  uint64 nonce */\n      0x00\n        /* \"@layerzerolabs/oapp-evm/contracts/oapp/OAppReceiver.sol\":3507:3635  function nextNonce(uint32 /*_srcEid*/, bytes32 /*_sender*/) public view virtual returns (uint64 nonce) {... */\n      swap3\n      swap2\n      pop\n      pop\n      jump\n    tag_72:\n      mload(0x40)\n      sub(shl(0x40, 0x01), 0x01)\n        /* \"#utility.yul\":7489:7520   */\n      swap1\n      swap2\n      and\n        /* \"#utility.yul\":7471:7521   */\n      dup2\n      mstore\n        /* \"#utility.yul\":7459:7461   */\n      0x20\n        /* \"#utility.yul\":7444:7462   */\n      add\n        /* \"@layerzerolabs/oapp-evm/contracts/oapp/OAppReceiver.sol\":3507:3635  function nextNonce(uint32 /*_srcEid*/, bytes32 /*_sender*/) public view virtual returns (uint64 nonce) {... */\n      tag_35\n        /* \"#utility.yul\":7327:7527   */\n      jump\n        /* \"@layerzerolabs/oapp-evm/contracts/oapp/OAppReceiver.sol\":2013:2229  function isComposeMsgSender(... */\n    tag_13:\n      callvalue\n      dup1\n      iszero\n      tag_77\n      jumpi\n      0x00\n      dup1\n      revert\n    tag_77:\n      pop\n      tag_78\n      tag_79\n      calldatasize\n      0x04\n      tag_80\n      jump\t// in\n    tag_79:\n      sub(shl(0xa0, 0x01), 0x01)\n        /* \"@layerzerolabs/oapp-evm/contracts/oapp/OAppReceiver.sol\":2198:2222  _sender == address(this) */\n      dup2\n      and\n        /* \"@layerzerolabs/oapp-evm/contracts/oapp/OAppReceiver.sol\":2217:2221  this */\n      address\n        /* \"@layerzerolabs/oapp-evm/contracts/oapp/OAppReceiver.sol\":2198:2222  _sender == address(this) */\n      eq\n        /* \"@layerzerolabs/oapp-evm/contracts/oapp/OAppReceiver.sol\":2013:2229  function isComposeMsgSender(... */\n      swap5\n      swap4\n      pop\n      pop\n      pop\n      pop\n      jump\n    tag_78:\n      mload(0x40)\n        /* \"#utility.yul\":8370:8384   */\n      swap1\n      iszero\n        /* \"#utility.yul\":8363:8385   */\n      iszero\n        /* \"#utility.yul\":8345:8386   */\n      dup2\n      mstore\n        /* \"#utility.yul\":8333:8335   */\n      0x20\n        /* \"#utility.yul\":8318:8336   */\n      add\n        /* \"@layerzerolabs/oapp-evm/contracts/oapp/OAppReceiver.sol\":2013:2229  function isComposeMsgSender(... */\n      tag_35\n        /* \"#utility.yul\":8205:8392   */\n      jump\n        /* \"@openzeppelin/contracts/access/Ownable.sol\":1638:1723  function owner() public view virtual returns (address) {... */\n    tag_14:\n      callvalue\n      dup1\n      iszero\n      tag_84\n      jumpi\n      0x00\n      dup1\n      revert\n    tag_84:\n      pop\n        /* \"@openzeppelin/contracts/access/Ownable.sol\":1684:1691  address */\n      0x00\n        /* \"@openzeppelin/contracts/access/Ownable.sol\":1710:1716  _owner */\n      sload\n      sub(shl(0xa0, 0x01), 0x01)\n      and\n        /* \"@openzeppelin/contracts/access/Ownable.sol\":1638:1723  function owner() public view virtual returns (address) {... */\n      jump(tag_53)\n        /* \"profile-fees-getter.sol\":8015:8198  function withdrawFees(address to, uint256 amount) external onlyOwner {... */\n    tag_15:\n      callvalue\n      dup1\n      iszero\n      tag_88\n      jumpi\n      0x00\n      dup1\n      revert\n    tag_88:\n      pop\n      tag_28\n      tag_90\n      calldatasize\n      0x04\n      tag_91\n      jump\t// in\n    tag_90:\n      tag_92\n      jump\t// in\n        /* \"@layerzerolabs/oapp-evm/contracts/oapp/OAppCore.sol\":569:617  mapping(uint32 eid => bytes32 peer) public peers */\n    tag_16:\n      callvalue\n      dup1\n      iszero\n      tag_93\n      jumpi\n      0x00\n      dup1\n      revert\n    tag_93:\n      pop\n      tag_94\n      tag_95\n      calldatasize\n      0x04\n      tag_96\n      jump\t// in\n    tag_95:\n      mstore(0x20, 0x01)\n      0x00\n      swap1\n      dup2\n      mstore\n      0x40\n      swap1\n      keccak256\n      sload\n      dup2\n      jump\n    tag_94:\n      mload(0x40)\n        /* \"#utility.yul\":9104:9129   */\n      swap1\n      dup2\n      mstore\n        /* \"#utility.yul\":9092:9094   */\n      0x20\n        /* \"#utility.yul\":9077:9095   */\n      add\n        /* \"@layerzerolabs/oapp-evm/contracts/oapp/OAppCore.sol\":569:617  mapping(uint32 eid => bytes32 peer) public peers */\n      tag_35\n        /* \"#utility.yul\":8958:9135   */\n      jump\n        /* \"profile-fees-getter.sol\":6828:7353  function quoteCreateUserProfile(... */\n    tag_17:\n      callvalue\n      dup1\n      iszero\n      tag_100\n      jumpi\n      0x00\n      dup1\n      revert\n    tag_100:\n      pop\n      tag_43\n      tag_102\n      calldatasize\n      0x04\n      tag_66\n      jump\t// in\n    tag_102:\n      tag_103\n      jump\t// in\n        /* \"@layerzerolabs/oapp-evm/contracts/oapp/OAppCore.sol\":3252:3357  function setDelegate(address _delegate) public onlyOwner {... */\n    tag_18:\n      callvalue\n      dup1\n      iszero\n      tag_105\n      jumpi\n      0x00\n      dup1\n      revert\n    tag_105:\n      pop\n      tag_28\n      tag_107\n      calldatasize\n      0x04\n      tag_108\n      jump\t// in\n    tag_107:\n      tag_109\n      jump\t// in\n        /* \"@openzeppelin/contracts/access/Ownable.sol\":2543:2758  function transferOwnership(address newOwner) public virtual onlyOwner {... */\n    tag_19:\n      callvalue\n      dup1\n      iszero\n      tag_110\n      jumpi\n      0x00\n      dup1\n      revert\n    tag_110:\n      pop\n      tag_28\n      tag_112\n      calldatasize\n      0x04\n      tag_108\n      jump\t// in\n    tag_112:\n      tag_113\n      jump\t// in\n        /* \"profile-fees-getter.sol\":1330:1362  IERC20 public immutable usdToken */\n    tag_20:\n      callvalue\n      dup1\n      iszero\n      tag_114\n      jumpi\n      0x00\n      dup1\n      revert\n    tag_114:\n      pop\n      tag_53\n      immutable(\"0xcdfed618b24ea0dfa197ef820b472c0d8ebadf241f9bdb49f6c3e690683940c5\")\n      dup2\n      jump\n        /* \"profile-fees-getter.sol\":10346:10858  function getCachedProfile(uint256 profileId) external view returns (... */\n    tag_21:\n      callvalue\n      dup1\n      iszero\n      tag_119\n      jumpi\n      0x00\n      dup1\n      revert\n    tag_119:\n      pop\n      tag_120\n      tag_121\n      calldatasize\n      0x04\n      tag_55\n      jump\t// in\n    tag_121:\n      tag_123\n      jump\t// in\n    tag_120:\n      mload(0x40)\n      tag_35\n      swap7\n      swap6\n      swap5\n      swap4\n      swap3\n      swap2\n      swap1\n      tag_125\n      jump\t// in\n        /* \"@layerzerolabs/oapp-evm/contracts/oapp/OAppReceiver.sol\":2771:2920  function allowInitializePath(Origin calldata origin) public view virtual returns (bool) {... */\n    tag_22:\n      callvalue\n      dup1\n      iszero\n      tag_126\n      jumpi\n      0x00\n      dup1\n      revert\n    tag_126:\n      pop\n      tag_78\n      tag_128\n      calldatasize\n      0x04\n      tag_129\n      jump\t// in\n    tag_128:\n      tag_130\n      jump\t// in\n        /* \"@layerzerolabs/oapp-evm/contracts/oapp/OAppReceiver.sol\":4368:5076  function lzReceive(... */\n    tag_31:\n        /* \"@layerzerolabs/oapp-evm/contracts/oapp/OAppReceiver.sol\":4681:4689  endpoint */\n      immutable(\"0xef80077fd7ee005d1b0377e3e959eb59d0ca83c4839422f862a3540a66a91fb5\")\n      sub(shl(0xa0, 0x01), 0x01)\n        /* \"@layerzerolabs/oapp-evm/contracts/oapp/OAppReceiver.sol\":4673:4704  address(endpoint) != msg.sender */\n      and\n        /* \"@layerzerolabs/oapp-evm/contracts/oapp/OAppReceiver.sol\":4694:4704  msg.sender */\n      caller\n        /* \"@layerzerolabs/oapp-evm/contracts/oapp/OAppReceiver.sol\":4673:4704  address(endpoint) != msg.sender */\n      eq\n        /* \"@layerzerolabs/oapp-evm/contracts/oapp/OAppReceiver.sol\":4669:4737  if (address(endpoint) != msg.sender) revert OnlyEndpoint(msg.sender) */\n      tag_133\n      jumpi\n        /* \"@layerzerolabs/oapp-evm/contracts/oapp/OAppReceiver.sol\":4713:4737  OnlyEndpoint(msg.sender) */\n      mload(0x40)\n      shl(0xe0, 0x91ac5e4f)\n      dup2\n      mstore\n        /* \"@layerzerolabs/oapp-evm/contracts/oapp/OAppReceiver.sol\":4726:4736  msg.sender */\n      caller\n        /* \"@layerzerolabs/oapp-evm/contracts/oapp/OAppReceiver.sol\":4713:4737  OnlyEndpoint(msg.sender) */\n      0x04\n      dup3\n      add\n        /* \"#utility.yul\":3837:3911   */\n      mstore\n        /* \"#utility.yul\":3810:3828   */\n      0x24\n      add\n        /* \"@layerzerolabs/oapp-evm/contracts/oapp/OAppReceiver.sol\":4713:4737  OnlyEndpoint(msg.sender) */\n    tag_134:\n      mload(0x40)\n      dup1\n      swap2\n      sub\n      swap1\n      revert\n        /* \"@layerzerolabs/oapp-evm/contracts/oapp/OAppReceiver.sol\":4669:4737  if (address(endpoint) != msg.sender) revert OnlyEndpoint(msg.sender) */\n    tag_133:\n        /* \"@layerzerolabs/oapp-evm/contracts/oapp/OAppReceiver.sol\":4873:4887  _origin.sender */\n      0x20\n      dup8\n      add\n      dup1\n      calldataload\n      swap1\n        /* \"@layerzerolabs/oapp-evm/contracts/oapp/OAppReceiver.sol\":4837:4869  _getPeerOrRevert(_origin.srcEid) */\n      tag_135\n      swap1\n        /* \"@layerzerolabs/oapp-evm/contracts/oapp/OAppReceiver.sol\":4854:4868  _origin.srcEid */\n      tag_136\n      swap1\n        /* \"@layerzerolabs/oapp-evm/contracts/oapp/OAppReceiver.sol\":4873:4880  _origin */\n      dup11\n        /* \"@layerzerolabs/oapp-evm/contracts/oapp/OAppReceiver.sol\":4854:4868  _origin.srcEid */\n      tag_96\n      jump\t// in\n    tag_136:\n        /* \"@layerzerolabs/oapp-evm/contracts/oapp/OAppReceiver.sol\":4837:4853  _getPeerOrRevert */\n      tag_137\n        /* \"@layerzerolabs/oapp-evm/contracts/oapp/OAppReceiver.sol\":4837:4869  _getPeerOrRevert(_origin.srcEid) */\n      jump\t// in\n    tag_135:\n        /* \"@layerzerolabs/oapp-evm/contracts/oapp/OAppReceiver.sol\":4837:4887  _getPeerOrRevert(_origin.srcEid) != _origin.sender */\n      eq\n        /* \"@layerzerolabs/oapp-evm/contracts/oapp/OAppReceiver.sol\":4833:4936  if (_getPeerOrRevert(_origin.srcEid) != _origin.sender) revert OnlyPeer(_origin.srcEid, _origin.sender) */\n      tag_138\n      jumpi\n        /* \"@layerzerolabs/oapp-evm/contracts/oapp/OAppReceiver.sol\":4905:4919  _origin.srcEid */\n      tag_139\n      0x20\n      dup9\n      add\n        /* \"@layerzerolabs/oapp-evm/contracts/oapp/OAppReceiver.sol\":4905:4912  _origin */\n      dup9\n        /* \"@layerzerolabs/oapp-evm/contracts/oapp/OAppReceiver.sol\":4905:4919  _origin.srcEid */\n      tag_96\n      jump\t// in\n    tag_139:\n        /* \"@layerzerolabs/oapp-evm/contracts/oapp/OAppReceiver.sol\":4896:4936  OnlyPeer(_origin.srcEid, _origin.sender) */\n      mload(0x40)\n      shl(0xe2, 0x309afaf3)\n      dup2\n      mstore\n        /* \"#utility.yul\":12186:12196   */\n      0xffffffff\n        /* \"#utility.yul\":12174:12197   */\n      swap1\n      swap2\n      and\n        /* \"@layerzerolabs/oapp-evm/contracts/oapp/OAppReceiver.sol\":4896:4936  OnlyPeer(_origin.srcEid, _origin.sender) */\n      0x04\n      dup3\n      add\n        /* \"#utility.yul\":12156:12198   */\n      mstore\n        /* \"@layerzerolabs/oapp-evm/contracts/oapp/OAppReceiver.sol\":4921:4935  _origin.sender */\n      0x20\n      dup9\n      add\n      calldataload\n        /* \"#utility.yul\":12214:12232   */\n      0x24\n      dup3\n      add\n        /* \"#utility.yul\":12207:12241   */\n      mstore\n        /* \"#utility.yul\":12129:12147   */\n      0x44\n      add\n        /* \"@layerzerolabs/oapp-evm/contracts/oapp/OAppReceiver.sol\":4896:4936  OnlyPeer(_origin.srcEid, _origin.sender) */\n      tag_134\n        /* \"#utility.yul\":11984:12247   */\n      jump\n        /* \"@layerzerolabs/oapp-evm/contracts/oapp/OAppReceiver.sol\":4833:4936  if (_getPeerOrRevert(_origin.srcEid) != _origin.sender) revert OnlyPeer(_origin.srcEid, _origin.sender) */\n    tag_138:\n        /* \"@layerzerolabs/oapp-evm/contracts/oapp/OAppReceiver.sol\":5010:5069  _lzReceive(_origin, _guid, _message, _executor, _extraData) */\n      tag_142\n        /* \"@layerzerolabs/oapp-evm/contracts/oapp/OAppReceiver.sol\":5021:5028  _origin */\n      dup8\n        /* \"@layerzerolabs/oapp-evm/contracts/oapp/OAppReceiver.sol\":5030:5035  _guid */\n      dup8\n        /* \"@layerzerolabs/oapp-evm/contracts/oapp/OAppReceiver.sol\":5037:5045  _message */\n      dup8\n      dup8\n        /* \"@layerzerolabs/oapp-evm/contracts/oapp/OAppReceiver.sol\":5047:5056  _executor */\n      dup8\n        /* \"@layerzerolabs/oapp-evm/contracts/oapp/OAppReceiver.sol\":5058:5068  _extraData */\n      dup8\n      dup8\n        /* \"@layerzerolabs/oapp-evm/contracts/oapp/OAppReceiver.sol\":5010:5020  _lzReceive */\n      tag_143\n        /* \"@layerzerolabs/oapp-evm/contracts/oapp/OAppReceiver.sol\":5010:5069  _lzReceive(_origin, _guid, _message, _executor, _extraData) */\n      jump\t// in\n    tag_142:\n        /* \"@layerzerolabs/oapp-evm/contracts/oapp/OAppReceiver.sol\":4368:5076  function lzReceive(... */\n      pop\n      pop\n      pop\n      pop\n      pop\n      pop\n      pop\n      jump\t// out\n        /* \"@layerzerolabs/oapp-evm/contracts/oapp/OAppCore.sol\":1724:1832  function setPeer(uint32 _eid, bytes32 _peer) public virtual onlyOwner {... */\n    tag_41:\n        /* \"@openzeppelin/contracts/access/Ownable.sol\":1531:1544  _checkOwner() */\n      tag_146\n        /* \"@openzeppelin/contracts/access/Ownable.sol\":1531:1542  _checkOwner */\n      tag_147\n        /* \"@openzeppelin/contracts/access/Ownable.sol\":1531:1544  _checkOwner() */\n      jump\t// in\n    tag_146:\n        /* \"@layerzerolabs/oapp-evm/contracts/oapp/OAppCore.sol\":1804:1825  _setPeer(_eid, _peer) */\n      tag_149\n        /* \"@layerzerolabs/oapp-evm/contracts/oapp/OAppCore.sol\":1813:1817  _eid */\n      dup3\n        /* \"@layerzerolabs/oapp-evm/contracts/oapp/OAppCore.sol\":1819:1824  _peer */\n      dup3\n        /* \"@layerzerolabs/oapp-evm/contracts/oapp/OAppCore.sol\":1804:1812  _setPeer */\n      tag_150\n        /* \"@layerzerolabs/oapp-evm/contracts/oapp/OAppCore.sol\":1804:1825  _setPeer(_eid, _peer) */\n      jump\t// in\n    tag_149:\n        /* \"@layerzerolabs/oapp-evm/contracts/oapp/OAppCore.sol\":1724:1832  function setPeer(uint32 _eid, bytes32 _peer) public virtual onlyOwner {... */\n      pop\n      pop\n      jump\t// out\n        /* \"profile-fees-getter.sol\":7359:7754  function quoteGetProfile(... */\n    tag_46:\n      0x40\n      dup1\n      mload\n      dup1\n      dup3\n      add\n      swap1\n      swap2\n      mstore\n      0x00\n      dup1\n      dup3\n      mstore\n      0x20\n      dup3\n      add\n      mstore\n        /* \"profile-fees-getter.sol\":7551:7689  abi.encode(... */\n      0x40\n      dup1\n      mload\n        /* \"profile-fees-getter.sol\":1005:1006  2 */\n      0x02\n        /* \"profile-fees-getter.sol\":7551:7689  abi.encode(... */\n      0x20\n      dup3\n      add\n        /* \"#utility.yul\":12450:12486   */\n      mstore\n        /* \"profile-fees-getter.sol\":7528:7548  bytes memory payload */\n      0x00\n        /* \"#utility.yul\":12502:12520   */\n      swap2\n      dup2\n      add\n        /* \"#utility.yul\":12495:12529   */\n      dup3\n      swap1\n      mstore\n        /* \"#utility.yul\":12545:12563   */\n      0x60\n      dup2\n      add\n        /* \"#utility.yul\":12538:12572   */\n      dup7\n      swap1\n      mstore\n        /* \"#utility.yul\":12423:12441   */\n      0x80\n      add\n        /* \"profile-fees-getter.sol\":7551:7689  abi.encode(... */\n      0x40\n      dup1\n      mload\n      not(0x1f)\n      dup2\n      dup5\n      sub\n      add\n      dup2\n      mstore\n      0x20\n        /* \"profile-fees-getter.sol\":7706:7747  _quote(_dstEid, payload, _options, false) */\n      0x1f\n      dup8\n      add\n      dup2\n      swap1\n      div\n      dup2\n      mul\n      dup5\n      add\n      dup2\n      add\n      swap1\n      swap3\n      mstore\n      dup6\n      dup4\n      mstore\n        /* \"profile-fees-getter.sol\":7551:7689  abi.encode(... */\n      swap3\n      pop\n        /* \"profile-fees-getter.sol\":7706:7747  _quote(_dstEid, payload, _options, false) */\n      tag_156\n      swap2\n        /* \"profile-fees-getter.sol\":7713:7720  _dstEid */\n      dup9\n      swap2\n        /* \"profile-fees-getter.sol\":7551:7689  abi.encode(... */\n      dup5\n      swap2\n      swap1\n        /* \"profile-fees-getter.sol\":7731:7739  _options */\n      dup9\n      swap1\n      dup9\n      swap1\n      dup2\n      swap1\n        /* \"profile-fees-getter.sol\":7706:7747  _quote(_dstEid, payload, _options, false) */\n      dup5\n      add\n        /* \"profile-fees-getter.sol\":7731:7739  _options */\n      dup4\n      dup3\n      dup1\n      dup3\n        /* \"profile-fees-getter.sol\":7706:7747  _quote(_dstEid, payload, _options, false) */\n      dup5\n      calldatacopy\n      0x00\n      swap3\n      add\n      dup3\n      swap1\n      mstore\n      pop\n      swap3\n      pop\n        /* \"profile-fees-getter.sol\":7706:7712  _quote */\n      tag_157\n      swap2\n      pop\n      pop\n        /* \"profile-fees-getter.sol\":7706:7747  _quote(_dstEid, payload, _options, false) */\n      jump\t// in\n    tag_156:\n        /* \"profile-fees-getter.sol\":7699:7747  return _quote(_dstEid, payload, _options, false) */\n      swap7\n        /* \"profile-fees-getter.sol\":7359:7754  function quoteGetProfile(... */\n      swap6\n      pop\n      pop\n      pop\n      pop\n      pop\n      pop\n      jump\t// out\n        /* \"profile-fees-getter.sol\":5407:6567  function getProfileCrossChain(... */\n    tag_51:\n        /* \"@openzeppelin/contracts/security/ReentrancyGuard.sol\":2261:2282  _nonReentrantBefore() */\n      tag_159\n        /* \"@openzeppelin/contracts/security/ReentrancyGuard.sol\":2261:2280  _nonReentrantBefore */\n      tag_160\n        /* \"@openzeppelin/contracts/security/ReentrancyGuard.sol\":2261:2282  _nonReentrantBefore() */\n      jump\t// in\n    tag_159:\n        /* \"profile-fees-getter.sol\":5587:5588  0 */\n      0x00\n        /* \"profile-fees-getter.sol\":5575:5584  profileId */\n      dup4\n        /* \"profile-fees-getter.sol\":5575:5588  profileId > 0 */\n      gt\n        /* \"profile-fees-getter.sol\":5567:5611  require(profileId > 0, \"Invalid profile ID\") */\n      tag_162\n      jumpi\n      mload(0x40)\n      shl(0xe5, 0x461bcd)\n      dup2\n      mstore\n        /* \"#utility.yul\":12785:12787   */\n      0x20\n        /* \"profile-fees-getter.sol\":5567:5611  require(profileId > 0, \"Invalid profile ID\") */\n      0x04\n      dup3\n      add\n        /* \"#utility.yul\":12767:12788   */\n      mstore\n        /* \"#utility.yul\":12824:12826   */\n      0x12\n        /* \"#utility.yul\":12804:12822   */\n      0x24\n      dup3\n      add\n        /* \"#utility.yul\":12797:12827   */\n      mstore\n      shl(0x72, 0x125b9d985b1a59081c1c9bd99a5b19481251)\n        /* \"#utility.yul\":12843:12861   */\n      0x44\n      dup3\n      add\n        /* \"#utility.yul\":12836:12884   */\n      mstore\n        /* \"#utility.yul\":12901:12919   */\n      0x64\n      add\n        /* \"profile-fees-getter.sol\":5567:5611  require(profileId > 0, \"Invalid profile ID\") */\n      tag_134\n        /* \"#utility.yul\":12583:12925   */\n      jump\n        /* \"profile-fees-getter.sol\":5567:5611  require(profileId > 0, \"Invalid profile ID\") */\n    tag_162:\n        /* \"profile-fees-getter.sol\":5769:5781  requestNonce */\n      0x04\n        /* \"profile-fees-getter.sol\":5769:5783  requestNonce++ */\n      dup1\n      sload\n        /* \"profile-fees-getter.sol\":5660:5677  bytes32 requestId */\n      0x00\n      swap2\n        /* \"profile-fees-getter.sol\":5720:5730  msg.sender */\n      caller\n      swap2\n        /* \"profile-fees-getter.sol\":5745:5754  profileId */\n      dup7\n      swap2\n        /* \"profile-fees-getter.sol\":5660:5677  bytes32 requestId */\n      dup5\n        /* \"profile-fees-getter.sol\":5769:5783  requestNonce++ */\n      tag_165\n      dup4\n      tag_166\n      jump\t// in\n    tag_165:\n      swap1\n      swap2\n      sstore\n      pop\n        /* \"profile-fees-getter.sol\":5690:5823  abi.encodePacked(... */\n      mload(0x40)\n        /* \"#utility.yul\":13400:13402   */\n      0x60\n        /* \"#utility.yul\":13396:13411   */\n      swap4\n      swap1\n      swap4\n      shl\n      not(0xffffffffffffffffffffffff)\n        /* \"#utility.yul\":13392:13445   */\n      and\n        /* \"profile-fees-getter.sol\":5690:5823  abi.encodePacked(... */\n      0x20\n      dup5\n      add\n        /* \"#utility.yul\":13380:13446   */\n      mstore\n        /* \"#utility.yul\":13462:13474   */\n      0x34\n      dup4\n      add\n        /* \"#utility.yul\":13455:13483   */\n      swap2\n      swap1\n      swap2\n      mstore\n        /* \"#utility.yul\":13499:13511   */\n      0x54\n      dup3\n      add\n        /* \"#utility.yul\":13492:13520   */\n      mstore\n        /* \"profile-fees-getter.sol\":5798:5813  block.timestamp */\n      timestamp\n        /* \"#utility.yul\":13536:13548   */\n      0x74\n      dup3\n      add\n        /* \"#utility.yul\":13529:13557   */\n      mstore\n        /* \"#utility.yul\":13573:13586   */\n      0x94\n      add\n        /* \"profile-fees-getter.sol\":5690:5823  abi.encodePacked(... */\n      0x40\n      dup1\n      mload\n      not(0x1f)\n      dup2\n      dup5\n      sub\n      add\n      dup2\n      mstore\n      dup3\n      dup3\n      mstore\n        /* \"profile-fees-getter.sol\":5680:5824  keccak256(abi.encodePacked(... */\n      dup1\n      mload\n        /* \"profile-fees-getter.sol\":5690:5823  abi.encodePacked(... */\n      0x20\n        /* \"profile-fees-getter.sol\":5680:5824  keccak256(abi.encodePacked(... */\n      swap2\n      dup3\n      add\n      keccak256\n        /* \"profile-fees-getter.sol\":5874:5900  pendingRequests[requestId] */\n      0x00\n      dup2\n      dup2\n      mstore\n        /* \"profile-fees-getter.sol\":5874:5889  pendingRequests */\n      0x03\n        /* \"profile-fees-getter.sol\":5874:5900  pendingRequests[requestId] */\n      dup4\n      mstore\n      dup4\n      dup2\n      keccak256\n        /* \"profile-fees-getter.sol\":5874:5913  pendingRequests[requestId] = msg.sender */\n      dup1\n      sload\n      not(sub(shl(0xa0, 0x01), 0x01))\n      and\n        /* \"profile-fees-getter.sol\":5903:5913  msg.sender */\n      caller\n        /* \"profile-fees-getter.sol\":5874:5913  pendingRequests[requestId] = msg.sender */\n      or\n      swap1\n      sstore\n        /* \"profile-fees-getter.sol\":1005:1006  2 */\n      0x02\n        /* \"profile-fees-getter.sol\":5999:6107  abi.encode(... */\n      swap3\n      dup6\n      add\n        /* \"#utility.yul\":12450:12486   */\n      swap3\n      swap1\n      swap3\n      mstore\n        /* \"#utility.yul\":12502:12520   */\n      swap2\n      dup4\n      add\n        /* \"#utility.yul\":12495:12529   */\n      dup3\n      swap1\n      mstore\n        /* \"#utility.yul\":12545:12563   */\n      0x60\n      dup4\n      add\n        /* \"#utility.yul\":12538:12572   */\n      dup8\n      swap1\n      mstore\n        /* \"profile-fees-getter.sol\":5680:5824  keccak256(abi.encodePacked(... */\n      swap1\n      swap3\n      pop\n        /* \"profile-fees-getter.sol\":5874:5900  pendingRequests[requestId] */\n      swap1\n        /* \"#utility.yul\":12423:12441   */\n      0x80\n      add\n        /* \"profile-fees-getter.sol\":5999:6107  abi.encode(... */\n      0x40\n      dup1\n      mload\n      not(0x1f)\n      dup2\n      dup5\n      sub\n      add\n      dup2\n      mstore\n      0x20\n        /* \"profile-fees-getter.sol\":6212:6253  _quote(_dstEid, payload, _options, false) */\n      0x1f\n      dup8\n      add\n      dup2\n      swap1\n      div\n      dup2\n      mul\n      dup5\n      add\n      dup2\n      add\n      swap1\n      swap3\n      mstore\n      dup6\n      dup4\n      mstore\n        /* \"profile-fees-getter.sol\":5999:6107  abi.encode(... */\n      swap3\n      pop\n        /* \"profile-fees-getter.sol\":6186:6209  MessagingFee memory fee */\n      0x00\n      swap2\n        /* \"profile-fees-getter.sol\":6212:6253  _quote(_dstEid, payload, _options, false) */\n      tag_170\n      swap2\n        /* \"profile-fees-getter.sol\":6219:6226  _dstEid */\n      dup10\n      swap2\n        /* \"profile-fees-getter.sol\":5999:6107  abi.encode(... */\n      dup6\n      swap2\n        /* \"profile-fees-getter.sol\":6237:6245  _options */\n      dup10\n      swap1\n      dup10\n      swap1\n      dup2\n      swap1\n        /* \"profile-fees-getter.sol\":6212:6253  _quote(_dstEid, payload, _options, false) */\n      dup5\n      add\n        /* \"profile-fees-getter.sol\":6237:6245  _options */\n      dup4\n      dup3\n      dup1\n      dup3\n        /* \"profile-fees-getter.sol\":6212:6253  _quote(_dstEid, payload, _options, false) */\n      dup5\n      calldatacopy\n      0x00\n      swap3\n      add\n      dup3\n      swap1\n      mstore\n      pop\n      swap3\n      pop\n        /* \"profile-fees-getter.sol\":6212:6218  _quote */\n      tag_157\n      swap2\n      pop\n      pop\n        /* \"profile-fees-getter.sol\":6212:6253  _quote(_dstEid, payload, _options, false) */\n      jump\t// in\n    tag_170:\n        /* \"profile-fees-getter.sol\":6284:6297  fee.nativeFee */\n      dup1\n      mload\n        /* \"profile-fees-getter.sol\":6186:6253  MessagingFee memory fee = _quote(_dstEid, payload, _options, false) */\n      swap1\n      swap2\n      pop\n        /* \"profile-fees-getter.sol\":6271:6280  msg.value */\n      callvalue\n        /* \"profile-fees-getter.sol\":6271:6297  msg.value >= fee.nativeFee */\n      lt\n      iszero\n        /* \"profile-fees-getter.sol\":6263:6320  require(msg.value >= fee.nativeFee, \"Native fee too low\") */\n      tag_171\n      jumpi\n      mload(0x40)\n      shl(0xe5, 0x461bcd)\n      dup2\n      mstore\n        /* \"#utility.yul\":13799:13801   */\n      0x20\n        /* \"profile-fees-getter.sol\":6263:6320  require(msg.value >= fee.nativeFee, \"Native fee too low\") */\n      0x04\n      dup3\n      add\n        /* \"#utility.yul\":13781:13802   */\n      mstore\n        /* \"#utility.yul\":13838:13840   */\n      0x12\n        /* \"#utility.yul\":13818:13836   */\n      0x24\n      dup3\n      add\n        /* \"#utility.yul\":13811:13841   */\n      mstore\n      shl(0x70, 0x4e61746976652066656520746f6f206c6f77)\n        /* \"#utility.yul\":13857:13875   */\n      0x44\n      dup3\n      add\n        /* \"#utility.yul\":13850:13898   */\n      mstore\n        /* \"#utility.yul\":13915:13933   */\n      0x64\n      add\n        /* \"profile-fees-getter.sol\":6263:6320  require(msg.value >= fee.nativeFee, \"Native fee too low\") */\n      tag_134\n        /* \"#utility.yul\":13597:13939   */\n      jump\n        /* \"profile-fees-getter.sol\":6263:6320  require(msg.value >= fee.nativeFee, \"Native fee too low\") */\n    tag_171:\n        /* \"profile-fees-getter.sol\":6331:6485  _lzSend(... */\n      tag_174\n        /* \"profile-fees-getter.sol\":6352:6359  _dstEid */\n      dup8\n        /* \"profile-fees-getter.sol\":6373:6380  payload */\n      dup4\n        /* \"profile-fees-getter.sol\":6394:6402  _options */\n      dup8\n      dup8\n        /* \"profile-fees-getter.sol\":6331:6485  _lzSend(... */\n      dup1\n      dup1\n      0x1f\n      add\n      0x20\n      dup1\n      swap2\n      div\n      mul\n      0x20\n      add\n      mload(0x40)\n      swap1\n      dup2\n      add\n      0x40\n      mstore\n      dup1\n      swap4\n      swap3\n      swap2\n      swap1\n      dup2\n      dup2\n      mstore\n      0x20\n      add\n      dup4\n      dup4\n      dup1\n      dup3\n      dup5\n      calldatacopy\n      0x00\n      swap3\n      add\n      dup3\n      swap1\n      mstore\n      pop\n        /* \"profile-fees-getter.sol\":6416:6442  MessagingFee(msg.value, 0) */\n      0x40\n      dup1\n      mload\n      dup1\n      dup3\n      add\n      swap1\n      swap2\n      mstore\n        /* \"profile-fees-getter.sol\":6429:6438  msg.value */\n      callvalue\n        /* \"profile-fees-getter.sol\":6416:6442  MessagingFee(msg.value, 0) */\n      dup2\n      mstore\n      0x20\n      dup2\n      add\n      swap2\n      swap1\n      swap2\n      mstore\n      swap3\n      pop\n        /* \"profile-fees-getter.sol\":6464:6474  msg.sender */\n      caller\n      swap2\n      pop\n        /* \"profile-fees-getter.sol\":6331:6338  _lzSend */\n      tag_175\n      swap1\n      pop\n        /* \"profile-fees-getter.sol\":6331:6485  _lzSend(... */\n      jump\t// in\n    tag_174:\n      pop\n        /* \"profile-fees-getter.sol\":6501:6560  ProfileRequested(_dstEid, msg.sender, profileId, requestId) */\n      0x40\n      dup1\n      mload\n        /* \"#utility.yul\":14118:14143   */\n      dup8\n      dup2\n      mstore\n        /* \"#utility.yul\":14174:14176   */\n      0x20\n        /* \"#utility.yul\":14159:14177   */\n      dup2\n      add\n        /* \"#utility.yul\":14152:14186   */\n      dup6\n      swap1\n      mstore\n        /* \"profile-fees-getter.sol\":6527:6537  msg.sender */\n      caller\n      swap2\n        /* \"profile-fees-getter.sol\":6501:6560  ProfileRequested(_dstEid, msg.sender, profileId, requestId) */\n      0xffffffff\n      dup11\n      and\n      swap2\n      0x5e1493a519d6454fac2755f647ffdd3c0e4aeaff4d90e08bb2bacb37604244b3\n      swap2\n        /* \"#utility.yul\":14091:14109   */\n      add\n        /* \"profile-fees-getter.sol\":6501:6560  ProfileRequested(_dstEid, msg.sender, profileId, requestId) */\n      mload(0x40)\n      dup1\n      swap2\n      sub\n      swap1\n      log3\n        /* \"profile-fees-getter.sol\":5557:6567  {... */\n      pop\n      pop\n      pop\n        /* \"@openzeppelin/contracts/security/ReentrancyGuard.sol\":2303:2323  _nonReentrantAfter() */\n      tag_178\n        /* \"@openzeppelin/contracts/security/ReentrancyGuard.sol\":1716:1717  1 */\n      0x01\n        /* \"@openzeppelin/contracts/security/ReentrancyGuard.sol\":2809:2816  _status */\n      0x02\n        /* \"@openzeppelin/contracts/security/ReentrancyGuard.sol\":2809:2831  _status = _NOT_ENTERED */\n      sstore\n        /* \"@openzeppelin/contracts/security/ReentrancyGuard.sol\":2629:2838  function _nonReentrantAfter() private {... */\n      jump\n        /* \"@openzeppelin/contracts/security/ReentrancyGuard.sol\":2303:2323  _nonReentrantAfter() */\n    tag_178:\n        /* \"profile-fees-getter.sol\":5407:6567  function getProfileCrossChain(... */\n      pop\n      pop\n      pop\n      pop\n      jump\t// out\n        /* \"profile-fees-getter.sol\":3652:4927  function createUserProfile(... */\n    tag_67:\n        /* \"@openzeppelin/contracts/security/ReentrancyGuard.sol\":2261:2282  _nonReentrantBefore() */\n      tag_182\n        /* \"@openzeppelin/contracts/security/ReentrancyGuard.sol\":2261:2280  _nonReentrantBefore */\n      tag_160\n        /* \"@openzeppelin/contracts/security/ReentrancyGuard.sol\":2261:2282  _nonReentrantBefore() */\n      jump\t// in\n    tag_182:\n        /* \"profile-fees-getter.sol\":3931:3932  0 */\n      0x00\n        /* \"profile-fees-getter.sol\":3916:3920  name */\n      dup7\n        /* \"profile-fees-getter.sol\":3910:3928  bytes(name).length */\n      mload\n        /* \"profile-fees-getter.sol\":3910:3932  bytes(name).length > 0 */\n      gt\n        /* \"profile-fees-getter.sol\":3902:3947  require(bytes(name).length > 0, \"Name empty\") */\n      tag_184\n      jumpi\n      mload(0x40)\n      shl(0xe5, 0x461bcd)\n      dup2\n      mstore\n        /* \"#utility.yul\":14399:14401   */\n      0x20\n        /* \"profile-fees-getter.sol\":3902:3947  require(bytes(name).length > 0, \"Name empty\") */\n      0x04\n      dup3\n      add\n        /* \"#utility.yul\":14381:14402   */\n      mstore\n        /* \"#utility.yul\":14438:14440   */\n      0x0a\n        /* \"#utility.yul\":14418:14436   */\n      0x24\n      dup3\n      add\n        /* \"#utility.yul\":14411:14441   */\n      mstore\n      shl(0xb0, 0x4e616d6520656d707479)\n        /* \"#utility.yul\":14457:14475   */\n      0x44\n      dup3\n      add\n        /* \"#utility.yul\":14450:14490   */\n      mstore\n        /* \"#utility.yul\":14507:14525   */\n      0x64\n      add\n        /* \"profile-fees-getter.sol\":3902:3947  require(bytes(name).length > 0, \"Name empty\") */\n      tag_134\n        /* \"#utility.yul\":14197:14531   */\n      jump\n        /* \"profile-fees-getter.sol\":3902:3947  require(bytes(name).length > 0, \"Name empty\") */\n    tag_184:\n        /* \"profile-fees-getter.sol\":3981:3982  0 */\n      0x00\n        /* \"profile-fees-getter.sol\":3965:3971  skills */\n      dup6\n        /* \"profile-fees-getter.sol\":3965:3978  skills.length */\n      mload\n        /* \"profile-fees-getter.sol\":3965:3982  skills.length > 0 */\n      gt\n        /* \"profile-fees-getter.sol\":3957:3999  require(skills.length > 0, \"Skills empty\") */\n      tag_187\n      jumpi\n      mload(0x40)\n      shl(0xe5, 0x461bcd)\n      dup2\n      mstore\n        /* \"#utility.yul\":14738:14740   */\n      0x20\n        /* \"profile-fees-getter.sol\":3957:3999  require(skills.length > 0, \"Skills empty\") */\n      0x04\n      dup3\n      add\n        /* \"#utility.yul\":14720:14741   */\n      mstore\n        /* \"#utility.yul\":14777:14779   */\n      0x0c\n        /* \"#utility.yul\":14757:14775   */\n      0x24\n      dup3\n      add\n        /* \"#utility.yul\":14750:14780   */\n      mstore\n      shl(0xa0, 0x536b696c6c7320656d707479)\n        /* \"#utility.yul\":14796:14814   */\n      0x44\n      dup3\n      add\n        /* \"#utility.yul\":14789:14831   */\n      mstore\n        /* \"#utility.yul\":14848:14866   */\n      0x64\n      add\n        /* \"profile-fees-getter.sol\":3957:3999  require(skills.length > 0, \"Skills empty\") */\n      tag_134\n        /* \"#utility.yul\":14536:14872   */\n      jump\n        /* \"profile-fees-getter.sol\":3957:3999  require(skills.length > 0, \"Skills empty\") */\n    tag_187:\n        /* \"profile-fees-getter.sol\":4027:4028  0 */\n      0x00\n        /* \"profile-fees-getter.sol\":4017:4024  usdtFee */\n      dup4\n        /* \"profile-fees-getter.sol\":4017:4028  usdtFee > 0 */\n      gt\n        /* \"profile-fees-getter.sol\":4009:4046  require(usdtFee > 0, \"USDT fee zero\") */\n      tag_190\n      jumpi\n      mload(0x40)\n      shl(0xe5, 0x461bcd)\n      dup2\n      mstore\n        /* \"#utility.yul\":15079:15081   */\n      0x20\n        /* \"profile-fees-getter.sol\":4009:4046  require(usdtFee > 0, \"USDT fee zero\") */\n      0x04\n      dup3\n      add\n        /* \"#utility.yul\":15061:15082   */\n      mstore\n        /* \"#utility.yul\":15118:15120   */\n      0x0d\n        /* \"#utility.yul\":15098:15116   */\n      0x24\n      dup3\n      add\n        /* \"#utility.yul\":15091:15121   */\n      mstore\n      shl(0x98, 0x5553445420666565207a65726f)\n        /* \"#utility.yul\":15137:15155   */\n      0x44\n      dup3\n      add\n        /* \"#utility.yul\":15130:15173   */\n      mstore\n        /* \"#utility.yul\":15190:15208   */\n      0x64\n      add\n        /* \"profile-fees-getter.sol\":4009:4046  require(usdtFee > 0, \"USDT fee zero\") */\n      tag_134\n        /* \"#utility.yul\":14877:15214   */\n      jump\n        /* \"profile-fees-getter.sol\":4009:4046  require(usdtFee > 0, \"USDT fee zero\") */\n    tag_190:\n        /* \"profile-fees-getter.sol\":4133:4190  usdToken.transferFrom(msg.sender, address(this), usdtFee) */\n      mload(0x40)\n      shl(0xe0, 0x23b872dd)\n      dup2\n      mstore\n        /* \"profile-fees-getter.sol\":4155:4165  msg.sender */\n      caller\n        /* \"profile-fees-getter.sol\":4133:4190  usdToken.transferFrom(msg.sender, address(this), usdtFee) */\n      0x04\n      dup3\n      add\n        /* \"#utility.yul\":15421:15495   */\n      mstore\n        /* \"profile-fees-getter.sol\":4175:4179  this */\n      address\n        /* \"#utility.yul\":15511:15529   */\n      0x24\n      dup3\n      add\n        /* \"#utility.yul\":15504:15587   */\n      mstore\n        /* \"#utility.yul\":15603:15621   */\n      0x44\n      dup2\n      add\n        /* \"#utility.yul\":15596:15630   */\n      dup5\n      swap1\n      mstore\n        /* \"profile-fees-getter.sol\":4133:4141  usdToken */\n      immutable(\"0xcdfed618b24ea0dfa197ef820b472c0d8ebadf241f9bdb49f6c3e690683940c5\")\n      sub(shl(0xa0, 0x01), 0x01)\n        /* \"profile-fees-getter.sol\":4133:4154  usdToken.transferFrom */\n      and\n      swap1\n      0x23b872dd\n      swap1\n        /* \"#utility.yul\":15394:15412   */\n      0x64\n      add\n        /* \"profile-fees-getter.sol\":4133:4190  usdToken.transferFrom(msg.sender, address(this), usdtFee) */\n      0x20\n      mload(0x40)\n      dup1\n      dup4\n      sub\n      dup2\n      0x00\n      dup8\n      gas\n      call\n      iszero\n      dup1\n      iszero\n      tag_196\n      jumpi\n      returndatasize\n      0x00\n      dup1\n      returndatacopy\n      revert(0x00, returndatasize)\n    tag_196:\n      pop\n      pop\n      pop\n      pop\n      mload(0x40)\n      returndatasize\n      not(0x1f)\n      0x1f\n      dup3\n      add\n      and\n      dup3\n      add\n      dup1\n      0x40\n      mstore\n      pop\n      dup2\n      add\n      swap1\n      tag_197\n      swap2\n      swap1\n      tag_198\n      jump\t// in\n    tag_197:\n        /* \"profile-fees-getter.sol\":4112:4236  require(... */\n      tag_199\n      jumpi\n      mload(0x40)\n      shl(0xe5, 0x461bcd)\n      dup2\n      mstore\n        /* \"#utility.yul\":16125:16127   */\n      0x20\n        /* \"profile-fees-getter.sol\":4112:4236  require(... */\n      0x04\n      dup3\n      add\n        /* \"#utility.yul\":16107:16128   */\n      mstore\n        /* \"#utility.yul\":16164:16166   */\n      0x14\n        /* \"#utility.yul\":16144:16162   */\n      0x24\n      dup3\n      add\n        /* \"#utility.yul\":16137:16167   */\n      mstore\n        /* \"#utility.yul\":16203:16225   */\n      0x55534454207472616e73666572206661696c6564000000000000000000000000\n        /* \"#utility.yul\":16183:16201   */\n      0x44\n      dup3\n      add\n        /* \"#utility.yul\":16176:16226   */\n      mstore\n        /* \"#utility.yul\":16243:16261   */\n      0x64\n      add\n        /* \"profile-fees-getter.sol\":4112:4236  require(... */\n      tag_134\n        /* \"#utility.yul\":15923:16267   */\n      jump\n        /* \"profile-fees-getter.sol\":4112:4236  require(... */\n    tag_199:\n        /* \"profile-fees-getter.sol\":4299:4319  bytes memory payload */\n      0x00\n        /* \"profile-fees-getter.sol\":944:945  1 */\n      0x01\n        /* \"profile-fees-getter.sol\":4383:4393  msg.sender */\n      caller\n        /* \"profile-fees-getter.sol\":4408:4412  name */\n      dup9\n        /* \"profile-fees-getter.sol\":4427:4433  skills */\n      dup9\n        /* \"profile-fees-getter.sol\":4448:4459  profileHash */\n      dup9\n        /* \"profile-fees-getter.sol\":4473:4480  usdtFee */\n      dup9\n        /* \"profile-fees-getter.sol\":4322:4490  abi.encode(... */\n      add(0x20, mload(0x40))\n      tag_202\n      swap7\n      swap6\n      swap5\n      swap4\n      swap3\n      swap2\n      swap1\n      tag_203\n      jump\t// in\n    tag_202:\n      0x40\n      dup1\n      mload\n      not(0x1f)\n      dup2\n      dup5\n      sub\n      add\n      dup2\n      mstore\n      0x20\n        /* \"profile-fees-getter.sol\":4580:4621  _quote(_dstEid, payload, _options, false) */\n      0x1f\n      dup7\n      add\n      dup2\n      swap1\n      div\n      dup2\n      mul\n      dup5\n      add\n      dup2\n      add\n      swap1\n      swap3\n      mstore\n      dup5\n      dup4\n      mstore\n        /* \"profile-fees-getter.sol\":4322:4490  abi.encode(... */\n      swap3\n      pop\n        /* \"profile-fees-getter.sol\":4554:4577  MessagingFee memory fee */\n      0x00\n      swap2\n        /* \"profile-fees-getter.sol\":4580:4621  _quote(_dstEid, payload, _options, false) */\n      tag_204\n      swap2\n        /* \"profile-fees-getter.sol\":4587:4594  _dstEid */\n      dup12\n      swap2\n        /* \"profile-fees-getter.sol\":4322:4490  abi.encode(... */\n      dup6\n      swap2\n        /* \"profile-fees-getter.sol\":4605:4613  _options */\n      dup9\n      swap1\n      dup9\n      swap1\n      dup2\n      swap1\n        /* \"profile-fees-getter.sol\":4580:4621  _quote(_dstEid, payload, _options, false) */\n      dup5\n      add\n        /* \"profile-fees-getter.sol\":4605:4613  _options */\n      dup4\n      dup3\n      dup1\n      dup3\n        /* \"profile-fees-getter.sol\":4580:4621  _quote(_dstEid, payload, _options, false) */\n      dup5\n      calldatacopy\n      0x00\n      swap3\n      add\n      dup3\n      swap1\n      mstore\n      pop\n      swap3\n      pop\n        /* \"profile-fees-getter.sol\":4580:4586  _quote */\n      tag_157\n      swap2\n      pop\n      pop\n        /* \"profile-fees-getter.sol\":4580:4621  _quote(_dstEid, payload, _options, false) */\n      jump\t// in\n    tag_204:\n        /* \"profile-fees-getter.sol\":4652:4665  fee.nativeFee */\n      dup1\n      mload\n        /* \"profile-fees-getter.sol\":4554:4621  MessagingFee memory fee = _quote(_dstEid, payload, _options, false) */\n      swap1\n      swap2\n      pop\n        /* \"profile-fees-getter.sol\":4639:4648  msg.value */\n      callvalue\n        /* \"profile-fees-getter.sol\":4639:4665  msg.value >= fee.nativeFee */\n      lt\n      iszero\n        /* \"profile-fees-getter.sol\":4631:4688  require(msg.value >= fee.nativeFee, \"Native fee too low\") */\n      tag_205\n      jumpi\n      mload(0x40)\n      shl(0xe5, 0x461bcd)\n      dup2\n      mstore\n        /* \"#utility.yul\":13799:13801   */\n      0x20\n        /* \"profile-fees-getter.sol\":4631:4688  require(msg.value >= fee.nativeFee, \"Native fee too low\") */\n      0x04\n      dup3\n      add\n        /* \"#utility.yul\":13781:13802   */\n      mstore\n        /* \"#utility.yul\":13838:13840   */\n      0x12\n        /* \"#utility.yul\":13818:13836   */\n      0x24\n      dup3\n      add\n        /* \"#utility.yul\":13811:13841   */\n      mstore\n      shl(0x70, 0x4e61746976652066656520746f6f206c6f77)\n        /* \"#utility.yul\":13857:13875   */\n      0x44\n      dup3\n      add\n        /* \"#utility.yul\":13850:13898   */\n      mstore\n        /* \"#utility.yul\":13915:13933   */\n      0x64\n      add\n        /* \"profile-fees-getter.sol\":4631:4688  require(msg.value >= fee.nativeFee, \"Native fee too low\") */\n      tag_134\n        /* \"#utility.yul\":13597:13939   */\n      jump\n        /* \"profile-fees-getter.sol\":4631:4688  require(msg.value >= fee.nativeFee, \"Native fee too low\") */\n    tag_205:\n        /* \"profile-fees-getter.sol\":4699:4853  _lzSend(... */\n      tag_207\n        /* \"profile-fees-getter.sol\":4720:4727  _dstEid */\n      dup10\n        /* \"profile-fees-getter.sol\":4741:4748  payload */\n      dup4\n        /* \"profile-fees-getter.sol\":4762:4770  _options */\n      dup7\n      dup7\n        /* \"profile-fees-getter.sol\":4699:4853  _lzSend(... */\n      dup1\n      dup1\n      0x1f\n      add\n      0x20\n      dup1\n      swap2\n      div\n      mul\n      0x20\n      add\n      mload(0x40)\n      swap1\n      dup2\n      add\n      0x40\n      mstore\n      dup1\n      swap4\n      swap3\n      swap2\n      swap1\n      dup2\n      dup2\n      mstore\n      0x20\n      add\n      dup4\n      dup4\n      dup1\n      dup3\n      dup5\n      calldatacopy\n      0x00\n      swap3\n      add\n      dup3\n      swap1\n      mstore\n      pop\n        /* \"profile-fees-getter.sol\":4784:4810  MessagingFee(msg.value, 0) */\n      0x40\n      dup1\n      mload\n      dup1\n      dup3\n      add\n      swap1\n      swap2\n      mstore\n        /* \"profile-fees-getter.sol\":4797:4806  msg.value */\n      callvalue\n        /* \"profile-fees-getter.sol\":4784:4810  MessagingFee(msg.value, 0) */\n      dup2\n      mstore\n      0x20\n      dup2\n      add\n      swap2\n      swap1\n      swap2\n      mstore\n      swap3\n      pop\n        /* \"profile-fees-getter.sol\":4832:4842  msg.sender */\n      caller\n      swap2\n      pop\n        /* \"profile-fees-getter.sol\":4699:4706  _lzSend */\n      tag_175\n      swap1\n      pop\n        /* \"profile-fees-getter.sol\":4699:4853  _lzSend(... */\n      jump\t// in\n    tag_207:\n      pop\n        /* \"profile-fees-getter.sol\":4894:4904  msg.sender */\n      caller\n      sub(shl(0xa0, 0x01), 0x01)\n        /* \"profile-fees-getter.sol\":4869:4920  UserProfileSent(_dstEid, msg.sender, name, usdtFee) */\n      and\n        /* \"profile-fees-getter.sol\":4885:4892  _dstEid */\n      dup10\n        /* \"profile-fees-getter.sol\":4869:4920  UserProfileSent(_dstEid, msg.sender, name, usdtFee) */\n      0xffffffff\n      and\n      0x367df553a20f9d6a48f562a05a838605d973217c1e3980b1c5d542e2eeaafb63\n        /* \"profile-fees-getter.sol\":4906:4910  name */\n      dup11\n        /* \"profile-fees-getter.sol\":4912:4919  usdtFee */\n      dup9\n        /* \"profile-fees-getter.sol\":4869:4920  UserProfileSent(_dstEid, msg.sender, name, usdtFee) */\n      mload(0x40)\n      tag_208\n      swap3\n      swap2\n      swap1\n      tag_209\n      jump\t// in\n    tag_208:\n      mload(0x40)\n      dup1\n      swap2\n      sub\n      swap1\n      log3\n        /* \"profile-fees-getter.sol\":3892:4927  {... */\n      pop\n      pop\n        /* \"@openzeppelin/contracts/security/ReentrancyGuard.sol\":2303:2323  _nonReentrantAfter() */\n      tag_142\n        /* \"@openzeppelin/contracts/security/ReentrancyGuard.sol\":1716:1717  1 */\n      0x01\n        /* \"@openzeppelin/contracts/security/ReentrancyGuard.sol\":2809:2816  _status */\n      0x02\n        /* \"@openzeppelin/contracts/security/ReentrancyGuard.sol\":2809:2831  _status = _NOT_ENTERED */\n      sstore\n        /* \"@openzeppelin/contracts/security/ReentrancyGuard.sol\":2629:2838  function _nonReentrantAfter() private {... */\n      jump\n        /* \"@openzeppelin/contracts/access/Ownable.sol\":2293:2394  function renounceOwnership() public virtual onlyOwner {... */\n    tag_70:\n        /* \"@openzeppelin/contracts/access/Ownable.sol\":1531:1544  _checkOwner() */\n      tag_212\n        /* \"@openzeppelin/contracts/access/Ownable.sol\":1531:1542  _checkOwner */\n      tag_147\n        /* \"@openzeppelin/contracts/access/Ownable.sol\":1531:1544  _checkOwner() */\n      jump\t// in\n    tag_212:\n        /* \"@openzeppelin/contracts/access/Ownable.sol\":2357:2387  _transferOwnership(address(0)) */\n      tag_214\n        /* \"@openzeppelin/contracts/access/Ownable.sol\":2384:2385  0 */\n      0x00\n        /* \"@openzeppelin/contracts/access/Ownable.sol\":2357:2375  _transferOwnership */\n      tag_215\n        /* \"@openzeppelin/contracts/access/Ownable.sol\":2357:2387  _transferOwnership(address(0)) */\n      jump\t// in\n    tag_214:\n        /* \"@openzeppelin/contracts/access/Ownable.sol\":2293:2394  function renounceOwnership() public virtual onlyOwner {... */\n      jump\t// out\n        /* \"profile-fees-getter.sol\":8015:8198  function withdrawFees(address to, uint256 amount) external onlyOwner {... */\n    tag_92:\n        /* \"@openzeppelin/contracts/access/Ownable.sol\":1531:1544  _checkOwner() */\n      tag_220\n        /* \"@openzeppelin/contracts/access/Ownable.sol\":1531:1542  _checkOwner */\n      tag_147\n        /* \"@openzeppelin/contracts/access/Ownable.sol\":1531:1544  _checkOwner() */\n      jump\t// in\n    tag_220:\n        /* \"profile-fees-getter.sol\":8102:8131  usdToken.transfer(to, amount) */\n      mload(0x40)\n      shl(0xe0, 0xa9059cbb)\n      dup2\n      mstore\n      sub(shl(0xa0, 0x01), 0x01)\n        /* \"#utility.yul\":17644:17699   */\n      dup4\n      dup2\n      and\n        /* \"profile-fees-getter.sol\":8102:8131  usdToken.transfer(to, amount) */\n      0x04\n      dup4\n      add\n        /* \"#utility.yul\":17626:17700   */\n      mstore\n        /* \"#utility.yul\":17716:17734   */\n      0x24\n      dup3\n      add\n        /* \"#utility.yul\":17709:17743   */\n      dup4\n      swap1\n      mstore\n        /* \"profile-fees-getter.sol\":8102:8110  usdToken */\n      immutable(\"0xcdfed618b24ea0dfa197ef820b472c0d8ebadf241f9bdb49f6c3e690683940c5\")\n        /* \"profile-fees-getter.sol\":8102:8119  usdToken.transfer */\n      and\n      swap1\n      0xa9059cbb\n      swap1\n        /* \"#utility.yul\":17599:17617   */\n      0x44\n      add\n        /* \"profile-fees-getter.sol\":8102:8131  usdToken.transfer(to, amount) */\n      0x20\n      mload(0x40)\n      dup1\n      dup4\n      sub\n      dup2\n      0x00\n      dup8\n      gas\n      call\n      iszero\n      dup1\n      iszero\n      tag_225\n      jumpi\n      returndatasize\n      0x00\n      dup1\n      returndatacopy\n      revert(0x00, returndatasize)\n    tag_225:\n      pop\n      pop\n      pop\n      pop\n      mload(0x40)\n      returndatasize\n      not(0x1f)\n      0x1f\n      dup3\n      add\n      and\n      dup3\n      add\n      dup1\n      0x40\n      mstore\n      pop\n      dup2\n      add\n      swap1\n      tag_226\n      swap2\n      swap1\n      tag_198\n      jump\t// in\n    tag_226:\n        /* \"profile-fees-getter.sol\":8094:8151  require(usdToken.transfer(to, amount), \"Withdraw failed\") */\n      tag_227\n      jumpi\n      mload(0x40)\n      shl(0xe5, 0x461bcd)\n      dup2\n      mstore\n        /* \"#utility.yul\":17956:17958   */\n      0x20\n        /* \"profile-fees-getter.sol\":8094:8151  require(usdToken.transfer(to, amount), \"Withdraw failed\") */\n      0x04\n      dup3\n      add\n        /* \"#utility.yul\":17938:17959   */\n      mstore\n        /* \"#utility.yul\":17995:17997   */\n      0x0f\n        /* \"#utility.yul\":17975:17993   */\n      0x24\n      dup3\n      add\n        /* \"#utility.yul\":17968:17998   */\n      mstore\n      shl(0x8a, 0x15da5d1a191c985dc819985a5b1959)\n        /* \"#utility.yul\":18014:18032   */\n      0x44\n      dup3\n      add\n        /* \"#utility.yul\":18007:18052   */\n      mstore\n        /* \"#utility.yul\":18069:18087   */\n      0x64\n      add\n        /* \"profile-fees-getter.sol\":8094:8151  require(usdToken.transfer(to, amount), \"Withdraw failed\") */\n      tag_134\n        /* \"#utility.yul\":17754:18093   */\n      jump\n        /* \"profile-fees-getter.sol\":8094:8151  require(usdToken.transfer(to, amount), \"Withdraw failed\") */\n    tag_227:\n        /* \"profile-fees-getter.sol\":8180:8182  to */\n      dup2\n      sub(shl(0xa0, 0x01), 0x01)\n        /* \"profile-fees-getter.sol\":8166:8191  FeesWithdrawn(to, amount) */\n      and\n      0xc0819c13be868895eb93e40eaceb96de976442fa1d404e5c55f14bb65a8c489a\n        /* \"profile-fees-getter.sol\":8184:8190  amount */\n      dup3\n        /* \"profile-fees-getter.sol\":8166:8191  FeesWithdrawn(to, amount) */\n      mload(0x40)\n      tag_230\n      swap2\n        /* \"#utility.yul\":9104:9129   */\n      dup2\n      mstore\n        /* \"#utility.yul\":9092:9094   */\n      0x20\n        /* \"#utility.yul\":9077:9095   */\n      add\n      swap1\n        /* \"#utility.yul\":8958:9135   */\n      jump\n        /* \"profile-fees-getter.sol\":8166:8191  FeesWithdrawn(to, amount) */\n    tag_230:\n      mload(0x40)\n      dup1\n      swap2\n      sub\n      swap1\n      log2\n        /* \"profile-fees-getter.sol\":8015:8198  function withdrawFees(address to, uint256 amount) external onlyOwner {... */\n      pop\n      pop\n      jump\t// out\n        /* \"profile-fees-getter.sol\":6828:7353  function quoteCreateUserProfile(... */\n    tag_103:\n      0x40\n      dup1\n      mload\n      dup1\n      dup3\n      add\n      swap1\n      swap2\n      mstore\n      0x00\n      dup1\n      dup3\n      mstore\n      0x20\n      dup3\n      add\n      mstore\n        /* \"profile-fees-getter.sol\":7097:7117  bytes memory payload */\n      0x00\n        /* \"profile-fees-getter.sol\":944:945  1 */\n      0x01\n        /* \"profile-fees-getter.sol\":7181:7191  msg.sender */\n      caller\n        /* \"profile-fees-getter.sol\":7206:7210  name */\n      dup10\n        /* \"profile-fees-getter.sol\":7225:7231  skills */\n      dup10\n        /* \"profile-fees-getter.sol\":7246:7257  profileHash */\n      dup10\n        /* \"profile-fees-getter.sol\":7271:7278  usdtFee */\n      dup10\n        /* \"profile-fees-getter.sol\":7120:7288  abi.encode(... */\n      add(0x20, mload(0x40))\n      tag_234\n      swap7\n      swap6\n      swap5\n      swap4\n      swap3\n      swap2\n      swap1\n      tag_203\n      jump\t// in\n    tag_234:\n      0x40\n      dup1\n      mload\n      not(0x1f)\n      dup2\n      dup5\n      sub\n      add\n      dup2\n      mstore\n      0x20\n        /* \"profile-fees-getter.sol\":7305:7346  _quote(_dstEid, payload, _options, false) */\n      0x1f\n      dup8\n      add\n      dup2\n      swap1\n      div\n      dup2\n      mul\n      dup5\n      add\n      dup2\n      add\n      swap1\n      swap3\n      mstore\n      dup6\n      dup4\n      mstore\n        /* \"profile-fees-getter.sol\":7120:7288  abi.encode(... */\n      swap3\n      pop\n        /* \"profile-fees-getter.sol\":7305:7346  _quote(_dstEid, payload, _options, false) */\n      tag_235\n      swap2\n        /* \"profile-fees-getter.sol\":7312:7319  _dstEid */\n      dup12\n      swap2\n        /* \"profile-fees-getter.sol\":7120:7288  abi.encode(... */\n      dup5\n      swap2\n      swap1\n        /* \"profile-fees-getter.sol\":7330:7338  _options */\n      dup9\n      swap1\n      dup9\n      swap1\n      dup2\n      swap1\n        /* \"profile-fees-getter.sol\":7305:7346  _quote(_dstEid, payload, _options, false) */\n      dup5\n      add\n        /* \"profile-fees-getter.sol\":7330:7338  _options */\n      dup4\n      dup3\n      dup1\n      dup3\n        /* \"profile-fees-getter.sol\":7305:7346  _quote(_dstEid, payload, _options, false) */\n      dup5\n      calldatacopy\n      0x00\n      swap3\n      add\n      dup3\n      swap1\n      mstore\n      pop\n      swap3\n      pop\n        /* \"profile-fees-getter.sol\":7305:7311  _quote */\n      tag_157\n      swap2\n      pop\n      pop\n        /* \"profile-fees-getter.sol\":7305:7346  _quote(_dstEid, payload, _options, false) */\n      jump\t// in\n    tag_235:\n        /* \"profile-fees-getter.sol\":7298:7346  return _quote(_dstEid, payload, _options, false) */\n      swap10\n        /* \"profile-fees-getter.sol\":6828:7353  function quoteCreateUserProfile(... */\n      swap9\n      pop\n      pop\n      pop\n      pop\n      pop\n      pop\n      pop\n      pop\n      pop\n      jump\t// out\n        /* \"@layerzerolabs/oapp-evm/contracts/oapp/OAppCore.sol\":3252:3357  function setDelegate(address _delegate) public onlyOwner {... */\n    tag_109:\n        /* \"@openzeppelin/contracts/access/Ownable.sol\":1531:1544  _checkOwner() */\n      tag_237\n        /* \"@openzeppelin/contracts/access/Ownable.sol\":1531:1542  _checkOwner */\n      tag_147\n        /* \"@openzeppelin/contracts/access/Ownable.sol\":1531:1544  _checkOwner() */\n      jump\t// in\n    tag_237:\n        /* \"@layerzerolabs/oapp-evm/contracts/oapp/OAppCore.sol\":3319:3350  endpoint.setDelegate(_delegate) */\n      mload(0x40)\n      shl(0xe0, 0xca5eb5e1)\n      dup2\n      mstore\n      sub(shl(0xa0, 0x01), 0x01)\n        /* \"#utility.yul\":3855:3910   */\n      dup3\n      dup2\n      and\n        /* \"@layerzerolabs/oapp-evm/contracts/oapp/OAppCore.sol\":3319:3350  endpoint.setDelegate(_delegate) */\n      0x04\n      dup4\n      add\n        /* \"#utility.yul\":3837:3911   */\n      mstore\n        /* \"@layerzerolabs/oapp-evm/contracts/oapp/OAppCore.sol\":3319:3327  endpoint */\n      immutable(\"0xef80077fd7ee005d1b0377e3e959eb59d0ca83c4839422f862a3540a66a91fb5\")\n        /* \"@layerzerolabs/oapp-evm/contracts/oapp/OAppCore.sol\":3319:3339  endpoint.setDelegate */\n      and\n      swap1\n      0xca5eb5e1\n      swap1\n        /* \"#utility.yul\":3810:3828   */\n      0x24\n      add\n        /* \"@layerzerolabs/oapp-evm/contracts/oapp/OAppCore.sol\":3319:3350  endpoint.setDelegate(_delegate) */\n      0x00\n      mload(0x40)\n      dup1\n      dup4\n      sub\n      dup2\n      0x00\n      dup8\n      dup1\n      extcodesize\n      iszero\n      dup1\n      iszero\n      tag_240\n      jumpi\n      0x00\n      dup1\n      revert\n    tag_240:\n      pop\n      gas\n      call\n      iszero\n      dup1\n      iszero\n      tag_242\n      jumpi\n      returndatasize\n      0x00\n      dup1\n      returndatacopy\n      revert(0x00, returndatasize)\n    tag_242:\n      pop\n      pop\n      pop\n      pop\n        /* \"@layerzerolabs/oapp-evm/contracts/oapp/OAppCore.sol\":3252:3357  function setDelegate(address _delegate) public onlyOwner {... */\n      pop\n      jump\t// out\n        /* \"@openzeppelin/contracts/access/Ownable.sol\":2543:2758  function transferOwnership(address newOwner) public virtual onlyOwner {... */\n    tag_113:\n        /* \"@openzeppelin/contracts/access/Ownable.sol\":1531:1544  _checkOwner() */\n      tag_244\n        /* \"@openzeppelin/contracts/access/Ownable.sol\":1531:1542  _checkOwner */\n      tag_147\n        /* \"@openzeppelin/contracts/access/Ownable.sol\":1531:1544  _checkOwner() */\n      jump\t// in\n    tag_244:\n      sub(shl(0xa0, 0x01), 0x01)\n        /* \"@openzeppelin/contracts/access/Ownable.sol\":2627:2649  newOwner == address(0) */\n      dup2\n      and\n        /* \"@openzeppelin/contracts/access/Ownable.sol\":2623:2714  if (newOwner == address(0)) {... */\n      tag_246\n      jumpi\n        /* \"@openzeppelin/contracts/access/Ownable.sol\":2672:2703  OwnableInvalidOwner(address(0)) */\n      mload(0x40)\n      shl(0xe0, 0x1e4fbdf7)\n      dup2\n      mstore\n        /* \"@openzeppelin/contracts/access/Ownable.sol\":2700:2701  0 */\n      0x00\n        /* \"@openzeppelin/contracts/access/Ownable.sol\":2672:2703  OwnableInvalidOwner(address(0)) */\n      0x04\n      dup3\n      add\n        /* \"#utility.yul\":3837:3911   */\n      mstore\n        /* \"#utility.yul\":3810:3828   */\n      0x24\n      add\n        /* \"@openzeppelin/contracts/access/Ownable.sol\":2672:2703  OwnableInvalidOwner(address(0)) */\n      tag_134\n        /* \"#utility.yul\":3691:3917   */\n      jump\n        /* \"@openzeppelin/contracts/access/Ownable.sol\":2623:2714  if (newOwner == address(0)) {... */\n    tag_246:\n        /* \"@openzeppelin/contracts/access/Ownable.sol\":2723:2751  _transferOwnership(newOwner) */\n      tag_248\n        /* \"@openzeppelin/contracts/access/Ownable.sol\":2742:2750  newOwner */\n      dup2\n        /* \"@openzeppelin/contracts/access/Ownable.sol\":2723:2741  _transferOwnership */\n      tag_215\n        /* \"@openzeppelin/contracts/access/Ownable.sol\":2723:2751  _transferOwnership(newOwner) */\n      jump\t// in\n    tag_248:\n        /* \"@openzeppelin/contracts/access/Ownable.sol\":2543:2758  function transferOwnership(address newOwner) public virtual onlyOwner {... */\n      pop\n      jump\t// out\n        /* \"profile-fees-getter.sol\":10346:10858  function getCachedProfile(uint256 profileId) external view returns (... */\n    tag_123:\n        /* \"profile-fees-getter.sol\":10423:10435  address user */\n      0x00\n        /* \"profile-fees-getter.sol\":10627:10652  cachedProfiles[profileId] */\n      dup2\n      dup2\n      mstore\n        /* \"profile-fees-getter.sol\":10627:10641  cachedProfiles */\n      0x05\n        /* \"profile-fees-getter.sol\":10627:10652  cachedProfiles[profileId] */\n      0x20\n      dup2\n      swap1\n      mstore\n      0x40\n      dup3\n      keccak256\n        /* \"profile-fees-getter.sol\":10683:10695  profile.user */\n      dup1\n      sload\n        /* \"profile-fees-getter.sol\":10796:10813  profile.createdAt */\n      0x04\n      dup3\n      add\n      sload\n        /* \"profile-fees-getter.sol\":10827:10841  profile.exists */\n      swap3\n      dup3\n      add\n      sload\n        /* \"profile-fees-getter.sol\":10683:10695  profile.user */\n      0x01\n        /* \"profile-fees-getter.sol\":10709:10721  profile.name */\n      dup4\n      add\n        /* \"profile-fees-getter.sol\":10662:10851  return (... */\n      dup1\n      sload\n        /* \"profile-fees-getter.sol\":10445:10463  string memory name */\n      0x60\n      swap6\n      dup7\n      swap6\n      dup7\n      swap6\n        /* \"profile-fees-getter.sol\":10423:10435  address user */\n      dup10\n      swap6\n      dup7\n      swap6\n        /* \"profile-fees-getter.sol\":10627:10652  cachedProfiles[profileId] */\n      swap3\n      swap5\n      sub(shl(0xa0, 0x01), 0x01)\n        /* \"profile-fees-getter.sol\":10683:10695  profile.user */\n      swap1\n      swap3\n      and\n      swap4\n        /* \"profile-fees-getter.sol\":10735:10749  profile.skills */\n      0x02\n      dup7\n      add\n      swap3\n        /* \"profile-fees-getter.sol\":10763:10782  profile.profileHash */\n      0x03\n      dup8\n      add\n      swap3\n        /* \"profile-fees-getter.sol\":10827:10841  profile.exists */\n      0xff\n      and\n      swap1\n        /* \"profile-fees-getter.sol\":10709:10721  profile.name */\n      dup6\n      swap1\n        /* \"profile-fees-getter.sol\":10662:10851  return (... */\n      tag_250\n      swap1\n      tag_251\n      jump\t// in\n    tag_250:\n      dup1\n      0x1f\n      add\n      0x20\n      dup1\n      swap2\n      div\n      mul\n      0x20\n      add\n      mload(0x40)\n      swap1\n      dup2\n      add\n      0x40\n      mstore\n      dup1\n      swap3\n      swap2\n      swap1\n      dup2\n      dup2\n      mstore\n      0x20\n      add\n      dup3\n      dup1\n      sload\n      tag_252\n      swap1\n      tag_251\n      jump\t// in\n    tag_252:\n      dup1\n      iszero\n      tag_253\n      jumpi\n      dup1\n      0x1f\n      lt\n      tag_254\n      jumpi\n      0x0100\n      dup1\n      dup4\n      sload\n      div\n      mul\n      dup4\n      mstore\n      swap2\n      0x20\n      add\n      swap2\n      jump(tag_253)\n    tag_254:\n      dup3\n      add\n      swap2\n      swap1\n      0x00\n      mstore\n      keccak256(0x00, 0x20)\n      swap1\n    tag_255:\n      dup2\n      sload\n      dup2\n      mstore\n      swap1\n      0x01\n      add\n      swap1\n      0x20\n      add\n      dup1\n      dup4\n      gt\n      tag_255\n      jumpi\n      dup3\n      swap1\n      sub\n      0x1f\n      and\n      dup3\n      add\n      swap2\n    tag_253:\n      pop\n      pop\n      pop\n      pop\n      pop\n      swap5\n      pop\n      dup4\n      dup1\n      sload\n      dup1\n      0x20\n      mul\n      0x20\n      add\n      mload(0x40)\n      swap1\n      dup2\n      add\n      0x40\n      mstore\n      dup1\n      swap3\n      swap2\n      swap1\n      dup2\n      dup2\n      mstore\n      0x20\n      add\n      0x00\n      swap1\n    tag_256:\n      dup3\n      dup3\n      lt\n      iszero\n      tag_257\n      jumpi\n      dup4\n      dup3\n      swap1\n      0x00\n      mstore\n      keccak256(0x00, 0x20)\n      add\n      dup1\n      sload\n      tag_259\n      swap1\n      tag_251\n      jump\t// in\n    tag_259:\n      dup1\n      0x1f\n      add\n      0x20\n      dup1\n      swap2\n      div\n      mul\n      0x20\n      add\n      mload(0x40)\n      swap1\n      dup2\n      add\n      0x40\n      mstore\n      dup1\n      swap3\n      swap2\n      swap1\n      dup2\n      dup2\n      mstore\n      0x20\n      add\n      dup3\n      dup1\n      sload\n      tag_260\n      swap1\n      tag_251\n      jump\t// in\n    tag_260:\n      dup1\n      iszero\n      tag_261\n      jumpi\n      dup1\n      0x1f\n      lt\n      tag_262\n      jumpi\n      0x0100\n      dup1\n      dup4\n      sload\n      div\n      mul\n      dup4\n      mstore\n      swap2\n      0x20\n      add\n      swap2\n      jump(tag_261)\n    tag_262:\n      dup3\n      add\n      swap2\n      swap1\n      0x00\n      mstore\n      keccak256(0x00, 0x20)\n      swap1\n    tag_263:\n      dup2\n      sload\n      dup2\n      mstore\n      swap1\n      0x01\n      add\n      swap1\n      0x20\n      add\n      dup1\n      dup4\n      gt\n      tag_263\n      jumpi\n      dup3\n      swap1\n      sub\n      0x1f\n      and\n      dup3\n      add\n      swap2\n    tag_261:\n      pop\n      pop\n      pop\n      pop\n      pop\n      dup2\n      mstore\n      0x20\n      add\n      swap1\n      0x01\n      add\n      swap1\n      jump(tag_256)\n    tag_257:\n      pop\n      pop\n      pop\n      pop\n      swap4\n      pop\n      dup3\n      dup1\n      sload\n      tag_264\n      swap1\n      tag_251\n      jump\t// in\n    tag_264:\n      dup1\n      0x1f\n      add\n      0x20\n      dup1\n      swap2\n      div\n      mul\n      0x20\n      add\n      mload(0x40)\n      swap1\n      dup2\n      add\n      0x40\n      mstore\n      dup1\n      swap3\n      swap2\n      swap1\n      dup2\n      dup2\n      mstore\n      0x20\n      add\n      dup3\n      dup1\n      sload\n      tag_265\n      swap1\n      tag_251\n      jump\t// in\n    tag_265:\n      dup1\n      iszero\n      tag_266\n      jumpi\n      dup1\n      0x1f\n      lt\n      tag_267\n      jumpi\n      0x0100\n      dup1\n      dup4\n      sload\n      div\n      mul\n      dup4\n      mstore\n      swap2\n      0x20\n      add\n      swap2\n      jump(tag_266)\n    tag_267:\n      dup3\n      add\n      swap2\n      swap1\n      0x00\n      mstore\n      keccak256(0x00, 0x20)\n      swap1\n    tag_268:\n      dup2\n      sload\n      dup2\n      mstore\n      swap1\n      0x01\n      add\n      swap1\n      0x20\n      add\n      dup1\n      dup4\n      gt\n      tag_268\n      jumpi\n      dup3\n      swap1\n      sub\n      0x1f\n      and\n      dup3\n      add\n      swap2\n    tag_266:\n      pop\n      pop\n      pop\n      pop\n      pop\n      swap3\n      pop\n      swap7\n      pop\n      swap7\n      pop\n      swap7\n      pop\n      swap7\n      pop\n      swap7\n      pop\n      swap7\n      pop\n      pop\n        /* \"profile-fees-getter.sol\":10346:10858  function getCachedProfile(uint256 profileId) external view returns (... */\n      swap2\n      swap4\n      swap6\n      pop\n      swap2\n      swap4\n      swap6\n      jump\t// out\n        /* \"@layerzerolabs/oapp-evm/contracts/oapp/OAppReceiver.sol\":2771:2920  function allowInitializePath(Origin calldata origin) public view virtual returns (bool) {... */\n    tag_130:\n        /* \"@layerzerolabs/oapp-evm/contracts/oapp/OAppReceiver.sol\":2853:2857  bool */\n      0x00\n        /* \"@layerzerolabs/oapp-evm/contracts/oapp/OAppReceiver.sol\":2900:2913  origin.sender */\n      0x20\n      dup3\n      add\n      dup1\n      calldataload\n      swap1\n        /* \"@layerzerolabs/oapp-evm/contracts/oapp/OAppReceiver.sol\":2876:2881  peers */\n      0x01\n      swap1\n        /* \"@layerzerolabs/oapp-evm/contracts/oapp/OAppReceiver.sol\":2853:2857  bool */\n      dup4\n      swap1\n        /* \"@layerzerolabs/oapp-evm/contracts/oapp/OAppReceiver.sol\":2882:2895  origin.srcEid */\n      tag_270\n      swap1\n        /* \"@layerzerolabs/oapp-evm/contracts/oapp/OAppReceiver.sol\":2900:2906  origin */\n      dup7\n        /* \"@layerzerolabs/oapp-evm/contracts/oapp/OAppReceiver.sol\":2882:2895  origin.srcEid */\n      tag_96\n      jump\t// in\n    tag_270:\n        /* \"@layerzerolabs/oapp-evm/contracts/oapp/OAppReceiver.sol\":2876:2896  peers[origin.srcEid] */\n      0xffffffff\n      and\n      dup2\n      mstore\n      0x20\n      dup2\n      add\n      swap2\n      swap1\n      swap2\n      mstore\n      0x40\n      add\n      0x00\n      keccak256\n      sload\n        /* \"@layerzerolabs/oapp-evm/contracts/oapp/OAppReceiver.sol\":2876:2913  peers[origin.srcEid] == origin.sender */\n      eq\n      swap3\n        /* \"@layerzerolabs/oapp-evm/contracts/oapp/OAppReceiver.sol\":2771:2920  function allowInitializePath(Origin calldata origin) public view virtual returns (bool) {... */\n      swap2\n      pop\n      pop\n      jump\t// out\n        /* \"@layerzerolabs/oapp-evm/contracts/oapp/OAppCore.sol\":2718:2914  function _getPeerOrRevert(uint32 _eid) internal view virtual returns (bytes32) {... */\n    tag_137:\n        /* \"@layerzerolabs/oapp-evm/contracts/oapp/OAppCore.sol\":2822:2833  peers[_eid] */\n      0xffffffff\n      dup2\n      and\n        /* \"@layerzerolabs/oapp-evm/contracts/oapp/OAppCore.sol\":2788:2795  bytes32 */\n      0x00\n        /* \"@layerzerolabs/oapp-evm/contracts/oapp/OAppCore.sol\":2822:2833  peers[_eid] */\n      swap1\n      dup2\n      mstore\n        /* \"@layerzerolabs/oapp-evm/contracts/oapp/OAppCore.sol\":2822:2827  peers */\n      0x01\n        /* \"@layerzerolabs/oapp-evm/contracts/oapp/OAppCore.sol\":2822:2833  peers[_eid] */\n      0x20\n      mstore\n      0x40\n      dup2\n      keccak256\n      sload\n      dup1\n        /* \"@layerzerolabs/oapp-evm/contracts/oapp/OAppCore.sol\":2843:2886  if (peer == bytes32(0)) revert NoPeer(_eid) */\n      tag_272\n      jumpi\n        /* \"@layerzerolabs/oapp-evm/contracts/oapp/OAppCore.sol\":2874:2886  NoPeer(_eid) */\n      mload(0x40)\n      shl(0xe0, 0xf6ff4fb7)\n      dup2\n      mstore\n        /* \"#utility.yul\":18839:18849   */\n      0xffffffff\n        /* \"#utility.yul\":18827:18850   */\n      dup5\n      and\n        /* \"@layerzerolabs/oapp-evm/contracts/oapp/OAppCore.sol\":2874:2886  NoPeer(_eid) */\n      0x04\n      dup3\n      add\n        /* \"#utility.yul\":18809:18851   */\n      mstore\n        /* \"#utility.yul\":18782:18800   */\n      0x24\n      add\n        /* \"@layerzerolabs/oapp-evm/contracts/oapp/OAppCore.sol\":2874:2886  NoPeer(_eid) */\n      tag_134\n        /* \"#utility.yul\":18665:18857   */\n      jump\n        /* \"@layerzerolabs/oapp-evm/contracts/oapp/OAppCore.sol\":2843:2886  if (peer == bytes32(0)) revert NoPeer(_eid) */\n    tag_272:\n        /* \"@layerzerolabs/oapp-evm/contracts/oapp/OAppCore.sol\":2903:2907  peer */\n      swap3\n        /* \"@layerzerolabs/oapp-evm/contracts/oapp/OAppCore.sol\":2718:2914  function _getPeerOrRevert(uint32 _eid) internal view virtual returns (bytes32) {... */\n      swap2\n      pop\n      pop\n      jump\t// out\n        /* \"profile-fees-getter.sol\":8459:8934  function _lzReceive(... */\n    tag_143:\n        /* \"profile-fees-getter.sol\":8659:8676  uint8 messageType */\n      0x00\n        /* \"profile-fees-getter.sol\":8679:8707  abi.decode(payload, (uint8)) */\n      tag_276\n      dup6\n      dup8\n      add\n        /* \"profile-fees-getter.sol\":8690:8697  payload */\n      dup8\n        /* \"profile-fees-getter.sol\":8679:8707  abi.decode(payload, (uint8)) */\n      tag_277\n      jump\t// in\n    tag_276:\n        /* \"profile-fees-getter.sol\":8659:8707  uint8 messageType = abi.decode(payload, (uint8)) */\n      swap1\n      pop\n      not(0x02)\n        /* \"profile-fees-getter.sol\":8730:8774  messageType == MSG_TYPE_GET_PROFILE_RESPONSE */\n      0xff\n      dup3\n      and\n      add\n        /* \"profile-fees-getter.sol\":8726:8832  if (messageType == MSG_TYPE_GET_PROFILE_RESPONSE) {... */\n      tag_279\n      jumpi\n        /* \"profile-fees-getter.sol\":8790:8821  _handleProfileResponse(payload) */\n      tag_279\n        /* \"profile-fees-getter.sol\":8813:8820  payload */\n      dup7\n      dup7\n        /* \"profile-fees-getter.sol\":8790:8812  _handleProfileResponse */\n      tag_280\n        /* \"profile-fees-getter.sol\":8790:8821  _handleProfileResponse(payload) */\n      jump\t// in\n    tag_279:\n        /* \"profile-fees-getter.sol\":8618:8934  {... */\n      pop\n        /* \"profile-fees-getter.sol\":8459:8934  function _lzReceive(... */\n      pop\n      pop\n      pop\n      pop\n      pop\n      pop\n      pop\n      jump\t// out\n        /* \"@openzeppelin/contracts/access/Ownable.sol\":1796:1958  function _checkOwner() internal view virtual {... */\n    tag_147:\n        /* \"@openzeppelin/contracts/access/Ownable.sol\":1684:1691  address */\n      0x00\n        /* \"@openzeppelin/contracts/access/Ownable.sol\":1710:1716  _owner */\n      sload\n      sub(shl(0xa0, 0x01), 0x01)\n      and\n        /* \"@openzeppelin/contracts/utils/Context.sol\":735:745  msg.sender */\n      caller\n        /* \"@openzeppelin/contracts/access/Ownable.sol\":1855:1878  owner() != _msgSender() */\n      eq\n        /* \"@openzeppelin/contracts/access/Ownable.sol\":1851:1952  if (owner() != _msgSender()) {... */\n      tag_214\n      jumpi\n        /* \"@openzeppelin/contracts/access/Ownable.sol\":1901:1941  OwnableUnauthorizedAccount(_msgSender()) */\n      mload(0x40)\n      shl(0xe0, 0x118cdaa7)\n      dup2\n      mstore\n        /* \"@openzeppelin/contracts/utils/Context.sol\":735:745  msg.sender */\n      caller\n        /* \"@openzeppelin/contracts/access/Ownable.sol\":1901:1941  OwnableUnauthorizedAccount(_msgSender()) */\n      0x04\n      dup3\n      add\n        /* \"#utility.yul\":3837:3911   */\n      mstore\n        /* \"#utility.yul\":3810:3828   */\n      0x24\n      add\n        /* \"@openzeppelin/contracts/access/Ownable.sol\":1901:1941  OwnableUnauthorizedAccount(_msgSender()) */\n      tag_134\n        /* \"#utility.yul\":3691:3917   */\n      jump\n        /* \"@layerzerolabs/oapp-evm/contracts/oapp/OAppCore.sol\":2286:2420  function _setPeer(uint32 _eid, bytes32 _peer) internal virtual {... */\n    tag_150:\n        /* \"@layerzerolabs/oapp-evm/contracts/oapp/OAppCore.sol\":2359:2370  peers[_eid] */\n      0xffffffff\n      dup3\n      and\n      0x00\n      dup2\n      dup2\n      mstore\n        /* \"@layerzerolabs/oapp-evm/contracts/oapp/OAppCore.sol\":2359:2364  peers */\n      0x01\n        /* \"@layerzerolabs/oapp-evm/contracts/oapp/OAppCore.sol\":2359:2370  peers[_eid] */\n      0x20\n      swap1\n      dup2\n      mstore\n      0x40\n      swap2\n      dup3\n      swap1\n      keccak256\n        /* \"@layerzerolabs/oapp-evm/contracts/oapp/OAppCore.sol\":2359:2378  peers[_eid] = _peer */\n      dup5\n      swap1\n      sstore\n        /* \"@layerzerolabs/oapp-evm/contracts/oapp/OAppCore.sol\":2393:2413  PeerSet(_eid, _peer) */\n      dup2\n      mload\n        /* \"#utility.yul\":12156:12198   */\n      swap3\n      dup4\n      mstore\n        /* \"#utility.yul\":12214:12232   */\n      dup3\n      add\n        /* \"#utility.yul\":12207:12241   */\n      dup4\n      swap1\n      mstore\n        /* \"@layerzerolabs/oapp-evm/contracts/oapp/OAppCore.sol\":2393:2413  PeerSet(_eid, _peer) */\n      0x238399d427b947898edb290f5ff0f9109849b1c3ba196a42e35f00c50a54b98b\n      swap2\n        /* \"#utility.yul\":12129:12147   */\n      add\n        /* \"@layerzerolabs/oapp-evm/contracts/oapp/OAppCore.sol\":2393:2413  PeerSet(_eid, _peer) */\n      mload(0x40)\n      dup1\n      swap2\n      sub\n      swap1\n      log1\n        /* \"@layerzerolabs/oapp-evm/contracts/oapp/OAppCore.sol\":2286:2420  function _setPeer(uint32 _eid, bytes32 _peer) internal virtual {... */\n      pop\n      pop\n      jump\t// out\n        /* \"@layerzerolabs/oapp-evm/contracts/oapp/OAppSender.sol\":2038:2429  function _quote(... */\n    tag_157:\n      0x40\n      dup1\n      mload\n      dup1\n      dup3\n      add\n      swap1\n      swap2\n      mstore\n      0x00\n      dup1\n      dup3\n      mstore\n      0x20\n      dup3\n      add\n      mstore\n        /* \"@layerzerolabs/oapp-evm/contracts/oapp/OAppSender.sol\":2259:2267  endpoint */\n      immutable(\"0xef80077fd7ee005d1b0377e3e959eb59d0ca83c4839422f862a3540a66a91fb5\")\n      sub(shl(0xa0, 0x01), 0x01)\n        /* \"@layerzerolabs/oapp-evm/contracts/oapp/OAppSender.sol\":2259:2273  endpoint.quote */\n      and\n      0xddc28c58\n        /* \"@layerzerolabs/oapp-evm/contracts/oapp/OAppSender.sol\":2291:2377  MessagingParams(_dstEid, _getPeerOrRevert(_dstEid), _message, _options, _payInLzToken) */\n      mload(0x40)\n      dup1\n      0xa0\n      add\n      0x40\n      mstore\n      dup1\n        /* \"@layerzerolabs/oapp-evm/contracts/oapp/OAppSender.sol\":2307:2314  _dstEid */\n      dup9\n        /* \"@layerzerolabs/oapp-evm/contracts/oapp/OAppSender.sol\":2291:2377  MessagingParams(_dstEid, _getPeerOrRevert(_dstEid), _message, _options, _payInLzToken) */\n      0xffffffff\n      and\n      dup2\n      mstore\n      0x20\n      add\n        /* \"@layerzerolabs/oapp-evm/contracts/oapp/OAppSender.sol\":2316:2341  _getPeerOrRevert(_dstEid) */\n      tag_292\n        /* \"@layerzerolabs/oapp-evm/contracts/oapp/OAppSender.sol\":2333:2340  _dstEid */\n      dup10\n        /* \"@layerzerolabs/oapp-evm/contracts/oapp/OAppSender.sol\":2316:2332  _getPeerOrRevert */\n      tag_137\n        /* \"@layerzerolabs/oapp-evm/contracts/oapp/OAppSender.sol\":2316:2341  _getPeerOrRevert(_dstEid) */\n      jump\t// in\n    tag_292:\n        /* \"@layerzerolabs/oapp-evm/contracts/oapp/OAppSender.sol\":2291:2377  MessagingParams(_dstEid, _getPeerOrRevert(_dstEid), _message, _options, _payInLzToken) */\n      dup2\n      mstore\n      0x20\n      add\n        /* \"@layerzerolabs/oapp-evm/contracts/oapp/OAppSender.sol\":2343:2351  _message */\n      dup8\n        /* \"@layerzerolabs/oapp-evm/contracts/oapp/OAppSender.sol\":2291:2377  MessagingParams(_dstEid, _getPeerOrRevert(_dstEid), _message, _options, _payInLzToken) */\n      dup2\n      mstore\n      0x20\n      add\n        /* \"@layerzerolabs/oapp-evm/contracts/oapp/OAppSender.sol\":2353:2361  _options */\n      dup7\n        /* \"@layerzerolabs/oapp-evm/contracts/oapp/OAppSender.sol\":2291:2377  MessagingParams(_dstEid, _getPeerOrRevert(_dstEid), _message, _options, _payInLzToken) */\n      dup2\n      mstore\n      0x20\n      add\n        /* \"@layerzerolabs/oapp-evm/contracts/oapp/OAppSender.sol\":2363:2376  _payInLzToken */\n      dup6\n        /* \"@layerzerolabs/oapp-evm/contracts/oapp/OAppSender.sol\":2291:2377  MessagingParams(_dstEid, _getPeerOrRevert(_dstEid), _message, _options, _payInLzToken) */\n      iszero\n      iszero\n      dup2\n      mstore\n      pop\n        /* \"@layerzerolabs/oapp-evm/contracts/oapp/OAppSender.sol\":2403:2407  this */\n      address\n        /* \"@layerzerolabs/oapp-evm/contracts/oapp/OAppSender.sol\":2259:2422  endpoint.quote(... */\n      mload(0x40)\n      dup4\n      0xffffffff\n      and\n      0xe0\n      shl\n      dup2\n      mstore\n      0x04\n      add\n      tag_293\n      swap3\n      swap2\n      swap1\n      tag_294\n      jump\t// in\n    tag_293:\n      0x40\n      dup1\n      mload\n      dup1\n      dup4\n      sub\n      dup2\n      dup7\n      gas\n      staticcall\n      iszero\n      dup1\n      iszero\n      tag_296\n      jumpi\n      returndatasize\n      0x00\n      dup1\n      returndatacopy\n      revert(0x00, returndatasize)\n    tag_296:\n      pop\n      pop\n      pop\n      pop\n      mload(0x40)\n      returndatasize\n      not(0x1f)\n      0x1f\n      dup3\n      add\n      and\n      dup3\n      add\n      dup1\n      0x40\n      mstore\n      pop\n      dup2\n      add\n      swap1\n      tag_297\n      swap2\n      swap1\n      tag_298\n      jump\t// in\n    tag_297:\n        /* \"@layerzerolabs/oapp-evm/contracts/oapp/OAppSender.sol\":2240:2422  return... */\n      swap6\n        /* \"@layerzerolabs/oapp-evm/contracts/oapp/OAppSender.sol\":2038:2429  function _quote(... */\n      swap5\n      pop\n      pop\n      pop\n      pop\n      pop\n      jump\t// out\n        /* \"@openzeppelin/contracts/security/ReentrancyGuard.sol\":2336:2623  function _nonReentrantBefore() private {... */\n    tag_160:\n        /* \"@openzeppelin/contracts/security/ReentrancyGuard.sol\":1759:1760  2 */\n      0x02\n        /* \"@openzeppelin/contracts/security/ReentrancyGuard.sol\":2468:2475  _status */\n      dup1\n      sload\n        /* \"@openzeppelin/contracts/security/ReentrancyGuard.sol\":2468:2487  _status != _ENTERED */\n      sub\n        /* \"@openzeppelin/contracts/security/ReentrancyGuard.sol\":2460:2523  require(_status != _ENTERED, \"ReentrancyGuard: reentrant call\") */\n      tag_300\n      jumpi\n      mload(0x40)\n      shl(0xe5, 0x461bcd)\n      dup2\n      mstore\n        /* \"#utility.yul\":21196:21198   */\n      0x20\n        /* \"@openzeppelin/contracts/security/ReentrancyGuard.sol\":2460:2523  require(_status != _ENTERED, \"ReentrancyGuard: reentrant call\") */\n      0x04\n      dup3\n      add\n        /* \"#utility.yul\":21178:21199   */\n      mstore\n        /* \"#utility.yul\":21235:21237   */\n      0x1f\n        /* \"#utility.yul\":21215:21233   */\n      0x24\n      dup3\n      add\n        /* \"#utility.yul\":21208:21238   */\n      mstore\n        /* \"#utility.yul\":21274:21307   */\n      0x5265656e7472616e637947756172643a207265656e7472616e742063616c6c00\n        /* \"#utility.yul\":21254:21272   */\n      0x44\n      dup3\n      add\n        /* \"#utility.yul\":21247:21308   */\n      mstore\n        /* \"#utility.yul\":21325:21343   */\n      0x64\n      add\n        /* \"@openzeppelin/contracts/security/ReentrancyGuard.sol\":2460:2523  require(_status != _ENTERED, \"ReentrancyGuard: reentrant call\") */\n      tag_134\n        /* \"#utility.yul\":20994:21349   */\n      jump\n        /* \"@openzeppelin/contracts/security/ReentrancyGuard.sol\":2460:2523  require(_status != _ENTERED, \"ReentrancyGuard: reentrant call\") */\n    tag_300:\n        /* \"@openzeppelin/contracts/security/ReentrancyGuard.sol\":1759:1760  2 */\n      0x02\n        /* \"@openzeppelin/contracts/security/ReentrancyGuard.sol\":2598:2616  _status = _ENTERED */\n      dup1\n      sstore\n        /* \"@openzeppelin/contracts/security/ReentrancyGuard.sol\":2336:2623  function _nonReentrantBefore() private {... */\n      jump\t// out\n        /* \"@layerzerolabs/oapp-evm/contracts/oapp/OAppSender.sol\":3188:3954  function _lzSend(... */\n    tag_175:\n        /* \"@layerzerolabs/oapp-evm/contracts/oapp/OAppSender.sol\":3389:3420  MessagingReceipt memory receipt */\n      tag_303\n      tag_304\n      jump\t// in\n    tag_303:\n        /* \"@layerzerolabs/oapp-evm/contracts/oapp/OAppSender.sol\":3554:3574  uint256 messageValue */\n      0x00\n        /* \"@layerzerolabs/oapp-evm/contracts/oapp/OAppSender.sol\":3577:3603  _payNative(_fee.nativeFee) */\n      tag_306\n        /* \"@layerzerolabs/oapp-evm/contracts/oapp/OAppSender.sol\":3588:3592  _fee */\n      dup5\n        /* \"@layerzerolabs/oapp-evm/contracts/oapp/OAppSender.sol\":3588:3602  _fee.nativeFee */\n      0x00\n      add\n      mload\n        /* \"@layerzerolabs/oapp-evm/contracts/oapp/OAppSender.sol\":3577:3587  _payNative */\n      tag_307\n        /* \"@layerzerolabs/oapp-evm/contracts/oapp/OAppSender.sol\":3577:3603  _payNative(_fee.nativeFee) */\n      jump\t// in\n    tag_306:\n        /* \"@layerzerolabs/oapp-evm/contracts/oapp/OAppSender.sol\":3617:3632  _fee.lzTokenFee */\n      0x20\n      dup6\n      add\n      mload\n        /* \"@layerzerolabs/oapp-evm/contracts/oapp/OAppSender.sol\":3554:3603  uint256 messageValue = _payNative(_fee.nativeFee) */\n      swap1\n      swap2\n      pop\n        /* \"@layerzerolabs/oapp-evm/contracts/oapp/OAppSender.sol\":3617:3636  _fee.lzTokenFee > 0 */\n      iszero\n        /* \"@layerzerolabs/oapp-evm/contracts/oapp/OAppSender.sol\":3613:3666  if (_fee.lzTokenFee > 0) _payLzToken(_fee.lzTokenFee) */\n      tag_309\n      jumpi\n        /* \"@layerzerolabs/oapp-evm/contracts/oapp/OAppSender.sol\":3638:3666  _payLzToken(_fee.lzTokenFee) */\n      tag_309\n        /* \"@layerzerolabs/oapp-evm/contracts/oapp/OAppSender.sol\":3650:3654  _fee */\n      dup5\n        /* \"@layerzerolabs/oapp-evm/contracts/oapp/OAppSender.sol\":3650:3665  _fee.lzTokenFee */\n      0x20\n      add\n      mload\n        /* \"@layerzerolabs/oapp-evm/contracts/oapp/OAppSender.sol\":3638:3649  _payLzToken */\n      tag_310\n        /* \"@layerzerolabs/oapp-evm/contracts/oapp/OAppSender.sol\":3638:3666  _payLzToken(_fee.lzTokenFee) */\n      jump\t// in\n    tag_309:\n        /* \"@layerzerolabs/oapp-evm/contracts/oapp/OAppSender.sol\":3755:3763  endpoint */\n      immutable(\"0xef80077fd7ee005d1b0377e3e959eb59d0ca83c4839422f862a3540a66a91fb5\")\n      sub(shl(0xa0, 0x01), 0x01)\n        /* \"@layerzerolabs/oapp-evm/contracts/oapp/OAppSender.sol\":3755:3768  endpoint.send */\n      and\n      0x2637a450\n        /* \"@layerzerolabs/oapp-evm/contracts/oapp/OAppSender.sol\":3777:3789  messageValue */\n      dup3\n        /* \"@layerzerolabs/oapp-evm/contracts/oapp/OAppSender.sol\":3809:3901  MessagingParams(_dstEid, _getPeerOrRevert(_dstEid), _message, _options, _fee.lzTokenFee > 0) */\n      mload(0x40)\n      dup1\n      0xa0\n      add\n      0x40\n      mstore\n      dup1\n        /* \"@layerzerolabs/oapp-evm/contracts/oapp/OAppSender.sol\":3825:3832  _dstEid */\n      dup12\n        /* \"@layerzerolabs/oapp-evm/contracts/oapp/OAppSender.sol\":3809:3901  MessagingParams(_dstEid, _getPeerOrRevert(_dstEid), _message, _options, _fee.lzTokenFee > 0) */\n      0xffffffff\n      and\n      dup2\n      mstore\n      0x20\n      add\n        /* \"@layerzerolabs/oapp-evm/contracts/oapp/OAppSender.sol\":3834:3859  _getPeerOrRevert(_dstEid) */\n      tag_311\n        /* \"@layerzerolabs/oapp-evm/contracts/oapp/OAppSender.sol\":3851:3858  _dstEid */\n      dup13\n        /* \"@layerzerolabs/oapp-evm/contracts/oapp/OAppSender.sol\":3834:3850  _getPeerOrRevert */\n      tag_137\n        /* \"@layerzerolabs/oapp-evm/contracts/oapp/OAppSender.sol\":3834:3859  _getPeerOrRevert(_dstEid) */\n      jump\t// in\n    tag_311:\n        /* \"@layerzerolabs/oapp-evm/contracts/oapp/OAppSender.sol\":3809:3901  MessagingParams(_dstEid, _getPeerOrRevert(_dstEid), _message, _options, _fee.lzTokenFee > 0) */\n      dup2\n      mstore\n      0x20\n      add\n        /* \"@layerzerolabs/oapp-evm/contracts/oapp/OAppSender.sol\":3861:3869  _message */\n      dup11\n        /* \"@layerzerolabs/oapp-evm/contracts/oapp/OAppSender.sol\":3809:3901  MessagingParams(_dstEid, _getPeerOrRevert(_dstEid), _message, _options, _fee.lzTokenFee > 0) */\n      dup2\n      mstore\n      0x20\n      add\n        /* \"@layerzerolabs/oapp-evm/contracts/oapp/OAppSender.sol\":3871:3879  _options */\n      dup10\n        /* \"@layerzerolabs/oapp-evm/contracts/oapp/OAppSender.sol\":3809:3901  MessagingParams(_dstEid, _getPeerOrRevert(_dstEid), _message, _options, _fee.lzTokenFee > 0) */\n      dup2\n      mstore\n      0x20\n      add\n        /* \"@layerzerolabs/oapp-evm/contracts/oapp/OAppSender.sol\":3899:3900  0 */\n      0x00\n        /* \"@layerzerolabs/oapp-evm/contracts/oapp/OAppSender.sol\":3881:3885  _fee */\n      dup10\n        /* \"@layerzerolabs/oapp-evm/contracts/oapp/OAppSender.sol\":3881:3896  _fee.lzTokenFee */\n      0x20\n      add\n      mload\n        /* \"@layerzerolabs/oapp-evm/contracts/oapp/OAppSender.sol\":3881:3900  _fee.lzTokenFee > 0 */\n      gt\n        /* \"@layerzerolabs/oapp-evm/contracts/oapp/OAppSender.sol\":3809:3901  MessagingParams(_dstEid, _getPeerOrRevert(_dstEid), _message, _options, _fee.lzTokenFee > 0) */\n      iszero\n      iszero\n      dup2\n      mstore\n      pop\n        /* \"@layerzerolabs/oapp-evm/contracts/oapp/OAppSender.sol\":3919:3933  _refundAddress */\n      dup7\n        /* \"@layerzerolabs/oapp-evm/contracts/oapp/OAppSender.sol\":3755:3947  endpoint.send{ value: messageValue }(... */\n      mload(0x40)\n      dup5\n      0xffffffff\n      and\n      0xe0\n      shl\n      dup2\n      mstore\n      0x04\n      add\n      tag_312\n      swap3\n      swap2\n      swap1\n      tag_294\n      jump\t// in\n    tag_312:\n      0x80\n      mload(0x40)\n      dup1\n      dup4\n      sub\n      dup2\n      dup6\n      dup9\n      gas\n      call\n      iszero\n      dup1\n      iszero\n      tag_314\n      jumpi\n      returndatasize\n      0x00\n      dup1\n      returndatacopy\n      revert(0x00, returndatasize)\n    tag_314:\n      pop\n      pop\n      pop\n      pop\n      pop\n      mload(0x40)\n      returndatasize\n      not(0x1f)\n      0x1f\n      dup3\n      add\n      and\n      dup3\n      add\n      dup1\n      0x40\n      mstore\n      pop\n      dup2\n      add\n      swap1\n      tag_315\n      swap2\n      swap1\n      tag_316\n      jump\t// in\n    tag_315:\n        /* \"@layerzerolabs/oapp-evm/contracts/oapp/OAppSender.sol\":3677:3947  return... */\n      swap8\n        /* \"@layerzerolabs/oapp-evm/contracts/oapp/OAppSender.sol\":3188:3954  function _lzSend(... */\n      swap7\n      pop\n      pop\n      pop\n      pop\n      pop\n      pop\n      pop\n      jump\t// out\n        /* \"@openzeppelin/contracts/access/Ownable.sol\":2912:3099  function _transferOwnership(address newOwner) internal virtual {... */\n    tag_215:\n        /* \"@openzeppelin/contracts/access/Ownable.sol\":2985:3001  address oldOwner */\n      0x00\n        /* \"@openzeppelin/contracts/access/Ownable.sol\":3004:3010  _owner */\n      dup1\n      sload\n      sub(shl(0xa0, 0x01), 0x01)\n        /* \"@openzeppelin/contracts/access/Ownable.sol\":3020:3037  _owner = newOwner */\n      dup4\n      dup2\n      and\n      not(sub(shl(0xa0, 0x01), 0x01))\n      dup4\n      and\n      dup2\n      or\n      dup5\n      sstore\n        /* \"@openzeppelin/contracts/access/Ownable.sol\":3052:3092  OwnershipTransferred(oldOwner, newOwner) */\n      mload(0x40)\n        /* \"@openzeppelin/contracts/access/Ownable.sol\":3004:3010  _owner */\n      swap2\n      swap1\n      swap3\n      and\n      swap3\n      dup4\n      swap2\n        /* \"@openzeppelin/contracts/access/Ownable.sol\":3052:3092  OwnershipTransferred(oldOwner, newOwner) */\n      0x8be0079c531659141344cd1fd0a4f28419497f9722a3daafe3b4186f6b6457e0\n      swap2\n        /* \"@openzeppelin/contracts/access/Ownable.sol\":2985:3001  address oldOwner */\n      swap1\n        /* \"@openzeppelin/contracts/access/Ownable.sol\":3052:3092  OwnershipTransferred(oldOwner, newOwner) */\n      log3\n        /* \"@openzeppelin/contracts/access/Ownable.sol\":2975:3099  {... */\n      pop\n        /* \"@openzeppelin/contracts/access/Ownable.sol\":2912:3099  function _transferOwnership(address newOwner) internal virtual {... */\n      pop\n      jump\t// out\n        /* \"profile-fees-getter.sol\":8940:9949  function _handleProfileResponse(bytes calldata payload) internal {... */\n    tag_280:\n        /* \"profile-fees-getter.sol\":9043:9060  bytes32 requestId */\n      0x00\n      dup1\n      dup1\n      dup1\n      dup1\n      dup1\n      dup1\n        /* \"profile-fees-getter.sol\":9268:9358  abi.decode(payload, (uint8, bytes32, uint256, address, string, string[], string, uint256)) */\n      tag_320\n      dup9\n      dup11\n      add\n        /* \"profile-fees-getter.sol\":9279:9286  payload */\n      dup11\n        /* \"profile-fees-getter.sol\":9268:9358  abi.decode(payload, (uint8, bytes32, uint256, address, string, string[], string, uint256)) */\n      tag_321\n      jump\t// in\n    tag_320:\n        /* \"profile-fees-getter.sol\":9377:9394  address requester */\n      0x00\n        /* \"profile-fees-getter.sol\":9397:9423  pendingRequests[requestId] */\n      dup8\n      dup2\n      mstore\n        /* \"profile-fees-getter.sol\":9397:9412  pendingRequests */\n      0x03\n        /* \"profile-fees-getter.sol\":9397:9423  pendingRequests[requestId] */\n      0x20\n      mstore\n      0x40\n      swap1\n      keccak256\n      sload\n        /* \"profile-fees-getter.sol\":9015:9358  (... */\n      swap7\n      swap15\n      pop\n      swap5\n      swap13\n      pop\n      swap3\n      swap11\n      pop\n      swap1\n      swap9\n      pop\n      swap7\n      pop\n      swap5\n      pop\n      swap3\n      pop\n      sub(shl(0xa0, 0x01), 0x01)\n        /* \"profile-fees-getter.sol\":9397:9423  pendingRequests[requestId] */\n      and\n      swap1\n      pop\n      dup1\n        /* \"profile-fees-getter.sol\":9433:9487  require(requester != address(0), \"Invalid request ID\") */\n      tag_322\n      jumpi\n      mload(0x40)\n      shl(0xe5, 0x461bcd)\n      dup2\n      mstore\n        /* \"#utility.yul\":23798:23800   */\n      0x20\n        /* \"profile-fees-getter.sol\":9433:9487  require(requester != address(0), \"Invalid request ID\") */\n      0x04\n      dup3\n      add\n        /* \"#utility.yul\":23780:23801   */\n      mstore\n        /* \"#utility.yul\":23837:23839   */\n      0x12\n        /* \"#utility.yul\":23817:23835   */\n      0x24\n      dup3\n      add\n        /* \"#utility.yul\":23810:23840   */\n      mstore\n      shl(0x72, 0x125b9d985b1a59081c995c5d595cdd081251)\n        /* \"#utility.yul\":23856:23874   */\n      0x44\n      dup3\n      add\n        /* \"#utility.yul\":23849:23897   */\n      mstore\n        /* \"#utility.yul\":23914:23932   */\n      0x64\n      add\n        /* \"profile-fees-getter.sol\":9433:9487  require(requester != address(0), \"Invalid request ID\") */\n      tag_134\n        /* \"#utility.yul\":23596:23938   */\n      jump\n        /* \"profile-fees-getter.sol\":9433:9487  require(requester != address(0), \"Invalid request ID\") */\n    tag_322:\n        /* \"profile-fees-getter.sol\":9549:9575  pendingRequests[requestId] */\n      0x00\n      dup9\n      dup2\n      mstore\n        /* \"profile-fees-getter.sol\":9549:9564  pendingRequests */\n      0x03\n        /* \"profile-fees-getter.sol\":9549:9575  pendingRequests[requestId] */\n      0x20\n      swap1\n      dup2\n      mstore\n      0x40\n      dup1\n      dup4\n      keccak256\n        /* \"profile-fees-getter.sol\":9542:9575  delete pendingRequests[requestId] */\n      dup1\n      sload\n      not(sub(shl(0xa0, 0x01), 0x01))\n      swap1\n      dup2\n      and\n      swap1\n      swap2\n      sstore\n        /* \"profile-fees-getter.sol\":9670:9869  CachedProfile({... */\n      dup2\n      mload\n      0xc0\n      dup2\n      add\n      dup4\n      mstore\n      sub(shl(0xa0, 0x01), 0x01)\n      dup12\n      dup2\n      and\n      dup3\n      mstore\n      dup2\n      dup6\n      add\n      dup12\n      dup2\n      mstore\n      dup3\n      dup6\n      add\n      dup12\n      swap1\n      mstore\n      0x60\n      dup4\n      add\n      dup11\n      swap1\n      mstore\n      0x80\n      dup4\n      add\n      dup10\n      swap1\n      mstore\n        /* \"profile-fees-getter.sol\":9542:9575  delete pendingRequests[requestId] */\n      0x01\n        /* \"profile-fees-getter.sol\":9670:9869  CachedProfile({... */\n      0xa0\n      dup5\n      add\n      dup2\n      swap1\n      mstore\n        /* \"profile-fees-getter.sol\":9642:9667  cachedProfiles[profileId] */\n      dup15\n      dup9\n      mstore\n        /* \"profile-fees-getter.sol\":9642:9656  cachedProfiles */\n      0x05\n        /* \"profile-fees-getter.sol\":9642:9667  cachedProfiles[profileId] */\n      swap1\n      swap7\n      mstore\n      swap4\n      swap1\n      swap6\n      keccak256\n        /* \"profile-fees-getter.sol\":9642:9869  cachedProfiles[profileId] = CachedProfile({... */\n      dup2\n      mload\n      dup2\n      sload\n      swap7\n      and\n      swap6\n      swap1\n      swap3\n      and\n      swap5\n      swap1\n      swap5\n      or\n      dup2\n      sstore\n      swap1\n      mload\n        /* \"profile-fees-getter.sol\":9642:9667  cachedProfiles[profileId] */\n      swap1\n      swap2\n        /* \"profile-fees-getter.sol\":9642:9869  cachedProfiles[profileId] = CachedProfile({... */\n      dup3\n      add\n      swap1\n      tag_325\n      swap1\n      dup3\n      tag_326\n      jump\t// in\n    tag_325:\n      pop\n      0x40\n      dup3\n      add\n      mload\n      dup1\n      mload\n      tag_327\n      swap2\n      0x02\n      dup5\n      add\n      swap2\n      0x20\n      swap1\n      swap2\n      add\n      swap1\n      tag_328\n      jump\t// in\n    tag_327:\n      pop\n      0x60\n      dup3\n      add\n      mload\n      0x03\n      dup3\n      add\n      swap1\n      tag_329\n      swap1\n      dup3\n      tag_326\n      jump\t// in\n    tag_329:\n      pop\n      0x80\n      dup3\n      add\n      mload\n      0x04\n      dup3\n      add\n      sstore\n      0xa0\n      swap1\n      swap2\n      add\n      mload\n      0x05\n      swap1\n      swap2\n      add\n      dup1\n      sload\n      not(0xff)\n      and\n      swap2\n      iszero\n      iszero\n      swap2\n      swap1\n      swap2\n      or\n      swap1\n      sstore\n        /* \"profile-fees-getter.sol\":9893:9942  ProfileReceived(requester, profileId, user, name) */\n      mload(0x40)\n        /* \"profile-fees-getter.sol\":9920:9929  profileId */\n      dup8\n      swap1\n      sub(shl(0xa0, 0x01), 0x01)\n        /* \"profile-fees-getter.sol\":9893:9942  ProfileReceived(requester, profileId, user, name) */\n      dup4\n      and\n      swap1\n      0x1bbdaea743d9c55a6d1fa9c544d8a14c9b977efb044e84f79e85a9db7f6a58f6\n      swap1\n      tag_330\n      swap1\n        /* \"profile-fees-getter.sol\":9931:9935  user */\n      dup11\n      swap1\n        /* \"profile-fees-getter.sol\":9937:9941  name */\n      dup11\n      swap1\n        /* \"profile-fees-getter.sol\":9893:9942  ProfileReceived(requester, profileId, user, name) */\n      tag_331\n      jump\t// in\n    tag_330:\n      mload(0x40)\n      dup1\n      swap2\n      sub\n      swap1\n      log3\n        /* \"profile-fees-getter.sol\":9005:9949  {... */\n      pop\n      pop\n      pop\n      pop\n      pop\n      pop\n      pop\n      pop\n        /* \"profile-fees-getter.sol\":8940:9949  function _handleProfileResponse(bytes calldata payload) internal {... */\n      pop\n      pop\n      jump\t// out\n        /* \"@layerzerolabs/oapp-evm/contracts/oapp/OAppSender.sol\":4650:4841  function _payNative(uint256 _nativeFee) internal virtual returns (uint256 nativeFee) {... */\n    tag_307:\n        /* \"@layerzerolabs/oapp-evm/contracts/oapp/OAppSender.sol\":4716:4733  uint256 nativeFee */\n      0x00\n        /* \"@layerzerolabs/oapp-evm/contracts/oapp/OAppSender.sol\":4762:4772  _nativeFee */\n      dup2\n        /* \"@layerzerolabs/oapp-evm/contracts/oapp/OAppSender.sol\":4749:4758  msg.value */\n      callvalue\n        /* \"@layerzerolabs/oapp-evm/contracts/oapp/OAppSender.sol\":4749:4772  msg.value != _nativeFee */\n      eq\n        /* \"@layerzerolabs/oapp-evm/contracts/oapp/OAppSender.sol\":4745:4807  if (msg.value != _nativeFee) revert NotEnoughNative(msg.value) */\n      tag_334\n      jumpi\n        /* \"@layerzerolabs/oapp-evm/contracts/oapp/OAppSender.sol\":4781:4807  NotEnoughNative(msg.value) */\n      mload(0x40)\n      shl(0xe5, 0x04fb8209)\n      dup2\n      mstore\n        /* \"@layerzerolabs/oapp-evm/contracts/oapp/OAppSender.sol\":4797:4806  msg.value */\n      callvalue\n        /* \"@layerzerolabs/oapp-evm/contracts/oapp/OAppSender.sol\":4781:4807  NotEnoughNative(msg.value) */\n      0x04\n      dup3\n      add\n        /* \"#utility.yul\":9104:9129   */\n      mstore\n        /* \"#utility.yul\":9077:9095   */\n      0x24\n      add\n        /* \"@layerzerolabs/oapp-evm/contracts/oapp/OAppSender.sol\":4781:4807  NotEnoughNative(msg.value) */\n      tag_134\n        /* \"#utility.yul\":8958:9135   */\n      jump\n        /* \"@layerzerolabs/oapp-evm/contracts/oapp/OAppSender.sol\":4745:4807  if (msg.value != _nativeFee) revert NotEnoughNative(msg.value) */\n    tag_334:\n      pop\n        /* \"@layerzerolabs/oapp-evm/contracts/oapp/OAppSender.sol\":4824:4834  _nativeFee */\n      swap1\n        /* \"@layerzerolabs/oapp-evm/contracts/oapp/OAppSender.sol\":4650:4841  function _payNative(uint256 _nativeFee) internal virtual returns (uint256 nativeFee) {... */\n      jump\t// out\n        /* \"@layerzerolabs/oapp-evm/contracts/oapp/OAppSender.sol\":5218:5628  function _payLzToken(uint256 _lzTokenFee) internal virtual {... */\n    tag_310:\n        /* \"@layerzerolabs/oapp-evm/contracts/oapp/OAppSender.sol\":5371:5386  address lzToken */\n      0x00\n        /* \"@layerzerolabs/oapp-evm/contracts/oapp/OAppSender.sol\":5389:5397  endpoint */\n      immutable(\"0xef80077fd7ee005d1b0377e3e959eb59d0ca83c4839422f862a3540a66a91fb5\")\n      sub(shl(0xa0, 0x01), 0x01)\n        /* \"@layerzerolabs/oapp-evm/contracts/oapp/OAppSender.sol\":5389:5405  endpoint.lzToken */\n      and\n      0xe4fe1d94\n        /* \"@layerzerolabs/oapp-evm/contracts/oapp/OAppSender.sol\":5389:5407  endpoint.lzToken() */\n      mload(0x40)\n      dup2\n      0xffffffff\n      and\n      0xe0\n      shl\n      dup2\n      mstore\n      0x04\n      add\n      0x20\n      mload(0x40)\n      dup1\n      dup4\n      sub\n      dup2\n      dup7\n      gas\n      staticcall\n      iszero\n      dup1\n      iszero\n      tag_338\n      jumpi\n      returndatasize\n      0x00\n      dup1\n      returndatacopy\n      revert(0x00, returndatasize)\n    tag_338:\n      pop\n      pop\n      pop\n      pop\n      mload(0x40)\n      returndatasize\n      not(0x1f)\n      0x1f\n      dup3\n      add\n      and\n      dup3\n      add\n      dup1\n      0x40\n      mstore\n      pop\n      dup2\n      add\n      swap1\n      tag_339\n      swap2\n      swap1\n      tag_340\n      jump\t// in\n    tag_339:\n        /* \"@layerzerolabs/oapp-evm/contracts/oapp/OAppSender.sol\":5371:5407  address lzToken = endpoint.lzToken() */\n      swap1\n      pop\n      sub(shl(0xa0, 0x01), 0x01)\n        /* \"@layerzerolabs/oapp-evm/contracts/oapp/OAppSender.sol\":5421:5442  lzToken == address(0) */\n      dup2\n      and\n        /* \"@layerzerolabs/oapp-evm/contracts/oapp/OAppSender.sol\":5417:5471  if (lzToken == address(0)) revert LzTokenUnavailable() */\n      tag_341\n      jumpi\n        /* \"@layerzerolabs/oapp-evm/contracts/oapp/OAppSender.sol\":5451:5471  LzTokenUnavailable() */\n      mload(0x40)\n      shl(0xe1, 0x29b99a95)\n      dup2\n      mstore\n      0x04\n      add\n      mload(0x40)\n      dup1\n      swap2\n      sub\n      swap1\n      revert\n        /* \"@layerzerolabs/oapp-evm/contracts/oapp/OAppSender.sol\":5417:5471  if (lzToken == address(0)) revert LzTokenUnavailable() */\n    tag_341:\n        /* \"@openzeppelin/contracts/token/ERC20/utils/SafeERC20.sol\":1745:1798  abi.encodeCall(token.transferFrom, (from, to, value)) */\n      0x40\n      dup1\n      mload\n        /* \"@layerzerolabs/oapp-evm/contracts/oapp/OAppSender.sol\":5578:5588  msg.sender */\n      caller\n        /* \"@openzeppelin/contracts/token/ERC20/utils/SafeERC20.sol\":1745:1798  abi.encodeCall(token.transferFrom, (from, to, value)) */\n      0x24\n      dup3\n      add\n        /* \"#utility.yul\":15421:15495   */\n      dup2\n      swap1\n      mstore\n        /* \"@layerzerolabs/oapp-evm/contracts/oapp/OAppSender.sol\":5598:5606  endpoint */\n      immutable(\"0xef80077fd7ee005d1b0377e3e959eb59d0ca83c4839422f862a3540a66a91fb5\")\n      sub(shl(0xa0, 0x01), 0x01)\n        /* \"#utility.yul\":15531:15586   */\n      dup2\n      dup2\n      and\n        /* \"#utility.yul\":15511:15529   */\n      0x44\n      dup6\n      add\n        /* \"#utility.yul\":15504:15587   */\n      mstore\n        /* \"#utility.yul\":15603:15621   */\n      0x64\n      dup1\n      dup6\n      add\n        /* \"#utility.yul\":15596:15630   */\n      dup9\n      swap1\n      mstore\n        /* \"@openzeppelin/contracts/token/ERC20/utils/SafeERC20.sol\":1745:1798  abi.encodeCall(token.transferFrom, (from, to, value)) */\n      dup6\n      mload\n      dup1\n      dup7\n      sub\n      swap1\n      swap2\n      add\n      dup2\n      mstore\n        /* \"#utility.yul\":15394:15412   */\n      0x84\n      swap1\n      swap5\n      add\n        /* \"@openzeppelin/contracts/token/ERC20/utils/SafeERC20.sol\":1745:1798  abi.encodeCall(token.transferFrom, (from, to, value)) */\n      swap1\n      swap5\n      mstore\n      0x20\n      dup1\n      dup5\n      add\n      dup1\n      mload\n      sub(shl(0xe0, 0x01), 0x01)\n      and\n      shl(0xe0, 0x23b872dd)\n      or\n      dup2\n      mstore\n        /* \"@openzeppelin/contracts/token/ERC20/utils/SafeERC20.sol\":8600:8611  mload(data) */\n      dup5\n      mload\n        /* \"@layerzerolabs/oapp-evm/contracts/oapp/OAppSender.sol\":5545:5621  IERC20(lzToken).safeTransferFrom(msg.sender, address(endpoint), _lzTokenFee) */\n      tag_149\n      swap7\n        /* \"@layerzerolabs/oapp-evm/contracts/oapp/OAppSender.sol\":5545:5577  IERC20(lzToken).safeTransferFrom */\n      dup9\n      and\n      swap6\n        /* \"@layerzerolabs/oapp-evm/contracts/oapp/OAppSender.sol\":5609:5620  _lzTokenFee */\n      dup10\n      swap4\n        /* \"@openzeppelin/contracts/token/ERC20/utils/SafeERC20.sol\":1718:1799  _callOptionalReturn(token, abi.encodeCall(token.transferFrom, (from, to, value))) */\n      tag_178\n      swap4\n        /* \"@layerzerolabs/oapp-evm/contracts/oapp/OAppSender.sol\":5545:5577  IERC20(lzToken).safeTransferFrom */\n      dup9\n      swap4\n      0x00\n      swap3\n      dup4\n      swap3\n        /* \"@openzeppelin/contracts/token/ERC20/utils/SafeERC20.sol\":1745:1798  abi.encodeCall(token.transferFrom, (from, to, value)) */\n      swap1\n      swap2\n      dup4\n      swap2\n      dup3\n        /* \"@layerzerolabs/oapp-evm/contracts/oapp/OAppSender.sol\":5545:5577  IERC20(lzToken).safeTransferFrom */\n      dup9\n        /* \"@openzeppelin/contracts/token/ERC20/utils/SafeERC20.sol\":8566:8571  gas() */\n      gas\n        /* \"@openzeppelin/contracts/token/ERC20/utils/SafeERC20.sol\":8561:8621  call(gas(), token, 0, add(data, 0x20), mload(data), 0, 0x20) */\n      call\n        /* \"@openzeppelin/contracts/token/ERC20/utils/SafeERC20.sol\":8673:8680  success */\n      dup1\n        /* \"@openzeppelin/contracts/token/ERC20/utils/SafeERC20.sol\":8663:8839  if iszero(success) {... */\n      tag_349\n      jumpi\n        /* \"@openzeppelin/contracts/token/ERC20/utils/SafeERC20.sol\":8717:8721  0x40 */\n      0x40\n        /* \"@openzeppelin/contracts/token/ERC20/utils/SafeERC20.sol\":8711:8722  mload(0x40) */\n      mload\n        /* \"@openzeppelin/contracts/token/ERC20/utils/SafeERC20.sol\":8762:8778  returndatasize() */\n      returndatasize\n        /* \"@openzeppelin/contracts/token/ERC20/utils/SafeERC20.sol\":8759:8760  0 */\n      0x00\n        /* \"@openzeppelin/contracts/token/ERC20/utils/SafeERC20.sol\":8754:8757  ptr */\n      dup3\n        /* \"@openzeppelin/contracts/token/ERC20/utils/SafeERC20.sol\":8739:8779  returndatacopy(ptr, 0, returndatasize()) */\n      returndatacopy\n        /* \"@openzeppelin/contracts/token/ERC20/utils/SafeERC20.sol\":8808:8824  returndatasize() */\n      returndatasize\n        /* \"@openzeppelin/contracts/token/ERC20/utils/SafeERC20.sol\":8803:8806  ptr */\n      dup2\n        /* \"@openzeppelin/contracts/token/ERC20/utils/SafeERC20.sol\":8796:8825  revert(ptr, returndatasize()) */\n      revert\n        /* \"@openzeppelin/contracts/token/ERC20/utils/SafeERC20.sol\":8663:8839  if iszero(success) {... */\n    tag_349:\n      pop\n      pop\n        /* \"@openzeppelin/contracts/token/ERC20/utils/SafeERC20.sol\":8916:8917  0 */\n      0x00\n        /* \"@openzeppelin/contracts/token/ERC20/utils/SafeERC20.sol\":8910:8918  mload(0) */\n      mload\n        /* \"@openzeppelin/contracts/token/ERC20/utils/SafeERC20.sol\":8866:8882  returndatasize() */\n      returndatasize\n      swap2\n      pop\n        /* \"@openzeppelin/contracts/token/ERC20/utils/SafeERC20.sol\":8942:8957  returnSize == 0 */\n      dup2\n      iszero\n        /* \"@openzeppelin/contracts/token/ERC20/utils/SafeERC20.sol\":8942:9010  returnSize == 0 ? address(token).code.length == 0 : returnValue != 1 */\n      tag_350\n      jumpi\n        /* \"@openzeppelin/contracts/token/ERC20/utils/SafeERC20.sol\":8994:9005  returnValue */\n      dup1\n        /* \"@openzeppelin/contracts/token/ERC20/utils/SafeERC20.sol\":9009:9010  1 */\n      0x01\n        /* \"@openzeppelin/contracts/token/ERC20/utils/SafeERC20.sol\":8994:9010  returnValue != 1 */\n      eq\n      iszero\n        /* \"@openzeppelin/contracts/token/ERC20/utils/SafeERC20.sol\":8942:9010  returnSize == 0 ? address(token).code.length == 0 : returnValue != 1 */\n      jump(tag_351)\n    tag_350:\n      sub(shl(0xa0, 0x01), 0x01)\n        /* \"@openzeppelin/contracts/token/ERC20/utils/SafeERC20.sol\":8960:8986  address(token).code.length */\n      dup5\n      and\n      extcodesize\n        /* \"@openzeppelin/contracts/token/ERC20/utils/SafeERC20.sol\":8960:8991  address(token).code.length == 0 */\n      iszero\n        /* \"@openzeppelin/contracts/token/ERC20/utils/SafeERC20.sol\":8942:9010  returnSize == 0 ? address(token).code.length == 0 : returnValue != 1 */\n    tag_351:\n        /* \"@openzeppelin/contracts/token/ERC20/utils/SafeERC20.sol\":8938:9084  if (returnSize == 0 ? address(token).code.length == 0 : returnValue != 1) {... */\n      iszero\n      tag_178\n      jumpi\n        /* \"@openzeppelin/contracts/token/ERC20/utils/SafeERC20.sol\":9033:9073  SafeERC20FailedOperation(address(token)) */\n      mload(0x40)\n      shl(0xe0, 0x5274afe7)\n      dup2\n      mstore\n      sub(shl(0xa0, 0x01), 0x01)\n        /* \"#utility.yul\":3855:3910   */\n      dup6\n      and\n        /* \"@openzeppelin/contracts/token/ERC20/utils/SafeERC20.sol\":9033:9073  SafeERC20FailedOperation(address(token)) */\n      0x04\n      dup3\n      add\n        /* \"#utility.yul\":3837:3911   */\n      mstore\n        /* \"#utility.yul\":3810:3828   */\n      0x24\n      add\n        /* \"@openzeppelin/contracts/token/ERC20/utils/SafeERC20.sol\":9033:9073  SafeERC20FailedOperation(address(token)) */\n      tag_134\n        /* \"#utility.yul\":3691:3917   */\n      jump\n    tag_304:\n      mload(0x40)\n      dup1\n      0x60\n      add\n      0x40\n      mstore\n      dup1\n      0x00\n      dup1\n      not\n      and\n      dup2\n      mstore\n      0x20\n      add\n      and(sub(shl(0x40, 0x01), 0x01), 0x00)\n      dup2\n      mstore\n      0x20\n      add\n      tag_354\n      mload(0x40)\n      dup1\n      0x40\n      add\n      0x40\n      mstore\n      dup1\n      0x00\n      dup2\n      mstore\n      0x20\n      add\n      0x00\n      dup2\n      mstore\n      pop\n      swap1\n      jump\n    tag_354:\n      swap1\n      mstore\n      swap1\n      jump\t// out\n    tag_328:\n      dup3\n      dup1\n      sload\n      dup3\n      dup3\n      sstore\n      swap1\n      0x00\n      mstore\n      keccak256(0x00, 0x20)\n      swap1\n      dup2\n      add\n      swap3\n      dup3\n      iszero\n      tag_357\n      jumpi\n      swap2\n      0x20\n      mul\n      dup3\n      add\n    tag_356:\n      dup3\n      dup2\n      gt\n      iszero\n      tag_357\n      jumpi\n      dup3\n      mload\n      dup3\n      swap1\n      tag_358\n      swap1\n      dup3\n      tag_326\n      jump\t// in\n    tag_358:\n      pop\n      swap2\n      0x20\n      add\n      swap2\n      swap1\n      0x01\n      add\n      swap1\n      jump(tag_356)\n    tag_357:\n      pop\n      tag_334\n      swap3\n      swap2\n      pop\n    tag_360:\n      dup1\n      dup3\n      gt\n      iszero\n      tag_334\n      jumpi\n      0x00\n      tag_363\n      dup3\n      dup3\n      tag_364\n      jump\t// in\n    tag_363:\n      pop\n      0x01\n      add\n      jump(tag_360)\n    tag_364:\n      pop\n      dup1\n      sload\n      tag_365\n      swap1\n      tag_251\n      jump\t// in\n    tag_365:\n      0x00\n      dup3\n      sstore\n      dup1\n      0x1f\n      lt\n      tag_367\n      jumpi\n      pop\n      pop\n      jump\t// out\n    tag_367:\n      0x1f\n      add\n      0x20\n      swap1\n      div\n      swap1\n      0x00\n      mstore\n      keccak256(0x00, 0x20)\n      swap1\n      dup2\n      add\n      swap1\n      tag_248\n      swap2\n      swap1\n    tag_370:\n      dup1\n      dup3\n      gt\n      iszero\n      tag_334\n      jumpi\n      0x00\n      dup2\n      sstore\n      0x01\n      add\n      jump(tag_370)\n        /* \"#utility.yul\":14:168   */\n    tag_372:\n        /* \"#utility.yul\":73:78   */\n      0x00\n        /* \"#utility.yul\":118:120   */\n      0x60\n        /* \"#utility.yul\":109:115   */\n      dup3\n        /* \"#utility.yul\":104:107   */\n      dup5\n        /* \"#utility.yul\":100:116   */\n      sub\n        /* \"#utility.yul\":96:121   */\n      slt\n        /* \"#utility.yul\":93:138   */\n      iszero\n      tag_390\n      jumpi\n        /* \"#utility.yul\":134:135   */\n      0x00\n        /* \"#utility.yul\":131:132   */\n      dup1\n        /* \"#utility.yul\":124:136   */\n      revert\n        /* \"#utility.yul\":93:138   */\n    tag_390:\n      pop\n        /* \"#utility.yul\":156:162   */\n      swap2\n        /* \"#utility.yul\":14:168   */\n      swap1\n      pop\n      jump\t// out\n        /* \"#utility.yul\":173:520   */\n    tag_373:\n        /* \"#utility.yul\":224:232   */\n      0x00\n        /* \"#utility.yul\":234:240   */\n      dup1\n        /* \"#utility.yul\":288:291   */\n      dup4\n        /* \"#utility.yul\":281:285   */\n      0x1f\n        /* \"#utility.yul\":273:279   */\n      dup5\n        /* \"#utility.yul\":269:286   */\n      add\n        /* \"#utility.yul\":265:292   */\n      slt\n        /* \"#utility.yul\":255:310   */\n      tag_392\n      jumpi\n        /* \"#utility.yul\":306:307   */\n      0x00\n        /* \"#utility.yul\":303:304   */\n      dup1\n        /* \"#utility.yul\":296:308   */\n      revert\n        /* \"#utility.yul\":255:310   */\n    tag_392:\n      pop\n        /* \"#utility.yul\":329:349   */\n      dup2\n      calldataload\n      sub(shl(0x40, 0x01), 0x01)\n        /* \"#utility.yul\":361:391   */\n      dup2\n      gt\n        /* \"#utility.yul\":358:408   */\n      iszero\n      tag_393\n      jumpi\n        /* \"#utility.yul\":404:405   */\n      0x00\n        /* \"#utility.yul\":401:402   */\n      dup1\n        /* \"#utility.yul\":394:406   */\n      revert\n        /* \"#utility.yul\":358:408   */\n    tag_393:\n        /* \"#utility.yul\":441:445   */\n      0x20\n        /* \"#utility.yul\":433:439   */\n      dup4\n        /* \"#utility.yul\":429:446   */\n      add\n        /* \"#utility.yul\":417:446   */\n      swap2\n      pop\n        /* \"#utility.yul\":493:496   */\n      dup4\n        /* \"#utility.yul\":486:490   */\n      0x20\n        /* \"#utility.yul\":477:483   */\n      dup3\n        /* \"#utility.yul\":469:475   */\n      dup6\n        /* \"#utility.yul\":465:484   */\n      add\n        /* \"#utility.yul\":461:491   */\n      add\n        /* \"#utility.yul\":458:497   */\n      gt\n        /* \"#utility.yul\":455:514   */\n      iszero\n      tag_394\n      jumpi\n        /* \"#utility.yul\":510:511   */\n      0x00\n        /* \"#utility.yul\":507:508   */\n      dup1\n        /* \"#utility.yul\":500:512   */\n      revert\n        /* \"#utility.yul\":455:514   */\n    tag_394:\n        /* \"#utility.yul\":173:520   */\n      swap3\n      pop\n      swap3\n      swap1\n      pop\n      jump\t// out\n        /* \"#utility.yul\":525:679   */\n    tag_374:\n      sub(shl(0xa0, 0x01), 0x01)\n        /* \"#utility.yul\":604:609   */\n      dup2\n        /* \"#utility.yul\":600:654   */\n      and\n        /* \"#utility.yul\":593:598   */\n      dup2\n        /* \"#utility.yul\":590:655   */\n      eq\n        /* \"#utility.yul\":580:673   */\n      tag_248\n      jumpi\n        /* \"#utility.yul\":669:670   */\n      0x00\n        /* \"#utility.yul\":666:667   */\n      dup1\n        /* \"#utility.yul\":659:671   */\n      revert\n        /* \"#utility.yul\":684:1777   */\n    tag_30:\n        /* \"#utility.yul\":825:831   */\n      0x00\n        /* \"#utility.yul\":833:839   */\n      dup1\n        /* \"#utility.yul\":841:847   */\n      0x00\n        /* \"#utility.yul\":849:855   */\n      dup1\n        /* \"#utility.yul\":857:863   */\n      0x00\n        /* \"#utility.yul\":865:871   */\n      dup1\n        /* \"#utility.yul\":873:879   */\n      0x00\n        /* \"#utility.yul\":926:929   */\n      0xe0\n        /* \"#utility.yul\":914:923   */\n      dup9\n        /* \"#utility.yul\":905:912   */\n      dup11\n        /* \"#utility.yul\":901:924   */\n      sub\n        /* \"#utility.yul\":897:930   */\n      slt\n        /* \"#utility.yul\":894:947   */\n      iszero\n      tag_398\n      jumpi\n        /* \"#utility.yul\":943:944   */\n      0x00\n        /* \"#utility.yul\":940:941   */\n      dup1\n        /* \"#utility.yul\":933:945   */\n      revert\n        /* \"#utility.yul\":894:947   */\n    tag_398:\n        /* \"#utility.yul\":966:1019   */\n      tag_399\n        /* \"#utility.yul\":1011:1018   */\n      dup10\n        /* \"#utility.yul\":1000:1009   */\n      dup10\n        /* \"#utility.yul\":966:1019   */\n      tag_372\n      jump\t// in\n    tag_399:\n        /* \"#utility.yul\":956:1019   */\n      swap7\n      pop\n        /* \"#utility.yul\":1088:1090   */\n      0x60\n        /* \"#utility.yul\":1073:1091   */\n      dup9\n      add\n        /* \"#utility.yul\":1060:1092   */\n      calldataload\n      swap6\n      pop\n        /* \"#utility.yul\":1167:1170   */\n      0x80\n        /* \"#utility.yul\":1152:1171   */\n      dup9\n      add\n        /* \"#utility.yul\":1139:1172   */\n      calldataload\n      sub(shl(0x40, 0x01), 0x01)\n        /* \"#utility.yul\":1184:1214   */\n      dup2\n      gt\n        /* \"#utility.yul\":1181:1231   */\n      iszero\n      tag_400\n      jumpi\n        /* \"#utility.yul\":1227:1228   */\n      0x00\n        /* \"#utility.yul\":1224:1225   */\n      dup1\n        /* \"#utility.yul\":1217:1229   */\n      revert\n        /* \"#utility.yul\":1181:1231   */\n    tag_400:\n        /* \"#utility.yul\":1266:1324   */\n      tag_401\n        /* \"#utility.yul\":1316:1323   */\n      dup11\n        /* \"#utility.yul\":1307:1313   */\n      dup3\n        /* \"#utility.yul\":1296:1305   */\n      dup12\n        /* \"#utility.yul\":1292:1314   */\n      add\n        /* \"#utility.yul\":1266:1324   */\n      tag_373\n      jump\t// in\n    tag_401:\n        /* \"#utility.yul\":1343:1351   */\n      swap1\n      swap7\n      pop\n        /* \"#utility.yul\":1240:1324   */\n      swap5\n      pop\n      pop\n        /* \"#utility.yul\":1430:1433   */\n      0xa0\n        /* \"#utility.yul\":1415:1434   */\n      dup9\n      add\n        /* \"#utility.yul\":1402:1435   */\n      calldataload\n        /* \"#utility.yul\":1444:1477   */\n      tag_402\n        /* \"#utility.yul\":1402:1435   */\n      dup2\n        /* \"#utility.yul\":1444:1477   */\n      tag_374\n      jump\t// in\n    tag_402:\n        /* \"#utility.yul\":1496:1503   */\n      swap3\n      pop\n        /* \"#utility.yul\":1556:1559   */\n      0xc0\n        /* \"#utility.yul\":1541:1560   */\n      dup9\n      add\n        /* \"#utility.yul\":1528:1561   */\n      calldataload\n      sub(shl(0x40, 0x01), 0x01)\n        /* \"#utility.yul\":1573:1605   */\n      dup2\n      gt\n        /* \"#utility.yul\":1570:1622   */\n      iszero\n      tag_403\n      jumpi\n        /* \"#utility.yul\":1618:1619   */\n      0x00\n        /* \"#utility.yul\":1615:1616   */\n      dup1\n        /* \"#utility.yul\":1608:1620   */\n      revert\n        /* \"#utility.yul\":1570:1622   */\n    tag_403:\n        /* \"#utility.yul\":1657:1717   */\n      tag_404\n        /* \"#utility.yul\":1709:1716   */\n      dup11\n        /* \"#utility.yul\":1698:1706   */\n      dup3\n        /* \"#utility.yul\":1687:1696   */\n      dup12\n        /* \"#utility.yul\":1683:1707   */\n      add\n        /* \"#utility.yul\":1657:1717   */\n      tag_373\n      jump\t// in\n    tag_404:\n        /* \"#utility.yul\":684:1777   */\n      swap9\n      swap12\n      swap8\n      swap11\n      pop\n      swap6\n      swap9\n      pop\n      swap4\n      swap7\n      swap3\n      swap6\n        /* \"#utility.yul\":1631:1717   */\n      swap3\n      swap4\n      pop\n      pop\n      pop\n        /* \"#utility.yul\":684:1777   */\n      jump\t// out\n        /* \"#utility.yul\":2081:2244   */\n    tag_375:\n        /* \"#utility.yul\":2148:2168   */\n      dup1\n      calldataload\n        /* \"#utility.yul\":2208:2218   */\n      0xffffffff\n        /* \"#utility.yul\":2197:2219   */\n      dup2\n      and\n        /* \"#utility.yul\":2187:2220   */\n      dup2\n      eq\n        /* \"#utility.yul\":2177:2238   */\n      tag_407\n      jumpi\n        /* \"#utility.yul\":2234:2235   */\n      0x00\n        /* \"#utility.yul\":2231:2232   */\n      dup1\n        /* \"#utility.yul\":2224:2236   */\n      revert\n        /* \"#utility.yul\":2177:2238   */\n    tag_407:\n        /* \"#utility.yul\":2081:2244   */\n      swap2\n      swap1\n      pop\n      jump\t// out\n        /* \"#utility.yul\":2249:2547   */\n    tag_40:\n        /* \"#utility.yul\":2316:2322   */\n      0x00\n        /* \"#utility.yul\":2324:2330   */\n      dup1\n        /* \"#utility.yul\":2377:2379   */\n      0x40\n        /* \"#utility.yul\":2365:2374   */\n      dup4\n        /* \"#utility.yul\":2356:2363   */\n      dup6\n        /* \"#utility.yul\":2352:2375   */\n      sub\n        /* \"#utility.yul\":2348:2380   */\n      slt\n        /* \"#utility.yul\":2345:2397   */\n      iszero\n      tag_409\n      jumpi\n        /* \"#utility.yul\":2393:2394   */\n      0x00\n        /* \"#utility.yul\":2390:2391   */\n      dup1\n        /* \"#utility.yul\":2383:2395   */\n      revert\n        /* \"#utility.yul\":2345:2397   */\n    tag_409:\n        /* \"#utility.yul\":2416:2444   */\n      tag_410\n        /* \"#utility.yul\":2434:2443   */\n      dup4\n        /* \"#utility.yul\":2416:2444   */\n      tag_375\n      jump\t// in\n    tag_410:\n        /* \"#utility.yul\":2406:2444   */\n      swap5\n        /* \"#utility.yul\":2513:2515   */\n      0x20\n        /* \"#utility.yul\":2498:2516   */\n      swap4\n      swap1\n      swap4\n      add\n        /* \"#utility.yul\":2485:2517   */\n      calldataload\n      swap4\n      pop\n      pop\n      pop\n        /* \"#utility.yul\":2249:2547   */\n      jump\t// out\n        /* \"#utility.yul\":2552:3147   */\n    tag_45:\n        /* \"#utility.yul\":2639:2645   */\n      0x00\n        /* \"#utility.yul\":2647:2653   */\n      dup1\n        /* \"#utility.yul\":2655:2661   */\n      0x00\n        /* \"#utility.yul\":2663:2669   */\n      dup1\n        /* \"#utility.yul\":2716:2718   */\n      0x60\n        /* \"#utility.yul\":2704:2713   */\n      dup6\n        /* \"#utility.yul\":2695:2702   */\n      dup8\n        /* \"#utility.yul\":2691:2714   */\n      sub\n        /* \"#utility.yul\":2687:2719   */\n      slt\n        /* \"#utility.yul\":2684:2736   */\n      iszero\n      tag_412\n      jumpi\n        /* \"#utility.yul\":2732:2733   */\n      0x00\n        /* \"#utility.yul\":2729:2730   */\n      dup1\n        /* \"#utility.yul\":2722:2734   */\n      revert\n        /* \"#utility.yul\":2684:2736   */\n    tag_412:\n        /* \"#utility.yul\":2755:2783   */\n      tag_413\n        /* \"#utility.yul\":2773:2782   */\n      dup6\n        /* \"#utility.yul\":2755:2783   */\n      tag_375\n      jump\t// in\n    tag_413:\n        /* \"#utility.yul\":2745:2783   */\n      swap4\n      pop\n        /* \"#utility.yul\":2852:2854   */\n      0x20\n        /* \"#utility.yul\":2837:2855   */\n      dup6\n      add\n        /* \"#utility.yul\":2824:2856   */\n      calldataload\n      swap3\n      pop\n        /* \"#utility.yul\":2931:2933   */\n      0x40\n        /* \"#utility.yul\":2916:2934   */\n      dup6\n      add\n        /* \"#utility.yul\":2903:2935   */\n      calldataload\n      sub(shl(0x40, 0x01), 0x01)\n        /* \"#utility.yul\":2947:2977   */\n      dup2\n      gt\n        /* \"#utility.yul\":2944:2994   */\n      iszero\n      tag_414\n      jumpi\n        /* \"#utility.yul\":2990:2991   */\n      0x00\n        /* \"#utility.yul\":2987:2988   */\n      dup1\n        /* \"#utility.yul\":2980:2992   */\n      revert\n        /* \"#utility.yul\":2944:2994   */\n    tag_414:\n        /* \"#utility.yul\":3029:3087   */\n      tag_415\n        /* \"#utility.yul\":3079:3086   */\n      dup8\n        /* \"#utility.yul\":3070:3076   */\n      dup3\n        /* \"#utility.yul\":3059:3068   */\n      dup9\n        /* \"#utility.yul\":3055:3077   */\n      add\n        /* \"#utility.yul\":3029:3087   */\n      tag_373\n      jump\t// in\n    tag_415:\n        /* \"#utility.yul\":2552:3147   */\n      swap6\n      swap9\n      swap5\n      swap8\n      pop\n        /* \"#utility.yul\":3106:3114   */\n      swap6\n      pop\n      pop\n      pop\n      pop\n        /* \"#utility.yul\":2552:3147   */\n      jump\t// out\n        /* \"#utility.yul\":3460:3686   */\n    tag_55:\n        /* \"#utility.yul\":3519:3525   */\n      0x00\n        /* \"#utility.yul\":3572:3574   */\n      0x20\n        /* \"#utility.yul\":3560:3569   */\n      dup3\n        /* \"#utility.yul\":3551:3558   */\n      dup5\n        /* \"#utility.yul\":3547:3570   */\n      sub\n        /* \"#utility.yul\":3543:3575   */\n      slt\n        /* \"#utility.yul\":3540:3592   */\n      iszero\n      tag_418\n      jumpi\n        /* \"#utility.yul\":3588:3589   */\n      0x00\n        /* \"#utility.yul\":3585:3586   */\n      dup1\n        /* \"#utility.yul\":3578:3590   */\n      revert\n        /* \"#utility.yul\":3540:3592   */\n    tag_418:\n      pop\n        /* \"#utility.yul\":3633:3656   */\n      calldataload\n      swap2\n        /* \"#utility.yul\":3460:3686   */\n      swap1\n      pop\n      jump\t// out\n        /* \"#utility.yul\":4181:4308   */\n    tag_376:\n        /* \"#utility.yul\":4242:4252   */\n      0x4e487b71\n        /* \"#utility.yul\":4237:4240   */\n      0xe0\n        /* \"#utility.yul\":4233:4253   */\n      shl\n        /* \"#utility.yul\":4230:4231   */\n      0x00\n        /* \"#utility.yul\":4223:4254   */\n      mstore\n        /* \"#utility.yul\":4273:4277   */\n      0x41\n        /* \"#utility.yul\":4270:4271   */\n      0x04\n        /* \"#utility.yul\":4263:4278   */\n      mstore\n        /* \"#utility.yul\":4297:4301   */\n      0x24\n        /* \"#utility.yul\":4294:4295   */\n      0x00\n        /* \"#utility.yul\":4287:4302   */\n      revert\n        /* \"#utility.yul\":4313:4588   */\n    tag_377:\n        /* \"#utility.yul\":4384:4386   */\n      0x40\n        /* \"#utility.yul\":4378:4387   */\n      mload\n        /* \"#utility.yul\":4449:4451   */\n      0x1f\n        /* \"#utility.yul\":4430:4443   */\n      dup3\n      add\n      not(0x1f)\n        /* \"#utility.yul\":4426:4453   */\n      and\n        /* \"#utility.yul\":4414:4454   */\n      dup2\n      add\n      sub(shl(0x40, 0x01), 0x01)\n        /* \"#utility.yul\":4469:4503   */\n      dup2\n      gt\n        /* \"#utility.yul\":4505:4527   */\n      dup3\n      dup3\n      lt\n        /* \"#utility.yul\":4466:4528   */\n      or\n        /* \"#utility.yul\":4463:4551   */\n      iszero\n      tag_424\n      jumpi\n        /* \"#utility.yul\":4531:4549   */\n      tag_424\n      tag_376\n      jump\t// in\n    tag_424:\n        /* \"#utility.yul\":4567:4569   */\n      0x40\n        /* \"#utility.yul\":4560:4582   */\n      mstore\n        /* \"#utility.yul\":4313:4588   */\n      swap2\n      swap1\n      pop\n      jump\t// out\n        /* \"#utility.yul\":4593:5152   */\n    tag_378:\n        /* \"#utility.yul\":4636:4641   */\n      0x00\n        /* \"#utility.yul\":4689:4692   */\n      dup3\n        /* \"#utility.yul\":4682:4686   */\n      0x1f\n        /* \"#utility.yul\":4674:4680   */\n      dup4\n        /* \"#utility.yul\":4670:4687   */\n      add\n        /* \"#utility.yul\":4666:4693   */\n      slt\n        /* \"#utility.yul\":4656:4711   */\n      tag_426\n      jumpi\n        /* \"#utility.yul\":4707:4708   */\n      0x00\n        /* \"#utility.yul\":4704:4705   */\n      dup1\n        /* \"#utility.yul\":4697:4709   */\n      revert\n        /* \"#utility.yul\":4656:4711   */\n    tag_426:\n        /* \"#utility.yul\":4747:4753   */\n      dup2\n        /* \"#utility.yul\":4734:4754   */\n      calldataload\n      sub(shl(0x40, 0x01), 0x01)\n        /* \"#utility.yul\":4769:4775   */\n      dup2\n        /* \"#utility.yul\":4766:4796   */\n      gt\n        /* \"#utility.yul\":4763:4819   */\n      iszero\n      tag_428\n      jumpi\n        /* \"#utility.yul\":4799:4817   */\n      tag_428\n      tag_376\n      jump\t// in\n    tag_428:\n        /* \"#utility.yul\":4843:4902   */\n      tag_429\n        /* \"#utility.yul\":4890:4892   */\n      0x1f\n        /* \"#utility.yul\":4867:4884   */\n      dup3\n      add\n      not(0x1f)\n        /* \"#utility.yul\":4863:4894   */\n      and\n        /* \"#utility.yul\":4896:4900   */\n      0x20\n        /* \"#utility.yul\":4859:4901   */\n      add\n        /* \"#utility.yul\":4843:4902   */\n      tag_377\n      jump\t// in\n    tag_429:\n        /* \"#utility.yul\":4927:4933   */\n      dup2\n        /* \"#utility.yul\":4918:4925   */\n      dup2\n        /* \"#utility.yul\":4911:4934   */\n      mstore\n        /* \"#utility.yul\":4981:4984   */\n      dup5\n        /* \"#utility.yul\":4974:4978   */\n      0x20\n        /* \"#utility.yul\":4965:4971   */\n      dup4\n        /* \"#utility.yul\":4957:4963   */\n      dup7\n        /* \"#utility.yul\":4953:4972   */\n      add\n        /* \"#utility.yul\":4949:4979   */\n      add\n        /* \"#utility.yul\":4946:4985   */\n      gt\n        /* \"#utility.yul\":4943:5002   */\n      iszero\n      tag_430\n      jumpi\n        /* \"#utility.yul\":4998:4999   */\n      0x00\n        /* \"#utility.yul\":4995:4996   */\n      dup1\n        /* \"#utility.yul\":4988:5000   */\n      revert\n        /* \"#utility.yul\":4943:5002   */\n    tag_430:\n        /* \"#utility.yul\":5063:5069   */\n      dup2\n        /* \"#utility.yul\":5056:5060   */\n      0x20\n        /* \"#utility.yul\":5048:5054   */\n      dup6\n        /* \"#utility.yul\":5044:5061   */\n      add\n        /* \"#utility.yul\":5037:5041   */\n      0x20\n        /* \"#utility.yul\":5028:5035   */\n      dup4\n        /* \"#utility.yul\":5024:5042   */\n      add\n        /* \"#utility.yul\":5011:5070   */\n      calldatacopy\n        /* \"#utility.yul\":5119:5120   */\n      0x00\n        /* \"#utility.yul\":5090:5110   */\n      swap2\n      dup2\n      add\n        /* \"#utility.yul\":5112:5116   */\n      0x20\n        /* \"#utility.yul\":5086:5117   */\n      add\n        /* \"#utility.yul\":5079:5121   */\n      swap2\n      swap1\n      swap2\n      mstore\n        /* \"#utility.yul\":5094:5101   */\n      swap4\n        /* \"#utility.yul\":4593:5152   */\n      swap3\n      pop\n      pop\n      pop\n      jump\t// out\n        /* \"#utility.yul\":5157:6036   */\n    tag_379:\n        /* \"#utility.yul\":5210:5215   */\n      0x00\n        /* \"#utility.yul\":5263:5266   */\n      dup3\n        /* \"#utility.yul\":5256:5260   */\n      0x1f\n        /* \"#utility.yul\":5248:5254   */\n      dup4\n        /* \"#utility.yul\":5244:5261   */\n      add\n        /* \"#utility.yul\":5240:5267   */\n      slt\n        /* \"#utility.yul\":5230:5285   */\n      tag_432\n      jumpi\n        /* \"#utility.yul\":5281:5282   */\n      0x00\n        /* \"#utility.yul\":5278:5279   */\n      dup1\n        /* \"#utility.yul\":5271:5283   */\n      revert\n        /* \"#utility.yul\":5230:5285   */\n    tag_432:\n        /* \"#utility.yul\":5321:5327   */\n      dup2\n        /* \"#utility.yul\":5308:5328   */\n      calldataload\n      sub(shl(0x40, 0x01), 0x01)\n        /* \"#utility.yul\":5343:5349   */\n      dup2\n        /* \"#utility.yul\":5340:5370   */\n      gt\n        /* \"#utility.yul\":5337:5393   */\n      iszero\n      tag_434\n      jumpi\n        /* \"#utility.yul\":5373:5391   */\n      tag_434\n      tag_376\n      jump\t// in\n    tag_434:\n        /* \"#utility.yul\":5419:5425   */\n      dup1\n        /* \"#utility.yul\":5416:5417   */\n      0x05\n        /* \"#utility.yul\":5412:5426   */\n      shl\n        /* \"#utility.yul\":5446:5476   */\n      tag_435\n        /* \"#utility.yul\":5470:5474   */\n      0x20\n        /* \"#utility.yul\":5466:5468   */\n      dup3\n        /* \"#utility.yul\":5462:5475   */\n      add\n        /* \"#utility.yul\":5446:5476   */\n      tag_377\n      jump\t// in\n    tag_435:\n        /* \"#utility.yul\":5512:5531   */\n      swap2\n      dup3\n      mstore\n        /* \"#utility.yul\":5556:5560   */\n      0x20\n        /* \"#utility.yul\":5588:5603   */\n      dup2\n      dup6\n      add\n        /* \"#utility.yul\":5584:5610   */\n      dup2\n      add\n      swap3\n        /* \"#utility.yul\":5547:5561   */\n      swap1\n      dup2\n      add\n      swap1\n        /* \"#utility.yul\":5622:5637   */\n      dup7\n      dup5\n      gt\n        /* \"#utility.yul\":5619:5654   */\n      iszero\n      tag_436\n      jumpi\n        /* \"#utility.yul\":5650:5651   */\n      0x00\n        /* \"#utility.yul\":5647:5648   */\n      dup1\n        /* \"#utility.yul\":5640:5652   */\n      revert\n        /* \"#utility.yul\":5619:5654   */\n    tag_436:\n        /* \"#utility.yul\":5686:5690   */\n      0x20\n        /* \"#utility.yul\":5678:5684   */\n      dup7\n        /* \"#utility.yul\":5674:5691   */\n      add\n        /* \"#utility.yul\":5663:5691   */\n      swap3\n      pop\n        /* \"#utility.yul\":5700:6005   */\n    tag_437:\n        /* \"#utility.yul\":5716:5722   */\n      dup4\n        /* \"#utility.yul\":5711:5714   */\n      dup4\n        /* \"#utility.yul\":5708:5723   */\n      lt\n        /* \"#utility.yul\":5700:6005   */\n      iszero\n      tag_156\n      jumpi\n        /* \"#utility.yul\":5804:5807   */\n      dup3\n        /* \"#utility.yul\":5791:5808   */\n      calldataload\n      sub(shl(0x40, 0x01), 0x01)\n        /* \"#utility.yul\":5827:5838   */\n      dup2\n        /* \"#utility.yul\":5824:5859   */\n      gt\n        /* \"#utility.yul\":5821:5876   */\n      iszero\n      tag_440\n      jumpi\n        /* \"#utility.yul\":5872:5873   */\n      0x00\n        /* \"#utility.yul\":5869:5870   */\n      dup1\n        /* \"#utility.yul\":5862:5874   */\n      revert\n        /* \"#utility.yul\":5821:5876   */\n    tag_440:\n        /* \"#utility.yul\":5901:5960   */\n      tag_441\n        /* \"#utility.yul\":5956:5959   */\n      dup9\n        /* \"#utility.yul\":5949:5953   */\n      0x20\n        /* \"#utility.yul\":5935:5946   */\n      dup4\n        /* \"#utility.yul\":5927:5933   */\n      dup11\n        /* \"#utility.yul\":5923:5947   */\n      add\n        /* \"#utility.yul\":5919:5954   */\n      add\n        /* \"#utility.yul\":5901:5960   */\n      tag_378\n      jump\t// in\n    tag_441:\n        /* \"#utility.yul\":5889:5961   */\n      dup4\n      mstore\n      pop\n        /* \"#utility.yul\":5990:5994   */\n      0x20\n        /* \"#utility.yul\":5733:5747   */\n      swap3\n      dup4\n      add\n      swap3\n        /* \"#utility.yul\":5981:5995   */\n      swap1\n      swap2\n      add\n      swap1\n        /* \"#utility.yul\":5700:6005   */\n      jump(tag_437)\n        /* \"#utility.yul\":6041:7322   */\n    tag_66:\n        /* \"#utility.yul\":6210:6216   */\n      0x00\n        /* \"#utility.yul\":6218:6224   */\n      dup1\n        /* \"#utility.yul\":6226:6232   */\n      0x00\n        /* \"#utility.yul\":6234:6240   */\n      dup1\n        /* \"#utility.yul\":6242:6248   */\n      0x00\n        /* \"#utility.yul\":6250:6256   */\n      dup1\n        /* \"#utility.yul\":6258:6264   */\n      0x00\n        /* \"#utility.yul\":6311:6314   */\n      0xc0\n        /* \"#utility.yul\":6299:6308   */\n      dup9\n        /* \"#utility.yul\":6290:6297   */\n      dup11\n        /* \"#utility.yul\":6286:6309   */\n      sub\n        /* \"#utility.yul\":6282:6315   */\n      slt\n        /* \"#utility.yul\":6279:6332   */\n      iszero\n      tag_443\n      jumpi\n        /* \"#utility.yul\":6328:6329   */\n      0x00\n        /* \"#utility.yul\":6325:6326   */\n      dup1\n        /* \"#utility.yul\":6318:6330   */\n      revert\n        /* \"#utility.yul\":6279:6332   */\n    tag_443:\n        /* \"#utility.yul\":6351:6379   */\n      tag_444\n        /* \"#utility.yul\":6369:6378   */\n      dup9\n        /* \"#utility.yul\":6351:6379   */\n      tag_375\n      jump\t// in\n    tag_444:\n        /* \"#utility.yul\":6341:6379   */\n      swap7\n      pop\n        /* \"#utility.yul\":6430:6432   */\n      0x20\n        /* \"#utility.yul\":6419:6428   */\n      dup9\n        /* \"#utility.yul\":6415:6433   */\n      add\n        /* \"#utility.yul\":6402:6434   */\n      calldataload\n      sub(shl(0x40, 0x01), 0x01)\n        /* \"#utility.yul\":6449:6455   */\n      dup2\n        /* \"#utility.yul\":6446:6476   */\n      gt\n        /* \"#utility.yul\":6443:6493   */\n      iszero\n      tag_445\n      jumpi\n        /* \"#utility.yul\":6489:6490   */\n      0x00\n        /* \"#utility.yul\":6486:6487   */\n      dup1\n        /* \"#utility.yul\":6479:6491   */\n      revert\n        /* \"#utility.yul\":6443:6493   */\n    tag_445:\n        /* \"#utility.yul\":6512:6562   */\n      tag_446\n        /* \"#utility.yul\":6554:6561   */\n      dup11\n        /* \"#utility.yul\":6545:6551   */\n      dup3\n        /* \"#utility.yul\":6534:6543   */\n      dup12\n        /* \"#utility.yul\":6530:6552   */\n      add\n        /* \"#utility.yul\":6512:6562   */\n      tag_378\n      jump\t// in\n    tag_446:\n        /* \"#utility.yul\":6502:6562   */\n      swap7\n      pop\n      pop\n        /* \"#utility.yul\":6615:6617   */\n      0x40\n        /* \"#utility.yul\":6604:6613   */\n      dup9\n        /* \"#utility.yul\":6600:6618   */\n      add\n        /* \"#utility.yul\":6587:6619   */\n      calldataload\n      sub(shl(0x40, 0x01), 0x01)\n        /* \"#utility.yul\":6634:6642   */\n      dup2\n        /* \"#utility.yul\":6631:6663   */\n      gt\n        /* \"#utility.yul\":6628:6680   */\n      iszero\n      tag_447\n      jumpi\n        /* \"#utility.yul\":6676:6677   */\n      0x00\n        /* \"#utility.yul\":6673:6674   */\n      dup1\n        /* \"#utility.yul\":6666:6678   */\n      revert\n        /* \"#utility.yul\":6628:6680   */\n    tag_447:\n        /* \"#utility.yul\":6699:6761   */\n      tag_448\n        /* \"#utility.yul\":6753:6760   */\n      dup11\n        /* \"#utility.yul\":6742:6750   */\n      dup3\n        /* \"#utility.yul\":6731:6740   */\n      dup12\n        /* \"#utility.yul\":6727:6751   */\n      add\n        /* \"#utility.yul\":6699:6761   */\n      tag_379\n      jump\t// in\n    tag_448:\n        /* \"#utility.yul\":6689:6761   */\n      swap6\n      pop\n      pop\n        /* \"#utility.yul\":6814:6816   */\n      0x60\n        /* \"#utility.yul\":6803:6812   */\n      dup9\n        /* \"#utility.yul\":6799:6817   */\n      add\n        /* \"#utility.yul\":6786:6818   */\n      calldataload\n      sub(shl(0x40, 0x01), 0x01)\n        /* \"#utility.yul\":6833:6841   */\n      dup2\n        /* \"#utility.yul\":6830:6862   */\n      gt\n        /* \"#utility.yul\":6827:6879   */\n      iszero\n      tag_449\n      jumpi\n        /* \"#utility.yul\":6875:6876   */\n      0x00\n        /* \"#utility.yul\":6872:6873   */\n      dup1\n        /* \"#utility.yul\":6865:6877   */\n      revert\n        /* \"#utility.yul\":6827:6879   */\n    tag_449:\n        /* \"#utility.yul\":6898:6950   */\n      tag_450\n        /* \"#utility.yul\":6942:6949   */\n      dup11\n        /* \"#utility.yul\":6931:6939   */\n      dup3\n        /* \"#utility.yul\":6920:6929   */\n      dup12\n        /* \"#utility.yul\":6916:6940   */\n      add\n        /* \"#utility.yul\":6898:6950   */\n      tag_378\n      jump\t// in\n    tag_450:\n        /* \"#utility.yul\":6888:6950   */\n      swap5\n      pop\n      pop\n        /* \"#utility.yul\":7019:7022   */\n      0x80\n        /* \"#utility.yul\":7004:7023   */\n      dup9\n      add\n        /* \"#utility.yul\":6991:7024   */\n      calldataload\n      swap3\n      pop\n        /* \"#utility.yul\":7101:7104   */\n      0xa0\n        /* \"#utility.yul\":7086:7105   */\n      dup9\n      add\n        /* \"#utility.yul\":7073:7106   */\n      calldataload\n      sub(shl(0x40, 0x01), 0x01)\n        /* \"#utility.yul\":7118:7150   */\n      dup2\n      gt\n        /* \"#utility.yul\":7115:7167   */\n      iszero\n      tag_403\n      jumpi\n        /* \"#utility.yul\":7163:7164   */\n      0x00\n        /* \"#utility.yul\":7160:7161   */\n      dup1\n        /* \"#utility.yul\":7153:7165   */\n      revert\n        /* \"#utility.yul\":7532:8200   */\n    tag_80:\n        /* \"#utility.yul\":7644:7650   */\n      0x00\n        /* \"#utility.yul\":7652:7658   */\n      dup1\n        /* \"#utility.yul\":7660:7666   */\n      0x00\n        /* \"#utility.yul\":7668:7674   */\n      dup1\n        /* \"#utility.yul\":7721:7724   */\n      0xa0\n        /* \"#utility.yul\":7709:7718   */\n      dup6\n        /* \"#utility.yul\":7700:7707   */\n      dup8\n        /* \"#utility.yul\":7696:7719   */\n      sub\n        /* \"#utility.yul\":7692:7725   */\n      slt\n        /* \"#utility.yul\":7689:7742   */\n      iszero\n      tag_455\n      jumpi\n        /* \"#utility.yul\":7738:7739   */\n      0x00\n        /* \"#utility.yul\":7735:7736   */\n      dup1\n        /* \"#utility.yul\":7728:7740   */\n      revert\n        /* \"#utility.yul\":7689:7742   */\n    tag_455:\n        /* \"#utility.yul\":7761:7814   */\n      tag_456\n        /* \"#utility.yul\":7806:7813   */\n      dup7\n        /* \"#utility.yul\":7795:7804   */\n      dup7\n        /* \"#utility.yul\":7761:7814   */\n      tag_372\n      jump\t// in\n    tag_456:\n        /* \"#utility.yul\":7751:7814   */\n      swap4\n      pop\n        /* \"#utility.yul\":7865:7867   */\n      0x60\n        /* \"#utility.yul\":7854:7863   */\n      dup6\n        /* \"#utility.yul\":7850:7868   */\n      add\n        /* \"#utility.yul\":7837:7869   */\n      calldataload\n      sub(shl(0x40, 0x01), 0x01)\n        /* \"#utility.yul\":7884:7890   */\n      dup2\n        /* \"#utility.yul\":7881:7911   */\n      gt\n        /* \"#utility.yul\":7878:7928   */\n      iszero\n      tag_457\n      jumpi\n        /* \"#utility.yul\":7924:7925   */\n      0x00\n        /* \"#utility.yul\":7921:7922   */\n      dup1\n        /* \"#utility.yul\":7914:7926   */\n      revert\n        /* \"#utility.yul\":7878:7928   */\n    tag_457:\n        /* \"#utility.yul\":7963:8021   */\n      tag_458\n        /* \"#utility.yul\":8013:8020   */\n      dup8\n        /* \"#utility.yul\":8004:8010   */\n      dup3\n        /* \"#utility.yul\":7993:8002   */\n      dup9\n        /* \"#utility.yul\":7989:8011   */\n      add\n        /* \"#utility.yul\":7963:8021   */\n      tag_373\n      jump\t// in\n    tag_458:\n        /* \"#utility.yul\":8040:8048   */\n      swap1\n      swap5\n      pop\n        /* \"#utility.yul\":7937:8021   */\n      swap3\n      pop\n      pop\n        /* \"#utility.yul\":8125:8128   */\n      0x80\n        /* \"#utility.yul\":8110:8129   */\n      dup6\n      add\n        /* \"#utility.yul\":8097:8130   */\n      calldataload\n        /* \"#utility.yul\":8139:8170   */\n      tag_459\n        /* \"#utility.yul\":8097:8130   */\n      dup2\n        /* \"#utility.yul\":8139:8170   */\n      tag_374\n      jump\t// in\n    tag_459:\n        /* \"#utility.yul\":7532:8200   */\n      swap4\n      swap7\n      swap3\n      swap6\n      pop\n      swap1\n      swap4\n      pop\n      pop\n      jump\t// out\n        /* \"#utility.yul\":8397:8764   */\n    tag_91:\n        /* \"#utility.yul\":8465:8471   */\n      0x00\n        /* \"#utility.yul\":8473:8479   */\n      dup1\n        /* \"#utility.yul\":8526:8528   */\n      0x40\n        /* \"#utility.yul\":8514:8523   */\n      dup4\n        /* \"#utility.yul\":8505:8512   */\n      dup6\n        /* \"#utility.yul\":8501:8524   */\n      sub\n        /* \"#utility.yul\":8497:8529   */\n      slt\n        /* \"#utility.yul\":8494:8546   */\n      iszero\n      tag_462\n      jumpi\n        /* \"#utility.yul\":8542:8543   */\n      0x00\n        /* \"#utility.yul\":8539:8540   */\n      dup1\n        /* \"#utility.yul\":8532:8544   */\n      revert\n        /* \"#utility.yul\":8494:8546   */\n    tag_462:\n        /* \"#utility.yul\":8581:8590   */\n      dup3\n        /* \"#utility.yul\":8568:8591   */\n      calldataload\n        /* \"#utility.yul\":8600:8631   */\n      tag_410\n        /* \"#utility.yul\":8625:8630   */\n      dup2\n        /* \"#utility.yul\":8600:8631   */\n      tag_374\n      jump\t// in\n        /* \"#utility.yul\":8769:8953   */\n    tag_96:\n        /* \"#utility.yul\":8827:8833   */\n      0x00\n        /* \"#utility.yul\":8880:8882   */\n      0x20\n        /* \"#utility.yul\":8868:8877   */\n      dup3\n        /* \"#utility.yul\":8859:8866   */\n      dup5\n        /* \"#utility.yul\":8855:8878   */\n      sub\n        /* \"#utility.yul\":8851:8883   */\n      slt\n        /* \"#utility.yul\":8848:8900   */\n      iszero\n      tag_465\n      jumpi\n        /* \"#utility.yul\":8896:8897   */\n      0x00\n        /* \"#utility.yul\":8893:8894   */\n      dup1\n        /* \"#utility.yul\":8886:8898   */\n      revert\n        /* \"#utility.yul\":8848:8900   */\n    tag_465:\n        /* \"#utility.yul\":8919:8947   */\n      tag_466\n        /* \"#utility.yul\":8937:8946   */\n      dup3\n        /* \"#utility.yul\":8919:8947   */\n      tag_375\n      jump\t// in\n    tag_466:\n        /* \"#utility.yul\":8909:8947   */\n      swap4\n        /* \"#utility.yul\":8769:8953   */\n      swap3\n      pop\n      pop\n      pop\n      jump\t// out\n        /* \"#utility.yul\":9140:9387   */\n    tag_108:\n        /* \"#utility.yul\":9199:9205   */\n      0x00\n        /* \"#utility.yul\":9252:9254   */\n      0x20\n        /* \"#utility.yul\":9240:9249   */\n      dup3\n        /* \"#utility.yul\":9231:9238   */\n      dup5\n        /* \"#utility.yul\":9227:9250   */\n      sub\n        /* \"#utility.yul\":9223:9255   */\n      slt\n        /* \"#utility.yul\":9220:9272   */\n      iszero\n      tag_469\n      jumpi\n        /* \"#utility.yul\":9268:9269   */\n      0x00\n        /* \"#utility.yul\":9265:9266   */\n      dup1\n        /* \"#utility.yul\":9258:9270   */\n      revert\n        /* \"#utility.yul\":9220:9272   */\n    tag_469:\n        /* \"#utility.yul\":9307:9316   */\n      dup2\n        /* \"#utility.yul\":9294:9317   */\n      calldataload\n        /* \"#utility.yul\":9326:9357   */\n      tag_466\n        /* \"#utility.yul\":9351:9356   */\n      dup2\n        /* \"#utility.yul\":9326:9357   */\n      tag_374\n      jump\t// in\n        /* \"#utility.yul\":9869:10269   */\n    tag_380:\n        /* \"#utility.yul\":9911:9914   */\n      0x00\n        /* \"#utility.yul\":9949:9954   */\n      dup2\n        /* \"#utility.yul\":9943:9955   */\n      mload\n        /* \"#utility.yul\":9976:9982   */\n      dup1\n        /* \"#utility.yul\":9971:9974   */\n      dup5\n        /* \"#utility.yul\":9964:9983   */\n      mstore\n        /* \"#utility.yul\":10001:10002   */\n      0x00\n        /* \"#utility.yul\":10011:10150   */\n    tag_475:\n        /* \"#utility.yul\":10025:10031   */\n      dup2\n        /* \"#utility.yul\":10022:10023   */\n      dup2\n        /* \"#utility.yul\":10019:10032   */\n      lt\n        /* \"#utility.yul\":10011:10150   */\n      iszero\n      tag_477\n      jumpi\n        /* \"#utility.yul\":10133:10137   */\n      0x20\n        /* \"#utility.yul\":10118:10131   */\n      dup2\n      dup6\n      add\n        /* \"#utility.yul\":10114:10138   */\n      dup2\n      add\n        /* \"#utility.yul\":10108:10139   */\n      mload\n        /* \"#utility.yul\":10088:10099   */\n      dup7\n      dup4\n      add\n        /* \"#utility.yul\":10084:10106   */\n      dup3\n      add\n        /* \"#utility.yul\":10077:10140   */\n      mstore\n        /* \"#utility.yul\":10040:10052   */\n      add\n        /* \"#utility.yul\":10011:10150   */\n      jump(tag_475)\n    tag_477:\n        /* \"#utility.yul\":10015:10018   */\n      pop\n        /* \"#utility.yul\":10195:10196   */\n      0x00\n        /* \"#utility.yul\":10188:10192   */\n      0x20\n        /* \"#utility.yul\":10179:10185   */\n      dup3\n        /* \"#utility.yul\":10174:10177   */\n      dup7\n        /* \"#utility.yul\":10170:10186   */\n      add\n        /* \"#utility.yul\":10166:10193   */\n      add\n        /* \"#utility.yul\":10159:10197   */\n      mstore\n        /* \"#utility.yul\":10258:10262   */\n      0x20\n        /* \"#utility.yul\":10251:10253   */\n      0x1f\n        /* \"#utility.yul\":10247:10254   */\n      not\n        /* \"#utility.yul\":10242:10244   */\n      0x1f\n        /* \"#utility.yul\":10234:10240   */\n      dup4\n        /* \"#utility.yul\":10230:10245   */\n      add\n        /* \"#utility.yul\":10226:10255   */\n      and\n        /* \"#utility.yul\":10221:10224   */\n      dup6\n        /* \"#utility.yul\":10217:10256   */\n      add\n        /* \"#utility.yul\":10213:10263   */\n      add\n        /* \"#utility.yul\":10206:10263   */\n      swap2\n      pop\n      pop\n        /* \"#utility.yul\":9869:10269   */\n      swap3\n      swap2\n      pop\n      pop\n      jump\t// out\n        /* \"#utility.yul\":10274:10853   */\n    tag_381:\n        /* \"#utility.yul\":10326:10329   */\n      0x00\n        /* \"#utility.yul\":10357:10360   */\n      dup3\n        /* \"#utility.yul\":10389:10394   */\n      dup3\n        /* \"#utility.yul\":10383:10395   */\n      mload\n        /* \"#utility.yul\":10416:10422   */\n      dup1\n        /* \"#utility.yul\":10411:10414   */\n      dup6\n        /* \"#utility.yul\":10404:10423   */\n      mstore\n        /* \"#utility.yul\":10448:10452   */\n      0x20\n        /* \"#utility.yul\":10443:10446   */\n      dup6\n        /* \"#utility.yul\":10439:10453   */\n      add\n        /* \"#utility.yul\":10432:10453   */\n      swap5\n      pop\n        /* \"#utility.yul\":10506:10510   */\n      0x20\n        /* \"#utility.yul\":10496:10502   */\n      dup2\n        /* \"#utility.yul\":10493:10494   */\n      0x05\n        /* \"#utility.yul\":10489:10503   */\n      shl\n        /* \"#utility.yul\":10482:10487   */\n      dup4\n        /* \"#utility.yul\":10478:10504   */\n      add\n        /* \"#utility.yul\":10474:10511   */\n      add\n        /* \"#utility.yul\":10545:10549   */\n      0x20\n        /* \"#utility.yul\":10538:10543   */\n      dup6\n        /* \"#utility.yul\":10534:10550   */\n      add\n        /* \"#utility.yul\":10568:10569   */\n      0x00\n        /* \"#utility.yul\":10578:10827   */\n    tag_479:\n        /* \"#utility.yul\":10592:10598   */\n      dup4\n        /* \"#utility.yul\":10589:10590   */\n      dup2\n        /* \"#utility.yul\":10586:10599   */\n      lt\n        /* \"#utility.yul\":10578:10827   */\n      iszero\n      tag_481\n      jumpi\n        /* \"#utility.yul\":10679:10681   */\n      0x1f\n        /* \"#utility.yul\":10675:10682   */\n      not\n        /* \"#utility.yul\":10667:10672   */\n      dup6\n        /* \"#utility.yul\":10661:10665   */\n      dup5\n        /* \"#utility.yul\":10657:10673   */\n      sub\n        /* \"#utility.yul\":10653:10683   */\n      add\n        /* \"#utility.yul\":10648:10651   */\n      dup9\n        /* \"#utility.yul\":10641:10684   */\n      mstore\n        /* \"#utility.yul\":10705:10743   */\n      tag_482\n        /* \"#utility.yul\":10738:10742   */\n      dup4\n        /* \"#utility.yul\":10729:10735   */\n      dup4\n        /* \"#utility.yul\":10723:10736   */\n      mload\n        /* \"#utility.yul\":10705:10743   */\n      tag_380\n      jump\t// in\n    tag_482:\n        /* \"#utility.yul\":10778:10782   */\n      0x20\n        /* \"#utility.yul\":10803:10817   */\n      swap9\n      dup10\n      add\n      swap9\n        /* \"#utility.yul\":10697:10743   */\n      swap1\n      swap4\n      pop\n        /* \"#utility.yul\":10766:10783   */\n      swap2\n      swap1\n      swap2\n      add\n      swap1\n        /* \"#utility.yul\":10614:10615   */\n      0x01\n        /* \"#utility.yul\":10607:10616   */\n      add\n        /* \"#utility.yul\":10578:10827   */\n      jump(tag_479)\n    tag_481:\n      pop\n        /* \"#utility.yul\":10843:10847   */\n      swap1\n      swap7\n        /* \"#utility.yul\":10274:10853   */\n      swap6\n      pop\n      pop\n      pop\n      pop\n      pop\n      pop\n      jump\t// out\n        /* \"#utility.yul\":10858:11740   */\n    tag_125:\n      sub(shl(0xa0, 0x01), 0x01)\n        /* \"#utility.yul\":11235:11241   */\n      dup8\n        /* \"#utility.yul\":11231:11286   */\n      and\n        /* \"#utility.yul\":11220:11229   */\n      dup2\n        /* \"#utility.yul\":11213:11287   */\n      mstore\n        /* \"#utility.yul\":11323:11326   */\n      0xc0\n        /* \"#utility.yul\":11318:11320   */\n      0x20\n        /* \"#utility.yul\":11307:11316   */\n      dup3\n        /* \"#utility.yul\":11303:11321   */\n      add\n        /* \"#utility.yul\":11296:11327   */\n      mstore\n        /* \"#utility.yul\":11194:11198   */\n      0x00\n        /* \"#utility.yul\":11350:11396   */\n      tag_484\n        /* \"#utility.yul\":11391:11394   */\n      0xc0\n        /* \"#utility.yul\":11380:11389   */\n      dup4\n        /* \"#utility.yul\":11376:11395   */\n      add\n        /* \"#utility.yul\":11368:11374   */\n      dup9\n        /* \"#utility.yul\":11350:11396   */\n      tag_380\n      jump\t// in\n    tag_484:\n        /* \"#utility.yul\":11444:11453   */\n      dup3\n        /* \"#utility.yul\":11436:11442   */\n      dup2\n        /* \"#utility.yul\":11432:11454   */\n      sub\n        /* \"#utility.yul\":11427:11429   */\n      0x40\n        /* \"#utility.yul\":11416:11425   */\n      dup5\n        /* \"#utility.yul\":11412:11430   */\n      add\n        /* \"#utility.yul\":11405:11455   */\n      mstore\n        /* \"#utility.yul\":11478:11521   */\n      tag_485\n        /* \"#utility.yul\":11514:11520   */\n      dup2\n        /* \"#utility.yul\":11506:11512   */\n      dup9\n        /* \"#utility.yul\":11478:11521   */\n      tag_381\n      jump\t// in\n    tag_485:\n        /* \"#utility.yul\":11464:11521   */\n      swap1\n      pop\n        /* \"#utility.yul\":11569:11578   */\n      dup3\n        /* \"#utility.yul\":11561:11567   */\n      dup2\n        /* \"#utility.yul\":11557:11579   */\n      sub\n        /* \"#utility.yul\":11552:11554   */\n      0x60\n        /* \"#utility.yul\":11541:11550   */\n      dup5\n        /* \"#utility.yul\":11537:11555   */\n      add\n        /* \"#utility.yul\":11530:11580   */\n      mstore\n        /* \"#utility.yul\":11597:11630   */\n      tag_486\n        /* \"#utility.yul\":11623:11629   */\n      dup2\n        /* \"#utility.yul\":11615:11621   */\n      dup8\n        /* \"#utility.yul\":11597:11630   */\n      tag_380\n      jump\t// in\n    tag_486:\n        /* \"#utility.yul\":11661:11664   */\n      0x80\n        /* \"#utility.yul\":11646:11665   */\n      dup5\n      add\n        /* \"#utility.yul\":11639:11674   */\n      swap6\n      swap1\n      swap6\n      mstore\n      pop\n      pop\n        /* \"#utility.yul\":11718:11732   */\n      swap1\n      iszero\n        /* \"#utility.yul\":11711:11733   */\n      iszero\n        /* \"#utility.yul\":11705:11708   */\n      0xa0\n        /* \"#utility.yul\":11690:11709   */\n      swap1\n      swap2\n      add\n        /* \"#utility.yul\":11683:11734   */\n      mstore\n        /* \"#utility.yul\":11589:11630   */\n      swap5\n        /* \"#utility.yul\":10858:11740   */\n      swap4\n      pop\n      pop\n      pop\n      pop\n      jump\t// out\n        /* \"#utility.yul\":11745:11979   */\n    tag_129:\n        /* \"#utility.yul\":11828:11834   */\n      0x00\n        /* \"#utility.yul\":11881:11883   */\n      0x60\n        /* \"#utility.yul\":11869:11878   */\n      dup3\n        /* \"#utility.yul\":11860:11867   */\n      dup5\n        /* \"#utility.yul\":11856:11879   */\n      sub\n        /* \"#utility.yul\":11852:11884   */\n      slt\n        /* \"#utility.yul\":11849:11901   */\n      iszero\n      tag_488\n      jumpi\n        /* \"#utility.yul\":11897:11898   */\n      0x00\n        /* \"#utility.yul\":11894:11895   */\n      dup1\n        /* \"#utility.yul\":11887:11899   */\n      revert\n        /* \"#utility.yul\":11849:11901   */\n    tag_488:\n        /* \"#utility.yul\":11920:11973   */\n      tag_466\n        /* \"#utility.yul\":11965:11972   */\n      dup4\n        /* \"#utility.yul\":11954:11963   */\n      dup4\n        /* \"#utility.yul\":11920:11973   */\n      tag_372\n      jump\t// in\n        /* \"#utility.yul\":12930:13162   */\n    tag_166:\n        /* \"#utility.yul\":12969:12972   */\n      0x00\n        /* \"#utility.yul\":12990:13007   */\n      0x01\n      dup3\n      add\n        /* \"#utility.yul\":12987:13127   */\n      tag_494\n      jumpi\n        /* \"#utility.yul\":13049:13059   */\n      0x4e487b71\n        /* \"#utility.yul\":13044:13047   */\n      0xe0\n        /* \"#utility.yul\":13040:13060   */\n      shl\n        /* \"#utility.yul\":13037:13038   */\n      0x00\n        /* \"#utility.yul\":13030:13061   */\n      mstore\n        /* \"#utility.yul\":13084:13088   */\n      0x11\n        /* \"#utility.yul\":13081:13082   */\n      0x04\n        /* \"#utility.yul\":13074:13089   */\n      mstore\n        /* \"#utility.yul\":13112:13116   */\n      0x24\n        /* \"#utility.yul\":13109:13110   */\n      0x00\n        /* \"#utility.yul\":13102:13117   */\n      revert\n        /* \"#utility.yul\":12987:13127   */\n    tag_494:\n      pop\n        /* \"#utility.yul\":13154:13155   */\n      0x01\n        /* \"#utility.yul\":13143:13156   */\n      add\n      swap1\n        /* \"#utility.yul\":12930:13162   */\n      jump\t// out\n        /* \"#utility.yul\":15641:15918   */\n    tag_198:\n        /* \"#utility.yul\":15708:15714   */\n      0x00\n        /* \"#utility.yul\":15761:15763   */\n      0x20\n        /* \"#utility.yul\":15749:15758   */\n      dup3\n        /* \"#utility.yul\":15740:15747   */\n      dup5\n        /* \"#utility.yul\":15736:15759   */\n      sub\n        /* \"#utility.yul\":15732:15764   */\n      slt\n        /* \"#utility.yul\":15729:15781   */\n      iszero\n      tag_503\n      jumpi\n        /* \"#utility.yul\":15777:15778   */\n      0x00\n        /* \"#utility.yul\":15774:15775   */\n      dup1\n        /* \"#utility.yul\":15767:15779   */\n      revert\n        /* \"#utility.yul\":15729:15781   */\n    tag_503:\n        /* \"#utility.yul\":15809:15818   */\n      dup2\n        /* \"#utility.yul\":15803:15819   */\n      mload\n        /* \"#utility.yul\":15862:15867   */\n      dup1\n        /* \"#utility.yul\":15855:15868   */\n      iszero\n        /* \"#utility.yul\":15848:15869   */\n      iszero\n        /* \"#utility.yul\":15841:15846   */\n      dup2\n        /* \"#utility.yul\":15838:15870   */\n      eq\n        /* \"#utility.yul\":15828:15888   */\n      tag_466\n      jumpi\n        /* \"#utility.yul\":15884:15885   */\n      0x00\n        /* \"#utility.yul\":15881:15882   */\n      dup1\n        /* \"#utility.yul\":15874:15886   */\n      revert\n        /* \"#utility.yul\":16272:17151   */\n    tag_203:\n        /* \"#utility.yul\":16659:16663   */\n      0xff\n        /* \"#utility.yul\":16651:16657   */\n      dup8\n        /* \"#utility.yul\":16647:16664   */\n      and\n        /* \"#utility.yul\":16636:16645   */\n      dup2\n        /* \"#utility.yul\":16629:16665   */\n      mstore\n      sub(shl(0xa0, 0x01), 0x01)\n        /* \"#utility.yul\":16705:16711   */\n      dup7\n        /* \"#utility.yul\":16701:16756   */\n      and\n        /* \"#utility.yul\":16696:16698   */\n      0x20\n        /* \"#utility.yul\":16685:16694   */\n      dup3\n        /* \"#utility.yul\":16681:16699   */\n      add\n        /* \"#utility.yul\":16674:16757   */\n      mstore\n        /* \"#utility.yul\":16793:16796   */\n      0xc0\n        /* \"#utility.yul\":16788:16790   */\n      0x40\n        /* \"#utility.yul\":16777:16786   */\n      dup3\n        /* \"#utility.yul\":16773:16791   */\n      add\n        /* \"#utility.yul\":16766:16797   */\n      mstore\n        /* \"#utility.yul\":16610:16614   */\n      0x00\n        /* \"#utility.yul\":16820:16866   */\n      tag_507\n        /* \"#utility.yul\":16861:16864   */\n      0xc0\n        /* \"#utility.yul\":16850:16859   */\n      dup4\n        /* \"#utility.yul\":16846:16865   */\n      add\n        /* \"#utility.yul\":16838:16844   */\n      dup8\n        /* \"#utility.yul\":16820:16866   */\n      tag_380\n      jump\t// in\n    tag_507:\n        /* \"#utility.yul\":16914:16923   */\n      dup3\n        /* \"#utility.yul\":16906:16912   */\n      dup2\n        /* \"#utility.yul\":16902:16924   */\n      sub\n        /* \"#utility.yul\":16897:16899   */\n      0x60\n        /* \"#utility.yul\":16886:16895   */\n      dup5\n        /* \"#utility.yul\":16882:16900   */\n      add\n        /* \"#utility.yul\":16875:16925   */\n      mstore\n        /* \"#utility.yul\":16948:16991   */\n      tag_508\n        /* \"#utility.yul\":16984:16990   */\n      dup2\n        /* \"#utility.yul\":16976:16982   */\n      dup8\n        /* \"#utility.yul\":16948:16991   */\n      tag_381\n      jump\t// in\n    tag_508:\n        /* \"#utility.yul\":16934:16991   */\n      swap1\n      pop\n        /* \"#utility.yul\":17040:17049   */\n      dup3\n        /* \"#utility.yul\":17032:17038   */\n      dup2\n        /* \"#utility.yul\":17028:17050   */\n      sub\n        /* \"#utility.yul\":17022:17025   */\n      0x80\n        /* \"#utility.yul\":17011:17020   */\n      dup5\n        /* \"#utility.yul\":17007:17026   */\n      add\n        /* \"#utility.yul\":17000:17051   */\n      mstore\n        /* \"#utility.yul\":17068:17101   */\n      tag_509\n        /* \"#utility.yul\":17094:17100   */\n      dup2\n        /* \"#utility.yul\":17086:17092   */\n      dup7\n        /* \"#utility.yul\":17068:17101   */\n      tag_380\n      jump\t// in\n    tag_509:\n        /* \"#utility.yul\":17060:17101   */\n      swap2\n      pop\n      pop\n        /* \"#utility.yul\":17138:17144   */\n      dup3\n        /* \"#utility.yul\":17132:17135   */\n      0xa0\n        /* \"#utility.yul\":17121:17130   */\n      dup4\n        /* \"#utility.yul\":17117:17136   */\n      add\n        /* \"#utility.yul\":17110:17145   */\n      mstore\n        /* \"#utility.yul\":16272:17151   */\n      swap8\n      swap7\n      pop\n      pop\n      pop\n      pop\n      pop\n      pop\n      pop\n      jump\t// out\n        /* \"#utility.yul\":17156:17447   */\n    tag_209:\n        /* \"#utility.yul\":17333:17335   */\n      0x40\n        /* \"#utility.yul\":17322:17331   */\n      dup2\n        /* \"#utility.yul\":17315:17336   */\n      mstore\n        /* \"#utility.yul\":17296:17300   */\n      0x00\n        /* \"#utility.yul\":17353:17398   */\n      tag_511\n        /* \"#utility.yul\":17394:17396   */\n      0x40\n        /* \"#utility.yul\":17383:17392   */\n      dup4\n        /* \"#utility.yul\":17379:17397   */\n      add\n        /* \"#utility.yul\":17371:17377   */\n      dup6\n        /* \"#utility.yul\":17353:17398   */\n      tag_380\n      jump\t// in\n    tag_511:\n        /* \"#utility.yul\":17345:17398   */\n      swap1\n      pop\n        /* \"#utility.yul\":17434:17440   */\n      dup3\n        /* \"#utility.yul\":17429:17431   */\n      0x20\n        /* \"#utility.yul\":17418:17427   */\n      dup4\n        /* \"#utility.yul\":17414:17432   */\n      add\n        /* \"#utility.yul\":17407:17441   */\n      mstore\n        /* \"#utility.yul\":17156:17447   */\n      swap4\n      swap3\n      pop\n      pop\n      pop\n      jump\t// out\n        /* \"#utility.yul\":18280:18660   */\n    tag_251:\n        /* \"#utility.yul\":18359:18360   */\n      0x01\n        /* \"#utility.yul\":18355:18367   */\n      dup2\n      dup2\n      shr\n      swap1\n        /* \"#utility.yul\":18402:18414   */\n      dup3\n      and\n      dup1\n        /* \"#utility.yul\":18423:18484   */\n      tag_516\n      jumpi\n        /* \"#utility.yul\":18477:18481   */\n      0x7f\n        /* \"#utility.yul\":18469:18475   */\n      dup3\n        /* \"#utility.yul\":18465:18482   */\n      and\n        /* \"#utility.yul\":18455:18482   */\n      swap2\n      pop\n        /* \"#utility.yul\":18423:18484   */\n    tag_516:\n        /* \"#utility.yul\":18530:18532   */\n      0x20\n        /* \"#utility.yul\":18522:18528   */\n      dup3\n        /* \"#utility.yul\":18519:18533   */\n      lt\n        /* \"#utility.yul\":18499:18517   */\n      dup2\n        /* \"#utility.yul\":18496:18534   */\n      sub\n        /* \"#utility.yul\":18493:18654   */\n      tag_390\n      jumpi\n        /* \"#utility.yul\":18576:18586   */\n      0x4e487b71\n        /* \"#utility.yul\":18571:18574   */\n      0xe0\n        /* \"#utility.yul\":18567:18587   */\n      shl\n        /* \"#utility.yul\":18564:18565   */\n      0x00\n        /* \"#utility.yul\":18557:18588   */\n      mstore\n        /* \"#utility.yul\":18611:18615   */\n      0x22\n        /* \"#utility.yul\":18608:18609   */\n      0x04\n        /* \"#utility.yul\":18601:18616   */\n      mstore\n        /* \"#utility.yul\":18639:18643   */\n      0x24\n        /* \"#utility.yul\":18636:18637   */\n      0x00\n        /* \"#utility.yul\":18629:18644   */\n      revert\n        /* \"#utility.yul\":18862:19018   */\n    tag_382:\n        /* \"#utility.yul\":18928:18948   */\n      dup1\n      calldataload\n        /* \"#utility.yul\":18988:18992   */\n      0xff\n        /* \"#utility.yul\":18977:18993   */\n      dup2\n      and\n        /* \"#utility.yul\":18967:18994   */\n      dup2\n      eq\n        /* \"#utility.yul\":18957:19012   */\n      tag_407\n      jumpi\n        /* \"#utility.yul\":19008:19009   */\n      0x00\n        /* \"#utility.yul\":19005:19006   */\n      dup1\n        /* \"#utility.yul\":18998:19010   */\n      revert\n        /* \"#utility.yul\":19023:19205   */\n    tag_277:\n        /* \"#utility.yul\":19080:19086   */\n      0x00\n        /* \"#utility.yul\":19133:19135   */\n      0x20\n        /* \"#utility.yul\":19121:19130   */\n      dup3\n        /* \"#utility.yul\":19112:19119   */\n      dup5\n        /* \"#utility.yul\":19108:19131   */\n      sub\n        /* \"#utility.yul\":19104:19136   */\n      slt\n        /* \"#utility.yul\":19101:19153   */\n      iszero\n      tag_522\n      jumpi\n        /* \"#utility.yul\":19149:19150   */\n      0x00\n        /* \"#utility.yul\":19146:19147   */\n      dup1\n        /* \"#utility.yul\":19139:19151   */\n      revert\n        /* \"#utility.yul\":19101:19153   */\n    tag_522:\n        /* \"#utility.yul\":19172:19199   */\n      tag_466\n        /* \"#utility.yul\":19189:19198   */\n      dup3\n        /* \"#utility.yul\":19172:19199   */\n      tag_382\n      jump\t// in\n        /* \"#utility.yul\":19210:20120   */\n    tag_294:\n        /* \"#utility.yul\":19429:19431   */\n      0x40\n        /* \"#utility.yul\":19418:19427   */\n      dup2\n        /* \"#utility.yul\":19411:19432   */\n      mstore\n        /* \"#utility.yul\":19487:19497   */\n      0xffffffff\n        /* \"#utility.yul\":19478:19484   */\n      dup4\n        /* \"#utility.yul\":19472:19485   */\n      mload\n        /* \"#utility.yul\":19468:19498   */\n      and\n        /* \"#utility.yul\":19463:19465   */\n      0x40\n        /* \"#utility.yul\":19452:19461   */\n      dup3\n        /* \"#utility.yul\":19448:19466   */\n      add\n        /* \"#utility.yul\":19441:19499   */\n      mstore\n        /* \"#utility.yul\":19553:19557   */\n      0x20\n        /* \"#utility.yul\":19545:19551   */\n      dup4\n        /* \"#utility.yul\":19541:19558   */\n      add\n        /* \"#utility.yul\":19535:19559   */\n      mload\n        /* \"#utility.yul\":19530:19532   */\n      0x60\n        /* \"#utility.yul\":19519:19528   */\n      dup3\n        /* \"#utility.yul\":19515:19533   */\n      add\n        /* \"#utility.yul\":19508:19560   */\n      mstore\n        /* \"#utility.yul\":19392:19396   */\n      0x00\n        /* \"#utility.yul\":19607:19609   */\n      0x40\n        /* \"#utility.yul\":19599:19605   */\n      dup5\n        /* \"#utility.yul\":19595:19610   */\n      add\n        /* \"#utility.yul\":19589:19611   */\n      mload\n        /* \"#utility.yul\":19648:19652   */\n      0xa0\n        /* \"#utility.yul\":19642:19645   */\n      0x80\n        /* \"#utility.yul\":19631:19640   */\n      dup5\n        /* \"#utility.yul\":19627:19646   */\n      add\n        /* \"#utility.yul\":19620:19653   */\n      mstore\n        /* \"#utility.yul\":19676:19728   */\n      tag_525\n        /* \"#utility.yul\":19723:19726   */\n      0xe0\n        /* \"#utility.yul\":19712:19721   */\n      dup5\n        /* \"#utility.yul\":19708:19727   */\n      add\n        /* \"#utility.yul\":19694:19706   */\n      dup3\n        /* \"#utility.yul\":19676:19728   */\n      tag_380\n      jump\t// in\n    tag_525:\n        /* \"#utility.yul\":19662:19728   */\n      swap1\n      pop\n        /* \"#utility.yul\":19777:19779   */\n      0x60\n        /* \"#utility.yul\":19769:19775   */\n      dup6\n        /* \"#utility.yul\":19765:19780   */\n      add\n        /* \"#utility.yul\":19759:19781   */\n      mload\n        /* \"#utility.yul\":19851:19853   */\n      0x3f\n        /* \"#utility.yul\":19847:19854   */\n      not\n        /* \"#utility.yul\":19835:19844   */\n      dup5\n        /* \"#utility.yul\":19827:19833   */\n      dup4\n        /* \"#utility.yul\":19823:19845   */\n      sub\n        /* \"#utility.yul\":19819:19855   */\n      add\n        /* \"#utility.yul\":19812:19816   */\n      0xa0\n        /* \"#utility.yul\":19801:19810   */\n      dup6\n        /* \"#utility.yul\":19797:19817   */\n      add\n        /* \"#utility.yul\":19790:19856   */\n      mstore\n        /* \"#utility.yul\":19879:19920   */\n      tag_526\n        /* \"#utility.yul\":19913:19919   */\n      dup3\n        /* \"#utility.yul\":19897:19911   */\n      dup3\n        /* \"#utility.yul\":19879:19920   */\n      tag_380\n      jump\t// in\n    tag_526:\n        /* \"#utility.yul\":19989:19992   */\n      0x80\n        /* \"#utility.yul\":19977:19993   */\n      swap7\n      swap1\n      swap7\n      add\n        /* \"#utility.yul\":19971:19994   */\n      mload\n        /* \"#utility.yul\":19964:19995   */\n      iszero\n        /* \"#utility.yul\":19957:19996   */\n      iszero\n        /* \"#utility.yul\":19951:19954   */\n      0xc0\n        /* \"#utility.yul\":19936:19955   */\n      dup6\n      add\n        /* \"#utility.yul\":19929:19997   */\n      mstore\n      pop\n      pop\n      pop\n      sub(shl(0xa0, 0x01), 0x01)\n        /* \"#utility.yul\":20058:20113   */\n      swap2\n      swap1\n      swap2\n      and\n        /* \"#utility.yul\":20051:20055   */\n      0x20\n        /* \"#utility.yul\":20036:20056   */\n      swap1\n      swap2\n      add\n        /* \"#utility.yul\":20029:20114   */\n      mstore\n        /* \"#utility.yul\":19865:19920   */\n      swap1\n        /* \"#utility.yul\":19210:20120   */\n      jump\t// out\n        /* \"#utility.yul\":20125:20727   */\n    tag_383:\n        /* \"#utility.yul\":20195:20200   */\n      0x00\n        /* \"#utility.yul\":20243:20247   */\n      0x40\n        /* \"#utility.yul\":20231:20240   */\n      dup3\n        /* \"#utility.yul\":20226:20229   */\n      dup5\n        /* \"#utility.yul\":20222:20241   */\n      sub\n        /* \"#utility.yul\":20218:20248   */\n      slt\n        /* \"#utility.yul\":20215:20265   */\n      iszero\n      tag_528\n      jumpi\n        /* \"#utility.yul\":20261:20262   */\n      0x00\n        /* \"#utility.yul\":20258:20259   */\n      dup1\n        /* \"#utility.yul\":20251:20263   */\n      revert\n        /* \"#utility.yul\":20215:20265   */\n    tag_528:\n        /* \"#utility.yul\":20314:20318   */\n      0x40\n        /* \"#utility.yul\":20308:20319   */\n      dup1\n      mload\n      swap1\n        /* \"#utility.yul\":20346:20363   */\n      dup2\n      add\n      sub(shl(0x40, 0x01), 0x01)\n        /* \"#utility.yul\":20378:20412   */\n      dup2\n      gt\n        /* \"#utility.yul\":20414:20436   */\n      dup3\n      dup3\n      lt\n        /* \"#utility.yul\":20375:20437   */\n      or\n        /* \"#utility.yul\":20372:20460   */\n      iszero\n      tag_530\n      jumpi\n        /* \"#utility.yul\":20440:20458   */\n      tag_530\n      tag_376\n      jump\t// in\n    tag_530:\n        /* \"#utility.yul\":20476:20480   */\n      0x40\n        /* \"#utility.yul\":20469:20493   */\n      mstore\n        /* \"#utility.yul\":20562:20578   */\n      dup3\n      mload\n        /* \"#utility.yul\":20587:20610   */\n      dup2\n      mstore\n        /* \"#utility.yul\":20676:20678   */\n      0x20\n        /* \"#utility.yul\":20661:20679   */\n      swap3\n      dup4\n      add\n        /* \"#utility.yul\":20655:20680   */\n      mload\n        /* \"#utility.yul\":20696:20711   */\n      swap3\n      dup2\n      add\n        /* \"#utility.yul\":20689:20721   */\n      swap3\n      swap1\n      swap3\n      mstore\n      pop\n        /* \"#utility.yul\":20511:20517   */\n      swap2\n        /* \"#utility.yul\":20125:20727   */\n      swap1\n      pop\n      jump\t// out\n        /* \"#utility.yul\":20732:20989   */\n    tag_298:\n        /* \"#utility.yul\":20830:20836   */\n      0x00\n        /* \"#utility.yul\":20883:20885   */\n      0x40\n        /* \"#utility.yul\":20871:20880   */\n      dup3\n        /* \"#utility.yul\":20862:20869   */\n      dup5\n        /* \"#utility.yul\":20858:20881   */\n      sub\n        /* \"#utility.yul\":20854:20886   */\n      slt\n        /* \"#utility.yul\":20851:20903   */\n      iszero\n      tag_532\n      jumpi\n        /* \"#utility.yul\":20899:20900   */\n      0x00\n        /* \"#utility.yul\":20896:20897   */\n      dup1\n        /* \"#utility.yul\":20889:20901   */\n      revert\n        /* \"#utility.yul\":20851:20903   */\n    tag_532:\n        /* \"#utility.yul\":20922:20983   */\n      tag_466\n        /* \"#utility.yul\":20975:20982   */\n      dup4\n        /* \"#utility.yul\":20964:20973   */\n      dup4\n        /* \"#utility.yul\":20922:20983   */\n      tag_383\n      jump\t// in\n        /* \"#utility.yul\":21354:22131   */\n    tag_316:\n        /* \"#utility.yul\":21456:21462   */\n      0x00\n        /* \"#utility.yul\":21516:21519   */\n      0x80\n        /* \"#utility.yul\":21504:21513   */\n      dup3\n        /* \"#utility.yul\":21495:21502   */\n      dup5\n        /* \"#utility.yul\":21491:21514   */\n      sub\n        /* \"#utility.yul\":21487:21520   */\n      slt\n        /* \"#utility.yul\":21532:21534   */\n      dup1\n        /* \"#utility.yul\":21529:21551   */\n      iszero\n      tag_536\n      jumpi\n        /* \"#utility.yul\":21547:21548   */\n      0x00\n        /* \"#utility.yul\":21544:21545   */\n      dup1\n        /* \"#utility.yul\":21537:21549   */\n      revert\n        /* \"#utility.yul\":21529:21551   */\n    tag_536:\n      pop\n        /* \"#utility.yul\":21616:21618   */\n      0x40\n        /* \"#utility.yul\":21610:21619   */\n      mload\n        /* \"#utility.yul\":21658:21662   */\n      0x60\n        /* \"#utility.yul\":21646:21663   */\n      dup2\n      add\n      sub(shl(0x40, 0x01), 0x01)\n        /* \"#utility.yul\":21678:21712   */\n      dup2\n      gt\n        /* \"#utility.yul\":21714:21736   */\n      dup3\n      dup3\n      lt\n        /* \"#utility.yul\":21675:21737   */\n      or\n        /* \"#utility.yul\":21672:21760   */\n      iszero\n      tag_538\n      jumpi\n        /* \"#utility.yul\":21740:21758   */\n      tag_538\n      tag_376\n      jump\t// in\n    tag_538:\n        /* \"#utility.yul\":21776:21778   */\n      0x40\n        /* \"#utility.yul\":21769:21791   */\n      mstore\n        /* \"#utility.yul\":21815:21831   */\n      dup3\n      mload\n        /* \"#utility.yul\":21800:21832   */\n      dup2\n      mstore\n        /* \"#utility.yul\":21875:21877   */\n      0x20\n        /* \"#utility.yul\":21860:21878   */\n      dup4\n      add\n        /* \"#utility.yul\":21854:21879   */\n      mload\n      sub(shl(0x40, 0x01), 0x01)\n        /* \"#utility.yul\":21908:21938   */\n      dup2\n      and\n        /* \"#utility.yul\":21898:21939   */\n      dup2\n      eq\n        /* \"#utility.yul\":21888:21957   */\n      tag_539\n      jumpi\n        /* \"#utility.yul\":21953:21954   */\n      0x00\n        /* \"#utility.yul\":21950:21951   */\n      dup1\n        /* \"#utility.yul\":21943:21955   */\n      revert\n        /* \"#utility.yul\":21888:21957   */\n    tag_539:\n        /* \"#utility.yul\":21985:21987   */\n      0x20\n        /* \"#utility.yul\":21973:21988   */\n      dup3\n      add\n        /* \"#utility.yul\":21966:21996   */\n      mstore\n        /* \"#utility.yul\":22029:22099   */\n      tag_540\n        /* \"#utility.yul\":22091:22098   */\n      dup5\n        /* \"#utility.yul\":22086:22088   */\n      0x40\n        /* \"#utility.yul\":22071:22089   */\n      dup6\n      add\n        /* \"#utility.yul\":22029:22099   */\n      tag_383\n      jump\t// in\n    tag_540:\n        /* \"#utility.yul\":22024:22026   */\n      0x40\n        /* \"#utility.yul\":22012:22027   */\n      dup3\n      add\n        /* \"#utility.yul\":22005:22100   */\n      mstore\n        /* \"#utility.yul\":22016:22022   */\n      swap4\n        /* \"#utility.yul\":21354:22131   */\n      swap3\n      pop\n      pop\n      pop\n      jump\t// out\n        /* \"#utility.yul\":22136:22278   */\n    tag_384:\n        /* \"#utility.yul\":22212:22232   */\n      dup1\n      calldataload\n        /* \"#utility.yul\":22241:22272   */\n      tag_407\n        /* \"#utility.yul\":22212:22232   */\n      dup2\n        /* \"#utility.yul\":22241:22272   */\n      tag_374\n      jump\t// in\n        /* \"#utility.yul\":22283:23591   */\n    tag_321:\n        /* \"#utility.yul\":22466:22472   */\n      0x00\n        /* \"#utility.yul\":22474:22480   */\n      dup1\n        /* \"#utility.yul\":22482:22488   */\n      0x00\n        /* \"#utility.yul\":22490:22496   */\n      dup1\n        /* \"#utility.yul\":22498:22504   */\n      0x00\n        /* \"#utility.yul\":22506:22512   */\n      dup1\n        /* \"#utility.yul\":22514:22520   */\n      0x00\n        /* \"#utility.yul\":22522:22528   */\n      dup1\n        /* \"#utility.yul\":22575:22578   */\n      0x0100\n        /* \"#utility.yul\":22563:22572   */\n      dup10\n        /* \"#utility.yul\":22554:22561   */\n      dup12\n        /* \"#utility.yul\":22550:22573   */\n      sub\n        /* \"#utility.yul\":22546:22579   */\n      slt\n        /* \"#utility.yul\":22543:22596   */\n      iszero\n      tag_544\n      jumpi\n        /* \"#utility.yul\":22592:22593   */\n      0x00\n        /* \"#utility.yul\":22589:22590   */\n      dup1\n        /* \"#utility.yul\":22582:22594   */\n      revert\n        /* \"#utility.yul\":22543:22596   */\n    tag_544:\n        /* \"#utility.yul\":22615:22642   */\n      tag_545\n        /* \"#utility.yul\":22632:22641   */\n      dup10\n        /* \"#utility.yul\":22615:22642   */\n      tag_382\n      jump\t// in\n    tag_545:\n        /* \"#utility.yul\":22605:22642   */\n      swap8\n      pop\n        /* \"#utility.yul\":22711:22713   */\n      0x20\n        /* \"#utility.yul\":22696:22714   */\n      dup10\n      add\n        /* \"#utility.yul\":22683:22715   */\n      calldataload\n      swap7\n      pop\n        /* \"#utility.yul\":22812:22814   */\n      0x40\n        /* \"#utility.yul\":22797:22815   */\n      dup10\n      add\n        /* \"#utility.yul\":22784:22816   */\n      calldataload\n      swap6\n      pop\n        /* \"#utility.yul\":22861:22907   */\n      tag_546\n        /* \"#utility.yul\":22903:22905   */\n      0x60\n        /* \"#utility.yul\":22888:22906   */\n      dup11\n      add\n        /* \"#utility.yul\":22861:22907   */\n      tag_384\n      jump\t// in\n    tag_546:\n        /* \"#utility.yul\":22851:22907   */\n      swap5\n      pop\n        /* \"#utility.yul\":22958:22961   */\n      0x80\n        /* \"#utility.yul\":22947:22956   */\n      dup10\n        /* \"#utility.yul\":22943:22962   */\n      add\n        /* \"#utility.yul\":22930:22963   */\n      calldataload\n      sub(shl(0x40, 0x01), 0x01)\n        /* \"#utility.yul\":22978:22984   */\n      dup2\n        /* \"#utility.yul\":22975:23005   */\n      gt\n        /* \"#utility.yul\":22972:23022   */\n      iszero\n      tag_547\n      jumpi\n        /* \"#utility.yul\":23018:23019   */\n      0x00\n        /* \"#utility.yul\":23015:23016   */\n      dup1\n        /* \"#utility.yul\":23008:23020   */\n      revert\n        /* \"#utility.yul\":22972:23022   */\n    tag_547:\n        /* \"#utility.yul\":23041:23091   */\n      tag_548\n        /* \"#utility.yul\":23083:23090   */\n      dup12\n        /* \"#utility.yul\":23074:23080   */\n      dup3\n        /* \"#utility.yul\":23063:23072   */\n      dup13\n        /* \"#utility.yul\":23059:23081   */\n      add\n        /* \"#utility.yul\":23041:23091   */\n      tag_378\n      jump\t// in\n    tag_548:\n        /* \"#utility.yul\":23031:23091   */\n      swap5\n      pop\n      pop\n        /* \"#utility.yul\":23144:23147   */\n      0xa0\n        /* \"#utility.yul\":23133:23142   */\n      dup10\n        /* \"#utility.yul\":23129:23148   */\n      add\n        /* \"#utility.yul\":23116:23149   */\n      calldataload\n      sub(shl(0x40, 0x01), 0x01)\n        /* \"#utility.yul\":23164:23172   */\n      dup2\n        /* \"#utility.yul\":23161:23193   */\n      gt\n        /* \"#utility.yul\":23158:23210   */\n      iszero\n      tag_549\n      jumpi\n        /* \"#utility.yul\":23206:23207   */\n      0x00\n        /* \"#utility.yul\":23203:23204   */\n      dup1\n        /* \"#utility.yul\":23196:23208   */\n      revert\n        /* \"#utility.yul\":23158:23210   */\n    tag_549:\n        /* \"#utility.yul\":23229:23291   */\n      tag_550\n        /* \"#utility.yul\":23283:23290   */\n      dup12\n        /* \"#utility.yul\":23272:23280   */\n      dup3\n        /* \"#utility.yul\":23261:23270   */\n      dup13\n        /* \"#utility.yul\":23257:23281   */\n      add\n        /* \"#utility.yul\":23229:23291   */\n      tag_379\n      jump\t// in\n    tag_550:\n        /* \"#utility.yul\":23219:23291   */\n      swap4\n      pop\n      pop\n        /* \"#utility.yul\":23344:23347   */\n      0xc0\n        /* \"#utility.yul\":23333:23342   */\n      dup10\n        /* \"#utility.yul\":23329:23348   */\n      add\n        /* \"#utility.yul\":23316:23349   */\n      calldataload\n      sub(shl(0x40, 0x01), 0x01)\n        /* \"#utility.yul\":23364:23372   */\n      dup2\n        /* \"#utility.yul\":23361:23393   */\n      gt\n        /* \"#utility.yul\":23358:23410   */\n      iszero\n      tag_551\n      jumpi\n        /* \"#utility.yul\":23406:23407   */\n      0x00\n        /* \"#utility.yul\":23403:23404   */\n      dup1\n        /* \"#utility.yul\":23396:23408   */\n      revert\n        /* \"#utility.yul\":23358:23410   */\n    tag_551:\n        /* \"#utility.yul\":23429:23481   */\n      tag_552\n        /* \"#utility.yul\":23473:23480   */\n      dup12\n        /* \"#utility.yul\":23462:23470   */\n      dup3\n        /* \"#utility.yul\":23451:23460   */\n      dup13\n        /* \"#utility.yul\":23447:23471   */\n      add\n        /* \"#utility.yul\":23429:23481   */\n      tag_378\n      jump\t// in\n    tag_552:\n        /* \"#utility.yul\":22283:23591   */\n      swap9\n      swap12\n      swap8\n      swap11\n      pop\n      swap6\n      swap9\n      swap5\n      swap8\n      swap4\n      swap7\n      swap3\n      swap6\n      pop\n        /* \"#utility.yul\":23419:23481   */\n      swap3\n      swap4\n        /* \"#utility.yul\":23554:23557   */\n      0xe0\n        /* \"#utility.yul\":23539:23558   */\n      add\n        /* \"#utility.yul\":23526:23559   */\n      calldataload\n      swap3\n      pop\n      pop\n        /* \"#utility.yul\":22283:23591   */\n      jump\t// out\n        /* \"#utility.yul\":24069:24587   */\n    tag_386:\n        /* \"#utility.yul\":24171:24173   */\n      0x1f\n        /* \"#utility.yul\":24166:24169   */\n      dup3\n        /* \"#utility.yul\":24163:24174   */\n      gt\n        /* \"#utility.yul\":24160:24581   */\n      iszero\n      tag_556\n      jumpi\n        /* \"#utility.yul\":24207:24212   */\n      dup1\n        /* \"#utility.yul\":24204:24205   */\n      0x00\n        /* \"#utility.yul\":24197:24213   */\n      mstore\n        /* \"#utility.yul\":24251:24255   */\n      0x20\n        /* \"#utility.yul\":24248:24249   */\n      0x00\n        /* \"#utility.yul\":24238:24256   */\n      keccak256\n        /* \"#utility.yul\":24321:24323   */\n      0x1f\n        /* \"#utility.yul\":24309:24319   */\n      dup5\n        /* \"#utility.yul\":24305:24324   */\n      add\n        /* \"#utility.yul\":24302:24303   */\n      0x05\n        /* \"#utility.yul\":24298:24325   */\n      shr\n        /* \"#utility.yul\":24292:24296   */\n      dup2\n        /* \"#utility.yul\":24288:24326   */\n      add\n        /* \"#utility.yul\":24357:24361   */\n      0x20\n        /* \"#utility.yul\":24345:24355   */\n      dup6\n        /* \"#utility.yul\":24342:24362   */\n      lt\n        /* \"#utility.yul\":24339:24386   */\n      iszero\n      tag_557\n      jumpi\n      pop\n        /* \"#utility.yul\":24380:24384   */\n      dup1\n        /* \"#utility.yul\":24339:24386   */\n    tag_557:\n        /* \"#utility.yul\":24435:24437   */\n      0x1f\n        /* \"#utility.yul\":24430:24433   */\n      dup5\n        /* \"#utility.yul\":24426:24438   */\n      add\n        /* \"#utility.yul\":24423:24424   */\n      0x05\n        /* \"#utility.yul\":24419:24439   */\n      shr\n        /* \"#utility.yul\":24413:24417   */\n      dup3\n        /* \"#utility.yul\":24409:24440   */\n      add\n        /* \"#utility.yul\":24399:24440   */\n      swap2\n      pop\n        /* \"#utility.yul\":24490:24571   */\n    tag_558:\n        /* \"#utility.yul\":24508:24510   */\n      dup2\n        /* \"#utility.yul\":24501:24506   */\n      dup2\n        /* \"#utility.yul\":24498:24511   */\n      lt\n        /* \"#utility.yul\":24490:24571   */\n      iszero\n      tag_242\n      jumpi\n        /* \"#utility.yul\":24567:24568   */\n      0x00\n        /* \"#utility.yul\":24553:24569   */\n      dup2\n      sstore\n        /* \"#utility.yul\":24534:24535   */\n      0x01\n        /* \"#utility.yul\":24523:24536   */\n      add\n        /* \"#utility.yul\":24490:24571   */\n      jump(tag_558)\n        /* \"#utility.yul\":24160:24581   */\n    tag_556:\n        /* \"#utility.yul\":24069:24587   */\n      pop\n      pop\n      pop\n      jump\t// out\n        /* \"#utility.yul\":24763:26062   */\n    tag_326:\n        /* \"#utility.yul\":24889:24892   */\n      dup2\n        /* \"#utility.yul\":24883:24893   */\n      mload\n      sub(shl(0x40, 0x01), 0x01)\n        /* \"#utility.yul\":24908:24914   */\n      dup2\n        /* \"#utility.yul\":24905:24935   */\n      gt\n        /* \"#utility.yul\":24902:24958   */\n      iszero\n      tag_564\n      jumpi\n        /* \"#utility.yul\":24938:24956   */\n      tag_564\n      tag_376\n      jump\t// in\n    tag_564:\n        /* \"#utility.yul\":24967:25064   */\n      tag_565\n        /* \"#utility.yul\":25057:25063   */\n      dup2\n        /* \"#utility.yul\":25017:25055   */\n      tag_566\n        /* \"#utility.yul\":25049:25053   */\n      dup5\n        /* \"#utility.yul\":25043:25054   */\n      sload\n        /* \"#utility.yul\":25017:25055   */\n      tag_251\n      jump\t// in\n    tag_566:\n        /* \"#utility.yul\":25011:25015   */\n      dup5\n        /* \"#utility.yul\":24967:25064   */\n      tag_386\n      jump\t// in\n    tag_565:\n        /* \"#utility.yul\":25113:25117   */\n      0x20\n        /* \"#utility.yul\":25144:25146   */\n      0x1f\n        /* \"#utility.yul\":25133:25147   */\n      dup3\n      gt\n        /* \"#utility.yul\":25161:25162   */\n      0x01\n        /* \"#utility.yul\":25156:25805   */\n      dup2\n      eq\n      tag_568\n      jumpi\n        /* \"#utility.yul\":25849:25850   */\n      0x00\n        /* \"#utility.yul\":25866:25872   */\n      dup4\n        /* \"#utility.yul\":25863:25952   */\n      iszero\n      tag_569\n      jumpi\n      pop\n        /* \"#utility.yul\":25918:25937   */\n      dup5\n      dup3\n      add\n        /* \"#utility.yul\":25912:25938   */\n      mload\n        /* \"#utility.yul\":25863:25952   */\n    tag_569:\n      not(0x00)\n        /* \"#utility.yul\":24720:24721   */\n      0x03\n        /* \"#utility.yul\":24716:24727   */\n      dup6\n      swap1\n      shl\n        /* \"#utility.yul\":24712:24736   */\n      shr\n        /* \"#utility.yul\":24708:24737   */\n      not\n        /* \"#utility.yul\":24698:24738   */\n      and\n        /* \"#utility.yul\":24744:24745   */\n      0x01\n        /* \"#utility.yul\":24740:24751   */\n      dup5\n      swap1\n      shl\n        /* \"#utility.yul\":24695:24752   */\n      or\n        /* \"#utility.yul\":25965:26046   */\n      dup5\n      sstore\n        /* \"#utility.yul\":25126:26056   */\n      jump(tag_242)\n        /* \"#utility.yul\":25156:25805   */\n    tag_568:\n        /* \"#utility.yul\":24016:24017   */\n      0x00\n        /* \"#utility.yul\":24009:24023   */\n      dup5\n      dup2\n      mstore\n        /* \"#utility.yul\":24053:24057   */\n      0x20\n        /* \"#utility.yul\":24040:24058   */\n      dup2\n      keccak256\n      not(0x1f)\n        /* \"#utility.yul\":25192:25212   */\n      dup6\n      and\n      swap2\n        /* \"#utility.yul\":25310:25532   */\n    tag_572:\n        /* \"#utility.yul\":25324:25331   */\n      dup3\n        /* \"#utility.yul\":25321:25322   */\n      dup2\n        /* \"#utility.yul\":25318:25332   */\n      lt\n        /* \"#utility.yul\":25310:25532   */\n      iszero\n      tag_574\n      jumpi\n        /* \"#utility.yul\":25406:25425   */\n      dup8\n      dup6\n      add\n        /* \"#utility.yul\":25400:25426   */\n      mload\n        /* \"#utility.yul\":25385:25427   */\n      dup3\n      sstore\n        /* \"#utility.yul\":25513:25517   */\n      0x20\n        /* \"#utility.yul\":25498:25518   */\n      swap5\n      dup6\n      add\n      swap5\n        /* \"#utility.yul\":25466:25467   */\n      0x01\n        /* \"#utility.yul\":25454:25468   */\n      swap1\n      swap3\n      add\n      swap2\n        /* \"#utility.yul\":25340:25352   */\n      add\n        /* \"#utility.yul\":25310:25532   */\n      jump(tag_572)\n    tag_574:\n        /* \"#utility.yul\":25314:25317   */\n      pop\n        /* \"#utility.yul\":25560:25566   */\n      dup5\n        /* \"#utility.yul\":25551:25558   */\n      dup3\n        /* \"#utility.yul\":25548:25567   */\n      lt\n        /* \"#utility.yul\":25545:25746   */\n      iszero\n      tag_575\n      jumpi\n        /* \"#utility.yul\":25621:25640   */\n      dup7\n      dup5\n      add\n        /* \"#utility.yul\":25615:25641   */\n      mload\n      not(0x00)\n        /* \"#utility.yul\":25704:25705   */\n      0x03\n        /* \"#utility.yul\":25700:25714   */\n      dup8\n      swap1\n      shl\n        /* \"#utility.yul\":25716:25719   */\n      0xf8\n        /* \"#utility.yul\":25696:25720   */\n      and\n        /* \"#utility.yul\":25692:25729   */\n      shr\n        /* \"#utility.yul\":25688:25730   */\n      not\n        /* \"#utility.yul\":25673:25731   */\n      and\n        /* \"#utility.yul\":25658:25732   */\n      dup2\n      sstore\n        /* \"#utility.yul\":25545:25746   */\n    tag_575:\n      pop\n      pop\n      pop\n      pop\n        /* \"#utility.yul\":25792:25793   */\n      0x01\n        /* \"#utility.yul\":25776:25790   */\n      swap1\n      dup2\n      shl\n        /* \"#utility.yul\":25772:25794   */\n      add\n        /* \"#utility.yul\":25759:25795   */\n      swap1\n      sstore\n      pop\n        /* \"#utility.yul\":24763:26062   */\n      jump\t// out\n        /* \"#utility.yul\":26067:26407   */\n    tag_331:\n      sub(shl(0xa0, 0x01), 0x01)\n        /* \"#utility.yul\":26248:26254   */\n      dup4\n        /* \"#utility.yul\":26244:26299   */\n      and\n        /* \"#utility.yul\":26233:26242   */\n      dup2\n        /* \"#utility.yul\":26226:26300   */\n      mstore\n        /* \"#utility.yul\":26336:26338   */\n      0x40\n        /* \"#utility.yul\":26331:26333   */\n      0x20\n        /* \"#utility.yul\":26320:26329   */\n      dup3\n        /* \"#utility.yul\":26316:26334   */\n      add\n        /* \"#utility.yul\":26309:26339   */\n      mstore\n        /* \"#utility.yul\":26207:26211   */\n      0x00\n        /* \"#utility.yul\":26356:26401   */\n      tag_577\n        /* \"#utility.yul\":26397:26399   */\n      0x40\n        /* \"#utility.yul\":26386:26395   */\n      dup4\n        /* \"#utility.yul\":26382:26400   */\n      add\n        /* \"#utility.yul\":26374:26380   */\n      dup5\n        /* \"#utility.yul\":26356:26401   */\n      tag_380\n      jump\t// in\n    tag_577:\n        /* \"#utility.yul\":26348:26401   */\n      swap5\n        /* \"#utility.yul\":26067:26407   */\n      swap4\n      pop\n      pop\n      pop\n      pop\n      jump\t// out\n        /* \"#utility.yul\":26412:26663   */\n    tag_340:\n        /* \"#utility.yul\":26482:26488   */\n      0x00\n        /* \"#utility.yul\":26535:26537   */\n      0x20\n        /* \"#utility.yul\":26523:26532   */\n      dup3\n        /* \"#utility.yul\":26514:26521   */\n      dup5\n        /* \"#utility.yul\":26510:26533   */\n      sub\n        /* \"#utility.yul\":26506:26538   */\n      slt\n        /* \"#utility.yul\":26503:26555   */\n      iszero\n      tag_579\n      jumpi\n        /* \"#utility.yul\":26551:26552   */\n      0x00\n        /* \"#utility.yul\":26548:26549   */\n      dup1\n        /* \"#utility.yul\":26541:26553   */\n      revert\n        /* \"#utility.yul\":26503:26555   */\n    tag_579:\n        /* \"#utility.yul\":26583:26592   */\n      dup2\n        /* \"#utility.yul\":26577:26593   */\n      mload\n        /* \"#utility.yul\":26602:26633   */\n      tag_466\n        /* \"#utility.yul\":26627:26632   */\n      dup2\n        /* \"#utility.yul\":26602:26633   */\n      tag_374\n      jump\t// in\n\n    auxdata: 0xa26469706673582212205f239cb7126317bf1b66b126501a5eda2e0a3f590bba1b1a4d2b151fc134474764736f6c634300081c0033\n}\n",
				"bytecode": {
					"linkReferences": {},
					"object": "60c060405234801561001057600080fd5b506040516124c13803806124c183398101604081905261002f91610183565b82828181806001600160a01b03811661006257604051631e4fbdf760e01b81526000600482015260240160405180910390fd5b61006b81610117565b506001600160a01b03808316608052811661009957604051632d618d8160e21b815260040160405180910390fd5b60805160405163ca5eb5e160e01b81526001600160a01b0383811660048301529091169063ca5eb5e190602401600060405180830381600087803b1580156100e057600080fd5b505af11580156100f4573d6000803e3d6000fd5b505060016002555050506001600160a01b0390931660a052506101c69350505050565b600080546001600160a01b038381166001600160a01b0319831681178455604051919092169283917f8be0079c531659141344cd1fd0a4f28419497f9722a3daafe3b4186f6b6457e09190a35050565b80516001600160a01b038116811461017e57600080fd5b919050565b60008060006060848603121561019857600080fd5b6101a184610167565b92506101af60208501610167565b91506101bd60408501610167565b90509250925092565b60805160a05161229e610223600039600081816103e8015281816108d30152610b3b0152600081816102390152818161045e01528181610ce0015281816111050152818161125a015281816115600152611617015261229e6000f3fe6080604052600436106101235760003560e01c806382413eac116100a0578063ca5eb5e111610064578063ca5eb5e114610396578063f2fde38b146103b6578063f897a22b146103d6578063fa49def11461040a578063ff7bd03d1461043c57600080fd5b806382413eac146102be5780638da5cb5b146102fd578063ad3b1b471461031b578063bb0b6a531461033b578063c75339411461037657600080fd5b806358f5228e116100e757806358f5228e146101d95780635e280f111461022757806364bd90eb1461025b578063715018a61461026e5780637d25a05e1461028357600080fd5b806313137d651461012f57806317442b70146101445780633400288b1461016b57806342dc62991461018b57806348967a46146101c657600080fd5b3661012a57005b600080fd5b61014261013d366004611869565b61045c565b005b34801561015057600080fd5b50604080516001815260026020820152015b60405180910390f35b34801561017757600080fd5b50610142610186366004611923565b61051c565b34801561019757600080fd5b506101ab6101a636600461194d565b610532565b60408051825181526020928301519281019290925201610162565b6101426101d436600461194d565b6105ba565b3480156101e557600080fd5b5061020f6101f43660046119a6565b6000908152600360205260409020546001600160a01b031690565b6040516001600160a01b039091168152602001610162565b34801561023357600080fd5b5061020f7f000000000000000000000000000000000000000000000000000000000000000081565b610142610269366004611b10565b6107eb565b34801561027a57600080fd5b50610142610af9565b34801561028f57600080fd5b506102a661029e366004611923565b600092915050565b6040516001600160401b039091168152602001610162565b3480156102ca57600080fd5b506102ed6102d9366004611bce565b6001600160a01b0381163014949350505050565b6040519015158152602001610162565b34801561030957600080fd5b506000546001600160a01b031661020f565b34801561032757600080fd5b50610142610336366004611c34565b610b0d565b34801561034757600080fd5b50610368610356366004611c52565b60016020526000908152604090205481565b604051908152602001610162565b34801561038257600080fd5b506101ab610391366004611b10565b610c2d565b3480156103a257600080fd5b506101426103b1366004611c74565b610cb9565b3480156103c257600080fd5b506101426103d1366004611c74565b610d3f565b3480156103e257600080fd5b5061020f7f000000000000000000000000000000000000000000000000000000000000000081565b34801561041657600080fd5b5061042a6104253660046119a6565b610d7d565b60405161016296959493929190611d33565b34801561044857600080fd5b506102ed610457366004611d96565b610fc5565b7f00000000000000000000000000000000000000000000000000000000000000006001600160a01b031633146104ac576040516391ac5e4f60e01b81523360048201526024015b60405180910390fd5b602087018035906104c6906104c1908a611c52565b610ffb565b14610504576104d86020880188611c52565b60405163309afaf360e21b815263ffffffff9091166004820152602088013560248201526044016104a3565b6105138787878787878761103d565b50505050505050565b61052461106d565b61052e828261109a565b5050565b6040805180820190915260008082526020820152604080516002602082015260009181018290526060810186905260800160408051601f198184030181526020601f870181900481028401810190925285835292506105b09188918491908890889081908401838280828437600092018290525092506110ef915050565b9695505050505050565b6105c26111d0565b600083116106075760405162461bcd60e51b8152602060048201526012602482015271125b9d985b1a59081c1c9bd99a5b1948125160721b60448201526064016104a3565b60048054600091339186918461061c83611db2565b9091555060405160609390931b6bffffffffffffffffffffffff191660208401526034830191909152605482015242607482015260940160408051601f19818403018152828252805160209182012060008181526003835283812080546001600160a01b03191633179055600292850192909252918301829052606083018790529092509060800160408051601f198184030181526020601f870181900481028401810190925285835292506000916106f391899185918990899081908401838280828437600092018290525092506110ef915050565b805190915034101561073c5760405162461bcd60e51b81526020600482015260126024820152714e61746976652066656520746f6f206c6f7760701b60448201526064016104a3565b610794878387878080601f016020809104026020016040519081016040528093929190818152602001838380828437600092018290525060408051808201909152348152602081019190915292503391506112279050565b506040805187815260208101859052339163ffffffff8a16917f5e1493a519d6454fac2755f647ffdd3c0e4aeaff4d90e08bb2bacb37604244b3910160405180910390a35050506107e56001600255565b50505050565b6107f36111d0565b60008651116108315760405162461bcd60e51b815260206004820152600a6024820152694e616d6520656d70747960b01b60448201526064016104a3565b60008551116108715760405162461bcd60e51b815260206004820152600c60248201526b536b696c6c7320656d70747960a01b60448201526064016104a3565b600083116108b15760405162461bcd60e51b815260206004820152600d60248201526c5553445420666565207a65726f60981b60448201526064016104a3565b6040516323b872dd60e01b8152336004820152306024820152604481018490527f00000000000000000000000000000000000000000000000000000000000000006001600160a01b0316906323b872dd906064016020604051808303816000875af1158015610924573d6000803e3d6000fd5b505050506040513d601f19601f820116820180604052508101906109489190611dd9565b6109945760405162461bcd60e51b815260206004820152601460248201527f55534454207472616e73666572206661696c656400000000000000000000000060448201526064016104a3565b6000600133888888886040516020016109b296959493929190611dfb565b60408051601f198184030181526020601f86018190048102840181019092528483529250600091610a01918b9185918890889081908401838280828437600092018290525092506110ef915050565b8051909150341015610a4a5760405162461bcd60e51b81526020600482015260126024820152714e61746976652066656520746f6f206c6f7760701b60448201526064016104a3565b610aa2898386868080601f016020809104026020016040519081016040528093929190818152602001838380828437600092018290525060408051808201909152348152602081019190915292503391506112279050565b50336001600160a01b03168963ffffffff167f367df553a20f9d6a48f562a05a838605d973217c1e3980b1c5d542e2eeaafb638a88604051610ae5929190611e60565b60405180910390a350506105136001600255565b610b0161106d565b610b0b6000611332565b565b610b1561106d565b60405163a9059cbb60e01b81526001600160a01b038381166004830152602482018390527f0000000000000000000000000000000000000000000000000000000000000000169063a9059cbb906044016020604051808303816000875af1158015610b84573d6000803e3d6000fd5b505050506040513d601f19601f82011682018060405250810190610ba89190611dd9565b610be65760405162461bcd60e51b815260206004820152600f60248201526e15da5d1a191c985dc819985a5b1959608a1b60448201526064016104a3565b816001600160a01b03167fc0819c13be868895eb93e40eaceb96de976442fa1d404e5c55f14bb65a8c489a82604051610c2191815260200190565b60405180910390a25050565b6040805180820190915260008082526020820152600060013389898989604051602001610c5f96959493929190611dfb565b60408051601f198184030181526020601f87018190048102840181019092528583529250610cac918b918491908890889081908401838280828437600092018290525092506110ef915050565b9998505050505050505050565b610cc161106d565b60405163ca5eb5e160e01b81526001600160a01b0382811660048301527f0000000000000000000000000000000000000000000000000000000000000000169063ca5eb5e190602401600060405180830381600087803b158015610d2457600080fd5b505af1158015610d38573d6000803e3d6000fd5b5050505050565b610d4761106d565b6001600160a01b038116610d7157604051631e4fbdf760e01b8152600060048201526024016104a3565b610d7a81611332565b50565b600081815260056020819052604082208054600482015492820154600183018054606095869586958995869592946001600160a01b03909216936002860192600387019260ff16908590610dd090611e82565b80601f0160208091040260200160405190810160405280929190818152602001828054610dfc90611e82565b8015610e495780601f10610e1e57610100808354040283529160200191610e49565b820191906000526020600020905b815481529060010190602001808311610e2c57829003601f168201915b5050505050945083805480602002602001604051908101604052809291908181526020016000905b82821015610f1d578382906000526020600020018054610e9090611e82565b80601f0160208091040260200160405190810160405280929190818152602001828054610ebc90611e82565b8015610f095780601f10610ede57610100808354040283529160200191610f09565b820191906000526020600020905b815481529060010190602001808311610eec57829003601f168201915b505050505081526020019060010190610e71565b505050509350828054610f2f90611e82565b80601f0160208091040260200160405190810160405280929190818152602001828054610f5b90611e82565b8015610fa85780601f10610f7d57610100808354040283529160200191610fa8565b820191906000526020600020905b815481529060010190602001808311610f8b57829003601f168201915b505050505092509650965096509650965096505091939550919395565b6000602082018035906001908390610fdd9086611c52565b63ffffffff1681526020810191909152604001600020541492915050565b63ffffffff8116600090815260016020526040812054806110375760405163f6ff4fb760e01b815263ffffffff841660048201526024016104a3565b92915050565b600061104b85870187611ec7565b905060021960ff821601611063576110638686611382565b5050505050505050565b6000546001600160a01b03163314610b0b5760405163118cdaa760e01b81523360048201526024016104a3565b63ffffffff8216600081815260016020908152604091829020849055815192835282018390527f238399d427b947898edb290f5ff0f9109849b1c3ba196a42e35f00c50a54b98b910160405180910390a15050565b60408051808201909152600080825260208201527f00000000000000000000000000000000000000000000000000000000000000006001600160a01b031663ddc28c586040518060a001604052808863ffffffff16815260200161115289610ffb565b8152602001878152602001868152602001851515815250306040518363ffffffff1660e01b8152600401611187929190611ee2565b6040805180830381865afa1580156111a3573d6000803e3d6000fd5b505050506040513d601f19601f820116820180604052508101906111c79190611fa9565b95945050505050565b60028054036112215760405162461bcd60e51b815260206004820152601f60248201527f5265656e7472616e637947756172643a207265656e7472616e742063616c6c0060448201526064016104a3565b60028055565b61122f6116f8565b600061123e8460000151611534565b60208501519091501561125857611258846020015161155c565b7f00000000000000000000000000000000000000000000000000000000000000006001600160a01b0316632637a450826040518060a001604052808b63ffffffff1681526020016112a88c610ffb565b81526020018a815260200189815260200160008960200151111515815250866040518463ffffffff1660e01b81526004016112e4929190611ee2565b60806040518083038185885af1158015611302573d6000803e3d6000fd5b50505050506040513d601f19601f820116820180604052508101906113279190611fc5565b979650505050505050565b600080546001600160a01b038381166001600160a01b0319831681178455604051919092169283917f8be0079c531659141344cd1fd0a4f28419497f9722a3daafe3b4186f6b6457e09190a35050565b6000808080808080611396888a018a612045565b600087815260036020526040902054969e50949c50929a509098509650945092506001600160a01b03169050806114045760405162461bcd60e51b8152602060048201526012602482015271125b9d985b1a59081c995c5d595cdd08125160721b60448201526064016104a3565b600088815260036020908152604080832080546001600160a01b0319908116909155815160c0810183526001600160a01b038b811682528185018b81528285018b9052606083018a905260808301899052600160a084018190528e8852600590965293909520815181549616959092169490941781559051909182019061148b9082612163565b50604082015180516114a791600284019160209091019061173f565b50606082015160038201906114bc9082612163565b506080820151600482015560a0909101516005909101805460ff191691151591909117905560405187906001600160a01b038316907f1bbdaea743d9c55a6d1fa9c544d8a14c9b977efb044e84f79e85a9db7f6a58f690611520908a908a90612221565b60405180910390a350505050505050505050565b6000813414611558576040516304fb820960e51b81523460048201526024016104a3565b5090565b60007f00000000000000000000000000000000000000000000000000000000000000006001600160a01b031663e4fe1d946040518163ffffffff1660e01b8152600401602060405180830381865afa1580156115bc573d6000803e3d6000fd5b505050506040513d601f19601f820116820180604052508101906115e0919061224b565b90506001600160a01b038116611609576040516329b99a9560e11b815260040160405180910390fd5b6040805133602482018190527f00000000000000000000000000000000000000000000000000000000000000006001600160a01b0381811660448501526064808501889052855180860390910181526084909401909452602080840180516001600160e01b03166323b872dd60e01b178152845161052e9688169589936107e593889360009283929091839182885af1806116aa576040513d6000823e3d81fd5b50506000513d915081156116c25780600114156116cf565b6001600160a01b0384163b155b156107e557604051635274afe760e01b81526001600160a01b03851660048201526024016104a3565b60405180606001604052806000801916815260200160006001600160401b0316815260200161173a604051806040016040528060008152602001600081525090565b905290565b828054828255906000526020600020908101928215611785579160200282015b8281111561178557825182906117759082612163565b509160200191906001019061175f565b506115589291505b808211156115585760006117a182826117aa565b5060010161178d565b5080546117b690611e82565b6000825580601f106117c6575050565b601f016020900490600052602060002090810190610d7a91905b8082111561155857600081556001016117e0565b60006060828403121561180657600080fd5b50919050565b60008083601f84011261181e57600080fd5b5081356001600160401b0381111561183557600080fd5b60208301915083602082850101111561184d57600080fd5b9250929050565b6001600160a01b0381168114610d7a57600080fd5b600080600080600080600060e0888a03121561188457600080fd5b61188e89896117f4565b96506060880135955060808801356001600160401b038111156118b057600080fd5b6118bc8a828b0161180c565b90965094505060a08801356118d081611854565b925060c08801356001600160401b038111156118eb57600080fd5b6118f78a828b0161180c565b989b979a50959850939692959293505050565b803563ffffffff8116811461191e57600080fd5b919050565b6000806040838503121561193657600080fd5b61193f8361190a565b946020939093013593505050565b6000806000806060858703121561196357600080fd5b61196c8561190a565b93506020850135925060408501356001600160401b0381111561198e57600080fd5b61199a8782880161180c565b95989497509550505050565b6000602082840312156119b857600080fd5b5035919050565b634e487b7160e01b600052604160045260246000fd5b604051601f8201601f191681016001600160401b03811182821017156119fd576119fd6119bf565b604052919050565b600082601f830112611a1657600080fd5b81356001600160401b03811115611a2f57611a2f6119bf565b611a42601f8201601f19166020016119d5565b818152846020838601011115611a5757600080fd5b816020850160208301376000918101602001919091529392505050565b600082601f830112611a8557600080fd5b81356001600160401b03811115611a9e57611a9e6119bf565b8060051b611aae602082016119d5565b91825260208185018101929081019086841115611aca57600080fd5b6020860192505b838310156105b05782356001600160401b03811115611aef57600080fd5b611afe886020838a0101611a05565b83525060209283019290910190611ad1565b600080600080600080600060c0888a031215611b2b57600080fd5b611b348861190a565b965060208801356001600160401b03811115611b4f57600080fd5b611b5b8a828b01611a05565b96505060408801356001600160401b03811115611b7757600080fd5b611b838a828b01611a74565b95505060608801356001600160401b03811115611b9f57600080fd5b611bab8a828b01611a05565b9450506080880135925060a08801356001600160401b038111156118eb57600080fd5b60008060008060a08587031215611be457600080fd5b611bee86866117f4565b935060608501356001600160401b03811115611c0957600080fd5b611c158782880161180c565b9094509250506080850135611c2981611854565b939692955090935050565b60008060408385031215611c4757600080fd5b823561193f81611854565b600060208284031215611c6457600080fd5b611c6d8261190a565b9392505050565b600060208284031215611c8657600080fd5b8135611c6d81611854565b6000815180845260005b81811015611cb757602081850181015186830182015201611c9b565b506000602082860101526020601f19601f83011685010191505092915050565b600082825180855260208501945060208160051b8301016020850160005b83811015611d2757601f19858403018852611d11838351611c91565b6020988901989093509190910190600101611cf5565b50909695505050505050565b6001600160a01b038716815260c060208201526000611d5560c0830188611c91565b8281036040840152611d678188611cd7565b90508281036060840152611d7b8187611c91565b6080840195909552505090151560a090910152949350505050565b600060608284031215611da857600080fd5b611c6d83836117f4565b600060018201611dd257634e487b7160e01b600052601160045260246000fd5b5060010190565b600060208284031215611deb57600080fd5b81518015158114611c6d57600080fd5b60ff871681526001600160a01b038616602082015260c060408201526000611e2660c0830187611c91565b8281036060840152611e388187611cd7565b90508281036080840152611e4c8186611c91565b9150508260a0830152979650505050505050565b604081526000611e736040830185611c91565b90508260208301529392505050565b600181811c90821680611e9657607f821691505b60208210810361180657634e487b7160e01b600052602260045260246000fd5b803560ff8116811461191e57600080fd5b600060208284031215611ed957600080fd5b611c6d82611eb6565b6040815263ffffffff8351166040820152602083015160608201526000604084015160a06080840152611f1860e0840182611c91565b90506060850151603f198483030160a0850152611f358282611c91565b60809690960151151560c08501525050506001600160a01b039190911660209091015290565b600060408284031215611f6d57600080fd5b604080519081016001600160401b0381118282101715611f8f57611f8f6119bf565b604052825181526020928301519281019290925250919050565b600060408284031215611fbb57600080fd5b611c6d8383611f5b565b60006080828403128015611fd857600080fd5b50604051606081016001600160401b0381118282101715611ffb57611ffb6119bf565b6040528251815260208301516001600160401b038116811461201c57600080fd5b602082015261202e8460408501611f5b565b60408201529392505050565b803561191e81611854565b600080600080600080600080610100898b03121561206257600080fd5b61206b89611eb6565b9750602089013596506040890135955061208760608a0161203a565b945060808901356001600160401b038111156120a257600080fd5b6120ae8b828c01611a05565b94505060a08901356001600160401b038111156120ca57600080fd5b6120d68b828c01611a74565b93505060c08901356001600160401b038111156120f257600080fd5b6120fe8b828c01611a05565b989b979a50959894979396929550929360e00135925050565b601f82111561215e57806000526020600020601f840160051c8101602085101561213e5750805b601f840160051c820191505b81811015610d38576000815560010161214a565b505050565b81516001600160401b0381111561217c5761217c6119bf565b6121908161218a8454611e82565b84612117565b6020601f8211600181146121c457600083156121ac5750848201515b600019600385901b1c1916600184901b178455610d38565b600084815260208120601f198516915b828110156121f457878501518255602094850194600190920191016121d4565b50848210156122125786840151600019600387901b60f8161c191681555b50505050600190811b01905550565b6001600160a01b03831681526040602082015260006122436040830184611c91565b949350505050565b60006020828403121561225d57600080fd5b8151611c6d8161185456fea26469706673582212205f239cb7126317bf1b66b126501a5eda2e0a3f590bba1b1a4d2b151fc134474764736f6c634300081c0033",
					"opcodes": "PUSH1 0xC0 PUSH1 0x40 MSTORE CALLVALUE DUP1 ISZERO PUSH2 0x10 JUMPI PUSH1 0x0 DUP1 REVERT JUMPDEST POP PUSH1 0x40 MLOAD PUSH2 0x24C1 CODESIZE SUB DUP1 PUSH2 0x24C1 DUP4 CODECOPY DUP2 ADD PUSH1 0x40 DUP2 SWAP1 MSTORE PUSH2 0x2F SWAP2 PUSH2 0x183 JUMP JUMPDEST DUP3 DUP3 DUP2 DUP2 DUP1 PUSH1 0x1 PUSH1 0x1 PUSH1 0xA0 SHL SUB DUP2 AND PUSH2 0x62 JUMPI PUSH1 0x40 MLOAD PUSH4 0x1E4FBDF7 PUSH1 0xE0 SHL DUP2 MSTORE PUSH1 0x0 PUSH1 0x4 DUP3 ADD MSTORE PUSH1 0x24 ADD PUSH1 0x40 MLOAD DUP1 SWAP2 SUB SWAP1 REVERT JUMPDEST PUSH2 0x6B DUP2 PUSH2 0x117 JUMP JUMPDEST POP PUSH1 0x1 PUSH1 0x1 PUSH1 0xA0 SHL SUB DUP1 DUP4 AND PUSH1 0x80 MSTORE DUP2 AND PUSH2 0x99 JUMPI PUSH1 0x40 MLOAD PUSH4 0x2D618D81 PUSH1 0xE2 SHL DUP2 MSTORE PUSH1 0x4 ADD PUSH1 0x40 MLOAD DUP1 SWAP2 SUB SWAP1 REVERT JUMPDEST PUSH1 0x80 MLOAD PUSH1 0x40 MLOAD PUSH4 0xCA5EB5E1 PUSH1 0xE0 SHL DUP2 MSTORE PUSH1 0x1 PUSH1 0x1 PUSH1 0xA0 SHL SUB DUP4 DUP2 AND PUSH1 0x4 DUP4 ADD MSTORE SWAP1 SWAP2 AND SWAP1 PUSH4 0xCA5EB5E1 SWAP1 PUSH1 0x24 ADD PUSH1 0x0 PUSH1 0x40 MLOAD DUP1 DUP4 SUB DUP2 PUSH1 0x0 DUP8 DUP1 EXTCODESIZE ISZERO DUP1 ISZERO PUSH2 0xE0 JUMPI PUSH1 0x0 DUP1 REVERT JUMPDEST POP GAS CALL ISZERO DUP1 ISZERO PUSH2 0xF4 JUMPI RETURNDATASIZE PUSH1 0x0 DUP1 RETURNDATACOPY RETURNDATASIZE PUSH1 0x0 REVERT JUMPDEST POP POP PUSH1 0x1 PUSH1 0x2 SSTORE POP POP POP PUSH1 0x1 PUSH1 0x1 PUSH1 0xA0 SHL SUB SWAP1 SWAP4 AND PUSH1 0xA0 MSTORE POP PUSH2 0x1C6 SWAP4 POP POP POP POP JUMP JUMPDEST PUSH1 0x0 DUP1 SLOAD PUSH1 0x1 PUSH1 0x1 PUSH1 0xA0 SHL SUB DUP4 DUP2 AND PUSH1 0x1 PUSH1 0x1 PUSH1 0xA0 SHL SUB NOT DUP4 AND DUP2 OR DUP5 SSTORE PUSH1 0x40 MLOAD SWAP2 SWAP1 SWAP3 AND SWAP3 DUP4 SWAP2 PUSH32 0x8BE0079C531659141344CD1FD0A4F28419497F9722A3DAAFE3B4186F6B6457E0 SWAP2 SWAP1 LOG3 POP POP JUMP JUMPDEST DUP1 MLOAD PUSH1 0x1 PUSH1 0x1 PUSH1 0xA0 SHL SUB DUP2 AND DUP2 EQ PUSH2 0x17E JUMPI PUSH1 0x0 DUP1 REVERT JUMPDEST SWAP2 SWAP1 POP JUMP JUMPDEST PUSH1 0x0 DUP1 PUSH1 0x0 PUSH1 0x60 DUP5 DUP7 SUB SLT ISZERO PUSH2 0x198 JUMPI PUSH1 0x0 DUP1 REVERT JUMPDEST PUSH2 0x1A1 DUP5 PUSH2 0x167 JUMP JUMPDEST SWAP3 POP PUSH2 0x1AF PUSH1 0x20 DUP6 ADD PUSH2 0x167 JUMP JUMPDEST SWAP2 POP PUSH2 0x1BD PUSH1 0x40 DUP6 ADD PUSH2 0x167 JUMP JUMPDEST SWAP1 POP SWAP3 POP SWAP3 POP SWAP3 JUMP JUMPDEST PUSH1 0x80 MLOAD PUSH1 0xA0 MLOAD PUSH2 0x229E PUSH2 0x223 PUSH1 0x0 CODECOPY PUSH1 0x0 DUP2 DUP2 PUSH2 0x3E8 ADD MSTORE DUP2 DUP2 PUSH2 0x8D3 ADD MSTORE PUSH2 0xB3B ADD MSTORE PUSH1 0x0 DUP2 DUP2 PUSH2 0x239 ADD MSTORE DUP2 DUP2 PUSH2 0x45E ADD MSTORE DUP2 DUP2 PUSH2 0xCE0 ADD MSTORE DUP2 DUP2 PUSH2 0x1105 ADD MSTORE DUP2 DUP2 PUSH2 0x125A ADD MSTORE DUP2 DUP2 PUSH2 0x1560 ADD MSTORE PUSH2 0x1617 ADD MSTORE PUSH2 0x229E PUSH1 0x0 RETURN INVALID PUSH1 0x80 PUSH1 0x40 MSTORE PUSH1 0x4 CALLDATASIZE LT PUSH2 0x123 JUMPI PUSH1 0x0 CALLDATALOAD PUSH1 0xE0 SHR DUP1 PUSH4 0x82413EAC GT PUSH2 0xA0 JUMPI DUP1 PUSH4 0xCA5EB5E1 GT PUSH2 0x64 JUMPI DUP1 PUSH4 0xCA5EB5E1 EQ PUSH2 0x396 JUMPI DUP1 PUSH4 0xF2FDE38B EQ PUSH2 0x3B6 JUMPI DUP1 PUSH4 0xF897A22B EQ PUSH2 0x3D6 JUMPI DUP1 PUSH4 0xFA49DEF1 EQ PUSH2 0x40A JUMPI DUP1 PUSH4 0xFF7BD03D EQ PUSH2 0x43C JUMPI PUSH1 0x0 DUP1 REVERT JUMPDEST DUP1 PUSH4 0x82413EAC EQ PUSH2 0x2BE JUMPI DUP1 PUSH4 0x8DA5CB5B EQ PUSH2 0x2FD JUMPI DUP1 PUSH4 0xAD3B1B47 EQ PUSH2 0x31B JUMPI DUP1 PUSH4 0xBB0B6A53 EQ PUSH2 0x33B JUMPI DUP1 PUSH4 0xC7533941 EQ PUSH2 0x376 JUMPI PUSH1 0x0 DUP1 REVERT JUMPDEST DUP1 PUSH4 0x58F5228E GT PUSH2 0xE7 JUMPI DUP1 PUSH4 0x58F5228E EQ PUSH2 0x1D9 JUMPI DUP1 PUSH4 0x5E280F11 EQ PUSH2 0x227 JUMPI DUP1 PUSH4 0x64BD90EB EQ PUSH2 0x25B JUMPI DUP1 PUSH4 0x715018A6 EQ PUSH2 0x26E JUMPI DUP1 PUSH4 0x7D25A05E EQ PUSH2 0x283 JUMPI PUSH1 0x0 DUP1 REVERT JUMPDEST DUP1 PUSH4 0x13137D65 EQ PUSH2 0x12F JUMPI DUP1 PUSH4 0x17442B70 EQ PUSH2 0x144 JUMPI DUP1 PUSH4 0x3400288B EQ PUSH2 0x16B JUMPI DUP1 PUSH4 0x42DC6299 EQ PUSH2 0x18B JUMPI DUP1 PUSH4 0x48967A46 EQ PUSH2 0x1C6 JUMPI PUSH1 0x0 DUP1 REVERT JUMPDEST CALLDATASIZE PUSH2 0x12A JUMPI STOP JUMPDEST PUSH1 0x0 DUP1 REVERT JUMPDEST PUSH2 0x142 PUSH2 0x13D CALLDATASIZE PUSH1 0x4 PUSH2 0x1869 JUMP JUMPDEST PUSH2 0x45C JUMP JUMPDEST STOP JUMPDEST CALLVALUE DUP1 ISZERO PUSH2 0x150 JUMPI PUSH1 0x0 DUP1 REVERT JUMPDEST POP PUSH1 0x40 DUP1 MLOAD PUSH1 0x1 DUP2 MSTORE PUSH1 0x2 PUSH1 0x20 DUP3 ADD MSTORE ADD JUMPDEST PUSH1 0x40 MLOAD DUP1 SWAP2 SUB SWAP1 RETURN JUMPDEST CALLVALUE DUP1 ISZERO PUSH2 0x177 JUMPI PUSH1 0x0 DUP1 REVERT JUMPDEST POP PUSH2 0x142 PUSH2 0x186 CALLDATASIZE PUSH1 0x4 PUSH2 0x1923 JUMP JUMPDEST PUSH2 0x51C JUMP JUMPDEST CALLVALUE DUP1 ISZERO PUSH2 0x197 JUMPI PUSH1 0x0 DUP1 REVERT JUMPDEST POP PUSH2 0x1AB PUSH2 0x1A6 CALLDATASIZE PUSH1 0x4 PUSH2 0x194D JUMP JUMPDEST PUSH2 0x532 JUMP JUMPDEST PUSH1 0x40 DUP1 MLOAD DUP3 MLOAD DUP2 MSTORE PUSH1 0x20 SWAP3 DUP4 ADD MLOAD SWAP3 DUP2 ADD SWAP3 SWAP1 SWAP3 MSTORE ADD PUSH2 0x162 JUMP JUMPDEST PUSH2 0x142 PUSH2 0x1D4 CALLDATASIZE PUSH1 0x4 PUSH2 0x194D JUMP JUMPDEST PUSH2 0x5BA JUMP JUMPDEST CALLVALUE DUP1 ISZERO PUSH2 0x1E5 JUMPI PUSH1 0x0 DUP1 REVERT JUMPDEST POP PUSH2 0x20F PUSH2 0x1F4 CALLDATASIZE PUSH1 0x4 PUSH2 0x19A6 JUMP JUMPDEST PUSH1 0x0 SWAP1 DUP2 MSTORE PUSH1 0x3 PUSH1 0x20 MSTORE PUSH1 0x40 SWAP1 KECCAK256 SLOAD PUSH1 0x1 PUSH1 0x1 PUSH1 0xA0 SHL SUB AND SWAP1 JUMP JUMPDEST PUSH1 0x40 MLOAD PUSH1 0x1 PUSH1 0x1 PUSH1 0xA0 SHL SUB SWAP1 SWAP2 AND DUP2 MSTORE PUSH1 0x20 ADD PUSH2 0x162 JUMP JUMPDEST CALLVALUE DUP1 ISZERO PUSH2 0x233 JUMPI PUSH1 0x0 DUP1 REVERT JUMPDEST POP PUSH2 0x20F PUSH32 0x0 DUP2 JUMP JUMPDEST PUSH2 0x142 PUSH2 0x269 CALLDATASIZE PUSH1 0x4 PUSH2 0x1B10 JUMP JUMPDEST PUSH2 0x7EB JUMP JUMPDEST CALLVALUE DUP1 ISZERO PUSH2 0x27A JUMPI PUSH1 0x0 DUP1 REVERT JUMPDEST POP PUSH2 0x142 PUSH2 0xAF9 JUMP JUMPDEST CALLVALUE DUP1 ISZERO PUSH2 0x28F JUMPI PUSH1 0x0 DUP1 REVERT JUMPDEST POP PUSH2 0x2A6 PUSH2 0x29E CALLDATASIZE PUSH1 0x4 PUSH2 0x1923 JUMP JUMPDEST PUSH1 0x0 SWAP3 SWAP2 POP POP JUMP JUMPDEST PUSH1 0x40 MLOAD PUSH1 0x1 PUSH1 0x1 PUSH1 0x40 SHL SUB SWAP1 SWAP2 AND DUP2 MSTORE PUSH1 0x20 ADD PUSH2 0x162 JUMP JUMPDEST CALLVALUE DUP1 ISZERO PUSH2 0x2CA JUMPI PUSH1 0x0 DUP1 REVERT JUMPDEST POP PUSH2 0x2ED PUSH2 0x2D9 CALLDATASIZE PUSH1 0x4 PUSH2 0x1BCE JUMP JUMPDEST PUSH1 0x1 PUSH1 0x1 PUSH1 0xA0 SHL SUB DUP2 AND ADDRESS EQ SWAP5 SWAP4 POP POP POP POP JUMP JUMPDEST PUSH1 0x40 MLOAD SWAP1 ISZERO ISZERO DUP2 MSTORE PUSH1 0x20 ADD PUSH2 0x162 JUMP JUMPDEST CALLVALUE DUP1 ISZERO PUSH2 0x309 JUMPI PUSH1 0x0 DUP1 REVERT JUMPDEST POP PUSH1 0x0 SLOAD PUSH1 0x1 PUSH1 0x1 PUSH1 0xA0 SHL SUB AND PUSH2 0x20F JUMP JUMPDEST CALLVALUE DUP1 ISZERO PUSH2 0x327 JUMPI PUSH1 0x0 DUP1 REVERT JUMPDEST POP PUSH2 0x142 PUSH2 0x336 CALLDATASIZE PUSH1 0x4 PUSH2 0x1C34 JUMP JUMPDEST PUSH2 0xB0D JUMP JUMPDEST CALLVALUE DUP1 ISZERO PUSH2 0x347 JUMPI PUSH1 0x0 DUP1 REVERT JUMPDEST POP PUSH2 0x368 PUSH2 0x356 CALLDATASIZE PUSH1 0x4 PUSH2 0x1C52 JUMP JUMPDEST PUSH1 0x1 PUSH1 0x20 MSTORE PUSH1 0x0 SWAP1 DUP2 MSTORE PUSH1 0x40 SWAP1 KECCAK256 SLOAD DUP2 JUMP JUMPDEST PUSH1 0x40 MLOAD SWAP1 DUP2 MSTORE PUSH1 0x20 ADD PUSH2 0x162 JUMP JUMPDEST CALLVALUE DUP1 ISZERO PUSH2 0x382 JUMPI PUSH1 0x0 DUP1 REVERT JUMPDEST POP PUSH2 0x1AB PUSH2 0x391 CALLDATASIZE PUSH1 0x4 PUSH2 0x1B10 JUMP JUMPDEST PUSH2 0xC2D JUMP JUMPDEST CALLVALUE DUP1 ISZERO PUSH2 0x3A2 JUMPI PUSH1 0x0 DUP1 REVERT JUMPDEST POP PUSH2 0x142 PUSH2 0x3B1 CALLDATASIZE PUSH1 0x4 PUSH2 0x1C74 JUMP JUMPDEST PUSH2 0xCB9 JUMP JUMPDEST CALLVALUE DUP1 ISZERO PUSH2 0x3C2 JUMPI PUSH1 0x0 DUP1 REVERT JUMPDEST POP PUSH2 0x142 PUSH2 0x3D1 CALLDATASIZE PUSH1 0x4 PUSH2 0x1C74 JUMP JUMPDEST PUSH2 0xD3F JUMP JUMPDEST CALLVALUE DUP1 ISZERO PUSH2 0x3E2 JUMPI PUSH1 0x0 DUP1 REVERT JUMPDEST POP PUSH2 0x20F PUSH32 0x0 DUP2 JUMP JUMPDEST CALLVALUE DUP1 ISZERO PUSH2 0x416 JUMPI PUSH1 0x0 DUP1 REVERT JUMPDEST POP PUSH2 0x42A PUSH2 0x425 CALLDATASIZE PUSH1 0x4 PUSH2 0x19A6 JUMP JUMPDEST PUSH2 0xD7D JUMP JUMPDEST PUSH1 0x40 MLOAD PUSH2 0x162 SWAP7 SWAP6 SWAP5 SWAP4 SWAP3 SWAP2 SWAP1 PUSH2 0x1D33 JUMP JUMPDEST CALLVALUE DUP1 ISZERO PUSH2 0x448 JUMPI PUSH1 0x0 DUP1 REVERT JUMPDEST POP PUSH2 0x2ED PUSH2 0x457 CALLDATASIZE PUSH1 0x4 PUSH2 0x1D96 JUMP JUMPDEST PUSH2 0xFC5 JUMP JUMPDEST PUSH32 0x0 PUSH1 0x1 PUSH1 0x1 PUSH1 0xA0 SHL SUB AND CALLER EQ PUSH2 0x4AC JUMPI PUSH1 0x40 MLOAD PUSH4 0x91AC5E4F PUSH1 0xE0 SHL DUP2 MSTORE CALLER PUSH1 0x4 DUP3 ADD MSTORE PUSH1 0x24 ADD JUMPDEST PUSH1 0x40 MLOAD DUP1 SWAP2 SUB SWAP1 REVERT JUMPDEST PUSH1 0x20 DUP8 ADD DUP1 CALLDATALOAD SWAP1 PUSH2 0x4C6 SWAP1 PUSH2 0x4C1 SWAP1 DUP11 PUSH2 0x1C52 JUMP JUMPDEST PUSH2 0xFFB JUMP JUMPDEST EQ PUSH2 0x504 JUMPI PUSH2 0x4D8 PUSH1 0x20 DUP9 ADD DUP9 PUSH2 0x1C52 JUMP JUMPDEST PUSH1 0x40 MLOAD PUSH4 0x309AFAF3 PUSH1 0xE2 SHL DUP2 MSTORE PUSH4 0xFFFFFFFF SWAP1 SWAP2 AND PUSH1 0x4 DUP3 ADD MSTORE PUSH1 0x20 DUP9 ADD CALLDATALOAD PUSH1 0x24 DUP3 ADD MSTORE PUSH1 0x44 ADD PUSH2 0x4A3 JUMP JUMPDEST PUSH2 0x513 DUP8 DUP8 DUP8 DUP8 DUP8 DUP8 DUP8 PUSH2 0x103D JUMP JUMPDEST POP POP POP POP POP POP POP JUMP JUMPDEST PUSH2 0x524 PUSH2 0x106D JUMP JUMPDEST PUSH2 0x52E DUP3 DUP3 PUSH2 0x109A JUMP JUMPDEST POP POP JUMP JUMPDEST PUSH1 0x40 DUP1 MLOAD DUP1 DUP3 ADD SWAP1 SWAP2 MSTORE PUSH1 0x0 DUP1 DUP3 MSTORE PUSH1 0x20 DUP3 ADD MSTORE PUSH1 0x40 DUP1 MLOAD PUSH1 0x2 PUSH1 0x20 DUP3 ADD MSTORE PUSH1 0x0 SWAP2 DUP2 ADD DUP3 SWAP1 MSTORE PUSH1 0x60 DUP2 ADD DUP7 SWAP1 MSTORE PUSH1 0x80 ADD PUSH1 0x40 DUP1 MLOAD PUSH1 0x1F NOT DUP2 DUP5 SUB ADD DUP2 MSTORE PUSH1 0x20 PUSH1 0x1F DUP8 ADD DUP2 SWAP1 DIV DUP2 MUL DUP5 ADD DUP2 ADD SWAP1 SWAP3 MSTORE DUP6 DUP4 MSTORE SWAP3 POP PUSH2 0x5B0 SWAP2 DUP9 SWAP2 DUP5 SWAP2 SWAP1 DUP9 SWAP1 DUP9 SWAP1 DUP2 SWAP1 DUP5 ADD DUP4 DUP3 DUP1 DUP3 DUP5 CALLDATACOPY PUSH1 0x0 SWAP3 ADD DUP3 SWAP1 MSTORE POP SWAP3 POP PUSH2 0x10EF SWAP2 POP POP JUMP JUMPDEST SWAP7 SWAP6 POP POP POP POP POP POP JUMP JUMPDEST PUSH2 0x5C2 PUSH2 0x11D0 JUMP JUMPDEST PUSH1 0x0 DUP4 GT PUSH2 0x607 JUMPI PUSH1 0x40 MLOAD PUSH3 0x461BCD PUSH1 0xE5 SHL DUP2 MSTORE PUSH1 0x20 PUSH1 0x4 DUP3 ADD MSTORE PUSH1 0x12 PUSH1 0x24 DUP3 ADD MSTORE PUSH18 0x125B9D985B1A59081C1C9BD99A5B19481251 PUSH1 0x72 SHL PUSH1 0x44 DUP3 ADD MSTORE PUSH1 0x64 ADD PUSH2 0x4A3 JUMP JUMPDEST PUSH1 0x4 DUP1 SLOAD PUSH1 0x0 SWAP2 CALLER SWAP2 DUP7 SWAP2 DUP5 PUSH2 0x61C DUP4 PUSH2 0x1DB2 JUMP JUMPDEST SWAP1 SWAP2 SSTORE POP PUSH1 0x40 MLOAD PUSH1 0x60 SWAP4 SWAP1 SWAP4 SHL PUSH12 0xFFFFFFFFFFFFFFFFFFFFFFFF NOT AND PUSH1 0x20 DUP5 ADD MSTORE PUSH1 0x34 DUP4 ADD SWAP2 SWAP1 SWAP2 MSTORE PUSH1 0x54 DUP3 ADD MSTORE TIMESTAMP PUSH1 0x74 DUP3 ADD MSTORE PUSH1 0x94 ADD PUSH1 0x40 DUP1 MLOAD PUSH1 0x1F NOT DUP2 DUP5 SUB ADD DUP2 MSTORE DUP3 DUP3 MSTORE DUP1 MLOAD PUSH1 0x20 SWAP2 DUP3 ADD KECCAK256 PUSH1 0x0 DUP2 DUP2 MSTORE PUSH1 0x3 DUP4 MSTORE DUP4 DUP2 KECCAK256 DUP1 SLOAD PUSH1 0x1 PUSH1 0x1 PUSH1 0xA0 SHL SUB NOT AND CALLER OR SWAP1 SSTORE PUSH1 0x2 SWAP3 DUP6 ADD SWAP3 SWAP1 SWAP3 MSTORE SWAP2 DUP4 ADD DUP3 SWAP1 MSTORE PUSH1 0x60 DUP4 ADD DUP8 SWAP1 MSTORE SWAP1 SWAP3 POP SWAP1 PUSH1 0x80 ADD PUSH1 0x40 DUP1 MLOAD PUSH1 0x1F NOT DUP2 DUP5 SUB ADD DUP2 MSTORE PUSH1 0x20 PUSH1 0x1F DUP8 ADD DUP2 SWAP1 DIV DUP2 MUL DUP5 ADD DUP2 ADD SWAP1 SWAP3 MSTORE DUP6 DUP4 MSTORE SWAP3 POP PUSH1 0x0 SWAP2 PUSH2 0x6F3 SWAP2 DUP10 SWAP2 DUP6 SWAP2 DUP10 SWAP1 DUP10 SWAP1 DUP2 SWAP1 DUP5 ADD DUP4 DUP3 DUP1 DUP3 DUP5 CALLDATACOPY PUSH1 0x0 SWAP3 ADD DUP3 SWAP1 MSTORE POP SWAP3 POP PUSH2 0x10EF SWAP2 POP POP JUMP JUMPDEST DUP1 MLOAD SWAP1 SWAP2 POP CALLVALUE LT ISZERO PUSH2 0x73C JUMPI PUSH1 0x40 MLOAD PUSH3 0x461BCD PUSH1 0xE5 SHL DUP2 MSTORE PUSH1 0x20 PUSH1 0x4 DUP3 ADD MSTORE PUSH1 0x12 PUSH1 0x24 DUP3 ADD MSTORE PUSH18 0x4E61746976652066656520746F6F206C6F77 PUSH1 0x70 SHL PUSH1 0x44 DUP3 ADD MSTORE PUSH1 0x64 ADD PUSH2 0x4A3 JUMP JUMPDEST PUSH2 0x794 DUP8 DUP4 DUP8 DUP8 DUP1 DUP1 PUSH1 0x1F ADD PUSH1 0x20 DUP1 SWAP2 DIV MUL PUSH1 0x20 ADD PUSH1 0x40 MLOAD SWAP1 DUP2 ADD PUSH1 0x40 MSTORE DUP1 SWAP4 SWAP3 SWAP2 SWAP1 DUP2 DUP2 MSTORE PUSH1 0x20 ADD DUP4 DUP4 DUP1 DUP3 DUP5 CALLDATACOPY PUSH1 0x0 SWAP3 ADD DUP3 SWAP1 MSTORE POP PUSH1 0x40 DUP1 MLOAD DUP1 DUP3 ADD SWAP1 SWAP2 MSTORE CALLVALUE DUP2 MSTORE PUSH1 0x20 DUP2 ADD SWAP2 SWAP1 SWAP2 MSTORE SWAP3 POP CALLER SWAP2 POP PUSH2 0x1227 SWAP1 POP JUMP JUMPDEST POP PUSH1 0x40 DUP1 MLOAD DUP8 DUP2 MSTORE PUSH1 0x20 DUP2 ADD DUP6 SWAP1 MSTORE CALLER SWAP2 PUSH4 0xFFFFFFFF DUP11 AND SWAP2 PUSH32 0x5E1493A519D6454FAC2755F647FFDD3C0E4AEAFF4D90E08BB2BACB37604244B3 SWAP2 ADD PUSH1 0x40 MLOAD DUP1 SWAP2 SUB SWAP1 LOG3 POP POP POP PUSH2 0x7E5 PUSH1 0x1 PUSH1 0x2 SSTORE JUMP JUMPDEST POP POP POP POP JUMP JUMPDEST PUSH2 0x7F3 PUSH2 0x11D0 JUMP JUMPDEST PUSH1 0x0 DUP7 MLOAD GT PUSH2 0x831 JUMPI PUSH1 0x40 MLOAD PUSH3 0x461BCD PUSH1 0xE5 SHL DUP2 MSTORE PUSH1 0x20 PUSH1 0x4 DUP3 ADD MSTORE PUSH1 0xA PUSH1 0x24 DUP3 ADD MSTORE PUSH10 0x4E616D6520656D707479 PUSH1 0xB0 SHL PUSH1 0x44 DUP3 ADD MSTORE PUSH1 0x64 ADD PUSH2 0x4A3 JUMP JUMPDEST PUSH1 0x0 DUP6 MLOAD GT PUSH2 0x871 JUMPI PUSH1 0x40 MLOAD PUSH3 0x461BCD PUSH1 0xE5 SHL DUP2 MSTORE PUSH1 0x20 PUSH1 0x4 DUP3 ADD MSTORE PUSH1 0xC PUSH1 0x24 DUP3 ADD MSTORE PUSH12 0x536B696C6C7320656D707479 PUSH1 0xA0 SHL PUSH1 0x44 DUP3 ADD MSTORE PUSH1 0x64 ADD PUSH2 0x4A3 JUMP JUMPDEST PUSH1 0x0 DUP4 GT PUSH2 0x8B1 JUMPI PUSH1 0x40 MLOAD PUSH3 0x461BCD PUSH1 0xE5 SHL DUP2 MSTORE PUSH1 0x20 PUSH1 0x4 DUP3 ADD MSTORE PUSH1 0xD PUSH1 0x24 DUP3 ADD MSTORE PUSH13 0x5553445420666565207A65726F PUSH1 0x98 SHL PUSH1 0x44 DUP3 ADD MSTORE PUSH1 0x64 ADD PUSH2 0x4A3 JUMP JUMPDEST PUSH1 0x40 MLOAD PUSH4 0x23B872DD PUSH1 0xE0 SHL DUP2 MSTORE CALLER PUSH1 0x4 DUP3 ADD MSTORE ADDRESS PUSH1 0x24 DUP3 ADD MSTORE PUSH1 0x44 DUP2 ADD DUP5 SWAP1 MSTORE PUSH32 0x0 PUSH1 0x1 PUSH1 0x1 PUSH1 0xA0 SHL SUB AND SWAP1 PUSH4 0x23B872DD SWAP1 PUSH1 0x64 ADD PUSH1 0x20 PUSH1 0x40 MLOAD DUP1 DUP4 SUB DUP2 PUSH1 0x0 DUP8 GAS CALL ISZERO DUP1 ISZERO PUSH2 0x924 JUMPI RETURNDATASIZE PUSH1 0x0 DUP1 RETURNDATACOPY RETURNDATASIZE PUSH1 0x0 REVERT JUMPDEST POP POP POP POP PUSH1 0x40 MLOAD RETURNDATASIZE PUSH1 0x1F NOT PUSH1 0x1F DUP3 ADD AND DUP3 ADD DUP1 PUSH1 0x40 MSTORE POP DUP2 ADD SWAP1 PUSH2 0x948 SWAP2 SWAP1 PUSH2 0x1DD9 JUMP JUMPDEST PUSH2 0x994 JUMPI PUSH1 0x40 MLOAD PUSH3 0x461BCD PUSH1 0xE5 SHL DUP2 MSTORE PUSH1 0x20 PUSH1 0x4 DUP3 ADD MSTORE PUSH1 0x14 PUSH1 0x24 DUP3 ADD MSTORE PUSH32 0x55534454207472616E73666572206661696C6564000000000000000000000000 PUSH1 0x44 DUP3 ADD MSTORE PUSH1 0x64 ADD PUSH2 0x4A3 JUMP JUMPDEST PUSH1 0x0 PUSH1 0x1 CALLER DUP9 DUP9 DUP9 DUP9 PUSH1 0x40 MLOAD PUSH1 0x20 ADD PUSH2 0x9B2 SWAP7 SWAP6 SWAP5 SWAP4 SWAP3 SWAP2 SWAP1 PUSH2 0x1DFB JUMP JUMPDEST PUSH1 0x40 DUP1 MLOAD PUSH1 0x1F NOT DUP2 DUP5 SUB ADD DUP2 MSTORE PUSH1 0x20 PUSH1 0x1F DUP7 ADD DUP2 SWAP1 DIV DUP2 MUL DUP5 ADD DUP2 ADD SWAP1 SWAP3 MSTORE DUP5 DUP4 MSTORE SWAP3 POP PUSH1 0x0 SWAP2 PUSH2 0xA01 SWAP2 DUP12 SWAP2 DUP6 SWAP2 DUP9 SWAP1 DUP9 SWAP1 DUP2 SWAP1 DUP5 ADD DUP4 DUP3 DUP1 DUP3 DUP5 CALLDATACOPY PUSH1 0x0 SWAP3 ADD DUP3 SWAP1 MSTORE POP SWAP3 POP PUSH2 0x10EF SWAP2 POP POP JUMP JUMPDEST DUP1 MLOAD SWAP1 SWAP2 POP CALLVALUE LT ISZERO PUSH2 0xA4A JUMPI PUSH1 0x40 MLOAD PUSH3 0x461BCD PUSH1 0xE5 SHL DUP2 MSTORE PUSH1 0x20 PUSH1 0x4 DUP3 ADD MSTORE PUSH1 0x12 PUSH1 0x24 DUP3 ADD MSTORE PUSH18 0x4E61746976652066656520746F6F206C6F77 PUSH1 0x70 SHL PUSH1 0x44 DUP3 ADD MSTORE PUSH1 0x64 ADD PUSH2 0x4A3 JUMP JUMPDEST PUSH2 0xAA2 DUP10 DUP4 DUP7 DUP7 DUP1 DUP1 PUSH1 0x1F ADD PUSH1 0x20 DUP1 SWAP2 DIV MUL PUSH1 0x20 ADD PUSH1 0x40 MLOAD SWAP1 DUP2 ADD PUSH1 0x40 MSTORE DUP1 SWAP4 SWAP3 SWAP2 SWAP1 DUP2 DUP2 MSTORE PUSH1 0x20 ADD DUP4 DUP4 DUP1 DUP3 DUP5 CALLDATACOPY PUSH1 0x0 SWAP3 ADD DUP3 SWAP1 MSTORE POP PUSH1 0x40 DUP1 MLOAD DUP1 DUP3 ADD SWAP1 SWAP2 MSTORE CALLVALUE DUP2 MSTORE PUSH1 0x20 DUP2 ADD SWAP2 SWAP1 SWAP2 MSTORE SWAP3 POP CALLER SWAP2 POP PUSH2 0x1227 SWAP1 POP JUMP JUMPDEST POP CALLER PUSH1 0x1 PUSH1 0x1 PUSH1 0xA0 SHL SUB AND DUP10 PUSH4 0xFFFFFFFF AND PUSH32 0x367DF553A20F9D6A48F562A05A838605D973217C1E3980B1C5D542E2EEAAFB63 DUP11 DUP9 PUSH1 0x40 MLOAD PUSH2 0xAE5 SWAP3 SWAP2 SWAP1 PUSH2 0x1E60 JUMP JUMPDEST PUSH1 0x40 MLOAD DUP1 SWAP2 SUB SWAP1 LOG3 POP POP PUSH2 0x513 PUSH1 0x1 PUSH1 0x2 SSTORE JUMP JUMPDEST PUSH2 0xB01 PUSH2 0x106D JUMP JUMPDEST PUSH2 0xB0B PUSH1 0x0 PUSH2 0x1332 JUMP JUMPDEST JUMP JUMPDEST PUSH2 0xB15 PUSH2 0x106D JUMP JUMPDEST PUSH1 0x40 MLOAD PUSH4 0xA9059CBB PUSH1 0xE0 SHL DUP2 MSTORE PUSH1 0x1 PUSH1 0x1 PUSH1 0xA0 SHL SUB DUP4 DUP2 AND PUSH1 0x4 DUP4 ADD MSTORE PUSH1 0x24 DUP3 ADD DUP4 SWAP1 MSTORE PUSH32 0x0 AND SWAP1 PUSH4 0xA9059CBB SWAP1 PUSH1 0x44 ADD PUSH1 0x20 PUSH1 0x40 MLOAD DUP1 DUP4 SUB DUP2 PUSH1 0x0 DUP8 GAS CALL ISZERO DUP1 ISZERO PUSH2 0xB84 JUMPI RETURNDATASIZE PUSH1 0x0 DUP1 RETURNDATACOPY RETURNDATASIZE PUSH1 0x0 REVERT JUMPDEST POP POP POP POP PUSH1 0x40 MLOAD RETURNDATASIZE PUSH1 0x1F NOT PUSH1 0x1F DUP3 ADD AND DUP3 ADD DUP1 PUSH1 0x40 MSTORE POP DUP2 ADD SWAP1 PUSH2 0xBA8 SWAP2 SWAP1 PUSH2 0x1DD9 JUMP JUMPDEST PUSH2 0xBE6 JUMPI PUSH1 0x40 MLOAD PUSH3 0x461BCD PUSH1 0xE5 SHL DUP2 MSTORE PUSH1 0x20 PUSH1 0x4 DUP3 ADD MSTORE PUSH1 0xF PUSH1 0x24 DUP3 ADD MSTORE PUSH15 0x15DA5D1A191C985DC819985A5B1959 PUSH1 0x8A SHL PUSH1 0x44 DUP3 ADD MSTORE PUSH1 0x64 ADD PUSH2 0x4A3 JUMP JUMPDEST DUP2 PUSH1 0x1 PUSH1 0x1 PUSH1 0xA0 SHL SUB AND PUSH32 0xC0819C13BE868895EB93E40EACEB96DE976442FA1D404E5C55F14BB65A8C489A DUP3 PUSH1 0x40 MLOAD PUSH2 0xC21 SWAP2 DUP2 MSTORE PUSH1 0x20 ADD SWAP1 JUMP JUMPDEST PUSH1 0x40 MLOAD DUP1 SWAP2 SUB SWAP1 LOG2 POP POP JUMP JUMPDEST PUSH1 0x40 DUP1 MLOAD DUP1 DUP3 ADD SWAP1 SWAP2 MSTORE PUSH1 0x0 DUP1 DUP3 MSTORE PUSH1 0x20 DUP3 ADD MSTORE PUSH1 0x0 PUSH1 0x1 CALLER DUP10 DUP10 DUP10 DUP10 PUSH1 0x40 MLOAD PUSH1 0x20 ADD PUSH2 0xC5F SWAP7 SWAP6 SWAP5 SWAP4 SWAP3 SWAP2 SWAP1 PUSH2 0x1DFB JUMP JUMPDEST PUSH1 0x40 DUP1 MLOAD PUSH1 0x1F NOT DUP2 DUP5 SUB ADD DUP2 MSTORE PUSH1 0x20 PUSH1 0x1F DUP8 ADD DUP2 SWAP1 DIV DUP2 MUL DUP5 ADD DUP2 ADD SWAP1 SWAP3 MSTORE DUP6 DUP4 MSTORE SWAP3 POP PUSH2 0xCAC SWAP2 DUP12 SWAP2 DUP5 SWAP2 SWAP1 DUP9 SWAP1 DUP9 SWAP1 DUP2 SWAP1 DUP5 ADD DUP4 DUP3 DUP1 DUP3 DUP5 CALLDATACOPY PUSH1 0x0 SWAP3 ADD DUP3 SWAP1 MSTORE POP SWAP3 POP PUSH2 0x10EF SWAP2 POP POP JUMP JUMPDEST SWAP10 SWAP9 POP POP POP POP POP POP POP POP POP JUMP JUMPDEST PUSH2 0xCC1 PUSH2 0x106D JUMP JUMPDEST PUSH1 0x40 MLOAD PUSH4 0xCA5EB5E1 PUSH1 0xE0 SHL DUP2 MSTORE PUSH1 0x1 PUSH1 0x1 PUSH1 0xA0 SHL SUB DUP3 DUP2 AND PUSH1 0x4 DUP4 ADD MSTORE PUSH32 0x0 AND SWAP1 PUSH4 0xCA5EB5E1 SWAP1 PUSH1 0x24 ADD PUSH1 0x0 PUSH1 0x40 MLOAD DUP1 DUP4 SUB DUP2 PUSH1 0x0 DUP8 DUP1 EXTCODESIZE ISZERO DUP1 ISZERO PUSH2 0xD24 JUMPI PUSH1 0x0 DUP1 REVERT JUMPDEST POP GAS CALL ISZERO DUP1 ISZERO PUSH2 0xD38 JUMPI RETURNDATASIZE PUSH1 0x0 DUP1 RETURNDATACOPY RETURNDATASIZE PUSH1 0x0 REVERT JUMPDEST POP POP POP POP POP JUMP JUMPDEST PUSH2 0xD47 PUSH2 0x106D JUMP JUMPDEST PUSH1 0x1 PUSH1 0x1 PUSH1 0xA0 SHL SUB DUP2 AND PUSH2 0xD71 JUMPI PUSH1 0x40 MLOAD PUSH4 0x1E4FBDF7 PUSH1 0xE0 SHL DUP2 MSTORE PUSH1 0x0 PUSH1 0x4 DUP3 ADD MSTORE PUSH1 0x24 ADD PUSH2 0x4A3 JUMP JUMPDEST PUSH2 0xD7A DUP2 PUSH2 0x1332 JUMP JUMPDEST POP JUMP JUMPDEST PUSH1 0x0 DUP2 DUP2 MSTORE PUSH1 0x5 PUSH1 0x20 DUP2 SWAP1 MSTORE PUSH1 0x40 DUP3 KECCAK256 DUP1 SLOAD PUSH1 0x4 DUP3 ADD SLOAD SWAP3 DUP3 ADD SLOAD PUSH1 0x1 DUP4 ADD DUP1 SLOAD PUSH1 0x60 SWAP6 DUP7 SWAP6 DUP7 SWAP6 DUP10 SWAP6 DUP7 SWAP6 SWAP3 SWAP5 PUSH1 0x1 PUSH1 0x1 PUSH1 0xA0 SHL SUB SWAP1 SWAP3 AND SWAP4 PUSH1 0x2 DUP7 ADD SWAP3 PUSH1 0x3 DUP8 ADD SWAP3 PUSH1 0xFF AND SWAP1 DUP6 SWAP1 PUSH2 0xDD0 SWAP1 PUSH2 0x1E82 JUMP JUMPDEST DUP1 PUSH1 0x1F ADD PUSH1 0x20 DUP1 SWAP2 DIV MUL PUSH1 0x20 ADD PUSH1 0x40 MLOAD SWAP1 DUP2 ADD PUSH1 0x40 MSTORE DUP1 SWAP3 SWAP2 SWAP1 DUP2 DUP2 MSTORE PUSH1 0x20 ADD DUP3 DUP1 SLOAD PUSH2 0xDFC SWAP1 PUSH2 0x1E82 JUMP JUMPDEST DUP1 ISZERO PUSH2 0xE49 JUMPI DUP1 PUSH1 0x1F LT PUSH2 0xE1E JUMPI PUSH2 0x100 DUP1 DUP4 SLOAD DIV MUL DUP4 MSTORE SWAP2 PUSH1 0x20 ADD SWAP2 PUSH2 0xE49 JUMP JUMPDEST DUP3 ADD SWAP2 SWAP1 PUSH1 0x0 MSTORE PUSH1 0x20 PUSH1 0x0 KECCAK256 SWAP1 JUMPDEST DUP2 SLOAD DUP2 MSTORE SWAP1 PUSH1 0x1 ADD SWAP1 PUSH1 0x20 ADD DUP1 DUP4 GT PUSH2 0xE2C JUMPI DUP3 SWAP1 SUB PUSH1 0x1F AND DUP3 ADD SWAP2 JUMPDEST POP POP POP POP POP SWAP5 POP DUP4 DUP1 SLOAD DUP1 PUSH1 0x20 MUL PUSH1 0x20 ADD PUSH1 0x40 MLOAD SWAP1 DUP2 ADD PUSH1 0x40 MSTORE DUP1 SWAP3 SWAP2 SWAP1 DUP2 DUP2 MSTORE PUSH1 0x20 ADD PUSH1 0x0 SWAP1 JUMPDEST DUP3 DUP3 LT ISZERO PUSH2 0xF1D JUMPI DUP4 DUP3 SWAP1 PUSH1 0x0 MSTORE PUSH1 0x20 PUSH1 0x0 KECCAK256 ADD DUP1 SLOAD PUSH2 0xE90 SWAP1 PUSH2 0x1E82 JUMP JUMPDEST DUP1 PUSH1 0x1F ADD PUSH1 0x20 DUP1 SWAP2 DIV MUL PUSH1 0x20 ADD PUSH1 0x40 MLOAD SWAP1 DUP2 ADD PUSH1 0x40 MSTORE DUP1 SWAP3 SWAP2 SWAP1 DUP2 DUP2 MSTORE PUSH1 0x20 ADD DUP3 DUP1 SLOAD PUSH2 0xEBC SWAP1 PUSH2 0x1E82 JUMP JUMPDEST DUP1 ISZERO PUSH2 0xF09 JUMPI DUP1 PUSH1 0x1F LT PUSH2 0xEDE JUMPI PUSH2 0x100 DUP1 DUP4 SLOAD DIV MUL DUP4 MSTORE SWAP2 PUSH1 0x20 ADD SWAP2 PUSH2 0xF09 JUMP JUMPDEST DUP3 ADD SWAP2 SWAP1 PUSH1 0x0 MSTORE PUSH1 0x20 PUSH1 0x0 KECCAK256 SWAP1 JUMPDEST DUP2 SLOAD DUP2 MSTORE SWAP1 PUSH1 0x1 ADD SWAP1 PUSH1 0x20 ADD DUP1 DUP4 GT PUSH2 0xEEC JUMPI DUP3 SWAP1 SUB PUSH1 0x1F AND DUP3 ADD SWAP2 JUMPDEST POP POP POP POP POP DUP2 MSTORE PUSH1 0x20 ADD SWAP1 PUSH1 0x1 ADD SWAP1 PUSH2 0xE71 JUMP JUMPDEST POP POP POP POP SWAP4 POP DUP3 DUP1 SLOAD PUSH2 0xF2F SWAP1 PUSH2 0x1E82 JUMP JUMPDEST DUP1 PUSH1 0x1F ADD PUSH1 0x20 DUP1 SWAP2 DIV MUL PUSH1 0x20 ADD PUSH1 0x40 MLOAD SWAP1 DUP2 ADD PUSH1 0x40 MSTORE DUP1 SWAP3 SWAP2 SWAP1 DUP2 DUP2 MSTORE PUSH1 0x20 ADD DUP3 DUP1 SLOAD PUSH2 0xF5B SWAP1 PUSH2 0x1E82 JUMP JUMPDEST DUP1 ISZERO PUSH2 0xFA8 JUMPI DUP1 PUSH1 0x1F LT PUSH2 0xF7D JUMPI PUSH2 0x100 DUP1 DUP4 SLOAD DIV MUL DUP4 MSTORE SWAP2 PUSH1 0x20 ADD SWAP2 PUSH2 0xFA8 JUMP JUMPDEST DUP3 ADD SWAP2 SWAP1 PUSH1 0x0 MSTORE PUSH1 0x20 PUSH1 0x0 KECCAK256 SWAP1 JUMPDEST DUP2 SLOAD DUP2 MSTORE SWAP1 PUSH1 0x1 ADD SWAP1 PUSH1 0x20 ADD DUP1 DUP4 GT PUSH2 0xF8B JUMPI DUP3 SWAP1 SUB PUSH1 0x1F AND DUP3 ADD SWAP2 JUMPDEST POP POP POP POP POP SWAP3 POP SWAP7 POP SWAP7 POP SWAP7 POP SWAP7 POP SWAP7 POP SWAP7 POP POP SWAP2 SWAP4 SWAP6 POP SWAP2 SWAP4 SWAP6 JUMP JUMPDEST PUSH1 0x0 PUSH1 0x20 DUP3 ADD DUP1 CALLDATALOAD SWAP1 PUSH1 0x1 SWAP1 DUP4 SWAP1 PUSH2 0xFDD SWAP1 DUP7 PUSH2 0x1C52 JUMP JUMPDEST PUSH4 0xFFFFFFFF AND DUP2 MSTORE PUSH1 0x20 DUP2 ADD SWAP2 SWAP1 SWAP2 MSTORE PUSH1 0x40 ADD PUSH1 0x0 KECCAK256 SLOAD EQ SWAP3 SWAP2 POP POP JUMP JUMPDEST PUSH4 0xFFFFFFFF DUP2 AND PUSH1 0x0 SWAP1 DUP2 MSTORE PUSH1 0x1 PUSH1 0x20 MSTORE PUSH1 0x40 DUP2 KECCAK256 SLOAD DUP1 PUSH2 0x1037 JUMPI PUSH1 0x40 MLOAD PUSH4 0xF6FF4FB7 PUSH1 0xE0 SHL DUP2 MSTORE PUSH4 0xFFFFFFFF DUP5 AND PUSH1 0x4 DUP3 ADD MSTORE PUSH1 0x24 ADD PUSH2 0x4A3 JUMP JUMPDEST SWAP3 SWAP2 POP POP JUMP JUMPDEST PUSH1 0x0 PUSH2 0x104B DUP6 DUP8 ADD DUP8 PUSH2 0x1EC7 JUMP JUMPDEST SWAP1 POP PUSH1 0x2 NOT PUSH1 0xFF DUP3 AND ADD PUSH2 0x1063 JUMPI PUSH2 0x1063 DUP7 DUP7 PUSH2 0x1382 JUMP JUMPDEST POP POP POP POP POP POP POP POP JUMP JUMPDEST PUSH1 0x0 SLOAD PUSH1 0x1 PUSH1 0x1 PUSH1 0xA0 SHL SUB AND CALLER EQ PUSH2 0xB0B JUMPI PUSH1 0x40 MLOAD PUSH4 0x118CDAA7 PUSH1 0xE0 SHL DUP2 MSTORE CALLER PUSH1 0x4 DUP3 ADD MSTORE PUSH1 0x24 ADD PUSH2 0x4A3 JUMP JUMPDEST PUSH4 0xFFFFFFFF DUP3 AND PUSH1 0x0 DUP2 DUP2 MSTORE PUSH1 0x1 PUSH1 0x20 SWAP1 DUP2 MSTORE PUSH1 0x40 SWAP2 DUP3 SWAP1 KECCAK256 DUP5 SWAP1 SSTORE DUP2 MLOAD SWAP3 DUP4 MSTORE DUP3 ADD DUP4 SWAP1 MSTORE PUSH32 0x238399D427B947898EDB290F5FF0F9109849B1C3BA196A42E35F00C50A54B98B SWAP2 ADD PUSH1 0x40 MLOAD DUP1 SWAP2 SUB SWAP1 LOG1 POP POP JUMP JUMPDEST PUSH1 0x40 DUP1 MLOAD DUP1 DUP3 ADD SWAP1 SWAP2 MSTORE PUSH1 0x0 DUP1 DUP3 MSTORE PUSH1 0x20 DUP3 ADD MSTORE PUSH32 0x0 PUSH1 0x1 PUSH1 0x1 PUSH1 0xA0 SHL SUB AND PUSH4 0xDDC28C58 PUSH1 0x40 MLOAD DUP1 PUSH1 0xA0 ADD PUSH1 0x40 MSTORE DUP1 DUP9 PUSH4 0xFFFFFFFF AND DUP2 MSTORE PUSH1 0x20 ADD PUSH2 0x1152 DUP10 PUSH2 0xFFB JUMP JUMPDEST DUP2 MSTORE PUSH1 0x20 ADD DUP8 DUP2 MSTORE PUSH1 0x20 ADD DUP7 DUP2 MSTORE PUSH1 0x20 ADD DUP6 ISZERO ISZERO DUP2 MSTORE POP ADDRESS PUSH1 0x40 MLOAD DUP4 PUSH4 0xFFFFFFFF AND PUSH1 0xE0 SHL DUP2 MSTORE PUSH1 0x4 ADD PUSH2 0x1187 SWAP3 SWAP2 SWAP1 PUSH2 0x1EE2 JUMP JUMPDEST PUSH1 0x40 DUP1 MLOAD DUP1 DUP4 SUB DUP2 DUP7 GAS STATICCALL ISZERO DUP1 ISZERO PUSH2 0x11A3 JUMPI RETURNDATASIZE PUSH1 0x0 DUP1 RETURNDATACOPY RETURNDATASIZE PUSH1 0x0 REVERT JUMPDEST POP POP POP POP PUSH1 0x40 MLOAD RETURNDATASIZE PUSH1 0x1F NOT PUSH1 0x1F DUP3 ADD AND DUP3 ADD DUP1 PUSH1 0x40 MSTORE POP DUP2 ADD SWAP1 PUSH2 0x11C7 SWAP2 SWAP1 PUSH2 0x1FA9 JUMP JUMPDEST SWAP6 SWAP5 POP POP POP POP POP JUMP JUMPDEST PUSH1 0x2 DUP1 SLOAD SUB PUSH2 0x1221 JUMPI PUSH1 0x40 MLOAD PUSH3 0x461BCD PUSH1 0xE5 SHL DUP2 MSTORE PUSH1 0x20 PUSH1 0x4 DUP3 ADD MSTORE PUSH1 0x1F PUSH1 0x24 DUP3 ADD MSTORE PUSH32 0x5265656E7472616E637947756172643A207265656E7472616E742063616C6C00 PUSH1 0x44 DUP3 ADD MSTORE PUSH1 0x64 ADD PUSH2 0x4A3 JUMP JUMPDEST PUSH1 0x2 DUP1 SSTORE JUMP JUMPDEST PUSH2 0x122F PUSH2 0x16F8 JUMP JUMPDEST PUSH1 0x0 PUSH2 0x123E DUP5 PUSH1 0x0 ADD MLOAD PUSH2 0x1534 JUMP JUMPDEST PUSH1 0x20 DUP6 ADD MLOAD SWAP1 SWAP2 POP ISZERO PUSH2 0x1258 JUMPI PUSH2 0x1258 DUP5 PUSH1 0x20 ADD MLOAD PUSH2 0x155C JUMP JUMPDEST PUSH32 0x0 PUSH1 0x1 PUSH1 0x1 PUSH1 0xA0 SHL SUB AND PUSH4 0x2637A450 DUP3 PUSH1 0x40 MLOAD DUP1 PUSH1 0xA0 ADD PUSH1 0x40 MSTORE DUP1 DUP12 PUSH4 0xFFFFFFFF AND DUP2 MSTORE PUSH1 0x20 ADD PUSH2 0x12A8 DUP13 PUSH2 0xFFB JUMP JUMPDEST DUP2 MSTORE PUSH1 0x20 ADD DUP11 DUP2 MSTORE PUSH1 0x20 ADD DUP10 DUP2 MSTORE PUSH1 0x20 ADD PUSH1 0x0 DUP10 PUSH1 0x20 ADD MLOAD GT ISZERO ISZERO DUP2 MSTORE POP DUP7 PUSH1 0x40 MLOAD DUP5 PUSH4 0xFFFFFFFF AND PUSH1 0xE0 SHL DUP2 MSTORE PUSH1 0x4 ADD PUSH2 0x12E4 SWAP3 SWAP2 SWAP1 PUSH2 0x1EE2 JUMP JUMPDEST PUSH1 0x80 PUSH1 0x40 MLOAD DUP1 DUP4 SUB DUP2 DUP6 DUP9 GAS CALL ISZERO DUP1 ISZERO PUSH2 0x1302 JUMPI RETURNDATASIZE PUSH1 0x0 DUP1 RETURNDATACOPY RETURNDATASIZE PUSH1 0x0 REVERT JUMPDEST POP POP POP POP POP PUSH1 0x40 MLOAD RETURNDATASIZE PUSH1 0x1F NOT PUSH1 0x1F DUP3 ADD AND DUP3 ADD DUP1 PUSH1 0x40 MSTORE POP DUP2 ADD SWAP1 PUSH2 0x1327 SWAP2 SWAP1 PUSH2 0x1FC5 JUMP JUMPDEST SWAP8 SWAP7 POP POP POP POP POP POP POP JUMP JUMPDEST PUSH1 0x0 DUP1 SLOAD PUSH1 0x1 PUSH1 0x1 PUSH1 0xA0 SHL SUB DUP4 DUP2 AND PUSH1 0x1 PUSH1 0x1 PUSH1 0xA0 SHL SUB NOT DUP4 AND DUP2 OR DUP5 SSTORE PUSH1 0x40 MLOAD SWAP2 SWAP1 SWAP3 AND SWAP3 DUP4 SWAP2 PUSH32 0x8BE0079C531659141344CD1FD0A4F28419497F9722A3DAAFE3B4186F6B6457E0 SWAP2 SWAP1 LOG3 POP POP JUMP JUMPDEST PUSH1 0x0 DUP1 DUP1 DUP1 DUP1 DUP1 DUP1 PUSH2 0x1396 DUP9 DUP11 ADD DUP11 PUSH2 0x2045 JUMP JUMPDEST PUSH1 0x0 DUP8 DUP2 MSTORE PUSH1 0x3 PUSH1 0x20 MSTORE PUSH1 0x40 SWAP1 KECCAK256 SLOAD SWAP7 SWAP15 POP SWAP5 SWAP13 POP SWAP3 SWAP11 POP SWAP1 SWAP9 POP SWAP7 POP SWAP5 POP SWAP3 POP PUSH1 0x1 PUSH1 0x1 PUSH1 0xA0 SHL SUB AND SWAP1 POP DUP1 PUSH2 0x1404 JUMPI PUSH1 0x40 MLOAD PUSH3 0x461BCD PUSH1 0xE5 SHL DUP2 MSTORE PUSH1 0x20 PUSH1 0x4 DUP3 ADD MSTORE PUSH1 0x12 PUSH1 0x24 DUP3 ADD MSTORE PUSH18 0x125B9D985B1A59081C995C5D595CDD081251 PUSH1 0x72 SHL PUSH1 0x44 DUP3 ADD MSTORE PUSH1 0x64 ADD PUSH2 0x4A3 JUMP JUMPDEST PUSH1 0x0 DUP9 DUP2 MSTORE PUSH1 0x3 PUSH1 0x20 SWAP1 DUP2 MSTORE PUSH1 0x40 DUP1 DUP4 KECCAK256 DUP1 SLOAD PUSH1 0x1 PUSH1 0x1 PUSH1 0xA0 SHL SUB NOT SWAP1 DUP2 AND SWAP1 SWAP2 SSTORE DUP2 MLOAD PUSH1 0xC0 DUP2 ADD DUP4 MSTORE PUSH1 0x1 PUSH1 0x1 PUSH1 0xA0 SHL SUB DUP12 DUP2 AND DUP3 MSTORE DUP2 DUP6 ADD DUP12 DUP2 MSTORE DUP3 DUP6 ADD DUP12 SWAP1 MSTORE PUSH1 0x60 DUP4 ADD DUP11 SWAP1 MSTORE PUSH1 0x80 DUP4 ADD DUP10 SWAP1 MSTORE PUSH1 0x1 PUSH1 0xA0 DUP5 ADD DUP2 SWAP1 MSTORE DUP15 DUP9 MSTORE PUSH1 0x5 SWAP1 SWAP7 MSTORE SWAP4 SWAP1 SWAP6 KECCAK256 DUP2 MLOAD DUP2 SLOAD SWAP7 AND SWAP6 SWAP1 SWAP3 AND SWAP5 SWAP1 SWAP5 OR DUP2 SSTORE SWAP1 MLOAD SWAP1 SWAP2 DUP3 ADD SWAP1 PUSH2 0x148B SWAP1 DUP3 PUSH2 0x2163 JUMP JUMPDEST POP PUSH1 0x40 DUP3 ADD MLOAD DUP1 MLOAD PUSH2 0x14A7 SWAP2 PUSH1 0x2 DUP5 ADD SWAP2 PUSH1 0x20 SWAP1 SWAP2 ADD SWAP1 PUSH2 0x173F JUMP JUMPDEST POP PUSH1 0x60 DUP3 ADD MLOAD PUSH1 0x3 DUP3 ADD SWAP1 PUSH2 0x14BC SWAP1 DUP3 PUSH2 0x2163 JUMP JUMPDEST POP PUSH1 0x80 DUP3 ADD MLOAD PUSH1 0x4 DUP3 ADD SSTORE PUSH1 0xA0 SWAP1 SWAP2 ADD MLOAD PUSH1 0x5 SWAP1 SWAP2 ADD DUP1 SLOAD PUSH1 0xFF NOT AND SWAP2 ISZERO ISZERO SWAP2 SWAP1 SWAP2 OR SWAP1 SSTORE PUSH1 0x40 MLOAD DUP8 SWAP1 PUSH1 0x1 PUSH1 0x1 PUSH1 0xA0 SHL SUB DUP4 AND SWAP1 PUSH32 0x1BBDAEA743D9C55A6D1FA9C544D8A14C9B977EFB044E84F79E85A9DB7F6A58F6 SWAP1 PUSH2 0x1520 SWAP1 DUP11 SWAP1 DUP11 SWAP1 PUSH2 0x2221 JUMP JUMPDEST PUSH1 0x40 MLOAD DUP1 SWAP2 SUB SWAP1 LOG3 POP POP POP POP POP POP POP POP POP POP JUMP JUMPDEST PUSH1 0x0 DUP2 CALLVALUE EQ PUSH2 0x1558 JUMPI PUSH1 0x40 MLOAD PUSH4 0x4FB8209 PUSH1 0xE5 SHL DUP2 MSTORE CALLVALUE PUSH1 0x4 DUP3 ADD MSTORE PUSH1 0x24 ADD PUSH2 0x4A3 JUMP JUMPDEST POP SWAP1 JUMP JUMPDEST PUSH1 0x0 PUSH32 0x0 PUSH1 0x1 PUSH1 0x1 PUSH1 0xA0 SHL SUB AND PUSH4 0xE4FE1D94 PUSH1 0x40 MLOAD DUP2 PUSH4 0xFFFFFFFF AND PUSH1 0xE0 SHL DUP2 MSTORE PUSH1 0x4 ADD PUSH1 0x20 PUSH1 0x40 MLOAD DUP1 DUP4 SUB DUP2 DUP7 GAS STATICCALL ISZERO DUP1 ISZERO PUSH2 0x15BC JUMPI RETURNDATASIZE PUSH1 0x0 DUP1 RETURNDATACOPY RETURNDATASIZE PUSH1 0x0 REVERT JUMPDEST POP POP POP POP PUSH1 0x40 MLOAD RETURNDATASIZE PUSH1 0x1F NOT PUSH1 0x1F DUP3 ADD AND DUP3 ADD DUP1 PUSH1 0x40 MSTORE POP DUP2 ADD SWAP1 PUSH2 0x15E0 SWAP2 SWAP1 PUSH2 0x224B JUMP JUMPDEST SWAP1 POP PUSH1 0x1 PUSH1 0x1 PUSH1 0xA0 SHL SUB DUP2 AND PUSH2 0x1609 JUMPI PUSH1 0x40 MLOAD PUSH4 0x29B99A95 PUSH1 0xE1 SHL DUP2 MSTORE PUSH1 0x4 ADD PUSH1 0x40 MLOAD DUP1 SWAP2 SUB SWAP1 REVERT JUMPDEST PUSH1 0x40 DUP1 MLOAD CALLER PUSH1 0x24 DUP3 ADD DUP2 SWAP1 MSTORE PUSH32 0x0 PUSH1 0x1 PUSH1 0x1 PUSH1 0xA0 SHL SUB DUP2 DUP2 AND PUSH1 0x44 DUP6 ADD MSTORE PUSH1 0x64 DUP1 DUP6 ADD DUP9 SWAP1 MSTORE DUP6 MLOAD DUP1 DUP7 SUB SWAP1 SWAP2 ADD DUP2 MSTORE PUSH1 0x84 SWAP1 SWAP5 ADD SWAP1 SWAP5 MSTORE PUSH1 0x20 DUP1 DUP5 ADD DUP1 MLOAD PUSH1 0x1 PUSH1 0x1 PUSH1 0xE0 SHL SUB AND PUSH4 0x23B872DD PUSH1 0xE0 SHL OR DUP2 MSTORE DUP5 MLOAD PUSH2 0x52E SWAP7 DUP9 AND SWAP6 DUP10 SWAP4 PUSH2 0x7E5 SWAP4 DUP9 SWAP4 PUSH1 0x0 SWAP3 DUP4 SWAP3 SWAP1 SWAP2 DUP4 SWAP2 DUP3 DUP9 GAS CALL DUP1 PUSH2 0x16AA JUMPI PUSH1 0x40 MLOAD RETURNDATASIZE PUSH1 0x0 DUP3 RETURNDATACOPY RETURNDATASIZE DUP2 REVERT JUMPDEST POP POP PUSH1 0x0 MLOAD RETURNDATASIZE SWAP2 POP DUP2 ISZERO PUSH2 0x16C2 JUMPI DUP1 PUSH1 0x1 EQ ISZERO PUSH2 0x16CF JUMP JUMPDEST PUSH1 0x1 PUSH1 0x1 PUSH1 0xA0 SHL SUB DUP5 AND EXTCODESIZE ISZERO JUMPDEST ISZERO PUSH2 0x7E5 JUMPI PUSH1 0x40 MLOAD PUSH4 0x5274AFE7 PUSH1 0xE0 SHL DUP2 MSTORE PUSH1 0x1 PUSH1 0x1 PUSH1 0xA0 SHL SUB DUP6 AND PUSH1 0x4 DUP3 ADD MSTORE PUSH1 0x24 ADD PUSH2 0x4A3 JUMP JUMPDEST PUSH1 0x40 MLOAD DUP1 PUSH1 0x60 ADD PUSH1 0x40 MSTORE DUP1 PUSH1 0x0 DUP1 NOT AND DUP2 MSTORE PUSH1 0x20 ADD PUSH1 0x0 PUSH1 0x1 PUSH1 0x1 PUSH1 0x40 SHL SUB AND DUP2 MSTORE PUSH1 0x20 ADD PUSH2 0x173A PUSH1 0x40 MLOAD DUP1 PUSH1 0x40 ADD PUSH1 0x40 MSTORE DUP1 PUSH1 0x0 DUP2 MSTORE PUSH1 0x20 ADD PUSH1 0x0 DUP2 MSTORE POP SWAP1 JUMP JUMPDEST SWAP1 MSTORE SWAP1 JUMP JUMPDEST DUP3 DUP1 SLOAD DUP3 DUP3 SSTORE SWAP1 PUSH1 0x0 MSTORE PUSH1 0x20 PUSH1 0x0 KECCAK256 SWAP1 DUP2 ADD SWAP3 DUP3 ISZERO PUSH2 0x1785 JUMPI SWAP2 PUSH1 0x20 MUL DUP3 ADD JUMPDEST DUP3 DUP2 GT ISZERO PUSH2 0x1785 JUMPI DUP3 MLOAD DUP3 SWAP1 PUSH2 0x1775 SWAP1 DUP3 PUSH2 0x2163 JUMP JUMPDEST POP SWAP2 PUSH1 0x20 ADD SWAP2 SWAP1 PUSH1 0x1 ADD SWAP1 PUSH2 0x175F JUMP JUMPDEST POP PUSH2 0x1558 SWAP3 SWAP2 POP JUMPDEST DUP1 DUP3 GT ISZERO PUSH2 0x1558 JUMPI PUSH1 0x0 PUSH2 0x17A1 DUP3 DUP3 PUSH2 0x17AA JUMP JUMPDEST POP PUSH1 0x1 ADD PUSH2 0x178D JUMP JUMPDEST POP DUP1 SLOAD PUSH2 0x17B6 SWAP1 PUSH2 0x1E82 JUMP JUMPDEST PUSH1 0x0 DUP3 SSTORE DUP1 PUSH1 0x1F LT PUSH2 0x17C6 JUMPI POP POP JUMP JUMPDEST PUSH1 0x1F ADD PUSH1 0x20 SWAP1 DIV SWAP1 PUSH1 0x0 MSTORE PUSH1 0x20 PUSH1 0x0 KECCAK256 SWAP1 DUP2 ADD SWAP1 PUSH2 0xD7A SWAP2 SWAP1 JUMPDEST DUP1 DUP3 GT ISZERO PUSH2 0x1558 JUMPI PUSH1 0x0 DUP2 SSTORE PUSH1 0x1 ADD PUSH2 0x17E0 JUMP JUMPDEST PUSH1 0x0 PUSH1 0x60 DUP3 DUP5 SUB SLT ISZERO PUSH2 0x1806 JUMPI PUSH1 0x0 DUP1 REVERT JUMPDEST POP SWAP2 SWAP1 POP JUMP JUMPDEST PUSH1 0x0 DUP1 DUP4 PUSH1 0x1F DUP5 ADD SLT PUSH2 0x181E JUMPI PUSH1 0x0 DUP1 REVERT JUMPDEST POP DUP2 CALLDATALOAD PUSH1 0x1 PUSH1 0x1 PUSH1 0x40 SHL SUB DUP2 GT ISZERO PUSH2 0x1835 JUMPI PUSH1 0x0 DUP1 REVERT JUMPDEST PUSH1 0x20 DUP4 ADD SWAP2 POP DUP4 PUSH1 0x20 DUP3 DUP6 ADD ADD GT ISZERO PUSH2 0x184D JUMPI PUSH1 0x0 DUP1 REVERT JUMPDEST SWAP3 POP SWAP3 SWAP1 POP JUMP JUMPDEST PUSH1 0x1 PUSH1 0x1 PUSH1 0xA0 SHL SUB DUP2 AND DUP2 EQ PUSH2 0xD7A JUMPI PUSH1 0x0 DUP1 REVERT JUMPDEST PUSH1 0x0 DUP1 PUSH1 0x0 DUP1 PUSH1 0x0 DUP1 PUSH1 0x0 PUSH1 0xE0 DUP9 DUP11 SUB SLT ISZERO PUSH2 0x1884 JUMPI PUSH1 0x0 DUP1 REVERT JUMPDEST PUSH2 0x188E DUP10 DUP10 PUSH2 0x17F4 JUMP JUMPDEST SWAP7 POP PUSH1 0x60 DUP9 ADD CALLDATALOAD SWAP6 POP PUSH1 0x80 DUP9 ADD CALLDATALOAD PUSH1 0x1 PUSH1 0x1 PUSH1 0x40 SHL SUB DUP2 GT ISZERO PUSH2 0x18B0 JUMPI PUSH1 0x0 DUP1 REVERT JUMPDEST PUSH2 0x18BC DUP11 DUP3 DUP12 ADD PUSH2 0x180C JUMP JUMPDEST SWAP1 SWAP7 POP SWAP5 POP POP PUSH1 0xA0 DUP9 ADD CALLDATALOAD PUSH2 0x18D0 DUP2 PUSH2 0x1854 JUMP JUMPDEST SWAP3 POP PUSH1 0xC0 DUP9 ADD CALLDATALOAD PUSH1 0x1 PUSH1 0x1 PUSH1 0x40 SHL SUB DUP2 GT ISZERO PUSH2 0x18EB JUMPI PUSH1 0x0 DUP1 REVERT JUMPDEST PUSH2 0x18F7 DUP11 DUP3 DUP12 ADD PUSH2 0x180C JUMP JUMPDEST SWAP9 SWAP12 SWAP8 SWAP11 POP SWAP6 SWAP9 POP SWAP4 SWAP7 SWAP3 SWAP6 SWAP3 SWAP4 POP POP POP JUMP JUMPDEST DUP1 CALLDATALOAD PUSH4 0xFFFFFFFF DUP2 AND DUP2 EQ PUSH2 0x191E JUMPI PUSH1 0x0 DUP1 REVERT JUMPDEST SWAP2 SWAP1 POP JUMP JUMPDEST PUSH1 0x0 DUP1 PUSH1 0x40 DUP4 DUP6 SUB SLT ISZERO PUSH2 0x1936 JUMPI PUSH1 0x0 DUP1 REVERT JUMPDEST PUSH2 0x193F DUP4 PUSH2 0x190A JUMP JUMPDEST SWAP5 PUSH1 0x20 SWAP4 SWAP1 SWAP4 ADD CALLDATALOAD SWAP4 POP POP POP JUMP JUMPDEST PUSH1 0x0 DUP1 PUSH1 0x0 DUP1 PUSH1 0x60 DUP6 DUP8 SUB SLT ISZERO PUSH2 0x1963 JUMPI PUSH1 0x0 DUP1 REVERT JUMPDEST PUSH2 0x196C DUP6 PUSH2 0x190A JUMP JUMPDEST SWAP4 POP PUSH1 0x20 DUP6 ADD CALLDATALOAD SWAP3 POP PUSH1 0x40 DUP6 ADD CALLDATALOAD PUSH1 0x1 PUSH1 0x1 PUSH1 0x40 SHL SUB DUP2 GT ISZERO PUSH2 0x198E JUMPI PUSH1 0x0 DUP1 REVERT JUMPDEST PUSH2 0x199A DUP8 DUP3 DUP9 ADD PUSH2 0x180C JUMP JUMPDEST SWAP6 SWAP9 SWAP5 SWAP8 POP SWAP6 POP POP POP POP JUMP JUMPDEST PUSH1 0x0 PUSH1 0x20 DUP3 DUP5 SUB SLT ISZERO PUSH2 0x19B8 JUMPI PUSH1 0x0 DUP1 REVERT JUMPDEST POP CALLDATALOAD SWAP2 SWAP1 POP JUMP JUMPDEST PUSH4 0x4E487B71 PUSH1 0xE0 SHL PUSH1 0x0 MSTORE PUSH1 0x41 PUSH1 0x4 MSTORE PUSH1 0x24 PUSH1 0x0 REVERT JUMPDEST PUSH1 0x40 MLOAD PUSH1 0x1F DUP3 ADD PUSH1 0x1F NOT AND DUP2 ADD PUSH1 0x1 PUSH1 0x1 PUSH1 0x40 SHL SUB DUP2 GT DUP3 DUP3 LT OR ISZERO PUSH2 0x19FD JUMPI PUSH2 0x19FD PUSH2 0x19BF JUMP JUMPDEST PUSH1 0x40 MSTORE SWAP2 SWAP1 POP JUMP JUMPDEST PUSH1 0x0 DUP3 PUSH1 0x1F DUP4 ADD SLT PUSH2 0x1A16 JUMPI PUSH1 0x0 DUP1 REVERT JUMPDEST DUP2 CALLDATALOAD PUSH1 0x1 PUSH1 0x1 PUSH1 0x40 SHL SUB DUP2 GT ISZERO PUSH2 0x1A2F JUMPI PUSH2 0x1A2F PUSH2 0x19BF JUMP JUMPDEST PUSH2 0x1A42 PUSH1 0x1F DUP3 ADD PUSH1 0x1F NOT AND PUSH1 0x20 ADD PUSH2 0x19D5 JUMP JUMPDEST DUP2 DUP2 MSTORE DUP5 PUSH1 0x20 DUP4 DUP7 ADD ADD GT ISZERO PUSH2 0x1A57 JUMPI PUSH1 0x0 DUP1 REVERT JUMPDEST DUP2 PUSH1 0x20 DUP6 ADD PUSH1 0x20 DUP4 ADD CALLDATACOPY PUSH1 0x0 SWAP2 DUP2 ADD PUSH1 0x20 ADD SWAP2 SWAP1 SWAP2 MSTORE SWAP4 SWAP3 POP POP POP JUMP JUMPDEST PUSH1 0x0 DUP3 PUSH1 0x1F DUP4 ADD SLT PUSH2 0x1A85 JUMPI PUSH1 0x0 DUP1 REVERT JUMPDEST DUP2 CALLDATALOAD PUSH1 0x1 PUSH1 0x1 PUSH1 0x40 SHL SUB DUP2 GT ISZERO PUSH2 0x1A9E JUMPI PUSH2 0x1A9E PUSH2 0x19BF JUMP JUMPDEST DUP1 PUSH1 0x5 SHL PUSH2 0x1AAE PUSH1 0x20 DUP3 ADD PUSH2 0x19D5 JUMP JUMPDEST SWAP2 DUP3 MSTORE PUSH1 0x20 DUP2 DUP6 ADD DUP2 ADD SWAP3 SWAP1 DUP2 ADD SWAP1 DUP7 DUP5 GT ISZERO PUSH2 0x1ACA JUMPI PUSH1 0x0 DUP1 REVERT JUMPDEST PUSH1 0x20 DUP7 ADD SWAP3 POP JUMPDEST DUP4 DUP4 LT ISZERO PUSH2 0x5B0 JUMPI DUP3 CALLDATALOAD PUSH1 0x1 PUSH1 0x1 PUSH1 0x40 SHL SUB DUP2 GT ISZERO PUSH2 0x1AEF JUMPI PUSH1 0x0 DUP1 REVERT JUMPDEST PUSH2 0x1AFE DUP9 PUSH1 0x20 DUP4 DUP11 ADD ADD PUSH2 0x1A05 JUMP JUMPDEST DUP4 MSTORE POP PUSH1 0x20 SWAP3 DUP4 ADD SWAP3 SWAP1 SWAP2 ADD SWAP1 PUSH2 0x1AD1 JUMP JUMPDEST PUSH1 0x0 DUP1 PUSH1 0x0 DUP1 PUSH1 0x0 DUP1 PUSH1 0x0 PUSH1 0xC0 DUP9 DUP11 SUB SLT ISZERO PUSH2 0x1B2B JUMPI PUSH1 0x0 DUP1 REVERT JUMPDEST PUSH2 0x1B34 DUP9 PUSH2 0x190A JUMP JUMPDEST SWAP7 POP PUSH1 0x20 DUP9 ADD CALLDATALOAD PUSH1 0x1 PUSH1 0x1 PUSH1 0x40 SHL SUB DUP2 GT ISZERO PUSH2 0x1B4F JUMPI PUSH1 0x0 DUP1 REVERT JUMPDEST PUSH2 0x1B5B DUP11 DUP3 DUP12 ADD PUSH2 0x1A05 JUMP JUMPDEST SWAP7 POP POP PUSH1 0x40 DUP9 ADD CALLDATALOAD PUSH1 0x1 PUSH1 0x1 PUSH1 0x40 SHL SUB DUP2 GT ISZERO PUSH2 0x1B77 JUMPI PUSH1 0x0 DUP1 REVERT JUMPDEST PUSH2 0x1B83 DUP11 DUP3 DUP12 ADD PUSH2 0x1A74 JUMP JUMPDEST SWAP6 POP POP PUSH1 0x60 DUP9 ADD CALLDATALOAD PUSH1 0x1 PUSH1 0x1 PUSH1 0x40 SHL SUB DUP2 GT ISZERO PUSH2 0x1B9F JUMPI PUSH1 0x0 DUP1 REVERT JUMPDEST PUSH2 0x1BAB DUP11 DUP3 DUP12 ADD PUSH2 0x1A05 JUMP JUMPDEST SWAP5 POP POP PUSH1 0x80 DUP9 ADD CALLDATALOAD SWAP3 POP PUSH1 0xA0 DUP9 ADD CALLDATALOAD PUSH1 0x1 PUSH1 0x1 PUSH1 0x40 SHL SUB DUP2 GT ISZERO PUSH2 0x18EB JUMPI PUSH1 0x0 DUP1 REVERT JUMPDEST PUSH1 0x0 DUP1 PUSH1 0x0 DUP1 PUSH1 0xA0 DUP6 DUP8 SUB SLT ISZERO PUSH2 0x1BE4 JUMPI PUSH1 0x0 DUP1 REVERT JUMPDEST PUSH2 0x1BEE DUP7 DUP7 PUSH2 0x17F4 JUMP JUMPDEST SWAP4 POP PUSH1 0x60 DUP6 ADD CALLDATALOAD PUSH1 0x1 PUSH1 0x1 PUSH1 0x40 SHL SUB DUP2 GT ISZERO PUSH2 0x1C09 JUMPI PUSH1 0x0 DUP1 REVERT JUMPDEST PUSH2 0x1C15 DUP8 DUP3 DUP9 ADD PUSH2 0x180C JUMP JUMPDEST SWAP1 SWAP5 POP SWAP3 POP POP PUSH1 0x80 DUP6 ADD CALLDATALOAD PUSH2 0x1C29 DUP2 PUSH2 0x1854 JUMP JUMPDEST SWAP4 SWAP7 SWAP3 SWAP6 POP SWAP1 SWAP4 POP POP JUMP JUMPDEST PUSH1 0x0 DUP1 PUSH1 0x40 DUP4 DUP6 SUB SLT ISZERO PUSH2 0x1C47 JUMPI PUSH1 0x0 DUP1 REVERT JUMPDEST DUP3 CALLDATALOAD PUSH2 0x193F DUP2 PUSH2 0x1854 JUMP JUMPDEST PUSH1 0x0 PUSH1 0x20 DUP3 DUP5 SUB SLT ISZERO PUSH2 0x1C64 JUMPI PUSH1 0x0 DUP1 REVERT JUMPDEST PUSH2 0x1C6D DUP3 PUSH2 0x190A JUMP JUMPDEST SWAP4 SWAP3 POP POP POP JUMP JUMPDEST PUSH1 0x0 PUSH1 0x20 DUP3 DUP5 SUB SLT ISZERO PUSH2 0x1C86 JUMPI PUSH1 0x0 DUP1 REVERT JUMPDEST DUP2 CALLDATALOAD PUSH2 0x1C6D DUP2 PUSH2 0x1854 JUMP JUMPDEST PUSH1 0x0 DUP2 MLOAD DUP1 DUP5 MSTORE PUSH1 0x0 JUMPDEST DUP2 DUP2 LT ISZERO PUSH2 0x1CB7 JUMPI PUSH1 0x20 DUP2 DUP6 ADD DUP2 ADD MLOAD DUP7 DUP4 ADD DUP3 ADD MSTORE ADD PUSH2 0x1C9B JUMP JUMPDEST POP PUSH1 0x0 PUSH1 0x20 DUP3 DUP7 ADD ADD MSTORE PUSH1 0x20 PUSH1 0x1F NOT PUSH1 0x1F DUP4 ADD AND DUP6 ADD ADD SWAP2 POP POP SWAP3 SWAP2 POP POP JUMP JUMPDEST PUSH1 0x0 DUP3 DUP3 MLOAD DUP1 DUP6 MSTORE PUSH1 0x20 DUP6 ADD SWAP5 POP PUSH1 0x20 DUP2 PUSH1 0x5 SHL DUP4 ADD ADD PUSH1 0x20 DUP6 ADD PUSH1 0x0 JUMPDEST DUP4 DUP2 LT ISZERO PUSH2 0x1D27 JUMPI PUSH1 0x1F NOT DUP6 DUP5 SUB ADD DUP9 MSTORE PUSH2 0x1D11 DUP4 DUP4 MLOAD PUSH2 0x1C91 JUMP JUMPDEST PUSH1 0x20 SWAP9 DUP10 ADD SWAP9 SWAP1 SWAP4 POP SWAP2 SWAP1 SWAP2 ADD SWAP1 PUSH1 0x1 ADD PUSH2 0x1CF5 JUMP JUMPDEST POP SWAP1 SWAP7 SWAP6 POP POP POP POP POP POP JUMP JUMPDEST PUSH1 0x1 PUSH1 0x1 PUSH1 0xA0 SHL SUB DUP8 AND DUP2 MSTORE PUSH1 0xC0 PUSH1 0x20 DUP3 ADD MSTORE PUSH1 0x0 PUSH2 0x1D55 PUSH1 0xC0 DUP4 ADD DUP9 PUSH2 0x1C91 JUMP JUMPDEST DUP3 DUP2 SUB PUSH1 0x40 DUP5 ADD MSTORE PUSH2 0x1D67 DUP2 DUP9 PUSH2 0x1CD7 JUMP JUMPDEST SWAP1 POP DUP3 DUP2 SUB PUSH1 0x60 DUP5 ADD MSTORE PUSH2 0x1D7B DUP2 DUP8 PUSH2 0x1C91 JUMP JUMPDEST PUSH1 0x80 DUP5 ADD SWAP6 SWAP1 SWAP6 MSTORE POP POP SWAP1 ISZERO ISZERO PUSH1 0xA0 SWAP1 SWAP2 ADD MSTORE SWAP5 SWAP4 POP POP POP POP JUMP JUMPDEST PUSH1 0x0 PUSH1 0x60 DUP3 DUP5 SUB SLT ISZERO PUSH2 0x1DA8 JUMPI PUSH1 0x0 DUP1 REVERT JUMPDEST PUSH2 0x1C6D DUP4 DUP4 PUSH2 0x17F4 JUMP JUMPDEST PUSH1 0x0 PUSH1 0x1 DUP3 ADD PUSH2 0x1DD2 JUMPI PUSH4 0x4E487B71 PUSH1 0xE0 SHL PUSH1 0x0 MSTORE PUSH1 0x11 PUSH1 0x4 MSTORE PUSH1 0x24 PUSH1 0x0 REVERT JUMPDEST POP PUSH1 0x1 ADD SWAP1 JUMP JUMPDEST PUSH1 0x0 PUSH1 0x20 DUP3 DUP5 SUB SLT ISZERO PUSH2 0x1DEB JUMPI PUSH1 0x0 DUP1 REVERT JUMPDEST DUP2 MLOAD DUP1 ISZERO ISZERO DUP2 EQ PUSH2 0x1C6D JUMPI PUSH1 0x0 DUP1 REVERT JUMPDEST PUSH1 0xFF DUP8 AND DUP2 MSTORE PUSH1 0x1 PUSH1 0x1 PUSH1 0xA0 SHL SUB DUP7 AND PUSH1 0x20 DUP3 ADD MSTORE PUSH1 0xC0 PUSH1 0x40 DUP3 ADD MSTORE PUSH1 0x0 PUSH2 0x1E26 PUSH1 0xC0 DUP4 ADD DUP8 PUSH2 0x1C91 JUMP JUMPDEST DUP3 DUP2 SUB PUSH1 0x60 DUP5 ADD MSTORE PUSH2 0x1E38 DUP2 DUP8 PUSH2 0x1CD7 JUMP JUMPDEST SWAP1 POP DUP3 DUP2 SUB PUSH1 0x80 DUP5 ADD MSTORE PUSH2 0x1E4C DUP2 DUP7 PUSH2 0x1C91 JUMP JUMPDEST SWAP2 POP POP DUP3 PUSH1 0xA0 DUP4 ADD MSTORE SWAP8 SWAP7 POP POP POP POP POP POP POP JUMP JUMPDEST PUSH1 0x40 DUP2 MSTORE PUSH1 0x0 PUSH2 0x1E73 PUSH1 0x40 DUP4 ADD DUP6 PUSH2 0x1C91 JUMP JUMPDEST SWAP1 POP DUP3 PUSH1 0x20 DUP4 ADD MSTORE SWAP4 SWAP3 POP POP POP JUMP JUMPDEST PUSH1 0x1 DUP2 DUP2 SHR SWAP1 DUP3 AND DUP1 PUSH2 0x1E96 JUMPI PUSH1 0x7F DUP3 AND SWAP2 POP JUMPDEST PUSH1 0x20 DUP3 LT DUP2 SUB PUSH2 0x1806 JUMPI PUSH4 0x4E487B71 PUSH1 0xE0 SHL PUSH1 0x0 MSTORE PUSH1 0x22 PUSH1 0x4 MSTORE PUSH1 0x24 PUSH1 0x0 REVERT JUMPDEST DUP1 CALLDATALOAD PUSH1 0xFF DUP2 AND DUP2 EQ PUSH2 0x191E JUMPI PUSH1 0x0 DUP1 REVERT JUMPDEST PUSH1 0x0 PUSH1 0x20 DUP3 DUP5 SUB SLT ISZERO PUSH2 0x1ED9 JUMPI PUSH1 0x0 DUP1 REVERT JUMPDEST PUSH2 0x1C6D DUP3 PUSH2 0x1EB6 JUMP JUMPDEST PUSH1 0x40 DUP2 MSTORE PUSH4 0xFFFFFFFF DUP4 MLOAD AND PUSH1 0x40 DUP3 ADD MSTORE PUSH1 0x20 DUP4 ADD MLOAD PUSH1 0x60 DUP3 ADD MSTORE PUSH1 0x0 PUSH1 0x40 DUP5 ADD MLOAD PUSH1 0xA0 PUSH1 0x80 DUP5 ADD MSTORE PUSH2 0x1F18 PUSH1 0xE0 DUP5 ADD DUP3 PUSH2 0x1C91 JUMP JUMPDEST SWAP1 POP PUSH1 0x60 DUP6 ADD MLOAD PUSH1 0x3F NOT DUP5 DUP4 SUB ADD PUSH1 0xA0 DUP6 ADD MSTORE PUSH2 0x1F35 DUP3 DUP3 PUSH2 0x1C91 JUMP JUMPDEST PUSH1 0x80 SWAP7 SWAP1 SWAP7 ADD MLOAD ISZERO ISZERO PUSH1 0xC0 DUP6 ADD MSTORE POP POP POP PUSH1 0x1 PUSH1 0x1 PUSH1 0xA0 SHL SUB SWAP2 SWAP1 SWAP2 AND PUSH1 0x20 SWAP1 SWAP2 ADD MSTORE SWAP1 JUMP JUMPDEST PUSH1 0x0 PUSH1 0x40 DUP3 DUP5 SUB SLT ISZERO PUSH2 0x1F6D JUMPI PUSH1 0x0 DUP1 REVERT JUMPDEST PUSH1 0x40 DUP1 MLOAD SWAP1 DUP2 ADD PUSH1 0x1 PUSH1 0x1 PUSH1 0x40 SHL SUB DUP2 GT DUP3 DUP3 LT OR ISZERO PUSH2 0x1F8F JUMPI PUSH2 0x1F8F PUSH2 0x19BF JUMP JUMPDEST PUSH1 0x40 MSTORE DUP3 MLOAD DUP2 MSTORE PUSH1 0x20 SWAP3 DUP4 ADD MLOAD SWAP3 DUP2 ADD SWAP3 SWAP1 SWAP3 MSTORE POP SWAP2 SWAP1 POP JUMP JUMPDEST PUSH1 0x0 PUSH1 0x40 DUP3 DUP5 SUB SLT ISZERO PUSH2 0x1FBB JUMPI PUSH1 0x0 DUP1 REVERT JUMPDEST PUSH2 0x1C6D DUP4 DUP4 PUSH2 0x1F5B JUMP JUMPDEST PUSH1 0x0 PUSH1 0x80 DUP3 DUP5 SUB SLT DUP1 ISZERO PUSH2 0x1FD8 JUMPI PUSH1 0x0 DUP1 REVERT JUMPDEST POP PUSH1 0x40 MLOAD PUSH1 0x60 DUP2 ADD PUSH1 0x1 PUSH1 0x1 PUSH1 0x40 SHL SUB DUP2 GT DUP3 DUP3 LT OR ISZERO PUSH2 0x1FFB JUMPI PUSH2 0x1FFB PUSH2 0x19BF JUMP JUMPDEST PUSH1 0x40 MSTORE DUP3 MLOAD DUP2 MSTORE PUSH1 0x20 DUP4 ADD MLOAD PUSH1 0x1 PUSH1 0x1 PUSH1 0x40 SHL SUB DUP2 AND DUP2 EQ PUSH2 0x201C JUMPI PUSH1 0x0 DUP1 REVERT JUMPDEST PUSH1 0x20 DUP3 ADD MSTORE PUSH2 0x202E DUP5 PUSH1 0x40 DUP6 ADD PUSH2 0x1F5B JUMP JUMPDEST PUSH1 0x40 DUP3 ADD MSTORE SWAP4 SWAP3 POP POP POP JUMP JUMPDEST DUP1 CALLDATALOAD PUSH2 0x191E DUP2 PUSH2 0x1854 JUMP JUMPDEST PUSH1 0x0 DUP1 PUSH1 0x0 DUP1 PUSH1 0x0 DUP1 PUSH1 0x0 DUP1 PUSH2 0x100 DUP10 DUP12 SUB SLT ISZERO PUSH2 0x2062 JUMPI PUSH1 0x0 DUP1 REVERT JUMPDEST PUSH2 0x206B DUP10 PUSH2 0x1EB6 JUMP JUMPDEST SWAP8 POP PUSH1 0x20 DUP10 ADD CALLDATALOAD SWAP7 POP PUSH1 0x40 DUP10 ADD CALLDATALOAD SWAP6 POP PUSH2 0x2087 PUSH1 0x60 DUP11 ADD PUSH2 0x203A JUMP JUMPDEST SWAP5 POP PUSH1 0x80 DUP10 ADD CALLDATALOAD PUSH1 0x1 PUSH1 0x1 PUSH1 0x40 SHL SUB DUP2 GT ISZERO PUSH2 0x20A2 JUMPI PUSH1 0x0 DUP1 REVERT JUMPDEST PUSH2 0x20AE DUP12 DUP3 DUP13 ADD PUSH2 0x1A05 JUMP JUMPDEST SWAP5 POP POP PUSH1 0xA0 DUP10 ADD CALLDATALOAD PUSH1 0x1 PUSH1 0x1 PUSH1 0x40 SHL SUB DUP2 GT ISZERO PUSH2 0x20CA JUMPI PUSH1 0x0 DUP1 REVERT JUMPDEST PUSH2 0x20D6 DUP12 DUP3 DUP13 ADD PUSH2 0x1A74 JUMP JUMPDEST SWAP4 POP POP PUSH1 0xC0 DUP10 ADD CALLDATALOAD PUSH1 0x1 PUSH1 0x1 PUSH1 0x40 SHL SUB DUP2 GT ISZERO PUSH2 0x20F2 JUMPI PUSH1 0x0 DUP1 REVERT JUMPDEST PUSH2 0x20FE DUP12 DUP3 DUP13 ADD PUSH2 0x1A05 JUMP JUMPDEST SWAP9 SWAP12 SWAP8 SWAP11 POP SWAP6 SWAP9 SWAP5 SWAP8 SWAP4 SWAP7 SWAP3 SWAP6 POP SWAP3 SWAP4 PUSH1 0xE0 ADD CALLDATALOAD SWAP3 POP POP JUMP JUMPDEST PUSH1 0x1F DUP3 GT ISZERO PUSH2 0x215E JUMPI DUP1 PUSH1 0x0 MSTORE PUSH1 0x20 PUSH1 0x0 KECCAK256 PUSH1 0x1F DUP5 ADD PUSH1 0x5 SHR DUP2 ADD PUSH1 0x20 DUP6 LT ISZERO PUSH2 0x213E JUMPI POP DUP1 JUMPDEST PUSH1 0x1F DUP5 ADD PUSH1 0x5 SHR DUP3 ADD SWAP2 POP JUMPDEST DUP2 DUP2 LT ISZERO PUSH2 0xD38 JUMPI PUSH1 0x0 DUP2 SSTORE PUSH1 0x1 ADD PUSH2 0x214A JUMP JUMPDEST POP POP POP JUMP JUMPDEST DUP2 MLOAD PUSH1 0x1 PUSH1 0x1 PUSH1 0x40 SHL SUB DUP2 GT ISZERO PUSH2 0x217C JUMPI PUSH2 0x217C PUSH2 0x19BF JUMP JUMPDEST PUSH2 0x2190 DUP2 PUSH2 0x218A DUP5 SLOAD PUSH2 0x1E82 JUMP JUMPDEST DUP5 PUSH2 0x2117 JUMP JUMPDEST PUSH1 0x20 PUSH1 0x1F DUP3 GT PUSH1 0x1 DUP2 EQ PUSH2 0x21C4 JUMPI PUSH1 0x0 DUP4 ISZERO PUSH2 0x21AC JUMPI POP DUP5 DUP3 ADD MLOAD JUMPDEST PUSH1 0x0 NOT PUSH1 0x3 DUP6 SWAP1 SHL SHR NOT AND PUSH1 0x1 DUP5 SWAP1 SHL OR DUP5 SSTORE PUSH2 0xD38 JUMP JUMPDEST PUSH1 0x0 DUP5 DUP2 MSTORE PUSH1 0x20 DUP2 KECCAK256 PUSH1 0x1F NOT DUP6 AND SWAP2 JUMPDEST DUP3 DUP2 LT ISZERO PUSH2 0x21F4 JUMPI DUP8 DUP6 ADD MLOAD DUP3 SSTORE PUSH1 0x20 SWAP5 DUP6 ADD SWAP5 PUSH1 0x1 SWAP1 SWAP3 ADD SWAP2 ADD PUSH2 0x21D4 JUMP JUMPDEST POP DUP5 DUP3 LT ISZERO PUSH2 0x2212 JUMPI DUP7 DUP5 ADD MLOAD PUSH1 0x0 NOT PUSH1 0x3 DUP8 SWAP1 SHL PUSH1 0xF8 AND SHR NOT AND DUP2 SSTORE JUMPDEST POP POP POP POP PUSH1 0x1 SWAP1 DUP2 SHL ADD SWAP1 SSTORE POP JUMP JUMPDEST PUSH1 0x1 PUSH1 0x1 PUSH1 0xA0 SHL SUB DUP4 AND DUP2 MSTORE PUSH1 0x40 PUSH1 0x20 DUP3 ADD MSTORE PUSH1 0x0 PUSH2 0x2243 PUSH1 0x40 DUP4 ADD DUP5 PUSH2 0x1C91 JUMP JUMPDEST SWAP5 SWAP4 POP POP POP POP JUMP JUMPDEST PUSH1 0x0 PUSH1 0x20 DUP3 DUP5 SUB SLT ISZERO PUSH2 0x225D JUMPI PUSH1 0x0 DUP1 REVERT JUMPDEST DUP2 MLOAD PUSH2 0x1C6D DUP2 PUSH2 0x1854 JUMP INVALID LOG2 PUSH5 0x6970667358 0x22 SLT KECCAK256 PUSH0 0x23 SWAP13 0xB7 SLT PUSH4 0x17BF1B66 0xB1 0x26 POP BYTE MCOPY 0xDA 0x2E EXP EXTCODEHASH MSIZE SIGNEXTEND 0xBA SHL BYTE 0x4D 0x2B ISZERO 0x1F 0xC1 CALLVALUE SELFBALANCE SELFBALANCE PUSH5 0x736F6C6343 STOP ADDMOD SHR STOP CALLER "
				},
				"gasEstimates": {
					"creation": {
						"codeDepositCost": "1772400",
						"executionCost": "infinite",
						"totalCost": "infinite"
					},
					"external": {
						"allowInitializePath((uint32,bytes32,uint64))": "infinite",
						"createUserProfile(uint32,string,string[],string,uint256,bytes)": "infinite",
						"endpoint()": "infinite",
						"getCachedProfile(uint256)": "infinite",
						"getPendingRequester(bytes32)": "2500",
						"getProfileCrossChain(uint32,uint256,bytes)": "infinite",
						"isComposeMsgSender((uint32,bytes32,uint64),bytes,address)": "764",
						"lzReceive((uint32,bytes32,uint64),bytes32,bytes,address,bytes)": "infinite",
						"nextNonce(uint32,bytes32)": "501",
						"oAppVersion()": "230",
						"owner()": "2376",
						"peers(uint32)": "2596",
						"quoteCreateUserProfile(uint32,string,string[],string,uint256,bytes)": "infinite",
						"quoteGetProfile(uint32,uint256,bytes)": "infinite",
						"renounceOwnership()": "infinite",
						"setDelegate(address)": "infinite",
						"setPeer(uint32,bytes32)": "26105",
						"transferOwnership(address)": "infinite",
						"usdToken()": "infinite",
						"withdrawFees(address,uint256)": "infinite"
					},
					"internal": {
						"_handleProfileResponse(bytes calldata)": "infinite",
						"_lzReceive(struct Origin calldata,bytes32,bytes calldata,address,bytes calldata)": "infinite"
					}
				},
				"methodIdentifiers": {
					"allowInitializePath((uint32,bytes32,uint64))": "ff7bd03d",
					"createUserProfile(uint32,string,string[],string,uint256,bytes)": "64bd90eb",
					"endpoint()": "5e280f11",
					"getCachedProfile(uint256)": "fa49def1",
					"getPendingRequester(bytes32)": "58f5228e",
					"getProfileCrossChain(uint32,uint256,bytes)": "48967a46",
					"isComposeMsgSender((uint32,bytes32,uint64),bytes,address)": "82413eac",
					"lzReceive((uint32,bytes32,uint64),bytes32,bytes,address,bytes)": "13137d65",
					"nextNonce(uint32,bytes32)": "7d25a05e",
					"oAppVersion()": "17442b70",
					"owner()": "8da5cb5b",
					"peers(uint32)": "bb0b6a53",
					"quoteCreateUserProfile(uint32,string,string[],string,uint256,bytes)": "c7533941",
					"quoteGetProfile(uint32,uint256,bytes)": "42dc6299",
					"renounceOwnership()": "715018a6",
					"setDelegate(address)": "ca5eb5e1",
					"setPeer(uint32,bytes32)": "3400288b",
					"transferOwnership(address)": "f2fde38b",
					"usdToken()": "f897a22b",
					"withdrawFees(address,uint256)": "ad3b1b47"
				}
			},
			"storageLayout": {
				"storage": [
					{
						"astId": 1327,
						"contract": "profile-fees-getter.sol:LocalOpenWorkV2",
						"label": "_owner",
						"offset": 0,
						"slot": "0",
						"type": "t_address"
					},
					{
						"astId": 785,
						"contract": "profile-fees-getter.sol:LocalOpenWorkV2",
						"label": "peers",
						"offset": 0,
						"slot": "1",
						"type": "t_mapping(t_uint32,t_bytes32)"
					},
					{
						"astId": 1567,
						"contract": "profile-fees-getter.sol:LocalOpenWorkV2",
						"label": "_status",
						"offset": 0,
						"slot": "2",
						"type": "t_uint256"
					},
					{
						"astId": 2229,
						"contract": "profile-fees-getter.sol:LocalOpenWorkV2",
						"label": "pendingRequests",
						"offset": 0,
						"slot": "3",
						"type": "t_mapping(t_bytes32,t_address)"
					},
					{
						"astId": 2231,
						"contract": "profile-fees-getter.sol:LocalOpenWorkV2",
						"label": "requestNonce",
						"offset": 0,
						"slot": "4",
						"type": "t_uint256"
					},
					{
						"astId": 2250,
						"contract": "profile-fees-getter.sol:LocalOpenWorkV2",
						"label": "cachedProfiles",
						"offset": 0,
						"slot": "5",
						"type": "t_mapping(t_uint256,t_struct(CachedProfile)2245_storage)"
					}
				],
				"types": {
					"t_address": {
						"encoding": "inplace",
						"label": "address",
						"numberOfBytes": "20"
					},
					"t_array(t_string_storage)dyn_storage": {
						"base": "t_string_storage",
						"encoding": "dynamic_array",
						"label": "string[]",
						"numberOfBytes": "32"
					},
					"t_bool": {
						"encoding": "inplace",
						"label": "bool",
						"numberOfBytes": "1"
					},
					"t_bytes32": {
						"encoding": "inplace",
						"label": "bytes32",
						"numberOfBytes": "32"
					},
					"t_mapping(t_bytes32,t_address)": {
						"encoding": "mapping",
						"key": "t_bytes32",
						"label": "mapping(bytes32 => address)",
						"numberOfBytes": "32",
						"value": "t_address"
					},
					"t_mapping(t_uint256,t_struct(CachedProfile)2245_storage)": {
						"encoding": "mapping",
						"key": "t_uint256",
						"label": "mapping(uint256 => struct LocalOpenWorkV2.CachedProfile)",
						"numberOfBytes": "32",
						"value": "t_struct(CachedProfile)2245_storage"
					},
					"t_mapping(t_uint32,t_bytes32)": {
						"encoding": "mapping",
						"key": "t_uint32",
						"label": "mapping(uint32 => bytes32)",
						"numberOfBytes": "32",
						"value": "t_bytes32"
					},
					"t_string_storage": {
						"encoding": "bytes",
						"label": "string",
						"numberOfBytes": "32"
					},
					"t_struct(CachedProfile)2245_storage": {
						"encoding": "inplace",
						"label": "struct LocalOpenWorkV2.CachedProfile",
						"members": [
							{
								"astId": 2233,
								"contract": "profile-fees-getter.sol:LocalOpenWorkV2",
								"label": "user",
								"offset": 0,
								"slot": "0",
								"type": "t_address"
							},
							{
								"astId": 2235,
								"contract": "profile-fees-getter.sol:LocalOpenWorkV2",
								"label": "name",
								"offset": 0,
								"slot": "1",
								"type": "t_string_storage"
							},
							{
								"astId": 2238,
								"contract": "profile-fees-getter.sol:LocalOpenWorkV2",
								"label": "skills",
								"offset": 0,
								"slot": "2",
								"type": "t_array(t_string_storage)dyn_storage"
							},
							{
								"astId": 2240,
								"contract": "profile-fees-getter.sol:LocalOpenWorkV2",
								"label": "profileHash",
								"offset": 0,
								"slot": "3",
								"type": "t_string_storage"
							},
							{
								"astId": 2242,
								"contract": "profile-fees-getter.sol:LocalOpenWorkV2",
								"label": "createdAt",
								"offset": 0,
								"slot": "4",
								"type": "t_uint256"
							},
							{
								"astId": 2244,
								"contract": "profile-fees-getter.sol:LocalOpenWorkV2",
								"label": "exists",
								"offset": 0,
								"slot": "5",
								"type": "t_bool"
							}
						],
						"numberOfBytes": "192"
					},
					"t_uint256": {
						"encoding": "inplace",
						"label": "uint256",
						"numberOfBytes": "32"
					},
					"t_uint32": {
						"encoding": "inplace",
						"label": "uint32",
						"numberOfBytes": "4"
					}
				}
			},
			"userdoc": {
				"kind": "user",
				"methods": {
					"allowInitializePath((uint32,bytes32,uint64))": {
						"notice": "Checks if the path initialization is allowed based on the provided origin."
					},
					"endpoint()": {
						"notice": "Retrieves the LayerZero endpoint associated with the OApp."
					},
					"isComposeMsgSender((uint32,bytes32,uint64),bytes,address)": {
						"notice": "Indicates whether an address is an approved composeMsg sender to the Endpoint."
					},
					"nextNonce(uint32,bytes32)": {
						"notice": "Retrieves the next nonce for a given source endpoint and sender address."
					},
					"oAppVersion()": {
						"notice": "Retrieves the OApp version information."
					},
					"peers(uint32)": {
						"notice": "Retrieves the peer (OApp) associated with a corresponding endpoint."
					},
					"setDelegate(address)": {
						"notice": "Sets the delegate address for the OApp."
					},
					"setPeer(uint32,bytes32)": {
						"notice": "Sets the peer address (OApp instance) for a corresponding endpoint."
					}
				},
				"version": 1
			}
		}
	}
}