{
	"test2.sol": {
		"ValueUpdater": {
			"abi": [
				{
					"inputs": [
						{
							"internalType": "address",
							"name": "_sharedValueAddress",
							"type": "address"
						}
					],
					"stateMutability": "nonpayable",
					"type": "constructor"
				},
				{
					"inputs": [],
					"name": "sharedValueContract",
					"outputs": [
						{
							"internalType": "contract ISharedValue",
							"name": "",
							"type": "address"
						}
					],
					"stateMutability": "view",
					"type": "function"
				},
				{
					"inputs": [
						{
							"internalType": "uint256",
							"name": "newValue",
							"type": "uint256"
						}
					],
					"name": "updateSharedValue",
					"outputs": [],
					"stateMutability": "nonpayable",
					"type": "function"
				}
			],
			"devdoc": {
				"kind": "dev",
				"methods": {},
				"version": 1
			},
			"evm": {
				"assembly": "    /* \"test2.sol\":135:437  contract ValueUpdater {... */\n  mstore(0x40, 0x80)\n    /* \"test2.sol\":209:322  constructor(address _sharedValueAddress) {... */\n  callvalue\n  dup1\n  iszero\n  tag_1\n  jumpi\n  0x00\n  dup1\n  revert\ntag_1:\n  pop\n  mload(0x40)\n  sub(codesize, bytecodeSize)\n  dup1\n  bytecodeSize\n  dup4\n  codecopy\n  dup2\n  add\n  0x40\n  dup2\n  swap1\n  mstore\n  tag_2\n  swap2\n  tag_3\n  jump\t// in\ntag_2:\n    /* \"test2.sol\":260:279  sharedValueContract */\n  0x00\n    /* \"test2.sol\":260:315  sharedValueContract = ISharedValue(_sharedValueAddress) */\n  dup1\n  sload\n  not(sub(shl(0xa0, 0x01), 0x01))\n  and\n  sub(shl(0xa0, 0x01), 0x01)\n  swap3\n  swap1\n  swap3\n  and\n  swap2\n  swap1\n  swap2\n  or\n  swap1\n  sstore\n    /* \"test2.sol\":135:437  contract ValueUpdater {... */\n  jump(tag_7)\n    /* \"#utility.yul\":14:304   */\ntag_3:\n    /* \"#utility.yul\":84:90   */\n  0x00\n    /* \"#utility.yul\":137:139   */\n  0x20\n    /* \"#utility.yul\":125:134   */\n  dup3\n    /* \"#utility.yul\":116:123   */\n  dup5\n    /* \"#utility.yul\":112:135   */\n  sub\n    /* \"#utility.yul\":108:140   */\n  slt\n    /* \"#utility.yul\":105:157   */\n  iszero\n  tag_9\n  jumpi\n    /* \"#utility.yul\":153:154   */\n  0x00\n    /* \"#utility.yul\":150:151   */\n  dup1\n    /* \"#utility.yul\":143:155   */\n  revert\n    /* \"#utility.yul\":105:157   */\ntag_9:\n    /* \"#utility.yul\":179:195   */\n  dup2\n  mload\n  sub(shl(0xa0, 0x01), 0x01)\n    /* \"#utility.yul\":224:255   */\n  dup2\n  and\n    /* \"#utility.yul\":214:256   */\n  dup2\n  eq\n    /* \"#utility.yul\":204:274   */\n  tag_10\n  jumpi\n    /* \"#utility.yul\":270:271   */\n  0x00\n    /* \"#utility.yul\":267:268   */\n  dup1\n    /* \"#utility.yul\":260:272   */\n  revert\n    /* \"#utility.yul\":204:274   */\ntag_10:\n    /* \"#utility.yul\":293:298   */\n  swap4\n    /* \"#utility.yul\":14:304   */\n  swap3\n  pop\n  pop\n  pop\n  jump\t// out\ntag_7:\n    /* \"test2.sol\":135:437  contract ValueUpdater {... */\n  dataSize(sub_0)\n  dup1\n  dataOffset(sub_0)\n  0x00\n  codecopy\n  0x00\n  return\nstop\n\nsub_0: assembly {\n        /* \"test2.sol\":135:437  contract ValueUpdater {... */\n      mstore(0x40, 0x80)\n      callvalue\n      dup1\n      iszero\n      tag_1\n      jumpi\n      0x00\n      dup1\n      revert\n    tag_1:\n      pop\n      jumpi(tag_2, lt(calldatasize, 0x04))\n      shr(0xe0, calldataload(0x00))\n      dup1\n      0x73d4bfe9\n      eq\n      tag_3\n      jumpi\n      dup1\n      0x97fe4a3d\n      eq\n      tag_4\n      jumpi\n    tag_2:\n      0x00\n      dup1\n      revert\n        /* \"test2.sol\":163:202  ISharedValue public sharedValueContract */\n    tag_3:\n      sload(0x00)\n      tag_5\n      swap1\n      sub(shl(0xa0, 0x01), 0x01)\n      and\n      dup2\n      jump\n    tag_5:\n      mload(0x40)\n      sub(shl(0xa0, 0x01), 0x01)\n        /* \"#utility.yul\":196:251   */\n      swap1\n      swap2\n      and\n        /* \"#utility.yul\":178:252   */\n      dup2\n      mstore\n        /* \"#utility.yul\":166:168   */\n      0x20\n        /* \"#utility.yul\":151:169   */\n      add\n        /* \"test2.sol\":163:202  ISharedValue public sharedValueContract */\n      mload(0x40)\n      dup1\n      swap2\n      sub\n      swap1\n      return\n        /* \"test2.sol\":328:435  function updateSharedValue(uint newValue) public {... */\n    tag_4:\n      tag_9\n      tag_10\n      calldatasize\n      0x04\n      tag_11\n      jump\t// in\n    tag_10:\n      tag_12\n      jump\t// in\n    tag_9:\n      stop\n    tag_12:\n        /* \"test2.sol\":387:406  sharedValueContract */\n      sload(0x00)\n        /* \"test2.sol\":387:428  sharedValueContract.updateValue(newValue) */\n      mload(0x40)\n      shl(0xe0, 0x573c0bd3)\n      dup2\n      mstore\n      0x04\n      dup2\n      add\n        /* \"#utility.yul\":594:619   */\n      dup4\n      swap1\n      mstore\n      sub(shl(0xa0, 0x01), 0x01)\n        /* \"test2.sol\":387:406  sharedValueContract */\n      swap1\n      swap2\n      and\n      swap1\n        /* \"test2.sol\":387:418  sharedValueContract.updateValue */\n      0x573c0bd3\n      swap1\n        /* \"#utility.yul\":567:585   */\n      0x24\n      add\n        /* \"test2.sol\":387:428  sharedValueContract.updateValue(newValue) */\n      0x00\n      mload(0x40)\n      dup1\n      dup4\n      sub\n      dup2\n      0x00\n      dup8\n      dup1\n      extcodesize\n      iszero\n      dup1\n      iszero\n      tag_16\n      jumpi\n      0x00\n      dup1\n      revert\n    tag_16:\n      pop\n      gas\n      call\n      iszero\n      dup1\n      iszero\n      tag_18\n      jumpi\n      returndatasize\n      0x00\n      dup1\n      returndatacopy\n      revert(0x00, returndatasize)\n    tag_18:\n      pop\n      pop\n      pop\n      pop\n        /* \"test2.sol\":328:435  function updateSharedValue(uint newValue) public {... */\n      pop\n      jump\t// out\n        /* \"#utility.yul\":263:443   */\n    tag_11:\n        /* \"#utility.yul\":322:328   */\n      0x00\n        /* \"#utility.yul\":375:377   */\n      0x20\n        /* \"#utility.yul\":363:372   */\n      dup3\n        /* \"#utility.yul\":354:361   */\n      dup5\n        /* \"#utility.yul\":350:373   */\n      sub\n        /* \"#utility.yul\":346:378   */\n      slt\n        /* \"#utility.yul\":343:395   */\n      iszero\n      tag_22\n      jumpi\n        /* \"#utility.yul\":391:392   */\n      0x00\n        /* \"#utility.yul\":388:389   */\n      dup1\n        /* \"#utility.yul\":381:393   */\n      revert\n        /* \"#utility.yul\":343:395   */\n    tag_22:\n      pop\n        /* \"#utility.yul\":414:437   */\n      calldataload\n      swap2\n        /* \"#utility.yul\":263:443   */\n      swap1\n      pop\n      jump\t// out\n\n    auxdata: 0xa26469706673582212202101b906b3cff03cfc664ef0411439acaf5b3673031a95b5ef15b2782c65252264736f6c634300081c0033\n}\n",
				"bytecode": {
					"linkReferences": {},
					"object": "6080604052348015600f57600080fd5b506040516101b03803806101b0833981016040819052602c916050565b600080546001600160a01b0319166001600160a01b0392909216919091179055607e565b600060208284031215606157600080fd5b81516001600160a01b0381168114607757600080fd5b9392505050565b6101238061008d6000396000f3fe6080604052348015600f57600080fd5b506004361060325760003560e01c806373d4bfe914603757806397fe4a3d146065575b600080fd5b6000546049906001600160a01b031681565b6040516001600160a01b03909116815260200160405180910390f35b6074607036600460d5565b6076565b005b60005460405163573c0bd360e01b8152600481018390526001600160a01b039091169063573c0bd390602401600060405180830381600087803b15801560bb57600080fd5b505af115801560ce573d6000803e3d6000fd5b5050505050565b60006020828403121560e657600080fd5b503591905056fea26469706673582212202101b906b3cff03cfc664ef0411439acaf5b3673031a95b5ef15b2782c65252264736f6c634300081c0033",
					"opcodes": "PUSH1 0x80 PUSH1 0x40 MSTORE CALLVALUE DUP1 ISZERO PUSH1 0xF JUMPI PUSH1 0x0 DUP1 REVERT JUMPDEST POP PUSH1 0x40 MLOAD PUSH2 0x1B0 CODESIZE SUB DUP1 PUSH2 0x1B0 DUP4 CODECOPY DUP2 ADD PUSH1 0x40 DUP2 SWAP1 MSTORE PUSH1 0x2C SWAP2 PUSH1 0x50 JUMP JUMPDEST PUSH1 0x0 DUP1 SLOAD PUSH1 0x1 PUSH1 0x1 PUSH1 0xA0 SHL SUB NOT AND PUSH1 0x1 PUSH1 0x1 PUSH1 0xA0 SHL SUB SWAP3 SWAP1 SWAP3 AND SWAP2 SWAP1 SWAP2 OR SWAP1 SSTORE PUSH1 0x7E JUMP JUMPDEST PUSH1 0x0 PUSH1 0x20 DUP3 DUP5 SUB SLT ISZERO PUSH1 0x61 JUMPI PUSH1 0x0 DUP1 REVERT JUMPDEST DUP2 MLOAD PUSH1 0x1 PUSH1 0x1 PUSH1 0xA0 SHL SUB DUP2 AND DUP2 EQ PUSH1 0x77 JUMPI PUSH1 0x0 DUP1 REVERT JUMPDEST SWAP4 SWAP3 POP POP POP JUMP JUMPDEST PUSH2 0x123 DUP1 PUSH2 0x8D PUSH1 0x0 CODECOPY PUSH1 0x0 RETURN INVALID PUSH1 0x80 PUSH1 0x40 MSTORE CALLVALUE DUP1 ISZERO PUSH1 0xF JUMPI PUSH1 0x0 DUP1 REVERT JUMPDEST POP PUSH1 0x4 CALLDATASIZE LT PUSH1 0x32 JUMPI PUSH1 0x0 CALLDATALOAD PUSH1 0xE0 SHR DUP1 PUSH4 0x73D4BFE9 EQ PUSH1 0x37 JUMPI DUP1 PUSH4 0x97FE4A3D EQ PUSH1 0x65 JUMPI JUMPDEST PUSH1 0x0 DUP1 REVERT JUMPDEST PUSH1 0x0 SLOAD PUSH1 0x49 SWAP1 PUSH1 0x1 PUSH1 0x1 PUSH1 0xA0 SHL SUB AND DUP2 JUMP JUMPDEST PUSH1 0x40 MLOAD PUSH1 0x1 PUSH1 0x1 PUSH1 0xA0 SHL SUB SWAP1 SWAP2 AND DUP2 MSTORE PUSH1 0x20 ADD PUSH1 0x40 MLOAD DUP1 SWAP2 SUB SWAP1 RETURN JUMPDEST PUSH1 0x74 PUSH1 0x70 CALLDATASIZE PUSH1 0x4 PUSH1 0xD5 JUMP JUMPDEST PUSH1 0x76 JUMP JUMPDEST STOP JUMPDEST PUSH1 0x0 SLOAD PUSH1 0x40 MLOAD PUSH4 0x573C0BD3 PUSH1 0xE0 SHL DUP2 MSTORE PUSH1 0x4 DUP2 ADD DUP4 SWAP1 MSTORE PUSH1 0x1 PUSH1 0x1 PUSH1 0xA0 SHL SUB SWAP1 SWAP2 AND SWAP1 PUSH4 0x573C0BD3 SWAP1 PUSH1 0x24 ADD PUSH1 0x0 PUSH1 0x40 MLOAD DUP1 DUP4 SUB DUP2 PUSH1 0x0 DUP8 DUP1 EXTCODESIZE ISZERO DUP1 ISZERO PUSH1 0xBB JUMPI PUSH1 0x0 DUP1 REVERT JUMPDEST POP GAS CALL ISZERO DUP1 ISZERO PUSH1 0xCE JUMPI RETURNDATASIZE PUSH1 0x0 DUP1 RETURNDATACOPY RETURNDATASIZE PUSH1 0x0 REVERT JUMPDEST POP POP POP POP POP JUMP JUMPDEST PUSH1 0x0 PUSH1 0x20 DUP3 DUP5 SUB SLT ISZERO PUSH1 0xE6 JUMPI PUSH1 0x0 DUP1 REVERT JUMPDEST POP CALLDATALOAD SWAP2 SWAP1 POP JUMP INVALID LOG2 PUSH5 0x6970667358 0x22 SLT KECCAK256 0x21 ADD 0xB9 MOD 0xB3 0xCF CREATE EXTCODECOPY 0xFC PUSH7 0x4EF0411439ACAF JUMPDEST CALLDATASIZE PUSH20 0x31A95B5EF15B2782C65252264736F6C63430008 SHR STOP CALLER "
				},
				"gasEstimates": {
					"creation": {
						"codeDepositCost": "58200",
						"executionCost": "infinite",
						"totalCost": "infinite"
					},
					"external": {
						"sharedValueContract()": "2303",
						"updateSharedValue(uint256)": "infinite"
					}
				},
				"methodIdentifiers": {
					"sharedValueContract()": "73d4bfe9",
					"updateSharedValue(uint256)": "97fe4a3d"
				}
			},
			"storageLayout": {
				"storage": [
					{
						"astId": 10,
						"contract": "test2.sol:ValueUpdater",
						"label": "sharedValueContract",
						"offset": 0,
						"slot": "0",
						"type": "t_contract(ISharedValue)7"
					}
				],
				"types": {
					"t_contract(ISharedValue)7": {
						"encoding": "inplace",
						"label": "contract ISharedValue",
						"numberOfBytes": "20"
					}
				}
			},
			"userdoc": {
				"kind": "user",
				"methods": {},
				"version": 1
			}
		}
	}
}