{
	"Arbitrum_sende.sol": {
		"ArbitrumSender": {
			"abi": [
				{
					"inputs": [
						{
							"internalType": "address",
							"name": "_endpoint",
							"type": "address"
						},
						{
							"internalType": "address",
							"name": "_owner",
							"type": "address"
						}
					],
					"stateMutability": "nonpayable",
					"type": "constructor"
				},
				{
					"inputs": [],
					"name": "InvalidDelegate",
					"type": "error"
				},
				{
					"inputs": [],
					"name": "InvalidEndpointCall",
					"type": "error"
				},
				{
					"inputs": [],
					"name": "LzTokenUnavailable",
					"type": "error"
				},
				{
					"inputs": [
						{
							"internalType": "uint32",
							"name": "eid",
							"type": "uint32"
						}
					],
					"name": "NoPeer",
					"type": "error"
				},
				{
					"inputs": [
						{
							"internalType": "uint256",
							"name": "msgValue",
							"type": "uint256"
						}
					],
					"name": "NotEnoughNative",
					"type": "error"
				},
				{
					"inputs": [
						{
							"internalType": "address",
							"name": "addr",
							"type": "address"
						}
					],
					"name": "OnlyEndpoint",
					"type": "error"
				},
				{
					"inputs": [
						{
							"internalType": "uint32",
							"name": "eid",
							"type": "uint32"
						},
						{
							"internalType": "bytes32",
							"name": "sender",
							"type": "bytes32"
						}
					],
					"name": "OnlyPeer",
					"type": "error"
				},
				{
					"inputs": [
						{
							"internalType": "address",
							"name": "owner",
							"type": "address"
						}
					],
					"name": "OwnableInvalidOwner",
					"type": "error"
				},
				{
					"inputs": [
						{
							"internalType": "address",
							"name": "account",
							"type": "address"
						}
					],
					"name": "OwnableUnauthorizedAccount",
					"type": "error"
				},
				{
					"inputs": [
						{
							"internalType": "address",
							"name": "token",
							"type": "address"
						}
					],
					"name": "SafeERC20FailedOperation",
					"type": "error"
				},
				{
					"anonymous": false,
					"inputs": [
						{
							"indexed": true,
							"internalType": "uint32",
							"name": "srcEid",
							"type": "uint32"
						},
						{
							"indexed": true,
							"internalType": "bytes32",
							"name": "guid",
							"type": "bytes32"
						},
						{
							"indexed": false,
							"internalType": "string",
							"name": "message",
							"type": "string"
						}
					],
					"name": "MessageReceived",
					"type": "event"
				},
				{
					"anonymous": false,
					"inputs": [
						{
							"indexed": true,
							"internalType": "uint32",
							"name": "dstEid",
							"type": "uint32"
						},
						{
							"indexed": true,
							"internalType": "bytes32",
							"name": "guid",
							"type": "bytes32"
						},
						{
							"indexed": false,
							"internalType": "string",
							"name": "message",
							"type": "string"
						},
						{
							"indexed": false,
							"internalType": "uint256",
							"name": "fee",
							"type": "uint256"
						}
					],
					"name": "MessageSent",
					"type": "event"
				},
				{
					"anonymous": false,
					"inputs": [
						{
							"indexed": true,
							"internalType": "address",
							"name": "previousOwner",
							"type": "address"
						},
						{
							"indexed": true,
							"internalType": "address",
							"name": "newOwner",
							"type": "address"
						}
					],
					"name": "OwnershipTransferred",
					"type": "event"
				},
				{
					"anonymous": false,
					"inputs": [
						{
							"indexed": false,
							"internalType": "uint32",
							"name": "eid",
							"type": "uint32"
						},
						{
							"indexed": false,
							"internalType": "bytes32",
							"name": "peer",
							"type": "bytes32"
						}
					],
					"name": "PeerSet",
					"type": "event"
				},
				{
					"inputs": [
						{
							"components": [
								{
									"internalType": "uint32",
									"name": "srcEid",
									"type": "uint32"
								},
								{
									"internalType": "bytes32",
									"name": "sender",
									"type": "bytes32"
								},
								{
									"internalType": "uint64",
									"name": "nonce",
									"type": "uint64"
								}
							],
							"internalType": "struct Origin",
							"name": "origin",
							"type": "tuple"
						}
					],
					"name": "allowInitializePath",
					"outputs": [
						{
							"internalType": "bool",
							"name": "",
							"type": "bool"
						}
					],
					"stateMutability": "view",
					"type": "function"
				},
				{
					"inputs": [],
					"name": "endpoint",
					"outputs": [
						{
							"internalType": "contract ILayerZeroEndpointV2",
							"name": "",
							"type": "address"
						}
					],
					"stateMutability": "view",
					"type": "function"
				},
				{
					"inputs": [],
					"name": "getLastSentMessage",
					"outputs": [
						{
							"internalType": "string",
							"name": "",
							"type": "string"
						}
					],
					"stateMutability": "view",
					"type": "function"
				},
				{
					"inputs": [
						{
							"components": [
								{
									"internalType": "uint32",
									"name": "srcEid",
									"type": "uint32"
								},
								{
									"internalType": "bytes32",
									"name": "sender",
									"type": "bytes32"
								},
								{
									"internalType": "uint64",
									"name": "nonce",
									"type": "uint64"
								}
							],
							"internalType": "struct Origin",
							"name": "",
							"type": "tuple"
						},
						{
							"internalType": "bytes",
							"name": "",
							"type": "bytes"
						},
						{
							"internalType": "address",
							"name": "_sender",
							"type": "address"
						}
					],
					"name": "isComposeMsgSender",
					"outputs": [
						{
							"internalType": "bool",
							"name": "",
							"type": "bool"
						}
					],
					"stateMutability": "view",
					"type": "function"
				},
				{
					"inputs": [
						{
							"components": [
								{
									"internalType": "uint32",
									"name": "srcEid",
									"type": "uint32"
								},
								{
									"internalType": "bytes32",
									"name": "sender",
									"type": "bytes32"
								},
								{
									"internalType": "uint64",
									"name": "nonce",
									"type": "uint64"
								}
							],
							"internalType": "struct Origin",
							"name": "_origin",
							"type": "tuple"
						},
						{
							"internalType": "bytes32",
							"name": "_guid",
							"type": "bytes32"
						},
						{
							"internalType": "bytes",
							"name": "_message",
							"type": "bytes"
						},
						{
							"internalType": "address",
							"name": "_executor",
							"type": "address"
						},
						{
							"internalType": "bytes",
							"name": "_extraData",
							"type": "bytes"
						}
					],
					"name": "lzReceive",
					"outputs": [],
					"stateMutability": "payable",
					"type": "function"
				},
				{
					"inputs": [],
					"name": "messageCounter",
					"outputs": [
						{
							"internalType": "uint256",
							"name": "",
							"type": "uint256"
						}
					],
					"stateMutability": "view",
					"type": "function"
				},
				{
					"inputs": [
						{
							"internalType": "uint32",
							"name": "",
							"type": "uint32"
						},
						{
							"internalType": "bytes32",
							"name": "",
							"type": "bytes32"
						}
					],
					"name": "nextNonce",
					"outputs": [
						{
							"internalType": "uint64",
							"name": "nonce",
							"type": "uint64"
						}
					],
					"stateMutability": "view",
					"type": "function"
				},
				{
					"inputs": [],
					"name": "oAppVersion",
					"outputs": [
						{
							"internalType": "uint64",
							"name": "senderVersion",
							"type": "uint64"
						},
						{
							"internalType": "uint64",
							"name": "receiverVersion",
							"type": "uint64"
						}
					],
					"stateMutability": "pure",
					"type": "function"
				},
				{
					"inputs": [],
					"name": "owner",
					"outputs": [
						{
							"internalType": "address",
							"name": "",
							"type": "address"
						}
					],
					"stateMutability": "view",
					"type": "function"
				},
				{
					"inputs": [
						{
							"internalType": "uint32",
							"name": "eid",
							"type": "uint32"
						}
					],
					"name": "peers",
					"outputs": [
						{
							"internalType": "bytes32",
							"name": "peer",
							"type": "bytes32"
						}
					],
					"stateMutability": "view",
					"type": "function"
				},
				{
					"inputs": [
						{
							"internalType": "uint32",
							"name": "_dstEid",
							"type": "uint32"
						},
						{
							"internalType": "string",
							"name": "_message",
							"type": "string"
						},
						{
							"internalType": "bytes",
							"name": "_options",
							"type": "bytes"
						},
						{
							"internalType": "bool",
							"name": "_payInLzToken",
							"type": "bool"
						}
					],
					"name": "quote",
					"outputs": [
						{
							"components": [
								{
									"internalType": "uint256",
									"name": "nativeFee",
									"type": "uint256"
								},
								{
									"internalType": "uint256",
									"name": "lzTokenFee",
									"type": "uint256"
								}
							],
							"internalType": "struct MessagingFee",
							"name": "fee",
							"type": "tuple"
						}
					],
					"stateMutability": "view",
					"type": "function"
				},
				{
					"inputs": [],
					"name": "renounceOwnership",
					"outputs": [],
					"stateMutability": "nonpayable",
					"type": "function"
				},
				{
					"inputs": [
						{
							"internalType": "uint32",
							"name": "_dstEid",
							"type": "uint32"
						},
						{
							"internalType": "string",
							"name": "_message",
							"type": "string"
						},
						{
							"internalType": "bytes",
							"name": "_options",
							"type": "bytes"
						}
					],
					"name": "sendMessage",
					"outputs": [],
					"stateMutability": "payable",
					"type": "function"
				},
				{
					"inputs": [
						{
							"internalType": "uint256",
							"name": "",
							"type": "uint256"
						}
					],
					"name": "sentMessages",
					"outputs": [
						{
							"internalType": "string",
							"name": "",
							"type": "string"
						}
					],
					"stateMutability": "view",
					"type": "function"
				},
				{
					"inputs": [
						{
							"internalType": "address",
							"name": "_delegate",
							"type": "address"
						}
					],
					"name": "setDelegate",
					"outputs": [],
					"stateMutability": "nonpayable",
					"type": "function"
				},
				{
					"inputs": [
						{
							"internalType": "uint32",
							"name": "_eid",
							"type": "uint32"
						},
						{
							"internalType": "bytes32",
							"name": "_peer",
							"type": "bytes32"
						}
					],
					"name": "setPeer",
					"outputs": [],
					"stateMutability": "nonpayable",
					"type": "function"
				},
				{
					"inputs": [
						{
							"internalType": "address",
							"name": "newOwner",
							"type": "address"
						}
					],
					"name": "transferOwnership",
					"outputs": [],
					"stateMutability": "nonpayable",
					"type": "function"
				},
				{
					"inputs": [],
					"name": "withdraw",
					"outputs": [],
					"stateMutability": "nonpayable",
					"type": "function"
				},
				{
					"stateMutability": "payable",
					"type": "receive"
				}
			],
			"devdoc": {
				"details": "LayerZero v2 OApp for sending cross-chain messages from Arbitrum to Optimism",
				"errors": {
					"OwnableInvalidOwner(address)": [
						{
							"details": "The owner is not a valid owner account. (eg. `address(0)`)"
						}
					],
					"OwnableUnauthorizedAccount(address)": [
						{
							"details": "The caller account is not authorized to perform an operation."
						}
					],
					"SafeERC20FailedOperation(address)": [
						{
							"details": "An operation with an ERC-20 token failed."
						}
					]
				},
				"kind": "dev",
				"methods": {
					"allowInitializePath((uint32,bytes32,uint64))": {
						"details": "This indicates to the endpoint that the OApp has enabled msgs for this particular path to be received.This defaults to assuming if a peer has been set, its initialized. Can be overridden by the OApp if there is other logic to determine this.",
						"params": {
							"origin": "The origin information containing the source endpoint and sender address."
						},
						"returns": {
							"_0": "Whether the path has been initialized."
						}
					},
					"getLastSentMessage()": {
						"details": "Get the last sent message",
						"returns": {
							"_0": "The last sent message"
						}
					},
					"isComposeMsgSender((uint32,bytes32,uint64),bytes,address)": {
						"details": "_origin The origin information containing the source endpoint and sender address.  - srcEid: The source chain endpoint ID.  - sender: The sender address on the src chain.  - nonce: The nonce of the message._message The lzReceive payload.Applications can optionally choose to implement separate composeMsg senders that are NOT the bridging layer.The default sender IS the OAppReceiver implementer.",
						"params": {
							"_sender": "The sender address."
						},
						"returns": {
							"_0": "isSender Is a valid sender."
						}
					},
					"lzReceive((uint32,bytes32,uint64),bytes32,bytes,address,bytes)": {
						"details": "Entry point for receiving messages or packets from the endpoint.Entry point for receiving msg/packet from the LayerZero endpoint.",
						"params": {
							"_executor": "The address of the executor for the received message.",
							"_extraData": "Additional arbitrary data provided by the corresponding executor.",
							"_guid": "The unique identifier for the received LayerZero message.",
							"_message": "The payload of the received message.",
							"_origin": "The origin information containing the source endpoint and sender address.  - srcEid: The source chain endpoint ID.  - sender: The sender address on the src chain.  - nonce: The nonce of the message."
						}
					},
					"nextNonce(uint32,bytes32)": {
						"details": "_srcEid The source endpoint ID._sender The sender address.The path nonce starts from 1. If 0 is returned it means that there is NO nonce ordered enforcement.Is required by the off-chain executor to determine the OApp expects msg execution is ordered.This is also enforced by the OApp.By default this is NOT enabled. ie. nextNonce is hardcoded to return 0.",
						"returns": {
							"nonce": "The next nonce."
						}
					},
					"oAppVersion()": {
						"returns": {
							"receiverVersion": "The version of the OAppReceiver.sol implementation.",
							"senderVersion": "The version of the OAppSender.sol implementation."
						}
					},
					"owner()": {
						"details": "Returns the address of the current owner."
					},
					"quote(uint32,string,bytes,bool)": {
						"details": "Quote the messaging fee for sending a message",
						"params": {
							"_dstEid": "The destination endpoint ID",
							"_message": "The message to send",
							"_options": "LayerZero message options",
							"_payInLzToken": "Whether to pay in LZ token"
						},
						"returns": {
							"fee": "The messaging fee"
						}
					},
					"renounceOwnership()": {
						"details": "Leaves the contract without owner. It will not be possible to call `onlyOwner` functions. Can only be called by the current owner. NOTE: Renouncing ownership will leave the contract without an owner, thereby disabling any functionality that is only available to the owner."
					},
					"sendMessage(uint32,string,bytes)": {
						"details": "Send a cross-chain message to Optimism",
						"params": {
							"_dstEid": "The destination endpoint ID (Optimism)",
							"_message": "The message to send",
							"_options": "LayerZero message options"
						}
					},
					"setDelegate(address)": {
						"details": "Only the owner/admin of the OApp can call this function.Provides the ability for a delegate to set configs, on behalf of the OApp, directly on the Endpoint contract.",
						"params": {
							"_delegate": "The address of the delegate to be set."
						}
					},
					"setPeer(uint32,bytes32)": {
						"details": "Only the owner/admin of the OApp can call this function.Indicates that the peer is trusted to send LayerZero messages to this OApp.Set this to bytes32(0) to remove the peer address.Peer is a bytes32 to accommodate non-evm chains.",
						"params": {
							"_eid": "The endpoint ID.",
							"_peer": "The address of the peer to be associated with the corresponding endpoint."
						}
					},
					"transferOwnership(address)": {
						"details": "Transfers ownership of the contract to a new account (`newOwner`). Can only be called by the current owner."
					},
					"withdraw()": {
						"details": "Withdraw contract balance (owner only)"
					}
				},
				"title": "ArbitrumSender",
				"version": 1
			},
			"evm": {
				"assembly": "    /* \"Arbitrum_sende.sol\":431:4220  contract ArbitrumSender is OApp {... */\n  mstore(0x40, 0xa0)\n    /* \"Arbitrum_sende.sol\":1010:1166  constructor(... */\n  callvalue\n  dup1\n  iszero\n  tag_1\n  jumpi\n  0x00\n  dup1\n  revert\ntag_1:\n  pop\n  mload(0x40)\n  sub(codesize, bytecodeSize)\n  dup1\n  bytecodeSize\n  dup4\n  codecopy\n  dup2\n  dup2\n  add\n  0x40\n  mstore\n  dup2\n  add\n  swap1\n  tag_2\n  swap2\n  swap1\n  tag_3\n  jump\t// in\ntag_2:\n    /* \"Arbitrum_sende.sol\":1084:1093  _endpoint */\n  dup2\n    /* \"Arbitrum_sende.sol\":1095:1101  _owner */\n  dup2\n    /* \"@layerzerolabs/oapp-evm/contracts/oapp/OApp.sol\":1024:1033  _endpoint */\n  dup2\n    /* \"@layerzerolabs/oapp-evm/contracts/oapp/OApp.sol\":1035:1044  _delegate */\n  dup2\n    /* \"Arbitrum_sende.sol\":1111:1121  msg.sender */\n  caller\n    /* \"@openzeppelin/contracts/access/Ownable.sol\":1297:1298  0 */\n  0x00\n    /* \"@openzeppelin/contracts/access/Ownable.sol\":1273:1299  initialOwner == address(0) */\n  0xffffffffffffffffffffffffffffffffffffffff\n  and\n    /* \"@openzeppelin/contracts/access/Ownable.sol\":1273:1285  initialOwner */\n  dup2\n    /* \"@openzeppelin/contracts/access/Ownable.sol\":1273:1299  initialOwner == address(0) */\n  0xffffffffffffffffffffffffffffffffffffffff\n  and\n  sub\n    /* \"@openzeppelin/contracts/access/Ownable.sol\":1269:1364  if (initialOwner == address(0)) {... */\n  tag_9\n  jumpi\n    /* \"@openzeppelin/contracts/access/Ownable.sol\":1350:1351  0 */\n  0x00\n    /* \"@openzeppelin/contracts/access/Ownable.sol\":1322:1353  OwnableInvalidOwner(address(0)) */\n  mload(0x40)\n  0x1e4fbdf700000000000000000000000000000000000000000000000000000000\n  dup2\n  mstore\n  0x04\n  add\n  tag_10\n  swap2\n  swap1\n  tag_11\n  jump\t// in\ntag_10:\n  mload(0x40)\n  dup1\n  swap2\n  sub\n  swap1\n  revert\n    /* \"@openzeppelin/contracts/access/Ownable.sol\":1269:1364  if (initialOwner == address(0)) {... */\ntag_9:\n    /* \"@openzeppelin/contracts/access/Ownable.sol\":1373:1405  _transferOwnership(initialOwner) */\n  tag_12\n    /* \"@openzeppelin/contracts/access/Ownable.sol\":1392:1404  initialOwner */\n  dup2\n    /* \"@openzeppelin/contracts/access/Ownable.sol\":1373:1391  _transferOwnership */\n  shl(0x20, tag_13)\n    /* \"@openzeppelin/contracts/access/Ownable.sol\":1373:1405  _transferOwnership(initialOwner) */\n  0x20\n  shr\n  jump\t// in\ntag_12:\n    /* \"@openzeppelin/contracts/access/Ownable.sol\":1225:1412  constructor(address initialOwner) {... */\n  pop\n    /* \"@layerzerolabs/oapp-evm/contracts/oapp/OAppCore.sol\":1079:1088  _endpoint */\n  dup2\n    /* \"@layerzerolabs/oapp-evm/contracts/oapp/OAppCore.sol\":1047:1089  endpoint = ILayerZeroEndpointV2(_endpoint) */\n  0xffffffffffffffffffffffffffffffffffffffff\n  and\n  0x80\n  dup2\n  0xffffffffffffffffffffffffffffffffffffffff\n  and\n  dup2\n  mstore\n  pop\n  pop\n    /* \"@layerzerolabs/oapp-evm/contracts/oapp/OAppCore.sol\":1125:1126  0 */\n  0x00\n    /* \"@layerzerolabs/oapp-evm/contracts/oapp/OAppCore.sol\":1104:1127  _delegate == address(0) */\n  0xffffffffffffffffffffffffffffffffffffffff\n  and\n    /* \"@layerzerolabs/oapp-evm/contracts/oapp/OAppCore.sol\":1104:1113  _delegate */\n  dup2\n    /* \"@layerzerolabs/oapp-evm/contracts/oapp/OAppCore.sol\":1104:1127  _delegate == address(0) */\n  0xffffffffffffffffffffffffffffffffffffffff\n  and\n  sub\n    /* \"@layerzerolabs/oapp-evm/contracts/oapp/OAppCore.sol\":1100:1153  if (_delegate == address(0)) revert InvalidDelegate() */\n  tag_15\n  jumpi\n    /* \"@layerzerolabs/oapp-evm/contracts/oapp/OAppCore.sol\":1136:1153  InvalidDelegate() */\n  mload(0x40)\n  0xb586360400000000000000000000000000000000000000000000000000000000\n  dup2\n  mstore\n  0x04\n  add\n  mload(0x40)\n  dup1\n  swap2\n  sub\n  swap1\n  revert\n    /* \"@layerzerolabs/oapp-evm/contracts/oapp/OAppCore.sol\":1100:1153  if (_delegate == address(0)) revert InvalidDelegate() */\ntag_15:\n    /* \"@layerzerolabs/oapp-evm/contracts/oapp/OAppCore.sol\":1163:1171  endpoint */\n  mload(0x80)\n    /* \"@layerzerolabs/oapp-evm/contracts/oapp/OAppCore.sol\":1163:1183  endpoint.setDelegate */\n  0xffffffffffffffffffffffffffffffffffffffff\n  and\n  0xca5eb5e1\n    /* \"@layerzerolabs/oapp-evm/contracts/oapp/OAppCore.sol\":1184:1193  _delegate */\n  dup3\n    /* \"@layerzerolabs/oapp-evm/contracts/oapp/OAppCore.sol\":1163:1194  endpoint.setDelegate(_delegate) */\n  mload(0x40)\n  dup3\n  0xffffffff\n  and\n  0xe0\n  shl\n  dup2\n  mstore\n  0x04\n  add\n  tag_16\n  swap2\n  swap1\n  tag_11\n  jump\t// in\ntag_16:\n  0x00\n  mload(0x40)\n  dup1\n  dup4\n  sub\n  dup2\n  0x00\n  dup8\n  dup1\n  extcodesize\n  iszero\n  dup1\n  iszero\n  tag_17\n  jumpi\n  0x00\n  dup1\n  revert\ntag_17:\n  pop\n  gas\n  call\n  iszero\n  dup1\n  iszero\n  tag_19\n  jumpi\n  returndatasize\n  0x00\n  dup1\n  returndatacopy\n  revert(0x00, returndatasize)\ntag_19:\n  pop\n  pop\n  pop\n  pop\n    /* \"@layerzerolabs/oapp-evm/contracts/oapp/OAppCore.sol\":987:1201  constructor(address _endpoint, address _delegate) {... */\n  pop\n  pop\n    /* \"@layerzerolabs/oapp-evm/contracts/oapp/OApp.sol\":965:1048  constructor(address _endpoint, address _delegate) OAppCore(_endpoint, _delegate) {} */\n  pop\n  pop\n    /* \"Arbitrum_sende.sol\":1133:1159  _transferOwnership(_owner) */\n  tag_22\n    /* \"Arbitrum_sende.sol\":1152:1158  _owner */\n  dup2\n    /* \"Arbitrum_sende.sol\":1133:1151  _transferOwnership */\n  shl(0x20, tag_13)\n    /* \"Arbitrum_sende.sol\":1133:1159  _transferOwnership(_owner) */\n  0x20\n  shr\n  jump\t// in\ntag_22:\n    /* \"Arbitrum_sende.sol\":1010:1166  constructor(... */\n  pop\n  pop\n    /* \"Arbitrum_sende.sol\":431:4220  contract ArbitrumSender is OApp {... */\n  jump(tag_23)\n    /* \"@openzeppelin/contracts/access/Ownable.sol\":2912:3099  function _transferOwnership(address newOwner) internal virtual {... */\ntag_13:\n    /* \"@openzeppelin/contracts/access/Ownable.sol\":2985:3001  address oldOwner */\n  0x00\n    /* \"@openzeppelin/contracts/access/Ownable.sol\":3004:3010  _owner */\n  dup1\n  0x00\n  swap1\n  sload\n  swap1\n  0x0100\n  exp\n  swap1\n  div\n  0xffffffffffffffffffffffffffffffffffffffff\n  and\n    /* \"@openzeppelin/contracts/access/Ownable.sol\":2985:3010  address oldOwner = _owner */\n  swap1\n  pop\n    /* \"@openzeppelin/contracts/access/Ownable.sol\":3029:3037  newOwner */\n  dup2\n    /* \"@openzeppelin/contracts/access/Ownable.sol\":3020:3026  _owner */\n  0x00\n  dup1\n    /* \"@openzeppelin/contracts/access/Ownable.sol\":3020:3037  _owner = newOwner */\n  0x0100\n  exp\n  dup2\n  sload\n  dup2\n  0xffffffffffffffffffffffffffffffffffffffff\n  mul\n  not\n  and\n  swap1\n  dup4\n  0xffffffffffffffffffffffffffffffffffffffff\n  and\n  mul\n  or\n  swap1\n  sstore\n  pop\n    /* \"@openzeppelin/contracts/access/Ownable.sol\":3083:3091  newOwner */\n  dup2\n    /* \"@openzeppelin/contracts/access/Ownable.sol\":3052:3092  OwnershipTransferred(oldOwner, newOwner) */\n  0xffffffffffffffffffffffffffffffffffffffff\n  and\n    /* \"@openzeppelin/contracts/access/Ownable.sol\":3073:3081  oldOwner */\n  dup2\n    /* \"@openzeppelin/contracts/access/Ownable.sol\":3052:3092  OwnershipTransferred(oldOwner, newOwner) */\n  0xffffffffffffffffffffffffffffffffffffffff\n  and\n  0x8be0079c531659141344cd1fd0a4f28419497f9722a3daafe3b4186f6b6457e0\n  mload(0x40)\n  mload(0x40)\n  dup1\n  swap2\n  sub\n  swap1\n  log3\n    /* \"@openzeppelin/contracts/access/Ownable.sol\":2975:3099  {... */\n  pop\n    /* \"@openzeppelin/contracts/access/Ownable.sol\":2912:3099  function _transferOwnership(address newOwner) internal virtual {... */\n  pop\n  jump\t// out\n    /* \"#utility.yul\":88:205   */\ntag_26:\n    /* \"#utility.yul\":197:198   */\n  0x00\n    /* \"#utility.yul\":194:195   */\n  dup1\n    /* \"#utility.yul\":187:199   */\n  revert\n    /* \"#utility.yul\":334:460   */\ntag_28:\n    /* \"#utility.yul\":371:378   */\n  0x00\n    /* \"#utility.yul\":411:453   */\n  0xffffffffffffffffffffffffffffffffffffffff\n    /* \"#utility.yul\":404:409   */\n  dup3\n    /* \"#utility.yul\":400:454   */\n  and\n    /* \"#utility.yul\":389:454   */\n  swap1\n  pop\n    /* \"#utility.yul\":334:460   */\n  swap2\n  swap1\n  pop\n  jump\t// out\n    /* \"#utility.yul\":466:562   */\ntag_29:\n    /* \"#utility.yul\":503:510   */\n  0x00\n    /* \"#utility.yul\":532:556   */\n  tag_39\n    /* \"#utility.yul\":550:555   */\n  dup3\n    /* \"#utility.yul\":532:556   */\n  tag_28\n  jump\t// in\ntag_39:\n    /* \"#utility.yul\":521:556   */\n  swap1\n  pop\n    /* \"#utility.yul\":466:562   */\n  swap2\n  swap1\n  pop\n  jump\t// out\n    /* \"#utility.yul\":568:690   */\ntag_30:\n    /* \"#utility.yul\":641:665   */\n  tag_41\n    /* \"#utility.yul\":659:664   */\n  dup2\n    /* \"#utility.yul\":641:665   */\n  tag_29\n  jump\t// in\ntag_41:\n    /* \"#utility.yul\":634:639   */\n  dup2\n    /* \"#utility.yul\":631:666   */\n  eq\n    /* \"#utility.yul\":621:684   */\n  tag_42\n  jumpi\n    /* \"#utility.yul\":680:681   */\n  0x00\n    /* \"#utility.yul\":677:678   */\n  dup1\n    /* \"#utility.yul\":670:682   */\n  revert\n    /* \"#utility.yul\":621:684   */\ntag_42:\n    /* \"#utility.yul\":568:690   */\n  pop\n  jump\t// out\n    /* \"#utility.yul\":696:839   */\ntag_31:\n    /* \"#utility.yul\":753:758   */\n  0x00\n    /* \"#utility.yul\":784:790   */\n  dup2\n    /* \"#utility.yul\":778:791   */\n  mload\n    /* \"#utility.yul\":769:791   */\n  swap1\n  pop\n    /* \"#utility.yul\":800:833   */\n  tag_44\n    /* \"#utility.yul\":827:832   */\n  dup2\n    /* \"#utility.yul\":800:833   */\n  tag_30\n  jump\t// in\ntag_44:\n    /* \"#utility.yul\":696:839   */\n  swap3\n  swap2\n  pop\n  pop\n  jump\t// out\n    /* \"#utility.yul\":845:1352   */\ntag_3:\n    /* \"#utility.yul\":924:930   */\n  0x00\n    /* \"#utility.yul\":932:938   */\n  dup1\n    /* \"#utility.yul\":981:983   */\n  0x40\n    /* \"#utility.yul\":969:978   */\n  dup4\n    /* \"#utility.yul\":960:967   */\n  dup6\n    /* \"#utility.yul\":956:979   */\n  sub\n    /* \"#utility.yul\":952:984   */\n  slt\n    /* \"#utility.yul\":949:1068   */\n  iszero\n  tag_46\n  jumpi\n    /* \"#utility.yul\":987:1066   */\n  tag_47\n  tag_26\n  jump\t// in\ntag_47:\n    /* \"#utility.yul\":949:1068   */\ntag_46:\n    /* \"#utility.yul\":1107:1108   */\n  0x00\n    /* \"#utility.yul\":1132:1196   */\n  tag_48\n    /* \"#utility.yul\":1188:1195   */\n  dup6\n    /* \"#utility.yul\":1179:1185   */\n  dup3\n    /* \"#utility.yul\":1168:1177   */\n  dup7\n    /* \"#utility.yul\":1164:1186   */\n  add\n    /* \"#utility.yul\":1132:1196   */\n  tag_31\n  jump\t// in\ntag_48:\n    /* \"#utility.yul\":1122:1196   */\n  swap3\n  pop\n    /* \"#utility.yul\":1078:1206   */\n  pop\n    /* \"#utility.yul\":1245:1247   */\n  0x20\n    /* \"#utility.yul\":1271:1335   */\n  tag_49\n    /* \"#utility.yul\":1327:1334   */\n  dup6\n    /* \"#utility.yul\":1318:1324   */\n  dup3\n    /* \"#utility.yul\":1307:1316   */\n  dup7\n    /* \"#utility.yul\":1303:1325   */\n  add\n    /* \"#utility.yul\":1271:1335   */\n  tag_31\n  jump\t// in\ntag_49:\n    /* \"#utility.yul\":1261:1335   */\n  swap2\n  pop\n    /* \"#utility.yul\":1216:1345   */\n  pop\n    /* \"#utility.yul\":845:1352   */\n  swap3\n  pop\n  swap3\n  swap1\n  pop\n  jump\t// out\n    /* \"#utility.yul\":1358:1476   */\ntag_32:\n    /* \"#utility.yul\":1445:1469   */\n  tag_51\n    /* \"#utility.yul\":1463:1468   */\n  dup2\n    /* \"#utility.yul\":1445:1469   */\n  tag_29\n  jump\t// in\ntag_51:\n    /* \"#utility.yul\":1440:1443   */\n  dup3\n    /* \"#utility.yul\":1433:1470   */\n  mstore\n    /* \"#utility.yul\":1358:1476   */\n  pop\n  pop\n  jump\t// out\n    /* \"#utility.yul\":1482:1704   */\ntag_11:\n    /* \"#utility.yul\":1575:1579   */\n  0x00\n    /* \"#utility.yul\":1613:1615   */\n  0x20\n    /* \"#utility.yul\":1602:1611   */\n  dup3\n    /* \"#utility.yul\":1598:1616   */\n  add\n    /* \"#utility.yul\":1590:1616   */\n  swap1\n  pop\n    /* \"#utility.yul\":1626:1697   */\n  tag_53\n    /* \"#utility.yul\":1694:1695   */\n  0x00\n    /* \"#utility.yul\":1683:1692   */\n  dup4\n    /* \"#utility.yul\":1679:1696   */\n  add\n    /* \"#utility.yul\":1670:1676   */\n  dup5\n    /* \"#utility.yul\":1626:1697   */\n  tag_32\n  jump\t// in\ntag_53:\n    /* \"#utility.yul\":1482:1704   */\n  swap3\n  swap2\n  pop\n  pop\n  jump\t// out\n    /* \"Arbitrum_sende.sol\":431:4220  contract ArbitrumSender is OApp {... */\ntag_23:\n  mload(0x80)\n  codecopy(0x00, dataOffset(sub_0), dataSize(sub_0))\n  0x00\n  assignImmutable(\"0xef80077fd7ee005d1b0377e3e959eb59d0ca83c4839422f862a3540a66a91fb5\")\n  return(0x00, dataSize(sub_0))\nstop\n\nsub_0: assembly {\n        /* \"Arbitrum_sende.sol\":431:4220  contract ArbitrumSender is OApp {... */\n      mstore(0x40, 0x80)\n      jumpi(tag_1, lt(calldatasize, 0x04))\n      shr(0xe0, calldataload(0x00))\n      dup1\n      0x7d25a05e\n      gt\n      tag_21\n      jumpi\n      dup1\n      0xbc294d7d\n      gt\n      tag_22\n      jumpi\n      dup1\n      0xbc294d7d\n      eq\n      tag_16\n      jumpi\n      dup1\n      0xca5eb5e1\n      eq\n      tag_17\n      jumpi\n      dup1\n      0xf2fde38b\n      eq\n      tag_18\n      jumpi\n      dup1\n      0xf77e5dd3\n      eq\n      tag_19\n      jumpi\n      dup1\n      0xff7bd03d\n      eq\n      tag_20\n      jumpi\n      jump(tag_2)\n    tag_22:\n      dup1\n      0x7d25a05e\n      eq\n      tag_12\n      jumpi\n      dup1\n      0x82413eac\n      eq\n      tag_13\n      jumpi\n      dup1\n      0x8da5cb5b\n      eq\n      tag_14\n      jumpi\n      dup1\n      0xbb0b6a53\n      eq\n      tag_15\n      jumpi\n      jump(tag_2)\n    tag_21:\n      dup1\n      0x3fb8e2a4\n      gt\n      tag_23\n      jumpi\n      dup1\n      0x3fb8e2a4\n      eq\n      tag_7\n      jumpi\n      dup1\n      0x529c7588\n      eq\n      tag_8\n      jumpi\n      dup1\n      0x5e280f11\n      eq\n      tag_9\n      jumpi\n      dup1\n      0x715018a6\n      eq\n      tag_10\n      jumpi\n      dup1\n      0x71e2a436\n      eq\n      tag_11\n      jumpi\n      jump(tag_2)\n    tag_23:\n      dup1\n      0x13137d65\n      eq\n      tag_3\n      jumpi\n      dup1\n      0x17442b70\n      eq\n      tag_4\n      jumpi\n      dup1\n      0x3400288b\n      eq\n      tag_5\n      jumpi\n      dup1\n      0x3ccfd60b\n      eq\n      tag_6\n      jumpi\n      jump(tag_2)\n    tag_1:\n      jumpi(tag_2, calldatasize)\n      stop\n    tag_2:\n      0x00\n      dup1\n      revert\n        /* \"@layerzerolabs/oapp-evm/contracts/oapp/OAppReceiver.sol\":4368:5076  function lzReceive(... */\n    tag_3:\n      tag_26\n      0x04\n      dup1\n      calldatasize\n      sub\n      dup2\n      add\n      swap1\n      tag_27\n      swap2\n      swap1\n      tag_28\n      jump\t// in\n    tag_27:\n      tag_29\n      jump\t// in\n    tag_26:\n      stop\n        /* \"@layerzerolabs/oapp-evm/contracts/oapp/OApp.sol\":1287:1522  function oAppVersion()... */\n    tag_4:\n      callvalue\n      dup1\n      iszero\n      tag_30\n      jumpi\n      0x00\n      dup1\n      revert\n    tag_30:\n      pop\n      tag_31\n      tag_32\n      jump\t// in\n    tag_31:\n      mload(0x40)\n      tag_33\n      swap3\n      swap2\n      swap1\n      tag_34\n      jump\t// in\n    tag_33:\n      mload(0x40)\n      dup1\n      swap2\n      sub\n      swap1\n      return\n        /* \"@layerzerolabs/oapp-evm/contracts/oapp/OAppCore.sol\":1724:1832  function setPeer(uint32 _eid, bytes32 _peer) public virtual onlyOwner {... */\n    tag_5:\n      callvalue\n      dup1\n      iszero\n      tag_35\n      jumpi\n      0x00\n      dup1\n      revert\n    tag_35:\n      pop\n      tag_36\n      0x04\n      dup1\n      calldatasize\n      sub\n      dup2\n      add\n      swap1\n      tag_37\n      swap2\n      swap1\n      tag_38\n      jump\t// in\n    tag_37:\n      tag_39\n      jump\t// in\n    tag_36:\n      stop\n        /* \"Arbitrum_sende.sol\":3929:4124  function withdraw() external onlyOwner {... */\n    tag_6:\n      callvalue\n      dup1\n      iszero\n      tag_40\n      jumpi\n      0x00\n      dup1\n      revert\n    tag_40:\n      pop\n      tag_41\n      tag_42\n      jump\t// in\n    tag_41:\n      stop\n        /* \"Arbitrum_sende.sol\":3679:3856  function getLastSentMessage() external view returns (string memory) {... */\n    tag_7:\n      callvalue\n      dup1\n      iszero\n      tag_43\n      jumpi\n      0x00\n      dup1\n      revert\n    tag_43:\n      pop\n      tag_44\n      tag_45\n      jump\t// in\n    tag_44:\n      mload(0x40)\n      tag_46\n      swap2\n      swap1\n      tag_47\n      jump\t// in\n    tag_46:\n      mload(0x40)\n      dup1\n      swap2\n      sub\n      swap1\n      return\n        /* \"Arbitrum_sende.sol\":883:912  uint256 public messageCounter */\n    tag_8:\n      callvalue\n      dup1\n      iszero\n      tag_48\n      jumpi\n      0x00\n      dup1\n      revert\n    tag_48:\n      pop\n      tag_49\n      tag_50\n      jump\t// in\n    tag_49:\n      mload(0x40)\n      tag_51\n      swap2\n      swap1\n      tag_52\n      jump\t// in\n    tag_51:\n      mload(0x40)\n      dup1\n      swap2\n      sub\n      swap1\n      return\n        /* \"@layerzerolabs/oapp-evm/contracts/oapp/OAppCore.sol\":446:492  ILayerZeroEndpointV2 public immutable endpoint */\n    tag_9:\n      callvalue\n      dup1\n      iszero\n      tag_53\n      jumpi\n      0x00\n      dup1\n      revert\n    tag_53:\n      pop\n      tag_54\n      tag_55\n      jump\t// in\n    tag_54:\n      mload(0x40)\n      tag_56\n      swap2\n      swap1\n      tag_57\n      jump\t// in\n    tag_56:\n      mload(0x40)\n      dup1\n      swap2\n      sub\n      swap1\n      return\n        /* \"@openzeppelin/contracts/access/Ownable.sol\":2293:2394  function renounceOwnership() public virtual onlyOwner {... */\n    tag_10:\n      callvalue\n      dup1\n      iszero\n      tag_58\n      jumpi\n      0x00\n      dup1\n      revert\n    tag_58:\n      pop\n      tag_59\n      tag_60\n      jump\t// in\n    tag_59:\n      stop\n        /* \"Arbitrum_sende.sol\":1392:2239  function sendMessage(... */\n    tag_11:\n      tag_61\n      0x04\n      dup1\n      calldatasize\n      sub\n      dup2\n      add\n      swap1\n      tag_62\n      swap2\n      swap1\n      tag_63\n      jump\t// in\n    tag_62:\n      tag_64\n      jump\t// in\n    tag_61:\n      stop\n        /* \"@layerzerolabs/oapp-evm/contracts/oapp/OAppReceiver.sol\":3507:3635  function nextNonce(uint32 /*_srcEid*/, bytes32 /*_sender*/) public view virtual returns (uint64 nonce) {... */\n    tag_12:\n      callvalue\n      dup1\n      iszero\n      tag_65\n      jumpi\n      0x00\n      dup1\n      revert\n    tag_65:\n      pop\n      tag_66\n      0x04\n      dup1\n      calldatasize\n      sub\n      dup2\n      add\n      swap1\n      tag_67\n      swap2\n      swap1\n      tag_38\n      jump\t// in\n    tag_67:\n      tag_68\n      jump\t// in\n    tag_66:\n      mload(0x40)\n      tag_69\n      swap2\n      swap1\n      tag_70\n      jump\t// in\n    tag_69:\n      mload(0x40)\n      dup1\n      swap2\n      sub\n      swap1\n      return\n        /* \"@layerzerolabs/oapp-evm/contracts/oapp/OAppReceiver.sol\":2013:2229  function isComposeMsgSender(... */\n    tag_13:\n      callvalue\n      dup1\n      iszero\n      tag_71\n      jumpi\n      0x00\n      dup1\n      revert\n    tag_71:\n      pop\n      tag_72\n      0x04\n      dup1\n      calldatasize\n      sub\n      dup2\n      add\n      swap1\n      tag_73\n      swap2\n      swap1\n      tag_74\n      jump\t// in\n    tag_73:\n      tag_75\n      jump\t// in\n    tag_72:\n      mload(0x40)\n      tag_76\n      swap2\n      swap1\n      tag_77\n      jump\t// in\n    tag_76:\n      mload(0x40)\n      dup1\n      swap2\n      sub\n      swap1\n      return\n        /* \"@openzeppelin/contracts/access/Ownable.sol\":1638:1723  function owner() public view virtual returns (address) {... */\n    tag_14:\n      callvalue\n      dup1\n      iszero\n      tag_78\n      jumpi\n      0x00\n      dup1\n      revert\n    tag_78:\n      pop\n      tag_79\n      tag_80\n      jump\t// in\n    tag_79:\n      mload(0x40)\n      tag_81\n      swap2\n      swap1\n      tag_82\n      jump\t// in\n    tag_81:\n      mload(0x40)\n      dup1\n      swap2\n      sub\n      swap1\n      return\n        /* \"@layerzerolabs/oapp-evm/contracts/oapp/OAppCore.sol\":569:617  mapping(uint32 eid => bytes32 peer) public peers */\n    tag_15:\n      callvalue\n      dup1\n      iszero\n      tag_83\n      jumpi\n      0x00\n      dup1\n      revert\n    tag_83:\n      pop\n      tag_84\n      0x04\n      dup1\n      calldatasize\n      sub\n      dup2\n      add\n      swap1\n      tag_85\n      swap2\n      swap1\n      tag_86\n      jump\t// in\n    tag_85:\n      tag_87\n      jump\t// in\n    tag_84:\n      mload(0x40)\n      tag_88\n      swap2\n      swap1\n      tag_89\n      jump\t// in\n    tag_88:\n      mload(0x40)\n      dup1\n      swap2\n      sub\n      swap1\n      return\n        /* \"Arbitrum_sende.sol\":957:1003  mapping(uint256 => string) public sentMessages */\n    tag_16:\n      callvalue\n      dup1\n      iszero\n      tag_90\n      jumpi\n      0x00\n      dup1\n      revert\n    tag_90:\n      pop\n      tag_91\n      0x04\n      dup1\n      calldatasize\n      sub\n      dup2\n      add\n      swap1\n      tag_92\n      swap2\n      swap1\n      tag_93\n      jump\t// in\n    tag_92:\n      tag_94\n      jump\t// in\n    tag_91:\n      mload(0x40)\n      tag_95\n      swap2\n      swap1\n      tag_47\n      jump\t// in\n    tag_95:\n      mload(0x40)\n      dup1\n      swap2\n      sub\n      swap1\n      return\n        /* \"@layerzerolabs/oapp-evm/contracts/oapp/OAppCore.sol\":3252:3357  function setDelegate(address _delegate) public onlyOwner {... */\n    tag_17:\n      callvalue\n      dup1\n      iszero\n      tag_96\n      jumpi\n      0x00\n      dup1\n      revert\n    tag_96:\n      pop\n      tag_97\n      0x04\n      dup1\n      calldatasize\n      sub\n      dup2\n      add\n      swap1\n      tag_98\n      swap2\n      swap1\n      tag_99\n      jump\t// in\n    tag_98:\n      tag_100\n      jump\t// in\n    tag_97:\n      stop\n        /* \"@openzeppelin/contracts/access/Ownable.sol\":2543:2758  function transferOwnership(address newOwner) public virtual onlyOwner {... */\n    tag_18:\n      callvalue\n      dup1\n      iszero\n      tag_101\n      jumpi\n      0x00\n      dup1\n      revert\n    tag_101:\n      pop\n      tag_102\n      0x04\n      dup1\n      calldatasize\n      sub\n      dup2\n      add\n      swap1\n      tag_103\n      swap2\n      swap1\n      tag_99\n      jump\t// in\n    tag_103:\n      tag_104\n      jump\t// in\n    tag_102:\n      stop\n        /* \"Arbitrum_sende.sol\":2553:2879  function quote(... */\n    tag_19:\n      callvalue\n      dup1\n      iszero\n      tag_105\n      jumpi\n      0x00\n      dup1\n      revert\n    tag_105:\n      pop\n      tag_106\n      0x04\n      dup1\n      calldatasize\n      sub\n      dup2\n      add\n      swap1\n      tag_107\n      swap2\n      swap1\n      tag_108\n      jump\t// in\n    tag_107:\n      tag_109\n      jump\t// in\n    tag_106:\n      mload(0x40)\n      tag_110\n      swap2\n      swap1\n      tag_111\n      jump\t// in\n    tag_110:\n      mload(0x40)\n      dup1\n      swap2\n      sub\n      swap1\n      return\n        /* \"@layerzerolabs/oapp-evm/contracts/oapp/OAppReceiver.sol\":2771:2920  function allowInitializePath(Origin calldata origin) public view virtual returns (bool) {... */\n    tag_20:\n      callvalue\n      dup1\n      iszero\n      tag_112\n      jumpi\n      0x00\n      dup1\n      revert\n    tag_112:\n      pop\n      tag_113\n      0x04\n      dup1\n      calldatasize\n      sub\n      dup2\n      add\n      swap1\n      tag_114\n      swap2\n      swap1\n      tag_115\n      jump\t// in\n    tag_114:\n      tag_116\n      jump\t// in\n    tag_113:\n      mload(0x40)\n      tag_117\n      swap2\n      swap1\n      tag_77\n      jump\t// in\n    tag_117:\n      mload(0x40)\n      dup1\n      swap2\n      sub\n      swap1\n      return\n        /* \"@layerzerolabs/oapp-evm/contracts/oapp/OAppReceiver.sol\":4368:5076  function lzReceive(... */\n    tag_29:\n        /* \"@layerzerolabs/oapp-evm/contracts/oapp/OAppReceiver.sol\":4694:4704  msg.sender */\n      caller\n        /* \"@layerzerolabs/oapp-evm/contracts/oapp/OAppReceiver.sol\":4673:4704  address(endpoint) != msg.sender */\n      0xffffffffffffffffffffffffffffffffffffffff\n      and\n        /* \"@layerzerolabs/oapp-evm/contracts/oapp/OAppReceiver.sol\":4681:4689  endpoint */\n      immutable(\"0xef80077fd7ee005d1b0377e3e959eb59d0ca83c4839422f862a3540a66a91fb5\")\n        /* \"@layerzerolabs/oapp-evm/contracts/oapp/OAppReceiver.sol\":4673:4704  address(endpoint) != msg.sender */\n      0xffffffffffffffffffffffffffffffffffffffff\n      and\n      eq\n        /* \"@layerzerolabs/oapp-evm/contracts/oapp/OAppReceiver.sol\":4669:4737  if (address(endpoint) != msg.sender) revert OnlyEndpoint(msg.sender) */\n      tag_119\n      jumpi\n        /* \"@layerzerolabs/oapp-evm/contracts/oapp/OAppReceiver.sol\":4726:4736  msg.sender */\n      caller\n        /* \"@layerzerolabs/oapp-evm/contracts/oapp/OAppReceiver.sol\":4713:4737  OnlyEndpoint(msg.sender) */\n      mload(0x40)\n      0x91ac5e4f00000000000000000000000000000000000000000000000000000000\n      dup2\n      mstore\n      0x04\n      add\n      tag_120\n      swap2\n      swap1\n      tag_82\n      jump\t// in\n    tag_120:\n      mload(0x40)\n      dup1\n      swap2\n      sub\n      swap1\n      revert\n        /* \"@layerzerolabs/oapp-evm/contracts/oapp/OAppReceiver.sol\":4669:4737  if (address(endpoint) != msg.sender) revert OnlyEndpoint(msg.sender) */\n    tag_119:\n        /* \"@layerzerolabs/oapp-evm/contracts/oapp/OAppReceiver.sol\":4873:4880  _origin */\n      dup7\n        /* \"@layerzerolabs/oapp-evm/contracts/oapp/OAppReceiver.sol\":4873:4887  _origin.sender */\n      0x20\n      add\n      calldataload\n        /* \"@layerzerolabs/oapp-evm/contracts/oapp/OAppReceiver.sol\":4837:4869  _getPeerOrRevert(_origin.srcEid) */\n      tag_121\n        /* \"@layerzerolabs/oapp-evm/contracts/oapp/OAppReceiver.sol\":4854:4861  _origin */\n      dup9\n        /* \"@layerzerolabs/oapp-evm/contracts/oapp/OAppReceiver.sol\":4854:4868  _origin.srcEid */\n      0x00\n      add\n      0x20\n      dup2\n      add\n      swap1\n      tag_122\n      swap2\n      swap1\n      tag_86\n      jump\t// in\n    tag_122:\n        /* \"@layerzerolabs/oapp-evm/contracts/oapp/OAppReceiver.sol\":4837:4853  _getPeerOrRevert */\n      tag_123\n        /* \"@layerzerolabs/oapp-evm/contracts/oapp/OAppReceiver.sol\":4837:4869  _getPeerOrRevert(_origin.srcEid) */\n      jump\t// in\n    tag_121:\n        /* \"@layerzerolabs/oapp-evm/contracts/oapp/OAppReceiver.sol\":4837:4887  _getPeerOrRevert(_origin.srcEid) != _origin.sender */\n      eq\n        /* \"@layerzerolabs/oapp-evm/contracts/oapp/OAppReceiver.sol\":4833:4936  if (_getPeerOrRevert(_origin.srcEid) != _origin.sender) revert OnlyPeer(_origin.srcEid, _origin.sender) */\n      tag_124\n      jumpi\n        /* \"@layerzerolabs/oapp-evm/contracts/oapp/OAppReceiver.sol\":4905:4912  _origin */\n      dup7\n        /* \"@layerzerolabs/oapp-evm/contracts/oapp/OAppReceiver.sol\":4905:4919  _origin.srcEid */\n      0x00\n      add\n      0x20\n      dup2\n      add\n      swap1\n      tag_125\n      swap2\n      swap1\n      tag_86\n      jump\t// in\n    tag_125:\n        /* \"@layerzerolabs/oapp-evm/contracts/oapp/OAppReceiver.sol\":4921:4928  _origin */\n      dup8\n        /* \"@layerzerolabs/oapp-evm/contracts/oapp/OAppReceiver.sol\":4921:4935  _origin.sender */\n      0x20\n      add\n      calldataload\n        /* \"@layerzerolabs/oapp-evm/contracts/oapp/OAppReceiver.sol\":4896:4936  OnlyPeer(_origin.srcEid, _origin.sender) */\n      mload(0x40)\n      0xc26bebcc00000000000000000000000000000000000000000000000000000000\n      dup2\n      mstore\n      0x04\n      add\n      tag_126\n      swap3\n      swap2\n      swap1\n      tag_127\n      jump\t// in\n    tag_126:\n      mload(0x40)\n      dup1\n      swap2\n      sub\n      swap1\n      revert\n        /* \"@layerzerolabs/oapp-evm/contracts/oapp/OAppReceiver.sol\":4833:4936  if (_getPeerOrRevert(_origin.srcEid) != _origin.sender) revert OnlyPeer(_origin.srcEid, _origin.sender) */\n    tag_124:\n        /* \"@layerzerolabs/oapp-evm/contracts/oapp/OAppReceiver.sol\":5010:5069  _lzReceive(_origin, _guid, _message, _executor, _extraData) */\n      tag_128\n        /* \"@layerzerolabs/oapp-evm/contracts/oapp/OAppReceiver.sol\":5021:5028  _origin */\n      dup8\n        /* \"@layerzerolabs/oapp-evm/contracts/oapp/OAppReceiver.sol\":5030:5035  _guid */\n      dup8\n        /* \"@layerzerolabs/oapp-evm/contracts/oapp/OAppReceiver.sol\":5037:5045  _message */\n      dup8\n      dup8\n        /* \"@layerzerolabs/oapp-evm/contracts/oapp/OAppReceiver.sol\":5047:5056  _executor */\n      dup8\n        /* \"@layerzerolabs/oapp-evm/contracts/oapp/OAppReceiver.sol\":5058:5068  _extraData */\n      dup8\n      dup8\n        /* \"@layerzerolabs/oapp-evm/contracts/oapp/OAppReceiver.sol\":5010:5020  _lzReceive */\n      tag_129\n        /* \"@layerzerolabs/oapp-evm/contracts/oapp/OAppReceiver.sol\":5010:5069  _lzReceive(_origin, _guid, _message, _executor, _extraData) */\n      jump\t// in\n    tag_128:\n        /* \"@layerzerolabs/oapp-evm/contracts/oapp/OAppReceiver.sol\":4368:5076  function lzReceive(... */\n      pop\n      pop\n      pop\n      pop\n      pop\n      pop\n      pop\n      jump\t// out\n        /* \"@layerzerolabs/oapp-evm/contracts/oapp/OApp.sol\":1287:1522  function oAppVersion()... */\n    tag_32:\n        /* \"@layerzerolabs/oapp-evm/contracts/oapp/OApp.sol\":1414:1434  uint64 senderVersion */\n      0x00\n        /* \"@layerzerolabs/oapp-evm/contracts/oapp/OApp.sol\":1436:1458  uint64 receiverVersion */\n      dup1\n        /* \"@layerzerolabs/oapp-evm/contracts/oapp/OAppSender.sol\":843:844  1 */\n      0x01\n        /* \"@layerzerolabs/oapp-evm/contracts/oapp/OAppReceiver.sol\":678:679  2 */\n      0x02\n        /* \"@layerzerolabs/oapp-evm/contracts/oapp/OApp.sol\":1474:1515  return (SENDER_VERSION, RECEIVER_VERSION) */\n      swap2\n      pop\n      swap2\n      pop\n        /* \"@layerzerolabs/oapp-evm/contracts/oapp/OApp.sol\":1287:1522  function oAppVersion()... */\n      swap1\n      swap2\n      jump\t// out\n        /* \"@layerzerolabs/oapp-evm/contracts/oapp/OAppCore.sol\":1724:1832  function setPeer(uint32 _eid, bytes32 _peer) public virtual onlyOwner {... */\n    tag_39:\n        /* \"@openzeppelin/contracts/access/Ownable.sol\":1531:1544  _checkOwner() */\n      tag_132\n        /* \"@openzeppelin/contracts/access/Ownable.sol\":1531:1542  _checkOwner */\n      tag_133\n        /* \"@openzeppelin/contracts/access/Ownable.sol\":1531:1544  _checkOwner() */\n      jump\t// in\n    tag_132:\n        /* \"@layerzerolabs/oapp-evm/contracts/oapp/OAppCore.sol\":1804:1825  _setPeer(_eid, _peer) */\n      tag_135\n        /* \"@layerzerolabs/oapp-evm/contracts/oapp/OAppCore.sol\":1813:1817  _eid */\n      dup3\n        /* \"@layerzerolabs/oapp-evm/contracts/oapp/OAppCore.sol\":1819:1824  _peer */\n      dup3\n        /* \"@layerzerolabs/oapp-evm/contracts/oapp/OAppCore.sol\":1804:1812  _setPeer */\n      tag_136\n        /* \"@layerzerolabs/oapp-evm/contracts/oapp/OAppCore.sol\":1804:1825  _setPeer(_eid, _peer) */\n      jump\t// in\n    tag_135:\n        /* \"@layerzerolabs/oapp-evm/contracts/oapp/OAppCore.sol\":1724:1832  function setPeer(uint32 _eid, bytes32 _peer) public virtual onlyOwner {... */\n      pop\n      pop\n      jump\t// out\n        /* \"Arbitrum_sende.sol\":3929:4124  function withdraw() external onlyOwner {... */\n    tag_42:\n        /* \"@openzeppelin/contracts/access/Ownable.sol\":1531:1544  _checkOwner() */\n      tag_138\n        /* \"@openzeppelin/contracts/access/Ownable.sol\":1531:1542  _checkOwner */\n      tag_133\n        /* \"@openzeppelin/contracts/access/Ownable.sol\":1531:1544  _checkOwner() */\n      jump\t// in\n    tag_138:\n        /* \"Arbitrum_sende.sol\":3978:3993  uint256 balance */\n      0x00\n        /* \"Arbitrum_sende.sol\":3996:4017  address(this).balance */\n      selfbalance\n        /* \"Arbitrum_sende.sol\":3978:4017  uint256 balance = address(this).balance */\n      swap1\n      pop\n        /* \"Arbitrum_sende.sol\":4045:4046  0 */\n      0x00\n        /* \"Arbitrum_sende.sol\":4035:4042  balance */\n      dup2\n        /* \"Arbitrum_sende.sol\":4035:4046  balance > 0 */\n      gt\n        /* \"Arbitrum_sende.sol\":4027:4073  require(balance > 0, \"No balance to withdraw\") */\n      tag_140\n      jumpi\n      mload(0x40)\n      0x08c379a000000000000000000000000000000000000000000000000000000000\n      dup2\n      mstore\n      0x04\n      add\n      tag_141\n      swap1\n      tag_142\n      jump\t// in\n    tag_141:\n      mload(0x40)\n      dup1\n      swap2\n      sub\n      swap1\n      revert\n    tag_140:\n        /* \"Arbitrum_sende.sol\":4091:4098  owner() */\n      tag_143\n        /* \"Arbitrum_sende.sol\":4091:4096  owner */\n      tag_80\n        /* \"Arbitrum_sende.sol\":4091:4098  owner() */\n      jump\t// in\n    tag_143:\n        /* \"Arbitrum_sende.sol\":4083:4108  payable(owner()).transfer */\n      0xffffffffffffffffffffffffffffffffffffffff\n      and\n        /* \"Arbitrum_sende.sol\":4083:4117  payable(owner()).transfer(balance) */\n      0x08fc\n        /* \"Arbitrum_sende.sol\":4109:4116  balance */\n      dup3\n        /* \"Arbitrum_sende.sol\":4083:4117  payable(owner()).transfer(balance) */\n      swap1\n      dup2\n      iszero\n      mul\n      swap1\n      mload(0x40)\n      0x00\n      mload(0x40)\n      dup1\n      dup4\n      sub\n      dup2\n      dup6\n      dup9\n      dup9\n      call\n      swap4\n      pop\n      pop\n      pop\n      pop\n      iszero\n      dup1\n      iszero\n      tag_145\n      jumpi\n      returndatasize\n      0x00\n      dup1\n      returndatacopy\n      revert(0x00, returndatasize)\n    tag_145:\n      pop\n        /* \"Arbitrum_sende.sol\":3968:4124  {... */\n      pop\n        /* \"Arbitrum_sende.sol\":3929:4124  function withdraw() external onlyOwner {... */\n      jump\t// out\n        /* \"Arbitrum_sende.sol\":3679:3856  function getLastSentMessage() external view returns (string memory) {... */\n    tag_45:\n        /* \"Arbitrum_sende.sol\":3732:3745  string memory */\n      0x60\n        /* \"Arbitrum_sende.sol\":3782:3783  0 */\n      0x00\n        /* \"Arbitrum_sende.sol\":3765:3779  messageCounter */\n      sload(0x02)\n        /* \"Arbitrum_sende.sol\":3765:3783  messageCounter > 0 */\n      gt\n        /* \"Arbitrum_sende.sol\":3757:3804  require(messageCounter > 0, \"No messages sent\") */\n      tag_147\n      jumpi\n      mload(0x40)\n      0x08c379a000000000000000000000000000000000000000000000000000000000\n      dup2\n      mstore\n      0x04\n      add\n      tag_148\n      swap1\n      tag_149\n      jump\t// in\n    tag_148:\n      mload(0x40)\n      dup1\n      swap2\n      sub\n      swap1\n      revert\n    tag_147:\n        /* \"Arbitrum_sende.sol\":3821:3833  sentMessages */\n      0x03\n        /* \"Arbitrum_sende.sol\":3821:3849  sentMessages[messageCounter] */\n      0x00\n        /* \"Arbitrum_sende.sol\":3834:3848  messageCounter */\n      sload(0x02)\n        /* \"Arbitrum_sende.sol\":3821:3849  sentMessages[messageCounter] */\n      dup2\n      mstore\n      0x20\n      add\n      swap1\n      dup2\n      mstore\n      0x20\n      add\n      0x00\n      keccak256\n        /* \"Arbitrum_sende.sol\":3814:3849  return sentMessages[messageCounter] */\n      dup1\n      sload\n      tag_150\n      swap1\n      tag_151\n      jump\t// in\n    tag_150:\n      dup1\n      0x1f\n      add\n      0x20\n      dup1\n      swap2\n      div\n      mul\n      0x20\n      add\n      mload(0x40)\n      swap1\n      dup2\n      add\n      0x40\n      mstore\n      dup1\n      swap3\n      swap2\n      swap1\n      dup2\n      dup2\n      mstore\n      0x20\n      add\n      dup3\n      dup1\n      sload\n      tag_152\n      swap1\n      tag_151\n      jump\t// in\n    tag_152:\n      dup1\n      iszero\n      tag_153\n      jumpi\n      dup1\n      0x1f\n      lt\n      tag_154\n      jumpi\n      0x0100\n      dup1\n      dup4\n      sload\n      div\n      mul\n      dup4\n      mstore\n      swap2\n      0x20\n      add\n      swap2\n      jump(tag_153)\n    tag_154:\n      dup3\n      add\n      swap2\n      swap1\n      0x00\n      mstore\n      keccak256(0x00, 0x20)\n      swap1\n    tag_155:\n      dup2\n      sload\n      dup2\n      mstore\n      swap1\n      0x01\n      add\n      swap1\n      0x20\n      add\n      dup1\n      dup4\n      gt\n      tag_155\n      jumpi\n      dup3\n      swap1\n      sub\n      0x1f\n      and\n      dup3\n      add\n      swap2\n    tag_153:\n      pop\n      pop\n      pop\n      pop\n      pop\n      swap1\n      pop\n        /* \"Arbitrum_sende.sol\":3679:3856  function getLastSentMessage() external view returns (string memory) {... */\n      swap1\n      jump\t// out\n        /* \"Arbitrum_sende.sol\":883:912  uint256 public messageCounter */\n    tag_50:\n      sload(0x02)\n      dup2\n      jump\t// out\n        /* \"@layerzerolabs/oapp-evm/contracts/oapp/OAppCore.sol\":446:492  ILayerZeroEndpointV2 public immutable endpoint */\n    tag_55:\n      immutable(\"0xef80077fd7ee005d1b0377e3e959eb59d0ca83c4839422f862a3540a66a91fb5\")\n      dup2\n      jump\t// out\n        /* \"@openzeppelin/contracts/access/Ownable.sol\":2293:2394  function renounceOwnership() public virtual onlyOwner {... */\n    tag_60:\n        /* \"@openzeppelin/contracts/access/Ownable.sol\":1531:1544  _checkOwner() */\n      tag_157\n        /* \"@openzeppelin/contracts/access/Ownable.sol\":1531:1542  _checkOwner */\n      tag_133\n        /* \"@openzeppelin/contracts/access/Ownable.sol\":1531:1544  _checkOwner() */\n      jump\t// in\n    tag_157:\n        /* \"@openzeppelin/contracts/access/Ownable.sol\":2357:2387  _transferOwnership(address(0)) */\n      tag_159\n        /* \"@openzeppelin/contracts/access/Ownable.sol\":2384:2385  0 */\n      0x00\n        /* \"@openzeppelin/contracts/access/Ownable.sol\":2357:2375  _transferOwnership */\n      tag_160\n        /* \"@openzeppelin/contracts/access/Ownable.sol\":2357:2387  _transferOwnership(address(0)) */\n      jump\t// in\n    tag_159:\n        /* \"@openzeppelin/contracts/access/Ownable.sol\":2293:2394  function renounceOwnership() public virtual onlyOwner {... */\n      jump\t// out\n        /* \"Arbitrum_sende.sol\":1392:2239  function sendMessage(... */\n    tag_64:\n        /* \"Arbitrum_sende.sol\":1567:1588  bytes memory _payload */\n      0x00\n        /* \"Arbitrum_sende.sol\":1602:1610  _message */\n      dup5\n      dup5\n        /* \"Arbitrum_sende.sol\":1612:1622  msg.sender */\n      caller\n        /* \"Arbitrum_sende.sol\":1591:1623  abi.encode(_message, msg.sender) */\n      add(0x20, mload(0x40))\n      tag_162\n      swap4\n      swap3\n      swap2\n      swap1\n      tag_163\n      jump\t// in\n    tag_162:\n      mload(0x40)\n      0x20\n      dup2\n      dup4\n      sub\n      sub\n      dup2\n      mstore\n      swap1\n      0x40\n      mstore\n        /* \"Arbitrum_sende.sol\":1567:1623  bytes memory _payload = abi.encode(_message, msg.sender) */\n      swap1\n      pop\n        /* \"Arbitrum_sende.sol\":1677:1700  MessagingFee memory fee */\n      0x00\n        /* \"Arbitrum_sende.sol\":1703:1745  _quote(_dstEid, _payload, _options, false) */\n      tag_164\n        /* \"Arbitrum_sende.sol\":1710:1717  _dstEid */\n      dup8\n        /* \"Arbitrum_sende.sol\":1719:1727  _payload */\n      dup4\n        /* \"Arbitrum_sende.sol\":1729:1737  _options */\n      dup7\n      dup7\n        /* \"Arbitrum_sende.sol\":1703:1745  _quote(_dstEid, _payload, _options, false) */\n      dup1\n      dup1\n      0x1f\n      add\n      0x20\n      dup1\n      swap2\n      div\n      mul\n      0x20\n      add\n      mload(0x40)\n      swap1\n      dup2\n      add\n      0x40\n      mstore\n      dup1\n      swap4\n      swap3\n      swap2\n      swap1\n      dup2\n      dup2\n      mstore\n      0x20\n      add\n      dup4\n      dup4\n      dup1\n      dup3\n      dup5\n      calldatacopy\n      0x00\n      dup2\n      dup5\n      add\n      mstore\n      not(0x1f)\n      0x1f\n      dup3\n      add\n      and\n      swap1\n      pop\n      dup1\n      dup4\n      add\n      swap3\n      pop\n      pop\n      pop\n      pop\n      pop\n      pop\n      pop\n        /* \"Arbitrum_sende.sol\":1739:1744  false */\n      0x00\n        /* \"Arbitrum_sende.sol\":1703:1709  _quote */\n      tag_165\n        /* \"Arbitrum_sende.sol\":1703:1745  _quote(_dstEid, _payload, _options, false) */\n      jump\t// in\n    tag_164:\n        /* \"Arbitrum_sende.sol\":1677:1745  MessagingFee memory fee = _quote(_dstEid, _payload, _options, false) */\n      swap1\n      pop\n        /* \"Arbitrum_sende.sol\":1785:1788  fee */\n      dup1\n        /* \"Arbitrum_sende.sol\":1785:1798  fee.nativeFee */\n      0x00\n      add\n      mload\n        /* \"Arbitrum_sende.sol\":1772:1781  msg.value */\n      callvalue\n        /* \"Arbitrum_sende.sol\":1772:1798  msg.value >= fee.nativeFee */\n      lt\n      iszero\n        /* \"Arbitrum_sende.sol\":1764:1819  require(msg.value >= fee.nativeFee, \"Insufficient fee\") */\n      tag_166\n      jumpi\n      mload(0x40)\n      0x08c379a000000000000000000000000000000000000000000000000000000000\n      dup2\n      mstore\n      0x04\n      add\n      tag_167\n      swap1\n      tag_168\n      jump\t// in\n    tag_167:\n      mload(0x40)\n      dup1\n      swap2\n      sub\n      swap1\n      revert\n    tag_166:\n        /* \"Arbitrum_sende.sol\":1858:1889  MessagingReceipt memory receipt */\n      0x00\n        /* \"Arbitrum_sende.sol\":1892:2047  _lzSend(... */\n      tag_169\n        /* \"Arbitrum_sende.sol\":1913:1920  _dstEid */\n      dup9\n        /* \"Arbitrum_sende.sol\":1934:1942  _payload */\n      dup5\n        /* \"Arbitrum_sende.sol\":1956:1964  _options */\n      dup8\n      dup8\n        /* \"Arbitrum_sende.sol\":1892:2047  _lzSend(... */\n      dup1\n      dup1\n      0x1f\n      add\n      0x20\n      dup1\n      swap2\n      div\n      mul\n      0x20\n      add\n      mload(0x40)\n      swap1\n      dup2\n      add\n      0x40\n      mstore\n      dup1\n      swap4\n      swap3\n      swap2\n      swap1\n      dup2\n      dup2\n      mstore\n      0x20\n      add\n      dup4\n      dup4\n      dup1\n      dup3\n      dup5\n      calldatacopy\n      0x00\n      dup2\n      dup5\n      add\n      mstore\n      not(0x1f)\n      0x1f\n      dup3\n      add\n      and\n      swap1\n      pop\n      dup1\n      dup4\n      add\n      swap3\n      pop\n      pop\n      pop\n      pop\n      pop\n      pop\n      pop\n        /* \"Arbitrum_sende.sol\":1978:2004  MessagingFee(msg.value, 0) */\n      mload(0x40)\n      dup1\n      0x40\n      add\n      0x40\n      mstore\n      dup1\n        /* \"Arbitrum_sende.sol\":1991:2000  msg.value */\n      callvalue\n        /* \"Arbitrum_sende.sol\":1978:2004  MessagingFee(msg.value, 0) */\n      dup2\n      mstore\n      0x20\n      add\n        /* \"Arbitrum_sende.sol\":2002:2003  0 */\n      0x00\n        /* \"Arbitrum_sende.sol\":1978:2004  MessagingFee(msg.value, 0) */\n      dup2\n      mstore\n      pop\n        /* \"Arbitrum_sende.sol\":2026:2036  msg.sender */\n      caller\n        /* \"Arbitrum_sende.sol\":1892:1899  _lzSend */\n      tag_170\n        /* \"Arbitrum_sende.sol\":1892:2047  _lzSend(... */\n      jump\t// in\n    tag_169:\n        /* \"Arbitrum_sende.sol\":1858:2047  MessagingReceipt memory receipt = _lzSend(... */\n      swap1\n      pop\n        /* \"Arbitrum_sende.sol\":2092:2106  messageCounter */\n      0x02\n      0x00\n        /* \"Arbitrum_sende.sol\":2092:2108  messageCounter++ */\n      dup2\n      sload\n      dup1\n      swap3\n      swap2\n      swap1\n      tag_171\n      swap1\n      tag_172\n      jump\t// in\n    tag_171:\n      swap2\n      swap1\n      pop\n      sstore\n      pop\n        /* \"Arbitrum_sende.sol\":2149:2157  _message */\n      dup7\n      dup7\n        /* \"Arbitrum_sende.sol\":2118:2130  sentMessages */\n      0x03\n        /* \"Arbitrum_sende.sol\":2118:2146  sentMessages[messageCounter] */\n      0x00\n        /* \"Arbitrum_sende.sol\":2131:2145  messageCounter */\n      sload(0x02)\n        /* \"Arbitrum_sende.sol\":2118:2146  sentMessages[messageCounter] */\n      dup2\n      mstore\n      0x20\n      add\n      swap1\n      dup2\n      mstore\n      0x20\n      add\n      0x00\n      keccak256\n        /* \"Arbitrum_sende.sol\":2118:2157  sentMessages[messageCounter] = _message */\n      swap2\n      dup3\n      tag_173\n      swap3\n      swap2\n      swap1\n      tag_174\n      jump\t// in\n    tag_173:\n      pop\n        /* \"Arbitrum_sende.sol\":2194:2201  receipt */\n      dup1\n        /* \"Arbitrum_sende.sol\":2194:2206  receipt.guid */\n      0x00\n      add\n      mload\n        /* \"Arbitrum_sende.sol\":2185:2192  _dstEid */\n      dup9\n        /* \"Arbitrum_sende.sol\":2173:2232  MessageSent(_dstEid, receipt.guid, _message, fee.nativeFee) */\n      0xffffffff\n      and\n      0x3aee2e9f3d248dc7e0f1a5564e3bacc5c9bd7c31967d06b5c277e1a0767a6a12\n        /* \"Arbitrum_sende.sol\":2208:2216  _message */\n      dup10\n      dup10\n        /* \"Arbitrum_sende.sol\":2218:2221  fee */\n      dup7\n        /* \"Arbitrum_sende.sol\":2218:2231  fee.nativeFee */\n      0x00\n      add\n      mload\n        /* \"Arbitrum_sende.sol\":2173:2232  MessageSent(_dstEid, receipt.guid, _message, fee.nativeFee) */\n      mload(0x40)\n      tag_175\n      swap4\n      swap3\n      swap2\n      swap1\n      tag_176\n      jump\t// in\n    tag_175:\n      mload(0x40)\n      dup1\n      swap2\n      sub\n      swap1\n      log3\n        /* \"Arbitrum_sende.sol\":1527:2239  {... */\n      pop\n      pop\n      pop\n        /* \"Arbitrum_sende.sol\":1392:2239  function sendMessage(... */\n      pop\n      pop\n      pop\n      pop\n      pop\n      jump\t// out\n        /* \"@layerzerolabs/oapp-evm/contracts/oapp/OAppReceiver.sol\":3507:3635  function nextNonce(uint32 /*_srcEid*/, bytes32 /*_sender*/) public view virtual returns (uint64 nonce) {... */\n    tag_68:\n        /* \"@layerzerolabs/oapp-evm/contracts/oapp/OAppReceiver.sol\":3596:3608  uint64 nonce */\n      0x00\n        /* \"@layerzerolabs/oapp-evm/contracts/oapp/OAppReceiver.sol\":3507:3635  function nextNonce(uint32 /*_srcEid*/, bytes32 /*_sender*/) public view virtual returns (uint64 nonce) {... */\n      swap3\n      swap2\n      pop\n      pop\n      jump\t// out\n        /* \"@layerzerolabs/oapp-evm/contracts/oapp/OAppReceiver.sol\":2013:2229  function isComposeMsgSender(... */\n    tag_75:\n        /* \"@layerzerolabs/oapp-evm/contracts/oapp/OAppReceiver.sol\":2175:2179  bool */\n      0x00\n        /* \"@layerzerolabs/oapp-evm/contracts/oapp/OAppReceiver.sol\":2217:2221  this */\n      address\n        /* \"@layerzerolabs/oapp-evm/contracts/oapp/OAppReceiver.sol\":2198:2222  _sender == address(this) */\n      0xffffffffffffffffffffffffffffffffffffffff\n      and\n        /* \"@layerzerolabs/oapp-evm/contracts/oapp/OAppReceiver.sol\":2198:2205  _sender */\n      dup3\n        /* \"@layerzerolabs/oapp-evm/contracts/oapp/OAppReceiver.sol\":2198:2222  _sender == address(this) */\n      0xffffffffffffffffffffffffffffffffffffffff\n      and\n      eq\n        /* \"@layerzerolabs/oapp-evm/contracts/oapp/OAppReceiver.sol\":2191:2222  return _sender == address(this) */\n      swap1\n      pop\n        /* \"@layerzerolabs/oapp-evm/contracts/oapp/OAppReceiver.sol\":2013:2229  function isComposeMsgSender(... */\n      swap5\n      swap4\n      pop\n      pop\n      pop\n      pop\n      jump\t// out\n        /* \"@openzeppelin/contracts/access/Ownable.sol\":1638:1723  function owner() public view virtual returns (address) {... */\n    tag_80:\n        /* \"@openzeppelin/contracts/access/Ownable.sol\":1684:1691  address */\n      0x00\n        /* \"@openzeppelin/contracts/access/Ownable.sol\":1710:1716  _owner */\n      dup1\n      0x00\n      swap1\n      sload\n      swap1\n      0x0100\n      exp\n      swap1\n      div\n      0xffffffffffffffffffffffffffffffffffffffff\n      and\n        /* \"@openzeppelin/contracts/access/Ownable.sol\":1703:1716  return _owner */\n      swap1\n      pop\n        /* \"@openzeppelin/contracts/access/Ownable.sol\":1638:1723  function owner() public view virtual returns (address) {... */\n      swap1\n      jump\t// out\n        /* \"@layerzerolabs/oapp-evm/contracts/oapp/OAppCore.sol\":569:617  mapping(uint32 eid => bytes32 peer) public peers */\n    tag_87:\n      mstore(0x20, 0x01)\n      dup1\n      0x00\n      mstore\n      keccak256(0x00, 0x40)\n      0x00\n      swap2\n      pop\n      swap1\n      pop\n      sload\n      dup2\n      jump\t// out\n        /* \"Arbitrum_sende.sol\":957:1003  mapping(uint256 => string) public sentMessages */\n    tag_94:\n      mstore(0x20, 0x03)\n      dup1\n      0x00\n      mstore\n      keccak256(0x00, 0x40)\n      0x00\n      swap2\n      pop\n      swap1\n      pop\n      dup1\n      sload\n      tag_180\n      swap1\n      tag_151\n      jump\t// in\n    tag_180:\n      dup1\n      0x1f\n      add\n      0x20\n      dup1\n      swap2\n      div\n      mul\n      0x20\n      add\n      mload(0x40)\n      swap1\n      dup2\n      add\n      0x40\n      mstore\n      dup1\n      swap3\n      swap2\n      swap1\n      dup2\n      dup2\n      mstore\n      0x20\n      add\n      dup3\n      dup1\n      sload\n      tag_181\n      swap1\n      tag_151\n      jump\t// in\n    tag_181:\n      dup1\n      iszero\n      tag_182\n      jumpi\n      dup1\n      0x1f\n      lt\n      tag_183\n      jumpi\n      0x0100\n      dup1\n      dup4\n      sload\n      div\n      mul\n      dup4\n      mstore\n      swap2\n      0x20\n      add\n      swap2\n      jump(tag_182)\n    tag_183:\n      dup3\n      add\n      swap2\n      swap1\n      0x00\n      mstore\n      keccak256(0x00, 0x20)\n      swap1\n    tag_184:\n      dup2\n      sload\n      dup2\n      mstore\n      swap1\n      0x01\n      add\n      swap1\n      0x20\n      add\n      dup1\n      dup4\n      gt\n      tag_184\n      jumpi\n      dup3\n      swap1\n      sub\n      0x1f\n      and\n      dup3\n      add\n      swap2\n    tag_182:\n      pop\n      pop\n      pop\n      pop\n      pop\n      dup2\n      jump\t// out\n        /* \"@layerzerolabs/oapp-evm/contracts/oapp/OAppCore.sol\":3252:3357  function setDelegate(address _delegate) public onlyOwner {... */\n    tag_100:\n        /* \"@openzeppelin/contracts/access/Ownable.sol\":1531:1544  _checkOwner() */\n      tag_186\n        /* \"@openzeppelin/contracts/access/Ownable.sol\":1531:1542  _checkOwner */\n      tag_133\n        /* \"@openzeppelin/contracts/access/Ownable.sol\":1531:1544  _checkOwner() */\n      jump\t// in\n    tag_186:\n        /* \"@layerzerolabs/oapp-evm/contracts/oapp/OAppCore.sol\":3319:3327  endpoint */\n      immutable(\"0xef80077fd7ee005d1b0377e3e959eb59d0ca83c4839422f862a3540a66a91fb5\")\n        /* \"@layerzerolabs/oapp-evm/contracts/oapp/OAppCore.sol\":3319:3339  endpoint.setDelegate */\n      0xffffffffffffffffffffffffffffffffffffffff\n      and\n      0xca5eb5e1\n        /* \"@layerzerolabs/oapp-evm/contracts/oapp/OAppCore.sol\":3340:3349  _delegate */\n      dup3\n        /* \"@layerzerolabs/oapp-evm/contracts/oapp/OAppCore.sol\":3319:3350  endpoint.setDelegate(_delegate) */\n      mload(0x40)\n      dup3\n      0xffffffff\n      and\n      0xe0\n      shl\n      dup2\n      mstore\n      0x04\n      add\n      tag_188\n      swap2\n      swap1\n      tag_82\n      jump\t// in\n    tag_188:\n      0x00\n      mload(0x40)\n      dup1\n      dup4\n      sub\n      dup2\n      0x00\n      dup8\n      dup1\n      extcodesize\n      iszero\n      dup1\n      iszero\n      tag_189\n      jumpi\n      0x00\n      dup1\n      revert\n    tag_189:\n      pop\n      gas\n      call\n      iszero\n      dup1\n      iszero\n      tag_191\n      jumpi\n      returndatasize\n      0x00\n      dup1\n      returndatacopy\n      revert(0x00, returndatasize)\n    tag_191:\n      pop\n      pop\n      pop\n      pop\n        /* \"@layerzerolabs/oapp-evm/contracts/oapp/OAppCore.sol\":3252:3357  function setDelegate(address _delegate) public onlyOwner {... */\n      pop\n      jump\t// out\n        /* \"@openzeppelin/contracts/access/Ownable.sol\":2543:2758  function transferOwnership(address newOwner) public virtual onlyOwner {... */\n    tag_104:\n        /* \"@openzeppelin/contracts/access/Ownable.sol\":1531:1544  _checkOwner() */\n      tag_193\n        /* \"@openzeppelin/contracts/access/Ownable.sol\":1531:1542  _checkOwner */\n      tag_133\n        /* \"@openzeppelin/contracts/access/Ownable.sol\":1531:1544  _checkOwner() */\n      jump\t// in\n    tag_193:\n        /* \"@openzeppelin/contracts/access/Ownable.sol\":2647:2648  0 */\n      0x00\n        /* \"@openzeppelin/contracts/access/Ownable.sol\":2627:2649  newOwner == address(0) */\n      0xffffffffffffffffffffffffffffffffffffffff\n      and\n        /* \"@openzeppelin/contracts/access/Ownable.sol\":2627:2635  newOwner */\n      dup2\n        /* \"@openzeppelin/contracts/access/Ownable.sol\":2627:2649  newOwner == address(0) */\n      0xffffffffffffffffffffffffffffffffffffffff\n      and\n      sub\n        /* \"@openzeppelin/contracts/access/Ownable.sol\":2623:2714  if (newOwner == address(0)) {... */\n      tag_195\n      jumpi\n        /* \"@openzeppelin/contracts/access/Ownable.sol\":2700:2701  0 */\n      0x00\n        /* \"@openzeppelin/contracts/access/Ownable.sol\":2672:2703  OwnableInvalidOwner(address(0)) */\n      mload(0x40)\n      0x1e4fbdf700000000000000000000000000000000000000000000000000000000\n      dup2\n      mstore\n      0x04\n      add\n      tag_196\n      swap2\n      swap1\n      tag_82\n      jump\t// in\n    tag_196:\n      mload(0x40)\n      dup1\n      swap2\n      sub\n      swap1\n      revert\n        /* \"@openzeppelin/contracts/access/Ownable.sol\":2623:2714  if (newOwner == address(0)) {... */\n    tag_195:\n        /* \"@openzeppelin/contracts/access/Ownable.sol\":2723:2751  _transferOwnership(newOwner) */\n      tag_197\n        /* \"@openzeppelin/contracts/access/Ownable.sol\":2742:2750  newOwner */\n      dup2\n        /* \"@openzeppelin/contracts/access/Ownable.sol\":2723:2741  _transferOwnership */\n      tag_160\n        /* \"@openzeppelin/contracts/access/Ownable.sol\":2723:2751  _transferOwnership(newOwner) */\n      jump\t// in\n    tag_197:\n        /* \"@openzeppelin/contracts/access/Ownable.sol\":2543:2758  function transferOwnership(address newOwner) public virtual onlyOwner {... */\n      pop\n      jump\t// out\n        /* \"Arbitrum_sende.sol\":2553:2879  function quote(... */\n    tag_109:\n        /* \"Arbitrum_sende.sol\":2714:2737  MessagingFee memory fee */\n      tag_198\n      tag_199\n      jump\t// in\n    tag_198:\n        /* \"Arbitrum_sende.sol\":2749:2770  bytes memory _payload */\n      0x00\n        /* \"Arbitrum_sende.sol\":2784:2792  _message */\n      dup7\n      dup7\n        /* \"Arbitrum_sende.sol\":2794:2804  msg.sender */\n      caller\n        /* \"Arbitrum_sende.sol\":2773:2805  abi.encode(_message, msg.sender) */\n      add(0x20, mload(0x40))\n      tag_201\n      swap4\n      swap3\n      swap2\n      swap1\n      tag_163\n      jump\t// in\n    tag_201:\n      mload(0x40)\n      0x20\n      dup2\n      dup4\n      sub\n      sub\n      dup2\n      mstore\n      swap1\n      0x40\n      mstore\n        /* \"Arbitrum_sende.sol\":2749:2805  bytes memory _payload = abi.encode(_message, msg.sender) */\n      swap1\n      pop\n        /* \"Arbitrum_sende.sol\":2822:2872  _quote(_dstEid, _payload, _options, _payInLzToken) */\n      tag_202\n        /* \"Arbitrum_sende.sol\":2829:2836  _dstEid */\n      dup9\n        /* \"Arbitrum_sende.sol\":2838:2846  _payload */\n      dup3\n        /* \"Arbitrum_sende.sol\":2848:2856  _options */\n      dup8\n      dup8\n        /* \"Arbitrum_sende.sol\":2822:2872  _quote(_dstEid, _payload, _options, _payInLzToken) */\n      dup1\n      dup1\n      0x1f\n      add\n      0x20\n      dup1\n      swap2\n      div\n      mul\n      0x20\n      add\n      mload(0x40)\n      swap1\n      dup2\n      add\n      0x40\n      mstore\n      dup1\n      swap4\n      swap3\n      swap2\n      swap1\n      dup2\n      dup2\n      mstore\n      0x20\n      add\n      dup4\n      dup4\n      dup1\n      dup3\n      dup5\n      calldatacopy\n      0x00\n      dup2\n      dup5\n      add\n      mstore\n      not(0x1f)\n      0x1f\n      dup3\n      add\n      and\n      swap1\n      pop\n      dup1\n      dup4\n      add\n      swap3\n      pop\n      pop\n      pop\n      pop\n      pop\n      pop\n      pop\n        /* \"Arbitrum_sende.sol\":2858:2871  _payInLzToken */\n      dup7\n        /* \"Arbitrum_sende.sol\":2822:2828  _quote */\n      tag_165\n        /* \"Arbitrum_sende.sol\":2822:2872  _quote(_dstEid, _payload, _options, _payInLzToken) */\n      jump\t// in\n    tag_202:\n        /* \"Arbitrum_sende.sol\":2815:2872  return _quote(_dstEid, _payload, _options, _payInLzToken) */\n      swap2\n      pop\n      pop\n        /* \"Arbitrum_sende.sol\":2553:2879  function quote(... */\n      swap7\n      swap6\n      pop\n      pop\n      pop\n      pop\n      pop\n      pop\n      jump\t// out\n        /* \"@layerzerolabs/oapp-evm/contracts/oapp/OAppReceiver.sol\":2771:2920  function allowInitializePath(Origin calldata origin) public view virtual returns (bool) {... */\n    tag_116:\n        /* \"@layerzerolabs/oapp-evm/contracts/oapp/OAppReceiver.sol\":2853:2857  bool */\n      0x00\n        /* \"@layerzerolabs/oapp-evm/contracts/oapp/OAppReceiver.sol\":2900:2906  origin */\n      dup2\n        /* \"@layerzerolabs/oapp-evm/contracts/oapp/OAppReceiver.sol\":2900:2913  origin.sender */\n      0x20\n      add\n      calldataload\n        /* \"@layerzerolabs/oapp-evm/contracts/oapp/OAppReceiver.sol\":2876:2881  peers */\n      0x01\n        /* \"@layerzerolabs/oapp-evm/contracts/oapp/OAppReceiver.sol\":2876:2896  peers[origin.srcEid] */\n      0x00\n        /* \"@layerzerolabs/oapp-evm/contracts/oapp/OAppReceiver.sol\":2882:2888  origin */\n      dup5\n        /* \"@layerzerolabs/oapp-evm/contracts/oapp/OAppReceiver.sol\":2882:2895  origin.srcEid */\n      0x00\n      add\n      0x20\n      dup2\n      add\n      swap1\n      tag_204\n      swap2\n      swap1\n      tag_86\n      jump\t// in\n    tag_204:\n        /* \"@layerzerolabs/oapp-evm/contracts/oapp/OAppReceiver.sol\":2876:2896  peers[origin.srcEid] */\n      0xffffffff\n      and\n      0xffffffff\n      and\n      dup2\n      mstore\n      0x20\n      add\n      swap1\n      dup2\n      mstore\n      0x20\n      add\n      0x00\n      keccak256\n      sload\n        /* \"@layerzerolabs/oapp-evm/contracts/oapp/OAppReceiver.sol\":2876:2913  peers[origin.srcEid] == origin.sender */\n      eq\n        /* \"@layerzerolabs/oapp-evm/contracts/oapp/OAppReceiver.sol\":2869:2913  return peers[origin.srcEid] == origin.sender */\n      swap1\n      pop\n        /* \"@layerzerolabs/oapp-evm/contracts/oapp/OAppReceiver.sol\":2771:2920  function allowInitializePath(Origin calldata origin) public view virtual returns (bool) {... */\n      swap2\n      swap1\n      pop\n      jump\t// out\n        /* \"@layerzerolabs/oapp-evm/contracts/oapp/OAppCore.sol\":2718:2914  function _getPeerOrRevert(uint32 _eid) internal view virtual returns (bytes32) {... */\n    tag_123:\n        /* \"@layerzerolabs/oapp-evm/contracts/oapp/OAppCore.sol\":2788:2795  bytes32 */\n      0x00\n        /* \"@layerzerolabs/oapp-evm/contracts/oapp/OAppCore.sol\":2807:2819  bytes32 peer */\n      dup1\n        /* \"@layerzerolabs/oapp-evm/contracts/oapp/OAppCore.sol\":2822:2827  peers */\n      0x01\n        /* \"@layerzerolabs/oapp-evm/contracts/oapp/OAppCore.sol\":2822:2833  peers[_eid] */\n      0x00\n        /* \"@layerzerolabs/oapp-evm/contracts/oapp/OAppCore.sol\":2828:2832  _eid */\n      dup5\n        /* \"@layerzerolabs/oapp-evm/contracts/oapp/OAppCore.sol\":2822:2833  peers[_eid] */\n      0xffffffff\n      and\n      0xffffffff\n      and\n      dup2\n      mstore\n      0x20\n      add\n      swap1\n      dup2\n      mstore\n      0x20\n      add\n      0x00\n      keccak256\n      sload\n        /* \"@layerzerolabs/oapp-evm/contracts/oapp/OAppCore.sol\":2807:2833  bytes32 peer = peers[_eid] */\n      swap1\n      pop\n        /* \"@layerzerolabs/oapp-evm/contracts/oapp/OAppCore.sol\":2863:2864  0 */\n      0x00\n        /* \"@layerzerolabs/oapp-evm/contracts/oapp/OAppCore.sol\":2855:2865  bytes32(0) */\n      dup1\n      shl\n        /* \"@layerzerolabs/oapp-evm/contracts/oapp/OAppCore.sol\":2847:2851  peer */\n      dup2\n        /* \"@layerzerolabs/oapp-evm/contracts/oapp/OAppCore.sol\":2847:2865  peer == bytes32(0) */\n      sub\n        /* \"@layerzerolabs/oapp-evm/contracts/oapp/OAppCore.sol\":2843:2886  if (peer == bytes32(0)) revert NoPeer(_eid) */\n      tag_206\n      jumpi\n        /* \"@layerzerolabs/oapp-evm/contracts/oapp/OAppCore.sol\":2881:2885  _eid */\n      dup3\n        /* \"@layerzerolabs/oapp-evm/contracts/oapp/OAppCore.sol\":2874:2886  NoPeer(_eid) */\n      mload(0x40)\n      0xf6ff4fb700000000000000000000000000000000000000000000000000000000\n      dup2\n      mstore\n      0x04\n      add\n      tag_207\n      swap2\n      swap1\n      tag_208\n      jump\t// in\n    tag_207:\n      mload(0x40)\n      dup1\n      swap2\n      sub\n      swap1\n      revert\n        /* \"@layerzerolabs/oapp-evm/contracts/oapp/OAppCore.sol\":2843:2886  if (peer == bytes32(0)) revert NoPeer(_eid) */\n    tag_206:\n        /* \"@layerzerolabs/oapp-evm/contracts/oapp/OAppCore.sol\":2903:2907  peer */\n      dup1\n        /* \"@layerzerolabs/oapp-evm/contracts/oapp/OAppCore.sol\":2896:2907  return peer */\n      swap2\n      pop\n      pop\n        /* \"@layerzerolabs/oapp-evm/contracts/oapp/OAppCore.sol\":2718:2914  function _getPeerOrRevert(uint32 _eid) internal view virtual returns (bytes32) {... */\n      swap2\n      swap1\n      pop\n      jump\t// out\n        /* \"Arbitrum_sende.sol\":3190:3582  function _lzReceive(... */\n    tag_129:\n        /* \"Arbitrum_sende.sol\":3425:3446  string memory message */\n      0x00\n        /* \"Arbitrum_sende.sol\":3448:3462  address sender */\n      dup1\n        /* \"Arbitrum_sende.sol\":3477:3484  payload */\n      dup7\n      dup7\n        /* \"Arbitrum_sende.sol\":3466:3504  abi.decode(payload, (string, address)) */\n      dup2\n      add\n      swap1\n      tag_210\n      swap2\n      swap1\n      tag_211\n      jump\t// in\n    tag_210:\n        /* \"Arbitrum_sende.sol\":3424:3504  (string memory message, address sender) = abi.decode(payload, (string, address)) */\n      swap2\n      pop\n      swap2\n      pop\n        /* \"Arbitrum_sende.sol\":3560:3565  _guid */\n      dup8\n        /* \"Arbitrum_sende.sol\":3544:3551  _origin */\n      dup10\n        /* \"Arbitrum_sende.sol\":3544:3558  _origin.srcEid */\n      0x00\n      add\n      0x20\n      dup2\n      add\n      swap1\n      tag_212\n      swap2\n      swap1\n      tag_86\n      jump\t// in\n    tag_212:\n        /* \"Arbitrum_sende.sol\":3528:3575  MessageReceived(_origin.srcEid, _guid, message) */\n      0xffffffff\n      and\n      0x15491fa6bf738b90aa2bf5731ea662e510a1706e7034cc13c1b2371b12f0969d\n        /* \"Arbitrum_sende.sol\":3567:3574  message */\n      dup5\n        /* \"Arbitrum_sende.sol\":3528:3575  MessageReceived(_origin.srcEid, _guid, message) */\n      mload(0x40)\n      tag_213\n      swap2\n      swap1\n      tag_47\n      jump\t// in\n    tag_213:\n      mload(0x40)\n      dup1\n      swap2\n      sub\n      swap1\n      log3\n        /* \"Arbitrum_sende.sol\":3384:3582  {... */\n      pop\n      pop\n        /* \"Arbitrum_sende.sol\":3190:3582  function _lzReceive(... */\n      pop\n      pop\n      pop\n      pop\n      pop\n      pop\n      pop\n      jump\t// out\n        /* \"@openzeppelin/contracts/access/Ownable.sol\":1796:1958  function _checkOwner() internal view virtual {... */\n    tag_133:\n        /* \"@openzeppelin/contracts/access/Ownable.sol\":1866:1878  _msgSender() */\n      tag_215\n        /* \"@openzeppelin/contracts/access/Ownable.sol\":1866:1876  _msgSender */\n      tag_216\n        /* \"@openzeppelin/contracts/access/Ownable.sol\":1866:1878  _msgSender() */\n      jump\t// in\n    tag_215:\n        /* \"@openzeppelin/contracts/access/Ownable.sol\":1855:1878  owner() != _msgSender() */\n      0xffffffffffffffffffffffffffffffffffffffff\n      and\n        /* \"@openzeppelin/contracts/access/Ownable.sol\":1855:1862  owner() */\n      tag_217\n        /* \"@openzeppelin/contracts/access/Ownable.sol\":1855:1860  owner */\n      tag_80\n        /* \"@openzeppelin/contracts/access/Ownable.sol\":1855:1862  owner() */\n      jump\t// in\n    tag_217:\n        /* \"@openzeppelin/contracts/access/Ownable.sol\":1855:1878  owner() != _msgSender() */\n      0xffffffffffffffffffffffffffffffffffffffff\n      and\n      eq\n        /* \"@openzeppelin/contracts/access/Ownable.sol\":1851:1952  if (owner() != _msgSender()) {... */\n      tag_218\n      jumpi\n        /* \"@openzeppelin/contracts/access/Ownable.sol\":1928:1940  _msgSender() */\n      tag_219\n        /* \"@openzeppelin/contracts/access/Ownable.sol\":1928:1938  _msgSender */\n      tag_216\n        /* \"@openzeppelin/contracts/access/Ownable.sol\":1928:1940  _msgSender() */\n      jump\t// in\n    tag_219:\n        /* \"@openzeppelin/contracts/access/Ownable.sol\":1901:1941  OwnableUnauthorizedAccount(_msgSender()) */\n      mload(0x40)\n      0x118cdaa700000000000000000000000000000000000000000000000000000000\n      dup2\n      mstore\n      0x04\n      add\n      tag_220\n      swap2\n      swap1\n      tag_82\n      jump\t// in\n    tag_220:\n      mload(0x40)\n      dup1\n      swap2\n      sub\n      swap1\n      revert\n        /* \"@openzeppelin/contracts/access/Ownable.sol\":1851:1952  if (owner() != _msgSender()) {... */\n    tag_218:\n        /* \"@openzeppelin/contracts/access/Ownable.sol\":1796:1958  function _checkOwner() internal view virtual {... */\n      jump\t// out\n        /* \"@layerzerolabs/oapp-evm/contracts/oapp/OAppCore.sol\":2286:2420  function _setPeer(uint32 _eid, bytes32 _peer) internal virtual {... */\n    tag_136:\n        /* \"@layerzerolabs/oapp-evm/contracts/oapp/OAppCore.sol\":2373:2378  _peer */\n      dup1\n        /* \"@layerzerolabs/oapp-evm/contracts/oapp/OAppCore.sol\":2359:2364  peers */\n      0x01\n        /* \"@layerzerolabs/oapp-evm/contracts/oapp/OAppCore.sol\":2359:2370  peers[_eid] */\n      0x00\n        /* \"@layerzerolabs/oapp-evm/contracts/oapp/OAppCore.sol\":2365:2369  _eid */\n      dup5\n        /* \"@layerzerolabs/oapp-evm/contracts/oapp/OAppCore.sol\":2359:2370  peers[_eid] */\n      0xffffffff\n      and\n      0xffffffff\n      and\n      dup2\n      mstore\n      0x20\n      add\n      swap1\n      dup2\n      mstore\n      0x20\n      add\n      0x00\n      keccak256\n        /* \"@layerzerolabs/oapp-evm/contracts/oapp/OAppCore.sol\":2359:2378  peers[_eid] = _peer */\n      dup2\n      swap1\n      sstore\n      pop\n        /* \"@layerzerolabs/oapp-evm/contracts/oapp/OAppCore.sol\":2393:2413  PeerSet(_eid, _peer) */\n      0x238399d427b947898edb290f5ff0f9109849b1c3ba196a42e35f00c50a54b98b\n        /* \"@layerzerolabs/oapp-evm/contracts/oapp/OAppCore.sol\":2401:2405  _eid */\n      dup3\n        /* \"@layerzerolabs/oapp-evm/contracts/oapp/OAppCore.sol\":2407:2412  _peer */\n      dup3\n        /* \"@layerzerolabs/oapp-evm/contracts/oapp/OAppCore.sol\":2393:2413  PeerSet(_eid, _peer) */\n      mload(0x40)\n      tag_222\n      swap3\n      swap2\n      swap1\n      tag_127\n      jump\t// in\n    tag_222:\n      mload(0x40)\n      dup1\n      swap2\n      sub\n      swap1\n      log1\n        /* \"@layerzerolabs/oapp-evm/contracts/oapp/OAppCore.sol\":2286:2420  function _setPeer(uint32 _eid, bytes32 _peer) internal virtual {... */\n      pop\n      pop\n      jump\t// out\n        /* \"@openzeppelin/contracts/access/Ownable.sol\":2912:3099  function _transferOwnership(address newOwner) internal virtual {... */\n    tag_160:\n        /* \"@openzeppelin/contracts/access/Ownable.sol\":2985:3001  address oldOwner */\n      0x00\n        /* \"@openzeppelin/contracts/access/Ownable.sol\":3004:3010  _owner */\n      dup1\n      0x00\n      swap1\n      sload\n      swap1\n      0x0100\n      exp\n      swap1\n      div\n      0xffffffffffffffffffffffffffffffffffffffff\n      and\n        /* \"@openzeppelin/contracts/access/Ownable.sol\":2985:3010  address oldOwner = _owner */\n      swap1\n      pop\n        /* \"@openzeppelin/contracts/access/Ownable.sol\":3029:3037  newOwner */\n      dup2\n        /* \"@openzeppelin/contracts/access/Ownable.sol\":3020:3026  _owner */\n      0x00\n      dup1\n        /* \"@openzeppelin/contracts/access/Ownable.sol\":3020:3037  _owner = newOwner */\n      0x0100\n      exp\n      dup2\n      sload\n      dup2\n      0xffffffffffffffffffffffffffffffffffffffff\n      mul\n      not\n      and\n      swap1\n      dup4\n      0xffffffffffffffffffffffffffffffffffffffff\n      and\n      mul\n      or\n      swap1\n      sstore\n      pop\n        /* \"@openzeppelin/contracts/access/Ownable.sol\":3083:3091  newOwner */\n      dup2\n        /* \"@openzeppelin/contracts/access/Ownable.sol\":3052:3092  OwnershipTransferred(oldOwner, newOwner) */\n      0xffffffffffffffffffffffffffffffffffffffff\n      and\n        /* \"@openzeppelin/contracts/access/Ownable.sol\":3073:3081  oldOwner */\n      dup2\n        /* \"@openzeppelin/contracts/access/Ownable.sol\":3052:3092  OwnershipTransferred(oldOwner, newOwner) */\n      0xffffffffffffffffffffffffffffffffffffffff\n      and\n      0x8be0079c531659141344cd1fd0a4f28419497f9722a3daafe3b4186f6b6457e0\n      mload(0x40)\n      mload(0x40)\n      dup1\n      swap2\n      sub\n      swap1\n      log3\n        /* \"@openzeppelin/contracts/access/Ownable.sol\":2975:3099  {... */\n      pop\n        /* \"@openzeppelin/contracts/access/Ownable.sol\":2912:3099  function _transferOwnership(address newOwner) internal virtual {... */\n      pop\n      jump\t// out\n        /* \"@layerzerolabs/oapp-evm/contracts/oapp/OAppSender.sol\":2038:2429  function _quote(... */\n    tag_165:\n        /* \"@layerzerolabs/oapp-evm/contracts/oapp/OAppSender.sol\":2205:2228  MessagingFee memory fee */\n      tag_224\n      tag_199\n      jump\t// in\n    tag_224:\n        /* \"@layerzerolabs/oapp-evm/contracts/oapp/OAppSender.sol\":2259:2267  endpoint */\n      immutable(\"0xef80077fd7ee005d1b0377e3e959eb59d0ca83c4839422f862a3540a66a91fb5\")\n        /* \"@layerzerolabs/oapp-evm/contracts/oapp/OAppSender.sol\":2259:2273  endpoint.quote */\n      0xffffffffffffffffffffffffffffffffffffffff\n      and\n      0xddc28c58\n        /* \"@layerzerolabs/oapp-evm/contracts/oapp/OAppSender.sol\":2291:2377  MessagingParams(_dstEid, _getPeerOrRevert(_dstEid), _message, _options, _payInLzToken) */\n      mload(0x40)\n      dup1\n      0xa0\n      add\n      0x40\n      mstore\n      dup1\n        /* \"@layerzerolabs/oapp-evm/contracts/oapp/OAppSender.sol\":2307:2314  _dstEid */\n      dup9\n        /* \"@layerzerolabs/oapp-evm/contracts/oapp/OAppSender.sol\":2291:2377  MessagingParams(_dstEid, _getPeerOrRevert(_dstEid), _message, _options, _payInLzToken) */\n      0xffffffff\n      and\n      dup2\n      mstore\n      0x20\n      add\n        /* \"@layerzerolabs/oapp-evm/contracts/oapp/OAppSender.sol\":2316:2341  _getPeerOrRevert(_dstEid) */\n      tag_226\n        /* \"@layerzerolabs/oapp-evm/contracts/oapp/OAppSender.sol\":2333:2340  _dstEid */\n      dup10\n        /* \"@layerzerolabs/oapp-evm/contracts/oapp/OAppSender.sol\":2316:2332  _getPeerOrRevert */\n      tag_123\n        /* \"@layerzerolabs/oapp-evm/contracts/oapp/OAppSender.sol\":2316:2341  _getPeerOrRevert(_dstEid) */\n      jump\t// in\n    tag_226:\n        /* \"@layerzerolabs/oapp-evm/contracts/oapp/OAppSender.sol\":2291:2377  MessagingParams(_dstEid, _getPeerOrRevert(_dstEid), _message, _options, _payInLzToken) */\n      dup2\n      mstore\n      0x20\n      add\n        /* \"@layerzerolabs/oapp-evm/contracts/oapp/OAppSender.sol\":2343:2351  _message */\n      dup8\n        /* \"@layerzerolabs/oapp-evm/contracts/oapp/OAppSender.sol\":2291:2377  MessagingParams(_dstEid, _getPeerOrRevert(_dstEid), _message, _options, _payInLzToken) */\n      dup2\n      mstore\n      0x20\n      add\n        /* \"@layerzerolabs/oapp-evm/contracts/oapp/OAppSender.sol\":2353:2361  _options */\n      dup7\n        /* \"@layerzerolabs/oapp-evm/contracts/oapp/OAppSender.sol\":2291:2377  MessagingParams(_dstEid, _getPeerOrRevert(_dstEid), _message, _options, _payInLzToken) */\n      dup2\n      mstore\n      0x20\n      add\n        /* \"@layerzerolabs/oapp-evm/contracts/oapp/OAppSender.sol\":2363:2376  _payInLzToken */\n      dup6\n        /* \"@layerzerolabs/oapp-evm/contracts/oapp/OAppSender.sol\":2291:2377  MessagingParams(_dstEid, _getPeerOrRevert(_dstEid), _message, _options, _payInLzToken) */\n      iszero\n      iszero\n      dup2\n      mstore\n      pop\n        /* \"@layerzerolabs/oapp-evm/contracts/oapp/OAppSender.sol\":2403:2407  this */\n      address\n        /* \"@layerzerolabs/oapp-evm/contracts/oapp/OAppSender.sol\":2259:2422  endpoint.quote(... */\n      mload(0x40)\n      dup4\n      0xffffffff\n      and\n      0xe0\n      shl\n      dup2\n      mstore\n      0x04\n      add\n      tag_227\n      swap3\n      swap2\n      swap1\n      tag_228\n      jump\t// in\n    tag_227:\n      0x40\n      dup1\n      mload\n      dup1\n      dup4\n      sub\n      dup2\n      dup7\n      gas\n      staticcall\n      iszero\n      dup1\n      iszero\n      tag_230\n      jumpi\n      returndatasize\n      0x00\n      dup1\n      returndatacopy\n      revert(0x00, returndatasize)\n    tag_230:\n      pop\n      pop\n      pop\n      pop\n      mload(0x40)\n      returndatasize\n      not(0x1f)\n      0x1f\n      dup3\n      add\n      and\n      dup3\n      add\n      dup1\n      0x40\n      mstore\n      pop\n      dup2\n      add\n      swap1\n      tag_231\n      swap2\n      swap1\n      tag_232\n      jump\t// in\n    tag_231:\n        /* \"@layerzerolabs/oapp-evm/contracts/oapp/OAppSender.sol\":2240:2422  return... */\n      swap1\n      pop\n        /* \"@layerzerolabs/oapp-evm/contracts/oapp/OAppSender.sol\":2038:2429  function _quote(... */\n      swap5\n      swap4\n      pop\n      pop\n      pop\n      pop\n      jump\t// out\n        /* \"@layerzerolabs/oapp-evm/contracts/oapp/OAppSender.sol\":3188:3954  function _lzSend(... */\n    tag_170:\n        /* \"@layerzerolabs/oapp-evm/contracts/oapp/OAppSender.sol\":3389:3420  MessagingReceipt memory receipt */\n      tag_233\n      tag_234\n      jump\t// in\n    tag_233:\n        /* \"@layerzerolabs/oapp-evm/contracts/oapp/OAppSender.sol\":3554:3574  uint256 messageValue */\n      0x00\n        /* \"@layerzerolabs/oapp-evm/contracts/oapp/OAppSender.sol\":3577:3603  _payNative(_fee.nativeFee) */\n      tag_236\n        /* \"@layerzerolabs/oapp-evm/contracts/oapp/OAppSender.sol\":3588:3592  _fee */\n      dup5\n        /* \"@layerzerolabs/oapp-evm/contracts/oapp/OAppSender.sol\":3588:3602  _fee.nativeFee */\n      0x00\n      add\n      mload\n        /* \"@layerzerolabs/oapp-evm/contracts/oapp/OAppSender.sol\":3577:3587  _payNative */\n      tag_237\n        /* \"@layerzerolabs/oapp-evm/contracts/oapp/OAppSender.sol\":3577:3603  _payNative(_fee.nativeFee) */\n      jump\t// in\n    tag_236:\n        /* \"@layerzerolabs/oapp-evm/contracts/oapp/OAppSender.sol\":3554:3603  uint256 messageValue = _payNative(_fee.nativeFee) */\n      swap1\n      pop\n        /* \"@layerzerolabs/oapp-evm/contracts/oapp/OAppSender.sol\":3635:3636  0 */\n      0x00\n        /* \"@layerzerolabs/oapp-evm/contracts/oapp/OAppSender.sol\":3617:3621  _fee */\n      dup5\n        /* \"@layerzerolabs/oapp-evm/contracts/oapp/OAppSender.sol\":3617:3632  _fee.lzTokenFee */\n      0x20\n      add\n      mload\n        /* \"@layerzerolabs/oapp-evm/contracts/oapp/OAppSender.sol\":3617:3636  _fee.lzTokenFee > 0 */\n      gt\n        /* \"@layerzerolabs/oapp-evm/contracts/oapp/OAppSender.sol\":3613:3666  if (_fee.lzTokenFee > 0) _payLzToken(_fee.lzTokenFee) */\n      iszero\n      tag_238\n      jumpi\n        /* \"@layerzerolabs/oapp-evm/contracts/oapp/OAppSender.sol\":3638:3666  _payLzToken(_fee.lzTokenFee) */\n      tag_239\n        /* \"@layerzerolabs/oapp-evm/contracts/oapp/OAppSender.sol\":3650:3654  _fee */\n      dup5\n        /* \"@layerzerolabs/oapp-evm/contracts/oapp/OAppSender.sol\":3650:3665  _fee.lzTokenFee */\n      0x20\n      add\n      mload\n        /* \"@layerzerolabs/oapp-evm/contracts/oapp/OAppSender.sol\":3638:3649  _payLzToken */\n      tag_240\n        /* \"@layerzerolabs/oapp-evm/contracts/oapp/OAppSender.sol\":3638:3666  _payLzToken(_fee.lzTokenFee) */\n      jump\t// in\n    tag_239:\n        /* \"@layerzerolabs/oapp-evm/contracts/oapp/OAppSender.sol\":3613:3666  if (_fee.lzTokenFee > 0) _payLzToken(_fee.lzTokenFee) */\n    tag_238:\n        /* \"@layerzerolabs/oapp-evm/contracts/oapp/OAppSender.sol\":3755:3763  endpoint */\n      immutable(\"0xef80077fd7ee005d1b0377e3e959eb59d0ca83c4839422f862a3540a66a91fb5\")\n        /* \"@layerzerolabs/oapp-evm/contracts/oapp/OAppSender.sol\":3755:3768  endpoint.send */\n      0xffffffffffffffffffffffffffffffffffffffff\n      and\n      0x2637a450\n        /* \"@layerzerolabs/oapp-evm/contracts/oapp/OAppSender.sol\":3777:3789  messageValue */\n      dup3\n        /* \"@layerzerolabs/oapp-evm/contracts/oapp/OAppSender.sol\":3809:3901  MessagingParams(_dstEid, _getPeerOrRevert(_dstEid), _message, _options, _fee.lzTokenFee > 0) */\n      mload(0x40)\n      dup1\n      0xa0\n      add\n      0x40\n      mstore\n      dup1\n        /* \"@layerzerolabs/oapp-evm/contracts/oapp/OAppSender.sol\":3825:3832  _dstEid */\n      dup12\n        /* \"@layerzerolabs/oapp-evm/contracts/oapp/OAppSender.sol\":3809:3901  MessagingParams(_dstEid, _getPeerOrRevert(_dstEid), _message, _options, _fee.lzTokenFee > 0) */\n      0xffffffff\n      and\n      dup2\n      mstore\n      0x20\n      add\n        /* \"@layerzerolabs/oapp-evm/contracts/oapp/OAppSender.sol\":3834:3859  _getPeerOrRevert(_dstEid) */\n      tag_241\n        /* \"@layerzerolabs/oapp-evm/contracts/oapp/OAppSender.sol\":3851:3858  _dstEid */\n      dup13\n        /* \"@layerzerolabs/oapp-evm/contracts/oapp/OAppSender.sol\":3834:3850  _getPeerOrRevert */\n      tag_123\n        /* \"@layerzerolabs/oapp-evm/contracts/oapp/OAppSender.sol\":3834:3859  _getPeerOrRevert(_dstEid) */\n      jump\t// in\n    tag_241:\n        /* \"@layerzerolabs/oapp-evm/contracts/oapp/OAppSender.sol\":3809:3901  MessagingParams(_dstEid, _getPeerOrRevert(_dstEid), _message, _options, _fee.lzTokenFee > 0) */\n      dup2\n      mstore\n      0x20\n      add\n        /* \"@layerzerolabs/oapp-evm/contracts/oapp/OAppSender.sol\":3861:3869  _message */\n      dup11\n        /* \"@layerzerolabs/oapp-evm/contracts/oapp/OAppSender.sol\":3809:3901  MessagingParams(_dstEid, _getPeerOrRevert(_dstEid), _message, _options, _fee.lzTokenFee > 0) */\n      dup2\n      mstore\n      0x20\n      add\n        /* \"@layerzerolabs/oapp-evm/contracts/oapp/OAppSender.sol\":3871:3879  _options */\n      dup10\n        /* \"@layerzerolabs/oapp-evm/contracts/oapp/OAppSender.sol\":3809:3901  MessagingParams(_dstEid, _getPeerOrRevert(_dstEid), _message, _options, _fee.lzTokenFee > 0) */\n      dup2\n      mstore\n      0x20\n      add\n        /* \"@layerzerolabs/oapp-evm/contracts/oapp/OAppSender.sol\":3899:3900  0 */\n      0x00\n        /* \"@layerzerolabs/oapp-evm/contracts/oapp/OAppSender.sol\":3881:3885  _fee */\n      dup10\n        /* \"@layerzerolabs/oapp-evm/contracts/oapp/OAppSender.sol\":3881:3896  _fee.lzTokenFee */\n      0x20\n      add\n      mload\n        /* \"@layerzerolabs/oapp-evm/contracts/oapp/OAppSender.sol\":3881:3900  _fee.lzTokenFee > 0 */\n      gt\n        /* \"@layerzerolabs/oapp-evm/contracts/oapp/OAppSender.sol\":3809:3901  MessagingParams(_dstEid, _getPeerOrRevert(_dstEid), _message, _options, _fee.lzTokenFee > 0) */\n      iszero\n      iszero\n      dup2\n      mstore\n      pop\n        /* \"@layerzerolabs/oapp-evm/contracts/oapp/OAppSender.sol\":3919:3933  _refundAddress */\n      dup7\n        /* \"@layerzerolabs/oapp-evm/contracts/oapp/OAppSender.sol\":3755:3947  endpoint.send{ value: messageValue }(... */\n      mload(0x40)\n      dup5\n      0xffffffff\n      and\n      0xe0\n      shl\n      dup2\n      mstore\n      0x04\n      add\n      tag_242\n      swap3\n      swap2\n      swap1\n      tag_228\n      jump\t// in\n    tag_242:\n      0x80\n      mload(0x40)\n      dup1\n      dup4\n      sub\n      dup2\n      dup6\n      dup9\n      gas\n      call\n      iszero\n      dup1\n      iszero\n      tag_244\n      jumpi\n      returndatasize\n      0x00\n      dup1\n      returndatacopy\n      revert(0x00, returndatasize)\n    tag_244:\n      pop\n      pop\n      pop\n      pop\n      pop\n      mload(0x40)\n      returndatasize\n      not(0x1f)\n      0x1f\n      dup3\n      add\n      and\n      dup3\n      add\n      dup1\n      0x40\n      mstore\n      pop\n      dup2\n      add\n      swap1\n      tag_245\n      swap2\n      swap1\n      tag_246\n      jump\t// in\n    tag_245:\n        /* \"@layerzerolabs/oapp-evm/contracts/oapp/OAppSender.sol\":3677:3947  return... */\n      swap2\n      pop\n      pop\n        /* \"@layerzerolabs/oapp-evm/contracts/oapp/OAppSender.sol\":3188:3954  function _lzSend(... */\n      swap6\n      swap5\n      pop\n      pop\n      pop\n      pop\n      pop\n      jump\t// out\n        /* \"@openzeppelin/contracts/utils/Context.sol\":656:752  function _msgSender() internal view virtual returns (address) {... */\n    tag_216:\n        /* \"@openzeppelin/contracts/utils/Context.sol\":709:716  address */\n      0x00\n        /* \"@openzeppelin/contracts/utils/Context.sol\":735:745  msg.sender */\n      caller\n        /* \"@openzeppelin/contracts/utils/Context.sol\":728:745  return msg.sender */\n      swap1\n      pop\n        /* \"@openzeppelin/contracts/utils/Context.sol\":656:752  function _msgSender() internal view virtual returns (address) {... */\n      swap1\n      jump\t// out\n        /* \"@layerzerolabs/oapp-evm/contracts/oapp/OAppSender.sol\":4650:4841  function _payNative(uint256 _nativeFee) internal virtual returns (uint256 nativeFee) {... */\n    tag_237:\n        /* \"@layerzerolabs/oapp-evm/contracts/oapp/OAppSender.sol\":4716:4733  uint256 nativeFee */\n      0x00\n        /* \"@layerzerolabs/oapp-evm/contracts/oapp/OAppSender.sol\":4762:4772  _nativeFee */\n      dup2\n        /* \"@layerzerolabs/oapp-evm/contracts/oapp/OAppSender.sol\":4749:4758  msg.value */\n      callvalue\n        /* \"@layerzerolabs/oapp-evm/contracts/oapp/OAppSender.sol\":4749:4772  msg.value != _nativeFee */\n      eq\n        /* \"@layerzerolabs/oapp-evm/contracts/oapp/OAppSender.sol\":4745:4807  if (msg.value != _nativeFee) revert NotEnoughNative(msg.value) */\n      tag_249\n      jumpi\n        /* \"@layerzerolabs/oapp-evm/contracts/oapp/OAppSender.sol\":4797:4806  msg.value */\n      callvalue\n        /* \"@layerzerolabs/oapp-evm/contracts/oapp/OAppSender.sol\":4781:4807  NotEnoughNative(msg.value) */\n      mload(0x40)\n      0x9f70412000000000000000000000000000000000000000000000000000000000\n      dup2\n      mstore\n      0x04\n      add\n      tag_250\n      swap2\n      swap1\n      tag_52\n      jump\t// in\n    tag_250:\n      mload(0x40)\n      dup1\n      swap2\n      sub\n      swap1\n      revert\n        /* \"@layerzerolabs/oapp-evm/contracts/oapp/OAppSender.sol\":4745:4807  if (msg.value != _nativeFee) revert NotEnoughNative(msg.value) */\n    tag_249:\n        /* \"@layerzerolabs/oapp-evm/contracts/oapp/OAppSender.sol\":4824:4834  _nativeFee */\n      dup2\n        /* \"@layerzerolabs/oapp-evm/contracts/oapp/OAppSender.sol\":4817:4834  return _nativeFee */\n      swap1\n      pop\n        /* \"@layerzerolabs/oapp-evm/contracts/oapp/OAppSender.sol\":4650:4841  function _payNative(uint256 _nativeFee) internal virtual returns (uint256 nativeFee) {... */\n      swap2\n      swap1\n      pop\n      jump\t// out\n        /* \"@layerzerolabs/oapp-evm/contracts/oapp/OAppSender.sol\":5218:5628  function _payLzToken(uint256 _lzTokenFee) internal virtual {... */\n    tag_240:\n        /* \"@layerzerolabs/oapp-evm/contracts/oapp/OAppSender.sol\":5371:5386  address lzToken */\n      0x00\n        /* \"@layerzerolabs/oapp-evm/contracts/oapp/OAppSender.sol\":5389:5397  endpoint */\n      immutable(\"0xef80077fd7ee005d1b0377e3e959eb59d0ca83c4839422f862a3540a66a91fb5\")\n        /* \"@layerzerolabs/oapp-evm/contracts/oapp/OAppSender.sol\":5389:5405  endpoint.lzToken */\n      0xffffffffffffffffffffffffffffffffffffffff\n      and\n      0xe4fe1d94\n        /* \"@layerzerolabs/oapp-evm/contracts/oapp/OAppSender.sol\":5389:5407  endpoint.lzToken() */\n      mload(0x40)\n      dup2\n      0xffffffff\n      and\n      0xe0\n      shl\n      dup2\n      mstore\n      0x04\n      add\n      0x20\n      mload(0x40)\n      dup1\n      dup4\n      sub\n      dup2\n      dup7\n      gas\n      staticcall\n      iszero\n      dup1\n      iszero\n      tag_253\n      jumpi\n      returndatasize\n      0x00\n      dup1\n      returndatacopy\n      revert(0x00, returndatasize)\n    tag_253:\n      pop\n      pop\n      pop\n      pop\n      mload(0x40)\n      returndatasize\n      not(0x1f)\n      0x1f\n      dup3\n      add\n      and\n      dup3\n      add\n      dup1\n      0x40\n      mstore\n      pop\n      dup2\n      add\n      swap1\n      tag_254\n      swap2\n      swap1\n      tag_255\n      jump\t// in\n    tag_254:\n        /* \"@layerzerolabs/oapp-evm/contracts/oapp/OAppSender.sol\":5371:5407  address lzToken = endpoint.lzToken() */\n      swap1\n      pop\n        /* \"@layerzerolabs/oapp-evm/contracts/oapp/OAppSender.sol\":5440:5441  0 */\n      0x00\n        /* \"@layerzerolabs/oapp-evm/contracts/oapp/OAppSender.sol\":5421:5442  lzToken == address(0) */\n      0xffffffffffffffffffffffffffffffffffffffff\n      and\n        /* \"@layerzerolabs/oapp-evm/contracts/oapp/OAppSender.sol\":5421:5428  lzToken */\n      dup2\n        /* \"@layerzerolabs/oapp-evm/contracts/oapp/OAppSender.sol\":5421:5442  lzToken == address(0) */\n      0xffffffffffffffffffffffffffffffffffffffff\n      and\n      sub\n        /* \"@layerzerolabs/oapp-evm/contracts/oapp/OAppSender.sol\":5417:5471  if (lzToken == address(0)) revert LzTokenUnavailable() */\n      tag_256\n      jumpi\n        /* \"@layerzerolabs/oapp-evm/contracts/oapp/OAppSender.sol\":5451:5471  LzTokenUnavailable() */\n      mload(0x40)\n      0x5373352a00000000000000000000000000000000000000000000000000000000\n      dup2\n      mstore\n      0x04\n      add\n      mload(0x40)\n      dup1\n      swap2\n      sub\n      swap1\n      revert\n        /* \"@layerzerolabs/oapp-evm/contracts/oapp/OAppSender.sol\":5417:5471  if (lzToken == address(0)) revert LzTokenUnavailable() */\n    tag_256:\n        /* \"@layerzerolabs/oapp-evm/contracts/oapp/OAppSender.sol\":5545:5621  IERC20(lzToken).safeTransferFrom(msg.sender, address(endpoint), _lzTokenFee) */\n      tag_257\n        /* \"@layerzerolabs/oapp-evm/contracts/oapp/OAppSender.sol\":5578:5588  msg.sender */\n      caller\n        /* \"@layerzerolabs/oapp-evm/contracts/oapp/OAppSender.sol\":5598:5606  endpoint */\n      immutable(\"0xef80077fd7ee005d1b0377e3e959eb59d0ca83c4839422f862a3540a66a91fb5\")\n        /* \"@layerzerolabs/oapp-evm/contracts/oapp/OAppSender.sol\":5609:5620  _lzTokenFee */\n      dup5\n        /* \"@layerzerolabs/oapp-evm/contracts/oapp/OAppSender.sol\":5552:5559  lzToken */\n      dup5\n        /* \"@layerzerolabs/oapp-evm/contracts/oapp/OAppSender.sol\":5545:5577  IERC20(lzToken).safeTransferFrom */\n      0xffffffffffffffffffffffffffffffffffffffff\n      and\n      tag_258\n      swap1\n        /* \"@layerzerolabs/oapp-evm/contracts/oapp/OAppSender.sol\":5545:5621  IERC20(lzToken).safeTransferFrom(msg.sender, address(endpoint), _lzTokenFee) */\n      swap4\n      swap3\n      swap2\n      swap1\n      0xffffffff\n      and\n      jump\t// in\n    tag_257:\n        /* \"@layerzerolabs/oapp-evm/contracts/oapp/OAppSender.sol\":5277:5628  {... */\n      pop\n        /* \"@layerzerolabs/oapp-evm/contracts/oapp/OAppSender.sol\":5218:5628  function _payLzToken(uint256 _lzTokenFee) internal virtual {... */\n      pop\n      jump\t// out\n        /* \"@openzeppelin/contracts/token/ERC20/utils/SafeERC20.sol\":1618:1806  function safeTransferFrom(IERC20 token, address from, address to, uint256 value) internal {... */\n    tag_258:\n        /* \"@openzeppelin/contracts/token/ERC20/utils/SafeERC20.sol\":1718:1799  _callOptionalReturn(token, abi.encodeCall(token.transferFrom, (from, to, value))) */\n      tag_260\n        /* \"@openzeppelin/contracts/token/ERC20/utils/SafeERC20.sol\":1738:1743  token */\n      dup5\n        /* \"@openzeppelin/contracts/token/ERC20/utils/SafeERC20.sol\":1760:1765  token */\n      dup6\n        /* \"@openzeppelin/contracts/token/ERC20/utils/SafeERC20.sol\":1760:1778  token.transferFrom */\n      0xffffffffffffffffffffffffffffffffffffffff\n      and\n      0x23b872dd\n        /* \"@openzeppelin/contracts/token/ERC20/utils/SafeERC20.sol\":1781:1785  from */\n      dup7\n        /* \"@openzeppelin/contracts/token/ERC20/utils/SafeERC20.sol\":1787:1789  to */\n      dup7\n        /* \"@openzeppelin/contracts/token/ERC20/utils/SafeERC20.sol\":1791:1796  value */\n      dup7\n        /* \"@openzeppelin/contracts/token/ERC20/utils/SafeERC20.sol\":1745:1798  abi.encodeCall(token.transferFrom, (from, to, value)) */\n      add(0x24, mload(0x40))\n      tag_261\n      swap4\n      swap3\n      swap2\n      swap1\n      tag_262\n      jump\t// in\n    tag_261:\n      mload(0x40)\n      0x20\n      dup2\n      dup4\n      sub\n      sub\n      dup2\n      mstore\n      swap1\n      0x40\n      mstore\n      swap2\n      pop\n      0xe0\n      shl\n      0x20\n      dup3\n      add\n      dup1\n      mload\n      0xffffffffffffffffffffffffffffffffffffffffffffffffffffffff\n      dup4\n      dup2\n      dup4\n      and\n      or\n      dup4\n      mstore\n      pop\n      pop\n      pop\n      pop\n        /* \"@openzeppelin/contracts/token/ERC20/utils/SafeERC20.sol\":1718:1737  _callOptionalReturn */\n      tag_263\n        /* \"@openzeppelin/contracts/token/ERC20/utils/SafeERC20.sol\":1718:1799  _callOptionalReturn(token, abi.encodeCall(token.transferFrom, (from, to, value))) */\n      jump\t// in\n    tag_260:\n        /* \"@openzeppelin/contracts/token/ERC20/utils/SafeERC20.sol\":1618:1806  function safeTransferFrom(IERC20 token, address from, address to, uint256 value) internal {... */\n      pop\n      pop\n      pop\n      pop\n      jump\t// out\n        /* \"@openzeppelin/contracts/token/ERC20/utils/SafeERC20.sol\":8370:9090  function _callOptionalReturn(IERC20 token, bytes memory data) private {... */\n    tag_263:\n        /* \"@openzeppelin/contracts/token/ERC20/utils/SafeERC20.sol\":8450:8468  uint256 returnSize */\n      0x00\n        /* \"@openzeppelin/contracts/token/ERC20/utils/SafeERC20.sol\":8478:8497  uint256 returnValue */\n      dup1\n        /* \"@openzeppelin/contracts/token/ERC20/utils/SafeERC20.sol\":8616:8620  0x20 */\n      0x20\n        /* \"@openzeppelin/contracts/token/ERC20/utils/SafeERC20.sol\":8613:8614  0 */\n      0x00\n        /* \"@openzeppelin/contracts/token/ERC20/utils/SafeERC20.sol\":8606:8610  data */\n      dup5\n        /* \"@openzeppelin/contracts/token/ERC20/utils/SafeERC20.sol\":8600:8611  mload(data) */\n      mload\n        /* \"@openzeppelin/contracts/token/ERC20/utils/SafeERC20.sol\":8593:8597  0x20 */\n      0x20\n        /* \"@openzeppelin/contracts/token/ERC20/utils/SafeERC20.sol\":8587:8591  data */\n      dup7\n        /* \"@openzeppelin/contracts/token/ERC20/utils/SafeERC20.sol\":8583:8598  add(data, 0x20) */\n      add\n        /* \"@openzeppelin/contracts/token/ERC20/utils/SafeERC20.sol\":8580:8581  0 */\n      0x00\n        /* \"@openzeppelin/contracts/token/ERC20/utils/SafeERC20.sol\":8573:8578  token */\n      dup9\n        /* \"@openzeppelin/contracts/token/ERC20/utils/SafeERC20.sol\":8566:8571  gas() */\n      gas\n        /* \"@openzeppelin/contracts/token/ERC20/utils/SafeERC20.sol\":8561:8621  call(gas(), token, 0, add(data, 0x20), mload(data), 0, 0x20) */\n      call\n        /* \"@openzeppelin/contracts/token/ERC20/utils/SafeERC20.sol\":8673:8680  success */\n      dup1\n        /* \"@openzeppelin/contracts/token/ERC20/utils/SafeERC20.sol\":8663:8839  if iszero(success) {... */\n      tag_265\n      jumpi\n        /* \"@openzeppelin/contracts/token/ERC20/utils/SafeERC20.sol\":8717:8721  0x40 */\n      0x40\n        /* \"@openzeppelin/contracts/token/ERC20/utils/SafeERC20.sol\":8711:8722  mload(0x40) */\n      mload\n        /* \"@openzeppelin/contracts/token/ERC20/utils/SafeERC20.sol\":8762:8778  returndatasize() */\n      returndatasize\n        /* \"@openzeppelin/contracts/token/ERC20/utils/SafeERC20.sol\":8759:8760  0 */\n      0x00\n        /* \"@openzeppelin/contracts/token/ERC20/utils/SafeERC20.sol\":8754:8757  ptr */\n      dup3\n        /* \"@openzeppelin/contracts/token/ERC20/utils/SafeERC20.sol\":8739:8779  returndatacopy(ptr, 0, returndatasize()) */\n      returndatacopy\n        /* \"@openzeppelin/contracts/token/ERC20/utils/SafeERC20.sol\":8808:8824  returndatasize() */\n      returndatasize\n        /* \"@openzeppelin/contracts/token/ERC20/utils/SafeERC20.sol\":8803:8806  ptr */\n      dup2\n        /* \"@openzeppelin/contracts/token/ERC20/utils/SafeERC20.sol\":8796:8825  revert(ptr, returndatasize()) */\n      revert\n        /* \"@openzeppelin/contracts/token/ERC20/utils/SafeERC20.sol\":8663:8839  if iszero(success) {... */\n    tag_265:\n        /* \"@openzeppelin/contracts/token/ERC20/utils/SafeERC20.sol\":8866:8882  returndatasize() */\n      returndatasize\n        /* \"@openzeppelin/contracts/token/ERC20/utils/SafeERC20.sol\":8852:8882  returnSize := returndatasize() */\n      swap3\n      pop\n        /* \"@openzeppelin/contracts/token/ERC20/utils/SafeERC20.sol\":8916:8917  0 */\n      0x00\n        /* \"@openzeppelin/contracts/token/ERC20/utils/SafeERC20.sol\":8910:8918  mload(0) */\n      mload\n        /* \"@openzeppelin/contracts/token/ERC20/utils/SafeERC20.sol\":8895:8918  returnValue := mload(0) */\n      swap2\n      pop\n        /* \"@openzeppelin/contracts/token/ERC20/utils/SafeERC20.sol\":8532:8928  {... */\n      pop\n        /* \"@openzeppelin/contracts/token/ERC20/utils/SafeERC20.sol\":8956:8957  0 */\n      0x00\n        /* \"@openzeppelin/contracts/token/ERC20/utils/SafeERC20.sol\":8942:8952  returnSize */\n      dup3\n        /* \"@openzeppelin/contracts/token/ERC20/utils/SafeERC20.sol\":8942:8957  returnSize == 0 */\n      eq\n        /* \"@openzeppelin/contracts/token/ERC20/utils/SafeERC20.sol\":8942:9010  returnSize == 0 ? address(token).code.length == 0 : returnValue != 1 */\n      tag_266\n      jumpi\n        /* \"@openzeppelin/contracts/token/ERC20/utils/SafeERC20.sol\":9009:9010  1 */\n      0x01\n        /* \"@openzeppelin/contracts/token/ERC20/utils/SafeERC20.sol\":8994:9005  returnValue */\n      dup2\n        /* \"@openzeppelin/contracts/token/ERC20/utils/SafeERC20.sol\":8994:9010  returnValue != 1 */\n      eq\n      iszero\n        /* \"@openzeppelin/contracts/token/ERC20/utils/SafeERC20.sol\":8942:9010  returnSize == 0 ? address(token).code.length == 0 : returnValue != 1 */\n      jump(tag_267)\n    tag_266:\n        /* \"@openzeppelin/contracts/token/ERC20/utils/SafeERC20.sol\":8990:8991  0 */\n      0x00\n        /* \"@openzeppelin/contracts/token/ERC20/utils/SafeERC20.sol\":8968:8973  token */\n      dup5\n        /* \"@openzeppelin/contracts/token/ERC20/utils/SafeERC20.sol\":8960:8986  address(token).code.length */\n      0xffffffffffffffffffffffffffffffffffffffff\n      and\n      extcodesize\n        /* \"@openzeppelin/contracts/token/ERC20/utils/SafeERC20.sol\":8960:8991  address(token).code.length == 0 */\n      eq\n        /* \"@openzeppelin/contracts/token/ERC20/utils/SafeERC20.sol\":8942:9010  returnSize == 0 ? address(token).code.length == 0 : returnValue != 1 */\n    tag_267:\n        /* \"@openzeppelin/contracts/token/ERC20/utils/SafeERC20.sol\":8938:9084  if (returnSize == 0 ? address(token).code.length == 0 : returnValue != 1) {... */\n      iszero\n      tag_268\n      jumpi\n        /* \"@openzeppelin/contracts/token/ERC20/utils/SafeERC20.sol\":9066:9071  token */\n      dup4\n        /* \"@openzeppelin/contracts/token/ERC20/utils/SafeERC20.sol\":9033:9073  SafeERC20FailedOperation(address(token)) */\n      mload(0x40)\n      0x5274afe700000000000000000000000000000000000000000000000000000000\n      dup2\n      mstore\n      0x04\n      add\n      tag_269\n      swap2\n      swap1\n      tag_82\n      jump\t// in\n    tag_269:\n      mload(0x40)\n      dup1\n      swap2\n      sub\n      swap1\n      revert\n        /* \"@openzeppelin/contracts/token/ERC20/utils/SafeERC20.sol\":8938:9084  if (returnSize == 0 ? address(token).code.length == 0 : returnValue != 1) {... */\n    tag_268:\n        /* \"@openzeppelin/contracts/token/ERC20/utils/SafeERC20.sol\":8440:9090  {... */\n      pop\n      pop\n        /* \"@openzeppelin/contracts/token/ERC20/utils/SafeERC20.sol\":8370:9090  function _callOptionalReturn(IERC20 token, bytes memory data) private {... */\n      pop\n      pop\n      jump\t// out\n    tag_199:\n      mload(0x40)\n      dup1\n      0x40\n      add\n      0x40\n      mstore\n      dup1\n      0x00\n      dup2\n      mstore\n      0x20\n      add\n      0x00\n      dup2\n      mstore\n      pop\n      swap1\n      jump\t// out\n    tag_234:\n      mload(0x40)\n      dup1\n      0x60\n      add\n      0x40\n      mstore\n      dup1\n      0x00\n      dup1\n      not\n      and\n      dup2\n      mstore\n      0x20\n      add\n      and(0xffffffffffffffff, 0x00)\n      dup2\n      mstore\n      0x20\n      add\n      tag_270\n      tag_199\n      jump\t// in\n    tag_270:\n      dup2\n      mstore\n      pop\n      swap1\n      jump\t// out\n        /* \"#utility.yul\":7:82   */\n    tag_271:\n        /* \"#utility.yul\":40:46   */\n      0x00\n        /* \"#utility.yul\":73:75   */\n      0x40\n        /* \"#utility.yul\":67:76   */\n      mload\n        /* \"#utility.yul\":57:76   */\n      swap1\n      pop\n        /* \"#utility.yul\":7:82   */\n      swap1\n      jump\t// out\n        /* \"#utility.yul\":88:205   */\n    tag_272:\n        /* \"#utility.yul\":197:198   */\n      0x00\n        /* \"#utility.yul\":194:195   */\n      dup1\n        /* \"#utility.yul\":187:199   */\n      revert\n        /* \"#utility.yul\":211:328   */\n    tag_273:\n        /* \"#utility.yul\":320:321   */\n      0x00\n        /* \"#utility.yul\":317:318   */\n      dup1\n        /* \"#utility.yul\":310:322   */\n      revert\n        /* \"#utility.yul\":334:451   */\n    tag_274:\n        /* \"#utility.yul\":443:444   */\n      0x00\n        /* \"#utility.yul\":440:441   */\n      dup1\n        /* \"#utility.yul\":433:445   */\n      revert\n        /* \"#utility.yul\":478:706   */\n    tag_275:\n        /* \"#utility.yul\":548:553   */\n      0x00\n        /* \"#utility.yul\":589:591   */\n      0x60\n        /* \"#utility.yul\":580:586   */\n      dup3\n        /* \"#utility.yul\":575:578   */\n      dup5\n        /* \"#utility.yul\":571:587   */\n      sub\n        /* \"#utility.yul\":567:592   */\n      slt\n        /* \"#utility.yul\":564:676   */\n      iszero\n      tag_373\n      jumpi\n        /* \"#utility.yul\":595:674   */\n      tag_374\n      tag_274\n      jump\t// in\n    tag_374:\n        /* \"#utility.yul\":564:676   */\n    tag_373:\n        /* \"#utility.yul\":694:700   */\n      dup2\n        /* \"#utility.yul\":685:700   */\n      swap1\n      pop\n        /* \"#utility.yul\":478:706   */\n      swap3\n      swap2\n      pop\n      pop\n      jump\t// out\n        /* \"#utility.yul\":712:789   */\n    tag_276:\n        /* \"#utility.yul\":749:756   */\n      0x00\n        /* \"#utility.yul\":778:783   */\n      dup2\n        /* \"#utility.yul\":767:783   */\n      swap1\n      pop\n        /* \"#utility.yul\":712:789   */\n      swap2\n      swap1\n      pop\n      jump\t// out\n        /* \"#utility.yul\":795:917   */\n    tag_277:\n        /* \"#utility.yul\":868:892   */\n      tag_377\n        /* \"#utility.yul\":886:891   */\n      dup2\n        /* \"#utility.yul\":868:892   */\n      tag_276\n      jump\t// in\n    tag_377:\n        /* \"#utility.yul\":861:866   */\n      dup2\n        /* \"#utility.yul\":858:893   */\n      eq\n        /* \"#utility.yul\":848:911   */\n      tag_378\n      jumpi\n        /* \"#utility.yul\":907:908   */\n      0x00\n        /* \"#utility.yul\":904:905   */\n      dup1\n        /* \"#utility.yul\":897:909   */\n      revert\n        /* \"#utility.yul\":848:911   */\n    tag_378:\n        /* \"#utility.yul\":795:917   */\n      pop\n      jump\t// out\n        /* \"#utility.yul\":923:1062   */\n    tag_278:\n        /* \"#utility.yul\":969:974   */\n      0x00\n        /* \"#utility.yul\":1007:1013   */\n      dup2\n        /* \"#utility.yul\":994:1014   */\n      calldataload\n        /* \"#utility.yul\":985:1014   */\n      swap1\n      pop\n        /* \"#utility.yul\":1023:1056   */\n      tag_380\n        /* \"#utility.yul\":1050:1055   */\n      dup2\n        /* \"#utility.yul\":1023:1056   */\n      tag_277\n      jump\t// in\n    tag_380:\n        /* \"#utility.yul\":923:1062   */\n      swap3\n      swap2\n      pop\n      pop\n      jump\t// out\n        /* \"#utility.yul\":1068:1185   */\n    tag_279:\n        /* \"#utility.yul\":1177:1178   */\n      0x00\n        /* \"#utility.yul\":1174:1175   */\n      dup1\n        /* \"#utility.yul\":1167:1179   */\n      revert\n        /* \"#utility.yul\":1191:1308   */\n    tag_280:\n        /* \"#utility.yul\":1300:1301   */\n      0x00\n        /* \"#utility.yul\":1297:1298   */\n      dup1\n        /* \"#utility.yul\":1290:1302   */\n      revert\n        /* \"#utility.yul\":1314:1431   */\n    tag_281:\n        /* \"#utility.yul\":1423:1424   */\n      0x00\n        /* \"#utility.yul\":1420:1421   */\n      dup1\n        /* \"#utility.yul\":1413:1425   */\n      revert\n        /* \"#utility.yul\":1450:2002   */\n    tag_282:\n        /* \"#utility.yul\":1507:1515   */\n      0x00\n        /* \"#utility.yul\":1517:1523   */\n      dup1\n        /* \"#utility.yul\":1567:1570   */\n      dup4\n        /* \"#utility.yul\":1560:1564   */\n      0x1f\n        /* \"#utility.yul\":1552:1558   */\n      dup5\n        /* \"#utility.yul\":1548:1565   */\n      add\n        /* \"#utility.yul\":1544:1571   */\n      slt\n        /* \"#utility.yul\":1534:1656   */\n      tag_385\n      jumpi\n        /* \"#utility.yul\":1575:1654   */\n      tag_386\n      tag_279\n      jump\t// in\n    tag_386:\n        /* \"#utility.yul\":1534:1656   */\n    tag_385:\n        /* \"#utility.yul\":1688:1694   */\n      dup3\n        /* \"#utility.yul\":1675:1695   */\n      calldataload\n        /* \"#utility.yul\":1665:1695   */\n      swap1\n      pop\n        /* \"#utility.yul\":1718:1736   */\n      0xffffffffffffffff\n        /* \"#utility.yul\":1710:1716   */\n      dup2\n        /* \"#utility.yul\":1707:1737   */\n      gt\n        /* \"#utility.yul\":1704:1821   */\n      iszero\n      tag_387\n      jumpi\n        /* \"#utility.yul\":1740:1819   */\n      tag_388\n      tag_280\n      jump\t// in\n    tag_388:\n        /* \"#utility.yul\":1704:1821   */\n    tag_387:\n        /* \"#utility.yul\":1854:1858   */\n      0x20\n        /* \"#utility.yul\":1846:1852   */\n      dup4\n        /* \"#utility.yul\":1842:1859   */\n      add\n        /* \"#utility.yul\":1830:1859   */\n      swap2\n      pop\n        /* \"#utility.yul\":1908:1911   */\n      dup4\n        /* \"#utility.yul\":1900:1904   */\n      0x01\n        /* \"#utility.yul\":1892:1898   */\n      dup3\n        /* \"#utility.yul\":1888:1905   */\n      mul\n        /* \"#utility.yul\":1878:1886   */\n      dup4\n        /* \"#utility.yul\":1874:1906   */\n      add\n        /* \"#utility.yul\":1871:1912   */\n      gt\n        /* \"#utility.yul\":1868:1996   */\n      iszero\n      tag_389\n      jumpi\n        /* \"#utility.yul\":1915:1994   */\n      tag_390\n      tag_281\n      jump\t// in\n    tag_390:\n        /* \"#utility.yul\":1868:1996   */\n    tag_389:\n        /* \"#utility.yul\":1450:2002   */\n      swap3\n      pop\n      swap3\n      swap1\n      pop\n      jump\t// out\n        /* \"#utility.yul\":2008:2134   */\n    tag_283:\n        /* \"#utility.yul\":2045:2052   */\n      0x00\n        /* \"#utility.yul\":2085:2127   */\n      0xffffffffffffffffffffffffffffffffffffffff\n        /* \"#utility.yul\":2078:2083   */\n      dup3\n        /* \"#utility.yul\":2074:2128   */\n      and\n        /* \"#utility.yul\":2063:2128   */\n      swap1\n      pop\n        /* \"#utility.yul\":2008:2134   */\n      swap2\n      swap1\n      pop\n      jump\t// out\n        /* \"#utility.yul\":2140:2236   */\n    tag_284:\n        /* \"#utility.yul\":2177:2184   */\n      0x00\n        /* \"#utility.yul\":2206:2230   */\n      tag_393\n        /* \"#utility.yul\":2224:2229   */\n      dup3\n        /* \"#utility.yul\":2206:2230   */\n      tag_283\n      jump\t// in\n    tag_393:\n        /* \"#utility.yul\":2195:2230   */\n      swap1\n      pop\n        /* \"#utility.yul\":2140:2236   */\n      swap2\n      swap1\n      pop\n      jump\t// out\n        /* \"#utility.yul\":2242:2364   */\n    tag_285:\n        /* \"#utility.yul\":2315:2339   */\n      tag_395\n        /* \"#utility.yul\":2333:2338   */\n      dup2\n        /* \"#utility.yul\":2315:2339   */\n      tag_284\n      jump\t// in\n    tag_395:\n        /* \"#utility.yul\":2308:2313   */\n      dup2\n        /* \"#utility.yul\":2305:2340   */\n      eq\n        /* \"#utility.yul\":2295:2358   */\n      tag_396\n      jumpi\n        /* \"#utility.yul\":2354:2355   */\n      0x00\n        /* \"#utility.yul\":2351:2352   */\n      dup1\n        /* \"#utility.yul\":2344:2356   */\n      revert\n        /* \"#utility.yul\":2295:2358   */\n    tag_396:\n        /* \"#utility.yul\":2242:2364   */\n      pop\n      jump\t// out\n        /* \"#utility.yul\":2370:2509   */\n    tag_286:\n        /* \"#utility.yul\":2416:2421   */\n      0x00\n        /* \"#utility.yul\":2454:2460   */\n      dup2\n        /* \"#utility.yul\":2441:2461   */\n      calldataload\n        /* \"#utility.yul\":2432:2461   */\n      swap1\n      pop\n        /* \"#utility.yul\":2470:2503   */\n      tag_398\n        /* \"#utility.yul\":2497:2502   */\n      dup2\n        /* \"#utility.yul\":2470:2503   */\n      tag_285\n      jump\t// in\n    tag_398:\n        /* \"#utility.yul\":2370:2509   */\n      swap3\n      swap2\n      pop\n      pop\n      jump\t// out\n        /* \"#utility.yul\":2515:3872   */\n    tag_28:\n        /* \"#utility.yul\":2656:2662   */\n      0x00\n        /* \"#utility.yul\":2664:2670   */\n      dup1\n        /* \"#utility.yul\":2672:2678   */\n      0x00\n        /* \"#utility.yul\":2680:2686   */\n      dup1\n        /* \"#utility.yul\":2688:2694   */\n      0x00\n        /* \"#utility.yul\":2696:2702   */\n      dup1\n        /* \"#utility.yul\":2704:2710   */\n      0x00\n        /* \"#utility.yul\":2753:2756   */\n      0xe0\n        /* \"#utility.yul\":2741:2750   */\n      dup9\n        /* \"#utility.yul\":2732:2739   */\n      dup11\n        /* \"#utility.yul\":2728:2751   */\n      sub\n        /* \"#utility.yul\":2724:2757   */\n      slt\n        /* \"#utility.yul\":2721:2841   */\n      iszero\n      tag_400\n      jumpi\n        /* \"#utility.yul\":2760:2839   */\n      tag_401\n      tag_272\n      jump\t// in\n    tag_401:\n        /* \"#utility.yul\":2721:2841   */\n    tag_400:\n        /* \"#utility.yul\":2880:2881   */\n      0x00\n        /* \"#utility.yul\":2905:2982   */\n      tag_402\n        /* \"#utility.yul\":2974:2981   */\n      dup11\n        /* \"#utility.yul\":2965:2971   */\n      dup3\n        /* \"#utility.yul\":2954:2963   */\n      dup12\n        /* \"#utility.yul\":2950:2972   */\n      add\n        /* \"#utility.yul\":2905:2982   */\n      tag_275\n      jump\t// in\n    tag_402:\n        /* \"#utility.yul\":2895:2982   */\n      swap8\n      pop\n        /* \"#utility.yul\":2851:2992   */\n      pop\n        /* \"#utility.yul\":3031:3033   */\n      0x60\n        /* \"#utility.yul\":3057:3110   */\n      tag_403\n        /* \"#utility.yul\":3102:3109   */\n      dup11\n        /* \"#utility.yul\":3093:3099   */\n      dup3\n        /* \"#utility.yul\":3082:3091   */\n      dup12\n        /* \"#utility.yul\":3078:3100   */\n      add\n        /* \"#utility.yul\":3057:3110   */\n      tag_278\n      jump\t// in\n    tag_403:\n        /* \"#utility.yul\":3047:3110   */\n      swap7\n      pop\n        /* \"#utility.yul\":3002:3120   */\n      pop\n        /* \"#utility.yul\":3187:3190   */\n      0x80\n        /* \"#utility.yul\":3176:3185   */\n      dup9\n        /* \"#utility.yul\":3172:3191   */\n      add\n        /* \"#utility.yul\":3159:3192   */\n      calldataload\n        /* \"#utility.yul\":3219:3237   */\n      0xffffffffffffffff\n        /* \"#utility.yul\":3211:3217   */\n      dup2\n        /* \"#utility.yul\":3208:3238   */\n      gt\n        /* \"#utility.yul\":3205:3322   */\n      iszero\n      tag_404\n      jumpi\n        /* \"#utility.yul\":3241:3320   */\n      tag_405\n      tag_273\n      jump\t// in\n    tag_405:\n        /* \"#utility.yul\":3205:3322   */\n    tag_404:\n        /* \"#utility.yul\":3354:3418   */\n      tag_406\n        /* \"#utility.yul\":3410:3417   */\n      dup11\n        /* \"#utility.yul\":3401:3407   */\n      dup3\n        /* \"#utility.yul\":3390:3399   */\n      dup12\n        /* \"#utility.yul\":3386:3408   */\n      add\n        /* \"#utility.yul\":3354:3418   */\n      tag_282\n      jump\t// in\n    tag_406:\n        /* \"#utility.yul\":3336:3418   */\n      swap6\n      pop\n      swap6\n      pop\n        /* \"#utility.yul\":3130:3428   */\n      pop\n        /* \"#utility.yul\":3467:3470   */\n      0xa0\n        /* \"#utility.yul\":3494:3547   */\n      tag_407\n        /* \"#utility.yul\":3539:3546   */\n      dup11\n        /* \"#utility.yul\":3530:3536   */\n      dup3\n        /* \"#utility.yul\":3519:3528   */\n      dup12\n        /* \"#utility.yul\":3515:3537   */\n      add\n        /* \"#utility.yul\":3494:3547   */\n      tag_286\n      jump\t// in\n    tag_407:\n        /* \"#utility.yul\":3484:3547   */\n      swap4\n      pop\n        /* \"#utility.yul\":3438:3557   */\n      pop\n        /* \"#utility.yul\":3624:3627   */\n      0xc0\n        /* \"#utility.yul\":3613:3622   */\n      dup9\n        /* \"#utility.yul\":3609:3628   */\n      add\n        /* \"#utility.yul\":3596:3629   */\n      calldataload\n        /* \"#utility.yul\":3656:3674   */\n      0xffffffffffffffff\n        /* \"#utility.yul\":3648:3654   */\n      dup2\n        /* \"#utility.yul\":3645:3675   */\n      gt\n        /* \"#utility.yul\":3642:3759   */\n      iszero\n      tag_408\n      jumpi\n        /* \"#utility.yul\":3678:3757   */\n      tag_409\n      tag_273\n      jump\t// in\n    tag_409:\n        /* \"#utility.yul\":3642:3759   */\n    tag_408:\n        /* \"#utility.yul\":3791:3855   */\n      tag_410\n        /* \"#utility.yul\":3847:3854   */\n      dup11\n        /* \"#utility.yul\":3838:3844   */\n      dup3\n        /* \"#utility.yul\":3827:3836   */\n      dup12\n        /* \"#utility.yul\":3823:3845   */\n      add\n        /* \"#utility.yul\":3791:3855   */\n      tag_282\n      jump\t// in\n    tag_410:\n        /* \"#utility.yul\":3773:3855   */\n      swap3\n      pop\n      swap3\n      pop\n        /* \"#utility.yul\":3567:3865   */\n      pop\n        /* \"#utility.yul\":2515:3872   */\n      swap3\n      swap6\n      swap9\n      swap2\n      swap5\n      swap8\n      pop\n      swap3\n      swap6\n      pop\n      jump\t// out\n        /* \"#utility.yul\":3878:3979   */\n    tag_287:\n        /* \"#utility.yul\":3914:3921   */\n      0x00\n        /* \"#utility.yul\":3954:3972   */\n      0xffffffffffffffff\n        /* \"#utility.yul\":3947:3952   */\n      dup3\n        /* \"#utility.yul\":3943:3973   */\n      and\n        /* \"#utility.yul\":3932:3973   */\n      swap1\n      pop\n        /* \"#utility.yul\":3878:3979   */\n      swap2\n      swap1\n      pop\n      jump\t// out\n        /* \"#utility.yul\":3985:4100   */\n    tag_288:\n        /* \"#utility.yul\":4070:4093   */\n      tag_413\n        /* \"#utility.yul\":4087:4092   */\n      dup2\n        /* \"#utility.yul\":4070:4093   */\n      tag_287\n      jump\t// in\n    tag_413:\n        /* \"#utility.yul\":4065:4068   */\n      dup3\n        /* \"#utility.yul\":4058:4094   */\n      mstore\n        /* \"#utility.yul\":3985:4100   */\n      pop\n      pop\n      jump\t// out\n        /* \"#utility.yul\":4106:4430   */\n    tag_34:\n        /* \"#utility.yul\":4223:4227   */\n      0x00\n        /* \"#utility.yul\":4261:4263   */\n      0x40\n        /* \"#utility.yul\":4250:4259   */\n      dup3\n        /* \"#utility.yul\":4246:4264   */\n      add\n        /* \"#utility.yul\":4238:4264   */\n      swap1\n      pop\n        /* \"#utility.yul\":4274:4343   */\n      tag_415\n        /* \"#utility.yul\":4340:4341   */\n      0x00\n        /* \"#utility.yul\":4329:4338   */\n      dup4\n        /* \"#utility.yul\":4325:4342   */\n      add\n        /* \"#utility.yul\":4316:4322   */\n      dup6\n        /* \"#utility.yul\":4274:4343   */\n      tag_288\n      jump\t// in\n    tag_415:\n        /* \"#utility.yul\":4353:4423   */\n      tag_416\n        /* \"#utility.yul\":4419:4421   */\n      0x20\n        /* \"#utility.yul\":4408:4417   */\n      dup4\n        /* \"#utility.yul\":4404:4422   */\n      add\n        /* \"#utility.yul\":4395:4401   */\n      dup5\n        /* \"#utility.yul\":4353:4423   */\n      tag_288\n      jump\t// in\n    tag_416:\n        /* \"#utility.yul\":4106:4430   */\n      swap4\n      swap3\n      pop\n      pop\n      pop\n      jump\t// out\n        /* \"#utility.yul\":4436:4529   */\n    tag_289:\n        /* \"#utility.yul\":4472:4479   */\n      0x00\n        /* \"#utility.yul\":4512:4522   */\n      0xffffffff\n        /* \"#utility.yul\":4505:4510   */\n      dup3\n        /* \"#utility.yul\":4501:4523   */\n      and\n        /* \"#utility.yul\":4490:4523   */\n      swap1\n      pop\n        /* \"#utility.yul\":4436:4529   */\n      swap2\n      swap1\n      pop\n      jump\t// out\n        /* \"#utility.yul\":4535:4655   */\n    tag_290:\n        /* \"#utility.yul\":4607:4630   */\n      tag_419\n        /* \"#utility.yul\":4624:4629   */\n      dup2\n        /* \"#utility.yul\":4607:4630   */\n      tag_289\n      jump\t// in\n    tag_419:\n        /* \"#utility.yul\":4600:4605   */\n      dup2\n        /* \"#utility.yul\":4597:4631   */\n      eq\n        /* \"#utility.yul\":4587:4649   */\n      tag_420\n      jumpi\n        /* \"#utility.yul\":4645:4646   */\n      0x00\n        /* \"#utility.yul\":4642:4643   */\n      dup1\n        /* \"#utility.yul\":4635:4647   */\n      revert\n        /* \"#utility.yul\":4587:4649   */\n    tag_420:\n        /* \"#utility.yul\":4535:4655   */\n      pop\n      jump\t// out\n        /* \"#utility.yul\":4661:4798   */\n    tag_291:\n        /* \"#utility.yul\":4706:4711   */\n      0x00\n        /* \"#utility.yul\":4744:4750   */\n      dup2\n        /* \"#utility.yul\":4731:4751   */\n      calldataload\n        /* \"#utility.yul\":4722:4751   */\n      swap1\n      pop\n        /* \"#utility.yul\":4760:4792   */\n      tag_422\n        /* \"#utility.yul\":4786:4791   */\n      dup2\n        /* \"#utility.yul\":4760:4792   */\n      tag_290\n      jump\t// in\n    tag_422:\n        /* \"#utility.yul\":4661:4798   */\n      swap3\n      swap2\n      pop\n      pop\n      jump\t// out\n        /* \"#utility.yul\":4804:5276   */\n    tag_38:\n        /* \"#utility.yul\":4871:4877   */\n      0x00\n        /* \"#utility.yul\":4879:4885   */\n      dup1\n        /* \"#utility.yul\":4928:4930   */\n      0x40\n        /* \"#utility.yul\":4916:4925   */\n      dup4\n        /* \"#utility.yul\":4907:4914   */\n      dup6\n        /* \"#utility.yul\":4903:4926   */\n      sub\n        /* \"#utility.yul\":4899:4931   */\n      slt\n        /* \"#utility.yul\":4896:5015   */\n      iszero\n      tag_424\n      jumpi\n        /* \"#utility.yul\":4934:5013   */\n      tag_425\n      tag_272\n      jump\t// in\n    tag_425:\n        /* \"#utility.yul\":4896:5015   */\n    tag_424:\n        /* \"#utility.yul\":5054:5055   */\n      0x00\n        /* \"#utility.yul\":5079:5131   */\n      tag_426\n        /* \"#utility.yul\":5123:5130   */\n      dup6\n        /* \"#utility.yul\":5114:5120   */\n      dup3\n        /* \"#utility.yul\":5103:5112   */\n      dup7\n        /* \"#utility.yul\":5099:5121   */\n      add\n        /* \"#utility.yul\":5079:5131   */\n      tag_291\n      jump\t// in\n    tag_426:\n        /* \"#utility.yul\":5069:5131   */\n      swap3\n      pop\n        /* \"#utility.yul\":5025:5141   */\n      pop\n        /* \"#utility.yul\":5180:5182   */\n      0x20\n        /* \"#utility.yul\":5206:5259   */\n      tag_427\n        /* \"#utility.yul\":5251:5258   */\n      dup6\n        /* \"#utility.yul\":5242:5248   */\n      dup3\n        /* \"#utility.yul\":5231:5240   */\n      dup7\n        /* \"#utility.yul\":5227:5249   */\n      add\n        /* \"#utility.yul\":5206:5259   */\n      tag_278\n      jump\t// in\n    tag_427:\n        /* \"#utility.yul\":5196:5259   */\n      swap2\n      pop\n        /* \"#utility.yul\":5151:5269   */\n      pop\n        /* \"#utility.yul\":4804:5276   */\n      swap3\n      pop\n      swap3\n      swap1\n      pop\n      jump\t// out\n        /* \"#utility.yul\":5282:5381   */\n    tag_292:\n        /* \"#utility.yul\":5334:5340   */\n      0x00\n        /* \"#utility.yul\":5368:5373   */\n      dup2\n        /* \"#utility.yul\":5362:5374   */\n      mload\n        /* \"#utility.yul\":5352:5374   */\n      swap1\n      pop\n        /* \"#utility.yul\":5282:5381   */\n      swap2\n      swap1\n      pop\n      jump\t// out\n        /* \"#utility.yul\":5387:5556   */\n    tag_293:\n        /* \"#utility.yul\":5471:5482   */\n      0x00\n        /* \"#utility.yul\":5505:5511   */\n      dup3\n        /* \"#utility.yul\":5500:5503   */\n      dup3\n        /* \"#utility.yul\":5493:5512   */\n      mstore\n        /* \"#utility.yul\":5545:5549   */\n      0x20\n        /* \"#utility.yul\":5540:5543   */\n      dup3\n        /* \"#utility.yul\":5536:5550   */\n      add\n        /* \"#utility.yul\":5521:5550   */\n      swap1\n      pop\n        /* \"#utility.yul\":5387:5556   */\n      swap3\n      swap2\n      pop\n      pop\n      jump\t// out\n        /* \"#utility.yul\":5562:5810   */\n    tag_294:\n        /* \"#utility.yul\":5644:5645   */\n      0x00\n        /* \"#utility.yul\":5654:5767   */\n    tag_431:\n        /* \"#utility.yul\":5668:5674   */\n      dup4\n        /* \"#utility.yul\":5665:5666   */\n      dup2\n        /* \"#utility.yul\":5662:5675   */\n      lt\n        /* \"#utility.yul\":5654:5767   */\n      iszero\n      tag_433\n      jumpi\n        /* \"#utility.yul\":5753:5754   */\n      dup1\n        /* \"#utility.yul\":5748:5751   */\n      dup3\n        /* \"#utility.yul\":5744:5755   */\n      add\n        /* \"#utility.yul\":5738:5756   */\n      mload\n        /* \"#utility.yul\":5734:5735   */\n      dup2\n        /* \"#utility.yul\":5729:5732   */\n      dup5\n        /* \"#utility.yul\":5725:5736   */\n      add\n        /* \"#utility.yul\":5718:5757   */\n      mstore\n        /* \"#utility.yul\":5690:5692   */\n      0x20\n        /* \"#utility.yul\":5687:5688   */\n      dup2\n        /* \"#utility.yul\":5683:5693   */\n      add\n        /* \"#utility.yul\":5678:5693   */\n      swap1\n      pop\n        /* \"#utility.yul\":5654:5767   */\n      jump(tag_431)\n    tag_433:\n        /* \"#utility.yul\":5801:5802   */\n      0x00\n        /* \"#utility.yul\":5792:5798   */\n      dup5\n        /* \"#utility.yul\":5787:5790   */\n      dup5\n        /* \"#utility.yul\":5783:5799   */\n      add\n        /* \"#utility.yul\":5776:5803   */\n      mstore\n        /* \"#utility.yul\":5624:5810   */\n      pop\n        /* \"#utility.yul\":5562:5810   */\n      pop\n      pop\n      pop\n      jump\t// out\n        /* \"#utility.yul\":5816:5918   */\n    tag_295:\n        /* \"#utility.yul\":5857:5863   */\n      0x00\n        /* \"#utility.yul\":5908:5910   */\n      0x1f\n        /* \"#utility.yul\":5904:5911   */\n      not\n        /* \"#utility.yul\":5899:5901   */\n      0x1f\n        /* \"#utility.yul\":5892:5897   */\n      dup4\n        /* \"#utility.yul\":5888:5902   */\n      add\n        /* \"#utility.yul\":5884:5912   */\n      and\n        /* \"#utility.yul\":5874:5912   */\n      swap1\n      pop\n        /* \"#utility.yul\":5816:5918   */\n      swap2\n      swap1\n      pop\n      jump\t// out\n        /* \"#utility.yul\":5924:6301   */\n    tag_296:\n        /* \"#utility.yul\":6012:6015   */\n      0x00\n        /* \"#utility.yul\":6040:6079   */\n      tag_436\n        /* \"#utility.yul\":6073:6078   */\n      dup3\n        /* \"#utility.yul\":6040:6079   */\n      tag_292\n      jump\t// in\n    tag_436:\n        /* \"#utility.yul\":6095:6166   */\n      tag_437\n        /* \"#utility.yul\":6159:6165   */\n      dup2\n        /* \"#utility.yul\":6154:6157   */\n      dup6\n        /* \"#utility.yul\":6095:6166   */\n      tag_293\n      jump\t// in\n    tag_437:\n        /* \"#utility.yul\":6088:6166   */\n      swap4\n      pop\n        /* \"#utility.yul\":6175:6240   */\n      tag_438\n        /* \"#utility.yul\":6233:6239   */\n      dup2\n        /* \"#utility.yul\":6228:6231   */\n      dup6\n        /* \"#utility.yul\":6221:6225   */\n      0x20\n        /* \"#utility.yul\":6214:6219   */\n      dup7\n        /* \"#utility.yul\":6210:6226   */\n      add\n        /* \"#utility.yul\":6175:6240   */\n      tag_294\n      jump\t// in\n    tag_438:\n        /* \"#utility.yul\":6265:6294   */\n      tag_439\n        /* \"#utility.yul\":6287:6293   */\n      dup2\n        /* \"#utility.yul\":6265:6294   */\n      tag_295\n      jump\t// in\n    tag_439:\n        /* \"#utility.yul\":6260:6263   */\n      dup5\n        /* \"#utility.yul\":6256:6295   */\n      add\n        /* \"#utility.yul\":6249:6295   */\n      swap2\n      pop\n        /* \"#utility.yul\":6016:6301   */\n      pop\n        /* \"#utility.yul\":5924:6301   */\n      swap3\n      swap2\n      pop\n      pop\n      jump\t// out\n        /* \"#utility.yul\":6307:6620   */\n    tag_47:\n        /* \"#utility.yul\":6420:6424   */\n      0x00\n        /* \"#utility.yul\":6458:6460   */\n      0x20\n        /* \"#utility.yul\":6447:6456   */\n      dup3\n        /* \"#utility.yul\":6443:6461   */\n      add\n        /* \"#utility.yul\":6435:6461   */\n      swap1\n      pop\n        /* \"#utility.yul\":6507:6516   */\n      dup2\n        /* \"#utility.yul\":6501:6505   */\n      dup2\n        /* \"#utility.yul\":6497:6517   */\n      sub\n        /* \"#utility.yul\":6493:6494   */\n      0x00\n        /* \"#utility.yul\":6482:6491   */\n      dup4\n        /* \"#utility.yul\":6478:6495   */\n      add\n        /* \"#utility.yul\":6471:6518   */\n      mstore\n        /* \"#utility.yul\":6535:6613   */\n      tag_441\n        /* \"#utility.yul\":6608:6612   */\n      dup2\n        /* \"#utility.yul\":6599:6605   */\n      dup5\n        /* \"#utility.yul\":6535:6613   */\n      tag_296\n      jump\t// in\n    tag_441:\n        /* \"#utility.yul\":6527:6613   */\n      swap1\n      pop\n        /* \"#utility.yul\":6307:6620   */\n      swap3\n      swap2\n      pop\n      pop\n      jump\t// out\n        /* \"#utility.yul\":6626:6703   */\n    tag_297:\n        /* \"#utility.yul\":6663:6670   */\n      0x00\n        /* \"#utility.yul\":6692:6697   */\n      dup2\n        /* \"#utility.yul\":6681:6697   */\n      swap1\n      pop\n        /* \"#utility.yul\":6626:6703   */\n      swap2\n      swap1\n      pop\n      jump\t// out\n        /* \"#utility.yul\":6709:6827   */\n    tag_298:\n        /* \"#utility.yul\":6796:6820   */\n      tag_444\n        /* \"#utility.yul\":6814:6819   */\n      dup2\n        /* \"#utility.yul\":6796:6820   */\n      tag_297\n      jump\t// in\n    tag_444:\n        /* \"#utility.yul\":6791:6794   */\n      dup3\n        /* \"#utility.yul\":6784:6821   */\n      mstore\n        /* \"#utility.yul\":6709:6827   */\n      pop\n      pop\n      jump\t// out\n        /* \"#utility.yul\":6833:7055   */\n    tag_52:\n        /* \"#utility.yul\":6926:6930   */\n      0x00\n        /* \"#utility.yul\":6964:6966   */\n      0x20\n        /* \"#utility.yul\":6953:6962   */\n      dup3\n        /* \"#utility.yul\":6949:6967   */\n      add\n        /* \"#utility.yul\":6941:6967   */\n      swap1\n      pop\n        /* \"#utility.yul\":6977:7048   */\n      tag_446\n        /* \"#utility.yul\":7045:7046   */\n      0x00\n        /* \"#utility.yul\":7034:7043   */\n      dup4\n        /* \"#utility.yul\":7030:7047   */\n      add\n        /* \"#utility.yul\":7021:7027   */\n      dup5\n        /* \"#utility.yul\":6977:7048   */\n      tag_298\n      jump\t// in\n    tag_446:\n        /* \"#utility.yul\":6833:7055   */\n      swap3\n      swap2\n      pop\n      pop\n      jump\t// out\n        /* \"#utility.yul\":7061:7121   */\n    tag_299:\n        /* \"#utility.yul\":7089:7092   */\n      0x00\n        /* \"#utility.yul\":7110:7115   */\n      dup2\n        /* \"#utility.yul\":7103:7115   */\n      swap1\n      pop\n        /* \"#utility.yul\":7061:7121   */\n      swap2\n      swap1\n      pop\n      jump\t// out\n        /* \"#utility.yul\":7127:7269   */\n    tag_300:\n        /* \"#utility.yul\":7177:7186   */\n      0x00\n        /* \"#utility.yul\":7210:7263   */\n      tag_449\n        /* \"#utility.yul\":7228:7262   */\n      tag_450\n        /* \"#utility.yul\":7237:7261   */\n      tag_451\n        /* \"#utility.yul\":7255:7260   */\n      dup5\n        /* \"#utility.yul\":7237:7261   */\n      tag_283\n      jump\t// in\n    tag_451:\n        /* \"#utility.yul\":7228:7262   */\n      tag_299\n      jump\t// in\n    tag_450:\n        /* \"#utility.yul\":7210:7263   */\n      tag_283\n      jump\t// in\n    tag_449:\n        /* \"#utility.yul\":7197:7263   */\n      swap1\n      pop\n        /* \"#utility.yul\":7127:7269   */\n      swap2\n      swap1\n      pop\n      jump\t// out\n        /* \"#utility.yul\":7275:7401   */\n    tag_301:\n        /* \"#utility.yul\":7325:7334   */\n      0x00\n        /* \"#utility.yul\":7358:7395   */\n      tag_453\n        /* \"#utility.yul\":7389:7394   */\n      dup3\n        /* \"#utility.yul\":7358:7395   */\n      tag_300\n      jump\t// in\n    tag_453:\n        /* \"#utility.yul\":7345:7395   */\n      swap1\n      pop\n        /* \"#utility.yul\":7275:7401   */\n      swap2\n      swap1\n      pop\n      jump\t// out\n        /* \"#utility.yul\":7407:7561   */\n    tag_302:\n        /* \"#utility.yul\":7485:7494   */\n      0x00\n        /* \"#utility.yul\":7518:7555   */\n      tag_455\n        /* \"#utility.yul\":7549:7554   */\n      dup3\n        /* \"#utility.yul\":7518:7555   */\n      tag_301\n      jump\t// in\n    tag_455:\n        /* \"#utility.yul\":7505:7555   */\n      swap1\n      pop\n        /* \"#utility.yul\":7407:7561   */\n      swap2\n      swap1\n      pop\n      jump\t// out\n        /* \"#utility.yul\":7567:7754   */\n    tag_303:\n        /* \"#utility.yul\":7682:7747   */\n      tag_457\n        /* \"#utility.yul\":7741:7746   */\n      dup2\n        /* \"#utility.yul\":7682:7747   */\n      tag_302\n      jump\t// in\n    tag_457:\n        /* \"#utility.yul\":7677:7680   */\n      dup3\n        /* \"#utility.yul\":7670:7748   */\n      mstore\n        /* \"#utility.yul\":7567:7754   */\n      pop\n      pop\n      jump\t// out\n        /* \"#utility.yul\":7760:8038   */\n    tag_57:\n        /* \"#utility.yul\":7881:7885   */\n      0x00\n        /* \"#utility.yul\":7919:7921   */\n      0x20\n        /* \"#utility.yul\":7908:7917   */\n      dup3\n        /* \"#utility.yul\":7904:7922   */\n      add\n        /* \"#utility.yul\":7896:7922   */\n      swap1\n      pop\n        /* \"#utility.yul\":7932:8031   */\n      tag_459\n        /* \"#utility.yul\":8028:8029   */\n      0x00\n        /* \"#utility.yul\":8017:8026   */\n      dup4\n        /* \"#utility.yul\":8013:8030   */\n      add\n        /* \"#utility.yul\":8004:8010   */\n      dup5\n        /* \"#utility.yul\":7932:8031   */\n      tag_303\n      jump\t// in\n    tag_459:\n        /* \"#utility.yul\":7760:8038   */\n      swap3\n      swap2\n      pop\n      pop\n      jump\t// out\n        /* \"#utility.yul\":8058:8611   */\n    tag_304:\n        /* \"#utility.yul\":8116:8124   */\n      0x00\n        /* \"#utility.yul\":8126:8132   */\n      dup1\n        /* \"#utility.yul\":8176:8179   */\n      dup4\n        /* \"#utility.yul\":8169:8173   */\n      0x1f\n        /* \"#utility.yul\":8161:8167   */\n      dup5\n        /* \"#utility.yul\":8157:8174   */\n      add\n        /* \"#utility.yul\":8153:8180   */\n      slt\n        /* \"#utility.yul\":8143:8265   */\n      tag_461\n      jumpi\n        /* \"#utility.yul\":8184:8263   */\n      tag_462\n      tag_279\n      jump\t// in\n    tag_462:\n        /* \"#utility.yul\":8143:8265   */\n    tag_461:\n        /* \"#utility.yul\":8297:8303   */\n      dup3\n        /* \"#utility.yul\":8284:8304   */\n      calldataload\n        /* \"#utility.yul\":8274:8304   */\n      swap1\n      pop\n        /* \"#utility.yul\":8327:8345   */\n      0xffffffffffffffff\n        /* \"#utility.yul\":8319:8325   */\n      dup2\n        /* \"#utility.yul\":8316:8346   */\n      gt\n        /* \"#utility.yul\":8313:8430   */\n      iszero\n      tag_463\n      jumpi\n        /* \"#utility.yul\":8349:8428   */\n      tag_464\n      tag_280\n      jump\t// in\n    tag_464:\n        /* \"#utility.yul\":8313:8430   */\n    tag_463:\n        /* \"#utility.yul\":8463:8467   */\n      0x20\n        /* \"#utility.yul\":8455:8461   */\n      dup4\n        /* \"#utility.yul\":8451:8468   */\n      add\n        /* \"#utility.yul\":8439:8468   */\n      swap2\n      pop\n        /* \"#utility.yul\":8517:8520   */\n      dup4\n        /* \"#utility.yul\":8509:8513   */\n      0x01\n        /* \"#utility.yul\":8501:8507   */\n      dup3\n        /* \"#utility.yul\":8497:8514   */\n      mul\n        /* \"#utility.yul\":8487:8495   */\n      dup4\n        /* \"#utility.yul\":8483:8515   */\n      add\n        /* \"#utility.yul\":8480:8521   */\n      gt\n        /* \"#utility.yul\":8477:8605   */\n      iszero\n      tag_465\n      jumpi\n        /* \"#utility.yul\":8524:8603   */\n      tag_466\n      tag_281\n      jump\t// in\n    tag_466:\n        /* \"#utility.yul\":8477:8605   */\n    tag_465:\n        /* \"#utility.yul\":8058:8611   */\n      swap3\n      pop\n      swap3\n      swap1\n      pop\n      jump\t// out\n        /* \"#utility.yul\":8617:9632   */\n    tag_63:\n        /* \"#utility.yul\":8716:8722   */\n      0x00\n        /* \"#utility.yul\":8724:8730   */\n      dup1\n        /* \"#utility.yul\":8732:8738   */\n      0x00\n        /* \"#utility.yul\":8740:8746   */\n      dup1\n        /* \"#utility.yul\":8748:8754   */\n      0x00\n        /* \"#utility.yul\":8797:8799   */\n      0x60\n        /* \"#utility.yul\":8785:8794   */\n      dup7\n        /* \"#utility.yul\":8776:8783   */\n      dup9\n        /* \"#utility.yul\":8772:8795   */\n      sub\n        /* \"#utility.yul\":8768:8800   */\n      slt\n        /* \"#utility.yul\":8765:8884   */\n      iszero\n      tag_468\n      jumpi\n        /* \"#utility.yul\":8803:8882   */\n      tag_469\n      tag_272\n      jump\t// in\n    tag_469:\n        /* \"#utility.yul\":8765:8884   */\n    tag_468:\n        /* \"#utility.yul\":8923:8924   */\n      0x00\n        /* \"#utility.yul\":8948:9000   */\n      tag_470\n        /* \"#utility.yul\":8992:8999   */\n      dup9\n        /* \"#utility.yul\":8983:8989   */\n      dup3\n        /* \"#utility.yul\":8972:8981   */\n      dup10\n        /* \"#utility.yul\":8968:8990   */\n      add\n        /* \"#utility.yul\":8948:9000   */\n      tag_291\n      jump\t// in\n    tag_470:\n        /* \"#utility.yul\":8938:9000   */\n      swap6\n      pop\n        /* \"#utility.yul\":8894:9010   */\n      pop\n        /* \"#utility.yul\":9077:9079   */\n      0x20\n        /* \"#utility.yul\":9066:9075   */\n      dup7\n        /* \"#utility.yul\":9062:9080   */\n      add\n        /* \"#utility.yul\":9049:9081   */\n      calldataload\n        /* \"#utility.yul\":9108:9126   */\n      0xffffffffffffffff\n        /* \"#utility.yul\":9100:9106   */\n      dup2\n        /* \"#utility.yul\":9097:9127   */\n      gt\n        /* \"#utility.yul\":9094:9211   */\n      iszero\n      tag_471\n      jumpi\n        /* \"#utility.yul\":9130:9209   */\n      tag_472\n      tag_273\n      jump\t// in\n    tag_472:\n        /* \"#utility.yul\":9094:9211   */\n    tag_471:\n        /* \"#utility.yul\":9243:9308   */\n      tag_473\n        /* \"#utility.yul\":9300:9307   */\n      dup9\n        /* \"#utility.yul\":9291:9297   */\n      dup3\n        /* \"#utility.yul\":9280:9289   */\n      dup10\n        /* \"#utility.yul\":9276:9298   */\n      add\n        /* \"#utility.yul\":9243:9308   */\n      tag_304\n      jump\t// in\n    tag_473:\n        /* \"#utility.yul\":9225:9308   */\n      swap5\n      pop\n      swap5\n      pop\n        /* \"#utility.yul\":9020:9318   */\n      pop\n        /* \"#utility.yul\":9385:9387   */\n      0x40\n        /* \"#utility.yul\":9374:9383   */\n      dup7\n        /* \"#utility.yul\":9370:9388   */\n      add\n        /* \"#utility.yul\":9357:9389   */\n      calldataload\n        /* \"#utility.yul\":9416:9434   */\n      0xffffffffffffffff\n        /* \"#utility.yul\":9408:9414   */\n      dup2\n        /* \"#utility.yul\":9405:9435   */\n      gt\n        /* \"#utility.yul\":9402:9519   */\n      iszero\n      tag_474\n      jumpi\n        /* \"#utility.yul\":9438:9517   */\n      tag_475\n      tag_273\n      jump\t// in\n    tag_475:\n        /* \"#utility.yul\":9402:9519   */\n    tag_474:\n        /* \"#utility.yul\":9551:9615   */\n      tag_476\n        /* \"#utility.yul\":9607:9614   */\n      dup9\n        /* \"#utility.yul\":9598:9604   */\n      dup3\n        /* \"#utility.yul\":9587:9596   */\n      dup10\n        /* \"#utility.yul\":9583:9605   */\n      add\n        /* \"#utility.yul\":9551:9615   */\n      tag_282\n      jump\t// in\n    tag_476:\n        /* \"#utility.yul\":9533:9615   */\n      swap3\n      pop\n      swap3\n      pop\n        /* \"#utility.yul\":9328:9625   */\n      pop\n        /* \"#utility.yul\":8617:9632   */\n      swap3\n      swap6\n      pop\n      swap3\n      swap6\n      swap1\n      swap4\n      pop\n      jump\t// out\n        /* \"#utility.yul\":9638:9856   */\n    tag_70:\n        /* \"#utility.yul\":9729:9733   */\n      0x00\n        /* \"#utility.yul\":9767:9769   */\n      0x20\n        /* \"#utility.yul\":9756:9765   */\n      dup3\n        /* \"#utility.yul\":9752:9770   */\n      add\n        /* \"#utility.yul\":9744:9770   */\n      swap1\n      pop\n        /* \"#utility.yul\":9780:9849   */\n      tag_478\n        /* \"#utility.yul\":9846:9847   */\n      0x00\n        /* \"#utility.yul\":9835:9844   */\n      dup4\n        /* \"#utility.yul\":9831:9848   */\n      add\n        /* \"#utility.yul\":9822:9828   */\n      dup5\n        /* \"#utility.yul\":9780:9849   */\n      tag_288\n      jump\t// in\n    tag_478:\n        /* \"#utility.yul\":9638:9856   */\n      swap3\n      swap2\n      pop\n      pop\n      jump\t// out\n        /* \"#utility.yul\":9862:10729   */\n    tag_74:\n        /* \"#utility.yul\":9974:9980   */\n      0x00\n        /* \"#utility.yul\":9982:9988   */\n      dup1\n        /* \"#utility.yul\":9990:9996   */\n      0x00\n        /* \"#utility.yul\":9998:10004   */\n      dup1\n        /* \"#utility.yul\":10047:10050   */\n      0xa0\n        /* \"#utility.yul\":10035:10044   */\n      dup6\n        /* \"#utility.yul\":10026:10033   */\n      dup8\n        /* \"#utility.yul\":10022:10045   */\n      sub\n        /* \"#utility.yul\":10018:10051   */\n      slt\n        /* \"#utility.yul\":10015:10135   */\n      iszero\n      tag_480\n      jumpi\n        /* \"#utility.yul\":10054:10133   */\n      tag_481\n      tag_272\n      jump\t// in\n    tag_481:\n        /* \"#utility.yul\":10015:10135   */\n    tag_480:\n        /* \"#utility.yul\":10174:10175   */\n      0x00\n        /* \"#utility.yul\":10199:10276   */\n      tag_482\n        /* \"#utility.yul\":10268:10275   */\n      dup8\n        /* \"#utility.yul\":10259:10265   */\n      dup3\n        /* \"#utility.yul\":10248:10257   */\n      dup9\n        /* \"#utility.yul\":10244:10266   */\n      add\n        /* \"#utility.yul\":10199:10276   */\n      tag_275\n      jump\t// in\n    tag_482:\n        /* \"#utility.yul\":10189:10276   */\n      swap5\n      pop\n        /* \"#utility.yul\":10145:10286   */\n      pop\n        /* \"#utility.yul\":10353:10355   */\n      0x60\n        /* \"#utility.yul\":10342:10351   */\n      dup6\n        /* \"#utility.yul\":10338:10356   */\n      add\n        /* \"#utility.yul\":10325:10357   */\n      calldataload\n        /* \"#utility.yul\":10384:10402   */\n      0xffffffffffffffff\n        /* \"#utility.yul\":10376:10382   */\n      dup2\n        /* \"#utility.yul\":10373:10403   */\n      gt\n        /* \"#utility.yul\":10370:10487   */\n      iszero\n      tag_483\n      jumpi\n        /* \"#utility.yul\":10406:10485   */\n      tag_484\n      tag_273\n      jump\t// in\n    tag_484:\n        /* \"#utility.yul\":10370:10487   */\n    tag_483:\n        /* \"#utility.yul\":10519:10583   */\n      tag_485\n        /* \"#utility.yul\":10575:10582   */\n      dup8\n        /* \"#utility.yul\":10566:10572   */\n      dup3\n        /* \"#utility.yul\":10555:10564   */\n      dup9\n        /* \"#utility.yul\":10551:10573   */\n      add\n        /* \"#utility.yul\":10519:10583   */\n      tag_282\n      jump\t// in\n    tag_485:\n        /* \"#utility.yul\":10501:10583   */\n      swap4\n      pop\n      swap4\n      pop\n        /* \"#utility.yul\":10296:10593   */\n      pop\n        /* \"#utility.yul\":10632:10635   */\n      0x80\n        /* \"#utility.yul\":10659:10712   */\n      tag_486\n        /* \"#utility.yul\":10704:10711   */\n      dup8\n        /* \"#utility.yul\":10695:10701   */\n      dup3\n        /* \"#utility.yul\":10684:10693   */\n      dup9\n        /* \"#utility.yul\":10680:10702   */\n      add\n        /* \"#utility.yul\":10659:10712   */\n      tag_286\n      jump\t// in\n    tag_486:\n        /* \"#utility.yul\":10649:10712   */\n      swap2\n      pop\n        /* \"#utility.yul\":10603:10722   */\n      pop\n        /* \"#utility.yul\":9862:10729   */\n      swap3\n      swap6\n      swap2\n      swap5\n      pop\n      swap3\n      pop\n      jump\t// out\n        /* \"#utility.yul\":10735:10825   */\n    tag_305:\n        /* \"#utility.yul\":10769:10776   */\n      0x00\n        /* \"#utility.yul\":10812:10817   */\n      dup2\n        /* \"#utility.yul\":10805:10818   */\n      iszero\n        /* \"#utility.yul\":10798:10819   */\n      iszero\n        /* \"#utility.yul\":10787:10819   */\n      swap1\n      pop\n        /* \"#utility.yul\":10735:10825   */\n      swap2\n      swap1\n      pop\n      jump\t// out\n        /* \"#utility.yul\":10831:10940   */\n    tag_306:\n        /* \"#utility.yul\":10912:10933   */\n      tag_489\n        /* \"#utility.yul\":10927:10932   */\n      dup2\n        /* \"#utility.yul\":10912:10933   */\n      tag_305\n      jump\t// in\n    tag_489:\n        /* \"#utility.yul\":10907:10910   */\n      dup3\n        /* \"#utility.yul\":10900:10934   */\n      mstore\n        /* \"#utility.yul\":10831:10940   */\n      pop\n      pop\n      jump\t// out\n        /* \"#utility.yul\":10946:11156   */\n    tag_77:\n        /* \"#utility.yul\":11033:11037   */\n      0x00\n        /* \"#utility.yul\":11071:11073   */\n      0x20\n        /* \"#utility.yul\":11060:11069   */\n      dup3\n        /* \"#utility.yul\":11056:11074   */\n      add\n        /* \"#utility.yul\":11048:11074   */\n      swap1\n      pop\n        /* \"#utility.yul\":11084:11149   */\n      tag_491\n        /* \"#utility.yul\":11146:11147   */\n      0x00\n        /* \"#utility.yul\":11135:11144   */\n      dup4\n        /* \"#utility.yul\":11131:11148   */\n      add\n        /* \"#utility.yul\":11122:11128   */\n      dup5\n        /* \"#utility.yul\":11084:11149   */\n      tag_306\n      jump\t// in\n    tag_491:\n        /* \"#utility.yul\":10946:11156   */\n      swap3\n      swap2\n      pop\n      pop\n      jump\t// out\n        /* \"#utility.yul\":11162:11280   */\n    tag_307:\n        /* \"#utility.yul\":11249:11273   */\n      tag_493\n        /* \"#utility.yul\":11267:11272   */\n      dup2\n        /* \"#utility.yul\":11249:11273   */\n      tag_284\n      jump\t// in\n    tag_493:\n        /* \"#utility.yul\":11244:11247   */\n      dup3\n        /* \"#utility.yul\":11237:11274   */\n      mstore\n        /* \"#utility.yul\":11162:11280   */\n      pop\n      pop\n      jump\t// out\n        /* \"#utility.yul\":11286:11508   */\n    tag_82:\n        /* \"#utility.yul\":11379:11383   */\n      0x00\n        /* \"#utility.yul\":11417:11419   */\n      0x20\n        /* \"#utility.yul\":11406:11415   */\n      dup3\n        /* \"#utility.yul\":11402:11420   */\n      add\n        /* \"#utility.yul\":11394:11420   */\n      swap1\n      pop\n        /* \"#utility.yul\":11430:11501   */\n      tag_495\n        /* \"#utility.yul\":11498:11499   */\n      0x00\n        /* \"#utility.yul\":11487:11496   */\n      dup4\n        /* \"#utility.yul\":11483:11500   */\n      add\n        /* \"#utility.yul\":11474:11480   */\n      dup5\n        /* \"#utility.yul\":11430:11501   */\n      tag_307\n      jump\t// in\n    tag_495:\n        /* \"#utility.yul\":11286:11508   */\n      swap3\n      swap2\n      pop\n      pop\n      jump\t// out\n        /* \"#utility.yul\":11514:11841   */\n    tag_86:\n        /* \"#utility.yul\":11572:11578   */\n      0x00\n        /* \"#utility.yul\":11621:11623   */\n      0x20\n        /* \"#utility.yul\":11609:11618   */\n      dup3\n        /* \"#utility.yul\":11600:11607   */\n      dup5\n        /* \"#utility.yul\":11596:11619   */\n      sub\n        /* \"#utility.yul\":11592:11624   */\n      slt\n        /* \"#utility.yul\":11589:11708   */\n      iszero\n      tag_497\n      jumpi\n        /* \"#utility.yul\":11627:11706   */\n      tag_498\n      tag_272\n      jump\t// in\n    tag_498:\n        /* \"#utility.yul\":11589:11708   */\n    tag_497:\n        /* \"#utility.yul\":11747:11748   */\n      0x00\n        /* \"#utility.yul\":11772:11824   */\n      tag_499\n        /* \"#utility.yul\":11816:11823   */\n      dup5\n        /* \"#utility.yul\":11807:11813   */\n      dup3\n        /* \"#utility.yul\":11796:11805   */\n      dup6\n        /* \"#utility.yul\":11792:11814   */\n      add\n        /* \"#utility.yul\":11772:11824   */\n      tag_291\n      jump\t// in\n    tag_499:\n        /* \"#utility.yul\":11762:11824   */\n      swap2\n      pop\n        /* \"#utility.yul\":11718:11834   */\n      pop\n        /* \"#utility.yul\":11514:11841   */\n      swap3\n      swap2\n      pop\n      pop\n      jump\t// out\n        /* \"#utility.yul\":11847:11965   */\n    tag_308:\n        /* \"#utility.yul\":11934:11958   */\n      tag_501\n        /* \"#utility.yul\":11952:11957   */\n      dup2\n        /* \"#utility.yul\":11934:11958   */\n      tag_276\n      jump\t// in\n    tag_501:\n        /* \"#utility.yul\":11929:11932   */\n      dup3\n        /* \"#utility.yul\":11922:11959   */\n      mstore\n        /* \"#utility.yul\":11847:11965   */\n      pop\n      pop\n      jump\t// out\n        /* \"#utility.yul\":11971:12193   */\n    tag_89:\n        /* \"#utility.yul\":12064:12068   */\n      0x00\n        /* \"#utility.yul\":12102:12104   */\n      0x20\n        /* \"#utility.yul\":12091:12100   */\n      dup3\n        /* \"#utility.yul\":12087:12105   */\n      add\n        /* \"#utility.yul\":12079:12105   */\n      swap1\n      pop\n        /* \"#utility.yul\":12115:12186   */\n      tag_503\n        /* \"#utility.yul\":12183:12184   */\n      0x00\n        /* \"#utility.yul\":12172:12181   */\n      dup4\n        /* \"#utility.yul\":12168:12185   */\n      add\n        /* \"#utility.yul\":12159:12165   */\n      dup5\n        /* \"#utility.yul\":12115:12186   */\n      tag_308\n      jump\t// in\n    tag_503:\n        /* \"#utility.yul\":11971:12193   */\n      swap3\n      swap2\n      pop\n      pop\n      jump\t// out\n        /* \"#utility.yul\":12199:12321   */\n    tag_309:\n        /* \"#utility.yul\":12272:12296   */\n      tag_505\n        /* \"#utility.yul\":12290:12295   */\n      dup2\n        /* \"#utility.yul\":12272:12296   */\n      tag_297\n      jump\t// in\n    tag_505:\n        /* \"#utility.yul\":12265:12270   */\n      dup2\n        /* \"#utility.yul\":12262:12297   */\n      eq\n        /* \"#utility.yul\":12252:12315   */\n      tag_506\n      jumpi\n        /* \"#utility.yul\":12311:12312   */\n      0x00\n        /* \"#utility.yul\":12308:12309   */\n      dup1\n        /* \"#utility.yul\":12301:12313   */\n      revert\n        /* \"#utility.yul\":12252:12315   */\n    tag_506:\n        /* \"#utility.yul\":12199:12321   */\n      pop\n      jump\t// out\n        /* \"#utility.yul\":12327:12466   */\n    tag_310:\n        /* \"#utility.yul\":12373:12378   */\n      0x00\n        /* \"#utility.yul\":12411:12417   */\n      dup2\n        /* \"#utility.yul\":12398:12418   */\n      calldataload\n        /* \"#utility.yul\":12389:12418   */\n      swap1\n      pop\n        /* \"#utility.yul\":12427:12460   */\n      tag_508\n        /* \"#utility.yul\":12454:12459   */\n      dup2\n        /* \"#utility.yul\":12427:12460   */\n      tag_309\n      jump\t// in\n    tag_508:\n        /* \"#utility.yul\":12327:12466   */\n      swap3\n      swap2\n      pop\n      pop\n      jump\t// out\n        /* \"#utility.yul\":12472:12801   */\n    tag_93:\n        /* \"#utility.yul\":12531:12537   */\n      0x00\n        /* \"#utility.yul\":12580:12582   */\n      0x20\n        /* \"#utility.yul\":12568:12577   */\n      dup3\n        /* \"#utility.yul\":12559:12566   */\n      dup5\n        /* \"#utility.yul\":12555:12578   */\n      sub\n        /* \"#utility.yul\":12551:12583   */\n      slt\n        /* \"#utility.yul\":12548:12667   */\n      iszero\n      tag_510\n      jumpi\n        /* \"#utility.yul\":12586:12665   */\n      tag_511\n      tag_272\n      jump\t// in\n    tag_511:\n        /* \"#utility.yul\":12548:12667   */\n    tag_510:\n        /* \"#utility.yul\":12706:12707   */\n      0x00\n        /* \"#utility.yul\":12731:12784   */\n      tag_512\n        /* \"#utility.yul\":12776:12783   */\n      dup5\n        /* \"#utility.yul\":12767:12773   */\n      dup3\n        /* \"#utility.yul\":12756:12765   */\n      dup6\n        /* \"#utility.yul\":12752:12774   */\n      add\n        /* \"#utility.yul\":12731:12784   */\n      tag_310\n      jump\t// in\n    tag_512:\n        /* \"#utility.yul\":12721:12784   */\n      swap2\n      pop\n        /* \"#utility.yul\":12677:12794   */\n      pop\n        /* \"#utility.yul\":12472:12801   */\n      swap3\n      swap2\n      pop\n      pop\n      jump\t// out\n        /* \"#utility.yul\":12807:13136   */\n    tag_99:\n        /* \"#utility.yul\":12866:12872   */\n      0x00\n        /* \"#utility.yul\":12915:12917   */\n      0x20\n        /* \"#utility.yul\":12903:12912   */\n      dup3\n        /* \"#utility.yul\":12894:12901   */\n      dup5\n        /* \"#utility.yul\":12890:12913   */\n      sub\n        /* \"#utility.yul\":12886:12918   */\n      slt\n        /* \"#utility.yul\":12883:13002   */\n      iszero\n      tag_514\n      jumpi\n        /* \"#utility.yul\":12921:13000   */\n      tag_515\n      tag_272\n      jump\t// in\n    tag_515:\n        /* \"#utility.yul\":12883:13002   */\n    tag_514:\n        /* \"#utility.yul\":13041:13042   */\n      0x00\n        /* \"#utility.yul\":13066:13119   */\n      tag_516\n        /* \"#utility.yul\":13111:13118   */\n      dup5\n        /* \"#utility.yul\":13102:13108   */\n      dup3\n        /* \"#utility.yul\":13091:13100   */\n      dup6\n        /* \"#utility.yul\":13087:13109   */\n      add\n        /* \"#utility.yul\":13066:13119   */\n      tag_286\n      jump\t// in\n    tag_516:\n        /* \"#utility.yul\":13056:13119   */\n      swap2\n      pop\n        /* \"#utility.yul\":13012:13129   */\n      pop\n        /* \"#utility.yul\":12807:13136   */\n      swap3\n      swap2\n      pop\n      pop\n      jump\t// out\n        /* \"#utility.yul\":13142:13258   */\n    tag_311:\n        /* \"#utility.yul\":13212:13233   */\n      tag_518\n        /* \"#utility.yul\":13227:13232   */\n      dup2\n        /* \"#utility.yul\":13212:13233   */\n      tag_305\n      jump\t// in\n    tag_518:\n        /* \"#utility.yul\":13205:13210   */\n      dup2\n        /* \"#utility.yul\":13202:13234   */\n      eq\n        /* \"#utility.yul\":13192:13252   */\n      tag_519\n      jumpi\n        /* \"#utility.yul\":13248:13249   */\n      0x00\n        /* \"#utility.yul\":13245:13246   */\n      dup1\n        /* \"#utility.yul\":13238:13250   */\n      revert\n        /* \"#utility.yul\":13192:13252   */\n    tag_519:\n        /* \"#utility.yul\":13142:13258   */\n      pop\n      jump\t// out\n        /* \"#utility.yul\":13264:13397   */\n    tag_312:\n        /* \"#utility.yul\":13307:13312   */\n      0x00\n        /* \"#utility.yul\":13345:13351   */\n      dup2\n        /* \"#utility.yul\":13332:13352   */\n      calldataload\n        /* \"#utility.yul\":13323:13352   */\n      swap1\n      pop\n        /* \"#utility.yul\":13361:13391   */\n      tag_521\n        /* \"#utility.yul\":13385:13390   */\n      dup2\n        /* \"#utility.yul\":13361:13391   */\n      tag_311\n      jump\t// in\n    tag_521:\n        /* \"#utility.yul\":13264:13397   */\n      swap3\n      swap2\n      pop\n      pop\n      jump\t// out\n        /* \"#utility.yul\":13403:14558   */\n    tag_108:\n        /* \"#utility.yul\":13508:13514   */\n      0x00\n        /* \"#utility.yul\":13516:13522   */\n      dup1\n        /* \"#utility.yul\":13524:13530   */\n      0x00\n        /* \"#utility.yul\":13532:13538   */\n      dup1\n        /* \"#utility.yul\":13540:13546   */\n      0x00\n        /* \"#utility.yul\":13548:13554   */\n      dup1\n        /* \"#utility.yul\":13597:13600   */\n      0x80\n        /* \"#utility.yul\":13585:13594   */\n      dup8\n        /* \"#utility.yul\":13576:13583   */\n      dup10\n        /* \"#utility.yul\":13572:13595   */\n      sub\n        /* \"#utility.yul\":13568:13601   */\n      slt\n        /* \"#utility.yul\":13565:13685   */\n      iszero\n      tag_523\n      jumpi\n        /* \"#utility.yul\":13604:13683   */\n      tag_524\n      tag_272\n      jump\t// in\n    tag_524:\n        /* \"#utility.yul\":13565:13685   */\n    tag_523:\n        /* \"#utility.yul\":13724:13725   */\n      0x00\n        /* \"#utility.yul\":13749:13801   */\n      tag_525\n        /* \"#utility.yul\":13793:13800   */\n      dup10\n        /* \"#utility.yul\":13784:13790   */\n      dup3\n        /* \"#utility.yul\":13773:13782   */\n      dup11\n        /* \"#utility.yul\":13769:13791   */\n      add\n        /* \"#utility.yul\":13749:13801   */\n      tag_291\n      jump\t// in\n    tag_525:\n        /* \"#utility.yul\":13739:13801   */\n      swap7\n      pop\n        /* \"#utility.yul\":13695:13811   */\n      pop\n        /* \"#utility.yul\":13878:13880   */\n      0x20\n        /* \"#utility.yul\":13867:13876   */\n      dup8\n        /* \"#utility.yul\":13863:13881   */\n      add\n        /* \"#utility.yul\":13850:13882   */\n      calldataload\n        /* \"#utility.yul\":13909:13927   */\n      0xffffffffffffffff\n        /* \"#utility.yul\":13901:13907   */\n      dup2\n        /* \"#utility.yul\":13898:13928   */\n      gt\n        /* \"#utility.yul\":13895:14012   */\n      iszero\n      tag_526\n      jumpi\n        /* \"#utility.yul\":13931:14010   */\n      tag_527\n      tag_273\n      jump\t// in\n    tag_527:\n        /* \"#utility.yul\":13895:14012   */\n    tag_526:\n        /* \"#utility.yul\":14044:14109   */\n      tag_528\n        /* \"#utility.yul\":14101:14108   */\n      dup10\n        /* \"#utility.yul\":14092:14098   */\n      dup3\n        /* \"#utility.yul\":14081:14090   */\n      dup11\n        /* \"#utility.yul\":14077:14099   */\n      add\n        /* \"#utility.yul\":14044:14109   */\n      tag_304\n      jump\t// in\n    tag_528:\n        /* \"#utility.yul\":14026:14109   */\n      swap6\n      pop\n      swap6\n      pop\n        /* \"#utility.yul\":13821:14119   */\n      pop\n        /* \"#utility.yul\":14186:14188   */\n      0x40\n        /* \"#utility.yul\":14175:14184   */\n      dup8\n        /* \"#utility.yul\":14171:14189   */\n      add\n        /* \"#utility.yul\":14158:14190   */\n      calldataload\n        /* \"#utility.yul\":14217:14235   */\n      0xffffffffffffffff\n        /* \"#utility.yul\":14209:14215   */\n      dup2\n        /* \"#utility.yul\":14206:14236   */\n      gt\n        /* \"#utility.yul\":14203:14320   */\n      iszero\n      tag_529\n      jumpi\n        /* \"#utility.yul\":14239:14318   */\n      tag_530\n      tag_273\n      jump\t// in\n    tag_530:\n        /* \"#utility.yul\":14203:14320   */\n    tag_529:\n        /* \"#utility.yul\":14352:14416   */\n      tag_531\n        /* \"#utility.yul\":14408:14415   */\n      dup10\n        /* \"#utility.yul\":14399:14405   */\n      dup3\n        /* \"#utility.yul\":14388:14397   */\n      dup11\n        /* \"#utility.yul\":14384:14406   */\n      add\n        /* \"#utility.yul\":14352:14416   */\n      tag_282\n      jump\t// in\n    tag_531:\n        /* \"#utility.yul\":14334:14416   */\n      swap4\n      pop\n      swap4\n      pop\n        /* \"#utility.yul\":14129:14426   */\n      pop\n        /* \"#utility.yul\":14465:14467   */\n      0x60\n        /* \"#utility.yul\":14491:14541   */\n      tag_532\n        /* \"#utility.yul\":14533:14540   */\n      dup10\n        /* \"#utility.yul\":14524:14530   */\n      dup3\n        /* \"#utility.yul\":14513:14522   */\n      dup11\n        /* \"#utility.yul\":14509:14531   */\n      add\n        /* \"#utility.yul\":14491:14541   */\n      tag_312\n      jump\t// in\n    tag_532:\n        /* \"#utility.yul\":14481:14541   */\n      swap2\n      pop\n        /* \"#utility.yul\":14436:14551   */\n      pop\n        /* \"#utility.yul\":13403:14558   */\n      swap3\n      swap6\n      pop\n      swap3\n      swap6\n      pop\n      swap3\n      swap6\n      jump\t// out\n        /* \"#utility.yul\":14564:14672   */\n    tag_313:\n        /* \"#utility.yul\":14641:14665   */\n      tag_534\n        /* \"#utility.yul\":14659:14664   */\n      dup2\n        /* \"#utility.yul\":14641:14665   */\n      tag_297\n      jump\t// in\n    tag_534:\n        /* \"#utility.yul\":14636:14639   */\n      dup3\n        /* \"#utility.yul\":14629:14666   */\n      mstore\n        /* \"#utility.yul\":14564:14672   */\n      pop\n      pop\n      jump\t// out\n        /* \"#utility.yul\":14728:15252   */\n    tag_314:\n        /* \"#utility.yul\":14881:14885   */\n      0x40\n        /* \"#utility.yul\":14876:14879   */\n      dup3\n        /* \"#utility.yul\":14872:14886   */\n      add\n        /* \"#utility.yul\":14973:14977   */\n      0x00\n        /* \"#utility.yul\":14966:14971   */\n      dup3\n        /* \"#utility.yul\":14962:14978   */\n      add\n        /* \"#utility.yul\":14956:14979   */\n      mload\n        /* \"#utility.yul\":14992:15055   */\n      tag_536\n        /* \"#utility.yul\":15049:15053   */\n      0x00\n        /* \"#utility.yul\":15044:15047   */\n      dup6\n        /* \"#utility.yul\":15040:15054   */\n      add\n        /* \"#utility.yul\":15026:15038   */\n      dup3\n        /* \"#utility.yul\":14992:15055   */\n      tag_313\n      jump\t// in\n    tag_536:\n        /* \"#utility.yul\":14896:15065   */\n      pop\n        /* \"#utility.yul\":15153:15157   */\n      0x20\n        /* \"#utility.yul\":15146:15151   */\n      dup3\n        /* \"#utility.yul\":15142:15158   */\n      add\n        /* \"#utility.yul\":15136:15159   */\n      mload\n        /* \"#utility.yul\":15172:15235   */\n      tag_537\n        /* \"#utility.yul\":15229:15233   */\n      0x20\n        /* \"#utility.yul\":15224:15227   */\n      dup6\n        /* \"#utility.yul\":15220:15234   */\n      add\n        /* \"#utility.yul\":15206:15218   */\n      dup3\n        /* \"#utility.yul\":15172:15235   */\n      tag_313\n      jump\t// in\n    tag_537:\n        /* \"#utility.yul\":15075:15245   */\n      pop\n        /* \"#utility.yul\":14850:15252   */\n      pop\n        /* \"#utility.yul\":14728:15252   */\n      pop\n      pop\n      jump\t// out\n        /* \"#utility.yul\":15258:15592   */\n    tag_111:\n        /* \"#utility.yul\":15407:15411   */\n      0x00\n        /* \"#utility.yul\":15445:15447   */\n      0x40\n        /* \"#utility.yul\":15434:15443   */\n      dup3\n        /* \"#utility.yul\":15430:15448   */\n      add\n        /* \"#utility.yul\":15422:15448   */\n      swap1\n      pop\n        /* \"#utility.yul\":15458:15585   */\n      tag_539\n        /* \"#utility.yul\":15582:15583   */\n      0x00\n        /* \"#utility.yul\":15571:15580   */\n      dup4\n        /* \"#utility.yul\":15567:15584   */\n      add\n        /* \"#utility.yul\":15558:15564   */\n      dup5\n        /* \"#utility.yul\":15458:15585   */\n      tag_314\n      jump\t// in\n    tag_539:\n        /* \"#utility.yul\":15258:15592   */\n      swap3\n      swap2\n      pop\n      pop\n      jump\t// out\n        /* \"#utility.yul\":15598:15975   */\n    tag_115:\n        /* \"#utility.yul\":15681:15687   */\n      0x00\n        /* \"#utility.yul\":15730:15732   */\n      0x60\n        /* \"#utility.yul\":15718:15727   */\n      dup3\n        /* \"#utility.yul\":15709:15716   */\n      dup5\n        /* \"#utility.yul\":15705:15728   */\n      sub\n        /* \"#utility.yul\":15701:15733   */\n      slt\n        /* \"#utility.yul\":15698:15817   */\n      iszero\n      tag_541\n      jumpi\n        /* \"#utility.yul\":15736:15815   */\n      tag_542\n      tag_272\n      jump\t// in\n    tag_542:\n        /* \"#utility.yul\":15698:15817   */\n    tag_541:\n        /* \"#utility.yul\":15856:15857   */\n      0x00\n        /* \"#utility.yul\":15881:15958   */\n      tag_543\n        /* \"#utility.yul\":15950:15957   */\n      dup5\n        /* \"#utility.yul\":15941:15947   */\n      dup3\n        /* \"#utility.yul\":15930:15939   */\n      dup6\n        /* \"#utility.yul\":15926:15948   */\n      add\n        /* \"#utility.yul\":15881:15958   */\n      tag_275\n      jump\t// in\n    tag_543:\n        /* \"#utility.yul\":15871:15958   */\n      swap2\n      pop\n        /* \"#utility.yul\":15827:15968   */\n      pop\n        /* \"#utility.yul\":15598:15975   */\n      swap3\n      swap2\n      pop\n      pop\n      jump\t// out\n        /* \"#utility.yul\":15981:16096   */\n    tag_315:\n        /* \"#utility.yul\":16066:16089   */\n      tag_545\n        /* \"#utility.yul\":16083:16088   */\n      dup2\n        /* \"#utility.yul\":16066:16089   */\n      tag_289\n      jump\t// in\n    tag_545:\n        /* \"#utility.yul\":16061:16064   */\n      dup3\n        /* \"#utility.yul\":16054:16090   */\n      mstore\n        /* \"#utility.yul\":15981:16096   */\n      pop\n      pop\n      jump\t// out\n        /* \"#utility.yul\":16102:16430   */\n    tag_127:\n        /* \"#utility.yul\":16221:16225   */\n      0x00\n        /* \"#utility.yul\":16259:16261   */\n      0x40\n        /* \"#utility.yul\":16248:16257   */\n      dup3\n        /* \"#utility.yul\":16244:16262   */\n      add\n        /* \"#utility.yul\":16236:16262   */\n      swap1\n      pop\n        /* \"#utility.yul\":16272:16341   */\n      tag_547\n        /* \"#utility.yul\":16338:16339   */\n      0x00\n        /* \"#utility.yul\":16327:16336   */\n      dup4\n        /* \"#utility.yul\":16323:16340   */\n      add\n        /* \"#utility.yul\":16314:16320   */\n      dup6\n        /* \"#utility.yul\":16272:16341   */\n      tag_315\n      jump\t// in\n    tag_547:\n        /* \"#utility.yul\":16351:16423   */\n      tag_548\n        /* \"#utility.yul\":16419:16421   */\n      0x20\n        /* \"#utility.yul\":16408:16417   */\n      dup4\n        /* \"#utility.yul\":16404:16422   */\n      add\n        /* \"#utility.yul\":16395:16401   */\n      dup5\n        /* \"#utility.yul\":16351:16423   */\n      tag_308\n      jump\t// in\n    tag_548:\n        /* \"#utility.yul\":16102:16430   */\n      swap4\n      swap3\n      pop\n      pop\n      pop\n      jump\t// out\n        /* \"#utility.yul\":16436:16608   */\n    tag_316:\n        /* \"#utility.yul\":16576:16600   */\n      0x4e6f2062616c616e636520746f20776974686472617700000000000000000000\n        /* \"#utility.yul\":16572:16573   */\n      0x00\n        /* \"#utility.yul\":16564:16570   */\n      dup3\n        /* \"#utility.yul\":16560:16574   */\n      add\n        /* \"#utility.yul\":16553:16601   */\n      mstore\n        /* \"#utility.yul\":16436:16608   */\n      pop\n      jump\t// out\n        /* \"#utility.yul\":16614:16980   */\n    tag_317:\n        /* \"#utility.yul\":16756:16759   */\n      0x00\n        /* \"#utility.yul\":16777:16844   */\n      tag_551\n        /* \"#utility.yul\":16841:16843   */\n      0x16\n        /* \"#utility.yul\":16836:16839   */\n      dup4\n        /* \"#utility.yul\":16777:16844   */\n      tag_293\n      jump\t// in\n    tag_551:\n        /* \"#utility.yul\":16770:16844   */\n      swap2\n      pop\n        /* \"#utility.yul\":16853:16946   */\n      tag_552\n        /* \"#utility.yul\":16942:16945   */\n      dup3\n        /* \"#utility.yul\":16853:16946   */\n      tag_316\n      jump\t// in\n    tag_552:\n        /* \"#utility.yul\":16971:16973   */\n      0x20\n        /* \"#utility.yul\":16966:16969   */\n      dup3\n        /* \"#utility.yul\":16962:16974   */\n      add\n        /* \"#utility.yul\":16955:16974   */\n      swap1\n      pop\n        /* \"#utility.yul\":16614:16980   */\n      swap2\n      swap1\n      pop\n      jump\t// out\n        /* \"#utility.yul\":16986:17405   */\n    tag_142:\n        /* \"#utility.yul\":17152:17156   */\n      0x00\n        /* \"#utility.yul\":17190:17192   */\n      0x20\n        /* \"#utility.yul\":17179:17188   */\n      dup3\n        /* \"#utility.yul\":17175:17193   */\n      add\n        /* \"#utility.yul\":17167:17193   */\n      swap1\n      pop\n        /* \"#utility.yul\":17239:17248   */\n      dup2\n        /* \"#utility.yul\":17233:17237   */\n      dup2\n        /* \"#utility.yul\":17229:17249   */\n      sub\n        /* \"#utility.yul\":17225:17226   */\n      0x00\n        /* \"#utility.yul\":17214:17223   */\n      dup4\n        /* \"#utility.yul\":17210:17227   */\n      add\n        /* \"#utility.yul\":17203:17250   */\n      mstore\n        /* \"#utility.yul\":17267:17398   */\n      tag_554\n        /* \"#utility.yul\":17393:17397   */\n      dup2\n        /* \"#utility.yul\":17267:17398   */\n      tag_317\n      jump\t// in\n    tag_554:\n        /* \"#utility.yul\":17259:17398   */\n      swap1\n      pop\n        /* \"#utility.yul\":16986:17405   */\n      swap2\n      swap1\n      pop\n      jump\t// out\n        /* \"#utility.yul\":17411:17577   */\n    tag_318:\n        /* \"#utility.yul\":17551:17569   */\n      0x4e6f206d657373616765732073656e7400000000000000000000000000000000\n        /* \"#utility.yul\":17547:17548   */\n      0x00\n        /* \"#utility.yul\":17539:17545   */\n      dup3\n        /* \"#utility.yul\":17535:17549   */\n      add\n        /* \"#utility.yul\":17528:17570   */\n      mstore\n        /* \"#utility.yul\":17411:17577   */\n      pop\n      jump\t// out\n        /* \"#utility.yul\":17583:17949   */\n    tag_319:\n        /* \"#utility.yul\":17725:17728   */\n      0x00\n        /* \"#utility.yul\":17746:17813   */\n      tag_557\n        /* \"#utility.yul\":17810:17812   */\n      0x10\n        /* \"#utility.yul\":17805:17808   */\n      dup4\n        /* \"#utility.yul\":17746:17813   */\n      tag_293\n      jump\t// in\n    tag_557:\n        /* \"#utility.yul\":17739:17813   */\n      swap2\n      pop\n        /* \"#utility.yul\":17822:17915   */\n      tag_558\n        /* \"#utility.yul\":17911:17914   */\n      dup3\n        /* \"#utility.yul\":17822:17915   */\n      tag_318\n      jump\t// in\n    tag_558:\n        /* \"#utility.yul\":17940:17942   */\n      0x20\n        /* \"#utility.yul\":17935:17938   */\n      dup3\n        /* \"#utility.yul\":17931:17943   */\n      add\n        /* \"#utility.yul\":17924:17943   */\n      swap1\n      pop\n        /* \"#utility.yul\":17583:17949   */\n      swap2\n      swap1\n      pop\n      jump\t// out\n        /* \"#utility.yul\":17955:18374   */\n    tag_149:\n        /* \"#utility.yul\":18121:18125   */\n      0x00\n        /* \"#utility.yul\":18159:18161   */\n      0x20\n        /* \"#utility.yul\":18148:18157   */\n      dup3\n        /* \"#utility.yul\":18144:18162   */\n      add\n        /* \"#utility.yul\":18136:18162   */\n      swap1\n      pop\n        /* \"#utility.yul\":18208:18217   */\n      dup2\n        /* \"#utility.yul\":18202:18206   */\n      dup2\n        /* \"#utility.yul\":18198:18218   */\n      sub\n        /* \"#utility.yul\":18194:18195   */\n      0x00\n        /* \"#utility.yul\":18183:18192   */\n      dup4\n        /* \"#utility.yul\":18179:18196   */\n      add\n        /* \"#utility.yul\":18172:18219   */\n      mstore\n        /* \"#utility.yul\":18236:18367   */\n      tag_560\n        /* \"#utility.yul\":18362:18366   */\n      dup2\n        /* \"#utility.yul\":18236:18367   */\n      tag_319\n      jump\t// in\n    tag_560:\n        /* \"#utility.yul\":18228:18367   */\n      swap1\n      pop\n        /* \"#utility.yul\":17955:18374   */\n      swap2\n      swap1\n      pop\n      jump\t// out\n        /* \"#utility.yul\":18380:18560   */\n    tag_320:\n        /* \"#utility.yul\":18428:18505   */\n      0x4e487b7100000000000000000000000000000000000000000000000000000000\n        /* \"#utility.yul\":18425:18426   */\n      0x00\n        /* \"#utility.yul\":18418:18506   */\n      mstore\n        /* \"#utility.yul\":18525:18529   */\n      0x22\n        /* \"#utility.yul\":18522:18523   */\n      0x04\n        /* \"#utility.yul\":18515:18530   */\n      mstore\n        /* \"#utility.yul\":18549:18553   */\n      0x24\n        /* \"#utility.yul\":18546:18547   */\n      0x00\n        /* \"#utility.yul\":18539:18554   */\n      revert\n        /* \"#utility.yul\":18566:18886   */\n    tag_151:\n        /* \"#utility.yul\":18610:18616   */\n      0x00\n        /* \"#utility.yul\":18647:18648   */\n      0x02\n        /* \"#utility.yul\":18641:18645   */\n      dup3\n        /* \"#utility.yul\":18637:18649   */\n      div\n        /* \"#utility.yul\":18627:18649   */\n      swap1\n      pop\n        /* \"#utility.yul\":18694:18695   */\n      0x01\n        /* \"#utility.yul\":18688:18692   */\n      dup3\n        /* \"#utility.yul\":18684:18696   */\n      and\n        /* \"#utility.yul\":18715:18733   */\n      dup1\n        /* \"#utility.yul\":18705:18786   */\n      tag_563\n      jumpi\n        /* \"#utility.yul\":18771:18775   */\n      0x7f\n        /* \"#utility.yul\":18763:18769   */\n      dup3\n        /* \"#utility.yul\":18759:18776   */\n      and\n        /* \"#utility.yul\":18749:18776   */\n      swap2\n      pop\n        /* \"#utility.yul\":18705:18786   */\n    tag_563:\n        /* \"#utility.yul\":18833:18835   */\n      0x20\n        /* \"#utility.yul\":18825:18831   */\n      dup3\n        /* \"#utility.yul\":18822:18836   */\n      lt\n        /* \"#utility.yul\":18802:18820   */\n      dup2\n        /* \"#utility.yul\":18799:18837   */\n      sub\n        /* \"#utility.yul\":18796:18880   */\n      tag_564\n      jumpi\n        /* \"#utility.yul\":18852:18870   */\n      tag_565\n      tag_320\n      jump\t// in\n    tag_565:\n        /* \"#utility.yul\":18796:18880   */\n    tag_564:\n        /* \"#utility.yul\":18617:18886   */\n      pop\n        /* \"#utility.yul\":18566:18886   */\n      swap2\n      swap1\n      pop\n      jump\t// out\n        /* \"#utility.yul\":18892:19040   */\n    tag_321:\n        /* \"#utility.yul\":18990:18996   */\n      dup3\n        /* \"#utility.yul\":18985:18988   */\n      dup2\n        /* \"#utility.yul\":18980:18983   */\n      dup4\n        /* \"#utility.yul\":18967:18997   */\n      calldatacopy\n        /* \"#utility.yul\":19031:19032   */\n      0x00\n        /* \"#utility.yul\":19022:19028   */\n      dup4\n        /* \"#utility.yul\":19017:19020   */\n      dup4\n        /* \"#utility.yul\":19013:19029   */\n      add\n        /* \"#utility.yul\":19006:19033   */\n      mstore\n        /* \"#utility.yul\":18892:19040   */\n      pop\n      pop\n      pop\n      jump\t// out\n        /* \"#utility.yul\":19070:19387   */\n    tag_322:\n        /* \"#utility.yul\":19168:19171   */\n      0x00\n        /* \"#utility.yul\":19189:19260   */\n      tag_568\n        /* \"#utility.yul\":19253:19259   */\n      dup4\n        /* \"#utility.yul\":19248:19251   */\n      dup6\n        /* \"#utility.yul\":19189:19260   */\n      tag_293\n      jump\t// in\n    tag_568:\n        /* \"#utility.yul\":19182:19260   */\n      swap4\n      pop\n        /* \"#utility.yul\":19270:19326   */\n      tag_569\n        /* \"#utility.yul\":19319:19325   */\n      dup4\n        /* \"#utility.yul\":19314:19317   */\n      dup6\n        /* \"#utility.yul\":19307:19312   */\n      dup5\n        /* \"#utility.yul\":19270:19326   */\n      tag_321\n      jump\t// in\n    tag_569:\n        /* \"#utility.yul\":19351:19380   */\n      tag_570\n        /* \"#utility.yul\":19373:19379   */\n      dup4\n        /* \"#utility.yul\":19351:19380   */\n      tag_295\n      jump\t// in\n    tag_570:\n        /* \"#utility.yul\":19346:19349   */\n      dup5\n        /* \"#utility.yul\":19342:19381   */\n      add\n        /* \"#utility.yul\":19335:19381   */\n      swap1\n      pop\n        /* \"#utility.yul\":19070:19387   */\n      swap4\n      swap3\n      pop\n      pop\n      pop\n      jump\t// out\n        /* \"#utility.yul\":19393:19836   */\n    tag_163:\n        /* \"#utility.yul\":19544:19548   */\n      0x00\n        /* \"#utility.yul\":19582:19584   */\n      0x40\n        /* \"#utility.yul\":19571:19580   */\n      dup3\n        /* \"#utility.yul\":19567:19585   */\n      add\n        /* \"#utility.yul\":19559:19585   */\n      swap1\n      pop\n        /* \"#utility.yul\":19631:19640   */\n      dup2\n        /* \"#utility.yul\":19625:19629   */\n      dup2\n        /* \"#utility.yul\":19621:19641   */\n      sub\n        /* \"#utility.yul\":19617:19618   */\n      0x00\n        /* \"#utility.yul\":19606:19615   */\n      dup4\n        /* \"#utility.yul\":19602:19619   */\n      add\n        /* \"#utility.yul\":19595:19642   */\n      mstore\n        /* \"#utility.yul\":19659:19747   */\n      tag_572\n        /* \"#utility.yul\":19742:19746   */\n      dup2\n        /* \"#utility.yul\":19733:19739   */\n      dup6\n        /* \"#utility.yul\":19725:19731   */\n      dup8\n        /* \"#utility.yul\":19659:19747   */\n      tag_322\n      jump\t// in\n    tag_572:\n        /* \"#utility.yul\":19651:19747   */\n      swap1\n      pop\n        /* \"#utility.yul\":19757:19829   */\n      tag_573\n        /* \"#utility.yul\":19825:19827   */\n      0x20\n        /* \"#utility.yul\":19814:19823   */\n      dup4\n        /* \"#utility.yul\":19810:19828   */\n      add\n        /* \"#utility.yul\":19801:19807   */\n      dup5\n        /* \"#utility.yul\":19757:19829   */\n      tag_307\n      jump\t// in\n    tag_573:\n        /* \"#utility.yul\":19393:19836   */\n      swap5\n      swap4\n      pop\n      pop\n      pop\n      pop\n      jump\t// out\n        /* \"#utility.yul\":19842:20008   */\n    tag_323:\n        /* \"#utility.yul\":19982:20000   */\n      0x496e73756666696369656e742066656500000000000000000000000000000000\n        /* \"#utility.yul\":19978:19979   */\n      0x00\n        /* \"#utility.yul\":19970:19976   */\n      dup3\n        /* \"#utility.yul\":19966:19980   */\n      add\n        /* \"#utility.yul\":19959:20001   */\n      mstore\n        /* \"#utility.yul\":19842:20008   */\n      pop\n      jump\t// out\n        /* \"#utility.yul\":20014:20380   */\n    tag_324:\n        /* \"#utility.yul\":20156:20159   */\n      0x00\n        /* \"#utility.yul\":20177:20244   */\n      tag_576\n        /* \"#utility.yul\":20241:20243   */\n      0x10\n        /* \"#utility.yul\":20236:20239   */\n      dup4\n        /* \"#utility.yul\":20177:20244   */\n      tag_293\n      jump\t// in\n    tag_576:\n        /* \"#utility.yul\":20170:20244   */\n      swap2\n      pop\n        /* \"#utility.yul\":20253:20346   */\n      tag_577\n        /* \"#utility.yul\":20342:20345   */\n      dup3\n        /* \"#utility.yul\":20253:20346   */\n      tag_323\n      jump\t// in\n    tag_577:\n        /* \"#utility.yul\":20371:20373   */\n      0x20\n        /* \"#utility.yul\":20366:20369   */\n      dup3\n        /* \"#utility.yul\":20362:20374   */\n      add\n        /* \"#utility.yul\":20355:20374   */\n      swap1\n      pop\n        /* \"#utility.yul\":20014:20380   */\n      swap2\n      swap1\n      pop\n      jump\t// out\n        /* \"#utility.yul\":20386:20805   */\n    tag_168:\n        /* \"#utility.yul\":20552:20556   */\n      0x00\n        /* \"#utility.yul\":20590:20592   */\n      0x20\n        /* \"#utility.yul\":20579:20588   */\n      dup3\n        /* \"#utility.yul\":20575:20593   */\n      add\n        /* \"#utility.yul\":20567:20593   */\n      swap1\n      pop\n        /* \"#utility.yul\":20639:20648   */\n      dup2\n        /* \"#utility.yul\":20633:20637   */\n      dup2\n        /* \"#utility.yul\":20629:20649   */\n      sub\n        /* \"#utility.yul\":20625:20626   */\n      0x00\n        /* \"#utility.yul\":20614:20623   */\n      dup4\n        /* \"#utility.yul\":20610:20627   */\n      add\n        /* \"#utility.yul\":20603:20650   */\n      mstore\n        /* \"#utility.yul\":20667:20798   */\n      tag_579\n        /* \"#utility.yul\":20793:20797   */\n      dup2\n        /* \"#utility.yul\":20667:20798   */\n      tag_324\n      jump\t// in\n    tag_579:\n        /* \"#utility.yul\":20659:20798   */\n      swap1\n      pop\n        /* \"#utility.yul\":20386:20805   */\n      swap2\n      swap1\n      pop\n      jump\t// out\n        /* \"#utility.yul\":20811:20991   */\n    tag_325:\n        /* \"#utility.yul\":20859:20936   */\n      0x4e487b7100000000000000000000000000000000000000000000000000000000\n        /* \"#utility.yul\":20856:20857   */\n      0x00\n        /* \"#utility.yul\":20849:20937   */\n      mstore\n        /* \"#utility.yul\":20956:20960   */\n      0x11\n        /* \"#utility.yul\":20953:20954   */\n      0x04\n        /* \"#utility.yul\":20946:20961   */\n      mstore\n        /* \"#utility.yul\":20980:20984   */\n      0x24\n        /* \"#utility.yul\":20977:20978   */\n      0x00\n        /* \"#utility.yul\":20970:20985   */\n      revert\n        /* \"#utility.yul\":20997:21230   */\n    tag_172:\n        /* \"#utility.yul\":21036:21039   */\n      0x00\n        /* \"#utility.yul\":21059:21083   */\n      tag_582\n        /* \"#utility.yul\":21077:21082   */\n      dup3\n        /* \"#utility.yul\":21059:21083   */\n      tag_297\n      jump\t// in\n    tag_582:\n        /* \"#utility.yul\":21050:21083   */\n      swap2\n      pop\n        /* \"#utility.yul\":21105:21171   */\n      0xffffffffffffffffffffffffffffffffffffffffffffffffffffffffffffffff\n        /* \"#utility.yul\":21098:21103   */\n      dup3\n        /* \"#utility.yul\":21095:21172   */\n      sub\n        /* \"#utility.yul\":21092:21195   */\n      tag_583\n      jumpi\n        /* \"#utility.yul\":21175:21193   */\n      tag_584\n      tag_325\n      jump\t// in\n    tag_584:\n        /* \"#utility.yul\":21092:21195   */\n    tag_583:\n        /* \"#utility.yul\":21222:21223   */\n      0x01\n        /* \"#utility.yul\":21215:21220   */\n      dup3\n        /* \"#utility.yul\":21211:21224   */\n      add\n        /* \"#utility.yul\":21204:21224   */\n      swap1\n      pop\n        /* \"#utility.yul\":20997:21230   */\n      swap2\n      swap1\n      pop\n      jump\t// out\n        /* \"#utility.yul\":21236:21333   */\n    tag_326:\n        /* \"#utility.yul\":21295:21301   */\n      0x00\n        /* \"#utility.yul\":21323:21326   */\n      dup3\n        /* \"#utility.yul\":21313:21326   */\n      swap1\n      pop\n        /* \"#utility.yul\":21236:21333   */\n      swap3\n      swap2\n      pop\n      pop\n      jump\t// out\n        /* \"#utility.yul\":21339:21519   */\n    tag_327:\n        /* \"#utility.yul\":21387:21464   */\n      0x4e487b7100000000000000000000000000000000000000000000000000000000\n        /* \"#utility.yul\":21384:21385   */\n      0x00\n        /* \"#utility.yul\":21377:21465   */\n      mstore\n        /* \"#utility.yul\":21484:21488   */\n      0x41\n        /* \"#utility.yul\":21481:21482   */\n      0x04\n        /* \"#utility.yul\":21474:21489   */\n      mstore\n        /* \"#utility.yul\":21508:21512   */\n      0x24\n        /* \"#utility.yul\":21505:21506   */\n      0x00\n        /* \"#utility.yul\":21498:21513   */\n      revert\n        /* \"#utility.yul\":21525:21666   */\n    tag_328:\n        /* \"#utility.yul\":21574:21578   */\n      0x00\n        /* \"#utility.yul\":21597:21600   */\n      dup2\n        /* \"#utility.yul\":21589:21600   */\n      swap1\n      pop\n        /* \"#utility.yul\":21620:21623   */\n      dup2\n        /* \"#utility.yul\":21617:21618   */\n      0x00\n        /* \"#utility.yul\":21610:21624   */\n      mstore\n        /* \"#utility.yul\":21654:21658   */\n      0x20\n        /* \"#utility.yul\":21651:21652   */\n      0x00\n        /* \"#utility.yul\":21641:21659   */\n      keccak256\n        /* \"#utility.yul\":21633:21659   */\n      swap1\n      pop\n        /* \"#utility.yul\":21525:21666   */\n      swap2\n      swap1\n      pop\n      jump\t// out\n        /* \"#utility.yul\":21672:21765   */\n    tag_329:\n        /* \"#utility.yul\":21709:21715   */\n      0x00\n        /* \"#utility.yul\":21756:21758   */\n      0x20\n        /* \"#utility.yul\":21751:21753   */\n      0x1f\n        /* \"#utility.yul\":21744:21749   */\n      dup4\n        /* \"#utility.yul\":21740:21754   */\n      add\n        /* \"#utility.yul\":21736:21759   */\n      div\n        /* \"#utility.yul\":21726:21759   */\n      swap1\n      pop\n        /* \"#utility.yul\":21672:21765   */\n      swap2\n      swap1\n      pop\n      jump\t// out\n        /* \"#utility.yul\":21771:21878   */\n    tag_330:\n        /* \"#utility.yul\":21815:21823   */\n      0x00\n        /* \"#utility.yul\":21865:21870   */\n      dup3\n        /* \"#utility.yul\":21859:21863   */\n      dup3\n        /* \"#utility.yul\":21855:21871   */\n      shl\n        /* \"#utility.yul\":21834:21871   */\n      swap1\n      pop\n        /* \"#utility.yul\":21771:21878   */\n      swap3\n      swap2\n      pop\n      pop\n      jump\t// out\n        /* \"#utility.yul\":21884:22277   */\n    tag_331:\n        /* \"#utility.yul\":21953:21959   */\n      0x00\n        /* \"#utility.yul\":22003:22004   */\n      0x08\n        /* \"#utility.yul\":21991:22001   */\n      dup4\n        /* \"#utility.yul\":21987:22005   */\n      mul\n        /* \"#utility.yul\":22026:22123   */\n      tag_591\n        /* \"#utility.yul\":22056:22122   */\n      0xffffffffffffffffffffffffffffffffffffffffffffffffffffffffffffffff\n        /* \"#utility.yul\":22045:22054   */\n      dup3\n        /* \"#utility.yul\":22026:22123   */\n      tag_330\n      jump\t// in\n    tag_591:\n        /* \"#utility.yul\":22144:22183   */\n      tag_592\n        /* \"#utility.yul\":22174:22182   */\n      dup7\n        /* \"#utility.yul\":22163:22172   */\n      dup4\n        /* \"#utility.yul\":22144:22183   */\n      tag_330\n      jump\t// in\n    tag_592:\n        /* \"#utility.yul\":22132:22183   */\n      swap6\n      pop\n        /* \"#utility.yul\":22216:22220   */\n      dup1\n        /* \"#utility.yul\":22212:22221   */\n      not\n        /* \"#utility.yul\":22205:22210   */\n      dup5\n        /* \"#utility.yul\":22201:22222   */\n      and\n        /* \"#utility.yul\":22192:22222   */\n      swap4\n      pop\n        /* \"#utility.yul\":22265:22269   */\n      dup1\n        /* \"#utility.yul\":22255:22263   */\n      dup7\n        /* \"#utility.yul\":22251:22270   */\n      and\n        /* \"#utility.yul\":22244:22249   */\n      dup5\n        /* \"#utility.yul\":22241:22271   */\n      or\n        /* \"#utility.yul\":22231:22271   */\n      swap3\n      pop\n        /* \"#utility.yul\":21960:22277   */\n      pop\n      pop\n        /* \"#utility.yul\":21884:22277   */\n      swap4\n      swap3\n      pop\n      pop\n      pop\n      jump\t// out\n        /* \"#utility.yul\":22283:22425   */\n    tag_332:\n        /* \"#utility.yul\":22333:22342   */\n      0x00\n        /* \"#utility.yul\":22366:22419   */\n      tag_594\n        /* \"#utility.yul\":22384:22418   */\n      tag_595\n        /* \"#utility.yul\":22393:22417   */\n      tag_596\n        /* \"#utility.yul\":22411:22416   */\n      dup5\n        /* \"#utility.yul\":22393:22417   */\n      tag_297\n      jump\t// in\n    tag_596:\n        /* \"#utility.yul\":22384:22418   */\n      tag_299\n      jump\t// in\n    tag_595:\n        /* \"#utility.yul\":22366:22419   */\n      tag_297\n      jump\t// in\n    tag_594:\n        /* \"#utility.yul\":22353:22419   */\n      swap1\n      pop\n        /* \"#utility.yul\":22283:22425   */\n      swap2\n      swap1\n      pop\n      jump\t// out\n        /* \"#utility.yul\":22431:22506   */\n    tag_333:\n        /* \"#utility.yul\":22474:22477   */\n      0x00\n        /* \"#utility.yul\":22495:22500   */\n      dup2\n        /* \"#utility.yul\":22488:22500   */\n      swap1\n      pop\n        /* \"#utility.yul\":22431:22506   */\n      swap2\n      swap1\n      pop\n      jump\t// out\n        /* \"#utility.yul\":22512:22781   */\n    tag_334:\n        /* \"#utility.yul\":22622:22661   */\n      tag_599\n        /* \"#utility.yul\":22653:22660   */\n      dup4\n        /* \"#utility.yul\":22622:22661   */\n      tag_332\n      jump\t// in\n    tag_599:\n        /* \"#utility.yul\":22683:22774   */\n      tag_600\n        /* \"#utility.yul\":22732:22773   */\n      tag_601\n        /* \"#utility.yul\":22756:22772   */\n      dup3\n        /* \"#utility.yul\":22732:22773   */\n      tag_333\n      jump\t// in\n    tag_601:\n        /* \"#utility.yul\":22724:22730   */\n      dup5\n        /* \"#utility.yul\":22717:22721   */\n      dup5\n        /* \"#utility.yul\":22711:22722   */\n      sload\n        /* \"#utility.yul\":22683:22774   */\n      tag_331\n      jump\t// in\n    tag_600:\n        /* \"#utility.yul\":22677:22681   */\n      dup3\n        /* \"#utility.yul\":22670:22775   */\n      sstore\n        /* \"#utility.yul\":22588:22781   */\n      pop\n        /* \"#utility.yul\":22512:22781   */\n      pop\n      pop\n      pop\n      jump\t// out\n        /* \"#utility.yul\":22787:22860   */\n    tag_335:\n        /* \"#utility.yul\":22832:22835   */\n      0x00\n        /* \"#utility.yul\":22787:22860   */\n      swap1\n      jump\t// out\n        /* \"#utility.yul\":22866:23055   */\n    tag_336:\n        /* \"#utility.yul\":22943:22975   */\n      tag_604\n      tag_335\n      jump\t// in\n    tag_604:\n        /* \"#utility.yul\":22984:23049   */\n      tag_605\n        /* \"#utility.yul\":23042:23048   */\n      dup2\n        /* \"#utility.yul\":23034:23040   */\n      dup5\n        /* \"#utility.yul\":23028:23032   */\n      dup5\n        /* \"#utility.yul\":22984:23049   */\n      tag_334\n      jump\t// in\n    tag_605:\n        /* \"#utility.yul\":22919:23055   */\n      pop\n        /* \"#utility.yul\":22866:23055   */\n      pop\n      pop\n      jump\t// out\n        /* \"#utility.yul\":23061:23247   */\n    tag_337:\n        /* \"#utility.yul\":23121:23241   */\n    tag_607:\n        /* \"#utility.yul\":23138:23141   */\n      dup2\n        /* \"#utility.yul\":23131:23136   */\n      dup2\n        /* \"#utility.yul\":23128:23142   */\n      lt\n        /* \"#utility.yul\":23121:23241   */\n      iszero\n      tag_609\n      jumpi\n        /* \"#utility.yul\":23192:23231   */\n      tag_610\n        /* \"#utility.yul\":23229:23230   */\n      0x00\n        /* \"#utility.yul\":23222:23227   */\n      dup3\n        /* \"#utility.yul\":23192:23231   */\n      tag_336\n      jump\t// in\n    tag_610:\n        /* \"#utility.yul\":23165:23166   */\n      0x01\n        /* \"#utility.yul\":23158:23163   */\n      dup2\n        /* \"#utility.yul\":23154:23167   */\n      add\n        /* \"#utility.yul\":23145:23167   */\n      swap1\n      pop\n        /* \"#utility.yul\":23121:23241   */\n      jump(tag_607)\n    tag_609:\n        /* \"#utility.yul\":23061:23247   */\n      pop\n      pop\n      jump\t// out\n        /* \"#utility.yul\":23253:23796   */\n    tag_338:\n        /* \"#utility.yul\":23354:23356   */\n      0x1f\n        /* \"#utility.yul\":23349:23352   */\n      dup3\n        /* \"#utility.yul\":23346:23357   */\n      gt\n        /* \"#utility.yul\":23343:23789   */\n      iszero\n      tag_612\n      jumpi\n        /* \"#utility.yul\":23388:23426   */\n      tag_613\n        /* \"#utility.yul\":23420:23425   */\n      dup2\n        /* \"#utility.yul\":23388:23426   */\n      tag_328\n      jump\t// in\n    tag_613:\n        /* \"#utility.yul\":23472:23501   */\n      tag_614\n        /* \"#utility.yul\":23490:23500   */\n      dup5\n        /* \"#utility.yul\":23472:23501   */\n      tag_329\n      jump\t// in\n    tag_614:\n        /* \"#utility.yul\":23462:23470   */\n      dup2\n        /* \"#utility.yul\":23458:23502   */\n      add\n        /* \"#utility.yul\":23655:23657   */\n      0x20\n        /* \"#utility.yul\":23643:23653   */\n      dup6\n        /* \"#utility.yul\":23640:23658   */\n      lt\n        /* \"#utility.yul\":23637:23686   */\n      iszero\n      tag_615\n      jumpi\n        /* \"#utility.yul\":23676:23684   */\n      dup2\n        /* \"#utility.yul\":23661:23684   */\n      swap1\n      pop\n        /* \"#utility.yul\":23637:23686   */\n    tag_615:\n        /* \"#utility.yul\":23699:23779   */\n      tag_616\n        /* \"#utility.yul\":23755:23777   */\n      tag_617\n        /* \"#utility.yul\":23773:23776   */\n      dup6\n        /* \"#utility.yul\":23755:23777   */\n      tag_329\n      jump\t// in\n    tag_617:\n        /* \"#utility.yul\":23745:23753   */\n      dup4\n        /* \"#utility.yul\":23741:23778   */\n      add\n        /* \"#utility.yul\":23728:23739   */\n      dup3\n        /* \"#utility.yul\":23699:23779   */\n      tag_337\n      jump\t// in\n    tag_616:\n        /* \"#utility.yul\":23358:23789   */\n      pop\n      pop\n        /* \"#utility.yul\":23343:23789   */\n    tag_612:\n        /* \"#utility.yul\":23253:23796   */\n      pop\n      pop\n      pop\n      jump\t// out\n        /* \"#utility.yul\":23802:23919   */\n    tag_339:\n        /* \"#utility.yul\":23856:23864   */\n      0x00\n        /* \"#utility.yul\":23906:23911   */\n      dup3\n        /* \"#utility.yul\":23900:23904   */\n      dup3\n        /* \"#utility.yul\":23896:23912   */\n      shr\n        /* \"#utility.yul\":23875:23912   */\n      swap1\n      pop\n        /* \"#utility.yul\":23802:23919   */\n      swap3\n      swap2\n      pop\n      pop\n      jump\t// out\n        /* \"#utility.yul\":23925:24094   */\n    tag_340:\n        /* \"#utility.yul\":23969:23975   */\n      0x00\n        /* \"#utility.yul\":24002:24053   */\n      tag_620\n        /* \"#utility.yul\":24050:24051   */\n      0x00\n        /* \"#utility.yul\":24046:24052   */\n      not\n        /* \"#utility.yul\":24038:24043   */\n      dup5\n        /* \"#utility.yul\":24035:24036   */\n      0x08\n        /* \"#utility.yul\":24031:24044   */\n      mul\n        /* \"#utility.yul\":24002:24053   */\n      tag_339\n      jump\t// in\n    tag_620:\n        /* \"#utility.yul\":23998:24054   */\n      not\n        /* \"#utility.yul\":24083:24087   */\n      dup1\n        /* \"#utility.yul\":24077:24081   */\n      dup4\n        /* \"#utility.yul\":24073:24088   */\n      and\n        /* \"#utility.yul\":24063:24088   */\n      swap2\n      pop\n        /* \"#utility.yul\":23976:24094   */\n      pop\n        /* \"#utility.yul\":23925:24094   */\n      swap3\n      swap2\n      pop\n      pop\n      jump\t// out\n        /* \"#utility.yul\":24099:24394   */\n    tag_341:\n        /* \"#utility.yul\":24175:24179   */\n      0x00\n        /* \"#utility.yul\":24321:24350   */\n      tag_622\n        /* \"#utility.yul\":24346:24349   */\n      dup4\n        /* \"#utility.yul\":24340:24344   */\n      dup4\n        /* \"#utility.yul\":24321:24350   */\n      tag_340\n      jump\t// in\n    tag_622:\n        /* \"#utility.yul\":24313:24350   */\n      swap2\n      pop\n        /* \"#utility.yul\":24383:24386   */\n      dup3\n        /* \"#utility.yul\":24380:24381   */\n      0x02\n        /* \"#utility.yul\":24376:24387   */\n      mul\n        /* \"#utility.yul\":24370:24374   */\n      dup3\n        /* \"#utility.yul\":24367:24388   */\n      or\n        /* \"#utility.yul\":24359:24388   */\n      swap1\n      pop\n        /* \"#utility.yul\":24099:24394   */\n      swap3\n      swap2\n      pop\n      pop\n      jump\t// out\n        /* \"#utility.yul\":24399:25802   */\n    tag_174:\n        /* \"#utility.yul\":24523:24567   */\n      tag_624\n        /* \"#utility.yul\":24563:24566   */\n      dup4\n        /* \"#utility.yul\":24558:24561   */\n      dup4\n        /* \"#utility.yul\":24523:24567   */\n      tag_326\n      jump\t// in\n    tag_624:\n        /* \"#utility.yul\":24632:24650   */\n      0xffffffffffffffff\n        /* \"#utility.yul\":24624:24630   */\n      dup2\n        /* \"#utility.yul\":24621:24651   */\n      gt\n        /* \"#utility.yul\":24618:24674   */\n      iszero\n      tag_625\n      jumpi\n        /* \"#utility.yul\":24654:24672   */\n      tag_626\n      tag_327\n      jump\t// in\n    tag_626:\n        /* \"#utility.yul\":24618:24674   */\n    tag_625:\n        /* \"#utility.yul\":24698:24736   */\n      tag_627\n        /* \"#utility.yul\":24730:24734   */\n      dup3\n        /* \"#utility.yul\":24724:24735   */\n      sload\n        /* \"#utility.yul\":24698:24736   */\n      tag_151\n      jump\t// in\n    tag_627:\n        /* \"#utility.yul\":24783:24850   */\n      tag_628\n        /* \"#utility.yul\":24843:24849   */\n      dup3\n        /* \"#utility.yul\":24835:24841   */\n      dup3\n        /* \"#utility.yul\":24829:24833   */\n      dup6\n        /* \"#utility.yul\":24783:24850   */\n      tag_338\n      jump\t// in\n    tag_628:\n        /* \"#utility.yul\":24877:24878   */\n      0x00\n        /* \"#utility.yul\":24906:24908   */\n      0x1f\n        /* \"#utility.yul\":24898:24904   */\n      dup4\n        /* \"#utility.yul\":24895:24909   */\n      gt\n        /* \"#utility.yul\":24923:24924   */\n      0x01\n        /* \"#utility.yul\":24918:25550   */\n      dup2\n      eq\n      tag_630\n      jumpi\n        /* \"#utility.yul\":25594:25595   */\n      0x00\n        /* \"#utility.yul\":25611:25617   */\n      dup5\n        /* \"#utility.yul\":25608:25692   */\n      iszero\n      tag_631\n      jumpi\n        /* \"#utility.yul\":25667:25676   */\n      dup3\n        /* \"#utility.yul\":25662:25665   */\n      dup8\n        /* \"#utility.yul\":25658:25677   */\n      add\n        /* \"#utility.yul\":25645:25678   */\n      calldataload\n        /* \"#utility.yul\":25636:25678   */\n      swap1\n      pop\n        /* \"#utility.yul\":25608:25692   */\n    tag_631:\n        /* \"#utility.yul\":25718:25785   */\n      tag_632\n        /* \"#utility.yul\":25778:25784   */\n      dup6\n        /* \"#utility.yul\":25771:25776   */\n      dup3\n        /* \"#utility.yul\":25718:25785   */\n      tag_341\n      jump\t// in\n    tag_632:\n        /* \"#utility.yul\":25712:25716   */\n      dup7\n        /* \"#utility.yul\":25705:25786   */\n      sstore\n        /* \"#utility.yul\":25567:25796   */\n      pop\n        /* \"#utility.yul\":24888:25796   */\n      jump(tag_629)\n        /* \"#utility.yul\":24918:25550   */\n    tag_630:\n        /* \"#utility.yul\":24970:24974   */\n      0x1f\n        /* \"#utility.yul\":24966:24975   */\n      not\n        /* \"#utility.yul\":24958:24964   */\n      dup5\n        /* \"#utility.yul\":24954:24976   */\n      and\n        /* \"#utility.yul\":25004:25041   */\n      tag_633\n        /* \"#utility.yul\":25036:25040   */\n      dup7\n        /* \"#utility.yul\":25004:25041   */\n      tag_328\n      jump\t// in\n    tag_633:\n        /* \"#utility.yul\":25063:25064   */\n      0x00\n        /* \"#utility.yul\":25077:25292   */\n    tag_634:\n        /* \"#utility.yul\":25091:25098   */\n      dup3\n        /* \"#utility.yul\":25088:25089   */\n      dup2\n        /* \"#utility.yul\":25085:25099   */\n      lt\n        /* \"#utility.yul\":25077:25292   */\n      iszero\n      tag_636\n      jumpi\n        /* \"#utility.yul\":25177:25186   */\n      dup5\n        /* \"#utility.yul\":25172:25175   */\n      dup10\n        /* \"#utility.yul\":25168:25187   */\n      add\n        /* \"#utility.yul\":25155:25188   */\n      calldataload\n        /* \"#utility.yul\":25147:25153   */\n      dup3\n        /* \"#utility.yul\":25140:25189   */\n      sstore\n        /* \"#utility.yul\":25228:25229   */\n      0x01\n        /* \"#utility.yul\":25220:25226   */\n      dup3\n        /* \"#utility.yul\":25216:25230   */\n      add\n        /* \"#utility.yul\":25206:25230   */\n      swap2\n      pop\n        /* \"#utility.yul\":25275:25277   */\n      0x20\n        /* \"#utility.yul\":25264:25273   */\n      dup6\n        /* \"#utility.yul\":25260:25278   */\n      add\n        /* \"#utility.yul\":25247:25278   */\n      swap5\n      pop\n        /* \"#utility.yul\":25114:25118   */\n      0x20\n        /* \"#utility.yul\":25111:25112   */\n      dup2\n        /* \"#utility.yul\":25107:25119   */\n      add\n        /* \"#utility.yul\":25102:25119   */\n      swap1\n      pop\n        /* \"#utility.yul\":25077:25292   */\n      jump(tag_634)\n    tag_636:\n        /* \"#utility.yul\":25320:25326   */\n      dup7\n        /* \"#utility.yul\":25311:25318   */\n      dup4\n        /* \"#utility.yul\":25308:25327   */\n      lt\n        /* \"#utility.yul\":25305:25491   */\n      iszero\n      tag_637\n      jumpi\n        /* \"#utility.yul\":25385:25394   */\n      dup5\n        /* \"#utility.yul\":25380:25383   */\n      dup10\n        /* \"#utility.yul\":25376:25395   */\n      add\n        /* \"#utility.yul\":25363:25396   */\n      calldataload\n        /* \"#utility.yul\":25428:25476   */\n      tag_638\n        /* \"#utility.yul\":25470:25474   */\n      0x1f\n        /* \"#utility.yul\":25462:25468   */\n      dup10\n        /* \"#utility.yul\":25458:25475   */\n      and\n        /* \"#utility.yul\":25447:25456   */\n      dup3\n        /* \"#utility.yul\":25428:25476   */\n      tag_340\n      jump\t// in\n    tag_638:\n        /* \"#utility.yul\":25420:25426   */\n      dup4\n        /* \"#utility.yul\":25413:25477   */\n      sstore\n        /* \"#utility.yul\":25328:25491   */\n      pop\n        /* \"#utility.yul\":25305:25491   */\n    tag_637:\n        /* \"#utility.yul\":25537:25538   */\n      0x01\n        /* \"#utility.yul\":25533:25534   */\n      0x02\n        /* \"#utility.yul\":25525:25531   */\n      dup9\n        /* \"#utility.yul\":25521:25535   */\n      mul\n        /* \"#utility.yul\":25517:25539   */\n      add\n        /* \"#utility.yul\":25511:25515   */\n      dup9\n        /* \"#utility.yul\":25504:25540   */\n      sstore\n        /* \"#utility.yul\":24925:25550   */\n      pop\n      pop\n      pop\n        /* \"#utility.yul\":24888:25796   */\n    tag_629:\n      pop\n        /* \"#utility.yul\":24498:25802   */\n      pop\n      pop\n      pop\n        /* \"#utility.yul\":24399:25802   */\n      pop\n      pop\n      pop\n      jump\t// out\n        /* \"#utility.yul\":25808:26251   */\n    tag_176:\n        /* \"#utility.yul\":25959:25963   */\n      0x00\n        /* \"#utility.yul\":25997:25999   */\n      0x40\n        /* \"#utility.yul\":25986:25995   */\n      dup3\n        /* \"#utility.yul\":25982:26000   */\n      add\n        /* \"#utility.yul\":25974:26000   */\n      swap1\n      pop\n        /* \"#utility.yul\":26046:26055   */\n      dup2\n        /* \"#utility.yul\":26040:26044   */\n      dup2\n        /* \"#utility.yul\":26036:26056   */\n      sub\n        /* \"#utility.yul\":26032:26033   */\n      0x00\n        /* \"#utility.yul\":26021:26030   */\n      dup4\n        /* \"#utility.yul\":26017:26034   */\n      add\n        /* \"#utility.yul\":26010:26057   */\n      mstore\n        /* \"#utility.yul\":26074:26162   */\n      tag_640\n        /* \"#utility.yul\":26157:26161   */\n      dup2\n        /* \"#utility.yul\":26148:26154   */\n      dup6\n        /* \"#utility.yul\":26140:26146   */\n      dup8\n        /* \"#utility.yul\":26074:26162   */\n      tag_322\n      jump\t// in\n    tag_640:\n        /* \"#utility.yul\":26066:26162   */\n      swap1\n      pop\n        /* \"#utility.yul\":26172:26244   */\n      tag_641\n        /* \"#utility.yul\":26240:26242   */\n      0x20\n        /* \"#utility.yul\":26229:26238   */\n      dup4\n        /* \"#utility.yul\":26225:26243   */\n      add\n        /* \"#utility.yul\":26216:26222   */\n      dup5\n        /* \"#utility.yul\":26172:26244   */\n      tag_298\n      jump\t// in\n    tag_641:\n        /* \"#utility.yul\":25808:26251   */\n      swap5\n      swap4\n      pop\n      pop\n      pop\n      pop\n      jump\t// out\n        /* \"#utility.yul\":26257:26475   */\n    tag_208:\n        /* \"#utility.yul\":26348:26352   */\n      0x00\n        /* \"#utility.yul\":26386:26388   */\n      0x20\n        /* \"#utility.yul\":26375:26384   */\n      dup3\n        /* \"#utility.yul\":26371:26389   */\n      add\n        /* \"#utility.yul\":26363:26389   */\n      swap1\n      pop\n        /* \"#utility.yul\":26399:26468   */\n      tag_643\n        /* \"#utility.yul\":26465:26466   */\n      0x00\n        /* \"#utility.yul\":26454:26463   */\n      dup4\n        /* \"#utility.yul\":26450:26467   */\n      add\n        /* \"#utility.yul\":26441:26447   */\n      dup5\n        /* \"#utility.yul\":26399:26468   */\n      tag_315\n      jump\t// in\n    tag_643:\n        /* \"#utility.yul\":26257:26475   */\n      swap3\n      swap2\n      pop\n      pop\n      jump\t// out\n        /* \"#utility.yul\":26481:26598   */\n    tag_342:\n        /* \"#utility.yul\":26590:26591   */\n      0x00\n        /* \"#utility.yul\":26587:26588   */\n      dup1\n        /* \"#utility.yul\":26580:26592   */\n      revert\n        /* \"#utility.yul\":26604:26885   */\n    tag_343:\n        /* \"#utility.yul\":26687:26714   */\n      tag_646\n        /* \"#utility.yul\":26709:26713   */\n      dup3\n        /* \"#utility.yul\":26687:26714   */\n      tag_295\n      jump\t// in\n    tag_646:\n        /* \"#utility.yul\":26679:26685   */\n      dup2\n        /* \"#utility.yul\":26675:26715   */\n      add\n        /* \"#utility.yul\":26817:26823   */\n      dup2\n        /* \"#utility.yul\":26805:26815   */\n      dup2\n        /* \"#utility.yul\":26802:26824   */\n      lt\n        /* \"#utility.yul\":26781:26799   */\n      0xffffffffffffffff\n        /* \"#utility.yul\":26769:26779   */\n      dup3\n        /* \"#utility.yul\":26766:26800   */\n      gt\n        /* \"#utility.yul\":26763:26825   */\n      or\n        /* \"#utility.yul\":26760:26848   */\n      iszero\n      tag_647\n      jumpi\n        /* \"#utility.yul\":26828:26846   */\n      tag_648\n      tag_327\n      jump\t// in\n    tag_648:\n        /* \"#utility.yul\":26760:26848   */\n    tag_647:\n        /* \"#utility.yul\":26868:26878   */\n      dup1\n        /* \"#utility.yul\":26864:26866   */\n      0x40\n        /* \"#utility.yul\":26857:26879   */\n      mstore\n        /* \"#utility.yul\":26647:26885   */\n      pop\n        /* \"#utility.yul\":26604:26885   */\n      pop\n      pop\n      jump\t// out\n        /* \"#utility.yul\":26891:27020   */\n    tag_344:\n        /* \"#utility.yul\":26925:26931   */\n      0x00\n        /* \"#utility.yul\":26952:26972   */\n      tag_650\n      tag_271\n      jump\t// in\n    tag_650:\n        /* \"#utility.yul\":26942:26972   */\n      swap1\n      pop\n        /* \"#utility.yul\":26981:27014   */\n      tag_651\n        /* \"#utility.yul\":27009:27013   */\n      dup3\n        /* \"#utility.yul\":27001:27007   */\n      dup3\n        /* \"#utility.yul\":26981:27014   */\n      tag_343\n      jump\t// in\n    tag_651:\n        /* \"#utility.yul\":26891:27020   */\n      swap2\n      swap1\n      pop\n      jump\t// out\n        /* \"#utility.yul\":27026:27334   */\n    tag_345:\n        /* \"#utility.yul\":27088:27092   */\n      0x00\n        /* \"#utility.yul\":27178:27196   */\n      0xffffffffffffffff\n        /* \"#utility.yul\":27170:27176   */\n      dup3\n        /* \"#utility.yul\":27167:27197   */\n      gt\n        /* \"#utility.yul\":27164:27220   */\n      iszero\n      tag_653\n      jumpi\n        /* \"#utility.yul\":27200:27218   */\n      tag_654\n      tag_327\n      jump\t// in\n    tag_654:\n        /* \"#utility.yul\":27164:27220   */\n    tag_653:\n        /* \"#utility.yul\":27238:27267   */\n      tag_655\n        /* \"#utility.yul\":27260:27266   */\n      dup3\n        /* \"#utility.yul\":27238:27267   */\n      tag_295\n      jump\t// in\n    tag_655:\n        /* \"#utility.yul\":27230:27267   */\n      swap1\n      pop\n        /* \"#utility.yul\":27322:27326   */\n      0x20\n        /* \"#utility.yul\":27316:27320   */\n      dup2\n        /* \"#utility.yul\":27312:27327   */\n      add\n        /* \"#utility.yul\":27304:27327   */\n      swap1\n      pop\n        /* \"#utility.yul\":27026:27334   */\n      swap2\n      swap1\n      pop\n      jump\t// out\n        /* \"#utility.yul\":27340:27765   */\n    tag_346:\n        /* \"#utility.yul\":27418:27423   */\n      0x00\n        /* \"#utility.yul\":27443:27509   */\n      tag_657\n        /* \"#utility.yul\":27459:27508   */\n      tag_658\n        /* \"#utility.yul\":27501:27507   */\n      dup5\n        /* \"#utility.yul\":27459:27508   */\n      tag_345\n      jump\t// in\n    tag_658:\n        /* \"#utility.yul\":27443:27509   */\n      tag_344\n      jump\t// in\n    tag_657:\n        /* \"#utility.yul\":27434:27509   */\n      swap1\n      pop\n        /* \"#utility.yul\":27532:27538   */\n      dup3\n        /* \"#utility.yul\":27525:27530   */\n      dup2\n        /* \"#utility.yul\":27518:27539   */\n      mstore\n        /* \"#utility.yul\":27570:27574   */\n      0x20\n        /* \"#utility.yul\":27563:27568   */\n      dup2\n        /* \"#utility.yul\":27559:27575   */\n      add\n        /* \"#utility.yul\":27608:27611   */\n      dup5\n        /* \"#utility.yul\":27599:27605   */\n      dup5\n        /* \"#utility.yul\":27594:27597   */\n      dup5\n        /* \"#utility.yul\":27590:27606   */\n      add\n        /* \"#utility.yul\":27587:27612   */\n      gt\n        /* \"#utility.yul\":27584:27696   */\n      iszero\n      tag_659\n      jumpi\n        /* \"#utility.yul\":27615:27694   */\n      tag_660\n      tag_342\n      jump\t// in\n    tag_660:\n        /* \"#utility.yul\":27584:27696   */\n    tag_659:\n        /* \"#utility.yul\":27705:27759   */\n      tag_661\n        /* \"#utility.yul\":27752:27758   */\n      dup5\n        /* \"#utility.yul\":27747:27750   */\n      dup3\n        /* \"#utility.yul\":27742:27745   */\n      dup6\n        /* \"#utility.yul\":27705:27759   */\n      tag_321\n      jump\t// in\n    tag_661:\n        /* \"#utility.yul\":27424:27765   */\n      pop\n        /* \"#utility.yul\":27340:27765   */\n      swap4\n      swap3\n      pop\n      pop\n      pop\n      jump\t// out\n        /* \"#utility.yul\":27785:28125   */\n    tag_347:\n        /* \"#utility.yul\":27841:27846   */\n      0x00\n        /* \"#utility.yul\":27890:27893   */\n      dup3\n        /* \"#utility.yul\":27883:27887   */\n      0x1f\n        /* \"#utility.yul\":27875:27881   */\n      dup4\n        /* \"#utility.yul\":27871:27888   */\n      add\n        /* \"#utility.yul\":27867:27894   */\n      slt\n        /* \"#utility.yul\":27857:27979   */\n      tag_663\n      jumpi\n        /* \"#utility.yul\":27898:27977   */\n      tag_664\n      tag_279\n      jump\t// in\n    tag_664:\n        /* \"#utility.yul\":27857:27979   */\n    tag_663:\n        /* \"#utility.yul\":28015:28021   */\n      dup2\n        /* \"#utility.yul\":28002:28022   */\n      calldataload\n        /* \"#utility.yul\":28040:28119   */\n      tag_665\n        /* \"#utility.yul\":28115:28118   */\n      dup5\n        /* \"#utility.yul\":28107:28113   */\n      dup3\n        /* \"#utility.yul\":28100:28104   */\n      0x20\n        /* \"#utility.yul\":28092:28098   */\n      dup7\n        /* \"#utility.yul\":28088:28105   */\n      add\n        /* \"#utility.yul\":28040:28119   */\n      tag_346\n      jump\t// in\n    tag_665:\n        /* \"#utility.yul\":28031:28119   */\n      swap2\n      pop\n        /* \"#utility.yul\":27847:28125   */\n      pop\n        /* \"#utility.yul\":27785:28125   */\n      swap3\n      swap2\n      pop\n      pop\n      jump\t// out\n        /* \"#utility.yul\":28131:28235   */\n    tag_348:\n        /* \"#utility.yul\":28176:28183   */\n      0x00\n        /* \"#utility.yul\":28205:28229   */\n      tag_667\n        /* \"#utility.yul\":28223:28228   */\n      dup3\n        /* \"#utility.yul\":28205:28229   */\n      tag_283\n      jump\t// in\n    tag_667:\n        /* \"#utility.yul\":28194:28229   */\n      swap1\n      pop\n        /* \"#utility.yul\":28131:28235   */\n      swap2\n      swap1\n      pop\n      jump\t// out\n        /* \"#utility.yul\":28241:28379   */\n    tag_349:\n        /* \"#utility.yul\":28322:28354   */\n      tag_669\n        /* \"#utility.yul\":28348:28353   */\n      dup2\n        /* \"#utility.yul\":28322:28354   */\n      tag_348\n      jump\t// in\n    tag_669:\n        /* \"#utility.yul\":28315:28320   */\n      dup2\n        /* \"#utility.yul\":28312:28355   */\n      eq\n        /* \"#utility.yul\":28302:28373   */\n      tag_670\n      jumpi\n        /* \"#utility.yul\":28369:28370   */\n      0x00\n        /* \"#utility.yul\":28366:28367   */\n      dup1\n        /* \"#utility.yul\":28359:28371   */\n      revert\n        /* \"#utility.yul\":28302:28373   */\n    tag_670:\n        /* \"#utility.yul\":28241:28379   */\n      pop\n      jump\t// out\n        /* \"#utility.yul\":28385:28540   */\n    tag_350:\n        /* \"#utility.yul\":28439:28444   */\n      0x00\n        /* \"#utility.yul\":28477:28483   */\n      dup2\n        /* \"#utility.yul\":28464:28484   */\n      calldataload\n        /* \"#utility.yul\":28455:28484   */\n      swap1\n      pop\n        /* \"#utility.yul\":28493:28534   */\n      tag_672\n        /* \"#utility.yul\":28528:28533   */\n      dup2\n        /* \"#utility.yul\":28493:28534   */\n      tag_349\n      jump\t// in\n    tag_672:\n        /* \"#utility.yul\":28385:28540   */\n      swap3\n      swap2\n      pop\n      pop\n      jump\t// out\n        /* \"#utility.yul\":28546:29216   */\n    tag_211:\n        /* \"#utility.yul\":28632:28638   */\n      0x00\n        /* \"#utility.yul\":28640:28646   */\n      dup1\n        /* \"#utility.yul\":28689:28691   */\n      0x40\n        /* \"#utility.yul\":28677:28686   */\n      dup4\n        /* \"#utility.yul\":28668:28675   */\n      dup6\n        /* \"#utility.yul\":28664:28687   */\n      sub\n        /* \"#utility.yul\":28660:28692   */\n      slt\n        /* \"#utility.yul\":28657:28776   */\n      iszero\n      tag_674\n      jumpi\n        /* \"#utility.yul\":28695:28774   */\n      tag_675\n      tag_272\n      jump\t// in\n    tag_675:\n        /* \"#utility.yul\":28657:28776   */\n    tag_674:\n        /* \"#utility.yul\":28843:28844   */\n      0x00\n        /* \"#utility.yul\":28832:28841   */\n      dup4\n        /* \"#utility.yul\":28828:28845   */\n      add\n        /* \"#utility.yul\":28815:28846   */\n      calldataload\n        /* \"#utility.yul\":28873:28891   */\n      0xffffffffffffffff\n        /* \"#utility.yul\":28865:28871   */\n      dup2\n        /* \"#utility.yul\":28862:28892   */\n      gt\n        /* \"#utility.yul\":28859:28976   */\n      iszero\n      tag_676\n      jumpi\n        /* \"#utility.yul\":28895:28974   */\n      tag_677\n      tag_273\n      jump\t// in\n    tag_677:\n        /* \"#utility.yul\":28859:28976   */\n    tag_676:\n        /* \"#utility.yul\":29000:29063   */\n      tag_678\n        /* \"#utility.yul\":29055:29062   */\n      dup6\n        /* \"#utility.yul\":29046:29052   */\n      dup3\n        /* \"#utility.yul\":29035:29044   */\n      dup7\n        /* \"#utility.yul\":29031:29053   */\n      add\n        /* \"#utility.yul\":29000:29063   */\n      tag_347\n      jump\t// in\n    tag_678:\n        /* \"#utility.yul\":28990:29063   */\n      swap3\n      pop\n        /* \"#utility.yul\":28786:29073   */\n      pop\n        /* \"#utility.yul\":29112:29114   */\n      0x20\n        /* \"#utility.yul\":29138:29199   */\n      tag_679\n        /* \"#utility.yul\":29191:29198   */\n      dup6\n        /* \"#utility.yul\":29182:29188   */\n      dup3\n        /* \"#utility.yul\":29171:29180   */\n      dup7\n        /* \"#utility.yul\":29167:29189   */\n      add\n        /* \"#utility.yul\":29138:29199   */\n      tag_350\n      jump\t// in\n    tag_679:\n        /* \"#utility.yul\":29128:29199   */\n      swap2\n      pop\n        /* \"#utility.yul\":29083:29209   */\n      pop\n        /* \"#utility.yul\":28546:29216   */\n      swap3\n      pop\n      swap3\n      swap1\n      pop\n      jump\t// out\n        /* \"#utility.yul\":29222:29327   */\n    tag_351:\n        /* \"#utility.yul\":29297:29320   */\n      tag_681\n        /* \"#utility.yul\":29314:29319   */\n      dup2\n        /* \"#utility.yul\":29297:29320   */\n      tag_289\n      jump\t// in\n    tag_681:\n        /* \"#utility.yul\":29292:29295   */\n      dup3\n        /* \"#utility.yul\":29285:29321   */\n      mstore\n        /* \"#utility.yul\":29222:29327   */\n      pop\n      pop\n      jump\t// out\n        /* \"#utility.yul\":29333:29441   */\n    tag_352:\n        /* \"#utility.yul\":29410:29434   */\n      tag_683\n        /* \"#utility.yul\":29428:29433   */\n      dup2\n        /* \"#utility.yul\":29410:29434   */\n      tag_276\n      jump\t// in\n    tag_683:\n        /* \"#utility.yul\":29405:29408   */\n      dup3\n        /* \"#utility.yul\":29398:29435   */\n      mstore\n        /* \"#utility.yul\":29333:29441   */\n      pop\n      pop\n      jump\t// out\n        /* \"#utility.yul\":29447:29545   */\n    tag_353:\n        /* \"#utility.yul\":29498:29504   */\n      0x00\n        /* \"#utility.yul\":29532:29537   */\n      dup2\n        /* \"#utility.yul\":29526:29538   */\n      mload\n        /* \"#utility.yul\":29516:29538   */\n      swap1\n      pop\n        /* \"#utility.yul\":29447:29545   */\n      swap2\n      swap1\n      pop\n      jump\t// out\n        /* \"#utility.yul\":29551:29709   */\n    tag_354:\n        /* \"#utility.yul\":29624:29635   */\n      0x00\n        /* \"#utility.yul\":29658:29664   */\n      dup3\n        /* \"#utility.yul\":29653:29656   */\n      dup3\n        /* \"#utility.yul\":29646:29665   */\n      mstore\n        /* \"#utility.yul\":29698:29702   */\n      0x20\n        /* \"#utility.yul\":29693:29696   */\n      dup3\n        /* \"#utility.yul\":29689:29703   */\n      add\n        /* \"#utility.yul\":29674:29703   */\n      swap1\n      pop\n        /* \"#utility.yul\":29551:29709   */\n      swap3\n      swap2\n      pop\n      pop\n      jump\t// out\n        /* \"#utility.yul\":29715:30068   */\n    tag_355:\n        /* \"#utility.yul\":29791:29794   */\n      0x00\n        /* \"#utility.yul\":29819:29857   */\n      tag_687\n        /* \"#utility.yul\":29851:29856   */\n      dup3\n        /* \"#utility.yul\":29819:29857   */\n      tag_353\n      jump\t// in\n    tag_687:\n        /* \"#utility.yul\":29873:29933   */\n      tag_688\n        /* \"#utility.yul\":29926:29932   */\n      dup2\n        /* \"#utility.yul\":29921:29924   */\n      dup6\n        /* \"#utility.yul\":29873:29933   */\n      tag_354\n      jump\t// in\n    tag_688:\n        /* \"#utility.yul\":29866:29933   */\n      swap4\n      pop\n        /* \"#utility.yul\":29942:30007   */\n      tag_689\n        /* \"#utility.yul\":30000:30006   */\n      dup2\n        /* \"#utility.yul\":29995:29998   */\n      dup6\n        /* \"#utility.yul\":29988:29992   */\n      0x20\n        /* \"#utility.yul\":29981:29986   */\n      dup7\n        /* \"#utility.yul\":29977:29993   */\n      add\n        /* \"#utility.yul\":29942:30007   */\n      tag_294\n      jump\t// in\n    tag_689:\n        /* \"#utility.yul\":30032:30061   */\n      tag_690\n        /* \"#utility.yul\":30054:30060   */\n      dup2\n        /* \"#utility.yul\":30032:30061   */\n      tag_295\n      jump\t// in\n    tag_690:\n        /* \"#utility.yul\":30027:30030   */\n      dup5\n        /* \"#utility.yul\":30023:30062   */\n      add\n        /* \"#utility.yul\":30016:30062   */\n      swap2\n      pop\n        /* \"#utility.yul\":29795:30068   */\n      pop\n        /* \"#utility.yul\":29715:30068   */\n      swap3\n      swap2\n      pop\n      pop\n      jump\t// out\n        /* \"#utility.yul\":30074:30173   */\n    tag_356:\n        /* \"#utility.yul\":30145:30166   */\n      tag_692\n        /* \"#utility.yul\":30160:30165   */\n      dup2\n        /* \"#utility.yul\":30145:30166   */\n      tag_305\n      jump\t// in\n    tag_692:\n        /* \"#utility.yul\":30140:30143   */\n      dup3\n        /* \"#utility.yul\":30133:30167   */\n      mstore\n        /* \"#utility.yul\":30074:30173   */\n      pop\n      pop\n      jump\t// out\n        /* \"#utility.yul\":30235:31454   */\n    tag_357:\n        /* \"#utility.yul\":30366:30369   */\n      0x00\n        /* \"#utility.yul\":30402:30406   */\n      0xa0\n        /* \"#utility.yul\":30397:30400   */\n      dup4\n        /* \"#utility.yul\":30393:30407   */\n      add\n        /* \"#utility.yul\":30491:30495   */\n      0x00\n        /* \"#utility.yul\":30484:30489   */\n      dup4\n        /* \"#utility.yul\":30480:30496   */\n      add\n        /* \"#utility.yul\":30474:30497   */\n      mload\n        /* \"#utility.yul\":30510:30571   */\n      tag_694\n        /* \"#utility.yul\":30565:30569   */\n      0x00\n        /* \"#utility.yul\":30560:30563   */\n      dup7\n        /* \"#utility.yul\":30556:30570   */\n      add\n        /* \"#utility.yul\":30542:30554   */\n      dup3\n        /* \"#utility.yul\":30510:30571   */\n      tag_351\n      jump\t// in\n    tag_694:\n        /* \"#utility.yul\":30417:30581   */\n      pop\n        /* \"#utility.yul\":30667:30671   */\n      0x20\n        /* \"#utility.yul\":30660:30665   */\n      dup4\n        /* \"#utility.yul\":30656:30672   */\n      add\n        /* \"#utility.yul\":30650:30673   */\n      mload\n        /* \"#utility.yul\":30686:30749   */\n      tag_695\n        /* \"#utility.yul\":30743:30747   */\n      0x20\n        /* \"#utility.yul\":30738:30741   */\n      dup7\n        /* \"#utility.yul\":30734:30748   */\n      add\n        /* \"#utility.yul\":30720:30732   */\n      dup3\n        /* \"#utility.yul\":30686:30749   */\n      tag_352\n      jump\t// in\n    tag_695:\n        /* \"#utility.yul\":30591:30759   */\n      pop\n        /* \"#utility.yul\":30844:30848   */\n      0x40\n        /* \"#utility.yul\":30837:30842   */\n      dup4\n        /* \"#utility.yul\":30833:30849   */\n      add\n        /* \"#utility.yul\":30827:30850   */\n      mload\n        /* \"#utility.yul\":30897:30900   */\n      dup5\n        /* \"#utility.yul\":30891:30895   */\n      dup3\n        /* \"#utility.yul\":30887:30901   */\n      sub\n        /* \"#utility.yul\":30880:30884   */\n      0x40\n        /* \"#utility.yul\":30875:30878   */\n      dup7\n        /* \"#utility.yul\":30871:30885   */\n      add\n        /* \"#utility.yul\":30864:30902   */\n      mstore\n        /* \"#utility.yul\":30923:30994   */\n      tag_696\n        /* \"#utility.yul\":30989:30993   */\n      dup3\n        /* \"#utility.yul\":30975:30987   */\n      dup3\n        /* \"#utility.yul\":30923:30994   */\n      tag_355\n      jump\t// in\n    tag_696:\n        /* \"#utility.yul\":30915:30994   */\n      swap2\n      pop\n        /* \"#utility.yul\":30769:31005   */\n      pop\n        /* \"#utility.yul\":31090:31094   */\n      0x60\n        /* \"#utility.yul\":31083:31088   */\n      dup4\n        /* \"#utility.yul\":31079:31095   */\n      add\n        /* \"#utility.yul\":31073:31096   */\n      mload\n        /* \"#utility.yul\":31143:31146   */\n      dup5\n        /* \"#utility.yul\":31137:31141   */\n      dup3\n        /* \"#utility.yul\":31133:31147   */\n      sub\n        /* \"#utility.yul\":31126:31130   */\n      0x60\n        /* \"#utility.yul\":31121:31124   */\n      dup7\n        /* \"#utility.yul\":31117:31131   */\n      add\n        /* \"#utility.yul\":31110:31148   */\n      mstore\n        /* \"#utility.yul\":31169:31240   */\n      tag_697\n        /* \"#utility.yul\":31235:31239   */\n      dup3\n        /* \"#utility.yul\":31221:31233   */\n      dup3\n        /* \"#utility.yul\":31169:31240   */\n      tag_355\n      jump\t// in\n    tag_697:\n        /* \"#utility.yul\":31161:31240   */\n      swap2\n      pop\n        /* \"#utility.yul\":31015:31251   */\n      pop\n        /* \"#utility.yul\":31341:31345   */\n      0x80\n        /* \"#utility.yul\":31334:31339   */\n      dup4\n        /* \"#utility.yul\":31330:31346   */\n      add\n        /* \"#utility.yul\":31324:31347   */\n      mload\n        /* \"#utility.yul\":31360:31417   */\n      tag_698\n        /* \"#utility.yul\":31411:31415   */\n      0x80\n        /* \"#utility.yul\":31406:31409   */\n      dup7\n        /* \"#utility.yul\":31402:31416   */\n      add\n        /* \"#utility.yul\":31388:31400   */\n      dup3\n        /* \"#utility.yul\":31360:31417   */\n      tag_356\n      jump\t// in\n    tag_698:\n        /* \"#utility.yul\":31261:31427   */\n      pop\n        /* \"#utility.yul\":31444:31448   */\n      dup1\n        /* \"#utility.yul\":31437:31448   */\n      swap2\n      pop\n        /* \"#utility.yul\":30371:31454   */\n      pop\n        /* \"#utility.yul\":30235:31454   */\n      swap3\n      swap2\n      pop\n      pop\n      jump\t// out\n        /* \"#utility.yul\":31460:31967   */\n    tag_228:\n        /* \"#utility.yul\":31643:31647   */\n      0x00\n        /* \"#utility.yul\":31681:31683   */\n      0x40\n        /* \"#utility.yul\":31670:31679   */\n      dup3\n        /* \"#utility.yul\":31666:31684   */\n      add\n        /* \"#utility.yul\":31658:31684   */\n      swap1\n      pop\n        /* \"#utility.yul\":31730:31739   */\n      dup2\n        /* \"#utility.yul\":31724:31728   */\n      dup2\n        /* \"#utility.yul\":31720:31740   */\n      sub\n        /* \"#utility.yul\":31716:31717   */\n      0x00\n        /* \"#utility.yul\":31705:31714   */\n      dup4\n        /* \"#utility.yul\":31701:31718   */\n      add\n        /* \"#utility.yul\":31694:31741   */\n      mstore\n        /* \"#utility.yul\":31758:31878   */\n      tag_700\n        /* \"#utility.yul\":31873:31877   */\n      dup2\n        /* \"#utility.yul\":31864:31870   */\n      dup6\n        /* \"#utility.yul\":31758:31878   */\n      tag_357\n      jump\t// in\n    tag_700:\n        /* \"#utility.yul\":31750:31878   */\n      swap1\n      pop\n        /* \"#utility.yul\":31888:31960   */\n      tag_701\n        /* \"#utility.yul\":31956:31958   */\n      0x20\n        /* \"#utility.yul\":31945:31954   */\n      dup4\n        /* \"#utility.yul\":31941:31959   */\n      add\n        /* \"#utility.yul\":31932:31938   */\n      dup5\n        /* \"#utility.yul\":31888:31960   */\n      tag_307\n      jump\t// in\n    tag_701:\n        /* \"#utility.yul\":31460:31967   */\n      swap4\n      swap3\n      pop\n      pop\n      pop\n      jump\t// out\n        /* \"#utility.yul\":31973:32090   */\n    tag_358:\n        /* \"#utility.yul\":32082:32083   */\n      0x00\n        /* \"#utility.yul\":32079:32080   */\n      dup1\n        /* \"#utility.yul\":32072:32084   */\n      revert\n        /* \"#utility.yul\":32219:32362   */\n    tag_360:\n        /* \"#utility.yul\":32276:32281   */\n      0x00\n        /* \"#utility.yul\":32307:32313   */\n      dup2\n        /* \"#utility.yul\":32301:32314   */\n      mload\n        /* \"#utility.yul\":32292:32314   */\n      swap1\n      pop\n        /* \"#utility.yul\":32323:32356   */\n      tag_705\n        /* \"#utility.yul\":32350:32355   */\n      dup2\n        /* \"#utility.yul\":32323:32356   */\n      tag_309\n      jump\t// in\n    tag_705:\n        /* \"#utility.yul\":32219:32362   */\n      swap3\n      swap2\n      pop\n      pop\n      jump\t// out\n        /* \"#utility.yul\":32395:33016   */\n    tag_361:\n        /* \"#utility.yul\":32483:32488   */\n      0x00\n        /* \"#utility.yul\":32527:32531   */\n      0x40\n        /* \"#utility.yul\":32515:32524   */\n      dup3\n        /* \"#utility.yul\":32510:32513   */\n      dup5\n        /* \"#utility.yul\":32506:32525   */\n      sub\n        /* \"#utility.yul\":32502:32532   */\n      slt\n        /* \"#utility.yul\":32499:32616   */\n      iszero\n      tag_707\n      jumpi\n        /* \"#utility.yul\":32535:32614   */\n      tag_708\n      tag_358\n      jump\t// in\n    tag_708:\n        /* \"#utility.yul\":32499:32616   */\n    tag_707:\n        /* \"#utility.yul\":32634:32655   */\n      tag_709\n        /* \"#utility.yul\":32650:32654   */\n      0x40\n        /* \"#utility.yul\":32634:32655   */\n      tag_344\n      jump\t// in\n    tag_709:\n        /* \"#utility.yul\":32625:32655   */\n      swap1\n      pop\n        /* \"#utility.yul\":32719:32720   */\n      0x00\n        /* \"#utility.yul\":32759:32819   */\n      tag_710\n        /* \"#utility.yul\":32815:32818   */\n      dup5\n        /* \"#utility.yul\":32806:32812   */\n      dup3\n        /* \"#utility.yul\":32795:32804   */\n      dup6\n        /* \"#utility.yul\":32791:32813   */\n      add\n        /* \"#utility.yul\":32759:32819   */\n      tag_360\n      jump\t// in\n    tag_710:\n        /* \"#utility.yul\":32752:32756   */\n      0x00\n        /* \"#utility.yul\":32745:32750   */\n      dup4\n        /* \"#utility.yul\":32741:32757   */\n      add\n        /* \"#utility.yul\":32734:32820   */\n      mstore\n        /* \"#utility.yul\":32665:32831   */\n      pop\n        /* \"#utility.yul\":32896:32898   */\n      0x20\n        /* \"#utility.yul\":32937:32997   */\n      tag_711\n        /* \"#utility.yul\":32993:32996   */\n      dup5\n        /* \"#utility.yul\":32984:32990   */\n      dup3\n        /* \"#utility.yul\":32973:32982   */\n      dup6\n        /* \"#utility.yul\":32969:32991   */\n      add\n        /* \"#utility.yul\":32937:32997   */\n      tag_360\n      jump\t// in\n    tag_711:\n        /* \"#utility.yul\":32930:32934   */\n      0x20\n        /* \"#utility.yul\":32923:32928   */\n      dup4\n        /* \"#utility.yul\":32919:32935   */\n      add\n        /* \"#utility.yul\":32912:32998   */\n      mstore\n        /* \"#utility.yul\":32841:33009   */\n      pop\n        /* \"#utility.yul\":32395:33016   */\n      swap3\n      swap2\n      pop\n      pop\n      jump\t// out\n        /* \"#utility.yul\":33022:33429   */\n    tag_232:\n        /* \"#utility.yul\":33120:33126   */\n      0x00\n        /* \"#utility.yul\":33169:33171   */\n      0x40\n        /* \"#utility.yul\":33157:33166   */\n      dup3\n        /* \"#utility.yul\":33148:33155   */\n      dup5\n        /* \"#utility.yul\":33144:33167   */\n      sub\n        /* \"#utility.yul\":33140:33172   */\n      slt\n        /* \"#utility.yul\":33137:33256   */\n      iszero\n      tag_713\n      jumpi\n        /* \"#utility.yul\":33175:33254   */\n      tag_714\n      tag_272\n      jump\t// in\n    tag_714:\n        /* \"#utility.yul\":33137:33256   */\n    tag_713:\n        /* \"#utility.yul\":33295:33296   */\n      0x00\n        /* \"#utility.yul\":33320:33412   */\n      tag_715\n        /* \"#utility.yul\":33404:33411   */\n      dup5\n        /* \"#utility.yul\":33395:33401   */\n      dup3\n        /* \"#utility.yul\":33384:33393   */\n      dup6\n        /* \"#utility.yul\":33380:33402   */\n      add\n        /* \"#utility.yul\":33320:33412   */\n      tag_361\n      jump\t// in\n    tag_715:\n        /* \"#utility.yul\":33310:33412   */\n      swap2\n      pop\n        /* \"#utility.yul\":33266:33422   */\n      pop\n        /* \"#utility.yul\":33022:33429   */\n      swap3\n      swap2\n      pop\n      pop\n      jump\t// out\n        /* \"#utility.yul\":33435:33578   */\n    tag_362:\n        /* \"#utility.yul\":33492:33497   */\n      0x00\n        /* \"#utility.yul\":33523:33529   */\n      dup2\n        /* \"#utility.yul\":33517:33530   */\n      mload\n        /* \"#utility.yul\":33508:33530   */\n      swap1\n      pop\n        /* \"#utility.yul\":33539:33572   */\n      tag_717\n        /* \"#utility.yul\":33566:33571   */\n      dup2\n        /* \"#utility.yul\":33539:33572   */\n      tag_277\n      jump\t// in\n    tag_717:\n        /* \"#utility.yul\":33435:33578   */\n      swap3\n      swap2\n      pop\n      pop\n      jump\t// out\n        /* \"#utility.yul\":33584:33704   */\n    tag_363:\n        /* \"#utility.yul\":33656:33679   */\n      tag_719\n        /* \"#utility.yul\":33673:33678   */\n      dup2\n        /* \"#utility.yul\":33656:33679   */\n      tag_287\n      jump\t// in\n    tag_719:\n        /* \"#utility.yul\":33649:33654   */\n      dup2\n        /* \"#utility.yul\":33646:33680   */\n      eq\n        /* \"#utility.yul\":33636:33698   */\n      tag_720\n      jumpi\n        /* \"#utility.yul\":33694:33695   */\n      0x00\n        /* \"#utility.yul\":33691:33692   */\n      dup1\n        /* \"#utility.yul\":33684:33696   */\n      revert\n        /* \"#utility.yul\":33636:33698   */\n    tag_720:\n        /* \"#utility.yul\":33584:33704   */\n      pop\n      jump\t// out\n        /* \"#utility.yul\":33710:33851   */\n    tag_364:\n        /* \"#utility.yul\":33766:33771   */\n      0x00\n        /* \"#utility.yul\":33797:33803   */\n      dup2\n        /* \"#utility.yul\":33791:33804   */\n      mload\n        /* \"#utility.yul\":33782:33804   */\n      swap1\n      pop\n        /* \"#utility.yul\":33813:33845   */\n      tag_722\n        /* \"#utility.yul\":33839:33844   */\n      dup2\n        /* \"#utility.yul\":33813:33845   */\n      tag_363\n      jump\t// in\n    tag_722:\n        /* \"#utility.yul\":33710:33851   */\n      swap3\n      swap2\n      pop\n      pop\n      jump\t// out\n        /* \"#utility.yul\":33888:34701   */\n    tag_365:\n        /* \"#utility.yul\":33980:33985   */\n      0x00\n        /* \"#utility.yul\":34024:34028   */\n      0x80\n        /* \"#utility.yul\":34012:34021   */\n      dup3\n        /* \"#utility.yul\":34007:34010   */\n      dup5\n        /* \"#utility.yul\":34003:34022   */\n      sub\n        /* \"#utility.yul\":33999:34029   */\n      slt\n        /* \"#utility.yul\":33996:34113   */\n      iszero\n      tag_724\n      jumpi\n        /* \"#utility.yul\":34032:34111   */\n      tag_725\n      tag_358\n      jump\t// in\n    tag_725:\n        /* \"#utility.yul\":33996:34113   */\n    tag_724:\n        /* \"#utility.yul\":34131:34152   */\n      tag_726\n        /* \"#utility.yul\":34147:34151   */\n      0x60\n        /* \"#utility.yul\":34131:34152   */\n      tag_344\n      jump\t// in\n    tag_726:\n        /* \"#utility.yul\":34122:34152   */\n      swap1\n      pop\n        /* \"#utility.yul\":34211:34212   */\n      0x00\n        /* \"#utility.yul\":34251:34311   */\n      tag_727\n        /* \"#utility.yul\":34307:34310   */\n      dup5\n        /* \"#utility.yul\":34298:34304   */\n      dup3\n        /* \"#utility.yul\":34287:34296   */\n      dup6\n        /* \"#utility.yul\":34283:34305   */\n      add\n        /* \"#utility.yul\":34251:34311   */\n      tag_362\n      jump\t// in\n    tag_727:\n        /* \"#utility.yul\":34244:34248   */\n      0x00\n        /* \"#utility.yul\":34237:34242   */\n      dup4\n        /* \"#utility.yul\":34233:34249   */\n      add\n        /* \"#utility.yul\":34226:34312   */\n      mstore\n        /* \"#utility.yul\":34162:34323   */\n      pop\n        /* \"#utility.yul\":34383:34385   */\n      0x20\n        /* \"#utility.yul\":34424:34483   */\n      tag_728\n        /* \"#utility.yul\":34479:34482   */\n      dup5\n        /* \"#utility.yul\":34470:34476   */\n      dup3\n        /* \"#utility.yul\":34459:34468   */\n      dup6\n        /* \"#utility.yul\":34455:34477   */\n      add\n        /* \"#utility.yul\":34424:34483   */\n      tag_364\n      jump\t// in\n    tag_728:\n        /* \"#utility.yul\":34417:34421   */\n      0x20\n        /* \"#utility.yul\":34410:34415   */\n      dup4\n        /* \"#utility.yul\":34406:34422   */\n      add\n        /* \"#utility.yul\":34399:34484   */\n      mstore\n        /* \"#utility.yul\":34333:34495   */\n      pop\n        /* \"#utility.yul\":34553:34555   */\n      0x40\n        /* \"#utility.yul\":34594:34682   */\n      tag_729\n        /* \"#utility.yul\":34678:34681   */\n      dup5\n        /* \"#utility.yul\":34669:34675   */\n      dup3\n        /* \"#utility.yul\":34658:34667   */\n      dup6\n        /* \"#utility.yul\":34654:34676   */\n      add\n        /* \"#utility.yul\":34594:34682   */\n      tag_361\n      jump\t// in\n    tag_729:\n        /* \"#utility.yul\":34587:34591   */\n      0x40\n        /* \"#utility.yul\":34580:34585   */\n      dup4\n        /* \"#utility.yul\":34576:34592   */\n      add\n        /* \"#utility.yul\":34569:34683   */\n      mstore\n        /* \"#utility.yul\":34505:34694   */\n      pop\n        /* \"#utility.yul\":33888:34701   */\n      swap3\n      swap2\n      pop\n      pop\n      jump\t// out\n        /* \"#utility.yul\":34707:35123   */\n    tag_246:\n        /* \"#utility.yul\":34809:34815   */\n      0x00\n        /* \"#utility.yul\":34858:34861   */\n      0x80\n        /* \"#utility.yul\":34846:34855   */\n      dup3\n        /* \"#utility.yul\":34837:34844   */\n      dup5\n        /* \"#utility.yul\":34833:34856   */\n      sub\n        /* \"#utility.yul\":34829:34862   */\n      slt\n        /* \"#utility.yul\":34826:34946   */\n      iszero\n      tag_731\n      jumpi\n        /* \"#utility.yul\":34865:34944   */\n      tag_732\n      tag_272\n      jump\t// in\n    tag_732:\n        /* \"#utility.yul\":34826:34946   */\n    tag_731:\n        /* \"#utility.yul\":34985:34986   */\n      0x00\n        /* \"#utility.yul\":35010:35106   */\n      tag_733\n        /* \"#utility.yul\":35098:35105   */\n      dup5\n        /* \"#utility.yul\":35089:35095   */\n      dup3\n        /* \"#utility.yul\":35078:35087   */\n      dup6\n        /* \"#utility.yul\":35074:35096   */\n      add\n        /* \"#utility.yul\":35010:35106   */\n      tag_365\n      jump\t// in\n    tag_733:\n        /* \"#utility.yul\":35000:35106   */\n      swap2\n      pop\n        /* \"#utility.yul\":34956:35116   */\n      pop\n        /* \"#utility.yul\":34707:35123   */\n      swap3\n      swap2\n      pop\n      pop\n      jump\t// out\n        /* \"#utility.yul\":35129:35272   */\n    tag_366:\n        /* \"#utility.yul\":35186:35191   */\n      0x00\n        /* \"#utility.yul\":35217:35223   */\n      dup2\n        /* \"#utility.yul\":35211:35224   */\n      mload\n        /* \"#utility.yul\":35202:35224   */\n      swap1\n      pop\n        /* \"#utility.yul\":35233:35266   */\n      tag_735\n        /* \"#utility.yul\":35260:35265   */\n      dup2\n        /* \"#utility.yul\":35233:35266   */\n      tag_285\n      jump\t// in\n    tag_735:\n        /* \"#utility.yul\":35129:35272   */\n      swap3\n      swap2\n      pop\n      pop\n      jump\t// out\n        /* \"#utility.yul\":35278:35629   */\n    tag_255:\n        /* \"#utility.yul\":35348:35354   */\n      0x00\n        /* \"#utility.yul\":35397:35399   */\n      0x20\n        /* \"#utility.yul\":35385:35394   */\n      dup3\n        /* \"#utility.yul\":35376:35383   */\n      dup5\n        /* \"#utility.yul\":35372:35395   */\n      sub\n        /* \"#utility.yul\":35368:35400   */\n      slt\n        /* \"#utility.yul\":35365:35484   */\n      iszero\n      tag_737\n      jumpi\n        /* \"#utility.yul\":35403:35482   */\n      tag_738\n      tag_272\n      jump\t// in\n    tag_738:\n        /* \"#utility.yul\":35365:35484   */\n    tag_737:\n        /* \"#utility.yul\":35523:35524   */\n      0x00\n        /* \"#utility.yul\":35548:35612   */\n      tag_739\n        /* \"#utility.yul\":35604:35611   */\n      dup5\n        /* \"#utility.yul\":35595:35601   */\n      dup3\n        /* \"#utility.yul\":35584:35593   */\n      dup6\n        /* \"#utility.yul\":35580:35602   */\n      add\n        /* \"#utility.yul\":35548:35612   */\n      tag_366\n      jump\t// in\n    tag_739:\n        /* \"#utility.yul\":35538:35612   */\n      swap2\n      pop\n        /* \"#utility.yul\":35494:35622   */\n      pop\n        /* \"#utility.yul\":35278:35629   */\n      swap3\n      swap2\n      pop\n      pop\n      jump\t// out\n        /* \"#utility.yul\":35635:36077   */\n    tag_262:\n        /* \"#utility.yul\":35784:35788   */\n      0x00\n        /* \"#utility.yul\":35822:35824   */\n      0x60\n        /* \"#utility.yul\":35811:35820   */\n      dup3\n        /* \"#utility.yul\":35807:35825   */\n      add\n        /* \"#utility.yul\":35799:35825   */\n      swap1\n      pop\n        /* \"#utility.yul\":35835:35906   */\n      tag_741\n        /* \"#utility.yul\":35903:35904   */\n      0x00\n        /* \"#utility.yul\":35892:35901   */\n      dup4\n        /* \"#utility.yul\":35888:35905   */\n      add\n        /* \"#utility.yul\":35879:35885   */\n      dup7\n        /* \"#utility.yul\":35835:35906   */\n      tag_307\n      jump\t// in\n    tag_741:\n        /* \"#utility.yul\":35916:35988   */\n      tag_742\n        /* \"#utility.yul\":35984:35986   */\n      0x20\n        /* \"#utility.yul\":35973:35982   */\n      dup4\n        /* \"#utility.yul\":35969:35987   */\n      add\n        /* \"#utility.yul\":35960:35966   */\n      dup6\n        /* \"#utility.yul\":35916:35988   */\n      tag_307\n      jump\t// in\n    tag_742:\n        /* \"#utility.yul\":35998:36070   */\n      tag_743\n        /* \"#utility.yul\":36066:36068   */\n      0x40\n        /* \"#utility.yul\":36055:36064   */\n      dup4\n        /* \"#utility.yul\":36051:36069   */\n      add\n        /* \"#utility.yul\":36042:36048   */\n      dup5\n        /* \"#utility.yul\":35998:36070   */\n      tag_298\n      jump\t// in\n    tag_743:\n        /* \"#utility.yul\":35635:36077   */\n      swap5\n      swap4\n      pop\n      pop\n      pop\n      pop\n      jump\t// out\n\n    auxdata: 0xa264697066735822122018f271173dc83feabebf08bc50aa3952cbaff517447ab9eb3bcc7b120e30b63c64736f6c634300081c0033\n}\n",
				"bytecode": {
					"linkReferences": {},
					"object": "60a060405234801561001057600080fd5b50604051612a24380380612a2483398181016040528101906100329190610301565b8181818133600073ffffffffffffffffffffffffffffffffffffffff168173ffffffffffffffffffffffffffffffffffffffff16036100a95760006040517f1e4fbdf70000000000000000000000000000000000000000000000000000000081526004016100a09190610350565b60405180910390fd5b6100b8816101da60201b60201c565b508173ffffffffffffffffffffffffffffffffffffffff1660808173ffffffffffffffffffffffffffffffffffffffff1681525050600073ffffffffffffffffffffffffffffffffffffffff168173ffffffffffffffffffffffffffffffffffffffff1603610153576040517fb586360400000000000000000000000000000000000000000000000000000000815260040160405180910390fd5b60805173ffffffffffffffffffffffffffffffffffffffff1663ca5eb5e1826040518263ffffffff1660e01b815260040161018e9190610350565b600060405180830381600087803b1580156101a857600080fd5b505af11580156101bc573d6000803e3d6000fd5b50505050505050506101d3816101da60201b60201c565b505061036b565b60008060009054906101000a900473ffffffffffffffffffffffffffffffffffffffff169050816000806101000a81548173ffffffffffffffffffffffffffffffffffffffff021916908373ffffffffffffffffffffffffffffffffffffffff1602179055508173ffffffffffffffffffffffffffffffffffffffff168173ffffffffffffffffffffffffffffffffffffffff167f8be0079c531659141344cd1fd0a4f28419497f9722a3daafe3b4186f6b6457e060405160405180910390a35050565b600080fd5b600073ffffffffffffffffffffffffffffffffffffffff82169050919050565b60006102ce826102a3565b9050919050565b6102de816102c3565b81146102e957600080fd5b50565b6000815190506102fb816102d5565b92915050565b600080604083850312156103185761031761029e565b5b6000610326858286016102ec565b9250506020610337858286016102ec565b9150509250929050565b61034a816102c3565b82525050565b60006020820190506103656000830184610341565b92915050565b6080516126746103b0600039600081816104590152818161071a01528181610a3e01528181610ebb01528181610fca0152818161110a015261120501526126746000f3fe60806040526004361061010d5760003560e01c80637d25a05e11610095578063bc294d7d11610064578063bc294d7d14610337578063ca5eb5e114610374578063f2fde38b1461039d578063f77e5dd3146103c6578063ff7bd03d1461040357610114565b80637d25a05e1461025557806382413eac146102925780638da5cb5b146102cf578063bb0b6a53146102fa57610114565b80633fb8e2a4116100dc5780633fb8e2a4146101a1578063529c7588146101cc5780635e280f11146101f7578063715018a61461022257806371e2a4361461023957610114565b806313137d651461011957806317442b70146101355780633400288b146101615780633ccfd60b1461018a57610114565b3661011457005b600080fd5b610133600480360381019061012e91906114f3565b610440565b005b34801561014157600080fd5b5061014a610562565b6040516101589291906115d2565b60405180910390f35b34801561016d57600080fd5b5061018860048036038101906101839190611637565b610571565b005b34801561019657600080fd5b5061019f610587565b005b3480156101ad57600080fd5b506101b6610628565b6040516101c39190611707565b60405180910390f35b3480156101d857600080fd5b506101e1610712565b6040516101ee9190611742565b60405180910390f35b34801561020357600080fd5b5061020c610718565b60405161021991906117bc565b60405180910390f35b34801561022e57600080fd5b5061023761073c565b005b610253600480360381019061024e919061182d565b610750565b005b34801561026157600080fd5b5061027c60048036038101906102779190611637565b610910565b60405161028991906118c2565b60405180910390f35b34801561029e57600080fd5b506102b960048036038101906102b491906118dd565b610918565b6040516102c6919061196c565b60405180910390f35b3480156102db57600080fd5b506102e4610953565b6040516102f19190611996565b60405180910390f35b34801561030657600080fd5b50610321600480360381019061031c91906119b1565b61097c565b60405161032e91906119ed565b60405180910390f35b34801561034357600080fd5b5061035e60048036038101906103599190611a34565b610994565b60405161036b9190611707565b60405180910390f35b34801561038057600080fd5b5061039b60048036038101906103969190611a61565b610a34565b005b3480156103a957600080fd5b506103c460048036038101906103bf9190611a61565b610aca565b005b3480156103d257600080fd5b506103ed60048036038101906103e89190611aba565b610b50565b6040516103fa9190611b9f565b60405180910390f35b34801561040f57600080fd5b5061042a60048036038101906104259190611bba565b610bdd565b604051610437919061196c565b60405180910390f35b3373ffffffffffffffffffffffffffffffffffffffff167f000000000000000000000000000000000000000000000000000000000000000073ffffffffffffffffffffffffffffffffffffffff16146104d057336040517f91ac5e4f0000000000000000000000000000000000000000000000000000000081526004016104c79190611996565b60405180910390fd5b86602001356104f08860000160208101906104eb91906119b1565b610c1e565b1461054a5786600001602081019061050891906119b1565b87602001356040517fc26bebcc000000000000000000000000000000000000000000000000000000008152600401610541929190611bf6565b60405180910390fd5b61055987878787878787610c93565b50505050505050565b60008060016002915091509091565b610579610d05565b6105838282610d8c565b5050565b61058f610d05565b6000479050600081116105d7576040517f08c379a00000000000000000000000000000000000000000000000000000000081526004016105ce90611c6b565b60405180910390fd5b6105df610953565b73ffffffffffffffffffffffffffffffffffffffff166108fc829081150290604051600060405180830381858888f19350505050158015610624573d6000803e3d6000fd5b5050565b606060006002541161066f576040517f08c379a000000000000000000000000000000000000000000000000000000000815260040161066690611cd7565b60405180910390fd5b600360006002548152602001908152602001600020805461068f90611d26565b80601f01602080910402602001604051908101604052809291908181526020018280546106bb90611d26565b80156107085780601f106106dd57610100808354040283529160200191610708565b820191906000526020600020905b8154815290600101906020018083116106eb57829003601f168201915b5050505050905090565b60025481565b7f000000000000000000000000000000000000000000000000000000000000000081565b610744610d05565b61074e6000610ded565b565b600084843360405160200161076793929190611d93565b604051602081830303815290604052905060006107cb878386868080601f016020809104026020016040519081016040528093929190818152602001838380828437600081840152601f19601f820116905080830192505050505050506000610eb1565b90508060000151341015610814576040517f08c379a000000000000000000000000000000000000000000000000000000000815260040161080b90611e11565b60405180910390fd5b600061087c888487878080601f016020809104026020016040519081016040528093929190818152602001838380828437600081840152601f19601f820116905080830192505050505050506040518060400160405280348152602001600081525033610f94565b90506002600081548092919061089190611e60565b9190505550868660036000600254815260200190815260200160002091826108ba929190612084565b5080600001518863ffffffff167f3aee2e9f3d248dc7e0f1a5564e3bacc5c9bd7c31967d06b5c277e1a0767a6a12898986600001516040516108fe93929190612154565b60405180910390a35050505050505050565b600092915050565b60003073ffffffffffffffffffffffffffffffffffffffff168273ffffffffffffffffffffffffffffffffffffffff16149050949350505050565b60008060009054906101000a900473ffffffffffffffffffffffffffffffffffffffff16905090565b60016020528060005260406000206000915090505481565b600360205280600052604060002060009150905080546109b390611d26565b80601f01602080910402602001604051908101604052809291908181526020018280546109df90611d26565b8015610a2c5780601f10610a0157610100808354040283529160200191610a2c565b820191906000526020600020905b815481529060010190602001808311610a0f57829003601f168201915b505050505081565b610a3c610d05565b7f000000000000000000000000000000000000000000000000000000000000000073ffffffffffffffffffffffffffffffffffffffff1663ca5eb5e1826040518263ffffffff1660e01b8152600401610a959190611996565b600060405180830381600087803b158015610aaf57600080fd5b505af1158015610ac3573d6000803e3d6000fd5b5050505050565b610ad2610d05565b600073ffffffffffffffffffffffffffffffffffffffff168173ffffffffffffffffffffffffffffffffffffffff1603610b445760006040517f1e4fbdf7000000000000000000000000000000000000000000000000000000008152600401610b3b9190611996565b60405180910390fd5b610b4d81610ded565b50565b610b58611374565b6000868633604051602001610b6f93929190611d93565b6040516020818303038152906040529050610bd0888287878080601f016020809104026020016040519081016040528093929190818152602001838380828437600081840152601f19601f8201169050808301925050505050505086610eb1565b9150509695505050505050565b6000816020013560016000846000016020810190610bfb91906119b1565b63ffffffff1663ffffffff16815260200190815260200160002054149050919050565b600080600160008463ffffffff1663ffffffff1681526020019081526020016000205490506000801b8103610c8a57826040517ff6ff4fb7000000000000000000000000000000000000000000000000000000008152600401610c819190612186565b60405180910390fd5b80915050919050565b6000808686810190610ca591906122d1565b9150915087896000016020810190610cbd91906119b1565b63ffffffff167f15491fa6bf738b90aa2bf5731ea662e510a1706e7034cc13c1b2371b12f0969d84604051610cf29190611707565b60405180910390a3505050505050505050565b610d0d6110b0565b73ffffffffffffffffffffffffffffffffffffffff16610d2b610953565b73ffffffffffffffffffffffffffffffffffffffff1614610d8a57610d4e6110b0565b6040517f118cdaa7000000000000000000000000000000000000000000000000000000008152600401610d819190611996565b60405180910390fd5b565b80600160008463ffffffff1663ffffffff168152602001908152602001600020819055507f238399d427b947898edb290f5ff0f9109849b1c3ba196a42e35f00c50a54b98b8282604051610de1929190611bf6565b60405180910390a15050565b60008060009054906101000a900473ffffffffffffffffffffffffffffffffffffffff169050816000806101000a81548173ffffffffffffffffffffffffffffffffffffffff021916908373ffffffffffffffffffffffffffffffffffffffff1602179055508173ffffffffffffffffffffffffffffffffffffffff168173ffffffffffffffffffffffffffffffffffffffff167f8be0079c531659141344cd1fd0a4f28419497f9722a3daafe3b4186f6b6457e060405160405180910390a35050565b610eb9611374565b7f000000000000000000000000000000000000000000000000000000000000000073ffffffffffffffffffffffffffffffffffffffff1663ddc28c586040518060a001604052808863ffffffff168152602001610f1589610c1e565b8152602001878152602001868152602001851515815250306040518363ffffffff1660e01b8152600401610f4a92919061242c565b6040805180830381865afa158015610f66573d6000803e3d6000fd5b505050506040513d601f19601f82011682018060405250810190610f8a91906124c6565b9050949350505050565b610f9c61138e565b6000610fab84600001516110b8565b9050600084602001511115610fc857610fc78460200151611106565b5b7f000000000000000000000000000000000000000000000000000000000000000073ffffffffffffffffffffffffffffffffffffffff16632637a450826040518060a001604052808b63ffffffff1681526020016110258c610c1e565b81526020018a815260200189815260200160008960200151111515815250866040518463ffffffff1660e01b815260040161106192919061242c565b60806040518083038185885af115801561107f573d6000803e3d6000fd5b50505050506040513d601f19601f820116820180604052508101906110a49190612598565b91505095945050505050565b600033905090565b60008134146110fe57346040517f9f7041200000000000000000000000000000000000000000000000000000000081526004016110f59190611742565b60405180910390fd5b819050919050565b60007f000000000000000000000000000000000000000000000000000000000000000073ffffffffffffffffffffffffffffffffffffffff1663e4fe1d946040518163ffffffff1660e01b8152600401602060405180830381865afa158015611173573d6000803e3d6000fd5b505050506040513d601f19601f8201168201806040525081019061119791906125da565b9050600073ffffffffffffffffffffffffffffffffffffffff168173ffffffffffffffffffffffffffffffffffffffff16036111ff576040517f5373352a00000000000000000000000000000000000000000000000000000000815260040160405180910390fd5b61124c337f0000000000000000000000000000000000000000000000000000000000000000848473ffffffffffffffffffffffffffffffffffffffff16611250909392919063ffffffff16565b5050565b6112cc848573ffffffffffffffffffffffffffffffffffffffff166323b872dd86868660405160240161128593929190612607565b604051602081830303815290604052915060e01b6020820180517bffffffffffffffffffffffffffffffffffffffffffffffffffffffff83818316178352505050506112d2565b50505050565b600080602060008451602086016000885af1806112f5576040513d6000823e3d81fd5b3d92506000519150506000821461131057600181141561132c565b60008473ffffffffffffffffffffffffffffffffffffffff163b145b1561136e57836040517f5274afe70000000000000000000000000000000000000000000000000000000081526004016113659190611996565b60405180910390fd5b50505050565b604051806040016040528060008152602001600081525090565b604051806060016040528060008019168152602001600067ffffffffffffffff1681526020016113bc611374565b81525090565b6000604051905090565b600080fd5b600080fd5b600080fd5b6000606082840312156113f1576113f06113d6565b5b81905092915050565b6000819050919050565b61140d816113fa565b811461141857600080fd5b50565b60008135905061142a81611404565b92915050565b600080fd5b600080fd5b600080fd5b60008083601f84011261145557611454611430565b5b8235905067ffffffffffffffff81111561147257611471611435565b5b60208301915083600182028301111561148e5761148d61143a565b5b9250929050565b600073ffffffffffffffffffffffffffffffffffffffff82169050919050565b60006114c082611495565b9050919050565b6114d0816114b5565b81146114db57600080fd5b50565b6000813590506114ed816114c7565b92915050565b600080600080600080600060e0888a031215611512576115116113cc565b5b60006115208a828b016113db565b97505060606115318a828b0161141b565b965050608088013567ffffffffffffffff811115611552576115516113d1565b5b61155e8a828b0161143f565b955095505060a06115718a828b016114de565b93505060c088013567ffffffffffffffff811115611592576115916113d1565b5b61159e8a828b0161143f565b925092505092959891949750929550565b600067ffffffffffffffff82169050919050565b6115cc816115af565b82525050565b60006040820190506115e760008301856115c3565b6115f460208301846115c3565b9392505050565b600063ffffffff82169050919050565b611614816115fb565b811461161f57600080fd5b50565b6000813590506116318161160b565b92915050565b6000806040838503121561164e5761164d6113cc565b5b600061165c85828601611622565b925050602061166d8582860161141b565b9150509250929050565b600081519050919050565b600082825260208201905092915050565b60005b838110156116b1578082015181840152602081019050611696565b60008484015250505050565b6000601f19601f8301169050919050565b60006116d982611677565b6116e38185611682565b93506116f3818560208601611693565b6116fc816116bd565b840191505092915050565b6000602082019050818103600083015261172181846116ce565b905092915050565b6000819050919050565b61173c81611729565b82525050565b60006020820190506117576000830184611733565b92915050565b6000819050919050565b600061178261177d61177884611495565b61175d565b611495565b9050919050565b600061179482611767565b9050919050565b60006117a682611789565b9050919050565b6117b68161179b565b82525050565b60006020820190506117d160008301846117ad565b92915050565b60008083601f8401126117ed576117ec611430565b5b8235905067ffffffffffffffff81111561180a57611809611435565b5b6020830191508360018202830111156118265761182561143a565b5b9250929050565b600080600080600060608688031215611849576118486113cc565b5b600061185788828901611622565b955050602086013567ffffffffffffffff811115611878576118776113d1565b5b611884888289016117d7565b9450945050604086013567ffffffffffffffff8111156118a7576118a66113d1565b5b6118b38882890161143f565b92509250509295509295909350565b60006020820190506118d760008301846115c3565b92915050565b60008060008060a085870312156118f7576118f66113cc565b5b6000611905878288016113db565b945050606085013567ffffffffffffffff811115611926576119256113d1565b5b6119328782880161143f565b93509350506080611945878288016114de565b91505092959194509250565b60008115159050919050565b61196681611951565b82525050565b6000602082019050611981600083018461195d565b92915050565b611990816114b5565b82525050565b60006020820190506119ab6000830184611987565b92915050565b6000602082840312156119c7576119c66113cc565b5b60006119d584828501611622565b91505092915050565b6119e7816113fa565b82525050565b6000602082019050611a0260008301846119de565b92915050565b611a1181611729565b8114611a1c57600080fd5b50565b600081359050611a2e81611a08565b92915050565b600060208284031215611a4a57611a496113cc565b5b6000611a5884828501611a1f565b91505092915050565b600060208284031215611a7757611a766113cc565b5b6000611a85848285016114de565b91505092915050565b611a9781611951565b8114611aa257600080fd5b50565b600081359050611ab481611a8e565b92915050565b60008060008060008060808789031215611ad757611ad66113cc565b5b6000611ae589828a01611622565b965050602087013567ffffffffffffffff811115611b0657611b056113d1565b5b611b1289828a016117d7565b9550955050604087013567ffffffffffffffff811115611b3557611b346113d1565b5b611b4189828a0161143f565b93509350506060611b5489828a01611aa5565b9150509295509295509295565b611b6a81611729565b82525050565b604082016000820151611b866000850182611b61565b506020820151611b996020850182611b61565b50505050565b6000604082019050611bb46000830184611b70565b92915050565b600060608284031215611bd057611bcf6113cc565b5b6000611bde848285016113db565b91505092915050565b611bf0816115fb565b82525050565b6000604082019050611c0b6000830185611be7565b611c1860208301846119de565b9392505050565b7f4e6f2062616c616e636520746f20776974686472617700000000000000000000600082015250565b6000611c55601683611682565b9150611c6082611c1f565b602082019050919050565b60006020820190508181036000830152611c8481611c48565b9050919050565b7f4e6f206d657373616765732073656e7400000000000000000000000000000000600082015250565b6000611cc1601083611682565b9150611ccc82611c8b565b602082019050919050565b60006020820190508181036000830152611cf081611cb4565b9050919050565b7f4e487b7100000000000000000000000000000000000000000000000000000000600052602260045260246000fd5b60006002820490506001821680611d3e57607f821691505b602082108103611d5157611d50611cf7565b5b50919050565b82818337600083830152505050565b6000611d728385611682565b9350611d7f838584611d57565b611d88836116bd565b840190509392505050565b60006040820190508181036000830152611dae818587611d66565b9050611dbd6020830184611987565b949350505050565b7f496e73756666696369656e742066656500000000000000000000000000000000600082015250565b6000611dfb601083611682565b9150611e0682611dc5565b602082019050919050565b60006020820190508181036000830152611e2a81611dee565b9050919050565b7f4e487b7100000000000000000000000000000000000000000000000000000000600052601160045260246000fd5b6000611e6b82611729565b91507fffffffffffffffffffffffffffffffffffffffffffffffffffffffffffffffff8203611e9d57611e9c611e31565b5b600182019050919050565b600082905092915050565b7f4e487b7100000000000000000000000000000000000000000000000000000000600052604160045260246000fd5b60008190508160005260206000209050919050565b60006020601f8301049050919050565b600082821b905092915050565b600060088302611f447fffffffffffffffffffffffffffffffffffffffffffffffffffffffffffffffff82611f07565b611f4e8683611f07565b95508019841693508086168417925050509392505050565b6000611f81611f7c611f7784611729565b61175d565b611729565b9050919050565b6000819050919050565b611f9b83611f66565b611faf611fa782611f88565b848454611f14565b825550505050565b600090565b611fc4611fb7565b611fcf818484611f92565b505050565b5b81811015611ff357611fe8600082611fbc565b600181019050611fd5565b5050565b601f8211156120385761200981611ee2565b61201284611ef7565b81016020851015612021578190505b61203561202d85611ef7565b830182611fd4565b50505b505050565b600082821c905092915050565b600061205b6000198460080261203d565b1980831691505092915050565b6000612074838361204a565b9150826002028217905092915050565b61208e8383611ea8565b67ffffffffffffffff8111156120a7576120a6611eb3565b5b6120b18254611d26565b6120bc828285611ff7565b6000601f8311600181146120eb57600084156120d9578287013590505b6120e38582612068565b86555061214b565b601f1984166120f986611ee2565b60005b82811015612121578489013582556001820191506020850194506020810190506120fc565b8683101561213e578489013561213a601f89168261204a565b8355505b6001600288020188555050505b50505050505050565b6000604082019050818103600083015261216f818587611d66565b905061217e6020830184611733565b949350505050565b600060208201905061219b6000830184611be7565b92915050565b600080fd5b6121af826116bd565b810181811067ffffffffffffffff821117156121ce576121cd611eb3565b5b80604052505050565b60006121e16113c2565b90506121ed82826121a6565b919050565b600067ffffffffffffffff82111561220d5761220c611eb3565b5b612216826116bd565b9050602081019050919050565b6000612236612231846121f2565b6121d7565b905082815260208101848484011115612252576122516121a1565b5b61225d848285611d57565b509392505050565b600082601f83011261227a57612279611430565b5b813561228a848260208601612223565b91505092915050565b600061229e82611495565b9050919050565b6122ae81612293565b81146122b957600080fd5b50565b6000813590506122cb816122a5565b92915050565b600080604083850312156122e8576122e76113cc565b5b600083013567ffffffffffffffff811115612306576123056113d1565b5b61231285828601612265565b9250506020612323858286016122bc565b9150509250929050565b612336816115fb565b82525050565b612345816113fa565b82525050565b600081519050919050565b600082825260208201905092915050565b60006123728261234b565b61237c8185612356565b935061238c818560208601611693565b612395816116bd565b840191505092915050565b6123a981611951565b82525050565b600060a0830160008301516123c7600086018261232d565b5060208301516123da602086018261233c565b50604083015184820360408601526123f28282612367565b9150506060830151848203606086015261240c8282612367565b915050608083015161242160808601826123a0565b508091505092915050565b6000604082019050818103600083015261244681856123af565b90506124556020830184611987565b9392505050565b600080fd5b60008151905061247081611a08565b92915050565b60006040828403121561248c5761248b61245c565b5b61249660406121d7565b905060006124a684828501612461565b60008301525060206124ba84828501612461565b60208301525092915050565b6000604082840312156124dc576124db6113cc565b5b60006124ea84828501612476565b91505092915050565b60008151905061250281611404565b92915050565b612511816115af565b811461251c57600080fd5b50565b60008151905061252e81612508565b92915050565b60006080828403121561254a5761254961245c565b5b61255460606121d7565b90506000612564848285016124f3565b60008301525060206125788482850161251f565b602083015250604061258c84828501612476565b60408301525092915050565b6000608082840312156125ae576125ad6113cc565b5b60006125bc84828501612534565b91505092915050565b6000815190506125d4816114c7565b92915050565b6000602082840312156125f0576125ef6113cc565b5b60006125fe848285016125c5565b91505092915050565b600060608201905061261c6000830186611987565b6126296020830185611987565b6126366040830184611733565b94935050505056fea264697066735822122018f271173dc83feabebf08bc50aa3952cbaff517447ab9eb3bcc7b120e30b63c64736f6c634300081c0033",
					"opcodes": "PUSH1 0xA0 PUSH1 0x40 MSTORE CALLVALUE DUP1 ISZERO PUSH2 0x10 JUMPI PUSH1 0x0 DUP1 REVERT JUMPDEST POP PUSH1 0x40 MLOAD PUSH2 0x2A24 CODESIZE SUB DUP1 PUSH2 0x2A24 DUP4 CODECOPY DUP2 DUP2 ADD PUSH1 0x40 MSTORE DUP2 ADD SWAP1 PUSH2 0x32 SWAP2 SWAP1 PUSH2 0x301 JUMP JUMPDEST DUP2 DUP2 DUP2 DUP2 CALLER PUSH1 0x0 PUSH20 0xFFFFFFFFFFFFFFFFFFFFFFFFFFFFFFFFFFFFFFFF AND DUP2 PUSH20 0xFFFFFFFFFFFFFFFFFFFFFFFFFFFFFFFFFFFFFFFF AND SUB PUSH2 0xA9 JUMPI PUSH1 0x0 PUSH1 0x40 MLOAD PUSH32 0x1E4FBDF700000000000000000000000000000000000000000000000000000000 DUP2 MSTORE PUSH1 0x4 ADD PUSH2 0xA0 SWAP2 SWAP1 PUSH2 0x350 JUMP JUMPDEST PUSH1 0x40 MLOAD DUP1 SWAP2 SUB SWAP1 REVERT JUMPDEST PUSH2 0xB8 DUP2 PUSH2 0x1DA PUSH1 0x20 SHL PUSH1 0x20 SHR JUMP JUMPDEST POP DUP2 PUSH20 0xFFFFFFFFFFFFFFFFFFFFFFFFFFFFFFFFFFFFFFFF AND PUSH1 0x80 DUP2 PUSH20 0xFFFFFFFFFFFFFFFFFFFFFFFFFFFFFFFFFFFFFFFF AND DUP2 MSTORE POP POP PUSH1 0x0 PUSH20 0xFFFFFFFFFFFFFFFFFFFFFFFFFFFFFFFFFFFFFFFF AND DUP2 PUSH20 0xFFFFFFFFFFFFFFFFFFFFFFFFFFFFFFFFFFFFFFFF AND SUB PUSH2 0x153 JUMPI PUSH1 0x40 MLOAD PUSH32 0xB586360400000000000000000000000000000000000000000000000000000000 DUP2 MSTORE PUSH1 0x4 ADD PUSH1 0x40 MLOAD DUP1 SWAP2 SUB SWAP1 REVERT JUMPDEST PUSH1 0x80 MLOAD PUSH20 0xFFFFFFFFFFFFFFFFFFFFFFFFFFFFFFFFFFFFFFFF AND PUSH4 0xCA5EB5E1 DUP3 PUSH1 0x40 MLOAD DUP3 PUSH4 0xFFFFFFFF AND PUSH1 0xE0 SHL DUP2 MSTORE PUSH1 0x4 ADD PUSH2 0x18E SWAP2 SWAP1 PUSH2 0x350 JUMP JUMPDEST PUSH1 0x0 PUSH1 0x40 MLOAD DUP1 DUP4 SUB DUP2 PUSH1 0x0 DUP8 DUP1 EXTCODESIZE ISZERO DUP1 ISZERO PUSH2 0x1A8 JUMPI PUSH1 0x0 DUP1 REVERT JUMPDEST POP GAS CALL ISZERO DUP1 ISZERO PUSH2 0x1BC JUMPI RETURNDATASIZE PUSH1 0x0 DUP1 RETURNDATACOPY RETURNDATASIZE PUSH1 0x0 REVERT JUMPDEST POP POP POP POP POP POP POP POP PUSH2 0x1D3 DUP2 PUSH2 0x1DA PUSH1 0x20 SHL PUSH1 0x20 SHR JUMP JUMPDEST POP POP PUSH2 0x36B JUMP JUMPDEST PUSH1 0x0 DUP1 PUSH1 0x0 SWAP1 SLOAD SWAP1 PUSH2 0x100 EXP SWAP1 DIV PUSH20 0xFFFFFFFFFFFFFFFFFFFFFFFFFFFFFFFFFFFFFFFF AND SWAP1 POP DUP2 PUSH1 0x0 DUP1 PUSH2 0x100 EXP DUP2 SLOAD DUP2 PUSH20 0xFFFFFFFFFFFFFFFFFFFFFFFFFFFFFFFFFFFFFFFF MUL NOT AND SWAP1 DUP4 PUSH20 0xFFFFFFFFFFFFFFFFFFFFFFFFFFFFFFFFFFFFFFFF AND MUL OR SWAP1 SSTORE POP DUP2 PUSH20 0xFFFFFFFFFFFFFFFFFFFFFFFFFFFFFFFFFFFFFFFF AND DUP2 PUSH20 0xFFFFFFFFFFFFFFFFFFFFFFFFFFFFFFFFFFFFFFFF AND PUSH32 0x8BE0079C531659141344CD1FD0A4F28419497F9722A3DAAFE3B4186F6B6457E0 PUSH1 0x40 MLOAD PUSH1 0x40 MLOAD DUP1 SWAP2 SUB SWAP1 LOG3 POP POP JUMP JUMPDEST PUSH1 0x0 DUP1 REVERT JUMPDEST PUSH1 0x0 PUSH20 0xFFFFFFFFFFFFFFFFFFFFFFFFFFFFFFFFFFFFFFFF DUP3 AND SWAP1 POP SWAP2 SWAP1 POP JUMP JUMPDEST PUSH1 0x0 PUSH2 0x2CE DUP3 PUSH2 0x2A3 JUMP JUMPDEST SWAP1 POP SWAP2 SWAP1 POP JUMP JUMPDEST PUSH2 0x2DE DUP2 PUSH2 0x2C3 JUMP JUMPDEST DUP2 EQ PUSH2 0x2E9 JUMPI PUSH1 0x0 DUP1 REVERT JUMPDEST POP JUMP JUMPDEST PUSH1 0x0 DUP2 MLOAD SWAP1 POP PUSH2 0x2FB DUP2 PUSH2 0x2D5 JUMP JUMPDEST SWAP3 SWAP2 POP POP JUMP JUMPDEST PUSH1 0x0 DUP1 PUSH1 0x40 DUP4 DUP6 SUB SLT ISZERO PUSH2 0x318 JUMPI PUSH2 0x317 PUSH2 0x29E JUMP JUMPDEST JUMPDEST PUSH1 0x0 PUSH2 0x326 DUP6 DUP3 DUP7 ADD PUSH2 0x2EC JUMP JUMPDEST SWAP3 POP POP PUSH1 0x20 PUSH2 0x337 DUP6 DUP3 DUP7 ADD PUSH2 0x2EC JUMP JUMPDEST SWAP2 POP POP SWAP3 POP SWAP3 SWAP1 POP JUMP JUMPDEST PUSH2 0x34A DUP2 PUSH2 0x2C3 JUMP JUMPDEST DUP3 MSTORE POP POP JUMP JUMPDEST PUSH1 0x0 PUSH1 0x20 DUP3 ADD SWAP1 POP PUSH2 0x365 PUSH1 0x0 DUP4 ADD DUP5 PUSH2 0x341 JUMP JUMPDEST SWAP3 SWAP2 POP POP JUMP JUMPDEST PUSH1 0x80 MLOAD PUSH2 0x2674 PUSH2 0x3B0 PUSH1 0x0 CODECOPY PUSH1 0x0 DUP2 DUP2 PUSH2 0x459 ADD MSTORE DUP2 DUP2 PUSH2 0x71A ADD MSTORE DUP2 DUP2 PUSH2 0xA3E ADD MSTORE DUP2 DUP2 PUSH2 0xEBB ADD MSTORE DUP2 DUP2 PUSH2 0xFCA ADD MSTORE DUP2 DUP2 PUSH2 0x110A ADD MSTORE PUSH2 0x1205 ADD MSTORE PUSH2 0x2674 PUSH1 0x0 RETURN INVALID PUSH1 0x80 PUSH1 0x40 MSTORE PUSH1 0x4 CALLDATASIZE LT PUSH2 0x10D JUMPI PUSH1 0x0 CALLDATALOAD PUSH1 0xE0 SHR DUP1 PUSH4 0x7D25A05E GT PUSH2 0x95 JUMPI DUP1 PUSH4 0xBC294D7D GT PUSH2 0x64 JUMPI DUP1 PUSH4 0xBC294D7D EQ PUSH2 0x337 JUMPI DUP1 PUSH4 0xCA5EB5E1 EQ PUSH2 0x374 JUMPI DUP1 PUSH4 0xF2FDE38B EQ PUSH2 0x39D JUMPI DUP1 PUSH4 0xF77E5DD3 EQ PUSH2 0x3C6 JUMPI DUP1 PUSH4 0xFF7BD03D EQ PUSH2 0x403 JUMPI PUSH2 0x114 JUMP JUMPDEST DUP1 PUSH4 0x7D25A05E EQ PUSH2 0x255 JUMPI DUP1 PUSH4 0x82413EAC EQ PUSH2 0x292 JUMPI DUP1 PUSH4 0x8DA5CB5B EQ PUSH2 0x2CF JUMPI DUP1 PUSH4 0xBB0B6A53 EQ PUSH2 0x2FA JUMPI PUSH2 0x114 JUMP JUMPDEST DUP1 PUSH4 0x3FB8E2A4 GT PUSH2 0xDC JUMPI DUP1 PUSH4 0x3FB8E2A4 EQ PUSH2 0x1A1 JUMPI DUP1 PUSH4 0x529C7588 EQ PUSH2 0x1CC JUMPI DUP1 PUSH4 0x5E280F11 EQ PUSH2 0x1F7 JUMPI DUP1 PUSH4 0x715018A6 EQ PUSH2 0x222 JUMPI DUP1 PUSH4 0x71E2A436 EQ PUSH2 0x239 JUMPI PUSH2 0x114 JUMP JUMPDEST DUP1 PUSH4 0x13137D65 EQ PUSH2 0x119 JUMPI DUP1 PUSH4 0x17442B70 EQ PUSH2 0x135 JUMPI DUP1 PUSH4 0x3400288B EQ PUSH2 0x161 JUMPI DUP1 PUSH4 0x3CCFD60B EQ PUSH2 0x18A JUMPI PUSH2 0x114 JUMP JUMPDEST CALLDATASIZE PUSH2 0x114 JUMPI STOP JUMPDEST PUSH1 0x0 DUP1 REVERT JUMPDEST PUSH2 0x133 PUSH1 0x4 DUP1 CALLDATASIZE SUB DUP2 ADD SWAP1 PUSH2 0x12E SWAP2 SWAP1 PUSH2 0x14F3 JUMP JUMPDEST PUSH2 0x440 JUMP JUMPDEST STOP JUMPDEST CALLVALUE DUP1 ISZERO PUSH2 0x141 JUMPI PUSH1 0x0 DUP1 REVERT JUMPDEST POP PUSH2 0x14A PUSH2 0x562 JUMP JUMPDEST PUSH1 0x40 MLOAD PUSH2 0x158 SWAP3 SWAP2 SWAP1 PUSH2 0x15D2 JUMP JUMPDEST PUSH1 0x40 MLOAD DUP1 SWAP2 SUB SWAP1 RETURN JUMPDEST CALLVALUE DUP1 ISZERO PUSH2 0x16D JUMPI PUSH1 0x0 DUP1 REVERT JUMPDEST POP PUSH2 0x188 PUSH1 0x4 DUP1 CALLDATASIZE SUB DUP2 ADD SWAP1 PUSH2 0x183 SWAP2 SWAP1 PUSH2 0x1637 JUMP JUMPDEST PUSH2 0x571 JUMP JUMPDEST STOP JUMPDEST CALLVALUE DUP1 ISZERO PUSH2 0x196 JUMPI PUSH1 0x0 DUP1 REVERT JUMPDEST POP PUSH2 0x19F PUSH2 0x587 JUMP JUMPDEST STOP JUMPDEST CALLVALUE DUP1 ISZERO PUSH2 0x1AD JUMPI PUSH1 0x0 DUP1 REVERT JUMPDEST POP PUSH2 0x1B6 PUSH2 0x628 JUMP JUMPDEST PUSH1 0x40 MLOAD PUSH2 0x1C3 SWAP2 SWAP1 PUSH2 0x1707 JUMP JUMPDEST PUSH1 0x40 MLOAD DUP1 SWAP2 SUB SWAP1 RETURN JUMPDEST CALLVALUE DUP1 ISZERO PUSH2 0x1D8 JUMPI PUSH1 0x0 DUP1 REVERT JUMPDEST POP PUSH2 0x1E1 PUSH2 0x712 JUMP JUMPDEST PUSH1 0x40 MLOAD PUSH2 0x1EE SWAP2 SWAP1 PUSH2 0x1742 JUMP JUMPDEST PUSH1 0x40 MLOAD DUP1 SWAP2 SUB SWAP1 RETURN JUMPDEST CALLVALUE DUP1 ISZERO PUSH2 0x203 JUMPI PUSH1 0x0 DUP1 REVERT JUMPDEST POP PUSH2 0x20C PUSH2 0x718 JUMP JUMPDEST PUSH1 0x40 MLOAD PUSH2 0x219 SWAP2 SWAP1 PUSH2 0x17BC JUMP JUMPDEST PUSH1 0x40 MLOAD DUP1 SWAP2 SUB SWAP1 RETURN JUMPDEST CALLVALUE DUP1 ISZERO PUSH2 0x22E JUMPI PUSH1 0x0 DUP1 REVERT JUMPDEST POP PUSH2 0x237 PUSH2 0x73C JUMP JUMPDEST STOP JUMPDEST PUSH2 0x253 PUSH1 0x4 DUP1 CALLDATASIZE SUB DUP2 ADD SWAP1 PUSH2 0x24E SWAP2 SWAP1 PUSH2 0x182D JUMP JUMPDEST PUSH2 0x750 JUMP JUMPDEST STOP JUMPDEST CALLVALUE DUP1 ISZERO PUSH2 0x261 JUMPI PUSH1 0x0 DUP1 REVERT JUMPDEST POP PUSH2 0x27C PUSH1 0x4 DUP1 CALLDATASIZE SUB DUP2 ADD SWAP1 PUSH2 0x277 SWAP2 SWAP1 PUSH2 0x1637 JUMP JUMPDEST PUSH2 0x910 JUMP JUMPDEST PUSH1 0x40 MLOAD PUSH2 0x289 SWAP2 SWAP1 PUSH2 0x18C2 JUMP JUMPDEST PUSH1 0x40 MLOAD DUP1 SWAP2 SUB SWAP1 RETURN JUMPDEST CALLVALUE DUP1 ISZERO PUSH2 0x29E JUMPI PUSH1 0x0 DUP1 REVERT JUMPDEST POP PUSH2 0x2B9 PUSH1 0x4 DUP1 CALLDATASIZE SUB DUP2 ADD SWAP1 PUSH2 0x2B4 SWAP2 SWAP1 PUSH2 0x18DD JUMP JUMPDEST PUSH2 0x918 JUMP JUMPDEST PUSH1 0x40 MLOAD PUSH2 0x2C6 SWAP2 SWAP1 PUSH2 0x196C JUMP JUMPDEST PUSH1 0x40 MLOAD DUP1 SWAP2 SUB SWAP1 RETURN JUMPDEST CALLVALUE DUP1 ISZERO PUSH2 0x2DB JUMPI PUSH1 0x0 DUP1 REVERT JUMPDEST POP PUSH2 0x2E4 PUSH2 0x953 JUMP JUMPDEST PUSH1 0x40 MLOAD PUSH2 0x2F1 SWAP2 SWAP1 PUSH2 0x1996 JUMP JUMPDEST PUSH1 0x40 MLOAD DUP1 SWAP2 SUB SWAP1 RETURN JUMPDEST CALLVALUE DUP1 ISZERO PUSH2 0x306 JUMPI PUSH1 0x0 DUP1 REVERT JUMPDEST POP PUSH2 0x321 PUSH1 0x4 DUP1 CALLDATASIZE SUB DUP2 ADD SWAP1 PUSH2 0x31C SWAP2 SWAP1 PUSH2 0x19B1 JUMP JUMPDEST PUSH2 0x97C JUMP JUMPDEST PUSH1 0x40 MLOAD PUSH2 0x32E SWAP2 SWAP1 PUSH2 0x19ED JUMP JUMPDEST PUSH1 0x40 MLOAD DUP1 SWAP2 SUB SWAP1 RETURN JUMPDEST CALLVALUE DUP1 ISZERO PUSH2 0x343 JUMPI PUSH1 0x0 DUP1 REVERT JUMPDEST POP PUSH2 0x35E PUSH1 0x4 DUP1 CALLDATASIZE SUB DUP2 ADD SWAP1 PUSH2 0x359 SWAP2 SWAP1 PUSH2 0x1A34 JUMP JUMPDEST PUSH2 0x994 JUMP JUMPDEST PUSH1 0x40 MLOAD PUSH2 0x36B SWAP2 SWAP1 PUSH2 0x1707 JUMP JUMPDEST PUSH1 0x40 MLOAD DUP1 SWAP2 SUB SWAP1 RETURN JUMPDEST CALLVALUE DUP1 ISZERO PUSH2 0x380 JUMPI PUSH1 0x0 DUP1 REVERT JUMPDEST POP PUSH2 0x39B PUSH1 0x4 DUP1 CALLDATASIZE SUB DUP2 ADD SWAP1 PUSH2 0x396 SWAP2 SWAP1 PUSH2 0x1A61 JUMP JUMPDEST PUSH2 0xA34 JUMP JUMPDEST STOP JUMPDEST CALLVALUE DUP1 ISZERO PUSH2 0x3A9 JUMPI PUSH1 0x0 DUP1 REVERT JUMPDEST POP PUSH2 0x3C4 PUSH1 0x4 DUP1 CALLDATASIZE SUB DUP2 ADD SWAP1 PUSH2 0x3BF SWAP2 SWAP1 PUSH2 0x1A61 JUMP JUMPDEST PUSH2 0xACA JUMP JUMPDEST STOP JUMPDEST CALLVALUE DUP1 ISZERO PUSH2 0x3D2 JUMPI PUSH1 0x0 DUP1 REVERT JUMPDEST POP PUSH2 0x3ED PUSH1 0x4 DUP1 CALLDATASIZE SUB DUP2 ADD SWAP1 PUSH2 0x3E8 SWAP2 SWAP1 PUSH2 0x1ABA JUMP JUMPDEST PUSH2 0xB50 JUMP JUMPDEST PUSH1 0x40 MLOAD PUSH2 0x3FA SWAP2 SWAP1 PUSH2 0x1B9F JUMP JUMPDEST PUSH1 0x40 MLOAD DUP1 SWAP2 SUB SWAP1 RETURN JUMPDEST CALLVALUE DUP1 ISZERO PUSH2 0x40F JUMPI PUSH1 0x0 DUP1 REVERT JUMPDEST POP PUSH2 0x42A PUSH1 0x4 DUP1 CALLDATASIZE SUB DUP2 ADD SWAP1 PUSH2 0x425 SWAP2 SWAP1 PUSH2 0x1BBA JUMP JUMPDEST PUSH2 0xBDD JUMP JUMPDEST PUSH1 0x40 MLOAD PUSH2 0x437 SWAP2 SWAP1 PUSH2 0x196C JUMP JUMPDEST PUSH1 0x40 MLOAD DUP1 SWAP2 SUB SWAP1 RETURN JUMPDEST CALLER PUSH20 0xFFFFFFFFFFFFFFFFFFFFFFFFFFFFFFFFFFFFFFFF AND PUSH32 0x0 PUSH20 0xFFFFFFFFFFFFFFFFFFFFFFFFFFFFFFFFFFFFFFFF AND EQ PUSH2 0x4D0 JUMPI CALLER PUSH1 0x40 MLOAD PUSH32 0x91AC5E4F00000000000000000000000000000000000000000000000000000000 DUP2 MSTORE PUSH1 0x4 ADD PUSH2 0x4C7 SWAP2 SWAP1 PUSH2 0x1996 JUMP JUMPDEST PUSH1 0x40 MLOAD DUP1 SWAP2 SUB SWAP1 REVERT JUMPDEST DUP7 PUSH1 0x20 ADD CALLDATALOAD PUSH2 0x4F0 DUP9 PUSH1 0x0 ADD PUSH1 0x20 DUP2 ADD SWAP1 PUSH2 0x4EB SWAP2 SWAP1 PUSH2 0x19B1 JUMP JUMPDEST PUSH2 0xC1E JUMP JUMPDEST EQ PUSH2 0x54A JUMPI DUP7 PUSH1 0x0 ADD PUSH1 0x20 DUP2 ADD SWAP1 PUSH2 0x508 SWAP2 SWAP1 PUSH2 0x19B1 JUMP JUMPDEST DUP8 PUSH1 0x20 ADD CALLDATALOAD PUSH1 0x40 MLOAD PUSH32 0xC26BEBCC00000000000000000000000000000000000000000000000000000000 DUP2 MSTORE PUSH1 0x4 ADD PUSH2 0x541 SWAP3 SWAP2 SWAP1 PUSH2 0x1BF6 JUMP JUMPDEST PUSH1 0x40 MLOAD DUP1 SWAP2 SUB SWAP1 REVERT JUMPDEST PUSH2 0x559 DUP8 DUP8 DUP8 DUP8 DUP8 DUP8 DUP8 PUSH2 0xC93 JUMP JUMPDEST POP POP POP POP POP POP POP JUMP JUMPDEST PUSH1 0x0 DUP1 PUSH1 0x1 PUSH1 0x2 SWAP2 POP SWAP2 POP SWAP1 SWAP2 JUMP JUMPDEST PUSH2 0x579 PUSH2 0xD05 JUMP JUMPDEST PUSH2 0x583 DUP3 DUP3 PUSH2 0xD8C JUMP JUMPDEST POP POP JUMP JUMPDEST PUSH2 0x58F PUSH2 0xD05 JUMP JUMPDEST PUSH1 0x0 SELFBALANCE SWAP1 POP PUSH1 0x0 DUP2 GT PUSH2 0x5D7 JUMPI PUSH1 0x40 MLOAD PUSH32 0x8C379A000000000000000000000000000000000000000000000000000000000 DUP2 MSTORE PUSH1 0x4 ADD PUSH2 0x5CE SWAP1 PUSH2 0x1C6B JUMP JUMPDEST PUSH1 0x40 MLOAD DUP1 SWAP2 SUB SWAP1 REVERT JUMPDEST PUSH2 0x5DF PUSH2 0x953 JUMP JUMPDEST PUSH20 0xFFFFFFFFFFFFFFFFFFFFFFFFFFFFFFFFFFFFFFFF AND PUSH2 0x8FC DUP3 SWAP1 DUP2 ISZERO MUL SWAP1 PUSH1 0x40 MLOAD PUSH1 0x0 PUSH1 0x40 MLOAD DUP1 DUP4 SUB DUP2 DUP6 DUP9 DUP9 CALL SWAP4 POP POP POP POP ISZERO DUP1 ISZERO PUSH2 0x624 JUMPI RETURNDATASIZE PUSH1 0x0 DUP1 RETURNDATACOPY RETURNDATASIZE PUSH1 0x0 REVERT JUMPDEST POP POP JUMP JUMPDEST PUSH1 0x60 PUSH1 0x0 PUSH1 0x2 SLOAD GT PUSH2 0x66F JUMPI PUSH1 0x40 MLOAD PUSH32 0x8C379A000000000000000000000000000000000000000000000000000000000 DUP2 MSTORE PUSH1 0x4 ADD PUSH2 0x666 SWAP1 PUSH2 0x1CD7 JUMP JUMPDEST PUSH1 0x40 MLOAD DUP1 SWAP2 SUB SWAP1 REVERT JUMPDEST PUSH1 0x3 PUSH1 0x0 PUSH1 0x2 SLOAD DUP2 MSTORE PUSH1 0x20 ADD SWAP1 DUP2 MSTORE PUSH1 0x20 ADD PUSH1 0x0 KECCAK256 DUP1 SLOAD PUSH2 0x68F SWAP1 PUSH2 0x1D26 JUMP JUMPDEST DUP1 PUSH1 0x1F ADD PUSH1 0x20 DUP1 SWAP2 DIV MUL PUSH1 0x20 ADD PUSH1 0x40 MLOAD SWAP1 DUP2 ADD PUSH1 0x40 MSTORE DUP1 SWAP3 SWAP2 SWAP1 DUP2 DUP2 MSTORE PUSH1 0x20 ADD DUP3 DUP1 SLOAD PUSH2 0x6BB SWAP1 PUSH2 0x1D26 JUMP JUMPDEST DUP1 ISZERO PUSH2 0x708 JUMPI DUP1 PUSH1 0x1F LT PUSH2 0x6DD JUMPI PUSH2 0x100 DUP1 DUP4 SLOAD DIV MUL DUP4 MSTORE SWAP2 PUSH1 0x20 ADD SWAP2 PUSH2 0x708 JUMP JUMPDEST DUP3 ADD SWAP2 SWAP1 PUSH1 0x0 MSTORE PUSH1 0x20 PUSH1 0x0 KECCAK256 SWAP1 JUMPDEST DUP2 SLOAD DUP2 MSTORE SWAP1 PUSH1 0x1 ADD SWAP1 PUSH1 0x20 ADD DUP1 DUP4 GT PUSH2 0x6EB JUMPI DUP3 SWAP1 SUB PUSH1 0x1F AND DUP3 ADD SWAP2 JUMPDEST POP POP POP POP POP SWAP1 POP SWAP1 JUMP JUMPDEST PUSH1 0x2 SLOAD DUP2 JUMP JUMPDEST PUSH32 0x0 DUP2 JUMP JUMPDEST PUSH2 0x744 PUSH2 0xD05 JUMP JUMPDEST PUSH2 0x74E PUSH1 0x0 PUSH2 0xDED JUMP JUMPDEST JUMP JUMPDEST PUSH1 0x0 DUP5 DUP5 CALLER PUSH1 0x40 MLOAD PUSH1 0x20 ADD PUSH2 0x767 SWAP4 SWAP3 SWAP2 SWAP1 PUSH2 0x1D93 JUMP JUMPDEST PUSH1 0x40 MLOAD PUSH1 0x20 DUP2 DUP4 SUB SUB DUP2 MSTORE SWAP1 PUSH1 0x40 MSTORE SWAP1 POP PUSH1 0x0 PUSH2 0x7CB DUP8 DUP4 DUP7 DUP7 DUP1 DUP1 PUSH1 0x1F ADD PUSH1 0x20 DUP1 SWAP2 DIV MUL PUSH1 0x20 ADD PUSH1 0x40 MLOAD SWAP1 DUP2 ADD PUSH1 0x40 MSTORE DUP1 SWAP4 SWAP3 SWAP2 SWAP1 DUP2 DUP2 MSTORE PUSH1 0x20 ADD DUP4 DUP4 DUP1 DUP3 DUP5 CALLDATACOPY PUSH1 0x0 DUP2 DUP5 ADD MSTORE PUSH1 0x1F NOT PUSH1 0x1F DUP3 ADD AND SWAP1 POP DUP1 DUP4 ADD SWAP3 POP POP POP POP POP POP POP PUSH1 0x0 PUSH2 0xEB1 JUMP JUMPDEST SWAP1 POP DUP1 PUSH1 0x0 ADD MLOAD CALLVALUE LT ISZERO PUSH2 0x814 JUMPI PUSH1 0x40 MLOAD PUSH32 0x8C379A000000000000000000000000000000000000000000000000000000000 DUP2 MSTORE PUSH1 0x4 ADD PUSH2 0x80B SWAP1 PUSH2 0x1E11 JUMP JUMPDEST PUSH1 0x40 MLOAD DUP1 SWAP2 SUB SWAP1 REVERT JUMPDEST PUSH1 0x0 PUSH2 0x87C DUP9 DUP5 DUP8 DUP8 DUP1 DUP1 PUSH1 0x1F ADD PUSH1 0x20 DUP1 SWAP2 DIV MUL PUSH1 0x20 ADD PUSH1 0x40 MLOAD SWAP1 DUP2 ADD PUSH1 0x40 MSTORE DUP1 SWAP4 SWAP3 SWAP2 SWAP1 DUP2 DUP2 MSTORE PUSH1 0x20 ADD DUP4 DUP4 DUP1 DUP3 DUP5 CALLDATACOPY PUSH1 0x0 DUP2 DUP5 ADD MSTORE PUSH1 0x1F NOT PUSH1 0x1F DUP3 ADD AND SWAP1 POP DUP1 DUP4 ADD SWAP3 POP POP POP POP POP POP POP PUSH1 0x40 MLOAD DUP1 PUSH1 0x40 ADD PUSH1 0x40 MSTORE DUP1 CALLVALUE DUP2 MSTORE PUSH1 0x20 ADD PUSH1 0x0 DUP2 MSTORE POP CALLER PUSH2 0xF94 JUMP JUMPDEST SWAP1 POP PUSH1 0x2 PUSH1 0x0 DUP2 SLOAD DUP1 SWAP3 SWAP2 SWAP1 PUSH2 0x891 SWAP1 PUSH2 0x1E60 JUMP JUMPDEST SWAP2 SWAP1 POP SSTORE POP DUP7 DUP7 PUSH1 0x3 PUSH1 0x0 PUSH1 0x2 SLOAD DUP2 MSTORE PUSH1 0x20 ADD SWAP1 DUP2 MSTORE PUSH1 0x20 ADD PUSH1 0x0 KECCAK256 SWAP2 DUP3 PUSH2 0x8BA SWAP3 SWAP2 SWAP1 PUSH2 0x2084 JUMP JUMPDEST POP DUP1 PUSH1 0x0 ADD MLOAD DUP9 PUSH4 0xFFFFFFFF AND PUSH32 0x3AEE2E9F3D248DC7E0F1A5564E3BACC5C9BD7C31967D06B5C277E1A0767A6A12 DUP10 DUP10 DUP7 PUSH1 0x0 ADD MLOAD PUSH1 0x40 MLOAD PUSH2 0x8FE SWAP4 SWAP3 SWAP2 SWAP1 PUSH2 0x2154 JUMP JUMPDEST PUSH1 0x40 MLOAD DUP1 SWAP2 SUB SWAP1 LOG3 POP POP POP POP POP POP POP POP JUMP JUMPDEST PUSH1 0x0 SWAP3 SWAP2 POP POP JUMP JUMPDEST PUSH1 0x0 ADDRESS PUSH20 0xFFFFFFFFFFFFFFFFFFFFFFFFFFFFFFFFFFFFFFFF AND DUP3 PUSH20 0xFFFFFFFFFFFFFFFFFFFFFFFFFFFFFFFFFFFFFFFF AND EQ SWAP1 POP SWAP5 SWAP4 POP POP POP POP JUMP JUMPDEST PUSH1 0x0 DUP1 PUSH1 0x0 SWAP1 SLOAD SWAP1 PUSH2 0x100 EXP SWAP1 DIV PUSH20 0xFFFFFFFFFFFFFFFFFFFFFFFFFFFFFFFFFFFFFFFF AND SWAP1 POP SWAP1 JUMP JUMPDEST PUSH1 0x1 PUSH1 0x20 MSTORE DUP1 PUSH1 0x0 MSTORE PUSH1 0x40 PUSH1 0x0 KECCAK256 PUSH1 0x0 SWAP2 POP SWAP1 POP SLOAD DUP2 JUMP JUMPDEST PUSH1 0x3 PUSH1 0x20 MSTORE DUP1 PUSH1 0x0 MSTORE PUSH1 0x40 PUSH1 0x0 KECCAK256 PUSH1 0x0 SWAP2 POP SWAP1 POP DUP1 SLOAD PUSH2 0x9B3 SWAP1 PUSH2 0x1D26 JUMP JUMPDEST DUP1 PUSH1 0x1F ADD PUSH1 0x20 DUP1 SWAP2 DIV MUL PUSH1 0x20 ADD PUSH1 0x40 MLOAD SWAP1 DUP2 ADD PUSH1 0x40 MSTORE DUP1 SWAP3 SWAP2 SWAP1 DUP2 DUP2 MSTORE PUSH1 0x20 ADD DUP3 DUP1 SLOAD PUSH2 0x9DF SWAP1 PUSH2 0x1D26 JUMP JUMPDEST DUP1 ISZERO PUSH2 0xA2C JUMPI DUP1 PUSH1 0x1F LT PUSH2 0xA01 JUMPI PUSH2 0x100 DUP1 DUP4 SLOAD DIV MUL DUP4 MSTORE SWAP2 PUSH1 0x20 ADD SWAP2 PUSH2 0xA2C JUMP JUMPDEST DUP3 ADD SWAP2 SWAP1 PUSH1 0x0 MSTORE PUSH1 0x20 PUSH1 0x0 KECCAK256 SWAP1 JUMPDEST DUP2 SLOAD DUP2 MSTORE SWAP1 PUSH1 0x1 ADD SWAP1 PUSH1 0x20 ADD DUP1 DUP4 GT PUSH2 0xA0F JUMPI DUP3 SWAP1 SUB PUSH1 0x1F AND DUP3 ADD SWAP2 JUMPDEST POP POP POP POP POP DUP2 JUMP JUMPDEST PUSH2 0xA3C PUSH2 0xD05 JUMP JUMPDEST PUSH32 0x0 PUSH20 0xFFFFFFFFFFFFFFFFFFFFFFFFFFFFFFFFFFFFFFFF AND PUSH4 0xCA5EB5E1 DUP3 PUSH1 0x40 MLOAD DUP3 PUSH4 0xFFFFFFFF AND PUSH1 0xE0 SHL DUP2 MSTORE PUSH1 0x4 ADD PUSH2 0xA95 SWAP2 SWAP1 PUSH2 0x1996 JUMP JUMPDEST PUSH1 0x0 PUSH1 0x40 MLOAD DUP1 DUP4 SUB DUP2 PUSH1 0x0 DUP8 DUP1 EXTCODESIZE ISZERO DUP1 ISZERO PUSH2 0xAAF JUMPI PUSH1 0x0 DUP1 REVERT JUMPDEST POP GAS CALL ISZERO DUP1 ISZERO PUSH2 0xAC3 JUMPI RETURNDATASIZE PUSH1 0x0 DUP1 RETURNDATACOPY RETURNDATASIZE PUSH1 0x0 REVERT JUMPDEST POP POP POP POP POP JUMP JUMPDEST PUSH2 0xAD2 PUSH2 0xD05 JUMP JUMPDEST PUSH1 0x0 PUSH20 0xFFFFFFFFFFFFFFFFFFFFFFFFFFFFFFFFFFFFFFFF AND DUP2 PUSH20 0xFFFFFFFFFFFFFFFFFFFFFFFFFFFFFFFFFFFFFFFF AND SUB PUSH2 0xB44 JUMPI PUSH1 0x0 PUSH1 0x40 MLOAD PUSH32 0x1E4FBDF700000000000000000000000000000000000000000000000000000000 DUP2 MSTORE PUSH1 0x4 ADD PUSH2 0xB3B SWAP2 SWAP1 PUSH2 0x1996 JUMP JUMPDEST PUSH1 0x40 MLOAD DUP1 SWAP2 SUB SWAP1 REVERT JUMPDEST PUSH2 0xB4D DUP2 PUSH2 0xDED JUMP JUMPDEST POP JUMP JUMPDEST PUSH2 0xB58 PUSH2 0x1374 JUMP JUMPDEST PUSH1 0x0 DUP7 DUP7 CALLER PUSH1 0x40 MLOAD PUSH1 0x20 ADD PUSH2 0xB6F SWAP4 SWAP3 SWAP2 SWAP1 PUSH2 0x1D93 JUMP JUMPDEST PUSH1 0x40 MLOAD PUSH1 0x20 DUP2 DUP4 SUB SUB DUP2 MSTORE SWAP1 PUSH1 0x40 MSTORE SWAP1 POP PUSH2 0xBD0 DUP9 DUP3 DUP8 DUP8 DUP1 DUP1 PUSH1 0x1F ADD PUSH1 0x20 DUP1 SWAP2 DIV MUL PUSH1 0x20 ADD PUSH1 0x40 MLOAD SWAP1 DUP2 ADD PUSH1 0x40 MSTORE DUP1 SWAP4 SWAP3 SWAP2 SWAP1 DUP2 DUP2 MSTORE PUSH1 0x20 ADD DUP4 DUP4 DUP1 DUP3 DUP5 CALLDATACOPY PUSH1 0x0 DUP2 DUP5 ADD MSTORE PUSH1 0x1F NOT PUSH1 0x1F DUP3 ADD AND SWAP1 POP DUP1 DUP4 ADD SWAP3 POP POP POP POP POP POP POP DUP7 PUSH2 0xEB1 JUMP JUMPDEST SWAP2 POP POP SWAP7 SWAP6 POP POP POP POP POP POP JUMP JUMPDEST PUSH1 0x0 DUP2 PUSH1 0x20 ADD CALLDATALOAD PUSH1 0x1 PUSH1 0x0 DUP5 PUSH1 0x0 ADD PUSH1 0x20 DUP2 ADD SWAP1 PUSH2 0xBFB SWAP2 SWAP1 PUSH2 0x19B1 JUMP JUMPDEST PUSH4 0xFFFFFFFF AND PUSH4 0xFFFFFFFF AND DUP2 MSTORE PUSH1 0x20 ADD SWAP1 DUP2 MSTORE PUSH1 0x20 ADD PUSH1 0x0 KECCAK256 SLOAD EQ SWAP1 POP SWAP2 SWAP1 POP JUMP JUMPDEST PUSH1 0x0 DUP1 PUSH1 0x1 PUSH1 0x0 DUP5 PUSH4 0xFFFFFFFF AND PUSH4 0xFFFFFFFF AND DUP2 MSTORE PUSH1 0x20 ADD SWAP1 DUP2 MSTORE PUSH1 0x20 ADD PUSH1 0x0 KECCAK256 SLOAD SWAP1 POP PUSH1 0x0 DUP1 SHL DUP2 SUB PUSH2 0xC8A JUMPI DUP3 PUSH1 0x40 MLOAD PUSH32 0xF6FF4FB700000000000000000000000000000000000000000000000000000000 DUP2 MSTORE PUSH1 0x4 ADD PUSH2 0xC81 SWAP2 SWAP1 PUSH2 0x2186 JUMP JUMPDEST PUSH1 0x40 MLOAD DUP1 SWAP2 SUB SWAP1 REVERT JUMPDEST DUP1 SWAP2 POP POP SWAP2 SWAP1 POP JUMP JUMPDEST PUSH1 0x0 DUP1 DUP7 DUP7 DUP2 ADD SWAP1 PUSH2 0xCA5 SWAP2 SWAP1 PUSH2 0x22D1 JUMP JUMPDEST SWAP2 POP SWAP2 POP DUP8 DUP10 PUSH1 0x0 ADD PUSH1 0x20 DUP2 ADD SWAP1 PUSH2 0xCBD SWAP2 SWAP1 PUSH2 0x19B1 JUMP JUMPDEST PUSH4 0xFFFFFFFF AND PUSH32 0x15491FA6BF738B90AA2BF5731EA662E510A1706E7034CC13C1B2371B12F0969D DUP5 PUSH1 0x40 MLOAD PUSH2 0xCF2 SWAP2 SWAP1 PUSH2 0x1707 JUMP JUMPDEST PUSH1 0x40 MLOAD DUP1 SWAP2 SUB SWAP1 LOG3 POP POP POP POP POP POP POP POP POP JUMP JUMPDEST PUSH2 0xD0D PUSH2 0x10B0 JUMP JUMPDEST PUSH20 0xFFFFFFFFFFFFFFFFFFFFFFFFFFFFFFFFFFFFFFFF AND PUSH2 0xD2B PUSH2 0x953 JUMP JUMPDEST PUSH20 0xFFFFFFFFFFFFFFFFFFFFFFFFFFFFFFFFFFFFFFFF AND EQ PUSH2 0xD8A JUMPI PUSH2 0xD4E PUSH2 0x10B0 JUMP JUMPDEST PUSH1 0x40 MLOAD PUSH32 0x118CDAA700000000000000000000000000000000000000000000000000000000 DUP2 MSTORE PUSH1 0x4 ADD PUSH2 0xD81 SWAP2 SWAP1 PUSH2 0x1996 JUMP JUMPDEST PUSH1 0x40 MLOAD DUP1 SWAP2 SUB SWAP1 REVERT JUMPDEST JUMP JUMPDEST DUP1 PUSH1 0x1 PUSH1 0x0 DUP5 PUSH4 0xFFFFFFFF AND PUSH4 0xFFFFFFFF AND DUP2 MSTORE PUSH1 0x20 ADD SWAP1 DUP2 MSTORE PUSH1 0x20 ADD PUSH1 0x0 KECCAK256 DUP2 SWAP1 SSTORE POP PUSH32 0x238399D427B947898EDB290F5FF0F9109849B1C3BA196A42E35F00C50A54B98B DUP3 DUP3 PUSH1 0x40 MLOAD PUSH2 0xDE1 SWAP3 SWAP2 SWAP1 PUSH2 0x1BF6 JUMP JUMPDEST PUSH1 0x40 MLOAD DUP1 SWAP2 SUB SWAP1 LOG1 POP POP JUMP JUMPDEST PUSH1 0x0 DUP1 PUSH1 0x0 SWAP1 SLOAD SWAP1 PUSH2 0x100 EXP SWAP1 DIV PUSH20 0xFFFFFFFFFFFFFFFFFFFFFFFFFFFFFFFFFFFFFFFF AND SWAP1 POP DUP2 PUSH1 0x0 DUP1 PUSH2 0x100 EXP DUP2 SLOAD DUP2 PUSH20 0xFFFFFFFFFFFFFFFFFFFFFFFFFFFFFFFFFFFFFFFF MUL NOT AND SWAP1 DUP4 PUSH20 0xFFFFFFFFFFFFFFFFFFFFFFFFFFFFFFFFFFFFFFFF AND MUL OR SWAP1 SSTORE POP DUP2 PUSH20 0xFFFFFFFFFFFFFFFFFFFFFFFFFFFFFFFFFFFFFFFF AND DUP2 PUSH20 0xFFFFFFFFFFFFFFFFFFFFFFFFFFFFFFFFFFFFFFFF AND PUSH32 0x8BE0079C531659141344CD1FD0A4F28419497F9722A3DAAFE3B4186F6B6457E0 PUSH1 0x40 MLOAD PUSH1 0x40 MLOAD DUP1 SWAP2 SUB SWAP1 LOG3 POP POP JUMP JUMPDEST PUSH2 0xEB9 PUSH2 0x1374 JUMP JUMPDEST PUSH32 0x0 PUSH20 0xFFFFFFFFFFFFFFFFFFFFFFFFFFFFFFFFFFFFFFFF AND PUSH4 0xDDC28C58 PUSH1 0x40 MLOAD DUP1 PUSH1 0xA0 ADD PUSH1 0x40 MSTORE DUP1 DUP9 PUSH4 0xFFFFFFFF AND DUP2 MSTORE PUSH1 0x20 ADD PUSH2 0xF15 DUP10 PUSH2 0xC1E JUMP JUMPDEST DUP2 MSTORE PUSH1 0x20 ADD DUP8 DUP2 MSTORE PUSH1 0x20 ADD DUP7 DUP2 MSTORE PUSH1 0x20 ADD DUP6 ISZERO ISZERO DUP2 MSTORE POP ADDRESS PUSH1 0x40 MLOAD DUP4 PUSH4 0xFFFFFFFF AND PUSH1 0xE0 SHL DUP2 MSTORE PUSH1 0x4 ADD PUSH2 0xF4A SWAP3 SWAP2 SWAP1 PUSH2 0x242C JUMP JUMPDEST PUSH1 0x40 DUP1 MLOAD DUP1 DUP4 SUB DUP2 DUP7 GAS STATICCALL ISZERO DUP1 ISZERO PUSH2 0xF66 JUMPI RETURNDATASIZE PUSH1 0x0 DUP1 RETURNDATACOPY RETURNDATASIZE PUSH1 0x0 REVERT JUMPDEST POP POP POP POP PUSH1 0x40 MLOAD RETURNDATASIZE PUSH1 0x1F NOT PUSH1 0x1F DUP3 ADD AND DUP3 ADD DUP1 PUSH1 0x40 MSTORE POP DUP2 ADD SWAP1 PUSH2 0xF8A SWAP2 SWAP1 PUSH2 0x24C6 JUMP JUMPDEST SWAP1 POP SWAP5 SWAP4 POP POP POP POP JUMP JUMPDEST PUSH2 0xF9C PUSH2 0x138E JUMP JUMPDEST PUSH1 0x0 PUSH2 0xFAB DUP5 PUSH1 0x0 ADD MLOAD PUSH2 0x10B8 JUMP JUMPDEST SWAP1 POP PUSH1 0x0 DUP5 PUSH1 0x20 ADD MLOAD GT ISZERO PUSH2 0xFC8 JUMPI PUSH2 0xFC7 DUP5 PUSH1 0x20 ADD MLOAD PUSH2 0x1106 JUMP JUMPDEST JUMPDEST PUSH32 0x0 PUSH20 0xFFFFFFFFFFFFFFFFFFFFFFFFFFFFFFFFFFFFFFFF AND PUSH4 0x2637A450 DUP3 PUSH1 0x40 MLOAD DUP1 PUSH1 0xA0 ADD PUSH1 0x40 MSTORE DUP1 DUP12 PUSH4 0xFFFFFFFF AND DUP2 MSTORE PUSH1 0x20 ADD PUSH2 0x1025 DUP13 PUSH2 0xC1E JUMP JUMPDEST DUP2 MSTORE PUSH1 0x20 ADD DUP11 DUP2 MSTORE PUSH1 0x20 ADD DUP10 DUP2 MSTORE PUSH1 0x20 ADD PUSH1 0x0 DUP10 PUSH1 0x20 ADD MLOAD GT ISZERO ISZERO DUP2 MSTORE POP DUP7 PUSH1 0x40 MLOAD DUP5 PUSH4 0xFFFFFFFF AND PUSH1 0xE0 SHL DUP2 MSTORE PUSH1 0x4 ADD PUSH2 0x1061 SWAP3 SWAP2 SWAP1 PUSH2 0x242C JUMP JUMPDEST PUSH1 0x80 PUSH1 0x40 MLOAD DUP1 DUP4 SUB DUP2 DUP6 DUP9 GAS CALL ISZERO DUP1 ISZERO PUSH2 0x107F JUMPI RETURNDATASIZE PUSH1 0x0 DUP1 RETURNDATACOPY RETURNDATASIZE PUSH1 0x0 REVERT JUMPDEST POP POP POP POP POP PUSH1 0x40 MLOAD RETURNDATASIZE PUSH1 0x1F NOT PUSH1 0x1F DUP3 ADD AND DUP3 ADD DUP1 PUSH1 0x40 MSTORE POP DUP2 ADD SWAP1 PUSH2 0x10A4 SWAP2 SWAP1 PUSH2 0x2598 JUMP JUMPDEST SWAP2 POP POP SWAP6 SWAP5 POP POP POP POP POP JUMP JUMPDEST PUSH1 0x0 CALLER SWAP1 POP SWAP1 JUMP JUMPDEST PUSH1 0x0 DUP2 CALLVALUE EQ PUSH2 0x10FE JUMPI CALLVALUE PUSH1 0x40 MLOAD PUSH32 0x9F70412000000000000000000000000000000000000000000000000000000000 DUP2 MSTORE PUSH1 0x4 ADD PUSH2 0x10F5 SWAP2 SWAP1 PUSH2 0x1742 JUMP JUMPDEST PUSH1 0x40 MLOAD DUP1 SWAP2 SUB SWAP1 REVERT JUMPDEST DUP2 SWAP1 POP SWAP2 SWAP1 POP JUMP JUMPDEST PUSH1 0x0 PUSH32 0x0 PUSH20 0xFFFFFFFFFFFFFFFFFFFFFFFFFFFFFFFFFFFFFFFF AND PUSH4 0xE4FE1D94 PUSH1 0x40 MLOAD DUP2 PUSH4 0xFFFFFFFF AND PUSH1 0xE0 SHL DUP2 MSTORE PUSH1 0x4 ADD PUSH1 0x20 PUSH1 0x40 MLOAD DUP1 DUP4 SUB DUP2 DUP7 GAS STATICCALL ISZERO DUP1 ISZERO PUSH2 0x1173 JUMPI RETURNDATASIZE PUSH1 0x0 DUP1 RETURNDATACOPY RETURNDATASIZE PUSH1 0x0 REVERT JUMPDEST POP POP POP POP PUSH1 0x40 MLOAD RETURNDATASIZE PUSH1 0x1F NOT PUSH1 0x1F DUP3 ADD AND DUP3 ADD DUP1 PUSH1 0x40 MSTORE POP DUP2 ADD SWAP1 PUSH2 0x1197 SWAP2 SWAP1 PUSH2 0x25DA JUMP JUMPDEST SWAP1 POP PUSH1 0x0 PUSH20 0xFFFFFFFFFFFFFFFFFFFFFFFFFFFFFFFFFFFFFFFF AND DUP2 PUSH20 0xFFFFFFFFFFFFFFFFFFFFFFFFFFFFFFFFFFFFFFFF AND SUB PUSH2 0x11FF JUMPI PUSH1 0x40 MLOAD PUSH32 0x5373352A00000000000000000000000000000000000000000000000000000000 DUP2 MSTORE PUSH1 0x4 ADD PUSH1 0x40 MLOAD DUP1 SWAP2 SUB SWAP1 REVERT JUMPDEST PUSH2 0x124C CALLER PUSH32 0x0 DUP5 DUP5 PUSH20 0xFFFFFFFFFFFFFFFFFFFFFFFFFFFFFFFFFFFFFFFF AND PUSH2 0x1250 SWAP1 SWAP4 SWAP3 SWAP2 SWAP1 PUSH4 0xFFFFFFFF AND JUMP JUMPDEST POP POP JUMP JUMPDEST PUSH2 0x12CC DUP5 DUP6 PUSH20 0xFFFFFFFFFFFFFFFFFFFFFFFFFFFFFFFFFFFFFFFF AND PUSH4 0x23B872DD DUP7 DUP7 DUP7 PUSH1 0x40 MLOAD PUSH1 0x24 ADD PUSH2 0x1285 SWAP4 SWAP3 SWAP2 SWAP1 PUSH2 0x2607 JUMP JUMPDEST PUSH1 0x40 MLOAD PUSH1 0x20 DUP2 DUP4 SUB SUB DUP2 MSTORE SWAP1 PUSH1 0x40 MSTORE SWAP2 POP PUSH1 0xE0 SHL PUSH1 0x20 DUP3 ADD DUP1 MLOAD PUSH28 0xFFFFFFFFFFFFFFFFFFFFFFFFFFFFFFFFFFFFFFFFFFFFFFFFFFFFFFFF DUP4 DUP2 DUP4 AND OR DUP4 MSTORE POP POP POP POP PUSH2 0x12D2 JUMP JUMPDEST POP POP POP POP JUMP JUMPDEST PUSH1 0x0 DUP1 PUSH1 0x20 PUSH1 0x0 DUP5 MLOAD PUSH1 0x20 DUP7 ADD PUSH1 0x0 DUP9 GAS CALL DUP1 PUSH2 0x12F5 JUMPI PUSH1 0x40 MLOAD RETURNDATASIZE PUSH1 0x0 DUP3 RETURNDATACOPY RETURNDATASIZE DUP2 REVERT JUMPDEST RETURNDATASIZE SWAP3 POP PUSH1 0x0 MLOAD SWAP2 POP POP PUSH1 0x0 DUP3 EQ PUSH2 0x1310 JUMPI PUSH1 0x1 DUP2 EQ ISZERO PUSH2 0x132C JUMP JUMPDEST PUSH1 0x0 DUP5 PUSH20 0xFFFFFFFFFFFFFFFFFFFFFFFFFFFFFFFFFFFFFFFF AND EXTCODESIZE EQ JUMPDEST ISZERO PUSH2 0x136E JUMPI DUP4 PUSH1 0x40 MLOAD PUSH32 0x5274AFE700000000000000000000000000000000000000000000000000000000 DUP2 MSTORE PUSH1 0x4 ADD PUSH2 0x1365 SWAP2 SWAP1 PUSH2 0x1996 JUMP JUMPDEST PUSH1 0x40 MLOAD DUP1 SWAP2 SUB SWAP1 REVERT JUMPDEST POP POP POP POP JUMP JUMPDEST PUSH1 0x40 MLOAD DUP1 PUSH1 0x40 ADD PUSH1 0x40 MSTORE DUP1 PUSH1 0x0 DUP2 MSTORE PUSH1 0x20 ADD PUSH1 0x0 DUP2 MSTORE POP SWAP1 JUMP JUMPDEST PUSH1 0x40 MLOAD DUP1 PUSH1 0x60 ADD PUSH1 0x40 MSTORE DUP1 PUSH1 0x0 DUP1 NOT AND DUP2 MSTORE PUSH1 0x20 ADD PUSH1 0x0 PUSH8 0xFFFFFFFFFFFFFFFF AND DUP2 MSTORE PUSH1 0x20 ADD PUSH2 0x13BC PUSH2 0x1374 JUMP JUMPDEST DUP2 MSTORE POP SWAP1 JUMP JUMPDEST PUSH1 0x0 PUSH1 0x40 MLOAD SWAP1 POP SWAP1 JUMP JUMPDEST PUSH1 0x0 DUP1 REVERT JUMPDEST PUSH1 0x0 DUP1 REVERT JUMPDEST PUSH1 0x0 DUP1 REVERT JUMPDEST PUSH1 0x0 PUSH1 0x60 DUP3 DUP5 SUB SLT ISZERO PUSH2 0x13F1 JUMPI PUSH2 0x13F0 PUSH2 0x13D6 JUMP JUMPDEST JUMPDEST DUP2 SWAP1 POP SWAP3 SWAP2 POP POP JUMP JUMPDEST PUSH1 0x0 DUP2 SWAP1 POP SWAP2 SWAP1 POP JUMP JUMPDEST PUSH2 0x140D DUP2 PUSH2 0x13FA JUMP JUMPDEST DUP2 EQ PUSH2 0x1418 JUMPI PUSH1 0x0 DUP1 REVERT JUMPDEST POP JUMP JUMPDEST PUSH1 0x0 DUP2 CALLDATALOAD SWAP1 POP PUSH2 0x142A DUP2 PUSH2 0x1404 JUMP JUMPDEST SWAP3 SWAP2 POP POP JUMP JUMPDEST PUSH1 0x0 DUP1 REVERT JUMPDEST PUSH1 0x0 DUP1 REVERT JUMPDEST PUSH1 0x0 DUP1 REVERT JUMPDEST PUSH1 0x0 DUP1 DUP4 PUSH1 0x1F DUP5 ADD SLT PUSH2 0x1455 JUMPI PUSH2 0x1454 PUSH2 0x1430 JUMP JUMPDEST JUMPDEST DUP3 CALLDATALOAD SWAP1 POP PUSH8 0xFFFFFFFFFFFFFFFF DUP2 GT ISZERO PUSH2 0x1472 JUMPI PUSH2 0x1471 PUSH2 0x1435 JUMP JUMPDEST JUMPDEST PUSH1 0x20 DUP4 ADD SWAP2 POP DUP4 PUSH1 0x1 DUP3 MUL DUP4 ADD GT ISZERO PUSH2 0x148E JUMPI PUSH2 0x148D PUSH2 0x143A JUMP JUMPDEST JUMPDEST SWAP3 POP SWAP3 SWAP1 POP JUMP JUMPDEST PUSH1 0x0 PUSH20 0xFFFFFFFFFFFFFFFFFFFFFFFFFFFFFFFFFFFFFFFF DUP3 AND SWAP1 POP SWAP2 SWAP1 POP JUMP JUMPDEST PUSH1 0x0 PUSH2 0x14C0 DUP3 PUSH2 0x1495 JUMP JUMPDEST SWAP1 POP SWAP2 SWAP1 POP JUMP JUMPDEST PUSH2 0x14D0 DUP2 PUSH2 0x14B5 JUMP JUMPDEST DUP2 EQ PUSH2 0x14DB JUMPI PUSH1 0x0 DUP1 REVERT JUMPDEST POP JUMP JUMPDEST PUSH1 0x0 DUP2 CALLDATALOAD SWAP1 POP PUSH2 0x14ED DUP2 PUSH2 0x14C7 JUMP JUMPDEST SWAP3 SWAP2 POP POP JUMP JUMPDEST PUSH1 0x0 DUP1 PUSH1 0x0 DUP1 PUSH1 0x0 DUP1 PUSH1 0x0 PUSH1 0xE0 DUP9 DUP11 SUB SLT ISZERO PUSH2 0x1512 JUMPI PUSH2 0x1511 PUSH2 0x13CC JUMP JUMPDEST JUMPDEST PUSH1 0x0 PUSH2 0x1520 DUP11 DUP3 DUP12 ADD PUSH2 0x13DB JUMP JUMPDEST SWAP8 POP POP PUSH1 0x60 PUSH2 0x1531 DUP11 DUP3 DUP12 ADD PUSH2 0x141B JUMP JUMPDEST SWAP7 POP POP PUSH1 0x80 DUP9 ADD CALLDATALOAD PUSH8 0xFFFFFFFFFFFFFFFF DUP2 GT ISZERO PUSH2 0x1552 JUMPI PUSH2 0x1551 PUSH2 0x13D1 JUMP JUMPDEST JUMPDEST PUSH2 0x155E DUP11 DUP3 DUP12 ADD PUSH2 0x143F JUMP JUMPDEST SWAP6 POP SWAP6 POP POP PUSH1 0xA0 PUSH2 0x1571 DUP11 DUP3 DUP12 ADD PUSH2 0x14DE JUMP JUMPDEST SWAP4 POP POP PUSH1 0xC0 DUP9 ADD CALLDATALOAD PUSH8 0xFFFFFFFFFFFFFFFF DUP2 GT ISZERO PUSH2 0x1592 JUMPI PUSH2 0x1591 PUSH2 0x13D1 JUMP JUMPDEST JUMPDEST PUSH2 0x159E DUP11 DUP3 DUP12 ADD PUSH2 0x143F JUMP JUMPDEST SWAP3 POP SWAP3 POP POP SWAP3 SWAP6 SWAP9 SWAP2 SWAP5 SWAP8 POP SWAP3 SWAP6 POP JUMP JUMPDEST PUSH1 0x0 PUSH8 0xFFFFFFFFFFFFFFFF DUP3 AND SWAP1 POP SWAP2 SWAP1 POP JUMP JUMPDEST PUSH2 0x15CC DUP2 PUSH2 0x15AF JUMP JUMPDEST DUP3 MSTORE POP POP JUMP JUMPDEST PUSH1 0x0 PUSH1 0x40 DUP3 ADD SWAP1 POP PUSH2 0x15E7 PUSH1 0x0 DUP4 ADD DUP6 PUSH2 0x15C3 JUMP JUMPDEST PUSH2 0x15F4 PUSH1 0x20 DUP4 ADD DUP5 PUSH2 0x15C3 JUMP JUMPDEST SWAP4 SWAP3 POP POP POP JUMP JUMPDEST PUSH1 0x0 PUSH4 0xFFFFFFFF DUP3 AND SWAP1 POP SWAP2 SWAP1 POP JUMP JUMPDEST PUSH2 0x1614 DUP2 PUSH2 0x15FB JUMP JUMPDEST DUP2 EQ PUSH2 0x161F JUMPI PUSH1 0x0 DUP1 REVERT JUMPDEST POP JUMP JUMPDEST PUSH1 0x0 DUP2 CALLDATALOAD SWAP1 POP PUSH2 0x1631 DUP2 PUSH2 0x160B JUMP JUMPDEST SWAP3 SWAP2 POP POP JUMP JUMPDEST PUSH1 0x0 DUP1 PUSH1 0x40 DUP4 DUP6 SUB SLT ISZERO PUSH2 0x164E JUMPI PUSH2 0x164D PUSH2 0x13CC JUMP JUMPDEST JUMPDEST PUSH1 0x0 PUSH2 0x165C DUP6 DUP3 DUP7 ADD PUSH2 0x1622 JUMP JUMPDEST SWAP3 POP POP PUSH1 0x20 PUSH2 0x166D DUP6 DUP3 DUP7 ADD PUSH2 0x141B JUMP JUMPDEST SWAP2 POP POP SWAP3 POP SWAP3 SWAP1 POP JUMP JUMPDEST PUSH1 0x0 DUP2 MLOAD SWAP1 POP SWAP2 SWAP1 POP JUMP JUMPDEST PUSH1 0x0 DUP3 DUP3 MSTORE PUSH1 0x20 DUP3 ADD SWAP1 POP SWAP3 SWAP2 POP POP JUMP JUMPDEST PUSH1 0x0 JUMPDEST DUP4 DUP2 LT ISZERO PUSH2 0x16B1 JUMPI DUP1 DUP3 ADD MLOAD DUP2 DUP5 ADD MSTORE PUSH1 0x20 DUP2 ADD SWAP1 POP PUSH2 0x1696 JUMP JUMPDEST PUSH1 0x0 DUP5 DUP5 ADD MSTORE POP POP POP POP JUMP JUMPDEST PUSH1 0x0 PUSH1 0x1F NOT PUSH1 0x1F DUP4 ADD AND SWAP1 POP SWAP2 SWAP1 POP JUMP JUMPDEST PUSH1 0x0 PUSH2 0x16D9 DUP3 PUSH2 0x1677 JUMP JUMPDEST PUSH2 0x16E3 DUP2 DUP6 PUSH2 0x1682 JUMP JUMPDEST SWAP4 POP PUSH2 0x16F3 DUP2 DUP6 PUSH1 0x20 DUP7 ADD PUSH2 0x1693 JUMP JUMPDEST PUSH2 0x16FC DUP2 PUSH2 0x16BD JUMP JUMPDEST DUP5 ADD SWAP2 POP POP SWAP3 SWAP2 POP POP JUMP JUMPDEST PUSH1 0x0 PUSH1 0x20 DUP3 ADD SWAP1 POP DUP2 DUP2 SUB PUSH1 0x0 DUP4 ADD MSTORE PUSH2 0x1721 DUP2 DUP5 PUSH2 0x16CE JUMP JUMPDEST SWAP1 POP SWAP3 SWAP2 POP POP JUMP JUMPDEST PUSH1 0x0 DUP2 SWAP1 POP SWAP2 SWAP1 POP JUMP JUMPDEST PUSH2 0x173C DUP2 PUSH2 0x1729 JUMP JUMPDEST DUP3 MSTORE POP POP JUMP JUMPDEST PUSH1 0x0 PUSH1 0x20 DUP3 ADD SWAP1 POP PUSH2 0x1757 PUSH1 0x0 DUP4 ADD DUP5 PUSH2 0x1733 JUMP JUMPDEST SWAP3 SWAP2 POP POP JUMP JUMPDEST PUSH1 0x0 DUP2 SWAP1 POP SWAP2 SWAP1 POP JUMP JUMPDEST PUSH1 0x0 PUSH2 0x1782 PUSH2 0x177D PUSH2 0x1778 DUP5 PUSH2 0x1495 JUMP JUMPDEST PUSH2 0x175D JUMP JUMPDEST PUSH2 0x1495 JUMP JUMPDEST SWAP1 POP SWAP2 SWAP1 POP JUMP JUMPDEST PUSH1 0x0 PUSH2 0x1794 DUP3 PUSH2 0x1767 JUMP JUMPDEST SWAP1 POP SWAP2 SWAP1 POP JUMP JUMPDEST PUSH1 0x0 PUSH2 0x17A6 DUP3 PUSH2 0x1789 JUMP JUMPDEST SWAP1 POP SWAP2 SWAP1 POP JUMP JUMPDEST PUSH2 0x17B6 DUP2 PUSH2 0x179B JUMP JUMPDEST DUP3 MSTORE POP POP JUMP JUMPDEST PUSH1 0x0 PUSH1 0x20 DUP3 ADD SWAP1 POP PUSH2 0x17D1 PUSH1 0x0 DUP4 ADD DUP5 PUSH2 0x17AD JUMP JUMPDEST SWAP3 SWAP2 POP POP JUMP JUMPDEST PUSH1 0x0 DUP1 DUP4 PUSH1 0x1F DUP5 ADD SLT PUSH2 0x17ED JUMPI PUSH2 0x17EC PUSH2 0x1430 JUMP JUMPDEST JUMPDEST DUP3 CALLDATALOAD SWAP1 POP PUSH8 0xFFFFFFFFFFFFFFFF DUP2 GT ISZERO PUSH2 0x180A JUMPI PUSH2 0x1809 PUSH2 0x1435 JUMP JUMPDEST JUMPDEST PUSH1 0x20 DUP4 ADD SWAP2 POP DUP4 PUSH1 0x1 DUP3 MUL DUP4 ADD GT ISZERO PUSH2 0x1826 JUMPI PUSH2 0x1825 PUSH2 0x143A JUMP JUMPDEST JUMPDEST SWAP3 POP SWAP3 SWAP1 POP JUMP JUMPDEST PUSH1 0x0 DUP1 PUSH1 0x0 DUP1 PUSH1 0x0 PUSH1 0x60 DUP7 DUP9 SUB SLT ISZERO PUSH2 0x1849 JUMPI PUSH2 0x1848 PUSH2 0x13CC JUMP JUMPDEST JUMPDEST PUSH1 0x0 PUSH2 0x1857 DUP9 DUP3 DUP10 ADD PUSH2 0x1622 JUMP JUMPDEST SWAP6 POP POP PUSH1 0x20 DUP7 ADD CALLDATALOAD PUSH8 0xFFFFFFFFFFFFFFFF DUP2 GT ISZERO PUSH2 0x1878 JUMPI PUSH2 0x1877 PUSH2 0x13D1 JUMP JUMPDEST JUMPDEST PUSH2 0x1884 DUP9 DUP3 DUP10 ADD PUSH2 0x17D7 JUMP JUMPDEST SWAP5 POP SWAP5 POP POP PUSH1 0x40 DUP7 ADD CALLDATALOAD PUSH8 0xFFFFFFFFFFFFFFFF DUP2 GT ISZERO PUSH2 0x18A7 JUMPI PUSH2 0x18A6 PUSH2 0x13D1 JUMP JUMPDEST JUMPDEST PUSH2 0x18B3 DUP9 DUP3 DUP10 ADD PUSH2 0x143F JUMP JUMPDEST SWAP3 POP SWAP3 POP POP SWAP3 SWAP6 POP SWAP3 SWAP6 SWAP1 SWAP4 POP JUMP JUMPDEST PUSH1 0x0 PUSH1 0x20 DUP3 ADD SWAP1 POP PUSH2 0x18D7 PUSH1 0x0 DUP4 ADD DUP5 PUSH2 0x15C3 JUMP JUMPDEST SWAP3 SWAP2 POP POP JUMP JUMPDEST PUSH1 0x0 DUP1 PUSH1 0x0 DUP1 PUSH1 0xA0 DUP6 DUP8 SUB SLT ISZERO PUSH2 0x18F7 JUMPI PUSH2 0x18F6 PUSH2 0x13CC JUMP JUMPDEST JUMPDEST PUSH1 0x0 PUSH2 0x1905 DUP8 DUP3 DUP9 ADD PUSH2 0x13DB JUMP JUMPDEST SWAP5 POP POP PUSH1 0x60 DUP6 ADD CALLDATALOAD PUSH8 0xFFFFFFFFFFFFFFFF DUP2 GT ISZERO PUSH2 0x1926 JUMPI PUSH2 0x1925 PUSH2 0x13D1 JUMP JUMPDEST JUMPDEST PUSH2 0x1932 DUP8 DUP3 DUP9 ADD PUSH2 0x143F JUMP JUMPDEST SWAP4 POP SWAP4 POP POP PUSH1 0x80 PUSH2 0x1945 DUP8 DUP3 DUP9 ADD PUSH2 0x14DE JUMP JUMPDEST SWAP2 POP POP SWAP3 SWAP6 SWAP2 SWAP5 POP SWAP3 POP JUMP JUMPDEST PUSH1 0x0 DUP2 ISZERO ISZERO SWAP1 POP SWAP2 SWAP1 POP JUMP JUMPDEST PUSH2 0x1966 DUP2 PUSH2 0x1951 JUMP JUMPDEST DUP3 MSTORE POP POP JUMP JUMPDEST PUSH1 0x0 PUSH1 0x20 DUP3 ADD SWAP1 POP PUSH2 0x1981 PUSH1 0x0 DUP4 ADD DUP5 PUSH2 0x195D JUMP JUMPDEST SWAP3 SWAP2 POP POP JUMP JUMPDEST PUSH2 0x1990 DUP2 PUSH2 0x14B5 JUMP JUMPDEST DUP3 MSTORE POP POP JUMP JUMPDEST PUSH1 0x0 PUSH1 0x20 DUP3 ADD SWAP1 POP PUSH2 0x19AB PUSH1 0x0 DUP4 ADD DUP5 PUSH2 0x1987 JUMP JUMPDEST SWAP3 SWAP2 POP POP JUMP JUMPDEST PUSH1 0x0 PUSH1 0x20 DUP3 DUP5 SUB SLT ISZERO PUSH2 0x19C7 JUMPI PUSH2 0x19C6 PUSH2 0x13CC JUMP JUMPDEST JUMPDEST PUSH1 0x0 PUSH2 0x19D5 DUP5 DUP3 DUP6 ADD PUSH2 0x1622 JUMP JUMPDEST SWAP2 POP POP SWAP3 SWAP2 POP POP JUMP JUMPDEST PUSH2 0x19E7 DUP2 PUSH2 0x13FA JUMP JUMPDEST DUP3 MSTORE POP POP JUMP JUMPDEST PUSH1 0x0 PUSH1 0x20 DUP3 ADD SWAP1 POP PUSH2 0x1A02 PUSH1 0x0 DUP4 ADD DUP5 PUSH2 0x19DE JUMP JUMPDEST SWAP3 SWAP2 POP POP JUMP JUMPDEST PUSH2 0x1A11 DUP2 PUSH2 0x1729 JUMP JUMPDEST DUP2 EQ PUSH2 0x1A1C JUMPI PUSH1 0x0 DUP1 REVERT JUMPDEST POP JUMP JUMPDEST PUSH1 0x0 DUP2 CALLDATALOAD SWAP1 POP PUSH2 0x1A2E DUP2 PUSH2 0x1A08 JUMP JUMPDEST SWAP3 SWAP2 POP POP JUMP JUMPDEST PUSH1 0x0 PUSH1 0x20 DUP3 DUP5 SUB SLT ISZERO PUSH2 0x1A4A JUMPI PUSH2 0x1A49 PUSH2 0x13CC JUMP JUMPDEST JUMPDEST PUSH1 0x0 PUSH2 0x1A58 DUP5 DUP3 DUP6 ADD PUSH2 0x1A1F JUMP JUMPDEST SWAP2 POP POP SWAP3 SWAP2 POP POP JUMP JUMPDEST PUSH1 0x0 PUSH1 0x20 DUP3 DUP5 SUB SLT ISZERO PUSH2 0x1A77 JUMPI PUSH2 0x1A76 PUSH2 0x13CC JUMP JUMPDEST JUMPDEST PUSH1 0x0 PUSH2 0x1A85 DUP5 DUP3 DUP6 ADD PUSH2 0x14DE JUMP JUMPDEST SWAP2 POP POP SWAP3 SWAP2 POP POP JUMP JUMPDEST PUSH2 0x1A97 DUP2 PUSH2 0x1951 JUMP JUMPDEST DUP2 EQ PUSH2 0x1AA2 JUMPI PUSH1 0x0 DUP1 REVERT JUMPDEST POP JUMP JUMPDEST PUSH1 0x0 DUP2 CALLDATALOAD SWAP1 POP PUSH2 0x1AB4 DUP2 PUSH2 0x1A8E JUMP JUMPDEST SWAP3 SWAP2 POP POP JUMP JUMPDEST PUSH1 0x0 DUP1 PUSH1 0x0 DUP1 PUSH1 0x0 DUP1 PUSH1 0x80 DUP8 DUP10 SUB SLT ISZERO PUSH2 0x1AD7 JUMPI PUSH2 0x1AD6 PUSH2 0x13CC JUMP JUMPDEST JUMPDEST PUSH1 0x0 PUSH2 0x1AE5 DUP10 DUP3 DUP11 ADD PUSH2 0x1622 JUMP JUMPDEST SWAP7 POP POP PUSH1 0x20 DUP8 ADD CALLDATALOAD PUSH8 0xFFFFFFFFFFFFFFFF DUP2 GT ISZERO PUSH2 0x1B06 JUMPI PUSH2 0x1B05 PUSH2 0x13D1 JUMP JUMPDEST JUMPDEST PUSH2 0x1B12 DUP10 DUP3 DUP11 ADD PUSH2 0x17D7 JUMP JUMPDEST SWAP6 POP SWAP6 POP POP PUSH1 0x40 DUP8 ADD CALLDATALOAD PUSH8 0xFFFFFFFFFFFFFFFF DUP2 GT ISZERO PUSH2 0x1B35 JUMPI PUSH2 0x1B34 PUSH2 0x13D1 JUMP JUMPDEST JUMPDEST PUSH2 0x1B41 DUP10 DUP3 DUP11 ADD PUSH2 0x143F JUMP JUMPDEST SWAP4 POP SWAP4 POP POP PUSH1 0x60 PUSH2 0x1B54 DUP10 DUP3 DUP11 ADD PUSH2 0x1AA5 JUMP JUMPDEST SWAP2 POP POP SWAP3 SWAP6 POP SWAP3 SWAP6 POP SWAP3 SWAP6 JUMP JUMPDEST PUSH2 0x1B6A DUP2 PUSH2 0x1729 JUMP JUMPDEST DUP3 MSTORE POP POP JUMP JUMPDEST PUSH1 0x40 DUP3 ADD PUSH1 0x0 DUP3 ADD MLOAD PUSH2 0x1B86 PUSH1 0x0 DUP6 ADD DUP3 PUSH2 0x1B61 JUMP JUMPDEST POP PUSH1 0x20 DUP3 ADD MLOAD PUSH2 0x1B99 PUSH1 0x20 DUP6 ADD DUP3 PUSH2 0x1B61 JUMP JUMPDEST POP POP POP POP JUMP JUMPDEST PUSH1 0x0 PUSH1 0x40 DUP3 ADD SWAP1 POP PUSH2 0x1BB4 PUSH1 0x0 DUP4 ADD DUP5 PUSH2 0x1B70 JUMP JUMPDEST SWAP3 SWAP2 POP POP JUMP JUMPDEST PUSH1 0x0 PUSH1 0x60 DUP3 DUP5 SUB SLT ISZERO PUSH2 0x1BD0 JUMPI PUSH2 0x1BCF PUSH2 0x13CC JUMP JUMPDEST JUMPDEST PUSH1 0x0 PUSH2 0x1BDE DUP5 DUP3 DUP6 ADD PUSH2 0x13DB JUMP JUMPDEST SWAP2 POP POP SWAP3 SWAP2 POP POP JUMP JUMPDEST PUSH2 0x1BF0 DUP2 PUSH2 0x15FB JUMP JUMPDEST DUP3 MSTORE POP POP JUMP JUMPDEST PUSH1 0x0 PUSH1 0x40 DUP3 ADD SWAP1 POP PUSH2 0x1C0B PUSH1 0x0 DUP4 ADD DUP6 PUSH2 0x1BE7 JUMP JUMPDEST PUSH2 0x1C18 PUSH1 0x20 DUP4 ADD DUP5 PUSH2 0x19DE JUMP JUMPDEST SWAP4 SWAP3 POP POP POP JUMP JUMPDEST PUSH32 0x4E6F2062616C616E636520746F20776974686472617700000000000000000000 PUSH1 0x0 DUP3 ADD MSTORE POP JUMP JUMPDEST PUSH1 0x0 PUSH2 0x1C55 PUSH1 0x16 DUP4 PUSH2 0x1682 JUMP JUMPDEST SWAP2 POP PUSH2 0x1C60 DUP3 PUSH2 0x1C1F JUMP JUMPDEST PUSH1 0x20 DUP3 ADD SWAP1 POP SWAP2 SWAP1 POP JUMP JUMPDEST PUSH1 0x0 PUSH1 0x20 DUP3 ADD SWAP1 POP DUP2 DUP2 SUB PUSH1 0x0 DUP4 ADD MSTORE PUSH2 0x1C84 DUP2 PUSH2 0x1C48 JUMP JUMPDEST SWAP1 POP SWAP2 SWAP1 POP JUMP JUMPDEST PUSH32 0x4E6F206D657373616765732073656E7400000000000000000000000000000000 PUSH1 0x0 DUP3 ADD MSTORE POP JUMP JUMPDEST PUSH1 0x0 PUSH2 0x1CC1 PUSH1 0x10 DUP4 PUSH2 0x1682 JUMP JUMPDEST SWAP2 POP PUSH2 0x1CCC DUP3 PUSH2 0x1C8B JUMP JUMPDEST PUSH1 0x20 DUP3 ADD SWAP1 POP SWAP2 SWAP1 POP JUMP JUMPDEST PUSH1 0x0 PUSH1 0x20 DUP3 ADD SWAP1 POP DUP2 DUP2 SUB PUSH1 0x0 DUP4 ADD MSTORE PUSH2 0x1CF0 DUP2 PUSH2 0x1CB4 JUMP JUMPDEST SWAP1 POP SWAP2 SWAP1 POP JUMP JUMPDEST PUSH32 0x4E487B7100000000000000000000000000000000000000000000000000000000 PUSH1 0x0 MSTORE PUSH1 0x22 PUSH1 0x4 MSTORE PUSH1 0x24 PUSH1 0x0 REVERT JUMPDEST PUSH1 0x0 PUSH1 0x2 DUP3 DIV SWAP1 POP PUSH1 0x1 DUP3 AND DUP1 PUSH2 0x1D3E JUMPI PUSH1 0x7F DUP3 AND SWAP2 POP JUMPDEST PUSH1 0x20 DUP3 LT DUP2 SUB PUSH2 0x1D51 JUMPI PUSH2 0x1D50 PUSH2 0x1CF7 JUMP JUMPDEST JUMPDEST POP SWAP2 SWAP1 POP JUMP JUMPDEST DUP3 DUP2 DUP4 CALLDATACOPY PUSH1 0x0 DUP4 DUP4 ADD MSTORE POP POP POP JUMP JUMPDEST PUSH1 0x0 PUSH2 0x1D72 DUP4 DUP6 PUSH2 0x1682 JUMP JUMPDEST SWAP4 POP PUSH2 0x1D7F DUP4 DUP6 DUP5 PUSH2 0x1D57 JUMP JUMPDEST PUSH2 0x1D88 DUP4 PUSH2 0x16BD JUMP JUMPDEST DUP5 ADD SWAP1 POP SWAP4 SWAP3 POP POP POP JUMP JUMPDEST PUSH1 0x0 PUSH1 0x40 DUP3 ADD SWAP1 POP DUP2 DUP2 SUB PUSH1 0x0 DUP4 ADD MSTORE PUSH2 0x1DAE DUP2 DUP6 DUP8 PUSH2 0x1D66 JUMP JUMPDEST SWAP1 POP PUSH2 0x1DBD PUSH1 0x20 DUP4 ADD DUP5 PUSH2 0x1987 JUMP JUMPDEST SWAP5 SWAP4 POP POP POP POP JUMP JUMPDEST PUSH32 0x496E73756666696369656E742066656500000000000000000000000000000000 PUSH1 0x0 DUP3 ADD MSTORE POP JUMP JUMPDEST PUSH1 0x0 PUSH2 0x1DFB PUSH1 0x10 DUP4 PUSH2 0x1682 JUMP JUMPDEST SWAP2 POP PUSH2 0x1E06 DUP3 PUSH2 0x1DC5 JUMP JUMPDEST PUSH1 0x20 DUP3 ADD SWAP1 POP SWAP2 SWAP1 POP JUMP JUMPDEST PUSH1 0x0 PUSH1 0x20 DUP3 ADD SWAP1 POP DUP2 DUP2 SUB PUSH1 0x0 DUP4 ADD MSTORE PUSH2 0x1E2A DUP2 PUSH2 0x1DEE JUMP JUMPDEST SWAP1 POP SWAP2 SWAP1 POP JUMP JUMPDEST PUSH32 0x4E487B7100000000000000000000000000000000000000000000000000000000 PUSH1 0x0 MSTORE PUSH1 0x11 PUSH1 0x4 MSTORE PUSH1 0x24 PUSH1 0x0 REVERT JUMPDEST PUSH1 0x0 PUSH2 0x1E6B DUP3 PUSH2 0x1729 JUMP JUMPDEST SWAP2 POP PUSH32 0xFFFFFFFFFFFFFFFFFFFFFFFFFFFFFFFFFFFFFFFFFFFFFFFFFFFFFFFFFFFFFFFF DUP3 SUB PUSH2 0x1E9D JUMPI PUSH2 0x1E9C PUSH2 0x1E31 JUMP JUMPDEST JUMPDEST PUSH1 0x1 DUP3 ADD SWAP1 POP SWAP2 SWAP1 POP JUMP JUMPDEST PUSH1 0x0 DUP3 SWAP1 POP SWAP3 SWAP2 POP POP JUMP JUMPDEST PUSH32 0x4E487B7100000000000000000000000000000000000000000000000000000000 PUSH1 0x0 MSTORE PUSH1 0x41 PUSH1 0x4 MSTORE PUSH1 0x24 PUSH1 0x0 REVERT JUMPDEST PUSH1 0x0 DUP2 SWAP1 POP DUP2 PUSH1 0x0 MSTORE PUSH1 0x20 PUSH1 0x0 KECCAK256 SWAP1 POP SWAP2 SWAP1 POP JUMP JUMPDEST PUSH1 0x0 PUSH1 0x20 PUSH1 0x1F DUP4 ADD DIV SWAP1 POP SWAP2 SWAP1 POP JUMP JUMPDEST PUSH1 0x0 DUP3 DUP3 SHL SWAP1 POP SWAP3 SWAP2 POP POP JUMP JUMPDEST PUSH1 0x0 PUSH1 0x8 DUP4 MUL PUSH2 0x1F44 PUSH32 0xFFFFFFFFFFFFFFFFFFFFFFFFFFFFFFFFFFFFFFFFFFFFFFFFFFFFFFFFFFFFFFFF DUP3 PUSH2 0x1F07 JUMP JUMPDEST PUSH2 0x1F4E DUP7 DUP4 PUSH2 0x1F07 JUMP JUMPDEST SWAP6 POP DUP1 NOT DUP5 AND SWAP4 POP DUP1 DUP7 AND DUP5 OR SWAP3 POP POP POP SWAP4 SWAP3 POP POP POP JUMP JUMPDEST PUSH1 0x0 PUSH2 0x1F81 PUSH2 0x1F7C PUSH2 0x1F77 DUP5 PUSH2 0x1729 JUMP JUMPDEST PUSH2 0x175D JUMP JUMPDEST PUSH2 0x1729 JUMP JUMPDEST SWAP1 POP SWAP2 SWAP1 POP JUMP JUMPDEST PUSH1 0x0 DUP2 SWAP1 POP SWAP2 SWAP1 POP JUMP JUMPDEST PUSH2 0x1F9B DUP4 PUSH2 0x1F66 JUMP JUMPDEST PUSH2 0x1FAF PUSH2 0x1FA7 DUP3 PUSH2 0x1F88 JUMP JUMPDEST DUP5 DUP5 SLOAD PUSH2 0x1F14 JUMP JUMPDEST DUP3 SSTORE POP POP POP POP JUMP JUMPDEST PUSH1 0x0 SWAP1 JUMP JUMPDEST PUSH2 0x1FC4 PUSH2 0x1FB7 JUMP JUMPDEST PUSH2 0x1FCF DUP2 DUP5 DUP5 PUSH2 0x1F92 JUMP JUMPDEST POP POP POP JUMP JUMPDEST JUMPDEST DUP2 DUP2 LT ISZERO PUSH2 0x1FF3 JUMPI PUSH2 0x1FE8 PUSH1 0x0 DUP3 PUSH2 0x1FBC JUMP JUMPDEST PUSH1 0x1 DUP2 ADD SWAP1 POP PUSH2 0x1FD5 JUMP JUMPDEST POP POP JUMP JUMPDEST PUSH1 0x1F DUP3 GT ISZERO PUSH2 0x2038 JUMPI PUSH2 0x2009 DUP2 PUSH2 0x1EE2 JUMP JUMPDEST PUSH2 0x2012 DUP5 PUSH2 0x1EF7 JUMP JUMPDEST DUP2 ADD PUSH1 0x20 DUP6 LT ISZERO PUSH2 0x2021 JUMPI DUP2 SWAP1 POP JUMPDEST PUSH2 0x2035 PUSH2 0x202D DUP6 PUSH2 0x1EF7 JUMP JUMPDEST DUP4 ADD DUP3 PUSH2 0x1FD4 JUMP JUMPDEST POP POP JUMPDEST POP POP POP JUMP JUMPDEST PUSH1 0x0 DUP3 DUP3 SHR SWAP1 POP SWAP3 SWAP2 POP POP JUMP JUMPDEST PUSH1 0x0 PUSH2 0x205B PUSH1 0x0 NOT DUP5 PUSH1 0x8 MUL PUSH2 0x203D JUMP JUMPDEST NOT DUP1 DUP4 AND SWAP2 POP POP SWAP3 SWAP2 POP POP JUMP JUMPDEST PUSH1 0x0 PUSH2 0x2074 DUP4 DUP4 PUSH2 0x204A JUMP JUMPDEST SWAP2 POP DUP3 PUSH1 0x2 MUL DUP3 OR SWAP1 POP SWAP3 SWAP2 POP POP JUMP JUMPDEST PUSH2 0x208E DUP4 DUP4 PUSH2 0x1EA8 JUMP JUMPDEST PUSH8 0xFFFFFFFFFFFFFFFF DUP2 GT ISZERO PUSH2 0x20A7 JUMPI PUSH2 0x20A6 PUSH2 0x1EB3 JUMP JUMPDEST JUMPDEST PUSH2 0x20B1 DUP3 SLOAD PUSH2 0x1D26 JUMP JUMPDEST PUSH2 0x20BC DUP3 DUP3 DUP6 PUSH2 0x1FF7 JUMP JUMPDEST PUSH1 0x0 PUSH1 0x1F DUP4 GT PUSH1 0x1 DUP2 EQ PUSH2 0x20EB JUMPI PUSH1 0x0 DUP5 ISZERO PUSH2 0x20D9 JUMPI DUP3 DUP8 ADD CALLDATALOAD SWAP1 POP JUMPDEST PUSH2 0x20E3 DUP6 DUP3 PUSH2 0x2068 JUMP JUMPDEST DUP7 SSTORE POP PUSH2 0x214B JUMP JUMPDEST PUSH1 0x1F NOT DUP5 AND PUSH2 0x20F9 DUP7 PUSH2 0x1EE2 JUMP JUMPDEST PUSH1 0x0 JUMPDEST DUP3 DUP2 LT ISZERO PUSH2 0x2121 JUMPI DUP5 DUP10 ADD CALLDATALOAD DUP3 SSTORE PUSH1 0x1 DUP3 ADD SWAP2 POP PUSH1 0x20 DUP6 ADD SWAP5 POP PUSH1 0x20 DUP2 ADD SWAP1 POP PUSH2 0x20FC JUMP JUMPDEST DUP7 DUP4 LT ISZERO PUSH2 0x213E JUMPI DUP5 DUP10 ADD CALLDATALOAD PUSH2 0x213A PUSH1 0x1F DUP10 AND DUP3 PUSH2 0x204A JUMP JUMPDEST DUP4 SSTORE POP JUMPDEST PUSH1 0x1 PUSH1 0x2 DUP9 MUL ADD DUP9 SSTORE POP POP POP JUMPDEST POP POP POP POP POP POP POP JUMP JUMPDEST PUSH1 0x0 PUSH1 0x40 DUP3 ADD SWAP1 POP DUP2 DUP2 SUB PUSH1 0x0 DUP4 ADD MSTORE PUSH2 0x216F DUP2 DUP6 DUP8 PUSH2 0x1D66 JUMP JUMPDEST SWAP1 POP PUSH2 0x217E PUSH1 0x20 DUP4 ADD DUP5 PUSH2 0x1733 JUMP JUMPDEST SWAP5 SWAP4 POP POP POP POP JUMP JUMPDEST PUSH1 0x0 PUSH1 0x20 DUP3 ADD SWAP1 POP PUSH2 0x219B PUSH1 0x0 DUP4 ADD DUP5 PUSH2 0x1BE7 JUMP JUMPDEST SWAP3 SWAP2 POP POP JUMP JUMPDEST PUSH1 0x0 DUP1 REVERT JUMPDEST PUSH2 0x21AF DUP3 PUSH2 0x16BD JUMP JUMPDEST DUP2 ADD DUP2 DUP2 LT PUSH8 0xFFFFFFFFFFFFFFFF DUP3 GT OR ISZERO PUSH2 0x21CE JUMPI PUSH2 0x21CD PUSH2 0x1EB3 JUMP JUMPDEST JUMPDEST DUP1 PUSH1 0x40 MSTORE POP POP POP JUMP JUMPDEST PUSH1 0x0 PUSH2 0x21E1 PUSH2 0x13C2 JUMP JUMPDEST SWAP1 POP PUSH2 0x21ED DUP3 DUP3 PUSH2 0x21A6 JUMP JUMPDEST SWAP2 SWAP1 POP JUMP JUMPDEST PUSH1 0x0 PUSH8 0xFFFFFFFFFFFFFFFF DUP3 GT ISZERO PUSH2 0x220D JUMPI PUSH2 0x220C PUSH2 0x1EB3 JUMP JUMPDEST JUMPDEST PUSH2 0x2216 DUP3 PUSH2 0x16BD JUMP JUMPDEST SWAP1 POP PUSH1 0x20 DUP2 ADD SWAP1 POP SWAP2 SWAP1 POP JUMP JUMPDEST PUSH1 0x0 PUSH2 0x2236 PUSH2 0x2231 DUP5 PUSH2 0x21F2 JUMP JUMPDEST PUSH2 0x21D7 JUMP JUMPDEST SWAP1 POP DUP3 DUP2 MSTORE PUSH1 0x20 DUP2 ADD DUP5 DUP5 DUP5 ADD GT ISZERO PUSH2 0x2252 JUMPI PUSH2 0x2251 PUSH2 0x21A1 JUMP JUMPDEST JUMPDEST PUSH2 0x225D DUP5 DUP3 DUP6 PUSH2 0x1D57 JUMP JUMPDEST POP SWAP4 SWAP3 POP POP POP JUMP JUMPDEST PUSH1 0x0 DUP3 PUSH1 0x1F DUP4 ADD SLT PUSH2 0x227A JUMPI PUSH2 0x2279 PUSH2 0x1430 JUMP JUMPDEST JUMPDEST DUP2 CALLDATALOAD PUSH2 0x228A DUP5 DUP3 PUSH1 0x20 DUP7 ADD PUSH2 0x2223 JUMP JUMPDEST SWAP2 POP POP SWAP3 SWAP2 POP POP JUMP JUMPDEST PUSH1 0x0 PUSH2 0x229E DUP3 PUSH2 0x1495 JUMP JUMPDEST SWAP1 POP SWAP2 SWAP1 POP JUMP JUMPDEST PUSH2 0x22AE DUP2 PUSH2 0x2293 JUMP JUMPDEST DUP2 EQ PUSH2 0x22B9 JUMPI PUSH1 0x0 DUP1 REVERT JUMPDEST POP JUMP JUMPDEST PUSH1 0x0 DUP2 CALLDATALOAD SWAP1 POP PUSH2 0x22CB DUP2 PUSH2 0x22A5 JUMP JUMPDEST SWAP3 SWAP2 POP POP JUMP JUMPDEST PUSH1 0x0 DUP1 PUSH1 0x40 DUP4 DUP6 SUB SLT ISZERO PUSH2 0x22E8 JUMPI PUSH2 0x22E7 PUSH2 0x13CC JUMP JUMPDEST JUMPDEST PUSH1 0x0 DUP4 ADD CALLDATALOAD PUSH8 0xFFFFFFFFFFFFFFFF DUP2 GT ISZERO PUSH2 0x2306 JUMPI PUSH2 0x2305 PUSH2 0x13D1 JUMP JUMPDEST JUMPDEST PUSH2 0x2312 DUP6 DUP3 DUP7 ADD PUSH2 0x2265 JUMP JUMPDEST SWAP3 POP POP PUSH1 0x20 PUSH2 0x2323 DUP6 DUP3 DUP7 ADD PUSH2 0x22BC JUMP JUMPDEST SWAP2 POP POP SWAP3 POP SWAP3 SWAP1 POP JUMP JUMPDEST PUSH2 0x2336 DUP2 PUSH2 0x15FB JUMP JUMPDEST DUP3 MSTORE POP POP JUMP JUMPDEST PUSH2 0x2345 DUP2 PUSH2 0x13FA JUMP JUMPDEST DUP3 MSTORE POP POP JUMP JUMPDEST PUSH1 0x0 DUP2 MLOAD SWAP1 POP SWAP2 SWAP1 POP JUMP JUMPDEST PUSH1 0x0 DUP3 DUP3 MSTORE PUSH1 0x20 DUP3 ADD SWAP1 POP SWAP3 SWAP2 POP POP JUMP JUMPDEST PUSH1 0x0 PUSH2 0x2372 DUP3 PUSH2 0x234B JUMP JUMPDEST PUSH2 0x237C DUP2 DUP6 PUSH2 0x2356 JUMP JUMPDEST SWAP4 POP PUSH2 0x238C DUP2 DUP6 PUSH1 0x20 DUP7 ADD PUSH2 0x1693 JUMP JUMPDEST PUSH2 0x2395 DUP2 PUSH2 0x16BD JUMP JUMPDEST DUP5 ADD SWAP2 POP POP SWAP3 SWAP2 POP POP JUMP JUMPDEST PUSH2 0x23A9 DUP2 PUSH2 0x1951 JUMP JUMPDEST DUP3 MSTORE POP POP JUMP JUMPDEST PUSH1 0x0 PUSH1 0xA0 DUP4 ADD PUSH1 0x0 DUP4 ADD MLOAD PUSH2 0x23C7 PUSH1 0x0 DUP7 ADD DUP3 PUSH2 0x232D JUMP JUMPDEST POP PUSH1 0x20 DUP4 ADD MLOAD PUSH2 0x23DA PUSH1 0x20 DUP7 ADD DUP3 PUSH2 0x233C JUMP JUMPDEST POP PUSH1 0x40 DUP4 ADD MLOAD DUP5 DUP3 SUB PUSH1 0x40 DUP7 ADD MSTORE PUSH2 0x23F2 DUP3 DUP3 PUSH2 0x2367 JUMP JUMPDEST SWAP2 POP POP PUSH1 0x60 DUP4 ADD MLOAD DUP5 DUP3 SUB PUSH1 0x60 DUP7 ADD MSTORE PUSH2 0x240C DUP3 DUP3 PUSH2 0x2367 JUMP JUMPDEST SWAP2 POP POP PUSH1 0x80 DUP4 ADD MLOAD PUSH2 0x2421 PUSH1 0x80 DUP7 ADD DUP3 PUSH2 0x23A0 JUMP JUMPDEST POP DUP1 SWAP2 POP POP SWAP3 SWAP2 POP POP JUMP JUMPDEST PUSH1 0x0 PUSH1 0x40 DUP3 ADD SWAP1 POP DUP2 DUP2 SUB PUSH1 0x0 DUP4 ADD MSTORE PUSH2 0x2446 DUP2 DUP6 PUSH2 0x23AF JUMP JUMPDEST SWAP1 POP PUSH2 0x2455 PUSH1 0x20 DUP4 ADD DUP5 PUSH2 0x1987 JUMP JUMPDEST SWAP4 SWAP3 POP POP POP JUMP JUMPDEST PUSH1 0x0 DUP1 REVERT JUMPDEST PUSH1 0x0 DUP2 MLOAD SWAP1 POP PUSH2 0x2470 DUP2 PUSH2 0x1A08 JUMP JUMPDEST SWAP3 SWAP2 POP POP JUMP JUMPDEST PUSH1 0x0 PUSH1 0x40 DUP3 DUP5 SUB SLT ISZERO PUSH2 0x248C JUMPI PUSH2 0x248B PUSH2 0x245C JUMP JUMPDEST JUMPDEST PUSH2 0x2496 PUSH1 0x40 PUSH2 0x21D7 JUMP JUMPDEST SWAP1 POP PUSH1 0x0 PUSH2 0x24A6 DUP5 DUP3 DUP6 ADD PUSH2 0x2461 JUMP JUMPDEST PUSH1 0x0 DUP4 ADD MSTORE POP PUSH1 0x20 PUSH2 0x24BA DUP5 DUP3 DUP6 ADD PUSH2 0x2461 JUMP JUMPDEST PUSH1 0x20 DUP4 ADD MSTORE POP SWAP3 SWAP2 POP POP JUMP JUMPDEST PUSH1 0x0 PUSH1 0x40 DUP3 DUP5 SUB SLT ISZERO PUSH2 0x24DC JUMPI PUSH2 0x24DB PUSH2 0x13CC JUMP JUMPDEST JUMPDEST PUSH1 0x0 PUSH2 0x24EA DUP5 DUP3 DUP6 ADD PUSH2 0x2476 JUMP JUMPDEST SWAP2 POP POP SWAP3 SWAP2 POP POP JUMP JUMPDEST PUSH1 0x0 DUP2 MLOAD SWAP1 POP PUSH2 0x2502 DUP2 PUSH2 0x1404 JUMP JUMPDEST SWAP3 SWAP2 POP POP JUMP JUMPDEST PUSH2 0x2511 DUP2 PUSH2 0x15AF JUMP JUMPDEST DUP2 EQ PUSH2 0x251C JUMPI PUSH1 0x0 DUP1 REVERT JUMPDEST POP JUMP JUMPDEST PUSH1 0x0 DUP2 MLOAD SWAP1 POP PUSH2 0x252E DUP2 PUSH2 0x2508 JUMP JUMPDEST SWAP3 SWAP2 POP POP JUMP JUMPDEST PUSH1 0x0 PUSH1 0x80 DUP3 DUP5 SUB SLT ISZERO PUSH2 0x254A JUMPI PUSH2 0x2549 PUSH2 0x245C JUMP JUMPDEST JUMPDEST PUSH2 0x2554 PUSH1 0x60 PUSH2 0x21D7 JUMP JUMPDEST SWAP1 POP PUSH1 0x0 PUSH2 0x2564 DUP5 DUP3 DUP6 ADD PUSH2 0x24F3 JUMP JUMPDEST PUSH1 0x0 DUP4 ADD MSTORE POP PUSH1 0x20 PUSH2 0x2578 DUP5 DUP3 DUP6 ADD PUSH2 0x251F JUMP JUMPDEST PUSH1 0x20 DUP4 ADD MSTORE POP PUSH1 0x40 PUSH2 0x258C DUP5 DUP3 DUP6 ADD PUSH2 0x2476 JUMP JUMPDEST PUSH1 0x40 DUP4 ADD MSTORE POP SWAP3 SWAP2 POP POP JUMP JUMPDEST PUSH1 0x0 PUSH1 0x80 DUP3 DUP5 SUB SLT ISZERO PUSH2 0x25AE JUMPI PUSH2 0x25AD PUSH2 0x13CC JUMP JUMPDEST JUMPDEST PUSH1 0x0 PUSH2 0x25BC DUP5 DUP3 DUP6 ADD PUSH2 0x2534 JUMP JUMPDEST SWAP2 POP POP SWAP3 SWAP2 POP POP JUMP JUMPDEST PUSH1 0x0 DUP2 MLOAD SWAP1 POP PUSH2 0x25D4 DUP2 PUSH2 0x14C7 JUMP JUMPDEST SWAP3 SWAP2 POP POP JUMP JUMPDEST PUSH1 0x0 PUSH1 0x20 DUP3 DUP5 SUB SLT ISZERO PUSH2 0x25F0 JUMPI PUSH2 0x25EF PUSH2 0x13CC JUMP JUMPDEST JUMPDEST PUSH1 0x0 PUSH2 0x25FE DUP5 DUP3 DUP6 ADD PUSH2 0x25C5 JUMP JUMPDEST SWAP2 POP POP SWAP3 SWAP2 POP POP JUMP JUMPDEST PUSH1 0x0 PUSH1 0x60 DUP3 ADD SWAP1 POP PUSH2 0x261C PUSH1 0x0 DUP4 ADD DUP7 PUSH2 0x1987 JUMP JUMPDEST PUSH2 0x2629 PUSH1 0x20 DUP4 ADD DUP6 PUSH2 0x1987 JUMP JUMPDEST PUSH2 0x2636 PUSH1 0x40 DUP4 ADD DUP5 PUSH2 0x1733 JUMP JUMPDEST SWAP5 SWAP4 POP POP POP POP JUMP INVALID LOG2 PUSH5 0x6970667358 0x22 SLT KECCAK256 XOR CALLCODE PUSH18 0x173DC83FEABEBF08BC50AA3952CBAFF51744 PUSH27 0xB9EB3BCC7B120E30B63C64736F6C634300081C0033000000000000 "
				},
				"gasEstimates": {
					"creation": {
						"codeDepositCost": "1968800",
						"executionCost": "infinite",
						"totalCost": "infinite"
					},
					"external": {
						"allowInitializePath((uint32,bytes32,uint64))": "3121",
						"endpoint()": "infinite",
						"getLastSentMessage()": "infinite",
						"isComposeMsgSender((uint32,bytes32,uint64),bytes,address)": "1067",
						"lzReceive((uint32,bytes32,uint64),bytes32,bytes,address,bytes)": "infinite",
						"messageCounter()": "2474",
						"nextNonce(uint32,bytes32)": "802",
						"oAppVersion()": "infinite",
						"owner()": "2589",
						"peers(uint32)": "2860",
						"quote(uint32,string,bytes,bool)": "infinite",
						"renounceOwnership()": "infinite",
						"sendMessage(uint32,string,bytes)": "infinite",
						"sentMessages(uint256)": "infinite",
						"setDelegate(address)": "infinite",
						"setPeer(uint32,bytes32)": "infinite",
						"transferOwnership(address)": "infinite",
						"withdraw()": "infinite"
					},
					"internal": {
						"_lzReceive(struct Origin calldata,bytes32,bytes calldata,address,bytes calldata)": "infinite"
					}
				},
				"methodIdentifiers": {
					"allowInitializePath((uint32,bytes32,uint64))": "ff7bd03d",
					"endpoint()": "5e280f11",
					"getLastSentMessage()": "3fb8e2a4",
					"isComposeMsgSender((uint32,bytes32,uint64),bytes,address)": "82413eac",
					"lzReceive((uint32,bytes32,uint64),bytes32,bytes,address,bytes)": "13137d65",
					"messageCounter()": "529c7588",
					"nextNonce(uint32,bytes32)": "7d25a05e",
					"oAppVersion()": "17442b70",
					"owner()": "8da5cb5b",
					"peers(uint32)": "bb0b6a53",
					"quote(uint32,string,bytes,bool)": "f77e5dd3",
					"renounceOwnership()": "715018a6",
					"sendMessage(uint32,string,bytes)": "71e2a436",
					"sentMessages(uint256)": "bc294d7d",
					"setDelegate(address)": "ca5eb5e1",
					"setPeer(uint32,bytes32)": "3400288b",
					"transferOwnership(address)": "f2fde38b",
					"withdraw()": "3ccfd60b"
				}
			},
			"storageLayout": {
				"storage": [
					{
						"astId": 1327,
						"contract": "Arbitrum_sende.sol:ArbitrumSender",
						"label": "_owner",
						"offset": 0,
						"slot": "0",
						"type": "t_address"
					},
					{
						"astId": 785,
						"contract": "Arbitrum_sende.sol:ArbitrumSender",
						"label": "peers",
						"offset": 0,
						"slot": "1",
						"type": "t_mapping(t_uint32,t_bytes32)"
					},
					{
						"astId": 2165,
						"contract": "Arbitrum_sende.sol:ArbitrumSender",
						"label": "messageCounter",
						"offset": 0,
						"slot": "2",
						"type": "t_uint256"
					},
					{
						"astId": 2169,
						"contract": "Arbitrum_sende.sol:ArbitrumSender",
						"label": "sentMessages",
						"offset": 0,
						"slot": "3",
						"type": "t_mapping(t_uint256,t_string_storage)"
					}
				],
				"types": {
					"t_address": {
						"encoding": "inplace",
						"label": "address",
						"numberOfBytes": "20"
					},
					"t_bytes32": {
						"encoding": "inplace",
						"label": "bytes32",
						"numberOfBytes": "32"
					},
					"t_mapping(t_uint256,t_string_storage)": {
						"encoding": "mapping",
						"key": "t_uint256",
						"label": "mapping(uint256 => string)",
						"numberOfBytes": "32",
						"value": "t_string_storage"
					},
					"t_mapping(t_uint32,t_bytes32)": {
						"encoding": "mapping",
						"key": "t_uint32",
						"label": "mapping(uint32 => bytes32)",
						"numberOfBytes": "32",
						"value": "t_bytes32"
					},
					"t_string_storage": {
						"encoding": "bytes",
						"label": "string",
						"numberOfBytes": "32"
					},
					"t_uint256": {
						"encoding": "inplace",
						"label": "uint256",
						"numberOfBytes": "32"
					},
					"t_uint32": {
						"encoding": "inplace",
						"label": "uint32",
						"numberOfBytes": "4"
					}
				}
			},
			"userdoc": {
				"kind": "user",
				"methods": {
					"allowInitializePath((uint32,bytes32,uint64))": {
						"notice": "Checks if the path initialization is allowed based on the provided origin."
					},
					"endpoint()": {
						"notice": "Retrieves the LayerZero endpoint associated with the OApp."
					},
					"isComposeMsgSender((uint32,bytes32,uint64),bytes,address)": {
						"notice": "Indicates whether an address is an approved composeMsg sender to the Endpoint."
					},
					"nextNonce(uint32,bytes32)": {
						"notice": "Retrieves the next nonce for a given source endpoint and sender address."
					},
					"oAppVersion()": {
						"notice": "Retrieves the OApp version information."
					},
					"peers(uint32)": {
						"notice": "Retrieves the peer (OApp) associated with a corresponding endpoint."
					},
					"setDelegate(address)": {
						"notice": "Sets the delegate address for the OApp."
					},
					"setPeer(uint32,bytes32)": {
						"notice": "Sets the peer address (OApp instance) for a corresponding endpoint."
					}
				},
				"version": 1
			}
		}
	}
}