{
	"Arbitrum_sender.sol": {
		"ArbitrumSender": {
			"abi": [
				{
					"inputs": [
						{
							"internalType": "address",
							"name": "_endpoint",
							"type": "address"
						},
						{
							"internalType": "address",
							"name": "_owner",
							"type": "address"
						}
					],
					"stateMutability": "nonpayable",
					"type": "constructor"
				},
				{
					"inputs": [],
					"name": "InvalidDelegate",
					"type": "error"
				},
				{
					"inputs": [],
					"name": "InvalidEndpointCall",
					"type": "error"
				},
				{
					"inputs": [],
					"name": "LzTokenUnavailable",
					"type": "error"
				},
				{
					"inputs": [
						{
							"internalType": "uint32",
							"name": "eid",
							"type": "uint32"
						}
					],
					"name": "NoPeer",
					"type": "error"
				},
				{
					"inputs": [
						{
							"internalType": "uint256",
							"name": "msgValue",
							"type": "uint256"
						}
					],
					"name": "NotEnoughNative",
					"type": "error"
				},
				{
					"inputs": [
						{
							"internalType": "address",
							"name": "addr",
							"type": "address"
						}
					],
					"name": "OnlyEndpoint",
					"type": "error"
				},
				{
					"inputs": [
						{
							"internalType": "uint32",
							"name": "eid",
							"type": "uint32"
						},
						{
							"internalType": "bytes32",
							"name": "sender",
							"type": "bytes32"
						}
					],
					"name": "OnlyPeer",
					"type": "error"
				},
				{
					"inputs": [
						{
							"internalType": "address",
							"name": "owner",
							"type": "address"
						}
					],
					"name": "OwnableInvalidOwner",
					"type": "error"
				},
				{
					"inputs": [
						{
							"internalType": "address",
							"name": "account",
							"type": "address"
						}
					],
					"name": "OwnableUnauthorizedAccount",
					"type": "error"
				},
				{
					"inputs": [
						{
							"internalType": "address",
							"name": "token",
							"type": "address"
						}
					],
					"name": "SafeERC20FailedOperation",
					"type": "error"
				},
				{
					"anonymous": false,
					"inputs": [
						{
							"indexed": true,
							"internalType": "uint32",
							"name": "srcEid",
							"type": "uint32"
						},
						{
							"indexed": true,
							"internalType": "bytes32",
							"name": "guid",
							"type": "bytes32"
						},
						{
							"indexed": false,
							"internalType": "string",
							"name": "message",
							"type": "string"
						}
					],
					"name": "MessageReceived",
					"type": "event"
				},
				{
					"anonymous": false,
					"inputs": [
						{
							"indexed": true,
							"internalType": "uint32",
							"name": "dstEid",
							"type": "uint32"
						},
						{
							"indexed": true,
							"internalType": "bytes32",
							"name": "guid",
							"type": "bytes32"
						},
						{
							"indexed": false,
							"internalType": "string",
							"name": "message",
							"type": "string"
						},
						{
							"indexed": false,
							"internalType": "uint256",
							"name": "fee",
							"type": "uint256"
						}
					],
					"name": "MessageSent",
					"type": "event"
				},
				{
					"anonymous": false,
					"inputs": [
						{
							"indexed": true,
							"internalType": "address",
							"name": "previousOwner",
							"type": "address"
						},
						{
							"indexed": true,
							"internalType": "address",
							"name": "newOwner",
							"type": "address"
						}
					],
					"name": "OwnershipTransferred",
					"type": "event"
				},
				{
					"anonymous": false,
					"inputs": [
						{
							"indexed": false,
							"internalType": "uint32",
							"name": "eid",
							"type": "uint32"
						},
						{
							"indexed": false,
							"internalType": "bytes32",
							"name": "peer",
							"type": "bytes32"
						}
					],
					"name": "PeerSet",
					"type": "event"
				},
				{
					"inputs": [
						{
							"components": [
								{
									"internalType": "uint32",
									"name": "srcEid",
									"type": "uint32"
								},
								{
									"internalType": "bytes32",
									"name": "sender",
									"type": "bytes32"
								},
								{
									"internalType": "uint64",
									"name": "nonce",
									"type": "uint64"
								}
							],
							"internalType": "struct Origin",
							"name": "origin",
							"type": "tuple"
						}
					],
					"name": "allowInitializePath",
					"outputs": [
						{
							"internalType": "bool",
							"name": "",
							"type": "bool"
						}
					],
					"stateMutability": "view",
					"type": "function"
				},
				{
					"inputs": [],
					"name": "endpoint",
					"outputs": [
						{
							"internalType": "contract ILayerZeroEndpointV2",
							"name": "",
							"type": "address"
						}
					],
					"stateMutability": "view",
					"type": "function"
				},
				{
					"inputs": [],
					"name": "getLastSentMessage",
					"outputs": [
						{
							"internalType": "string",
							"name": "",
							"type": "string"
						}
					],
					"stateMutability": "view",
					"type": "function"
				},
				{
					"inputs": [
						{
							"components": [
								{
									"internalType": "uint32",
									"name": "srcEid",
									"type": "uint32"
								},
								{
									"internalType": "bytes32",
									"name": "sender",
									"type": "bytes32"
								},
								{
									"internalType": "uint64",
									"name": "nonce",
									"type": "uint64"
								}
							],
							"internalType": "struct Origin",
							"name": "",
							"type": "tuple"
						},
						{
							"internalType": "bytes",
							"name": "",
							"type": "bytes"
						},
						{
							"internalType": "address",
							"name": "_sender",
							"type": "address"
						}
					],
					"name": "isComposeMsgSender",
					"outputs": [
						{
							"internalType": "bool",
							"name": "",
							"type": "bool"
						}
					],
					"stateMutability": "view",
					"type": "function"
				},
				{
					"inputs": [
						{
							"components": [
								{
									"internalType": "uint32",
									"name": "srcEid",
									"type": "uint32"
								},
								{
									"internalType": "bytes32",
									"name": "sender",
									"type": "bytes32"
								},
								{
									"internalType": "uint64",
									"name": "nonce",
									"type": "uint64"
								}
							],
							"internalType": "struct Origin",
							"name": "_origin",
							"type": "tuple"
						},
						{
							"internalType": "bytes32",
							"name": "_guid",
							"type": "bytes32"
						},
						{
							"internalType": "bytes",
							"name": "_message",
							"type": "bytes"
						},
						{
							"internalType": "address",
							"name": "_executor",
							"type": "address"
						},
						{
							"internalType": "bytes",
							"name": "_extraData",
							"type": "bytes"
						}
					],
					"name": "lzReceive",
					"outputs": [],
					"stateMutability": "payable",
					"type": "function"
				},
				{
					"inputs": [],
					"name": "messageCounter",
					"outputs": [
						{
							"internalType": "uint256",
							"name": "",
							"type": "uint256"
						}
					],
					"stateMutability": "view",
					"type": "function"
				},
				{
					"inputs": [
						{
							"internalType": "uint32",
							"name": "",
							"type": "uint32"
						},
						{
							"internalType": "bytes32",
							"name": "",
							"type": "bytes32"
						}
					],
					"name": "nextNonce",
					"outputs": [
						{
							"internalType": "uint64",
							"name": "nonce",
							"type": "uint64"
						}
					],
					"stateMutability": "view",
					"type": "function"
				},
				{
					"inputs": [],
					"name": "oAppVersion",
					"outputs": [
						{
							"internalType": "uint64",
							"name": "senderVersion",
							"type": "uint64"
						},
						{
							"internalType": "uint64",
							"name": "receiverVersion",
							"type": "uint64"
						}
					],
					"stateMutability": "pure",
					"type": "function"
				},
				{
					"inputs": [],
					"name": "owner",
					"outputs": [
						{
							"internalType": "address",
							"name": "",
							"type": "address"
						}
					],
					"stateMutability": "view",
					"type": "function"
				},
				{
					"inputs": [
						{
							"internalType": "uint32",
							"name": "eid",
							"type": "uint32"
						}
					],
					"name": "peers",
					"outputs": [
						{
							"internalType": "bytes32",
							"name": "peer",
							"type": "bytes32"
						}
					],
					"stateMutability": "view",
					"type": "function"
				},
				{
					"inputs": [
						{
							"internalType": "uint32",
							"name": "_dstEid",
							"type": "uint32"
						},
						{
							"internalType": "string",
							"name": "_message",
							"type": "string"
						},
						{
							"internalType": "bytes",
							"name": "_options",
							"type": "bytes"
						},
						{
							"internalType": "bool",
							"name": "_payInLzToken",
							"type": "bool"
						}
					],
					"name": "quote",
					"outputs": [
						{
							"components": [
								{
									"internalType": "uint256",
									"name": "nativeFee",
									"type": "uint256"
								},
								{
									"internalType": "uint256",
									"name": "lzTokenFee",
									"type": "uint256"
								}
							],
							"internalType": "struct MessagingFee",
							"name": "fee",
							"type": "tuple"
						}
					],
					"stateMutability": "view",
					"type": "function"
				},
				{
					"inputs": [],
					"name": "renounceOwnership",
					"outputs": [],
					"stateMutability": "nonpayable",
					"type": "function"
				},
				{
					"inputs": [
						{
							"internalType": "uint32",
							"name": "_dstEid",
							"type": "uint32"
						},
						{
							"internalType": "string",
							"name": "_message",
							"type": "string"
						},
						{
							"internalType": "bytes",
							"name": "_options",
							"type": "bytes"
						}
					],
					"name": "sendMessage",
					"outputs": [],
					"stateMutability": "payable",
					"type": "function"
				},
				{
					"inputs": [
						{
							"internalType": "uint256",
							"name": "",
							"type": "uint256"
						}
					],
					"name": "sentMessages",
					"outputs": [
						{
							"internalType": "string",
							"name": "",
							"type": "string"
						}
					],
					"stateMutability": "view",
					"type": "function"
				},
				{
					"inputs": [
						{
							"internalType": "address",
							"name": "_delegate",
							"type": "address"
						}
					],
					"name": "setDelegate",
					"outputs": [],
					"stateMutability": "nonpayable",
					"type": "function"
				},
				{
					"inputs": [
						{
							"internalType": "uint32",
							"name": "_eid",
							"type": "uint32"
						},
						{
							"internalType": "bytes32",
							"name": "_peer",
							"type": "bytes32"
						}
					],
					"name": "setPeer",
					"outputs": [],
					"stateMutability": "nonpayable",
					"type": "function"
				},
				{
					"inputs": [
						{
							"internalType": "address",
							"name": "newOwner",
							"type": "address"
						}
					],
					"name": "transferOwnership",
					"outputs": [],
					"stateMutability": "nonpayable",
					"type": "function"
				},
				{
					"inputs": [],
					"name": "withdraw",
					"outputs": [],
					"stateMutability": "nonpayable",
					"type": "function"
				},
				{
					"stateMutability": "payable",
					"type": "receive"
				}
			],
			"devdoc": {
				"details": "LayerZero v2 OApp for sending cross-chain messages from Arbitrum to Optimism",
				"errors": {
					"OwnableInvalidOwner(address)": [
						{
							"details": "The owner is not a valid owner account. (eg. `address(0)`)"
						}
					],
					"OwnableUnauthorizedAccount(address)": [
						{
							"details": "The caller account is not authorized to perform an operation."
						}
					],
					"SafeERC20FailedOperation(address)": [
						{
							"details": "An operation with an ERC-20 token failed."
						}
					]
				},
				"kind": "dev",
				"methods": {
					"allowInitializePath((uint32,bytes32,uint64))": {
						"details": "This indicates to the endpoint that the OApp has enabled msgs for this particular path to be received.This defaults to assuming if a peer has been set, its initialized. Can be overridden by the OApp if there is other logic to determine this.",
						"params": {
							"origin": "The origin information containing the source endpoint and sender address."
						},
						"returns": {
							"_0": "Whether the path has been initialized."
						}
					},
					"getLastSentMessage()": {
						"details": "Get the last sent message",
						"returns": {
							"_0": "The last sent message"
						}
					},
					"isComposeMsgSender((uint32,bytes32,uint64),bytes,address)": {
						"details": "_origin The origin information containing the source endpoint and sender address.  - srcEid: The source chain endpoint ID.  - sender: The sender address on the src chain.  - nonce: The nonce of the message._message The lzReceive payload.Applications can optionally choose to implement separate composeMsg senders that are NOT the bridging layer.The default sender IS the OAppReceiver implementer.",
						"params": {
							"_sender": "The sender address."
						},
						"returns": {
							"_0": "isSender Is a valid sender."
						}
					},
					"lzReceive((uint32,bytes32,uint64),bytes32,bytes,address,bytes)": {
						"details": "Entry point for receiving messages or packets from the endpoint.Entry point for receiving msg/packet from the LayerZero endpoint.",
						"params": {
							"_executor": "The address of the executor for the received message.",
							"_extraData": "Additional arbitrary data provided by the corresponding executor.",
							"_guid": "The unique identifier for the received LayerZero message.",
							"_message": "The payload of the received message.",
							"_origin": "The origin information containing the source endpoint and sender address.  - srcEid: The source chain endpoint ID.  - sender: The sender address on the src chain.  - nonce: The nonce of the message."
						}
					},
					"nextNonce(uint32,bytes32)": {
						"details": "_srcEid The source endpoint ID._sender The sender address.The path nonce starts from 1. If 0 is returned it means that there is NO nonce ordered enforcement.Is required by the off-chain executor to determine the OApp expects msg execution is ordered.This is also enforced by the OApp.By default this is NOT enabled. ie. nextNonce is hardcoded to return 0.",
						"returns": {
							"nonce": "The next nonce."
						}
					},
					"oAppVersion()": {
						"returns": {
							"receiverVersion": "The version of the OAppReceiver.sol implementation.",
							"senderVersion": "The version of the OAppSender.sol implementation."
						}
					},
					"owner()": {
						"details": "Returns the address of the current owner."
					},
					"quote(uint32,string,bytes,bool)": {
						"details": "Quote the messaging fee for sending a message",
						"params": {
							"_dstEid": "The destination endpoint ID",
							"_message": "The message to send",
							"_options": "LayerZero message options",
							"_payInLzToken": "Whether to pay in LZ token"
						},
						"returns": {
							"fee": "The messaging fee"
						}
					},
					"renounceOwnership()": {
						"details": "Leaves the contract without owner. It will not be possible to call `onlyOwner` functions. Can only be called by the current owner. NOTE: Renouncing ownership will leave the contract without an owner, thereby disabling any functionality that is only available to the owner."
					},
					"sendMessage(uint32,string,bytes)": {
						"details": "Send a cross-chain message to Optimism",
						"params": {
							"_dstEid": "The destination endpoint ID (Optimism)",
							"_message": "The message to send",
							"_options": "LayerZero message options"
						}
					},
					"setDelegate(address)": {
						"details": "Only the owner/admin of the OApp can call this function.Provides the ability for a delegate to set configs, on behalf of the OApp, directly on the Endpoint contract.",
						"params": {
							"_delegate": "The address of the delegate to be set."
						}
					},
					"setPeer(uint32,bytes32)": {
						"details": "Only the owner/admin of the OApp can call this function.Indicates that the peer is trusted to send LayerZero messages to this OApp.Set this to bytes32(0) to remove the peer address.Peer is a bytes32 to accommodate non-evm chains.",
						"params": {
							"_eid": "The endpoint ID.",
							"_peer": "The address of the peer to be associated with the corresponding endpoint."
						}
					},
					"transferOwnership(address)": {
						"details": "Transfers ownership of the contract to a new account (`newOwner`). Can only be called by the current owner."
					},
					"withdraw()": {
						"details": "Withdraw contract balance (owner only)"
					}
				},
				"title": "ArbitrumSender",
				"version": 1
			},
			"evm": {
				"assembly": "    /* \"Arbitrum_sender.sol\":431:4220  contract ArbitrumSender is OApp {... */\n  mstore(0x40, 0xa0)\n    /* \"Arbitrum_sender.sol\":1010:1166  constructor(... */\n  callvalue\n  dup1\n  iszero\n  tag_1\n  jumpi\n  0x00\n  dup1\n  revert\ntag_1:\n  pop\n  mload(0x40)\n  sub(codesize, bytecodeSize)\n  dup1\n  bytecodeSize\n  dup4\n  codecopy\n  dup2\n  add\n  0x40\n  dup2\n  swap1\n  mstore\n  tag_2\n  swap2\n  tag_3\n  jump\t// in\ntag_2:\n    /* \"Arbitrum_sender.sol\":1084:1093  _endpoint */\n  dup2\n    /* \"Arbitrum_sender.sol\":1095:1101  _owner */\n  dup2\n    /* \"Arbitrum_sender.sol\":1084:1093  _endpoint */\n  dup2\n    /* \"Arbitrum_sender.sol\":1095:1101  _owner */\n  dup2\n    /* \"Arbitrum_sender.sol\":1111:1121  msg.sender */\n  caller\n  dup1\n    /* \"@openzeppelin/contracts/access/Ownable.sol\":1269:1364  if (initialOwner == address(0)) {... */\n  tag_9\n  jumpi\n    /* \"@openzeppelin/contracts/access/Ownable.sol\":1322:1353  OwnableInvalidOwner(address(0)) */\n  mload(0x40)\n  shl(0xe0, 0x1e4fbdf7)\n  dup2\n  mstore\n    /* \"@openzeppelin/contracts/access/Ownable.sol\":1350:1351  0 */\n  0x00\n    /* \"@openzeppelin/contracts/access/Ownable.sol\":1322:1353  OwnableInvalidOwner(address(0)) */\n  0x04\n  dup3\n  add\n    /* \"#utility.yul\":640:691   */\n  mstore\n    /* \"#utility.yul\":613:631   */\n  0x24\n  add\n    /* \"@openzeppelin/contracts/access/Ownable.sol\":1322:1353  OwnableInvalidOwner(address(0)) */\n  mload(0x40)\n  dup1\n  swap2\n  sub\n  swap1\n  revert\n    /* \"@openzeppelin/contracts/access/Ownable.sol\":1269:1364  if (initialOwner == address(0)) {... */\ntag_9:\n    /* \"@openzeppelin/contracts/access/Ownable.sol\":1373:1405  _transferOwnership(initialOwner) */\n  tag_12\n    /* \"@openzeppelin/contracts/access/Ownable.sol\":1392:1404  initialOwner */\n  dup2\n    /* \"@openzeppelin/contracts/access/Ownable.sol\":1373:1391  _transferOwnership */\n  tag_13\n    /* \"@openzeppelin/contracts/access/Ownable.sol\":1373:1405  _transferOwnership(initialOwner) */\n  jump\t// in\ntag_12:\n  pop\n  sub(shl(0xa0, 0x01), 0x01)\n    /* \"@layerzerolabs/oapp-evm/contracts/oapp/OAppCore.sol\":1047:1089  endpoint = ILayerZeroEndpointV2(_endpoint) */\n  dup1\n  dup4\n  and\n  0x80\n  mstore\n    /* \"@layerzerolabs/oapp-evm/contracts/oapp/OAppCore.sol\":1104:1127  _delegate == address(0) */\n  dup2\n  and\n    /* \"@layerzerolabs/oapp-evm/contracts/oapp/OAppCore.sol\":1100:1153  if (_delegate == address(0)) revert InvalidDelegate() */\n  tag_15\n  jumpi\n    /* \"@layerzerolabs/oapp-evm/contracts/oapp/OAppCore.sol\":1136:1153  InvalidDelegate() */\n  mload(0x40)\n  shl(0xe2, 0x2d618d81)\n  dup2\n  mstore\n  0x04\n  add\n  mload(0x40)\n  dup1\n  swap2\n  sub\n  swap1\n  revert\n    /* \"@layerzerolabs/oapp-evm/contracts/oapp/OAppCore.sol\":1100:1153  if (_delegate == address(0)) revert InvalidDelegate() */\ntag_15:\n    /* \"@layerzerolabs/oapp-evm/contracts/oapp/OAppCore.sol\":1163:1171  endpoint */\n  mload(0x80)\n    /* \"@layerzerolabs/oapp-evm/contracts/oapp/OAppCore.sol\":1163:1194  endpoint.setDelegate(_delegate) */\n  mload(0x40)\n  shl(0xe0, 0xca5eb5e1)\n  dup2\n  mstore\n  sub(shl(0xa0, 0x01), 0x01)\n    /* \"#utility.yul\":658:690   */\n  dup4\n  dup2\n  and\n    /* \"@layerzerolabs/oapp-evm/contracts/oapp/OAppCore.sol\":1163:1194  endpoint.setDelegate(_delegate) */\n  0x04\n  dup4\n  add\n    /* \"#utility.yul\":640:691   */\n  mstore\n    /* \"@layerzerolabs/oapp-evm/contracts/oapp/OAppCore.sol\":1163:1183  endpoint.setDelegate */\n  swap1\n  swap2\n  and\n  swap1\n  0xca5eb5e1\n  swap1\n    /* \"#utility.yul\":613:631   */\n  0x24\n  add\n    /* \"@layerzerolabs/oapp-evm/contracts/oapp/OAppCore.sol\":1163:1194  endpoint.setDelegate(_delegate) */\n  0x00\n  mload(0x40)\n  dup1\n  dup4\n  sub\n  dup2\n  0x00\n  dup8\n  dup1\n  extcodesize\n  iszero\n  dup1\n  iszero\n  tag_17\n  jumpi\n  0x00\n  dup1\n  revert\ntag_17:\n  pop\n  gas\n  call\n  iszero\n  dup1\n  iszero\n  tag_19\n  jumpi\n  returndatasize\n  0x00\n  dup1\n  returndatacopy\n  revert(0x00, returndatasize)\ntag_19:\n  pop\n  pop\n  pop\n  pop\n    /* \"@layerzerolabs/oapp-evm/contracts/oapp/OAppCore.sol\":987:1201  constructor(address _endpoint, address _delegate) {... */\n  pop\n  pop\n    /* \"@layerzerolabs/oapp-evm/contracts/oapp/OApp.sol\":965:1048  constructor(address _endpoint, address _delegate) OAppCore(_endpoint, _delegate) {} */\n  pop\n  pop\n    /* \"Arbitrum_sender.sol\":1133:1159  _transferOwnership(_owner) */\n  tag_22\n    /* \"Arbitrum_sender.sol\":1152:1158  _owner */\n  dup2\n    /* \"Arbitrum_sender.sol\":1133:1151  _transferOwnership */\n  shl(0x20, tag_13)\n    /* \"Arbitrum_sender.sol\":1133:1159  _transferOwnership(_owner) */\n  0x20\n  shr\n  jump\t// in\ntag_22:\n    /* \"Arbitrum_sender.sol\":1010:1166  constructor(... */\n  pop\n  pop\n    /* \"Arbitrum_sender.sol\":431:4220  contract ArbitrumSender is OApp {... */\n  jump(tag_26)\n    /* \"@openzeppelin/contracts/access/Ownable.sol\":2912:3099  function _transferOwnership(address newOwner) internal virtual {... */\ntag_13:\n    /* \"@openzeppelin/contracts/access/Ownable.sol\":2985:3001  address oldOwner */\n  0x00\n    /* \"@openzeppelin/contracts/access/Ownable.sol\":3004:3010  _owner */\n  dup1\n  sload\n  sub(shl(0xa0, 0x01), 0x01)\n    /* \"@openzeppelin/contracts/access/Ownable.sol\":3020:3037  _owner = newOwner */\n  dup4\n  dup2\n  and\n  not(sub(shl(0xa0, 0x01), 0x01))\n  dup4\n  and\n  dup2\n  or\n  dup5\n  sstore\n    /* \"@openzeppelin/contracts/access/Ownable.sol\":3052:3092  OwnershipTransferred(oldOwner, newOwner) */\n  mload(0x40)\n    /* \"@openzeppelin/contracts/access/Ownable.sol\":3004:3010  _owner */\n  swap2\n  swap1\n  swap3\n  and\n  swap3\n  dup4\n  swap2\n    /* \"@openzeppelin/contracts/access/Ownable.sol\":3052:3092  OwnershipTransferred(oldOwner, newOwner) */\n  0x8be0079c531659141344cd1fd0a4f28419497f9722a3daafe3b4186f6b6457e0\n  swap2\n    /* \"@openzeppelin/contracts/access/Ownable.sol\":2985:3001  address oldOwner */\n  swap1\n    /* \"@openzeppelin/contracts/access/Ownable.sol\":3052:3092  OwnershipTransferred(oldOwner, newOwner) */\n  log3\n    /* \"@openzeppelin/contracts/access/Ownable.sol\":2975:3099  {... */\n  pop\n    /* \"@openzeppelin/contracts/access/Ownable.sol\":2912:3099  function _transferOwnership(address newOwner) internal virtual {... */\n  pop\n  jump\t// out\n    /* \"#utility.yul\":14:191   */\ntag_25:\n    /* \"#utility.yul\":93:106   */\n  dup1\n  mload\n  sub(shl(0xa0, 0x01), 0x01)\n    /* \"#utility.yul\":135:166   */\n  dup2\n  and\n    /* \"#utility.yul\":125:167   */\n  dup2\n  eq\n    /* \"#utility.yul\":115:185   */\n  tag_28\n  jumpi\n    /* \"#utility.yul\":181:182   */\n  0x00\n    /* \"#utility.yul\":178:179   */\n  dup1\n    /* \"#utility.yul\":171:183   */\n  revert\n    /* \"#utility.yul\":115:185   */\ntag_28:\n    /* \"#utility.yul\":14:191   */\n  swap2\n  swap1\n  pop\n  jump\t// out\n    /* \"#utility.yul\":196:489   */\ntag_3:\n    /* \"#utility.yul\":275:281   */\n  0x00\n    /* \"#utility.yul\":283:289   */\n  dup1\n    /* \"#utility.yul\":336:338   */\n  0x40\n    /* \"#utility.yul\":324:333   */\n  dup4\n    /* \"#utility.yul\":315:322   */\n  dup6\n    /* \"#utility.yul\":311:334   */\n  sub\n    /* \"#utility.yul\":307:339   */\n  slt\n    /* \"#utility.yul\":304:356   */\n  iszero\n  tag_30\n  jumpi\n    /* \"#utility.yul\":352:353   */\n  0x00\n    /* \"#utility.yul\":349:350   */\n  dup1\n    /* \"#utility.yul\":342:354   */\n  revert\n    /* \"#utility.yul\":304:356   */\ntag_30:\n    /* \"#utility.yul\":375:415   */\n  tag_31\n    /* \"#utility.yul\":405:414   */\n  dup4\n    /* \"#utility.yul\":375:415   */\n  tag_25\n  jump\t// in\ntag_31:\n    /* \"#utility.yul\":365:415   */\n  swap2\n  pop\n    /* \"#utility.yul\":434:483   */\n  tag_32\n    /* \"#utility.yul\":479:481   */\n  0x20\n    /* \"#utility.yul\":468:477   */\n  dup5\n    /* \"#utility.yul\":464:482   */\n  add\n    /* \"#utility.yul\":434:483   */\n  tag_25\n  jump\t// in\ntag_32:\n    /* \"#utility.yul\":424:483   */\n  swap1\n  pop\n    /* \"#utility.yul\":196:489   */\n  swap3\n  pop\n  swap3\n  swap1\n  pop\n  jump\t// out\n    /* \"#utility.yul\":494:697   */\ntag_26:\n    /* \"Arbitrum_sender.sol\":431:4220  contract ArbitrumSender is OApp {... */\n  mload(0x80)\n  codecopy(0x00, dataOffset(sub_0), dataSize(sub_0))\n  0x00\n  assignImmutable(\"0xef80077fd7ee005d1b0377e3e959eb59d0ca83c4839422f862a3540a66a91fb5\")\n  return(0x00, dataSize(sub_0))\nstop\n\nsub_0: assembly {\n        /* \"Arbitrum_sender.sol\":431:4220  contract ArbitrumSender is OApp {... */\n      mstore(0x40, 0x80)\n      jumpi(tag_1, lt(calldatasize, 0x04))\n      shr(0xe0, calldataload(0x00))\n      dup1\n      0x7d25a05e\n      gt\n      tag_21\n      jumpi\n      dup1\n      0xbc294d7d\n      gt\n      tag_22\n      jumpi\n      dup1\n      0xbc294d7d\n      eq\n      tag_16\n      jumpi\n      dup1\n      0xca5eb5e1\n      eq\n      tag_17\n      jumpi\n      dup1\n      0xf2fde38b\n      eq\n      tag_18\n      jumpi\n      dup1\n      0xf77e5dd3\n      eq\n      tag_19\n      jumpi\n      dup1\n      0xff7bd03d\n      eq\n      tag_20\n      jumpi\n      0x00\n      dup1\n      revert\n    tag_22:\n      dup1\n      0x7d25a05e\n      eq\n      tag_12\n      jumpi\n      dup1\n      0x82413eac\n      eq\n      tag_13\n      jumpi\n      dup1\n      0x8da5cb5b\n      eq\n      tag_14\n      jumpi\n      dup1\n      0xbb0b6a53\n      eq\n      tag_15\n      jumpi\n      0x00\n      dup1\n      revert\n    tag_21:\n      dup1\n      0x3fb8e2a4\n      gt\n      tag_23\n      jumpi\n      dup1\n      0x3fb8e2a4\n      eq\n      tag_7\n      jumpi\n      dup1\n      0x529c7588\n      eq\n      tag_8\n      jumpi\n      dup1\n      0x5e280f11\n      eq\n      tag_9\n      jumpi\n      dup1\n      0x715018a6\n      eq\n      tag_10\n      jumpi\n      dup1\n      0x71e2a436\n      eq\n      tag_11\n      jumpi\n      0x00\n      dup1\n      revert\n    tag_23:\n      dup1\n      0x13137d65\n      eq\n      tag_3\n      jumpi\n      dup1\n      0x17442b70\n      eq\n      tag_4\n      jumpi\n      dup1\n      0x3400288b\n      eq\n      tag_5\n      jumpi\n      dup1\n      0x3ccfd60b\n      eq\n      tag_6\n      jumpi\n      0x00\n      dup1\n      revert\n    tag_1:\n      jumpi(tag_2, calldatasize)\n      stop\n    tag_2:\n      0x00\n      dup1\n      revert\n        /* \"@layerzerolabs/oapp-evm/contracts/oapp/OAppReceiver.sol\":4368:5076  function lzReceive(... */\n    tag_3:\n      tag_26\n      tag_27\n      calldatasize\n      0x04\n      tag_28\n      jump\t// in\n    tag_27:\n      tag_29\n      jump\t// in\n    tag_26:\n      stop\n        /* \"@layerzerolabs/oapp-evm/contracts/oapp/OApp.sol\":1287:1522  function oAppVersion()... */\n    tag_4:\n      callvalue\n      dup1\n      iszero\n      tag_30\n      jumpi\n      0x00\n      dup1\n      revert\n    tag_30:\n      pop\n      0x40\n      dup1\n      mload\n        /* \"@layerzerolabs/oapp-evm/contracts/oapp/OAppSender.sol\":843:844  1 */\n      0x01\n        /* \"#utility.yul\":1952:2002   */\n      dup2\n      mstore\n        /* \"@layerzerolabs/oapp-evm/contracts/oapp/OAppReceiver.sol\":678:679  2 */\n      0x02\n        /* \"#utility.yul\":2033:2035   */\n      0x20\n        /* \"#utility.yul\":2018:2036   */\n      dup3\n      add\n        /* \"#utility.yul\":2011:2070   */\n      mstore\n        /* \"#utility.yul\":1925:1943   */\n      add\n        /* \"@layerzerolabs/oapp-evm/contracts/oapp/OApp.sol\":1287:1522  function oAppVersion()... */\n    tag_33:\n      mload(0x40)\n      dup1\n      swap2\n      sub\n      swap1\n      return\n        /* \"@layerzerolabs/oapp-evm/contracts/oapp/OAppCore.sol\":1724:1832  function setPeer(uint32 _eid, bytes32 _peer) public virtual onlyOwner {... */\n    tag_5:\n      callvalue\n      dup1\n      iszero\n      tag_35\n      jumpi\n      0x00\n      dup1\n      revert\n    tag_35:\n      pop\n      tag_26\n      tag_37\n      calldatasize\n      0x04\n      tag_38\n      jump\t// in\n    tag_37:\n      tag_39\n      jump\t// in\n        /* \"Arbitrum_sender.sol\":3929:4124  function withdraw() external onlyOwner {... */\n    tag_6:\n      callvalue\n      dup1\n      iszero\n      tag_40\n      jumpi\n      0x00\n      dup1\n      revert\n    tag_40:\n      pop\n      tag_26\n      tag_42\n      jump\t// in\n        /* \"Arbitrum_sender.sol\":3679:3856  function getLastSentMessage() external view returns (string memory) {... */\n    tag_7:\n      callvalue\n      dup1\n      iszero\n      tag_43\n      jumpi\n      0x00\n      dup1\n      revert\n    tag_43:\n      pop\n      tag_44\n      tag_45\n      jump\t// in\n    tag_44:\n      mload(0x40)\n      tag_33\n      swap2\n      swap1\n      tag_47\n      jump\t// in\n        /* \"Arbitrum_sender.sol\":883:912  uint256 public messageCounter */\n    tag_8:\n      callvalue\n      dup1\n      iszero\n      tag_48\n      jumpi\n      0x00\n      dup1\n      revert\n    tag_48:\n      pop\n      tag_49\n      sload(0x02)\n      dup2\n      jump\n    tag_49:\n      mload(0x40)\n        /* \"#utility.yul\":3328:3353   */\n      swap1\n      dup2\n      mstore\n        /* \"#utility.yul\":3316:3318   */\n      0x20\n        /* \"#utility.yul\":3301:3319   */\n      add\n        /* \"Arbitrum_sender.sol\":883:912  uint256 public messageCounter */\n      tag_33\n        /* \"#utility.yul\":3182:3359   */\n      jump\n        /* \"@layerzerolabs/oapp-evm/contracts/oapp/OAppCore.sol\":446:492  ILayerZeroEndpointV2 public immutable endpoint */\n    tag_9:\n      callvalue\n      dup1\n      iszero\n      tag_53\n      jumpi\n      0x00\n      dup1\n      revert\n    tag_53:\n      pop\n      tag_54\n      immutable(\"0xef80077fd7ee005d1b0377e3e959eb59d0ca83c4839422f862a3540a66a91fb5\")\n      dup2\n      jump\n    tag_54:\n      mload(0x40)\n      sub(shl(0xa0, 0x01), 0x01)\n        /* \"#utility.yul\":3556:3611   */\n      swap1\n      swap2\n      and\n        /* \"#utility.yul\":3538:3612   */\n      dup2\n      mstore\n        /* \"#utility.yul\":3526:3528   */\n      0x20\n        /* \"#utility.yul\":3511:3529   */\n      add\n        /* \"@layerzerolabs/oapp-evm/contracts/oapp/OAppCore.sol\":446:492  ILayerZeroEndpointV2 public immutable endpoint */\n      tag_33\n        /* \"#utility.yul\":3364:3618   */\n      jump\n        /* \"@openzeppelin/contracts/access/Ownable.sol\":2293:2394  function renounceOwnership() public virtual onlyOwner {... */\n    tag_10:\n      callvalue\n      dup1\n      iszero\n      tag_58\n      jumpi\n      0x00\n      dup1\n      revert\n    tag_58:\n      pop\n      tag_26\n      tag_60\n      jump\t// in\n        /* \"Arbitrum_sender.sol\":1392:2239  function sendMessage(... */\n    tag_11:\n      tag_26\n      tag_62\n      calldatasize\n      0x04\n      tag_63\n      jump\t// in\n    tag_62:\n      tag_64\n      jump\t// in\n        /* \"@layerzerolabs/oapp-evm/contracts/oapp/OAppReceiver.sol\":3507:3635  function nextNonce(uint32 /*_srcEid*/, bytes32 /*_sender*/) public view virtual returns (uint64 nonce) {... */\n    tag_12:\n      callvalue\n      dup1\n      iszero\n      tag_65\n      jumpi\n      0x00\n      dup1\n      revert\n    tag_65:\n      pop\n      tag_66\n      tag_67\n      calldatasize\n      0x04\n      tag_38\n      jump\t// in\n    tag_67:\n        /* \"@layerzerolabs/oapp-evm/contracts/oapp/OAppReceiver.sol\":3596:3608  uint64 nonce */\n      0x00\n        /* \"@layerzerolabs/oapp-evm/contracts/oapp/OAppReceiver.sol\":3507:3635  function nextNonce(uint32 /*_srcEid*/, bytes32 /*_sender*/) public view virtual returns (uint64 nonce) {... */\n      swap3\n      swap2\n      pop\n      pop\n      jump\n    tag_66:\n      mload(0x40)\n        /* \"#utility.yul\":4587:4605   */\n      0xffffffffffffffff\n        /* \"#utility.yul\":4575:4606   */\n      swap1\n      swap2\n      and\n        /* \"#utility.yul\":4557:4607   */\n      dup2\n      mstore\n        /* \"#utility.yul\":4545:4547   */\n      0x20\n        /* \"#utility.yul\":4530:4548   */\n      add\n        /* \"@layerzerolabs/oapp-evm/contracts/oapp/OAppReceiver.sol\":3507:3635  function nextNonce(uint32 /*_srcEid*/, bytes32 /*_sender*/) public view virtual returns (uint64 nonce) {... */\n      tag_33\n        /* \"#utility.yul\":4413:4613   */\n      jump\n        /* \"@layerzerolabs/oapp-evm/contracts/oapp/OAppReceiver.sol\":2013:2229  function isComposeMsgSender(... */\n    tag_13:\n      callvalue\n      dup1\n      iszero\n      tag_71\n      jumpi\n      0x00\n      dup1\n      revert\n    tag_71:\n      pop\n      tag_72\n      tag_73\n      calldatasize\n      0x04\n      tag_74\n      jump\t// in\n    tag_73:\n      sub(shl(0xa0, 0x01), 0x01)\n        /* \"@layerzerolabs/oapp-evm/contracts/oapp/OAppReceiver.sol\":2198:2222  _sender == address(this) */\n      dup2\n      and\n        /* \"@layerzerolabs/oapp-evm/contracts/oapp/OAppReceiver.sol\":2217:2221  this */\n      address\n        /* \"@layerzerolabs/oapp-evm/contracts/oapp/OAppReceiver.sol\":2198:2222  _sender == address(this) */\n      eq\n        /* \"@layerzerolabs/oapp-evm/contracts/oapp/OAppReceiver.sol\":2013:2229  function isComposeMsgSender(... */\n      swap5\n      swap4\n      pop\n      pop\n      pop\n      pop\n      jump\n    tag_72:\n      mload(0x40)\n        /* \"#utility.yul\":5456:5470   */\n      swap1\n      iszero\n        /* \"#utility.yul\":5449:5471   */\n      iszero\n        /* \"#utility.yul\":5431:5472   */\n      dup2\n      mstore\n        /* \"#utility.yul\":5419:5421   */\n      0x20\n        /* \"#utility.yul\":5404:5422   */\n      add\n        /* \"@layerzerolabs/oapp-evm/contracts/oapp/OAppReceiver.sol\":2013:2229  function isComposeMsgSender(... */\n      tag_33\n        /* \"#utility.yul\":5291:5478   */\n      jump\n        /* \"@openzeppelin/contracts/access/Ownable.sol\":1638:1723  function owner() public view virtual returns (address) {... */\n    tag_14:\n      callvalue\n      dup1\n      iszero\n      tag_78\n      jumpi\n      0x00\n      dup1\n      revert\n    tag_78:\n      pop\n        /* \"@openzeppelin/contracts/access/Ownable.sol\":1684:1691  address */\n      0x00\n        /* \"@openzeppelin/contracts/access/Ownable.sol\":1710:1716  _owner */\n      sload\n      sub(shl(0xa0, 0x01), 0x01)\n      and\n        /* \"@openzeppelin/contracts/access/Ownable.sol\":1638:1723  function owner() public view virtual returns (address) {... */\n      jump(tag_54)\n        /* \"@layerzerolabs/oapp-evm/contracts/oapp/OAppCore.sol\":569:617  mapping(uint32 eid => bytes32 peer) public peers */\n    tag_15:\n      callvalue\n      dup1\n      iszero\n      tag_83\n      jumpi\n      0x00\n      dup1\n      revert\n    tag_83:\n      pop\n      tag_49\n      tag_85\n      calldatasize\n      0x04\n      tag_86\n      jump\t// in\n    tag_85:\n      mstore(0x20, 0x01)\n      0x00\n      swap1\n      dup2\n      mstore\n      0x40\n      swap1\n      keccak256\n      sload\n      dup2\n      jump\n        /* \"Arbitrum_sender.sol\":957:1003  mapping(uint256 => string) public sentMessages */\n    tag_16:\n      callvalue\n      dup1\n      iszero\n      tag_90\n      jumpi\n      0x00\n      dup1\n      revert\n    tag_90:\n      pop\n      tag_44\n      tag_92\n      calldatasize\n      0x04\n      tag_93\n      jump\t// in\n    tag_92:\n      tag_94\n      jump\t// in\n        /* \"@layerzerolabs/oapp-evm/contracts/oapp/OAppCore.sol\":3252:3357  function setDelegate(address _delegate) public onlyOwner {... */\n    tag_17:\n      callvalue\n      dup1\n      iszero\n      tag_96\n      jumpi\n      0x00\n      dup1\n      revert\n    tag_96:\n      pop\n      tag_26\n      tag_98\n      calldatasize\n      0x04\n      tag_99\n      jump\t// in\n    tag_98:\n      tag_100\n      jump\t// in\n        /* \"@openzeppelin/contracts/access/Ownable.sol\":2543:2758  function transferOwnership(address newOwner) public virtual onlyOwner {... */\n    tag_18:\n      callvalue\n      dup1\n      iszero\n      tag_101\n      jumpi\n      0x00\n      dup1\n      revert\n    tag_101:\n      pop\n      tag_26\n      tag_103\n      calldatasize\n      0x04\n      tag_99\n      jump\t// in\n    tag_103:\n      tag_104\n      jump\t// in\n        /* \"Arbitrum_sender.sol\":2553:2879  function quote(... */\n    tag_19:\n      callvalue\n      dup1\n      iszero\n      tag_105\n      jumpi\n      0x00\n      dup1\n      revert\n    tag_105:\n      pop\n      tag_106\n      tag_107\n      calldatasize\n      0x04\n      tag_108\n      jump\t// in\n    tag_107:\n      tag_109\n      jump\t// in\n    tag_106:\n      0x40\n      dup1\n      mload\n        /* \"#utility.yul\":7694:7707   */\n      dup3\n      mload\n        /* \"#utility.yul\":7676:7708   */\n      dup2\n      mstore\n        /* \"#utility.yul\":7764:7768   */\n      0x20\n        /* \"#utility.yul\":7752:7769   */\n      swap3\n      dup4\n      add\n        /* \"#utility.yul\":7746:7770   */\n      mload\n        /* \"#utility.yul\":7724:7744   */\n      swap3\n      dup2\n      add\n        /* \"#utility.yul\":7717:7771   */\n      swap3\n      swap1\n      swap3\n      mstore\n        /* \"#utility.yul\":7649:7667   */\n      add\n        /* \"Arbitrum_sender.sol\":2553:2879  function quote(... */\n      tag_33\n        /* \"#utility.yul\":7474:7777   */\n      jump\n        /* \"@layerzerolabs/oapp-evm/contracts/oapp/OAppReceiver.sol\":2771:2920  function allowInitializePath(Origin calldata origin) public view virtual returns (bool) {... */\n    tag_20:\n      callvalue\n      dup1\n      iszero\n      tag_112\n      jumpi\n      0x00\n      dup1\n      revert\n    tag_112:\n      pop\n      tag_72\n      tag_114\n      calldatasize\n      0x04\n      tag_115\n      jump\t// in\n    tag_114:\n      tag_116\n      jump\t// in\n        /* \"@layerzerolabs/oapp-evm/contracts/oapp/OAppReceiver.sol\":4368:5076  function lzReceive(... */\n    tag_29:\n        /* \"@layerzerolabs/oapp-evm/contracts/oapp/OAppReceiver.sol\":4681:4689  endpoint */\n      immutable(\"0xef80077fd7ee005d1b0377e3e959eb59d0ca83c4839422f862a3540a66a91fb5\")\n      sub(shl(0xa0, 0x01), 0x01)\n        /* \"@layerzerolabs/oapp-evm/contracts/oapp/OAppReceiver.sol\":4673:4704  address(endpoint) != msg.sender */\n      and\n        /* \"@layerzerolabs/oapp-evm/contracts/oapp/OAppReceiver.sol\":4694:4704  msg.sender */\n      caller\n        /* \"@layerzerolabs/oapp-evm/contracts/oapp/OAppReceiver.sol\":4673:4704  address(endpoint) != msg.sender */\n      eq\n        /* \"@layerzerolabs/oapp-evm/contracts/oapp/OAppReceiver.sol\":4669:4737  if (address(endpoint) != msg.sender) revert OnlyEndpoint(msg.sender) */\n      tag_119\n      jumpi\n        /* \"@layerzerolabs/oapp-evm/contracts/oapp/OAppReceiver.sol\":4713:4737  OnlyEndpoint(msg.sender) */\n      mload(0x40)\n      shl(0xe0, 0x91ac5e4f)\n      dup2\n      mstore\n        /* \"@layerzerolabs/oapp-evm/contracts/oapp/OAppReceiver.sol\":4726:4736  msg.sender */\n      caller\n        /* \"@layerzerolabs/oapp-evm/contracts/oapp/OAppReceiver.sol\":4713:4737  OnlyEndpoint(msg.sender) */\n      0x04\n      dup3\n      add\n        /* \"#utility.yul\":3538:3612   */\n      mstore\n        /* \"#utility.yul\":3511:3529   */\n      0x24\n      add\n        /* \"@layerzerolabs/oapp-evm/contracts/oapp/OAppReceiver.sol\":4713:4737  OnlyEndpoint(msg.sender) */\n    tag_120:\n      mload(0x40)\n      dup1\n      swap2\n      sub\n      swap1\n      revert\n        /* \"@layerzerolabs/oapp-evm/contracts/oapp/OAppReceiver.sol\":4669:4737  if (address(endpoint) != msg.sender) revert OnlyEndpoint(msg.sender) */\n    tag_119:\n        /* \"@layerzerolabs/oapp-evm/contracts/oapp/OAppReceiver.sol\":4873:4887  _origin.sender */\n      0x20\n      dup8\n      add\n      dup1\n      calldataload\n      swap1\n        /* \"@layerzerolabs/oapp-evm/contracts/oapp/OAppReceiver.sol\":4837:4869  _getPeerOrRevert(_origin.srcEid) */\n      tag_121\n      swap1\n        /* \"@layerzerolabs/oapp-evm/contracts/oapp/OAppReceiver.sol\":4854:4868  _origin.srcEid */\n      tag_122\n      swap1\n        /* \"@layerzerolabs/oapp-evm/contracts/oapp/OAppReceiver.sol\":4873:4880  _origin */\n      dup11\n        /* \"@layerzerolabs/oapp-evm/contracts/oapp/OAppReceiver.sol\":4854:4868  _origin.srcEid */\n      tag_86\n      jump\t// in\n    tag_122:\n        /* \"@layerzerolabs/oapp-evm/contracts/oapp/OAppReceiver.sol\":4837:4853  _getPeerOrRevert */\n      tag_123\n        /* \"@layerzerolabs/oapp-evm/contracts/oapp/OAppReceiver.sol\":4837:4869  _getPeerOrRevert(_origin.srcEid) */\n      jump\t// in\n    tag_121:\n        /* \"@layerzerolabs/oapp-evm/contracts/oapp/OAppReceiver.sol\":4837:4887  _getPeerOrRevert(_origin.srcEid) != _origin.sender */\n      eq\n        /* \"@layerzerolabs/oapp-evm/contracts/oapp/OAppReceiver.sol\":4833:4936  if (_getPeerOrRevert(_origin.srcEid) != _origin.sender) revert OnlyPeer(_origin.srcEid, _origin.sender) */\n      tag_124\n      jumpi\n        /* \"@layerzerolabs/oapp-evm/contracts/oapp/OAppReceiver.sol\":4905:4919  _origin.srcEid */\n      tag_125\n      0x20\n      dup9\n      add\n        /* \"@layerzerolabs/oapp-evm/contracts/oapp/OAppReceiver.sol\":4905:4912  _origin */\n      dup9\n        /* \"@layerzerolabs/oapp-evm/contracts/oapp/OAppReceiver.sol\":4905:4919  _origin.srcEid */\n      tag_86\n      jump\t// in\n    tag_125:\n        /* \"@layerzerolabs/oapp-evm/contracts/oapp/OAppReceiver.sol\":4896:4936  OnlyPeer(_origin.srcEid, _origin.sender) */\n      mload(0x40)\n      shl(0xe2, 0x309afaf3)\n      dup2\n      mstore\n        /* \"#utility.yul\":8223:8233   */\n      0xffffffff\n        /* \"#utility.yul\":8211:8234   */\n      swap1\n      swap2\n      and\n        /* \"@layerzerolabs/oapp-evm/contracts/oapp/OAppReceiver.sol\":4896:4936  OnlyPeer(_origin.srcEid, _origin.sender) */\n      0x04\n      dup3\n      add\n        /* \"#utility.yul\":8193:8235   */\n      mstore\n        /* \"@layerzerolabs/oapp-evm/contracts/oapp/OAppReceiver.sol\":4921:4935  _origin.sender */\n      0x20\n      dup9\n      add\n      calldataload\n        /* \"#utility.yul\":8251:8269   */\n      0x24\n      dup3\n      add\n        /* \"#utility.yul\":8244:8278   */\n      mstore\n        /* \"#utility.yul\":8166:8184   */\n      0x44\n      add\n        /* \"@layerzerolabs/oapp-evm/contracts/oapp/OAppReceiver.sol\":4896:4936  OnlyPeer(_origin.srcEid, _origin.sender) */\n      tag_120\n        /* \"#utility.yul\":8021:8284   */\n      jump\n        /* \"@layerzerolabs/oapp-evm/contracts/oapp/OAppReceiver.sol\":4833:4936  if (_getPeerOrRevert(_origin.srcEid) != _origin.sender) revert OnlyPeer(_origin.srcEid, _origin.sender) */\n    tag_124:\n        /* \"@layerzerolabs/oapp-evm/contracts/oapp/OAppReceiver.sol\":5010:5069  _lzReceive(_origin, _guid, _message, _executor, _extraData) */\n      tag_128\n        /* \"@layerzerolabs/oapp-evm/contracts/oapp/OAppReceiver.sol\":5021:5028  _origin */\n      dup8\n        /* \"@layerzerolabs/oapp-evm/contracts/oapp/OAppReceiver.sol\":5030:5035  _guid */\n      dup8\n        /* \"@layerzerolabs/oapp-evm/contracts/oapp/OAppReceiver.sol\":5037:5045  _message */\n      dup8\n      dup8\n        /* \"@layerzerolabs/oapp-evm/contracts/oapp/OAppReceiver.sol\":5047:5056  _executor */\n      dup8\n        /* \"@layerzerolabs/oapp-evm/contracts/oapp/OAppReceiver.sol\":5058:5068  _extraData */\n      dup8\n      dup8\n        /* \"@layerzerolabs/oapp-evm/contracts/oapp/OAppReceiver.sol\":5010:5020  _lzReceive */\n      tag_129\n        /* \"@layerzerolabs/oapp-evm/contracts/oapp/OAppReceiver.sol\":5010:5069  _lzReceive(_origin, _guid, _message, _executor, _extraData) */\n      jump\t// in\n    tag_128:\n        /* \"@layerzerolabs/oapp-evm/contracts/oapp/OAppReceiver.sol\":4368:5076  function lzReceive(... */\n      pop\n      pop\n      pop\n      pop\n      pop\n      pop\n      pop\n      jump\t// out\n        /* \"@layerzerolabs/oapp-evm/contracts/oapp/OAppCore.sol\":1724:1832  function setPeer(uint32 _eid, bytes32 _peer) public virtual onlyOwner {... */\n    tag_39:\n        /* \"@openzeppelin/contracts/access/Ownable.sol\":1531:1544  _checkOwner() */\n      tag_132\n        /* \"@openzeppelin/contracts/access/Ownable.sol\":1531:1542  _checkOwner */\n      tag_133\n        /* \"@openzeppelin/contracts/access/Ownable.sol\":1531:1544  _checkOwner() */\n      jump\t// in\n    tag_132:\n        /* \"@layerzerolabs/oapp-evm/contracts/oapp/OAppCore.sol\":1804:1825  _setPeer(_eid, _peer) */\n      tag_135\n        /* \"@layerzerolabs/oapp-evm/contracts/oapp/OAppCore.sol\":1813:1817  _eid */\n      dup3\n        /* \"@layerzerolabs/oapp-evm/contracts/oapp/OAppCore.sol\":1819:1824  _peer */\n      dup3\n        /* \"@layerzerolabs/oapp-evm/contracts/oapp/OAppCore.sol\":1804:1812  _setPeer */\n      tag_136\n        /* \"@layerzerolabs/oapp-evm/contracts/oapp/OAppCore.sol\":1804:1825  _setPeer(_eid, _peer) */\n      jump\t// in\n    tag_135:\n        /* \"@layerzerolabs/oapp-evm/contracts/oapp/OAppCore.sol\":1724:1832  function setPeer(uint32 _eid, bytes32 _peer) public virtual onlyOwner {... */\n      pop\n      pop\n      jump\t// out\n        /* \"Arbitrum_sender.sol\":3929:4124  function withdraw() external onlyOwner {... */\n    tag_42:\n        /* \"@openzeppelin/contracts/access/Ownable.sol\":1531:1544  _checkOwner() */\n      tag_138\n        /* \"@openzeppelin/contracts/access/Ownable.sol\":1531:1542  _checkOwner */\n      tag_133\n        /* \"@openzeppelin/contracts/access/Ownable.sol\":1531:1544  _checkOwner() */\n      jump\t// in\n    tag_138:\n        /* \"Arbitrum_sender.sol\":3996:4017  address(this).balance */\n      selfbalance\n        /* \"Arbitrum_sender.sol\":4035:4046  balance > 0 */\n      dup1\n        /* \"Arbitrum_sender.sol\":4027:4073  require(balance > 0, \"No balance to withdraw\") */\n      tag_140\n      jumpi\n      mload(0x40)\n      shl(0xe5, 0x461bcd)\n      dup2\n      mstore\n        /* \"#utility.yul\":8491:8493   */\n      0x20\n        /* \"Arbitrum_sender.sol\":4027:4073  require(balance > 0, \"No balance to withdraw\") */\n      0x04\n      dup3\n      add\n        /* \"#utility.yul\":8473:8494   */\n      mstore\n        /* \"#utility.yul\":8530:8532   */\n      0x16\n        /* \"#utility.yul\":8510:8528   */\n      0x24\n      dup3\n      add\n        /* \"#utility.yul\":8503:8533   */\n      mstore\n        /* \"#utility.yul\":8569:8593   */\n      0x4e6f2062616c616e636520746f20776974686472617700000000000000000000\n        /* \"#utility.yul\":8549:8567   */\n      0x44\n      dup3\n      add\n        /* \"#utility.yul\":8542:8594   */\n      mstore\n        /* \"#utility.yul\":8611:8629   */\n      0x64\n      add\n        /* \"Arbitrum_sender.sol\":4027:4073  require(balance > 0, \"No balance to withdraw\") */\n      tag_120\n        /* \"#utility.yul\":8289:8635   */\n      jump\n        /* \"Arbitrum_sender.sol\":4027:4073  require(balance > 0, \"No balance to withdraw\") */\n    tag_140:\n        /* \"@openzeppelin/contracts/access/Ownable.sol\":1684:1691  address */\n      0x00\n        /* \"@openzeppelin/contracts/access/Ownable.sol\":1710:1716  _owner */\n      dup1\n      sload\n        /* \"Arbitrum_sender.sol\":4083:4117  payable(owner()).transfer(balance) */\n      mload(0x40)\n      sub(shl(0xa0, 0x01), 0x01)\n        /* \"@openzeppelin/contracts/access/Ownable.sol\":1710:1716  _owner */\n      swap1\n      swap2\n      and\n      swap2\n        /* \"Arbitrum_sender.sol\":4083:4117  payable(owner()).transfer(balance) */\n      dup4\n      iszero\n      0x08fc\n      mul\n      swap2\n        /* \"Arbitrum_sender.sol\":4109:4116  balance */\n      dup5\n      swap2\n        /* \"Arbitrum_sender.sol\":4083:4117  payable(owner()).transfer(balance) */\n      dup2\n        /* \"@openzeppelin/contracts/access/Ownable.sol\":1684:1691  address */\n      dup2\n        /* \"Arbitrum_sender.sol\":4083:4117  payable(owner()).transfer(balance) */\n      dup2\n        /* \"Arbitrum_sender.sol\":4109:4116  balance */\n      dup6\n        /* \"@openzeppelin/contracts/access/Ownable.sol\":1710:1716  _owner */\n      dup9\n        /* \"Arbitrum_sender.sol\":4083:4117  payable(owner()).transfer(balance) */\n      dup9\n      call\n      swap4\n      pop\n      pop\n      pop\n      pop\n      iszero\n      dup1\n      iszero\n      tag_135\n      jumpi\n      returndatasize\n      0x00\n      dup1\n      returndatacopy\n      revert(0x00, returndatasize)\n        /* \"Arbitrum_sender.sol\":3679:3856  function getLastSentMessage() external view returns (string memory) {... */\n    tag_45:\n        /* \"Arbitrum_sender.sol\":3732:3745  string memory */\n      0x60\n        /* \"Arbitrum_sender.sol\":3782:3783  0 */\n      0x00\n        /* \"Arbitrum_sender.sol\":3765:3779  messageCounter */\n      sload(0x02)\n        /* \"Arbitrum_sender.sol\":3765:3783  messageCounter > 0 */\n      gt\n        /* \"Arbitrum_sender.sol\":3757:3804  require(messageCounter > 0, \"No messages sent\") */\n      tag_147\n      jumpi\n      mload(0x40)\n      shl(0xe5, 0x461bcd)\n      dup2\n      mstore\n        /* \"#utility.yul\":8842:8844   */\n      0x20\n        /* \"Arbitrum_sender.sol\":3757:3804  require(messageCounter > 0, \"No messages sent\") */\n      0x04\n      dup3\n      add\n        /* \"#utility.yul\":8824:8845   */\n      mstore\n        /* \"#utility.yul\":8881:8883   */\n      0x10\n        /* \"#utility.yul\":8861:8879   */\n      0x24\n      dup3\n      add\n        /* \"#utility.yul\":8854:8884   */\n      mstore\n      shl(0x82, 0x139bc81b595cdcd859d95cc81cd95b9d)\n        /* \"#utility.yul\":8900:8918   */\n      0x44\n      dup3\n      add\n        /* \"#utility.yul\":8893:8939   */\n      mstore\n        /* \"#utility.yul\":8956:8974   */\n      0x64\n      add\n        /* \"Arbitrum_sender.sol\":3757:3804  require(messageCounter > 0, \"No messages sent\") */\n      tag_120\n        /* \"#utility.yul\":8640:8980   */\n      jump\n        /* \"Arbitrum_sender.sol\":3757:3804  require(messageCounter > 0, \"No messages sent\") */\n    tag_147:\n        /* \"Arbitrum_sender.sol\":3834:3848  messageCounter */\n      sload(0x02)\n        /* \"Arbitrum_sender.sol\":3821:3849  sentMessages[messageCounter] */\n      0x00\n      swap1\n      dup2\n      mstore\n        /* \"Arbitrum_sender.sol\":3821:3833  sentMessages */\n      0x03\n        /* \"Arbitrum_sender.sol\":3821:3849  sentMessages[messageCounter] */\n      0x20\n      mstore\n      0x40\n      swap1\n      keccak256\n        /* \"Arbitrum_sender.sol\":3814:3849  return sentMessages[messageCounter] */\n      dup1\n      sload\n      tag_150\n      swap1\n      tag_151\n      jump\t// in\n    tag_150:\n      dup1\n      0x1f\n      add\n      0x20\n      dup1\n      swap2\n      div\n      mul\n      0x20\n      add\n      mload(0x40)\n      swap1\n      dup2\n      add\n      0x40\n      mstore\n      dup1\n      swap3\n      swap2\n      swap1\n      dup2\n      dup2\n      mstore\n      0x20\n      add\n      dup3\n      dup1\n      sload\n      tag_152\n      swap1\n      tag_151\n      jump\t// in\n    tag_152:\n      dup1\n      iszero\n      tag_153\n      jumpi\n      dup1\n      0x1f\n      lt\n      tag_154\n      jumpi\n      0x0100\n      dup1\n      dup4\n      sload\n      div\n      mul\n      dup4\n      mstore\n      swap2\n      0x20\n      add\n      swap2\n      jump(tag_153)\n    tag_154:\n      dup3\n      add\n      swap2\n      swap1\n      0x00\n      mstore\n      keccak256(0x00, 0x20)\n      swap1\n    tag_155:\n      dup2\n      sload\n      dup2\n      mstore\n      swap1\n      0x01\n      add\n      swap1\n      0x20\n      add\n      dup1\n      dup4\n      gt\n      tag_155\n      jumpi\n      dup3\n      swap1\n      sub\n      0x1f\n      and\n      dup3\n      add\n      swap2\n    tag_153:\n      pop\n      pop\n      pop\n      pop\n      pop\n      swap1\n      pop\n        /* \"Arbitrum_sender.sol\":3679:3856  function getLastSentMessage() external view returns (string memory) {... */\n      swap1\n      jump\t// out\n        /* \"@openzeppelin/contracts/access/Ownable.sol\":2293:2394  function renounceOwnership() public virtual onlyOwner {... */\n    tag_60:\n        /* \"@openzeppelin/contracts/access/Ownable.sol\":1531:1544  _checkOwner() */\n      tag_157\n        /* \"@openzeppelin/contracts/access/Ownable.sol\":1531:1542  _checkOwner */\n      tag_133\n        /* \"@openzeppelin/contracts/access/Ownable.sol\":1531:1544  _checkOwner() */\n      jump\t// in\n    tag_157:\n        /* \"@openzeppelin/contracts/access/Ownable.sol\":2357:2387  _transferOwnership(address(0)) */\n      tag_159\n        /* \"@openzeppelin/contracts/access/Ownable.sol\":2384:2385  0 */\n      0x00\n        /* \"@openzeppelin/contracts/access/Ownable.sol\":2357:2375  _transferOwnership */\n      tag_160\n        /* \"@openzeppelin/contracts/access/Ownable.sol\":2357:2387  _transferOwnership(address(0)) */\n      jump\t// in\n    tag_159:\n        /* \"@openzeppelin/contracts/access/Ownable.sol\":2293:2394  function renounceOwnership() public virtual onlyOwner {... */\n      jump\t// out\n        /* \"Arbitrum_sender.sol\":1392:2239  function sendMessage(... */\n    tag_64:\n        /* \"Arbitrum_sender.sol\":1567:1588  bytes memory _payload */\n      0x00\n        /* \"Arbitrum_sender.sol\":1602:1610  _message */\n      dup5\n      dup5\n        /* \"Arbitrum_sender.sol\":1612:1622  msg.sender */\n      caller\n        /* \"Arbitrum_sender.sol\":1591:1623  abi.encode(_message, msg.sender) */\n      add(0x20, mload(0x40))\n      tag_162\n      swap4\n      swap3\n      swap2\n      swap1\n      tag_163\n      jump\t// in\n    tag_162:\n      0x40\n      dup1\n      mload\n      not(0x1f)\n      dup2\n      dup5\n      sub\n      add\n      dup2\n      mstore\n      0x20\n        /* \"Arbitrum_sender.sol\":1703:1745  _quote(_dstEid, _payload, _options, false) */\n      0x1f\n      dup7\n      add\n      dup2\n      swap1\n      div\n      dup2\n      mul\n      dup5\n      add\n      dup2\n      add\n      swap1\n      swap3\n      mstore\n      dup5\n      dup4\n      mstore\n        /* \"Arbitrum_sender.sol\":1591:1623  abi.encode(_message, msg.sender) */\n      swap3\n      pop\n        /* \"Arbitrum_sender.sol\":1677:1700  MessagingFee memory fee */\n      0x00\n      swap2\n        /* \"Arbitrum_sender.sol\":1703:1745  _quote(_dstEid, _payload, _options, false) */\n      tag_164\n      swap2\n        /* \"Arbitrum_sender.sol\":1710:1717  _dstEid */\n      dup10\n      swap2\n        /* \"Arbitrum_sender.sol\":1591:1623  abi.encode(_message, msg.sender) */\n      dup6\n      swap2\n        /* \"Arbitrum_sender.sol\":1729:1737  _options */\n      dup9\n      swap1\n      dup9\n      swap1\n      dup2\n      swap1\n        /* \"Arbitrum_sender.sol\":1703:1745  _quote(_dstEid, _payload, _options, false) */\n      dup5\n      add\n        /* \"Arbitrum_sender.sol\":1729:1737  _options */\n      dup4\n      dup3\n      dup1\n      dup3\n        /* \"Arbitrum_sender.sol\":1703:1745  _quote(_dstEid, _payload, _options, false) */\n      dup5\n      calldatacopy\n      0x00\n      swap3\n      add\n      dup3\n      swap1\n      mstore\n      pop\n      swap3\n      pop\n        /* \"Arbitrum_sender.sol\":1703:1709  _quote */\n      tag_165\n      swap2\n      pop\n      pop\n        /* \"Arbitrum_sender.sol\":1703:1745  _quote(_dstEid, _payload, _options, false) */\n      jump\t// in\n    tag_164:\n        /* \"Arbitrum_sender.sol\":1785:1798  fee.nativeFee */\n      dup1\n      mload\n        /* \"Arbitrum_sender.sol\":1677:1745  MessagingFee memory fee = _quote(_dstEid, _payload, _options, false) */\n      swap1\n      swap2\n      pop\n        /* \"Arbitrum_sender.sol\":1772:1781  msg.value */\n      callvalue\n        /* \"Arbitrum_sender.sol\":1772:1798  msg.value >= fee.nativeFee */\n      lt\n      iszero\n        /* \"Arbitrum_sender.sol\":1764:1819  require(msg.value >= fee.nativeFee, \"Insufficient fee\") */\n      tag_166\n      jumpi\n      mload(0x40)\n      shl(0xe5, 0x461bcd)\n      dup2\n      mstore\n        /* \"#utility.yul\":10216:10218   */\n      0x20\n        /* \"Arbitrum_sender.sol\":1764:1819  require(msg.value >= fee.nativeFee, \"Insufficient fee\") */\n      0x04\n      dup3\n      add\n        /* \"#utility.yul\":10198:10219   */\n      mstore\n        /* \"#utility.yul\":10255:10257   */\n      0x10\n        /* \"#utility.yul\":10235:10253   */\n      0x24\n      dup3\n      add\n        /* \"#utility.yul\":10228:10258   */\n      mstore\n      shl(0x80, 0x496e73756666696369656e7420666565)\n        /* \"#utility.yul\":10274:10292   */\n      0x44\n      dup3\n      add\n        /* \"#utility.yul\":10267:10313   */\n      mstore\n        /* \"#utility.yul\":10330:10348   */\n      0x64\n      add\n        /* \"Arbitrum_sender.sol\":1764:1819  require(msg.value >= fee.nativeFee, \"Insufficient fee\") */\n      tag_120\n        /* \"#utility.yul\":10014:10354   */\n      jump\n        /* \"Arbitrum_sender.sol\":1764:1819  require(msg.value >= fee.nativeFee, \"Insufficient fee\") */\n    tag_166:\n        /* \"Arbitrum_sender.sol\":1858:1889  MessagingReceipt memory receipt */\n      0x00\n        /* \"Arbitrum_sender.sol\":1892:2047  _lzSend(... */\n      tag_169\n        /* \"Arbitrum_sender.sol\":1913:1920  _dstEid */\n      dup9\n        /* \"Arbitrum_sender.sol\":1934:1942  _payload */\n      dup5\n        /* \"Arbitrum_sender.sol\":1956:1964  _options */\n      dup8\n      dup8\n        /* \"Arbitrum_sender.sol\":1892:2047  _lzSend(... */\n      dup1\n      dup1\n      0x1f\n      add\n      0x20\n      dup1\n      swap2\n      div\n      mul\n      0x20\n      add\n      mload(0x40)\n      swap1\n      dup2\n      add\n      0x40\n      mstore\n      dup1\n      swap4\n      swap3\n      swap2\n      swap1\n      dup2\n      dup2\n      mstore\n      0x20\n      add\n      dup4\n      dup4\n      dup1\n      dup3\n      dup5\n      calldatacopy\n      0x00\n      swap3\n      add\n      dup3\n      swap1\n      mstore\n      pop\n        /* \"Arbitrum_sender.sol\":1978:2004  MessagingFee(msg.value, 0) */\n      0x40\n      dup1\n      mload\n      dup1\n      dup3\n      add\n      swap1\n      swap2\n      mstore\n        /* \"Arbitrum_sender.sol\":1991:2000  msg.value */\n      callvalue\n        /* \"Arbitrum_sender.sol\":1978:2004  MessagingFee(msg.value, 0) */\n      dup2\n      mstore\n      0x20\n      dup2\n      add\n      swap2\n      swap1\n      swap2\n      mstore\n      swap3\n      pop\n        /* \"Arbitrum_sender.sol\":2026:2036  msg.sender */\n      caller\n      swap2\n      pop\n        /* \"Arbitrum_sender.sol\":1892:1899  _lzSend */\n      tag_170\n      swap1\n      pop\n        /* \"Arbitrum_sender.sol\":1892:2047  _lzSend(... */\n      jump\t// in\n    tag_169:\n        /* \"Arbitrum_sender.sol\":2092:2106  messageCounter */\n      0x02\n        /* \"Arbitrum_sender.sol\":2092:2108  messageCounter++ */\n      dup1\n      sload\n        /* \"Arbitrum_sender.sol\":1858:2047  MessagingReceipt memory receipt = _lzSend(... */\n      swap2\n      swap3\n      pop\n        /* \"Arbitrum_sender.sol\":2092:2106  messageCounter */\n      0x00\n        /* \"Arbitrum_sender.sol\":2092:2108  messageCounter++ */\n      tag_171\n      dup4\n      tag_172\n      jump\t// in\n    tag_171:\n      swap1\n      swap2\n      sstore\n      pop\n      pop\n        /* \"Arbitrum_sender.sol\":2131:2145  messageCounter */\n      sload(0x02)\n        /* \"Arbitrum_sender.sol\":2118:2146  sentMessages[messageCounter] */\n      0x00\n      swap1\n      dup2\n      mstore\n        /* \"Arbitrum_sender.sol\":2118:2130  sentMessages */\n      0x03\n        /* \"Arbitrum_sender.sol\":2118:2146  sentMessages[messageCounter] */\n      0x20\n      mstore\n      0x40\n      swap1\n      keccak256\n        /* \"Arbitrum_sender.sol\":2118:2157  sentMessages[messageCounter] = _message */\n      tag_173\n        /* \"Arbitrum_sender.sol\":2149:2157  _message */\n      dup8\n      dup10\n        /* \"Arbitrum_sender.sol\":2118:2146  sentMessages[messageCounter] */\n      dup4\n        /* \"Arbitrum_sender.sol\":2118:2157  sentMessages[messageCounter] = _message */\n      tag_174\n      jump\t// in\n    tag_173:\n      pop\n        /* \"Arbitrum_sender.sol\":2194:2206  receipt.guid */\n      dup1\n      mload\n        /* \"Arbitrum_sender.sol\":2218:2231  fee.nativeFee */\n      dup3\n      mload\n        /* \"Arbitrum_sender.sol\":2173:2232  MessageSent(_dstEid, receipt.guid, _message, fee.nativeFee) */\n      mload(0x40)\n      0xffffffff\n      dup12\n      and\n      swap2\n      0x3aee2e9f3d248dc7e0f1a5564e3bacc5c9bd7c31967d06b5c277e1a0767a6a12\n      swap2\n      tag_175\n      swap2\n        /* \"Arbitrum_sender.sol\":2208:2216  _message */\n      dup13\n      swap2\n      dup13\n      swap2\n        /* \"Arbitrum_sender.sol\":2218:2231  fee.nativeFee */\n      swap1\n        /* \"Arbitrum_sender.sol\":2173:2232  MessageSent(_dstEid, receipt.guid, _message, fee.nativeFee) */\n      tag_176\n      jump\t// in\n    tag_175:\n      mload(0x40)\n      dup1\n      swap2\n      sub\n      swap1\n      log3\n        /* \"Arbitrum_sender.sol\":1527:2239  {... */\n      pop\n      pop\n      pop\n        /* \"Arbitrum_sender.sol\":1392:2239  function sendMessage(... */\n      pop\n      pop\n      pop\n      pop\n      pop\n      jump\t// out\n        /* \"Arbitrum_sender.sol\":957:1003  mapping(uint256 => string) public sentMessages */\n    tag_94:\n      mstore(0x20, 0x03)\n      0x00\n      swap1\n      dup2\n      mstore\n      0x40\n      swap1\n      keccak256\n      dup1\n      sload\n      tag_180\n      swap1\n      tag_151\n      jump\t// in\n    tag_180:\n      dup1\n      0x1f\n      add\n      0x20\n      dup1\n      swap2\n      div\n      mul\n      0x20\n      add\n      mload(0x40)\n      swap1\n      dup2\n      add\n      0x40\n      mstore\n      dup1\n      swap3\n      swap2\n      swap1\n      dup2\n      dup2\n      mstore\n      0x20\n      add\n      dup3\n      dup1\n      sload\n      tag_181\n      swap1\n      tag_151\n      jump\t// in\n    tag_181:\n      dup1\n      iszero\n      tag_182\n      jumpi\n      dup1\n      0x1f\n      lt\n      tag_183\n      jumpi\n      0x0100\n      dup1\n      dup4\n      sload\n      div\n      mul\n      dup4\n      mstore\n      swap2\n      0x20\n      add\n      swap2\n      jump(tag_182)\n    tag_183:\n      dup3\n      add\n      swap2\n      swap1\n      0x00\n      mstore\n      keccak256(0x00, 0x20)\n      swap1\n    tag_184:\n      dup2\n      sload\n      dup2\n      mstore\n      swap1\n      0x01\n      add\n      swap1\n      0x20\n      add\n      dup1\n      dup4\n      gt\n      tag_184\n      jumpi\n      dup3\n      swap1\n      sub\n      0x1f\n      and\n      dup3\n      add\n      swap2\n    tag_182:\n      pop\n      pop\n      pop\n      pop\n      pop\n      dup2\n      jump\t// out\n        /* \"@layerzerolabs/oapp-evm/contracts/oapp/OAppCore.sol\":3252:3357  function setDelegate(address _delegate) public onlyOwner {... */\n    tag_100:\n        /* \"@openzeppelin/contracts/access/Ownable.sol\":1531:1544  _checkOwner() */\n      tag_186\n        /* \"@openzeppelin/contracts/access/Ownable.sol\":1531:1542  _checkOwner */\n      tag_133\n        /* \"@openzeppelin/contracts/access/Ownable.sol\":1531:1544  _checkOwner() */\n      jump\t// in\n    tag_186:\n        /* \"@layerzerolabs/oapp-evm/contracts/oapp/OAppCore.sol\":3319:3350  endpoint.setDelegate(_delegate) */\n      mload(0x40)\n      shl(0xe0, 0xca5eb5e1)\n      dup2\n      mstore\n      sub(shl(0xa0, 0x01), 0x01)\n        /* \"#utility.yul\":3556:3611   */\n      dup3\n      dup2\n      and\n        /* \"@layerzerolabs/oapp-evm/contracts/oapp/OAppCore.sol\":3319:3350  endpoint.setDelegate(_delegate) */\n      0x04\n      dup4\n      add\n        /* \"#utility.yul\":3538:3612   */\n      mstore\n        /* \"@layerzerolabs/oapp-evm/contracts/oapp/OAppCore.sol\":3319:3327  endpoint */\n      immutable(\"0xef80077fd7ee005d1b0377e3e959eb59d0ca83c4839422f862a3540a66a91fb5\")\n        /* \"@layerzerolabs/oapp-evm/contracts/oapp/OAppCore.sol\":3319:3339  endpoint.setDelegate */\n      and\n      swap1\n      0xca5eb5e1\n      swap1\n        /* \"#utility.yul\":3511:3529   */\n      0x24\n      add\n        /* \"@layerzerolabs/oapp-evm/contracts/oapp/OAppCore.sol\":3319:3350  endpoint.setDelegate(_delegate) */\n      0x00\n      mload(0x40)\n      dup1\n      dup4\n      sub\n      dup2\n      0x00\n      dup8\n      dup1\n      extcodesize\n      iszero\n      dup1\n      iszero\n      tag_189\n      jumpi\n      0x00\n      dup1\n      revert\n    tag_189:\n      pop\n      gas\n      call\n      iszero\n      dup1\n      iszero\n      tag_191\n      jumpi\n      returndatasize\n      0x00\n      dup1\n      returndatacopy\n      revert(0x00, returndatasize)\n    tag_191:\n      pop\n      pop\n      pop\n      pop\n        /* \"@layerzerolabs/oapp-evm/contracts/oapp/OAppCore.sol\":3252:3357  function setDelegate(address _delegate) public onlyOwner {... */\n      pop\n      jump\t// out\n        /* \"@openzeppelin/contracts/access/Ownable.sol\":2543:2758  function transferOwnership(address newOwner) public virtual onlyOwner {... */\n    tag_104:\n        /* \"@openzeppelin/contracts/access/Ownable.sol\":1531:1544  _checkOwner() */\n      tag_193\n        /* \"@openzeppelin/contracts/access/Ownable.sol\":1531:1542  _checkOwner */\n      tag_133\n        /* \"@openzeppelin/contracts/access/Ownable.sol\":1531:1544  _checkOwner() */\n      jump\t// in\n    tag_193:\n      sub(shl(0xa0, 0x01), 0x01)\n        /* \"@openzeppelin/contracts/access/Ownable.sol\":2627:2649  newOwner == address(0) */\n      dup2\n      and\n        /* \"@openzeppelin/contracts/access/Ownable.sol\":2623:2714  if (newOwner == address(0)) {... */\n      tag_195\n      jumpi\n        /* \"@openzeppelin/contracts/access/Ownable.sol\":2672:2703  OwnableInvalidOwner(address(0)) */\n      mload(0x40)\n      shl(0xe0, 0x1e4fbdf7)\n      dup2\n      mstore\n        /* \"@openzeppelin/contracts/access/Ownable.sol\":2700:2701  0 */\n      0x00\n        /* \"@openzeppelin/contracts/access/Ownable.sol\":2672:2703  OwnableInvalidOwner(address(0)) */\n      0x04\n      dup3\n      add\n        /* \"#utility.yul\":3538:3612   */\n      mstore\n        /* \"#utility.yul\":3511:3529   */\n      0x24\n      add\n        /* \"@openzeppelin/contracts/access/Ownable.sol\":2672:2703  OwnableInvalidOwner(address(0)) */\n      tag_120\n        /* \"#utility.yul\":3364:3618   */\n      jump\n        /* \"@openzeppelin/contracts/access/Ownable.sol\":2623:2714  if (newOwner == address(0)) {... */\n    tag_195:\n        /* \"@openzeppelin/contracts/access/Ownable.sol\":2723:2751  _transferOwnership(newOwner) */\n      tag_197\n        /* \"@openzeppelin/contracts/access/Ownable.sol\":2742:2750  newOwner */\n      dup2\n        /* \"@openzeppelin/contracts/access/Ownable.sol\":2723:2741  _transferOwnership */\n      tag_160\n        /* \"@openzeppelin/contracts/access/Ownable.sol\":2723:2751  _transferOwnership(newOwner) */\n      jump\t// in\n    tag_197:\n        /* \"@openzeppelin/contracts/access/Ownable.sol\":2543:2758  function transferOwnership(address newOwner) public virtual onlyOwner {... */\n      pop\n      jump\t// out\n        /* \"Arbitrum_sender.sol\":2553:2879  function quote(... */\n    tag_109:\n      0x40\n      dup1\n      mload\n      dup1\n      dup3\n      add\n      swap1\n      swap2\n      mstore\n      0x00\n      dup1\n      dup3\n      mstore\n      0x20\n      dup3\n      add\n      mstore\n        /* \"Arbitrum_sender.sol\":2749:2770  bytes memory _payload */\n      0x00\n        /* \"Arbitrum_sender.sol\":2784:2792  _message */\n      dup7\n      dup7\n        /* \"Arbitrum_sender.sol\":2794:2804  msg.sender */\n      caller\n        /* \"Arbitrum_sender.sol\":2773:2805  abi.encode(_message, msg.sender) */\n      add(0x20, mload(0x40))\n      tag_201\n      swap4\n      swap3\n      swap2\n      swap1\n      tag_163\n      jump\t// in\n    tag_201:\n      0x40\n      dup1\n      mload\n      not(0x1f)\n      dup2\n      dup5\n      sub\n      add\n      dup2\n      mstore\n      0x20\n        /* \"Arbitrum_sender.sol\":2822:2872  _quote(_dstEid, _payload, _options, _payInLzToken) */\n      0x1f\n      dup9\n      add\n      dup2\n      swap1\n      div\n      dup2\n      mul\n      dup5\n      add\n      dup2\n      add\n      swap1\n      swap3\n      mstore\n      dup7\n      dup4\n      mstore\n        /* \"Arbitrum_sender.sol\":2773:2805  abi.encode(_message, msg.sender) */\n      swap3\n      pop\n        /* \"Arbitrum_sender.sol\":2822:2872  _quote(_dstEid, _payload, _options, _payInLzToken) */\n      tag_202\n      swap2\n        /* \"Arbitrum_sender.sol\":2829:2836  _dstEid */\n      dup11\n      swap2\n        /* \"Arbitrum_sender.sol\":2773:2805  abi.encode(_message, msg.sender) */\n      dup5\n      swap2\n      swap1\n        /* \"Arbitrum_sender.sol\":2848:2856  _options */\n      dup10\n      swap1\n      dup10\n      swap1\n      dup2\n      swap1\n        /* \"Arbitrum_sender.sol\":2822:2872  _quote(_dstEid, _payload, _options, _payInLzToken) */\n      dup5\n      add\n        /* \"Arbitrum_sender.sol\":2848:2856  _options */\n      dup4\n      dup3\n      dup1\n      dup3\n        /* \"Arbitrum_sender.sol\":2822:2872  _quote(_dstEid, _payload, _options, _payInLzToken) */\n      dup5\n      calldatacopy\n      0x00\n      swap3\n      add\n      swap2\n      swap1\n      swap2\n      mstore\n      pop\n        /* \"Arbitrum_sender.sol\":2858:2871  _payInLzToken */\n      dup10\n      swap3\n      pop\n        /* \"Arbitrum_sender.sol\":2822:2828  _quote */\n      tag_165\n      swap2\n      pop\n      pop\n        /* \"Arbitrum_sender.sol\":2822:2872  _quote(_dstEid, _payload, _options, _payInLzToken) */\n      jump\t// in\n    tag_202:\n        /* \"Arbitrum_sender.sol\":2815:2872  return _quote(_dstEid, _payload, _options, _payInLzToken) */\n      swap9\n        /* \"Arbitrum_sender.sol\":2553:2879  function quote(... */\n      swap8\n      pop\n      pop\n      pop\n      pop\n      pop\n      pop\n      pop\n      pop\n      jump\t// out\n        /* \"@layerzerolabs/oapp-evm/contracts/oapp/OAppReceiver.sol\":2771:2920  function allowInitializePath(Origin calldata origin) public view virtual returns (bool) {... */\n    tag_116:\n        /* \"@layerzerolabs/oapp-evm/contracts/oapp/OAppReceiver.sol\":2853:2857  bool */\n      0x00\n        /* \"@layerzerolabs/oapp-evm/contracts/oapp/OAppReceiver.sol\":2900:2913  origin.sender */\n      0x20\n      dup3\n      add\n      dup1\n      calldataload\n      swap1\n        /* \"@layerzerolabs/oapp-evm/contracts/oapp/OAppReceiver.sol\":2876:2881  peers */\n      0x01\n      swap1\n        /* \"@layerzerolabs/oapp-evm/contracts/oapp/OAppReceiver.sol\":2853:2857  bool */\n      dup4\n      swap1\n        /* \"@layerzerolabs/oapp-evm/contracts/oapp/OAppReceiver.sol\":2882:2895  origin.srcEid */\n      tag_204\n      swap1\n        /* \"@layerzerolabs/oapp-evm/contracts/oapp/OAppReceiver.sol\":2900:2906  origin */\n      dup7\n        /* \"@layerzerolabs/oapp-evm/contracts/oapp/OAppReceiver.sol\":2882:2895  origin.srcEid */\n      tag_86\n      jump\t// in\n    tag_204:\n        /* \"@layerzerolabs/oapp-evm/contracts/oapp/OAppReceiver.sol\":2876:2896  peers[origin.srcEid] */\n      0xffffffff\n      and\n      dup2\n      mstore\n      0x20\n      dup2\n      add\n      swap2\n      swap1\n      swap2\n      mstore\n      0x40\n      add\n      0x00\n      keccak256\n      sload\n        /* \"@layerzerolabs/oapp-evm/contracts/oapp/OAppReceiver.sol\":2876:2913  peers[origin.srcEid] == origin.sender */\n      eq\n      swap3\n        /* \"@layerzerolabs/oapp-evm/contracts/oapp/OAppReceiver.sol\":2771:2920  function allowInitializePath(Origin calldata origin) public view virtual returns (bool) {... */\n      swap2\n      pop\n      pop\n      jump\t// out\n        /* \"@layerzerolabs/oapp-evm/contracts/oapp/OAppCore.sol\":2718:2914  function _getPeerOrRevert(uint32 _eid) internal view virtual returns (bytes32) {... */\n    tag_123:\n        /* \"@layerzerolabs/oapp-evm/contracts/oapp/OAppCore.sol\":2822:2833  peers[_eid] */\n      0xffffffff\n      dup2\n      and\n        /* \"@layerzerolabs/oapp-evm/contracts/oapp/OAppCore.sol\":2788:2795  bytes32 */\n      0x00\n        /* \"@layerzerolabs/oapp-evm/contracts/oapp/OAppCore.sol\":2822:2833  peers[_eid] */\n      swap1\n      dup2\n      mstore\n        /* \"@layerzerolabs/oapp-evm/contracts/oapp/OAppCore.sol\":2822:2827  peers */\n      0x01\n        /* \"@layerzerolabs/oapp-evm/contracts/oapp/OAppCore.sol\":2822:2833  peers[_eid] */\n      0x20\n      mstore\n      0x40\n      dup2\n      keccak256\n      sload\n      dup1\n        /* \"@layerzerolabs/oapp-evm/contracts/oapp/OAppCore.sol\":2843:2886  if (peer == bytes32(0)) revert NoPeer(_eid) */\n      tag_206\n      jumpi\n        /* \"@layerzerolabs/oapp-evm/contracts/oapp/OAppCore.sol\":2874:2886  NoPeer(_eid) */\n      mload(0x40)\n      shl(0xe0, 0xf6ff4fb7)\n      dup2\n      mstore\n        /* \"#utility.yul\":13256:13266   */\n      0xffffffff\n        /* \"#utility.yul\":13244:13267   */\n      dup5\n      and\n        /* \"@layerzerolabs/oapp-evm/contracts/oapp/OAppCore.sol\":2874:2886  NoPeer(_eid) */\n      0x04\n      dup3\n      add\n        /* \"#utility.yul\":13226:13268   */\n      mstore\n        /* \"#utility.yul\":13199:13217   */\n      0x24\n      add\n        /* \"@layerzerolabs/oapp-evm/contracts/oapp/OAppCore.sol\":2874:2886  NoPeer(_eid) */\n      tag_120\n        /* \"#utility.yul\":13082:13274   */\n      jump\n        /* \"@layerzerolabs/oapp-evm/contracts/oapp/OAppCore.sol\":2843:2886  if (peer == bytes32(0)) revert NoPeer(_eid) */\n    tag_206:\n        /* \"@layerzerolabs/oapp-evm/contracts/oapp/OAppCore.sol\":2903:2907  peer */\n      swap3\n        /* \"@layerzerolabs/oapp-evm/contracts/oapp/OAppCore.sol\":2718:2914  function _getPeerOrRevert(uint32 _eid) internal view virtual returns (bytes32) {... */\n      swap2\n      pop\n      pop\n      jump\t// out\n        /* \"Arbitrum_sender.sol\":3190:3582  function _lzReceive(... */\n    tag_129:\n        /* \"Arbitrum_sender.sol\":3425:3446  string memory message */\n      0x00\n      dup1\n        /* \"Arbitrum_sender.sol\":3466:3504  abi.decode(payload, (string, address)) */\n      tag_210\n      dup7\n      dup9\n      add\n        /* \"Arbitrum_sender.sol\":3477:3484  payload */\n      dup9\n        /* \"Arbitrum_sender.sol\":3466:3504  abi.decode(payload, (string, address)) */\n      tag_211\n      jump\t// in\n    tag_210:\n        /* \"Arbitrum_sender.sol\":3424:3504  (string memory message, address sender) = abi.decode(payload, (string, address)) */\n      swap1\n      swap3\n      pop\n      swap1\n      pop\n        /* \"Arbitrum_sender.sol\":3560:3565  _guid */\n      dup8\n        /* \"Arbitrum_sender.sol\":3544:3558  _origin.srcEid */\n      tag_212\n      0x20\n      dup12\n      add\n        /* \"Arbitrum_sender.sol\":3544:3551  _origin */\n      dup12\n        /* \"Arbitrum_sender.sol\":3544:3558  _origin.srcEid */\n      tag_86\n      jump\t// in\n    tag_212:\n        /* \"Arbitrum_sender.sol\":3528:3575  MessageReceived(_origin.srcEid, _guid, message) */\n      0xffffffff\n      and\n      0x15491fa6bf738b90aa2bf5731ea662e510a1706e7034cc13c1b2371b12f0969d\n        /* \"Arbitrum_sender.sol\":3567:3574  message */\n      dup5\n        /* \"Arbitrum_sender.sol\":3528:3575  MessageReceived(_origin.srcEid, _guid, message) */\n      mload(0x40)\n      tag_213\n      swap2\n      swap1\n      tag_47\n      jump\t// in\n    tag_213:\n      mload(0x40)\n      dup1\n      swap2\n      sub\n      swap1\n      log3\n        /* \"Arbitrum_sender.sol\":3384:3582  {... */\n      pop\n      pop\n        /* \"Arbitrum_sender.sol\":3190:3582  function _lzReceive(... */\n      pop\n      pop\n      pop\n      pop\n      pop\n      pop\n      pop\n      jump\t// out\n        /* \"@openzeppelin/contracts/access/Ownable.sol\":1796:1958  function _checkOwner() internal view virtual {... */\n    tag_133:\n        /* \"@openzeppelin/contracts/access/Ownable.sol\":1684:1691  address */\n      0x00\n        /* \"@openzeppelin/contracts/access/Ownable.sol\":1710:1716  _owner */\n      sload\n      sub(shl(0xa0, 0x01), 0x01)\n      and\n        /* \"@openzeppelin/contracts/utils/Context.sol\":735:745  msg.sender */\n      caller\n        /* \"@openzeppelin/contracts/access/Ownable.sol\":1855:1878  owner() != _msgSender() */\n      eq\n        /* \"@openzeppelin/contracts/access/Ownable.sol\":1851:1952  if (owner() != _msgSender()) {... */\n      tag_159\n      jumpi\n        /* \"@openzeppelin/contracts/access/Ownable.sol\":1901:1941  OwnableUnauthorizedAccount(_msgSender()) */\n      mload(0x40)\n      shl(0xe0, 0x118cdaa7)\n      dup2\n      mstore\n        /* \"@openzeppelin/contracts/utils/Context.sol\":735:745  msg.sender */\n      caller\n        /* \"@openzeppelin/contracts/access/Ownable.sol\":1901:1941  OwnableUnauthorizedAccount(_msgSender()) */\n      0x04\n      dup3\n      add\n        /* \"#utility.yul\":3538:3612   */\n      mstore\n        /* \"#utility.yul\":3511:3529   */\n      0x24\n      add\n        /* \"@openzeppelin/contracts/access/Ownable.sol\":1901:1941  OwnableUnauthorizedAccount(_msgSender()) */\n      tag_120\n        /* \"#utility.yul\":3364:3618   */\n      jump\n        /* \"@layerzerolabs/oapp-evm/contracts/oapp/OAppCore.sol\":2286:2420  function _setPeer(uint32 _eid, bytes32 _peer) internal virtual {... */\n    tag_136:\n        /* \"@layerzerolabs/oapp-evm/contracts/oapp/OAppCore.sol\":2359:2370  peers[_eid] */\n      0xffffffff\n      dup3\n      and\n      0x00\n      dup2\n      dup2\n      mstore\n        /* \"@layerzerolabs/oapp-evm/contracts/oapp/OAppCore.sol\":2359:2364  peers */\n      0x01\n        /* \"@layerzerolabs/oapp-evm/contracts/oapp/OAppCore.sol\":2359:2370  peers[_eid] */\n      0x20\n      swap1\n      dup2\n      mstore\n      0x40\n      swap2\n      dup3\n      swap1\n      keccak256\n        /* \"@layerzerolabs/oapp-evm/contracts/oapp/OAppCore.sol\":2359:2378  peers[_eid] = _peer */\n      dup5\n      swap1\n      sstore\n        /* \"@layerzerolabs/oapp-evm/contracts/oapp/OAppCore.sol\":2393:2413  PeerSet(_eid, _peer) */\n      dup2\n      mload\n        /* \"#utility.yul\":8193:8235   */\n      swap3\n      dup4\n      mstore\n        /* \"#utility.yul\":8251:8269   */\n      dup3\n      add\n        /* \"#utility.yul\":8244:8278   */\n      dup4\n      swap1\n      mstore\n        /* \"@layerzerolabs/oapp-evm/contracts/oapp/OAppCore.sol\":2393:2413  PeerSet(_eid, _peer) */\n      0x238399d427b947898edb290f5ff0f9109849b1c3ba196a42e35f00c50a54b98b\n      swap2\n        /* \"#utility.yul\":8166:8184   */\n      add\n        /* \"@layerzerolabs/oapp-evm/contracts/oapp/OAppCore.sol\":2393:2413  PeerSet(_eid, _peer) */\n      mload(0x40)\n      dup1\n      swap2\n      sub\n      swap1\n      log1\n        /* \"@layerzerolabs/oapp-evm/contracts/oapp/OAppCore.sol\":2286:2420  function _setPeer(uint32 _eid, bytes32 _peer) internal virtual {... */\n      pop\n      pop\n      jump\t// out\n        /* \"@openzeppelin/contracts/access/Ownable.sol\":2912:3099  function _transferOwnership(address newOwner) internal virtual {... */\n    tag_160:\n        /* \"@openzeppelin/contracts/access/Ownable.sol\":2985:3001  address oldOwner */\n      0x00\n        /* \"@openzeppelin/contracts/access/Ownable.sol\":3004:3010  _owner */\n      dup1\n      sload\n      sub(shl(0xa0, 0x01), 0x01)\n        /* \"@openzeppelin/contracts/access/Ownable.sol\":3020:3037  _owner = newOwner */\n      dup4\n      dup2\n      and\n      not(0xffffffffffffffffffffffffffffffffffffffff)\n      dup4\n      and\n      dup2\n      or\n      dup5\n      sstore\n        /* \"@openzeppelin/contracts/access/Ownable.sol\":3052:3092  OwnershipTransferred(oldOwner, newOwner) */\n      mload(0x40)\n        /* \"@openzeppelin/contracts/access/Ownable.sol\":3004:3010  _owner */\n      swap2\n      swap1\n      swap3\n      and\n      swap3\n      dup4\n      swap2\n        /* \"@openzeppelin/contracts/access/Ownable.sol\":3052:3092  OwnershipTransferred(oldOwner, newOwner) */\n      0x8be0079c531659141344cd1fd0a4f28419497f9722a3daafe3b4186f6b6457e0\n      swap2\n        /* \"@openzeppelin/contracts/access/Ownable.sol\":2985:3001  address oldOwner */\n      swap1\n        /* \"@openzeppelin/contracts/access/Ownable.sol\":3052:3092  OwnershipTransferred(oldOwner, newOwner) */\n      log3\n        /* \"@openzeppelin/contracts/access/Ownable.sol\":2975:3099  {... */\n      pop\n        /* \"@openzeppelin/contracts/access/Ownable.sol\":2912:3099  function _transferOwnership(address newOwner) internal virtual {... */\n      pop\n      jump\t// out\n        /* \"@layerzerolabs/oapp-evm/contracts/oapp/OAppSender.sol\":2038:2429  function _quote(... */\n    tag_165:\n      0x40\n      dup1\n      mload\n      dup1\n      dup3\n      add\n      swap1\n      swap2\n      mstore\n      0x00\n      dup1\n      dup3\n      mstore\n      0x20\n      dup3\n      add\n      mstore\n        /* \"@layerzerolabs/oapp-evm/contracts/oapp/OAppSender.sol\":2259:2267  endpoint */\n      immutable(\"0xef80077fd7ee005d1b0377e3e959eb59d0ca83c4839422f862a3540a66a91fb5\")\n      sub(shl(0xa0, 0x01), 0x01)\n        /* \"@layerzerolabs/oapp-evm/contracts/oapp/OAppSender.sol\":2259:2273  endpoint.quote */\n      and\n      0xddc28c58\n        /* \"@layerzerolabs/oapp-evm/contracts/oapp/OAppSender.sol\":2291:2377  MessagingParams(_dstEid, _getPeerOrRevert(_dstEid), _message, _options, _payInLzToken) */\n      mload(0x40)\n      dup1\n      0xa0\n      add\n      0x40\n      mstore\n      dup1\n        /* \"@layerzerolabs/oapp-evm/contracts/oapp/OAppSender.sol\":2307:2314  _dstEid */\n      dup9\n        /* \"@layerzerolabs/oapp-evm/contracts/oapp/OAppSender.sol\":2291:2377  MessagingParams(_dstEid, _getPeerOrRevert(_dstEid), _message, _options, _payInLzToken) */\n      0xffffffff\n      and\n      dup2\n      mstore\n      0x20\n      add\n        /* \"@layerzerolabs/oapp-evm/contracts/oapp/OAppSender.sol\":2316:2341  _getPeerOrRevert(_dstEid) */\n      tag_226\n        /* \"@layerzerolabs/oapp-evm/contracts/oapp/OAppSender.sol\":2333:2340  _dstEid */\n      dup10\n        /* \"@layerzerolabs/oapp-evm/contracts/oapp/OAppSender.sol\":2316:2332  _getPeerOrRevert */\n      tag_123\n        /* \"@layerzerolabs/oapp-evm/contracts/oapp/OAppSender.sol\":2316:2341  _getPeerOrRevert(_dstEid) */\n      jump\t// in\n    tag_226:\n        /* \"@layerzerolabs/oapp-evm/contracts/oapp/OAppSender.sol\":2291:2377  MessagingParams(_dstEid, _getPeerOrRevert(_dstEid), _message, _options, _payInLzToken) */\n      dup2\n      mstore\n      0x20\n      add\n        /* \"@layerzerolabs/oapp-evm/contracts/oapp/OAppSender.sol\":2343:2351  _message */\n      dup8\n        /* \"@layerzerolabs/oapp-evm/contracts/oapp/OAppSender.sol\":2291:2377  MessagingParams(_dstEid, _getPeerOrRevert(_dstEid), _message, _options, _payInLzToken) */\n      dup2\n      mstore\n      0x20\n      add\n        /* \"@layerzerolabs/oapp-evm/contracts/oapp/OAppSender.sol\":2353:2361  _options */\n      dup7\n        /* \"@layerzerolabs/oapp-evm/contracts/oapp/OAppSender.sol\":2291:2377  MessagingParams(_dstEid, _getPeerOrRevert(_dstEid), _message, _options, _payInLzToken) */\n      dup2\n      mstore\n      0x20\n      add\n        /* \"@layerzerolabs/oapp-evm/contracts/oapp/OAppSender.sol\":2363:2376  _payInLzToken */\n      dup6\n        /* \"@layerzerolabs/oapp-evm/contracts/oapp/OAppSender.sol\":2291:2377  MessagingParams(_dstEid, _getPeerOrRevert(_dstEid), _message, _options, _payInLzToken) */\n      iszero\n      iszero\n      dup2\n      mstore\n      pop\n        /* \"@layerzerolabs/oapp-evm/contracts/oapp/OAppSender.sol\":2403:2407  this */\n      address\n        /* \"@layerzerolabs/oapp-evm/contracts/oapp/OAppSender.sol\":2259:2422  endpoint.quote(... */\n      mload(0x40)\n      dup4\n      0xffffffff\n      and\n      0xe0\n      shl\n      dup2\n      mstore\n      0x04\n      add\n      tag_227\n      swap3\n      swap2\n      swap1\n      tag_228\n      jump\t// in\n    tag_227:\n      0x40\n      dup1\n      mload\n      dup1\n      dup4\n      sub\n      dup2\n      dup7\n      gas\n      staticcall\n      iszero\n      dup1\n      iszero\n      tag_230\n      jumpi\n      returndatasize\n      0x00\n      dup1\n      returndatacopy\n      revert(0x00, returndatasize)\n    tag_230:\n      pop\n      pop\n      pop\n      pop\n      mload(0x40)\n      returndatasize\n      not(0x1f)\n      0x1f\n      dup3\n      add\n      and\n      dup3\n      add\n      dup1\n      0x40\n      mstore\n      pop\n      dup2\n      add\n      swap1\n      tag_231\n      swap2\n      swap1\n      tag_232\n      jump\t// in\n    tag_231:\n        /* \"@layerzerolabs/oapp-evm/contracts/oapp/OAppSender.sol\":2240:2422  return... */\n      swap6\n        /* \"@layerzerolabs/oapp-evm/contracts/oapp/OAppSender.sol\":2038:2429  function _quote(... */\n      swap5\n      pop\n      pop\n      pop\n      pop\n      pop\n      jump\t// out\n        /* \"@layerzerolabs/oapp-evm/contracts/oapp/OAppSender.sol\":3188:3954  function _lzSend(... */\n    tag_170:\n        /* \"@layerzerolabs/oapp-evm/contracts/oapp/OAppSender.sol\":3389:3420  MessagingReceipt memory receipt */\n      tag_233\n      tag_234\n      jump\t// in\n    tag_233:\n        /* \"@layerzerolabs/oapp-evm/contracts/oapp/OAppSender.sol\":3554:3574  uint256 messageValue */\n      0x00\n        /* \"@layerzerolabs/oapp-evm/contracts/oapp/OAppSender.sol\":3577:3603  _payNative(_fee.nativeFee) */\n      tag_236\n        /* \"@layerzerolabs/oapp-evm/contracts/oapp/OAppSender.sol\":3588:3592  _fee */\n      dup5\n        /* \"@layerzerolabs/oapp-evm/contracts/oapp/OAppSender.sol\":3588:3602  _fee.nativeFee */\n      0x00\n      add\n      mload\n        /* \"@layerzerolabs/oapp-evm/contracts/oapp/OAppSender.sol\":3577:3587  _payNative */\n      tag_237\n        /* \"@layerzerolabs/oapp-evm/contracts/oapp/OAppSender.sol\":3577:3603  _payNative(_fee.nativeFee) */\n      jump\t// in\n    tag_236:\n        /* \"@layerzerolabs/oapp-evm/contracts/oapp/OAppSender.sol\":3617:3632  _fee.lzTokenFee */\n      0x20\n      dup6\n      add\n      mload\n        /* \"@layerzerolabs/oapp-evm/contracts/oapp/OAppSender.sol\":3554:3603  uint256 messageValue = _payNative(_fee.nativeFee) */\n      swap1\n      swap2\n      pop\n        /* \"@layerzerolabs/oapp-evm/contracts/oapp/OAppSender.sol\":3617:3636  _fee.lzTokenFee > 0 */\n      iszero\n        /* \"@layerzerolabs/oapp-evm/contracts/oapp/OAppSender.sol\":3613:3666  if (_fee.lzTokenFee > 0) _payLzToken(_fee.lzTokenFee) */\n      tag_239\n      jumpi\n        /* \"@layerzerolabs/oapp-evm/contracts/oapp/OAppSender.sol\":3638:3666  _payLzToken(_fee.lzTokenFee) */\n      tag_239\n        /* \"@layerzerolabs/oapp-evm/contracts/oapp/OAppSender.sol\":3650:3654  _fee */\n      dup5\n        /* \"@layerzerolabs/oapp-evm/contracts/oapp/OAppSender.sol\":3650:3665  _fee.lzTokenFee */\n      0x20\n      add\n      mload\n        /* \"@layerzerolabs/oapp-evm/contracts/oapp/OAppSender.sol\":3638:3649  _payLzToken */\n      tag_240\n        /* \"@layerzerolabs/oapp-evm/contracts/oapp/OAppSender.sol\":3638:3666  _payLzToken(_fee.lzTokenFee) */\n      jump\t// in\n    tag_239:\n        /* \"@layerzerolabs/oapp-evm/contracts/oapp/OAppSender.sol\":3755:3763  endpoint */\n      immutable(\"0xef80077fd7ee005d1b0377e3e959eb59d0ca83c4839422f862a3540a66a91fb5\")\n      sub(shl(0xa0, 0x01), 0x01)\n        /* \"@layerzerolabs/oapp-evm/contracts/oapp/OAppSender.sol\":3755:3768  endpoint.send */\n      and\n      0x2637a450\n        /* \"@layerzerolabs/oapp-evm/contracts/oapp/OAppSender.sol\":3777:3789  messageValue */\n      dup3\n        /* \"@layerzerolabs/oapp-evm/contracts/oapp/OAppSender.sol\":3809:3901  MessagingParams(_dstEid, _getPeerOrRevert(_dstEid), _message, _options, _fee.lzTokenFee > 0) */\n      mload(0x40)\n      dup1\n      0xa0\n      add\n      0x40\n      mstore\n      dup1\n        /* \"@layerzerolabs/oapp-evm/contracts/oapp/OAppSender.sol\":3825:3832  _dstEid */\n      dup12\n        /* \"@layerzerolabs/oapp-evm/contracts/oapp/OAppSender.sol\":3809:3901  MessagingParams(_dstEid, _getPeerOrRevert(_dstEid), _message, _options, _fee.lzTokenFee > 0) */\n      0xffffffff\n      and\n      dup2\n      mstore\n      0x20\n      add\n        /* \"@layerzerolabs/oapp-evm/contracts/oapp/OAppSender.sol\":3834:3859  _getPeerOrRevert(_dstEid) */\n      tag_241\n        /* \"@layerzerolabs/oapp-evm/contracts/oapp/OAppSender.sol\":3851:3858  _dstEid */\n      dup13\n        /* \"@layerzerolabs/oapp-evm/contracts/oapp/OAppSender.sol\":3834:3850  _getPeerOrRevert */\n      tag_123\n        /* \"@layerzerolabs/oapp-evm/contracts/oapp/OAppSender.sol\":3834:3859  _getPeerOrRevert(_dstEid) */\n      jump\t// in\n    tag_241:\n        /* \"@layerzerolabs/oapp-evm/contracts/oapp/OAppSender.sol\":3809:3901  MessagingParams(_dstEid, _getPeerOrRevert(_dstEid), _message, _options, _fee.lzTokenFee > 0) */\n      dup2\n      mstore\n      0x20\n      add\n        /* \"@layerzerolabs/oapp-evm/contracts/oapp/OAppSender.sol\":3861:3869  _message */\n      dup11\n        /* \"@layerzerolabs/oapp-evm/contracts/oapp/OAppSender.sol\":3809:3901  MessagingParams(_dstEid, _getPeerOrRevert(_dstEid), _message, _options, _fee.lzTokenFee > 0) */\n      dup2\n      mstore\n      0x20\n      add\n        /* \"@layerzerolabs/oapp-evm/contracts/oapp/OAppSender.sol\":3871:3879  _options */\n      dup10\n        /* \"@layerzerolabs/oapp-evm/contracts/oapp/OAppSender.sol\":3809:3901  MessagingParams(_dstEid, _getPeerOrRevert(_dstEid), _message, _options, _fee.lzTokenFee > 0) */\n      dup2\n      mstore\n      0x20\n      add\n        /* \"@layerzerolabs/oapp-evm/contracts/oapp/OAppSender.sol\":3899:3900  0 */\n      0x00\n        /* \"@layerzerolabs/oapp-evm/contracts/oapp/OAppSender.sol\":3881:3885  _fee */\n      dup10\n        /* \"@layerzerolabs/oapp-evm/contracts/oapp/OAppSender.sol\":3881:3896  _fee.lzTokenFee */\n      0x20\n      add\n      mload\n        /* \"@layerzerolabs/oapp-evm/contracts/oapp/OAppSender.sol\":3881:3900  _fee.lzTokenFee > 0 */\n      gt\n        /* \"@layerzerolabs/oapp-evm/contracts/oapp/OAppSender.sol\":3809:3901  MessagingParams(_dstEid, _getPeerOrRevert(_dstEid), _message, _options, _fee.lzTokenFee > 0) */\n      iszero\n      iszero\n      dup2\n      mstore\n      pop\n        /* \"@layerzerolabs/oapp-evm/contracts/oapp/OAppSender.sol\":3919:3933  _refundAddress */\n      dup7\n        /* \"@layerzerolabs/oapp-evm/contracts/oapp/OAppSender.sol\":3755:3947  endpoint.send{ value: messageValue }(... */\n      mload(0x40)\n      dup5\n      0xffffffff\n      and\n      0xe0\n      shl\n      dup2\n      mstore\n      0x04\n      add\n      tag_242\n      swap3\n      swap2\n      swap1\n      tag_228\n      jump\t// in\n    tag_242:\n      0x80\n      mload(0x40)\n      dup1\n      dup4\n      sub\n      dup2\n      dup6\n      dup9\n      gas\n      call\n      iszero\n      dup1\n      iszero\n      tag_244\n      jumpi\n      returndatasize\n      0x00\n      dup1\n      returndatacopy\n      revert(0x00, returndatasize)\n    tag_244:\n      pop\n      pop\n      pop\n      pop\n      pop\n      mload(0x40)\n      returndatasize\n      not(0x1f)\n      0x1f\n      dup3\n      add\n      and\n      dup3\n      add\n      dup1\n      0x40\n      mstore\n      pop\n      dup2\n      add\n      swap1\n      tag_245\n      swap2\n      swap1\n      tag_246\n      jump\t// in\n    tag_245:\n        /* \"@layerzerolabs/oapp-evm/contracts/oapp/OAppSender.sol\":3677:3947  return... */\n      swap8\n        /* \"@layerzerolabs/oapp-evm/contracts/oapp/OAppSender.sol\":3188:3954  function _lzSend(... */\n      swap7\n      pop\n      pop\n      pop\n      pop\n      pop\n      pop\n      pop\n      jump\t// out\n        /* \"@layerzerolabs/oapp-evm/contracts/oapp/OAppSender.sol\":4650:4841  function _payNative(uint256 _nativeFee) internal virtual returns (uint256 nativeFee) {... */\n    tag_237:\n        /* \"@layerzerolabs/oapp-evm/contracts/oapp/OAppSender.sol\":4716:4733  uint256 nativeFee */\n      0x00\n        /* \"@layerzerolabs/oapp-evm/contracts/oapp/OAppSender.sol\":4762:4772  _nativeFee */\n      dup2\n        /* \"@layerzerolabs/oapp-evm/contracts/oapp/OAppSender.sol\":4749:4758  msg.value */\n      callvalue\n        /* \"@layerzerolabs/oapp-evm/contracts/oapp/OAppSender.sol\":4749:4772  msg.value != _nativeFee */\n      eq\n        /* \"@layerzerolabs/oapp-evm/contracts/oapp/OAppSender.sol\":4745:4807  if (msg.value != _nativeFee) revert NotEnoughNative(msg.value) */\n      tag_249\n      jumpi\n        /* \"@layerzerolabs/oapp-evm/contracts/oapp/OAppSender.sol\":4781:4807  NotEnoughNative(msg.value) */\n      mload(0x40)\n      shl(0xe5, 0x04fb8209)\n      dup2\n      mstore\n        /* \"@layerzerolabs/oapp-evm/contracts/oapp/OAppSender.sol\":4797:4806  msg.value */\n      callvalue\n        /* \"@layerzerolabs/oapp-evm/contracts/oapp/OAppSender.sol\":4781:4807  NotEnoughNative(msg.value) */\n      0x04\n      dup3\n      add\n        /* \"#utility.yul\":3328:3353   */\n      mstore\n        /* \"#utility.yul\":3301:3319   */\n      0x24\n      add\n        /* \"@layerzerolabs/oapp-evm/contracts/oapp/OAppSender.sol\":4781:4807  NotEnoughNative(msg.value) */\n      tag_120\n        /* \"#utility.yul\":3182:3359   */\n      jump\n        /* \"@layerzerolabs/oapp-evm/contracts/oapp/OAppSender.sol\":4745:4807  if (msg.value != _nativeFee) revert NotEnoughNative(msg.value) */\n    tag_249:\n      pop\n        /* \"@layerzerolabs/oapp-evm/contracts/oapp/OAppSender.sol\":4824:4834  _nativeFee */\n      swap1\n        /* \"@layerzerolabs/oapp-evm/contracts/oapp/OAppSender.sol\":4650:4841  function _payNative(uint256 _nativeFee) internal virtual returns (uint256 nativeFee) {... */\n      jump\t// out\n        /* \"@layerzerolabs/oapp-evm/contracts/oapp/OAppSender.sol\":5218:5628  function _payLzToken(uint256 _lzTokenFee) internal virtual {... */\n    tag_240:\n        /* \"@layerzerolabs/oapp-evm/contracts/oapp/OAppSender.sol\":5371:5386  address lzToken */\n      0x00\n        /* \"@layerzerolabs/oapp-evm/contracts/oapp/OAppSender.sol\":5389:5397  endpoint */\n      immutable(\"0xef80077fd7ee005d1b0377e3e959eb59d0ca83c4839422f862a3540a66a91fb5\")\n      sub(shl(0xa0, 0x01), 0x01)\n        /* \"@layerzerolabs/oapp-evm/contracts/oapp/OAppSender.sol\":5389:5405  endpoint.lzToken */\n      and\n      0xe4fe1d94\n        /* \"@layerzerolabs/oapp-evm/contracts/oapp/OAppSender.sol\":5389:5407  endpoint.lzToken() */\n      mload(0x40)\n      dup2\n      0xffffffff\n      and\n      0xe0\n      shl\n      dup2\n      mstore\n      0x04\n      add\n      0x20\n      mload(0x40)\n      dup1\n      dup4\n      sub\n      dup2\n      dup7\n      gas\n      staticcall\n      iszero\n      dup1\n      iszero\n      tag_253\n      jumpi\n      returndatasize\n      0x00\n      dup1\n      returndatacopy\n      revert(0x00, returndatasize)\n    tag_253:\n      pop\n      pop\n      pop\n      pop\n      mload(0x40)\n      returndatasize\n      not(0x1f)\n      0x1f\n      dup3\n      add\n      and\n      dup3\n      add\n      dup1\n      0x40\n      mstore\n      pop\n      dup2\n      add\n      swap1\n      tag_254\n      swap2\n      swap1\n      tag_255\n      jump\t// in\n    tag_254:\n        /* \"@layerzerolabs/oapp-evm/contracts/oapp/OAppSender.sol\":5371:5407  address lzToken = endpoint.lzToken() */\n      swap1\n      pop\n      sub(shl(0xa0, 0x01), 0x01)\n        /* \"@layerzerolabs/oapp-evm/contracts/oapp/OAppSender.sol\":5421:5442  lzToken == address(0) */\n      dup2\n      and\n        /* \"@layerzerolabs/oapp-evm/contracts/oapp/OAppSender.sol\":5417:5471  if (lzToken == address(0)) revert LzTokenUnavailable() */\n      tag_256\n      jumpi\n        /* \"@layerzerolabs/oapp-evm/contracts/oapp/OAppSender.sol\":5451:5471  LzTokenUnavailable() */\n      mload(0x40)\n      shl(0xe1, 0x29b99a95)\n      dup2\n      mstore\n      0x04\n      add\n      mload(0x40)\n      dup1\n      swap2\n      sub\n      swap1\n      revert\n        /* \"@layerzerolabs/oapp-evm/contracts/oapp/OAppSender.sol\":5417:5471  if (lzToken == address(0)) revert LzTokenUnavailable() */\n    tag_256:\n        /* \"@openzeppelin/contracts/token/ERC20/utils/SafeERC20.sol\":1745:1798  abi.encodeCall(token.transferFrom, (from, to, value)) */\n      0x40\n      dup1\n      mload\n        /* \"@layerzerolabs/oapp-evm/contracts/oapp/OAppSender.sol\":5578:5588  msg.sender */\n      caller\n        /* \"@openzeppelin/contracts/token/ERC20/utils/SafeERC20.sol\":1745:1798  abi.encodeCall(token.transferFrom, (from, to, value)) */\n      0x24\n      dup3\n      add\n        /* \"#utility.yul\":17603:17677   */\n      dup2\n      swap1\n      mstore\n        /* \"@layerzerolabs/oapp-evm/contracts/oapp/OAppSender.sol\":5598:5606  endpoint */\n      immutable(\"0xef80077fd7ee005d1b0377e3e959eb59d0ca83c4839422f862a3540a66a91fb5\")\n      sub(shl(0xa0, 0x01), 0x01)\n        /* \"#utility.yul\":17713:17768   */\n      dup2\n      dup2\n      and\n        /* \"#utility.yul\":17693:17711   */\n      0x44\n      dup6\n      add\n        /* \"#utility.yul\":17686:17769   */\n      mstore\n        /* \"#utility.yul\":17785:17803   */\n      0x64\n      dup1\n      dup6\n      add\n        /* \"#utility.yul\":17778:17812   */\n      dup9\n      swap1\n      mstore\n        /* \"@openzeppelin/contracts/token/ERC20/utils/SafeERC20.sol\":1745:1798  abi.encodeCall(token.transferFrom, (from, to, value)) */\n      dup6\n      mload\n      dup1\n      dup7\n      sub\n      swap1\n      swap2\n      add\n      dup2\n      mstore\n        /* \"#utility.yul\":17576:17594   */\n      0x84\n      swap1\n      swap5\n      add\n        /* \"@openzeppelin/contracts/token/ERC20/utils/SafeERC20.sol\":1745:1798  abi.encodeCall(token.transferFrom, (from, to, value)) */\n      swap1\n      swap5\n      mstore\n      0x20\n      dup4\n      add\n      dup1\n      mload\n      sub(shl(0xe0, 0x01), 0x01)\n      and\n      shl(0xe0, 0x23b872dd)\n      or\n      swap1\n      mstore\n        /* \"@layerzerolabs/oapp-evm/contracts/oapp/OAppSender.sol\":5545:5621  IERC20(lzToken).safeTransferFrom(msg.sender, address(endpoint), _lzTokenFee) */\n      tag_135\n      swap4\n        /* \"@layerzerolabs/oapp-evm/contracts/oapp/OAppSender.sol\":5545:5577  IERC20(lzToken).safeTransferFrom */\n      dup6\n      and\n      swap3\n        /* \"@layerzerolabs/oapp-evm/contracts/oapp/OAppSender.sol\":5609:5620  _lzTokenFee */\n      dup7\n      swap1\n        /* \"@openzeppelin/contracts/token/ERC20/utils/SafeERC20.sol\":1718:1799  _callOptionalReturn(token, abi.encodeCall(token.transferFrom, (from, to, value))) */\n      tag_260\n      swap1\n        /* \"@layerzerolabs/oapp-evm/contracts/oapp/OAppSender.sol\":5545:5577  IERC20(lzToken).safeTransferFrom */\n      dup6\n      swap1\n        /* \"@openzeppelin/contracts/token/ERC20/utils/SafeERC20.sol\":1718:1737  _callOptionalReturn */\n      tag_263\n        /* \"@openzeppelin/contracts/token/ERC20/utils/SafeERC20.sol\":1718:1799  _callOptionalReturn(token, abi.encodeCall(token.transferFrom, (from, to, value))) */\n      jump\t// in\n    tag_260:\n        /* \"@openzeppelin/contracts/token/ERC20/utils/SafeERC20.sol\":1618:1806  function safeTransferFrom(IERC20 token, address from, address to, uint256 value) internal {... */\n      pop\n      pop\n      pop\n      pop\n      jump\t// out\n        /* \"@openzeppelin/contracts/token/ERC20/utils/SafeERC20.sol\":8370:9090  function _callOptionalReturn(IERC20 token, bytes memory data) private {... */\n    tag_263:\n        /* \"@openzeppelin/contracts/token/ERC20/utils/SafeERC20.sol\":8450:8468  uint256 returnSize */\n      0x00\n        /* \"@openzeppelin/contracts/token/ERC20/utils/SafeERC20.sol\":8478:8497  uint256 returnValue */\n      dup1\n        /* \"@openzeppelin/contracts/token/ERC20/utils/SafeERC20.sol\":8616:8620  0x20 */\n      0x20\n        /* \"@openzeppelin/contracts/token/ERC20/utils/SafeERC20.sol\":8613:8614  0 */\n      0x00\n        /* \"@openzeppelin/contracts/token/ERC20/utils/SafeERC20.sol\":8606:8610  data */\n      dup5\n        /* \"@openzeppelin/contracts/token/ERC20/utils/SafeERC20.sol\":8600:8611  mload(data) */\n      mload\n        /* \"@openzeppelin/contracts/token/ERC20/utils/SafeERC20.sol\":8593:8597  0x20 */\n      0x20\n        /* \"@openzeppelin/contracts/token/ERC20/utils/SafeERC20.sol\":8587:8591  data */\n      dup7\n        /* \"@openzeppelin/contracts/token/ERC20/utils/SafeERC20.sol\":8583:8598  add(data, 0x20) */\n      add\n        /* \"@openzeppelin/contracts/token/ERC20/utils/SafeERC20.sol\":8580:8581  0 */\n      0x00\n        /* \"@openzeppelin/contracts/token/ERC20/utils/SafeERC20.sol\":8573:8578  token */\n      dup9\n        /* \"@openzeppelin/contracts/token/ERC20/utils/SafeERC20.sol\":8566:8571  gas() */\n      gas\n        /* \"@openzeppelin/contracts/token/ERC20/utils/SafeERC20.sol\":8561:8621  call(gas(), token, 0, add(data, 0x20), mload(data), 0, 0x20) */\n      call\n        /* \"@openzeppelin/contracts/token/ERC20/utils/SafeERC20.sol\":8673:8680  success */\n      dup1\n        /* \"@openzeppelin/contracts/token/ERC20/utils/SafeERC20.sol\":8663:8839  if iszero(success) {... */\n      tag_265\n      jumpi\n        /* \"@openzeppelin/contracts/token/ERC20/utils/SafeERC20.sol\":8717:8721  0x40 */\n      0x40\n        /* \"@openzeppelin/contracts/token/ERC20/utils/SafeERC20.sol\":8711:8722  mload(0x40) */\n      mload\n        /* \"@openzeppelin/contracts/token/ERC20/utils/SafeERC20.sol\":8762:8778  returndatasize() */\n      returndatasize\n        /* \"@openzeppelin/contracts/token/ERC20/utils/SafeERC20.sol\":8759:8760  0 */\n      0x00\n        /* \"@openzeppelin/contracts/token/ERC20/utils/SafeERC20.sol\":8754:8757  ptr */\n      dup3\n        /* \"@openzeppelin/contracts/token/ERC20/utils/SafeERC20.sol\":8739:8779  returndatacopy(ptr, 0, returndatasize()) */\n      returndatacopy\n        /* \"@openzeppelin/contracts/token/ERC20/utils/SafeERC20.sol\":8808:8824  returndatasize() */\n      returndatasize\n        /* \"@openzeppelin/contracts/token/ERC20/utils/SafeERC20.sol\":8803:8806  ptr */\n      dup2\n        /* \"@openzeppelin/contracts/token/ERC20/utils/SafeERC20.sol\":8796:8825  revert(ptr, returndatasize()) */\n      revert\n        /* \"@openzeppelin/contracts/token/ERC20/utils/SafeERC20.sol\":8663:8839  if iszero(success) {... */\n    tag_265:\n      pop\n      pop\n        /* \"@openzeppelin/contracts/token/ERC20/utils/SafeERC20.sol\":8916:8917  0 */\n      0x00\n        /* \"@openzeppelin/contracts/token/ERC20/utils/SafeERC20.sol\":8910:8918  mload(0) */\n      mload\n        /* \"@openzeppelin/contracts/token/ERC20/utils/SafeERC20.sol\":8866:8882  returndatasize() */\n      returndatasize\n      swap2\n      pop\n        /* \"@openzeppelin/contracts/token/ERC20/utils/SafeERC20.sol\":8942:8957  returnSize == 0 */\n      dup2\n      iszero\n        /* \"@openzeppelin/contracts/token/ERC20/utils/SafeERC20.sol\":8942:9010  returnSize == 0 ? address(token).code.length == 0 : returnValue != 1 */\n      tag_266\n      jumpi\n        /* \"@openzeppelin/contracts/token/ERC20/utils/SafeERC20.sol\":8994:9005  returnValue */\n      dup1\n        /* \"@openzeppelin/contracts/token/ERC20/utils/SafeERC20.sol\":9009:9010  1 */\n      0x01\n        /* \"@openzeppelin/contracts/token/ERC20/utils/SafeERC20.sol\":8994:9010  returnValue != 1 */\n      eq\n      iszero\n        /* \"@openzeppelin/contracts/token/ERC20/utils/SafeERC20.sol\":8942:9010  returnSize == 0 ? address(token).code.length == 0 : returnValue != 1 */\n      jump(tag_267)\n    tag_266:\n      sub(shl(0xa0, 0x01), 0x01)\n        /* \"@openzeppelin/contracts/token/ERC20/utils/SafeERC20.sol\":8960:8986  address(token).code.length */\n      dup5\n      and\n      extcodesize\n        /* \"@openzeppelin/contracts/token/ERC20/utils/SafeERC20.sol\":8960:8991  address(token).code.length == 0 */\n      iszero\n        /* \"@openzeppelin/contracts/token/ERC20/utils/SafeERC20.sol\":8942:9010  returnSize == 0 ? address(token).code.length == 0 : returnValue != 1 */\n    tag_267:\n        /* \"@openzeppelin/contracts/token/ERC20/utils/SafeERC20.sol\":8938:9084  if (returnSize == 0 ? address(token).code.length == 0 : returnValue != 1) {... */\n      iszero\n      tag_260\n      jumpi\n        /* \"@openzeppelin/contracts/token/ERC20/utils/SafeERC20.sol\":9033:9073  SafeERC20FailedOperation(address(token)) */\n      mload(0x40)\n      shl(0xe0, 0x5274afe7)\n      dup2\n      mstore\n      sub(shl(0xa0, 0x01), 0x01)\n        /* \"#utility.yul\":3556:3611   */\n      dup6\n      and\n        /* \"@openzeppelin/contracts/token/ERC20/utils/SafeERC20.sol\":9033:9073  SafeERC20FailedOperation(address(token)) */\n      0x04\n      dup3\n      add\n        /* \"#utility.yul\":3538:3612   */\n      mstore\n        /* \"#utility.yul\":3511:3529   */\n      0x24\n      add\n        /* \"@openzeppelin/contracts/token/ERC20/utils/SafeERC20.sol\":9033:9073  SafeERC20FailedOperation(address(token)) */\n      tag_120\n        /* \"#utility.yul\":3364:3618   */\n      jump\n    tag_234:\n      mload(0x40)\n      dup1\n      0x60\n      add\n      0x40\n      mstore\n      dup1\n      0x00\n      dup1\n      not\n      and\n      dup2\n      mstore\n      0x20\n      add\n      and(0xffffffffffffffff, 0x00)\n      dup2\n      mstore\n      0x20\n      add\n      tag_270\n      mload(0x40)\n      dup1\n      0x40\n      add\n      0x40\n      mstore\n      dup1\n      0x00\n      dup2\n      mstore\n      0x20\n      add\n      0x00\n      dup2\n      mstore\n      pop\n      swap1\n      jump\n    tag_270:\n      swap1\n      mstore\n      swap1\n      jump\t// out\n        /* \"#utility.yul\":14:168   */\n    tag_271:\n        /* \"#utility.yul\":73:78   */\n      0x00\n        /* \"#utility.yul\":118:120   */\n      0x60\n        /* \"#utility.yul\":109:115   */\n      dup3\n        /* \"#utility.yul\":104:107   */\n      dup5\n        /* \"#utility.yul\":100:116   */\n      sub\n        /* \"#utility.yul\":96:121   */\n      slt\n        /* \"#utility.yul\":93:138   */\n      iszero\n      tag_286\n      jumpi\n        /* \"#utility.yul\":134:135   */\n      0x00\n        /* \"#utility.yul\":131:132   */\n      dup1\n        /* \"#utility.yul\":124:136   */\n      revert\n        /* \"#utility.yul\":93:138   */\n    tag_286:\n      pop\n        /* \"#utility.yul\":156:162   */\n      swap2\n        /* \"#utility.yul\":14:168   */\n      swap1\n      pop\n      jump\t// out\n        /* \"#utility.yul\":173:520   */\n    tag_272:\n        /* \"#utility.yul\":224:232   */\n      0x00\n        /* \"#utility.yul\":234:240   */\n      dup1\n        /* \"#utility.yul\":288:291   */\n      dup4\n        /* \"#utility.yul\":281:285   */\n      0x1f\n        /* \"#utility.yul\":273:279   */\n      dup5\n        /* \"#utility.yul\":269:286   */\n      add\n        /* \"#utility.yul\":265:292   */\n      slt\n        /* \"#utility.yul\":255:310   */\n      tag_288\n      jumpi\n        /* \"#utility.yul\":306:307   */\n      0x00\n        /* \"#utility.yul\":303:304   */\n      dup1\n        /* \"#utility.yul\":296:308   */\n      revert\n        /* \"#utility.yul\":255:310   */\n    tag_288:\n      pop\n        /* \"#utility.yul\":329:349   */\n      dup2\n      calldataload\n        /* \"#utility.yul\":372:390   */\n      0xffffffffffffffff\n        /* \"#utility.yul\":361:391   */\n      dup2\n      gt\n        /* \"#utility.yul\":358:408   */\n      iszero\n      tag_289\n      jumpi\n        /* \"#utility.yul\":404:405   */\n      0x00\n        /* \"#utility.yul\":401:402   */\n      dup1\n        /* \"#utility.yul\":394:406   */\n      revert\n        /* \"#utility.yul\":358:408   */\n    tag_289:\n        /* \"#utility.yul\":441:445   */\n      0x20\n        /* \"#utility.yul\":433:439   */\n      dup4\n        /* \"#utility.yul\":429:446   */\n      add\n        /* \"#utility.yul\":417:446   */\n      swap2\n      pop\n        /* \"#utility.yul\":493:496   */\n      dup4\n        /* \"#utility.yul\":486:490   */\n      0x20\n        /* \"#utility.yul\":477:483   */\n      dup3\n        /* \"#utility.yul\":469:475   */\n      dup6\n        /* \"#utility.yul\":465:484   */\n      add\n        /* \"#utility.yul\":461:491   */\n      add\n        /* \"#utility.yul\":458:497   */\n      gt\n        /* \"#utility.yul\":455:514   */\n      iszero\n      tag_290\n      jumpi\n        /* \"#utility.yul\":510:511   */\n      0x00\n        /* \"#utility.yul\":507:508   */\n      dup1\n        /* \"#utility.yul\":500:512   */\n      revert\n        /* \"#utility.yul\":455:514   */\n    tag_290:\n        /* \"#utility.yul\":173:520   */\n      swap3\n      pop\n      swap3\n      swap1\n      pop\n      jump\t// out\n        /* \"#utility.yul\":525:679   */\n    tag_273:\n      sub(shl(0xa0, 0x01), 0x01)\n        /* \"#utility.yul\":604:609   */\n      dup2\n        /* \"#utility.yul\":600:654   */\n      and\n        /* \"#utility.yul\":593:598   */\n      dup2\n        /* \"#utility.yul\":590:655   */\n      eq\n        /* \"#utility.yul\":580:673   */\n      tag_197\n      jumpi\n        /* \"#utility.yul\":669:670   */\n      0x00\n        /* \"#utility.yul\":666:667   */\n      dup1\n        /* \"#utility.yul\":659:671   */\n      revert\n        /* \"#utility.yul\":684:1777   */\n    tag_28:\n        /* \"#utility.yul\":825:831   */\n      0x00\n        /* \"#utility.yul\":833:839   */\n      dup1\n        /* \"#utility.yul\":841:847   */\n      0x00\n        /* \"#utility.yul\":849:855   */\n      dup1\n        /* \"#utility.yul\":857:863   */\n      0x00\n        /* \"#utility.yul\":865:871   */\n      dup1\n        /* \"#utility.yul\":873:879   */\n      0x00\n        /* \"#utility.yul\":926:929   */\n      0xe0\n        /* \"#utility.yul\":914:923   */\n      dup9\n        /* \"#utility.yul\":905:912   */\n      dup11\n        /* \"#utility.yul\":901:924   */\n      sub\n        /* \"#utility.yul\":897:930   */\n      slt\n        /* \"#utility.yul\":894:947   */\n      iszero\n      tag_294\n      jumpi\n        /* \"#utility.yul\":943:944   */\n      0x00\n        /* \"#utility.yul\":940:941   */\n      dup1\n        /* \"#utility.yul\":933:945   */\n      revert\n        /* \"#utility.yul\":894:947   */\n    tag_294:\n        /* \"#utility.yul\":966:1019   */\n      tag_295\n        /* \"#utility.yul\":1011:1018   */\n      dup10\n        /* \"#utility.yul\":1000:1009   */\n      dup10\n        /* \"#utility.yul\":966:1019   */\n      tag_271\n      jump\t// in\n    tag_295:\n        /* \"#utility.yul\":956:1019   */\n      swap7\n      pop\n        /* \"#utility.yul\":1088:1090   */\n      0x60\n        /* \"#utility.yul\":1073:1091   */\n      dup9\n      add\n        /* \"#utility.yul\":1060:1092   */\n      calldataload\n      swap6\n      pop\n        /* \"#utility.yul\":1167:1170   */\n      0x80\n        /* \"#utility.yul\":1152:1171   */\n      dup9\n      add\n        /* \"#utility.yul\":1139:1172   */\n      calldataload\n        /* \"#utility.yul\":1195:1213   */\n      0xffffffffffffffff\n        /* \"#utility.yul\":1184:1214   */\n      dup2\n      gt\n        /* \"#utility.yul\":1181:1231   */\n      iszero\n      tag_296\n      jumpi\n        /* \"#utility.yul\":1227:1228   */\n      0x00\n        /* \"#utility.yul\":1224:1225   */\n      dup1\n        /* \"#utility.yul\":1217:1229   */\n      revert\n        /* \"#utility.yul\":1181:1231   */\n    tag_296:\n        /* \"#utility.yul\":1266:1324   */\n      tag_297\n        /* \"#utility.yul\":1316:1323   */\n      dup11\n        /* \"#utility.yul\":1307:1313   */\n      dup3\n        /* \"#utility.yul\":1296:1305   */\n      dup12\n        /* \"#utility.yul\":1292:1314   */\n      add\n        /* \"#utility.yul\":1266:1324   */\n      tag_272\n      jump\t// in\n    tag_297:\n        /* \"#utility.yul\":1343:1351   */\n      swap1\n      swap7\n      pop\n        /* \"#utility.yul\":1240:1324   */\n      swap5\n      pop\n      pop\n        /* \"#utility.yul\":1430:1433   */\n      0xa0\n        /* \"#utility.yul\":1415:1434   */\n      dup9\n      add\n        /* \"#utility.yul\":1402:1435   */\n      calldataload\n        /* \"#utility.yul\":1444:1477   */\n      tag_298\n        /* \"#utility.yul\":1402:1435   */\n      dup2\n        /* \"#utility.yul\":1444:1477   */\n      tag_273\n      jump\t// in\n    tag_298:\n        /* \"#utility.yul\":1496:1503   */\n      swap3\n      pop\n        /* \"#utility.yul\":1556:1559   */\n      0xc0\n        /* \"#utility.yul\":1541:1560   */\n      dup9\n      add\n        /* \"#utility.yul\":1528:1561   */\n      calldataload\n        /* \"#utility.yul\":1586:1604   */\n      0xffffffffffffffff\n        /* \"#utility.yul\":1573:1605   */\n      dup2\n      gt\n        /* \"#utility.yul\":1570:1622   */\n      iszero\n      tag_299\n      jumpi\n        /* \"#utility.yul\":1618:1619   */\n      0x00\n        /* \"#utility.yul\":1615:1616   */\n      dup1\n        /* \"#utility.yul\":1608:1620   */\n      revert\n        /* \"#utility.yul\":1570:1622   */\n    tag_299:\n        /* \"#utility.yul\":1657:1717   */\n      tag_300\n        /* \"#utility.yul\":1709:1716   */\n      dup11\n        /* \"#utility.yul\":1698:1706   */\n      dup3\n        /* \"#utility.yul\":1687:1696   */\n      dup12\n        /* \"#utility.yul\":1683:1707   */\n      add\n        /* \"#utility.yul\":1657:1717   */\n      tag_272\n      jump\t// in\n    tag_300:\n        /* \"#utility.yul\":684:1777   */\n      swap9\n      swap12\n      swap8\n      swap11\n      pop\n      swap6\n      swap9\n      pop\n      swap4\n      swap7\n      swap3\n      swap6\n        /* \"#utility.yul\":1631:1717   */\n      swap3\n      swap4\n      pop\n      pop\n      pop\n        /* \"#utility.yul\":684:1777   */\n      jump\t// out\n        /* \"#utility.yul\":2081:2244   */\n    tag_274:\n        /* \"#utility.yul\":2148:2168   */\n      dup1\n      calldataload\n        /* \"#utility.yul\":2208:2218   */\n      0xffffffff\n        /* \"#utility.yul\":2197:2219   */\n      dup2\n      and\n        /* \"#utility.yul\":2187:2220   */\n      dup2\n      eq\n        /* \"#utility.yul\":2177:2238   */\n      tag_303\n      jumpi\n        /* \"#utility.yul\":2234:2235   */\n      0x00\n        /* \"#utility.yul\":2231:2232   */\n      dup1\n        /* \"#utility.yul\":2224:2236   */\n      revert\n        /* \"#utility.yul\":2177:2238   */\n    tag_303:\n        /* \"#utility.yul\":2081:2244   */\n      swap2\n      swap1\n      pop\n      jump\t// out\n        /* \"#utility.yul\":2249:2547   */\n    tag_38:\n        /* \"#utility.yul\":2316:2322   */\n      0x00\n        /* \"#utility.yul\":2324:2330   */\n      dup1\n        /* \"#utility.yul\":2377:2379   */\n      0x40\n        /* \"#utility.yul\":2365:2374   */\n      dup4\n        /* \"#utility.yul\":2356:2363   */\n      dup6\n        /* \"#utility.yul\":2352:2375   */\n      sub\n        /* \"#utility.yul\":2348:2380   */\n      slt\n        /* \"#utility.yul\":2345:2397   */\n      iszero\n      tag_305\n      jumpi\n        /* \"#utility.yul\":2393:2394   */\n      0x00\n        /* \"#utility.yul\":2390:2391   */\n      dup1\n        /* \"#utility.yul\":2383:2395   */\n      revert\n        /* \"#utility.yul\":2345:2397   */\n    tag_305:\n        /* \"#utility.yul\":2416:2444   */\n      tag_306\n        /* \"#utility.yul\":2434:2443   */\n      dup4\n        /* \"#utility.yul\":2416:2444   */\n      tag_274\n      jump\t// in\n    tag_306:\n        /* \"#utility.yul\":2406:2444   */\n      swap5\n        /* \"#utility.yul\":2513:2515   */\n      0x20\n        /* \"#utility.yul\":2498:2516   */\n      swap4\n      swap1\n      swap4\n      add\n        /* \"#utility.yul\":2485:2517   */\n      calldataload\n      swap4\n      pop\n      pop\n      pop\n        /* \"#utility.yul\":2249:2547   */\n      jump\t// out\n        /* \"#utility.yul\":2552:2952   */\n    tag_275:\n        /* \"#utility.yul\":2594:2597   */\n      0x00\n        /* \"#utility.yul\":2632:2637   */\n      dup2\n        /* \"#utility.yul\":2626:2638   */\n      mload\n        /* \"#utility.yul\":2659:2665   */\n      dup1\n        /* \"#utility.yul\":2654:2657   */\n      dup5\n        /* \"#utility.yul\":2647:2666   */\n      mstore\n        /* \"#utility.yul\":2684:2685   */\n      0x00\n        /* \"#utility.yul\":2694:2833   */\n    tag_308:\n        /* \"#utility.yul\":2708:2714   */\n      dup2\n        /* \"#utility.yul\":2705:2706   */\n      dup2\n        /* \"#utility.yul\":2702:2715   */\n      lt\n        /* \"#utility.yul\":2694:2833   */\n      iszero\n      tag_310\n      jumpi\n        /* \"#utility.yul\":2816:2820   */\n      0x20\n        /* \"#utility.yul\":2801:2814   */\n      dup2\n      dup6\n      add\n        /* \"#utility.yul\":2797:2821   */\n      dup2\n      add\n        /* \"#utility.yul\":2791:2822   */\n      mload\n        /* \"#utility.yul\":2771:2782   */\n      dup7\n      dup4\n      add\n        /* \"#utility.yul\":2767:2789   */\n      dup3\n      add\n        /* \"#utility.yul\":2760:2823   */\n      mstore\n        /* \"#utility.yul\":2723:2735   */\n      add\n        /* \"#utility.yul\":2694:2833   */\n      jump(tag_308)\n    tag_310:\n        /* \"#utility.yul\":2698:2701   */\n      pop\n        /* \"#utility.yul\":2878:2879   */\n      0x00\n        /* \"#utility.yul\":2871:2875   */\n      0x20\n        /* \"#utility.yul\":2862:2868   */\n      dup3\n        /* \"#utility.yul\":2857:2860   */\n      dup7\n        /* \"#utility.yul\":2853:2869   */\n      add\n        /* \"#utility.yul\":2849:2876   */\n      add\n        /* \"#utility.yul\":2842:2880   */\n      mstore\n        /* \"#utility.yul\":2941:2945   */\n      0x20\n        /* \"#utility.yul\":2934:2936   */\n      0x1f\n        /* \"#utility.yul\":2930:2937   */\n      not\n        /* \"#utility.yul\":2925:2927   */\n      0x1f\n        /* \"#utility.yul\":2917:2923   */\n      dup4\n        /* \"#utility.yul\":2913:2928   */\n      add\n        /* \"#utility.yul\":2909:2938   */\n      and\n        /* \"#utility.yul\":2904:2907   */\n      dup6\n        /* \"#utility.yul\":2900:2939   */\n      add\n        /* \"#utility.yul\":2896:2946   */\n      add\n        /* \"#utility.yul\":2889:2946   */\n      swap2\n      pop\n      pop\n        /* \"#utility.yul\":2552:2952   */\n      swap3\n      swap2\n      pop\n      pop\n      jump\t// out\n        /* \"#utility.yul\":2957:3177   */\n    tag_47:\n        /* \"#utility.yul\":3106:3108   */\n      0x20\n        /* \"#utility.yul\":3095:3104   */\n      dup2\n        /* \"#utility.yul\":3088:3109   */\n      mstore\n        /* \"#utility.yul\":3069:3073   */\n      0x00\n        /* \"#utility.yul\":3126:3171   */\n      tag_312\n        /* \"#utility.yul\":3167:3169   */\n      0x20\n        /* \"#utility.yul\":3156:3165   */\n      dup4\n        /* \"#utility.yul\":3152:3170   */\n      add\n        /* \"#utility.yul\":3144:3150   */\n      dup5\n        /* \"#utility.yul\":3126:3171   */\n      tag_275\n      jump\t// in\n    tag_312:\n        /* \"#utility.yul\":3118:3171   */\n      swap4\n        /* \"#utility.yul\":2957:3177   */\n      swap3\n      pop\n      pop\n      pop\n      jump\t// out\n        /* \"#utility.yul\":3623:4408   */\n    tag_63:\n        /* \"#utility.yul\":3722:3728   */\n      0x00\n        /* \"#utility.yul\":3730:3736   */\n      dup1\n        /* \"#utility.yul\":3738:3744   */\n      0x00\n        /* \"#utility.yul\":3746:3752   */\n      dup1\n        /* \"#utility.yul\":3754:3760   */\n      0x00\n        /* \"#utility.yul\":3807:3809   */\n      0x60\n        /* \"#utility.yul\":3795:3804   */\n      dup7\n        /* \"#utility.yul\":3786:3793   */\n      dup9\n        /* \"#utility.yul\":3782:3805   */\n      sub\n        /* \"#utility.yul\":3778:3810   */\n      slt\n        /* \"#utility.yul\":3775:3827   */\n      iszero\n      tag_316\n      jumpi\n        /* \"#utility.yul\":3823:3824   */\n      0x00\n        /* \"#utility.yul\":3820:3821   */\n      dup1\n        /* \"#utility.yul\":3813:3825   */\n      revert\n        /* \"#utility.yul\":3775:3827   */\n    tag_316:\n        /* \"#utility.yul\":3846:3874   */\n      tag_317\n        /* \"#utility.yul\":3864:3873   */\n      dup7\n        /* \"#utility.yul\":3846:3874   */\n      tag_274\n      jump\t// in\n    tag_317:\n        /* \"#utility.yul\":3836:3874   */\n      swap5\n      pop\n        /* \"#utility.yul\":3925:3927   */\n      0x20\n        /* \"#utility.yul\":3914:3923   */\n      dup7\n        /* \"#utility.yul\":3910:3928   */\n      add\n        /* \"#utility.yul\":3897:3929   */\n      calldataload\n        /* \"#utility.yul\":3952:3970   */\n      0xffffffffffffffff\n        /* \"#utility.yul\":3944:3950   */\n      dup2\n        /* \"#utility.yul\":3941:3971   */\n      gt\n        /* \"#utility.yul\":3938:3988   */\n      iszero\n      tag_318\n      jumpi\n        /* \"#utility.yul\":3984:3985   */\n      0x00\n        /* \"#utility.yul\":3981:3982   */\n      dup1\n        /* \"#utility.yul\":3974:3986   */\n      revert\n        /* \"#utility.yul\":3938:3988   */\n    tag_318:\n        /* \"#utility.yul\":4023:4081   */\n      tag_319\n        /* \"#utility.yul\":4073:4080   */\n      dup9\n        /* \"#utility.yul\":4064:4070   */\n      dup3\n        /* \"#utility.yul\":4053:4062   */\n      dup10\n        /* \"#utility.yul\":4049:4071   */\n      add\n        /* \"#utility.yul\":4023:4081   */\n      tag_272\n      jump\t// in\n    tag_319:\n        /* \"#utility.yul\":4100:4108   */\n      swap1\n      swap6\n      pop\n        /* \"#utility.yul\":3997:4081   */\n      swap4\n      pop\n      pop\n        /* \"#utility.yul\":4188:4190   */\n      0x40\n        /* \"#utility.yul\":4173:4191   */\n      dup7\n      add\n        /* \"#utility.yul\":4160:4192   */\n      calldataload\n        /* \"#utility.yul\":4217:4235   */\n      0xffffffffffffffff\n        /* \"#utility.yul\":4204:4236   */\n      dup2\n      gt\n        /* \"#utility.yul\":4201:4253   */\n      iszero\n      tag_320\n      jumpi\n        /* \"#utility.yul\":4249:4250   */\n      0x00\n        /* \"#utility.yul\":4246:4247   */\n      dup1\n        /* \"#utility.yul\":4239:4251   */\n      revert\n        /* \"#utility.yul\":4201:4253   */\n    tag_320:\n        /* \"#utility.yul\":4288:4348   */\n      tag_321\n        /* \"#utility.yul\":4340:4347   */\n      dup9\n        /* \"#utility.yul\":4329:4337   */\n      dup3\n        /* \"#utility.yul\":4318:4327   */\n      dup10\n        /* \"#utility.yul\":4314:4338   */\n      add\n        /* \"#utility.yul\":4288:4348   */\n      tag_272\n      jump\t// in\n    tag_321:\n        /* \"#utility.yul\":3623:4408   */\n      swap7\n      swap10\n      swap6\n      swap9\n      pop\n      swap4\n      swap7\n      pop\n        /* \"#utility.yul\":4367:4375   */\n      swap3\n      swap5\n        /* \"#utility.yul\":4262:4348   */\n      swap4\n        /* \"#utility.yul\":3623:4408   */\n      swap3\n      pop\n      pop\n      pop\n      jump\t// out\n        /* \"#utility.yul\":4618:5286   */\n    tag_74:\n        /* \"#utility.yul\":4730:4736   */\n      0x00\n        /* \"#utility.yul\":4738:4744   */\n      dup1\n        /* \"#utility.yul\":4746:4752   */\n      0x00\n        /* \"#utility.yul\":4754:4760   */\n      dup1\n        /* \"#utility.yul\":4807:4810   */\n      0xa0\n        /* \"#utility.yul\":4795:4804   */\n      dup6\n        /* \"#utility.yul\":4786:4793   */\n      dup8\n        /* \"#utility.yul\":4782:4805   */\n      sub\n        /* \"#utility.yul\":4778:4811   */\n      slt\n        /* \"#utility.yul\":4775:4828   */\n      iszero\n      tag_324\n      jumpi\n        /* \"#utility.yul\":4824:4825   */\n      0x00\n        /* \"#utility.yul\":4821:4822   */\n      dup1\n        /* \"#utility.yul\":4814:4826   */\n      revert\n        /* \"#utility.yul\":4775:4828   */\n    tag_324:\n        /* \"#utility.yul\":4847:4900   */\n      tag_325\n        /* \"#utility.yul\":4892:4899   */\n      dup7\n        /* \"#utility.yul\":4881:4890   */\n      dup7\n        /* \"#utility.yul\":4847:4900   */\n      tag_271\n      jump\t// in\n    tag_325:\n        /* \"#utility.yul\":4837:4900   */\n      swap4\n      pop\n        /* \"#utility.yul\":4951:4953   */\n      0x60\n        /* \"#utility.yul\":4940:4949   */\n      dup6\n        /* \"#utility.yul\":4936:4954   */\n      add\n        /* \"#utility.yul\":4923:4955   */\n      calldataload\n        /* \"#utility.yul\":4978:4996   */\n      0xffffffffffffffff\n        /* \"#utility.yul\":4970:4976   */\n      dup2\n        /* \"#utility.yul\":4967:4997   */\n      gt\n        /* \"#utility.yul\":4964:5014   */\n      iszero\n      tag_326\n      jumpi\n        /* \"#utility.yul\":5010:5011   */\n      0x00\n        /* \"#utility.yul\":5007:5008   */\n      dup1\n        /* \"#utility.yul\":5000:5012   */\n      revert\n        /* \"#utility.yul\":4964:5014   */\n    tag_326:\n        /* \"#utility.yul\":5049:5107   */\n      tag_327\n        /* \"#utility.yul\":5099:5106   */\n      dup8\n        /* \"#utility.yul\":5090:5096   */\n      dup3\n        /* \"#utility.yul\":5079:5088   */\n      dup9\n        /* \"#utility.yul\":5075:5097   */\n      add\n        /* \"#utility.yul\":5049:5107   */\n      tag_272\n      jump\t// in\n    tag_327:\n        /* \"#utility.yul\":5126:5134   */\n      swap1\n      swap5\n      pop\n        /* \"#utility.yul\":5023:5107   */\n      swap3\n      pop\n      pop\n        /* \"#utility.yul\":5211:5214   */\n      0x80\n        /* \"#utility.yul\":5196:5215   */\n      dup6\n      add\n        /* \"#utility.yul\":5183:5216   */\n      calldataload\n        /* \"#utility.yul\":5225:5256   */\n      tag_328\n        /* \"#utility.yul\":5183:5216   */\n      dup2\n        /* \"#utility.yul\":5225:5256   */\n      tag_273\n      jump\t// in\n    tag_328:\n        /* \"#utility.yul\":4618:5286   */\n      swap4\n      swap7\n      swap3\n      swap6\n      pop\n      swap1\n      swap4\n      pop\n      pop\n      jump\t// out\n        /* \"#utility.yul\":5714:5898   */\n    tag_86:\n        /* \"#utility.yul\":5772:5778   */\n      0x00\n        /* \"#utility.yul\":5825:5827   */\n      0x20\n        /* \"#utility.yul\":5813:5822   */\n      dup3\n        /* \"#utility.yul\":5804:5811   */\n      dup5\n        /* \"#utility.yul\":5800:5823   */\n      sub\n        /* \"#utility.yul\":5796:5828   */\n      slt\n        /* \"#utility.yul\":5793:5845   */\n      iszero\n      tag_332\n      jumpi\n        /* \"#utility.yul\":5841:5842   */\n      0x00\n        /* \"#utility.yul\":5838:5839   */\n      dup1\n        /* \"#utility.yul\":5831:5843   */\n      revert\n        /* \"#utility.yul\":5793:5845   */\n    tag_332:\n        /* \"#utility.yul\":5864:5892   */\n      tag_312\n        /* \"#utility.yul\":5882:5891   */\n      dup3\n        /* \"#utility.yul\":5864:5892   */\n      tag_274\n      jump\t// in\n        /* \"#utility.yul\":6085:6265   */\n    tag_93:\n        /* \"#utility.yul\":6144:6150   */\n      0x00\n        /* \"#utility.yul\":6197:6199   */\n      0x20\n        /* \"#utility.yul\":6185:6194   */\n      dup3\n        /* \"#utility.yul\":6176:6183   */\n      dup5\n        /* \"#utility.yul\":6172:6195   */\n      sub\n        /* \"#utility.yul\":6168:6200   */\n      slt\n        /* \"#utility.yul\":6165:6217   */\n      iszero\n      tag_336\n      jumpi\n        /* \"#utility.yul\":6213:6214   */\n      0x00\n        /* \"#utility.yul\":6210:6211   */\n      dup1\n        /* \"#utility.yul\":6203:6215   */\n      revert\n        /* \"#utility.yul\":6165:6217   */\n    tag_336:\n      pop\n        /* \"#utility.yul\":6236:6259   */\n      calldataload\n      swap2\n        /* \"#utility.yul\":6085:6265   */\n      swap1\n      pop\n      jump\t// out\n        /* \"#utility.yul\":6270:6517   */\n    tag_99:\n        /* \"#utility.yul\":6329:6335   */\n      0x00\n        /* \"#utility.yul\":6382:6384   */\n      0x20\n        /* \"#utility.yul\":6370:6379   */\n      dup3\n        /* \"#utility.yul\":6361:6368   */\n      dup5\n        /* \"#utility.yul\":6357:6380   */\n      sub\n        /* \"#utility.yul\":6353:6385   */\n      slt\n        /* \"#utility.yul\":6350:6402   */\n      iszero\n      tag_338\n      jumpi\n        /* \"#utility.yul\":6398:6399   */\n      0x00\n        /* \"#utility.yul\":6395:6396   */\n      dup1\n        /* \"#utility.yul\":6388:6400   */\n      revert\n        /* \"#utility.yul\":6350:6402   */\n    tag_338:\n        /* \"#utility.yul\":6437:6446   */\n      dup2\n        /* \"#utility.yul\":6424:6447   */\n      calldataload\n        /* \"#utility.yul\":6456:6487   */\n      tag_312\n        /* \"#utility.yul\":6481:6486   */\n      dup2\n        /* \"#utility.yul\":6456:6487   */\n      tag_273\n      jump\t// in\n        /* \"#utility.yul\":6522:7469   */\n    tag_108:\n        /* \"#utility.yul\":6627:6633   */\n      0x00\n        /* \"#utility.yul\":6635:6641   */\n      dup1\n        /* \"#utility.yul\":6643:6649   */\n      0x00\n        /* \"#utility.yul\":6651:6657   */\n      dup1\n        /* \"#utility.yul\":6659:6665   */\n      0x00\n        /* \"#utility.yul\":6667:6673   */\n      dup1\n        /* \"#utility.yul\":6720:6723   */\n      0x80\n        /* \"#utility.yul\":6708:6717   */\n      dup8\n        /* \"#utility.yul\":6699:6706   */\n      dup10\n        /* \"#utility.yul\":6695:6718   */\n      sub\n        /* \"#utility.yul\":6691:6724   */\n      slt\n        /* \"#utility.yul\":6688:6741   */\n      iszero\n      tag_341\n      jumpi\n        /* \"#utility.yul\":6737:6738   */\n      0x00\n        /* \"#utility.yul\":6734:6735   */\n      dup1\n        /* \"#utility.yul\":6727:6739   */\n      revert\n        /* \"#utility.yul\":6688:6741   */\n    tag_341:\n        /* \"#utility.yul\":6760:6788   */\n      tag_342\n        /* \"#utility.yul\":6778:6787   */\n      dup8\n        /* \"#utility.yul\":6760:6788   */\n      tag_274\n      jump\t// in\n    tag_342:\n        /* \"#utility.yul\":6750:6788   */\n      swap6\n      pop\n        /* \"#utility.yul\":6839:6841   */\n      0x20\n        /* \"#utility.yul\":6828:6837   */\n      dup8\n        /* \"#utility.yul\":6824:6842   */\n      add\n        /* \"#utility.yul\":6811:6843   */\n      calldataload\n        /* \"#utility.yul\":6866:6884   */\n      0xffffffffffffffff\n        /* \"#utility.yul\":6858:6864   */\n      dup2\n        /* \"#utility.yul\":6855:6885   */\n      gt\n        /* \"#utility.yul\":6852:6902   */\n      iszero\n      tag_343\n      jumpi\n        /* \"#utility.yul\":6898:6899   */\n      0x00\n        /* \"#utility.yul\":6895:6896   */\n      dup1\n        /* \"#utility.yul\":6888:6900   */\n      revert\n        /* \"#utility.yul\":6852:6902   */\n    tag_343:\n        /* \"#utility.yul\":6937:6995   */\n      tag_344\n        /* \"#utility.yul\":6987:6994   */\n      dup10\n        /* \"#utility.yul\":6978:6984   */\n      dup3\n        /* \"#utility.yul\":6967:6976   */\n      dup11\n        /* \"#utility.yul\":6963:6985   */\n      add\n        /* \"#utility.yul\":6937:6995   */\n      tag_272\n      jump\t// in\n    tag_344:\n        /* \"#utility.yul\":7014:7022   */\n      swap1\n      swap7\n      pop\n        /* \"#utility.yul\":6911:6995   */\n      swap5\n      pop\n      pop\n        /* \"#utility.yul\":7102:7104   */\n      0x40\n        /* \"#utility.yul\":7087:7105   */\n      dup8\n      add\n        /* \"#utility.yul\":7074:7106   */\n      calldataload\n        /* \"#utility.yul\":7131:7149   */\n      0xffffffffffffffff\n        /* \"#utility.yul\":7118:7150   */\n      dup2\n      gt\n        /* \"#utility.yul\":7115:7167   */\n      iszero\n      tag_345\n      jumpi\n        /* \"#utility.yul\":7163:7164   */\n      0x00\n        /* \"#utility.yul\":7160:7161   */\n      dup1\n        /* \"#utility.yul\":7153:7165   */\n      revert\n        /* \"#utility.yul\":7115:7167   */\n    tag_345:\n        /* \"#utility.yul\":7202:7262   */\n      tag_346\n        /* \"#utility.yul\":7254:7261   */\n      dup10\n        /* \"#utility.yul\":7243:7251   */\n      dup3\n        /* \"#utility.yul\":7232:7241   */\n      dup11\n        /* \"#utility.yul\":7228:7252   */\n      add\n        /* \"#utility.yul\":7202:7262   */\n      tag_272\n      jump\t// in\n    tag_346:\n        /* \"#utility.yul\":7281:7289   */\n      swap1\n      swap5\n      pop\n        /* \"#utility.yul\":7176:7262   */\n      swap3\n      pop\n      pop\n        /* \"#utility.yul\":7366:7368   */\n      0x60\n        /* \"#utility.yul\":7351:7369   */\n      dup8\n      add\n        /* \"#utility.yul\":7338:7370   */\n      calldataload\n        /* \"#utility.yul\":7406:7419   */\n      dup1\n      iszero\n        /* \"#utility.yul\":7399:7420   */\n      iszero\n        /* \"#utility.yul\":7389:7421   */\n      dup2\n      eq\n        /* \"#utility.yul\":7379:7439   */\n      tag_347\n      jumpi\n        /* \"#utility.yul\":7435:7436   */\n      0x00\n        /* \"#utility.yul\":7432:7433   */\n      dup1\n        /* \"#utility.yul\":7425:7437   */\n      revert\n        /* \"#utility.yul\":7379:7439   */\n    tag_347:\n        /* \"#utility.yul\":7458:7463   */\n      dup1\n        /* \"#utility.yul\":7448:7463   */\n      swap2\n      pop\n      pop\n        /* \"#utility.yul\":6522:7469   */\n      swap3\n      swap6\n      pop\n      swap3\n      swap6\n      pop\n      swap3\n      swap6\n      jump\t// out\n        /* \"#utility.yul\":7782:8016   */\n    tag_115:\n        /* \"#utility.yul\":7865:7871   */\n      0x00\n        /* \"#utility.yul\":7918:7920   */\n      0x60\n        /* \"#utility.yul\":7906:7915   */\n      dup3\n        /* \"#utility.yul\":7897:7904   */\n      dup5\n        /* \"#utility.yul\":7893:7916   */\n      sub\n        /* \"#utility.yul\":7889:7921   */\n      slt\n        /* \"#utility.yul\":7886:7938   */\n      iszero\n      tag_350\n      jumpi\n        /* \"#utility.yul\":7934:7935   */\n      0x00\n        /* \"#utility.yul\":7931:7932   */\n      dup1\n        /* \"#utility.yul\":7924:7936   */\n      revert\n        /* \"#utility.yul\":7886:7938   */\n    tag_350:\n        /* \"#utility.yul\":7957:8010   */\n      tag_312\n        /* \"#utility.yul\":8002:8009   */\n      dup4\n        /* \"#utility.yul\":7991:8000   */\n      dup4\n        /* \"#utility.yul\":7957:8010   */\n      tag_271\n      jump\t// in\n        /* \"#utility.yul\":8985:9365   */\n    tag_151:\n        /* \"#utility.yul\":9064:9065   */\n      0x01\n        /* \"#utility.yul\":9060:9072   */\n      dup2\n      dup2\n      shr\n      swap1\n        /* \"#utility.yul\":9107:9119   */\n      dup3\n      and\n      dup1\n        /* \"#utility.yul\":9128:9189   */\n      tag_356\n      jumpi\n        /* \"#utility.yul\":9182:9186   */\n      0x7f\n        /* \"#utility.yul\":9174:9180   */\n      dup3\n        /* \"#utility.yul\":9170:9187   */\n      and\n        /* \"#utility.yul\":9160:9187   */\n      swap2\n      pop\n        /* \"#utility.yul\":9128:9189   */\n    tag_356:\n        /* \"#utility.yul\":9235:9237   */\n      0x20\n        /* \"#utility.yul\":9227:9233   */\n      dup3\n        /* \"#utility.yul\":9224:9238   */\n      lt\n        /* \"#utility.yul\":9204:9222   */\n      dup2\n        /* \"#utility.yul\":9201:9239   */\n      sub\n        /* \"#utility.yul\":9198:9359   */\n      tag_286\n      jumpi\n        /* \"#utility.yul\":9281:9291   */\n      0x4e487b71\n        /* \"#utility.yul\":9276:9279   */\n      0xe0\n        /* \"#utility.yul\":9272:9292   */\n      shl\n        /* \"#utility.yul\":9269:9270   */\n      0x00\n        /* \"#utility.yul\":9262:9293   */\n      mstore\n        /* \"#utility.yul\":9316:9320   */\n      0x22\n        /* \"#utility.yul\":9313:9314   */\n      0x04\n        /* \"#utility.yul\":9306:9321   */\n      mstore\n        /* \"#utility.yul\":9344:9348   */\n      0x24\n        /* \"#utility.yul\":9341:9342   */\n      0x00\n        /* \"#utility.yul\":9334:9349   */\n      revert\n        /* \"#utility.yul\":9370:9637   */\n    tag_276:\n        /* \"#utility.yul\":9459:9465   */\n      dup2\n        /* \"#utility.yul\":9454:9457   */\n      dup4\n        /* \"#utility.yul\":9447:9466   */\n      mstore\n        /* \"#utility.yul\":9511:9517   */\n      dup2\n        /* \"#utility.yul\":9504:9509   */\n      dup2\n        /* \"#utility.yul\":9497:9501   */\n      0x20\n        /* \"#utility.yul\":9492:9495   */\n      dup6\n        /* \"#utility.yul\":9488:9502   */\n      add\n        /* \"#utility.yul\":9475:9518   */\n      calldatacopy\n      pop\n        /* \"#utility.yul\":9563:9564   */\n      0x00\n        /* \"#utility.yul\":9538:9554   */\n      dup3\n      dup3\n      add\n        /* \"#utility.yul\":9556:9560   */\n      0x20\n        /* \"#utility.yul\":9534:9561   */\n      swap1\n      dup2\n      add\n        /* \"#utility.yul\":9527:9565   */\n      swap2\n      swap1\n      swap2\n      mstore\n        /* \"#utility.yul\":9619:9621   */\n      0x1f\n        /* \"#utility.yul\":9598:9613   */\n      swap1\n      swap2\n      add\n      not(0x1f)\n        /* \"#utility.yul\":9594:9623   */\n      and\n        /* \"#utility.yul\":9585:9624   */\n      swap1\n      swap2\n      add\n        /* \"#utility.yul\":9581:9631   */\n      add\n      swap1\n        /* \"#utility.yul\":9370:9637   */\n      jump\t// out\n        /* \"#utility.yul\":9642:10009   */\n    tag_163:\n        /* \"#utility.yul\":9829:9831   */\n      0x40\n        /* \"#utility.yul\":9818:9827   */\n      dup2\n        /* \"#utility.yul\":9811:9832   */\n      mstore\n        /* \"#utility.yul\":9792:9796   */\n      0x00\n        /* \"#utility.yul\":9849:9911   */\n      tag_360\n        /* \"#utility.yul\":9907:9909   */\n      0x40\n        /* \"#utility.yul\":9896:9905   */\n      dup4\n        /* \"#utility.yul\":9892:9910   */\n      add\n        /* \"#utility.yul\":9884:9890   */\n      dup6\n        /* \"#utility.yul\":9876:9882   */\n      dup8\n        /* \"#utility.yul\":9849:9911   */\n      tag_276\n      jump\t// in\n    tag_360:\n        /* \"#utility.yul\":9841:9911   */\n      swap1\n      pop\n      sub(shl(0xa0, 0x01), 0x01)\n        /* \"#utility.yul\":9951:9957   */\n      dup4\n        /* \"#utility.yul\":9947:10002   */\n      and\n        /* \"#utility.yul\":9942:9944   */\n      0x20\n        /* \"#utility.yul\":9931:9940   */\n      dup4\n        /* \"#utility.yul\":9927:9945   */\n      add\n        /* \"#utility.yul\":9920:10003   */\n      mstore\n        /* \"#utility.yul\":9642:10009   */\n      swap5\n      swap4\n      pop\n      pop\n      pop\n      pop\n      jump\t// out\n        /* \"#utility.yul\":10359:10591   */\n    tag_172:\n        /* \"#utility.yul\":10398:10401   */\n      0x00\n        /* \"#utility.yul\":10419:10436   */\n      0x01\n      dup3\n      add\n        /* \"#utility.yul\":10416:10556   */\n      tag_363\n      jumpi\n        /* \"#utility.yul\":10478:10488   */\n      0x4e487b71\n        /* \"#utility.yul\":10473:10476   */\n      0xe0\n        /* \"#utility.yul\":10469:10489   */\n      shl\n        /* \"#utility.yul\":10466:10467   */\n      0x00\n        /* \"#utility.yul\":10459:10490   */\n      mstore\n        /* \"#utility.yul\":10513:10517   */\n      0x11\n        /* \"#utility.yul\":10510:10511   */\n      0x04\n        /* \"#utility.yul\":10503:10518   */\n      mstore\n        /* \"#utility.yul\":10541:10545   */\n      0x24\n        /* \"#utility.yul\":10538:10539   */\n      0x00\n        /* \"#utility.yul\":10531:10546   */\n      revert\n        /* \"#utility.yul\":10416:10556   */\n    tag_363:\n      pop\n        /* \"#utility.yul\":10583:10584   */\n      0x01\n        /* \"#utility.yul\":10572:10585   */\n      add\n      swap1\n        /* \"#utility.yul\":10359:10591   */\n      jump\t// out\n        /* \"#utility.yul\":10596:10723   */\n    tag_277:\n        /* \"#utility.yul\":10657:10667   */\n      0x4e487b71\n        /* \"#utility.yul\":10652:10655   */\n      0xe0\n        /* \"#utility.yul\":10648:10668   */\n      shl\n        /* \"#utility.yul\":10645:10646   */\n      0x00\n        /* \"#utility.yul\":10638:10669   */\n      mstore\n        /* \"#utility.yul\":10688:10692   */\n      0x41\n        /* \"#utility.yul\":10685:10686   */\n      0x04\n        /* \"#utility.yul\":10678:10693   */\n      mstore\n        /* \"#utility.yul\":10712:10716   */\n      0x24\n        /* \"#utility.yul\":10709:10710   */\n      0x00\n        /* \"#utility.yul\":10702:10717   */\n      revert\n        /* \"#utility.yul\":10854:11372   */\n    tag_279:\n        /* \"#utility.yul\":10956:10958   */\n      0x1f\n        /* \"#utility.yul\":10951:10954   */\n      dup3\n        /* \"#utility.yul\":10948:10959   */\n      gt\n        /* \"#utility.yul\":10945:11366   */\n      iszero\n      tag_367\n      jumpi\n        /* \"#utility.yul\":10992:10997   */\n      dup1\n        /* \"#utility.yul\":10989:10990   */\n      0x00\n        /* \"#utility.yul\":10982:10998   */\n      mstore\n        /* \"#utility.yul\":11036:11040   */\n      0x20\n        /* \"#utility.yul\":11033:11034   */\n      0x00\n        /* \"#utility.yul\":11023:11041   */\n      keccak256\n        /* \"#utility.yul\":11106:11108   */\n      0x1f\n        /* \"#utility.yul\":11094:11104   */\n      dup5\n        /* \"#utility.yul\":11090:11109   */\n      add\n        /* \"#utility.yul\":11087:11088   */\n      0x05\n        /* \"#utility.yul\":11083:11110   */\n      shr\n        /* \"#utility.yul\":11077:11081   */\n      dup2\n        /* \"#utility.yul\":11073:11111   */\n      add\n        /* \"#utility.yul\":11142:11146   */\n      0x20\n        /* \"#utility.yul\":11130:11140   */\n      dup6\n        /* \"#utility.yul\":11127:11147   */\n      lt\n        /* \"#utility.yul\":11124:11171   */\n      iszero\n      tag_368\n      jumpi\n      pop\n        /* \"#utility.yul\":11165:11169   */\n      dup1\n        /* \"#utility.yul\":11124:11171   */\n    tag_368:\n        /* \"#utility.yul\":11220:11222   */\n      0x1f\n        /* \"#utility.yul\":11215:11218   */\n      dup5\n        /* \"#utility.yul\":11211:11223   */\n      add\n        /* \"#utility.yul\":11208:11209   */\n      0x05\n        /* \"#utility.yul\":11204:11224   */\n      shr\n        /* \"#utility.yul\":11198:11202   */\n      dup3\n        /* \"#utility.yul\":11194:11225   */\n      add\n        /* \"#utility.yul\":11184:11225   */\n      swap2\n      pop\n        /* \"#utility.yul\":11275:11356   */\n    tag_369:\n        /* \"#utility.yul\":11293:11295   */\n      dup2\n        /* \"#utility.yul\":11286:11291   */\n      dup2\n        /* \"#utility.yul\":11283:11296   */\n      lt\n        /* \"#utility.yul\":11275:11356   */\n      iszero\n      tag_191\n      jumpi\n        /* \"#utility.yul\":11352:11353   */\n      0x00\n        /* \"#utility.yul\":11338:11354   */\n      dup2\n      sstore\n        /* \"#utility.yul\":11319:11320   */\n      0x01\n        /* \"#utility.yul\":11308:11321   */\n      add\n        /* \"#utility.yul\":11275:11356   */\n      jump(tag_369)\n        /* \"#utility.yul\":10945:11366   */\n    tag_367:\n        /* \"#utility.yul\":10854:11372   */\n      pop\n      pop\n      pop\n      jump\t// out\n        /* \"#utility.yul\":11548:12754   */\n    tag_174:\n        /* \"#utility.yul\":11672:11690   */\n      0xffffffffffffffff\n        /* \"#utility.yul\":11667:11670   */\n      dup4\n        /* \"#utility.yul\":11664:11691   */\n      gt\n        /* \"#utility.yul\":11661:11714   */\n      iszero\n      tag_375\n      jumpi\n        /* \"#utility.yul\":11694:11712   */\n      tag_375\n      tag_277\n      jump\t// in\n    tag_375:\n        /* \"#utility.yul\":11723:11817   */\n      tag_376\n        /* \"#utility.yul\":11813:11816   */\n      dup4\n        /* \"#utility.yul\":11773:11811   */\n      tag_377\n        /* \"#utility.yul\":11805:11809   */\n      dup4\n        /* \"#utility.yul\":11799:11810   */\n      sload\n        /* \"#utility.yul\":11773:11811   */\n      tag_151\n      jump\t// in\n    tag_377:\n        /* \"#utility.yul\":11767:11771   */\n      dup4\n        /* \"#utility.yul\":11723:11817   */\n      tag_279\n      jump\t// in\n    tag_376:\n        /* \"#utility.yul\":11843:11844   */\n      0x00\n        /* \"#utility.yul\":11868:11870   */\n      0x1f\n        /* \"#utility.yul\":11863:11866   */\n      dup5\n        /* \"#utility.yul\":11860:11871   */\n      gt\n        /* \"#utility.yul\":11885:11886   */\n      0x01\n        /* \"#utility.yul\":11880:12496   */\n      dup2\n      eq\n      tag_379\n      jumpi\n        /* \"#utility.yul\":12540:12541   */\n      0x00\n        /* \"#utility.yul\":12557:12560   */\n      dup6\n        /* \"#utility.yul\":12554:12647   */\n      iszero\n      tag_380\n      jumpi\n      pop\n        /* \"#utility.yul\":12613:12632   */\n      dup4\n      dup3\n      add\n        /* \"#utility.yul\":12600:12633   */\n      calldataload\n        /* \"#utility.yul\":12554:12647   */\n    tag_380:\n      not(0x00)\n        /* \"#utility.yul\":11505:11506   */\n      0x03\n        /* \"#utility.yul\":11501:11512   */\n      dup8\n      swap1\n      shl\n        /* \"#utility.yul\":11497:11521   */\n      shr\n        /* \"#utility.yul\":11493:11522   */\n      not\n        /* \"#utility.yul\":11483:11523   */\n      and\n        /* \"#utility.yul\":11529:11530   */\n      0x01\n        /* \"#utility.yul\":11525:11536   */\n      dup7\n      swap1\n      shl\n        /* \"#utility.yul\":11480:11537   */\n      or\n        /* \"#utility.yul\":12660:12738   */\n      dup4\n      sstore\n        /* \"#utility.yul\":11853:12748   */\n      jump(tag_191)\n        /* \"#utility.yul\":11880:12496   */\n    tag_379:\n        /* \"#utility.yul\":10801:10802   */\n      0x00\n        /* \"#utility.yul\":10794:10808   */\n      dup4\n      dup2\n      mstore\n        /* \"#utility.yul\":10838:10842   */\n      0x20\n        /* \"#utility.yul\":10825:10843   */\n      swap1\n      keccak256\n      not(0x1f)\n        /* \"#utility.yul\":11916:11933   */\n      dup7\n      and\n      swap1\n        /* \"#utility.yul\":12017:12026   */\n      dup4\n        /* \"#utility.yul\":12039:12268   */\n    tag_383:\n        /* \"#utility.yul\":12053:12060   */\n      dup3\n        /* \"#utility.yul\":12050:12051   */\n      dup2\n        /* \"#utility.yul\":12047:12061   */\n      lt\n        /* \"#utility.yul\":12039:12268   */\n      iszero\n      tag_385\n      jumpi\n        /* \"#utility.yul\":12142:12161   */\n      dup7\n      dup6\n      add\n        /* \"#utility.yul\":12129:12162   */\n      calldataload\n        /* \"#utility.yul\":12114:12163   */\n      dup3\n      sstore\n        /* \"#utility.yul\":12249:12253   */\n      0x20\n        /* \"#utility.yul\":12234:12254   */\n      swap5\n      dup6\n      add\n      swap5\n        /* \"#utility.yul\":12202:12203   */\n      0x01\n        /* \"#utility.yul\":12190:12204   */\n      swap1\n      swap3\n      add\n      swap2\n        /* \"#utility.yul\":12069:12081   */\n      add\n        /* \"#utility.yul\":12039:12268   */\n      jump(tag_383)\n    tag_385:\n        /* \"#utility.yul\":12043:12046   */\n      pop\n        /* \"#utility.yul\":12296:12299   */\n      dup7\n        /* \"#utility.yul\":12287:12294   */\n      dup3\n        /* \"#utility.yul\":12284:12300   */\n      lt\n        /* \"#utility.yul\":12281:12440   */\n      iszero\n      tag_386\n      jumpi\n        /* \"#utility.yul\":12420:12421   */\n      0x00\n        /* \"#utility.yul\":12416:12422   */\n      not\n        /* \"#utility.yul\":12410:12413   */\n      0xf8\n        /* \"#utility.yul\":12404:12407   */\n      dup9\n        /* \"#utility.yul\":12401:12402   */\n      0x03\n        /* \"#utility.yul\":12397:12408   */\n      shl\n        /* \"#utility.yul\":12393:12414   */\n      and\n        /* \"#utility.yul\":12389:12423   */\n      shr\n        /* \"#utility.yul\":12385:12424   */\n      not\n        /* \"#utility.yul\":12372:12381   */\n      dup5\n        /* \"#utility.yul\":12367:12370   */\n      dup8\n        /* \"#utility.yul\":12363:12382   */\n      add\n        /* \"#utility.yul\":12350:12383   */\n      calldataload\n        /* \"#utility.yul\":12346:12425   */\n      and\n        /* \"#utility.yul\":12338:12344   */\n      dup2\n        /* \"#utility.yul\":12331:12426   */\n      sstore\n        /* \"#utility.yul\":12281:12440   */\n    tag_386:\n      pop\n      pop\n        /* \"#utility.yul\":12483:12484   */\n      0x01\n        /* \"#utility.yul\":12477:12480   */\n      dup6\n        /* \"#utility.yul\":12474:12475   */\n      0x01\n        /* \"#utility.yul\":12470:12481   */\n      shl\n        /* \"#utility.yul\":12466:12485   */\n      add\n        /* \"#utility.yul\":12460:12464   */\n      dup4\n        /* \"#utility.yul\":12453:12486   */\n      sstore\n        /* \"#utility.yul\":11853:12748   */\n      pop\n      pop\n        /* \"#utility.yul\":11548:12754   */\n      pop\n      pop\n      pop\n      jump\t// out\n        /* \"#utility.yul\":12759:13077   */\n    tag_176:\n        /* \"#utility.yul\":12946:12948   */\n      0x40\n        /* \"#utility.yul\":12935:12944   */\n      dup2\n        /* \"#utility.yul\":12928:12949   */\n      mstore\n        /* \"#utility.yul\":12909:12913   */\n      0x00\n        /* \"#utility.yul\":12966:13028   */\n      tag_388\n        /* \"#utility.yul\":13024:13026   */\n      0x40\n        /* \"#utility.yul\":13013:13022   */\n      dup4\n        /* \"#utility.yul\":13009:13027   */\n      add\n        /* \"#utility.yul\":13001:13007   */\n      dup6\n        /* \"#utility.yul\":12993:12999   */\n      dup8\n        /* \"#utility.yul\":12966:13028   */\n      tag_276\n      jump\t// in\n    tag_388:\n        /* \"#utility.yul\":12958:13028   */\n      swap1\n      pop\n        /* \"#utility.yul\":13064:13070   */\n      dup3\n        /* \"#utility.yul\":13059:13061   */\n      0x20\n        /* \"#utility.yul\":13048:13057   */\n      dup4\n        /* \"#utility.yul\":13044:13062   */\n      add\n        /* \"#utility.yul\":13037:13071   */\n      mstore\n        /* \"#utility.yul\":12759:13077   */\n      swap5\n      swap4\n      pop\n      pop\n      pop\n      pop\n      jump\t// out\n        /* \"#utility.yul\":13279:13554   */\n    tag_281:\n        /* \"#utility.yul\":13350:13352   */\n      0x40\n        /* \"#utility.yul\":13344:13353   */\n      mload\n        /* \"#utility.yul\":13415:13417   */\n      0x1f\n        /* \"#utility.yul\":13396:13409   */\n      dup3\n      add\n      not(0x1f)\n        /* \"#utility.yul\":13392:13419   */\n      and\n        /* \"#utility.yul\":13380:13420   */\n      dup2\n      add\n        /* \"#utility.yul\":13450:13468   */\n      0xffffffffffffffff\n        /* \"#utility.yul\":13435:13469   */\n      dup2\n      gt\n        /* \"#utility.yul\":13471:13493   */\n      dup3\n      dup3\n      lt\n        /* \"#utility.yul\":13432:13494   */\n      or\n        /* \"#utility.yul\":13429:13517   */\n      iszero\n      tag_392\n      jumpi\n        /* \"#utility.yul\":13497:13515   */\n      tag_392\n      tag_277\n      jump\t// in\n    tag_392:\n        /* \"#utility.yul\":13533:13535   */\n      0x40\n        /* \"#utility.yul\":13526:13548   */\n      mstore\n        /* \"#utility.yul\":13279:13554   */\n      swap2\n      swap1\n      pop\n      jump\t// out\n        /* \"#utility.yul\":13559:13701   */\n    tag_282:\n        /* \"#utility.yul\":13635:13655   */\n      dup1\n      calldataload\n        /* \"#utility.yul\":13664:13695   */\n      tag_303\n        /* \"#utility.yul\":13635:13655   */\n      dup2\n        /* \"#utility.yul\":13664:13695   */\n      tag_273\n      jump\t// in\n        /* \"#utility.yul\":13706:14574   */\n    tag_211:\n        /* \"#utility.yul\":13792:13798   */\n      0x00\n        /* \"#utility.yul\":13800:13806   */\n      dup1\n        /* \"#utility.yul\":13853:13855   */\n      0x40\n        /* \"#utility.yul\":13841:13850   */\n      dup4\n        /* \"#utility.yul\":13832:13839   */\n      dup6\n        /* \"#utility.yul\":13828:13851   */\n      sub\n        /* \"#utility.yul\":13824:13856   */\n      slt\n        /* \"#utility.yul\":13821:13873   */\n      iszero\n      tag_396\n      jumpi\n        /* \"#utility.yul\":13869:13870   */\n      0x00\n        /* \"#utility.yul\":13866:13867   */\n      dup1\n        /* \"#utility.yul\":13859:13871   */\n      revert\n        /* \"#utility.yul\":13821:13873   */\n    tag_396:\n        /* \"#utility.yul\":13909:13918   */\n      dup3\n        /* \"#utility.yul\":13896:13919   */\n      calldataload\n        /* \"#utility.yul\":13942:13960   */\n      0xffffffffffffffff\n        /* \"#utility.yul\":13934:13940   */\n      dup2\n        /* \"#utility.yul\":13931:13961   */\n      gt\n        /* \"#utility.yul\":13928:13978   */\n      iszero\n      tag_397\n      jumpi\n        /* \"#utility.yul\":13974:13975   */\n      0x00\n        /* \"#utility.yul\":13971:13972   */\n      dup1\n        /* \"#utility.yul\":13964:13976   */\n      revert\n        /* \"#utility.yul\":13928:13978   */\n    tag_397:\n        /* \"#utility.yul\":13997:14019   */\n      dup4\n      add\n        /* \"#utility.yul\":14050:14054   */\n      0x1f\n        /* \"#utility.yul\":14042:14055   */\n      dup2\n      add\n        /* \"#utility.yul\":14038:14065   */\n      dup6\n      sgt\n        /* \"#utility.yul\":14028:14083   */\n      tag_398\n      jumpi\n        /* \"#utility.yul\":14079:14080   */\n      0x00\n        /* \"#utility.yul\":14076:14077   */\n      dup1\n        /* \"#utility.yul\":14069:14081   */\n      revert\n        /* \"#utility.yul\":14028:14083   */\n    tag_398:\n        /* \"#utility.yul\":14119:14121   */\n      dup1\n        /* \"#utility.yul\":14106:14122   */\n      calldataload\n        /* \"#utility.yul\":14145:14163   */\n      0xffffffffffffffff\n        /* \"#utility.yul\":14137:14143   */\n      dup2\n        /* \"#utility.yul\":14134:14164   */\n      gt\n        /* \"#utility.yul\":14131:14187   */\n      iszero\n      tag_400\n      jumpi\n        /* \"#utility.yul\":14167:14185   */\n      tag_400\n      tag_277\n      jump\t// in\n    tag_400:\n        /* \"#utility.yul\":14209:14268   */\n      tag_401\n        /* \"#utility.yul\":14256:14258   */\n      0x1f\n        /* \"#utility.yul\":14233:14250   */\n      dup3\n      add\n      not(0x1f)\n        /* \"#utility.yul\":14229:14260   */\n      and\n        /* \"#utility.yul\":14262:14266   */\n      0x20\n        /* \"#utility.yul\":14225:14267   */\n      add\n        /* \"#utility.yul\":14209:14268   */\n      tag_281\n      jump\t// in\n    tag_401:\n        /* \"#utility.yul\":14291:14297   */\n      dup2\n        /* \"#utility.yul\":14284:14289   */\n      dup2\n        /* \"#utility.yul\":14277:14298   */\n      mstore\n        /* \"#utility.yul\":14341:14348   */\n      dup7\n        /* \"#utility.yul\":14334:14338   */\n      0x20\n        /* \"#utility.yul\":14325:14331   */\n      dup4\n        /* \"#utility.yul\":14321:14323   */\n      dup6\n        /* \"#utility.yul\":14317:14332   */\n      add\n        /* \"#utility.yul\":14313:14339   */\n      add\n        /* \"#utility.yul\":14310:14349   */\n      gt\n        /* \"#utility.yul\":14307:14366   */\n      iszero\n      tag_402\n      jumpi\n        /* \"#utility.yul\":14362:14363   */\n      0x00\n        /* \"#utility.yul\":14359:14360   */\n      dup1\n        /* \"#utility.yul\":14352:14364   */\n      revert\n        /* \"#utility.yul\":14307:14366   */\n    tag_402:\n        /* \"#utility.yul\":14421:14427   */\n      dup2\n        /* \"#utility.yul\":14414:14418   */\n      0x20\n        /* \"#utility.yul\":14410:14412   */\n      dup5\n        /* \"#utility.yul\":14406:14419   */\n      add\n        /* \"#utility.yul\":14399:14403   */\n      0x20\n        /* \"#utility.yul\":14392:14397   */\n      dup4\n        /* \"#utility.yul\":14388:14404   */\n      add\n        /* \"#utility.yul\":14375:14428   */\n      calldatacopy\n        /* \"#utility.yul\":14475:14476   */\n      0x00\n        /* \"#utility.yul\":14468:14472   */\n      0x20\n        /* \"#utility.yul\":14459:14465   */\n      dup4\n        /* \"#utility.yul\":14452:14457   */\n      dup4\n        /* \"#utility.yul\":14448:14466   */\n      add\n        /* \"#utility.yul\":14444:14473   */\n      add\n        /* \"#utility.yul\":14437:14477   */\n      mstore\n        /* \"#utility.yul\":14496:14501   */\n      dup1\n        /* \"#utility.yul\":14486:14501   */\n      swap5\n      pop\n      pop\n      pop\n      pop\n        /* \"#utility.yul\":14520:14568   */\n      tag_403\n        /* \"#utility.yul\":14562:14566   */\n      0x20\n        /* \"#utility.yul\":14551:14560   */\n      dup5\n        /* \"#utility.yul\":14547:14567   */\n      add\n        /* \"#utility.yul\":14520:14568   */\n      tag_282\n      jump\t// in\n    tag_403:\n        /* \"#utility.yul\":14510:14568   */\n      swap1\n      pop\n        /* \"#utility.yul\":13706:14574   */\n      swap3\n      pop\n      swap3\n      swap1\n      pop\n      jump\t// out\n        /* \"#utility.yul\":14579:15489   */\n    tag_228:\n        /* \"#utility.yul\":14798:14800   */\n      0x40\n        /* \"#utility.yul\":14787:14796   */\n      dup2\n        /* \"#utility.yul\":14780:14801   */\n      mstore\n        /* \"#utility.yul\":14856:14866   */\n      0xffffffff\n        /* \"#utility.yul\":14847:14853   */\n      dup4\n        /* \"#utility.yul\":14841:14854   */\n      mload\n        /* \"#utility.yul\":14837:14867   */\n      and\n        /* \"#utility.yul\":14832:14834   */\n      0x40\n        /* \"#utility.yul\":14821:14830   */\n      dup3\n        /* \"#utility.yul\":14817:14835   */\n      add\n        /* \"#utility.yul\":14810:14868   */\n      mstore\n        /* \"#utility.yul\":14922:14926   */\n      0x20\n        /* \"#utility.yul\":14914:14920   */\n      dup4\n        /* \"#utility.yul\":14910:14927   */\n      add\n        /* \"#utility.yul\":14904:14928   */\n      mload\n        /* \"#utility.yul\":14899:14901   */\n      0x60\n        /* \"#utility.yul\":14888:14897   */\n      dup3\n        /* \"#utility.yul\":14884:14902   */\n      add\n        /* \"#utility.yul\":14877:14929   */\n      mstore\n        /* \"#utility.yul\":14761:14765   */\n      0x00\n        /* \"#utility.yul\":14976:14978   */\n      0x40\n        /* \"#utility.yul\":14968:14974   */\n      dup5\n        /* \"#utility.yul\":14964:14979   */\n      add\n        /* \"#utility.yul\":14958:14980   */\n      mload\n        /* \"#utility.yul\":15017:15021   */\n      0xa0\n        /* \"#utility.yul\":15011:15014   */\n      0x80\n        /* \"#utility.yul\":15000:15009   */\n      dup5\n        /* \"#utility.yul\":14996:15015   */\n      add\n        /* \"#utility.yul\":14989:15022   */\n      mstore\n        /* \"#utility.yul\":15045:15097   */\n      tag_405\n        /* \"#utility.yul\":15092:15095   */\n      0xe0\n        /* \"#utility.yul\":15081:15090   */\n      dup5\n        /* \"#utility.yul\":15077:15096   */\n      add\n        /* \"#utility.yul\":15063:15075   */\n      dup3\n        /* \"#utility.yul\":15045:15097   */\n      tag_275\n      jump\t// in\n    tag_405:\n        /* \"#utility.yul\":15031:15097   */\n      swap1\n      pop\n        /* \"#utility.yul\":15146:15148   */\n      0x60\n        /* \"#utility.yul\":15138:15144   */\n      dup6\n        /* \"#utility.yul\":15134:15149   */\n      add\n        /* \"#utility.yul\":15128:15150   */\n      mload\n        /* \"#utility.yul\":15220:15222   */\n      0x3f\n        /* \"#utility.yul\":15216:15223   */\n      not\n        /* \"#utility.yul\":15204:15213   */\n      dup5\n        /* \"#utility.yul\":15196:15202   */\n      dup4\n        /* \"#utility.yul\":15192:15214   */\n      sub\n        /* \"#utility.yul\":15188:15224   */\n      add\n        /* \"#utility.yul\":15181:15185   */\n      0xa0\n        /* \"#utility.yul\":15170:15179   */\n      dup6\n        /* \"#utility.yul\":15166:15186   */\n      add\n        /* \"#utility.yul\":15159:15225   */\n      mstore\n        /* \"#utility.yul\":15248:15289   */\n      tag_406\n        /* \"#utility.yul\":15282:15288   */\n      dup3\n        /* \"#utility.yul\":15266:15280   */\n      dup3\n        /* \"#utility.yul\":15248:15289   */\n      tag_275\n      jump\t// in\n    tag_406:\n        /* \"#utility.yul\":15358:15361   */\n      0x80\n        /* \"#utility.yul\":15346:15362   */\n      swap7\n      swap1\n      swap7\n      add\n        /* \"#utility.yul\":15340:15363   */\n      mload\n        /* \"#utility.yul\":15333:15364   */\n      iszero\n        /* \"#utility.yul\":15326:15365   */\n      iszero\n        /* \"#utility.yul\":15320:15323   */\n      0xc0\n        /* \"#utility.yul\":15305:15324   */\n      dup6\n      add\n        /* \"#utility.yul\":15298:15366   */\n      mstore\n      pop\n      pop\n      pop\n      sub(shl(0xa0, 0x01), 0x01)\n        /* \"#utility.yul\":15427:15482   */\n      swap2\n      swap1\n      swap2\n      and\n        /* \"#utility.yul\":15420:15424   */\n      0x20\n        /* \"#utility.yul\":15405:15425   */\n      swap1\n      swap2\n      add\n        /* \"#utility.yul\":15398:15483   */\n      mstore\n        /* \"#utility.yul\":15234:15289   */\n      swap1\n        /* \"#utility.yul\":14579:15489   */\n      jump\t// out\n        /* \"#utility.yul\":15494:16096   */\n    tag_283:\n        /* \"#utility.yul\":15564:15569   */\n      0x00\n        /* \"#utility.yul\":15612:15616   */\n      0x40\n        /* \"#utility.yul\":15600:15609   */\n      dup3\n        /* \"#utility.yul\":15595:15598   */\n      dup5\n        /* \"#utility.yul\":15591:15610   */\n      sub\n        /* \"#utility.yul\":15587:15617   */\n      slt\n        /* \"#utility.yul\":15584:15634   */\n      iszero\n      tag_408\n      jumpi\n        /* \"#utility.yul\":15630:15631   */\n      0x00\n        /* \"#utility.yul\":15627:15628   */\n      dup1\n        /* \"#utility.yul\":15620:15632   */\n      revert\n        /* \"#utility.yul\":15584:15634   */\n    tag_408:\n        /* \"#utility.yul\":15683:15687   */\n      0x40\n        /* \"#utility.yul\":15677:15688   */\n      dup1\n      mload\n      swap1\n        /* \"#utility.yul\":15715:15732   */\n      dup2\n      add\n        /* \"#utility.yul\":15762:15780   */\n      0xffffffffffffffff\n        /* \"#utility.yul\":15747:15781   */\n      dup2\n      gt\n        /* \"#utility.yul\":15783:15805   */\n      dup3\n      dup3\n      lt\n        /* \"#utility.yul\":15744:15806   */\n      or\n        /* \"#utility.yul\":15741:15829   */\n      iszero\n      tag_410\n      jumpi\n        /* \"#utility.yul\":15809:15827   */\n      tag_410\n      tag_277\n      jump\t// in\n    tag_410:\n        /* \"#utility.yul\":15845:15849   */\n      0x40\n        /* \"#utility.yul\":15838:15862   */\n      mstore\n        /* \"#utility.yul\":15931:15947   */\n      dup3\n      mload\n        /* \"#utility.yul\":15956:15979   */\n      dup2\n      mstore\n        /* \"#utility.yul\":16045:16047   */\n      0x20\n        /* \"#utility.yul\":16030:16048   */\n      swap3\n      dup4\n      add\n        /* \"#utility.yul\":16024:16049   */\n      mload\n        /* \"#utility.yul\":16065:16080   */\n      swap3\n      dup2\n      add\n        /* \"#utility.yul\":16058:16090   */\n      swap3\n      swap1\n      swap3\n      mstore\n      pop\n        /* \"#utility.yul\":15880:15886   */\n      swap2\n        /* \"#utility.yul\":15494:16096   */\n      swap1\n      pop\n      jump\t// out\n        /* \"#utility.yul\":16101:16358   */\n    tag_232:\n        /* \"#utility.yul\":16199:16205   */\n      0x00\n        /* \"#utility.yul\":16252:16254   */\n      0x40\n        /* \"#utility.yul\":16240:16249   */\n      dup3\n        /* \"#utility.yul\":16231:16238   */\n      dup5\n        /* \"#utility.yul\":16227:16250   */\n      sub\n        /* \"#utility.yul\":16223:16255   */\n      slt\n        /* \"#utility.yul\":16220:16272   */\n      iszero\n      tag_412\n      jumpi\n        /* \"#utility.yul\":16268:16269   */\n      0x00\n        /* \"#utility.yul\":16265:16266   */\n      dup1\n        /* \"#utility.yul\":16258:16270   */\n      revert\n        /* \"#utility.yul\":16220:16272   */\n    tag_412:\n        /* \"#utility.yul\":16291:16352   */\n      tag_312\n        /* \"#utility.yul\":16344:16351   */\n      dup4\n        /* \"#utility.yul\":16333:16342   */\n      dup4\n        /* \"#utility.yul\":16291:16352   */\n      tag_283\n      jump\t// in\n        /* \"#utility.yul\":16363:17140   */\n    tag_246:\n        /* \"#utility.yul\":16465:16471   */\n      0x00\n        /* \"#utility.yul\":16525:16528   */\n      0x80\n        /* \"#utility.yul\":16513:16522   */\n      dup3\n        /* \"#utility.yul\":16504:16511   */\n      dup5\n        /* \"#utility.yul\":16500:16523   */\n      sub\n        /* \"#utility.yul\":16496:16529   */\n      slt\n        /* \"#utility.yul\":16541:16543   */\n      dup1\n        /* \"#utility.yul\":16538:16560   */\n      iszero\n      tag_415\n      jumpi\n        /* \"#utility.yul\":16556:16557   */\n      0x00\n        /* \"#utility.yul\":16553:16554   */\n      dup1\n        /* \"#utility.yul\":16546:16558   */\n      revert\n        /* \"#utility.yul\":16538:16560   */\n    tag_415:\n      pop\n        /* \"#utility.yul\":16625:16627   */\n      0x40\n        /* \"#utility.yul\":16619:16628   */\n      mload\n        /* \"#utility.yul\":16667:16671   */\n      0x60\n        /* \"#utility.yul\":16655:16672   */\n      dup2\n      add\n        /* \"#utility.yul\":16702:16720   */\n      0xffffffffffffffff\n        /* \"#utility.yul\":16687:16721   */\n      dup2\n      gt\n        /* \"#utility.yul\":16723:16745   */\n      dup3\n      dup3\n      lt\n        /* \"#utility.yul\":16684:16746   */\n      or\n        /* \"#utility.yul\":16681:16769   */\n      iszero\n      tag_417\n      jumpi\n        /* \"#utility.yul\":16749:16767   */\n      tag_417\n      tag_277\n      jump\t// in\n    tag_417:\n        /* \"#utility.yul\":16785:16787   */\n      0x40\n        /* \"#utility.yul\":16778:16800   */\n      mstore\n        /* \"#utility.yul\":16824:16840   */\n      dup3\n      mload\n        /* \"#utility.yul\":16809:16841   */\n      dup2\n      mstore\n        /* \"#utility.yul\":16884:16886   */\n      0x20\n        /* \"#utility.yul\":16869:16887   */\n      dup4\n      add\n        /* \"#utility.yul\":16863:16888   */\n      mload\n        /* \"#utility.yul\":16928:16946   */\n      0xffffffffffffffff\n        /* \"#utility.yul\":16917:16947   */\n      dup2\n      and\n        /* \"#utility.yul\":16907:16948   */\n      dup2\n      eq\n        /* \"#utility.yul\":16897:16966   */\n      tag_418\n      jumpi\n        /* \"#utility.yul\":16962:16963   */\n      0x00\n        /* \"#utility.yul\":16959:16960   */\n      dup1\n        /* \"#utility.yul\":16952:16964   */\n      revert\n        /* \"#utility.yul\":16897:16966   */\n    tag_418:\n        /* \"#utility.yul\":16994:16996   */\n      0x20\n        /* \"#utility.yul\":16982:16997   */\n      dup3\n      add\n        /* \"#utility.yul\":16975:17005   */\n      mstore\n        /* \"#utility.yul\":17038:17108   */\n      tag_419\n        /* \"#utility.yul\":17100:17107   */\n      dup5\n        /* \"#utility.yul\":17095:17097   */\n      0x40\n        /* \"#utility.yul\":17080:17098   */\n      dup6\n      add\n        /* \"#utility.yul\":17038:17108   */\n      tag_283\n      jump\t// in\n    tag_419:\n        /* \"#utility.yul\":17033:17035   */\n      0x40\n        /* \"#utility.yul\":17021:17036   */\n      dup3\n      add\n        /* \"#utility.yul\":17014:17109   */\n      mstore\n        /* \"#utility.yul\":17025:17031   */\n      swap4\n        /* \"#utility.yul\":16363:17140   */\n      swap3\n      pop\n      pop\n      pop\n      jump\t// out\n        /* \"#utility.yul\":17145:17396   */\n    tag_255:\n        /* \"#utility.yul\":17215:17221   */\n      0x00\n        /* \"#utility.yul\":17268:17270   */\n      0x20\n        /* \"#utility.yul\":17256:17265   */\n      dup3\n        /* \"#utility.yul\":17247:17254   */\n      dup5\n        /* \"#utility.yul\":17243:17266   */\n      sub\n        /* \"#utility.yul\":17239:17271   */\n      slt\n        /* \"#utility.yul\":17236:17288   */\n      iszero\n      tag_421\n      jumpi\n        /* \"#utility.yul\":17284:17285   */\n      0x00\n        /* \"#utility.yul\":17281:17282   */\n      dup1\n        /* \"#utility.yul\":17274:17286   */\n      revert\n        /* \"#utility.yul\":17236:17288   */\n    tag_421:\n        /* \"#utility.yul\":17316:17325   */\n      dup2\n        /* \"#utility.yul\":17310:17326   */\n      mload\n        /* \"#utility.yul\":17335:17366   */\n      tag_312\n        /* \"#utility.yul\":17360:17365   */\n      dup2\n        /* \"#utility.yul\":17335:17366   */\n      tag_273\n      jump\t// in\n\n    auxdata: 0xa2646970667358221220c81d158dc9dcacecc4a5f0b39ca9b9a10b43ca5d76dfea14e8f8a6f34f1aada464736f6c634300081c0033\n}\n",
				"bytecode": {
					"linkReferences": {},
					"object": "60a060405234801561001057600080fd5b5060405161198638038061198683398101604081905261002f91610175565b81818181338061005957604051631e4fbdf760e01b81526000600482015260240160405180910390fd5b61006281610109565b506001600160a01b03808316608052811661009057604051632d618d8160e21b815260040160405180910390fd5b60805160405163ca5eb5e160e01b81526001600160a01b0383811660048301529091169063ca5eb5e190602401600060405180830381600087803b1580156100d757600080fd5b505af11580156100eb573d6000803e3d6000fd5b50505050505050506101028161010960201b60201c565b50506101a8565b600080546001600160a01b038381166001600160a01b0319831681178455604051919092169283917f8be0079c531659141344cd1fd0a4f28419497f9722a3daafe3b4186f6b6457e09190a35050565b80516001600160a01b038116811461017057600080fd5b919050565b6000806040838503121561018857600080fd5b61019183610159565b915061019f60208401610159565b90509250929050565b6080516117996101ed600039600081816101e2015281816103c70152818161087101528181610b6b01528181610c6901528181610d6d0152610e2401526117996000f3fe60806040526004361061010d5760003560e01c80637d25a05e11610095578063bc294d7d11610064578063bc294d7d1461030a578063ca5eb5e11461032a578063f2fde38b1461034a578063f77e5dd31461036a578063ff7bd03d146103a557600080fd5b80637d25a05e1461024457806382413eac146102805780638da5cb5b146102bf578063bb0b6a53146102dd57600080fd5b80633fb8e2a4116100dc5780633fb8e2a41461018a578063529c7588146101ac5780635e280f11146101d0578063715018a61461021c57806371e2a4361461023157600080fd5b806313137d651461011957806317442b701461012e5780633400288b146101555780633ccfd60b1461017557600080fd5b3661011457005b600080fd5b61012c610127366004610fd0565b6103c5565b005b34801561013a57600080fd5b50604080516001815260026020820152015b60405180910390f35b34801561016157600080fd5b5061012c61017036600461108c565b610485565b34801561018157600080fd5b5061012c61049b565b34801561019657600080fd5b5061019f61052a565b60405161014c91906110fc565b3480156101b857600080fd5b506101c260025481565b60405190815260200161014c565b3480156101dc57600080fd5b506102047f000000000000000000000000000000000000000000000000000000000000000081565b6040516001600160a01b03909116815260200161014c565b34801561022857600080fd5b5061012c610610565b61012c61023f366004611116565b610624565b34801561025057600080fd5b5061026761025f36600461108c565b600092915050565b60405167ffffffffffffffff909116815260200161014c565b34801561028c57600080fd5b506102af61029b36600461119c565b6001600160a01b0381163014949350505050565b604051901515815260200161014c565b3480156102cb57600080fd5b506000546001600160a01b0316610204565b3480156102e957600080fd5b506101c26102f8366004611203565b60016020526000908152604090205481565b34801561031657600080fd5b5061019f61032536600461121e565b6107b0565b34801561033657600080fd5b5061012c610345366004611237565b61084a565b34801561035657600080fd5b5061012c610365366004611237565b6108d0565b34801561037657600080fd5b5061038a610385366004611254565b61090e565b6040805182518152602092830151928101929092520161014c565b3480156103b157600080fd5b506102af6103c03660046112f1565b610994565b7f00000000000000000000000000000000000000000000000000000000000000006001600160a01b03163314610415576040516391ac5e4f60e01b81523360048201526024015b60405180910390fd5b6020870180359061042f9061042a908a611203565b6109ca565b1461046d576104416020880188611203565b60405163309afaf360e21b815263ffffffff90911660048201526020880135602482015260440161040c565b61047c87878787878787610a0c565b50505050505050565b61048d610a76565b6104978282610aa3565b5050565b6104a3610a76565b47806104f15760405162461bcd60e51b815260206004820152601660248201527f4e6f2062616c616e636520746f20776974686472617700000000000000000000604482015260640161040c565b600080546040516001600160a01b039091169183156108fc02918491818181858888f19350505050158015610497573d6000803e3d6000fd5b60606000600254116105715760405162461bcd60e51b815260206004820152601060248201526f139bc81b595cdcd859d95cc81cd95b9d60821b604482015260640161040c565b6002546000908152600360205260409020805461058d9061130d565b80601f01602080910402602001604051908101604052809291908181526020018280546105b99061130d565b80156106065780601f106105db57610100808354040283529160200191610606565b820191906000526020600020905b8154815290600101906020018083116105e957829003601f168201915b5050505050905090565b610618610a76565b6106226000610af8565b565b600084843360405160200161063b9392919061136a565b60408051601f198184030181526020601f8601819004810284018101909252848352925060009161068a9189918591889088908190840183828082843760009201829052509250610b55915050565b80519091503410156106d15760405162461bcd60e51b815260206004820152601060248201526f496e73756666696369656e742066656560801b604482015260640161040c565b600061072b888487878080601f01602080910402602001604051908101604052809392919081815260200183838082843760009201829052506040805180820190915234815260208101919091529250339150610c369050565b60028054919250600061073d83611397565b9091555050600254600090815260036020526040902061075e878983611420565b508051825160405163ffffffff8b16917f3aee2e9f3d248dc7e0f1a5564e3bacc5c9bd7c31967d06b5c277e1a0767a6a129161079e918c918c91906114e0565b60405180910390a35050505050505050565b600360205260009081526040902080546107c99061130d565b80601f01602080910402602001604051908101604052809291908181526020018280546107f59061130d565b80156108425780601f1061081757610100808354040283529160200191610842565b820191906000526020600020905b81548152906001019060200180831161082557829003601f168201915b505050505081565b610852610a76565b60405163ca5eb5e160e01b81526001600160a01b0382811660048301527f0000000000000000000000000000000000000000000000000000000000000000169063ca5eb5e190602401600060405180830381600087803b1580156108b557600080fd5b505af11580156108c9573d6000803e3d6000fd5b5050505050565b6108d8610a76565b6001600160a01b03811661090257604051631e4fbdf760e01b81526000600482015260240161040c565b61090b81610af8565b50565b604080518082019091526000808252602082015260008686336040516020016109399392919061136a565b60408051601f198184030181526020601f88018190048102840181019092528683529250610988918a918491908990899081908401838280828437600092019190915250899250610b55915050565b98975050505050505050565b60006020820180359060019083906109ac9086611203565b63ffffffff1681526020810191909152604001600020541492915050565b63ffffffff811660009081526001602052604081205480610a065760405163f6ff4fb760e01b815263ffffffff8416600482015260240161040c565b92915050565b600080610a1b86880188611540565b909250905087610a2e60208b018b611203565b63ffffffff167f15491fa6bf738b90aa2bf5731ea662e510a1706e7034cc13c1b2371b12f0969d84604051610a6391906110fc565b60405180910390a3505050505050505050565b6000546001600160a01b031633146106225760405163118cdaa760e01b815233600482015260240161040c565b63ffffffff8216600081815260016020908152604091829020849055815192835282018390527f238399d427b947898edb290f5ff0f9109849b1c3ba196a42e35f00c50a54b98b910160405180910390a15050565b600080546001600160a01b0383811673ffffffffffffffffffffffffffffffffffffffff19831681178455604051919092169283917f8be0079c531659141344cd1fd0a4f28419497f9722a3daafe3b4186f6b6457e09190a35050565b60408051808201909152600080825260208201527f00000000000000000000000000000000000000000000000000000000000000006001600160a01b031663ddc28c586040518060a001604052808863ffffffff168152602001610bb8896109ca565b8152602001878152602001868152602001851515815250306040518363ffffffff1660e01b8152600401610bed9291906115eb565b6040805180830381865afa158015610c09573d6000803e3d6000fd5b505050506040513d601f19601f82011682018060405250810190610c2d91906116b3565b95945050505050565b610c3e610f12565b6000610c4d8460000151610d41565b602085015190915015610c6757610c678460200151610d69565b7f00000000000000000000000000000000000000000000000000000000000000006001600160a01b0316632637a450826040518060a001604052808b63ffffffff168152602001610cb78c6109ca565b81526020018a815260200189815260200160008960200151111515815250866040518463ffffffff1660e01b8152600401610cf39291906115eb565b60806040518083038185885af1158015610d11573d6000803e3d6000fd5b50505050506040513d601f19601f82011682018060405250810190610d3691906116cf565b979650505050505050565b6000813414610d65576040516304fb820960e51b815234600482015260240161040c565b5090565b60007f00000000000000000000000000000000000000000000000000000000000000006001600160a01b031663e4fe1d946040518163ffffffff1660e01b8152600401602060405180830381865afa158015610dc9573d6000803e3d6000fd5b505050506040513d601f19601f82011682018060405250810190610ded9190611746565b90506001600160a01b038116610e16576040516329b99a9560e11b815260040160405180910390fd5b6040805133602482018190527f00000000000000000000000000000000000000000000000000000000000000006001600160a01b03818116604485015260648085018890528551808603909101815260849094019094526020830180516001600160e01b03166323b872dd60e01b179052610497938516928690610e9b908590610ea1565b50505050565b600080602060008451602086016000885af180610ec4576040513d6000823e3d81fd5b50506000513d91508115610edc578060011415610ee9565b6001600160a01b0384163b155b15610e9b57604051635274afe760e01b81526001600160a01b038516600482015260240161040c565b604051806060016040528060008019168152602001600067ffffffffffffffff168152602001610f55604051806040016040528060008152602001600081525090565b905290565b600060608284031215610f6c57600080fd5b50919050565b60008083601f840112610f8457600080fd5b50813567ffffffffffffffff811115610f9c57600080fd5b602083019150836020828501011115610fb457600080fd5b9250929050565b6001600160a01b038116811461090b57600080fd5b600080600080600080600060e0888a031215610feb57600080fd5b610ff58989610f5a565b965060608801359550608088013567ffffffffffffffff81111561101857600080fd5b6110248a828b01610f72565b90965094505060a088013561103881610fbb565b925060c088013567ffffffffffffffff81111561105457600080fd5b6110608a828b01610f72565b989b979a50959850939692959293505050565b803563ffffffff8116811461108757600080fd5b919050565b6000806040838503121561109f57600080fd5b6110a883611073565b946020939093013593505050565b6000815180845260005b818110156110dc576020818501810151868301820152016110c0565b506000602082860101526020601f19601f83011685010191505092915050565b60208152600061110f60208301846110b6565b9392505050565b60008060008060006060868803121561112e57600080fd5b61113786611073565b9450602086013567ffffffffffffffff81111561115357600080fd5b61115f88828901610f72565b909550935050604086013567ffffffffffffffff81111561117f57600080fd5b61118b88828901610f72565b969995985093965092949392505050565b60008060008060a085870312156111b257600080fd5b6111bc8686610f5a565b9350606085013567ffffffffffffffff8111156111d857600080fd5b6111e487828801610f72565b90945092505060808501356111f881610fbb565b939692955090935050565b60006020828403121561121557600080fd5b61110f82611073565b60006020828403121561123057600080fd5b5035919050565b60006020828403121561124957600080fd5b813561110f81610fbb565b6000806000806000806080878903121561126d57600080fd5b61127687611073565b9550602087013567ffffffffffffffff81111561129257600080fd5b61129e89828a01610f72565b909650945050604087013567ffffffffffffffff8111156112be57600080fd5b6112ca89828a01610f72565b909450925050606087013580151581146112e357600080fd5b809150509295509295509295565b60006060828403121561130357600080fd5b61110f8383610f5a565b600181811c9082168061132157607f821691505b602082108103610f6c57634e487b7160e01b600052602260045260246000fd5b81835281816020850137506000828201602090810191909152601f909101601f19169091010190565b60408152600061137e604083018587611341565b90506001600160a01b0383166020830152949350505050565b6000600182016113b757634e487b7160e01b600052601160045260246000fd5b5060010190565b634e487b7160e01b600052604160045260246000fd5b601f82111561141b57806000526020600020601f840160051c810160208510156113fb5750805b601f840160051c820191505b818110156108c95760008155600101611407565b505050565b67ffffffffffffffff831115611438576114386113be565b61144c83611446835461130d565b836113d4565b6000601f84116001811461148057600085156114685750838201355b600019600387901b1c1916600186901b1783556108c9565b600083815260209020601f19861690835b828110156114b15786850135825560209485019460019092019101611491565b50868210156114ce5760001960f88860031b161c19848701351681555b505060018560011b0183555050505050565b6040815260006114f4604083018587611341565b9050826020830152949350505050565b604051601f8201601f1916810167ffffffffffffffff8111828210171561152d5761152d6113be565b604052919050565b803561108781610fbb565b6000806040838503121561155357600080fd5b823567ffffffffffffffff81111561156a57600080fd5b8301601f8101851361157b57600080fd5b803567ffffffffffffffff811115611595576115956113be565b6115a8601f8201601f1916602001611504565b8181528660208385010111156115bd57600080fd5b816020840160208301376000602083830101528094505050506115e260208401611535565b90509250929050565b6040815263ffffffff8351166040820152602083015160608201526000604084015160a0608084015261162160e08401826110b6565b90506060850151603f198483030160a085015261163e82826110b6565b60809690960151151560c08501525050506001600160a01b039190911660209091015290565b60006040828403121561167657600080fd5b6040805190810167ffffffffffffffff81118282101715611699576116996113be565b604052825181526020928301519281019290925250919050565b6000604082840312156116c557600080fd5b61110f8383611664565b600060808284031280156116e257600080fd5b506040516060810167ffffffffffffffff81118282101715611706576117066113be565b60405282518152602083015167ffffffffffffffff8116811461172857600080fd5b602082015261173a8460408501611664565b60408201529392505050565b60006020828403121561175857600080fd5b815161110f81610fbb56fea2646970667358221220c81d158dc9dcacecc4a5f0b39ca9b9a10b43ca5d76dfea14e8f8a6f34f1aada464736f6c634300081c0033",
					"opcodes": "PUSH1 0xA0 PUSH1 0x40 MSTORE CALLVALUE DUP1 ISZERO PUSH2 0x10 JUMPI PUSH1 0x0 DUP1 REVERT JUMPDEST POP PUSH1 0x40 MLOAD PUSH2 0x1986 CODESIZE SUB DUP1 PUSH2 0x1986 DUP4 CODECOPY DUP2 ADD PUSH1 0x40 DUP2 SWAP1 MSTORE PUSH2 0x2F SWAP2 PUSH2 0x175 JUMP JUMPDEST DUP2 DUP2 DUP2 DUP2 CALLER DUP1 PUSH2 0x59 JUMPI PUSH1 0x40 MLOAD PUSH4 0x1E4FBDF7 PUSH1 0xE0 SHL DUP2 MSTORE PUSH1 0x0 PUSH1 0x4 DUP3 ADD MSTORE PUSH1 0x24 ADD PUSH1 0x40 MLOAD DUP1 SWAP2 SUB SWAP1 REVERT JUMPDEST PUSH2 0x62 DUP2 PUSH2 0x109 JUMP JUMPDEST POP PUSH1 0x1 PUSH1 0x1 PUSH1 0xA0 SHL SUB DUP1 DUP4 AND PUSH1 0x80 MSTORE DUP2 AND PUSH2 0x90 JUMPI PUSH1 0x40 MLOAD PUSH4 0x2D618D81 PUSH1 0xE2 SHL DUP2 MSTORE PUSH1 0x4 ADD PUSH1 0x40 MLOAD DUP1 SWAP2 SUB SWAP1 REVERT JUMPDEST PUSH1 0x80 MLOAD PUSH1 0x40 MLOAD PUSH4 0xCA5EB5E1 PUSH1 0xE0 SHL DUP2 MSTORE PUSH1 0x1 PUSH1 0x1 PUSH1 0xA0 SHL SUB DUP4 DUP2 AND PUSH1 0x4 DUP4 ADD MSTORE SWAP1 SWAP2 AND SWAP1 PUSH4 0xCA5EB5E1 SWAP1 PUSH1 0x24 ADD PUSH1 0x0 PUSH1 0x40 MLOAD DUP1 DUP4 SUB DUP2 PUSH1 0x0 DUP8 DUP1 EXTCODESIZE ISZERO DUP1 ISZERO PUSH2 0xD7 JUMPI PUSH1 0x0 DUP1 REVERT JUMPDEST POP GAS CALL ISZERO DUP1 ISZERO PUSH2 0xEB JUMPI RETURNDATASIZE PUSH1 0x0 DUP1 RETURNDATACOPY RETURNDATASIZE PUSH1 0x0 REVERT JUMPDEST POP POP POP POP POP POP POP POP PUSH2 0x102 DUP2 PUSH2 0x109 PUSH1 0x20 SHL PUSH1 0x20 SHR JUMP JUMPDEST POP POP PUSH2 0x1A8 JUMP JUMPDEST PUSH1 0x0 DUP1 SLOAD PUSH1 0x1 PUSH1 0x1 PUSH1 0xA0 SHL SUB DUP4 DUP2 AND PUSH1 0x1 PUSH1 0x1 PUSH1 0xA0 SHL SUB NOT DUP4 AND DUP2 OR DUP5 SSTORE PUSH1 0x40 MLOAD SWAP2 SWAP1 SWAP3 AND SWAP3 DUP4 SWAP2 PUSH32 0x8BE0079C531659141344CD1FD0A4F28419497F9722A3DAAFE3B4186F6B6457E0 SWAP2 SWAP1 LOG3 POP POP JUMP JUMPDEST DUP1 MLOAD PUSH1 0x1 PUSH1 0x1 PUSH1 0xA0 SHL SUB DUP2 AND DUP2 EQ PUSH2 0x170 JUMPI PUSH1 0x0 DUP1 REVERT JUMPDEST SWAP2 SWAP1 POP JUMP JUMPDEST PUSH1 0x0 DUP1 PUSH1 0x40 DUP4 DUP6 SUB SLT ISZERO PUSH2 0x188 JUMPI PUSH1 0x0 DUP1 REVERT JUMPDEST PUSH2 0x191 DUP4 PUSH2 0x159 JUMP JUMPDEST SWAP2 POP PUSH2 0x19F PUSH1 0x20 DUP5 ADD PUSH2 0x159 JUMP JUMPDEST SWAP1 POP SWAP3 POP SWAP3 SWAP1 POP JUMP JUMPDEST PUSH1 0x80 MLOAD PUSH2 0x1799 PUSH2 0x1ED PUSH1 0x0 CODECOPY PUSH1 0x0 DUP2 DUP2 PUSH2 0x1E2 ADD MSTORE DUP2 DUP2 PUSH2 0x3C7 ADD MSTORE DUP2 DUP2 PUSH2 0x871 ADD MSTORE DUP2 DUP2 PUSH2 0xB6B ADD MSTORE DUP2 DUP2 PUSH2 0xC69 ADD MSTORE DUP2 DUP2 PUSH2 0xD6D ADD MSTORE PUSH2 0xE24 ADD MSTORE PUSH2 0x1799 PUSH1 0x0 RETURN INVALID PUSH1 0x80 PUSH1 0x40 MSTORE PUSH1 0x4 CALLDATASIZE LT PUSH2 0x10D JUMPI PUSH1 0x0 CALLDATALOAD PUSH1 0xE0 SHR DUP1 PUSH4 0x7D25A05E GT PUSH2 0x95 JUMPI DUP1 PUSH4 0xBC294D7D GT PUSH2 0x64 JUMPI DUP1 PUSH4 0xBC294D7D EQ PUSH2 0x30A JUMPI DUP1 PUSH4 0xCA5EB5E1 EQ PUSH2 0x32A JUMPI DUP1 PUSH4 0xF2FDE38B EQ PUSH2 0x34A JUMPI DUP1 PUSH4 0xF77E5DD3 EQ PUSH2 0x36A JUMPI DUP1 PUSH4 0xFF7BD03D EQ PUSH2 0x3A5 JUMPI PUSH1 0x0 DUP1 REVERT JUMPDEST DUP1 PUSH4 0x7D25A05E EQ PUSH2 0x244 JUMPI DUP1 PUSH4 0x82413EAC EQ PUSH2 0x280 JUMPI DUP1 PUSH4 0x8DA5CB5B EQ PUSH2 0x2BF JUMPI DUP1 PUSH4 0xBB0B6A53 EQ PUSH2 0x2DD JUMPI PUSH1 0x0 DUP1 REVERT JUMPDEST DUP1 PUSH4 0x3FB8E2A4 GT PUSH2 0xDC JUMPI DUP1 PUSH4 0x3FB8E2A4 EQ PUSH2 0x18A JUMPI DUP1 PUSH4 0x529C7588 EQ PUSH2 0x1AC JUMPI DUP1 PUSH4 0x5E280F11 EQ PUSH2 0x1D0 JUMPI DUP1 PUSH4 0x715018A6 EQ PUSH2 0x21C JUMPI DUP1 PUSH4 0x71E2A436 EQ PUSH2 0x231 JUMPI PUSH1 0x0 DUP1 REVERT JUMPDEST DUP1 PUSH4 0x13137D65 EQ PUSH2 0x119 JUMPI DUP1 PUSH4 0x17442B70 EQ PUSH2 0x12E JUMPI DUP1 PUSH4 0x3400288B EQ PUSH2 0x155 JUMPI DUP1 PUSH4 0x3CCFD60B EQ PUSH2 0x175 JUMPI PUSH1 0x0 DUP1 REVERT JUMPDEST CALLDATASIZE PUSH2 0x114 JUMPI STOP JUMPDEST PUSH1 0x0 DUP1 REVERT JUMPDEST PUSH2 0x12C PUSH2 0x127 CALLDATASIZE PUSH1 0x4 PUSH2 0xFD0 JUMP JUMPDEST PUSH2 0x3C5 JUMP JUMPDEST STOP JUMPDEST CALLVALUE DUP1 ISZERO PUSH2 0x13A JUMPI PUSH1 0x0 DUP1 REVERT JUMPDEST POP PUSH1 0x40 DUP1 MLOAD PUSH1 0x1 DUP2 MSTORE PUSH1 0x2 PUSH1 0x20 DUP3 ADD MSTORE ADD JUMPDEST PUSH1 0x40 MLOAD DUP1 SWAP2 SUB SWAP1 RETURN JUMPDEST CALLVALUE DUP1 ISZERO PUSH2 0x161 JUMPI PUSH1 0x0 DUP1 REVERT JUMPDEST POP PUSH2 0x12C PUSH2 0x170 CALLDATASIZE PUSH1 0x4 PUSH2 0x108C JUMP JUMPDEST PUSH2 0x485 JUMP JUMPDEST CALLVALUE DUP1 ISZERO PUSH2 0x181 JUMPI PUSH1 0x0 DUP1 REVERT JUMPDEST POP PUSH2 0x12C PUSH2 0x49B JUMP JUMPDEST CALLVALUE DUP1 ISZERO PUSH2 0x196 JUMPI PUSH1 0x0 DUP1 REVERT JUMPDEST POP PUSH2 0x19F PUSH2 0x52A JUMP JUMPDEST PUSH1 0x40 MLOAD PUSH2 0x14C SWAP2 SWAP1 PUSH2 0x10FC JUMP JUMPDEST CALLVALUE DUP1 ISZERO PUSH2 0x1B8 JUMPI PUSH1 0x0 DUP1 REVERT JUMPDEST POP PUSH2 0x1C2 PUSH1 0x2 SLOAD DUP2 JUMP JUMPDEST PUSH1 0x40 MLOAD SWAP1 DUP2 MSTORE PUSH1 0x20 ADD PUSH2 0x14C JUMP JUMPDEST CALLVALUE DUP1 ISZERO PUSH2 0x1DC JUMPI PUSH1 0x0 DUP1 REVERT JUMPDEST POP PUSH2 0x204 PUSH32 0x0 DUP2 JUMP JUMPDEST PUSH1 0x40 MLOAD PUSH1 0x1 PUSH1 0x1 PUSH1 0xA0 SHL SUB SWAP1 SWAP2 AND DUP2 MSTORE PUSH1 0x20 ADD PUSH2 0x14C JUMP JUMPDEST CALLVALUE DUP1 ISZERO PUSH2 0x228 JUMPI PUSH1 0x0 DUP1 REVERT JUMPDEST POP PUSH2 0x12C PUSH2 0x610 JUMP JUMPDEST PUSH2 0x12C PUSH2 0x23F CALLDATASIZE PUSH1 0x4 PUSH2 0x1116 JUMP JUMPDEST PUSH2 0x624 JUMP JUMPDEST CALLVALUE DUP1 ISZERO PUSH2 0x250 JUMPI PUSH1 0x0 DUP1 REVERT JUMPDEST POP PUSH2 0x267 PUSH2 0x25F CALLDATASIZE PUSH1 0x4 PUSH2 0x108C JUMP JUMPDEST PUSH1 0x0 SWAP3 SWAP2 POP POP JUMP JUMPDEST PUSH1 0x40 MLOAD PUSH8 0xFFFFFFFFFFFFFFFF SWAP1 SWAP2 AND DUP2 MSTORE PUSH1 0x20 ADD PUSH2 0x14C JUMP JUMPDEST CALLVALUE DUP1 ISZERO PUSH2 0x28C JUMPI PUSH1 0x0 DUP1 REVERT JUMPDEST POP PUSH2 0x2AF PUSH2 0x29B CALLDATASIZE PUSH1 0x4 PUSH2 0x119C JUMP JUMPDEST PUSH1 0x1 PUSH1 0x1 PUSH1 0xA0 SHL SUB DUP2 AND ADDRESS EQ SWAP5 SWAP4 POP POP POP POP JUMP JUMPDEST PUSH1 0x40 MLOAD SWAP1 ISZERO ISZERO DUP2 MSTORE PUSH1 0x20 ADD PUSH2 0x14C JUMP JUMPDEST CALLVALUE DUP1 ISZERO PUSH2 0x2CB JUMPI PUSH1 0x0 DUP1 REVERT JUMPDEST POP PUSH1 0x0 SLOAD PUSH1 0x1 PUSH1 0x1 PUSH1 0xA0 SHL SUB AND PUSH2 0x204 JUMP JUMPDEST CALLVALUE DUP1 ISZERO PUSH2 0x2E9 JUMPI PUSH1 0x0 DUP1 REVERT JUMPDEST POP PUSH2 0x1C2 PUSH2 0x2F8 CALLDATASIZE PUSH1 0x4 PUSH2 0x1203 JUMP JUMPDEST PUSH1 0x1 PUSH1 0x20 MSTORE PUSH1 0x0 SWAP1 DUP2 MSTORE PUSH1 0x40 SWAP1 KECCAK256 SLOAD DUP2 JUMP JUMPDEST CALLVALUE DUP1 ISZERO PUSH2 0x316 JUMPI PUSH1 0x0 DUP1 REVERT JUMPDEST POP PUSH2 0x19F PUSH2 0x325 CALLDATASIZE PUSH1 0x4 PUSH2 0x121E JUMP JUMPDEST PUSH2 0x7B0 JUMP JUMPDEST CALLVALUE DUP1 ISZERO PUSH2 0x336 JUMPI PUSH1 0x0 DUP1 REVERT JUMPDEST POP PUSH2 0x12C PUSH2 0x345 CALLDATASIZE PUSH1 0x4 PUSH2 0x1237 JUMP JUMPDEST PUSH2 0x84A JUMP JUMPDEST CALLVALUE DUP1 ISZERO PUSH2 0x356 JUMPI PUSH1 0x0 DUP1 REVERT JUMPDEST POP PUSH2 0x12C PUSH2 0x365 CALLDATASIZE PUSH1 0x4 PUSH2 0x1237 JUMP JUMPDEST PUSH2 0x8D0 JUMP JUMPDEST CALLVALUE DUP1 ISZERO PUSH2 0x376 JUMPI PUSH1 0x0 DUP1 REVERT JUMPDEST POP PUSH2 0x38A PUSH2 0x385 CALLDATASIZE PUSH1 0x4 PUSH2 0x1254 JUMP JUMPDEST PUSH2 0x90E JUMP JUMPDEST PUSH1 0x40 DUP1 MLOAD DUP3 MLOAD DUP2 MSTORE PUSH1 0x20 SWAP3 DUP4 ADD MLOAD SWAP3 DUP2 ADD SWAP3 SWAP1 SWAP3 MSTORE ADD PUSH2 0x14C JUMP JUMPDEST CALLVALUE DUP1 ISZERO PUSH2 0x3B1 JUMPI PUSH1 0x0 DUP1 REVERT JUMPDEST POP PUSH2 0x2AF PUSH2 0x3C0 CALLDATASIZE PUSH1 0x4 PUSH2 0x12F1 JUMP JUMPDEST PUSH2 0x994 JUMP JUMPDEST PUSH32 0x0 PUSH1 0x1 PUSH1 0x1 PUSH1 0xA0 SHL SUB AND CALLER EQ PUSH2 0x415 JUMPI PUSH1 0x40 MLOAD PUSH4 0x91AC5E4F PUSH1 0xE0 SHL DUP2 MSTORE CALLER PUSH1 0x4 DUP3 ADD MSTORE PUSH1 0x24 ADD JUMPDEST PUSH1 0x40 MLOAD DUP1 SWAP2 SUB SWAP1 REVERT JUMPDEST PUSH1 0x20 DUP8 ADD DUP1 CALLDATALOAD SWAP1 PUSH2 0x42F SWAP1 PUSH2 0x42A SWAP1 DUP11 PUSH2 0x1203 JUMP JUMPDEST PUSH2 0x9CA JUMP JUMPDEST EQ PUSH2 0x46D JUMPI PUSH2 0x441 PUSH1 0x20 DUP9 ADD DUP9 PUSH2 0x1203 JUMP JUMPDEST PUSH1 0x40 MLOAD PUSH4 0x309AFAF3 PUSH1 0xE2 SHL DUP2 MSTORE PUSH4 0xFFFFFFFF SWAP1 SWAP2 AND PUSH1 0x4 DUP3 ADD MSTORE PUSH1 0x20 DUP9 ADD CALLDATALOAD PUSH1 0x24 DUP3 ADD MSTORE PUSH1 0x44 ADD PUSH2 0x40C JUMP JUMPDEST PUSH2 0x47C DUP8 DUP8 DUP8 DUP8 DUP8 DUP8 DUP8 PUSH2 0xA0C JUMP JUMPDEST POP POP POP POP POP POP POP JUMP JUMPDEST PUSH2 0x48D PUSH2 0xA76 JUMP JUMPDEST PUSH2 0x497 DUP3 DUP3 PUSH2 0xAA3 JUMP JUMPDEST POP POP JUMP JUMPDEST PUSH2 0x4A3 PUSH2 0xA76 JUMP JUMPDEST SELFBALANCE DUP1 PUSH2 0x4F1 JUMPI PUSH1 0x40 MLOAD PUSH3 0x461BCD PUSH1 0xE5 SHL DUP2 MSTORE PUSH1 0x20 PUSH1 0x4 DUP3 ADD MSTORE PUSH1 0x16 PUSH1 0x24 DUP3 ADD MSTORE PUSH32 0x4E6F2062616C616E636520746F20776974686472617700000000000000000000 PUSH1 0x44 DUP3 ADD MSTORE PUSH1 0x64 ADD PUSH2 0x40C JUMP JUMPDEST PUSH1 0x0 DUP1 SLOAD PUSH1 0x40 MLOAD PUSH1 0x1 PUSH1 0x1 PUSH1 0xA0 SHL SUB SWAP1 SWAP2 AND SWAP2 DUP4 ISZERO PUSH2 0x8FC MUL SWAP2 DUP5 SWAP2 DUP2 DUP2 DUP2 DUP6 DUP9 DUP9 CALL SWAP4 POP POP POP POP ISZERO DUP1 ISZERO PUSH2 0x497 JUMPI RETURNDATASIZE PUSH1 0x0 DUP1 RETURNDATACOPY RETURNDATASIZE PUSH1 0x0 REVERT JUMPDEST PUSH1 0x60 PUSH1 0x0 PUSH1 0x2 SLOAD GT PUSH2 0x571 JUMPI PUSH1 0x40 MLOAD PUSH3 0x461BCD PUSH1 0xE5 SHL DUP2 MSTORE PUSH1 0x20 PUSH1 0x4 DUP3 ADD MSTORE PUSH1 0x10 PUSH1 0x24 DUP3 ADD MSTORE PUSH16 0x139BC81B595CDCD859D95CC81CD95B9D PUSH1 0x82 SHL PUSH1 0x44 DUP3 ADD MSTORE PUSH1 0x64 ADD PUSH2 0x40C JUMP JUMPDEST PUSH1 0x2 SLOAD PUSH1 0x0 SWAP1 DUP2 MSTORE PUSH1 0x3 PUSH1 0x20 MSTORE PUSH1 0x40 SWAP1 KECCAK256 DUP1 SLOAD PUSH2 0x58D SWAP1 PUSH2 0x130D JUMP JUMPDEST DUP1 PUSH1 0x1F ADD PUSH1 0x20 DUP1 SWAP2 DIV MUL PUSH1 0x20 ADD PUSH1 0x40 MLOAD SWAP1 DUP2 ADD PUSH1 0x40 MSTORE DUP1 SWAP3 SWAP2 SWAP1 DUP2 DUP2 MSTORE PUSH1 0x20 ADD DUP3 DUP1 SLOAD PUSH2 0x5B9 SWAP1 PUSH2 0x130D JUMP JUMPDEST DUP1 ISZERO PUSH2 0x606 JUMPI DUP1 PUSH1 0x1F LT PUSH2 0x5DB JUMPI PUSH2 0x100 DUP1 DUP4 SLOAD DIV MUL DUP4 MSTORE SWAP2 PUSH1 0x20 ADD SWAP2 PUSH2 0x606 JUMP JUMPDEST DUP3 ADD SWAP2 SWAP1 PUSH1 0x0 MSTORE PUSH1 0x20 PUSH1 0x0 KECCAK256 SWAP1 JUMPDEST DUP2 SLOAD DUP2 MSTORE SWAP1 PUSH1 0x1 ADD SWAP1 PUSH1 0x20 ADD DUP1 DUP4 GT PUSH2 0x5E9 JUMPI DUP3 SWAP1 SUB PUSH1 0x1F AND DUP3 ADD SWAP2 JUMPDEST POP POP POP POP POP SWAP1 POP SWAP1 JUMP JUMPDEST PUSH2 0x618 PUSH2 0xA76 JUMP JUMPDEST PUSH2 0x622 PUSH1 0x0 PUSH2 0xAF8 JUMP JUMPDEST JUMP JUMPDEST PUSH1 0x0 DUP5 DUP5 CALLER PUSH1 0x40 MLOAD PUSH1 0x20 ADD PUSH2 0x63B SWAP4 SWAP3 SWAP2 SWAP1 PUSH2 0x136A JUMP JUMPDEST PUSH1 0x40 DUP1 MLOAD PUSH1 0x1F NOT DUP2 DUP5 SUB ADD DUP2 MSTORE PUSH1 0x20 PUSH1 0x1F DUP7 ADD DUP2 SWAP1 DIV DUP2 MUL DUP5 ADD DUP2 ADD SWAP1 SWAP3 MSTORE DUP5 DUP4 MSTORE SWAP3 POP PUSH1 0x0 SWAP2 PUSH2 0x68A SWAP2 DUP10 SWAP2 DUP6 SWAP2 DUP9 SWAP1 DUP9 SWAP1 DUP2 SWAP1 DUP5 ADD DUP4 DUP3 DUP1 DUP3 DUP5 CALLDATACOPY PUSH1 0x0 SWAP3 ADD DUP3 SWAP1 MSTORE POP SWAP3 POP PUSH2 0xB55 SWAP2 POP POP JUMP JUMPDEST DUP1 MLOAD SWAP1 SWAP2 POP CALLVALUE LT ISZERO PUSH2 0x6D1 JUMPI PUSH1 0x40 MLOAD PUSH3 0x461BCD PUSH1 0xE5 SHL DUP2 MSTORE PUSH1 0x20 PUSH1 0x4 DUP3 ADD MSTORE PUSH1 0x10 PUSH1 0x24 DUP3 ADD MSTORE PUSH16 0x496E73756666696369656E7420666565 PUSH1 0x80 SHL PUSH1 0x44 DUP3 ADD MSTORE PUSH1 0x64 ADD PUSH2 0x40C JUMP JUMPDEST PUSH1 0x0 PUSH2 0x72B DUP9 DUP5 DUP8 DUP8 DUP1 DUP1 PUSH1 0x1F ADD PUSH1 0x20 DUP1 SWAP2 DIV MUL PUSH1 0x20 ADD PUSH1 0x40 MLOAD SWAP1 DUP2 ADD PUSH1 0x40 MSTORE DUP1 SWAP4 SWAP3 SWAP2 SWAP1 DUP2 DUP2 MSTORE PUSH1 0x20 ADD DUP4 DUP4 DUP1 DUP3 DUP5 CALLDATACOPY PUSH1 0x0 SWAP3 ADD DUP3 SWAP1 MSTORE POP PUSH1 0x40 DUP1 MLOAD DUP1 DUP3 ADD SWAP1 SWAP2 MSTORE CALLVALUE DUP2 MSTORE PUSH1 0x20 DUP2 ADD SWAP2 SWAP1 SWAP2 MSTORE SWAP3 POP CALLER SWAP2 POP PUSH2 0xC36 SWAP1 POP JUMP JUMPDEST PUSH1 0x2 DUP1 SLOAD SWAP2 SWAP3 POP PUSH1 0x0 PUSH2 0x73D DUP4 PUSH2 0x1397 JUMP JUMPDEST SWAP1 SWAP2 SSTORE POP POP PUSH1 0x2 SLOAD PUSH1 0x0 SWAP1 DUP2 MSTORE PUSH1 0x3 PUSH1 0x20 MSTORE PUSH1 0x40 SWAP1 KECCAK256 PUSH2 0x75E DUP8 DUP10 DUP4 PUSH2 0x1420 JUMP JUMPDEST POP DUP1 MLOAD DUP3 MLOAD PUSH1 0x40 MLOAD PUSH4 0xFFFFFFFF DUP12 AND SWAP2 PUSH32 0x3AEE2E9F3D248DC7E0F1A5564E3BACC5C9BD7C31967D06B5C277E1A0767A6A12 SWAP2 PUSH2 0x79E SWAP2 DUP13 SWAP2 DUP13 SWAP2 SWAP1 PUSH2 0x14E0 JUMP JUMPDEST PUSH1 0x40 MLOAD DUP1 SWAP2 SUB SWAP1 LOG3 POP POP POP POP POP POP POP POP JUMP JUMPDEST PUSH1 0x3 PUSH1 0x20 MSTORE PUSH1 0x0 SWAP1 DUP2 MSTORE PUSH1 0x40 SWAP1 KECCAK256 DUP1 SLOAD PUSH2 0x7C9 SWAP1 PUSH2 0x130D JUMP JUMPDEST DUP1 PUSH1 0x1F ADD PUSH1 0x20 DUP1 SWAP2 DIV MUL PUSH1 0x20 ADD PUSH1 0x40 MLOAD SWAP1 DUP2 ADD PUSH1 0x40 MSTORE DUP1 SWAP3 SWAP2 SWAP1 DUP2 DUP2 MSTORE PUSH1 0x20 ADD DUP3 DUP1 SLOAD PUSH2 0x7F5 SWAP1 PUSH2 0x130D JUMP JUMPDEST DUP1 ISZERO PUSH2 0x842 JUMPI DUP1 PUSH1 0x1F LT PUSH2 0x817 JUMPI PUSH2 0x100 DUP1 DUP4 SLOAD DIV MUL DUP4 MSTORE SWAP2 PUSH1 0x20 ADD SWAP2 PUSH2 0x842 JUMP JUMPDEST DUP3 ADD SWAP2 SWAP1 PUSH1 0x0 MSTORE PUSH1 0x20 PUSH1 0x0 KECCAK256 SWAP1 JUMPDEST DUP2 SLOAD DUP2 MSTORE SWAP1 PUSH1 0x1 ADD SWAP1 PUSH1 0x20 ADD DUP1 DUP4 GT PUSH2 0x825 JUMPI DUP3 SWAP1 SUB PUSH1 0x1F AND DUP3 ADD SWAP2 JUMPDEST POP POP POP POP POP DUP2 JUMP JUMPDEST PUSH2 0x852 PUSH2 0xA76 JUMP JUMPDEST PUSH1 0x40 MLOAD PUSH4 0xCA5EB5E1 PUSH1 0xE0 SHL DUP2 MSTORE PUSH1 0x1 PUSH1 0x1 PUSH1 0xA0 SHL SUB DUP3 DUP2 AND PUSH1 0x4 DUP4 ADD MSTORE PUSH32 0x0 AND SWAP1 PUSH4 0xCA5EB5E1 SWAP1 PUSH1 0x24 ADD PUSH1 0x0 PUSH1 0x40 MLOAD DUP1 DUP4 SUB DUP2 PUSH1 0x0 DUP8 DUP1 EXTCODESIZE ISZERO DUP1 ISZERO PUSH2 0x8B5 JUMPI PUSH1 0x0 DUP1 REVERT JUMPDEST POP GAS CALL ISZERO DUP1 ISZERO PUSH2 0x8C9 JUMPI RETURNDATASIZE PUSH1 0x0 DUP1 RETURNDATACOPY RETURNDATASIZE PUSH1 0x0 REVERT JUMPDEST POP POP POP POP POP JUMP JUMPDEST PUSH2 0x8D8 PUSH2 0xA76 JUMP JUMPDEST PUSH1 0x1 PUSH1 0x1 PUSH1 0xA0 SHL SUB DUP2 AND PUSH2 0x902 JUMPI PUSH1 0x40 MLOAD PUSH4 0x1E4FBDF7 PUSH1 0xE0 SHL DUP2 MSTORE PUSH1 0x0 PUSH1 0x4 DUP3 ADD MSTORE PUSH1 0x24 ADD PUSH2 0x40C JUMP JUMPDEST PUSH2 0x90B DUP2 PUSH2 0xAF8 JUMP JUMPDEST POP JUMP JUMPDEST PUSH1 0x40 DUP1 MLOAD DUP1 DUP3 ADD SWAP1 SWAP2 MSTORE PUSH1 0x0 DUP1 DUP3 MSTORE PUSH1 0x20 DUP3 ADD MSTORE PUSH1 0x0 DUP7 DUP7 CALLER PUSH1 0x40 MLOAD PUSH1 0x20 ADD PUSH2 0x939 SWAP4 SWAP3 SWAP2 SWAP1 PUSH2 0x136A JUMP JUMPDEST PUSH1 0x40 DUP1 MLOAD PUSH1 0x1F NOT DUP2 DUP5 SUB ADD DUP2 MSTORE PUSH1 0x20 PUSH1 0x1F DUP9 ADD DUP2 SWAP1 DIV DUP2 MUL DUP5 ADD DUP2 ADD SWAP1 SWAP3 MSTORE DUP7 DUP4 MSTORE SWAP3 POP PUSH2 0x988 SWAP2 DUP11 SWAP2 DUP5 SWAP2 SWAP1 DUP10 SWAP1 DUP10 SWAP1 DUP2 SWAP1 DUP5 ADD DUP4 DUP3 DUP1 DUP3 DUP5 CALLDATACOPY PUSH1 0x0 SWAP3 ADD SWAP2 SWAP1 SWAP2 MSTORE POP DUP10 SWAP3 POP PUSH2 0xB55 SWAP2 POP POP JUMP JUMPDEST SWAP9 SWAP8 POP POP POP POP POP POP POP POP JUMP JUMPDEST PUSH1 0x0 PUSH1 0x20 DUP3 ADD DUP1 CALLDATALOAD SWAP1 PUSH1 0x1 SWAP1 DUP4 SWAP1 PUSH2 0x9AC SWAP1 DUP7 PUSH2 0x1203 JUMP JUMPDEST PUSH4 0xFFFFFFFF AND DUP2 MSTORE PUSH1 0x20 DUP2 ADD SWAP2 SWAP1 SWAP2 MSTORE PUSH1 0x40 ADD PUSH1 0x0 KECCAK256 SLOAD EQ SWAP3 SWAP2 POP POP JUMP JUMPDEST PUSH4 0xFFFFFFFF DUP2 AND PUSH1 0x0 SWAP1 DUP2 MSTORE PUSH1 0x1 PUSH1 0x20 MSTORE PUSH1 0x40 DUP2 KECCAK256 SLOAD DUP1 PUSH2 0xA06 JUMPI PUSH1 0x40 MLOAD PUSH4 0xF6FF4FB7 PUSH1 0xE0 SHL DUP2 MSTORE PUSH4 0xFFFFFFFF DUP5 AND PUSH1 0x4 DUP3 ADD MSTORE PUSH1 0x24 ADD PUSH2 0x40C JUMP JUMPDEST SWAP3 SWAP2 POP POP JUMP JUMPDEST PUSH1 0x0 DUP1 PUSH2 0xA1B DUP7 DUP9 ADD DUP9 PUSH2 0x1540 JUMP JUMPDEST SWAP1 SWAP3 POP SWAP1 POP DUP8 PUSH2 0xA2E PUSH1 0x20 DUP12 ADD DUP12 PUSH2 0x1203 JUMP JUMPDEST PUSH4 0xFFFFFFFF AND PUSH32 0x15491FA6BF738B90AA2BF5731EA662E510A1706E7034CC13C1B2371B12F0969D DUP5 PUSH1 0x40 MLOAD PUSH2 0xA63 SWAP2 SWAP1 PUSH2 0x10FC JUMP JUMPDEST PUSH1 0x40 MLOAD DUP1 SWAP2 SUB SWAP1 LOG3 POP POP POP POP POP POP POP POP POP JUMP JUMPDEST PUSH1 0x0 SLOAD PUSH1 0x1 PUSH1 0x1 PUSH1 0xA0 SHL SUB AND CALLER EQ PUSH2 0x622 JUMPI PUSH1 0x40 MLOAD PUSH4 0x118CDAA7 PUSH1 0xE0 SHL DUP2 MSTORE CALLER PUSH1 0x4 DUP3 ADD MSTORE PUSH1 0x24 ADD PUSH2 0x40C JUMP JUMPDEST PUSH4 0xFFFFFFFF DUP3 AND PUSH1 0x0 DUP2 DUP2 MSTORE PUSH1 0x1 PUSH1 0x20 SWAP1 DUP2 MSTORE PUSH1 0x40 SWAP2 DUP3 SWAP1 KECCAK256 DUP5 SWAP1 SSTORE DUP2 MLOAD SWAP3 DUP4 MSTORE DUP3 ADD DUP4 SWAP1 MSTORE PUSH32 0x238399D427B947898EDB290F5FF0F9109849B1C3BA196A42E35F00C50A54B98B SWAP2 ADD PUSH1 0x40 MLOAD DUP1 SWAP2 SUB SWAP1 LOG1 POP POP JUMP JUMPDEST PUSH1 0x0 DUP1 SLOAD PUSH1 0x1 PUSH1 0x1 PUSH1 0xA0 SHL SUB DUP4 DUP2 AND PUSH20 0xFFFFFFFFFFFFFFFFFFFFFFFFFFFFFFFFFFFFFFFF NOT DUP4 AND DUP2 OR DUP5 SSTORE PUSH1 0x40 MLOAD SWAP2 SWAP1 SWAP3 AND SWAP3 DUP4 SWAP2 PUSH32 0x8BE0079C531659141344CD1FD0A4F28419497F9722A3DAAFE3B4186F6B6457E0 SWAP2 SWAP1 LOG3 POP POP JUMP JUMPDEST PUSH1 0x40 DUP1 MLOAD DUP1 DUP3 ADD SWAP1 SWAP2 MSTORE PUSH1 0x0 DUP1 DUP3 MSTORE PUSH1 0x20 DUP3 ADD MSTORE PUSH32 0x0 PUSH1 0x1 PUSH1 0x1 PUSH1 0xA0 SHL SUB AND PUSH4 0xDDC28C58 PUSH1 0x40 MLOAD DUP1 PUSH1 0xA0 ADD PUSH1 0x40 MSTORE DUP1 DUP9 PUSH4 0xFFFFFFFF AND DUP2 MSTORE PUSH1 0x20 ADD PUSH2 0xBB8 DUP10 PUSH2 0x9CA JUMP JUMPDEST DUP2 MSTORE PUSH1 0x20 ADD DUP8 DUP2 MSTORE PUSH1 0x20 ADD DUP7 DUP2 MSTORE PUSH1 0x20 ADD DUP6 ISZERO ISZERO DUP2 MSTORE POP ADDRESS PUSH1 0x40 MLOAD DUP4 PUSH4 0xFFFFFFFF AND PUSH1 0xE0 SHL DUP2 MSTORE PUSH1 0x4 ADD PUSH2 0xBED SWAP3 SWAP2 SWAP1 PUSH2 0x15EB JUMP JUMPDEST PUSH1 0x40 DUP1 MLOAD DUP1 DUP4 SUB DUP2 DUP7 GAS STATICCALL ISZERO DUP1 ISZERO PUSH2 0xC09 JUMPI RETURNDATASIZE PUSH1 0x0 DUP1 RETURNDATACOPY RETURNDATASIZE PUSH1 0x0 REVERT JUMPDEST POP POP POP POP PUSH1 0x40 MLOAD RETURNDATASIZE PUSH1 0x1F NOT PUSH1 0x1F DUP3 ADD AND DUP3 ADD DUP1 PUSH1 0x40 MSTORE POP DUP2 ADD SWAP1 PUSH2 0xC2D SWAP2 SWAP1 PUSH2 0x16B3 JUMP JUMPDEST SWAP6 SWAP5 POP POP POP POP POP JUMP JUMPDEST PUSH2 0xC3E PUSH2 0xF12 JUMP JUMPDEST PUSH1 0x0 PUSH2 0xC4D DUP5 PUSH1 0x0 ADD MLOAD PUSH2 0xD41 JUMP JUMPDEST PUSH1 0x20 DUP6 ADD MLOAD SWAP1 SWAP2 POP ISZERO PUSH2 0xC67 JUMPI PUSH2 0xC67 DUP5 PUSH1 0x20 ADD MLOAD PUSH2 0xD69 JUMP JUMPDEST PUSH32 0x0 PUSH1 0x1 PUSH1 0x1 PUSH1 0xA0 SHL SUB AND PUSH4 0x2637A450 DUP3 PUSH1 0x40 MLOAD DUP1 PUSH1 0xA0 ADD PUSH1 0x40 MSTORE DUP1 DUP12 PUSH4 0xFFFFFFFF AND DUP2 MSTORE PUSH1 0x20 ADD PUSH2 0xCB7 DUP13 PUSH2 0x9CA JUMP JUMPDEST DUP2 MSTORE PUSH1 0x20 ADD DUP11 DUP2 MSTORE PUSH1 0x20 ADD DUP10 DUP2 MSTORE PUSH1 0x20 ADD PUSH1 0x0 DUP10 PUSH1 0x20 ADD MLOAD GT ISZERO ISZERO DUP2 MSTORE POP DUP7 PUSH1 0x40 MLOAD DUP5 PUSH4 0xFFFFFFFF AND PUSH1 0xE0 SHL DUP2 MSTORE PUSH1 0x4 ADD PUSH2 0xCF3 SWAP3 SWAP2 SWAP1 PUSH2 0x15EB JUMP JUMPDEST PUSH1 0x80 PUSH1 0x40 MLOAD DUP1 DUP4 SUB DUP2 DUP6 DUP9 GAS CALL ISZERO DUP1 ISZERO PUSH2 0xD11 JUMPI RETURNDATASIZE PUSH1 0x0 DUP1 RETURNDATACOPY RETURNDATASIZE PUSH1 0x0 REVERT JUMPDEST POP POP POP POP POP PUSH1 0x40 MLOAD RETURNDATASIZE PUSH1 0x1F NOT PUSH1 0x1F DUP3 ADD AND DUP3 ADD DUP1 PUSH1 0x40 MSTORE POP DUP2 ADD SWAP1 PUSH2 0xD36 SWAP2 SWAP1 PUSH2 0x16CF JUMP JUMPDEST SWAP8 SWAP7 POP POP POP POP POP POP POP JUMP JUMPDEST PUSH1 0x0 DUP2 CALLVALUE EQ PUSH2 0xD65 JUMPI PUSH1 0x40 MLOAD PUSH4 0x4FB8209 PUSH1 0xE5 SHL DUP2 MSTORE CALLVALUE PUSH1 0x4 DUP3 ADD MSTORE PUSH1 0x24 ADD PUSH2 0x40C JUMP JUMPDEST POP SWAP1 JUMP JUMPDEST PUSH1 0x0 PUSH32 0x0 PUSH1 0x1 PUSH1 0x1 PUSH1 0xA0 SHL SUB AND PUSH4 0xE4FE1D94 PUSH1 0x40 MLOAD DUP2 PUSH4 0xFFFFFFFF AND PUSH1 0xE0 SHL DUP2 MSTORE PUSH1 0x4 ADD PUSH1 0x20 PUSH1 0x40 MLOAD DUP1 DUP4 SUB DUP2 DUP7 GAS STATICCALL ISZERO DUP1 ISZERO PUSH2 0xDC9 JUMPI RETURNDATASIZE PUSH1 0x0 DUP1 RETURNDATACOPY RETURNDATASIZE PUSH1 0x0 REVERT JUMPDEST POP POP POP POP PUSH1 0x40 MLOAD RETURNDATASIZE PUSH1 0x1F NOT PUSH1 0x1F DUP3 ADD AND DUP3 ADD DUP1 PUSH1 0x40 MSTORE POP DUP2 ADD SWAP1 PUSH2 0xDED SWAP2 SWAP1 PUSH2 0x1746 JUMP JUMPDEST SWAP1 POP PUSH1 0x1 PUSH1 0x1 PUSH1 0xA0 SHL SUB DUP2 AND PUSH2 0xE16 JUMPI PUSH1 0x40 MLOAD PUSH4 0x29B99A95 PUSH1 0xE1 SHL DUP2 MSTORE PUSH1 0x4 ADD PUSH1 0x40 MLOAD DUP1 SWAP2 SUB SWAP1 REVERT JUMPDEST PUSH1 0x40 DUP1 MLOAD CALLER PUSH1 0x24 DUP3 ADD DUP2 SWAP1 MSTORE PUSH32 0x0 PUSH1 0x1 PUSH1 0x1 PUSH1 0xA0 SHL SUB DUP2 DUP2 AND PUSH1 0x44 DUP6 ADD MSTORE PUSH1 0x64 DUP1 DUP6 ADD DUP9 SWAP1 MSTORE DUP6 MLOAD DUP1 DUP7 SUB SWAP1 SWAP2 ADD DUP2 MSTORE PUSH1 0x84 SWAP1 SWAP5 ADD SWAP1 SWAP5 MSTORE PUSH1 0x20 DUP4 ADD DUP1 MLOAD PUSH1 0x1 PUSH1 0x1 PUSH1 0xE0 SHL SUB AND PUSH4 0x23B872DD PUSH1 0xE0 SHL OR SWAP1 MSTORE PUSH2 0x497 SWAP4 DUP6 AND SWAP3 DUP7 SWAP1 PUSH2 0xE9B SWAP1 DUP6 SWAP1 PUSH2 0xEA1 JUMP JUMPDEST POP POP POP POP JUMP JUMPDEST PUSH1 0x0 DUP1 PUSH1 0x20 PUSH1 0x0 DUP5 MLOAD PUSH1 0x20 DUP7 ADD PUSH1 0x0 DUP9 GAS CALL DUP1 PUSH2 0xEC4 JUMPI PUSH1 0x40 MLOAD RETURNDATASIZE PUSH1 0x0 DUP3 RETURNDATACOPY RETURNDATASIZE DUP2 REVERT JUMPDEST POP POP PUSH1 0x0 MLOAD RETURNDATASIZE SWAP2 POP DUP2 ISZERO PUSH2 0xEDC JUMPI DUP1 PUSH1 0x1 EQ ISZERO PUSH2 0xEE9 JUMP JUMPDEST PUSH1 0x1 PUSH1 0x1 PUSH1 0xA0 SHL SUB DUP5 AND EXTCODESIZE ISZERO JUMPDEST ISZERO PUSH2 0xE9B JUMPI PUSH1 0x40 MLOAD PUSH4 0x5274AFE7 PUSH1 0xE0 SHL DUP2 MSTORE PUSH1 0x1 PUSH1 0x1 PUSH1 0xA0 SHL SUB DUP6 AND PUSH1 0x4 DUP3 ADD MSTORE PUSH1 0x24 ADD PUSH2 0x40C JUMP JUMPDEST PUSH1 0x40 MLOAD DUP1 PUSH1 0x60 ADD PUSH1 0x40 MSTORE DUP1 PUSH1 0x0 DUP1 NOT AND DUP2 MSTORE PUSH1 0x20 ADD PUSH1 0x0 PUSH8 0xFFFFFFFFFFFFFFFF AND DUP2 MSTORE PUSH1 0x20 ADD PUSH2 0xF55 PUSH1 0x40 MLOAD DUP1 PUSH1 0x40 ADD PUSH1 0x40 MSTORE DUP1 PUSH1 0x0 DUP2 MSTORE PUSH1 0x20 ADD PUSH1 0x0 DUP2 MSTORE POP SWAP1 JUMP JUMPDEST SWAP1 MSTORE SWAP1 JUMP JUMPDEST PUSH1 0x0 PUSH1 0x60 DUP3 DUP5 SUB SLT ISZERO PUSH2 0xF6C JUMPI PUSH1 0x0 DUP1 REVERT JUMPDEST POP SWAP2 SWAP1 POP JUMP JUMPDEST PUSH1 0x0 DUP1 DUP4 PUSH1 0x1F DUP5 ADD SLT PUSH2 0xF84 JUMPI PUSH1 0x0 DUP1 REVERT JUMPDEST POP DUP2 CALLDATALOAD PUSH8 0xFFFFFFFFFFFFFFFF DUP2 GT ISZERO PUSH2 0xF9C JUMPI PUSH1 0x0 DUP1 REVERT JUMPDEST PUSH1 0x20 DUP4 ADD SWAP2 POP DUP4 PUSH1 0x20 DUP3 DUP6 ADD ADD GT ISZERO PUSH2 0xFB4 JUMPI PUSH1 0x0 DUP1 REVERT JUMPDEST SWAP3 POP SWAP3 SWAP1 POP JUMP JUMPDEST PUSH1 0x1 PUSH1 0x1 PUSH1 0xA0 SHL SUB DUP2 AND DUP2 EQ PUSH2 0x90B JUMPI PUSH1 0x0 DUP1 REVERT JUMPDEST PUSH1 0x0 DUP1 PUSH1 0x0 DUP1 PUSH1 0x0 DUP1 PUSH1 0x0 PUSH1 0xE0 DUP9 DUP11 SUB SLT ISZERO PUSH2 0xFEB JUMPI PUSH1 0x0 DUP1 REVERT JUMPDEST PUSH2 0xFF5 DUP10 DUP10 PUSH2 0xF5A JUMP JUMPDEST SWAP7 POP PUSH1 0x60 DUP9 ADD CALLDATALOAD SWAP6 POP PUSH1 0x80 DUP9 ADD CALLDATALOAD PUSH8 0xFFFFFFFFFFFFFFFF DUP2 GT ISZERO PUSH2 0x1018 JUMPI PUSH1 0x0 DUP1 REVERT JUMPDEST PUSH2 0x1024 DUP11 DUP3 DUP12 ADD PUSH2 0xF72 JUMP JUMPDEST SWAP1 SWAP7 POP SWAP5 POP POP PUSH1 0xA0 DUP9 ADD CALLDATALOAD PUSH2 0x1038 DUP2 PUSH2 0xFBB JUMP JUMPDEST SWAP3 POP PUSH1 0xC0 DUP9 ADD CALLDATALOAD PUSH8 0xFFFFFFFFFFFFFFFF DUP2 GT ISZERO PUSH2 0x1054 JUMPI PUSH1 0x0 DUP1 REVERT JUMPDEST PUSH2 0x1060 DUP11 DUP3 DUP12 ADD PUSH2 0xF72 JUMP JUMPDEST SWAP9 SWAP12 SWAP8 SWAP11 POP SWAP6 SWAP9 POP SWAP4 SWAP7 SWAP3 SWAP6 SWAP3 SWAP4 POP POP POP JUMP JUMPDEST DUP1 CALLDATALOAD PUSH4 0xFFFFFFFF DUP2 AND DUP2 EQ PUSH2 0x1087 JUMPI PUSH1 0x0 DUP1 REVERT JUMPDEST SWAP2 SWAP1 POP JUMP JUMPDEST PUSH1 0x0 DUP1 PUSH1 0x40 DUP4 DUP6 SUB SLT ISZERO PUSH2 0x109F JUMPI PUSH1 0x0 DUP1 REVERT JUMPDEST PUSH2 0x10A8 DUP4 PUSH2 0x1073 JUMP JUMPDEST SWAP5 PUSH1 0x20 SWAP4 SWAP1 SWAP4 ADD CALLDATALOAD SWAP4 POP POP POP JUMP JUMPDEST PUSH1 0x0 DUP2 MLOAD DUP1 DUP5 MSTORE PUSH1 0x0 JUMPDEST DUP2 DUP2 LT ISZERO PUSH2 0x10DC JUMPI PUSH1 0x20 DUP2 DUP6 ADD DUP2 ADD MLOAD DUP7 DUP4 ADD DUP3 ADD MSTORE ADD PUSH2 0x10C0 JUMP JUMPDEST POP PUSH1 0x0 PUSH1 0x20 DUP3 DUP7 ADD ADD MSTORE PUSH1 0x20 PUSH1 0x1F NOT PUSH1 0x1F DUP4 ADD AND DUP6 ADD ADD SWAP2 POP POP SWAP3 SWAP2 POP POP JUMP JUMPDEST PUSH1 0x20 DUP2 MSTORE PUSH1 0x0 PUSH2 0x110F PUSH1 0x20 DUP4 ADD DUP5 PUSH2 0x10B6 JUMP JUMPDEST SWAP4 SWAP3 POP POP POP JUMP JUMPDEST PUSH1 0x0 DUP1 PUSH1 0x0 DUP1 PUSH1 0x0 PUSH1 0x60 DUP7 DUP9 SUB SLT ISZERO PUSH2 0x112E JUMPI PUSH1 0x0 DUP1 REVERT JUMPDEST PUSH2 0x1137 DUP7 PUSH2 0x1073 JUMP JUMPDEST SWAP5 POP PUSH1 0x20 DUP7 ADD CALLDATALOAD PUSH8 0xFFFFFFFFFFFFFFFF DUP2 GT ISZERO PUSH2 0x1153 JUMPI PUSH1 0x0 DUP1 REVERT JUMPDEST PUSH2 0x115F DUP9 DUP3 DUP10 ADD PUSH2 0xF72 JUMP JUMPDEST SWAP1 SWAP6 POP SWAP4 POP POP PUSH1 0x40 DUP7 ADD CALLDATALOAD PUSH8 0xFFFFFFFFFFFFFFFF DUP2 GT ISZERO PUSH2 0x117F JUMPI PUSH1 0x0 DUP1 REVERT JUMPDEST PUSH2 0x118B DUP9 DUP3 DUP10 ADD PUSH2 0xF72 JUMP JUMPDEST SWAP7 SWAP10 SWAP6 SWAP9 POP SWAP4 SWAP7 POP SWAP3 SWAP5 SWAP4 SWAP3 POP POP POP JUMP JUMPDEST PUSH1 0x0 DUP1 PUSH1 0x0 DUP1 PUSH1 0xA0 DUP6 DUP8 SUB SLT ISZERO PUSH2 0x11B2 JUMPI PUSH1 0x0 DUP1 REVERT JUMPDEST PUSH2 0x11BC DUP7 DUP7 PUSH2 0xF5A JUMP JUMPDEST SWAP4 POP PUSH1 0x60 DUP6 ADD CALLDATALOAD PUSH8 0xFFFFFFFFFFFFFFFF DUP2 GT ISZERO PUSH2 0x11D8 JUMPI PUSH1 0x0 DUP1 REVERT JUMPDEST PUSH2 0x11E4 DUP8 DUP3 DUP9 ADD PUSH2 0xF72 JUMP JUMPDEST SWAP1 SWAP5 POP SWAP3 POP POP PUSH1 0x80 DUP6 ADD CALLDATALOAD PUSH2 0x11F8 DUP2 PUSH2 0xFBB JUMP JUMPDEST SWAP4 SWAP7 SWAP3 SWAP6 POP SWAP1 SWAP4 POP POP JUMP JUMPDEST PUSH1 0x0 PUSH1 0x20 DUP3 DUP5 SUB SLT ISZERO PUSH2 0x1215 JUMPI PUSH1 0x0 DUP1 REVERT JUMPDEST PUSH2 0x110F DUP3 PUSH2 0x1073 JUMP JUMPDEST PUSH1 0x0 PUSH1 0x20 DUP3 DUP5 SUB SLT ISZERO PUSH2 0x1230 JUMPI PUSH1 0x0 DUP1 REVERT JUMPDEST POP CALLDATALOAD SWAP2 SWAP1 POP JUMP JUMPDEST PUSH1 0x0 PUSH1 0x20 DUP3 DUP5 SUB SLT ISZERO PUSH2 0x1249 JUMPI PUSH1 0x0 DUP1 REVERT JUMPDEST DUP2 CALLDATALOAD PUSH2 0x110F DUP2 PUSH2 0xFBB JUMP JUMPDEST PUSH1 0x0 DUP1 PUSH1 0x0 DUP1 PUSH1 0x0 DUP1 PUSH1 0x80 DUP8 DUP10 SUB SLT ISZERO PUSH2 0x126D JUMPI PUSH1 0x0 DUP1 REVERT JUMPDEST PUSH2 0x1276 DUP8 PUSH2 0x1073 JUMP JUMPDEST SWAP6 POP PUSH1 0x20 DUP8 ADD CALLDATALOAD PUSH8 0xFFFFFFFFFFFFFFFF DUP2 GT ISZERO PUSH2 0x1292 JUMPI PUSH1 0x0 DUP1 REVERT JUMPDEST PUSH2 0x129E DUP10 DUP3 DUP11 ADD PUSH2 0xF72 JUMP JUMPDEST SWAP1 SWAP7 POP SWAP5 POP POP PUSH1 0x40 DUP8 ADD CALLDATALOAD PUSH8 0xFFFFFFFFFFFFFFFF DUP2 GT ISZERO PUSH2 0x12BE JUMPI PUSH1 0x0 DUP1 REVERT JUMPDEST PUSH2 0x12CA DUP10 DUP3 DUP11 ADD PUSH2 0xF72 JUMP JUMPDEST SWAP1 SWAP5 POP SWAP3 POP POP PUSH1 0x60 DUP8 ADD CALLDATALOAD DUP1 ISZERO ISZERO DUP2 EQ PUSH2 0x12E3 JUMPI PUSH1 0x0 DUP1 REVERT JUMPDEST DUP1 SWAP2 POP POP SWAP3 SWAP6 POP SWAP3 SWAP6 POP SWAP3 SWAP6 JUMP JUMPDEST PUSH1 0x0 PUSH1 0x60 DUP3 DUP5 SUB SLT ISZERO PUSH2 0x1303 JUMPI PUSH1 0x0 DUP1 REVERT JUMPDEST PUSH2 0x110F DUP4 DUP4 PUSH2 0xF5A JUMP JUMPDEST PUSH1 0x1 DUP2 DUP2 SHR SWAP1 DUP3 AND DUP1 PUSH2 0x1321 JUMPI PUSH1 0x7F DUP3 AND SWAP2 POP JUMPDEST PUSH1 0x20 DUP3 LT DUP2 SUB PUSH2 0xF6C JUMPI PUSH4 0x4E487B71 PUSH1 0xE0 SHL PUSH1 0x0 MSTORE PUSH1 0x22 PUSH1 0x4 MSTORE PUSH1 0x24 PUSH1 0x0 REVERT JUMPDEST DUP2 DUP4 MSTORE DUP2 DUP2 PUSH1 0x20 DUP6 ADD CALLDATACOPY POP PUSH1 0x0 DUP3 DUP3 ADD PUSH1 0x20 SWAP1 DUP2 ADD SWAP2 SWAP1 SWAP2 MSTORE PUSH1 0x1F SWAP1 SWAP2 ADD PUSH1 0x1F NOT AND SWAP1 SWAP2 ADD ADD SWAP1 JUMP JUMPDEST PUSH1 0x40 DUP2 MSTORE PUSH1 0x0 PUSH2 0x137E PUSH1 0x40 DUP4 ADD DUP6 DUP8 PUSH2 0x1341 JUMP JUMPDEST SWAP1 POP PUSH1 0x1 PUSH1 0x1 PUSH1 0xA0 SHL SUB DUP4 AND PUSH1 0x20 DUP4 ADD MSTORE SWAP5 SWAP4 POP POP POP POP JUMP JUMPDEST PUSH1 0x0 PUSH1 0x1 DUP3 ADD PUSH2 0x13B7 JUMPI PUSH4 0x4E487B71 PUSH1 0xE0 SHL PUSH1 0x0 MSTORE PUSH1 0x11 PUSH1 0x4 MSTORE PUSH1 0x24 PUSH1 0x0 REVERT JUMPDEST POP PUSH1 0x1 ADD SWAP1 JUMP JUMPDEST PUSH4 0x4E487B71 PUSH1 0xE0 SHL PUSH1 0x0 MSTORE PUSH1 0x41 PUSH1 0x4 MSTORE PUSH1 0x24 PUSH1 0x0 REVERT JUMPDEST PUSH1 0x1F DUP3 GT ISZERO PUSH2 0x141B JUMPI DUP1 PUSH1 0x0 MSTORE PUSH1 0x20 PUSH1 0x0 KECCAK256 PUSH1 0x1F DUP5 ADD PUSH1 0x5 SHR DUP2 ADD PUSH1 0x20 DUP6 LT ISZERO PUSH2 0x13FB JUMPI POP DUP1 JUMPDEST PUSH1 0x1F DUP5 ADD PUSH1 0x5 SHR DUP3 ADD SWAP2 POP JUMPDEST DUP2 DUP2 LT ISZERO PUSH2 0x8C9 JUMPI PUSH1 0x0 DUP2 SSTORE PUSH1 0x1 ADD PUSH2 0x1407 JUMP JUMPDEST POP POP POP JUMP JUMPDEST PUSH8 0xFFFFFFFFFFFFFFFF DUP4 GT ISZERO PUSH2 0x1438 JUMPI PUSH2 0x1438 PUSH2 0x13BE JUMP JUMPDEST PUSH2 0x144C DUP4 PUSH2 0x1446 DUP4 SLOAD PUSH2 0x130D JUMP JUMPDEST DUP4 PUSH2 0x13D4 JUMP JUMPDEST PUSH1 0x0 PUSH1 0x1F DUP5 GT PUSH1 0x1 DUP2 EQ PUSH2 0x1480 JUMPI PUSH1 0x0 DUP6 ISZERO PUSH2 0x1468 JUMPI POP DUP4 DUP3 ADD CALLDATALOAD JUMPDEST PUSH1 0x0 NOT PUSH1 0x3 DUP8 SWAP1 SHL SHR NOT AND PUSH1 0x1 DUP7 SWAP1 SHL OR DUP4 SSTORE PUSH2 0x8C9 JUMP JUMPDEST PUSH1 0x0 DUP4 DUP2 MSTORE PUSH1 0x20 SWAP1 KECCAK256 PUSH1 0x1F NOT DUP7 AND SWAP1 DUP4 JUMPDEST DUP3 DUP2 LT ISZERO PUSH2 0x14B1 JUMPI DUP7 DUP6 ADD CALLDATALOAD DUP3 SSTORE PUSH1 0x20 SWAP5 DUP6 ADD SWAP5 PUSH1 0x1 SWAP1 SWAP3 ADD SWAP2 ADD PUSH2 0x1491 JUMP JUMPDEST POP DUP7 DUP3 LT ISZERO PUSH2 0x14CE JUMPI PUSH1 0x0 NOT PUSH1 0xF8 DUP9 PUSH1 0x3 SHL AND SHR NOT DUP5 DUP8 ADD CALLDATALOAD AND DUP2 SSTORE JUMPDEST POP POP PUSH1 0x1 DUP6 PUSH1 0x1 SHL ADD DUP4 SSTORE POP POP POP POP POP JUMP JUMPDEST PUSH1 0x40 DUP2 MSTORE PUSH1 0x0 PUSH2 0x14F4 PUSH1 0x40 DUP4 ADD DUP6 DUP8 PUSH2 0x1341 JUMP JUMPDEST SWAP1 POP DUP3 PUSH1 0x20 DUP4 ADD MSTORE SWAP5 SWAP4 POP POP POP POP JUMP JUMPDEST PUSH1 0x40 MLOAD PUSH1 0x1F DUP3 ADD PUSH1 0x1F NOT AND DUP2 ADD PUSH8 0xFFFFFFFFFFFFFFFF DUP2 GT DUP3 DUP3 LT OR ISZERO PUSH2 0x152D JUMPI PUSH2 0x152D PUSH2 0x13BE JUMP JUMPDEST PUSH1 0x40 MSTORE SWAP2 SWAP1 POP JUMP JUMPDEST DUP1 CALLDATALOAD PUSH2 0x1087 DUP2 PUSH2 0xFBB JUMP JUMPDEST PUSH1 0x0 DUP1 PUSH1 0x40 DUP4 DUP6 SUB SLT ISZERO PUSH2 0x1553 JUMPI PUSH1 0x0 DUP1 REVERT JUMPDEST DUP3 CALLDATALOAD PUSH8 0xFFFFFFFFFFFFFFFF DUP2 GT ISZERO PUSH2 0x156A JUMPI PUSH1 0x0 DUP1 REVERT JUMPDEST DUP4 ADD PUSH1 0x1F DUP2 ADD DUP6 SGT PUSH2 0x157B JUMPI PUSH1 0x0 DUP1 REVERT JUMPDEST DUP1 CALLDATALOAD PUSH8 0xFFFFFFFFFFFFFFFF DUP2 GT ISZERO PUSH2 0x1595 JUMPI PUSH2 0x1595 PUSH2 0x13BE JUMP JUMPDEST PUSH2 0x15A8 PUSH1 0x1F DUP3 ADD PUSH1 0x1F NOT AND PUSH1 0x20 ADD PUSH2 0x1504 JUMP JUMPDEST DUP2 DUP2 MSTORE DUP7 PUSH1 0x20 DUP4 DUP6 ADD ADD GT ISZERO PUSH2 0x15BD JUMPI PUSH1 0x0 DUP1 REVERT JUMPDEST DUP2 PUSH1 0x20 DUP5 ADD PUSH1 0x20 DUP4 ADD CALLDATACOPY PUSH1 0x0 PUSH1 0x20 DUP4 DUP4 ADD ADD MSTORE DUP1 SWAP5 POP POP POP POP PUSH2 0x15E2 PUSH1 0x20 DUP5 ADD PUSH2 0x1535 JUMP JUMPDEST SWAP1 POP SWAP3 POP SWAP3 SWAP1 POP JUMP JUMPDEST PUSH1 0x40 DUP2 MSTORE PUSH4 0xFFFFFFFF DUP4 MLOAD AND PUSH1 0x40 DUP3 ADD MSTORE PUSH1 0x20 DUP4 ADD MLOAD PUSH1 0x60 DUP3 ADD MSTORE PUSH1 0x0 PUSH1 0x40 DUP5 ADD MLOAD PUSH1 0xA0 PUSH1 0x80 DUP5 ADD MSTORE PUSH2 0x1621 PUSH1 0xE0 DUP5 ADD DUP3 PUSH2 0x10B6 JUMP JUMPDEST SWAP1 POP PUSH1 0x60 DUP6 ADD MLOAD PUSH1 0x3F NOT DUP5 DUP4 SUB ADD PUSH1 0xA0 DUP6 ADD MSTORE PUSH2 0x163E DUP3 DUP3 PUSH2 0x10B6 JUMP JUMPDEST PUSH1 0x80 SWAP7 SWAP1 SWAP7 ADD MLOAD ISZERO ISZERO PUSH1 0xC0 DUP6 ADD MSTORE POP POP POP PUSH1 0x1 PUSH1 0x1 PUSH1 0xA0 SHL SUB SWAP2 SWAP1 SWAP2 AND PUSH1 0x20 SWAP1 SWAP2 ADD MSTORE SWAP1 JUMP JUMPDEST PUSH1 0x0 PUSH1 0x40 DUP3 DUP5 SUB SLT ISZERO PUSH2 0x1676 JUMPI PUSH1 0x0 DUP1 REVERT JUMPDEST PUSH1 0x40 DUP1 MLOAD SWAP1 DUP2 ADD PUSH8 0xFFFFFFFFFFFFFFFF DUP2 GT DUP3 DUP3 LT OR ISZERO PUSH2 0x1699 JUMPI PUSH2 0x1699 PUSH2 0x13BE JUMP JUMPDEST PUSH1 0x40 MSTORE DUP3 MLOAD DUP2 MSTORE PUSH1 0x20 SWAP3 DUP4 ADD MLOAD SWAP3 DUP2 ADD SWAP3 SWAP1 SWAP3 MSTORE POP SWAP2 SWAP1 POP JUMP JUMPDEST PUSH1 0x0 PUSH1 0x40 DUP3 DUP5 SUB SLT ISZERO PUSH2 0x16C5 JUMPI PUSH1 0x0 DUP1 REVERT JUMPDEST PUSH2 0x110F DUP4 DUP4 PUSH2 0x1664 JUMP JUMPDEST PUSH1 0x0 PUSH1 0x80 DUP3 DUP5 SUB SLT DUP1 ISZERO PUSH2 0x16E2 JUMPI PUSH1 0x0 DUP1 REVERT JUMPDEST POP PUSH1 0x40 MLOAD PUSH1 0x60 DUP2 ADD PUSH8 0xFFFFFFFFFFFFFFFF DUP2 GT DUP3 DUP3 LT OR ISZERO PUSH2 0x1706 JUMPI PUSH2 0x1706 PUSH2 0x13BE JUMP JUMPDEST PUSH1 0x40 MSTORE DUP3 MLOAD DUP2 MSTORE PUSH1 0x20 DUP4 ADD MLOAD PUSH8 0xFFFFFFFFFFFFFFFF DUP2 AND DUP2 EQ PUSH2 0x1728 JUMPI PUSH1 0x0 DUP1 REVERT JUMPDEST PUSH1 0x20 DUP3 ADD MSTORE PUSH2 0x173A DUP5 PUSH1 0x40 DUP6 ADD PUSH2 0x1664 JUMP JUMPDEST PUSH1 0x40 DUP3 ADD MSTORE SWAP4 SWAP3 POP POP POP JUMP JUMPDEST PUSH1 0x0 PUSH1 0x20 DUP3 DUP5 SUB SLT ISZERO PUSH2 0x1758 JUMPI PUSH1 0x0 DUP1 REVERT JUMPDEST DUP2 MLOAD PUSH2 0x110F DUP2 PUSH2 0xFBB JUMP INVALID LOG2 PUSH5 0x6970667358 0x22 SLT KECCAK256 0xC8 SAR ISZERO DUP14 0xC9 0xDC 0xAC 0xEC 0xC4 0xA5 CREATE 0xB3 SWAP13 0xA9 0xB9 LOG1 SIGNEXTEND NUMBER 0xCA TSTORE PUSH23 0xDFEA14E8F8A6F34F1AADA464736F6C634300081C003300 "
				},
				"gasEstimates": {
					"creation": {
						"codeDepositCost": "1208200",
						"executionCost": "infinite",
						"totalCost": "infinite"
					},
					"external": {
						"allowInitializePath((uint32,bytes32,uint64))": "infinite",
						"endpoint()": "infinite",
						"getLastSentMessage()": "infinite",
						"isComposeMsgSender((uint32,bytes32,uint64),bytes,address)": "762",
						"lzReceive((uint32,bytes32,uint64),bytes32,bytes,address,bytes)": "infinite",
						"messageCounter()": "2340",
						"nextNonce(uint32,bytes32)": "401",
						"oAppVersion()": "230",
						"owner()": "2398",
						"peers(uint32)": "2596",
						"quote(uint32,string,bytes,bool)": "infinite",
						"renounceOwnership()": "infinite",
						"sendMessage(uint32,string,bytes)": "infinite",
						"sentMessages(uint256)": "infinite",
						"setDelegate(address)": "infinite",
						"setPeer(uint32,bytes32)": "26105",
						"transferOwnership(address)": "infinite",
						"withdraw()": "infinite"
					},
					"internal": {
						"_lzReceive(struct Origin calldata,bytes32,bytes calldata,address,bytes calldata)": "infinite"
					}
				},
				"methodIdentifiers": {
					"allowInitializePath((uint32,bytes32,uint64))": "ff7bd03d",
					"endpoint()": "5e280f11",
					"getLastSentMessage()": "3fb8e2a4",
					"isComposeMsgSender((uint32,bytes32,uint64),bytes,address)": "82413eac",
					"lzReceive((uint32,bytes32,uint64),bytes32,bytes,address,bytes)": "13137d65",
					"messageCounter()": "529c7588",
					"nextNonce(uint32,bytes32)": "7d25a05e",
					"oAppVersion()": "17442b70",
					"owner()": "8da5cb5b",
					"peers(uint32)": "bb0b6a53",
					"quote(uint32,string,bytes,bool)": "f77e5dd3",
					"renounceOwnership()": "715018a6",
					"sendMessage(uint32,string,bytes)": "71e2a436",
					"sentMessages(uint256)": "bc294d7d",
					"setDelegate(address)": "ca5eb5e1",
					"setPeer(uint32,bytes32)": "3400288b",
					"transferOwnership(address)": "f2fde38b",
					"withdraw()": "3ccfd60b"
				}
			},
			"storageLayout": {
				"storage": [
					{
						"astId": 1327,
						"contract": "Arbitrum_sender.sol:ArbitrumSender",
						"label": "_owner",
						"offset": 0,
						"slot": "0",
						"type": "t_address"
					},
					{
						"astId": 785,
						"contract": "Arbitrum_sender.sol:ArbitrumSender",
						"label": "peers",
						"offset": 0,
						"slot": "1",
						"type": "t_mapping(t_uint32,t_bytes32)"
					},
					{
						"astId": 2165,
						"contract": "Arbitrum_sender.sol:ArbitrumSender",
						"label": "messageCounter",
						"offset": 0,
						"slot": "2",
						"type": "t_uint256"
					},
					{
						"astId": 2169,
						"contract": "Arbitrum_sender.sol:ArbitrumSender",
						"label": "sentMessages",
						"offset": 0,
						"slot": "3",
						"type": "t_mapping(t_uint256,t_string_storage)"
					}
				],
				"types": {
					"t_address": {
						"encoding": "inplace",
						"label": "address",
						"numberOfBytes": "20"
					},
					"t_bytes32": {
						"encoding": "inplace",
						"label": "bytes32",
						"numberOfBytes": "32"
					},
					"t_mapping(t_uint256,t_string_storage)": {
						"encoding": "mapping",
						"key": "t_uint256",
						"label": "mapping(uint256 => string)",
						"numberOfBytes": "32",
						"value": "t_string_storage"
					},
					"t_mapping(t_uint32,t_bytes32)": {
						"encoding": "mapping",
						"key": "t_uint32",
						"label": "mapping(uint32 => bytes32)",
						"numberOfBytes": "32",
						"value": "t_bytes32"
					},
					"t_string_storage": {
						"encoding": "bytes",
						"label": "string",
						"numberOfBytes": "32"
					},
					"t_uint256": {
						"encoding": "inplace",
						"label": "uint256",
						"numberOfBytes": "32"
					},
					"t_uint32": {
						"encoding": "inplace",
						"label": "uint32",
						"numberOfBytes": "4"
					}
				}
			},
			"userdoc": {
				"kind": "user",
				"methods": {
					"allowInitializePath((uint32,bytes32,uint64))": {
						"notice": "Checks if the path initialization is allowed based on the provided origin."
					},
					"endpoint()": {
						"notice": "Retrieves the LayerZero endpoint associated with the OApp."
					},
					"isComposeMsgSender((uint32,bytes32,uint64),bytes,address)": {
						"notice": "Indicates whether an address is an approved composeMsg sender to the Endpoint."
					},
					"nextNonce(uint32,bytes32)": {
						"notice": "Retrieves the next nonce for a given source endpoint and sender address."
					},
					"oAppVersion()": {
						"notice": "Retrieves the OApp version information."
					},
					"peers(uint32)": {
						"notice": "Retrieves the peer (OApp) associated with a corresponding endpoint."
					},
					"setDelegate(address)": {
						"notice": "Sets the delegate address for the OApp."
					},
					"setPeer(uint32,bytes32)": {
						"notice": "Sets the peer address (OApp instance) for a corresponding endpoint."
					}
				},
				"version": 1
			}
		}
	}
}