{
	"string-sender-wrapper.sol": {
		"StringSenderCaller": {
			"abi": [
				{
					"inputs": [
						{
							"internalType": "address",
							"name": "_stringSender",
							"type": "address"
						}
					],
					"stateMutability": "nonpayable",
					"type": "constructor"
				},
				{
					"inputs": [
						{
							"internalType": "uint32",
							"name": "_dstEid",
							"type": "uint32"
						},
						{
							"internalType": "string",
							"name": "_message",
							"type": "string"
						},
						{
							"internalType": "bytes",
							"name": "_options",
							"type": "bytes"
						}
					],
					"name": "callSendString",
					"outputs": [],
					"stateMutability": "payable",
					"type": "function"
				},
				{
					"inputs": [],
					"name": "stringSender",
					"outputs": [
						{
							"internalType": "contract IStringSender",
							"name": "",
							"type": "address"
						}
					],
					"stateMutability": "view",
					"type": "function"
				}
			],
			"devdoc": {
				"kind": "dev",
				"methods": {},
				"version": 1
			},
			"evm": {
				"assembly": "    /* \"string-sender-wrapper.sol\":196:787  contract StringSenderCaller {... */\n  mstore(0x40, 0x80)\n    /* \"string-sender-wrapper.sol\":274:369  constructor(address _stringSender) {... */\n  callvalue\n  dup1\n  iszero\n  tag_1\n  jumpi\n  0x00\n  dup1\n  revert\ntag_1:\n  pop\n  mload(0x40)\n  sub(codesize, bytecodeSize)\n  dup1\n  bytecodeSize\n  dup4\n  codecopy\n  dup2\n  add\n  0x40\n  dup2\n  swap1\n  mstore\n  tag_2\n  swap2\n  tag_3\n  jump\t// in\ntag_2:\n    /* \"string-sender-wrapper.sol\":319:331  stringSender */\n  0x00\n    /* \"string-sender-wrapper.sol\":319:362  stringSender = IStringSender(_stringSender) */\n  dup1\n  sload\n  not(sub(shl(0xa0, 0x01), 0x01))\n  and\n  sub(shl(0xa0, 0x01), 0x01)\n  swap3\n  swap1\n  swap3\n  and\n  swap2\n  swap1\n  swap2\n  or\n  swap1\n  sstore\n    /* \"string-sender-wrapper.sol\":196:787  contract StringSenderCaller {... */\n  jump(tag_7)\n    /* \"#utility.yul\":14:304   */\ntag_3:\n    /* \"#utility.yul\":84:90   */\n  0x00\n    /* \"#utility.yul\":137:139   */\n  0x20\n    /* \"#utility.yul\":125:134   */\n  dup3\n    /* \"#utility.yul\":116:123   */\n  dup5\n    /* \"#utility.yul\":112:135   */\n  sub\n    /* \"#utility.yul\":108:140   */\n  slt\n    /* \"#utility.yul\":105:157   */\n  iszero\n  tag_9\n  jumpi\n    /* \"#utility.yul\":153:154   */\n  0x00\n    /* \"#utility.yul\":150:151   */\n  dup1\n    /* \"#utility.yul\":143:155   */\n  revert\n    /* \"#utility.yul\":105:157   */\ntag_9:\n    /* \"#utility.yul\":179:195   */\n  dup2\n  mload\n  sub(shl(0xa0, 0x01), 0x01)\n    /* \"#utility.yul\":224:255   */\n  dup2\n  and\n    /* \"#utility.yul\":214:256   */\n  dup2\n  eq\n    /* \"#utility.yul\":204:274   */\n  tag_10\n  jumpi\n    /* \"#utility.yul\":270:271   */\n  0x00\n    /* \"#utility.yul\":267:268   */\n  dup1\n    /* \"#utility.yul\":260:272   */\n  revert\n    /* \"#utility.yul\":204:274   */\ntag_10:\n    /* \"#utility.yul\":293:298   */\n  swap4\n    /* \"#utility.yul\":14:304   */\n  swap3\n  pop\n  pop\n  pop\n  jump\t// out\ntag_7:\n    /* \"string-sender-wrapper.sol\":196:787  contract StringSenderCaller {... */\n  dataSize(sub_0)\n  dup1\n  dataOffset(sub_0)\n  0x00\n  codecopy\n  0x00\n  return\nstop\n\nsub_0: assembly {\n        /* \"string-sender-wrapper.sol\":196:787  contract StringSenderCaller {... */\n      mstore(0x40, 0x80)\n      jumpi(tag_1, lt(calldatasize, 0x04))\n      shr(0xe0, calldataload(0x00))\n      dup1\n      0x2b9f4bb9\n      eq\n      tag_2\n      jumpi\n      dup1\n      0xa70c3e7d\n      eq\n      tag_3\n      jumpi\n    tag_1:\n      0x00\n      dup1\n      revert\n        /* \"string-sender-wrapper.sol\":379:785  function callSendString(... */\n    tag_2:\n      tag_4\n      tag_5\n      calldatasize\n      0x04\n      tag_6\n      jump\t// in\n    tag_5:\n      tag_7\n      jump\t// in\n    tag_4:\n      stop\n        /* \"string-sender-wrapper.sol\":230:263  IStringSender public stringSender */\n    tag_3:\n      callvalue\n      dup1\n      iszero\n      tag_8\n      jumpi\n      0x00\n      dup1\n      revert\n    tag_8:\n      pop\n      sload(0x00)\n      tag_9\n      swap1\n      sub(shl(0xa0, 0x01), 0x01)\n      and\n      dup2\n      jump\n    tag_9:\n      mload(0x40)\n      sub(shl(0xa0, 0x01), 0x01)\n        /* \"#utility.yul\":1435:1490   */\n      swap1\n      swap2\n      and\n        /* \"#utility.yul\":1417:1491   */\n      dup2\n      mstore\n        /* \"#utility.yul\":1405:1407   */\n      0x20\n        /* \"#utility.yul\":1390:1408   */\n      add\n        /* \"string-sender-wrapper.sol\":230:263  IStringSender public stringSender */\n      mload(0x40)\n      dup1\n      swap2\n      sub\n      swap1\n      return\n        /* \"string-sender-wrapper.sol\":379:785  function callSendString(... */\n    tag_7:\n        /* \"string-sender-wrapper.sol\":513:525  stringSender */\n      sload(0x00)\n        /* \"string-sender-wrapper.sol\":513:583  stringSender.sendString{value: msg.value}(_dstEid, _message, _options) */\n      mload(0x40)\n      shl(0xe5, 0x01b77cb1)\n      dup2\n      mstore\n      sub(shl(0xa0, 0x01), 0x01)\n        /* \"string-sender-wrapper.sol\":513:525  stringSender */\n      swap1\n      swap2\n      and\n      swap1\n        /* \"string-sender-wrapper.sol\":513:536  stringSender.sendString */\n      0x36ef9620\n      swap1\n        /* \"string-sender-wrapper.sol\":544:553  msg.value */\n      callvalue\n      swap1\n        /* \"string-sender-wrapper.sol\":513:583  stringSender.sendString{value: msg.value}(_dstEid, _message, _options) */\n      tag_14\n      swap1\n        /* \"string-sender-wrapper.sol\":555:562  _dstEid */\n      dup10\n      swap1\n        /* \"string-sender-wrapper.sol\":564:572  _message */\n      dup10\n      swap1\n      dup10\n      swap1\n        /* \"string-sender-wrapper.sol\":574:582  _options */\n      dup10\n      swap1\n      dup10\n      swap1\n        /* \"string-sender-wrapper.sol\":513:583  stringSender.sendString{value: msg.value}(_dstEid, _message, _options) */\n      0x04\n      add\n      tag_15\n      jump\t// in\n    tag_14:\n      0x00\n      mload(0x40)\n      dup1\n      dup4\n      sub\n      dup2\n      dup6\n      dup9\n      dup1\n      extcodesize\n      iszero\n      dup1\n      iszero\n      tag_16\n      jumpi\n      0x00\n      dup1\n      revert\n    tag_16:\n      pop\n      gas\n      call\n      swap4\n      pop\n      pop\n      pop\n      pop\n      dup1\n      iszero\n      tag_17\n      jumpi\n      pop\n      0x01\n    tag_17:\n        /* \"string-sender-wrapper.sol\":509:783  try stringSender.sendString{value: msg.value}(_dstEid, _message, _options) {... */\n      tag_18\n      jumpi\n      tag_22\n      tag_23\n      jump\t// in\n    tag_22:\n      dup1\n      0x08c379a0\n      sub\n      tag_21\n      jumpi\n      pop\n      tag_24\n      tag_25\n      jump\t// in\n    tag_24:\n      dup1\n      tag_26\n      jumpi\n      pop\n      jump(tag_20)\n    tag_26:\n        /* \"string-sender-wrapper.sol\":703:709  reason */\n      dup1\n        /* \"string-sender-wrapper.sol\":669:710  abi.encodePacked(\"Call failed: \", reason) */\n      add(0x20, mload(0x40))\n      tag_27\n      swap2\n      swap1\n      tag_28\n      jump\t// in\n    tag_27:\n      0x40\n      dup1\n      mload\n      not(0x1f)\n      dup2\n      dup5\n      sub\n      add\n      dup2\n      mstore\n      swap1\n      dup3\n      swap1\n      mstore\n      shl(0xe5, 0x461bcd)\n        /* \"string-sender-wrapper.sol\":655:712  revert(string(abi.encodePacked(\"Call failed: \", reason))) */\n      dup3\n      mstore\n      tag_29\n      swap2\n      0x04\n      add\n      tag_30\n      jump\t// in\n    tag_29:\n      mload(0x40)\n      dup1\n      swap2\n      sub\n      swap1\n      revert\n        /* \"string-sender-wrapper.sol\":509:783  try stringSender.sendString{value: msg.value}(_dstEid, _message, _options) {... */\n    tag_21:\n      pop\n    tag_20:\n        /* \"string-sender-wrapper.sol\":736:776  revert(\"Call failed with unknown error\") */\n      mload(0x40)\n      shl(0xe5, 0x461bcd)\n      dup2\n      mstore\n        /* \"#utility.yul\":4776:4778   */\n      0x20\n        /* \"string-sender-wrapper.sol\":736:776  revert(\"Call failed with unknown error\") */\n      0x04\n      dup3\n      add\n        /* \"#utility.yul\":4758:4779   */\n      mstore\n        /* \"#utility.yul\":4815:4817   */\n      0x1e\n        /* \"#utility.yul\":4795:4813   */\n      0x24\n      dup3\n      add\n        /* \"#utility.yul\":4788:4818   */\n      mstore\n        /* \"#utility.yul\":4854:4886   */\n      0x43616c6c206661696c6564207769746820756e6b6e6f776e206572726f720000\n        /* \"#utility.yul\":4834:4852   */\n      0x44\n      dup3\n      add\n        /* \"#utility.yul\":4827:4887   */\n      mstore\n        /* \"#utility.yul\":4904:4922   */\n      0x64\n      add\n        /* \"string-sender-wrapper.sol\":736:776  revert(\"Call failed with unknown error\") */\n      tag_29\n        /* \"#utility.yul\":4574:4928   */\n      jump\n        /* \"string-sender-wrapper.sol\":509:783  try stringSender.sendString{value: msg.value}(_dstEid, _message, _options) {... */\n    tag_18:\n        /* \"string-sender-wrapper.sol\":379:785  function callSendString(... */\n      pop\n      pop\n      pop\n      pop\n      pop\n      jump\t// out\n        /* \"#utility.yul\":14:362   */\n    tag_34:\n        /* \"#utility.yul\":66:74   */\n      0x00\n        /* \"#utility.yul\":76:82   */\n      dup1\n        /* \"#utility.yul\":130:133   */\n      dup4\n        /* \"#utility.yul\":123:127   */\n      0x1f\n        /* \"#utility.yul\":115:121   */\n      dup5\n        /* \"#utility.yul\":111:128   */\n      add\n        /* \"#utility.yul\":107:134   */\n      slt\n        /* \"#utility.yul\":97:152   */\n      tag_40\n      jumpi\n        /* \"#utility.yul\":148:149   */\n      0x00\n        /* \"#utility.yul\":145:146   */\n      dup1\n        /* \"#utility.yul\":138:150   */\n      revert\n        /* \"#utility.yul\":97:152   */\n    tag_40:\n      pop\n        /* \"#utility.yul\":171:191   */\n      dup2\n      calldataload\n        /* \"#utility.yul\":214:232   */\n      0xffffffffffffffff\n        /* \"#utility.yul\":203:233   */\n      dup2\n      gt\n        /* \"#utility.yul\":200:250   */\n      iszero\n      tag_41\n      jumpi\n        /* \"#utility.yul\":246:247   */\n      0x00\n        /* \"#utility.yul\":243:244   */\n      dup1\n        /* \"#utility.yul\":236:248   */\n      revert\n        /* \"#utility.yul\":200:250   */\n    tag_41:\n        /* \"#utility.yul\":283:287   */\n      0x20\n        /* \"#utility.yul\":275:281   */\n      dup4\n        /* \"#utility.yul\":271:288   */\n      add\n        /* \"#utility.yul\":259:288   */\n      swap2\n      pop\n        /* \"#utility.yul\":335:338   */\n      dup4\n        /* \"#utility.yul\":328:332   */\n      0x20\n        /* \"#utility.yul\":319:325   */\n      dup3\n        /* \"#utility.yul\":311:317   */\n      dup6\n        /* \"#utility.yul\":307:326   */\n      add\n        /* \"#utility.yul\":303:333   */\n      add\n        /* \"#utility.yul\":300:339   */\n      gt\n        /* \"#utility.yul\":297:356   */\n      iszero\n      tag_42\n      jumpi\n        /* \"#utility.yul\":352:353   */\n      0x00\n        /* \"#utility.yul\":349:350   */\n      dup1\n        /* \"#utility.yul\":342:354   */\n      revert\n        /* \"#utility.yul\":297:356   */\n    tag_42:\n        /* \"#utility.yul\":14:362   */\n      swap3\n      pop\n      swap3\n      swap1\n      pop\n      jump\t// out\n        /* \"#utility.yul\":367:1246   */\n    tag_6:\n        /* \"#utility.yul\":466:472   */\n      0x00\n        /* \"#utility.yul\":474:480   */\n      dup1\n        /* \"#utility.yul\":482:488   */\n      0x00\n        /* \"#utility.yul\":490:496   */\n      dup1\n        /* \"#utility.yul\":498:504   */\n      0x00\n        /* \"#utility.yul\":551:553   */\n      0x60\n        /* \"#utility.yul\":539:548   */\n      dup7\n        /* \"#utility.yul\":530:537   */\n      dup9\n        /* \"#utility.yul\":526:549   */\n      sub\n        /* \"#utility.yul\":522:554   */\n      slt\n        /* \"#utility.yul\":519:571   */\n      iszero\n      tag_44\n      jumpi\n        /* \"#utility.yul\":567:568   */\n      0x00\n        /* \"#utility.yul\":564:565   */\n      dup1\n        /* \"#utility.yul\":557:569   */\n      revert\n        /* \"#utility.yul\":519:571   */\n    tag_44:\n        /* \"#utility.yul\":606:615   */\n      dup6\n        /* \"#utility.yul\":593:616   */\n      calldataload\n        /* \"#utility.yul\":656:666   */\n      0xffffffff\n        /* \"#utility.yul\":649:654   */\n      dup2\n        /* \"#utility.yul\":645:667   */\n      and\n        /* \"#utility.yul\":638:643   */\n      dup2\n        /* \"#utility.yul\":635:668   */\n      eq\n        /* \"#utility.yul\":625:686   */\n      tag_45\n      jumpi\n        /* \"#utility.yul\":682:683   */\n      0x00\n        /* \"#utility.yul\":679:680   */\n      dup1\n        /* \"#utility.yul\":672:684   */\n      revert\n        /* \"#utility.yul\":625:686   */\n    tag_45:\n        /* \"#utility.yul\":705:710   */\n      swap5\n      pop\n        /* \"#utility.yul\":761:763   */\n      0x20\n        /* \"#utility.yul\":746:764   */\n      dup7\n      add\n        /* \"#utility.yul\":733:765   */\n      calldataload\n        /* \"#utility.yul\":788:806   */\n      0xffffffffffffffff\n        /* \"#utility.yul\":777:807   */\n      dup2\n      gt\n        /* \"#utility.yul\":774:824   */\n      iszero\n      tag_46\n      jumpi\n        /* \"#utility.yul\":820:821   */\n      0x00\n        /* \"#utility.yul\":817:818   */\n      dup1\n        /* \"#utility.yul\":810:822   */\n      revert\n        /* \"#utility.yul\":774:824   */\n    tag_46:\n        /* \"#utility.yul\":859:918   */\n      tag_47\n        /* \"#utility.yul\":910:917   */\n      dup9\n        /* \"#utility.yul\":901:907   */\n      dup3\n        /* \"#utility.yul\":890:899   */\n      dup10\n        /* \"#utility.yul\":886:908   */\n      add\n        /* \"#utility.yul\":859:918   */\n      tag_34\n      jump\t// in\n    tag_47:\n        /* \"#utility.yul\":937:945   */\n      swap1\n      swap6\n      pop\n        /* \"#utility.yul\":833:918   */\n      swap4\n      pop\n      pop\n        /* \"#utility.yul\":1025:1027   */\n      0x40\n        /* \"#utility.yul\":1010:1028   */\n      dup7\n      add\n        /* \"#utility.yul\":997:1029   */\n      calldataload\n        /* \"#utility.yul\":1054:1072   */\n      0xffffffffffffffff\n        /* \"#utility.yul\":1041:1073   */\n      dup2\n      gt\n        /* \"#utility.yul\":1038:1090   */\n      iszero\n      tag_48\n      jumpi\n        /* \"#utility.yul\":1086:1087   */\n      0x00\n        /* \"#utility.yul\":1083:1084   */\n      dup1\n        /* \"#utility.yul\":1076:1088   */\n      revert\n        /* \"#utility.yul\":1038:1090   */\n    tag_48:\n        /* \"#utility.yul\":1125:1186   */\n      tag_49\n        /* \"#utility.yul\":1178:1185   */\n      dup9\n        /* \"#utility.yul\":1167:1175   */\n      dup3\n        /* \"#utility.yul\":1156:1165   */\n      dup10\n        /* \"#utility.yul\":1152:1176   */\n      add\n        /* \"#utility.yul\":1125:1186   */\n      tag_34\n      jump\t// in\n    tag_49:\n        /* \"#utility.yul\":367:1246   */\n      swap7\n      swap10\n      swap6\n      swap9\n      pop\n      swap4\n      swap7\n      pop\n        /* \"#utility.yul\":1205:1213   */\n      swap3\n      swap5\n        /* \"#utility.yul\":1099:1186   */\n      swap4\n        /* \"#utility.yul\":367:1246   */\n      swap3\n      pop\n      pop\n      pop\n      jump\t// out\n        /* \"#utility.yul\":1502:1769   */\n    tag_35:\n        /* \"#utility.yul\":1591:1597   */\n      dup2\n        /* \"#utility.yul\":1586:1589   */\n      dup4\n        /* \"#utility.yul\":1579:1598   */\n      mstore\n        /* \"#utility.yul\":1643:1649   */\n      dup2\n        /* \"#utility.yul\":1636:1641   */\n      dup2\n        /* \"#utility.yul\":1629:1633   */\n      0x20\n        /* \"#utility.yul\":1624:1627   */\n      dup6\n        /* \"#utility.yul\":1620:1634   */\n      add\n        /* \"#utility.yul\":1607:1650   */\n      calldatacopy\n      pop\n        /* \"#utility.yul\":1695:1696   */\n      0x00\n        /* \"#utility.yul\":1670:1686   */\n      dup3\n      dup3\n      add\n        /* \"#utility.yul\":1688:1692   */\n      0x20\n        /* \"#utility.yul\":1666:1693   */\n      swap1\n      dup2\n      add\n        /* \"#utility.yul\":1659:1697   */\n      swap2\n      swap1\n      swap2\n      mstore\n        /* \"#utility.yul\":1751:1753   */\n      0x1f\n        /* \"#utility.yul\":1730:1745   */\n      swap1\n      swap2\n      add\n      not(0x1f)\n        /* \"#utility.yul\":1726:1755   */\n      and\n        /* \"#utility.yul\":1717:1756   */\n      swap1\n      swap2\n      add\n        /* \"#utility.yul\":1713:1763   */\n      add\n      swap1\n        /* \"#utility.yul\":1502:1769   */\n      jump\t// out\n        /* \"#utility.yul\":1774:2295   */\n    tag_15:\n        /* \"#utility.yul\":2027:2037   */\n      0xffffffff\n        /* \"#utility.yul\":2019:2025   */\n      dup7\n        /* \"#utility.yul\":2015:2038   */\n      and\n        /* \"#utility.yul\":2004:2013   */\n      dup2\n        /* \"#utility.yul\":1997:2039   */\n      mstore\n        /* \"#utility.yul\":2075:2077   */\n      0x60\n        /* \"#utility.yul\":2070:2072   */\n      0x20\n        /* \"#utility.yul\":2059:2068   */\n      dup3\n        /* \"#utility.yul\":2055:2073   */\n      add\n        /* \"#utility.yul\":2048:2078   */\n      mstore\n        /* \"#utility.yul\":1978:1982   */\n      0x00\n        /* \"#utility.yul\":2101:2163   */\n      tag_53\n        /* \"#utility.yul\":2159:2161   */\n      0x60\n        /* \"#utility.yul\":2148:2157   */\n      dup4\n        /* \"#utility.yul\":2144:2162   */\n      add\n        /* \"#utility.yul\":2136:2142   */\n      dup7\n        /* \"#utility.yul\":2128:2134   */\n      dup9\n        /* \"#utility.yul\":2101:2163   */\n      tag_35\n      jump\t// in\n    tag_53:\n        /* \"#utility.yul\":2211:2220   */\n      dup3\n        /* \"#utility.yul\":2203:2209   */\n      dup2\n        /* \"#utility.yul\":2199:2221   */\n      sub\n        /* \"#utility.yul\":2194:2196   */\n      0x40\n        /* \"#utility.yul\":2183:2192   */\n      dup5\n        /* \"#utility.yul\":2179:2197   */\n      add\n        /* \"#utility.yul\":2172:2222   */\n      mstore\n        /* \"#utility.yul\":2239:2289   */\n      tag_54\n        /* \"#utility.yul\":2282:2288   */\n      dup2\n        /* \"#utility.yul\":2274:2280   */\n      dup6\n        /* \"#utility.yul\":2266:2272   */\n      dup8\n        /* \"#utility.yul\":2239:2289   */\n      tag_35\n      jump\t// in\n    tag_54:\n        /* \"#utility.yul\":2231:2289   */\n      swap9\n        /* \"#utility.yul\":1774:2295   */\n      swap8\n      pop\n      pop\n      pop\n      pop\n      pop\n      pop\n      pop\n      pop\n      jump\t// out\n        /* \"#utility.yul\":2300:2479   */\n    tag_23:\n        /* \"#utility.yul\":2335:2338   */\n      0x00\n        /* \"#utility.yul\":2377:2378   */\n      0x03\n        /* \"#utility.yul\":2359:2375   */\n      returndatasize\n        /* \"#utility.yul\":2356:2379   */\n      gt\n        /* \"#utility.yul\":2353:2473   */\n      iszero\n      tag_56\n      jumpi\n        /* \"#utility.yul\":2423:2424   */\n      0x04\n        /* \"#utility.yul\":2420:2421   */\n      0x00\n        /* \"#utility.yul\":2417:2418   */\n      dup1\n        /* \"#utility.yul\":2402:2425   */\n      returndatacopy\n      pop\n        /* \"#utility.yul\":2460:2461   */\n      0x00\n        /* \"#utility.yul\":2454:2462   */\n      mload\n        /* \"#utility.yul\":2449:2452   */\n      0xe0\n        /* \"#utility.yul\":2445:2463   */\n      shr\n        /* \"#utility.yul\":2353:2473   */\n    tag_56:\n        /* \"#utility.yul\":2300:2479   */\n      swap1\n      jump\t// out\n        /* \"#utility.yul\":2484:2830   */\n    tag_36:\n        /* \"#utility.yul\":2594:2596   */\n      0x1f\n        /* \"#utility.yul\":2575:2588   */\n      dup3\n      add\n      not(0x1f)\n        /* \"#utility.yul\":2571:2598   */\n      and\n        /* \"#utility.yul\":2559:2599   */\n      dup2\n      add\n        /* \"#utility.yul\":2629:2647   */\n      0xffffffffffffffff\n        /* \"#utility.yul\":2614:2648   */\n      dup2\n      gt\n        /* \"#utility.yul\":2650:2672   */\n      dup3\n      dup3\n      lt\n        /* \"#utility.yul\":2611:2673   */\n      or\n        /* \"#utility.yul\":2608:2793   */\n      iszero\n      tag_58\n      jumpi\n        /* \"#utility.yul\":2715:2725   */\n      0x4e487b71\n        /* \"#utility.yul\":2710:2713   */\n      0xe0\n        /* \"#utility.yul\":2706:2726   */\n      shl\n        /* \"#utility.yul\":2703:2704   */\n      0x00\n        /* \"#utility.yul\":2696:2727   */\n      mstore\n        /* \"#utility.yul\":2750:2754   */\n      0x41\n        /* \"#utility.yul\":2747:2748   */\n      0x04\n        /* \"#utility.yul\":2740:2755   */\n      mstore\n        /* \"#utility.yul\":2778:2782   */\n      0x24\n        /* \"#utility.yul\":2775:2776   */\n      0x00\n        /* \"#utility.yul\":2768:2783   */\n      revert\n        /* \"#utility.yul\":2608:2793   */\n    tag_58:\n        /* \"#utility.yul\":2809:2811   */\n      0x40\n        /* \"#utility.yul\":2802:2824   */\n      mstore\n      pop\n      pop\n        /* \"#utility.yul\":2484:2830   */\n      jump\t// out\n        /* \"#utility.yul\":2835:3463   */\n    tag_25:\n        /* \"#utility.yul\":2874:2877   */\n      0x00\n        /* \"#utility.yul\":2916:2920   */\n      0x44\n        /* \"#utility.yul\":2898:2914   */\n      returndatasize\n        /* \"#utility.yul\":2895:2921   */\n      lt\n        /* \"#utility.yul\":2892:2931   */\n      iszero\n      tag_60\n      jumpi\n        /* \"#utility.yul\":2835:3463   */\n      swap1\n      jump\t// out\n        /* \"#utility.yul\":2892:2931   */\n    tag_60:\n        /* \"#utility.yul\":2958:2960   */\n      0x40\n        /* \"#utility.yul\":2952:2961   */\n      mload\n        /* \"#utility.yul\":2998:3014   */\n      returndatasize\n      not(0x03)\n        /* \"#utility.yul\":2994:3023   */\n      add\n        /* \"#utility.yul\":2991:2992   */\n      0x04\n        /* \"#utility.yul\":2952:2961   */\n      dup3\n        /* \"#utility.yul\":2970:3024   */\n      returndatacopy\n        /* \"#utility.yul\":3053:3057   */\n      dup1\n        /* \"#utility.yul\":3047:3058   */\n      mload\n        /* \"#utility.yul\":3127:3143   */\n      returndatasize\n        /* \"#utility.yul\":3120:3124   */\n      0x24\n        /* \"#utility.yul\":3112:3118   */\n      dup3\n        /* \"#utility.yul\":3108:3125   */\n      add\n        /* \"#utility.yul\":3105:3144   */\n      gt\n        /* \"#utility.yul\":3084:3102   */\n      0xffffffffffffffff\n        /* \"#utility.yul\":3076:3082   */\n      dup3\n        /* \"#utility.yul\":3073:3103   */\n      gt\n        /* \"#utility.yul\":3070:3145   */\n      or\n        /* \"#utility.yul\":3067:3155   */\n      iszero\n      tag_61\n      jumpi\n        /* \"#utility.yul\":3148:3153   */\n      pop\n      pop\n        /* \"#utility.yul\":2835:3463   */\n      swap1\n      jump\t// out\n        /* \"#utility.yul\":3067:3155   */\n    tag_61:\n        /* \"#utility.yul\":3185:3191   */\n      dup1\n        /* \"#utility.yul\":3179:3183   */\n      dup3\n        /* \"#utility.yul\":3175:3192   */\n      add\n        /* \"#utility.yul\":3221:3224   */\n      dup1\n        /* \"#utility.yul\":3215:3225   */\n      mload\n        /* \"#utility.yul\":3248:3266   */\n      0xffffffffffffffff\n        /* \"#utility.yul\":3240:3246   */\n      dup2\n        /* \"#utility.yul\":3237:3267   */\n      gt\n        /* \"#utility.yul\":3234:3277   */\n      iszero\n      tag_62\n      jumpi\n        /* \"#utility.yul\":3270:3275   */\n      pop\n      pop\n      pop\n      pop\n        /* \"#utility.yul\":2835:3463   */\n      swap1\n      jump\t// out\n        /* \"#utility.yul\":3234:3277   */\n    tag_62:\n        /* \"#utility.yul\":3335:3351   */\n      returndatasize\n        /* \"#utility.yul\":3325:3352   */\n      dup5\n      add\n      not(0x03)\n        /* \"#utility.yul\":3321:3361   */\n      add\n        /* \"#utility.yul\":3296:3312   */\n      dup3\n      dup3\n      add\n        /* \"#utility.yul\":3314:3318   */\n      0x20\n        /* \"#utility.yul\":3292:3319   */\n      add\n        /* \"#utility.yul\":3289:3362   */\n      gt\n        /* \"#utility.yul\":3286:3372   */\n      iszero\n      tag_63\n      jumpi\n        /* \"#utility.yul\":3365:3370   */\n      pop\n      pop\n      pop\n      pop\n        /* \"#utility.yul\":2835:3463   */\n      swap1\n      jump\t// out\n        /* \"#utility.yul\":3286:3372   */\n    tag_63:\n        /* \"#utility.yul\":3381:3438   */\n      tag_64\n        /* \"#utility.yul\":3432:3436   */\n      0x20\n        /* \"#utility.yul\":3423:3429   */\n      dup3\n        /* \"#utility.yul\":3415:3421   */\n      dup6\n        /* \"#utility.yul\":3411:3430   */\n      add\n        /* \"#utility.yul\":3407:3437   */\n      add\n        /* \"#utility.yul\":3401:3405   */\n      dup6\n        /* \"#utility.yul\":3381:3438   */\n      tag_36\n      jump\t// in\n    tag_64:\n      pop\n        /* \"#utility.yul\":3454:3457   */\n      swap4\n        /* \"#utility.yul\":2835:3463   */\n      swap3\n      pop\n      pop\n      pop\n      jump\t// out\n        /* \"#utility.yul\":3468:3718   */\n    tag_37:\n        /* \"#utility.yul\":3553:3554   */\n      0x00\n        /* \"#utility.yul\":3563:3676   */\n    tag_66:\n        /* \"#utility.yul\":3577:3583   */\n      dup4\n        /* \"#utility.yul\":3574:3575   */\n      dup2\n        /* \"#utility.yul\":3571:3584   */\n      lt\n        /* \"#utility.yul\":3563:3676   */\n      iszero\n      tag_68\n      jumpi\n        /* \"#utility.yul\":3653:3664   */\n      dup2\n      dup2\n      add\n        /* \"#utility.yul\":3647:3665   */\n      mload\n        /* \"#utility.yul\":3634:3645   */\n      dup4\n      dup3\n      add\n        /* \"#utility.yul\":3627:3666   */\n      mstore\n        /* \"#utility.yul\":3599:3601   */\n      0x20\n        /* \"#utility.yul\":3592:3602   */\n      add\n        /* \"#utility.yul\":3563:3676   */\n      jump(tag_66)\n    tag_68:\n      pop\n      pop\n        /* \"#utility.yul\":3710:3711   */\n      0x00\n        /* \"#utility.yul\":3692:3708   */\n      swap2\n      add\n        /* \"#utility.yul\":3685:3712   */\n      mstore\n        /* \"#utility.yul\":3468:3718   */\n      jump\t// out\n        /* \"#utility.yul\":3723:4168   */\n    tag_28:\n      shl(0x9d, 0x021b0b636103330b4b632b21d1)\n        /* \"#utility.yul\":3980:3983   */\n      dup2\n        /* \"#utility.yul\":3973:4001   */\n      mstore\n        /* \"#utility.yul\":3955:3958   */\n      0x00\n        /* \"#utility.yul\":4030:4036   */\n      dup3\n        /* \"#utility.yul\":4024:4037   */\n      mload\n        /* \"#utility.yul\":4046:4121   */\n      tag_70\n        /* \"#utility.yul\":4114:4120   */\n      dup2\n        /* \"#utility.yul\":4109:4111   */\n      0x0d\n        /* \"#utility.yul\":4104:4107   */\n      dup6\n        /* \"#utility.yul\":4100:4112   */\n      add\n        /* \"#utility.yul\":4093:4097   */\n      0x20\n        /* \"#utility.yul\":4085:4091   */\n      dup8\n        /* \"#utility.yul\":4081:4098   */\n      add\n        /* \"#utility.yul\":4046:4121   */\n      tag_37\n      jump\t// in\n    tag_70:\n        /* \"#utility.yul\":4141:4157   */\n      swap2\n      swap1\n      swap2\n      add\n        /* \"#utility.yul\":4159:4161   */\n      0x0d\n        /* \"#utility.yul\":4137:4162   */\n      add\n      swap3\n        /* \"#utility.yul\":3723:4168   */\n      swap2\n      pop\n      pop\n      jump\t// out\n        /* \"#utility.yul\":4173:4569   */\n    tag_30:\n        /* \"#utility.yul\":4322:4324   */\n      0x20\n        /* \"#utility.yul\":4311:4320   */\n      dup2\n        /* \"#utility.yul\":4304:4325   */\n      mstore\n        /* \"#utility.yul\":4285:4289   */\n      0x00\n        /* \"#utility.yul\":4354:4360   */\n      dup3\n        /* \"#utility.yul\":4348:4361   */\n      mload\n        /* \"#utility.yul\":4397:4403   */\n      dup1\n        /* \"#utility.yul\":4392:4394   */\n      0x20\n        /* \"#utility.yul\":4381:4390   */\n      dup5\n        /* \"#utility.yul\":4377:4395   */\n      add\n        /* \"#utility.yul\":4370:4404   */\n      mstore\n        /* \"#utility.yul\":4413:4492   */\n      tag_72\n        /* \"#utility.yul\":4485:4491   */\n      dup2\n        /* \"#utility.yul\":4480:4482   */\n      0x40\n        /* \"#utility.yul\":4469:4478   */\n      dup6\n        /* \"#utility.yul\":4465:4483   */\n      add\n        /* \"#utility.yul\":4460:4462   */\n      0x20\n        /* \"#utility.yul\":4452:4458   */\n      dup8\n        /* \"#utility.yul\":4448:4463   */\n      add\n        /* \"#utility.yul\":4413:4492   */\n      tag_37\n      jump\t// in\n    tag_72:\n        /* \"#utility.yul\":4553:4555   */\n      0x1f\n        /* \"#utility.yul\":4532:4547   */\n      add\n      not(0x1f)\n        /* \"#utility.yul\":4528:4557   */\n      and\n        /* \"#utility.yul\":4513:4558   */\n      swap2\n      swap1\n      swap2\n      add\n        /* \"#utility.yul\":4560:4562   */\n      0x40\n        /* \"#utility.yul\":4509:4563   */\n      add\n      swap3\n        /* \"#utility.yul\":4173:4569   */\n      swap2\n      pop\n      pop\n      jump\t// out\n\n    auxdata: 0xa26469706673582212201234b75c153fd3869f56bba30429d28388d00898cebf19e953dbf8103f7e845c64736f6c634300081c0033\n}\n",
				"bytecode": {
					"linkReferences": {},
					"object": "6080604052348015600f57600080fd5b5060405161050d38038061050d833981016040819052602c916050565b600080546001600160a01b0319166001600160a01b0392909216919091179055607e565b600060208284031215606157600080fd5b81516001600160a01b0381168114607757600080fd5b9392505050565b6104808061008d6000396000f3fe6080604052600436106100295760003560e01c80632b9f4bb91461002e578063a70c3e7d14610043575b600080fd5b61004161003c3660046101e9565b61007f565b005b34801561004f57600080fd5b50600054610063906001600160a01b031681565b6040516001600160a01b03909116815260200160405180910390f35b6000546040516301b77cb160e51b81526001600160a01b03909116906336ef96209034906100b990899089908990899089906004016102a3565b6000604051808303818588803b1580156100d257600080fd5b505af1935050505080156100e4575060015b610199576100f06102e2565b806308c379a00361014f5750610104610339565b8061010f5750610151565b8060405160200161012091906103e2565b60408051601f198184030181529082905262461bcd60e51b825261014691600401610417565b60405180910390fd5b505b60405162461bcd60e51b815260206004820152601e60248201527f43616c6c206661696c6564207769746820756e6b6e6f776e206572726f7200006044820152606401610146565b5050505050565b60008083601f8401126101b257600080fd5b50813567ffffffffffffffff8111156101ca57600080fd5b6020830191508360208285010111156101e257600080fd5b9250929050565b60008060008060006060868803121561020157600080fd5b853563ffffffff8116811461021557600080fd5b9450602086013567ffffffffffffffff81111561023157600080fd5b61023d888289016101a0565b909550935050604086013567ffffffffffffffff81111561025d57600080fd5b610269888289016101a0565b969995985093965092949392505050565b81835281816020850137506000828201602090810191909152601f909101601f19169091010190565b63ffffffff861681526060602082015260006102c360608301868861027a565b82810360408401526102d681858761027a565b98975050505050505050565b600060033d11156102fb5760046000803e5060005160e01c5b90565b601f8201601f1916810167ffffffffffffffff8111828210171561033257634e487b7160e01b600052604160045260246000fd5b6040525050565b600060443d10156103475790565b6040513d600319016004823e80513d602482011167ffffffffffffffff8211171561037157505090565b808201805167ffffffffffffffff81111561038d575050505090565b3d84016003190182820160200111156103a7575050505090565b6103b6602082850101856102fe565b509392505050565b60005b838110156103d95781810151838201526020016103c1565b50506000910152565b6c021b0b636103330b4b632b21d1609d1b81526000825161040a81600d8501602087016103be565b91909101600d0192915050565b60208152600082518060208401526104368160408501602087016103be565b601f01601f1916919091016040019291505056fea26469706673582212201234b75c153fd3869f56bba30429d28388d00898cebf19e953dbf8103f7e845c64736f6c634300081c0033",
					"opcodes": "PUSH1 0x80 PUSH1 0x40 MSTORE CALLVALUE DUP1 ISZERO PUSH1 0xF JUMPI PUSH1 0x0 DUP1 REVERT JUMPDEST POP PUSH1 0x40 MLOAD PUSH2 0x50D CODESIZE SUB DUP1 PUSH2 0x50D DUP4 CODECOPY DUP2 ADD PUSH1 0x40 DUP2 SWAP1 MSTORE PUSH1 0x2C SWAP2 PUSH1 0x50 JUMP JUMPDEST PUSH1 0x0 DUP1 SLOAD PUSH1 0x1 PUSH1 0x1 PUSH1 0xA0 SHL SUB NOT AND PUSH1 0x1 PUSH1 0x1 PUSH1 0xA0 SHL SUB SWAP3 SWAP1 SWAP3 AND SWAP2 SWAP1 SWAP2 OR SWAP1 SSTORE PUSH1 0x7E JUMP JUMPDEST PUSH1 0x0 PUSH1 0x20 DUP3 DUP5 SUB SLT ISZERO PUSH1 0x61 JUMPI PUSH1 0x0 DUP1 REVERT JUMPDEST DUP2 MLOAD PUSH1 0x1 PUSH1 0x1 PUSH1 0xA0 SHL SUB DUP2 AND DUP2 EQ PUSH1 0x77 JUMPI PUSH1 0x0 DUP1 REVERT JUMPDEST SWAP4 SWAP3 POP POP POP JUMP JUMPDEST PUSH2 0x480 DUP1 PUSH2 0x8D PUSH1 0x0 CODECOPY PUSH1 0x0 RETURN INVALID PUSH1 0x80 PUSH1 0x40 MSTORE PUSH1 0x4 CALLDATASIZE LT PUSH2 0x29 JUMPI PUSH1 0x0 CALLDATALOAD PUSH1 0xE0 SHR DUP1 PUSH4 0x2B9F4BB9 EQ PUSH2 0x2E JUMPI DUP1 PUSH4 0xA70C3E7D EQ PUSH2 0x43 JUMPI JUMPDEST PUSH1 0x0 DUP1 REVERT JUMPDEST PUSH2 0x41 PUSH2 0x3C CALLDATASIZE PUSH1 0x4 PUSH2 0x1E9 JUMP JUMPDEST PUSH2 0x7F JUMP JUMPDEST STOP JUMPDEST CALLVALUE DUP1 ISZERO PUSH2 0x4F JUMPI PUSH1 0x0 DUP1 REVERT JUMPDEST POP PUSH1 0x0 SLOAD PUSH2 0x63 SWAP1 PUSH1 0x1 PUSH1 0x1 PUSH1 0xA0 SHL SUB AND DUP2 JUMP JUMPDEST PUSH1 0x40 MLOAD PUSH1 0x1 PUSH1 0x1 PUSH1 0xA0 SHL SUB SWAP1 SWAP2 AND DUP2 MSTORE PUSH1 0x20 ADD PUSH1 0x40 MLOAD DUP1 SWAP2 SUB SWAP1 RETURN JUMPDEST PUSH1 0x0 SLOAD PUSH1 0x40 MLOAD PUSH4 0x1B77CB1 PUSH1 0xE5 SHL DUP2 MSTORE PUSH1 0x1 PUSH1 0x1 PUSH1 0xA0 SHL SUB SWAP1 SWAP2 AND SWAP1 PUSH4 0x36EF9620 SWAP1 CALLVALUE SWAP1 PUSH2 0xB9 SWAP1 DUP10 SWAP1 DUP10 SWAP1 DUP10 SWAP1 DUP10 SWAP1 DUP10 SWAP1 PUSH1 0x4 ADD PUSH2 0x2A3 JUMP JUMPDEST PUSH1 0x0 PUSH1 0x40 MLOAD DUP1 DUP4 SUB DUP2 DUP6 DUP9 DUP1 EXTCODESIZE ISZERO DUP1 ISZERO PUSH2 0xD2 JUMPI PUSH1 0x0 DUP1 REVERT JUMPDEST POP GAS CALL SWAP4 POP POP POP POP DUP1 ISZERO PUSH2 0xE4 JUMPI POP PUSH1 0x1 JUMPDEST PUSH2 0x199 JUMPI PUSH2 0xF0 PUSH2 0x2E2 JUMP JUMPDEST DUP1 PUSH4 0x8C379A0 SUB PUSH2 0x14F JUMPI POP PUSH2 0x104 PUSH2 0x339 JUMP JUMPDEST DUP1 PUSH2 0x10F JUMPI POP PUSH2 0x151 JUMP JUMPDEST DUP1 PUSH1 0x40 MLOAD PUSH1 0x20 ADD PUSH2 0x120 SWAP2 SWAP1 PUSH2 0x3E2 JUMP JUMPDEST PUSH1 0x40 DUP1 MLOAD PUSH1 0x1F NOT DUP2 DUP5 SUB ADD DUP2 MSTORE SWAP1 DUP3 SWAP1 MSTORE PUSH3 0x461BCD PUSH1 0xE5 SHL DUP3 MSTORE PUSH2 0x146 SWAP2 PUSH1 0x4 ADD PUSH2 0x417 JUMP JUMPDEST PUSH1 0x40 MLOAD DUP1 SWAP2 SUB SWAP1 REVERT JUMPDEST POP JUMPDEST PUSH1 0x40 MLOAD PUSH3 0x461BCD PUSH1 0xE5 SHL DUP2 MSTORE PUSH1 0x20 PUSH1 0x4 DUP3 ADD MSTORE PUSH1 0x1E PUSH1 0x24 DUP3 ADD MSTORE PUSH32 0x43616C6C206661696C6564207769746820756E6B6E6F776E206572726F720000 PUSH1 0x44 DUP3 ADD MSTORE PUSH1 0x64 ADD PUSH2 0x146 JUMP JUMPDEST POP POP POP POP POP JUMP JUMPDEST PUSH1 0x0 DUP1 DUP4 PUSH1 0x1F DUP5 ADD SLT PUSH2 0x1B2 JUMPI PUSH1 0x0 DUP1 REVERT JUMPDEST POP DUP2 CALLDATALOAD PUSH8 0xFFFFFFFFFFFFFFFF DUP2 GT ISZERO PUSH2 0x1CA JUMPI PUSH1 0x0 DUP1 REVERT JUMPDEST PUSH1 0x20 DUP4 ADD SWAP2 POP DUP4 PUSH1 0x20 DUP3 DUP6 ADD ADD GT ISZERO PUSH2 0x1E2 JUMPI PUSH1 0x0 DUP1 REVERT JUMPDEST SWAP3 POP SWAP3 SWAP1 POP JUMP JUMPDEST PUSH1 0x0 DUP1 PUSH1 0x0 DUP1 PUSH1 0x0 PUSH1 0x60 DUP7 DUP9 SUB SLT ISZERO PUSH2 0x201 JUMPI PUSH1 0x0 DUP1 REVERT JUMPDEST DUP6 CALLDATALOAD PUSH4 0xFFFFFFFF DUP2 AND DUP2 EQ PUSH2 0x215 JUMPI PUSH1 0x0 DUP1 REVERT JUMPDEST SWAP5 POP PUSH1 0x20 DUP7 ADD CALLDATALOAD PUSH8 0xFFFFFFFFFFFFFFFF DUP2 GT ISZERO PUSH2 0x231 JUMPI PUSH1 0x0 DUP1 REVERT JUMPDEST PUSH2 0x23D DUP9 DUP3 DUP10 ADD PUSH2 0x1A0 JUMP JUMPDEST SWAP1 SWAP6 POP SWAP4 POP POP PUSH1 0x40 DUP7 ADD CALLDATALOAD PUSH8 0xFFFFFFFFFFFFFFFF DUP2 GT ISZERO PUSH2 0x25D JUMPI PUSH1 0x0 DUP1 REVERT JUMPDEST PUSH2 0x269 DUP9 DUP3 DUP10 ADD PUSH2 0x1A0 JUMP JUMPDEST SWAP7 SWAP10 SWAP6 SWAP9 POP SWAP4 SWAP7 POP SWAP3 SWAP5 SWAP4 SWAP3 POP POP POP JUMP JUMPDEST DUP2 DUP4 MSTORE DUP2 DUP2 PUSH1 0x20 DUP6 ADD CALLDATACOPY POP PUSH1 0x0 DUP3 DUP3 ADD PUSH1 0x20 SWAP1 DUP2 ADD SWAP2 SWAP1 SWAP2 MSTORE PUSH1 0x1F SWAP1 SWAP2 ADD PUSH1 0x1F NOT AND SWAP1 SWAP2 ADD ADD SWAP1 JUMP JUMPDEST PUSH4 0xFFFFFFFF DUP7 AND DUP2 MSTORE PUSH1 0x60 PUSH1 0x20 DUP3 ADD MSTORE PUSH1 0x0 PUSH2 0x2C3 PUSH1 0x60 DUP4 ADD DUP7 DUP9 PUSH2 0x27A JUMP JUMPDEST DUP3 DUP2 SUB PUSH1 0x40 DUP5 ADD MSTORE PUSH2 0x2D6 DUP2 DUP6 DUP8 PUSH2 0x27A JUMP JUMPDEST SWAP9 SWAP8 POP POP POP POP POP POP POP POP JUMP JUMPDEST PUSH1 0x0 PUSH1 0x3 RETURNDATASIZE GT ISZERO PUSH2 0x2FB JUMPI PUSH1 0x4 PUSH1 0x0 DUP1 RETURNDATACOPY POP PUSH1 0x0 MLOAD PUSH1 0xE0 SHR JUMPDEST SWAP1 JUMP JUMPDEST PUSH1 0x1F DUP3 ADD PUSH1 0x1F NOT AND DUP2 ADD PUSH8 0xFFFFFFFFFFFFFFFF DUP2 GT DUP3 DUP3 LT OR ISZERO PUSH2 0x332 JUMPI PUSH4 0x4E487B71 PUSH1 0xE0 SHL PUSH1 0x0 MSTORE PUSH1 0x41 PUSH1 0x4 MSTORE PUSH1 0x24 PUSH1 0x0 REVERT JUMPDEST PUSH1 0x40 MSTORE POP POP JUMP JUMPDEST PUSH1 0x0 PUSH1 0x44 RETURNDATASIZE LT ISZERO PUSH2 0x347 JUMPI SWAP1 JUMP JUMPDEST PUSH1 0x40 MLOAD RETURNDATASIZE PUSH1 0x3 NOT ADD PUSH1 0x4 DUP3 RETURNDATACOPY DUP1 MLOAD RETURNDATASIZE PUSH1 0x24 DUP3 ADD GT PUSH8 0xFFFFFFFFFFFFFFFF DUP3 GT OR ISZERO PUSH2 0x371 JUMPI POP POP SWAP1 JUMP JUMPDEST DUP1 DUP3 ADD DUP1 MLOAD PUSH8 0xFFFFFFFFFFFFFFFF DUP2 GT ISZERO PUSH2 0x38D JUMPI POP POP POP POP SWAP1 JUMP JUMPDEST RETURNDATASIZE DUP5 ADD PUSH1 0x3 NOT ADD DUP3 DUP3 ADD PUSH1 0x20 ADD GT ISZERO PUSH2 0x3A7 JUMPI POP POP POP POP SWAP1 JUMP JUMPDEST PUSH2 0x3B6 PUSH1 0x20 DUP3 DUP6 ADD ADD DUP6 PUSH2 0x2FE JUMP JUMPDEST POP SWAP4 SWAP3 POP POP POP JUMP JUMPDEST PUSH1 0x0 JUMPDEST DUP4 DUP2 LT ISZERO PUSH2 0x3D9 JUMPI DUP2 DUP2 ADD MLOAD DUP4 DUP3 ADD MSTORE PUSH1 0x20 ADD PUSH2 0x3C1 JUMP JUMPDEST POP POP PUSH1 0x0 SWAP2 ADD MSTORE JUMP JUMPDEST PUSH13 0x21B0B636103330B4B632B21D1 PUSH1 0x9D SHL DUP2 MSTORE PUSH1 0x0 DUP3 MLOAD PUSH2 0x40A DUP2 PUSH1 0xD DUP6 ADD PUSH1 0x20 DUP8 ADD PUSH2 0x3BE JUMP JUMPDEST SWAP2 SWAP1 SWAP2 ADD PUSH1 0xD ADD SWAP3 SWAP2 POP POP JUMP JUMPDEST PUSH1 0x20 DUP2 MSTORE PUSH1 0x0 DUP3 MLOAD DUP1 PUSH1 0x20 DUP5 ADD MSTORE PUSH2 0x436 DUP2 PUSH1 0x40 DUP6 ADD PUSH1 0x20 DUP8 ADD PUSH2 0x3BE JUMP JUMPDEST PUSH1 0x1F ADD PUSH1 0x1F NOT AND SWAP2 SWAP1 SWAP2 ADD PUSH1 0x40 ADD SWAP3 SWAP2 POP POP JUMP INVALID LOG2 PUSH5 0x6970667358 0x22 SLT KECCAK256 SLT CALLVALUE 0xB7 TLOAD ISZERO EXTCODEHASH 0xD3 DUP7 SWAP16 JUMP 0xBB LOG3 DIV 0x29 0xD2 DUP4 DUP9 0xD0 ADDMOD SWAP9 0xCE 0xBF NOT 0xE9 MSTORE8 0xDB 0xF8 LT EXTCODEHASH PUSH31 0x845C64736F6C634300081C0033000000000000000000000000000000000000 "
				},
				"gasEstimates": {
					"creation": {
						"codeDepositCost": "230400",
						"executionCost": "infinite",
						"totalCost": "infinite"
					},
					"external": {
						"callSendString(uint32,string,bytes)": "infinite",
						"stringSender()": "2325"
					}
				},
				"methodIdentifiers": {
					"callSendString(uint32,string,bytes)": "2b9f4bb9",
					"stringSender()": "a70c3e7d"
				}
			},
			"storageLayout": {
				"storage": [
					{
						"astId": 14,
						"contract": "string-sender-wrapper.sol:StringSenderCaller",
						"label": "stringSender",
						"offset": 0,
						"slot": "0",
						"type": "t_contract(IStringSender)11"
					}
				],
				"types": {
					"t_contract(IStringSender)11": {
						"encoding": "inplace",
						"label": "contract IStringSender",
						"numberOfBytes": "20"
					}
				}
			},
			"userdoc": {
				"kind": "user",
				"methods": {},
				"version": 1
			}
		}
	}
}