{
	"LocalOpenWork_2-contracts.sol": {
		"LocalOpenWorkV2": {
			"abi": [
				{
					"inputs": [
						{
							"internalType": "address",
							"name": "_endpoint",
							"type": "address"
						},
						{
							"internalType": "address",
							"name": "_owner",
							"type": "address"
						}
					],
					"stateMutability": "nonpayable",
					"type": "constructor"
				},
				{
					"inputs": [],
					"name": "InvalidDelegate",
					"type": "error"
				},
				{
					"inputs": [],
					"name": "InvalidEndpointCall",
					"type": "error"
				},
				{
					"inputs": [],
					"name": "LzTokenUnavailable",
					"type": "error"
				},
				{
					"inputs": [
						{
							"internalType": "uint32",
							"name": "eid",
							"type": "uint32"
						}
					],
					"name": "NoPeer",
					"type": "error"
				},
				{
					"inputs": [
						{
							"internalType": "uint256",
							"name": "msgValue",
							"type": "uint256"
						}
					],
					"name": "NotEnoughNative",
					"type": "error"
				},
				{
					"inputs": [
						{
							"internalType": "address",
							"name": "addr",
							"type": "address"
						}
					],
					"name": "OnlyEndpoint",
					"type": "error"
				},
				{
					"inputs": [
						{
							"internalType": "uint32",
							"name": "eid",
							"type": "uint32"
						},
						{
							"internalType": "bytes32",
							"name": "sender",
							"type": "bytes32"
						}
					],
					"name": "OnlyPeer",
					"type": "error"
				},
				{
					"inputs": [
						{
							"internalType": "address",
							"name": "owner",
							"type": "address"
						}
					],
					"name": "OwnableInvalidOwner",
					"type": "error"
				},
				{
					"inputs": [
						{
							"internalType": "address",
							"name": "account",
							"type": "address"
						}
					],
					"name": "OwnableUnauthorizedAccount",
					"type": "error"
				},
				{
					"inputs": [
						{
							"internalType": "address",
							"name": "token",
							"type": "address"
						}
					],
					"name": "SafeERC20FailedOperation",
					"type": "error"
				},
				{
					"anonymous": false,
					"inputs": [
						{
							"indexed": true,
							"internalType": "uint32",
							"name": "dstEid",
							"type": "uint32"
						},
						{
							"indexed": true,
							"internalType": "uint256",
							"name": "jobId",
							"type": "uint256"
						},
						{
							"indexed": false,
							"internalType": "string",
							"name": "title",
							"type": "string"
						},
						{
							"indexed": false,
							"internalType": "address",
							"name": "targetContract",
							"type": "address"
						}
					],
					"name": "JobCreated",
					"type": "event"
				},
				{
					"anonymous": false,
					"inputs": [
						{
							"indexed": true,
							"internalType": "address",
							"name": "previousOwner",
							"type": "address"
						},
						{
							"indexed": true,
							"internalType": "address",
							"name": "newOwner",
							"type": "address"
						}
					],
					"name": "OwnershipTransferred",
					"type": "event"
				},
				{
					"anonymous": false,
					"inputs": [
						{
							"indexed": false,
							"internalType": "uint32",
							"name": "eid",
							"type": "uint32"
						},
						{
							"indexed": false,
							"internalType": "bytes32",
							"name": "peer",
							"type": "bytes32"
						}
					],
					"name": "PeerSet",
					"type": "event"
				},
				{
					"anonymous": false,
					"inputs": [
						{
							"indexed": true,
							"internalType": "uint32",
							"name": "dstEid",
							"type": "uint32"
						},
						{
							"indexed": true,
							"internalType": "address",
							"name": "user",
							"type": "address"
						},
						{
							"indexed": false,
							"internalType": "string",
							"name": "name",
							"type": "string"
						},
						{
							"indexed": false,
							"internalType": "address",
							"name": "targetContract",
							"type": "address"
						}
					],
					"name": "UserProfileSent",
					"type": "event"
				},
				{
					"inputs": [
						{
							"components": [
								{
									"internalType": "uint32",
									"name": "srcEid",
									"type": "uint32"
								},
								{
									"internalType": "bytes32",
									"name": "sender",
									"type": "bytes32"
								},
								{
									"internalType": "uint64",
									"name": "nonce",
									"type": "uint64"
								}
							],
							"internalType": "struct Origin",
							"name": "origin",
							"type": "tuple"
						}
					],
					"name": "allowInitializePath",
					"outputs": [
						{
							"internalType": "bool",
							"name": "",
							"type": "bool"
						}
					],
					"stateMutability": "view",
					"type": "function"
				},
				{
					"inputs": [
						{
							"internalType": "uint32",
							"name": "_dstEid",
							"type": "uint32"
						},
						{
							"internalType": "address",
							"name": "_jobMarketContract",
							"type": "address"
						},
						{
							"internalType": "string",
							"name": "title",
							"type": "string"
						},
						{
							"internalType": "string",
							"name": "description",
							"type": "string"
						},
						{
							"internalType": "uint256",
							"name": "budget",
							"type": "uint256"
						},
						{
							"internalType": "bytes",
							"name": "_options",
							"type": "bytes"
						}
					],
					"name": "createJob",
					"outputs": [],
					"stateMutability": "payable",
					"type": "function"
				},
				{
					"inputs": [
						{
							"internalType": "uint32",
							"name": "_dstEid",
							"type": "uint32"
						},
						{
							"internalType": "address",
							"name": "_userRegistryContract",
							"type": "address"
						},
						{
							"internalType": "string",
							"name": "name",
							"type": "string"
						},
						{
							"internalType": "string[]",
							"name": "skills",
							"type": "string[]"
						},
						{
							"internalType": "string",
							"name": "profileHash",
							"type": "string"
						},
						{
							"internalType": "bytes",
							"name": "_options",
							"type": "bytes"
						}
					],
					"name": "createUserProfile",
					"outputs": [],
					"stateMutability": "payable",
					"type": "function"
				},
				{
					"inputs": [],
					"name": "endpoint",
					"outputs": [
						{
							"internalType": "contract ILayerZeroEndpointV2",
							"name": "",
							"type": "address"
						}
					],
					"stateMutability": "view",
					"type": "function"
				},
				{
					"inputs": [
						{
							"components": [
								{
									"internalType": "uint32",
									"name": "srcEid",
									"type": "uint32"
								},
								{
									"internalType": "bytes32",
									"name": "sender",
									"type": "bytes32"
								},
								{
									"internalType": "uint64",
									"name": "nonce",
									"type": "uint64"
								}
							],
							"internalType": "struct Origin",
							"name": "",
							"type": "tuple"
						},
						{
							"internalType": "bytes",
							"name": "",
							"type": "bytes"
						},
						{
							"internalType": "address",
							"name": "_sender",
							"type": "address"
						}
					],
					"name": "isComposeMsgSender",
					"outputs": [
						{
							"internalType": "bool",
							"name": "",
							"type": "bool"
						}
					],
					"stateMutability": "view",
					"type": "function"
				},
				{
					"inputs": [
						{
							"components": [
								{
									"internalType": "uint32",
									"name": "srcEid",
									"type": "uint32"
								},
								{
									"internalType": "bytes32",
									"name": "sender",
									"type": "bytes32"
								},
								{
									"internalType": "uint64",
									"name": "nonce",
									"type": "uint64"
								}
							],
							"internalType": "struct Origin",
							"name": "_origin",
							"type": "tuple"
						},
						{
							"internalType": "bytes32",
							"name": "_guid",
							"type": "bytes32"
						},
						{
							"internalType": "bytes",
							"name": "_message",
							"type": "bytes"
						},
						{
							"internalType": "address",
							"name": "_executor",
							"type": "address"
						},
						{
							"internalType": "bytes",
							"name": "_extraData",
							"type": "bytes"
						}
					],
					"name": "lzReceive",
					"outputs": [],
					"stateMutability": "payable",
					"type": "function"
				},
				{
					"inputs": [
						{
							"internalType": "uint32",
							"name": "",
							"type": "uint32"
						},
						{
							"internalType": "bytes32",
							"name": "",
							"type": "bytes32"
						}
					],
					"name": "nextNonce",
					"outputs": [
						{
							"internalType": "uint64",
							"name": "nonce",
							"type": "uint64"
						}
					],
					"stateMutability": "view",
					"type": "function"
				},
				{
					"inputs": [],
					"name": "oAppVersion",
					"outputs": [
						{
							"internalType": "uint64",
							"name": "senderVersion",
							"type": "uint64"
						},
						{
							"internalType": "uint64",
							"name": "receiverVersion",
							"type": "uint64"
						}
					],
					"stateMutability": "pure",
					"type": "function"
				},
				{
					"inputs": [],
					"name": "owner",
					"outputs": [
						{
							"internalType": "address",
							"name": "",
							"type": "address"
						}
					],
					"stateMutability": "view",
					"type": "function"
				},
				{
					"inputs": [
						{
							"internalType": "uint32",
							"name": "eid",
							"type": "uint32"
						}
					],
					"name": "peers",
					"outputs": [
						{
							"internalType": "bytes32",
							"name": "peer",
							"type": "bytes32"
						}
					],
					"stateMutability": "view",
					"type": "function"
				},
				{
					"inputs": [
						{
							"internalType": "uint32",
							"name": "_dstEid",
							"type": "uint32"
						},
						{
							"internalType": "string",
							"name": "title",
							"type": "string"
						},
						{
							"internalType": "string",
							"name": "description",
							"type": "string"
						},
						{
							"internalType": "uint256",
							"name": "budget",
							"type": "uint256"
						},
						{
							"internalType": "bytes",
							"name": "_options",
							"type": "bytes"
						}
					],
					"name": "quoteCreateJob",
					"outputs": [
						{
							"components": [
								{
									"internalType": "uint256",
									"name": "nativeFee",
									"type": "uint256"
								},
								{
									"internalType": "uint256",
									"name": "lzTokenFee",
									"type": "uint256"
								}
							],
							"internalType": "struct MessagingFee",
							"name": "",
							"type": "tuple"
						}
					],
					"stateMutability": "view",
					"type": "function"
				},
				{
					"inputs": [
						{
							"internalType": "uint32",
							"name": "_dstEid",
							"type": "uint32"
						},
						{
							"internalType": "string",
							"name": "name",
							"type": "string"
						},
						{
							"internalType": "string[]",
							"name": "skills",
							"type": "string[]"
						},
						{
							"internalType": "string",
							"name": "profileHash",
							"type": "string"
						},
						{
							"internalType": "bytes",
							"name": "_options",
							"type": "bytes"
						}
					],
					"name": "quoteCreateUserProfile",
					"outputs": [
						{
							"components": [
								{
									"internalType": "uint256",
									"name": "nativeFee",
									"type": "uint256"
								},
								{
									"internalType": "uint256",
									"name": "lzTokenFee",
									"type": "uint256"
								}
							],
							"internalType": "struct MessagingFee",
							"name": "",
							"type": "tuple"
						}
					],
					"stateMutability": "view",
					"type": "function"
				},
				{
					"inputs": [],
					"name": "renounceOwnership",
					"outputs": [],
					"stateMutability": "nonpayable",
					"type": "function"
				},
				{
					"inputs": [
						{
							"internalType": "address",
							"name": "_delegate",
							"type": "address"
						}
					],
					"name": "setDelegate",
					"outputs": [],
					"stateMutability": "nonpayable",
					"type": "function"
				},
				{
					"inputs": [
						{
							"internalType": "uint32",
							"name": "_eid",
							"type": "uint32"
						},
						{
							"internalType": "bytes32",
							"name": "_peer",
							"type": "bytes32"
						}
					],
					"name": "setPeer",
					"outputs": [],
					"stateMutability": "nonpayable",
					"type": "function"
				},
				{
					"inputs": [
						{
							"internalType": "address",
							"name": "newOwner",
							"type": "address"
						}
					],
					"name": "transferOwnership",
					"outputs": [],
					"stateMutability": "nonpayable",
					"type": "function"
				},
				{
					"stateMutability": "payable",
					"type": "receive"
				}
			],
			"devdoc": {
				"details": "LayerZero V2 OApp for managing local chain operations and cross-chain communication",
				"errors": {
					"OwnableInvalidOwner(address)": [
						{
							"details": "The owner is not a valid owner account. (eg. `address(0)`)"
						}
					],
					"OwnableUnauthorizedAccount(address)": [
						{
							"details": "The caller account is not authorized to perform an operation."
						}
					],
					"SafeERC20FailedOperation(address)": [
						{
							"details": "An operation with an ERC-20 token failed."
						}
					]
				},
				"kind": "dev",
				"methods": {
					"allowInitializePath((uint32,bytes32,uint64))": {
						"details": "This indicates to the endpoint that the OApp has enabled msgs for this particular path to be received.This defaults to assuming if a peer has been set, its initialized. Can be overridden by the OApp if there is other logic to determine this.",
						"params": {
							"origin": "The origin information containing the source endpoint and sender address."
						},
						"returns": {
							"_0": "Whether the path has been initialized."
						}
					},
					"createJob(uint32,address,string,string,uint256,bytes)": {
						"details": "Create a job - sends to JobMarket contract"
					},
					"createUserProfile(uint32,address,string,string[],string,bytes)": {
						"details": "Create a user profile - sends to UserRegistry contract"
					},
					"isComposeMsgSender((uint32,bytes32,uint64),bytes,address)": {
						"details": "_origin The origin information containing the source endpoint and sender address.  - srcEid: The source chain endpoint ID.  - sender: The sender address on the src chain.  - nonce: The nonce of the message._message The lzReceive payload.Applications can optionally choose to implement separate composeMsg senders that are NOT the bridging layer.The default sender IS the OAppReceiver implementer.",
						"params": {
							"_sender": "The sender address."
						},
						"returns": {
							"_0": "isSender Is a valid sender."
						}
					},
					"lzReceive((uint32,bytes32,uint64),bytes32,bytes,address,bytes)": {
						"details": "Entry point for receiving messages or packets from the endpoint.Entry point for receiving msg/packet from the LayerZero endpoint.",
						"params": {
							"_executor": "The address of the executor for the received message.",
							"_extraData": "Additional arbitrary data provided by the corresponding executor.",
							"_guid": "The unique identifier for the received LayerZero message.",
							"_message": "The payload of the received message.",
							"_origin": "The origin information containing the source endpoint and sender address.  - srcEid: The source chain endpoint ID.  - sender: The sender address on the src chain.  - nonce: The nonce of the message."
						}
					},
					"nextNonce(uint32,bytes32)": {
						"details": "_srcEid The source endpoint ID._sender The sender address.The path nonce starts from 1. If 0 is returned it means that there is NO nonce ordered enforcement.Is required by the off-chain executor to determine the OApp expects msg execution is ordered.This is also enforced by the OApp.By default this is NOT enabled. ie. nextNonce is hardcoded to return 0.",
						"returns": {
							"nonce": "The next nonce."
						}
					},
					"oAppVersion()": {
						"returns": {
							"receiverVersion": "The version of the OAppReceiver.sol implementation.",
							"senderVersion": "The version of the OAppSender.sol implementation."
						}
					},
					"owner()": {
						"details": "Returns the address of the current owner."
					},
					"quoteCreateJob(uint32,string,string,uint256,bytes)": {
						"details": "Quote fee for job creation"
					},
					"quoteCreateUserProfile(uint32,string,string[],string,bytes)": {
						"details": "Quote fee for profile creation"
					},
					"renounceOwnership()": {
						"details": "Leaves the contract without owner. It will not be possible to call `onlyOwner` functions. Can only be called by the current owner. NOTE: Renouncing ownership will leave the contract without an owner, thereby disabling any functionality that is only available to the owner."
					},
					"setDelegate(address)": {
						"details": "Only the owner/admin of the OApp can call this function.Provides the ability for a delegate to set configs, on behalf of the OApp, directly on the Endpoint contract.",
						"params": {
							"_delegate": "The address of the delegate to be set."
						}
					},
					"setPeer(uint32,bytes32)": {
						"details": "Only the owner/admin of the OApp can call this function.Indicates that the peer is trusted to send LayerZero messages to this OApp.Set this to bytes32(0) to remove the peer address.Peer is a bytes32 to accommodate non-evm chains.",
						"params": {
							"_eid": "The endpoint ID.",
							"_peer": "The address of the peer to be associated with the corresponding endpoint."
						}
					},
					"transferOwnership(address)": {
						"details": "Transfers ownership of the contract to a new account (`newOwner`). Can only be called by the current owner."
					}
				},
				"title": "LocalOpenWorkV2",
				"version": 1
			},
			"evm": {
				"assembly": "    /* \"LocalOpenWork_2-contracts.sol\":502:4639  contract LocalOpenWorkV2 is OApp, ReentrancyGuard {... */\n  mstore(0x40, 0xa0)\n    /* \"LocalOpenWork_2-contracts.sol\":793:949  constructor(... */\n  callvalue\n  dup1\n  iszero\n  tag_1\n  jumpi\n  0x00\n  dup1\n  revert\ntag_1:\n  pop\n  mload(0x40)\n  sub(codesize, bytecodeSize)\n  dup1\n  bytecodeSize\n  dup4\n  codecopy\n  dup2\n  add\n  0x40\n  dup2\n  swap1\n  mstore\n  tag_2\n  swap2\n  tag_3\n  jump\t// in\ntag_2:\n    /* \"LocalOpenWork_2-contracts.sol\":867:876  _endpoint */\n  dup2\n    /* \"LocalOpenWork_2-contracts.sol\":878:884  _owner */\n  dup2\n    /* \"LocalOpenWork_2-contracts.sol\":867:876  _endpoint */\n  dup2\n    /* \"LocalOpenWork_2-contracts.sol\":878:884  _owner */\n  dup2\n    /* \"LocalOpenWork_2-contracts.sol\":894:904  msg.sender */\n  caller\n  dup1\n    /* \"@openzeppelin/contracts/access/Ownable.sol\":1269:1364  if (initialOwner == address(0)) {... */\n  tag_10\n  jumpi\n    /* \"@openzeppelin/contracts/access/Ownable.sol\":1322:1353  OwnableInvalidOwner(address(0)) */\n  mload(0x40)\n  shl(0xe0, 0x1e4fbdf7)\n  dup2\n  mstore\n    /* \"@openzeppelin/contracts/access/Ownable.sol\":1350:1351  0 */\n  0x00\n    /* \"@openzeppelin/contracts/access/Ownable.sol\":1322:1353  OwnableInvalidOwner(address(0)) */\n  0x04\n  dup3\n  add\n    /* \"#utility.yul\":640:691   */\n  mstore\n    /* \"#utility.yul\":613:631   */\n  0x24\n  add\n    /* \"@openzeppelin/contracts/access/Ownable.sol\":1322:1353  OwnableInvalidOwner(address(0)) */\n  mload(0x40)\n  dup1\n  swap2\n  sub\n  swap1\n  revert\n    /* \"@openzeppelin/contracts/access/Ownable.sol\":1269:1364  if (initialOwner == address(0)) {... */\ntag_10:\n    /* \"@openzeppelin/contracts/access/Ownable.sol\":1373:1405  _transferOwnership(initialOwner) */\n  tag_13\n    /* \"@openzeppelin/contracts/access/Ownable.sol\":1392:1404  initialOwner */\n  dup2\n    /* \"@openzeppelin/contracts/access/Ownable.sol\":1373:1391  _transferOwnership */\n  tag_14\n    /* \"@openzeppelin/contracts/access/Ownable.sol\":1373:1405  _transferOwnership(initialOwner) */\n  jump\t// in\ntag_13:\n  pop\n  sub(shl(0xa0, 0x01), 0x01)\n    /* \"@layerzerolabs/oapp-evm/contracts/oapp/OAppCore.sol\":1047:1089  endpoint = ILayerZeroEndpointV2(_endpoint) */\n  dup1\n  dup4\n  and\n  0x80\n  mstore\n    /* \"@layerzerolabs/oapp-evm/contracts/oapp/OAppCore.sol\":1104:1127  _delegate == address(0) */\n  dup2\n  and\n    /* \"@layerzerolabs/oapp-evm/contracts/oapp/OAppCore.sol\":1100:1153  if (_delegate == address(0)) revert InvalidDelegate() */\n  tag_16\n  jumpi\n    /* \"@layerzerolabs/oapp-evm/contracts/oapp/OAppCore.sol\":1136:1153  InvalidDelegate() */\n  mload(0x40)\n  shl(0xe2, 0x2d618d81)\n  dup2\n  mstore\n  0x04\n  add\n  mload(0x40)\n  dup1\n  swap2\n  sub\n  swap1\n  revert\n    /* \"@layerzerolabs/oapp-evm/contracts/oapp/OAppCore.sol\":1100:1153  if (_delegate == address(0)) revert InvalidDelegate() */\ntag_16:\n    /* \"@layerzerolabs/oapp-evm/contracts/oapp/OAppCore.sol\":1163:1171  endpoint */\n  mload(0x80)\n    /* \"@layerzerolabs/oapp-evm/contracts/oapp/OAppCore.sol\":1163:1194  endpoint.setDelegate(_delegate) */\n  mload(0x40)\n  shl(0xe0, 0xca5eb5e1)\n  dup2\n  mstore\n  sub(shl(0xa0, 0x01), 0x01)\n    /* \"#utility.yul\":658:690   */\n  dup4\n  dup2\n  and\n    /* \"@layerzerolabs/oapp-evm/contracts/oapp/OAppCore.sol\":1163:1194  endpoint.setDelegate(_delegate) */\n  0x04\n  dup4\n  add\n    /* \"#utility.yul\":640:691   */\n  mstore\n    /* \"@layerzerolabs/oapp-evm/contracts/oapp/OAppCore.sol\":1163:1183  endpoint.setDelegate */\n  swap1\n  swap2\n  and\n  swap1\n  0xca5eb5e1\n  swap1\n    /* \"#utility.yul\":613:631   */\n  0x24\n  add\n    /* \"@layerzerolabs/oapp-evm/contracts/oapp/OAppCore.sol\":1163:1194  endpoint.setDelegate(_delegate) */\n  0x00\n  mload(0x40)\n  dup1\n  dup4\n  sub\n  dup2\n  0x00\n  dup8\n  dup1\n  extcodesize\n  iszero\n  dup1\n  iszero\n  tag_18\n  jumpi\n  0x00\n  dup1\n  revert\ntag_18:\n  pop\n  gas\n  call\n  iszero\n  dup1\n  iszero\n  tag_20\n  jumpi\n  returndatasize\n  0x00\n  dup1\n  returndatacopy\n  revert(0x00, returndatasize)\ntag_20:\n  pop\n  pop\n    /* \"@openzeppelin/contracts/security/ReentrancyGuard.sol\":1716:1717  1 */\n  0x01\n    /* \"@openzeppelin/contracts/security/ReentrancyGuard.sol\":1821:1828  _status */\n  0x02\n    /* \"@openzeppelin/contracts/security/ReentrancyGuard.sol\":1821:1843  _status = _NOT_ENTERED */\n  sstore\n  pop\n    /* \"LocalOpenWork_2-contracts.sol\":916:942  _transferOwnership(_owner) */\n  tag_24\n  swap5\n  pop\n    /* \"LocalOpenWork_2-contracts.sol\":935:941  _owner */\n  dup6\n  swap4\n  pop\n  pop\n    /* \"LocalOpenWork_2-contracts.sol\":916:934  _transferOwnership */\n  tag_14\n    /* \"LocalOpenWork_2-contracts.sol\":916:942  _transferOwnership(_owner) */\n  swap2\n  pop\n  pop\n  jump\t// in\ntag_24:\n    /* \"LocalOpenWork_2-contracts.sol\":793:949  constructor(... */\n  pop\n  pop\n    /* \"LocalOpenWork_2-contracts.sol\":502:4639  contract LocalOpenWorkV2 is OApp, ReentrancyGuard {... */\n  jump(tag_28)\n    /* \"@openzeppelin/contracts/access/Ownable.sol\":2912:3099  function _transferOwnership(address newOwner) internal virtual {... */\ntag_14:\n    /* \"@openzeppelin/contracts/access/Ownable.sol\":2985:3001  address oldOwner */\n  0x00\n    /* \"@openzeppelin/contracts/access/Ownable.sol\":3004:3010  _owner */\n  dup1\n  sload\n  sub(shl(0xa0, 0x01), 0x01)\n    /* \"@openzeppelin/contracts/access/Ownable.sol\":3020:3037  _owner = newOwner */\n  dup4\n  dup2\n  and\n  not(sub(shl(0xa0, 0x01), 0x01))\n  dup4\n  and\n  dup2\n  or\n  dup5\n  sstore\n    /* \"@openzeppelin/contracts/access/Ownable.sol\":3052:3092  OwnershipTransferred(oldOwner, newOwner) */\n  mload(0x40)\n    /* \"@openzeppelin/contracts/access/Ownable.sol\":3004:3010  _owner */\n  swap2\n  swap1\n  swap3\n  and\n  swap3\n  dup4\n  swap2\n    /* \"@openzeppelin/contracts/access/Ownable.sol\":3052:3092  OwnershipTransferred(oldOwner, newOwner) */\n  0x8be0079c531659141344cd1fd0a4f28419497f9722a3daafe3b4186f6b6457e0\n  swap2\n    /* \"@openzeppelin/contracts/access/Ownable.sol\":2985:3001  address oldOwner */\n  swap1\n    /* \"@openzeppelin/contracts/access/Ownable.sol\":3052:3092  OwnershipTransferred(oldOwner, newOwner) */\n  log3\n    /* \"@openzeppelin/contracts/access/Ownable.sol\":2975:3099  {... */\n  pop\n    /* \"@openzeppelin/contracts/access/Ownable.sol\":2912:3099  function _transferOwnership(address newOwner) internal virtual {... */\n  pop\n  jump\t// out\n    /* \"#utility.yul\":14:191   */\ntag_27:\n    /* \"#utility.yul\":93:106   */\n  dup1\n  mload\n  sub(shl(0xa0, 0x01), 0x01)\n    /* \"#utility.yul\":135:166   */\n  dup2\n  and\n    /* \"#utility.yul\":125:167   */\n  dup2\n  eq\n    /* \"#utility.yul\":115:185   */\n  tag_30\n  jumpi\n    /* \"#utility.yul\":181:182   */\n  0x00\n    /* \"#utility.yul\":178:179   */\n  dup1\n    /* \"#utility.yul\":171:183   */\n  revert\n    /* \"#utility.yul\":115:185   */\ntag_30:\n    /* \"#utility.yul\":14:191   */\n  swap2\n  swap1\n  pop\n  jump\t// out\n    /* \"#utility.yul\":196:489   */\ntag_3:\n    /* \"#utility.yul\":275:281   */\n  0x00\n    /* \"#utility.yul\":283:289   */\n  dup1\n    /* \"#utility.yul\":336:338   */\n  0x40\n    /* \"#utility.yul\":324:333   */\n  dup4\n    /* \"#utility.yul\":315:322   */\n  dup6\n    /* \"#utility.yul\":311:334   */\n  sub\n    /* \"#utility.yul\":307:339   */\n  slt\n    /* \"#utility.yul\":304:356   */\n  iszero\n  tag_32\n  jumpi\n    /* \"#utility.yul\":352:353   */\n  0x00\n    /* \"#utility.yul\":349:350   */\n  dup1\n    /* \"#utility.yul\":342:354   */\n  revert\n    /* \"#utility.yul\":304:356   */\ntag_32:\n    /* \"#utility.yul\":375:415   */\n  tag_33\n    /* \"#utility.yul\":405:414   */\n  dup4\n    /* \"#utility.yul\":375:415   */\n  tag_27\n  jump\t// in\ntag_33:\n    /* \"#utility.yul\":365:415   */\n  swap2\n  pop\n    /* \"#utility.yul\":434:483   */\n  tag_34\n    /* \"#utility.yul\":479:481   */\n  0x20\n    /* \"#utility.yul\":468:477   */\n  dup5\n    /* \"#utility.yul\":464:482   */\n  add\n    /* \"#utility.yul\":434:483   */\n  tag_27\n  jump\t// in\ntag_34:\n    /* \"#utility.yul\":424:483   */\n  swap1\n  pop\n    /* \"#utility.yul\":196:489   */\n  swap3\n  pop\n  swap3\n  swap1\n  pop\n  jump\t// out\n    /* \"#utility.yul\":494:697   */\ntag_28:\n    /* \"LocalOpenWork_2-contracts.sol\":502:4639  contract LocalOpenWorkV2 is OApp, ReentrancyGuard {... */\n  mload(0x80)\n  codecopy(0x00, dataOffset(sub_0), dataSize(sub_0))\n  0x00\n  assignImmutable(\"0xef80077fd7ee005d1b0377e3e959eb59d0ca83c4839422f862a3540a66a91fb5\")\n  return(0x00, dataSize(sub_0))\nstop\n\nsub_0: assembly {\n        /* \"LocalOpenWork_2-contracts.sol\":502:4639  contract LocalOpenWorkV2 is OApp, ReentrancyGuard {... */\n      mstore(0x40, 0x80)\n      jumpi(tag_1, lt(calldatasize, 0x04))\n      shr(0xe0, calldataload(0x00))\n      dup1\n      0x7d25a05e\n      gt\n      tag_19\n      jumpi\n      dup1\n      0xca5eb5e1\n      gt\n      tag_20\n      jumpi\n      dup1\n      0xca5eb5e1\n      eq\n      tag_15\n      jumpi\n      dup1\n      0xce997833\n      eq\n      tag_16\n      jumpi\n      dup1\n      0xf2fde38b\n      eq\n      tag_17\n      jumpi\n      dup1\n      0xff7bd03d\n      eq\n      tag_18\n      jumpi\n      0x00\n      dup1\n      revert\n    tag_20:\n      dup1\n      0x7d25a05e\n      eq\n      tag_11\n      jumpi\n      dup1\n      0x82413eac\n      eq\n      tag_12\n      jumpi\n      dup1\n      0x8da5cb5b\n      eq\n      tag_13\n      jumpi\n      dup1\n      0xbb0b6a53\n      eq\n      tag_14\n      jumpi\n      0x00\n      dup1\n      revert\n    tag_19:\n      dup1\n      0x3400288b\n      gt\n      tag_21\n      jumpi\n      dup1\n      0x3400288b\n      eq\n      tag_7\n      jumpi\n      dup1\n      0x5e280f11\n      eq\n      tag_8\n      jumpi\n      dup1\n      0x682d54e6\n      eq\n      tag_9\n      jumpi\n      dup1\n      0x715018a6\n      eq\n      tag_10\n      jumpi\n      0x00\n      dup1\n      revert\n    tag_21:\n      dup1\n      0x08213dd6\n      eq\n      tag_3\n      jumpi\n      dup1\n      0x13137d65\n      eq\n      tag_4\n      jumpi\n      dup1\n      0x17442b70\n      eq\n      tag_5\n      jumpi\n      dup1\n      0x2bef96af\n      eq\n      tag_6\n      jumpi\n      0x00\n      dup1\n      revert\n    tag_1:\n      jumpi(tag_2, calldatasize)\n      stop\n    tag_2:\n      0x00\n      dup1\n      revert\n        /* \"LocalOpenWork_2-contracts.sol\":3847:4298  function quoteCreateJob(... */\n    tag_3:\n      callvalue\n      dup1\n      iszero\n      tag_24\n      jumpi\n      0x00\n      dup1\n      revert\n    tag_24:\n      pop\n      tag_25\n      tag_26\n      calldatasize\n      0x04\n      tag_27\n      jump\t// in\n    tag_26:\n      tag_28\n      jump\t// in\n    tag_25:\n      0x40\n      dup1\n      mload\n        /* \"#utility.yul\":2764:2777   */\n      dup3\n      mload\n        /* \"#utility.yul\":2746:2778   */\n      dup2\n      mstore\n        /* \"#utility.yul\":2834:2838   */\n      0x20\n        /* \"#utility.yul\":2822:2839   */\n      swap3\n      dup4\n      add\n        /* \"#utility.yul\":2816:2840   */\n      mload\n        /* \"#utility.yul\":2794:2814   */\n      swap3\n      dup2\n      add\n        /* \"#utility.yul\":2787:2841   */\n      swap3\n      swap1\n      swap3\n      mstore\n        /* \"#utility.yul\":2719:2737   */\n      add\n        /* \"LocalOpenWork_2-contracts.sol\":3847:4298  function quoteCreateJob(... */\n    tag_29:\n      mload(0x40)\n      dup1\n      swap2\n      sub\n      swap1\n      return\n        /* \"@layerzerolabs/oapp-evm/contracts/oapp/OAppReceiver.sol\":4368:5076  function lzReceive(... */\n    tag_4:\n      tag_31\n      tag_32\n      calldatasize\n      0x04\n      tag_33\n      jump\t// in\n    tag_32:\n      tag_34\n      jump\t// in\n    tag_31:\n      stop\n        /* \"@layerzerolabs/oapp-evm/contracts/oapp/OApp.sol\":1287:1522  function oAppVersion()... */\n    tag_5:\n      callvalue\n      dup1\n      iszero\n      tag_35\n      jumpi\n      0x00\n      dup1\n      revert\n    tag_35:\n      pop\n      0x40\n      dup1\n      mload\n        /* \"@layerzerolabs/oapp-evm/contracts/oapp/OAppSender.sol\":843:844  1 */\n      0x01\n        /* \"#utility.yul\":4577:4627   */\n      dup2\n      mstore\n        /* \"@layerzerolabs/oapp-evm/contracts/oapp/OAppReceiver.sol\":678:679  2 */\n      0x02\n        /* \"#utility.yul\":4658:4660   */\n      0x20\n        /* \"#utility.yul\":4643:4661   */\n      dup3\n      add\n        /* \"#utility.yul\":4636:4695   */\n      mstore\n        /* \"#utility.yul\":4550:4568   */\n      add\n        /* \"@layerzerolabs/oapp-evm/contracts/oapp/OApp.sol\":1287:1522  function oAppVersion()... */\n      tag_29\n        /* \"#utility.yul\":4407:4701   */\n      jump\n        /* \"LocalOpenWork_2-contracts.sol\":2185:3252  function createJob(... */\n    tag_6:\n      tag_31\n      tag_41\n      calldatasize\n      0x04\n      tag_42\n      jump\t// in\n    tag_41:\n      tag_43\n      jump\t// in\n        /* \"@layerzerolabs/oapp-evm/contracts/oapp/OAppCore.sol\":1724:1832  function setPeer(uint32 _eid, bytes32 _peer) public virtual onlyOwner {... */\n    tag_7:\n      callvalue\n      dup1\n      iszero\n      tag_44\n      jumpi\n      0x00\n      dup1\n      revert\n    tag_44:\n      pop\n      tag_31\n      tag_46\n      calldatasize\n      0x04\n      tag_47\n      jump\t// in\n    tag_46:\n      tag_48\n      jump\t// in\n        /* \"@layerzerolabs/oapp-evm/contracts/oapp/OAppCore.sol\":446:492  ILayerZeroEndpointV2 public immutable endpoint */\n    tag_8:\n      callvalue\n      dup1\n      iszero\n      tag_49\n      jumpi\n      0x00\n      dup1\n      revert\n    tag_49:\n      pop\n      tag_50\n      immutable(\"0xef80077fd7ee005d1b0377e3e959eb59d0ca83c4839422f862a3540a66a91fb5\")\n      dup2\n      jump\n    tag_50:\n      mload(0x40)\n      sub(shl(0xa0, 0x01), 0x01)\n        /* \"#utility.yul\":6377:6432   */\n      swap1\n      swap2\n      and\n        /* \"#utility.yul\":6359:6433   */\n      dup2\n      mstore\n        /* \"#utility.yul\":6347:6349   */\n      0x20\n        /* \"#utility.yul\":6332:6350   */\n      add\n        /* \"@layerzerolabs/oapp-evm/contracts/oapp/OAppCore.sol\":446:492  ILayerZeroEndpointV2 public immutable endpoint */\n      tag_29\n        /* \"#utility.yul\":6185:6439   */\n      jump\n        /* \"LocalOpenWork_2-contracts.sol\":3317:3786  function quoteCreateUserProfile(... */\n    tag_9:\n      callvalue\n      dup1\n      iszero\n      tag_54\n      jumpi\n      0x00\n      dup1\n      revert\n    tag_54:\n      pop\n      tag_25\n      tag_56\n      calldatasize\n      0x04\n      tag_57\n      jump\t// in\n    tag_56:\n      tag_58\n      jump\t// in\n        /* \"@openzeppelin/contracts/access/Ownable.sol\":2293:2394  function renounceOwnership() public virtual onlyOwner {... */\n    tag_10:\n      callvalue\n      dup1\n      iszero\n      tag_60\n      jumpi\n      0x00\n      dup1\n      revert\n    tag_60:\n      pop\n      tag_31\n      tag_62\n      jump\t// in\n        /* \"@layerzerolabs/oapp-evm/contracts/oapp/OAppReceiver.sol\":3507:3635  function nextNonce(uint32 /*_srcEid*/, bytes32 /*_sender*/) public view virtual returns (uint64 nonce) {... */\n    tag_11:\n      callvalue\n      dup1\n      iszero\n      tag_63\n      jumpi\n      0x00\n      dup1\n      revert\n    tag_63:\n      pop\n      tag_64\n      tag_65\n      calldatasize\n      0x04\n      tag_47\n      jump\t// in\n    tag_65:\n        /* \"@layerzerolabs/oapp-evm/contracts/oapp/OAppReceiver.sol\":3596:3608  uint64 nonce */\n      0x00\n        /* \"@layerzerolabs/oapp-evm/contracts/oapp/OAppReceiver.sol\":3507:3635  function nextNonce(uint32 /*_srcEid*/, bytes32 /*_sender*/) public view virtual returns (uint64 nonce) {... */\n      swap3\n      swap2\n      pop\n      pop\n      jump\n    tag_64:\n      mload(0x40)\n      sub(shl(0x40, 0x01), 0x01)\n        /* \"#utility.yul\":8661:8692   */\n      swap1\n      swap2\n      and\n        /* \"#utility.yul\":8643:8693   */\n      dup2\n      mstore\n        /* \"#utility.yul\":8631:8633   */\n      0x20\n        /* \"#utility.yul\":8616:8634   */\n      add\n        /* \"@layerzerolabs/oapp-evm/contracts/oapp/OAppReceiver.sol\":3507:3635  function nextNonce(uint32 /*_srcEid*/, bytes32 /*_sender*/) public view virtual returns (uint64 nonce) {... */\n      tag_29\n        /* \"#utility.yul\":8499:8699   */\n      jump\n        /* \"@layerzerolabs/oapp-evm/contracts/oapp/OAppReceiver.sol\":2013:2229  function isComposeMsgSender(... */\n    tag_12:\n      callvalue\n      dup1\n      iszero\n      tag_69\n      jumpi\n      0x00\n      dup1\n      revert\n    tag_69:\n      pop\n      tag_70\n      tag_71\n      calldatasize\n      0x04\n      tag_72\n      jump\t// in\n    tag_71:\n      sub(shl(0xa0, 0x01), 0x01)\n        /* \"@layerzerolabs/oapp-evm/contracts/oapp/OAppReceiver.sol\":2198:2222  _sender == address(this) */\n      dup2\n      and\n        /* \"@layerzerolabs/oapp-evm/contracts/oapp/OAppReceiver.sol\":2217:2221  this */\n      address\n        /* \"@layerzerolabs/oapp-evm/contracts/oapp/OAppReceiver.sol\":2198:2222  _sender == address(this) */\n      eq\n        /* \"@layerzerolabs/oapp-evm/contracts/oapp/OAppReceiver.sol\":2013:2229  function isComposeMsgSender(... */\n      swap5\n      swap4\n      pop\n      pop\n      pop\n      pop\n      jump\n    tag_70:\n      mload(0x40)\n        /* \"#utility.yul\":9542:9556   */\n      swap1\n      iszero\n        /* \"#utility.yul\":9535:9557   */\n      iszero\n        /* \"#utility.yul\":9517:9558   */\n      dup2\n      mstore\n        /* \"#utility.yul\":9505:9507   */\n      0x20\n        /* \"#utility.yul\":9490:9508   */\n      add\n        /* \"@layerzerolabs/oapp-evm/contracts/oapp/OAppReceiver.sol\":2013:2229  function isComposeMsgSender(... */\n      tag_29\n        /* \"#utility.yul\":9377:9564   */\n      jump\n        /* \"@openzeppelin/contracts/access/Ownable.sol\":1638:1723  function owner() public view virtual returns (address) {... */\n    tag_13:\n      callvalue\n      dup1\n      iszero\n      tag_76\n      jumpi\n      0x00\n      dup1\n      revert\n    tag_76:\n      pop\n        /* \"@openzeppelin/contracts/access/Ownable.sol\":1684:1691  address */\n      0x00\n        /* \"@openzeppelin/contracts/access/Ownable.sol\":1710:1716  _owner */\n      sload\n      sub(shl(0xa0, 0x01), 0x01)\n      and\n        /* \"@openzeppelin/contracts/access/Ownable.sol\":1638:1723  function owner() public view virtual returns (address) {... */\n      jump(tag_50)\n        /* \"@layerzerolabs/oapp-evm/contracts/oapp/OAppCore.sol\":569:617  mapping(uint32 eid => bytes32 peer) public peers */\n    tag_14:\n      callvalue\n      dup1\n      iszero\n      tag_81\n      jumpi\n      0x00\n      dup1\n      revert\n    tag_81:\n      pop\n      tag_82\n      tag_83\n      calldatasize\n      0x04\n      tag_84\n      jump\t// in\n    tag_83:\n      mstore(0x20, 0x01)\n      0x00\n      swap1\n      dup2\n      mstore\n      0x40\n      swap1\n      keccak256\n      sload\n      dup2\n      jump\n    tag_82:\n      mload(0x40)\n        /* \"#utility.yul\":10135:10160   */\n      swap1\n      dup2\n      mstore\n        /* \"#utility.yul\":10123:10125   */\n      0x20\n        /* \"#utility.yul\":10108:10126   */\n      add\n        /* \"@layerzerolabs/oapp-evm/contracts/oapp/OAppCore.sol\":569:617  mapping(uint32 eid => bytes32 peer) public peers */\n      tag_29\n        /* \"#utility.yul\":9989:10166   */\n      jump\n        /* \"@layerzerolabs/oapp-evm/contracts/oapp/OAppCore.sol\":3252:3357  function setDelegate(address _delegate) public onlyOwner {... */\n    tag_15:\n      callvalue\n      dup1\n      iszero\n      tag_88\n      jumpi\n      0x00\n      dup1\n      revert\n    tag_88:\n      pop\n      tag_31\n      tag_90\n      calldatasize\n      0x04\n      tag_91\n      jump\t// in\n    tag_90:\n      tag_92\n      jump\t// in\n        /* \"LocalOpenWork_2-contracts.sol\":1038:2108  function createUserProfile(... */\n    tag_16:\n      tag_31\n      tag_94\n      calldatasize\n      0x04\n      tag_95\n      jump\t// in\n    tag_94:\n      tag_96\n      jump\t// in\n        /* \"@openzeppelin/contracts/access/Ownable.sol\":2543:2758  function transferOwnership(address newOwner) public virtual onlyOwner {... */\n    tag_17:\n      callvalue\n      dup1\n      iszero\n      tag_97\n      jumpi\n      0x00\n      dup1\n      revert\n    tag_97:\n      pop\n      tag_31\n      tag_99\n      calldatasize\n      0x04\n      tag_91\n      jump\t// in\n    tag_99:\n      tag_100\n      jump\t// in\n        /* \"@layerzerolabs/oapp-evm/contracts/oapp/OAppReceiver.sol\":2771:2920  function allowInitializePath(Origin calldata origin) public view virtual returns (bool) {... */\n    tag_18:\n      callvalue\n      dup1\n      iszero\n      tag_101\n      jumpi\n      0x00\n      dup1\n      revert\n    tag_101:\n      pop\n      tag_70\n      tag_103\n      calldatasize\n      0x04\n      tag_104\n      jump\t// in\n    tag_103:\n      tag_105\n      jump\t// in\n        /* \"LocalOpenWork_2-contracts.sol\":3847:4298  function quoteCreateJob(... */\n    tag_28:\n      0x40\n      dup1\n      mload\n      dup1\n      dup3\n      add\n      swap1\n      swap2\n      mstore\n      0x00\n      dup1\n      dup3\n      mstore\n      0x20\n      dup3\n      add\n      mstore\n        /* \"LocalOpenWork_2-contracts.sol\":4076:4096  bytes memory payload */\n      0x00\n        /* \"LocalOpenWork_2-contracts.sol\":4149:4159  msg.sender */\n      caller\n        /* \"LocalOpenWork_2-contracts.sol\":4173:4178  title */\n      dup8\n        /* \"LocalOpenWork_2-contracts.sol\":4192:4203  description */\n      dup8\n        /* \"LocalOpenWork_2-contracts.sol\":4217:4223  budget */\n      dup8\n        /* \"LocalOpenWork_2-contracts.sol\":4099:4233  abi.encode(... */\n      add(0x20, mload(0x40))\n      tag_110\n      swap5\n      swap4\n      swap3\n      swap2\n      swap1\n      tag_111\n      jump\t// in\n    tag_110:\n      0x40\n      dup1\n      mload\n      not(0x1f)\n      dup2\n      dup5\n      sub\n      add\n      dup2\n      mstore\n      0x20\n        /* \"LocalOpenWork_2-contracts.sol\":4250:4291  _quote(_dstEid, payload, _options, false) */\n      0x1f\n      dup8\n      add\n      dup2\n      swap1\n      div\n      dup2\n      mul\n      dup5\n      add\n      dup2\n      add\n      swap1\n      swap3\n      mstore\n      dup6\n      dup4\n      mstore\n        /* \"LocalOpenWork_2-contracts.sol\":4099:4233  abi.encode(... */\n      swap3\n      pop\n        /* \"LocalOpenWork_2-contracts.sol\":4250:4291  _quote(_dstEid, payload, _options, false) */\n      tag_112\n      swap2\n        /* \"LocalOpenWork_2-contracts.sol\":4257:4264  _dstEid */\n      dup11\n      swap2\n        /* \"LocalOpenWork_2-contracts.sol\":4099:4233  abi.encode(... */\n      dup5\n      swap2\n      swap1\n        /* \"LocalOpenWork_2-contracts.sol\":4275:4283  _options */\n      dup9\n      swap1\n      dup9\n      swap1\n      dup2\n      swap1\n        /* \"LocalOpenWork_2-contracts.sol\":4250:4291  _quote(_dstEid, payload, _options, false) */\n      dup5\n      add\n        /* \"LocalOpenWork_2-contracts.sol\":4275:4283  _options */\n      dup4\n      dup3\n      dup1\n      dup3\n        /* \"LocalOpenWork_2-contracts.sol\":4250:4291  _quote(_dstEid, payload, _options, false) */\n      dup5\n      calldatacopy\n      0x00\n      swap3\n      add\n      dup3\n      swap1\n      mstore\n      pop\n      swap3\n      pop\n        /* \"LocalOpenWork_2-contracts.sol\":4250:4256  _quote */\n      tag_113\n      swap2\n      pop\n      pop\n        /* \"LocalOpenWork_2-contracts.sol\":4250:4291  _quote(_dstEid, payload, _options, false) */\n      jump\t// in\n    tag_112:\n        /* \"LocalOpenWork_2-contracts.sol\":4243:4291  return _quote(_dstEid, payload, _options, false) */\n      swap9\n        /* \"LocalOpenWork_2-contracts.sol\":3847:4298  function quoteCreateJob(... */\n      swap8\n      pop\n      pop\n      pop\n      pop\n      pop\n      pop\n      pop\n      pop\n      jump\t// out\n        /* \"@layerzerolabs/oapp-evm/contracts/oapp/OAppReceiver.sol\":4368:5076  function lzReceive(... */\n    tag_34:\n        /* \"@layerzerolabs/oapp-evm/contracts/oapp/OAppReceiver.sol\":4681:4689  endpoint */\n      immutable(\"0xef80077fd7ee005d1b0377e3e959eb59d0ca83c4839422f862a3540a66a91fb5\")\n      sub(shl(0xa0, 0x01), 0x01)\n        /* \"@layerzerolabs/oapp-evm/contracts/oapp/OAppReceiver.sol\":4673:4704  address(endpoint) != msg.sender */\n      and\n        /* \"@layerzerolabs/oapp-evm/contracts/oapp/OAppReceiver.sol\":4694:4704  msg.sender */\n      caller\n        /* \"@layerzerolabs/oapp-evm/contracts/oapp/OAppReceiver.sol\":4673:4704  address(endpoint) != msg.sender */\n      eq\n        /* \"@layerzerolabs/oapp-evm/contracts/oapp/OAppReceiver.sol\":4669:4737  if (address(endpoint) != msg.sender) revert OnlyEndpoint(msg.sender) */\n      tag_115\n      jumpi\n        /* \"@layerzerolabs/oapp-evm/contracts/oapp/OAppReceiver.sol\":4713:4737  OnlyEndpoint(msg.sender) */\n      mload(0x40)\n      shl(0xe0, 0x91ac5e4f)\n      dup2\n      mstore\n        /* \"@layerzerolabs/oapp-evm/contracts/oapp/OAppReceiver.sol\":4726:4736  msg.sender */\n      caller\n        /* \"@layerzerolabs/oapp-evm/contracts/oapp/OAppReceiver.sol\":4713:4737  OnlyEndpoint(msg.sender) */\n      0x04\n      dup3\n      add\n        /* \"#utility.yul\":6359:6433   */\n      mstore\n        /* \"#utility.yul\":6332:6350   */\n      0x24\n      add\n        /* \"@layerzerolabs/oapp-evm/contracts/oapp/OAppReceiver.sol\":4713:4737  OnlyEndpoint(msg.sender) */\n    tag_116:\n      mload(0x40)\n      dup1\n      swap2\n      sub\n      swap1\n      revert\n        /* \"@layerzerolabs/oapp-evm/contracts/oapp/OAppReceiver.sol\":4669:4737  if (address(endpoint) != msg.sender) revert OnlyEndpoint(msg.sender) */\n    tag_115:\n        /* \"@layerzerolabs/oapp-evm/contracts/oapp/OAppReceiver.sol\":4873:4887  _origin.sender */\n      0x20\n      dup8\n      add\n      dup1\n      calldataload\n      swap1\n        /* \"@layerzerolabs/oapp-evm/contracts/oapp/OAppReceiver.sol\":4837:4869  _getPeerOrRevert(_origin.srcEid) */\n      tag_117\n      swap1\n        /* \"@layerzerolabs/oapp-evm/contracts/oapp/OAppReceiver.sol\":4854:4868  _origin.srcEid */\n      tag_118\n      swap1\n        /* \"@layerzerolabs/oapp-evm/contracts/oapp/OAppReceiver.sol\":4873:4880  _origin */\n      dup11\n        /* \"@layerzerolabs/oapp-evm/contracts/oapp/OAppReceiver.sol\":4854:4868  _origin.srcEid */\n      tag_84\n      jump\t// in\n    tag_118:\n        /* \"@layerzerolabs/oapp-evm/contracts/oapp/OAppReceiver.sol\":4837:4853  _getPeerOrRevert */\n      tag_119\n        /* \"@layerzerolabs/oapp-evm/contracts/oapp/OAppReceiver.sol\":4837:4869  _getPeerOrRevert(_origin.srcEid) */\n      jump\t// in\n    tag_117:\n        /* \"@layerzerolabs/oapp-evm/contracts/oapp/OAppReceiver.sol\":4837:4887  _getPeerOrRevert(_origin.srcEid) != _origin.sender */\n      eq\n        /* \"@layerzerolabs/oapp-evm/contracts/oapp/OAppReceiver.sol\":4833:4936  if (_getPeerOrRevert(_origin.srcEid) != _origin.sender) revert OnlyPeer(_origin.srcEid, _origin.sender) */\n      tag_120\n      jumpi\n        /* \"@layerzerolabs/oapp-evm/contracts/oapp/OAppReceiver.sol\":4905:4919  _origin.srcEid */\n      tag_121\n      0x20\n      dup9\n      add\n        /* \"@layerzerolabs/oapp-evm/contracts/oapp/OAppReceiver.sol\":4905:4912  _origin */\n      dup9\n        /* \"@layerzerolabs/oapp-evm/contracts/oapp/OAppReceiver.sol\":4905:4919  _origin.srcEid */\n      tag_84\n      jump\t// in\n    tag_121:\n        /* \"@layerzerolabs/oapp-evm/contracts/oapp/OAppReceiver.sol\":4896:4936  OnlyPeer(_origin.srcEid, _origin.sender) */\n      mload(0x40)\n      shl(0xe2, 0x309afaf3)\n      dup2\n      mstore\n        /* \"#utility.yul\":13330:13340   */\n      0xffffffff\n        /* \"#utility.yul\":13318:13341   */\n      swap1\n      swap2\n      and\n        /* \"@layerzerolabs/oapp-evm/contracts/oapp/OAppReceiver.sol\":4896:4936  OnlyPeer(_origin.srcEid, _origin.sender) */\n      0x04\n      dup3\n      add\n        /* \"#utility.yul\":13300:13342   */\n      mstore\n        /* \"@layerzerolabs/oapp-evm/contracts/oapp/OAppReceiver.sol\":4921:4935  _origin.sender */\n      0x20\n      dup9\n      add\n      calldataload\n        /* \"#utility.yul\":13358:13376   */\n      0x24\n      dup3\n      add\n        /* \"#utility.yul\":13351:13385   */\n      mstore\n        /* \"#utility.yul\":13273:13291   */\n      0x44\n      add\n        /* \"@layerzerolabs/oapp-evm/contracts/oapp/OAppReceiver.sol\":4896:4936  OnlyPeer(_origin.srcEid, _origin.sender) */\n      tag_116\n        /* \"#utility.yul\":13128:13391   */\n      jump\n        /* \"@layerzerolabs/oapp-evm/contracts/oapp/OAppReceiver.sol\":4833:4936  if (_getPeerOrRevert(_origin.srcEid) != _origin.sender) revert OnlyPeer(_origin.srcEid, _origin.sender) */\n    tag_120:\n        /* \"@layerzerolabs/oapp-evm/contracts/oapp/OAppReceiver.sol\":4368:5076  function lzReceive(... */\n      pop\n      pop\n      pop\n      pop\n      pop\n      pop\n      pop\n      jump\t// out\n        /* \"LocalOpenWork_2-contracts.sol\":2185:3252  function createJob(... */\n    tag_43:\n        /* \"@openzeppelin/contracts/security/ReentrancyGuard.sol\":2261:2282  _nonReentrantBefore() */\n      tag_128\n        /* \"@openzeppelin/contracts/security/ReentrancyGuard.sol\":2261:2280  _nonReentrantBefore */\n      tag_129\n        /* \"@openzeppelin/contracts/security/ReentrancyGuard.sol\":2261:2282  _nonReentrantBefore() */\n      jump\t// in\n    tag_128:\n        /* \"LocalOpenWork_2-contracts.sol\":2461:2462  0 */\n      0x00\n        /* \"LocalOpenWork_2-contracts.sol\":2445:2450  title */\n      dup6\n        /* \"LocalOpenWork_2-contracts.sol\":2439:2458  bytes(title).length */\n      mload\n        /* \"LocalOpenWork_2-contracts.sol\":2439:2462  bytes(title).length > 0 */\n      gt\n        /* \"LocalOpenWork_2-contracts.sol\":2431:2488  require(bytes(title).length > 0, \"Title cannot be empty\") */\n      tag_131\n      jumpi\n      mload(0x40)\n      shl(0xe5, 0x461bcd)\n      dup2\n      mstore\n        /* \"#utility.yul\":13598:13600   */\n      0x20\n        /* \"LocalOpenWork_2-contracts.sol\":2431:2488  require(bytes(title).length > 0, \"Title cannot be empty\") */\n      0x04\n      dup3\n      add\n        /* \"#utility.yul\":13580:13601   */\n      mstore\n        /* \"#utility.yul\":13637:13639   */\n      0x15\n        /* \"#utility.yul\":13617:13635   */\n      0x24\n      dup3\n      add\n        /* \"#utility.yul\":13610:13640   */\n      mstore\n        /* \"#utility.yul\":13676:13699   */\n      0x5469746c652063616e6e6f7420626520656d7074790000000000000000000000\n        /* \"#utility.yul\":13656:13674   */\n      0x44\n      dup3\n      add\n        /* \"#utility.yul\":13649:13700   */\n      mstore\n        /* \"#utility.yul\":13717:13735   */\n      0x64\n      add\n        /* \"LocalOpenWork_2-contracts.sol\":2431:2488  require(bytes(title).length > 0, \"Title cannot be empty\") */\n      tag_116\n        /* \"#utility.yul\":13396:13741   */\n      jump\n        /* \"LocalOpenWork_2-contracts.sol\":2431:2488  require(bytes(title).length > 0, \"Title cannot be empty\") */\n    tag_131:\n        /* \"LocalOpenWork_2-contracts.sol\":2515:2516  0 */\n      0x00\n        /* \"LocalOpenWork_2-contracts.sol\":2506:2512  budget */\n      dup4\n        /* \"LocalOpenWork_2-contracts.sol\":2506:2516  budget > 0 */\n      gt\n        /* \"LocalOpenWork_2-contracts.sol\":2498:2550  require(budget > 0, \"Budget must be greater than 0\") */\n      tag_134\n      jumpi\n      mload(0x40)\n      shl(0xe5, 0x461bcd)\n      dup2\n      mstore\n        /* \"#utility.yul\":13948:13950   */\n      0x20\n        /* \"LocalOpenWork_2-contracts.sol\":2498:2550  require(budget > 0, \"Budget must be greater than 0\") */\n      0x04\n      dup3\n      add\n        /* \"#utility.yul\":13930:13951   */\n      mstore\n        /* \"#utility.yul\":13987:13989   */\n      0x1d\n        /* \"#utility.yul\":13967:13985   */\n      0x24\n      dup3\n      add\n        /* \"#utility.yul\":13960:13990   */\n      mstore\n        /* \"#utility.yul\":14026:14057   */\n      0x427564676574206d7573742062652067726561746572207468616e2030000000\n        /* \"#utility.yul\":14006:14024   */\n      0x44\n      dup3\n      add\n        /* \"#utility.yul\":13999:14058   */\n      mstore\n        /* \"#utility.yul\":14075:14093   */\n      0x64\n      add\n        /* \"LocalOpenWork_2-contracts.sol\":2498:2550  require(budget > 0, \"Budget must be greater than 0\") */\n      tag_116\n        /* \"#utility.yul\":13746:14099   */\n      jump\n        /* \"LocalOpenWork_2-contracts.sol\":2498:2550  require(budget > 0, \"Budget must be greater than 0\") */\n    tag_134:\n        /* \"LocalOpenWork_2-contracts.sol\":2603:2666  setPeer(_dstEid, bytes32(uint256(uint160(_jobMarketContract)))) */\n      tag_137\n        /* \"LocalOpenWork_2-contracts.sol\":2611:2618  _dstEid */\n      dup8\n      sub(shl(0xa0, 0x01), 0x01)\n        /* \"LocalOpenWork_2-contracts.sol\":2628:2664  uint256(uint160(_jobMarketContract)) */\n      dup9\n      and\n        /* \"LocalOpenWork_2-contracts.sol\":2603:2610  setPeer */\n      tag_48\n        /* \"LocalOpenWork_2-contracts.sol\":2603:2666  setPeer(_dstEid, bytes32(uint256(uint160(_jobMarketContract)))) */\n      jump\t// in\n    tag_137:\n        /* \"LocalOpenWork_2-contracts.sol\":2677:2697  bytes memory payload */\n      0x00\n        /* \"LocalOpenWork_2-contracts.sol\":2750:2760  msg.sender */\n      caller\n        /* \"LocalOpenWork_2-contracts.sol\":2774:2779  title */\n      dup7\n        /* \"LocalOpenWork_2-contracts.sol\":2793:2804  description */\n      dup7\n        /* \"LocalOpenWork_2-contracts.sol\":2818:2824  budget */\n      dup7\n        /* \"LocalOpenWork_2-contracts.sol\":2700:2834  abi.encode(... */\n      add(0x20, mload(0x40))\n      tag_138\n      swap5\n      swap4\n      swap3\n      swap2\n      swap1\n      tag_111\n      jump\t// in\n    tag_138:\n      0x40\n      dup1\n      mload\n      not(0x1f)\n      dup2\n      dup5\n      sub\n      add\n      dup2\n      mstore\n      0x20\n        /* \"LocalOpenWork_2-contracts.sol\":2871:2912  _quote(_dstEid, payload, _options, false) */\n      0x1f\n      dup7\n      add\n      dup2\n      swap1\n      div\n      dup2\n      mul\n      dup5\n      add\n      dup2\n      add\n      swap1\n      swap3\n      mstore\n      dup5\n      dup4\n      mstore\n        /* \"LocalOpenWork_2-contracts.sol\":2700:2834  abi.encode(... */\n      swap3\n      pop\n        /* \"LocalOpenWork_2-contracts.sol\":2845:2868  MessagingFee memory fee */\n      0x00\n      swap2\n        /* \"LocalOpenWork_2-contracts.sol\":2871:2912  _quote(_dstEid, payload, _options, false) */\n      tag_139\n      swap2\n        /* \"LocalOpenWork_2-contracts.sol\":2878:2885  _dstEid */\n      dup12\n      swap2\n        /* \"LocalOpenWork_2-contracts.sol\":2700:2834  abi.encode(... */\n      dup6\n      swap2\n        /* \"LocalOpenWork_2-contracts.sol\":2896:2904  _options */\n      dup9\n      swap1\n      dup9\n      swap1\n      dup2\n      swap1\n        /* \"LocalOpenWork_2-contracts.sol\":2871:2912  _quote(_dstEid, payload, _options, false) */\n      dup5\n      add\n        /* \"LocalOpenWork_2-contracts.sol\":2896:2904  _options */\n      dup4\n      dup3\n      dup1\n      dup3\n        /* \"LocalOpenWork_2-contracts.sol\":2871:2912  _quote(_dstEid, payload, _options, false) */\n      dup5\n      calldatacopy\n      0x00\n      swap3\n      add\n      dup3\n      swap1\n      mstore\n      pop\n      swap3\n      pop\n        /* \"LocalOpenWork_2-contracts.sol\":2871:2877  _quote */\n      tag_113\n      swap2\n      pop\n      pop\n        /* \"LocalOpenWork_2-contracts.sol\":2871:2912  _quote(_dstEid, payload, _options, false) */\n      jump\t// in\n    tag_139:\n        /* \"LocalOpenWork_2-contracts.sol\":2943:2956  fee.nativeFee */\n      dup1\n      mload\n        /* \"LocalOpenWork_2-contracts.sol\":2845:2912  MessagingFee memory fee = _quote(_dstEid, payload, _options, false) */\n      swap1\n      swap2\n      pop\n        /* \"LocalOpenWork_2-contracts.sol\":2930:2939  msg.value */\n      callvalue\n        /* \"LocalOpenWork_2-contracts.sol\":2930:2956  msg.value >= fee.nativeFee */\n      lt\n      iszero\n        /* \"LocalOpenWork_2-contracts.sol\":2922:2977  require(msg.value >= fee.nativeFee, \"Insufficient fee\") */\n      tag_140\n      jumpi\n      mload(0x40)\n      shl(0xe5, 0x461bcd)\n      dup2\n      mstore\n        /* \"#utility.yul\":14306:14308   */\n      0x20\n        /* \"LocalOpenWork_2-contracts.sol\":2922:2977  require(msg.value >= fee.nativeFee, \"Insufficient fee\") */\n      0x04\n      dup3\n      add\n        /* \"#utility.yul\":14288:14309   */\n      mstore\n        /* \"#utility.yul\":14345:14347   */\n      0x10\n        /* \"#utility.yul\":14325:14343   */\n      0x24\n      dup3\n      add\n        /* \"#utility.yul\":14318:14348   */\n      mstore\n      shl(0x80, 0x496e73756666696369656e7420666565)\n        /* \"#utility.yul\":14364:14382   */\n      0x44\n      dup3\n      add\n        /* \"#utility.yul\":14357:14403   */\n      mstore\n        /* \"#utility.yul\":14420:14438   */\n      0x64\n      add\n        /* \"LocalOpenWork_2-contracts.sol\":2922:2977  require(msg.value >= fee.nativeFee, \"Insufficient fee\") */\n      tag_116\n        /* \"#utility.yul\":14104:14444   */\n      jump\n        /* \"LocalOpenWork_2-contracts.sol\":2922:2977  require(msg.value >= fee.nativeFee, \"Insufficient fee\") */\n    tag_140:\n        /* \"LocalOpenWork_2-contracts.sol\":2988:3142  _lzSend(... */\n      tag_143\n        /* \"LocalOpenWork_2-contracts.sol\":3009:3016  _dstEid */\n      dup10\n        /* \"LocalOpenWork_2-contracts.sol\":3030:3037  payload */\n      dup4\n        /* \"LocalOpenWork_2-contracts.sol\":3051:3059  _options */\n      dup7\n      dup7\n        /* \"LocalOpenWork_2-contracts.sol\":2988:3142  _lzSend(... */\n      dup1\n      dup1\n      0x1f\n      add\n      0x20\n      dup1\n      swap2\n      div\n      mul\n      0x20\n      add\n      mload(0x40)\n      swap1\n      dup2\n      add\n      0x40\n      mstore\n      dup1\n      swap4\n      swap3\n      swap2\n      swap1\n      dup2\n      dup2\n      mstore\n      0x20\n      add\n      dup4\n      dup4\n      dup1\n      dup3\n      dup5\n      calldatacopy\n      0x00\n      swap3\n      add\n      dup3\n      swap1\n      mstore\n      pop\n        /* \"LocalOpenWork_2-contracts.sol\":3073:3099  MessagingFee(msg.value, 0) */\n      0x40\n      dup1\n      mload\n      dup1\n      dup3\n      add\n      swap1\n      swap2\n      mstore\n        /* \"LocalOpenWork_2-contracts.sol\":3086:3095  msg.value */\n      callvalue\n        /* \"LocalOpenWork_2-contracts.sol\":3073:3099  MessagingFee(msg.value, 0) */\n      dup2\n      mstore\n      0x20\n      dup2\n      add\n      swap2\n      swap1\n      swap2\n      mstore\n      swap3\n      pop\n        /* \"LocalOpenWork_2-contracts.sol\":3121:3131  msg.sender */\n      caller\n      swap2\n      pop\n        /* \"LocalOpenWork_2-contracts.sol\":2988:2995  _lzSend */\n      tag_144\n      swap1\n      pop\n        /* \"LocalOpenWork_2-contracts.sol\":2988:3142  _lzSend(... */\n      jump\t// in\n    tag_143:\n      pop\n        /* \"LocalOpenWork_2-contracts.sol\":3178:3179  0 */\n      0x00\n        /* \"LocalOpenWork_2-contracts.sol\":3169:3176  _dstEid */\n      dup10\n        /* \"LocalOpenWork_2-contracts.sol\":3158:3207  JobCreated(_dstEid, 0, title, _jobMarketContract) */\n      0xffffffff\n      and\n      0x9d3921fa6202787a376e196a4db9f1f55f1ce7942d18c8146b1bd6e4deaef9e2\n        /* \"LocalOpenWork_2-contracts.sol\":3181:3186  title */\n      dup10\n        /* \"LocalOpenWork_2-contracts.sol\":3188:3206  _jobMarketContract */\n      dup12\n        /* \"LocalOpenWork_2-contracts.sol\":3158:3207  JobCreated(_dstEid, 0, title, _jobMarketContract) */\n      mload(0x40)\n      tag_145\n      swap3\n      swap2\n      swap1\n      tag_146\n      jump\t// in\n    tag_145:\n      mload(0x40)\n      dup1\n      swap2\n      sub\n      swap1\n      log3\n        /* \"LocalOpenWork_2-contracts.sol\":2421:3252  {... */\n      pop\n      pop\n        /* \"@openzeppelin/contracts/security/ReentrancyGuard.sol\":2303:2323  _nonReentrantAfter() */\n      tag_120\n        /* \"@openzeppelin/contracts/security/ReentrancyGuard.sol\":1716:1717  1 */\n      0x01\n        /* \"@openzeppelin/contracts/security/ReentrancyGuard.sol\":2809:2816  _status */\n      0x02\n        /* \"@openzeppelin/contracts/security/ReentrancyGuard.sol\":2809:2831  _status = _NOT_ENTERED */\n      sstore\n        /* \"@openzeppelin/contracts/security/ReentrancyGuard.sol\":2629:2838  function _nonReentrantAfter() private {... */\n      jump\n        /* \"@layerzerolabs/oapp-evm/contracts/oapp/OAppCore.sol\":1724:1832  function setPeer(uint32 _eid, bytes32 _peer) public virtual onlyOwner {... */\n    tag_48:\n        /* \"@openzeppelin/contracts/access/Ownable.sol\":1531:1544  _checkOwner() */\n      tag_150\n        /* \"@openzeppelin/contracts/access/Ownable.sol\":1531:1542  _checkOwner */\n      tag_151\n        /* \"@openzeppelin/contracts/access/Ownable.sol\":1531:1544  _checkOwner() */\n      jump\t// in\n    tag_150:\n        /* \"@layerzerolabs/oapp-evm/contracts/oapp/OAppCore.sol\":1804:1825  _setPeer(_eid, _peer) */\n      tag_153\n        /* \"@layerzerolabs/oapp-evm/contracts/oapp/OAppCore.sol\":1813:1817  _eid */\n      dup3\n        /* \"@layerzerolabs/oapp-evm/contracts/oapp/OAppCore.sol\":1819:1824  _peer */\n      dup3\n        /* \"@layerzerolabs/oapp-evm/contracts/oapp/OAppCore.sol\":1804:1812  _setPeer */\n      tag_154\n        /* \"@layerzerolabs/oapp-evm/contracts/oapp/OAppCore.sol\":1804:1825  _setPeer(_eid, _peer) */\n      jump\t// in\n    tag_153:\n        /* \"@layerzerolabs/oapp-evm/contracts/oapp/OAppCore.sol\":1724:1832  function setPeer(uint32 _eid, bytes32 _peer) public virtual onlyOwner {... */\n      pop\n      pop\n      jump\t// out\n        /* \"LocalOpenWork_2-contracts.sol\":3317:3786  function quoteCreateUserProfile(... */\n    tag_58:\n      0x40\n      dup1\n      mload\n      dup1\n      dup3\n      add\n      swap1\n      swap2\n      mstore\n      0x00\n      dup1\n      dup3\n      mstore\n      0x20\n      dup3\n      add\n      mstore\n        /* \"LocalOpenWork_2-contracts.sol\":3561:3581  bytes memory payload */\n      0x00\n        /* \"LocalOpenWork_2-contracts.sol\":3638:3648  msg.sender */\n      caller\n        /* \"LocalOpenWork_2-contracts.sol\":3662:3666  name */\n      dup8\n        /* \"LocalOpenWork_2-contracts.sol\":3680:3686  skills */\n      dup8\n        /* \"LocalOpenWork_2-contracts.sol\":3700:3711  profileHash */\n      dup8\n        /* \"LocalOpenWork_2-contracts.sol\":3584:3721  abi.encode(... */\n      add(0x20, mload(0x40))\n      tag_110\n      swap5\n      swap4\n      swap3\n      swap2\n      swap1\n      tag_158\n      jump\t// in\n        /* \"@openzeppelin/contracts/access/Ownable.sol\":2293:2394  function renounceOwnership() public virtual onlyOwner {... */\n    tag_62:\n        /* \"@openzeppelin/contracts/access/Ownable.sol\":1531:1544  _checkOwner() */\n      tag_161\n        /* \"@openzeppelin/contracts/access/Ownable.sol\":1531:1542  _checkOwner */\n      tag_151\n        /* \"@openzeppelin/contracts/access/Ownable.sol\":1531:1544  _checkOwner() */\n      jump\t// in\n    tag_161:\n        /* \"@openzeppelin/contracts/access/Ownable.sol\":2357:2387  _transferOwnership(address(0)) */\n      tag_163\n        /* \"@openzeppelin/contracts/access/Ownable.sol\":2384:2385  0 */\n      0x00\n        /* \"@openzeppelin/contracts/access/Ownable.sol\":2357:2375  _transferOwnership */\n      tag_164\n        /* \"@openzeppelin/contracts/access/Ownable.sol\":2357:2387  _transferOwnership(address(0)) */\n      jump\t// in\n    tag_163:\n        /* \"@openzeppelin/contracts/access/Ownable.sol\":2293:2394  function renounceOwnership() public virtual onlyOwner {... */\n      jump\t// out\n        /* \"@layerzerolabs/oapp-evm/contracts/oapp/OAppCore.sol\":3252:3357  function setDelegate(address _delegate) public onlyOwner {... */\n    tag_92:\n        /* \"@openzeppelin/contracts/access/Ownable.sol\":1531:1544  _checkOwner() */\n      tag_169\n        /* \"@openzeppelin/contracts/access/Ownable.sol\":1531:1542  _checkOwner */\n      tag_151\n        /* \"@openzeppelin/contracts/access/Ownable.sol\":1531:1544  _checkOwner() */\n      jump\t// in\n    tag_169:\n        /* \"@layerzerolabs/oapp-evm/contracts/oapp/OAppCore.sol\":3319:3350  endpoint.setDelegate(_delegate) */\n      mload(0x40)\n      shl(0xe0, 0xca5eb5e1)\n      dup2\n      mstore\n      sub(shl(0xa0, 0x01), 0x01)\n        /* \"#utility.yul\":6377:6432   */\n      dup3\n      dup2\n      and\n        /* \"@layerzerolabs/oapp-evm/contracts/oapp/OAppCore.sol\":3319:3350  endpoint.setDelegate(_delegate) */\n      0x04\n      dup4\n      add\n        /* \"#utility.yul\":6359:6433   */\n      mstore\n        /* \"@layerzerolabs/oapp-evm/contracts/oapp/OAppCore.sol\":3319:3327  endpoint */\n      immutable(\"0xef80077fd7ee005d1b0377e3e959eb59d0ca83c4839422f862a3540a66a91fb5\")\n        /* \"@layerzerolabs/oapp-evm/contracts/oapp/OAppCore.sol\":3319:3339  endpoint.setDelegate */\n      and\n      swap1\n      0xca5eb5e1\n      swap1\n        /* \"#utility.yul\":6332:6350   */\n      0x24\n      add\n        /* \"@layerzerolabs/oapp-evm/contracts/oapp/OAppCore.sol\":3319:3350  endpoint.setDelegate(_delegate) */\n      0x00\n      mload(0x40)\n      dup1\n      dup4\n      sub\n      dup2\n      0x00\n      dup8\n      dup1\n      extcodesize\n      iszero\n      dup1\n      iszero\n      tag_172\n      jumpi\n      0x00\n      dup1\n      revert\n    tag_172:\n      pop\n      gas\n      call\n      iszero\n      dup1\n      iszero\n      tag_174\n      jumpi\n      returndatasize\n      0x00\n      dup1\n      returndatacopy\n      revert(0x00, returndatasize)\n    tag_174:\n      pop\n      pop\n      pop\n      pop\n        /* \"@layerzerolabs/oapp-evm/contracts/oapp/OAppCore.sol\":3252:3357  function setDelegate(address _delegate) public onlyOwner {... */\n      pop\n      jump\t// out\n        /* \"LocalOpenWork_2-contracts.sol\":1038:2108  function createUserProfile(... */\n    tag_96:\n        /* \"@openzeppelin/contracts/security/ReentrancyGuard.sol\":2261:2282  _nonReentrantBefore() */\n      tag_176\n        /* \"@openzeppelin/contracts/security/ReentrancyGuard.sol\":2261:2280  _nonReentrantBefore */\n      tag_129\n        /* \"@openzeppelin/contracts/security/ReentrancyGuard.sol\":2261:2282  _nonReentrantBefore() */\n      jump\t// in\n    tag_176:\n        /* \"LocalOpenWork_2-contracts.sol\":1331:1332  0 */\n      0x00\n        /* \"LocalOpenWork_2-contracts.sol\":1316:1320  name */\n      dup6\n        /* \"LocalOpenWork_2-contracts.sol\":1310:1328  bytes(name).length */\n      mload\n        /* \"LocalOpenWork_2-contracts.sol\":1310:1332  bytes(name).length > 0 */\n      gt\n        /* \"LocalOpenWork_2-contracts.sol\":1302:1357  require(bytes(name).length > 0, \"Name cannot be empty\") */\n      tag_178\n      jumpi\n      mload(0x40)\n      shl(0xe5, 0x461bcd)\n      dup2\n      mstore\n        /* \"#utility.yul\":16412:16414   */\n      0x20\n        /* \"LocalOpenWork_2-contracts.sol\":1302:1357  require(bytes(name).length > 0, \"Name cannot be empty\") */\n      0x04\n      dup3\n      add\n        /* \"#utility.yul\":16394:16415   */\n      mstore\n        /* \"#utility.yul\":16451:16453   */\n      0x14\n        /* \"#utility.yul\":16431:16449   */\n      0x24\n      dup3\n      add\n        /* \"#utility.yul\":16424:16454   */\n      mstore\n        /* \"#utility.yul\":16490:16512   */\n      0x4e616d652063616e6e6f7420626520656d707479000000000000000000000000\n        /* \"#utility.yul\":16470:16488   */\n      0x44\n      dup3\n      add\n        /* \"#utility.yul\":16463:16513   */\n      mstore\n        /* \"#utility.yul\":16530:16548   */\n      0x64\n      add\n        /* \"LocalOpenWork_2-contracts.sol\":1302:1357  require(bytes(name).length > 0, \"Name cannot be empty\") */\n      tag_116\n        /* \"#utility.yul\":16210:16554   */\n      jump\n        /* \"LocalOpenWork_2-contracts.sol\":1302:1357  require(bytes(name).length > 0, \"Name cannot be empty\") */\n    tag_178:\n        /* \"LocalOpenWork_2-contracts.sol\":1391:1392  0 */\n      0x00\n        /* \"LocalOpenWork_2-contracts.sol\":1375:1381  skills */\n      dup5\n        /* \"LocalOpenWork_2-contracts.sol\":1375:1388  skills.length */\n      mload\n        /* \"LocalOpenWork_2-contracts.sol\":1375:1392  skills.length > 0 */\n      gt\n        /* \"LocalOpenWork_2-contracts.sol\":1367:1419  require(skills.length > 0, \"Skills cannot be empty\") */\n      tag_181\n      jumpi\n      mload(0x40)\n      shl(0xe5, 0x461bcd)\n      dup2\n      mstore\n        /* \"#utility.yul\":16761:16763   */\n      0x20\n        /* \"LocalOpenWork_2-contracts.sol\":1367:1419  require(skills.length > 0, \"Skills cannot be empty\") */\n      0x04\n      dup3\n      add\n        /* \"#utility.yul\":16743:16764   */\n      mstore\n        /* \"#utility.yul\":16800:16802   */\n      0x16\n        /* \"#utility.yul\":16780:16798   */\n      0x24\n      dup3\n      add\n        /* \"#utility.yul\":16773:16803   */\n      mstore\n        /* \"#utility.yul\":16839:16863   */\n      0x536b696c6c732063616e6e6f7420626520656d70747900000000000000000000\n        /* \"#utility.yul\":16819:16837   */\n      0x44\n      dup3\n      add\n        /* \"#utility.yul\":16812:16864   */\n      mstore\n        /* \"#utility.yul\":16881:16899   */\n      0x64\n      add\n        /* \"LocalOpenWork_2-contracts.sol\":1367:1419  require(skills.length > 0, \"Skills cannot be empty\") */\n      tag_116\n        /* \"#utility.yul\":16559:16905   */\n      jump\n        /* \"LocalOpenWork_2-contracts.sol\":1367:1419  require(skills.length > 0, \"Skills cannot be empty\") */\n    tag_181:\n        /* \"LocalOpenWork_2-contracts.sol\":1475:1541  setPeer(_dstEid, bytes32(uint256(uint160(_userRegistryContract)))) */\n      tag_184\n        /* \"LocalOpenWork_2-contracts.sol\":1483:1490  _dstEid */\n      dup8\n      sub(shl(0xa0, 0x01), 0x01)\n        /* \"LocalOpenWork_2-contracts.sol\":1500:1539  uint256(uint160(_userRegistryContract)) */\n      dup9\n      and\n        /* \"LocalOpenWork_2-contracts.sol\":1475:1482  setPeer */\n      tag_48\n        /* \"LocalOpenWork_2-contracts.sol\":1475:1541  setPeer(_dstEid, bytes32(uint256(uint160(_userRegistryContract)))) */\n      jump\t// in\n    tag_184:\n        /* \"LocalOpenWork_2-contracts.sol\":1552:1572  bytes memory payload */\n      0x00\n        /* \"LocalOpenWork_2-contracts.sol\":1629:1639  msg.sender */\n      caller\n        /* \"LocalOpenWork_2-contracts.sol\":1653:1657  name */\n      dup7\n        /* \"LocalOpenWork_2-contracts.sol\":1671:1677  skills */\n      dup7\n        /* \"LocalOpenWork_2-contracts.sol\":1691:1702  profileHash */\n      dup7\n        /* \"LocalOpenWork_2-contracts.sol\":1575:1712  abi.encode(... */\n      add(0x20, mload(0x40))\n      tag_185\n      swap5\n      swap4\n      swap3\n      swap2\n      swap1\n      tag_158\n      jump\t// in\n    tag_185:\n      0x40\n      dup1\n      mload\n      not(0x1f)\n      dup2\n      dup5\n      sub\n      add\n      dup2\n      mstore\n      0x20\n        /* \"LocalOpenWork_2-contracts.sol\":1749:1790  _quote(_dstEid, payload, _options, false) */\n      0x1f\n      dup7\n      add\n      dup2\n      swap1\n      div\n      dup2\n      mul\n      dup5\n      add\n      dup2\n      add\n      swap1\n      swap3\n      mstore\n      dup5\n      dup4\n      mstore\n        /* \"LocalOpenWork_2-contracts.sol\":1575:1712  abi.encode(... */\n      swap3\n      pop\n        /* \"LocalOpenWork_2-contracts.sol\":1723:1746  MessagingFee memory fee */\n      0x00\n      swap2\n        /* \"LocalOpenWork_2-contracts.sol\":1749:1790  _quote(_dstEid, payload, _options, false) */\n      tag_186\n      swap2\n        /* \"LocalOpenWork_2-contracts.sol\":1756:1763  _dstEid */\n      dup12\n      swap2\n        /* \"LocalOpenWork_2-contracts.sol\":1575:1712  abi.encode(... */\n      dup6\n      swap2\n        /* \"LocalOpenWork_2-contracts.sol\":1774:1782  _options */\n      dup9\n      swap1\n      dup9\n      swap1\n      dup2\n      swap1\n        /* \"LocalOpenWork_2-contracts.sol\":1749:1790  _quote(_dstEid, payload, _options, false) */\n      dup5\n      add\n        /* \"LocalOpenWork_2-contracts.sol\":1774:1782  _options */\n      dup4\n      dup3\n      dup1\n      dup3\n        /* \"LocalOpenWork_2-contracts.sol\":1749:1790  _quote(_dstEid, payload, _options, false) */\n      dup5\n      calldatacopy\n      0x00\n      swap3\n      add\n      dup3\n      swap1\n      mstore\n      pop\n      swap3\n      pop\n        /* \"LocalOpenWork_2-contracts.sol\":1749:1755  _quote */\n      tag_113\n      swap2\n      pop\n      pop\n        /* \"LocalOpenWork_2-contracts.sol\":1749:1790  _quote(_dstEid, payload, _options, false) */\n      jump\t// in\n    tag_186:\n        /* \"LocalOpenWork_2-contracts.sol\":1821:1834  fee.nativeFee */\n      dup1\n      mload\n        /* \"LocalOpenWork_2-contracts.sol\":1723:1790  MessagingFee memory fee = _quote(_dstEid, payload, _options, false) */\n      swap1\n      swap2\n      pop\n        /* \"LocalOpenWork_2-contracts.sol\":1808:1817  msg.value */\n      callvalue\n        /* \"LocalOpenWork_2-contracts.sol\":1808:1834  msg.value >= fee.nativeFee */\n      lt\n      iszero\n        /* \"LocalOpenWork_2-contracts.sol\":1800:1855  require(msg.value >= fee.nativeFee, \"Insufficient fee\") */\n      tag_187\n      jumpi\n      mload(0x40)\n      shl(0xe5, 0x461bcd)\n      dup2\n      mstore\n        /* \"#utility.yul\":14306:14308   */\n      0x20\n        /* \"LocalOpenWork_2-contracts.sol\":1800:1855  require(msg.value >= fee.nativeFee, \"Insufficient fee\") */\n      0x04\n      dup3\n      add\n        /* \"#utility.yul\":14288:14309   */\n      mstore\n        /* \"#utility.yul\":14345:14347   */\n      0x10\n        /* \"#utility.yul\":14325:14343   */\n      0x24\n      dup3\n      add\n        /* \"#utility.yul\":14318:14348   */\n      mstore\n      shl(0x80, 0x496e73756666696369656e7420666565)\n        /* \"#utility.yul\":14364:14382   */\n      0x44\n      dup3\n      add\n        /* \"#utility.yul\":14357:14403   */\n      mstore\n        /* \"#utility.yul\":14420:14438   */\n      0x64\n      add\n        /* \"LocalOpenWork_2-contracts.sol\":1800:1855  require(msg.value >= fee.nativeFee, \"Insufficient fee\") */\n      tag_116\n        /* \"#utility.yul\":14104:14444   */\n      jump\n        /* \"LocalOpenWork_2-contracts.sol\":1800:1855  require(msg.value >= fee.nativeFee, \"Insufficient fee\") */\n    tag_187:\n        /* \"LocalOpenWork_2-contracts.sol\":1866:2020  _lzSend(... */\n      tag_189\n        /* \"LocalOpenWork_2-contracts.sol\":1887:1894  _dstEid */\n      dup10\n        /* \"LocalOpenWork_2-contracts.sol\":1908:1915  payload */\n      dup4\n        /* \"LocalOpenWork_2-contracts.sol\":1929:1937  _options */\n      dup7\n      dup7\n        /* \"LocalOpenWork_2-contracts.sol\":1866:2020  _lzSend(... */\n      dup1\n      dup1\n      0x1f\n      add\n      0x20\n      dup1\n      swap2\n      div\n      mul\n      0x20\n      add\n      mload(0x40)\n      swap1\n      dup2\n      add\n      0x40\n      mstore\n      dup1\n      swap4\n      swap3\n      swap2\n      swap1\n      dup2\n      dup2\n      mstore\n      0x20\n      add\n      dup4\n      dup4\n      dup1\n      dup3\n      dup5\n      calldatacopy\n      0x00\n      swap3\n      add\n      dup3\n      swap1\n      mstore\n      pop\n        /* \"LocalOpenWork_2-contracts.sol\":1951:1977  MessagingFee(msg.value, 0) */\n      0x40\n      dup1\n      mload\n      dup1\n      dup3\n      add\n      swap1\n      swap2\n      mstore\n        /* \"LocalOpenWork_2-contracts.sol\":1964:1973  msg.value */\n      callvalue\n        /* \"LocalOpenWork_2-contracts.sol\":1951:1977  MessagingFee(msg.value, 0) */\n      dup2\n      mstore\n      0x20\n      dup2\n      add\n      swap2\n      swap1\n      swap2\n      mstore\n      swap3\n      pop\n        /* \"LocalOpenWork_2-contracts.sol\":1999:2009  msg.sender */\n      caller\n      swap2\n      pop\n        /* \"LocalOpenWork_2-contracts.sol\":1866:1873  _lzSend */\n      tag_144\n      swap1\n      pop\n        /* \"LocalOpenWork_2-contracts.sol\":1866:2020  _lzSend(... */\n      jump\t// in\n    tag_189:\n      pop\n        /* \"LocalOpenWork_2-contracts.sol\":2061:2071  msg.sender */\n      caller\n      sub(shl(0xa0, 0x01), 0x01)\n        /* \"LocalOpenWork_2-contracts.sol\":2036:2101  UserProfileSent(_dstEid, msg.sender, name, _userRegistryContract) */\n      and\n        /* \"LocalOpenWork_2-contracts.sol\":2052:2059  _dstEid */\n      dup10\n        /* \"LocalOpenWork_2-contracts.sol\":2036:2101  UserProfileSent(_dstEid, msg.sender, name, _userRegistryContract) */\n      0xffffffff\n      and\n      0x55c2a5400eee8cf3bf6249454b995adb48669c3a785cc20c61735e7aea4171aa\n        /* \"LocalOpenWork_2-contracts.sol\":2073:2077  name */\n      dup10\n        /* \"LocalOpenWork_2-contracts.sol\":2079:2100  _userRegistryContract */\n      dup12\n        /* \"LocalOpenWork_2-contracts.sol\":2036:2101  UserProfileSent(_dstEid, msg.sender, name, _userRegistryContract) */\n      mload(0x40)\n      tag_145\n      swap3\n      swap2\n      swap1\n      tag_146\n      jump\t// in\n        /* \"@openzeppelin/contracts/access/Ownable.sol\":2543:2758  function transferOwnership(address newOwner) public virtual onlyOwner {... */\n    tag_100:\n        /* \"@openzeppelin/contracts/access/Ownable.sol\":1531:1544  _checkOwner() */\n      tag_193\n        /* \"@openzeppelin/contracts/access/Ownable.sol\":1531:1542  _checkOwner */\n      tag_151\n        /* \"@openzeppelin/contracts/access/Ownable.sol\":1531:1544  _checkOwner() */\n      jump\t// in\n    tag_193:\n      sub(shl(0xa0, 0x01), 0x01)\n        /* \"@openzeppelin/contracts/access/Ownable.sol\":2627:2649  newOwner == address(0) */\n      dup2\n      and\n        /* \"@openzeppelin/contracts/access/Ownable.sol\":2623:2714  if (newOwner == address(0)) {... */\n      tag_195\n      jumpi\n        /* \"@openzeppelin/contracts/access/Ownable.sol\":2672:2703  OwnableInvalidOwner(address(0)) */\n      mload(0x40)\n      shl(0xe0, 0x1e4fbdf7)\n      dup2\n      mstore\n        /* \"@openzeppelin/contracts/access/Ownable.sol\":2700:2701  0 */\n      0x00\n        /* \"@openzeppelin/contracts/access/Ownable.sol\":2672:2703  OwnableInvalidOwner(address(0)) */\n      0x04\n      dup3\n      add\n        /* \"#utility.yul\":6359:6433   */\n      mstore\n        /* \"#utility.yul\":6332:6350   */\n      0x24\n      add\n        /* \"@openzeppelin/contracts/access/Ownable.sol\":2672:2703  OwnableInvalidOwner(address(0)) */\n      tag_116\n        /* \"#utility.yul\":6185:6439   */\n      jump\n        /* \"@openzeppelin/contracts/access/Ownable.sol\":2623:2714  if (newOwner == address(0)) {... */\n    tag_195:\n        /* \"@openzeppelin/contracts/access/Ownable.sol\":2723:2751  _transferOwnership(newOwner) */\n      tag_197\n        /* \"@openzeppelin/contracts/access/Ownable.sol\":2742:2750  newOwner */\n      dup2\n        /* \"@openzeppelin/contracts/access/Ownable.sol\":2723:2741  _transferOwnership */\n      tag_164\n        /* \"@openzeppelin/contracts/access/Ownable.sol\":2723:2751  _transferOwnership(newOwner) */\n      jump\t// in\n    tag_197:\n        /* \"@openzeppelin/contracts/access/Ownable.sol\":2543:2758  function transferOwnership(address newOwner) public virtual onlyOwner {... */\n      pop\n      jump\t// out\n        /* \"@layerzerolabs/oapp-evm/contracts/oapp/OAppReceiver.sol\":2771:2920  function allowInitializePath(Origin calldata origin) public view virtual returns (bool) {... */\n    tag_105:\n        /* \"@layerzerolabs/oapp-evm/contracts/oapp/OAppReceiver.sol\":2853:2857  bool */\n      0x00\n        /* \"@layerzerolabs/oapp-evm/contracts/oapp/OAppReceiver.sol\":2900:2913  origin.sender */\n      0x20\n      dup3\n      add\n      dup1\n      calldataload\n      swap1\n        /* \"@layerzerolabs/oapp-evm/contracts/oapp/OAppReceiver.sol\":2876:2881  peers */\n      0x01\n      swap1\n        /* \"@layerzerolabs/oapp-evm/contracts/oapp/OAppReceiver.sol\":2853:2857  bool */\n      dup4\n      swap1\n        /* \"@layerzerolabs/oapp-evm/contracts/oapp/OAppReceiver.sol\":2882:2895  origin.srcEid */\n      tag_199\n      swap1\n        /* \"@layerzerolabs/oapp-evm/contracts/oapp/OAppReceiver.sol\":2900:2906  origin */\n      dup7\n        /* \"@layerzerolabs/oapp-evm/contracts/oapp/OAppReceiver.sol\":2882:2895  origin.srcEid */\n      tag_84\n      jump\t// in\n    tag_199:\n        /* \"@layerzerolabs/oapp-evm/contracts/oapp/OAppReceiver.sol\":2876:2896  peers[origin.srcEid] */\n      0xffffffff\n      and\n      dup2\n      mstore\n      0x20\n      dup2\n      add\n      swap2\n      swap1\n      swap2\n      mstore\n      0x40\n      add\n      0x00\n      keccak256\n      sload\n        /* \"@layerzerolabs/oapp-evm/contracts/oapp/OAppReceiver.sol\":2876:2913  peers[origin.srcEid] == origin.sender */\n      eq\n      swap3\n        /* \"@layerzerolabs/oapp-evm/contracts/oapp/OAppReceiver.sol\":2771:2920  function allowInitializePath(Origin calldata origin) public view virtual returns (bool) {... */\n      swap2\n      pop\n      pop\n      jump\t// out\n        /* \"@layerzerolabs/oapp-evm/contracts/oapp/OAppSender.sol\":2038:2429  function _quote(... */\n    tag_113:\n      0x40\n      dup1\n      mload\n      dup1\n      dup3\n      add\n      swap1\n      swap2\n      mstore\n      0x00\n      dup1\n      dup3\n      mstore\n      0x20\n      dup3\n      add\n      mstore\n        /* \"@layerzerolabs/oapp-evm/contracts/oapp/OAppSender.sol\":2259:2267  endpoint */\n      immutable(\"0xef80077fd7ee005d1b0377e3e959eb59d0ca83c4839422f862a3540a66a91fb5\")\n      sub(shl(0xa0, 0x01), 0x01)\n        /* \"@layerzerolabs/oapp-evm/contracts/oapp/OAppSender.sol\":2259:2273  endpoint.quote */\n      and\n      0xddc28c58\n        /* \"@layerzerolabs/oapp-evm/contracts/oapp/OAppSender.sol\":2291:2377  MessagingParams(_dstEid, _getPeerOrRevert(_dstEid), _message, _options, _payInLzToken) */\n      mload(0x40)\n      dup1\n      0xa0\n      add\n      0x40\n      mstore\n      dup1\n        /* \"@layerzerolabs/oapp-evm/contracts/oapp/OAppSender.sol\":2307:2314  _dstEid */\n      dup9\n        /* \"@layerzerolabs/oapp-evm/contracts/oapp/OAppSender.sol\":2291:2377  MessagingParams(_dstEid, _getPeerOrRevert(_dstEid), _message, _options, _payInLzToken) */\n      0xffffffff\n      and\n      dup2\n      mstore\n      0x20\n      add\n        /* \"@layerzerolabs/oapp-evm/contracts/oapp/OAppSender.sol\":2316:2341  _getPeerOrRevert(_dstEid) */\n      tag_202\n        /* \"@layerzerolabs/oapp-evm/contracts/oapp/OAppSender.sol\":2333:2340  _dstEid */\n      dup10\n        /* \"@layerzerolabs/oapp-evm/contracts/oapp/OAppSender.sol\":2316:2332  _getPeerOrRevert */\n      tag_119\n        /* \"@layerzerolabs/oapp-evm/contracts/oapp/OAppSender.sol\":2316:2341  _getPeerOrRevert(_dstEid) */\n      jump\t// in\n    tag_202:\n        /* \"@layerzerolabs/oapp-evm/contracts/oapp/OAppSender.sol\":2291:2377  MessagingParams(_dstEid, _getPeerOrRevert(_dstEid), _message, _options, _payInLzToken) */\n      dup2\n      mstore\n      0x20\n      add\n        /* \"@layerzerolabs/oapp-evm/contracts/oapp/OAppSender.sol\":2343:2351  _message */\n      dup8\n        /* \"@layerzerolabs/oapp-evm/contracts/oapp/OAppSender.sol\":2291:2377  MessagingParams(_dstEid, _getPeerOrRevert(_dstEid), _message, _options, _payInLzToken) */\n      dup2\n      mstore\n      0x20\n      add\n        /* \"@layerzerolabs/oapp-evm/contracts/oapp/OAppSender.sol\":2353:2361  _options */\n      dup7\n        /* \"@layerzerolabs/oapp-evm/contracts/oapp/OAppSender.sol\":2291:2377  MessagingParams(_dstEid, _getPeerOrRevert(_dstEid), _message, _options, _payInLzToken) */\n      dup2\n      mstore\n      0x20\n      add\n        /* \"@layerzerolabs/oapp-evm/contracts/oapp/OAppSender.sol\":2363:2376  _payInLzToken */\n      dup6\n        /* \"@layerzerolabs/oapp-evm/contracts/oapp/OAppSender.sol\":2291:2377  MessagingParams(_dstEid, _getPeerOrRevert(_dstEid), _message, _options, _payInLzToken) */\n      iszero\n      iszero\n      dup2\n      mstore\n      pop\n        /* \"@layerzerolabs/oapp-evm/contracts/oapp/OAppSender.sol\":2403:2407  this */\n      address\n        /* \"@layerzerolabs/oapp-evm/contracts/oapp/OAppSender.sol\":2259:2422  endpoint.quote(... */\n      mload(0x40)\n      dup4\n      0xffffffff\n      and\n      0xe0\n      shl\n      dup2\n      mstore\n      0x04\n      add\n      tag_203\n      swap3\n      swap2\n      swap1\n      tag_204\n      jump\t// in\n    tag_203:\n      0x40\n      dup1\n      mload\n      dup1\n      dup4\n      sub\n      dup2\n      dup7\n      gas\n      staticcall\n      iszero\n      dup1\n      iszero\n      tag_206\n      jumpi\n      returndatasize\n      0x00\n      dup1\n      returndatacopy\n      revert(0x00, returndatasize)\n    tag_206:\n      pop\n      pop\n      pop\n      pop\n      mload(0x40)\n      returndatasize\n      not(0x1f)\n      0x1f\n      dup3\n      add\n      and\n      dup3\n      add\n      dup1\n      0x40\n      mstore\n      pop\n      dup2\n      add\n      swap1\n      tag_207\n      swap2\n      swap1\n      tag_208\n      jump\t// in\n    tag_207:\n        /* \"@layerzerolabs/oapp-evm/contracts/oapp/OAppSender.sol\":2240:2422  return... */\n      swap6\n        /* \"@layerzerolabs/oapp-evm/contracts/oapp/OAppSender.sol\":2038:2429  function _quote(... */\n      swap5\n      pop\n      pop\n      pop\n      pop\n      pop\n      jump\t// out\n        /* \"@layerzerolabs/oapp-evm/contracts/oapp/OAppCore.sol\":2718:2914  function _getPeerOrRevert(uint32 _eid) internal view virtual returns (bytes32) {... */\n    tag_119:\n        /* \"@layerzerolabs/oapp-evm/contracts/oapp/OAppCore.sol\":2822:2833  peers[_eid] */\n      0xffffffff\n      dup2\n      and\n        /* \"@layerzerolabs/oapp-evm/contracts/oapp/OAppCore.sol\":2788:2795  bytes32 */\n      0x00\n        /* \"@layerzerolabs/oapp-evm/contracts/oapp/OAppCore.sol\":2822:2833  peers[_eid] */\n      swap1\n      dup2\n      mstore\n        /* \"@layerzerolabs/oapp-evm/contracts/oapp/OAppCore.sol\":2822:2827  peers */\n      0x01\n        /* \"@layerzerolabs/oapp-evm/contracts/oapp/OAppCore.sol\":2822:2833  peers[_eid] */\n      0x20\n      mstore\n      0x40\n      dup2\n      keccak256\n      sload\n      dup1\n        /* \"@layerzerolabs/oapp-evm/contracts/oapp/OAppCore.sol\":2843:2886  if (peer == bytes32(0)) revert NoPeer(_eid) */\n      tag_210\n      jumpi\n        /* \"@layerzerolabs/oapp-evm/contracts/oapp/OAppCore.sol\":2874:2886  NoPeer(_eid) */\n      mload(0x40)\n      shl(0xe0, 0xf6ff4fb7)\n      dup2\n      mstore\n        /* \"#utility.yul\":18868:18878   */\n      0xffffffff\n        /* \"#utility.yul\":18856:18879   */\n      dup5\n      and\n        /* \"@layerzerolabs/oapp-evm/contracts/oapp/OAppCore.sol\":2874:2886  NoPeer(_eid) */\n      0x04\n      dup3\n      add\n        /* \"#utility.yul\":18838:18880   */\n      mstore\n        /* \"#utility.yul\":18811:18829   */\n      0x24\n      add\n        /* \"@layerzerolabs/oapp-evm/contracts/oapp/OAppCore.sol\":2874:2886  NoPeer(_eid) */\n      tag_116\n        /* \"#utility.yul\":18694:18886   */\n      jump\n        /* \"@layerzerolabs/oapp-evm/contracts/oapp/OAppCore.sol\":2843:2886  if (peer == bytes32(0)) revert NoPeer(_eid) */\n    tag_210:\n        /* \"@layerzerolabs/oapp-evm/contracts/oapp/OAppCore.sol\":2903:2907  peer */\n      swap3\n        /* \"@layerzerolabs/oapp-evm/contracts/oapp/OAppCore.sol\":2718:2914  function _getPeerOrRevert(uint32 _eid) internal view virtual returns (bytes32) {... */\n      swap2\n      pop\n      pop\n      jump\t// out\n        /* \"@openzeppelin/contracts/security/ReentrancyGuard.sol\":2336:2623  function _nonReentrantBefore() private {... */\n    tag_129:\n        /* \"@openzeppelin/contracts/security/ReentrancyGuard.sol\":1759:1760  2 */\n      0x02\n        /* \"@openzeppelin/contracts/security/ReentrancyGuard.sol\":2468:2475  _status */\n      dup1\n      sload\n        /* \"@openzeppelin/contracts/security/ReentrancyGuard.sol\":2468:2487  _status != _ENTERED */\n      sub\n        /* \"@openzeppelin/contracts/security/ReentrancyGuard.sol\":2460:2523  require(_status != _ENTERED, \"ReentrancyGuard: reentrant call\") */\n      tag_215\n      jumpi\n      mload(0x40)\n      shl(0xe5, 0x461bcd)\n      dup2\n      mstore\n        /* \"#utility.yul\":19093:19095   */\n      0x20\n        /* \"@openzeppelin/contracts/security/ReentrancyGuard.sol\":2460:2523  require(_status != _ENTERED, \"ReentrancyGuard: reentrant call\") */\n      0x04\n      dup3\n      add\n        /* \"#utility.yul\":19075:19096   */\n      mstore\n        /* \"#utility.yul\":19132:19134   */\n      0x1f\n        /* \"#utility.yul\":19112:19130   */\n      0x24\n      dup3\n      add\n        /* \"#utility.yul\":19105:19135   */\n      mstore\n        /* \"#utility.yul\":19171:19204   */\n      0x5265656e7472616e637947756172643a207265656e7472616e742063616c6c00\n        /* \"#utility.yul\":19151:19169   */\n      0x44\n      dup3\n      add\n        /* \"#utility.yul\":19144:19205   */\n      mstore\n        /* \"#utility.yul\":19222:19240   */\n      0x64\n      add\n        /* \"@openzeppelin/contracts/security/ReentrancyGuard.sol\":2460:2523  require(_status != _ENTERED, \"ReentrancyGuard: reentrant call\") */\n      tag_116\n        /* \"#utility.yul\":18891:19246   */\n      jump\n        /* \"@openzeppelin/contracts/security/ReentrancyGuard.sol\":2460:2523  require(_status != _ENTERED, \"ReentrancyGuard: reentrant call\") */\n    tag_215:\n        /* \"@openzeppelin/contracts/security/ReentrancyGuard.sol\":1759:1760  2 */\n      0x02\n        /* \"@openzeppelin/contracts/security/ReentrancyGuard.sol\":2598:2616  _status = _ENTERED */\n      dup1\n      sstore\n        /* \"@openzeppelin/contracts/security/ReentrancyGuard.sol\":2336:2623  function _nonReentrantBefore() private {... */\n      jump\t// out\n        /* \"@layerzerolabs/oapp-evm/contracts/oapp/OAppSender.sol\":3188:3954  function _lzSend(... */\n    tag_144:\n        /* \"@layerzerolabs/oapp-evm/contracts/oapp/OAppSender.sol\":3389:3420  MessagingReceipt memory receipt */\n      tag_218\n      tag_219\n      jump\t// in\n    tag_218:\n        /* \"@layerzerolabs/oapp-evm/contracts/oapp/OAppSender.sol\":3554:3574  uint256 messageValue */\n      0x00\n        /* \"@layerzerolabs/oapp-evm/contracts/oapp/OAppSender.sol\":3577:3603  _payNative(_fee.nativeFee) */\n      tag_221\n        /* \"@layerzerolabs/oapp-evm/contracts/oapp/OAppSender.sol\":3588:3592  _fee */\n      dup5\n        /* \"@layerzerolabs/oapp-evm/contracts/oapp/OAppSender.sol\":3588:3602  _fee.nativeFee */\n      0x00\n      add\n      mload\n        /* \"@layerzerolabs/oapp-evm/contracts/oapp/OAppSender.sol\":3577:3587  _payNative */\n      tag_222\n        /* \"@layerzerolabs/oapp-evm/contracts/oapp/OAppSender.sol\":3577:3603  _payNative(_fee.nativeFee) */\n      jump\t// in\n    tag_221:\n        /* \"@layerzerolabs/oapp-evm/contracts/oapp/OAppSender.sol\":3617:3632  _fee.lzTokenFee */\n      0x20\n      dup6\n      add\n      mload\n        /* \"@layerzerolabs/oapp-evm/contracts/oapp/OAppSender.sol\":3554:3603  uint256 messageValue = _payNative(_fee.nativeFee) */\n      swap1\n      swap2\n      pop\n        /* \"@layerzerolabs/oapp-evm/contracts/oapp/OAppSender.sol\":3617:3636  _fee.lzTokenFee > 0 */\n      iszero\n        /* \"@layerzerolabs/oapp-evm/contracts/oapp/OAppSender.sol\":3613:3666  if (_fee.lzTokenFee > 0) _payLzToken(_fee.lzTokenFee) */\n      tag_224\n      jumpi\n        /* \"@layerzerolabs/oapp-evm/contracts/oapp/OAppSender.sol\":3638:3666  _payLzToken(_fee.lzTokenFee) */\n      tag_224\n        /* \"@layerzerolabs/oapp-evm/contracts/oapp/OAppSender.sol\":3650:3654  _fee */\n      dup5\n        /* \"@layerzerolabs/oapp-evm/contracts/oapp/OAppSender.sol\":3650:3665  _fee.lzTokenFee */\n      0x20\n      add\n      mload\n        /* \"@layerzerolabs/oapp-evm/contracts/oapp/OAppSender.sol\":3638:3649  _payLzToken */\n      tag_225\n        /* \"@layerzerolabs/oapp-evm/contracts/oapp/OAppSender.sol\":3638:3666  _payLzToken(_fee.lzTokenFee) */\n      jump\t// in\n    tag_224:\n        /* \"@layerzerolabs/oapp-evm/contracts/oapp/OAppSender.sol\":3755:3763  endpoint */\n      immutable(\"0xef80077fd7ee005d1b0377e3e959eb59d0ca83c4839422f862a3540a66a91fb5\")\n      sub(shl(0xa0, 0x01), 0x01)\n        /* \"@layerzerolabs/oapp-evm/contracts/oapp/OAppSender.sol\":3755:3768  endpoint.send */\n      and\n      0x2637a450\n        /* \"@layerzerolabs/oapp-evm/contracts/oapp/OAppSender.sol\":3777:3789  messageValue */\n      dup3\n        /* \"@layerzerolabs/oapp-evm/contracts/oapp/OAppSender.sol\":3809:3901  MessagingParams(_dstEid, _getPeerOrRevert(_dstEid), _message, _options, _fee.lzTokenFee > 0) */\n      mload(0x40)\n      dup1\n      0xa0\n      add\n      0x40\n      mstore\n      dup1\n        /* \"@layerzerolabs/oapp-evm/contracts/oapp/OAppSender.sol\":3825:3832  _dstEid */\n      dup12\n        /* \"@layerzerolabs/oapp-evm/contracts/oapp/OAppSender.sol\":3809:3901  MessagingParams(_dstEid, _getPeerOrRevert(_dstEid), _message, _options, _fee.lzTokenFee > 0) */\n      0xffffffff\n      and\n      dup2\n      mstore\n      0x20\n      add\n        /* \"@layerzerolabs/oapp-evm/contracts/oapp/OAppSender.sol\":3834:3859  _getPeerOrRevert(_dstEid) */\n      tag_226\n        /* \"@layerzerolabs/oapp-evm/contracts/oapp/OAppSender.sol\":3851:3858  _dstEid */\n      dup13\n        /* \"@layerzerolabs/oapp-evm/contracts/oapp/OAppSender.sol\":3834:3850  _getPeerOrRevert */\n      tag_119\n        /* \"@layerzerolabs/oapp-evm/contracts/oapp/OAppSender.sol\":3834:3859  _getPeerOrRevert(_dstEid) */\n      jump\t// in\n    tag_226:\n        /* \"@layerzerolabs/oapp-evm/contracts/oapp/OAppSender.sol\":3809:3901  MessagingParams(_dstEid, _getPeerOrRevert(_dstEid), _message, _options, _fee.lzTokenFee > 0) */\n      dup2\n      mstore\n      0x20\n      add\n        /* \"@layerzerolabs/oapp-evm/contracts/oapp/OAppSender.sol\":3861:3869  _message */\n      dup11\n        /* \"@layerzerolabs/oapp-evm/contracts/oapp/OAppSender.sol\":3809:3901  MessagingParams(_dstEid, _getPeerOrRevert(_dstEid), _message, _options, _fee.lzTokenFee > 0) */\n      dup2\n      mstore\n      0x20\n      add\n        /* \"@layerzerolabs/oapp-evm/contracts/oapp/OAppSender.sol\":3871:3879  _options */\n      dup10\n        /* \"@layerzerolabs/oapp-evm/contracts/oapp/OAppSender.sol\":3809:3901  MessagingParams(_dstEid, _getPeerOrRevert(_dstEid), _message, _options, _fee.lzTokenFee > 0) */\n      dup2\n      mstore\n      0x20\n      add\n        /* \"@layerzerolabs/oapp-evm/contracts/oapp/OAppSender.sol\":3899:3900  0 */\n      0x00\n        /* \"@layerzerolabs/oapp-evm/contracts/oapp/OAppSender.sol\":3881:3885  _fee */\n      dup10\n        /* \"@layerzerolabs/oapp-evm/contracts/oapp/OAppSender.sol\":3881:3896  _fee.lzTokenFee */\n      0x20\n      add\n      mload\n        /* \"@layerzerolabs/oapp-evm/contracts/oapp/OAppSender.sol\":3881:3900  _fee.lzTokenFee > 0 */\n      gt\n        /* \"@layerzerolabs/oapp-evm/contracts/oapp/OAppSender.sol\":3809:3901  MessagingParams(_dstEid, _getPeerOrRevert(_dstEid), _message, _options, _fee.lzTokenFee > 0) */\n      iszero\n      iszero\n      dup2\n      mstore\n      pop\n        /* \"@layerzerolabs/oapp-evm/contracts/oapp/OAppSender.sol\":3919:3933  _refundAddress */\n      dup7\n        /* \"@layerzerolabs/oapp-evm/contracts/oapp/OAppSender.sol\":3755:3947  endpoint.send{ value: messageValue }(... */\n      mload(0x40)\n      dup5\n      0xffffffff\n      and\n      0xe0\n      shl\n      dup2\n      mstore\n      0x04\n      add\n      tag_227\n      swap3\n      swap2\n      swap1\n      tag_204\n      jump\t// in\n    tag_227:\n      0x80\n      mload(0x40)\n      dup1\n      dup4\n      sub\n      dup2\n      dup6\n      dup9\n      gas\n      call\n      iszero\n      dup1\n      iszero\n      tag_229\n      jumpi\n      returndatasize\n      0x00\n      dup1\n      returndatacopy\n      revert(0x00, returndatasize)\n    tag_229:\n      pop\n      pop\n      pop\n      pop\n      pop\n      mload(0x40)\n      returndatasize\n      not(0x1f)\n      0x1f\n      dup3\n      add\n      and\n      dup3\n      add\n      dup1\n      0x40\n      mstore\n      pop\n      dup2\n      add\n      swap1\n      tag_230\n      swap2\n      swap1\n      tag_231\n      jump\t// in\n    tag_230:\n        /* \"@layerzerolabs/oapp-evm/contracts/oapp/OAppSender.sol\":3677:3947  return... */\n      swap8\n        /* \"@layerzerolabs/oapp-evm/contracts/oapp/OAppSender.sol\":3188:3954  function _lzSend(... */\n      swap7\n      pop\n      pop\n      pop\n      pop\n      pop\n      pop\n      pop\n      jump\t// out\n        /* \"@openzeppelin/contracts/access/Ownable.sol\":1796:1958  function _checkOwner() internal view virtual {... */\n    tag_151:\n        /* \"@openzeppelin/contracts/access/Ownable.sol\":1684:1691  address */\n      0x00\n        /* \"@openzeppelin/contracts/access/Ownable.sol\":1710:1716  _owner */\n      sload\n      sub(shl(0xa0, 0x01), 0x01)\n      and\n        /* \"@openzeppelin/contracts/utils/Context.sol\":735:745  msg.sender */\n      caller\n        /* \"@openzeppelin/contracts/access/Ownable.sol\":1855:1878  owner() != _msgSender() */\n      eq\n        /* \"@openzeppelin/contracts/access/Ownable.sol\":1851:1952  if (owner() != _msgSender()) {... */\n      tag_163\n      jumpi\n        /* \"@openzeppelin/contracts/access/Ownable.sol\":1901:1941  OwnableUnauthorizedAccount(_msgSender()) */\n      mload(0x40)\n      shl(0xe0, 0x118cdaa7)\n      dup2\n      mstore\n        /* \"@openzeppelin/contracts/utils/Context.sol\":735:745  msg.sender */\n      caller\n        /* \"@openzeppelin/contracts/access/Ownable.sol\":1901:1941  OwnableUnauthorizedAccount(_msgSender()) */\n      0x04\n      dup3\n      add\n        /* \"#utility.yul\":6359:6433   */\n      mstore\n        /* \"#utility.yul\":6332:6350   */\n      0x24\n      add\n        /* \"@openzeppelin/contracts/access/Ownable.sol\":1901:1941  OwnableUnauthorizedAccount(_msgSender()) */\n      tag_116\n        /* \"#utility.yul\":6185:6439   */\n      jump\n        /* \"@layerzerolabs/oapp-evm/contracts/oapp/OAppCore.sol\":2286:2420  function _setPeer(uint32 _eid, bytes32 _peer) internal virtual {... */\n    tag_154:\n        /* \"@layerzerolabs/oapp-evm/contracts/oapp/OAppCore.sol\":2359:2370  peers[_eid] */\n      0xffffffff\n      dup3\n      and\n      0x00\n      dup2\n      dup2\n      mstore\n        /* \"@layerzerolabs/oapp-evm/contracts/oapp/OAppCore.sol\":2359:2364  peers */\n      0x01\n        /* \"@layerzerolabs/oapp-evm/contracts/oapp/OAppCore.sol\":2359:2370  peers[_eid] */\n      0x20\n      swap1\n      dup2\n      mstore\n      0x40\n      swap2\n      dup3\n      swap1\n      keccak256\n        /* \"@layerzerolabs/oapp-evm/contracts/oapp/OAppCore.sol\":2359:2378  peers[_eid] = _peer */\n      dup5\n      swap1\n      sstore\n        /* \"@layerzerolabs/oapp-evm/contracts/oapp/OAppCore.sol\":2393:2413  PeerSet(_eid, _peer) */\n      dup2\n      mload\n        /* \"#utility.yul\":13300:13342   */\n      swap3\n      dup4\n      mstore\n        /* \"#utility.yul\":13358:13376   */\n      dup3\n      add\n        /* \"#utility.yul\":13351:13385   */\n      dup4\n      swap1\n      mstore\n        /* \"@layerzerolabs/oapp-evm/contracts/oapp/OAppCore.sol\":2393:2413  PeerSet(_eid, _peer) */\n      0x238399d427b947898edb290f5ff0f9109849b1c3ba196a42e35f00c50a54b98b\n      swap2\n        /* \"#utility.yul\":13273:13291   */\n      add\n        /* \"@layerzerolabs/oapp-evm/contracts/oapp/OAppCore.sol\":2393:2413  PeerSet(_eid, _peer) */\n      mload(0x40)\n      dup1\n      swap2\n      sub\n      swap1\n      log1\n        /* \"@layerzerolabs/oapp-evm/contracts/oapp/OAppCore.sol\":2286:2420  function _setPeer(uint32 _eid, bytes32 _peer) internal virtual {... */\n      pop\n      pop\n      jump\t// out\n        /* \"@openzeppelin/contracts/access/Ownable.sol\":2912:3099  function _transferOwnership(address newOwner) internal virtual {... */\n    tag_164:\n        /* \"@openzeppelin/contracts/access/Ownable.sol\":2985:3001  address oldOwner */\n      0x00\n        /* \"@openzeppelin/contracts/access/Ownable.sol\":3004:3010  _owner */\n      dup1\n      sload\n      sub(shl(0xa0, 0x01), 0x01)\n        /* \"@openzeppelin/contracts/access/Ownable.sol\":3020:3037  _owner = newOwner */\n      dup4\n      dup2\n      and\n      not(0xffffffffffffffffffffffffffffffffffffffff)\n      dup4\n      and\n      dup2\n      or\n      dup5\n      sstore\n        /* \"@openzeppelin/contracts/access/Ownable.sol\":3052:3092  OwnershipTransferred(oldOwner, newOwner) */\n      mload(0x40)\n        /* \"@openzeppelin/contracts/access/Ownable.sol\":3004:3010  _owner */\n      swap2\n      swap1\n      swap3\n      and\n      swap3\n      dup4\n      swap2\n        /* \"@openzeppelin/contracts/access/Ownable.sol\":3052:3092  OwnershipTransferred(oldOwner, newOwner) */\n      0x8be0079c531659141344cd1fd0a4f28419497f9722a3daafe3b4186f6b6457e0\n      swap2\n        /* \"@openzeppelin/contracts/access/Ownable.sol\":2985:3001  address oldOwner */\n      swap1\n        /* \"@openzeppelin/contracts/access/Ownable.sol\":3052:3092  OwnershipTransferred(oldOwner, newOwner) */\n      log3\n        /* \"@openzeppelin/contracts/access/Ownable.sol\":2975:3099  {... */\n      pop\n        /* \"@openzeppelin/contracts/access/Ownable.sol\":2912:3099  function _transferOwnership(address newOwner) internal virtual {... */\n      pop\n      jump\t// out\n        /* \"@layerzerolabs/oapp-evm/contracts/oapp/OAppSender.sol\":4650:4841  function _payNative(uint256 _nativeFee) internal virtual returns (uint256 nativeFee) {... */\n    tag_222:\n        /* \"@layerzerolabs/oapp-evm/contracts/oapp/OAppSender.sol\":4716:4733  uint256 nativeFee */\n      0x00\n        /* \"@layerzerolabs/oapp-evm/contracts/oapp/OAppSender.sol\":4762:4772  _nativeFee */\n      dup2\n        /* \"@layerzerolabs/oapp-evm/contracts/oapp/OAppSender.sol\":4749:4758  msg.value */\n      callvalue\n        /* \"@layerzerolabs/oapp-evm/contracts/oapp/OAppSender.sol\":4749:4772  msg.value != _nativeFee */\n      eq\n        /* \"@layerzerolabs/oapp-evm/contracts/oapp/OAppSender.sol\":4745:4807  if (msg.value != _nativeFee) revert NotEnoughNative(msg.value) */\n      tag_244\n      jumpi\n        /* \"@layerzerolabs/oapp-evm/contracts/oapp/OAppSender.sol\":4781:4807  NotEnoughNative(msg.value) */\n      mload(0x40)\n      shl(0xe5, 0x04fb8209)\n      dup2\n      mstore\n        /* \"@layerzerolabs/oapp-evm/contracts/oapp/OAppSender.sol\":4797:4806  msg.value */\n      callvalue\n        /* \"@layerzerolabs/oapp-evm/contracts/oapp/OAppSender.sol\":4781:4807  NotEnoughNative(msg.value) */\n      0x04\n      dup3\n      add\n        /* \"#utility.yul\":10135:10160   */\n      mstore\n        /* \"#utility.yul\":10108:10126   */\n      0x24\n      add\n        /* \"@layerzerolabs/oapp-evm/contracts/oapp/OAppSender.sol\":4781:4807  NotEnoughNative(msg.value) */\n      tag_116\n        /* \"#utility.yul\":9989:10166   */\n      jump\n        /* \"@layerzerolabs/oapp-evm/contracts/oapp/OAppSender.sol\":4745:4807  if (msg.value != _nativeFee) revert NotEnoughNative(msg.value) */\n    tag_244:\n      pop\n        /* \"@layerzerolabs/oapp-evm/contracts/oapp/OAppSender.sol\":4824:4834  _nativeFee */\n      swap1\n        /* \"@layerzerolabs/oapp-evm/contracts/oapp/OAppSender.sol\":4650:4841  function _payNative(uint256 _nativeFee) internal virtual returns (uint256 nativeFee) {... */\n      jump\t// out\n        /* \"@layerzerolabs/oapp-evm/contracts/oapp/OAppSender.sol\":5218:5628  function _payLzToken(uint256 _lzTokenFee) internal virtual {... */\n    tag_225:\n        /* \"@layerzerolabs/oapp-evm/contracts/oapp/OAppSender.sol\":5371:5386  address lzToken */\n      0x00\n        /* \"@layerzerolabs/oapp-evm/contracts/oapp/OAppSender.sol\":5389:5397  endpoint */\n      immutable(\"0xef80077fd7ee005d1b0377e3e959eb59d0ca83c4839422f862a3540a66a91fb5\")\n      sub(shl(0xa0, 0x01), 0x01)\n        /* \"@layerzerolabs/oapp-evm/contracts/oapp/OAppSender.sol\":5389:5405  endpoint.lzToken */\n      and\n      0xe4fe1d94\n        /* \"@layerzerolabs/oapp-evm/contracts/oapp/OAppSender.sol\":5389:5407  endpoint.lzToken() */\n      mload(0x40)\n      dup2\n      0xffffffff\n      and\n      0xe0\n      shl\n      dup2\n      mstore\n      0x04\n      add\n      0x20\n      mload(0x40)\n      dup1\n      dup4\n      sub\n      dup2\n      dup7\n      gas\n      staticcall\n      iszero\n      dup1\n      iszero\n      tag_249\n      jumpi\n      returndatasize\n      0x00\n      dup1\n      returndatacopy\n      revert(0x00, returndatasize)\n    tag_249:\n      pop\n      pop\n      pop\n      pop\n      mload(0x40)\n      returndatasize\n      not(0x1f)\n      0x1f\n      dup3\n      add\n      and\n      dup3\n      add\n      dup1\n      0x40\n      mstore\n      pop\n      dup2\n      add\n      swap1\n      tag_250\n      swap2\n      swap1\n      tag_251\n      jump\t// in\n    tag_250:\n        /* \"@layerzerolabs/oapp-evm/contracts/oapp/OAppSender.sol\":5371:5407  address lzToken = endpoint.lzToken() */\n      swap1\n      pop\n      sub(shl(0xa0, 0x01), 0x01)\n        /* \"@layerzerolabs/oapp-evm/contracts/oapp/OAppSender.sol\":5421:5442  lzToken == address(0) */\n      dup2\n      and\n        /* \"@layerzerolabs/oapp-evm/contracts/oapp/OAppSender.sol\":5417:5471  if (lzToken == address(0)) revert LzTokenUnavailable() */\n      tag_252\n      jumpi\n        /* \"@layerzerolabs/oapp-evm/contracts/oapp/OAppSender.sol\":5451:5471  LzTokenUnavailable() */\n      mload(0x40)\n      shl(0xe1, 0x29b99a95)\n      dup2\n      mstore\n      0x04\n      add\n      mload(0x40)\n      dup1\n      swap2\n      sub\n      swap1\n      revert\n        /* \"@layerzerolabs/oapp-evm/contracts/oapp/OAppSender.sol\":5417:5471  if (lzToken == address(0)) revert LzTokenUnavailable() */\n    tag_252:\n        /* \"@openzeppelin/contracts/token/ERC20/utils/SafeERC20.sol\":1745:1798  abi.encodeCall(token.transferFrom, (from, to, value)) */\n      0x40\n      dup1\n      mload\n        /* \"@layerzerolabs/oapp-evm/contracts/oapp/OAppSender.sol\":5578:5588  msg.sender */\n      caller\n        /* \"@openzeppelin/contracts/token/ERC20/utils/SafeERC20.sol\":1745:1798  abi.encodeCall(token.transferFrom, (from, to, value)) */\n      0x24\n      dup3\n      add\n        /* \"#utility.yul\":20673:20747   */\n      dup2\n      swap1\n      mstore\n        /* \"@layerzerolabs/oapp-evm/contracts/oapp/OAppSender.sol\":5598:5606  endpoint */\n      immutable(\"0xef80077fd7ee005d1b0377e3e959eb59d0ca83c4839422f862a3540a66a91fb5\")\n      sub(shl(0xa0, 0x01), 0x01)\n        /* \"#utility.yul\":20783:20838   */\n      dup2\n      dup2\n      and\n        /* \"#utility.yul\":20763:20781   */\n      0x44\n      dup6\n      add\n        /* \"#utility.yul\":20756:20839   */\n      mstore\n        /* \"#utility.yul\":20855:20873   */\n      0x64\n      dup1\n      dup6\n      add\n        /* \"#utility.yul\":20848:20882   */\n      dup9\n      swap1\n      mstore\n        /* \"@openzeppelin/contracts/token/ERC20/utils/SafeERC20.sol\":1745:1798  abi.encodeCall(token.transferFrom, (from, to, value)) */\n      dup6\n      mload\n      dup1\n      dup7\n      sub\n      swap1\n      swap2\n      add\n      dup2\n      mstore\n        /* \"#utility.yul\":20646:20664   */\n      0x84\n      swap1\n      swap5\n      add\n        /* \"@openzeppelin/contracts/token/ERC20/utils/SafeERC20.sol\":1745:1798  abi.encodeCall(token.transferFrom, (from, to, value)) */\n      swap1\n      swap5\n      mstore\n      0x20\n      dup4\n      add\n      dup1\n      mload\n      sub(shl(0xe0, 0x01), 0x01)\n      and\n      shl(0xe0, 0x23b872dd)\n      or\n      swap1\n      mstore\n        /* \"@layerzerolabs/oapp-evm/contracts/oapp/OAppSender.sol\":5545:5621  IERC20(lzToken).safeTransferFrom(msg.sender, address(endpoint), _lzTokenFee) */\n      tag_153\n      swap4\n        /* \"@layerzerolabs/oapp-evm/contracts/oapp/OAppSender.sol\":5545:5577  IERC20(lzToken).safeTransferFrom */\n      dup6\n      and\n      swap3\n        /* \"@layerzerolabs/oapp-evm/contracts/oapp/OAppSender.sol\":5609:5620  _lzTokenFee */\n      dup7\n      swap1\n        /* \"@openzeppelin/contracts/token/ERC20/utils/SafeERC20.sol\":1718:1799  _callOptionalReturn(token, abi.encodeCall(token.transferFrom, (from, to, value))) */\n      tag_257\n      swap1\n        /* \"@layerzerolabs/oapp-evm/contracts/oapp/OAppSender.sol\":5545:5577  IERC20(lzToken).safeTransferFrom */\n      dup6\n      swap1\n        /* \"@openzeppelin/contracts/token/ERC20/utils/SafeERC20.sol\":1718:1737  _callOptionalReturn */\n      tag_260\n        /* \"@openzeppelin/contracts/token/ERC20/utils/SafeERC20.sol\":1718:1799  _callOptionalReturn(token, abi.encodeCall(token.transferFrom, (from, to, value))) */\n      jump\t// in\n    tag_257:\n        /* \"@openzeppelin/contracts/token/ERC20/utils/SafeERC20.sol\":1618:1806  function safeTransferFrom(IERC20 token, address from, address to, uint256 value) internal {... */\n      pop\n      pop\n      pop\n      pop\n      jump\t// out\n        /* \"@openzeppelin/contracts/token/ERC20/utils/SafeERC20.sol\":8370:9090  function _callOptionalReturn(IERC20 token, bytes memory data) private {... */\n    tag_260:\n        /* \"@openzeppelin/contracts/token/ERC20/utils/SafeERC20.sol\":8450:8468  uint256 returnSize */\n      0x00\n        /* \"@openzeppelin/contracts/token/ERC20/utils/SafeERC20.sol\":8478:8497  uint256 returnValue */\n      dup1\n        /* \"@openzeppelin/contracts/token/ERC20/utils/SafeERC20.sol\":8616:8620  0x20 */\n      0x20\n        /* \"@openzeppelin/contracts/token/ERC20/utils/SafeERC20.sol\":8613:8614  0 */\n      0x00\n        /* \"@openzeppelin/contracts/token/ERC20/utils/SafeERC20.sol\":8606:8610  data */\n      dup5\n        /* \"@openzeppelin/contracts/token/ERC20/utils/SafeERC20.sol\":8600:8611  mload(data) */\n      mload\n        /* \"@openzeppelin/contracts/token/ERC20/utils/SafeERC20.sol\":8593:8597  0x20 */\n      0x20\n        /* \"@openzeppelin/contracts/token/ERC20/utils/SafeERC20.sol\":8587:8591  data */\n      dup7\n        /* \"@openzeppelin/contracts/token/ERC20/utils/SafeERC20.sol\":8583:8598  add(data, 0x20) */\n      add\n        /* \"@openzeppelin/contracts/token/ERC20/utils/SafeERC20.sol\":8580:8581  0 */\n      0x00\n        /* \"@openzeppelin/contracts/token/ERC20/utils/SafeERC20.sol\":8573:8578  token */\n      dup9\n        /* \"@openzeppelin/contracts/token/ERC20/utils/SafeERC20.sol\":8566:8571  gas() */\n      gas\n        /* \"@openzeppelin/contracts/token/ERC20/utils/SafeERC20.sol\":8561:8621  call(gas(), token, 0, add(data, 0x20), mload(data), 0, 0x20) */\n      call\n        /* \"@openzeppelin/contracts/token/ERC20/utils/SafeERC20.sol\":8673:8680  success */\n      dup1\n        /* \"@openzeppelin/contracts/token/ERC20/utils/SafeERC20.sol\":8663:8839  if iszero(success) {... */\n      tag_262\n      jumpi\n        /* \"@openzeppelin/contracts/token/ERC20/utils/SafeERC20.sol\":8717:8721  0x40 */\n      0x40\n        /* \"@openzeppelin/contracts/token/ERC20/utils/SafeERC20.sol\":8711:8722  mload(0x40) */\n      mload\n        /* \"@openzeppelin/contracts/token/ERC20/utils/SafeERC20.sol\":8762:8778  returndatasize() */\n      returndatasize\n        /* \"@openzeppelin/contracts/token/ERC20/utils/SafeERC20.sol\":8759:8760  0 */\n      0x00\n        /* \"@openzeppelin/contracts/token/ERC20/utils/SafeERC20.sol\":8754:8757  ptr */\n      dup3\n        /* \"@openzeppelin/contracts/token/ERC20/utils/SafeERC20.sol\":8739:8779  returndatacopy(ptr, 0, returndatasize()) */\n      returndatacopy\n        /* \"@openzeppelin/contracts/token/ERC20/utils/SafeERC20.sol\":8808:8824  returndatasize() */\n      returndatasize\n        /* \"@openzeppelin/contracts/token/ERC20/utils/SafeERC20.sol\":8803:8806  ptr */\n      dup2\n        /* \"@openzeppelin/contracts/token/ERC20/utils/SafeERC20.sol\":8796:8825  revert(ptr, returndatasize()) */\n      revert\n        /* \"@openzeppelin/contracts/token/ERC20/utils/SafeERC20.sol\":8663:8839  if iszero(success) {... */\n    tag_262:\n      pop\n      pop\n        /* \"@openzeppelin/contracts/token/ERC20/utils/SafeERC20.sol\":8916:8917  0 */\n      0x00\n        /* \"@openzeppelin/contracts/token/ERC20/utils/SafeERC20.sol\":8910:8918  mload(0) */\n      mload\n        /* \"@openzeppelin/contracts/token/ERC20/utils/SafeERC20.sol\":8866:8882  returndatasize() */\n      returndatasize\n      swap2\n      pop\n        /* \"@openzeppelin/contracts/token/ERC20/utils/SafeERC20.sol\":8942:8957  returnSize == 0 */\n      dup2\n      iszero\n        /* \"@openzeppelin/contracts/token/ERC20/utils/SafeERC20.sol\":8942:9010  returnSize == 0 ? address(token).code.length == 0 : returnValue != 1 */\n      tag_263\n      jumpi\n        /* \"@openzeppelin/contracts/token/ERC20/utils/SafeERC20.sol\":8994:9005  returnValue */\n      dup1\n        /* \"@openzeppelin/contracts/token/ERC20/utils/SafeERC20.sol\":9009:9010  1 */\n      0x01\n        /* \"@openzeppelin/contracts/token/ERC20/utils/SafeERC20.sol\":8994:9010  returnValue != 1 */\n      eq\n      iszero\n        /* \"@openzeppelin/contracts/token/ERC20/utils/SafeERC20.sol\":8942:9010  returnSize == 0 ? address(token).code.length == 0 : returnValue != 1 */\n      jump(tag_264)\n    tag_263:\n      sub(shl(0xa0, 0x01), 0x01)\n        /* \"@openzeppelin/contracts/token/ERC20/utils/SafeERC20.sol\":8960:8986  address(token).code.length */\n      dup5\n      and\n      extcodesize\n        /* \"@openzeppelin/contracts/token/ERC20/utils/SafeERC20.sol\":8960:8991  address(token).code.length == 0 */\n      iszero\n        /* \"@openzeppelin/contracts/token/ERC20/utils/SafeERC20.sol\":8942:9010  returnSize == 0 ? address(token).code.length == 0 : returnValue != 1 */\n    tag_264:\n        /* \"@openzeppelin/contracts/token/ERC20/utils/SafeERC20.sol\":8938:9084  if (returnSize == 0 ? address(token).code.length == 0 : returnValue != 1) {... */\n      iszero\n      tag_257\n      jumpi\n        /* \"@openzeppelin/contracts/token/ERC20/utils/SafeERC20.sol\":9033:9073  SafeERC20FailedOperation(address(token)) */\n      mload(0x40)\n      shl(0xe0, 0x5274afe7)\n      dup2\n      mstore\n      sub(shl(0xa0, 0x01), 0x01)\n        /* \"#utility.yul\":6377:6432   */\n      dup6\n      and\n        /* \"@openzeppelin/contracts/token/ERC20/utils/SafeERC20.sol\":9033:9073  SafeERC20FailedOperation(address(token)) */\n      0x04\n      dup3\n      add\n        /* \"#utility.yul\":6359:6433   */\n      mstore\n        /* \"#utility.yul\":6332:6350   */\n      0x24\n      add\n        /* \"@openzeppelin/contracts/token/ERC20/utils/SafeERC20.sol\":9033:9073  SafeERC20FailedOperation(address(token)) */\n      tag_116\n        /* \"#utility.yul\":6185:6439   */\n      jump\n    tag_219:\n      mload(0x40)\n      dup1\n      0x60\n      add\n      0x40\n      mstore\n      dup1\n      0x00\n      dup1\n      not\n      and\n      dup2\n      mstore\n      0x20\n      add\n      and(sub(shl(0x40, 0x01), 0x01), 0x00)\n      dup2\n      mstore\n      0x20\n      add\n      tag_267\n      mload(0x40)\n      dup1\n      0x40\n      add\n      0x40\n      mstore\n      dup1\n      0x00\n      dup2\n      mstore\n      0x20\n      add\n      0x00\n      dup2\n      mstore\n      pop\n      swap1\n      jump\n    tag_267:\n      swap1\n      mstore\n      swap1\n      jump\t// out\n        /* \"#utility.yul\":14:177   */\n    tag_268:\n        /* \"#utility.yul\":81:101   */\n      dup1\n      calldataload\n        /* \"#utility.yul\":141:151   */\n      0xffffffff\n        /* \"#utility.yul\":130:152   */\n      dup2\n      and\n        /* \"#utility.yul\":120:153   */\n      dup2\n      eq\n        /* \"#utility.yul\":110:171   */\n      tag_281\n      jumpi\n        /* \"#utility.yul\":167:168   */\n      0x00\n        /* \"#utility.yul\":164:165   */\n      dup1\n        /* \"#utility.yul\":157:169   */\n      revert\n        /* \"#utility.yul\":110:171   */\n    tag_281:\n        /* \"#utility.yul\":14:177   */\n      swap2\n      swap1\n      pop\n      jump\t// out\n        /* \"#utility.yul\":182:309   */\n    tag_269:\n        /* \"#utility.yul\":243:253   */\n      0x4e487b71\n        /* \"#utility.yul\":238:241   */\n      0xe0\n        /* \"#utility.yul\":234:254   */\n      shl\n        /* \"#utility.yul\":231:232   */\n      0x00\n        /* \"#utility.yul\":224:255   */\n      mstore\n        /* \"#utility.yul\":274:278   */\n      0x41\n        /* \"#utility.yul\":271:272   */\n      0x04\n        /* \"#utility.yul\":264:279   */\n      mstore\n        /* \"#utility.yul\":298:302   */\n      0x24\n        /* \"#utility.yul\":295:296   */\n      0x00\n        /* \"#utility.yul\":288:303   */\n      revert\n        /* \"#utility.yul\":314:589   */\n    tag_270:\n        /* \"#utility.yul\":385:387   */\n      0x40\n        /* \"#utility.yul\":379:388   */\n      mload\n        /* \"#utility.yul\":450:452   */\n      0x1f\n        /* \"#utility.yul\":431:444   */\n      dup3\n      add\n      not(0x1f)\n        /* \"#utility.yul\":427:454   */\n      and\n        /* \"#utility.yul\":415:455   */\n      dup2\n      add\n      sub(shl(0x40, 0x01), 0x01)\n        /* \"#utility.yul\":470:504   */\n      dup2\n      gt\n        /* \"#utility.yul\":506:528   */\n      dup3\n      dup3\n      lt\n        /* \"#utility.yul\":467:529   */\n      or\n        /* \"#utility.yul\":464:552   */\n      iszero\n      tag_285\n      jumpi\n        /* \"#utility.yul\":532:550   */\n      tag_285\n      tag_269\n      jump\t// in\n    tag_285:\n        /* \"#utility.yul\":568:570   */\n      0x40\n        /* \"#utility.yul\":561:583   */\n      mstore\n        /* \"#utility.yul\":314:589   */\n      swap2\n      swap1\n      pop\n      jump\t// out\n        /* \"#utility.yul\":594:1153   */\n    tag_271:\n        /* \"#utility.yul\":637:642   */\n      0x00\n        /* \"#utility.yul\":690:693   */\n      dup3\n        /* \"#utility.yul\":683:687   */\n      0x1f\n        /* \"#utility.yul\":675:681   */\n      dup4\n        /* \"#utility.yul\":671:688   */\n      add\n        /* \"#utility.yul\":667:694   */\n      slt\n        /* \"#utility.yul\":657:712   */\n      tag_287\n      jumpi\n        /* \"#utility.yul\":708:709   */\n      0x00\n        /* \"#utility.yul\":705:706   */\n      dup1\n        /* \"#utility.yul\":698:710   */\n      revert\n        /* \"#utility.yul\":657:712   */\n    tag_287:\n        /* \"#utility.yul\":748:754   */\n      dup2\n        /* \"#utility.yul\":735:755   */\n      calldataload\n      sub(shl(0x40, 0x01), 0x01)\n        /* \"#utility.yul\":770:776   */\n      dup2\n        /* \"#utility.yul\":767:797   */\n      gt\n        /* \"#utility.yul\":764:820   */\n      iszero\n      tag_289\n      jumpi\n        /* \"#utility.yul\":800:818   */\n      tag_289\n      tag_269\n      jump\t// in\n    tag_289:\n        /* \"#utility.yul\":844:903   */\n      tag_290\n        /* \"#utility.yul\":891:893   */\n      0x1f\n        /* \"#utility.yul\":868:885   */\n      dup3\n      add\n      not(0x1f)\n        /* \"#utility.yul\":864:895   */\n      and\n        /* \"#utility.yul\":897:901   */\n      0x20\n        /* \"#utility.yul\":860:902   */\n      add\n        /* \"#utility.yul\":844:903   */\n      tag_270\n      jump\t// in\n    tag_290:\n        /* \"#utility.yul\":928:934   */\n      dup2\n        /* \"#utility.yul\":919:926   */\n      dup2\n        /* \"#utility.yul\":912:935   */\n      mstore\n        /* \"#utility.yul\":982:985   */\n      dup5\n        /* \"#utility.yul\":975:979   */\n      0x20\n        /* \"#utility.yul\":966:972   */\n      dup4\n        /* \"#utility.yul\":958:964   */\n      dup7\n        /* \"#utility.yul\":954:973   */\n      add\n        /* \"#utility.yul\":950:980   */\n      add\n        /* \"#utility.yul\":947:986   */\n      gt\n        /* \"#utility.yul\":944:1003   */\n      iszero\n      tag_291\n      jumpi\n        /* \"#utility.yul\":999:1000   */\n      0x00\n        /* \"#utility.yul\":996:997   */\n      dup1\n        /* \"#utility.yul\":989:1001   */\n      revert\n        /* \"#utility.yul\":944:1003   */\n    tag_291:\n        /* \"#utility.yul\":1064:1070   */\n      dup2\n        /* \"#utility.yul\":1057:1061   */\n      0x20\n        /* \"#utility.yul\":1049:1055   */\n      dup6\n        /* \"#utility.yul\":1045:1062   */\n      add\n        /* \"#utility.yul\":1038:1042   */\n      0x20\n        /* \"#utility.yul\":1029:1036   */\n      dup4\n        /* \"#utility.yul\":1025:1043   */\n      add\n        /* \"#utility.yul\":1012:1071   */\n      calldatacopy\n        /* \"#utility.yul\":1120:1121   */\n      0x00\n        /* \"#utility.yul\":1091:1111   */\n      swap2\n      dup2\n      add\n        /* \"#utility.yul\":1113:1117   */\n      0x20\n        /* \"#utility.yul\":1087:1118   */\n      add\n        /* \"#utility.yul\":1080:1122   */\n      swap2\n      swap1\n      swap2\n      mstore\n        /* \"#utility.yul\":1095:1102   */\n      swap4\n        /* \"#utility.yul\":594:1153   */\n      swap3\n      pop\n      pop\n      pop\n      jump\t// out\n        /* \"#utility.yul\":1158:1505   */\n    tag_272:\n        /* \"#utility.yul\":1209:1217   */\n      0x00\n        /* \"#utility.yul\":1219:1225   */\n      dup1\n        /* \"#utility.yul\":1273:1276   */\n      dup4\n        /* \"#utility.yul\":1266:1270   */\n      0x1f\n        /* \"#utility.yul\":1258:1264   */\n      dup5\n        /* \"#utility.yul\":1254:1271   */\n      add\n        /* \"#utility.yul\":1250:1277   */\n      slt\n        /* \"#utility.yul\":1240:1295   */\n      tag_293\n      jumpi\n        /* \"#utility.yul\":1291:1292   */\n      0x00\n        /* \"#utility.yul\":1288:1289   */\n      dup1\n        /* \"#utility.yul\":1281:1293   */\n      revert\n        /* \"#utility.yul\":1240:1295   */\n    tag_293:\n      pop\n        /* \"#utility.yul\":1314:1334   */\n      dup2\n      calldataload\n      sub(shl(0x40, 0x01), 0x01)\n        /* \"#utility.yul\":1346:1376   */\n      dup2\n      gt\n        /* \"#utility.yul\":1343:1393   */\n      iszero\n      tag_294\n      jumpi\n        /* \"#utility.yul\":1389:1390   */\n      0x00\n        /* \"#utility.yul\":1386:1387   */\n      dup1\n        /* \"#utility.yul\":1379:1391   */\n      revert\n        /* \"#utility.yul\":1343:1393   */\n    tag_294:\n        /* \"#utility.yul\":1426:1430   */\n      0x20\n        /* \"#utility.yul\":1418:1424   */\n      dup4\n        /* \"#utility.yul\":1414:1431   */\n      add\n        /* \"#utility.yul\":1402:1431   */\n      swap2\n      pop\n        /* \"#utility.yul\":1478:1481   */\n      dup4\n        /* \"#utility.yul\":1471:1475   */\n      0x20\n        /* \"#utility.yul\":1462:1468   */\n      dup3\n        /* \"#utility.yul\":1454:1460   */\n      dup6\n        /* \"#utility.yul\":1450:1469   */\n      add\n        /* \"#utility.yul\":1446:1476   */\n      add\n        /* \"#utility.yul\":1443:1482   */\n      gt\n        /* \"#utility.yul\":1440:1499   */\n      iszero\n      tag_295\n      jumpi\n        /* \"#utility.yul\":1495:1496   */\n      0x00\n        /* \"#utility.yul\":1492:1493   */\n      dup1\n        /* \"#utility.yul\":1485:1497   */\n      revert\n        /* \"#utility.yul\":1440:1499   */\n    tag_295:\n        /* \"#utility.yul\":1158:1505   */\n      swap3\n      pop\n      swap3\n      swap1\n      pop\n      jump\t// out\n        /* \"#utility.yul\":1510:2539   */\n    tag_27:\n        /* \"#utility.yul\":1635:1641   */\n      0x00\n        /* \"#utility.yul\":1643:1649   */\n      dup1\n        /* \"#utility.yul\":1651:1657   */\n      0x00\n        /* \"#utility.yul\":1659:1665   */\n      dup1\n        /* \"#utility.yul\":1667:1673   */\n      0x00\n        /* \"#utility.yul\":1675:1681   */\n      dup1\n        /* \"#utility.yul\":1728:1731   */\n      0xa0\n        /* \"#utility.yul\":1716:1725   */\n      dup8\n        /* \"#utility.yul\":1707:1714   */\n      dup10\n        /* \"#utility.yul\":1703:1726   */\n      sub\n        /* \"#utility.yul\":1699:1732   */\n      slt\n        /* \"#utility.yul\":1696:1749   */\n      iszero\n      tag_297\n      jumpi\n        /* \"#utility.yul\":1745:1746   */\n      0x00\n        /* \"#utility.yul\":1742:1743   */\n      dup1\n        /* \"#utility.yul\":1735:1747   */\n      revert\n        /* \"#utility.yul\":1696:1749   */\n    tag_297:\n        /* \"#utility.yul\":1768:1796   */\n      tag_298\n        /* \"#utility.yul\":1786:1795   */\n      dup8\n        /* \"#utility.yul\":1768:1796   */\n      tag_268\n      jump\t// in\n    tag_298:\n        /* \"#utility.yul\":1758:1796   */\n      swap6\n      pop\n        /* \"#utility.yul\":1847:1849   */\n      0x20\n        /* \"#utility.yul\":1836:1845   */\n      dup8\n        /* \"#utility.yul\":1832:1850   */\n      add\n        /* \"#utility.yul\":1819:1851   */\n      calldataload\n      sub(shl(0x40, 0x01), 0x01)\n        /* \"#utility.yul\":1866:1872   */\n      dup2\n        /* \"#utility.yul\":1863:1893   */\n      gt\n        /* \"#utility.yul\":1860:1910   */\n      iszero\n      tag_299\n      jumpi\n        /* \"#utility.yul\":1906:1907   */\n      0x00\n        /* \"#utility.yul\":1903:1904   */\n      dup1\n        /* \"#utility.yul\":1896:1908   */\n      revert\n        /* \"#utility.yul\":1860:1910   */\n    tag_299:\n        /* \"#utility.yul\":1929:1979   */\n      tag_300\n        /* \"#utility.yul\":1971:1978   */\n      dup10\n        /* \"#utility.yul\":1962:1968   */\n      dup3\n        /* \"#utility.yul\":1951:1960   */\n      dup11\n        /* \"#utility.yul\":1947:1969   */\n      add\n        /* \"#utility.yul\":1929:1979   */\n      tag_271\n      jump\t// in\n    tag_300:\n        /* \"#utility.yul\":1919:1979   */\n      swap6\n      pop\n      pop\n        /* \"#utility.yul\":2032:2034   */\n      0x40\n        /* \"#utility.yul\":2021:2030   */\n      dup8\n        /* \"#utility.yul\":2017:2035   */\n      add\n        /* \"#utility.yul\":2004:2036   */\n      calldataload\n      sub(shl(0x40, 0x01), 0x01)\n        /* \"#utility.yul\":2051:2059   */\n      dup2\n        /* \"#utility.yul\":2048:2080   */\n      gt\n        /* \"#utility.yul\":2045:2097   */\n      iszero\n      tag_301\n      jumpi\n        /* \"#utility.yul\":2093:2094   */\n      0x00\n        /* \"#utility.yul\":2090:2091   */\n      dup1\n        /* \"#utility.yul\":2083:2095   */\n      revert\n        /* \"#utility.yul\":2045:2097   */\n    tag_301:\n        /* \"#utility.yul\":2116:2168   */\n      tag_302\n        /* \"#utility.yul\":2160:2167   */\n      dup10\n        /* \"#utility.yul\":2149:2157   */\n      dup3\n        /* \"#utility.yul\":2138:2147   */\n      dup11\n        /* \"#utility.yul\":2134:2158   */\n      add\n        /* \"#utility.yul\":2116:2168   */\n      tag_271\n      jump\t// in\n    tag_302:\n        /* \"#utility.yul\":2106:2168   */\n      swap5\n      pop\n      pop\n        /* \"#utility.yul\":2237:2239   */\n      0x60\n        /* \"#utility.yul\":2222:2240   */\n      dup8\n      add\n        /* \"#utility.yul\":2209:2241   */\n      calldataload\n      swap3\n      pop\n        /* \"#utility.yul\":2318:2321   */\n      0x80\n        /* \"#utility.yul\":2303:2322   */\n      dup8\n      add\n        /* \"#utility.yul\":2290:2323   */\n      calldataload\n      sub(shl(0x40, 0x01), 0x01)\n        /* \"#utility.yul\":2335:2367   */\n      dup2\n      gt\n        /* \"#utility.yul\":2332:2384   */\n      iszero\n      tag_303\n      jumpi\n        /* \"#utility.yul\":2380:2381   */\n      0x00\n        /* \"#utility.yul\":2377:2378   */\n      dup1\n        /* \"#utility.yul\":2370:2382   */\n      revert\n        /* \"#utility.yul\":2332:2384   */\n    tag_303:\n        /* \"#utility.yul\":2419:2479   */\n      tag_304\n        /* \"#utility.yul\":2471:2478   */\n      dup10\n        /* \"#utility.yul\":2460:2468   */\n      dup3\n        /* \"#utility.yul\":2449:2458   */\n      dup11\n        /* \"#utility.yul\":2445:2469   */\n      add\n        /* \"#utility.yul\":2419:2479   */\n      tag_272\n      jump\t// in\n    tag_304:\n        /* \"#utility.yul\":1510:2539   */\n      swap8\n      swap11\n      swap7\n      swap10\n      pop\n      swap5\n      swap8\n      pop\n      swap3\n      swap6\n        /* \"#utility.yul\":2498:2506   */\n      swap4\n      swap5\n        /* \"#utility.yul\":1510:2539   */\n      swap3\n      pop\n      pop\n      pop\n      jump\t// out\n        /* \"#utility.yul\":2852:3006   */\n    tag_273:\n        /* \"#utility.yul\":2911:2916   */\n      0x00\n        /* \"#utility.yul\":2956:2958   */\n      0x60\n        /* \"#utility.yul\":2947:2953   */\n      dup3\n        /* \"#utility.yul\":2942:2945   */\n      dup5\n        /* \"#utility.yul\":2938:2954   */\n      sub\n        /* \"#utility.yul\":2934:2959   */\n      slt\n        /* \"#utility.yul\":2931:2976   */\n      iszero\n      tag_307\n      jumpi\n        /* \"#utility.yul\":2972:2973   */\n      0x00\n        /* \"#utility.yul\":2969:2970   */\n      dup1\n        /* \"#utility.yul\":2962:2974   */\n      revert\n        /* \"#utility.yul\":2931:2976   */\n    tag_307:\n      pop\n        /* \"#utility.yul\":2994:3000   */\n      swap2\n        /* \"#utility.yul\":2852:3006   */\n      swap1\n      pop\n      jump\t// out\n        /* \"#utility.yul\":3011:3165   */\n    tag_274:\n      sub(shl(0xa0, 0x01), 0x01)\n        /* \"#utility.yul\":3090:3095   */\n      dup2\n        /* \"#utility.yul\":3086:3140   */\n      and\n        /* \"#utility.yul\":3079:3084   */\n      dup2\n        /* \"#utility.yul\":3076:3141   */\n      eq\n        /* \"#utility.yul\":3066:3159   */\n      tag_197\n      jumpi\n        /* \"#utility.yul\":3155:3156   */\n      0x00\n        /* \"#utility.yul\":3152:3153   */\n      dup1\n        /* \"#utility.yul\":3145:3157   */\n      revert\n        /* \"#utility.yul\":3170:3304   */\n    tag_275:\n        /* \"#utility.yul\":3238:3258   */\n      dup1\n      calldataload\n        /* \"#utility.yul\":3267:3298   */\n      tag_281\n        /* \"#utility.yul\":3238:3258   */\n      dup2\n        /* \"#utility.yul\":3267:3298   */\n      tag_274\n      jump\t// in\n        /* \"#utility.yul\":3309:4402   */\n    tag_33:\n        /* \"#utility.yul\":3450:3456   */\n      0x00\n        /* \"#utility.yul\":3458:3464   */\n      dup1\n        /* \"#utility.yul\":3466:3472   */\n      0x00\n        /* \"#utility.yul\":3474:3480   */\n      dup1\n        /* \"#utility.yul\":3482:3488   */\n      0x00\n        /* \"#utility.yul\":3490:3496   */\n      dup1\n        /* \"#utility.yul\":3498:3504   */\n      0x00\n        /* \"#utility.yul\":3551:3554   */\n      0xe0\n        /* \"#utility.yul\":3539:3548   */\n      dup9\n        /* \"#utility.yul\":3530:3537   */\n      dup11\n        /* \"#utility.yul\":3526:3549   */\n      sub\n        /* \"#utility.yul\":3522:3555   */\n      slt\n        /* \"#utility.yul\":3519:3572   */\n      iszero\n      tag_313\n      jumpi\n        /* \"#utility.yul\":3568:3569   */\n      0x00\n        /* \"#utility.yul\":3565:3566   */\n      dup1\n        /* \"#utility.yul\":3558:3570   */\n      revert\n        /* \"#utility.yul\":3519:3572   */\n    tag_313:\n        /* \"#utility.yul\":3591:3644   */\n      tag_314\n        /* \"#utility.yul\":3636:3643   */\n      dup10\n        /* \"#utility.yul\":3625:3634   */\n      dup10\n        /* \"#utility.yul\":3591:3644   */\n      tag_273\n      jump\t// in\n    tag_314:\n        /* \"#utility.yul\":3581:3644   */\n      swap7\n      pop\n        /* \"#utility.yul\":3713:3715   */\n      0x60\n        /* \"#utility.yul\":3698:3716   */\n      dup9\n      add\n        /* \"#utility.yul\":3685:3717   */\n      calldataload\n      swap6\n      pop\n        /* \"#utility.yul\":3792:3795   */\n      0x80\n        /* \"#utility.yul\":3777:3796   */\n      dup9\n      add\n        /* \"#utility.yul\":3764:3797   */\n      calldataload\n      sub(shl(0x40, 0x01), 0x01)\n        /* \"#utility.yul\":3809:3839   */\n      dup2\n      gt\n        /* \"#utility.yul\":3806:3856   */\n      iszero\n      tag_315\n      jumpi\n        /* \"#utility.yul\":3852:3853   */\n      0x00\n        /* \"#utility.yul\":3849:3850   */\n      dup1\n        /* \"#utility.yul\":3842:3854   */\n      revert\n        /* \"#utility.yul\":3806:3856   */\n    tag_315:\n        /* \"#utility.yul\":3891:3949   */\n      tag_316\n        /* \"#utility.yul\":3941:3948   */\n      dup11\n        /* \"#utility.yul\":3932:3938   */\n      dup3\n        /* \"#utility.yul\":3921:3930   */\n      dup12\n        /* \"#utility.yul\":3917:3939   */\n      add\n        /* \"#utility.yul\":3891:3949   */\n      tag_272\n      jump\t// in\n    tag_316:\n        /* \"#utility.yul\":3968:3976   */\n      swap1\n      swap7\n      pop\n        /* \"#utility.yul\":3865:3949   */\n      swap5\n      pop\n      pop\n        /* \"#utility.yul\":4055:4058   */\n      0xa0\n        /* \"#utility.yul\":4040:4059   */\n      dup9\n      add\n        /* \"#utility.yul\":4027:4060   */\n      calldataload\n        /* \"#utility.yul\":4069:4102   */\n      tag_317\n        /* \"#utility.yul\":4027:4060   */\n      dup2\n        /* \"#utility.yul\":4069:4102   */\n      tag_274\n      jump\t// in\n    tag_317:\n        /* \"#utility.yul\":4121:4128   */\n      swap3\n      pop\n        /* \"#utility.yul\":4181:4184   */\n      0xc0\n        /* \"#utility.yul\":4166:4185   */\n      dup9\n      add\n        /* \"#utility.yul\":4153:4186   */\n      calldataload\n      sub(shl(0x40, 0x01), 0x01)\n        /* \"#utility.yul\":4198:4230   */\n      dup2\n      gt\n        /* \"#utility.yul\":4195:4247   */\n      iszero\n      tag_318\n      jumpi\n        /* \"#utility.yul\":4243:4244   */\n      0x00\n        /* \"#utility.yul\":4240:4241   */\n      dup1\n        /* \"#utility.yul\":4233:4245   */\n      revert\n        /* \"#utility.yul\":4195:4247   */\n    tag_318:\n        /* \"#utility.yul\":4282:4342   */\n      tag_319\n        /* \"#utility.yul\":4334:4341   */\n      dup11\n        /* \"#utility.yul\":4323:4331   */\n      dup3\n        /* \"#utility.yul\":4312:4321   */\n      dup12\n        /* \"#utility.yul\":4308:4332   */\n      add\n        /* \"#utility.yul\":4282:4342   */\n      tag_272\n      jump\t// in\n    tag_319:\n        /* \"#utility.yul\":3309:4402   */\n      swap9\n      swap12\n      swap8\n      swap11\n      pop\n      swap6\n      swap9\n      pop\n      swap4\n      swap7\n      swap3\n      swap6\n        /* \"#utility.yul\":4256:4342   */\n      swap3\n      swap4\n      pop\n      pop\n      pop\n        /* \"#utility.yul\":3309:4402   */\n      jump\t// out\n        /* \"#utility.yul\":4706:5877   */\n    tag_42:\n        /* \"#utility.yul\":4840:4846   */\n      0x00\n        /* \"#utility.yul\":4848:4854   */\n      dup1\n        /* \"#utility.yul\":4856:4862   */\n      0x00\n        /* \"#utility.yul\":4864:4870   */\n      dup1\n        /* \"#utility.yul\":4872:4878   */\n      0x00\n        /* \"#utility.yul\":4880:4886   */\n      dup1\n        /* \"#utility.yul\":4888:4894   */\n      0x00\n        /* \"#utility.yul\":4941:4944   */\n      0xc0\n        /* \"#utility.yul\":4929:4938   */\n      dup9\n        /* \"#utility.yul\":4920:4927   */\n      dup11\n        /* \"#utility.yul\":4916:4939   */\n      sub\n        /* \"#utility.yul\":4912:4945   */\n      slt\n        /* \"#utility.yul\":4909:4962   */\n      iszero\n      tag_322\n      jumpi\n        /* \"#utility.yul\":4958:4959   */\n      0x00\n        /* \"#utility.yul\":4955:4956   */\n      dup1\n        /* \"#utility.yul\":4948:4960   */\n      revert\n        /* \"#utility.yul\":4909:4962   */\n    tag_322:\n        /* \"#utility.yul\":4981:5009   */\n      tag_323\n        /* \"#utility.yul\":4999:5008   */\n      dup9\n        /* \"#utility.yul\":4981:5009   */\n      tag_268\n      jump\t// in\n    tag_323:\n        /* \"#utility.yul\":4971:5009   */\n      swap7\n      pop\n        /* \"#utility.yul\":5059:5061   */\n      0x20\n        /* \"#utility.yul\":5048:5057   */\n      dup9\n        /* \"#utility.yul\":5044:5062   */\n      add\n        /* \"#utility.yul\":5031:5063   */\n      calldataload\n        /* \"#utility.yul\":5072:5103   */\n      tag_324\n        /* \"#utility.yul\":5097:5102   */\n      dup2\n        /* \"#utility.yul\":5072:5103   */\n      tag_274\n      jump\t// in\n    tag_324:\n        /* \"#utility.yul\":5122:5127   */\n      swap6\n      pop\n        /* \"#utility.yul\":5178:5180   */\n      0x40\n        /* \"#utility.yul\":5163:5181   */\n      dup9\n      add\n        /* \"#utility.yul\":5150:5182   */\n      calldataload\n      sub(shl(0x40, 0x01), 0x01)\n        /* \"#utility.yul\":5194:5224   */\n      dup2\n      gt\n        /* \"#utility.yul\":5191:5241   */\n      iszero\n      tag_325\n      jumpi\n        /* \"#utility.yul\":5237:5238   */\n      0x00\n        /* \"#utility.yul\":5234:5235   */\n      dup1\n        /* \"#utility.yul\":5227:5239   */\n      revert\n        /* \"#utility.yul\":5191:5241   */\n    tag_325:\n        /* \"#utility.yul\":5260:5310   */\n      tag_326\n        /* \"#utility.yul\":5302:5309   */\n      dup11\n        /* \"#utility.yul\":5293:5299   */\n      dup3\n        /* \"#utility.yul\":5282:5291   */\n      dup12\n        /* \"#utility.yul\":5278:5300   */\n      add\n        /* \"#utility.yul\":5260:5310   */\n      tag_271\n      jump\t// in\n    tag_326:\n        /* \"#utility.yul\":5250:5310   */\n      swap6\n      pop\n      pop\n        /* \"#utility.yul\":5363:5365   */\n      0x60\n        /* \"#utility.yul\":5352:5361   */\n      dup9\n        /* \"#utility.yul\":5348:5366   */\n      add\n        /* \"#utility.yul\":5335:5367   */\n      calldataload\n      sub(shl(0x40, 0x01), 0x01)\n        /* \"#utility.yul\":5382:5390   */\n      dup2\n        /* \"#utility.yul\":5379:5411   */\n      gt\n        /* \"#utility.yul\":5376:5428   */\n      iszero\n      tag_327\n      jumpi\n        /* \"#utility.yul\":5424:5425   */\n      0x00\n        /* \"#utility.yul\":5421:5422   */\n      dup1\n        /* \"#utility.yul\":5414:5426   */\n      revert\n        /* \"#utility.yul\":5376:5428   */\n    tag_327:\n        /* \"#utility.yul\":5447:5499   */\n      tag_328\n        /* \"#utility.yul\":5491:5498   */\n      dup11\n        /* \"#utility.yul\":5480:5488   */\n      dup3\n        /* \"#utility.yul\":5469:5478   */\n      dup12\n        /* \"#utility.yul\":5465:5489   */\n      add\n        /* \"#utility.yul\":5447:5499   */\n      tag_271\n      jump\t// in\n    tag_328:\n        /* \"#utility.yul\":5437:5499   */\n      swap5\n      pop\n      pop\n        /* \"#utility.yul\":5572:5575   */\n      0x80\n        /* \"#utility.yul\":5557:5576   */\n      dup9\n      add\n        /* \"#utility.yul\":5544:5577   */\n      calldataload\n      swap3\n      pop\n        /* \"#utility.yul\":5656:5659   */\n      0xa0\n        /* \"#utility.yul\":5641:5660   */\n      dup9\n      add\n        /* \"#utility.yul\":5628:5661   */\n      calldataload\n      sub(shl(0x40, 0x01), 0x01)\n        /* \"#utility.yul\":5673:5705   */\n      dup2\n      gt\n        /* \"#utility.yul\":5670:5722   */\n      iszero\n      tag_318\n      jumpi\n        /* \"#utility.yul\":5718:5719   */\n      0x00\n        /* \"#utility.yul\":5715:5716   */\n      dup1\n        /* \"#utility.yul\":5708:5720   */\n      revert\n        /* \"#utility.yul\":5882:6180   */\n    tag_47:\n        /* \"#utility.yul\":5949:5955   */\n      0x00\n        /* \"#utility.yul\":5957:5963   */\n      dup1\n        /* \"#utility.yul\":6010:6012   */\n      0x40\n        /* \"#utility.yul\":5998:6007   */\n      dup4\n        /* \"#utility.yul\":5989:5996   */\n      dup6\n        /* \"#utility.yul\":5985:6008   */\n      sub\n        /* \"#utility.yul\":5981:6013   */\n      slt\n        /* \"#utility.yul\":5978:6030   */\n      iszero\n      tag_332\n      jumpi\n        /* \"#utility.yul\":6026:6027   */\n      0x00\n        /* \"#utility.yul\":6023:6024   */\n      dup1\n        /* \"#utility.yul\":6016:6028   */\n      revert\n        /* \"#utility.yul\":5978:6030   */\n    tag_332:\n        /* \"#utility.yul\":6049:6077   */\n      tag_333\n        /* \"#utility.yul\":6067:6076   */\n      dup4\n        /* \"#utility.yul\":6049:6077   */\n      tag_268\n      jump\t// in\n    tag_333:\n        /* \"#utility.yul\":6039:6077   */\n      swap5\n        /* \"#utility.yul\":6146:6148   */\n      0x20\n        /* \"#utility.yul\":6131:6149   */\n      swap4\n      swap1\n      swap4\n      add\n        /* \"#utility.yul\":6118:6150   */\n      calldataload\n      swap4\n      pop\n      pop\n      pop\n        /* \"#utility.yul\":5882:6180   */\n      jump\t// out\n        /* \"#utility.yul\":6444:7323   */\n    tag_276:\n        /* \"#utility.yul\":6497:6502   */\n      0x00\n        /* \"#utility.yul\":6550:6553   */\n      dup3\n        /* \"#utility.yul\":6543:6547   */\n      0x1f\n        /* \"#utility.yul\":6535:6541   */\n      dup4\n        /* \"#utility.yul\":6531:6548   */\n      add\n        /* \"#utility.yul\":6527:6554   */\n      slt\n        /* \"#utility.yul\":6517:6572   */\n      tag_336\n      jumpi\n        /* \"#utility.yul\":6568:6569   */\n      0x00\n        /* \"#utility.yul\":6565:6566   */\n      dup1\n        /* \"#utility.yul\":6558:6570   */\n      revert\n        /* \"#utility.yul\":6517:6572   */\n    tag_336:\n        /* \"#utility.yul\":6608:6614   */\n      dup2\n        /* \"#utility.yul\":6595:6615   */\n      calldataload\n      sub(shl(0x40, 0x01), 0x01)\n        /* \"#utility.yul\":6630:6636   */\n      dup2\n        /* \"#utility.yul\":6627:6657   */\n      gt\n        /* \"#utility.yul\":6624:6680   */\n      iszero\n      tag_338\n      jumpi\n        /* \"#utility.yul\":6660:6678   */\n      tag_338\n      tag_269\n      jump\t// in\n    tag_338:\n        /* \"#utility.yul\":6706:6712   */\n      dup1\n        /* \"#utility.yul\":6703:6704   */\n      0x05\n        /* \"#utility.yul\":6699:6713   */\n      shl\n        /* \"#utility.yul\":6733:6763   */\n      tag_339\n        /* \"#utility.yul\":6757:6761   */\n      0x20\n        /* \"#utility.yul\":6753:6755   */\n      dup3\n        /* \"#utility.yul\":6749:6762   */\n      add\n        /* \"#utility.yul\":6733:6763   */\n      tag_270\n      jump\t// in\n    tag_339:\n        /* \"#utility.yul\":6799:6818   */\n      swap2\n      dup3\n      mstore\n        /* \"#utility.yul\":6843:6847   */\n      0x20\n        /* \"#utility.yul\":6875:6890   */\n      dup2\n      dup6\n      add\n        /* \"#utility.yul\":6871:6897   */\n      dup2\n      add\n      swap3\n        /* \"#utility.yul\":6834:6848   */\n      swap1\n      dup2\n      add\n      swap1\n        /* \"#utility.yul\":6909:6924   */\n      dup7\n      dup5\n      gt\n        /* \"#utility.yul\":6906:6941   */\n      iszero\n      tag_340\n      jumpi\n        /* \"#utility.yul\":6937:6938   */\n      0x00\n        /* \"#utility.yul\":6934:6935   */\n      dup1\n        /* \"#utility.yul\":6927:6939   */\n      revert\n        /* \"#utility.yul\":6906:6941   */\n    tag_340:\n        /* \"#utility.yul\":6973:6977   */\n      0x20\n        /* \"#utility.yul\":6965:6971   */\n      dup7\n        /* \"#utility.yul\":6961:6978   */\n      add\n        /* \"#utility.yul\":6950:6978   */\n      swap3\n      pop\n        /* \"#utility.yul\":6987:7292   */\n    tag_341:\n        /* \"#utility.yul\":7003:7009   */\n      dup4\n        /* \"#utility.yul\":6998:7001   */\n      dup4\n        /* \"#utility.yul\":6995:7010   */\n      lt\n        /* \"#utility.yul\":6987:7292   */\n      iszero\n      tag_343\n      jumpi\n        /* \"#utility.yul\":7091:7094   */\n      dup3\n        /* \"#utility.yul\":7078:7095   */\n      calldataload\n      sub(shl(0x40, 0x01), 0x01)\n        /* \"#utility.yul\":7114:7125   */\n      dup2\n        /* \"#utility.yul\":7111:7146   */\n      gt\n        /* \"#utility.yul\":7108:7163   */\n      iszero\n      tag_344\n      jumpi\n        /* \"#utility.yul\":7159:7160   */\n      0x00\n        /* \"#utility.yul\":7156:7157   */\n      dup1\n        /* \"#utility.yul\":7149:7161   */\n      revert\n        /* \"#utility.yul\":7108:7163   */\n    tag_344:\n        /* \"#utility.yul\":7188:7247   */\n      tag_345\n        /* \"#utility.yul\":7243:7246   */\n      dup9\n        /* \"#utility.yul\":7236:7240   */\n      0x20\n        /* \"#utility.yul\":7222:7233   */\n      dup4\n        /* \"#utility.yul\":7214:7220   */\n      dup11\n        /* \"#utility.yul\":7210:7234   */\n      add\n        /* \"#utility.yul\":7206:7241   */\n      add\n        /* \"#utility.yul\":7188:7247   */\n      tag_271\n      jump\t// in\n    tag_345:\n        /* \"#utility.yul\":7176:7248   */\n      dup4\n      mstore\n      pop\n        /* \"#utility.yul\":7277:7281   */\n      0x20\n        /* \"#utility.yul\":7020:7034   */\n      swap3\n      dup4\n      add\n      swap3\n        /* \"#utility.yul\":7268:7282   */\n      swap1\n      swap2\n      add\n      swap1\n        /* \"#utility.yul\":6987:7292   */\n      jump(tag_341)\n    tag_343:\n        /* \"#utility.yul\":7310:7317   */\n      swap7\n        /* \"#utility.yul\":6444:7323   */\n      swap6\n      pop\n      pop\n      pop\n      pop\n      pop\n      pop\n      jump\t// out\n        /* \"#utility.yul\":7328:8494   */\n    tag_57:\n        /* \"#utility.yul\":7488:7494   */\n      0x00\n        /* \"#utility.yul\":7496:7502   */\n      dup1\n        /* \"#utility.yul\":7504:7510   */\n      0x00\n        /* \"#utility.yul\":7512:7518   */\n      dup1\n        /* \"#utility.yul\":7520:7526   */\n      0x00\n        /* \"#utility.yul\":7528:7534   */\n      dup1\n        /* \"#utility.yul\":7581:7584   */\n      0xa0\n        /* \"#utility.yul\":7569:7578   */\n      dup8\n        /* \"#utility.yul\":7560:7567   */\n      dup10\n        /* \"#utility.yul\":7556:7579   */\n      sub\n        /* \"#utility.yul\":7552:7585   */\n      slt\n        /* \"#utility.yul\":7549:7602   */\n      iszero\n      tag_347\n      jumpi\n        /* \"#utility.yul\":7598:7599   */\n      0x00\n        /* \"#utility.yul\":7595:7596   */\n      dup1\n        /* \"#utility.yul\":7588:7600   */\n      revert\n        /* \"#utility.yul\":7549:7602   */\n    tag_347:\n        /* \"#utility.yul\":7621:7649   */\n      tag_348\n        /* \"#utility.yul\":7639:7648   */\n      dup8\n        /* \"#utility.yul\":7621:7649   */\n      tag_268\n      jump\t// in\n    tag_348:\n        /* \"#utility.yul\":7611:7649   */\n      swap6\n      pop\n        /* \"#utility.yul\":7700:7702   */\n      0x20\n        /* \"#utility.yul\":7689:7698   */\n      dup8\n        /* \"#utility.yul\":7685:7703   */\n      add\n        /* \"#utility.yul\":7672:7704   */\n      calldataload\n      sub(shl(0x40, 0x01), 0x01)\n        /* \"#utility.yul\":7719:7725   */\n      dup2\n        /* \"#utility.yul\":7716:7746   */\n      gt\n        /* \"#utility.yul\":7713:7763   */\n      iszero\n      tag_349\n      jumpi\n        /* \"#utility.yul\":7759:7760   */\n      0x00\n        /* \"#utility.yul\":7756:7757   */\n      dup1\n        /* \"#utility.yul\":7749:7761   */\n      revert\n        /* \"#utility.yul\":7713:7763   */\n    tag_349:\n        /* \"#utility.yul\":7782:7832   */\n      tag_350\n        /* \"#utility.yul\":7824:7831   */\n      dup10\n        /* \"#utility.yul\":7815:7821   */\n      dup3\n        /* \"#utility.yul\":7804:7813   */\n      dup11\n        /* \"#utility.yul\":7800:7822   */\n      add\n        /* \"#utility.yul\":7782:7832   */\n      tag_271\n      jump\t// in\n    tag_350:\n        /* \"#utility.yul\":7772:7832   */\n      swap6\n      pop\n      pop\n        /* \"#utility.yul\":7885:7887   */\n      0x40\n        /* \"#utility.yul\":7874:7883   */\n      dup8\n        /* \"#utility.yul\":7870:7888   */\n      add\n        /* \"#utility.yul\":7857:7889   */\n      calldataload\n      sub(shl(0x40, 0x01), 0x01)\n        /* \"#utility.yul\":7904:7912   */\n      dup2\n        /* \"#utility.yul\":7901:7933   */\n      gt\n        /* \"#utility.yul\":7898:7950   */\n      iszero\n      tag_351\n      jumpi\n        /* \"#utility.yul\":7946:7947   */\n      0x00\n        /* \"#utility.yul\":7943:7944   */\n      dup1\n        /* \"#utility.yul\":7936:7948   */\n      revert\n        /* \"#utility.yul\":7898:7950   */\n    tag_351:\n        /* \"#utility.yul\":7969:8031   */\n      tag_352\n        /* \"#utility.yul\":8023:8030   */\n      dup10\n        /* \"#utility.yul\":8012:8020   */\n      dup3\n        /* \"#utility.yul\":8001:8010   */\n      dup11\n        /* \"#utility.yul\":7997:8021   */\n      add\n        /* \"#utility.yul\":7969:8031   */\n      tag_276\n      jump\t// in\n    tag_352:\n        /* \"#utility.yul\":7959:8031   */\n      swap5\n      pop\n      pop\n        /* \"#utility.yul\":8084:8086   */\n      0x60\n        /* \"#utility.yul\":8073:8082   */\n      dup8\n        /* \"#utility.yul\":8069:8087   */\n      add\n        /* \"#utility.yul\":8056:8088   */\n      calldataload\n      sub(shl(0x40, 0x01), 0x01)\n        /* \"#utility.yul\":8103:8111   */\n      dup2\n        /* \"#utility.yul\":8100:8132   */\n      gt\n        /* \"#utility.yul\":8097:8149   */\n      iszero\n      tag_353\n      jumpi\n        /* \"#utility.yul\":8145:8146   */\n      0x00\n        /* \"#utility.yul\":8142:8143   */\n      dup1\n        /* \"#utility.yul\":8135:8147   */\n      revert\n        /* \"#utility.yul\":8097:8149   */\n    tag_353:\n        /* \"#utility.yul\":8168:8220   */\n      tag_354\n        /* \"#utility.yul\":8212:8219   */\n      dup10\n        /* \"#utility.yul\":8201:8209   */\n      dup3\n        /* \"#utility.yul\":8190:8199   */\n      dup11\n        /* \"#utility.yul\":8186:8210   */\n      add\n        /* \"#utility.yul\":8168:8220   */\n      tag_271\n      jump\t// in\n    tag_354:\n        /* \"#utility.yul\":8158:8220   */\n      swap4\n      pop\n      pop\n        /* \"#utility.yul\":8273:8276   */\n      0x80\n        /* \"#utility.yul\":8262:8271   */\n      dup8\n        /* \"#utility.yul\":8258:8277   */\n      add\n        /* \"#utility.yul\":8245:8278   */\n      calldataload\n      sub(shl(0x40, 0x01), 0x01)\n        /* \"#utility.yul\":8293:8301   */\n      dup2\n        /* \"#utility.yul\":8290:8322   */\n      gt\n        /* \"#utility.yul\":8287:8339   */\n      iszero\n      tag_303\n      jumpi\n        /* \"#utility.yul\":8335:8336   */\n      0x00\n        /* \"#utility.yul\":8332:8333   */\n      dup1\n        /* \"#utility.yul\":8325:8337   */\n      revert\n        /* \"#utility.yul\":8704:9372   */\n    tag_72:\n        /* \"#utility.yul\":8816:8822   */\n      0x00\n        /* \"#utility.yul\":8824:8830   */\n      dup1\n        /* \"#utility.yul\":8832:8838   */\n      0x00\n        /* \"#utility.yul\":8840:8846   */\n      dup1\n        /* \"#utility.yul\":8893:8896   */\n      0xa0\n        /* \"#utility.yul\":8881:8890   */\n      dup6\n        /* \"#utility.yul\":8872:8879   */\n      dup8\n        /* \"#utility.yul\":8868:8891   */\n      sub\n        /* \"#utility.yul\":8864:8897   */\n      slt\n        /* \"#utility.yul\":8861:8914   */\n      iszero\n      tag_359\n      jumpi\n        /* \"#utility.yul\":8910:8911   */\n      0x00\n        /* \"#utility.yul\":8907:8908   */\n      dup1\n        /* \"#utility.yul\":8900:8912   */\n      revert\n        /* \"#utility.yul\":8861:8914   */\n    tag_359:\n        /* \"#utility.yul\":8933:8986   */\n      tag_360\n        /* \"#utility.yul\":8978:8985   */\n      dup7\n        /* \"#utility.yul\":8967:8976   */\n      dup7\n        /* \"#utility.yul\":8933:8986   */\n      tag_273\n      jump\t// in\n    tag_360:\n        /* \"#utility.yul\":8923:8986   */\n      swap4\n      pop\n        /* \"#utility.yul\":9037:9039   */\n      0x60\n        /* \"#utility.yul\":9026:9035   */\n      dup6\n        /* \"#utility.yul\":9022:9040   */\n      add\n        /* \"#utility.yul\":9009:9041   */\n      calldataload\n      sub(shl(0x40, 0x01), 0x01)\n        /* \"#utility.yul\":9056:9062   */\n      dup2\n        /* \"#utility.yul\":9053:9083   */\n      gt\n        /* \"#utility.yul\":9050:9100   */\n      iszero\n      tag_361\n      jumpi\n        /* \"#utility.yul\":9096:9097   */\n      0x00\n        /* \"#utility.yul\":9093:9094   */\n      dup1\n        /* \"#utility.yul\":9086:9098   */\n      revert\n        /* \"#utility.yul\":9050:9100   */\n    tag_361:\n        /* \"#utility.yul\":9135:9193   */\n      tag_362\n        /* \"#utility.yul\":9185:9192   */\n      dup8\n        /* \"#utility.yul\":9176:9182   */\n      dup3\n        /* \"#utility.yul\":9165:9174   */\n      dup9\n        /* \"#utility.yul\":9161:9183   */\n      add\n        /* \"#utility.yul\":9135:9193   */\n      tag_272\n      jump\t// in\n    tag_362:\n        /* \"#utility.yul\":9212:9220   */\n      swap1\n      swap5\n      pop\n        /* \"#utility.yul\":9109:9193   */\n      swap3\n      pop\n      pop\n        /* \"#utility.yul\":9297:9300   */\n      0x80\n        /* \"#utility.yul\":9282:9301   */\n      dup6\n      add\n        /* \"#utility.yul\":9269:9302   */\n      calldataload\n        /* \"#utility.yul\":9311:9342   */\n      tag_363\n        /* \"#utility.yul\":9269:9302   */\n      dup2\n        /* \"#utility.yul\":9311:9342   */\n      tag_274\n      jump\t// in\n    tag_363:\n        /* \"#utility.yul\":8704:9372   */\n      swap4\n      swap7\n      swap3\n      swap6\n      pop\n      swap1\n      swap4\n      pop\n      pop\n      jump\t// out\n        /* \"#utility.yul\":9800:9984   */\n    tag_84:\n        /* \"#utility.yul\":9858:9864   */\n      0x00\n        /* \"#utility.yul\":9911:9913   */\n      0x20\n        /* \"#utility.yul\":9899:9908   */\n      dup3\n        /* \"#utility.yul\":9890:9897   */\n      dup5\n        /* \"#utility.yul\":9886:9909   */\n      sub\n        /* \"#utility.yul\":9882:9914   */\n      slt\n        /* \"#utility.yul\":9879:9931   */\n      iszero\n      tag_367\n      jumpi\n        /* \"#utility.yul\":9927:9928   */\n      0x00\n        /* \"#utility.yul\":9924:9925   */\n      dup1\n        /* \"#utility.yul\":9917:9929   */\n      revert\n        /* \"#utility.yul\":9879:9931   */\n    tag_367:\n        /* \"#utility.yul\":9950:9978   */\n      tag_368\n        /* \"#utility.yul\":9968:9977   */\n      dup3\n        /* \"#utility.yul\":9950:9978   */\n      tag_268\n      jump\t// in\n    tag_368:\n        /* \"#utility.yul\":9940:9978   */\n      swap4\n        /* \"#utility.yul\":9800:9984   */\n      swap3\n      pop\n      pop\n      pop\n      jump\t// out\n        /* \"#utility.yul\":10171:10418   */\n    tag_91:\n        /* \"#utility.yul\":10230:10236   */\n      0x00\n        /* \"#utility.yul\":10283:10285   */\n      0x20\n        /* \"#utility.yul\":10271:10280   */\n      dup3\n        /* \"#utility.yul\":10262:10269   */\n      dup5\n        /* \"#utility.yul\":10258:10281   */\n      sub\n        /* \"#utility.yul\":10254:10286   */\n      slt\n        /* \"#utility.yul\":10251:10303   */\n      iszero\n      tag_371\n      jumpi\n        /* \"#utility.yul\":10299:10300   */\n      0x00\n        /* \"#utility.yul\":10296:10297   */\n      dup1\n        /* \"#utility.yul\":10289:10301   */\n      revert\n        /* \"#utility.yul\":10251:10303   */\n    tag_371:\n        /* \"#utility.yul\":10338:10347   */\n      dup2\n        /* \"#utility.yul\":10325:10348   */\n      calldataload\n        /* \"#utility.yul\":10357:10388   */\n      tag_368\n        /* \"#utility.yul\":10382:10387   */\n      dup2\n        /* \"#utility.yul\":10357:10388   */\n      tag_274\n      jump\t// in\n        /* \"#utility.yul\":10423:11664   */\n    tag_95:\n        /* \"#utility.yul\":10592:10598   */\n      0x00\n        /* \"#utility.yul\":10600:10606   */\n      dup1\n        /* \"#utility.yul\":10608:10614   */\n      0x00\n        /* \"#utility.yul\":10616:10622   */\n      dup1\n        /* \"#utility.yul\":10624:10630   */\n      0x00\n        /* \"#utility.yul\":10632:10638   */\n      dup1\n        /* \"#utility.yul\":10640:10646   */\n      0x00\n        /* \"#utility.yul\":10693:10696   */\n      0xc0\n        /* \"#utility.yul\":10681:10690   */\n      dup9\n        /* \"#utility.yul\":10672:10679   */\n      dup11\n        /* \"#utility.yul\":10668:10691   */\n      sub\n        /* \"#utility.yul\":10664:10697   */\n      slt\n        /* \"#utility.yul\":10661:10714   */\n      iszero\n      tag_374\n      jumpi\n        /* \"#utility.yul\":10710:10711   */\n      0x00\n        /* \"#utility.yul\":10707:10708   */\n      dup1\n        /* \"#utility.yul\":10700:10712   */\n      revert\n        /* \"#utility.yul\":10661:10714   */\n    tag_374:\n        /* \"#utility.yul\":10733:10761   */\n      tag_375\n        /* \"#utility.yul\":10751:10760   */\n      dup9\n        /* \"#utility.yul\":10733:10761   */\n      tag_268\n      jump\t// in\n    tag_375:\n        /* \"#utility.yul\":10723:10761   */\n      swap7\n      pop\n        /* \"#utility.yul\":10780:10818   */\n      tag_376\n        /* \"#utility.yul\":10814:10816   */\n      0x20\n        /* \"#utility.yul\":10803:10812   */\n      dup10\n        /* \"#utility.yul\":10799:10817   */\n      add\n        /* \"#utility.yul\":10780:10818   */\n      tag_275\n      jump\t// in\n    tag_376:\n        /* \"#utility.yul\":10770:10818   */\n      swap6\n      pop\n        /* \"#utility.yul\":10869:10871   */\n      0x40\n        /* \"#utility.yul\":10858:10867   */\n      dup9\n        /* \"#utility.yul\":10854:10872   */\n      add\n        /* \"#utility.yul\":10841:10873   */\n      calldataload\n      sub(shl(0x40, 0x01), 0x01)\n        /* \"#utility.yul\":10888:10894   */\n      dup2\n        /* \"#utility.yul\":10885:10915   */\n      gt\n        /* \"#utility.yul\":10882:10932   */\n      iszero\n      tag_377\n      jumpi\n        /* \"#utility.yul\":10928:10929   */\n      0x00\n        /* \"#utility.yul\":10925:10926   */\n      dup1\n        /* \"#utility.yul\":10918:10930   */\n      revert\n        /* \"#utility.yul\":10882:10932   */\n    tag_377:\n        /* \"#utility.yul\":10951:11001   */\n      tag_378\n        /* \"#utility.yul\":10993:11000   */\n      dup11\n        /* \"#utility.yul\":10984:10990   */\n      dup3\n        /* \"#utility.yul\":10973:10982   */\n      dup12\n        /* \"#utility.yul\":10969:10991   */\n      add\n        /* \"#utility.yul\":10951:11001   */\n      tag_271\n      jump\t// in\n    tag_378:\n        /* \"#utility.yul\":10941:11001   */\n      swap6\n      pop\n      pop\n        /* \"#utility.yul\":11054:11056   */\n      0x60\n        /* \"#utility.yul\":11043:11052   */\n      dup9\n        /* \"#utility.yul\":11039:11057   */\n      add\n        /* \"#utility.yul\":11026:11058   */\n      calldataload\n      sub(shl(0x40, 0x01), 0x01)\n        /* \"#utility.yul\":11073:11081   */\n      dup2\n        /* \"#utility.yul\":11070:11102   */\n      gt\n        /* \"#utility.yul\":11067:11119   */\n      iszero\n      tag_379\n      jumpi\n        /* \"#utility.yul\":11115:11116   */\n      0x00\n        /* \"#utility.yul\":11112:11113   */\n      dup1\n        /* \"#utility.yul\":11105:11117   */\n      revert\n        /* \"#utility.yul\":11067:11119   */\n    tag_379:\n        /* \"#utility.yul\":11138:11200   */\n      tag_380\n        /* \"#utility.yul\":11192:11199   */\n      dup11\n        /* \"#utility.yul\":11181:11189   */\n      dup3\n        /* \"#utility.yul\":11170:11179   */\n      dup12\n        /* \"#utility.yul\":11166:11190   */\n      add\n        /* \"#utility.yul\":11138:11200   */\n      tag_276\n      jump\t// in\n    tag_380:\n        /* \"#utility.yul\":11128:11200   */\n      swap5\n      pop\n      pop\n        /* \"#utility.yul\":11253:11256   */\n      0x80\n        /* \"#utility.yul\":11242:11251   */\n      dup9\n        /* \"#utility.yul\":11238:11257   */\n      add\n        /* \"#utility.yul\":11225:11258   */\n      calldataload\n      sub(shl(0x40, 0x01), 0x01)\n        /* \"#utility.yul\":11273:11281   */\n      dup2\n        /* \"#utility.yul\":11270:11302   */\n      gt\n        /* \"#utility.yul\":11267:11319   */\n      iszero\n      tag_381\n      jumpi\n        /* \"#utility.yul\":11315:11316   */\n      0x00\n        /* \"#utility.yul\":11312:11313   */\n      dup1\n        /* \"#utility.yul\":11305:11317   */\n      revert\n        /* \"#utility.yul\":11267:11319   */\n    tag_381:\n        /* \"#utility.yul\":11338:11390   */\n      tag_382\n        /* \"#utility.yul\":11382:11389   */\n      dup11\n        /* \"#utility.yul\":11371:11379   */\n      dup3\n        /* \"#utility.yul\":11360:11369   */\n      dup12\n        /* \"#utility.yul\":11356:11380   */\n      add\n        /* \"#utility.yul\":11338:11390   */\n      tag_271\n      jump\t// in\n    tag_382:\n        /* \"#utility.yul\":11328:11390   */\n      swap4\n      pop\n      pop\n        /* \"#utility.yul\":11443:11446   */\n      0xa0\n        /* \"#utility.yul\":11432:11441   */\n      dup9\n        /* \"#utility.yul\":11428:11447   */\n      add\n        /* \"#utility.yul\":11415:11448   */\n      calldataload\n      sub(shl(0x40, 0x01), 0x01)\n        /* \"#utility.yul\":11463:11471   */\n      dup2\n        /* \"#utility.yul\":11460:11492   */\n      gt\n        /* \"#utility.yul\":11457:11509   */\n      iszero\n      tag_318\n      jumpi\n        /* \"#utility.yul\":11505:11506   */\n      0x00\n        /* \"#utility.yul\":11502:11503   */\n      dup1\n        /* \"#utility.yul\":11495:11507   */\n      revert\n        /* \"#utility.yul\":11669:11903   */\n    tag_104:\n        /* \"#utility.yul\":11752:11758   */\n      0x00\n        /* \"#utility.yul\":11805:11807   */\n      0x60\n        /* \"#utility.yul\":11793:11802   */\n      dup3\n        /* \"#utility.yul\":11784:11791   */\n      dup5\n        /* \"#utility.yul\":11780:11803   */\n      sub\n        /* \"#utility.yul\":11776:11808   */\n      slt\n        /* \"#utility.yul\":11773:11825   */\n      iszero\n      tag_386\n      jumpi\n        /* \"#utility.yul\":11821:11822   */\n      0x00\n        /* \"#utility.yul\":11818:11819   */\n      dup1\n        /* \"#utility.yul\":11811:11823   */\n      revert\n        /* \"#utility.yul\":11773:11825   */\n    tag_386:\n        /* \"#utility.yul\":11844:11897   */\n      tag_368\n        /* \"#utility.yul\":11889:11896   */\n      dup4\n        /* \"#utility.yul\":11878:11887   */\n      dup4\n        /* \"#utility.yul\":11844:11897   */\n      tag_273\n      jump\t// in\n        /* \"#utility.yul\":11908:12308   */\n    tag_277:\n        /* \"#utility.yul\":11950:11953   */\n      0x00\n        /* \"#utility.yul\":11988:11993   */\n      dup2\n        /* \"#utility.yul\":11982:11994   */\n      mload\n        /* \"#utility.yul\":12015:12021   */\n      dup1\n        /* \"#utility.yul\":12010:12013   */\n      dup5\n        /* \"#utility.yul\":12003:12022   */\n      mstore\n        /* \"#utility.yul\":12040:12041   */\n      0x00\n        /* \"#utility.yul\":12050:12189   */\n    tag_389:\n        /* \"#utility.yul\":12064:12070   */\n      dup2\n        /* \"#utility.yul\":12061:12062   */\n      dup2\n        /* \"#utility.yul\":12058:12071   */\n      lt\n        /* \"#utility.yul\":12050:12189   */\n      iszero\n      tag_391\n      jumpi\n        /* \"#utility.yul\":12172:12176   */\n      0x20\n        /* \"#utility.yul\":12157:12170   */\n      dup2\n      dup6\n      add\n        /* \"#utility.yul\":12153:12177   */\n      dup2\n      add\n        /* \"#utility.yul\":12147:12178   */\n      mload\n        /* \"#utility.yul\":12127:12138   */\n      dup7\n      dup4\n      add\n        /* \"#utility.yul\":12123:12145   */\n      dup3\n      add\n        /* \"#utility.yul\":12116:12179   */\n      mstore\n        /* \"#utility.yul\":12079:12091   */\n      add\n        /* \"#utility.yul\":12050:12189   */\n      jump(tag_389)\n    tag_391:\n        /* \"#utility.yul\":12054:12057   */\n      pop\n        /* \"#utility.yul\":12234:12235   */\n      0x00\n        /* \"#utility.yul\":12227:12231   */\n      0x20\n        /* \"#utility.yul\":12218:12224   */\n      dup3\n        /* \"#utility.yul\":12213:12216   */\n      dup7\n        /* \"#utility.yul\":12209:12225   */\n      add\n        /* \"#utility.yul\":12205:12232   */\n      add\n        /* \"#utility.yul\":12198:12236   */\n      mstore\n        /* \"#utility.yul\":12297:12301   */\n      0x20\n        /* \"#utility.yul\":12290:12292   */\n      0x1f\n        /* \"#utility.yul\":12286:12293   */\n      not\n        /* \"#utility.yul\":12281:12283   */\n      0x1f\n        /* \"#utility.yul\":12273:12279   */\n      dup4\n        /* \"#utility.yul\":12269:12284   */\n      add\n        /* \"#utility.yul\":12265:12294   */\n      and\n        /* \"#utility.yul\":12260:12263   */\n      dup6\n        /* \"#utility.yul\":12256:12295   */\n      add\n        /* \"#utility.yul\":12252:12302   */\n      add\n        /* \"#utility.yul\":12245:12302   */\n      swap2\n      pop\n      pop\n        /* \"#utility.yul\":11908:12308   */\n      swap3\n      swap2\n      pop\n      pop\n      jump\t// out\n        /* \"#utility.yul\":12313:13123   */\n    tag_111:\n        /* \"#utility.yul\":12667:12670   */\n      0xa0\n        /* \"#utility.yul\":12656:12665   */\n      dup2\n        /* \"#utility.yul\":12649:12671   */\n      mstore\n        /* \"#utility.yul\":12708:12710   */\n      0x0a\n        /* \"#utility.yul\":12702:12705   */\n      0xa0\n        /* \"#utility.yul\":12691:12700   */\n      dup3\n        /* \"#utility.yul\":12687:12706   */\n      add\n        /* \"#utility.yul\":12680:12711   */\n      mstore\n      shl(0xb1, 0x21a922a0aa22afa527a1)\n        /* \"#utility.yul\":12742:12745   */\n      0xc0\n        /* \"#utility.yul\":12731:12740   */\n      dup3\n        /* \"#utility.yul\":12727:12746   */\n      add\n        /* \"#utility.yul\":12720:12761   */\n      mstore\n      sub(shl(0xa0, 0x01), 0x01)\n        /* \"#utility.yul\":12803:12809   */\n      dup6\n        /* \"#utility.yul\":12799:12854   */\n      and\n        /* \"#utility.yul\":12792:12796   */\n      0x20\n        /* \"#utility.yul\":12781:12790   */\n      dup3\n        /* \"#utility.yul\":12777:12797   */\n      add\n        /* \"#utility.yul\":12770:12855   */\n      mstore\n        /* \"#utility.yul\":12891:12894   */\n      0xe0\n        /* \"#utility.yul\":12886:12888   */\n      0x40\n        /* \"#utility.yul\":12875:12884   */\n      dup3\n        /* \"#utility.yul\":12871:12889   */\n      add\n        /* \"#utility.yul\":12864:12895   */\n      mstore\n        /* \"#utility.yul\":12630:12634   */\n      0x00\n        /* \"#utility.yul\":12918:12964   */\n      tag_393\n        /* \"#utility.yul\":12959:12962   */\n      0xe0\n        /* \"#utility.yul\":12948:12957   */\n      dup4\n        /* \"#utility.yul\":12944:12963   */\n      add\n        /* \"#utility.yul\":12936:12942   */\n      dup7\n        /* \"#utility.yul\":12918:12964   */\n      tag_277\n      jump\t// in\n    tag_393:\n        /* \"#utility.yul\":13012:13021   */\n      dup3\n        /* \"#utility.yul\":13004:13010   */\n      dup2\n        /* \"#utility.yul\":13000:13022   */\n      sub\n        /* \"#utility.yul\":12995:12997   */\n      0x60\n        /* \"#utility.yul\":12984:12993   */\n      dup5\n        /* \"#utility.yul\":12980:12998   */\n      add\n        /* \"#utility.yul\":12973:13023   */\n      mstore\n        /* \"#utility.yul\":13040:13073   */\n      tag_394\n        /* \"#utility.yul\":13066:13072   */\n      dup2\n        /* \"#utility.yul\":13058:13064   */\n      dup7\n        /* \"#utility.yul\":13040:13073   */\n      tag_277\n      jump\t// in\n    tag_394:\n        /* \"#utility.yul\":13032:13073   */\n      swap2\n      pop\n      pop\n        /* \"#utility.yul\":13110:13116   */\n      dup3\n        /* \"#utility.yul\":13104:13107   */\n      0x80\n        /* \"#utility.yul\":13093:13102   */\n      dup4\n        /* \"#utility.yul\":13089:13108   */\n      add\n        /* \"#utility.yul\":13082:13117   */\n      mstore\n        /* \"#utility.yul\":12313:13123   */\n      swap6\n      swap5\n      pop\n      pop\n      pop\n      pop\n      pop\n      jump\t// out\n        /* \"#utility.yul\":14449:14789   */\n    tag_146:\n        /* \"#utility.yul\":14626:14628   */\n      0x40\n        /* \"#utility.yul\":14615:14624   */\n      dup2\n        /* \"#utility.yul\":14608:14629   */\n      mstore\n        /* \"#utility.yul\":14589:14593   */\n      0x00\n        /* \"#utility.yul\":14646:14691   */\n      tag_400\n        /* \"#utility.yul\":14687:14689   */\n      0x40\n        /* \"#utility.yul\":14676:14685   */\n      dup4\n        /* \"#utility.yul\":14672:14690   */\n      add\n        /* \"#utility.yul\":14664:14670   */\n      dup6\n        /* \"#utility.yul\":14646:14691   */\n      tag_277\n      jump\t// in\n    tag_400:\n        /* \"#utility.yul\":14638:14691   */\n      swap1\n      pop\n      sub(shl(0xa0, 0x01), 0x01)\n        /* \"#utility.yul\":14731:14737   */\n      dup4\n        /* \"#utility.yul\":14727:14782   */\n      and\n        /* \"#utility.yul\":14722:14724   */\n      0x20\n        /* \"#utility.yul\":14711:14720   */\n      dup4\n        /* \"#utility.yul\":14707:14725   */\n      add\n        /* \"#utility.yul\":14700:14783   */\n      mstore\n        /* \"#utility.yul\":14449:14789   */\n      swap4\n      swap3\n      pop\n      pop\n      pop\n      jump\t// out\n        /* \"#utility.yul\":14794:16205   */\n    tag_158:\n        /* \"#utility.yul\":15218:15221   */\n      0xa0\n        /* \"#utility.yul\":15207:15216   */\n      dup2\n        /* \"#utility.yul\":15200:15222   */\n      mstore\n        /* \"#utility.yul\":15259:15261   */\n      0x0e\n        /* \"#utility.yul\":15253:15256   */\n      0xa0\n        /* \"#utility.yul\":15242:15251   */\n      dup3\n        /* \"#utility.yul\":15238:15257   */\n      add\n        /* \"#utility.yul\":15231:15262   */\n      mstore\n      shl(0x90, 0x4352454154455f50524f46494c45)\n        /* \"#utility.yul\":15293:15296   */\n      0xc0\n        /* \"#utility.yul\":15282:15291   */\n      dup3\n        /* \"#utility.yul\":15278:15297   */\n      add\n        /* \"#utility.yul\":15271:15316   */\n      mstore\n      sub(shl(0xa0, 0x01), 0x01)\n        /* \"#utility.yul\":15358:15364   */\n      dup6\n        /* \"#utility.yul\":15354:15409   */\n      and\n        /* \"#utility.yul\":15347:15351   */\n      0x20\n        /* \"#utility.yul\":15336:15345   */\n      dup3\n        /* \"#utility.yul\":15332:15352   */\n      add\n        /* \"#utility.yul\":15325:15410   */\n      mstore\n        /* \"#utility.yul\":15446:15449   */\n      0xe0\n        /* \"#utility.yul\":15441:15443   */\n      0x40\n        /* \"#utility.yul\":15430:15439   */\n      dup3\n        /* \"#utility.yul\":15426:15444   */\n      add\n        /* \"#utility.yul\":15419:15450   */\n      mstore\n        /* \"#utility.yul\":15181:15185   */\n      0x00\n        /* \"#utility.yul\":15473:15519   */\n      tag_402\n        /* \"#utility.yul\":15514:15517   */\n      0xe0\n        /* \"#utility.yul\":15503:15512   */\n      dup4\n        /* \"#utility.yul\":15499:15518   */\n      add\n        /* \"#utility.yul\":15491:15497   */\n      dup7\n        /* \"#utility.yul\":15473:15519   */\n      tag_277\n      jump\t// in\n    tag_402:\n        /* \"#utility.yul\":15567:15576   */\n      dup3\n        /* \"#utility.yul\":15559:15565   */\n      dup2\n        /* \"#utility.yul\":15555:15577   */\n      sub\n        /* \"#utility.yul\":15550:15552   */\n      0x60\n        /* \"#utility.yul\":15539:15548   */\n      dup5\n        /* \"#utility.yul\":15535:15553   */\n      add\n        /* \"#utility.yul\":15528:15578   */\n      mstore\n        /* \"#utility.yul\":15598:15604   */\n      dup1\n        /* \"#utility.yul\":15633:15639   */\n      dup6\n        /* \"#utility.yul\":15627:15640   */\n      mload\n        /* \"#utility.yul\":15664:15670   */\n      dup1\n        /* \"#utility.yul\":15656:15662   */\n      dup4\n        /* \"#utility.yul\":15649:15671   */\n      mstore\n        /* \"#utility.yul\":15699:15703   */\n      0x20\n        /* \"#utility.yul\":15691:15697   */\n      dup4\n        /* \"#utility.yul\":15687:15704   */\n      add\n        /* \"#utility.yul\":15680:15704   */\n      swap2\n      pop\n        /* \"#utility.yul\":15760:15764   */\n      0x20\n        /* \"#utility.yul\":15750:15756   */\n      dup2\n        /* \"#utility.yul\":15747:15748   */\n      0x05\n        /* \"#utility.yul\":15743:15757   */\n      shl\n        /* \"#utility.yul\":15735:15741   */\n      dup5\n        /* \"#utility.yul\":15731:15758   */\n      add\n        /* \"#utility.yul\":15727:15765   */\n      add\n        /* \"#utility.yul\":15800:15804   */\n      0x20\n        /* \"#utility.yul\":15792:15798   */\n      dup9\n        /* \"#utility.yul\":15788:15805   */\n      add\n        /* \"#utility.yul\":15823:15824   */\n      0x00\n        /* \"#utility.yul\":15833:16089   */\n    tag_403:\n        /* \"#utility.yul\":15847:15853   */\n      dup4\n        /* \"#utility.yul\":15844:15845   */\n      dup2\n        /* \"#utility.yul\":15841:15854   */\n      lt\n        /* \"#utility.yul\":15833:16089   */\n      iszero\n      tag_405\n      jumpi\n        /* \"#utility.yul\":15937:15939   */\n      0x1f\n        /* \"#utility.yul\":15933:15940   */\n      not\n        /* \"#utility.yul\":15924:15930   */\n      dup7\n        /* \"#utility.yul\":15916:15922   */\n      dup5\n        /* \"#utility.yul\":15912:15931   */\n      sub\n        /* \"#utility.yul\":15908:15941   */\n      add\n        /* \"#utility.yul\":15903:15906   */\n      dup6\n        /* \"#utility.yul\":15896:15942   */\n      mstore\n        /* \"#utility.yul\":15965:16005   */\n      tag_406\n        /* \"#utility.yul\":15998:16004   */\n      dup4\n        /* \"#utility.yul\":15989:15995   */\n      dup4\n        /* \"#utility.yul\":15983:15996   */\n      mload\n        /* \"#utility.yul\":15965:16005   */\n      tag_277\n      jump\t// in\n    tag_406:\n        /* \"#utility.yul\":16040:16044   */\n      0x20\n        /* \"#utility.yul\":16065:16079   */\n      swap6\n      dup7\n      add\n      swap6\n        /* \"#utility.yul\":15955:16005   */\n      swap1\n      swap4\n      pop\n        /* \"#utility.yul\":16028:16045   */\n      swap2\n      swap1\n      swap2\n      add\n      swap1\n        /* \"#utility.yul\":15869:15870   */\n      0x01\n        /* \"#utility.yul\":15862:15871   */\n      add\n        /* \"#utility.yul\":15833:16089   */\n      jump(tag_403)\n    tag_405:\n        /* \"#utility.yul\":15837:15840   */\n      pop\n      pop\n        /* \"#utility.yul\":16138:16147   */\n      dup6\n        /* \"#utility.yul\":16130:16136   */\n      dup2\n        /* \"#utility.yul\":16126:16148   */\n      sub\n        /* \"#utility.yul\":16120:16123   */\n      0x80\n        /* \"#utility.yul\":16109:16118   */\n      dup8\n        /* \"#utility.yul\":16105:16124   */\n      add\n        /* \"#utility.yul\":16098:16149   */\n      mstore\n        /* \"#utility.yul\":16166:16199   */\n      tag_407\n        /* \"#utility.yul\":16192:16198   */\n      dup2\n        /* \"#utility.yul\":16184:16190   */\n      dup9\n        /* \"#utility.yul\":16166:16199   */\n      tag_277\n      jump\t// in\n    tag_407:\n        /* \"#utility.yul\":16158:16199   */\n      swap11\n        /* \"#utility.yul\":14794:16205   */\n      swap10\n      pop\n      pop\n      pop\n      pop\n      pop\n      pop\n      pop\n      pop\n      pop\n      pop\n      jump\t// out\n        /* \"#utility.yul\":16910:17820   */\n    tag_204:\n        /* \"#utility.yul\":17129:17131   */\n      0x40\n        /* \"#utility.yul\":17118:17127   */\n      dup2\n        /* \"#utility.yul\":17111:17132   */\n      mstore\n        /* \"#utility.yul\":17187:17197   */\n      0xffffffff\n        /* \"#utility.yul\":17178:17184   */\n      dup4\n        /* \"#utility.yul\":17172:17185   */\n      mload\n        /* \"#utility.yul\":17168:17198   */\n      and\n        /* \"#utility.yul\":17163:17165   */\n      0x40\n        /* \"#utility.yul\":17152:17161   */\n      dup3\n        /* \"#utility.yul\":17148:17166   */\n      add\n        /* \"#utility.yul\":17141:17199   */\n      mstore\n        /* \"#utility.yul\":17253:17257   */\n      0x20\n        /* \"#utility.yul\":17245:17251   */\n      dup4\n        /* \"#utility.yul\":17241:17258   */\n      add\n        /* \"#utility.yul\":17235:17259   */\n      mload\n        /* \"#utility.yul\":17230:17232   */\n      0x60\n        /* \"#utility.yul\":17219:17228   */\n      dup3\n        /* \"#utility.yul\":17215:17233   */\n      add\n        /* \"#utility.yul\":17208:17260   */\n      mstore\n        /* \"#utility.yul\":17092:17096   */\n      0x00\n        /* \"#utility.yul\":17307:17309   */\n      0x40\n        /* \"#utility.yul\":17299:17305   */\n      dup5\n        /* \"#utility.yul\":17295:17310   */\n      add\n        /* \"#utility.yul\":17289:17311   */\n      mload\n        /* \"#utility.yul\":17348:17352   */\n      0xa0\n        /* \"#utility.yul\":17342:17345   */\n      0x80\n        /* \"#utility.yul\":17331:17340   */\n      dup5\n        /* \"#utility.yul\":17327:17346   */\n      add\n        /* \"#utility.yul\":17320:17353   */\n      mstore\n        /* \"#utility.yul\":17376:17428   */\n      tag_411\n        /* \"#utility.yul\":17423:17426   */\n      0xe0\n        /* \"#utility.yul\":17412:17421   */\n      dup5\n        /* \"#utility.yul\":17408:17427   */\n      add\n        /* \"#utility.yul\":17394:17406   */\n      dup3\n        /* \"#utility.yul\":17376:17428   */\n      tag_277\n      jump\t// in\n    tag_411:\n        /* \"#utility.yul\":17362:17428   */\n      swap1\n      pop\n        /* \"#utility.yul\":17477:17479   */\n      0x60\n        /* \"#utility.yul\":17469:17475   */\n      dup6\n        /* \"#utility.yul\":17465:17480   */\n      add\n        /* \"#utility.yul\":17459:17481   */\n      mload\n        /* \"#utility.yul\":17551:17553   */\n      0x3f\n        /* \"#utility.yul\":17547:17554   */\n      not\n        /* \"#utility.yul\":17535:17544   */\n      dup5\n        /* \"#utility.yul\":17527:17533   */\n      dup4\n        /* \"#utility.yul\":17523:17545   */\n      sub\n        /* \"#utility.yul\":17519:17555   */\n      add\n        /* \"#utility.yul\":17512:17516   */\n      0xa0\n        /* \"#utility.yul\":17501:17510   */\n      dup6\n        /* \"#utility.yul\":17497:17517   */\n      add\n        /* \"#utility.yul\":17490:17556   */\n      mstore\n        /* \"#utility.yul\":17579:17620   */\n      tag_412\n        /* \"#utility.yul\":17613:17619   */\n      dup3\n        /* \"#utility.yul\":17597:17611   */\n      dup3\n        /* \"#utility.yul\":17579:17620   */\n      tag_277\n      jump\t// in\n    tag_412:\n        /* \"#utility.yul\":17689:17692   */\n      0x80\n        /* \"#utility.yul\":17677:17693   */\n      swap7\n      swap1\n      swap7\n      add\n        /* \"#utility.yul\":17671:17694   */\n      mload\n        /* \"#utility.yul\":17664:17695   */\n      iszero\n        /* \"#utility.yul\":17657:17696   */\n      iszero\n        /* \"#utility.yul\":17651:17654   */\n      0xc0\n        /* \"#utility.yul\":17636:17655   */\n      dup6\n      add\n        /* \"#utility.yul\":17629:17697   */\n      mstore\n      pop\n      pop\n      pop\n      sub(shl(0xa0, 0x01), 0x01)\n        /* \"#utility.yul\":17758:17813   */\n      swap2\n      swap1\n      swap2\n      and\n        /* \"#utility.yul\":17751:17755   */\n      0x20\n        /* \"#utility.yul\":17736:17756   */\n      swap1\n      swap2\n      add\n        /* \"#utility.yul\":17729:17814   */\n      mstore\n        /* \"#utility.yul\":17565:17620   */\n      swap1\n        /* \"#utility.yul\":16910:17820   */\n      jump\t// out\n        /* \"#utility.yul\":17825:18427   */\n    tag_278:\n        /* \"#utility.yul\":17895:17900   */\n      0x00\n        /* \"#utility.yul\":17943:17947   */\n      0x40\n        /* \"#utility.yul\":17931:17940   */\n      dup3\n        /* \"#utility.yul\":17926:17929   */\n      dup5\n        /* \"#utility.yul\":17922:17941   */\n      sub\n        /* \"#utility.yul\":17918:17948   */\n      slt\n        /* \"#utility.yul\":17915:17965   */\n      iszero\n      tag_414\n      jumpi\n        /* \"#utility.yul\":17961:17962   */\n      0x00\n        /* \"#utility.yul\":17958:17959   */\n      dup1\n        /* \"#utility.yul\":17951:17963   */\n      revert\n        /* \"#utility.yul\":17915:17965   */\n    tag_414:\n        /* \"#utility.yul\":18014:18018   */\n      0x40\n        /* \"#utility.yul\":18008:18019   */\n      dup1\n      mload\n      swap1\n        /* \"#utility.yul\":18046:18063   */\n      dup2\n      add\n      sub(shl(0x40, 0x01), 0x01)\n        /* \"#utility.yul\":18078:18112   */\n      dup2\n      gt\n        /* \"#utility.yul\":18114:18136   */\n      dup3\n      dup3\n      lt\n        /* \"#utility.yul\":18075:18137   */\n      or\n        /* \"#utility.yul\":18072:18160   */\n      iszero\n      tag_416\n      jumpi\n        /* \"#utility.yul\":18140:18158   */\n      tag_416\n      tag_269\n      jump\t// in\n    tag_416:\n        /* \"#utility.yul\":18176:18180   */\n      0x40\n        /* \"#utility.yul\":18169:18193   */\n      mstore\n        /* \"#utility.yul\":18262:18278   */\n      dup3\n      mload\n        /* \"#utility.yul\":18287:18310   */\n      dup2\n      mstore\n        /* \"#utility.yul\":18376:18378   */\n      0x20\n        /* \"#utility.yul\":18361:18379   */\n      swap3\n      dup4\n      add\n        /* \"#utility.yul\":18355:18380   */\n      mload\n        /* \"#utility.yul\":18396:18411   */\n      swap3\n      dup2\n      add\n        /* \"#utility.yul\":18389:18421   */\n      swap3\n      swap1\n      swap3\n      mstore\n      pop\n        /* \"#utility.yul\":18211:18217   */\n      swap2\n        /* \"#utility.yul\":17825:18427   */\n      swap1\n      pop\n      jump\t// out\n        /* \"#utility.yul\":18432:18689   */\n    tag_208:\n        /* \"#utility.yul\":18530:18536   */\n      0x00\n        /* \"#utility.yul\":18583:18585   */\n      0x40\n        /* \"#utility.yul\":18571:18580   */\n      dup3\n        /* \"#utility.yul\":18562:18569   */\n      dup5\n        /* \"#utility.yul\":18558:18581   */\n      sub\n        /* \"#utility.yul\":18554:18586   */\n      slt\n        /* \"#utility.yul\":18551:18603   */\n      iszero\n      tag_418\n      jumpi\n        /* \"#utility.yul\":18599:18600   */\n      0x00\n        /* \"#utility.yul\":18596:18597   */\n      dup1\n        /* \"#utility.yul\":18589:18601   */\n      revert\n        /* \"#utility.yul\":18551:18603   */\n    tag_418:\n        /* \"#utility.yul\":18622:18683   */\n      tag_368\n        /* \"#utility.yul\":18675:18682   */\n      dup4\n        /* \"#utility.yul\":18664:18673   */\n      dup4\n        /* \"#utility.yul\":18622:18683   */\n      tag_278\n      jump\t// in\n        /* \"#utility.yul\":19251:20028   */\n    tag_231:\n        /* \"#utility.yul\":19353:19359   */\n      0x00\n        /* \"#utility.yul\":19413:19416   */\n      0x80\n        /* \"#utility.yul\":19401:19410   */\n      dup3\n        /* \"#utility.yul\":19392:19399   */\n      dup5\n        /* \"#utility.yul\":19388:19411   */\n      sub\n        /* \"#utility.yul\":19384:19417   */\n      slt\n        /* \"#utility.yul\":19429:19431   */\n      dup1\n        /* \"#utility.yul\":19426:19448   */\n      iszero\n      tag_423\n      jumpi\n        /* \"#utility.yul\":19444:19445   */\n      0x00\n        /* \"#utility.yul\":19441:19442   */\n      dup1\n        /* \"#utility.yul\":19434:19446   */\n      revert\n        /* \"#utility.yul\":19426:19448   */\n    tag_423:\n      pop\n        /* \"#utility.yul\":19513:19515   */\n      0x40\n        /* \"#utility.yul\":19507:19516   */\n      mload\n        /* \"#utility.yul\":19555:19559   */\n      0x60\n        /* \"#utility.yul\":19543:19560   */\n      dup2\n      add\n      sub(shl(0x40, 0x01), 0x01)\n        /* \"#utility.yul\":19575:19609   */\n      dup2\n      gt\n        /* \"#utility.yul\":19611:19633   */\n      dup3\n      dup3\n      lt\n        /* \"#utility.yul\":19572:19634   */\n      or\n        /* \"#utility.yul\":19569:19657   */\n      iszero\n      tag_425\n      jumpi\n        /* \"#utility.yul\":19637:19655   */\n      tag_425\n      tag_269\n      jump\t// in\n    tag_425:\n        /* \"#utility.yul\":19673:19675   */\n      0x40\n        /* \"#utility.yul\":19666:19688   */\n      mstore\n        /* \"#utility.yul\":19712:19728   */\n      dup3\n      mload\n        /* \"#utility.yul\":19697:19729   */\n      dup2\n      mstore\n        /* \"#utility.yul\":19772:19774   */\n      0x20\n        /* \"#utility.yul\":19757:19775   */\n      dup4\n      add\n        /* \"#utility.yul\":19751:19776   */\n      mload\n      sub(shl(0x40, 0x01), 0x01)\n        /* \"#utility.yul\":19805:19835   */\n      dup2\n      and\n        /* \"#utility.yul\":19795:19836   */\n      dup2\n      eq\n        /* \"#utility.yul\":19785:19854   */\n      tag_426\n      jumpi\n        /* \"#utility.yul\":19850:19851   */\n      0x00\n        /* \"#utility.yul\":19847:19848   */\n      dup1\n        /* \"#utility.yul\":19840:19852   */\n      revert\n        /* \"#utility.yul\":19785:19854   */\n    tag_426:\n        /* \"#utility.yul\":19882:19884   */\n      0x20\n        /* \"#utility.yul\":19870:19885   */\n      dup3\n      add\n        /* \"#utility.yul\":19863:19893   */\n      mstore\n        /* \"#utility.yul\":19926:19996   */\n      tag_427\n        /* \"#utility.yul\":19988:19995   */\n      dup5\n        /* \"#utility.yul\":19983:19985   */\n      0x40\n        /* \"#utility.yul\":19968:19986   */\n      dup6\n      add\n        /* \"#utility.yul\":19926:19996   */\n      tag_278\n      jump\t// in\n    tag_427:\n        /* \"#utility.yul\":19921:19923   */\n      0x40\n        /* \"#utility.yul\":19909:19924   */\n      dup3\n      add\n        /* \"#utility.yul\":19902:19997   */\n      mstore\n        /* \"#utility.yul\":19913:19919   */\n      swap4\n        /* \"#utility.yul\":19251:20028   */\n      swap3\n      pop\n      pop\n      pop\n      jump\t// out\n        /* \"#utility.yul\":20215:20466   */\n    tag_251:\n        /* \"#utility.yul\":20285:20291   */\n      0x00\n        /* \"#utility.yul\":20338:20340   */\n      0x20\n        /* \"#utility.yul\":20326:20335   */\n      dup3\n        /* \"#utility.yul\":20317:20324   */\n      dup5\n        /* \"#utility.yul\":20313:20336   */\n      sub\n        /* \"#utility.yul\":20309:20341   */\n      slt\n        /* \"#utility.yul\":20306:20358   */\n      iszero\n      tag_430\n      jumpi\n        /* \"#utility.yul\":20354:20355   */\n      0x00\n        /* \"#utility.yul\":20351:20352   */\n      dup1\n        /* \"#utility.yul\":20344:20356   */\n      revert\n        /* \"#utility.yul\":20306:20358   */\n    tag_430:\n        /* \"#utility.yul\":20386:20395   */\n      dup2\n        /* \"#utility.yul\":20380:20396   */\n      mload\n        /* \"#utility.yul\":20405:20436   */\n      tag_368\n        /* \"#utility.yul\":20430:20435   */\n      dup2\n        /* \"#utility.yul\":20405:20436   */\n      tag_274\n      jump\t// in\n\n    auxdata: 0xa2646970667358221220f1af010c73e115be436713d80e749fd1e35df718311371f388c9ec840231803564736f6c634300081c0033\n}\n",
				"bytecode": {
					"linkReferences": {},
					"object": "60a060405234801561001057600080fd5b50604051611b14380380611b1483398101604081905261002f91610177565b81818181338061005957604051631e4fbdf760e01b81526000600482015260240160405180910390fd5b6100628161010b565b506001600160a01b03808316608052811661009057604051632d618d8160e21b815260040160405180910390fd5b60805160405163ca5eb5e160e01b81526001600160a01b0383811660048301529091169063ca5eb5e190602401600060405180830381600087803b1580156100d757600080fd5b505af11580156100eb573d6000803e3d6000fd5b505060016002555061010494508593505061010b915050565b50506101aa565b600080546001600160a01b038381166001600160a01b0319831681178455604051919092169283917f8be0079c531659141344cd1fd0a4f28419497f9722a3daafe3b4186f6b6457e09190a35050565b80516001600160a01b038116811461017257600080fd5b919050565b6000806040838503121561018a57600080fd5b6101938361015b565b91506101a16020840161015b565b90509250929050565b6080516119256101ef600039600081816101bf015281816103fc0152818161073b01528181610a2b01528181610bc201528181610da50152610e5c01526119256000f3fe6080604052600436106100f75760003560e01c80637d25a05e1161008a578063ca5eb5e111610059578063ca5eb5e114610301578063ce99783314610321578063f2fde38b14610334578063ff7bd03d1461035457600080fd5b80637d25a05e1461022e57806382413eac146102695780638da5cb5b146102a8578063bb0b6a53146102c657600080fd5b80633400288b116100c65780633400288b1461018d5780635e280f11146101ad578063682d54e6146101f9578063715018a61461021957600080fd5b806308213dd61461010357806313137d651461014357806317442b70146101585780632bef96af1461017a57600080fd5b366100fe57005b600080fd5b34801561010f57600080fd5b5061012361011e3660046110a7565b610374565b604080518251815260209283015192810192909252015b60405180910390f35b610156610151366004611191565b6103fa565b005b34801561016457600080fd5b506040805160018152600260208201520161013a565b610156610188366004611232565b6104ab565b34801561019957600080fd5b506101566101a83660046112d8565b6106bd565b3480156101b957600080fd5b506101e17f000000000000000000000000000000000000000000000000000000000000000081565b6040516001600160a01b03909116815260200161013a565b34801561020557600080fd5b506101236102143660046113a8565b6106d3565b34801561022557600080fd5b50610156610700565b34801561023a57600080fd5b506102516102493660046112d8565b600092915050565b6040516001600160401b03909116815260200161013a565b34801561027557600080fd5b5061029861028436600461145d565b6001600160a01b0381163014949350505050565b604051901515815260200161013a565b3480156102b457600080fd5b506000546001600160a01b03166101e1565b3480156102d257600080fd5b506102f36102e13660046114c3565b60016020526000908152604090205481565b60405190815260200161013a565b34801561030d57600080fd5b5061015661031c3660046114e5565b610714565b61015661032f366004611502565b61079a565b34801561034057600080fd5b5061015661034f3660046114e5565b6109a1565b34801561036057600080fd5b5061029861036f3660046115c7565b6109df565b60408051808201909152600080825260208201526000338787876040516020016103a19493929190611629565b60408051601f198184030181526020601f870181900481028401810190925285835292506103ee918a91849190889088908190840183828082843760009201829052509250610a15915050565b98975050505050505050565b7f00000000000000000000000000000000000000000000000000000000000000006001600160a01b0316331461044a576040516391ac5e4f60e01b81523360048201526024015b60405180910390fd5b602087018035906104649061045f908a6114c3565b610af6565b146104a25761047660208801886114c3565b60405163309afaf360e21b815263ffffffff909116600482015260208801356024820152604401610441565b50505050505050565b6104b3610b38565b60008551116105045760405162461bcd60e51b815260206004820152601560248201527f5469746c652063616e6e6f7420626520656d70747900000000000000000000006044820152606401610441565b600083116105545760405162461bcd60e51b815260206004820152601d60248201527f427564676574206d7573742062652067726561746572207468616e20300000006044820152606401610441565b610567876001600160a01b0388166106bd565b6000338686866040516020016105809493929190611629565b60408051601f198184030181526020601f860181900481028401810190925284835292506000916105cf918b918591889088908190840183828082843760009201829052509250610a15915050565b80519091503410156106165760405162461bcd60e51b815260206004820152601060248201526f496e73756666696369656e742066656560801b6044820152606401610441565b61066e898386868080601f01602080910402602001604051908101604052809392919081815260200183838082843760009201829052506040805180820190915234815260208101919091529250339150610b8f9050565b5060008963ffffffff167f9d3921fa6202787a376e196a4db9f1f55f1ce7942d18c8146b1bd6e4deaef9e2898b6040516106a9929190611690565b60405180910390a350506104a26001600255565b6106c5610c9a565b6106cf8282610cc7565b5050565b60408051808201909152600080825260208201526000338787876040516020016103a194939291906116bb565b610708610c9a565b6107126000610d1c565b565b61071c610c9a565b60405163ca5eb5e160e01b81526001600160a01b0382811660048301527f0000000000000000000000000000000000000000000000000000000000000000169063ca5eb5e190602401600060405180830381600087803b15801561077f57600080fd5b505af1158015610793573d6000803e3d6000fd5b5050505050565b6107a2610b38565b60008551116107f35760405162461bcd60e51b815260206004820152601460248201527f4e616d652063616e6e6f7420626520656d7074790000000000000000000000006044820152606401610441565b60008451116108445760405162461bcd60e51b815260206004820152601660248201527f536b696c6c732063616e6e6f7420626520656d707479000000000000000000006044820152606401610441565b610857876001600160a01b0388166106bd565b60003386868660405160200161087094939291906116bb565b60408051601f198184030181526020601f860181900481028401810190925284835292506000916108bf918b918591889088908190840183828082843760009201829052509250610a15915050565b80519091503410156109065760405162461bcd60e51b815260206004820152601060248201526f496e73756666696369656e742066656560801b6044820152606401610441565b61095e898386868080601f01602080910402602001604051908101604052809392919081815260200183838082843760009201829052506040805180820190915234815260208101919091529250339150610b8f9050565b50336001600160a01b03168963ffffffff167f55c2a5400eee8cf3bf6249454b995adb48669c3a785cc20c61735e7aea4171aa898b6040516106a9929190611690565b6109a9610c9a565b6001600160a01b0381166109d357604051631e4fbdf760e01b815260006004820152602401610441565b6109dc81610d1c565b50565b60006020820180359060019083906109f790866114c3565b63ffffffff1681526020810191909152604001600020541492915050565b60408051808201909152600080825260208201527f00000000000000000000000000000000000000000000000000000000000000006001600160a01b031663ddc28c586040518060a001604052808863ffffffff168152602001610a7889610af6565b8152602001878152602001868152602001851515815250306040518363ffffffff1660e01b8152600401610aad92919061177a565b6040805180830381865afa158015610ac9573d6000803e3d6000fd5b505050506040513d601f19601f82011682018060405250810190610aed9190611841565b95945050505050565b63ffffffff811660009081526001602052604081205480610b325760405163f6ff4fb760e01b815263ffffffff84166004820152602401610441565b92915050565b6002805403610b895760405162461bcd60e51b815260206004820152601f60248201527f5265656e7472616e637947756172643a207265656e7472616e742063616c6c006044820152606401610441565b60028055565b610b97610f4a565b6000610ba68460000151610d79565b602085015190915015610bc057610bc08460200151610da1565b7f00000000000000000000000000000000000000000000000000000000000000006001600160a01b0316632637a450826040518060a001604052808b63ffffffff168152602001610c108c610af6565b81526020018a815260200189815260200160008960200151111515815250866040518463ffffffff1660e01b8152600401610c4c92919061177a565b60806040518083038185885af1158015610c6a573d6000803e3d6000fd5b50505050506040513d601f19601f82011682018060405250810190610c8f919061185d565b979650505050505050565b6000546001600160a01b031633146107125760405163118cdaa760e01b8152336004820152602401610441565b63ffffffff8216600081815260016020908152604091829020849055815192835282018390527f238399d427b947898edb290f5ff0f9109849b1c3ba196a42e35f00c50a54b98b910160405180910390a15050565b600080546001600160a01b0383811673ffffffffffffffffffffffffffffffffffffffff19831681178455604051919092169283917f8be0079c531659141344cd1fd0a4f28419497f9722a3daafe3b4186f6b6457e09190a35050565b6000813414610d9d576040516304fb820960e51b8152346004820152602401610441565b5090565b60007f00000000000000000000000000000000000000000000000000000000000000006001600160a01b031663e4fe1d946040518163ffffffff1660e01b8152600401602060405180830381865afa158015610e01573d6000803e3d6000fd5b505050506040513d601f19601f82011682018060405250810190610e2591906118d2565b90506001600160a01b038116610e4e576040516329b99a9560e11b815260040160405180910390fd5b6040805133602482018190527f00000000000000000000000000000000000000000000000000000000000000006001600160a01b03818116604485015260648085018890528551808603909101815260849094019094526020830180516001600160e01b03166323b872dd60e01b1790526106cf938516928690610ed3908590610ed9565b50505050565b600080602060008451602086016000885af180610efc576040513d6000823e3d81fd5b50506000513d91508115610f14578060011415610f21565b6001600160a01b0384163b155b15610ed357604051635274afe760e01b81526001600160a01b0385166004820152602401610441565b60405180606001604052806000801916815260200160006001600160401b03168152602001610f8c604051806040016040528060008152602001600081525090565b905290565b803563ffffffff81168114610fa557600080fd5b919050565b634e487b7160e01b600052604160045260246000fd5b604051601f8201601f191681016001600160401b0381118282101715610fe857610fe8610faa565b604052919050565b600082601f83011261100157600080fd5b81356001600160401b0381111561101a5761101a610faa565b61102d601f8201601f1916602001610fc0565b81815284602083860101111561104257600080fd5b816020850160208301376000918101602001919091529392505050565b60008083601f84011261107157600080fd5b5081356001600160401b0381111561108857600080fd5b6020830191508360208285010111156110a057600080fd5b9250929050565b60008060008060008060a087890312156110c057600080fd5b6110c987610f91565b955060208701356001600160401b038111156110e457600080fd5b6110f089828a01610ff0565b95505060408701356001600160401b0381111561110c57600080fd5b61111889828a01610ff0565b9450506060870135925060808701356001600160401b0381111561113b57600080fd5b61114789828a0161105f565b979a9699509497509295939492505050565b60006060828403121561116b57600080fd5b50919050565b6001600160a01b03811681146109dc57600080fd5b8035610fa581611171565b600080600080600080600060e0888a0312156111ac57600080fd5b6111b68989611159565b96506060880135955060808801356001600160401b038111156111d857600080fd5b6111e48a828b0161105f565b90965094505060a08801356111f881611171565b925060c08801356001600160401b0381111561121357600080fd5b61121f8a828b0161105f565b989b979a50959850939692959293505050565b600080600080600080600060c0888a03121561124d57600080fd5b61125688610f91565b9650602088013561126681611171565b955060408801356001600160401b0381111561128157600080fd5b61128d8a828b01610ff0565b95505060608801356001600160401b038111156112a957600080fd5b6112b58a828b01610ff0565b9450506080880135925060a08801356001600160401b0381111561121357600080fd5b600080604083850312156112eb57600080fd5b6112f483610f91565b946020939093013593505050565b600082601f83011261131357600080fd5b81356001600160401b0381111561132c5761132c610faa565b8060051b61133c60208201610fc0565b9182526020818501810192908101908684111561135857600080fd5b6020860192505b8383101561139e5782356001600160401b0381111561137d57600080fd5b61138c886020838a0101610ff0565b8352506020928301929091019061135f565b9695505050505050565b60008060008060008060a087890312156113c157600080fd5b6113ca87610f91565b955060208701356001600160401b038111156113e557600080fd5b6113f189828a01610ff0565b95505060408701356001600160401b0381111561140d57600080fd5b61141989828a01611302565b94505060608701356001600160401b0381111561143557600080fd5b61144189828a01610ff0565b93505060808701356001600160401b0381111561113b57600080fd5b60008060008060a0858703121561147357600080fd5b61147d8686611159565b935060608501356001600160401b0381111561149857600080fd5b6114a48782880161105f565b90945092505060808501356114b881611171565b939692955090935050565b6000602082840312156114d557600080fd5b6114de82610f91565b9392505050565b6000602082840312156114f757600080fd5b81356114de81611171565b600080600080600080600060c0888a03121561151d57600080fd5b61152688610f91565b965061153460208901611186565b955060408801356001600160401b0381111561154f57600080fd5b61155b8a828b01610ff0565b95505060608801356001600160401b0381111561157757600080fd5b6115838a828b01611302565b94505060808801356001600160401b0381111561159f57600080fd5b6115ab8a828b01610ff0565b93505060a08801356001600160401b0381111561121357600080fd5b6000606082840312156115d957600080fd5b6114de8383611159565b6000815180845260005b81811015611609576020818501810151868301820152016115ed565b506000602082860101526020601f19601f83011685010191505092915050565b60a08152600a60a08201526921a922a0aa22afa527a160b11b60c08201526001600160a01b038516602082015260e06040820152600061166c60e08301866115e3565b828103606084015261167e81866115e3565b91505082608083015295945050505050565b6040815260006116a360408301856115e3565b90506001600160a01b03831660208301529392505050565b60a08152600e60a08201526d4352454154455f50524f46494c4560901b60c08201526001600160a01b038516602082015260e06040820152600061170260e08301866115e3565b828103606084015280855180835260208301915060208160051b8401016020880160005b8381101561175857601f198684030185526117428383516115e3565b6020958601959093509190910190600101611726565b5050858103608087015261176c81886115e3565b9a9950505050505050505050565b6040815263ffffffff8351166040820152602083015160608201526000604084015160a060808401526117b060e08401826115e3565b90506060850151603f198483030160a08501526117cd82826115e3565b60809690960151151560c08501525050506001600160a01b039190911660209091015290565b60006040828403121561180557600080fd5b604080519081016001600160401b038111828210171561182757611827610faa565b604052825181526020928301519281019290925250919050565b60006040828403121561185357600080fd5b6114de83836117f3565b6000608082840312801561187057600080fd5b50604051606081016001600160401b038111828210171561189357611893610faa565b6040528251815260208301516001600160401b03811681146118b457600080fd5b60208201526118c684604085016117f3565b60408201529392505050565b6000602082840312156118e457600080fd5b81516114de8161117156fea2646970667358221220f1af010c73e115be436713d80e749fd1e35df718311371f388c9ec840231803564736f6c634300081c0033",
					"opcodes": "PUSH1 0xA0 PUSH1 0x40 MSTORE CALLVALUE DUP1 ISZERO PUSH2 0x10 JUMPI PUSH1 0x0 DUP1 REVERT JUMPDEST POP PUSH1 0x40 MLOAD PUSH2 0x1B14 CODESIZE SUB DUP1 PUSH2 0x1B14 DUP4 CODECOPY DUP2 ADD PUSH1 0x40 DUP2 SWAP1 MSTORE PUSH2 0x2F SWAP2 PUSH2 0x177 JUMP JUMPDEST DUP2 DUP2 DUP2 DUP2 CALLER DUP1 PUSH2 0x59 JUMPI PUSH1 0x40 MLOAD PUSH4 0x1E4FBDF7 PUSH1 0xE0 SHL DUP2 MSTORE PUSH1 0x0 PUSH1 0x4 DUP3 ADD MSTORE PUSH1 0x24 ADD PUSH1 0x40 MLOAD DUP1 SWAP2 SUB SWAP1 REVERT JUMPDEST PUSH2 0x62 DUP2 PUSH2 0x10B JUMP JUMPDEST POP PUSH1 0x1 PUSH1 0x1 PUSH1 0xA0 SHL SUB DUP1 DUP4 AND PUSH1 0x80 MSTORE DUP2 AND PUSH2 0x90 JUMPI PUSH1 0x40 MLOAD PUSH4 0x2D618D81 PUSH1 0xE2 SHL DUP2 MSTORE PUSH1 0x4 ADD PUSH1 0x40 MLOAD DUP1 SWAP2 SUB SWAP1 REVERT JUMPDEST PUSH1 0x80 MLOAD PUSH1 0x40 MLOAD PUSH4 0xCA5EB5E1 PUSH1 0xE0 SHL DUP2 MSTORE PUSH1 0x1 PUSH1 0x1 PUSH1 0xA0 SHL SUB DUP4 DUP2 AND PUSH1 0x4 DUP4 ADD MSTORE SWAP1 SWAP2 AND SWAP1 PUSH4 0xCA5EB5E1 SWAP1 PUSH1 0x24 ADD PUSH1 0x0 PUSH1 0x40 MLOAD DUP1 DUP4 SUB DUP2 PUSH1 0x0 DUP8 DUP1 EXTCODESIZE ISZERO DUP1 ISZERO PUSH2 0xD7 JUMPI PUSH1 0x0 DUP1 REVERT JUMPDEST POP GAS CALL ISZERO DUP1 ISZERO PUSH2 0xEB JUMPI RETURNDATASIZE PUSH1 0x0 DUP1 RETURNDATACOPY RETURNDATASIZE PUSH1 0x0 REVERT JUMPDEST POP POP PUSH1 0x1 PUSH1 0x2 SSTORE POP PUSH2 0x104 SWAP5 POP DUP6 SWAP4 POP POP PUSH2 0x10B SWAP2 POP POP JUMP JUMPDEST POP POP PUSH2 0x1AA JUMP JUMPDEST PUSH1 0x0 DUP1 SLOAD PUSH1 0x1 PUSH1 0x1 PUSH1 0xA0 SHL SUB DUP4 DUP2 AND PUSH1 0x1 PUSH1 0x1 PUSH1 0xA0 SHL SUB NOT DUP4 AND DUP2 OR DUP5 SSTORE PUSH1 0x40 MLOAD SWAP2 SWAP1 SWAP3 AND SWAP3 DUP4 SWAP2 PUSH32 0x8BE0079C531659141344CD1FD0A4F28419497F9722A3DAAFE3B4186F6B6457E0 SWAP2 SWAP1 LOG3 POP POP JUMP JUMPDEST DUP1 MLOAD PUSH1 0x1 PUSH1 0x1 PUSH1 0xA0 SHL SUB DUP2 AND DUP2 EQ PUSH2 0x172 JUMPI PUSH1 0x0 DUP1 REVERT JUMPDEST SWAP2 SWAP1 POP JUMP JUMPDEST PUSH1 0x0 DUP1 PUSH1 0x40 DUP4 DUP6 SUB SLT ISZERO PUSH2 0x18A JUMPI PUSH1 0x0 DUP1 REVERT JUMPDEST PUSH2 0x193 DUP4 PUSH2 0x15B JUMP JUMPDEST SWAP2 POP PUSH2 0x1A1 PUSH1 0x20 DUP5 ADD PUSH2 0x15B JUMP JUMPDEST SWAP1 POP SWAP3 POP SWAP3 SWAP1 POP JUMP JUMPDEST PUSH1 0x80 MLOAD PUSH2 0x1925 PUSH2 0x1EF PUSH1 0x0 CODECOPY PUSH1 0x0 DUP2 DUP2 PUSH2 0x1BF ADD MSTORE DUP2 DUP2 PUSH2 0x3FC ADD MSTORE DUP2 DUP2 PUSH2 0x73B ADD MSTORE DUP2 DUP2 PUSH2 0xA2B ADD MSTORE DUP2 DUP2 PUSH2 0xBC2 ADD MSTORE DUP2 DUP2 PUSH2 0xDA5 ADD MSTORE PUSH2 0xE5C ADD MSTORE PUSH2 0x1925 PUSH1 0x0 RETURN INVALID PUSH1 0x80 PUSH1 0x40 MSTORE PUSH1 0x4 CALLDATASIZE LT PUSH2 0xF7 JUMPI PUSH1 0x0 CALLDATALOAD PUSH1 0xE0 SHR DUP1 PUSH4 0x7D25A05E GT PUSH2 0x8A JUMPI DUP1 PUSH4 0xCA5EB5E1 GT PUSH2 0x59 JUMPI DUP1 PUSH4 0xCA5EB5E1 EQ PUSH2 0x301 JUMPI DUP1 PUSH4 0xCE997833 EQ PUSH2 0x321 JUMPI DUP1 PUSH4 0xF2FDE38B EQ PUSH2 0x334 JUMPI DUP1 PUSH4 0xFF7BD03D EQ PUSH2 0x354 JUMPI PUSH1 0x0 DUP1 REVERT JUMPDEST DUP1 PUSH4 0x7D25A05E EQ PUSH2 0x22E JUMPI DUP1 PUSH4 0x82413EAC EQ PUSH2 0x269 JUMPI DUP1 PUSH4 0x8DA5CB5B EQ PUSH2 0x2A8 JUMPI DUP1 PUSH4 0xBB0B6A53 EQ PUSH2 0x2C6 JUMPI PUSH1 0x0 DUP1 REVERT JUMPDEST DUP1 PUSH4 0x3400288B GT PUSH2 0xC6 JUMPI DUP1 PUSH4 0x3400288B EQ PUSH2 0x18D JUMPI DUP1 PUSH4 0x5E280F11 EQ PUSH2 0x1AD JUMPI DUP1 PUSH4 0x682D54E6 EQ PUSH2 0x1F9 JUMPI DUP1 PUSH4 0x715018A6 EQ PUSH2 0x219 JUMPI PUSH1 0x0 DUP1 REVERT JUMPDEST DUP1 PUSH4 0x8213DD6 EQ PUSH2 0x103 JUMPI DUP1 PUSH4 0x13137D65 EQ PUSH2 0x143 JUMPI DUP1 PUSH4 0x17442B70 EQ PUSH2 0x158 JUMPI DUP1 PUSH4 0x2BEF96AF EQ PUSH2 0x17A JUMPI PUSH1 0x0 DUP1 REVERT JUMPDEST CALLDATASIZE PUSH2 0xFE JUMPI STOP JUMPDEST PUSH1 0x0 DUP1 REVERT JUMPDEST CALLVALUE DUP1 ISZERO PUSH2 0x10F JUMPI PUSH1 0x0 DUP1 REVERT JUMPDEST POP PUSH2 0x123 PUSH2 0x11E CALLDATASIZE PUSH1 0x4 PUSH2 0x10A7 JUMP JUMPDEST PUSH2 0x374 JUMP JUMPDEST PUSH1 0x40 DUP1 MLOAD DUP3 MLOAD DUP2 MSTORE PUSH1 0x20 SWAP3 DUP4 ADD MLOAD SWAP3 DUP2 ADD SWAP3 SWAP1 SWAP3 MSTORE ADD JUMPDEST PUSH1 0x40 MLOAD DUP1 SWAP2 SUB SWAP1 RETURN JUMPDEST PUSH2 0x156 PUSH2 0x151 CALLDATASIZE PUSH1 0x4 PUSH2 0x1191 JUMP JUMPDEST PUSH2 0x3FA JUMP JUMPDEST STOP JUMPDEST CALLVALUE DUP1 ISZERO PUSH2 0x164 JUMPI PUSH1 0x0 DUP1 REVERT JUMPDEST POP PUSH1 0x40 DUP1 MLOAD PUSH1 0x1 DUP2 MSTORE PUSH1 0x2 PUSH1 0x20 DUP3 ADD MSTORE ADD PUSH2 0x13A JUMP JUMPDEST PUSH2 0x156 PUSH2 0x188 CALLDATASIZE PUSH1 0x4 PUSH2 0x1232 JUMP JUMPDEST PUSH2 0x4AB JUMP JUMPDEST CALLVALUE DUP1 ISZERO PUSH2 0x199 JUMPI PUSH1 0x0 DUP1 REVERT JUMPDEST POP PUSH2 0x156 PUSH2 0x1A8 CALLDATASIZE PUSH1 0x4 PUSH2 0x12D8 JUMP JUMPDEST PUSH2 0x6BD JUMP JUMPDEST CALLVALUE DUP1 ISZERO PUSH2 0x1B9 JUMPI PUSH1 0x0 DUP1 REVERT JUMPDEST POP PUSH2 0x1E1 PUSH32 0x0 DUP2 JUMP JUMPDEST PUSH1 0x40 MLOAD PUSH1 0x1 PUSH1 0x1 PUSH1 0xA0 SHL SUB SWAP1 SWAP2 AND DUP2 MSTORE PUSH1 0x20 ADD PUSH2 0x13A JUMP JUMPDEST CALLVALUE DUP1 ISZERO PUSH2 0x205 JUMPI PUSH1 0x0 DUP1 REVERT JUMPDEST POP PUSH2 0x123 PUSH2 0x214 CALLDATASIZE PUSH1 0x4 PUSH2 0x13A8 JUMP JUMPDEST PUSH2 0x6D3 JUMP JUMPDEST CALLVALUE DUP1 ISZERO PUSH2 0x225 JUMPI PUSH1 0x0 DUP1 REVERT JUMPDEST POP PUSH2 0x156 PUSH2 0x700 JUMP JUMPDEST CALLVALUE DUP1 ISZERO PUSH2 0x23A JUMPI PUSH1 0x0 DUP1 REVERT JUMPDEST POP PUSH2 0x251 PUSH2 0x249 CALLDATASIZE PUSH1 0x4 PUSH2 0x12D8 JUMP JUMPDEST PUSH1 0x0 SWAP3 SWAP2 POP POP JUMP JUMPDEST PUSH1 0x40 MLOAD PUSH1 0x1 PUSH1 0x1 PUSH1 0x40 SHL SUB SWAP1 SWAP2 AND DUP2 MSTORE PUSH1 0x20 ADD PUSH2 0x13A JUMP JUMPDEST CALLVALUE DUP1 ISZERO PUSH2 0x275 JUMPI PUSH1 0x0 DUP1 REVERT JUMPDEST POP PUSH2 0x298 PUSH2 0x284 CALLDATASIZE PUSH1 0x4 PUSH2 0x145D JUMP JUMPDEST PUSH1 0x1 PUSH1 0x1 PUSH1 0xA0 SHL SUB DUP2 AND ADDRESS EQ SWAP5 SWAP4 POP POP POP POP JUMP JUMPDEST PUSH1 0x40 MLOAD SWAP1 ISZERO ISZERO DUP2 MSTORE PUSH1 0x20 ADD PUSH2 0x13A JUMP JUMPDEST CALLVALUE DUP1 ISZERO PUSH2 0x2B4 JUMPI PUSH1 0x0 DUP1 REVERT JUMPDEST POP PUSH1 0x0 SLOAD PUSH1 0x1 PUSH1 0x1 PUSH1 0xA0 SHL SUB AND PUSH2 0x1E1 JUMP JUMPDEST CALLVALUE DUP1 ISZERO PUSH2 0x2D2 JUMPI PUSH1 0x0 DUP1 REVERT JUMPDEST POP PUSH2 0x2F3 PUSH2 0x2E1 CALLDATASIZE PUSH1 0x4 PUSH2 0x14C3 JUMP JUMPDEST PUSH1 0x1 PUSH1 0x20 MSTORE PUSH1 0x0 SWAP1 DUP2 MSTORE PUSH1 0x40 SWAP1 KECCAK256 SLOAD DUP2 JUMP JUMPDEST PUSH1 0x40 MLOAD SWAP1 DUP2 MSTORE PUSH1 0x20 ADD PUSH2 0x13A JUMP JUMPDEST CALLVALUE DUP1 ISZERO PUSH2 0x30D JUMPI PUSH1 0x0 DUP1 REVERT JUMPDEST POP PUSH2 0x156 PUSH2 0x31C CALLDATASIZE PUSH1 0x4 PUSH2 0x14E5 JUMP JUMPDEST PUSH2 0x714 JUMP JUMPDEST PUSH2 0x156 PUSH2 0x32F CALLDATASIZE PUSH1 0x4 PUSH2 0x1502 JUMP JUMPDEST PUSH2 0x79A JUMP JUMPDEST CALLVALUE DUP1 ISZERO PUSH2 0x340 JUMPI PUSH1 0x0 DUP1 REVERT JUMPDEST POP PUSH2 0x156 PUSH2 0x34F CALLDATASIZE PUSH1 0x4 PUSH2 0x14E5 JUMP JUMPDEST PUSH2 0x9A1 JUMP JUMPDEST CALLVALUE DUP1 ISZERO PUSH2 0x360 JUMPI PUSH1 0x0 DUP1 REVERT JUMPDEST POP PUSH2 0x298 PUSH2 0x36F CALLDATASIZE PUSH1 0x4 PUSH2 0x15C7 JUMP JUMPDEST PUSH2 0x9DF JUMP JUMPDEST PUSH1 0x40 DUP1 MLOAD DUP1 DUP3 ADD SWAP1 SWAP2 MSTORE PUSH1 0x0 DUP1 DUP3 MSTORE PUSH1 0x20 DUP3 ADD MSTORE PUSH1 0x0 CALLER DUP8 DUP8 DUP8 PUSH1 0x40 MLOAD PUSH1 0x20 ADD PUSH2 0x3A1 SWAP5 SWAP4 SWAP3 SWAP2 SWAP1 PUSH2 0x1629 JUMP JUMPDEST PUSH1 0x40 DUP1 MLOAD PUSH1 0x1F NOT DUP2 DUP5 SUB ADD DUP2 MSTORE PUSH1 0x20 PUSH1 0x1F DUP8 ADD DUP2 SWAP1 DIV DUP2 MUL DUP5 ADD DUP2 ADD SWAP1 SWAP3 MSTORE DUP6 DUP4 MSTORE SWAP3 POP PUSH2 0x3EE SWAP2 DUP11 SWAP2 DUP5 SWAP2 SWAP1 DUP9 SWAP1 DUP9 SWAP1 DUP2 SWAP1 DUP5 ADD DUP4 DUP3 DUP1 DUP3 DUP5 CALLDATACOPY PUSH1 0x0 SWAP3 ADD DUP3 SWAP1 MSTORE POP SWAP3 POP PUSH2 0xA15 SWAP2 POP POP JUMP JUMPDEST SWAP9 SWAP8 POP POP POP POP POP POP POP POP JUMP JUMPDEST PUSH32 0x0 PUSH1 0x1 PUSH1 0x1 PUSH1 0xA0 SHL SUB AND CALLER EQ PUSH2 0x44A JUMPI PUSH1 0x40 MLOAD PUSH4 0x91AC5E4F PUSH1 0xE0 SHL DUP2 MSTORE CALLER PUSH1 0x4 DUP3 ADD MSTORE PUSH1 0x24 ADD JUMPDEST PUSH1 0x40 MLOAD DUP1 SWAP2 SUB SWAP1 REVERT JUMPDEST PUSH1 0x20 DUP8 ADD DUP1 CALLDATALOAD SWAP1 PUSH2 0x464 SWAP1 PUSH2 0x45F SWAP1 DUP11 PUSH2 0x14C3 JUMP JUMPDEST PUSH2 0xAF6 JUMP JUMPDEST EQ PUSH2 0x4A2 JUMPI PUSH2 0x476 PUSH1 0x20 DUP9 ADD DUP9 PUSH2 0x14C3 JUMP JUMPDEST PUSH1 0x40 MLOAD PUSH4 0x309AFAF3 PUSH1 0xE2 SHL DUP2 MSTORE PUSH4 0xFFFFFFFF SWAP1 SWAP2 AND PUSH1 0x4 DUP3 ADD MSTORE PUSH1 0x20 DUP9 ADD CALLDATALOAD PUSH1 0x24 DUP3 ADD MSTORE PUSH1 0x44 ADD PUSH2 0x441 JUMP JUMPDEST POP POP POP POP POP POP POP JUMP JUMPDEST PUSH2 0x4B3 PUSH2 0xB38 JUMP JUMPDEST PUSH1 0x0 DUP6 MLOAD GT PUSH2 0x504 JUMPI PUSH1 0x40 MLOAD PUSH3 0x461BCD PUSH1 0xE5 SHL DUP2 MSTORE PUSH1 0x20 PUSH1 0x4 DUP3 ADD MSTORE PUSH1 0x15 PUSH1 0x24 DUP3 ADD MSTORE PUSH32 0x5469746C652063616E6E6F7420626520656D7074790000000000000000000000 PUSH1 0x44 DUP3 ADD MSTORE PUSH1 0x64 ADD PUSH2 0x441 JUMP JUMPDEST PUSH1 0x0 DUP4 GT PUSH2 0x554 JUMPI PUSH1 0x40 MLOAD PUSH3 0x461BCD PUSH1 0xE5 SHL DUP2 MSTORE PUSH1 0x20 PUSH1 0x4 DUP3 ADD MSTORE PUSH1 0x1D PUSH1 0x24 DUP3 ADD MSTORE PUSH32 0x427564676574206D7573742062652067726561746572207468616E2030000000 PUSH1 0x44 DUP3 ADD MSTORE PUSH1 0x64 ADD PUSH2 0x441 JUMP JUMPDEST PUSH2 0x567 DUP8 PUSH1 0x1 PUSH1 0x1 PUSH1 0xA0 SHL SUB DUP9 AND PUSH2 0x6BD JUMP JUMPDEST PUSH1 0x0 CALLER DUP7 DUP7 DUP7 PUSH1 0x40 MLOAD PUSH1 0x20 ADD PUSH2 0x580 SWAP5 SWAP4 SWAP3 SWAP2 SWAP1 PUSH2 0x1629 JUMP JUMPDEST PUSH1 0x40 DUP1 MLOAD PUSH1 0x1F NOT DUP2 DUP5 SUB ADD DUP2 MSTORE PUSH1 0x20 PUSH1 0x1F DUP7 ADD DUP2 SWAP1 DIV DUP2 MUL DUP5 ADD DUP2 ADD SWAP1 SWAP3 MSTORE DUP5 DUP4 MSTORE SWAP3 POP PUSH1 0x0 SWAP2 PUSH2 0x5CF SWAP2 DUP12 SWAP2 DUP6 SWAP2 DUP9 SWAP1 DUP9 SWAP1 DUP2 SWAP1 DUP5 ADD DUP4 DUP3 DUP1 DUP3 DUP5 CALLDATACOPY PUSH1 0x0 SWAP3 ADD DUP3 SWAP1 MSTORE POP SWAP3 POP PUSH2 0xA15 SWAP2 POP POP JUMP JUMPDEST DUP1 MLOAD SWAP1 SWAP2 POP CALLVALUE LT ISZERO PUSH2 0x616 JUMPI PUSH1 0x40 MLOAD PUSH3 0x461BCD PUSH1 0xE5 SHL DUP2 MSTORE PUSH1 0x20 PUSH1 0x4 DUP3 ADD MSTORE PUSH1 0x10 PUSH1 0x24 DUP3 ADD MSTORE PUSH16 0x496E73756666696369656E7420666565 PUSH1 0x80 SHL PUSH1 0x44 DUP3 ADD MSTORE PUSH1 0x64 ADD PUSH2 0x441 JUMP JUMPDEST PUSH2 0x66E DUP10 DUP4 DUP7 DUP7 DUP1 DUP1 PUSH1 0x1F ADD PUSH1 0x20 DUP1 SWAP2 DIV MUL PUSH1 0x20 ADD PUSH1 0x40 MLOAD SWAP1 DUP2 ADD PUSH1 0x40 MSTORE DUP1 SWAP4 SWAP3 SWAP2 SWAP1 DUP2 DUP2 MSTORE PUSH1 0x20 ADD DUP4 DUP4 DUP1 DUP3 DUP5 CALLDATACOPY PUSH1 0x0 SWAP3 ADD DUP3 SWAP1 MSTORE POP PUSH1 0x40 DUP1 MLOAD DUP1 DUP3 ADD SWAP1 SWAP2 MSTORE CALLVALUE DUP2 MSTORE PUSH1 0x20 DUP2 ADD SWAP2 SWAP1 SWAP2 MSTORE SWAP3 POP CALLER SWAP2 POP PUSH2 0xB8F SWAP1 POP JUMP JUMPDEST POP PUSH1 0x0 DUP10 PUSH4 0xFFFFFFFF AND PUSH32 0x9D3921FA6202787A376E196A4DB9F1F55F1CE7942D18C8146B1BD6E4DEAEF9E2 DUP10 DUP12 PUSH1 0x40 MLOAD PUSH2 0x6A9 SWAP3 SWAP2 SWAP1 PUSH2 0x1690 JUMP JUMPDEST PUSH1 0x40 MLOAD DUP1 SWAP2 SUB SWAP1 LOG3 POP POP PUSH2 0x4A2 PUSH1 0x1 PUSH1 0x2 SSTORE JUMP JUMPDEST PUSH2 0x6C5 PUSH2 0xC9A JUMP JUMPDEST PUSH2 0x6CF DUP3 DUP3 PUSH2 0xCC7 JUMP JUMPDEST POP POP JUMP JUMPDEST PUSH1 0x40 DUP1 MLOAD DUP1 DUP3 ADD SWAP1 SWAP2 MSTORE PUSH1 0x0 DUP1 DUP3 MSTORE PUSH1 0x20 DUP3 ADD MSTORE PUSH1 0x0 CALLER DUP8 DUP8 DUP8 PUSH1 0x40 MLOAD PUSH1 0x20 ADD PUSH2 0x3A1 SWAP5 SWAP4 SWAP3 SWAP2 SWAP1 PUSH2 0x16BB JUMP JUMPDEST PUSH2 0x708 PUSH2 0xC9A JUMP JUMPDEST PUSH2 0x712 PUSH1 0x0 PUSH2 0xD1C JUMP JUMPDEST JUMP JUMPDEST PUSH2 0x71C PUSH2 0xC9A JUMP JUMPDEST PUSH1 0x40 MLOAD PUSH4 0xCA5EB5E1 PUSH1 0xE0 SHL DUP2 MSTORE PUSH1 0x1 PUSH1 0x1 PUSH1 0xA0 SHL SUB DUP3 DUP2 AND PUSH1 0x4 DUP4 ADD MSTORE PUSH32 0x0 AND SWAP1 PUSH4 0xCA5EB5E1 SWAP1 PUSH1 0x24 ADD PUSH1 0x0 PUSH1 0x40 MLOAD DUP1 DUP4 SUB DUP2 PUSH1 0x0 DUP8 DUP1 EXTCODESIZE ISZERO DUP1 ISZERO PUSH2 0x77F JUMPI PUSH1 0x0 DUP1 REVERT JUMPDEST POP GAS CALL ISZERO DUP1 ISZERO PUSH2 0x793 JUMPI RETURNDATASIZE PUSH1 0x0 DUP1 RETURNDATACOPY RETURNDATASIZE PUSH1 0x0 REVERT JUMPDEST POP POP POP POP POP JUMP JUMPDEST PUSH2 0x7A2 PUSH2 0xB38 JUMP JUMPDEST PUSH1 0x0 DUP6 MLOAD GT PUSH2 0x7F3 JUMPI PUSH1 0x40 MLOAD PUSH3 0x461BCD PUSH1 0xE5 SHL DUP2 MSTORE PUSH1 0x20 PUSH1 0x4 DUP3 ADD MSTORE PUSH1 0x14 PUSH1 0x24 DUP3 ADD MSTORE PUSH32 0x4E616D652063616E6E6F7420626520656D707479000000000000000000000000 PUSH1 0x44 DUP3 ADD MSTORE PUSH1 0x64 ADD PUSH2 0x441 JUMP JUMPDEST PUSH1 0x0 DUP5 MLOAD GT PUSH2 0x844 JUMPI PUSH1 0x40 MLOAD PUSH3 0x461BCD PUSH1 0xE5 SHL DUP2 MSTORE PUSH1 0x20 PUSH1 0x4 DUP3 ADD MSTORE PUSH1 0x16 PUSH1 0x24 DUP3 ADD MSTORE PUSH32 0x536B696C6C732063616E6E6F7420626520656D70747900000000000000000000 PUSH1 0x44 DUP3 ADD MSTORE PUSH1 0x64 ADD PUSH2 0x441 JUMP JUMPDEST PUSH2 0x857 DUP8 PUSH1 0x1 PUSH1 0x1 PUSH1 0xA0 SHL SUB DUP9 AND PUSH2 0x6BD JUMP JUMPDEST PUSH1 0x0 CALLER DUP7 DUP7 DUP7 PUSH1 0x40 MLOAD PUSH1 0x20 ADD PUSH2 0x870 SWAP5 SWAP4 SWAP3 SWAP2 SWAP1 PUSH2 0x16BB JUMP JUMPDEST PUSH1 0x40 DUP1 MLOAD PUSH1 0x1F NOT DUP2 DUP5 SUB ADD DUP2 MSTORE PUSH1 0x20 PUSH1 0x1F DUP7 ADD DUP2 SWAP1 DIV DUP2 MUL DUP5 ADD DUP2 ADD SWAP1 SWAP3 MSTORE DUP5 DUP4 MSTORE SWAP3 POP PUSH1 0x0 SWAP2 PUSH2 0x8BF SWAP2 DUP12 SWAP2 DUP6 SWAP2 DUP9 SWAP1 DUP9 SWAP1 DUP2 SWAP1 DUP5 ADD DUP4 DUP3 DUP1 DUP3 DUP5 CALLDATACOPY PUSH1 0x0 SWAP3 ADD DUP3 SWAP1 MSTORE POP SWAP3 POP PUSH2 0xA15 SWAP2 POP POP JUMP JUMPDEST DUP1 MLOAD SWAP1 SWAP2 POP CALLVALUE LT ISZERO PUSH2 0x906 JUMPI PUSH1 0x40 MLOAD PUSH3 0x461BCD PUSH1 0xE5 SHL DUP2 MSTORE PUSH1 0x20 PUSH1 0x4 DUP3 ADD MSTORE PUSH1 0x10 PUSH1 0x24 DUP3 ADD MSTORE PUSH16 0x496E73756666696369656E7420666565 PUSH1 0x80 SHL PUSH1 0x44 DUP3 ADD MSTORE PUSH1 0x64 ADD PUSH2 0x441 JUMP JUMPDEST PUSH2 0x95E DUP10 DUP4 DUP7 DUP7 DUP1 DUP1 PUSH1 0x1F ADD PUSH1 0x20 DUP1 SWAP2 DIV MUL PUSH1 0x20 ADD PUSH1 0x40 MLOAD SWAP1 DUP2 ADD PUSH1 0x40 MSTORE DUP1 SWAP4 SWAP3 SWAP2 SWAP1 DUP2 DUP2 MSTORE PUSH1 0x20 ADD DUP4 DUP4 DUP1 DUP3 DUP5 CALLDATACOPY PUSH1 0x0 SWAP3 ADD DUP3 SWAP1 MSTORE POP PUSH1 0x40 DUP1 MLOAD DUP1 DUP3 ADD SWAP1 SWAP2 MSTORE CALLVALUE DUP2 MSTORE PUSH1 0x20 DUP2 ADD SWAP2 SWAP1 SWAP2 MSTORE SWAP3 POP CALLER SWAP2 POP PUSH2 0xB8F SWAP1 POP JUMP JUMPDEST POP CALLER PUSH1 0x1 PUSH1 0x1 PUSH1 0xA0 SHL SUB AND DUP10 PUSH4 0xFFFFFFFF AND PUSH32 0x55C2A5400EEE8CF3BF6249454B995ADB48669C3A785CC20C61735E7AEA4171AA DUP10 DUP12 PUSH1 0x40 MLOAD PUSH2 0x6A9 SWAP3 SWAP2 SWAP1 PUSH2 0x1690 JUMP JUMPDEST PUSH2 0x9A9 PUSH2 0xC9A JUMP JUMPDEST PUSH1 0x1 PUSH1 0x1 PUSH1 0xA0 SHL SUB DUP2 AND PUSH2 0x9D3 JUMPI PUSH1 0x40 MLOAD PUSH4 0x1E4FBDF7 PUSH1 0xE0 SHL DUP2 MSTORE PUSH1 0x0 PUSH1 0x4 DUP3 ADD MSTORE PUSH1 0x24 ADD PUSH2 0x441 JUMP JUMPDEST PUSH2 0x9DC DUP2 PUSH2 0xD1C JUMP JUMPDEST POP JUMP JUMPDEST PUSH1 0x0 PUSH1 0x20 DUP3 ADD DUP1 CALLDATALOAD SWAP1 PUSH1 0x1 SWAP1 DUP4 SWAP1 PUSH2 0x9F7 SWAP1 DUP7 PUSH2 0x14C3 JUMP JUMPDEST PUSH4 0xFFFFFFFF AND DUP2 MSTORE PUSH1 0x20 DUP2 ADD SWAP2 SWAP1 SWAP2 MSTORE PUSH1 0x40 ADD PUSH1 0x0 KECCAK256 SLOAD EQ SWAP3 SWAP2 POP POP JUMP JUMPDEST PUSH1 0x40 DUP1 MLOAD DUP1 DUP3 ADD SWAP1 SWAP2 MSTORE PUSH1 0x0 DUP1 DUP3 MSTORE PUSH1 0x20 DUP3 ADD MSTORE PUSH32 0x0 PUSH1 0x1 PUSH1 0x1 PUSH1 0xA0 SHL SUB AND PUSH4 0xDDC28C58 PUSH1 0x40 MLOAD DUP1 PUSH1 0xA0 ADD PUSH1 0x40 MSTORE DUP1 DUP9 PUSH4 0xFFFFFFFF AND DUP2 MSTORE PUSH1 0x20 ADD PUSH2 0xA78 DUP10 PUSH2 0xAF6 JUMP JUMPDEST DUP2 MSTORE PUSH1 0x20 ADD DUP8 DUP2 MSTORE PUSH1 0x20 ADD DUP7 DUP2 MSTORE PUSH1 0x20 ADD DUP6 ISZERO ISZERO DUP2 MSTORE POP ADDRESS PUSH1 0x40 MLOAD DUP4 PUSH4 0xFFFFFFFF AND PUSH1 0xE0 SHL DUP2 MSTORE PUSH1 0x4 ADD PUSH2 0xAAD SWAP3 SWAP2 SWAP1 PUSH2 0x177A JUMP JUMPDEST PUSH1 0x40 DUP1 MLOAD DUP1 DUP4 SUB DUP2 DUP7 GAS STATICCALL ISZERO DUP1 ISZERO PUSH2 0xAC9 JUMPI RETURNDATASIZE PUSH1 0x0 DUP1 RETURNDATACOPY RETURNDATASIZE PUSH1 0x0 REVERT JUMPDEST POP POP POP POP PUSH1 0x40 MLOAD RETURNDATASIZE PUSH1 0x1F NOT PUSH1 0x1F DUP3 ADD AND DUP3 ADD DUP1 PUSH1 0x40 MSTORE POP DUP2 ADD SWAP1 PUSH2 0xAED SWAP2 SWAP1 PUSH2 0x1841 JUMP JUMPDEST SWAP6 SWAP5 POP POP POP POP POP JUMP JUMPDEST PUSH4 0xFFFFFFFF DUP2 AND PUSH1 0x0 SWAP1 DUP2 MSTORE PUSH1 0x1 PUSH1 0x20 MSTORE PUSH1 0x40 DUP2 KECCAK256 SLOAD DUP1 PUSH2 0xB32 JUMPI PUSH1 0x40 MLOAD PUSH4 0xF6FF4FB7 PUSH1 0xE0 SHL DUP2 MSTORE PUSH4 0xFFFFFFFF DUP5 AND PUSH1 0x4 DUP3 ADD MSTORE PUSH1 0x24 ADD PUSH2 0x441 JUMP JUMPDEST SWAP3 SWAP2 POP POP JUMP JUMPDEST PUSH1 0x2 DUP1 SLOAD SUB PUSH2 0xB89 JUMPI PUSH1 0x40 MLOAD PUSH3 0x461BCD PUSH1 0xE5 SHL DUP2 MSTORE PUSH1 0x20 PUSH1 0x4 DUP3 ADD MSTORE PUSH1 0x1F PUSH1 0x24 DUP3 ADD MSTORE PUSH32 0x5265656E7472616E637947756172643A207265656E7472616E742063616C6C00 PUSH1 0x44 DUP3 ADD MSTORE PUSH1 0x64 ADD PUSH2 0x441 JUMP JUMPDEST PUSH1 0x2 DUP1 SSTORE JUMP JUMPDEST PUSH2 0xB97 PUSH2 0xF4A JUMP JUMPDEST PUSH1 0x0 PUSH2 0xBA6 DUP5 PUSH1 0x0 ADD MLOAD PUSH2 0xD79 JUMP JUMPDEST PUSH1 0x20 DUP6 ADD MLOAD SWAP1 SWAP2 POP ISZERO PUSH2 0xBC0 JUMPI PUSH2 0xBC0 DUP5 PUSH1 0x20 ADD MLOAD PUSH2 0xDA1 JUMP JUMPDEST PUSH32 0x0 PUSH1 0x1 PUSH1 0x1 PUSH1 0xA0 SHL SUB AND PUSH4 0x2637A450 DUP3 PUSH1 0x40 MLOAD DUP1 PUSH1 0xA0 ADD PUSH1 0x40 MSTORE DUP1 DUP12 PUSH4 0xFFFFFFFF AND DUP2 MSTORE PUSH1 0x20 ADD PUSH2 0xC10 DUP13 PUSH2 0xAF6 JUMP JUMPDEST DUP2 MSTORE PUSH1 0x20 ADD DUP11 DUP2 MSTORE PUSH1 0x20 ADD DUP10 DUP2 MSTORE PUSH1 0x20 ADD PUSH1 0x0 DUP10 PUSH1 0x20 ADD MLOAD GT ISZERO ISZERO DUP2 MSTORE POP DUP7 PUSH1 0x40 MLOAD DUP5 PUSH4 0xFFFFFFFF AND PUSH1 0xE0 SHL DUP2 MSTORE PUSH1 0x4 ADD PUSH2 0xC4C SWAP3 SWAP2 SWAP1 PUSH2 0x177A JUMP JUMPDEST PUSH1 0x80 PUSH1 0x40 MLOAD DUP1 DUP4 SUB DUP2 DUP6 DUP9 GAS CALL ISZERO DUP1 ISZERO PUSH2 0xC6A JUMPI RETURNDATASIZE PUSH1 0x0 DUP1 RETURNDATACOPY RETURNDATASIZE PUSH1 0x0 REVERT JUMPDEST POP POP POP POP POP PUSH1 0x40 MLOAD RETURNDATASIZE PUSH1 0x1F NOT PUSH1 0x1F DUP3 ADD AND DUP3 ADD DUP1 PUSH1 0x40 MSTORE POP DUP2 ADD SWAP1 PUSH2 0xC8F SWAP2 SWAP1 PUSH2 0x185D JUMP JUMPDEST SWAP8 SWAP7 POP POP POP POP POP POP POP JUMP JUMPDEST PUSH1 0x0 SLOAD PUSH1 0x1 PUSH1 0x1 PUSH1 0xA0 SHL SUB AND CALLER EQ PUSH2 0x712 JUMPI PUSH1 0x40 MLOAD PUSH4 0x118CDAA7 PUSH1 0xE0 SHL DUP2 MSTORE CALLER PUSH1 0x4 DUP3 ADD MSTORE PUSH1 0x24 ADD PUSH2 0x441 JUMP JUMPDEST PUSH4 0xFFFFFFFF DUP3 AND PUSH1 0x0 DUP2 DUP2 MSTORE PUSH1 0x1 PUSH1 0x20 SWAP1 DUP2 MSTORE PUSH1 0x40 SWAP2 DUP3 SWAP1 KECCAK256 DUP5 SWAP1 SSTORE DUP2 MLOAD SWAP3 DUP4 MSTORE DUP3 ADD DUP4 SWAP1 MSTORE PUSH32 0x238399D427B947898EDB290F5FF0F9109849B1C3BA196A42E35F00C50A54B98B SWAP2 ADD PUSH1 0x40 MLOAD DUP1 SWAP2 SUB SWAP1 LOG1 POP POP JUMP JUMPDEST PUSH1 0x0 DUP1 SLOAD PUSH1 0x1 PUSH1 0x1 PUSH1 0xA0 SHL SUB DUP4 DUP2 AND PUSH20 0xFFFFFFFFFFFFFFFFFFFFFFFFFFFFFFFFFFFFFFFF NOT DUP4 AND DUP2 OR DUP5 SSTORE PUSH1 0x40 MLOAD SWAP2 SWAP1 SWAP3 AND SWAP3 DUP4 SWAP2 PUSH32 0x8BE0079C531659141344CD1FD0A4F28419497F9722A3DAAFE3B4186F6B6457E0 SWAP2 SWAP1 LOG3 POP POP JUMP JUMPDEST PUSH1 0x0 DUP2 CALLVALUE EQ PUSH2 0xD9D JUMPI PUSH1 0x40 MLOAD PUSH4 0x4FB8209 PUSH1 0xE5 SHL DUP2 MSTORE CALLVALUE PUSH1 0x4 DUP3 ADD MSTORE PUSH1 0x24 ADD PUSH2 0x441 JUMP JUMPDEST POP SWAP1 JUMP JUMPDEST PUSH1 0x0 PUSH32 0x0 PUSH1 0x1 PUSH1 0x1 PUSH1 0xA0 SHL SUB AND PUSH4 0xE4FE1D94 PUSH1 0x40 MLOAD DUP2 PUSH4 0xFFFFFFFF AND PUSH1 0xE0 SHL DUP2 MSTORE PUSH1 0x4 ADD PUSH1 0x20 PUSH1 0x40 MLOAD DUP1 DUP4 SUB DUP2 DUP7 GAS STATICCALL ISZERO DUP1 ISZERO PUSH2 0xE01 JUMPI RETURNDATASIZE PUSH1 0x0 DUP1 RETURNDATACOPY RETURNDATASIZE PUSH1 0x0 REVERT JUMPDEST POP POP POP POP PUSH1 0x40 MLOAD RETURNDATASIZE PUSH1 0x1F NOT PUSH1 0x1F DUP3 ADD AND DUP3 ADD DUP1 PUSH1 0x40 MSTORE POP DUP2 ADD SWAP1 PUSH2 0xE25 SWAP2 SWAP1 PUSH2 0x18D2 JUMP JUMPDEST SWAP1 POP PUSH1 0x1 PUSH1 0x1 PUSH1 0xA0 SHL SUB DUP2 AND PUSH2 0xE4E JUMPI PUSH1 0x40 MLOAD PUSH4 0x29B99A95 PUSH1 0xE1 SHL DUP2 MSTORE PUSH1 0x4 ADD PUSH1 0x40 MLOAD DUP1 SWAP2 SUB SWAP1 REVERT JUMPDEST PUSH1 0x40 DUP1 MLOAD CALLER PUSH1 0x24 DUP3 ADD DUP2 SWAP1 MSTORE PUSH32 0x0 PUSH1 0x1 PUSH1 0x1 PUSH1 0xA0 SHL SUB DUP2 DUP2 AND PUSH1 0x44 DUP6 ADD MSTORE PUSH1 0x64 DUP1 DUP6 ADD DUP9 SWAP1 MSTORE DUP6 MLOAD DUP1 DUP7 SUB SWAP1 SWAP2 ADD DUP2 MSTORE PUSH1 0x84 SWAP1 SWAP5 ADD SWAP1 SWAP5 MSTORE PUSH1 0x20 DUP4 ADD DUP1 MLOAD PUSH1 0x1 PUSH1 0x1 PUSH1 0xE0 SHL SUB AND PUSH4 0x23B872DD PUSH1 0xE0 SHL OR SWAP1 MSTORE PUSH2 0x6CF SWAP4 DUP6 AND SWAP3 DUP7 SWAP1 PUSH2 0xED3 SWAP1 DUP6 SWAP1 PUSH2 0xED9 JUMP JUMPDEST POP POP POP POP JUMP JUMPDEST PUSH1 0x0 DUP1 PUSH1 0x20 PUSH1 0x0 DUP5 MLOAD PUSH1 0x20 DUP7 ADD PUSH1 0x0 DUP9 GAS CALL DUP1 PUSH2 0xEFC JUMPI PUSH1 0x40 MLOAD RETURNDATASIZE PUSH1 0x0 DUP3 RETURNDATACOPY RETURNDATASIZE DUP2 REVERT JUMPDEST POP POP PUSH1 0x0 MLOAD RETURNDATASIZE SWAP2 POP DUP2 ISZERO PUSH2 0xF14 JUMPI DUP1 PUSH1 0x1 EQ ISZERO PUSH2 0xF21 JUMP JUMPDEST PUSH1 0x1 PUSH1 0x1 PUSH1 0xA0 SHL SUB DUP5 AND EXTCODESIZE ISZERO JUMPDEST ISZERO PUSH2 0xED3 JUMPI PUSH1 0x40 MLOAD PUSH4 0x5274AFE7 PUSH1 0xE0 SHL DUP2 MSTORE PUSH1 0x1 PUSH1 0x1 PUSH1 0xA0 SHL SUB DUP6 AND PUSH1 0x4 DUP3 ADD MSTORE PUSH1 0x24 ADD PUSH2 0x441 JUMP JUMPDEST PUSH1 0x40 MLOAD DUP1 PUSH1 0x60 ADD PUSH1 0x40 MSTORE DUP1 PUSH1 0x0 DUP1 NOT AND DUP2 MSTORE PUSH1 0x20 ADD PUSH1 0x0 PUSH1 0x1 PUSH1 0x1 PUSH1 0x40 SHL SUB AND DUP2 MSTORE PUSH1 0x20 ADD PUSH2 0xF8C PUSH1 0x40 MLOAD DUP1 PUSH1 0x40 ADD PUSH1 0x40 MSTORE DUP1 PUSH1 0x0 DUP2 MSTORE PUSH1 0x20 ADD PUSH1 0x0 DUP2 MSTORE POP SWAP1 JUMP JUMPDEST SWAP1 MSTORE SWAP1 JUMP JUMPDEST DUP1 CALLDATALOAD PUSH4 0xFFFFFFFF DUP2 AND DUP2 EQ PUSH2 0xFA5 JUMPI PUSH1 0x0 DUP1 REVERT JUMPDEST SWAP2 SWAP1 POP JUMP JUMPDEST PUSH4 0x4E487B71 PUSH1 0xE0 SHL PUSH1 0x0 MSTORE PUSH1 0x41 PUSH1 0x4 MSTORE PUSH1 0x24 PUSH1 0x0 REVERT JUMPDEST PUSH1 0x40 MLOAD PUSH1 0x1F DUP3 ADD PUSH1 0x1F NOT AND DUP2 ADD PUSH1 0x1 PUSH1 0x1 PUSH1 0x40 SHL SUB DUP2 GT DUP3 DUP3 LT OR ISZERO PUSH2 0xFE8 JUMPI PUSH2 0xFE8 PUSH2 0xFAA JUMP JUMPDEST PUSH1 0x40 MSTORE SWAP2 SWAP1 POP JUMP JUMPDEST PUSH1 0x0 DUP3 PUSH1 0x1F DUP4 ADD SLT PUSH2 0x1001 JUMPI PUSH1 0x0 DUP1 REVERT JUMPDEST DUP2 CALLDATALOAD PUSH1 0x1 PUSH1 0x1 PUSH1 0x40 SHL SUB DUP2 GT ISZERO PUSH2 0x101A JUMPI PUSH2 0x101A PUSH2 0xFAA JUMP JUMPDEST PUSH2 0x102D PUSH1 0x1F DUP3 ADD PUSH1 0x1F NOT AND PUSH1 0x20 ADD PUSH2 0xFC0 JUMP JUMPDEST DUP2 DUP2 MSTORE DUP5 PUSH1 0x20 DUP4 DUP7 ADD ADD GT ISZERO PUSH2 0x1042 JUMPI PUSH1 0x0 DUP1 REVERT JUMPDEST DUP2 PUSH1 0x20 DUP6 ADD PUSH1 0x20 DUP4 ADD CALLDATACOPY PUSH1 0x0 SWAP2 DUP2 ADD PUSH1 0x20 ADD SWAP2 SWAP1 SWAP2 MSTORE SWAP4 SWAP3 POP POP POP JUMP JUMPDEST PUSH1 0x0 DUP1 DUP4 PUSH1 0x1F DUP5 ADD SLT PUSH2 0x1071 JUMPI PUSH1 0x0 DUP1 REVERT JUMPDEST POP DUP2 CALLDATALOAD PUSH1 0x1 PUSH1 0x1 PUSH1 0x40 SHL SUB DUP2 GT ISZERO PUSH2 0x1088 JUMPI PUSH1 0x0 DUP1 REVERT JUMPDEST PUSH1 0x20 DUP4 ADD SWAP2 POP DUP4 PUSH1 0x20 DUP3 DUP6 ADD ADD GT ISZERO PUSH2 0x10A0 JUMPI PUSH1 0x0 DUP1 REVERT JUMPDEST SWAP3 POP SWAP3 SWAP1 POP JUMP JUMPDEST PUSH1 0x0 DUP1 PUSH1 0x0 DUP1 PUSH1 0x0 DUP1 PUSH1 0xA0 DUP8 DUP10 SUB SLT ISZERO PUSH2 0x10C0 JUMPI PUSH1 0x0 DUP1 REVERT JUMPDEST PUSH2 0x10C9 DUP8 PUSH2 0xF91 JUMP JUMPDEST SWAP6 POP PUSH1 0x20 DUP8 ADD CALLDATALOAD PUSH1 0x1 PUSH1 0x1 PUSH1 0x40 SHL SUB DUP2 GT ISZERO PUSH2 0x10E4 JUMPI PUSH1 0x0 DUP1 REVERT JUMPDEST PUSH2 0x10F0 DUP10 DUP3 DUP11 ADD PUSH2 0xFF0 JUMP JUMPDEST SWAP6 POP POP PUSH1 0x40 DUP8 ADD CALLDATALOAD PUSH1 0x1 PUSH1 0x1 PUSH1 0x40 SHL SUB DUP2 GT ISZERO PUSH2 0x110C JUMPI PUSH1 0x0 DUP1 REVERT JUMPDEST PUSH2 0x1118 DUP10 DUP3 DUP11 ADD PUSH2 0xFF0 JUMP JUMPDEST SWAP5 POP POP PUSH1 0x60 DUP8 ADD CALLDATALOAD SWAP3 POP PUSH1 0x80 DUP8 ADD CALLDATALOAD PUSH1 0x1 PUSH1 0x1 PUSH1 0x40 SHL SUB DUP2 GT ISZERO PUSH2 0x113B JUMPI PUSH1 0x0 DUP1 REVERT JUMPDEST PUSH2 0x1147 DUP10 DUP3 DUP11 ADD PUSH2 0x105F JUMP JUMPDEST SWAP8 SWAP11 SWAP7 SWAP10 POP SWAP5 SWAP8 POP SWAP3 SWAP6 SWAP4 SWAP5 SWAP3 POP POP POP JUMP JUMPDEST PUSH1 0x0 PUSH1 0x60 DUP3 DUP5 SUB SLT ISZERO PUSH2 0x116B JUMPI PUSH1 0x0 DUP1 REVERT JUMPDEST POP SWAP2 SWAP1 POP JUMP JUMPDEST PUSH1 0x1 PUSH1 0x1 PUSH1 0xA0 SHL SUB DUP2 AND DUP2 EQ PUSH2 0x9DC JUMPI PUSH1 0x0 DUP1 REVERT JUMPDEST DUP1 CALLDATALOAD PUSH2 0xFA5 DUP2 PUSH2 0x1171 JUMP JUMPDEST PUSH1 0x0 DUP1 PUSH1 0x0 DUP1 PUSH1 0x0 DUP1 PUSH1 0x0 PUSH1 0xE0 DUP9 DUP11 SUB SLT ISZERO PUSH2 0x11AC JUMPI PUSH1 0x0 DUP1 REVERT JUMPDEST PUSH2 0x11B6 DUP10 DUP10 PUSH2 0x1159 JUMP JUMPDEST SWAP7 POP PUSH1 0x60 DUP9 ADD CALLDATALOAD SWAP6 POP PUSH1 0x80 DUP9 ADD CALLDATALOAD PUSH1 0x1 PUSH1 0x1 PUSH1 0x40 SHL SUB DUP2 GT ISZERO PUSH2 0x11D8 JUMPI PUSH1 0x0 DUP1 REVERT JUMPDEST PUSH2 0x11E4 DUP11 DUP3 DUP12 ADD PUSH2 0x105F JUMP JUMPDEST SWAP1 SWAP7 POP SWAP5 POP POP PUSH1 0xA0 DUP9 ADD CALLDATALOAD PUSH2 0x11F8 DUP2 PUSH2 0x1171 JUMP JUMPDEST SWAP3 POP PUSH1 0xC0 DUP9 ADD CALLDATALOAD PUSH1 0x1 PUSH1 0x1 PUSH1 0x40 SHL SUB DUP2 GT ISZERO PUSH2 0x1213 JUMPI PUSH1 0x0 DUP1 REVERT JUMPDEST PUSH2 0x121F DUP11 DUP3 DUP12 ADD PUSH2 0x105F JUMP JUMPDEST SWAP9 SWAP12 SWAP8 SWAP11 POP SWAP6 SWAP9 POP SWAP4 SWAP7 SWAP3 SWAP6 SWAP3 SWAP4 POP POP POP JUMP JUMPDEST PUSH1 0x0 DUP1 PUSH1 0x0 DUP1 PUSH1 0x0 DUP1 PUSH1 0x0 PUSH1 0xC0 DUP9 DUP11 SUB SLT ISZERO PUSH2 0x124D JUMPI PUSH1 0x0 DUP1 REVERT JUMPDEST PUSH2 0x1256 DUP9 PUSH2 0xF91 JUMP JUMPDEST SWAP7 POP PUSH1 0x20 DUP9 ADD CALLDATALOAD PUSH2 0x1266 DUP2 PUSH2 0x1171 JUMP JUMPDEST SWAP6 POP PUSH1 0x40 DUP9 ADD CALLDATALOAD PUSH1 0x1 PUSH1 0x1 PUSH1 0x40 SHL SUB DUP2 GT ISZERO PUSH2 0x1281 JUMPI PUSH1 0x0 DUP1 REVERT JUMPDEST PUSH2 0x128D DUP11 DUP3 DUP12 ADD PUSH2 0xFF0 JUMP JUMPDEST SWAP6 POP POP PUSH1 0x60 DUP9 ADD CALLDATALOAD PUSH1 0x1 PUSH1 0x1 PUSH1 0x40 SHL SUB DUP2 GT ISZERO PUSH2 0x12A9 JUMPI PUSH1 0x0 DUP1 REVERT JUMPDEST PUSH2 0x12B5 DUP11 DUP3 DUP12 ADD PUSH2 0xFF0 JUMP JUMPDEST SWAP5 POP POP PUSH1 0x80 DUP9 ADD CALLDATALOAD SWAP3 POP PUSH1 0xA0 DUP9 ADD CALLDATALOAD PUSH1 0x1 PUSH1 0x1 PUSH1 0x40 SHL SUB DUP2 GT ISZERO PUSH2 0x1213 JUMPI PUSH1 0x0 DUP1 REVERT JUMPDEST PUSH1 0x0 DUP1 PUSH1 0x40 DUP4 DUP6 SUB SLT ISZERO PUSH2 0x12EB JUMPI PUSH1 0x0 DUP1 REVERT JUMPDEST PUSH2 0x12F4 DUP4 PUSH2 0xF91 JUMP JUMPDEST SWAP5 PUSH1 0x20 SWAP4 SWAP1 SWAP4 ADD CALLDATALOAD SWAP4 POP POP POP JUMP JUMPDEST PUSH1 0x0 DUP3 PUSH1 0x1F DUP4 ADD SLT PUSH2 0x1313 JUMPI PUSH1 0x0 DUP1 REVERT JUMPDEST DUP2 CALLDATALOAD PUSH1 0x1 PUSH1 0x1 PUSH1 0x40 SHL SUB DUP2 GT ISZERO PUSH2 0x132C JUMPI PUSH2 0x132C PUSH2 0xFAA JUMP JUMPDEST DUP1 PUSH1 0x5 SHL PUSH2 0x133C PUSH1 0x20 DUP3 ADD PUSH2 0xFC0 JUMP JUMPDEST SWAP2 DUP3 MSTORE PUSH1 0x20 DUP2 DUP6 ADD DUP2 ADD SWAP3 SWAP1 DUP2 ADD SWAP1 DUP7 DUP5 GT ISZERO PUSH2 0x1358 JUMPI PUSH1 0x0 DUP1 REVERT JUMPDEST PUSH1 0x20 DUP7 ADD SWAP3 POP JUMPDEST DUP4 DUP4 LT ISZERO PUSH2 0x139E JUMPI DUP3 CALLDATALOAD PUSH1 0x1 PUSH1 0x1 PUSH1 0x40 SHL SUB DUP2 GT ISZERO PUSH2 0x137D JUMPI PUSH1 0x0 DUP1 REVERT JUMPDEST PUSH2 0x138C DUP9 PUSH1 0x20 DUP4 DUP11 ADD ADD PUSH2 0xFF0 JUMP JUMPDEST DUP4 MSTORE POP PUSH1 0x20 SWAP3 DUP4 ADD SWAP3 SWAP1 SWAP2 ADD SWAP1 PUSH2 0x135F JUMP JUMPDEST SWAP7 SWAP6 POP POP POP POP POP POP JUMP JUMPDEST PUSH1 0x0 DUP1 PUSH1 0x0 DUP1 PUSH1 0x0 DUP1 PUSH1 0xA0 DUP8 DUP10 SUB SLT ISZERO PUSH2 0x13C1 JUMPI PUSH1 0x0 DUP1 REVERT JUMPDEST PUSH2 0x13CA DUP8 PUSH2 0xF91 JUMP JUMPDEST SWAP6 POP PUSH1 0x20 DUP8 ADD CALLDATALOAD PUSH1 0x1 PUSH1 0x1 PUSH1 0x40 SHL SUB DUP2 GT ISZERO PUSH2 0x13E5 JUMPI PUSH1 0x0 DUP1 REVERT JUMPDEST PUSH2 0x13F1 DUP10 DUP3 DUP11 ADD PUSH2 0xFF0 JUMP JUMPDEST SWAP6 POP POP PUSH1 0x40 DUP8 ADD CALLDATALOAD PUSH1 0x1 PUSH1 0x1 PUSH1 0x40 SHL SUB DUP2 GT ISZERO PUSH2 0x140D JUMPI PUSH1 0x0 DUP1 REVERT JUMPDEST PUSH2 0x1419 DUP10 DUP3 DUP11 ADD PUSH2 0x1302 JUMP JUMPDEST SWAP5 POP POP PUSH1 0x60 DUP8 ADD CALLDATALOAD PUSH1 0x1 PUSH1 0x1 PUSH1 0x40 SHL SUB DUP2 GT ISZERO PUSH2 0x1435 JUMPI PUSH1 0x0 DUP1 REVERT JUMPDEST PUSH2 0x1441 DUP10 DUP3 DUP11 ADD PUSH2 0xFF0 JUMP JUMPDEST SWAP4 POP POP PUSH1 0x80 DUP8 ADD CALLDATALOAD PUSH1 0x1 PUSH1 0x1 PUSH1 0x40 SHL SUB DUP2 GT ISZERO PUSH2 0x113B JUMPI PUSH1 0x0 DUP1 REVERT JUMPDEST PUSH1 0x0 DUP1 PUSH1 0x0 DUP1 PUSH1 0xA0 DUP6 DUP8 SUB SLT ISZERO PUSH2 0x1473 JUMPI PUSH1 0x0 DUP1 REVERT JUMPDEST PUSH2 0x147D DUP7 DUP7 PUSH2 0x1159 JUMP JUMPDEST SWAP4 POP PUSH1 0x60 DUP6 ADD CALLDATALOAD PUSH1 0x1 PUSH1 0x1 PUSH1 0x40 SHL SUB DUP2 GT ISZERO PUSH2 0x1498 JUMPI PUSH1 0x0 DUP1 REVERT JUMPDEST PUSH2 0x14A4 DUP8 DUP3 DUP9 ADD PUSH2 0x105F JUMP JUMPDEST SWAP1 SWAP5 POP SWAP3 POP POP PUSH1 0x80 DUP6 ADD CALLDATALOAD PUSH2 0x14B8 DUP2 PUSH2 0x1171 JUMP JUMPDEST SWAP4 SWAP7 SWAP3 SWAP6 POP SWAP1 SWAP4 POP POP JUMP JUMPDEST PUSH1 0x0 PUSH1 0x20 DUP3 DUP5 SUB SLT ISZERO PUSH2 0x14D5 JUMPI PUSH1 0x0 DUP1 REVERT JUMPDEST PUSH2 0x14DE DUP3 PUSH2 0xF91 JUMP JUMPDEST SWAP4 SWAP3 POP POP POP JUMP JUMPDEST PUSH1 0x0 PUSH1 0x20 DUP3 DUP5 SUB SLT ISZERO PUSH2 0x14F7 JUMPI PUSH1 0x0 DUP1 REVERT JUMPDEST DUP2 CALLDATALOAD PUSH2 0x14DE DUP2 PUSH2 0x1171 JUMP JUMPDEST PUSH1 0x0 DUP1 PUSH1 0x0 DUP1 PUSH1 0x0 DUP1 PUSH1 0x0 PUSH1 0xC0 DUP9 DUP11 SUB SLT ISZERO PUSH2 0x151D JUMPI PUSH1 0x0 DUP1 REVERT JUMPDEST PUSH2 0x1526 DUP9 PUSH2 0xF91 JUMP JUMPDEST SWAP7 POP PUSH2 0x1534 PUSH1 0x20 DUP10 ADD PUSH2 0x1186 JUMP JUMPDEST SWAP6 POP PUSH1 0x40 DUP9 ADD CALLDATALOAD PUSH1 0x1 PUSH1 0x1 PUSH1 0x40 SHL SUB DUP2 GT ISZERO PUSH2 0x154F JUMPI PUSH1 0x0 DUP1 REVERT JUMPDEST PUSH2 0x155B DUP11 DUP3 DUP12 ADD PUSH2 0xFF0 JUMP JUMPDEST SWAP6 POP POP PUSH1 0x60 DUP9 ADD CALLDATALOAD PUSH1 0x1 PUSH1 0x1 PUSH1 0x40 SHL SUB DUP2 GT ISZERO PUSH2 0x1577 JUMPI PUSH1 0x0 DUP1 REVERT JUMPDEST PUSH2 0x1583 DUP11 DUP3 DUP12 ADD PUSH2 0x1302 JUMP JUMPDEST SWAP5 POP POP PUSH1 0x80 DUP9 ADD CALLDATALOAD PUSH1 0x1 PUSH1 0x1 PUSH1 0x40 SHL SUB DUP2 GT ISZERO PUSH2 0x159F JUMPI PUSH1 0x0 DUP1 REVERT JUMPDEST PUSH2 0x15AB DUP11 DUP3 DUP12 ADD PUSH2 0xFF0 JUMP JUMPDEST SWAP4 POP POP PUSH1 0xA0 DUP9 ADD CALLDATALOAD PUSH1 0x1 PUSH1 0x1 PUSH1 0x40 SHL SUB DUP2 GT ISZERO PUSH2 0x1213 JUMPI PUSH1 0x0 DUP1 REVERT JUMPDEST PUSH1 0x0 PUSH1 0x60 DUP3 DUP5 SUB SLT ISZERO PUSH2 0x15D9 JUMPI PUSH1 0x0 DUP1 REVERT JUMPDEST PUSH2 0x14DE DUP4 DUP4 PUSH2 0x1159 JUMP JUMPDEST PUSH1 0x0 DUP2 MLOAD DUP1 DUP5 MSTORE PUSH1 0x0 JUMPDEST DUP2 DUP2 LT ISZERO PUSH2 0x1609 JUMPI PUSH1 0x20 DUP2 DUP6 ADD DUP2 ADD MLOAD DUP7 DUP4 ADD DUP3 ADD MSTORE ADD PUSH2 0x15ED JUMP JUMPDEST POP PUSH1 0x0 PUSH1 0x20 DUP3 DUP7 ADD ADD MSTORE PUSH1 0x20 PUSH1 0x1F NOT PUSH1 0x1F DUP4 ADD AND DUP6 ADD ADD SWAP2 POP POP SWAP3 SWAP2 POP POP JUMP JUMPDEST PUSH1 0xA0 DUP2 MSTORE PUSH1 0xA PUSH1 0xA0 DUP3 ADD MSTORE PUSH10 0x21A922A0AA22AFA527A1 PUSH1 0xB1 SHL PUSH1 0xC0 DUP3 ADD MSTORE PUSH1 0x1 PUSH1 0x1 PUSH1 0xA0 SHL SUB DUP6 AND PUSH1 0x20 DUP3 ADD MSTORE PUSH1 0xE0 PUSH1 0x40 DUP3 ADD MSTORE PUSH1 0x0 PUSH2 0x166C PUSH1 0xE0 DUP4 ADD DUP7 PUSH2 0x15E3 JUMP JUMPDEST DUP3 DUP2 SUB PUSH1 0x60 DUP5 ADD MSTORE PUSH2 0x167E DUP2 DUP7 PUSH2 0x15E3 JUMP JUMPDEST SWAP2 POP POP DUP3 PUSH1 0x80 DUP4 ADD MSTORE SWAP6 SWAP5 POP POP POP POP POP JUMP JUMPDEST PUSH1 0x40 DUP2 MSTORE PUSH1 0x0 PUSH2 0x16A3 PUSH1 0x40 DUP4 ADD DUP6 PUSH2 0x15E3 JUMP JUMPDEST SWAP1 POP PUSH1 0x1 PUSH1 0x1 PUSH1 0xA0 SHL SUB DUP4 AND PUSH1 0x20 DUP4 ADD MSTORE SWAP4 SWAP3 POP POP POP JUMP JUMPDEST PUSH1 0xA0 DUP2 MSTORE PUSH1 0xE PUSH1 0xA0 DUP3 ADD MSTORE PUSH14 0x4352454154455F50524F46494C45 PUSH1 0x90 SHL PUSH1 0xC0 DUP3 ADD MSTORE PUSH1 0x1 PUSH1 0x1 PUSH1 0xA0 SHL SUB DUP6 AND PUSH1 0x20 DUP3 ADD MSTORE PUSH1 0xE0 PUSH1 0x40 DUP3 ADD MSTORE PUSH1 0x0 PUSH2 0x1702 PUSH1 0xE0 DUP4 ADD DUP7 PUSH2 0x15E3 JUMP JUMPDEST DUP3 DUP2 SUB PUSH1 0x60 DUP5 ADD MSTORE DUP1 DUP6 MLOAD DUP1 DUP4 MSTORE PUSH1 0x20 DUP4 ADD SWAP2 POP PUSH1 0x20 DUP2 PUSH1 0x5 SHL DUP5 ADD ADD PUSH1 0x20 DUP9 ADD PUSH1 0x0 JUMPDEST DUP4 DUP2 LT ISZERO PUSH2 0x1758 JUMPI PUSH1 0x1F NOT DUP7 DUP5 SUB ADD DUP6 MSTORE PUSH2 0x1742 DUP4 DUP4 MLOAD PUSH2 0x15E3 JUMP JUMPDEST PUSH1 0x20 SWAP6 DUP7 ADD SWAP6 SWAP1 SWAP4 POP SWAP2 SWAP1 SWAP2 ADD SWAP1 PUSH1 0x1 ADD PUSH2 0x1726 JUMP JUMPDEST POP POP DUP6 DUP2 SUB PUSH1 0x80 DUP8 ADD MSTORE PUSH2 0x176C DUP2 DUP9 PUSH2 0x15E3 JUMP JUMPDEST SWAP11 SWAP10 POP POP POP POP POP POP POP POP POP POP JUMP JUMPDEST PUSH1 0x40 DUP2 MSTORE PUSH4 0xFFFFFFFF DUP4 MLOAD AND PUSH1 0x40 DUP3 ADD MSTORE PUSH1 0x20 DUP4 ADD MLOAD PUSH1 0x60 DUP3 ADD MSTORE PUSH1 0x0 PUSH1 0x40 DUP5 ADD MLOAD PUSH1 0xA0 PUSH1 0x80 DUP5 ADD MSTORE PUSH2 0x17B0 PUSH1 0xE0 DUP5 ADD DUP3 PUSH2 0x15E3 JUMP JUMPDEST SWAP1 POP PUSH1 0x60 DUP6 ADD MLOAD PUSH1 0x3F NOT DUP5 DUP4 SUB ADD PUSH1 0xA0 DUP6 ADD MSTORE PUSH2 0x17CD DUP3 DUP3 PUSH2 0x15E3 JUMP JUMPDEST PUSH1 0x80 SWAP7 SWAP1 SWAP7 ADD MLOAD ISZERO ISZERO PUSH1 0xC0 DUP6 ADD MSTORE POP POP POP PUSH1 0x1 PUSH1 0x1 PUSH1 0xA0 SHL SUB SWAP2 SWAP1 SWAP2 AND PUSH1 0x20 SWAP1 SWAP2 ADD MSTORE SWAP1 JUMP JUMPDEST PUSH1 0x0 PUSH1 0x40 DUP3 DUP5 SUB SLT ISZERO PUSH2 0x1805 JUMPI PUSH1 0x0 DUP1 REVERT JUMPDEST PUSH1 0x40 DUP1 MLOAD SWAP1 DUP2 ADD PUSH1 0x1 PUSH1 0x1 PUSH1 0x40 SHL SUB DUP2 GT DUP3 DUP3 LT OR ISZERO PUSH2 0x1827 JUMPI PUSH2 0x1827 PUSH2 0xFAA JUMP JUMPDEST PUSH1 0x40 MSTORE DUP3 MLOAD DUP2 MSTORE PUSH1 0x20 SWAP3 DUP4 ADD MLOAD SWAP3 DUP2 ADD SWAP3 SWAP1 SWAP3 MSTORE POP SWAP2 SWAP1 POP JUMP JUMPDEST PUSH1 0x0 PUSH1 0x40 DUP3 DUP5 SUB SLT ISZERO PUSH2 0x1853 JUMPI PUSH1 0x0 DUP1 REVERT JUMPDEST PUSH2 0x14DE DUP4 DUP4 PUSH2 0x17F3 JUMP JUMPDEST PUSH1 0x0 PUSH1 0x80 DUP3 DUP5 SUB SLT DUP1 ISZERO PUSH2 0x1870 JUMPI PUSH1 0x0 DUP1 REVERT JUMPDEST POP PUSH1 0x40 MLOAD PUSH1 0x60 DUP2 ADD PUSH1 0x1 PUSH1 0x1 PUSH1 0x40 SHL SUB DUP2 GT DUP3 DUP3 LT OR ISZERO PUSH2 0x1893 JUMPI PUSH2 0x1893 PUSH2 0xFAA JUMP JUMPDEST PUSH1 0x40 MSTORE DUP3 MLOAD DUP2 MSTORE PUSH1 0x20 DUP4 ADD MLOAD PUSH1 0x1 PUSH1 0x1 PUSH1 0x40 SHL SUB DUP2 AND DUP2 EQ PUSH2 0x18B4 JUMPI PUSH1 0x0 DUP1 REVERT JUMPDEST PUSH1 0x20 DUP3 ADD MSTORE PUSH2 0x18C6 DUP5 PUSH1 0x40 DUP6 ADD PUSH2 0x17F3 JUMP JUMPDEST PUSH1 0x40 DUP3 ADD MSTORE SWAP4 SWAP3 POP POP POP JUMP JUMPDEST PUSH1 0x0 PUSH1 0x20 DUP3 DUP5 SUB SLT ISZERO PUSH2 0x18E4 JUMPI PUSH1 0x0 DUP1 REVERT JUMPDEST DUP2 MLOAD PUSH2 0x14DE DUP2 PUSH2 0x1171 JUMP INVALID LOG2 PUSH5 0x6970667358 0x22 SLT KECCAK256 CALL 0xAF ADD 0xC PUSH20 0xE115BE436713D80E749FD1E35DF718311371F388 0xC9 0xEC DUP5 MUL BALANCE DUP1 CALLDATALOAD PUSH5 0x736F6C6343 STOP ADDMOD SHR STOP CALLER "
				},
				"gasEstimates": {
					"creation": {
						"codeDepositCost": "1287400",
						"executionCost": "infinite",
						"totalCost": "infinite"
					},
					"external": {
						"allowInitializePath((uint32,bytes32,uint64))": "infinite",
						"createJob(uint32,address,string,string,uint256,bytes)": "infinite",
						"createUserProfile(uint32,address,string,string[],string,bytes)": "infinite",
						"endpoint()": "infinite",
						"isComposeMsgSender((uint32,bytes32,uint64),bytes,address)": "786",
						"lzReceive((uint32,bytes32,uint64),bytes32,bytes,address,bytes)": "infinite",
						"nextNonce(uint32,bytes32)": "413",
						"oAppVersion()": "263",
						"owner()": "2398",
						"peers(uint32)": "2596",
						"quoteCreateJob(uint32,string,string,uint256,bytes)": "infinite",
						"quoteCreateUserProfile(uint32,string,string[],string,bytes)": "infinite",
						"renounceOwnership()": "infinite",
						"setDelegate(address)": "infinite",
						"setPeer(uint32,bytes32)": "26060",
						"transferOwnership(address)": "infinite"
					},
					"internal": {
						"_lzReceive(struct Origin calldata,bytes32,bytes calldata,address,bytes calldata)": "infinite"
					}
				},
				"methodIdentifiers": {
					"allowInitializePath((uint32,bytes32,uint64))": "ff7bd03d",
					"createJob(uint32,address,string,string,uint256,bytes)": "2bef96af",
					"createUserProfile(uint32,address,string,string[],string,bytes)": "ce997833",
					"endpoint()": "5e280f11",
					"isComposeMsgSender((uint32,bytes32,uint64),bytes,address)": "82413eac",
					"lzReceive((uint32,bytes32,uint64),bytes32,bytes,address,bytes)": "13137d65",
					"nextNonce(uint32,bytes32)": "7d25a05e",
					"oAppVersion()": "17442b70",
					"owner()": "8da5cb5b",
					"peers(uint32)": "bb0b6a53",
					"quoteCreateJob(uint32,string,string,uint256,bytes)": "08213dd6",
					"quoteCreateUserProfile(uint32,string,string[],string,bytes)": "682d54e6",
					"renounceOwnership()": "715018a6",
					"setDelegate(address)": "ca5eb5e1",
					"setPeer(uint32,bytes32)": "3400288b",
					"transferOwnership(address)": "f2fde38b"
				}
			},
			"storageLayout": {
				"storage": [
					{
						"astId": 1327,
						"contract": "LocalOpenWork_2-contracts.sol:LocalOpenWorkV2",
						"label": "_owner",
						"offset": 0,
						"slot": "0",
						"type": "t_address"
					},
					{
						"astId": 785,
						"contract": "LocalOpenWork_2-contracts.sol:LocalOpenWorkV2",
						"label": "peers",
						"offset": 0,
						"slot": "1",
						"type": "t_mapping(t_uint32,t_bytes32)"
					},
					{
						"astId": 1567,
						"contract": "LocalOpenWork_2-contracts.sol:LocalOpenWorkV2",
						"label": "_status",
						"offset": 0,
						"slot": "2",
						"type": "t_uint256"
					}
				],
				"types": {
					"t_address": {
						"encoding": "inplace",
						"label": "address",
						"numberOfBytes": "20"
					},
					"t_bytes32": {
						"encoding": "inplace",
						"label": "bytes32",
						"numberOfBytes": "32"
					},
					"t_mapping(t_uint32,t_bytes32)": {
						"encoding": "mapping",
						"key": "t_uint32",
						"label": "mapping(uint32 => bytes32)",
						"numberOfBytes": "32",
						"value": "t_bytes32"
					},
					"t_uint256": {
						"encoding": "inplace",
						"label": "uint256",
						"numberOfBytes": "32"
					},
					"t_uint32": {
						"encoding": "inplace",
						"label": "uint32",
						"numberOfBytes": "4"
					}
				}
			},
			"userdoc": {
				"kind": "user",
				"methods": {
					"allowInitializePath((uint32,bytes32,uint64))": {
						"notice": "Checks if the path initialization is allowed based on the provided origin."
					},
					"endpoint()": {
						"notice": "Retrieves the LayerZero endpoint associated with the OApp."
					},
					"isComposeMsgSender((uint32,bytes32,uint64),bytes,address)": {
						"notice": "Indicates whether an address is an approved composeMsg sender to the Endpoint."
					},
					"nextNonce(uint32,bytes32)": {
						"notice": "Retrieves the next nonce for a given source endpoint and sender address."
					},
					"oAppVersion()": {
						"notice": "Retrieves the OApp version information."
					},
					"peers(uint32)": {
						"notice": "Retrieves the peer (OApp) associated with a corresponding endpoint."
					},
					"setDelegate(address)": {
						"notice": "Sets the delegate address for the OApp."
					},
					"setPeer(uint32,bytes32)": {
						"notice": "Sets the peer address (OApp instance) for a corresponding endpoint."
					}
				},
				"version": 1
			}
		}
	}
}