{
	"fee_storage_sender.sol": {
		"SimpleArbitrumDispute": {
			"abi": [
				{
					"inputs": [
						{
							"internalType": "address",
							"name": "_endpoint",
							"type": "address"
						},
						{
							"internalType": "address",
							"name": "_owner",
							"type": "address"
						}
					],
					"stateMutability": "nonpayable",
					"type": "constructor"
				},
				{
					"inputs": [],
					"name": "InvalidDelegate",
					"type": "error"
				},
				{
					"inputs": [],
					"name": "InvalidEndpointCall",
					"type": "error"
				},
				{
					"inputs": [],
					"name": "LzTokenUnavailable",
					"type": "error"
				},
				{
					"inputs": [
						{
							"internalType": "uint32",
							"name": "eid",
							"type": "uint32"
						}
					],
					"name": "NoPeer",
					"type": "error"
				},
				{
					"inputs": [
						{
							"internalType": "uint256",
							"name": "msgValue",
							"type": "uint256"
						}
					],
					"name": "NotEnoughNative",
					"type": "error"
				},
				{
					"inputs": [
						{
							"internalType": "address",
							"name": "addr",
							"type": "address"
						}
					],
					"name": "OnlyEndpoint",
					"type": "error"
				},
				{
					"inputs": [
						{
							"internalType": "uint32",
							"name": "eid",
							"type": "uint32"
						},
						{
							"internalType": "bytes32",
							"name": "sender",
							"type": "bytes32"
						}
					],
					"name": "OnlyPeer",
					"type": "error"
				},
				{
					"inputs": [
						{
							"internalType": "address",
							"name": "owner",
							"type": "address"
						}
					],
					"name": "OwnableInvalidOwner",
					"type": "error"
				},
				{
					"inputs": [
						{
							"internalType": "address",
							"name": "account",
							"type": "address"
						}
					],
					"name": "OwnableUnauthorizedAccount",
					"type": "error"
				},
				{
					"inputs": [
						{
							"internalType": "address",
							"name": "token",
							"type": "address"
						}
					],
					"name": "SafeERC20FailedOperation",
					"type": "error"
				},
				{
					"anonymous": false,
					"inputs": [
						{
							"indexed": true,
							"internalType": "uint256",
							"name": "jobId",
							"type": "uint256"
						},
						{
							"indexed": false,
							"internalType": "uint256",
							"name": "fee",
							"type": "uint256"
						}
					],
					"name": "DisputeRaised",
					"type": "event"
				},
				{
					"anonymous": false,
					"inputs": [
						{
							"indexed": true,
							"internalType": "address",
							"name": "previousOwner",
							"type": "address"
						},
						{
							"indexed": true,
							"internalType": "address",
							"name": "newOwner",
							"type": "address"
						}
					],
					"name": "OwnershipTransferred",
					"type": "event"
				},
				{
					"anonymous": false,
					"inputs": [
						{
							"indexed": false,
							"internalType": "uint32",
							"name": "eid",
							"type": "uint32"
						},
						{
							"indexed": false,
							"internalType": "bytes32",
							"name": "peer",
							"type": "bytes32"
						}
					],
					"name": "PeerSet",
					"type": "event"
				},
				{
					"inputs": [],
					"name": "OPTIMISM_EID",
					"outputs": [
						{
							"internalType": "uint32",
							"name": "",
							"type": "uint32"
						}
					],
					"stateMutability": "view",
					"type": "function"
				},
				{
					"inputs": [
						{
							"components": [
								{
									"internalType": "uint32",
									"name": "srcEid",
									"type": "uint32"
								},
								{
									"internalType": "bytes32",
									"name": "sender",
									"type": "bytes32"
								},
								{
									"internalType": "uint64",
									"name": "nonce",
									"type": "uint64"
								}
							],
							"internalType": "struct Origin",
							"name": "origin",
							"type": "tuple"
						}
					],
					"name": "allowInitializePath",
					"outputs": [
						{
							"internalType": "bool",
							"name": "",
							"type": "bool"
						}
					],
					"stateMutability": "view",
					"type": "function"
				},
				{
					"inputs": [
						{
							"internalType": "uint256",
							"name": "",
							"type": "uint256"
						}
					],
					"name": "disputeFees",
					"outputs": [
						{
							"internalType": "uint256",
							"name": "",
							"type": "uint256"
						}
					],
					"stateMutability": "view",
					"type": "function"
				},
				{
					"inputs": [],
					"name": "endpoint",
					"outputs": [
						{
							"internalType": "contract ILayerZeroEndpointV2",
							"name": "",
							"type": "address"
						}
					],
					"stateMutability": "view",
					"type": "function"
				},
				{
					"inputs": [
						{
							"internalType": "uint256",
							"name": "_jobId",
							"type": "uint256"
						},
						{
							"internalType": "bytes",
							"name": "_options",
							"type": "bytes"
						}
					],
					"name": "getQuote",
					"outputs": [
						{
							"internalType": "uint256",
							"name": "",
							"type": "uint256"
						}
					],
					"stateMutability": "view",
					"type": "function"
				},
				{
					"inputs": [
						{
							"components": [
								{
									"internalType": "uint32",
									"name": "srcEid",
									"type": "uint32"
								},
								{
									"internalType": "bytes32",
									"name": "sender",
									"type": "bytes32"
								},
								{
									"internalType": "uint64",
									"name": "nonce",
									"type": "uint64"
								}
							],
							"internalType": "struct Origin",
							"name": "",
							"type": "tuple"
						},
						{
							"internalType": "bytes",
							"name": "",
							"type": "bytes"
						},
						{
							"internalType": "address",
							"name": "_sender",
							"type": "address"
						}
					],
					"name": "isComposeMsgSender",
					"outputs": [
						{
							"internalType": "bool",
							"name": "",
							"type": "bool"
						}
					],
					"stateMutability": "view",
					"type": "function"
				},
				{
					"inputs": [
						{
							"components": [
								{
									"internalType": "uint32",
									"name": "srcEid",
									"type": "uint32"
								},
								{
									"internalType": "bytes32",
									"name": "sender",
									"type": "bytes32"
								},
								{
									"internalType": "uint64",
									"name": "nonce",
									"type": "uint64"
								}
							],
							"internalType": "struct Origin",
							"name": "_origin",
							"type": "tuple"
						},
						{
							"internalType": "bytes32",
							"name": "_guid",
							"type": "bytes32"
						},
						{
							"internalType": "bytes",
							"name": "_message",
							"type": "bytes"
						},
						{
							"internalType": "address",
							"name": "_executor",
							"type": "address"
						},
						{
							"internalType": "bytes",
							"name": "_extraData",
							"type": "bytes"
						}
					],
					"name": "lzReceive",
					"outputs": [],
					"stateMutability": "payable",
					"type": "function"
				},
				{
					"inputs": [
						{
							"internalType": "uint32",
							"name": "",
							"type": "uint32"
						},
						{
							"internalType": "bytes32",
							"name": "",
							"type": "bytes32"
						}
					],
					"name": "nextNonce",
					"outputs": [
						{
							"internalType": "uint64",
							"name": "nonce",
							"type": "uint64"
						}
					],
					"stateMutability": "view",
					"type": "function"
				},
				{
					"inputs": [],
					"name": "oAppVersion",
					"outputs": [
						{
							"internalType": "uint64",
							"name": "senderVersion",
							"type": "uint64"
						},
						{
							"internalType": "uint64",
							"name": "receiverVersion",
							"type": "uint64"
						}
					],
					"stateMutability": "pure",
					"type": "function"
				},
				{
					"inputs": [],
					"name": "owner",
					"outputs": [
						{
							"internalType": "address",
							"name": "",
							"type": "address"
						}
					],
					"stateMutability": "view",
					"type": "function"
				},
				{
					"inputs": [
						{
							"internalType": "uint32",
							"name": "eid",
							"type": "uint32"
						}
					],
					"name": "peers",
					"outputs": [
						{
							"internalType": "bytes32",
							"name": "peer",
							"type": "bytes32"
						}
					],
					"stateMutability": "view",
					"type": "function"
				},
				{
					"inputs": [
						{
							"internalType": "uint256",
							"name": "_jobId",
							"type": "uint256"
						},
						{
							"internalType": "bytes",
							"name": "_options",
							"type": "bytes"
						}
					],
					"name": "raiseDispute",
					"outputs": [],
					"stateMutability": "payable",
					"type": "function"
				},
				{
					"inputs": [],
					"name": "renounceOwnership",
					"outputs": [],
					"stateMutability": "nonpayable",
					"type": "function"
				},
				{
					"inputs": [
						{
							"internalType": "address",
							"name": "_delegate",
							"type": "address"
						}
					],
					"name": "setDelegate",
					"outputs": [],
					"stateMutability": "nonpayable",
					"type": "function"
				},
				{
					"inputs": [
						{
							"internalType": "uint32",
							"name": "_eid",
							"type": "uint32"
						},
						{
							"internalType": "bytes32",
							"name": "_peer",
							"type": "bytes32"
						}
					],
					"name": "setPeer",
					"outputs": [],
					"stateMutability": "nonpayable",
					"type": "function"
				},
				{
					"inputs": [
						{
							"internalType": "address",
							"name": "newOwner",
							"type": "address"
						}
					],
					"name": "transferOwnership",
					"outputs": [],
					"stateMutability": "nonpayable",
					"type": "function"
				},
				{
					"inputs": [],
					"name": "withdraw",
					"outputs": [],
					"stateMutability": "nonpayable",
					"type": "function"
				},
				{
					"stateMutability": "payable",
					"type": "receive"
				}
			],
			"devdoc": {
				"details": "Simple dispute contract for Arbitrum - stores fee and sends data to Optimism",
				"errors": {
					"OwnableInvalidOwner(address)": [
						{
							"details": "The owner is not a valid owner account. (eg. `address(0)`)"
						}
					],
					"OwnableUnauthorizedAccount(address)": [
						{
							"details": "The caller account is not authorized to perform an operation."
						}
					],
					"SafeERC20FailedOperation(address)": [
						{
							"details": "An operation with an ERC-20 token failed."
						}
					]
				},
				"kind": "dev",
				"methods": {
					"allowInitializePath((uint32,bytes32,uint64))": {
						"details": "This indicates to the endpoint that the OApp has enabled msgs for this particular path to be received.This defaults to assuming if a peer has been set, its initialized. Can be overridden by the OApp if there is other logic to determine this.",
						"params": {
							"origin": "The origin information containing the source endpoint and sender address."
						},
						"returns": {
							"_0": "Whether the path has been initialized."
						}
					},
					"getQuote(uint256,bytes)": {
						"details": "Get quote for total fee needed"
					},
					"isComposeMsgSender((uint32,bytes32,uint64),bytes,address)": {
						"details": "_origin The origin information containing the source endpoint and sender address.  - srcEid: The source chain endpoint ID.  - sender: The sender address on the src chain.  - nonce: The nonce of the message._message The lzReceive payload.Applications can optionally choose to implement separate composeMsg senders that are NOT the bridging layer.The default sender IS the OAppReceiver implementer.",
						"params": {
							"_sender": "The sender address."
						},
						"returns": {
							"_0": "isSender Is a valid sender."
						}
					},
					"lzReceive((uint32,bytes32,uint64),bytes32,bytes,address,bytes)": {
						"details": "Entry point for receiving messages or packets from the endpoint.Entry point for receiving msg/packet from the LayerZero endpoint.",
						"params": {
							"_executor": "The address of the executor for the received message.",
							"_extraData": "Additional arbitrary data provided by the corresponding executor.",
							"_guid": "The unique identifier for the received LayerZero message.",
							"_message": "The payload of the received message.",
							"_origin": "The origin information containing the source endpoint and sender address.  - srcEid: The source chain endpoint ID.  - sender: The sender address on the src chain.  - nonce: The nonce of the message."
						}
					},
					"nextNonce(uint32,bytes32)": {
						"details": "_srcEid The source endpoint ID._sender The sender address.The path nonce starts from 1. If 0 is returned it means that there is NO nonce ordered enforcement.Is required by the off-chain executor to determine the OApp expects msg execution is ordered.This is also enforced by the OApp.By default this is NOT enabled. ie. nextNonce is hardcoded to return 0.",
						"returns": {
							"nonce": "The next nonce."
						}
					},
					"oAppVersion()": {
						"returns": {
							"receiverVersion": "The version of the OAppReceiver.sol implementation.",
							"senderVersion": "The version of the OAppSender.sol implementation."
						}
					},
					"owner()": {
						"details": "Returns the address of the current owner."
					},
					"raiseDispute(uint256,bytes)": {
						"details": "Raise dispute - store fee and send data to Optimism"
					},
					"renounceOwnership()": {
						"details": "Leaves the contract without owner. It will not be possible to call `onlyOwner` functions. Can only be called by the current owner. NOTE: Renouncing ownership will leave the contract without an owner, thereby disabling any functionality that is only available to the owner."
					},
					"setDelegate(address)": {
						"details": "Only the owner/admin of the OApp can call this function.Provides the ability for a delegate to set configs, on behalf of the OApp, directly on the Endpoint contract.",
						"params": {
							"_delegate": "The address of the delegate to be set."
						}
					},
					"setPeer(uint32,bytes32)": {
						"details": "Only the owner/admin of the OApp can call this function.Indicates that the peer is trusted to send LayerZero messages to this OApp.Set this to bytes32(0) to remove the peer address.Peer is a bytes32 to accommodate non-evm chains.",
						"params": {
							"_eid": "The endpoint ID.",
							"_peer": "The address of the peer to be associated with the corresponding endpoint."
						}
					},
					"transferOwnership(address)": {
						"details": "Transfers ownership of the contract to a new account (`newOwner`). Can only be called by the current owner."
					},
					"withdraw()": {
						"details": "Withdraw function (owner only)"
					}
				},
				"title": "SimpleArbitrumDispute",
				"version": 1
			},
			"evm": {
				"assembly": "    /* \"fee_storage_sender.sol\":438:2537  contract SimpleArbitrumDispute is OApp {... */\n  mstore(0x40, 0xa0)\n    /* \"fee_storage_sender.sol\":727:883  constructor(... */\n  callvalue\n  dup1\n  iszero\n  tag_1\n  jumpi\n  0x00\n  dup1\n  revert\ntag_1:\n  pop\n  mload(0x40)\n  sub(codesize, bytecodeSize)\n  dup1\n  bytecodeSize\n  dup4\n  codecopy\n  dup2\n  dup2\n  add\n  0x40\n  mstore\n  dup2\n  add\n  swap1\n  tag_2\n  swap2\n  swap1\n  tag_3\n  jump\t// in\ntag_2:\n    /* \"fee_storage_sender.sol\":801:810  _endpoint */\n  dup2\n    /* \"fee_storage_sender.sol\":812:818  _owner */\n  dup2\n    /* \"@layerzerolabs/oapp-evm/contracts/oapp/OApp.sol\":1024:1033  _endpoint */\n  dup2\n    /* \"@layerzerolabs/oapp-evm/contracts/oapp/OApp.sol\":1035:1044  _delegate */\n  dup2\n    /* \"fee_storage_sender.sol\":828:838  msg.sender */\n  caller\n    /* \"@openzeppelin/contracts/access/Ownable.sol\":1297:1298  0 */\n  0x00\n    /* \"@openzeppelin/contracts/access/Ownable.sol\":1273:1299  initialOwner == address(0) */\n  0xffffffffffffffffffffffffffffffffffffffff\n  and\n    /* \"@openzeppelin/contracts/access/Ownable.sol\":1273:1285  initialOwner */\n  dup2\n    /* \"@openzeppelin/contracts/access/Ownable.sol\":1273:1299  initialOwner == address(0) */\n  0xffffffffffffffffffffffffffffffffffffffff\n  and\n  sub\n    /* \"@openzeppelin/contracts/access/Ownable.sol\":1269:1364  if (initialOwner == address(0)) {... */\n  tag_9\n  jumpi\n    /* \"@openzeppelin/contracts/access/Ownable.sol\":1350:1351  0 */\n  0x00\n    /* \"@openzeppelin/contracts/access/Ownable.sol\":1322:1353  OwnableInvalidOwner(address(0)) */\n  mload(0x40)\n  0x1e4fbdf700000000000000000000000000000000000000000000000000000000\n  dup2\n  mstore\n  0x04\n  add\n  tag_10\n  swap2\n  swap1\n  tag_11\n  jump\t// in\ntag_10:\n  mload(0x40)\n  dup1\n  swap2\n  sub\n  swap1\n  revert\n    /* \"@openzeppelin/contracts/access/Ownable.sol\":1269:1364  if (initialOwner == address(0)) {... */\ntag_9:\n    /* \"@openzeppelin/contracts/access/Ownable.sol\":1373:1405  _transferOwnership(initialOwner) */\n  tag_12\n    /* \"@openzeppelin/contracts/access/Ownable.sol\":1392:1404  initialOwner */\n  dup2\n    /* \"@openzeppelin/contracts/access/Ownable.sol\":1373:1391  _transferOwnership */\n  shl(0x20, tag_13)\n    /* \"@openzeppelin/contracts/access/Ownable.sol\":1373:1405  _transferOwnership(initialOwner) */\n  0x20\n  shr\n  jump\t// in\ntag_12:\n    /* \"@openzeppelin/contracts/access/Ownable.sol\":1225:1412  constructor(address initialOwner) {... */\n  pop\n    /* \"@layerzerolabs/oapp-evm/contracts/oapp/OAppCore.sol\":1079:1088  _endpoint */\n  dup2\n    /* \"@layerzerolabs/oapp-evm/contracts/oapp/OAppCore.sol\":1047:1089  endpoint = ILayerZeroEndpointV2(_endpoint) */\n  0xffffffffffffffffffffffffffffffffffffffff\n  and\n  0x80\n  dup2\n  0xffffffffffffffffffffffffffffffffffffffff\n  and\n  dup2\n  mstore\n  pop\n  pop\n    /* \"@layerzerolabs/oapp-evm/contracts/oapp/OAppCore.sol\":1125:1126  0 */\n  0x00\n    /* \"@layerzerolabs/oapp-evm/contracts/oapp/OAppCore.sol\":1104:1127  _delegate == address(0) */\n  0xffffffffffffffffffffffffffffffffffffffff\n  and\n    /* \"@layerzerolabs/oapp-evm/contracts/oapp/OAppCore.sol\":1104:1113  _delegate */\n  dup2\n    /* \"@layerzerolabs/oapp-evm/contracts/oapp/OAppCore.sol\":1104:1127  _delegate == address(0) */\n  0xffffffffffffffffffffffffffffffffffffffff\n  and\n  sub\n    /* \"@layerzerolabs/oapp-evm/contracts/oapp/OAppCore.sol\":1100:1153  if (_delegate == address(0)) revert InvalidDelegate() */\n  tag_15\n  jumpi\n    /* \"@layerzerolabs/oapp-evm/contracts/oapp/OAppCore.sol\":1136:1153  InvalidDelegate() */\n  mload(0x40)\n  0xb586360400000000000000000000000000000000000000000000000000000000\n  dup2\n  mstore\n  0x04\n  add\n  mload(0x40)\n  dup1\n  swap2\n  sub\n  swap1\n  revert\n    /* \"@layerzerolabs/oapp-evm/contracts/oapp/OAppCore.sol\":1100:1153  if (_delegate == address(0)) revert InvalidDelegate() */\ntag_15:\n    /* \"@layerzerolabs/oapp-evm/contracts/oapp/OAppCore.sol\":1163:1171  endpoint */\n  mload(0x80)\n    /* \"@layerzerolabs/oapp-evm/contracts/oapp/OAppCore.sol\":1163:1183  endpoint.setDelegate */\n  0xffffffffffffffffffffffffffffffffffffffff\n  and\n  0xca5eb5e1\n    /* \"@layerzerolabs/oapp-evm/contracts/oapp/OAppCore.sol\":1184:1193  _delegate */\n  dup3\n    /* \"@layerzerolabs/oapp-evm/contracts/oapp/OAppCore.sol\":1163:1194  endpoint.setDelegate(_delegate) */\n  mload(0x40)\n  dup3\n  0xffffffff\n  and\n  0xe0\n  shl\n  dup2\n  mstore\n  0x04\n  add\n  tag_16\n  swap2\n  swap1\n  tag_11\n  jump\t// in\ntag_16:\n  0x00\n  mload(0x40)\n  dup1\n  dup4\n  sub\n  dup2\n  0x00\n  dup8\n  dup1\n  extcodesize\n  iszero\n  dup1\n  iszero\n  tag_17\n  jumpi\n  0x00\n  dup1\n  revert\ntag_17:\n  pop\n  gas\n  call\n  iszero\n  dup1\n  iszero\n  tag_19\n  jumpi\n  returndatasize\n  0x00\n  dup1\n  returndatacopy\n  revert(0x00, returndatasize)\ntag_19:\n  pop\n  pop\n  pop\n  pop\n    /* \"@layerzerolabs/oapp-evm/contracts/oapp/OAppCore.sol\":987:1201  constructor(address _endpoint, address _delegate) {... */\n  pop\n  pop\n    /* \"@layerzerolabs/oapp-evm/contracts/oapp/OApp.sol\":965:1048  constructor(address _endpoint, address _delegate) OAppCore(_endpoint, _delegate) {} */\n  pop\n  pop\n    /* \"fee_storage_sender.sol\":850:876  _transferOwnership(_owner) */\n  tag_22\n    /* \"fee_storage_sender.sol\":869:875  _owner */\n  dup2\n    /* \"fee_storage_sender.sol\":850:868  _transferOwnership */\n  shl(0x20, tag_13)\n    /* \"fee_storage_sender.sol\":850:876  _transferOwnership(_owner) */\n  0x20\n  shr\n  jump\t// in\ntag_22:\n    /* \"fee_storage_sender.sol\":727:883  constructor(... */\n  pop\n  pop\n    /* \"fee_storage_sender.sol\":438:2537  contract SimpleArbitrumDispute is OApp {... */\n  jump(tag_23)\n    /* \"@openzeppelin/contracts/access/Ownable.sol\":2912:3099  function _transferOwnership(address newOwner) internal virtual {... */\ntag_13:\n    /* \"@openzeppelin/contracts/access/Ownable.sol\":2985:3001  address oldOwner */\n  0x00\n    /* \"@openzeppelin/contracts/access/Ownable.sol\":3004:3010  _owner */\n  dup1\n  0x00\n  swap1\n  sload\n  swap1\n  0x0100\n  exp\n  swap1\n  div\n  0xffffffffffffffffffffffffffffffffffffffff\n  and\n    /* \"@openzeppelin/contracts/access/Ownable.sol\":2985:3010  address oldOwner = _owner */\n  swap1\n  pop\n    /* \"@openzeppelin/contracts/access/Ownable.sol\":3029:3037  newOwner */\n  dup2\n    /* \"@openzeppelin/contracts/access/Ownable.sol\":3020:3026  _owner */\n  0x00\n  dup1\n    /* \"@openzeppelin/contracts/access/Ownable.sol\":3020:3037  _owner = newOwner */\n  0x0100\n  exp\n  dup2\n  sload\n  dup2\n  0xffffffffffffffffffffffffffffffffffffffff\n  mul\n  not\n  and\n  swap1\n  dup4\n  0xffffffffffffffffffffffffffffffffffffffff\n  and\n  mul\n  or\n  swap1\n  sstore\n  pop\n    /* \"@openzeppelin/contracts/access/Ownable.sol\":3083:3091  newOwner */\n  dup2\n    /* \"@openzeppelin/contracts/access/Ownable.sol\":3052:3092  OwnershipTransferred(oldOwner, newOwner) */\n  0xffffffffffffffffffffffffffffffffffffffff\n  and\n    /* \"@openzeppelin/contracts/access/Ownable.sol\":3073:3081  oldOwner */\n  dup2\n    /* \"@openzeppelin/contracts/access/Ownable.sol\":3052:3092  OwnershipTransferred(oldOwner, newOwner) */\n  0xffffffffffffffffffffffffffffffffffffffff\n  and\n  0x8be0079c531659141344cd1fd0a4f28419497f9722a3daafe3b4186f6b6457e0\n  mload(0x40)\n  mload(0x40)\n  dup1\n  swap2\n  sub\n  swap1\n  log3\n    /* \"@openzeppelin/contracts/access/Ownable.sol\":2975:3099  {... */\n  pop\n    /* \"@openzeppelin/contracts/access/Ownable.sol\":2912:3099  function _transferOwnership(address newOwner) internal virtual {... */\n  pop\n  jump\t// out\n    /* \"#utility.yul\":88:205   */\ntag_26:\n    /* \"#utility.yul\":197:198   */\n  0x00\n    /* \"#utility.yul\":194:195   */\n  dup1\n    /* \"#utility.yul\":187:199   */\n  revert\n    /* \"#utility.yul\":334:460   */\ntag_28:\n    /* \"#utility.yul\":371:378   */\n  0x00\n    /* \"#utility.yul\":411:453   */\n  0xffffffffffffffffffffffffffffffffffffffff\n    /* \"#utility.yul\":404:409   */\n  dup3\n    /* \"#utility.yul\":400:454   */\n  and\n    /* \"#utility.yul\":389:454   */\n  swap1\n  pop\n    /* \"#utility.yul\":334:460   */\n  swap2\n  swap1\n  pop\n  jump\t// out\n    /* \"#utility.yul\":466:562   */\ntag_29:\n    /* \"#utility.yul\":503:510   */\n  0x00\n    /* \"#utility.yul\":532:556   */\n  tag_39\n    /* \"#utility.yul\":550:555   */\n  dup3\n    /* \"#utility.yul\":532:556   */\n  tag_28\n  jump\t// in\ntag_39:\n    /* \"#utility.yul\":521:556   */\n  swap1\n  pop\n    /* \"#utility.yul\":466:562   */\n  swap2\n  swap1\n  pop\n  jump\t// out\n    /* \"#utility.yul\":568:690   */\ntag_30:\n    /* \"#utility.yul\":641:665   */\n  tag_41\n    /* \"#utility.yul\":659:664   */\n  dup2\n    /* \"#utility.yul\":641:665   */\n  tag_29\n  jump\t// in\ntag_41:\n    /* \"#utility.yul\":634:639   */\n  dup2\n    /* \"#utility.yul\":631:666   */\n  eq\n    /* \"#utility.yul\":621:684   */\n  tag_42\n  jumpi\n    /* \"#utility.yul\":680:681   */\n  0x00\n    /* \"#utility.yul\":677:678   */\n  dup1\n    /* \"#utility.yul\":670:682   */\n  revert\n    /* \"#utility.yul\":621:684   */\ntag_42:\n    /* \"#utility.yul\":568:690   */\n  pop\n  jump\t// out\n    /* \"#utility.yul\":696:839   */\ntag_31:\n    /* \"#utility.yul\":753:758   */\n  0x00\n    /* \"#utility.yul\":784:790   */\n  dup2\n    /* \"#utility.yul\":778:791   */\n  mload\n    /* \"#utility.yul\":769:791   */\n  swap1\n  pop\n    /* \"#utility.yul\":800:833   */\n  tag_44\n    /* \"#utility.yul\":827:832   */\n  dup2\n    /* \"#utility.yul\":800:833   */\n  tag_30\n  jump\t// in\ntag_44:\n    /* \"#utility.yul\":696:839   */\n  swap3\n  swap2\n  pop\n  pop\n  jump\t// out\n    /* \"#utility.yul\":845:1352   */\ntag_3:\n    /* \"#utility.yul\":924:930   */\n  0x00\n    /* \"#utility.yul\":932:938   */\n  dup1\n    /* \"#utility.yul\":981:983   */\n  0x40\n    /* \"#utility.yul\":969:978   */\n  dup4\n    /* \"#utility.yul\":960:967   */\n  dup6\n    /* \"#utility.yul\":956:979   */\n  sub\n    /* \"#utility.yul\":952:984   */\n  slt\n    /* \"#utility.yul\":949:1068   */\n  iszero\n  tag_46\n  jumpi\n    /* \"#utility.yul\":987:1066   */\n  tag_47\n  tag_26\n  jump\t// in\ntag_47:\n    /* \"#utility.yul\":949:1068   */\ntag_46:\n    /* \"#utility.yul\":1107:1108   */\n  0x00\n    /* \"#utility.yul\":1132:1196   */\n  tag_48\n    /* \"#utility.yul\":1188:1195   */\n  dup6\n    /* \"#utility.yul\":1179:1185   */\n  dup3\n    /* \"#utility.yul\":1168:1177   */\n  dup7\n    /* \"#utility.yul\":1164:1186   */\n  add\n    /* \"#utility.yul\":1132:1196   */\n  tag_31\n  jump\t// in\ntag_48:\n    /* \"#utility.yul\":1122:1196   */\n  swap3\n  pop\n    /* \"#utility.yul\":1078:1206   */\n  pop\n    /* \"#utility.yul\":1245:1247   */\n  0x20\n    /* \"#utility.yul\":1271:1335   */\n  tag_49\n    /* \"#utility.yul\":1327:1334   */\n  dup6\n    /* \"#utility.yul\":1318:1324   */\n  dup3\n    /* \"#utility.yul\":1307:1316   */\n  dup7\n    /* \"#utility.yul\":1303:1325   */\n  add\n    /* \"#utility.yul\":1271:1335   */\n  tag_31\n  jump\t// in\ntag_49:\n    /* \"#utility.yul\":1261:1335   */\n  swap2\n  pop\n    /* \"#utility.yul\":1216:1345   */\n  pop\n    /* \"#utility.yul\":845:1352   */\n  swap3\n  pop\n  swap3\n  swap1\n  pop\n  jump\t// out\n    /* \"#utility.yul\":1358:1476   */\ntag_32:\n    /* \"#utility.yul\":1445:1469   */\n  tag_51\n    /* \"#utility.yul\":1463:1468   */\n  dup2\n    /* \"#utility.yul\":1445:1469   */\n  tag_29\n  jump\t// in\ntag_51:\n    /* \"#utility.yul\":1440:1443   */\n  dup3\n    /* \"#utility.yul\":1433:1470   */\n  mstore\n    /* \"#utility.yul\":1358:1476   */\n  pop\n  pop\n  jump\t// out\n    /* \"#utility.yul\":1482:1704   */\ntag_11:\n    /* \"#utility.yul\":1575:1579   */\n  0x00\n    /* \"#utility.yul\":1613:1615   */\n  0x20\n    /* \"#utility.yul\":1602:1611   */\n  dup3\n    /* \"#utility.yul\":1598:1616   */\n  add\n    /* \"#utility.yul\":1590:1616   */\n  swap1\n  pop\n    /* \"#utility.yul\":1626:1697   */\n  tag_53\n    /* \"#utility.yul\":1694:1695   */\n  0x00\n    /* \"#utility.yul\":1683:1692   */\n  dup4\n    /* \"#utility.yul\":1679:1696   */\n  add\n    /* \"#utility.yul\":1670:1676   */\n  dup5\n    /* \"#utility.yul\":1626:1697   */\n  tag_32\n  jump\t// in\ntag_53:\n    /* \"#utility.yul\":1482:1704   */\n  swap3\n  swap2\n  pop\n  pop\n  jump\t// out\n    /* \"fee_storage_sender.sol\":438:2537  contract SimpleArbitrumDispute is OApp {... */\ntag_23:\n  mload(0x80)\n  codecopy(0x00, dataOffset(sub_0), dataSize(sub_0))\n  0x00\n  assignImmutable(\"0xef80077fd7ee005d1b0377e3e959eb59d0ca83c4839422f862a3540a66a91fb5\")\n  return(0x00, dataSize(sub_0))\nstop\n\nsub_0: assembly {\n        /* \"fee_storage_sender.sol\":438:2537  contract SimpleArbitrumDispute is OApp {... */\n      mstore(0x40, 0x80)\n      jumpi(tag_1, lt(calldatasize, 0x04))\n      shr(0xe0, calldataload(0x00))\n      dup1\n      0x82413eac\n      gt\n      tag_20\n      jumpi\n      dup1\n      0xca5eb5e1\n      gt\n      tag_21\n      jumpi\n      dup1\n      0xca5eb5e1\n      eq\n      tag_15\n      jumpi\n      dup1\n      0xd2705fd3\n      eq\n      tag_16\n      jumpi\n      dup1\n      0xf2fde38b\n      eq\n      tag_17\n      jumpi\n      dup1\n      0xf5599827\n      eq\n      tag_18\n      jumpi\n      dup1\n      0xff7bd03d\n      eq\n      tag_19\n      jumpi\n      jump(tag_2)\n    tag_21:\n      dup1\n      0x82413eac\n      eq\n      tag_11\n      jumpi\n      dup1\n      0x8da5cb5b\n      eq\n      tag_12\n      jumpi\n      dup1\n      0xa68f3709\n      eq\n      tag_13\n      jumpi\n      dup1\n      0xbb0b6a53\n      eq\n      tag_14\n      jumpi\n      jump(tag_2)\n    tag_20:\n      dup1\n      0x47258206\n      gt\n      tag_22\n      jumpi\n      dup1\n      0x47258206\n      eq\n      tag_7\n      jumpi\n      dup1\n      0x5e280f11\n      eq\n      tag_8\n      jumpi\n      dup1\n      0x715018a6\n      eq\n      tag_9\n      jumpi\n      dup1\n      0x7d25a05e\n      eq\n      tag_10\n      jumpi\n      jump(tag_2)\n    tag_22:\n      dup1\n      0x13137d65\n      eq\n      tag_3\n      jumpi\n      dup1\n      0x17442b70\n      eq\n      tag_4\n      jumpi\n      dup1\n      0x3400288b\n      eq\n      tag_5\n      jumpi\n      dup1\n      0x3ccfd60b\n      eq\n      tag_6\n      jumpi\n      jump(tag_2)\n    tag_1:\n      jumpi(tag_2, calldatasize)\n      stop\n    tag_2:\n      0x00\n      dup1\n      revert\n        /* \"@layerzerolabs/oapp-evm/contracts/oapp/OAppReceiver.sol\":4368:5076  function lzReceive(... */\n    tag_3:\n      tag_25\n      0x04\n      dup1\n      calldatasize\n      sub\n      dup2\n      add\n      swap1\n      tag_26\n      swap2\n      swap1\n      tag_27\n      jump\t// in\n    tag_26:\n      tag_28\n      jump\t// in\n    tag_25:\n      stop\n        /* \"@layerzerolabs/oapp-evm/contracts/oapp/OApp.sol\":1287:1522  function oAppVersion()... */\n    tag_4:\n      callvalue\n      dup1\n      iszero\n      tag_29\n      jumpi\n      0x00\n      dup1\n      revert\n    tag_29:\n      pop\n      tag_30\n      tag_31\n      jump\t// in\n    tag_30:\n      mload(0x40)\n      tag_32\n      swap3\n      swap2\n      swap1\n      tag_33\n      jump\t// in\n    tag_32:\n      mload(0x40)\n      dup1\n      swap2\n      sub\n      swap1\n      return\n        /* \"@layerzerolabs/oapp-evm/contracts/oapp/OAppCore.sol\":1724:1832  function setPeer(uint32 _eid, bytes32 _peer) public virtual onlyOwner {... */\n    tag_5:\n      callvalue\n      dup1\n      iszero\n      tag_34\n      jumpi\n      0x00\n      dup1\n      revert\n    tag_34:\n      pop\n      tag_35\n      0x04\n      dup1\n      calldatasize\n      sub\n      dup2\n      add\n      swap1\n      tag_36\n      swap2\n      swap1\n      tag_37\n      jump\t// in\n    tag_36:\n      tag_38\n      jump\t// in\n    tag_35:\n      stop\n        /* \"fee_storage_sender.sol\":2396:2500  function withdraw() external onlyOwner {... */\n    tag_6:\n      callvalue\n      dup1\n      iszero\n      tag_39\n      jumpi\n      0x00\n      dup1\n      revert\n    tag_39:\n      pop\n      tag_40\n      tag_41\n      jump\t// in\n    tag_40:\n      stop\n        /* \"fee_storage_sender.sol\":615:658  uint32 public constant OPTIMISM_EID = 40232 */\n    tag_7:\n      callvalue\n      dup1\n      iszero\n      tag_42\n      jumpi\n      0x00\n      dup1\n      revert\n    tag_42:\n      pop\n      tag_43\n      tag_44\n      jump\t// in\n    tag_43:\n      mload(0x40)\n      tag_45\n      swap2\n      swap1\n      tag_46\n      jump\t// in\n    tag_45:\n      mload(0x40)\n      dup1\n      swap2\n      sub\n      swap1\n      return\n        /* \"@layerzerolabs/oapp-evm/contracts/oapp/OAppCore.sol\":446:492  ILayerZeroEndpointV2 public immutable endpoint */\n    tag_8:\n      callvalue\n      dup1\n      iszero\n      tag_47\n      jumpi\n      0x00\n      dup1\n      revert\n    tag_47:\n      pop\n      tag_48\n      tag_49\n      jump\t// in\n    tag_48:\n      mload(0x40)\n      tag_50\n      swap2\n      swap1\n      tag_51\n      jump\t// in\n    tag_50:\n      mload(0x40)\n      dup1\n      swap2\n      sub\n      swap1\n      return\n        /* \"@openzeppelin/contracts/access/Ownable.sol\":2293:2394  function renounceOwnership() public virtual onlyOwner {... */\n    tag_9:\n      callvalue\n      dup1\n      iszero\n      tag_52\n      jumpi\n      0x00\n      dup1\n      revert\n    tag_52:\n      pop\n      tag_53\n      tag_54\n      jump\t// in\n    tag_53:\n      stop\n        /* \"@layerzerolabs/oapp-evm/contracts/oapp/OAppReceiver.sol\":3507:3635  function nextNonce(uint32 /*_srcEid*/, bytes32 /*_sender*/) public view virtual returns (uint64 nonce) {... */\n    tag_10:\n      callvalue\n      dup1\n      iszero\n      tag_55\n      jumpi\n      0x00\n      dup1\n      revert\n    tag_55:\n      pop\n      tag_56\n      0x04\n      dup1\n      calldatasize\n      sub\n      dup2\n      add\n      swap1\n      tag_57\n      swap2\n      swap1\n      tag_37\n      jump\t// in\n    tag_57:\n      tag_58\n      jump\t// in\n    tag_56:\n      mload(0x40)\n      tag_59\n      swap2\n      swap1\n      tag_60\n      jump\t// in\n    tag_59:\n      mload(0x40)\n      dup1\n      swap2\n      sub\n      swap1\n      return\n        /* \"@layerzerolabs/oapp-evm/contracts/oapp/OAppReceiver.sol\":2013:2229  function isComposeMsgSender(... */\n    tag_11:\n      callvalue\n      dup1\n      iszero\n      tag_61\n      jumpi\n      0x00\n      dup1\n      revert\n    tag_61:\n      pop\n      tag_62\n      0x04\n      dup1\n      calldatasize\n      sub\n      dup2\n      add\n      swap1\n      tag_63\n      swap2\n      swap1\n      tag_64\n      jump\t// in\n    tag_63:\n      tag_65\n      jump\t// in\n    tag_62:\n      mload(0x40)\n      tag_66\n      swap2\n      swap1\n      tag_67\n      jump\t// in\n    tag_66:\n      mload(0x40)\n      dup1\n      swap2\n      sub\n      swap1\n      return\n        /* \"@openzeppelin/contracts/access/Ownable.sol\":1638:1723  function owner() public view virtual returns (address) {... */\n    tag_12:\n      callvalue\n      dup1\n      iszero\n      tag_68\n      jumpi\n      0x00\n      dup1\n      revert\n    tag_68:\n      pop\n      tag_69\n      tag_70\n      jump\t// in\n    tag_69:\n      mload(0x40)\n      tag_71\n      swap2\n      swap1\n      tag_72\n      jump\t// in\n    tag_71:\n      mload(0x40)\n      dup1\n      swap2\n      sub\n      swap1\n      return\n        /* \"fee_storage_sender.sol\":522:568  mapping(uint256 => uint256) public disputeFees */\n    tag_13:\n      callvalue\n      dup1\n      iszero\n      tag_73\n      jumpi\n      0x00\n      dup1\n      revert\n    tag_73:\n      pop\n      tag_74\n      0x04\n      dup1\n      calldatasize\n      sub\n      dup2\n      add\n      swap1\n      tag_75\n      swap2\n      swap1\n      tag_76\n      jump\t// in\n    tag_75:\n      tag_77\n      jump\t// in\n    tag_74:\n      mload(0x40)\n      tag_78\n      swap2\n      swap1\n      tag_79\n      jump\t// in\n    tag_78:\n      mload(0x40)\n      dup1\n      swap2\n      sub\n      swap1\n      return\n        /* \"@layerzerolabs/oapp-evm/contracts/oapp/OAppCore.sol\":569:617  mapping(uint32 eid => bytes32 peer) public peers */\n    tag_14:\n      callvalue\n      dup1\n      iszero\n      tag_80\n      jumpi\n      0x00\n      dup1\n      revert\n    tag_80:\n      pop\n      tag_81\n      0x04\n      dup1\n      calldatasize\n      sub\n      dup2\n      add\n      swap1\n      tag_82\n      swap2\n      swap1\n      tag_83\n      jump\t// in\n    tag_82:\n      tag_84\n      jump\t// in\n    tag_81:\n      mload(0x40)\n      tag_85\n      swap2\n      swap1\n      tag_86\n      jump\t// in\n    tag_85:\n      mload(0x40)\n      dup1\n      swap2\n      sub\n      swap1\n      return\n        /* \"@layerzerolabs/oapp-evm/contracts/oapp/OAppCore.sol\":3252:3357  function setDelegate(address _delegate) public onlyOwner {... */\n    tag_15:\n      callvalue\n      dup1\n      iszero\n      tag_87\n      jumpi\n      0x00\n      dup1\n      revert\n    tag_87:\n      pop\n      tag_88\n      0x04\n      dup1\n      calldatasize\n      sub\n      dup2\n      add\n      swap1\n      tag_89\n      swap2\n      swap1\n      tag_90\n      jump\t// in\n    tag_89:\n      tag_91\n      jump\t// in\n    tag_88:\n      stop\n        /* \"fee_storage_sender.sol\":969:1699  function raiseDispute(uint256 _jobId, bytes calldata _options) external payable {... */\n    tag_16:\n      tag_92\n      0x04\n      dup1\n      calldatasize\n      sub\n      dup2\n      add\n      swap1\n      tag_93\n      swap2\n      swap1\n      tag_94\n      jump\t// in\n    tag_93:\n      tag_95\n      jump\t// in\n    tag_92:\n      stop\n        /* \"@openzeppelin/contracts/access/Ownable.sol\":2543:2758  function transferOwnership(address newOwner) public virtual onlyOwner {... */\n    tag_17:\n      callvalue\n      dup1\n      iszero\n      tag_96\n      jumpi\n      0x00\n      dup1\n      revert\n    tag_96:\n      pop\n      tag_97\n      0x04\n      dup1\n      calldatasize\n      sub\n      dup2\n      add\n      swap1\n      tag_98\n      swap2\n      swap1\n      tag_90\n      jump\t// in\n    tag_98:\n      tag_99\n      jump\t// in\n    tag_97:\n      stop\n        /* \"fee_storage_sender.sol\":1764:2028  function getQuote(uint256 _jobId, bytes calldata _options) external view returns (uint256) {... */\n    tag_18:\n      callvalue\n      dup1\n      iszero\n      tag_100\n      jumpi\n      0x00\n      dup1\n      revert\n    tag_100:\n      pop\n      tag_101\n      0x04\n      dup1\n      calldatasize\n      sub\n      dup2\n      add\n      swap1\n      tag_102\n      swap2\n      swap1\n      tag_94\n      jump\t// in\n    tag_102:\n      tag_103\n      jump\t// in\n    tag_101:\n      mload(0x40)\n      tag_104\n      swap2\n      swap1\n      tag_79\n      jump\t// in\n    tag_104:\n      mload(0x40)\n      dup1\n      swap2\n      sub\n      swap1\n      return\n        /* \"@layerzerolabs/oapp-evm/contracts/oapp/OAppReceiver.sol\":2771:2920  function allowInitializePath(Origin calldata origin) public view virtual returns (bool) {... */\n    tag_19:\n      callvalue\n      dup1\n      iszero\n      tag_105\n      jumpi\n      0x00\n      dup1\n      revert\n    tag_105:\n      pop\n      tag_106\n      0x04\n      dup1\n      calldatasize\n      sub\n      dup2\n      add\n      swap1\n      tag_107\n      swap2\n      swap1\n      tag_108\n      jump\t// in\n    tag_107:\n      tag_109\n      jump\t// in\n    tag_106:\n      mload(0x40)\n      tag_110\n      swap2\n      swap1\n      tag_67\n      jump\t// in\n    tag_110:\n      mload(0x40)\n      dup1\n      swap2\n      sub\n      swap1\n      return\n        /* \"@layerzerolabs/oapp-evm/contracts/oapp/OAppReceiver.sol\":4368:5076  function lzReceive(... */\n    tag_28:\n        /* \"@layerzerolabs/oapp-evm/contracts/oapp/OAppReceiver.sol\":4694:4704  msg.sender */\n      caller\n        /* \"@layerzerolabs/oapp-evm/contracts/oapp/OAppReceiver.sol\":4673:4704  address(endpoint) != msg.sender */\n      0xffffffffffffffffffffffffffffffffffffffff\n      and\n        /* \"@layerzerolabs/oapp-evm/contracts/oapp/OAppReceiver.sol\":4681:4689  endpoint */\n      immutable(\"0xef80077fd7ee005d1b0377e3e959eb59d0ca83c4839422f862a3540a66a91fb5\")\n        /* \"@layerzerolabs/oapp-evm/contracts/oapp/OAppReceiver.sol\":4673:4704  address(endpoint) != msg.sender */\n      0xffffffffffffffffffffffffffffffffffffffff\n      and\n      eq\n        /* \"@layerzerolabs/oapp-evm/contracts/oapp/OAppReceiver.sol\":4669:4737  if (address(endpoint) != msg.sender) revert OnlyEndpoint(msg.sender) */\n      tag_112\n      jumpi\n        /* \"@layerzerolabs/oapp-evm/contracts/oapp/OAppReceiver.sol\":4726:4736  msg.sender */\n      caller\n        /* \"@layerzerolabs/oapp-evm/contracts/oapp/OAppReceiver.sol\":4713:4737  OnlyEndpoint(msg.sender) */\n      mload(0x40)\n      0x91ac5e4f00000000000000000000000000000000000000000000000000000000\n      dup2\n      mstore\n      0x04\n      add\n      tag_113\n      swap2\n      swap1\n      tag_72\n      jump\t// in\n    tag_113:\n      mload(0x40)\n      dup1\n      swap2\n      sub\n      swap1\n      revert\n        /* \"@layerzerolabs/oapp-evm/contracts/oapp/OAppReceiver.sol\":4669:4737  if (address(endpoint) != msg.sender) revert OnlyEndpoint(msg.sender) */\n    tag_112:\n        /* \"@layerzerolabs/oapp-evm/contracts/oapp/OAppReceiver.sol\":4873:4880  _origin */\n      dup7\n        /* \"@layerzerolabs/oapp-evm/contracts/oapp/OAppReceiver.sol\":4873:4887  _origin.sender */\n      0x20\n      add\n      calldataload\n        /* \"@layerzerolabs/oapp-evm/contracts/oapp/OAppReceiver.sol\":4837:4869  _getPeerOrRevert(_origin.srcEid) */\n      tag_114\n        /* \"@layerzerolabs/oapp-evm/contracts/oapp/OAppReceiver.sol\":4854:4861  _origin */\n      dup9\n        /* \"@layerzerolabs/oapp-evm/contracts/oapp/OAppReceiver.sol\":4854:4868  _origin.srcEid */\n      0x00\n      add\n      0x20\n      dup2\n      add\n      swap1\n      tag_115\n      swap2\n      swap1\n      tag_83\n      jump\t// in\n    tag_115:\n        /* \"@layerzerolabs/oapp-evm/contracts/oapp/OAppReceiver.sol\":4837:4853  _getPeerOrRevert */\n      tag_116\n        /* \"@layerzerolabs/oapp-evm/contracts/oapp/OAppReceiver.sol\":4837:4869  _getPeerOrRevert(_origin.srcEid) */\n      jump\t// in\n    tag_114:\n        /* \"@layerzerolabs/oapp-evm/contracts/oapp/OAppReceiver.sol\":4837:4887  _getPeerOrRevert(_origin.srcEid) != _origin.sender */\n      eq\n        /* \"@layerzerolabs/oapp-evm/contracts/oapp/OAppReceiver.sol\":4833:4936  if (_getPeerOrRevert(_origin.srcEid) != _origin.sender) revert OnlyPeer(_origin.srcEid, _origin.sender) */\n      tag_117\n      jumpi\n        /* \"@layerzerolabs/oapp-evm/contracts/oapp/OAppReceiver.sol\":4905:4912  _origin */\n      dup7\n        /* \"@layerzerolabs/oapp-evm/contracts/oapp/OAppReceiver.sol\":4905:4919  _origin.srcEid */\n      0x00\n      add\n      0x20\n      dup2\n      add\n      swap1\n      tag_118\n      swap2\n      swap1\n      tag_83\n      jump\t// in\n    tag_118:\n        /* \"@layerzerolabs/oapp-evm/contracts/oapp/OAppReceiver.sol\":4921:4928  _origin */\n      dup8\n        /* \"@layerzerolabs/oapp-evm/contracts/oapp/OAppReceiver.sol\":4921:4935  _origin.sender */\n      0x20\n      add\n      calldataload\n        /* \"@layerzerolabs/oapp-evm/contracts/oapp/OAppReceiver.sol\":4896:4936  OnlyPeer(_origin.srcEid, _origin.sender) */\n      mload(0x40)\n      0xc26bebcc00000000000000000000000000000000000000000000000000000000\n      dup2\n      mstore\n      0x04\n      add\n      tag_119\n      swap3\n      swap2\n      swap1\n      tag_120\n      jump\t// in\n    tag_119:\n      mload(0x40)\n      dup1\n      swap2\n      sub\n      swap1\n      revert\n        /* \"@layerzerolabs/oapp-evm/contracts/oapp/OAppReceiver.sol\":4833:4936  if (_getPeerOrRevert(_origin.srcEid) != _origin.sender) revert OnlyPeer(_origin.srcEid, _origin.sender) */\n    tag_117:\n        /* \"@layerzerolabs/oapp-evm/contracts/oapp/OAppReceiver.sol\":5010:5069  _lzReceive(_origin, _guid, _message, _executor, _extraData) */\n      tag_121\n        /* \"@layerzerolabs/oapp-evm/contracts/oapp/OAppReceiver.sol\":5021:5028  _origin */\n      dup8\n        /* \"@layerzerolabs/oapp-evm/contracts/oapp/OAppReceiver.sol\":5030:5035  _guid */\n      dup8\n        /* \"@layerzerolabs/oapp-evm/contracts/oapp/OAppReceiver.sol\":5037:5045  _message */\n      dup8\n      dup8\n        /* \"@layerzerolabs/oapp-evm/contracts/oapp/OAppReceiver.sol\":5047:5056  _executor */\n      dup8\n        /* \"@layerzerolabs/oapp-evm/contracts/oapp/OAppReceiver.sol\":5058:5068  _extraData */\n      dup8\n      dup8\n        /* \"@layerzerolabs/oapp-evm/contracts/oapp/OAppReceiver.sol\":5010:5020  _lzReceive */\n      tag_122\n        /* \"@layerzerolabs/oapp-evm/contracts/oapp/OAppReceiver.sol\":5010:5069  _lzReceive(_origin, _guid, _message, _executor, _extraData) */\n      jump\t// in\n    tag_121:\n        /* \"@layerzerolabs/oapp-evm/contracts/oapp/OAppReceiver.sol\":4368:5076  function lzReceive(... */\n      pop\n      pop\n      pop\n      pop\n      pop\n      pop\n      pop\n      jump\t// out\n        /* \"@layerzerolabs/oapp-evm/contracts/oapp/OApp.sol\":1287:1522  function oAppVersion()... */\n    tag_31:\n        /* \"@layerzerolabs/oapp-evm/contracts/oapp/OApp.sol\":1414:1434  uint64 senderVersion */\n      0x00\n        /* \"@layerzerolabs/oapp-evm/contracts/oapp/OApp.sol\":1436:1458  uint64 receiverVersion */\n      dup1\n        /* \"@layerzerolabs/oapp-evm/contracts/oapp/OAppSender.sol\":843:844  1 */\n      0x01\n        /* \"@layerzerolabs/oapp-evm/contracts/oapp/OAppReceiver.sol\":678:679  2 */\n      0x02\n        /* \"@layerzerolabs/oapp-evm/contracts/oapp/OApp.sol\":1474:1515  return (SENDER_VERSION, RECEIVER_VERSION) */\n      swap2\n      pop\n      swap2\n      pop\n        /* \"@layerzerolabs/oapp-evm/contracts/oapp/OApp.sol\":1287:1522  function oAppVersion()... */\n      swap1\n      swap2\n      jump\t// out\n        /* \"@layerzerolabs/oapp-evm/contracts/oapp/OAppCore.sol\":1724:1832  function setPeer(uint32 _eid, bytes32 _peer) public virtual onlyOwner {... */\n    tag_38:\n        /* \"@openzeppelin/contracts/access/Ownable.sol\":1531:1544  _checkOwner() */\n      tag_125\n        /* \"@openzeppelin/contracts/access/Ownable.sol\":1531:1542  _checkOwner */\n      tag_126\n        /* \"@openzeppelin/contracts/access/Ownable.sol\":1531:1544  _checkOwner() */\n      jump\t// in\n    tag_125:\n        /* \"@layerzerolabs/oapp-evm/contracts/oapp/OAppCore.sol\":1804:1825  _setPeer(_eid, _peer) */\n      tag_128\n        /* \"@layerzerolabs/oapp-evm/contracts/oapp/OAppCore.sol\":1813:1817  _eid */\n      dup3\n        /* \"@layerzerolabs/oapp-evm/contracts/oapp/OAppCore.sol\":1819:1824  _peer */\n      dup3\n        /* \"@layerzerolabs/oapp-evm/contracts/oapp/OAppCore.sol\":1804:1812  _setPeer */\n      tag_129\n        /* \"@layerzerolabs/oapp-evm/contracts/oapp/OAppCore.sol\":1804:1825  _setPeer(_eid, _peer) */\n      jump\t// in\n    tag_128:\n        /* \"@layerzerolabs/oapp-evm/contracts/oapp/OAppCore.sol\":1724:1832  function setPeer(uint32 _eid, bytes32 _peer) public virtual onlyOwner {... */\n      pop\n      pop\n      jump\t// out\n        /* \"fee_storage_sender.sol\":2396:2500  function withdraw() external onlyOwner {... */\n    tag_41:\n        /* \"@openzeppelin/contracts/access/Ownable.sol\":1531:1544  _checkOwner() */\n      tag_131\n        /* \"@openzeppelin/contracts/access/Ownable.sol\":1531:1542  _checkOwner */\n      tag_126\n        /* \"@openzeppelin/contracts/access/Ownable.sol\":1531:1544  _checkOwner() */\n      jump\t// in\n    tag_131:\n        /* \"fee_storage_sender.sol\":2453:2460  owner() */\n      tag_133\n        /* \"fee_storage_sender.sol\":2453:2458  owner */\n      tag_70\n        /* \"fee_storage_sender.sol\":2453:2460  owner() */\n      jump\t// in\n    tag_133:\n        /* \"fee_storage_sender.sol\":2445:2470  payable(owner()).transfer */\n      0xffffffffffffffffffffffffffffffffffffffff\n      and\n        /* \"fee_storage_sender.sol\":2445:2493  payable(owner()).transfer(address(this).balance) */\n      0x08fc\n        /* \"fee_storage_sender.sol\":2471:2492  address(this).balance */\n      selfbalance\n        /* \"fee_storage_sender.sol\":2445:2493  payable(owner()).transfer(address(this).balance) */\n      swap1\n      dup2\n      iszero\n      mul\n      swap1\n      mload(0x40)\n      0x00\n      mload(0x40)\n      dup1\n      dup4\n      sub\n      dup2\n      dup6\n      dup9\n      dup9\n      call\n      swap4\n      pop\n      pop\n      pop\n      pop\n      iszero\n      dup1\n      iszero\n      tag_135\n      jumpi\n      returndatasize\n      0x00\n      dup1\n      returndatacopy\n      revert(0x00, returndatasize)\n    tag_135:\n      pop\n        /* \"fee_storage_sender.sol\":2396:2500  function withdraw() external onlyOwner {... */\n      jump\t// out\n        /* \"fee_storage_sender.sol\":615:658  uint32 public constant OPTIMISM_EID = 40232 */\n    tag_44:\n        /* \"fee_storage_sender.sol\":653:658  40232 */\n      0x9d28\n        /* \"fee_storage_sender.sol\":615:658  uint32 public constant OPTIMISM_EID = 40232 */\n      dup2\n      jump\t// out\n        /* \"@layerzerolabs/oapp-evm/contracts/oapp/OAppCore.sol\":446:492  ILayerZeroEndpointV2 public immutable endpoint */\n    tag_49:\n      immutable(\"0xef80077fd7ee005d1b0377e3e959eb59d0ca83c4839422f862a3540a66a91fb5\")\n      dup2\n      jump\t// out\n        /* \"@openzeppelin/contracts/access/Ownable.sol\":2293:2394  function renounceOwnership() public virtual onlyOwner {... */\n    tag_54:\n        /* \"@openzeppelin/contracts/access/Ownable.sol\":1531:1544  _checkOwner() */\n      tag_137\n        /* \"@openzeppelin/contracts/access/Ownable.sol\":1531:1542  _checkOwner */\n      tag_126\n        /* \"@openzeppelin/contracts/access/Ownable.sol\":1531:1544  _checkOwner() */\n      jump\t// in\n    tag_137:\n        /* \"@openzeppelin/contracts/access/Ownable.sol\":2357:2387  _transferOwnership(address(0)) */\n      tag_139\n        /* \"@openzeppelin/contracts/access/Ownable.sol\":2384:2385  0 */\n      0x00\n        /* \"@openzeppelin/contracts/access/Ownable.sol\":2357:2375  _transferOwnership */\n      tag_140\n        /* \"@openzeppelin/contracts/access/Ownable.sol\":2357:2387  _transferOwnership(address(0)) */\n      jump\t// in\n    tag_139:\n        /* \"@openzeppelin/contracts/access/Ownable.sol\":2293:2394  function renounceOwnership() public virtual onlyOwner {... */\n      jump\t// out\n        /* \"@layerzerolabs/oapp-evm/contracts/oapp/OAppReceiver.sol\":3507:3635  function nextNonce(uint32 /*_srcEid*/, bytes32 /*_sender*/) public view virtual returns (uint64 nonce) {... */\n    tag_58:\n        /* \"@layerzerolabs/oapp-evm/contracts/oapp/OAppReceiver.sol\":3596:3608  uint64 nonce */\n      0x00\n        /* \"@layerzerolabs/oapp-evm/contracts/oapp/OAppReceiver.sol\":3507:3635  function nextNonce(uint32 /*_srcEid*/, bytes32 /*_sender*/) public view virtual returns (uint64 nonce) {... */\n      swap3\n      swap2\n      pop\n      pop\n      jump\t// out\n        /* \"@layerzerolabs/oapp-evm/contracts/oapp/OAppReceiver.sol\":2013:2229  function isComposeMsgSender(... */\n    tag_65:\n        /* \"@layerzerolabs/oapp-evm/contracts/oapp/OAppReceiver.sol\":2175:2179  bool */\n      0x00\n        /* \"@layerzerolabs/oapp-evm/contracts/oapp/OAppReceiver.sol\":2217:2221  this */\n      address\n        /* \"@layerzerolabs/oapp-evm/contracts/oapp/OAppReceiver.sol\":2198:2222  _sender == address(this) */\n      0xffffffffffffffffffffffffffffffffffffffff\n      and\n        /* \"@layerzerolabs/oapp-evm/contracts/oapp/OAppReceiver.sol\":2198:2205  _sender */\n      dup3\n        /* \"@layerzerolabs/oapp-evm/contracts/oapp/OAppReceiver.sol\":2198:2222  _sender == address(this) */\n      0xffffffffffffffffffffffffffffffffffffffff\n      and\n      eq\n        /* \"@layerzerolabs/oapp-evm/contracts/oapp/OAppReceiver.sol\":2191:2222  return _sender == address(this) */\n      swap1\n      pop\n        /* \"@layerzerolabs/oapp-evm/contracts/oapp/OAppReceiver.sol\":2013:2229  function isComposeMsgSender(... */\n      swap5\n      swap4\n      pop\n      pop\n      pop\n      pop\n      jump\t// out\n        /* \"@openzeppelin/contracts/access/Ownable.sol\":1638:1723  function owner() public view virtual returns (address) {... */\n    tag_70:\n        /* \"@openzeppelin/contracts/access/Ownable.sol\":1684:1691  address */\n      0x00\n        /* \"@openzeppelin/contracts/access/Ownable.sol\":1710:1716  _owner */\n      dup1\n      0x00\n      swap1\n      sload\n      swap1\n      0x0100\n      exp\n      swap1\n      div\n      0xffffffffffffffffffffffffffffffffffffffff\n      and\n        /* \"@openzeppelin/contracts/access/Ownable.sol\":1703:1716  return _owner */\n      swap1\n      pop\n        /* \"@openzeppelin/contracts/access/Ownable.sol\":1638:1723  function owner() public view virtual returns (address) {... */\n      swap1\n      jump\t// out\n        /* \"fee_storage_sender.sol\":522:568  mapping(uint256 => uint256) public disputeFees */\n    tag_77:\n      mstore(0x20, 0x02)\n      dup1\n      0x00\n      mstore\n      keccak256(0x00, 0x40)\n      0x00\n      swap2\n      pop\n      swap1\n      pop\n      sload\n      dup2\n      jump\t// out\n        /* \"@layerzerolabs/oapp-evm/contracts/oapp/OAppCore.sol\":569:617  mapping(uint32 eid => bytes32 peer) public peers */\n    tag_84:\n      mstore(0x20, 0x01)\n      dup1\n      0x00\n      mstore\n      keccak256(0x00, 0x40)\n      0x00\n      swap2\n      pop\n      swap1\n      pop\n      sload\n      dup2\n      jump\t// out\n        /* \"@layerzerolabs/oapp-evm/contracts/oapp/OAppCore.sol\":3252:3357  function setDelegate(address _delegate) public onlyOwner {... */\n    tag_91:\n        /* \"@openzeppelin/contracts/access/Ownable.sol\":1531:1544  _checkOwner() */\n      tag_145\n        /* \"@openzeppelin/contracts/access/Ownable.sol\":1531:1542  _checkOwner */\n      tag_126\n        /* \"@openzeppelin/contracts/access/Ownable.sol\":1531:1544  _checkOwner() */\n      jump\t// in\n    tag_145:\n        /* \"@layerzerolabs/oapp-evm/contracts/oapp/OAppCore.sol\":3319:3327  endpoint */\n      immutable(\"0xef80077fd7ee005d1b0377e3e959eb59d0ca83c4839422f862a3540a66a91fb5\")\n        /* \"@layerzerolabs/oapp-evm/contracts/oapp/OAppCore.sol\":3319:3339  endpoint.setDelegate */\n      0xffffffffffffffffffffffffffffffffffffffff\n      and\n      0xca5eb5e1\n        /* \"@layerzerolabs/oapp-evm/contracts/oapp/OAppCore.sol\":3340:3349  _delegate */\n      dup3\n        /* \"@layerzerolabs/oapp-evm/contracts/oapp/OAppCore.sol\":3319:3350  endpoint.setDelegate(_delegate) */\n      mload(0x40)\n      dup3\n      0xffffffff\n      and\n      0xe0\n      shl\n      dup2\n      mstore\n      0x04\n      add\n      tag_147\n      swap2\n      swap1\n      tag_72\n      jump\t// in\n    tag_147:\n      0x00\n      mload(0x40)\n      dup1\n      dup4\n      sub\n      dup2\n      0x00\n      dup8\n      dup1\n      extcodesize\n      iszero\n      dup1\n      iszero\n      tag_148\n      jumpi\n      0x00\n      dup1\n      revert\n    tag_148:\n      pop\n      gas\n      call\n      iszero\n      dup1\n      iszero\n      tag_150\n      jumpi\n      returndatasize\n      0x00\n      dup1\n      returndatacopy\n      revert(0x00, returndatasize)\n    tag_150:\n      pop\n      pop\n      pop\n      pop\n        /* \"@layerzerolabs/oapp-evm/contracts/oapp/OAppCore.sol\":3252:3357  function setDelegate(address _delegate) public onlyOwner {... */\n      pop\n      jump\t// out\n        /* \"fee_storage_sender.sol\":969:1699  function raiseDispute(uint256 _jobId, bytes calldata _options) external payable {... */\n    tag_95:\n        /* \"fee_storage_sender.sol\":1090:1110  bytes memory payload */\n      0x00\n        /* \"fee_storage_sender.sol\":1124:1130  _jobId */\n      dup4\n        /* \"fee_storage_sender.sol\":1132:1141  msg.value */\n      callvalue\n        /* \"fee_storage_sender.sol\":1113:1142  abi.encode(_jobId, msg.value) */\n      add(0x20, mload(0x40))\n      tag_152\n      swap3\n      swap2\n      swap1\n      tag_153\n      jump\t// in\n    tag_152:\n      mload(0x40)\n      0x20\n      dup2\n      dup4\n      sub\n      sub\n      dup2\n      mstore\n      swap1\n      0x40\n      mstore\n        /* \"fee_storage_sender.sol\":1090:1142  bytes memory payload = abi.encode(_jobId, msg.value) */\n      swap1\n      pop\n        /* \"fee_storage_sender.sol\":1152:1175  MessagingFee memory fee */\n      0x00\n        /* \"fee_storage_sender.sol\":1178:1224  _quote(OPTIMISM_EID, payload, _options, false) */\n      tag_154\n        /* \"fee_storage_sender.sol\":653:658  40232 */\n      0x9d28\n        /* \"fee_storage_sender.sol\":1199:1206  payload */\n      dup4\n        /* \"fee_storage_sender.sol\":1208:1216  _options */\n      dup7\n      dup7\n        /* \"fee_storage_sender.sol\":1178:1224  _quote(OPTIMISM_EID, payload, _options, false) */\n      dup1\n      dup1\n      0x1f\n      add\n      0x20\n      dup1\n      swap2\n      div\n      mul\n      0x20\n      add\n      mload(0x40)\n      swap1\n      dup2\n      add\n      0x40\n      mstore\n      dup1\n      swap4\n      swap3\n      swap2\n      swap1\n      dup2\n      dup2\n      mstore\n      0x20\n      add\n      dup4\n      dup4\n      dup1\n      dup3\n      dup5\n      calldatacopy\n      0x00\n      dup2\n      dup5\n      add\n      mstore\n      not(0x1f)\n      0x1f\n      dup3\n      add\n      and\n      swap1\n      pop\n      dup1\n      dup4\n      add\n      swap3\n      pop\n      pop\n      pop\n      pop\n      pop\n      pop\n      pop\n        /* \"fee_storage_sender.sol\":1218:1223  false */\n      0x00\n        /* \"fee_storage_sender.sol\":1178:1184  _quote */\n      tag_155\n        /* \"fee_storage_sender.sol\":1178:1224  _quote(OPTIMISM_EID, payload, _options, false) */\n      jump\t// in\n    tag_154:\n        /* \"fee_storage_sender.sol\":1152:1224  MessagingFee memory fee = _quote(OPTIMISM_EID, payload, _options, false) */\n      swap1\n      pop\n        /* \"fee_storage_sender.sol\":1263:1266  fee */\n      dup1\n        /* \"fee_storage_sender.sol\":1263:1276  fee.nativeFee */\n      0x00\n      add\n      mload\n        /* \"fee_storage_sender.sol\":1251:1260  msg.value */\n      callvalue\n        /* \"fee_storage_sender.sol\":1251:1276  msg.value > fee.nativeFee */\n      gt\n        /* \"fee_storage_sender.sol\":1243:1297  require(msg.value > fee.nativeFee, \"Insufficient fee\") */\n      tag_156\n      jumpi\n      mload(0x40)\n      0x08c379a000000000000000000000000000000000000000000000000000000000\n      dup2\n      mstore\n      0x04\n      add\n      tag_157\n      swap1\n      tag_158\n      jump\t// in\n    tag_157:\n      mload(0x40)\n      dup1\n      swap2\n      sub\n      swap1\n      revert\n    tag_156:\n        /* \"fee_storage_sender.sol\":1403:1406  fee */\n      dup1\n        /* \"fee_storage_sender.sol\":1403:1416  fee.nativeFee */\n      0x00\n      add\n      mload\n        /* \"fee_storage_sender.sol\":1391:1400  msg.value */\n      callvalue\n        /* \"fee_storage_sender.sol\":1391:1416  msg.value - fee.nativeFee */\n      tag_159\n      swap2\n      swap1\n      tag_160\n      jump\t// in\n    tag_159:\n        /* \"fee_storage_sender.sol\":1369:1380  disputeFees */\n      0x02\n        /* \"fee_storage_sender.sol\":1369:1388  disputeFees[_jobId] */\n      0x00\n        /* \"fee_storage_sender.sol\":1381:1387  _jobId */\n      dup8\n        /* \"fee_storage_sender.sol\":1369:1388  disputeFees[_jobId] */\n      dup2\n      mstore\n      0x20\n      add\n      swap1\n      dup2\n      mstore\n      0x20\n      add\n      0x00\n      keccak256\n        /* \"fee_storage_sender.sol\":1369:1416  disputeFees[_jobId] = msg.value - fee.nativeFee */\n      dup2\n      swap1\n      sstore\n      pop\n        /* \"fee_storage_sender.sol\":1471:1634  _lzSend(... */\n      tag_161\n        /* \"fee_storage_sender.sol\":653:658  40232 */\n      0x9d28\n        /* \"fee_storage_sender.sol\":1518:1525  payload */\n      dup4\n        /* \"fee_storage_sender.sol\":1539:1547  _options */\n      dup7\n      dup7\n        /* \"fee_storage_sender.sol\":1471:1634  _lzSend(... */\n      dup1\n      dup1\n      0x1f\n      add\n      0x20\n      dup1\n      swap2\n      div\n      mul\n      0x20\n      add\n      mload(0x40)\n      swap1\n      dup2\n      add\n      0x40\n      mstore\n      dup1\n      swap4\n      swap3\n      swap2\n      swap1\n      dup2\n      dup2\n      mstore\n      0x20\n      add\n      dup4\n      dup4\n      dup1\n      dup3\n      dup5\n      calldatacopy\n      0x00\n      dup2\n      dup5\n      add\n      mstore\n      not(0x1f)\n      0x1f\n      dup3\n      add\n      and\n      swap1\n      pop\n      dup1\n      dup4\n      add\n      swap3\n      pop\n      pop\n      pop\n      pop\n      pop\n      pop\n      pop\n        /* \"fee_storage_sender.sol\":1561:1591  MessagingFee(fee.nativeFee, 0) */\n      mload(0x40)\n      dup1\n      0x40\n      add\n      0x40\n      mstore\n      dup1\n        /* \"fee_storage_sender.sol\":1574:1577  fee */\n      dup7\n        /* \"fee_storage_sender.sol\":1574:1587  fee.nativeFee */\n      0x00\n      add\n      mload\n        /* \"fee_storage_sender.sol\":1561:1591  MessagingFee(fee.nativeFee, 0) */\n      dup2\n      mstore\n      0x20\n      add\n        /* \"fee_storage_sender.sol\":1589:1590  0 */\n      0x00\n        /* \"fee_storage_sender.sol\":1561:1591  MessagingFee(fee.nativeFee, 0) */\n      dup2\n      mstore\n      pop\n        /* \"fee_storage_sender.sol\":1613:1623  msg.sender */\n      caller\n        /* \"fee_storage_sender.sol\":1471:1478  _lzSend */\n      tag_162\n        /* \"fee_storage_sender.sol\":1471:1634  _lzSend(... */\n      jump\t// in\n    tag_161:\n      pop\n        /* \"fee_storage_sender.sol\":1664:1670  _jobId */\n      dup5\n        /* \"fee_storage_sender.sol\":1650:1692  DisputeRaised(_jobId, disputeFees[_jobId]) */\n      0x1954f0ea9e3f5fbdc693320e038db1549f419ae5351b74d36cee7c9ef13dd2b6\n        /* \"fee_storage_sender.sol\":1672:1683  disputeFees */\n      0x02\n        /* \"fee_storage_sender.sol\":1672:1691  disputeFees[_jobId] */\n      0x00\n        /* \"fee_storage_sender.sol\":1684:1690  _jobId */\n      dup9\n        /* \"fee_storage_sender.sol\":1672:1691  disputeFees[_jobId] */\n      dup2\n      mstore\n      0x20\n      add\n      swap1\n      dup2\n      mstore\n      0x20\n      add\n      0x00\n      keccak256\n      sload\n        /* \"fee_storage_sender.sol\":1650:1692  DisputeRaised(_jobId, disputeFees[_jobId]) */\n      mload(0x40)\n      tag_163\n      swap2\n      swap1\n      tag_79\n      jump\t// in\n    tag_163:\n      mload(0x40)\n      dup1\n      swap2\n      sub\n      swap1\n      log2\n        /* \"fee_storage_sender.sol\":1049:1699  {... */\n      pop\n      pop\n        /* \"fee_storage_sender.sol\":969:1699  function raiseDispute(uint256 _jobId, bytes calldata _options) external payable {... */\n      pop\n      pop\n      pop\n      jump\t// out\n        /* \"@openzeppelin/contracts/access/Ownable.sol\":2543:2758  function transferOwnership(address newOwner) public virtual onlyOwner {... */\n    tag_99:\n        /* \"@openzeppelin/contracts/access/Ownable.sol\":1531:1544  _checkOwner() */\n      tag_165\n        /* \"@openzeppelin/contracts/access/Ownable.sol\":1531:1542  _checkOwner */\n      tag_126\n        /* \"@openzeppelin/contracts/access/Ownable.sol\":1531:1544  _checkOwner() */\n      jump\t// in\n    tag_165:\n        /* \"@openzeppelin/contracts/access/Ownable.sol\":2647:2648  0 */\n      0x00\n        /* \"@openzeppelin/contracts/access/Ownable.sol\":2627:2649  newOwner == address(0) */\n      0xffffffffffffffffffffffffffffffffffffffff\n      and\n        /* \"@openzeppelin/contracts/access/Ownable.sol\":2627:2635  newOwner */\n      dup2\n        /* \"@openzeppelin/contracts/access/Ownable.sol\":2627:2649  newOwner == address(0) */\n      0xffffffffffffffffffffffffffffffffffffffff\n      and\n      sub\n        /* \"@openzeppelin/contracts/access/Ownable.sol\":2623:2714  if (newOwner == address(0)) {... */\n      tag_167\n      jumpi\n        /* \"@openzeppelin/contracts/access/Ownable.sol\":2700:2701  0 */\n      0x00\n        /* \"@openzeppelin/contracts/access/Ownable.sol\":2672:2703  OwnableInvalidOwner(address(0)) */\n      mload(0x40)\n      0x1e4fbdf700000000000000000000000000000000000000000000000000000000\n      dup2\n      mstore\n      0x04\n      add\n      tag_168\n      swap2\n      swap1\n      tag_72\n      jump\t// in\n    tag_168:\n      mload(0x40)\n      dup1\n      swap2\n      sub\n      swap1\n      revert\n        /* \"@openzeppelin/contracts/access/Ownable.sol\":2623:2714  if (newOwner == address(0)) {... */\n    tag_167:\n        /* \"@openzeppelin/contracts/access/Ownable.sol\":2723:2751  _transferOwnership(newOwner) */\n      tag_169\n        /* \"@openzeppelin/contracts/access/Ownable.sol\":2742:2750  newOwner */\n      dup2\n        /* \"@openzeppelin/contracts/access/Ownable.sol\":2723:2741  _transferOwnership */\n      tag_140\n        /* \"@openzeppelin/contracts/access/Ownable.sol\":2723:2751  _transferOwnership(newOwner) */\n      jump\t// in\n    tag_169:\n        /* \"@openzeppelin/contracts/access/Ownable.sol\":2543:2758  function transferOwnership(address newOwner) public virtual onlyOwner {... */\n      pop\n      jump\t// out\n        /* \"fee_storage_sender.sol\":1764:2028  function getQuote(uint256 _jobId, bytes calldata _options) external view returns (uint256) {... */\n    tag_103:\n        /* \"fee_storage_sender.sol\":1846:1853  uint256 */\n      0x00\n        /* \"fee_storage_sender.sol\":1865:1885  bytes memory payload */\n      dup1\n        /* \"fee_storage_sender.sol\":1899:1905  _jobId */\n      dup5\n        /* \"fee_storage_sender.sol\":1907:1908  0 */\n      0x00\n        /* \"fee_storage_sender.sol\":1888:1909  abi.encode(_jobId, 0) */\n      add(0x20, mload(0x40))\n      tag_171\n      swap3\n      swap2\n      swap1\n      tag_172\n      jump\t// in\n    tag_171:\n      mload(0x40)\n      0x20\n      dup2\n      dup4\n      sub\n      sub\n      dup2\n      mstore\n      swap1\n      0x40\n      mstore\n        /* \"fee_storage_sender.sol\":1865:1909  bytes memory payload = abi.encode(_jobId, 0) */\n      swap1\n      pop\n        /* \"fee_storage_sender.sol\":1919:1942  MessagingFee memory fee */\n      0x00\n        /* \"fee_storage_sender.sol\":1945:1991  _quote(OPTIMISM_EID, payload, _options, false) */\n      tag_173\n        /* \"fee_storage_sender.sol\":653:658  40232 */\n      0x9d28\n        /* \"fee_storage_sender.sol\":1966:1973  payload */\n      dup4\n        /* \"fee_storage_sender.sol\":1975:1983  _options */\n      dup8\n      dup8\n        /* \"fee_storage_sender.sol\":1945:1991  _quote(OPTIMISM_EID, payload, _options, false) */\n      dup1\n      dup1\n      0x1f\n      add\n      0x20\n      dup1\n      swap2\n      div\n      mul\n      0x20\n      add\n      mload(0x40)\n      swap1\n      dup2\n      add\n      0x40\n      mstore\n      dup1\n      swap4\n      swap3\n      swap2\n      swap1\n      dup2\n      dup2\n      mstore\n      0x20\n      add\n      dup4\n      dup4\n      dup1\n      dup3\n      dup5\n      calldatacopy\n      0x00\n      dup2\n      dup5\n      add\n      mstore\n      not(0x1f)\n      0x1f\n      dup3\n      add\n      and\n      swap1\n      pop\n      dup1\n      dup4\n      add\n      swap3\n      pop\n      pop\n      pop\n      pop\n      pop\n      pop\n      pop\n        /* \"fee_storage_sender.sol\":1985:1990  false */\n      0x00\n        /* \"fee_storage_sender.sol\":1945:1951  _quote */\n      tag_155\n        /* \"fee_storage_sender.sol\":1945:1991  _quote(OPTIMISM_EID, payload, _options, false) */\n      jump\t// in\n    tag_173:\n        /* \"fee_storage_sender.sol\":1919:1991  MessagingFee memory fee = _quote(OPTIMISM_EID, payload, _options, false) */\n      swap1\n      pop\n        /* \"fee_storage_sender.sol\":2008:2011  fee */\n      dup1\n        /* \"fee_storage_sender.sol\":2008:2021  fee.nativeFee */\n      0x00\n      add\n      mload\n        /* \"fee_storage_sender.sol\":2001:2021  return fee.nativeFee */\n      swap3\n      pop\n      pop\n      pop\n        /* \"fee_storage_sender.sol\":1764:2028  function getQuote(uint256 _jobId, bytes calldata _options) external view returns (uint256) {... */\n      swap4\n      swap3\n      pop\n      pop\n      pop\n      jump\t// out\n        /* \"@layerzerolabs/oapp-evm/contracts/oapp/OAppReceiver.sol\":2771:2920  function allowInitializePath(Origin calldata origin) public view virtual returns (bool) {... */\n    tag_109:\n        /* \"@layerzerolabs/oapp-evm/contracts/oapp/OAppReceiver.sol\":2853:2857  bool */\n      0x00\n        /* \"@layerzerolabs/oapp-evm/contracts/oapp/OAppReceiver.sol\":2900:2906  origin */\n      dup2\n        /* \"@layerzerolabs/oapp-evm/contracts/oapp/OAppReceiver.sol\":2900:2913  origin.sender */\n      0x20\n      add\n      calldataload\n        /* \"@layerzerolabs/oapp-evm/contracts/oapp/OAppReceiver.sol\":2876:2881  peers */\n      0x01\n        /* \"@layerzerolabs/oapp-evm/contracts/oapp/OAppReceiver.sol\":2876:2896  peers[origin.srcEid] */\n      0x00\n        /* \"@layerzerolabs/oapp-evm/contracts/oapp/OAppReceiver.sol\":2882:2888  origin */\n      dup5\n        /* \"@layerzerolabs/oapp-evm/contracts/oapp/OAppReceiver.sol\":2882:2895  origin.srcEid */\n      0x00\n      add\n      0x20\n      dup2\n      add\n      swap1\n      tag_175\n      swap2\n      swap1\n      tag_83\n      jump\t// in\n    tag_175:\n        /* \"@layerzerolabs/oapp-evm/contracts/oapp/OAppReceiver.sol\":2876:2896  peers[origin.srcEid] */\n      0xffffffff\n      and\n      0xffffffff\n      and\n      dup2\n      mstore\n      0x20\n      add\n      swap1\n      dup2\n      mstore\n      0x20\n      add\n      0x00\n      keccak256\n      sload\n        /* \"@layerzerolabs/oapp-evm/contracts/oapp/OAppReceiver.sol\":2876:2913  peers[origin.srcEid] == origin.sender */\n      eq\n        /* \"@layerzerolabs/oapp-evm/contracts/oapp/OAppReceiver.sol\":2869:2913  return peers[origin.srcEid] == origin.sender */\n      swap1\n      pop\n        /* \"@layerzerolabs/oapp-evm/contracts/oapp/OAppReceiver.sol\":2771:2920  function allowInitializePath(Origin calldata origin) public view virtual returns (bool) {... */\n      swap2\n      swap1\n      pop\n      jump\t// out\n        /* \"@layerzerolabs/oapp-evm/contracts/oapp/OAppCore.sol\":2718:2914  function _getPeerOrRevert(uint32 _eid) internal view virtual returns (bytes32) {... */\n    tag_116:\n        /* \"@layerzerolabs/oapp-evm/contracts/oapp/OAppCore.sol\":2788:2795  bytes32 */\n      0x00\n        /* \"@layerzerolabs/oapp-evm/contracts/oapp/OAppCore.sol\":2807:2819  bytes32 peer */\n      dup1\n        /* \"@layerzerolabs/oapp-evm/contracts/oapp/OAppCore.sol\":2822:2827  peers */\n      0x01\n        /* \"@layerzerolabs/oapp-evm/contracts/oapp/OAppCore.sol\":2822:2833  peers[_eid] */\n      0x00\n        /* \"@layerzerolabs/oapp-evm/contracts/oapp/OAppCore.sol\":2828:2832  _eid */\n      dup5\n        /* \"@layerzerolabs/oapp-evm/contracts/oapp/OAppCore.sol\":2822:2833  peers[_eid] */\n      0xffffffff\n      and\n      0xffffffff\n      and\n      dup2\n      mstore\n      0x20\n      add\n      swap1\n      dup2\n      mstore\n      0x20\n      add\n      0x00\n      keccak256\n      sload\n        /* \"@layerzerolabs/oapp-evm/contracts/oapp/OAppCore.sol\":2807:2833  bytes32 peer = peers[_eid] */\n      swap1\n      pop\n        /* \"@layerzerolabs/oapp-evm/contracts/oapp/OAppCore.sol\":2863:2864  0 */\n      0x00\n        /* \"@layerzerolabs/oapp-evm/contracts/oapp/OAppCore.sol\":2855:2865  bytes32(0) */\n      dup1\n      shl\n        /* \"@layerzerolabs/oapp-evm/contracts/oapp/OAppCore.sol\":2847:2851  peer */\n      dup2\n        /* \"@layerzerolabs/oapp-evm/contracts/oapp/OAppCore.sol\":2847:2865  peer == bytes32(0) */\n      sub\n        /* \"@layerzerolabs/oapp-evm/contracts/oapp/OAppCore.sol\":2843:2886  if (peer == bytes32(0)) revert NoPeer(_eid) */\n      tag_177\n      jumpi\n        /* \"@layerzerolabs/oapp-evm/contracts/oapp/OAppCore.sol\":2881:2885  _eid */\n      dup3\n        /* \"@layerzerolabs/oapp-evm/contracts/oapp/OAppCore.sol\":2874:2886  NoPeer(_eid) */\n      mload(0x40)\n      0xf6ff4fb700000000000000000000000000000000000000000000000000000000\n      dup2\n      mstore\n      0x04\n      add\n      tag_178\n      swap2\n      swap1\n      tag_46\n      jump\t// in\n    tag_178:\n      mload(0x40)\n      dup1\n      swap2\n      sub\n      swap1\n      revert\n        /* \"@layerzerolabs/oapp-evm/contracts/oapp/OAppCore.sol\":2843:2886  if (peer == bytes32(0)) revert NoPeer(_eid) */\n    tag_177:\n        /* \"@layerzerolabs/oapp-evm/contracts/oapp/OAppCore.sol\":2903:2907  peer */\n      dup1\n        /* \"@layerzerolabs/oapp-evm/contracts/oapp/OAppCore.sol\":2896:2907  return peer */\n      swap2\n      pop\n      pop\n        /* \"@layerzerolabs/oapp-evm/contracts/oapp/OAppCore.sol\":2718:2914  function _getPeerOrRevert(uint32 _eid) internal view virtual returns (bytes32) {... */\n      swap2\n      swap1\n      pop\n      jump\t// out\n        /* \"fee_storage_sender.sol\":2110:2331  function _lzReceive(... */\n    tag_122:\n      pop\n      pop\n      pop\n      pop\n      pop\n      pop\n      pop\n      jump\t// out\n        /* \"@openzeppelin/contracts/access/Ownable.sol\":1796:1958  function _checkOwner() internal view virtual {... */\n    tag_126:\n        /* \"@openzeppelin/contracts/access/Ownable.sol\":1866:1878  _msgSender() */\n      tag_181\n        /* \"@openzeppelin/contracts/access/Ownable.sol\":1866:1876  _msgSender */\n      tag_182\n        /* \"@openzeppelin/contracts/access/Ownable.sol\":1866:1878  _msgSender() */\n      jump\t// in\n    tag_181:\n        /* \"@openzeppelin/contracts/access/Ownable.sol\":1855:1878  owner() != _msgSender() */\n      0xffffffffffffffffffffffffffffffffffffffff\n      and\n        /* \"@openzeppelin/contracts/access/Ownable.sol\":1855:1862  owner() */\n      tag_183\n        /* \"@openzeppelin/contracts/access/Ownable.sol\":1855:1860  owner */\n      tag_70\n        /* \"@openzeppelin/contracts/access/Ownable.sol\":1855:1862  owner() */\n      jump\t// in\n    tag_183:\n        /* \"@openzeppelin/contracts/access/Ownable.sol\":1855:1878  owner() != _msgSender() */\n      0xffffffffffffffffffffffffffffffffffffffff\n      and\n      eq\n        /* \"@openzeppelin/contracts/access/Ownable.sol\":1851:1952  if (owner() != _msgSender()) {... */\n      tag_184\n      jumpi\n        /* \"@openzeppelin/contracts/access/Ownable.sol\":1928:1940  _msgSender() */\n      tag_185\n        /* \"@openzeppelin/contracts/access/Ownable.sol\":1928:1938  _msgSender */\n      tag_182\n        /* \"@openzeppelin/contracts/access/Ownable.sol\":1928:1940  _msgSender() */\n      jump\t// in\n    tag_185:\n        /* \"@openzeppelin/contracts/access/Ownable.sol\":1901:1941  OwnableUnauthorizedAccount(_msgSender()) */\n      mload(0x40)\n      0x118cdaa700000000000000000000000000000000000000000000000000000000\n      dup2\n      mstore\n      0x04\n      add\n      tag_186\n      swap2\n      swap1\n      tag_72\n      jump\t// in\n    tag_186:\n      mload(0x40)\n      dup1\n      swap2\n      sub\n      swap1\n      revert\n        /* \"@openzeppelin/contracts/access/Ownable.sol\":1851:1952  if (owner() != _msgSender()) {... */\n    tag_184:\n        /* \"@openzeppelin/contracts/access/Ownable.sol\":1796:1958  function _checkOwner() internal view virtual {... */\n      jump\t// out\n        /* \"@layerzerolabs/oapp-evm/contracts/oapp/OAppCore.sol\":2286:2420  function _setPeer(uint32 _eid, bytes32 _peer) internal virtual {... */\n    tag_129:\n        /* \"@layerzerolabs/oapp-evm/contracts/oapp/OAppCore.sol\":2373:2378  _peer */\n      dup1\n        /* \"@layerzerolabs/oapp-evm/contracts/oapp/OAppCore.sol\":2359:2364  peers */\n      0x01\n        /* \"@layerzerolabs/oapp-evm/contracts/oapp/OAppCore.sol\":2359:2370  peers[_eid] */\n      0x00\n        /* \"@layerzerolabs/oapp-evm/contracts/oapp/OAppCore.sol\":2365:2369  _eid */\n      dup5\n        /* \"@layerzerolabs/oapp-evm/contracts/oapp/OAppCore.sol\":2359:2370  peers[_eid] */\n      0xffffffff\n      and\n      0xffffffff\n      and\n      dup2\n      mstore\n      0x20\n      add\n      swap1\n      dup2\n      mstore\n      0x20\n      add\n      0x00\n      keccak256\n        /* \"@layerzerolabs/oapp-evm/contracts/oapp/OAppCore.sol\":2359:2378  peers[_eid] = _peer */\n      dup2\n      swap1\n      sstore\n      pop\n        /* \"@layerzerolabs/oapp-evm/contracts/oapp/OAppCore.sol\":2393:2413  PeerSet(_eid, _peer) */\n      0x238399d427b947898edb290f5ff0f9109849b1c3ba196a42e35f00c50a54b98b\n        /* \"@layerzerolabs/oapp-evm/contracts/oapp/OAppCore.sol\":2401:2405  _eid */\n      dup3\n        /* \"@layerzerolabs/oapp-evm/contracts/oapp/OAppCore.sol\":2407:2412  _peer */\n      dup3\n        /* \"@layerzerolabs/oapp-evm/contracts/oapp/OAppCore.sol\":2393:2413  PeerSet(_eid, _peer) */\n      mload(0x40)\n      tag_188\n      swap3\n      swap2\n      swap1\n      tag_120\n      jump\t// in\n    tag_188:\n      mload(0x40)\n      dup1\n      swap2\n      sub\n      swap1\n      log1\n        /* \"@layerzerolabs/oapp-evm/contracts/oapp/OAppCore.sol\":2286:2420  function _setPeer(uint32 _eid, bytes32 _peer) internal virtual {... */\n      pop\n      pop\n      jump\t// out\n        /* \"@openzeppelin/contracts/access/Ownable.sol\":2912:3099  function _transferOwnership(address newOwner) internal virtual {... */\n    tag_140:\n        /* \"@openzeppelin/contracts/access/Ownable.sol\":2985:3001  address oldOwner */\n      0x00\n        /* \"@openzeppelin/contracts/access/Ownable.sol\":3004:3010  _owner */\n      dup1\n      0x00\n      swap1\n      sload\n      swap1\n      0x0100\n      exp\n      swap1\n      div\n      0xffffffffffffffffffffffffffffffffffffffff\n      and\n        /* \"@openzeppelin/contracts/access/Ownable.sol\":2985:3010  address oldOwner = _owner */\n      swap1\n      pop\n        /* \"@openzeppelin/contracts/access/Ownable.sol\":3029:3037  newOwner */\n      dup2\n        /* \"@openzeppelin/contracts/access/Ownable.sol\":3020:3026  _owner */\n      0x00\n      dup1\n        /* \"@openzeppelin/contracts/access/Ownable.sol\":3020:3037  _owner = newOwner */\n      0x0100\n      exp\n      dup2\n      sload\n      dup2\n      0xffffffffffffffffffffffffffffffffffffffff\n      mul\n      not\n      and\n      swap1\n      dup4\n      0xffffffffffffffffffffffffffffffffffffffff\n      and\n      mul\n      or\n      swap1\n      sstore\n      pop\n        /* \"@openzeppelin/contracts/access/Ownable.sol\":3083:3091  newOwner */\n      dup2\n        /* \"@openzeppelin/contracts/access/Ownable.sol\":3052:3092  OwnershipTransferred(oldOwner, newOwner) */\n      0xffffffffffffffffffffffffffffffffffffffff\n      and\n        /* \"@openzeppelin/contracts/access/Ownable.sol\":3073:3081  oldOwner */\n      dup2\n        /* \"@openzeppelin/contracts/access/Ownable.sol\":3052:3092  OwnershipTransferred(oldOwner, newOwner) */\n      0xffffffffffffffffffffffffffffffffffffffff\n      and\n      0x8be0079c531659141344cd1fd0a4f28419497f9722a3daafe3b4186f6b6457e0\n      mload(0x40)\n      mload(0x40)\n      dup1\n      swap2\n      sub\n      swap1\n      log3\n        /* \"@openzeppelin/contracts/access/Ownable.sol\":2975:3099  {... */\n      pop\n        /* \"@openzeppelin/contracts/access/Ownable.sol\":2912:3099  function _transferOwnership(address newOwner) internal virtual {... */\n      pop\n      jump\t// out\n        /* \"@layerzerolabs/oapp-evm/contracts/oapp/OAppSender.sol\":2038:2429  function _quote(... */\n    tag_155:\n        /* \"@layerzerolabs/oapp-evm/contracts/oapp/OAppSender.sol\":2205:2228  MessagingFee memory fee */\n      tag_190\n      tag_191\n      jump\t// in\n    tag_190:\n        /* \"@layerzerolabs/oapp-evm/contracts/oapp/OAppSender.sol\":2259:2267  endpoint */\n      immutable(\"0xef80077fd7ee005d1b0377e3e959eb59d0ca83c4839422f862a3540a66a91fb5\")\n        /* \"@layerzerolabs/oapp-evm/contracts/oapp/OAppSender.sol\":2259:2273  endpoint.quote */\n      0xffffffffffffffffffffffffffffffffffffffff\n      and\n      0xddc28c58\n        /* \"@layerzerolabs/oapp-evm/contracts/oapp/OAppSender.sol\":2291:2377  MessagingParams(_dstEid, _getPeerOrRevert(_dstEid), _message, _options, _payInLzToken) */\n      mload(0x40)\n      dup1\n      0xa0\n      add\n      0x40\n      mstore\n      dup1\n        /* \"@layerzerolabs/oapp-evm/contracts/oapp/OAppSender.sol\":2307:2314  _dstEid */\n      dup9\n        /* \"@layerzerolabs/oapp-evm/contracts/oapp/OAppSender.sol\":2291:2377  MessagingParams(_dstEid, _getPeerOrRevert(_dstEid), _message, _options, _payInLzToken) */\n      0xffffffff\n      and\n      dup2\n      mstore\n      0x20\n      add\n        /* \"@layerzerolabs/oapp-evm/contracts/oapp/OAppSender.sol\":2316:2341  _getPeerOrRevert(_dstEid) */\n      tag_193\n        /* \"@layerzerolabs/oapp-evm/contracts/oapp/OAppSender.sol\":2333:2340  _dstEid */\n      dup10\n        /* \"@layerzerolabs/oapp-evm/contracts/oapp/OAppSender.sol\":2316:2332  _getPeerOrRevert */\n      tag_116\n        /* \"@layerzerolabs/oapp-evm/contracts/oapp/OAppSender.sol\":2316:2341  _getPeerOrRevert(_dstEid) */\n      jump\t// in\n    tag_193:\n        /* \"@layerzerolabs/oapp-evm/contracts/oapp/OAppSender.sol\":2291:2377  MessagingParams(_dstEid, _getPeerOrRevert(_dstEid), _message, _options, _payInLzToken) */\n      dup2\n      mstore\n      0x20\n      add\n        /* \"@layerzerolabs/oapp-evm/contracts/oapp/OAppSender.sol\":2343:2351  _message */\n      dup8\n        /* \"@layerzerolabs/oapp-evm/contracts/oapp/OAppSender.sol\":2291:2377  MessagingParams(_dstEid, _getPeerOrRevert(_dstEid), _message, _options, _payInLzToken) */\n      dup2\n      mstore\n      0x20\n      add\n        /* \"@layerzerolabs/oapp-evm/contracts/oapp/OAppSender.sol\":2353:2361  _options */\n      dup7\n        /* \"@layerzerolabs/oapp-evm/contracts/oapp/OAppSender.sol\":2291:2377  MessagingParams(_dstEid, _getPeerOrRevert(_dstEid), _message, _options, _payInLzToken) */\n      dup2\n      mstore\n      0x20\n      add\n        /* \"@layerzerolabs/oapp-evm/contracts/oapp/OAppSender.sol\":2363:2376  _payInLzToken */\n      dup6\n        /* \"@layerzerolabs/oapp-evm/contracts/oapp/OAppSender.sol\":2291:2377  MessagingParams(_dstEid, _getPeerOrRevert(_dstEid), _message, _options, _payInLzToken) */\n      iszero\n      iszero\n      dup2\n      mstore\n      pop\n        /* \"@layerzerolabs/oapp-evm/contracts/oapp/OAppSender.sol\":2403:2407  this */\n      address\n        /* \"@layerzerolabs/oapp-evm/contracts/oapp/OAppSender.sol\":2259:2422  endpoint.quote(... */\n      mload(0x40)\n      dup4\n      0xffffffff\n      and\n      0xe0\n      shl\n      dup2\n      mstore\n      0x04\n      add\n      tag_194\n      swap3\n      swap2\n      swap1\n      tag_195\n      jump\t// in\n    tag_194:\n      0x40\n      dup1\n      mload\n      dup1\n      dup4\n      sub\n      dup2\n      dup7\n      gas\n      staticcall\n      iszero\n      dup1\n      iszero\n      tag_197\n      jumpi\n      returndatasize\n      0x00\n      dup1\n      returndatacopy\n      revert(0x00, returndatasize)\n    tag_197:\n      pop\n      pop\n      pop\n      pop\n      mload(0x40)\n      returndatasize\n      not(0x1f)\n      0x1f\n      dup3\n      add\n      and\n      dup3\n      add\n      dup1\n      0x40\n      mstore\n      pop\n      dup2\n      add\n      swap1\n      tag_198\n      swap2\n      swap1\n      tag_199\n      jump\t// in\n    tag_198:\n        /* \"@layerzerolabs/oapp-evm/contracts/oapp/OAppSender.sol\":2240:2422  return... */\n      swap1\n      pop\n        /* \"@layerzerolabs/oapp-evm/contracts/oapp/OAppSender.sol\":2038:2429  function _quote(... */\n      swap5\n      swap4\n      pop\n      pop\n      pop\n      pop\n      jump\t// out\n        /* \"@layerzerolabs/oapp-evm/contracts/oapp/OAppSender.sol\":3188:3954  function _lzSend(... */\n    tag_162:\n        /* \"@layerzerolabs/oapp-evm/contracts/oapp/OAppSender.sol\":3389:3420  MessagingReceipt memory receipt */\n      tag_200\n      tag_201\n      jump\t// in\n    tag_200:\n        /* \"@layerzerolabs/oapp-evm/contracts/oapp/OAppSender.sol\":3554:3574  uint256 messageValue */\n      0x00\n        /* \"@layerzerolabs/oapp-evm/contracts/oapp/OAppSender.sol\":3577:3603  _payNative(_fee.nativeFee) */\n      tag_203\n        /* \"@layerzerolabs/oapp-evm/contracts/oapp/OAppSender.sol\":3588:3592  _fee */\n      dup5\n        /* \"@layerzerolabs/oapp-evm/contracts/oapp/OAppSender.sol\":3588:3602  _fee.nativeFee */\n      0x00\n      add\n      mload\n        /* \"@layerzerolabs/oapp-evm/contracts/oapp/OAppSender.sol\":3577:3587  _payNative */\n      tag_204\n        /* \"@layerzerolabs/oapp-evm/contracts/oapp/OAppSender.sol\":3577:3603  _payNative(_fee.nativeFee) */\n      jump\t// in\n    tag_203:\n        /* \"@layerzerolabs/oapp-evm/contracts/oapp/OAppSender.sol\":3554:3603  uint256 messageValue = _payNative(_fee.nativeFee) */\n      swap1\n      pop\n        /* \"@layerzerolabs/oapp-evm/contracts/oapp/OAppSender.sol\":3635:3636  0 */\n      0x00\n        /* \"@layerzerolabs/oapp-evm/contracts/oapp/OAppSender.sol\":3617:3621  _fee */\n      dup5\n        /* \"@layerzerolabs/oapp-evm/contracts/oapp/OAppSender.sol\":3617:3632  _fee.lzTokenFee */\n      0x20\n      add\n      mload\n        /* \"@layerzerolabs/oapp-evm/contracts/oapp/OAppSender.sol\":3617:3636  _fee.lzTokenFee > 0 */\n      gt\n        /* \"@layerzerolabs/oapp-evm/contracts/oapp/OAppSender.sol\":3613:3666  if (_fee.lzTokenFee > 0) _payLzToken(_fee.lzTokenFee) */\n      iszero\n      tag_205\n      jumpi\n        /* \"@layerzerolabs/oapp-evm/contracts/oapp/OAppSender.sol\":3638:3666  _payLzToken(_fee.lzTokenFee) */\n      tag_206\n        /* \"@layerzerolabs/oapp-evm/contracts/oapp/OAppSender.sol\":3650:3654  _fee */\n      dup5\n        /* \"@layerzerolabs/oapp-evm/contracts/oapp/OAppSender.sol\":3650:3665  _fee.lzTokenFee */\n      0x20\n      add\n      mload\n        /* \"@layerzerolabs/oapp-evm/contracts/oapp/OAppSender.sol\":3638:3649  _payLzToken */\n      tag_207\n        /* \"@layerzerolabs/oapp-evm/contracts/oapp/OAppSender.sol\":3638:3666  _payLzToken(_fee.lzTokenFee) */\n      jump\t// in\n    tag_206:\n        /* \"@layerzerolabs/oapp-evm/contracts/oapp/OAppSender.sol\":3613:3666  if (_fee.lzTokenFee > 0) _payLzToken(_fee.lzTokenFee) */\n    tag_205:\n        /* \"@layerzerolabs/oapp-evm/contracts/oapp/OAppSender.sol\":3755:3763  endpoint */\n      immutable(\"0xef80077fd7ee005d1b0377e3e959eb59d0ca83c4839422f862a3540a66a91fb5\")\n        /* \"@layerzerolabs/oapp-evm/contracts/oapp/OAppSender.sol\":3755:3768  endpoint.send */\n      0xffffffffffffffffffffffffffffffffffffffff\n      and\n      0x2637a450\n        /* \"@layerzerolabs/oapp-evm/contracts/oapp/OAppSender.sol\":3777:3789  messageValue */\n      dup3\n        /* \"@layerzerolabs/oapp-evm/contracts/oapp/OAppSender.sol\":3809:3901  MessagingParams(_dstEid, _getPeerOrRevert(_dstEid), _message, _options, _fee.lzTokenFee > 0) */\n      mload(0x40)\n      dup1\n      0xa0\n      add\n      0x40\n      mstore\n      dup1\n        /* \"@layerzerolabs/oapp-evm/contracts/oapp/OAppSender.sol\":3825:3832  _dstEid */\n      dup12\n        /* \"@layerzerolabs/oapp-evm/contracts/oapp/OAppSender.sol\":3809:3901  MessagingParams(_dstEid, _getPeerOrRevert(_dstEid), _message, _options, _fee.lzTokenFee > 0) */\n      0xffffffff\n      and\n      dup2\n      mstore\n      0x20\n      add\n        /* \"@layerzerolabs/oapp-evm/contracts/oapp/OAppSender.sol\":3834:3859  _getPeerOrRevert(_dstEid) */\n      tag_208\n        /* \"@layerzerolabs/oapp-evm/contracts/oapp/OAppSender.sol\":3851:3858  _dstEid */\n      dup13\n        /* \"@layerzerolabs/oapp-evm/contracts/oapp/OAppSender.sol\":3834:3850  _getPeerOrRevert */\n      tag_116\n        /* \"@layerzerolabs/oapp-evm/contracts/oapp/OAppSender.sol\":3834:3859  _getPeerOrRevert(_dstEid) */\n      jump\t// in\n    tag_208:\n        /* \"@layerzerolabs/oapp-evm/contracts/oapp/OAppSender.sol\":3809:3901  MessagingParams(_dstEid, _getPeerOrRevert(_dstEid), _message, _options, _fee.lzTokenFee > 0) */\n      dup2\n      mstore\n      0x20\n      add\n        /* \"@layerzerolabs/oapp-evm/contracts/oapp/OAppSender.sol\":3861:3869  _message */\n      dup11\n        /* \"@layerzerolabs/oapp-evm/contracts/oapp/OAppSender.sol\":3809:3901  MessagingParams(_dstEid, _getPeerOrRevert(_dstEid), _message, _options, _fee.lzTokenFee > 0) */\n      dup2\n      mstore\n      0x20\n      add\n        /* \"@layerzerolabs/oapp-evm/contracts/oapp/OAppSender.sol\":3871:3879  _options */\n      dup10\n        /* \"@layerzerolabs/oapp-evm/contracts/oapp/OAppSender.sol\":3809:3901  MessagingParams(_dstEid, _getPeerOrRevert(_dstEid), _message, _options, _fee.lzTokenFee > 0) */\n      dup2\n      mstore\n      0x20\n      add\n        /* \"@layerzerolabs/oapp-evm/contracts/oapp/OAppSender.sol\":3899:3900  0 */\n      0x00\n        /* \"@layerzerolabs/oapp-evm/contracts/oapp/OAppSender.sol\":3881:3885  _fee */\n      dup10\n        /* \"@layerzerolabs/oapp-evm/contracts/oapp/OAppSender.sol\":3881:3896  _fee.lzTokenFee */\n      0x20\n      add\n      mload\n        /* \"@layerzerolabs/oapp-evm/contracts/oapp/OAppSender.sol\":3881:3900  _fee.lzTokenFee > 0 */\n      gt\n        /* \"@layerzerolabs/oapp-evm/contracts/oapp/OAppSender.sol\":3809:3901  MessagingParams(_dstEid, _getPeerOrRevert(_dstEid), _message, _options, _fee.lzTokenFee > 0) */\n      iszero\n      iszero\n      dup2\n      mstore\n      pop\n        /* \"@layerzerolabs/oapp-evm/contracts/oapp/OAppSender.sol\":3919:3933  _refundAddress */\n      dup7\n        /* \"@layerzerolabs/oapp-evm/contracts/oapp/OAppSender.sol\":3755:3947  endpoint.send{ value: messageValue }(... */\n      mload(0x40)\n      dup5\n      0xffffffff\n      and\n      0xe0\n      shl\n      dup2\n      mstore\n      0x04\n      add\n      tag_209\n      swap3\n      swap2\n      swap1\n      tag_195\n      jump\t// in\n    tag_209:\n      0x80\n      mload(0x40)\n      dup1\n      dup4\n      sub\n      dup2\n      dup6\n      dup9\n      gas\n      call\n      iszero\n      dup1\n      iszero\n      tag_211\n      jumpi\n      returndatasize\n      0x00\n      dup1\n      returndatacopy\n      revert(0x00, returndatasize)\n    tag_211:\n      pop\n      pop\n      pop\n      pop\n      pop\n      mload(0x40)\n      returndatasize\n      not(0x1f)\n      0x1f\n      dup3\n      add\n      and\n      dup3\n      add\n      dup1\n      0x40\n      mstore\n      pop\n      dup2\n      add\n      swap1\n      tag_212\n      swap2\n      swap1\n      tag_213\n      jump\t// in\n    tag_212:\n        /* \"@layerzerolabs/oapp-evm/contracts/oapp/OAppSender.sol\":3677:3947  return... */\n      swap2\n      pop\n      pop\n        /* \"@layerzerolabs/oapp-evm/contracts/oapp/OAppSender.sol\":3188:3954  function _lzSend(... */\n      swap6\n      swap5\n      pop\n      pop\n      pop\n      pop\n      pop\n      jump\t// out\n        /* \"@openzeppelin/contracts/utils/Context.sol\":656:752  function _msgSender() internal view virtual returns (address) {... */\n    tag_182:\n        /* \"@openzeppelin/contracts/utils/Context.sol\":709:716  address */\n      0x00\n        /* \"@openzeppelin/contracts/utils/Context.sol\":735:745  msg.sender */\n      caller\n        /* \"@openzeppelin/contracts/utils/Context.sol\":728:745  return msg.sender */\n      swap1\n      pop\n        /* \"@openzeppelin/contracts/utils/Context.sol\":656:752  function _msgSender() internal view virtual returns (address) {... */\n      swap1\n      jump\t// out\n        /* \"@layerzerolabs/oapp-evm/contracts/oapp/OAppSender.sol\":4650:4841  function _payNative(uint256 _nativeFee) internal virtual returns (uint256 nativeFee) {... */\n    tag_204:\n        /* \"@layerzerolabs/oapp-evm/contracts/oapp/OAppSender.sol\":4716:4733  uint256 nativeFee */\n      0x00\n        /* \"@layerzerolabs/oapp-evm/contracts/oapp/OAppSender.sol\":4762:4772  _nativeFee */\n      dup2\n        /* \"@layerzerolabs/oapp-evm/contracts/oapp/OAppSender.sol\":4749:4758  msg.value */\n      callvalue\n        /* \"@layerzerolabs/oapp-evm/contracts/oapp/OAppSender.sol\":4749:4772  msg.value != _nativeFee */\n      eq\n        /* \"@layerzerolabs/oapp-evm/contracts/oapp/OAppSender.sol\":4745:4807  if (msg.value != _nativeFee) revert NotEnoughNative(msg.value) */\n      tag_216\n      jumpi\n        /* \"@layerzerolabs/oapp-evm/contracts/oapp/OAppSender.sol\":4797:4806  msg.value */\n      callvalue\n        /* \"@layerzerolabs/oapp-evm/contracts/oapp/OAppSender.sol\":4781:4807  NotEnoughNative(msg.value) */\n      mload(0x40)\n      0x9f70412000000000000000000000000000000000000000000000000000000000\n      dup2\n      mstore\n      0x04\n      add\n      tag_217\n      swap2\n      swap1\n      tag_79\n      jump\t// in\n    tag_217:\n      mload(0x40)\n      dup1\n      swap2\n      sub\n      swap1\n      revert\n        /* \"@layerzerolabs/oapp-evm/contracts/oapp/OAppSender.sol\":4745:4807  if (msg.value != _nativeFee) revert NotEnoughNative(msg.value) */\n    tag_216:\n        /* \"@layerzerolabs/oapp-evm/contracts/oapp/OAppSender.sol\":4824:4834  _nativeFee */\n      dup2\n        /* \"@layerzerolabs/oapp-evm/contracts/oapp/OAppSender.sol\":4817:4834  return _nativeFee */\n      swap1\n      pop\n        /* \"@layerzerolabs/oapp-evm/contracts/oapp/OAppSender.sol\":4650:4841  function _payNative(uint256 _nativeFee) internal virtual returns (uint256 nativeFee) {... */\n      swap2\n      swap1\n      pop\n      jump\t// out\n        /* \"@layerzerolabs/oapp-evm/contracts/oapp/OAppSender.sol\":5218:5628  function _payLzToken(uint256 _lzTokenFee) internal virtual {... */\n    tag_207:\n        /* \"@layerzerolabs/oapp-evm/contracts/oapp/OAppSender.sol\":5371:5386  address lzToken */\n      0x00\n        /* \"@layerzerolabs/oapp-evm/contracts/oapp/OAppSender.sol\":5389:5397  endpoint */\n      immutable(\"0xef80077fd7ee005d1b0377e3e959eb59d0ca83c4839422f862a3540a66a91fb5\")\n        /* \"@layerzerolabs/oapp-evm/contracts/oapp/OAppSender.sol\":5389:5405  endpoint.lzToken */\n      0xffffffffffffffffffffffffffffffffffffffff\n      and\n      0xe4fe1d94\n        /* \"@layerzerolabs/oapp-evm/contracts/oapp/OAppSender.sol\":5389:5407  endpoint.lzToken() */\n      mload(0x40)\n      dup2\n      0xffffffff\n      and\n      0xe0\n      shl\n      dup2\n      mstore\n      0x04\n      add\n      0x20\n      mload(0x40)\n      dup1\n      dup4\n      sub\n      dup2\n      dup7\n      gas\n      staticcall\n      iszero\n      dup1\n      iszero\n      tag_220\n      jumpi\n      returndatasize\n      0x00\n      dup1\n      returndatacopy\n      revert(0x00, returndatasize)\n    tag_220:\n      pop\n      pop\n      pop\n      pop\n      mload(0x40)\n      returndatasize\n      not(0x1f)\n      0x1f\n      dup3\n      add\n      and\n      dup3\n      add\n      dup1\n      0x40\n      mstore\n      pop\n      dup2\n      add\n      swap1\n      tag_221\n      swap2\n      swap1\n      tag_222\n      jump\t// in\n    tag_221:\n        /* \"@layerzerolabs/oapp-evm/contracts/oapp/OAppSender.sol\":5371:5407  address lzToken = endpoint.lzToken() */\n      swap1\n      pop\n        /* \"@layerzerolabs/oapp-evm/contracts/oapp/OAppSender.sol\":5440:5441  0 */\n      0x00\n        /* \"@layerzerolabs/oapp-evm/contracts/oapp/OAppSender.sol\":5421:5442  lzToken == address(0) */\n      0xffffffffffffffffffffffffffffffffffffffff\n      and\n        /* \"@layerzerolabs/oapp-evm/contracts/oapp/OAppSender.sol\":5421:5428  lzToken */\n      dup2\n        /* \"@layerzerolabs/oapp-evm/contracts/oapp/OAppSender.sol\":5421:5442  lzToken == address(0) */\n      0xffffffffffffffffffffffffffffffffffffffff\n      and\n      sub\n        /* \"@layerzerolabs/oapp-evm/contracts/oapp/OAppSender.sol\":5417:5471  if (lzToken == address(0)) revert LzTokenUnavailable() */\n      tag_223\n      jumpi\n        /* \"@layerzerolabs/oapp-evm/contracts/oapp/OAppSender.sol\":5451:5471  LzTokenUnavailable() */\n      mload(0x40)\n      0x5373352a00000000000000000000000000000000000000000000000000000000\n      dup2\n      mstore\n      0x04\n      add\n      mload(0x40)\n      dup1\n      swap2\n      sub\n      swap1\n      revert\n        /* \"@layerzerolabs/oapp-evm/contracts/oapp/OAppSender.sol\":5417:5471  if (lzToken == address(0)) revert LzTokenUnavailable() */\n    tag_223:\n        /* \"@layerzerolabs/oapp-evm/contracts/oapp/OAppSender.sol\":5545:5621  IERC20(lzToken).safeTransferFrom(msg.sender, address(endpoint), _lzTokenFee) */\n      tag_224\n        /* \"@layerzerolabs/oapp-evm/contracts/oapp/OAppSender.sol\":5578:5588  msg.sender */\n      caller\n        /* \"@layerzerolabs/oapp-evm/contracts/oapp/OAppSender.sol\":5598:5606  endpoint */\n      immutable(\"0xef80077fd7ee005d1b0377e3e959eb59d0ca83c4839422f862a3540a66a91fb5\")\n        /* \"@layerzerolabs/oapp-evm/contracts/oapp/OAppSender.sol\":5609:5620  _lzTokenFee */\n      dup5\n        /* \"@layerzerolabs/oapp-evm/contracts/oapp/OAppSender.sol\":5552:5559  lzToken */\n      dup5\n        /* \"@layerzerolabs/oapp-evm/contracts/oapp/OAppSender.sol\":5545:5577  IERC20(lzToken).safeTransferFrom */\n      0xffffffffffffffffffffffffffffffffffffffff\n      and\n      tag_225\n      swap1\n        /* \"@layerzerolabs/oapp-evm/contracts/oapp/OAppSender.sol\":5545:5621  IERC20(lzToken).safeTransferFrom(msg.sender, address(endpoint), _lzTokenFee) */\n      swap4\n      swap3\n      swap2\n      swap1\n      0xffffffff\n      and\n      jump\t// in\n    tag_224:\n        /* \"@layerzerolabs/oapp-evm/contracts/oapp/OAppSender.sol\":5277:5628  {... */\n      pop\n        /* \"@layerzerolabs/oapp-evm/contracts/oapp/OAppSender.sol\":5218:5628  function _payLzToken(uint256 _lzTokenFee) internal virtual {... */\n      pop\n      jump\t// out\n        /* \"@openzeppelin/contracts/token/ERC20/utils/SafeERC20.sol\":1618:1806  function safeTransferFrom(IERC20 token, address from, address to, uint256 value) internal {... */\n    tag_225:\n        /* \"@openzeppelin/contracts/token/ERC20/utils/SafeERC20.sol\":1718:1799  _callOptionalReturn(token, abi.encodeCall(token.transferFrom, (from, to, value))) */\n      tag_227\n        /* \"@openzeppelin/contracts/token/ERC20/utils/SafeERC20.sol\":1738:1743  token */\n      dup5\n        /* \"@openzeppelin/contracts/token/ERC20/utils/SafeERC20.sol\":1760:1765  token */\n      dup6\n        /* \"@openzeppelin/contracts/token/ERC20/utils/SafeERC20.sol\":1760:1778  token.transferFrom */\n      0xffffffffffffffffffffffffffffffffffffffff\n      and\n      0x23b872dd\n        /* \"@openzeppelin/contracts/token/ERC20/utils/SafeERC20.sol\":1781:1785  from */\n      dup7\n        /* \"@openzeppelin/contracts/token/ERC20/utils/SafeERC20.sol\":1787:1789  to */\n      dup7\n        /* \"@openzeppelin/contracts/token/ERC20/utils/SafeERC20.sol\":1791:1796  value */\n      dup7\n        /* \"@openzeppelin/contracts/token/ERC20/utils/SafeERC20.sol\":1745:1798  abi.encodeCall(token.transferFrom, (from, to, value)) */\n      add(0x24, mload(0x40))\n      tag_228\n      swap4\n      swap3\n      swap2\n      swap1\n      tag_229\n      jump\t// in\n    tag_228:\n      mload(0x40)\n      0x20\n      dup2\n      dup4\n      sub\n      sub\n      dup2\n      mstore\n      swap1\n      0x40\n      mstore\n      swap2\n      pop\n      0xe0\n      shl\n      0x20\n      dup3\n      add\n      dup1\n      mload\n      0xffffffffffffffffffffffffffffffffffffffffffffffffffffffff\n      dup4\n      dup2\n      dup4\n      and\n      or\n      dup4\n      mstore\n      pop\n      pop\n      pop\n      pop\n        /* \"@openzeppelin/contracts/token/ERC20/utils/SafeERC20.sol\":1718:1737  _callOptionalReturn */\n      tag_230\n        /* \"@openzeppelin/contracts/token/ERC20/utils/SafeERC20.sol\":1718:1799  _callOptionalReturn(token, abi.encodeCall(token.transferFrom, (from, to, value))) */\n      jump\t// in\n    tag_227:\n        /* \"@openzeppelin/contracts/token/ERC20/utils/SafeERC20.sol\":1618:1806  function safeTransferFrom(IERC20 token, address from, address to, uint256 value) internal {... */\n      pop\n      pop\n      pop\n      pop\n      jump\t// out\n        /* \"@openzeppelin/contracts/token/ERC20/utils/SafeERC20.sol\":8370:9090  function _callOptionalReturn(IERC20 token, bytes memory data) private {... */\n    tag_230:\n        /* \"@openzeppelin/contracts/token/ERC20/utils/SafeERC20.sol\":8450:8468  uint256 returnSize */\n      0x00\n        /* \"@openzeppelin/contracts/token/ERC20/utils/SafeERC20.sol\":8478:8497  uint256 returnValue */\n      dup1\n        /* \"@openzeppelin/contracts/token/ERC20/utils/SafeERC20.sol\":8616:8620  0x20 */\n      0x20\n        /* \"@openzeppelin/contracts/token/ERC20/utils/SafeERC20.sol\":8613:8614  0 */\n      0x00\n        /* \"@openzeppelin/contracts/token/ERC20/utils/SafeERC20.sol\":8606:8610  data */\n      dup5\n        /* \"@openzeppelin/contracts/token/ERC20/utils/SafeERC20.sol\":8600:8611  mload(data) */\n      mload\n        /* \"@openzeppelin/contracts/token/ERC20/utils/SafeERC20.sol\":8593:8597  0x20 */\n      0x20\n        /* \"@openzeppelin/contracts/token/ERC20/utils/SafeERC20.sol\":8587:8591  data */\n      dup7\n        /* \"@openzeppelin/contracts/token/ERC20/utils/SafeERC20.sol\":8583:8598  add(data, 0x20) */\n      add\n        /* \"@openzeppelin/contracts/token/ERC20/utils/SafeERC20.sol\":8580:8581  0 */\n      0x00\n        /* \"@openzeppelin/contracts/token/ERC20/utils/SafeERC20.sol\":8573:8578  token */\n      dup9\n        /* \"@openzeppelin/contracts/token/ERC20/utils/SafeERC20.sol\":8566:8571  gas() */\n      gas\n        /* \"@openzeppelin/contracts/token/ERC20/utils/SafeERC20.sol\":8561:8621  call(gas(), token, 0, add(data, 0x20), mload(data), 0, 0x20) */\n      call\n        /* \"@openzeppelin/contracts/token/ERC20/utils/SafeERC20.sol\":8673:8680  success */\n      dup1\n        /* \"@openzeppelin/contracts/token/ERC20/utils/SafeERC20.sol\":8663:8839  if iszero(success) {... */\n      tag_232\n      jumpi\n        /* \"@openzeppelin/contracts/token/ERC20/utils/SafeERC20.sol\":8717:8721  0x40 */\n      0x40\n        /* \"@openzeppelin/contracts/token/ERC20/utils/SafeERC20.sol\":8711:8722  mload(0x40) */\n      mload\n        /* \"@openzeppelin/contracts/token/ERC20/utils/SafeERC20.sol\":8762:8778  returndatasize() */\n      returndatasize\n        /* \"@openzeppelin/contracts/token/ERC20/utils/SafeERC20.sol\":8759:8760  0 */\n      0x00\n        /* \"@openzeppelin/contracts/token/ERC20/utils/SafeERC20.sol\":8754:8757  ptr */\n      dup3\n        /* \"@openzeppelin/contracts/token/ERC20/utils/SafeERC20.sol\":8739:8779  returndatacopy(ptr, 0, returndatasize()) */\n      returndatacopy\n        /* \"@openzeppelin/contracts/token/ERC20/utils/SafeERC20.sol\":8808:8824  returndatasize() */\n      returndatasize\n        /* \"@openzeppelin/contracts/token/ERC20/utils/SafeERC20.sol\":8803:8806  ptr */\n      dup2\n        /* \"@openzeppelin/contracts/token/ERC20/utils/SafeERC20.sol\":8796:8825  revert(ptr, returndatasize()) */\n      revert\n        /* \"@openzeppelin/contracts/token/ERC20/utils/SafeERC20.sol\":8663:8839  if iszero(success) {... */\n    tag_232:\n        /* \"@openzeppelin/contracts/token/ERC20/utils/SafeERC20.sol\":8866:8882  returndatasize() */\n      returndatasize\n        /* \"@openzeppelin/contracts/token/ERC20/utils/SafeERC20.sol\":8852:8882  returnSize := returndatasize() */\n      swap3\n      pop\n        /* \"@openzeppelin/contracts/token/ERC20/utils/SafeERC20.sol\":8916:8917  0 */\n      0x00\n        /* \"@openzeppelin/contracts/token/ERC20/utils/SafeERC20.sol\":8910:8918  mload(0) */\n      mload\n        /* \"@openzeppelin/contracts/token/ERC20/utils/SafeERC20.sol\":8895:8918  returnValue := mload(0) */\n      swap2\n      pop\n        /* \"@openzeppelin/contracts/token/ERC20/utils/SafeERC20.sol\":8532:8928  {... */\n      pop\n        /* \"@openzeppelin/contracts/token/ERC20/utils/SafeERC20.sol\":8956:8957  0 */\n      0x00\n        /* \"@openzeppelin/contracts/token/ERC20/utils/SafeERC20.sol\":8942:8952  returnSize */\n      dup3\n        /* \"@openzeppelin/contracts/token/ERC20/utils/SafeERC20.sol\":8942:8957  returnSize == 0 */\n      eq\n        /* \"@openzeppelin/contracts/token/ERC20/utils/SafeERC20.sol\":8942:9010  returnSize == 0 ? address(token).code.length == 0 : returnValue != 1 */\n      tag_233\n      jumpi\n        /* \"@openzeppelin/contracts/token/ERC20/utils/SafeERC20.sol\":9009:9010  1 */\n      0x01\n        /* \"@openzeppelin/contracts/token/ERC20/utils/SafeERC20.sol\":8994:9005  returnValue */\n      dup2\n        /* \"@openzeppelin/contracts/token/ERC20/utils/SafeERC20.sol\":8994:9010  returnValue != 1 */\n      eq\n      iszero\n        /* \"@openzeppelin/contracts/token/ERC20/utils/SafeERC20.sol\":8942:9010  returnSize == 0 ? address(token).code.length == 0 : returnValue != 1 */\n      jump(tag_234)\n    tag_233:\n        /* \"@openzeppelin/contracts/token/ERC20/utils/SafeERC20.sol\":8990:8991  0 */\n      0x00\n        /* \"@openzeppelin/contracts/token/ERC20/utils/SafeERC20.sol\":8968:8973  token */\n      dup5\n        /* \"@openzeppelin/contracts/token/ERC20/utils/SafeERC20.sol\":8960:8986  address(token).code.length */\n      0xffffffffffffffffffffffffffffffffffffffff\n      and\n      extcodesize\n        /* \"@openzeppelin/contracts/token/ERC20/utils/SafeERC20.sol\":8960:8991  address(token).code.length == 0 */\n      eq\n        /* \"@openzeppelin/contracts/token/ERC20/utils/SafeERC20.sol\":8942:9010  returnSize == 0 ? address(token).code.length == 0 : returnValue != 1 */\n    tag_234:\n        /* \"@openzeppelin/contracts/token/ERC20/utils/SafeERC20.sol\":8938:9084  if (returnSize == 0 ? address(token).code.length == 0 : returnValue != 1) {... */\n      iszero\n      tag_235\n      jumpi\n        /* \"@openzeppelin/contracts/token/ERC20/utils/SafeERC20.sol\":9066:9071  token */\n      dup4\n        /* \"@openzeppelin/contracts/token/ERC20/utils/SafeERC20.sol\":9033:9073  SafeERC20FailedOperation(address(token)) */\n      mload(0x40)\n      0x5274afe700000000000000000000000000000000000000000000000000000000\n      dup2\n      mstore\n      0x04\n      add\n      tag_236\n      swap2\n      swap1\n      tag_72\n      jump\t// in\n    tag_236:\n      mload(0x40)\n      dup1\n      swap2\n      sub\n      swap1\n      revert\n        /* \"@openzeppelin/contracts/token/ERC20/utils/SafeERC20.sol\":8938:9084  if (returnSize == 0 ? address(token).code.length == 0 : returnValue != 1) {... */\n    tag_235:\n        /* \"@openzeppelin/contracts/token/ERC20/utils/SafeERC20.sol\":8440:9090  {... */\n      pop\n      pop\n        /* \"@openzeppelin/contracts/token/ERC20/utils/SafeERC20.sol\":8370:9090  function _callOptionalReturn(IERC20 token, bytes memory data) private {... */\n      pop\n      pop\n      jump\t// out\n    tag_191:\n      mload(0x40)\n      dup1\n      0x40\n      add\n      0x40\n      mstore\n      dup1\n      0x00\n      dup2\n      mstore\n      0x20\n      add\n      0x00\n      dup2\n      mstore\n      pop\n      swap1\n      jump\t// out\n    tag_201:\n      mload(0x40)\n      dup1\n      0x60\n      add\n      0x40\n      mstore\n      dup1\n      0x00\n      dup1\n      not\n      and\n      dup2\n      mstore\n      0x20\n      add\n      and(0xffffffffffffffff, 0x00)\n      dup2\n      mstore\n      0x20\n      add\n      tag_237\n      tag_191\n      jump\t// in\n    tag_237:\n      dup2\n      mstore\n      pop\n      swap1\n      jump\t// out\n        /* \"#utility.yul\":7:82   */\n    tag_238:\n        /* \"#utility.yul\":40:46   */\n      0x00\n        /* \"#utility.yul\":73:75   */\n      0x40\n        /* \"#utility.yul\":67:76   */\n      mload\n        /* \"#utility.yul\":57:76   */\n      swap1\n      pop\n        /* \"#utility.yul\":7:82   */\n      swap1\n      jump\t// out\n        /* \"#utility.yul\":88:205   */\n    tag_239:\n        /* \"#utility.yul\":197:198   */\n      0x00\n        /* \"#utility.yul\":194:195   */\n      dup1\n        /* \"#utility.yul\":187:199   */\n      revert\n        /* \"#utility.yul\":211:328   */\n    tag_240:\n        /* \"#utility.yul\":320:321   */\n      0x00\n        /* \"#utility.yul\":317:318   */\n      dup1\n        /* \"#utility.yul\":310:322   */\n      revert\n        /* \"#utility.yul\":334:451   */\n    tag_241:\n        /* \"#utility.yul\":443:444   */\n      0x00\n        /* \"#utility.yul\":440:441   */\n      dup1\n        /* \"#utility.yul\":433:445   */\n      revert\n        /* \"#utility.yul\":478:706   */\n    tag_242:\n        /* \"#utility.yul\":548:553   */\n      0x00\n        /* \"#utility.yul\":589:591   */\n      0x60\n        /* \"#utility.yul\":580:586   */\n      dup3\n        /* \"#utility.yul\":575:578   */\n      dup5\n        /* \"#utility.yul\":571:587   */\n      sub\n        /* \"#utility.yul\":567:592   */\n      slt\n        /* \"#utility.yul\":564:676   */\n      iszero\n      tag_308\n      jumpi\n        /* \"#utility.yul\":595:674   */\n      tag_309\n      tag_241\n      jump\t// in\n    tag_309:\n        /* \"#utility.yul\":564:676   */\n    tag_308:\n        /* \"#utility.yul\":694:700   */\n      dup2\n        /* \"#utility.yul\":685:700   */\n      swap1\n      pop\n        /* \"#utility.yul\":478:706   */\n      swap3\n      swap2\n      pop\n      pop\n      jump\t// out\n        /* \"#utility.yul\":712:789   */\n    tag_243:\n        /* \"#utility.yul\":749:756   */\n      0x00\n        /* \"#utility.yul\":778:783   */\n      dup2\n        /* \"#utility.yul\":767:783   */\n      swap1\n      pop\n        /* \"#utility.yul\":712:789   */\n      swap2\n      swap1\n      pop\n      jump\t// out\n        /* \"#utility.yul\":795:917   */\n    tag_244:\n        /* \"#utility.yul\":868:892   */\n      tag_312\n        /* \"#utility.yul\":886:891   */\n      dup2\n        /* \"#utility.yul\":868:892   */\n      tag_243\n      jump\t// in\n    tag_312:\n        /* \"#utility.yul\":861:866   */\n      dup2\n        /* \"#utility.yul\":858:893   */\n      eq\n        /* \"#utility.yul\":848:911   */\n      tag_313\n      jumpi\n        /* \"#utility.yul\":907:908   */\n      0x00\n        /* \"#utility.yul\":904:905   */\n      dup1\n        /* \"#utility.yul\":897:909   */\n      revert\n        /* \"#utility.yul\":848:911   */\n    tag_313:\n        /* \"#utility.yul\":795:917   */\n      pop\n      jump\t// out\n        /* \"#utility.yul\":923:1062   */\n    tag_245:\n        /* \"#utility.yul\":969:974   */\n      0x00\n        /* \"#utility.yul\":1007:1013   */\n      dup2\n        /* \"#utility.yul\":994:1014   */\n      calldataload\n        /* \"#utility.yul\":985:1014   */\n      swap1\n      pop\n        /* \"#utility.yul\":1023:1056   */\n      tag_315\n        /* \"#utility.yul\":1050:1055   */\n      dup2\n        /* \"#utility.yul\":1023:1056   */\n      tag_244\n      jump\t// in\n    tag_315:\n        /* \"#utility.yul\":923:1062   */\n      swap3\n      swap2\n      pop\n      pop\n      jump\t// out\n        /* \"#utility.yul\":1068:1185   */\n    tag_246:\n        /* \"#utility.yul\":1177:1178   */\n      0x00\n        /* \"#utility.yul\":1174:1175   */\n      dup1\n        /* \"#utility.yul\":1167:1179   */\n      revert\n        /* \"#utility.yul\":1191:1308   */\n    tag_247:\n        /* \"#utility.yul\":1300:1301   */\n      0x00\n        /* \"#utility.yul\":1297:1298   */\n      dup1\n        /* \"#utility.yul\":1290:1302   */\n      revert\n        /* \"#utility.yul\":1314:1431   */\n    tag_248:\n        /* \"#utility.yul\":1423:1424   */\n      0x00\n        /* \"#utility.yul\":1420:1421   */\n      dup1\n        /* \"#utility.yul\":1413:1425   */\n      revert\n        /* \"#utility.yul\":1450:2002   */\n    tag_249:\n        /* \"#utility.yul\":1507:1515   */\n      0x00\n        /* \"#utility.yul\":1517:1523   */\n      dup1\n        /* \"#utility.yul\":1567:1570   */\n      dup4\n        /* \"#utility.yul\":1560:1564   */\n      0x1f\n        /* \"#utility.yul\":1552:1558   */\n      dup5\n        /* \"#utility.yul\":1548:1565   */\n      add\n        /* \"#utility.yul\":1544:1571   */\n      slt\n        /* \"#utility.yul\":1534:1656   */\n      tag_320\n      jumpi\n        /* \"#utility.yul\":1575:1654   */\n      tag_321\n      tag_246\n      jump\t// in\n    tag_321:\n        /* \"#utility.yul\":1534:1656   */\n    tag_320:\n        /* \"#utility.yul\":1688:1694   */\n      dup3\n        /* \"#utility.yul\":1675:1695   */\n      calldataload\n        /* \"#utility.yul\":1665:1695   */\n      swap1\n      pop\n        /* \"#utility.yul\":1718:1736   */\n      0xffffffffffffffff\n        /* \"#utility.yul\":1710:1716   */\n      dup2\n        /* \"#utility.yul\":1707:1737   */\n      gt\n        /* \"#utility.yul\":1704:1821   */\n      iszero\n      tag_322\n      jumpi\n        /* \"#utility.yul\":1740:1819   */\n      tag_323\n      tag_247\n      jump\t// in\n    tag_323:\n        /* \"#utility.yul\":1704:1821   */\n    tag_322:\n        /* \"#utility.yul\":1854:1858   */\n      0x20\n        /* \"#utility.yul\":1846:1852   */\n      dup4\n        /* \"#utility.yul\":1842:1859   */\n      add\n        /* \"#utility.yul\":1830:1859   */\n      swap2\n      pop\n        /* \"#utility.yul\":1908:1911   */\n      dup4\n        /* \"#utility.yul\":1900:1904   */\n      0x01\n        /* \"#utility.yul\":1892:1898   */\n      dup3\n        /* \"#utility.yul\":1888:1905   */\n      mul\n        /* \"#utility.yul\":1878:1886   */\n      dup4\n        /* \"#utility.yul\":1874:1906   */\n      add\n        /* \"#utility.yul\":1871:1912   */\n      gt\n        /* \"#utility.yul\":1868:1996   */\n      iszero\n      tag_324\n      jumpi\n        /* \"#utility.yul\":1915:1994   */\n      tag_325\n      tag_248\n      jump\t// in\n    tag_325:\n        /* \"#utility.yul\":1868:1996   */\n    tag_324:\n        /* \"#utility.yul\":1450:2002   */\n      swap3\n      pop\n      swap3\n      swap1\n      pop\n      jump\t// out\n        /* \"#utility.yul\":2008:2134   */\n    tag_250:\n        /* \"#utility.yul\":2045:2052   */\n      0x00\n        /* \"#utility.yul\":2085:2127   */\n      0xffffffffffffffffffffffffffffffffffffffff\n        /* \"#utility.yul\":2078:2083   */\n      dup3\n        /* \"#utility.yul\":2074:2128   */\n      and\n        /* \"#utility.yul\":2063:2128   */\n      swap1\n      pop\n        /* \"#utility.yul\":2008:2134   */\n      swap2\n      swap1\n      pop\n      jump\t// out\n        /* \"#utility.yul\":2140:2236   */\n    tag_251:\n        /* \"#utility.yul\":2177:2184   */\n      0x00\n        /* \"#utility.yul\":2206:2230   */\n      tag_328\n        /* \"#utility.yul\":2224:2229   */\n      dup3\n        /* \"#utility.yul\":2206:2230   */\n      tag_250\n      jump\t// in\n    tag_328:\n        /* \"#utility.yul\":2195:2230   */\n      swap1\n      pop\n        /* \"#utility.yul\":2140:2236   */\n      swap2\n      swap1\n      pop\n      jump\t// out\n        /* \"#utility.yul\":2242:2364   */\n    tag_252:\n        /* \"#utility.yul\":2315:2339   */\n      tag_330\n        /* \"#utility.yul\":2333:2338   */\n      dup2\n        /* \"#utility.yul\":2315:2339   */\n      tag_251\n      jump\t// in\n    tag_330:\n        /* \"#utility.yul\":2308:2313   */\n      dup2\n        /* \"#utility.yul\":2305:2340   */\n      eq\n        /* \"#utility.yul\":2295:2358   */\n      tag_331\n      jumpi\n        /* \"#utility.yul\":2354:2355   */\n      0x00\n        /* \"#utility.yul\":2351:2352   */\n      dup1\n        /* \"#utility.yul\":2344:2356   */\n      revert\n        /* \"#utility.yul\":2295:2358   */\n    tag_331:\n        /* \"#utility.yul\":2242:2364   */\n      pop\n      jump\t// out\n        /* \"#utility.yul\":2370:2509   */\n    tag_253:\n        /* \"#utility.yul\":2416:2421   */\n      0x00\n        /* \"#utility.yul\":2454:2460   */\n      dup2\n        /* \"#utility.yul\":2441:2461   */\n      calldataload\n        /* \"#utility.yul\":2432:2461   */\n      swap1\n      pop\n        /* \"#utility.yul\":2470:2503   */\n      tag_333\n        /* \"#utility.yul\":2497:2502   */\n      dup2\n        /* \"#utility.yul\":2470:2503   */\n      tag_252\n      jump\t// in\n    tag_333:\n        /* \"#utility.yul\":2370:2509   */\n      swap3\n      swap2\n      pop\n      pop\n      jump\t// out\n        /* \"#utility.yul\":2515:3872   */\n    tag_27:\n        /* \"#utility.yul\":2656:2662   */\n      0x00\n        /* \"#utility.yul\":2664:2670   */\n      dup1\n        /* \"#utility.yul\":2672:2678   */\n      0x00\n        /* \"#utility.yul\":2680:2686   */\n      dup1\n        /* \"#utility.yul\":2688:2694   */\n      0x00\n        /* \"#utility.yul\":2696:2702   */\n      dup1\n        /* \"#utility.yul\":2704:2710   */\n      0x00\n        /* \"#utility.yul\":2753:2756   */\n      0xe0\n        /* \"#utility.yul\":2741:2750   */\n      dup9\n        /* \"#utility.yul\":2732:2739   */\n      dup11\n        /* \"#utility.yul\":2728:2751   */\n      sub\n        /* \"#utility.yul\":2724:2757   */\n      slt\n        /* \"#utility.yul\":2721:2841   */\n      iszero\n      tag_335\n      jumpi\n        /* \"#utility.yul\":2760:2839   */\n      tag_336\n      tag_239\n      jump\t// in\n    tag_336:\n        /* \"#utility.yul\":2721:2841   */\n    tag_335:\n        /* \"#utility.yul\":2880:2881   */\n      0x00\n        /* \"#utility.yul\":2905:2982   */\n      tag_337\n        /* \"#utility.yul\":2974:2981   */\n      dup11\n        /* \"#utility.yul\":2965:2971   */\n      dup3\n        /* \"#utility.yul\":2954:2963   */\n      dup12\n        /* \"#utility.yul\":2950:2972   */\n      add\n        /* \"#utility.yul\":2905:2982   */\n      tag_242\n      jump\t// in\n    tag_337:\n        /* \"#utility.yul\":2895:2982   */\n      swap8\n      pop\n        /* \"#utility.yul\":2851:2992   */\n      pop\n        /* \"#utility.yul\":3031:3033   */\n      0x60\n        /* \"#utility.yul\":3057:3110   */\n      tag_338\n        /* \"#utility.yul\":3102:3109   */\n      dup11\n        /* \"#utility.yul\":3093:3099   */\n      dup3\n        /* \"#utility.yul\":3082:3091   */\n      dup12\n        /* \"#utility.yul\":3078:3100   */\n      add\n        /* \"#utility.yul\":3057:3110   */\n      tag_245\n      jump\t// in\n    tag_338:\n        /* \"#utility.yul\":3047:3110   */\n      swap7\n      pop\n        /* \"#utility.yul\":3002:3120   */\n      pop\n        /* \"#utility.yul\":3187:3190   */\n      0x80\n        /* \"#utility.yul\":3176:3185   */\n      dup9\n        /* \"#utility.yul\":3172:3191   */\n      add\n        /* \"#utility.yul\":3159:3192   */\n      calldataload\n        /* \"#utility.yul\":3219:3237   */\n      0xffffffffffffffff\n        /* \"#utility.yul\":3211:3217   */\n      dup2\n        /* \"#utility.yul\":3208:3238   */\n      gt\n        /* \"#utility.yul\":3205:3322   */\n      iszero\n      tag_339\n      jumpi\n        /* \"#utility.yul\":3241:3320   */\n      tag_340\n      tag_240\n      jump\t// in\n    tag_340:\n        /* \"#utility.yul\":3205:3322   */\n    tag_339:\n        /* \"#utility.yul\":3354:3418   */\n      tag_341\n        /* \"#utility.yul\":3410:3417   */\n      dup11\n        /* \"#utility.yul\":3401:3407   */\n      dup3\n        /* \"#utility.yul\":3390:3399   */\n      dup12\n        /* \"#utility.yul\":3386:3408   */\n      add\n        /* \"#utility.yul\":3354:3418   */\n      tag_249\n      jump\t// in\n    tag_341:\n        /* \"#utility.yul\":3336:3418   */\n      swap6\n      pop\n      swap6\n      pop\n        /* \"#utility.yul\":3130:3428   */\n      pop\n        /* \"#utility.yul\":3467:3470   */\n      0xa0\n        /* \"#utility.yul\":3494:3547   */\n      tag_342\n        /* \"#utility.yul\":3539:3546   */\n      dup11\n        /* \"#utility.yul\":3530:3536   */\n      dup3\n        /* \"#utility.yul\":3519:3528   */\n      dup12\n        /* \"#utility.yul\":3515:3537   */\n      add\n        /* \"#utility.yul\":3494:3547   */\n      tag_253\n      jump\t// in\n    tag_342:\n        /* \"#utility.yul\":3484:3547   */\n      swap4\n      pop\n        /* \"#utility.yul\":3438:3557   */\n      pop\n        /* \"#utility.yul\":3624:3627   */\n      0xc0\n        /* \"#utility.yul\":3613:3622   */\n      dup9\n        /* \"#utility.yul\":3609:3628   */\n      add\n        /* \"#utility.yul\":3596:3629   */\n      calldataload\n        /* \"#utility.yul\":3656:3674   */\n      0xffffffffffffffff\n        /* \"#utility.yul\":3648:3654   */\n      dup2\n        /* \"#utility.yul\":3645:3675   */\n      gt\n        /* \"#utility.yul\":3642:3759   */\n      iszero\n      tag_343\n      jumpi\n        /* \"#utility.yul\":3678:3757   */\n      tag_344\n      tag_240\n      jump\t// in\n    tag_344:\n        /* \"#utility.yul\":3642:3759   */\n    tag_343:\n        /* \"#utility.yul\":3791:3855   */\n      tag_345\n        /* \"#utility.yul\":3847:3854   */\n      dup11\n        /* \"#utility.yul\":3838:3844   */\n      dup3\n        /* \"#utility.yul\":3827:3836   */\n      dup12\n        /* \"#utility.yul\":3823:3845   */\n      add\n        /* \"#utility.yul\":3791:3855   */\n      tag_249\n      jump\t// in\n    tag_345:\n        /* \"#utility.yul\":3773:3855   */\n      swap3\n      pop\n      swap3\n      pop\n        /* \"#utility.yul\":3567:3865   */\n      pop\n        /* \"#utility.yul\":2515:3872   */\n      swap3\n      swap6\n      swap9\n      swap2\n      swap5\n      swap8\n      pop\n      swap3\n      swap6\n      pop\n      jump\t// out\n        /* \"#utility.yul\":3878:3979   */\n    tag_254:\n        /* \"#utility.yul\":3914:3921   */\n      0x00\n        /* \"#utility.yul\":3954:3972   */\n      0xffffffffffffffff\n        /* \"#utility.yul\":3947:3952   */\n      dup3\n        /* \"#utility.yul\":3943:3973   */\n      and\n        /* \"#utility.yul\":3932:3973   */\n      swap1\n      pop\n        /* \"#utility.yul\":3878:3979   */\n      swap2\n      swap1\n      pop\n      jump\t// out\n        /* \"#utility.yul\":3985:4100   */\n    tag_255:\n        /* \"#utility.yul\":4070:4093   */\n      tag_348\n        /* \"#utility.yul\":4087:4092   */\n      dup2\n        /* \"#utility.yul\":4070:4093   */\n      tag_254\n      jump\t// in\n    tag_348:\n        /* \"#utility.yul\":4065:4068   */\n      dup3\n        /* \"#utility.yul\":4058:4094   */\n      mstore\n        /* \"#utility.yul\":3985:4100   */\n      pop\n      pop\n      jump\t// out\n        /* \"#utility.yul\":4106:4430   */\n    tag_33:\n        /* \"#utility.yul\":4223:4227   */\n      0x00\n        /* \"#utility.yul\":4261:4263   */\n      0x40\n        /* \"#utility.yul\":4250:4259   */\n      dup3\n        /* \"#utility.yul\":4246:4264   */\n      add\n        /* \"#utility.yul\":4238:4264   */\n      swap1\n      pop\n        /* \"#utility.yul\":4274:4343   */\n      tag_350\n        /* \"#utility.yul\":4340:4341   */\n      0x00\n        /* \"#utility.yul\":4329:4338   */\n      dup4\n        /* \"#utility.yul\":4325:4342   */\n      add\n        /* \"#utility.yul\":4316:4322   */\n      dup6\n        /* \"#utility.yul\":4274:4343   */\n      tag_255\n      jump\t// in\n    tag_350:\n        /* \"#utility.yul\":4353:4423   */\n      tag_351\n        /* \"#utility.yul\":4419:4421   */\n      0x20\n        /* \"#utility.yul\":4408:4417   */\n      dup4\n        /* \"#utility.yul\":4404:4422   */\n      add\n        /* \"#utility.yul\":4395:4401   */\n      dup5\n        /* \"#utility.yul\":4353:4423   */\n      tag_255\n      jump\t// in\n    tag_351:\n        /* \"#utility.yul\":4106:4430   */\n      swap4\n      swap3\n      pop\n      pop\n      pop\n      jump\t// out\n        /* \"#utility.yul\":4436:4529   */\n    tag_256:\n        /* \"#utility.yul\":4472:4479   */\n      0x00\n        /* \"#utility.yul\":4512:4522   */\n      0xffffffff\n        /* \"#utility.yul\":4505:4510   */\n      dup3\n        /* \"#utility.yul\":4501:4523   */\n      and\n        /* \"#utility.yul\":4490:4523   */\n      swap1\n      pop\n        /* \"#utility.yul\":4436:4529   */\n      swap2\n      swap1\n      pop\n      jump\t// out\n        /* \"#utility.yul\":4535:4655   */\n    tag_257:\n        /* \"#utility.yul\":4607:4630   */\n      tag_354\n        /* \"#utility.yul\":4624:4629   */\n      dup2\n        /* \"#utility.yul\":4607:4630   */\n      tag_256\n      jump\t// in\n    tag_354:\n        /* \"#utility.yul\":4600:4605   */\n      dup2\n        /* \"#utility.yul\":4597:4631   */\n      eq\n        /* \"#utility.yul\":4587:4649   */\n      tag_355\n      jumpi\n        /* \"#utility.yul\":4645:4646   */\n      0x00\n        /* \"#utility.yul\":4642:4643   */\n      dup1\n        /* \"#utility.yul\":4635:4647   */\n      revert\n        /* \"#utility.yul\":4587:4649   */\n    tag_355:\n        /* \"#utility.yul\":4535:4655   */\n      pop\n      jump\t// out\n        /* \"#utility.yul\":4661:4798   */\n    tag_258:\n        /* \"#utility.yul\":4706:4711   */\n      0x00\n        /* \"#utility.yul\":4744:4750   */\n      dup2\n        /* \"#utility.yul\":4731:4751   */\n      calldataload\n        /* \"#utility.yul\":4722:4751   */\n      swap1\n      pop\n        /* \"#utility.yul\":4760:4792   */\n      tag_357\n        /* \"#utility.yul\":4786:4791   */\n      dup2\n        /* \"#utility.yul\":4760:4792   */\n      tag_257\n      jump\t// in\n    tag_357:\n        /* \"#utility.yul\":4661:4798   */\n      swap3\n      swap2\n      pop\n      pop\n      jump\t// out\n        /* \"#utility.yul\":4804:5276   */\n    tag_37:\n        /* \"#utility.yul\":4871:4877   */\n      0x00\n        /* \"#utility.yul\":4879:4885   */\n      dup1\n        /* \"#utility.yul\":4928:4930   */\n      0x40\n        /* \"#utility.yul\":4916:4925   */\n      dup4\n        /* \"#utility.yul\":4907:4914   */\n      dup6\n        /* \"#utility.yul\":4903:4926   */\n      sub\n        /* \"#utility.yul\":4899:4931   */\n      slt\n        /* \"#utility.yul\":4896:5015   */\n      iszero\n      tag_359\n      jumpi\n        /* \"#utility.yul\":4934:5013   */\n      tag_360\n      tag_239\n      jump\t// in\n    tag_360:\n        /* \"#utility.yul\":4896:5015   */\n    tag_359:\n        /* \"#utility.yul\":5054:5055   */\n      0x00\n        /* \"#utility.yul\":5079:5131   */\n      tag_361\n        /* \"#utility.yul\":5123:5130   */\n      dup6\n        /* \"#utility.yul\":5114:5120   */\n      dup3\n        /* \"#utility.yul\":5103:5112   */\n      dup7\n        /* \"#utility.yul\":5099:5121   */\n      add\n        /* \"#utility.yul\":5079:5131   */\n      tag_258\n      jump\t// in\n    tag_361:\n        /* \"#utility.yul\":5069:5131   */\n      swap3\n      pop\n        /* \"#utility.yul\":5025:5141   */\n      pop\n        /* \"#utility.yul\":5180:5182   */\n      0x20\n        /* \"#utility.yul\":5206:5259   */\n      tag_362\n        /* \"#utility.yul\":5251:5258   */\n      dup6\n        /* \"#utility.yul\":5242:5248   */\n      dup3\n        /* \"#utility.yul\":5231:5240   */\n      dup7\n        /* \"#utility.yul\":5227:5249   */\n      add\n        /* \"#utility.yul\":5206:5259   */\n      tag_245\n      jump\t// in\n    tag_362:\n        /* \"#utility.yul\":5196:5259   */\n      swap2\n      pop\n        /* \"#utility.yul\":5151:5269   */\n      pop\n        /* \"#utility.yul\":4804:5276   */\n      swap3\n      pop\n      swap3\n      swap1\n      pop\n      jump\t// out\n        /* \"#utility.yul\":5282:5397   */\n    tag_259:\n        /* \"#utility.yul\":5367:5390   */\n      tag_364\n        /* \"#utility.yul\":5384:5389   */\n      dup2\n        /* \"#utility.yul\":5367:5390   */\n      tag_256\n      jump\t// in\n    tag_364:\n        /* \"#utility.yul\":5362:5365   */\n      dup3\n        /* \"#utility.yul\":5355:5391   */\n      mstore\n        /* \"#utility.yul\":5282:5397   */\n      pop\n      pop\n      jump\t// out\n        /* \"#utility.yul\":5403:5621   */\n    tag_46:\n        /* \"#utility.yul\":5494:5498   */\n      0x00\n        /* \"#utility.yul\":5532:5534   */\n      0x20\n        /* \"#utility.yul\":5521:5530   */\n      dup3\n        /* \"#utility.yul\":5517:5535   */\n      add\n        /* \"#utility.yul\":5509:5535   */\n      swap1\n      pop\n        /* \"#utility.yul\":5545:5614   */\n      tag_366\n        /* \"#utility.yul\":5611:5612   */\n      0x00\n        /* \"#utility.yul\":5600:5609   */\n      dup4\n        /* \"#utility.yul\":5596:5613   */\n      add\n        /* \"#utility.yul\":5587:5593   */\n      dup5\n        /* \"#utility.yul\":5545:5614   */\n      tag_259\n      jump\t// in\n    tag_366:\n        /* \"#utility.yul\":5403:5621   */\n      swap3\n      swap2\n      pop\n      pop\n      jump\t// out\n        /* \"#utility.yul\":5627:5687   */\n    tag_260:\n        /* \"#utility.yul\":5655:5658   */\n      0x00\n        /* \"#utility.yul\":5676:5681   */\n      dup2\n        /* \"#utility.yul\":5669:5681   */\n      swap1\n      pop\n        /* \"#utility.yul\":5627:5687   */\n      swap2\n      swap1\n      pop\n      jump\t// out\n        /* \"#utility.yul\":5693:5835   */\n    tag_261:\n        /* \"#utility.yul\":5743:5752   */\n      0x00\n        /* \"#utility.yul\":5776:5829   */\n      tag_369\n        /* \"#utility.yul\":5794:5828   */\n      tag_370\n        /* \"#utility.yul\":5803:5827   */\n      tag_371\n        /* \"#utility.yul\":5821:5826   */\n      dup5\n        /* \"#utility.yul\":5803:5827   */\n      tag_250\n      jump\t// in\n    tag_371:\n        /* \"#utility.yul\":5794:5828   */\n      tag_260\n      jump\t// in\n    tag_370:\n        /* \"#utility.yul\":5776:5829   */\n      tag_250\n      jump\t// in\n    tag_369:\n        /* \"#utility.yul\":5763:5829   */\n      swap1\n      pop\n        /* \"#utility.yul\":5693:5835   */\n      swap2\n      swap1\n      pop\n      jump\t// out\n        /* \"#utility.yul\":5841:5967   */\n    tag_262:\n        /* \"#utility.yul\":5891:5900   */\n      0x00\n        /* \"#utility.yul\":5924:5961   */\n      tag_373\n        /* \"#utility.yul\":5955:5960   */\n      dup3\n        /* \"#utility.yul\":5924:5961   */\n      tag_261\n      jump\t// in\n    tag_373:\n        /* \"#utility.yul\":5911:5961   */\n      swap1\n      pop\n        /* \"#utility.yul\":5841:5967   */\n      swap2\n      swap1\n      pop\n      jump\t// out\n        /* \"#utility.yul\":5973:6127   */\n    tag_263:\n        /* \"#utility.yul\":6051:6060   */\n      0x00\n        /* \"#utility.yul\":6084:6121   */\n      tag_375\n        /* \"#utility.yul\":6115:6120   */\n      dup3\n        /* \"#utility.yul\":6084:6121   */\n      tag_262\n      jump\t// in\n    tag_375:\n        /* \"#utility.yul\":6071:6121   */\n      swap1\n      pop\n        /* \"#utility.yul\":5973:6127   */\n      swap2\n      swap1\n      pop\n      jump\t// out\n        /* \"#utility.yul\":6133:6320   */\n    tag_264:\n        /* \"#utility.yul\":6248:6313   */\n      tag_377\n        /* \"#utility.yul\":6307:6312   */\n      dup2\n        /* \"#utility.yul\":6248:6313   */\n      tag_263\n      jump\t// in\n    tag_377:\n        /* \"#utility.yul\":6243:6246   */\n      dup3\n        /* \"#utility.yul\":6236:6314   */\n      mstore\n        /* \"#utility.yul\":6133:6320   */\n      pop\n      pop\n      jump\t// out\n        /* \"#utility.yul\":6326:6604   */\n    tag_51:\n        /* \"#utility.yul\":6447:6451   */\n      0x00\n        /* \"#utility.yul\":6485:6487   */\n      0x20\n        /* \"#utility.yul\":6474:6483   */\n      dup3\n        /* \"#utility.yul\":6470:6488   */\n      add\n        /* \"#utility.yul\":6462:6488   */\n      swap1\n      pop\n        /* \"#utility.yul\":6498:6597   */\n      tag_379\n        /* \"#utility.yul\":6594:6595   */\n      0x00\n        /* \"#utility.yul\":6583:6592   */\n      dup4\n        /* \"#utility.yul\":6579:6596   */\n      add\n        /* \"#utility.yul\":6570:6576   */\n      dup5\n        /* \"#utility.yul\":6498:6597   */\n      tag_264\n      jump\t// in\n    tag_379:\n        /* \"#utility.yul\":6326:6604   */\n      swap3\n      swap2\n      pop\n      pop\n      jump\t// out\n        /* \"#utility.yul\":6610:6828   */\n    tag_60:\n        /* \"#utility.yul\":6701:6705   */\n      0x00\n        /* \"#utility.yul\":6739:6741   */\n      0x20\n        /* \"#utility.yul\":6728:6737   */\n      dup3\n        /* \"#utility.yul\":6724:6742   */\n      add\n        /* \"#utility.yul\":6716:6742   */\n      swap1\n      pop\n        /* \"#utility.yul\":6752:6821   */\n      tag_381\n        /* \"#utility.yul\":6818:6819   */\n      0x00\n        /* \"#utility.yul\":6807:6816   */\n      dup4\n        /* \"#utility.yul\":6803:6820   */\n      add\n        /* \"#utility.yul\":6794:6800   */\n      dup5\n        /* \"#utility.yul\":6752:6821   */\n      tag_255\n      jump\t// in\n    tag_381:\n        /* \"#utility.yul\":6610:6828   */\n      swap3\n      swap2\n      pop\n      pop\n      jump\t// out\n        /* \"#utility.yul\":6834:7701   */\n    tag_64:\n        /* \"#utility.yul\":6946:6952   */\n      0x00\n        /* \"#utility.yul\":6954:6960   */\n      dup1\n        /* \"#utility.yul\":6962:6968   */\n      0x00\n        /* \"#utility.yul\":6970:6976   */\n      dup1\n        /* \"#utility.yul\":7019:7022   */\n      0xa0\n        /* \"#utility.yul\":7007:7016   */\n      dup6\n        /* \"#utility.yul\":6998:7005   */\n      dup8\n        /* \"#utility.yul\":6994:7017   */\n      sub\n        /* \"#utility.yul\":6990:7023   */\n      slt\n        /* \"#utility.yul\":6987:7107   */\n      iszero\n      tag_383\n      jumpi\n        /* \"#utility.yul\":7026:7105   */\n      tag_384\n      tag_239\n      jump\t// in\n    tag_384:\n        /* \"#utility.yul\":6987:7107   */\n    tag_383:\n        /* \"#utility.yul\":7146:7147   */\n      0x00\n        /* \"#utility.yul\":7171:7248   */\n      tag_385\n        /* \"#utility.yul\":7240:7247   */\n      dup8\n        /* \"#utility.yul\":7231:7237   */\n      dup3\n        /* \"#utility.yul\":7220:7229   */\n      dup9\n        /* \"#utility.yul\":7216:7238   */\n      add\n        /* \"#utility.yul\":7171:7248   */\n      tag_242\n      jump\t// in\n    tag_385:\n        /* \"#utility.yul\":7161:7248   */\n      swap5\n      pop\n        /* \"#utility.yul\":7117:7258   */\n      pop\n        /* \"#utility.yul\":7325:7327   */\n      0x60\n        /* \"#utility.yul\":7314:7323   */\n      dup6\n        /* \"#utility.yul\":7310:7328   */\n      add\n        /* \"#utility.yul\":7297:7329   */\n      calldataload\n        /* \"#utility.yul\":7356:7374   */\n      0xffffffffffffffff\n        /* \"#utility.yul\":7348:7354   */\n      dup2\n        /* \"#utility.yul\":7345:7375   */\n      gt\n        /* \"#utility.yul\":7342:7459   */\n      iszero\n      tag_386\n      jumpi\n        /* \"#utility.yul\":7378:7457   */\n      tag_387\n      tag_240\n      jump\t// in\n    tag_387:\n        /* \"#utility.yul\":7342:7459   */\n    tag_386:\n        /* \"#utility.yul\":7491:7555   */\n      tag_388\n        /* \"#utility.yul\":7547:7554   */\n      dup8\n        /* \"#utility.yul\":7538:7544   */\n      dup3\n        /* \"#utility.yul\":7527:7536   */\n      dup9\n        /* \"#utility.yul\":7523:7545   */\n      add\n        /* \"#utility.yul\":7491:7555   */\n      tag_249\n      jump\t// in\n    tag_388:\n        /* \"#utility.yul\":7473:7555   */\n      swap4\n      pop\n      swap4\n      pop\n        /* \"#utility.yul\":7268:7565   */\n      pop\n        /* \"#utility.yul\":7604:7607   */\n      0x80\n        /* \"#utility.yul\":7631:7684   */\n      tag_389\n        /* \"#utility.yul\":7676:7683   */\n      dup8\n        /* \"#utility.yul\":7667:7673   */\n      dup3\n        /* \"#utility.yul\":7656:7665   */\n      dup9\n        /* \"#utility.yul\":7652:7674   */\n      add\n        /* \"#utility.yul\":7631:7684   */\n      tag_253\n      jump\t// in\n    tag_389:\n        /* \"#utility.yul\":7621:7684   */\n      swap2\n      pop\n        /* \"#utility.yul\":7575:7694   */\n      pop\n        /* \"#utility.yul\":6834:7701   */\n      swap3\n      swap6\n      swap2\n      swap5\n      pop\n      swap3\n      pop\n      jump\t// out\n        /* \"#utility.yul\":7707:7797   */\n    tag_265:\n        /* \"#utility.yul\":7741:7748   */\n      0x00\n        /* \"#utility.yul\":7784:7789   */\n      dup2\n        /* \"#utility.yul\":7777:7790   */\n      iszero\n        /* \"#utility.yul\":7770:7791   */\n      iszero\n        /* \"#utility.yul\":7759:7791   */\n      swap1\n      pop\n        /* \"#utility.yul\":7707:7797   */\n      swap2\n      swap1\n      pop\n      jump\t// out\n        /* \"#utility.yul\":7803:7912   */\n    tag_266:\n        /* \"#utility.yul\":7884:7905   */\n      tag_392\n        /* \"#utility.yul\":7899:7904   */\n      dup2\n        /* \"#utility.yul\":7884:7905   */\n      tag_265\n      jump\t// in\n    tag_392:\n        /* \"#utility.yul\":7879:7882   */\n      dup3\n        /* \"#utility.yul\":7872:7906   */\n      mstore\n        /* \"#utility.yul\":7803:7912   */\n      pop\n      pop\n      jump\t// out\n        /* \"#utility.yul\":7918:8128   */\n    tag_67:\n        /* \"#utility.yul\":8005:8009   */\n      0x00\n        /* \"#utility.yul\":8043:8045   */\n      0x20\n        /* \"#utility.yul\":8032:8041   */\n      dup3\n        /* \"#utility.yul\":8028:8046   */\n      add\n        /* \"#utility.yul\":8020:8046   */\n      swap1\n      pop\n        /* \"#utility.yul\":8056:8121   */\n      tag_394\n        /* \"#utility.yul\":8118:8119   */\n      0x00\n        /* \"#utility.yul\":8107:8116   */\n      dup4\n        /* \"#utility.yul\":8103:8120   */\n      add\n        /* \"#utility.yul\":8094:8100   */\n      dup5\n        /* \"#utility.yul\":8056:8121   */\n      tag_266\n      jump\t// in\n    tag_394:\n        /* \"#utility.yul\":7918:8128   */\n      swap3\n      swap2\n      pop\n      pop\n      jump\t// out\n        /* \"#utility.yul\":8134:8252   */\n    tag_267:\n        /* \"#utility.yul\":8221:8245   */\n      tag_396\n        /* \"#utility.yul\":8239:8244   */\n      dup2\n        /* \"#utility.yul\":8221:8245   */\n      tag_251\n      jump\t// in\n    tag_396:\n        /* \"#utility.yul\":8216:8219   */\n      dup3\n        /* \"#utility.yul\":8209:8246   */\n      mstore\n        /* \"#utility.yul\":8134:8252   */\n      pop\n      pop\n      jump\t// out\n        /* \"#utility.yul\":8258:8480   */\n    tag_72:\n        /* \"#utility.yul\":8351:8355   */\n      0x00\n        /* \"#utility.yul\":8389:8391   */\n      0x20\n        /* \"#utility.yul\":8378:8387   */\n      dup3\n        /* \"#utility.yul\":8374:8392   */\n      add\n        /* \"#utility.yul\":8366:8392   */\n      swap1\n      pop\n        /* \"#utility.yul\":8402:8473   */\n      tag_398\n        /* \"#utility.yul\":8470:8471   */\n      0x00\n        /* \"#utility.yul\":8459:8468   */\n      dup4\n        /* \"#utility.yul\":8455:8472   */\n      add\n        /* \"#utility.yul\":8446:8452   */\n      dup5\n        /* \"#utility.yul\":8402:8473   */\n      tag_267\n      jump\t// in\n    tag_398:\n        /* \"#utility.yul\":8258:8480   */\n      swap3\n      swap2\n      pop\n      pop\n      jump\t// out\n        /* \"#utility.yul\":8486:8563   */\n    tag_268:\n        /* \"#utility.yul\":8523:8530   */\n      0x00\n        /* \"#utility.yul\":8552:8557   */\n      dup2\n        /* \"#utility.yul\":8541:8557   */\n      swap1\n      pop\n        /* \"#utility.yul\":8486:8563   */\n      swap2\n      swap1\n      pop\n      jump\t// out\n        /* \"#utility.yul\":8569:8691   */\n    tag_269:\n        /* \"#utility.yul\":8642:8666   */\n      tag_401\n        /* \"#utility.yul\":8660:8665   */\n      dup2\n        /* \"#utility.yul\":8642:8666   */\n      tag_268\n      jump\t// in\n    tag_401:\n        /* \"#utility.yul\":8635:8640   */\n      dup2\n        /* \"#utility.yul\":8632:8667   */\n      eq\n        /* \"#utility.yul\":8622:8685   */\n      tag_402\n      jumpi\n        /* \"#utility.yul\":8681:8682   */\n      0x00\n        /* \"#utility.yul\":8678:8679   */\n      dup1\n        /* \"#utility.yul\":8671:8683   */\n      revert\n        /* \"#utility.yul\":8622:8685   */\n    tag_402:\n        /* \"#utility.yul\":8569:8691   */\n      pop\n      jump\t// out\n        /* \"#utility.yul\":8697:8836   */\n    tag_270:\n        /* \"#utility.yul\":8743:8748   */\n      0x00\n        /* \"#utility.yul\":8781:8787   */\n      dup2\n        /* \"#utility.yul\":8768:8788   */\n      calldataload\n        /* \"#utility.yul\":8759:8788   */\n      swap1\n      pop\n        /* \"#utility.yul\":8797:8830   */\n      tag_404\n        /* \"#utility.yul\":8824:8829   */\n      dup2\n        /* \"#utility.yul\":8797:8830   */\n      tag_269\n      jump\t// in\n    tag_404:\n        /* \"#utility.yul\":8697:8836   */\n      swap3\n      swap2\n      pop\n      pop\n      jump\t// out\n        /* \"#utility.yul\":8842:9171   */\n    tag_76:\n        /* \"#utility.yul\":8901:8907   */\n      0x00\n        /* \"#utility.yul\":8950:8952   */\n      0x20\n        /* \"#utility.yul\":8938:8947   */\n      dup3\n        /* \"#utility.yul\":8929:8936   */\n      dup5\n        /* \"#utility.yul\":8925:8948   */\n      sub\n        /* \"#utility.yul\":8921:8953   */\n      slt\n        /* \"#utility.yul\":8918:9037   */\n      iszero\n      tag_406\n      jumpi\n        /* \"#utility.yul\":8956:9035   */\n      tag_407\n      tag_239\n      jump\t// in\n    tag_407:\n        /* \"#utility.yul\":8918:9037   */\n    tag_406:\n        /* \"#utility.yul\":9076:9077   */\n      0x00\n        /* \"#utility.yul\":9101:9154   */\n      tag_408\n        /* \"#utility.yul\":9146:9153   */\n      dup5\n        /* \"#utility.yul\":9137:9143   */\n      dup3\n        /* \"#utility.yul\":9126:9135   */\n      dup6\n        /* \"#utility.yul\":9122:9144   */\n      add\n        /* \"#utility.yul\":9101:9154   */\n      tag_270\n      jump\t// in\n    tag_408:\n        /* \"#utility.yul\":9091:9154   */\n      swap2\n      pop\n        /* \"#utility.yul\":9047:9164   */\n      pop\n        /* \"#utility.yul\":8842:9171   */\n      swap3\n      swap2\n      pop\n      pop\n      jump\t// out\n        /* \"#utility.yul\":9177:9295   */\n    tag_271:\n        /* \"#utility.yul\":9264:9288   */\n      tag_410\n        /* \"#utility.yul\":9282:9287   */\n      dup2\n        /* \"#utility.yul\":9264:9288   */\n      tag_268\n      jump\t// in\n    tag_410:\n        /* \"#utility.yul\":9259:9262   */\n      dup3\n        /* \"#utility.yul\":9252:9289   */\n      mstore\n        /* \"#utility.yul\":9177:9295   */\n      pop\n      pop\n      jump\t// out\n        /* \"#utility.yul\":9301:9523   */\n    tag_79:\n        /* \"#utility.yul\":9394:9398   */\n      0x00\n        /* \"#utility.yul\":9432:9434   */\n      0x20\n        /* \"#utility.yul\":9421:9430   */\n      dup3\n        /* \"#utility.yul\":9417:9435   */\n      add\n        /* \"#utility.yul\":9409:9435   */\n      swap1\n      pop\n        /* \"#utility.yul\":9445:9516   */\n      tag_412\n        /* \"#utility.yul\":9513:9514   */\n      0x00\n        /* \"#utility.yul\":9502:9511   */\n      dup4\n        /* \"#utility.yul\":9498:9515   */\n      add\n        /* \"#utility.yul\":9489:9495   */\n      dup5\n        /* \"#utility.yul\":9445:9516   */\n      tag_271\n      jump\t// in\n    tag_412:\n        /* \"#utility.yul\":9301:9523   */\n      swap3\n      swap2\n      pop\n      pop\n      jump\t// out\n        /* \"#utility.yul\":9529:9856   */\n    tag_83:\n        /* \"#utility.yul\":9587:9593   */\n      0x00\n        /* \"#utility.yul\":9636:9638   */\n      0x20\n        /* \"#utility.yul\":9624:9633   */\n      dup3\n        /* \"#utility.yul\":9615:9622   */\n      dup5\n        /* \"#utility.yul\":9611:9634   */\n      sub\n        /* \"#utility.yul\":9607:9639   */\n      slt\n        /* \"#utility.yul\":9604:9723   */\n      iszero\n      tag_414\n      jumpi\n        /* \"#utility.yul\":9642:9721   */\n      tag_415\n      tag_239\n      jump\t// in\n    tag_415:\n        /* \"#utility.yul\":9604:9723   */\n    tag_414:\n        /* \"#utility.yul\":9762:9763   */\n      0x00\n        /* \"#utility.yul\":9787:9839   */\n      tag_416\n        /* \"#utility.yul\":9831:9838   */\n      dup5\n        /* \"#utility.yul\":9822:9828   */\n      dup3\n        /* \"#utility.yul\":9811:9820   */\n      dup6\n        /* \"#utility.yul\":9807:9829   */\n      add\n        /* \"#utility.yul\":9787:9839   */\n      tag_258\n      jump\t// in\n    tag_416:\n        /* \"#utility.yul\":9777:9839   */\n      swap2\n      pop\n        /* \"#utility.yul\":9733:9849   */\n      pop\n        /* \"#utility.yul\":9529:9856   */\n      swap3\n      swap2\n      pop\n      pop\n      jump\t// out\n        /* \"#utility.yul\":9862:9980   */\n    tag_272:\n        /* \"#utility.yul\":9949:9973   */\n      tag_418\n        /* \"#utility.yul\":9967:9972   */\n      dup2\n        /* \"#utility.yul\":9949:9973   */\n      tag_243\n      jump\t// in\n    tag_418:\n        /* \"#utility.yul\":9944:9947   */\n      dup3\n        /* \"#utility.yul\":9937:9974   */\n      mstore\n        /* \"#utility.yul\":9862:9980   */\n      pop\n      pop\n      jump\t// out\n        /* \"#utility.yul\":9986:10208   */\n    tag_86:\n        /* \"#utility.yul\":10079:10083   */\n      0x00\n        /* \"#utility.yul\":10117:10119   */\n      0x20\n        /* \"#utility.yul\":10106:10115   */\n      dup3\n        /* \"#utility.yul\":10102:10120   */\n      add\n        /* \"#utility.yul\":10094:10120   */\n      swap1\n      pop\n        /* \"#utility.yul\":10130:10201   */\n      tag_420\n        /* \"#utility.yul\":10198:10199   */\n      0x00\n        /* \"#utility.yul\":10187:10196   */\n      dup4\n        /* \"#utility.yul\":10183:10200   */\n      add\n        /* \"#utility.yul\":10174:10180   */\n      dup5\n        /* \"#utility.yul\":10130:10201   */\n      tag_272\n      jump\t// in\n    tag_420:\n        /* \"#utility.yul\":9986:10208   */\n      swap3\n      swap2\n      pop\n      pop\n      jump\t// out\n        /* \"#utility.yul\":10214:10543   */\n    tag_90:\n        /* \"#utility.yul\":10273:10279   */\n      0x00\n        /* \"#utility.yul\":10322:10324   */\n      0x20\n        /* \"#utility.yul\":10310:10319   */\n      dup3\n        /* \"#utility.yul\":10301:10308   */\n      dup5\n        /* \"#utility.yul\":10297:10320   */\n      sub\n        /* \"#utility.yul\":10293:10325   */\n      slt\n        /* \"#utility.yul\":10290:10409   */\n      iszero\n      tag_422\n      jumpi\n        /* \"#utility.yul\":10328:10407   */\n      tag_423\n      tag_239\n      jump\t// in\n    tag_423:\n        /* \"#utility.yul\":10290:10409   */\n    tag_422:\n        /* \"#utility.yul\":10448:10449   */\n      0x00\n        /* \"#utility.yul\":10473:10526   */\n      tag_424\n        /* \"#utility.yul\":10518:10525   */\n      dup5\n        /* \"#utility.yul\":10509:10515   */\n      dup3\n        /* \"#utility.yul\":10498:10507   */\n      dup6\n        /* \"#utility.yul\":10494:10516   */\n      add\n        /* \"#utility.yul\":10473:10526   */\n      tag_253\n      jump\t// in\n    tag_424:\n        /* \"#utility.yul\":10463:10526   */\n      swap2\n      pop\n        /* \"#utility.yul\":10419:10536   */\n      pop\n        /* \"#utility.yul\":10214:10543   */\n      swap3\n      swap2\n      pop\n      pop\n      jump\t// out\n        /* \"#utility.yul\":10549:11221   */\n    tag_94:\n        /* \"#utility.yul\":10628:10634   */\n      0x00\n        /* \"#utility.yul\":10636:10642   */\n      dup1\n        /* \"#utility.yul\":10644:10650   */\n      0x00\n        /* \"#utility.yul\":10693:10695   */\n      0x40\n        /* \"#utility.yul\":10681:10690   */\n      dup5\n        /* \"#utility.yul\":10672:10679   */\n      dup7\n        /* \"#utility.yul\":10668:10691   */\n      sub\n        /* \"#utility.yul\":10664:10696   */\n      slt\n        /* \"#utility.yul\":10661:10780   */\n      iszero\n      tag_426\n      jumpi\n        /* \"#utility.yul\":10699:10778   */\n      tag_427\n      tag_239\n      jump\t// in\n    tag_427:\n        /* \"#utility.yul\":10661:10780   */\n    tag_426:\n        /* \"#utility.yul\":10819:10820   */\n      0x00\n        /* \"#utility.yul\":10844:10897   */\n      tag_428\n        /* \"#utility.yul\":10889:10896   */\n      dup7\n        /* \"#utility.yul\":10880:10886   */\n      dup3\n        /* \"#utility.yul\":10869:10878   */\n      dup8\n        /* \"#utility.yul\":10865:10887   */\n      add\n        /* \"#utility.yul\":10844:10897   */\n      tag_270\n      jump\t// in\n    tag_428:\n        /* \"#utility.yul\":10834:10897   */\n      swap4\n      pop\n        /* \"#utility.yul\":10790:10907   */\n      pop\n        /* \"#utility.yul\":10974:10976   */\n      0x20\n        /* \"#utility.yul\":10963:10972   */\n      dup5\n        /* \"#utility.yul\":10959:10977   */\n      add\n        /* \"#utility.yul\":10946:10978   */\n      calldataload\n        /* \"#utility.yul\":11005:11023   */\n      0xffffffffffffffff\n        /* \"#utility.yul\":10997:11003   */\n      dup2\n        /* \"#utility.yul\":10994:11024   */\n      gt\n        /* \"#utility.yul\":10991:11108   */\n      iszero\n      tag_429\n      jumpi\n        /* \"#utility.yul\":11027:11106   */\n      tag_430\n      tag_240\n      jump\t// in\n    tag_430:\n        /* \"#utility.yul\":10991:11108   */\n    tag_429:\n        /* \"#utility.yul\":11140:11204   */\n      tag_431\n        /* \"#utility.yul\":11196:11203   */\n      dup7\n        /* \"#utility.yul\":11187:11193   */\n      dup3\n        /* \"#utility.yul\":11176:11185   */\n      dup8\n        /* \"#utility.yul\":11172:11194   */\n      add\n        /* \"#utility.yul\":11140:11204   */\n      tag_249\n      jump\t// in\n    tag_431:\n        /* \"#utility.yul\":11122:11204   */\n      swap3\n      pop\n      swap3\n      pop\n        /* \"#utility.yul\":10917:11214   */\n      pop\n        /* \"#utility.yul\":10549:11221   */\n      swap3\n      pop\n      swap3\n      pop\n      swap3\n      jump\t// out\n        /* \"#utility.yul\":11227:11604   */\n    tag_108:\n        /* \"#utility.yul\":11310:11316   */\n      0x00\n        /* \"#utility.yul\":11359:11361   */\n      0x60\n        /* \"#utility.yul\":11347:11356   */\n      dup3\n        /* \"#utility.yul\":11338:11345   */\n      dup5\n        /* \"#utility.yul\":11334:11357   */\n      sub\n        /* \"#utility.yul\":11330:11362   */\n      slt\n        /* \"#utility.yul\":11327:11446   */\n      iszero\n      tag_433\n      jumpi\n        /* \"#utility.yul\":11365:11444   */\n      tag_434\n      tag_239\n      jump\t// in\n    tag_434:\n        /* \"#utility.yul\":11327:11446   */\n    tag_433:\n        /* \"#utility.yul\":11485:11486   */\n      0x00\n        /* \"#utility.yul\":11510:11587   */\n      tag_435\n        /* \"#utility.yul\":11579:11586   */\n      dup5\n        /* \"#utility.yul\":11570:11576   */\n      dup3\n        /* \"#utility.yul\":11559:11568   */\n      dup6\n        /* \"#utility.yul\":11555:11577   */\n      add\n        /* \"#utility.yul\":11510:11587   */\n      tag_242\n      jump\t// in\n    tag_435:\n        /* \"#utility.yul\":11500:11587   */\n      swap2\n      pop\n        /* \"#utility.yul\":11456:11597   */\n      pop\n        /* \"#utility.yul\":11227:11604   */\n      swap3\n      swap2\n      pop\n      pop\n      jump\t// out\n        /* \"#utility.yul\":11610:11938   */\n    tag_120:\n        /* \"#utility.yul\":11729:11733   */\n      0x00\n        /* \"#utility.yul\":11767:11769   */\n      0x40\n        /* \"#utility.yul\":11756:11765   */\n      dup3\n        /* \"#utility.yul\":11752:11770   */\n      add\n        /* \"#utility.yul\":11744:11770   */\n      swap1\n      pop\n        /* \"#utility.yul\":11780:11849   */\n      tag_437\n        /* \"#utility.yul\":11846:11847   */\n      0x00\n        /* \"#utility.yul\":11835:11844   */\n      dup4\n        /* \"#utility.yul\":11831:11848   */\n      add\n        /* \"#utility.yul\":11822:11828   */\n      dup6\n        /* \"#utility.yul\":11780:11849   */\n      tag_259\n      jump\t// in\n    tag_437:\n        /* \"#utility.yul\":11859:11931   */\n      tag_438\n        /* \"#utility.yul\":11927:11929   */\n      0x20\n        /* \"#utility.yul\":11916:11925   */\n      dup4\n        /* \"#utility.yul\":11912:11930   */\n      add\n        /* \"#utility.yul\":11903:11909   */\n      dup5\n        /* \"#utility.yul\":11859:11931   */\n      tag_272\n      jump\t// in\n    tag_438:\n        /* \"#utility.yul\":11610:11938   */\n      swap4\n      swap3\n      pop\n      pop\n      pop\n      jump\t// out\n        /* \"#utility.yul\":11944:12276   */\n    tag_153:\n        /* \"#utility.yul\":12065:12069   */\n      0x00\n        /* \"#utility.yul\":12103:12105   */\n      0x40\n        /* \"#utility.yul\":12092:12101   */\n      dup3\n        /* \"#utility.yul\":12088:12106   */\n      add\n        /* \"#utility.yul\":12080:12106   */\n      swap1\n      pop\n        /* \"#utility.yul\":12116:12187   */\n      tag_440\n        /* \"#utility.yul\":12184:12185   */\n      0x00\n        /* \"#utility.yul\":12173:12182   */\n      dup4\n        /* \"#utility.yul\":12169:12186   */\n      add\n        /* \"#utility.yul\":12160:12166   */\n      dup6\n        /* \"#utility.yul\":12116:12187   */\n      tag_271\n      jump\t// in\n    tag_440:\n        /* \"#utility.yul\":12197:12269   */\n      tag_441\n        /* \"#utility.yul\":12265:12267   */\n      0x20\n        /* \"#utility.yul\":12254:12263   */\n      dup4\n        /* \"#utility.yul\":12250:12268   */\n      add\n        /* \"#utility.yul\":12241:12247   */\n      dup5\n        /* \"#utility.yul\":12197:12269   */\n      tag_271\n      jump\t// in\n    tag_441:\n        /* \"#utility.yul\":11944:12276   */\n      swap4\n      swap3\n      pop\n      pop\n      pop\n      jump\t// out\n        /* \"#utility.yul\":12282:12451   */\n    tag_273:\n        /* \"#utility.yul\":12366:12377   */\n      0x00\n        /* \"#utility.yul\":12400:12406   */\n      dup3\n        /* \"#utility.yul\":12395:12398   */\n      dup3\n        /* \"#utility.yul\":12388:12407   */\n      mstore\n        /* \"#utility.yul\":12440:12444   */\n      0x20\n        /* \"#utility.yul\":12435:12438   */\n      dup3\n        /* \"#utility.yul\":12431:12445   */\n      add\n        /* \"#utility.yul\":12416:12445   */\n      swap1\n      pop\n        /* \"#utility.yul\":12282:12451   */\n      swap3\n      swap2\n      pop\n      pop\n      jump\t// out\n        /* \"#utility.yul\":12457:12623   */\n    tag_274:\n        /* \"#utility.yul\":12597:12615   */\n      0x496e73756666696369656e742066656500000000000000000000000000000000\n        /* \"#utility.yul\":12593:12594   */\n      0x00\n        /* \"#utility.yul\":12585:12591   */\n      dup3\n        /* \"#utility.yul\":12581:12595   */\n      add\n        /* \"#utility.yul\":12574:12616   */\n      mstore\n        /* \"#utility.yul\":12457:12623   */\n      pop\n      jump\t// out\n        /* \"#utility.yul\":12629:12995   */\n    tag_275:\n        /* \"#utility.yul\":12771:12774   */\n      0x00\n        /* \"#utility.yul\":12792:12859   */\n      tag_445\n        /* \"#utility.yul\":12856:12858   */\n      0x10\n        /* \"#utility.yul\":12851:12854   */\n      dup4\n        /* \"#utility.yul\":12792:12859   */\n      tag_273\n      jump\t// in\n    tag_445:\n        /* \"#utility.yul\":12785:12859   */\n      swap2\n      pop\n        /* \"#utility.yul\":12868:12961   */\n      tag_446\n        /* \"#utility.yul\":12957:12960   */\n      dup3\n        /* \"#utility.yul\":12868:12961   */\n      tag_274\n      jump\t// in\n    tag_446:\n        /* \"#utility.yul\":12986:12988   */\n      0x20\n        /* \"#utility.yul\":12981:12984   */\n      dup3\n        /* \"#utility.yul\":12977:12989   */\n      add\n        /* \"#utility.yul\":12970:12989   */\n      swap1\n      pop\n        /* \"#utility.yul\":12629:12995   */\n      swap2\n      swap1\n      pop\n      jump\t// out\n        /* \"#utility.yul\":13001:13420   */\n    tag_158:\n        /* \"#utility.yul\":13167:13171   */\n      0x00\n        /* \"#utility.yul\":13205:13207   */\n      0x20\n        /* \"#utility.yul\":13194:13203   */\n      dup3\n        /* \"#utility.yul\":13190:13208   */\n      add\n        /* \"#utility.yul\":13182:13208   */\n      swap1\n      pop\n        /* \"#utility.yul\":13254:13263   */\n      dup2\n        /* \"#utility.yul\":13248:13252   */\n      dup2\n        /* \"#utility.yul\":13244:13264   */\n      sub\n        /* \"#utility.yul\":13240:13241   */\n      0x00\n        /* \"#utility.yul\":13229:13238   */\n      dup4\n        /* \"#utility.yul\":13225:13242   */\n      add\n        /* \"#utility.yul\":13218:13265   */\n      mstore\n        /* \"#utility.yul\":13282:13413   */\n      tag_448\n        /* \"#utility.yul\":13408:13412   */\n      dup2\n        /* \"#utility.yul\":13282:13413   */\n      tag_275\n      jump\t// in\n    tag_448:\n        /* \"#utility.yul\":13274:13413   */\n      swap1\n      pop\n        /* \"#utility.yul\":13001:13420   */\n      swap2\n      swap1\n      pop\n      jump\t// out\n        /* \"#utility.yul\":13426:13606   */\n    tag_276:\n        /* \"#utility.yul\":13474:13551   */\n      0x4e487b7100000000000000000000000000000000000000000000000000000000\n        /* \"#utility.yul\":13471:13472   */\n      0x00\n        /* \"#utility.yul\":13464:13552   */\n      mstore\n        /* \"#utility.yul\":13571:13575   */\n      0x11\n        /* \"#utility.yul\":13568:13569   */\n      0x04\n        /* \"#utility.yul\":13561:13576   */\n      mstore\n        /* \"#utility.yul\":13595:13599   */\n      0x24\n        /* \"#utility.yul\":13592:13593   */\n      0x00\n        /* \"#utility.yul\":13585:13600   */\n      revert\n        /* \"#utility.yul\":13612:13806   */\n    tag_160:\n        /* \"#utility.yul\":13652:13656   */\n      0x00\n        /* \"#utility.yul\":13672:13692   */\n      tag_451\n        /* \"#utility.yul\":13690:13691   */\n      dup3\n        /* \"#utility.yul\":13672:13692   */\n      tag_268\n      jump\t// in\n    tag_451:\n        /* \"#utility.yul\":13667:13692   */\n      swap2\n      pop\n        /* \"#utility.yul\":13706:13726   */\n      tag_452\n        /* \"#utility.yul\":13724:13725   */\n      dup4\n        /* \"#utility.yul\":13706:13726   */\n      tag_268\n      jump\t// in\n    tag_452:\n        /* \"#utility.yul\":13701:13726   */\n      swap3\n      pop\n        /* \"#utility.yul\":13750:13751   */\n      dup3\n        /* \"#utility.yul\":13747:13748   */\n      dup3\n        /* \"#utility.yul\":13743:13752   */\n      sub\n        /* \"#utility.yul\":13735:13752   */\n      swap1\n      pop\n        /* \"#utility.yul\":13774:13775   */\n      dup2\n        /* \"#utility.yul\":13768:13772   */\n      dup2\n        /* \"#utility.yul\":13765:13776   */\n      gt\n        /* \"#utility.yul\":13762:13799   */\n      iszero\n      tag_453\n      jumpi\n        /* \"#utility.yul\":13779:13797   */\n      tag_454\n      tag_276\n      jump\t// in\n    tag_454:\n        /* \"#utility.yul\":13762:13799   */\n    tag_453:\n        /* \"#utility.yul\":13612:13806   */\n      swap3\n      swap2\n      pop\n      pop\n      jump\t// out\n        /* \"#utility.yul\":13812:13897   */\n    tag_277:\n        /* \"#utility.yul\":13857:13864   */\n      0x00\n        /* \"#utility.yul\":13886:13891   */\n      dup2\n        /* \"#utility.yul\":13875:13891   */\n      swap1\n      pop\n        /* \"#utility.yul\":13812:13897   */\n      swap2\n      swap1\n      pop\n      jump\t// out\n        /* \"#utility.yul\":13903:13989   */\n    tag_278:\n        /* \"#utility.yul\":13938:13945   */\n      0x00\n        /* \"#utility.yul\":13978:13982   */\n      0xff\n        /* \"#utility.yul\":13971:13976   */\n      dup3\n        /* \"#utility.yul\":13967:13983   */\n      and\n        /* \"#utility.yul\":13956:13983   */\n      swap1\n      pop\n        /* \"#utility.yul\":13903:13989   */\n      swap2\n      swap1\n      pop\n      jump\t// out\n        /* \"#utility.yul\":13995:14149   */\n    tag_279:\n        /* \"#utility.yul\":14051:14060   */\n      0x00\n        /* \"#utility.yul\":14084:14143   */\n      tag_458\n        /* \"#utility.yul\":14100:14142   */\n      tag_459\n        /* \"#utility.yul\":14109:14141   */\n      tag_460\n        /* \"#utility.yul\":14135:14140   */\n      dup5\n        /* \"#utility.yul\":14109:14141   */\n      tag_277\n      jump\t// in\n    tag_460:\n        /* \"#utility.yul\":14100:14142   */\n      tag_260\n      jump\t// in\n    tag_459:\n        /* \"#utility.yul\":14084:14143   */\n      tag_278\n      jump\t// in\n    tag_458:\n        /* \"#utility.yul\":14071:14143   */\n      swap1\n      pop\n        /* \"#utility.yul\":13995:14149   */\n      swap2\n      swap1\n      pop\n      jump\t// out\n        /* \"#utility.yul\":14155:14298   */\n    tag_280:\n        /* \"#utility.yul\":14248:14291   */\n      tag_462\n        /* \"#utility.yul\":14285:14290   */\n      dup2\n        /* \"#utility.yul\":14248:14291   */\n      tag_279\n      jump\t// in\n    tag_462:\n        /* \"#utility.yul\":14243:14246   */\n      dup3\n        /* \"#utility.yul\":14236:14292   */\n      mstore\n        /* \"#utility.yul\":14155:14298   */\n      pop\n      pop\n      jump\t// out\n        /* \"#utility.yul\":14304:14648   */\n    tag_172:\n        /* \"#utility.yul\":14431:14435   */\n      0x00\n        /* \"#utility.yul\":14469:14471   */\n      0x40\n        /* \"#utility.yul\":14458:14467   */\n      dup3\n        /* \"#utility.yul\":14454:14472   */\n      add\n        /* \"#utility.yul\":14446:14472   */\n      swap1\n      pop\n        /* \"#utility.yul\":14482:14553   */\n      tag_464\n        /* \"#utility.yul\":14550:14551   */\n      0x00\n        /* \"#utility.yul\":14539:14548   */\n      dup4\n        /* \"#utility.yul\":14535:14552   */\n      add\n        /* \"#utility.yul\":14526:14532   */\n      dup6\n        /* \"#utility.yul\":14482:14553   */\n      tag_271\n      jump\t// in\n    tag_464:\n        /* \"#utility.yul\":14563:14641   */\n      tag_465\n        /* \"#utility.yul\":14637:14639   */\n      0x20\n        /* \"#utility.yul\":14626:14635   */\n      dup4\n        /* \"#utility.yul\":14622:14640   */\n      add\n        /* \"#utility.yul\":14613:14619   */\n      dup5\n        /* \"#utility.yul\":14563:14641   */\n      tag_280\n      jump\t// in\n    tag_465:\n        /* \"#utility.yul\":14304:14648   */\n      swap4\n      swap3\n      pop\n      pop\n      pop\n      jump\t// out\n        /* \"#utility.yul\":14654:14759   */\n    tag_281:\n        /* \"#utility.yul\":14729:14752   */\n      tag_467\n        /* \"#utility.yul\":14746:14751   */\n      dup2\n        /* \"#utility.yul\":14729:14752   */\n      tag_256\n      jump\t// in\n    tag_467:\n        /* \"#utility.yul\":14724:14727   */\n      dup3\n        /* \"#utility.yul\":14717:14753   */\n      mstore\n        /* \"#utility.yul\":14654:14759   */\n      pop\n      pop\n      jump\t// out\n        /* \"#utility.yul\":14765:14873   */\n    tag_282:\n        /* \"#utility.yul\":14842:14866   */\n      tag_469\n        /* \"#utility.yul\":14860:14865   */\n      dup2\n        /* \"#utility.yul\":14842:14866   */\n      tag_243\n      jump\t// in\n    tag_469:\n        /* \"#utility.yul\":14837:14840   */\n      dup3\n        /* \"#utility.yul\":14830:14867   */\n      mstore\n        /* \"#utility.yul\":14765:14873   */\n      pop\n      pop\n      jump\t// out\n        /* \"#utility.yul\":14879:14977   */\n    tag_283:\n        /* \"#utility.yul\":14930:14936   */\n      0x00\n        /* \"#utility.yul\":14964:14969   */\n      dup2\n        /* \"#utility.yul\":14958:14970   */\n      mload\n        /* \"#utility.yul\":14948:14970   */\n      swap1\n      pop\n        /* \"#utility.yul\":14879:14977   */\n      swap2\n      swap1\n      pop\n      jump\t// out\n        /* \"#utility.yul\":14983:15141   */\n    tag_284:\n        /* \"#utility.yul\":15056:15067   */\n      0x00\n        /* \"#utility.yul\":15090:15096   */\n      dup3\n        /* \"#utility.yul\":15085:15088   */\n      dup3\n        /* \"#utility.yul\":15078:15097   */\n      mstore\n        /* \"#utility.yul\":15130:15134   */\n      0x20\n        /* \"#utility.yul\":15125:15128   */\n      dup3\n        /* \"#utility.yul\":15121:15135   */\n      add\n        /* \"#utility.yul\":15106:15135   */\n      swap1\n      pop\n        /* \"#utility.yul\":14983:15141   */\n      swap3\n      swap2\n      pop\n      pop\n      jump\t// out\n        /* \"#utility.yul\":15147:15395   */\n    tag_285:\n        /* \"#utility.yul\":15229:15230   */\n      0x00\n        /* \"#utility.yul\":15239:15352   */\n    tag_473:\n        /* \"#utility.yul\":15253:15259   */\n      dup4\n        /* \"#utility.yul\":15250:15251   */\n      dup2\n        /* \"#utility.yul\":15247:15260   */\n      lt\n        /* \"#utility.yul\":15239:15352   */\n      iszero\n      tag_475\n      jumpi\n        /* \"#utility.yul\":15338:15339   */\n      dup1\n        /* \"#utility.yul\":15333:15336   */\n      dup3\n        /* \"#utility.yul\":15329:15340   */\n      add\n        /* \"#utility.yul\":15323:15341   */\n      mload\n        /* \"#utility.yul\":15319:15320   */\n      dup2\n        /* \"#utility.yul\":15314:15317   */\n      dup5\n        /* \"#utility.yul\":15310:15321   */\n      add\n        /* \"#utility.yul\":15303:15342   */\n      mstore\n        /* \"#utility.yul\":15275:15277   */\n      0x20\n        /* \"#utility.yul\":15272:15273   */\n      dup2\n        /* \"#utility.yul\":15268:15278   */\n      add\n        /* \"#utility.yul\":15263:15278   */\n      swap1\n      pop\n        /* \"#utility.yul\":15239:15352   */\n      jump(tag_473)\n    tag_475:\n        /* \"#utility.yul\":15386:15387   */\n      0x00\n        /* \"#utility.yul\":15377:15383   */\n      dup5\n        /* \"#utility.yul\":15372:15375   */\n      dup5\n        /* \"#utility.yul\":15368:15384   */\n      add\n        /* \"#utility.yul\":15361:15388   */\n      mstore\n        /* \"#utility.yul\":15209:15395   */\n      pop\n        /* \"#utility.yul\":15147:15395   */\n      pop\n      pop\n      pop\n      jump\t// out\n        /* \"#utility.yul\":15401:15503   */\n    tag_286:\n        /* \"#utility.yul\":15442:15448   */\n      0x00\n        /* \"#utility.yul\":15493:15495   */\n      0x1f\n        /* \"#utility.yul\":15489:15496   */\n      not\n        /* \"#utility.yul\":15484:15486   */\n      0x1f\n        /* \"#utility.yul\":15477:15482   */\n      dup4\n        /* \"#utility.yul\":15473:15487   */\n      add\n        /* \"#utility.yul\":15469:15497   */\n      and\n        /* \"#utility.yul\":15459:15497   */\n      swap1\n      pop\n        /* \"#utility.yul\":15401:15503   */\n      swap2\n      swap1\n      pop\n      jump\t// out\n        /* \"#utility.yul\":15509:15862   */\n    tag_287:\n        /* \"#utility.yul\":15585:15588   */\n      0x00\n        /* \"#utility.yul\":15613:15651   */\n      tag_478\n        /* \"#utility.yul\":15645:15650   */\n      dup3\n        /* \"#utility.yul\":15613:15651   */\n      tag_283\n      jump\t// in\n    tag_478:\n        /* \"#utility.yul\":15667:15727   */\n      tag_479\n        /* \"#utility.yul\":15720:15726   */\n      dup2\n        /* \"#utility.yul\":15715:15718   */\n      dup6\n        /* \"#utility.yul\":15667:15727   */\n      tag_284\n      jump\t// in\n    tag_479:\n        /* \"#utility.yul\":15660:15727   */\n      swap4\n      pop\n        /* \"#utility.yul\":15736:15801   */\n      tag_480\n        /* \"#utility.yul\":15794:15800   */\n      dup2\n        /* \"#utility.yul\":15789:15792   */\n      dup6\n        /* \"#utility.yul\":15782:15786   */\n      0x20\n        /* \"#utility.yul\":15775:15780   */\n      dup7\n        /* \"#utility.yul\":15771:15787   */\n      add\n        /* \"#utility.yul\":15736:15801   */\n      tag_285\n      jump\t// in\n    tag_480:\n        /* \"#utility.yul\":15826:15855   */\n      tag_481\n        /* \"#utility.yul\":15848:15854   */\n      dup2\n        /* \"#utility.yul\":15826:15855   */\n      tag_286\n      jump\t// in\n    tag_481:\n        /* \"#utility.yul\":15821:15824   */\n      dup5\n        /* \"#utility.yul\":15817:15856   */\n      add\n        /* \"#utility.yul\":15810:15856   */\n      swap2\n      pop\n        /* \"#utility.yul\":15589:15862   */\n      pop\n        /* \"#utility.yul\":15509:15862   */\n      swap3\n      swap2\n      pop\n      pop\n      jump\t// out\n        /* \"#utility.yul\":15868:15967   */\n    tag_288:\n        /* \"#utility.yul\":15939:15960   */\n      tag_483\n        /* \"#utility.yul\":15954:15959   */\n      dup2\n        /* \"#utility.yul\":15939:15960   */\n      tag_265\n      jump\t// in\n    tag_483:\n        /* \"#utility.yul\":15934:15937   */\n      dup3\n        /* \"#utility.yul\":15927:15961   */\n      mstore\n        /* \"#utility.yul\":15868:15967   */\n      pop\n      pop\n      jump\t// out\n        /* \"#utility.yul\":16029:17248   */\n    tag_289:\n        /* \"#utility.yul\":16160:16163   */\n      0x00\n        /* \"#utility.yul\":16196:16200   */\n      0xa0\n        /* \"#utility.yul\":16191:16194   */\n      dup4\n        /* \"#utility.yul\":16187:16201   */\n      add\n        /* \"#utility.yul\":16285:16289   */\n      0x00\n        /* \"#utility.yul\":16278:16283   */\n      dup4\n        /* \"#utility.yul\":16274:16290   */\n      add\n        /* \"#utility.yul\":16268:16291   */\n      mload\n        /* \"#utility.yul\":16304:16365   */\n      tag_485\n        /* \"#utility.yul\":16359:16363   */\n      0x00\n        /* \"#utility.yul\":16354:16357   */\n      dup7\n        /* \"#utility.yul\":16350:16364   */\n      add\n        /* \"#utility.yul\":16336:16348   */\n      dup3\n        /* \"#utility.yul\":16304:16365   */\n      tag_281\n      jump\t// in\n    tag_485:\n        /* \"#utility.yul\":16211:16375   */\n      pop\n        /* \"#utility.yul\":16461:16465   */\n      0x20\n        /* \"#utility.yul\":16454:16459   */\n      dup4\n        /* \"#utility.yul\":16450:16466   */\n      add\n        /* \"#utility.yul\":16444:16467   */\n      mload\n        /* \"#utility.yul\":16480:16543   */\n      tag_486\n        /* \"#utility.yul\":16537:16541   */\n      0x20\n        /* \"#utility.yul\":16532:16535   */\n      dup7\n        /* \"#utility.yul\":16528:16542   */\n      add\n        /* \"#utility.yul\":16514:16526   */\n      dup3\n        /* \"#utility.yul\":16480:16543   */\n      tag_282\n      jump\t// in\n    tag_486:\n        /* \"#utility.yul\":16385:16553   */\n      pop\n        /* \"#utility.yul\":16638:16642   */\n      0x40\n        /* \"#utility.yul\":16631:16636   */\n      dup4\n        /* \"#utility.yul\":16627:16643   */\n      add\n        /* \"#utility.yul\":16621:16644   */\n      mload\n        /* \"#utility.yul\":16691:16694   */\n      dup5\n        /* \"#utility.yul\":16685:16689   */\n      dup3\n        /* \"#utility.yul\":16681:16695   */\n      sub\n        /* \"#utility.yul\":16674:16678   */\n      0x40\n        /* \"#utility.yul\":16669:16672   */\n      dup7\n        /* \"#utility.yul\":16665:16679   */\n      add\n        /* \"#utility.yul\":16658:16696   */\n      mstore\n        /* \"#utility.yul\":16717:16788   */\n      tag_487\n        /* \"#utility.yul\":16783:16787   */\n      dup3\n        /* \"#utility.yul\":16769:16781   */\n      dup3\n        /* \"#utility.yul\":16717:16788   */\n      tag_287\n      jump\t// in\n    tag_487:\n        /* \"#utility.yul\":16709:16788   */\n      swap2\n      pop\n        /* \"#utility.yul\":16563:16799   */\n      pop\n        /* \"#utility.yul\":16884:16888   */\n      0x60\n        /* \"#utility.yul\":16877:16882   */\n      dup4\n        /* \"#utility.yul\":16873:16889   */\n      add\n        /* \"#utility.yul\":16867:16890   */\n      mload\n        /* \"#utility.yul\":16937:16940   */\n      dup5\n        /* \"#utility.yul\":16931:16935   */\n      dup3\n        /* \"#utility.yul\":16927:16941   */\n      sub\n        /* \"#utility.yul\":16920:16924   */\n      0x60\n        /* \"#utility.yul\":16915:16918   */\n      dup7\n        /* \"#utility.yul\":16911:16925   */\n      add\n        /* \"#utility.yul\":16904:16942   */\n      mstore\n        /* \"#utility.yul\":16963:17034   */\n      tag_488\n        /* \"#utility.yul\":17029:17033   */\n      dup3\n        /* \"#utility.yul\":17015:17027   */\n      dup3\n        /* \"#utility.yul\":16963:17034   */\n      tag_287\n      jump\t// in\n    tag_488:\n        /* \"#utility.yul\":16955:17034   */\n      swap2\n      pop\n        /* \"#utility.yul\":16809:17045   */\n      pop\n        /* \"#utility.yul\":17135:17139   */\n      0x80\n        /* \"#utility.yul\":17128:17133   */\n      dup4\n        /* \"#utility.yul\":17124:17140   */\n      add\n        /* \"#utility.yul\":17118:17141   */\n      mload\n        /* \"#utility.yul\":17154:17211   */\n      tag_489\n        /* \"#utility.yul\":17205:17209   */\n      0x80\n        /* \"#utility.yul\":17200:17203   */\n      dup7\n        /* \"#utility.yul\":17196:17210   */\n      add\n        /* \"#utility.yul\":17182:17194   */\n      dup3\n        /* \"#utility.yul\":17154:17211   */\n      tag_288\n      jump\t// in\n    tag_489:\n        /* \"#utility.yul\":17055:17221   */\n      pop\n        /* \"#utility.yul\":17238:17242   */\n      dup1\n        /* \"#utility.yul\":17231:17242   */\n      swap2\n      pop\n        /* \"#utility.yul\":16165:17248   */\n      pop\n        /* \"#utility.yul\":16029:17248   */\n      swap3\n      swap2\n      pop\n      pop\n      jump\t// out\n        /* \"#utility.yul\":17254:17761   */\n    tag_195:\n        /* \"#utility.yul\":17437:17441   */\n      0x00\n        /* \"#utility.yul\":17475:17477   */\n      0x40\n        /* \"#utility.yul\":17464:17473   */\n      dup3\n        /* \"#utility.yul\":17460:17478   */\n      add\n        /* \"#utility.yul\":17452:17478   */\n      swap1\n      pop\n        /* \"#utility.yul\":17524:17533   */\n      dup2\n        /* \"#utility.yul\":17518:17522   */\n      dup2\n        /* \"#utility.yul\":17514:17534   */\n      sub\n        /* \"#utility.yul\":17510:17511   */\n      0x00\n        /* \"#utility.yul\":17499:17508   */\n      dup4\n        /* \"#utility.yul\":17495:17512   */\n      add\n        /* \"#utility.yul\":17488:17535   */\n      mstore\n        /* \"#utility.yul\":17552:17672   */\n      tag_491\n        /* \"#utility.yul\":17667:17671   */\n      dup2\n        /* \"#utility.yul\":17658:17664   */\n      dup6\n        /* \"#utility.yul\":17552:17672   */\n      tag_289\n      jump\t// in\n    tag_491:\n        /* \"#utility.yul\":17544:17672   */\n      swap1\n      pop\n        /* \"#utility.yul\":17682:17754   */\n      tag_492\n        /* \"#utility.yul\":17750:17752   */\n      0x20\n        /* \"#utility.yul\":17739:17748   */\n      dup4\n        /* \"#utility.yul\":17735:17753   */\n      add\n        /* \"#utility.yul\":17726:17732   */\n      dup5\n        /* \"#utility.yul\":17682:17754   */\n      tag_267\n      jump\t// in\n    tag_492:\n        /* \"#utility.yul\":17254:17761   */\n      swap4\n      swap3\n      pop\n      pop\n      pop\n      jump\t// out\n        /* \"#utility.yul\":17767:17884   */\n    tag_290:\n        /* \"#utility.yul\":17876:17877   */\n      0x00\n        /* \"#utility.yul\":17873:17874   */\n      dup1\n        /* \"#utility.yul\":17866:17878   */\n      revert\n        /* \"#utility.yul\":17890:18070   */\n    tag_291:\n        /* \"#utility.yul\":17938:18015   */\n      0x4e487b7100000000000000000000000000000000000000000000000000000000\n        /* \"#utility.yul\":17935:17936   */\n      0x00\n        /* \"#utility.yul\":17928:18016   */\n      mstore\n        /* \"#utility.yul\":18035:18039   */\n      0x41\n        /* \"#utility.yul\":18032:18033   */\n      0x04\n        /* \"#utility.yul\":18025:18040   */\n      mstore\n        /* \"#utility.yul\":18059:18063   */\n      0x24\n        /* \"#utility.yul\":18056:18057   */\n      0x00\n        /* \"#utility.yul\":18049:18064   */\n      revert\n        /* \"#utility.yul\":18076:18357   */\n    tag_292:\n        /* \"#utility.yul\":18159:18186   */\n      tag_496\n        /* \"#utility.yul\":18181:18185   */\n      dup3\n        /* \"#utility.yul\":18159:18186   */\n      tag_286\n      jump\t// in\n    tag_496:\n        /* \"#utility.yul\":18151:18157   */\n      dup2\n        /* \"#utility.yul\":18147:18187   */\n      add\n        /* \"#utility.yul\":18289:18295   */\n      dup2\n        /* \"#utility.yul\":18277:18287   */\n      dup2\n        /* \"#utility.yul\":18274:18296   */\n      lt\n        /* \"#utility.yul\":18253:18271   */\n      0xffffffffffffffff\n        /* \"#utility.yul\":18241:18251   */\n      dup3\n        /* \"#utility.yul\":18238:18272   */\n      gt\n        /* \"#utility.yul\":18235:18297   */\n      or\n        /* \"#utility.yul\":18232:18320   */\n      iszero\n      tag_497\n      jumpi\n        /* \"#utility.yul\":18300:18318   */\n      tag_498\n      tag_291\n      jump\t// in\n    tag_498:\n        /* \"#utility.yul\":18232:18320   */\n    tag_497:\n        /* \"#utility.yul\":18340:18350   */\n      dup1\n        /* \"#utility.yul\":18336:18338   */\n      0x40\n        /* \"#utility.yul\":18329:18351   */\n      mstore\n        /* \"#utility.yul\":18119:18357   */\n      pop\n        /* \"#utility.yul\":18076:18357   */\n      pop\n      pop\n      jump\t// out\n        /* \"#utility.yul\":18363:18492   */\n    tag_293:\n        /* \"#utility.yul\":18397:18403   */\n      0x00\n        /* \"#utility.yul\":18424:18444   */\n      tag_500\n      tag_238\n      jump\t// in\n    tag_500:\n        /* \"#utility.yul\":18414:18444   */\n      swap1\n      pop\n        /* \"#utility.yul\":18453:18486   */\n      tag_501\n        /* \"#utility.yul\":18481:18485   */\n      dup3\n        /* \"#utility.yul\":18473:18479   */\n      dup3\n        /* \"#utility.yul\":18453:18486   */\n      tag_292\n      jump\t// in\n    tag_501:\n        /* \"#utility.yul\":18363:18492   */\n      swap2\n      swap1\n      pop\n      jump\t// out\n        /* \"#utility.yul\":18621:18764   */\n    tag_295:\n        /* \"#utility.yul\":18678:18683   */\n      0x00\n        /* \"#utility.yul\":18709:18715   */\n      dup2\n        /* \"#utility.yul\":18703:18716   */\n      mload\n        /* \"#utility.yul\":18694:18716   */\n      swap1\n      pop\n        /* \"#utility.yul\":18725:18758   */\n      tag_504\n        /* \"#utility.yul\":18752:18757   */\n      dup2\n        /* \"#utility.yul\":18725:18758   */\n      tag_269\n      jump\t// in\n    tag_504:\n        /* \"#utility.yul\":18621:18764   */\n      swap3\n      swap2\n      pop\n      pop\n      jump\t// out\n        /* \"#utility.yul\":18797:19418   */\n    tag_296:\n        /* \"#utility.yul\":18885:18890   */\n      0x00\n        /* \"#utility.yul\":18929:18933   */\n      0x40\n        /* \"#utility.yul\":18917:18926   */\n      dup3\n        /* \"#utility.yul\":18912:18915   */\n      dup5\n        /* \"#utility.yul\":18908:18927   */\n      sub\n        /* \"#utility.yul\":18904:18934   */\n      slt\n        /* \"#utility.yul\":18901:19018   */\n      iszero\n      tag_506\n      jumpi\n        /* \"#utility.yul\":18937:19016   */\n      tag_507\n      tag_290\n      jump\t// in\n    tag_507:\n        /* \"#utility.yul\":18901:19018   */\n    tag_506:\n        /* \"#utility.yul\":19036:19057   */\n      tag_508\n        /* \"#utility.yul\":19052:19056   */\n      0x40\n        /* \"#utility.yul\":19036:19057   */\n      tag_293\n      jump\t// in\n    tag_508:\n        /* \"#utility.yul\":19027:19057   */\n      swap1\n      pop\n        /* \"#utility.yul\":19121:19122   */\n      0x00\n        /* \"#utility.yul\":19161:19221   */\n      tag_509\n        /* \"#utility.yul\":19217:19220   */\n      dup5\n        /* \"#utility.yul\":19208:19214   */\n      dup3\n        /* \"#utility.yul\":19197:19206   */\n      dup6\n        /* \"#utility.yul\":19193:19215   */\n      add\n        /* \"#utility.yul\":19161:19221   */\n      tag_295\n      jump\t// in\n    tag_509:\n        /* \"#utility.yul\":19154:19158   */\n      0x00\n        /* \"#utility.yul\":19147:19152   */\n      dup4\n        /* \"#utility.yul\":19143:19159   */\n      add\n        /* \"#utility.yul\":19136:19222   */\n      mstore\n        /* \"#utility.yul\":19067:19233   */\n      pop\n        /* \"#utility.yul\":19298:19300   */\n      0x20\n        /* \"#utility.yul\":19339:19399   */\n      tag_510\n        /* \"#utility.yul\":19395:19398   */\n      dup5\n        /* \"#utility.yul\":19386:19392   */\n      dup3\n        /* \"#utility.yul\":19375:19384   */\n      dup6\n        /* \"#utility.yul\":19371:19393   */\n      add\n        /* \"#utility.yul\":19339:19399   */\n      tag_295\n      jump\t// in\n    tag_510:\n        /* \"#utility.yul\":19332:19336   */\n      0x20\n        /* \"#utility.yul\":19325:19330   */\n      dup4\n        /* \"#utility.yul\":19321:19337   */\n      add\n        /* \"#utility.yul\":19314:19400   */\n      mstore\n        /* \"#utility.yul\":19243:19411   */\n      pop\n        /* \"#utility.yul\":18797:19418   */\n      swap3\n      swap2\n      pop\n      pop\n      jump\t// out\n        /* \"#utility.yul\":19424:19831   */\n    tag_199:\n        /* \"#utility.yul\":19522:19528   */\n      0x00\n        /* \"#utility.yul\":19571:19573   */\n      0x40\n        /* \"#utility.yul\":19559:19568   */\n      dup3\n        /* \"#utility.yul\":19550:19557   */\n      dup5\n        /* \"#utility.yul\":19546:19569   */\n      sub\n        /* \"#utility.yul\":19542:19574   */\n      slt\n        /* \"#utility.yul\":19539:19658   */\n      iszero\n      tag_512\n      jumpi\n        /* \"#utility.yul\":19577:19656   */\n      tag_513\n      tag_239\n      jump\t// in\n    tag_513:\n        /* \"#utility.yul\":19539:19658   */\n    tag_512:\n        /* \"#utility.yul\":19697:19698   */\n      0x00\n        /* \"#utility.yul\":19722:19814   */\n      tag_514\n        /* \"#utility.yul\":19806:19813   */\n      dup5\n        /* \"#utility.yul\":19797:19803   */\n      dup3\n        /* \"#utility.yul\":19786:19795   */\n      dup6\n        /* \"#utility.yul\":19782:19804   */\n      add\n        /* \"#utility.yul\":19722:19814   */\n      tag_296\n      jump\t// in\n    tag_514:\n        /* \"#utility.yul\":19712:19814   */\n      swap2\n      pop\n        /* \"#utility.yul\":19668:19824   */\n      pop\n        /* \"#utility.yul\":19424:19831   */\n      swap3\n      swap2\n      pop\n      pop\n      jump\t// out\n        /* \"#utility.yul\":19837:19980   */\n    tag_297:\n        /* \"#utility.yul\":19894:19899   */\n      0x00\n        /* \"#utility.yul\":19925:19931   */\n      dup2\n        /* \"#utility.yul\":19919:19932   */\n      mload\n        /* \"#utility.yul\":19910:19932   */\n      swap1\n      pop\n        /* \"#utility.yul\":19941:19974   */\n      tag_516\n        /* \"#utility.yul\":19968:19973   */\n      dup2\n        /* \"#utility.yul\":19941:19974   */\n      tag_244\n      jump\t// in\n    tag_516:\n        /* \"#utility.yul\":19837:19980   */\n      swap3\n      swap2\n      pop\n      pop\n      jump\t// out\n        /* \"#utility.yul\":19986:20106   */\n    tag_298:\n        /* \"#utility.yul\":20058:20081   */\n      tag_518\n        /* \"#utility.yul\":20075:20080   */\n      dup2\n        /* \"#utility.yul\":20058:20081   */\n      tag_254\n      jump\t// in\n    tag_518:\n        /* \"#utility.yul\":20051:20056   */\n      dup2\n        /* \"#utility.yul\":20048:20082   */\n      eq\n        /* \"#utility.yul\":20038:20100   */\n      tag_519\n      jumpi\n        /* \"#utility.yul\":20096:20097   */\n      0x00\n        /* \"#utility.yul\":20093:20094   */\n      dup1\n        /* \"#utility.yul\":20086:20098   */\n      revert\n        /* \"#utility.yul\":20038:20100   */\n    tag_519:\n        /* \"#utility.yul\":19986:20106   */\n      pop\n      jump\t// out\n        /* \"#utility.yul\":20112:20253   */\n    tag_299:\n        /* \"#utility.yul\":20168:20173   */\n      0x00\n        /* \"#utility.yul\":20199:20205   */\n      dup2\n        /* \"#utility.yul\":20193:20206   */\n      mload\n        /* \"#utility.yul\":20184:20206   */\n      swap1\n      pop\n        /* \"#utility.yul\":20215:20247   */\n      tag_521\n        /* \"#utility.yul\":20241:20246   */\n      dup2\n        /* \"#utility.yul\":20215:20247   */\n      tag_298\n      jump\t// in\n    tag_521:\n        /* \"#utility.yul\":20112:20253   */\n      swap3\n      swap2\n      pop\n      pop\n      jump\t// out\n        /* \"#utility.yul\":20290:21103   */\n    tag_300:\n        /* \"#utility.yul\":20382:20387   */\n      0x00\n        /* \"#utility.yul\":20426:20430   */\n      0x80\n        /* \"#utility.yul\":20414:20423   */\n      dup3\n        /* \"#utility.yul\":20409:20412   */\n      dup5\n        /* \"#utility.yul\":20405:20424   */\n      sub\n        /* \"#utility.yul\":20401:20431   */\n      slt\n        /* \"#utility.yul\":20398:20515   */\n      iszero\n      tag_523\n      jumpi\n        /* \"#utility.yul\":20434:20513   */\n      tag_524\n      tag_290\n      jump\t// in\n    tag_524:\n        /* \"#utility.yul\":20398:20515   */\n    tag_523:\n        /* \"#utility.yul\":20533:20554   */\n      tag_525\n        /* \"#utility.yul\":20549:20553   */\n      0x60\n        /* \"#utility.yul\":20533:20554   */\n      tag_293\n      jump\t// in\n    tag_525:\n        /* \"#utility.yul\":20524:20554   */\n      swap1\n      pop\n        /* \"#utility.yul\":20613:20614   */\n      0x00\n        /* \"#utility.yul\":20653:20713   */\n      tag_526\n        /* \"#utility.yul\":20709:20712   */\n      dup5\n        /* \"#utility.yul\":20700:20706   */\n      dup3\n        /* \"#utility.yul\":20689:20698   */\n      dup6\n        /* \"#utility.yul\":20685:20707   */\n      add\n        /* \"#utility.yul\":20653:20713   */\n      tag_297\n      jump\t// in\n    tag_526:\n        /* \"#utility.yul\":20646:20650   */\n      0x00\n        /* \"#utility.yul\":20639:20644   */\n      dup4\n        /* \"#utility.yul\":20635:20651   */\n      add\n        /* \"#utility.yul\":20628:20714   */\n      mstore\n        /* \"#utility.yul\":20564:20725   */\n      pop\n        /* \"#utility.yul\":20785:20787   */\n      0x20\n        /* \"#utility.yul\":20826:20885   */\n      tag_527\n        /* \"#utility.yul\":20881:20884   */\n      dup5\n        /* \"#utility.yul\":20872:20878   */\n      dup3\n        /* \"#utility.yul\":20861:20870   */\n      dup6\n        /* \"#utility.yul\":20857:20879   */\n      add\n        /* \"#utility.yul\":20826:20885   */\n      tag_299\n      jump\t// in\n    tag_527:\n        /* \"#utility.yul\":20819:20823   */\n      0x20\n        /* \"#utility.yul\":20812:20817   */\n      dup4\n        /* \"#utility.yul\":20808:20824   */\n      add\n        /* \"#utility.yul\":20801:20886   */\n      mstore\n        /* \"#utility.yul\":20735:20897   */\n      pop\n        /* \"#utility.yul\":20955:20957   */\n      0x40\n        /* \"#utility.yul\":20996:21084   */\n      tag_528\n        /* \"#utility.yul\":21080:21083   */\n      dup5\n        /* \"#utility.yul\":21071:21077   */\n      dup3\n        /* \"#utility.yul\":21060:21069   */\n      dup6\n        /* \"#utility.yul\":21056:21078   */\n      add\n        /* \"#utility.yul\":20996:21084   */\n      tag_296\n      jump\t// in\n    tag_528:\n        /* \"#utility.yul\":20989:20993   */\n      0x40\n        /* \"#utility.yul\":20982:20987   */\n      dup4\n        /* \"#utility.yul\":20978:20994   */\n      add\n        /* \"#utility.yul\":20971:21085   */\n      mstore\n        /* \"#utility.yul\":20907:21096   */\n      pop\n        /* \"#utility.yul\":20290:21103   */\n      swap3\n      swap2\n      pop\n      pop\n      jump\t// out\n        /* \"#utility.yul\":21109:21525   */\n    tag_213:\n        /* \"#utility.yul\":21211:21217   */\n      0x00\n        /* \"#utility.yul\":21260:21263   */\n      0x80\n        /* \"#utility.yul\":21248:21257   */\n      dup3\n        /* \"#utility.yul\":21239:21246   */\n      dup5\n        /* \"#utility.yul\":21235:21258   */\n      sub\n        /* \"#utility.yul\":21231:21264   */\n      slt\n        /* \"#utility.yul\":21228:21348   */\n      iszero\n      tag_530\n      jumpi\n        /* \"#utility.yul\":21267:21346   */\n      tag_531\n      tag_239\n      jump\t// in\n    tag_531:\n        /* \"#utility.yul\":21228:21348   */\n    tag_530:\n        /* \"#utility.yul\":21387:21388   */\n      0x00\n        /* \"#utility.yul\":21412:21508   */\n      tag_532\n        /* \"#utility.yul\":21500:21507   */\n      dup5\n        /* \"#utility.yul\":21491:21497   */\n      dup3\n        /* \"#utility.yul\":21480:21489   */\n      dup6\n        /* \"#utility.yul\":21476:21498   */\n      add\n        /* \"#utility.yul\":21412:21508   */\n      tag_300\n      jump\t// in\n    tag_532:\n        /* \"#utility.yul\":21402:21508   */\n      swap2\n      pop\n        /* \"#utility.yul\":21358:21518   */\n      pop\n        /* \"#utility.yul\":21109:21525   */\n      swap3\n      swap2\n      pop\n      pop\n      jump\t// out\n        /* \"#utility.yul\":21531:21674   */\n    tag_301:\n        /* \"#utility.yul\":21588:21593   */\n      0x00\n        /* \"#utility.yul\":21619:21625   */\n      dup2\n        /* \"#utility.yul\":21613:21626   */\n      mload\n        /* \"#utility.yul\":21604:21626   */\n      swap1\n      pop\n        /* \"#utility.yul\":21635:21668   */\n      tag_534\n        /* \"#utility.yul\":21662:21667   */\n      dup2\n        /* \"#utility.yul\":21635:21668   */\n      tag_252\n      jump\t// in\n    tag_534:\n        /* \"#utility.yul\":21531:21674   */\n      swap3\n      swap2\n      pop\n      pop\n      jump\t// out\n        /* \"#utility.yul\":21680:22031   */\n    tag_222:\n        /* \"#utility.yul\":21750:21756   */\n      0x00\n        /* \"#utility.yul\":21799:21801   */\n      0x20\n        /* \"#utility.yul\":21787:21796   */\n      dup3\n        /* \"#utility.yul\":21778:21785   */\n      dup5\n        /* \"#utility.yul\":21774:21797   */\n      sub\n        /* \"#utility.yul\":21770:21802   */\n      slt\n        /* \"#utility.yul\":21767:21886   */\n      iszero\n      tag_536\n      jumpi\n        /* \"#utility.yul\":21805:21884   */\n      tag_537\n      tag_239\n      jump\t// in\n    tag_537:\n        /* \"#utility.yul\":21767:21886   */\n    tag_536:\n        /* \"#utility.yul\":21925:21926   */\n      0x00\n        /* \"#utility.yul\":21950:22014   */\n      tag_538\n        /* \"#utility.yul\":22006:22013   */\n      dup5\n        /* \"#utility.yul\":21997:22003   */\n      dup3\n        /* \"#utility.yul\":21986:21995   */\n      dup6\n        /* \"#utility.yul\":21982:22004   */\n      add\n        /* \"#utility.yul\":21950:22014   */\n      tag_301\n      jump\t// in\n    tag_538:\n        /* \"#utility.yul\":21940:22014   */\n      swap2\n      pop\n        /* \"#utility.yul\":21896:22024   */\n      pop\n        /* \"#utility.yul\":21680:22031   */\n      swap3\n      swap2\n      pop\n      pop\n      jump\t// out\n        /* \"#utility.yul\":22037:22479   */\n    tag_229:\n        /* \"#utility.yul\":22186:22190   */\n      0x00\n        /* \"#utility.yul\":22224:22226   */\n      0x60\n        /* \"#utility.yul\":22213:22222   */\n      dup3\n        /* \"#utility.yul\":22209:22227   */\n      add\n        /* \"#utility.yul\":22201:22227   */\n      swap1\n      pop\n        /* \"#utility.yul\":22237:22308   */\n      tag_540\n        /* \"#utility.yul\":22305:22306   */\n      0x00\n        /* \"#utility.yul\":22294:22303   */\n      dup4\n        /* \"#utility.yul\":22290:22307   */\n      add\n        /* \"#utility.yul\":22281:22287   */\n      dup7\n        /* \"#utility.yul\":22237:22308   */\n      tag_267\n      jump\t// in\n    tag_540:\n        /* \"#utility.yul\":22318:22390   */\n      tag_541\n        /* \"#utility.yul\":22386:22388   */\n      0x20\n        /* \"#utility.yul\":22375:22384   */\n      dup4\n        /* \"#utility.yul\":22371:22389   */\n      add\n        /* \"#utility.yul\":22362:22368   */\n      dup6\n        /* \"#utility.yul\":22318:22390   */\n      tag_267\n      jump\t// in\n    tag_541:\n        /* \"#utility.yul\":22400:22472   */\n      tag_542\n        /* \"#utility.yul\":22468:22470   */\n      0x40\n        /* \"#utility.yul\":22457:22466   */\n      dup4\n        /* \"#utility.yul\":22453:22471   */\n      add\n        /* \"#utility.yul\":22444:22450   */\n      dup5\n        /* \"#utility.yul\":22400:22472   */\n      tag_271\n      jump\t// in\n    tag_542:\n        /* \"#utility.yul\":22037:22479   */\n      swap5\n      swap4\n      pop\n      pop\n      pop\n      pop\n      jump\t// out\n\n    auxdata: 0xa2646970667358221220795a6a499e91b01645fdacb2e281ce237961b7a010cec9db41fd0c49ab5788d464736f6c634300081c0033\n}\n",
				"bytecode": {
					"linkReferences": {},
					"object": "60a060405234801561001057600080fd5b5060405161208938038061208983398181016040528101906100329190610301565b8181818133600073ffffffffffffffffffffffffffffffffffffffff168173ffffffffffffffffffffffffffffffffffffffff16036100a95760006040517f1e4fbdf70000000000000000000000000000000000000000000000000000000081526004016100a09190610350565b60405180910390fd5b6100b8816101da60201b60201c565b508173ffffffffffffffffffffffffffffffffffffffff1660808173ffffffffffffffffffffffffffffffffffffffff1681525050600073ffffffffffffffffffffffffffffffffffffffff168173ffffffffffffffffffffffffffffffffffffffff1603610153576040517fb586360400000000000000000000000000000000000000000000000000000000815260040160405180910390fd5b60805173ffffffffffffffffffffffffffffffffffffffff1663ca5eb5e1826040518263ffffffff1660e01b815260040161018e9190610350565b600060405180830381600087803b1580156101a857600080fd5b505af11580156101bc573d6000803e3d6000fd5b50505050505050506101d3816101da60201b60201c565b505061036b565b60008060009054906101000a900473ffffffffffffffffffffffffffffffffffffffff169050816000806101000a81548173ffffffffffffffffffffffffffffffffffffffff021916908373ffffffffffffffffffffffffffffffffffffffff1602179055508173ffffffffffffffffffffffffffffffffffffffff168173ffffffffffffffffffffffffffffffffffffffff167f8be0079c531659141344cd1fd0a4f28419497f9722a3daafe3b4186f6b6457e060405160405180910390a35050565b600080fd5b600073ffffffffffffffffffffffffffffffffffffffff82169050919050565b60006102ce826102a3565b9050919050565b6102de816102c3565b81146102e957600080fd5b50565b6000815190506102fb816102d5565b92915050565b600080604083850312156103185761031761029e565b5b6000610326858286016102ec565b9250506020610337858286016102ec565b9150509250929050565b61034a816102c3565b82525050565b60006020820190506103656000830184610341565b92915050565b608051611cd96103b060003960008181610423015281816105b10152818161068d01528181610c4c01528181610d5b01528181610e9b0152610f960152611cd96000f3fe6080604052600436106101025760003560e01c806382413eac11610095578063ca5eb5e111610064578063ca5eb5e114610322578063d2705fd31461034b578063f2fde38b14610367578063f559982714610390578063ff7bd03d146103cd57610109565b806382413eac146102405780638da5cb5b1461027d578063a68f3709146102a8578063bb0b6a53146102e557610109565b806347258206116100d157806347258206146101965780635e280f11146101c1578063715018a6146101ec5780637d25a05e1461020357610109565b806313137d651461010e57806317442b701461012a5780633400288b146101565780633ccfd60b1461017f57610109565b3661010957005b600080fd5b61012860048036038101906101239190611284565b61040a565b005b34801561013657600080fd5b5061013f61052c565b60405161014d929190611363565b60405180910390f35b34801561016257600080fd5b5061017d600480360381019061017891906113c8565b61053b565b005b34801561018b57600080fd5b50610194610551565b005b3480156101a257600080fd5b506101ab6105a9565b6040516101b89190611417565b60405180910390f35b3480156101cd57600080fd5b506101d66105af565b6040516101e39190611491565b60405180910390f35b3480156101f857600080fd5b506102016105d3565b005b34801561020f57600080fd5b5061022a600480360381019061022591906113c8565b6105e7565b60405161023791906114ac565b60405180910390f35b34801561024c57600080fd5b50610267600480360381019061026291906114c7565b6105ef565b6040516102749190611556565b60405180910390f35b34801561028957600080fd5b5061029261062a565b60405161029f9190611580565b60405180910390f35b3480156102b457600080fd5b506102cf60048036038101906102ca91906115d1565b610653565b6040516102dc919061160d565b60405180910390f35b3480156102f157600080fd5b5061030c60048036038101906103079190611628565b61066b565b6040516103199190611664565b60405180910390f35b34801561032e57600080fd5b506103496004803603810190610344919061167f565b610683565b005b610365600480360381019061036091906116ac565b610719565b005b34801561037357600080fd5b5061038e6004803603810190610389919061167f565b6108c2565b005b34801561039c57600080fd5b506103b760048036038101906103b291906116ac565b610948565b6040516103c4919061160d565b60405180910390f35b3480156103d957600080fd5b506103f460048036038101906103ef919061170c565b6109d7565b6040516104019190611556565b60405180910390f35b3373ffffffffffffffffffffffffffffffffffffffff167f000000000000000000000000000000000000000000000000000000000000000073ffffffffffffffffffffffffffffffffffffffff161461049a57336040517f91ac5e4f0000000000000000000000000000000000000000000000000000000081526004016104919190611580565b60405180910390fd5b86602001356104ba8860000160208101906104b59190611628565b610a18565b14610514578660000160208101906104d29190611628565b87602001356040517fc26bebcc00000000000000000000000000000000000000000000000000000000815260040161050b929190611739565b60405180910390fd5b61052387878787878787610a8d565b50505050505050565b60008060016002915091509091565b610543610a96565b61054d8282610b1d565b5050565b610559610a96565b61056161062a565b73ffffffffffffffffffffffffffffffffffffffff166108fc479081150290604051600060405180830381858888f193505050501580156105a6573d6000803e3d6000fd5b50565b619d2881565b7f000000000000000000000000000000000000000000000000000000000000000081565b6105db610a96565b6105e56000610b7e565b565b600092915050565b60003073ffffffffffffffffffffffffffffffffffffffff168273ffffffffffffffffffffffffffffffffffffffff16149050949350505050565b60008060009054906101000a900473ffffffffffffffffffffffffffffffffffffffff16905090565b60026020528060005260406000206000915090505481565b60016020528060005260406000206000915090505481565b61068b610a96565b7f000000000000000000000000000000000000000000000000000000000000000073ffffffffffffffffffffffffffffffffffffffff1663ca5eb5e1826040518263ffffffff1660e01b81526004016106e49190611580565b600060405180830381600087803b1580156106fe57600080fd5b505af1158015610712573d6000803e3d6000fd5b5050505050565b6000833460405160200161072e929190611762565b60405160208183030381529060405290506000610794619d288386868080601f016020809104026020016040519081016040528093929190818152602001838380828437600081840152601f19601f820116905080830192505050505050506000610c42565b9050806000015134116107dc576040517f08c379a00000000000000000000000000000000000000000000000000000000081526004016107d3906117e8565b60405180910390fd5b8060000151346107ec9190611837565b600260008781526020019081526020016000208190555061086f619d288386868080601f016020809104026020016040519081016040528093929190818152602001838380828437600081840152601f19601f82011690508083019250505050505050604051806040016040528086600001518152602001600081525033610d25565b50847f1954f0ea9e3f5fbdc693320e038db1549f419ae5351b74d36cee7c9ef13dd2b660026000888152602001908152602001600020546040516108b3919061160d565b60405180910390a25050505050565b6108ca610a96565b600073ffffffffffffffffffffffffffffffffffffffff168173ffffffffffffffffffffffffffffffffffffffff160361093c5760006040517f1e4fbdf70000000000000000000000000000000000000000000000000000000081526004016109339190611580565b60405180910390fd5b61094581610b7e565b50565b60008084600060405160200161095f9291906118b3565b604051602081830303815290604052905060006109c5619d288387878080601f016020809104026020016040519081016040528093929190818152602001838380828437600081840152601f19601f820116905080830192505050505050506000610c42565b90508060000151925050509392505050565b60008160200135600160008460000160208101906109f59190611628565b63ffffffff1663ffffffff16815260200190815260200160002054149050919050565b600080600160008463ffffffff1663ffffffff1681526020019081526020016000205490506000801b8103610a8457826040517ff6ff4fb7000000000000000000000000000000000000000000000000000000008152600401610a7b9190611417565b60405180910390fd5b80915050919050565b50505050505050565b610a9e610e41565b73ffffffffffffffffffffffffffffffffffffffff16610abc61062a565b73ffffffffffffffffffffffffffffffffffffffff1614610b1b57610adf610e41565b6040517f118cdaa7000000000000000000000000000000000000000000000000000000008152600401610b129190611580565b60405180910390fd5b565b80600160008463ffffffff1663ffffffff168152602001908152602001600020819055507f238399d427b947898edb290f5ff0f9109849b1c3ba196a42e35f00c50a54b98b8282604051610b72929190611739565b60405180910390a15050565b60008060009054906101000a900473ffffffffffffffffffffffffffffffffffffffff169050816000806101000a81548173ffffffffffffffffffffffffffffffffffffffff021916908373ffffffffffffffffffffffffffffffffffffffff1602179055508173ffffffffffffffffffffffffffffffffffffffff168173ffffffffffffffffffffffffffffffffffffffff167f8be0079c531659141344cd1fd0a4f28419497f9722a3daafe3b4186f6b6457e060405160405180910390a35050565b610c4a611105565b7f000000000000000000000000000000000000000000000000000000000000000073ffffffffffffffffffffffffffffffffffffffff1663ddc28c586040518060a001604052808863ffffffff168152602001610ca689610a18565b8152602001878152602001868152602001851515815250306040518363ffffffff1660e01b8152600401610cdb929190611a16565b6040805180830381865afa158015610cf7573d6000803e3d6000fd5b505050506040513d601f19601f82011682018060405250810190610d1b9190611b2b565b9050949350505050565b610d2d61111f565b6000610d3c8460000151610e49565b9050600084602001511115610d5957610d588460200151610e97565b5b7f000000000000000000000000000000000000000000000000000000000000000073ffffffffffffffffffffffffffffffffffffffff16632637a450826040518060a001604052808b63ffffffff168152602001610db68c610a18565b81526020018a815260200189815260200160008960200151111515815250866040518463ffffffff1660e01b8152600401610df2929190611a16565b60806040518083038185885af1158015610e10573d6000803e3d6000fd5b50505050506040513d601f19601f82011682018060405250810190610e359190611bfd565b91505095945050505050565b600033905090565b6000813414610e8f57346040517f9f704120000000000000000000000000000000000000000000000000000000008152600401610e86919061160d565b60405180910390fd5b819050919050565b60007f000000000000000000000000000000000000000000000000000000000000000073ffffffffffffffffffffffffffffffffffffffff1663e4fe1d946040518163ffffffff1660e01b8152600401602060405180830381865afa158015610f04573d6000803e3d6000fd5b505050506040513d601f19601f82011682018060405250810190610f289190611c3f565b9050600073ffffffffffffffffffffffffffffffffffffffff168173ffffffffffffffffffffffffffffffffffffffff1603610f90576040517f5373352a00000000000000000000000000000000000000000000000000000000815260040160405180910390fd5b610fdd337f0000000000000000000000000000000000000000000000000000000000000000848473ffffffffffffffffffffffffffffffffffffffff16610fe1909392919063ffffffff16565b5050565b61105d848573ffffffffffffffffffffffffffffffffffffffff166323b872dd86868660405160240161101693929190611c6c565b604051602081830303815290604052915060e01b6020820180517bffffffffffffffffffffffffffffffffffffffffffffffffffffffff8381831617835250505050611063565b50505050565b600080602060008451602086016000885af180611086576040513d6000823e3d81fd5b3d9250600051915050600082146110a15760018114156110bd565b60008473ffffffffffffffffffffffffffffffffffffffff163b145b156110ff57836040517f5274afe70000000000000000000000000000000000000000000000000000000081526004016110f69190611580565b60405180910390fd5b50505050565b604051806040016040528060008152602001600081525090565b604051806060016040528060008019168152602001600067ffffffffffffffff16815260200161114d611105565b81525090565b6000604051905090565b600080fd5b600080fd5b600080fd5b60006060828403121561118257611181611167565b5b81905092915050565b6000819050919050565b61119e8161118b565b81146111a957600080fd5b50565b6000813590506111bb81611195565b92915050565b600080fd5b600080fd5b600080fd5b60008083601f8401126111e6576111e56111c1565b5b8235905067ffffffffffffffff811115611203576112026111c6565b5b60208301915083600182028301111561121f5761121e6111cb565b5b9250929050565b600073ffffffffffffffffffffffffffffffffffffffff82169050919050565b600061125182611226565b9050919050565b61126181611246565b811461126c57600080fd5b50565b60008135905061127e81611258565b92915050565b600080600080600080600060e0888a0312156112a3576112a261115d565b5b60006112b18a828b0161116c565b97505060606112c28a828b016111ac565b965050608088013567ffffffffffffffff8111156112e3576112e2611162565b5b6112ef8a828b016111d0565b955095505060a06113028a828b0161126f565b93505060c088013567ffffffffffffffff81111561132357611322611162565b5b61132f8a828b016111d0565b925092505092959891949750929550565b600067ffffffffffffffff82169050919050565b61135d81611340565b82525050565b60006040820190506113786000830185611354565b6113856020830184611354565b9392505050565b600063ffffffff82169050919050565b6113a58161138c565b81146113b057600080fd5b50565b6000813590506113c28161139c565b92915050565b600080604083850312156113df576113de61115d565b5b60006113ed858286016113b3565b92505060206113fe858286016111ac565b9150509250929050565b6114118161138c565b82525050565b600060208201905061142c6000830184611408565b92915050565b6000819050919050565b600061145761145261144d84611226565b611432565b611226565b9050919050565b60006114698261143c565b9050919050565b600061147b8261145e565b9050919050565b61148b81611470565b82525050565b60006020820190506114a66000830184611482565b92915050565b60006020820190506114c16000830184611354565b92915050565b60008060008060a085870312156114e1576114e061115d565b5b60006114ef8782880161116c565b945050606085013567ffffffffffffffff8111156115105761150f611162565b5b61151c878288016111d0565b9350935050608061152f8782880161126f565b91505092959194509250565b60008115159050919050565b6115508161153b565b82525050565b600060208201905061156b6000830184611547565b92915050565b61157a81611246565b82525050565b60006020820190506115956000830184611571565b92915050565b6000819050919050565b6115ae8161159b565b81146115b957600080fd5b50565b6000813590506115cb816115a5565b92915050565b6000602082840312156115e7576115e661115d565b5b60006115f5848285016115bc565b91505092915050565b6116078161159b565b82525050565b600060208201905061162260008301846115fe565b92915050565b60006020828403121561163e5761163d61115d565b5b600061164c848285016113b3565b91505092915050565b61165e8161118b565b82525050565b60006020820190506116796000830184611655565b92915050565b6000602082840312156116955761169461115d565b5b60006116a38482850161126f565b91505092915050565b6000806000604084860312156116c5576116c461115d565b5b60006116d3868287016115bc565b935050602084013567ffffffffffffffff8111156116f4576116f3611162565b5b611700868287016111d0565b92509250509250925092565b6000606082840312156117225761172161115d565b5b60006117308482850161116c565b91505092915050565b600060408201905061174e6000830185611408565b61175b6020830184611655565b9392505050565b600060408201905061177760008301856115fe565b61178460208301846115fe565b9392505050565b600082825260208201905092915050565b7f496e73756666696369656e742066656500000000000000000000000000000000600082015250565b60006117d260108361178b565b91506117dd8261179c565b602082019050919050565b60006020820190508181036000830152611801816117c5565b9050919050565b7f4e487b7100000000000000000000000000000000000000000000000000000000600052601160045260246000fd5b60006118428261159b565b915061184d8361159b565b925082820390508181111561186557611864611808565b5b92915050565b6000819050919050565b600060ff82169050919050565b600061189d6118986118938461186b565b611432565b611875565b9050919050565b6118ad81611882565b82525050565b60006040820190506118c860008301856115fe565b6118d560208301846118a4565b9392505050565b6118e58161138c565b82525050565b6118f48161118b565b82525050565b600081519050919050565b600082825260208201905092915050565b60005b83811015611934578082015181840152602081019050611919565b60008484015250505050565b6000601f19601f8301169050919050565b600061195c826118fa565b6119668185611905565b9350611976818560208601611916565b61197f81611940565b840191505092915050565b6119938161153b565b82525050565b600060a0830160008301516119b160008601826118dc565b5060208301516119c460208601826118eb565b50604083015184820360408601526119dc8282611951565b915050606083015184820360608601526119f68282611951565b9150506080830151611a0b608086018261198a565b508091505092915050565b60006040820190508181036000830152611a308185611999565b9050611a3f6020830184611571565b9392505050565b600080fd5b7f4e487b7100000000000000000000000000000000000000000000000000000000600052604160045260246000fd5b611a8382611940565b810181811067ffffffffffffffff82111715611aa257611aa1611a4b565b5b80604052505050565b6000611ab5611153565b9050611ac18282611a7a565b919050565b600081519050611ad5816115a5565b92915050565b600060408284031215611af157611af0611a46565b5b611afb6040611aab565b90506000611b0b84828501611ac6565b6000830152506020611b1f84828501611ac6565b60208301525092915050565b600060408284031215611b4157611b4061115d565b5b6000611b4f84828501611adb565b91505092915050565b600081519050611b6781611195565b92915050565b611b7681611340565b8114611b8157600080fd5b50565b600081519050611b9381611b6d565b92915050565b600060808284031215611baf57611bae611a46565b5b611bb96060611aab565b90506000611bc984828501611b58565b6000830152506020611bdd84828501611b84565b6020830152506040611bf184828501611adb565b60408301525092915050565b600060808284031215611c1357611c1261115d565b5b6000611c2184828501611b99565b91505092915050565b600081519050611c3981611258565b92915050565b600060208284031215611c5557611c5461115d565b5b6000611c6384828501611c2a565b91505092915050565b6000606082019050611c816000830186611571565b611c8e6020830185611571565b611c9b60408301846115fe565b94935050505056fea2646970667358221220795a6a499e91b01645fdacb2e281ce237961b7a010cec9db41fd0c49ab5788d464736f6c634300081c0033",
					"opcodes": "PUSH1 0xA0 PUSH1 0x40 MSTORE CALLVALUE DUP1 ISZERO PUSH2 0x10 JUMPI PUSH1 0x0 DUP1 REVERT JUMPDEST POP PUSH1 0x40 MLOAD PUSH2 0x2089 CODESIZE SUB DUP1 PUSH2 0x2089 DUP4 CODECOPY DUP2 DUP2 ADD PUSH1 0x40 MSTORE DUP2 ADD SWAP1 PUSH2 0x32 SWAP2 SWAP1 PUSH2 0x301 JUMP JUMPDEST DUP2 DUP2 DUP2 DUP2 CALLER PUSH1 0x0 PUSH20 0xFFFFFFFFFFFFFFFFFFFFFFFFFFFFFFFFFFFFFFFF AND DUP2 PUSH20 0xFFFFFFFFFFFFFFFFFFFFFFFFFFFFFFFFFFFFFFFF AND SUB PUSH2 0xA9 JUMPI PUSH1 0x0 PUSH1 0x40 MLOAD PUSH32 0x1E4FBDF700000000000000000000000000000000000000000000000000000000 DUP2 MSTORE PUSH1 0x4 ADD PUSH2 0xA0 SWAP2 SWAP1 PUSH2 0x350 JUMP JUMPDEST PUSH1 0x40 MLOAD DUP1 SWAP2 SUB SWAP1 REVERT JUMPDEST PUSH2 0xB8 DUP2 PUSH2 0x1DA PUSH1 0x20 SHL PUSH1 0x20 SHR JUMP JUMPDEST POP DUP2 PUSH20 0xFFFFFFFFFFFFFFFFFFFFFFFFFFFFFFFFFFFFFFFF AND PUSH1 0x80 DUP2 PUSH20 0xFFFFFFFFFFFFFFFFFFFFFFFFFFFFFFFFFFFFFFFF AND DUP2 MSTORE POP POP PUSH1 0x0 PUSH20 0xFFFFFFFFFFFFFFFFFFFFFFFFFFFFFFFFFFFFFFFF AND DUP2 PUSH20 0xFFFFFFFFFFFFFFFFFFFFFFFFFFFFFFFFFFFFFFFF AND SUB PUSH2 0x153 JUMPI PUSH1 0x40 MLOAD PUSH32 0xB586360400000000000000000000000000000000000000000000000000000000 DUP2 MSTORE PUSH1 0x4 ADD PUSH1 0x40 MLOAD DUP1 SWAP2 SUB SWAP1 REVERT JUMPDEST PUSH1 0x80 MLOAD PUSH20 0xFFFFFFFFFFFFFFFFFFFFFFFFFFFFFFFFFFFFFFFF AND PUSH4 0xCA5EB5E1 DUP3 PUSH1 0x40 MLOAD DUP3 PUSH4 0xFFFFFFFF AND PUSH1 0xE0 SHL DUP2 MSTORE PUSH1 0x4 ADD PUSH2 0x18E SWAP2 SWAP1 PUSH2 0x350 JUMP JUMPDEST PUSH1 0x0 PUSH1 0x40 MLOAD DUP1 DUP4 SUB DUP2 PUSH1 0x0 DUP8 DUP1 EXTCODESIZE ISZERO DUP1 ISZERO PUSH2 0x1A8 JUMPI PUSH1 0x0 DUP1 REVERT JUMPDEST POP GAS CALL ISZERO DUP1 ISZERO PUSH2 0x1BC JUMPI RETURNDATASIZE PUSH1 0x0 DUP1 RETURNDATACOPY RETURNDATASIZE PUSH1 0x0 REVERT JUMPDEST POP POP POP POP POP POP POP POP PUSH2 0x1D3 DUP2 PUSH2 0x1DA PUSH1 0x20 SHL PUSH1 0x20 SHR JUMP JUMPDEST POP POP PUSH2 0x36B JUMP JUMPDEST PUSH1 0x0 DUP1 PUSH1 0x0 SWAP1 SLOAD SWAP1 PUSH2 0x100 EXP SWAP1 DIV PUSH20 0xFFFFFFFFFFFFFFFFFFFFFFFFFFFFFFFFFFFFFFFF AND SWAP1 POP DUP2 PUSH1 0x0 DUP1 PUSH2 0x100 EXP DUP2 SLOAD DUP2 PUSH20 0xFFFFFFFFFFFFFFFFFFFFFFFFFFFFFFFFFFFFFFFF MUL NOT AND SWAP1 DUP4 PUSH20 0xFFFFFFFFFFFFFFFFFFFFFFFFFFFFFFFFFFFFFFFF AND MUL OR SWAP1 SSTORE POP DUP2 PUSH20 0xFFFFFFFFFFFFFFFFFFFFFFFFFFFFFFFFFFFFFFFF AND DUP2 PUSH20 0xFFFFFFFFFFFFFFFFFFFFFFFFFFFFFFFFFFFFFFFF AND PUSH32 0x8BE0079C531659141344CD1FD0A4F28419497F9722A3DAAFE3B4186F6B6457E0 PUSH1 0x40 MLOAD PUSH1 0x40 MLOAD DUP1 SWAP2 SUB SWAP1 LOG3 POP POP JUMP JUMPDEST PUSH1 0x0 DUP1 REVERT JUMPDEST PUSH1 0x0 PUSH20 0xFFFFFFFFFFFFFFFFFFFFFFFFFFFFFFFFFFFFFFFF DUP3 AND SWAP1 POP SWAP2 SWAP1 POP JUMP JUMPDEST PUSH1 0x0 PUSH2 0x2CE DUP3 PUSH2 0x2A3 JUMP JUMPDEST SWAP1 POP SWAP2 SWAP1 POP JUMP JUMPDEST PUSH2 0x2DE DUP2 PUSH2 0x2C3 JUMP JUMPDEST DUP2 EQ PUSH2 0x2E9 JUMPI PUSH1 0x0 DUP1 REVERT JUMPDEST POP JUMP JUMPDEST PUSH1 0x0 DUP2 MLOAD SWAP1 POP PUSH2 0x2FB DUP2 PUSH2 0x2D5 JUMP JUMPDEST SWAP3 SWAP2 POP POP JUMP JUMPDEST PUSH1 0x0 DUP1 PUSH1 0x40 DUP4 DUP6 SUB SLT ISZERO PUSH2 0x318 JUMPI PUSH2 0x317 PUSH2 0x29E JUMP JUMPDEST JUMPDEST PUSH1 0x0 PUSH2 0x326 DUP6 DUP3 DUP7 ADD PUSH2 0x2EC JUMP JUMPDEST SWAP3 POP POP PUSH1 0x20 PUSH2 0x337 DUP6 DUP3 DUP7 ADD PUSH2 0x2EC JUMP JUMPDEST SWAP2 POP POP SWAP3 POP SWAP3 SWAP1 POP JUMP JUMPDEST PUSH2 0x34A DUP2 PUSH2 0x2C3 JUMP JUMPDEST DUP3 MSTORE POP POP JUMP JUMPDEST PUSH1 0x0 PUSH1 0x20 DUP3 ADD SWAP1 POP PUSH2 0x365 PUSH1 0x0 DUP4 ADD DUP5 PUSH2 0x341 JUMP JUMPDEST SWAP3 SWAP2 POP POP JUMP JUMPDEST PUSH1 0x80 MLOAD PUSH2 0x1CD9 PUSH2 0x3B0 PUSH1 0x0 CODECOPY PUSH1 0x0 DUP2 DUP2 PUSH2 0x423 ADD MSTORE DUP2 DUP2 PUSH2 0x5B1 ADD MSTORE DUP2 DUP2 PUSH2 0x68D ADD MSTORE DUP2 DUP2 PUSH2 0xC4C ADD MSTORE DUP2 DUP2 PUSH2 0xD5B ADD MSTORE DUP2 DUP2 PUSH2 0xE9B ADD MSTORE PUSH2 0xF96 ADD MSTORE PUSH2 0x1CD9 PUSH1 0x0 RETURN INVALID PUSH1 0x80 PUSH1 0x40 MSTORE PUSH1 0x4 CALLDATASIZE LT PUSH2 0x102 JUMPI PUSH1 0x0 CALLDATALOAD PUSH1 0xE0 SHR DUP1 PUSH4 0x82413EAC GT PUSH2 0x95 JUMPI DUP1 PUSH4 0xCA5EB5E1 GT PUSH2 0x64 JUMPI DUP1 PUSH4 0xCA5EB5E1 EQ PUSH2 0x322 JUMPI DUP1 PUSH4 0xD2705FD3 EQ PUSH2 0x34B JUMPI DUP1 PUSH4 0xF2FDE38B EQ PUSH2 0x367 JUMPI DUP1 PUSH4 0xF5599827 EQ PUSH2 0x390 JUMPI DUP1 PUSH4 0xFF7BD03D EQ PUSH2 0x3CD JUMPI PUSH2 0x109 JUMP JUMPDEST DUP1 PUSH4 0x82413EAC EQ PUSH2 0x240 JUMPI DUP1 PUSH4 0x8DA5CB5B EQ PUSH2 0x27D JUMPI DUP1 PUSH4 0xA68F3709 EQ PUSH2 0x2A8 JUMPI DUP1 PUSH4 0xBB0B6A53 EQ PUSH2 0x2E5 JUMPI PUSH2 0x109 JUMP JUMPDEST DUP1 PUSH4 0x47258206 GT PUSH2 0xD1 JUMPI DUP1 PUSH4 0x47258206 EQ PUSH2 0x196 JUMPI DUP1 PUSH4 0x5E280F11 EQ PUSH2 0x1C1 JUMPI DUP1 PUSH4 0x715018A6 EQ PUSH2 0x1EC JUMPI DUP1 PUSH4 0x7D25A05E EQ PUSH2 0x203 JUMPI PUSH2 0x109 JUMP JUMPDEST DUP1 PUSH4 0x13137D65 EQ PUSH2 0x10E JUMPI DUP1 PUSH4 0x17442B70 EQ PUSH2 0x12A JUMPI DUP1 PUSH4 0x3400288B EQ PUSH2 0x156 JUMPI DUP1 PUSH4 0x3CCFD60B EQ PUSH2 0x17F JUMPI PUSH2 0x109 JUMP JUMPDEST CALLDATASIZE PUSH2 0x109 JUMPI STOP JUMPDEST PUSH1 0x0 DUP1 REVERT JUMPDEST PUSH2 0x128 PUSH1 0x4 DUP1 CALLDATASIZE SUB DUP2 ADD SWAP1 PUSH2 0x123 SWAP2 SWAP1 PUSH2 0x1284 JUMP JUMPDEST PUSH2 0x40A JUMP JUMPDEST STOP JUMPDEST CALLVALUE DUP1 ISZERO PUSH2 0x136 JUMPI PUSH1 0x0 DUP1 REVERT JUMPDEST POP PUSH2 0x13F PUSH2 0x52C JUMP JUMPDEST PUSH1 0x40 MLOAD PUSH2 0x14D SWAP3 SWAP2 SWAP1 PUSH2 0x1363 JUMP JUMPDEST PUSH1 0x40 MLOAD DUP1 SWAP2 SUB SWAP1 RETURN JUMPDEST CALLVALUE DUP1 ISZERO PUSH2 0x162 JUMPI PUSH1 0x0 DUP1 REVERT JUMPDEST POP PUSH2 0x17D PUSH1 0x4 DUP1 CALLDATASIZE SUB DUP2 ADD SWAP1 PUSH2 0x178 SWAP2 SWAP1 PUSH2 0x13C8 JUMP JUMPDEST PUSH2 0x53B JUMP JUMPDEST STOP JUMPDEST CALLVALUE DUP1 ISZERO PUSH2 0x18B JUMPI PUSH1 0x0 DUP1 REVERT JUMPDEST POP PUSH2 0x194 PUSH2 0x551 JUMP JUMPDEST STOP JUMPDEST CALLVALUE DUP1 ISZERO PUSH2 0x1A2 JUMPI PUSH1 0x0 DUP1 REVERT JUMPDEST POP PUSH2 0x1AB PUSH2 0x5A9 JUMP JUMPDEST PUSH1 0x40 MLOAD PUSH2 0x1B8 SWAP2 SWAP1 PUSH2 0x1417 JUMP JUMPDEST PUSH1 0x40 MLOAD DUP1 SWAP2 SUB SWAP1 RETURN JUMPDEST CALLVALUE DUP1 ISZERO PUSH2 0x1CD JUMPI PUSH1 0x0 DUP1 REVERT JUMPDEST POP PUSH2 0x1D6 PUSH2 0x5AF JUMP JUMPDEST PUSH1 0x40 MLOAD PUSH2 0x1E3 SWAP2 SWAP1 PUSH2 0x1491 JUMP JUMPDEST PUSH1 0x40 MLOAD DUP1 SWAP2 SUB SWAP1 RETURN JUMPDEST CALLVALUE DUP1 ISZERO PUSH2 0x1F8 JUMPI PUSH1 0x0 DUP1 REVERT JUMPDEST POP PUSH2 0x201 PUSH2 0x5D3 JUMP JUMPDEST STOP JUMPDEST CALLVALUE DUP1 ISZERO PUSH2 0x20F JUMPI PUSH1 0x0 DUP1 REVERT JUMPDEST POP PUSH2 0x22A PUSH1 0x4 DUP1 CALLDATASIZE SUB DUP2 ADD SWAP1 PUSH2 0x225 SWAP2 SWAP1 PUSH2 0x13C8 JUMP JUMPDEST PUSH2 0x5E7 JUMP JUMPDEST PUSH1 0x40 MLOAD PUSH2 0x237 SWAP2 SWAP1 PUSH2 0x14AC JUMP JUMPDEST PUSH1 0x40 MLOAD DUP1 SWAP2 SUB SWAP1 RETURN JUMPDEST CALLVALUE DUP1 ISZERO PUSH2 0x24C JUMPI PUSH1 0x0 DUP1 REVERT JUMPDEST POP PUSH2 0x267 PUSH1 0x4 DUP1 CALLDATASIZE SUB DUP2 ADD SWAP1 PUSH2 0x262 SWAP2 SWAP1 PUSH2 0x14C7 JUMP JUMPDEST PUSH2 0x5EF JUMP JUMPDEST PUSH1 0x40 MLOAD PUSH2 0x274 SWAP2 SWAP1 PUSH2 0x1556 JUMP JUMPDEST PUSH1 0x40 MLOAD DUP1 SWAP2 SUB SWAP1 RETURN JUMPDEST CALLVALUE DUP1 ISZERO PUSH2 0x289 JUMPI PUSH1 0x0 DUP1 REVERT JUMPDEST POP PUSH2 0x292 PUSH2 0x62A JUMP JUMPDEST PUSH1 0x40 MLOAD PUSH2 0x29F SWAP2 SWAP1 PUSH2 0x1580 JUMP JUMPDEST PUSH1 0x40 MLOAD DUP1 SWAP2 SUB SWAP1 RETURN JUMPDEST CALLVALUE DUP1 ISZERO PUSH2 0x2B4 JUMPI PUSH1 0x0 DUP1 REVERT JUMPDEST POP PUSH2 0x2CF PUSH1 0x4 DUP1 CALLDATASIZE SUB DUP2 ADD SWAP1 PUSH2 0x2CA SWAP2 SWAP1 PUSH2 0x15D1 JUMP JUMPDEST PUSH2 0x653 JUMP JUMPDEST PUSH1 0x40 MLOAD PUSH2 0x2DC SWAP2 SWAP1 PUSH2 0x160D JUMP JUMPDEST PUSH1 0x40 MLOAD DUP1 SWAP2 SUB SWAP1 RETURN JUMPDEST CALLVALUE DUP1 ISZERO PUSH2 0x2F1 JUMPI PUSH1 0x0 DUP1 REVERT JUMPDEST POP PUSH2 0x30C PUSH1 0x4 DUP1 CALLDATASIZE SUB DUP2 ADD SWAP1 PUSH2 0x307 SWAP2 SWAP1 PUSH2 0x1628 JUMP JUMPDEST PUSH2 0x66B JUMP JUMPDEST PUSH1 0x40 MLOAD PUSH2 0x319 SWAP2 SWAP1 PUSH2 0x1664 JUMP JUMPDEST PUSH1 0x40 MLOAD DUP1 SWAP2 SUB SWAP1 RETURN JUMPDEST CALLVALUE DUP1 ISZERO PUSH2 0x32E JUMPI PUSH1 0x0 DUP1 REVERT JUMPDEST POP PUSH2 0x349 PUSH1 0x4 DUP1 CALLDATASIZE SUB DUP2 ADD SWAP1 PUSH2 0x344 SWAP2 SWAP1 PUSH2 0x167F JUMP JUMPDEST PUSH2 0x683 JUMP JUMPDEST STOP JUMPDEST PUSH2 0x365 PUSH1 0x4 DUP1 CALLDATASIZE SUB DUP2 ADD SWAP1 PUSH2 0x360 SWAP2 SWAP1 PUSH2 0x16AC JUMP JUMPDEST PUSH2 0x719 JUMP JUMPDEST STOP JUMPDEST CALLVALUE DUP1 ISZERO PUSH2 0x373 JUMPI PUSH1 0x0 DUP1 REVERT JUMPDEST POP PUSH2 0x38E PUSH1 0x4 DUP1 CALLDATASIZE SUB DUP2 ADD SWAP1 PUSH2 0x389 SWAP2 SWAP1 PUSH2 0x167F JUMP JUMPDEST PUSH2 0x8C2 JUMP JUMPDEST STOP JUMPDEST CALLVALUE DUP1 ISZERO PUSH2 0x39C JUMPI PUSH1 0x0 DUP1 REVERT JUMPDEST POP PUSH2 0x3B7 PUSH1 0x4 DUP1 CALLDATASIZE SUB DUP2 ADD SWAP1 PUSH2 0x3B2 SWAP2 SWAP1 PUSH2 0x16AC JUMP JUMPDEST PUSH2 0x948 JUMP JUMPDEST PUSH1 0x40 MLOAD PUSH2 0x3C4 SWAP2 SWAP1 PUSH2 0x160D JUMP JUMPDEST PUSH1 0x40 MLOAD DUP1 SWAP2 SUB SWAP1 RETURN JUMPDEST CALLVALUE DUP1 ISZERO PUSH2 0x3D9 JUMPI PUSH1 0x0 DUP1 REVERT JUMPDEST POP PUSH2 0x3F4 PUSH1 0x4 DUP1 CALLDATASIZE SUB DUP2 ADD SWAP1 PUSH2 0x3EF SWAP2 SWAP1 PUSH2 0x170C JUMP JUMPDEST PUSH2 0x9D7 JUMP JUMPDEST PUSH1 0x40 MLOAD PUSH2 0x401 SWAP2 SWAP1 PUSH2 0x1556 JUMP JUMPDEST PUSH1 0x40 MLOAD DUP1 SWAP2 SUB SWAP1 RETURN JUMPDEST CALLER PUSH20 0xFFFFFFFFFFFFFFFFFFFFFFFFFFFFFFFFFFFFFFFF AND PUSH32 0x0 PUSH20 0xFFFFFFFFFFFFFFFFFFFFFFFFFFFFFFFFFFFFFFFF AND EQ PUSH2 0x49A JUMPI CALLER PUSH1 0x40 MLOAD PUSH32 0x91AC5E4F00000000000000000000000000000000000000000000000000000000 DUP2 MSTORE PUSH1 0x4 ADD PUSH2 0x491 SWAP2 SWAP1 PUSH2 0x1580 JUMP JUMPDEST PUSH1 0x40 MLOAD DUP1 SWAP2 SUB SWAP1 REVERT JUMPDEST DUP7 PUSH1 0x20 ADD CALLDATALOAD PUSH2 0x4BA DUP9 PUSH1 0x0 ADD PUSH1 0x20 DUP2 ADD SWAP1 PUSH2 0x4B5 SWAP2 SWAP1 PUSH2 0x1628 JUMP JUMPDEST PUSH2 0xA18 JUMP JUMPDEST EQ PUSH2 0x514 JUMPI DUP7 PUSH1 0x0 ADD PUSH1 0x20 DUP2 ADD SWAP1 PUSH2 0x4D2 SWAP2 SWAP1 PUSH2 0x1628 JUMP JUMPDEST DUP8 PUSH1 0x20 ADD CALLDATALOAD PUSH1 0x40 MLOAD PUSH32 0xC26BEBCC00000000000000000000000000000000000000000000000000000000 DUP2 MSTORE PUSH1 0x4 ADD PUSH2 0x50B SWAP3 SWAP2 SWAP1 PUSH2 0x1739 JUMP JUMPDEST PUSH1 0x40 MLOAD DUP1 SWAP2 SUB SWAP1 REVERT JUMPDEST PUSH2 0x523 DUP8 DUP8 DUP8 DUP8 DUP8 DUP8 DUP8 PUSH2 0xA8D JUMP JUMPDEST POP POP POP POP POP POP POP JUMP JUMPDEST PUSH1 0x0 DUP1 PUSH1 0x1 PUSH1 0x2 SWAP2 POP SWAP2 POP SWAP1 SWAP2 JUMP JUMPDEST PUSH2 0x543 PUSH2 0xA96 JUMP JUMPDEST PUSH2 0x54D DUP3 DUP3 PUSH2 0xB1D JUMP JUMPDEST POP POP JUMP JUMPDEST PUSH2 0x559 PUSH2 0xA96 JUMP JUMPDEST PUSH2 0x561 PUSH2 0x62A JUMP JUMPDEST PUSH20 0xFFFFFFFFFFFFFFFFFFFFFFFFFFFFFFFFFFFFFFFF AND PUSH2 0x8FC SELFBALANCE SWAP1 DUP2 ISZERO MUL SWAP1 PUSH1 0x40 MLOAD PUSH1 0x0 PUSH1 0x40 MLOAD DUP1 DUP4 SUB DUP2 DUP6 DUP9 DUP9 CALL SWAP4 POP POP POP POP ISZERO DUP1 ISZERO PUSH2 0x5A6 JUMPI RETURNDATASIZE PUSH1 0x0 DUP1 RETURNDATACOPY RETURNDATASIZE PUSH1 0x0 REVERT JUMPDEST POP JUMP JUMPDEST PUSH2 0x9D28 DUP2 JUMP JUMPDEST PUSH32 0x0 DUP2 JUMP JUMPDEST PUSH2 0x5DB PUSH2 0xA96 JUMP JUMPDEST PUSH2 0x5E5 PUSH1 0x0 PUSH2 0xB7E JUMP JUMPDEST JUMP JUMPDEST PUSH1 0x0 SWAP3 SWAP2 POP POP JUMP JUMPDEST PUSH1 0x0 ADDRESS PUSH20 0xFFFFFFFFFFFFFFFFFFFFFFFFFFFFFFFFFFFFFFFF AND DUP3 PUSH20 0xFFFFFFFFFFFFFFFFFFFFFFFFFFFFFFFFFFFFFFFF AND EQ SWAP1 POP SWAP5 SWAP4 POP POP POP POP JUMP JUMPDEST PUSH1 0x0 DUP1 PUSH1 0x0 SWAP1 SLOAD SWAP1 PUSH2 0x100 EXP SWAP1 DIV PUSH20 0xFFFFFFFFFFFFFFFFFFFFFFFFFFFFFFFFFFFFFFFF AND SWAP1 POP SWAP1 JUMP JUMPDEST PUSH1 0x2 PUSH1 0x20 MSTORE DUP1 PUSH1 0x0 MSTORE PUSH1 0x40 PUSH1 0x0 KECCAK256 PUSH1 0x0 SWAP2 POP SWAP1 POP SLOAD DUP2 JUMP JUMPDEST PUSH1 0x1 PUSH1 0x20 MSTORE DUP1 PUSH1 0x0 MSTORE PUSH1 0x40 PUSH1 0x0 KECCAK256 PUSH1 0x0 SWAP2 POP SWAP1 POP SLOAD DUP2 JUMP JUMPDEST PUSH2 0x68B PUSH2 0xA96 JUMP JUMPDEST PUSH32 0x0 PUSH20 0xFFFFFFFFFFFFFFFFFFFFFFFFFFFFFFFFFFFFFFFF AND PUSH4 0xCA5EB5E1 DUP3 PUSH1 0x40 MLOAD DUP3 PUSH4 0xFFFFFFFF AND PUSH1 0xE0 SHL DUP2 MSTORE PUSH1 0x4 ADD PUSH2 0x6E4 SWAP2 SWAP1 PUSH2 0x1580 JUMP JUMPDEST PUSH1 0x0 PUSH1 0x40 MLOAD DUP1 DUP4 SUB DUP2 PUSH1 0x0 DUP8 DUP1 EXTCODESIZE ISZERO DUP1 ISZERO PUSH2 0x6FE JUMPI PUSH1 0x0 DUP1 REVERT JUMPDEST POP GAS CALL ISZERO DUP1 ISZERO PUSH2 0x712 JUMPI RETURNDATASIZE PUSH1 0x0 DUP1 RETURNDATACOPY RETURNDATASIZE PUSH1 0x0 REVERT JUMPDEST POP POP POP POP POP JUMP JUMPDEST PUSH1 0x0 DUP4 CALLVALUE PUSH1 0x40 MLOAD PUSH1 0x20 ADD PUSH2 0x72E SWAP3 SWAP2 SWAP1 PUSH2 0x1762 JUMP JUMPDEST PUSH1 0x40 MLOAD PUSH1 0x20 DUP2 DUP4 SUB SUB DUP2 MSTORE SWAP1 PUSH1 0x40 MSTORE SWAP1 POP PUSH1 0x0 PUSH2 0x794 PUSH2 0x9D28 DUP4 DUP7 DUP7 DUP1 DUP1 PUSH1 0x1F ADD PUSH1 0x20 DUP1 SWAP2 DIV MUL PUSH1 0x20 ADD PUSH1 0x40 MLOAD SWAP1 DUP2 ADD PUSH1 0x40 MSTORE DUP1 SWAP4 SWAP3 SWAP2 SWAP1 DUP2 DUP2 MSTORE PUSH1 0x20 ADD DUP4 DUP4 DUP1 DUP3 DUP5 CALLDATACOPY PUSH1 0x0 DUP2 DUP5 ADD MSTORE PUSH1 0x1F NOT PUSH1 0x1F DUP3 ADD AND SWAP1 POP DUP1 DUP4 ADD SWAP3 POP POP POP POP POP POP POP PUSH1 0x0 PUSH2 0xC42 JUMP JUMPDEST SWAP1 POP DUP1 PUSH1 0x0 ADD MLOAD CALLVALUE GT PUSH2 0x7DC JUMPI PUSH1 0x40 MLOAD PUSH32 0x8C379A000000000000000000000000000000000000000000000000000000000 DUP2 MSTORE PUSH1 0x4 ADD PUSH2 0x7D3 SWAP1 PUSH2 0x17E8 JUMP JUMPDEST PUSH1 0x40 MLOAD DUP1 SWAP2 SUB SWAP1 REVERT JUMPDEST DUP1 PUSH1 0x0 ADD MLOAD CALLVALUE PUSH2 0x7EC SWAP2 SWAP1 PUSH2 0x1837 JUMP JUMPDEST PUSH1 0x2 PUSH1 0x0 DUP8 DUP2 MSTORE PUSH1 0x20 ADD SWAP1 DUP2 MSTORE PUSH1 0x20 ADD PUSH1 0x0 KECCAK256 DUP2 SWAP1 SSTORE POP PUSH2 0x86F PUSH2 0x9D28 DUP4 DUP7 DUP7 DUP1 DUP1 PUSH1 0x1F ADD PUSH1 0x20 DUP1 SWAP2 DIV MUL PUSH1 0x20 ADD PUSH1 0x40 MLOAD SWAP1 DUP2 ADD PUSH1 0x40 MSTORE DUP1 SWAP4 SWAP3 SWAP2 SWAP1 DUP2 DUP2 MSTORE PUSH1 0x20 ADD DUP4 DUP4 DUP1 DUP3 DUP5 CALLDATACOPY PUSH1 0x0 DUP2 DUP5 ADD MSTORE PUSH1 0x1F NOT PUSH1 0x1F DUP3 ADD AND SWAP1 POP DUP1 DUP4 ADD SWAP3 POP POP POP POP POP POP POP PUSH1 0x40 MLOAD DUP1 PUSH1 0x40 ADD PUSH1 0x40 MSTORE DUP1 DUP7 PUSH1 0x0 ADD MLOAD DUP2 MSTORE PUSH1 0x20 ADD PUSH1 0x0 DUP2 MSTORE POP CALLER PUSH2 0xD25 JUMP JUMPDEST POP DUP5 PUSH32 0x1954F0EA9E3F5FBDC693320E038DB1549F419AE5351B74D36CEE7C9EF13DD2B6 PUSH1 0x2 PUSH1 0x0 DUP9 DUP2 MSTORE PUSH1 0x20 ADD SWAP1 DUP2 MSTORE PUSH1 0x20 ADD PUSH1 0x0 KECCAK256 SLOAD PUSH1 0x40 MLOAD PUSH2 0x8B3 SWAP2 SWAP1 PUSH2 0x160D JUMP JUMPDEST PUSH1 0x40 MLOAD DUP1 SWAP2 SUB SWAP1 LOG2 POP POP POP POP POP JUMP JUMPDEST PUSH2 0x8CA PUSH2 0xA96 JUMP JUMPDEST PUSH1 0x0 PUSH20 0xFFFFFFFFFFFFFFFFFFFFFFFFFFFFFFFFFFFFFFFF AND DUP2 PUSH20 0xFFFFFFFFFFFFFFFFFFFFFFFFFFFFFFFFFFFFFFFF AND SUB PUSH2 0x93C JUMPI PUSH1 0x0 PUSH1 0x40 MLOAD PUSH32 0x1E4FBDF700000000000000000000000000000000000000000000000000000000 DUP2 MSTORE PUSH1 0x4 ADD PUSH2 0x933 SWAP2 SWAP1 PUSH2 0x1580 JUMP JUMPDEST PUSH1 0x40 MLOAD DUP1 SWAP2 SUB SWAP1 REVERT JUMPDEST PUSH2 0x945 DUP2 PUSH2 0xB7E JUMP JUMPDEST POP JUMP JUMPDEST PUSH1 0x0 DUP1 DUP5 PUSH1 0x0 PUSH1 0x40 MLOAD PUSH1 0x20 ADD PUSH2 0x95F SWAP3 SWAP2 SWAP1 PUSH2 0x18B3 JUMP JUMPDEST PUSH1 0x40 MLOAD PUSH1 0x20 DUP2 DUP4 SUB SUB DUP2 MSTORE SWAP1 PUSH1 0x40 MSTORE SWAP1 POP PUSH1 0x0 PUSH2 0x9C5 PUSH2 0x9D28 DUP4 DUP8 DUP8 DUP1 DUP1 PUSH1 0x1F ADD PUSH1 0x20 DUP1 SWAP2 DIV MUL PUSH1 0x20 ADD PUSH1 0x40 MLOAD SWAP1 DUP2 ADD PUSH1 0x40 MSTORE DUP1 SWAP4 SWAP3 SWAP2 SWAP1 DUP2 DUP2 MSTORE PUSH1 0x20 ADD DUP4 DUP4 DUP1 DUP3 DUP5 CALLDATACOPY PUSH1 0x0 DUP2 DUP5 ADD MSTORE PUSH1 0x1F NOT PUSH1 0x1F DUP3 ADD AND SWAP1 POP DUP1 DUP4 ADD SWAP3 POP POP POP POP POP POP POP PUSH1 0x0 PUSH2 0xC42 JUMP JUMPDEST SWAP1 POP DUP1 PUSH1 0x0 ADD MLOAD SWAP3 POP POP POP SWAP4 SWAP3 POP POP POP JUMP JUMPDEST PUSH1 0x0 DUP2 PUSH1 0x20 ADD CALLDATALOAD PUSH1 0x1 PUSH1 0x0 DUP5 PUSH1 0x0 ADD PUSH1 0x20 DUP2 ADD SWAP1 PUSH2 0x9F5 SWAP2 SWAP1 PUSH2 0x1628 JUMP JUMPDEST PUSH4 0xFFFFFFFF AND PUSH4 0xFFFFFFFF AND DUP2 MSTORE PUSH1 0x20 ADD SWAP1 DUP2 MSTORE PUSH1 0x20 ADD PUSH1 0x0 KECCAK256 SLOAD EQ SWAP1 POP SWAP2 SWAP1 POP JUMP JUMPDEST PUSH1 0x0 DUP1 PUSH1 0x1 PUSH1 0x0 DUP5 PUSH4 0xFFFFFFFF AND PUSH4 0xFFFFFFFF AND DUP2 MSTORE PUSH1 0x20 ADD SWAP1 DUP2 MSTORE PUSH1 0x20 ADD PUSH1 0x0 KECCAK256 SLOAD SWAP1 POP PUSH1 0x0 DUP1 SHL DUP2 SUB PUSH2 0xA84 JUMPI DUP3 PUSH1 0x40 MLOAD PUSH32 0xF6FF4FB700000000000000000000000000000000000000000000000000000000 DUP2 MSTORE PUSH1 0x4 ADD PUSH2 0xA7B SWAP2 SWAP1 PUSH2 0x1417 JUMP JUMPDEST PUSH1 0x40 MLOAD DUP1 SWAP2 SUB SWAP1 REVERT JUMPDEST DUP1 SWAP2 POP POP SWAP2 SWAP1 POP JUMP JUMPDEST POP POP POP POP POP POP POP JUMP JUMPDEST PUSH2 0xA9E PUSH2 0xE41 JUMP JUMPDEST PUSH20 0xFFFFFFFFFFFFFFFFFFFFFFFFFFFFFFFFFFFFFFFF AND PUSH2 0xABC PUSH2 0x62A JUMP JUMPDEST PUSH20 0xFFFFFFFFFFFFFFFFFFFFFFFFFFFFFFFFFFFFFFFF AND EQ PUSH2 0xB1B JUMPI PUSH2 0xADF PUSH2 0xE41 JUMP JUMPDEST PUSH1 0x40 MLOAD PUSH32 0x118CDAA700000000000000000000000000000000000000000000000000000000 DUP2 MSTORE PUSH1 0x4 ADD PUSH2 0xB12 SWAP2 SWAP1 PUSH2 0x1580 JUMP JUMPDEST PUSH1 0x40 MLOAD DUP1 SWAP2 SUB SWAP1 REVERT JUMPDEST JUMP JUMPDEST DUP1 PUSH1 0x1 PUSH1 0x0 DUP5 PUSH4 0xFFFFFFFF AND PUSH4 0xFFFFFFFF AND DUP2 MSTORE PUSH1 0x20 ADD SWAP1 DUP2 MSTORE PUSH1 0x20 ADD PUSH1 0x0 KECCAK256 DUP2 SWAP1 SSTORE POP PUSH32 0x238399D427B947898EDB290F5FF0F9109849B1C3BA196A42E35F00C50A54B98B DUP3 DUP3 PUSH1 0x40 MLOAD PUSH2 0xB72 SWAP3 SWAP2 SWAP1 PUSH2 0x1739 JUMP JUMPDEST PUSH1 0x40 MLOAD DUP1 SWAP2 SUB SWAP1 LOG1 POP POP JUMP JUMPDEST PUSH1 0x0 DUP1 PUSH1 0x0 SWAP1 SLOAD SWAP1 PUSH2 0x100 EXP SWAP1 DIV PUSH20 0xFFFFFFFFFFFFFFFFFFFFFFFFFFFFFFFFFFFFFFFF AND SWAP1 POP DUP2 PUSH1 0x0 DUP1 PUSH2 0x100 EXP DUP2 SLOAD DUP2 PUSH20 0xFFFFFFFFFFFFFFFFFFFFFFFFFFFFFFFFFFFFFFFF MUL NOT AND SWAP1 DUP4 PUSH20 0xFFFFFFFFFFFFFFFFFFFFFFFFFFFFFFFFFFFFFFFF AND MUL OR SWAP1 SSTORE POP DUP2 PUSH20 0xFFFFFFFFFFFFFFFFFFFFFFFFFFFFFFFFFFFFFFFF AND DUP2 PUSH20 0xFFFFFFFFFFFFFFFFFFFFFFFFFFFFFFFFFFFFFFFF AND PUSH32 0x8BE0079C531659141344CD1FD0A4F28419497F9722A3DAAFE3B4186F6B6457E0 PUSH1 0x40 MLOAD PUSH1 0x40 MLOAD DUP1 SWAP2 SUB SWAP1 LOG3 POP POP JUMP JUMPDEST PUSH2 0xC4A PUSH2 0x1105 JUMP JUMPDEST PUSH32 0x0 PUSH20 0xFFFFFFFFFFFFFFFFFFFFFFFFFFFFFFFFFFFFFFFF AND PUSH4 0xDDC28C58 PUSH1 0x40 MLOAD DUP1 PUSH1 0xA0 ADD PUSH1 0x40 MSTORE DUP1 DUP9 PUSH4 0xFFFFFFFF AND DUP2 MSTORE PUSH1 0x20 ADD PUSH2 0xCA6 DUP10 PUSH2 0xA18 JUMP JUMPDEST DUP2 MSTORE PUSH1 0x20 ADD DUP8 DUP2 MSTORE PUSH1 0x20 ADD DUP7 DUP2 MSTORE PUSH1 0x20 ADD DUP6 ISZERO ISZERO DUP2 MSTORE POP ADDRESS PUSH1 0x40 MLOAD DUP4 PUSH4 0xFFFFFFFF AND PUSH1 0xE0 SHL DUP2 MSTORE PUSH1 0x4 ADD PUSH2 0xCDB SWAP3 SWAP2 SWAP1 PUSH2 0x1A16 JUMP JUMPDEST PUSH1 0x40 DUP1 MLOAD DUP1 DUP4 SUB DUP2 DUP7 GAS STATICCALL ISZERO DUP1 ISZERO PUSH2 0xCF7 JUMPI RETURNDATASIZE PUSH1 0x0 DUP1 RETURNDATACOPY RETURNDATASIZE PUSH1 0x0 REVERT JUMPDEST POP POP POP POP PUSH1 0x40 MLOAD RETURNDATASIZE PUSH1 0x1F NOT PUSH1 0x1F DUP3 ADD AND DUP3 ADD DUP1 PUSH1 0x40 MSTORE POP DUP2 ADD SWAP1 PUSH2 0xD1B SWAP2 SWAP1 PUSH2 0x1B2B JUMP JUMPDEST SWAP1 POP SWAP5 SWAP4 POP POP POP POP JUMP JUMPDEST PUSH2 0xD2D PUSH2 0x111F JUMP JUMPDEST PUSH1 0x0 PUSH2 0xD3C DUP5 PUSH1 0x0 ADD MLOAD PUSH2 0xE49 JUMP JUMPDEST SWAP1 POP PUSH1 0x0 DUP5 PUSH1 0x20 ADD MLOAD GT ISZERO PUSH2 0xD59 JUMPI PUSH2 0xD58 DUP5 PUSH1 0x20 ADD MLOAD PUSH2 0xE97 JUMP JUMPDEST JUMPDEST PUSH32 0x0 PUSH20 0xFFFFFFFFFFFFFFFFFFFFFFFFFFFFFFFFFFFFFFFF AND PUSH4 0x2637A450 DUP3 PUSH1 0x40 MLOAD DUP1 PUSH1 0xA0 ADD PUSH1 0x40 MSTORE DUP1 DUP12 PUSH4 0xFFFFFFFF AND DUP2 MSTORE PUSH1 0x20 ADD PUSH2 0xDB6 DUP13 PUSH2 0xA18 JUMP JUMPDEST DUP2 MSTORE PUSH1 0x20 ADD DUP11 DUP2 MSTORE PUSH1 0x20 ADD DUP10 DUP2 MSTORE PUSH1 0x20 ADD PUSH1 0x0 DUP10 PUSH1 0x20 ADD MLOAD GT ISZERO ISZERO DUP2 MSTORE POP DUP7 PUSH1 0x40 MLOAD DUP5 PUSH4 0xFFFFFFFF AND PUSH1 0xE0 SHL DUP2 MSTORE PUSH1 0x4 ADD PUSH2 0xDF2 SWAP3 SWAP2 SWAP1 PUSH2 0x1A16 JUMP JUMPDEST PUSH1 0x80 PUSH1 0x40 MLOAD DUP1 DUP4 SUB DUP2 DUP6 DUP9 GAS CALL ISZERO DUP1 ISZERO PUSH2 0xE10 JUMPI RETURNDATASIZE PUSH1 0x0 DUP1 RETURNDATACOPY RETURNDATASIZE PUSH1 0x0 REVERT JUMPDEST POP POP POP POP POP PUSH1 0x40 MLOAD RETURNDATASIZE PUSH1 0x1F NOT PUSH1 0x1F DUP3 ADD AND DUP3 ADD DUP1 PUSH1 0x40 MSTORE POP DUP2 ADD SWAP1 PUSH2 0xE35 SWAP2 SWAP1 PUSH2 0x1BFD JUMP JUMPDEST SWAP2 POP POP SWAP6 SWAP5 POP POP POP POP POP JUMP JUMPDEST PUSH1 0x0 CALLER SWAP1 POP SWAP1 JUMP JUMPDEST PUSH1 0x0 DUP2 CALLVALUE EQ PUSH2 0xE8F JUMPI CALLVALUE PUSH1 0x40 MLOAD PUSH32 0x9F70412000000000000000000000000000000000000000000000000000000000 DUP2 MSTORE PUSH1 0x4 ADD PUSH2 0xE86 SWAP2 SWAP1 PUSH2 0x160D JUMP JUMPDEST PUSH1 0x40 MLOAD DUP1 SWAP2 SUB SWAP1 REVERT JUMPDEST DUP2 SWAP1 POP SWAP2 SWAP1 POP JUMP JUMPDEST PUSH1 0x0 PUSH32 0x0 PUSH20 0xFFFFFFFFFFFFFFFFFFFFFFFFFFFFFFFFFFFFFFFF AND PUSH4 0xE4FE1D94 PUSH1 0x40 MLOAD DUP2 PUSH4 0xFFFFFFFF AND PUSH1 0xE0 SHL DUP2 MSTORE PUSH1 0x4 ADD PUSH1 0x20 PUSH1 0x40 MLOAD DUP1 DUP4 SUB DUP2 DUP7 GAS STATICCALL ISZERO DUP1 ISZERO PUSH2 0xF04 JUMPI RETURNDATASIZE PUSH1 0x0 DUP1 RETURNDATACOPY RETURNDATASIZE PUSH1 0x0 REVERT JUMPDEST POP POP POP POP PUSH1 0x40 MLOAD RETURNDATASIZE PUSH1 0x1F NOT PUSH1 0x1F DUP3 ADD AND DUP3 ADD DUP1 PUSH1 0x40 MSTORE POP DUP2 ADD SWAP1 PUSH2 0xF28 SWAP2 SWAP1 PUSH2 0x1C3F JUMP JUMPDEST SWAP1 POP PUSH1 0x0 PUSH20 0xFFFFFFFFFFFFFFFFFFFFFFFFFFFFFFFFFFFFFFFF AND DUP2 PUSH20 0xFFFFFFFFFFFFFFFFFFFFFFFFFFFFFFFFFFFFFFFF AND SUB PUSH2 0xF90 JUMPI PUSH1 0x40 MLOAD PUSH32 0x5373352A00000000000000000000000000000000000000000000000000000000 DUP2 MSTORE PUSH1 0x4 ADD PUSH1 0x40 MLOAD DUP1 SWAP2 SUB SWAP1 REVERT JUMPDEST PUSH2 0xFDD CALLER PUSH32 0x0 DUP5 DUP5 PUSH20 0xFFFFFFFFFFFFFFFFFFFFFFFFFFFFFFFFFFFFFFFF AND PUSH2 0xFE1 SWAP1 SWAP4 SWAP3 SWAP2 SWAP1 PUSH4 0xFFFFFFFF AND JUMP JUMPDEST POP POP JUMP JUMPDEST PUSH2 0x105D DUP5 DUP6 PUSH20 0xFFFFFFFFFFFFFFFFFFFFFFFFFFFFFFFFFFFFFFFF AND PUSH4 0x23B872DD DUP7 DUP7 DUP7 PUSH1 0x40 MLOAD PUSH1 0x24 ADD PUSH2 0x1016 SWAP4 SWAP3 SWAP2 SWAP1 PUSH2 0x1C6C JUMP JUMPDEST PUSH1 0x40 MLOAD PUSH1 0x20 DUP2 DUP4 SUB SUB DUP2 MSTORE SWAP1 PUSH1 0x40 MSTORE SWAP2 POP PUSH1 0xE0 SHL PUSH1 0x20 DUP3 ADD DUP1 MLOAD PUSH28 0xFFFFFFFFFFFFFFFFFFFFFFFFFFFFFFFFFFFFFFFFFFFFFFFFFFFFFFFF DUP4 DUP2 DUP4 AND OR DUP4 MSTORE POP POP POP POP PUSH2 0x1063 JUMP JUMPDEST POP POP POP POP JUMP JUMPDEST PUSH1 0x0 DUP1 PUSH1 0x20 PUSH1 0x0 DUP5 MLOAD PUSH1 0x20 DUP7 ADD PUSH1 0x0 DUP9 GAS CALL DUP1 PUSH2 0x1086 JUMPI PUSH1 0x40 MLOAD RETURNDATASIZE PUSH1 0x0 DUP3 RETURNDATACOPY RETURNDATASIZE DUP2 REVERT JUMPDEST RETURNDATASIZE SWAP3 POP PUSH1 0x0 MLOAD SWAP2 POP POP PUSH1 0x0 DUP3 EQ PUSH2 0x10A1 JUMPI PUSH1 0x1 DUP2 EQ ISZERO PUSH2 0x10BD JUMP JUMPDEST PUSH1 0x0 DUP5 PUSH20 0xFFFFFFFFFFFFFFFFFFFFFFFFFFFFFFFFFFFFFFFF AND EXTCODESIZE EQ JUMPDEST ISZERO PUSH2 0x10FF JUMPI DUP4 PUSH1 0x40 MLOAD PUSH32 0x5274AFE700000000000000000000000000000000000000000000000000000000 DUP2 MSTORE PUSH1 0x4 ADD PUSH2 0x10F6 SWAP2 SWAP1 PUSH2 0x1580 JUMP JUMPDEST PUSH1 0x40 MLOAD DUP1 SWAP2 SUB SWAP1 REVERT JUMPDEST POP POP POP POP JUMP JUMPDEST PUSH1 0x40 MLOAD DUP1 PUSH1 0x40 ADD PUSH1 0x40 MSTORE DUP1 PUSH1 0x0 DUP2 MSTORE PUSH1 0x20 ADD PUSH1 0x0 DUP2 MSTORE POP SWAP1 JUMP JUMPDEST PUSH1 0x40 MLOAD DUP1 PUSH1 0x60 ADD PUSH1 0x40 MSTORE DUP1 PUSH1 0x0 DUP1 NOT AND DUP2 MSTORE PUSH1 0x20 ADD PUSH1 0x0 PUSH8 0xFFFFFFFFFFFFFFFF AND DUP2 MSTORE PUSH1 0x20 ADD PUSH2 0x114D PUSH2 0x1105 JUMP JUMPDEST DUP2 MSTORE POP SWAP1 JUMP JUMPDEST PUSH1 0x0 PUSH1 0x40 MLOAD SWAP1 POP SWAP1 JUMP JUMPDEST PUSH1 0x0 DUP1 REVERT JUMPDEST PUSH1 0x0 DUP1 REVERT JUMPDEST PUSH1 0x0 DUP1 REVERT JUMPDEST PUSH1 0x0 PUSH1 0x60 DUP3 DUP5 SUB SLT ISZERO PUSH2 0x1182 JUMPI PUSH2 0x1181 PUSH2 0x1167 JUMP JUMPDEST JUMPDEST DUP2 SWAP1 POP SWAP3 SWAP2 POP POP JUMP JUMPDEST PUSH1 0x0 DUP2 SWAP1 POP SWAP2 SWAP1 POP JUMP JUMPDEST PUSH2 0x119E DUP2 PUSH2 0x118B JUMP JUMPDEST DUP2 EQ PUSH2 0x11A9 JUMPI PUSH1 0x0 DUP1 REVERT JUMPDEST POP JUMP JUMPDEST PUSH1 0x0 DUP2 CALLDATALOAD SWAP1 POP PUSH2 0x11BB DUP2 PUSH2 0x1195 JUMP JUMPDEST SWAP3 SWAP2 POP POP JUMP JUMPDEST PUSH1 0x0 DUP1 REVERT JUMPDEST PUSH1 0x0 DUP1 REVERT JUMPDEST PUSH1 0x0 DUP1 REVERT JUMPDEST PUSH1 0x0 DUP1 DUP4 PUSH1 0x1F DUP5 ADD SLT PUSH2 0x11E6 JUMPI PUSH2 0x11E5 PUSH2 0x11C1 JUMP JUMPDEST JUMPDEST DUP3 CALLDATALOAD SWAP1 POP PUSH8 0xFFFFFFFFFFFFFFFF DUP2 GT ISZERO PUSH2 0x1203 JUMPI PUSH2 0x1202 PUSH2 0x11C6 JUMP JUMPDEST JUMPDEST PUSH1 0x20 DUP4 ADD SWAP2 POP DUP4 PUSH1 0x1 DUP3 MUL DUP4 ADD GT ISZERO PUSH2 0x121F JUMPI PUSH2 0x121E PUSH2 0x11CB JUMP JUMPDEST JUMPDEST SWAP3 POP SWAP3 SWAP1 POP JUMP JUMPDEST PUSH1 0x0 PUSH20 0xFFFFFFFFFFFFFFFFFFFFFFFFFFFFFFFFFFFFFFFF DUP3 AND SWAP1 POP SWAP2 SWAP1 POP JUMP JUMPDEST PUSH1 0x0 PUSH2 0x1251 DUP3 PUSH2 0x1226 JUMP JUMPDEST SWAP1 POP SWAP2 SWAP1 POP JUMP JUMPDEST PUSH2 0x1261 DUP2 PUSH2 0x1246 JUMP JUMPDEST DUP2 EQ PUSH2 0x126C JUMPI PUSH1 0x0 DUP1 REVERT JUMPDEST POP JUMP JUMPDEST PUSH1 0x0 DUP2 CALLDATALOAD SWAP1 POP PUSH2 0x127E DUP2 PUSH2 0x1258 JUMP JUMPDEST SWAP3 SWAP2 POP POP JUMP JUMPDEST PUSH1 0x0 DUP1 PUSH1 0x0 DUP1 PUSH1 0x0 DUP1 PUSH1 0x0 PUSH1 0xE0 DUP9 DUP11 SUB SLT ISZERO PUSH2 0x12A3 JUMPI PUSH2 0x12A2 PUSH2 0x115D JUMP JUMPDEST JUMPDEST PUSH1 0x0 PUSH2 0x12B1 DUP11 DUP3 DUP12 ADD PUSH2 0x116C JUMP JUMPDEST SWAP8 POP POP PUSH1 0x60 PUSH2 0x12C2 DUP11 DUP3 DUP12 ADD PUSH2 0x11AC JUMP JUMPDEST SWAP7 POP POP PUSH1 0x80 DUP9 ADD CALLDATALOAD PUSH8 0xFFFFFFFFFFFFFFFF DUP2 GT ISZERO PUSH2 0x12E3 JUMPI PUSH2 0x12E2 PUSH2 0x1162 JUMP JUMPDEST JUMPDEST PUSH2 0x12EF DUP11 DUP3 DUP12 ADD PUSH2 0x11D0 JUMP JUMPDEST SWAP6 POP SWAP6 POP POP PUSH1 0xA0 PUSH2 0x1302 DUP11 DUP3 DUP12 ADD PUSH2 0x126F JUMP JUMPDEST SWAP4 POP POP PUSH1 0xC0 DUP9 ADD CALLDATALOAD PUSH8 0xFFFFFFFFFFFFFFFF DUP2 GT ISZERO PUSH2 0x1323 JUMPI PUSH2 0x1322 PUSH2 0x1162 JUMP JUMPDEST JUMPDEST PUSH2 0x132F DUP11 DUP3 DUP12 ADD PUSH2 0x11D0 JUMP JUMPDEST SWAP3 POP SWAP3 POP POP SWAP3 SWAP6 SWAP9 SWAP2 SWAP5 SWAP8 POP SWAP3 SWAP6 POP JUMP JUMPDEST PUSH1 0x0 PUSH8 0xFFFFFFFFFFFFFFFF DUP3 AND SWAP1 POP SWAP2 SWAP1 POP JUMP JUMPDEST PUSH2 0x135D DUP2 PUSH2 0x1340 JUMP JUMPDEST DUP3 MSTORE POP POP JUMP JUMPDEST PUSH1 0x0 PUSH1 0x40 DUP3 ADD SWAP1 POP PUSH2 0x1378 PUSH1 0x0 DUP4 ADD DUP6 PUSH2 0x1354 JUMP JUMPDEST PUSH2 0x1385 PUSH1 0x20 DUP4 ADD DUP5 PUSH2 0x1354 JUMP JUMPDEST SWAP4 SWAP3 POP POP POP JUMP JUMPDEST PUSH1 0x0 PUSH4 0xFFFFFFFF DUP3 AND SWAP1 POP SWAP2 SWAP1 POP JUMP JUMPDEST PUSH2 0x13A5 DUP2 PUSH2 0x138C JUMP JUMPDEST DUP2 EQ PUSH2 0x13B0 JUMPI PUSH1 0x0 DUP1 REVERT JUMPDEST POP JUMP JUMPDEST PUSH1 0x0 DUP2 CALLDATALOAD SWAP1 POP PUSH2 0x13C2 DUP2 PUSH2 0x139C JUMP JUMPDEST SWAP3 SWAP2 POP POP JUMP JUMPDEST PUSH1 0x0 DUP1 PUSH1 0x40 DUP4 DUP6 SUB SLT ISZERO PUSH2 0x13DF JUMPI PUSH2 0x13DE PUSH2 0x115D JUMP JUMPDEST JUMPDEST PUSH1 0x0 PUSH2 0x13ED DUP6 DUP3 DUP7 ADD PUSH2 0x13B3 JUMP JUMPDEST SWAP3 POP POP PUSH1 0x20 PUSH2 0x13FE DUP6 DUP3 DUP7 ADD PUSH2 0x11AC JUMP JUMPDEST SWAP2 POP POP SWAP3 POP SWAP3 SWAP1 POP JUMP JUMPDEST PUSH2 0x1411 DUP2 PUSH2 0x138C JUMP JUMPDEST DUP3 MSTORE POP POP JUMP JUMPDEST PUSH1 0x0 PUSH1 0x20 DUP3 ADD SWAP1 POP PUSH2 0x142C PUSH1 0x0 DUP4 ADD DUP5 PUSH2 0x1408 JUMP JUMPDEST SWAP3 SWAP2 POP POP JUMP JUMPDEST PUSH1 0x0 DUP2 SWAP1 POP SWAP2 SWAP1 POP JUMP JUMPDEST PUSH1 0x0 PUSH2 0x1457 PUSH2 0x1452 PUSH2 0x144D DUP5 PUSH2 0x1226 JUMP JUMPDEST PUSH2 0x1432 JUMP JUMPDEST PUSH2 0x1226 JUMP JUMPDEST SWAP1 POP SWAP2 SWAP1 POP JUMP JUMPDEST PUSH1 0x0 PUSH2 0x1469 DUP3 PUSH2 0x143C JUMP JUMPDEST SWAP1 POP SWAP2 SWAP1 POP JUMP JUMPDEST PUSH1 0x0 PUSH2 0x147B DUP3 PUSH2 0x145E JUMP JUMPDEST SWAP1 POP SWAP2 SWAP1 POP JUMP JUMPDEST PUSH2 0x148B DUP2 PUSH2 0x1470 JUMP JUMPDEST DUP3 MSTORE POP POP JUMP JUMPDEST PUSH1 0x0 PUSH1 0x20 DUP3 ADD SWAP1 POP PUSH2 0x14A6 PUSH1 0x0 DUP4 ADD DUP5 PUSH2 0x1482 JUMP JUMPDEST SWAP3 SWAP2 POP POP JUMP JUMPDEST PUSH1 0x0 PUSH1 0x20 DUP3 ADD SWAP1 POP PUSH2 0x14C1 PUSH1 0x0 DUP4 ADD DUP5 PUSH2 0x1354 JUMP JUMPDEST SWAP3 SWAP2 POP POP JUMP JUMPDEST PUSH1 0x0 DUP1 PUSH1 0x0 DUP1 PUSH1 0xA0 DUP6 DUP8 SUB SLT ISZERO PUSH2 0x14E1 JUMPI PUSH2 0x14E0 PUSH2 0x115D JUMP JUMPDEST JUMPDEST PUSH1 0x0 PUSH2 0x14EF DUP8 DUP3 DUP9 ADD PUSH2 0x116C JUMP JUMPDEST SWAP5 POP POP PUSH1 0x60 DUP6 ADD CALLDATALOAD PUSH8 0xFFFFFFFFFFFFFFFF DUP2 GT ISZERO PUSH2 0x1510 JUMPI PUSH2 0x150F PUSH2 0x1162 JUMP JUMPDEST JUMPDEST PUSH2 0x151C DUP8 DUP3 DUP9 ADD PUSH2 0x11D0 JUMP JUMPDEST SWAP4 POP SWAP4 POP POP PUSH1 0x80 PUSH2 0x152F DUP8 DUP3 DUP9 ADD PUSH2 0x126F JUMP JUMPDEST SWAP2 POP POP SWAP3 SWAP6 SWAP2 SWAP5 POP SWAP3 POP JUMP JUMPDEST PUSH1 0x0 DUP2 ISZERO ISZERO SWAP1 POP SWAP2 SWAP1 POP JUMP JUMPDEST PUSH2 0x1550 DUP2 PUSH2 0x153B JUMP JUMPDEST DUP3 MSTORE POP POP JUMP JUMPDEST PUSH1 0x0 PUSH1 0x20 DUP3 ADD SWAP1 POP PUSH2 0x156B PUSH1 0x0 DUP4 ADD DUP5 PUSH2 0x1547 JUMP JUMPDEST SWAP3 SWAP2 POP POP JUMP JUMPDEST PUSH2 0x157A DUP2 PUSH2 0x1246 JUMP JUMPDEST DUP3 MSTORE POP POP JUMP JUMPDEST PUSH1 0x0 PUSH1 0x20 DUP3 ADD SWAP1 POP PUSH2 0x1595 PUSH1 0x0 DUP4 ADD DUP5 PUSH2 0x1571 JUMP JUMPDEST SWAP3 SWAP2 POP POP JUMP JUMPDEST PUSH1 0x0 DUP2 SWAP1 POP SWAP2 SWAP1 POP JUMP JUMPDEST PUSH2 0x15AE DUP2 PUSH2 0x159B JUMP JUMPDEST DUP2 EQ PUSH2 0x15B9 JUMPI PUSH1 0x0 DUP1 REVERT JUMPDEST POP JUMP JUMPDEST PUSH1 0x0 DUP2 CALLDATALOAD SWAP1 POP PUSH2 0x15CB DUP2 PUSH2 0x15A5 JUMP JUMPDEST SWAP3 SWAP2 POP POP JUMP JUMPDEST PUSH1 0x0 PUSH1 0x20 DUP3 DUP5 SUB SLT ISZERO PUSH2 0x15E7 JUMPI PUSH2 0x15E6 PUSH2 0x115D JUMP JUMPDEST JUMPDEST PUSH1 0x0 PUSH2 0x15F5 DUP5 DUP3 DUP6 ADD PUSH2 0x15BC JUMP JUMPDEST SWAP2 POP POP SWAP3 SWAP2 POP POP JUMP JUMPDEST PUSH2 0x1607 DUP2 PUSH2 0x159B JUMP JUMPDEST DUP3 MSTORE POP POP JUMP JUMPDEST PUSH1 0x0 PUSH1 0x20 DUP3 ADD SWAP1 POP PUSH2 0x1622 PUSH1 0x0 DUP4 ADD DUP5 PUSH2 0x15FE JUMP JUMPDEST SWAP3 SWAP2 POP POP JUMP JUMPDEST PUSH1 0x0 PUSH1 0x20 DUP3 DUP5 SUB SLT ISZERO PUSH2 0x163E JUMPI PUSH2 0x163D PUSH2 0x115D JUMP JUMPDEST JUMPDEST PUSH1 0x0 PUSH2 0x164C DUP5 DUP3 DUP6 ADD PUSH2 0x13B3 JUMP JUMPDEST SWAP2 POP POP SWAP3 SWAP2 POP POP JUMP JUMPDEST PUSH2 0x165E DUP2 PUSH2 0x118B JUMP JUMPDEST DUP3 MSTORE POP POP JUMP JUMPDEST PUSH1 0x0 PUSH1 0x20 DUP3 ADD SWAP1 POP PUSH2 0x1679 PUSH1 0x0 DUP4 ADD DUP5 PUSH2 0x1655 JUMP JUMPDEST SWAP3 SWAP2 POP POP JUMP JUMPDEST PUSH1 0x0 PUSH1 0x20 DUP3 DUP5 SUB SLT ISZERO PUSH2 0x1695 JUMPI PUSH2 0x1694 PUSH2 0x115D JUMP JUMPDEST JUMPDEST PUSH1 0x0 PUSH2 0x16A3 DUP5 DUP3 DUP6 ADD PUSH2 0x126F JUMP JUMPDEST SWAP2 POP POP SWAP3 SWAP2 POP POP JUMP JUMPDEST PUSH1 0x0 DUP1 PUSH1 0x0 PUSH1 0x40 DUP5 DUP7 SUB SLT ISZERO PUSH2 0x16C5 JUMPI PUSH2 0x16C4 PUSH2 0x115D JUMP JUMPDEST JUMPDEST PUSH1 0x0 PUSH2 0x16D3 DUP7 DUP3 DUP8 ADD PUSH2 0x15BC JUMP JUMPDEST SWAP4 POP POP PUSH1 0x20 DUP5 ADD CALLDATALOAD PUSH8 0xFFFFFFFFFFFFFFFF DUP2 GT ISZERO PUSH2 0x16F4 JUMPI PUSH2 0x16F3 PUSH2 0x1162 JUMP JUMPDEST JUMPDEST PUSH2 0x1700 DUP7 DUP3 DUP8 ADD PUSH2 0x11D0 JUMP JUMPDEST SWAP3 POP SWAP3 POP POP SWAP3 POP SWAP3 POP SWAP3 JUMP JUMPDEST PUSH1 0x0 PUSH1 0x60 DUP3 DUP5 SUB SLT ISZERO PUSH2 0x1722 JUMPI PUSH2 0x1721 PUSH2 0x115D JUMP JUMPDEST JUMPDEST PUSH1 0x0 PUSH2 0x1730 DUP5 DUP3 DUP6 ADD PUSH2 0x116C JUMP JUMPDEST SWAP2 POP POP SWAP3 SWAP2 POP POP JUMP JUMPDEST PUSH1 0x0 PUSH1 0x40 DUP3 ADD SWAP1 POP PUSH2 0x174E PUSH1 0x0 DUP4 ADD DUP6 PUSH2 0x1408 JUMP JUMPDEST PUSH2 0x175B PUSH1 0x20 DUP4 ADD DUP5 PUSH2 0x1655 JUMP JUMPDEST SWAP4 SWAP3 POP POP POP JUMP JUMPDEST PUSH1 0x0 PUSH1 0x40 DUP3 ADD SWAP1 POP PUSH2 0x1777 PUSH1 0x0 DUP4 ADD DUP6 PUSH2 0x15FE JUMP JUMPDEST PUSH2 0x1784 PUSH1 0x20 DUP4 ADD DUP5 PUSH2 0x15FE JUMP JUMPDEST SWAP4 SWAP3 POP POP POP JUMP JUMPDEST PUSH1 0x0 DUP3 DUP3 MSTORE PUSH1 0x20 DUP3 ADD SWAP1 POP SWAP3 SWAP2 POP POP JUMP JUMPDEST PUSH32 0x496E73756666696369656E742066656500000000000000000000000000000000 PUSH1 0x0 DUP3 ADD MSTORE POP JUMP JUMPDEST PUSH1 0x0 PUSH2 0x17D2 PUSH1 0x10 DUP4 PUSH2 0x178B JUMP JUMPDEST SWAP2 POP PUSH2 0x17DD DUP3 PUSH2 0x179C JUMP JUMPDEST PUSH1 0x20 DUP3 ADD SWAP1 POP SWAP2 SWAP1 POP JUMP JUMPDEST PUSH1 0x0 PUSH1 0x20 DUP3 ADD SWAP1 POP DUP2 DUP2 SUB PUSH1 0x0 DUP4 ADD MSTORE PUSH2 0x1801 DUP2 PUSH2 0x17C5 JUMP JUMPDEST SWAP1 POP SWAP2 SWAP1 POP JUMP JUMPDEST PUSH32 0x4E487B7100000000000000000000000000000000000000000000000000000000 PUSH1 0x0 MSTORE PUSH1 0x11 PUSH1 0x4 MSTORE PUSH1 0x24 PUSH1 0x0 REVERT JUMPDEST PUSH1 0x0 PUSH2 0x1842 DUP3 PUSH2 0x159B JUMP JUMPDEST SWAP2 POP PUSH2 0x184D DUP4 PUSH2 0x159B JUMP JUMPDEST SWAP3 POP DUP3 DUP3 SUB SWAP1 POP DUP2 DUP2 GT ISZERO PUSH2 0x1865 JUMPI PUSH2 0x1864 PUSH2 0x1808 JUMP JUMPDEST JUMPDEST SWAP3 SWAP2 POP POP JUMP JUMPDEST PUSH1 0x0 DUP2 SWAP1 POP SWAP2 SWAP1 POP JUMP JUMPDEST PUSH1 0x0 PUSH1 0xFF DUP3 AND SWAP1 POP SWAP2 SWAP1 POP JUMP JUMPDEST PUSH1 0x0 PUSH2 0x189D PUSH2 0x1898 PUSH2 0x1893 DUP5 PUSH2 0x186B JUMP JUMPDEST PUSH2 0x1432 JUMP JUMPDEST PUSH2 0x1875 JUMP JUMPDEST SWAP1 POP SWAP2 SWAP1 POP JUMP JUMPDEST PUSH2 0x18AD DUP2 PUSH2 0x1882 JUMP JUMPDEST DUP3 MSTORE POP POP JUMP JUMPDEST PUSH1 0x0 PUSH1 0x40 DUP3 ADD SWAP1 POP PUSH2 0x18C8 PUSH1 0x0 DUP4 ADD DUP6 PUSH2 0x15FE JUMP JUMPDEST PUSH2 0x18D5 PUSH1 0x20 DUP4 ADD DUP5 PUSH2 0x18A4 JUMP JUMPDEST SWAP4 SWAP3 POP POP POP JUMP JUMPDEST PUSH2 0x18E5 DUP2 PUSH2 0x138C JUMP JUMPDEST DUP3 MSTORE POP POP JUMP JUMPDEST PUSH2 0x18F4 DUP2 PUSH2 0x118B JUMP JUMPDEST DUP3 MSTORE POP POP JUMP JUMPDEST PUSH1 0x0 DUP2 MLOAD SWAP1 POP SWAP2 SWAP1 POP JUMP JUMPDEST PUSH1 0x0 DUP3 DUP3 MSTORE PUSH1 0x20 DUP3 ADD SWAP1 POP SWAP3 SWAP2 POP POP JUMP JUMPDEST PUSH1 0x0 JUMPDEST DUP4 DUP2 LT ISZERO PUSH2 0x1934 JUMPI DUP1 DUP3 ADD MLOAD DUP2 DUP5 ADD MSTORE PUSH1 0x20 DUP2 ADD SWAP1 POP PUSH2 0x1919 JUMP JUMPDEST PUSH1 0x0 DUP5 DUP5 ADD MSTORE POP POP POP POP JUMP JUMPDEST PUSH1 0x0 PUSH1 0x1F NOT PUSH1 0x1F DUP4 ADD AND SWAP1 POP SWAP2 SWAP1 POP JUMP JUMPDEST PUSH1 0x0 PUSH2 0x195C DUP3 PUSH2 0x18FA JUMP JUMPDEST PUSH2 0x1966 DUP2 DUP6 PUSH2 0x1905 JUMP JUMPDEST SWAP4 POP PUSH2 0x1976 DUP2 DUP6 PUSH1 0x20 DUP7 ADD PUSH2 0x1916 JUMP JUMPDEST PUSH2 0x197F DUP2 PUSH2 0x1940 JUMP JUMPDEST DUP5 ADD SWAP2 POP POP SWAP3 SWAP2 POP POP JUMP JUMPDEST PUSH2 0x1993 DUP2 PUSH2 0x153B JUMP JUMPDEST DUP3 MSTORE POP POP JUMP JUMPDEST PUSH1 0x0 PUSH1 0xA0 DUP4 ADD PUSH1 0x0 DUP4 ADD MLOAD PUSH2 0x19B1 PUSH1 0x0 DUP7 ADD DUP3 PUSH2 0x18DC JUMP JUMPDEST POP PUSH1 0x20 DUP4 ADD MLOAD PUSH2 0x19C4 PUSH1 0x20 DUP7 ADD DUP3 PUSH2 0x18EB JUMP JUMPDEST POP PUSH1 0x40 DUP4 ADD MLOAD DUP5 DUP3 SUB PUSH1 0x40 DUP7 ADD MSTORE PUSH2 0x19DC DUP3 DUP3 PUSH2 0x1951 JUMP JUMPDEST SWAP2 POP POP PUSH1 0x60 DUP4 ADD MLOAD DUP5 DUP3 SUB PUSH1 0x60 DUP7 ADD MSTORE PUSH2 0x19F6 DUP3 DUP3 PUSH2 0x1951 JUMP JUMPDEST SWAP2 POP POP PUSH1 0x80 DUP4 ADD MLOAD PUSH2 0x1A0B PUSH1 0x80 DUP7 ADD DUP3 PUSH2 0x198A JUMP JUMPDEST POP DUP1 SWAP2 POP POP SWAP3 SWAP2 POP POP JUMP JUMPDEST PUSH1 0x0 PUSH1 0x40 DUP3 ADD SWAP1 POP DUP2 DUP2 SUB PUSH1 0x0 DUP4 ADD MSTORE PUSH2 0x1A30 DUP2 DUP6 PUSH2 0x1999 JUMP JUMPDEST SWAP1 POP PUSH2 0x1A3F PUSH1 0x20 DUP4 ADD DUP5 PUSH2 0x1571 JUMP JUMPDEST SWAP4 SWAP3 POP POP POP JUMP JUMPDEST PUSH1 0x0 DUP1 REVERT JUMPDEST PUSH32 0x4E487B7100000000000000000000000000000000000000000000000000000000 PUSH1 0x0 MSTORE PUSH1 0x41 PUSH1 0x4 MSTORE PUSH1 0x24 PUSH1 0x0 REVERT JUMPDEST PUSH2 0x1A83 DUP3 PUSH2 0x1940 JUMP JUMPDEST DUP2 ADD DUP2 DUP2 LT PUSH8 0xFFFFFFFFFFFFFFFF DUP3 GT OR ISZERO PUSH2 0x1AA2 JUMPI PUSH2 0x1AA1 PUSH2 0x1A4B JUMP JUMPDEST JUMPDEST DUP1 PUSH1 0x40 MSTORE POP POP POP JUMP JUMPDEST PUSH1 0x0 PUSH2 0x1AB5 PUSH2 0x1153 JUMP JUMPDEST SWAP1 POP PUSH2 0x1AC1 DUP3 DUP3 PUSH2 0x1A7A JUMP JUMPDEST SWAP2 SWAP1 POP JUMP JUMPDEST PUSH1 0x0 DUP2 MLOAD SWAP1 POP PUSH2 0x1AD5 DUP2 PUSH2 0x15A5 JUMP JUMPDEST SWAP3 SWAP2 POP POP JUMP JUMPDEST PUSH1 0x0 PUSH1 0x40 DUP3 DUP5 SUB SLT ISZERO PUSH2 0x1AF1 JUMPI PUSH2 0x1AF0 PUSH2 0x1A46 JUMP JUMPDEST JUMPDEST PUSH2 0x1AFB PUSH1 0x40 PUSH2 0x1AAB JUMP JUMPDEST SWAP1 POP PUSH1 0x0 PUSH2 0x1B0B DUP5 DUP3 DUP6 ADD PUSH2 0x1AC6 JUMP JUMPDEST PUSH1 0x0 DUP4 ADD MSTORE POP PUSH1 0x20 PUSH2 0x1B1F DUP5 DUP3 DUP6 ADD PUSH2 0x1AC6 JUMP JUMPDEST PUSH1 0x20 DUP4 ADD MSTORE POP SWAP3 SWAP2 POP POP JUMP JUMPDEST PUSH1 0x0 PUSH1 0x40 DUP3 DUP5 SUB SLT ISZERO PUSH2 0x1B41 JUMPI PUSH2 0x1B40 PUSH2 0x115D JUMP JUMPDEST JUMPDEST PUSH1 0x0 PUSH2 0x1B4F DUP5 DUP3 DUP6 ADD PUSH2 0x1ADB JUMP JUMPDEST SWAP2 POP POP SWAP3 SWAP2 POP POP JUMP JUMPDEST PUSH1 0x0 DUP2 MLOAD SWAP1 POP PUSH2 0x1B67 DUP2 PUSH2 0x1195 JUMP JUMPDEST SWAP3 SWAP2 POP POP JUMP JUMPDEST PUSH2 0x1B76 DUP2 PUSH2 0x1340 JUMP JUMPDEST DUP2 EQ PUSH2 0x1B81 JUMPI PUSH1 0x0 DUP1 REVERT JUMPDEST POP JUMP JUMPDEST PUSH1 0x0 DUP2 MLOAD SWAP1 POP PUSH2 0x1B93 DUP2 PUSH2 0x1B6D JUMP JUMPDEST SWAP3 SWAP2 POP POP JUMP JUMPDEST PUSH1 0x0 PUSH1 0x80 DUP3 DUP5 SUB SLT ISZERO PUSH2 0x1BAF JUMPI PUSH2 0x1BAE PUSH2 0x1A46 JUMP JUMPDEST JUMPDEST PUSH2 0x1BB9 PUSH1 0x60 PUSH2 0x1AAB JUMP JUMPDEST SWAP1 POP PUSH1 0x0 PUSH2 0x1BC9 DUP5 DUP3 DUP6 ADD PUSH2 0x1B58 JUMP JUMPDEST PUSH1 0x0 DUP4 ADD MSTORE POP PUSH1 0x20 PUSH2 0x1BDD DUP5 DUP3 DUP6 ADD PUSH2 0x1B84 JUMP JUMPDEST PUSH1 0x20 DUP4 ADD MSTORE POP PUSH1 0x40 PUSH2 0x1BF1 DUP5 DUP3 DUP6 ADD PUSH2 0x1ADB JUMP JUMPDEST PUSH1 0x40 DUP4 ADD MSTORE POP SWAP3 SWAP2 POP POP JUMP JUMPDEST PUSH1 0x0 PUSH1 0x80 DUP3 DUP5 SUB SLT ISZERO PUSH2 0x1C13 JUMPI PUSH2 0x1C12 PUSH2 0x115D JUMP JUMPDEST JUMPDEST PUSH1 0x0 PUSH2 0x1C21 DUP5 DUP3 DUP6 ADD PUSH2 0x1B99 JUMP JUMPDEST SWAP2 POP POP SWAP3 SWAP2 POP POP JUMP JUMPDEST PUSH1 0x0 DUP2 MLOAD SWAP1 POP PUSH2 0x1C39 DUP2 PUSH2 0x1258 JUMP JUMPDEST SWAP3 SWAP2 POP POP JUMP JUMPDEST PUSH1 0x0 PUSH1 0x20 DUP3 DUP5 SUB SLT ISZERO PUSH2 0x1C55 JUMPI PUSH2 0x1C54 PUSH2 0x115D JUMP JUMPDEST JUMPDEST PUSH1 0x0 PUSH2 0x1C63 DUP5 DUP3 DUP6 ADD PUSH2 0x1C2A JUMP JUMPDEST SWAP2 POP POP SWAP3 SWAP2 POP POP JUMP JUMPDEST PUSH1 0x0 PUSH1 0x60 DUP3 ADD SWAP1 POP PUSH2 0x1C81 PUSH1 0x0 DUP4 ADD DUP7 PUSH2 0x1571 JUMP JUMPDEST PUSH2 0x1C8E PUSH1 0x20 DUP4 ADD DUP6 PUSH2 0x1571 JUMP JUMPDEST PUSH2 0x1C9B PUSH1 0x40 DUP4 ADD DUP5 PUSH2 0x15FE JUMP JUMPDEST SWAP5 SWAP4 POP POP POP POP JUMP INVALID LOG2 PUSH5 0x6970667358 0x22 SLT KECCAK256 PUSH26 0x5A6A499E91B01645FDACB2E281CE237961B7A010CEC9DB41FD0C BLOBHASH 0xAB JUMPI DUP9 0xD4 PUSH5 0x736F6C6343 STOP ADDMOD SHR STOP CALLER "
				},
				"gasEstimates": {
					"creation": {
						"codeDepositCost": "1477000",
						"executionCost": "infinite",
						"totalCost": "infinite"
					},
					"external": {
						"OPTIMISM_EID()": "358",
						"allowInitializePath((uint32,bytes32,uint64))": "3121",
						"disputeFees(uint256)": "infinite",
						"endpoint()": "infinite",
						"getQuote(uint256,bytes)": "infinite",
						"isComposeMsgSender((uint32,bytes32,uint64),bytes,address)": "1045",
						"lzReceive((uint32,bytes32,uint64),bytes32,bytes,address,bytes)": "infinite",
						"nextNonce(uint32,bytes32)": "868",
						"oAppVersion()": "infinite",
						"owner()": "2567",
						"peers(uint32)": "2860",
						"raiseDispute(uint256,bytes)": "infinite",
						"renounceOwnership()": "infinite",
						"setDelegate(address)": "infinite",
						"setPeer(uint32,bytes32)": "infinite",
						"transferOwnership(address)": "infinite",
						"withdraw()": "infinite"
					},
					"internal": {
						"_lzReceive(struct Origin calldata,bytes32,bytes calldata,address,bytes calldata)": "23"
					}
				},
				"methodIdentifiers": {
					"OPTIMISM_EID()": "47258206",
					"allowInitializePath((uint32,bytes32,uint64))": "ff7bd03d",
					"disputeFees(uint256)": "a68f3709",
					"endpoint()": "5e280f11",
					"getQuote(uint256,bytes)": "f5599827",
					"isComposeMsgSender((uint32,bytes32,uint64),bytes,address)": "82413eac",
					"lzReceive((uint32,bytes32,uint64),bytes32,bytes,address,bytes)": "13137d65",
					"nextNonce(uint32,bytes32)": "7d25a05e",
					"oAppVersion()": "17442b70",
					"owner()": "8da5cb5b",
					"peers(uint32)": "bb0b6a53",
					"raiseDispute(uint256,bytes)": "d2705fd3",
					"renounceOwnership()": "715018a6",
					"setDelegate(address)": "ca5eb5e1",
					"setPeer(uint32,bytes32)": "3400288b",
					"transferOwnership(address)": "f2fde38b",
					"withdraw()": "3ccfd60b"
				}
			},
			"storageLayout": {
				"storage": [
					{
						"astId": 1327,
						"contract": "fee_storage_sender.sol:SimpleArbitrumDispute",
						"label": "_owner",
						"offset": 0,
						"slot": "0",
						"type": "t_address"
					},
					{
						"astId": 785,
						"contract": "fee_storage_sender.sol:SimpleArbitrumDispute",
						"label": "peers",
						"offset": 0,
						"slot": "1",
						"type": "t_mapping(t_uint32,t_bytes32)"
					},
					{
						"astId": 2149,
						"contract": "fee_storage_sender.sol:SimpleArbitrumDispute",
						"label": "disputeFees",
						"offset": 0,
						"slot": "2",
						"type": "t_mapping(t_uint256,t_uint256)"
					}
				],
				"types": {
					"t_address": {
						"encoding": "inplace",
						"label": "address",
						"numberOfBytes": "20"
					},
					"t_bytes32": {
						"encoding": "inplace",
						"label": "bytes32",
						"numberOfBytes": "32"
					},
					"t_mapping(t_uint256,t_uint256)": {
						"encoding": "mapping",
						"key": "t_uint256",
						"label": "mapping(uint256 => uint256)",
						"numberOfBytes": "32",
						"value": "t_uint256"
					},
					"t_mapping(t_uint32,t_bytes32)": {
						"encoding": "mapping",
						"key": "t_uint32",
						"label": "mapping(uint32 => bytes32)",
						"numberOfBytes": "32",
						"value": "t_bytes32"
					},
					"t_uint256": {
						"encoding": "inplace",
						"label": "uint256",
						"numberOfBytes": "32"
					},
					"t_uint32": {
						"encoding": "inplace",
						"label": "uint32",
						"numberOfBytes": "4"
					}
				}
			},
			"userdoc": {
				"kind": "user",
				"methods": {
					"allowInitializePath((uint32,bytes32,uint64))": {
						"notice": "Checks if the path initialization is allowed based on the provided origin."
					},
					"endpoint()": {
						"notice": "Retrieves the LayerZero endpoint associated with the OApp."
					},
					"isComposeMsgSender((uint32,bytes32,uint64),bytes,address)": {
						"notice": "Indicates whether an address is an approved composeMsg sender to the Endpoint."
					},
					"nextNonce(uint32,bytes32)": {
						"notice": "Retrieves the next nonce for a given source endpoint and sender address."
					},
					"oAppVersion()": {
						"notice": "Retrieves the OApp version information."
					},
					"peers(uint32)": {
						"notice": "Retrieves the peer (OApp) associated with a corresponding endpoint."
					},
					"setDelegate(address)": {
						"notice": "Sets the delegate address for the OApp."
					},
					"setPeer(uint32,bytes32)": {
						"notice": "Sets the peer address (OApp instance) for a corresponding endpoint."
					}
				},
				"version": 1
			}
		}
	}
}