{
	"AthenaClientContract_compact.sol": {
		"AthenaClientContract": {
			"abi": [
				{
					"inputs": [
						{
							"internalType": "address",
							"name": "_endpoint",
							"type": "address"
						},
						{
							"internalType": "address",
							"name": "_owner",
							"type": "address"
						},
						{
							"internalType": "address",
							"name": "_usdToken",
							"type": "address"
						},
						{
							"internalType": "uint32",
							"name": "_dstEid",
							"type": "uint32"
						}
					],
					"stateMutability": "nonpayable",
					"type": "constructor"
				},
				{
					"inputs": [],
					"name": "InvalidDelegate",
					"type": "error"
				},
				{
					"inputs": [],
					"name": "InvalidEndpointCall",
					"type": "error"
				},
				{
					"inputs": [],
					"name": "LzTokenUnavailable",
					"type": "error"
				},
				{
					"inputs": [
						{
							"internalType": "uint32",
							"name": "eid",
							"type": "uint32"
						}
					],
					"name": "NoPeer",
					"type": "error"
				},
				{
					"inputs": [
						{
							"internalType": "uint256",
							"name": "msgValue",
							"type": "uint256"
						}
					],
					"name": "NotEnoughNative",
					"type": "error"
				},
				{
					"inputs": [
						{
							"internalType": "address",
							"name": "addr",
							"type": "address"
						}
					],
					"name": "OnlyEndpoint",
					"type": "error"
				},
				{
					"inputs": [
						{
							"internalType": "uint32",
							"name": "eid",
							"type": "uint32"
						},
						{
							"internalType": "bytes32",
							"name": "sender",
							"type": "bytes32"
						}
					],
					"name": "OnlyPeer",
					"type": "error"
				},
				{
					"inputs": [
						{
							"internalType": "address",
							"name": "owner",
							"type": "address"
						}
					],
					"name": "OwnableInvalidOwner",
					"type": "error"
				},
				{
					"inputs": [
						{
							"internalType": "address",
							"name": "account",
							"type": "address"
						}
					],
					"name": "OwnableUnauthorizedAccount",
					"type": "error"
				},
				{
					"inputs": [
						{
							"internalType": "address",
							"name": "token",
							"type": "address"
						}
					],
					"name": "SafeERC20FailedOperation",
					"type": "error"
				},
				{
					"anonymous": false,
					"inputs": [
						{
							"indexed": true,
							"internalType": "uint32",
							"name": "dstEid",
							"type": "uint32"
						},
						{
							"indexed": true,
							"internalType": "address",
							"name": "user",
							"type": "address"
						},
						{
							"indexed": false,
							"internalType": "uint256",
							"name": "jobId",
							"type": "uint256"
						},
						{
							"indexed": false,
							"internalType": "string",
							"name": "reason",
							"type": "string"
						}
					],
					"name": "DisputeCreated",
					"type": "event"
				},
				{
					"anonymous": false,
					"inputs": [
						{
							"indexed": true,
							"internalType": "uint32",
							"name": "dstEid",
							"type": "uint32"
						},
						{
							"indexed": true,
							"internalType": "address",
							"name": "user",
							"type": "address"
						},
						{
							"indexed": false,
							"internalType": "uint256",
							"name": "jobId",
							"type": "uint256"
						},
						{
							"indexed": false,
							"internalType": "uint256",
							"name": "disputedAmount",
							"type": "uint256"
						},
						{
							"indexed": false,
							"internalType": "string",
							"name": "disputeHash",
							"type": "string"
						},
						{
							"indexed": false,
							"internalType": "string",
							"name": "oracleName",
							"type": "string"
						},
						{
							"indexed": false,
							"internalType": "uint256",
							"name": "usdtFee",
							"type": "uint256"
						}
					],
					"name": "DisputeRaised",
					"type": "event"
				},
				{
					"anonymous": false,
					"inputs": [
						{
							"indexed": true,
							"internalType": "uint32",
							"name": "dstEid",
							"type": "uint32"
						},
						{
							"indexed": true,
							"internalType": "address",
							"name": "user",
							"type": "address"
						},
						{
							"indexed": false,
							"internalType": "uint256",
							"name": "disputeId",
							"type": "uint256"
						}
					],
					"name": "DisputedAmountClaimed",
					"type": "event"
				},
				{
					"anonymous": false,
					"inputs": [
						{
							"indexed": true,
							"internalType": "address",
							"name": "to",
							"type": "address"
						},
						{
							"indexed": false,
							"internalType": "uint256",
							"name": "amount",
							"type": "uint256"
						}
					],
					"name": "FeesWithdrawn",
					"type": "event"
				},
				{
					"anonymous": false,
					"inputs": [
						{
							"indexed": true,
							"internalType": "address",
							"name": "previousOwner",
							"type": "address"
						},
						{
							"indexed": true,
							"internalType": "address",
							"name": "newOwner",
							"type": "address"
						}
					],
					"name": "OwnershipTransferred",
					"type": "event"
				},
				{
					"anonymous": false,
					"inputs": [
						{
							"indexed": false,
							"internalType": "uint32",
							"name": "eid",
							"type": "uint32"
						},
						{
							"indexed": false,
							"internalType": "bytes32",
							"name": "peer",
							"type": "bytes32"
						}
					],
					"name": "PeerSet",
					"type": "event"
				},
				{
					"anonymous": false,
					"inputs": [
						{
							"indexed": true,
							"internalType": "uint32",
							"name": "dstEid",
							"type": "uint32"
						},
						{
							"indexed": true,
							"internalType": "address",
							"name": "user",
							"type": "address"
						},
						{
							"indexed": false,
							"internalType": "string",
							"name": "question",
							"type": "string"
						},
						{
							"indexed": false,
							"internalType": "string",
							"name": "contextHash",
							"type": "string"
						},
						{
							"indexed": false,
							"internalType": "string",
							"name": "oracleName",
							"type": "string"
						},
						{
							"indexed": false,
							"internalType": "uint256",
							"name": "usdtFee",
							"type": "uint256"
						}
					],
					"name": "QuestionAsked",
					"type": "event"
				},
				{
					"anonymous": false,
					"inputs": [
						{
							"indexed": true,
							"internalType": "uint32",
							"name": "dstEid",
							"type": "uint32"
						},
						{
							"indexed": true,
							"internalType": "address",
							"name": "user",
							"type": "address"
						},
						{
							"indexed": false,
							"internalType": "string",
							"name": "skill",
							"type": "string"
						},
						{
							"indexed": false,
							"internalType": "string",
							"name": "proofHash",
							"type": "string"
						},
						{
							"indexed": false,
							"internalType": "uint256",
							"name": "usdtFee",
							"type": "uint256"
						}
					],
					"name": "SkillVerificationRequested",
					"type": "event"
				},
				{
					"inputs": [
						{
							"components": [
								{
									"internalType": "uint32",
									"name": "srcEid",
									"type": "uint32"
								},
								{
									"internalType": "bytes32",
									"name": "sender",
									"type": "bytes32"
								},
								{
									"internalType": "uint64",
									"name": "nonce",
									"type": "uint64"
								}
							],
							"internalType": "struct Origin",
							"name": "origin",
							"type": "tuple"
						}
					],
					"name": "allowInitializePath",
					"outputs": [
						{
							"internalType": "bool",
							"name": "",
							"type": "bool"
						}
					],
					"stateMutability": "view",
					"type": "function"
				},
				{
					"inputs": [
						{
							"internalType": "string",
							"name": "question",
							"type": "string"
						},
						{
							"internalType": "string",
							"name": "contextHash",
							"type": "string"
						},
						{
							"internalType": "string",
							"name": "oracleName",
							"type": "string"
						},
						{
							"internalType": "uint256",
							"name": "usdtFee",
							"type": "uint256"
						},
						{
							"internalType": "bytes",
							"name": "_options",
							"type": "bytes"
						}
					],
					"name": "askAthena",
					"outputs": [],
					"stateMutability": "payable",
					"type": "function"
				},
				{
					"inputs": [
						{
							"internalType": "uint256",
							"name": "disputeId",
							"type": "uint256"
						},
						{
							"internalType": "bytes",
							"name": "_options",
							"type": "bytes"
						}
					],
					"name": "claimDisputedAmount",
					"outputs": [],
					"stateMutability": "payable",
					"type": "function"
				},
				{
					"inputs": [],
					"name": "dstEid",
					"outputs": [
						{
							"internalType": "uint32",
							"name": "",
							"type": "uint32"
						}
					],
					"stateMutability": "view",
					"type": "function"
				},
				{
					"inputs": [],
					"name": "endpoint",
					"outputs": [
						{
							"internalType": "contract ILayerZeroEndpointV2",
							"name": "",
							"type": "address"
						}
					],
					"stateMutability": "view",
					"type": "function"
				},
				{
					"inputs": [
						{
							"components": [
								{
									"internalType": "uint32",
									"name": "srcEid",
									"type": "uint32"
								},
								{
									"internalType": "bytes32",
									"name": "sender",
									"type": "bytes32"
								},
								{
									"internalType": "uint64",
									"name": "nonce",
									"type": "uint64"
								}
							],
							"internalType": "struct Origin",
							"name": "",
							"type": "tuple"
						},
						{
							"internalType": "bytes",
							"name": "",
							"type": "bytes"
						},
						{
							"internalType": "address",
							"name": "_sender",
							"type": "address"
						}
					],
					"name": "isComposeMsgSender",
					"outputs": [
						{
							"internalType": "bool",
							"name": "",
							"type": "bool"
						}
					],
					"stateMutability": "view",
					"type": "function"
				},
				{
					"inputs": [
						{
							"components": [
								{
									"internalType": "uint32",
									"name": "srcEid",
									"type": "uint32"
								},
								{
									"internalType": "bytes32",
									"name": "sender",
									"type": "bytes32"
								},
								{
									"internalType": "uint64",
									"name": "nonce",
									"type": "uint64"
								}
							],
							"internalType": "struct Origin",
							"name": "_origin",
							"type": "tuple"
						},
						{
							"internalType": "bytes32",
							"name": "_guid",
							"type": "bytes32"
						},
						{
							"internalType": "bytes",
							"name": "_message",
							"type": "bytes"
						},
						{
							"internalType": "address",
							"name": "_executor",
							"type": "address"
						},
						{
							"internalType": "bytes",
							"name": "_extraData",
							"type": "bytes"
						}
					],
					"name": "lzReceive",
					"outputs": [],
					"stateMutability": "payable",
					"type": "function"
				},
				{
					"inputs": [
						{
							"internalType": "uint32",
							"name": "",
							"type": "uint32"
						},
						{
							"internalType": "bytes32",
							"name": "",
							"type": "bytes32"
						}
					],
					"name": "nextNonce",
					"outputs": [
						{
							"internalType": "uint64",
							"name": "nonce",
							"type": "uint64"
						}
					],
					"stateMutability": "view",
					"type": "function"
				},
				{
					"inputs": [],
					"name": "oAppVersion",
					"outputs": [
						{
							"internalType": "uint64",
							"name": "senderVersion",
							"type": "uint64"
						},
						{
							"internalType": "uint64",
							"name": "receiverVersion",
							"type": "uint64"
						}
					],
					"stateMutability": "pure",
					"type": "function"
				},
				{
					"inputs": [],
					"name": "owner",
					"outputs": [
						{
							"internalType": "address",
							"name": "",
							"type": "address"
						}
					],
					"stateMutability": "view",
					"type": "function"
				},
				{
					"inputs": [
						{
							"internalType": "uint32",
							"name": "eid",
							"type": "uint32"
						}
					],
					"name": "peers",
					"outputs": [
						{
							"internalType": "bytes32",
							"name": "peer",
							"type": "bytes32"
						}
					],
					"stateMutability": "view",
					"type": "function"
				},
				{
					"inputs": [
						{
							"internalType": "string",
							"name": "question",
							"type": "string"
						},
						{
							"internalType": "string",
							"name": "contextHash",
							"type": "string"
						},
						{
							"internalType": "string",
							"name": "oracleName",
							"type": "string"
						},
						{
							"internalType": "uint256",
							"name": "usdtFee",
							"type": "uint256"
						},
						{
							"internalType": "bytes",
							"name": "_options",
							"type": "bytes"
						}
					],
					"name": "quoteAskAthena",
					"outputs": [
						{
							"components": [
								{
									"internalType": "uint256",
									"name": "nativeFee",
									"type": "uint256"
								},
								{
									"internalType": "uint256",
									"name": "lzTokenFee",
									"type": "uint256"
								}
							],
							"internalType": "struct MessagingFee",
							"name": "",
							"type": "tuple"
						}
					],
					"stateMutability": "view",
					"type": "function"
				},
				{
					"inputs": [
						{
							"internalType": "uint256",
							"name": "disputeId",
							"type": "uint256"
						},
						{
							"internalType": "bytes",
							"name": "_options",
							"type": "bytes"
						}
					],
					"name": "quoteClaimDisputedAmount",
					"outputs": [
						{
							"components": [
								{
									"internalType": "uint256",
									"name": "nativeFee",
									"type": "uint256"
								},
								{
									"internalType": "uint256",
									"name": "lzTokenFee",
									"type": "uint256"
								}
							],
							"internalType": "struct MessagingFee",
							"name": "",
							"type": "tuple"
						}
					],
					"stateMutability": "view",
					"type": "function"
				},
				{
					"inputs": [
						{
							"internalType": "uint256",
							"name": "jobId",
							"type": "uint256"
						},
						{
							"internalType": "string",
							"name": "reason",
							"type": "string"
						},
						{
							"internalType": "bytes",
							"name": "_options",
							"type": "bytes"
						}
					],
					"name": "quoteCreateDispute",
					"outputs": [
						{
							"components": [
								{
									"internalType": "uint256",
									"name": "nativeFee",
									"type": "uint256"
								},
								{
									"internalType": "uint256",
									"name": "lzTokenFee",
									"type": "uint256"
								}
							],
							"internalType": "struct MessagingFee",
							"name": "",
							"type": "tuple"
						}
					],
					"stateMutability": "view",
					"type": "function"
				},
				{
					"inputs": [
						{
							"internalType": "uint256",
							"name": "jobId",
							"type": "uint256"
						},
						{
							"internalType": "uint256",
							"name": "disputedAmount",
							"type": "uint256"
						},
						{
							"internalType": "string",
							"name": "disputeHash",
							"type": "string"
						},
						{
							"internalType": "string",
							"name": "oracleName",
							"type": "string"
						},
						{
							"internalType": "uint256",
							"name": "usdtFee",
							"type": "uint256"
						},
						{
							"internalType": "bytes",
							"name": "_options",
							"type": "bytes"
						}
					],
					"name": "quoteRaiseDispute",
					"outputs": [
						{
							"components": [
								{
									"internalType": "uint256",
									"name": "nativeFee",
									"type": "uint256"
								},
								{
									"internalType": "uint256",
									"name": "lzTokenFee",
									"type": "uint256"
								}
							],
							"internalType": "struct MessagingFee",
							"name": "",
							"type": "tuple"
						}
					],
					"stateMutability": "view",
					"type": "function"
				},
				{
					"inputs": [
						{
							"internalType": "string",
							"name": "skill",
							"type": "string"
						},
						{
							"internalType": "string",
							"name": "proofHash",
							"type": "string"
						},
						{
							"internalType": "uint256",
							"name": "usdtFee",
							"type": "uint256"
						},
						{
							"internalType": "bytes",
							"name": "_options",
							"type": "bytes"
						}
					],
					"name": "quoteRequestSkillVerification",
					"outputs": [
						{
							"components": [
								{
									"internalType": "uint256",
									"name": "nativeFee",
									"type": "uint256"
								},
								{
									"internalType": "uint256",
									"name": "lzTokenFee",
									"type": "uint256"
								}
							],
							"internalType": "struct MessagingFee",
							"name": "",
							"type": "tuple"
						}
					],
					"stateMutability": "view",
					"type": "function"
				},
				{
					"inputs": [
						{
							"internalType": "uint256",
							"name": "jobId",
							"type": "uint256"
						},
						{
							"internalType": "uint256",
							"name": "disputedAmount",
							"type": "uint256"
						},
						{
							"internalType": "string",
							"name": "disputeHash",
							"type": "string"
						},
						{
							"internalType": "string",
							"name": "oracleName",
							"type": "string"
						},
						{
							"internalType": "uint256",
							"name": "usdtFee",
							"type": "uint256"
						},
						{
							"internalType": "bytes",
							"name": "_options",
							"type": "bytes"
						}
					],
					"name": "raiseDispute",
					"outputs": [],
					"stateMutability": "payable",
					"type": "function"
				},
				{
					"inputs": [],
					"name": "renounceOwnership",
					"outputs": [],
					"stateMutability": "nonpayable",
					"type": "function"
				},
				{
					"inputs": [
						{
							"internalType": "string",
							"name": "skill",
							"type": "string"
						},
						{
							"internalType": "string",
							"name": "proofHash",
							"type": "string"
						},
						{
							"internalType": "uint256",
							"name": "usdtFee",
							"type": "uint256"
						},
						{
							"internalType": "bytes",
							"name": "_options",
							"type": "bytes"
						}
					],
					"name": "requestSkillVerification",
					"outputs": [],
					"stateMutability": "payable",
					"type": "function"
				},
				{
					"inputs": [
						{
							"internalType": "address",
							"name": "_delegate",
							"type": "address"
						}
					],
					"name": "setDelegate",
					"outputs": [],
					"stateMutability": "nonpayable",
					"type": "function"
				},
				{
					"inputs": [
						{
							"internalType": "uint32",
							"name": "_dstEid",
							"type": "uint32"
						}
					],
					"name": "setDstEid",
					"outputs": [],
					"stateMutability": "nonpayable",
					"type": "function"
				},
				{
					"inputs": [
						{
							"internalType": "uint32",
							"name": "_eid",
							"type": "uint32"
						},
						{
							"internalType": "bytes32",
							"name": "_peer",
							"type": "bytes32"
						}
					],
					"name": "setPeer",
					"outputs": [],
					"stateMutability": "nonpayable",
					"type": "function"
				},
				{
					"inputs": [
						{
							"internalType": "address",
							"name": "newOwner",
							"type": "address"
						}
					],
					"name": "transferOwnership",
					"outputs": [],
					"stateMutability": "nonpayable",
					"type": "function"
				},
				{
					"inputs": [],
					"name": "usdToken",
					"outputs": [
						{
							"internalType": "contract IERC20",
							"name": "",
							"type": "address"
						}
					],
					"stateMutability": "view",
					"type": "function"
				},
				{
					"inputs": [
						{
							"internalType": "address",
							"name": "to",
							"type": "address"
						},
						{
							"internalType": "uint256",
							"name": "amount",
							"type": "uint256"
						}
					],
					"name": "withdrawFees",
					"outputs": [],
					"stateMutability": "nonpayable",
					"type": "function"
				},
				{
					"stateMutability": "payable",
					"type": "receive"
				}
			],
			"devdoc": {
				"details": "LayerZero V2 OApp for interacting with the Athena dispute resolution service",
				"errors": {
					"OwnableInvalidOwner(address)": [
						{
							"details": "The owner is not a valid owner account. (eg. `address(0)`)"
						}
					],
					"OwnableUnauthorizedAccount(address)": [
						{
							"details": "The caller account is not authorized to perform an operation."
						}
					],
					"SafeERC20FailedOperation(address)": [
						{
							"details": "An operation with an ERC-20 token failed."
						}
					]
				},
				"kind": "dev",
				"methods": {
					"allowInitializePath((uint32,bytes32,uint64))": {
						"details": "This indicates to the endpoint that the OApp has enabled msgs for this particular path to be received.This defaults to assuming if a peer has been set, its initialized. Can be overridden by the OApp if there is other logic to determine this.",
						"params": {
							"origin": "The origin information containing the source endpoint and sender address."
						},
						"returns": {
							"_0": "Whether the path has been initialized."
						}
					},
					"askAthena(string,string,string,uint256,bytes)": {
						"details": "Ask a question to Athena",
						"params": {
							"_options": "LayerZero options",
							"contextHash": "Hash of additional context for the question",
							"oracleName": "Name of the oracle to use",
							"question": "The question to ask",
							"usdtFee": "Amount of USDT caller wants to deposit"
						}
					},
					"claimDisputedAmount(uint256,bytes)": {
						"details": "Claim disputed amount from a resolved dispute",
						"params": {
							"_options": "LayerZero options",
							"disputeId": "The ID of the dispute"
						}
					},
					"isComposeMsgSender((uint32,bytes32,uint64),bytes,address)": {
						"details": "_origin The origin information containing the source endpoint and sender address.  - srcEid: The source chain endpoint ID.  - sender: The sender address on the src chain.  - nonce: The nonce of the message._message The lzReceive payload.Applications can optionally choose to implement separate composeMsg senders that are NOT the bridging layer.The default sender IS the OAppReceiver implementer.",
						"params": {
							"_sender": "The sender address."
						},
						"returns": {
							"_0": "isSender Is a valid sender."
						}
					},
					"lzReceive((uint32,bytes32,uint64),bytes32,bytes,address,bytes)": {
						"details": "Entry point for receiving messages or packets from the endpoint.Entry point for receiving msg/packet from the LayerZero endpoint.",
						"params": {
							"_executor": "The address of the executor for the received message.",
							"_extraData": "Additional arbitrary data provided by the corresponding executor.",
							"_guid": "The unique identifier for the received LayerZero message.",
							"_message": "The payload of the received message.",
							"_origin": "The origin information containing the source endpoint and sender address.  - srcEid: The source chain endpoint ID.  - sender: The sender address on the src chain.  - nonce: The nonce of the message."
						}
					},
					"nextNonce(uint32,bytes32)": {
						"details": "_srcEid The source endpoint ID._sender The sender address.The path nonce starts from 1. If 0 is returned it means that there is NO nonce ordered enforcement.Is required by the off-chain executor to determine the OApp expects msg execution is ordered.This is also enforced by the OApp.By default this is NOT enabled. ie. nextNonce is hardcoded to return 0.",
						"returns": {
							"nonce": "The next nonce."
						}
					},
					"oAppVersion()": {
						"returns": {
							"receiverVersion": "The version of the OAppReceiver.sol implementation.",
							"senderVersion": "The version of the OAppSender.sol implementation."
						}
					},
					"owner()": {
						"details": "Returns the address of the current owner."
					},
					"raiseDispute(uint256,uint256,string,string,uint256,bytes)": {
						"details": "Raise a dispute",
						"params": {
							"_options": "LayerZero options",
							"disputeHash": "Hash of the dispute details",
							"disputedAmount": "The amount being disputed (for tracking purposes)",
							"jobId": "The ID of the job",
							"oracleName": "Name of the oracle to use",
							"usdtFee": "Amount of USDT caller wants to deposit"
						}
					},
					"renounceOwnership()": {
						"details": "Leaves the contract without owner. It will not be possible to call `onlyOwner` functions. Can only be called by the current owner. NOTE: Renouncing ownership will leave the contract without an owner, thereby disabling any functionality that is only available to the owner."
					},
					"requestSkillVerification(string,string,uint256,bytes)": {
						"details": "Request skill verification",
						"params": {
							"_options": "LayerZero options",
							"proofHash": "Hash of the proof",
							"skill": "The skill to verify",
							"usdtFee": "Amount of USDT caller wants to deposit"
						}
					},
					"setDelegate(address)": {
						"details": "Only the owner/admin of the OApp can call this function.Provides the ability for a delegate to set configs, on behalf of the OApp, directly on the Endpoint contract.",
						"params": {
							"_delegate": "The address of the delegate to be set."
						}
					},
					"setPeer(uint32,bytes32)": {
						"details": "Only the owner/admin of the OApp can call this function.Indicates that the peer is trusted to send LayerZero messages to this OApp.Set this to bytes32(0) to remove the peer address.Peer is a bytes32 to accommodate non-evm chains.",
						"params": {
							"_eid": "The endpoint ID.",
							"_peer": "The address of the peer to be associated with the corresponding endpoint."
						}
					},
					"transferOwnership(address)": {
						"details": "Transfers ownership of the contract to a new account (`newOwner`). Can only be called by the current owner."
					}
				},
				"title": "AthenaClientContract",
				"version": 1
			},
			"evm": {
				"assembly": "    /* \"AthenaClientContract_compact.sol\":483:12989  contract AthenaClientContract is OApp, ReentrancyGuard {... */\n  mstore(0x40, 0xc0)\n    /* \"AthenaClientContract_compact.sol\":2375:2606  constructor(... */\n  callvalue\n  dup1\n  iszero\n  tag_1\n  jumpi\n  0x00\n  dup1\n  revert\ntag_1:\n  pop\n  mload(0x40)\n  sub(codesize, bytecodeSize)\n  dup1\n  bytecodeSize\n  dup4\n  codecopy\n  dup2\n  add\n  0x40\n  dup2\n  swap1\n  mstore\n  tag_2\n  swap2\n  tag_3\n  jump\t// in\ntag_2:\n    /* \"AthenaClientContract_compact.sol\":2500:2509  _endpoint */\n  dup4\n    /* \"AthenaClientContract_compact.sol\":2511:2517  _owner */\n  dup4\n    /* \"AthenaClientContract_compact.sol\":2500:2509  _endpoint */\n  dup2\n    /* \"AthenaClientContract_compact.sol\":2511:2517  _owner */\n  dup2\n  dup1\n  sub(shl(0xa0, 0x01), 0x01)\n    /* \"@openzeppelin/contracts/access/Ownable.sol\":1273:1299  initialOwner == address(0) */\n  dup2\n  and\n    /* \"@openzeppelin/contracts/access/Ownable.sol\":1269:1364  if (initialOwner == address(0)) {... */\n  tag_10\n  jumpi\n    /* \"@openzeppelin/contracts/access/Ownable.sol\":1322:1353  OwnableInvalidOwner(address(0)) */\n  mload(0x40)\n  shl(0xe0, 0x1e4fbdf7)\n  dup2\n  mstore\n    /* \"@openzeppelin/contracts/access/Ownable.sol\":1350:1351  0 */\n  0x00\n    /* \"@openzeppelin/contracts/access/Ownable.sol\":1322:1353  OwnableInvalidOwner(address(0)) */\n  0x04\n  dup3\n  add\n    /* \"#utility.yul\":883:934   */\n  mstore\n    /* \"#utility.yul\":856:874   */\n  0x24\n  add\n    /* \"@openzeppelin/contracts/access/Ownable.sol\":1322:1353  OwnableInvalidOwner(address(0)) */\n  mload(0x40)\n  dup1\n  swap2\n  sub\n  swap1\n  revert\n    /* \"@openzeppelin/contracts/access/Ownable.sol\":1269:1364  if (initialOwner == address(0)) {... */\ntag_10:\n    /* \"@openzeppelin/contracts/access/Ownable.sol\":1373:1405  _transferOwnership(initialOwner) */\n  tag_13\n    /* \"@openzeppelin/contracts/access/Ownable.sol\":1392:1404  initialOwner */\n  dup2\n    /* \"@openzeppelin/contracts/access/Ownable.sol\":1373:1391  _transferOwnership */\n  tag_14\n    /* \"@openzeppelin/contracts/access/Ownable.sol\":1373:1405  _transferOwnership(initialOwner) */\n  jump\t// in\ntag_13:\n  pop\n  sub(shl(0xa0, 0x01), 0x01)\n    /* \"@layerzerolabs/oapp-evm/contracts/oapp/OAppCore.sol\":1047:1089  endpoint = ILayerZeroEndpointV2(_endpoint) */\n  dup1\n  dup4\n  and\n  0x80\n  mstore\n    /* \"@layerzerolabs/oapp-evm/contracts/oapp/OAppCore.sol\":1104:1127  _delegate == address(0) */\n  dup2\n  and\n    /* \"@layerzerolabs/oapp-evm/contracts/oapp/OAppCore.sol\":1100:1153  if (_delegate == address(0)) revert InvalidDelegate() */\n  tag_16\n  jumpi\n    /* \"@layerzerolabs/oapp-evm/contracts/oapp/OAppCore.sol\":1136:1153  InvalidDelegate() */\n  mload(0x40)\n  shl(0xe2, 0x2d618d81)\n  dup2\n  mstore\n  0x04\n  add\n  mload(0x40)\n  dup1\n  swap2\n  sub\n  swap1\n  revert\n    /* \"@layerzerolabs/oapp-evm/contracts/oapp/OAppCore.sol\":1100:1153  if (_delegate == address(0)) revert InvalidDelegate() */\ntag_16:\n    /* \"@layerzerolabs/oapp-evm/contracts/oapp/OAppCore.sol\":1163:1171  endpoint */\n  mload(0x80)\n    /* \"@layerzerolabs/oapp-evm/contracts/oapp/OAppCore.sol\":1163:1194  endpoint.setDelegate(_delegate) */\n  mload(0x40)\n  shl(0xe0, 0xca5eb5e1)\n  dup2\n  mstore\n  sub(shl(0xa0, 0x01), 0x01)\n    /* \"#utility.yul\":901:933   */\n  dup4\n  dup2\n  and\n    /* \"@layerzerolabs/oapp-evm/contracts/oapp/OAppCore.sol\":1163:1194  endpoint.setDelegate(_delegate) */\n  0x04\n  dup4\n  add\n    /* \"#utility.yul\":883:934   */\n  mstore\n    /* \"@layerzerolabs/oapp-evm/contracts/oapp/OAppCore.sol\":1163:1183  endpoint.setDelegate */\n  swap1\n  swap2\n  and\n  swap1\n  0xca5eb5e1\n  swap1\n    /* \"#utility.yul\":856:874   */\n  0x24\n  add\n    /* \"@layerzerolabs/oapp-evm/contracts/oapp/OAppCore.sol\":1163:1194  endpoint.setDelegate(_delegate) */\n  0x00\n  mload(0x40)\n  dup1\n  dup4\n  sub\n  dup2\n  0x00\n  dup8\n  dup1\n  extcodesize\n  iszero\n  dup1\n  iszero\n  tag_18\n  jumpi\n  0x00\n  dup1\n  revert\ntag_18:\n  pop\n  gas\n  call\n  iszero\n  dup1\n  iszero\n  tag_20\n  jumpi\n  returndatasize\n  0x00\n  dup1\n  returndatacopy\n  revert(0x00, returndatasize)\ntag_20:\n  pop\n  pop\n    /* \"@openzeppelin/contracts/security/ReentrancyGuard.sol\":1716:1717  1 */\n  0x01\n    /* \"@openzeppelin/contracts/security/ReentrancyGuard.sol\":1821:1828  _status */\n  0x02\n    /* \"@openzeppelin/contracts/security/ReentrancyGuard.sol\":1821:1843  _status = _NOT_ENTERED */\n  sstore\n  pop\n  pop\n  pop\n  sub(shl(0xa0, 0x01), 0x01)\n    /* \"AthenaClientContract_compact.sol\":2545:2573  usdToken = IERC20(_usdToken) */\n  swap1\n  swap5\n  and\n  0xa0\n  mstore\n  pop\n  pop\n    /* \"AthenaClientContract_compact.sol\":2583:2589  dstEid */\n  0x03\n    /* \"AthenaClientContract_compact.sol\":2583:2599  dstEid = _dstEid */\n  dup1\n  sload\n  0xffffffff\n  swap1\n  swap3\n  and\n  not(0xffffffff)\n  swap1\n  swap3\n  and\n  swap2\n  swap1\n  swap2\n  or\n  swap1\n  sstore\n  pop\n    /* \"AthenaClientContract_compact.sol\":483:12989  contract AthenaClientContract is OApp, ReentrancyGuard {... */\n  tag_27\n  swap2\n  pop\n  pop\n  jump\n    /* \"@openzeppelin/contracts/access/Ownable.sol\":2912:3099  function _transferOwnership(address newOwner) internal virtual {... */\ntag_14:\n    /* \"@openzeppelin/contracts/access/Ownable.sol\":2985:3001  address oldOwner */\n  0x00\n    /* \"@openzeppelin/contracts/access/Ownable.sol\":3004:3010  _owner */\n  dup1\n  sload\n  sub(shl(0xa0, 0x01), 0x01)\n    /* \"@openzeppelin/contracts/access/Ownable.sol\":3020:3037  _owner = newOwner */\n  dup4\n  dup2\n  and\n  not(sub(shl(0xa0, 0x01), 0x01))\n  dup4\n  and\n  dup2\n  or\n  dup5\n  sstore\n    /* \"@openzeppelin/contracts/access/Ownable.sol\":3052:3092  OwnershipTransferred(oldOwner, newOwner) */\n  mload(0x40)\n    /* \"@openzeppelin/contracts/access/Ownable.sol\":3004:3010  _owner */\n  swap2\n  swap1\n  swap3\n  and\n  swap3\n  dup4\n  swap2\n    /* \"@openzeppelin/contracts/access/Ownable.sol\":3052:3092  OwnershipTransferred(oldOwner, newOwner) */\n  0x8be0079c531659141344cd1fd0a4f28419497f9722a3daafe3b4186f6b6457e0\n  swap2\n    /* \"@openzeppelin/contracts/access/Ownable.sol\":2985:3001  address oldOwner */\n  swap1\n    /* \"@openzeppelin/contracts/access/Ownable.sol\":3052:3092  OwnershipTransferred(oldOwner, newOwner) */\n  log3\n    /* \"@openzeppelin/contracts/access/Ownable.sol\":2975:3099  {... */\n  pop\n    /* \"@openzeppelin/contracts/access/Ownable.sol\":2912:3099  function _transferOwnership(address newOwner) internal virtual {... */\n  pop\n  jump\t// out\n    /* \"#utility.yul\":14:191   */\ntag_26:\n    /* \"#utility.yul\":93:106   */\n  dup1\n  mload\n  sub(shl(0xa0, 0x01), 0x01)\n    /* \"#utility.yul\":135:166   */\n  dup2\n  and\n    /* \"#utility.yul\":125:167   */\n  dup2\n  eq\n    /* \"#utility.yul\":115:185   */\n  tag_29\n  jumpi\n    /* \"#utility.yul\":181:182   */\n  0x00\n    /* \"#utility.yul\":178:179   */\n  dup1\n    /* \"#utility.yul\":171:183   */\n  revert\n    /* \"#utility.yul\":115:185   */\ntag_29:\n    /* \"#utility.yul\":14:191   */\n  swap2\n  swap1\n  pop\n  jump\t// out\n    /* \"#utility.yul\":196:732   */\ntag_3:\n    /* \"#utility.yul\":292:298   */\n  0x00\n    /* \"#utility.yul\":300:306   */\n  dup1\n    /* \"#utility.yul\":308:314   */\n  0x00\n    /* \"#utility.yul\":316:322   */\n  dup1\n    /* \"#utility.yul\":369:372   */\n  0x80\n    /* \"#utility.yul\":357:366   */\n  dup6\n    /* \"#utility.yul\":348:355   */\n  dup8\n    /* \"#utility.yul\":344:367   */\n  sub\n    /* \"#utility.yul\":340:373   */\n  slt\n    /* \"#utility.yul\":337:390   */\n  iszero\n  tag_31\n  jumpi\n    /* \"#utility.yul\":386:387   */\n  0x00\n    /* \"#utility.yul\":383:384   */\n  dup1\n    /* \"#utility.yul\":376:388   */\n  revert\n    /* \"#utility.yul\":337:390   */\ntag_31:\n    /* \"#utility.yul\":409:449   */\n  tag_32\n    /* \"#utility.yul\":439:448   */\n  dup6\n    /* \"#utility.yul\":409:449   */\n  tag_26\n  jump\t// in\ntag_32:\n    /* \"#utility.yul\":399:449   */\n  swap4\n  pop\n    /* \"#utility.yul\":468:517   */\n  tag_33\n    /* \"#utility.yul\":513:515   */\n  0x20\n    /* \"#utility.yul\":502:511   */\n  dup7\n    /* \"#utility.yul\":498:516   */\n  add\n    /* \"#utility.yul\":468:517   */\n  tag_26\n  jump\t// in\ntag_33:\n    /* \"#utility.yul\":458:517   */\n  swap3\n  pop\n    /* \"#utility.yul\":536:585   */\n  tag_34\n    /* \"#utility.yul\":581:583   */\n  0x40\n    /* \"#utility.yul\":570:579   */\n  dup7\n    /* \"#utility.yul\":566:584   */\n  add\n    /* \"#utility.yul\":536:585   */\n  tag_26\n  jump\t// in\ntag_34:\n    /* \"#utility.yul\":526:585   */\n  swap2\n  pop\n    /* \"#utility.yul\":628:630   */\n  0x60\n    /* \"#utility.yul\":617:626   */\n  dup6\n    /* \"#utility.yul\":613:631   */\n  add\n    /* \"#utility.yul\":607:632   */\n  mload\n    /* \"#utility.yul\":672:682   */\n  0xffffffff\n    /* \"#utility.yul\":665:670   */\n  dup2\n    /* \"#utility.yul\":661:683   */\n  and\n    /* \"#utility.yul\":654:659   */\n  dup2\n    /* \"#utility.yul\":651:684   */\n  eq\n    /* \"#utility.yul\":641:702   */\n  tag_35\n  jumpi\n    /* \"#utility.yul\":698:699   */\n  0x00\n    /* \"#utility.yul\":695:696   */\n  dup1\n    /* \"#utility.yul\":688:700   */\n  revert\n    /* \"#utility.yul\":641:702   */\ntag_35:\n    /* \"#utility.yul\":196:732   */\n  swap4\n  swap7\n  swap3\n  swap6\n  pop\n  swap1\n  swap4\n  pop\n  pop\n  jump\t// out\n    /* \"#utility.yul\":737:940   */\ntag_27:\n    /* \"AthenaClientContract_compact.sol\":483:12989  contract AthenaClientContract is OApp, ReentrancyGuard {... */\n  mload(0x80)\n  mload(0xa0)\n  codecopy(0x00, dataOffset(sub_0), dataSize(sub_0))\n  0x00\n  assignImmutable(\"0x551ebb3edb72774934e005837770de585c3863f1eef743adee80bd22fdce145f\")\n  0x00\n  assignImmutable(\"0xef80077fd7ee005d1b0377e3e959eb59d0ca83c4839422f862a3540a66a91fb5\")\n  return(0x00, dataSize(sub_0))\nstop\n\nsub_0: assembly {\n        /* \"AthenaClientContract_compact.sol\":483:12989  contract AthenaClientContract is OApp, ReentrancyGuard {... */\n      mstore(0x40, 0x80)\n      jumpi(tag_1, lt(calldatasize, 0x04))\n      shr(0xe0, calldataload(0x00))\n      dup1\n      0x8b46e627\n      gt\n      tag_28\n      jumpi\n      dup1\n      0xbcd95793\n      gt\n      tag_29\n      jumpi\n      dup1\n      0xe8700687\n      gt\n      tag_30\n      jumpi\n      dup1\n      0xe8700687\n      eq\n      tag_24\n      jumpi\n      dup1\n      0xf2fde38b\n      eq\n      tag_25\n      jumpi\n      dup1\n      0xf897a22b\n      eq\n      tag_26\n      jumpi\n      dup1\n      0xff7bd03d\n      eq\n      tag_27\n      jumpi\n      0x00\n      dup1\n      revert\n    tag_30:\n      dup1\n      0xbcd95793\n      eq\n      tag_21\n      jumpi\n      dup1\n      0xca5eb5e1\n      eq\n      tag_22\n      jumpi\n      dup1\n      0xd6d3bb38\n      eq\n      tag_23\n      jumpi\n      0x00\n      dup1\n      revert\n    tag_29:\n      dup1\n      0x9209cb39\n      gt\n      tag_31\n      jumpi\n      dup1\n      0x9209cb39\n      eq\n      tag_18\n      jumpi\n      dup1\n      0xad3b1b47\n      eq\n      tag_19\n      jumpi\n      dup1\n      0xbb0b6a53\n      eq\n      tag_20\n      jumpi\n      0x00\n      dup1\n      revert\n    tag_31:\n      dup1\n      0x8b46e627\n      eq\n      tag_15\n      jumpi\n      dup1\n      0x8da5cb5b\n      eq\n      tag_16\n      jumpi\n      dup1\n      0x8dd2067c\n      eq\n      tag_17\n      jumpi\n      0x00\n      dup1\n      revert\n    tag_28:\n      dup1\n      0x5e280f11\n      gt\n      tag_32\n      jumpi\n      dup1\n      0x7d25a05e\n      gt\n      tag_33\n      jumpi\n      dup1\n      0x7d25a05e\n      eq\n      tag_12\n      jumpi\n      dup1\n      0x819d9e38\n      eq\n      tag_13\n      jumpi\n      dup1\n      0x82413eac\n      eq\n      tag_14\n      jumpi\n      0x00\n      dup1\n      revert\n    tag_33:\n      dup1\n      0x5e280f11\n      eq\n      tag_9\n      jumpi\n      dup1\n      0x715018a6\n      eq\n      tag_10\n      jumpi\n      dup1\n      0x734ff5f3\n      eq\n      tag_11\n      jumpi\n      0x00\n      dup1\n      revert\n    tag_32:\n      dup1\n      0x3400288b\n      gt\n      tag_34\n      jumpi\n      dup1\n      0x3400288b\n      eq\n      tag_6\n      jumpi\n      dup1\n      0x3cf1edac\n      eq\n      tag_7\n      jumpi\n      dup1\n      0x48ee7f5d\n      eq\n      tag_8\n      jumpi\n      0x00\n      dup1\n      revert\n    tag_34:\n      dup1\n      0x0d14c92e\n      eq\n      tag_3\n      jumpi\n      dup1\n      0x13137d65\n      eq\n      tag_4\n      jumpi\n      dup1\n      0x17442b70\n      eq\n      tag_5\n      jumpi\n      0x00\n      dup1\n      revert\n    tag_1:\n      jumpi(tag_2, calldatasize)\n      stop\n    tag_2:\n      0x00\n      dup1\n      revert\n        /* \"AthenaClientContract_compact.sol\":2867:3011  function setDstEid(uint32 _dstEid) external onlyOwner {... */\n    tag_3:\n      callvalue\n      dup1\n      iszero\n      tag_37\n      jumpi\n      0x00\n      dup1\n      revert\n    tag_37:\n      pop\n      tag_38\n      tag_39\n      calldatasize\n      0x04\n      tag_40\n      jump\t// in\n    tag_39:\n      tag_41\n      jump\t// in\n    tag_38:\n      stop\n        /* \"@layerzerolabs/oapp-evm/contracts/oapp/OAppReceiver.sol\":4368:5076  function lzReceive(... */\n    tag_4:\n      tag_38\n      tag_43\n      calldatasize\n      0x04\n      tag_44\n      jump\t// in\n    tag_43:\n      tag_45\n      jump\t// in\n        /* \"@layerzerolabs/oapp-evm/contracts/oapp/OApp.sol\":1287:1522  function oAppVersion()... */\n    tag_5:\n      callvalue\n      dup1\n      iszero\n      tag_46\n      jumpi\n      0x00\n      dup1\n      revert\n    tag_46:\n      pop\n      0x40\n      dup1\n      mload\n        /* \"@layerzerolabs/oapp-evm/contracts/oapp/OAppSender.sol\":843:844  1 */\n      0x01\n        /* \"#utility.yul\":2309:2359   */\n      dup2\n      mstore\n        /* \"@layerzerolabs/oapp-evm/contracts/oapp/OAppReceiver.sol\":678:679  2 */\n      0x02\n        /* \"#utility.yul\":2390:2392   */\n      0x20\n        /* \"#utility.yul\":2375:2393   */\n      dup3\n      add\n        /* \"#utility.yul\":2368:2427   */\n      mstore\n        /* \"#utility.yul\":2282:2300   */\n      add\n        /* \"@layerzerolabs/oapp-evm/contracts/oapp/OApp.sol\":1287:1522  function oAppVersion()... */\n    tag_49:\n      mload(0x40)\n      dup1\n      swap2\n      sub\n      swap1\n      return\n        /* \"@layerzerolabs/oapp-evm/contracts/oapp/OAppCore.sol\":1724:1832  function setPeer(uint32 _eid, bytes32 _peer) public virtual onlyOwner {... */\n    tag_6:\n      callvalue\n      dup1\n      iszero\n      tag_51\n      jumpi\n      0x00\n      dup1\n      revert\n    tag_51:\n      pop\n      tag_38\n      tag_53\n      calldatasize\n      0x04\n      tag_54\n      jump\t// in\n    tag_53:\n      tag_55\n      jump\t// in\n        /* \"AthenaClientContract_compact.sol\":6275:7406  function requestSkillVerification(... */\n    tag_7:\n      tag_38\n      tag_57\n      calldatasize\n      0x04\n      tag_58\n      jump\t// in\n    tag_57:\n      tag_59\n      jump\t// in\n        /* \"AthenaClientContract_compact.sol\":3640:4932  function raiseDispute(... */\n    tag_8:\n      tag_38\n      tag_61\n      calldatasize\n      0x04\n      tag_62\n      jump\t// in\n    tag_61:\n      tag_63\n      jump\t// in\n        /* \"@layerzerolabs/oapp-evm/contracts/oapp/OAppCore.sol\":446:492  ILayerZeroEndpointV2 public immutable endpoint */\n    tag_9:\n      callvalue\n      dup1\n      iszero\n      tag_64\n      jumpi\n      0x00\n      dup1\n      revert\n    tag_64:\n      pop\n      tag_65\n      immutable(\"0xef80077fd7ee005d1b0377e3e959eb59d0ca83c4839422f862a3540a66a91fb5\")\n      dup2\n      jump\n    tag_65:\n      mload(0x40)\n      sub(shl(0xa0, 0x01), 0x01)\n        /* \"#utility.yul\":5980:6035   */\n      swap1\n      swap2\n      and\n        /* \"#utility.yul\":5962:6036   */\n      dup2\n      mstore\n        /* \"#utility.yul\":5950:5952   */\n      0x20\n        /* \"#utility.yul\":5935:5953   */\n      add\n        /* \"@layerzerolabs/oapp-evm/contracts/oapp/OAppCore.sol\":446:492  ILayerZeroEndpointV2 public immutable endpoint */\n      tag_49\n        /* \"#utility.yul\":5788:6042   */\n      jump\n        /* \"@openzeppelin/contracts/access/Ownable.sol\":2293:2394  function renounceOwnership() public virtual onlyOwner {... */\n    tag_10:\n      callvalue\n      dup1\n      iszero\n      tag_69\n      jumpi\n      0x00\n      dup1\n      revert\n    tag_69:\n      pop\n      tag_38\n      tag_71\n      jump\t// in\n        /* \"AthenaClientContract_compact.sol\":859:879  uint32 public dstEid */\n    tag_11:\n      callvalue\n      dup1\n      iszero\n      tag_72\n      jumpi\n      0x00\n      dup1\n      revert\n    tag_72:\n      pop\n      sload(0x03)\n      tag_73\n      swap1\n      0xffffffff\n      and\n      dup2\n      jump\n    tag_73:\n      mload(0x40)\n        /* \"#utility.yul\":6221:6231   */\n      0xffffffff\n        /* \"#utility.yul\":6209:6232   */\n      swap1\n      swap2\n      and\n        /* \"#utility.yul\":6191:6233   */\n      dup2\n      mstore\n        /* \"#utility.yul\":6179:6181   */\n      0x20\n        /* \"#utility.yul\":6164:6182   */\n      add\n        /* \"AthenaClientContract_compact.sol\":859:879  uint32 public dstEid */\n      tag_49\n        /* \"#utility.yul\":6047:6239   */\n      jump\n        /* \"@layerzerolabs/oapp-evm/contracts/oapp/OAppReceiver.sol\":3507:3635  function nextNonce(uint32 /*_srcEid*/, bytes32 /*_sender*/) public view virtual returns (uint64 nonce) {... */\n    tag_12:\n      callvalue\n      dup1\n      iszero\n      tag_77\n      jumpi\n      0x00\n      dup1\n      revert\n    tag_77:\n      pop\n      tag_78\n      tag_79\n      calldatasize\n      0x04\n      tag_54\n      jump\t// in\n    tag_79:\n        /* \"@layerzerolabs/oapp-evm/contracts/oapp/OAppReceiver.sol\":3596:3608  uint64 nonce */\n      0x00\n        /* \"@layerzerolabs/oapp-evm/contracts/oapp/OAppReceiver.sol\":3507:3635  function nextNonce(uint32 /*_srcEid*/, bytes32 /*_sender*/) public view virtual returns (uint64 nonce) {... */\n      swap3\n      swap2\n      pop\n      pop\n      jump\n    tag_78:\n      mload(0x40)\n      sub(shl(0x40, 0x01), 0x01)\n        /* \"#utility.yul\":6406:6437   */\n      swap1\n      swap2\n      and\n        /* \"#utility.yul\":6388:6438   */\n      dup2\n      mstore\n        /* \"#utility.yul\":6376:6378   */\n      0x20\n        /* \"#utility.yul\":6361:6379   */\n      add\n        /* \"@layerzerolabs/oapp-evm/contracts/oapp/OAppReceiver.sol\":3507:3635  function nextNonce(uint32 /*_srcEid*/, bytes32 /*_sender*/) public view virtual returns (uint64 nonce) {... */\n      tag_49\n        /* \"#utility.yul\":6244:6444   */\n      jump\n        /* \"AthenaClientContract_compact.sol\":5099:5775  function claimDisputedAmount(... */\n    tag_13:\n      tag_38\n      tag_84\n      calldatasize\n      0x04\n      tag_85\n      jump\t// in\n    tag_84:\n      tag_86\n      jump\t// in\n        /* \"@layerzerolabs/oapp-evm/contracts/oapp/OAppReceiver.sol\":2013:2229  function isComposeMsgSender(... */\n    tag_14:\n      callvalue\n      dup1\n      iszero\n      tag_87\n      jumpi\n      0x00\n      dup1\n      revert\n    tag_87:\n      pop\n      tag_88\n      tag_89\n      calldatasize\n      0x04\n      tag_90\n      jump\t// in\n    tag_89:\n      sub(shl(0xa0, 0x01), 0x01)\n        /* \"@layerzerolabs/oapp-evm/contracts/oapp/OAppReceiver.sol\":2198:2222  _sender == address(this) */\n      dup2\n      and\n        /* \"@layerzerolabs/oapp-evm/contracts/oapp/OAppReceiver.sol\":2217:2221  this */\n      address\n        /* \"@layerzerolabs/oapp-evm/contracts/oapp/OAppReceiver.sol\":2198:2222  _sender == address(this) */\n      eq\n        /* \"@layerzerolabs/oapp-evm/contracts/oapp/OAppReceiver.sol\":2013:2229  function isComposeMsgSender(... */\n      swap5\n      swap4\n      pop\n      pop\n      pop\n      pop\n      jump\n    tag_88:\n      mload(0x40)\n        /* \"#utility.yul\":7815:7829   */\n      swap1\n      iszero\n        /* \"#utility.yul\":7808:7830   */\n      iszero\n        /* \"#utility.yul\":7790:7831   */\n      dup2\n      mstore\n        /* \"#utility.yul\":7778:7780   */\n      0x20\n        /* \"#utility.yul\":7763:7781   */\n      add\n        /* \"@layerzerolabs/oapp-evm/contracts/oapp/OAppReceiver.sol\":2013:2229  function isComposeMsgSender(... */\n      tag_49\n        /* \"#utility.yul\":7650:7837   */\n      jump\n        /* \"AthenaClientContract_compact.sol\":7986:9155  function askAthena(... */\n    tag_15:\n      tag_38\n      tag_95\n      calldatasize\n      0x04\n      tag_96\n      jump\t// in\n    tag_95:\n      tag_97\n      jump\t// in\n        /* \"@openzeppelin/contracts/access/Ownable.sol\":1638:1723  function owner() public view virtual returns (address) {... */\n    tag_16:\n      callvalue\n      dup1\n      iszero\n      tag_98\n      jumpi\n      0x00\n      dup1\n      revert\n    tag_98:\n      pop\n        /* \"@openzeppelin/contracts/access/Ownable.sol\":1684:1691  address */\n      0x00\n        /* \"@openzeppelin/contracts/access/Ownable.sol\":1710:1716  _owner */\n      sload\n      sub(shl(0xa0, 0x01), 0x01)\n      and\n        /* \"@openzeppelin/contracts/access/Ownable.sol\":1638:1723  function owner() public view virtual returns (address) {... */\n      jump(tag_65)\n        /* \"AthenaClientContract_compact.sol\":9873:10188  function quoteCreateDispute(... */\n    tag_17:\n      callvalue\n      dup1\n      iszero\n      tag_103\n      jumpi\n      0x00\n      dup1\n      revert\n    tag_103:\n      pop\n      tag_104\n      tag_105\n      calldatasize\n      0x04\n      tag_106\n      jump\t// in\n    tag_105:\n      tag_107\n      jump\t// in\n    tag_104:\n      0x40\n      dup1\n      mload\n        /* \"#utility.yul\":10215:10228   */\n      dup3\n      mload\n        /* \"#utility.yul\":10197:10229   */\n      dup2\n      mstore\n        /* \"#utility.yul\":10285:10289   */\n      0x20\n        /* \"#utility.yul\":10273:10290   */\n      swap3\n      dup4\n      add\n        /* \"#utility.yul\":10267:10291   */\n      mload\n        /* \"#utility.yul\":10245:10265   */\n      swap3\n      dup2\n      add\n        /* \"#utility.yul\":10238:10292   */\n      swap3\n      swap1\n      swap3\n      mstore\n        /* \"#utility.yul\":10170:10188   */\n      add\n        /* \"AthenaClientContract_compact.sol\":9873:10188  function quoteCreateDispute(... */\n      tag_49\n        /* \"#utility.yul\":9995:10298   */\n      jump\n        /* \"AthenaClientContract_compact.sol\":10497:10880  function quoteRequestSkillVerification(... */\n    tag_18:\n      callvalue\n      dup1\n      iszero\n      tag_110\n      jumpi\n      0x00\n      dup1\n      revert\n    tag_110:\n      pop\n      tag_104\n      tag_112\n      calldatasize\n      0x04\n      tag_58\n      jump\t// in\n    tag_112:\n      tag_113\n      jump\t// in\n        /* \"AthenaClientContract_compact.sol\":11556:11739  function withdrawFees(address to, uint256 amount) external onlyOwner {... */\n    tag_19:\n      callvalue\n      dup1\n      iszero\n      tag_115\n      jumpi\n      0x00\n      dup1\n      revert\n    tag_115:\n      pop\n      tag_38\n      tag_117\n      calldatasize\n      0x04\n      tag_118\n      jump\t// in\n    tag_117:\n      tag_119\n      jump\t// in\n        /* \"@layerzerolabs/oapp-evm/contracts/oapp/OAppCore.sol\":569:617  mapping(uint32 eid => bytes32 peer) public peers */\n    tag_20:\n      callvalue\n      dup1\n      iszero\n      tag_120\n      jumpi\n      0x00\n      dup1\n      revert\n    tag_120:\n      pop\n      tag_121\n      tag_122\n      calldatasize\n      0x04\n      tag_40\n      jump\t// in\n    tag_122:\n      mstore(0x20, 0x01)\n      0x00\n      swap1\n      dup2\n      mstore\n      0x40\n      swap1\n      keccak256\n      sload\n      dup2\n      jump\n    tag_121:\n      mload(0x40)\n        /* \"#utility.yul\":10821:10846   */\n      swap1\n      dup2\n      mstore\n        /* \"#utility.yul\":10809:10811   */\n      0x20\n        /* \"#utility.yul\":10794:10812   */\n      add\n        /* \"@layerzerolabs/oapp-evm/contracts/oapp/OAppCore.sol\":569:617  mapping(uint32 eid => bytes32 peer) public peers */\n      tag_49\n        /* \"#utility.yul\":10675:10852   */\n      jump\n        /* \"AthenaClientContract_compact.sol\":9416:9867  function quoteRaiseDispute(... */\n    tag_21:\n      callvalue\n      dup1\n      iszero\n      tag_126\n      jumpi\n      0x00\n      dup1\n      revert\n    tag_126:\n      pop\n      tag_104\n      tag_128\n      calldatasize\n      0x04\n      tag_62\n      jump\t// in\n    tag_128:\n      tag_129\n      jump\t// in\n        /* \"@layerzerolabs/oapp-evm/contracts/oapp/OAppCore.sol\":3252:3357  function setDelegate(address _delegate) public onlyOwner {... */\n    tag_22:\n      callvalue\n      dup1\n      iszero\n      tag_131\n      jumpi\n      0x00\n      dup1\n      revert\n    tag_131:\n      pop\n      tag_38\n      tag_133\n      calldatasize\n      0x04\n      tag_134\n      jump\t// in\n    tag_133:\n      tag_135\n      jump\t// in\n        /* \"AthenaClientContract_compact.sol\":10886:11295  function quoteAskAthena(... */\n    tag_23:\n      callvalue\n      dup1\n      iszero\n      tag_136\n      jumpi\n      0x00\n      dup1\n      revert\n    tag_136:\n      pop\n      tag_104\n      tag_138\n      calldatasize\n      0x04\n      tag_96\n      jump\t// in\n    tag_138:\n      tag_139\n      jump\t// in\n        /* \"AthenaClientContract_compact.sol\":10194:10491  function quoteClaimDisputedAmount(... */\n    tag_24:\n      callvalue\n      dup1\n      iszero\n      tag_141\n      jumpi\n      0x00\n      dup1\n      revert\n    tag_141:\n      pop\n      tag_104\n      tag_143\n      calldatasize\n      0x04\n      tag_85\n      jump\t// in\n    tag_143:\n      tag_144\n      jump\t// in\n        /* \"@openzeppelin/contracts/access/Ownable.sol\":2543:2758  function transferOwnership(address newOwner) public virtual onlyOwner {... */\n    tag_25:\n      callvalue\n      dup1\n      iszero\n      tag_146\n      jumpi\n      0x00\n      dup1\n      revert\n    tag_146:\n      pop\n      tag_38\n      tag_148\n      calldatasize\n      0x04\n      tag_134\n      jump\t// in\n    tag_148:\n      tag_149\n      jump\t// in\n        /* \"AthenaClientContract_compact.sol\":799:831  IERC20 public immutable usdToken */\n    tag_26:\n      callvalue\n      dup1\n      iszero\n      tag_150\n      jumpi\n      0x00\n      dup1\n      revert\n    tag_150:\n      pop\n      tag_65\n      immutable(\"0x551ebb3edb72774934e005837770de585c3863f1eef743adee80bd22fdce145f\")\n      dup2\n      jump\n        /* \"@layerzerolabs/oapp-evm/contracts/oapp/OAppReceiver.sol\":2771:2920  function allowInitializePath(Origin calldata origin) public view virtual returns (bool) {... */\n    tag_27:\n      callvalue\n      dup1\n      iszero\n      tag_155\n      jumpi\n      0x00\n      dup1\n      revert\n    tag_155:\n      pop\n      tag_88\n      tag_157\n      calldatasize\n      0x04\n      tag_158\n      jump\t// in\n    tag_157:\n      tag_159\n      jump\t// in\n        /* \"AthenaClientContract_compact.sol\":2867:3011  function setDstEid(uint32 _dstEid) external onlyOwner {... */\n    tag_41:\n        /* \"@openzeppelin/contracts/access/Ownable.sol\":1531:1544  _checkOwner() */\n      tag_162\n        /* \"@openzeppelin/contracts/access/Ownable.sol\":1531:1542  _checkOwner */\n      tag_163\n        /* \"@openzeppelin/contracts/access/Ownable.sol\":1531:1544  _checkOwner() */\n      jump\t// in\n    tag_162:\n        /* \"AthenaClientContract_compact.sol\":2949:2950  0 */\n      0x00\n        /* \"AthenaClientContract_compact.sol\":2939:2946  _dstEid */\n      dup2\n        /* \"AthenaClientContract_compact.sol\":2939:2950  _dstEid > 0 */\n      0xffffffff\n      and\n      gt\n        /* \"AthenaClientContract_compact.sol\":2931:2978  require(_dstEid > 0, \"Invalid destination EID\") */\n      tag_165\n      jumpi\n      mload(0x40)\n      shl(0xe5, 0x461bcd)\n      dup2\n      mstore\n        /* \"#utility.yul\":11796:11798   */\n      0x20\n        /* \"AthenaClientContract_compact.sol\":2931:2978  require(_dstEid > 0, \"Invalid destination EID\") */\n      0x04\n      dup3\n      add\n        /* \"#utility.yul\":11778:11799   */\n      mstore\n        /* \"#utility.yul\":11835:11837   */\n      0x17\n        /* \"#utility.yul\":11815:11833   */\n      0x24\n      dup3\n      add\n        /* \"#utility.yul\":11808:11838   */\n      mstore\n        /* \"#utility.yul\":11874:11899   */\n      0x496e76616c69642064657374696e6174696f6e20454944000000000000000000\n        /* \"#utility.yul\":11854:11872   */\n      0x44\n      dup3\n      add\n        /* \"#utility.yul\":11847:11900   */\n      mstore\n        /* \"#utility.yul\":11917:11935   */\n      0x64\n      add\n        /* \"AthenaClientContract_compact.sol\":2931:2978  require(_dstEid > 0, \"Invalid destination EID\") */\n    tag_166:\n      mload(0x40)\n      dup1\n      swap2\n      sub\n      swap1\n      revert\n    tag_165:\n        /* \"AthenaClientContract_compact.sol\":2988:2994  dstEid */\n      0x03\n        /* \"AthenaClientContract_compact.sol\":2988:3004  dstEid = _dstEid */\n      dup1\n      sload\n      not(0xffffffff)\n      and\n      0xffffffff\n      swap3\n      swap1\n      swap3\n      and\n      swap2\n      swap1\n      swap2\n      or\n      swap1\n      sstore\n        /* \"AthenaClientContract_compact.sol\":2867:3011  function setDstEid(uint32 _dstEid) external onlyOwner {... */\n      jump\t// out\n        /* \"@layerzerolabs/oapp-evm/contracts/oapp/OAppReceiver.sol\":4368:5076  function lzReceive(... */\n    tag_45:\n        /* \"@layerzerolabs/oapp-evm/contracts/oapp/OAppReceiver.sol\":4681:4689  endpoint */\n      immutable(\"0xef80077fd7ee005d1b0377e3e959eb59d0ca83c4839422f862a3540a66a91fb5\")\n      sub(shl(0xa0, 0x01), 0x01)\n        /* \"@layerzerolabs/oapp-evm/contracts/oapp/OAppReceiver.sol\":4673:4704  address(endpoint) != msg.sender */\n      and\n        /* \"@layerzerolabs/oapp-evm/contracts/oapp/OAppReceiver.sol\":4694:4704  msg.sender */\n      caller\n        /* \"@layerzerolabs/oapp-evm/contracts/oapp/OAppReceiver.sol\":4673:4704  address(endpoint) != msg.sender */\n      eq\n        /* \"@layerzerolabs/oapp-evm/contracts/oapp/OAppReceiver.sol\":4669:4737  if (address(endpoint) != msg.sender) revert OnlyEndpoint(msg.sender) */\n      tag_169\n      jumpi\n        /* \"@layerzerolabs/oapp-evm/contracts/oapp/OAppReceiver.sol\":4713:4737  OnlyEndpoint(msg.sender) */\n      mload(0x40)\n      shl(0xe0, 0x91ac5e4f)\n      dup2\n      mstore\n        /* \"@layerzerolabs/oapp-evm/contracts/oapp/OAppReceiver.sol\":4726:4736  msg.sender */\n      caller\n        /* \"@layerzerolabs/oapp-evm/contracts/oapp/OAppReceiver.sol\":4713:4737  OnlyEndpoint(msg.sender) */\n      0x04\n      dup3\n      add\n        /* \"#utility.yul\":5962:6036   */\n      mstore\n        /* \"#utility.yul\":5935:5953   */\n      0x24\n      add\n        /* \"@layerzerolabs/oapp-evm/contracts/oapp/OAppReceiver.sol\":4713:4737  OnlyEndpoint(msg.sender) */\n      tag_166\n        /* \"#utility.yul\":5788:6042   */\n      jump\n        /* \"@layerzerolabs/oapp-evm/contracts/oapp/OAppReceiver.sol\":4669:4737  if (address(endpoint) != msg.sender) revert OnlyEndpoint(msg.sender) */\n    tag_169:\n        /* \"@layerzerolabs/oapp-evm/contracts/oapp/OAppReceiver.sol\":4873:4887  _origin.sender */\n      0x20\n      dup8\n      add\n      dup1\n      calldataload\n      swap1\n        /* \"@layerzerolabs/oapp-evm/contracts/oapp/OAppReceiver.sol\":4837:4869  _getPeerOrRevert(_origin.srcEid) */\n      tag_171\n      swap1\n        /* \"@layerzerolabs/oapp-evm/contracts/oapp/OAppReceiver.sol\":4854:4868  _origin.srcEid */\n      tag_172\n      swap1\n        /* \"@layerzerolabs/oapp-evm/contracts/oapp/OAppReceiver.sol\":4873:4880  _origin */\n      dup11\n        /* \"@layerzerolabs/oapp-evm/contracts/oapp/OAppReceiver.sol\":4854:4868  _origin.srcEid */\n      tag_40\n      jump\t// in\n    tag_172:\n        /* \"@layerzerolabs/oapp-evm/contracts/oapp/OAppReceiver.sol\":4837:4853  _getPeerOrRevert */\n      tag_173\n        /* \"@layerzerolabs/oapp-evm/contracts/oapp/OAppReceiver.sol\":4837:4869  _getPeerOrRevert(_origin.srcEid) */\n      jump\t// in\n    tag_171:\n        /* \"@layerzerolabs/oapp-evm/contracts/oapp/OAppReceiver.sol\":4837:4887  _getPeerOrRevert(_origin.srcEid) != _origin.sender */\n      eq\n        /* \"@layerzerolabs/oapp-evm/contracts/oapp/OAppReceiver.sol\":4833:4936  if (_getPeerOrRevert(_origin.srcEid) != _origin.sender) revert OnlyPeer(_origin.srcEid, _origin.sender) */\n      tag_174\n      jumpi\n        /* \"@layerzerolabs/oapp-evm/contracts/oapp/OAppReceiver.sol\":4905:4919  _origin.srcEid */\n      tag_175\n      0x20\n      dup9\n      add\n        /* \"@layerzerolabs/oapp-evm/contracts/oapp/OAppReceiver.sol\":4905:4912  _origin */\n      dup9\n        /* \"@layerzerolabs/oapp-evm/contracts/oapp/OAppReceiver.sol\":4905:4919  _origin.srcEid */\n      tag_40\n      jump\t// in\n    tag_175:\n        /* \"@layerzerolabs/oapp-evm/contracts/oapp/OAppReceiver.sol\":4896:4936  OnlyPeer(_origin.srcEid, _origin.sender) */\n      mload(0x40)\n      shl(0xe2, 0x309afaf3)\n      dup2\n      mstore\n        /* \"#utility.yul\":12148:12158   */\n      0xffffffff\n        /* \"#utility.yul\":12136:12159   */\n      swap1\n      swap2\n      and\n        /* \"@layerzerolabs/oapp-evm/contracts/oapp/OAppReceiver.sol\":4896:4936  OnlyPeer(_origin.srcEid, _origin.sender) */\n      0x04\n      dup3\n      add\n        /* \"#utility.yul\":12118:12160   */\n      mstore\n        /* \"@layerzerolabs/oapp-evm/contracts/oapp/OAppReceiver.sol\":4921:4935  _origin.sender */\n      0x20\n      dup9\n      add\n      calldataload\n        /* \"#utility.yul\":12176:12194   */\n      0x24\n      dup3\n      add\n        /* \"#utility.yul\":12169:12203   */\n      mstore\n        /* \"#utility.yul\":12091:12109   */\n      0x44\n      add\n        /* \"@layerzerolabs/oapp-evm/contracts/oapp/OAppReceiver.sol\":4896:4936  OnlyPeer(_origin.srcEid, _origin.sender) */\n      tag_166\n        /* \"#utility.yul\":11946:12209   */\n      jump\n        /* \"@layerzerolabs/oapp-evm/contracts/oapp/OAppReceiver.sol\":4833:4936  if (_getPeerOrRevert(_origin.srcEid) != _origin.sender) revert OnlyPeer(_origin.srcEid, _origin.sender) */\n    tag_174:\n        /* \"@layerzerolabs/oapp-evm/contracts/oapp/OAppReceiver.sol\":5010:5069  _lzReceive(_origin, _guid, _message, _executor, _extraData) */\n      tag_178\n        /* \"@layerzerolabs/oapp-evm/contracts/oapp/OAppReceiver.sol\":5021:5028  _origin */\n      dup8\n        /* \"@layerzerolabs/oapp-evm/contracts/oapp/OAppReceiver.sol\":5030:5035  _guid */\n      dup8\n        /* \"@layerzerolabs/oapp-evm/contracts/oapp/OAppReceiver.sol\":5037:5045  _message */\n      dup8\n      dup8\n        /* \"@layerzerolabs/oapp-evm/contracts/oapp/OAppReceiver.sol\":5047:5056  _executor */\n      dup8\n        /* \"@layerzerolabs/oapp-evm/contracts/oapp/OAppReceiver.sol\":5058:5068  _extraData */\n      dup8\n      dup8\n        /* \"@layerzerolabs/oapp-evm/contracts/oapp/OAppReceiver.sol\":5010:5020  _lzReceive */\n      tag_179\n        /* \"@layerzerolabs/oapp-evm/contracts/oapp/OAppReceiver.sol\":5010:5069  _lzReceive(_origin, _guid, _message, _executor, _extraData) */\n      jump\t// in\n    tag_178:\n        /* \"@layerzerolabs/oapp-evm/contracts/oapp/OAppReceiver.sol\":4368:5076  function lzReceive(... */\n      pop\n      pop\n      pop\n      pop\n      pop\n      pop\n      pop\n      jump\t// out\n        /* \"@layerzerolabs/oapp-evm/contracts/oapp/OAppCore.sol\":1724:1832  function setPeer(uint32 _eid, bytes32 _peer) public virtual onlyOwner {... */\n    tag_55:\n        /* \"@openzeppelin/contracts/access/Ownable.sol\":1531:1544  _checkOwner() */\n      tag_182\n        /* \"@openzeppelin/contracts/access/Ownable.sol\":1531:1542  _checkOwner */\n      tag_163\n        /* \"@openzeppelin/contracts/access/Ownable.sol\":1531:1544  _checkOwner() */\n      jump\t// in\n    tag_182:\n        /* \"@layerzerolabs/oapp-evm/contracts/oapp/OAppCore.sol\":1804:1825  _setPeer(_eid, _peer) */\n      tag_184\n        /* \"@layerzerolabs/oapp-evm/contracts/oapp/OAppCore.sol\":1813:1817  _eid */\n      dup3\n        /* \"@layerzerolabs/oapp-evm/contracts/oapp/OAppCore.sol\":1819:1824  _peer */\n      dup3\n        /* \"@layerzerolabs/oapp-evm/contracts/oapp/OAppCore.sol\":1804:1812  _setPeer */\n      tag_185\n        /* \"@layerzerolabs/oapp-evm/contracts/oapp/OAppCore.sol\":1804:1825  _setPeer(_eid, _peer) */\n      jump\t// in\n    tag_184:\n        /* \"@layerzerolabs/oapp-evm/contracts/oapp/OAppCore.sol\":1724:1832  function setPeer(uint32 _eid, bytes32 _peer) public virtual onlyOwner {... */\n      pop\n      pop\n      jump\t// out\n        /* \"AthenaClientContract_compact.sol\":6275:7406  function requestSkillVerification(... */\n    tag_59:\n        /* \"@openzeppelin/contracts/security/ReentrancyGuard.sol\":2261:2282  _nonReentrantBefore() */\n      tag_187\n        /* \"@openzeppelin/contracts/security/ReentrancyGuard.sol\":2261:2280  _nonReentrantBefore */\n      tag_188\n        /* \"@openzeppelin/contracts/security/ReentrancyGuard.sol\":2261:2282  _nonReentrantBefore() */\n      jump\t// in\n    tag_187:\n        /* \"AthenaClientContract_compact.sol\":6505:6506  0 */\n      0x00\n        /* \"AthenaClientContract_compact.sol\":6489:6494  skill */\n      dup6\n        /* \"AthenaClientContract_compact.sol\":6483:6502  bytes(skill).length */\n      mload\n        /* \"AthenaClientContract_compact.sol\":6483:6506  bytes(skill).length > 0 */\n      gt\n        /* \"AthenaClientContract_compact.sol\":6475:6522  require(bytes(skill).length > 0, \"Skill empty\") */\n      tag_190\n      jumpi\n      mload(0x40)\n      shl(0xe5, 0x461bcd)\n      dup2\n      mstore\n        /* \"#utility.yul\":12416:12418   */\n      0x20\n        /* \"AthenaClientContract_compact.sol\":6475:6522  require(bytes(skill).length > 0, \"Skill empty\") */\n      0x04\n      dup3\n      add\n        /* \"#utility.yul\":12398:12419   */\n      mstore\n        /* \"#utility.yul\":12455:12457   */\n      0x0b\n        /* \"#utility.yul\":12435:12453   */\n      0x24\n      dup3\n      add\n        /* \"#utility.yul\":12428:12458   */\n      mstore\n      shl(0xa8, 0x536b696c6c20656d707479)\n        /* \"#utility.yul\":12474:12492   */\n      0x44\n      dup3\n      add\n        /* \"#utility.yul\":12467:12508   */\n      mstore\n        /* \"#utility.yul\":12525:12543   */\n      0x64\n      add\n        /* \"AthenaClientContract_compact.sol\":6475:6522  require(bytes(skill).length > 0, \"Skill empty\") */\n      tag_166\n        /* \"#utility.yul\":12214:12549   */\n      jump\n        /* \"AthenaClientContract_compact.sol\":6475:6522  require(bytes(skill).length > 0, \"Skill empty\") */\n    tag_190:\n        /* \"AthenaClientContract_compact.sol\":6566:6567  0 */\n      0x00\n        /* \"AthenaClientContract_compact.sol\":6546:6555  proofHash */\n      dup5\n        /* \"AthenaClientContract_compact.sol\":6540:6563  bytes(proofHash).length */\n      mload\n        /* \"AthenaClientContract_compact.sol\":6540:6567  bytes(proofHash).length > 0 */\n      gt\n        /* \"AthenaClientContract_compact.sol\":6532:6588  require(bytes(proofHash).length > 0, \"Proof hash empty\") */\n      tag_193\n      jumpi\n      mload(0x40)\n      shl(0xe5, 0x461bcd)\n      dup2\n      mstore\n        /* \"#utility.yul\":12756:12758   */\n      0x20\n        /* \"AthenaClientContract_compact.sol\":6532:6588  require(bytes(proofHash).length > 0, \"Proof hash empty\") */\n      0x04\n      dup3\n      add\n        /* \"#utility.yul\":12738:12759   */\n      mstore\n        /* \"#utility.yul\":12795:12797   */\n      0x10\n        /* \"#utility.yul\":12775:12793   */\n      0x24\n      dup3\n      add\n        /* \"#utility.yul\":12768:12798   */\n      mstore\n      shl(0x80, 0x50726f6f66206861736820656d707479)\n        /* \"#utility.yul\":12814:12832   */\n      0x44\n      dup3\n      add\n        /* \"#utility.yul\":12807:12853   */\n      mstore\n        /* \"#utility.yul\":12870:12888   */\n      0x64\n      add\n        /* \"AthenaClientContract_compact.sol\":6532:6588  require(bytes(proofHash).length > 0, \"Proof hash empty\") */\n      tag_166\n        /* \"#utility.yul\":12554:12894   */\n      jump\n        /* \"AthenaClientContract_compact.sol\":6532:6588  require(bytes(proofHash).length > 0, \"Proof hash empty\") */\n    tag_193:\n        /* \"AthenaClientContract_compact.sol\":6616:6617  0 */\n      0x00\n        /* \"AthenaClientContract_compact.sol\":6606:6613  usdtFee */\n      dup4\n        /* \"AthenaClientContract_compact.sol\":6606:6617  usdtFee > 0 */\n      gt\n        /* \"AthenaClientContract_compact.sol\":6598:6635  require(usdtFee > 0, \"USDT fee zero\") */\n      tag_196\n      jumpi\n      mload(0x40)\n      shl(0xe5, 0x461bcd)\n      dup2\n      mstore\n        /* \"#utility.yul\":13101:13103   */\n      0x20\n        /* \"AthenaClientContract_compact.sol\":6598:6635  require(usdtFee > 0, \"USDT fee zero\") */\n      0x04\n      dup3\n      add\n        /* \"#utility.yul\":13083:13104   */\n      mstore\n        /* \"#utility.yul\":13140:13142   */\n      0x0d\n        /* \"#utility.yul\":13120:13138   */\n      0x24\n      dup3\n      add\n        /* \"#utility.yul\":13113:13143   */\n      mstore\n      shl(0x98, 0x5553445420666565207a65726f)\n        /* \"#utility.yul\":13159:13177   */\n      0x44\n      dup3\n      add\n        /* \"#utility.yul\":13152:13195   */\n      mstore\n        /* \"#utility.yul\":13212:13230   */\n      0x64\n      add\n        /* \"AthenaClientContract_compact.sol\":6598:6635  require(usdtFee > 0, \"USDT fee zero\") */\n      tag_166\n        /* \"#utility.yul\":12899:13236   */\n      jump\n        /* \"AthenaClientContract_compact.sol\":6598:6635  require(usdtFee > 0, \"USDT fee zero\") */\n    tag_196:\n        /* \"AthenaClientContract_compact.sol\":6709:6766  usdToken.transferFrom(msg.sender, address(this), usdtFee) */\n      mload(0x40)\n      shl(0xe0, 0x23b872dd)\n      dup2\n      mstore\n        /* \"AthenaClientContract_compact.sol\":6731:6741  msg.sender */\n      caller\n        /* \"AthenaClientContract_compact.sol\":6709:6766  usdToken.transferFrom(msg.sender, address(this), usdtFee) */\n      0x04\n      dup3\n      add\n        /* \"#utility.yul\":13443:13517   */\n      mstore\n        /* \"AthenaClientContract_compact.sol\":6751:6755  this */\n      address\n        /* \"#utility.yul\":13533:13551   */\n      0x24\n      dup3\n      add\n        /* \"#utility.yul\":13526:13609   */\n      mstore\n        /* \"#utility.yul\":13625:13643   */\n      0x44\n      dup2\n      add\n        /* \"#utility.yul\":13618:13652   */\n      dup5\n      swap1\n      mstore\n        /* \"AthenaClientContract_compact.sol\":6709:6717  usdToken */\n      immutable(\"0x551ebb3edb72774934e005837770de585c3863f1eef743adee80bd22fdce145f\")\n      sub(shl(0xa0, 0x01), 0x01)\n        /* \"AthenaClientContract_compact.sol\":6709:6730  usdToken.transferFrom */\n      and\n      swap1\n      0x23b872dd\n      swap1\n        /* \"#utility.yul\":13416:13434   */\n      0x64\n      add\n        /* \"AthenaClientContract_compact.sol\":6709:6766  usdToken.transferFrom(msg.sender, address(this), usdtFee) */\n      0x20\n      mload(0x40)\n      dup1\n      dup4\n      sub\n      dup2\n      0x00\n      dup8\n      gas\n      call\n      iszero\n      dup1\n      iszero\n      tag_202\n      jumpi\n      returndatasize\n      0x00\n      dup1\n      returndatacopy\n      revert(0x00, returndatasize)\n    tag_202:\n      pop\n      pop\n      pop\n      pop\n      mload(0x40)\n      returndatasize\n      not(0x1f)\n      0x1f\n      dup3\n      add\n      and\n      dup3\n      add\n      dup1\n      0x40\n      mstore\n      pop\n      dup2\n      add\n      swap1\n      tag_203\n      swap2\n      swap1\n      tag_204\n      jump\t// in\n    tag_203:\n        /* \"AthenaClientContract_compact.sol\":6688:6812  require(... */\n      tag_205\n      jumpi\n      mload(0x40)\n      shl(0xe5, 0x461bcd)\n      dup2\n      mstore\n        /* \"#utility.yul\":14238:14240   */\n      0x20\n        /* \"AthenaClientContract_compact.sol\":6688:6812  require(... */\n      0x04\n      dup3\n      add\n        /* \"#utility.yul\":14220:14241   */\n      mstore\n        /* \"#utility.yul\":14277:14279   */\n      0x14\n        /* \"#utility.yul\":14257:14275   */\n      0x24\n      dup3\n      add\n        /* \"#utility.yul\":14250:14280   */\n      mstore\n      shl(0x62, 0x1554d115081d1c985b9cd9995c8819985a5b1959)\n        /* \"#utility.yul\":14296:14314   */\n      0x44\n      dup3\n      add\n        /* \"#utility.yul\":14289:14339   */\n      mstore\n        /* \"#utility.yul\":14356:14374   */\n      0x64\n      add\n        /* \"AthenaClientContract_compact.sol\":6688:6812  require(... */\n      tag_166\n        /* \"#utility.yul\":14036:14380   */\n      jump\n        /* \"AthenaClientContract_compact.sol\":6688:6812  require(... */\n    tag_205:\n        /* \"AthenaClientContract_compact.sol\":6862:6882  bytes memory payload */\n      0x00\n        /* \"AthenaClientContract_compact.sol\":6924:6934  msg.sender */\n      caller\n        /* \"AthenaClientContract_compact.sol\":6936:6941  skill */\n      dup7\n        /* \"AthenaClientContract_compact.sol\":6943:6952  proofHash */\n      dup7\n        /* \"AthenaClientContract_compact.sol\":6954:6961  usdtFee */\n      dup7\n        /* \"AthenaClientContract_compact.sol\":6885:6962  abi.encode(\"requestSkillVerification\", msg.sender, skill, proofHash, usdtFee) */\n      add(0x20, mload(0x40))\n      tag_208\n      swap5\n      swap4\n      swap3\n      swap2\n      swap1\n      tag_209\n      jump\t// in\n    tag_208:\n      0x40\n      dup1\n      mload\n      not(0x1f)\n      dup2\n      dup5\n      sub\n      add\n      dup2\n      mstore\n        /* \"AthenaClientContract_compact.sol\":7046:7052  dstEid */\n      sload(0x03)\n        /* \"AthenaClientContract_compact.sol\":6885:6962  abi.encode(\"requestSkillVerification\", msg.sender, skill, proofHash, usdtFee) */\n      0x20\n        /* \"AthenaClientContract_compact.sol\":7039:7079  _quote(dstEid, payload, _options, false) */\n      0x1f\n      dup8\n      add\n      dup2\n      swap1\n      div\n      dup2\n      mul\n      dup6\n      add\n      dup2\n      add\n      swap1\n      swap4\n      mstore\n      dup6\n      dup5\n      mstore\n        /* \"AthenaClientContract_compact.sol\":6885:6962  abi.encode(\"requestSkillVerification\", msg.sender, skill, proofHash, usdtFee) */\n      swap1\n      swap4\n      pop\n        /* \"AthenaClientContract_compact.sol\":7013:7036  MessagingFee memory fee */\n      0x00\n      swap3\n        /* \"AthenaClientContract_compact.sol\":7039:7079  _quote(dstEid, payload, _options, false) */\n      tag_210\n      swap3\n        /* \"AthenaClientContract_compact.sol\":7046:7052  dstEid */\n      0xffffffff\n      swap1\n      swap3\n      and\n      swap2\n        /* \"AthenaClientContract_compact.sol\":6885:6962  abi.encode(\"requestSkillVerification\", msg.sender, skill, proofHash, usdtFee) */\n      dup6\n      swap2\n      swap1\n        /* \"AthenaClientContract_compact.sol\":7063:7071  _options */\n      dup9\n      swap1\n      dup9\n      swap1\n      dup2\n      swap1\n        /* \"AthenaClientContract_compact.sol\":7039:7079  _quote(dstEid, payload, _options, false) */\n      dup5\n      add\n        /* \"AthenaClientContract_compact.sol\":7063:7071  _options */\n      dup4\n      dup3\n      dup1\n      dup3\n        /* \"AthenaClientContract_compact.sol\":7039:7079  _quote(dstEid, payload, _options, false) */\n      dup5\n      calldatacopy\n      0x00\n      swap3\n      add\n      dup3\n      swap1\n      mstore\n      pop\n      swap3\n      pop\n        /* \"AthenaClientContract_compact.sol\":7039:7045  _quote */\n      tag_211\n      swap2\n      pop\n      pop\n        /* \"AthenaClientContract_compact.sol\":7039:7079  _quote(dstEid, payload, _options, false) */\n      jump\t// in\n    tag_210:\n        /* \"AthenaClientContract_compact.sol\":7110:7123  fee.nativeFee */\n      dup1\n      mload\n        /* \"AthenaClientContract_compact.sol\":7013:7079  MessagingFee memory fee = _quote(dstEid, payload, _options, false) */\n      swap1\n      swap2\n      pop\n        /* \"AthenaClientContract_compact.sol\":7097:7106  msg.value */\n      callvalue\n        /* \"AthenaClientContract_compact.sol\":7097:7123  msg.value >= fee.nativeFee */\n      lt\n      iszero\n        /* \"AthenaClientContract_compact.sol\":7089:7146  require(msg.value >= fee.nativeFee, \"Native fee too low\") */\n      tag_212\n      jumpi\n      mload(0x40)\n      shl(0xe5, 0x461bcd)\n      dup2\n      mstore\n        /* \"#utility.yul\":15821:15823   */\n      0x20\n        /* \"AthenaClientContract_compact.sol\":7089:7146  require(msg.value >= fee.nativeFee, \"Native fee too low\") */\n      0x04\n      dup3\n      add\n        /* \"#utility.yul\":15803:15824   */\n      mstore\n        /* \"#utility.yul\":15860:15862   */\n      0x12\n        /* \"#utility.yul\":15840:15858   */\n      0x24\n      dup3\n      add\n        /* \"#utility.yul\":15833:15863   */\n      mstore\n      shl(0x70, 0x4e61746976652066656520746f6f206c6f77)\n        /* \"#utility.yul\":15879:15897   */\n      0x44\n      dup3\n      add\n        /* \"#utility.yul\":15872:15920   */\n      mstore\n        /* \"#utility.yul\":15937:15955   */\n      0x64\n      add\n        /* \"AthenaClientContract_compact.sol\":7089:7146  require(msg.value >= fee.nativeFee, \"Native fee too low\") */\n      tag_166\n        /* \"#utility.yul\":15619:15961   */\n      jump\n        /* \"AthenaClientContract_compact.sol\":7089:7146  require(msg.value >= fee.nativeFee, \"Native fee too low\") */\n    tag_212:\n        /* \"AthenaClientContract_compact.sol\":7178:7184  dstEid */\n      sload(0x03)\n        /* \"AthenaClientContract_compact.sol\":7157:7310  _lzSend(... */\n      0x40\n      dup1\n      mload\n      0x20\n      0x1f\n      dup8\n      add\n      dup2\n      swap1\n      div\n      dup2\n      mul\n      dup3\n      add\n      dup2\n      add\n      swap1\n      swap3\n      mstore\n      dup6\n      dup2\n      mstore\n      tag_215\n      swap3\n        /* \"AthenaClientContract_compact.sol\":7178:7184  dstEid */\n      0xffffffff\n      and\n      swap2\n        /* \"AthenaClientContract_compact.sol\":7198:7205  payload */\n      dup6\n      swap2\n        /* \"AthenaClientContract_compact.sol\":7157:7310  _lzSend(... */\n      swap1\n        /* \"AthenaClientContract_compact.sol\":7219:7227  _options */\n      dup9\n      swap1\n      dup9\n      swap1\n      dup2\n      swap1\n        /* \"AthenaClientContract_compact.sol\":7157:7310  _lzSend(... */\n      dup5\n      add\n        /* \"AthenaClientContract_compact.sol\":7219:7227  _options */\n      dup4\n      dup3\n      dup1\n      dup3\n        /* \"AthenaClientContract_compact.sol\":7157:7310  _lzSend(... */\n      dup5\n      calldatacopy\n      0x00\n      swap3\n      add\n      dup3\n      swap1\n      mstore\n      pop\n        /* \"AthenaClientContract_compact.sol\":7241:7267  MessagingFee(msg.value, 0) */\n      0x40\n      dup1\n      mload\n      dup1\n      dup3\n      add\n      swap1\n      swap2\n      mstore\n        /* \"AthenaClientContract_compact.sol\":7254:7263  msg.value */\n      callvalue\n        /* \"AthenaClientContract_compact.sol\":7241:7267  MessagingFee(msg.value, 0) */\n      dup2\n      mstore\n      0x20\n      dup2\n      add\n      swap2\n      swap1\n      swap2\n      mstore\n      swap3\n      pop\n        /* \"AthenaClientContract_compact.sol\":7289:7299  msg.sender */\n      caller\n      swap2\n      pop\n        /* \"AthenaClientContract_compact.sol\":7157:7164  _lzSend */\n      tag_216\n      swap1\n      pop\n        /* \"AthenaClientContract_compact.sol\":7157:7310  _lzSend(... */\n      jump\t// in\n    tag_215:\n      pop\n        /* \"AthenaClientContract_compact.sol\":7353:7359  dstEid */\n      sload(0x03)\n        /* \"AthenaClientContract_compact.sol\":7326:7399  SkillVerificationRequested(dstEid, msg.sender, skill, proofHash, usdtFee) */\n      mload(0x40)\n        /* \"AthenaClientContract_compact.sol\":7361:7371  msg.sender */\n      caller\n      swap2\n        /* \"AthenaClientContract_compact.sol\":7353:7359  dstEid */\n      0xffffffff\n      and\n      swap1\n        /* \"AthenaClientContract_compact.sol\":7326:7399  SkillVerificationRequested(dstEid, msg.sender, skill, proofHash, usdtFee) */\n      0x3e4b07ba31c4d6796b7895fe18e7487bcdb46a957f3f6fb31852f8134028ea7f\n      swap1\n      tag_217\n      swap1\n        /* \"AthenaClientContract_compact.sol\":7373:7378  skill */\n      dup12\n      swap1\n        /* \"AthenaClientContract_compact.sol\":7380:7389  proofHash */\n      dup12\n      swap1\n        /* \"AthenaClientContract_compact.sol\":7391:7398  usdtFee */\n      dup12\n      swap1\n        /* \"AthenaClientContract_compact.sol\":7326:7399  SkillVerificationRequested(dstEid, msg.sender, skill, proofHash, usdtFee) */\n      tag_218\n      jump\t// in\n    tag_217:\n      mload(0x40)\n      dup1\n      swap2\n      sub\n      swap1\n      log3\n        /* \"AthenaClientContract_compact.sol\":6465:7406  {... */\n      pop\n      pop\n        /* \"@openzeppelin/contracts/security/ReentrancyGuard.sol\":2303:2323  _nonReentrantAfter() */\n      tag_219\n        /* \"@openzeppelin/contracts/security/ReentrancyGuard.sol\":1716:1717  1 */\n      0x01\n        /* \"@openzeppelin/contracts/security/ReentrancyGuard.sol\":2809:2816  _status */\n      0x02\n        /* \"@openzeppelin/contracts/security/ReentrancyGuard.sol\":2809:2831  _status = _NOT_ENTERED */\n      sstore\n        /* \"@openzeppelin/contracts/security/ReentrancyGuard.sol\":2629:2838  function _nonReentrantAfter() private {... */\n      jump\n        /* \"@openzeppelin/contracts/security/ReentrancyGuard.sol\":2303:2323  _nonReentrantAfter() */\n    tag_219:\n        /* \"AthenaClientContract_compact.sol\":6275:7406  function requestSkillVerification(... */\n      pop\n      pop\n      pop\n      pop\n      pop\n      jump\t// out\n        /* \"AthenaClientContract_compact.sol\":3640:4932  function raiseDispute(... */\n    tag_63:\n        /* \"@openzeppelin/contracts/security/ReentrancyGuard.sol\":2261:2282  _nonReentrantBefore() */\n      tag_222\n        /* \"@openzeppelin/contracts/security/ReentrancyGuard.sol\":2261:2280  _nonReentrantBefore */\n      tag_188\n        /* \"@openzeppelin/contracts/security/ReentrancyGuard.sol\":2261:2282  _nonReentrantBefore() */\n      jump\t// in\n    tag_222:\n        /* \"AthenaClientContract_compact.sol\":3926:3927  0 */\n      0x00\n        /* \"AthenaClientContract_compact.sol\":3904:3915  disputeHash */\n      dup6\n        /* \"AthenaClientContract_compact.sol\":3898:3923  bytes(disputeHash).length */\n      mload\n        /* \"AthenaClientContract_compact.sol\":3898:3927  bytes(disputeHash).length > 0 */\n      gt\n        /* \"AthenaClientContract_compact.sol\":3890:3950  require(bytes(disputeHash).length > 0, \"Dispute hash empty\") */\n      tag_224\n      jumpi\n      mload(0x40)\n      shl(0xe5, 0x461bcd)\n      dup2\n      mstore\n        /* \"#utility.yul\":16627:16629   */\n      0x20\n        /* \"AthenaClientContract_compact.sol\":3890:3950  require(bytes(disputeHash).length > 0, \"Dispute hash empty\") */\n      0x04\n      dup3\n      add\n        /* \"#utility.yul\":16609:16630   */\n      mstore\n        /* \"#utility.yul\":16666:16668   */\n      0x12\n        /* \"#utility.yul\":16646:16664   */\n      0x24\n      dup3\n      add\n        /* \"#utility.yul\":16639:16669   */\n      mstore\n      shl(0x70, 0x44697370757465206861736820656d707479)\n        /* \"#utility.yul\":16685:16703   */\n      0x44\n      dup3\n      add\n        /* \"#utility.yul\":16678:16726   */\n      mstore\n        /* \"#utility.yul\":16743:16761   */\n      0x64\n      add\n        /* \"AthenaClientContract_compact.sol\":3890:3950  require(bytes(disputeHash).length > 0, \"Dispute hash empty\") */\n      tag_166\n        /* \"#utility.yul\":16425:16767   */\n      jump\n        /* \"AthenaClientContract_compact.sol\":3890:3950  require(bytes(disputeHash).length > 0, \"Dispute hash empty\") */\n    tag_224:\n        /* \"AthenaClientContract_compact.sol\":3995:3996  0 */\n      0x00\n        /* \"AthenaClientContract_compact.sol\":3974:3984  oracleName */\n      dup5\n        /* \"AthenaClientContract_compact.sol\":3968:3992  bytes(oracleName).length */\n      mload\n        /* \"AthenaClientContract_compact.sol\":3968:3996  bytes(oracleName).length > 0 */\n      gt\n        /* \"AthenaClientContract_compact.sol\":3960:4018  require(bytes(oracleName).length > 0, \"Oracle name empty\") */\n      tag_227\n      jumpi\n      mload(0x40)\n      shl(0xe5, 0x461bcd)\n      dup2\n      mstore\n        /* \"#utility.yul\":16974:16976   */\n      0x20\n        /* \"AthenaClientContract_compact.sol\":3960:4018  require(bytes(oracleName).length > 0, \"Oracle name empty\") */\n      0x04\n      dup3\n      add\n        /* \"#utility.yul\":16956:16977   */\n      mstore\n        /* \"#utility.yul\":17013:17015   */\n      0x11\n        /* \"#utility.yul\":16993:17011   */\n      0x24\n      dup3\n      add\n        /* \"#utility.yul\":16986:17016   */\n      mstore\n      shl(0x78, 0x4f7261636c65206e616d6520656d707479)\n        /* \"#utility.yul\":17032:17050   */\n      0x44\n      dup3\n      add\n        /* \"#utility.yul\":17025:17072   */\n      mstore\n        /* \"#utility.yul\":17089:17107   */\n      0x64\n      add\n        /* \"AthenaClientContract_compact.sol\":3960:4018  require(bytes(oracleName).length > 0, \"Oracle name empty\") */\n      tag_166\n        /* \"#utility.yul\":16772:17113   */\n      jump\n        /* \"AthenaClientContract_compact.sol\":3960:4018  require(bytes(oracleName).length > 0, \"Oracle name empty\") */\n    tag_227:\n        /* \"AthenaClientContract_compact.sol\":4046:4047  0 */\n      0x00\n        /* \"AthenaClientContract_compact.sol\":4036:4043  usdtFee */\n      dup4\n        /* \"AthenaClientContract_compact.sol\":4036:4047  usdtFee > 0 */\n      gt\n        /* \"AthenaClientContract_compact.sol\":4028:4065  require(usdtFee > 0, \"USDT fee zero\") */\n      tag_230\n      jumpi\n      mload(0x40)\n      shl(0xe5, 0x461bcd)\n      dup2\n      mstore\n        /* \"#utility.yul\":13101:13103   */\n      0x20\n        /* \"AthenaClientContract_compact.sol\":4028:4065  require(usdtFee > 0, \"USDT fee zero\") */\n      0x04\n      dup3\n      add\n        /* \"#utility.yul\":13083:13104   */\n      mstore\n        /* \"#utility.yul\":13140:13142   */\n      0x0d\n        /* \"#utility.yul\":13120:13138   */\n      0x24\n      dup3\n      add\n        /* \"#utility.yul\":13113:13143   */\n      mstore\n      shl(0x98, 0x5553445420666565207a65726f)\n        /* \"#utility.yul\":13159:13177   */\n      0x44\n      dup3\n      add\n        /* \"#utility.yul\":13152:13195   */\n      mstore\n        /* \"#utility.yul\":13212:13230   */\n      0x64\n      add\n        /* \"AthenaClientContract_compact.sol\":4028:4065  require(usdtFee > 0, \"USDT fee zero\") */\n      tag_166\n        /* \"#utility.yul\":12899:13236   */\n      jump\n        /* \"AthenaClientContract_compact.sol\":4028:4065  require(usdtFee > 0, \"USDT fee zero\") */\n    tag_230:\n        /* \"AthenaClientContract_compact.sol\":4100:4101  0 */\n      0x00\n        /* \"AthenaClientContract_compact.sol\":4083:4097  disputedAmount */\n      dup7\n        /* \"AthenaClientContract_compact.sol\":4083:4101  disputedAmount > 0 */\n      gt\n        /* \"AthenaClientContract_compact.sol\":4075:4126  require(disputedAmount > 0, \"Disputed amount zero\") */\n      tag_232\n      jumpi\n      mload(0x40)\n      shl(0xe5, 0x461bcd)\n      dup2\n      mstore\n        /* \"#utility.yul\":17320:17322   */\n      0x20\n        /* \"AthenaClientContract_compact.sol\":4075:4126  require(disputedAmount > 0, \"Disputed amount zero\") */\n      0x04\n      dup3\n      add\n        /* \"#utility.yul\":17302:17323   */\n      mstore\n        /* \"#utility.yul\":17359:17361   */\n      0x14\n        /* \"#utility.yul\":17339:17357   */\n      0x24\n      dup3\n      add\n        /* \"#utility.yul\":17332:17362   */\n      mstore\n        /* \"#utility.yul\":17398:17420   */\n      0x446973707574656420616d6f756e74207a65726f000000000000000000000000\n        /* \"#utility.yul\":17378:17396   */\n      0x44\n      dup3\n      add\n        /* \"#utility.yul\":17371:17421   */\n      mstore\n        /* \"#utility.yul\":17438:17456   */\n      0x64\n      add\n        /* \"AthenaClientContract_compact.sol\":4075:4126  require(disputedAmount > 0, \"Disputed amount zero\") */\n      tag_166\n        /* \"#utility.yul\":17118:17462   */\n      jump\n        /* \"AthenaClientContract_compact.sol\":4075:4126  require(disputedAmount > 0, \"Disputed amount zero\") */\n    tag_232:\n        /* \"AthenaClientContract_compact.sol\":4200:4257  usdToken.transferFrom(msg.sender, address(this), usdtFee) */\n      mload(0x40)\n      shl(0xe0, 0x23b872dd)\n      dup2\n      mstore\n        /* \"AthenaClientContract_compact.sol\":4222:4232  msg.sender */\n      caller\n        /* \"AthenaClientContract_compact.sol\":4200:4257  usdToken.transferFrom(msg.sender, address(this), usdtFee) */\n      0x04\n      dup3\n      add\n        /* \"#utility.yul\":13443:13517   */\n      mstore\n        /* \"AthenaClientContract_compact.sol\":4242:4246  this */\n      address\n        /* \"#utility.yul\":13533:13551   */\n      0x24\n      dup3\n      add\n        /* \"#utility.yul\":13526:13609   */\n      mstore\n        /* \"#utility.yul\":13625:13643   */\n      0x44\n      dup2\n      add\n        /* \"#utility.yul\":13618:13652   */\n      dup5\n      swap1\n      mstore\n        /* \"AthenaClientContract_compact.sol\":4200:4208  usdToken */\n      immutable(\"0x551ebb3edb72774934e005837770de585c3863f1eef743adee80bd22fdce145f\")\n      sub(shl(0xa0, 0x01), 0x01)\n        /* \"AthenaClientContract_compact.sol\":4200:4221  usdToken.transferFrom */\n      and\n      swap1\n      0x23b872dd\n      swap1\n        /* \"#utility.yul\":13416:13434   */\n      0x64\n      add\n        /* \"AthenaClientContract_compact.sol\":4200:4257  usdToken.transferFrom(msg.sender, address(this), usdtFee) */\n      0x20\n      mload(0x40)\n      dup1\n      dup4\n      sub\n      dup2\n      0x00\n      dup8\n      gas\n      call\n      iszero\n      dup1\n      iszero\n      tag_237\n      jumpi\n      returndatasize\n      0x00\n      dup1\n      returndatacopy\n      revert(0x00, returndatasize)\n    tag_237:\n      pop\n      pop\n      pop\n      pop\n      mload(0x40)\n      returndatasize\n      not(0x1f)\n      0x1f\n      dup3\n      add\n      and\n      dup3\n      add\n      dup1\n      0x40\n      mstore\n      pop\n      dup2\n      add\n      swap1\n      tag_238\n      swap2\n      swap1\n      tag_204\n      jump\t// in\n    tag_238:\n        /* \"AthenaClientContract_compact.sol\":4179:4303  require(... */\n      tag_239\n      jumpi\n      mload(0x40)\n      shl(0xe5, 0x461bcd)\n      dup2\n      mstore\n        /* \"#utility.yul\":14238:14240   */\n      0x20\n        /* \"AthenaClientContract_compact.sol\":4179:4303  require(... */\n      0x04\n      dup3\n      add\n        /* \"#utility.yul\":14220:14241   */\n      mstore\n        /* \"#utility.yul\":14277:14279   */\n      0x14\n        /* \"#utility.yul\":14257:14275   */\n      0x24\n      dup3\n      add\n        /* \"#utility.yul\":14250:14280   */\n      mstore\n      shl(0x62, 0x1554d115081d1c985b9cd9995c8819985a5b1959)\n        /* \"#utility.yul\":14296:14314   */\n      0x44\n      dup3\n      add\n        /* \"#utility.yul\":14289:14339   */\n      mstore\n        /* \"#utility.yul\":14356:14374   */\n      0x64\n      add\n        /* \"AthenaClientContract_compact.sol\":4179:4303  require(... */\n      tag_166\n        /* \"#utility.yul\":14036:14380   */\n      jump\n        /* \"AthenaClientContract_compact.sol\":4179:4303  require(... */\n    tag_239:\n        /* \"AthenaClientContract_compact.sol\":4353:4373  bytes memory payload */\n      0x00\n        /* \"AthenaClientContract_compact.sol\":4403:4413  msg.sender */\n      caller\n        /* \"AthenaClientContract_compact.sol\":4415:4420  jobId */\n      dup9\n        /* \"AthenaClientContract_compact.sol\":4422:4436  disputedAmount */\n      dup9\n        /* \"AthenaClientContract_compact.sol\":4438:4449  disputeHash */\n      dup9\n        /* \"AthenaClientContract_compact.sol\":4451:4461  oracleName */\n      dup9\n        /* \"AthenaClientContract_compact.sol\":4463:4470  usdtFee */\n      dup9\n        /* \"AthenaClientContract_compact.sol\":4376:4471  abi.encode(\"raiseDispute\", msg.sender, jobId, disputedAmount, disputeHash, oracleName, usdtFee) */\n      add(0x20, mload(0x40))\n      tag_241\n      swap7\n      swap6\n      swap5\n      swap4\n      swap3\n      swap2\n      swap1\n      tag_242\n      jump\t// in\n    tag_241:\n      0x40\n      dup1\n      mload\n      not(0x1f)\n      dup2\n      dup5\n      sub\n      add\n      dup2\n      mstore\n        /* \"AthenaClientContract_compact.sol\":4555:4561  dstEid */\n      sload(0x03)\n        /* \"AthenaClientContract_compact.sol\":4376:4471  abi.encode(\"raiseDispute\", msg.sender, jobId, disputedAmount, disputeHash, oracleName, usdtFee) */\n      0x20\n        /* \"AthenaClientContract_compact.sol\":4548:4588  _quote(dstEid, payload, _options, false) */\n      0x1f\n      dup8\n      add\n      dup2\n      swap1\n      div\n      dup2\n      mul\n      dup6\n      add\n      dup2\n      add\n      swap1\n      swap4\n      mstore\n      dup6\n      dup5\n      mstore\n        /* \"AthenaClientContract_compact.sol\":4376:4471  abi.encode(\"raiseDispute\", msg.sender, jobId, disputedAmount, disputeHash, oracleName, usdtFee) */\n      swap1\n      swap4\n      pop\n        /* \"AthenaClientContract_compact.sol\":4522:4545  MessagingFee memory fee */\n      0x00\n      swap3\n        /* \"AthenaClientContract_compact.sol\":4548:4588  _quote(dstEid, payload, _options, false) */\n      tag_243\n      swap3\n        /* \"AthenaClientContract_compact.sol\":4555:4561  dstEid */\n      0xffffffff\n      swap1\n      swap3\n      and\n      swap2\n        /* \"AthenaClientContract_compact.sol\":4376:4471  abi.encode(\"raiseDispute\", msg.sender, jobId, disputedAmount, disputeHash, oracleName, usdtFee) */\n      dup6\n      swap2\n      swap1\n        /* \"AthenaClientContract_compact.sol\":4572:4580  _options */\n      dup9\n      swap1\n      dup9\n      swap1\n      dup2\n      swap1\n        /* \"AthenaClientContract_compact.sol\":4548:4588  _quote(dstEid, payload, _options, false) */\n      dup5\n      add\n        /* \"AthenaClientContract_compact.sol\":4572:4580  _options */\n      dup4\n      dup3\n      dup1\n      dup3\n        /* \"AthenaClientContract_compact.sol\":4548:4588  _quote(dstEid, payload, _options, false) */\n      dup5\n      calldatacopy\n      0x00\n      swap3\n      add\n      dup3\n      swap1\n      mstore\n      pop\n      swap3\n      pop\n        /* \"AthenaClientContract_compact.sol\":4548:4554  _quote */\n      tag_211\n      swap2\n      pop\n      pop\n        /* \"AthenaClientContract_compact.sol\":4548:4588  _quote(dstEid, payload, _options, false) */\n      jump\t// in\n    tag_243:\n        /* \"AthenaClientContract_compact.sol\":4619:4632  fee.nativeFee */\n      dup1\n      mload\n        /* \"AthenaClientContract_compact.sol\":4522:4588  MessagingFee memory fee = _quote(dstEid, payload, _options, false) */\n      swap1\n      swap2\n      pop\n        /* \"AthenaClientContract_compact.sol\":4606:4615  msg.value */\n      callvalue\n        /* \"AthenaClientContract_compact.sol\":4606:4632  msg.value >= fee.nativeFee */\n      lt\n      iszero\n        /* \"AthenaClientContract_compact.sol\":4598:4655  require(msg.value >= fee.nativeFee, \"Native fee too low\") */\n      tag_244\n      jumpi\n      mload(0x40)\n      shl(0xe5, 0x461bcd)\n      dup2\n      mstore\n        /* \"#utility.yul\":15821:15823   */\n      0x20\n        /* \"AthenaClientContract_compact.sol\":4598:4655  require(msg.value >= fee.nativeFee, \"Native fee too low\") */\n      0x04\n      dup3\n      add\n        /* \"#utility.yul\":15803:15824   */\n      mstore\n        /* \"#utility.yul\":15860:15862   */\n      0x12\n        /* \"#utility.yul\":15840:15858   */\n      0x24\n      dup3\n      add\n        /* \"#utility.yul\":15833:15863   */\n      mstore\n      shl(0x70, 0x4e61746976652066656520746f6f206c6f77)\n        /* \"#utility.yul\":15879:15897   */\n      0x44\n      dup3\n      add\n        /* \"#utility.yul\":15872:15920   */\n      mstore\n        /* \"#utility.yul\":15937:15955   */\n      0x64\n      add\n        /* \"AthenaClientContract_compact.sol\":4598:4655  require(msg.value >= fee.nativeFee, \"Native fee too low\") */\n      tag_166\n        /* \"#utility.yul\":15619:15961   */\n      jump\n        /* \"AthenaClientContract_compact.sol\":4598:4655  require(msg.value >= fee.nativeFee, \"Native fee too low\") */\n    tag_244:\n        /* \"AthenaClientContract_compact.sol\":4687:4693  dstEid */\n      sload(0x03)\n        /* \"AthenaClientContract_compact.sol\":4666:4819  _lzSend(... */\n      0x40\n      dup1\n      mload\n      0x20\n      0x1f\n      dup8\n      add\n      dup2\n      swap1\n      div\n      dup2\n      mul\n      dup3\n      add\n      dup2\n      add\n      swap1\n      swap3\n      mstore\n      dup6\n      dup2\n      mstore\n      tag_246\n      swap3\n        /* \"AthenaClientContract_compact.sol\":4687:4693  dstEid */\n      0xffffffff\n      and\n      swap2\n        /* \"AthenaClientContract_compact.sol\":4707:4714  payload */\n      dup6\n      swap2\n        /* \"AthenaClientContract_compact.sol\":4666:4819  _lzSend(... */\n      swap1\n        /* \"AthenaClientContract_compact.sol\":4728:4736  _options */\n      dup9\n      swap1\n      dup9\n      swap1\n      dup2\n      swap1\n        /* \"AthenaClientContract_compact.sol\":4666:4819  _lzSend(... */\n      dup5\n      add\n        /* \"AthenaClientContract_compact.sol\":4728:4736  _options */\n      dup4\n      dup3\n      dup1\n      dup3\n        /* \"AthenaClientContract_compact.sol\":4666:4819  _lzSend(... */\n      dup5\n      calldatacopy\n      0x00\n      swap3\n      add\n      dup3\n      swap1\n      mstore\n      pop\n        /* \"AthenaClientContract_compact.sol\":4750:4776  MessagingFee(msg.value, 0) */\n      0x40\n      dup1\n      mload\n      dup1\n      dup3\n      add\n      swap1\n      swap2\n      mstore\n        /* \"AthenaClientContract_compact.sol\":4763:4772  msg.value */\n      callvalue\n        /* \"AthenaClientContract_compact.sol\":4750:4776  MessagingFee(msg.value, 0) */\n      dup2\n      mstore\n      0x20\n      dup2\n      add\n      swap2\n      swap1\n      swap2\n      mstore\n      swap3\n      pop\n        /* \"AthenaClientContract_compact.sol\":4798:4808  msg.sender */\n      caller\n      swap2\n      pop\n        /* \"AthenaClientContract_compact.sol\":4666:4673  _lzSend */\n      tag_216\n      swap1\n      pop\n        /* \"AthenaClientContract_compact.sol\":4666:4819  _lzSend(... */\n      jump\t// in\n    tag_246:\n      pop\n        /* \"AthenaClientContract_compact.sol\":4849:4855  dstEid */\n      sload(0x03)\n        /* \"AthenaClientContract_compact.sol\":4835:4925  DisputeRaised(dstEid, msg.sender, jobId, disputedAmount, disputeHash, oracleName, usdtFee) */\n      mload(0x40)\n        /* \"AthenaClientContract_compact.sol\":4857:4867  msg.sender */\n      caller\n      swap2\n        /* \"AthenaClientContract_compact.sol\":4849:4855  dstEid */\n      0xffffffff\n      and\n      swap1\n        /* \"AthenaClientContract_compact.sol\":4835:4925  DisputeRaised(dstEid, msg.sender, jobId, disputedAmount, disputeHash, oracleName, usdtFee) */\n      0x1dcd71fb8aae58eea5679631d43661566ea0dee46f7435c2a70f5604ff92bb05\n      swap1\n      tag_247\n      swap1\n        /* \"AthenaClientContract_compact.sol\":4869:4874  jobId */\n      dup14\n      swap1\n        /* \"AthenaClientContract_compact.sol\":4876:4890  disputedAmount */\n      dup14\n      swap1\n        /* \"AthenaClientContract_compact.sol\":4892:4903  disputeHash */\n      dup14\n      swap1\n        /* \"AthenaClientContract_compact.sol\":4905:4915  oracleName */\n      dup14\n      swap1\n        /* \"AthenaClientContract_compact.sol\":4917:4924  usdtFee */\n      dup14\n      swap1\n        /* \"AthenaClientContract_compact.sol\":4835:4925  DisputeRaised(dstEid, msg.sender, jobId, disputedAmount, disputeHash, oracleName, usdtFee) */\n      tag_248\n      jump\t// in\n    tag_247:\n      mload(0x40)\n      dup1\n      swap2\n      sub\n      swap1\n      log3\n        /* \"AthenaClientContract_compact.sol\":3880:4932  {... */\n      pop\n      pop\n        /* \"@openzeppelin/contracts/security/ReentrancyGuard.sol\":2303:2323  _nonReentrantAfter() */\n      tag_178\n        /* \"@openzeppelin/contracts/security/ReentrancyGuard.sol\":1716:1717  1 */\n      0x01\n        /* \"@openzeppelin/contracts/security/ReentrancyGuard.sol\":2809:2816  _status */\n      0x02\n        /* \"@openzeppelin/contracts/security/ReentrancyGuard.sol\":2809:2831  _status = _NOT_ENTERED */\n      sstore\n        /* \"@openzeppelin/contracts/security/ReentrancyGuard.sol\":2629:2838  function _nonReentrantAfter() private {... */\n      jump\n        /* \"@openzeppelin/contracts/access/Ownable.sol\":2293:2394  function renounceOwnership() public virtual onlyOwner {... */\n    tag_71:\n        /* \"@openzeppelin/contracts/access/Ownable.sol\":1531:1544  _checkOwner() */\n      tag_251\n        /* \"@openzeppelin/contracts/access/Ownable.sol\":1531:1542  _checkOwner */\n      tag_163\n        /* \"@openzeppelin/contracts/access/Ownable.sol\":1531:1544  _checkOwner() */\n      jump\t// in\n    tag_251:\n        /* \"@openzeppelin/contracts/access/Ownable.sol\":2357:2387  _transferOwnership(address(0)) */\n      tag_253\n        /* \"@openzeppelin/contracts/access/Ownable.sol\":2384:2385  0 */\n      0x00\n        /* \"@openzeppelin/contracts/access/Ownable.sol\":2357:2375  _transferOwnership */\n      tag_254\n        /* \"@openzeppelin/contracts/access/Ownable.sol\":2357:2387  _transferOwnership(address(0)) */\n      jump\t// in\n    tag_253:\n        /* \"@openzeppelin/contracts/access/Ownable.sol\":2293:2394  function renounceOwnership() public virtual onlyOwner {... */\n      jump\t// out\n        /* \"AthenaClientContract_compact.sol\":5099:5775  function claimDisputedAmount(... */\n    tag_86:\n        /* \"@openzeppelin/contracts/security/ReentrancyGuard.sol\":2261:2282  _nonReentrantBefore() */\n      tag_257\n        /* \"@openzeppelin/contracts/security/ReentrancyGuard.sol\":2261:2280  _nonReentrantBefore */\n      tag_188\n        /* \"@openzeppelin/contracts/security/ReentrancyGuard.sol\":2261:2282  _nonReentrantBefore() */\n      jump\t// in\n    tag_257:\n        /* \"AthenaClientContract_compact.sol\":5296:5352  abi.encode(\"claimDisputedAmount\", msg.sender, disputeId) */\n      0x40\n      dup1\n      mload\n        /* \"#utility.yul\":19290:19292   */\n      0x60\n        /* \"AthenaClientContract_compact.sol\":5296:5352  abi.encode(\"claimDisputedAmount\", msg.sender, disputeId) */\n      0x20\n      dup3\n      add\n        /* \"#utility.yul\":19272:19293   */\n      dup2\n      swap1\n      mstore\n        /* \"#utility.yul\":19329:19331   */\n      0x13\n        /* \"#utility.yul\":19309:19327   */\n      0x80\n      dup4\n      add\n        /* \"#utility.yul\":19302:19332   */\n      mstore\n      shl(0x6a, 0x18db185a5b511a5cdc1d5d1959105b5bdd5b9d)\n        /* \"#utility.yul\":19348:19367   */\n      0xa0\n      dup4\n      add\n        /* \"#utility.yul\":19341:19391   */\n      mstore\n        /* \"AthenaClientContract_compact.sol\":5330:5340  msg.sender */\n      caller\n        /* \"#utility.yul\":19443:19463   */\n      swap3\n      dup3\n      add\n        /* \"#utility.yul\":19436:19521   */\n      swap3\n      swap1\n      swap3\n      mstore\n        /* \"#utility.yul\":19537:19555   */\n      swap1\n      dup2\n      add\n        /* \"#utility.yul\":19530:19564   */\n      dup5\n      swap1\n      mstore\n        /* \"AthenaClientContract_compact.sol\":5273:5293  bytes memory payload */\n      0x00\n      swap1\n        /* \"#utility.yul\":19408:19427   */\n      0xc0\n      add\n        /* \"AthenaClientContract_compact.sol\":5296:5352  abi.encode(\"claimDisputedAmount\", msg.sender, disputeId) */\n      0x40\n      dup1\n      mload\n      not(0x1f)\n      dup2\n      dup5\n      sub\n      add\n      dup2\n      mstore\n        /* \"AthenaClientContract_compact.sol\":5436:5442  dstEid */\n      sload(0x03)\n        /* \"AthenaClientContract_compact.sol\":5296:5352  abi.encode(\"claimDisputedAmount\", msg.sender, disputeId) */\n      0x20\n        /* \"AthenaClientContract_compact.sol\":5429:5469  _quote(dstEid, payload, _options, false) */\n      0x1f\n      dup8\n      add\n      dup2\n      swap1\n      div\n      dup2\n      mul\n      dup6\n      add\n      dup2\n      add\n      swap1\n      swap4\n      mstore\n      dup6\n      dup5\n      mstore\n        /* \"AthenaClientContract_compact.sol\":5296:5352  abi.encode(\"claimDisputedAmount\", msg.sender, disputeId) */\n      swap1\n      swap4\n      pop\n        /* \"AthenaClientContract_compact.sol\":5403:5426  MessagingFee memory fee */\n      0x00\n      swap3\n        /* \"AthenaClientContract_compact.sol\":5429:5469  _quote(dstEid, payload, _options, false) */\n      tag_261\n      swap3\n        /* \"AthenaClientContract_compact.sol\":5436:5442  dstEid */\n      0xffffffff\n      swap1\n      swap3\n      and\n      swap2\n        /* \"AthenaClientContract_compact.sol\":5296:5352  abi.encode(\"claimDisputedAmount\", msg.sender, disputeId) */\n      dup6\n      swap2\n      swap1\n        /* \"AthenaClientContract_compact.sol\":5453:5461  _options */\n      dup9\n      swap1\n      dup9\n      swap1\n      dup2\n      swap1\n        /* \"AthenaClientContract_compact.sol\":5429:5469  _quote(dstEid, payload, _options, false) */\n      dup5\n      add\n        /* \"AthenaClientContract_compact.sol\":5453:5461  _options */\n      dup4\n      dup3\n      dup1\n      dup3\n        /* \"AthenaClientContract_compact.sol\":5429:5469  _quote(dstEid, payload, _options, false) */\n      dup5\n      calldatacopy\n      0x00\n      swap3\n      add\n      dup3\n      swap1\n      mstore\n      pop\n      swap3\n      pop\n        /* \"AthenaClientContract_compact.sol\":5429:5435  _quote */\n      tag_211\n      swap2\n      pop\n      pop\n        /* \"AthenaClientContract_compact.sol\":5429:5469  _quote(dstEid, payload, _options, false) */\n      jump\t// in\n    tag_261:\n        /* \"AthenaClientContract_compact.sol\":5500:5513  fee.nativeFee */\n      dup1\n      mload\n        /* \"AthenaClientContract_compact.sol\":5403:5469  MessagingFee memory fee = _quote(dstEid, payload, _options, false) */\n      swap1\n      swap2\n      pop\n        /* \"AthenaClientContract_compact.sol\":5487:5496  msg.value */\n      callvalue\n        /* \"AthenaClientContract_compact.sol\":5487:5513  msg.value >= fee.nativeFee */\n      lt\n      iszero\n        /* \"AthenaClientContract_compact.sol\":5479:5536  require(msg.value >= fee.nativeFee, \"Native fee too low\") */\n      tag_262\n      jumpi\n      mload(0x40)\n      shl(0xe5, 0x461bcd)\n      dup2\n      mstore\n        /* \"#utility.yul\":15821:15823   */\n      0x20\n        /* \"AthenaClientContract_compact.sol\":5479:5536  require(msg.value >= fee.nativeFee, \"Native fee too low\") */\n      0x04\n      dup3\n      add\n        /* \"#utility.yul\":15803:15824   */\n      mstore\n        /* \"#utility.yul\":15860:15862   */\n      0x12\n        /* \"#utility.yul\":15840:15858   */\n      0x24\n      dup3\n      add\n        /* \"#utility.yul\":15833:15863   */\n      mstore\n      shl(0x70, 0x4e61746976652066656520746f6f206c6f77)\n        /* \"#utility.yul\":15879:15897   */\n      0x44\n      dup3\n      add\n        /* \"#utility.yul\":15872:15920   */\n      mstore\n        /* \"#utility.yul\":15937:15955   */\n      0x64\n      add\n        /* \"AthenaClientContract_compact.sol\":5479:5536  require(msg.value >= fee.nativeFee, \"Native fee too low\") */\n      tag_166\n        /* \"#utility.yul\":15619:15961   */\n      jump\n        /* \"AthenaClientContract_compact.sol\":5479:5536  require(msg.value >= fee.nativeFee, \"Native fee too low\") */\n    tag_262:\n        /* \"AthenaClientContract_compact.sol\":5568:5574  dstEid */\n      sload(0x03)\n        /* \"AthenaClientContract_compact.sol\":5547:5700  _lzSend(... */\n      0x40\n      dup1\n      mload\n      0x20\n      0x1f\n      dup8\n      add\n      dup2\n      swap1\n      div\n      dup2\n      mul\n      dup3\n      add\n      dup2\n      add\n      swap1\n      swap3\n      mstore\n      dup6\n      dup2\n      mstore\n      tag_264\n      swap3\n        /* \"AthenaClientContract_compact.sol\":5568:5574  dstEid */\n      0xffffffff\n      and\n      swap2\n        /* \"AthenaClientContract_compact.sol\":5588:5595  payload */\n      dup6\n      swap2\n        /* \"AthenaClientContract_compact.sol\":5547:5700  _lzSend(... */\n      swap1\n        /* \"AthenaClientContract_compact.sol\":5609:5617  _options */\n      dup9\n      swap1\n      dup9\n      swap1\n      dup2\n      swap1\n        /* \"AthenaClientContract_compact.sol\":5547:5700  _lzSend(... */\n      dup5\n      add\n        /* \"AthenaClientContract_compact.sol\":5609:5617  _options */\n      dup4\n      dup3\n      dup1\n      dup3\n        /* \"AthenaClientContract_compact.sol\":5547:5700  _lzSend(... */\n      dup5\n      calldatacopy\n      0x00\n      swap3\n      add\n      dup3\n      swap1\n      mstore\n      pop\n        /* \"AthenaClientContract_compact.sol\":5631:5657  MessagingFee(msg.value, 0) */\n      0x40\n      dup1\n      mload\n      dup1\n      dup3\n      add\n      swap1\n      swap2\n      mstore\n        /* \"AthenaClientContract_compact.sol\":5644:5653  msg.value */\n      callvalue\n        /* \"AthenaClientContract_compact.sol\":5631:5657  MessagingFee(msg.value, 0) */\n      dup2\n      mstore\n      0x20\n      dup2\n      add\n      swap2\n      swap1\n      swap2\n      mstore\n      swap3\n      pop\n        /* \"AthenaClientContract_compact.sol\":5679:5689  msg.sender */\n      caller\n      swap2\n      pop\n        /* \"AthenaClientContract_compact.sol\":5547:5554  _lzSend */\n      tag_216\n      swap1\n      pop\n        /* \"AthenaClientContract_compact.sol\":5547:5700  _lzSend(... */\n      jump\t// in\n    tag_264:\n      pop\n        /* \"AthenaClientContract_compact.sol\":5738:5744  dstEid */\n      sload(0x03)\n        /* \"AthenaClientContract_compact.sol\":5716:5768  DisputedAmountClaimed(dstEid, msg.sender, disputeId) */\n      mload(0x40)\n        /* \"#utility.yul\":10821:10846   */\n      dup7\n      dup2\n      mstore\n        /* \"AthenaClientContract_compact.sol\":5746:5756  msg.sender */\n      caller\n      swap2\n        /* \"AthenaClientContract_compact.sol\":5738:5744  dstEid */\n      0xffffffff\n      and\n      swap1\n        /* \"AthenaClientContract_compact.sol\":5716:5768  DisputedAmountClaimed(dstEid, msg.sender, disputeId) */\n      0x6541184babe530df37651624302aebdd4dd75d4f40c7d1a32dd38168fd3e5011\n      swap1\n        /* \"#utility.yul\":10809:10811   */\n      0x20\n        /* \"#utility.yul\":10794:10812   */\n      add\n        /* \"AthenaClientContract_compact.sol\":5716:5768  DisputedAmountClaimed(dstEid, msg.sender, disputeId) */\n      mload(0x40)\n      dup1\n      swap2\n      sub\n      swap1\n      log3\n        /* \"AthenaClientContract_compact.sol\":5224:5775  {... */\n      pop\n      pop\n        /* \"@openzeppelin/contracts/security/ReentrancyGuard.sol\":2303:2323  _nonReentrantAfter() */\n      tag_267\n        /* \"@openzeppelin/contracts/security/ReentrancyGuard.sol\":1716:1717  1 */\n      0x01\n        /* \"@openzeppelin/contracts/security/ReentrancyGuard.sol\":2809:2816  _status */\n      0x02\n        /* \"@openzeppelin/contracts/security/ReentrancyGuard.sol\":2809:2831  _status = _NOT_ENTERED */\n      sstore\n        /* \"@openzeppelin/contracts/security/ReentrancyGuard.sol\":2629:2838  function _nonReentrantAfter() private {... */\n      jump\n        /* \"@openzeppelin/contracts/security/ReentrancyGuard.sol\":2303:2323  _nonReentrantAfter() */\n    tag_267:\n        /* \"AthenaClientContract_compact.sol\":5099:5775  function claimDisputedAmount(... */\n      pop\n      pop\n      pop\n      jump\t// out\n        /* \"AthenaClientContract_compact.sol\":7986:9155  function askAthena(... */\n    tag_97:\n        /* \"@openzeppelin/contracts/security/ReentrancyGuard.sol\":2261:2282  _nonReentrantBefore() */\n      tag_270\n        /* \"@openzeppelin/contracts/security/ReentrancyGuard.sol\":2261:2280  _nonReentrantBefore */\n      tag_188\n        /* \"@openzeppelin/contracts/security/ReentrancyGuard.sol\":2261:2282  _nonReentrantBefore() */\n      jump\t// in\n    tag_270:\n        /* \"AthenaClientContract_compact.sol\":8243:8244  0 */\n      0x00\n        /* \"AthenaClientContract_compact.sol\":8224:8232  question */\n      dup7\n        /* \"AthenaClientContract_compact.sol\":8218:8240  bytes(question).length */\n      mload\n        /* \"AthenaClientContract_compact.sol\":8218:8244  bytes(question).length > 0 */\n      gt\n        /* \"AthenaClientContract_compact.sol\":8210:8263  require(bytes(question).length > 0, \"Question empty\") */\n      tag_272\n      jumpi\n      mload(0x40)\n      shl(0xe5, 0x461bcd)\n      dup2\n      mstore\n        /* \"#utility.yul\":19959:19961   */\n      0x20\n        /* \"AthenaClientContract_compact.sol\":8210:8263  require(bytes(question).length > 0, \"Question empty\") */\n      0x04\n      dup3\n      add\n        /* \"#utility.yul\":19941:19962   */\n      mstore\n        /* \"#utility.yul\":19998:20000   */\n      0x0e\n        /* \"#utility.yul\":19978:19996   */\n      0x24\n      dup3\n      add\n        /* \"#utility.yul\":19971:20001   */\n      mstore\n      shl(0x90, 0x5175657374696f6e20656d707479)\n        /* \"#utility.yul\":20017:20035   */\n      0x44\n      dup3\n      add\n        /* \"#utility.yul\":20010:20054   */\n      mstore\n        /* \"#utility.yul\":20071:20089   */\n      0x64\n      add\n        /* \"AthenaClientContract_compact.sol\":8210:8263  require(bytes(question).length > 0, \"Question empty\") */\n      tag_166\n        /* \"#utility.yul\":19757:20095   */\n      jump\n        /* \"AthenaClientContract_compact.sol\":8210:8263  require(bytes(question).length > 0, \"Question empty\") */\n    tag_272:\n        /* \"AthenaClientContract_compact.sol\":8308:8309  0 */\n      0x00\n        /* \"AthenaClientContract_compact.sol\":8287:8297  oracleName */\n      dup5\n        /* \"AthenaClientContract_compact.sol\":8281:8305  bytes(oracleName).length */\n      mload\n        /* \"AthenaClientContract_compact.sol\":8281:8309  bytes(oracleName).length > 0 */\n      gt\n        /* \"AthenaClientContract_compact.sol\":8273:8331  require(bytes(oracleName).length > 0, \"Oracle name empty\") */\n      tag_275\n      jumpi\n      mload(0x40)\n      shl(0xe5, 0x461bcd)\n      dup2\n      mstore\n        /* \"#utility.yul\":16974:16976   */\n      0x20\n        /* \"AthenaClientContract_compact.sol\":8273:8331  require(bytes(oracleName).length > 0, \"Oracle name empty\") */\n      0x04\n      dup3\n      add\n        /* \"#utility.yul\":16956:16977   */\n      mstore\n        /* \"#utility.yul\":17013:17015   */\n      0x11\n        /* \"#utility.yul\":16993:17011   */\n      0x24\n      dup3\n      add\n        /* \"#utility.yul\":16986:17016   */\n      mstore\n      shl(0x78, 0x4f7261636c65206e616d6520656d707479)\n        /* \"#utility.yul\":17032:17050   */\n      0x44\n      dup3\n      add\n        /* \"#utility.yul\":17025:17072   */\n      mstore\n        /* \"#utility.yul\":17089:17107   */\n      0x64\n      add\n        /* \"AthenaClientContract_compact.sol\":8273:8331  require(bytes(oracleName).length > 0, \"Oracle name empty\") */\n      tag_166\n        /* \"#utility.yul\":16772:17113   */\n      jump\n        /* \"AthenaClientContract_compact.sol\":8273:8331  require(bytes(oracleName).length > 0, \"Oracle name empty\") */\n    tag_275:\n        /* \"AthenaClientContract_compact.sol\":8359:8360  0 */\n      0x00\n        /* \"AthenaClientContract_compact.sol\":8349:8356  usdtFee */\n      dup4\n        /* \"AthenaClientContract_compact.sol\":8349:8360  usdtFee > 0 */\n      gt\n        /* \"AthenaClientContract_compact.sol\":8341:8378  require(usdtFee > 0, \"USDT fee zero\") */\n      tag_277\n      jumpi\n      mload(0x40)\n      shl(0xe5, 0x461bcd)\n      dup2\n      mstore\n        /* \"#utility.yul\":13101:13103   */\n      0x20\n        /* \"AthenaClientContract_compact.sol\":8341:8378  require(usdtFee > 0, \"USDT fee zero\") */\n      0x04\n      dup3\n      add\n        /* \"#utility.yul\":13083:13104   */\n      mstore\n        /* \"#utility.yul\":13140:13142   */\n      0x0d\n        /* \"#utility.yul\":13120:13138   */\n      0x24\n      dup3\n      add\n        /* \"#utility.yul\":13113:13143   */\n      mstore\n      shl(0x98, 0x5553445420666565207a65726f)\n        /* \"#utility.yul\":13159:13177   */\n      0x44\n      dup3\n      add\n        /* \"#utility.yul\":13152:13195   */\n      mstore\n        /* \"#utility.yul\":13212:13230   */\n      0x64\n      add\n        /* \"AthenaClientContract_compact.sol\":8341:8378  require(usdtFee > 0, \"USDT fee zero\") */\n      tag_166\n        /* \"#utility.yul\":12899:13236   */\n      jump\n        /* \"AthenaClientContract_compact.sol\":8341:8378  require(usdtFee > 0, \"USDT fee zero\") */\n    tag_277:\n        /* \"AthenaClientContract_compact.sol\":8452:8509  usdToken.transferFrom(msg.sender, address(this), usdtFee) */\n      mload(0x40)\n      shl(0xe0, 0x23b872dd)\n      dup2\n      mstore\n        /* \"AthenaClientContract_compact.sol\":8474:8484  msg.sender */\n      caller\n        /* \"AthenaClientContract_compact.sol\":8452:8509  usdToken.transferFrom(msg.sender, address(this), usdtFee) */\n      0x04\n      dup3\n      add\n        /* \"#utility.yul\":13443:13517   */\n      mstore\n        /* \"AthenaClientContract_compact.sol\":8494:8498  this */\n      address\n        /* \"#utility.yul\":13533:13551   */\n      0x24\n      dup3\n      add\n        /* \"#utility.yul\":13526:13609   */\n      mstore\n        /* \"#utility.yul\":13625:13643   */\n      0x44\n      dup2\n      add\n        /* \"#utility.yul\":13618:13652   */\n      dup5\n      swap1\n      mstore\n        /* \"AthenaClientContract_compact.sol\":8452:8460  usdToken */\n      immutable(\"0x551ebb3edb72774934e005837770de585c3863f1eef743adee80bd22fdce145f\")\n      sub(shl(0xa0, 0x01), 0x01)\n        /* \"AthenaClientContract_compact.sol\":8452:8473  usdToken.transferFrom */\n      and\n      swap1\n      0x23b872dd\n      swap1\n        /* \"#utility.yul\":13416:13434   */\n      0x64\n      add\n        /* \"AthenaClientContract_compact.sol\":8452:8509  usdToken.transferFrom(msg.sender, address(this), usdtFee) */\n      0x20\n      mload(0x40)\n      dup1\n      dup4\n      sub\n      dup2\n      0x00\n      dup8\n      gas\n      call\n      iszero\n      dup1\n      iszero\n      tag_281\n      jumpi\n      returndatasize\n      0x00\n      dup1\n      returndatacopy\n      revert(0x00, returndatasize)\n    tag_281:\n      pop\n      pop\n      pop\n      pop\n      mload(0x40)\n      returndatasize\n      not(0x1f)\n      0x1f\n      dup3\n      add\n      and\n      dup3\n      add\n      dup1\n      0x40\n      mstore\n      pop\n      dup2\n      add\n      swap1\n      tag_282\n      swap2\n      swap1\n      tag_204\n      jump\t// in\n    tag_282:\n        /* \"AthenaClientContract_compact.sol\":8431:8555  require(... */\n      tag_283\n      jumpi\n      mload(0x40)\n      shl(0xe5, 0x461bcd)\n      dup2\n      mstore\n        /* \"#utility.yul\":14238:14240   */\n      0x20\n        /* \"AthenaClientContract_compact.sol\":8431:8555  require(... */\n      0x04\n      dup3\n      add\n        /* \"#utility.yul\":14220:14241   */\n      mstore\n        /* \"#utility.yul\":14277:14279   */\n      0x14\n        /* \"#utility.yul\":14257:14275   */\n      0x24\n      dup3\n      add\n        /* \"#utility.yul\":14250:14280   */\n      mstore\n      shl(0x62, 0x1554d115081d1c985b9cd9995c8819985a5b1959)\n        /* \"#utility.yul\":14296:14314   */\n      0x44\n      dup3\n      add\n        /* \"#utility.yul\":14289:14339   */\n      mstore\n        /* \"#utility.yul\":14356:14374   */\n      0x64\n      add\n        /* \"AthenaClientContract_compact.sol\":8431:8555  require(... */\n      tag_166\n        /* \"#utility.yul\":14036:14380   */\n      jump\n        /* \"AthenaClientContract_compact.sol\":8431:8555  require(... */\n    tag_283:\n        /* \"AthenaClientContract_compact.sol\":8605:8625  bytes memory payload */\n      0x00\n        /* \"AthenaClientContract_compact.sol\":8652:8662  msg.sender */\n      caller\n        /* \"AthenaClientContract_compact.sol\":8664:8672  question */\n      dup8\n        /* \"AthenaClientContract_compact.sol\":8674:8685  contextHash */\n      dup8\n        /* \"AthenaClientContract_compact.sol\":8687:8697  oracleName */\n      dup8\n        /* \"AthenaClientContract_compact.sol\":8699:8706  usdtFee */\n      dup8\n        /* \"AthenaClientContract_compact.sol\":8628:8707  abi.encode(\"askAthena\", msg.sender, question, contextHash, oracleName, usdtFee) */\n      add(0x20, mload(0x40))\n      tag_285\n      swap6\n      swap5\n      swap4\n      swap3\n      swap2\n      swap1\n      tag_286\n      jump\t// in\n    tag_285:\n      0x40\n      dup1\n      mload\n      not(0x1f)\n      dup2\n      dup5\n      sub\n      add\n      dup2\n      mstore\n        /* \"AthenaClientContract_compact.sol\":8791:8797  dstEid */\n      sload(0x03)\n        /* \"AthenaClientContract_compact.sol\":8628:8707  abi.encode(\"askAthena\", msg.sender, question, contextHash, oracleName, usdtFee) */\n      0x20\n        /* \"AthenaClientContract_compact.sol\":8784:8824  _quote(dstEid, payload, _options, false) */\n      0x1f\n      dup8\n      add\n      dup2\n      swap1\n      div\n      dup2\n      mul\n      dup6\n      add\n      dup2\n      add\n      swap1\n      swap4\n      mstore\n      dup6\n      dup5\n      mstore\n        /* \"AthenaClientContract_compact.sol\":8628:8707  abi.encode(\"askAthena\", msg.sender, question, contextHash, oracleName, usdtFee) */\n      swap1\n      swap4\n      pop\n        /* \"AthenaClientContract_compact.sol\":8758:8781  MessagingFee memory fee */\n      0x00\n      swap3\n        /* \"AthenaClientContract_compact.sol\":8784:8824  _quote(dstEid, payload, _options, false) */\n      tag_287\n      swap3\n        /* \"AthenaClientContract_compact.sol\":8791:8797  dstEid */\n      0xffffffff\n      swap1\n      swap3\n      and\n      swap2\n        /* \"AthenaClientContract_compact.sol\":8628:8707  abi.encode(\"askAthena\", msg.sender, question, contextHash, oracleName, usdtFee) */\n      dup6\n      swap2\n      swap1\n        /* \"AthenaClientContract_compact.sol\":8808:8816  _options */\n      dup9\n      swap1\n      dup9\n      swap1\n      dup2\n      swap1\n        /* \"AthenaClientContract_compact.sol\":8784:8824  _quote(dstEid, payload, _options, false) */\n      dup5\n      add\n        /* \"AthenaClientContract_compact.sol\":8808:8816  _options */\n      dup4\n      dup3\n      dup1\n      dup3\n        /* \"AthenaClientContract_compact.sol\":8784:8824  _quote(dstEid, payload, _options, false) */\n      dup5\n      calldatacopy\n      0x00\n      swap3\n      add\n      dup3\n      swap1\n      mstore\n      pop\n      swap3\n      pop\n        /* \"AthenaClientContract_compact.sol\":8784:8790  _quote */\n      tag_211\n      swap2\n      pop\n      pop\n        /* \"AthenaClientContract_compact.sol\":8784:8824  _quote(dstEid, payload, _options, false) */\n      jump\t// in\n    tag_287:\n        /* \"AthenaClientContract_compact.sol\":8855:8868  fee.nativeFee */\n      dup1\n      mload\n        /* \"AthenaClientContract_compact.sol\":8758:8824  MessagingFee memory fee = _quote(dstEid, payload, _options, false) */\n      swap1\n      swap2\n      pop\n        /* \"AthenaClientContract_compact.sol\":8842:8851  msg.value */\n      callvalue\n        /* \"AthenaClientContract_compact.sol\":8842:8868  msg.value >= fee.nativeFee */\n      lt\n      iszero\n        /* \"AthenaClientContract_compact.sol\":8834:8891  require(msg.value >= fee.nativeFee, \"Native fee too low\") */\n      tag_288\n      jumpi\n      mload(0x40)\n      shl(0xe5, 0x461bcd)\n      dup2\n      mstore\n        /* \"#utility.yul\":15821:15823   */\n      0x20\n        /* \"AthenaClientContract_compact.sol\":8834:8891  require(msg.value >= fee.nativeFee, \"Native fee too low\") */\n      0x04\n      dup3\n      add\n        /* \"#utility.yul\":15803:15824   */\n      mstore\n        /* \"#utility.yul\":15860:15862   */\n      0x12\n        /* \"#utility.yul\":15840:15858   */\n      0x24\n      dup3\n      add\n        /* \"#utility.yul\":15833:15863   */\n      mstore\n      shl(0x70, 0x4e61746976652066656520746f6f206c6f77)\n        /* \"#utility.yul\":15879:15897   */\n      0x44\n      dup3\n      add\n        /* \"#utility.yul\":15872:15920   */\n      mstore\n        /* \"#utility.yul\":15937:15955   */\n      0x64\n      add\n        /* \"AthenaClientContract_compact.sol\":8834:8891  require(msg.value >= fee.nativeFee, \"Native fee too low\") */\n      tag_166\n        /* \"#utility.yul\":15619:15961   */\n      jump\n        /* \"AthenaClientContract_compact.sol\":8834:8891  require(msg.value >= fee.nativeFee, \"Native fee too low\") */\n    tag_288:\n        /* \"AthenaClientContract_compact.sol\":8923:8929  dstEid */\n      sload(0x03)\n        /* \"AthenaClientContract_compact.sol\":8902:9055  _lzSend(... */\n      0x40\n      dup1\n      mload\n      0x20\n      0x1f\n      dup8\n      add\n      dup2\n      swap1\n      div\n      dup2\n      mul\n      dup3\n      add\n      dup2\n      add\n      swap1\n      swap3\n      mstore\n      dup6\n      dup2\n      mstore\n      tag_290\n      swap3\n        /* \"AthenaClientContract_compact.sol\":8923:8929  dstEid */\n      0xffffffff\n      and\n      swap2\n        /* \"AthenaClientContract_compact.sol\":8943:8950  payload */\n      dup6\n      swap2\n        /* \"AthenaClientContract_compact.sol\":8902:9055  _lzSend(... */\n      swap1\n        /* \"AthenaClientContract_compact.sol\":8964:8972  _options */\n      dup9\n      swap1\n      dup9\n      swap1\n      dup2\n      swap1\n        /* \"AthenaClientContract_compact.sol\":8902:9055  _lzSend(... */\n      dup5\n      add\n        /* \"AthenaClientContract_compact.sol\":8964:8972  _options */\n      dup4\n      dup3\n      dup1\n      dup3\n        /* \"AthenaClientContract_compact.sol\":8902:9055  _lzSend(... */\n      dup5\n      calldatacopy\n      0x00\n      swap3\n      add\n      dup3\n      swap1\n      mstore\n      pop\n        /* \"AthenaClientContract_compact.sol\":8986:9012  MessagingFee(msg.value, 0) */\n      0x40\n      dup1\n      mload\n      dup1\n      dup3\n      add\n      swap1\n      swap2\n      mstore\n        /* \"AthenaClientContract_compact.sol\":8999:9008  msg.value */\n      callvalue\n        /* \"AthenaClientContract_compact.sol\":8986:9012  MessagingFee(msg.value, 0) */\n      dup2\n      mstore\n      0x20\n      dup2\n      add\n      swap2\n      swap1\n      swap2\n      mstore\n      swap3\n      pop\n        /* \"AthenaClientContract_compact.sol\":9034:9044  msg.sender */\n      caller\n      swap2\n      pop\n        /* \"AthenaClientContract_compact.sol\":8902:8909  _lzSend */\n      tag_216\n      swap1\n      pop\n        /* \"AthenaClientContract_compact.sol\":8902:9055  _lzSend(... */\n      jump\t// in\n    tag_290:\n      pop\n        /* \"AthenaClientContract_compact.sol\":9085:9091  dstEid */\n      sload(0x03)\n        /* \"AthenaClientContract_compact.sol\":9071:9148  QuestionAsked(dstEid, msg.sender, question, contextHash, oracleName, usdtFee) */\n      mload(0x40)\n        /* \"AthenaClientContract_compact.sol\":9093:9103  msg.sender */\n      caller\n      swap2\n        /* \"AthenaClientContract_compact.sol\":9085:9091  dstEid */\n      0xffffffff\n      and\n      swap1\n        /* \"AthenaClientContract_compact.sol\":9071:9148  QuestionAsked(dstEid, msg.sender, question, contextHash, oracleName, usdtFee) */\n      0xd55884cbcc73464244e119bb688bc3caf4fc0dcfbd16467d8e3bc4d112bc8ae0\n      swap1\n      tag_291\n      swap1\n        /* \"AthenaClientContract_compact.sol\":9105:9113  question */\n      dup13\n      swap1\n        /* \"AthenaClientContract_compact.sol\":9115:9126  contextHash */\n      dup13\n      swap1\n        /* \"AthenaClientContract_compact.sol\":9128:9138  oracleName */\n      dup13\n      swap1\n        /* \"AthenaClientContract_compact.sol\":9140:9147  usdtFee */\n      dup13\n      swap1\n        /* \"AthenaClientContract_compact.sol\":9071:9148  QuestionAsked(dstEid, msg.sender, question, contextHash, oracleName, usdtFee) */\n      tag_292\n      jump\t// in\n    tag_291:\n      mload(0x40)\n      dup1\n      swap2\n      sub\n      swap1\n      log3\n        /* \"AthenaClientContract_compact.sol\":8200:9155  {... */\n      pop\n      pop\n        /* \"@openzeppelin/contracts/security/ReentrancyGuard.sol\":2303:2323  _nonReentrantAfter() */\n      tag_293\n        /* \"@openzeppelin/contracts/security/ReentrancyGuard.sol\":1716:1717  1 */\n      0x01\n        /* \"@openzeppelin/contracts/security/ReentrancyGuard.sol\":2809:2816  _status */\n      0x02\n        /* \"@openzeppelin/contracts/security/ReentrancyGuard.sol\":2809:2831  _status = _NOT_ENTERED */\n      sstore\n        /* \"@openzeppelin/contracts/security/ReentrancyGuard.sol\":2629:2838  function _nonReentrantAfter() private {... */\n      jump\n        /* \"@openzeppelin/contracts/security/ReentrancyGuard.sol\":2303:2323  _nonReentrantAfter() */\n    tag_293:\n        /* \"AthenaClientContract_compact.sol\":7986:9155  function askAthena(... */\n      pop\n      pop\n      pop\n      pop\n      pop\n      pop\n      jump\t// out\n        /* \"AthenaClientContract_compact.sol\":9873:10188  function quoteCreateDispute(... */\n    tag_107:\n      0x40\n      dup1\n      mload\n      dup1\n      dup3\n      add\n      swap1\n      swap2\n      mstore\n      0x00\n      dup1\n      dup3\n      mstore\n      0x20\n      dup3\n      add\n      mstore\n        /* \"AthenaClientContract_compact.sol\":10047:10067  bytes memory payload */\n      0x00\n        /* \"AthenaClientContract_compact.sol\":10098:10108  msg.sender */\n      caller\n        /* \"AthenaClientContract_compact.sol\":10110:10115  jobId */\n      dup7\n        /* \"AthenaClientContract_compact.sol\":10117:10123  reason */\n      dup7\n        /* \"AthenaClientContract_compact.sol\":10070:10124  abi.encode(\"createDispute\", msg.sender, jobId, reason) */\n      add(0x20, mload(0x40))\n      tag_298\n      swap4\n      swap3\n      swap2\n      swap1\n      tag_299\n      jump\t// in\n    tag_298:\n      0x40\n      dup1\n      mload\n      not(0x1f)\n      dup2\n      dup5\n      sub\n      add\n      dup2\n      mstore\n        /* \"AthenaClientContract_compact.sol\":10148:10154  dstEid */\n      sload(0x03)\n        /* \"AthenaClientContract_compact.sol\":10070:10124  abi.encode(\"createDispute\", msg.sender, jobId, reason) */\n      0x20\n        /* \"AthenaClientContract_compact.sol\":10141:10181  _quote(dstEid, payload, _options, false) */\n      0x1f\n      dup9\n      add\n      dup2\n      swap1\n      div\n      dup2\n      mul\n      dup6\n      add\n      dup2\n      add\n      swap1\n      swap4\n      mstore\n      dup7\n      dup5\n      mstore\n        /* \"AthenaClientContract_compact.sol\":10070:10124  abi.encode(\"createDispute\", msg.sender, jobId, reason) */\n      swap1\n      swap4\n      pop\n        /* \"AthenaClientContract_compact.sol\":10141:10181  _quote(dstEid, payload, _options, false) */\n      tag_300\n      swap3\n        /* \"AthenaClientContract_compact.sol\":10148:10154  dstEid */\n      0xffffffff\n      swap1\n      swap2\n      and\n      swap2\n        /* \"AthenaClientContract_compact.sol\":10070:10124  abi.encode(\"createDispute\", msg.sender, jobId, reason) */\n      dup5\n      swap2\n      swap1\n        /* \"AthenaClientContract_compact.sol\":10165:10173  _options */\n      dup9\n      swap1\n      dup9\n      swap1\n      dup2\n      swap1\n        /* \"AthenaClientContract_compact.sol\":10141:10181  _quote(dstEid, payload, _options, false) */\n      dup5\n      add\n        /* \"AthenaClientContract_compact.sol\":10165:10173  _options */\n      dup4\n      dup3\n      dup1\n      dup3\n        /* \"AthenaClientContract_compact.sol\":10141:10181  _quote(dstEid, payload, _options, false) */\n      dup5\n      calldatacopy\n      0x00\n      swap3\n      add\n      dup3\n      swap1\n      mstore\n      pop\n      swap3\n      pop\n        /* \"AthenaClientContract_compact.sol\":10141:10147  _quote */\n      tag_211\n      swap2\n      pop\n      pop\n        /* \"AthenaClientContract_compact.sol\":10141:10181  _quote(dstEid, payload, _options, false) */\n      jump\t// in\n    tag_300:\n        /* \"AthenaClientContract_compact.sol\":10134:10181  return _quote(dstEid, payload, _options, false) */\n      swap7\n        /* \"AthenaClientContract_compact.sol\":9873:10188  function quoteCreateDispute(... */\n      swap6\n      pop\n      pop\n      pop\n      pop\n      pop\n      pop\n      jump\t// out\n        /* \"AthenaClientContract_compact.sol\":10497:10880  function quoteRequestSkillVerification(... */\n    tag_113:\n      0x40\n      dup1\n      mload\n      dup1\n      dup3\n      add\n      swap1\n      swap2\n      mstore\n      0x00\n      dup1\n      dup3\n      mstore\n      0x20\n      dup3\n      add\n      mstore\n        /* \"AthenaClientContract_compact.sol\":10716:10736  bytes memory payload */\n      0x00\n        /* \"AthenaClientContract_compact.sol\":10778:10788  msg.sender */\n      caller\n        /* \"AthenaClientContract_compact.sol\":10790:10795  skill */\n      dup8\n        /* \"AthenaClientContract_compact.sol\":10797:10806  proofHash */\n      dup8\n        /* \"AthenaClientContract_compact.sol\":10808:10815  usdtFee */\n      dup8\n        /* \"AthenaClientContract_compact.sol\":10739:10816  abi.encode(\"requestSkillVerification\", msg.sender, skill, proofHash, usdtFee) */\n      add(0x20, mload(0x40))\n      tag_303\n      swap5\n      swap4\n      swap3\n      swap2\n      swap1\n      tag_209\n      jump\t// in\n    tag_303:\n      0x40\n      dup1\n      mload\n      not(0x1f)\n      dup2\n      dup5\n      sub\n      add\n      dup2\n      mstore\n        /* \"AthenaClientContract_compact.sol\":10840:10846  dstEid */\n      sload(0x03)\n        /* \"AthenaClientContract_compact.sol\":10739:10816  abi.encode(\"requestSkillVerification\", msg.sender, skill, proofHash, usdtFee) */\n      0x20\n        /* \"AthenaClientContract_compact.sol\":10833:10873  _quote(dstEid, payload, _options, false) */\n      0x1f\n      dup9\n      add\n      dup2\n      swap1\n      div\n      dup2\n      mul\n      dup6\n      add\n      dup2\n      add\n      swap1\n      swap4\n      mstore\n      dup7\n      dup5\n      mstore\n        /* \"AthenaClientContract_compact.sol\":10739:10816  abi.encode(\"requestSkillVerification\", msg.sender, skill, proofHash, usdtFee) */\n      swap1\n      swap4\n      pop\n        /* \"AthenaClientContract_compact.sol\":10833:10873  _quote(dstEid, payload, _options, false) */\n      tag_304\n      swap3\n        /* \"AthenaClientContract_compact.sol\":10840:10846  dstEid */\n      0xffffffff\n      swap1\n      swap2\n      and\n      swap2\n        /* \"AthenaClientContract_compact.sol\":10739:10816  abi.encode(\"requestSkillVerification\", msg.sender, skill, proofHash, usdtFee) */\n      dup5\n      swap2\n      swap1\n        /* \"AthenaClientContract_compact.sol\":10857:10865  _options */\n      dup9\n      swap1\n      dup9\n      swap1\n      dup2\n      swap1\n        /* \"AthenaClientContract_compact.sol\":10833:10873  _quote(dstEid, payload, _options, false) */\n      dup5\n      add\n        /* \"AthenaClientContract_compact.sol\":10857:10865  _options */\n      dup4\n      dup3\n      dup1\n      dup3\n        /* \"AthenaClientContract_compact.sol\":10833:10873  _quote(dstEid, payload, _options, false) */\n      dup5\n      calldatacopy\n      0x00\n      swap3\n      add\n      dup3\n      swap1\n      mstore\n      pop\n      swap3\n      pop\n        /* \"AthenaClientContract_compact.sol\":10833:10839  _quote */\n      tag_211\n      swap2\n      pop\n      pop\n        /* \"AthenaClientContract_compact.sol\":10833:10873  _quote(dstEid, payload, _options, false) */\n      jump\t// in\n    tag_304:\n        /* \"AthenaClientContract_compact.sol\":10826:10873  return _quote(dstEid, payload, _options, false) */\n      swap8\n        /* \"AthenaClientContract_compact.sol\":10497:10880  function quoteRequestSkillVerification(... */\n      swap7\n      pop\n      pop\n      pop\n      pop\n      pop\n      pop\n      pop\n      jump\t// out\n        /* \"AthenaClientContract_compact.sol\":11556:11739  function withdrawFees(address to, uint256 amount) external onlyOwner {... */\n    tag_119:\n        /* \"@openzeppelin/contracts/access/Ownable.sol\":1531:1544  _checkOwner() */\n      tag_306\n        /* \"@openzeppelin/contracts/access/Ownable.sol\":1531:1542  _checkOwner */\n      tag_163\n        /* \"@openzeppelin/contracts/access/Ownable.sol\":1531:1544  _checkOwner() */\n      jump\t// in\n    tag_306:\n        /* \"AthenaClientContract_compact.sol\":11643:11672  usdToken.transfer(to, amount) */\n      mload(0x40)\n      shl(0xe0, 0xa9059cbb)\n      dup2\n      mstore\n      sub(shl(0xa0, 0x01), 0x01)\n        /* \"#utility.yul\":22547:22602   */\n      dup4\n      dup2\n      and\n        /* \"AthenaClientContract_compact.sol\":11643:11672  usdToken.transfer(to, amount) */\n      0x04\n      dup4\n      add\n        /* \"#utility.yul\":22529:22603   */\n      mstore\n        /* \"#utility.yul\":22619:22637   */\n      0x24\n      dup3\n      add\n        /* \"#utility.yul\":22612:22646   */\n      dup4\n      swap1\n      mstore\n        /* \"AthenaClientContract_compact.sol\":11643:11651  usdToken */\n      immutable(\"0x551ebb3edb72774934e005837770de585c3863f1eef743adee80bd22fdce145f\")\n        /* \"AthenaClientContract_compact.sol\":11643:11660  usdToken.transfer */\n      and\n      swap1\n      0xa9059cbb\n      swap1\n        /* \"#utility.yul\":22502:22520   */\n      0x44\n      add\n        /* \"AthenaClientContract_compact.sol\":11643:11672  usdToken.transfer(to, amount) */\n      0x20\n      mload(0x40)\n      dup1\n      dup4\n      sub\n      dup2\n      0x00\n      dup8\n      gas\n      call\n      iszero\n      dup1\n      iszero\n      tag_311\n      jumpi\n      returndatasize\n      0x00\n      dup1\n      returndatacopy\n      revert(0x00, returndatasize)\n    tag_311:\n      pop\n      pop\n      pop\n      pop\n      mload(0x40)\n      returndatasize\n      not(0x1f)\n      0x1f\n      dup3\n      add\n      and\n      dup3\n      add\n      dup1\n      0x40\n      mstore\n      pop\n      dup2\n      add\n      swap1\n      tag_312\n      swap2\n      swap1\n      tag_204\n      jump\t// in\n    tag_312:\n        /* \"AthenaClientContract_compact.sol\":11635:11692  require(usdToken.transfer(to, amount), \"Withdraw failed\") */\n      tag_313\n      jumpi\n      mload(0x40)\n      shl(0xe5, 0x461bcd)\n      dup2\n      mstore\n        /* \"#utility.yul\":22859:22861   */\n      0x20\n        /* \"AthenaClientContract_compact.sol\":11635:11692  require(usdToken.transfer(to, amount), \"Withdraw failed\") */\n      0x04\n      dup3\n      add\n        /* \"#utility.yul\":22841:22862   */\n      mstore\n        /* \"#utility.yul\":22898:22900   */\n      0x0f\n        /* \"#utility.yul\":22878:22896   */\n      0x24\n      dup3\n      add\n        /* \"#utility.yul\":22871:22901   */\n      mstore\n      shl(0x8a, 0x15da5d1a191c985dc819985a5b1959)\n        /* \"#utility.yul\":22917:22935   */\n      0x44\n      dup3\n      add\n        /* \"#utility.yul\":22910:22955   */\n      mstore\n        /* \"#utility.yul\":22972:22990   */\n      0x64\n      add\n        /* \"AthenaClientContract_compact.sol\":11635:11692  require(usdToken.transfer(to, amount), \"Withdraw failed\") */\n      tag_166\n        /* \"#utility.yul\":22657:22996   */\n      jump\n        /* \"AthenaClientContract_compact.sol\":11635:11692  require(usdToken.transfer(to, amount), \"Withdraw failed\") */\n    tag_313:\n        /* \"AthenaClientContract_compact.sol\":11721:11723  to */\n      dup2\n      sub(shl(0xa0, 0x01), 0x01)\n        /* \"AthenaClientContract_compact.sol\":11707:11732  FeesWithdrawn(to, amount) */\n      and\n      0xc0819c13be868895eb93e40eaceb96de976442fa1d404e5c55f14bb65a8c489a\n        /* \"AthenaClientContract_compact.sol\":11725:11731  amount */\n      dup3\n        /* \"AthenaClientContract_compact.sol\":11707:11732  FeesWithdrawn(to, amount) */\n      mload(0x40)\n      tag_316\n      swap2\n        /* \"#utility.yul\":10821:10846   */\n      dup2\n      mstore\n        /* \"#utility.yul\":10809:10811   */\n      0x20\n        /* \"#utility.yul\":10794:10812   */\n      add\n      swap1\n        /* \"#utility.yul\":10675:10852   */\n      jump\n        /* \"AthenaClientContract_compact.sol\":11707:11732  FeesWithdrawn(to, amount) */\n    tag_316:\n      mload(0x40)\n      dup1\n      swap2\n      sub\n      swap1\n      log2\n        /* \"AthenaClientContract_compact.sol\":11556:11739  function withdrawFees(address to, uint256 amount) external onlyOwner {... */\n      pop\n      pop\n      jump\t// out\n        /* \"AthenaClientContract_compact.sol\":9416:9867  function quoteRaiseDispute(... */\n    tag_129:\n      0x40\n      dup1\n      mload\n      dup1\n      dup3\n      add\n      swap1\n      swap2\n      mstore\n      0x00\n      dup1\n      dup3\n      mstore\n      0x20\n      dup3\n      add\n      mstore\n        /* \"AthenaClientContract_compact.sol\":9685:9705  bytes memory payload */\n      0x00\n        /* \"AthenaClientContract_compact.sol\":9735:9745  msg.sender */\n      caller\n        /* \"AthenaClientContract_compact.sol\":9747:9752  jobId */\n      dup10\n        /* \"AthenaClientContract_compact.sol\":9754:9768  disputedAmount */\n      dup10\n        /* \"AthenaClientContract_compact.sol\":9770:9781  disputeHash */\n      dup10\n        /* \"AthenaClientContract_compact.sol\":9783:9793  oracleName */\n      dup10\n        /* \"AthenaClientContract_compact.sol\":9795:9802  usdtFee */\n      dup10\n        /* \"AthenaClientContract_compact.sol\":9708:9803  abi.encode(\"raiseDispute\", msg.sender, jobId, disputedAmount, disputeHash, oracleName, usdtFee) */\n      add(0x20, mload(0x40))\n      tag_319\n      swap7\n      swap6\n      swap5\n      swap4\n      swap3\n      swap2\n      swap1\n      tag_242\n      jump\t// in\n    tag_319:\n      0x40\n      dup1\n      mload\n      not(0x1f)\n      dup2\n      dup5\n      sub\n      add\n      dup2\n      mstore\n        /* \"AthenaClientContract_compact.sol\":9827:9833  dstEid */\n      sload(0x03)\n        /* \"AthenaClientContract_compact.sol\":9708:9803  abi.encode(\"raiseDispute\", msg.sender, jobId, disputedAmount, disputeHash, oracleName, usdtFee) */\n      0x20\n        /* \"AthenaClientContract_compact.sol\":9820:9860  _quote(dstEid, payload, _options, false) */\n      0x1f\n      dup9\n      add\n      dup2\n      swap1\n      div\n      dup2\n      mul\n      dup6\n      add\n      dup2\n      add\n      swap1\n      swap4\n      mstore\n      dup7\n      dup5\n      mstore\n        /* \"AthenaClientContract_compact.sol\":9708:9803  abi.encode(\"raiseDispute\", msg.sender, jobId, disputedAmount, disputeHash, oracleName, usdtFee) */\n      swap1\n      swap4\n      pop\n        /* \"AthenaClientContract_compact.sol\":9820:9860  _quote(dstEid, payload, _options, false) */\n      tag_320\n      swap3\n        /* \"AthenaClientContract_compact.sol\":9827:9833  dstEid */\n      0xffffffff\n      swap1\n      swap2\n      and\n      swap2\n        /* \"AthenaClientContract_compact.sol\":9708:9803  abi.encode(\"raiseDispute\", msg.sender, jobId, disputedAmount, disputeHash, oracleName, usdtFee) */\n      dup5\n      swap2\n      swap1\n        /* \"AthenaClientContract_compact.sol\":9844:9852  _options */\n      dup9\n      swap1\n      dup9\n      swap1\n      dup2\n      swap1\n        /* \"AthenaClientContract_compact.sol\":9820:9860  _quote(dstEid, payload, _options, false) */\n      dup5\n      add\n        /* \"AthenaClientContract_compact.sol\":9844:9852  _options */\n      dup4\n      dup3\n      dup1\n      dup3\n        /* \"AthenaClientContract_compact.sol\":9820:9860  _quote(dstEid, payload, _options, false) */\n      dup5\n      calldatacopy\n      0x00\n      swap3\n      add\n      dup3\n      swap1\n      mstore\n      pop\n      swap3\n      pop\n        /* \"AthenaClientContract_compact.sol\":9820:9826  _quote */\n      tag_211\n      swap2\n      pop\n      pop\n        /* \"AthenaClientContract_compact.sol\":9820:9860  _quote(dstEid, payload, _options, false) */\n      jump\t// in\n    tag_320:\n        /* \"AthenaClientContract_compact.sol\":9813:9860  return _quote(dstEid, payload, _options, false) */\n      swap10\n        /* \"AthenaClientContract_compact.sol\":9416:9867  function quoteRaiseDispute(... */\n      swap9\n      pop\n      pop\n      pop\n      pop\n      pop\n      pop\n      pop\n      pop\n      pop\n      jump\t// out\n        /* \"@layerzerolabs/oapp-evm/contracts/oapp/OAppCore.sol\":3252:3357  function setDelegate(address _delegate) public onlyOwner {... */\n    tag_135:\n        /* \"@openzeppelin/contracts/access/Ownable.sol\":1531:1544  _checkOwner() */\n      tag_322\n        /* \"@openzeppelin/contracts/access/Ownable.sol\":1531:1542  _checkOwner */\n      tag_163\n        /* \"@openzeppelin/contracts/access/Ownable.sol\":1531:1544  _checkOwner() */\n      jump\t// in\n    tag_322:\n        /* \"@layerzerolabs/oapp-evm/contracts/oapp/OAppCore.sol\":3319:3350  endpoint.setDelegate(_delegate) */\n      mload(0x40)\n      shl(0xe0, 0xca5eb5e1)\n      dup2\n      mstore\n      sub(shl(0xa0, 0x01), 0x01)\n        /* \"#utility.yul\":5980:6035   */\n      dup3\n      dup2\n      and\n        /* \"@layerzerolabs/oapp-evm/contracts/oapp/OAppCore.sol\":3319:3350  endpoint.setDelegate(_delegate) */\n      0x04\n      dup4\n      add\n        /* \"#utility.yul\":5962:6036   */\n      mstore\n        /* \"@layerzerolabs/oapp-evm/contracts/oapp/OAppCore.sol\":3319:3327  endpoint */\n      immutable(\"0xef80077fd7ee005d1b0377e3e959eb59d0ca83c4839422f862a3540a66a91fb5\")\n        /* \"@layerzerolabs/oapp-evm/contracts/oapp/OAppCore.sol\":3319:3339  endpoint.setDelegate */\n      and\n      swap1\n      0xca5eb5e1\n      swap1\n        /* \"#utility.yul\":5935:5953   */\n      0x24\n      add\n        /* \"@layerzerolabs/oapp-evm/contracts/oapp/OAppCore.sol\":3319:3350  endpoint.setDelegate(_delegate) */\n      0x00\n      mload(0x40)\n      dup1\n      dup4\n      sub\n      dup2\n      0x00\n      dup8\n      dup1\n      extcodesize\n      iszero\n      dup1\n      iszero\n      tag_325\n      jumpi\n      0x00\n      dup1\n      revert\n    tag_325:\n      pop\n      gas\n      call\n      iszero\n      dup1\n      iszero\n      tag_219\n      jumpi\n      returndatasize\n      0x00\n      dup1\n      returndatacopy\n      revert(0x00, returndatasize)\n        /* \"AthenaClientContract_compact.sol\":10886:11295  function quoteAskAthena(... */\n    tag_139:\n      0x40\n      dup1\n      mload\n      dup1\n      dup3\n      add\n      swap1\n      swap2\n      mstore\n      0x00\n      dup1\n      dup3\n      mstore\n      0x20\n      dup3\n      add\n      mstore\n        /* \"AthenaClientContract_compact.sol\":11129:11149  bytes memory payload */\n      0x00\n        /* \"AthenaClientContract_compact.sol\":11176:11186  msg.sender */\n      caller\n        /* \"AthenaClientContract_compact.sol\":11188:11196  question */\n      dup9\n        /* \"AthenaClientContract_compact.sol\":11198:11209  contextHash */\n      dup9\n        /* \"AthenaClientContract_compact.sol\":11211:11221  oracleName */\n      dup9\n        /* \"AthenaClientContract_compact.sol\":11223:11230  usdtFee */\n      dup9\n        /* \"AthenaClientContract_compact.sol\":11152:11231  abi.encode(\"askAthena\", msg.sender, question, contextHash, oracleName, usdtFee) */\n      add(0x20, mload(0x40))\n      tag_330\n      swap6\n      swap5\n      swap4\n      swap3\n      swap2\n      swap1\n      tag_286\n      jump\t// in\n    tag_330:\n      0x40\n      dup1\n      mload\n      not(0x1f)\n      dup2\n      dup5\n      sub\n      add\n      dup2\n      mstore\n        /* \"AthenaClientContract_compact.sol\":11255:11261  dstEid */\n      sload(0x03)\n        /* \"AthenaClientContract_compact.sol\":11152:11231  abi.encode(\"askAthena\", msg.sender, question, contextHash, oracleName, usdtFee) */\n      0x20\n        /* \"AthenaClientContract_compact.sol\":11248:11288  _quote(dstEid, payload, _options, false) */\n      0x1f\n      dup9\n      add\n      dup2\n      swap1\n      div\n      dup2\n      mul\n      dup6\n      add\n      dup2\n      add\n      swap1\n      swap4\n      mstore\n      dup7\n      dup5\n      mstore\n        /* \"AthenaClientContract_compact.sol\":11152:11231  abi.encode(\"askAthena\", msg.sender, question, contextHash, oracleName, usdtFee) */\n      swap1\n      swap4\n      pop\n        /* \"AthenaClientContract_compact.sol\":11248:11288  _quote(dstEid, payload, _options, false) */\n      tag_331\n      swap3\n        /* \"AthenaClientContract_compact.sol\":11255:11261  dstEid */\n      0xffffffff\n      swap1\n      swap2\n      and\n      swap2\n        /* \"AthenaClientContract_compact.sol\":11152:11231  abi.encode(\"askAthena\", msg.sender, question, contextHash, oracleName, usdtFee) */\n      dup5\n      swap2\n      swap1\n        /* \"AthenaClientContract_compact.sol\":11272:11280  _options */\n      dup9\n      swap1\n      dup9\n      swap1\n      dup2\n      swap1\n        /* \"AthenaClientContract_compact.sol\":11248:11288  _quote(dstEid, payload, _options, false) */\n      dup5\n      add\n        /* \"AthenaClientContract_compact.sol\":11272:11280  _options */\n      dup4\n      dup3\n      dup1\n      dup3\n        /* \"AthenaClientContract_compact.sol\":11248:11288  _quote(dstEid, payload, _options, false) */\n      dup5\n      calldatacopy\n      0x00\n      swap3\n      add\n      dup3\n      swap1\n      mstore\n      pop\n      swap3\n      pop\n        /* \"AthenaClientContract_compact.sol\":11248:11254  _quote */\n      tag_211\n      swap2\n      pop\n      pop\n        /* \"AthenaClientContract_compact.sol\":11248:11288  _quote(dstEid, payload, _options, false) */\n      jump\t// in\n    tag_331:\n        /* \"AthenaClientContract_compact.sol\":11241:11288  return _quote(dstEid, payload, _options, false) */\n      swap9\n        /* \"AthenaClientContract_compact.sol\":10886:11295  function quoteAskAthena(... */\n      swap8\n      pop\n      pop\n      pop\n      pop\n      pop\n      pop\n      pop\n      pop\n      jump\t// out\n        /* \"AthenaClientContract_compact.sol\":10194:10491  function quoteClaimDisputedAmount(... */\n    tag_144:\n      0x40\n      dup1\n      mload\n      dup1\n      dup3\n      add\n      swap1\n      swap2\n      mstore\n      0x00\n      dup1\n      dup3\n      mstore\n      0x20\n      dup3\n      add\n      mstore\n        /* \"AthenaClientContract_compact.sol\":10371:10427  abi.encode(\"claimDisputedAmount\", msg.sender, disputeId) */\n      0x40\n      dup1\n      mload\n        /* \"#utility.yul\":19290:19292   */\n      0x60\n        /* \"AthenaClientContract_compact.sol\":10371:10427  abi.encode(\"claimDisputedAmount\", msg.sender, disputeId) */\n      0x20\n      dup3\n      add\n        /* \"#utility.yul\":19272:19293   */\n      dup2\n      swap1\n      mstore\n        /* \"#utility.yul\":19329:19331   */\n      0x13\n        /* \"#utility.yul\":19309:19327   */\n      0x80\n      dup4\n      add\n        /* \"#utility.yul\":19302:19332   */\n      mstore\n      shl(0x6a, 0x18db185a5b511a5cdc1d5d1959105b5bdd5b9d)\n        /* \"#utility.yul\":19348:19367   */\n      0xa0\n      dup4\n      add\n        /* \"#utility.yul\":19341:19391   */\n      mstore\n        /* \"AthenaClientContract_compact.sol\":10405:10415  msg.sender */\n      caller\n        /* \"#utility.yul\":19443:19463   */\n      swap3\n      dup3\n      add\n        /* \"#utility.yul\":19436:19521   */\n      swap3\n      swap1\n      swap3\n      mstore\n        /* \"#utility.yul\":19537:19555   */\n      swap1\n      dup2\n      add\n        /* \"#utility.yul\":19530:19564   */\n      dup6\n      swap1\n      mstore\n        /* \"AthenaClientContract_compact.sol\":10348:10368  bytes memory payload */\n      0x00\n      swap1\n        /* \"#utility.yul\":19408:19427   */\n      0xc0\n      add\n        /* \"AthenaClientContract_compact.sol\":10371:10427  abi.encode(\"claimDisputedAmount\", msg.sender, disputeId) */\n      0x40\n      dup1\n      mload\n      not(0x1f)\n      dup2\n      dup5\n      sub\n      add\n      dup2\n      mstore\n        /* \"AthenaClientContract_compact.sol\":10451:10457  dstEid */\n      sload(0x03)\n        /* \"AthenaClientContract_compact.sol\":10371:10427  abi.encode(\"claimDisputedAmount\", msg.sender, disputeId) */\n      0x20\n        /* \"AthenaClientContract_compact.sol\":10444:10484  _quote(dstEid, payload, _options, false) */\n      0x1f\n      dup9\n      add\n      dup2\n      swap1\n      div\n      dup2\n      mul\n      dup6\n      add\n      dup2\n      add\n      swap1\n      swap4\n      mstore\n      dup7\n      dup5\n      mstore\n        /* \"AthenaClientContract_compact.sol\":10371:10427  abi.encode(\"claimDisputedAmount\", msg.sender, disputeId) */\n      swap1\n      swap4\n      pop\n        /* \"AthenaClientContract_compact.sol\":10444:10484  _quote(dstEid, payload, _options, false) */\n      tag_335\n      swap3\n        /* \"AthenaClientContract_compact.sol\":10451:10457  dstEid */\n      0xffffffff\n      swap1\n      swap2\n      and\n      swap2\n        /* \"AthenaClientContract_compact.sol\":10371:10427  abi.encode(\"claimDisputedAmount\", msg.sender, disputeId) */\n      dup5\n      swap2\n      swap1\n        /* \"AthenaClientContract_compact.sol\":10468:10476  _options */\n      dup9\n      swap1\n      dup9\n      swap1\n      dup2\n      swap1\n        /* \"AthenaClientContract_compact.sol\":10444:10484  _quote(dstEid, payload, _options, false) */\n      dup5\n      add\n        /* \"AthenaClientContract_compact.sol\":10468:10476  _options */\n      dup4\n      dup3\n      dup1\n      dup3\n        /* \"AthenaClientContract_compact.sol\":10444:10484  _quote(dstEid, payload, _options, false) */\n      dup5\n      calldatacopy\n      0x00\n      swap3\n      add\n      dup3\n      swap1\n      mstore\n      pop\n      swap3\n      pop\n        /* \"AthenaClientContract_compact.sol\":10444:10450  _quote */\n      tag_211\n      swap2\n      pop\n      pop\n        /* \"AthenaClientContract_compact.sol\":10444:10484  _quote(dstEid, payload, _options, false) */\n      jump\t// in\n    tag_335:\n        /* \"AthenaClientContract_compact.sol\":10437:10484  return _quote(dstEid, payload, _options, false) */\n      swap6\n        /* \"AthenaClientContract_compact.sol\":10194:10491  function quoteClaimDisputedAmount(... */\n      swap5\n      pop\n      pop\n      pop\n      pop\n      pop\n      jump\t// out\n        /* \"@openzeppelin/contracts/access/Ownable.sol\":2543:2758  function transferOwnership(address newOwner) public virtual onlyOwner {... */\n    tag_149:\n        /* \"@openzeppelin/contracts/access/Ownable.sol\":1531:1544  _checkOwner() */\n      tag_337\n        /* \"@openzeppelin/contracts/access/Ownable.sol\":1531:1542  _checkOwner */\n      tag_163\n        /* \"@openzeppelin/contracts/access/Ownable.sol\":1531:1544  _checkOwner() */\n      jump\t// in\n    tag_337:\n      sub(shl(0xa0, 0x01), 0x01)\n        /* \"@openzeppelin/contracts/access/Ownable.sol\":2627:2649  newOwner == address(0) */\n      dup2\n      and\n        /* \"@openzeppelin/contracts/access/Ownable.sol\":2623:2714  if (newOwner == address(0)) {... */\n      tag_339\n      jumpi\n        /* \"@openzeppelin/contracts/access/Ownable.sol\":2672:2703  OwnableInvalidOwner(address(0)) */\n      mload(0x40)\n      shl(0xe0, 0x1e4fbdf7)\n      dup2\n      mstore\n        /* \"@openzeppelin/contracts/access/Ownable.sol\":2700:2701  0 */\n      0x00\n        /* \"@openzeppelin/contracts/access/Ownable.sol\":2672:2703  OwnableInvalidOwner(address(0)) */\n      0x04\n      dup3\n      add\n        /* \"#utility.yul\":5962:6036   */\n      mstore\n        /* \"#utility.yul\":5935:5953   */\n      0x24\n      add\n        /* \"@openzeppelin/contracts/access/Ownable.sol\":2672:2703  OwnableInvalidOwner(address(0)) */\n      tag_166\n        /* \"#utility.yul\":5788:6042   */\n      jump\n        /* \"@openzeppelin/contracts/access/Ownable.sol\":2623:2714  if (newOwner == address(0)) {... */\n    tag_339:\n        /* \"@openzeppelin/contracts/access/Ownable.sol\":2723:2751  _transferOwnership(newOwner) */\n      tag_341\n        /* \"@openzeppelin/contracts/access/Ownable.sol\":2742:2750  newOwner */\n      dup2\n        /* \"@openzeppelin/contracts/access/Ownable.sol\":2723:2741  _transferOwnership */\n      tag_254\n        /* \"@openzeppelin/contracts/access/Ownable.sol\":2723:2751  _transferOwnership(newOwner) */\n      jump\t// in\n    tag_341:\n        /* \"@openzeppelin/contracts/access/Ownable.sol\":2543:2758  function transferOwnership(address newOwner) public virtual onlyOwner {... */\n      pop\n      jump\t// out\n        /* \"@layerzerolabs/oapp-evm/contracts/oapp/OAppReceiver.sol\":2771:2920  function allowInitializePath(Origin calldata origin) public view virtual returns (bool) {... */\n    tag_159:\n        /* \"@layerzerolabs/oapp-evm/contracts/oapp/OAppReceiver.sol\":2853:2857  bool */\n      0x00\n        /* \"@layerzerolabs/oapp-evm/contracts/oapp/OAppReceiver.sol\":2900:2913  origin.sender */\n      0x20\n      dup3\n      add\n      dup1\n      calldataload\n      swap1\n        /* \"@layerzerolabs/oapp-evm/contracts/oapp/OAppReceiver.sol\":2876:2881  peers */\n      0x01\n      swap1\n        /* \"@layerzerolabs/oapp-evm/contracts/oapp/OAppReceiver.sol\":2853:2857  bool */\n      dup4\n      swap1\n        /* \"@layerzerolabs/oapp-evm/contracts/oapp/OAppReceiver.sol\":2882:2895  origin.srcEid */\n      tag_343\n      swap1\n        /* \"@layerzerolabs/oapp-evm/contracts/oapp/OAppReceiver.sol\":2900:2906  origin */\n      dup7\n        /* \"@layerzerolabs/oapp-evm/contracts/oapp/OAppReceiver.sol\":2882:2895  origin.srcEid */\n      tag_40\n      jump\t// in\n    tag_343:\n        /* \"@layerzerolabs/oapp-evm/contracts/oapp/OAppReceiver.sol\":2876:2896  peers[origin.srcEid] */\n      0xffffffff\n      and\n      dup2\n      mstore\n      0x20\n      dup2\n      add\n      swap2\n      swap1\n      swap2\n      mstore\n      0x40\n      add\n      0x00\n      keccak256\n      sload\n        /* \"@layerzerolabs/oapp-evm/contracts/oapp/OAppReceiver.sol\":2876:2913  peers[origin.srcEid] == origin.sender */\n      eq\n      swap3\n        /* \"@layerzerolabs/oapp-evm/contracts/oapp/OAppReceiver.sol\":2771:2920  function allowInitializePath(Origin calldata origin) public view virtual returns (bool) {... */\n      swap2\n      pop\n      pop\n      jump\t// out\n        /* \"@openzeppelin/contracts/access/Ownable.sol\":1796:1958  function _checkOwner() internal view virtual {... */\n    tag_163:\n        /* \"@openzeppelin/contracts/access/Ownable.sol\":1684:1691  address */\n      0x00\n        /* \"@openzeppelin/contracts/access/Ownable.sol\":1710:1716  _owner */\n      sload\n      sub(shl(0xa0, 0x01), 0x01)\n      and\n        /* \"@openzeppelin/contracts/utils/Context.sol\":735:745  msg.sender */\n      caller\n        /* \"@openzeppelin/contracts/access/Ownable.sol\":1855:1878  owner() != _msgSender() */\n      eq\n        /* \"@openzeppelin/contracts/access/Ownable.sol\":1851:1952  if (owner() != _msgSender()) {... */\n      tag_253\n      jumpi\n        /* \"@openzeppelin/contracts/access/Ownable.sol\":1901:1941  OwnableUnauthorizedAccount(_msgSender()) */\n      mload(0x40)\n      shl(0xe0, 0x118cdaa7)\n      dup2\n      mstore\n        /* \"@openzeppelin/contracts/utils/Context.sol\":735:745  msg.sender */\n      caller\n        /* \"@openzeppelin/contracts/access/Ownable.sol\":1901:1941  OwnableUnauthorizedAccount(_msgSender()) */\n      0x04\n      dup3\n      add\n        /* \"#utility.yul\":5962:6036   */\n      mstore\n        /* \"#utility.yul\":5935:5953   */\n      0x24\n      add\n        /* \"@openzeppelin/contracts/access/Ownable.sol\":1901:1941  OwnableUnauthorizedAccount(_msgSender()) */\n      tag_166\n        /* \"#utility.yul\":5788:6042   */\n      jump\n        /* \"@layerzerolabs/oapp-evm/contracts/oapp/OAppCore.sol\":2718:2914  function _getPeerOrRevert(uint32 _eid) internal view virtual returns (bytes32) {... */\n    tag_173:\n        /* \"@layerzerolabs/oapp-evm/contracts/oapp/OAppCore.sol\":2822:2833  peers[_eid] */\n      0xffffffff\n      dup2\n      and\n        /* \"@layerzerolabs/oapp-evm/contracts/oapp/OAppCore.sol\":2788:2795  bytes32 */\n      0x00\n        /* \"@layerzerolabs/oapp-evm/contracts/oapp/OAppCore.sol\":2822:2833  peers[_eid] */\n      swap1\n      dup2\n      mstore\n        /* \"@layerzerolabs/oapp-evm/contracts/oapp/OAppCore.sol\":2822:2827  peers */\n      0x01\n        /* \"@layerzerolabs/oapp-evm/contracts/oapp/OAppCore.sol\":2822:2833  peers[_eid] */\n      0x20\n      mstore\n      0x40\n      dup2\n      keccak256\n      sload\n      dup1\n        /* \"@layerzerolabs/oapp-evm/contracts/oapp/OAppCore.sol\":2843:2886  if (peer == bytes32(0)) revert NoPeer(_eid) */\n      tag_352\n      jumpi\n        /* \"@layerzerolabs/oapp-evm/contracts/oapp/OAppCore.sol\":2874:2886  NoPeer(_eid) */\n      mload(0x40)\n      shl(0xe0, 0xf6ff4fb7)\n      dup2\n      mstore\n        /* \"#utility.yul\":6221:6231   */\n      0xffffffff\n        /* \"#utility.yul\":6209:6232   */\n      dup5\n      and\n        /* \"@layerzerolabs/oapp-evm/contracts/oapp/OAppCore.sol\":2874:2886  NoPeer(_eid) */\n      0x04\n      dup3\n      add\n        /* \"#utility.yul\":6191:6233   */\n      mstore\n        /* \"#utility.yul\":6164:6182   */\n      0x24\n      add\n        /* \"@layerzerolabs/oapp-evm/contracts/oapp/OAppCore.sol\":2874:2886  NoPeer(_eid) */\n      tag_166\n        /* \"#utility.yul\":6047:6239   */\n      jump\n        /* \"@layerzerolabs/oapp-evm/contracts/oapp/OAppCore.sol\":2843:2886  if (peer == bytes32(0)) revert NoPeer(_eid) */\n    tag_352:\n        /* \"@layerzerolabs/oapp-evm/contracts/oapp/OAppCore.sol\":2903:2907  peer */\n      swap3\n        /* \"@layerzerolabs/oapp-evm/contracts/oapp/OAppCore.sol\":2718:2914  function _getPeerOrRevert(uint32 _eid) internal view virtual returns (bytes32) {... */\n      swap2\n      pop\n      pop\n      jump\t// out\n        /* \"AthenaClientContract_compact.sol\":11999:12697  function _lzReceive(... */\n    tag_179:\n        /* \"AthenaClientContract_compact.sol\":12311:12331  string memory action */\n      0x00\n      dup1\n      dup1\n      dup1\n        /* \"AthenaClientContract_compact.sol\":12387:12441  abi.decode(_message, (string, address, uint256, bool)) */\n      tag_355\n      dup9\n      dup11\n      add\n        /* \"AthenaClientContract_compact.sol\":12398:12406  _message */\n      dup11\n        /* \"AthenaClientContract_compact.sol\":12387:12441  abi.decode(_message, (string, address, uint256, bool)) */\n      tag_356\n      jump\t// in\n    tag_355:\n      pop\n      pop\n        /* \"AthenaClientContract_compact.sol\":12545:12569  bytes(\"disputeResolved\") */\n      0x40\n      dup1\n      mload\n      dup1\n      dup3\n      add\n      swap1\n      swap2\n      mstore\n      0x0f\n      dup2\n      mstore\n      shl(0x8a, 0x191a5cdc1d5d1954995cdbdb1d9959)\n      0x20\n      swap1\n      swap2\n      add\n      mstore\n      pop\n      pop\n      pop\n      pop\n      pop\n      pop\n      pop\n      pop\n      pop\n      pop\n      pop\n      pop\n      pop\n        /* \"AthenaClientContract_compact.sol\":11999:12697  function _lzReceive(... */\n      jump\t// out\n        /* \"@layerzerolabs/oapp-evm/contracts/oapp/OAppCore.sol\":2286:2420  function _setPeer(uint32 _eid, bytes32 _peer) internal virtual {... */\n    tag_185:\n        /* \"@layerzerolabs/oapp-evm/contracts/oapp/OAppCore.sol\":2359:2370  peers[_eid] */\n      0xffffffff\n      dup3\n      and\n      0x00\n      dup2\n      dup2\n      mstore\n        /* \"@layerzerolabs/oapp-evm/contracts/oapp/OAppCore.sol\":2359:2364  peers */\n      0x01\n        /* \"@layerzerolabs/oapp-evm/contracts/oapp/OAppCore.sol\":2359:2370  peers[_eid] */\n      0x20\n      swap1\n      dup2\n      mstore\n      0x40\n      swap2\n      dup3\n      swap1\n      keccak256\n        /* \"@layerzerolabs/oapp-evm/contracts/oapp/OAppCore.sol\":2359:2378  peers[_eid] = _peer */\n      dup5\n      swap1\n      sstore\n        /* \"@layerzerolabs/oapp-evm/contracts/oapp/OAppCore.sol\":2393:2413  PeerSet(_eid, _peer) */\n      dup2\n      mload\n        /* \"#utility.yul\":12118:12160   */\n      swap3\n      dup4\n      mstore\n        /* \"#utility.yul\":12176:12194   */\n      dup3\n      add\n        /* \"#utility.yul\":12169:12203   */\n      dup4\n      swap1\n      mstore\n        /* \"@layerzerolabs/oapp-evm/contracts/oapp/OAppCore.sol\":2393:2413  PeerSet(_eid, _peer) */\n      0x238399d427b947898edb290f5ff0f9109849b1c3ba196a42e35f00c50a54b98b\n      swap2\n        /* \"#utility.yul\":12091:12109   */\n      add\n        /* \"@layerzerolabs/oapp-evm/contracts/oapp/OAppCore.sol\":2393:2413  PeerSet(_eid, _peer) */\n      mload(0x40)\n      dup1\n      swap2\n      sub\n      swap1\n      log1\n        /* \"@layerzerolabs/oapp-evm/contracts/oapp/OAppCore.sol\":2286:2420  function _setPeer(uint32 _eid, bytes32 _peer) internal virtual {... */\n      pop\n      pop\n      jump\t// out\n        /* \"@openzeppelin/contracts/security/ReentrancyGuard.sol\":2336:2623  function _nonReentrantBefore() private {... */\n    tag_188:\n        /* \"@openzeppelin/contracts/security/ReentrancyGuard.sol\":1759:1760  2 */\n      0x02\n        /* \"@openzeppelin/contracts/security/ReentrancyGuard.sol\":2468:2475  _status */\n      dup1\n      sload\n        /* \"@openzeppelin/contracts/security/ReentrancyGuard.sol\":2468:2487  _status != _ENTERED */\n      sub\n        /* \"@openzeppelin/contracts/security/ReentrancyGuard.sol\":2460:2523  require(_status != _ENTERED, \"ReentrancyGuard: reentrant call\") */\n      tag_361\n      jumpi\n      mload(0x40)\n      shl(0xe5, 0x461bcd)\n      dup2\n      mstore\n        /* \"#utility.yul\":23929:23931   */\n      0x20\n        /* \"@openzeppelin/contracts/security/ReentrancyGuard.sol\":2460:2523  require(_status != _ENTERED, \"ReentrancyGuard: reentrant call\") */\n      0x04\n      dup3\n      add\n        /* \"#utility.yul\":23911:23932   */\n      mstore\n        /* \"#utility.yul\":23968:23970   */\n      0x1f\n        /* \"#utility.yul\":23948:23966   */\n      0x24\n      dup3\n      add\n        /* \"#utility.yul\":23941:23971   */\n      mstore\n        /* \"#utility.yul\":24007:24040   */\n      0x5265656e7472616e637947756172643a207265656e7472616e742063616c6c00\n        /* \"#utility.yul\":23987:24005   */\n      0x44\n      dup3\n      add\n        /* \"#utility.yul\":23980:24041   */\n      mstore\n        /* \"#utility.yul\":24058:24076   */\n      0x64\n      add\n        /* \"@openzeppelin/contracts/security/ReentrancyGuard.sol\":2460:2523  require(_status != _ENTERED, \"ReentrancyGuard: reentrant call\") */\n      tag_166\n        /* \"#utility.yul\":23727:24082   */\n      jump\n        /* \"@openzeppelin/contracts/security/ReentrancyGuard.sol\":2460:2523  require(_status != _ENTERED, \"ReentrancyGuard: reentrant call\") */\n    tag_361:\n        /* \"@openzeppelin/contracts/security/ReentrancyGuard.sol\":1759:1760  2 */\n      0x02\n        /* \"@openzeppelin/contracts/security/ReentrancyGuard.sol\":2598:2616  _status = _ENTERED */\n      dup1\n      sstore\n        /* \"@openzeppelin/contracts/security/ReentrancyGuard.sol\":2336:2623  function _nonReentrantBefore() private {... */\n      jump\t// out\n        /* \"@layerzerolabs/oapp-evm/contracts/oapp/OAppSender.sol\":2038:2429  function _quote(... */\n    tag_211:\n      0x40\n      dup1\n      mload\n      dup1\n      dup3\n      add\n      swap1\n      swap2\n      mstore\n      0x00\n      dup1\n      dup3\n      mstore\n      0x20\n      dup3\n      add\n      mstore\n        /* \"@layerzerolabs/oapp-evm/contracts/oapp/OAppSender.sol\":2259:2267  endpoint */\n      immutable(\"0xef80077fd7ee005d1b0377e3e959eb59d0ca83c4839422f862a3540a66a91fb5\")\n      sub(shl(0xa0, 0x01), 0x01)\n        /* \"@layerzerolabs/oapp-evm/contracts/oapp/OAppSender.sol\":2259:2273  endpoint.quote */\n      and\n      0xddc28c58\n        /* \"@layerzerolabs/oapp-evm/contracts/oapp/OAppSender.sol\":2291:2377  MessagingParams(_dstEid, _getPeerOrRevert(_dstEid), _message, _options, _payInLzToken) */\n      mload(0x40)\n      dup1\n      0xa0\n      add\n      0x40\n      mstore\n      dup1\n        /* \"@layerzerolabs/oapp-evm/contracts/oapp/OAppSender.sol\":2307:2314  _dstEid */\n      dup9\n        /* \"@layerzerolabs/oapp-evm/contracts/oapp/OAppSender.sol\":2291:2377  MessagingParams(_dstEid, _getPeerOrRevert(_dstEid), _message, _options, _payInLzToken) */\n      0xffffffff\n      and\n      dup2\n      mstore\n      0x20\n      add\n        /* \"@layerzerolabs/oapp-evm/contracts/oapp/OAppSender.sol\":2316:2341  _getPeerOrRevert(_dstEid) */\n      tag_366\n        /* \"@layerzerolabs/oapp-evm/contracts/oapp/OAppSender.sol\":2333:2340  _dstEid */\n      dup10\n        /* \"@layerzerolabs/oapp-evm/contracts/oapp/OAppSender.sol\":2316:2332  _getPeerOrRevert */\n      tag_173\n        /* \"@layerzerolabs/oapp-evm/contracts/oapp/OAppSender.sol\":2316:2341  _getPeerOrRevert(_dstEid) */\n      jump\t// in\n    tag_366:\n        /* \"@layerzerolabs/oapp-evm/contracts/oapp/OAppSender.sol\":2291:2377  MessagingParams(_dstEid, _getPeerOrRevert(_dstEid), _message, _options, _payInLzToken) */\n      dup2\n      mstore\n      0x20\n      add\n        /* \"@layerzerolabs/oapp-evm/contracts/oapp/OAppSender.sol\":2343:2351  _message */\n      dup8\n        /* \"@layerzerolabs/oapp-evm/contracts/oapp/OAppSender.sol\":2291:2377  MessagingParams(_dstEid, _getPeerOrRevert(_dstEid), _message, _options, _payInLzToken) */\n      dup2\n      mstore\n      0x20\n      add\n        /* \"@layerzerolabs/oapp-evm/contracts/oapp/OAppSender.sol\":2353:2361  _options */\n      dup7\n        /* \"@layerzerolabs/oapp-evm/contracts/oapp/OAppSender.sol\":2291:2377  MessagingParams(_dstEid, _getPeerOrRevert(_dstEid), _message, _options, _payInLzToken) */\n      dup2\n      mstore\n      0x20\n      add\n        /* \"@layerzerolabs/oapp-evm/contracts/oapp/OAppSender.sol\":2363:2376  _payInLzToken */\n      dup6\n        /* \"@layerzerolabs/oapp-evm/contracts/oapp/OAppSender.sol\":2291:2377  MessagingParams(_dstEid, _getPeerOrRevert(_dstEid), _message, _options, _payInLzToken) */\n      iszero\n      iszero\n      dup2\n      mstore\n      pop\n        /* \"@layerzerolabs/oapp-evm/contracts/oapp/OAppSender.sol\":2403:2407  this */\n      address\n        /* \"@layerzerolabs/oapp-evm/contracts/oapp/OAppSender.sol\":2259:2422  endpoint.quote(... */\n      mload(0x40)\n      dup4\n      0xffffffff\n      and\n      0xe0\n      shl\n      dup2\n      mstore\n      0x04\n      add\n      tag_367\n      swap3\n      swap2\n      swap1\n      tag_368\n      jump\t// in\n    tag_367:\n      0x40\n      dup1\n      mload\n      dup1\n      dup4\n      sub\n      dup2\n      dup7\n      gas\n      staticcall\n      iszero\n      dup1\n      iszero\n      tag_370\n      jumpi\n      returndatasize\n      0x00\n      dup1\n      returndatacopy\n      revert(0x00, returndatasize)\n    tag_370:\n      pop\n      pop\n      pop\n      pop\n      mload(0x40)\n      returndatasize\n      not(0x1f)\n      0x1f\n      dup3\n      add\n      and\n      dup3\n      add\n      dup1\n      0x40\n      mstore\n      pop\n      dup2\n      add\n      swap1\n      tag_335\n      swap2\n      swap1\n      tag_372\n      jump\t// in\n        /* \"@layerzerolabs/oapp-evm/contracts/oapp/OAppSender.sol\":3188:3954  function _lzSend(... */\n    tag_216:\n        /* \"@layerzerolabs/oapp-evm/contracts/oapp/OAppSender.sol\":3389:3420  MessagingReceipt memory receipt */\n      tag_373\n      tag_374\n      jump\t// in\n    tag_373:\n        /* \"@layerzerolabs/oapp-evm/contracts/oapp/OAppSender.sol\":3554:3574  uint256 messageValue */\n      0x00\n        /* \"@layerzerolabs/oapp-evm/contracts/oapp/OAppSender.sol\":3577:3603  _payNative(_fee.nativeFee) */\n      tag_376\n        /* \"@layerzerolabs/oapp-evm/contracts/oapp/OAppSender.sol\":3588:3592  _fee */\n      dup5\n        /* \"@layerzerolabs/oapp-evm/contracts/oapp/OAppSender.sol\":3588:3602  _fee.nativeFee */\n      0x00\n      add\n      mload\n        /* \"@layerzerolabs/oapp-evm/contracts/oapp/OAppSender.sol\":3577:3587  _payNative */\n      tag_377\n        /* \"@layerzerolabs/oapp-evm/contracts/oapp/OAppSender.sol\":3577:3603  _payNative(_fee.nativeFee) */\n      jump\t// in\n    tag_376:\n        /* \"@layerzerolabs/oapp-evm/contracts/oapp/OAppSender.sol\":3617:3632  _fee.lzTokenFee */\n      0x20\n      dup6\n      add\n      mload\n        /* \"@layerzerolabs/oapp-evm/contracts/oapp/OAppSender.sol\":3554:3603  uint256 messageValue = _payNative(_fee.nativeFee) */\n      swap1\n      swap2\n      pop\n        /* \"@layerzerolabs/oapp-evm/contracts/oapp/OAppSender.sol\":3617:3636  _fee.lzTokenFee > 0 */\n      iszero\n        /* \"@layerzerolabs/oapp-evm/contracts/oapp/OAppSender.sol\":3613:3666  if (_fee.lzTokenFee > 0) _payLzToken(_fee.lzTokenFee) */\n      tag_379\n      jumpi\n        /* \"@layerzerolabs/oapp-evm/contracts/oapp/OAppSender.sol\":3638:3666  _payLzToken(_fee.lzTokenFee) */\n      tag_379\n        /* \"@layerzerolabs/oapp-evm/contracts/oapp/OAppSender.sol\":3650:3654  _fee */\n      dup5\n        /* \"@layerzerolabs/oapp-evm/contracts/oapp/OAppSender.sol\":3650:3665  _fee.lzTokenFee */\n      0x20\n      add\n      mload\n        /* \"@layerzerolabs/oapp-evm/contracts/oapp/OAppSender.sol\":3638:3649  _payLzToken */\n      tag_380\n        /* \"@layerzerolabs/oapp-evm/contracts/oapp/OAppSender.sol\":3638:3666  _payLzToken(_fee.lzTokenFee) */\n      jump\t// in\n    tag_379:\n        /* \"@layerzerolabs/oapp-evm/contracts/oapp/OAppSender.sol\":3755:3763  endpoint */\n      immutable(\"0xef80077fd7ee005d1b0377e3e959eb59d0ca83c4839422f862a3540a66a91fb5\")\n      sub(shl(0xa0, 0x01), 0x01)\n        /* \"@layerzerolabs/oapp-evm/contracts/oapp/OAppSender.sol\":3755:3768  endpoint.send */\n      and\n      0x2637a450\n        /* \"@layerzerolabs/oapp-evm/contracts/oapp/OAppSender.sol\":3777:3789  messageValue */\n      dup3\n        /* \"@layerzerolabs/oapp-evm/contracts/oapp/OAppSender.sol\":3809:3901  MessagingParams(_dstEid, _getPeerOrRevert(_dstEid), _message, _options, _fee.lzTokenFee > 0) */\n      mload(0x40)\n      dup1\n      0xa0\n      add\n      0x40\n      mstore\n      dup1\n        /* \"@layerzerolabs/oapp-evm/contracts/oapp/OAppSender.sol\":3825:3832  _dstEid */\n      dup12\n        /* \"@layerzerolabs/oapp-evm/contracts/oapp/OAppSender.sol\":3809:3901  MessagingParams(_dstEid, _getPeerOrRevert(_dstEid), _message, _options, _fee.lzTokenFee > 0) */\n      0xffffffff\n      and\n      dup2\n      mstore\n      0x20\n      add\n        /* \"@layerzerolabs/oapp-evm/contracts/oapp/OAppSender.sol\":3834:3859  _getPeerOrRevert(_dstEid) */\n      tag_381\n        /* \"@layerzerolabs/oapp-evm/contracts/oapp/OAppSender.sol\":3851:3858  _dstEid */\n      dup13\n        /* \"@layerzerolabs/oapp-evm/contracts/oapp/OAppSender.sol\":3834:3850  _getPeerOrRevert */\n      tag_173\n        /* \"@layerzerolabs/oapp-evm/contracts/oapp/OAppSender.sol\":3834:3859  _getPeerOrRevert(_dstEid) */\n      jump\t// in\n    tag_381:\n        /* \"@layerzerolabs/oapp-evm/contracts/oapp/OAppSender.sol\":3809:3901  MessagingParams(_dstEid, _getPeerOrRevert(_dstEid), _message, _options, _fee.lzTokenFee > 0) */\n      dup2\n      mstore\n      0x20\n      add\n        /* \"@layerzerolabs/oapp-evm/contracts/oapp/OAppSender.sol\":3861:3869  _message */\n      dup11\n        /* \"@layerzerolabs/oapp-evm/contracts/oapp/OAppSender.sol\":3809:3901  MessagingParams(_dstEid, _getPeerOrRevert(_dstEid), _message, _options, _fee.lzTokenFee > 0) */\n      dup2\n      mstore\n      0x20\n      add\n        /* \"@layerzerolabs/oapp-evm/contracts/oapp/OAppSender.sol\":3871:3879  _options */\n      dup10\n        /* \"@layerzerolabs/oapp-evm/contracts/oapp/OAppSender.sol\":3809:3901  MessagingParams(_dstEid, _getPeerOrRevert(_dstEid), _message, _options, _fee.lzTokenFee > 0) */\n      dup2\n      mstore\n      0x20\n      add\n        /* \"@layerzerolabs/oapp-evm/contracts/oapp/OAppSender.sol\":3899:3900  0 */\n      0x00\n        /* \"@layerzerolabs/oapp-evm/contracts/oapp/OAppSender.sol\":3881:3885  _fee */\n      dup10\n        /* \"@layerzerolabs/oapp-evm/contracts/oapp/OAppSender.sol\":3881:3896  _fee.lzTokenFee */\n      0x20\n      add\n      mload\n        /* \"@layerzerolabs/oapp-evm/contracts/oapp/OAppSender.sol\":3881:3900  _fee.lzTokenFee > 0 */\n      gt\n        /* \"@layerzerolabs/oapp-evm/contracts/oapp/OAppSender.sol\":3809:3901  MessagingParams(_dstEid, _getPeerOrRevert(_dstEid), _message, _options, _fee.lzTokenFee > 0) */\n      iszero\n      iszero\n      dup2\n      mstore\n      pop\n        /* \"@layerzerolabs/oapp-evm/contracts/oapp/OAppSender.sol\":3919:3933  _refundAddress */\n      dup7\n        /* \"@layerzerolabs/oapp-evm/contracts/oapp/OAppSender.sol\":3755:3947  endpoint.send{ value: messageValue }(... */\n      mload(0x40)\n      dup5\n      0xffffffff\n      and\n      0xe0\n      shl\n      dup2\n      mstore\n      0x04\n      add\n      tag_382\n      swap3\n      swap2\n      swap1\n      tag_368\n      jump\t// in\n    tag_382:\n      0x80\n      mload(0x40)\n      dup1\n      dup4\n      sub\n      dup2\n      dup6\n      dup9\n      gas\n      call\n      iszero\n      dup1\n      iszero\n      tag_384\n      jumpi\n      returndatasize\n      0x00\n      dup1\n      returndatacopy\n      revert(0x00, returndatasize)\n    tag_384:\n      pop\n      pop\n      pop\n      pop\n      pop\n      mload(0x40)\n      returndatasize\n      not(0x1f)\n      0x1f\n      dup3\n      add\n      and\n      dup3\n      add\n      dup1\n      0x40\n      mstore\n      pop\n      dup2\n      add\n      swap1\n      tag_304\n      swap2\n      swap1\n      tag_386\n      jump\t// in\n        /* \"@openzeppelin/contracts/access/Ownable.sol\":2912:3099  function _transferOwnership(address newOwner) internal virtual {... */\n    tag_254:\n        /* \"@openzeppelin/contracts/access/Ownable.sol\":2985:3001  address oldOwner */\n      0x00\n        /* \"@openzeppelin/contracts/access/Ownable.sol\":3004:3010  _owner */\n      dup1\n      sload\n      sub(shl(0xa0, 0x01), 0x01)\n        /* \"@openzeppelin/contracts/access/Ownable.sol\":3020:3037  _owner = newOwner */\n      dup4\n      dup2\n      and\n      not(0xffffffffffffffffffffffffffffffffffffffff)\n      dup4\n      and\n      dup2\n      or\n      dup5\n      sstore\n        /* \"@openzeppelin/contracts/access/Ownable.sol\":3052:3092  OwnershipTransferred(oldOwner, newOwner) */\n      mload(0x40)\n        /* \"@openzeppelin/contracts/access/Ownable.sol\":3004:3010  _owner */\n      swap2\n      swap1\n      swap3\n      and\n      swap3\n      dup4\n      swap2\n        /* \"@openzeppelin/contracts/access/Ownable.sol\":3052:3092  OwnershipTransferred(oldOwner, newOwner) */\n      0x8be0079c531659141344cd1fd0a4f28419497f9722a3daafe3b4186f6b6457e0\n      swap2\n        /* \"@openzeppelin/contracts/access/Ownable.sol\":2985:3001  address oldOwner */\n      swap1\n        /* \"@openzeppelin/contracts/access/Ownable.sol\":3052:3092  OwnershipTransferred(oldOwner, newOwner) */\n      log3\n        /* \"@openzeppelin/contracts/access/Ownable.sol\":2975:3099  {... */\n      pop\n        /* \"@openzeppelin/contracts/access/Ownable.sol\":2912:3099  function _transferOwnership(address newOwner) internal virtual {... */\n      pop\n      jump\t// out\n        /* \"@layerzerolabs/oapp-evm/contracts/oapp/OAppSender.sol\":4650:4841  function _payNative(uint256 _nativeFee) internal virtual returns (uint256 nativeFee) {... */\n    tag_377:\n        /* \"@layerzerolabs/oapp-evm/contracts/oapp/OAppSender.sol\":4716:4733  uint256 nativeFee */\n      0x00\n        /* \"@layerzerolabs/oapp-evm/contracts/oapp/OAppSender.sol\":4762:4772  _nativeFee */\n      dup2\n        /* \"@layerzerolabs/oapp-evm/contracts/oapp/OAppSender.sol\":4749:4758  msg.value */\n      callvalue\n        /* \"@layerzerolabs/oapp-evm/contracts/oapp/OAppSender.sol\":4749:4772  msg.value != _nativeFee */\n      eq\n        /* \"@layerzerolabs/oapp-evm/contracts/oapp/OAppSender.sol\":4745:4807  if (msg.value != _nativeFee) revert NotEnoughNative(msg.value) */\n      tag_391\n      jumpi\n        /* \"@layerzerolabs/oapp-evm/contracts/oapp/OAppSender.sol\":4781:4807  NotEnoughNative(msg.value) */\n      mload(0x40)\n      shl(0xe5, 0x04fb8209)\n      dup2\n      mstore\n        /* \"@layerzerolabs/oapp-evm/contracts/oapp/OAppSender.sol\":4797:4806  msg.value */\n      callvalue\n        /* \"@layerzerolabs/oapp-evm/contracts/oapp/OAppSender.sol\":4781:4807  NotEnoughNative(msg.value) */\n      0x04\n      dup3\n      add\n        /* \"#utility.yul\":10821:10846   */\n      mstore\n        /* \"#utility.yul\":10794:10812   */\n      0x24\n      add\n        /* \"@layerzerolabs/oapp-evm/contracts/oapp/OAppSender.sol\":4781:4807  NotEnoughNative(msg.value) */\n      tag_166\n        /* \"#utility.yul\":10675:10852   */\n      jump\n        /* \"@layerzerolabs/oapp-evm/contracts/oapp/OAppSender.sol\":4745:4807  if (msg.value != _nativeFee) revert NotEnoughNative(msg.value) */\n    tag_391:\n      pop\n        /* \"@layerzerolabs/oapp-evm/contracts/oapp/OAppSender.sol\":4824:4834  _nativeFee */\n      swap1\n        /* \"@layerzerolabs/oapp-evm/contracts/oapp/OAppSender.sol\":4650:4841  function _payNative(uint256 _nativeFee) internal virtual returns (uint256 nativeFee) {... */\n      jump\t// out\n        /* \"@layerzerolabs/oapp-evm/contracts/oapp/OAppSender.sol\":5218:5628  function _payLzToken(uint256 _lzTokenFee) internal virtual {... */\n    tag_380:\n        /* \"@layerzerolabs/oapp-evm/contracts/oapp/OAppSender.sol\":5371:5386  address lzToken */\n      0x00\n        /* \"@layerzerolabs/oapp-evm/contracts/oapp/OAppSender.sol\":5389:5397  endpoint */\n      immutable(\"0xef80077fd7ee005d1b0377e3e959eb59d0ca83c4839422f862a3540a66a91fb5\")\n      sub(shl(0xa0, 0x01), 0x01)\n        /* \"@layerzerolabs/oapp-evm/contracts/oapp/OAppSender.sol\":5389:5405  endpoint.lzToken */\n      and\n      0xe4fe1d94\n        /* \"@layerzerolabs/oapp-evm/contracts/oapp/OAppSender.sol\":5389:5407  endpoint.lzToken() */\n      mload(0x40)\n      dup2\n      0xffffffff\n      and\n      0xe0\n      shl\n      dup2\n      mstore\n      0x04\n      add\n      0x20\n      mload(0x40)\n      dup1\n      dup4\n      sub\n      dup2\n      dup7\n      gas\n      staticcall\n      iszero\n      dup1\n      iszero\n      tag_395\n      jumpi\n      returndatasize\n      0x00\n      dup1\n      returndatacopy\n      revert(0x00, returndatasize)\n    tag_395:\n      pop\n      pop\n      pop\n      pop\n      mload(0x40)\n      returndatasize\n      not(0x1f)\n      0x1f\n      dup3\n      add\n      and\n      dup3\n      add\n      dup1\n      0x40\n      mstore\n      pop\n      dup2\n      add\n      swap1\n      tag_396\n      swap2\n      swap1\n      tag_397\n      jump\t// in\n    tag_396:\n        /* \"@layerzerolabs/oapp-evm/contracts/oapp/OAppSender.sol\":5371:5407  address lzToken = endpoint.lzToken() */\n      swap1\n      pop\n      sub(shl(0xa0, 0x01), 0x01)\n        /* \"@layerzerolabs/oapp-evm/contracts/oapp/OAppSender.sol\":5421:5442  lzToken == address(0) */\n      dup2\n      and\n        /* \"@layerzerolabs/oapp-evm/contracts/oapp/OAppSender.sol\":5417:5471  if (lzToken == address(0)) revert LzTokenUnavailable() */\n      tag_398\n      jumpi\n        /* \"@layerzerolabs/oapp-evm/contracts/oapp/OAppSender.sol\":5451:5471  LzTokenUnavailable() */\n      mload(0x40)\n      shl(0xe1, 0x29b99a95)\n      dup2\n      mstore\n      0x04\n      add\n      mload(0x40)\n      dup1\n      swap2\n      sub\n      swap1\n      revert\n        /* \"@layerzerolabs/oapp-evm/contracts/oapp/OAppSender.sol\":5417:5471  if (lzToken == address(0)) revert LzTokenUnavailable() */\n    tag_398:\n        /* \"@openzeppelin/contracts/token/ERC20/utils/SafeERC20.sol\":1745:1798  abi.encodeCall(token.transferFrom, (from, to, value)) */\n      0x40\n      dup1\n      mload\n        /* \"@layerzerolabs/oapp-evm/contracts/oapp/OAppSender.sol\":5578:5588  msg.sender */\n      caller\n        /* \"@openzeppelin/contracts/token/ERC20/utils/SafeERC20.sol\":1745:1798  abi.encodeCall(token.transferFrom, (from, to, value)) */\n      0x24\n      dup3\n      add\n        /* \"#utility.yul\":13443:13517   */\n      dup2\n      swap1\n      mstore\n        /* \"@layerzerolabs/oapp-evm/contracts/oapp/OAppSender.sol\":5598:5606  endpoint */\n      immutable(\"0xef80077fd7ee005d1b0377e3e959eb59d0ca83c4839422f862a3540a66a91fb5\")\n      sub(shl(0xa0, 0x01), 0x01)\n        /* \"#utility.yul\":13553:13608   */\n      dup2\n      dup2\n      and\n        /* \"#utility.yul\":13533:13551   */\n      0x44\n      dup6\n      add\n        /* \"#utility.yul\":13526:13609   */\n      mstore\n        /* \"#utility.yul\":13625:13643   */\n      0x64\n      dup1\n      dup6\n      add\n        /* \"#utility.yul\":13618:13652   */\n      dup9\n      swap1\n      mstore\n        /* \"@openzeppelin/contracts/token/ERC20/utils/SafeERC20.sol\":1745:1798  abi.encodeCall(token.transferFrom, (from, to, value)) */\n      dup6\n      mload\n      dup1\n      dup7\n      sub\n      swap1\n      swap2\n      add\n      dup2\n      mstore\n        /* \"#utility.yul\":13416:13434   */\n      0x84\n      swap1\n      swap5\n      add\n        /* \"@openzeppelin/contracts/token/ERC20/utils/SafeERC20.sol\":1745:1798  abi.encodeCall(token.transferFrom, (from, to, value)) */\n      swap1\n      swap5\n      mstore\n      0x20\n      dup4\n      add\n      dup1\n      mload\n      sub(shl(0xe0, 0x01), 0x01)\n      and\n      shl(0xe0, 0x23b872dd)\n      or\n      swap1\n      mstore\n        /* \"@layerzerolabs/oapp-evm/contracts/oapp/OAppSender.sol\":5545:5621  IERC20(lzToken).safeTransferFrom(msg.sender, address(endpoint), _lzTokenFee) */\n      tag_184\n      swap4\n        /* \"@layerzerolabs/oapp-evm/contracts/oapp/OAppSender.sol\":5545:5577  IERC20(lzToken).safeTransferFrom */\n      dup6\n      and\n      swap3\n        /* \"@layerzerolabs/oapp-evm/contracts/oapp/OAppSender.sol\":5609:5620  _lzTokenFee */\n      dup7\n      swap1\n        /* \"@openzeppelin/contracts/token/ERC20/utils/SafeERC20.sol\":1718:1799  _callOptionalReturn(token, abi.encodeCall(token.transferFrom, (from, to, value))) */\n      tag_402\n      swap1\n        /* \"@layerzerolabs/oapp-evm/contracts/oapp/OAppSender.sol\":5545:5577  IERC20(lzToken).safeTransferFrom */\n      dup6\n      swap1\n        /* \"@openzeppelin/contracts/token/ERC20/utils/SafeERC20.sol\":1718:1737  _callOptionalReturn */\n      tag_404\n        /* \"@openzeppelin/contracts/token/ERC20/utils/SafeERC20.sol\":1718:1799  _callOptionalReturn(token, abi.encodeCall(token.transferFrom, (from, to, value))) */\n      jump\t// in\n    tag_402:\n        /* \"@openzeppelin/contracts/token/ERC20/utils/SafeERC20.sol\":1618:1806  function safeTransferFrom(IERC20 token, address from, address to, uint256 value) internal {... */\n      pop\n      pop\n      pop\n      pop\n      jump\t// out\n        /* \"@openzeppelin/contracts/token/ERC20/utils/SafeERC20.sol\":8370:9090  function _callOptionalReturn(IERC20 token, bytes memory data) private {... */\n    tag_404:\n        /* \"@openzeppelin/contracts/token/ERC20/utils/SafeERC20.sol\":8450:8468  uint256 returnSize */\n      0x00\n        /* \"@openzeppelin/contracts/token/ERC20/utils/SafeERC20.sol\":8478:8497  uint256 returnValue */\n      dup1\n        /* \"@openzeppelin/contracts/token/ERC20/utils/SafeERC20.sol\":8616:8620  0x20 */\n      0x20\n        /* \"@openzeppelin/contracts/token/ERC20/utils/SafeERC20.sol\":8613:8614  0 */\n      0x00\n        /* \"@openzeppelin/contracts/token/ERC20/utils/SafeERC20.sol\":8606:8610  data */\n      dup5\n        /* \"@openzeppelin/contracts/token/ERC20/utils/SafeERC20.sol\":8600:8611  mload(data) */\n      mload\n        /* \"@openzeppelin/contracts/token/ERC20/utils/SafeERC20.sol\":8593:8597  0x20 */\n      0x20\n        /* \"@openzeppelin/contracts/token/ERC20/utils/SafeERC20.sol\":8587:8591  data */\n      dup7\n        /* \"@openzeppelin/contracts/token/ERC20/utils/SafeERC20.sol\":8583:8598  add(data, 0x20) */\n      add\n        /* \"@openzeppelin/contracts/token/ERC20/utils/SafeERC20.sol\":8580:8581  0 */\n      0x00\n        /* \"@openzeppelin/contracts/token/ERC20/utils/SafeERC20.sol\":8573:8578  token */\n      dup9\n        /* \"@openzeppelin/contracts/token/ERC20/utils/SafeERC20.sol\":8566:8571  gas() */\n      gas\n        /* \"@openzeppelin/contracts/token/ERC20/utils/SafeERC20.sol\":8561:8621  call(gas(), token, 0, add(data, 0x20), mload(data), 0, 0x20) */\n      call\n        /* \"@openzeppelin/contracts/token/ERC20/utils/SafeERC20.sol\":8673:8680  success */\n      dup1\n        /* \"@openzeppelin/contracts/token/ERC20/utils/SafeERC20.sol\":8663:8839  if iszero(success) {... */\n      tag_406\n      jumpi\n        /* \"@openzeppelin/contracts/token/ERC20/utils/SafeERC20.sol\":8717:8721  0x40 */\n      0x40\n        /* \"@openzeppelin/contracts/token/ERC20/utils/SafeERC20.sol\":8711:8722  mload(0x40) */\n      mload\n        /* \"@openzeppelin/contracts/token/ERC20/utils/SafeERC20.sol\":8762:8778  returndatasize() */\n      returndatasize\n        /* \"@openzeppelin/contracts/token/ERC20/utils/SafeERC20.sol\":8759:8760  0 */\n      0x00\n        /* \"@openzeppelin/contracts/token/ERC20/utils/SafeERC20.sol\":8754:8757  ptr */\n      dup3\n        /* \"@openzeppelin/contracts/token/ERC20/utils/SafeERC20.sol\":8739:8779  returndatacopy(ptr, 0, returndatasize()) */\n      returndatacopy\n        /* \"@openzeppelin/contracts/token/ERC20/utils/SafeERC20.sol\":8808:8824  returndatasize() */\n      returndatasize\n        /* \"@openzeppelin/contracts/token/ERC20/utils/SafeERC20.sol\":8803:8806  ptr */\n      dup2\n        /* \"@openzeppelin/contracts/token/ERC20/utils/SafeERC20.sol\":8796:8825  revert(ptr, returndatasize()) */\n      revert\n        /* \"@openzeppelin/contracts/token/ERC20/utils/SafeERC20.sol\":8663:8839  if iszero(success) {... */\n    tag_406:\n      pop\n      pop\n        /* \"@openzeppelin/contracts/token/ERC20/utils/SafeERC20.sol\":8916:8917  0 */\n      0x00\n        /* \"@openzeppelin/contracts/token/ERC20/utils/SafeERC20.sol\":8910:8918  mload(0) */\n      mload\n        /* \"@openzeppelin/contracts/token/ERC20/utils/SafeERC20.sol\":8866:8882  returndatasize() */\n      returndatasize\n      swap2\n      pop\n        /* \"@openzeppelin/contracts/token/ERC20/utils/SafeERC20.sol\":8942:8957  returnSize == 0 */\n      dup2\n      iszero\n        /* \"@openzeppelin/contracts/token/ERC20/utils/SafeERC20.sol\":8942:9010  returnSize == 0 ? address(token).code.length == 0 : returnValue != 1 */\n      tag_407\n      jumpi\n        /* \"@openzeppelin/contracts/token/ERC20/utils/SafeERC20.sol\":8994:9005  returnValue */\n      dup1\n        /* \"@openzeppelin/contracts/token/ERC20/utils/SafeERC20.sol\":9009:9010  1 */\n      0x01\n        /* \"@openzeppelin/contracts/token/ERC20/utils/SafeERC20.sol\":8994:9010  returnValue != 1 */\n      eq\n      iszero\n        /* \"@openzeppelin/contracts/token/ERC20/utils/SafeERC20.sol\":8942:9010  returnSize == 0 ? address(token).code.length == 0 : returnValue != 1 */\n      jump(tag_408)\n    tag_407:\n      sub(shl(0xa0, 0x01), 0x01)\n        /* \"@openzeppelin/contracts/token/ERC20/utils/SafeERC20.sol\":8960:8986  address(token).code.length */\n      dup5\n      and\n      extcodesize\n        /* \"@openzeppelin/contracts/token/ERC20/utils/SafeERC20.sol\":8960:8991  address(token).code.length == 0 */\n      iszero\n        /* \"@openzeppelin/contracts/token/ERC20/utils/SafeERC20.sol\":8942:9010  returnSize == 0 ? address(token).code.length == 0 : returnValue != 1 */\n    tag_408:\n        /* \"@openzeppelin/contracts/token/ERC20/utils/SafeERC20.sol\":8938:9084  if (returnSize == 0 ? address(token).code.length == 0 : returnValue != 1) {... */\n      iszero\n      tag_402\n      jumpi\n        /* \"@openzeppelin/contracts/token/ERC20/utils/SafeERC20.sol\":9033:9073  SafeERC20FailedOperation(address(token)) */\n      mload(0x40)\n      shl(0xe0, 0x5274afe7)\n      dup2\n      mstore\n      sub(shl(0xa0, 0x01), 0x01)\n        /* \"#utility.yul\":5980:6035   */\n      dup6\n      and\n        /* \"@openzeppelin/contracts/token/ERC20/utils/SafeERC20.sol\":9033:9073  SafeERC20FailedOperation(address(token)) */\n      0x04\n      dup3\n      add\n        /* \"#utility.yul\":5962:6036   */\n      mstore\n        /* \"#utility.yul\":5935:5953   */\n      0x24\n      add\n        /* \"@openzeppelin/contracts/token/ERC20/utils/SafeERC20.sol\":9033:9073  SafeERC20FailedOperation(address(token)) */\n      tag_166\n        /* \"#utility.yul\":5788:6042   */\n      jump\n    tag_374:\n      mload(0x40)\n      dup1\n      0x60\n      add\n      0x40\n      mstore\n      dup1\n      0x00\n      dup1\n      not\n      and\n      dup2\n      mstore\n      0x20\n      add\n      and(sub(shl(0x40, 0x01), 0x01), 0x00)\n      dup2\n      mstore\n      0x20\n      add\n      tag_411\n      mload(0x40)\n      dup1\n      0x40\n      add\n      0x40\n      mstore\n      dup1\n      0x00\n      dup2\n      mstore\n      0x20\n      add\n      0x00\n      dup2\n      mstore\n      pop\n      swap1\n      jump\n    tag_411:\n      swap1\n      mstore\n      swap1\n      jump\t// out\n        /* \"#utility.yul\":14:177   */\n    tag_412:\n        /* \"#utility.yul\":81:101   */\n      dup1\n      calldataload\n        /* \"#utility.yul\":141:151   */\n      0xffffffff\n        /* \"#utility.yul\":130:152   */\n      dup2\n      and\n        /* \"#utility.yul\":120:153   */\n      dup2\n      eq\n        /* \"#utility.yul\":110:171   */\n      tag_423\n      jumpi\n        /* \"#utility.yul\":167:168   */\n      0x00\n        /* \"#utility.yul\":164:165   */\n      dup1\n        /* \"#utility.yul\":157:169   */\n      revert\n        /* \"#utility.yul\":110:171   */\n    tag_423:\n        /* \"#utility.yul\":14:177   */\n      swap2\n      swap1\n      pop\n      jump\t// out\n        /* \"#utility.yul\":182:366   */\n    tag_40:\n        /* \"#utility.yul\":240:246   */\n      0x00\n        /* \"#utility.yul\":293:295   */\n      0x20\n        /* \"#utility.yul\":281:290   */\n      dup3\n        /* \"#utility.yul\":272:279   */\n      dup5\n        /* \"#utility.yul\":268:291   */\n      sub\n        /* \"#utility.yul\":264:296   */\n      slt\n        /* \"#utility.yul\":261:313   */\n      iszero\n      tag_425\n      jumpi\n        /* \"#utility.yul\":309:310   */\n      0x00\n        /* \"#utility.yul\":306:307   */\n      dup1\n        /* \"#utility.yul\":299:311   */\n      revert\n        /* \"#utility.yul\":261:313   */\n    tag_425:\n        /* \"#utility.yul\":332:360   */\n      tag_426\n        /* \"#utility.yul\":350:359   */\n      dup3\n        /* \"#utility.yul\":332:360   */\n      tag_412\n      jump\t// in\n    tag_426:\n        /* \"#utility.yul\":322:360   */\n      swap4\n        /* \"#utility.yul\":182:366   */\n      swap3\n      pop\n      pop\n      pop\n      jump\t// out\n        /* \"#utility.yul\":371:525   */\n    tag_413:\n        /* \"#utility.yul\":430:435   */\n      0x00\n        /* \"#utility.yul\":475:477   */\n      0x60\n        /* \"#utility.yul\":466:472   */\n      dup3\n        /* \"#utility.yul\":461:464   */\n      dup5\n        /* \"#utility.yul\":457:473   */\n      sub\n        /* \"#utility.yul\":453:478   */\n      slt\n        /* \"#utility.yul\":450:495   */\n      iszero\n      tag_428\n      jumpi\n        /* \"#utility.yul\":491:492   */\n      0x00\n        /* \"#utility.yul\":488:489   */\n      dup1\n        /* \"#utility.yul\":481:493   */\n      revert\n        /* \"#utility.yul\":450:495   */\n    tag_428:\n      pop\n        /* \"#utility.yul\":513:519   */\n      swap2\n        /* \"#utility.yul\":371:525   */\n      swap1\n      pop\n      jump\t// out\n        /* \"#utility.yul\":530:877   */\n    tag_414:\n        /* \"#utility.yul\":581:589   */\n      0x00\n        /* \"#utility.yul\":591:597   */\n      dup1\n        /* \"#utility.yul\":645:648   */\n      dup4\n        /* \"#utility.yul\":638:642   */\n      0x1f\n        /* \"#utility.yul\":630:636   */\n      dup5\n        /* \"#utility.yul\":626:643   */\n      add\n        /* \"#utility.yul\":622:649   */\n      slt\n        /* \"#utility.yul\":612:667   */\n      tag_430\n      jumpi\n        /* \"#utility.yul\":663:664   */\n      0x00\n        /* \"#utility.yul\":660:661   */\n      dup1\n        /* \"#utility.yul\":653:665   */\n      revert\n        /* \"#utility.yul\":612:667   */\n    tag_430:\n      pop\n        /* \"#utility.yul\":686:706   */\n      dup2\n      calldataload\n      sub(shl(0x40, 0x01), 0x01)\n        /* \"#utility.yul\":718:748   */\n      dup2\n      gt\n        /* \"#utility.yul\":715:765   */\n      iszero\n      tag_431\n      jumpi\n        /* \"#utility.yul\":761:762   */\n      0x00\n        /* \"#utility.yul\":758:759   */\n      dup1\n        /* \"#utility.yul\":751:763   */\n      revert\n        /* \"#utility.yul\":715:765   */\n    tag_431:\n        /* \"#utility.yul\":798:802   */\n      0x20\n        /* \"#utility.yul\":790:796   */\n      dup4\n        /* \"#utility.yul\":786:803   */\n      add\n        /* \"#utility.yul\":774:803   */\n      swap2\n      pop\n        /* \"#utility.yul\":850:853   */\n      dup4\n        /* \"#utility.yul\":843:847   */\n      0x20\n        /* \"#utility.yul\":834:840   */\n      dup3\n        /* \"#utility.yul\":826:832   */\n      dup6\n        /* \"#utility.yul\":822:841   */\n      add\n        /* \"#utility.yul\":818:848   */\n      add\n        /* \"#utility.yul\":815:854   */\n      gt\n        /* \"#utility.yul\":812:871   */\n      iszero\n      tag_432\n      jumpi\n        /* \"#utility.yul\":867:868   */\n      0x00\n        /* \"#utility.yul\":864:865   */\n      dup1\n        /* \"#utility.yul\":857:869   */\n      revert\n        /* \"#utility.yul\":812:871   */\n    tag_432:\n        /* \"#utility.yul\":530:877   */\n      swap3\n      pop\n      swap3\n      swap1\n      pop\n      jump\t// out\n        /* \"#utility.yul\":882:1036   */\n    tag_415:\n      sub(shl(0xa0, 0x01), 0x01)\n        /* \"#utility.yul\":961:966   */\n      dup2\n        /* \"#utility.yul\":957:1011   */\n      and\n        /* \"#utility.yul\":950:955   */\n      dup2\n        /* \"#utility.yul\":947:1012   */\n      eq\n        /* \"#utility.yul\":937:1030   */\n      tag_341\n      jumpi\n        /* \"#utility.yul\":1026:1027   */\n      0x00\n        /* \"#utility.yul\":1023:1024   */\n      dup1\n        /* \"#utility.yul\":1016:1028   */\n      revert\n        /* \"#utility.yul\":1041:2134   */\n    tag_44:\n        /* \"#utility.yul\":1182:1188   */\n      0x00\n        /* \"#utility.yul\":1190:1196   */\n      dup1\n        /* \"#utility.yul\":1198:1204   */\n      0x00\n        /* \"#utility.yul\":1206:1212   */\n      dup1\n        /* \"#utility.yul\":1214:1220   */\n      0x00\n        /* \"#utility.yul\":1222:1228   */\n      dup1\n        /* \"#utility.yul\":1230:1236   */\n      0x00\n        /* \"#utility.yul\":1283:1286   */\n      0xe0\n        /* \"#utility.yul\":1271:1280   */\n      dup9\n        /* \"#utility.yul\":1262:1269   */\n      dup11\n        /* \"#utility.yul\":1258:1281   */\n      sub\n        /* \"#utility.yul\":1254:1287   */\n      slt\n        /* \"#utility.yul\":1251:1304   */\n      iszero\n      tag_436\n      jumpi\n        /* \"#utility.yul\":1300:1301   */\n      0x00\n        /* \"#utility.yul\":1297:1298   */\n      dup1\n        /* \"#utility.yul\":1290:1302   */\n      revert\n        /* \"#utility.yul\":1251:1304   */\n    tag_436:\n        /* \"#utility.yul\":1323:1376   */\n      tag_437\n        /* \"#utility.yul\":1368:1375   */\n      dup10\n        /* \"#utility.yul\":1357:1366   */\n      dup10\n        /* \"#utility.yul\":1323:1376   */\n      tag_413\n      jump\t// in\n    tag_437:\n        /* \"#utility.yul\":1313:1376   */\n      swap7\n      pop\n        /* \"#utility.yul\":1445:1447   */\n      0x60\n        /* \"#utility.yul\":1430:1448   */\n      dup9\n      add\n        /* \"#utility.yul\":1417:1449   */\n      calldataload\n      swap6\n      pop\n        /* \"#utility.yul\":1524:1527   */\n      0x80\n        /* \"#utility.yul\":1509:1528   */\n      dup9\n      add\n        /* \"#utility.yul\":1496:1529   */\n      calldataload\n      sub(shl(0x40, 0x01), 0x01)\n        /* \"#utility.yul\":1541:1571   */\n      dup2\n      gt\n        /* \"#utility.yul\":1538:1588   */\n      iszero\n      tag_438\n      jumpi\n        /* \"#utility.yul\":1584:1585   */\n      0x00\n        /* \"#utility.yul\":1581:1582   */\n      dup1\n        /* \"#utility.yul\":1574:1586   */\n      revert\n        /* \"#utility.yul\":1538:1588   */\n    tag_438:\n        /* \"#utility.yul\":1623:1681   */\n      tag_439\n        /* \"#utility.yul\":1673:1680   */\n      dup11\n        /* \"#utility.yul\":1664:1670   */\n      dup3\n        /* \"#utility.yul\":1653:1662   */\n      dup12\n        /* \"#utility.yul\":1649:1671   */\n      add\n        /* \"#utility.yul\":1623:1681   */\n      tag_414\n      jump\t// in\n    tag_439:\n        /* \"#utility.yul\":1700:1708   */\n      swap1\n      swap7\n      pop\n        /* \"#utility.yul\":1597:1681   */\n      swap5\n      pop\n      pop\n        /* \"#utility.yul\":1787:1790   */\n      0xa0\n        /* \"#utility.yul\":1772:1791   */\n      dup9\n      add\n        /* \"#utility.yul\":1759:1792   */\n      calldataload\n        /* \"#utility.yul\":1801:1834   */\n      tag_440\n        /* \"#utility.yul\":1759:1792   */\n      dup2\n        /* \"#utility.yul\":1801:1834   */\n      tag_415\n      jump\t// in\n    tag_440:\n        /* \"#utility.yul\":1853:1860   */\n      swap3\n      pop\n        /* \"#utility.yul\":1913:1916   */\n      0xc0\n        /* \"#utility.yul\":1898:1917   */\n      dup9\n      add\n        /* \"#utility.yul\":1885:1918   */\n      calldataload\n      sub(shl(0x40, 0x01), 0x01)\n        /* \"#utility.yul\":1930:1962   */\n      dup2\n      gt\n        /* \"#utility.yul\":1927:1979   */\n      iszero\n      tag_441\n      jumpi\n        /* \"#utility.yul\":1975:1976   */\n      0x00\n        /* \"#utility.yul\":1972:1973   */\n      dup1\n        /* \"#utility.yul\":1965:1977   */\n      revert\n        /* \"#utility.yul\":1927:1979   */\n    tag_441:\n        /* \"#utility.yul\":2014:2074   */\n      tag_442\n        /* \"#utility.yul\":2066:2073   */\n      dup11\n        /* \"#utility.yul\":2055:2063   */\n      dup3\n        /* \"#utility.yul\":2044:2053   */\n      dup12\n        /* \"#utility.yul\":2040:2064   */\n      add\n        /* \"#utility.yul\":2014:2074   */\n      tag_414\n      jump\t// in\n    tag_442:\n        /* \"#utility.yul\":1041:2134   */\n      swap9\n      swap12\n      swap8\n      swap11\n      pop\n      swap6\n      swap9\n      pop\n      swap4\n      swap7\n      swap3\n      swap6\n        /* \"#utility.yul\":1988:2074   */\n      swap3\n      swap4\n      pop\n      pop\n      pop\n        /* \"#utility.yul\":1041:2134   */\n      jump\t// out\n        /* \"#utility.yul\":2438:2736   */\n    tag_54:\n        /* \"#utility.yul\":2505:2511   */\n      0x00\n        /* \"#utility.yul\":2513:2519   */\n      dup1\n        /* \"#utility.yul\":2566:2568   */\n      0x40\n        /* \"#utility.yul\":2554:2563   */\n      dup4\n        /* \"#utility.yul\":2545:2552   */\n      dup6\n        /* \"#utility.yul\":2541:2564   */\n      sub\n        /* \"#utility.yul\":2537:2569   */\n      slt\n        /* \"#utility.yul\":2534:2586   */\n      iszero\n      tag_445\n      jumpi\n        /* \"#utility.yul\":2582:2583   */\n      0x00\n        /* \"#utility.yul\":2579:2580   */\n      dup1\n        /* \"#utility.yul\":2572:2584   */\n      revert\n        /* \"#utility.yul\":2534:2586   */\n    tag_445:\n        /* \"#utility.yul\":2605:2633   */\n      tag_446\n        /* \"#utility.yul\":2623:2632   */\n      dup4\n        /* \"#utility.yul\":2605:2633   */\n      tag_412\n      jump\t// in\n    tag_446:\n        /* \"#utility.yul\":2595:2633   */\n      swap5\n        /* \"#utility.yul\":2702:2704   */\n      0x20\n        /* \"#utility.yul\":2687:2705   */\n      swap4\n      swap1\n      swap4\n      add\n        /* \"#utility.yul\":2674:2706   */\n      calldataload\n      swap4\n      pop\n      pop\n      pop\n        /* \"#utility.yul\":2438:2736   */\n      jump\t// out\n        /* \"#utility.yul\":2741:2868   */\n    tag_416:\n        /* \"#utility.yul\":2802:2812   */\n      0x4e487b71\n        /* \"#utility.yul\":2797:2800   */\n      0xe0\n        /* \"#utility.yul\":2793:2813   */\n      shl\n        /* \"#utility.yul\":2790:2791   */\n      0x00\n        /* \"#utility.yul\":2783:2814   */\n      mstore\n        /* \"#utility.yul\":2833:2837   */\n      0x41\n        /* \"#utility.yul\":2830:2831   */\n      0x04\n        /* \"#utility.yul\":2823:2838   */\n      mstore\n        /* \"#utility.yul\":2857:2861   */\n      0x24\n        /* \"#utility.yul\":2854:2855   */\n      0x00\n        /* \"#utility.yul\":2847:2862   */\n      revert\n        /* \"#utility.yul\":2873:3619   */\n    tag_417:\n        /* \"#utility.yul\":2916:2921   */\n      0x00\n        /* \"#utility.yul\":2969:2972   */\n      dup3\n        /* \"#utility.yul\":2962:2966   */\n      0x1f\n        /* \"#utility.yul\":2954:2960   */\n      dup4\n        /* \"#utility.yul\":2950:2967   */\n      add\n        /* \"#utility.yul\":2946:2973   */\n      slt\n        /* \"#utility.yul\":2936:2991   */\n      tag_449\n      jumpi\n        /* \"#utility.yul\":2987:2988   */\n      0x00\n        /* \"#utility.yul\":2984:2985   */\n      dup1\n        /* \"#utility.yul\":2977:2989   */\n      revert\n        /* \"#utility.yul\":2936:2991   */\n    tag_449:\n        /* \"#utility.yul\":3027:3033   */\n      dup2\n        /* \"#utility.yul\":3014:3034   */\n      calldataload\n      sub(shl(0x40, 0x01), 0x01)\n        /* \"#utility.yul\":3049:3055   */\n      dup2\n        /* \"#utility.yul\":3046:3076   */\n      gt\n        /* \"#utility.yul\":3043:3099   */\n      iszero\n      tag_451\n      jumpi\n        /* \"#utility.yul\":3079:3097   */\n      tag_451\n      tag_416\n      jump\t// in\n    tag_451:\n        /* \"#utility.yul\":3148:3150   */\n      0x40\n        /* \"#utility.yul\":3142:3151   */\n      mload\n        /* \"#utility.yul\":3240:3242   */\n      0x1f\n        /* \"#utility.yul\":3202:3219   */\n      dup3\n      add\n      not(0x1f)\n        /* \"#utility.yul\":3198:3229   */\n      swap1\n      dup2\n      and\n        /* \"#utility.yul\":3231:3233   */\n      0x3f\n        /* \"#utility.yul\":3194:3234   */\n      add\n        /* \"#utility.yul\":3190:3244   */\n      and\n        /* \"#utility.yul\":3178:3245   */\n      dup2\n      add\n      sub(shl(0x40, 0x01), 0x01)\n        /* \"#utility.yul\":3260:3294   */\n      dup2\n      gt\n        /* \"#utility.yul\":3296:3318   */\n      dup3\n      dup3\n      lt\n        /* \"#utility.yul\":3257:3319   */\n      or\n        /* \"#utility.yul\":3254:3342   */\n      iszero\n      tag_453\n      jumpi\n        /* \"#utility.yul\":3322:3340   */\n      tag_453\n      tag_416\n      jump\t// in\n    tag_453:\n        /* \"#utility.yul\":3358:3360   */\n      0x40\n        /* \"#utility.yul\":3351:3373   */\n      mstore\n        /* \"#utility.yul\":3382:3404   */\n      dup2\n      dup2\n      mstore\n        /* \"#utility.yul\":3423:3442   */\n      dup4\n      dup3\n      add\n        /* \"#utility.yul\":3444:3448   */\n      0x20\n        /* \"#utility.yul\":3419:3449   */\n      add\n        /* \"#utility.yul\":3416:3455   */\n      dup6\n      lt\n        /* \"#utility.yul\":3413:3472   */\n      iszero\n      tag_454\n      jumpi\n        /* \"#utility.yul\":3468:3469   */\n      0x00\n        /* \"#utility.yul\":3465:3466   */\n      dup1\n        /* \"#utility.yul\":3458:3470   */\n      revert\n        /* \"#utility.yul\":3413:3472   */\n    tag_454:\n        /* \"#utility.yul\":3532:3538   */\n      dup2\n        /* \"#utility.yul\":3525:3529   */\n      0x20\n        /* \"#utility.yul\":3517:3523   */\n      dup6\n        /* \"#utility.yul\":3513:3530   */\n      add\n        /* \"#utility.yul\":3506:3510   */\n      0x20\n        /* \"#utility.yul\":3498:3504   */\n      dup4\n        /* \"#utility.yul\":3494:3511   */\n      add\n        /* \"#utility.yul\":3481:3539   */\n      calldatacopy\n        /* \"#utility.yul\":3587:3588   */\n      0x00\n        /* \"#utility.yul\":3559:3578   */\n      swap2\n      dup2\n      add\n        /* \"#utility.yul\":3580:3584   */\n      0x20\n        /* \"#utility.yul\":3555:3585   */\n      add\n        /* \"#utility.yul\":3548:3589   */\n      swap2\n      swap1\n      swap2\n      mstore\n        /* \"#utility.yul\":3563:3569   */\n      swap4\n        /* \"#utility.yul\":2873:3619   */\n      swap3\n      pop\n      pop\n      pop\n      jump\t// out\n        /* \"#utility.yul\":3624:4580   */\n    tag_58:\n        /* \"#utility.yul\":3741:3747   */\n      0x00\n        /* \"#utility.yul\":3749:3755   */\n      dup1\n        /* \"#utility.yul\":3757:3763   */\n      0x00\n        /* \"#utility.yul\":3765:3771   */\n      dup1\n        /* \"#utility.yul\":3773:3779   */\n      0x00\n        /* \"#utility.yul\":3826:3829   */\n      0x80\n        /* \"#utility.yul\":3814:3823   */\n      dup7\n        /* \"#utility.yul\":3805:3812   */\n      dup9\n        /* \"#utility.yul\":3801:3824   */\n      sub\n        /* \"#utility.yul\":3797:3830   */\n      slt\n        /* \"#utility.yul\":3794:3847   */\n      iszero\n      tag_456\n      jumpi\n        /* \"#utility.yul\":3843:3844   */\n      0x00\n        /* \"#utility.yul\":3840:3841   */\n      dup1\n        /* \"#utility.yul\":3833:3845   */\n      revert\n        /* \"#utility.yul\":3794:3847   */\n    tag_456:\n        /* \"#utility.yul\":3883:3892   */\n      dup6\n        /* \"#utility.yul\":3870:3893   */\n      calldataload\n      sub(shl(0x40, 0x01), 0x01)\n        /* \"#utility.yul\":3908:3914   */\n      dup2\n        /* \"#utility.yul\":3905:3935   */\n      gt\n        /* \"#utility.yul\":3902:3952   */\n      iszero\n      tag_457\n      jumpi\n        /* \"#utility.yul\":3948:3949   */\n      0x00\n        /* \"#utility.yul\":3945:3946   */\n      dup1\n        /* \"#utility.yul\":3938:3950   */\n      revert\n        /* \"#utility.yul\":3902:3952   */\n    tag_457:\n        /* \"#utility.yul\":3971:4021   */\n      tag_458\n        /* \"#utility.yul\":4013:4020   */\n      dup9\n        /* \"#utility.yul\":4004:4010   */\n      dup3\n        /* \"#utility.yul\":3993:4002   */\n      dup10\n        /* \"#utility.yul\":3989:4011   */\n      add\n        /* \"#utility.yul\":3971:4021   */\n      tag_417\n      jump\t// in\n    tag_458:\n        /* \"#utility.yul\":3961:4021   */\n      swap6\n      pop\n      pop\n        /* \"#utility.yul\":4074:4076   */\n      0x20\n        /* \"#utility.yul\":4063:4072   */\n      dup7\n        /* \"#utility.yul\":4059:4077   */\n      add\n        /* \"#utility.yul\":4046:4078   */\n      calldataload\n      sub(shl(0x40, 0x01), 0x01)\n        /* \"#utility.yul\":4093:4101   */\n      dup2\n        /* \"#utility.yul\":4090:4122   */\n      gt\n        /* \"#utility.yul\":4087:4139   */\n      iszero\n      tag_459\n      jumpi\n        /* \"#utility.yul\":4135:4136   */\n      0x00\n        /* \"#utility.yul\":4132:4133   */\n      dup1\n        /* \"#utility.yul\":4125:4137   */\n      revert\n        /* \"#utility.yul\":4087:4139   */\n    tag_459:\n        /* \"#utility.yul\":4158:4210   */\n      tag_460\n        /* \"#utility.yul\":4202:4209   */\n      dup9\n        /* \"#utility.yul\":4191:4199   */\n      dup3\n        /* \"#utility.yul\":4180:4189   */\n      dup10\n        /* \"#utility.yul\":4176:4200   */\n      add\n        /* \"#utility.yul\":4158:4210   */\n      tag_417\n      jump\t// in\n    tag_460:\n        /* \"#utility.yul\":4148:4210   */\n      swap5\n      pop\n      pop\n        /* \"#utility.yul\":4279:4281   */\n      0x40\n        /* \"#utility.yul\":4264:4282   */\n      dup7\n      add\n        /* \"#utility.yul\":4251:4283   */\n      calldataload\n      swap3\n      pop\n        /* \"#utility.yul\":4360:4362   */\n      0x60\n        /* \"#utility.yul\":4345:4363   */\n      dup7\n      add\n        /* \"#utility.yul\":4332:4364   */\n      calldataload\n      sub(shl(0x40, 0x01), 0x01)\n        /* \"#utility.yul\":4376:4408   */\n      dup2\n      gt\n        /* \"#utility.yul\":4373:4425   */\n      iszero\n      tag_461\n      jumpi\n        /* \"#utility.yul\":4421:4422   */\n      0x00\n        /* \"#utility.yul\":4418:4419   */\n      dup1\n        /* \"#utility.yul\":4411:4423   */\n      revert\n        /* \"#utility.yul\":4373:4425   */\n    tag_461:\n        /* \"#utility.yul\":4460:4520   */\n      tag_462\n        /* \"#utility.yul\":4512:4519   */\n      dup9\n        /* \"#utility.yul\":4501:4509   */\n      dup3\n        /* \"#utility.yul\":4490:4499   */\n      dup10\n        /* \"#utility.yul\":4486:4510   */\n      add\n        /* \"#utility.yul\":4460:4520   */\n      tag_414\n      jump\t// in\n    tag_462:\n        /* \"#utility.yul\":3624:4580   */\n      swap7\n      swap10\n      swap6\n      swap9\n      pop\n      swap4\n      swap7\n      pop\n        /* \"#utility.yul\":4539:4547   */\n      swap3\n      swap5\n        /* \"#utility.yul\":4434:4520   */\n      swap4\n        /* \"#utility.yul\":3624:4580   */\n      swap3\n      pop\n      pop\n      pop\n      jump\t// out\n        /* \"#utility.yul\":4585:5783   */\n    tag_62:\n        /* \"#utility.yul\":4720:4726   */\n      0x00\n        /* \"#utility.yul\":4728:4734   */\n      dup1\n        /* \"#utility.yul\":4736:4742   */\n      0x00\n        /* \"#utility.yul\":4744:4750   */\n      dup1\n        /* \"#utility.yul\":4752:4758   */\n      0x00\n        /* \"#utility.yul\":4760:4766   */\n      dup1\n        /* \"#utility.yul\":4768:4774   */\n      0x00\n        /* \"#utility.yul\":4821:4824   */\n      0xc0\n        /* \"#utility.yul\":4809:4818   */\n      dup9\n        /* \"#utility.yul\":4800:4807   */\n      dup11\n        /* \"#utility.yul\":4796:4819   */\n      sub\n        /* \"#utility.yul\":4792:4825   */\n      slt\n        /* \"#utility.yul\":4789:4842   */\n      iszero\n      tag_464\n      jumpi\n        /* \"#utility.yul\":4838:4839   */\n      0x00\n        /* \"#utility.yul\":4835:4836   */\n      dup1\n        /* \"#utility.yul\":4828:4840   */\n      revert\n        /* \"#utility.yul\":4789:4842   */\n    tag_464:\n        /* \"#utility.yul\":4883:4906   */\n      dup8\n      calldataload\n      swap7\n      pop\n        /* \"#utility.yul\":5003:5005   */\n      0x20\n        /* \"#utility.yul\":4988:5006   */\n      dup9\n      add\n        /* \"#utility.yul\":4975:5007   */\n      calldataload\n      swap6\n      pop\n        /* \"#utility.yul\":5084:5086   */\n      0x40\n        /* \"#utility.yul\":5069:5087   */\n      dup9\n      add\n        /* \"#utility.yul\":5056:5088   */\n      calldataload\n      sub(shl(0x40, 0x01), 0x01)\n        /* \"#utility.yul\":5100:5130   */\n      dup2\n      gt\n        /* \"#utility.yul\":5097:5147   */\n      iszero\n      tag_465\n      jumpi\n        /* \"#utility.yul\":5143:5144   */\n      0x00\n        /* \"#utility.yul\":5140:5141   */\n      dup1\n        /* \"#utility.yul\":5133:5145   */\n      revert\n        /* \"#utility.yul\":5097:5147   */\n    tag_465:\n        /* \"#utility.yul\":5166:5216   */\n      tag_466\n        /* \"#utility.yul\":5208:5215   */\n      dup11\n        /* \"#utility.yul\":5199:5205   */\n      dup3\n        /* \"#utility.yul\":5188:5197   */\n      dup12\n        /* \"#utility.yul\":5184:5206   */\n      add\n        /* \"#utility.yul\":5166:5216   */\n      tag_417\n      jump\t// in\n    tag_466:\n        /* \"#utility.yul\":5156:5216   */\n      swap6\n      pop\n      pop\n        /* \"#utility.yul\":5269:5271   */\n      0x60\n        /* \"#utility.yul\":5258:5267   */\n      dup9\n        /* \"#utility.yul\":5254:5272   */\n      add\n        /* \"#utility.yul\":5241:5273   */\n      calldataload\n      sub(shl(0x40, 0x01), 0x01)\n        /* \"#utility.yul\":5288:5296   */\n      dup2\n        /* \"#utility.yul\":5285:5317   */\n      gt\n        /* \"#utility.yul\":5282:5334   */\n      iszero\n      tag_467\n      jumpi\n        /* \"#utility.yul\":5330:5331   */\n      0x00\n        /* \"#utility.yul\":5327:5328   */\n      dup1\n        /* \"#utility.yul\":5320:5332   */\n      revert\n        /* \"#utility.yul\":5282:5334   */\n    tag_467:\n        /* \"#utility.yul\":5353:5405   */\n      tag_468\n        /* \"#utility.yul\":5397:5404   */\n      dup11\n        /* \"#utility.yul\":5386:5394   */\n      dup3\n        /* \"#utility.yul\":5375:5384   */\n      dup12\n        /* \"#utility.yul\":5371:5395   */\n      add\n        /* \"#utility.yul\":5353:5405   */\n      tag_417\n      jump\t// in\n    tag_468:\n        /* \"#utility.yul\":5343:5405   */\n      swap5\n      pop\n      pop\n        /* \"#utility.yul\":5478:5481   */\n      0x80\n        /* \"#utility.yul\":5463:5482   */\n      dup9\n      add\n        /* \"#utility.yul\":5450:5483   */\n      calldataload\n      swap3\n      pop\n        /* \"#utility.yul\":5562:5565   */\n      0xa0\n        /* \"#utility.yul\":5547:5566   */\n      dup9\n      add\n        /* \"#utility.yul\":5534:5567   */\n      calldataload\n      sub(shl(0x40, 0x01), 0x01)\n        /* \"#utility.yul\":5579:5611   */\n      dup2\n      gt\n        /* \"#utility.yul\":5576:5628   */\n      iszero\n      tag_441\n      jumpi\n        /* \"#utility.yul\":5624:5625   */\n      0x00\n        /* \"#utility.yul\":5621:5622   */\n      dup1\n        /* \"#utility.yul\":5614:5626   */\n      revert\n        /* \"#utility.yul\":6449:6972   */\n    tag_85:\n        /* \"#utility.yul\":6528:6534   */\n      0x00\n        /* \"#utility.yul\":6536:6542   */\n      dup1\n        /* \"#utility.yul\":6544:6550   */\n      0x00\n        /* \"#utility.yul\":6597:6599   */\n      0x40\n        /* \"#utility.yul\":6585:6594   */\n      dup5\n        /* \"#utility.yul\":6576:6583   */\n      dup7\n        /* \"#utility.yul\":6572:6595   */\n      sub\n        /* \"#utility.yul\":6568:6600   */\n      slt\n        /* \"#utility.yul\":6565:6617   */\n      iszero\n      tag_475\n      jumpi\n        /* \"#utility.yul\":6613:6614   */\n      0x00\n        /* \"#utility.yul\":6610:6611   */\n      dup1\n        /* \"#utility.yul\":6603:6615   */\n      revert\n        /* \"#utility.yul\":6565:6617   */\n    tag_475:\n        /* \"#utility.yul\":6658:6681   */\n      dup4\n      calldataload\n      swap3\n      pop\n        /* \"#utility.yul\":6756:6758   */\n      0x20\n        /* \"#utility.yul\":6741:6759   */\n      dup5\n      add\n        /* \"#utility.yul\":6728:6760   */\n      calldataload\n      sub(shl(0x40, 0x01), 0x01)\n        /* \"#utility.yul\":6772:6802   */\n      dup2\n      gt\n        /* \"#utility.yul\":6769:6819   */\n      iszero\n      tag_476\n      jumpi\n        /* \"#utility.yul\":6815:6816   */\n      0x00\n        /* \"#utility.yul\":6812:6813   */\n      dup1\n        /* \"#utility.yul\":6805:6817   */\n      revert\n        /* \"#utility.yul\":6769:6819   */\n    tag_476:\n        /* \"#utility.yul\":6854:6912   */\n      tag_477\n        /* \"#utility.yul\":6904:6911   */\n      dup7\n        /* \"#utility.yul\":6895:6901   */\n      dup3\n        /* \"#utility.yul\":6884:6893   */\n      dup8\n        /* \"#utility.yul\":6880:6902   */\n      add\n        /* \"#utility.yul\":6854:6912   */\n      tag_414\n      jump\t// in\n    tag_477:\n        /* \"#utility.yul\":6449:6972   */\n      swap5\n      swap8\n        /* \"#utility.yul\":6931:6939   */\n      swap1\n      swap7\n      pop\n        /* \"#utility.yul\":6828:6912   */\n      swap4\n      swap5\n      pop\n      pop\n      pop\n      pop\n        /* \"#utility.yul\":6449:6972   */\n      jump\t// out\n        /* \"#utility.yul\":6977:7645   */\n    tag_90:\n        /* \"#utility.yul\":7089:7095   */\n      0x00\n        /* \"#utility.yul\":7097:7103   */\n      dup1\n        /* \"#utility.yul\":7105:7111   */\n      0x00\n        /* \"#utility.yul\":7113:7119   */\n      dup1\n        /* \"#utility.yul\":7166:7169   */\n      0xa0\n        /* \"#utility.yul\":7154:7163   */\n      dup6\n        /* \"#utility.yul\":7145:7152   */\n      dup8\n        /* \"#utility.yul\":7141:7164   */\n      sub\n        /* \"#utility.yul\":7137:7170   */\n      slt\n        /* \"#utility.yul\":7134:7187   */\n      iszero\n      tag_479\n      jumpi\n        /* \"#utility.yul\":7183:7184   */\n      0x00\n        /* \"#utility.yul\":7180:7181   */\n      dup1\n        /* \"#utility.yul\":7173:7185   */\n      revert\n        /* \"#utility.yul\":7134:7187   */\n    tag_479:\n        /* \"#utility.yul\":7206:7259   */\n      tag_480\n        /* \"#utility.yul\":7251:7258   */\n      dup7\n        /* \"#utility.yul\":7240:7249   */\n      dup7\n        /* \"#utility.yul\":7206:7259   */\n      tag_413\n      jump\t// in\n    tag_480:\n        /* \"#utility.yul\":7196:7259   */\n      swap4\n      pop\n        /* \"#utility.yul\":7310:7312   */\n      0x60\n        /* \"#utility.yul\":7299:7308   */\n      dup6\n        /* \"#utility.yul\":7295:7313   */\n      add\n        /* \"#utility.yul\":7282:7314   */\n      calldataload\n      sub(shl(0x40, 0x01), 0x01)\n        /* \"#utility.yul\":7329:7335   */\n      dup2\n        /* \"#utility.yul\":7326:7356   */\n      gt\n        /* \"#utility.yul\":7323:7373   */\n      iszero\n      tag_481\n      jumpi\n        /* \"#utility.yul\":7369:7370   */\n      0x00\n        /* \"#utility.yul\":7366:7367   */\n      dup1\n        /* \"#utility.yul\":7359:7371   */\n      revert\n        /* \"#utility.yul\":7323:7373   */\n    tag_481:\n        /* \"#utility.yul\":7408:7466   */\n      tag_482\n        /* \"#utility.yul\":7458:7465   */\n      dup8\n        /* \"#utility.yul\":7449:7455   */\n      dup3\n        /* \"#utility.yul\":7438:7447   */\n      dup9\n        /* \"#utility.yul\":7434:7456   */\n      add\n        /* \"#utility.yul\":7408:7466   */\n      tag_414\n      jump\t// in\n    tag_482:\n        /* \"#utility.yul\":7485:7493   */\n      swap1\n      swap5\n      pop\n        /* \"#utility.yul\":7382:7466   */\n      swap3\n      pop\n      pop\n        /* \"#utility.yul\":7570:7573   */\n      0x80\n        /* \"#utility.yul\":7555:7574   */\n      dup6\n      add\n        /* \"#utility.yul\":7542:7575   */\n      calldataload\n        /* \"#utility.yul\":7584:7615   */\n      tag_483\n        /* \"#utility.yul\":7542:7575   */\n      dup2\n        /* \"#utility.yul\":7584:7615   */\n      tag_415\n      jump\t// in\n    tag_483:\n        /* \"#utility.yul\":6977:7645   */\n      swap4\n      swap7\n      swap3\n      swap6\n      pop\n      swap1\n      swap4\n      pop\n      pop\n      jump\t// out\n        /* \"#utility.yul\":7842:9015   */\n    tag_96:\n        /* \"#utility.yul\":7978:7984   */\n      0x00\n        /* \"#utility.yul\":7986:7992   */\n      dup1\n        /* \"#utility.yul\":7994:8000   */\n      0x00\n        /* \"#utility.yul\":8002:8008   */\n      dup1\n        /* \"#utility.yul\":8010:8016   */\n      0x00\n        /* \"#utility.yul\":8018:8024   */\n      dup1\n        /* \"#utility.yul\":8071:8074   */\n      0xa0\n        /* \"#utility.yul\":8059:8068   */\n      dup8\n        /* \"#utility.yul\":8050:8057   */\n      dup10\n        /* \"#utility.yul\":8046:8069   */\n      sub\n        /* \"#utility.yul\":8042:8075   */\n      slt\n        /* \"#utility.yul\":8039:8092   */\n      iszero\n      tag_486\n      jumpi\n        /* \"#utility.yul\":8088:8089   */\n      0x00\n        /* \"#utility.yul\":8085:8086   */\n      dup1\n        /* \"#utility.yul\":8078:8090   */\n      revert\n        /* \"#utility.yul\":8039:8092   */\n    tag_486:\n        /* \"#utility.yul\":8128:8137   */\n      dup7\n        /* \"#utility.yul\":8115:8138   */\n      calldataload\n      sub(shl(0x40, 0x01), 0x01)\n        /* \"#utility.yul\":8153:8159   */\n      dup2\n        /* \"#utility.yul\":8150:8180   */\n      gt\n        /* \"#utility.yul\":8147:8197   */\n      iszero\n      tag_487\n      jumpi\n        /* \"#utility.yul\":8193:8194   */\n      0x00\n        /* \"#utility.yul\":8190:8191   */\n      dup1\n        /* \"#utility.yul\":8183:8195   */\n      revert\n        /* \"#utility.yul\":8147:8197   */\n    tag_487:\n        /* \"#utility.yul\":8216:8266   */\n      tag_488\n        /* \"#utility.yul\":8258:8265   */\n      dup10\n        /* \"#utility.yul\":8249:8255   */\n      dup3\n        /* \"#utility.yul\":8238:8247   */\n      dup11\n        /* \"#utility.yul\":8234:8256   */\n      add\n        /* \"#utility.yul\":8216:8266   */\n      tag_417\n      jump\t// in\n    tag_488:\n        /* \"#utility.yul\":8206:8266   */\n      swap7\n      pop\n      pop\n        /* \"#utility.yul\":8319:8321   */\n      0x20\n        /* \"#utility.yul\":8308:8317   */\n      dup8\n        /* \"#utility.yul\":8304:8322   */\n      add\n        /* \"#utility.yul\":8291:8323   */\n      calldataload\n      sub(shl(0x40, 0x01), 0x01)\n        /* \"#utility.yul\":8338:8346   */\n      dup2\n        /* \"#utility.yul\":8335:8367   */\n      gt\n        /* \"#utility.yul\":8332:8384   */\n      iszero\n      tag_489\n      jumpi\n        /* \"#utility.yul\":8380:8381   */\n      0x00\n        /* \"#utility.yul\":8377:8378   */\n      dup1\n        /* \"#utility.yul\":8370:8382   */\n      revert\n        /* \"#utility.yul\":8332:8384   */\n    tag_489:\n        /* \"#utility.yul\":8403:8455   */\n      tag_490\n        /* \"#utility.yul\":8447:8454   */\n      dup10\n        /* \"#utility.yul\":8436:8444   */\n      dup3\n        /* \"#utility.yul\":8425:8434   */\n      dup11\n        /* \"#utility.yul\":8421:8445   */\n      add\n        /* \"#utility.yul\":8403:8455   */\n      tag_417\n      jump\t// in\n    tag_490:\n        /* \"#utility.yul\":8393:8455   */\n      swap6\n      pop\n      pop\n        /* \"#utility.yul\":8508:8510   */\n      0x40\n        /* \"#utility.yul\":8497:8506   */\n      dup8\n        /* \"#utility.yul\":8493:8511   */\n      add\n        /* \"#utility.yul\":8480:8512   */\n      calldataload\n      sub(shl(0x40, 0x01), 0x01)\n        /* \"#utility.yul\":8527:8535   */\n      dup2\n        /* \"#utility.yul\":8524:8556   */\n      gt\n        /* \"#utility.yul\":8521:8573   */\n      iszero\n      tag_491\n      jumpi\n        /* \"#utility.yul\":8569:8570   */\n      0x00\n        /* \"#utility.yul\":8566:8567   */\n      dup1\n        /* \"#utility.yul\":8559:8571   */\n      revert\n        /* \"#utility.yul\":8521:8573   */\n    tag_491:\n        /* \"#utility.yul\":8592:8644   */\n      tag_492\n        /* \"#utility.yul\":8636:8643   */\n      dup10\n        /* \"#utility.yul\":8625:8633   */\n      dup3\n        /* \"#utility.yul\":8614:8623   */\n      dup11\n        /* \"#utility.yul\":8610:8634   */\n      add\n        /* \"#utility.yul\":8592:8644   */\n      tag_417\n      jump\t// in\n    tag_492:\n        /* \"#utility.yul\":8582:8644   */\n      swap5\n      pop\n      pop\n        /* \"#utility.yul\":8713:8715   */\n      0x60\n        /* \"#utility.yul\":8698:8716   */\n      dup8\n      add\n        /* \"#utility.yul\":8685:8717   */\n      calldataload\n      swap3\n      pop\n        /* \"#utility.yul\":8794:8797   */\n      0x80\n        /* \"#utility.yul\":8779:8798   */\n      dup8\n      add\n        /* \"#utility.yul\":8766:8799   */\n      calldataload\n      sub(shl(0x40, 0x01), 0x01)\n        /* \"#utility.yul\":8811:8843   */\n      dup2\n      gt\n        /* \"#utility.yul\":8808:8860   */\n      iszero\n      tag_493\n      jumpi\n        /* \"#utility.yul\":8856:8857   */\n      0x00\n        /* \"#utility.yul\":8853:8854   */\n      dup1\n        /* \"#utility.yul\":8846:8858   */\n      revert\n        /* \"#utility.yul\":8808:8860   */\n    tag_493:\n        /* \"#utility.yul\":8895:8955   */\n      tag_494\n        /* \"#utility.yul\":8947:8954   */\n      dup10\n        /* \"#utility.yul\":8936:8944   */\n      dup3\n        /* \"#utility.yul\":8925:8934   */\n      dup11\n        /* \"#utility.yul\":8921:8945   */\n      add\n        /* \"#utility.yul\":8895:8955   */\n      tag_414\n      jump\t// in\n    tag_494:\n        /* \"#utility.yul\":7842:9015   */\n      swap8\n      swap11\n      swap7\n      swap10\n      pop\n      swap5\n      swap8\n      pop\n      swap3\n      swap6\n        /* \"#utility.yul\":8974:8982   */\n      swap4\n      swap5\n        /* \"#utility.yul\":7842:9015   */\n      swap3\n      pop\n      pop\n      pop\n      jump\t// out\n        /* \"#utility.yul\":9251:9990   */\n    tag_106:\n        /* \"#utility.yul\":9349:9355   */\n      0x00\n        /* \"#utility.yul\":9357:9363   */\n      dup1\n        /* \"#utility.yul\":9365:9371   */\n      0x00\n        /* \"#utility.yul\":9373:9379   */\n      dup1\n        /* \"#utility.yul\":9426:9428   */\n      0x60\n        /* \"#utility.yul\":9414:9423   */\n      dup6\n        /* \"#utility.yul\":9405:9412   */\n      dup8\n        /* \"#utility.yul\":9401:9424   */\n      sub\n        /* \"#utility.yul\":9397:9429   */\n      slt\n        /* \"#utility.yul\":9394:9446   */\n      iszero\n      tag_497\n      jumpi\n        /* \"#utility.yul\":9442:9443   */\n      0x00\n        /* \"#utility.yul\":9439:9440   */\n      dup1\n        /* \"#utility.yul\":9432:9444   */\n      revert\n        /* \"#utility.yul\":9394:9446   */\n    tag_497:\n        /* \"#utility.yul\":9487:9510   */\n      dup5\n      calldataload\n      swap4\n      pop\n        /* \"#utility.yul\":9585:9587   */\n      0x20\n        /* \"#utility.yul\":9570:9588   */\n      dup6\n      add\n        /* \"#utility.yul\":9557:9589   */\n      calldataload\n      sub(shl(0x40, 0x01), 0x01)\n        /* \"#utility.yul\":9601:9631   */\n      dup2\n      gt\n        /* \"#utility.yul\":9598:9648   */\n      iszero\n      tag_498\n      jumpi\n        /* \"#utility.yul\":9644:9645   */\n      0x00\n        /* \"#utility.yul\":9641:9642   */\n      dup1\n        /* \"#utility.yul\":9634:9646   */\n      revert\n        /* \"#utility.yul\":9598:9648   */\n    tag_498:\n        /* \"#utility.yul\":9667:9717   */\n      tag_499\n        /* \"#utility.yul\":9709:9716   */\n      dup8\n        /* \"#utility.yul\":9700:9706   */\n      dup3\n        /* \"#utility.yul\":9689:9698   */\n      dup9\n        /* \"#utility.yul\":9685:9707   */\n      add\n        /* \"#utility.yul\":9667:9717   */\n      tag_417\n      jump\t// in\n    tag_499:\n        /* \"#utility.yul\":9657:9717   */\n      swap4\n      pop\n      pop\n        /* \"#utility.yul\":9770:9772   */\n      0x40\n        /* \"#utility.yul\":9759:9768   */\n      dup6\n        /* \"#utility.yul\":9755:9773   */\n      add\n        /* \"#utility.yul\":9742:9774   */\n      calldataload\n      sub(shl(0x40, 0x01), 0x01)\n        /* \"#utility.yul\":9789:9797   */\n      dup2\n        /* \"#utility.yul\":9786:9818   */\n      gt\n        /* \"#utility.yul\":9783:9835   */\n      iszero\n      tag_500\n      jumpi\n        /* \"#utility.yul\":9831:9832   */\n      0x00\n        /* \"#utility.yul\":9828:9829   */\n      dup1\n        /* \"#utility.yul\":9821:9833   */\n      revert\n        /* \"#utility.yul\":9783:9835   */\n    tag_500:\n        /* \"#utility.yul\":9870:9930   */\n      tag_501\n        /* \"#utility.yul\":9922:9929   */\n      dup8\n        /* \"#utility.yul\":9911:9919   */\n      dup3\n        /* \"#utility.yul\":9900:9909   */\n      dup9\n        /* \"#utility.yul\":9896:9920   */\n      add\n        /* \"#utility.yul\":9870:9930   */\n      tag_414\n      jump\t// in\n    tag_501:\n        /* \"#utility.yul\":9251:9990   */\n      swap6\n      swap9\n      swap5\n      swap8\n      pop\n        /* \"#utility.yul\":9949:9957   */\n      swap6\n      pop\n      pop\n      pop\n      pop\n        /* \"#utility.yul\":9251:9990   */\n      jump\t// out\n        /* \"#utility.yul\":10303:10670   */\n    tag_118:\n        /* \"#utility.yul\":10371:10377   */\n      0x00\n        /* \"#utility.yul\":10379:10385   */\n      dup1\n        /* \"#utility.yul\":10432:10434   */\n      0x40\n        /* \"#utility.yul\":10420:10429   */\n      dup4\n        /* \"#utility.yul\":10411:10418   */\n      dup6\n        /* \"#utility.yul\":10407:10430   */\n      sub\n        /* \"#utility.yul\":10403:10435   */\n      slt\n        /* \"#utility.yul\":10400:10452   */\n      iszero\n      tag_504\n      jumpi\n        /* \"#utility.yul\":10448:10449   */\n      0x00\n        /* \"#utility.yul\":10445:10446   */\n      dup1\n        /* \"#utility.yul\":10438:10450   */\n      revert\n        /* \"#utility.yul\":10400:10452   */\n    tag_504:\n        /* \"#utility.yul\":10487:10496   */\n      dup3\n        /* \"#utility.yul\":10474:10497   */\n      calldataload\n        /* \"#utility.yul\":10506:10537   */\n      tag_446\n        /* \"#utility.yul\":10531:10536   */\n      dup2\n        /* \"#utility.yul\":10506:10537   */\n      tag_415\n      jump\t// in\n        /* \"#utility.yul\":10857:11104   */\n    tag_134:\n        /* \"#utility.yul\":10916:10922   */\n      0x00\n        /* \"#utility.yul\":10969:10971   */\n      0x20\n        /* \"#utility.yul\":10957:10966   */\n      dup3\n        /* \"#utility.yul\":10948:10955   */\n      dup5\n        /* \"#utility.yul\":10944:10967   */\n      sub\n        /* \"#utility.yul\":10940:10972   */\n      slt\n        /* \"#utility.yul\":10937:10989   */\n      iszero\n      tag_508\n      jumpi\n        /* \"#utility.yul\":10985:10986   */\n      0x00\n        /* \"#utility.yul\":10982:10983   */\n      dup1\n        /* \"#utility.yul\":10975:10987   */\n      revert\n        /* \"#utility.yul\":10937:10989   */\n    tag_508:\n        /* \"#utility.yul\":11024:11033   */\n      dup2\n        /* \"#utility.yul\":11011:11034   */\n      calldataload\n        /* \"#utility.yul\":11043:11074   */\n      tag_426\n        /* \"#utility.yul\":11068:11073   */\n      dup2\n        /* \"#utility.yul\":11043:11074   */\n      tag_415\n      jump\t// in\n        /* \"#utility.yul\":11355:11589   */\n    tag_158:\n        /* \"#utility.yul\":11438:11444   */\n      0x00\n        /* \"#utility.yul\":11491:11493   */\n      0x60\n        /* \"#utility.yul\":11479:11488   */\n      dup3\n        /* \"#utility.yul\":11470:11477   */\n      dup5\n        /* \"#utility.yul\":11466:11489   */\n      sub\n        /* \"#utility.yul\":11462:11494   */\n      slt\n        /* \"#utility.yul\":11459:11511   */\n      iszero\n      tag_512\n      jumpi\n        /* \"#utility.yul\":11507:11508   */\n      0x00\n        /* \"#utility.yul\":11504:11505   */\n      dup1\n        /* \"#utility.yul\":11497:11509   */\n      revert\n        /* \"#utility.yul\":11459:11511   */\n    tag_512:\n        /* \"#utility.yul\":11530:11583   */\n      tag_426\n        /* \"#utility.yul\":11575:11582   */\n      dup4\n        /* \"#utility.yul\":11564:11573   */\n      dup4\n        /* \"#utility.yul\":11530:11583   */\n      tag_413\n      jump\t// in\n        /* \"#utility.yul\":13663:13781   */\n    tag_418:\n        /* \"#utility.yul\":13749:13754   */\n      dup1\n        /* \"#utility.yul\":13742:13755   */\n      iszero\n        /* \"#utility.yul\":13735:13756   */\n      iszero\n        /* \"#utility.yul\":13728:13733   */\n      dup2\n        /* \"#utility.yul\":13725:13757   */\n      eq\n        /* \"#utility.yul\":13715:13775   */\n      tag_341\n      jumpi\n        /* \"#utility.yul\":13771:13772   */\n      0x00\n        /* \"#utility.yul\":13768:13769   */\n      dup1\n        /* \"#utility.yul\":13761:13773   */\n      revert\n        /* \"#utility.yul\":13786:14031   */\n    tag_204:\n        /* \"#utility.yul\":13853:13859   */\n      0x00\n        /* \"#utility.yul\":13906:13908   */\n      0x20\n        /* \"#utility.yul\":13894:13903   */\n      dup3\n        /* \"#utility.yul\":13885:13892   */\n      dup5\n        /* \"#utility.yul\":13881:13904   */\n      sub\n        /* \"#utility.yul\":13877:13909   */\n      slt\n        /* \"#utility.yul\":13874:13926   */\n      iszero\n      tag_523\n      jumpi\n        /* \"#utility.yul\":13922:13923   */\n      0x00\n        /* \"#utility.yul\":13919:13920   */\n      dup1\n        /* \"#utility.yul\":13912:13924   */\n      revert\n        /* \"#utility.yul\":13874:13926   */\n    tag_523:\n        /* \"#utility.yul\":13954:13963   */\n      dup2\n        /* \"#utility.yul\":13948:13964   */\n      mload\n        /* \"#utility.yul\":13973:14001   */\n      tag_426\n        /* \"#utility.yul\":13995:14000   */\n      dup2\n        /* \"#utility.yul\":13973:14001   */\n      tag_418\n      jump\t// in\n        /* \"#utility.yul\":14385:14785   */\n    tag_419:\n        /* \"#utility.yul\":14427:14430   */\n      0x00\n        /* \"#utility.yul\":14465:14470   */\n      dup2\n        /* \"#utility.yul\":14459:14471   */\n      mload\n        /* \"#utility.yul\":14492:14498   */\n      dup1\n        /* \"#utility.yul\":14487:14490   */\n      dup5\n        /* \"#utility.yul\":14480:14499   */\n      mstore\n        /* \"#utility.yul\":14517:14518   */\n      0x00\n        /* \"#utility.yul\":14527:14666   */\n    tag_527:\n        /* \"#utility.yul\":14541:14547   */\n      dup2\n        /* \"#utility.yul\":14538:14539   */\n      dup2\n        /* \"#utility.yul\":14535:14548   */\n      lt\n        /* \"#utility.yul\":14527:14666   */\n      iszero\n      tag_529\n      jumpi\n        /* \"#utility.yul\":14649:14653   */\n      0x20\n        /* \"#utility.yul\":14634:14647   */\n      dup2\n      dup6\n      add\n        /* \"#utility.yul\":14630:14654   */\n      dup2\n      add\n        /* \"#utility.yul\":14624:14655   */\n      mload\n        /* \"#utility.yul\":14604:14615   */\n      dup7\n      dup4\n      add\n        /* \"#utility.yul\":14600:14622   */\n      dup3\n      add\n        /* \"#utility.yul\":14593:14656   */\n      mstore\n        /* \"#utility.yul\":14556:14568   */\n      add\n        /* \"#utility.yul\":14527:14666   */\n      jump(tag_527)\n    tag_529:\n        /* \"#utility.yul\":14531:14534   */\n      pop\n        /* \"#utility.yul\":14711:14712   */\n      0x00\n        /* \"#utility.yul\":14704:14708   */\n      0x20\n        /* \"#utility.yul\":14695:14701   */\n      dup3\n        /* \"#utility.yul\":14690:14693   */\n      dup7\n        /* \"#utility.yul\":14686:14702   */\n      add\n        /* \"#utility.yul\":14682:14709   */\n      add\n        /* \"#utility.yul\":14675:14713   */\n      mstore\n        /* \"#utility.yul\":14774:14778   */\n      0x20\n        /* \"#utility.yul\":14767:14769   */\n      0x1f\n        /* \"#utility.yul\":14763:14770   */\n      not\n        /* \"#utility.yul\":14758:14760   */\n      0x1f\n        /* \"#utility.yul\":14750:14756   */\n      dup4\n        /* \"#utility.yul\":14746:14761   */\n      add\n        /* \"#utility.yul\":14742:14771   */\n      and\n        /* \"#utility.yul\":14737:14740   */\n      dup6\n        /* \"#utility.yul\":14733:14772   */\n      add\n        /* \"#utility.yul\":14729:14779   */\n      add\n        /* \"#utility.yul\":14722:14779   */\n      swap2\n      pop\n      pop\n        /* \"#utility.yul\":14385:14785   */\n      swap3\n      swap2\n      pop\n      pop\n      jump\t// out\n        /* \"#utility.yul\":14790:15614   */\n    tag_209:\n        /* \"#utility.yul\":15144:15147   */\n      0xa0\n        /* \"#utility.yul\":15133:15142   */\n      dup2\n        /* \"#utility.yul\":15126:15148   */\n      mstore\n        /* \"#utility.yul\":15185:15187   */\n      0x18\n        /* \"#utility.yul\":15179:15182   */\n      0xa0\n        /* \"#utility.yul\":15168:15177   */\n      dup3\n        /* \"#utility.yul\":15164:15183   */\n      add\n        /* \"#utility.yul\":15157:15188   */\n      mstore\n        /* \"#utility.yul\":15225:15251   */\n      0x72657175657374536b696c6c566572696669636174696f6e0000000000000000\n        /* \"#utility.yul\":15219:15222   */\n      0xc0\n        /* \"#utility.yul\":15208:15217   */\n      dup3\n        /* \"#utility.yul\":15204:15223   */\n      add\n        /* \"#utility.yul\":15197:15252   */\n      mstore\n      sub(shl(0xa0, 0x01), 0x01)\n        /* \"#utility.yul\":15294:15300   */\n      dup6\n        /* \"#utility.yul\":15290:15345   */\n      and\n        /* \"#utility.yul\":15283:15287   */\n      0x20\n        /* \"#utility.yul\":15272:15281   */\n      dup3\n        /* \"#utility.yul\":15268:15288   */\n      add\n        /* \"#utility.yul\":15261:15346   */\n      mstore\n        /* \"#utility.yul\":15382:15385   */\n      0xe0\n        /* \"#utility.yul\":15377:15379   */\n      0x40\n        /* \"#utility.yul\":15366:15375   */\n      dup3\n        /* \"#utility.yul\":15362:15380   */\n      add\n        /* \"#utility.yul\":15355:15386   */\n      mstore\n        /* \"#utility.yul\":15107:15111   */\n      0x00\n        /* \"#utility.yul\":15409:15455   */\n      tag_531\n        /* \"#utility.yul\":15450:15453   */\n      0xe0\n        /* \"#utility.yul\":15439:15448   */\n      dup4\n        /* \"#utility.yul\":15435:15454   */\n      add\n        /* \"#utility.yul\":15427:15433   */\n      dup7\n        /* \"#utility.yul\":15409:15455   */\n      tag_419\n      jump\t// in\n    tag_531:\n        /* \"#utility.yul\":15503:15512   */\n      dup3\n        /* \"#utility.yul\":15495:15501   */\n      dup2\n        /* \"#utility.yul\":15491:15513   */\n      sub\n        /* \"#utility.yul\":15486:15488   */\n      0x60\n        /* \"#utility.yul\":15475:15484   */\n      dup5\n        /* \"#utility.yul\":15471:15489   */\n      add\n        /* \"#utility.yul\":15464:15514   */\n      mstore\n        /* \"#utility.yul\":15531:15564   */\n      tag_532\n        /* \"#utility.yul\":15557:15563   */\n      dup2\n        /* \"#utility.yul\":15549:15555   */\n      dup7\n        /* \"#utility.yul\":15531:15564   */\n      tag_419\n      jump\t// in\n    tag_532:\n        /* \"#utility.yul\":15523:15564   */\n      swap2\n      pop\n      pop\n        /* \"#utility.yul\":15601:15607   */\n      dup3\n        /* \"#utility.yul\":15595:15598   */\n      0x80\n        /* \"#utility.yul\":15584:15593   */\n      dup4\n        /* \"#utility.yul\":15580:15599   */\n      add\n        /* \"#utility.yul\":15573:15608   */\n      mstore\n        /* \"#utility.yul\":14790:15614   */\n      swap6\n      swap5\n      pop\n      pop\n      pop\n      pop\n      pop\n      jump\t// out\n        /* \"#utility.yul\":15966:16420   */\n    tag_218:\n        /* \"#utility.yul\":16191:16193   */\n      0x60\n        /* \"#utility.yul\":16180:16189   */\n      dup2\n        /* \"#utility.yul\":16173:16194   */\n      mstore\n        /* \"#utility.yul\":16154:16158   */\n      0x00\n        /* \"#utility.yul\":16217:16262   */\n      tag_535\n        /* \"#utility.yul\":16258:16260   */\n      0x60\n        /* \"#utility.yul\":16247:16256   */\n      dup4\n        /* \"#utility.yul\":16243:16261   */\n      add\n        /* \"#utility.yul\":16235:16241   */\n      dup7\n        /* \"#utility.yul\":16217:16262   */\n      tag_419\n      jump\t// in\n    tag_535:\n        /* \"#utility.yul\":16310:16319   */\n      dup3\n        /* \"#utility.yul\":16302:16308   */\n      dup2\n        /* \"#utility.yul\":16298:16320   */\n      sub\n        /* \"#utility.yul\":16293:16295   */\n      0x20\n        /* \"#utility.yul\":16282:16291   */\n      dup5\n        /* \"#utility.yul\":16278:16296   */\n      add\n        /* \"#utility.yul\":16271:16321   */\n      mstore\n        /* \"#utility.yul\":16338:16371   */\n      tag_536\n        /* \"#utility.yul\":16364:16370   */\n      dup2\n        /* \"#utility.yul\":16356:16362   */\n      dup7\n        /* \"#utility.yul\":16338:16371   */\n      tag_419\n      jump\t// in\n    tag_536:\n        /* \"#utility.yul\":16330:16371   */\n      swap2\n      pop\n      pop\n        /* \"#utility.yul\":16407:16413   */\n      dup3\n        /* \"#utility.yul\":16402:16404   */\n      0x40\n        /* \"#utility.yul\":16391:16400   */\n      dup4\n        /* \"#utility.yul\":16387:16405   */\n      add\n        /* \"#utility.yul\":16380:16414   */\n      mstore\n        /* \"#utility.yul\":15966:16420   */\n      swap5\n      swap4\n      pop\n      pop\n      pop\n      pop\n      jump\t// out\n        /* \"#utility.yul\":17467:18423   */\n    tag_242:\n        /* \"#utility.yul\":17877:17880   */\n      0xe0\n        /* \"#utility.yul\":17866:17875   */\n      dup2\n        /* \"#utility.yul\":17859:17881   */\n      mstore\n        /* \"#utility.yul\":17918:17920   */\n      0x0c\n        /* \"#utility.yul\":17912:17915   */\n      0xe0\n        /* \"#utility.yul\":17901:17910   */\n      dup3\n        /* \"#utility.yul\":17897:17916   */\n      add\n        /* \"#utility.yul\":17890:17921   */\n      mstore\n      shl(0xa0, 0x726169736544697370757465)\n        /* \"#utility.yul\":17952:17955   */\n      0x0100\n        /* \"#utility.yul\":17941:17950   */\n      dup3\n        /* \"#utility.yul\":17937:17956   */\n      add\n        /* \"#utility.yul\":17930:17973   */\n      mstore\n      sub(shl(0xa0, 0x01), 0x01)\n        /* \"#utility.yul\":18015:18021   */\n      dup8\n        /* \"#utility.yul\":18011:18066   */\n      and\n        /* \"#utility.yul\":18004:18008   */\n      0x20\n        /* \"#utility.yul\":17993:18002   */\n      dup3\n        /* \"#utility.yul\":17989:18009   */\n      add\n        /* \"#utility.yul\":17982:18067   */\n      mstore\n        /* \"#utility.yul\":18103:18109   */\n      dup6\n        /* \"#utility.yul\":18098:18100   */\n      0x40\n        /* \"#utility.yul\":18087:18096   */\n      dup3\n        /* \"#utility.yul\":18083:18101   */\n      add\n        /* \"#utility.yul\":18076:18110   */\n      mstore\n        /* \"#utility.yul\":18146:18152   */\n      dup5\n        /* \"#utility.yul\":18141:18143   */\n      0x60\n        /* \"#utility.yul\":18130:18139   */\n      dup3\n        /* \"#utility.yul\":18126:18144   */\n      add\n        /* \"#utility.yul\":18119:18153   */\n      mstore\n        /* \"#utility.yul\":18190:18193   */\n      0x0120\n        /* \"#utility.yul\":18184:18187   */\n      0x80\n        /* \"#utility.yul\":18173:18182   */\n      dup3\n        /* \"#utility.yul\":18169:18188   */\n      add\n        /* \"#utility.yul\":18162:18194   */\n      mstore\n        /* \"#utility.yul\":17840:17844   */\n      0x00\n        /* \"#utility.yul\":18217:18263   */\n      tag_541\n        /* \"#utility.yul\":18258:18261   */\n      0x0120\n        /* \"#utility.yul\":18247:18256   */\n      dup4\n        /* \"#utility.yul\":18243:18262   */\n      add\n        /* \"#utility.yul\":18235:18241   */\n      dup7\n        /* \"#utility.yul\":18217:18263   */\n      tag_419\n      jump\t// in\n    tag_541:\n        /* \"#utility.yul\":18312:18321   */\n      dup3\n        /* \"#utility.yul\":18304:18310   */\n      dup2\n        /* \"#utility.yul\":18300:18322   */\n      sub\n        /* \"#utility.yul\":18294:18297   */\n      0xa0\n        /* \"#utility.yul\":18283:18292   */\n      dup5\n        /* \"#utility.yul\":18279:18298   */\n      add\n        /* \"#utility.yul\":18272:18323   */\n      mstore\n        /* \"#utility.yul\":18340:18373   */\n      tag_542\n        /* \"#utility.yul\":18366:18372   */\n      dup2\n        /* \"#utility.yul\":18358:18364   */\n      dup7\n        /* \"#utility.yul\":18340:18373   */\n      tag_419\n      jump\t// in\n    tag_542:\n        /* \"#utility.yul\":18332:18373   */\n      swap2\n      pop\n      pop\n        /* \"#utility.yul\":18410:18416   */\n      dup3\n        /* \"#utility.yul\":18404:18407   */\n      0xc0\n        /* \"#utility.yul\":18393:18402   */\n      dup4\n        /* \"#utility.yul\":18389:18408   */\n      add\n        /* \"#utility.yul\":18382:18417   */\n      mstore\n        /* \"#utility.yul\":17467:18423   */\n      swap8\n      swap7\n      pop\n      pop\n      pop\n      pop\n      pop\n      pop\n      pop\n      jump\t// out\n        /* \"#utility.yul\":18428:19027   */\n    tag_248:\n        /* \"#utility.yul\":18709:18715   */\n      dup6\n        /* \"#utility.yul\":18698:18707   */\n      dup2\n        /* \"#utility.yul\":18691:18716   */\n      mstore\n        /* \"#utility.yul\":18752:18758   */\n      dup5\n        /* \"#utility.yul\":18747:18749   */\n      0x20\n        /* \"#utility.yul\":18736:18745   */\n      dup3\n        /* \"#utility.yul\":18732:18750   */\n      add\n        /* \"#utility.yul\":18725:18759   */\n      mstore\n        /* \"#utility.yul\":18795:18798   */\n      0xa0\n        /* \"#utility.yul\":18790:18792   */\n      0x40\n        /* \"#utility.yul\":18779:18788   */\n      dup3\n        /* \"#utility.yul\":18775:18793   */\n      add\n        /* \"#utility.yul\":18768:18799   */\n      mstore\n        /* \"#utility.yul\":18672:18676   */\n      0x00\n        /* \"#utility.yul\":18822:18868   */\n      tag_544\n        /* \"#utility.yul\":18863:18866   */\n      0xa0\n        /* \"#utility.yul\":18852:18861   */\n      dup4\n        /* \"#utility.yul\":18848:18867   */\n      add\n        /* \"#utility.yul\":18840:18846   */\n      dup7\n        /* \"#utility.yul\":18822:18868   */\n      tag_419\n      jump\t// in\n    tag_544:\n        /* \"#utility.yul\":18916:18925   */\n      dup3\n        /* \"#utility.yul\":18908:18914   */\n      dup2\n        /* \"#utility.yul\":18904:18926   */\n      sub\n        /* \"#utility.yul\":18899:18901   */\n      0x60\n        /* \"#utility.yul\":18888:18897   */\n      dup5\n        /* \"#utility.yul\":18884:18902   */\n      add\n        /* \"#utility.yul\":18877:18927   */\n      mstore\n        /* \"#utility.yul\":18944:18977   */\n      tag_545\n        /* \"#utility.yul\":18970:18976   */\n      dup2\n        /* \"#utility.yul\":18962:18968   */\n      dup7\n        /* \"#utility.yul\":18944:18977   */\n      tag_419\n      jump\t// in\n    tag_545:\n        /* \"#utility.yul\":18936:18977   */\n      swap2\n      pop\n      pop\n        /* \"#utility.yul\":19014:19020   */\n      dup3\n        /* \"#utility.yul\":19008:19011   */\n      0x80\n        /* \"#utility.yul\":18997:19006   */\n      dup4\n        /* \"#utility.yul\":18993:19012   */\n      add\n        /* \"#utility.yul\":18986:19021   */\n      mstore\n        /* \"#utility.yul\":18428:19027   */\n      swap7\n      swap6\n      pop\n      pop\n      pop\n      pop\n      pop\n      pop\n      jump\t// out\n        /* \"#utility.yul\":20100:21072   */\n    tag_286:\n        /* \"#utility.yul\":20502:20505   */\n      0xc0\n        /* \"#utility.yul\":20491:20500   */\n      dup2\n        /* \"#utility.yul\":20484:20506   */\n      mstore\n        /* \"#utility.yul\":20543:20544   */\n      0x09\n        /* \"#utility.yul\":20537:20540   */\n      0xc0\n        /* \"#utility.yul\":20526:20535   */\n      dup3\n        /* \"#utility.yul\":20522:20541   */\n      add\n        /* \"#utility.yul\":20515:20545   */\n      mstore\n      shl(0xb8, 0x61736b417468656e61)\n        /* \"#utility.yul\":20576:20579   */\n      0xe0\n        /* \"#utility.yul\":20565:20574   */\n      dup3\n        /* \"#utility.yul\":20561:20580   */\n      add\n        /* \"#utility.yul\":20554:20594   */\n      mstore\n      sub(shl(0xa0, 0x01), 0x01)\n        /* \"#utility.yul\":20636:20642   */\n      dup7\n        /* \"#utility.yul\":20632:20687   */\n      and\n        /* \"#utility.yul\":20625:20629   */\n      0x20\n        /* \"#utility.yul\":20614:20623   */\n      dup3\n        /* \"#utility.yul\":20610:20630   */\n      add\n        /* \"#utility.yul\":20603:20688   */\n      mstore\n        /* \"#utility.yul\":20724:20727   */\n      0x0100\n        /* \"#utility.yul\":20719:20721   */\n      0x40\n        /* \"#utility.yul\":20708:20717   */\n      dup3\n        /* \"#utility.yul\":20704:20722   */\n      add\n        /* \"#utility.yul\":20697:20728   */\n      mstore\n        /* \"#utility.yul\":20465:20469   */\n      0x00\n        /* \"#utility.yul\":20751:20797   */\n      tag_550\n        /* \"#utility.yul\":20792:20795   */\n      0x0100\n        /* \"#utility.yul\":20781:20790   */\n      dup4\n        /* \"#utility.yul\":20777:20796   */\n      add\n        /* \"#utility.yul\":20769:20775   */\n      dup8\n        /* \"#utility.yul\":20751:20797   */\n      tag_419\n      jump\t// in\n    tag_550:\n        /* \"#utility.yul\":20845:20854   */\n      dup3\n        /* \"#utility.yul\":20837:20843   */\n      dup2\n        /* \"#utility.yul\":20833:20855   */\n      sub\n        /* \"#utility.yul\":20828:20830   */\n      0x60\n        /* \"#utility.yul\":20817:20826   */\n      dup5\n        /* \"#utility.yul\":20813:20831   */\n      add\n        /* \"#utility.yul\":20806:20856   */\n      mstore\n        /* \"#utility.yul\":20879:20912   */\n      tag_551\n        /* \"#utility.yul\":20905:20911   */\n      dup2\n        /* \"#utility.yul\":20897:20903   */\n      dup8\n        /* \"#utility.yul\":20879:20912   */\n      tag_419\n      jump\t// in\n    tag_551:\n        /* \"#utility.yul\":20865:20912   */\n      swap1\n      pop\n        /* \"#utility.yul\":20961:20970   */\n      dup3\n        /* \"#utility.yul\":20953:20959   */\n      dup2\n        /* \"#utility.yul\":20949:20971   */\n      sub\n        /* \"#utility.yul\":20943:20946   */\n      0x80\n        /* \"#utility.yul\":20932:20941   */\n      dup5\n        /* \"#utility.yul\":20928:20947   */\n      add\n        /* \"#utility.yul\":20921:20972   */\n      mstore\n        /* \"#utility.yul\":20989:21022   */\n      tag_552\n        /* \"#utility.yul\":21015:21021   */\n      dup2\n        /* \"#utility.yul\":21007:21013   */\n      dup7\n        /* \"#utility.yul\":20989:21022   */\n      tag_419\n      jump\t// in\n    tag_552:\n        /* \"#utility.yul\":20981:21022   */\n      swap2\n      pop\n      pop\n        /* \"#utility.yul\":21059:21065   */\n      dup3\n        /* \"#utility.yul\":21053:21056   */\n      0xa0\n        /* \"#utility.yul\":21042:21051   */\n      dup4\n        /* \"#utility.yul\":21038:21057   */\n      add\n        /* \"#utility.yul\":21031:21066   */\n      mstore\n        /* \"#utility.yul\":20100:21072   */\n      swap7\n      swap6\n      pop\n      pop\n      pop\n      pop\n      pop\n      pop\n      jump\t// out\n        /* \"#utility.yul\":21077:21696   */\n    tag_292:\n        /* \"#utility.yul\":21350:21353   */\n      0x80\n        /* \"#utility.yul\":21339:21348   */\n      dup2\n        /* \"#utility.yul\":21332:21354   */\n      mstore\n        /* \"#utility.yul\":21313:21317   */\n      0x00\n        /* \"#utility.yul\":21377:21423   */\n      tag_554\n        /* \"#utility.yul\":21418:21421   */\n      0x80\n        /* \"#utility.yul\":21407:21416   */\n      dup4\n        /* \"#utility.yul\":21403:21422   */\n      add\n        /* \"#utility.yul\":21395:21401   */\n      dup8\n        /* \"#utility.yul\":21377:21423   */\n      tag_419\n      jump\t// in\n    tag_554:\n        /* \"#utility.yul\":21471:21480   */\n      dup3\n        /* \"#utility.yul\":21463:21469   */\n      dup2\n        /* \"#utility.yul\":21459:21481   */\n      sub\n        /* \"#utility.yul\":21454:21456   */\n      0x20\n        /* \"#utility.yul\":21443:21452   */\n      dup5\n        /* \"#utility.yul\":21439:21457   */\n      add\n        /* \"#utility.yul\":21432:21482   */\n      mstore\n        /* \"#utility.yul\":21505:21538   */\n      tag_555\n        /* \"#utility.yul\":21531:21537   */\n      dup2\n        /* \"#utility.yul\":21523:21529   */\n      dup8\n        /* \"#utility.yul\":21505:21538   */\n      tag_419\n      jump\t// in\n    tag_555:\n        /* \"#utility.yul\":21491:21538   */\n      swap1\n      pop\n        /* \"#utility.yul\":21586:21595   */\n      dup3\n        /* \"#utility.yul\":21578:21584   */\n      dup2\n        /* \"#utility.yul\":21574:21596   */\n      sub\n        /* \"#utility.yul\":21569:21571   */\n      0x40\n        /* \"#utility.yul\":21558:21567   */\n      dup5\n        /* \"#utility.yul\":21554:21572   */\n      add\n        /* \"#utility.yul\":21547:21597   */\n      mstore\n        /* \"#utility.yul\":21614:21647   */\n      tag_556\n        /* \"#utility.yul\":21640:21646   */\n      dup2\n        /* \"#utility.yul\":21632:21638   */\n      dup7\n        /* \"#utility.yul\":21614:21647   */\n      tag_419\n      jump\t// in\n    tag_556:\n        /* \"#utility.yul\":21606:21647   */\n      swap2\n      pop\n      pop\n        /* \"#utility.yul\":21683:21689   */\n      dup3\n        /* \"#utility.yul\":21678:21680   */\n      0x60\n        /* \"#utility.yul\":21667:21676   */\n      dup4\n        /* \"#utility.yul\":21663:21681   */\n      add\n        /* \"#utility.yul\":21656:21690   */\n      mstore\n        /* \"#utility.yul\":21077:21696   */\n      swap6\n      swap5\n      pop\n      pop\n      pop\n      pop\n      pop\n      jump\t// out\n        /* \"#utility.yul\":21701:22350   */\n    tag_299:\n        /* \"#utility.yul\":22007:22010   */\n      0x80\n        /* \"#utility.yul\":21996:22005   */\n      dup2\n        /* \"#utility.yul\":21989:22011   */\n      mstore\n        /* \"#utility.yul\":22048:22050   */\n      0x0d\n        /* \"#utility.yul\":22042:22045   */\n      0x80\n        /* \"#utility.yul\":22031:22040   */\n      dup3\n        /* \"#utility.yul\":22027:22046   */\n      add\n        /* \"#utility.yul\":22020:22051   */\n      mstore\n      shl(0x98, 0x63726561746544697370757465)\n        /* \"#utility.yul\":22082:22085   */\n      0xa0\n        /* \"#utility.yul\":22071:22080   */\n      dup3\n        /* \"#utility.yul\":22067:22086   */\n      add\n        /* \"#utility.yul\":22060:22104   */\n      mstore\n      sub(shl(0xa0, 0x01), 0x01)\n        /* \"#utility.yul\":22146:22152   */\n      dup5\n        /* \"#utility.yul\":22142:22197   */\n      and\n        /* \"#utility.yul\":22135:22139   */\n      0x20\n        /* \"#utility.yul\":22124:22133   */\n      dup3\n        /* \"#utility.yul\":22120:22140   */\n      add\n        /* \"#utility.yul\":22113:22198   */\n      mstore\n        /* \"#utility.yul\":22234:22240   */\n      dup3\n        /* \"#utility.yul\":22229:22231   */\n      0x40\n        /* \"#utility.yul\":22218:22227   */\n      dup3\n        /* \"#utility.yul\":22214:22232   */\n      add\n        /* \"#utility.yul\":22207:22241   */\n      mstore\n        /* \"#utility.yul\":22277:22280   */\n      0xc0\n        /* \"#utility.yul\":22272:22274   */\n      0x60\n        /* \"#utility.yul\":22261:22270   */\n      dup3\n        /* \"#utility.yul\":22257:22275   */\n      add\n        /* \"#utility.yul\":22250:22281   */\n      mstore\n        /* \"#utility.yul\":21970:21974   */\n      0x00\n        /* \"#utility.yul\":22298:22344   */\n      tag_335\n        /* \"#utility.yul\":22339:22342   */\n      0xc0\n        /* \"#utility.yul\":22328:22337   */\n      dup4\n        /* \"#utility.yul\":22324:22343   */\n      add\n        /* \"#utility.yul\":22316:22322   */\n      dup5\n        /* \"#utility.yul\":22298:22344   */\n      tag_419\n      jump\t// in\n        /* \"#utility.yul\":23001:23722   */\n    tag_356:\n        /* \"#utility.yul\":23102:23108   */\n      0x00\n        /* \"#utility.yul\":23110:23116   */\n      dup1\n        /* \"#utility.yul\":23118:23124   */\n      0x00\n        /* \"#utility.yul\":23126:23132   */\n      dup1\n        /* \"#utility.yul\":23179:23182   */\n      0x80\n        /* \"#utility.yul\":23167:23176   */\n      dup6\n        /* \"#utility.yul\":23158:23165   */\n      dup8\n        /* \"#utility.yul\":23154:23177   */\n      sub\n        /* \"#utility.yul\":23150:23183   */\n      slt\n        /* \"#utility.yul\":23147:23200   */\n      iszero\n      tag_562\n      jumpi\n        /* \"#utility.yul\":23196:23197   */\n      0x00\n        /* \"#utility.yul\":23193:23194   */\n      dup1\n        /* \"#utility.yul\":23186:23198   */\n      revert\n        /* \"#utility.yul\":23147:23200   */\n    tag_562:\n        /* \"#utility.yul\":23236:23245   */\n      dup5\n        /* \"#utility.yul\":23223:23246   */\n      calldataload\n      sub(shl(0x40, 0x01), 0x01)\n        /* \"#utility.yul\":23261:23267   */\n      dup2\n        /* \"#utility.yul\":23258:23288   */\n      gt\n        /* \"#utility.yul\":23255:23305   */\n      iszero\n      tag_563\n      jumpi\n        /* \"#utility.yul\":23301:23302   */\n      0x00\n        /* \"#utility.yul\":23298:23299   */\n      dup1\n        /* \"#utility.yul\":23291:23303   */\n      revert\n        /* \"#utility.yul\":23255:23305   */\n    tag_563:\n        /* \"#utility.yul\":23324:23374   */\n      tag_564\n        /* \"#utility.yul\":23366:23373   */\n      dup8\n        /* \"#utility.yul\":23357:23363   */\n      dup3\n        /* \"#utility.yul\":23346:23355   */\n      dup9\n        /* \"#utility.yul\":23342:23364   */\n      add\n        /* \"#utility.yul\":23324:23374   */\n      tag_417\n      jump\t// in\n    tag_564:\n        /* \"#utility.yul\":23314:23374   */\n      swap5\n      pop\n      pop\n        /* \"#utility.yul\":23424:23426   */\n      0x20\n        /* \"#utility.yul\":23413:23422   */\n      dup6\n        /* \"#utility.yul\":23409:23427   */\n      add\n        /* \"#utility.yul\":23396:23428   */\n      calldataload\n        /* \"#utility.yul\":23437:23468   */\n      tag_565\n        /* \"#utility.yul\":23462:23467   */\n      dup2\n        /* \"#utility.yul\":23437:23468   */\n      tag_415\n      jump\t// in\n    tag_565:\n        /* \"#utility.yul\":23487:23492   */\n      swap3\n      pop\n        /* \"#utility.yul\":23565:23567   */\n      0x40\n        /* \"#utility.yul\":23550:23568   */\n      dup6\n      add\n        /* \"#utility.yul\":23537:23569   */\n      calldataload\n      swap2\n      pop\n        /* \"#utility.yul\":23647:23649   */\n      0x60\n        /* \"#utility.yul\":23632:23650   */\n      dup6\n      add\n        /* \"#utility.yul\":23619:23651   */\n      calldataload\n        /* \"#utility.yul\":23660:23690   */\n      tag_483\n        /* \"#utility.yul\":23619:23651   */\n      dup2\n        /* \"#utility.yul\":23660:23690   */\n      tag_418\n      jump\t// in\n        /* \"#utility.yul\":24087:24997   */\n    tag_368:\n        /* \"#utility.yul\":24306:24308   */\n      0x40\n        /* \"#utility.yul\":24295:24304   */\n      dup2\n        /* \"#utility.yul\":24288:24309   */\n      mstore\n        /* \"#utility.yul\":24364:24374   */\n      0xffffffff\n        /* \"#utility.yul\":24355:24361   */\n      dup4\n        /* \"#utility.yul\":24349:24362   */\n      mload\n        /* \"#utility.yul\":24345:24375   */\n      and\n        /* \"#utility.yul\":24340:24342   */\n      0x40\n        /* \"#utility.yul\":24329:24338   */\n      dup3\n        /* \"#utility.yul\":24325:24343   */\n      add\n        /* \"#utility.yul\":24318:24376   */\n      mstore\n        /* \"#utility.yul\":24430:24434   */\n      0x20\n        /* \"#utility.yul\":24422:24428   */\n      dup4\n        /* \"#utility.yul\":24418:24435   */\n      add\n        /* \"#utility.yul\":24412:24436   */\n      mload\n        /* \"#utility.yul\":24407:24409   */\n      0x60\n        /* \"#utility.yul\":24396:24405   */\n      dup3\n        /* \"#utility.yul\":24392:24410   */\n      add\n        /* \"#utility.yul\":24385:24437   */\n      mstore\n        /* \"#utility.yul\":24269:24273   */\n      0x00\n        /* \"#utility.yul\":24484:24486   */\n      0x40\n        /* \"#utility.yul\":24476:24482   */\n      dup5\n        /* \"#utility.yul\":24472:24487   */\n      add\n        /* \"#utility.yul\":24466:24488   */\n      mload\n        /* \"#utility.yul\":24525:24529   */\n      0xa0\n        /* \"#utility.yul\":24519:24522   */\n      0x80\n        /* \"#utility.yul\":24508:24517   */\n      dup5\n        /* \"#utility.yul\":24504:24523   */\n      add\n        /* \"#utility.yul\":24497:24530   */\n      mstore\n        /* \"#utility.yul\":24553:24605   */\n      tag_569\n        /* \"#utility.yul\":24600:24603   */\n      0xe0\n        /* \"#utility.yul\":24589:24598   */\n      dup5\n        /* \"#utility.yul\":24585:24604   */\n      add\n        /* \"#utility.yul\":24571:24583   */\n      dup3\n        /* \"#utility.yul\":24553:24605   */\n      tag_419\n      jump\t// in\n    tag_569:\n        /* \"#utility.yul\":24539:24605   */\n      swap1\n      pop\n        /* \"#utility.yul\":24654:24656   */\n      0x60\n        /* \"#utility.yul\":24646:24652   */\n      dup6\n        /* \"#utility.yul\":24642:24657   */\n      add\n        /* \"#utility.yul\":24636:24658   */\n      mload\n        /* \"#utility.yul\":24728:24730   */\n      0x3f\n        /* \"#utility.yul\":24724:24731   */\n      not\n        /* \"#utility.yul\":24712:24721   */\n      dup5\n        /* \"#utility.yul\":24704:24710   */\n      dup4\n        /* \"#utility.yul\":24700:24722   */\n      sub\n        /* \"#utility.yul\":24696:24732   */\n      add\n        /* \"#utility.yul\":24689:24693   */\n      0xa0\n        /* \"#utility.yul\":24678:24687   */\n      dup6\n        /* \"#utility.yul\":24674:24694   */\n      add\n        /* \"#utility.yul\":24667:24733   */\n      mstore\n        /* \"#utility.yul\":24756:24797   */\n      tag_570\n        /* \"#utility.yul\":24790:24796   */\n      dup3\n        /* \"#utility.yul\":24774:24788   */\n      dup3\n        /* \"#utility.yul\":24756:24797   */\n      tag_419\n      jump\t// in\n    tag_570:\n        /* \"#utility.yul\":24866:24869   */\n      0x80\n        /* \"#utility.yul\":24854:24870   */\n      swap7\n      swap1\n      swap7\n      add\n        /* \"#utility.yul\":24848:24871   */\n      mload\n        /* \"#utility.yul\":24841:24872   */\n      iszero\n        /* \"#utility.yul\":24834:24873   */\n      iszero\n        /* \"#utility.yul\":24828:24831   */\n      0xc0\n        /* \"#utility.yul\":24813:24832   */\n      dup6\n      add\n        /* \"#utility.yul\":24806:24874   */\n      mstore\n      pop\n      pop\n      pop\n      sub(shl(0xa0, 0x01), 0x01)\n        /* \"#utility.yul\":24935:24990   */\n      swap2\n      swap1\n      swap2\n      and\n        /* \"#utility.yul\":24928:24932   */\n      0x20\n        /* \"#utility.yul\":24913:24933   */\n      swap1\n      swap2\n      add\n        /* \"#utility.yul\":24906:24991   */\n      mstore\n        /* \"#utility.yul\":24742:24797   */\n      swap1\n        /* \"#utility.yul\":24087:24997   */\n      jump\t// out\n        /* \"#utility.yul\":25002:25604   */\n    tag_420:\n        /* \"#utility.yul\":25072:25077   */\n      0x00\n        /* \"#utility.yul\":25120:25124   */\n      0x40\n        /* \"#utility.yul\":25108:25117   */\n      dup3\n        /* \"#utility.yul\":25103:25106   */\n      dup5\n        /* \"#utility.yul\":25099:25118   */\n      sub\n        /* \"#utility.yul\":25095:25125   */\n      slt\n        /* \"#utility.yul\":25092:25142   */\n      iszero\n      tag_572\n      jumpi\n        /* \"#utility.yul\":25138:25139   */\n      0x00\n        /* \"#utility.yul\":25135:25136   */\n      dup1\n        /* \"#utility.yul\":25128:25140   */\n      revert\n        /* \"#utility.yul\":25092:25142   */\n    tag_572:\n        /* \"#utility.yul\":25191:25195   */\n      0x40\n        /* \"#utility.yul\":25185:25196   */\n      dup1\n      mload\n      swap1\n        /* \"#utility.yul\":25223:25240   */\n      dup2\n      add\n      sub(shl(0x40, 0x01), 0x01)\n        /* \"#utility.yul\":25255:25289   */\n      dup2\n      gt\n        /* \"#utility.yul\":25291:25313   */\n      dup3\n      dup3\n      lt\n        /* \"#utility.yul\":25252:25314   */\n      or\n        /* \"#utility.yul\":25249:25337   */\n      iszero\n      tag_574\n      jumpi\n        /* \"#utility.yul\":25317:25335   */\n      tag_574\n      tag_416\n      jump\t// in\n    tag_574:\n        /* \"#utility.yul\":25353:25357   */\n      0x40\n        /* \"#utility.yul\":25346:25370   */\n      mstore\n        /* \"#utility.yul\":25439:25455   */\n      dup3\n      mload\n        /* \"#utility.yul\":25464:25487   */\n      dup2\n      mstore\n        /* \"#utility.yul\":25553:25555   */\n      0x20\n        /* \"#utility.yul\":25538:25556   */\n      swap3\n      dup4\n      add\n        /* \"#utility.yul\":25532:25557   */\n      mload\n        /* \"#utility.yul\":25573:25588   */\n      swap3\n      dup2\n      add\n        /* \"#utility.yul\":25566:25598   */\n      swap3\n      swap1\n      swap3\n      mstore\n      pop\n        /* \"#utility.yul\":25388:25394   */\n      swap2\n        /* \"#utility.yul\":25002:25604   */\n      swap1\n      pop\n      jump\t// out\n        /* \"#utility.yul\":25609:25866   */\n    tag_372:\n        /* \"#utility.yul\":25707:25713   */\n      0x00\n        /* \"#utility.yul\":25760:25762   */\n      0x40\n        /* \"#utility.yul\":25748:25757   */\n      dup3\n        /* \"#utility.yul\":25739:25746   */\n      dup5\n        /* \"#utility.yul\":25735:25758   */\n      sub\n        /* \"#utility.yul\":25731:25763   */\n      slt\n        /* \"#utility.yul\":25728:25780   */\n      iszero\n      tag_576\n      jumpi\n        /* \"#utility.yul\":25776:25777   */\n      0x00\n        /* \"#utility.yul\":25773:25774   */\n      dup1\n        /* \"#utility.yul\":25766:25778   */\n      revert\n        /* \"#utility.yul\":25728:25780   */\n    tag_576:\n        /* \"#utility.yul\":25799:25860   */\n      tag_426\n        /* \"#utility.yul\":25852:25859   */\n      dup4\n        /* \"#utility.yul\":25841:25850   */\n      dup4\n        /* \"#utility.yul\":25799:25860   */\n      tag_420\n      jump\t// in\n        /* \"#utility.yul\":25871:26648   */\n    tag_386:\n        /* \"#utility.yul\":25973:25979   */\n      0x00\n        /* \"#utility.yul\":26033:26036   */\n      0x80\n        /* \"#utility.yul\":26021:26030   */\n      dup3\n        /* \"#utility.yul\":26012:26019   */\n      dup5\n        /* \"#utility.yul\":26008:26031   */\n      sub\n        /* \"#utility.yul\":26004:26037   */\n      slt\n        /* \"#utility.yul\":26049:26051   */\n      dup1\n        /* \"#utility.yul\":26046:26068   */\n      iszero\n      tag_579\n      jumpi\n        /* \"#utility.yul\":26064:26065   */\n      0x00\n        /* \"#utility.yul\":26061:26062   */\n      dup1\n        /* \"#utility.yul\":26054:26066   */\n      revert\n        /* \"#utility.yul\":26046:26068   */\n    tag_579:\n      pop\n        /* \"#utility.yul\":26133:26135   */\n      0x40\n        /* \"#utility.yul\":26127:26136   */\n      mload\n        /* \"#utility.yul\":26175:26179   */\n      0x60\n        /* \"#utility.yul\":26163:26180   */\n      dup2\n      add\n      sub(shl(0x40, 0x01), 0x01)\n        /* \"#utility.yul\":26195:26229   */\n      dup2\n      gt\n        /* \"#utility.yul\":26231:26253   */\n      dup3\n      dup3\n      lt\n        /* \"#utility.yul\":26192:26254   */\n      or\n        /* \"#utility.yul\":26189:26277   */\n      iszero\n      tag_581\n      jumpi\n        /* \"#utility.yul\":26257:26275   */\n      tag_581\n      tag_416\n      jump\t// in\n    tag_581:\n        /* \"#utility.yul\":26293:26295   */\n      0x40\n        /* \"#utility.yul\":26286:26308   */\n      mstore\n        /* \"#utility.yul\":26332:26348   */\n      dup3\n      mload\n        /* \"#utility.yul\":26317:26349   */\n      dup2\n      mstore\n        /* \"#utility.yul\":26392:26394   */\n      0x20\n        /* \"#utility.yul\":26377:26395   */\n      dup4\n      add\n        /* \"#utility.yul\":26371:26396   */\n      mload\n      sub(shl(0x40, 0x01), 0x01)\n        /* \"#utility.yul\":26425:26455   */\n      dup2\n      and\n        /* \"#utility.yul\":26415:26456   */\n      dup2\n      eq\n        /* \"#utility.yul\":26405:26474   */\n      tag_582\n      jumpi\n        /* \"#utility.yul\":26470:26471   */\n      0x00\n        /* \"#utility.yul\":26467:26468   */\n      dup1\n        /* \"#utility.yul\":26460:26472   */\n      revert\n        /* \"#utility.yul\":26405:26474   */\n    tag_582:\n        /* \"#utility.yul\":26502:26504   */\n      0x20\n        /* \"#utility.yul\":26490:26505   */\n      dup3\n      add\n        /* \"#utility.yul\":26483:26513   */\n      mstore\n        /* \"#utility.yul\":26546:26616   */\n      tag_583\n        /* \"#utility.yul\":26608:26615   */\n      dup5\n        /* \"#utility.yul\":26603:26605   */\n      0x40\n        /* \"#utility.yul\":26588:26606   */\n      dup6\n      add\n        /* \"#utility.yul\":26546:26616   */\n      tag_420\n      jump\t// in\n    tag_583:\n        /* \"#utility.yul\":26541:26543   */\n      0x40\n        /* \"#utility.yul\":26529:26544   */\n      dup3\n      add\n        /* \"#utility.yul\":26522:26617   */\n      mstore\n        /* \"#utility.yul\":26533:26539   */\n      swap4\n        /* \"#utility.yul\":25871:26648   */\n      swap3\n      pop\n      pop\n      pop\n      jump\t// out\n        /* \"#utility.yul\":26653:26904   */\n    tag_397:\n        /* \"#utility.yul\":26723:26729   */\n      0x00\n        /* \"#utility.yul\":26776:26778   */\n      0x20\n        /* \"#utility.yul\":26764:26773   */\n      dup3\n        /* \"#utility.yul\":26755:26762   */\n      dup5\n        /* \"#utility.yul\":26751:26774   */\n      sub\n        /* \"#utility.yul\":26747:26779   */\n      slt\n        /* \"#utility.yul\":26744:26796   */\n      iszero\n      tag_585\n      jumpi\n        /* \"#utility.yul\":26792:26793   */\n      0x00\n        /* \"#utility.yul\":26789:26790   */\n      dup1\n        /* \"#utility.yul\":26782:26794   */\n      revert\n        /* \"#utility.yul\":26744:26796   */\n    tag_585:\n        /* \"#utility.yul\":26824:26833   */\n      dup2\n        /* \"#utility.yul\":26818:26834   */\n      mload\n        /* \"#utility.yul\":26843:26874   */\n      tag_426\n        /* \"#utility.yul\":26868:26873   */\n      dup2\n        /* \"#utility.yul\":26843:26874   */\n      tag_415\n      jump\t// in\n\n    auxdata: 0xa2646970667358221220849f28df77f47ff421438b2e7fa865c30e6e533d816fa6c98bd5ff4224ebc3d064736f6c634300081c0033\n}\n",
				"bytecode": {
					"linkReferences": {},
					"object": "60c060405234801561001057600080fd5b506040516129ce3803806129ce83398101604081905261002f9161019e565b83838181806001600160a01b03811661006257604051631e4fbdf760e01b81526000600482015260240160405180910390fd5b61006b81610132565b506001600160a01b03808316608052811661009957604051632d618d8160e21b815260040160405180910390fd5b60805160405163ca5eb5e160e01b81526001600160a01b0383811660048301529091169063ca5eb5e190602401600060405180830381600087803b1580156100e057600080fd5b505af11580156100f4573d6000803e3d6000fd5b505060016002555050506001600160a01b0390941660a05250506003805463ffffffff90921663ffffffff19909216919091179055506101fd915050565b600080546001600160a01b038381166001600160a01b0319831681178455604051919092169283917f8be0079c531659141344cd1fd0a4f28419497f9722a3daafe3b4186f6b6457e09190a35050565b80516001600160a01b038116811461019957600080fd5b919050565b600080600080608085870312156101b457600080fd5b6101bd85610182565b93506101cb60208601610182565b92506101d960408601610182565b9150606085015163ffffffff811681146101f257600080fd5b939692955090935050565b60805160a051612766610268600039600081816105010152818161078001528181610af701528181610fd1015261135301526000818161025a015281816105c401528181611502015281816118940152818161198901528181611adf0152611b9601526127666000f3fe60806040526004361061019a5760003560e01c80638b46e627116100e1578063bcd957931161008a578063e870068711610064578063e8700687146104af578063f2fde38b146104cf578063f897a22b146104ef578063ff7bd03d1461052357600080fd5b8063bcd957931461044f578063ca5eb5e11461046f578063d6d3bb381461048f57600080fd5b80639209cb39116100bb5780639209cb39146103d4578063ad3b1b47146103f4578063bb0b6a531461041457600080fd5b80638b46e627146103685780638da5cb5b1461037b5780638dd2067c1461039957600080fd5b80635e280f11116101435780637d25a05e1161011d5780637d25a05e146102db578063819d9e381461031657806382413eac1461032957600080fd5b80635e280f1114610248578063715018a614610294578063734ff5f3146102a957600080fd5b80633400288b116101745780633400288b146102025780633cf1edac1461022257806348ee7f5d1461023557600080fd5b80630d14c92e146101a657806313137d65146101c857806317442b70146101db57600080fd5b366101a157005b600080fd5b3480156101b257600080fd5b506101c66101c1366004611ce4565b610543565b005b6101c66101d6366004611d7b565b6105c2565b3480156101e757600080fd5b50604080516001815260026020820152015b60405180910390f35b34801561020e57600080fd5b506101c661021d366004611e1c565b61067d565b6101c6610230366004611ee9565b610693565b6101c6610243366004611f8b565b6109b2565b34801561025457600080fd5b5061027c7f000000000000000000000000000000000000000000000000000000000000000081565b6040516001600160a01b0390911681526020016101f9565b3480156102a057600080fd5b506101c6610d2a565b3480156102b557600080fd5b506003546102c69063ffffffff1681565b60405163ffffffff90911681526020016101f9565b3480156102e757600080fd5b506102fe6102f6366004611e1c565b600092915050565b6040516001600160401b0390911681526020016101f9565b6101c6610324366004612021565b610d3e565b34801561033557600080fd5b5061035861034436600461206c565b6001600160a01b0381163014949350505050565b60405190151581526020016101f9565b6101c66103763660046120d2565b610ee0565b34801561038757600080fd5b506000546001600160a01b031661027c565b3480156103a557600080fd5b506103b96103b436600461219e565b611208565b604080518251815260209283015192810192909252016101f9565b3480156103e057600080fd5b506103b96103ef366004611ee9565b611295565b34801561040057600080fd5b506101c661040f366004612211565b611325565b34801561042057600080fd5b5061044161042f366004611ce4565b60016020526000908152604090205481565b6040519081526020016101f9565b34801561045b57600080fd5b506103b961046a366004611f8b565b611445565b34801561047b57600080fd5b506101c661048a36600461222f565b6114db565b34801561049b57600080fd5b506103b96104aa3660046120d2565b61155a565b3480156104bb57600080fd5b506103b96104ca366004612021565b6115ed565b3480156104db57600080fd5b506101c66104ea36600461222f565b6116a6565b3480156104fb57600080fd5b5061027c7f000000000000000000000000000000000000000000000000000000000000000081565b34801561052f57600080fd5b5061035861053e36600461224c565b6116e4565b61054b61171a565b60008163ffffffff16116105a65760405162461bcd60e51b815260206004820152601760248201527f496e76616c69642064657374696e6174696f6e2045494400000000000000000060448201526064015b60405180910390fd5b6003805463ffffffff191663ffffffff92909216919091179055565b7f00000000000000000000000000000000000000000000000000000000000000006001600160a01b0316331461060d576040516391ac5e4f60e01b815233600482015260240161059d565b6020870180359061062790610622908a611ce4565b611747565b14610665576106396020880188611ce4565b60405163309afaf360e21b815263ffffffff90911660048201526020880135602482015260440161059d565b61067487878787878787611789565b50505050505050565b61068561171a565b61068f82826117d2565b5050565b61069b611827565b60008551116106da5760405162461bcd60e51b815260206004820152600b60248201526a536b696c6c20656d70747960a81b604482015260640161059d565b600084511161071e5760405162461bcd60e51b815260206004820152601060248201526f50726f6f66206861736820656d70747960801b604482015260640161059d565b6000831161075e5760405162461bcd60e51b815260206004820152600d60248201526c5553445420666565207a65726f60981b604482015260640161059d565b6040516323b872dd60e01b8152336004820152306024820152604481018490527f00000000000000000000000000000000000000000000000000000000000000006001600160a01b0316906323b872dd906064016020604051808303816000875af11580156107d1573d6000803e3d6000fd5b505050506040513d601f19601f820116820180604052508101906107f59190612276565b6108385760405162461bcd60e51b81526020600482015260146024820152731554d115081d1c985b9cd9995c8819985a5b195960621b604482015260640161059d565b60003386868660405160200161085194939291906122d9565b60408051601f198184030181526003546020601f87018190048102850181019093528584529093506000926108ac9263ffffffff9092169185919088908890819084018382808284376000920182905250925061187e915050565b80519091503410156108f55760405162461bcd60e51b81526020600482015260126024820152714e61746976652066656520746f6f206c6f7760701b604482015260640161059d565b600354604080516020601f87018190048102820181019092528581526109569263ffffffff16918591908890889081908401838280828437600092018290525060408051808201909152348152602081019190915292503391506119569050565b50600354604051339163ffffffff16907f3e4b07ba31c4d6796b7895fe18e7487bcdb46a957f3f6fb31852f8134028ea7f90610997908b908b908b90612353565b60405180910390a350506109ab6001600255565b5050505050565b6109ba611827565b6000855111610a005760405162461bcd60e51b815260206004820152601260248201527144697370757465206861736820656d70747960701b604482015260640161059d565b6000845111610a455760405162461bcd60e51b81526020600482015260116024820152704f7261636c65206e616d6520656d70747960781b604482015260640161059d565b60008311610a855760405162461bcd60e51b815260206004820152600d60248201526c5553445420666565207a65726f60981b604482015260640161059d565b60008611610ad55760405162461bcd60e51b815260206004820152601460248201527f446973707574656420616d6f756e74207a65726f000000000000000000000000604482015260640161059d565b6040516323b872dd60e01b8152336004820152306024820152604481018490527f00000000000000000000000000000000000000000000000000000000000000006001600160a01b0316906323b872dd906064016020604051808303816000875af1158015610b48573d6000803e3d6000fd5b505050506040513d601f19601f82011682018060405250810190610b6c9190612276565b610baf5760405162461bcd60e51b81526020600482015260146024820152731554d115081d1c985b9cd9995c8819985a5b195960621b604482015260640161059d565b6000338888888888604051602001610bcc96959493929190612389565b60408051601f198184030181526003546020601f8701819004810285018101909352858452909350600092610c279263ffffffff9092169185919088908890819084018382808284376000920182905250925061187e915050565b8051909150341015610c705760405162461bcd60e51b81526020600482015260126024820152714e61746976652066656520746f6f206c6f7760701b604482015260640161059d565b600354604080516020601f8701819004810282018101909252858152610cd19263ffffffff16918591908890889081908401838280828437600092018290525060408051808201909152348152602081019190915292503391506119569050565b50600354604051339163ffffffff16907f1dcd71fb8aae58eea5679631d43661566ea0dee46f7435c2a70f5604ff92bb0590610d16908d908d908d908d908d90612403565b60405180910390a350506106746001600255565b610d3261171a565b610d3c6000611a56565b565b610d46611827565b60408051606060208201819052601360808301527218db185a5b511a5cdc1d5d1959105b5bdd5b9d606a1b60a0830152339282019290925290810184905260009060c00160408051601f198184030181526003546020601f8701819004810285018101909352858452909350600092610de59263ffffffff9092169185919088908890819084018382808284376000920182905250925061187e915050565b8051909150341015610e2e5760405162461bcd60e51b81526020600482015260126024820152714e61746976652066656520746f6f206c6f7760701b604482015260640161059d565b600354604080516020601f8701819004810282018101909252858152610e8f9263ffffffff16918591908890889081908401838280828437600092018290525060408051808201909152348152602081019190915292503391506119569050565b50600354604051868152339163ffffffff16907f6541184babe530df37651624302aebdd4dd75d4f40c7d1a32dd38168fd3e50119060200160405180910390a35050610edb6001600255565b505050565b610ee8611827565b6000865111610f2a5760405162461bcd60e51b815260206004820152600e60248201526d5175657374696f6e20656d70747960901b604482015260640161059d565b6000845111610f6f5760405162461bcd60e51b81526020600482015260116024820152704f7261636c65206e616d6520656d70747960781b604482015260640161059d565b60008311610faf5760405162461bcd60e51b815260206004820152600d60248201526c5553445420666565207a65726f60981b604482015260640161059d565b6040516323b872dd60e01b8152336004820152306024820152604481018490527f00000000000000000000000000000000000000000000000000000000000000006001600160a01b0316906323b872dd906064016020604051808303816000875af1158015611022573d6000803e3d6000fd5b505050506040513d601f19601f820116820180604052508101906110469190612276565b6110895760405162461bcd60e51b81526020600482015260146024820152731554d115081d1c985b9cd9995c8819985a5b195960621b604482015260640161059d565b600033878787876040516020016110a4959493929190612447565b60408051601f198184030181526003546020601f87018190048102850181019093528584529093506000926110ff9263ffffffff9092169185919088908890819084018382808284376000920182905250925061187e915050565b80519091503410156111485760405162461bcd60e51b81526020600482015260126024820152714e61746976652066656520746f6f206c6f7760701b604482015260640161059d565b600354604080516020601f87018190048102820181019092528581526111a99263ffffffff16918591908890889081908401838280828437600092018290525060408051808201909152348152602081019190915292503391506119569050565b50600354604051339163ffffffff16907fd55884cbcc73464244e119bb688bc3caf4fc0dcfbd16467d8e3bc4d112bc8ae0906111ec908c908c908c908c906124c4565b60405180910390a350506112006001600255565b505050505050565b604080518082019091526000808252602082015260003386866040516020016112339392919061250f565b60408051601f198184030181526003546020601f880181900481028501810190935286845290935061128b9263ffffffff9091169184919088908890819084018382808284376000920182905250925061187e915050565b9695505050505050565b60408051808201909152600080825260208201526000338787876040516020016112c294939291906122d9565b60408051601f198184030181526003546020601f880181900481028501810190935286845290935061131a9263ffffffff9091169184919088908890819084018382808284376000920182905250925061187e915050565b979650505050505050565b61132d61171a565b60405163a9059cbb60e01b81526001600160a01b038381166004830152602482018390527f0000000000000000000000000000000000000000000000000000000000000000169063a9059cbb906044016020604051808303816000875af115801561139c573d6000803e3d6000fd5b505050506040513d601f19601f820116820180604052508101906113c09190612276565b6113fe5760405162461bcd60e51b815260206004820152600f60248201526e15da5d1a191c985dc819985a5b1959608a1b604482015260640161059d565b816001600160a01b03167fc0819c13be868895eb93e40eaceb96de976442fa1d404e5c55f14bb65a8c489a8260405161143991815260200190565b60405180910390a25050565b6040805180820190915260008082526020820152600033898989898960405160200161147696959493929190612389565b60408051601f198184030181526003546020601f88018190048102850181019093528684529093506114ce9263ffffffff9091169184919088908890819084018382808284376000920182905250925061187e915050565b9998505050505050505050565b6114e361171a565b60405163ca5eb5e160e01b81526001600160a01b0382811660048301527f0000000000000000000000000000000000000000000000000000000000000000169063ca5eb5e190602401600060405180830381600087803b15801561154657600080fd5b505af11580156109ab573d6000803e3d6000fd5b604080518082019091526000808252602082015260003388888888604051602001611589959493929190612447565b60408051601f198184030181526003546020601f88018190048102850181019093528684529093506115e19263ffffffff9091169184919088908890819084018382808284376000920182905250925061187e915050565b98975050505050505050565b604080518082019091526000808252602082015260408051606060208201819052601360808301527218db185a5b511a5cdc1d5d1959105b5bdd5b9d606a1b60a0830152339282019290925290810185905260009060c00160408051601f198184030181526003546020601f880181900481028501810190935286845290935061169d9263ffffffff9091169184919088908890819084018382808284376000920182905250925061187e915050565b95945050505050565b6116ae61171a565b6001600160a01b0381166116d857604051631e4fbdf760e01b81526000600482015260240161059d565b6116e181611a56565b50565b60006020820180359060019083906116fc9086611ce4565b63ffffffff1681526020810191909152604001600020541492915050565b6000546001600160a01b03163314610d3c5760405163118cdaa760e01b815233600482015260240161059d565b63ffffffff8116600090815260016020526040812054806117835760405163f6ff4fb760e01b815263ffffffff8416600482015260240161059d565b92915050565b600080808061179a888a018a61255b565b505060408051808201909152600f81526e191a5cdc1d5d1954995cdbdb1d9959608a1b60209091015250505050505050505050505050565b63ffffffff8216600081815260016020908152604091829020849055815192835282018390527f238399d427b947898edb290f5ff0f9109849b1c3ba196a42e35f00c50a54b98b910160405180910390a15050565b60028054036118785760405162461bcd60e51b815260206004820152601f60248201527f5265656e7472616e637947756172643a207265656e7472616e742063616c6c00604482015260640161059d565b60028055565b60408051808201909152600080825260208201527f00000000000000000000000000000000000000000000000000000000000000006001600160a01b031663ddc28c586040518060a001604052808863ffffffff1681526020016118e189611747565b8152602001878152602001868152602001851515815250306040518363ffffffff1660e01b81526004016119169291906125bb565b6040805180830381865afa158015611932573d6000803e3d6000fd5b505050506040513d601f19601f8201168201806040525081019061169d9190612682565b61195e611c84565b600061196d8460000151611ab3565b602085015190915015611987576119878460200151611adb565b7f00000000000000000000000000000000000000000000000000000000000000006001600160a01b0316632637a450826040518060a001604052808b63ffffffff1681526020016119d78c611747565b81526020018a815260200189815260200160008960200151111515815250866040518463ffffffff1660e01b8152600401611a139291906125bb565b60806040518083038185885af1158015611a31573d6000803e3d6000fd5b50505050506040513d601f19601f8201168201806040525081019061131a919061269e565b600080546001600160a01b0383811673ffffffffffffffffffffffffffffffffffffffff19831681178455604051919092169283917f8be0079c531659141344cd1fd0a4f28419497f9722a3daafe3b4186f6b6457e09190a35050565b6000813414611ad7576040516304fb820960e51b815234600482015260240161059d565b5090565b60007f00000000000000000000000000000000000000000000000000000000000000006001600160a01b031663e4fe1d946040518163ffffffff1660e01b8152600401602060405180830381865afa158015611b3b573d6000803e3d6000fd5b505050506040513d601f19601f82011682018060405250810190611b5f9190612713565b90506001600160a01b038116611b88576040516329b99a9560e11b815260040160405180910390fd5b6040805133602482018190527f00000000000000000000000000000000000000000000000000000000000000006001600160a01b03818116604485015260648085018890528551808603909101815260849094019094526020830180516001600160e01b03166323b872dd60e01b17905261068f938516928690611c0d908590611c13565b50505050565b600080602060008451602086016000885af180611c36576040513d6000823e3d81fd5b50506000513d91508115611c4e578060011415611c5b565b6001600160a01b0384163b155b15611c0d57604051635274afe760e01b81526001600160a01b038516600482015260240161059d565b60405180606001604052806000801916815260200160006001600160401b03168152602001611cc6604051806040016040528060008152602001600081525090565b905290565b803563ffffffff81168114611cdf57600080fd5b919050565b600060208284031215611cf657600080fd5b611cff82611ccb565b9392505050565b600060608284031215611d1857600080fd5b50919050565b60008083601f840112611d3057600080fd5b5081356001600160401b03811115611d4757600080fd5b602083019150836020828501011115611d5f57600080fd5b9250929050565b6001600160a01b03811681146116e157600080fd5b600080600080600080600060e0888a031215611d9657600080fd5b611da08989611d06565b96506060880135955060808801356001600160401b03811115611dc257600080fd5b611dce8a828b01611d1e565b90965094505060a0880135611de281611d66565b925060c08801356001600160401b03811115611dfd57600080fd5b611e098a828b01611d1e565b989b979a50959850939692959293505050565b60008060408385031215611e2f57600080fd5b611e3883611ccb565b946020939093013593505050565b634e487b7160e01b600052604160045260246000fd5b600082601f830112611e6d57600080fd5b81356001600160401b03811115611e8657611e86611e46565b604051601f8201601f19908116603f011681016001600160401b0381118282101715611eb457611eb4611e46565b604052818152838201602001851015611ecc57600080fd5b816020850160208301376000918101602001919091529392505050565b600080600080600060808688031215611f0157600080fd5b85356001600160401b03811115611f1757600080fd5b611f2388828901611e5c565b95505060208601356001600160401b03811115611f3f57600080fd5b611f4b88828901611e5c565b9450506040860135925060608601356001600160401b03811115611f6e57600080fd5b611f7a88828901611d1e565b969995985093965092949392505050565b600080600080600080600060c0888a031215611fa657600080fd5b873596506020880135955060408801356001600160401b03811115611fca57600080fd5b611fd68a828b01611e5c565b95505060608801356001600160401b03811115611ff257600080fd5b611ffe8a828b01611e5c565b9450506080880135925060a08801356001600160401b03811115611dfd57600080fd5b60008060006040848603121561203657600080fd5b8335925060208401356001600160401b0381111561205357600080fd5b61205f86828701611d1e565b9497909650939450505050565b60008060008060a0858703121561208257600080fd5b61208c8686611d06565b935060608501356001600160401b038111156120a757600080fd5b6120b387828801611d1e565b90945092505060808501356120c781611d66565b939692955090935050565b60008060008060008060a087890312156120eb57600080fd5b86356001600160401b0381111561210157600080fd5b61210d89828a01611e5c565b96505060208701356001600160401b0381111561212957600080fd5b61213589828a01611e5c565b95505060408701356001600160401b0381111561215157600080fd5b61215d89828a01611e5c565b9450506060870135925060808701356001600160401b0381111561218057600080fd5b61218c89828a01611d1e565b979a9699509497509295939492505050565b600080600080606085870312156121b457600080fd5b8435935060208501356001600160401b038111156121d157600080fd5b6121dd87828801611e5c565b93505060408501356001600160401b038111156121f957600080fd5b61220587828801611d1e565b95989497509550505050565b6000806040838503121561222457600080fd5b8235611e3881611d66565b60006020828403121561224157600080fd5b8135611cff81611d66565b60006060828403121561225e57600080fd5b611cff8383611d06565b80151581146116e157600080fd5b60006020828403121561228857600080fd5b8151611cff81612268565b6000815180845260005b818110156122b95760208185018101518683018201520161229d565b506000602082860101526020601f19601f83011685010191505092915050565b60a08152601860a08201527f72657175657374536b696c6c566572696669636174696f6e000000000000000060c08201526001600160a01b038516602082015260e06040820152600061232f60e0830186612293565b82810360608401526123418186612293565b91505082608083015295945050505050565b6060815260006123666060830186612293565b82810360208401526123788186612293565b915050826040830152949350505050565b60e08152600c60e08201526b72616973654469737075746560a01b6101008201526001600160a01b0387166020820152856040820152846060820152610120608082015260006123dd610120830186612293565b82810360a08401526123ef8186612293565b9150508260c0830152979650505050505050565b85815284602082015260a06040820152600061242260a0830186612293565b82810360608401526124348186612293565b9150508260808301529695505050505050565b60c08152600960c08201526861736b417468656e6160b81b60e08201526001600160a01b03861660208201526101006040820152600061248b610100830187612293565b828103606084015261249d8187612293565b905082810360808401526124b18186612293565b9150508260a08301529695505050505050565b6080815260006124d76080830187612293565b82810360208401526124e98187612293565b905082810360408401526124fd8186612293565b91505082606083015295945050505050565b60808152600d60808201526c6372656174654469737075746560981b60a08201526001600160a01b038416602082015282604082015260c06060820152600061169d60c0830184612293565b6000806000806080858703121561257157600080fd5b84356001600160401b0381111561258757600080fd5b61259387828801611e5c565b94505060208501356125a481611d66565b92506040850135915060608501356120c781612268565b6040815263ffffffff8351166040820152602083015160608201526000604084015160a060808401526125f160e0840182612293565b90506060850151603f198483030160a085015261260e8282612293565b60809690960151151560c08501525050506001600160a01b039190911660209091015290565b60006040828403121561264657600080fd5b604080519081016001600160401b038111828210171561266857612668611e46565b604052825181526020928301519281019290925250919050565b60006040828403121561269457600080fd5b611cff8383612634565b600060808284031280156126b157600080fd5b50604051606081016001600160401b03811182821017156126d4576126d4611e46565b6040528251815260208301516001600160401b03811681146126f557600080fd5b60208201526127078460408501612634565b60408201529392505050565b60006020828403121561272557600080fd5b8151611cff81611d6656fea2646970667358221220849f28df77f47ff421438b2e7fa865c30e6e533d816fa6c98bd5ff4224ebc3d064736f6c634300081c0033",
					"opcodes": "PUSH1 0xC0 PUSH1 0x40 MSTORE CALLVALUE DUP1 ISZERO PUSH2 0x10 JUMPI PUSH1 0x0 DUP1 REVERT JUMPDEST POP PUSH1 0x40 MLOAD PUSH2 0x29CE CODESIZE SUB DUP1 PUSH2 0x29CE DUP4 CODECOPY DUP2 ADD PUSH1 0x40 DUP2 SWAP1 MSTORE PUSH2 0x2F SWAP2 PUSH2 0x19E JUMP JUMPDEST DUP4 DUP4 DUP2 DUP2 DUP1 PUSH1 0x1 PUSH1 0x1 PUSH1 0xA0 SHL SUB DUP2 AND PUSH2 0x62 JUMPI PUSH1 0x40 MLOAD PUSH4 0x1E4FBDF7 PUSH1 0xE0 SHL DUP2 MSTORE PUSH1 0x0 PUSH1 0x4 DUP3 ADD MSTORE PUSH1 0x24 ADD PUSH1 0x40 MLOAD DUP1 SWAP2 SUB SWAP1 REVERT JUMPDEST PUSH2 0x6B DUP2 PUSH2 0x132 JUMP JUMPDEST POP PUSH1 0x1 PUSH1 0x1 PUSH1 0xA0 SHL SUB DUP1 DUP4 AND PUSH1 0x80 MSTORE DUP2 AND PUSH2 0x99 JUMPI PUSH1 0x40 MLOAD PUSH4 0x2D618D81 PUSH1 0xE2 SHL DUP2 MSTORE PUSH1 0x4 ADD PUSH1 0x40 MLOAD DUP1 SWAP2 SUB SWAP1 REVERT JUMPDEST PUSH1 0x80 MLOAD PUSH1 0x40 MLOAD PUSH4 0xCA5EB5E1 PUSH1 0xE0 SHL DUP2 MSTORE PUSH1 0x1 PUSH1 0x1 PUSH1 0xA0 SHL SUB DUP4 DUP2 AND PUSH1 0x4 DUP4 ADD MSTORE SWAP1 SWAP2 AND SWAP1 PUSH4 0xCA5EB5E1 SWAP1 PUSH1 0x24 ADD PUSH1 0x0 PUSH1 0x40 MLOAD DUP1 DUP4 SUB DUP2 PUSH1 0x0 DUP8 DUP1 EXTCODESIZE ISZERO DUP1 ISZERO PUSH2 0xE0 JUMPI PUSH1 0x0 DUP1 REVERT JUMPDEST POP GAS CALL ISZERO DUP1 ISZERO PUSH2 0xF4 JUMPI RETURNDATASIZE PUSH1 0x0 DUP1 RETURNDATACOPY RETURNDATASIZE PUSH1 0x0 REVERT JUMPDEST POP POP PUSH1 0x1 PUSH1 0x2 SSTORE POP POP POP PUSH1 0x1 PUSH1 0x1 PUSH1 0xA0 SHL SUB SWAP1 SWAP5 AND PUSH1 0xA0 MSTORE POP POP PUSH1 0x3 DUP1 SLOAD PUSH4 0xFFFFFFFF SWAP1 SWAP3 AND PUSH4 0xFFFFFFFF NOT SWAP1 SWAP3 AND SWAP2 SWAP1 SWAP2 OR SWAP1 SSTORE POP PUSH2 0x1FD SWAP2 POP POP JUMP JUMPDEST PUSH1 0x0 DUP1 SLOAD PUSH1 0x1 PUSH1 0x1 PUSH1 0xA0 SHL SUB DUP4 DUP2 AND PUSH1 0x1 PUSH1 0x1 PUSH1 0xA0 SHL SUB NOT DUP4 AND DUP2 OR DUP5 SSTORE PUSH1 0x40 MLOAD SWAP2 SWAP1 SWAP3 AND SWAP3 DUP4 SWAP2 PUSH32 0x8BE0079C531659141344CD1FD0A4F28419497F9722A3DAAFE3B4186F6B6457E0 SWAP2 SWAP1 LOG3 POP POP JUMP JUMPDEST DUP1 MLOAD PUSH1 0x1 PUSH1 0x1 PUSH1 0xA0 SHL SUB DUP2 AND DUP2 EQ PUSH2 0x199 JUMPI PUSH1 0x0 DUP1 REVERT JUMPDEST SWAP2 SWAP1 POP JUMP JUMPDEST PUSH1 0x0 DUP1 PUSH1 0x0 DUP1 PUSH1 0x80 DUP6 DUP8 SUB SLT ISZERO PUSH2 0x1B4 JUMPI PUSH1 0x0 DUP1 REVERT JUMPDEST PUSH2 0x1BD DUP6 PUSH2 0x182 JUMP JUMPDEST SWAP4 POP PUSH2 0x1CB PUSH1 0x20 DUP7 ADD PUSH2 0x182 JUMP JUMPDEST SWAP3 POP PUSH2 0x1D9 PUSH1 0x40 DUP7 ADD PUSH2 0x182 JUMP JUMPDEST SWAP2 POP PUSH1 0x60 DUP6 ADD MLOAD PUSH4 0xFFFFFFFF DUP2 AND DUP2 EQ PUSH2 0x1F2 JUMPI PUSH1 0x0 DUP1 REVERT JUMPDEST SWAP4 SWAP7 SWAP3 SWAP6 POP SWAP1 SWAP4 POP POP JUMP JUMPDEST PUSH1 0x80 MLOAD PUSH1 0xA0 MLOAD PUSH2 0x2766 PUSH2 0x268 PUSH1 0x0 CODECOPY PUSH1 0x0 DUP2 DUP2 PUSH2 0x501 ADD MSTORE DUP2 DUP2 PUSH2 0x780 ADD MSTORE DUP2 DUP2 PUSH2 0xAF7 ADD MSTORE DUP2 DUP2 PUSH2 0xFD1 ADD MSTORE PUSH2 0x1353 ADD MSTORE PUSH1 0x0 DUP2 DUP2 PUSH2 0x25A ADD MSTORE DUP2 DUP2 PUSH2 0x5C4 ADD MSTORE DUP2 DUP2 PUSH2 0x1502 ADD MSTORE DUP2 DUP2 PUSH2 0x1894 ADD MSTORE DUP2 DUP2 PUSH2 0x1989 ADD MSTORE DUP2 DUP2 PUSH2 0x1ADF ADD MSTORE PUSH2 0x1B96 ADD MSTORE PUSH2 0x2766 PUSH1 0x0 RETURN INVALID PUSH1 0x80 PUSH1 0x40 MSTORE PUSH1 0x4 CALLDATASIZE LT PUSH2 0x19A JUMPI PUSH1 0x0 CALLDATALOAD PUSH1 0xE0 SHR DUP1 PUSH4 0x8B46E627 GT PUSH2 0xE1 JUMPI DUP1 PUSH4 0xBCD95793 GT PUSH2 0x8A JUMPI DUP1 PUSH4 0xE8700687 GT PUSH2 0x64 JUMPI DUP1 PUSH4 0xE8700687 EQ PUSH2 0x4AF JUMPI DUP1 PUSH4 0xF2FDE38B EQ PUSH2 0x4CF JUMPI DUP1 PUSH4 0xF897A22B EQ PUSH2 0x4EF JUMPI DUP1 PUSH4 0xFF7BD03D EQ PUSH2 0x523 JUMPI PUSH1 0x0 DUP1 REVERT JUMPDEST DUP1 PUSH4 0xBCD95793 EQ PUSH2 0x44F JUMPI DUP1 PUSH4 0xCA5EB5E1 EQ PUSH2 0x46F JUMPI DUP1 PUSH4 0xD6D3BB38 EQ PUSH2 0x48F JUMPI PUSH1 0x0 DUP1 REVERT JUMPDEST DUP1 PUSH4 0x9209CB39 GT PUSH2 0xBB JUMPI DUP1 PUSH4 0x9209CB39 EQ PUSH2 0x3D4 JUMPI DUP1 PUSH4 0xAD3B1B47 EQ PUSH2 0x3F4 JUMPI DUP1 PUSH4 0xBB0B6A53 EQ PUSH2 0x414 JUMPI PUSH1 0x0 DUP1 REVERT JUMPDEST DUP1 PUSH4 0x8B46E627 EQ PUSH2 0x368 JUMPI DUP1 PUSH4 0x8DA5CB5B EQ PUSH2 0x37B JUMPI DUP1 PUSH4 0x8DD2067C EQ PUSH2 0x399 JUMPI PUSH1 0x0 DUP1 REVERT JUMPDEST DUP1 PUSH4 0x5E280F11 GT PUSH2 0x143 JUMPI DUP1 PUSH4 0x7D25A05E GT PUSH2 0x11D JUMPI DUP1 PUSH4 0x7D25A05E EQ PUSH2 0x2DB JUMPI DUP1 PUSH4 0x819D9E38 EQ PUSH2 0x316 JUMPI DUP1 PUSH4 0x82413EAC EQ PUSH2 0x329 JUMPI PUSH1 0x0 DUP1 REVERT JUMPDEST DUP1 PUSH4 0x5E280F11 EQ PUSH2 0x248 JUMPI DUP1 PUSH4 0x715018A6 EQ PUSH2 0x294 JUMPI DUP1 PUSH4 0x734FF5F3 EQ PUSH2 0x2A9 JUMPI PUSH1 0x0 DUP1 REVERT JUMPDEST DUP1 PUSH4 0x3400288B GT PUSH2 0x174 JUMPI DUP1 PUSH4 0x3400288B EQ PUSH2 0x202 JUMPI DUP1 PUSH4 0x3CF1EDAC EQ PUSH2 0x222 JUMPI DUP1 PUSH4 0x48EE7F5D EQ PUSH2 0x235 JUMPI PUSH1 0x0 DUP1 REVERT JUMPDEST DUP1 PUSH4 0xD14C92E EQ PUSH2 0x1A6 JUMPI DUP1 PUSH4 0x13137D65 EQ PUSH2 0x1C8 JUMPI DUP1 PUSH4 0x17442B70 EQ PUSH2 0x1DB JUMPI PUSH1 0x0 DUP1 REVERT JUMPDEST CALLDATASIZE PUSH2 0x1A1 JUMPI STOP JUMPDEST PUSH1 0x0 DUP1 REVERT JUMPDEST CALLVALUE DUP1 ISZERO PUSH2 0x1B2 JUMPI PUSH1 0x0 DUP1 REVERT JUMPDEST POP PUSH2 0x1C6 PUSH2 0x1C1 CALLDATASIZE PUSH1 0x4 PUSH2 0x1CE4 JUMP JUMPDEST PUSH2 0x543 JUMP JUMPDEST STOP JUMPDEST PUSH2 0x1C6 PUSH2 0x1D6 CALLDATASIZE PUSH1 0x4 PUSH2 0x1D7B JUMP JUMPDEST PUSH2 0x5C2 JUMP JUMPDEST CALLVALUE DUP1 ISZERO PUSH2 0x1E7 JUMPI PUSH1 0x0 DUP1 REVERT JUMPDEST POP PUSH1 0x40 DUP1 MLOAD PUSH1 0x1 DUP2 MSTORE PUSH1 0x2 PUSH1 0x20 DUP3 ADD MSTORE ADD JUMPDEST PUSH1 0x40 MLOAD DUP1 SWAP2 SUB SWAP1 RETURN JUMPDEST CALLVALUE DUP1 ISZERO PUSH2 0x20E JUMPI PUSH1 0x0 DUP1 REVERT JUMPDEST POP PUSH2 0x1C6 PUSH2 0x21D CALLDATASIZE PUSH1 0x4 PUSH2 0x1E1C JUMP JUMPDEST PUSH2 0x67D JUMP JUMPDEST PUSH2 0x1C6 PUSH2 0x230 CALLDATASIZE PUSH1 0x4 PUSH2 0x1EE9 JUMP JUMPDEST PUSH2 0x693 JUMP JUMPDEST PUSH2 0x1C6 PUSH2 0x243 CALLDATASIZE PUSH1 0x4 PUSH2 0x1F8B JUMP JUMPDEST PUSH2 0x9B2 JUMP JUMPDEST CALLVALUE DUP1 ISZERO PUSH2 0x254 JUMPI PUSH1 0x0 DUP1 REVERT JUMPDEST POP PUSH2 0x27C PUSH32 0x0 DUP2 JUMP JUMPDEST PUSH1 0x40 MLOAD PUSH1 0x1 PUSH1 0x1 PUSH1 0xA0 SHL SUB SWAP1 SWAP2 AND DUP2 MSTORE PUSH1 0x20 ADD PUSH2 0x1F9 JUMP JUMPDEST CALLVALUE DUP1 ISZERO PUSH2 0x2A0 JUMPI PUSH1 0x0 DUP1 REVERT JUMPDEST POP PUSH2 0x1C6 PUSH2 0xD2A JUMP JUMPDEST CALLVALUE DUP1 ISZERO PUSH2 0x2B5 JUMPI PUSH1 0x0 DUP1 REVERT JUMPDEST POP PUSH1 0x3 SLOAD PUSH2 0x2C6 SWAP1 PUSH4 0xFFFFFFFF AND DUP2 JUMP JUMPDEST PUSH1 0x40 MLOAD PUSH4 0xFFFFFFFF SWAP1 SWAP2 AND DUP2 MSTORE PUSH1 0x20 ADD PUSH2 0x1F9 JUMP JUMPDEST CALLVALUE DUP1 ISZERO PUSH2 0x2E7 JUMPI PUSH1 0x0 DUP1 REVERT JUMPDEST POP PUSH2 0x2FE PUSH2 0x2F6 CALLDATASIZE PUSH1 0x4 PUSH2 0x1E1C JUMP JUMPDEST PUSH1 0x0 SWAP3 SWAP2 POP POP JUMP JUMPDEST PUSH1 0x40 MLOAD PUSH1 0x1 PUSH1 0x1 PUSH1 0x40 SHL SUB SWAP1 SWAP2 AND DUP2 MSTORE PUSH1 0x20 ADD PUSH2 0x1F9 JUMP JUMPDEST PUSH2 0x1C6 PUSH2 0x324 CALLDATASIZE PUSH1 0x4 PUSH2 0x2021 JUMP JUMPDEST PUSH2 0xD3E JUMP JUMPDEST CALLVALUE DUP1 ISZERO PUSH2 0x335 JUMPI PUSH1 0x0 DUP1 REVERT JUMPDEST POP PUSH2 0x358 PUSH2 0x344 CALLDATASIZE PUSH1 0x4 PUSH2 0x206C JUMP JUMPDEST PUSH1 0x1 PUSH1 0x1 PUSH1 0xA0 SHL SUB DUP2 AND ADDRESS EQ SWAP5 SWAP4 POP POP POP POP JUMP JUMPDEST PUSH1 0x40 MLOAD SWAP1 ISZERO ISZERO DUP2 MSTORE PUSH1 0x20 ADD PUSH2 0x1F9 JUMP JUMPDEST PUSH2 0x1C6 PUSH2 0x376 CALLDATASIZE PUSH1 0x4 PUSH2 0x20D2 JUMP JUMPDEST PUSH2 0xEE0 JUMP JUMPDEST CALLVALUE DUP1 ISZERO PUSH2 0x387 JUMPI PUSH1 0x0 DUP1 REVERT JUMPDEST POP PUSH1 0x0 SLOAD PUSH1 0x1 PUSH1 0x1 PUSH1 0xA0 SHL SUB AND PUSH2 0x27C JUMP JUMPDEST CALLVALUE DUP1 ISZERO PUSH2 0x3A5 JUMPI PUSH1 0x0 DUP1 REVERT JUMPDEST POP PUSH2 0x3B9 PUSH2 0x3B4 CALLDATASIZE PUSH1 0x4 PUSH2 0x219E JUMP JUMPDEST PUSH2 0x1208 JUMP JUMPDEST PUSH1 0x40 DUP1 MLOAD DUP3 MLOAD DUP2 MSTORE PUSH1 0x20 SWAP3 DUP4 ADD MLOAD SWAP3 DUP2 ADD SWAP3 SWAP1 SWAP3 MSTORE ADD PUSH2 0x1F9 JUMP JUMPDEST CALLVALUE DUP1 ISZERO PUSH2 0x3E0 JUMPI PUSH1 0x0 DUP1 REVERT JUMPDEST POP PUSH2 0x3B9 PUSH2 0x3EF CALLDATASIZE PUSH1 0x4 PUSH2 0x1EE9 JUMP JUMPDEST PUSH2 0x1295 JUMP JUMPDEST CALLVALUE DUP1 ISZERO PUSH2 0x400 JUMPI PUSH1 0x0 DUP1 REVERT JUMPDEST POP PUSH2 0x1C6 PUSH2 0x40F CALLDATASIZE PUSH1 0x4 PUSH2 0x2211 JUMP JUMPDEST PUSH2 0x1325 JUMP JUMPDEST CALLVALUE DUP1 ISZERO PUSH2 0x420 JUMPI PUSH1 0x0 DUP1 REVERT JUMPDEST POP PUSH2 0x441 PUSH2 0x42F CALLDATASIZE PUSH1 0x4 PUSH2 0x1CE4 JUMP JUMPDEST PUSH1 0x1 PUSH1 0x20 MSTORE PUSH1 0x0 SWAP1 DUP2 MSTORE PUSH1 0x40 SWAP1 KECCAK256 SLOAD DUP2 JUMP JUMPDEST PUSH1 0x40 MLOAD SWAP1 DUP2 MSTORE PUSH1 0x20 ADD PUSH2 0x1F9 JUMP JUMPDEST CALLVALUE DUP1 ISZERO PUSH2 0x45B JUMPI PUSH1 0x0 DUP1 REVERT JUMPDEST POP PUSH2 0x3B9 PUSH2 0x46A CALLDATASIZE PUSH1 0x4 PUSH2 0x1F8B JUMP JUMPDEST PUSH2 0x1445 JUMP JUMPDEST CALLVALUE DUP1 ISZERO PUSH2 0x47B JUMPI PUSH1 0x0 DUP1 REVERT JUMPDEST POP PUSH2 0x1C6 PUSH2 0x48A CALLDATASIZE PUSH1 0x4 PUSH2 0x222F JUMP JUMPDEST PUSH2 0x14DB JUMP JUMPDEST CALLVALUE DUP1 ISZERO PUSH2 0x49B JUMPI PUSH1 0x0 DUP1 REVERT JUMPDEST POP PUSH2 0x3B9 PUSH2 0x4AA CALLDATASIZE PUSH1 0x4 PUSH2 0x20D2 JUMP JUMPDEST PUSH2 0x155A JUMP JUMPDEST CALLVALUE DUP1 ISZERO PUSH2 0x4BB JUMPI PUSH1 0x0 DUP1 REVERT JUMPDEST POP PUSH2 0x3B9 PUSH2 0x4CA CALLDATASIZE PUSH1 0x4 PUSH2 0x2021 JUMP JUMPDEST PUSH2 0x15ED JUMP JUMPDEST CALLVALUE DUP1 ISZERO PUSH2 0x4DB JUMPI PUSH1 0x0 DUP1 REVERT JUMPDEST POP PUSH2 0x1C6 PUSH2 0x4EA CALLDATASIZE PUSH1 0x4 PUSH2 0x222F JUMP JUMPDEST PUSH2 0x16A6 JUMP JUMPDEST CALLVALUE DUP1 ISZERO PUSH2 0x4FB JUMPI PUSH1 0x0 DUP1 REVERT JUMPDEST POP PUSH2 0x27C PUSH32 0x0 DUP2 JUMP JUMPDEST CALLVALUE DUP1 ISZERO PUSH2 0x52F JUMPI PUSH1 0x0 DUP1 REVERT JUMPDEST POP PUSH2 0x358 PUSH2 0x53E CALLDATASIZE PUSH1 0x4 PUSH2 0x224C JUMP JUMPDEST PUSH2 0x16E4 JUMP JUMPDEST PUSH2 0x54B PUSH2 0x171A JUMP JUMPDEST PUSH1 0x0 DUP2 PUSH4 0xFFFFFFFF AND GT PUSH2 0x5A6 JUMPI PUSH1 0x40 MLOAD PUSH3 0x461BCD PUSH1 0xE5 SHL DUP2 MSTORE PUSH1 0x20 PUSH1 0x4 DUP3 ADD MSTORE PUSH1 0x17 PUSH1 0x24 DUP3 ADD MSTORE PUSH32 0x496E76616C69642064657374696E6174696F6E20454944000000000000000000 PUSH1 0x44 DUP3 ADD MSTORE PUSH1 0x64 ADD JUMPDEST PUSH1 0x40 MLOAD DUP1 SWAP2 SUB SWAP1 REVERT JUMPDEST PUSH1 0x3 DUP1 SLOAD PUSH4 0xFFFFFFFF NOT AND PUSH4 0xFFFFFFFF SWAP3 SWAP1 SWAP3 AND SWAP2 SWAP1 SWAP2 OR SWAP1 SSTORE JUMP JUMPDEST PUSH32 0x0 PUSH1 0x1 PUSH1 0x1 PUSH1 0xA0 SHL SUB AND CALLER EQ PUSH2 0x60D JUMPI PUSH1 0x40 MLOAD PUSH4 0x91AC5E4F PUSH1 0xE0 SHL DUP2 MSTORE CALLER PUSH1 0x4 DUP3 ADD MSTORE PUSH1 0x24 ADD PUSH2 0x59D JUMP JUMPDEST PUSH1 0x20 DUP8 ADD DUP1 CALLDATALOAD SWAP1 PUSH2 0x627 SWAP1 PUSH2 0x622 SWAP1 DUP11 PUSH2 0x1CE4 JUMP JUMPDEST PUSH2 0x1747 JUMP JUMPDEST EQ PUSH2 0x665 JUMPI PUSH2 0x639 PUSH1 0x20 DUP9 ADD DUP9 PUSH2 0x1CE4 JUMP JUMPDEST PUSH1 0x40 MLOAD PUSH4 0x309AFAF3 PUSH1 0xE2 SHL DUP2 MSTORE PUSH4 0xFFFFFFFF SWAP1 SWAP2 AND PUSH1 0x4 DUP3 ADD MSTORE PUSH1 0x20 DUP9 ADD CALLDATALOAD PUSH1 0x24 DUP3 ADD MSTORE PUSH1 0x44 ADD PUSH2 0x59D JUMP JUMPDEST PUSH2 0x674 DUP8 DUP8 DUP8 DUP8 DUP8 DUP8 DUP8 PUSH2 0x1789 JUMP JUMPDEST POP POP POP POP POP POP POP JUMP JUMPDEST PUSH2 0x685 PUSH2 0x171A JUMP JUMPDEST PUSH2 0x68F DUP3 DUP3 PUSH2 0x17D2 JUMP JUMPDEST POP POP JUMP JUMPDEST PUSH2 0x69B PUSH2 0x1827 JUMP JUMPDEST PUSH1 0x0 DUP6 MLOAD GT PUSH2 0x6DA JUMPI PUSH1 0x40 MLOAD PUSH3 0x461BCD PUSH1 0xE5 SHL DUP2 MSTORE PUSH1 0x20 PUSH1 0x4 DUP3 ADD MSTORE PUSH1 0xB PUSH1 0x24 DUP3 ADD MSTORE PUSH11 0x536B696C6C20656D707479 PUSH1 0xA8 SHL PUSH1 0x44 DUP3 ADD MSTORE PUSH1 0x64 ADD PUSH2 0x59D JUMP JUMPDEST PUSH1 0x0 DUP5 MLOAD GT PUSH2 0x71E JUMPI PUSH1 0x40 MLOAD PUSH3 0x461BCD PUSH1 0xE5 SHL DUP2 MSTORE PUSH1 0x20 PUSH1 0x4 DUP3 ADD MSTORE PUSH1 0x10 PUSH1 0x24 DUP3 ADD MSTORE PUSH16 0x50726F6F66206861736820656D707479 PUSH1 0x80 SHL PUSH1 0x44 DUP3 ADD MSTORE PUSH1 0x64 ADD PUSH2 0x59D JUMP JUMPDEST PUSH1 0x0 DUP4 GT PUSH2 0x75E JUMPI PUSH1 0x40 MLOAD PUSH3 0x461BCD PUSH1 0xE5 SHL DUP2 MSTORE PUSH1 0x20 PUSH1 0x4 DUP3 ADD MSTORE PUSH1 0xD PUSH1 0x24 DUP3 ADD MSTORE PUSH13 0x5553445420666565207A65726F PUSH1 0x98 SHL PUSH1 0x44 DUP3 ADD MSTORE PUSH1 0x64 ADD PUSH2 0x59D JUMP JUMPDEST PUSH1 0x40 MLOAD PUSH4 0x23B872DD PUSH1 0xE0 SHL DUP2 MSTORE CALLER PUSH1 0x4 DUP3 ADD MSTORE ADDRESS PUSH1 0x24 DUP3 ADD MSTORE PUSH1 0x44 DUP2 ADD DUP5 SWAP1 MSTORE PUSH32 0x0 PUSH1 0x1 PUSH1 0x1 PUSH1 0xA0 SHL SUB AND SWAP1 PUSH4 0x23B872DD SWAP1 PUSH1 0x64 ADD PUSH1 0x20 PUSH1 0x40 MLOAD DUP1 DUP4 SUB DUP2 PUSH1 0x0 DUP8 GAS CALL ISZERO DUP1 ISZERO PUSH2 0x7D1 JUMPI RETURNDATASIZE PUSH1 0x0 DUP1 RETURNDATACOPY RETURNDATASIZE PUSH1 0x0 REVERT JUMPDEST POP POP POP POP PUSH1 0x40 MLOAD RETURNDATASIZE PUSH1 0x1F NOT PUSH1 0x1F DUP3 ADD AND DUP3 ADD DUP1 PUSH1 0x40 MSTORE POP DUP2 ADD SWAP1 PUSH2 0x7F5 SWAP2 SWAP1 PUSH2 0x2276 JUMP JUMPDEST PUSH2 0x838 JUMPI PUSH1 0x40 MLOAD PUSH3 0x461BCD PUSH1 0xE5 SHL DUP2 MSTORE PUSH1 0x20 PUSH1 0x4 DUP3 ADD MSTORE PUSH1 0x14 PUSH1 0x24 DUP3 ADD MSTORE PUSH20 0x1554D115081D1C985B9CD9995C8819985A5B1959 PUSH1 0x62 SHL PUSH1 0x44 DUP3 ADD MSTORE PUSH1 0x64 ADD PUSH2 0x59D JUMP JUMPDEST PUSH1 0x0 CALLER DUP7 DUP7 DUP7 PUSH1 0x40 MLOAD PUSH1 0x20 ADD PUSH2 0x851 SWAP5 SWAP4 SWAP3 SWAP2 SWAP1 PUSH2 0x22D9 JUMP JUMPDEST PUSH1 0x40 DUP1 MLOAD PUSH1 0x1F NOT DUP2 DUP5 SUB ADD DUP2 MSTORE PUSH1 0x3 SLOAD PUSH1 0x20 PUSH1 0x1F DUP8 ADD DUP2 SWAP1 DIV DUP2 MUL DUP6 ADD DUP2 ADD SWAP1 SWAP4 MSTORE DUP6 DUP5 MSTORE SWAP1 SWAP4 POP PUSH1 0x0 SWAP3 PUSH2 0x8AC SWAP3 PUSH4 0xFFFFFFFF SWAP1 SWAP3 AND SWAP2 DUP6 SWAP2 SWAP1 DUP9 SWAP1 DUP9 SWAP1 DUP2 SWAP1 DUP5 ADD DUP4 DUP3 DUP1 DUP3 DUP5 CALLDATACOPY PUSH1 0x0 SWAP3 ADD DUP3 SWAP1 MSTORE POP SWAP3 POP PUSH2 0x187E SWAP2 POP POP JUMP JUMPDEST DUP1 MLOAD SWAP1 SWAP2 POP CALLVALUE LT ISZERO PUSH2 0x8F5 JUMPI PUSH1 0x40 MLOAD PUSH3 0x461BCD PUSH1 0xE5 SHL DUP2 MSTORE PUSH1 0x20 PUSH1 0x4 DUP3 ADD MSTORE PUSH1 0x12 PUSH1 0x24 DUP3 ADD MSTORE PUSH18 0x4E61746976652066656520746F6F206C6F77 PUSH1 0x70 SHL PUSH1 0x44 DUP3 ADD MSTORE PUSH1 0x64 ADD PUSH2 0x59D JUMP JUMPDEST PUSH1 0x3 SLOAD PUSH1 0x40 DUP1 MLOAD PUSH1 0x20 PUSH1 0x1F DUP8 ADD DUP2 SWAP1 DIV DUP2 MUL DUP3 ADD DUP2 ADD SWAP1 SWAP3 MSTORE DUP6 DUP2 MSTORE PUSH2 0x956 SWAP3 PUSH4 0xFFFFFFFF AND SWAP2 DUP6 SWAP2 SWAP1 DUP9 SWAP1 DUP9 SWAP1 DUP2 SWAP1 DUP5 ADD DUP4 DUP3 DUP1 DUP3 DUP5 CALLDATACOPY PUSH1 0x0 SWAP3 ADD DUP3 SWAP1 MSTORE POP PUSH1 0x40 DUP1 MLOAD DUP1 DUP3 ADD SWAP1 SWAP2 MSTORE CALLVALUE DUP2 MSTORE PUSH1 0x20 DUP2 ADD SWAP2 SWAP1 SWAP2 MSTORE SWAP3 POP CALLER SWAP2 POP PUSH2 0x1956 SWAP1 POP JUMP JUMPDEST POP PUSH1 0x3 SLOAD PUSH1 0x40 MLOAD CALLER SWAP2 PUSH4 0xFFFFFFFF AND SWAP1 PUSH32 0x3E4B07BA31C4D6796B7895FE18E7487BCDB46A957F3F6FB31852F8134028EA7F SWAP1 PUSH2 0x997 SWAP1 DUP12 SWAP1 DUP12 SWAP1 DUP12 SWAP1 PUSH2 0x2353 JUMP JUMPDEST PUSH1 0x40 MLOAD DUP1 SWAP2 SUB SWAP1 LOG3 POP POP PUSH2 0x9AB PUSH1 0x1 PUSH1 0x2 SSTORE JUMP JUMPDEST POP POP POP POP POP JUMP JUMPDEST PUSH2 0x9BA PUSH2 0x1827 JUMP JUMPDEST PUSH1 0x0 DUP6 MLOAD GT PUSH2 0xA00 JUMPI PUSH1 0x40 MLOAD PUSH3 0x461BCD PUSH1 0xE5 SHL DUP2 MSTORE PUSH1 0x20 PUSH1 0x4 DUP3 ADD MSTORE PUSH1 0x12 PUSH1 0x24 DUP3 ADD MSTORE PUSH18 0x44697370757465206861736820656D707479 PUSH1 0x70 SHL PUSH1 0x44 DUP3 ADD MSTORE PUSH1 0x64 ADD PUSH2 0x59D JUMP JUMPDEST PUSH1 0x0 DUP5 MLOAD GT PUSH2 0xA45 JUMPI PUSH1 0x40 MLOAD PUSH3 0x461BCD PUSH1 0xE5 SHL DUP2 MSTORE PUSH1 0x20 PUSH1 0x4 DUP3 ADD MSTORE PUSH1 0x11 PUSH1 0x24 DUP3 ADD MSTORE PUSH17 0x4F7261636C65206E616D6520656D707479 PUSH1 0x78 SHL PUSH1 0x44 DUP3 ADD MSTORE PUSH1 0x64 ADD PUSH2 0x59D JUMP JUMPDEST PUSH1 0x0 DUP4 GT PUSH2 0xA85 JUMPI PUSH1 0x40 MLOAD PUSH3 0x461BCD PUSH1 0xE5 SHL DUP2 MSTORE PUSH1 0x20 PUSH1 0x4 DUP3 ADD MSTORE PUSH1 0xD PUSH1 0x24 DUP3 ADD MSTORE PUSH13 0x5553445420666565207A65726F PUSH1 0x98 SHL PUSH1 0x44 DUP3 ADD MSTORE PUSH1 0x64 ADD PUSH2 0x59D JUMP JUMPDEST PUSH1 0x0 DUP7 GT PUSH2 0xAD5 JUMPI PUSH1 0x40 MLOAD PUSH3 0x461BCD PUSH1 0xE5 SHL DUP2 MSTORE PUSH1 0x20 PUSH1 0x4 DUP3 ADD MSTORE PUSH1 0x14 PUSH1 0x24 DUP3 ADD MSTORE PUSH32 0x446973707574656420616D6F756E74207A65726F000000000000000000000000 PUSH1 0x44 DUP3 ADD MSTORE PUSH1 0x64 ADD PUSH2 0x59D JUMP JUMPDEST PUSH1 0x40 MLOAD PUSH4 0x23B872DD PUSH1 0xE0 SHL DUP2 MSTORE CALLER PUSH1 0x4 DUP3 ADD MSTORE ADDRESS PUSH1 0x24 DUP3 ADD MSTORE PUSH1 0x44 DUP2 ADD DUP5 SWAP1 MSTORE PUSH32 0x0 PUSH1 0x1 PUSH1 0x1 PUSH1 0xA0 SHL SUB AND SWAP1 PUSH4 0x23B872DD SWAP1 PUSH1 0x64 ADD PUSH1 0x20 PUSH1 0x40 MLOAD DUP1 DUP4 SUB DUP2 PUSH1 0x0 DUP8 GAS CALL ISZERO DUP1 ISZERO PUSH2 0xB48 JUMPI RETURNDATASIZE PUSH1 0x0 DUP1 RETURNDATACOPY RETURNDATASIZE PUSH1 0x0 REVERT JUMPDEST POP POP POP POP PUSH1 0x40 MLOAD RETURNDATASIZE PUSH1 0x1F NOT PUSH1 0x1F DUP3 ADD AND DUP3 ADD DUP1 PUSH1 0x40 MSTORE POP DUP2 ADD SWAP1 PUSH2 0xB6C SWAP2 SWAP1 PUSH2 0x2276 JUMP JUMPDEST PUSH2 0xBAF JUMPI PUSH1 0x40 MLOAD PUSH3 0x461BCD PUSH1 0xE5 SHL DUP2 MSTORE PUSH1 0x20 PUSH1 0x4 DUP3 ADD MSTORE PUSH1 0x14 PUSH1 0x24 DUP3 ADD MSTORE PUSH20 0x1554D115081D1C985B9CD9995C8819985A5B1959 PUSH1 0x62 SHL PUSH1 0x44 DUP3 ADD MSTORE PUSH1 0x64 ADD PUSH2 0x59D JUMP JUMPDEST PUSH1 0x0 CALLER DUP9 DUP9 DUP9 DUP9 DUP9 PUSH1 0x40 MLOAD PUSH1 0x20 ADD PUSH2 0xBCC SWAP7 SWAP6 SWAP5 SWAP4 SWAP3 SWAP2 SWAP1 PUSH2 0x2389 JUMP JUMPDEST PUSH1 0x40 DUP1 MLOAD PUSH1 0x1F NOT DUP2 DUP5 SUB ADD DUP2 MSTORE PUSH1 0x3 SLOAD PUSH1 0x20 PUSH1 0x1F DUP8 ADD DUP2 SWAP1 DIV DUP2 MUL DUP6 ADD DUP2 ADD SWAP1 SWAP4 MSTORE DUP6 DUP5 MSTORE SWAP1 SWAP4 POP PUSH1 0x0 SWAP3 PUSH2 0xC27 SWAP3 PUSH4 0xFFFFFFFF SWAP1 SWAP3 AND SWAP2 DUP6 SWAP2 SWAP1 DUP9 SWAP1 DUP9 SWAP1 DUP2 SWAP1 DUP5 ADD DUP4 DUP3 DUP1 DUP3 DUP5 CALLDATACOPY PUSH1 0x0 SWAP3 ADD DUP3 SWAP1 MSTORE POP SWAP3 POP PUSH2 0x187E SWAP2 POP POP JUMP JUMPDEST DUP1 MLOAD SWAP1 SWAP2 POP CALLVALUE LT ISZERO PUSH2 0xC70 JUMPI PUSH1 0x40 MLOAD PUSH3 0x461BCD PUSH1 0xE5 SHL DUP2 MSTORE PUSH1 0x20 PUSH1 0x4 DUP3 ADD MSTORE PUSH1 0x12 PUSH1 0x24 DUP3 ADD MSTORE PUSH18 0x4E61746976652066656520746F6F206C6F77 PUSH1 0x70 SHL PUSH1 0x44 DUP3 ADD MSTORE PUSH1 0x64 ADD PUSH2 0x59D JUMP JUMPDEST PUSH1 0x3 SLOAD PUSH1 0x40 DUP1 MLOAD PUSH1 0x20 PUSH1 0x1F DUP8 ADD DUP2 SWAP1 DIV DUP2 MUL DUP3 ADD DUP2 ADD SWAP1 SWAP3 MSTORE DUP6 DUP2 MSTORE PUSH2 0xCD1 SWAP3 PUSH4 0xFFFFFFFF AND SWAP2 DUP6 SWAP2 SWAP1 DUP9 SWAP1 DUP9 SWAP1 DUP2 SWAP1 DUP5 ADD DUP4 DUP3 DUP1 DUP3 DUP5 CALLDATACOPY PUSH1 0x0 SWAP3 ADD DUP3 SWAP1 MSTORE POP PUSH1 0x40 DUP1 MLOAD DUP1 DUP3 ADD SWAP1 SWAP2 MSTORE CALLVALUE DUP2 MSTORE PUSH1 0x20 DUP2 ADD SWAP2 SWAP1 SWAP2 MSTORE SWAP3 POP CALLER SWAP2 POP PUSH2 0x1956 SWAP1 POP JUMP JUMPDEST POP PUSH1 0x3 SLOAD PUSH1 0x40 MLOAD CALLER SWAP2 PUSH4 0xFFFFFFFF AND SWAP1 PUSH32 0x1DCD71FB8AAE58EEA5679631D43661566EA0DEE46F7435C2A70F5604FF92BB05 SWAP1 PUSH2 0xD16 SWAP1 DUP14 SWAP1 DUP14 SWAP1 DUP14 SWAP1 DUP14 SWAP1 DUP14 SWAP1 PUSH2 0x2403 JUMP JUMPDEST PUSH1 0x40 MLOAD DUP1 SWAP2 SUB SWAP1 LOG3 POP POP PUSH2 0x674 PUSH1 0x1 PUSH1 0x2 SSTORE JUMP JUMPDEST PUSH2 0xD32 PUSH2 0x171A JUMP JUMPDEST PUSH2 0xD3C PUSH1 0x0 PUSH2 0x1A56 JUMP JUMPDEST JUMP JUMPDEST PUSH2 0xD46 PUSH2 0x1827 JUMP JUMPDEST PUSH1 0x40 DUP1 MLOAD PUSH1 0x60 PUSH1 0x20 DUP3 ADD DUP2 SWAP1 MSTORE PUSH1 0x13 PUSH1 0x80 DUP4 ADD MSTORE PUSH19 0x18DB185A5B511A5CDC1D5D1959105B5BDD5B9D PUSH1 0x6A SHL PUSH1 0xA0 DUP4 ADD MSTORE CALLER SWAP3 DUP3 ADD SWAP3 SWAP1 SWAP3 MSTORE SWAP1 DUP2 ADD DUP5 SWAP1 MSTORE PUSH1 0x0 SWAP1 PUSH1 0xC0 ADD PUSH1 0x40 DUP1 MLOAD PUSH1 0x1F NOT DUP2 DUP5 SUB ADD DUP2 MSTORE PUSH1 0x3 SLOAD PUSH1 0x20 PUSH1 0x1F DUP8 ADD DUP2 SWAP1 DIV DUP2 MUL DUP6 ADD DUP2 ADD SWAP1 SWAP4 MSTORE DUP6 DUP5 MSTORE SWAP1 SWAP4 POP PUSH1 0x0 SWAP3 PUSH2 0xDE5 SWAP3 PUSH4 0xFFFFFFFF SWAP1 SWAP3 AND SWAP2 DUP6 SWAP2 SWAP1 DUP9 SWAP1 DUP9 SWAP1 DUP2 SWAP1 DUP5 ADD DUP4 DUP3 DUP1 DUP3 DUP5 CALLDATACOPY PUSH1 0x0 SWAP3 ADD DUP3 SWAP1 MSTORE POP SWAP3 POP PUSH2 0x187E SWAP2 POP POP JUMP JUMPDEST DUP1 MLOAD SWAP1 SWAP2 POP CALLVALUE LT ISZERO PUSH2 0xE2E JUMPI PUSH1 0x40 MLOAD PUSH3 0x461BCD PUSH1 0xE5 SHL DUP2 MSTORE PUSH1 0x20 PUSH1 0x4 DUP3 ADD MSTORE PUSH1 0x12 PUSH1 0x24 DUP3 ADD MSTORE PUSH18 0x4E61746976652066656520746F6F206C6F77 PUSH1 0x70 SHL PUSH1 0x44 DUP3 ADD MSTORE PUSH1 0x64 ADD PUSH2 0x59D JUMP JUMPDEST PUSH1 0x3 SLOAD PUSH1 0x40 DUP1 MLOAD PUSH1 0x20 PUSH1 0x1F DUP8 ADD DUP2 SWAP1 DIV DUP2 MUL DUP3 ADD DUP2 ADD SWAP1 SWAP3 MSTORE DUP6 DUP2 MSTORE PUSH2 0xE8F SWAP3 PUSH4 0xFFFFFFFF AND SWAP2 DUP6 SWAP2 SWAP1 DUP9 SWAP1 DUP9 SWAP1 DUP2 SWAP1 DUP5 ADD DUP4 DUP3 DUP1 DUP3 DUP5 CALLDATACOPY PUSH1 0x0 SWAP3 ADD DUP3 SWAP1 MSTORE POP PUSH1 0x40 DUP1 MLOAD DUP1 DUP3 ADD SWAP1 SWAP2 MSTORE CALLVALUE DUP2 MSTORE PUSH1 0x20 DUP2 ADD SWAP2 SWAP1 SWAP2 MSTORE SWAP3 POP CALLER SWAP2 POP PUSH2 0x1956 SWAP1 POP JUMP JUMPDEST POP PUSH1 0x3 SLOAD PUSH1 0x40 MLOAD DUP7 DUP2 MSTORE CALLER SWAP2 PUSH4 0xFFFFFFFF AND SWAP1 PUSH32 0x6541184BABE530DF37651624302AEBDD4DD75D4F40C7D1A32DD38168FD3E5011 SWAP1 PUSH1 0x20 ADD PUSH1 0x40 MLOAD DUP1 SWAP2 SUB SWAP1 LOG3 POP POP PUSH2 0xEDB PUSH1 0x1 PUSH1 0x2 SSTORE JUMP JUMPDEST POP POP POP JUMP JUMPDEST PUSH2 0xEE8 PUSH2 0x1827 JUMP JUMPDEST PUSH1 0x0 DUP7 MLOAD GT PUSH2 0xF2A JUMPI PUSH1 0x40 MLOAD PUSH3 0x461BCD PUSH1 0xE5 SHL DUP2 MSTORE PUSH1 0x20 PUSH1 0x4 DUP3 ADD MSTORE PUSH1 0xE PUSH1 0x24 DUP3 ADD MSTORE PUSH14 0x5175657374696F6E20656D707479 PUSH1 0x90 SHL PUSH1 0x44 DUP3 ADD MSTORE PUSH1 0x64 ADD PUSH2 0x59D JUMP JUMPDEST PUSH1 0x0 DUP5 MLOAD GT PUSH2 0xF6F JUMPI PUSH1 0x40 MLOAD PUSH3 0x461BCD PUSH1 0xE5 SHL DUP2 MSTORE PUSH1 0x20 PUSH1 0x4 DUP3 ADD MSTORE PUSH1 0x11 PUSH1 0x24 DUP3 ADD MSTORE PUSH17 0x4F7261636C65206E616D6520656D707479 PUSH1 0x78 SHL PUSH1 0x44 DUP3 ADD MSTORE PUSH1 0x64 ADD PUSH2 0x59D JUMP JUMPDEST PUSH1 0x0 DUP4 GT PUSH2 0xFAF JUMPI PUSH1 0x40 MLOAD PUSH3 0x461BCD PUSH1 0xE5 SHL DUP2 MSTORE PUSH1 0x20 PUSH1 0x4 DUP3 ADD MSTORE PUSH1 0xD PUSH1 0x24 DUP3 ADD MSTORE PUSH13 0x5553445420666565207A65726F PUSH1 0x98 SHL PUSH1 0x44 DUP3 ADD MSTORE PUSH1 0x64 ADD PUSH2 0x59D JUMP JUMPDEST PUSH1 0x40 MLOAD PUSH4 0x23B872DD PUSH1 0xE0 SHL DUP2 MSTORE CALLER PUSH1 0x4 DUP3 ADD MSTORE ADDRESS PUSH1 0x24 DUP3 ADD MSTORE PUSH1 0x44 DUP2 ADD DUP5 SWAP1 MSTORE PUSH32 0x0 PUSH1 0x1 PUSH1 0x1 PUSH1 0xA0 SHL SUB AND SWAP1 PUSH4 0x23B872DD SWAP1 PUSH1 0x64 ADD PUSH1 0x20 PUSH1 0x40 MLOAD DUP1 DUP4 SUB DUP2 PUSH1 0x0 DUP8 GAS CALL ISZERO DUP1 ISZERO PUSH2 0x1022 JUMPI RETURNDATASIZE PUSH1 0x0 DUP1 RETURNDATACOPY RETURNDATASIZE PUSH1 0x0 REVERT JUMPDEST POP POP POP POP PUSH1 0x40 MLOAD RETURNDATASIZE PUSH1 0x1F NOT PUSH1 0x1F DUP3 ADD AND DUP3 ADD DUP1 PUSH1 0x40 MSTORE POP DUP2 ADD SWAP1 PUSH2 0x1046 SWAP2 SWAP1 PUSH2 0x2276 JUMP JUMPDEST PUSH2 0x1089 JUMPI PUSH1 0x40 MLOAD PUSH3 0x461BCD PUSH1 0xE5 SHL DUP2 MSTORE PUSH1 0x20 PUSH1 0x4 DUP3 ADD MSTORE PUSH1 0x14 PUSH1 0x24 DUP3 ADD MSTORE PUSH20 0x1554D115081D1C985B9CD9995C8819985A5B1959 PUSH1 0x62 SHL PUSH1 0x44 DUP3 ADD MSTORE PUSH1 0x64 ADD PUSH2 0x59D JUMP JUMPDEST PUSH1 0x0 CALLER DUP8 DUP8 DUP8 DUP8 PUSH1 0x40 MLOAD PUSH1 0x20 ADD PUSH2 0x10A4 SWAP6 SWAP5 SWAP4 SWAP3 SWAP2 SWAP1 PUSH2 0x2447 JUMP JUMPDEST PUSH1 0x40 DUP1 MLOAD PUSH1 0x1F NOT DUP2 DUP5 SUB ADD DUP2 MSTORE PUSH1 0x3 SLOAD PUSH1 0x20 PUSH1 0x1F DUP8 ADD DUP2 SWAP1 DIV DUP2 MUL DUP6 ADD DUP2 ADD SWAP1 SWAP4 MSTORE DUP6 DUP5 MSTORE SWAP1 SWAP4 POP PUSH1 0x0 SWAP3 PUSH2 0x10FF SWAP3 PUSH4 0xFFFFFFFF SWAP1 SWAP3 AND SWAP2 DUP6 SWAP2 SWAP1 DUP9 SWAP1 DUP9 SWAP1 DUP2 SWAP1 DUP5 ADD DUP4 DUP3 DUP1 DUP3 DUP5 CALLDATACOPY PUSH1 0x0 SWAP3 ADD DUP3 SWAP1 MSTORE POP SWAP3 POP PUSH2 0x187E SWAP2 POP POP JUMP JUMPDEST DUP1 MLOAD SWAP1 SWAP2 POP CALLVALUE LT ISZERO PUSH2 0x1148 JUMPI PUSH1 0x40 MLOAD PUSH3 0x461BCD PUSH1 0xE5 SHL DUP2 MSTORE PUSH1 0x20 PUSH1 0x4 DUP3 ADD MSTORE PUSH1 0x12 PUSH1 0x24 DUP3 ADD MSTORE PUSH18 0x4E61746976652066656520746F6F206C6F77 PUSH1 0x70 SHL PUSH1 0x44 DUP3 ADD MSTORE PUSH1 0x64 ADD PUSH2 0x59D JUMP JUMPDEST PUSH1 0x3 SLOAD PUSH1 0x40 DUP1 MLOAD PUSH1 0x20 PUSH1 0x1F DUP8 ADD DUP2 SWAP1 DIV DUP2 MUL DUP3 ADD DUP2 ADD SWAP1 SWAP3 MSTORE DUP6 DUP2 MSTORE PUSH2 0x11A9 SWAP3 PUSH4 0xFFFFFFFF AND SWAP2 DUP6 SWAP2 SWAP1 DUP9 SWAP1 DUP9 SWAP1 DUP2 SWAP1 DUP5 ADD DUP4 DUP3 DUP1 DUP3 DUP5 CALLDATACOPY PUSH1 0x0 SWAP3 ADD DUP3 SWAP1 MSTORE POP PUSH1 0x40 DUP1 MLOAD DUP1 DUP3 ADD SWAP1 SWAP2 MSTORE CALLVALUE DUP2 MSTORE PUSH1 0x20 DUP2 ADD SWAP2 SWAP1 SWAP2 MSTORE SWAP3 POP CALLER SWAP2 POP PUSH2 0x1956 SWAP1 POP JUMP JUMPDEST POP PUSH1 0x3 SLOAD PUSH1 0x40 MLOAD CALLER SWAP2 PUSH4 0xFFFFFFFF AND SWAP1 PUSH32 0xD55884CBCC73464244E119BB688BC3CAF4FC0DCFBD16467D8E3BC4D112BC8AE0 SWAP1 PUSH2 0x11EC SWAP1 DUP13 SWAP1 DUP13 SWAP1 DUP13 SWAP1 DUP13 SWAP1 PUSH2 0x24C4 JUMP JUMPDEST PUSH1 0x40 MLOAD DUP1 SWAP2 SUB SWAP1 LOG3 POP POP PUSH2 0x1200 PUSH1 0x1 PUSH1 0x2 SSTORE JUMP JUMPDEST POP POP POP POP POP POP JUMP JUMPDEST PUSH1 0x40 DUP1 MLOAD DUP1 DUP3 ADD SWAP1 SWAP2 MSTORE PUSH1 0x0 DUP1 DUP3 MSTORE PUSH1 0x20 DUP3 ADD MSTORE PUSH1 0x0 CALLER DUP7 DUP7 PUSH1 0x40 MLOAD PUSH1 0x20 ADD PUSH2 0x1233 SWAP4 SWAP3 SWAP2 SWAP1 PUSH2 0x250F JUMP JUMPDEST PUSH1 0x40 DUP1 MLOAD PUSH1 0x1F NOT DUP2 DUP5 SUB ADD DUP2 MSTORE PUSH1 0x3 SLOAD PUSH1 0x20 PUSH1 0x1F DUP9 ADD DUP2 SWAP1 DIV DUP2 MUL DUP6 ADD DUP2 ADD SWAP1 SWAP4 MSTORE DUP7 DUP5 MSTORE SWAP1 SWAP4 POP PUSH2 0x128B SWAP3 PUSH4 0xFFFFFFFF SWAP1 SWAP2 AND SWAP2 DUP5 SWAP2 SWAP1 DUP9 SWAP1 DUP9 SWAP1 DUP2 SWAP1 DUP5 ADD DUP4 DUP3 DUP1 DUP3 DUP5 CALLDATACOPY PUSH1 0x0 SWAP3 ADD DUP3 SWAP1 MSTORE POP SWAP3 POP PUSH2 0x187E SWAP2 POP POP JUMP JUMPDEST SWAP7 SWAP6 POP POP POP POP POP POP JUMP JUMPDEST PUSH1 0x40 DUP1 MLOAD DUP1 DUP3 ADD SWAP1 SWAP2 MSTORE PUSH1 0x0 DUP1 DUP3 MSTORE PUSH1 0x20 DUP3 ADD MSTORE PUSH1 0x0 CALLER DUP8 DUP8 DUP8 PUSH1 0x40 MLOAD PUSH1 0x20 ADD PUSH2 0x12C2 SWAP5 SWAP4 SWAP3 SWAP2 SWAP1 PUSH2 0x22D9 JUMP JUMPDEST PUSH1 0x40 DUP1 MLOAD PUSH1 0x1F NOT DUP2 DUP5 SUB ADD DUP2 MSTORE PUSH1 0x3 SLOAD PUSH1 0x20 PUSH1 0x1F DUP9 ADD DUP2 SWAP1 DIV DUP2 MUL DUP6 ADD DUP2 ADD SWAP1 SWAP4 MSTORE DUP7 DUP5 MSTORE SWAP1 SWAP4 POP PUSH2 0x131A SWAP3 PUSH4 0xFFFFFFFF SWAP1 SWAP2 AND SWAP2 DUP5 SWAP2 SWAP1 DUP9 SWAP1 DUP9 SWAP1 DUP2 SWAP1 DUP5 ADD DUP4 DUP3 DUP1 DUP3 DUP5 CALLDATACOPY PUSH1 0x0 SWAP3 ADD DUP3 SWAP1 MSTORE POP SWAP3 POP PUSH2 0x187E SWAP2 POP POP JUMP JUMPDEST SWAP8 SWAP7 POP POP POP POP POP POP POP JUMP JUMPDEST PUSH2 0x132D PUSH2 0x171A JUMP JUMPDEST PUSH1 0x40 MLOAD PUSH4 0xA9059CBB PUSH1 0xE0 SHL DUP2 MSTORE PUSH1 0x1 PUSH1 0x1 PUSH1 0xA0 SHL SUB DUP4 DUP2 AND PUSH1 0x4 DUP4 ADD MSTORE PUSH1 0x24 DUP3 ADD DUP4 SWAP1 MSTORE PUSH32 0x0 AND SWAP1 PUSH4 0xA9059CBB SWAP1 PUSH1 0x44 ADD PUSH1 0x20 PUSH1 0x40 MLOAD DUP1 DUP4 SUB DUP2 PUSH1 0x0 DUP8 GAS CALL ISZERO DUP1 ISZERO PUSH2 0x139C JUMPI RETURNDATASIZE PUSH1 0x0 DUP1 RETURNDATACOPY RETURNDATASIZE PUSH1 0x0 REVERT JUMPDEST POP POP POP POP PUSH1 0x40 MLOAD RETURNDATASIZE PUSH1 0x1F NOT PUSH1 0x1F DUP3 ADD AND DUP3 ADD DUP1 PUSH1 0x40 MSTORE POP DUP2 ADD SWAP1 PUSH2 0x13C0 SWAP2 SWAP1 PUSH2 0x2276 JUMP JUMPDEST PUSH2 0x13FE JUMPI PUSH1 0x40 MLOAD PUSH3 0x461BCD PUSH1 0xE5 SHL DUP2 MSTORE PUSH1 0x20 PUSH1 0x4 DUP3 ADD MSTORE PUSH1 0xF PUSH1 0x24 DUP3 ADD MSTORE PUSH15 0x15DA5D1A191C985DC819985A5B1959 PUSH1 0x8A SHL PUSH1 0x44 DUP3 ADD MSTORE PUSH1 0x64 ADD PUSH2 0x59D JUMP JUMPDEST DUP2 PUSH1 0x1 PUSH1 0x1 PUSH1 0xA0 SHL SUB AND PUSH32 0xC0819C13BE868895EB93E40EACEB96DE976442FA1D404E5C55F14BB65A8C489A DUP3 PUSH1 0x40 MLOAD PUSH2 0x1439 SWAP2 DUP2 MSTORE PUSH1 0x20 ADD SWAP1 JUMP JUMPDEST PUSH1 0x40 MLOAD DUP1 SWAP2 SUB SWAP1 LOG2 POP POP JUMP JUMPDEST PUSH1 0x40 DUP1 MLOAD DUP1 DUP3 ADD SWAP1 SWAP2 MSTORE PUSH1 0x0 DUP1 DUP3 MSTORE PUSH1 0x20 DUP3 ADD MSTORE PUSH1 0x0 CALLER DUP10 DUP10 DUP10 DUP10 DUP10 PUSH1 0x40 MLOAD PUSH1 0x20 ADD PUSH2 0x1476 SWAP7 SWAP6 SWAP5 SWAP4 SWAP3 SWAP2 SWAP1 PUSH2 0x2389 JUMP JUMPDEST PUSH1 0x40 DUP1 MLOAD PUSH1 0x1F NOT DUP2 DUP5 SUB ADD DUP2 MSTORE PUSH1 0x3 SLOAD PUSH1 0x20 PUSH1 0x1F DUP9 ADD DUP2 SWAP1 DIV DUP2 MUL DUP6 ADD DUP2 ADD SWAP1 SWAP4 MSTORE DUP7 DUP5 MSTORE SWAP1 SWAP4 POP PUSH2 0x14CE SWAP3 PUSH4 0xFFFFFFFF SWAP1 SWAP2 AND SWAP2 DUP5 SWAP2 SWAP1 DUP9 SWAP1 DUP9 SWAP1 DUP2 SWAP1 DUP5 ADD DUP4 DUP3 DUP1 DUP3 DUP5 CALLDATACOPY PUSH1 0x0 SWAP3 ADD DUP3 SWAP1 MSTORE POP SWAP3 POP PUSH2 0x187E SWAP2 POP POP JUMP JUMPDEST SWAP10 SWAP9 POP POP POP POP POP POP POP POP POP JUMP JUMPDEST PUSH2 0x14E3 PUSH2 0x171A JUMP JUMPDEST PUSH1 0x40 MLOAD PUSH4 0xCA5EB5E1 PUSH1 0xE0 SHL DUP2 MSTORE PUSH1 0x1 PUSH1 0x1 PUSH1 0xA0 SHL SUB DUP3 DUP2 AND PUSH1 0x4 DUP4 ADD MSTORE PUSH32 0x0 AND SWAP1 PUSH4 0xCA5EB5E1 SWAP1 PUSH1 0x24 ADD PUSH1 0x0 PUSH1 0x40 MLOAD DUP1 DUP4 SUB DUP2 PUSH1 0x0 DUP8 DUP1 EXTCODESIZE ISZERO DUP1 ISZERO PUSH2 0x1546 JUMPI PUSH1 0x0 DUP1 REVERT JUMPDEST POP GAS CALL ISZERO DUP1 ISZERO PUSH2 0x9AB JUMPI RETURNDATASIZE PUSH1 0x0 DUP1 RETURNDATACOPY RETURNDATASIZE PUSH1 0x0 REVERT JUMPDEST PUSH1 0x40 DUP1 MLOAD DUP1 DUP3 ADD SWAP1 SWAP2 MSTORE PUSH1 0x0 DUP1 DUP3 MSTORE PUSH1 0x20 DUP3 ADD MSTORE PUSH1 0x0 CALLER DUP9 DUP9 DUP9 DUP9 PUSH1 0x40 MLOAD PUSH1 0x20 ADD PUSH2 0x1589 SWAP6 SWAP5 SWAP4 SWAP3 SWAP2 SWAP1 PUSH2 0x2447 JUMP JUMPDEST PUSH1 0x40 DUP1 MLOAD PUSH1 0x1F NOT DUP2 DUP5 SUB ADD DUP2 MSTORE PUSH1 0x3 SLOAD PUSH1 0x20 PUSH1 0x1F DUP9 ADD DUP2 SWAP1 DIV DUP2 MUL DUP6 ADD DUP2 ADD SWAP1 SWAP4 MSTORE DUP7 DUP5 MSTORE SWAP1 SWAP4 POP PUSH2 0x15E1 SWAP3 PUSH4 0xFFFFFFFF SWAP1 SWAP2 AND SWAP2 DUP5 SWAP2 SWAP1 DUP9 SWAP1 DUP9 SWAP1 DUP2 SWAP1 DUP5 ADD DUP4 DUP3 DUP1 DUP3 DUP5 CALLDATACOPY PUSH1 0x0 SWAP3 ADD DUP3 SWAP1 MSTORE POP SWAP3 POP PUSH2 0x187E SWAP2 POP POP JUMP JUMPDEST SWAP9 SWAP8 POP POP POP POP POP POP POP POP JUMP JUMPDEST PUSH1 0x40 DUP1 MLOAD DUP1 DUP3 ADD SWAP1 SWAP2 MSTORE PUSH1 0x0 DUP1 DUP3 MSTORE PUSH1 0x20 DUP3 ADD MSTORE PUSH1 0x40 DUP1 MLOAD PUSH1 0x60 PUSH1 0x20 DUP3 ADD DUP2 SWAP1 MSTORE PUSH1 0x13 PUSH1 0x80 DUP4 ADD MSTORE PUSH19 0x18DB185A5B511A5CDC1D5D1959105B5BDD5B9D PUSH1 0x6A SHL PUSH1 0xA0 DUP4 ADD MSTORE CALLER SWAP3 DUP3 ADD SWAP3 SWAP1 SWAP3 MSTORE SWAP1 DUP2 ADD DUP6 SWAP1 MSTORE PUSH1 0x0 SWAP1 PUSH1 0xC0 ADD PUSH1 0x40 DUP1 MLOAD PUSH1 0x1F NOT DUP2 DUP5 SUB ADD DUP2 MSTORE PUSH1 0x3 SLOAD PUSH1 0x20 PUSH1 0x1F DUP9 ADD DUP2 SWAP1 DIV DUP2 MUL DUP6 ADD DUP2 ADD SWAP1 SWAP4 MSTORE DUP7 DUP5 MSTORE SWAP1 SWAP4 POP PUSH2 0x169D SWAP3 PUSH4 0xFFFFFFFF SWAP1 SWAP2 AND SWAP2 DUP5 SWAP2 SWAP1 DUP9 SWAP1 DUP9 SWAP1 DUP2 SWAP1 DUP5 ADD DUP4 DUP3 DUP1 DUP3 DUP5 CALLDATACOPY PUSH1 0x0 SWAP3 ADD DUP3 SWAP1 MSTORE POP SWAP3 POP PUSH2 0x187E SWAP2 POP POP JUMP JUMPDEST SWAP6 SWAP5 POP POP POP POP POP JUMP JUMPDEST PUSH2 0x16AE PUSH2 0x171A JUMP JUMPDEST PUSH1 0x1 PUSH1 0x1 PUSH1 0xA0 SHL SUB DUP2 AND PUSH2 0x16D8 JUMPI PUSH1 0x40 MLOAD PUSH4 0x1E4FBDF7 PUSH1 0xE0 SHL DUP2 MSTORE PUSH1 0x0 PUSH1 0x4 DUP3 ADD MSTORE PUSH1 0x24 ADD PUSH2 0x59D JUMP JUMPDEST PUSH2 0x16E1 DUP2 PUSH2 0x1A56 JUMP JUMPDEST POP JUMP JUMPDEST PUSH1 0x0 PUSH1 0x20 DUP3 ADD DUP1 CALLDATALOAD SWAP1 PUSH1 0x1 SWAP1 DUP4 SWAP1 PUSH2 0x16FC SWAP1 DUP7 PUSH2 0x1CE4 JUMP JUMPDEST PUSH4 0xFFFFFFFF AND DUP2 MSTORE PUSH1 0x20 DUP2 ADD SWAP2 SWAP1 SWAP2 MSTORE PUSH1 0x40 ADD PUSH1 0x0 KECCAK256 SLOAD EQ SWAP3 SWAP2 POP POP JUMP JUMPDEST PUSH1 0x0 SLOAD PUSH1 0x1 PUSH1 0x1 PUSH1 0xA0 SHL SUB AND CALLER EQ PUSH2 0xD3C JUMPI PUSH1 0x40 MLOAD PUSH4 0x118CDAA7 PUSH1 0xE0 SHL DUP2 MSTORE CALLER PUSH1 0x4 DUP3 ADD MSTORE PUSH1 0x24 ADD PUSH2 0x59D JUMP JUMPDEST PUSH4 0xFFFFFFFF DUP2 AND PUSH1 0x0 SWAP1 DUP2 MSTORE PUSH1 0x1 PUSH1 0x20 MSTORE PUSH1 0x40 DUP2 KECCAK256 SLOAD DUP1 PUSH2 0x1783 JUMPI PUSH1 0x40 MLOAD PUSH4 0xF6FF4FB7 PUSH1 0xE0 SHL DUP2 MSTORE PUSH4 0xFFFFFFFF DUP5 AND PUSH1 0x4 DUP3 ADD MSTORE PUSH1 0x24 ADD PUSH2 0x59D JUMP JUMPDEST SWAP3 SWAP2 POP POP JUMP JUMPDEST PUSH1 0x0 DUP1 DUP1 DUP1 PUSH2 0x179A DUP9 DUP11 ADD DUP11 PUSH2 0x255B JUMP JUMPDEST POP POP PUSH1 0x40 DUP1 MLOAD DUP1 DUP3 ADD SWAP1 SWAP2 MSTORE PUSH1 0xF DUP2 MSTORE PUSH15 0x191A5CDC1D5D1954995CDBDB1D9959 PUSH1 0x8A SHL PUSH1 0x20 SWAP1 SWAP2 ADD MSTORE POP POP POP POP POP POP POP POP POP POP POP POP POP JUMP JUMPDEST PUSH4 0xFFFFFFFF DUP3 AND PUSH1 0x0 DUP2 DUP2 MSTORE PUSH1 0x1 PUSH1 0x20 SWAP1 DUP2 MSTORE PUSH1 0x40 SWAP2 DUP3 SWAP1 KECCAK256 DUP5 SWAP1 SSTORE DUP2 MLOAD SWAP3 DUP4 MSTORE DUP3 ADD DUP4 SWAP1 MSTORE PUSH32 0x238399D427B947898EDB290F5FF0F9109849B1C3BA196A42E35F00C50A54B98B SWAP2 ADD PUSH1 0x40 MLOAD DUP1 SWAP2 SUB SWAP1 LOG1 POP POP JUMP JUMPDEST PUSH1 0x2 DUP1 SLOAD SUB PUSH2 0x1878 JUMPI PUSH1 0x40 MLOAD PUSH3 0x461BCD PUSH1 0xE5 SHL DUP2 MSTORE PUSH1 0x20 PUSH1 0x4 DUP3 ADD MSTORE PUSH1 0x1F PUSH1 0x24 DUP3 ADD MSTORE PUSH32 0x5265656E7472616E637947756172643A207265656E7472616E742063616C6C00 PUSH1 0x44 DUP3 ADD MSTORE PUSH1 0x64 ADD PUSH2 0x59D JUMP JUMPDEST PUSH1 0x2 DUP1 SSTORE JUMP JUMPDEST PUSH1 0x40 DUP1 MLOAD DUP1 DUP3 ADD SWAP1 SWAP2 MSTORE PUSH1 0x0 DUP1 DUP3 MSTORE PUSH1 0x20 DUP3 ADD MSTORE PUSH32 0x0 PUSH1 0x1 PUSH1 0x1 PUSH1 0xA0 SHL SUB AND PUSH4 0xDDC28C58 PUSH1 0x40 MLOAD DUP1 PUSH1 0xA0 ADD PUSH1 0x40 MSTORE DUP1 DUP9 PUSH4 0xFFFFFFFF AND DUP2 MSTORE PUSH1 0x20 ADD PUSH2 0x18E1 DUP10 PUSH2 0x1747 JUMP JUMPDEST DUP2 MSTORE PUSH1 0x20 ADD DUP8 DUP2 MSTORE PUSH1 0x20 ADD DUP7 DUP2 MSTORE PUSH1 0x20 ADD DUP6 ISZERO ISZERO DUP2 MSTORE POP ADDRESS PUSH1 0x40 MLOAD DUP4 PUSH4 0xFFFFFFFF AND PUSH1 0xE0 SHL DUP2 MSTORE PUSH1 0x4 ADD PUSH2 0x1916 SWAP3 SWAP2 SWAP1 PUSH2 0x25BB JUMP JUMPDEST PUSH1 0x40 DUP1 MLOAD DUP1 DUP4 SUB DUP2 DUP7 GAS STATICCALL ISZERO DUP1 ISZERO PUSH2 0x1932 JUMPI RETURNDATASIZE PUSH1 0x0 DUP1 RETURNDATACOPY RETURNDATASIZE PUSH1 0x0 REVERT JUMPDEST POP POP POP POP PUSH1 0x40 MLOAD RETURNDATASIZE PUSH1 0x1F NOT PUSH1 0x1F DUP3 ADD AND DUP3 ADD DUP1 PUSH1 0x40 MSTORE POP DUP2 ADD SWAP1 PUSH2 0x169D SWAP2 SWAP1 PUSH2 0x2682 JUMP JUMPDEST PUSH2 0x195E PUSH2 0x1C84 JUMP JUMPDEST PUSH1 0x0 PUSH2 0x196D DUP5 PUSH1 0x0 ADD MLOAD PUSH2 0x1AB3 JUMP JUMPDEST PUSH1 0x20 DUP6 ADD MLOAD SWAP1 SWAP2 POP ISZERO PUSH2 0x1987 JUMPI PUSH2 0x1987 DUP5 PUSH1 0x20 ADD MLOAD PUSH2 0x1ADB JUMP JUMPDEST PUSH32 0x0 PUSH1 0x1 PUSH1 0x1 PUSH1 0xA0 SHL SUB AND PUSH4 0x2637A450 DUP3 PUSH1 0x40 MLOAD DUP1 PUSH1 0xA0 ADD PUSH1 0x40 MSTORE DUP1 DUP12 PUSH4 0xFFFFFFFF AND DUP2 MSTORE PUSH1 0x20 ADD PUSH2 0x19D7 DUP13 PUSH2 0x1747 JUMP JUMPDEST DUP2 MSTORE PUSH1 0x20 ADD DUP11 DUP2 MSTORE PUSH1 0x20 ADD DUP10 DUP2 MSTORE PUSH1 0x20 ADD PUSH1 0x0 DUP10 PUSH1 0x20 ADD MLOAD GT ISZERO ISZERO DUP2 MSTORE POP DUP7 PUSH1 0x40 MLOAD DUP5 PUSH4 0xFFFFFFFF AND PUSH1 0xE0 SHL DUP2 MSTORE PUSH1 0x4 ADD PUSH2 0x1A13 SWAP3 SWAP2 SWAP1 PUSH2 0x25BB JUMP JUMPDEST PUSH1 0x80 PUSH1 0x40 MLOAD DUP1 DUP4 SUB DUP2 DUP6 DUP9 GAS CALL ISZERO DUP1 ISZERO PUSH2 0x1A31 JUMPI RETURNDATASIZE PUSH1 0x0 DUP1 RETURNDATACOPY RETURNDATASIZE PUSH1 0x0 REVERT JUMPDEST POP POP POP POP POP PUSH1 0x40 MLOAD RETURNDATASIZE PUSH1 0x1F NOT PUSH1 0x1F DUP3 ADD AND DUP3 ADD DUP1 PUSH1 0x40 MSTORE POP DUP2 ADD SWAP1 PUSH2 0x131A SWAP2 SWAP1 PUSH2 0x269E JUMP JUMPDEST PUSH1 0x0 DUP1 SLOAD PUSH1 0x1 PUSH1 0x1 PUSH1 0xA0 SHL SUB DUP4 DUP2 AND PUSH20 0xFFFFFFFFFFFFFFFFFFFFFFFFFFFFFFFFFFFFFFFF NOT DUP4 AND DUP2 OR DUP5 SSTORE PUSH1 0x40 MLOAD SWAP2 SWAP1 SWAP3 AND SWAP3 DUP4 SWAP2 PUSH32 0x8BE0079C531659141344CD1FD0A4F28419497F9722A3DAAFE3B4186F6B6457E0 SWAP2 SWAP1 LOG3 POP POP JUMP JUMPDEST PUSH1 0x0 DUP2 CALLVALUE EQ PUSH2 0x1AD7 JUMPI PUSH1 0x40 MLOAD PUSH4 0x4FB8209 PUSH1 0xE5 SHL DUP2 MSTORE CALLVALUE PUSH1 0x4 DUP3 ADD MSTORE PUSH1 0x24 ADD PUSH2 0x59D JUMP JUMPDEST POP SWAP1 JUMP JUMPDEST PUSH1 0x0 PUSH32 0x0 PUSH1 0x1 PUSH1 0x1 PUSH1 0xA0 SHL SUB AND PUSH4 0xE4FE1D94 PUSH1 0x40 MLOAD DUP2 PUSH4 0xFFFFFFFF AND PUSH1 0xE0 SHL DUP2 MSTORE PUSH1 0x4 ADD PUSH1 0x20 PUSH1 0x40 MLOAD DUP1 DUP4 SUB DUP2 DUP7 GAS STATICCALL ISZERO DUP1 ISZERO PUSH2 0x1B3B JUMPI RETURNDATASIZE PUSH1 0x0 DUP1 RETURNDATACOPY RETURNDATASIZE PUSH1 0x0 REVERT JUMPDEST POP POP POP POP PUSH1 0x40 MLOAD RETURNDATASIZE PUSH1 0x1F NOT PUSH1 0x1F DUP3 ADD AND DUP3 ADD DUP1 PUSH1 0x40 MSTORE POP DUP2 ADD SWAP1 PUSH2 0x1B5F SWAP2 SWAP1 PUSH2 0x2713 JUMP JUMPDEST SWAP1 POP PUSH1 0x1 PUSH1 0x1 PUSH1 0xA0 SHL SUB DUP2 AND PUSH2 0x1B88 JUMPI PUSH1 0x40 MLOAD PUSH4 0x29B99A95 PUSH1 0xE1 SHL DUP2 MSTORE PUSH1 0x4 ADD PUSH1 0x40 MLOAD DUP1 SWAP2 SUB SWAP1 REVERT JUMPDEST PUSH1 0x40 DUP1 MLOAD CALLER PUSH1 0x24 DUP3 ADD DUP2 SWAP1 MSTORE PUSH32 0x0 PUSH1 0x1 PUSH1 0x1 PUSH1 0xA0 SHL SUB DUP2 DUP2 AND PUSH1 0x44 DUP6 ADD MSTORE PUSH1 0x64 DUP1 DUP6 ADD DUP9 SWAP1 MSTORE DUP6 MLOAD DUP1 DUP7 SUB SWAP1 SWAP2 ADD DUP2 MSTORE PUSH1 0x84 SWAP1 SWAP5 ADD SWAP1 SWAP5 MSTORE PUSH1 0x20 DUP4 ADD DUP1 MLOAD PUSH1 0x1 PUSH1 0x1 PUSH1 0xE0 SHL SUB AND PUSH4 0x23B872DD PUSH1 0xE0 SHL OR SWAP1 MSTORE PUSH2 0x68F SWAP4 DUP6 AND SWAP3 DUP7 SWAP1 PUSH2 0x1C0D SWAP1 DUP6 SWAP1 PUSH2 0x1C13 JUMP JUMPDEST POP POP POP POP JUMP JUMPDEST PUSH1 0x0 DUP1 PUSH1 0x20 PUSH1 0x0 DUP5 MLOAD PUSH1 0x20 DUP7 ADD PUSH1 0x0 DUP9 GAS CALL DUP1 PUSH2 0x1C36 JUMPI PUSH1 0x40 MLOAD RETURNDATASIZE PUSH1 0x0 DUP3 RETURNDATACOPY RETURNDATASIZE DUP2 REVERT JUMPDEST POP POP PUSH1 0x0 MLOAD RETURNDATASIZE SWAP2 POP DUP2 ISZERO PUSH2 0x1C4E JUMPI DUP1 PUSH1 0x1 EQ ISZERO PUSH2 0x1C5B JUMP JUMPDEST PUSH1 0x1 PUSH1 0x1 PUSH1 0xA0 SHL SUB DUP5 AND EXTCODESIZE ISZERO JUMPDEST ISZERO PUSH2 0x1C0D JUMPI PUSH1 0x40 MLOAD PUSH4 0x5274AFE7 PUSH1 0xE0 SHL DUP2 MSTORE PUSH1 0x1 PUSH1 0x1 PUSH1 0xA0 SHL SUB DUP6 AND PUSH1 0x4 DUP3 ADD MSTORE PUSH1 0x24 ADD PUSH2 0x59D JUMP JUMPDEST PUSH1 0x40 MLOAD DUP1 PUSH1 0x60 ADD PUSH1 0x40 MSTORE DUP1 PUSH1 0x0 DUP1 NOT AND DUP2 MSTORE PUSH1 0x20 ADD PUSH1 0x0 PUSH1 0x1 PUSH1 0x1 PUSH1 0x40 SHL SUB AND DUP2 MSTORE PUSH1 0x20 ADD PUSH2 0x1CC6 PUSH1 0x40 MLOAD DUP1 PUSH1 0x40 ADD PUSH1 0x40 MSTORE DUP1 PUSH1 0x0 DUP2 MSTORE PUSH1 0x20 ADD PUSH1 0x0 DUP2 MSTORE POP SWAP1 JUMP JUMPDEST SWAP1 MSTORE SWAP1 JUMP JUMPDEST DUP1 CALLDATALOAD PUSH4 0xFFFFFFFF DUP2 AND DUP2 EQ PUSH2 0x1CDF JUMPI PUSH1 0x0 DUP1 REVERT JUMPDEST SWAP2 SWAP1 POP JUMP JUMPDEST PUSH1 0x0 PUSH1 0x20 DUP3 DUP5 SUB SLT ISZERO PUSH2 0x1CF6 JUMPI PUSH1 0x0 DUP1 REVERT JUMPDEST PUSH2 0x1CFF DUP3 PUSH2 0x1CCB JUMP JUMPDEST SWAP4 SWAP3 POP POP POP JUMP JUMPDEST PUSH1 0x0 PUSH1 0x60 DUP3 DUP5 SUB SLT ISZERO PUSH2 0x1D18 JUMPI PUSH1 0x0 DUP1 REVERT JUMPDEST POP SWAP2 SWAP1 POP JUMP JUMPDEST PUSH1 0x0 DUP1 DUP4 PUSH1 0x1F DUP5 ADD SLT PUSH2 0x1D30 JUMPI PUSH1 0x0 DUP1 REVERT JUMPDEST POP DUP2 CALLDATALOAD PUSH1 0x1 PUSH1 0x1 PUSH1 0x40 SHL SUB DUP2 GT ISZERO PUSH2 0x1D47 JUMPI PUSH1 0x0 DUP1 REVERT JUMPDEST PUSH1 0x20 DUP4 ADD SWAP2 POP DUP4 PUSH1 0x20 DUP3 DUP6 ADD ADD GT ISZERO PUSH2 0x1D5F JUMPI PUSH1 0x0 DUP1 REVERT JUMPDEST SWAP3 POP SWAP3 SWAP1 POP JUMP JUMPDEST PUSH1 0x1 PUSH1 0x1 PUSH1 0xA0 SHL SUB DUP2 AND DUP2 EQ PUSH2 0x16E1 JUMPI PUSH1 0x0 DUP1 REVERT JUMPDEST PUSH1 0x0 DUP1 PUSH1 0x0 DUP1 PUSH1 0x0 DUP1 PUSH1 0x0 PUSH1 0xE0 DUP9 DUP11 SUB SLT ISZERO PUSH2 0x1D96 JUMPI PUSH1 0x0 DUP1 REVERT JUMPDEST PUSH2 0x1DA0 DUP10 DUP10 PUSH2 0x1D06 JUMP JUMPDEST SWAP7 POP PUSH1 0x60 DUP9 ADD CALLDATALOAD SWAP6 POP PUSH1 0x80 DUP9 ADD CALLDATALOAD PUSH1 0x1 PUSH1 0x1 PUSH1 0x40 SHL SUB DUP2 GT ISZERO PUSH2 0x1DC2 JUMPI PUSH1 0x0 DUP1 REVERT JUMPDEST PUSH2 0x1DCE DUP11 DUP3 DUP12 ADD PUSH2 0x1D1E JUMP JUMPDEST SWAP1 SWAP7 POP SWAP5 POP POP PUSH1 0xA0 DUP9 ADD CALLDATALOAD PUSH2 0x1DE2 DUP2 PUSH2 0x1D66 JUMP JUMPDEST SWAP3 POP PUSH1 0xC0 DUP9 ADD CALLDATALOAD PUSH1 0x1 PUSH1 0x1 PUSH1 0x40 SHL SUB DUP2 GT ISZERO PUSH2 0x1DFD JUMPI PUSH1 0x0 DUP1 REVERT JUMPDEST PUSH2 0x1E09 DUP11 DUP3 DUP12 ADD PUSH2 0x1D1E JUMP JUMPDEST SWAP9 SWAP12 SWAP8 SWAP11 POP SWAP6 SWAP9 POP SWAP4 SWAP7 SWAP3 SWAP6 SWAP3 SWAP4 POP POP POP JUMP JUMPDEST PUSH1 0x0 DUP1 PUSH1 0x40 DUP4 DUP6 SUB SLT ISZERO PUSH2 0x1E2F JUMPI PUSH1 0x0 DUP1 REVERT JUMPDEST PUSH2 0x1E38 DUP4 PUSH2 0x1CCB JUMP JUMPDEST SWAP5 PUSH1 0x20 SWAP4 SWAP1 SWAP4 ADD CALLDATALOAD SWAP4 POP POP POP JUMP JUMPDEST PUSH4 0x4E487B71 PUSH1 0xE0 SHL PUSH1 0x0 MSTORE PUSH1 0x41 PUSH1 0x4 MSTORE PUSH1 0x24 PUSH1 0x0 REVERT JUMPDEST PUSH1 0x0 DUP3 PUSH1 0x1F DUP4 ADD SLT PUSH2 0x1E6D JUMPI PUSH1 0x0 DUP1 REVERT JUMPDEST DUP2 CALLDATALOAD PUSH1 0x1 PUSH1 0x1 PUSH1 0x40 SHL SUB DUP2 GT ISZERO PUSH2 0x1E86 JUMPI PUSH2 0x1E86 PUSH2 0x1E46 JUMP JUMPDEST PUSH1 0x40 MLOAD PUSH1 0x1F DUP3 ADD PUSH1 0x1F NOT SWAP1 DUP2 AND PUSH1 0x3F ADD AND DUP2 ADD PUSH1 0x1 PUSH1 0x1 PUSH1 0x40 SHL SUB DUP2 GT DUP3 DUP3 LT OR ISZERO PUSH2 0x1EB4 JUMPI PUSH2 0x1EB4 PUSH2 0x1E46 JUMP JUMPDEST PUSH1 0x40 MSTORE DUP2 DUP2 MSTORE DUP4 DUP3 ADD PUSH1 0x20 ADD DUP6 LT ISZERO PUSH2 0x1ECC JUMPI PUSH1 0x0 DUP1 REVERT JUMPDEST DUP2 PUSH1 0x20 DUP6 ADD PUSH1 0x20 DUP4 ADD CALLDATACOPY PUSH1 0x0 SWAP2 DUP2 ADD PUSH1 0x20 ADD SWAP2 SWAP1 SWAP2 MSTORE SWAP4 SWAP3 POP POP POP JUMP JUMPDEST PUSH1 0x0 DUP1 PUSH1 0x0 DUP1 PUSH1 0x0 PUSH1 0x80 DUP7 DUP9 SUB SLT ISZERO PUSH2 0x1F01 JUMPI PUSH1 0x0 DUP1 REVERT JUMPDEST DUP6 CALLDATALOAD PUSH1 0x1 PUSH1 0x1 PUSH1 0x40 SHL SUB DUP2 GT ISZERO PUSH2 0x1F17 JUMPI PUSH1 0x0 DUP1 REVERT JUMPDEST PUSH2 0x1F23 DUP9 DUP3 DUP10 ADD PUSH2 0x1E5C JUMP JUMPDEST SWAP6 POP POP PUSH1 0x20 DUP7 ADD CALLDATALOAD PUSH1 0x1 PUSH1 0x1 PUSH1 0x40 SHL SUB DUP2 GT ISZERO PUSH2 0x1F3F JUMPI PUSH1 0x0 DUP1 REVERT JUMPDEST PUSH2 0x1F4B DUP9 DUP3 DUP10 ADD PUSH2 0x1E5C JUMP JUMPDEST SWAP5 POP POP PUSH1 0x40 DUP7 ADD CALLDATALOAD SWAP3 POP PUSH1 0x60 DUP7 ADD CALLDATALOAD PUSH1 0x1 PUSH1 0x1 PUSH1 0x40 SHL SUB DUP2 GT ISZERO PUSH2 0x1F6E JUMPI PUSH1 0x0 DUP1 REVERT JUMPDEST PUSH2 0x1F7A DUP9 DUP3 DUP10 ADD PUSH2 0x1D1E JUMP JUMPDEST SWAP7 SWAP10 SWAP6 SWAP9 POP SWAP4 SWAP7 POP SWAP3 SWAP5 SWAP4 SWAP3 POP POP POP JUMP JUMPDEST PUSH1 0x0 DUP1 PUSH1 0x0 DUP1 PUSH1 0x0 DUP1 PUSH1 0x0 PUSH1 0xC0 DUP9 DUP11 SUB SLT ISZERO PUSH2 0x1FA6 JUMPI PUSH1 0x0 DUP1 REVERT JUMPDEST DUP8 CALLDATALOAD SWAP7 POP PUSH1 0x20 DUP9 ADD CALLDATALOAD SWAP6 POP PUSH1 0x40 DUP9 ADD CALLDATALOAD PUSH1 0x1 PUSH1 0x1 PUSH1 0x40 SHL SUB DUP2 GT ISZERO PUSH2 0x1FCA JUMPI PUSH1 0x0 DUP1 REVERT JUMPDEST PUSH2 0x1FD6 DUP11 DUP3 DUP12 ADD PUSH2 0x1E5C JUMP JUMPDEST SWAP6 POP POP PUSH1 0x60 DUP9 ADD CALLDATALOAD PUSH1 0x1 PUSH1 0x1 PUSH1 0x40 SHL SUB DUP2 GT ISZERO PUSH2 0x1FF2 JUMPI PUSH1 0x0 DUP1 REVERT JUMPDEST PUSH2 0x1FFE DUP11 DUP3 DUP12 ADD PUSH2 0x1E5C JUMP JUMPDEST SWAP5 POP POP PUSH1 0x80 DUP9 ADD CALLDATALOAD SWAP3 POP PUSH1 0xA0 DUP9 ADD CALLDATALOAD PUSH1 0x1 PUSH1 0x1 PUSH1 0x40 SHL SUB DUP2 GT ISZERO PUSH2 0x1DFD JUMPI PUSH1 0x0 DUP1 REVERT JUMPDEST PUSH1 0x0 DUP1 PUSH1 0x0 PUSH1 0x40 DUP5 DUP7 SUB SLT ISZERO PUSH2 0x2036 JUMPI PUSH1 0x0 DUP1 REVERT JUMPDEST DUP4 CALLDATALOAD SWAP3 POP PUSH1 0x20 DUP5 ADD CALLDATALOAD PUSH1 0x1 PUSH1 0x1 PUSH1 0x40 SHL SUB DUP2 GT ISZERO PUSH2 0x2053 JUMPI PUSH1 0x0 DUP1 REVERT JUMPDEST PUSH2 0x205F DUP7 DUP3 DUP8 ADD PUSH2 0x1D1E JUMP JUMPDEST SWAP5 SWAP8 SWAP1 SWAP7 POP SWAP4 SWAP5 POP POP POP POP JUMP JUMPDEST PUSH1 0x0 DUP1 PUSH1 0x0 DUP1 PUSH1 0xA0 DUP6 DUP8 SUB SLT ISZERO PUSH2 0x2082 JUMPI PUSH1 0x0 DUP1 REVERT JUMPDEST PUSH2 0x208C DUP7 DUP7 PUSH2 0x1D06 JUMP JUMPDEST SWAP4 POP PUSH1 0x60 DUP6 ADD CALLDATALOAD PUSH1 0x1 PUSH1 0x1 PUSH1 0x40 SHL SUB DUP2 GT ISZERO PUSH2 0x20A7 JUMPI PUSH1 0x0 DUP1 REVERT JUMPDEST PUSH2 0x20B3 DUP8 DUP3 DUP9 ADD PUSH2 0x1D1E JUMP JUMPDEST SWAP1 SWAP5 POP SWAP3 POP POP PUSH1 0x80 DUP6 ADD CALLDATALOAD PUSH2 0x20C7 DUP2 PUSH2 0x1D66 JUMP JUMPDEST SWAP4 SWAP7 SWAP3 SWAP6 POP SWAP1 SWAP4 POP POP JUMP JUMPDEST PUSH1 0x0 DUP1 PUSH1 0x0 DUP1 PUSH1 0x0 DUP1 PUSH1 0xA0 DUP8 DUP10 SUB SLT ISZERO PUSH2 0x20EB JUMPI PUSH1 0x0 DUP1 REVERT JUMPDEST DUP7 CALLDATALOAD PUSH1 0x1 PUSH1 0x1 PUSH1 0x40 SHL SUB DUP2 GT ISZERO PUSH2 0x2101 JUMPI PUSH1 0x0 DUP1 REVERT JUMPDEST PUSH2 0x210D DUP10 DUP3 DUP11 ADD PUSH2 0x1E5C JUMP JUMPDEST SWAP7 POP POP PUSH1 0x20 DUP8 ADD CALLDATALOAD PUSH1 0x1 PUSH1 0x1 PUSH1 0x40 SHL SUB DUP2 GT ISZERO PUSH2 0x2129 JUMPI PUSH1 0x0 DUP1 REVERT JUMPDEST PUSH2 0x2135 DUP10 DUP3 DUP11 ADD PUSH2 0x1E5C JUMP JUMPDEST SWAP6 POP POP PUSH1 0x40 DUP8 ADD CALLDATALOAD PUSH1 0x1 PUSH1 0x1 PUSH1 0x40 SHL SUB DUP2 GT ISZERO PUSH2 0x2151 JUMPI PUSH1 0x0 DUP1 REVERT JUMPDEST PUSH2 0x215D DUP10 DUP3 DUP11 ADD PUSH2 0x1E5C JUMP JUMPDEST SWAP5 POP POP PUSH1 0x60 DUP8 ADD CALLDATALOAD SWAP3 POP PUSH1 0x80 DUP8 ADD CALLDATALOAD PUSH1 0x1 PUSH1 0x1 PUSH1 0x40 SHL SUB DUP2 GT ISZERO PUSH2 0x2180 JUMPI PUSH1 0x0 DUP1 REVERT JUMPDEST PUSH2 0x218C DUP10 DUP3 DUP11 ADD PUSH2 0x1D1E JUMP JUMPDEST SWAP8 SWAP11 SWAP7 SWAP10 POP SWAP5 SWAP8 POP SWAP3 SWAP6 SWAP4 SWAP5 SWAP3 POP POP POP JUMP JUMPDEST PUSH1 0x0 DUP1 PUSH1 0x0 DUP1 PUSH1 0x60 DUP6 DUP8 SUB SLT ISZERO PUSH2 0x21B4 JUMPI PUSH1 0x0 DUP1 REVERT JUMPDEST DUP5 CALLDATALOAD SWAP4 POP PUSH1 0x20 DUP6 ADD CALLDATALOAD PUSH1 0x1 PUSH1 0x1 PUSH1 0x40 SHL SUB DUP2 GT ISZERO PUSH2 0x21D1 JUMPI PUSH1 0x0 DUP1 REVERT JUMPDEST PUSH2 0x21DD DUP8 DUP3 DUP9 ADD PUSH2 0x1E5C JUMP JUMPDEST SWAP4 POP POP PUSH1 0x40 DUP6 ADD CALLDATALOAD PUSH1 0x1 PUSH1 0x1 PUSH1 0x40 SHL SUB DUP2 GT ISZERO PUSH2 0x21F9 JUMPI PUSH1 0x0 DUP1 REVERT JUMPDEST PUSH2 0x2205 DUP8 DUP3 DUP9 ADD PUSH2 0x1D1E JUMP JUMPDEST SWAP6 SWAP9 SWAP5 SWAP8 POP SWAP6 POP POP POP POP JUMP JUMPDEST PUSH1 0x0 DUP1 PUSH1 0x40 DUP4 DUP6 SUB SLT ISZERO PUSH2 0x2224 JUMPI PUSH1 0x0 DUP1 REVERT JUMPDEST DUP3 CALLDATALOAD PUSH2 0x1E38 DUP2 PUSH2 0x1D66 JUMP JUMPDEST PUSH1 0x0 PUSH1 0x20 DUP3 DUP5 SUB SLT ISZERO PUSH2 0x2241 JUMPI PUSH1 0x0 DUP1 REVERT JUMPDEST DUP2 CALLDATALOAD PUSH2 0x1CFF DUP2 PUSH2 0x1D66 JUMP JUMPDEST PUSH1 0x0 PUSH1 0x60 DUP3 DUP5 SUB SLT ISZERO PUSH2 0x225E JUMPI PUSH1 0x0 DUP1 REVERT JUMPDEST PUSH2 0x1CFF DUP4 DUP4 PUSH2 0x1D06 JUMP JUMPDEST DUP1 ISZERO ISZERO DUP2 EQ PUSH2 0x16E1 JUMPI PUSH1 0x0 DUP1 REVERT JUMPDEST PUSH1 0x0 PUSH1 0x20 DUP3 DUP5 SUB SLT ISZERO PUSH2 0x2288 JUMPI PUSH1 0x0 DUP1 REVERT JUMPDEST DUP2 MLOAD PUSH2 0x1CFF DUP2 PUSH2 0x2268 JUMP JUMPDEST PUSH1 0x0 DUP2 MLOAD DUP1 DUP5 MSTORE PUSH1 0x0 JUMPDEST DUP2 DUP2 LT ISZERO PUSH2 0x22B9 JUMPI PUSH1 0x20 DUP2 DUP6 ADD DUP2 ADD MLOAD DUP7 DUP4 ADD DUP3 ADD MSTORE ADD PUSH2 0x229D JUMP JUMPDEST POP PUSH1 0x0 PUSH1 0x20 DUP3 DUP7 ADD ADD MSTORE PUSH1 0x20 PUSH1 0x1F NOT PUSH1 0x1F DUP4 ADD AND DUP6 ADD ADD SWAP2 POP POP SWAP3 SWAP2 POP POP JUMP JUMPDEST PUSH1 0xA0 DUP2 MSTORE PUSH1 0x18 PUSH1 0xA0 DUP3 ADD MSTORE PUSH32 0x72657175657374536B696C6C566572696669636174696F6E0000000000000000 PUSH1 0xC0 DUP3 ADD MSTORE PUSH1 0x1 PUSH1 0x1 PUSH1 0xA0 SHL SUB DUP6 AND PUSH1 0x20 DUP3 ADD MSTORE PUSH1 0xE0 PUSH1 0x40 DUP3 ADD MSTORE PUSH1 0x0 PUSH2 0x232F PUSH1 0xE0 DUP4 ADD DUP7 PUSH2 0x2293 JUMP JUMPDEST DUP3 DUP2 SUB PUSH1 0x60 DUP5 ADD MSTORE PUSH2 0x2341 DUP2 DUP7 PUSH2 0x2293 JUMP JUMPDEST SWAP2 POP POP DUP3 PUSH1 0x80 DUP4 ADD MSTORE SWAP6 SWAP5 POP POP POP POP POP JUMP JUMPDEST PUSH1 0x60 DUP2 MSTORE PUSH1 0x0 PUSH2 0x2366 PUSH1 0x60 DUP4 ADD DUP7 PUSH2 0x2293 JUMP JUMPDEST DUP3 DUP2 SUB PUSH1 0x20 DUP5 ADD MSTORE PUSH2 0x2378 DUP2 DUP7 PUSH2 0x2293 JUMP JUMPDEST SWAP2 POP POP DUP3 PUSH1 0x40 DUP4 ADD MSTORE SWAP5 SWAP4 POP POP POP POP JUMP JUMPDEST PUSH1 0xE0 DUP2 MSTORE PUSH1 0xC PUSH1 0xE0 DUP3 ADD MSTORE PUSH12 0x726169736544697370757465 PUSH1 0xA0 SHL PUSH2 0x100 DUP3 ADD MSTORE PUSH1 0x1 PUSH1 0x1 PUSH1 0xA0 SHL SUB DUP8 AND PUSH1 0x20 DUP3 ADD MSTORE DUP6 PUSH1 0x40 DUP3 ADD MSTORE DUP5 PUSH1 0x60 DUP3 ADD MSTORE PUSH2 0x120 PUSH1 0x80 DUP3 ADD MSTORE PUSH1 0x0 PUSH2 0x23DD PUSH2 0x120 DUP4 ADD DUP7 PUSH2 0x2293 JUMP JUMPDEST DUP3 DUP2 SUB PUSH1 0xA0 DUP5 ADD MSTORE PUSH2 0x23EF DUP2 DUP7 PUSH2 0x2293 JUMP JUMPDEST SWAP2 POP POP DUP3 PUSH1 0xC0 DUP4 ADD MSTORE SWAP8 SWAP7 POP POP POP POP POP POP POP JUMP JUMPDEST DUP6 DUP2 MSTORE DUP5 PUSH1 0x20 DUP3 ADD MSTORE PUSH1 0xA0 PUSH1 0x40 DUP3 ADD MSTORE PUSH1 0x0 PUSH2 0x2422 PUSH1 0xA0 DUP4 ADD DUP7 PUSH2 0x2293 JUMP JUMPDEST DUP3 DUP2 SUB PUSH1 0x60 DUP5 ADD MSTORE PUSH2 0x2434 DUP2 DUP7 PUSH2 0x2293 JUMP JUMPDEST SWAP2 POP POP DUP3 PUSH1 0x80 DUP4 ADD MSTORE SWAP7 SWAP6 POP POP POP POP POP POP JUMP JUMPDEST PUSH1 0xC0 DUP2 MSTORE PUSH1 0x9 PUSH1 0xC0 DUP3 ADD MSTORE PUSH9 0x61736B417468656E61 PUSH1 0xB8 SHL PUSH1 0xE0 DUP3 ADD MSTORE PUSH1 0x1 PUSH1 0x1 PUSH1 0xA0 SHL SUB DUP7 AND PUSH1 0x20 DUP3 ADD MSTORE PUSH2 0x100 PUSH1 0x40 DUP3 ADD MSTORE PUSH1 0x0 PUSH2 0x248B PUSH2 0x100 DUP4 ADD DUP8 PUSH2 0x2293 JUMP JUMPDEST DUP3 DUP2 SUB PUSH1 0x60 DUP5 ADD MSTORE PUSH2 0x249D DUP2 DUP8 PUSH2 0x2293 JUMP JUMPDEST SWAP1 POP DUP3 DUP2 SUB PUSH1 0x80 DUP5 ADD MSTORE PUSH2 0x24B1 DUP2 DUP7 PUSH2 0x2293 JUMP JUMPDEST SWAP2 POP POP DUP3 PUSH1 0xA0 DUP4 ADD MSTORE SWAP7 SWAP6 POP POP POP POP POP POP JUMP JUMPDEST PUSH1 0x80 DUP2 MSTORE PUSH1 0x0 PUSH2 0x24D7 PUSH1 0x80 DUP4 ADD DUP8 PUSH2 0x2293 JUMP JUMPDEST DUP3 DUP2 SUB PUSH1 0x20 DUP5 ADD MSTORE PUSH2 0x24E9 DUP2 DUP8 PUSH2 0x2293 JUMP JUMPDEST SWAP1 POP DUP3 DUP2 SUB PUSH1 0x40 DUP5 ADD MSTORE PUSH2 0x24FD DUP2 DUP7 PUSH2 0x2293 JUMP JUMPDEST SWAP2 POP POP DUP3 PUSH1 0x60 DUP4 ADD MSTORE SWAP6 SWAP5 POP POP POP POP POP JUMP JUMPDEST PUSH1 0x80 DUP2 MSTORE PUSH1 0xD PUSH1 0x80 DUP3 ADD MSTORE PUSH13 0x63726561746544697370757465 PUSH1 0x98 SHL PUSH1 0xA0 DUP3 ADD MSTORE PUSH1 0x1 PUSH1 0x1 PUSH1 0xA0 SHL SUB DUP5 AND PUSH1 0x20 DUP3 ADD MSTORE DUP3 PUSH1 0x40 DUP3 ADD MSTORE PUSH1 0xC0 PUSH1 0x60 DUP3 ADD MSTORE PUSH1 0x0 PUSH2 0x169D PUSH1 0xC0 DUP4 ADD DUP5 PUSH2 0x2293 JUMP JUMPDEST PUSH1 0x0 DUP1 PUSH1 0x0 DUP1 PUSH1 0x80 DUP6 DUP8 SUB SLT ISZERO PUSH2 0x2571 JUMPI PUSH1 0x0 DUP1 REVERT JUMPDEST DUP5 CALLDATALOAD PUSH1 0x1 PUSH1 0x1 PUSH1 0x40 SHL SUB DUP2 GT ISZERO PUSH2 0x2587 JUMPI PUSH1 0x0 DUP1 REVERT JUMPDEST PUSH2 0x2593 DUP8 DUP3 DUP9 ADD PUSH2 0x1E5C JUMP JUMPDEST SWAP5 POP POP PUSH1 0x20 DUP6 ADD CALLDATALOAD PUSH2 0x25A4 DUP2 PUSH2 0x1D66 JUMP JUMPDEST SWAP3 POP PUSH1 0x40 DUP6 ADD CALLDATALOAD SWAP2 POP PUSH1 0x60 DUP6 ADD CALLDATALOAD PUSH2 0x20C7 DUP2 PUSH2 0x2268 JUMP JUMPDEST PUSH1 0x40 DUP2 MSTORE PUSH4 0xFFFFFFFF DUP4 MLOAD AND PUSH1 0x40 DUP3 ADD MSTORE PUSH1 0x20 DUP4 ADD MLOAD PUSH1 0x60 DUP3 ADD MSTORE PUSH1 0x0 PUSH1 0x40 DUP5 ADD MLOAD PUSH1 0xA0 PUSH1 0x80 DUP5 ADD MSTORE PUSH2 0x25F1 PUSH1 0xE0 DUP5 ADD DUP3 PUSH2 0x2293 JUMP JUMPDEST SWAP1 POP PUSH1 0x60 DUP6 ADD MLOAD PUSH1 0x3F NOT DUP5 DUP4 SUB ADD PUSH1 0xA0 DUP6 ADD MSTORE PUSH2 0x260E DUP3 DUP3 PUSH2 0x2293 JUMP JUMPDEST PUSH1 0x80 SWAP7 SWAP1 SWAP7 ADD MLOAD ISZERO ISZERO PUSH1 0xC0 DUP6 ADD MSTORE POP POP POP PUSH1 0x1 PUSH1 0x1 PUSH1 0xA0 SHL SUB SWAP2 SWAP1 SWAP2 AND PUSH1 0x20 SWAP1 SWAP2 ADD MSTORE SWAP1 JUMP JUMPDEST PUSH1 0x0 PUSH1 0x40 DUP3 DUP5 SUB SLT ISZERO PUSH2 0x2646 JUMPI PUSH1 0x0 DUP1 REVERT JUMPDEST PUSH1 0x40 DUP1 MLOAD SWAP1 DUP2 ADD PUSH1 0x1 PUSH1 0x1 PUSH1 0x40 SHL SUB DUP2 GT DUP3 DUP3 LT OR ISZERO PUSH2 0x2668 JUMPI PUSH2 0x2668 PUSH2 0x1E46 JUMP JUMPDEST PUSH1 0x40 MSTORE DUP3 MLOAD DUP2 MSTORE PUSH1 0x20 SWAP3 DUP4 ADD MLOAD SWAP3 DUP2 ADD SWAP3 SWAP1 SWAP3 MSTORE POP SWAP2 SWAP1 POP JUMP JUMPDEST PUSH1 0x0 PUSH1 0x40 DUP3 DUP5 SUB SLT ISZERO PUSH2 0x2694 JUMPI PUSH1 0x0 DUP1 REVERT JUMPDEST PUSH2 0x1CFF DUP4 DUP4 PUSH2 0x2634 JUMP JUMPDEST PUSH1 0x0 PUSH1 0x80 DUP3 DUP5 SUB SLT DUP1 ISZERO PUSH2 0x26B1 JUMPI PUSH1 0x0 DUP1 REVERT JUMPDEST POP PUSH1 0x40 MLOAD PUSH1 0x60 DUP2 ADD PUSH1 0x1 PUSH1 0x1 PUSH1 0x40 SHL SUB DUP2 GT DUP3 DUP3 LT OR ISZERO PUSH2 0x26D4 JUMPI PUSH2 0x26D4 PUSH2 0x1E46 JUMP JUMPDEST PUSH1 0x40 MSTORE DUP3 MLOAD DUP2 MSTORE PUSH1 0x20 DUP4 ADD MLOAD PUSH1 0x1 PUSH1 0x1 PUSH1 0x40 SHL SUB DUP2 AND DUP2 EQ PUSH2 0x26F5 JUMPI PUSH1 0x0 DUP1 REVERT JUMPDEST PUSH1 0x20 DUP3 ADD MSTORE PUSH2 0x2707 DUP5 PUSH1 0x40 DUP6 ADD PUSH2 0x2634 JUMP JUMPDEST PUSH1 0x40 DUP3 ADD MSTORE SWAP4 SWAP3 POP POP POP JUMP JUMPDEST PUSH1 0x0 PUSH1 0x20 DUP3 DUP5 SUB SLT ISZERO PUSH2 0x2725 JUMPI PUSH1 0x0 DUP1 REVERT JUMPDEST DUP2 MLOAD PUSH2 0x1CFF DUP2 PUSH2 0x1D66 JUMP INVALID LOG2 PUSH5 0x6970667358 0x22 SLT KECCAK256 DUP5 SWAP16 0x28 0xDF PUSH24 0xF47FF421438B2E7FA865C30E6E533D816FA6C98BD5FF4224 0xEB 0xC3 0xD0 PUSH5 0x736F6C6343 STOP ADDMOD SHR STOP CALLER "
				},
				"gasEstimates": {
					"creation": {
						"codeDepositCost": "2017200",
						"executionCost": "infinite",
						"totalCost": "infinite"
					},
					"external": {
						"allowInitializePath((uint32,bytes32,uint64))": "infinite",
						"askAthena(string,string,string,uint256,bytes)": "infinite",
						"claimDisputedAmount(uint256,bytes)": "infinite",
						"dstEid()": "2403",
						"endpoint()": "infinite",
						"isComposeMsgSender((uint32,bytes32,uint64),bytes,address)": "830",
						"lzReceive((uint32,bytes32,uint64),bytes32,bytes,address,bytes)": "infinite",
						"nextNonce(uint32,bytes32)": "435",
						"oAppVersion()": "275",
						"owner()": "2399",
						"peers(uint32)": "2596",
						"quoteAskAthena(string,string,string,uint256,bytes)": "infinite",
						"quoteClaimDisputedAmount(uint256,bytes)": "infinite",
						"quoteCreateDispute(uint256,string,bytes)": "infinite",
						"quoteRaiseDispute(uint256,uint256,string,string,uint256,bytes)": "infinite",
						"quoteRequestSkillVerification(string,string,uint256,bytes)": "infinite",
						"raiseDispute(uint256,uint256,string,string,uint256,bytes)": "infinite",
						"renounceOwnership()": "infinite",
						"requestSkillVerification(string,string,uint256,bytes)": "infinite",
						"setDelegate(address)": "infinite",
						"setDstEid(uint32)": "26775",
						"setPeer(uint32,bytes32)": "26083",
						"transferOwnership(address)": "infinite",
						"usdToken()": "infinite",
						"withdrawFees(address,uint256)": "infinite"
					},
					"internal": {
						"_lzReceive(struct Origin calldata,bytes32,bytes calldata,address,bytes calldata)": "infinite"
					}
				},
				"methodIdentifiers": {
					"allowInitializePath((uint32,bytes32,uint64))": "ff7bd03d",
					"askAthena(string,string,string,uint256,bytes)": "8b46e627",
					"claimDisputedAmount(uint256,bytes)": "819d9e38",
					"dstEid()": "734ff5f3",
					"endpoint()": "5e280f11",
					"isComposeMsgSender((uint32,bytes32,uint64),bytes,address)": "82413eac",
					"lzReceive((uint32,bytes32,uint64),bytes32,bytes,address,bytes)": "13137d65",
					"nextNonce(uint32,bytes32)": "7d25a05e",
					"oAppVersion()": "17442b70",
					"owner()": "8da5cb5b",
					"peers(uint32)": "bb0b6a53",
					"quoteAskAthena(string,string,string,uint256,bytes)": "d6d3bb38",
					"quoteClaimDisputedAmount(uint256,bytes)": "e8700687",
					"quoteCreateDispute(uint256,string,bytes)": "8dd2067c",
					"quoteRaiseDispute(uint256,uint256,string,string,uint256,bytes)": "bcd95793",
					"quoteRequestSkillVerification(string,string,uint256,bytes)": "9209cb39",
					"raiseDispute(uint256,uint256,string,string,uint256,bytes)": "48ee7f5d",
					"renounceOwnership()": "715018a6",
					"requestSkillVerification(string,string,uint256,bytes)": "3cf1edac",
					"setDelegate(address)": "ca5eb5e1",
					"setDstEid(uint32)": "0d14c92e",
					"setPeer(uint32,bytes32)": "3400288b",
					"transferOwnership(address)": "f2fde38b",
					"usdToken()": "f897a22b",
					"withdrawFees(address,uint256)": "ad3b1b47"
				}
			},
			"storageLayout": {
				"storage": [
					{
						"astId": 1327,
						"contract": "AthenaClientContract_compact.sol:AthenaClientContract",
						"label": "_owner",
						"offset": 0,
						"slot": "0",
						"type": "t_address"
					},
					{
						"astId": 785,
						"contract": "AthenaClientContract_compact.sol:AthenaClientContract",
						"label": "peers",
						"offset": 0,
						"slot": "1",
						"type": "t_mapping(t_uint32,t_bytes32)"
					},
					{
						"astId": 1567,
						"contract": "AthenaClientContract_compact.sol:AthenaClientContract",
						"label": "_status",
						"offset": 0,
						"slot": "2",
						"type": "t_uint256"
					},
					{
						"astId": 2218,
						"contract": "AthenaClientContract_compact.sol:AthenaClientContract",
						"label": "dstEid",
						"offset": 0,
						"slot": "3",
						"type": "t_uint32"
					}
				],
				"types": {
					"t_address": {
						"encoding": "inplace",
						"label": "address",
						"numberOfBytes": "20"
					},
					"t_bytes32": {
						"encoding": "inplace",
						"label": "bytes32",
						"numberOfBytes": "32"
					},
					"t_mapping(t_uint32,t_bytes32)": {
						"encoding": "mapping",
						"key": "t_uint32",
						"label": "mapping(uint32 => bytes32)",
						"numberOfBytes": "32",
						"value": "t_bytes32"
					},
					"t_uint256": {
						"encoding": "inplace",
						"label": "uint256",
						"numberOfBytes": "32"
					},
					"t_uint32": {
						"encoding": "inplace",
						"label": "uint32",
						"numberOfBytes": "4"
					}
				}
			},
			"userdoc": {
				"kind": "user",
				"methods": {
					"allowInitializePath((uint32,bytes32,uint64))": {
						"notice": "Checks if the path initialization is allowed based on the provided origin."
					},
					"endpoint()": {
						"notice": "Retrieves the LayerZero endpoint associated with the OApp."
					},
					"isComposeMsgSender((uint32,bytes32,uint64),bytes,address)": {
						"notice": "Indicates whether an address is an approved composeMsg sender to the Endpoint."
					},
					"nextNonce(uint32,bytes32)": {
						"notice": "Retrieves the next nonce for a given source endpoint and sender address."
					},
					"oAppVersion()": {
						"notice": "Retrieves the OApp version information."
					},
					"peers(uint32)": {
						"notice": "Retrieves the peer (OApp) associated with a corresponding endpoint."
					},
					"setDelegate(address)": {
						"notice": "Sets the delegate address for the OApp."
					},
					"setPeer(uint32,bytes32)": {
						"notice": "Sets the peer address (OApp instance) for a corresponding endpoint."
					}
				},
				"version": 1
			}
		}
	}
}