{
	"simple-LZ_UUPS.sol": {
		"SenderContract": {
			"abi": [
				{
					"inputs": [
						{
							"internalType": "address",
							"name": "target",
							"type": "address"
						}
					],
					"name": "AddressEmptyCode",
					"type": "error"
				},
				{
					"inputs": [
						{
							"internalType": "address",
							"name": "implementation",
							"type": "address"
						}
					],
					"name": "ERC1967InvalidImplementation",
					"type": "error"
				},
				{
					"inputs": [],
					"name": "ERC1967NonPayable",
					"type": "error"
				},
				{
					"inputs": [],
					"name": "FailedCall",
					"type": "error"
				},
				{
					"inputs": [],
					"name": "InvalidInitialization",
					"type": "error"
				},
				{
					"inputs": [],
					"name": "NotInitializing",
					"type": "error"
				},
				{
					"inputs": [
						{
							"internalType": "address",
							"name": "owner",
							"type": "address"
						}
					],
					"name": "OwnableInvalidOwner",
					"type": "error"
				},
				{
					"inputs": [
						{
							"internalType": "address",
							"name": "account",
							"type": "address"
						}
					],
					"name": "OwnableUnauthorizedAccount",
					"type": "error"
				},
				{
					"inputs": [],
					"name": "UUPSUnauthorizedCallContext",
					"type": "error"
				},
				{
					"inputs": [
						{
							"internalType": "bytes32",
							"name": "slot",
							"type": "bytes32"
						}
					],
					"name": "UUPSUnsupportedProxiableUUID",
					"type": "error"
				},
				{
					"anonymous": false,
					"inputs": [
						{
							"indexed": false,
							"internalType": "uint64",
							"name": "version",
							"type": "uint64"
						}
					],
					"name": "Initialized",
					"type": "event"
				},
				{
					"anonymous": false,
					"inputs": [
						{
							"indexed": false,
							"internalType": "uint32",
							"name": "dstEid",
							"type": "uint32"
						},
						{
							"indexed": false,
							"internalType": "bytes32",
							"name": "to",
							"type": "bytes32"
						},
						{
							"indexed": false,
							"internalType": "string",
							"name": "message",
							"type": "string"
						},
						{
							"indexed": false,
							"internalType": "uint256",
							"name": "value",
							"type": "uint256"
						}
					],
					"name": "MessageSent",
					"type": "event"
				},
				{
					"anonymous": false,
					"inputs": [
						{
							"indexed": true,
							"internalType": "address",
							"name": "previousOwner",
							"type": "address"
						},
						{
							"indexed": true,
							"internalType": "address",
							"name": "newOwner",
							"type": "address"
						}
					],
					"name": "OwnershipTransferred",
					"type": "event"
				},
				{
					"anonymous": false,
					"inputs": [
						{
							"indexed": true,
							"internalType": "address",
							"name": "implementation",
							"type": "address"
						}
					],
					"name": "Upgraded",
					"type": "event"
				},
				{
					"inputs": [],
					"name": "UPGRADE_INTERFACE_VERSION",
					"outputs": [
						{
							"internalType": "string",
							"name": "",
							"type": "string"
						}
					],
					"stateMutability": "view",
					"type": "function"
				},
				{
					"inputs": [],
					"name": "endpoint",
					"outputs": [
						{
							"internalType": "contract ILayerZeroEndpointV2",
							"name": "",
							"type": "address"
						}
					],
					"stateMutability": "view",
					"type": "function"
				},
				{
					"inputs": [
						{
							"internalType": "address",
							"name": "_endpoint",
							"type": "address"
						},
						{
							"internalType": "address",
							"name": "_owner",
							"type": "address"
						}
					],
					"name": "initialize",
					"outputs": [],
					"stateMutability": "nonpayable",
					"type": "function"
				},
				{
					"inputs": [],
					"name": "owner",
					"outputs": [
						{
							"internalType": "address",
							"name": "",
							"type": "address"
						}
					],
					"stateMutability": "view",
					"type": "function"
				},
				{
					"inputs": [
						{
							"internalType": "uint32",
							"name": "",
							"type": "uint32"
						}
					],
					"name": "peers",
					"outputs": [
						{
							"internalType": "bytes32",
							"name": "",
							"type": "bytes32"
						}
					],
					"stateMutability": "view",
					"type": "function"
				},
				{
					"inputs": [],
					"name": "proxiableUUID",
					"outputs": [
						{
							"internalType": "bytes32",
							"name": "",
							"type": "bytes32"
						}
					],
					"stateMutability": "view",
					"type": "function"
				},
				{
					"inputs": [
						{
							"internalType": "uint32",
							"name": "_dstEid",
							"type": "uint32"
						},
						{
							"internalType": "string",
							"name": "_message",
							"type": "string"
						},
						{
							"internalType": "uint256",
							"name": "_value",
							"type": "uint256"
						},
						{
							"internalType": "bytes",
							"name": "_options",
							"type": "bytes"
						}
					],
					"name": "quote",
					"outputs": [
						{
							"components": [
								{
									"internalType": "uint256",
									"name": "nativeFee",
									"type": "uint256"
								},
								{
									"internalType": "uint256",
									"name": "lzTokenFee",
									"type": "uint256"
								}
							],
							"internalType": "struct MessagingFee",
							"name": "fee",
							"type": "tuple"
						}
					],
					"stateMutability": "view",
					"type": "function"
				},
				{
					"inputs": [],
					"name": "renounceOwnership",
					"outputs": [],
					"stateMutability": "nonpayable",
					"type": "function"
				},
				{
					"inputs": [
						{
							"internalType": "uint32",
							"name": "_dstEid",
							"type": "uint32"
						},
						{
							"internalType": "string",
							"name": "_message",
							"type": "string"
						},
						{
							"internalType": "uint256",
							"name": "_value",
							"type": "uint256"
						},
						{
							"internalType": "bytes",
							"name": "_options",
							"type": "bytes"
						}
					],
					"name": "sendMessage",
					"outputs": [],
					"stateMutability": "payable",
					"type": "function"
				},
				{
					"inputs": [
						{
							"internalType": "uint32",
							"name": "_eid",
							"type": "uint32"
						},
						{
							"internalType": "bytes32",
							"name": "_peer",
							"type": "bytes32"
						}
					],
					"name": "setPeer",
					"outputs": [],
					"stateMutability": "nonpayable",
					"type": "function"
				},
				{
					"inputs": [
						{
							"internalType": "address",
							"name": "newOwner",
							"type": "address"
						}
					],
					"name": "transferOwnership",
					"outputs": [],
					"stateMutability": "nonpayable",
					"type": "function"
				},
				{
					"inputs": [
						{
							"internalType": "address",
							"name": "newImplementation",
							"type": "address"
						},
						{
							"internalType": "bytes",
							"name": "data",
							"type": "bytes"
						}
					],
					"name": "upgradeToAndCall",
					"outputs": [],
					"stateMutability": "payable",
					"type": "function"
				}
			],
			"devdoc": {
				"errors": {
					"AddressEmptyCode(address)": [
						{
							"details": "There's no code at `target` (it is not a contract)."
						}
					],
					"ERC1967InvalidImplementation(address)": [
						{
							"details": "The `implementation` of the proxy is invalid."
						}
					],
					"ERC1967NonPayable()": [
						{
							"details": "An upgrade function sees `msg.value > 0` that may be lost."
						}
					],
					"FailedCall()": [
						{
							"details": "A call to an address target failed. The target may have reverted."
						}
					],
					"InvalidInitialization()": [
						{
							"details": "The contract is already initialized."
						}
					],
					"NotInitializing()": [
						{
							"details": "The contract is not initializing."
						}
					],
					"OwnableInvalidOwner(address)": [
						{
							"details": "The owner is not a valid owner account. (eg. `address(0)`)"
						}
					],
					"OwnableUnauthorizedAccount(address)": [
						{
							"details": "The caller account is not authorized to perform an operation."
						}
					],
					"UUPSUnauthorizedCallContext()": [
						{
							"details": "The call is from an unauthorized context."
						}
					],
					"UUPSUnsupportedProxiableUUID(bytes32)": [
						{
							"details": "The storage `slot` is unsupported as a UUID."
						}
					]
				},
				"events": {
					"Initialized(uint64)": {
						"details": "Triggered when the contract has been initialized or reinitialized."
					},
					"Upgraded(address)": {
						"details": "Emitted when the implementation is upgraded."
					}
				},
				"kind": "dev",
				"methods": {
					"owner()": {
						"details": "Returns the address of the current owner."
					},
					"proxiableUUID()": {
						"details": "Implementation of the ERC-1822 {proxiableUUID} function. This returns the storage slot used by the implementation. It is used to validate the implementation's compatibility when performing an upgrade. IMPORTANT: A proxy pointing at a proxiable contract should not be considered proxiable itself, because this risks bricking a proxy that upgrades to it, by delegating to itself until out of gas. Thus it is critical that this function revert if invoked through a proxy. This is guaranteed by the `notDelegated` modifier."
					},
					"renounceOwnership()": {
						"details": "Leaves the contract without owner. It will not be possible to call `onlyOwner` functions. Can only be called by the current owner. NOTE: Renouncing ownership will leave the contract without an owner, thereby disabling any functionality that is only available to the owner."
					},
					"transferOwnership(address)": {
						"details": "Transfers ownership of the contract to a new account (`newOwner`). Can only be called by the current owner."
					},
					"upgradeToAndCall(address,bytes)": {
						"custom:oz-upgrades-unsafe-allow-reachable": "delegatecall",
						"details": "Upgrade the implementation of the proxy to `newImplementation`, and subsequently execute the function call encoded in `data`. Calls {_authorizeUpgrade}. Emits an {Upgraded} event."
					}
				},
				"version": 1
			},
			"evm": {
				"assembly": "    /* \"simple-LZ_UUPS.sol\":379:2337  contract SenderContract is Initializable, UUPSUpgradeable, OwnableUpgradeable {... */\n  mstore(0x40, 0xa0)\n    /* \"@openzeppelin/contracts-upgradeable/proxy/utils/UUPSUpgradeable.sol\":1171:1175  this */\n  address\n    /* \"@openzeppelin/contracts-upgradeable/proxy/utils/UUPSUpgradeable.sol\":1128:1176  address private immutable __self = address(this) */\n  0x80\n  mstore\n    /* \"simple-LZ_UUPS.sol\":379:2337  contract SenderContract is Initializable, UUPSUpgradeable, OwnableUpgradeable {... */\n  callvalue\n  dup1\n  iszero\n  tag_1\n  jumpi\n  0x00\n  dup1\n  revert\ntag_1:\n  pop\n  mload(0x80)\n  codecopy(0x00, dataOffset(sub_0), dataSize(sub_0))\n  0x00\n  assignImmutable(\"0xef448810f2c864de688d78e66a279993ed6fcb1e0982295a58bb520e6e338f6b\")\n  return(0x00, dataSize(sub_0))\nstop\n\nsub_0: assembly {\n        /* \"simple-LZ_UUPS.sol\":379:2337  contract SenderContract is Initializable, UUPSUpgradeable, OwnableUpgradeable {... */\n      mstore(0x40, 0x80)\n      jumpi(tag_1, lt(calldatasize, 0x04))\n      shr(0xe0, calldataload(0x00))\n      dup1\n      0x715018a6\n      gt\n      tag_14\n      jumpi\n      dup1\n      0xbb0b6a53\n      gt\n      tag_15\n      jumpi\n      dup1\n      0xbb0b6a53\n      eq\n      tag_11\n      jumpi\n      dup1\n      0xf2fde38b\n      eq\n      tag_12\n      jumpi\n      dup1\n      0xf66fef9f\n      eq\n      tag_13\n      jumpi\n      0x00\n      dup1\n      revert\n    tag_15:\n      dup1\n      0x715018a6\n      eq\n      tag_8\n      jumpi\n      dup1\n      0x8da5cb5b\n      eq\n      tag_9\n      jumpi\n      dup1\n      0xad3cb1cc\n      eq\n      tag_10\n      jumpi\n      0x00\n      dup1\n      revert\n    tag_14:\n      dup1\n      0x4f1ef286\n      gt\n      tag_16\n      jumpi\n      dup1\n      0x4f1ef286\n      eq\n      tag_5\n      jumpi\n      dup1\n      0x52d1902d\n      eq\n      tag_6\n      jumpi\n      dup1\n      0x5e280f11\n      eq\n      tag_7\n      jumpi\n      0x00\n      dup1\n      revert\n    tag_16:\n      dup1\n      0x3400288b\n      eq\n      tag_2\n      jumpi\n      dup1\n      0x4855fe17\n      eq\n      tag_3\n      jumpi\n      dup1\n      0x485cc955\n      eq\n      tag_4\n      jumpi\n    tag_1:\n      0x00\n      dup1\n      revert\n        /* \"simple-LZ_UUPS.sol\":2141:2241  function setPeer(uint32 _eid, bytes32 _peer) external onlyOwner {... */\n    tag_2:\n      callvalue\n      dup1\n      iszero\n      tag_17\n      jumpi\n      0x00\n      dup1\n      revert\n    tag_17:\n      pop\n      tag_18\n      tag_19\n      calldatasize\n      0x04\n      tag_20\n      jump\t// in\n    tag_19:\n      tag_21\n      jump\t// in\n    tag_18:\n      stop\n        /* \"simple-LZ_UUPS.sol\":888:1536  function sendMessage(uint32 _dstEid, string calldata _message, uint256 _value, bytes calldata _options) external payable {... */\n    tag_3:\n      tag_18\n      tag_23\n      calldatasize\n      0x04\n      tag_24\n      jump\t// in\n    tag_23:\n      tag_25\n      jump\t// in\n        /* \"simple-LZ_UUPS.sol\":641:878  function initialize(address _endpoint, address _owner) public initializer {... */\n    tag_4:\n      callvalue\n      dup1\n      iszero\n      tag_26\n      jumpi\n      0x00\n      dup1\n      revert\n    tag_26:\n      pop\n      tag_18\n      tag_28\n      calldatasize\n      0x04\n      tag_29\n      jump\t// in\n    tag_28:\n      tag_30\n      jump\t// in\n        /* \"@openzeppelin/contracts-upgradeable/proxy/utils/UUPSUpgradeable.sol\":4161:4375  function upgradeToAndCall(address newImplementation, bytes memory data) public payable virtual onlyProxy {... */\n    tag_5:\n      tag_18\n      tag_32\n      calldatasize\n      0x04\n      tag_33\n      jump\t// in\n    tag_32:\n      tag_34\n      jump\t// in\n        /* \"@openzeppelin/contracts-upgradeable/proxy/utils/UUPSUpgradeable.sol\":3708:3842  function proxiableUUID() external view virtual notDelegated returns (bytes32) {... */\n    tag_6:\n      callvalue\n      dup1\n      iszero\n      tag_35\n      jumpi\n      0x00\n      dup1\n      revert\n    tag_35:\n      pop\n      tag_36\n      tag_37\n      jump\t// in\n    tag_36:\n      mload(0x40)\n        /* \"#utility.yul\":3521:3546   */\n      swap1\n      dup2\n      mstore\n        /* \"#utility.yul\":3509:3511   */\n      0x20\n        /* \"#utility.yul\":3494:3512   */\n      add\n        /* \"@openzeppelin/contracts-upgradeable/proxy/utils/UUPSUpgradeable.sol\":3708:3842  function proxiableUUID() external view virtual notDelegated returns (bytes32) {... */\n    tag_38:\n      mload(0x40)\n      dup1\n      swap2\n      sub\n      swap1\n      return\n        /* \"simple-LZ_UUPS.sol\":463:499  ILayerZeroEndpointV2 public endpoint */\n    tag_7:\n      callvalue\n      dup1\n      iszero\n      tag_40\n      jumpi\n      0x00\n      dup1\n      revert\n    tag_40:\n      pop\n      sload(0x00)\n      tag_41\n      swap1\n      sub(shl(0xa0, 0x01), 0x01)\n      and\n      dup2\n      jump\n    tag_41:\n      mload(0x40)\n      sub(shl(0xa0, 0x01), 0x01)\n        /* \"#utility.yul\":3749:3804   */\n      swap1\n      swap2\n      and\n        /* \"#utility.yul\":3731:3805   */\n      dup2\n      mstore\n        /* \"#utility.yul\":3719:3721   */\n      0x20\n        /* \"#utility.yul\":3704:3722   */\n      add\n        /* \"simple-LZ_UUPS.sol\":463:499  ILayerZeroEndpointV2 public endpoint */\n      tag_38\n        /* \"#utility.yul\":3557:3811   */\n      jump\n        /* \"@openzeppelin/contracts-upgradeable/access/OwnableUpgradeable.sol\":3155:3256  function renounceOwnership() public virtual onlyOwner {... */\n    tag_8:\n      callvalue\n      dup1\n      iszero\n      tag_45\n      jumpi\n      0x00\n      dup1\n      revert\n    tag_45:\n      pop\n      tag_18\n      tag_47\n      jump\t// in\n        /* \"@openzeppelin/contracts-upgradeable/access/OwnableUpgradeable.sol\":2441:2585  function owner() public view virtual returns (address) {... */\n    tag_9:\n      callvalue\n      dup1\n      iszero\n      tag_48\n      jumpi\n      0x00\n      dup1\n      revert\n    tag_48:\n      pop\n        /* \"@openzeppelin/contracts-upgradeable/access/OwnableUpgradeable.sol\":1313:1335  OwnableStorageLocation */\n      0x9016d09d72d40fdae2fd8ceac6b6234c7706214fd39c1cd1e609a0528c199300\n        /* \"@openzeppelin/contracts-upgradeable/access/OwnableUpgradeable.sol\":2570:2578  $._owner */\n      sload\n      sub(shl(0xa0, 0x01), 0x01)\n      and\n        /* \"@openzeppelin/contracts-upgradeable/access/OwnableUpgradeable.sol\":2441:2585  function owner() public view virtual returns (address) {... */\n      jump(tag_41)\n        /* \"@openzeppelin/contracts-upgradeable/proxy/utils/UUPSUpgradeable.sol\":1819:1877  string public constant UPGRADE_INTERFACE_VERSION = \"5.0.0\" */\n    tag_10:\n      callvalue\n      dup1\n      iszero\n      tag_53\n      jumpi\n      0x00\n      dup1\n      revert\n    tag_53:\n      pop\n      tag_54\n      mload(0x40)\n      dup1\n      0x40\n      add\n      0x40\n      mstore\n      dup1\n      0x05\n      dup2\n      mstore\n      0x20\n      add\n      shl(0xdc, 0x0352e302e3)\n      dup2\n      mstore\n      pop\n      dup2\n      jump\n    tag_54:\n      mload(0x40)\n      tag_38\n      swap2\n      swap1\n      tag_57\n      jump\t// in\n        /* \"simple-LZ_UUPS.sol\":505:544  mapping(uint32 => bytes32) public peers */\n    tag_11:\n      callvalue\n      dup1\n      iszero\n      tag_58\n      jumpi\n      0x00\n      dup1\n      revert\n    tag_58:\n      pop\n      tag_36\n      tag_60\n      calldatasize\n      0x04\n      tag_61\n      jump\t// in\n    tag_60:\n      mstore(0x20, 0x01)\n      0x00\n      swap1\n      dup2\n      mstore\n      0x40\n      swap1\n      keccak256\n      sload\n      dup2\n      jump\n        /* \"@openzeppelin/contracts-upgradeable/access/OwnableUpgradeable.sol\":3405:3620  function transferOwnership(address newOwner) public virtual onlyOwner {... */\n    tag_12:\n      callvalue\n      dup1\n      iszero\n      tag_64\n      jumpi\n      0x00\n      dup1\n      revert\n    tag_64:\n      pop\n      tag_18\n      tag_66\n      calldatasize\n      0x04\n      tag_67\n      jump\t// in\n    tag_66:\n      tag_68\n      jump\t// in\n        /* \"simple-LZ_UUPS.sol\":1546:2131  function quote(uint32 _dstEid, string calldata _message, uint256 _value, bytes calldata _options) external view returns (MessagingFee memory fee) {... */\n    tag_13:\n      callvalue\n      dup1\n      iszero\n      tag_69\n      jumpi\n      0x00\n      dup1\n      revert\n    tag_69:\n      pop\n      tag_70\n      tag_71\n      calldatasize\n      0x04\n      tag_24\n      jump\t// in\n    tag_71:\n      tag_72\n      jump\t// in\n    tag_70:\n      0x40\n      dup1\n      mload\n        /* \"#utility.yul\":5403:5416   */\n      dup3\n      mload\n        /* \"#utility.yul\":5385:5417   */\n      dup2\n      mstore\n        /* \"#utility.yul\":5473:5477   */\n      0x20\n        /* \"#utility.yul\":5461:5478   */\n      swap3\n      dup4\n      add\n        /* \"#utility.yul\":5455:5479   */\n      mload\n        /* \"#utility.yul\":5433:5453   */\n      swap3\n      dup2\n      add\n        /* \"#utility.yul\":5426:5480   */\n      swap3\n      swap1\n      swap3\n      mstore\n        /* \"#utility.yul\":5358:5376   */\n      add\n        /* \"simple-LZ_UUPS.sol\":1546:2131  function quote(uint32 _dstEid, string calldata _message, uint256 _value, bytes calldata _options) external view returns (MessagingFee memory fee) {... */\n      tag_38\n        /* \"#utility.yul\":5183:5486   */\n      jump\n        /* \"simple-LZ_UUPS.sol\":2141:2241  function setPeer(uint32 _eid, bytes32 _peer) external onlyOwner {... */\n    tag_21:\n        /* \"@openzeppelin/contracts-upgradeable/access/OwnableUpgradeable.sol\":2334:2347  _checkOwner() */\n      tag_76\n        /* \"@openzeppelin/contracts-upgradeable/access/OwnableUpgradeable.sol\":2334:2345  _checkOwner */\n      tag_77\n        /* \"@openzeppelin/contracts-upgradeable/access/OwnableUpgradeable.sol\":2334:2347  _checkOwner() */\n      jump\t// in\n    tag_76:\n        /* \"simple-LZ_UUPS.sol\":2215:2226  peers[_eid] */\n      0xffffffff\n      swap1\n      swap2\n      and\n      0x00\n      swap1\n      dup2\n      mstore\n        /* \"simple-LZ_UUPS.sol\":2215:2220  peers */\n      0x01\n        /* \"simple-LZ_UUPS.sol\":2215:2226  peers[_eid] */\n      0x20\n      mstore\n      0x40\n      swap1\n      keccak256\n        /* \"simple-LZ_UUPS.sol\":2215:2234  peers[_eid] = _peer */\n      sstore\n        /* \"simple-LZ_UUPS.sol\":2141:2241  function setPeer(uint32 _eid, bytes32 _peer) external onlyOwner {... */\n      jump\t// out\n        /* \"simple-LZ_UUPS.sol\":888:1536  function sendMessage(uint32 _dstEid, string calldata _message, uint256 _value, bytes calldata _options) external payable {... */\n    tag_25:\n        /* \"simple-LZ_UUPS.sol\":1027:1041  peers[_dstEid] */\n      0xffffffff\n      dup7\n      and\n        /* \"simple-LZ_UUPS.sol\":1053:1054  0 */\n      0x00\n        /* \"simple-LZ_UUPS.sol\":1027:1041  peers[_dstEid] */\n      swap1\n      dup2\n      mstore\n        /* \"simple-LZ_UUPS.sol\":1027:1032  peers */\n      0x01\n        /* \"simple-LZ_UUPS.sol\":1027:1041  peers[_dstEid] */\n      0x20\n      mstore\n      0x40\n      swap1\n      keccak256\n      sload\n        /* \"simple-LZ_UUPS.sol\":1019:1072  require(peers[_dstEid] != bytes32(0), \"Peer not set\") */\n      tag_80\n      jumpi\n      mload(0x40)\n      shl(0xe5, 0x461bcd)\n      dup2\n      mstore\n        /* \"#utility.yul\":5693:5695   */\n      0x20\n        /* \"simple-LZ_UUPS.sol\":1019:1072  require(peers[_dstEid] != bytes32(0), \"Peer not set\") */\n      0x04\n      dup3\n      add\n        /* \"#utility.yul\":5675:5696   */\n      mstore\n        /* \"#utility.yul\":5732:5734   */\n      0x0c\n        /* \"#utility.yul\":5712:5730   */\n      0x24\n      dup3\n      add\n        /* \"#utility.yul\":5705:5735   */\n      mstore\n      shl(0xa2, 0x1419595c881b9bdd081cd95d)\n        /* \"#utility.yul\":5751:5769   */\n      0x44\n      dup3\n      add\n        /* \"#utility.yul\":5744:5786   */\n      mstore\n        /* \"#utility.yul\":5803:5821   */\n      0x64\n      add\n        /* \"simple-LZ_UUPS.sol\":1019:1072  require(peers[_dstEid] != bytes32(0), \"Peer not set\") */\n    tag_81:\n      mload(0x40)\n      dup1\n      swap2\n      sub\n      swap1\n      revert\n    tag_80:\n        /* \"simple-LZ_UUPS.sol\":1091:1111  bytes memory payload */\n      0x00\n        /* \"simple-LZ_UUPS.sol\":1125:1133  _message */\n      dup6\n      dup6\n        /* \"simple-LZ_UUPS.sol\":1135:1141  _value */\n      dup6\n        /* \"simple-LZ_UUPS.sol\":1114:1142  abi.encode(_message, _value) */\n      add(0x20, mload(0x40))\n      tag_83\n      swap4\n      swap3\n      swap2\n      swap1\n      tag_84\n      jump\t// in\n    tag_83:\n      0x40\n      dup1\n      mload\n      not(0x1f)\n      dup2\n      dup5\n      sub\n      add\n      dup2\n      mstore\n        /* \"simple-LZ_UUPS.sol\":1193:1381  MessagingParams({... */\n      0xa0\n      dup4\n      add\n      dup3\n      mstore\n      0xffffffff\n      dup11\n      and\n      dup1\n      dup5\n      mstore\n        /* \"simple-LZ_UUPS.sol\":1161:1190  MessagingParams memory params */\n      0x00\n        /* \"simple-LZ_UUPS.sol\":1262:1276  peers[_dstEid] */\n      swap1\n      dup2\n      mstore\n        /* \"simple-LZ_UUPS.sol\":1262:1267  peers */\n      0x01\n        /* \"simple-LZ_UUPS.sol\":1114:1142  abi.encode(_message, _value) */\n      0x20\n        /* \"simple-LZ_UUPS.sol\":1262:1276  peers[_dstEid] */\n      swap1\n      dup2\n      mstore\n      dup4\n      dup3\n      keccak256\n      sload\n        /* \"simple-LZ_UUPS.sol\":1193:1381  MessagingParams({... */\n      dup6\n      dup3\n      add\n      mstore\n      dup5\n      dup5\n      add\n      dup4\n      swap1\n      mstore\n      dup4\n      mload\n      0x1f\n      dup9\n      add\n      dup3\n      swap1\n      div\n      dup3\n      mul\n      dup2\n      add\n      dup3\n      add\n      swap1\n      swap5\n      mstore\n      dup7\n      dup5\n      mstore\n        /* \"simple-LZ_UUPS.sol\":1114:1142  abi.encode(_message, _value) */\n      swap2\n      swap5\n      pop\n        /* \"simple-LZ_UUPS.sol\":1161:1190  MessagingParams memory params */\n      swap3\n        /* \"simple-LZ_UUPS.sol\":1114:1142  abi.encode(_message, _value) */\n      swap2\n        /* \"simple-LZ_UUPS.sol\":1193:1381  MessagingParams({... */\n      0x60\n      dup4\n      add\n      swap2\n        /* \"simple-LZ_UUPS.sol\":1329:1337  _options */\n      dup8\n      swap1\n      dup8\n      swap1\n      dup2\n      swap1\n        /* \"simple-LZ_UUPS.sol\":1193:1381  MessagingParams({... */\n      dup5\n      add\n        /* \"simple-LZ_UUPS.sol\":1329:1337  _options */\n      dup4\n      dup3\n      dup1\n      dup3\n        /* \"simple-LZ_UUPS.sol\":1193:1381  MessagingParams({... */\n      dup5\n      calldatacopy\n      0x00\n      swap3\n      add\n      dup3\n      swap1\n      mstore\n      pop\n      swap4\n      dup6\n      mstore\n      pop\n      pop\n      pop\n      0x20\n      swap1\n      swap2\n      add\n      dup2\n      swap1\n      mstore\n        /* \"simple-LZ_UUPS.sol\":1400:1408  endpoint */\n      sload\n        /* \"simple-LZ_UUPS.sol\":1400:1451  endpoint.send{value: msg.value}(params, msg.sender) */\n      mload(0x40)\n      shl(0xe4, 0x02637a45)\n      dup2\n      mstore\n        /* \"simple-LZ_UUPS.sol\":1161:1381  MessagingParams memory params = MessagingParams({... */\n      swap2\n      swap3\n      pop\n      sub(shl(0xa0, 0x01), 0x01)\n        /* \"simple-LZ_UUPS.sol\":1400:1408  endpoint */\n      and\n      swap1\n        /* \"simple-LZ_UUPS.sol\":1400:1413  endpoint.send */\n      0x2637a450\n      swap1\n        /* \"simple-LZ_UUPS.sol\":1421:1430  msg.value */\n      callvalue\n      swap1\n        /* \"simple-LZ_UUPS.sol\":1400:1451  endpoint.send{value: msg.value}(params, msg.sender) */\n      tag_85\n      swap1\n        /* \"simple-LZ_UUPS.sol\":1161:1381  MessagingParams memory params = MessagingParams({... */\n      dup6\n      swap1\n        /* \"simple-LZ_UUPS.sol\":1440:1450  msg.sender */\n      caller\n      swap1\n        /* \"simple-LZ_UUPS.sol\":1400:1451  endpoint.send{value: msg.value}(params, msg.sender) */\n      0x04\n      add\n      tag_86\n      jump\t// in\n    tag_85:\n      0x80\n      mload(0x40)\n      dup1\n      dup4\n      sub\n      dup2\n      dup6\n      dup9\n      gas\n      call\n      iszero\n      dup1\n      iszero\n      tag_88\n      jumpi\n      returndatasize\n      0x00\n      dup1\n      returndatacopy\n      revert(0x00, returndatasize)\n    tag_88:\n      pop\n      pop\n      pop\n      pop\n      pop\n      mload(0x40)\n      returndatasize\n      not(0x1f)\n      0x1f\n      dup3\n      add\n      and\n      dup3\n      add\n      dup1\n      0x40\n      mstore\n      pop\n      dup2\n      add\n      swap1\n      tag_89\n      swap2\n      swap1\n      tag_90\n      jump\t// in\n    tag_89:\n      pop\n        /* \"simple-LZ_UUPS.sol\":1496:1510  peers[_dstEid] */\n      0xffffffff\n      dup9\n      and\n      0x00\n      swap1\n      dup2\n      mstore\n        /* \"simple-LZ_UUPS.sol\":1496:1501  peers */\n      0x01\n        /* \"simple-LZ_UUPS.sol\":1496:1510  peers[_dstEid] */\n      0x20\n      mstore\n      0x40\n      swap1\n      dup2\n      swap1\n      keccak256\n      sload\n        /* \"simple-LZ_UUPS.sol\":1475:1529  MessageSent(_dstEid, peers[_dstEid], _message, _value) */\n      swap1\n      mload\n      0x3aee2e9f3d248dc7e0f1a5564e3bacc5c9bd7c31967d06b5c277e1a0767a6a12\n      swap2\n      tag_91\n      swap2\n        /* \"simple-LZ_UUPS.sol\":1487:1494  _dstEid */\n      dup12\n      swap2\n        /* \"simple-LZ_UUPS.sol\":1496:1510  peers[_dstEid] */\n      swap1\n        /* \"simple-LZ_UUPS.sol\":1512:1520  _message */\n      dup12\n      swap1\n      dup12\n      swap1\n        /* \"simple-LZ_UUPS.sol\":1522:1528  _value */\n      dup12\n      swap1\n        /* \"simple-LZ_UUPS.sol\":1475:1529  MessageSent(_dstEid, peers[_dstEid], _message, _value) */\n      tag_92\n      jump\t// in\n    tag_91:\n      mload(0x40)\n      dup1\n      swap2\n      sub\n      swap1\n      log1\n        /* \"simple-LZ_UUPS.sol\":1009:1536  {... */\n      pop\n      pop\n        /* \"simple-LZ_UUPS.sol\":888:1536  function sendMessage(uint32 _dstEid, string calldata _message, uint256 _value, bytes calldata _options) external payable {... */\n      pop\n      pop\n      pop\n      pop\n      pop\n      pop\n      jump\t// out\n        /* \"simple-LZ_UUPS.sol\":641:878  function initialize(address _endpoint, address _owner) public initializer {... */\n    tag_30:\n        /* \"@openzeppelin/contracts-upgradeable/proxy/utils/Initializable.sol\":3147:3213  0xf0c57e16840df040f15088dc2f81fe391c3923bec73e23a9662efc9c229c6a00 */\n      0xf0c57e16840df040f15088dc2f81fe391c3923bec73e23a9662efc9c229c6a00\n        /* \"@openzeppelin/contracts-upgradeable/proxy/utils/Initializable.sol\":4302:4317  $._initializing */\n      dup1\n      sload\n      shl(0x40, 0x01)\n      dup2\n      div\n      0xff\n      and\n        /* \"@openzeppelin/contracts-upgradeable/proxy/utils/Initializable.sol\":4301:4317  !$._initializing */\n      iszero\n      swap1\n        /* \"@openzeppelin/contracts-upgradeable/proxy/utils/Initializable.sol\":4348:4362  $._initialized */\n      0xffffffffffffffff\n      and\n        /* \"@openzeppelin/contracts-upgradeable/proxy/utils/Initializable.sol\":4158:4188  InitializableStorage storage $ */\n      0x00\n        /* \"@openzeppelin/contracts-upgradeable/proxy/utils/Initializable.sol\":4724:4740  initialized == 0 */\n      dup2\n      iszero\n        /* \"@openzeppelin/contracts-upgradeable/proxy/utils/Initializable.sol\":4724:4758  initialized == 0 && isTopLevelCall */\n      dup1\n      iszero\n      tag_96\n      jumpi\n      pop\n        /* \"@openzeppelin/contracts-upgradeable/proxy/utils/Initializable.sol\":4744:4758  isTopLevelCall */\n      dup3\n        /* \"@openzeppelin/contracts-upgradeable/proxy/utils/Initializable.sol\":4724:4758  initialized == 0 && isTopLevelCall */\n    tag_96:\n        /* \"@openzeppelin/contracts-upgradeable/proxy/utils/Initializable.sol\":4704:4758  bool initialSetup = initialized == 0 && isTopLevelCall */\n      swap1\n      pop\n        /* \"@openzeppelin/contracts-upgradeable/proxy/utils/Initializable.sol\":4768:4785  bool construction */\n      0x00\n        /* \"@openzeppelin/contracts-upgradeable/proxy/utils/Initializable.sol\":4788:4799  initialized */\n      dup3\n        /* \"@openzeppelin/contracts-upgradeable/proxy/utils/Initializable.sol\":4788:4804  initialized == 1 */\n      0xffffffffffffffff\n      and\n        /* \"@openzeppelin/contracts-upgradeable/proxy/utils/Initializable.sol\":4803:4804  1 */\n      0x01\n        /* \"@openzeppelin/contracts-upgradeable/proxy/utils/Initializable.sol\":4788:4804  initialized == 1 */\n      eq\n        /* \"@openzeppelin/contracts-upgradeable/proxy/utils/Initializable.sol\":4788:4838  initialized == 1 && address(this).code.length == 0 */\n      dup1\n      iszero\n      tag_97\n      jumpi\n      pop\n        /* \"@openzeppelin/contracts-upgradeable/proxy/utils/Initializable.sol\":4816:4820  this */\n      address\n        /* \"@openzeppelin/contracts-upgradeable/proxy/utils/Initializable.sol\":4808:4833  address(this).code.length */\n      extcodesize\n        /* \"@openzeppelin/contracts-upgradeable/proxy/utils/Initializable.sol\":4808:4838  address(this).code.length == 0 */\n      iszero\n        /* \"@openzeppelin/contracts-upgradeable/proxy/utils/Initializable.sol\":4788:4838  initialized == 1 && address(this).code.length == 0 */\n    tag_97:\n        /* \"@openzeppelin/contracts-upgradeable/proxy/utils/Initializable.sol\":4768:4838  bool construction = initialized == 1 && address(this).code.length == 0 */\n      swap1\n      pop\n        /* \"@openzeppelin/contracts-upgradeable/proxy/utils/Initializable.sol\":4854:4866  initialSetup */\n      dup2\n        /* \"@openzeppelin/contracts-upgradeable/proxy/utils/Initializable.sol\":4853:4866  !initialSetup */\n      iszero\n        /* \"@openzeppelin/contracts-upgradeable/proxy/utils/Initializable.sol\":4853:4883  !initialSetup && !construction */\n      dup1\n      iszero\n      tag_98\n      jumpi\n      pop\n        /* \"@openzeppelin/contracts-upgradeable/proxy/utils/Initializable.sol\":4871:4883  construction */\n      dup1\n        /* \"@openzeppelin/contracts-upgradeable/proxy/utils/Initializable.sol\":4870:4883  !construction */\n      iszero\n        /* \"@openzeppelin/contracts-upgradeable/proxy/utils/Initializable.sol\":4853:4883  !initialSetup && !construction */\n    tag_98:\n        /* \"@openzeppelin/contracts-upgradeable/proxy/utils/Initializable.sol\":4849:4940  if (!initialSetup && !construction) {... */\n      iszero\n      tag_99\n      jumpi\n        /* \"@openzeppelin/contracts-upgradeable/proxy/utils/Initializable.sol\":4906:4929  InvalidInitialization() */\n      mload(0x40)\n      shl(0xe0, 0xf92ee8a9)\n      dup2\n      mstore\n      0x04\n      add\n      mload(0x40)\n      dup1\n      swap2\n      sub\n      swap1\n      revert\n        /* \"@openzeppelin/contracts-upgradeable/proxy/utils/Initializable.sol\":4849:4940  if (!initialSetup && !construction) {... */\n    tag_99:\n        /* \"@openzeppelin/contracts-upgradeable/proxy/utils/Initializable.sol\":4949:4967  $._initialized = 1 */\n      dup5\n      sload\n      not(0xffffffffffffffff)\n      and\n        /* \"@openzeppelin/contracts-upgradeable/proxy/utils/Initializable.sol\":4966:4967  1 */\n      0x01\n        /* \"@openzeppelin/contracts-upgradeable/proxy/utils/Initializable.sol\":4949:4967  $._initialized = 1 */\n      or\n      dup6\n      sstore\n        /* \"@openzeppelin/contracts-upgradeable/proxy/utils/Initializable.sol\":4977:5044  if (isTopLevelCall) {... */\n      dup4\n      iszero\n      tag_100\n      jumpi\n        /* \"@openzeppelin/contracts-upgradeable/proxy/utils/Initializable.sol\":5011:5033  $._initializing = true */\n      dup5\n      sload\n      not(shl(0x40, 0xff))\n      and\n      shl(0x40, 0x01)\n      or\n      dup6\n      sstore\n        /* \"@openzeppelin/contracts-upgradeable/proxy/utils/Initializable.sol\":4977:5044  if (isTopLevelCall) {... */\n    tag_100:\n        /* \"simple-LZ_UUPS.sol\":725:747  __Ownable_init(_owner) */\n      tag_102\n        /* \"simple-LZ_UUPS.sol\":740:746  _owner */\n      dup7\n        /* \"simple-LZ_UUPS.sol\":725:739  __Ownable_init */\n      tag_103\n        /* \"simple-LZ_UUPS.sol\":725:747  __Ownable_init(_owner) */\n      jump\t// in\n    tag_102:\n        /* \"simple-LZ_UUPS.sol\":757:781  __UUPSUpgradeable_init() */\n      tag_104\n        /* \"simple-LZ_UUPS.sol\":757:779  __UUPSUpgradeable_init */\n      tag_105\n        /* \"simple-LZ_UUPS.sol\":757:781  __UUPSUpgradeable_init() */\n      jump\t// in\n    tag_104:\n        /* \"simple-LZ_UUPS.sol\":791:799  endpoint */\n      0x00\n        /* \"simple-LZ_UUPS.sol\":791:833  endpoint = ILayerZeroEndpointV2(_endpoint) */\n      dup1\n      sload\n      not(sub(shl(0xa0, 0x01), 0x01))\n      and\n      sub(shl(0xa0, 0x01), 0x01)\n      dup10\n      dup2\n      and\n      swap2\n      dup3\n      or\n      swap1\n      swap3\n      sstore\n        /* \"simple-LZ_UUPS.sol\":843:871  endpoint.setDelegate(_owner) */\n      mload(0x40)\n      shl(0xe0, 0xca5eb5e1)\n      dup2\n      mstore\n        /* \"#utility.yul\":3749:3804   */\n      swap2\n      dup9\n      and\n        /* \"simple-LZ_UUPS.sol\":843:871  endpoint.setDelegate(_owner) */\n      0x04\n      dup4\n      add\n        /* \"#utility.yul\":3731:3805   */\n      mstore\n        /* \"simple-LZ_UUPS.sol\":791:833  endpoint = ILayerZeroEndpointV2(_endpoint) */\n      swap1\n        /* \"simple-LZ_UUPS.sol\":843:863  endpoint.setDelegate */\n      0xca5eb5e1\n      swap1\n        /* \"#utility.yul\":3704:3722   */\n      0x24\n      add\n        /* \"simple-LZ_UUPS.sol\":843:871  endpoint.setDelegate(_owner) */\n      0x00\n      mload(0x40)\n      dup1\n      dup4\n      sub\n      dup2\n      0x00\n      dup8\n      dup1\n      extcodesize\n      iszero\n      dup1\n      iszero\n      tag_107\n      jumpi\n      0x00\n      dup1\n      revert\n    tag_107:\n      pop\n      gas\n      call\n      iszero\n      dup1\n      iszero\n      tag_109\n      jumpi\n      returndatasize\n      0x00\n      dup1\n      returndatacopy\n      revert(0x00, returndatasize)\n    tag_109:\n      pop\n      pop\n      pop\n      pop\n        /* \"@openzeppelin/contracts-upgradeable/proxy/utils/Initializable.sol\":5068:5082  isTopLevelCall */\n      dup4\n        /* \"@openzeppelin/contracts-upgradeable/proxy/utils/Initializable.sol\":5064:5165  if (isTopLevelCall) {... */\n      iszero\n      tag_110\n      jumpi\n        /* \"@openzeppelin/contracts-upgradeable/proxy/utils/Initializable.sol\":5098:5121  $._initializing = false */\n      dup5\n      sload\n      not(shl(0x40, 0xff))\n      and\n      dup6\n      sstore\n        /* \"@openzeppelin/contracts-upgradeable/proxy/utils/Initializable.sol\":5140:5154  Initialized(1) */\n      mload(0x40)\n      0x01\n        /* \"#utility.yul\":9424:9474   */\n      dup2\n      mstore\n        /* \"@openzeppelin/contracts-upgradeable/proxy/utils/Initializable.sol\":5140:5154  Initialized(1) */\n      0xc7f505b2f371ae2175ee4913f4499e1f2633a7b5936321eed1cdaeb6115181d2\n      swap1\n        /* \"#utility.yul\":9412:9414   */\n      0x20\n        /* \"#utility.yul\":9397:9415   */\n      add\n        /* \"@openzeppelin/contracts-upgradeable/proxy/utils/Initializable.sol\":5140:5154  Initialized(1) */\n      mload(0x40)\n      dup1\n      swap2\n      sub\n      swap1\n      log1\n        /* \"@openzeppelin/contracts-upgradeable/proxy/utils/Initializable.sol\":5064:5165  if (isTopLevelCall) {... */\n    tag_110:\n        /* \"@openzeppelin/contracts-upgradeable/proxy/utils/Initializable.sol\":4092:5171  {... */\n      pop\n      pop\n      pop\n      pop\n      pop\n        /* \"simple-LZ_UUPS.sol\":641:878  function initialize(address _endpoint, address _owner) public initializer {... */\n      pop\n      pop\n      jump\t// out\n        /* \"@openzeppelin/contracts-upgradeable/proxy/utils/UUPSUpgradeable.sol\":4161:4375  function upgradeToAndCall(address newImplementation, bytes memory data) public payable virtual onlyProxy {... */\n    tag_34:\n        /* \"@openzeppelin/contracts-upgradeable/proxy/utils/UUPSUpgradeable.sol\":2655:2668  _checkProxy() */\n      tag_114\n        /* \"@openzeppelin/contracts-upgradeable/proxy/utils/UUPSUpgradeable.sol\":2655:2666  _checkProxy */\n      tag_115\n        /* \"@openzeppelin/contracts-upgradeable/proxy/utils/UUPSUpgradeable.sol\":2655:2668  _checkProxy() */\n      jump\t// in\n    tag_114:\n        /* \"@openzeppelin/contracts-upgradeable/proxy/utils/UUPSUpgradeable.sol\":4276:4312  _authorizeUpgrade(newImplementation) */\n      tag_117\n        /* \"@openzeppelin/contracts-upgradeable/proxy/utils/UUPSUpgradeable.sol\":4294:4311  newImplementation */\n      dup3\n        /* \"@openzeppelin/contracts-upgradeable/proxy/utils/UUPSUpgradeable.sol\":4276:4293  _authorizeUpgrade */\n      tag_118\n        /* \"@openzeppelin/contracts-upgradeable/proxy/utils/UUPSUpgradeable.sol\":4276:4312  _authorizeUpgrade(newImplementation) */\n      jump\t// in\n    tag_117:\n        /* \"@openzeppelin/contracts-upgradeable/proxy/utils/UUPSUpgradeable.sol\":4322:4368  _upgradeToAndCallUUPS(newImplementation, data) */\n      tag_119\n        /* \"@openzeppelin/contracts-upgradeable/proxy/utils/UUPSUpgradeable.sol\":4344:4361  newImplementation */\n      dup3\n        /* \"@openzeppelin/contracts-upgradeable/proxy/utils/UUPSUpgradeable.sol\":4363:4367  data */\n      dup3\n        /* \"@openzeppelin/contracts-upgradeable/proxy/utils/UUPSUpgradeable.sol\":4322:4343  _upgradeToAndCallUUPS */\n      tag_120\n        /* \"@openzeppelin/contracts-upgradeable/proxy/utils/UUPSUpgradeable.sol\":4322:4368  _upgradeToAndCallUUPS(newImplementation, data) */\n      jump\t// in\n    tag_119:\n        /* \"@openzeppelin/contracts-upgradeable/proxy/utils/UUPSUpgradeable.sol\":4161:4375  function upgradeToAndCall(address newImplementation, bytes memory data) public payable virtual onlyProxy {... */\n      pop\n      pop\n      jump\t// out\n        /* \"@openzeppelin/contracts-upgradeable/proxy/utils/UUPSUpgradeable.sol\":3708:3842  function proxiableUUID() external view virtual notDelegated returns (bytes32) {... */\n    tag_37:\n        /* \"@openzeppelin/contracts-upgradeable/proxy/utils/UUPSUpgradeable.sol\":3777:3784  bytes32 */\n      0x00\n        /* \"@openzeppelin/contracts-upgradeable/proxy/utils/UUPSUpgradeable.sol\":2926:2946  _checkNotDelegated() */\n      tag_122\n        /* \"@openzeppelin/contracts-upgradeable/proxy/utils/UUPSUpgradeable.sol\":2926:2944  _checkNotDelegated */\n      tag_123\n        /* \"@openzeppelin/contracts-upgradeable/proxy/utils/UUPSUpgradeable.sol\":2926:2946  _checkNotDelegated() */\n      jump\t// in\n    tag_122:\n      pop\n        /* \"@openzeppelin/contracts/proxy/ERC1967/ERC1967Utils.sol\":811:877  0x360894a13ba1a3210667c828492db98dca3e2076cc3735a920a3ca505d382bbc */\n      0x360894a13ba1a3210667c828492db98dca3e2076cc3735a920a3ca505d382bbc\n        /* \"@openzeppelin/contracts-upgradeable/proxy/utils/UUPSUpgradeable.sol\":3708:3842  function proxiableUUID() external view virtual notDelegated returns (bytes32) {... */\n      swap1\n      jump\t// out\n        /* \"@openzeppelin/contracts-upgradeable/access/OwnableUpgradeable.sol\":3155:3256  function renounceOwnership() public virtual onlyOwner {... */\n    tag_47:\n        /* \"@openzeppelin/contracts-upgradeable/access/OwnableUpgradeable.sol\":2334:2347  _checkOwner() */\n      tag_126\n        /* \"@openzeppelin/contracts-upgradeable/access/OwnableUpgradeable.sol\":2334:2345  _checkOwner */\n      tag_77\n        /* \"@openzeppelin/contracts-upgradeable/access/OwnableUpgradeable.sol\":2334:2347  _checkOwner() */\n      jump\t// in\n    tag_126:\n        /* \"@openzeppelin/contracts-upgradeable/access/OwnableUpgradeable.sol\":3219:3249  _transferOwnership(address(0)) */\n      tag_128\n        /* \"@openzeppelin/contracts-upgradeable/access/OwnableUpgradeable.sol\":3246:3247  0 */\n      0x00\n        /* \"@openzeppelin/contracts-upgradeable/access/OwnableUpgradeable.sol\":3219:3237  _transferOwnership */\n      tag_129\n        /* \"@openzeppelin/contracts-upgradeable/access/OwnableUpgradeable.sol\":3219:3249  _transferOwnership(address(0)) */\n      jump\t// in\n    tag_128:\n        /* \"@openzeppelin/contracts-upgradeable/access/OwnableUpgradeable.sol\":3155:3256  function renounceOwnership() public virtual onlyOwner {... */\n      jump\t// out\n        /* \"@openzeppelin/contracts-upgradeable/access/OwnableUpgradeable.sol\":3405:3620  function transferOwnership(address newOwner) public virtual onlyOwner {... */\n    tag_68:\n        /* \"@openzeppelin/contracts-upgradeable/access/OwnableUpgradeable.sol\":2334:2347  _checkOwner() */\n      tag_134\n        /* \"@openzeppelin/contracts-upgradeable/access/OwnableUpgradeable.sol\":2334:2345  _checkOwner */\n      tag_77\n        /* \"@openzeppelin/contracts-upgradeable/access/OwnableUpgradeable.sol\":2334:2347  _checkOwner() */\n      jump\t// in\n    tag_134:\n      sub(shl(0xa0, 0x01), 0x01)\n        /* \"@openzeppelin/contracts-upgradeable/access/OwnableUpgradeable.sol\":3489:3511  newOwner == address(0) */\n      dup2\n      and\n        /* \"@openzeppelin/contracts-upgradeable/access/OwnableUpgradeable.sol\":3485:3576  if (newOwner == address(0)) {... */\n      tag_136\n      jumpi\n        /* \"@openzeppelin/contracts-upgradeable/access/OwnableUpgradeable.sol\":3534:3565  OwnableInvalidOwner(address(0)) */\n      mload(0x40)\n      shl(0xe0, 0x1e4fbdf7)\n      dup2\n      mstore\n        /* \"@openzeppelin/contracts-upgradeable/access/OwnableUpgradeable.sol\":3562:3563  0 */\n      0x00\n        /* \"@openzeppelin/contracts-upgradeable/access/OwnableUpgradeable.sol\":3534:3565  OwnableInvalidOwner(address(0)) */\n      0x04\n      dup3\n      add\n        /* \"#utility.yul\":3731:3805   */\n      mstore\n        /* \"#utility.yul\":3704:3722   */\n      0x24\n      add\n        /* \"@openzeppelin/contracts-upgradeable/access/OwnableUpgradeable.sol\":3534:3565  OwnableInvalidOwner(address(0)) */\n      tag_81\n        /* \"#utility.yul\":3557:3811   */\n      jump\n        /* \"@openzeppelin/contracts-upgradeable/access/OwnableUpgradeable.sol\":3485:3576  if (newOwner == address(0)) {... */\n    tag_136:\n        /* \"@openzeppelin/contracts-upgradeable/access/OwnableUpgradeable.sol\":3585:3613  _transferOwnership(newOwner) */\n      tag_138\n        /* \"@openzeppelin/contracts-upgradeable/access/OwnableUpgradeable.sol\":3604:3612  newOwner */\n      dup2\n        /* \"@openzeppelin/contracts-upgradeable/access/OwnableUpgradeable.sol\":3585:3603  _transferOwnership */\n      tag_129\n        /* \"@openzeppelin/contracts-upgradeable/access/OwnableUpgradeable.sol\":3585:3613  _transferOwnership(newOwner) */\n      jump\t// in\n    tag_138:\n        /* \"@openzeppelin/contracts-upgradeable/access/OwnableUpgradeable.sol\":3405:3620  function transferOwnership(address newOwner) public virtual onlyOwner {... */\n      pop\n      jump\t// out\n        /* \"simple-LZ_UUPS.sol\":1546:2131  function quote(uint32 _dstEid, string calldata _message, uint256 _value, bytes calldata _options) external view returns (MessagingFee memory fee) {... */\n    tag_72:\n      0x40\n      dup1\n      mload\n      dup1\n      dup3\n      add\n      swap1\n      swap2\n      mstore\n      0x00\n      dup1\n      dup3\n      mstore\n      0x20\n      dup3\n      add\n      mstore\n        /* \"simple-LZ_UUPS.sol\":1710:1724  peers[_dstEid] */\n      0xffffffff\n      dup8\n      and\n        /* \"simple-LZ_UUPS.sol\":1736:1737  0 */\n      0x00\n        /* \"simple-LZ_UUPS.sol\":1710:1724  peers[_dstEid] */\n      swap1\n      dup2\n      mstore\n        /* \"simple-LZ_UUPS.sol\":1710:1715  peers */\n      0x01\n        /* \"simple-LZ_UUPS.sol\":1710:1724  peers[_dstEid] */\n      0x20\n      mstore\n      0x40\n      swap1\n      keccak256\n      sload\n        /* \"simple-LZ_UUPS.sol\":1702:1755  require(peers[_dstEid] != bytes32(0), \"Peer not set\") */\n      tag_142\n      jumpi\n      mload(0x40)\n      shl(0xe5, 0x461bcd)\n      dup2\n      mstore\n        /* \"#utility.yul\":5693:5695   */\n      0x20\n        /* \"simple-LZ_UUPS.sol\":1702:1755  require(peers[_dstEid] != bytes32(0), \"Peer not set\") */\n      0x04\n      dup3\n      add\n        /* \"#utility.yul\":5675:5696   */\n      mstore\n        /* \"#utility.yul\":5732:5734   */\n      0x0c\n        /* \"#utility.yul\":5712:5730   */\n      0x24\n      dup3\n      add\n        /* \"#utility.yul\":5705:5735   */\n      mstore\n      shl(0xa2, 0x1419595c881b9bdd081cd95d)\n        /* \"#utility.yul\":5751:5769   */\n      0x44\n      dup3\n      add\n        /* \"#utility.yul\":5744:5786   */\n      mstore\n        /* \"#utility.yul\":5803:5821   */\n      0x64\n      add\n        /* \"simple-LZ_UUPS.sol\":1702:1755  require(peers[_dstEid] != bytes32(0), \"Peer not set\") */\n      tag_81\n        /* \"#utility.yul\":5491:5827   */\n      jump\n        /* \"simple-LZ_UUPS.sol\":1702:1755  require(peers[_dstEid] != bytes32(0), \"Peer not set\") */\n    tag_142:\n        /* \"simple-LZ_UUPS.sol\":1774:1794  bytes memory payload */\n      0x00\n        /* \"simple-LZ_UUPS.sol\":1808:1816  _message */\n      dup7\n      dup7\n        /* \"simple-LZ_UUPS.sol\":1818:1824  _value */\n      dup7\n        /* \"simple-LZ_UUPS.sol\":1797:1825  abi.encode(_message, _value) */\n      add(0x20, mload(0x40))\n      tag_144\n      swap4\n      swap3\n      swap2\n      swap1\n      tag_84\n      jump\t// in\n    tag_144:\n      0x40\n      dup1\n      mload\n      not(0x1f)\n      dup2\n      dup5\n      sub\n      add\n      dup2\n      mstore\n        /* \"simple-LZ_UUPS.sol\":1876:2064  MessagingParams({... */\n      0xa0\n      dup4\n      add\n      dup3\n      mstore\n      0xffffffff\n      dup12\n      and\n      dup1\n      dup5\n      mstore\n        /* \"simple-LZ_UUPS.sol\":1844:1873  MessagingParams memory params */\n      0x00\n        /* \"simple-LZ_UUPS.sol\":1945:1959  peers[_dstEid] */\n      swap1\n      dup2\n      mstore\n        /* \"simple-LZ_UUPS.sol\":1945:1950  peers */\n      0x01\n        /* \"simple-LZ_UUPS.sol\":1797:1825  abi.encode(_message, _value) */\n      0x20\n        /* \"simple-LZ_UUPS.sol\":1945:1959  peers[_dstEid] */\n      swap1\n      dup2\n      mstore\n      dup4\n      dup3\n      keccak256\n      sload\n        /* \"simple-LZ_UUPS.sol\":1876:2064  MessagingParams({... */\n      dup6\n      dup3\n      add\n      mstore\n      dup5\n      dup5\n      add\n      dup4\n      swap1\n      mstore\n      dup4\n      mload\n      0x1f\n      dup10\n      add\n      dup3\n      swap1\n      div\n      dup3\n      mul\n      dup2\n      add\n      dup3\n      add\n      swap1\n      swap5\n      mstore\n      dup8\n      dup5\n      mstore\n        /* \"simple-LZ_UUPS.sol\":1797:1825  abi.encode(_message, _value) */\n      swap2\n      swap5\n      pop\n        /* \"simple-LZ_UUPS.sol\":1844:1873  MessagingParams memory params */\n      swap3\n        /* \"simple-LZ_UUPS.sol\":1797:1825  abi.encode(_message, _value) */\n      swap2\n        /* \"simple-LZ_UUPS.sol\":1876:2064  MessagingParams({... */\n      0x60\n      dup4\n      add\n      swap2\n        /* \"simple-LZ_UUPS.sol\":2012:2020  _options */\n      dup9\n      swap1\n      dup9\n      swap1\n      dup2\n      swap1\n        /* \"simple-LZ_UUPS.sol\":1876:2064  MessagingParams({... */\n      dup5\n      add\n        /* \"simple-LZ_UUPS.sol\":2012:2020  _options */\n      dup4\n      dup3\n      dup1\n      dup3\n        /* \"simple-LZ_UUPS.sol\":1876:2064  MessagingParams({... */\n      dup5\n      calldatacopy\n      0x00\n      swap3\n      add\n      dup3\n      swap1\n      mstore\n      pop\n      swap4\n      dup6\n      mstore\n      pop\n      pop\n      pop\n      0x20\n      swap1\n      swap2\n      add\n      dup2\n      swap1\n      mstore\n        /* \"simple-LZ_UUPS.sol\":2090:2098  endpoint */\n      sload\n        /* \"simple-LZ_UUPS.sol\":2090:2124  endpoint.quote(params, msg.sender) */\n      mload(0x40)\n      shl(0xe3, 0x1bb8518b)\n      dup2\n      mstore\n        /* \"simple-LZ_UUPS.sol\":1844:2064  MessagingParams memory params = MessagingParams({... */\n      swap2\n      swap3\n      pop\n      sub(shl(0xa0, 0x01), 0x01)\n        /* \"simple-LZ_UUPS.sol\":2090:2098  endpoint */\n      and\n      swap1\n        /* \"simple-LZ_UUPS.sol\":2090:2104  endpoint.quote */\n      0xddc28c58\n      swap1\n        /* \"simple-LZ_UUPS.sol\":2090:2124  endpoint.quote(params, msg.sender) */\n      tag_145\n      swap1\n        /* \"simple-LZ_UUPS.sol\":1844:2064  MessagingParams memory params = MessagingParams({... */\n      dup5\n      swap1\n        /* \"simple-LZ_UUPS.sol\":2113:2123  msg.sender */\n      caller\n      swap1\n        /* \"simple-LZ_UUPS.sol\":2090:2124  endpoint.quote(params, msg.sender) */\n      0x04\n      add\n      tag_86\n      jump\t// in\n    tag_145:\n      0x40\n      dup1\n      mload\n      dup1\n      dup4\n      sub\n      dup2\n      dup7\n      gas\n      staticcall\n      iszero\n      dup1\n      iszero\n      tag_147\n      jumpi\n      returndatasize\n      0x00\n      dup1\n      returndatacopy\n      revert(0x00, returndatasize)\n    tag_147:\n      pop\n      pop\n      pop\n      pop\n      mload(0x40)\n      returndatasize\n      not(0x1f)\n      0x1f\n      dup3\n      add\n      and\n      dup3\n      add\n      dup1\n      0x40\n      mstore\n      pop\n      dup2\n      add\n      swap1\n      tag_148\n      swap2\n      swap1\n      tag_149\n      jump\t// in\n    tag_148:\n        /* \"simple-LZ_UUPS.sol\":2083:2124  return endpoint.quote(params, msg.sender) */\n      swap10\n        /* \"simple-LZ_UUPS.sol\":1546:2131  function quote(uint32 _dstEid, string calldata _message, uint256 _value, bytes calldata _options) external view returns (MessagingFee memory fee) {... */\n      swap9\n      pop\n      pop\n      pop\n      pop\n      pop\n      pop\n      pop\n      pop\n      pop\n      jump\t// out\n        /* \"@openzeppelin/contracts-upgradeable/access/OwnableUpgradeable.sol\":2658:2820  function _checkOwner() internal view virtual {... */\n    tag_77:\n        /* \"@openzeppelin/contracts-upgradeable/utils/ContextUpgradeable.sol\":966:976  msg.sender */\n      caller\n        /* \"@openzeppelin/contracts-upgradeable/access/OwnableUpgradeable.sol\":2717:2724  owner() */\n      tag_153\n        /* \"@openzeppelin/contracts-upgradeable/access/OwnableUpgradeable.sol\":1313:1335  OwnableStorageLocation */\n      0x9016d09d72d40fdae2fd8ceac6b6234c7706214fd39c1cd1e609a0528c199300\n        /* \"@openzeppelin/contracts-upgradeable/access/OwnableUpgradeable.sol\":2570:2578  $._owner */\n      sload\n      sub(shl(0xa0, 0x01), 0x01)\n      and\n      swap1\n        /* \"@openzeppelin/contracts-upgradeable/access/OwnableUpgradeable.sol\":2441:2585  function owner() public view virtual returns (address) {... */\n      jump\n        /* \"@openzeppelin/contracts-upgradeable/access/OwnableUpgradeable.sol\":2717:2724  owner() */\n    tag_153:\n      sub(shl(0xa0, 0x01), 0x01)\n        /* \"@openzeppelin/contracts-upgradeable/access/OwnableUpgradeable.sol\":2717:2740  owner() != _msgSender() */\n      and\n      eq\n        /* \"@openzeppelin/contracts-upgradeable/access/OwnableUpgradeable.sol\":2713:2814  if (owner() != _msgSender()) {... */\n      tag_128\n      jumpi\n        /* \"@openzeppelin/contracts-upgradeable/access/OwnableUpgradeable.sol\":2763:2803  OwnableUnauthorizedAccount(_msgSender()) */\n      mload(0x40)\n      shl(0xe0, 0x118cdaa7)\n      dup2\n      mstore\n        /* \"@openzeppelin/contracts-upgradeable/utils/ContextUpgradeable.sol\":966:976  msg.sender */\n      caller\n        /* \"@openzeppelin/contracts-upgradeable/access/OwnableUpgradeable.sol\":2763:2803  OwnableUnauthorizedAccount(_msgSender()) */\n      0x04\n      dup3\n      add\n        /* \"#utility.yul\":3731:3805   */\n      mstore\n        /* \"#utility.yul\":3704:3722   */\n      0x24\n      add\n        /* \"@openzeppelin/contracts-upgradeable/access/OwnableUpgradeable.sol\":2763:2803  OwnableUnauthorizedAccount(_msgSender()) */\n      tag_81\n        /* \"#utility.yul\":3557:3811   */\n      jump\n        /* \"@openzeppelin/contracts-upgradeable/access/OwnableUpgradeable.sol\":1847:1974  function __Ownable_init(address initialOwner) internal onlyInitializing {... */\n    tag_103:\n        /* \"@openzeppelin/contracts-upgradeable/proxy/utils/Initializable.sol\":6929:6949  _checkInitializing() */\n      tag_161\n        /* \"@openzeppelin/contracts-upgradeable/proxy/utils/Initializable.sol\":6929:6947  _checkInitializing */\n      tag_162\n        /* \"@openzeppelin/contracts-upgradeable/proxy/utils/Initializable.sol\":6929:6949  _checkInitializing() */\n      jump\t// in\n    tag_161:\n        /* \"@openzeppelin/contracts-upgradeable/access/OwnableUpgradeable.sol\":1929:1967  __Ownable_init_unchained(initialOwner) */\n      tag_138\n        /* \"@openzeppelin/contracts-upgradeable/access/OwnableUpgradeable.sol\":1954:1966  initialOwner */\n      dup2\n        /* \"@openzeppelin/contracts-upgradeable/access/OwnableUpgradeable.sol\":1929:1953  __Ownable_init_unchained */\n      tag_165\n        /* \"@openzeppelin/contracts-upgradeable/access/OwnableUpgradeable.sol\":1929:1967  __Ownable_init_unchained(initialOwner) */\n      jump\t// in\n        /* \"@openzeppelin/contracts-upgradeable/proxy/utils/UUPSUpgradeable.sol\":2970:3037  function __UUPSUpgradeable_init() internal onlyInitializing {... */\n    tag_105:\n        /* \"@openzeppelin/contracts-upgradeable/proxy/utils/Initializable.sol\":6929:6949  _checkInitializing() */\n      tag_128\n        /* \"@openzeppelin/contracts-upgradeable/proxy/utils/Initializable.sol\":6929:6947  _checkInitializing */\n      tag_162\n        /* \"@openzeppelin/contracts-upgradeable/proxy/utils/Initializable.sol\":6929:6949  _checkInitializing() */\n      jump\t// in\n        /* \"@openzeppelin/contracts-upgradeable/proxy/utils/UUPSUpgradeable.sol\":4578:4890  function _checkProxy() internal view virtual {... */\n    tag_115:\n        /* \"@openzeppelin/contracts-upgradeable/proxy/utils/UUPSUpgradeable.sol\":4658:4662  this */\n      address\n      sub(shl(0xa0, 0x01), 0x01)\n        /* \"@openzeppelin/contracts-upgradeable/proxy/utils/UUPSUpgradeable.sol\":4667:4673  __self */\n      immutable(\"0xef448810f2c864de688d78e66a279993ed6fcb1e0982295a58bb520e6e338f6b\")\n        /* \"@openzeppelin/contracts-upgradeable/proxy/utils/UUPSUpgradeable.sol\":4650:4673  address(this) == __self */\n      and\n      eq\n      dup1\n        /* \"@openzeppelin/contracts-upgradeable/proxy/utils/UUPSUpgradeable.sol\":4650:4770  address(this) == __self || // Must be called through delegatecall... */\n      tag_170\n      jumpi\n      pop\n        /* \"@openzeppelin/contracts-upgradeable/proxy/utils/UUPSUpgradeable.sol\":4764:4770  __self */\n      immutable(\"0xef448810f2c864de688d78e66a279993ed6fcb1e0982295a58bb520e6e338f6b\")\n      sub(shl(0xa0, 0x01), 0x01)\n        /* \"@openzeppelin/contracts-upgradeable/proxy/utils/UUPSUpgradeable.sol\":4728:4770  ERC1967Utils.getImplementation() != __self */\n      and\n        /* \"@openzeppelin/contracts-upgradeable/proxy/utils/UUPSUpgradeable.sol\":4728:4760  ERC1967Utils.getImplementation() */\n      tag_171\n        /* \"@openzeppelin/contracts/proxy/ERC1967/ERC1967Utils.sol\":811:877  0x360894a13ba1a3210667c828492db98dca3e2076cc3735a920a3ca505d382bbc */\n      0x360894a13ba1a3210667c828492db98dca3e2076cc3735a920a3ca505d382bbc\n        /* \"@openzeppelin/contracts/proxy/ERC1967/ERC1967Utils.sol\":1519:1572  StorageSlot.getAddressSlot(IMPLEMENTATION_SLOT).value */\n      sload\n      sub(shl(0xa0, 0x01), 0x01)\n      and\n      swap1\n        /* \"@openzeppelin/contracts/proxy/ERC1967/ERC1967Utils.sol\":1441:1579  function getImplementation() internal view returns (address) {... */\n      jump\n        /* \"@openzeppelin/contracts-upgradeable/proxy/utils/UUPSUpgradeable.sol\":4728:4760  ERC1967Utils.getImplementation() */\n    tag_171:\n      sub(shl(0xa0, 0x01), 0x01)\n        /* \"@openzeppelin/contracts-upgradeable/proxy/utils/UUPSUpgradeable.sol\":4728:4770  ERC1967Utils.getImplementation() != __self */\n      and\n      eq\n      iszero\n        /* \"@openzeppelin/contracts-upgradeable/proxy/utils/UUPSUpgradeable.sol\":4650:4770  address(this) == __self || // Must be called through delegatecall... */\n    tag_170:\n        /* \"@openzeppelin/contracts-upgradeable/proxy/utils/UUPSUpgradeable.sol\":4633:4884  if (... */\n      iszero\n      tag_128\n      jumpi\n        /* \"@openzeppelin/contracts-upgradeable/proxy/utils/UUPSUpgradeable.sol\":4844:4873  UUPSUnauthorizedCallContext() */\n      mload(0x40)\n      shl(0xe1, 0x703e46dd)\n      dup2\n      mstore\n      0x04\n      add\n      mload(0x40)\n      dup1\n      swap2\n      sub\n      swap1\n      revert\n        /* \"simple-LZ_UUPS.sol\":2251:2335  function _authorizeUpgrade(address newImplementation) internal override onlyOwner {} */\n    tag_118:\n        /* \"@openzeppelin/contracts-upgradeable/access/OwnableUpgradeable.sol\":2334:2347  _checkOwner() */\n      tag_138\n        /* \"@openzeppelin/contracts-upgradeable/access/OwnableUpgradeable.sol\":2334:2345  _checkOwner */\n      tag_77\n        /* \"@openzeppelin/contracts-upgradeable/access/OwnableUpgradeable.sol\":2334:2347  _checkOwner() */\n      jump\t// in\n        /* \"@openzeppelin/contracts-upgradeable/proxy/utils/UUPSUpgradeable.sol\":6032:6570  function _upgradeToAndCallUUPS(address newImplementation, bytes memory data) private {... */\n    tag_120:\n        /* \"@openzeppelin/contracts-upgradeable/proxy/utils/UUPSUpgradeable.sol\":6149:6166  newImplementation */\n      dup2\n      sub(shl(0xa0, 0x01), 0x01)\n        /* \"@openzeppelin/contracts-upgradeable/proxy/utils/UUPSUpgradeable.sol\":6131:6181  IERC1822Proxiable(newImplementation).proxiableUUID */\n      and\n      0x52d1902d\n        /* \"@openzeppelin/contracts-upgradeable/proxy/utils/UUPSUpgradeable.sol\":6131:6183  IERC1822Proxiable(newImplementation).proxiableUUID() */\n      mload(0x40)\n      dup2\n      0xffffffff\n      and\n      0xe0\n      shl\n      dup2\n      mstore\n      0x04\n      add\n      0x20\n      mload(0x40)\n      dup1\n      dup4\n      sub\n      dup2\n      dup7\n      gas\n      staticcall\n      swap3\n      pop\n      pop\n      pop\n      dup1\n      iszero\n      tag_178\n      jumpi\n      pop\n      0x40\n      dup1\n      mload\n      0x1f\n      returndatasize\n      swap1\n      dup2\n      add\n      not(0x1f)\n      and\n      dup3\n      add\n      swap1\n      swap3\n      mstore\n      tag_179\n      swap2\n      dup2\n      add\n      swap1\n      tag_180\n      jump\t// in\n    tag_179:\n      0x01\n    tag_178:\n        /* \"@openzeppelin/contracts-upgradeable/proxy/utils/UUPSUpgradeable.sol\":6127:6564  try IERC1822Proxiable(newImplementation).proxiableUUID() returns (bytes32 slot) {... */\n      tag_181\n      jumpi\n        /* \"@openzeppelin/contracts-upgradeable/proxy/utils/UUPSUpgradeable.sol\":6493:6553  ERC1967Utils.ERC1967InvalidImplementation(newImplementation) */\n      mload(0x40)\n      shl(0xe0, 0x4c9c8ce3)\n      dup2\n      mstore\n      sub(shl(0xa0, 0x01), 0x01)\n        /* \"#utility.yul\":3749:3804   */\n      dup4\n      and\n        /* \"@openzeppelin/contracts-upgradeable/proxy/utils/UUPSUpgradeable.sol\":6493:6553  ERC1967Utils.ERC1967InvalidImplementation(newImplementation) */\n      0x04\n      dup3\n      add\n        /* \"#utility.yul\":3731:3805   */\n      mstore\n        /* \"#utility.yul\":3704:3722   */\n      0x24\n      add\n        /* \"@openzeppelin/contracts-upgradeable/proxy/utils/UUPSUpgradeable.sol\":6493:6553  ERC1967Utils.ERC1967InvalidImplementation(newImplementation) */\n      tag_81\n        /* \"#utility.yul\":3557:3811   */\n      jump\n        /* \"@openzeppelin/contracts-upgradeable/proxy/utils/UUPSUpgradeable.sol\":6127:6564  try IERC1822Proxiable(newImplementation).proxiableUUID() returns (bytes32 slot) {... */\n    tag_181:\n        /* \"@openzeppelin/contracts/proxy/ERC1967/ERC1967Utils.sol\":811:877  0x360894a13ba1a3210667c828492db98dca3e2076cc3735a920a3ca505d382bbc */\n      0x360894a13ba1a3210667c828492db98dca3e2076cc3735a920a3ca505d382bbc\n        /* \"@openzeppelin/contracts-upgradeable/proxy/utils/UUPSUpgradeable.sol\":6225:6265  slot != ERC1967Utils.IMPLEMENTATION_SLOT */\n      dup2\n      eq\n        /* \"@openzeppelin/contracts-upgradeable/proxy/utils/UUPSUpgradeable.sol\":6221:6341  if (slot != ERC1967Utils.IMPLEMENTATION_SLOT) {... */\n      tag_187\n      jumpi\n        /* \"@openzeppelin/contracts-upgradeable/proxy/utils/UUPSUpgradeable.sol\":6292:6326  UUPSUnsupportedProxiableUUID(slot) */\n      mload(0x40)\n      shl(0xe2, 0x2a875269)\n      dup2\n      mstore\n      0x04\n      dup2\n      add\n        /* \"#utility.yul\":3521:3546   */\n      dup3\n      swap1\n      mstore\n        /* \"#utility.yul\":3494:3512   */\n      0x24\n      add\n        /* \"@openzeppelin/contracts-upgradeable/proxy/utils/UUPSUpgradeable.sol\":6292:6326  UUPSUnsupportedProxiableUUID(slot) */\n      tag_81\n        /* \"#utility.yul\":3375:3552   */\n      jump\n        /* \"@openzeppelin/contracts-upgradeable/proxy/utils/UUPSUpgradeable.sol\":6221:6341  if (slot != ERC1967Utils.IMPLEMENTATION_SLOT) {... */\n    tag_187:\n        /* \"@openzeppelin/contracts-upgradeable/proxy/utils/UUPSUpgradeable.sol\":6354:6408  ERC1967Utils.upgradeToAndCall(newImplementation, data) */\n      tag_189\n        /* \"@openzeppelin/contracts-upgradeable/proxy/utils/UUPSUpgradeable.sol\":6384:6401  newImplementation */\n      dup4\n        /* \"@openzeppelin/contracts-upgradeable/proxy/utils/UUPSUpgradeable.sol\":6403:6407  data */\n      dup4\n        /* \"@openzeppelin/contracts-upgradeable/proxy/utils/UUPSUpgradeable.sol\":6354:6383  ERC1967Utils.upgradeToAndCall */\n      tag_190\n        /* \"@openzeppelin/contracts-upgradeable/proxy/utils/UUPSUpgradeable.sol\":6354:6408  ERC1967Utils.upgradeToAndCall(newImplementation, data) */\n      jump\t// in\n    tag_189:\n        /* \"@openzeppelin/contracts-upgradeable/proxy/utils/UUPSUpgradeable.sol\":6184:6419  returns (bytes32 slot) {... */\n      pop\n        /* \"@openzeppelin/contracts-upgradeable/proxy/utils/UUPSUpgradeable.sol\":6032:6570  function _upgradeToAndCallUUPS(address newImplementation, bytes memory data) private {... */\n      pop\n      pop\n      jump\t// out\n        /* \"@openzeppelin/contracts-upgradeable/proxy/utils/UUPSUpgradeable.sol\":5007:5220  function _checkNotDelegated() internal view virtual {... */\n    tag_123:\n        /* \"@openzeppelin/contracts-upgradeable/proxy/utils/UUPSUpgradeable.sol\":5081:5085  this */\n      address\n      sub(shl(0xa0, 0x01), 0x01)\n        /* \"@openzeppelin/contracts-upgradeable/proxy/utils/UUPSUpgradeable.sol\":5090:5096  __self */\n      immutable(\"0xef448810f2c864de688d78e66a279993ed6fcb1e0982295a58bb520e6e338f6b\")\n        /* \"@openzeppelin/contracts-upgradeable/proxy/utils/UUPSUpgradeable.sol\":5073:5096  address(this) != __self */\n      and\n      eq\n        /* \"@openzeppelin/contracts-upgradeable/proxy/utils/UUPSUpgradeable.sol\":5069:5214  if (address(this) != __self) {... */\n      tag_128\n      jumpi\n        /* \"@openzeppelin/contracts-upgradeable/proxy/utils/UUPSUpgradeable.sol\":5174:5203  UUPSUnauthorizedCallContext() */\n      mload(0x40)\n      shl(0xe1, 0x703e46dd)\n      dup2\n      mstore\n      0x04\n      add\n      mload(0x40)\n      dup1\n      swap2\n      sub\n      swap1\n      revert\n        /* \"@openzeppelin/contracts-upgradeable/access/OwnableUpgradeable.sol\":3774:4022  function _transferOwnership(address newOwner) internal virtual {... */\n    tag_129:\n        /* \"@openzeppelin/contracts-upgradeable/access/OwnableUpgradeable.sol\":1313:1335  OwnableStorageLocation */\n      0x9016d09d72d40fdae2fd8ceac6b6234c7706214fd39c1cd1e609a0528c199300\n        /* \"@openzeppelin/contracts-upgradeable/access/OwnableUpgradeable.sol\":3923:3931  $._owner */\n      dup1\n      sload\n      not(sub(shl(0xa0, 0x01), 0x01))\n        /* \"@openzeppelin/contracts-upgradeable/access/OwnableUpgradeable.sol\":3941:3960  $._owner = newOwner */\n      dup2\n      and\n      sub(shl(0xa0, 0x01), 0x01)\n      dup5\n      dup2\n      and\n      swap2\n      dup3\n      or\n      dup5\n      sstore\n        /* \"@openzeppelin/contracts-upgradeable/access/OwnableUpgradeable.sol\":3975:4015  OwnershipTransferred(oldOwner, newOwner) */\n      mload(0x40)\n        /* \"@openzeppelin/contracts-upgradeable/access/OwnableUpgradeable.sol\":3923:3931  $._owner */\n      swap3\n      and\n      swap2\n      dup3\n      swap1\n        /* \"@openzeppelin/contracts-upgradeable/access/OwnableUpgradeable.sol\":3975:4015  OwnershipTransferred(oldOwner, newOwner) */\n      0x8be0079c531659141344cd1fd0a4f28419497f9722a3daafe3b4186f6b6457e0\n      swap1\n        /* \"@openzeppelin/contracts-upgradeable/access/OwnableUpgradeable.sol\":3847:3871  OwnableStorage storage $ */\n      0x00\n      swap1\n        /* \"@openzeppelin/contracts-upgradeable/access/OwnableUpgradeable.sol\":3975:4015  OwnershipTransferred(oldOwner, newOwner) */\n      log3\n        /* \"@openzeppelin/contracts-upgradeable/access/OwnableUpgradeable.sol\":3837:4022  {... */\n      pop\n      pop\n        /* \"@openzeppelin/contracts-upgradeable/access/OwnableUpgradeable.sol\":3774:4022  function _transferOwnership(address newOwner) internal virtual {... */\n      pop\n      jump\t// out\n        /* \"@openzeppelin/contracts-upgradeable/proxy/utils/Initializable.sol\":7082:7223  function _checkInitializing() internal view virtual {... */\n    tag_162:\n        /* \"@openzeppelin/contracts-upgradeable/proxy/utils/Initializable.sol\":3147:3213  0xf0c57e16840df040f15088dc2f81fe391c3923bec73e23a9662efc9c229c6a00 */\n      0xf0c57e16840df040f15088dc2f81fe391c3923bec73e23a9662efc9c229c6a00\n        /* \"@openzeppelin/contracts-upgradeable/proxy/utils/Initializable.sol\":8558:8598  _getInitializableStorage()._initializing */\n      sload\n      shl(0x40, 0x01)\n      swap1\n      div\n      0xff\n      and\n        /* \"@openzeppelin/contracts-upgradeable/proxy/utils/Initializable.sol\":7144:7217  if (!_isInitializing()) {... */\n      tag_128\n      jumpi\n        /* \"@openzeppelin/contracts-upgradeable/proxy/utils/Initializable.sol\":7189:7206  NotInitializing() */\n      mload(0x40)\n      shl(0xe3, 0x1afcd79f)\n      dup2\n      mstore\n      0x04\n      add\n      mload(0x40)\n      dup1\n      swap2\n      sub\n      swap1\n      revert\n        /* \"@openzeppelin/contracts-upgradeable/access/OwnableUpgradeable.sol\":1980:2215  function __Ownable_init_unchained(address initialOwner) internal onlyInitializing {... */\n    tag_165:\n        /* \"@openzeppelin/contracts-upgradeable/proxy/utils/Initializable.sol\":6929:6949  _checkInitializing() */\n      tag_134\n        /* \"@openzeppelin/contracts-upgradeable/proxy/utils/Initializable.sol\":6929:6947  _checkInitializing */\n      tag_162\n        /* \"@openzeppelin/contracts-upgradeable/proxy/utils/Initializable.sol\":6929:6949  _checkInitializing() */\n      jump\t// in\n        /* \"@openzeppelin/contracts/proxy/ERC1967/ERC1967Utils.sol\":2264:2608  function upgradeToAndCall(address newImplementation, bytes memory data) internal {... */\n    tag_190:\n        /* \"@openzeppelin/contracts/proxy/ERC1967/ERC1967Utils.sol\":2355:2392  _setImplementation(newImplementation) */\n      tag_212\n        /* \"@openzeppelin/contracts/proxy/ERC1967/ERC1967Utils.sol\":2374:2391  newImplementation */\n      dup3\n        /* \"@openzeppelin/contracts/proxy/ERC1967/ERC1967Utils.sol\":2355:2373  _setImplementation */\n      tag_213\n        /* \"@openzeppelin/contracts/proxy/ERC1967/ERC1967Utils.sol\":2355:2392  _setImplementation(newImplementation) */\n      jump\t// in\n    tag_212:\n        /* \"@openzeppelin/contracts/proxy/ERC1967/ERC1967Utils.sol\":2407:2443  IERC1967.Upgraded(newImplementation) */\n      mload(0x40)\n      sub(shl(0xa0, 0x01), 0x01)\n      dup4\n      and\n      swap1\n      0xbc7cd75a20ee27fd9adebab32041f755214dbc6bffa90cc0225b39da2e5c2d3b\n      swap1\n      0x00\n      swap1\n      log2\n        /* \"@openzeppelin/contracts/proxy/ERC1967/ERC1967Utils.sol\":2458:2469  data.length */\n      dup1\n      mload\n        /* \"@openzeppelin/contracts/proxy/ERC1967/ERC1967Utils.sol\":2458:2473  data.length > 0 */\n      iszero\n        /* \"@openzeppelin/contracts/proxy/ERC1967/ERC1967Utils.sol\":2454:2602  if (data.length > 0) {... */\n      tag_214\n      jumpi\n        /* \"@openzeppelin/contracts/proxy/ERC1967/ERC1967Utils.sol\":2489:2542  Address.functionDelegateCall(newImplementation, data) */\n      tag_189\n        /* \"@openzeppelin/contracts/proxy/ERC1967/ERC1967Utils.sol\":2518:2535  newImplementation */\n      dup3\n        /* \"@openzeppelin/contracts/proxy/ERC1967/ERC1967Utils.sol\":2537:2541  data */\n      dup3\n        /* \"@openzeppelin/contracts/proxy/ERC1967/ERC1967Utils.sol\":2489:2517  Address.functionDelegateCall */\n      tag_216\n        /* \"@openzeppelin/contracts/proxy/ERC1967/ERC1967Utils.sol\":2489:2542  Address.functionDelegateCall(newImplementation, data) */\n      jump\t// in\n        /* \"@openzeppelin/contracts/proxy/ERC1967/ERC1967Utils.sol\":2454:2602  if (data.length > 0) {... */\n    tag_214:\n        /* \"@openzeppelin/contracts/proxy/ERC1967/ERC1967Utils.sol\":2573:2591  _checkNonPayable() */\n      tag_119\n        /* \"@openzeppelin/contracts/proxy/ERC1967/ERC1967Utils.sol\":2573:2589  _checkNonPayable */\n      tag_219\n        /* \"@openzeppelin/contracts/proxy/ERC1967/ERC1967Utils.sol\":2573:2591  _checkNonPayable() */\n      jump\t// in\n        /* \"@openzeppelin/contracts/proxy/ERC1967/ERC1967Utils.sol\":1671:1952  function _setImplementation(address newImplementation) private {... */\n    tag_213:\n        /* \"@openzeppelin/contracts/proxy/ERC1967/ERC1967Utils.sol\":1748:1765  newImplementation */\n      dup1\n      sub(shl(0xa0, 0x01), 0x01)\n        /* \"@openzeppelin/contracts/proxy/ERC1967/ERC1967Utils.sol\":1748:1777  newImplementation.code.length */\n      and\n      extcodesize\n        /* \"@openzeppelin/contracts/proxy/ERC1967/ERC1967Utils.sol\":1781:1782  0 */\n      0x00\n        /* \"@openzeppelin/contracts/proxy/ERC1967/ERC1967Utils.sol\":1748:1782  newImplementation.code.length == 0 */\n      sub\n        /* \"@openzeppelin/contracts/proxy/ERC1967/ERC1967Utils.sol\":1744:1863  if (newImplementation.code.length == 0) {... */\n      tag_224\n      jumpi\n        /* \"@openzeppelin/contracts/proxy/ERC1967/ERC1967Utils.sol\":1805:1852  ERC1967InvalidImplementation(newImplementation) */\n      mload(0x40)\n      shl(0xe0, 0x4c9c8ce3)\n      dup2\n      mstore\n      sub(shl(0xa0, 0x01), 0x01)\n        /* \"#utility.yul\":3749:3804   */\n      dup3\n      and\n        /* \"@openzeppelin/contracts/proxy/ERC1967/ERC1967Utils.sol\":1805:1852  ERC1967InvalidImplementation(newImplementation) */\n      0x04\n      dup3\n      add\n        /* \"#utility.yul\":3731:3805   */\n      mstore\n        /* \"#utility.yul\":3704:3722   */\n      0x24\n      add\n        /* \"@openzeppelin/contracts/proxy/ERC1967/ERC1967Utils.sol\":1805:1852  ERC1967InvalidImplementation(newImplementation) */\n      tag_81\n        /* \"#utility.yul\":3557:3811   */\n      jump\n        /* \"@openzeppelin/contracts/proxy/ERC1967/ERC1967Utils.sol\":1744:1863  if (newImplementation.code.length == 0) {... */\n    tag_224:\n        /* \"@openzeppelin/contracts/proxy/ERC1967/ERC1967Utils.sol\":811:877  0x360894a13ba1a3210667c828492db98dca3e2076cc3735a920a3ca505d382bbc */\n      0x360894a13ba1a3210667c828492db98dca3e2076cc3735a920a3ca505d382bbc\n        /* \"@openzeppelin/contracts/proxy/ERC1967/ERC1967Utils.sol\":1872:1945  StorageSlot.getAddressSlot(IMPLEMENTATION_SLOT).value = newImplementation */\n      dup1\n      sload\n      not(sub(shl(0xa0, 0x01), 0x01))\n      and\n      sub(shl(0xa0, 0x01), 0x01)\n      swap3\n      swap1\n      swap3\n      and\n      swap2\n      swap1\n      swap2\n      or\n      swap1\n      sstore\n        /* \"@openzeppelin/contracts/proxy/ERC1967/ERC1967Utils.sol\":1671:1952  function _setImplementation(address newImplementation) private {... */\n      jump\t// out\n        /* \"@openzeppelin/contracts/utils/Address.sol\":3916:4169  function functionDelegateCall(address target, bytes memory data) internal returns (bytes memory) {... */\n    tag_216:\n        /* \"@openzeppelin/contracts/utils/Address.sol\":3999:4011  bytes memory */\n      0x60\n        /* \"@openzeppelin/contracts/utils/Address.sol\":4024:4036  bool success */\n      0x00\n        /* \"@openzeppelin/contracts/utils/Address.sol\":4038:4061  bytes memory returndata */\n      dup1\n        /* \"@openzeppelin/contracts/utils/Address.sol\":4065:4071  target */\n      dup5\n      sub(shl(0xa0, 0x01), 0x01)\n        /* \"@openzeppelin/contracts/utils/Address.sol\":4065:4084  target.delegatecall */\n      and\n        /* \"@openzeppelin/contracts/utils/Address.sol\":4085:4089  data */\n      dup5\n        /* \"@openzeppelin/contracts/utils/Address.sol\":4065:4090  target.delegatecall(data) */\n      mload(0x40)\n      tag_228\n      swap2\n      swap1\n      tag_229\n      jump\t// in\n    tag_228:\n      0x00\n      mload(0x40)\n      dup1\n      dup4\n      sub\n      dup2\n      dup6\n      gas\n      delegatecall\n      swap2\n      pop\n      pop\n      returndatasize\n      dup1\n      0x00\n      dup2\n      eq\n      tag_232\n      jumpi\n      mload(0x40)\n      swap2\n      pop\n      and(add(returndatasize, 0x3f), not(0x1f))\n      dup3\n      add\n      0x40\n      mstore\n      returndatasize\n      dup3\n      mstore\n      returndatasize\n      0x00\n      0x20\n      dup5\n      add\n      returndatacopy\n      jump(tag_231)\n    tag_232:\n      0x60\n      swap2\n      pop\n    tag_231:\n      pop\n        /* \"@openzeppelin/contracts/utils/Address.sol\":4023:4090  (bool success, bytes memory returndata) = target.delegatecall(data) */\n      swap2\n      pop\n      swap2\n      pop\n        /* \"@openzeppelin/contracts/utils/Address.sol\":4107:4162  verifyCallResultFromTarget(target, success, returndata) */\n      tag_233\n        /* \"@openzeppelin/contracts/utils/Address.sol\":4134:4140  target */\n      dup6\n        /* \"@openzeppelin/contracts/utils/Address.sol\":4142:4149  success */\n      dup4\n        /* \"@openzeppelin/contracts/utils/Address.sol\":4151:4161  returndata */\n      dup4\n        /* \"@openzeppelin/contracts/utils/Address.sol\":4107:4133  verifyCallResultFromTarget */\n      tag_234\n        /* \"@openzeppelin/contracts/utils/Address.sol\":4107:4162  verifyCallResultFromTarget(target, success, returndata) */\n      jump\t// in\n    tag_233:\n        /* \"@openzeppelin/contracts/utils/Address.sol\":4100:4162  return verifyCallResultFromTarget(target, success, returndata) */\n      swap6\n        /* \"@openzeppelin/contracts/utils/Address.sol\":3916:4169  function functionDelegateCall(address target, bytes memory data) internal returns (bytes memory) {... */\n      swap5\n      pop\n      pop\n      pop\n      pop\n      pop\n      jump\t// out\n        /* \"@openzeppelin/contracts/proxy/ERC1967/ERC1967Utils.sol\":6113:6235  function _checkNonPayable() private {... */\n    tag_219:\n        /* \"@openzeppelin/contracts/proxy/ERC1967/ERC1967Utils.sol\":6163:6172  msg.value */\n      callvalue\n        /* \"@openzeppelin/contracts/proxy/ERC1967/ERC1967Utils.sol\":6163:6176  msg.value > 0 */\n      iszero\n        /* \"@openzeppelin/contracts/proxy/ERC1967/ERC1967Utils.sol\":6159:6229  if (msg.value > 0) {... */\n      tag_128\n      jumpi\n        /* \"@openzeppelin/contracts/proxy/ERC1967/ERC1967Utils.sol\":6199:6218  ERC1967NonPayable() */\n      mload(0x40)\n      shl(0xe0, 0xb398979f)\n      dup2\n      mstore\n      0x04\n      add\n      mload(0x40)\n      dup1\n      swap2\n      sub\n      swap1\n      revert\n        /* \"@openzeppelin/contracts/utils/Address.sol\":4437:5019  function verifyCallResultFromTarget(... */\n    tag_234:\n        /* \"@openzeppelin/contracts/utils/Address.sol\":4581:4593  bytes memory */\n      0x60\n        /* \"@openzeppelin/contracts/utils/Address.sol\":4610:4617  success */\n      dup3\n        /* \"@openzeppelin/contracts/utils/Address.sol\":4605:5013  if (!success) {... */\n      tag_238\n      jumpi\n        /* \"@openzeppelin/contracts/utils/Address.sol\":4633:4652  _revert(returndata) */\n      tag_239\n        /* \"@openzeppelin/contracts/utils/Address.sol\":4641:4651  returndata */\n      dup3\n        /* \"@openzeppelin/contracts/utils/Address.sol\":4633:4640  _revert */\n      tag_240\n        /* \"@openzeppelin/contracts/utils/Address.sol\":4633:4652  _revert(returndata) */\n      jump\t// in\n    tag_239:\n        /* \"@openzeppelin/contracts/utils/Address.sol\":4605:5013  if (!success) {... */\n      jump(tag_241)\n    tag_238:\n        /* \"@openzeppelin/contracts/utils/Address.sol\":4857:4874  returndata.length */\n      dup2\n      mload\n        /* \"@openzeppelin/contracts/utils/Address.sol\":4857:4879  returndata.length == 0 */\n      iszero\n        /* \"@openzeppelin/contracts/utils/Address.sol\":4857:4906  returndata.length == 0 && target.code.length == 0 */\n      dup1\n      iszero\n      tag_242\n      jumpi\n      pop\n      sub(shl(0xa0, 0x01), 0x01)\n        /* \"@openzeppelin/contracts/utils/Address.sol\":4883:4901  target.code.length */\n      dup5\n      and\n      extcodesize\n        /* \"@openzeppelin/contracts/utils/Address.sol\":4883:4906  target.code.length == 0 */\n      iszero\n        /* \"@openzeppelin/contracts/utils/Address.sol\":4857:4906  returndata.length == 0 && target.code.length == 0 */\n    tag_242:\n        /* \"@openzeppelin/contracts/utils/Address.sol\":4853:4972  if (returndata.length == 0 && target.code.length == 0) {... */\n      iszero\n      tag_243\n      jumpi\n        /* \"@openzeppelin/contracts/utils/Address.sol\":4933:4957  AddressEmptyCode(target) */\n      mload(0x40)\n      shl(0xe0, 0x9996b315)\n      dup2\n      mstore\n      sub(shl(0xa0, 0x01), 0x01)\n        /* \"#utility.yul\":3749:3804   */\n      dup6\n      and\n        /* \"@openzeppelin/contracts/utils/Address.sol\":4933:4957  AddressEmptyCode(target) */\n      0x04\n      dup3\n      add\n        /* \"#utility.yul\":3731:3805   */\n      mstore\n        /* \"#utility.yul\":3704:3722   */\n      0x24\n      add\n        /* \"@openzeppelin/contracts/utils/Address.sol\":4933:4957  AddressEmptyCode(target) */\n      tag_81\n        /* \"#utility.yul\":3557:3811   */\n      jump\n        /* \"@openzeppelin/contracts/utils/Address.sol\":4853:4972  if (returndata.length == 0 && target.code.length == 0) {... */\n    tag_243:\n      pop\n        /* \"@openzeppelin/contracts/utils/Address.sol\":4992:5002  returndata */\n      dup1\n        /* \"@openzeppelin/contracts/utils/Address.sol\":4605:5013  if (!success) {... */\n    tag_241:\n        /* \"@openzeppelin/contracts/utils/Address.sol\":4437:5019  function verifyCallResultFromTarget(... */\n      swap4\n      swap3\n      pop\n      pop\n      pop\n      jump\t// out\n        /* \"@openzeppelin/contracts/utils/Address.sol\":5559:6046  function _revert(bytes memory returndata) private pure {... */\n    tag_240:\n        /* \"@openzeppelin/contracts/utils/Address.sol\":5690:5707  returndata.length */\n      dup1\n      mload\n        /* \"@openzeppelin/contracts/utils/Address.sol\":5690:5711  returndata.length > 0 */\n      iszero\n        /* \"@openzeppelin/contracts/utils/Address.sol\":5686:6040  if (returndata.length > 0) {... */\n      tag_246\n      jumpi\n        /* \"@openzeppelin/contracts/utils/Address.sol\":5887:5897  returndata */\n      dup1\n        /* \"@openzeppelin/contracts/utils/Address.sol\":5881:5898  mload(returndata) */\n      mload\n        /* \"@openzeppelin/contracts/utils/Address.sol\":5943:5958  returndata_size */\n      dup1\n        /* \"@openzeppelin/contracts/utils/Address.sol\":5930:5940  returndata */\n      dup3\n        /* \"@openzeppelin/contracts/utils/Address.sol\":5926:5928  32 */\n      0x20\n        /* \"@openzeppelin/contracts/utils/Address.sol\":5922:5941  add(32, returndata) */\n      add\n        /* \"@openzeppelin/contracts/utils/Address.sol\":5915:5959  revert(add(32, returndata), returndata_size) */\n      revert\n        /* \"@openzeppelin/contracts/utils/Address.sol\":5686:6040  if (returndata.length > 0) {... */\n    tag_246:\n        /* \"@openzeppelin/contracts/utils/Address.sol\":6010:6029  Errors.FailedCall() */\n      mload(0x40)\n      shl(0xe0, 0xd6bda275)\n      dup2\n      mstore\n      0x04\n      add\n      mload(0x40)\n      dup1\n      swap2\n      sub\n      swap1\n      revert\n        /* \"#utility.yul\":14:177   */\n    tag_248:\n        /* \"#utility.yul\":81:101   */\n      dup1\n      calldataload\n        /* \"#utility.yul\":141:151   */\n      0xffffffff\n        /* \"#utility.yul\":130:152   */\n      dup2\n      and\n        /* \"#utility.yul\":120:153   */\n      dup2\n      eq\n        /* \"#utility.yul\":110:171   */\n      tag_259\n      jumpi\n        /* \"#utility.yul\":167:168   */\n      0x00\n        /* \"#utility.yul\":164:165   */\n      dup1\n        /* \"#utility.yul\":157:169   */\n      revert\n        /* \"#utility.yul\":110:171   */\n    tag_259:\n        /* \"#utility.yul\":14:177   */\n      swap2\n      swap1\n      pop\n      jump\t// out\n        /* \"#utility.yul\":182:434   */\n    tag_20:\n        /* \"#utility.yul\":249:255   */\n      0x00\n        /* \"#utility.yul\":257:263   */\n      dup1\n        /* \"#utility.yul\":310:312   */\n      0x40\n        /* \"#utility.yul\":298:307   */\n      dup4\n        /* \"#utility.yul\":289:296   */\n      dup6\n        /* \"#utility.yul\":285:308   */\n      sub\n        /* \"#utility.yul\":281:313   */\n      slt\n        /* \"#utility.yul\":278:330   */\n      iszero\n      tag_261\n      jumpi\n        /* \"#utility.yul\":326:327   */\n      0x00\n        /* \"#utility.yul\":323:324   */\n      dup1\n        /* \"#utility.yul\":316:328   */\n      revert\n        /* \"#utility.yul\":278:330   */\n    tag_261:\n        /* \"#utility.yul\":349:377   */\n      tag_262\n        /* \"#utility.yul\":367:376   */\n      dup4\n        /* \"#utility.yul\":349:377   */\n      tag_248\n      jump\t// in\n    tag_262:\n        /* \"#utility.yul\":339:377   */\n      swap5\n        /* \"#utility.yul\":424:426   */\n      0x20\n        /* \"#utility.yul\":409:427   */\n      swap4\n      swap1\n      swap4\n      add\n        /* \"#utility.yul\":396:428   */\n      calldataload\n      swap4\n      pop\n      pop\n      pop\n        /* \"#utility.yul\":182:434   */\n      jump\t// out\n        /* \"#utility.yul\":439:787   */\n    tag_249:\n        /* \"#utility.yul\":491:499   */\n      0x00\n        /* \"#utility.yul\":501:507   */\n      dup1\n        /* \"#utility.yul\":555:558   */\n      dup4\n        /* \"#utility.yul\":548:552   */\n      0x1f\n        /* \"#utility.yul\":540:546   */\n      dup5\n        /* \"#utility.yul\":536:553   */\n      add\n        /* \"#utility.yul\":532:559   */\n      slt\n        /* \"#utility.yul\":522:577   */\n      tag_264\n      jumpi\n        /* \"#utility.yul\":573:574   */\n      0x00\n        /* \"#utility.yul\":570:571   */\n      dup1\n        /* \"#utility.yul\":563:575   */\n      revert\n        /* \"#utility.yul\":522:577   */\n    tag_264:\n      pop\n        /* \"#utility.yul\":596:616   */\n      dup2\n      calldataload\n        /* \"#utility.yul\":639:657   */\n      0xffffffffffffffff\n        /* \"#utility.yul\":628:658   */\n      dup2\n      gt\n        /* \"#utility.yul\":625:675   */\n      iszero\n      tag_265\n      jumpi\n        /* \"#utility.yul\":671:672   */\n      0x00\n        /* \"#utility.yul\":668:669   */\n      dup1\n        /* \"#utility.yul\":661:673   */\n      revert\n        /* \"#utility.yul\":625:675   */\n    tag_265:\n        /* \"#utility.yul\":708:712   */\n      0x20\n        /* \"#utility.yul\":700:706   */\n      dup4\n        /* \"#utility.yul\":696:713   */\n      add\n        /* \"#utility.yul\":684:713   */\n      swap2\n      pop\n        /* \"#utility.yul\":760:763   */\n      dup4\n        /* \"#utility.yul\":753:757   */\n      0x20\n        /* \"#utility.yul\":744:750   */\n      dup3\n        /* \"#utility.yul\":736:742   */\n      dup6\n        /* \"#utility.yul\":732:751   */\n      add\n        /* \"#utility.yul\":728:758   */\n      add\n        /* \"#utility.yul\":725:764   */\n      gt\n        /* \"#utility.yul\":722:781   */\n      iszero\n      tag_266\n      jumpi\n        /* \"#utility.yul\":777:778   */\n      0x00\n        /* \"#utility.yul\":774:775   */\n      dup1\n        /* \"#utility.yul\":767:779   */\n      revert\n        /* \"#utility.yul\":722:781   */\n    tag_266:\n        /* \"#utility.yul\":439:787   */\n      swap3\n      pop\n      swap3\n      swap1\n      pop\n      jump\t// out\n        /* \"#utility.yul\":792:1648   */\n    tag_24:\n        /* \"#utility.yul\":900:906   */\n      0x00\n        /* \"#utility.yul\":908:914   */\n      dup1\n        /* \"#utility.yul\":916:922   */\n      0x00\n        /* \"#utility.yul\":924:930   */\n      dup1\n        /* \"#utility.yul\":932:938   */\n      0x00\n        /* \"#utility.yul\":940:946   */\n      dup1\n        /* \"#utility.yul\":993:996   */\n      0x80\n        /* \"#utility.yul\":981:990   */\n      dup8\n        /* \"#utility.yul\":972:979   */\n      dup10\n        /* \"#utility.yul\":968:991   */\n      sub\n        /* \"#utility.yul\":964:997   */\n      slt\n        /* \"#utility.yul\":961:1014   */\n      iszero\n      tag_268\n      jumpi\n        /* \"#utility.yul\":1010:1011   */\n      0x00\n        /* \"#utility.yul\":1007:1008   */\n      dup1\n        /* \"#utility.yul\":1000:1012   */\n      revert\n        /* \"#utility.yul\":961:1014   */\n    tag_268:\n        /* \"#utility.yul\":1033:1061   */\n      tag_269\n        /* \"#utility.yul\":1051:1060   */\n      dup8\n        /* \"#utility.yul\":1033:1061   */\n      tag_248\n      jump\t// in\n    tag_269:\n        /* \"#utility.yul\":1023:1061   */\n      swap6\n      pop\n        /* \"#utility.yul\":1112:1114   */\n      0x20\n        /* \"#utility.yul\":1101:1110   */\n      dup8\n        /* \"#utility.yul\":1097:1115   */\n      add\n        /* \"#utility.yul\":1084:1116   */\n      calldataload\n        /* \"#utility.yul\":1139:1157   */\n      0xffffffffffffffff\n        /* \"#utility.yul\":1131:1137   */\n      dup2\n        /* \"#utility.yul\":1128:1158   */\n      gt\n        /* \"#utility.yul\":1125:1175   */\n      iszero\n      tag_270\n      jumpi\n        /* \"#utility.yul\":1171:1172   */\n      0x00\n        /* \"#utility.yul\":1168:1169   */\n      dup1\n        /* \"#utility.yul\":1161:1173   */\n      revert\n        /* \"#utility.yul\":1125:1175   */\n    tag_270:\n        /* \"#utility.yul\":1210:1269   */\n      tag_271\n        /* \"#utility.yul\":1261:1268   */\n      dup10\n        /* \"#utility.yul\":1252:1258   */\n      dup3\n        /* \"#utility.yul\":1241:1250   */\n      dup11\n        /* \"#utility.yul\":1237:1259   */\n      add\n        /* \"#utility.yul\":1210:1269   */\n      tag_249\n      jump\t// in\n    tag_271:\n        /* \"#utility.yul\":1288:1296   */\n      swap1\n      swap7\n      pop\n        /* \"#utility.yul\":1184:1269   */\n      swap5\n      pop\n      pop\n        /* \"#utility.yul\":1370:1372   */\n      0x40\n        /* \"#utility.yul\":1355:1373   */\n      dup8\n      add\n        /* \"#utility.yul\":1342:1374   */\n      calldataload\n      swap3\n      pop\n        /* \"#utility.yul\":1427:1429   */\n      0x60\n        /* \"#utility.yul\":1412:1430   */\n      dup8\n      add\n        /* \"#utility.yul\":1399:1431   */\n      calldataload\n        /* \"#utility.yul\":1456:1474   */\n      0xffffffffffffffff\n        /* \"#utility.yul\":1443:1475   */\n      dup2\n      gt\n        /* \"#utility.yul\":1440:1492   */\n      iszero\n      tag_272\n      jumpi\n        /* \"#utility.yul\":1488:1489   */\n      0x00\n        /* \"#utility.yul\":1485:1486   */\n      dup1\n        /* \"#utility.yul\":1478:1490   */\n      revert\n        /* \"#utility.yul\":1440:1492   */\n    tag_272:\n        /* \"#utility.yul\":1527:1588   */\n      tag_273\n        /* \"#utility.yul\":1580:1587   */\n      dup10\n        /* \"#utility.yul\":1569:1577   */\n      dup3\n        /* \"#utility.yul\":1558:1567   */\n      dup11\n        /* \"#utility.yul\":1554:1578   */\n      add\n        /* \"#utility.yul\":1527:1588   */\n      tag_249\n      jump\t// in\n    tag_273:\n        /* \"#utility.yul\":792:1648   */\n      swap8\n      swap11\n      swap7\n      swap10\n      pop\n      swap5\n      swap8\n      pop\n      swap3\n      swap6\n        /* \"#utility.yul\":1607:1615   */\n      swap4\n      swap5\n        /* \"#utility.yul\":792:1648   */\n      swap3\n      pop\n      pop\n      pop\n      jump\t// out\n        /* \"#utility.yul\":1653:1849   */\n    tag_250:\n        /* \"#utility.yul\":1721:1741   */\n      dup1\n      calldataload\n      sub(shl(0xa0, 0x01), 0x01)\n        /* \"#utility.yul\":1770:1824   */\n      dup2\n      and\n        /* \"#utility.yul\":1760:1825   */\n      dup2\n      eq\n        /* \"#utility.yul\":1750:1843   */\n      tag_259\n      jumpi\n        /* \"#utility.yul\":1839:1840   */\n      0x00\n        /* \"#utility.yul\":1836:1837   */\n      dup1\n        /* \"#utility.yul\":1829:1841   */\n      revert\n        /* \"#utility.yul\":1854:2114   */\n    tag_29:\n        /* \"#utility.yul\":1922:1928   */\n      0x00\n        /* \"#utility.yul\":1930:1936   */\n      dup1\n        /* \"#utility.yul\":1983:1985   */\n      0x40\n        /* \"#utility.yul\":1971:1980   */\n      dup4\n        /* \"#utility.yul\":1962:1969   */\n      dup6\n        /* \"#utility.yul\":1958:1981   */\n      sub\n        /* \"#utility.yul\":1954:1986   */\n      slt\n        /* \"#utility.yul\":1951:2003   */\n      iszero\n      tag_277\n      jumpi\n        /* \"#utility.yul\":1999:2000   */\n      0x00\n        /* \"#utility.yul\":1996:1997   */\n      dup1\n        /* \"#utility.yul\":1989:2001   */\n      revert\n        /* \"#utility.yul\":1951:2003   */\n    tag_277:\n        /* \"#utility.yul\":2022:2051   */\n      tag_278\n        /* \"#utility.yul\":2041:2050   */\n      dup4\n        /* \"#utility.yul\":2022:2051   */\n      tag_250\n      jump\t// in\n    tag_278:\n        /* \"#utility.yul\":2012:2051   */\n      swap2\n      pop\n        /* \"#utility.yul\":2070:2108   */\n      tag_279\n        /* \"#utility.yul\":2104:2106   */\n      0x20\n        /* \"#utility.yul\":2093:2102   */\n      dup5\n        /* \"#utility.yul\":2089:2107   */\n      add\n        /* \"#utility.yul\":2070:2108   */\n      tag_250\n      jump\t// in\n    tag_279:\n        /* \"#utility.yul\":2060:2108   */\n      swap1\n      pop\n        /* \"#utility.yul\":1854:2114   */\n      swap3\n      pop\n      swap3\n      swap1\n      pop\n      jump\t// out\n        /* \"#utility.yul\":2119:2246   */\n    tag_251:\n        /* \"#utility.yul\":2180:2190   */\n      0x4e487b71\n        /* \"#utility.yul\":2175:2178   */\n      0xe0\n        /* \"#utility.yul\":2171:2191   */\n      shl\n        /* \"#utility.yul\":2168:2169   */\n      0x00\n        /* \"#utility.yul\":2161:2192   */\n      mstore\n        /* \"#utility.yul\":2211:2215   */\n      0x41\n        /* \"#utility.yul\":2208:2209   */\n      0x04\n        /* \"#utility.yul\":2201:2216   */\n      mstore\n        /* \"#utility.yul\":2235:2239   */\n      0x24\n        /* \"#utility.yul\":2232:2233   */\n      0x00\n        /* \"#utility.yul\":2225:2240   */\n      revert\n        /* \"#utility.yul\":2251:2526   */\n    tag_252:\n        /* \"#utility.yul\":2322:2324   */\n      0x40\n        /* \"#utility.yul\":2316:2325   */\n      mload\n        /* \"#utility.yul\":2387:2389   */\n      0x1f\n        /* \"#utility.yul\":2368:2381   */\n      dup3\n      add\n      not(0x1f)\n        /* \"#utility.yul\":2364:2391   */\n      and\n        /* \"#utility.yul\":2352:2392   */\n      dup2\n      add\n        /* \"#utility.yul\":2422:2440   */\n      0xffffffffffffffff\n        /* \"#utility.yul\":2407:2441   */\n      dup2\n      gt\n        /* \"#utility.yul\":2443:2465   */\n      dup3\n      dup3\n      lt\n        /* \"#utility.yul\":2404:2466   */\n      or\n        /* \"#utility.yul\":2401:2489   */\n      iszero\n      tag_283\n      jumpi\n        /* \"#utility.yul\":2469:2487   */\n      tag_283\n      tag_251\n      jump\t// in\n    tag_283:\n        /* \"#utility.yul\":2505:2507   */\n      0x40\n        /* \"#utility.yul\":2498:2520   */\n      mstore\n        /* \"#utility.yul\":2251:2526   */\n      swap2\n      swap1\n      pop\n      jump\t// out\n        /* \"#utility.yul\":2531:3370   */\n    tag_33:\n        /* \"#utility.yul\":2608:2614   */\n      0x00\n        /* \"#utility.yul\":2616:2622   */\n      dup1\n        /* \"#utility.yul\":2669:2671   */\n      0x40\n        /* \"#utility.yul\":2657:2666   */\n      dup4\n        /* \"#utility.yul\":2648:2655   */\n      dup6\n        /* \"#utility.yul\":2644:2667   */\n      sub\n        /* \"#utility.yul\":2640:2672   */\n      slt\n        /* \"#utility.yul\":2637:2689   */\n      iszero\n      tag_285\n      jumpi\n        /* \"#utility.yul\":2685:2686   */\n      0x00\n        /* \"#utility.yul\":2682:2683   */\n      dup1\n        /* \"#utility.yul\":2675:2687   */\n      revert\n        /* \"#utility.yul\":2637:2689   */\n    tag_285:\n        /* \"#utility.yul\":2708:2737   */\n      tag_286\n        /* \"#utility.yul\":2727:2736   */\n      dup4\n        /* \"#utility.yul\":2708:2737   */\n      tag_250\n      jump\t// in\n    tag_286:\n        /* \"#utility.yul\":2698:2737   */\n      swap2\n      pop\n        /* \"#utility.yul\":2788:2790   */\n      0x20\n        /* \"#utility.yul\":2777:2786   */\n      dup4\n        /* \"#utility.yul\":2773:2791   */\n      add\n        /* \"#utility.yul\":2760:2792   */\n      calldataload\n        /* \"#utility.yul\":2815:2833   */\n      0xffffffffffffffff\n        /* \"#utility.yul\":2807:2813   */\n      dup2\n        /* \"#utility.yul\":2804:2834   */\n      gt\n        /* \"#utility.yul\":2801:2851   */\n      iszero\n      tag_287\n      jumpi\n        /* \"#utility.yul\":2847:2848   */\n      0x00\n        /* \"#utility.yul\":2844:2845   */\n      dup1\n        /* \"#utility.yul\":2837:2849   */\n      revert\n        /* \"#utility.yul\":2801:2851   */\n    tag_287:\n        /* \"#utility.yul\":2870:2892   */\n      dup4\n      add\n        /* \"#utility.yul\":2923:2927   */\n      0x1f\n        /* \"#utility.yul\":2915:2928   */\n      dup2\n      add\n        /* \"#utility.yul\":2911:2938   */\n      dup6\n      sgt\n        /* \"#utility.yul\":2901:2956   */\n      tag_288\n      jumpi\n        /* \"#utility.yul\":2952:2953   */\n      0x00\n        /* \"#utility.yul\":2949:2950   */\n      dup1\n        /* \"#utility.yul\":2942:2954   */\n      revert\n        /* \"#utility.yul\":2901:2956   */\n    tag_288:\n        /* \"#utility.yul\":2992:2994   */\n      dup1\n        /* \"#utility.yul\":2979:2995   */\n      calldataload\n        /* \"#utility.yul\":3018:3036   */\n      0xffffffffffffffff\n        /* \"#utility.yul\":3010:3016   */\n      dup2\n        /* \"#utility.yul\":3007:3037   */\n      gt\n        /* \"#utility.yul\":3004:3060   */\n      iszero\n      tag_290\n      jumpi\n        /* \"#utility.yul\":3040:3058   */\n      tag_290\n      tag_251\n      jump\t// in\n    tag_290:\n        /* \"#utility.yul\":3082:3139   */\n      tag_291\n        /* \"#utility.yul\":3129:3131   */\n      0x1f\n        /* \"#utility.yul\":3106:3123   */\n      dup3\n      add\n      not(0x1f)\n        /* \"#utility.yul\":3102:3133   */\n      and\n        /* \"#utility.yul\":3135:3137   */\n      0x20\n        /* \"#utility.yul\":3098:3138   */\n      add\n        /* \"#utility.yul\":3082:3139   */\n      tag_252\n      jump\t// in\n    tag_291:\n        /* \"#utility.yul\":3162:3168   */\n      dup2\n        /* \"#utility.yul\":3155:3160   */\n      dup2\n        /* \"#utility.yul\":3148:3169   */\n      mstore\n        /* \"#utility.yul\":3210:3217   */\n      dup7\n        /* \"#utility.yul\":3205:3207   */\n      0x20\n        /* \"#utility.yul\":3196:3202   */\n      dup4\n        /* \"#utility.yul\":3192:3194   */\n      dup6\n        /* \"#utility.yul\":3188:3203   */\n      add\n        /* \"#utility.yul\":3184:3208   */\n      add\n        /* \"#utility.yul\":3181:3218   */\n      gt\n        /* \"#utility.yul\":3178:3235   */\n      iszero\n      tag_292\n      jumpi\n        /* \"#utility.yul\":3231:3232   */\n      0x00\n        /* \"#utility.yul\":3228:3229   */\n      dup1\n        /* \"#utility.yul\":3221:3233   */\n      revert\n        /* \"#utility.yul\":3178:3235   */\n    tag_292:\n        /* \"#utility.yul\":3286:3292   */\n      dup2\n        /* \"#utility.yul\":3281:3283   */\n      0x20\n        /* \"#utility.yul\":3277:3279   */\n      dup5\n        /* \"#utility.yul\":3273:3284   */\n      add\n        /* \"#utility.yul\":3268:3270   */\n      0x20\n        /* \"#utility.yul\":3261:3266   */\n      dup4\n        /* \"#utility.yul\":3257:3271   */\n      add\n        /* \"#utility.yul\":3244:3293   */\n      calldatacopy\n        /* \"#utility.yul\":3338:3339   */\n      0x00\n        /* \"#utility.yul\":3333:3335   */\n      0x20\n        /* \"#utility.yul\":3324:3330   */\n      dup4\n        /* \"#utility.yul\":3317:3322   */\n      dup4\n        /* \"#utility.yul\":3313:3331   */\n      add\n        /* \"#utility.yul\":3309:3336   */\n      add\n        /* \"#utility.yul\":3302:3340   */\n      mstore\n        /* \"#utility.yul\":3359:3364   */\n      dup1\n        /* \"#utility.yul\":3349:3364   */\n      swap4\n      pop\n      pop\n      pop\n      pop\n        /* \"#utility.yul\":2531:3370   */\n      swap3\n      pop\n      swap3\n      swap1\n      pop\n      jump\t// out\n        /* \"#utility.yul\":4047:4297   */\n    tag_253:\n        /* \"#utility.yul\":4132:4133   */\n      0x00\n        /* \"#utility.yul\":4142:4255   */\n    tag_297:\n        /* \"#utility.yul\":4156:4162   */\n      dup4\n        /* \"#utility.yul\":4153:4154   */\n      dup2\n        /* \"#utility.yul\":4150:4163   */\n      lt\n        /* \"#utility.yul\":4142:4255   */\n      iszero\n      tag_299\n      jumpi\n        /* \"#utility.yul\":4232:4243   */\n      dup2\n      dup2\n      add\n        /* \"#utility.yul\":4226:4244   */\n      mload\n        /* \"#utility.yul\":4213:4224   */\n      dup4\n      dup3\n      add\n        /* \"#utility.yul\":4206:4245   */\n      mstore\n        /* \"#utility.yul\":4178:4180   */\n      0x20\n        /* \"#utility.yul\":4171:4181   */\n      add\n        /* \"#utility.yul\":4142:4255   */\n      jump(tag_297)\n    tag_299:\n      pop\n      pop\n        /* \"#utility.yul\":4289:4290   */\n      0x00\n        /* \"#utility.yul\":4271:4287   */\n      swap2\n      add\n        /* \"#utility.yul\":4264:4291   */\n      mstore\n        /* \"#utility.yul\":4047:4297   */\n      jump\t// out\n        /* \"#utility.yul\":4302:4573   */\n    tag_254:\n        /* \"#utility.yul\":4344:4347   */\n      0x00\n        /* \"#utility.yul\":4382:4387   */\n      dup2\n        /* \"#utility.yul\":4376:4388   */\n      mload\n        /* \"#utility.yul\":4409:4415   */\n      dup1\n        /* \"#utility.yul\":4404:4407   */\n      dup5\n        /* \"#utility.yul\":4397:4416   */\n      mstore\n        /* \"#utility.yul\":4425:4501   */\n      tag_301\n        /* \"#utility.yul\":4494:4500   */\n      dup2\n        /* \"#utility.yul\":4487:4491   */\n      0x20\n        /* \"#utility.yul\":4482:4485   */\n      dup7\n        /* \"#utility.yul\":4478:4492   */\n      add\n        /* \"#utility.yul\":4471:4475   */\n      0x20\n        /* \"#utility.yul\":4464:4469   */\n      dup7\n        /* \"#utility.yul\":4460:4476   */\n      add\n        /* \"#utility.yul\":4425:4501   */\n      tag_253\n      jump\t// in\n    tag_301:\n        /* \"#utility.yul\":4555:4557   */\n      0x1f\n        /* \"#utility.yul\":4534:4549   */\n      add\n      not(0x1f)\n        /* \"#utility.yul\":4530:4559   */\n      and\n        /* \"#utility.yul\":4521:4560   */\n      swap3\n      swap1\n      swap3\n      add\n        /* \"#utility.yul\":4562:4566   */\n      0x20\n        /* \"#utility.yul\":4517:4567   */\n      add\n      swap3\n        /* \"#utility.yul\":4302:4573   */\n      swap2\n      pop\n      pop\n      jump\t// out\n        /* \"#utility.yul\":4578:4798   */\n    tag_57:\n        /* \"#utility.yul\":4727:4729   */\n      0x20\n        /* \"#utility.yul\":4716:4725   */\n      dup2\n        /* \"#utility.yul\":4709:4730   */\n      mstore\n        /* \"#utility.yul\":4690:4694   */\n      0x00\n        /* \"#utility.yul\":4747:4792   */\n      tag_241\n        /* \"#utility.yul\":4788:4790   */\n      0x20\n        /* \"#utility.yul\":4777:4786   */\n      dup4\n        /* \"#utility.yul\":4773:4791   */\n      add\n        /* \"#utility.yul\":4765:4771   */\n      dup5\n        /* \"#utility.yul\":4747:4792   */\n      tag_254\n      jump\t// in\n        /* \"#utility.yul\":4803:4987   */\n    tag_61:\n        /* \"#utility.yul\":4861:4867   */\n      0x00\n        /* \"#utility.yul\":4914:4916   */\n      0x20\n        /* \"#utility.yul\":4902:4911   */\n      dup3\n        /* \"#utility.yul\":4893:4900   */\n      dup5\n        /* \"#utility.yul\":4889:4912   */\n      sub\n        /* \"#utility.yul\":4885:4917   */\n      slt\n        /* \"#utility.yul\":4882:4934   */\n      iszero\n      tag_305\n      jumpi\n        /* \"#utility.yul\":4930:4931   */\n      0x00\n        /* \"#utility.yul\":4927:4928   */\n      dup1\n        /* \"#utility.yul\":4920:4932   */\n      revert\n        /* \"#utility.yul\":4882:4934   */\n    tag_305:\n        /* \"#utility.yul\":4953:4981   */\n      tag_241\n        /* \"#utility.yul\":4971:4980   */\n      dup3\n        /* \"#utility.yul\":4953:4981   */\n      tag_248\n      jump\t// in\n        /* \"#utility.yul\":4992:5178   */\n    tag_67:\n        /* \"#utility.yul\":5051:5057   */\n      0x00\n        /* \"#utility.yul\":5104:5106   */\n      0x20\n        /* \"#utility.yul\":5092:5101   */\n      dup3\n        /* \"#utility.yul\":5083:5090   */\n      dup5\n        /* \"#utility.yul\":5079:5102   */\n      sub\n        /* \"#utility.yul\":5075:5107   */\n      slt\n        /* \"#utility.yul\":5072:5124   */\n      iszero\n      tag_308\n      jumpi\n        /* \"#utility.yul\":5120:5121   */\n      0x00\n        /* \"#utility.yul\":5117:5118   */\n      dup1\n        /* \"#utility.yul\":5110:5122   */\n      revert\n        /* \"#utility.yul\":5072:5124   */\n    tag_308:\n        /* \"#utility.yul\":5143:5172   */\n      tag_241\n        /* \"#utility.yul\":5162:5171   */\n      dup3\n        /* \"#utility.yul\":5143:5172   */\n      tag_250\n      jump\t// in\n        /* \"#utility.yul\":5832:6099   */\n    tag_255:\n        /* \"#utility.yul\":5921:5927   */\n      dup2\n        /* \"#utility.yul\":5916:5919   */\n      dup4\n        /* \"#utility.yul\":5909:5928   */\n      mstore\n        /* \"#utility.yul\":5973:5979   */\n      dup2\n        /* \"#utility.yul\":5966:5971   */\n      dup2\n        /* \"#utility.yul\":5959:5963   */\n      0x20\n        /* \"#utility.yul\":5954:5957   */\n      dup6\n        /* \"#utility.yul\":5950:5964   */\n      add\n        /* \"#utility.yul\":5937:5980   */\n      calldatacopy\n      pop\n        /* \"#utility.yul\":6025:6026   */\n      0x00\n        /* \"#utility.yul\":6000:6016   */\n      dup3\n      dup3\n      add\n        /* \"#utility.yul\":6018:6022   */\n      0x20\n        /* \"#utility.yul\":5996:6023   */\n      swap1\n      dup2\n      add\n        /* \"#utility.yul\":5989:6027   */\n      swap2\n      swap1\n      swap2\n      mstore\n        /* \"#utility.yul\":6081:6083   */\n      0x1f\n        /* \"#utility.yul\":6060:6075   */\n      swap1\n      swap2\n      add\n      not(0x1f)\n        /* \"#utility.yul\":6056:6085   */\n      and\n        /* \"#utility.yul\":6047:6086   */\n      swap1\n      swap2\n      add\n        /* \"#utility.yul\":6043:6093   */\n      add\n      swap1\n        /* \"#utility.yul\":5832:6099   */\n      jump\t// out\n        /* \"#utility.yul\":6104:6422   */\n    tag_84:\n        /* \"#utility.yul\":6291:6293   */\n      0x40\n        /* \"#utility.yul\":6280:6289   */\n      dup2\n        /* \"#utility.yul\":6273:6294   */\n      mstore\n        /* \"#utility.yul\":6254:6258   */\n      0x00\n        /* \"#utility.yul\":6311:6373   */\n      tag_314\n        /* \"#utility.yul\":6369:6371   */\n      0x40\n        /* \"#utility.yul\":6358:6367   */\n      dup4\n        /* \"#utility.yul\":6354:6372   */\n      add\n        /* \"#utility.yul\":6346:6352   */\n      dup6\n        /* \"#utility.yul\":6338:6344   */\n      dup8\n        /* \"#utility.yul\":6311:6373   */\n      tag_255\n      jump\t// in\n    tag_314:\n        /* \"#utility.yul\":6303:6373   */\n      swap1\n      pop\n        /* \"#utility.yul\":6409:6415   */\n      dup3\n        /* \"#utility.yul\":6404:6406   */\n      0x20\n        /* \"#utility.yul\":6393:6402   */\n      dup4\n        /* \"#utility.yul\":6389:6407   */\n      add\n        /* \"#utility.yul\":6382:6416   */\n      mstore\n        /* \"#utility.yul\":6104:6422   */\n      swap5\n      swap4\n      pop\n      pop\n      pop\n      pop\n      jump\t// out\n        /* \"#utility.yul\":6427:7337   */\n    tag_86:\n        /* \"#utility.yul\":6646:6648   */\n      0x40\n        /* \"#utility.yul\":6635:6644   */\n      dup2\n        /* \"#utility.yul\":6628:6649   */\n      mstore\n        /* \"#utility.yul\":6704:6714   */\n      0xffffffff\n        /* \"#utility.yul\":6695:6701   */\n      dup4\n        /* \"#utility.yul\":6689:6702   */\n      mload\n        /* \"#utility.yul\":6685:6715   */\n      and\n        /* \"#utility.yul\":6680:6682   */\n      0x40\n        /* \"#utility.yul\":6669:6678   */\n      dup3\n        /* \"#utility.yul\":6665:6683   */\n      add\n        /* \"#utility.yul\":6658:6716   */\n      mstore\n        /* \"#utility.yul\":6770:6774   */\n      0x20\n        /* \"#utility.yul\":6762:6768   */\n      dup4\n        /* \"#utility.yul\":6758:6775   */\n      add\n        /* \"#utility.yul\":6752:6776   */\n      mload\n        /* \"#utility.yul\":6747:6749   */\n      0x60\n        /* \"#utility.yul\":6736:6745   */\n      dup3\n        /* \"#utility.yul\":6732:6750   */\n      add\n        /* \"#utility.yul\":6725:6777   */\n      mstore\n        /* \"#utility.yul\":6609:6613   */\n      0x00\n        /* \"#utility.yul\":6824:6826   */\n      0x40\n        /* \"#utility.yul\":6816:6822   */\n      dup5\n        /* \"#utility.yul\":6812:6827   */\n      add\n        /* \"#utility.yul\":6806:6828   */\n      mload\n        /* \"#utility.yul\":6865:6869   */\n      0xa0\n        /* \"#utility.yul\":6859:6862   */\n      0x80\n        /* \"#utility.yul\":6848:6857   */\n      dup5\n        /* \"#utility.yul\":6844:6863   */\n      add\n        /* \"#utility.yul\":6837:6870   */\n      mstore\n        /* \"#utility.yul\":6893:6945   */\n      tag_316\n        /* \"#utility.yul\":6940:6943   */\n      0xe0\n        /* \"#utility.yul\":6929:6938   */\n      dup5\n        /* \"#utility.yul\":6925:6944   */\n      add\n        /* \"#utility.yul\":6911:6923   */\n      dup3\n        /* \"#utility.yul\":6893:6945   */\n      tag_254\n      jump\t// in\n    tag_316:\n        /* \"#utility.yul\":6879:6945   */\n      swap1\n      pop\n        /* \"#utility.yul\":6994:6996   */\n      0x60\n        /* \"#utility.yul\":6986:6992   */\n      dup6\n        /* \"#utility.yul\":6982:6997   */\n      add\n        /* \"#utility.yul\":6976:6998   */\n      mload\n        /* \"#utility.yul\":7068:7070   */\n      0x3f\n        /* \"#utility.yul\":7064:7071   */\n      not\n        /* \"#utility.yul\":7052:7061   */\n      dup5\n        /* \"#utility.yul\":7044:7050   */\n      dup4\n        /* \"#utility.yul\":7040:7062   */\n      sub\n        /* \"#utility.yul\":7036:7072   */\n      add\n        /* \"#utility.yul\":7029:7033   */\n      0xa0\n        /* \"#utility.yul\":7018:7027   */\n      dup6\n        /* \"#utility.yul\":7014:7034   */\n      add\n        /* \"#utility.yul\":7007:7073   */\n      mstore\n        /* \"#utility.yul\":7096:7137   */\n      tag_317\n        /* \"#utility.yul\":7130:7136   */\n      dup3\n        /* \"#utility.yul\":7114:7128   */\n      dup3\n        /* \"#utility.yul\":7096:7137   */\n      tag_254\n      jump\t// in\n    tag_317:\n        /* \"#utility.yul\":7206:7209   */\n      0x80\n        /* \"#utility.yul\":7194:7210   */\n      swap7\n      swap1\n      swap7\n      add\n        /* \"#utility.yul\":7188:7211   */\n      mload\n        /* \"#utility.yul\":7181:7212   */\n      iszero\n        /* \"#utility.yul\":7174:7213   */\n      iszero\n        /* \"#utility.yul\":7168:7171   */\n      0xc0\n        /* \"#utility.yul\":7153:7172   */\n      dup6\n      add\n        /* \"#utility.yul\":7146:7214   */\n      mstore\n      pop\n      pop\n      pop\n      sub(shl(0xa0, 0x01), 0x01)\n        /* \"#utility.yul\":7275:7330   */\n      swap2\n      swap1\n      swap2\n      and\n        /* \"#utility.yul\":7268:7272   */\n      0x20\n        /* \"#utility.yul\":7253:7273   */\n      swap1\n      swap2\n      add\n        /* \"#utility.yul\":7246:7331   */\n      mstore\n        /* \"#utility.yul\":7082:7137   */\n      swap1\n        /* \"#utility.yul\":6427:7337   */\n      jump\t// out\n        /* \"#utility.yul\":7342:7944   */\n    tag_256:\n        /* \"#utility.yul\":7412:7417   */\n      0x00\n        /* \"#utility.yul\":7460:7464   */\n      0x40\n        /* \"#utility.yul\":7448:7457   */\n      dup3\n        /* \"#utility.yul\":7443:7446   */\n      dup5\n        /* \"#utility.yul\":7439:7458   */\n      sub\n        /* \"#utility.yul\":7435:7465   */\n      slt\n        /* \"#utility.yul\":7432:7482   */\n      iszero\n      tag_319\n      jumpi\n        /* \"#utility.yul\":7478:7479   */\n      0x00\n        /* \"#utility.yul\":7475:7476   */\n      dup1\n        /* \"#utility.yul\":7468:7480   */\n      revert\n        /* \"#utility.yul\":7432:7482   */\n    tag_319:\n        /* \"#utility.yul\":7531:7535   */\n      0x40\n        /* \"#utility.yul\":7525:7536   */\n      dup1\n      mload\n      swap1\n        /* \"#utility.yul\":7563:7580   */\n      dup2\n      add\n        /* \"#utility.yul\":7610:7628   */\n      0xffffffffffffffff\n        /* \"#utility.yul\":7595:7629   */\n      dup2\n      gt\n        /* \"#utility.yul\":7631:7653   */\n      dup3\n      dup3\n      lt\n        /* \"#utility.yul\":7592:7654   */\n      or\n        /* \"#utility.yul\":7589:7677   */\n      iszero\n      tag_321\n      jumpi\n        /* \"#utility.yul\":7657:7675   */\n      tag_321\n      tag_251\n      jump\t// in\n    tag_321:\n        /* \"#utility.yul\":7693:7697   */\n      0x40\n        /* \"#utility.yul\":7686:7710   */\n      mstore\n        /* \"#utility.yul\":7779:7795   */\n      dup3\n      mload\n        /* \"#utility.yul\":7804:7827   */\n      dup2\n      mstore\n        /* \"#utility.yul\":7893:7895   */\n      0x20\n        /* \"#utility.yul\":7878:7896   */\n      swap3\n      dup4\n      add\n        /* \"#utility.yul\":7872:7897   */\n      mload\n        /* \"#utility.yul\":7913:7928   */\n      swap3\n      dup2\n      add\n        /* \"#utility.yul\":7906:7938   */\n      swap3\n      swap1\n      swap3\n      mstore\n      pop\n        /* \"#utility.yul\":7728:7734   */\n      swap2\n        /* \"#utility.yul\":7342:7944   */\n      swap1\n      pop\n      jump\t// out\n        /* \"#utility.yul\":7949:8784   */\n    tag_90:\n        /* \"#utility.yul\":8051:8057   */\n      0x00\n        /* \"#utility.yul\":8111:8114   */\n      0x80\n        /* \"#utility.yul\":8099:8108   */\n      dup3\n        /* \"#utility.yul\":8090:8097   */\n      dup5\n        /* \"#utility.yul\":8086:8109   */\n      sub\n        /* \"#utility.yul\":8082:8115   */\n      slt\n        /* \"#utility.yul\":8127:8129   */\n      dup1\n        /* \"#utility.yul\":8124:8146   */\n      iszero\n      tag_323\n      jumpi\n        /* \"#utility.yul\":8142:8143   */\n      0x00\n        /* \"#utility.yul\":8139:8140   */\n      dup1\n        /* \"#utility.yul\":8132:8144   */\n      revert\n        /* \"#utility.yul\":8124:8146   */\n    tag_323:\n      pop\n        /* \"#utility.yul\":8212:8214   */\n      0x40\n        /* \"#utility.yul\":8206:8215   */\n      mload\n        /* \"#utility.yul\":8161:8162   */\n      0x00\n      swap1\n        /* \"#utility.yul\":8254:8258   */\n      0x60\n        /* \"#utility.yul\":8242:8259   */\n      dup2\n      add\n        /* \"#utility.yul\":8289:8307   */\n      0xffffffffffffffff\n        /* \"#utility.yul\":8274:8308   */\n      dup2\n      gt\n        /* \"#utility.yul\":8310:8332   */\n      dup3\n      dup3\n      lt\n        /* \"#utility.yul\":8271:8333   */\n      or\n        /* \"#utility.yul\":8268:8356   */\n      iszero\n      tag_325\n      jumpi\n        /* \"#utility.yul\":8336:8354   */\n      tag_325\n      tag_251\n      jump\t// in\n    tag_325:\n        /* \"#utility.yul\":8372:8374   */\n      0x40\n        /* \"#utility.yul\":8365:8387   */\n      mstore\n        /* \"#utility.yul\":8429:8445   */\n      dup4\n      mload\n        /* \"#utility.yul\":8454:8475   */\n      dup2\n      mstore\n        /* \"#utility.yul\":8520:8522   */\n      0x20\n        /* \"#utility.yul\":8505:8523   */\n      dup5\n      add\n        /* \"#utility.yul\":8499:8524   */\n      mload\n        /* \"#utility.yul\":8568:8586   */\n      0xffffffffffffffff\n        /* \"#utility.yul\":8555:8587   */\n      dup2\n      and\n        /* \"#utility.yul\":8543:8588   */\n      dup2\n      eq\n        /* \"#utility.yul\":8533:8608   */\n      tag_326\n      jumpi\n        /* \"#utility.yul\":8603:8605   */\n      dup3\n        /* \"#utility.yul\":8599:8601   */\n      dup4\n        /* \"#utility.yul\":8592:8606   */\n      revert\n        /* \"#utility.yul\":8533:8608   */\n    tag_326:\n        /* \"#utility.yul\":8636:8638   */\n      0x20\n        /* \"#utility.yul\":8624:8639   */\n      dup3\n      add\n        /* \"#utility.yul\":8617:8649   */\n      mstore\n        /* \"#utility.yul\":8682:8752   */\n      tag_327\n        /* \"#utility.yul\":8744:8751   */\n      dup6\n        /* \"#utility.yul\":8739:8741   */\n      0x40\n        /* \"#utility.yul\":8724:8742   */\n      dup7\n      add\n        /* \"#utility.yul\":8682:8752   */\n      tag_256\n      jump\t// in\n    tag_327:\n        /* \"#utility.yul\":8677:8679   */\n      0x40\n        /* \"#utility.yul\":8665:8680   */\n      dup3\n      add\n        /* \"#utility.yul\":8658:8753   */\n      mstore\n        /* \"#utility.yul\":8669:8675   */\n      swap5\n        /* \"#utility.yul\":7949:8784   */\n      swap4\n      pop\n      pop\n      pop\n      pop\n      jump\t// out\n        /* \"#utility.yul\":8789:9266   */\n    tag_92:\n        /* \"#utility.yul\":9042:9052   */\n      0xffffffff\n        /* \"#utility.yul\":9034:9040   */\n      dup7\n        /* \"#utility.yul\":9030:9053   */\n      and\n        /* \"#utility.yul\":9019:9028   */\n      dup2\n        /* \"#utility.yul\":9012:9054   */\n      mstore\n        /* \"#utility.yul\":9090:9096   */\n      dup5\n        /* \"#utility.yul\":9085:9087   */\n      0x20\n        /* \"#utility.yul\":9074:9083   */\n      dup3\n        /* \"#utility.yul\":9070:9088   */\n      add\n        /* \"#utility.yul\":9063:9097   */\n      mstore\n        /* \"#utility.yul\":9133:9136   */\n      0x80\n        /* \"#utility.yul\":9128:9130   */\n      0x40\n        /* \"#utility.yul\":9117:9126   */\n      dup3\n        /* \"#utility.yul\":9113:9131   */\n      add\n        /* \"#utility.yul\":9106:9137   */\n      mstore\n        /* \"#utility.yul\":8993:8997   */\n      0x00\n        /* \"#utility.yul\":9154:9217   */\n      tag_329\n        /* \"#utility.yul\":9212:9215   */\n      0x80\n        /* \"#utility.yul\":9201:9210   */\n      dup4\n        /* \"#utility.yul\":9197:9216   */\n      add\n        /* \"#utility.yul\":9189:9195   */\n      dup6\n        /* \"#utility.yul\":9181:9187   */\n      dup8\n        /* \"#utility.yul\":9154:9217   */\n      tag_255\n      jump\t// in\n    tag_329:\n        /* \"#utility.yul\":9146:9217   */\n      swap1\n      pop\n        /* \"#utility.yul\":9253:9259   */\n      dup3\n        /* \"#utility.yul\":9248:9250   */\n      0x60\n        /* \"#utility.yul\":9237:9246   */\n      dup4\n        /* \"#utility.yul\":9233:9251   */\n      add\n        /* \"#utility.yul\":9226:9260   */\n      mstore\n        /* \"#utility.yul\":8789:9266   */\n      swap7\n      swap6\n      pop\n      pop\n      pop\n      pop\n      pop\n      pop\n      jump\t// out\n        /* \"#utility.yul\":9485:9742   */\n    tag_149:\n        /* \"#utility.yul\":9583:9589   */\n      0x00\n        /* \"#utility.yul\":9636:9638   */\n      0x40\n        /* \"#utility.yul\":9624:9633   */\n      dup3\n        /* \"#utility.yul\":9615:9622   */\n      dup5\n        /* \"#utility.yul\":9611:9634   */\n      sub\n        /* \"#utility.yul\":9607:9639   */\n      slt\n        /* \"#utility.yul\":9604:9656   */\n      iszero\n      tag_332\n      jumpi\n        /* \"#utility.yul\":9652:9653   */\n      0x00\n        /* \"#utility.yul\":9649:9650   */\n      dup1\n        /* \"#utility.yul\":9642:9654   */\n      revert\n        /* \"#utility.yul\":9604:9656   */\n    tag_332:\n        /* \"#utility.yul\":9675:9736   */\n      tag_241\n        /* \"#utility.yul\":9728:9735   */\n      dup4\n        /* \"#utility.yul\":9717:9726   */\n      dup4\n        /* \"#utility.yul\":9675:9736   */\n      tag_256\n      jump\t// in\n        /* \"#utility.yul\":9747:9977   */\n    tag_180:\n        /* \"#utility.yul\":9817:9823   */\n      0x00\n        /* \"#utility.yul\":9870:9872   */\n      0x20\n        /* \"#utility.yul\":9858:9867   */\n      dup3\n        /* \"#utility.yul\":9849:9856   */\n      dup5\n        /* \"#utility.yul\":9845:9868   */\n      sub\n        /* \"#utility.yul\":9841:9873   */\n      slt\n        /* \"#utility.yul\":9838:9890   */\n      iszero\n      tag_335\n      jumpi\n        /* \"#utility.yul\":9886:9887   */\n      0x00\n        /* \"#utility.yul\":9883:9884   */\n      dup1\n        /* \"#utility.yul\":9876:9888   */\n      revert\n        /* \"#utility.yul\":9838:9890   */\n    tag_335:\n      pop\n        /* \"#utility.yul\":9931:9947   */\n      mload\n      swap2\n        /* \"#utility.yul\":9747:9977   */\n      swap1\n      pop\n      jump\t// out\n        /* \"#utility.yul\":9982:10269   */\n    tag_229:\n        /* \"#utility.yul\":10111:10114   */\n      0x00\n        /* \"#utility.yul\":10149:10155   */\n      dup3\n        /* \"#utility.yul\":10143:10156   */\n      mload\n        /* \"#utility.yul\":10165:10231   */\n      tag_337\n        /* \"#utility.yul\":10224:10230   */\n      dup2\n        /* \"#utility.yul\":10219:10222   */\n      dup5\n        /* \"#utility.yul\":10212:10216   */\n      0x20\n        /* \"#utility.yul\":10204:10210   */\n      dup8\n        /* \"#utility.yul\":10200:10217   */\n      add\n        /* \"#utility.yul\":10165:10231   */\n      tag_253\n      jump\t// in\n    tag_337:\n        /* \"#utility.yul\":10247:10263   */\n      swap2\n      swap1\n      swap2\n      add\n      swap3\n        /* \"#utility.yul\":9982:10269   */\n      swap2\n      pop\n      pop\n      jump\t// out\n\n    auxdata: 0xa264697066735822122073d52271add20d0463eb9fee97db8fe21108946daed8ecaab52be184741f7a5764736f6c634300081c0033\n}\n",
				"bytecode": {
					"linkReferences": {},
					"object": "60a060405230608052348015601357600080fd5b5060805161126261003d600039600081816108a7015281816108d00152610a3a01526112626000f3fe6080604052600436106100c75760003560e01c8063715018a611610074578063bb0b6a531161004e578063bb0b6a5314610224578063f2fde38b14610251578063f66fef9f1461027157600080fd5b8063715018a6146101945780638da5cb5b146101a9578063ad3cb1cc146101e657600080fd5b80634f1ef286116100a55780634f1ef2861461012157806352d1902d146101345780635e280f111461015c57600080fd5b80633400288b146100cc5780634855fe17146100ee578063485cc95514610101575b600080fd5b3480156100d857600080fd5b506100ec6100e7366004610d3d565b6102ac565b005b6100ec6100fc366004610db0565b6102cd565b34801561010d57600080fd5b506100ec61011c366004610e56565b61048b565b6100ec61012f366004610ed0565b610614565b34801561014057600080fd5b50610149610633565b6040519081526020015b60405180910390f35b34801561016857600080fd5b5060005461017c906001600160a01b031681565b6040516001600160a01b039091168152602001610153565b3480156101a057600080fd5b506100ec610662565b3480156101b557600080fd5b507f9016d09d72d40fdae2fd8ceac6b6234c7706214fd39c1cd1e609a0528c199300546001600160a01b031661017c565b3480156101f257600080fd5b50610217604051806040016040528060058152602001640352e302e360dc1b81525081565b6040516101539190610fcb565b34801561023057600080fd5b5061014961023f366004610fde565b60016020526000908152604090205481565b34801561025d57600080fd5b506100ec61026c366004610ff9565b610676565b34801561027d57600080fd5b5061029161028c366004610db0565b6106b4565b60408051825181526020928301519281019290925201610153565b6102b4610828565b63ffffffff909116600090815260016020526040902055565b63ffffffff86166000908152600160205260409020546103235760405162461bcd60e51b815260206004820152600c60248201526b1419595c881b9bdd081cd95d60a21b60448201526064015b60405180910390fd5b600085858560405160200161033a9392919061103d565b60408051601f1981840301815260a08301825263ffffffff8a1680845260009081526001602090815283822054858201528484018390528351601f880182900482028101820190945286845291945092916060830191879087908190840183828082843760009201829052509385525050506020909101819052546040516302637a4560e41b81529192506001600160a01b031690632637a4509034906103e79085903390600401611061565b60806040518083038185885af1158015610405573d6000803e3d6000fd5b50505050506040513d601f19601f8201168201806040525081019061042a9190611129565b5063ffffffff8816600090815260016020526040908190205490517f3aee2e9f3d248dc7e0f1a5564e3bacc5c9bd7c31967d06b5c277e1a0767a6a1291610479918b91908b908b908b906111a3565b60405180910390a15050505050505050565b7ff0c57e16840df040f15088dc2f81fe391c3923bec73e23a9662efc9c229c6a008054600160401b810460ff16159067ffffffffffffffff166000811580156104d15750825b905060008267ffffffffffffffff1660011480156104ee5750303b155b9050811580156104fc575080155b1561051a5760405163f92ee8a960e01b815260040160405180910390fd5b845467ffffffffffffffff19166001178555831561054457845460ff60401b1916600160401b1785555b61054d86610883565b610555610894565b600080546001600160a01b0319166001600160a01b0389811691821790925560405163ca5eb5e160e01b815291881660048301529063ca5eb5e190602401600060405180830381600087803b1580156105ad57600080fd5b505af11580156105c1573d6000803e3d6000fd5b50505050831561060b57845460ff60401b19168555604051600181527fc7f505b2f371ae2175ee4913f4499e1f2633a7b5936321eed1cdaeb6115181d29060200160405180910390a15b50505050505050565b61061c61089c565b61062582610953565b61062f828261095b565b5050565b600061063d610a2f565b507f360894a13ba1a3210667c828492db98dca3e2076cc3735a920a3ca505d382bbc90565b61066a610828565b6106746000610a78565b565b61067e610828565b6001600160a01b0381166106a857604051631e4fbdf760e01b81526000600482015260240161031a565b6106b181610a78565b50565b604080518082019091526000808252602082015263ffffffff87166000908152600160205260409020546107195760405162461bcd60e51b815260206004820152600c60248201526b1419595c881b9bdd081cd95d60a21b604482015260640161031a565b60008686866040516020016107309392919061103d565b60408051601f1981840301815260a08301825263ffffffff8b1680845260009081526001602090815283822054858201528484018390528351601f89018290048202810182019094528784529194509291606083019188908890819084018382808284376000920182905250938552505050602090910181905254604051631bb8518b60e31b81529192506001600160a01b03169063ddc28c58906107db9084903390600401611061565b6040805180830381865afa1580156107f7573d6000803e3d6000fd5b505050506040513d601f19601f8201168201806040525081019061081b91906111db565b9998505050505050505050565b3361085a7f9016d09d72d40fdae2fd8ceac6b6234c7706214fd39c1cd1e609a0528c199300546001600160a01b031690565b6001600160a01b0316146106745760405163118cdaa760e01b815233600482015260240161031a565b61088b610ae9565b6106b181610b32565b610674610ae9565b306001600160a01b037f000000000000000000000000000000000000000000000000000000000000000016148061093557507f00000000000000000000000000000000000000000000000000000000000000006001600160a01b03166109297f360894a13ba1a3210667c828492db98dca3e2076cc3735a920a3ca505d382bbc546001600160a01b031690565b6001600160a01b031614155b156106745760405163703e46dd60e11b815260040160405180910390fd5b6106b1610828565b816001600160a01b03166352d1902d6040518163ffffffff1660e01b8152600401602060405180830381865afa9250505080156109b5575060408051601f3d908101601f191682019092526109b2918101906111f7565b60015b6109dd57604051634c9c8ce360e01b81526001600160a01b038316600482015260240161031a565b7f360894a13ba1a3210667c828492db98dca3e2076cc3735a920a3ca505d382bbc8114610a2057604051632a87526960e21b81526004810182905260240161031a565b610a2a8383610b3a565b505050565b306001600160a01b037f000000000000000000000000000000000000000000000000000000000000000016146106745760405163703e46dd60e11b815260040160405180910390fd5b7f9016d09d72d40fdae2fd8ceac6b6234c7706214fd39c1cd1e609a0528c19930080546001600160a01b031981166001600160a01b03848116918217845560405192169182907f8be0079c531659141344cd1fd0a4f28419497f9722a3daafe3b4186f6b6457e090600090a3505050565b7ff0c57e16840df040f15088dc2f81fe391c3923bec73e23a9662efc9c229c6a0054600160401b900460ff1661067457604051631afcd79f60e31b815260040160405180910390fd5b61067e610ae9565b610b4382610b90565b6040516001600160a01b038316907fbc7cd75a20ee27fd9adebab32041f755214dbc6bffa90cc0225b39da2e5c2d3b90600090a2805115610b8857610a2a8282610c07565b61062f610c7d565b806001600160a01b03163b600003610bc657604051634c9c8ce360e01b81526001600160a01b038216600482015260240161031a565b7f360894a13ba1a3210667c828492db98dca3e2076cc3735a920a3ca505d382bbc80546001600160a01b0319166001600160a01b0392909216919091179055565b6060600080846001600160a01b031684604051610c249190611210565b600060405180830381855af49150503d8060008114610c5f576040519150601f19603f3d011682016040523d82523d6000602084013e610c64565b606091505b5091509150610c74858383610c9c565b95945050505050565b34156106745760405163b398979f60e01b815260040160405180910390fd5b606082610cb157610cac82610cfb565b610cf4565b8151158015610cc857506001600160a01b0384163b155b15610cf157604051639996b31560e01b81526001600160a01b038516600482015260240161031a565b50805b9392505050565b805115610d0b5780518082602001fd5b60405163d6bda27560e01b815260040160405180910390fd5b803563ffffffff81168114610d3857600080fd5b919050565b60008060408385031215610d5057600080fd5b610d5983610d24565b946020939093013593505050565b60008083601f840112610d7957600080fd5b50813567ffffffffffffffff811115610d9157600080fd5b602083019150836020828501011115610da957600080fd5b9250929050565b60008060008060008060808789031215610dc957600080fd5b610dd287610d24565b9550602087013567ffffffffffffffff811115610dee57600080fd5b610dfa89828a01610d67565b90965094505060408701359250606087013567ffffffffffffffff811115610e2157600080fd5b610e2d89828a01610d67565b979a9699509497509295939492505050565b80356001600160a01b0381168114610d3857600080fd5b60008060408385031215610e6957600080fd5b610e7283610e3f565b9150610e8060208401610e3f565b90509250929050565b634e487b7160e01b600052604160045260246000fd5b604051601f8201601f1916810167ffffffffffffffff81118282101715610ec857610ec8610e89565b604052919050565b60008060408385031215610ee357600080fd5b610eec83610e3f565b9150602083013567ffffffffffffffff811115610f0857600080fd5b8301601f81018513610f1957600080fd5b803567ffffffffffffffff811115610f3357610f33610e89565b610f46601f8201601f1916602001610e9f565b818152866020838501011115610f5b57600080fd5b816020840160208301376000602083830101528093505050509250929050565b60005b83811015610f96578181015183820152602001610f7e565b50506000910152565b60008151808452610fb7816020860160208601610f7b565b601f01601f19169290920160200192915050565b602081526000610cf46020830184610f9f565b600060208284031215610ff057600080fd5b610cf482610d24565b60006020828403121561100b57600080fd5b610cf482610e3f565b81835281816020850137506000828201602090810191909152601f909101601f19169091010190565b604081526000611051604083018587611014565b9050826020830152949350505050565b6040815263ffffffff8351166040820152602083015160608201526000604084015160a0608084015261109760e0840182610f9f565b90506060850151603f198483030160a08501526110b48282610f9f565b60809690960151151560c08501525050506001600160a01b039190911660209091015290565b6000604082840312156110ec57600080fd5b6040805190810167ffffffffffffffff8111828210171561110f5761110f610e89565b604052825181526020928301519281019290925250919050565b6000608082840312801561113c57600080fd5b506040516000906060810167ffffffffffffffff8111828210171561116357611163610e89565b60405283518152602084015167ffffffffffffffff81168114611184578283fd5b602082015261119685604086016110da565b6040820152949350505050565b63ffffffff861681528460208201526080604082015260006111c9608083018587611014565b90508260608301529695505050505050565b6000604082840312156111ed57600080fd5b610cf483836110da565b60006020828403121561120957600080fd5b5051919050565b60008251611222818460208701610f7b565b919091019291505056fea264697066735822122073d52271add20d0463eb9fee97db8fe21108946daed8ecaab52be184741f7a5764736f6c634300081c0033",
					"opcodes": "PUSH1 0xA0 PUSH1 0x40 MSTORE ADDRESS PUSH1 0x80 MSTORE CALLVALUE DUP1 ISZERO PUSH1 0x13 JUMPI PUSH1 0x0 DUP1 REVERT JUMPDEST POP PUSH1 0x80 MLOAD PUSH2 0x1262 PUSH2 0x3D PUSH1 0x0 CODECOPY PUSH1 0x0 DUP2 DUP2 PUSH2 0x8A7 ADD MSTORE DUP2 DUP2 PUSH2 0x8D0 ADD MSTORE PUSH2 0xA3A ADD MSTORE PUSH2 0x1262 PUSH1 0x0 RETURN INVALID PUSH1 0x80 PUSH1 0x40 MSTORE PUSH1 0x4 CALLDATASIZE LT PUSH2 0xC7 JUMPI PUSH1 0x0 CALLDATALOAD PUSH1 0xE0 SHR DUP1 PUSH4 0x715018A6 GT PUSH2 0x74 JUMPI DUP1 PUSH4 0xBB0B6A53 GT PUSH2 0x4E JUMPI DUP1 PUSH4 0xBB0B6A53 EQ PUSH2 0x224 JUMPI DUP1 PUSH4 0xF2FDE38B EQ PUSH2 0x251 JUMPI DUP1 PUSH4 0xF66FEF9F EQ PUSH2 0x271 JUMPI PUSH1 0x0 DUP1 REVERT JUMPDEST DUP1 PUSH4 0x715018A6 EQ PUSH2 0x194 JUMPI DUP1 PUSH4 0x8DA5CB5B EQ PUSH2 0x1A9 JUMPI DUP1 PUSH4 0xAD3CB1CC EQ PUSH2 0x1E6 JUMPI PUSH1 0x0 DUP1 REVERT JUMPDEST DUP1 PUSH4 0x4F1EF286 GT PUSH2 0xA5 JUMPI DUP1 PUSH4 0x4F1EF286 EQ PUSH2 0x121 JUMPI DUP1 PUSH4 0x52D1902D EQ PUSH2 0x134 JUMPI DUP1 PUSH4 0x5E280F11 EQ PUSH2 0x15C JUMPI PUSH1 0x0 DUP1 REVERT JUMPDEST DUP1 PUSH4 0x3400288B EQ PUSH2 0xCC JUMPI DUP1 PUSH4 0x4855FE17 EQ PUSH2 0xEE JUMPI DUP1 PUSH4 0x485CC955 EQ PUSH2 0x101 JUMPI JUMPDEST PUSH1 0x0 DUP1 REVERT JUMPDEST CALLVALUE DUP1 ISZERO PUSH2 0xD8 JUMPI PUSH1 0x0 DUP1 REVERT JUMPDEST POP PUSH2 0xEC PUSH2 0xE7 CALLDATASIZE PUSH1 0x4 PUSH2 0xD3D JUMP JUMPDEST PUSH2 0x2AC JUMP JUMPDEST STOP JUMPDEST PUSH2 0xEC PUSH2 0xFC CALLDATASIZE PUSH1 0x4 PUSH2 0xDB0 JUMP JUMPDEST PUSH2 0x2CD JUMP JUMPDEST CALLVALUE DUP1 ISZERO PUSH2 0x10D JUMPI PUSH1 0x0 DUP1 REVERT JUMPDEST POP PUSH2 0xEC PUSH2 0x11C CALLDATASIZE PUSH1 0x4 PUSH2 0xE56 JUMP JUMPDEST PUSH2 0x48B JUMP JUMPDEST PUSH2 0xEC PUSH2 0x12F CALLDATASIZE PUSH1 0x4 PUSH2 0xED0 JUMP JUMPDEST PUSH2 0x614 JUMP JUMPDEST CALLVALUE DUP1 ISZERO PUSH2 0x140 JUMPI PUSH1 0x0 DUP1 REVERT JUMPDEST POP PUSH2 0x149 PUSH2 0x633 JUMP JUMPDEST PUSH1 0x40 MLOAD SWAP1 DUP2 MSTORE PUSH1 0x20 ADD JUMPDEST PUSH1 0x40 MLOAD DUP1 SWAP2 SUB SWAP1 RETURN JUMPDEST CALLVALUE DUP1 ISZERO PUSH2 0x168 JUMPI PUSH1 0x0 DUP1 REVERT JUMPDEST POP PUSH1 0x0 SLOAD PUSH2 0x17C SWAP1 PUSH1 0x1 PUSH1 0x1 PUSH1 0xA0 SHL SUB AND DUP2 JUMP JUMPDEST PUSH1 0x40 MLOAD PUSH1 0x1 PUSH1 0x1 PUSH1 0xA0 SHL SUB SWAP1 SWAP2 AND DUP2 MSTORE PUSH1 0x20 ADD PUSH2 0x153 JUMP JUMPDEST CALLVALUE DUP1 ISZERO PUSH2 0x1A0 JUMPI PUSH1 0x0 DUP1 REVERT JUMPDEST POP PUSH2 0xEC PUSH2 0x662 JUMP JUMPDEST CALLVALUE DUP1 ISZERO PUSH2 0x1B5 JUMPI PUSH1 0x0 DUP1 REVERT JUMPDEST POP PUSH32 0x9016D09D72D40FDAE2FD8CEAC6B6234C7706214FD39C1CD1E609A0528C199300 SLOAD PUSH1 0x1 PUSH1 0x1 PUSH1 0xA0 SHL SUB AND PUSH2 0x17C JUMP JUMPDEST CALLVALUE DUP1 ISZERO PUSH2 0x1F2 JUMPI PUSH1 0x0 DUP1 REVERT JUMPDEST POP PUSH2 0x217 PUSH1 0x40 MLOAD DUP1 PUSH1 0x40 ADD PUSH1 0x40 MSTORE DUP1 PUSH1 0x5 DUP2 MSTORE PUSH1 0x20 ADD PUSH5 0x352E302E3 PUSH1 0xDC SHL DUP2 MSTORE POP DUP2 JUMP JUMPDEST PUSH1 0x40 MLOAD PUSH2 0x153 SWAP2 SWAP1 PUSH2 0xFCB JUMP JUMPDEST CALLVALUE DUP1 ISZERO PUSH2 0x230 JUMPI PUSH1 0x0 DUP1 REVERT JUMPDEST POP PUSH2 0x149 PUSH2 0x23F CALLDATASIZE PUSH1 0x4 PUSH2 0xFDE JUMP JUMPDEST PUSH1 0x1 PUSH1 0x20 MSTORE PUSH1 0x0 SWAP1 DUP2 MSTORE PUSH1 0x40 SWAP1 KECCAK256 SLOAD DUP2 JUMP JUMPDEST CALLVALUE DUP1 ISZERO PUSH2 0x25D JUMPI PUSH1 0x0 DUP1 REVERT JUMPDEST POP PUSH2 0xEC PUSH2 0x26C CALLDATASIZE PUSH1 0x4 PUSH2 0xFF9 JUMP JUMPDEST PUSH2 0x676 JUMP JUMPDEST CALLVALUE DUP1 ISZERO PUSH2 0x27D JUMPI PUSH1 0x0 DUP1 REVERT JUMPDEST POP PUSH2 0x291 PUSH2 0x28C CALLDATASIZE PUSH1 0x4 PUSH2 0xDB0 JUMP JUMPDEST PUSH2 0x6B4 JUMP JUMPDEST PUSH1 0x40 DUP1 MLOAD DUP3 MLOAD DUP2 MSTORE PUSH1 0x20 SWAP3 DUP4 ADD MLOAD SWAP3 DUP2 ADD SWAP3 SWAP1 SWAP3 MSTORE ADD PUSH2 0x153 JUMP JUMPDEST PUSH2 0x2B4 PUSH2 0x828 JUMP JUMPDEST PUSH4 0xFFFFFFFF SWAP1 SWAP2 AND PUSH1 0x0 SWAP1 DUP2 MSTORE PUSH1 0x1 PUSH1 0x20 MSTORE PUSH1 0x40 SWAP1 KECCAK256 SSTORE JUMP JUMPDEST PUSH4 0xFFFFFFFF DUP7 AND PUSH1 0x0 SWAP1 DUP2 MSTORE PUSH1 0x1 PUSH1 0x20 MSTORE PUSH1 0x40 SWAP1 KECCAK256 SLOAD PUSH2 0x323 JUMPI PUSH1 0x40 MLOAD PUSH3 0x461BCD PUSH1 0xE5 SHL DUP2 MSTORE PUSH1 0x20 PUSH1 0x4 DUP3 ADD MSTORE PUSH1 0xC PUSH1 0x24 DUP3 ADD MSTORE PUSH12 0x1419595C881B9BDD081CD95D PUSH1 0xA2 SHL PUSH1 0x44 DUP3 ADD MSTORE PUSH1 0x64 ADD JUMPDEST PUSH1 0x40 MLOAD DUP1 SWAP2 SUB SWAP1 REVERT JUMPDEST PUSH1 0x0 DUP6 DUP6 DUP6 PUSH1 0x40 MLOAD PUSH1 0x20 ADD PUSH2 0x33A SWAP4 SWAP3 SWAP2 SWAP1 PUSH2 0x103D JUMP JUMPDEST PUSH1 0x40 DUP1 MLOAD PUSH1 0x1F NOT DUP2 DUP5 SUB ADD DUP2 MSTORE PUSH1 0xA0 DUP4 ADD DUP3 MSTORE PUSH4 0xFFFFFFFF DUP11 AND DUP1 DUP5 MSTORE PUSH1 0x0 SWAP1 DUP2 MSTORE PUSH1 0x1 PUSH1 0x20 SWAP1 DUP2 MSTORE DUP4 DUP3 KECCAK256 SLOAD DUP6 DUP3 ADD MSTORE DUP5 DUP5 ADD DUP4 SWAP1 MSTORE DUP4 MLOAD PUSH1 0x1F DUP9 ADD DUP3 SWAP1 DIV DUP3 MUL DUP2 ADD DUP3 ADD SWAP1 SWAP5 MSTORE DUP7 DUP5 MSTORE SWAP2 SWAP5 POP SWAP3 SWAP2 PUSH1 0x60 DUP4 ADD SWAP2 DUP8 SWAP1 DUP8 SWAP1 DUP2 SWAP1 DUP5 ADD DUP4 DUP3 DUP1 DUP3 DUP5 CALLDATACOPY PUSH1 0x0 SWAP3 ADD DUP3 SWAP1 MSTORE POP SWAP4 DUP6 MSTORE POP POP POP PUSH1 0x20 SWAP1 SWAP2 ADD DUP2 SWAP1 MSTORE SLOAD PUSH1 0x40 MLOAD PUSH4 0x2637A45 PUSH1 0xE4 SHL DUP2 MSTORE SWAP2 SWAP3 POP PUSH1 0x1 PUSH1 0x1 PUSH1 0xA0 SHL SUB AND SWAP1 PUSH4 0x2637A450 SWAP1 CALLVALUE SWAP1 PUSH2 0x3E7 SWAP1 DUP6 SWAP1 CALLER SWAP1 PUSH1 0x4 ADD PUSH2 0x1061 JUMP JUMPDEST PUSH1 0x80 PUSH1 0x40 MLOAD DUP1 DUP4 SUB DUP2 DUP6 DUP9 GAS CALL ISZERO DUP1 ISZERO PUSH2 0x405 JUMPI RETURNDATASIZE PUSH1 0x0 DUP1 RETURNDATACOPY RETURNDATASIZE PUSH1 0x0 REVERT JUMPDEST POP POP POP POP POP PUSH1 0x40 MLOAD RETURNDATASIZE PUSH1 0x1F NOT PUSH1 0x1F DUP3 ADD AND DUP3 ADD DUP1 PUSH1 0x40 MSTORE POP DUP2 ADD SWAP1 PUSH2 0x42A SWAP2 SWAP1 PUSH2 0x1129 JUMP JUMPDEST POP PUSH4 0xFFFFFFFF DUP9 AND PUSH1 0x0 SWAP1 DUP2 MSTORE PUSH1 0x1 PUSH1 0x20 MSTORE PUSH1 0x40 SWAP1 DUP2 SWAP1 KECCAK256 SLOAD SWAP1 MLOAD PUSH32 0x3AEE2E9F3D248DC7E0F1A5564E3BACC5C9BD7C31967D06B5C277E1A0767A6A12 SWAP2 PUSH2 0x479 SWAP2 DUP12 SWAP2 SWAP1 DUP12 SWAP1 DUP12 SWAP1 DUP12 SWAP1 PUSH2 0x11A3 JUMP JUMPDEST PUSH1 0x40 MLOAD DUP1 SWAP2 SUB SWAP1 LOG1 POP POP POP POP POP POP POP POP JUMP JUMPDEST PUSH32 0xF0C57E16840DF040F15088DC2F81FE391C3923BEC73E23A9662EFC9C229C6A00 DUP1 SLOAD PUSH1 0x1 PUSH1 0x40 SHL DUP2 DIV PUSH1 0xFF AND ISZERO SWAP1 PUSH8 0xFFFFFFFFFFFFFFFF AND PUSH1 0x0 DUP2 ISZERO DUP1 ISZERO PUSH2 0x4D1 JUMPI POP DUP3 JUMPDEST SWAP1 POP PUSH1 0x0 DUP3 PUSH8 0xFFFFFFFFFFFFFFFF AND PUSH1 0x1 EQ DUP1 ISZERO PUSH2 0x4EE JUMPI POP ADDRESS EXTCODESIZE ISZERO JUMPDEST SWAP1 POP DUP2 ISZERO DUP1 ISZERO PUSH2 0x4FC JUMPI POP DUP1 ISZERO JUMPDEST ISZERO PUSH2 0x51A JUMPI PUSH1 0x40 MLOAD PUSH4 0xF92EE8A9 PUSH1 0xE0 SHL DUP2 MSTORE PUSH1 0x4 ADD PUSH1 0x40 MLOAD DUP1 SWAP2 SUB SWAP1 REVERT JUMPDEST DUP5 SLOAD PUSH8 0xFFFFFFFFFFFFFFFF NOT AND PUSH1 0x1 OR DUP6 SSTORE DUP4 ISZERO PUSH2 0x544 JUMPI DUP5 SLOAD PUSH1 0xFF PUSH1 0x40 SHL NOT AND PUSH1 0x1 PUSH1 0x40 SHL OR DUP6 SSTORE JUMPDEST PUSH2 0x54D DUP7 PUSH2 0x883 JUMP JUMPDEST PUSH2 0x555 PUSH2 0x894 JUMP JUMPDEST PUSH1 0x0 DUP1 SLOAD PUSH1 0x1 PUSH1 0x1 PUSH1 0xA0 SHL SUB NOT AND PUSH1 0x1 PUSH1 0x1 PUSH1 0xA0 SHL SUB DUP10 DUP2 AND SWAP2 DUP3 OR SWAP1 SWAP3 SSTORE PUSH1 0x40 MLOAD PUSH4 0xCA5EB5E1 PUSH1 0xE0 SHL DUP2 MSTORE SWAP2 DUP9 AND PUSH1 0x4 DUP4 ADD MSTORE SWAP1 PUSH4 0xCA5EB5E1 SWAP1 PUSH1 0x24 ADD PUSH1 0x0 PUSH1 0x40 MLOAD DUP1 DUP4 SUB DUP2 PUSH1 0x0 DUP8 DUP1 EXTCODESIZE ISZERO DUP1 ISZERO PUSH2 0x5AD JUMPI PUSH1 0x0 DUP1 REVERT JUMPDEST POP GAS CALL ISZERO DUP1 ISZERO PUSH2 0x5C1 JUMPI RETURNDATASIZE PUSH1 0x0 DUP1 RETURNDATACOPY RETURNDATASIZE PUSH1 0x0 REVERT JUMPDEST POP POP POP POP DUP4 ISZERO PUSH2 0x60B JUMPI DUP5 SLOAD PUSH1 0xFF PUSH1 0x40 SHL NOT AND DUP6 SSTORE PUSH1 0x40 MLOAD PUSH1 0x1 DUP2 MSTORE PUSH32 0xC7F505B2F371AE2175EE4913F4499E1F2633A7B5936321EED1CDAEB6115181D2 SWAP1 PUSH1 0x20 ADD PUSH1 0x40 MLOAD DUP1 SWAP2 SUB SWAP1 LOG1 JUMPDEST POP POP POP POP POP POP POP JUMP JUMPDEST PUSH2 0x61C PUSH2 0x89C JUMP JUMPDEST PUSH2 0x625 DUP3 PUSH2 0x953 JUMP JUMPDEST PUSH2 0x62F DUP3 DUP3 PUSH2 0x95B JUMP JUMPDEST POP POP JUMP JUMPDEST PUSH1 0x0 PUSH2 0x63D PUSH2 0xA2F JUMP JUMPDEST POP PUSH32 0x360894A13BA1A3210667C828492DB98DCA3E2076CC3735A920A3CA505D382BBC SWAP1 JUMP JUMPDEST PUSH2 0x66A PUSH2 0x828 JUMP JUMPDEST PUSH2 0x674 PUSH1 0x0 PUSH2 0xA78 JUMP JUMPDEST JUMP JUMPDEST PUSH2 0x67E PUSH2 0x828 JUMP JUMPDEST PUSH1 0x1 PUSH1 0x1 PUSH1 0xA0 SHL SUB DUP2 AND PUSH2 0x6A8 JUMPI PUSH1 0x40 MLOAD PUSH4 0x1E4FBDF7 PUSH1 0xE0 SHL DUP2 MSTORE PUSH1 0x0 PUSH1 0x4 DUP3 ADD MSTORE PUSH1 0x24 ADD PUSH2 0x31A JUMP JUMPDEST PUSH2 0x6B1 DUP2 PUSH2 0xA78 JUMP JUMPDEST POP JUMP JUMPDEST PUSH1 0x40 DUP1 MLOAD DUP1 DUP3 ADD SWAP1 SWAP2 MSTORE PUSH1 0x0 DUP1 DUP3 MSTORE PUSH1 0x20 DUP3 ADD MSTORE PUSH4 0xFFFFFFFF DUP8 AND PUSH1 0x0 SWAP1 DUP2 MSTORE PUSH1 0x1 PUSH1 0x20 MSTORE PUSH1 0x40 SWAP1 KECCAK256 SLOAD PUSH2 0x719 JUMPI PUSH1 0x40 MLOAD PUSH3 0x461BCD PUSH1 0xE5 SHL DUP2 MSTORE PUSH1 0x20 PUSH1 0x4 DUP3 ADD MSTORE PUSH1 0xC PUSH1 0x24 DUP3 ADD MSTORE PUSH12 0x1419595C881B9BDD081CD95D PUSH1 0xA2 SHL PUSH1 0x44 DUP3 ADD MSTORE PUSH1 0x64 ADD PUSH2 0x31A JUMP JUMPDEST PUSH1 0x0 DUP7 DUP7 DUP7 PUSH1 0x40 MLOAD PUSH1 0x20 ADD PUSH2 0x730 SWAP4 SWAP3 SWAP2 SWAP1 PUSH2 0x103D JUMP JUMPDEST PUSH1 0x40 DUP1 MLOAD PUSH1 0x1F NOT DUP2 DUP5 SUB ADD DUP2 MSTORE PUSH1 0xA0 DUP4 ADD DUP3 MSTORE PUSH4 0xFFFFFFFF DUP12 AND DUP1 DUP5 MSTORE PUSH1 0x0 SWAP1 DUP2 MSTORE PUSH1 0x1 PUSH1 0x20 SWAP1 DUP2 MSTORE DUP4 DUP3 KECCAK256 SLOAD DUP6 DUP3 ADD MSTORE DUP5 DUP5 ADD DUP4 SWAP1 MSTORE DUP4 MLOAD PUSH1 0x1F DUP10 ADD DUP3 SWAP1 DIV DUP3 MUL DUP2 ADD DUP3 ADD SWAP1 SWAP5 MSTORE DUP8 DUP5 MSTORE SWAP2 SWAP5 POP SWAP3 SWAP2 PUSH1 0x60 DUP4 ADD SWAP2 DUP9 SWAP1 DUP9 SWAP1 DUP2 SWAP1 DUP5 ADD DUP4 DUP3 DUP1 DUP3 DUP5 CALLDATACOPY PUSH1 0x0 SWAP3 ADD DUP3 SWAP1 MSTORE POP SWAP4 DUP6 MSTORE POP POP POP PUSH1 0x20 SWAP1 SWAP2 ADD DUP2 SWAP1 MSTORE SLOAD PUSH1 0x40 MLOAD PUSH4 0x1BB8518B PUSH1 0xE3 SHL DUP2 MSTORE SWAP2 SWAP3 POP PUSH1 0x1 PUSH1 0x1 PUSH1 0xA0 SHL SUB AND SWAP1 PUSH4 0xDDC28C58 SWAP1 PUSH2 0x7DB SWAP1 DUP5 SWAP1 CALLER SWAP1 PUSH1 0x4 ADD PUSH2 0x1061 JUMP JUMPDEST PUSH1 0x40 DUP1 MLOAD DUP1 DUP4 SUB DUP2 DUP7 GAS STATICCALL ISZERO DUP1 ISZERO PUSH2 0x7F7 JUMPI RETURNDATASIZE PUSH1 0x0 DUP1 RETURNDATACOPY RETURNDATASIZE PUSH1 0x0 REVERT JUMPDEST POP POP POP POP PUSH1 0x40 MLOAD RETURNDATASIZE PUSH1 0x1F NOT PUSH1 0x1F DUP3 ADD AND DUP3 ADD DUP1 PUSH1 0x40 MSTORE POP DUP2 ADD SWAP1 PUSH2 0x81B SWAP2 SWAP1 PUSH2 0x11DB JUMP JUMPDEST SWAP10 SWAP9 POP POP POP POP POP POP POP POP POP JUMP JUMPDEST CALLER PUSH2 0x85A PUSH32 0x9016D09D72D40FDAE2FD8CEAC6B6234C7706214FD39C1CD1E609A0528C199300 SLOAD PUSH1 0x1 PUSH1 0x1 PUSH1 0xA0 SHL SUB AND SWAP1 JUMP JUMPDEST PUSH1 0x1 PUSH1 0x1 PUSH1 0xA0 SHL SUB AND EQ PUSH2 0x674 JUMPI PUSH1 0x40 MLOAD PUSH4 0x118CDAA7 PUSH1 0xE0 SHL DUP2 MSTORE CALLER PUSH1 0x4 DUP3 ADD MSTORE PUSH1 0x24 ADD PUSH2 0x31A JUMP JUMPDEST PUSH2 0x88B PUSH2 0xAE9 JUMP JUMPDEST PUSH2 0x6B1 DUP2 PUSH2 0xB32 JUMP JUMPDEST PUSH2 0x674 PUSH2 0xAE9 JUMP JUMPDEST ADDRESS PUSH1 0x1 PUSH1 0x1 PUSH1 0xA0 SHL SUB PUSH32 0x0 AND EQ DUP1 PUSH2 0x935 JUMPI POP PUSH32 0x0 PUSH1 0x1 PUSH1 0x1 PUSH1 0xA0 SHL SUB AND PUSH2 0x929 PUSH32 0x360894A13BA1A3210667C828492DB98DCA3E2076CC3735A920A3CA505D382BBC SLOAD PUSH1 0x1 PUSH1 0x1 PUSH1 0xA0 SHL SUB AND SWAP1 JUMP JUMPDEST PUSH1 0x1 PUSH1 0x1 PUSH1 0xA0 SHL SUB AND EQ ISZERO JUMPDEST ISZERO PUSH2 0x674 JUMPI PUSH1 0x40 MLOAD PUSH4 0x703E46DD PUSH1 0xE1 SHL DUP2 MSTORE PUSH1 0x4 ADD PUSH1 0x40 MLOAD DUP1 SWAP2 SUB SWAP1 REVERT JUMPDEST PUSH2 0x6B1 PUSH2 0x828 JUMP JUMPDEST DUP2 PUSH1 0x1 PUSH1 0x1 PUSH1 0xA0 SHL SUB AND PUSH4 0x52D1902D PUSH1 0x40 MLOAD DUP2 PUSH4 0xFFFFFFFF AND PUSH1 0xE0 SHL DUP2 MSTORE PUSH1 0x4 ADD PUSH1 0x20 PUSH1 0x40 MLOAD DUP1 DUP4 SUB DUP2 DUP7 GAS STATICCALL SWAP3 POP POP POP DUP1 ISZERO PUSH2 0x9B5 JUMPI POP PUSH1 0x40 DUP1 MLOAD PUSH1 0x1F RETURNDATASIZE SWAP1 DUP2 ADD PUSH1 0x1F NOT AND DUP3 ADD SWAP1 SWAP3 MSTORE PUSH2 0x9B2 SWAP2 DUP2 ADD SWAP1 PUSH2 0x11F7 JUMP JUMPDEST PUSH1 0x1 JUMPDEST PUSH2 0x9DD JUMPI PUSH1 0x40 MLOAD PUSH4 0x4C9C8CE3 PUSH1 0xE0 SHL DUP2 MSTORE PUSH1 0x1 PUSH1 0x1 PUSH1 0xA0 SHL SUB DUP4 AND PUSH1 0x4 DUP3 ADD MSTORE PUSH1 0x24 ADD PUSH2 0x31A JUMP JUMPDEST PUSH32 0x360894A13BA1A3210667C828492DB98DCA3E2076CC3735A920A3CA505D382BBC DUP2 EQ PUSH2 0xA20 JUMPI PUSH1 0x40 MLOAD PUSH4 0x2A875269 PUSH1 0xE2 SHL DUP2 MSTORE PUSH1 0x4 DUP2 ADD DUP3 SWAP1 MSTORE PUSH1 0x24 ADD PUSH2 0x31A JUMP JUMPDEST PUSH2 0xA2A DUP4 DUP4 PUSH2 0xB3A JUMP JUMPDEST POP POP POP JUMP JUMPDEST ADDRESS PUSH1 0x1 PUSH1 0x1 PUSH1 0xA0 SHL SUB PUSH32 0x0 AND EQ PUSH2 0x674 JUMPI PUSH1 0x40 MLOAD PUSH4 0x703E46DD PUSH1 0xE1 SHL DUP2 MSTORE PUSH1 0x4 ADD PUSH1 0x40 MLOAD DUP1 SWAP2 SUB SWAP1 REVERT JUMPDEST PUSH32 0x9016D09D72D40FDAE2FD8CEAC6B6234C7706214FD39C1CD1E609A0528C199300 DUP1 SLOAD PUSH1 0x1 PUSH1 0x1 PUSH1 0xA0 SHL SUB NOT DUP2 AND PUSH1 0x1 PUSH1 0x1 PUSH1 0xA0 SHL SUB DUP5 DUP2 AND SWAP2 DUP3 OR DUP5 SSTORE PUSH1 0x40 MLOAD SWAP3 AND SWAP2 DUP3 SWAP1 PUSH32 0x8BE0079C531659141344CD1FD0A4F28419497F9722A3DAAFE3B4186F6B6457E0 SWAP1 PUSH1 0x0 SWAP1 LOG3 POP POP POP JUMP JUMPDEST PUSH32 0xF0C57E16840DF040F15088DC2F81FE391C3923BEC73E23A9662EFC9C229C6A00 SLOAD PUSH1 0x1 PUSH1 0x40 SHL SWAP1 DIV PUSH1 0xFF AND PUSH2 0x674 JUMPI PUSH1 0x40 MLOAD PUSH4 0x1AFCD79F PUSH1 0xE3 SHL DUP2 MSTORE PUSH1 0x4 ADD PUSH1 0x40 MLOAD DUP1 SWAP2 SUB SWAP1 REVERT JUMPDEST PUSH2 0x67E PUSH2 0xAE9 JUMP JUMPDEST PUSH2 0xB43 DUP3 PUSH2 0xB90 JUMP JUMPDEST PUSH1 0x40 MLOAD PUSH1 0x1 PUSH1 0x1 PUSH1 0xA0 SHL SUB DUP4 AND SWAP1 PUSH32 0xBC7CD75A20EE27FD9ADEBAB32041F755214DBC6BFFA90CC0225B39DA2E5C2D3B SWAP1 PUSH1 0x0 SWAP1 LOG2 DUP1 MLOAD ISZERO PUSH2 0xB88 JUMPI PUSH2 0xA2A DUP3 DUP3 PUSH2 0xC07 JUMP JUMPDEST PUSH2 0x62F PUSH2 0xC7D JUMP JUMPDEST DUP1 PUSH1 0x1 PUSH1 0x1 PUSH1 0xA0 SHL SUB AND EXTCODESIZE PUSH1 0x0 SUB PUSH2 0xBC6 JUMPI PUSH1 0x40 MLOAD PUSH4 0x4C9C8CE3 PUSH1 0xE0 SHL DUP2 MSTORE PUSH1 0x1 PUSH1 0x1 PUSH1 0xA0 SHL SUB DUP3 AND PUSH1 0x4 DUP3 ADD MSTORE PUSH1 0x24 ADD PUSH2 0x31A JUMP JUMPDEST PUSH32 0x360894A13BA1A3210667C828492DB98DCA3E2076CC3735A920A3CA505D382BBC DUP1 SLOAD PUSH1 0x1 PUSH1 0x1 PUSH1 0xA0 SHL SUB NOT AND PUSH1 0x1 PUSH1 0x1 PUSH1 0xA0 SHL SUB SWAP3 SWAP1 SWAP3 AND SWAP2 SWAP1 SWAP2 OR SWAP1 SSTORE JUMP JUMPDEST PUSH1 0x60 PUSH1 0x0 DUP1 DUP5 PUSH1 0x1 PUSH1 0x1 PUSH1 0xA0 SHL SUB AND DUP5 PUSH1 0x40 MLOAD PUSH2 0xC24 SWAP2 SWAP1 PUSH2 0x1210 JUMP JUMPDEST PUSH1 0x0 PUSH1 0x40 MLOAD DUP1 DUP4 SUB DUP2 DUP6 GAS DELEGATECALL SWAP2 POP POP RETURNDATASIZE DUP1 PUSH1 0x0 DUP2 EQ PUSH2 0xC5F JUMPI PUSH1 0x40 MLOAD SWAP2 POP PUSH1 0x1F NOT PUSH1 0x3F RETURNDATASIZE ADD AND DUP3 ADD PUSH1 0x40 MSTORE RETURNDATASIZE DUP3 MSTORE RETURNDATASIZE PUSH1 0x0 PUSH1 0x20 DUP5 ADD RETURNDATACOPY PUSH2 0xC64 JUMP JUMPDEST PUSH1 0x60 SWAP2 POP JUMPDEST POP SWAP2 POP SWAP2 POP PUSH2 0xC74 DUP6 DUP4 DUP4 PUSH2 0xC9C JUMP JUMPDEST SWAP6 SWAP5 POP POP POP POP POP JUMP JUMPDEST CALLVALUE ISZERO PUSH2 0x674 JUMPI PUSH1 0x40 MLOAD PUSH4 0xB398979F PUSH1 0xE0 SHL DUP2 MSTORE PUSH1 0x4 ADD PUSH1 0x40 MLOAD DUP1 SWAP2 SUB SWAP1 REVERT JUMPDEST PUSH1 0x60 DUP3 PUSH2 0xCB1 JUMPI PUSH2 0xCAC DUP3 PUSH2 0xCFB JUMP JUMPDEST PUSH2 0xCF4 JUMP JUMPDEST DUP2 MLOAD ISZERO DUP1 ISZERO PUSH2 0xCC8 JUMPI POP PUSH1 0x1 PUSH1 0x1 PUSH1 0xA0 SHL SUB DUP5 AND EXTCODESIZE ISZERO JUMPDEST ISZERO PUSH2 0xCF1 JUMPI PUSH1 0x40 MLOAD PUSH4 0x9996B315 PUSH1 0xE0 SHL DUP2 MSTORE PUSH1 0x1 PUSH1 0x1 PUSH1 0xA0 SHL SUB DUP6 AND PUSH1 0x4 DUP3 ADD MSTORE PUSH1 0x24 ADD PUSH2 0x31A JUMP JUMPDEST POP DUP1 JUMPDEST SWAP4 SWAP3 POP POP POP JUMP JUMPDEST DUP1 MLOAD ISZERO PUSH2 0xD0B JUMPI DUP1 MLOAD DUP1 DUP3 PUSH1 0x20 ADD REVERT JUMPDEST PUSH1 0x40 MLOAD PUSH4 0xD6BDA275 PUSH1 0xE0 SHL DUP2 MSTORE PUSH1 0x4 ADD PUSH1 0x40 MLOAD DUP1 SWAP2 SUB SWAP1 REVERT JUMPDEST DUP1 CALLDATALOAD PUSH4 0xFFFFFFFF DUP2 AND DUP2 EQ PUSH2 0xD38 JUMPI PUSH1 0x0 DUP1 REVERT JUMPDEST SWAP2 SWAP1 POP JUMP JUMPDEST PUSH1 0x0 DUP1 PUSH1 0x40 DUP4 DUP6 SUB SLT ISZERO PUSH2 0xD50 JUMPI PUSH1 0x0 DUP1 REVERT JUMPDEST PUSH2 0xD59 DUP4 PUSH2 0xD24 JUMP JUMPDEST SWAP5 PUSH1 0x20 SWAP4 SWAP1 SWAP4 ADD CALLDATALOAD SWAP4 POP POP POP JUMP JUMPDEST PUSH1 0x0 DUP1 DUP4 PUSH1 0x1F DUP5 ADD SLT PUSH2 0xD79 JUMPI PUSH1 0x0 DUP1 REVERT JUMPDEST POP DUP2 CALLDATALOAD PUSH8 0xFFFFFFFFFFFFFFFF DUP2 GT ISZERO PUSH2 0xD91 JUMPI PUSH1 0x0 DUP1 REVERT JUMPDEST PUSH1 0x20 DUP4 ADD SWAP2 POP DUP4 PUSH1 0x20 DUP3 DUP6 ADD ADD GT ISZERO PUSH2 0xDA9 JUMPI PUSH1 0x0 DUP1 REVERT JUMPDEST SWAP3 POP SWAP3 SWAP1 POP JUMP JUMPDEST PUSH1 0x0 DUP1 PUSH1 0x0 DUP1 PUSH1 0x0 DUP1 PUSH1 0x80 DUP8 DUP10 SUB SLT ISZERO PUSH2 0xDC9 JUMPI PUSH1 0x0 DUP1 REVERT JUMPDEST PUSH2 0xDD2 DUP8 PUSH2 0xD24 JUMP JUMPDEST SWAP6 POP PUSH1 0x20 DUP8 ADD CALLDATALOAD PUSH8 0xFFFFFFFFFFFFFFFF DUP2 GT ISZERO PUSH2 0xDEE JUMPI PUSH1 0x0 DUP1 REVERT JUMPDEST PUSH2 0xDFA DUP10 DUP3 DUP11 ADD PUSH2 0xD67 JUMP JUMPDEST SWAP1 SWAP7 POP SWAP5 POP POP PUSH1 0x40 DUP8 ADD CALLDATALOAD SWAP3 POP PUSH1 0x60 DUP8 ADD CALLDATALOAD PUSH8 0xFFFFFFFFFFFFFFFF DUP2 GT ISZERO PUSH2 0xE21 JUMPI PUSH1 0x0 DUP1 REVERT JUMPDEST PUSH2 0xE2D DUP10 DUP3 DUP11 ADD PUSH2 0xD67 JUMP JUMPDEST SWAP8 SWAP11 SWAP7 SWAP10 POP SWAP5 SWAP8 POP SWAP3 SWAP6 SWAP4 SWAP5 SWAP3 POP POP POP JUMP JUMPDEST DUP1 CALLDATALOAD PUSH1 0x1 PUSH1 0x1 PUSH1 0xA0 SHL SUB DUP2 AND DUP2 EQ PUSH2 0xD38 JUMPI PUSH1 0x0 DUP1 REVERT JUMPDEST PUSH1 0x0 DUP1 PUSH1 0x40 DUP4 DUP6 SUB SLT ISZERO PUSH2 0xE69 JUMPI PUSH1 0x0 DUP1 REVERT JUMPDEST PUSH2 0xE72 DUP4 PUSH2 0xE3F JUMP JUMPDEST SWAP2 POP PUSH2 0xE80 PUSH1 0x20 DUP5 ADD PUSH2 0xE3F JUMP JUMPDEST SWAP1 POP SWAP3 POP SWAP3 SWAP1 POP JUMP JUMPDEST PUSH4 0x4E487B71 PUSH1 0xE0 SHL PUSH1 0x0 MSTORE PUSH1 0x41 PUSH1 0x4 MSTORE PUSH1 0x24 PUSH1 0x0 REVERT JUMPDEST PUSH1 0x40 MLOAD PUSH1 0x1F DUP3 ADD PUSH1 0x1F NOT AND DUP2 ADD PUSH8 0xFFFFFFFFFFFFFFFF DUP2 GT DUP3 DUP3 LT OR ISZERO PUSH2 0xEC8 JUMPI PUSH2 0xEC8 PUSH2 0xE89 JUMP JUMPDEST PUSH1 0x40 MSTORE SWAP2 SWAP1 POP JUMP JUMPDEST PUSH1 0x0 DUP1 PUSH1 0x40 DUP4 DUP6 SUB SLT ISZERO PUSH2 0xEE3 JUMPI PUSH1 0x0 DUP1 REVERT JUMPDEST PUSH2 0xEEC DUP4 PUSH2 0xE3F JUMP JUMPDEST SWAP2 POP PUSH1 0x20 DUP4 ADD CALLDATALOAD PUSH8 0xFFFFFFFFFFFFFFFF DUP2 GT ISZERO PUSH2 0xF08 JUMPI PUSH1 0x0 DUP1 REVERT JUMPDEST DUP4 ADD PUSH1 0x1F DUP2 ADD DUP6 SGT PUSH2 0xF19 JUMPI PUSH1 0x0 DUP1 REVERT JUMPDEST DUP1 CALLDATALOAD PUSH8 0xFFFFFFFFFFFFFFFF DUP2 GT ISZERO PUSH2 0xF33 JUMPI PUSH2 0xF33 PUSH2 0xE89 JUMP JUMPDEST PUSH2 0xF46 PUSH1 0x1F DUP3 ADD PUSH1 0x1F NOT AND PUSH1 0x20 ADD PUSH2 0xE9F JUMP JUMPDEST DUP2 DUP2 MSTORE DUP7 PUSH1 0x20 DUP4 DUP6 ADD ADD GT ISZERO PUSH2 0xF5B JUMPI PUSH1 0x0 DUP1 REVERT JUMPDEST DUP2 PUSH1 0x20 DUP5 ADD PUSH1 0x20 DUP4 ADD CALLDATACOPY PUSH1 0x0 PUSH1 0x20 DUP4 DUP4 ADD ADD MSTORE DUP1 SWAP4 POP POP POP POP SWAP3 POP SWAP3 SWAP1 POP JUMP JUMPDEST PUSH1 0x0 JUMPDEST DUP4 DUP2 LT ISZERO PUSH2 0xF96 JUMPI DUP2 DUP2 ADD MLOAD DUP4 DUP3 ADD MSTORE PUSH1 0x20 ADD PUSH2 0xF7E JUMP JUMPDEST POP POP PUSH1 0x0 SWAP2 ADD MSTORE JUMP JUMPDEST PUSH1 0x0 DUP2 MLOAD DUP1 DUP5 MSTORE PUSH2 0xFB7 DUP2 PUSH1 0x20 DUP7 ADD PUSH1 0x20 DUP7 ADD PUSH2 0xF7B JUMP JUMPDEST PUSH1 0x1F ADD PUSH1 0x1F NOT AND SWAP3 SWAP1 SWAP3 ADD PUSH1 0x20 ADD SWAP3 SWAP2 POP POP JUMP JUMPDEST PUSH1 0x20 DUP2 MSTORE PUSH1 0x0 PUSH2 0xCF4 PUSH1 0x20 DUP4 ADD DUP5 PUSH2 0xF9F JUMP JUMPDEST PUSH1 0x0 PUSH1 0x20 DUP3 DUP5 SUB SLT ISZERO PUSH2 0xFF0 JUMPI PUSH1 0x0 DUP1 REVERT JUMPDEST PUSH2 0xCF4 DUP3 PUSH2 0xD24 JUMP JUMPDEST PUSH1 0x0 PUSH1 0x20 DUP3 DUP5 SUB SLT ISZERO PUSH2 0x100B JUMPI PUSH1 0x0 DUP1 REVERT JUMPDEST PUSH2 0xCF4 DUP3 PUSH2 0xE3F JUMP JUMPDEST DUP2 DUP4 MSTORE DUP2 DUP2 PUSH1 0x20 DUP6 ADD CALLDATACOPY POP PUSH1 0x0 DUP3 DUP3 ADD PUSH1 0x20 SWAP1 DUP2 ADD SWAP2 SWAP1 SWAP2 MSTORE PUSH1 0x1F SWAP1 SWAP2 ADD PUSH1 0x1F NOT AND SWAP1 SWAP2 ADD ADD SWAP1 JUMP JUMPDEST PUSH1 0x40 DUP2 MSTORE PUSH1 0x0 PUSH2 0x1051 PUSH1 0x40 DUP4 ADD DUP6 DUP8 PUSH2 0x1014 JUMP JUMPDEST SWAP1 POP DUP3 PUSH1 0x20 DUP4 ADD MSTORE SWAP5 SWAP4 POP POP POP POP JUMP JUMPDEST PUSH1 0x40 DUP2 MSTORE PUSH4 0xFFFFFFFF DUP4 MLOAD AND PUSH1 0x40 DUP3 ADD MSTORE PUSH1 0x20 DUP4 ADD MLOAD PUSH1 0x60 DUP3 ADD MSTORE PUSH1 0x0 PUSH1 0x40 DUP5 ADD MLOAD PUSH1 0xA0 PUSH1 0x80 DUP5 ADD MSTORE PUSH2 0x1097 PUSH1 0xE0 DUP5 ADD DUP3 PUSH2 0xF9F JUMP JUMPDEST SWAP1 POP PUSH1 0x60 DUP6 ADD MLOAD PUSH1 0x3F NOT DUP5 DUP4 SUB ADD PUSH1 0xA0 DUP6 ADD MSTORE PUSH2 0x10B4 DUP3 DUP3 PUSH2 0xF9F JUMP JUMPDEST PUSH1 0x80 SWAP7 SWAP1 SWAP7 ADD MLOAD ISZERO ISZERO PUSH1 0xC0 DUP6 ADD MSTORE POP POP POP PUSH1 0x1 PUSH1 0x1 PUSH1 0xA0 SHL SUB SWAP2 SWAP1 SWAP2 AND PUSH1 0x20 SWAP1 SWAP2 ADD MSTORE SWAP1 JUMP JUMPDEST PUSH1 0x0 PUSH1 0x40 DUP3 DUP5 SUB SLT ISZERO PUSH2 0x10EC JUMPI PUSH1 0x0 DUP1 REVERT JUMPDEST PUSH1 0x40 DUP1 MLOAD SWAP1 DUP2 ADD PUSH8 0xFFFFFFFFFFFFFFFF DUP2 GT DUP3 DUP3 LT OR ISZERO PUSH2 0x110F JUMPI PUSH2 0x110F PUSH2 0xE89 JUMP JUMPDEST PUSH1 0x40 MSTORE DUP3 MLOAD DUP2 MSTORE PUSH1 0x20 SWAP3 DUP4 ADD MLOAD SWAP3 DUP2 ADD SWAP3 SWAP1 SWAP3 MSTORE POP SWAP2 SWAP1 POP JUMP JUMPDEST PUSH1 0x0 PUSH1 0x80 DUP3 DUP5 SUB SLT DUP1 ISZERO PUSH2 0x113C JUMPI PUSH1 0x0 DUP1 REVERT JUMPDEST POP PUSH1 0x40 MLOAD PUSH1 0x0 SWAP1 PUSH1 0x60 DUP2 ADD PUSH8 0xFFFFFFFFFFFFFFFF DUP2 GT DUP3 DUP3 LT OR ISZERO PUSH2 0x1163 JUMPI PUSH2 0x1163 PUSH2 0xE89 JUMP JUMPDEST PUSH1 0x40 MSTORE DUP4 MLOAD DUP2 MSTORE PUSH1 0x20 DUP5 ADD MLOAD PUSH8 0xFFFFFFFFFFFFFFFF DUP2 AND DUP2 EQ PUSH2 0x1184 JUMPI DUP3 DUP4 REVERT JUMPDEST PUSH1 0x20 DUP3 ADD MSTORE PUSH2 0x1196 DUP6 PUSH1 0x40 DUP7 ADD PUSH2 0x10DA JUMP JUMPDEST PUSH1 0x40 DUP3 ADD MSTORE SWAP5 SWAP4 POP POP POP POP JUMP JUMPDEST PUSH4 0xFFFFFFFF DUP7 AND DUP2 MSTORE DUP5 PUSH1 0x20 DUP3 ADD MSTORE PUSH1 0x80 PUSH1 0x40 DUP3 ADD MSTORE PUSH1 0x0 PUSH2 0x11C9 PUSH1 0x80 DUP4 ADD DUP6 DUP8 PUSH2 0x1014 JUMP JUMPDEST SWAP1 POP DUP3 PUSH1 0x60 DUP4 ADD MSTORE SWAP7 SWAP6 POP POP POP POP POP POP JUMP JUMPDEST PUSH1 0x0 PUSH1 0x40 DUP3 DUP5 SUB SLT ISZERO PUSH2 0x11ED JUMPI PUSH1 0x0 DUP1 REVERT JUMPDEST PUSH2 0xCF4 DUP4 DUP4 PUSH2 0x10DA JUMP JUMPDEST PUSH1 0x0 PUSH1 0x20 DUP3 DUP5 SUB SLT ISZERO PUSH2 0x1209 JUMPI PUSH1 0x0 DUP1 REVERT JUMPDEST POP MLOAD SWAP2 SWAP1 POP JUMP JUMPDEST PUSH1 0x0 DUP3 MLOAD PUSH2 0x1222 DUP2 DUP5 PUSH1 0x20 DUP8 ADD PUSH2 0xF7B JUMP JUMPDEST SWAP2 SWAP1 SWAP2 ADD SWAP3 SWAP2 POP POP JUMP INVALID LOG2 PUSH5 0x6970667358 0x22 SLT KECCAK256 PUSH20 0xD52271ADD20D0463EB9FEE97DB8FE21108946DAE 0xD8 0xEC 0xAA 0xB5 0x2B 0xE1 DUP5 PUSH21 0x1F7A5764736F6C634300081C003300000000000000 "
				},
				"gasEstimates": {
					"creation": {
						"codeDepositCost": "941200",
						"executionCost": "infinite",
						"totalCost": "infinite"
					},
					"external": {
						"UPGRADE_INTERFACE_VERSION()": "infinite",
						"endpoint()": "2404",
						"initialize(address,address)": "infinite",
						"owner()": "2376",
						"peers(uint32)": "2518",
						"proxiableUUID()": "infinite",
						"quote(uint32,string,uint256,bytes)": "infinite",
						"renounceOwnership()": "infinite",
						"sendMessage(uint32,string,uint256,bytes)": "infinite",
						"setPeer(uint32,bytes32)": "24713",
						"transferOwnership(address)": "28412",
						"upgradeToAndCall(address,bytes)": "infinite"
					},
					"internal": {
						"_authorizeUpgrade(address)": "infinite"
					}
				},
				"methodIdentifiers": {
					"UPGRADE_INTERFACE_VERSION()": "ad3cb1cc",
					"endpoint()": "5e280f11",
					"initialize(address,address)": "485cc955",
					"owner()": "8da5cb5b",
					"peers(uint32)": "bb0b6a53",
					"proxiableUUID()": "52d1902d",
					"quote(uint32,string,uint256,bytes)": "f66fef9f",
					"renounceOwnership()": "715018a6",
					"sendMessage(uint32,string,uint256,bytes)": "4855fe17",
					"setPeer(uint32,bytes32)": "3400288b",
					"transferOwnership(address)": "f2fde38b",
					"upgradeToAndCall(address,bytes)": "4f1ef286"
				}
			},
			"storageLayout": {
				"storage": [
					{
						"astId": 2131,
						"contract": "simple-LZ_UUPS.sol:SenderContract",
						"label": "endpoint",
						"offset": 0,
						"slot": "0",
						"type": "t_contract(ILayerZeroEndpointV2)202"
					},
					{
						"astId": 2135,
						"contract": "simple-LZ_UUPS.sol:SenderContract",
						"label": "peers",
						"offset": 0,
						"slot": "1",
						"type": "t_mapping(t_uint32,t_bytes32)"
					}
				],
				"types": {
					"t_bytes32": {
						"encoding": "inplace",
						"label": "bytes32",
						"numberOfBytes": "32"
					},
					"t_contract(ILayerZeroEndpointV2)202": {
						"encoding": "inplace",
						"label": "contract ILayerZeroEndpointV2",
						"numberOfBytes": "20"
					},
					"t_mapping(t_uint32,t_bytes32)": {
						"encoding": "mapping",
						"key": "t_uint32",
						"label": "mapping(uint32 => bytes32)",
						"numberOfBytes": "32",
						"value": "t_bytes32"
					},
					"t_uint32": {
						"encoding": "inplace",
						"label": "uint32",
						"numberOfBytes": "4"
					}
				}
			},
			"userdoc": {
				"kind": "user",
				"methods": {},
				"version": 1
			}
		}
	}
}