{
	"SimpleArbitrumDisput.sol": {
		"ArbitrumDisputeSender": {
			"abi": [
				{
					"inputs": [
						{
							"internalType": "address",
							"name": "_endpoint",
							"type": "address"
						},
						{
							"internalType": "address",
							"name": "_owner",
							"type": "address"
						}
					],
					"stateMutability": "nonpayable",
					"type": "constructor"
				},
				{
					"inputs": [],
					"name": "InvalidDelegate",
					"type": "error"
				},
				{
					"inputs": [],
					"name": "InvalidEndpointCall",
					"type": "error"
				},
				{
					"inputs": [],
					"name": "LzTokenUnavailable",
					"type": "error"
				},
				{
					"inputs": [
						{
							"internalType": "uint32",
							"name": "eid",
							"type": "uint32"
						}
					],
					"name": "NoPeer",
					"type": "error"
				},
				{
					"inputs": [
						{
							"internalType": "uint256",
							"name": "msgValue",
							"type": "uint256"
						}
					],
					"name": "NotEnoughNative",
					"type": "error"
				},
				{
					"inputs": [
						{
							"internalType": "address",
							"name": "addr",
							"type": "address"
						}
					],
					"name": "OnlyEndpoint",
					"type": "error"
				},
				{
					"inputs": [
						{
							"internalType": "uint32",
							"name": "eid",
							"type": "uint32"
						},
						{
							"internalType": "bytes32",
							"name": "sender",
							"type": "bytes32"
						}
					],
					"name": "OnlyPeer",
					"type": "error"
				},
				{
					"inputs": [
						{
							"internalType": "address",
							"name": "owner",
							"type": "address"
						}
					],
					"name": "OwnableInvalidOwner",
					"type": "error"
				},
				{
					"inputs": [
						{
							"internalType": "address",
							"name": "account",
							"type": "address"
						}
					],
					"name": "OwnableUnauthorizedAccount",
					"type": "error"
				},
				{
					"inputs": [
						{
							"internalType": "address",
							"name": "token",
							"type": "address"
						}
					],
					"name": "SafeERC20FailedOperation",
					"type": "error"
				},
				{
					"anonymous": false,
					"inputs": [
						{
							"indexed": true,
							"internalType": "uint32",
							"name": "dstEid",
							"type": "uint32"
						},
						{
							"indexed": true,
							"internalType": "address",
							"name": "user",
							"type": "address"
						},
						{
							"indexed": false,
							"internalType": "uint256",
							"name": "disputeId",
							"type": "uint256"
						}
					],
					"name": "DisputeCreated",
					"type": "event"
				},
				{
					"anonymous": false,
					"inputs": [
						{
							"indexed": true,
							"internalType": "address",
							"name": "previousOwner",
							"type": "address"
						},
						{
							"indexed": true,
							"internalType": "address",
							"name": "newOwner",
							"type": "address"
						}
					],
					"name": "OwnershipTransferred",
					"type": "event"
				},
				{
					"anonymous": false,
					"inputs": [
						{
							"indexed": false,
							"internalType": "uint32",
							"name": "eid",
							"type": "uint32"
						},
						{
							"indexed": false,
							"internalType": "bytes32",
							"name": "peer",
							"type": "bytes32"
						}
					],
					"name": "PeerSet",
					"type": "event"
				},
				{
					"inputs": [
						{
							"components": [
								{
									"internalType": "uint32",
									"name": "srcEid",
									"type": "uint32"
								},
								{
									"internalType": "bytes32",
									"name": "sender",
									"type": "bytes32"
								},
								{
									"internalType": "uint64",
									"name": "nonce",
									"type": "uint64"
								}
							],
							"internalType": "struct Origin",
							"name": "origin",
							"type": "tuple"
						}
					],
					"name": "allowInitializePath",
					"outputs": [
						{
							"internalType": "bool",
							"name": "",
							"type": "bool"
						}
					],
					"stateMutability": "view",
					"type": "function"
				},
				{
					"inputs": [
						{
							"internalType": "uint32",
							"name": "_dstEid",
							"type": "uint32"
						},
						{
							"internalType": "string",
							"name": "_reason",
							"type": "string"
						},
						{
							"internalType": "bytes",
							"name": "_options",
							"type": "bytes"
						}
					],
					"name": "createDispute",
					"outputs": [],
					"stateMutability": "payable",
					"type": "function"
				},
				{
					"inputs": [],
					"name": "endpoint",
					"outputs": [
						{
							"internalType": "contract ILayerZeroEndpointV2",
							"name": "",
							"type": "address"
						}
					],
					"stateMutability": "view",
					"type": "function"
				},
				{
					"inputs": [
						{
							"components": [
								{
									"internalType": "uint32",
									"name": "srcEid",
									"type": "uint32"
								},
								{
									"internalType": "bytes32",
									"name": "sender",
									"type": "bytes32"
								},
								{
									"internalType": "uint64",
									"name": "nonce",
									"type": "uint64"
								}
							],
							"internalType": "struct Origin",
							"name": "",
							"type": "tuple"
						},
						{
							"internalType": "bytes",
							"name": "",
							"type": "bytes"
						},
						{
							"internalType": "address",
							"name": "_sender",
							"type": "address"
						}
					],
					"name": "isComposeMsgSender",
					"outputs": [
						{
							"internalType": "bool",
							"name": "",
							"type": "bool"
						}
					],
					"stateMutability": "view",
					"type": "function"
				},
				{
					"inputs": [
						{
							"components": [
								{
									"internalType": "uint32",
									"name": "srcEid",
									"type": "uint32"
								},
								{
									"internalType": "bytes32",
									"name": "sender",
									"type": "bytes32"
								},
								{
									"internalType": "uint64",
									"name": "nonce",
									"type": "uint64"
								}
							],
							"internalType": "struct Origin",
							"name": "_origin",
							"type": "tuple"
						},
						{
							"internalType": "bytes32",
							"name": "_guid",
							"type": "bytes32"
						},
						{
							"internalType": "bytes",
							"name": "_message",
							"type": "bytes"
						},
						{
							"internalType": "address",
							"name": "_executor",
							"type": "address"
						},
						{
							"internalType": "bytes",
							"name": "_extraData",
							"type": "bytes"
						}
					],
					"name": "lzReceive",
					"outputs": [],
					"stateMutability": "payable",
					"type": "function"
				},
				{
					"inputs": [
						{
							"internalType": "uint32",
							"name": "",
							"type": "uint32"
						},
						{
							"internalType": "bytes32",
							"name": "",
							"type": "bytes32"
						}
					],
					"name": "nextNonce",
					"outputs": [
						{
							"internalType": "uint64",
							"name": "nonce",
							"type": "uint64"
						}
					],
					"stateMutability": "view",
					"type": "function"
				},
				{
					"inputs": [],
					"name": "oAppVersion",
					"outputs": [
						{
							"internalType": "uint64",
							"name": "senderVersion",
							"type": "uint64"
						},
						{
							"internalType": "uint64",
							"name": "receiverVersion",
							"type": "uint64"
						}
					],
					"stateMutability": "pure",
					"type": "function"
				},
				{
					"inputs": [],
					"name": "owner",
					"outputs": [
						{
							"internalType": "address",
							"name": "",
							"type": "address"
						}
					],
					"stateMutability": "view",
					"type": "function"
				},
				{
					"inputs": [
						{
							"internalType": "uint32",
							"name": "eid",
							"type": "uint32"
						}
					],
					"name": "peers",
					"outputs": [
						{
							"internalType": "bytes32",
							"name": "peer",
							"type": "bytes32"
						}
					],
					"stateMutability": "view",
					"type": "function"
				},
				{
					"inputs": [],
					"name": "renounceOwnership",
					"outputs": [],
					"stateMutability": "nonpayable",
					"type": "function"
				},
				{
					"inputs": [
						{
							"internalType": "address",
							"name": "_delegate",
							"type": "address"
						}
					],
					"name": "setDelegate",
					"outputs": [],
					"stateMutability": "nonpayable",
					"type": "function"
				},
				{
					"inputs": [
						{
							"internalType": "uint32",
							"name": "_eid",
							"type": "uint32"
						},
						{
							"internalType": "bytes32",
							"name": "_peer",
							"type": "bytes32"
						}
					],
					"name": "setPeer",
					"outputs": [],
					"stateMutability": "nonpayable",
					"type": "function"
				},
				{
					"inputs": [
						{
							"internalType": "address",
							"name": "newOwner",
							"type": "address"
						}
					],
					"name": "transferOwnership",
					"outputs": [],
					"stateMutability": "nonpayable",
					"type": "function"
				}
			],
			"devdoc": {
				"errors": {
					"OwnableInvalidOwner(address)": [
						{
							"details": "The owner is not a valid owner account. (eg. `address(0)`)"
						}
					],
					"OwnableUnauthorizedAccount(address)": [
						{
							"details": "The caller account is not authorized to perform an operation."
						}
					],
					"SafeERC20FailedOperation(address)": [
						{
							"details": "An operation with an ERC-20 token failed."
						}
					]
				},
				"kind": "dev",
				"methods": {
					"allowInitializePath((uint32,bytes32,uint64))": {
						"details": "This indicates to the endpoint that the OApp has enabled msgs for this particular path to be received.This defaults to assuming if a peer has been set, its initialized. Can be overridden by the OApp if there is other logic to determine this.",
						"params": {
							"origin": "The origin information containing the source endpoint and sender address."
						},
						"returns": {
							"_0": "Whether the path has been initialized."
						}
					},
					"isComposeMsgSender((uint32,bytes32,uint64),bytes,address)": {
						"details": "_origin The origin information containing the source endpoint and sender address.  - srcEid: The source chain endpoint ID.  - sender: The sender address on the src chain.  - nonce: The nonce of the message._message The lzReceive payload.Applications can optionally choose to implement separate composeMsg senders that are NOT the bridging layer.The default sender IS the OAppReceiver implementer.",
						"params": {
							"_sender": "The sender address."
						},
						"returns": {
							"_0": "isSender Is a valid sender."
						}
					},
					"lzReceive((uint32,bytes32,uint64),bytes32,bytes,address,bytes)": {
						"details": "Entry point for receiving messages or packets from the endpoint.Entry point for receiving msg/packet from the LayerZero endpoint.",
						"params": {
							"_executor": "The address of the executor for the received message.",
							"_extraData": "Additional arbitrary data provided by the corresponding executor.",
							"_guid": "The unique identifier for the received LayerZero message.",
							"_message": "The payload of the received message.",
							"_origin": "The origin information containing the source endpoint and sender address.  - srcEid: The source chain endpoint ID.  - sender: The sender address on the src chain.  - nonce: The nonce of the message."
						}
					},
					"nextNonce(uint32,bytes32)": {
						"details": "_srcEid The source endpoint ID._sender The sender address.The path nonce starts from 1. If 0 is returned it means that there is NO nonce ordered enforcement.Is required by the off-chain executor to determine the OApp expects msg execution is ordered.This is also enforced by the OApp.By default this is NOT enabled. ie. nextNonce is hardcoded to return 0.",
						"returns": {
							"nonce": "The next nonce."
						}
					},
					"oAppVersion()": {
						"returns": {
							"receiverVersion": "The version of the OAppReceiver.sol implementation.",
							"senderVersion": "The version of the OAppSender.sol implementation."
						}
					},
					"owner()": {
						"details": "Returns the address of the current owner."
					},
					"renounceOwnership()": {
						"details": "Leaves the contract without owner. It will not be possible to call `onlyOwner` functions. Can only be called by the current owner. NOTE: Renouncing ownership will leave the contract without an owner, thereby disabling any functionality that is only available to the owner."
					},
					"setDelegate(address)": {
						"details": "Only the owner/admin of the OApp can call this function.Provides the ability for a delegate to set configs, on behalf of the OApp, directly on the Endpoint contract.",
						"params": {
							"_delegate": "The address of the delegate to be set."
						}
					},
					"setPeer(uint32,bytes32)": {
						"details": "Only the owner/admin of the OApp can call this function.Indicates that the peer is trusted to send LayerZero messages to this OApp.Set this to bytes32(0) to remove the peer address.Peer is a bytes32 to accommodate non-evm chains.",
						"params": {
							"_eid": "The endpoint ID.",
							"_peer": "The address of the peer to be associated with the corresponding endpoint."
						}
					},
					"transferOwnership(address)": {
						"details": "Transfers ownership of the contract to a new account (`newOwner`). Can only be called by the current owner."
					}
				},
				"version": 1
			},
			"evm": {
				"assembly": "    /* \"SimpleArbitrumDisput.sol\":313:1379  contract ArbitrumDisputeSender is OApp {... */\n  mstore(0x40, 0xa0)\n    /* \"SimpleArbitrumDisput.sol\":479:635  constructor(... */\n  callvalue\n  dup1\n  iszero\n  tag_1\n  jumpi\n  0x00\n  dup1\n  revert\ntag_1:\n  pop\n  mload(0x40)\n  sub(codesize, bytecodeSize)\n  dup1\n  bytecodeSize\n  dup4\n  codecopy\n  dup2\n  dup2\n  add\n  0x40\n  mstore\n  dup2\n  add\n  swap1\n  tag_2\n  swap2\n  swap1\n  tag_3\n  jump\t// in\ntag_2:\n    /* \"SimpleArbitrumDisput.sol\":553:562  _endpoint */\n  dup2\n    /* \"SimpleArbitrumDisput.sol\":564:570  _owner */\n  dup2\n    /* \"@layerzerolabs/oapp-evm/contracts/oapp/OApp.sol\":1024:1033  _endpoint */\n  dup2\n    /* \"@layerzerolabs/oapp-evm/contracts/oapp/OApp.sol\":1035:1044  _delegate */\n  dup2\n    /* \"SimpleArbitrumDisput.sol\":580:590  msg.sender */\n  caller\n    /* \"@openzeppelin/contracts/access/Ownable.sol\":1297:1298  0 */\n  0x00\n    /* \"@openzeppelin/contracts/access/Ownable.sol\":1273:1299  initialOwner == address(0) */\n  0xffffffffffffffffffffffffffffffffffffffff\n  and\n    /* \"@openzeppelin/contracts/access/Ownable.sol\":1273:1285  initialOwner */\n  dup2\n    /* \"@openzeppelin/contracts/access/Ownable.sol\":1273:1299  initialOwner == address(0) */\n  0xffffffffffffffffffffffffffffffffffffffff\n  and\n  sub\n    /* \"@openzeppelin/contracts/access/Ownable.sol\":1269:1364  if (initialOwner == address(0)) {... */\n  tag_9\n  jumpi\n    /* \"@openzeppelin/contracts/access/Ownable.sol\":1350:1351  0 */\n  0x00\n    /* \"@openzeppelin/contracts/access/Ownable.sol\":1322:1353  OwnableInvalidOwner(address(0)) */\n  mload(0x40)\n  0x1e4fbdf700000000000000000000000000000000000000000000000000000000\n  dup2\n  mstore\n  0x04\n  add\n  tag_10\n  swap2\n  swap1\n  tag_11\n  jump\t// in\ntag_10:\n  mload(0x40)\n  dup1\n  swap2\n  sub\n  swap1\n  revert\n    /* \"@openzeppelin/contracts/access/Ownable.sol\":1269:1364  if (initialOwner == address(0)) {... */\ntag_9:\n    /* \"@openzeppelin/contracts/access/Ownable.sol\":1373:1405  _transferOwnership(initialOwner) */\n  tag_12\n    /* \"@openzeppelin/contracts/access/Ownable.sol\":1392:1404  initialOwner */\n  dup2\n    /* \"@openzeppelin/contracts/access/Ownable.sol\":1373:1391  _transferOwnership */\n  shl(0x20, tag_13)\n    /* \"@openzeppelin/contracts/access/Ownable.sol\":1373:1405  _transferOwnership(initialOwner) */\n  0x20\n  shr\n  jump\t// in\ntag_12:\n    /* \"@openzeppelin/contracts/access/Ownable.sol\":1225:1412  constructor(address initialOwner) {... */\n  pop\n    /* \"@layerzerolabs/oapp-evm/contracts/oapp/OAppCore.sol\":1079:1088  _endpoint */\n  dup2\n    /* \"@layerzerolabs/oapp-evm/contracts/oapp/OAppCore.sol\":1047:1089  endpoint = ILayerZeroEndpointV2(_endpoint) */\n  0xffffffffffffffffffffffffffffffffffffffff\n  and\n  0x80\n  dup2\n  0xffffffffffffffffffffffffffffffffffffffff\n  and\n  dup2\n  mstore\n  pop\n  pop\n    /* \"@layerzerolabs/oapp-evm/contracts/oapp/OAppCore.sol\":1125:1126  0 */\n  0x00\n    /* \"@layerzerolabs/oapp-evm/contracts/oapp/OAppCore.sol\":1104:1127  _delegate == address(0) */\n  0xffffffffffffffffffffffffffffffffffffffff\n  and\n    /* \"@layerzerolabs/oapp-evm/contracts/oapp/OAppCore.sol\":1104:1113  _delegate */\n  dup2\n    /* \"@layerzerolabs/oapp-evm/contracts/oapp/OAppCore.sol\":1104:1127  _delegate == address(0) */\n  0xffffffffffffffffffffffffffffffffffffffff\n  and\n  sub\n    /* \"@layerzerolabs/oapp-evm/contracts/oapp/OAppCore.sol\":1100:1153  if (_delegate == address(0)) revert InvalidDelegate() */\n  tag_15\n  jumpi\n    /* \"@layerzerolabs/oapp-evm/contracts/oapp/OAppCore.sol\":1136:1153  InvalidDelegate() */\n  mload(0x40)\n  0xb586360400000000000000000000000000000000000000000000000000000000\n  dup2\n  mstore\n  0x04\n  add\n  mload(0x40)\n  dup1\n  swap2\n  sub\n  swap1\n  revert\n    /* \"@layerzerolabs/oapp-evm/contracts/oapp/OAppCore.sol\":1100:1153  if (_delegate == address(0)) revert InvalidDelegate() */\ntag_15:\n    /* \"@layerzerolabs/oapp-evm/contracts/oapp/OAppCore.sol\":1163:1171  endpoint */\n  mload(0x80)\n    /* \"@layerzerolabs/oapp-evm/contracts/oapp/OAppCore.sol\":1163:1183  endpoint.setDelegate */\n  0xffffffffffffffffffffffffffffffffffffffff\n  and\n  0xca5eb5e1\n    /* \"@layerzerolabs/oapp-evm/contracts/oapp/OAppCore.sol\":1184:1193  _delegate */\n  dup3\n    /* \"@layerzerolabs/oapp-evm/contracts/oapp/OAppCore.sol\":1163:1194  endpoint.setDelegate(_delegate) */\n  mload(0x40)\n  dup3\n  0xffffffff\n  and\n  0xe0\n  shl\n  dup2\n  mstore\n  0x04\n  add\n  tag_16\n  swap2\n  swap1\n  tag_11\n  jump\t// in\ntag_16:\n  0x00\n  mload(0x40)\n  dup1\n  dup4\n  sub\n  dup2\n  0x00\n  dup8\n  dup1\n  extcodesize\n  iszero\n  dup1\n  iszero\n  tag_17\n  jumpi\n  0x00\n  dup1\n  revert\ntag_17:\n  pop\n  gas\n  call\n  iszero\n  dup1\n  iszero\n  tag_19\n  jumpi\n  returndatasize\n  0x00\n  dup1\n  returndatacopy\n  revert(0x00, returndatasize)\ntag_19:\n  pop\n  pop\n  pop\n  pop\n    /* \"@layerzerolabs/oapp-evm/contracts/oapp/OAppCore.sol\":987:1201  constructor(address _endpoint, address _delegate) {... */\n  pop\n  pop\n    /* \"@layerzerolabs/oapp-evm/contracts/oapp/OApp.sol\":965:1048  constructor(address _endpoint, address _delegate) OAppCore(_endpoint, _delegate) {} */\n  pop\n  pop\n    /* \"SimpleArbitrumDisput.sol\":602:628  _transferOwnership(_owner) */\n  tag_22\n    /* \"SimpleArbitrumDisput.sol\":621:627  _owner */\n  dup2\n    /* \"SimpleArbitrumDisput.sol\":602:620  _transferOwnership */\n  shl(0x20, tag_13)\n    /* \"SimpleArbitrumDisput.sol\":602:628  _transferOwnership(_owner) */\n  0x20\n  shr\n  jump\t// in\ntag_22:\n    /* \"SimpleArbitrumDisput.sol\":479:635  constructor(... */\n  pop\n  pop\n    /* \"SimpleArbitrumDisput.sol\":313:1379  contract ArbitrumDisputeSender is OApp {... */\n  jump(tag_23)\n    /* \"@openzeppelin/contracts/access/Ownable.sol\":2912:3099  function _transferOwnership(address newOwner) internal virtual {... */\ntag_13:\n    /* \"@openzeppelin/contracts/access/Ownable.sol\":2985:3001  address oldOwner */\n  0x00\n    /* \"@openzeppelin/contracts/access/Ownable.sol\":3004:3010  _owner */\n  dup1\n  0x00\n  swap1\n  sload\n  swap1\n  0x0100\n  exp\n  swap1\n  div\n  0xffffffffffffffffffffffffffffffffffffffff\n  and\n    /* \"@openzeppelin/contracts/access/Ownable.sol\":2985:3010  address oldOwner = _owner */\n  swap1\n  pop\n    /* \"@openzeppelin/contracts/access/Ownable.sol\":3029:3037  newOwner */\n  dup2\n    /* \"@openzeppelin/contracts/access/Ownable.sol\":3020:3026  _owner */\n  0x00\n  dup1\n    /* \"@openzeppelin/contracts/access/Ownable.sol\":3020:3037  _owner = newOwner */\n  0x0100\n  exp\n  dup2\n  sload\n  dup2\n  0xffffffffffffffffffffffffffffffffffffffff\n  mul\n  not\n  and\n  swap1\n  dup4\n  0xffffffffffffffffffffffffffffffffffffffff\n  and\n  mul\n  or\n  swap1\n  sstore\n  pop\n    /* \"@openzeppelin/contracts/access/Ownable.sol\":3083:3091  newOwner */\n  dup2\n    /* \"@openzeppelin/contracts/access/Ownable.sol\":3052:3092  OwnershipTransferred(oldOwner, newOwner) */\n  0xffffffffffffffffffffffffffffffffffffffff\n  and\n    /* \"@openzeppelin/contracts/access/Ownable.sol\":3073:3081  oldOwner */\n  dup2\n    /* \"@openzeppelin/contracts/access/Ownable.sol\":3052:3092  OwnershipTransferred(oldOwner, newOwner) */\n  0xffffffffffffffffffffffffffffffffffffffff\n  and\n  0x8be0079c531659141344cd1fd0a4f28419497f9722a3daafe3b4186f6b6457e0\n  mload(0x40)\n  mload(0x40)\n  dup1\n  swap2\n  sub\n  swap1\n  log3\n    /* \"@openzeppelin/contracts/access/Ownable.sol\":2975:3099  {... */\n  pop\n    /* \"@openzeppelin/contracts/access/Ownable.sol\":2912:3099  function _transferOwnership(address newOwner) internal virtual {... */\n  pop\n  jump\t// out\n    /* \"#utility.yul\":88:205   */\ntag_26:\n    /* \"#utility.yul\":197:198   */\n  0x00\n    /* \"#utility.yul\":194:195   */\n  dup1\n    /* \"#utility.yul\":187:199   */\n  revert\n    /* \"#utility.yul\":334:460   */\ntag_28:\n    /* \"#utility.yul\":371:378   */\n  0x00\n    /* \"#utility.yul\":411:453   */\n  0xffffffffffffffffffffffffffffffffffffffff\n    /* \"#utility.yul\":404:409   */\n  dup3\n    /* \"#utility.yul\":400:454   */\n  and\n    /* \"#utility.yul\":389:454   */\n  swap1\n  pop\n    /* \"#utility.yul\":334:460   */\n  swap2\n  swap1\n  pop\n  jump\t// out\n    /* \"#utility.yul\":466:562   */\ntag_29:\n    /* \"#utility.yul\":503:510   */\n  0x00\n    /* \"#utility.yul\":532:556   */\n  tag_39\n    /* \"#utility.yul\":550:555   */\n  dup3\n    /* \"#utility.yul\":532:556   */\n  tag_28\n  jump\t// in\ntag_39:\n    /* \"#utility.yul\":521:556   */\n  swap1\n  pop\n    /* \"#utility.yul\":466:562   */\n  swap2\n  swap1\n  pop\n  jump\t// out\n    /* \"#utility.yul\":568:690   */\ntag_30:\n    /* \"#utility.yul\":641:665   */\n  tag_41\n    /* \"#utility.yul\":659:664   */\n  dup2\n    /* \"#utility.yul\":641:665   */\n  tag_29\n  jump\t// in\ntag_41:\n    /* \"#utility.yul\":634:639   */\n  dup2\n    /* \"#utility.yul\":631:666   */\n  eq\n    /* \"#utility.yul\":621:684   */\n  tag_42\n  jumpi\n    /* \"#utility.yul\":680:681   */\n  0x00\n    /* \"#utility.yul\":677:678   */\n  dup1\n    /* \"#utility.yul\":670:682   */\n  revert\n    /* \"#utility.yul\":621:684   */\ntag_42:\n    /* \"#utility.yul\":568:690   */\n  pop\n  jump\t// out\n    /* \"#utility.yul\":696:839   */\ntag_31:\n    /* \"#utility.yul\":753:758   */\n  0x00\n    /* \"#utility.yul\":784:790   */\n  dup2\n    /* \"#utility.yul\":778:791   */\n  mload\n    /* \"#utility.yul\":769:791   */\n  swap1\n  pop\n    /* \"#utility.yul\":800:833   */\n  tag_44\n    /* \"#utility.yul\":827:832   */\n  dup2\n    /* \"#utility.yul\":800:833   */\n  tag_30\n  jump\t// in\ntag_44:\n    /* \"#utility.yul\":696:839   */\n  swap3\n  swap2\n  pop\n  pop\n  jump\t// out\n    /* \"#utility.yul\":845:1352   */\ntag_3:\n    /* \"#utility.yul\":924:930   */\n  0x00\n    /* \"#utility.yul\":932:938   */\n  dup1\n    /* \"#utility.yul\":981:983   */\n  0x40\n    /* \"#utility.yul\":969:978   */\n  dup4\n    /* \"#utility.yul\":960:967   */\n  dup6\n    /* \"#utility.yul\":956:979   */\n  sub\n    /* \"#utility.yul\":952:984   */\n  slt\n    /* \"#utility.yul\":949:1068   */\n  iszero\n  tag_46\n  jumpi\n    /* \"#utility.yul\":987:1066   */\n  tag_47\n  tag_26\n  jump\t// in\ntag_47:\n    /* \"#utility.yul\":949:1068   */\ntag_46:\n    /* \"#utility.yul\":1107:1108   */\n  0x00\n    /* \"#utility.yul\":1132:1196   */\n  tag_48\n    /* \"#utility.yul\":1188:1195   */\n  dup6\n    /* \"#utility.yul\":1179:1185   */\n  dup3\n    /* \"#utility.yul\":1168:1177   */\n  dup7\n    /* \"#utility.yul\":1164:1186   */\n  add\n    /* \"#utility.yul\":1132:1196   */\n  tag_31\n  jump\t// in\ntag_48:\n    /* \"#utility.yul\":1122:1196   */\n  swap3\n  pop\n    /* \"#utility.yul\":1078:1206   */\n  pop\n    /* \"#utility.yul\":1245:1247   */\n  0x20\n    /* \"#utility.yul\":1271:1335   */\n  tag_49\n    /* \"#utility.yul\":1327:1334   */\n  dup6\n    /* \"#utility.yul\":1318:1324   */\n  dup3\n    /* \"#utility.yul\":1307:1316   */\n  dup7\n    /* \"#utility.yul\":1303:1325   */\n  add\n    /* \"#utility.yul\":1271:1335   */\n  tag_31\n  jump\t// in\ntag_49:\n    /* \"#utility.yul\":1261:1335   */\n  swap2\n  pop\n    /* \"#utility.yul\":1216:1345   */\n  pop\n    /* \"#utility.yul\":845:1352   */\n  swap3\n  pop\n  swap3\n  swap1\n  pop\n  jump\t// out\n    /* \"#utility.yul\":1358:1476   */\ntag_32:\n    /* \"#utility.yul\":1445:1469   */\n  tag_51\n    /* \"#utility.yul\":1463:1468   */\n  dup2\n    /* \"#utility.yul\":1445:1469   */\n  tag_29\n  jump\t// in\ntag_51:\n    /* \"#utility.yul\":1440:1443   */\n  dup3\n    /* \"#utility.yul\":1433:1470   */\n  mstore\n    /* \"#utility.yul\":1358:1476   */\n  pop\n  pop\n  jump\t// out\n    /* \"#utility.yul\":1482:1704   */\ntag_11:\n    /* \"#utility.yul\":1575:1579   */\n  0x00\n    /* \"#utility.yul\":1613:1615   */\n  0x20\n    /* \"#utility.yul\":1602:1611   */\n  dup3\n    /* \"#utility.yul\":1598:1616   */\n  add\n    /* \"#utility.yul\":1590:1616   */\n  swap1\n  pop\n    /* \"#utility.yul\":1626:1697   */\n  tag_53\n    /* \"#utility.yul\":1694:1695   */\n  0x00\n    /* \"#utility.yul\":1683:1692   */\n  dup4\n    /* \"#utility.yul\":1679:1696   */\n  add\n    /* \"#utility.yul\":1670:1676   */\n  dup5\n    /* \"#utility.yul\":1626:1697   */\n  tag_32\n  jump\t// in\ntag_53:\n    /* \"#utility.yul\":1482:1704   */\n  swap3\n  swap2\n  pop\n  pop\n  jump\t// out\n    /* \"SimpleArbitrumDisput.sol\":313:1379  contract ArbitrumDisputeSender is OApp {... */\ntag_23:\n  mload(0x80)\n  codecopy(0x00, dataOffset(sub_0), dataSize(sub_0))\n  0x00\n  assignImmutable(\"0xef80077fd7ee005d1b0377e3e959eb59d0ca83c4839422f862a3540a66a91fb5\")\n  return(0x00, dataSize(sub_0))\nstop\n\nsub_0: assembly {\n        /* \"SimpleArbitrumDisput.sol\":313:1379  contract ArbitrumDisputeSender is OApp {... */\n      mstore(0x40, 0x80)\n      jumpi(tag_1, lt(calldatasize, 0x04))\n      shr(0xe0, calldataload(0x00))\n      dup1\n      0x7d25a05e\n      gt\n      tag_15\n      jumpi\n      dup1\n      0xbb0b6a53\n      gt\n      tag_16\n      jumpi\n      dup1\n      0xbb0b6a53\n      eq\n      tag_11\n      jumpi\n      dup1\n      0xca5eb5e1\n      eq\n      tag_12\n      jumpi\n      dup1\n      0xf2fde38b\n      eq\n      tag_13\n      jumpi\n      dup1\n      0xff7bd03d\n      eq\n      tag_14\n      jumpi\n      jump(tag_1)\n    tag_16:\n      dup1\n      0x7d25a05e\n      eq\n      tag_8\n      jumpi\n      dup1\n      0x82413eac\n      eq\n      tag_9\n      jumpi\n      dup1\n      0x8da5cb5b\n      eq\n      tag_10\n      jumpi\n      jump(tag_1)\n    tag_15:\n      dup1\n      0x13137d65\n      eq\n      tag_2\n      jumpi\n      dup1\n      0x17442b70\n      eq\n      tag_3\n      jumpi\n      dup1\n      0x3400288b\n      eq\n      tag_4\n      jumpi\n      dup1\n      0x38f87d30\n      eq\n      tag_5\n      jumpi\n      dup1\n      0x5e280f11\n      eq\n      tag_6\n      jumpi\n      dup1\n      0x715018a6\n      eq\n      tag_7\n      jumpi\n    tag_1:\n      0x00\n      dup1\n      revert\n        /* \"@layerzerolabs/oapp-evm/contracts/oapp/OAppReceiver.sol\":4368:5076  function lzReceive(... */\n    tag_2:\n      tag_17\n      0x04\n      dup1\n      calldatasize\n      sub\n      dup2\n      add\n      swap1\n      tag_18\n      swap2\n      swap1\n      tag_19\n      jump\t// in\n    tag_18:\n      tag_20\n      jump\t// in\n    tag_17:\n      stop\n        /* \"@layerzerolabs/oapp-evm/contracts/oapp/OApp.sol\":1287:1522  function oAppVersion()... */\n    tag_3:\n      callvalue\n      dup1\n      iszero\n      tag_21\n      jumpi\n      0x00\n      dup1\n      revert\n    tag_21:\n      pop\n      tag_22\n      tag_23\n      jump\t// in\n    tag_22:\n      mload(0x40)\n      tag_24\n      swap3\n      swap2\n      swap1\n      tag_25\n      jump\t// in\n    tag_24:\n      mload(0x40)\n      dup1\n      swap2\n      sub\n      swap1\n      return\n        /* \"@layerzerolabs/oapp-evm/contracts/oapp/OAppCore.sol\":1724:1832  function setPeer(uint32 _eid, bytes32 _peer) public virtual onlyOwner {... */\n    tag_4:\n      callvalue\n      dup1\n      iszero\n      tag_26\n      jumpi\n      0x00\n      dup1\n      revert\n    tag_26:\n      pop\n      tag_27\n      0x04\n      dup1\n      calldatasize\n      sub\n      dup2\n      add\n      swap1\n      tag_28\n      swap2\n      swap1\n      tag_29\n      jump\t// in\n    tag_28:\n      tag_30\n      jump\t// in\n    tag_27:\n      stop\n        /* \"SimpleArbitrumDisput.sol\":641:1218  function createDispute(... */\n    tag_5:\n      tag_31\n      0x04\n      dup1\n      calldatasize\n      sub\n      dup2\n      add\n      swap1\n      tag_32\n      swap2\n      swap1\n      tag_33\n      jump\t// in\n    tag_32:\n      tag_34\n      jump\t// in\n    tag_31:\n      stop\n        /* \"@layerzerolabs/oapp-evm/contracts/oapp/OAppCore.sol\":446:492  ILayerZeroEndpointV2 public immutable endpoint */\n    tag_6:\n      callvalue\n      dup1\n      iszero\n      tag_35\n      jumpi\n      0x00\n      dup1\n      revert\n    tag_35:\n      pop\n      tag_36\n      tag_37\n      jump\t// in\n    tag_36:\n      mload(0x40)\n      tag_38\n      swap2\n      swap1\n      tag_39\n      jump\t// in\n    tag_38:\n      mload(0x40)\n      dup1\n      swap2\n      sub\n      swap1\n      return\n        /* \"@openzeppelin/contracts/access/Ownable.sol\":2293:2394  function renounceOwnership() public virtual onlyOwner {... */\n    tag_7:\n      callvalue\n      dup1\n      iszero\n      tag_40\n      jumpi\n      0x00\n      dup1\n      revert\n    tag_40:\n      pop\n      tag_41\n      tag_42\n      jump\t// in\n    tag_41:\n      stop\n        /* \"@layerzerolabs/oapp-evm/contracts/oapp/OAppReceiver.sol\":3507:3635  function nextNonce(uint32 /*_srcEid*/, bytes32 /*_sender*/) public view virtual returns (uint64 nonce) {... */\n    tag_8:\n      callvalue\n      dup1\n      iszero\n      tag_43\n      jumpi\n      0x00\n      dup1\n      revert\n    tag_43:\n      pop\n      tag_44\n      0x04\n      dup1\n      calldatasize\n      sub\n      dup2\n      add\n      swap1\n      tag_45\n      swap2\n      swap1\n      tag_29\n      jump\t// in\n    tag_45:\n      tag_46\n      jump\t// in\n    tag_44:\n      mload(0x40)\n      tag_47\n      swap2\n      swap1\n      tag_48\n      jump\t// in\n    tag_47:\n      mload(0x40)\n      dup1\n      swap2\n      sub\n      swap1\n      return\n        /* \"@layerzerolabs/oapp-evm/contracts/oapp/OAppReceiver.sol\":2013:2229  function isComposeMsgSender(... */\n    tag_9:\n      callvalue\n      dup1\n      iszero\n      tag_49\n      jumpi\n      0x00\n      dup1\n      revert\n    tag_49:\n      pop\n      tag_50\n      0x04\n      dup1\n      calldatasize\n      sub\n      dup2\n      add\n      swap1\n      tag_51\n      swap2\n      swap1\n      tag_52\n      jump\t// in\n    tag_51:\n      tag_53\n      jump\t// in\n    tag_50:\n      mload(0x40)\n      tag_54\n      swap2\n      swap1\n      tag_55\n      jump\t// in\n    tag_54:\n      mload(0x40)\n      dup1\n      swap2\n      sub\n      swap1\n      return\n        /* \"@openzeppelin/contracts/access/Ownable.sol\":1638:1723  function owner() public view virtual returns (address) {... */\n    tag_10:\n      callvalue\n      dup1\n      iszero\n      tag_56\n      jumpi\n      0x00\n      dup1\n      revert\n    tag_56:\n      pop\n      tag_57\n      tag_58\n      jump\t// in\n    tag_57:\n      mload(0x40)\n      tag_59\n      swap2\n      swap1\n      tag_60\n      jump\t// in\n    tag_59:\n      mload(0x40)\n      dup1\n      swap2\n      sub\n      swap1\n      return\n        /* \"@layerzerolabs/oapp-evm/contracts/oapp/OAppCore.sol\":569:617  mapping(uint32 eid => bytes32 peer) public peers */\n    tag_11:\n      callvalue\n      dup1\n      iszero\n      tag_61\n      jumpi\n      0x00\n      dup1\n      revert\n    tag_61:\n      pop\n      tag_62\n      0x04\n      dup1\n      calldatasize\n      sub\n      dup2\n      add\n      swap1\n      tag_63\n      swap2\n      swap1\n      tag_64\n      jump\t// in\n    tag_63:\n      tag_65\n      jump\t// in\n    tag_62:\n      mload(0x40)\n      tag_66\n      swap2\n      swap1\n      tag_67\n      jump\t// in\n    tag_66:\n      mload(0x40)\n      dup1\n      swap2\n      sub\n      swap1\n      return\n        /* \"@layerzerolabs/oapp-evm/contracts/oapp/OAppCore.sol\":3252:3357  function setDelegate(address _delegate) public onlyOwner {... */\n    tag_12:\n      callvalue\n      dup1\n      iszero\n      tag_68\n      jumpi\n      0x00\n      dup1\n      revert\n    tag_68:\n      pop\n      tag_69\n      0x04\n      dup1\n      calldatasize\n      sub\n      dup2\n      add\n      swap1\n      tag_70\n      swap2\n      swap1\n      tag_71\n      jump\t// in\n    tag_70:\n      tag_72\n      jump\t// in\n    tag_69:\n      stop\n        /* \"@openzeppelin/contracts/access/Ownable.sol\":2543:2758  function transferOwnership(address newOwner) public virtual onlyOwner {... */\n    tag_13:\n      callvalue\n      dup1\n      iszero\n      tag_73\n      jumpi\n      0x00\n      dup1\n      revert\n    tag_73:\n      pop\n      tag_74\n      0x04\n      dup1\n      calldatasize\n      sub\n      dup2\n      add\n      swap1\n      tag_75\n      swap2\n      swap1\n      tag_71\n      jump\t// in\n    tag_75:\n      tag_76\n      jump\t// in\n    tag_74:\n      stop\n        /* \"@layerzerolabs/oapp-evm/contracts/oapp/OAppReceiver.sol\":2771:2920  function allowInitializePath(Origin calldata origin) public view virtual returns (bool) {... */\n    tag_14:\n      callvalue\n      dup1\n      iszero\n      tag_77\n      jumpi\n      0x00\n      dup1\n      revert\n    tag_77:\n      pop\n      tag_78\n      0x04\n      dup1\n      calldatasize\n      sub\n      dup2\n      add\n      swap1\n      tag_79\n      swap2\n      swap1\n      tag_80\n      jump\t// in\n    tag_79:\n      tag_81\n      jump\t// in\n    tag_78:\n      mload(0x40)\n      tag_82\n      swap2\n      swap1\n      tag_55\n      jump\t// in\n    tag_82:\n      mload(0x40)\n      dup1\n      swap2\n      sub\n      swap1\n      return\n        /* \"@layerzerolabs/oapp-evm/contracts/oapp/OAppReceiver.sol\":4368:5076  function lzReceive(... */\n    tag_20:\n        /* \"@layerzerolabs/oapp-evm/contracts/oapp/OAppReceiver.sol\":4694:4704  msg.sender */\n      caller\n        /* \"@layerzerolabs/oapp-evm/contracts/oapp/OAppReceiver.sol\":4673:4704  address(endpoint) != msg.sender */\n      0xffffffffffffffffffffffffffffffffffffffff\n      and\n        /* \"@layerzerolabs/oapp-evm/contracts/oapp/OAppReceiver.sol\":4681:4689  endpoint */\n      immutable(\"0xef80077fd7ee005d1b0377e3e959eb59d0ca83c4839422f862a3540a66a91fb5\")\n        /* \"@layerzerolabs/oapp-evm/contracts/oapp/OAppReceiver.sol\":4673:4704  address(endpoint) != msg.sender */\n      0xffffffffffffffffffffffffffffffffffffffff\n      and\n      eq\n        /* \"@layerzerolabs/oapp-evm/contracts/oapp/OAppReceiver.sol\":4669:4737  if (address(endpoint) != msg.sender) revert OnlyEndpoint(msg.sender) */\n      tag_84\n      jumpi\n        /* \"@layerzerolabs/oapp-evm/contracts/oapp/OAppReceiver.sol\":4726:4736  msg.sender */\n      caller\n        /* \"@layerzerolabs/oapp-evm/contracts/oapp/OAppReceiver.sol\":4713:4737  OnlyEndpoint(msg.sender) */\n      mload(0x40)\n      0x91ac5e4f00000000000000000000000000000000000000000000000000000000\n      dup2\n      mstore\n      0x04\n      add\n      tag_85\n      swap2\n      swap1\n      tag_60\n      jump\t// in\n    tag_85:\n      mload(0x40)\n      dup1\n      swap2\n      sub\n      swap1\n      revert\n        /* \"@layerzerolabs/oapp-evm/contracts/oapp/OAppReceiver.sol\":4669:4737  if (address(endpoint) != msg.sender) revert OnlyEndpoint(msg.sender) */\n    tag_84:\n        /* \"@layerzerolabs/oapp-evm/contracts/oapp/OAppReceiver.sol\":4873:4880  _origin */\n      dup7\n        /* \"@layerzerolabs/oapp-evm/contracts/oapp/OAppReceiver.sol\":4873:4887  _origin.sender */\n      0x20\n      add\n      calldataload\n        /* \"@layerzerolabs/oapp-evm/contracts/oapp/OAppReceiver.sol\":4837:4869  _getPeerOrRevert(_origin.srcEid) */\n      tag_86\n        /* \"@layerzerolabs/oapp-evm/contracts/oapp/OAppReceiver.sol\":4854:4861  _origin */\n      dup9\n        /* \"@layerzerolabs/oapp-evm/contracts/oapp/OAppReceiver.sol\":4854:4868  _origin.srcEid */\n      0x00\n      add\n      0x20\n      dup2\n      add\n      swap1\n      tag_87\n      swap2\n      swap1\n      tag_64\n      jump\t// in\n    tag_87:\n        /* \"@layerzerolabs/oapp-evm/contracts/oapp/OAppReceiver.sol\":4837:4853  _getPeerOrRevert */\n      tag_88\n        /* \"@layerzerolabs/oapp-evm/contracts/oapp/OAppReceiver.sol\":4837:4869  _getPeerOrRevert(_origin.srcEid) */\n      jump\t// in\n    tag_86:\n        /* \"@layerzerolabs/oapp-evm/contracts/oapp/OAppReceiver.sol\":4837:4887  _getPeerOrRevert(_origin.srcEid) != _origin.sender */\n      eq\n        /* \"@layerzerolabs/oapp-evm/contracts/oapp/OAppReceiver.sol\":4833:4936  if (_getPeerOrRevert(_origin.srcEid) != _origin.sender) revert OnlyPeer(_origin.srcEid, _origin.sender) */\n      tag_89\n      jumpi\n        /* \"@layerzerolabs/oapp-evm/contracts/oapp/OAppReceiver.sol\":4905:4912  _origin */\n      dup7\n        /* \"@layerzerolabs/oapp-evm/contracts/oapp/OAppReceiver.sol\":4905:4919  _origin.srcEid */\n      0x00\n      add\n      0x20\n      dup2\n      add\n      swap1\n      tag_90\n      swap2\n      swap1\n      tag_64\n      jump\t// in\n    tag_90:\n        /* \"@layerzerolabs/oapp-evm/contracts/oapp/OAppReceiver.sol\":4921:4928  _origin */\n      dup8\n        /* \"@layerzerolabs/oapp-evm/contracts/oapp/OAppReceiver.sol\":4921:4935  _origin.sender */\n      0x20\n      add\n      calldataload\n        /* \"@layerzerolabs/oapp-evm/contracts/oapp/OAppReceiver.sol\":4896:4936  OnlyPeer(_origin.srcEid, _origin.sender) */\n      mload(0x40)\n      0xc26bebcc00000000000000000000000000000000000000000000000000000000\n      dup2\n      mstore\n      0x04\n      add\n      tag_91\n      swap3\n      swap2\n      swap1\n      tag_92\n      jump\t// in\n    tag_91:\n      mload(0x40)\n      dup1\n      swap2\n      sub\n      swap1\n      revert\n        /* \"@layerzerolabs/oapp-evm/contracts/oapp/OAppReceiver.sol\":4833:4936  if (_getPeerOrRevert(_origin.srcEid) != _origin.sender) revert OnlyPeer(_origin.srcEid, _origin.sender) */\n    tag_89:\n        /* \"@layerzerolabs/oapp-evm/contracts/oapp/OAppReceiver.sol\":5010:5069  _lzReceive(_origin, _guid, _message, _executor, _extraData) */\n      tag_93\n        /* \"@layerzerolabs/oapp-evm/contracts/oapp/OAppReceiver.sol\":5021:5028  _origin */\n      dup8\n        /* \"@layerzerolabs/oapp-evm/contracts/oapp/OAppReceiver.sol\":5030:5035  _guid */\n      dup8\n        /* \"@layerzerolabs/oapp-evm/contracts/oapp/OAppReceiver.sol\":5037:5045  _message */\n      dup8\n      dup8\n        /* \"@layerzerolabs/oapp-evm/contracts/oapp/OAppReceiver.sol\":5047:5056  _executor */\n      dup8\n        /* \"@layerzerolabs/oapp-evm/contracts/oapp/OAppReceiver.sol\":5058:5068  _extraData */\n      dup8\n      dup8\n        /* \"@layerzerolabs/oapp-evm/contracts/oapp/OAppReceiver.sol\":5010:5020  _lzReceive */\n      tag_94\n        /* \"@layerzerolabs/oapp-evm/contracts/oapp/OAppReceiver.sol\":5010:5069  _lzReceive(_origin, _guid, _message, _executor, _extraData) */\n      jump\t// in\n    tag_93:\n        /* \"@layerzerolabs/oapp-evm/contracts/oapp/OAppReceiver.sol\":4368:5076  function lzReceive(... */\n      pop\n      pop\n      pop\n      pop\n      pop\n      pop\n      pop\n      jump\t// out\n        /* \"@layerzerolabs/oapp-evm/contracts/oapp/OApp.sol\":1287:1522  function oAppVersion()... */\n    tag_23:\n        /* \"@layerzerolabs/oapp-evm/contracts/oapp/OApp.sol\":1414:1434  uint64 senderVersion */\n      0x00\n        /* \"@layerzerolabs/oapp-evm/contracts/oapp/OApp.sol\":1436:1458  uint64 receiverVersion */\n      dup1\n        /* \"@layerzerolabs/oapp-evm/contracts/oapp/OAppSender.sol\":843:844  1 */\n      0x01\n        /* \"@layerzerolabs/oapp-evm/contracts/oapp/OAppReceiver.sol\":678:679  2 */\n      0x02\n        /* \"@layerzerolabs/oapp-evm/contracts/oapp/OApp.sol\":1474:1515  return (SENDER_VERSION, RECEIVER_VERSION) */\n      swap2\n      pop\n      swap2\n      pop\n        /* \"@layerzerolabs/oapp-evm/contracts/oapp/OApp.sol\":1287:1522  function oAppVersion()... */\n      swap1\n      swap2\n      jump\t// out\n        /* \"@layerzerolabs/oapp-evm/contracts/oapp/OAppCore.sol\":1724:1832  function setPeer(uint32 _eid, bytes32 _peer) public virtual onlyOwner {... */\n    tag_30:\n        /* \"@openzeppelin/contracts/access/Ownable.sol\":1531:1544  _checkOwner() */\n      tag_97\n        /* \"@openzeppelin/contracts/access/Ownable.sol\":1531:1542  _checkOwner */\n      tag_98\n        /* \"@openzeppelin/contracts/access/Ownable.sol\":1531:1544  _checkOwner() */\n      jump\t// in\n    tag_97:\n        /* \"@layerzerolabs/oapp-evm/contracts/oapp/OAppCore.sol\":1804:1825  _setPeer(_eid, _peer) */\n      tag_100\n        /* \"@layerzerolabs/oapp-evm/contracts/oapp/OAppCore.sol\":1813:1817  _eid */\n      dup3\n        /* \"@layerzerolabs/oapp-evm/contracts/oapp/OAppCore.sol\":1819:1824  _peer */\n      dup3\n        /* \"@layerzerolabs/oapp-evm/contracts/oapp/OAppCore.sol\":1804:1812  _setPeer */\n      tag_101\n        /* \"@layerzerolabs/oapp-evm/contracts/oapp/OAppCore.sol\":1804:1825  _setPeer(_eid, _peer) */\n      jump\t// in\n    tag_100:\n        /* \"@layerzerolabs/oapp-evm/contracts/oapp/OAppCore.sol\":1724:1832  function setPeer(uint32 _eid, bytes32 _peer) public virtual onlyOwner {... */\n      pop\n      pop\n      jump\t// out\n        /* \"SimpleArbitrumDisput.sol\":641:1218  function createDispute(... */\n    tag_34:\n        /* \"SimpleArbitrumDisput.sol\":787:807  bytes memory payload */\n      0x00\n        /* \"SimpleArbitrumDisput.sol\":821:831  msg.sender */\n      caller\n        /* \"SimpleArbitrumDisput.sol\":833:840  _reason */\n      dup6\n      dup6\n        /* \"SimpleArbitrumDisput.sol\":810:841  abi.encode(msg.sender, _reason) */\n      add(0x20, mload(0x40))\n      tag_103\n      swap4\n      swap3\n      swap2\n      swap1\n      tag_104\n      jump\t// in\n    tag_103:\n      mload(0x40)\n      0x20\n      dup2\n      dup4\n      sub\n      sub\n      dup2\n      mstore\n      swap1\n      0x40\n      mstore\n        /* \"SimpleArbitrumDisput.sol\":787:841  bytes memory payload = abi.encode(msg.sender, _reason) */\n      swap1\n      pop\n        /* \"SimpleArbitrumDisput.sol\":860:883  MessagingFee memory fee */\n      0x00\n        /* \"SimpleArbitrumDisput.sol\":886:927  _quote(_dstEid, payload, _options, false) */\n      tag_105\n        /* \"SimpleArbitrumDisput.sol\":893:900  _dstEid */\n      dup8\n        /* \"SimpleArbitrumDisput.sol\":902:909  payload */\n      dup4\n        /* \"SimpleArbitrumDisput.sol\":911:919  _options */\n      dup7\n      dup7\n        /* \"SimpleArbitrumDisput.sol\":886:927  _quote(_dstEid, payload, _options, false) */\n      dup1\n      dup1\n      0x1f\n      add\n      0x20\n      dup1\n      swap2\n      div\n      mul\n      0x20\n      add\n      mload(0x40)\n      swap1\n      dup2\n      add\n      0x40\n      mstore\n      dup1\n      swap4\n      swap3\n      swap2\n      swap1\n      dup2\n      dup2\n      mstore\n      0x20\n      add\n      dup4\n      dup4\n      dup1\n      dup3\n      dup5\n      calldatacopy\n      0x00\n      dup2\n      dup5\n      add\n      mstore\n      not(0x1f)\n      0x1f\n      dup3\n      add\n      and\n      swap1\n      pop\n      dup1\n      dup4\n      add\n      swap3\n      pop\n      pop\n      pop\n      pop\n      pop\n      pop\n      pop\n        /* \"SimpleArbitrumDisput.sol\":921:926  false */\n      0x00\n        /* \"SimpleArbitrumDisput.sol\":886:892  _quote */\n      tag_106\n        /* \"SimpleArbitrumDisput.sol\":886:927  _quote(_dstEid, payload, _options, false) */\n      jump\t// in\n    tag_105:\n        /* \"SimpleArbitrumDisput.sol\":860:927  MessagingFee memory fee = _quote(_dstEid, payload, _options, false) */\n      swap1\n      pop\n        /* \"SimpleArbitrumDisput.sol\":958:961  fee */\n      dup1\n        /* \"SimpleArbitrumDisput.sol\":958:971  fee.nativeFee */\n      0x00\n      add\n      mload\n        /* \"SimpleArbitrumDisput.sol\":945:954  msg.value */\n      callvalue\n        /* \"SimpleArbitrumDisput.sol\":945:971  msg.value >= fee.nativeFee */\n      lt\n      iszero\n        /* \"SimpleArbitrumDisput.sol\":937:992  require(msg.value >= fee.nativeFee, \"Insufficient fee\") */\n      tag_107\n      jumpi\n      mload(0x40)\n      0x08c379a000000000000000000000000000000000000000000000000000000000\n      dup2\n      mstore\n      0x04\n      add\n      tag_108\n      swap1\n      tag_109\n      jump\t// in\n    tag_108:\n      mload(0x40)\n      dup1\n      swap2\n      sub\n      swap1\n      revert\n    tag_107:\n        /* \"SimpleArbitrumDisput.sol\":1003:1157  _lzSend(... */\n      tag_110\n        /* \"SimpleArbitrumDisput.sol\":1024:1031  _dstEid */\n      dup8\n        /* \"SimpleArbitrumDisput.sol\":1045:1052  payload */\n      dup4\n        /* \"SimpleArbitrumDisput.sol\":1066:1074  _options */\n      dup7\n      dup7\n        /* \"SimpleArbitrumDisput.sol\":1003:1157  _lzSend(... */\n      dup1\n      dup1\n      0x1f\n      add\n      0x20\n      dup1\n      swap2\n      div\n      mul\n      0x20\n      add\n      mload(0x40)\n      swap1\n      dup2\n      add\n      0x40\n      mstore\n      dup1\n      swap4\n      swap3\n      swap2\n      swap1\n      dup2\n      dup2\n      mstore\n      0x20\n      add\n      dup4\n      dup4\n      dup1\n      dup3\n      dup5\n      calldatacopy\n      0x00\n      dup2\n      dup5\n      add\n      mstore\n      not(0x1f)\n      0x1f\n      dup3\n      add\n      and\n      swap1\n      pop\n      dup1\n      dup4\n      add\n      swap3\n      pop\n      pop\n      pop\n      pop\n      pop\n      pop\n      pop\n        /* \"SimpleArbitrumDisput.sol\":1088:1114  MessagingFee(msg.value, 0) */\n      mload(0x40)\n      dup1\n      0x40\n      add\n      0x40\n      mstore\n      dup1\n        /* \"SimpleArbitrumDisput.sol\":1101:1110  msg.value */\n      callvalue\n        /* \"SimpleArbitrumDisput.sol\":1088:1114  MessagingFee(msg.value, 0) */\n      dup2\n      mstore\n      0x20\n      add\n        /* \"SimpleArbitrumDisput.sol\":1112:1113  0 */\n      0x00\n        /* \"SimpleArbitrumDisput.sol\":1088:1114  MessagingFee(msg.value, 0) */\n      dup2\n      mstore\n      pop\n        /* \"SimpleArbitrumDisput.sol\":1136:1146  msg.sender */\n      caller\n        /* \"SimpleArbitrumDisput.sol\":1003:1010  _lzSend */\n      tag_111\n        /* \"SimpleArbitrumDisput.sol\":1003:1157  _lzSend(... */\n      jump\t// in\n    tag_110:\n      pop\n        /* \"SimpleArbitrumDisput.sol\":1197:1207  msg.sender */\n      caller\n        /* \"SimpleArbitrumDisput.sol\":1173:1211  DisputeCreated(_dstEid, msg.sender, 0) */\n      0xffffffffffffffffffffffffffffffffffffffff\n      and\n        /* \"SimpleArbitrumDisput.sol\":1188:1195  _dstEid */\n      dup8\n        /* \"SimpleArbitrumDisput.sol\":1173:1211  DisputeCreated(_dstEid, msg.sender, 0) */\n      0xffffffff\n      and\n      0x3a78d28dc1c3123c826d1abdc91108b02726d180a719a597aaaa783d5e449715\n        /* \"SimpleArbitrumDisput.sol\":1209:1210  0 */\n      0x00\n        /* \"SimpleArbitrumDisput.sol\":1173:1211  DisputeCreated(_dstEid, msg.sender, 0) */\n      mload(0x40)\n      tag_112\n      swap2\n      swap1\n      tag_113\n      jump\t// in\n    tag_112:\n      mload(0x40)\n      dup1\n      swap2\n      sub\n      swap1\n      log3\n        /* \"SimpleArbitrumDisput.sol\":777:1218  {... */\n      pop\n      pop\n        /* \"SimpleArbitrumDisput.sol\":641:1218  function createDispute(... */\n      pop\n      pop\n      pop\n      pop\n      pop\n      jump\t// out\n        /* \"@layerzerolabs/oapp-evm/contracts/oapp/OAppCore.sol\":446:492  ILayerZeroEndpointV2 public immutable endpoint */\n    tag_37:\n      immutable(\"0xef80077fd7ee005d1b0377e3e959eb59d0ca83c4839422f862a3540a66a91fb5\")\n      dup2\n      jump\t// out\n        /* \"@openzeppelin/contracts/access/Ownable.sol\":2293:2394  function renounceOwnership() public virtual onlyOwner {... */\n    tag_42:\n        /* \"@openzeppelin/contracts/access/Ownable.sol\":1531:1544  _checkOwner() */\n      tag_115\n        /* \"@openzeppelin/contracts/access/Ownable.sol\":1531:1542  _checkOwner */\n      tag_98\n        /* \"@openzeppelin/contracts/access/Ownable.sol\":1531:1544  _checkOwner() */\n      jump\t// in\n    tag_115:\n        /* \"@openzeppelin/contracts/access/Ownable.sol\":2357:2387  _transferOwnership(address(0)) */\n      tag_117\n        /* \"@openzeppelin/contracts/access/Ownable.sol\":2384:2385  0 */\n      0x00\n        /* \"@openzeppelin/contracts/access/Ownable.sol\":2357:2375  _transferOwnership */\n      tag_118\n        /* \"@openzeppelin/contracts/access/Ownable.sol\":2357:2387  _transferOwnership(address(0)) */\n      jump\t// in\n    tag_117:\n        /* \"@openzeppelin/contracts/access/Ownable.sol\":2293:2394  function renounceOwnership() public virtual onlyOwner {... */\n      jump\t// out\n        /* \"@layerzerolabs/oapp-evm/contracts/oapp/OAppReceiver.sol\":3507:3635  function nextNonce(uint32 /*_srcEid*/, bytes32 /*_sender*/) public view virtual returns (uint64 nonce) {... */\n    tag_46:\n        /* \"@layerzerolabs/oapp-evm/contracts/oapp/OAppReceiver.sol\":3596:3608  uint64 nonce */\n      0x00\n        /* \"@layerzerolabs/oapp-evm/contracts/oapp/OAppReceiver.sol\":3507:3635  function nextNonce(uint32 /*_srcEid*/, bytes32 /*_sender*/) public view virtual returns (uint64 nonce) {... */\n      swap3\n      swap2\n      pop\n      pop\n      jump\t// out\n        /* \"@layerzerolabs/oapp-evm/contracts/oapp/OAppReceiver.sol\":2013:2229  function isComposeMsgSender(... */\n    tag_53:\n        /* \"@layerzerolabs/oapp-evm/contracts/oapp/OAppReceiver.sol\":2175:2179  bool */\n      0x00\n        /* \"@layerzerolabs/oapp-evm/contracts/oapp/OAppReceiver.sol\":2217:2221  this */\n      address\n        /* \"@layerzerolabs/oapp-evm/contracts/oapp/OAppReceiver.sol\":2198:2222  _sender == address(this) */\n      0xffffffffffffffffffffffffffffffffffffffff\n      and\n        /* \"@layerzerolabs/oapp-evm/contracts/oapp/OAppReceiver.sol\":2198:2205  _sender */\n      dup3\n        /* \"@layerzerolabs/oapp-evm/contracts/oapp/OAppReceiver.sol\":2198:2222  _sender == address(this) */\n      0xffffffffffffffffffffffffffffffffffffffff\n      and\n      eq\n        /* \"@layerzerolabs/oapp-evm/contracts/oapp/OAppReceiver.sol\":2191:2222  return _sender == address(this) */\n      swap1\n      pop\n        /* \"@layerzerolabs/oapp-evm/contracts/oapp/OAppReceiver.sol\":2013:2229  function isComposeMsgSender(... */\n      swap5\n      swap4\n      pop\n      pop\n      pop\n      pop\n      jump\t// out\n        /* \"@openzeppelin/contracts/access/Ownable.sol\":1638:1723  function owner() public view virtual returns (address) {... */\n    tag_58:\n        /* \"@openzeppelin/contracts/access/Ownable.sol\":1684:1691  address */\n      0x00\n        /* \"@openzeppelin/contracts/access/Ownable.sol\":1710:1716  _owner */\n      dup1\n      0x00\n      swap1\n      sload\n      swap1\n      0x0100\n      exp\n      swap1\n      div\n      0xffffffffffffffffffffffffffffffffffffffff\n      and\n        /* \"@openzeppelin/contracts/access/Ownable.sol\":1703:1716  return _owner */\n      swap1\n      pop\n        /* \"@openzeppelin/contracts/access/Ownable.sol\":1638:1723  function owner() public view virtual returns (address) {... */\n      swap1\n      jump\t// out\n        /* \"@layerzerolabs/oapp-evm/contracts/oapp/OAppCore.sol\":569:617  mapping(uint32 eid => bytes32 peer) public peers */\n    tag_65:\n      mstore(0x20, 0x01)\n      dup1\n      0x00\n      mstore\n      keccak256(0x00, 0x40)\n      0x00\n      swap2\n      pop\n      swap1\n      pop\n      sload\n      dup2\n      jump\t// out\n        /* \"@layerzerolabs/oapp-evm/contracts/oapp/OAppCore.sol\":3252:3357  function setDelegate(address _delegate) public onlyOwner {... */\n    tag_72:\n        /* \"@openzeppelin/contracts/access/Ownable.sol\":1531:1544  _checkOwner() */\n      tag_123\n        /* \"@openzeppelin/contracts/access/Ownable.sol\":1531:1542  _checkOwner */\n      tag_98\n        /* \"@openzeppelin/contracts/access/Ownable.sol\":1531:1544  _checkOwner() */\n      jump\t// in\n    tag_123:\n        /* \"@layerzerolabs/oapp-evm/contracts/oapp/OAppCore.sol\":3319:3327  endpoint */\n      immutable(\"0xef80077fd7ee005d1b0377e3e959eb59d0ca83c4839422f862a3540a66a91fb5\")\n        /* \"@layerzerolabs/oapp-evm/contracts/oapp/OAppCore.sol\":3319:3339  endpoint.setDelegate */\n      0xffffffffffffffffffffffffffffffffffffffff\n      and\n      0xca5eb5e1\n        /* \"@layerzerolabs/oapp-evm/contracts/oapp/OAppCore.sol\":3340:3349  _delegate */\n      dup3\n        /* \"@layerzerolabs/oapp-evm/contracts/oapp/OAppCore.sol\":3319:3350  endpoint.setDelegate(_delegate) */\n      mload(0x40)\n      dup3\n      0xffffffff\n      and\n      0xe0\n      shl\n      dup2\n      mstore\n      0x04\n      add\n      tag_125\n      swap2\n      swap1\n      tag_60\n      jump\t// in\n    tag_125:\n      0x00\n      mload(0x40)\n      dup1\n      dup4\n      sub\n      dup2\n      0x00\n      dup8\n      dup1\n      extcodesize\n      iszero\n      dup1\n      iszero\n      tag_126\n      jumpi\n      0x00\n      dup1\n      revert\n    tag_126:\n      pop\n      gas\n      call\n      iszero\n      dup1\n      iszero\n      tag_128\n      jumpi\n      returndatasize\n      0x00\n      dup1\n      returndatacopy\n      revert(0x00, returndatasize)\n    tag_128:\n      pop\n      pop\n      pop\n      pop\n        /* \"@layerzerolabs/oapp-evm/contracts/oapp/OAppCore.sol\":3252:3357  function setDelegate(address _delegate) public onlyOwner {... */\n      pop\n      jump\t// out\n        /* \"@openzeppelin/contracts/access/Ownable.sol\":2543:2758  function transferOwnership(address newOwner) public virtual onlyOwner {... */\n    tag_76:\n        /* \"@openzeppelin/contracts/access/Ownable.sol\":1531:1544  _checkOwner() */\n      tag_130\n        /* \"@openzeppelin/contracts/access/Ownable.sol\":1531:1542  _checkOwner */\n      tag_98\n        /* \"@openzeppelin/contracts/access/Ownable.sol\":1531:1544  _checkOwner() */\n      jump\t// in\n    tag_130:\n        /* \"@openzeppelin/contracts/access/Ownable.sol\":2647:2648  0 */\n      0x00\n        /* \"@openzeppelin/contracts/access/Ownable.sol\":2627:2649  newOwner == address(0) */\n      0xffffffffffffffffffffffffffffffffffffffff\n      and\n        /* \"@openzeppelin/contracts/access/Ownable.sol\":2627:2635  newOwner */\n      dup2\n        /* \"@openzeppelin/contracts/access/Ownable.sol\":2627:2649  newOwner == address(0) */\n      0xffffffffffffffffffffffffffffffffffffffff\n      and\n      sub\n        /* \"@openzeppelin/contracts/access/Ownable.sol\":2623:2714  if (newOwner == address(0)) {... */\n      tag_132\n      jumpi\n        /* \"@openzeppelin/contracts/access/Ownable.sol\":2700:2701  0 */\n      0x00\n        /* \"@openzeppelin/contracts/access/Ownable.sol\":2672:2703  OwnableInvalidOwner(address(0)) */\n      mload(0x40)\n      0x1e4fbdf700000000000000000000000000000000000000000000000000000000\n      dup2\n      mstore\n      0x04\n      add\n      tag_133\n      swap2\n      swap1\n      tag_60\n      jump\t// in\n    tag_133:\n      mload(0x40)\n      dup1\n      swap2\n      sub\n      swap1\n      revert\n        /* \"@openzeppelin/contracts/access/Ownable.sol\":2623:2714  if (newOwner == address(0)) {... */\n    tag_132:\n        /* \"@openzeppelin/contracts/access/Ownable.sol\":2723:2751  _transferOwnership(newOwner) */\n      tag_134\n        /* \"@openzeppelin/contracts/access/Ownable.sol\":2742:2750  newOwner */\n      dup2\n        /* \"@openzeppelin/contracts/access/Ownable.sol\":2723:2741  _transferOwnership */\n      tag_118\n        /* \"@openzeppelin/contracts/access/Ownable.sol\":2723:2751  _transferOwnership(newOwner) */\n      jump\t// in\n    tag_134:\n        /* \"@openzeppelin/contracts/access/Ownable.sol\":2543:2758  function transferOwnership(address newOwner) public virtual onlyOwner {... */\n      pop\n      jump\t// out\n        /* \"@layerzerolabs/oapp-evm/contracts/oapp/OAppReceiver.sol\":2771:2920  function allowInitializePath(Origin calldata origin) public view virtual returns (bool) {... */\n    tag_81:\n        /* \"@layerzerolabs/oapp-evm/contracts/oapp/OAppReceiver.sol\":2853:2857  bool */\n      0x00\n        /* \"@layerzerolabs/oapp-evm/contracts/oapp/OAppReceiver.sol\":2900:2906  origin */\n      dup2\n        /* \"@layerzerolabs/oapp-evm/contracts/oapp/OAppReceiver.sol\":2900:2913  origin.sender */\n      0x20\n      add\n      calldataload\n        /* \"@layerzerolabs/oapp-evm/contracts/oapp/OAppReceiver.sol\":2876:2881  peers */\n      0x01\n        /* \"@layerzerolabs/oapp-evm/contracts/oapp/OAppReceiver.sol\":2876:2896  peers[origin.srcEid] */\n      0x00\n        /* \"@layerzerolabs/oapp-evm/contracts/oapp/OAppReceiver.sol\":2882:2888  origin */\n      dup5\n        /* \"@layerzerolabs/oapp-evm/contracts/oapp/OAppReceiver.sol\":2882:2895  origin.srcEid */\n      0x00\n      add\n      0x20\n      dup2\n      add\n      swap1\n      tag_136\n      swap2\n      swap1\n      tag_64\n      jump\t// in\n    tag_136:\n        /* \"@layerzerolabs/oapp-evm/contracts/oapp/OAppReceiver.sol\":2876:2896  peers[origin.srcEid] */\n      0xffffffff\n      and\n      0xffffffff\n      and\n      dup2\n      mstore\n      0x20\n      add\n      swap1\n      dup2\n      mstore\n      0x20\n      add\n      0x00\n      keccak256\n      sload\n        /* \"@layerzerolabs/oapp-evm/contracts/oapp/OAppReceiver.sol\":2876:2913  peers[origin.srcEid] == origin.sender */\n      eq\n        /* \"@layerzerolabs/oapp-evm/contracts/oapp/OAppReceiver.sol\":2869:2913  return peers[origin.srcEid] == origin.sender */\n      swap1\n      pop\n        /* \"@layerzerolabs/oapp-evm/contracts/oapp/OAppReceiver.sol\":2771:2920  function allowInitializePath(Origin calldata origin) public view virtual returns (bool) {... */\n      swap2\n      swap1\n      pop\n      jump\t// out\n        /* \"@layerzerolabs/oapp-evm/contracts/oapp/OAppCore.sol\":2718:2914  function _getPeerOrRevert(uint32 _eid) internal view virtual returns (bytes32) {... */\n    tag_88:\n        /* \"@layerzerolabs/oapp-evm/contracts/oapp/OAppCore.sol\":2788:2795  bytes32 */\n      0x00\n        /* \"@layerzerolabs/oapp-evm/contracts/oapp/OAppCore.sol\":2807:2819  bytes32 peer */\n      dup1\n        /* \"@layerzerolabs/oapp-evm/contracts/oapp/OAppCore.sol\":2822:2827  peers */\n      0x01\n        /* \"@layerzerolabs/oapp-evm/contracts/oapp/OAppCore.sol\":2822:2833  peers[_eid] */\n      0x00\n        /* \"@layerzerolabs/oapp-evm/contracts/oapp/OAppCore.sol\":2828:2832  _eid */\n      dup5\n        /* \"@layerzerolabs/oapp-evm/contracts/oapp/OAppCore.sol\":2822:2833  peers[_eid] */\n      0xffffffff\n      and\n      0xffffffff\n      and\n      dup2\n      mstore\n      0x20\n      add\n      swap1\n      dup2\n      mstore\n      0x20\n      add\n      0x00\n      keccak256\n      sload\n        /* \"@layerzerolabs/oapp-evm/contracts/oapp/OAppCore.sol\":2807:2833  bytes32 peer = peers[_eid] */\n      swap1\n      pop\n        /* \"@layerzerolabs/oapp-evm/contracts/oapp/OAppCore.sol\":2863:2864  0 */\n      0x00\n        /* \"@layerzerolabs/oapp-evm/contracts/oapp/OAppCore.sol\":2855:2865  bytes32(0) */\n      dup1\n      shl\n        /* \"@layerzerolabs/oapp-evm/contracts/oapp/OAppCore.sol\":2847:2851  peer */\n      dup2\n        /* \"@layerzerolabs/oapp-evm/contracts/oapp/OAppCore.sol\":2847:2865  peer == bytes32(0) */\n      sub\n        /* \"@layerzerolabs/oapp-evm/contracts/oapp/OAppCore.sol\":2843:2886  if (peer == bytes32(0)) revert NoPeer(_eid) */\n      tag_138\n      jumpi\n        /* \"@layerzerolabs/oapp-evm/contracts/oapp/OAppCore.sol\":2881:2885  _eid */\n      dup3\n        /* \"@layerzerolabs/oapp-evm/contracts/oapp/OAppCore.sol\":2874:2886  NoPeer(_eid) */\n      mload(0x40)\n      0xf6ff4fb700000000000000000000000000000000000000000000000000000000\n      dup2\n      mstore\n      0x04\n      add\n      tag_139\n      swap2\n      swap1\n      tag_140\n      jump\t// in\n    tag_139:\n      mload(0x40)\n      dup1\n      swap2\n      sub\n      swap1\n      revert\n        /* \"@layerzerolabs/oapp-evm/contracts/oapp/OAppCore.sol\":2843:2886  if (peer == bytes32(0)) revert NoPeer(_eid) */\n    tag_138:\n        /* \"@layerzerolabs/oapp-evm/contracts/oapp/OAppCore.sol\":2903:2907  peer */\n      dup1\n        /* \"@layerzerolabs/oapp-evm/contracts/oapp/OAppCore.sol\":2896:2907  return peer */\n      swap2\n      pop\n      pop\n        /* \"@layerzerolabs/oapp-evm/contracts/oapp/OAppCore.sol\":2718:2914  function _getPeerOrRevert(uint32 _eid) internal view virtual returns (bytes32) {... */\n      swap2\n      swap1\n      pop\n      jump\t// out\n        /* \"SimpleArbitrumDisput.sol\":1224:1377  function _lzReceive(... */\n    tag_94:\n      pop\n      pop\n      pop\n      pop\n      pop\n      pop\n      pop\n      jump\t// out\n        /* \"@openzeppelin/contracts/access/Ownable.sol\":1796:1958  function _checkOwner() internal view virtual {... */\n    tag_98:\n        /* \"@openzeppelin/contracts/access/Ownable.sol\":1866:1878  _msgSender() */\n      tag_143\n        /* \"@openzeppelin/contracts/access/Ownable.sol\":1866:1876  _msgSender */\n      tag_144\n        /* \"@openzeppelin/contracts/access/Ownable.sol\":1866:1878  _msgSender() */\n      jump\t// in\n    tag_143:\n        /* \"@openzeppelin/contracts/access/Ownable.sol\":1855:1878  owner() != _msgSender() */\n      0xffffffffffffffffffffffffffffffffffffffff\n      and\n        /* \"@openzeppelin/contracts/access/Ownable.sol\":1855:1862  owner() */\n      tag_145\n        /* \"@openzeppelin/contracts/access/Ownable.sol\":1855:1860  owner */\n      tag_58\n        /* \"@openzeppelin/contracts/access/Ownable.sol\":1855:1862  owner() */\n      jump\t// in\n    tag_145:\n        /* \"@openzeppelin/contracts/access/Ownable.sol\":1855:1878  owner() != _msgSender() */\n      0xffffffffffffffffffffffffffffffffffffffff\n      and\n      eq\n        /* \"@openzeppelin/contracts/access/Ownable.sol\":1851:1952  if (owner() != _msgSender()) {... */\n      tag_146\n      jumpi\n        /* \"@openzeppelin/contracts/access/Ownable.sol\":1928:1940  _msgSender() */\n      tag_147\n        /* \"@openzeppelin/contracts/access/Ownable.sol\":1928:1938  _msgSender */\n      tag_144\n        /* \"@openzeppelin/contracts/access/Ownable.sol\":1928:1940  _msgSender() */\n      jump\t// in\n    tag_147:\n        /* \"@openzeppelin/contracts/access/Ownable.sol\":1901:1941  OwnableUnauthorizedAccount(_msgSender()) */\n      mload(0x40)\n      0x118cdaa700000000000000000000000000000000000000000000000000000000\n      dup2\n      mstore\n      0x04\n      add\n      tag_148\n      swap2\n      swap1\n      tag_60\n      jump\t// in\n    tag_148:\n      mload(0x40)\n      dup1\n      swap2\n      sub\n      swap1\n      revert\n        /* \"@openzeppelin/contracts/access/Ownable.sol\":1851:1952  if (owner() != _msgSender()) {... */\n    tag_146:\n        /* \"@openzeppelin/contracts/access/Ownable.sol\":1796:1958  function _checkOwner() internal view virtual {... */\n      jump\t// out\n        /* \"@layerzerolabs/oapp-evm/contracts/oapp/OAppCore.sol\":2286:2420  function _setPeer(uint32 _eid, bytes32 _peer) internal virtual {... */\n    tag_101:\n        /* \"@layerzerolabs/oapp-evm/contracts/oapp/OAppCore.sol\":2373:2378  _peer */\n      dup1\n        /* \"@layerzerolabs/oapp-evm/contracts/oapp/OAppCore.sol\":2359:2364  peers */\n      0x01\n        /* \"@layerzerolabs/oapp-evm/contracts/oapp/OAppCore.sol\":2359:2370  peers[_eid] */\n      0x00\n        /* \"@layerzerolabs/oapp-evm/contracts/oapp/OAppCore.sol\":2365:2369  _eid */\n      dup5\n        /* \"@layerzerolabs/oapp-evm/contracts/oapp/OAppCore.sol\":2359:2370  peers[_eid] */\n      0xffffffff\n      and\n      0xffffffff\n      and\n      dup2\n      mstore\n      0x20\n      add\n      swap1\n      dup2\n      mstore\n      0x20\n      add\n      0x00\n      keccak256\n        /* \"@layerzerolabs/oapp-evm/contracts/oapp/OAppCore.sol\":2359:2378  peers[_eid] = _peer */\n      dup2\n      swap1\n      sstore\n      pop\n        /* \"@layerzerolabs/oapp-evm/contracts/oapp/OAppCore.sol\":2393:2413  PeerSet(_eid, _peer) */\n      0x238399d427b947898edb290f5ff0f9109849b1c3ba196a42e35f00c50a54b98b\n        /* \"@layerzerolabs/oapp-evm/contracts/oapp/OAppCore.sol\":2401:2405  _eid */\n      dup3\n        /* \"@layerzerolabs/oapp-evm/contracts/oapp/OAppCore.sol\":2407:2412  _peer */\n      dup3\n        /* \"@layerzerolabs/oapp-evm/contracts/oapp/OAppCore.sol\":2393:2413  PeerSet(_eid, _peer) */\n      mload(0x40)\n      tag_150\n      swap3\n      swap2\n      swap1\n      tag_92\n      jump\t// in\n    tag_150:\n      mload(0x40)\n      dup1\n      swap2\n      sub\n      swap1\n      log1\n        /* \"@layerzerolabs/oapp-evm/contracts/oapp/OAppCore.sol\":2286:2420  function _setPeer(uint32 _eid, bytes32 _peer) internal virtual {... */\n      pop\n      pop\n      jump\t// out\n        /* \"@layerzerolabs/oapp-evm/contracts/oapp/OAppSender.sol\":2038:2429  function _quote(... */\n    tag_106:\n        /* \"@layerzerolabs/oapp-evm/contracts/oapp/OAppSender.sol\":2205:2228  MessagingFee memory fee */\n      tag_151\n      tag_152\n      jump\t// in\n    tag_151:\n        /* \"@layerzerolabs/oapp-evm/contracts/oapp/OAppSender.sol\":2259:2267  endpoint */\n      immutable(\"0xef80077fd7ee005d1b0377e3e959eb59d0ca83c4839422f862a3540a66a91fb5\")\n        /* \"@layerzerolabs/oapp-evm/contracts/oapp/OAppSender.sol\":2259:2273  endpoint.quote */\n      0xffffffffffffffffffffffffffffffffffffffff\n      and\n      0xddc28c58\n        /* \"@layerzerolabs/oapp-evm/contracts/oapp/OAppSender.sol\":2291:2377  MessagingParams(_dstEid, _getPeerOrRevert(_dstEid), _message, _options, _payInLzToken) */\n      mload(0x40)\n      dup1\n      0xa0\n      add\n      0x40\n      mstore\n      dup1\n        /* \"@layerzerolabs/oapp-evm/contracts/oapp/OAppSender.sol\":2307:2314  _dstEid */\n      dup9\n        /* \"@layerzerolabs/oapp-evm/contracts/oapp/OAppSender.sol\":2291:2377  MessagingParams(_dstEid, _getPeerOrRevert(_dstEid), _message, _options, _payInLzToken) */\n      0xffffffff\n      and\n      dup2\n      mstore\n      0x20\n      add\n        /* \"@layerzerolabs/oapp-evm/contracts/oapp/OAppSender.sol\":2316:2341  _getPeerOrRevert(_dstEid) */\n      tag_154\n        /* \"@layerzerolabs/oapp-evm/contracts/oapp/OAppSender.sol\":2333:2340  _dstEid */\n      dup10\n        /* \"@layerzerolabs/oapp-evm/contracts/oapp/OAppSender.sol\":2316:2332  _getPeerOrRevert */\n      tag_88\n        /* \"@layerzerolabs/oapp-evm/contracts/oapp/OAppSender.sol\":2316:2341  _getPeerOrRevert(_dstEid) */\n      jump\t// in\n    tag_154:\n        /* \"@layerzerolabs/oapp-evm/contracts/oapp/OAppSender.sol\":2291:2377  MessagingParams(_dstEid, _getPeerOrRevert(_dstEid), _message, _options, _payInLzToken) */\n      dup2\n      mstore\n      0x20\n      add\n        /* \"@layerzerolabs/oapp-evm/contracts/oapp/OAppSender.sol\":2343:2351  _message */\n      dup8\n        /* \"@layerzerolabs/oapp-evm/contracts/oapp/OAppSender.sol\":2291:2377  MessagingParams(_dstEid, _getPeerOrRevert(_dstEid), _message, _options, _payInLzToken) */\n      dup2\n      mstore\n      0x20\n      add\n        /* \"@layerzerolabs/oapp-evm/contracts/oapp/OAppSender.sol\":2353:2361  _options */\n      dup7\n        /* \"@layerzerolabs/oapp-evm/contracts/oapp/OAppSender.sol\":2291:2377  MessagingParams(_dstEid, _getPeerOrRevert(_dstEid), _message, _options, _payInLzToken) */\n      dup2\n      mstore\n      0x20\n      add\n        /* \"@layerzerolabs/oapp-evm/contracts/oapp/OAppSender.sol\":2363:2376  _payInLzToken */\n      dup6\n        /* \"@layerzerolabs/oapp-evm/contracts/oapp/OAppSender.sol\":2291:2377  MessagingParams(_dstEid, _getPeerOrRevert(_dstEid), _message, _options, _payInLzToken) */\n      iszero\n      iszero\n      dup2\n      mstore\n      pop\n        /* \"@layerzerolabs/oapp-evm/contracts/oapp/OAppSender.sol\":2403:2407  this */\n      address\n        /* \"@layerzerolabs/oapp-evm/contracts/oapp/OAppSender.sol\":2259:2422  endpoint.quote(... */\n      mload(0x40)\n      dup4\n      0xffffffff\n      and\n      0xe0\n      shl\n      dup2\n      mstore\n      0x04\n      add\n      tag_155\n      swap3\n      swap2\n      swap1\n      tag_156\n      jump\t// in\n    tag_155:\n      0x40\n      dup1\n      mload\n      dup1\n      dup4\n      sub\n      dup2\n      dup7\n      gas\n      staticcall\n      iszero\n      dup1\n      iszero\n      tag_158\n      jumpi\n      returndatasize\n      0x00\n      dup1\n      returndatacopy\n      revert(0x00, returndatasize)\n    tag_158:\n      pop\n      pop\n      pop\n      pop\n      mload(0x40)\n      returndatasize\n      not(0x1f)\n      0x1f\n      dup3\n      add\n      and\n      dup3\n      add\n      dup1\n      0x40\n      mstore\n      pop\n      dup2\n      add\n      swap1\n      tag_159\n      swap2\n      swap1\n      tag_160\n      jump\t// in\n    tag_159:\n        /* \"@layerzerolabs/oapp-evm/contracts/oapp/OAppSender.sol\":2240:2422  return... */\n      swap1\n      pop\n        /* \"@layerzerolabs/oapp-evm/contracts/oapp/OAppSender.sol\":2038:2429  function _quote(... */\n      swap5\n      swap4\n      pop\n      pop\n      pop\n      pop\n      jump\t// out\n        /* \"@layerzerolabs/oapp-evm/contracts/oapp/OAppSender.sol\":3188:3954  function _lzSend(... */\n    tag_111:\n        /* \"@layerzerolabs/oapp-evm/contracts/oapp/OAppSender.sol\":3389:3420  MessagingReceipt memory receipt */\n      tag_161\n      tag_162\n      jump\t// in\n    tag_161:\n        /* \"@layerzerolabs/oapp-evm/contracts/oapp/OAppSender.sol\":3554:3574  uint256 messageValue */\n      0x00\n        /* \"@layerzerolabs/oapp-evm/contracts/oapp/OAppSender.sol\":3577:3603  _payNative(_fee.nativeFee) */\n      tag_164\n        /* \"@layerzerolabs/oapp-evm/contracts/oapp/OAppSender.sol\":3588:3592  _fee */\n      dup5\n        /* \"@layerzerolabs/oapp-evm/contracts/oapp/OAppSender.sol\":3588:3602  _fee.nativeFee */\n      0x00\n      add\n      mload\n        /* \"@layerzerolabs/oapp-evm/contracts/oapp/OAppSender.sol\":3577:3587  _payNative */\n      tag_165\n        /* \"@layerzerolabs/oapp-evm/contracts/oapp/OAppSender.sol\":3577:3603  _payNative(_fee.nativeFee) */\n      jump\t// in\n    tag_164:\n        /* \"@layerzerolabs/oapp-evm/contracts/oapp/OAppSender.sol\":3554:3603  uint256 messageValue = _payNative(_fee.nativeFee) */\n      swap1\n      pop\n        /* \"@layerzerolabs/oapp-evm/contracts/oapp/OAppSender.sol\":3635:3636  0 */\n      0x00\n        /* \"@layerzerolabs/oapp-evm/contracts/oapp/OAppSender.sol\":3617:3621  _fee */\n      dup5\n        /* \"@layerzerolabs/oapp-evm/contracts/oapp/OAppSender.sol\":3617:3632  _fee.lzTokenFee */\n      0x20\n      add\n      mload\n        /* \"@layerzerolabs/oapp-evm/contracts/oapp/OAppSender.sol\":3617:3636  _fee.lzTokenFee > 0 */\n      gt\n        /* \"@layerzerolabs/oapp-evm/contracts/oapp/OAppSender.sol\":3613:3666  if (_fee.lzTokenFee > 0) _payLzToken(_fee.lzTokenFee) */\n      iszero\n      tag_166\n      jumpi\n        /* \"@layerzerolabs/oapp-evm/contracts/oapp/OAppSender.sol\":3638:3666  _payLzToken(_fee.lzTokenFee) */\n      tag_167\n        /* \"@layerzerolabs/oapp-evm/contracts/oapp/OAppSender.sol\":3650:3654  _fee */\n      dup5\n        /* \"@layerzerolabs/oapp-evm/contracts/oapp/OAppSender.sol\":3650:3665  _fee.lzTokenFee */\n      0x20\n      add\n      mload\n        /* \"@layerzerolabs/oapp-evm/contracts/oapp/OAppSender.sol\":3638:3649  _payLzToken */\n      tag_168\n        /* \"@layerzerolabs/oapp-evm/contracts/oapp/OAppSender.sol\":3638:3666  _payLzToken(_fee.lzTokenFee) */\n      jump\t// in\n    tag_167:\n        /* \"@layerzerolabs/oapp-evm/contracts/oapp/OAppSender.sol\":3613:3666  if (_fee.lzTokenFee > 0) _payLzToken(_fee.lzTokenFee) */\n    tag_166:\n        /* \"@layerzerolabs/oapp-evm/contracts/oapp/OAppSender.sol\":3755:3763  endpoint */\n      immutable(\"0xef80077fd7ee005d1b0377e3e959eb59d0ca83c4839422f862a3540a66a91fb5\")\n        /* \"@layerzerolabs/oapp-evm/contracts/oapp/OAppSender.sol\":3755:3768  endpoint.send */\n      0xffffffffffffffffffffffffffffffffffffffff\n      and\n      0x2637a450\n        /* \"@layerzerolabs/oapp-evm/contracts/oapp/OAppSender.sol\":3777:3789  messageValue */\n      dup3\n        /* \"@layerzerolabs/oapp-evm/contracts/oapp/OAppSender.sol\":3809:3901  MessagingParams(_dstEid, _getPeerOrRevert(_dstEid), _message, _options, _fee.lzTokenFee > 0) */\n      mload(0x40)\n      dup1\n      0xa0\n      add\n      0x40\n      mstore\n      dup1\n        /* \"@layerzerolabs/oapp-evm/contracts/oapp/OAppSender.sol\":3825:3832  _dstEid */\n      dup12\n        /* \"@layerzerolabs/oapp-evm/contracts/oapp/OAppSender.sol\":3809:3901  MessagingParams(_dstEid, _getPeerOrRevert(_dstEid), _message, _options, _fee.lzTokenFee > 0) */\n      0xffffffff\n      and\n      dup2\n      mstore\n      0x20\n      add\n        /* \"@layerzerolabs/oapp-evm/contracts/oapp/OAppSender.sol\":3834:3859  _getPeerOrRevert(_dstEid) */\n      tag_169\n        /* \"@layerzerolabs/oapp-evm/contracts/oapp/OAppSender.sol\":3851:3858  _dstEid */\n      dup13\n        /* \"@layerzerolabs/oapp-evm/contracts/oapp/OAppSender.sol\":3834:3850  _getPeerOrRevert */\n      tag_88\n        /* \"@layerzerolabs/oapp-evm/contracts/oapp/OAppSender.sol\":3834:3859  _getPeerOrRevert(_dstEid) */\n      jump\t// in\n    tag_169:\n        /* \"@layerzerolabs/oapp-evm/contracts/oapp/OAppSender.sol\":3809:3901  MessagingParams(_dstEid, _getPeerOrRevert(_dstEid), _message, _options, _fee.lzTokenFee > 0) */\n      dup2\n      mstore\n      0x20\n      add\n        /* \"@layerzerolabs/oapp-evm/contracts/oapp/OAppSender.sol\":3861:3869  _message */\n      dup11\n        /* \"@layerzerolabs/oapp-evm/contracts/oapp/OAppSender.sol\":3809:3901  MessagingParams(_dstEid, _getPeerOrRevert(_dstEid), _message, _options, _fee.lzTokenFee > 0) */\n      dup2\n      mstore\n      0x20\n      add\n        /* \"@layerzerolabs/oapp-evm/contracts/oapp/OAppSender.sol\":3871:3879  _options */\n      dup10\n        /* \"@layerzerolabs/oapp-evm/contracts/oapp/OAppSender.sol\":3809:3901  MessagingParams(_dstEid, _getPeerOrRevert(_dstEid), _message, _options, _fee.lzTokenFee > 0) */\n      dup2\n      mstore\n      0x20\n      add\n        /* \"@layerzerolabs/oapp-evm/contracts/oapp/OAppSender.sol\":3899:3900  0 */\n      0x00\n        /* \"@layerzerolabs/oapp-evm/contracts/oapp/OAppSender.sol\":3881:3885  _fee */\n      dup10\n        /* \"@layerzerolabs/oapp-evm/contracts/oapp/OAppSender.sol\":3881:3896  _fee.lzTokenFee */\n      0x20\n      add\n      mload\n        /* \"@layerzerolabs/oapp-evm/contracts/oapp/OAppSender.sol\":3881:3900  _fee.lzTokenFee > 0 */\n      gt\n        /* \"@layerzerolabs/oapp-evm/contracts/oapp/OAppSender.sol\":3809:3901  MessagingParams(_dstEid, _getPeerOrRevert(_dstEid), _message, _options, _fee.lzTokenFee > 0) */\n      iszero\n      iszero\n      dup2\n      mstore\n      pop\n        /* \"@layerzerolabs/oapp-evm/contracts/oapp/OAppSender.sol\":3919:3933  _refundAddress */\n      dup7\n        /* \"@layerzerolabs/oapp-evm/contracts/oapp/OAppSender.sol\":3755:3947  endpoint.send{ value: messageValue }(... */\n      mload(0x40)\n      dup5\n      0xffffffff\n      and\n      0xe0\n      shl\n      dup2\n      mstore\n      0x04\n      add\n      tag_170\n      swap3\n      swap2\n      swap1\n      tag_156\n      jump\t// in\n    tag_170:\n      0x80\n      mload(0x40)\n      dup1\n      dup4\n      sub\n      dup2\n      dup6\n      dup9\n      gas\n      call\n      iszero\n      dup1\n      iszero\n      tag_172\n      jumpi\n      returndatasize\n      0x00\n      dup1\n      returndatacopy\n      revert(0x00, returndatasize)\n    tag_172:\n      pop\n      pop\n      pop\n      pop\n      pop\n      mload(0x40)\n      returndatasize\n      not(0x1f)\n      0x1f\n      dup3\n      add\n      and\n      dup3\n      add\n      dup1\n      0x40\n      mstore\n      pop\n      dup2\n      add\n      swap1\n      tag_173\n      swap2\n      swap1\n      tag_174\n      jump\t// in\n    tag_173:\n        /* \"@layerzerolabs/oapp-evm/contracts/oapp/OAppSender.sol\":3677:3947  return... */\n      swap2\n      pop\n      pop\n        /* \"@layerzerolabs/oapp-evm/contracts/oapp/OAppSender.sol\":3188:3954  function _lzSend(... */\n      swap6\n      swap5\n      pop\n      pop\n      pop\n      pop\n      pop\n      jump\t// out\n        /* \"@openzeppelin/contracts/access/Ownable.sol\":2912:3099  function _transferOwnership(address newOwner) internal virtual {... */\n    tag_118:\n        /* \"@openzeppelin/contracts/access/Ownable.sol\":2985:3001  address oldOwner */\n      0x00\n        /* \"@openzeppelin/contracts/access/Ownable.sol\":3004:3010  _owner */\n      dup1\n      0x00\n      swap1\n      sload\n      swap1\n      0x0100\n      exp\n      swap1\n      div\n      0xffffffffffffffffffffffffffffffffffffffff\n      and\n        /* \"@openzeppelin/contracts/access/Ownable.sol\":2985:3010  address oldOwner = _owner */\n      swap1\n      pop\n        /* \"@openzeppelin/contracts/access/Ownable.sol\":3029:3037  newOwner */\n      dup2\n        /* \"@openzeppelin/contracts/access/Ownable.sol\":3020:3026  _owner */\n      0x00\n      dup1\n        /* \"@openzeppelin/contracts/access/Ownable.sol\":3020:3037  _owner = newOwner */\n      0x0100\n      exp\n      dup2\n      sload\n      dup2\n      0xffffffffffffffffffffffffffffffffffffffff\n      mul\n      not\n      and\n      swap1\n      dup4\n      0xffffffffffffffffffffffffffffffffffffffff\n      and\n      mul\n      or\n      swap1\n      sstore\n      pop\n        /* \"@openzeppelin/contracts/access/Ownable.sol\":3083:3091  newOwner */\n      dup2\n        /* \"@openzeppelin/contracts/access/Ownable.sol\":3052:3092  OwnershipTransferred(oldOwner, newOwner) */\n      0xffffffffffffffffffffffffffffffffffffffff\n      and\n        /* \"@openzeppelin/contracts/access/Ownable.sol\":3073:3081  oldOwner */\n      dup2\n        /* \"@openzeppelin/contracts/access/Ownable.sol\":3052:3092  OwnershipTransferred(oldOwner, newOwner) */\n      0xffffffffffffffffffffffffffffffffffffffff\n      and\n      0x8be0079c531659141344cd1fd0a4f28419497f9722a3daafe3b4186f6b6457e0\n      mload(0x40)\n      mload(0x40)\n      dup1\n      swap2\n      sub\n      swap1\n      log3\n        /* \"@openzeppelin/contracts/access/Ownable.sol\":2975:3099  {... */\n      pop\n        /* \"@openzeppelin/contracts/access/Ownable.sol\":2912:3099  function _transferOwnership(address newOwner) internal virtual {... */\n      pop\n      jump\t// out\n        /* \"@openzeppelin/contracts/utils/Context.sol\":656:752  function _msgSender() internal view virtual returns (address) {... */\n    tag_144:\n        /* \"@openzeppelin/contracts/utils/Context.sol\":709:716  address */\n      0x00\n        /* \"@openzeppelin/contracts/utils/Context.sol\":735:745  msg.sender */\n      caller\n        /* \"@openzeppelin/contracts/utils/Context.sol\":728:745  return msg.sender */\n      swap1\n      pop\n        /* \"@openzeppelin/contracts/utils/Context.sol\":656:752  function _msgSender() internal view virtual returns (address) {... */\n      swap1\n      jump\t// out\n        /* \"@layerzerolabs/oapp-evm/contracts/oapp/OAppSender.sol\":4650:4841  function _payNative(uint256 _nativeFee) internal virtual returns (uint256 nativeFee) {... */\n    tag_165:\n        /* \"@layerzerolabs/oapp-evm/contracts/oapp/OAppSender.sol\":4716:4733  uint256 nativeFee */\n      0x00\n        /* \"@layerzerolabs/oapp-evm/contracts/oapp/OAppSender.sol\":4762:4772  _nativeFee */\n      dup2\n        /* \"@layerzerolabs/oapp-evm/contracts/oapp/OAppSender.sol\":4749:4758  msg.value */\n      callvalue\n        /* \"@layerzerolabs/oapp-evm/contracts/oapp/OAppSender.sol\":4749:4772  msg.value != _nativeFee */\n      eq\n        /* \"@layerzerolabs/oapp-evm/contracts/oapp/OAppSender.sol\":4745:4807  if (msg.value != _nativeFee) revert NotEnoughNative(msg.value) */\n      tag_178\n      jumpi\n        /* \"@layerzerolabs/oapp-evm/contracts/oapp/OAppSender.sol\":4797:4806  msg.value */\n      callvalue\n        /* \"@layerzerolabs/oapp-evm/contracts/oapp/OAppSender.sol\":4781:4807  NotEnoughNative(msg.value) */\n      mload(0x40)\n      0x9f70412000000000000000000000000000000000000000000000000000000000\n      dup2\n      mstore\n      0x04\n      add\n      tag_179\n      swap2\n      swap1\n      tag_180\n      jump\t// in\n    tag_179:\n      mload(0x40)\n      dup1\n      swap2\n      sub\n      swap1\n      revert\n        /* \"@layerzerolabs/oapp-evm/contracts/oapp/OAppSender.sol\":4745:4807  if (msg.value != _nativeFee) revert NotEnoughNative(msg.value) */\n    tag_178:\n        /* \"@layerzerolabs/oapp-evm/contracts/oapp/OAppSender.sol\":4824:4834  _nativeFee */\n      dup2\n        /* \"@layerzerolabs/oapp-evm/contracts/oapp/OAppSender.sol\":4817:4834  return _nativeFee */\n      swap1\n      pop\n        /* \"@layerzerolabs/oapp-evm/contracts/oapp/OAppSender.sol\":4650:4841  function _payNative(uint256 _nativeFee) internal virtual returns (uint256 nativeFee) {... */\n      swap2\n      swap1\n      pop\n      jump\t// out\n        /* \"@layerzerolabs/oapp-evm/contracts/oapp/OAppSender.sol\":5218:5628  function _payLzToken(uint256 _lzTokenFee) internal virtual {... */\n    tag_168:\n        /* \"@layerzerolabs/oapp-evm/contracts/oapp/OAppSender.sol\":5371:5386  address lzToken */\n      0x00\n        /* \"@layerzerolabs/oapp-evm/contracts/oapp/OAppSender.sol\":5389:5397  endpoint */\n      immutable(\"0xef80077fd7ee005d1b0377e3e959eb59d0ca83c4839422f862a3540a66a91fb5\")\n        /* \"@layerzerolabs/oapp-evm/contracts/oapp/OAppSender.sol\":5389:5405  endpoint.lzToken */\n      0xffffffffffffffffffffffffffffffffffffffff\n      and\n      0xe4fe1d94\n        /* \"@layerzerolabs/oapp-evm/contracts/oapp/OAppSender.sol\":5389:5407  endpoint.lzToken() */\n      mload(0x40)\n      dup2\n      0xffffffff\n      and\n      0xe0\n      shl\n      dup2\n      mstore\n      0x04\n      add\n      0x20\n      mload(0x40)\n      dup1\n      dup4\n      sub\n      dup2\n      dup7\n      gas\n      staticcall\n      iszero\n      dup1\n      iszero\n      tag_183\n      jumpi\n      returndatasize\n      0x00\n      dup1\n      returndatacopy\n      revert(0x00, returndatasize)\n    tag_183:\n      pop\n      pop\n      pop\n      pop\n      mload(0x40)\n      returndatasize\n      not(0x1f)\n      0x1f\n      dup3\n      add\n      and\n      dup3\n      add\n      dup1\n      0x40\n      mstore\n      pop\n      dup2\n      add\n      swap1\n      tag_184\n      swap2\n      swap1\n      tag_185\n      jump\t// in\n    tag_184:\n        /* \"@layerzerolabs/oapp-evm/contracts/oapp/OAppSender.sol\":5371:5407  address lzToken = endpoint.lzToken() */\n      swap1\n      pop\n        /* \"@layerzerolabs/oapp-evm/contracts/oapp/OAppSender.sol\":5440:5441  0 */\n      0x00\n        /* \"@layerzerolabs/oapp-evm/contracts/oapp/OAppSender.sol\":5421:5442  lzToken == address(0) */\n      0xffffffffffffffffffffffffffffffffffffffff\n      and\n        /* \"@layerzerolabs/oapp-evm/contracts/oapp/OAppSender.sol\":5421:5428  lzToken */\n      dup2\n        /* \"@layerzerolabs/oapp-evm/contracts/oapp/OAppSender.sol\":5421:5442  lzToken == address(0) */\n      0xffffffffffffffffffffffffffffffffffffffff\n      and\n      sub\n        /* \"@layerzerolabs/oapp-evm/contracts/oapp/OAppSender.sol\":5417:5471  if (lzToken == address(0)) revert LzTokenUnavailable() */\n      tag_186\n      jumpi\n        /* \"@layerzerolabs/oapp-evm/contracts/oapp/OAppSender.sol\":5451:5471  LzTokenUnavailable() */\n      mload(0x40)\n      0x5373352a00000000000000000000000000000000000000000000000000000000\n      dup2\n      mstore\n      0x04\n      add\n      mload(0x40)\n      dup1\n      swap2\n      sub\n      swap1\n      revert\n        /* \"@layerzerolabs/oapp-evm/contracts/oapp/OAppSender.sol\":5417:5471  if (lzToken == address(0)) revert LzTokenUnavailable() */\n    tag_186:\n        /* \"@layerzerolabs/oapp-evm/contracts/oapp/OAppSender.sol\":5545:5621  IERC20(lzToken).safeTransferFrom(msg.sender, address(endpoint), _lzTokenFee) */\n      tag_187\n        /* \"@layerzerolabs/oapp-evm/contracts/oapp/OAppSender.sol\":5578:5588  msg.sender */\n      caller\n        /* \"@layerzerolabs/oapp-evm/contracts/oapp/OAppSender.sol\":5598:5606  endpoint */\n      immutable(\"0xef80077fd7ee005d1b0377e3e959eb59d0ca83c4839422f862a3540a66a91fb5\")\n        /* \"@layerzerolabs/oapp-evm/contracts/oapp/OAppSender.sol\":5609:5620  _lzTokenFee */\n      dup5\n        /* \"@layerzerolabs/oapp-evm/contracts/oapp/OAppSender.sol\":5552:5559  lzToken */\n      dup5\n        /* \"@layerzerolabs/oapp-evm/contracts/oapp/OAppSender.sol\":5545:5577  IERC20(lzToken).safeTransferFrom */\n      0xffffffffffffffffffffffffffffffffffffffff\n      and\n      tag_188\n      swap1\n        /* \"@layerzerolabs/oapp-evm/contracts/oapp/OAppSender.sol\":5545:5621  IERC20(lzToken).safeTransferFrom(msg.sender, address(endpoint), _lzTokenFee) */\n      swap4\n      swap3\n      swap2\n      swap1\n      0xffffffff\n      and\n      jump\t// in\n    tag_187:\n        /* \"@layerzerolabs/oapp-evm/contracts/oapp/OAppSender.sol\":5277:5628  {... */\n      pop\n        /* \"@layerzerolabs/oapp-evm/contracts/oapp/OAppSender.sol\":5218:5628  function _payLzToken(uint256 _lzTokenFee) internal virtual {... */\n      pop\n      jump\t// out\n        /* \"@openzeppelin/contracts/token/ERC20/utils/SafeERC20.sol\":1618:1806  function safeTransferFrom(IERC20 token, address from, address to, uint256 value) internal {... */\n    tag_188:\n        /* \"@openzeppelin/contracts/token/ERC20/utils/SafeERC20.sol\":1718:1799  _callOptionalReturn(token, abi.encodeCall(token.transferFrom, (from, to, value))) */\n      tag_190\n        /* \"@openzeppelin/contracts/token/ERC20/utils/SafeERC20.sol\":1738:1743  token */\n      dup5\n        /* \"@openzeppelin/contracts/token/ERC20/utils/SafeERC20.sol\":1760:1765  token */\n      dup6\n        /* \"@openzeppelin/contracts/token/ERC20/utils/SafeERC20.sol\":1760:1778  token.transferFrom */\n      0xffffffffffffffffffffffffffffffffffffffff\n      and\n      0x23b872dd\n        /* \"@openzeppelin/contracts/token/ERC20/utils/SafeERC20.sol\":1781:1785  from */\n      dup7\n        /* \"@openzeppelin/contracts/token/ERC20/utils/SafeERC20.sol\":1787:1789  to */\n      dup7\n        /* \"@openzeppelin/contracts/token/ERC20/utils/SafeERC20.sol\":1791:1796  value */\n      dup7\n        /* \"@openzeppelin/contracts/token/ERC20/utils/SafeERC20.sol\":1745:1798  abi.encodeCall(token.transferFrom, (from, to, value)) */\n      add(0x24, mload(0x40))\n      tag_191\n      swap4\n      swap3\n      swap2\n      swap1\n      tag_192\n      jump\t// in\n    tag_191:\n      mload(0x40)\n      0x20\n      dup2\n      dup4\n      sub\n      sub\n      dup2\n      mstore\n      swap1\n      0x40\n      mstore\n      swap2\n      pop\n      0xe0\n      shl\n      0x20\n      dup3\n      add\n      dup1\n      mload\n      0xffffffffffffffffffffffffffffffffffffffffffffffffffffffff\n      dup4\n      dup2\n      dup4\n      and\n      or\n      dup4\n      mstore\n      pop\n      pop\n      pop\n      pop\n        /* \"@openzeppelin/contracts/token/ERC20/utils/SafeERC20.sol\":1718:1737  _callOptionalReturn */\n      tag_193\n        /* \"@openzeppelin/contracts/token/ERC20/utils/SafeERC20.sol\":1718:1799  _callOptionalReturn(token, abi.encodeCall(token.transferFrom, (from, to, value))) */\n      jump\t// in\n    tag_190:\n        /* \"@openzeppelin/contracts/token/ERC20/utils/SafeERC20.sol\":1618:1806  function safeTransferFrom(IERC20 token, address from, address to, uint256 value) internal {... */\n      pop\n      pop\n      pop\n      pop\n      jump\t// out\n        /* \"@openzeppelin/contracts/token/ERC20/utils/SafeERC20.sol\":8370:9090  function _callOptionalReturn(IERC20 token, bytes memory data) private {... */\n    tag_193:\n        /* \"@openzeppelin/contracts/token/ERC20/utils/SafeERC20.sol\":8450:8468  uint256 returnSize */\n      0x00\n        /* \"@openzeppelin/contracts/token/ERC20/utils/SafeERC20.sol\":8478:8497  uint256 returnValue */\n      dup1\n        /* \"@openzeppelin/contracts/token/ERC20/utils/SafeERC20.sol\":8616:8620  0x20 */\n      0x20\n        /* \"@openzeppelin/contracts/token/ERC20/utils/SafeERC20.sol\":8613:8614  0 */\n      0x00\n        /* \"@openzeppelin/contracts/token/ERC20/utils/SafeERC20.sol\":8606:8610  data */\n      dup5\n        /* \"@openzeppelin/contracts/token/ERC20/utils/SafeERC20.sol\":8600:8611  mload(data) */\n      mload\n        /* \"@openzeppelin/contracts/token/ERC20/utils/SafeERC20.sol\":8593:8597  0x20 */\n      0x20\n        /* \"@openzeppelin/contracts/token/ERC20/utils/SafeERC20.sol\":8587:8591  data */\n      dup7\n        /* \"@openzeppelin/contracts/token/ERC20/utils/SafeERC20.sol\":8583:8598  add(data, 0x20) */\n      add\n        /* \"@openzeppelin/contracts/token/ERC20/utils/SafeERC20.sol\":8580:8581  0 */\n      0x00\n        /* \"@openzeppelin/contracts/token/ERC20/utils/SafeERC20.sol\":8573:8578  token */\n      dup9\n        /* \"@openzeppelin/contracts/token/ERC20/utils/SafeERC20.sol\":8566:8571  gas() */\n      gas\n        /* \"@openzeppelin/contracts/token/ERC20/utils/SafeERC20.sol\":8561:8621  call(gas(), token, 0, add(data, 0x20), mload(data), 0, 0x20) */\n      call\n        /* \"@openzeppelin/contracts/token/ERC20/utils/SafeERC20.sol\":8673:8680  success */\n      dup1\n        /* \"@openzeppelin/contracts/token/ERC20/utils/SafeERC20.sol\":8663:8839  if iszero(success) {... */\n      tag_195\n      jumpi\n        /* \"@openzeppelin/contracts/token/ERC20/utils/SafeERC20.sol\":8717:8721  0x40 */\n      0x40\n        /* \"@openzeppelin/contracts/token/ERC20/utils/SafeERC20.sol\":8711:8722  mload(0x40) */\n      mload\n        /* \"@openzeppelin/contracts/token/ERC20/utils/SafeERC20.sol\":8762:8778  returndatasize() */\n      returndatasize\n        /* \"@openzeppelin/contracts/token/ERC20/utils/SafeERC20.sol\":8759:8760  0 */\n      0x00\n        /* \"@openzeppelin/contracts/token/ERC20/utils/SafeERC20.sol\":8754:8757  ptr */\n      dup3\n        /* \"@openzeppelin/contracts/token/ERC20/utils/SafeERC20.sol\":8739:8779  returndatacopy(ptr, 0, returndatasize()) */\n      returndatacopy\n        /* \"@openzeppelin/contracts/token/ERC20/utils/SafeERC20.sol\":8808:8824  returndatasize() */\n      returndatasize\n        /* \"@openzeppelin/contracts/token/ERC20/utils/SafeERC20.sol\":8803:8806  ptr */\n      dup2\n        /* \"@openzeppelin/contracts/token/ERC20/utils/SafeERC20.sol\":8796:8825  revert(ptr, returndatasize()) */\n      revert\n        /* \"@openzeppelin/contracts/token/ERC20/utils/SafeERC20.sol\":8663:8839  if iszero(success) {... */\n    tag_195:\n        /* \"@openzeppelin/contracts/token/ERC20/utils/SafeERC20.sol\":8866:8882  returndatasize() */\n      returndatasize\n        /* \"@openzeppelin/contracts/token/ERC20/utils/SafeERC20.sol\":8852:8882  returnSize := returndatasize() */\n      swap3\n      pop\n        /* \"@openzeppelin/contracts/token/ERC20/utils/SafeERC20.sol\":8916:8917  0 */\n      0x00\n        /* \"@openzeppelin/contracts/token/ERC20/utils/SafeERC20.sol\":8910:8918  mload(0) */\n      mload\n        /* \"@openzeppelin/contracts/token/ERC20/utils/SafeERC20.sol\":8895:8918  returnValue := mload(0) */\n      swap2\n      pop\n        /* \"@openzeppelin/contracts/token/ERC20/utils/SafeERC20.sol\":8532:8928  {... */\n      pop\n        /* \"@openzeppelin/contracts/token/ERC20/utils/SafeERC20.sol\":8956:8957  0 */\n      0x00\n        /* \"@openzeppelin/contracts/token/ERC20/utils/SafeERC20.sol\":8942:8952  returnSize */\n      dup3\n        /* \"@openzeppelin/contracts/token/ERC20/utils/SafeERC20.sol\":8942:8957  returnSize == 0 */\n      eq\n        /* \"@openzeppelin/contracts/token/ERC20/utils/SafeERC20.sol\":8942:9010  returnSize == 0 ? address(token).code.length == 0 : returnValue != 1 */\n      tag_196\n      jumpi\n        /* \"@openzeppelin/contracts/token/ERC20/utils/SafeERC20.sol\":9009:9010  1 */\n      0x01\n        /* \"@openzeppelin/contracts/token/ERC20/utils/SafeERC20.sol\":8994:9005  returnValue */\n      dup2\n        /* \"@openzeppelin/contracts/token/ERC20/utils/SafeERC20.sol\":8994:9010  returnValue != 1 */\n      eq\n      iszero\n        /* \"@openzeppelin/contracts/token/ERC20/utils/SafeERC20.sol\":8942:9010  returnSize == 0 ? address(token).code.length == 0 : returnValue != 1 */\n      jump(tag_197)\n    tag_196:\n        /* \"@openzeppelin/contracts/token/ERC20/utils/SafeERC20.sol\":8990:8991  0 */\n      0x00\n        /* \"@openzeppelin/contracts/token/ERC20/utils/SafeERC20.sol\":8968:8973  token */\n      dup5\n        /* \"@openzeppelin/contracts/token/ERC20/utils/SafeERC20.sol\":8960:8986  address(token).code.length */\n      0xffffffffffffffffffffffffffffffffffffffff\n      and\n      extcodesize\n        /* \"@openzeppelin/contracts/token/ERC20/utils/SafeERC20.sol\":8960:8991  address(token).code.length == 0 */\n      eq\n        /* \"@openzeppelin/contracts/token/ERC20/utils/SafeERC20.sol\":8942:9010  returnSize == 0 ? address(token).code.length == 0 : returnValue != 1 */\n    tag_197:\n        /* \"@openzeppelin/contracts/token/ERC20/utils/SafeERC20.sol\":8938:9084  if (returnSize == 0 ? address(token).code.length == 0 : returnValue != 1) {... */\n      iszero\n      tag_198\n      jumpi\n        /* \"@openzeppelin/contracts/token/ERC20/utils/SafeERC20.sol\":9066:9071  token */\n      dup4\n        /* \"@openzeppelin/contracts/token/ERC20/utils/SafeERC20.sol\":9033:9073  SafeERC20FailedOperation(address(token)) */\n      mload(0x40)\n      0x5274afe700000000000000000000000000000000000000000000000000000000\n      dup2\n      mstore\n      0x04\n      add\n      tag_199\n      swap2\n      swap1\n      tag_60\n      jump\t// in\n    tag_199:\n      mload(0x40)\n      dup1\n      swap2\n      sub\n      swap1\n      revert\n        /* \"@openzeppelin/contracts/token/ERC20/utils/SafeERC20.sol\":8938:9084  if (returnSize == 0 ? address(token).code.length == 0 : returnValue != 1) {... */\n    tag_198:\n        /* \"@openzeppelin/contracts/token/ERC20/utils/SafeERC20.sol\":8440:9090  {... */\n      pop\n      pop\n        /* \"@openzeppelin/contracts/token/ERC20/utils/SafeERC20.sol\":8370:9090  function _callOptionalReturn(IERC20 token, bytes memory data) private {... */\n      pop\n      pop\n      jump\t// out\n    tag_152:\n      mload(0x40)\n      dup1\n      0x40\n      add\n      0x40\n      mstore\n      dup1\n      0x00\n      dup2\n      mstore\n      0x20\n      add\n      0x00\n      dup2\n      mstore\n      pop\n      swap1\n      jump\t// out\n    tag_162:\n      mload(0x40)\n      dup1\n      0x60\n      add\n      0x40\n      mstore\n      dup1\n      0x00\n      dup1\n      not\n      and\n      dup2\n      mstore\n      0x20\n      add\n      and(0xffffffffffffffff, 0x00)\n      dup2\n      mstore\n      0x20\n      add\n      tag_200\n      tag_152\n      jump\t// in\n    tag_200:\n      dup2\n      mstore\n      pop\n      swap1\n      jump\t// out\n        /* \"#utility.yul\":7:82   */\n    tag_201:\n        /* \"#utility.yul\":40:46   */\n      0x00\n        /* \"#utility.yul\":73:75   */\n      0x40\n        /* \"#utility.yul\":67:76   */\n      mload\n        /* \"#utility.yul\":57:76   */\n      swap1\n      pop\n        /* \"#utility.yul\":7:82   */\n      swap1\n      jump\t// out\n        /* \"#utility.yul\":88:205   */\n    tag_202:\n        /* \"#utility.yul\":197:198   */\n      0x00\n        /* \"#utility.yul\":194:195   */\n      dup1\n        /* \"#utility.yul\":187:199   */\n      revert\n        /* \"#utility.yul\":211:328   */\n    tag_203:\n        /* \"#utility.yul\":320:321   */\n      0x00\n        /* \"#utility.yul\":317:318   */\n      dup1\n        /* \"#utility.yul\":310:322   */\n      revert\n        /* \"#utility.yul\":334:451   */\n    tag_204:\n        /* \"#utility.yul\":443:444   */\n      0x00\n        /* \"#utility.yul\":440:441   */\n      dup1\n        /* \"#utility.yul\":433:445   */\n      revert\n        /* \"#utility.yul\":478:706   */\n    tag_205:\n        /* \"#utility.yul\":548:553   */\n      0x00\n        /* \"#utility.yul\":589:591   */\n      0x60\n        /* \"#utility.yul\":580:586   */\n      dup3\n        /* \"#utility.yul\":575:578   */\n      dup5\n        /* \"#utility.yul\":571:587   */\n      sub\n        /* \"#utility.yul\":567:592   */\n      slt\n        /* \"#utility.yul\":564:676   */\n      iszero\n      tag_271\n      jumpi\n        /* \"#utility.yul\":595:674   */\n      tag_272\n      tag_204\n      jump\t// in\n    tag_272:\n        /* \"#utility.yul\":564:676   */\n    tag_271:\n        /* \"#utility.yul\":694:700   */\n      dup2\n        /* \"#utility.yul\":685:700   */\n      swap1\n      pop\n        /* \"#utility.yul\":478:706   */\n      swap3\n      swap2\n      pop\n      pop\n      jump\t// out\n        /* \"#utility.yul\":712:789   */\n    tag_206:\n        /* \"#utility.yul\":749:756   */\n      0x00\n        /* \"#utility.yul\":778:783   */\n      dup2\n        /* \"#utility.yul\":767:783   */\n      swap1\n      pop\n        /* \"#utility.yul\":712:789   */\n      swap2\n      swap1\n      pop\n      jump\t// out\n        /* \"#utility.yul\":795:917   */\n    tag_207:\n        /* \"#utility.yul\":868:892   */\n      tag_275\n        /* \"#utility.yul\":886:891   */\n      dup2\n        /* \"#utility.yul\":868:892   */\n      tag_206\n      jump\t// in\n    tag_275:\n        /* \"#utility.yul\":861:866   */\n      dup2\n        /* \"#utility.yul\":858:893   */\n      eq\n        /* \"#utility.yul\":848:911   */\n      tag_276\n      jumpi\n        /* \"#utility.yul\":907:908   */\n      0x00\n        /* \"#utility.yul\":904:905   */\n      dup1\n        /* \"#utility.yul\":897:909   */\n      revert\n        /* \"#utility.yul\":848:911   */\n    tag_276:\n        /* \"#utility.yul\":795:917   */\n      pop\n      jump\t// out\n        /* \"#utility.yul\":923:1062   */\n    tag_208:\n        /* \"#utility.yul\":969:974   */\n      0x00\n        /* \"#utility.yul\":1007:1013   */\n      dup2\n        /* \"#utility.yul\":994:1014   */\n      calldataload\n        /* \"#utility.yul\":985:1014   */\n      swap1\n      pop\n        /* \"#utility.yul\":1023:1056   */\n      tag_278\n        /* \"#utility.yul\":1050:1055   */\n      dup2\n        /* \"#utility.yul\":1023:1056   */\n      tag_207\n      jump\t// in\n    tag_278:\n        /* \"#utility.yul\":923:1062   */\n      swap3\n      swap2\n      pop\n      pop\n      jump\t// out\n        /* \"#utility.yul\":1068:1185   */\n    tag_209:\n        /* \"#utility.yul\":1177:1178   */\n      0x00\n        /* \"#utility.yul\":1174:1175   */\n      dup1\n        /* \"#utility.yul\":1167:1179   */\n      revert\n        /* \"#utility.yul\":1191:1308   */\n    tag_210:\n        /* \"#utility.yul\":1300:1301   */\n      0x00\n        /* \"#utility.yul\":1297:1298   */\n      dup1\n        /* \"#utility.yul\":1290:1302   */\n      revert\n        /* \"#utility.yul\":1314:1431   */\n    tag_211:\n        /* \"#utility.yul\":1423:1424   */\n      0x00\n        /* \"#utility.yul\":1420:1421   */\n      dup1\n        /* \"#utility.yul\":1413:1425   */\n      revert\n        /* \"#utility.yul\":1450:2002   */\n    tag_212:\n        /* \"#utility.yul\":1507:1515   */\n      0x00\n        /* \"#utility.yul\":1517:1523   */\n      dup1\n        /* \"#utility.yul\":1567:1570   */\n      dup4\n        /* \"#utility.yul\":1560:1564   */\n      0x1f\n        /* \"#utility.yul\":1552:1558   */\n      dup5\n        /* \"#utility.yul\":1548:1565   */\n      add\n        /* \"#utility.yul\":1544:1571   */\n      slt\n        /* \"#utility.yul\":1534:1656   */\n      tag_283\n      jumpi\n        /* \"#utility.yul\":1575:1654   */\n      tag_284\n      tag_209\n      jump\t// in\n    tag_284:\n        /* \"#utility.yul\":1534:1656   */\n    tag_283:\n        /* \"#utility.yul\":1688:1694   */\n      dup3\n        /* \"#utility.yul\":1675:1695   */\n      calldataload\n        /* \"#utility.yul\":1665:1695   */\n      swap1\n      pop\n        /* \"#utility.yul\":1718:1736   */\n      0xffffffffffffffff\n        /* \"#utility.yul\":1710:1716   */\n      dup2\n        /* \"#utility.yul\":1707:1737   */\n      gt\n        /* \"#utility.yul\":1704:1821   */\n      iszero\n      tag_285\n      jumpi\n        /* \"#utility.yul\":1740:1819   */\n      tag_286\n      tag_210\n      jump\t// in\n    tag_286:\n        /* \"#utility.yul\":1704:1821   */\n    tag_285:\n        /* \"#utility.yul\":1854:1858   */\n      0x20\n        /* \"#utility.yul\":1846:1852   */\n      dup4\n        /* \"#utility.yul\":1842:1859   */\n      add\n        /* \"#utility.yul\":1830:1859   */\n      swap2\n      pop\n        /* \"#utility.yul\":1908:1911   */\n      dup4\n        /* \"#utility.yul\":1900:1904   */\n      0x01\n        /* \"#utility.yul\":1892:1898   */\n      dup3\n        /* \"#utility.yul\":1888:1905   */\n      mul\n        /* \"#utility.yul\":1878:1886   */\n      dup4\n        /* \"#utility.yul\":1874:1906   */\n      add\n        /* \"#utility.yul\":1871:1912   */\n      gt\n        /* \"#utility.yul\":1868:1996   */\n      iszero\n      tag_287\n      jumpi\n        /* \"#utility.yul\":1915:1994   */\n      tag_288\n      tag_211\n      jump\t// in\n    tag_288:\n        /* \"#utility.yul\":1868:1996   */\n    tag_287:\n        /* \"#utility.yul\":1450:2002   */\n      swap3\n      pop\n      swap3\n      swap1\n      pop\n      jump\t// out\n        /* \"#utility.yul\":2008:2134   */\n    tag_213:\n        /* \"#utility.yul\":2045:2052   */\n      0x00\n        /* \"#utility.yul\":2085:2127   */\n      0xffffffffffffffffffffffffffffffffffffffff\n        /* \"#utility.yul\":2078:2083   */\n      dup3\n        /* \"#utility.yul\":2074:2128   */\n      and\n        /* \"#utility.yul\":2063:2128   */\n      swap1\n      pop\n        /* \"#utility.yul\":2008:2134   */\n      swap2\n      swap1\n      pop\n      jump\t// out\n        /* \"#utility.yul\":2140:2236   */\n    tag_214:\n        /* \"#utility.yul\":2177:2184   */\n      0x00\n        /* \"#utility.yul\":2206:2230   */\n      tag_291\n        /* \"#utility.yul\":2224:2229   */\n      dup3\n        /* \"#utility.yul\":2206:2230   */\n      tag_213\n      jump\t// in\n    tag_291:\n        /* \"#utility.yul\":2195:2230   */\n      swap1\n      pop\n        /* \"#utility.yul\":2140:2236   */\n      swap2\n      swap1\n      pop\n      jump\t// out\n        /* \"#utility.yul\":2242:2364   */\n    tag_215:\n        /* \"#utility.yul\":2315:2339   */\n      tag_293\n        /* \"#utility.yul\":2333:2338   */\n      dup2\n        /* \"#utility.yul\":2315:2339   */\n      tag_214\n      jump\t// in\n    tag_293:\n        /* \"#utility.yul\":2308:2313   */\n      dup2\n        /* \"#utility.yul\":2305:2340   */\n      eq\n        /* \"#utility.yul\":2295:2358   */\n      tag_294\n      jumpi\n        /* \"#utility.yul\":2354:2355   */\n      0x00\n        /* \"#utility.yul\":2351:2352   */\n      dup1\n        /* \"#utility.yul\":2344:2356   */\n      revert\n        /* \"#utility.yul\":2295:2358   */\n    tag_294:\n        /* \"#utility.yul\":2242:2364   */\n      pop\n      jump\t// out\n        /* \"#utility.yul\":2370:2509   */\n    tag_216:\n        /* \"#utility.yul\":2416:2421   */\n      0x00\n        /* \"#utility.yul\":2454:2460   */\n      dup2\n        /* \"#utility.yul\":2441:2461   */\n      calldataload\n        /* \"#utility.yul\":2432:2461   */\n      swap1\n      pop\n        /* \"#utility.yul\":2470:2503   */\n      tag_296\n        /* \"#utility.yul\":2497:2502   */\n      dup2\n        /* \"#utility.yul\":2470:2503   */\n      tag_215\n      jump\t// in\n    tag_296:\n        /* \"#utility.yul\":2370:2509   */\n      swap3\n      swap2\n      pop\n      pop\n      jump\t// out\n        /* \"#utility.yul\":2515:3872   */\n    tag_19:\n        /* \"#utility.yul\":2656:2662   */\n      0x00\n        /* \"#utility.yul\":2664:2670   */\n      dup1\n        /* \"#utility.yul\":2672:2678   */\n      0x00\n        /* \"#utility.yul\":2680:2686   */\n      dup1\n        /* \"#utility.yul\":2688:2694   */\n      0x00\n        /* \"#utility.yul\":2696:2702   */\n      dup1\n        /* \"#utility.yul\":2704:2710   */\n      0x00\n        /* \"#utility.yul\":2753:2756   */\n      0xe0\n        /* \"#utility.yul\":2741:2750   */\n      dup9\n        /* \"#utility.yul\":2732:2739   */\n      dup11\n        /* \"#utility.yul\":2728:2751   */\n      sub\n        /* \"#utility.yul\":2724:2757   */\n      slt\n        /* \"#utility.yul\":2721:2841   */\n      iszero\n      tag_298\n      jumpi\n        /* \"#utility.yul\":2760:2839   */\n      tag_299\n      tag_202\n      jump\t// in\n    tag_299:\n        /* \"#utility.yul\":2721:2841   */\n    tag_298:\n        /* \"#utility.yul\":2880:2881   */\n      0x00\n        /* \"#utility.yul\":2905:2982   */\n      tag_300\n        /* \"#utility.yul\":2974:2981   */\n      dup11\n        /* \"#utility.yul\":2965:2971   */\n      dup3\n        /* \"#utility.yul\":2954:2963   */\n      dup12\n        /* \"#utility.yul\":2950:2972   */\n      add\n        /* \"#utility.yul\":2905:2982   */\n      tag_205\n      jump\t// in\n    tag_300:\n        /* \"#utility.yul\":2895:2982   */\n      swap8\n      pop\n        /* \"#utility.yul\":2851:2992   */\n      pop\n        /* \"#utility.yul\":3031:3033   */\n      0x60\n        /* \"#utility.yul\":3057:3110   */\n      tag_301\n        /* \"#utility.yul\":3102:3109   */\n      dup11\n        /* \"#utility.yul\":3093:3099   */\n      dup3\n        /* \"#utility.yul\":3082:3091   */\n      dup12\n        /* \"#utility.yul\":3078:3100   */\n      add\n        /* \"#utility.yul\":3057:3110   */\n      tag_208\n      jump\t// in\n    tag_301:\n        /* \"#utility.yul\":3047:3110   */\n      swap7\n      pop\n        /* \"#utility.yul\":3002:3120   */\n      pop\n        /* \"#utility.yul\":3187:3190   */\n      0x80\n        /* \"#utility.yul\":3176:3185   */\n      dup9\n        /* \"#utility.yul\":3172:3191   */\n      add\n        /* \"#utility.yul\":3159:3192   */\n      calldataload\n        /* \"#utility.yul\":3219:3237   */\n      0xffffffffffffffff\n        /* \"#utility.yul\":3211:3217   */\n      dup2\n        /* \"#utility.yul\":3208:3238   */\n      gt\n        /* \"#utility.yul\":3205:3322   */\n      iszero\n      tag_302\n      jumpi\n        /* \"#utility.yul\":3241:3320   */\n      tag_303\n      tag_203\n      jump\t// in\n    tag_303:\n        /* \"#utility.yul\":3205:3322   */\n    tag_302:\n        /* \"#utility.yul\":3354:3418   */\n      tag_304\n        /* \"#utility.yul\":3410:3417   */\n      dup11\n        /* \"#utility.yul\":3401:3407   */\n      dup3\n        /* \"#utility.yul\":3390:3399   */\n      dup12\n        /* \"#utility.yul\":3386:3408   */\n      add\n        /* \"#utility.yul\":3354:3418   */\n      tag_212\n      jump\t// in\n    tag_304:\n        /* \"#utility.yul\":3336:3418   */\n      swap6\n      pop\n      swap6\n      pop\n        /* \"#utility.yul\":3130:3428   */\n      pop\n        /* \"#utility.yul\":3467:3470   */\n      0xa0\n        /* \"#utility.yul\":3494:3547   */\n      tag_305\n        /* \"#utility.yul\":3539:3546   */\n      dup11\n        /* \"#utility.yul\":3530:3536   */\n      dup3\n        /* \"#utility.yul\":3519:3528   */\n      dup12\n        /* \"#utility.yul\":3515:3537   */\n      add\n        /* \"#utility.yul\":3494:3547   */\n      tag_216\n      jump\t// in\n    tag_305:\n        /* \"#utility.yul\":3484:3547   */\n      swap4\n      pop\n        /* \"#utility.yul\":3438:3557   */\n      pop\n        /* \"#utility.yul\":3624:3627   */\n      0xc0\n        /* \"#utility.yul\":3613:3622   */\n      dup9\n        /* \"#utility.yul\":3609:3628   */\n      add\n        /* \"#utility.yul\":3596:3629   */\n      calldataload\n        /* \"#utility.yul\":3656:3674   */\n      0xffffffffffffffff\n        /* \"#utility.yul\":3648:3654   */\n      dup2\n        /* \"#utility.yul\":3645:3675   */\n      gt\n        /* \"#utility.yul\":3642:3759   */\n      iszero\n      tag_306\n      jumpi\n        /* \"#utility.yul\":3678:3757   */\n      tag_307\n      tag_203\n      jump\t// in\n    tag_307:\n        /* \"#utility.yul\":3642:3759   */\n    tag_306:\n        /* \"#utility.yul\":3791:3855   */\n      tag_308\n        /* \"#utility.yul\":3847:3854   */\n      dup11\n        /* \"#utility.yul\":3838:3844   */\n      dup3\n        /* \"#utility.yul\":3827:3836   */\n      dup12\n        /* \"#utility.yul\":3823:3845   */\n      add\n        /* \"#utility.yul\":3791:3855   */\n      tag_212\n      jump\t// in\n    tag_308:\n        /* \"#utility.yul\":3773:3855   */\n      swap3\n      pop\n      swap3\n      pop\n        /* \"#utility.yul\":3567:3865   */\n      pop\n        /* \"#utility.yul\":2515:3872   */\n      swap3\n      swap6\n      swap9\n      swap2\n      swap5\n      swap8\n      pop\n      swap3\n      swap6\n      pop\n      jump\t// out\n        /* \"#utility.yul\":3878:3979   */\n    tag_217:\n        /* \"#utility.yul\":3914:3921   */\n      0x00\n        /* \"#utility.yul\":3954:3972   */\n      0xffffffffffffffff\n        /* \"#utility.yul\":3947:3952   */\n      dup3\n        /* \"#utility.yul\":3943:3973   */\n      and\n        /* \"#utility.yul\":3932:3973   */\n      swap1\n      pop\n        /* \"#utility.yul\":3878:3979   */\n      swap2\n      swap1\n      pop\n      jump\t// out\n        /* \"#utility.yul\":3985:4100   */\n    tag_218:\n        /* \"#utility.yul\":4070:4093   */\n      tag_311\n        /* \"#utility.yul\":4087:4092   */\n      dup2\n        /* \"#utility.yul\":4070:4093   */\n      tag_217\n      jump\t// in\n    tag_311:\n        /* \"#utility.yul\":4065:4068   */\n      dup3\n        /* \"#utility.yul\":4058:4094   */\n      mstore\n        /* \"#utility.yul\":3985:4100   */\n      pop\n      pop\n      jump\t// out\n        /* \"#utility.yul\":4106:4430   */\n    tag_25:\n        /* \"#utility.yul\":4223:4227   */\n      0x00\n        /* \"#utility.yul\":4261:4263   */\n      0x40\n        /* \"#utility.yul\":4250:4259   */\n      dup3\n        /* \"#utility.yul\":4246:4264   */\n      add\n        /* \"#utility.yul\":4238:4264   */\n      swap1\n      pop\n        /* \"#utility.yul\":4274:4343   */\n      tag_313\n        /* \"#utility.yul\":4340:4341   */\n      0x00\n        /* \"#utility.yul\":4329:4338   */\n      dup4\n        /* \"#utility.yul\":4325:4342   */\n      add\n        /* \"#utility.yul\":4316:4322   */\n      dup6\n        /* \"#utility.yul\":4274:4343   */\n      tag_218\n      jump\t// in\n    tag_313:\n        /* \"#utility.yul\":4353:4423   */\n      tag_314\n        /* \"#utility.yul\":4419:4421   */\n      0x20\n        /* \"#utility.yul\":4408:4417   */\n      dup4\n        /* \"#utility.yul\":4404:4422   */\n      add\n        /* \"#utility.yul\":4395:4401   */\n      dup5\n        /* \"#utility.yul\":4353:4423   */\n      tag_218\n      jump\t// in\n    tag_314:\n        /* \"#utility.yul\":4106:4430   */\n      swap4\n      swap3\n      pop\n      pop\n      pop\n      jump\t// out\n        /* \"#utility.yul\":4436:4529   */\n    tag_219:\n        /* \"#utility.yul\":4472:4479   */\n      0x00\n        /* \"#utility.yul\":4512:4522   */\n      0xffffffff\n        /* \"#utility.yul\":4505:4510   */\n      dup3\n        /* \"#utility.yul\":4501:4523   */\n      and\n        /* \"#utility.yul\":4490:4523   */\n      swap1\n      pop\n        /* \"#utility.yul\":4436:4529   */\n      swap2\n      swap1\n      pop\n      jump\t// out\n        /* \"#utility.yul\":4535:4655   */\n    tag_220:\n        /* \"#utility.yul\":4607:4630   */\n      tag_317\n        /* \"#utility.yul\":4624:4629   */\n      dup2\n        /* \"#utility.yul\":4607:4630   */\n      tag_219\n      jump\t// in\n    tag_317:\n        /* \"#utility.yul\":4600:4605   */\n      dup2\n        /* \"#utility.yul\":4597:4631   */\n      eq\n        /* \"#utility.yul\":4587:4649   */\n      tag_318\n      jumpi\n        /* \"#utility.yul\":4645:4646   */\n      0x00\n        /* \"#utility.yul\":4642:4643   */\n      dup1\n        /* \"#utility.yul\":4635:4647   */\n      revert\n        /* \"#utility.yul\":4587:4649   */\n    tag_318:\n        /* \"#utility.yul\":4535:4655   */\n      pop\n      jump\t// out\n        /* \"#utility.yul\":4661:4798   */\n    tag_221:\n        /* \"#utility.yul\":4706:4711   */\n      0x00\n        /* \"#utility.yul\":4744:4750   */\n      dup2\n        /* \"#utility.yul\":4731:4751   */\n      calldataload\n        /* \"#utility.yul\":4722:4751   */\n      swap1\n      pop\n        /* \"#utility.yul\":4760:4792   */\n      tag_320\n        /* \"#utility.yul\":4786:4791   */\n      dup2\n        /* \"#utility.yul\":4760:4792   */\n      tag_220\n      jump\t// in\n    tag_320:\n        /* \"#utility.yul\":4661:4798   */\n      swap3\n      swap2\n      pop\n      pop\n      jump\t// out\n        /* \"#utility.yul\":4804:5276   */\n    tag_29:\n        /* \"#utility.yul\":4871:4877   */\n      0x00\n        /* \"#utility.yul\":4879:4885   */\n      dup1\n        /* \"#utility.yul\":4928:4930   */\n      0x40\n        /* \"#utility.yul\":4916:4925   */\n      dup4\n        /* \"#utility.yul\":4907:4914   */\n      dup6\n        /* \"#utility.yul\":4903:4926   */\n      sub\n        /* \"#utility.yul\":4899:4931   */\n      slt\n        /* \"#utility.yul\":4896:5015   */\n      iszero\n      tag_322\n      jumpi\n        /* \"#utility.yul\":4934:5013   */\n      tag_323\n      tag_202\n      jump\t// in\n    tag_323:\n        /* \"#utility.yul\":4896:5015   */\n    tag_322:\n        /* \"#utility.yul\":5054:5055   */\n      0x00\n        /* \"#utility.yul\":5079:5131   */\n      tag_324\n        /* \"#utility.yul\":5123:5130   */\n      dup6\n        /* \"#utility.yul\":5114:5120   */\n      dup3\n        /* \"#utility.yul\":5103:5112   */\n      dup7\n        /* \"#utility.yul\":5099:5121   */\n      add\n        /* \"#utility.yul\":5079:5131   */\n      tag_221\n      jump\t// in\n    tag_324:\n        /* \"#utility.yul\":5069:5131   */\n      swap3\n      pop\n        /* \"#utility.yul\":5025:5141   */\n      pop\n        /* \"#utility.yul\":5180:5182   */\n      0x20\n        /* \"#utility.yul\":5206:5259   */\n      tag_325\n        /* \"#utility.yul\":5251:5258   */\n      dup6\n        /* \"#utility.yul\":5242:5248   */\n      dup3\n        /* \"#utility.yul\":5231:5240   */\n      dup7\n        /* \"#utility.yul\":5227:5249   */\n      add\n        /* \"#utility.yul\":5206:5259   */\n      tag_208\n      jump\t// in\n    tag_325:\n        /* \"#utility.yul\":5196:5259   */\n      swap2\n      pop\n        /* \"#utility.yul\":5151:5269   */\n      pop\n        /* \"#utility.yul\":4804:5276   */\n      swap3\n      pop\n      swap3\n      swap1\n      pop\n      jump\t// out\n        /* \"#utility.yul\":5296:5849   */\n    tag_222:\n        /* \"#utility.yul\":5354:5362   */\n      0x00\n        /* \"#utility.yul\":5364:5370   */\n      dup1\n        /* \"#utility.yul\":5414:5417   */\n      dup4\n        /* \"#utility.yul\":5407:5411   */\n      0x1f\n        /* \"#utility.yul\":5399:5405   */\n      dup5\n        /* \"#utility.yul\":5395:5412   */\n      add\n        /* \"#utility.yul\":5391:5418   */\n      slt\n        /* \"#utility.yul\":5381:5503   */\n      tag_327\n      jumpi\n        /* \"#utility.yul\":5422:5501   */\n      tag_328\n      tag_209\n      jump\t// in\n    tag_328:\n        /* \"#utility.yul\":5381:5503   */\n    tag_327:\n        /* \"#utility.yul\":5535:5541   */\n      dup3\n        /* \"#utility.yul\":5522:5542   */\n      calldataload\n        /* \"#utility.yul\":5512:5542   */\n      swap1\n      pop\n        /* \"#utility.yul\":5565:5583   */\n      0xffffffffffffffff\n        /* \"#utility.yul\":5557:5563   */\n      dup2\n        /* \"#utility.yul\":5554:5584   */\n      gt\n        /* \"#utility.yul\":5551:5668   */\n      iszero\n      tag_329\n      jumpi\n        /* \"#utility.yul\":5587:5666   */\n      tag_330\n      tag_210\n      jump\t// in\n    tag_330:\n        /* \"#utility.yul\":5551:5668   */\n    tag_329:\n        /* \"#utility.yul\":5701:5705   */\n      0x20\n        /* \"#utility.yul\":5693:5699   */\n      dup4\n        /* \"#utility.yul\":5689:5706   */\n      add\n        /* \"#utility.yul\":5677:5706   */\n      swap2\n      pop\n        /* \"#utility.yul\":5755:5758   */\n      dup4\n        /* \"#utility.yul\":5747:5751   */\n      0x01\n        /* \"#utility.yul\":5739:5745   */\n      dup3\n        /* \"#utility.yul\":5735:5752   */\n      mul\n        /* \"#utility.yul\":5725:5733   */\n      dup4\n        /* \"#utility.yul\":5721:5753   */\n      add\n        /* \"#utility.yul\":5718:5759   */\n      gt\n        /* \"#utility.yul\":5715:5843   */\n      iszero\n      tag_331\n      jumpi\n        /* \"#utility.yul\":5762:5841   */\n      tag_332\n      tag_211\n      jump\t// in\n    tag_332:\n        /* \"#utility.yul\":5715:5843   */\n    tag_331:\n        /* \"#utility.yul\":5296:5849   */\n      swap3\n      pop\n      swap3\n      swap1\n      pop\n      jump\t// out\n        /* \"#utility.yul\":5855:6870   */\n    tag_33:\n        /* \"#utility.yul\":5954:5960   */\n      0x00\n        /* \"#utility.yul\":5962:5968   */\n      dup1\n        /* \"#utility.yul\":5970:5976   */\n      0x00\n        /* \"#utility.yul\":5978:5984   */\n      dup1\n        /* \"#utility.yul\":5986:5992   */\n      0x00\n        /* \"#utility.yul\":6035:6037   */\n      0x60\n        /* \"#utility.yul\":6023:6032   */\n      dup7\n        /* \"#utility.yul\":6014:6021   */\n      dup9\n        /* \"#utility.yul\":6010:6033   */\n      sub\n        /* \"#utility.yul\":6006:6038   */\n      slt\n        /* \"#utility.yul\":6003:6122   */\n      iszero\n      tag_334\n      jumpi\n        /* \"#utility.yul\":6041:6120   */\n      tag_335\n      tag_202\n      jump\t// in\n    tag_335:\n        /* \"#utility.yul\":6003:6122   */\n    tag_334:\n        /* \"#utility.yul\":6161:6162   */\n      0x00\n        /* \"#utility.yul\":6186:6238   */\n      tag_336\n        /* \"#utility.yul\":6230:6237   */\n      dup9\n        /* \"#utility.yul\":6221:6227   */\n      dup3\n        /* \"#utility.yul\":6210:6219   */\n      dup10\n        /* \"#utility.yul\":6206:6228   */\n      add\n        /* \"#utility.yul\":6186:6238   */\n      tag_221\n      jump\t// in\n    tag_336:\n        /* \"#utility.yul\":6176:6238   */\n      swap6\n      pop\n        /* \"#utility.yul\":6132:6248   */\n      pop\n        /* \"#utility.yul\":6315:6317   */\n      0x20\n        /* \"#utility.yul\":6304:6313   */\n      dup7\n        /* \"#utility.yul\":6300:6318   */\n      add\n        /* \"#utility.yul\":6287:6319   */\n      calldataload\n        /* \"#utility.yul\":6346:6364   */\n      0xffffffffffffffff\n        /* \"#utility.yul\":6338:6344   */\n      dup2\n        /* \"#utility.yul\":6335:6365   */\n      gt\n        /* \"#utility.yul\":6332:6449   */\n      iszero\n      tag_337\n      jumpi\n        /* \"#utility.yul\":6368:6447   */\n      tag_338\n      tag_203\n      jump\t// in\n    tag_338:\n        /* \"#utility.yul\":6332:6449   */\n    tag_337:\n        /* \"#utility.yul\":6481:6546   */\n      tag_339\n        /* \"#utility.yul\":6538:6545   */\n      dup9\n        /* \"#utility.yul\":6529:6535   */\n      dup3\n        /* \"#utility.yul\":6518:6527   */\n      dup10\n        /* \"#utility.yul\":6514:6536   */\n      add\n        /* \"#utility.yul\":6481:6546   */\n      tag_222\n      jump\t// in\n    tag_339:\n        /* \"#utility.yul\":6463:6546   */\n      swap5\n      pop\n      swap5\n      pop\n        /* \"#utility.yul\":6258:6556   */\n      pop\n        /* \"#utility.yul\":6623:6625   */\n      0x40\n        /* \"#utility.yul\":6612:6621   */\n      dup7\n        /* \"#utility.yul\":6608:6626   */\n      add\n        /* \"#utility.yul\":6595:6627   */\n      calldataload\n        /* \"#utility.yul\":6654:6672   */\n      0xffffffffffffffff\n        /* \"#utility.yul\":6646:6652   */\n      dup2\n        /* \"#utility.yul\":6643:6673   */\n      gt\n        /* \"#utility.yul\":6640:6757   */\n      iszero\n      tag_340\n      jumpi\n        /* \"#utility.yul\":6676:6755   */\n      tag_341\n      tag_203\n      jump\t// in\n    tag_341:\n        /* \"#utility.yul\":6640:6757   */\n    tag_340:\n        /* \"#utility.yul\":6789:6853   */\n      tag_342\n        /* \"#utility.yul\":6845:6852   */\n      dup9\n        /* \"#utility.yul\":6836:6842   */\n      dup3\n        /* \"#utility.yul\":6825:6834   */\n      dup10\n        /* \"#utility.yul\":6821:6843   */\n      add\n        /* \"#utility.yul\":6789:6853   */\n      tag_212\n      jump\t// in\n    tag_342:\n        /* \"#utility.yul\":6771:6853   */\n      swap3\n      pop\n      swap3\n      pop\n        /* \"#utility.yul\":6566:6863   */\n      pop\n        /* \"#utility.yul\":5855:6870   */\n      swap3\n      swap6\n      pop\n      swap3\n      swap6\n      swap1\n      swap4\n      pop\n      jump\t// out\n        /* \"#utility.yul\":6876:6936   */\n    tag_223:\n        /* \"#utility.yul\":6904:6907   */\n      0x00\n        /* \"#utility.yul\":6925:6930   */\n      dup2\n        /* \"#utility.yul\":6918:6930   */\n      swap1\n      pop\n        /* \"#utility.yul\":6876:6936   */\n      swap2\n      swap1\n      pop\n      jump\t// out\n        /* \"#utility.yul\":6942:7084   */\n    tag_224:\n        /* \"#utility.yul\":6992:7001   */\n      0x00\n        /* \"#utility.yul\":7025:7078   */\n      tag_345\n        /* \"#utility.yul\":7043:7077   */\n      tag_346\n        /* \"#utility.yul\":7052:7076   */\n      tag_347\n        /* \"#utility.yul\":7070:7075   */\n      dup5\n        /* \"#utility.yul\":7052:7076   */\n      tag_213\n      jump\t// in\n    tag_347:\n        /* \"#utility.yul\":7043:7077   */\n      tag_223\n      jump\t// in\n    tag_346:\n        /* \"#utility.yul\":7025:7078   */\n      tag_213\n      jump\t// in\n    tag_345:\n        /* \"#utility.yul\":7012:7078   */\n      swap1\n      pop\n        /* \"#utility.yul\":6942:7084   */\n      swap2\n      swap1\n      pop\n      jump\t// out\n        /* \"#utility.yul\":7090:7216   */\n    tag_225:\n        /* \"#utility.yul\":7140:7149   */\n      0x00\n        /* \"#utility.yul\":7173:7210   */\n      tag_349\n        /* \"#utility.yul\":7204:7209   */\n      dup3\n        /* \"#utility.yul\":7173:7210   */\n      tag_224\n      jump\t// in\n    tag_349:\n        /* \"#utility.yul\":7160:7210   */\n      swap1\n      pop\n        /* \"#utility.yul\":7090:7216   */\n      swap2\n      swap1\n      pop\n      jump\t// out\n        /* \"#utility.yul\":7222:7376   */\n    tag_226:\n        /* \"#utility.yul\":7300:7309   */\n      0x00\n        /* \"#utility.yul\":7333:7370   */\n      tag_351\n        /* \"#utility.yul\":7364:7369   */\n      dup3\n        /* \"#utility.yul\":7333:7370   */\n      tag_225\n      jump\t// in\n    tag_351:\n        /* \"#utility.yul\":7320:7370   */\n      swap1\n      pop\n        /* \"#utility.yul\":7222:7376   */\n      swap2\n      swap1\n      pop\n      jump\t// out\n        /* \"#utility.yul\":7382:7569   */\n    tag_227:\n        /* \"#utility.yul\":7497:7562   */\n      tag_353\n        /* \"#utility.yul\":7556:7561   */\n      dup2\n        /* \"#utility.yul\":7497:7562   */\n      tag_226\n      jump\t// in\n    tag_353:\n        /* \"#utility.yul\":7492:7495   */\n      dup3\n        /* \"#utility.yul\":7485:7563   */\n      mstore\n        /* \"#utility.yul\":7382:7569   */\n      pop\n      pop\n      jump\t// out\n        /* \"#utility.yul\":7575:7853   */\n    tag_39:\n        /* \"#utility.yul\":7696:7700   */\n      0x00\n        /* \"#utility.yul\":7734:7736   */\n      0x20\n        /* \"#utility.yul\":7723:7732   */\n      dup3\n        /* \"#utility.yul\":7719:7737   */\n      add\n        /* \"#utility.yul\":7711:7737   */\n      swap1\n      pop\n        /* \"#utility.yul\":7747:7846   */\n      tag_355\n        /* \"#utility.yul\":7843:7844   */\n      0x00\n        /* \"#utility.yul\":7832:7841   */\n      dup4\n        /* \"#utility.yul\":7828:7845   */\n      add\n        /* \"#utility.yul\":7819:7825   */\n      dup5\n        /* \"#utility.yul\":7747:7846   */\n      tag_227\n      jump\t// in\n    tag_355:\n        /* \"#utility.yul\":7575:7853   */\n      swap3\n      swap2\n      pop\n      pop\n      jump\t// out\n        /* \"#utility.yul\":7859:8077   */\n    tag_48:\n        /* \"#utility.yul\":7950:7954   */\n      0x00\n        /* \"#utility.yul\":7988:7990   */\n      0x20\n        /* \"#utility.yul\":7977:7986   */\n      dup3\n        /* \"#utility.yul\":7973:7991   */\n      add\n        /* \"#utility.yul\":7965:7991   */\n      swap1\n      pop\n        /* \"#utility.yul\":8001:8070   */\n      tag_357\n        /* \"#utility.yul\":8067:8068   */\n      0x00\n        /* \"#utility.yul\":8056:8065   */\n      dup4\n        /* \"#utility.yul\":8052:8069   */\n      add\n        /* \"#utility.yul\":8043:8049   */\n      dup5\n        /* \"#utility.yul\":8001:8070   */\n      tag_218\n      jump\t// in\n    tag_357:\n        /* \"#utility.yul\":7859:8077   */\n      swap3\n      swap2\n      pop\n      pop\n      jump\t// out\n        /* \"#utility.yul\":8083:8950   */\n    tag_52:\n        /* \"#utility.yul\":8195:8201   */\n      0x00\n        /* \"#utility.yul\":8203:8209   */\n      dup1\n        /* \"#utility.yul\":8211:8217   */\n      0x00\n        /* \"#utility.yul\":8219:8225   */\n      dup1\n        /* \"#utility.yul\":8268:8271   */\n      0xa0\n        /* \"#utility.yul\":8256:8265   */\n      dup6\n        /* \"#utility.yul\":8247:8254   */\n      dup8\n        /* \"#utility.yul\":8243:8266   */\n      sub\n        /* \"#utility.yul\":8239:8272   */\n      slt\n        /* \"#utility.yul\":8236:8356   */\n      iszero\n      tag_359\n      jumpi\n        /* \"#utility.yul\":8275:8354   */\n      tag_360\n      tag_202\n      jump\t// in\n    tag_360:\n        /* \"#utility.yul\":8236:8356   */\n    tag_359:\n        /* \"#utility.yul\":8395:8396   */\n      0x00\n        /* \"#utility.yul\":8420:8497   */\n      tag_361\n        /* \"#utility.yul\":8489:8496   */\n      dup8\n        /* \"#utility.yul\":8480:8486   */\n      dup3\n        /* \"#utility.yul\":8469:8478   */\n      dup9\n        /* \"#utility.yul\":8465:8487   */\n      add\n        /* \"#utility.yul\":8420:8497   */\n      tag_205\n      jump\t// in\n    tag_361:\n        /* \"#utility.yul\":8410:8497   */\n      swap5\n      pop\n        /* \"#utility.yul\":8366:8507   */\n      pop\n        /* \"#utility.yul\":8574:8576   */\n      0x60\n        /* \"#utility.yul\":8563:8572   */\n      dup6\n        /* \"#utility.yul\":8559:8577   */\n      add\n        /* \"#utility.yul\":8546:8578   */\n      calldataload\n        /* \"#utility.yul\":8605:8623   */\n      0xffffffffffffffff\n        /* \"#utility.yul\":8597:8603   */\n      dup2\n        /* \"#utility.yul\":8594:8624   */\n      gt\n        /* \"#utility.yul\":8591:8708   */\n      iszero\n      tag_362\n      jumpi\n        /* \"#utility.yul\":8627:8706   */\n      tag_363\n      tag_203\n      jump\t// in\n    tag_363:\n        /* \"#utility.yul\":8591:8708   */\n    tag_362:\n        /* \"#utility.yul\":8740:8804   */\n      tag_364\n        /* \"#utility.yul\":8796:8803   */\n      dup8\n        /* \"#utility.yul\":8787:8793   */\n      dup3\n        /* \"#utility.yul\":8776:8785   */\n      dup9\n        /* \"#utility.yul\":8772:8794   */\n      add\n        /* \"#utility.yul\":8740:8804   */\n      tag_212\n      jump\t// in\n    tag_364:\n        /* \"#utility.yul\":8722:8804   */\n      swap4\n      pop\n      swap4\n      pop\n        /* \"#utility.yul\":8517:8814   */\n      pop\n        /* \"#utility.yul\":8853:8856   */\n      0x80\n        /* \"#utility.yul\":8880:8933   */\n      tag_365\n        /* \"#utility.yul\":8925:8932   */\n      dup8\n        /* \"#utility.yul\":8916:8922   */\n      dup3\n        /* \"#utility.yul\":8905:8914   */\n      dup9\n        /* \"#utility.yul\":8901:8923   */\n      add\n        /* \"#utility.yul\":8880:8933   */\n      tag_216\n      jump\t// in\n    tag_365:\n        /* \"#utility.yul\":8870:8933   */\n      swap2\n      pop\n        /* \"#utility.yul\":8824:8943   */\n      pop\n        /* \"#utility.yul\":8083:8950   */\n      swap3\n      swap6\n      swap2\n      swap5\n      pop\n      swap3\n      pop\n      jump\t// out\n        /* \"#utility.yul\":8956:9046   */\n    tag_228:\n        /* \"#utility.yul\":8990:8997   */\n      0x00\n        /* \"#utility.yul\":9033:9038   */\n      dup2\n        /* \"#utility.yul\":9026:9039   */\n      iszero\n        /* \"#utility.yul\":9019:9040   */\n      iszero\n        /* \"#utility.yul\":9008:9040   */\n      swap1\n      pop\n        /* \"#utility.yul\":8956:9046   */\n      swap2\n      swap1\n      pop\n      jump\t// out\n        /* \"#utility.yul\":9052:9161   */\n    tag_229:\n        /* \"#utility.yul\":9133:9154   */\n      tag_368\n        /* \"#utility.yul\":9148:9153   */\n      dup2\n        /* \"#utility.yul\":9133:9154   */\n      tag_228\n      jump\t// in\n    tag_368:\n        /* \"#utility.yul\":9128:9131   */\n      dup3\n        /* \"#utility.yul\":9121:9155   */\n      mstore\n        /* \"#utility.yul\":9052:9161   */\n      pop\n      pop\n      jump\t// out\n        /* \"#utility.yul\":9167:9377   */\n    tag_55:\n        /* \"#utility.yul\":9254:9258   */\n      0x00\n        /* \"#utility.yul\":9292:9294   */\n      0x20\n        /* \"#utility.yul\":9281:9290   */\n      dup3\n        /* \"#utility.yul\":9277:9295   */\n      add\n        /* \"#utility.yul\":9269:9295   */\n      swap1\n      pop\n        /* \"#utility.yul\":9305:9370   */\n      tag_370\n        /* \"#utility.yul\":9367:9368   */\n      0x00\n        /* \"#utility.yul\":9356:9365   */\n      dup4\n        /* \"#utility.yul\":9352:9369   */\n      add\n        /* \"#utility.yul\":9343:9349   */\n      dup5\n        /* \"#utility.yul\":9305:9370   */\n      tag_229\n      jump\t// in\n    tag_370:\n        /* \"#utility.yul\":9167:9377   */\n      swap3\n      swap2\n      pop\n      pop\n      jump\t// out\n        /* \"#utility.yul\":9383:9501   */\n    tag_230:\n        /* \"#utility.yul\":9470:9494   */\n      tag_372\n        /* \"#utility.yul\":9488:9493   */\n      dup2\n        /* \"#utility.yul\":9470:9494   */\n      tag_214\n      jump\t// in\n    tag_372:\n        /* \"#utility.yul\":9465:9468   */\n      dup3\n        /* \"#utility.yul\":9458:9495   */\n      mstore\n        /* \"#utility.yul\":9383:9501   */\n      pop\n      pop\n      jump\t// out\n        /* \"#utility.yul\":9507:9729   */\n    tag_60:\n        /* \"#utility.yul\":9600:9604   */\n      0x00\n        /* \"#utility.yul\":9638:9640   */\n      0x20\n        /* \"#utility.yul\":9627:9636   */\n      dup3\n        /* \"#utility.yul\":9623:9641   */\n      add\n        /* \"#utility.yul\":9615:9641   */\n      swap1\n      pop\n        /* \"#utility.yul\":9651:9722   */\n      tag_374\n        /* \"#utility.yul\":9719:9720   */\n      0x00\n        /* \"#utility.yul\":9708:9717   */\n      dup4\n        /* \"#utility.yul\":9704:9721   */\n      add\n        /* \"#utility.yul\":9695:9701   */\n      dup5\n        /* \"#utility.yul\":9651:9722   */\n      tag_230\n      jump\t// in\n    tag_374:\n        /* \"#utility.yul\":9507:9729   */\n      swap3\n      swap2\n      pop\n      pop\n      jump\t// out\n        /* \"#utility.yul\":9735:10062   */\n    tag_64:\n        /* \"#utility.yul\":9793:9799   */\n      0x00\n        /* \"#utility.yul\":9842:9844   */\n      0x20\n        /* \"#utility.yul\":9830:9839   */\n      dup3\n        /* \"#utility.yul\":9821:9828   */\n      dup5\n        /* \"#utility.yul\":9817:9840   */\n      sub\n        /* \"#utility.yul\":9813:9845   */\n      slt\n        /* \"#utility.yul\":9810:9929   */\n      iszero\n      tag_376\n      jumpi\n        /* \"#utility.yul\":9848:9927   */\n      tag_377\n      tag_202\n      jump\t// in\n    tag_377:\n        /* \"#utility.yul\":9810:9929   */\n    tag_376:\n        /* \"#utility.yul\":9968:9969   */\n      0x00\n        /* \"#utility.yul\":9993:10045   */\n      tag_378\n        /* \"#utility.yul\":10037:10044   */\n      dup5\n        /* \"#utility.yul\":10028:10034   */\n      dup3\n        /* \"#utility.yul\":10017:10026   */\n      dup6\n        /* \"#utility.yul\":10013:10035   */\n      add\n        /* \"#utility.yul\":9993:10045   */\n      tag_221\n      jump\t// in\n    tag_378:\n        /* \"#utility.yul\":9983:10045   */\n      swap2\n      pop\n        /* \"#utility.yul\":9939:10055   */\n      pop\n        /* \"#utility.yul\":9735:10062   */\n      swap3\n      swap2\n      pop\n      pop\n      jump\t// out\n        /* \"#utility.yul\":10068:10186   */\n    tag_231:\n        /* \"#utility.yul\":10155:10179   */\n      tag_380\n        /* \"#utility.yul\":10173:10178   */\n      dup2\n        /* \"#utility.yul\":10155:10179   */\n      tag_206\n      jump\t// in\n    tag_380:\n        /* \"#utility.yul\":10150:10153   */\n      dup3\n        /* \"#utility.yul\":10143:10180   */\n      mstore\n        /* \"#utility.yul\":10068:10186   */\n      pop\n      pop\n      jump\t// out\n        /* \"#utility.yul\":10192:10414   */\n    tag_67:\n        /* \"#utility.yul\":10285:10289   */\n      0x00\n        /* \"#utility.yul\":10323:10325   */\n      0x20\n        /* \"#utility.yul\":10312:10321   */\n      dup3\n        /* \"#utility.yul\":10308:10326   */\n      add\n        /* \"#utility.yul\":10300:10326   */\n      swap1\n      pop\n        /* \"#utility.yul\":10336:10407   */\n      tag_382\n        /* \"#utility.yul\":10404:10405   */\n      0x00\n        /* \"#utility.yul\":10393:10402   */\n      dup4\n        /* \"#utility.yul\":10389:10406   */\n      add\n        /* \"#utility.yul\":10380:10386   */\n      dup5\n        /* \"#utility.yul\":10336:10407   */\n      tag_231\n      jump\t// in\n    tag_382:\n        /* \"#utility.yul\":10192:10414   */\n      swap3\n      swap2\n      pop\n      pop\n      jump\t// out\n        /* \"#utility.yul\":10420:10749   */\n    tag_71:\n        /* \"#utility.yul\":10479:10485   */\n      0x00\n        /* \"#utility.yul\":10528:10530   */\n      0x20\n        /* \"#utility.yul\":10516:10525   */\n      dup3\n        /* \"#utility.yul\":10507:10514   */\n      dup5\n        /* \"#utility.yul\":10503:10526   */\n      sub\n        /* \"#utility.yul\":10499:10531   */\n      slt\n        /* \"#utility.yul\":10496:10615   */\n      iszero\n      tag_384\n      jumpi\n        /* \"#utility.yul\":10534:10613   */\n      tag_385\n      tag_202\n      jump\t// in\n    tag_385:\n        /* \"#utility.yul\":10496:10615   */\n    tag_384:\n        /* \"#utility.yul\":10654:10655   */\n      0x00\n        /* \"#utility.yul\":10679:10732   */\n      tag_386\n        /* \"#utility.yul\":10724:10731   */\n      dup5\n        /* \"#utility.yul\":10715:10721   */\n      dup3\n        /* \"#utility.yul\":10704:10713   */\n      dup6\n        /* \"#utility.yul\":10700:10722   */\n      add\n        /* \"#utility.yul\":10679:10732   */\n      tag_216\n      jump\t// in\n    tag_386:\n        /* \"#utility.yul\":10669:10732   */\n      swap2\n      pop\n        /* \"#utility.yul\":10625:10742   */\n      pop\n        /* \"#utility.yul\":10420:10749   */\n      swap3\n      swap2\n      pop\n      pop\n      jump\t// out\n        /* \"#utility.yul\":10755:11132   */\n    tag_80:\n        /* \"#utility.yul\":10838:10844   */\n      0x00\n        /* \"#utility.yul\":10887:10889   */\n      0x60\n        /* \"#utility.yul\":10875:10884   */\n      dup3\n        /* \"#utility.yul\":10866:10873   */\n      dup5\n        /* \"#utility.yul\":10862:10885   */\n      sub\n        /* \"#utility.yul\":10858:10890   */\n      slt\n        /* \"#utility.yul\":10855:10974   */\n      iszero\n      tag_388\n      jumpi\n        /* \"#utility.yul\":10893:10972   */\n      tag_389\n      tag_202\n      jump\t// in\n    tag_389:\n        /* \"#utility.yul\":10855:10974   */\n    tag_388:\n        /* \"#utility.yul\":11013:11014   */\n      0x00\n        /* \"#utility.yul\":11038:11115   */\n      tag_390\n        /* \"#utility.yul\":11107:11114   */\n      dup5\n        /* \"#utility.yul\":11098:11104   */\n      dup3\n        /* \"#utility.yul\":11087:11096   */\n      dup6\n        /* \"#utility.yul\":11083:11105   */\n      add\n        /* \"#utility.yul\":11038:11115   */\n      tag_205\n      jump\t// in\n    tag_390:\n        /* \"#utility.yul\":11028:11115   */\n      swap2\n      pop\n        /* \"#utility.yul\":10984:11125   */\n      pop\n        /* \"#utility.yul\":10755:11132   */\n      swap3\n      swap2\n      pop\n      pop\n      jump\t// out\n        /* \"#utility.yul\":11138:11253   */\n    tag_232:\n        /* \"#utility.yul\":11223:11246   */\n      tag_392\n        /* \"#utility.yul\":11240:11245   */\n      dup2\n        /* \"#utility.yul\":11223:11246   */\n      tag_219\n      jump\t// in\n    tag_392:\n        /* \"#utility.yul\":11218:11221   */\n      dup3\n        /* \"#utility.yul\":11211:11247   */\n      mstore\n        /* \"#utility.yul\":11138:11253   */\n      pop\n      pop\n      jump\t// out\n        /* \"#utility.yul\":11259:11587   */\n    tag_92:\n        /* \"#utility.yul\":11378:11382   */\n      0x00\n        /* \"#utility.yul\":11416:11418   */\n      0x40\n        /* \"#utility.yul\":11405:11414   */\n      dup3\n        /* \"#utility.yul\":11401:11419   */\n      add\n        /* \"#utility.yul\":11393:11419   */\n      swap1\n      pop\n        /* \"#utility.yul\":11429:11498   */\n      tag_394\n        /* \"#utility.yul\":11495:11496   */\n      0x00\n        /* \"#utility.yul\":11484:11493   */\n      dup4\n        /* \"#utility.yul\":11480:11497   */\n      add\n        /* \"#utility.yul\":11471:11477   */\n      dup6\n        /* \"#utility.yul\":11429:11498   */\n      tag_232\n      jump\t// in\n    tag_394:\n        /* \"#utility.yul\":11508:11580   */\n      tag_395\n        /* \"#utility.yul\":11576:11578   */\n      0x20\n        /* \"#utility.yul\":11565:11574   */\n      dup4\n        /* \"#utility.yul\":11561:11579   */\n      add\n        /* \"#utility.yul\":11552:11558   */\n      dup5\n        /* \"#utility.yul\":11508:11580   */\n      tag_231\n      jump\t// in\n    tag_395:\n        /* \"#utility.yul\":11259:11587   */\n      swap4\n      swap3\n      pop\n      pop\n      pop\n      jump\t// out\n        /* \"#utility.yul\":11593:11762   */\n    tag_233:\n        /* \"#utility.yul\":11677:11688   */\n      0x00\n        /* \"#utility.yul\":11711:11717   */\n      dup3\n        /* \"#utility.yul\":11706:11709   */\n      dup3\n        /* \"#utility.yul\":11699:11718   */\n      mstore\n        /* \"#utility.yul\":11751:11755   */\n      0x20\n        /* \"#utility.yul\":11746:11749   */\n      dup3\n        /* \"#utility.yul\":11742:11756   */\n      add\n        /* \"#utility.yul\":11727:11756   */\n      swap1\n      pop\n        /* \"#utility.yul\":11593:11762   */\n      swap3\n      swap2\n      pop\n      pop\n      jump\t// out\n        /* \"#utility.yul\":11768:11916   */\n    tag_234:\n        /* \"#utility.yul\":11866:11872   */\n      dup3\n        /* \"#utility.yul\":11861:11864   */\n      dup2\n        /* \"#utility.yul\":11856:11859   */\n      dup4\n        /* \"#utility.yul\":11843:11873   */\n      calldatacopy\n        /* \"#utility.yul\":11907:11908   */\n      0x00\n        /* \"#utility.yul\":11898:11904   */\n      dup4\n        /* \"#utility.yul\":11893:11896   */\n      dup4\n        /* \"#utility.yul\":11889:11905   */\n      add\n        /* \"#utility.yul\":11882:11909   */\n      mstore\n        /* \"#utility.yul\":11768:11916   */\n      pop\n      pop\n      pop\n      jump\t// out\n        /* \"#utility.yul\":11922:12024   */\n    tag_235:\n        /* \"#utility.yul\":11963:11969   */\n      0x00\n        /* \"#utility.yul\":12014:12016   */\n      0x1f\n        /* \"#utility.yul\":12010:12017   */\n      not\n        /* \"#utility.yul\":12005:12007   */\n      0x1f\n        /* \"#utility.yul\":11998:12003   */\n      dup4\n        /* \"#utility.yul\":11994:12008   */\n      add\n        /* \"#utility.yul\":11990:12018   */\n      and\n        /* \"#utility.yul\":11980:12018   */\n      swap1\n      pop\n        /* \"#utility.yul\":11922:12024   */\n      swap2\n      swap1\n      pop\n      jump\t// out\n        /* \"#utility.yul\":12054:12371   */\n    tag_236:\n        /* \"#utility.yul\":12152:12155   */\n      0x00\n        /* \"#utility.yul\":12173:12244   */\n      tag_400\n        /* \"#utility.yul\":12237:12243   */\n      dup4\n        /* \"#utility.yul\":12232:12235   */\n      dup6\n        /* \"#utility.yul\":12173:12244   */\n      tag_233\n      jump\t// in\n    tag_400:\n        /* \"#utility.yul\":12166:12244   */\n      swap4\n      pop\n        /* \"#utility.yul\":12254:12310   */\n      tag_401\n        /* \"#utility.yul\":12303:12309   */\n      dup4\n        /* \"#utility.yul\":12298:12301   */\n      dup6\n        /* \"#utility.yul\":12291:12296   */\n      dup5\n        /* \"#utility.yul\":12254:12310   */\n      tag_234\n      jump\t// in\n    tag_401:\n        /* \"#utility.yul\":12335:12364   */\n      tag_402\n        /* \"#utility.yul\":12357:12363   */\n      dup4\n        /* \"#utility.yul\":12335:12364   */\n      tag_235\n      jump\t// in\n    tag_402:\n        /* \"#utility.yul\":12330:12333   */\n      dup5\n        /* \"#utility.yul\":12326:12365   */\n      add\n        /* \"#utility.yul\":12319:12365   */\n      swap1\n      pop\n        /* \"#utility.yul\":12054:12371   */\n      swap4\n      swap3\n      pop\n      pop\n      pop\n      jump\t// out\n        /* \"#utility.yul\":12377:12820   */\n    tag_104:\n        /* \"#utility.yul\":12528:12532   */\n      0x00\n        /* \"#utility.yul\":12566:12568   */\n      0x40\n        /* \"#utility.yul\":12555:12564   */\n      dup3\n        /* \"#utility.yul\":12551:12569   */\n      add\n        /* \"#utility.yul\":12543:12569   */\n      swap1\n      pop\n        /* \"#utility.yul\":12579:12650   */\n      tag_404\n        /* \"#utility.yul\":12647:12648   */\n      0x00\n        /* \"#utility.yul\":12636:12645   */\n      dup4\n        /* \"#utility.yul\":12632:12649   */\n      add\n        /* \"#utility.yul\":12623:12629   */\n      dup7\n        /* \"#utility.yul\":12579:12650   */\n      tag_230\n      jump\t// in\n    tag_404:\n        /* \"#utility.yul\":12697:12706   */\n      dup2\n        /* \"#utility.yul\":12691:12695   */\n      dup2\n        /* \"#utility.yul\":12687:12707   */\n      sub\n        /* \"#utility.yul\":12682:12684   */\n      0x20\n        /* \"#utility.yul\":12671:12680   */\n      dup4\n        /* \"#utility.yul\":12667:12685   */\n      add\n        /* \"#utility.yul\":12660:12708   */\n      mstore\n        /* \"#utility.yul\":12725:12813   */\n      tag_405\n        /* \"#utility.yul\":12808:12812   */\n      dup2\n        /* \"#utility.yul\":12799:12805   */\n      dup5\n        /* \"#utility.yul\":12791:12797   */\n      dup7\n        /* \"#utility.yul\":12725:12813   */\n      tag_236\n      jump\t// in\n    tag_405:\n        /* \"#utility.yul\":12717:12813   */\n      swap1\n      pop\n        /* \"#utility.yul\":12377:12820   */\n      swap5\n      swap4\n      pop\n      pop\n      pop\n      pop\n      jump\t// out\n        /* \"#utility.yul\":12826:12992   */\n    tag_237:\n        /* \"#utility.yul\":12966:12984   */\n      0x496e73756666696369656e742066656500000000000000000000000000000000\n        /* \"#utility.yul\":12962:12963   */\n      0x00\n        /* \"#utility.yul\":12954:12960   */\n      dup3\n        /* \"#utility.yul\":12950:12964   */\n      add\n        /* \"#utility.yul\":12943:12985   */\n      mstore\n        /* \"#utility.yul\":12826:12992   */\n      pop\n      jump\t// out\n        /* \"#utility.yul\":12998:13364   */\n    tag_238:\n        /* \"#utility.yul\":13140:13143   */\n      0x00\n        /* \"#utility.yul\":13161:13228   */\n      tag_408\n        /* \"#utility.yul\":13225:13227   */\n      0x10\n        /* \"#utility.yul\":13220:13223   */\n      dup4\n        /* \"#utility.yul\":13161:13228   */\n      tag_233\n      jump\t// in\n    tag_408:\n        /* \"#utility.yul\":13154:13228   */\n      swap2\n      pop\n        /* \"#utility.yul\":13237:13330   */\n      tag_409\n        /* \"#utility.yul\":13326:13329   */\n      dup3\n        /* \"#utility.yul\":13237:13330   */\n      tag_237\n      jump\t// in\n    tag_409:\n        /* \"#utility.yul\":13355:13357   */\n      0x20\n        /* \"#utility.yul\":13350:13353   */\n      dup3\n        /* \"#utility.yul\":13346:13358   */\n      add\n        /* \"#utility.yul\":13339:13358   */\n      swap1\n      pop\n        /* \"#utility.yul\":12998:13364   */\n      swap2\n      swap1\n      pop\n      jump\t// out\n        /* \"#utility.yul\":13370:13789   */\n    tag_109:\n        /* \"#utility.yul\":13536:13540   */\n      0x00\n        /* \"#utility.yul\":13574:13576   */\n      0x20\n        /* \"#utility.yul\":13563:13572   */\n      dup3\n        /* \"#utility.yul\":13559:13577   */\n      add\n        /* \"#utility.yul\":13551:13577   */\n      swap1\n      pop\n        /* \"#utility.yul\":13623:13632   */\n      dup2\n        /* \"#utility.yul\":13617:13621   */\n      dup2\n        /* \"#utility.yul\":13613:13633   */\n      sub\n        /* \"#utility.yul\":13609:13610   */\n      0x00\n        /* \"#utility.yul\":13598:13607   */\n      dup4\n        /* \"#utility.yul\":13594:13611   */\n      add\n        /* \"#utility.yul\":13587:13634   */\n      mstore\n        /* \"#utility.yul\":13651:13782   */\n      tag_411\n        /* \"#utility.yul\":13777:13781   */\n      dup2\n        /* \"#utility.yul\":13651:13782   */\n      tag_238\n      jump\t// in\n    tag_411:\n        /* \"#utility.yul\":13643:13782   */\n      swap1\n      pop\n        /* \"#utility.yul\":13370:13789   */\n      swap2\n      swap1\n      pop\n      jump\t// out\n        /* \"#utility.yul\":13795:13880   */\n    tag_239:\n        /* \"#utility.yul\":13840:13847   */\n      0x00\n        /* \"#utility.yul\":13869:13874   */\n      dup2\n        /* \"#utility.yul\":13858:13874   */\n      swap1\n      pop\n        /* \"#utility.yul\":13795:13880   */\n      swap2\n      swap1\n      pop\n      jump\t// out\n        /* \"#utility.yul\":13886:13963   */\n    tag_240:\n        /* \"#utility.yul\":13923:13930   */\n      0x00\n        /* \"#utility.yul\":13952:13957   */\n      dup2\n        /* \"#utility.yul\":13941:13957   */\n      swap1\n      pop\n        /* \"#utility.yul\":13886:13963   */\n      swap2\n      swap1\n      pop\n      jump\t// out\n        /* \"#utility.yul\":13969:14127   */\n    tag_241:\n        /* \"#utility.yul\":14027:14036   */\n      0x00\n        /* \"#utility.yul\":14060:14121   */\n      tag_415\n        /* \"#utility.yul\":14078:14120   */\n      tag_416\n        /* \"#utility.yul\":14087:14119   */\n      tag_417\n        /* \"#utility.yul\":14113:14118   */\n      dup5\n        /* \"#utility.yul\":14087:14119   */\n      tag_239\n      jump\t// in\n    tag_417:\n        /* \"#utility.yul\":14078:14120   */\n      tag_223\n      jump\t// in\n    tag_416:\n        /* \"#utility.yul\":14060:14121   */\n      tag_240\n      jump\t// in\n    tag_415:\n        /* \"#utility.yul\":14047:14121   */\n      swap1\n      pop\n        /* \"#utility.yul\":13969:14127   */\n      swap2\n      swap1\n      pop\n      jump\t// out\n        /* \"#utility.yul\":14133:14280   */\n    tag_242:\n        /* \"#utility.yul\":14228:14273   */\n      tag_419\n        /* \"#utility.yul\":14267:14272   */\n      dup2\n        /* \"#utility.yul\":14228:14273   */\n      tag_241\n      jump\t// in\n    tag_419:\n        /* \"#utility.yul\":14223:14226   */\n      dup3\n        /* \"#utility.yul\":14216:14274   */\n      mstore\n        /* \"#utility.yul\":14133:14280   */\n      pop\n      pop\n      jump\t// out\n        /* \"#utility.yul\":14286:14524   */\n    tag_113:\n        /* \"#utility.yul\":14387:14391   */\n      0x00\n        /* \"#utility.yul\":14425:14427   */\n      0x20\n        /* \"#utility.yul\":14414:14423   */\n      dup3\n        /* \"#utility.yul\":14410:14428   */\n      add\n        /* \"#utility.yul\":14402:14428   */\n      swap1\n      pop\n        /* \"#utility.yul\":14438:14517   */\n      tag_421\n        /* \"#utility.yul\":14514:14515   */\n      0x00\n        /* \"#utility.yul\":14503:14512   */\n      dup4\n        /* \"#utility.yul\":14499:14516   */\n      add\n        /* \"#utility.yul\":14490:14496   */\n      dup5\n        /* \"#utility.yul\":14438:14517   */\n      tag_242\n      jump\t// in\n    tag_421:\n        /* \"#utility.yul\":14286:14524   */\n      swap3\n      swap2\n      pop\n      pop\n      jump\t// out\n        /* \"#utility.yul\":14530:14748   */\n    tag_140:\n        /* \"#utility.yul\":14621:14625   */\n      0x00\n        /* \"#utility.yul\":14659:14661   */\n      0x20\n        /* \"#utility.yul\":14648:14657   */\n      dup3\n        /* \"#utility.yul\":14644:14662   */\n      add\n        /* \"#utility.yul\":14636:14662   */\n      swap1\n      pop\n        /* \"#utility.yul\":14672:14741   */\n      tag_423\n        /* \"#utility.yul\":14738:14739   */\n      0x00\n        /* \"#utility.yul\":14727:14736   */\n      dup4\n        /* \"#utility.yul\":14723:14740   */\n      add\n        /* \"#utility.yul\":14714:14720   */\n      dup5\n        /* \"#utility.yul\":14672:14741   */\n      tag_232\n      jump\t// in\n    tag_423:\n        /* \"#utility.yul\":14530:14748   */\n      swap3\n      swap2\n      pop\n      pop\n      jump\t// out\n        /* \"#utility.yul\":14754:14859   */\n    tag_243:\n        /* \"#utility.yul\":14829:14852   */\n      tag_425\n        /* \"#utility.yul\":14846:14851   */\n      dup2\n        /* \"#utility.yul\":14829:14852   */\n      tag_219\n      jump\t// in\n    tag_425:\n        /* \"#utility.yul\":14824:14827   */\n      dup3\n        /* \"#utility.yul\":14817:14853   */\n      mstore\n        /* \"#utility.yul\":14754:14859   */\n      pop\n      pop\n      jump\t// out\n        /* \"#utility.yul\":14865:14973   */\n    tag_244:\n        /* \"#utility.yul\":14942:14966   */\n      tag_427\n        /* \"#utility.yul\":14960:14965   */\n      dup2\n        /* \"#utility.yul\":14942:14966   */\n      tag_206\n      jump\t// in\n    tag_427:\n        /* \"#utility.yul\":14937:14940   */\n      dup3\n        /* \"#utility.yul\":14930:14967   */\n      mstore\n        /* \"#utility.yul\":14865:14973   */\n      pop\n      pop\n      jump\t// out\n        /* \"#utility.yul\":14979:15077   */\n    tag_245:\n        /* \"#utility.yul\":15030:15036   */\n      0x00\n        /* \"#utility.yul\":15064:15069   */\n      dup2\n        /* \"#utility.yul\":15058:15070   */\n      mload\n        /* \"#utility.yul\":15048:15070   */\n      swap1\n      pop\n        /* \"#utility.yul\":14979:15077   */\n      swap2\n      swap1\n      pop\n      jump\t// out\n        /* \"#utility.yul\":15083:15241   */\n    tag_246:\n        /* \"#utility.yul\":15156:15167   */\n      0x00\n        /* \"#utility.yul\":15190:15196   */\n      dup3\n        /* \"#utility.yul\":15185:15188   */\n      dup3\n        /* \"#utility.yul\":15178:15197   */\n      mstore\n        /* \"#utility.yul\":15230:15234   */\n      0x20\n        /* \"#utility.yul\":15225:15228   */\n      dup3\n        /* \"#utility.yul\":15221:15235   */\n      add\n        /* \"#utility.yul\":15206:15235   */\n      swap1\n      pop\n        /* \"#utility.yul\":15083:15241   */\n      swap3\n      swap2\n      pop\n      pop\n      jump\t// out\n        /* \"#utility.yul\":15247:15495   */\n    tag_247:\n        /* \"#utility.yul\":15329:15330   */\n      0x00\n        /* \"#utility.yul\":15339:15452   */\n    tag_431:\n        /* \"#utility.yul\":15353:15359   */\n      dup4\n        /* \"#utility.yul\":15350:15351   */\n      dup2\n        /* \"#utility.yul\":15347:15360   */\n      lt\n        /* \"#utility.yul\":15339:15452   */\n      iszero\n      tag_433\n      jumpi\n        /* \"#utility.yul\":15438:15439   */\n      dup1\n        /* \"#utility.yul\":15433:15436   */\n      dup3\n        /* \"#utility.yul\":15429:15440   */\n      add\n        /* \"#utility.yul\":15423:15441   */\n      mload\n        /* \"#utility.yul\":15419:15420   */\n      dup2\n        /* \"#utility.yul\":15414:15417   */\n      dup5\n        /* \"#utility.yul\":15410:15421   */\n      add\n        /* \"#utility.yul\":15403:15442   */\n      mstore\n        /* \"#utility.yul\":15375:15377   */\n      0x20\n        /* \"#utility.yul\":15372:15373   */\n      dup2\n        /* \"#utility.yul\":15368:15378   */\n      add\n        /* \"#utility.yul\":15363:15378   */\n      swap1\n      pop\n        /* \"#utility.yul\":15339:15452   */\n      jump(tag_431)\n    tag_433:\n        /* \"#utility.yul\":15486:15487   */\n      0x00\n        /* \"#utility.yul\":15477:15483   */\n      dup5\n        /* \"#utility.yul\":15472:15475   */\n      dup5\n        /* \"#utility.yul\":15468:15484   */\n      add\n        /* \"#utility.yul\":15461:15488   */\n      mstore\n        /* \"#utility.yul\":15309:15495   */\n      pop\n        /* \"#utility.yul\":15247:15495   */\n      pop\n      pop\n      pop\n      jump\t// out\n        /* \"#utility.yul\":15501:15854   */\n    tag_248:\n        /* \"#utility.yul\":15577:15580   */\n      0x00\n        /* \"#utility.yul\":15605:15643   */\n      tag_435\n        /* \"#utility.yul\":15637:15642   */\n      dup3\n        /* \"#utility.yul\":15605:15643   */\n      tag_245\n      jump\t// in\n    tag_435:\n        /* \"#utility.yul\":15659:15719   */\n      tag_436\n        /* \"#utility.yul\":15712:15718   */\n      dup2\n        /* \"#utility.yul\":15707:15710   */\n      dup6\n        /* \"#utility.yul\":15659:15719   */\n      tag_246\n      jump\t// in\n    tag_436:\n        /* \"#utility.yul\":15652:15719   */\n      swap4\n      pop\n        /* \"#utility.yul\":15728:15793   */\n      tag_437\n        /* \"#utility.yul\":15786:15792   */\n      dup2\n        /* \"#utility.yul\":15781:15784   */\n      dup6\n        /* \"#utility.yul\":15774:15778   */\n      0x20\n        /* \"#utility.yul\":15767:15772   */\n      dup7\n        /* \"#utility.yul\":15763:15779   */\n      add\n        /* \"#utility.yul\":15728:15793   */\n      tag_247\n      jump\t// in\n    tag_437:\n        /* \"#utility.yul\":15818:15847   */\n      tag_438\n        /* \"#utility.yul\":15840:15846   */\n      dup2\n        /* \"#utility.yul\":15818:15847   */\n      tag_235\n      jump\t// in\n    tag_438:\n        /* \"#utility.yul\":15813:15816   */\n      dup5\n        /* \"#utility.yul\":15809:15848   */\n      add\n        /* \"#utility.yul\":15802:15848   */\n      swap2\n      pop\n        /* \"#utility.yul\":15581:15854   */\n      pop\n        /* \"#utility.yul\":15501:15854   */\n      swap3\n      swap2\n      pop\n      pop\n      jump\t// out\n        /* \"#utility.yul\":15860:15959   */\n    tag_249:\n        /* \"#utility.yul\":15931:15952   */\n      tag_440\n        /* \"#utility.yul\":15946:15951   */\n      dup2\n        /* \"#utility.yul\":15931:15952   */\n      tag_228\n      jump\t// in\n    tag_440:\n        /* \"#utility.yul\":15926:15929   */\n      dup3\n        /* \"#utility.yul\":15919:15953   */\n      mstore\n        /* \"#utility.yul\":15860:15959   */\n      pop\n      pop\n      jump\t// out\n        /* \"#utility.yul\":16021:17240   */\n    tag_250:\n        /* \"#utility.yul\":16152:16155   */\n      0x00\n        /* \"#utility.yul\":16188:16192   */\n      0xa0\n        /* \"#utility.yul\":16183:16186   */\n      dup4\n        /* \"#utility.yul\":16179:16193   */\n      add\n        /* \"#utility.yul\":16277:16281   */\n      0x00\n        /* \"#utility.yul\":16270:16275   */\n      dup4\n        /* \"#utility.yul\":16266:16282   */\n      add\n        /* \"#utility.yul\":16260:16283   */\n      mload\n        /* \"#utility.yul\":16296:16357   */\n      tag_442\n        /* \"#utility.yul\":16351:16355   */\n      0x00\n        /* \"#utility.yul\":16346:16349   */\n      dup7\n        /* \"#utility.yul\":16342:16356   */\n      add\n        /* \"#utility.yul\":16328:16340   */\n      dup3\n        /* \"#utility.yul\":16296:16357   */\n      tag_243\n      jump\t// in\n    tag_442:\n        /* \"#utility.yul\":16203:16367   */\n      pop\n        /* \"#utility.yul\":16453:16457   */\n      0x20\n        /* \"#utility.yul\":16446:16451   */\n      dup4\n        /* \"#utility.yul\":16442:16458   */\n      add\n        /* \"#utility.yul\":16436:16459   */\n      mload\n        /* \"#utility.yul\":16472:16535   */\n      tag_443\n        /* \"#utility.yul\":16529:16533   */\n      0x20\n        /* \"#utility.yul\":16524:16527   */\n      dup7\n        /* \"#utility.yul\":16520:16534   */\n      add\n        /* \"#utility.yul\":16506:16518   */\n      dup3\n        /* \"#utility.yul\":16472:16535   */\n      tag_244\n      jump\t// in\n    tag_443:\n        /* \"#utility.yul\":16377:16545   */\n      pop\n        /* \"#utility.yul\":16630:16634   */\n      0x40\n        /* \"#utility.yul\":16623:16628   */\n      dup4\n        /* \"#utility.yul\":16619:16635   */\n      add\n        /* \"#utility.yul\":16613:16636   */\n      mload\n        /* \"#utility.yul\":16683:16686   */\n      dup5\n        /* \"#utility.yul\":16677:16681   */\n      dup3\n        /* \"#utility.yul\":16673:16687   */\n      sub\n        /* \"#utility.yul\":16666:16670   */\n      0x40\n        /* \"#utility.yul\":16661:16664   */\n      dup7\n        /* \"#utility.yul\":16657:16671   */\n      add\n        /* \"#utility.yul\":16650:16688   */\n      mstore\n        /* \"#utility.yul\":16709:16780   */\n      tag_444\n        /* \"#utility.yul\":16775:16779   */\n      dup3\n        /* \"#utility.yul\":16761:16773   */\n      dup3\n        /* \"#utility.yul\":16709:16780   */\n      tag_248\n      jump\t// in\n    tag_444:\n        /* \"#utility.yul\":16701:16780   */\n      swap2\n      pop\n        /* \"#utility.yul\":16555:16791   */\n      pop\n        /* \"#utility.yul\":16876:16880   */\n      0x60\n        /* \"#utility.yul\":16869:16874   */\n      dup4\n        /* \"#utility.yul\":16865:16881   */\n      add\n        /* \"#utility.yul\":16859:16882   */\n      mload\n        /* \"#utility.yul\":16929:16932   */\n      dup5\n        /* \"#utility.yul\":16923:16927   */\n      dup3\n        /* \"#utility.yul\":16919:16933   */\n      sub\n        /* \"#utility.yul\":16912:16916   */\n      0x60\n        /* \"#utility.yul\":16907:16910   */\n      dup7\n        /* \"#utility.yul\":16903:16917   */\n      add\n        /* \"#utility.yul\":16896:16934   */\n      mstore\n        /* \"#utility.yul\":16955:17026   */\n      tag_445\n        /* \"#utility.yul\":17021:17025   */\n      dup3\n        /* \"#utility.yul\":17007:17019   */\n      dup3\n        /* \"#utility.yul\":16955:17026   */\n      tag_248\n      jump\t// in\n    tag_445:\n        /* \"#utility.yul\":16947:17026   */\n      swap2\n      pop\n        /* \"#utility.yul\":16801:17037   */\n      pop\n        /* \"#utility.yul\":17127:17131   */\n      0x80\n        /* \"#utility.yul\":17120:17125   */\n      dup4\n        /* \"#utility.yul\":17116:17132   */\n      add\n        /* \"#utility.yul\":17110:17133   */\n      mload\n        /* \"#utility.yul\":17146:17203   */\n      tag_446\n        /* \"#utility.yul\":17197:17201   */\n      0x80\n        /* \"#utility.yul\":17192:17195   */\n      dup7\n        /* \"#utility.yul\":17188:17202   */\n      add\n        /* \"#utility.yul\":17174:17186   */\n      dup3\n        /* \"#utility.yul\":17146:17203   */\n      tag_249\n      jump\t// in\n    tag_446:\n        /* \"#utility.yul\":17047:17213   */\n      pop\n        /* \"#utility.yul\":17230:17234   */\n      dup1\n        /* \"#utility.yul\":17223:17234   */\n      swap2\n      pop\n        /* \"#utility.yul\":16157:17240   */\n      pop\n        /* \"#utility.yul\":16021:17240   */\n      swap3\n      swap2\n      pop\n      pop\n      jump\t// out\n        /* \"#utility.yul\":17246:17753   */\n    tag_156:\n        /* \"#utility.yul\":17429:17433   */\n      0x00\n        /* \"#utility.yul\":17467:17469   */\n      0x40\n        /* \"#utility.yul\":17456:17465   */\n      dup3\n        /* \"#utility.yul\":17452:17470   */\n      add\n        /* \"#utility.yul\":17444:17470   */\n      swap1\n      pop\n        /* \"#utility.yul\":17516:17525   */\n      dup2\n        /* \"#utility.yul\":17510:17514   */\n      dup2\n        /* \"#utility.yul\":17506:17526   */\n      sub\n        /* \"#utility.yul\":17502:17503   */\n      0x00\n        /* \"#utility.yul\":17491:17500   */\n      dup4\n        /* \"#utility.yul\":17487:17504   */\n      add\n        /* \"#utility.yul\":17480:17527   */\n      mstore\n        /* \"#utility.yul\":17544:17664   */\n      tag_448\n        /* \"#utility.yul\":17659:17663   */\n      dup2\n        /* \"#utility.yul\":17650:17656   */\n      dup6\n        /* \"#utility.yul\":17544:17664   */\n      tag_250\n      jump\t// in\n    tag_448:\n        /* \"#utility.yul\":17536:17664   */\n      swap1\n      pop\n        /* \"#utility.yul\":17674:17746   */\n      tag_449\n        /* \"#utility.yul\":17742:17744   */\n      0x20\n        /* \"#utility.yul\":17731:17740   */\n      dup4\n        /* \"#utility.yul\":17727:17745   */\n      add\n        /* \"#utility.yul\":17718:17724   */\n      dup5\n        /* \"#utility.yul\":17674:17746   */\n      tag_230\n      jump\t// in\n    tag_449:\n        /* \"#utility.yul\":17246:17753   */\n      swap4\n      swap3\n      pop\n      pop\n      pop\n      jump\t// out\n        /* \"#utility.yul\":17759:17876   */\n    tag_251:\n        /* \"#utility.yul\":17868:17869   */\n      0x00\n        /* \"#utility.yul\":17865:17866   */\n      dup1\n        /* \"#utility.yul\":17858:17870   */\n      revert\n        /* \"#utility.yul\":17882:18062   */\n    tag_252:\n        /* \"#utility.yul\":17930:18007   */\n      0x4e487b7100000000000000000000000000000000000000000000000000000000\n        /* \"#utility.yul\":17927:17928   */\n      0x00\n        /* \"#utility.yul\":17920:18008   */\n      mstore\n        /* \"#utility.yul\":18027:18031   */\n      0x41\n        /* \"#utility.yul\":18024:18025   */\n      0x04\n        /* \"#utility.yul\":18017:18032   */\n      mstore\n        /* \"#utility.yul\":18051:18055   */\n      0x24\n        /* \"#utility.yul\":18048:18049   */\n      0x00\n        /* \"#utility.yul\":18041:18056   */\n      revert\n        /* \"#utility.yul\":18068:18349   */\n    tag_253:\n        /* \"#utility.yul\":18151:18178   */\n      tag_453\n        /* \"#utility.yul\":18173:18177   */\n      dup3\n        /* \"#utility.yul\":18151:18178   */\n      tag_235\n      jump\t// in\n    tag_453:\n        /* \"#utility.yul\":18143:18149   */\n      dup2\n        /* \"#utility.yul\":18139:18179   */\n      add\n        /* \"#utility.yul\":18281:18287   */\n      dup2\n        /* \"#utility.yul\":18269:18279   */\n      dup2\n        /* \"#utility.yul\":18266:18288   */\n      lt\n        /* \"#utility.yul\":18245:18263   */\n      0xffffffffffffffff\n        /* \"#utility.yul\":18233:18243   */\n      dup3\n        /* \"#utility.yul\":18230:18264   */\n      gt\n        /* \"#utility.yul\":18227:18289   */\n      or\n        /* \"#utility.yul\":18224:18312   */\n      iszero\n      tag_454\n      jumpi\n        /* \"#utility.yul\":18292:18310   */\n      tag_455\n      tag_252\n      jump\t// in\n    tag_455:\n        /* \"#utility.yul\":18224:18312   */\n    tag_454:\n        /* \"#utility.yul\":18332:18342   */\n      dup1\n        /* \"#utility.yul\":18328:18330   */\n      0x40\n        /* \"#utility.yul\":18321:18343   */\n      mstore\n        /* \"#utility.yul\":18111:18349   */\n      pop\n        /* \"#utility.yul\":18068:18349   */\n      pop\n      pop\n      jump\t// out\n        /* \"#utility.yul\":18355:18484   */\n    tag_254:\n        /* \"#utility.yul\":18389:18395   */\n      0x00\n        /* \"#utility.yul\":18416:18436   */\n      tag_457\n      tag_201\n      jump\t// in\n    tag_457:\n        /* \"#utility.yul\":18406:18436   */\n      swap1\n      pop\n        /* \"#utility.yul\":18445:18478   */\n      tag_458\n        /* \"#utility.yul\":18473:18477   */\n      dup3\n        /* \"#utility.yul\":18465:18471   */\n      dup3\n        /* \"#utility.yul\":18445:18478   */\n      tag_253\n      jump\t// in\n    tag_458:\n        /* \"#utility.yul\":18355:18484   */\n      swap2\n      swap1\n      pop\n      jump\t// out\n        /* \"#utility.yul\":18613:18735   */\n    tag_256:\n        /* \"#utility.yul\":18686:18710   */\n      tag_461\n        /* \"#utility.yul\":18704:18709   */\n      dup2\n        /* \"#utility.yul\":18686:18710   */\n      tag_240\n      jump\t// in\n    tag_461:\n        /* \"#utility.yul\":18679:18684   */\n      dup2\n        /* \"#utility.yul\":18676:18711   */\n      eq\n        /* \"#utility.yul\":18666:18729   */\n      tag_462\n      jumpi\n        /* \"#utility.yul\":18725:18726   */\n      0x00\n        /* \"#utility.yul\":18722:18723   */\n      dup1\n        /* \"#utility.yul\":18715:18727   */\n      revert\n        /* \"#utility.yul\":18666:18729   */\n    tag_462:\n        /* \"#utility.yul\":18613:18735   */\n      pop\n      jump\t// out\n        /* \"#utility.yul\":18741:18884   */\n    tag_257:\n        /* \"#utility.yul\":18798:18803   */\n      0x00\n        /* \"#utility.yul\":18829:18835   */\n      dup2\n        /* \"#utility.yul\":18823:18836   */\n      mload\n        /* \"#utility.yul\":18814:18836   */\n      swap1\n      pop\n        /* \"#utility.yul\":18845:18878   */\n      tag_464\n        /* \"#utility.yul\":18872:18877   */\n      dup2\n        /* \"#utility.yul\":18845:18878   */\n      tag_256\n      jump\t// in\n    tag_464:\n        /* \"#utility.yul\":18741:18884   */\n      swap3\n      swap2\n      pop\n      pop\n      jump\t// out\n        /* \"#utility.yul\":18917:19538   */\n    tag_258:\n        /* \"#utility.yul\":19005:19010   */\n      0x00\n        /* \"#utility.yul\":19049:19053   */\n      0x40\n        /* \"#utility.yul\":19037:19046   */\n      dup3\n        /* \"#utility.yul\":19032:19035   */\n      dup5\n        /* \"#utility.yul\":19028:19047   */\n      sub\n        /* \"#utility.yul\":19024:19054   */\n      slt\n        /* \"#utility.yul\":19021:19138   */\n      iszero\n      tag_466\n      jumpi\n        /* \"#utility.yul\":19057:19136   */\n      tag_467\n      tag_251\n      jump\t// in\n    tag_467:\n        /* \"#utility.yul\":19021:19138   */\n    tag_466:\n        /* \"#utility.yul\":19156:19177   */\n      tag_468\n        /* \"#utility.yul\":19172:19176   */\n      0x40\n        /* \"#utility.yul\":19156:19177   */\n      tag_254\n      jump\t// in\n    tag_468:\n        /* \"#utility.yul\":19147:19177   */\n      swap1\n      pop\n        /* \"#utility.yul\":19241:19242   */\n      0x00\n        /* \"#utility.yul\":19281:19341   */\n      tag_469\n        /* \"#utility.yul\":19337:19340   */\n      dup5\n        /* \"#utility.yul\":19328:19334   */\n      dup3\n        /* \"#utility.yul\":19317:19326   */\n      dup6\n        /* \"#utility.yul\":19313:19335   */\n      add\n        /* \"#utility.yul\":19281:19341   */\n      tag_257\n      jump\t// in\n    tag_469:\n        /* \"#utility.yul\":19274:19278   */\n      0x00\n        /* \"#utility.yul\":19267:19272   */\n      dup4\n        /* \"#utility.yul\":19263:19279   */\n      add\n        /* \"#utility.yul\":19256:19342   */\n      mstore\n        /* \"#utility.yul\":19187:19353   */\n      pop\n        /* \"#utility.yul\":19418:19420   */\n      0x20\n        /* \"#utility.yul\":19459:19519   */\n      tag_470\n        /* \"#utility.yul\":19515:19518   */\n      dup5\n        /* \"#utility.yul\":19506:19512   */\n      dup3\n        /* \"#utility.yul\":19495:19504   */\n      dup6\n        /* \"#utility.yul\":19491:19513   */\n      add\n        /* \"#utility.yul\":19459:19519   */\n      tag_257\n      jump\t// in\n    tag_470:\n        /* \"#utility.yul\":19452:19456   */\n      0x20\n        /* \"#utility.yul\":19445:19450   */\n      dup4\n        /* \"#utility.yul\":19441:19457   */\n      add\n        /* \"#utility.yul\":19434:19520   */\n      mstore\n        /* \"#utility.yul\":19363:19531   */\n      pop\n        /* \"#utility.yul\":18917:19538   */\n      swap3\n      swap2\n      pop\n      pop\n      jump\t// out\n        /* \"#utility.yul\":19544:19951   */\n    tag_160:\n        /* \"#utility.yul\":19642:19648   */\n      0x00\n        /* \"#utility.yul\":19691:19693   */\n      0x40\n        /* \"#utility.yul\":19679:19688   */\n      dup3\n        /* \"#utility.yul\":19670:19677   */\n      dup5\n        /* \"#utility.yul\":19666:19689   */\n      sub\n        /* \"#utility.yul\":19662:19694   */\n      slt\n        /* \"#utility.yul\":19659:19778   */\n      iszero\n      tag_472\n      jumpi\n        /* \"#utility.yul\":19697:19776   */\n      tag_473\n      tag_202\n      jump\t// in\n    tag_473:\n        /* \"#utility.yul\":19659:19778   */\n    tag_472:\n        /* \"#utility.yul\":19817:19818   */\n      0x00\n        /* \"#utility.yul\":19842:19934   */\n      tag_474\n        /* \"#utility.yul\":19926:19933   */\n      dup5\n        /* \"#utility.yul\":19917:19923   */\n      dup3\n        /* \"#utility.yul\":19906:19915   */\n      dup6\n        /* \"#utility.yul\":19902:19924   */\n      add\n        /* \"#utility.yul\":19842:19934   */\n      tag_258\n      jump\t// in\n    tag_474:\n        /* \"#utility.yul\":19832:19934   */\n      swap2\n      pop\n        /* \"#utility.yul\":19788:19944   */\n      pop\n        /* \"#utility.yul\":19544:19951   */\n      swap3\n      swap2\n      pop\n      pop\n      jump\t// out\n        /* \"#utility.yul\":19957:20100   */\n    tag_259:\n        /* \"#utility.yul\":20014:20019   */\n      0x00\n        /* \"#utility.yul\":20045:20051   */\n      dup2\n        /* \"#utility.yul\":20039:20052   */\n      mload\n        /* \"#utility.yul\":20030:20052   */\n      swap1\n      pop\n        /* \"#utility.yul\":20061:20094   */\n      tag_476\n        /* \"#utility.yul\":20088:20093   */\n      dup2\n        /* \"#utility.yul\":20061:20094   */\n      tag_207\n      jump\t// in\n    tag_476:\n        /* \"#utility.yul\":19957:20100   */\n      swap3\n      swap2\n      pop\n      pop\n      jump\t// out\n        /* \"#utility.yul\":20106:20226   */\n    tag_260:\n        /* \"#utility.yul\":20178:20201   */\n      tag_478\n        /* \"#utility.yul\":20195:20200   */\n      dup2\n        /* \"#utility.yul\":20178:20201   */\n      tag_217\n      jump\t// in\n    tag_478:\n        /* \"#utility.yul\":20171:20176   */\n      dup2\n        /* \"#utility.yul\":20168:20202   */\n      eq\n        /* \"#utility.yul\":20158:20220   */\n      tag_479\n      jumpi\n        /* \"#utility.yul\":20216:20217   */\n      0x00\n        /* \"#utility.yul\":20213:20214   */\n      dup1\n        /* \"#utility.yul\":20206:20218   */\n      revert\n        /* \"#utility.yul\":20158:20220   */\n    tag_479:\n        /* \"#utility.yul\":20106:20226   */\n      pop\n      jump\t// out\n        /* \"#utility.yul\":20232:20373   */\n    tag_261:\n        /* \"#utility.yul\":20288:20293   */\n      0x00\n        /* \"#utility.yul\":20319:20325   */\n      dup2\n        /* \"#utility.yul\":20313:20326   */\n      mload\n        /* \"#utility.yul\":20304:20326   */\n      swap1\n      pop\n        /* \"#utility.yul\":20335:20367   */\n      tag_481\n        /* \"#utility.yul\":20361:20366   */\n      dup2\n        /* \"#utility.yul\":20335:20367   */\n      tag_260\n      jump\t// in\n    tag_481:\n        /* \"#utility.yul\":20232:20373   */\n      swap3\n      swap2\n      pop\n      pop\n      jump\t// out\n        /* \"#utility.yul\":20410:21223   */\n    tag_262:\n        /* \"#utility.yul\":20502:20507   */\n      0x00\n        /* \"#utility.yul\":20546:20550   */\n      0x80\n        /* \"#utility.yul\":20534:20543   */\n      dup3\n        /* \"#utility.yul\":20529:20532   */\n      dup5\n        /* \"#utility.yul\":20525:20544   */\n      sub\n        /* \"#utility.yul\":20521:20551   */\n      slt\n        /* \"#utility.yul\":20518:20635   */\n      iszero\n      tag_483\n      jumpi\n        /* \"#utility.yul\":20554:20633   */\n      tag_484\n      tag_251\n      jump\t// in\n    tag_484:\n        /* \"#utility.yul\":20518:20635   */\n    tag_483:\n        /* \"#utility.yul\":20653:20674   */\n      tag_485\n        /* \"#utility.yul\":20669:20673   */\n      0x60\n        /* \"#utility.yul\":20653:20674   */\n      tag_254\n      jump\t// in\n    tag_485:\n        /* \"#utility.yul\":20644:20674   */\n      swap1\n      pop\n        /* \"#utility.yul\":20733:20734   */\n      0x00\n        /* \"#utility.yul\":20773:20833   */\n      tag_486\n        /* \"#utility.yul\":20829:20832   */\n      dup5\n        /* \"#utility.yul\":20820:20826   */\n      dup3\n        /* \"#utility.yul\":20809:20818   */\n      dup6\n        /* \"#utility.yul\":20805:20827   */\n      add\n        /* \"#utility.yul\":20773:20833   */\n      tag_259\n      jump\t// in\n    tag_486:\n        /* \"#utility.yul\":20766:20770   */\n      0x00\n        /* \"#utility.yul\":20759:20764   */\n      dup4\n        /* \"#utility.yul\":20755:20771   */\n      add\n        /* \"#utility.yul\":20748:20834   */\n      mstore\n        /* \"#utility.yul\":20684:20845   */\n      pop\n        /* \"#utility.yul\":20905:20907   */\n      0x20\n        /* \"#utility.yul\":20946:21005   */\n      tag_487\n        /* \"#utility.yul\":21001:21004   */\n      dup5\n        /* \"#utility.yul\":20992:20998   */\n      dup3\n        /* \"#utility.yul\":20981:20990   */\n      dup6\n        /* \"#utility.yul\":20977:20999   */\n      add\n        /* \"#utility.yul\":20946:21005   */\n      tag_261\n      jump\t// in\n    tag_487:\n        /* \"#utility.yul\":20939:20943   */\n      0x20\n        /* \"#utility.yul\":20932:20937   */\n      dup4\n        /* \"#utility.yul\":20928:20944   */\n      add\n        /* \"#utility.yul\":20921:21006   */\n      mstore\n        /* \"#utility.yul\":20855:21017   */\n      pop\n        /* \"#utility.yul\":21075:21077   */\n      0x40\n        /* \"#utility.yul\":21116:21204   */\n      tag_488\n        /* \"#utility.yul\":21200:21203   */\n      dup5\n        /* \"#utility.yul\":21191:21197   */\n      dup3\n        /* \"#utility.yul\":21180:21189   */\n      dup6\n        /* \"#utility.yul\":21176:21198   */\n      add\n        /* \"#utility.yul\":21116:21204   */\n      tag_258\n      jump\t// in\n    tag_488:\n        /* \"#utility.yul\":21109:21113   */\n      0x40\n        /* \"#utility.yul\":21102:21107   */\n      dup4\n        /* \"#utility.yul\":21098:21114   */\n      add\n        /* \"#utility.yul\":21091:21205   */\n      mstore\n        /* \"#utility.yul\":21027:21216   */\n      pop\n        /* \"#utility.yul\":20410:21223   */\n      swap3\n      swap2\n      pop\n      pop\n      jump\t// out\n        /* \"#utility.yul\":21229:21645   */\n    tag_174:\n        /* \"#utility.yul\":21331:21337   */\n      0x00\n        /* \"#utility.yul\":21380:21383   */\n      0x80\n        /* \"#utility.yul\":21368:21377   */\n      dup3\n        /* \"#utility.yul\":21359:21366   */\n      dup5\n        /* \"#utility.yul\":21355:21378   */\n      sub\n        /* \"#utility.yul\":21351:21384   */\n      slt\n        /* \"#utility.yul\":21348:21468   */\n      iszero\n      tag_490\n      jumpi\n        /* \"#utility.yul\":21387:21466   */\n      tag_491\n      tag_202\n      jump\t// in\n    tag_491:\n        /* \"#utility.yul\":21348:21468   */\n    tag_490:\n        /* \"#utility.yul\":21507:21508   */\n      0x00\n        /* \"#utility.yul\":21532:21628   */\n      tag_492\n        /* \"#utility.yul\":21620:21627   */\n      dup5\n        /* \"#utility.yul\":21611:21617   */\n      dup3\n        /* \"#utility.yul\":21600:21609   */\n      dup6\n        /* \"#utility.yul\":21596:21618   */\n      add\n        /* \"#utility.yul\":21532:21628   */\n      tag_262\n      jump\t// in\n    tag_492:\n        /* \"#utility.yul\":21522:21628   */\n      swap2\n      pop\n        /* \"#utility.yul\":21478:21638   */\n      pop\n        /* \"#utility.yul\":21229:21645   */\n      swap3\n      swap2\n      pop\n      pop\n      jump\t// out\n        /* \"#utility.yul\":21651:21769   */\n    tag_263:\n        /* \"#utility.yul\":21738:21762   */\n      tag_494\n        /* \"#utility.yul\":21756:21761   */\n      dup2\n        /* \"#utility.yul\":21738:21762   */\n      tag_240\n      jump\t// in\n    tag_494:\n        /* \"#utility.yul\":21733:21736   */\n      dup3\n        /* \"#utility.yul\":21726:21763   */\n      mstore\n        /* \"#utility.yul\":21651:21769   */\n      pop\n      pop\n      jump\t// out\n        /* \"#utility.yul\":21775:21997   */\n    tag_180:\n        /* \"#utility.yul\":21868:21872   */\n      0x00\n        /* \"#utility.yul\":21906:21908   */\n      0x20\n        /* \"#utility.yul\":21895:21904   */\n      dup3\n        /* \"#utility.yul\":21891:21909   */\n      add\n        /* \"#utility.yul\":21883:21909   */\n      swap1\n      pop\n        /* \"#utility.yul\":21919:21990   */\n      tag_496\n        /* \"#utility.yul\":21987:21988   */\n      0x00\n        /* \"#utility.yul\":21976:21985   */\n      dup4\n        /* \"#utility.yul\":21972:21989   */\n      add\n        /* \"#utility.yul\":21963:21969   */\n      dup5\n        /* \"#utility.yul\":21919:21990   */\n      tag_263\n      jump\t// in\n    tag_496:\n        /* \"#utility.yul\":21775:21997   */\n      swap3\n      swap2\n      pop\n      pop\n      jump\t// out\n        /* \"#utility.yul\":22003:22146   */\n    tag_264:\n        /* \"#utility.yul\":22060:22065   */\n      0x00\n        /* \"#utility.yul\":22091:22097   */\n      dup2\n        /* \"#utility.yul\":22085:22098   */\n      mload\n        /* \"#utility.yul\":22076:22098   */\n      swap1\n      pop\n        /* \"#utility.yul\":22107:22140   */\n      tag_498\n        /* \"#utility.yul\":22134:22139   */\n      dup2\n        /* \"#utility.yul\":22107:22140   */\n      tag_215\n      jump\t// in\n    tag_498:\n        /* \"#utility.yul\":22003:22146   */\n      swap3\n      swap2\n      pop\n      pop\n      jump\t// out\n        /* \"#utility.yul\":22152:22503   */\n    tag_185:\n        /* \"#utility.yul\":22222:22228   */\n      0x00\n        /* \"#utility.yul\":22271:22273   */\n      0x20\n        /* \"#utility.yul\":22259:22268   */\n      dup3\n        /* \"#utility.yul\":22250:22257   */\n      dup5\n        /* \"#utility.yul\":22246:22269   */\n      sub\n        /* \"#utility.yul\":22242:22274   */\n      slt\n        /* \"#utility.yul\":22239:22358   */\n      iszero\n      tag_500\n      jumpi\n        /* \"#utility.yul\":22277:22356   */\n      tag_501\n      tag_202\n      jump\t// in\n    tag_501:\n        /* \"#utility.yul\":22239:22358   */\n    tag_500:\n        /* \"#utility.yul\":22397:22398   */\n      0x00\n        /* \"#utility.yul\":22422:22486   */\n      tag_502\n        /* \"#utility.yul\":22478:22485   */\n      dup5\n        /* \"#utility.yul\":22469:22475   */\n      dup3\n        /* \"#utility.yul\":22458:22467   */\n      dup6\n        /* \"#utility.yul\":22454:22476   */\n      add\n        /* \"#utility.yul\":22422:22486   */\n      tag_264\n      jump\t// in\n    tag_502:\n        /* \"#utility.yul\":22412:22486   */\n      swap2\n      pop\n        /* \"#utility.yul\":22368:22496   */\n      pop\n        /* \"#utility.yul\":22152:22503   */\n      swap3\n      swap2\n      pop\n      pop\n      jump\t// out\n        /* \"#utility.yul\":22509:22951   */\n    tag_192:\n        /* \"#utility.yul\":22658:22662   */\n      0x00\n        /* \"#utility.yul\":22696:22698   */\n      0x60\n        /* \"#utility.yul\":22685:22694   */\n      dup3\n        /* \"#utility.yul\":22681:22699   */\n      add\n        /* \"#utility.yul\":22673:22699   */\n      swap1\n      pop\n        /* \"#utility.yul\":22709:22780   */\n      tag_504\n        /* \"#utility.yul\":22777:22778   */\n      0x00\n        /* \"#utility.yul\":22766:22775   */\n      dup4\n        /* \"#utility.yul\":22762:22779   */\n      add\n        /* \"#utility.yul\":22753:22759   */\n      dup7\n        /* \"#utility.yul\":22709:22780   */\n      tag_230\n      jump\t// in\n    tag_504:\n        /* \"#utility.yul\":22790:22862   */\n      tag_505\n        /* \"#utility.yul\":22858:22860   */\n      0x20\n        /* \"#utility.yul\":22847:22856   */\n      dup4\n        /* \"#utility.yul\":22843:22861   */\n      add\n        /* \"#utility.yul\":22834:22840   */\n      dup6\n        /* \"#utility.yul\":22790:22862   */\n      tag_230\n      jump\t// in\n    tag_505:\n        /* \"#utility.yul\":22872:22944   */\n      tag_506\n        /* \"#utility.yul\":22940:22942   */\n      0x40\n        /* \"#utility.yul\":22929:22938   */\n      dup4\n        /* \"#utility.yul\":22925:22943   */\n      add\n        /* \"#utility.yul\":22916:22922   */\n      dup5\n        /* \"#utility.yul\":22872:22944   */\n      tag_263\n      jump\t// in\n    tag_506:\n        /* \"#utility.yul\":22509:22951   */\n      swap5\n      swap4\n      pop\n      pop\n      pop\n      pop\n      jump\t// out\n\n    auxdata: 0xa26469706673582212202abd7b4714be1e5b703a9bc6eab22b85a46c4ba400dbc947509c2a355f784d3b64736f6c634300081c0033\n}\n",
				"bytecode": {
					"linkReferences": {},
					"object": "60a060405234801561001057600080fd5b50604051611e72380380611e7283398181016040528101906100329190610301565b8181818133600073ffffffffffffffffffffffffffffffffffffffff168173ffffffffffffffffffffffffffffffffffffffff16036100a95760006040517f1e4fbdf70000000000000000000000000000000000000000000000000000000081526004016100a09190610350565b60405180910390fd5b6100b8816101da60201b60201c565b508173ffffffffffffffffffffffffffffffffffffffff1660808173ffffffffffffffffffffffffffffffffffffffff1681525050600073ffffffffffffffffffffffffffffffffffffffff168173ffffffffffffffffffffffffffffffffffffffff1603610153576040517fb586360400000000000000000000000000000000000000000000000000000000815260040160405180910390fd5b60805173ffffffffffffffffffffffffffffffffffffffff1663ca5eb5e1826040518263ffffffff1660e01b815260040161018e9190610350565b600060405180830381600087803b1580156101a857600080fd5b505af11580156101bc573d6000803e3d6000fd5b50505050505050506101d3816101da60201b60201c565b505061036b565b60008060009054906101000a900473ffffffffffffffffffffffffffffffffffffffff169050816000806101000a81548173ffffffffffffffffffffffffffffffffffffffff021916908373ffffffffffffffffffffffffffffffffffffffff1602179055508173ffffffffffffffffffffffffffffffffffffffff168173ffffffffffffffffffffffffffffffffffffffff167f8be0079c531659141344cd1fd0a4f28419497f9722a3daafe3b4186f6b6457e060405160405180910390a35050565b600080fd5b600073ffffffffffffffffffffffffffffffffffffffff82169050919050565b60006102ce826102a3565b9050919050565b6102de816102c3565b81146102e957600080fd5b50565b6000815190506102fb816102d5565b92915050565b600080604083850312156103185761031761029e565b5b6000610326858286016102ec565b9250506020610337858286016102ec565b9150509250929050565b61034a816102c3565b82525050565b60006020820190506103656000830184610341565b92915050565b608051611ac26103b060003960008181610320015281816105da0152818161069e0152818161096101528181610a7001528181610c740152610d6f0152611ac26000f3fe6080604052600436106100c25760003560e01c80637d25a05e1161007f578063bb0b6a5311610059578063bb0b6a531461023b578063ca5eb5e114610278578063f2fde38b146102a1578063ff7bd03d146102ca576100c2565b80637d25a05e1461019657806382413eac146101d35780638da5cb5b14610210576100c2565b806313137d65146100c757806317442b70146100e35780633400288b1461010f57806338f87d30146101385780635e280f1114610154578063715018a61461017f575b600080fd5b6100e160048036038101906100dc919061105d565b610307565b005b3480156100ef57600080fd5b506100f8610429565b60405161010692919061113c565b60405180910390f35b34801561011b57600080fd5b50610136600480360381019061013191906111a1565b610438565b005b610152600480360381019061014d9190611237565b61044e565b005b34801561016057600080fd5b506101696105d8565b604051610176919061132b565b60405180910390f35b34801561018b57600080fd5b506101946105fc565b005b3480156101a257600080fd5b506101bd60048036038101906101b891906111a1565b610610565b6040516101ca9190611346565b60405180910390f35b3480156101df57600080fd5b506101fa60048036038101906101f59190611361565b610618565b60405161020791906113f0565b60405180910390f35b34801561021c57600080fd5b50610225610653565b604051610232919061141a565b60405180910390f35b34801561024757600080fd5b50610262600480360381019061025d9190611435565b61067c565b60405161026f9190611471565b60405180910390f35b34801561028457600080fd5b5061029f600480360381019061029a919061148c565b610694565b005b3480156102ad57600080fd5b506102c860048036038101906102c3919061148c565b61072a565b005b3480156102d657600080fd5b506102f160048036038101906102ec91906114b9565b6107b0565b6040516102fe91906113f0565b60405180910390f35b3373ffffffffffffffffffffffffffffffffffffffff167f000000000000000000000000000000000000000000000000000000000000000073ffffffffffffffffffffffffffffffffffffffff161461039757336040517f91ac5e4f00000000000000000000000000000000000000000000000000000000815260040161038e919061141a565b60405180910390fd5b86602001356103b78860000160208101906103b29190611435565b6107f1565b14610411578660000160208101906103cf9190611435565b87602001356040517fc26bebcc0000000000000000000000000000000000000000000000000000000081526004016104089291906114f5565b60405180910390fd5b61042087878787878787610866565b50505050505050565b60008060016002915091509091565b61044061086f565b61044a82826108f6565b5050565b60003385856040516020016104659392919061157c565b604051602081830303815290604052905060006104c9878386868080601f016020809104026020016040519081016040528093929190818152602001838380828437600081840152601f19601f820116905080830192505050505050506000610957565b90508060000151341015610512576040517f08c379a0000000000000000000000000000000000000000000000000000000008152600401610509906115fa565b60405180910390fd5b610578878386868080601f016020809104026020016040519081016040528093929190818152602001838380828437600081840152601f19601f820116905080830192505050505050506040518060400160405280348152602001600081525033610a3a565b503373ffffffffffffffffffffffffffffffffffffffff168763ffffffff167f3a78d28dc1c3123c826d1abdc91108b02726d180a719a597aaaa783d5e44971560006040516105c7919061165f565b60405180910390a350505050505050565b7f000000000000000000000000000000000000000000000000000000000000000081565b61060461086f565b61060e6000610b56565b565b600092915050565b60003073ffffffffffffffffffffffffffffffffffffffff168273ffffffffffffffffffffffffffffffffffffffff16149050949350505050565b60008060009054906101000a900473ffffffffffffffffffffffffffffffffffffffff16905090565b60016020528060005260406000206000915090505481565b61069c61086f565b7f000000000000000000000000000000000000000000000000000000000000000073ffffffffffffffffffffffffffffffffffffffff1663ca5eb5e1826040518263ffffffff1660e01b81526004016106f5919061141a565b600060405180830381600087803b15801561070f57600080fd5b505af1158015610723573d6000803e3d6000fd5b5050505050565b61073261086f565b600073ffffffffffffffffffffffffffffffffffffffff168173ffffffffffffffffffffffffffffffffffffffff16036107a45760006040517f1e4fbdf700000000000000000000000000000000000000000000000000000000815260040161079b919061141a565b60405180910390fd5b6107ad81610b56565b50565b60008160200135600160008460000160208101906107ce9190611435565b63ffffffff1663ffffffff16815260200190815260200160002054149050919050565b600080600160008463ffffffff1663ffffffff1681526020019081526020016000205490506000801b810361085d57826040517ff6ff4fb7000000000000000000000000000000000000000000000000000000008152600401610854919061167a565b60405180910390fd5b80915050919050565b50505050505050565b610877610c1a565b73ffffffffffffffffffffffffffffffffffffffff16610895610653565b73ffffffffffffffffffffffffffffffffffffffff16146108f4576108b8610c1a565b6040517f118cdaa70000000000000000000000000000000000000000000000000000000081526004016108eb919061141a565b60405180910390fd5b565b80600160008463ffffffff1663ffffffff168152602001908152602001600020819055507f238399d427b947898edb290f5ff0f9109849b1c3ba196a42e35f00c50a54b98b828260405161094b9291906114f5565b60405180910390a15050565b61095f610ede565b7f000000000000000000000000000000000000000000000000000000000000000073ffffffffffffffffffffffffffffffffffffffff1663ddc28c586040518060a001604052808863ffffffff1681526020016109bb896107f1565b8152602001878152602001868152602001851515815250306040518363ffffffff1660e01b81526004016109f09291906117be565b6040805180830381865afa158015610a0c573d6000803e3d6000fd5b505050506040513d601f19601f82011682018060405250810190610a3091906118ea565b9050949350505050565b610a42610ef8565b6000610a518460000151610c22565b9050600084602001511115610a6e57610a6d8460200151610c70565b5b7f000000000000000000000000000000000000000000000000000000000000000073ffffffffffffffffffffffffffffffffffffffff16632637a450826040518060a001604052808b63ffffffff168152602001610acb8c6107f1565b81526020018a815260200189815260200160008960200151111515815250866040518463ffffffff1660e01b8152600401610b079291906117be565b60806040518083038185885af1158015610b25573d6000803e3d6000fd5b50505050506040513d601f19601f82011682018060405250810190610b4a91906119bc565b91505095945050505050565b60008060009054906101000a900473ffffffffffffffffffffffffffffffffffffffff169050816000806101000a81548173ffffffffffffffffffffffffffffffffffffffff021916908373ffffffffffffffffffffffffffffffffffffffff1602179055508173ffffffffffffffffffffffffffffffffffffffff168173ffffffffffffffffffffffffffffffffffffffff167f8be0079c531659141344cd1fd0a4f28419497f9722a3daafe3b4186f6b6457e060405160405180910390a35050565b600033905090565b6000813414610c6857346040517f9f704120000000000000000000000000000000000000000000000000000000008152600401610c5f91906119f8565b60405180910390fd5b819050919050565b60007f000000000000000000000000000000000000000000000000000000000000000073ffffffffffffffffffffffffffffffffffffffff1663e4fe1d946040518163ffffffff1660e01b8152600401602060405180830381865afa158015610cdd573d6000803e3d6000fd5b505050506040513d601f19601f82011682018060405250810190610d019190611a28565b9050600073ffffffffffffffffffffffffffffffffffffffff168173ffffffffffffffffffffffffffffffffffffffff1603610d69576040517f5373352a00000000000000000000000000000000000000000000000000000000815260040160405180910390fd5b610db6337f0000000000000000000000000000000000000000000000000000000000000000848473ffffffffffffffffffffffffffffffffffffffff16610dba909392919063ffffffff16565b5050565b610e36848573ffffffffffffffffffffffffffffffffffffffff166323b872dd868686604051602401610def93929190611a55565b604051602081830303815290604052915060e01b6020820180517bffffffffffffffffffffffffffffffffffffffffffffffffffffffff8381831617835250505050610e3c565b50505050565b600080602060008451602086016000885af180610e5f576040513d6000823e3d81fd5b3d925060005191505060008214610e7a576001811415610e96565b60008473ffffffffffffffffffffffffffffffffffffffff163b145b15610ed857836040517f5274afe7000000000000000000000000000000000000000000000000000000008152600401610ecf919061141a565b60405180910390fd5b50505050565b604051806040016040528060008152602001600081525090565b604051806060016040528060008019168152602001600067ffffffffffffffff168152602001610f26610ede565b81525090565b6000604051905090565b600080fd5b600080fd5b600080fd5b600060608284031215610f5b57610f5a610f40565b5b81905092915050565b6000819050919050565b610f7781610f64565b8114610f8257600080fd5b50565b600081359050610f9481610f6e565b92915050565b600080fd5b600080fd5b600080fd5b60008083601f840112610fbf57610fbe610f9a565b5b8235905067ffffffffffffffff811115610fdc57610fdb610f9f565b5b602083019150836001820283011115610ff857610ff7610fa4565b5b9250929050565b600073ffffffffffffffffffffffffffffffffffffffff82169050919050565b600061102a82610fff565b9050919050565b61103a8161101f565b811461104557600080fd5b50565b60008135905061105781611031565b92915050565b600080600080600080600060e0888a03121561107c5761107b610f36565b5b600061108a8a828b01610f45565b975050606061109b8a828b01610f85565b965050608088013567ffffffffffffffff8111156110bc576110bb610f3b565b5b6110c88a828b01610fa9565b955095505060a06110db8a828b01611048565b93505060c088013567ffffffffffffffff8111156110fc576110fb610f3b565b5b6111088a828b01610fa9565b925092505092959891949750929550565b600067ffffffffffffffff82169050919050565b61113681611119565b82525050565b6000604082019050611151600083018561112d565b61115e602083018461112d565b9392505050565b600063ffffffff82169050919050565b61117e81611165565b811461118957600080fd5b50565b60008135905061119b81611175565b92915050565b600080604083850312156111b8576111b7610f36565b5b60006111c68582860161118c565b92505060206111d785828601610f85565b9150509250929050565b60008083601f8401126111f7576111f6610f9a565b5b8235905067ffffffffffffffff81111561121457611213610f9f565b5b6020830191508360018202830111156112305761122f610fa4565b5b9250929050565b60008060008060006060868803121561125357611252610f36565b5b60006112618882890161118c565b955050602086013567ffffffffffffffff81111561128257611281610f3b565b5b61128e888289016111e1565b9450945050604086013567ffffffffffffffff8111156112b1576112b0610f3b565b5b6112bd88828901610fa9565b92509250509295509295909350565b6000819050919050565b60006112f16112ec6112e784610fff565b6112cc565b610fff565b9050919050565b6000611303826112d6565b9050919050565b6000611315826112f8565b9050919050565b6113258161130a565b82525050565b6000602082019050611340600083018461131c565b92915050565b600060208201905061135b600083018461112d565b92915050565b60008060008060a0858703121561137b5761137a610f36565b5b600061138987828801610f45565b945050606085013567ffffffffffffffff8111156113aa576113a9610f3b565b5b6113b687828801610fa9565b935093505060806113c987828801611048565b91505092959194509250565b60008115159050919050565b6113ea816113d5565b82525050565b600060208201905061140560008301846113e1565b92915050565b6114148161101f565b82525050565b600060208201905061142f600083018461140b565b92915050565b60006020828403121561144b5761144a610f36565b5b60006114598482850161118c565b91505092915050565b61146b81610f64565b82525050565b60006020820190506114866000830184611462565b92915050565b6000602082840312156114a2576114a1610f36565b5b60006114b084828501611048565b91505092915050565b6000606082840312156114cf576114ce610f36565b5b60006114dd84828501610f45565b91505092915050565b6114ef81611165565b82525050565b600060408201905061150a60008301856114e6565b6115176020830184611462565b9392505050565b600082825260208201905092915050565b82818337600083830152505050565b6000601f19601f8301169050919050565b600061155b838561151e565b935061156883858461152f565b6115718361153e565b840190509392505050565b6000604082019050611591600083018661140b565b81810360208301526115a481848661154f565b9050949350505050565b7f496e73756666696369656e742066656500000000000000000000000000000000600082015250565b60006115e460108361151e565b91506115ef826115ae565b602082019050919050565b60006020820190508181036000830152611613816115d7565b9050919050565b6000819050919050565b6000819050919050565b600061164961164461163f8461161a565b6112cc565b611624565b9050919050565b6116598161162e565b82525050565b60006020820190506116746000830184611650565b92915050565b600060208201905061168f60008301846114e6565b92915050565b61169e81611165565b82525050565b6116ad81610f64565b82525050565b600081519050919050565b600082825260208201905092915050565b60005b838110156116ed5780820151818401526020810190506116d2565b60008484015250505050565b6000611704826116b3565b61170e81856116be565b935061171e8185602086016116cf565b6117278161153e565b840191505092915050565b61173b816113d5565b82525050565b600060a0830160008301516117596000860182611695565b50602083015161176c60208601826116a4565b506040830151848203604086015261178482826116f9565b9150506060830151848203606086015261179e82826116f9565b91505060808301516117b36080860182611732565b508091505092915050565b600060408201905081810360008301526117d88185611741565b90506117e7602083018461140b565b9392505050565b600080fd5b7f4e487b7100000000000000000000000000000000000000000000000000000000600052604160045260246000fd5b61182b8261153e565b810181811067ffffffffffffffff8211171561184a576118496117f3565b5b80604052505050565b600061185d610f2c565b90506118698282611822565b919050565b61187781611624565b811461188257600080fd5b50565b6000815190506118948161186e565b92915050565b6000604082840312156118b0576118af6117ee565b5b6118ba6040611853565b905060006118ca84828501611885565b60008301525060206118de84828501611885565b60208301525092915050565b600060408284031215611900576118ff610f36565b5b600061190e8482850161189a565b91505092915050565b60008151905061192681610f6e565b92915050565b61193581611119565b811461194057600080fd5b50565b6000815190506119528161192c565b92915050565b60006080828403121561196e5761196d6117ee565b5b6119786060611853565b9050600061198884828501611917565b600083015250602061199c84828501611943565b60208301525060406119b08482850161189a565b60408301525092915050565b6000608082840312156119d2576119d1610f36565b5b60006119e084828501611958565b91505092915050565b6119f281611624565b82525050565b6000602082019050611a0d60008301846119e9565b92915050565b600081519050611a2281611031565b92915050565b600060208284031215611a3e57611a3d610f36565b5b6000611a4c84828501611a13565b91505092915050565b6000606082019050611a6a600083018661140b565b611a77602083018561140b565b611a8460408301846119e9565b94935050505056fea26469706673582212202abd7b4714be1e5b703a9bc6eab22b85a46c4ba400dbc947509c2a355f784d3b64736f6c634300081c0033",
					"opcodes": "PUSH1 0xA0 PUSH1 0x40 MSTORE CALLVALUE DUP1 ISZERO PUSH2 0x10 JUMPI PUSH1 0x0 DUP1 REVERT JUMPDEST POP PUSH1 0x40 MLOAD PUSH2 0x1E72 CODESIZE SUB DUP1 PUSH2 0x1E72 DUP4 CODECOPY DUP2 DUP2 ADD PUSH1 0x40 MSTORE DUP2 ADD SWAP1 PUSH2 0x32 SWAP2 SWAP1 PUSH2 0x301 JUMP JUMPDEST DUP2 DUP2 DUP2 DUP2 CALLER PUSH1 0x0 PUSH20 0xFFFFFFFFFFFFFFFFFFFFFFFFFFFFFFFFFFFFFFFF AND DUP2 PUSH20 0xFFFFFFFFFFFFFFFFFFFFFFFFFFFFFFFFFFFFFFFF AND SUB PUSH2 0xA9 JUMPI PUSH1 0x0 PUSH1 0x40 MLOAD PUSH32 0x1E4FBDF700000000000000000000000000000000000000000000000000000000 DUP2 MSTORE PUSH1 0x4 ADD PUSH2 0xA0 SWAP2 SWAP1 PUSH2 0x350 JUMP JUMPDEST PUSH1 0x40 MLOAD DUP1 SWAP2 SUB SWAP1 REVERT JUMPDEST PUSH2 0xB8 DUP2 PUSH2 0x1DA PUSH1 0x20 SHL PUSH1 0x20 SHR JUMP JUMPDEST POP DUP2 PUSH20 0xFFFFFFFFFFFFFFFFFFFFFFFFFFFFFFFFFFFFFFFF AND PUSH1 0x80 DUP2 PUSH20 0xFFFFFFFFFFFFFFFFFFFFFFFFFFFFFFFFFFFFFFFF AND DUP2 MSTORE POP POP PUSH1 0x0 PUSH20 0xFFFFFFFFFFFFFFFFFFFFFFFFFFFFFFFFFFFFFFFF AND DUP2 PUSH20 0xFFFFFFFFFFFFFFFFFFFFFFFFFFFFFFFFFFFFFFFF AND SUB PUSH2 0x153 JUMPI PUSH1 0x40 MLOAD PUSH32 0xB586360400000000000000000000000000000000000000000000000000000000 DUP2 MSTORE PUSH1 0x4 ADD PUSH1 0x40 MLOAD DUP1 SWAP2 SUB SWAP1 REVERT JUMPDEST PUSH1 0x80 MLOAD PUSH20 0xFFFFFFFFFFFFFFFFFFFFFFFFFFFFFFFFFFFFFFFF AND PUSH4 0xCA5EB5E1 DUP3 PUSH1 0x40 MLOAD DUP3 PUSH4 0xFFFFFFFF AND PUSH1 0xE0 SHL DUP2 MSTORE PUSH1 0x4 ADD PUSH2 0x18E SWAP2 SWAP1 PUSH2 0x350 JUMP JUMPDEST PUSH1 0x0 PUSH1 0x40 MLOAD DUP1 DUP4 SUB DUP2 PUSH1 0x0 DUP8 DUP1 EXTCODESIZE ISZERO DUP1 ISZERO PUSH2 0x1A8 JUMPI PUSH1 0x0 DUP1 REVERT JUMPDEST POP GAS CALL ISZERO DUP1 ISZERO PUSH2 0x1BC JUMPI RETURNDATASIZE PUSH1 0x0 DUP1 RETURNDATACOPY RETURNDATASIZE PUSH1 0x0 REVERT JUMPDEST POP POP POP POP POP POP POP POP PUSH2 0x1D3 DUP2 PUSH2 0x1DA PUSH1 0x20 SHL PUSH1 0x20 SHR JUMP JUMPDEST POP POP PUSH2 0x36B JUMP JUMPDEST PUSH1 0x0 DUP1 PUSH1 0x0 SWAP1 SLOAD SWAP1 PUSH2 0x100 EXP SWAP1 DIV PUSH20 0xFFFFFFFFFFFFFFFFFFFFFFFFFFFFFFFFFFFFFFFF AND SWAP1 POP DUP2 PUSH1 0x0 DUP1 PUSH2 0x100 EXP DUP2 SLOAD DUP2 PUSH20 0xFFFFFFFFFFFFFFFFFFFFFFFFFFFFFFFFFFFFFFFF MUL NOT AND SWAP1 DUP4 PUSH20 0xFFFFFFFFFFFFFFFFFFFFFFFFFFFFFFFFFFFFFFFF AND MUL OR SWAP1 SSTORE POP DUP2 PUSH20 0xFFFFFFFFFFFFFFFFFFFFFFFFFFFFFFFFFFFFFFFF AND DUP2 PUSH20 0xFFFFFFFFFFFFFFFFFFFFFFFFFFFFFFFFFFFFFFFF AND PUSH32 0x8BE0079C531659141344CD1FD0A4F28419497F9722A3DAAFE3B4186F6B6457E0 PUSH1 0x40 MLOAD PUSH1 0x40 MLOAD DUP1 SWAP2 SUB SWAP1 LOG3 POP POP JUMP JUMPDEST PUSH1 0x0 DUP1 REVERT JUMPDEST PUSH1 0x0 PUSH20 0xFFFFFFFFFFFFFFFFFFFFFFFFFFFFFFFFFFFFFFFF DUP3 AND SWAP1 POP SWAP2 SWAP1 POP JUMP JUMPDEST PUSH1 0x0 PUSH2 0x2CE DUP3 PUSH2 0x2A3 JUMP JUMPDEST SWAP1 POP SWAP2 SWAP1 POP JUMP JUMPDEST PUSH2 0x2DE DUP2 PUSH2 0x2C3 JUMP JUMPDEST DUP2 EQ PUSH2 0x2E9 JUMPI PUSH1 0x0 DUP1 REVERT JUMPDEST POP JUMP JUMPDEST PUSH1 0x0 DUP2 MLOAD SWAP1 POP PUSH2 0x2FB DUP2 PUSH2 0x2D5 JUMP JUMPDEST SWAP3 SWAP2 POP POP JUMP JUMPDEST PUSH1 0x0 DUP1 PUSH1 0x40 DUP4 DUP6 SUB SLT ISZERO PUSH2 0x318 JUMPI PUSH2 0x317 PUSH2 0x29E JUMP JUMPDEST JUMPDEST PUSH1 0x0 PUSH2 0x326 DUP6 DUP3 DUP7 ADD PUSH2 0x2EC JUMP JUMPDEST SWAP3 POP POP PUSH1 0x20 PUSH2 0x337 DUP6 DUP3 DUP7 ADD PUSH2 0x2EC JUMP JUMPDEST SWAP2 POP POP SWAP3 POP SWAP3 SWAP1 POP JUMP JUMPDEST PUSH2 0x34A DUP2 PUSH2 0x2C3 JUMP JUMPDEST DUP3 MSTORE POP POP JUMP JUMPDEST PUSH1 0x0 PUSH1 0x20 DUP3 ADD SWAP1 POP PUSH2 0x365 PUSH1 0x0 DUP4 ADD DUP5 PUSH2 0x341 JUMP JUMPDEST SWAP3 SWAP2 POP POP JUMP JUMPDEST PUSH1 0x80 MLOAD PUSH2 0x1AC2 PUSH2 0x3B0 PUSH1 0x0 CODECOPY PUSH1 0x0 DUP2 DUP2 PUSH2 0x320 ADD MSTORE DUP2 DUP2 PUSH2 0x5DA ADD MSTORE DUP2 DUP2 PUSH2 0x69E ADD MSTORE DUP2 DUP2 PUSH2 0x961 ADD MSTORE DUP2 DUP2 PUSH2 0xA70 ADD MSTORE DUP2 DUP2 PUSH2 0xC74 ADD MSTORE PUSH2 0xD6F ADD MSTORE PUSH2 0x1AC2 PUSH1 0x0 RETURN INVALID PUSH1 0x80 PUSH1 0x40 MSTORE PUSH1 0x4 CALLDATASIZE LT PUSH2 0xC2 JUMPI PUSH1 0x0 CALLDATALOAD PUSH1 0xE0 SHR DUP1 PUSH4 0x7D25A05E GT PUSH2 0x7F JUMPI DUP1 PUSH4 0xBB0B6A53 GT PUSH2 0x59 JUMPI DUP1 PUSH4 0xBB0B6A53 EQ PUSH2 0x23B JUMPI DUP1 PUSH4 0xCA5EB5E1 EQ PUSH2 0x278 JUMPI DUP1 PUSH4 0xF2FDE38B EQ PUSH2 0x2A1 JUMPI DUP1 PUSH4 0xFF7BD03D EQ PUSH2 0x2CA JUMPI PUSH2 0xC2 JUMP JUMPDEST DUP1 PUSH4 0x7D25A05E EQ PUSH2 0x196 JUMPI DUP1 PUSH4 0x82413EAC EQ PUSH2 0x1D3 JUMPI DUP1 PUSH4 0x8DA5CB5B EQ PUSH2 0x210 JUMPI PUSH2 0xC2 JUMP JUMPDEST DUP1 PUSH4 0x13137D65 EQ PUSH2 0xC7 JUMPI DUP1 PUSH4 0x17442B70 EQ PUSH2 0xE3 JUMPI DUP1 PUSH4 0x3400288B EQ PUSH2 0x10F JUMPI DUP1 PUSH4 0x38F87D30 EQ PUSH2 0x138 JUMPI DUP1 PUSH4 0x5E280F11 EQ PUSH2 0x154 JUMPI DUP1 PUSH4 0x715018A6 EQ PUSH2 0x17F JUMPI JUMPDEST PUSH1 0x0 DUP1 REVERT JUMPDEST PUSH2 0xE1 PUSH1 0x4 DUP1 CALLDATASIZE SUB DUP2 ADD SWAP1 PUSH2 0xDC SWAP2 SWAP1 PUSH2 0x105D JUMP JUMPDEST PUSH2 0x307 JUMP JUMPDEST STOP JUMPDEST CALLVALUE DUP1 ISZERO PUSH2 0xEF JUMPI PUSH1 0x0 DUP1 REVERT JUMPDEST POP PUSH2 0xF8 PUSH2 0x429 JUMP JUMPDEST PUSH1 0x40 MLOAD PUSH2 0x106 SWAP3 SWAP2 SWAP1 PUSH2 0x113C JUMP JUMPDEST PUSH1 0x40 MLOAD DUP1 SWAP2 SUB SWAP1 RETURN JUMPDEST CALLVALUE DUP1 ISZERO PUSH2 0x11B JUMPI PUSH1 0x0 DUP1 REVERT JUMPDEST POP PUSH2 0x136 PUSH1 0x4 DUP1 CALLDATASIZE SUB DUP2 ADD SWAP1 PUSH2 0x131 SWAP2 SWAP1 PUSH2 0x11A1 JUMP JUMPDEST PUSH2 0x438 JUMP JUMPDEST STOP JUMPDEST PUSH2 0x152 PUSH1 0x4 DUP1 CALLDATASIZE SUB DUP2 ADD SWAP1 PUSH2 0x14D SWAP2 SWAP1 PUSH2 0x1237 JUMP JUMPDEST PUSH2 0x44E JUMP JUMPDEST STOP JUMPDEST CALLVALUE DUP1 ISZERO PUSH2 0x160 JUMPI PUSH1 0x0 DUP1 REVERT JUMPDEST POP PUSH2 0x169 PUSH2 0x5D8 JUMP JUMPDEST PUSH1 0x40 MLOAD PUSH2 0x176 SWAP2 SWAP1 PUSH2 0x132B JUMP JUMPDEST PUSH1 0x40 MLOAD DUP1 SWAP2 SUB SWAP1 RETURN JUMPDEST CALLVALUE DUP1 ISZERO PUSH2 0x18B JUMPI PUSH1 0x0 DUP1 REVERT JUMPDEST POP PUSH2 0x194 PUSH2 0x5FC JUMP JUMPDEST STOP JUMPDEST CALLVALUE DUP1 ISZERO PUSH2 0x1A2 JUMPI PUSH1 0x0 DUP1 REVERT JUMPDEST POP PUSH2 0x1BD PUSH1 0x4 DUP1 CALLDATASIZE SUB DUP2 ADD SWAP1 PUSH2 0x1B8 SWAP2 SWAP1 PUSH2 0x11A1 JUMP JUMPDEST PUSH2 0x610 JUMP JUMPDEST PUSH1 0x40 MLOAD PUSH2 0x1CA SWAP2 SWAP1 PUSH2 0x1346 JUMP JUMPDEST PUSH1 0x40 MLOAD DUP1 SWAP2 SUB SWAP1 RETURN JUMPDEST CALLVALUE DUP1 ISZERO PUSH2 0x1DF JUMPI PUSH1 0x0 DUP1 REVERT JUMPDEST POP PUSH2 0x1FA PUSH1 0x4 DUP1 CALLDATASIZE SUB DUP2 ADD SWAP1 PUSH2 0x1F5 SWAP2 SWAP1 PUSH2 0x1361 JUMP JUMPDEST PUSH2 0x618 JUMP JUMPDEST PUSH1 0x40 MLOAD PUSH2 0x207 SWAP2 SWAP1 PUSH2 0x13F0 JUMP JUMPDEST PUSH1 0x40 MLOAD DUP1 SWAP2 SUB SWAP1 RETURN JUMPDEST CALLVALUE DUP1 ISZERO PUSH2 0x21C JUMPI PUSH1 0x0 DUP1 REVERT JUMPDEST POP PUSH2 0x225 PUSH2 0x653 JUMP JUMPDEST PUSH1 0x40 MLOAD PUSH2 0x232 SWAP2 SWAP1 PUSH2 0x141A JUMP JUMPDEST PUSH1 0x40 MLOAD DUP1 SWAP2 SUB SWAP1 RETURN JUMPDEST CALLVALUE DUP1 ISZERO PUSH2 0x247 JUMPI PUSH1 0x0 DUP1 REVERT JUMPDEST POP PUSH2 0x262 PUSH1 0x4 DUP1 CALLDATASIZE SUB DUP2 ADD SWAP1 PUSH2 0x25D SWAP2 SWAP1 PUSH2 0x1435 JUMP JUMPDEST PUSH2 0x67C JUMP JUMPDEST PUSH1 0x40 MLOAD PUSH2 0x26F SWAP2 SWAP1 PUSH2 0x1471 JUMP JUMPDEST PUSH1 0x40 MLOAD DUP1 SWAP2 SUB SWAP1 RETURN JUMPDEST CALLVALUE DUP1 ISZERO PUSH2 0x284 JUMPI PUSH1 0x0 DUP1 REVERT JUMPDEST POP PUSH2 0x29F PUSH1 0x4 DUP1 CALLDATASIZE SUB DUP2 ADD SWAP1 PUSH2 0x29A SWAP2 SWAP1 PUSH2 0x148C JUMP JUMPDEST PUSH2 0x694 JUMP JUMPDEST STOP JUMPDEST CALLVALUE DUP1 ISZERO PUSH2 0x2AD JUMPI PUSH1 0x0 DUP1 REVERT JUMPDEST POP PUSH2 0x2C8 PUSH1 0x4 DUP1 CALLDATASIZE SUB DUP2 ADD SWAP1 PUSH2 0x2C3 SWAP2 SWAP1 PUSH2 0x148C JUMP JUMPDEST PUSH2 0x72A JUMP JUMPDEST STOP JUMPDEST CALLVALUE DUP1 ISZERO PUSH2 0x2D6 JUMPI PUSH1 0x0 DUP1 REVERT JUMPDEST POP PUSH2 0x2F1 PUSH1 0x4 DUP1 CALLDATASIZE SUB DUP2 ADD SWAP1 PUSH2 0x2EC SWAP2 SWAP1 PUSH2 0x14B9 JUMP JUMPDEST PUSH2 0x7B0 JUMP JUMPDEST PUSH1 0x40 MLOAD PUSH2 0x2FE SWAP2 SWAP1 PUSH2 0x13F0 JUMP JUMPDEST PUSH1 0x40 MLOAD DUP1 SWAP2 SUB SWAP1 RETURN JUMPDEST CALLER PUSH20 0xFFFFFFFFFFFFFFFFFFFFFFFFFFFFFFFFFFFFFFFF AND PUSH32 0x0 PUSH20 0xFFFFFFFFFFFFFFFFFFFFFFFFFFFFFFFFFFFFFFFF AND EQ PUSH2 0x397 JUMPI CALLER PUSH1 0x40 MLOAD PUSH32 0x91AC5E4F00000000000000000000000000000000000000000000000000000000 DUP2 MSTORE PUSH1 0x4 ADD PUSH2 0x38E SWAP2 SWAP1 PUSH2 0x141A JUMP JUMPDEST PUSH1 0x40 MLOAD DUP1 SWAP2 SUB SWAP1 REVERT JUMPDEST DUP7 PUSH1 0x20 ADD CALLDATALOAD PUSH2 0x3B7 DUP9 PUSH1 0x0 ADD PUSH1 0x20 DUP2 ADD SWAP1 PUSH2 0x3B2 SWAP2 SWAP1 PUSH2 0x1435 JUMP JUMPDEST PUSH2 0x7F1 JUMP JUMPDEST EQ PUSH2 0x411 JUMPI DUP7 PUSH1 0x0 ADD PUSH1 0x20 DUP2 ADD SWAP1 PUSH2 0x3CF SWAP2 SWAP1 PUSH2 0x1435 JUMP JUMPDEST DUP8 PUSH1 0x20 ADD CALLDATALOAD PUSH1 0x40 MLOAD PUSH32 0xC26BEBCC00000000000000000000000000000000000000000000000000000000 DUP2 MSTORE PUSH1 0x4 ADD PUSH2 0x408 SWAP3 SWAP2 SWAP1 PUSH2 0x14F5 JUMP JUMPDEST PUSH1 0x40 MLOAD DUP1 SWAP2 SUB SWAP1 REVERT JUMPDEST PUSH2 0x420 DUP8 DUP8 DUP8 DUP8 DUP8 DUP8 DUP8 PUSH2 0x866 JUMP JUMPDEST POP POP POP POP POP POP POP JUMP JUMPDEST PUSH1 0x0 DUP1 PUSH1 0x1 PUSH1 0x2 SWAP2 POP SWAP2 POP SWAP1 SWAP2 JUMP JUMPDEST PUSH2 0x440 PUSH2 0x86F JUMP JUMPDEST PUSH2 0x44A DUP3 DUP3 PUSH2 0x8F6 JUMP JUMPDEST POP POP JUMP JUMPDEST PUSH1 0x0 CALLER DUP6 DUP6 PUSH1 0x40 MLOAD PUSH1 0x20 ADD PUSH2 0x465 SWAP4 SWAP3 SWAP2 SWAP1 PUSH2 0x157C JUMP JUMPDEST PUSH1 0x40 MLOAD PUSH1 0x20 DUP2 DUP4 SUB SUB DUP2 MSTORE SWAP1 PUSH1 0x40 MSTORE SWAP1 POP PUSH1 0x0 PUSH2 0x4C9 DUP8 DUP4 DUP7 DUP7 DUP1 DUP1 PUSH1 0x1F ADD PUSH1 0x20 DUP1 SWAP2 DIV MUL PUSH1 0x20 ADD PUSH1 0x40 MLOAD SWAP1 DUP2 ADD PUSH1 0x40 MSTORE DUP1 SWAP4 SWAP3 SWAP2 SWAP1 DUP2 DUP2 MSTORE PUSH1 0x20 ADD DUP4 DUP4 DUP1 DUP3 DUP5 CALLDATACOPY PUSH1 0x0 DUP2 DUP5 ADD MSTORE PUSH1 0x1F NOT PUSH1 0x1F DUP3 ADD AND SWAP1 POP DUP1 DUP4 ADD SWAP3 POP POP POP POP POP POP POP PUSH1 0x0 PUSH2 0x957 JUMP JUMPDEST SWAP1 POP DUP1 PUSH1 0x0 ADD MLOAD CALLVALUE LT ISZERO PUSH2 0x512 JUMPI PUSH1 0x40 MLOAD PUSH32 0x8C379A000000000000000000000000000000000000000000000000000000000 DUP2 MSTORE PUSH1 0x4 ADD PUSH2 0x509 SWAP1 PUSH2 0x15FA JUMP JUMPDEST PUSH1 0x40 MLOAD DUP1 SWAP2 SUB SWAP1 REVERT JUMPDEST PUSH2 0x578 DUP8 DUP4 DUP7 DUP7 DUP1 DUP1 PUSH1 0x1F ADD PUSH1 0x20 DUP1 SWAP2 DIV MUL PUSH1 0x20 ADD PUSH1 0x40 MLOAD SWAP1 DUP2 ADD PUSH1 0x40 MSTORE DUP1 SWAP4 SWAP3 SWAP2 SWAP1 DUP2 DUP2 MSTORE PUSH1 0x20 ADD DUP4 DUP4 DUP1 DUP3 DUP5 CALLDATACOPY PUSH1 0x0 DUP2 DUP5 ADD MSTORE PUSH1 0x1F NOT PUSH1 0x1F DUP3 ADD AND SWAP1 POP DUP1 DUP4 ADD SWAP3 POP POP POP POP POP POP POP PUSH1 0x40 MLOAD DUP1 PUSH1 0x40 ADD PUSH1 0x40 MSTORE DUP1 CALLVALUE DUP2 MSTORE PUSH1 0x20 ADD PUSH1 0x0 DUP2 MSTORE POP CALLER PUSH2 0xA3A JUMP JUMPDEST POP CALLER PUSH20 0xFFFFFFFFFFFFFFFFFFFFFFFFFFFFFFFFFFFFFFFF AND DUP8 PUSH4 0xFFFFFFFF AND PUSH32 0x3A78D28DC1C3123C826D1ABDC91108B02726D180A719A597AAAA783D5E449715 PUSH1 0x0 PUSH1 0x40 MLOAD PUSH2 0x5C7 SWAP2 SWAP1 PUSH2 0x165F JUMP JUMPDEST PUSH1 0x40 MLOAD DUP1 SWAP2 SUB SWAP1 LOG3 POP POP POP POP POP POP POP JUMP JUMPDEST PUSH32 0x0 DUP2 JUMP JUMPDEST PUSH2 0x604 PUSH2 0x86F JUMP JUMPDEST PUSH2 0x60E PUSH1 0x0 PUSH2 0xB56 JUMP JUMPDEST JUMP JUMPDEST PUSH1 0x0 SWAP3 SWAP2 POP POP JUMP JUMPDEST PUSH1 0x0 ADDRESS PUSH20 0xFFFFFFFFFFFFFFFFFFFFFFFFFFFFFFFFFFFFFFFF AND DUP3 PUSH20 0xFFFFFFFFFFFFFFFFFFFFFFFFFFFFFFFFFFFFFFFF AND EQ SWAP1 POP SWAP5 SWAP4 POP POP POP POP JUMP JUMPDEST PUSH1 0x0 DUP1 PUSH1 0x0 SWAP1 SLOAD SWAP1 PUSH2 0x100 EXP SWAP1 DIV PUSH20 0xFFFFFFFFFFFFFFFFFFFFFFFFFFFFFFFFFFFFFFFF AND SWAP1 POP SWAP1 JUMP JUMPDEST PUSH1 0x1 PUSH1 0x20 MSTORE DUP1 PUSH1 0x0 MSTORE PUSH1 0x40 PUSH1 0x0 KECCAK256 PUSH1 0x0 SWAP2 POP SWAP1 POP SLOAD DUP2 JUMP JUMPDEST PUSH2 0x69C PUSH2 0x86F JUMP JUMPDEST PUSH32 0x0 PUSH20 0xFFFFFFFFFFFFFFFFFFFFFFFFFFFFFFFFFFFFFFFF AND PUSH4 0xCA5EB5E1 DUP3 PUSH1 0x40 MLOAD DUP3 PUSH4 0xFFFFFFFF AND PUSH1 0xE0 SHL DUP2 MSTORE PUSH1 0x4 ADD PUSH2 0x6F5 SWAP2 SWAP1 PUSH2 0x141A JUMP JUMPDEST PUSH1 0x0 PUSH1 0x40 MLOAD DUP1 DUP4 SUB DUP2 PUSH1 0x0 DUP8 DUP1 EXTCODESIZE ISZERO DUP1 ISZERO PUSH2 0x70F JUMPI PUSH1 0x0 DUP1 REVERT JUMPDEST POP GAS CALL ISZERO DUP1 ISZERO PUSH2 0x723 JUMPI RETURNDATASIZE PUSH1 0x0 DUP1 RETURNDATACOPY RETURNDATASIZE PUSH1 0x0 REVERT JUMPDEST POP POP POP POP POP JUMP JUMPDEST PUSH2 0x732 PUSH2 0x86F JUMP JUMPDEST PUSH1 0x0 PUSH20 0xFFFFFFFFFFFFFFFFFFFFFFFFFFFFFFFFFFFFFFFF AND DUP2 PUSH20 0xFFFFFFFFFFFFFFFFFFFFFFFFFFFFFFFFFFFFFFFF AND SUB PUSH2 0x7A4 JUMPI PUSH1 0x0 PUSH1 0x40 MLOAD PUSH32 0x1E4FBDF700000000000000000000000000000000000000000000000000000000 DUP2 MSTORE PUSH1 0x4 ADD PUSH2 0x79B SWAP2 SWAP1 PUSH2 0x141A JUMP JUMPDEST PUSH1 0x40 MLOAD DUP1 SWAP2 SUB SWAP1 REVERT JUMPDEST PUSH2 0x7AD DUP2 PUSH2 0xB56 JUMP JUMPDEST POP JUMP JUMPDEST PUSH1 0x0 DUP2 PUSH1 0x20 ADD CALLDATALOAD PUSH1 0x1 PUSH1 0x0 DUP5 PUSH1 0x0 ADD PUSH1 0x20 DUP2 ADD SWAP1 PUSH2 0x7CE SWAP2 SWAP1 PUSH2 0x1435 JUMP JUMPDEST PUSH4 0xFFFFFFFF AND PUSH4 0xFFFFFFFF AND DUP2 MSTORE PUSH1 0x20 ADD SWAP1 DUP2 MSTORE PUSH1 0x20 ADD PUSH1 0x0 KECCAK256 SLOAD EQ SWAP1 POP SWAP2 SWAP1 POP JUMP JUMPDEST PUSH1 0x0 DUP1 PUSH1 0x1 PUSH1 0x0 DUP5 PUSH4 0xFFFFFFFF AND PUSH4 0xFFFFFFFF AND DUP2 MSTORE PUSH1 0x20 ADD SWAP1 DUP2 MSTORE PUSH1 0x20 ADD PUSH1 0x0 KECCAK256 SLOAD SWAP1 POP PUSH1 0x0 DUP1 SHL DUP2 SUB PUSH2 0x85D JUMPI DUP3 PUSH1 0x40 MLOAD PUSH32 0xF6FF4FB700000000000000000000000000000000000000000000000000000000 DUP2 MSTORE PUSH1 0x4 ADD PUSH2 0x854 SWAP2 SWAP1 PUSH2 0x167A JUMP JUMPDEST PUSH1 0x40 MLOAD DUP1 SWAP2 SUB SWAP1 REVERT JUMPDEST DUP1 SWAP2 POP POP SWAP2 SWAP1 POP JUMP JUMPDEST POP POP POP POP POP POP POP JUMP JUMPDEST PUSH2 0x877 PUSH2 0xC1A JUMP JUMPDEST PUSH20 0xFFFFFFFFFFFFFFFFFFFFFFFFFFFFFFFFFFFFFFFF AND PUSH2 0x895 PUSH2 0x653 JUMP JUMPDEST PUSH20 0xFFFFFFFFFFFFFFFFFFFFFFFFFFFFFFFFFFFFFFFF AND EQ PUSH2 0x8F4 JUMPI PUSH2 0x8B8 PUSH2 0xC1A JUMP JUMPDEST PUSH1 0x40 MLOAD PUSH32 0x118CDAA700000000000000000000000000000000000000000000000000000000 DUP2 MSTORE PUSH1 0x4 ADD PUSH2 0x8EB SWAP2 SWAP1 PUSH2 0x141A JUMP JUMPDEST PUSH1 0x40 MLOAD DUP1 SWAP2 SUB SWAP1 REVERT JUMPDEST JUMP JUMPDEST DUP1 PUSH1 0x1 PUSH1 0x0 DUP5 PUSH4 0xFFFFFFFF AND PUSH4 0xFFFFFFFF AND DUP2 MSTORE PUSH1 0x20 ADD SWAP1 DUP2 MSTORE PUSH1 0x20 ADD PUSH1 0x0 KECCAK256 DUP2 SWAP1 SSTORE POP PUSH32 0x238399D427B947898EDB290F5FF0F9109849B1C3BA196A42E35F00C50A54B98B DUP3 DUP3 PUSH1 0x40 MLOAD PUSH2 0x94B SWAP3 SWAP2 SWAP1 PUSH2 0x14F5 JUMP JUMPDEST PUSH1 0x40 MLOAD DUP1 SWAP2 SUB SWAP1 LOG1 POP POP JUMP JUMPDEST PUSH2 0x95F PUSH2 0xEDE JUMP JUMPDEST PUSH32 0x0 PUSH20 0xFFFFFFFFFFFFFFFFFFFFFFFFFFFFFFFFFFFFFFFF AND PUSH4 0xDDC28C58 PUSH1 0x40 MLOAD DUP1 PUSH1 0xA0 ADD PUSH1 0x40 MSTORE DUP1 DUP9 PUSH4 0xFFFFFFFF AND DUP2 MSTORE PUSH1 0x20 ADD PUSH2 0x9BB DUP10 PUSH2 0x7F1 JUMP JUMPDEST DUP2 MSTORE PUSH1 0x20 ADD DUP8 DUP2 MSTORE PUSH1 0x20 ADD DUP7 DUP2 MSTORE PUSH1 0x20 ADD DUP6 ISZERO ISZERO DUP2 MSTORE POP ADDRESS PUSH1 0x40 MLOAD DUP4 PUSH4 0xFFFFFFFF AND PUSH1 0xE0 SHL DUP2 MSTORE PUSH1 0x4 ADD PUSH2 0x9F0 SWAP3 SWAP2 SWAP1 PUSH2 0x17BE JUMP JUMPDEST PUSH1 0x40 DUP1 MLOAD DUP1 DUP4 SUB DUP2 DUP7 GAS STATICCALL ISZERO DUP1 ISZERO PUSH2 0xA0C JUMPI RETURNDATASIZE PUSH1 0x0 DUP1 RETURNDATACOPY RETURNDATASIZE PUSH1 0x0 REVERT JUMPDEST POP POP POP POP PUSH1 0x40 MLOAD RETURNDATASIZE PUSH1 0x1F NOT PUSH1 0x1F DUP3 ADD AND DUP3 ADD DUP1 PUSH1 0x40 MSTORE POP DUP2 ADD SWAP1 PUSH2 0xA30 SWAP2 SWAP1 PUSH2 0x18EA JUMP JUMPDEST SWAP1 POP SWAP5 SWAP4 POP POP POP POP JUMP JUMPDEST PUSH2 0xA42 PUSH2 0xEF8 JUMP JUMPDEST PUSH1 0x0 PUSH2 0xA51 DUP5 PUSH1 0x0 ADD MLOAD PUSH2 0xC22 JUMP JUMPDEST SWAP1 POP PUSH1 0x0 DUP5 PUSH1 0x20 ADD MLOAD GT ISZERO PUSH2 0xA6E JUMPI PUSH2 0xA6D DUP5 PUSH1 0x20 ADD MLOAD PUSH2 0xC70 JUMP JUMPDEST JUMPDEST PUSH32 0x0 PUSH20 0xFFFFFFFFFFFFFFFFFFFFFFFFFFFFFFFFFFFFFFFF AND PUSH4 0x2637A450 DUP3 PUSH1 0x40 MLOAD DUP1 PUSH1 0xA0 ADD PUSH1 0x40 MSTORE DUP1 DUP12 PUSH4 0xFFFFFFFF AND DUP2 MSTORE PUSH1 0x20 ADD PUSH2 0xACB DUP13 PUSH2 0x7F1 JUMP JUMPDEST DUP2 MSTORE PUSH1 0x20 ADD DUP11 DUP2 MSTORE PUSH1 0x20 ADD DUP10 DUP2 MSTORE PUSH1 0x20 ADD PUSH1 0x0 DUP10 PUSH1 0x20 ADD MLOAD GT ISZERO ISZERO DUP2 MSTORE POP DUP7 PUSH1 0x40 MLOAD DUP5 PUSH4 0xFFFFFFFF AND PUSH1 0xE0 SHL DUP2 MSTORE PUSH1 0x4 ADD PUSH2 0xB07 SWAP3 SWAP2 SWAP1 PUSH2 0x17BE JUMP JUMPDEST PUSH1 0x80 PUSH1 0x40 MLOAD DUP1 DUP4 SUB DUP2 DUP6 DUP9 GAS CALL ISZERO DUP1 ISZERO PUSH2 0xB25 JUMPI RETURNDATASIZE PUSH1 0x0 DUP1 RETURNDATACOPY RETURNDATASIZE PUSH1 0x0 REVERT JUMPDEST POP POP POP POP POP PUSH1 0x40 MLOAD RETURNDATASIZE PUSH1 0x1F NOT PUSH1 0x1F DUP3 ADD AND DUP3 ADD DUP1 PUSH1 0x40 MSTORE POP DUP2 ADD SWAP1 PUSH2 0xB4A SWAP2 SWAP1 PUSH2 0x19BC JUMP JUMPDEST SWAP2 POP POP SWAP6 SWAP5 POP POP POP POP POP JUMP JUMPDEST PUSH1 0x0 DUP1 PUSH1 0x0 SWAP1 SLOAD SWAP1 PUSH2 0x100 EXP SWAP1 DIV PUSH20 0xFFFFFFFFFFFFFFFFFFFFFFFFFFFFFFFFFFFFFFFF AND SWAP1 POP DUP2 PUSH1 0x0 DUP1 PUSH2 0x100 EXP DUP2 SLOAD DUP2 PUSH20 0xFFFFFFFFFFFFFFFFFFFFFFFFFFFFFFFFFFFFFFFF MUL NOT AND SWAP1 DUP4 PUSH20 0xFFFFFFFFFFFFFFFFFFFFFFFFFFFFFFFFFFFFFFFF AND MUL OR SWAP1 SSTORE POP DUP2 PUSH20 0xFFFFFFFFFFFFFFFFFFFFFFFFFFFFFFFFFFFFFFFF AND DUP2 PUSH20 0xFFFFFFFFFFFFFFFFFFFFFFFFFFFFFFFFFFFFFFFF AND PUSH32 0x8BE0079C531659141344CD1FD0A4F28419497F9722A3DAAFE3B4186F6B6457E0 PUSH1 0x40 MLOAD PUSH1 0x40 MLOAD DUP1 SWAP2 SUB SWAP1 LOG3 POP POP JUMP JUMPDEST PUSH1 0x0 CALLER SWAP1 POP SWAP1 JUMP JUMPDEST PUSH1 0x0 DUP2 CALLVALUE EQ PUSH2 0xC68 JUMPI CALLVALUE PUSH1 0x40 MLOAD PUSH32 0x9F70412000000000000000000000000000000000000000000000000000000000 DUP2 MSTORE PUSH1 0x4 ADD PUSH2 0xC5F SWAP2 SWAP1 PUSH2 0x19F8 JUMP JUMPDEST PUSH1 0x40 MLOAD DUP1 SWAP2 SUB SWAP1 REVERT JUMPDEST DUP2 SWAP1 POP SWAP2 SWAP1 POP JUMP JUMPDEST PUSH1 0x0 PUSH32 0x0 PUSH20 0xFFFFFFFFFFFFFFFFFFFFFFFFFFFFFFFFFFFFFFFF AND PUSH4 0xE4FE1D94 PUSH1 0x40 MLOAD DUP2 PUSH4 0xFFFFFFFF AND PUSH1 0xE0 SHL DUP2 MSTORE PUSH1 0x4 ADD PUSH1 0x20 PUSH1 0x40 MLOAD DUP1 DUP4 SUB DUP2 DUP7 GAS STATICCALL ISZERO DUP1 ISZERO PUSH2 0xCDD JUMPI RETURNDATASIZE PUSH1 0x0 DUP1 RETURNDATACOPY RETURNDATASIZE PUSH1 0x0 REVERT JUMPDEST POP POP POP POP PUSH1 0x40 MLOAD RETURNDATASIZE PUSH1 0x1F NOT PUSH1 0x1F DUP3 ADD AND DUP3 ADD DUP1 PUSH1 0x40 MSTORE POP DUP2 ADD SWAP1 PUSH2 0xD01 SWAP2 SWAP1 PUSH2 0x1A28 JUMP JUMPDEST SWAP1 POP PUSH1 0x0 PUSH20 0xFFFFFFFFFFFFFFFFFFFFFFFFFFFFFFFFFFFFFFFF AND DUP2 PUSH20 0xFFFFFFFFFFFFFFFFFFFFFFFFFFFFFFFFFFFFFFFF AND SUB PUSH2 0xD69 JUMPI PUSH1 0x40 MLOAD PUSH32 0x5373352A00000000000000000000000000000000000000000000000000000000 DUP2 MSTORE PUSH1 0x4 ADD PUSH1 0x40 MLOAD DUP1 SWAP2 SUB SWAP1 REVERT JUMPDEST PUSH2 0xDB6 CALLER PUSH32 0x0 DUP5 DUP5 PUSH20 0xFFFFFFFFFFFFFFFFFFFFFFFFFFFFFFFFFFFFFFFF AND PUSH2 0xDBA SWAP1 SWAP4 SWAP3 SWAP2 SWAP1 PUSH4 0xFFFFFFFF AND JUMP JUMPDEST POP POP JUMP JUMPDEST PUSH2 0xE36 DUP5 DUP6 PUSH20 0xFFFFFFFFFFFFFFFFFFFFFFFFFFFFFFFFFFFFFFFF AND PUSH4 0x23B872DD DUP7 DUP7 DUP7 PUSH1 0x40 MLOAD PUSH1 0x24 ADD PUSH2 0xDEF SWAP4 SWAP3 SWAP2 SWAP1 PUSH2 0x1A55 JUMP JUMPDEST PUSH1 0x40 MLOAD PUSH1 0x20 DUP2 DUP4 SUB SUB DUP2 MSTORE SWAP1 PUSH1 0x40 MSTORE SWAP2 POP PUSH1 0xE0 SHL PUSH1 0x20 DUP3 ADD DUP1 MLOAD PUSH28 0xFFFFFFFFFFFFFFFFFFFFFFFFFFFFFFFFFFFFFFFFFFFFFFFFFFFFFFFF DUP4 DUP2 DUP4 AND OR DUP4 MSTORE POP POP POP POP PUSH2 0xE3C JUMP JUMPDEST POP POP POP POP JUMP JUMPDEST PUSH1 0x0 DUP1 PUSH1 0x20 PUSH1 0x0 DUP5 MLOAD PUSH1 0x20 DUP7 ADD PUSH1 0x0 DUP9 GAS CALL DUP1 PUSH2 0xE5F JUMPI PUSH1 0x40 MLOAD RETURNDATASIZE PUSH1 0x0 DUP3 RETURNDATACOPY RETURNDATASIZE DUP2 REVERT JUMPDEST RETURNDATASIZE SWAP3 POP PUSH1 0x0 MLOAD SWAP2 POP POP PUSH1 0x0 DUP3 EQ PUSH2 0xE7A JUMPI PUSH1 0x1 DUP2 EQ ISZERO PUSH2 0xE96 JUMP JUMPDEST PUSH1 0x0 DUP5 PUSH20 0xFFFFFFFFFFFFFFFFFFFFFFFFFFFFFFFFFFFFFFFF AND EXTCODESIZE EQ JUMPDEST ISZERO PUSH2 0xED8 JUMPI DUP4 PUSH1 0x40 MLOAD PUSH32 0x5274AFE700000000000000000000000000000000000000000000000000000000 DUP2 MSTORE PUSH1 0x4 ADD PUSH2 0xECF SWAP2 SWAP1 PUSH2 0x141A JUMP JUMPDEST PUSH1 0x40 MLOAD DUP1 SWAP2 SUB SWAP1 REVERT JUMPDEST POP POP POP POP JUMP JUMPDEST PUSH1 0x40 MLOAD DUP1 PUSH1 0x40 ADD PUSH1 0x40 MSTORE DUP1 PUSH1 0x0 DUP2 MSTORE PUSH1 0x20 ADD PUSH1 0x0 DUP2 MSTORE POP SWAP1 JUMP JUMPDEST PUSH1 0x40 MLOAD DUP1 PUSH1 0x60 ADD PUSH1 0x40 MSTORE DUP1 PUSH1 0x0 DUP1 NOT AND DUP2 MSTORE PUSH1 0x20 ADD PUSH1 0x0 PUSH8 0xFFFFFFFFFFFFFFFF AND DUP2 MSTORE PUSH1 0x20 ADD PUSH2 0xF26 PUSH2 0xEDE JUMP JUMPDEST DUP2 MSTORE POP SWAP1 JUMP JUMPDEST PUSH1 0x0 PUSH1 0x40 MLOAD SWAP1 POP SWAP1 JUMP JUMPDEST PUSH1 0x0 DUP1 REVERT JUMPDEST PUSH1 0x0 DUP1 REVERT JUMPDEST PUSH1 0x0 DUP1 REVERT JUMPDEST PUSH1 0x0 PUSH1 0x60 DUP3 DUP5 SUB SLT ISZERO PUSH2 0xF5B JUMPI PUSH2 0xF5A PUSH2 0xF40 JUMP JUMPDEST JUMPDEST DUP2 SWAP1 POP SWAP3 SWAP2 POP POP JUMP JUMPDEST PUSH1 0x0 DUP2 SWAP1 POP SWAP2 SWAP1 POP JUMP JUMPDEST PUSH2 0xF77 DUP2 PUSH2 0xF64 JUMP JUMPDEST DUP2 EQ PUSH2 0xF82 JUMPI PUSH1 0x0 DUP1 REVERT JUMPDEST POP JUMP JUMPDEST PUSH1 0x0 DUP2 CALLDATALOAD SWAP1 POP PUSH2 0xF94 DUP2 PUSH2 0xF6E JUMP JUMPDEST SWAP3 SWAP2 POP POP JUMP JUMPDEST PUSH1 0x0 DUP1 REVERT JUMPDEST PUSH1 0x0 DUP1 REVERT JUMPDEST PUSH1 0x0 DUP1 REVERT JUMPDEST PUSH1 0x0 DUP1 DUP4 PUSH1 0x1F DUP5 ADD SLT PUSH2 0xFBF JUMPI PUSH2 0xFBE PUSH2 0xF9A JUMP JUMPDEST JUMPDEST DUP3 CALLDATALOAD SWAP1 POP PUSH8 0xFFFFFFFFFFFFFFFF DUP2 GT ISZERO PUSH2 0xFDC JUMPI PUSH2 0xFDB PUSH2 0xF9F JUMP JUMPDEST JUMPDEST PUSH1 0x20 DUP4 ADD SWAP2 POP DUP4 PUSH1 0x1 DUP3 MUL DUP4 ADD GT ISZERO PUSH2 0xFF8 JUMPI PUSH2 0xFF7 PUSH2 0xFA4 JUMP JUMPDEST JUMPDEST SWAP3 POP SWAP3 SWAP1 POP JUMP JUMPDEST PUSH1 0x0 PUSH20 0xFFFFFFFFFFFFFFFFFFFFFFFFFFFFFFFFFFFFFFFF DUP3 AND SWAP1 POP SWAP2 SWAP1 POP JUMP JUMPDEST PUSH1 0x0 PUSH2 0x102A DUP3 PUSH2 0xFFF JUMP JUMPDEST SWAP1 POP SWAP2 SWAP1 POP JUMP JUMPDEST PUSH2 0x103A DUP2 PUSH2 0x101F JUMP JUMPDEST DUP2 EQ PUSH2 0x1045 JUMPI PUSH1 0x0 DUP1 REVERT JUMPDEST POP JUMP JUMPDEST PUSH1 0x0 DUP2 CALLDATALOAD SWAP1 POP PUSH2 0x1057 DUP2 PUSH2 0x1031 JUMP JUMPDEST SWAP3 SWAP2 POP POP JUMP JUMPDEST PUSH1 0x0 DUP1 PUSH1 0x0 DUP1 PUSH1 0x0 DUP1 PUSH1 0x0 PUSH1 0xE0 DUP9 DUP11 SUB SLT ISZERO PUSH2 0x107C JUMPI PUSH2 0x107B PUSH2 0xF36 JUMP JUMPDEST JUMPDEST PUSH1 0x0 PUSH2 0x108A DUP11 DUP3 DUP12 ADD PUSH2 0xF45 JUMP JUMPDEST SWAP8 POP POP PUSH1 0x60 PUSH2 0x109B DUP11 DUP3 DUP12 ADD PUSH2 0xF85 JUMP JUMPDEST SWAP7 POP POP PUSH1 0x80 DUP9 ADD CALLDATALOAD PUSH8 0xFFFFFFFFFFFFFFFF DUP2 GT ISZERO PUSH2 0x10BC JUMPI PUSH2 0x10BB PUSH2 0xF3B JUMP JUMPDEST JUMPDEST PUSH2 0x10C8 DUP11 DUP3 DUP12 ADD PUSH2 0xFA9 JUMP JUMPDEST SWAP6 POP SWAP6 POP POP PUSH1 0xA0 PUSH2 0x10DB DUP11 DUP3 DUP12 ADD PUSH2 0x1048 JUMP JUMPDEST SWAP4 POP POP PUSH1 0xC0 DUP9 ADD CALLDATALOAD PUSH8 0xFFFFFFFFFFFFFFFF DUP2 GT ISZERO PUSH2 0x10FC JUMPI PUSH2 0x10FB PUSH2 0xF3B JUMP JUMPDEST JUMPDEST PUSH2 0x1108 DUP11 DUP3 DUP12 ADD PUSH2 0xFA9 JUMP JUMPDEST SWAP3 POP SWAP3 POP POP SWAP3 SWAP6 SWAP9 SWAP2 SWAP5 SWAP8 POP SWAP3 SWAP6 POP JUMP JUMPDEST PUSH1 0x0 PUSH8 0xFFFFFFFFFFFFFFFF DUP3 AND SWAP1 POP SWAP2 SWAP1 POP JUMP JUMPDEST PUSH2 0x1136 DUP2 PUSH2 0x1119 JUMP JUMPDEST DUP3 MSTORE POP POP JUMP JUMPDEST PUSH1 0x0 PUSH1 0x40 DUP3 ADD SWAP1 POP PUSH2 0x1151 PUSH1 0x0 DUP4 ADD DUP6 PUSH2 0x112D JUMP JUMPDEST PUSH2 0x115E PUSH1 0x20 DUP4 ADD DUP5 PUSH2 0x112D JUMP JUMPDEST SWAP4 SWAP3 POP POP POP JUMP JUMPDEST PUSH1 0x0 PUSH4 0xFFFFFFFF DUP3 AND SWAP1 POP SWAP2 SWAP1 POP JUMP JUMPDEST PUSH2 0x117E DUP2 PUSH2 0x1165 JUMP JUMPDEST DUP2 EQ PUSH2 0x1189 JUMPI PUSH1 0x0 DUP1 REVERT JUMPDEST POP JUMP JUMPDEST PUSH1 0x0 DUP2 CALLDATALOAD SWAP1 POP PUSH2 0x119B DUP2 PUSH2 0x1175 JUMP JUMPDEST SWAP3 SWAP2 POP POP JUMP JUMPDEST PUSH1 0x0 DUP1 PUSH1 0x40 DUP4 DUP6 SUB SLT ISZERO PUSH2 0x11B8 JUMPI PUSH2 0x11B7 PUSH2 0xF36 JUMP JUMPDEST JUMPDEST PUSH1 0x0 PUSH2 0x11C6 DUP6 DUP3 DUP7 ADD PUSH2 0x118C JUMP JUMPDEST SWAP3 POP POP PUSH1 0x20 PUSH2 0x11D7 DUP6 DUP3 DUP7 ADD PUSH2 0xF85 JUMP JUMPDEST SWAP2 POP POP SWAP3 POP SWAP3 SWAP1 POP JUMP JUMPDEST PUSH1 0x0 DUP1 DUP4 PUSH1 0x1F DUP5 ADD SLT PUSH2 0x11F7 JUMPI PUSH2 0x11F6 PUSH2 0xF9A JUMP JUMPDEST JUMPDEST DUP3 CALLDATALOAD SWAP1 POP PUSH8 0xFFFFFFFFFFFFFFFF DUP2 GT ISZERO PUSH2 0x1214 JUMPI PUSH2 0x1213 PUSH2 0xF9F JUMP JUMPDEST JUMPDEST PUSH1 0x20 DUP4 ADD SWAP2 POP DUP4 PUSH1 0x1 DUP3 MUL DUP4 ADD GT ISZERO PUSH2 0x1230 JUMPI PUSH2 0x122F PUSH2 0xFA4 JUMP JUMPDEST JUMPDEST SWAP3 POP SWAP3 SWAP1 POP JUMP JUMPDEST PUSH1 0x0 DUP1 PUSH1 0x0 DUP1 PUSH1 0x0 PUSH1 0x60 DUP7 DUP9 SUB SLT ISZERO PUSH2 0x1253 JUMPI PUSH2 0x1252 PUSH2 0xF36 JUMP JUMPDEST JUMPDEST PUSH1 0x0 PUSH2 0x1261 DUP9 DUP3 DUP10 ADD PUSH2 0x118C JUMP JUMPDEST SWAP6 POP POP PUSH1 0x20 DUP7 ADD CALLDATALOAD PUSH8 0xFFFFFFFFFFFFFFFF DUP2 GT ISZERO PUSH2 0x1282 JUMPI PUSH2 0x1281 PUSH2 0xF3B JUMP JUMPDEST JUMPDEST PUSH2 0x128E DUP9 DUP3 DUP10 ADD PUSH2 0x11E1 JUMP JUMPDEST SWAP5 POP SWAP5 POP POP PUSH1 0x40 DUP7 ADD CALLDATALOAD PUSH8 0xFFFFFFFFFFFFFFFF DUP2 GT ISZERO PUSH2 0x12B1 JUMPI PUSH2 0x12B0 PUSH2 0xF3B JUMP JUMPDEST JUMPDEST PUSH2 0x12BD DUP9 DUP3 DUP10 ADD PUSH2 0xFA9 JUMP JUMPDEST SWAP3 POP SWAP3 POP POP SWAP3 SWAP6 POP SWAP3 SWAP6 SWAP1 SWAP4 POP JUMP JUMPDEST PUSH1 0x0 DUP2 SWAP1 POP SWAP2 SWAP1 POP JUMP JUMPDEST PUSH1 0x0 PUSH2 0x12F1 PUSH2 0x12EC PUSH2 0x12E7 DUP5 PUSH2 0xFFF JUMP JUMPDEST PUSH2 0x12CC JUMP JUMPDEST PUSH2 0xFFF JUMP JUMPDEST SWAP1 POP SWAP2 SWAP1 POP JUMP JUMPDEST PUSH1 0x0 PUSH2 0x1303 DUP3 PUSH2 0x12D6 JUMP JUMPDEST SWAP1 POP SWAP2 SWAP1 POP JUMP JUMPDEST PUSH1 0x0 PUSH2 0x1315 DUP3 PUSH2 0x12F8 JUMP JUMPDEST SWAP1 POP SWAP2 SWAP1 POP JUMP JUMPDEST PUSH2 0x1325 DUP2 PUSH2 0x130A JUMP JUMPDEST DUP3 MSTORE POP POP JUMP JUMPDEST PUSH1 0x0 PUSH1 0x20 DUP3 ADD SWAP1 POP PUSH2 0x1340 PUSH1 0x0 DUP4 ADD DUP5 PUSH2 0x131C JUMP JUMPDEST SWAP3 SWAP2 POP POP JUMP JUMPDEST PUSH1 0x0 PUSH1 0x20 DUP3 ADD SWAP1 POP PUSH2 0x135B PUSH1 0x0 DUP4 ADD DUP5 PUSH2 0x112D JUMP JUMPDEST SWAP3 SWAP2 POP POP JUMP JUMPDEST PUSH1 0x0 DUP1 PUSH1 0x0 DUP1 PUSH1 0xA0 DUP6 DUP8 SUB SLT ISZERO PUSH2 0x137B JUMPI PUSH2 0x137A PUSH2 0xF36 JUMP JUMPDEST JUMPDEST PUSH1 0x0 PUSH2 0x1389 DUP8 DUP3 DUP9 ADD PUSH2 0xF45 JUMP JUMPDEST SWAP5 POP POP PUSH1 0x60 DUP6 ADD CALLDATALOAD PUSH8 0xFFFFFFFFFFFFFFFF DUP2 GT ISZERO PUSH2 0x13AA JUMPI PUSH2 0x13A9 PUSH2 0xF3B JUMP JUMPDEST JUMPDEST PUSH2 0x13B6 DUP8 DUP3 DUP9 ADD PUSH2 0xFA9 JUMP JUMPDEST SWAP4 POP SWAP4 POP POP PUSH1 0x80 PUSH2 0x13C9 DUP8 DUP3 DUP9 ADD PUSH2 0x1048 JUMP JUMPDEST SWAP2 POP POP SWAP3 SWAP6 SWAP2 SWAP5 POP SWAP3 POP JUMP JUMPDEST PUSH1 0x0 DUP2 ISZERO ISZERO SWAP1 POP SWAP2 SWAP1 POP JUMP JUMPDEST PUSH2 0x13EA DUP2 PUSH2 0x13D5 JUMP JUMPDEST DUP3 MSTORE POP POP JUMP JUMPDEST PUSH1 0x0 PUSH1 0x20 DUP3 ADD SWAP1 POP PUSH2 0x1405 PUSH1 0x0 DUP4 ADD DUP5 PUSH2 0x13E1 JUMP JUMPDEST SWAP3 SWAP2 POP POP JUMP JUMPDEST PUSH2 0x1414 DUP2 PUSH2 0x101F JUMP JUMPDEST DUP3 MSTORE POP POP JUMP JUMPDEST PUSH1 0x0 PUSH1 0x20 DUP3 ADD SWAP1 POP PUSH2 0x142F PUSH1 0x0 DUP4 ADD DUP5 PUSH2 0x140B JUMP JUMPDEST SWAP3 SWAP2 POP POP JUMP JUMPDEST PUSH1 0x0 PUSH1 0x20 DUP3 DUP5 SUB SLT ISZERO PUSH2 0x144B JUMPI PUSH2 0x144A PUSH2 0xF36 JUMP JUMPDEST JUMPDEST PUSH1 0x0 PUSH2 0x1459 DUP5 DUP3 DUP6 ADD PUSH2 0x118C JUMP JUMPDEST SWAP2 POP POP SWAP3 SWAP2 POP POP JUMP JUMPDEST PUSH2 0x146B DUP2 PUSH2 0xF64 JUMP JUMPDEST DUP3 MSTORE POP POP JUMP JUMPDEST PUSH1 0x0 PUSH1 0x20 DUP3 ADD SWAP1 POP PUSH2 0x1486 PUSH1 0x0 DUP4 ADD DUP5 PUSH2 0x1462 JUMP JUMPDEST SWAP3 SWAP2 POP POP JUMP JUMPDEST PUSH1 0x0 PUSH1 0x20 DUP3 DUP5 SUB SLT ISZERO PUSH2 0x14A2 JUMPI PUSH2 0x14A1 PUSH2 0xF36 JUMP JUMPDEST JUMPDEST PUSH1 0x0 PUSH2 0x14B0 DUP5 DUP3 DUP6 ADD PUSH2 0x1048 JUMP JUMPDEST SWAP2 POP POP SWAP3 SWAP2 POP POP JUMP JUMPDEST PUSH1 0x0 PUSH1 0x60 DUP3 DUP5 SUB SLT ISZERO PUSH2 0x14CF JUMPI PUSH2 0x14CE PUSH2 0xF36 JUMP JUMPDEST JUMPDEST PUSH1 0x0 PUSH2 0x14DD DUP5 DUP3 DUP6 ADD PUSH2 0xF45 JUMP JUMPDEST SWAP2 POP POP SWAP3 SWAP2 POP POP JUMP JUMPDEST PUSH2 0x14EF DUP2 PUSH2 0x1165 JUMP JUMPDEST DUP3 MSTORE POP POP JUMP JUMPDEST PUSH1 0x0 PUSH1 0x40 DUP3 ADD SWAP1 POP PUSH2 0x150A PUSH1 0x0 DUP4 ADD DUP6 PUSH2 0x14E6 JUMP JUMPDEST PUSH2 0x1517 PUSH1 0x20 DUP4 ADD DUP5 PUSH2 0x1462 JUMP JUMPDEST SWAP4 SWAP3 POP POP POP JUMP JUMPDEST PUSH1 0x0 DUP3 DUP3 MSTORE PUSH1 0x20 DUP3 ADD SWAP1 POP SWAP3 SWAP2 POP POP JUMP JUMPDEST DUP3 DUP2 DUP4 CALLDATACOPY PUSH1 0x0 DUP4 DUP4 ADD MSTORE POP POP POP JUMP JUMPDEST PUSH1 0x0 PUSH1 0x1F NOT PUSH1 0x1F DUP4 ADD AND SWAP1 POP SWAP2 SWAP1 POP JUMP JUMPDEST PUSH1 0x0 PUSH2 0x155B DUP4 DUP6 PUSH2 0x151E JUMP JUMPDEST SWAP4 POP PUSH2 0x1568 DUP4 DUP6 DUP5 PUSH2 0x152F JUMP JUMPDEST PUSH2 0x1571 DUP4 PUSH2 0x153E JUMP JUMPDEST DUP5 ADD SWAP1 POP SWAP4 SWAP3 POP POP POP JUMP JUMPDEST PUSH1 0x0 PUSH1 0x40 DUP3 ADD SWAP1 POP PUSH2 0x1591 PUSH1 0x0 DUP4 ADD DUP7 PUSH2 0x140B JUMP JUMPDEST DUP2 DUP2 SUB PUSH1 0x20 DUP4 ADD MSTORE PUSH2 0x15A4 DUP2 DUP5 DUP7 PUSH2 0x154F JUMP JUMPDEST SWAP1 POP SWAP5 SWAP4 POP POP POP POP JUMP JUMPDEST PUSH32 0x496E73756666696369656E742066656500000000000000000000000000000000 PUSH1 0x0 DUP3 ADD MSTORE POP JUMP JUMPDEST PUSH1 0x0 PUSH2 0x15E4 PUSH1 0x10 DUP4 PUSH2 0x151E JUMP JUMPDEST SWAP2 POP PUSH2 0x15EF DUP3 PUSH2 0x15AE JUMP JUMPDEST PUSH1 0x20 DUP3 ADD SWAP1 POP SWAP2 SWAP1 POP JUMP JUMPDEST PUSH1 0x0 PUSH1 0x20 DUP3 ADD SWAP1 POP DUP2 DUP2 SUB PUSH1 0x0 DUP4 ADD MSTORE PUSH2 0x1613 DUP2 PUSH2 0x15D7 JUMP JUMPDEST SWAP1 POP SWAP2 SWAP1 POP JUMP JUMPDEST PUSH1 0x0 DUP2 SWAP1 POP SWAP2 SWAP1 POP JUMP JUMPDEST PUSH1 0x0 DUP2 SWAP1 POP SWAP2 SWAP1 POP JUMP JUMPDEST PUSH1 0x0 PUSH2 0x1649 PUSH2 0x1644 PUSH2 0x163F DUP5 PUSH2 0x161A JUMP JUMPDEST PUSH2 0x12CC JUMP JUMPDEST PUSH2 0x1624 JUMP JUMPDEST SWAP1 POP SWAP2 SWAP1 POP JUMP JUMPDEST PUSH2 0x1659 DUP2 PUSH2 0x162E JUMP JUMPDEST DUP3 MSTORE POP POP JUMP JUMPDEST PUSH1 0x0 PUSH1 0x20 DUP3 ADD SWAP1 POP PUSH2 0x1674 PUSH1 0x0 DUP4 ADD DUP5 PUSH2 0x1650 JUMP JUMPDEST SWAP3 SWAP2 POP POP JUMP JUMPDEST PUSH1 0x0 PUSH1 0x20 DUP3 ADD SWAP1 POP PUSH2 0x168F PUSH1 0x0 DUP4 ADD DUP5 PUSH2 0x14E6 JUMP JUMPDEST SWAP3 SWAP2 POP POP JUMP JUMPDEST PUSH2 0x169E DUP2 PUSH2 0x1165 JUMP JUMPDEST DUP3 MSTORE POP POP JUMP JUMPDEST PUSH2 0x16AD DUP2 PUSH2 0xF64 JUMP JUMPDEST DUP3 MSTORE POP POP JUMP JUMPDEST PUSH1 0x0 DUP2 MLOAD SWAP1 POP SWAP2 SWAP1 POP JUMP JUMPDEST PUSH1 0x0 DUP3 DUP3 MSTORE PUSH1 0x20 DUP3 ADD SWAP1 POP SWAP3 SWAP2 POP POP JUMP JUMPDEST PUSH1 0x0 JUMPDEST DUP4 DUP2 LT ISZERO PUSH2 0x16ED JUMPI DUP1 DUP3 ADD MLOAD DUP2 DUP5 ADD MSTORE PUSH1 0x20 DUP2 ADD SWAP1 POP PUSH2 0x16D2 JUMP JUMPDEST PUSH1 0x0 DUP5 DUP5 ADD MSTORE POP POP POP POP JUMP JUMPDEST PUSH1 0x0 PUSH2 0x1704 DUP3 PUSH2 0x16B3 JUMP JUMPDEST PUSH2 0x170E DUP2 DUP6 PUSH2 0x16BE JUMP JUMPDEST SWAP4 POP PUSH2 0x171E DUP2 DUP6 PUSH1 0x20 DUP7 ADD PUSH2 0x16CF JUMP JUMPDEST PUSH2 0x1727 DUP2 PUSH2 0x153E JUMP JUMPDEST DUP5 ADD SWAP2 POP POP SWAP3 SWAP2 POP POP JUMP JUMPDEST PUSH2 0x173B DUP2 PUSH2 0x13D5 JUMP JUMPDEST DUP3 MSTORE POP POP JUMP JUMPDEST PUSH1 0x0 PUSH1 0xA0 DUP4 ADD PUSH1 0x0 DUP4 ADD MLOAD PUSH2 0x1759 PUSH1 0x0 DUP7 ADD DUP3 PUSH2 0x1695 JUMP JUMPDEST POP PUSH1 0x20 DUP4 ADD MLOAD PUSH2 0x176C PUSH1 0x20 DUP7 ADD DUP3 PUSH2 0x16A4 JUMP JUMPDEST POP PUSH1 0x40 DUP4 ADD MLOAD DUP5 DUP3 SUB PUSH1 0x40 DUP7 ADD MSTORE PUSH2 0x1784 DUP3 DUP3 PUSH2 0x16F9 JUMP JUMPDEST SWAP2 POP POP PUSH1 0x60 DUP4 ADD MLOAD DUP5 DUP3 SUB PUSH1 0x60 DUP7 ADD MSTORE PUSH2 0x179E DUP3 DUP3 PUSH2 0x16F9 JUMP JUMPDEST SWAP2 POP POP PUSH1 0x80 DUP4 ADD MLOAD PUSH2 0x17B3 PUSH1 0x80 DUP7 ADD DUP3 PUSH2 0x1732 JUMP JUMPDEST POP DUP1 SWAP2 POP POP SWAP3 SWAP2 POP POP JUMP JUMPDEST PUSH1 0x0 PUSH1 0x40 DUP3 ADD SWAP1 POP DUP2 DUP2 SUB PUSH1 0x0 DUP4 ADD MSTORE PUSH2 0x17D8 DUP2 DUP6 PUSH2 0x1741 JUMP JUMPDEST SWAP1 POP PUSH2 0x17E7 PUSH1 0x20 DUP4 ADD DUP5 PUSH2 0x140B JUMP JUMPDEST SWAP4 SWAP3 POP POP POP JUMP JUMPDEST PUSH1 0x0 DUP1 REVERT JUMPDEST PUSH32 0x4E487B7100000000000000000000000000000000000000000000000000000000 PUSH1 0x0 MSTORE PUSH1 0x41 PUSH1 0x4 MSTORE PUSH1 0x24 PUSH1 0x0 REVERT JUMPDEST PUSH2 0x182B DUP3 PUSH2 0x153E JUMP JUMPDEST DUP2 ADD DUP2 DUP2 LT PUSH8 0xFFFFFFFFFFFFFFFF DUP3 GT OR ISZERO PUSH2 0x184A JUMPI PUSH2 0x1849 PUSH2 0x17F3 JUMP JUMPDEST JUMPDEST DUP1 PUSH1 0x40 MSTORE POP POP POP JUMP JUMPDEST PUSH1 0x0 PUSH2 0x185D PUSH2 0xF2C JUMP JUMPDEST SWAP1 POP PUSH2 0x1869 DUP3 DUP3 PUSH2 0x1822 JUMP JUMPDEST SWAP2 SWAP1 POP JUMP JUMPDEST PUSH2 0x1877 DUP2 PUSH2 0x1624 JUMP JUMPDEST DUP2 EQ PUSH2 0x1882 JUMPI PUSH1 0x0 DUP1 REVERT JUMPDEST POP JUMP JUMPDEST PUSH1 0x0 DUP2 MLOAD SWAP1 POP PUSH2 0x1894 DUP2 PUSH2 0x186E JUMP JUMPDEST SWAP3 SWAP2 POP POP JUMP JUMPDEST PUSH1 0x0 PUSH1 0x40 DUP3 DUP5 SUB SLT ISZERO PUSH2 0x18B0 JUMPI PUSH2 0x18AF PUSH2 0x17EE JUMP JUMPDEST JUMPDEST PUSH2 0x18BA PUSH1 0x40 PUSH2 0x1853 JUMP JUMPDEST SWAP1 POP PUSH1 0x0 PUSH2 0x18CA DUP5 DUP3 DUP6 ADD PUSH2 0x1885 JUMP JUMPDEST PUSH1 0x0 DUP4 ADD MSTORE POP PUSH1 0x20 PUSH2 0x18DE DUP5 DUP3 DUP6 ADD PUSH2 0x1885 JUMP JUMPDEST PUSH1 0x20 DUP4 ADD MSTORE POP SWAP3 SWAP2 POP POP JUMP JUMPDEST PUSH1 0x0 PUSH1 0x40 DUP3 DUP5 SUB SLT ISZERO PUSH2 0x1900 JUMPI PUSH2 0x18FF PUSH2 0xF36 JUMP JUMPDEST JUMPDEST PUSH1 0x0 PUSH2 0x190E DUP5 DUP3 DUP6 ADD PUSH2 0x189A JUMP JUMPDEST SWAP2 POP POP SWAP3 SWAP2 POP POP JUMP JUMPDEST PUSH1 0x0 DUP2 MLOAD SWAP1 POP PUSH2 0x1926 DUP2 PUSH2 0xF6E JUMP JUMPDEST SWAP3 SWAP2 POP POP JUMP JUMPDEST PUSH2 0x1935 DUP2 PUSH2 0x1119 JUMP JUMPDEST DUP2 EQ PUSH2 0x1940 JUMPI PUSH1 0x0 DUP1 REVERT JUMPDEST POP JUMP JUMPDEST PUSH1 0x0 DUP2 MLOAD SWAP1 POP PUSH2 0x1952 DUP2 PUSH2 0x192C JUMP JUMPDEST SWAP3 SWAP2 POP POP JUMP JUMPDEST PUSH1 0x0 PUSH1 0x80 DUP3 DUP5 SUB SLT ISZERO PUSH2 0x196E JUMPI PUSH2 0x196D PUSH2 0x17EE JUMP JUMPDEST JUMPDEST PUSH2 0x1978 PUSH1 0x60 PUSH2 0x1853 JUMP JUMPDEST SWAP1 POP PUSH1 0x0 PUSH2 0x1988 DUP5 DUP3 DUP6 ADD PUSH2 0x1917 JUMP JUMPDEST PUSH1 0x0 DUP4 ADD MSTORE POP PUSH1 0x20 PUSH2 0x199C DUP5 DUP3 DUP6 ADD PUSH2 0x1943 JUMP JUMPDEST PUSH1 0x20 DUP4 ADD MSTORE POP PUSH1 0x40 PUSH2 0x19B0 DUP5 DUP3 DUP6 ADD PUSH2 0x189A JUMP JUMPDEST PUSH1 0x40 DUP4 ADD MSTORE POP SWAP3 SWAP2 POP POP JUMP JUMPDEST PUSH1 0x0 PUSH1 0x80 DUP3 DUP5 SUB SLT ISZERO PUSH2 0x19D2 JUMPI PUSH2 0x19D1 PUSH2 0xF36 JUMP JUMPDEST JUMPDEST PUSH1 0x0 PUSH2 0x19E0 DUP5 DUP3 DUP6 ADD PUSH2 0x1958 JUMP JUMPDEST SWAP2 POP POP SWAP3 SWAP2 POP POP JUMP JUMPDEST PUSH2 0x19F2 DUP2 PUSH2 0x1624 JUMP JUMPDEST DUP3 MSTORE POP POP JUMP JUMPDEST PUSH1 0x0 PUSH1 0x20 DUP3 ADD SWAP1 POP PUSH2 0x1A0D PUSH1 0x0 DUP4 ADD DUP5 PUSH2 0x19E9 JUMP JUMPDEST SWAP3 SWAP2 POP POP JUMP JUMPDEST PUSH1 0x0 DUP2 MLOAD SWAP1 POP PUSH2 0x1A22 DUP2 PUSH2 0x1031 JUMP JUMPDEST SWAP3 SWAP2 POP POP JUMP JUMPDEST PUSH1 0x0 PUSH1 0x20 DUP3 DUP5 SUB SLT ISZERO PUSH2 0x1A3E JUMPI PUSH2 0x1A3D PUSH2 0xF36 JUMP JUMPDEST JUMPDEST PUSH1 0x0 PUSH2 0x1A4C DUP5 DUP3 DUP6 ADD PUSH2 0x1A13 JUMP JUMPDEST SWAP2 POP POP SWAP3 SWAP2 POP POP JUMP JUMPDEST PUSH1 0x0 PUSH1 0x60 DUP3 ADD SWAP1 POP PUSH2 0x1A6A PUSH1 0x0 DUP4 ADD DUP7 PUSH2 0x140B JUMP JUMPDEST PUSH2 0x1A77 PUSH1 0x20 DUP4 ADD DUP6 PUSH2 0x140B JUMP JUMPDEST PUSH2 0x1A84 PUSH1 0x40 DUP4 ADD DUP5 PUSH2 0x19E9 JUMP JUMPDEST SWAP5 SWAP4 POP POP POP POP JUMP INVALID LOG2 PUSH5 0x6970667358 0x22 SLT KECCAK256 0x2A 0xBD PUSH28 0x4714BE1E5B703A9BC6EAB22B85A46C4BA400DBC947509C2A355F784D EXTCODESIZE PUSH5 0x736F6C6343 STOP ADDMOD SHR STOP CALLER "
				},
				"gasEstimates": {
					"creation": {
						"codeDepositCost": "1370000",
						"executionCost": "infinite",
						"totalCost": "infinite"
					},
					"external": {
						"allowInitializePath((uint32,bytes32,uint64))": "3099",
						"createDispute(uint32,string,bytes)": "infinite",
						"endpoint()": "infinite",
						"isComposeMsgSender((uint32,bytes32,uint64),bytes,address)": "1067",
						"lzReceive((uint32,bytes32,uint64),bytes32,bytes,address,bytes)": "infinite",
						"nextNonce(uint32,bytes32)": "802",
						"oAppVersion()": "infinite",
						"owner()": "2589",
						"peers(uint32)": "2793",
						"renounceOwnership()": "infinite",
						"setDelegate(address)": "infinite",
						"setPeer(uint32,bytes32)": "infinite",
						"transferOwnership(address)": "infinite"
					},
					"internal": {
						"_lzReceive(struct Origin calldata,bytes32,bytes calldata,address,bytes calldata)": "23"
					}
				},
				"methodIdentifiers": {
					"allowInitializePath((uint32,bytes32,uint64))": "ff7bd03d",
					"createDispute(uint32,string,bytes)": "38f87d30",
					"endpoint()": "5e280f11",
					"isComposeMsgSender((uint32,bytes32,uint64),bytes,address)": "82413eac",
					"lzReceive((uint32,bytes32,uint64),bytes32,bytes,address,bytes)": "13137d65",
					"nextNonce(uint32,bytes32)": "7d25a05e",
					"oAppVersion()": "17442b70",
					"owner()": "8da5cb5b",
					"peers(uint32)": "bb0b6a53",
					"renounceOwnership()": "715018a6",
					"setDelegate(address)": "ca5eb5e1",
					"setPeer(uint32,bytes32)": "3400288b",
					"transferOwnership(address)": "f2fde38b"
				}
			},
			"storageLayout": {
				"storage": [
					{
						"astId": 1327,
						"contract": "SimpleArbitrumDisput.sol:ArbitrumDisputeSender",
						"label": "_owner",
						"offset": 0,
						"slot": "0",
						"type": "t_address"
					},
					{
						"astId": 785,
						"contract": "SimpleArbitrumDisput.sol:ArbitrumDisputeSender",
						"label": "peers",
						"offset": 0,
						"slot": "1",
						"type": "t_mapping(t_uint32,t_bytes32)"
					}
				],
				"types": {
					"t_address": {
						"encoding": "inplace",
						"label": "address",
						"numberOfBytes": "20"
					},
					"t_bytes32": {
						"encoding": "inplace",
						"label": "bytes32",
						"numberOfBytes": "32"
					},
					"t_mapping(t_uint32,t_bytes32)": {
						"encoding": "mapping",
						"key": "t_uint32",
						"label": "mapping(uint32 => bytes32)",
						"numberOfBytes": "32",
						"value": "t_bytes32"
					},
					"t_uint32": {
						"encoding": "inplace",
						"label": "uint32",
						"numberOfBytes": "4"
					}
				}
			},
			"userdoc": {
				"kind": "user",
				"methods": {
					"allowInitializePath((uint32,bytes32,uint64))": {
						"notice": "Checks if the path initialization is allowed based on the provided origin."
					},
					"endpoint()": {
						"notice": "Retrieves the LayerZero endpoint associated with the OApp."
					},
					"isComposeMsgSender((uint32,bytes32,uint64),bytes,address)": {
						"notice": "Indicates whether an address is an approved composeMsg sender to the Endpoint."
					},
					"nextNonce(uint32,bytes32)": {
						"notice": "Retrieves the next nonce for a given source endpoint and sender address."
					},
					"oAppVersion()": {
						"notice": "Retrieves the OApp version information."
					},
					"peers(uint32)": {
						"notice": "Retrieves the peer (OApp) associated with a corresponding endpoint."
					},
					"setDelegate(address)": {
						"notice": "Sets the delegate address for the OApp."
					},
					"setPeer(uint32,bytes32)": {
						"notice": "Sets the peer address (OApp instance) for a corresponding endpoint."
					}
				},
				"version": 1
			}
		}
	}
}