{
	"native-athena.sol": {
		"SkillOracle": {
			"abi": [
				{
					"inputs": [
						{
							"internalType": "address",
							"name": "_daoContract",
							"type": "address"
						}
					],
					"stateMutability": "nonpayable",
					"type": "constructor"
				},
				{
					"inputs": [
						{
							"internalType": "string[]",
							"name": "_names",
							"type": "string[]"
						},
						{
							"internalType": "address[][]",
							"name": "_members",
							"type": "address[][]"
						},
						{
							"internalType": "string[]",
							"name": "_shortDescriptions",
							"type": "string[]"
						},
						{
							"internalType": "string[]",
							"name": "_hashOfDetails",
							"type": "string[]"
						},
						{
							"internalType": "uint256[]",
							"name": "_stakeAmounts",
							"type": "uint256[]"
						},
						{
							"internalType": "address[][]",
							"name": "_skillVerifiedAddresses",
							"type": "address[][]"
						}
					],
					"name": "addOrUpdateOracle",
					"outputs": [],
					"stateMutability": "nonpayable",
					"type": "function"
				},
				{
					"inputs": [],
					"name": "applicationCounter",
					"outputs": [
						{
							"internalType": "uint256",
							"name": "",
							"type": "uint256"
						}
					],
					"stateMutability": "view",
					"type": "function"
				},
				{
					"inputs": [
						{
							"internalType": "uint256",
							"name": "_applicationId",
							"type": "uint256"
						}
					],
					"name": "approveSkillVerification",
					"outputs": [],
					"stateMutability": "nonpayable",
					"type": "function"
				},
				{
					"inputs": [],
					"name": "daoContract",
					"outputs": [
						{
							"internalType": "address",
							"name": "",
							"type": "address"
						}
					],
					"stateMutability": "view",
					"type": "function"
				},
				{
					"inputs": [],
					"name": "disputeCounter",
					"outputs": [
						{
							"internalType": "uint256",
							"name": "",
							"type": "uint256"
						}
					],
					"stateMutability": "view",
					"type": "function"
				},
				{
					"inputs": [
						{
							"internalType": "uint256",
							"name": "",
							"type": "uint256"
						}
					],
					"name": "disputes",
					"outputs": [
						{
							"internalType": "uint256",
							"name": "jobID",
							"type": "uint256"
						},
						{
							"internalType": "uint256",
							"name": "disputedAmount",
							"type": "uint256"
						},
						{
							"internalType": "string",
							"name": "hash",
							"type": "string"
						},
						{
							"internalType": "address",
							"name": "disputeRaiserAddress",
							"type": "address"
						},
						{
							"internalType": "uint256",
							"name": "votesFor",
							"type": "uint256"
						},
						{
							"internalType": "uint256",
							"name": "votesAgainst",
							"type": "uint256"
						},
						{
							"internalType": "bool",
							"name": "result",
							"type": "bool"
						},
						{
							"internalType": "bool",
							"name": "isVotingActive",
							"type": "bool"
						},
						{
							"internalType": "uint256",
							"name": "timeStamp",
							"type": "uint256"
						},
						{
							"internalType": "uint256",
							"name": "fees",
							"type": "uint256"
						}
					],
					"stateMutability": "view",
					"type": "function"
				},
				{
					"inputs": [],
					"name": "minOracleMembers",
					"outputs": [
						{
							"internalType": "uint256",
							"name": "",
							"type": "uint256"
						}
					],
					"stateMutability": "view",
					"type": "function"
				},
				{
					"inputs": [
						{
							"internalType": "string",
							"name": "",
							"type": "string"
						}
					],
					"name": "oracles",
					"outputs": [
						{
							"internalType": "string",
							"name": "name",
							"type": "string"
						},
						{
							"internalType": "string",
							"name": "shortDescription",
							"type": "string"
						},
						{
							"internalType": "string",
							"name": "hashOfDetails",
							"type": "string"
						},
						{
							"internalType": "uint256",
							"name": "stakeAmount",
							"type": "uint256"
						}
					],
					"stateMutability": "view",
					"type": "function"
				},
				{
					"inputs": [
						{
							"internalType": "uint256",
							"name": "_jobId",
							"type": "uint256"
						},
						{
							"internalType": "string",
							"name": "_disputeHash",
							"type": "string"
						},
						{
							"internalType": "string",
							"name": "_oracleName",
							"type": "string"
						},
						{
							"internalType": "uint256",
							"name": "_fee",
							"type": "uint256"
						}
					],
					"name": "raiseDispute",
					"outputs": [],
					"stateMutability": "nonpayable",
					"type": "function"
				},
				{
					"inputs": [
						{
							"internalType": "string",
							"name": "_oracleName",
							"type": "string"
						},
						{
							"internalType": "address",
							"name": "_memberToRemove",
							"type": "address"
						}
					],
					"name": "removeMemberFromOracle",
					"outputs": [],
					"stateMutability": "nonpayable",
					"type": "function"
				},
				{
					"inputs": [
						{
							"internalType": "string[]",
							"name": "_oracleNames",
							"type": "string[]"
						}
					],
					"name": "removeOracle",
					"outputs": [],
					"stateMutability": "nonpayable",
					"type": "function"
				},
				{
					"inputs": [
						{
							"internalType": "uint256",
							"name": "",
							"type": "uint256"
						}
					],
					"name": "skillApplications",
					"outputs": [
						{
							"internalType": "address",
							"name": "applicant",
							"type": "address"
						},
						{
							"internalType": "string",
							"name": "applicationHash",
							"type": "string"
						},
						{
							"internalType": "uint256",
							"name": "feeAmount",
							"type": "uint256"
						},
						{
							"internalType": "string",
							"name": "targetOracleName",
							"type": "string"
						}
					],
					"stateMutability": "view",
					"type": "function"
				},
				{
					"inputs": [
						{
							"internalType": "string",
							"name": "",
							"type": "string"
						},
						{
							"internalType": "address",
							"name": "",
							"type": "address"
						}
					],
					"name": "skillVerificationDates",
					"outputs": [
						{
							"internalType": "uint256",
							"name": "",
							"type": "uint256"
						}
					],
					"stateMutability": "view",
					"type": "function"
				},
				{
					"inputs": [
						{
							"internalType": "string",
							"name": "_applicationHash",
							"type": "string"
						},
						{
							"internalType": "uint256",
							"name": "_feeAmount",
							"type": "uint256"
						},
						{
							"internalType": "string",
							"name": "_targetOracleName",
							"type": "string"
						}
					],
					"name": "submitSkillVerification",
					"outputs": [],
					"stateMutability": "nonpayable",
					"type": "function"
				},
				{
					"inputs": [
						{
							"internalType": "uint256",
							"name": "_newMinMembers",
							"type": "uint256"
						}
					],
					"name": "updateMinOracleMembers",
					"outputs": [],
					"stateMutability": "nonpayable",
					"type": "function"
				}
			],
			"devdoc": {
				"kind": "dev",
				"methods": {},
				"version": 1
			},
			"evm": {
				"assembly": "    /* \"native-athena.sol\":57:5296  contract SkillOracle {... */\n  mstore(0x40, 0x80)\n    /* \"native-athena.sol\":1171:1172  3 */\n  0x03\n    /* \"native-athena.sol\":1137:1172  uint256 public minOracleMembers = 3 */\n  0x07\n  sstore\n    /* \"native-athena.sol\":1309:1386  constructor(address _daoContract) {... */\n  callvalue\n  dup1\n  iszero\n  tag_1\n  jumpi\n  0x00\n  dup1\n  revert\ntag_1:\n  pop\n  mload(0x40)\n  sub(codesize, bytecodeSize)\n  dup1\n  bytecodeSize\n  dup4\n  codecopy\n  dup2\n  add\n  0x40\n  dup2\n  swap1\n  mstore\n  tag_2\n  swap2\n  tag_3\n  jump\t// in\ntag_2:\n    /* \"native-athena.sol\":1353:1364  daoContract */\n  0x00\n    /* \"native-athena.sol\":1353:1379  daoContract = _daoContract */\n  dup1\n  sload\n  not(sub(shl(0xa0, 0x01), 0x01))\n  and\n  sub(shl(0xa0, 0x01), 0x01)\n  swap3\n  swap1\n  swap3\n  and\n  swap2\n  swap1\n  swap2\n  or\n  swap1\n  sstore\n    /* \"native-athena.sol\":57:5296  contract SkillOracle {... */\n  jump(tag_7)\n    /* \"#utility.yul\":14:304   */\ntag_3:\n    /* \"#utility.yul\":84:90   */\n  0x00\n    /* \"#utility.yul\":137:139   */\n  0x20\n    /* \"#utility.yul\":125:134   */\n  dup3\n    /* \"#utility.yul\":116:123   */\n  dup5\n    /* \"#utility.yul\":112:135   */\n  sub\n    /* \"#utility.yul\":108:140   */\n  slt\n    /* \"#utility.yul\":105:157   */\n  iszero\n  tag_9\n  jumpi\n    /* \"#utility.yul\":153:154   */\n  0x00\n    /* \"#utility.yul\":150:151   */\n  dup1\n    /* \"#utility.yul\":143:155   */\n  revert\n    /* \"#utility.yul\":105:157   */\ntag_9:\n    /* \"#utility.yul\":179:195   */\n  dup2\n  mload\n  sub(shl(0xa0, 0x01), 0x01)\n    /* \"#utility.yul\":224:255   */\n  dup2\n  and\n    /* \"#utility.yul\":214:256   */\n  dup2\n  eq\n    /* \"#utility.yul\":204:274   */\n  tag_10\n  jumpi\n    /* \"#utility.yul\":270:271   */\n  0x00\n    /* \"#utility.yul\":267:268   */\n  dup1\n    /* \"#utility.yul\":260:272   */\n  revert\n    /* \"#utility.yul\":204:274   */\ntag_10:\n    /* \"#utility.yul\":293:298   */\n  swap4\n    /* \"#utility.yul\":14:304   */\n  swap3\n  pop\n  pop\n  pop\n  jump\t// out\ntag_7:\n    /* \"native-athena.sol\":57:5296  contract SkillOracle {... */\n  dataSize(sub_0)\n  dup1\n  dataOffset(sub_0)\n  0x00\n  codecopy\n  0x00\n  return\nstop\n\nsub_0: assembly {\n        /* \"native-athena.sol\":57:5296  contract SkillOracle {... */\n      mstore(0x40, 0x80)\n      callvalue\n      dup1\n      iszero\n      tag_1\n      jumpi\n      0x00\n      dup1\n      revert\n    tag_1:\n      pop\n      jumpi(tag_2, lt(calldatasize, 0x04))\n      shr(0xe0, calldataload(0x00))\n      dup1\n      0x67c2f3e1\n      gt\n      tag_18\n      jumpi\n      dup1\n      0x9e4ffd54\n      gt\n      tag_19\n      jumpi\n      dup1\n      0x9e4ffd54\n      eq\n      tag_14\n      jumpi\n      dup1\n      0xadd6beaf\n      eq\n      tag_15\n      jumpi\n      dup1\n      0xd2ffdcdd\n      eq\n      tag_16\n      jumpi\n      dup1\n      0xdb144d01\n      eq\n      tag_17\n      jumpi\n      0x00\n      dup1\n      revert\n    tag_19:\n      dup1\n      0x67c2f3e1\n      eq\n      tag_10\n      jumpi\n      dup1\n      0x7d36f4d3\n      eq\n      tag_11\n      jumpi\n      dup1\n      0x893ebc21\n      eq\n      tag_12\n      jumpi\n      dup1\n      0x92db6614\n      eq\n      tag_13\n      jumpi\n      0x00\n      dup1\n      revert\n    tag_18:\n      dup1\n      0x4a7ffcbc\n      gt\n      tag_20\n      jumpi\n      dup1\n      0x4a7ffcbc\n      eq\n      tag_6\n      jumpi\n      dup1\n      0x4dea6307\n      eq\n      tag_7\n      jumpi\n      dup1\n      0x564a565d\n      eq\n      tag_8\n      jumpi\n      dup1\n      0x5b3a8e1c\n      eq\n      tag_9\n      jumpi\n      0x00\n      dup1\n      revert\n    tag_20:\n      dup1\n      0x0b9abbfa\n      eq\n      tag_3\n      jumpi\n      dup1\n      0x340cadcd\n      eq\n      tag_4\n      jumpi\n      dup1\n      0x40db1a79\n      eq\n      tag_5\n      jumpi\n    tag_2:\n      0x00\n      dup1\n      revert\n        /* \"native-athena.sol\":1137:1172  uint256 public minOracleMembers = 3 */\n    tag_3:\n      tag_21\n      sload(0x07)\n      dup2\n      jump\n    tag_21:\n      mload(0x40)\n        /* \"#utility.yul\":160:185   */\n      swap1\n      dup2\n      mstore\n        /* \"#utility.yul\":148:150   */\n      0x20\n        /* \"#utility.yul\":133:151   */\n      add\n        /* \"native-athena.sol\":1137:1172  uint256 public minOracleMembers = 3 */\n    tag_23:\n      mload(0x40)\n      dup1\n      swap2\n      sub\n      swap1\n      return\n        /* \"native-athena.sol\":3055:3985  function raiseDispute(... */\n    tag_4:\n      tag_25\n      tag_26\n      calldatasize\n      0x04\n      tag_27\n      jump\t// in\n    tag_26:\n      tag_28\n      jump\t// in\n    tag_25:\n      stop\n        /* \"native-athena.sol\":4643:4834  function removeOracle(string[] memory _oracleNames) external onlyDAO {... */\n    tag_5:\n      tag_25\n      tag_30\n      calldatasize\n      0x04\n      tag_31\n      jump\t// in\n    tag_30:\n      tag_32\n      jump\t// in\n        /* \"native-athena.sol\":84:110  address public daoContract */\n    tag_6:\n      sload(0x00)\n      tag_33\n      swap1\n      sub(shl(0xa0, 0x01), 0x01)\n      and\n      dup2\n      jump\n    tag_33:\n      mload(0x40)\n      sub(shl(0xa0, 0x01), 0x01)\n        /* \"#utility.yul\":3494:3526   */\n      swap1\n      swap2\n      and\n        /* \"#utility.yul\":3476:3527   */\n      dup2\n      mstore\n        /* \"#utility.yul\":3464:3466   */\n      0x20\n        /* \"#utility.yul\":3449:3467   */\n      add\n        /* \"native-athena.sol\":84:110  address public daoContract */\n      tag_23\n        /* \"#utility.yul\":3330:3533   */\n      jump\n        /* \"native-athena.sol\":3995:4118  function updateMinOracleMembers(uint256 _newMinMembers) external onlyDAO {... */\n    tag_7:\n      tag_25\n      tag_38\n      calldatasize\n      0x04\n      tag_39\n      jump\t// in\n    tag_38:\n      tag_40\n      jump\t// in\n        /* \"native-athena.sol\":1014:1057  mapping(uint256 => Dispute) public disputes */\n    tag_8:\n      tag_41\n      tag_42\n      calldatasize\n      0x04\n      tag_39\n      jump\t// in\n    tag_42:\n      tag_43\n      jump\t// in\n    tag_41:\n      mload(0x40)\n      tag_23\n      swap11\n      swap10\n      swap9\n      swap8\n      swap7\n      swap6\n      swap5\n      swap4\n      swap3\n      swap2\n      swap1\n      tag_45\n      jump\t// in\n        /* \"native-athena.sol\":935:1008  mapping(uint256 => SkillVerificationApplication) public skillApplications */\n    tag_9:\n      tag_46\n      tag_47\n      calldatasize\n      0x04\n      tag_39\n      jump\t// in\n    tag_47:\n      tag_48\n      jump\t// in\n    tag_46:\n      mload(0x40)\n      tag_23\n      swap5\n      swap4\n      swap3\n      swap2\n      swap1\n      tag_50\n      jump\t// in\n        /* \"native-athena.sol\":807:847  mapping(string => Oracle) public oracles */\n    tag_10:\n      tag_51\n      tag_52\n      calldatasize\n      0x04\n      tag_53\n      jump\t// in\n    tag_52:\n      tag_54\n      jump\t// in\n    tag_51:\n      mload(0x40)\n      tag_23\n      swap5\n      swap4\n      swap3\n      swap2\n      swap1\n      tag_56\n      jump\t// in\n        /* \"native-athena.sol\":1102:1131  uint256 public disputeCounter */\n    tag_11:\n      tag_21\n      sload(0x06)\n      dup2\n      jump\n        /* \"native-athena.sol\":4844:5294  function submitSkillVerification(... */\n    tag_12:\n      tag_25\n      tag_61\n      calldatasize\n      0x04\n      tag_62\n      jump\t// in\n    tag_61:\n      tag_63\n      jump\t// in\n        /* \"native-athena.sol\":2472:3045  function approveSkillVerification(uint256 _applicationId) external onlyDAO {... */\n    tag_13:\n      tag_25\n      tag_65\n      calldatasize\n      0x04\n      tag_39\n      jump\t// in\n    tag_65:\n      tag_66\n      jump\t// in\n        /* \"native-athena.sol\":853:929  mapping(string => mapping(address => uint256)) public skillVerificationDates */\n    tag_14:\n      tag_21\n      tag_68\n      calldatasize\n      0x04\n      tag_69\n      jump\t// in\n    tag_68:\n      dup2\n      mload\n      0x20\n      dup2\n      dup5\n      add\n      dup2\n      add\n      dup1\n      mload\n      0x02\n      dup3\n      mstore\n      swap3\n      dup3\n      add\n      swap5\n      dup3\n      add\n      swap5\n      swap1\n      swap5\n      keccak256\n      swap2\n      swap1\n      swap4\n      mstore\n      swap1\n      swap2\n      mstore\n      0x00\n      swap1\n      dup2\n      mstore\n      0x40\n      swap1\n      keccak256\n      sload\n      dup2\n      jump\n        /* \"native-athena.sol\":4128:4633  function removeMemberFromOracle(string memory _oracleName, address _memberToRemove) external onlyDAO {... */\n    tag_15:\n      tag_25\n      tag_73\n      calldatasize\n      0x04\n      tag_69\n      jump\t// in\n    tag_73:\n      tag_74\n      jump\t// in\n        /* \"native-athena.sol\":1396:2462  function addOrUpdateOracle(... */\n    tag_16:\n      tag_25\n      tag_76\n      calldatasize\n      0x04\n      tag_77\n      jump\t// in\n    tag_76:\n      tag_78\n      jump\t// in\n        /* \"native-athena.sol\":1063:1096  uint256 public applicationCounter */\n    tag_17:\n      tag_21\n      sload(0x05)\n      dup2\n      jump\n        /* \"native-athena.sol\":3055:3985  function raiseDispute(... */\n    tag_28:\n        /* \"native-athena.sol\":3334:3350  minOracleMembers */\n      sload(0x07)\n        /* \"native-athena.sol\":3295:3302  oracles */\n      0x01\n        /* \"native-athena.sol\":3303:3314  _oracleName */\n      dup4\n        /* \"native-athena.sol\":3295:3315  oracles[_oracleName] */\n      mload(0x40)\n      tag_83\n      swap2\n      swap1\n      tag_84\n      jump\t// in\n    tag_83:\n      swap1\n      dup2\n      mstore\n      mload(0x40)\n      swap1\n      dup2\n      swap1\n      sub\n      0x20\n      add\n      swap1\n      keccak256\n        /* \"native-athena.sol\":3295:3323  oracles[_oracleName].members */\n      0x01\n      add\n        /* \"native-athena.sol\":3295:3330  oracles[_oracleName].members.length */\n      sload\n        /* \"native-athena.sol\":3295:3350  oracles[_oracleName].members.length >= minOracleMembers */\n      lt\n      iszero\n        /* \"native-athena.sol\":3287:3372  require(oracles[_oracleName].members.length >= minOracleMembers, \"Oracle not active\") */\n      tag_85\n      jumpi\n      mload(0x40)\n      shl(0xe5, 0x461bcd)\n      dup2\n      mstore\n        /* \"#utility.yul\":12362:12364   */\n      0x20\n        /* \"native-athena.sol\":3287:3372  require(oracles[_oracleName].members.length >= minOracleMembers, \"Oracle not active\") */\n      0x04\n      dup3\n      add\n        /* \"#utility.yul\":12344:12365   */\n      mstore\n        /* \"#utility.yul\":12401:12403   */\n      0x11\n        /* \"#utility.yul\":12381:12399   */\n      0x24\n      dup3\n      add\n        /* \"#utility.yul\":12374:12404   */\n      mstore\n      shl(0x78, 0x4f7261636c65206e6f7420616374697665)\n        /* \"#utility.yul\":12420:12438   */\n      0x44\n      dup3\n      add\n        /* \"#utility.yul\":12413:12460   */\n      mstore\n        /* \"#utility.yul\":12477:12495   */\n      0x64\n      add\n        /* \"native-athena.sol\":3287:3372  require(oracles[_oracleName].members.length >= minOracleMembers, \"Oracle not active\") */\n    tag_86:\n      mload(0x40)\n      dup1\n      swap2\n      sub\n      swap1\n      revert\n    tag_85:\n        /* \"native-athena.sol\":3615:3952  Dispute({... */\n      0x40\n      dup1\n      mload\n      0x0140\n      dup2\n      add\n      dup3\n      mstore\n      dup6\n      dup2\n      mstore\n      0x20\n      dup1\n      dup3\n      add\n      dup5\n      dup2\n      mstore\n      dup3\n      dup5\n      add\n      dup8\n      dup2\n      mstore\n        /* \"native-athena.sol\":3752:3762  msg.sender */\n      caller\n        /* \"native-athena.sol\":3615:3952  Dispute({... */\n      0x60\n      dup6\n      add\n      mstore\n      0x00\n      0x80\n      dup6\n      add\n      dup2\n      swap1\n      mstore\n      0xa0\n      dup6\n      add\n      dup2\n      swap1\n      mstore\n      0xc0\n      dup6\n      add\n      dup2\n      swap1\n      mstore\n      0x01\n      0xe0\n      dup7\n      add\n      dup2\n      swap1\n      mstore\n        /* \"native-athena.sol\":3902:3917  block.timestamp */\n      timestamp\n        /* \"native-athena.sol\":3615:3952  Dispute({... */\n      0x0100\n      dup8\n      add\n      mstore\n      0x0120\n      dup7\n      add\n      dup9\n      swap1\n      mstore\n        /* \"native-athena.sol\":3597:3611  disputeCounter */\n      sload(0x06)\n        /* \"native-athena.sol\":3588:3612  disputes[disputeCounter] */\n      dup3\n      mstore\n        /* \"native-athena.sol\":3588:3596  disputes */\n      0x04\n        /* \"native-athena.sol\":3588:3612  disputes[disputeCounter] */\n      swap1\n      swap5\n      mstore\n      swap5\n      swap1\n      swap5\n      keccak256\n        /* \"native-athena.sol\":3588:3952  disputes[disputeCounter] = Dispute({... */\n      dup4\n      mload\n      dup2\n      sstore\n      swap1\n      mload\n      swap2\n      dup2\n      add\n      swap2\n      swap1\n      swap2\n      sstore\n      swap2\n      mload\n        /* \"native-athena.sol\":3615:3952  Dispute({... */\n      swap1\n      swap2\n        /* \"native-athena.sol\":3588:3612  disputes[disputeCounter] */\n      swap1\n        /* \"native-athena.sol\":3588:3952  disputes[disputeCounter] = Dispute({... */\n      0x02\n      dup3\n      add\n      swap1\n      tag_88\n      swap1\n      dup3\n      tag_89\n      jump\t// in\n    tag_88:\n      pop\n      0x60\n      dup3\n      add\n      mload\n      0x03\n      dup3\n      add\n      dup1\n      sload\n      not(sub(shl(0xa0, 0x01), 0x01))\n      and\n      sub(shl(0xa0, 0x01), 0x01)\n      swap1\n      swap3\n      and\n      swap2\n      swap1\n      swap2\n      or\n      swap1\n      sstore\n      0x80\n      dup3\n      add\n      mload\n      0x04\n      dup3\n      add\n      sstore\n      0xa0\n      dup3\n      add\n      mload\n      0x05\n      dup3\n      add\n      sstore\n      0xc0\n      dup3\n      add\n      mload\n      0x06\n      dup1\n      dup4\n      add\n      dup1\n      sload\n      0xe0\n      dup7\n      add\n      mload\n      not(0xffff)\n      swap1\n      swap2\n      and\n      swap4\n      iszero\n      iszero\n      not(0xff00)\n      and\n      swap4\n      swap1\n      swap4\n      or\n      0x0100\n      swap4\n      iszero\n      iszero\n      dup5\n      mul\n      or\n      swap1\n      sstore\n      swap1\n      dup4\n      add\n      mload\n      0x07\n      dup4\n      add\n      sstore\n      0x0120\n      swap1\n      swap3\n      add\n      mload\n      0x08\n      swap1\n      swap2\n      add\n      sstore\n        /* \"native-athena.sol\":3962:3978  disputeCounter++ */\n      dup1\n      sload\n      swap1\n      0x00\n      tag_90\n      dup4\n      tag_91\n      jump\t// in\n    tag_90:\n      swap2\n      swap1\n      pop\n      sstore\n      pop\n        /* \"native-athena.sol\":3055:3985  function raiseDispute(... */\n      pop\n      pop\n      pop\n      pop\n      jump\t// out\n        /* \"native-athena.sol\":4643:4834  function removeOracle(string[] memory _oracleNames) external onlyDAO {... */\n    tag_32:\n        /* \"native-athena.sol\":1234:1245  daoContract */\n      and(sub(shl(0xa0, 0x01), 0x01), sload(0x00))\n        /* \"native-athena.sol\":1220:1230  msg.sender */\n      caller\n        /* \"native-athena.sol\":1220:1245  msg.sender == daoContract */\n      eq\n        /* \"native-athena.sol\":1212:1281  require(msg.sender == daoContract, \"Only DAO can call this function\") */\n      tag_93\n      jumpi\n      mload(0x40)\n      shl(0xe5, 0x461bcd)\n      dup2\n      mstore\n      0x04\n      add\n      tag_86\n      swap1\n      tag_95\n      jump\t// in\n    tag_93:\n        /* \"native-athena.sol\":4727:4736  uint256 i */\n      0x00\n        /* \"native-athena.sol\":4722:4828  for (uint256 i = 0; i < _oracleNames.length; i++) {... */\n    tag_97:\n        /* \"native-athena.sol\":4746:4758  _oracleNames */\n      dup2\n        /* \"native-athena.sol\":4746:4765  _oracleNames.length */\n      mload\n        /* \"native-athena.sol\":4742:4743  i */\n      dup2\n        /* \"native-athena.sol\":4742:4765  i < _oracleNames.length */\n      lt\n        /* \"native-athena.sol\":4722:4828  for (uint256 i = 0; i < _oracleNames.length; i++) {... */\n      iszero\n      tag_98\n      jumpi\n        /* \"native-athena.sol\":4793:4800  oracles */\n      0x01\n        /* \"native-athena.sol\":4801:4813  _oracleNames */\n      dup3\n        /* \"native-athena.sol\":4814:4815  i */\n      dup3\n        /* \"native-athena.sol\":4801:4816  _oracleNames[i] */\n      dup2\n      mload\n      dup2\n      lt\n      tag_101\n      jumpi\n      tag_101\n      tag_102\n      jump\t// in\n    tag_101:\n      0x20\n      mul\n      0x20\n      add\n      add\n      mload\n        /* \"native-athena.sol\":4793:4817  oracles[_oracleNames[i]] */\n      mload(0x40)\n      tag_103\n      swap2\n      swap1\n      tag_84\n      jump\t// in\n    tag_103:\n      swap1\n      dup2\n      mstore\n      mload(0x40)\n      swap1\n      dup2\n      swap1\n      sub\n      0x20\n      add\n      swap1\n      keccak256\n      0x00\n        /* \"native-athena.sol\":4786:4817  delete oracles[_oracleNames[i]] */\n      tag_104\n        /* \"native-athena.sol\":4793:4817  oracles[_oracleNames[i]] */\n      dup3\n      dup3\n        /* \"native-athena.sol\":4786:4817  delete oracles[_oracleNames[i]] */\n      tag_105\n      jump\t// in\n    tag_104:\n      tag_106\n      0x01\n      dup4\n      add\n      0x00\n      tag_107\n      jump\t// in\n    tag_106:\n      tag_108\n      0x02\n      dup4\n      add\n      0x00\n      tag_105\n      jump\t// in\n    tag_108:\n      tag_109\n      0x03\n      dup4\n      add\n      0x00\n      tag_105\n      jump\t// in\n    tag_109:\n      0x04\n      dup3\n      add\n      0x00\n      swap1\n      sstore\n      0x05\n      dup3\n      add\n      0x00\n      tag_110\n      swap2\n      swap1\n      tag_107\n      jump\t// in\n    tag_110:\n      pop\n      pop\n        /* \"native-athena.sol\":4767:4770  i++ */\n      0x01\n      add\n        /* \"native-athena.sol\":4722:4828  for (uint256 i = 0; i < _oracleNames.length; i++) {... */\n      jump(tag_97)\n    tag_98:\n      pop\n        /* \"native-athena.sol\":4643:4834  function removeOracle(string[] memory _oracleNames) external onlyDAO {... */\n      pop\n      jump\t// out\n        /* \"native-athena.sol\":3995:4118  function updateMinOracleMembers(uint256 _newMinMembers) external onlyDAO {... */\n    tag_40:\n        /* \"native-athena.sol\":1234:1245  daoContract */\n      and(sub(shl(0xa0, 0x01), 0x01), sload(0x00))\n        /* \"native-athena.sol\":1220:1230  msg.sender */\n      caller\n        /* \"native-athena.sol\":1220:1245  msg.sender == daoContract */\n      eq\n        /* \"native-athena.sol\":1212:1281  require(msg.sender == daoContract, \"Only DAO can call this function\") */\n      tag_112\n      jumpi\n      mload(0x40)\n      shl(0xe5, 0x461bcd)\n      dup2\n      mstore\n      0x04\n      add\n      tag_86\n      swap1\n      tag_95\n      jump\t// in\n    tag_112:\n        /* \"native-athena.sol\":4078:4094  minOracleMembers */\n      0x07\n        /* \"native-athena.sol\":4078:4111  minOracleMembers = _newMinMembers */\n      sstore\n        /* \"native-athena.sol\":3995:4118  function updateMinOracleMembers(uint256 _newMinMembers) external onlyDAO {... */\n      jump\t// out\n        /* \"native-athena.sol\":1014:1057  mapping(uint256 => Dispute) public disputes */\n    tag_43:\n      mstore(0x20, 0x04)\n      0x00\n      swap1\n      dup2\n      mstore\n      0x40\n      swap1\n      keccak256\n      dup1\n      sload\n      0x01\n      dup3\n      add\n      sload\n      0x02\n      dup4\n      add\n      dup1\n      sload\n      swap3\n      swap4\n      swap2\n      swap3\n      tag_115\n      swap1\n      tag_116\n      jump\t// in\n    tag_115:\n      dup1\n      0x1f\n      add\n      0x20\n      dup1\n      swap2\n      div\n      mul\n      0x20\n      add\n      mload(0x40)\n      swap1\n      dup2\n      add\n      0x40\n      mstore\n      dup1\n      swap3\n      swap2\n      swap1\n      dup2\n      dup2\n      mstore\n      0x20\n      add\n      dup3\n      dup1\n      sload\n      tag_117\n      swap1\n      tag_116\n      jump\t// in\n    tag_117:\n      dup1\n      iszero\n      tag_118\n      jumpi\n      dup1\n      0x1f\n      lt\n      tag_119\n      jumpi\n      0x0100\n      dup1\n      dup4\n      sload\n      div\n      mul\n      dup4\n      mstore\n      swap2\n      0x20\n      add\n      swap2\n      jump(tag_118)\n    tag_119:\n      dup3\n      add\n      swap2\n      swap1\n      0x00\n      mstore\n      keccak256(0x00, 0x20)\n      swap1\n    tag_120:\n      dup2\n      sload\n      dup2\n      mstore\n      swap1\n      0x01\n      add\n      swap1\n      0x20\n      add\n      dup1\n      dup4\n      gt\n      tag_120\n      jumpi\n      dup3\n      swap1\n      sub\n      0x1f\n      and\n      dup3\n      add\n      swap2\n    tag_118:\n      pop\n      pop\n      pop\n      0x03\n      dup5\n      add\n      sload\n      0x04\n      dup6\n      add\n      sload\n      0x05\n      dup7\n      add\n      sload\n      0x06\n      dup8\n      add\n      sload\n      0x07\n      dup9\n      add\n      sload\n      0x08\n      swap1\n      swap9\n      add\n      sload\n      swap7\n      swap8\n      sub(shl(0xa0, 0x01), 0x01)\n      swap1\n      swap5\n      and\n      swap7\n      swap3\n      swap6\n      pop\n      swap1\n      swap4\n      pop\n      0xff\n      dup1\n      dup3\n      and\n      swap4\n      0x0100\n      swap1\n      swap3\n      div\n      and\n      swap2\n      dup11\n      jump\t// out\n        /* \"native-athena.sol\":935:1008  mapping(uint256 => SkillVerificationApplication) public skillApplications */\n    tag_48:\n      mstore(0x20, 0x03)\n      0x00\n      swap1\n      dup2\n      mstore\n      0x40\n      swap1\n      keccak256\n      dup1\n      sload\n      0x01\n      dup3\n      add\n      dup1\n      sload\n      sub(shl(0xa0, 0x01), 0x01)\n      swap1\n      swap3\n      and\n      swap3\n      swap2\n      tag_121\n      swap1\n      tag_116\n      jump\t// in\n    tag_121:\n      dup1\n      0x1f\n      add\n      0x20\n      dup1\n      swap2\n      div\n      mul\n      0x20\n      add\n      mload(0x40)\n      swap1\n      dup2\n      add\n      0x40\n      mstore\n      dup1\n      swap3\n      swap2\n      swap1\n      dup2\n      dup2\n      mstore\n      0x20\n      add\n      dup3\n      dup1\n      sload\n      tag_122\n      swap1\n      tag_116\n      jump\t// in\n    tag_122:\n      dup1\n      iszero\n      tag_123\n      jumpi\n      dup1\n      0x1f\n      lt\n      tag_124\n      jumpi\n      0x0100\n      dup1\n      dup4\n      sload\n      div\n      mul\n      dup4\n      mstore\n      swap2\n      0x20\n      add\n      swap2\n      jump(tag_123)\n    tag_124:\n      dup3\n      add\n      swap2\n      swap1\n      0x00\n      mstore\n      keccak256(0x00, 0x20)\n      swap1\n    tag_125:\n      dup2\n      sload\n      dup2\n      mstore\n      swap1\n      0x01\n      add\n      swap1\n      0x20\n      add\n      dup1\n      dup4\n      gt\n      tag_125\n      jumpi\n      dup3\n      swap1\n      sub\n      0x1f\n      and\n      dup3\n      add\n      swap2\n    tag_123:\n      pop\n      pop\n      pop\n      pop\n      pop\n      swap1\n      dup1\n      0x02\n      add\n      sload\n      swap1\n      dup1\n      0x03\n      add\n      dup1\n      sload\n      tag_126\n      swap1\n      tag_116\n      jump\t// in\n    tag_126:\n      dup1\n      0x1f\n      add\n      0x20\n      dup1\n      swap2\n      div\n      mul\n      0x20\n      add\n      mload(0x40)\n      swap1\n      dup2\n      add\n      0x40\n      mstore\n      dup1\n      swap3\n      swap2\n      swap1\n      dup2\n      dup2\n      mstore\n      0x20\n      add\n      dup3\n      dup1\n      sload\n      tag_127\n      swap1\n      tag_116\n      jump\t// in\n    tag_127:\n      dup1\n      iszero\n      tag_128\n      jumpi\n      dup1\n      0x1f\n      lt\n      tag_129\n      jumpi\n      0x0100\n      dup1\n      dup4\n      sload\n      div\n      mul\n      dup4\n      mstore\n      swap2\n      0x20\n      add\n      swap2\n      jump(tag_128)\n    tag_129:\n      dup3\n      add\n      swap2\n      swap1\n      0x00\n      mstore\n      keccak256(0x00, 0x20)\n      swap1\n    tag_130:\n      dup2\n      sload\n      dup2\n      mstore\n      swap1\n      0x01\n      add\n      swap1\n      0x20\n      add\n      dup1\n      dup4\n      gt\n      tag_130\n      jumpi\n      dup3\n      swap1\n      sub\n      0x1f\n      and\n      dup3\n      add\n      swap2\n    tag_128:\n      pop\n      pop\n      pop\n      pop\n      pop\n      swap1\n      pop\n      dup5\n      jump\t// out\n        /* \"native-athena.sol\":807:847  mapping(string => Oracle) public oracles */\n    tag_54:\n      dup1\n      mload\n      0x20\n      dup2\n      dup4\n      add\n      dup2\n      add\n      dup1\n      mload\n      0x01\n      dup3\n      mstore\n      swap3\n      dup3\n      add\n      swap2\n      swap1\n      swap4\n      add\n      keccak256\n      swap2\n      mstore\n      dup1\n      sload\n      dup2\n      swap1\n      tag_131\n      swap1\n      tag_116\n      jump\t// in\n    tag_131:\n      dup1\n      0x1f\n      add\n      0x20\n      dup1\n      swap2\n      div\n      mul\n      0x20\n      add\n      mload(0x40)\n      swap1\n      dup2\n      add\n      0x40\n      mstore\n      dup1\n      swap3\n      swap2\n      swap1\n      dup2\n      dup2\n      mstore\n      0x20\n      add\n      dup3\n      dup1\n      sload\n      tag_132\n      swap1\n      tag_116\n      jump\t// in\n    tag_132:\n      dup1\n      iszero\n      tag_133\n      jumpi\n      dup1\n      0x1f\n      lt\n      tag_134\n      jumpi\n      0x0100\n      dup1\n      dup4\n      sload\n      div\n      mul\n      dup4\n      mstore\n      swap2\n      0x20\n      add\n      swap2\n      jump(tag_133)\n    tag_134:\n      dup3\n      add\n      swap2\n      swap1\n      0x00\n      mstore\n      keccak256(0x00, 0x20)\n      swap1\n    tag_135:\n      dup2\n      sload\n      dup2\n      mstore\n      swap1\n      0x01\n      add\n      swap1\n      0x20\n      add\n      dup1\n      dup4\n      gt\n      tag_135\n      jumpi\n      dup3\n      swap1\n      sub\n      0x1f\n      and\n      dup3\n      add\n      swap2\n    tag_133:\n      pop\n      pop\n      pop\n      pop\n      pop\n      swap1\n      dup1\n      0x02\n      add\n      dup1\n      sload\n      tag_136\n      swap1\n      tag_116\n      jump\t// in\n    tag_136:\n      dup1\n      0x1f\n      add\n      0x20\n      dup1\n      swap2\n      div\n      mul\n      0x20\n      add\n      mload(0x40)\n      swap1\n      dup2\n      add\n      0x40\n      mstore\n      dup1\n      swap3\n      swap2\n      swap1\n      dup2\n      dup2\n      mstore\n      0x20\n      add\n      dup3\n      dup1\n      sload\n      tag_137\n      swap1\n      tag_116\n      jump\t// in\n    tag_137:\n      dup1\n      iszero\n      tag_138\n      jumpi\n      dup1\n      0x1f\n      lt\n      tag_139\n      jumpi\n      0x0100\n      dup1\n      dup4\n      sload\n      div\n      mul\n      dup4\n      mstore\n      swap2\n      0x20\n      add\n      swap2\n      jump(tag_138)\n    tag_139:\n      dup3\n      add\n      swap2\n      swap1\n      0x00\n      mstore\n      keccak256(0x00, 0x20)\n      swap1\n    tag_140:\n      dup2\n      sload\n      dup2\n      mstore\n      swap1\n      0x01\n      add\n      swap1\n      0x20\n      add\n      dup1\n      dup4\n      gt\n      tag_140\n      jumpi\n      dup3\n      swap1\n      sub\n      0x1f\n      and\n      dup3\n      add\n      swap2\n    tag_138:\n      pop\n      pop\n      pop\n      pop\n      pop\n      swap1\n      dup1\n      0x03\n      add\n      dup1\n      sload\n      tag_141\n      swap1\n      tag_116\n      jump\t// in\n    tag_141:\n      dup1\n      0x1f\n      add\n      0x20\n      dup1\n      swap2\n      div\n      mul\n      0x20\n      add\n      mload(0x40)\n      swap1\n      dup2\n      add\n      0x40\n      mstore\n      dup1\n      swap3\n      swap2\n      swap1\n      dup2\n      dup2\n      mstore\n      0x20\n      add\n      dup3\n      dup1\n      sload\n      tag_142\n      swap1\n      tag_116\n      jump\t// in\n    tag_142:\n      dup1\n      iszero\n      tag_143\n      jumpi\n      dup1\n      0x1f\n      lt\n      tag_144\n      jumpi\n      0x0100\n      dup1\n      dup4\n      sload\n      div\n      mul\n      dup4\n      mstore\n      swap2\n      0x20\n      add\n      swap2\n      jump(tag_143)\n    tag_144:\n      dup3\n      add\n      swap2\n      swap1\n      0x00\n      mstore\n      keccak256(0x00, 0x20)\n      swap1\n    tag_145:\n      dup2\n      sload\n      dup2\n      mstore\n      swap1\n      0x01\n      add\n      swap1\n      0x20\n      add\n      dup1\n      dup4\n      gt\n      tag_145\n      jumpi\n      dup3\n      swap1\n      sub\n      0x1f\n      and\n      dup3\n      add\n      swap2\n    tag_143:\n      pop\n      pop\n      pop\n      pop\n      pop\n      swap1\n      dup1\n      0x04\n      add\n      sload\n      swap1\n      pop\n      dup5\n      jump\t// out\n        /* \"native-athena.sol\":4844:5294  function submitSkillVerification(... */\n    tag_63:\n        /* \"native-athena.sol\":5051:5257  SkillVerificationApplication({... */\n      0x40\n      dup1\n      mload\n      0x80\n      dup2\n      add\n      dup3\n      mstore\n        /* \"native-athena.sol\":5105:5115  msg.sender */\n      caller\n        /* \"native-athena.sol\":5051:5257  SkillVerificationApplication({... */\n      dup2\n      mstore\n      0x20\n      dup1\n      dup3\n      add\n      dup7\n      dup2\n      mstore\n      dup3\n      dup5\n      add\n      dup7\n      swap1\n      mstore\n      0x60\n      dup4\n      add\n      dup6\n      swap1\n      mstore\n        /* \"native-athena.sol\":5029:5047  applicationCounter */\n      sload(0x05)\n      0x00\n        /* \"native-athena.sol\":5011:5048  skillApplications[applicationCounter] */\n      swap1\n      dup2\n      mstore\n        /* \"native-athena.sol\":5011:5028  skillApplications */\n      0x03\n        /* \"native-athena.sol\":5011:5048  skillApplications[applicationCounter] */\n      swap1\n      swap3\n      mstore\n      swap3\n      swap1\n      keccak256\n        /* \"native-athena.sol\":5011:5257  skillApplications[applicationCounter] = SkillVerificationApplication({... */\n      dup2\n      mload\n      dup2\n      sload\n      not(sub(shl(0xa0, 0x01), 0x01))\n      and\n      sub(shl(0xa0, 0x01), 0x01)\n      swap1\n      swap2\n      and\n      or\n      dup2\n      sstore\n      swap2\n      mload\n        /* \"native-athena.sol\":5051:5257  SkillVerificationApplication({... */\n      swap1\n      swap2\n        /* \"native-athena.sol\":5011:5048  skillApplications[applicationCounter] */\n      swap1\n      0x01\n        /* \"native-athena.sol\":5011:5257  skillApplications[applicationCounter] = SkillVerificationApplication({... */\n      dup3\n      add\n      swap1\n      tag_147\n      swap1\n      dup3\n      tag_89\n      jump\t// in\n    tag_147:\n      pop\n      0x40\n      dup3\n      add\n      mload\n      0x02\n      dup3\n      add\n      sstore\n      0x60\n      dup3\n      add\n      mload\n      0x03\n      dup3\n      add\n      swap1\n      tag_148\n      swap1\n      dup3\n      tag_89\n      jump\t// in\n    tag_148:\n      pop\n      pop\n        /* \"native-athena.sol\":5267:5285  applicationCounter */\n      0x05\n        /* \"native-athena.sol\":5267:5287  applicationCounter++ */\n      dup1\n      sload\n      swap2\n      pop\n        /* \"native-athena.sol\":5267:5285  applicationCounter */\n      0x00\n        /* \"native-athena.sol\":5267:5287  applicationCounter++ */\n      tag_149\n      dup4\n      tag_91\n      jump\t// in\n    tag_149:\n      swap2\n      swap1\n      pop\n      sstore\n      pop\n        /* \"native-athena.sol\":4844:5294  function submitSkillVerification(... */\n      pop\n      pop\n      pop\n      jump\t// out\n        /* \"native-athena.sol\":2472:3045  function approveSkillVerification(uint256 _applicationId) external onlyDAO {... */\n    tag_66:\n        /* \"native-athena.sol\":1234:1245  daoContract */\n      and(sub(shl(0xa0, 0x01), 0x01), sload(0x00))\n        /* \"native-athena.sol\":1220:1230  msg.sender */\n      caller\n        /* \"native-athena.sol\":1220:1245  msg.sender == daoContract */\n      eq\n        /* \"native-athena.sol\":1212:1281  require(msg.sender == daoContract, \"Only DAO can call this function\") */\n      tag_151\n      jumpi\n      mload(0x40)\n      shl(0xe5, 0x461bcd)\n      dup2\n      mstore\n      0x04\n      add\n      tag_86\n      swap1\n      tag_95\n      jump\t// in\n    tag_151:\n        /* \"native-athena.sol\":2582:2600  applicationCounter */\n      sload(0x05)\n        /* \"native-athena.sol\":2565:2579  _applicationId */\n      dup2\n        /* \"native-athena.sol\":2565:2600  _applicationId < applicationCounter */\n      lt\n        /* \"native-athena.sol\":2557:2627  require(_applicationId < applicationCounter, \"Invalid application ID\") */\n      tag_154\n      jumpi\n      mload(0x40)\n      shl(0xe5, 0x461bcd)\n      dup2\n      mstore\n        /* \"#utility.yul\":15981:15983   */\n      0x20\n        /* \"native-athena.sol\":2557:2627  require(_applicationId < applicationCounter, \"Invalid application ID\") */\n      0x04\n      dup3\n      add\n        /* \"#utility.yul\":15963:15984   */\n      mstore\n        /* \"#utility.yul\":16020:16022   */\n      0x16\n        /* \"#utility.yul\":16000:16018   */\n      0x24\n      dup3\n      add\n        /* \"#utility.yul\":15993:16023   */\n      mstore\n      shl(0x52, 0x125b9d985b1a5908185c1c1b1a58d85d1a5bdb881251)\n        /* \"#utility.yul\":16039:16057   */\n      0x44\n      dup3\n      add\n        /* \"#utility.yul\":16032:16084   */\n      mstore\n        /* \"#utility.yul\":16101:16119   */\n      0x64\n      add\n        /* \"native-athena.sol\":2557:2627  require(_applicationId < applicationCounter, \"Invalid application ID\") */\n      tag_86\n        /* \"#utility.yul\":15779:16125   */\n      jump\n        /* \"native-athena.sol\":2557:2627  require(_applicationId < applicationCounter, \"Invalid application ID\") */\n    tag_154:\n        /* \"native-athena.sol\":2646:2693  SkillVerificationApplication memory application */\n      0x00\n        /* \"native-athena.sol\":2696:2729  skillApplications[_applicationId] */\n      dup2\n      dup2\n      mstore\n        /* \"native-athena.sol\":2696:2713  skillApplications */\n      0x03\n        /* \"native-athena.sol\":2696:2729  skillApplications[_applicationId] */\n      0x20\n      swap1\n      dup2\n      mstore\n      0x40\n      dup1\n      dup4\n      keccak256\n        /* \"native-athena.sol\":2646:2729  SkillVerificationApplication memory application = skillApplications[_applicationId] */\n      dup2\n      mload\n      0x80\n      dup2\n      add\n      swap1\n      swap3\n      mstore\n      dup1\n      sload\n      sub(shl(0xa0, 0x01), 0x01)\n      and\n      dup3\n      mstore\n      0x01\n      dup2\n      add\n      dup1\n      sload\n      swap3\n      swap4\n        /* \"native-athena.sol\":2696:2729  skillApplications[_applicationId] */\n      swap2\n      swap3\n        /* \"native-athena.sol\":2646:2729  SkillVerificationApplication memory application = skillApplications[_applicationId] */\n      swap2\n      dup5\n      add\n      swap2\n      tag_157\n      swap1\n      tag_116\n      jump\t// in\n    tag_157:\n      dup1\n      0x1f\n      add\n      0x20\n      dup1\n      swap2\n      div\n      mul\n      0x20\n      add\n      mload(0x40)\n      swap1\n      dup2\n      add\n      0x40\n      mstore\n      dup1\n      swap3\n      swap2\n      swap1\n      dup2\n      dup2\n      mstore\n      0x20\n      add\n      dup3\n      dup1\n      sload\n      tag_158\n      swap1\n      tag_116\n      jump\t// in\n    tag_158:\n      dup1\n      iszero\n      tag_159\n      jumpi\n      dup1\n      0x1f\n      lt\n      tag_160\n      jumpi\n      0x0100\n      dup1\n      dup4\n      sload\n      div\n      mul\n      dup4\n      mstore\n      swap2\n      0x20\n      add\n      swap2\n      jump(tag_159)\n    tag_160:\n      dup3\n      add\n      swap2\n      swap1\n      0x00\n      mstore\n      keccak256(0x00, 0x20)\n      swap1\n    tag_161:\n      dup2\n      sload\n      dup2\n      mstore\n      swap1\n      0x01\n      add\n      swap1\n      0x20\n      add\n      dup1\n      dup4\n      gt\n      tag_161\n      jumpi\n      dup3\n      swap1\n      sub\n      0x1f\n      and\n      dup3\n      add\n      swap2\n    tag_159:\n      pop\n      pop\n      pop\n      pop\n      pop\n      dup2\n      mstore\n      0x20\n      add\n      0x02\n      dup3\n      add\n      sload\n      dup2\n      mstore\n      0x20\n      add\n      0x03\n      dup3\n      add\n      dup1\n      sload\n      tag_162\n      swap1\n      tag_116\n      jump\t// in\n    tag_162:\n      dup1\n      0x1f\n      add\n      0x20\n      dup1\n      swap2\n      div\n      mul\n      0x20\n      add\n      mload(0x40)\n      swap1\n      dup2\n      add\n      0x40\n      mstore\n      dup1\n      swap3\n      swap2\n      swap1\n      dup2\n      dup2\n      mstore\n      0x20\n      add\n      dup3\n      dup1\n      sload\n      tag_163\n      swap1\n      tag_116\n      jump\t// in\n    tag_163:\n      dup1\n      iszero\n      tag_164\n      jumpi\n      dup1\n      0x1f\n      lt\n      tag_165\n      jumpi\n      0x0100\n      dup1\n      dup4\n      sload\n      div\n      mul\n      dup4\n      mstore\n      swap2\n      0x20\n      add\n      swap2\n      jump(tag_164)\n    tag_165:\n      dup3\n      add\n      swap2\n      swap1\n      0x00\n      mstore\n      keccak256(0x00, 0x20)\n      swap1\n    tag_166:\n      dup2\n      sload\n      dup2\n      mstore\n      swap1\n      0x01\n      add\n      swap1\n      0x20\n      add\n      dup1\n      dup4\n      gt\n      tag_166\n      jumpi\n      dup3\n      swap1\n      sub\n      0x1f\n      and\n      dup3\n      add\n      swap2\n    tag_164:\n      pop\n      pop\n      pop\n      pop\n      pop\n      dup2\n      mstore\n      pop\n      pop\n      swap1\n      pop\n        /* \"native-athena.sol\":2806:2807  0 */\n      0x00\n        /* \"native-athena.sol\":2753:2760  oracles */\n      0x01\n        /* \"native-athena.sol\":2761:2772  application */\n      dup3\n        /* \"native-athena.sol\":2761:2789  application.targetOracleName */\n      0x60\n      add\n      mload\n        /* \"native-athena.sol\":2753:2790  oracles[application.targetOracleName] */\n      mload(0x40)\n      tag_167\n      swap2\n      swap1\n      tag_84\n      jump\t// in\n    tag_167:\n      swap1\n      dup2\n      mstore\n      mload(0x40)\n      swap1\n      dup2\n      swap1\n      sub\n      0x20\n      add\n      swap1\n      keccak256\n        /* \"native-athena.sol\":2747:2803  bytes(oracles[application.targetOracleName].name).length */\n      dup1\n      sload\n      tag_168\n      swap1\n      tag_116\n      jump\t// in\n    tag_168:\n      swap1\n      pop\n        /* \"native-athena.sol\":2747:2807  bytes(oracles[application.targetOracleName].name).length > 0 */\n      gt\n        /* \"native-athena.sol\":2739:2828  require(bytes(oracles[application.targetOracleName].name).length > 0, \"Oracle not found\") */\n      tag_169\n      jumpi\n      mload(0x40)\n      shl(0xe5, 0x461bcd)\n      dup2\n      mstore\n        /* \"#utility.yul\":16332:16334   */\n      0x20\n        /* \"native-athena.sol\":2739:2828  require(bytes(oracles[application.targetOracleName].name).length > 0, \"Oracle not found\") */\n      0x04\n      dup3\n      add\n        /* \"#utility.yul\":16314:16335   */\n      mstore\n        /* \"#utility.yul\":16371:16373   */\n      0x10\n        /* \"#utility.yul\":16351:16369   */\n      0x24\n      dup3\n      add\n        /* \"#utility.yul\":16344:16374   */\n      mstore\n      shl(0x82, 0x13dc9858db19481b9bdd08199bdd5b99)\n        /* \"#utility.yul\":16390:16408   */\n      0x44\n      dup3\n      add\n        /* \"#utility.yul\":16383:16429   */\n      mstore\n        /* \"#utility.yul\":16446:16464   */\n      0x64\n      add\n        /* \"native-athena.sol\":2739:2828  require(bytes(oracles[application.targetOracleName].name).length > 0, \"Oracle not found\") */\n      tag_86\n        /* \"#utility.yul\":16130:16470   */\n      jump\n        /* \"native-athena.sol\":2739:2828  require(bytes(oracles[application.targetOracleName].name).length > 0, \"Oracle not found\") */\n    tag_169:\n        /* \"native-athena.sol\":2847:2854  oracles */\n      0x01\n        /* \"native-athena.sol\":2855:2866  application */\n      dup2\n        /* \"native-athena.sol\":2855:2883  application.targetOracleName */\n      0x60\n      add\n      mload\n        /* \"native-athena.sol\":2847:2884  oracles[application.targetOracleName] */\n      mload(0x40)\n      tag_172\n      swap2\n      swap1\n      tag_84\n      jump\t// in\n    tag_172:\n      swap1\n      dup2\n      mstore\n      mload(0x40)\n      0x20\n      swap2\n      dup2\n      swap1\n      sub\n      dup3\n      add\n      dup2\n      keccak256\n        /* \"native-athena.sol\":2913:2934  application.applicant */\n      dup4\n      mload\n        /* \"native-athena.sol\":2847:2907  oracles[application.targetOracleName].skillVerifiedAddresses */\n      0x05\n      swap1\n      swap2\n      add\n        /* \"native-athena.sol\":2847:2935  oracles[application.targetOracleName].skillVerifiedAddresses.push(application.applicant) */\n      dup1\n      sload\n      0x01\n      dup2\n      add\n      dup3\n      sstore\n      0x00\n      swap2\n      dup3\n      mstore\n      swap4\n      swap1\n      keccak256\n      swap1\n      swap3\n      add\n      dup1\n      sload\n      not(sub(shl(0xa0, 0x01), 0x01))\n      and\n      sub(shl(0xa0, 0x01), 0x01)\n      swap1\n      swap4\n      and\n      swap3\n      swap1\n      swap3\n      or\n      swap1\n      swap2\n      sstore\n        /* \"native-athena.sol\":2968:2996  application.targetOracleName */\n      0x60\n      dup3\n      add\n      mload\n        /* \"native-athena.sol\":3023:3038  block.timestamp */\n      timestamp\n      swap2\n        /* \"native-athena.sol\":2945:2967  skillVerificationDates */\n      0x02\n      swap2\n        /* \"native-athena.sol\":2945:2997  skillVerificationDates[application.targetOracleName] */\n      tag_174\n      swap2\n      tag_84\n      jump\t// in\n    tag_174:\n      swap1\n      dup2\n      mstore\n      0x40\n      dup1\n      mload\n      0x20\n      swap3\n      dup2\n      swap1\n      sub\n      dup4\n      add\n      swap1\n      keccak256\n        /* \"native-athena.sol\":2998:3019  application.applicant */\n      swap4\n      mload\n      sub(shl(0xa0, 0x01), 0x01)\n        /* \"native-athena.sol\":2945:3020  skillVerificationDates[application.targetOracleName][application.applicant] */\n      and\n      0x00\n      swap1\n      dup2\n      mstore\n      swap4\n      swap1\n      swap2\n      mstore\n      swap1\n      swap2\n      keccak256\n        /* \"native-athena.sol\":2945:3038  skillVerificationDates[application.targetOracleName][application.applicant] = block.timestamp */\n      sstore\n      pop\n        /* \"native-athena.sol\":2472:3045  function approveSkillVerification(uint256 _applicationId) external onlyDAO {... */\n      jump\t// out\n        /* \"native-athena.sol\":4128:4633  function removeMemberFromOracle(string memory _oracleName, address _memberToRemove) external onlyDAO {... */\n    tag_74:\n        /* \"native-athena.sol\":1234:1245  daoContract */\n      and(sub(shl(0xa0, 0x01), 0x01), sload(0x00))\n        /* \"native-athena.sol\":1220:1230  msg.sender */\n      caller\n        /* \"native-athena.sol\":1220:1245  msg.sender == daoContract */\n      eq\n        /* \"native-athena.sol\":1212:1281  require(msg.sender == daoContract, \"Only DAO can call this function\") */\n      tag_176\n      jumpi\n      mload(0x40)\n      shl(0xe5, 0x461bcd)\n      dup2\n      mstore\n      0x04\n      add\n      tag_86\n      swap1\n      tag_95\n      jump\t// in\n    tag_176:\n        /* \"native-athena.sol\":4289:4290  0 */\n      0x00\n        /* \"native-athena.sol\":4253:4260  oracles */\n      0x01\n        /* \"native-athena.sol\":4261:4272  _oracleName */\n      dup4\n        /* \"native-athena.sol\":4253:4273  oracles[_oracleName] */\n      mload(0x40)\n      tag_179\n      swap2\n      swap1\n      tag_84\n      jump\t// in\n    tag_179:\n      swap1\n      dup2\n      mstore\n      mload(0x40)\n      swap1\n      dup2\n      swap1\n      sub\n      0x20\n      add\n      swap1\n      keccak256\n        /* \"native-athena.sol\":4247:4286  bytes(oracles[_oracleName].name).length */\n      dup1\n      sload\n      tag_180\n      swap1\n      tag_116\n      jump\t// in\n    tag_180:\n      swap1\n      pop\n        /* \"native-athena.sol\":4247:4290  bytes(oracles[_oracleName].name).length > 0 */\n      gt\n        /* \"native-athena.sol\":4239:4311  require(bytes(oracles[_oracleName].name).length > 0, \"Oracle not found\") */\n      tag_181\n      jumpi\n      mload(0x40)\n      shl(0xe5, 0x461bcd)\n      dup2\n      mstore\n        /* \"#utility.yul\":16332:16334   */\n      0x20\n        /* \"native-athena.sol\":4239:4311  require(bytes(oracles[_oracleName].name).length > 0, \"Oracle not found\") */\n      0x04\n      dup3\n      add\n        /* \"#utility.yul\":16314:16335   */\n      mstore\n        /* \"#utility.yul\":16371:16373   */\n      0x10\n        /* \"#utility.yul\":16351:16369   */\n      0x24\n      dup3\n      add\n        /* \"#utility.yul\":16344:16374   */\n      mstore\n      shl(0x82, 0x13dc9858db19481b9bdd08199bdd5b99)\n        /* \"#utility.yul\":16390:16408   */\n      0x44\n      dup3\n      add\n        /* \"#utility.yul\":16383:16429   */\n      mstore\n        /* \"#utility.yul\":16446:16464   */\n      0x64\n      add\n        /* \"native-athena.sol\":4239:4311  require(bytes(oracles[_oracleName].name).length > 0, \"Oracle not found\") */\n      tag_86\n        /* \"#utility.yul\":16130:16470   */\n      jump\n        /* \"native-athena.sol\":4239:4311  require(bytes(oracles[_oracleName].name).length > 0, \"Oracle not found\") */\n    tag_181:\n        /* \"native-athena.sol\":4330:4355  address[] storage members */\n      0x00\n        /* \"native-athena.sol\":4358:4365  oracles */\n      0x01\n        /* \"native-athena.sol\":4366:4377  _oracleName */\n      dup4\n        /* \"native-athena.sol\":4358:4378  oracles[_oracleName] */\n      mload(0x40)\n      tag_183\n      swap2\n      swap1\n      tag_84\n      jump\t// in\n    tag_183:\n      swap1\n      dup2\n      mstore\n      0x20\n      add\n      mload(0x40)\n      dup1\n      swap2\n      sub\n      swap1\n      keccak256\n        /* \"native-athena.sol\":4358:4386  oracles[_oracleName].members */\n      0x01\n      add\n        /* \"native-athena.sol\":4330:4386  address[] storage members = oracles[_oracleName].members */\n      swap1\n      pop\n        /* \"native-athena.sol\":4401:4410  uint256 i */\n      0x00\n        /* \"native-athena.sol\":4396:4627  for (uint256 i = 0; i < members.length; i++) {... */\n    tag_184:\n        /* \"native-athena.sol\":4420:4434  members.length */\n      dup2\n      sload\n        /* \"native-athena.sol\":4416:4434  i < members.length */\n      dup2\n      lt\n        /* \"native-athena.sol\":4396:4627  for (uint256 i = 0; i < members.length; i++) {... */\n      iszero\n      tag_185\n      jumpi\n        /* \"native-athena.sol\":4473:4488  _memberToRemove */\n      dup3\n      sub(shl(0xa0, 0x01), 0x01)\n        /* \"native-athena.sol\":4459:4488  members[i] == _memberToRemove */\n      and\n        /* \"native-athena.sol\":4459:4466  members */\n      dup3\n        /* \"native-athena.sol\":4467:4468  i */\n      dup3\n        /* \"native-athena.sol\":4459:4469  members[i] */\n      dup2\n      sload\n      dup2\n      lt\n      tag_188\n      jumpi\n      tag_188\n      tag_102\n      jump\t// in\n    tag_188:\n      0x00\n      swap2\n      dup3\n      mstore\n      0x20\n      swap1\n      swap2\n      keccak256\n      add\n      sload\n      sub(shl(0xa0, 0x01), 0x01)\n      and\n        /* \"native-athena.sol\":4459:4488  members[i] == _memberToRemove */\n      sub\n        /* \"native-athena.sol\":4455:4617  if (members[i] == _memberToRemove) {... */\n      tag_190\n      jumpi\n        /* \"native-athena.sol\":4529:4543  members.length */\n      dup2\n      sload\n        /* \"native-athena.sol\":4521:4528  members */\n      dup3\n      swap1\n        /* \"native-athena.sol\":4529:4547  members.length - 1 */\n      tag_191\n      swap1\n        /* \"native-athena.sol\":4546:4547  1 */\n      0x01\n      swap1\n        /* \"native-athena.sol\":4529:4547  members.length - 1 */\n      tag_192\n      jump\t// in\n    tag_191:\n        /* \"native-athena.sol\":4521:4548  members[members.length - 1] */\n      dup2\n      sload\n      dup2\n      lt\n      tag_194\n      jumpi\n      tag_194\n      tag_102\n      jump\t// in\n    tag_194:\n      swap1\n      0x00\n      mstore\n      keccak256(0x00, 0x20)\n      add\n      0x00\n      swap1\n      sload\n      swap1\n      0x0100\n      exp\n      swap1\n      div\n      sub(shl(0xa0, 0x01), 0x01)\n      and\n        /* \"native-athena.sol\":4508:4515  members */\n      dup3\n        /* \"native-athena.sol\":4516:4517  i */\n      dup3\n        /* \"native-athena.sol\":4508:4518  members[i] */\n      dup2\n      sload\n      dup2\n      lt\n      tag_197\n      jumpi\n      tag_197\n      tag_102\n      jump\t// in\n    tag_197:\n      swap1\n      0x00\n      mstore\n      keccak256(0x00, 0x20)\n      add\n      0x00\n        /* \"native-athena.sol\":4508:4548  members[i] = members[members.length - 1] */\n      0x0100\n      exp\n      dup2\n      sload\n      dup2\n      sub(shl(0xa0, 0x01), 0x01)\n      mul\n      not\n      and\n      swap1\n      dup4\n      sub(shl(0xa0, 0x01), 0x01)\n      and\n      mul\n      or\n      swap1\n      sstore\n      pop\n        /* \"native-athena.sol\":4566:4573  members */\n      dup2\n        /* \"native-athena.sol\":4566:4579  members.pop() */\n      dup1\n      sload\n      dup1\n      tag_200\n      jumpi\n      tag_200\n      tag_201\n      jump\t// in\n    tag_200:\n      0x00\n      dup3\n      dup2\n      mstore\n      0x20\n      swap1\n      keccak256\n      dup2\n      add\n      not(0x00)\n      swap1\n      dup2\n      add\n      dup1\n      sload\n      not(sub(shl(0xa0, 0x01), 0x01))\n      and\n      swap1\n      sstore\n      add\n      swap1\n      sstore\n        /* \"native-athena.sol\":4597:4602  break */\n      jump(tag_185)\n        /* \"native-athena.sol\":4455:4617  if (members[i] == _memberToRemove) {... */\n    tag_190:\n        /* \"native-athena.sol\":4436:4439  i++ */\n      0x01\n      add\n        /* \"native-athena.sol\":4396:4627  for (uint256 i = 0; i < members.length; i++) {... */\n      jump(tag_184)\n    tag_185:\n      pop\n        /* \"native-athena.sol\":4229:4633  {... */\n      pop\n        /* \"native-athena.sol\":4128:4633  function removeMemberFromOracle(string memory _oracleName, address _memberToRemove) external onlyDAO {... */\n      pop\n      pop\n      jump\t// out\n        /* \"native-athena.sol\":1396:2462  function addOrUpdateOracle(... */\n    tag_78:\n        /* \"native-athena.sol\":1234:1245  daoContract */\n      and(sub(shl(0xa0, 0x01), 0x01), sload(0x00))\n        /* \"native-athena.sol\":1220:1230  msg.sender */\n      caller\n        /* \"native-athena.sol\":1220:1245  msg.sender == daoContract */\n      eq\n        /* \"native-athena.sol\":1212:1281  require(msg.sender == daoContract, \"Only DAO can call this function\") */\n      tag_204\n      jumpi\n      mload(0x40)\n      shl(0xe5, 0x461bcd)\n      dup2\n      mstore\n      0x04\n      add\n      tag_86\n      swap1\n      tag_95\n      jump\t// in\n    tag_204:\n        /* \"native-athena.sol\":1726:1734  _members */\n      dup5\n        /* \"native-athena.sol\":1726:1741  _members.length */\n      mload\n        /* \"native-athena.sol\":1709:1715  _names */\n      dup7\n        /* \"native-athena.sol\":1709:1722  _names.length */\n      mload\n        /* \"native-athena.sol\":1709:1741  _names.length == _members.length */\n      eq\n        /* \"native-athena.sol\":1709:1804  _names.length == _members.length && ... */\n      dup1\n      iszero\n      tag_207\n      jumpi\n      pop\n        /* \"native-athena.sol\":1779:1797  _shortDescriptions */\n      dup4\n        /* \"native-athena.sol\":1779:1804  _shortDescriptions.length */\n      mload\n        /* \"native-athena.sol\":1762:1768  _names */\n      dup7\n        /* \"native-athena.sol\":1762:1775  _names.length */\n      mload\n        /* \"native-athena.sol\":1762:1804  _names.length == _shortDescriptions.length */\n      eq\n        /* \"native-athena.sol\":1709:1804  _names.length == _members.length && ... */\n    tag_207:\n        /* \"native-athena.sol\":1709:1862  _names.length == _members.length && ... */\n      dup1\n      iszero\n      tag_208\n      jumpi\n      pop\n        /* \"native-athena.sol\":1841:1855  _hashOfDetails */\n      dup3\n        /* \"native-athena.sol\":1841:1862  _hashOfDetails.length */\n      mload\n        /* \"native-athena.sol\":1824:1830  _names */\n      dup7\n        /* \"native-athena.sol\":1824:1837  _names.length */\n      mload\n        /* \"native-athena.sol\":1824:1862  _names.length == _hashOfDetails.length */\n      eq\n        /* \"native-athena.sol\":1709:1862  _names.length == _members.length && ... */\n    tag_208:\n        /* \"native-athena.sol\":1709:1919  _names.length == _members.length && ... */\n      dup1\n      iszero\n      tag_209\n      jumpi\n      pop\n        /* \"native-athena.sol\":1899:1912  _stakeAmounts */\n      dup2\n        /* \"native-athena.sol\":1899:1919  _stakeAmounts.length */\n      mload\n        /* \"native-athena.sol\":1882:1888  _names */\n      dup7\n        /* \"native-athena.sol\":1882:1895  _names.length */\n      mload\n        /* \"native-athena.sol\":1882:1919  _names.length == _stakeAmounts.length */\n      eq\n        /* \"native-athena.sol\":1709:1919  _names.length == _members.length && ... */\n    tag_209:\n        /* \"native-athena.sol\":1709:1986  _names.length == _members.length && ... */\n      dup1\n      iszero\n      tag_210\n      jumpi\n      pop\n        /* \"native-athena.sol\":1956:1979  _skillVerifiedAddresses */\n      dup1\n        /* \"native-athena.sol\":1956:1986  _skillVerifiedAddresses.length */\n      mload\n        /* \"native-athena.sol\":1939:1945  _names */\n      dup7\n        /* \"native-athena.sol\":1939:1952  _names.length */\n      mload\n        /* \"native-athena.sol\":1939:1986  _names.length == _skillVerifiedAddresses.length */\n      eq\n        /* \"native-athena.sol\":1709:1986  _names.length == _members.length && ... */\n    tag_210:\n        /* \"native-athena.sol\":1701:2032  require(_names.length == _members.length && ... */\n      tag_211\n      jumpi\n      mload(0x40)\n      shl(0xe5, 0x461bcd)\n      dup2\n      mstore\n        /* \"#utility.yul\":16942:16944   */\n      0x20\n        /* \"native-athena.sol\":1701:2032  require(_names.length == _members.length && ... */\n      0x04\n      dup3\n      add\n        /* \"#utility.yul\":16924:16945   */\n      mstore\n        /* \"#utility.yul\":16981:16983   */\n      0x18\n        /* \"#utility.yul\":16961:16979   */\n      0x24\n      dup3\n      add\n        /* \"#utility.yul\":16954:16984   */\n      mstore\n        /* \"#utility.yul\":17020:17046   */\n      0x4172726179206c656e67746873206d757374206d617463680000000000000000\n        /* \"#utility.yul\":17000:17018   */\n      0x44\n      dup3\n      add\n        /* \"#utility.yul\":16993:17047   */\n      mstore\n        /* \"#utility.yul\":17064:17082   */\n      0x64\n      add\n        /* \"native-athena.sol\":1701:2032  require(_names.length == _members.length && ... */\n      tag_86\n        /* \"#utility.yul\":16740:17088   */\n      jump\n        /* \"native-athena.sol\":1701:2032  require(_names.length == _members.length && ... */\n    tag_211:\n        /* \"native-athena.sol\":2056:2065  uint256 i */\n      0x00\n        /* \"native-athena.sol\":2051:2456  for (uint256 i = 0; i < _names.length; i++) {... */\n    tag_214:\n        /* \"native-athena.sol\":2075:2081  _names */\n      dup7\n        /* \"native-athena.sol\":2075:2088  _names.length */\n      mload\n        /* \"native-athena.sol\":2071:2072  i */\n      dup2\n        /* \"native-athena.sol\":2071:2088  i < _names.length */\n      lt\n        /* \"native-athena.sol\":2051:2456  for (uint256 i = 0; i < _names.length; i++) {... */\n      iszero\n      tag_215\n      jumpi\n        /* \"native-athena.sol\":2130:2445  Oracle({... */\n      mload(0x40)\n      dup1\n      0xc0\n      add\n      0x40\n      mstore\n      dup1\n        /* \"native-athena.sol\":2161:2167  _names */\n      dup9\n        /* \"native-athena.sol\":2168:2169  i */\n      dup4\n        /* \"native-athena.sol\":2161:2170  _names[i] */\n      dup2\n      mload\n      dup2\n      lt\n      tag_218\n      jumpi\n      tag_218\n      tag_102\n      jump\t// in\n    tag_218:\n      0x20\n      mul\n      0x20\n      add\n      add\n      mload\n        /* \"native-athena.sol\":2130:2445  Oracle({... */\n      dup2\n      mstore\n      0x20\n      add\n        /* \"native-athena.sol\":2197:2205  _members */\n      dup8\n        /* \"native-athena.sol\":2206:2207  i */\n      dup4\n        /* \"native-athena.sol\":2197:2208  _members[i] */\n      dup2\n      mload\n      dup2\n      lt\n      tag_220\n      jumpi\n      tag_220\n      tag_102\n      jump\t// in\n    tag_220:\n      0x20\n      mul\n      0x20\n      add\n      add\n      mload\n        /* \"native-athena.sol\":2130:2445  Oracle({... */\n      dup2\n      mstore\n      0x20\n      add\n        /* \"native-athena.sol\":2244:2262  _shortDescriptions */\n      dup7\n        /* \"native-athena.sol\":2263:2264  i */\n      dup4\n        /* \"native-athena.sol\":2244:2265  _shortDescriptions[i] */\n      dup2\n      mload\n      dup2\n      lt\n      tag_222\n      jumpi\n      tag_222\n      tag_102\n      jump\t// in\n    tag_222:\n      0x20\n      mul\n      0x20\n      add\n      add\n      mload\n        /* \"native-athena.sol\":2130:2445  Oracle({... */\n      dup2\n      mstore\n      0x20\n      add\n        /* \"native-athena.sol\":2298:2312  _hashOfDetails */\n      dup6\n        /* \"native-athena.sol\":2313:2314  i */\n      dup4\n        /* \"native-athena.sol\":2298:2315  _hashOfDetails[i] */\n      dup2\n      mload\n      dup2\n      lt\n      tag_224\n      jumpi\n      tag_224\n      tag_102\n      jump\t// in\n    tag_224:\n      0x20\n      mul\n      0x20\n      add\n      add\n      mload\n        /* \"native-athena.sol\":2130:2445  Oracle({... */\n      dup2\n      mstore\n      0x20\n      add\n        /* \"native-athena.sol\":2346:2359  _stakeAmounts */\n      dup5\n        /* \"native-athena.sol\":2360:2361  i */\n      dup4\n        /* \"native-athena.sol\":2346:2362  _stakeAmounts[i] */\n      dup2\n      mload\n      dup2\n      lt\n      tag_226\n      jumpi\n      tag_226\n      tag_102\n      jump\t// in\n    tag_226:\n      0x20\n      mul\n      0x20\n      add\n      add\n      mload\n        /* \"native-athena.sol\":2130:2445  Oracle({... */\n      dup2\n      mstore\n      0x20\n      add\n        /* \"native-athena.sol\":2404:2427  _skillVerifiedAddresses */\n      dup4\n        /* \"native-athena.sol\":2428:2429  i */\n      dup4\n        /* \"native-athena.sol\":2404:2430  _skillVerifiedAddresses[i] */\n      dup2\n      mload\n      dup2\n      lt\n      tag_228\n      jumpi\n      tag_228\n      tag_102\n      jump\t// in\n    tag_228:\n      0x20\n      mul\n      0x20\n      add\n      add\n      mload\n        /* \"native-athena.sol\":2130:2445  Oracle({... */\n      dup2\n      mstore\n      pop\n        /* \"native-athena.sol\":2109:2116  oracles */\n      0x01\n        /* \"native-athena.sol\":2117:2123  _names */\n      dup9\n        /* \"native-athena.sol\":2124:2125  i */\n      dup4\n        /* \"native-athena.sol\":2117:2126  _names[i] */\n      dup2\n      mload\n      dup2\n      lt\n      tag_230\n      jumpi\n      tag_230\n      tag_102\n      jump\t// in\n    tag_230:\n      0x20\n      mul\n      0x20\n      add\n      add\n      mload\n        /* \"native-athena.sol\":2109:2127  oracles[_names[i]] */\n      mload(0x40)\n      tag_231\n      swap2\n      swap1\n      tag_84\n      jump\t// in\n    tag_231:\n      swap1\n      dup2\n      mstore\n      mload(0x40)\n      swap1\n      dup2\n      swap1\n      sub\n      0x20\n      add\n      swap1\n      keccak256\n        /* \"native-athena.sol\":2109:2445  oracles[_names[i]] = Oracle({... */\n      dup2\n      mload\n        /* \"native-athena.sol\":2109:2127  oracles[_names[i]] */\n      dup2\n      swap1\n        /* \"native-athena.sol\":2109:2445  oracles[_names[i]] = Oracle({... */\n      tag_232\n      swap1\n        /* \"native-athena.sol\":2109:2127  oracles[_names[i]] */\n      dup3\n        /* \"native-athena.sol\":2109:2445  oracles[_names[i]] = Oracle({... */\n      tag_89\n      jump\t// in\n    tag_232:\n      pop\n      0x20\n      dup3\n      dup2\n      add\n      mload\n      dup1\n      mload\n      tag_233\n      swap3\n      0x01\n      dup6\n      add\n      swap3\n      add\n      swap1\n      tag_234\n      jump\t// in\n    tag_233:\n      pop\n      0x40\n      dup3\n      add\n      mload\n      0x02\n      dup3\n      add\n      swap1\n      tag_235\n      swap1\n      dup3\n      tag_89\n      jump\t// in\n    tag_235:\n      pop\n      0x60\n      dup3\n      add\n      mload\n      0x03\n      dup3\n      add\n      swap1\n      tag_236\n      swap1\n      dup3\n      tag_89\n      jump\t// in\n    tag_236:\n      pop\n      0x80\n      dup3\n      add\n      mload\n      0x04\n      dup3\n      add\n      sstore\n      0xa0\n      dup3\n      add\n      mload\n      dup1\n      mload\n      tag_237\n      swap2\n      0x05\n      dup5\n      add\n      swap2\n      0x20\n      swap1\n      swap2\n      add\n      swap1\n      tag_234\n      jump\t// in\n    tag_237:\n      pop\n      pop\n      pop\n        /* \"native-athena.sol\":2090:2093  i++ */\n      0x01\n      add\n        /* \"native-athena.sol\":2051:2456  for (uint256 i = 0; i < _names.length; i++) {... */\n      jump(tag_214)\n    tag_215:\n      pop\n        /* \"native-athena.sol\":1396:2462  function addOrUpdateOracle(... */\n      pop\n      pop\n      pop\n      pop\n      pop\n      pop\n      jump\t// out\n    tag_105:\n      pop\n      dup1\n      sload\n      tag_238\n      swap1\n      tag_116\n      jump\t// in\n    tag_238:\n      0x00\n      dup3\n      sstore\n      dup1\n      0x1f\n      lt\n      tag_240\n      jumpi\n      pop\n      pop\n      jump\t// out\n    tag_240:\n      0x1f\n      add\n      0x20\n      swap1\n      div\n      swap1\n      0x00\n      mstore\n      keccak256(0x00, 0x20)\n      swap1\n      dup2\n      add\n      swap1\n      tag_241\n      swap2\n      swap1\n      tag_242\n      jump\t// in\n    tag_241:\n      pop\n      jump\t// out\n    tag_107:\n      pop\n      dup1\n      sload\n      0x00\n      dup3\n      sstore\n      swap1\n      0x00\n      mstore\n      keccak256(0x00, 0x20)\n      swap1\n      dup2\n      add\n      swap1\n      tag_241\n      swap2\n      swap1\n      tag_242\n      jump\t// in\n    tag_234:\n      dup3\n      dup1\n      sload\n      dup3\n      dup3\n      sstore\n      swap1\n      0x00\n      mstore\n      keccak256(0x00, 0x20)\n      swap1\n      dup2\n      add\n      swap3\n      dup3\n      iszero\n      tag_247\n      jumpi\n      swap2\n      0x20\n      mul\n      dup3\n      add\n    tag_246:\n      dup3\n      dup2\n      gt\n      iszero\n      tag_247\n      jumpi\n      dup3\n      mload\n      dup3\n      sload\n      not(sub(shl(0xa0, 0x01), 0x01))\n      and\n      sub(shl(0xa0, 0x01), 0x01)\n      swap1\n      swap2\n      and\n      or\n      dup3\n      sstore\n      0x20\n      swap1\n      swap3\n      add\n      swap2\n      0x01\n      swap1\n      swap2\n      add\n      swap1\n      jump(tag_246)\n    tag_247:\n      pop\n      tag_248\n      swap3\n      swap2\n      pop\n      tag_242\n      jump\t// in\n    tag_248:\n      pop\n      swap1\n      jump\t// out\n    tag_242:\n    tag_249:\n      dup1\n      dup3\n      gt\n      iszero\n      tag_248\n      jumpi\n      0x00\n      dup2\n      sstore\n      0x01\n      add\n      jump(tag_249)\n        /* \"#utility.yul\":196:323   */\n    tag_251:\n        /* \"#utility.yul\":257:267   */\n      0x4e487b71\n        /* \"#utility.yul\":252:255   */\n      0xe0\n        /* \"#utility.yul\":248:268   */\n      shl\n        /* \"#utility.yul\":245:246   */\n      0x00\n        /* \"#utility.yul\":238:269   */\n      mstore\n        /* \"#utility.yul\":288:292   */\n      0x41\n        /* \"#utility.yul\":285:286   */\n      0x04\n        /* \"#utility.yul\":278:293   */\n      mstore\n        /* \"#utility.yul\":312:316   */\n      0x24\n        /* \"#utility.yul\":309:310   */\n      0x00\n        /* \"#utility.yul\":302:317   */\n      revert\n        /* \"#utility.yul\":328:603   */\n    tag_252:\n        /* \"#utility.yul\":399:401   */\n      0x40\n        /* \"#utility.yul\":393:402   */\n      mload\n        /* \"#utility.yul\":464:466   */\n      0x1f\n        /* \"#utility.yul\":445:458   */\n      dup3\n      add\n      not(0x1f)\n        /* \"#utility.yul\":441:468   */\n      and\n        /* \"#utility.yul\":429:469   */\n      dup2\n      add\n      sub(shl(0x40, 0x01), 0x01)\n        /* \"#utility.yul\":484:518   */\n      dup2\n      gt\n        /* \"#utility.yul\":520:542   */\n      dup3\n      dup3\n      lt\n        /* \"#utility.yul\":481:543   */\n      or\n        /* \"#utility.yul\":478:566   */\n      iszero\n      tag_270\n      jumpi\n        /* \"#utility.yul\":546:564   */\n      tag_270\n      tag_251\n      jump\t// in\n    tag_270:\n        /* \"#utility.yul\":582:584   */\n      0x40\n        /* \"#utility.yul\":575:597   */\n      mstore\n        /* \"#utility.yul\":328:603   */\n      swap2\n      swap1\n      pop\n      jump\t// out\n        /* \"#utility.yul\":608:1167   */\n    tag_253:\n        /* \"#utility.yul\":651:656   */\n      0x00\n        /* \"#utility.yul\":704:707   */\n      dup3\n        /* \"#utility.yul\":697:701   */\n      0x1f\n        /* \"#utility.yul\":689:695   */\n      dup4\n        /* \"#utility.yul\":685:702   */\n      add\n        /* \"#utility.yul\":681:708   */\n      slt\n        /* \"#utility.yul\":671:726   */\n      tag_272\n      jumpi\n        /* \"#utility.yul\":722:723   */\n      0x00\n        /* \"#utility.yul\":719:720   */\n      dup1\n        /* \"#utility.yul\":712:724   */\n      revert\n        /* \"#utility.yul\":671:726   */\n    tag_272:\n        /* \"#utility.yul\":762:768   */\n      dup2\n        /* \"#utility.yul\":749:769   */\n      calldataload\n      sub(shl(0x40, 0x01), 0x01)\n        /* \"#utility.yul\":784:790   */\n      dup2\n        /* \"#utility.yul\":781:811   */\n      gt\n        /* \"#utility.yul\":778:834   */\n      iszero\n      tag_274\n      jumpi\n        /* \"#utility.yul\":814:832   */\n      tag_274\n      tag_251\n      jump\t// in\n    tag_274:\n        /* \"#utility.yul\":858:917   */\n      tag_275\n        /* \"#utility.yul\":905:907   */\n      0x1f\n        /* \"#utility.yul\":882:899   */\n      dup3\n      add\n      not(0x1f)\n        /* \"#utility.yul\":878:909   */\n      and\n        /* \"#utility.yul\":911:915   */\n      0x20\n        /* \"#utility.yul\":874:916   */\n      add\n        /* \"#utility.yul\":858:917   */\n      tag_252\n      jump\t// in\n    tag_275:\n        /* \"#utility.yul\":942:948   */\n      dup2\n        /* \"#utility.yul\":933:940   */\n      dup2\n        /* \"#utility.yul\":926:949   */\n      mstore\n        /* \"#utility.yul\":996:999   */\n      dup5\n        /* \"#utility.yul\":989:993   */\n      0x20\n        /* \"#utility.yul\":980:986   */\n      dup4\n        /* \"#utility.yul\":972:978   */\n      dup7\n        /* \"#utility.yul\":968:987   */\n      add\n        /* \"#utility.yul\":964:994   */\n      add\n        /* \"#utility.yul\":961:1000   */\n      gt\n        /* \"#utility.yul\":958:1017   */\n      iszero\n      tag_276\n      jumpi\n        /* \"#utility.yul\":1013:1014   */\n      0x00\n        /* \"#utility.yul\":1010:1011   */\n      dup1\n        /* \"#utility.yul\":1003:1015   */\n      revert\n        /* \"#utility.yul\":958:1017   */\n    tag_276:\n        /* \"#utility.yul\":1078:1084   */\n      dup2\n        /* \"#utility.yul\":1071:1075   */\n      0x20\n        /* \"#utility.yul\":1063:1069   */\n      dup6\n        /* \"#utility.yul\":1059:1076   */\n      add\n        /* \"#utility.yul\":1052:1056   */\n      0x20\n        /* \"#utility.yul\":1043:1050   */\n      dup4\n        /* \"#utility.yul\":1039:1057   */\n      add\n        /* \"#utility.yul\":1026:1085   */\n      calldatacopy\n        /* \"#utility.yul\":1134:1135   */\n      0x00\n        /* \"#utility.yul\":1105:1125   */\n      swap2\n      dup2\n      add\n        /* \"#utility.yul\":1127:1131   */\n      0x20\n        /* \"#utility.yul\":1101:1132   */\n      add\n        /* \"#utility.yul\":1094:1136   */\n      swap2\n      swap1\n      swap2\n      mstore\n        /* \"#utility.yul\":1109:1116   */\n      swap4\n        /* \"#utility.yul\":608:1167   */\n      swap3\n      pop\n      pop\n      pop\n      jump\t// out\n        /* \"#utility.yul\":1172:1945   */\n    tag_27:\n        /* \"#utility.yul\":1278:1284   */\n      0x00\n        /* \"#utility.yul\":1286:1292   */\n      dup1\n        /* \"#utility.yul\":1294:1300   */\n      0x00\n        /* \"#utility.yul\":1302:1308   */\n      dup1\n        /* \"#utility.yul\":1355:1358   */\n      0x80\n        /* \"#utility.yul\":1343:1352   */\n      dup6\n        /* \"#utility.yul\":1334:1341   */\n      dup8\n        /* \"#utility.yul\":1330:1353   */\n      sub\n        /* \"#utility.yul\":1326:1359   */\n      slt\n        /* \"#utility.yul\":1323:1376   */\n      iszero\n      tag_278\n      jumpi\n        /* \"#utility.yul\":1372:1373   */\n      0x00\n        /* \"#utility.yul\":1369:1370   */\n      dup1\n        /* \"#utility.yul\":1362:1374   */\n      revert\n        /* \"#utility.yul\":1323:1376   */\n    tag_278:\n        /* \"#utility.yul\":1417:1440   */\n      dup5\n      calldataload\n      swap4\n      pop\n        /* \"#utility.yul\":1515:1517   */\n      0x20\n        /* \"#utility.yul\":1500:1518   */\n      dup6\n      add\n        /* \"#utility.yul\":1487:1519   */\n      calldataload\n      sub(shl(0x40, 0x01), 0x01)\n        /* \"#utility.yul\":1531:1561   */\n      dup2\n      gt\n        /* \"#utility.yul\":1528:1578   */\n      iszero\n      tag_279\n      jumpi\n        /* \"#utility.yul\":1574:1575   */\n      0x00\n        /* \"#utility.yul\":1571:1572   */\n      dup1\n        /* \"#utility.yul\":1564:1576   */\n      revert\n        /* \"#utility.yul\":1528:1578   */\n    tag_279:\n        /* \"#utility.yul\":1597:1647   */\n      tag_280\n        /* \"#utility.yul\":1639:1646   */\n      dup8\n        /* \"#utility.yul\":1630:1636   */\n      dup3\n        /* \"#utility.yul\":1619:1628   */\n      dup9\n        /* \"#utility.yul\":1615:1637   */\n      add\n        /* \"#utility.yul\":1597:1647   */\n      tag_253\n      jump\t// in\n    tag_280:\n        /* \"#utility.yul\":1587:1647   */\n      swap4\n      pop\n      pop\n        /* \"#utility.yul\":1700:1702   */\n      0x40\n        /* \"#utility.yul\":1689:1698   */\n      dup6\n        /* \"#utility.yul\":1685:1703   */\n      add\n        /* \"#utility.yul\":1672:1704   */\n      calldataload\n      sub(shl(0x40, 0x01), 0x01)\n        /* \"#utility.yul\":1719:1727   */\n      dup2\n        /* \"#utility.yul\":1716:1748   */\n      gt\n        /* \"#utility.yul\":1713:1765   */\n      iszero\n      tag_281\n      jumpi\n        /* \"#utility.yul\":1761:1762   */\n      0x00\n        /* \"#utility.yul\":1758:1759   */\n      dup1\n        /* \"#utility.yul\":1751:1763   */\n      revert\n        /* \"#utility.yul\":1713:1765   */\n    tag_281:\n        /* \"#utility.yul\":1784:1836   */\n      tag_282\n        /* \"#utility.yul\":1828:1835   */\n      dup8\n        /* \"#utility.yul\":1817:1825   */\n      dup3\n        /* \"#utility.yul\":1806:1815   */\n      dup9\n        /* \"#utility.yul\":1802:1826   */\n      add\n        /* \"#utility.yul\":1784:1836   */\n      tag_253\n      jump\t// in\n    tag_282:\n        /* \"#utility.yul\":1172:1945   */\n      swap5\n      swap8\n      swap4\n      swap7\n      pop\n        /* \"#utility.yul\":1774:1836   */\n      swap4\n      swap5\n        /* \"#utility.yul\":1909:1911   */\n      0x60\n        /* \"#utility.yul\":1894:1912   */\n      add\n        /* \"#utility.yul\":1881:1913   */\n      calldataload\n      swap4\n      pop\n      pop\n      pop\n        /* \"#utility.yul\":1172:1945   */\n      jump\t// out\n        /* \"#utility.yul\":1950:2132   */\n    tag_254:\n        /* \"#utility.yul\":2009:2013   */\n      0x00\n      sub(shl(0x40, 0x01), 0x01)\n        /* \"#utility.yul\":2034:2040   */\n      dup3\n        /* \"#utility.yul\":2031:2061   */\n      gt\n        /* \"#utility.yul\":2028:2084   */\n      iszero\n      tag_285\n      jumpi\n        /* \"#utility.yul\":2064:2082   */\n      tag_285\n      tag_251\n      jump\t// in\n    tag_285:\n      pop\n        /* \"#utility.yul\":2109:2110   */\n      0x05\n        /* \"#utility.yul\":2105:2119   */\n      shl\n        /* \"#utility.yul\":2121:2125   */\n      0x20\n        /* \"#utility.yul\":2101:2126   */\n      add\n      swap1\n        /* \"#utility.yul\":1950:2132   */\n      jump\t// out\n        /* \"#utility.yul\":2137:2963   */\n    tag_255:\n        /* \"#utility.yul\":2190:2195   */\n      0x00\n        /* \"#utility.yul\":2243:2246   */\n      dup3\n        /* \"#utility.yul\":2236:2240   */\n      0x1f\n        /* \"#utility.yul\":2228:2234   */\n      dup4\n        /* \"#utility.yul\":2224:2241   */\n      add\n        /* \"#utility.yul\":2220:2247   */\n      slt\n        /* \"#utility.yul\":2210:2265   */\n      tag_287\n      jumpi\n        /* \"#utility.yul\":2261:2262   */\n      0x00\n        /* \"#utility.yul\":2258:2259   */\n      dup1\n        /* \"#utility.yul\":2251:2263   */\n      revert\n        /* \"#utility.yul\":2210:2265   */\n    tag_287:\n        /* \"#utility.yul\":2301:2307   */\n      dup2\n        /* \"#utility.yul\":2288:2308   */\n      calldataload\n        /* \"#utility.yul\":2328:2391   */\n      tag_288\n        /* \"#utility.yul\":2344:2390   */\n      tag_289\n        /* \"#utility.yul\":2383:2389   */\n      dup3\n        /* \"#utility.yul\":2344:2390   */\n      tag_254\n      jump\t// in\n    tag_289:\n        /* \"#utility.yul\":2328:2391   */\n      tag_252\n      jump\t// in\n    tag_288:\n        /* \"#utility.yul\":2415:2418   */\n      dup1\n        /* \"#utility.yul\":2439:2445   */\n      dup3\n        /* \"#utility.yul\":2434:2437   */\n      dup3\n        /* \"#utility.yul\":2427:2446   */\n      mstore\n        /* \"#utility.yul\":2471:2475   */\n      0x20\n        /* \"#utility.yul\":2466:2469   */\n      dup3\n        /* \"#utility.yul\":2462:2476   */\n      add\n        /* \"#utility.yul\":2455:2476   */\n      swap2\n      pop\n        /* \"#utility.yul\":2532:2536   */\n      0x20\n        /* \"#utility.yul\":2522:2528   */\n      dup4\n        /* \"#utility.yul\":2519:2520   */\n      0x05\n        /* \"#utility.yul\":2515:2529   */\n      shl\n        /* \"#utility.yul\":2507:2513   */\n      dup7\n        /* \"#utility.yul\":2503:2530   */\n      add\n        /* \"#utility.yul\":2499:2537   */\n      add\n        /* \"#utility.yul\":2485:2537   */\n      swap3\n      pop\n        /* \"#utility.yul\":2560:2563   */\n      dup6\n        /* \"#utility.yul\":2552:2558   */\n      dup4\n        /* \"#utility.yul\":2549:2564   */\n      gt\n        /* \"#utility.yul\":2546:2581   */\n      iszero\n      tag_290\n      jumpi\n        /* \"#utility.yul\":2577:2578   */\n      0x00\n        /* \"#utility.yul\":2574:2575   */\n      dup1\n        /* \"#utility.yul\":2567:2579   */\n      revert\n        /* \"#utility.yul\":2546:2581   */\n    tag_290:\n        /* \"#utility.yul\":2613:2617   */\n      0x20\n        /* \"#utility.yul\":2605:2611   */\n      dup6\n        /* \"#utility.yul\":2601:2618   */\n      add\n        /* \"#utility.yul\":2627:2932   */\n    tag_291:\n        /* \"#utility.yul\":2643:2649   */\n      dup4\n        /* \"#utility.yul\":2638:2641   */\n      dup2\n        /* \"#utility.yul\":2635:2650   */\n      lt\n        /* \"#utility.yul\":2627:2932   */\n      iszero\n      tag_293\n      jumpi\n        /* \"#utility.yul\":2731:2734   */\n      dup1\n        /* \"#utility.yul\":2718:2735   */\n      calldataload\n      sub(shl(0x40, 0x01), 0x01)\n        /* \"#utility.yul\":2754:2765   */\n      dup2\n        /* \"#utility.yul\":2751:2786   */\n      gt\n        /* \"#utility.yul\":2748:2803   */\n      iszero\n      tag_294\n      jumpi\n        /* \"#utility.yul\":2799:2800   */\n      0x00\n        /* \"#utility.yul\":2796:2797   */\n      dup1\n        /* \"#utility.yul\":2789:2801   */\n      revert\n        /* \"#utility.yul\":2748:2803   */\n    tag_294:\n        /* \"#utility.yul\":2828:2887   */\n      tag_295\n        /* \"#utility.yul\":2883:2886   */\n      dup9\n        /* \"#utility.yul\":2876:2880   */\n      0x20\n        /* \"#utility.yul\":2862:2873   */\n      dup4\n        /* \"#utility.yul\":2854:2860   */\n      dup11\n        /* \"#utility.yul\":2850:2874   */\n      add\n        /* \"#utility.yul\":2846:2881   */\n      add\n        /* \"#utility.yul\":2828:2887   */\n      tag_253\n      jump\t// in\n    tag_295:\n        /* \"#utility.yul\":2816:2888   */\n      dup5\n      mstore\n      pop\n        /* \"#utility.yul\":2917:2921   */\n      0x20\n        /* \"#utility.yul\":2908:2922   */\n      swap3\n      dup4\n      add\n      swap3\n        /* \"#utility.yul\":2660:2674   */\n      add\n        /* \"#utility.yul\":2627:2932   */\n      jump(tag_291)\n    tag_293:\n      pop\n        /* \"#utility.yul\":2950:2957   */\n      swap6\n        /* \"#utility.yul\":2137:2963   */\n      swap5\n      pop\n      pop\n      pop\n      pop\n      pop\n      jump\t// out\n        /* \"#utility.yul\":2968:3325   */\n    tag_31:\n        /* \"#utility.yul\":3062:3068   */\n      0x00\n        /* \"#utility.yul\":3115:3117   */\n      0x20\n        /* \"#utility.yul\":3103:3112   */\n      dup3\n        /* \"#utility.yul\":3094:3101   */\n      dup5\n        /* \"#utility.yul\":3090:3113   */\n      sub\n        /* \"#utility.yul\":3086:3118   */\n      slt\n        /* \"#utility.yul\":3083:3135   */\n      iszero\n      tag_297\n      jumpi\n        /* \"#utility.yul\":3131:3132   */\n      0x00\n        /* \"#utility.yul\":3128:3129   */\n      dup1\n        /* \"#utility.yul\":3121:3133   */\n      revert\n        /* \"#utility.yul\":3083:3135   */\n    tag_297:\n        /* \"#utility.yul\":3171:3180   */\n      dup2\n        /* \"#utility.yul\":3158:3181   */\n      calldataload\n      sub(shl(0x40, 0x01), 0x01)\n        /* \"#utility.yul\":3196:3202   */\n      dup2\n        /* \"#utility.yul\":3193:3223   */\n      gt\n        /* \"#utility.yul\":3190:3240   */\n      iszero\n      tag_298\n      jumpi\n        /* \"#utility.yul\":3236:3237   */\n      0x00\n        /* \"#utility.yul\":3233:3234   */\n      dup1\n        /* \"#utility.yul\":3226:3238   */\n      revert\n        /* \"#utility.yul\":3190:3240   */\n    tag_298:\n        /* \"#utility.yul\":3259:3319   */\n      tag_299\n        /* \"#utility.yul\":3311:3318   */\n      dup5\n        /* \"#utility.yul\":3302:3308   */\n      dup3\n        /* \"#utility.yul\":3291:3300   */\n      dup6\n        /* \"#utility.yul\":3287:3309   */\n      add\n        /* \"#utility.yul\":3259:3319   */\n      tag_255\n      jump\t// in\n    tag_299:\n        /* \"#utility.yul\":3249:3319   */\n      swap5\n        /* \"#utility.yul\":2968:3325   */\n      swap4\n      pop\n      pop\n      pop\n      pop\n      jump\t// out\n        /* \"#utility.yul\":3538:3764   */\n    tag_39:\n        /* \"#utility.yul\":3597:3603   */\n      0x00\n        /* \"#utility.yul\":3650:3652   */\n      0x20\n        /* \"#utility.yul\":3638:3647   */\n      dup3\n        /* \"#utility.yul\":3629:3636   */\n      dup5\n        /* \"#utility.yul\":3625:3648   */\n      sub\n        /* \"#utility.yul\":3621:3653   */\n      slt\n        /* \"#utility.yul\":3618:3670   */\n      iszero\n      tag_302\n      jumpi\n        /* \"#utility.yul\":3666:3667   */\n      0x00\n        /* \"#utility.yul\":3663:3664   */\n      dup1\n        /* \"#utility.yul\":3656:3668   */\n      revert\n        /* \"#utility.yul\":3618:3670   */\n    tag_302:\n      pop\n        /* \"#utility.yul\":3711:3734   */\n      calldataload\n      swap2\n        /* \"#utility.yul\":3538:3764   */\n      swap1\n      pop\n      jump\t// out\n        /* \"#utility.yul\":3769:4019   */\n    tag_256:\n        /* \"#utility.yul\":3854:3855   */\n      0x00\n        /* \"#utility.yul\":3864:3977   */\n    tag_304:\n        /* \"#utility.yul\":3878:3884   */\n      dup4\n        /* \"#utility.yul\":3875:3876   */\n      dup2\n        /* \"#utility.yul\":3872:3885   */\n      lt\n        /* \"#utility.yul\":3864:3977   */\n      iszero\n      tag_306\n      jumpi\n        /* \"#utility.yul\":3954:3965   */\n      dup2\n      dup2\n      add\n        /* \"#utility.yul\":3948:3966   */\n      mload\n        /* \"#utility.yul\":3935:3946   */\n      dup4\n      dup3\n      add\n        /* \"#utility.yul\":3928:3967   */\n      mstore\n        /* \"#utility.yul\":3900:3902   */\n      0x20\n        /* \"#utility.yul\":3893:3903   */\n      add\n        /* \"#utility.yul\":3864:3977   */\n      jump(tag_304)\n    tag_306:\n      pop\n      pop\n        /* \"#utility.yul\":4011:4012   */\n      0x00\n        /* \"#utility.yul\":3993:4009   */\n      swap2\n      add\n        /* \"#utility.yul\":3986:4013   */\n      mstore\n        /* \"#utility.yul\":3769:4019   */\n      jump\t// out\n        /* \"#utility.yul\":4024:4295   */\n    tag_257:\n        /* \"#utility.yul\":4066:4069   */\n      0x00\n        /* \"#utility.yul\":4104:4109   */\n      dup2\n        /* \"#utility.yul\":4098:4110   */\n      mload\n        /* \"#utility.yul\":4131:4137   */\n      dup1\n        /* \"#utility.yul\":4126:4129   */\n      dup5\n        /* \"#utility.yul\":4119:4138   */\n      mstore\n        /* \"#utility.yul\":4147:4223   */\n      tag_308\n        /* \"#utility.yul\":4216:4222   */\n      dup2\n        /* \"#utility.yul\":4209:4213   */\n      0x20\n        /* \"#utility.yul\":4204:4207   */\n      dup7\n        /* \"#utility.yul\":4200:4214   */\n      add\n        /* \"#utility.yul\":4193:4197   */\n      0x20\n        /* \"#utility.yul\":4186:4191   */\n      dup7\n        /* \"#utility.yul\":4182:4198   */\n      add\n        /* \"#utility.yul\":4147:4223   */\n      tag_256\n      jump\t// in\n    tag_308:\n        /* \"#utility.yul\":4277:4279   */\n      0x1f\n        /* \"#utility.yul\":4256:4271   */\n      add\n      not(0x1f)\n        /* \"#utility.yul\":4252:4281   */\n      and\n        /* \"#utility.yul\":4243:4282   */\n      swap3\n      swap1\n      swap3\n      add\n        /* \"#utility.yul\":4284:4288   */\n      0x20\n        /* \"#utility.yul\":4239:4289   */\n      add\n      swap3\n        /* \"#utility.yul\":4024:4295   */\n      swap2\n      pop\n      pop\n      jump\t// out\n        /* \"#utility.yul\":4300:5213   */\n    tag_45:\n        /* \"#utility.yul\":4689:4695   */\n      dup11\n        /* \"#utility.yul\":4678:4687   */\n      dup2\n        /* \"#utility.yul\":4671:4696   */\n      mstore\n        /* \"#utility.yul\":4732:4738   */\n      dup10\n        /* \"#utility.yul\":4727:4729   */\n      0x20\n        /* \"#utility.yul\":4716:4725   */\n      dup3\n        /* \"#utility.yul\":4712:4730   */\n      add\n        /* \"#utility.yul\":4705:4739   */\n      mstore\n        /* \"#utility.yul\":4775:4778   */\n      0x0140\n        /* \"#utility.yul\":4770:4772   */\n      0x40\n        /* \"#utility.yul\":4759:4768   */\n      dup3\n        /* \"#utility.yul\":4755:4773   */\n      add\n        /* \"#utility.yul\":4748:4779   */\n      mstore\n        /* \"#utility.yul\":4652:4656   */\n      0x00\n        /* \"#utility.yul\":4796:4842   */\n      tag_310\n        /* \"#utility.yul\":4837:4840   */\n      0x0140\n        /* \"#utility.yul\":4826:4835   */\n      dup4\n        /* \"#utility.yul\":4822:4841   */\n      add\n        /* \"#utility.yul\":4814:4820   */\n      dup12\n        /* \"#utility.yul\":4796:4842   */\n      tag_257\n      jump\t// in\n    tag_310:\n      sub(shl(0xa0, 0x01), 0x01)\n        /* \"#utility.yul\":4878:4910   */\n      swap10\n      swap1\n      swap10\n      and\n        /* \"#utility.yul\":4873:4875   */\n      0x60\n        /* \"#utility.yul\":4858:4876   */\n      dup4\n      add\n        /* \"#utility.yul\":4851:4911   */\n      mstore\n      pop\n        /* \"#utility.yul\":4942:4945   */\n      0x80\n        /* \"#utility.yul\":4927:4946   */\n      dup2\n      add\n        /* \"#utility.yul\":4920:4955   */\n      swap7\n      swap1\n      swap7\n      mstore\n        /* \"#utility.yul\":4898:4901   */\n      0xa0\n        /* \"#utility.yul\":4971:4990   */\n      dup7\n      add\n        /* \"#utility.yul\":4964:4999   */\n      swap5\n      swap1\n      swap5\n      mstore\n        /* \"#utility.yul\":5043:5057   */\n      swap2\n      iszero\n        /* \"#utility.yul\":5036:5058   */\n      iszero\n        /* \"#utility.yul\":5030:5033   */\n      0xc0\n        /* \"#utility.yul\":5015:5034   */\n      dup6\n      add\n        /* \"#utility.yul\":5008:5059   */\n      mstore\n        /* \"#utility.yul\":5103:5117   */\n      iszero\n        /* \"#utility.yul\":5096:5118   */\n      iszero\n        /* \"#utility.yul\":5090:5093   */\n      0xe0\n        /* \"#utility.yul\":5075:5094   */\n      dup5\n      add\n        /* \"#utility.yul\":5068:5119   */\n      mstore\n        /* \"#utility.yul\":5150:5153   */\n      0x0100\n        /* \"#utility.yul\":5135:5154   */\n      dup4\n      add\n        /* \"#utility.yul\":5128:5163   */\n      mstore\n        /* \"#utility.yul\":5194:5197   */\n      0x0120\n        /* \"#utility.yul\":5179:5198   */\n      swap1\n      swap2\n      add\n        /* \"#utility.yul\":5172:5207   */\n      mstore\n        /* \"#utility.yul\":4788:4842   */\n      swap4\n        /* \"#utility.yul\":4300:5213   */\n      swap3\n      pop\n      pop\n      pop\n      jump\t// out\n        /* \"#utility.yul\":5218:5771   */\n    tag_50:\n      sub(shl(0xa0, 0x01), 0x01)\n        /* \"#utility.yul\":5471:5503   */\n      dup6\n      and\n        /* \"#utility.yul\":5453:5504   */\n      dup2\n      mstore\n        /* \"#utility.yul\":5540:5543   */\n      0x80\n        /* \"#utility.yul\":5535:5537   */\n      0x20\n        /* \"#utility.yul\":5520:5538   */\n      dup3\n      add\n        /* \"#utility.yul\":5513:5544   */\n      dup2\n      swap1\n      mstore\n      0x00\n      swap1\n        /* \"#utility.yul\":5567:5613   */\n      tag_312\n      swap1\n        /* \"#utility.yul\":5593:5612   */\n      dup4\n      add\n        /* \"#utility.yul\":5585:5591   */\n      dup7\n        /* \"#utility.yul\":5567:5613   */\n      tag_257\n      jump\t// in\n    tag_312:\n        /* \"#utility.yul\":5649:5655   */\n      dup5\n        /* \"#utility.yul\":5644:5646   */\n      0x40\n        /* \"#utility.yul\":5633:5642   */\n      dup5\n        /* \"#utility.yul\":5629:5647   */\n      add\n        /* \"#utility.yul\":5622:5656   */\n      mstore\n        /* \"#utility.yul\":5704:5713   */\n      dup3\n        /* \"#utility.yul\":5696:5702   */\n      dup2\n        /* \"#utility.yul\":5692:5714   */\n      sub\n        /* \"#utility.yul\":5687:5689   */\n      0x60\n        /* \"#utility.yul\":5676:5685   */\n      dup5\n        /* \"#utility.yul\":5672:5690   */\n      add\n        /* \"#utility.yul\":5665:5715   */\n      mstore\n        /* \"#utility.yul\":5732:5765   */\n      tag_313\n        /* \"#utility.yul\":5758:5764   */\n      dup2\n        /* \"#utility.yul\":5750:5756   */\n      dup6\n        /* \"#utility.yul\":5732:5765   */\n      tag_257\n      jump\t// in\n    tag_313:\n        /* \"#utility.yul\":5724:5765   */\n      swap8\n        /* \"#utility.yul\":5218:5771   */\n      swap7\n      pop\n      pop\n      pop\n      pop\n      pop\n      pop\n      pop\n      jump\t// out\n        /* \"#utility.yul\":5776:6098   */\n    tag_53:\n        /* \"#utility.yul\":5845:5851   */\n      0x00\n        /* \"#utility.yul\":5898:5900   */\n      0x20\n        /* \"#utility.yul\":5886:5895   */\n      dup3\n        /* \"#utility.yul\":5877:5884   */\n      dup5\n        /* \"#utility.yul\":5873:5896   */\n      sub\n        /* \"#utility.yul\":5869:5901   */\n      slt\n        /* \"#utility.yul\":5866:5918   */\n      iszero\n      tag_315\n      jumpi\n        /* \"#utility.yul\":5914:5915   */\n      0x00\n        /* \"#utility.yul\":5911:5912   */\n      dup1\n        /* \"#utility.yul\":5904:5916   */\n      revert\n        /* \"#utility.yul\":5866:5918   */\n    tag_315:\n        /* \"#utility.yul\":5954:5963   */\n      dup2\n        /* \"#utility.yul\":5941:5964   */\n      calldataload\n      sub(shl(0x40, 0x01), 0x01)\n        /* \"#utility.yul\":5979:5985   */\n      dup2\n        /* \"#utility.yul\":5976:6006   */\n      gt\n        /* \"#utility.yul\":5973:6023   */\n      iszero\n      tag_316\n      jumpi\n        /* \"#utility.yul\":6019:6020   */\n      0x00\n        /* \"#utility.yul\":6016:6017   */\n      dup1\n        /* \"#utility.yul\":6009:6021   */\n      revert\n        /* \"#utility.yul\":5973:6023   */\n    tag_316:\n        /* \"#utility.yul\":6042:6092   */\n      tag_299\n        /* \"#utility.yul\":6084:6091   */\n      dup5\n        /* \"#utility.yul\":6075:6081   */\n      dup3\n        /* \"#utility.yul\":6064:6073   */\n      dup6\n        /* \"#utility.yul\":6060:6082   */\n      add\n        /* \"#utility.yul\":6042:6092   */\n      tag_253\n      jump\t// in\n        /* \"#utility.yul\":6103:6722   */\n    tag_56:\n        /* \"#utility.yul\":6376:6379   */\n      0x80\n        /* \"#utility.yul\":6365:6374   */\n      dup2\n        /* \"#utility.yul\":6358:6380   */\n      mstore\n        /* \"#utility.yul\":6339:6343   */\n      0x00\n        /* \"#utility.yul\":6403:6449   */\n      tag_319\n        /* \"#utility.yul\":6444:6447   */\n      0x80\n        /* \"#utility.yul\":6433:6442   */\n      dup4\n        /* \"#utility.yul\":6429:6448   */\n      add\n        /* \"#utility.yul\":6421:6427   */\n      dup8\n        /* \"#utility.yul\":6403:6449   */\n      tag_257\n      jump\t// in\n    tag_319:\n        /* \"#utility.yul\":6497:6506   */\n      dup3\n        /* \"#utility.yul\":6489:6495   */\n      dup2\n        /* \"#utility.yul\":6485:6507   */\n      sub\n        /* \"#utility.yul\":6480:6482   */\n      0x20\n        /* \"#utility.yul\":6469:6478   */\n      dup5\n        /* \"#utility.yul\":6465:6483   */\n      add\n        /* \"#utility.yul\":6458:6508   */\n      mstore\n        /* \"#utility.yul\":6531:6564   */\n      tag_320\n        /* \"#utility.yul\":6557:6563   */\n      dup2\n        /* \"#utility.yul\":6549:6555   */\n      dup8\n        /* \"#utility.yul\":6531:6564   */\n      tag_257\n      jump\t// in\n    tag_320:\n        /* \"#utility.yul\":6517:6564   */\n      swap1\n      pop\n        /* \"#utility.yul\":6612:6621   */\n      dup3\n        /* \"#utility.yul\":6604:6610   */\n      dup2\n        /* \"#utility.yul\":6600:6622   */\n      sub\n        /* \"#utility.yul\":6595:6597   */\n      0x40\n        /* \"#utility.yul\":6584:6593   */\n      dup5\n        /* \"#utility.yul\":6580:6598   */\n      add\n        /* \"#utility.yul\":6573:6623   */\n      mstore\n        /* \"#utility.yul\":6640:6673   */\n      tag_321\n        /* \"#utility.yul\":6666:6672   */\n      dup2\n        /* \"#utility.yul\":6658:6664   */\n      dup7\n        /* \"#utility.yul\":6640:6673   */\n      tag_257\n      jump\t// in\n    tag_321:\n        /* \"#utility.yul\":6632:6673   */\n      swap2\n      pop\n      pop\n        /* \"#utility.yul\":6709:6715   */\n      dup3\n        /* \"#utility.yul\":6704:6706   */\n      0x60\n        /* \"#utility.yul\":6693:6702   */\n      dup4\n        /* \"#utility.yul\":6689:6707   */\n      add\n        /* \"#utility.yul\":6682:6716   */\n      mstore\n        /* \"#utility.yul\":6103:6722   */\n      swap6\n      swap5\n      pop\n      pop\n      pop\n      pop\n      pop\n      jump\t// out\n        /* \"#utility.yul\":6727:7379   */\n    tag_62:\n        /* \"#utility.yul\":6824:6830   */\n      0x00\n        /* \"#utility.yul\":6832:6838   */\n      dup1\n        /* \"#utility.yul\":6840:6846   */\n      0x00\n        /* \"#utility.yul\":6893:6895   */\n      0x60\n        /* \"#utility.yul\":6881:6890   */\n      dup5\n        /* \"#utility.yul\":6872:6879   */\n      dup7\n        /* \"#utility.yul\":6868:6891   */\n      sub\n        /* \"#utility.yul\":6864:6896   */\n      slt\n        /* \"#utility.yul\":6861:6913   */\n      iszero\n      tag_323\n      jumpi\n        /* \"#utility.yul\":6909:6910   */\n      0x00\n        /* \"#utility.yul\":6906:6907   */\n      dup1\n        /* \"#utility.yul\":6899:6911   */\n      revert\n        /* \"#utility.yul\":6861:6913   */\n    tag_323:\n        /* \"#utility.yul\":6949:6958   */\n      dup4\n        /* \"#utility.yul\":6936:6959   */\n      calldataload\n      sub(shl(0x40, 0x01), 0x01)\n        /* \"#utility.yul\":6974:6980   */\n      dup2\n        /* \"#utility.yul\":6971:7001   */\n      gt\n        /* \"#utility.yul\":6968:7018   */\n      iszero\n      tag_324\n      jumpi\n        /* \"#utility.yul\":7014:7015   */\n      0x00\n        /* \"#utility.yul\":7011:7012   */\n      dup1\n        /* \"#utility.yul\":7004:7016   */\n      revert\n        /* \"#utility.yul\":6968:7018   */\n    tag_324:\n        /* \"#utility.yul\":7037:7087   */\n      tag_325\n        /* \"#utility.yul\":7079:7086   */\n      dup7\n        /* \"#utility.yul\":7070:7076   */\n      dup3\n        /* \"#utility.yul\":7059:7068   */\n      dup8\n        /* \"#utility.yul\":7055:7077   */\n      add\n        /* \"#utility.yul\":7037:7087   */\n      tag_253\n      jump\t// in\n    tag_325:\n        /* \"#utility.yul\":7027:7087   */\n      swap4\n      pop\n      pop\n        /* \"#utility.yul\":7156:7158   */\n      0x20\n        /* \"#utility.yul\":7141:7159   */\n      dup5\n      add\n        /* \"#utility.yul\":7128:7160   */\n      calldataload\n      swap2\n      pop\n        /* \"#utility.yul\":7237:7239   */\n      0x40\n        /* \"#utility.yul\":7222:7240   */\n      dup5\n      add\n        /* \"#utility.yul\":7209:7241   */\n      calldataload\n      sub(shl(0x40, 0x01), 0x01)\n        /* \"#utility.yul\":7253:7285   */\n      dup2\n      gt\n        /* \"#utility.yul\":7250:7302   */\n      iszero\n      tag_326\n      jumpi\n        /* \"#utility.yul\":7298:7299   */\n      0x00\n        /* \"#utility.yul\":7295:7296   */\n      dup1\n        /* \"#utility.yul\":7288:7300   */\n      revert\n        /* \"#utility.yul\":7250:7302   */\n    tag_326:\n        /* \"#utility.yul\":7321:7373   */\n      tag_327\n        /* \"#utility.yul\":7365:7372   */\n      dup7\n        /* \"#utility.yul\":7354:7362   */\n      dup3\n        /* \"#utility.yul\":7343:7352   */\n      dup8\n        /* \"#utility.yul\":7339:7363   */\n      add\n        /* \"#utility.yul\":7321:7373   */\n      tag_253\n      jump\t// in\n    tag_327:\n        /* \"#utility.yul\":7311:7373   */\n      swap2\n      pop\n      pop\n        /* \"#utility.yul\":6727:7379   */\n      swap3\n      pop\n      swap3\n      pop\n      swap3\n      jump\t// out\n        /* \"#utility.yul\":7384:7557   */\n    tag_258:\n        /* \"#utility.yul\":7452:7472   */\n      dup1\n      calldataload\n      sub(shl(0xa0, 0x01), 0x01)\n        /* \"#utility.yul\":7501:7532   */\n      dup2\n      and\n        /* \"#utility.yul\":7491:7533   */\n      dup2\n      eq\n        /* \"#utility.yul\":7481:7551   */\n      tag_329\n      jumpi\n        /* \"#utility.yul\":7547:7548   */\n      0x00\n        /* \"#utility.yul\":7544:7545   */\n      dup1\n        /* \"#utility.yul\":7537:7549   */\n      revert\n        /* \"#utility.yul\":7481:7551   */\n    tag_329:\n        /* \"#utility.yul\":7384:7557   */\n      swap2\n      swap1\n      pop\n      jump\t// out\n        /* \"#utility.yul\":7562:7958   */\n    tag_69:\n        /* \"#utility.yul\":7640:7646   */\n      0x00\n        /* \"#utility.yul\":7648:7654   */\n      dup1\n        /* \"#utility.yul\":7701:7703   */\n      0x40\n        /* \"#utility.yul\":7689:7698   */\n      dup4\n        /* \"#utility.yul\":7680:7687   */\n      dup6\n        /* \"#utility.yul\":7676:7699   */\n      sub\n        /* \"#utility.yul\":7672:7704   */\n      slt\n        /* \"#utility.yul\":7669:7721   */\n      iszero\n      tag_331\n      jumpi\n        /* \"#utility.yul\":7717:7718   */\n      0x00\n        /* \"#utility.yul\":7714:7715   */\n      dup1\n        /* \"#utility.yul\":7707:7719   */\n      revert\n        /* \"#utility.yul\":7669:7721   */\n    tag_331:\n        /* \"#utility.yul\":7757:7766   */\n      dup3\n        /* \"#utility.yul\":7744:7767   */\n      calldataload\n      sub(shl(0x40, 0x01), 0x01)\n        /* \"#utility.yul\":7782:7788   */\n      dup2\n        /* \"#utility.yul\":7779:7809   */\n      gt\n        /* \"#utility.yul\":7776:7826   */\n      iszero\n      tag_332\n      jumpi\n        /* \"#utility.yul\":7822:7823   */\n      0x00\n        /* \"#utility.yul\":7819:7820   */\n      dup1\n        /* \"#utility.yul\":7812:7824   */\n      revert\n        /* \"#utility.yul\":7776:7826   */\n    tag_332:\n        /* \"#utility.yul\":7845:7895   */\n      tag_333\n        /* \"#utility.yul\":7887:7894   */\n      dup6\n        /* \"#utility.yul\":7878:7884   */\n      dup3\n        /* \"#utility.yul\":7867:7876   */\n      dup7\n        /* \"#utility.yul\":7863:7885   */\n      add\n        /* \"#utility.yul\":7845:7895   */\n      tag_253\n      jump\t// in\n    tag_333:\n        /* \"#utility.yul\":7835:7895   */\n      swap3\n      pop\n      pop\n        /* \"#utility.yul\":7914:7952   */\n      tag_334\n        /* \"#utility.yul\":7948:7950   */\n      0x20\n        /* \"#utility.yul\":7937:7946   */\n      dup5\n        /* \"#utility.yul\":7933:7951   */\n      add\n        /* \"#utility.yul\":7914:7952   */\n      tag_258\n      jump\t// in\n    tag_334:\n        /* \"#utility.yul\":7904:7952   */\n      swap1\n      pop\n        /* \"#utility.yul\":7562:7958   */\n      swap3\n      pop\n      swap3\n      swap1\n      pop\n      jump\t// out\n        /* \"#utility.yul\":7963:9471   */\n    tag_259:\n        /* \"#utility.yul\":8027:8032   */\n      0x00\n        /* \"#utility.yul\":8080:8083   */\n      dup3\n        /* \"#utility.yul\":8073:8077   */\n      0x1f\n        /* \"#utility.yul\":8065:8071   */\n      dup4\n        /* \"#utility.yul\":8061:8078   */\n      add\n        /* \"#utility.yul\":8057:8084   */\n      slt\n        /* \"#utility.yul\":8047:8102   */\n      tag_336\n      jumpi\n        /* \"#utility.yul\":8098:8099   */\n      0x00\n        /* \"#utility.yul\":8095:8096   */\n      dup1\n        /* \"#utility.yul\":8088:8100   */\n      revert\n        /* \"#utility.yul\":8047:8102   */\n    tag_336:\n        /* \"#utility.yul\":8138:8144   */\n      dup2\n        /* \"#utility.yul\":8125:8145   */\n      calldataload\n        /* \"#utility.yul\":8165:8228   */\n      tag_337\n        /* \"#utility.yul\":8181:8227   */\n      tag_289\n        /* \"#utility.yul\":8220:8226   */\n      dup3\n        /* \"#utility.yul\":8181:8227   */\n      tag_254\n      jump\t// in\n        /* \"#utility.yul\":8165:8228   */\n    tag_337:\n        /* \"#utility.yul\":8252:8255   */\n      dup1\n        /* \"#utility.yul\":8276:8282   */\n      dup3\n        /* \"#utility.yul\":8271:8274   */\n      dup3\n        /* \"#utility.yul\":8264:8283   */\n      mstore\n        /* \"#utility.yul\":8308:8312   */\n      0x20\n        /* \"#utility.yul\":8303:8306   */\n      dup3\n        /* \"#utility.yul\":8299:8313   */\n      add\n        /* \"#utility.yul\":8292:8313   */\n      swap2\n      pop\n        /* \"#utility.yul\":8369:8373   */\n      0x20\n        /* \"#utility.yul\":8359:8365   */\n      dup4\n        /* \"#utility.yul\":8356:8357   */\n      0x05\n        /* \"#utility.yul\":8352:8366   */\n      shl\n        /* \"#utility.yul\":8344:8350   */\n      dup7\n        /* \"#utility.yul\":8340:8367   */\n      add\n        /* \"#utility.yul\":8336:8374   */\n      add\n        /* \"#utility.yul\":8322:8374   */\n      swap3\n      pop\n        /* \"#utility.yul\":8397:8400   */\n      dup6\n        /* \"#utility.yul\":8389:8395   */\n      dup4\n        /* \"#utility.yul\":8386:8401   */\n      gt\n        /* \"#utility.yul\":8383:8418   */\n      iszero\n      tag_339\n      jumpi\n        /* \"#utility.yul\":8414:8415   */\n      0x00\n        /* \"#utility.yul\":8411:8412   */\n      dup1\n        /* \"#utility.yul\":8404:8416   */\n      revert\n        /* \"#utility.yul\":8383:8418   */\n    tag_339:\n        /* \"#utility.yul\":8450:8454   */\n      0x20\n        /* \"#utility.yul\":8442:8448   */\n      dup6\n        /* \"#utility.yul\":8438:8455   */\n      add\n        /* \"#utility.yul\":8464:9440   */\n    tag_340:\n        /* \"#utility.yul\":8480:8486   */\n      dup4\n        /* \"#utility.yul\":8475:8478   */\n      dup2\n        /* \"#utility.yul\":8472:8487   */\n      lt\n        /* \"#utility.yul\":8464:9440   */\n      iszero\n      tag_293\n      jumpi\n        /* \"#utility.yul\":8568:8571   */\n      dup1\n        /* \"#utility.yul\":8555:8572   */\n      calldataload\n      sub(shl(0x40, 0x01), 0x01)\n        /* \"#utility.yul\":8591:8602   */\n      dup2\n        /* \"#utility.yul\":8588:8623   */\n      gt\n        /* \"#utility.yul\":8585:8640   */\n      iszero\n      tag_343\n      jumpi\n        /* \"#utility.yul\":8636:8637   */\n      0x00\n        /* \"#utility.yul\":8633:8634   */\n      dup1\n        /* \"#utility.yul\":8626:8638   */\n      revert\n        /* \"#utility.yul\":8585:8640   */\n    tag_343:\n        /* \"#utility.yul\":8663:8687   */\n      dup7\n      add\n        /* \"#utility.yul\":8722:8724   */\n      0x3f\n        /* \"#utility.yul\":8714:8725   */\n      dup2\n      add\n        /* \"#utility.yul\":8710:8731   */\n      dup9\n      sgt\n        /* \"#utility.yul\":8700:8749   */\n      tag_344\n      jumpi\n        /* \"#utility.yul\":8745:8746   */\n      0x00\n        /* \"#utility.yul\":8742:8743   */\n      dup1\n        /* \"#utility.yul\":8735:8747   */\n      revert\n        /* \"#utility.yul\":8700:8749   */\n    tag_344:\n        /* \"#utility.yul\":8799:8803   */\n      0x20\n        /* \"#utility.yul\":8795:8797   */\n      dup2\n        /* \"#utility.yul\":8791:8804   */\n      add\n        /* \"#utility.yul\":8778:8805   */\n      calldataload\n        /* \"#utility.yul\":8831:8896   */\n      tag_345\n        /* \"#utility.yul\":8847:8895   */\n      tag_289\n        /* \"#utility.yul\":8886:8894   */\n      dup3\n        /* \"#utility.yul\":8847:8895   */\n      tag_254\n      jump\t// in\n        /* \"#utility.yul\":8831:8896   */\n    tag_345:\n        /* \"#utility.yul\":8924:8929   */\n      dup1\n        /* \"#utility.yul\":8956:8964   */\n      dup3\n        /* \"#utility.yul\":8949:8954   */\n      dup3\n        /* \"#utility.yul\":8942:8965   */\n      mstore\n        /* \"#utility.yul\":8998:9002   */\n      0x20\n        /* \"#utility.yul\":8991:8996   */\n      dup3\n        /* \"#utility.yul\":8987:9003   */\n      add\n        /* \"#utility.yul\":8978:9003   */\n      swap2\n      pop\n        /* \"#utility.yul\":9074:9078   */\n      0x20\n        /* \"#utility.yul\":9067:9071   */\n      dup1\n        /* \"#utility.yul\":9055:9063   */\n      dup5\n        /* \"#utility.yul\":9052:9053   */\n      0x05\n        /* \"#utility.yul\":9048:9064   */\n      shl\n        /* \"#utility.yul\":9044:9046   */\n      dup7\n        /* \"#utility.yul\":9040:9065   */\n      add\n        /* \"#utility.yul\":9036:9072   */\n      add\n        /* \"#utility.yul\":9032:9079   */\n      add\n        /* \"#utility.yul\":9016:9079   */\n      swap3\n      pop\n        /* \"#utility.yul\":9108:9111   */\n      dup11\n        /* \"#utility.yul\":9098:9106   */\n      dup4\n        /* \"#utility.yul\":9095:9112   */\n      gt\n        /* \"#utility.yul\":9092:9129   */\n      iszero\n      tag_347\n      jumpi\n        /* \"#utility.yul\":9125:9126   */\n      0x00\n        /* \"#utility.yul\":9122:9123   */\n      dup1\n        /* \"#utility.yul\":9115:9127   */\n      revert\n        /* \"#utility.yul\":9092:9129   */\n    tag_347:\n        /* \"#utility.yul\":9163:9165   */\n      0x40\n        /* \"#utility.yul\":9159:9161   */\n      dup5\n        /* \"#utility.yul\":9155:9166   */\n      add\n        /* \"#utility.yul\":9142:9166   */\n      swap4\n      pop\n        /* \"#utility.yul\":9179:9363   */\n    tag_348:\n        /* \"#utility.yul\":9197:9205   */\n      dup3\n        /* \"#utility.yul\":9190:9195   */\n      dup5\n        /* \"#utility.yul\":9187:9206   */\n      lt\n        /* \"#utility.yul\":9179:9363   */\n      iszero\n      tag_350\n      jumpi\n        /* \"#utility.yul\":9281:9306   */\n      tag_351\n        /* \"#utility.yul\":9300:9305   */\n      dup5\n        /* \"#utility.yul\":9281:9306   */\n      tag_258\n      jump\t// in\n    tag_351:\n        /* \"#utility.yul\":9267:9307   */\n      dup3\n      mstore\n        /* \"#utility.yul\":9344:9348   */\n      0x20\n        /* \"#utility.yul\":9218:9234   */\n      swap4\n      dup5\n      add\n      swap4\n        /* \"#utility.yul\":9333:9349   */\n      swap1\n      swap2\n      add\n      swap1\n        /* \"#utility.yul\":9179:9363   */\n      jump(tag_348)\n    tag_350:\n        /* \"#utility.yul\":9376:9396   */\n      dup7\n      mstore\n      pop\n      pop\n        /* \"#utility.yul\":9425:9429   */\n      0x20\n        /* \"#utility.yul\":9416:9430   */\n      swap4\n      dup5\n      add\n      swap4\n        /* \"#utility.yul\":8497:8511   */\n      swap2\n      swap1\n      swap2\n      add\n      swap1\n      pop\n        /* \"#utility.yul\":8464:9440   */\n      jump(tag_340)\n        /* \"#utility.yul\":9476:10198   */\n    tag_260:\n        /* \"#utility.yul\":9530:9535   */\n      0x00\n        /* \"#utility.yul\":9583:9586   */\n      dup3\n        /* \"#utility.yul\":9576:9580   */\n      0x1f\n        /* \"#utility.yul\":9568:9574   */\n      dup4\n        /* \"#utility.yul\":9564:9581   */\n      add\n        /* \"#utility.yul\":9560:9587   */\n      slt\n        /* \"#utility.yul\":9550:9605   */\n      tag_353\n      jumpi\n        /* \"#utility.yul\":9601:9602   */\n      0x00\n        /* \"#utility.yul\":9598:9599   */\n      dup1\n        /* \"#utility.yul\":9591:9603   */\n      revert\n        /* \"#utility.yul\":9550:9605   */\n    tag_353:\n        /* \"#utility.yul\":9641:9647   */\n      dup2\n        /* \"#utility.yul\":9628:9648   */\n      calldataload\n        /* \"#utility.yul\":9668:9731   */\n      tag_354\n        /* \"#utility.yul\":9684:9730   */\n      tag_289\n        /* \"#utility.yul\":9723:9729   */\n      dup3\n        /* \"#utility.yul\":9684:9730   */\n      tag_254\n      jump\t// in\n        /* \"#utility.yul\":9668:9731   */\n    tag_354:\n        /* \"#utility.yul\":9755:9758   */\n      dup1\n        /* \"#utility.yul\":9779:9785   */\n      dup3\n        /* \"#utility.yul\":9774:9777   */\n      dup3\n        /* \"#utility.yul\":9767:9786   */\n      mstore\n        /* \"#utility.yul\":9811:9815   */\n      0x20\n        /* \"#utility.yul\":9806:9809   */\n      dup3\n        /* \"#utility.yul\":9802:9816   */\n      add\n        /* \"#utility.yul\":9795:9816   */\n      swap2\n      pop\n        /* \"#utility.yul\":9872:9876   */\n      0x20\n        /* \"#utility.yul\":9862:9868   */\n      dup4\n        /* \"#utility.yul\":9859:9860   */\n      0x05\n        /* \"#utility.yul\":9855:9869   */\n      shl\n        /* \"#utility.yul\":9847:9853   */\n      dup7\n        /* \"#utility.yul\":9843:9870   */\n      add\n        /* \"#utility.yul\":9839:9877   */\n      add\n        /* \"#utility.yul\":9825:9877   */\n      swap3\n      pop\n        /* \"#utility.yul\":9900:9903   */\n      dup6\n        /* \"#utility.yul\":9892:9898   */\n      dup4\n        /* \"#utility.yul\":9889:9904   */\n      gt\n        /* \"#utility.yul\":9886:9921   */\n      iszero\n      tag_356\n      jumpi\n        /* \"#utility.yul\":9917:9918   */\n      0x00\n        /* \"#utility.yul\":9914:9915   */\n      dup1\n        /* \"#utility.yul\":9907:9919   */\n      revert\n        /* \"#utility.yul\":9886:9921   */\n    tag_356:\n        /* \"#utility.yul\":9953:9957   */\n      0x20\n        /* \"#utility.yul\":9945:9951   */\n      dup6\n        /* \"#utility.yul\":9941:9958   */\n      add\n        /* \"#utility.yul\":9967:10167   */\n    tag_357:\n        /* \"#utility.yul\":9983:9989   */\n      dup4\n        /* \"#utility.yul\":9978:9981   */\n      dup2\n        /* \"#utility.yul\":9975:9990   */\n      lt\n        /* \"#utility.yul\":9967:10167   */\n      iszero\n      tag_293\n      jumpi\n        /* \"#utility.yul\":10075:10092   */\n      dup1\n      calldataload\n        /* \"#utility.yul\":10105:10123   */\n      dup4\n      mstore\n        /* \"#utility.yul\":10152:10156   */\n      0x20\n        /* \"#utility.yul\":10143:10157   */\n      swap3\n      dup4\n      add\n      swap3\n        /* \"#utility.yul\":10000:10014   */\n      add\n        /* \"#utility.yul\":9967:10167   */\n      jump(tag_357)\n        /* \"#utility.yul\":10203:11861   */\n    tag_77:\n        /* \"#utility.yul\":10537:10543   */\n      0x00\n        /* \"#utility.yul\":10545:10551   */\n      dup1\n        /* \"#utility.yul\":10553:10559   */\n      0x00\n        /* \"#utility.yul\":10561:10567   */\n      dup1\n        /* \"#utility.yul\":10569:10575   */\n      0x00\n        /* \"#utility.yul\":10577:10583   */\n      dup1\n        /* \"#utility.yul\":10630:10633   */\n      0xc0\n        /* \"#utility.yul\":10618:10627   */\n      dup8\n        /* \"#utility.yul\":10609:10616   */\n      dup10\n        /* \"#utility.yul\":10605:10628   */\n      sub\n        /* \"#utility.yul\":10601:10634   */\n      slt\n        /* \"#utility.yul\":10598:10651   */\n      iszero\n      tag_361\n      jumpi\n        /* \"#utility.yul\":10647:10648   */\n      0x00\n        /* \"#utility.yul\":10644:10645   */\n      dup1\n        /* \"#utility.yul\":10637:10649   */\n      revert\n        /* \"#utility.yul\":10598:10651   */\n    tag_361:\n        /* \"#utility.yul\":10687:10696   */\n      dup7\n        /* \"#utility.yul\":10674:10697   */\n      calldataload\n      sub(shl(0x40, 0x01), 0x01)\n        /* \"#utility.yul\":10712:10718   */\n      dup2\n        /* \"#utility.yul\":10709:10739   */\n      gt\n        /* \"#utility.yul\":10706:10756   */\n      iszero\n      tag_362\n      jumpi\n        /* \"#utility.yul\":10752:10753   */\n      0x00\n        /* \"#utility.yul\":10749:10750   */\n      dup1\n        /* \"#utility.yul\":10742:10754   */\n      revert\n        /* \"#utility.yul\":10706:10756   */\n    tag_362:\n        /* \"#utility.yul\":10775:10835   */\n      tag_363\n        /* \"#utility.yul\":10827:10834   */\n      dup10\n        /* \"#utility.yul\":10818:10824   */\n      dup3\n        /* \"#utility.yul\":10807:10816   */\n      dup11\n        /* \"#utility.yul\":10803:10825   */\n      add\n        /* \"#utility.yul\":10775:10835   */\n      tag_255\n      jump\t// in\n    tag_363:\n        /* \"#utility.yul\":10765:10835   */\n      swap7\n      pop\n      pop\n        /* \"#utility.yul\":10888:10890   */\n      0x20\n        /* \"#utility.yul\":10877:10886   */\n      dup8\n        /* \"#utility.yul\":10873:10891   */\n      add\n        /* \"#utility.yul\":10860:10892   */\n      calldataload\n      sub(shl(0x40, 0x01), 0x01)\n        /* \"#utility.yul\":10907:10915   */\n      dup2\n        /* \"#utility.yul\":10904:10936   */\n      gt\n        /* \"#utility.yul\":10901:10953   */\n      iszero\n      tag_364\n      jumpi\n        /* \"#utility.yul\":10949:10950   */\n      0x00\n        /* \"#utility.yul\":10946:10947   */\n      dup1\n        /* \"#utility.yul\":10939:10951   */\n      revert\n        /* \"#utility.yul\":10901:10953   */\n    tag_364:\n        /* \"#utility.yul\":10972:11045   */\n      tag_365\n        /* \"#utility.yul\":11037:11044   */\n      dup10\n        /* \"#utility.yul\":11026:11034   */\n      dup3\n        /* \"#utility.yul\":11015:11024   */\n      dup11\n        /* \"#utility.yul\":11011:11035   */\n      add\n        /* \"#utility.yul\":10972:11045   */\n      tag_259\n      jump\t// in\n    tag_365:\n        /* \"#utility.yul\":10962:11045   */\n      swap6\n      pop\n      pop\n        /* \"#utility.yul\":11098:11100   */\n      0x40\n        /* \"#utility.yul\":11087:11096   */\n      dup8\n        /* \"#utility.yul\":11083:11101   */\n      add\n        /* \"#utility.yul\":11070:11102   */\n      calldataload\n      sub(shl(0x40, 0x01), 0x01)\n        /* \"#utility.yul\":11117:11125   */\n      dup2\n        /* \"#utility.yul\":11114:11146   */\n      gt\n        /* \"#utility.yul\":11111:11163   */\n      iszero\n      tag_366\n      jumpi\n        /* \"#utility.yul\":11159:11160   */\n      0x00\n        /* \"#utility.yul\":11156:11157   */\n      dup1\n        /* \"#utility.yul\":11149:11161   */\n      revert\n        /* \"#utility.yul\":11111:11163   */\n    tag_366:\n        /* \"#utility.yul\":11182:11244   */\n      tag_367\n        /* \"#utility.yul\":11236:11243   */\n      dup10\n        /* \"#utility.yul\":11225:11233   */\n      dup3\n        /* \"#utility.yul\":11214:11223   */\n      dup11\n        /* \"#utility.yul\":11210:11234   */\n      add\n        /* \"#utility.yul\":11182:11244   */\n      tag_255\n      jump\t// in\n    tag_367:\n        /* \"#utility.yul\":11172:11244   */\n      swap5\n      pop\n      pop\n        /* \"#utility.yul\":11297:11299   */\n      0x60\n        /* \"#utility.yul\":11286:11295   */\n      dup8\n        /* \"#utility.yul\":11282:11300   */\n      add\n        /* \"#utility.yul\":11269:11301   */\n      calldataload\n      sub(shl(0x40, 0x01), 0x01)\n        /* \"#utility.yul\":11316:11324   */\n      dup2\n        /* \"#utility.yul\":11313:11345   */\n      gt\n        /* \"#utility.yul\":11310:11362   */\n      iszero\n      tag_368\n      jumpi\n        /* \"#utility.yul\":11358:11359   */\n      0x00\n        /* \"#utility.yul\":11355:11356   */\n      dup1\n        /* \"#utility.yul\":11348:11360   */\n      revert\n        /* \"#utility.yul\":11310:11362   */\n    tag_368:\n        /* \"#utility.yul\":11381:11443   */\n      tag_369\n        /* \"#utility.yul\":11435:11442   */\n      dup10\n        /* \"#utility.yul\":11424:11432   */\n      dup3\n        /* \"#utility.yul\":11413:11422   */\n      dup11\n        /* \"#utility.yul\":11409:11433   */\n      add\n        /* \"#utility.yul\":11381:11443   */\n      tag_255\n      jump\t// in\n    tag_369:\n        /* \"#utility.yul\":11371:11443   */\n      swap4\n      pop\n      pop\n        /* \"#utility.yul\":11496:11499   */\n      0x80\n        /* \"#utility.yul\":11485:11494   */\n      dup8\n        /* \"#utility.yul\":11481:11500   */\n      add\n        /* \"#utility.yul\":11468:11501   */\n      calldataload\n      sub(shl(0x40, 0x01), 0x01)\n        /* \"#utility.yul\":11516:11524   */\n      dup2\n        /* \"#utility.yul\":11513:11545   */\n      gt\n        /* \"#utility.yul\":11510:11562   */\n      iszero\n      tag_370\n      jumpi\n        /* \"#utility.yul\":11558:11559   */\n      0x00\n        /* \"#utility.yul\":11555:11556   */\n      dup1\n        /* \"#utility.yul\":11548:11560   */\n      revert\n        /* \"#utility.yul\":11510:11562   */\n    tag_370:\n        /* \"#utility.yul\":11581:11644   */\n      tag_371\n        /* \"#utility.yul\":11636:11643   */\n      dup10\n        /* \"#utility.yul\":11625:11633   */\n      dup3\n        /* \"#utility.yul\":11614:11623   */\n      dup11\n        /* \"#utility.yul\":11610:11634   */\n      add\n        /* \"#utility.yul\":11581:11644   */\n      tag_260\n      jump\t// in\n    tag_371:\n        /* \"#utility.yul\":11571:11644   */\n      swap3\n      pop\n      pop\n        /* \"#utility.yul\":11697:11700   */\n      0xa0\n        /* \"#utility.yul\":11686:11695   */\n      dup8\n        /* \"#utility.yul\":11682:11701   */\n      add\n        /* \"#utility.yul\":11669:11702   */\n      calldataload\n      sub(shl(0x40, 0x01), 0x01)\n        /* \"#utility.yul\":11717:11725   */\n      dup2\n        /* \"#utility.yul\":11714:11746   */\n      gt\n        /* \"#utility.yul\":11711:11763   */\n      iszero\n      tag_372\n      jumpi\n        /* \"#utility.yul\":11759:11760   */\n      0x00\n        /* \"#utility.yul\":11756:11757   */\n      dup1\n        /* \"#utility.yul\":11749:11761   */\n      revert\n        /* \"#utility.yul\":11711:11763   */\n    tag_372:\n        /* \"#utility.yul\":11782:11855   */\n      tag_373\n        /* \"#utility.yul\":11847:11854   */\n      dup10\n        /* \"#utility.yul\":11836:11844   */\n      dup3\n        /* \"#utility.yul\":11825:11834   */\n      dup11\n        /* \"#utility.yul\":11821:11845   */\n      add\n        /* \"#utility.yul\":11782:11855   */\n      tag_259\n      jump\t// in\n    tag_373:\n        /* \"#utility.yul\":11772:11855   */\n      swap2\n      pop\n      pop\n        /* \"#utility.yul\":10203:11861   */\n      swap3\n      swap6\n      pop\n      swap3\n      swap6\n      pop\n      swap3\n      swap6\n      jump\t// out\n        /* \"#utility.yul\":11866:12155   */\n    tag_84:\n        /* \"#utility.yul\":11997:12000   */\n      0x00\n        /* \"#utility.yul\":12035:12041   */\n      dup3\n        /* \"#utility.yul\":12029:12042   */\n      mload\n        /* \"#utility.yul\":12051:12117   */\n      tag_375\n        /* \"#utility.yul\":12110:12116   */\n      dup2\n        /* \"#utility.yul\":12105:12108   */\n      dup5\n        /* \"#utility.yul\":12098:12102   */\n      0x20\n        /* \"#utility.yul\":12090:12096   */\n      dup8\n        /* \"#utility.yul\":12086:12103   */\n      add\n        /* \"#utility.yul\":12051:12117   */\n      tag_256\n      jump\t// in\n    tag_375:\n        /* \"#utility.yul\":12133:12149   */\n      swap2\n      swap1\n      swap2\n      add\n      swap3\n        /* \"#utility.yul\":11866:12155   */\n      swap2\n      pop\n      pop\n      jump\t// out\n        /* \"#utility.yul\":12506:12886   */\n    tag_116:\n        /* \"#utility.yul\":12585:12586   */\n      0x01\n        /* \"#utility.yul\":12581:12593   */\n      dup2\n      dup2\n      shr\n      swap1\n        /* \"#utility.yul\":12628:12640   */\n      dup3\n      and\n      dup1\n        /* \"#utility.yul\":12649:12710   */\n      tag_378\n      jumpi\n        /* \"#utility.yul\":12703:12707   */\n      0x7f\n        /* \"#utility.yul\":12695:12701   */\n      dup3\n        /* \"#utility.yul\":12691:12708   */\n      and\n        /* \"#utility.yul\":12681:12708   */\n      swap2\n      pop\n        /* \"#utility.yul\":12649:12710   */\n    tag_378:\n        /* \"#utility.yul\":12756:12758   */\n      0x20\n        /* \"#utility.yul\":12748:12754   */\n      dup3\n        /* \"#utility.yul\":12745:12759   */\n      lt\n        /* \"#utility.yul\":12725:12743   */\n      dup2\n        /* \"#utility.yul\":12722:12760   */\n      sub\n        /* \"#utility.yul\":12719:12880   */\n      tag_379\n      jumpi\n        /* \"#utility.yul\":12802:12812   */\n      0x4e487b71\n        /* \"#utility.yul\":12797:12800   */\n      0xe0\n        /* \"#utility.yul\":12793:12813   */\n      shl\n        /* \"#utility.yul\":12790:12791   */\n      0x00\n        /* \"#utility.yul\":12783:12814   */\n      mstore\n        /* \"#utility.yul\":12837:12841   */\n      0x22\n        /* \"#utility.yul\":12834:12835   */\n      0x04\n        /* \"#utility.yul\":12827:12842   */\n      mstore\n        /* \"#utility.yul\":12865:12869   */\n      0x24\n        /* \"#utility.yul\":12862:12863   */\n      0x00\n        /* \"#utility.yul\":12855:12870   */\n      revert\n        /* \"#utility.yul\":12719:12880   */\n    tag_379:\n      pop\n        /* \"#utility.yul\":12506:12886   */\n      swap2\n      swap1\n      pop\n      jump\t// out\n        /* \"#utility.yul\":13017:13535   */\n    tag_262:\n        /* \"#utility.yul\":13119:13121   */\n      0x1f\n        /* \"#utility.yul\":13114:13117   */\n      dup3\n        /* \"#utility.yul\":13111:13122   */\n      gt\n        /* \"#utility.yul\":13108:13529   */\n      iszero\n      tag_382\n      jumpi\n        /* \"#utility.yul\":13155:13160   */\n      dup1\n        /* \"#utility.yul\":13152:13153   */\n      0x00\n        /* \"#utility.yul\":13145:13161   */\n      mstore\n        /* \"#utility.yul\":13199:13203   */\n      0x20\n        /* \"#utility.yul\":13196:13197   */\n      0x00\n        /* \"#utility.yul\":13186:13204   */\n      keccak256\n        /* \"#utility.yul\":13269:13271   */\n      0x1f\n        /* \"#utility.yul\":13257:13267   */\n      dup5\n        /* \"#utility.yul\":13253:13272   */\n      add\n        /* \"#utility.yul\":13250:13251   */\n      0x05\n        /* \"#utility.yul\":13246:13273   */\n      shr\n        /* \"#utility.yul\":13240:13244   */\n      dup2\n        /* \"#utility.yul\":13236:13274   */\n      add\n        /* \"#utility.yul\":13305:13309   */\n      0x20\n        /* \"#utility.yul\":13293:13303   */\n      dup6\n        /* \"#utility.yul\":13290:13310   */\n      lt\n        /* \"#utility.yul\":13287:13334   */\n      iszero\n      tag_383\n      jumpi\n      pop\n        /* \"#utility.yul\":13328:13332   */\n      dup1\n        /* \"#utility.yul\":13287:13334   */\n    tag_383:\n        /* \"#utility.yul\":13383:13385   */\n      0x1f\n        /* \"#utility.yul\":13378:13381   */\n      dup5\n        /* \"#utility.yul\":13374:13386   */\n      add\n        /* \"#utility.yul\":13371:13372   */\n      0x05\n        /* \"#utility.yul\":13367:13387   */\n      shr\n        /* \"#utility.yul\":13361:13365   */\n      dup3\n        /* \"#utility.yul\":13357:13388   */\n      add\n        /* \"#utility.yul\":13347:13388   */\n      swap2\n      pop\n        /* \"#utility.yul\":13438:13519   */\n    tag_384:\n        /* \"#utility.yul\":13456:13458   */\n      dup2\n        /* \"#utility.yul\":13449:13454   */\n      dup2\n        /* \"#utility.yul\":13446:13459   */\n      lt\n        /* \"#utility.yul\":13438:13519   */\n      iszero\n      tag_386\n      jumpi\n        /* \"#utility.yul\":13515:13516   */\n      0x00\n        /* \"#utility.yul\":13501:13517   */\n      dup2\n      sstore\n        /* \"#utility.yul\":13482:13483   */\n      0x01\n        /* \"#utility.yul\":13471:13484   */\n      add\n        /* \"#utility.yul\":13438:13519   */\n      jump(tag_384)\n    tag_386:\n        /* \"#utility.yul\":13442:13445   */\n      pop\n      pop\n        /* \"#utility.yul\":13108:13529   */\n    tag_382:\n        /* \"#utility.yul\":13017:13535   */\n      pop\n      pop\n      pop\n      jump\t// out\n        /* \"#utility.yul\":13711:15010   */\n    tag_89:\n        /* \"#utility.yul\":13837:13840   */\n      dup2\n        /* \"#utility.yul\":13831:13841   */\n      mload\n      sub(shl(0x40, 0x01), 0x01)\n        /* \"#utility.yul\":13856:13862   */\n      dup2\n        /* \"#utility.yul\":13853:13883   */\n      gt\n        /* \"#utility.yul\":13850:13906   */\n      iszero\n      tag_390\n      jumpi\n        /* \"#utility.yul\":13886:13904   */\n      tag_390\n      tag_251\n      jump\t// in\n    tag_390:\n        /* \"#utility.yul\":13915:14012   */\n      tag_391\n        /* \"#utility.yul\":14005:14011   */\n      dup2\n        /* \"#utility.yul\":13965:14003   */\n      tag_392\n        /* \"#utility.yul\":13997:14001   */\n      dup5\n        /* \"#utility.yul\":13991:14002   */\n      sload\n        /* \"#utility.yul\":13965:14003   */\n      tag_116\n      jump\t// in\n    tag_392:\n        /* \"#utility.yul\":13959:13963   */\n      dup5\n        /* \"#utility.yul\":13915:14012   */\n      tag_262\n      jump\t// in\n    tag_391:\n        /* \"#utility.yul\":14061:14065   */\n      0x20\n        /* \"#utility.yul\":14092:14094   */\n      0x1f\n        /* \"#utility.yul\":14081:14095   */\n      dup3\n      gt\n        /* \"#utility.yul\":14109:14110   */\n      0x01\n        /* \"#utility.yul\":14104:14753   */\n      dup2\n      eq\n      tag_394\n      jumpi\n        /* \"#utility.yul\":14797:14798   */\n      0x00\n        /* \"#utility.yul\":14814:14820   */\n      dup4\n        /* \"#utility.yul\":14811:14900   */\n      iszero\n      tag_395\n      jumpi\n      pop\n        /* \"#utility.yul\":14866:14885   */\n      dup5\n      dup3\n      add\n        /* \"#utility.yul\":14860:14886   */\n      mload\n        /* \"#utility.yul\":14811:14900   */\n    tag_395:\n      not(0x00)\n        /* \"#utility.yul\":13668:13669   */\n      0x03\n        /* \"#utility.yul\":13664:13675   */\n      dup6\n      swap1\n      shl\n        /* \"#utility.yul\":13660:13684   */\n      shr\n        /* \"#utility.yul\":13656:13685   */\n      not\n        /* \"#utility.yul\":13646:13686   */\n      and\n        /* \"#utility.yul\":13692:13693   */\n      0x01\n        /* \"#utility.yul\":13688:13699   */\n      dup5\n      swap1\n      shl\n        /* \"#utility.yul\":13643:13700   */\n      or\n        /* \"#utility.yul\":14913:14994   */\n      dup5\n      sstore\n        /* \"#utility.yul\":14074:15004   */\n      jump(tag_386)\n        /* \"#utility.yul\":14104:14753   */\n    tag_394:\n        /* \"#utility.yul\":12964:12965   */\n      0x00\n        /* \"#utility.yul\":12957:12971   */\n      dup5\n      dup2\n      mstore\n        /* \"#utility.yul\":13001:13005   */\n      0x20\n        /* \"#utility.yul\":12988:13006   */\n      dup2\n      keccak256\n      not(0x1f)\n        /* \"#utility.yul\":14140:14160   */\n      dup6\n      and\n      swap2\n        /* \"#utility.yul\":14258:14480   */\n    tag_398:\n        /* \"#utility.yul\":14272:14279   */\n      dup3\n        /* \"#utility.yul\":14269:14270   */\n      dup2\n        /* \"#utility.yul\":14266:14280   */\n      lt\n        /* \"#utility.yul\":14258:14480   */\n      iszero\n      tag_400\n      jumpi\n        /* \"#utility.yul\":14354:14373   */\n      dup8\n      dup6\n      add\n        /* \"#utility.yul\":14348:14374   */\n      mload\n        /* \"#utility.yul\":14333:14375   */\n      dup3\n      sstore\n        /* \"#utility.yul\":14461:14465   */\n      0x20\n        /* \"#utility.yul\":14446:14466   */\n      swap5\n      dup6\n      add\n      swap5\n        /* \"#utility.yul\":14414:14415   */\n      0x01\n        /* \"#utility.yul\":14402:14416   */\n      swap1\n      swap3\n      add\n      swap2\n        /* \"#utility.yul\":14288:14300   */\n      add\n        /* \"#utility.yul\":14258:14480   */\n      jump(tag_398)\n    tag_400:\n        /* \"#utility.yul\":14262:14265   */\n      pop\n        /* \"#utility.yul\":14508:14514   */\n      dup5\n        /* \"#utility.yul\":14499:14506   */\n      dup3\n        /* \"#utility.yul\":14496:14515   */\n      lt\n        /* \"#utility.yul\":14493:14694   */\n      iszero\n      tag_401\n      jumpi\n        /* \"#utility.yul\":14569:14588   */\n      dup7\n      dup5\n      add\n        /* \"#utility.yul\":14563:14589   */\n      mload\n      not(0x00)\n        /* \"#utility.yul\":14652:14653   */\n      0x03\n        /* \"#utility.yul\":14648:14662   */\n      dup8\n      swap1\n      shl\n        /* \"#utility.yul\":14664:14667   */\n      0xf8\n        /* \"#utility.yul\":14644:14668   */\n      and\n        /* \"#utility.yul\":14640:14677   */\n      shr\n        /* \"#utility.yul\":14636:14678   */\n      not\n        /* \"#utility.yul\":14621:14679   */\n      and\n        /* \"#utility.yul\":14606:14680   */\n      dup2\n      sstore\n        /* \"#utility.yul\":14493:14694   */\n    tag_401:\n      pop\n      pop\n      pop\n      pop\n        /* \"#utility.yul\":14740:14741   */\n      0x01\n        /* \"#utility.yul\":14724:14738   */\n      swap1\n      dup2\n      shl\n        /* \"#utility.yul\":14720:14742   */\n      add\n        /* \"#utility.yul\":14707:14743   */\n      swap1\n      sstore\n      pop\n        /* \"#utility.yul\":13711:15010   */\n      jump\t// out\n        /* \"#utility.yul\":15015:15142   */\n    tag_264:\n        /* \"#utility.yul\":15076:15086   */\n      0x4e487b71\n        /* \"#utility.yul\":15071:15074   */\n      0xe0\n        /* \"#utility.yul\":15067:15087   */\n      shl\n        /* \"#utility.yul\":15064:15065   */\n      0x00\n        /* \"#utility.yul\":15057:15088   */\n      mstore\n        /* \"#utility.yul\":15107:15111   */\n      0x11\n        /* \"#utility.yul\":15104:15105   */\n      0x04\n        /* \"#utility.yul\":15097:15112   */\n      mstore\n        /* \"#utility.yul\":15131:15135   */\n      0x24\n        /* \"#utility.yul\":15128:15129   */\n      0x00\n        /* \"#utility.yul\":15121:15136   */\n      revert\n        /* \"#utility.yul\":15147:15282   */\n    tag_91:\n        /* \"#utility.yul\":15186:15189   */\n      0x00\n        /* \"#utility.yul\":15207:15224   */\n      0x01\n      dup3\n      add\n        /* \"#utility.yul\":15204:15247   */\n      tag_405\n      jumpi\n        /* \"#utility.yul\":15227:15245   */\n      tag_405\n      tag_264\n      jump\t// in\n    tag_405:\n      pop\n        /* \"#utility.yul\":15274:15275   */\n      0x01\n        /* \"#utility.yul\":15263:15276   */\n      add\n      swap1\n        /* \"#utility.yul\":15147:15282   */\n      jump\t// out\n        /* \"#utility.yul\":15287:15642   */\n    tag_95:\n        /* \"#utility.yul\":15489:15491   */\n      0x20\n        /* \"#utility.yul\":15471:15492   */\n      dup1\n      dup3\n      mstore\n        /* \"#utility.yul\":15528:15530   */\n      0x1f\n        /* \"#utility.yul\":15508:15526   */\n      swap1\n      dup3\n      add\n        /* \"#utility.yul\":15501:15531   */\n      mstore\n        /* \"#utility.yul\":15567:15600   */\n      0x4f6e6c792044414f2063616e2063616c6c20746869732066756e6374696f6e00\n        /* \"#utility.yul\":15562:15564   */\n      0x40\n        /* \"#utility.yul\":15547:15565   */\n      dup3\n      add\n        /* \"#utility.yul\":15540:15601   */\n      mstore\n        /* \"#utility.yul\":15633:15635   */\n      0x60\n        /* \"#utility.yul\":15618:15636   */\n      add\n      swap1\n        /* \"#utility.yul\":15287:15642   */\n      jump\t// out\n        /* \"#utility.yul\":15647:15774   */\n    tag_102:\n        /* \"#utility.yul\":15708:15718   */\n      0x4e487b71\n        /* \"#utility.yul\":15703:15706   */\n      0xe0\n        /* \"#utility.yul\":15699:15719   */\n      shl\n        /* \"#utility.yul\":15696:15697   */\n      0x00\n        /* \"#utility.yul\":15689:15720   */\n      mstore\n        /* \"#utility.yul\":15739:15743   */\n      0x32\n        /* \"#utility.yul\":15736:15737   */\n      0x04\n        /* \"#utility.yul\":15729:15744   */\n      mstore\n        /* \"#utility.yul\":15763:15767   */\n      0x24\n        /* \"#utility.yul\":15760:15761   */\n      0x00\n        /* \"#utility.yul\":15753:15768   */\n      revert\n        /* \"#utility.yul\":16475:16603   */\n    tag_192:\n        /* \"#utility.yul\":16542:16551   */\n      dup2\n      dup2\n      sub\n        /* \"#utility.yul\":16563:16574   */\n      dup2\n      dup2\n      gt\n        /* \"#utility.yul\":16560:16597   */\n      iszero\n      tag_412\n      jumpi\n        /* \"#utility.yul\":16577:16595   */\n      tag_412\n      tag_264\n      jump\t// in\n    tag_412:\n        /* \"#utility.yul\":16475:16603   */\n      swap3\n      swap2\n      pop\n      pop\n      jump\t// out\n        /* \"#utility.yul\":16608:16735   */\n    tag_201:\n        /* \"#utility.yul\":16669:16679   */\n      0x4e487b71\n        /* \"#utility.yul\":16664:16667   */\n      0xe0\n        /* \"#utility.yul\":16660:16680   */\n      shl\n        /* \"#utility.yul\":16657:16658   */\n      0x00\n        /* \"#utility.yul\":16650:16681   */\n      mstore\n        /* \"#utility.yul\":16700:16704   */\n      0x31\n        /* \"#utility.yul\":16697:16698   */\n      0x04\n        /* \"#utility.yul\":16690:16705   */\n      mstore\n        /* \"#utility.yul\":16724:16728   */\n      0x24\n        /* \"#utility.yul\":16721:16722   */\n      0x00\n        /* \"#utility.yul\":16714:16729   */\n      revert\n\n    auxdata: 0xa2646970667358221220fc3324f6d976bf63a4293cc72599f51603f6d28ff9317f8a68a25a7e3c2734e264736f6c634300081c0033\n}\n",
				"bytecode": {
					"linkReferences": {},
					"object": "60806040526003600755348015601457600080fd5b50604051611b05380380611b058339810160408190526031916055565b600080546001600160a01b0319166001600160a01b03929092169190911790556083565b600060208284031215606657600080fd5b81516001600160a01b0381168114607c57600080fd5b9392505050565b611a73806100926000396000f3fe608060405234801561001057600080fd5b50600436106100f55760003560e01c806367c2f3e1116100975780639e4ffd54116100665780639e4ffd541461021a578063add6beaf14610255578063d2ffdcdd14610268578063db144d011461027b57600080fd5b806367c2f3e1146101c85780637d36f4d3146101eb578063893ebc21146101f457806392db66141461020757600080fd5b80634a7ffcbc116100d35780634a7ffcbc1461013e5780634dea630714610169578063564a565d1461017c5780635b3a8e1c146101a557600080fd5b80630b9abbfa146100fa578063340cadcd1461011657806340db1a791461012b575b600080fd5b61010360075481565b6040519081526020015b60405180910390f35b610129610124366004611203565b610284565b005b61012961013936600461132f565b61040a565b600054610151906001600160a01b031681565b6040516001600160a01b03909116815260200161010d565b61012961017736600461136b565b6104d4565b61018f61018a36600461136b565b610503565b60405161010d9a999897969594939291906113d4565b6101b86101b336600461136b565b6105eb565b60405161010d949392919061143a565b6101db6101d6366004611481565b61072e565b60405161010d94939291906114b5565b61010360065481565b610129610202366004611500565b6108f9565b61012961021536600461136b565b610997565b61010361022836600461158c565b81516020818401810180516002825292820194820194909420919093529091526000908152604090205481565b61012961026336600461158c565b610c76565b61012961027636600461171f565b610e38565b61010360055481565b600754600183604051610297919061182f565b9081526040519081900360200190206001015410156102f15760405162461bcd60e51b81526020600482015260116024820152704f7261636c65206e6f742061637469766560781b60448201526064015b60405180910390fd5b6040805161014081018252858152602080820184815282840187815233606085015260006080850181905260a0850181905260c08501819052600160e086018190524261010087015261012086018890526006548252600490945294909420835181559051918101919091559151909190600282019061037190826118d4565b5060608201516003820180546001600160a01b0319166001600160a01b039092169190911790556080820151600482015560a0820151600582015560c08201516006808301805460e086015161ffff1990911693151561ff0019169390931761010093151584021790559083015160078301556101209092015160089091015580549060006103ff836119a8565b919050555050505050565b6000546001600160a01b031633146104345760405162461bcd60e51b81526004016102e8906119c1565b60005b81518110156104d0576001828281518110610454576104546119f8565b6020026020010151604051610469919061182f565b90815260405190819003602001902060006104848282611079565b6104926001830160006110b6565b6104a0600283016000611079565b6104ae600383016000611079565b60048201600090556005820160006104c691906110b6565b5050600101610437565b5050565b6000546001600160a01b031633146104fe5760405162461bcd60e51b81526004016102e8906119c1565b600755565b6004602052600090815260409020805460018201546002830180549293919261052b9061184b565b80601f01602080910402602001604051908101604052809291908181526020018280546105579061184b565b80156105a45780601f10610579576101008083540402835291602001916105a4565b820191906000526020600020905b81548152906001019060200180831161058757829003601f168201915b5050506003840154600485015460058601546006870154600788015460089098015496976001600160a01b039094169692955090935060ff8082169361010090920416918a565b600360205260009081526040902080546001820180546001600160a01b0390921692916106179061184b565b80601f01602080910402602001604051908101604052809291908181526020018280546106439061184b565b80156106905780601f1061066557610100808354040283529160200191610690565b820191906000526020600020905b81548152906001019060200180831161067357829003601f168201915b5050505050908060020154908060030180546106ab9061184b565b80601f01602080910402602001604051908101604052809291908181526020018280546106d79061184b565b80156107245780601f106106f957610100808354040283529160200191610724565b820191906000526020600020905b81548152906001019060200180831161070757829003601f168201915b5050505050905084565b80516020818301810180516001825292820191909301209152805481906107549061184b565b80601f01602080910402602001604051908101604052809291908181526020018280546107809061184b565b80156107cd5780601f106107a2576101008083540402835291602001916107cd565b820191906000526020600020905b8154815290600101906020018083116107b057829003601f168201915b5050505050908060020180546107e29061184b565b80601f016020809104026020016040519081016040528092919081815260200182805461080e9061184b565b801561085b5780601f106108305761010080835404028352916020019161085b565b820191906000526020600020905b81548152906001019060200180831161083e57829003601f168201915b5050505050908060030180546108709061184b565b80601f016020809104026020016040519081016040528092919081815260200182805461089c9061184b565b80156108e95780601f106108be576101008083540402835291602001916108e9565b820191906000526020600020905b8154815290600101906020018083116108cc57829003601f168201915b5050505050908060040154905084565b6040805160808101825233815260208082018681528284018690526060830185905260055460009081526003909252929020815181546001600160a01b0319166001600160a01b039091161781559151909190600182019061095b90826118d4565b50604082015160028201556060820151600382019061097a90826118d4565b5050600580549150600061098d836119a8565b9190505550505050565b6000546001600160a01b031633146109c15760405162461bcd60e51b81526004016102e8906119c1565b6005548110610a0b5760405162461bcd60e51b8152602060048201526016602482015275125b9d985b1a5908185c1c1b1a58d85d1a5bdb88125160521b60448201526064016102e8565b600081815260036020908152604080832081516080810190925280546001600160a01b031682526001810180549293919291840191610a499061184b565b80601f0160208091040260200160405190810160405280929190818152602001828054610a759061184b565b8015610ac25780601f10610a9757610100808354040283529160200191610ac2565b820191906000526020600020905b815481529060010190602001808311610aa557829003601f168201915b5050505050815260200160028201548152602001600382018054610ae59061184b565b80601f0160208091040260200160405190810160405280929190818152602001828054610b119061184b565b8015610b5e5780601f10610b3357610100808354040283529160200191610b5e565b820191906000526020600020905b815481529060010190602001808311610b4157829003601f168201915b5050505050815250509050600060018260600151604051610b7f919061182f565b9081526040519081900360200190208054610b999061184b565b905011610bdb5760405162461bcd60e51b815260206004820152601060248201526f13dc9858db19481b9bdd08199bdd5b9960821b60448201526064016102e8565b60018160600151604051610bef919061182f565b90815260405160209181900382018120835160059091018054600181018255600091825293902090920180546001600160a01b0319166001600160a01b039093169290921790915560608201514291600291610c4a9161182f565b908152604080516020928190038301902093516001600160a01b03166000908152939091529091205550565b6000546001600160a01b03163314610ca05760405162461bcd60e51b81526004016102e8906119c1565b6000600183604051610cb2919061182f565b9081526040519081900360200190208054610ccc9061184b565b905011610d0e5760405162461bcd60e51b815260206004820152601060248201526f13dc9858db19481b9bdd08199bdd5b9960821b60448201526064016102e8565b6000600183604051610d20919061182f565b9081526020016040518091039020600101905060005b8154811015610e3257826001600160a01b0316828281548110610d5b57610d5b6119f8565b6000918252602090912001546001600160a01b031603610e2a5781548290610d8590600190611a0e565b81548110610d9557610d956119f8565b9060005260206000200160009054906101000a90046001600160a01b0316828281548110610dc557610dc56119f8565b9060005260206000200160006101000a8154816001600160a01b0302191690836001600160a01b0316021790555081805480610e0357610e03611a27565b600082815260209020810160001990810180546001600160a01b0319169055019055610e32565b600101610d36565b50505050565b6000546001600160a01b03163314610e625760405162461bcd60e51b81526004016102e8906119c1565b84518651148015610e74575083518651145b8015610e81575082518651145b8015610e8e575081518651145b8015610e9b575080518651145b610ee75760405162461bcd60e51b815260206004820152601860248201527f4172726179206c656e67746873206d757374206d61746368000000000000000060448201526064016102e8565b60005b8651811015611070576040518060c00160405280888381518110610f1057610f106119f8565b60200260200101518152602001878381518110610f2f57610f2f6119f8565b60200260200101518152602001868381518110610f4e57610f4e6119f8565b60200260200101518152602001858381518110610f6d57610f6d6119f8565b60200260200101518152602001848381518110610f8c57610f8c6119f8565b60200260200101518152602001838381518110610fab57610fab6119f8565b60200260200101518152506001888381518110610fca57610fca6119f8565b6020026020010151604051610fdf919061182f565b90815260405190819003602001902081518190610ffc90826118d4565b50602082810151805161101592600185019201906110d4565b506040820151600282019061102a90826118d4565b506060820151600382019061103f90826118d4565b506080820151600482015560a082015180516110659160058401916020909101906110d4565b505050600101610eea565b50505050505050565b5080546110859061184b565b6000825580601f10611095575050565b601f0160209004906000526020600020908101906110b39190611139565b50565b50805460008255906000526020600020908101906110b39190611139565b828054828255906000526020600020908101928215611129579160200282015b8281111561112957825182546001600160a01b0319166001600160a01b039091161782556020909201916001909101906110f4565b50611135929150611139565b5090565b5b80821115611135576000815560010161113a565b634e487b7160e01b600052604160045260246000fd5b604051601f8201601f191681016001600160401b038111828210171561118c5761118c61114e565b604052919050565b600082601f8301126111a557600080fd5b81356001600160401b038111156111be576111be61114e565b6111d1601f8201601f1916602001611164565b8181528460208386010111156111e657600080fd5b816020850160208301376000918101602001919091529392505050565b6000806000806080858703121561121957600080fd5b8435935060208501356001600160401b0381111561123657600080fd5b61124287828801611194565b93505060408501356001600160401b0381111561125e57600080fd5b61126a87828801611194565b949793965093946060013593505050565b60006001600160401b038211156112945761129461114e565b5060051b60200190565b600082601f8301126112af57600080fd5b81356112c26112bd8261127b565b611164565b8082825260208201915060208360051b8601019250858311156112e457600080fd5b602085015b838110156113255780356001600160401b0381111561130757600080fd5b611316886020838a0101611194565b845250602092830192016112e9565b5095945050505050565b60006020828403121561134157600080fd5b81356001600160401b0381111561135757600080fd5b6113638482850161129e565b949350505050565b60006020828403121561137d57600080fd5b5035919050565b60005b8381101561139f578181015183820152602001611387565b50506000910152565b600081518084526113c0816020860160208601611384565b601f01601f19169290920160200192915050565b8a8152896020820152610140604082015260006113f561014083018b6113a8565b6001600160a01b0399909916606083015250608081019690965260a086019490945291151560c0850152151560e0840152610100830152610120909101529392505050565b6001600160a01b038516815260806020820181905260009061145e908301866113a8565b846040840152828103606084015261147681856113a8565b979650505050505050565b60006020828403121561149357600080fd5b81356001600160401b038111156114a957600080fd5b61136384828501611194565b6080815260006114c860808301876113a8565b82810360208401526114da81876113a8565b905082810360408401526114ee81866113a8565b91505082606083015295945050505050565b60008060006060848603121561151557600080fd5b83356001600160401b0381111561152b57600080fd5b61153786828701611194565b9350506020840135915060408401356001600160401b0381111561155a57600080fd5b61156686828701611194565b9150509250925092565b80356001600160a01b038116811461158757600080fd5b919050565b6000806040838503121561159f57600080fd5b82356001600160401b038111156115b557600080fd5b6115c185828601611194565b9250506115d060208401611570565b90509250929050565b600082601f8301126115ea57600080fd5b81356115f86112bd8261127b565b8082825260208201915060208360051b86010192508583111561161a57600080fd5b602085015b838110156113255780356001600160401b0381111561163d57600080fd5b8601603f8101881361164e57600080fd5b602081013561165f6112bd8261127b565b808282526020820191506020808460051b8601010192508a83111561168357600080fd5b6040840193505b828410156116ac5761169b84611570565b82526020938401939091019061168a565b8652505060209384019391909101905061161f565b600082601f8301126116d257600080fd5b81356116e06112bd8261127b565b8082825260208201915060208360051b86010192508583111561170257600080fd5b602085015b83811015611325578035835260209283019201611707565b60008060008060008060c0878903121561173857600080fd5b86356001600160401b0381111561174e57600080fd5b61175a89828a0161129e565b96505060208701356001600160401b0381111561177657600080fd5b61178289828a016115d9565b95505060408701356001600160401b0381111561179e57600080fd5b6117aa89828a0161129e565b94505060608701356001600160401b038111156117c657600080fd5b6117d289828a0161129e565b93505060808701356001600160401b038111156117ee57600080fd5b6117fa89828a016116c1565b92505060a08701356001600160401b0381111561181657600080fd5b61182289828a016115d9565b9150509295509295509295565b60008251611841818460208701611384565b9190910192915050565b600181811c9082168061185f57607f821691505b60208210810361187f57634e487b7160e01b600052602260045260246000fd5b50919050565b601f8211156118cf57806000526020600020601f840160051c810160208510156118ac5750805b601f840160051c820191505b818110156118cc57600081556001016118b8565b50505b505050565b81516001600160401b038111156118ed576118ed61114e565b611901816118fb845461184b565b84611885565b6020601f821160018114611935576000831561191d5750848201515b600019600385901b1c1916600184901b1784556118cc565b600084815260208120601f198516915b828110156119655787850151825560209485019460019092019101611945565b50848210156119835786840151600019600387901b60f8161c191681555b50505050600190811b01905550565b634e487b7160e01b600052601160045260246000fd5b6000600182016119ba576119ba611992565b5060010190565b6020808252601f908201527f4f6e6c792044414f2063616e2063616c6c20746869732066756e6374696f6e00604082015260600190565b634e487b7160e01b600052603260045260246000fd5b81810381811115611a2157611a21611992565b92915050565b634e487b7160e01b600052603160045260246000fdfea2646970667358221220fc3324f6d976bf63a4293cc72599f51603f6d28ff9317f8a68a25a7e3c2734e264736f6c634300081c0033",
					"opcodes": "PUSH1 0x80 PUSH1 0x40 MSTORE PUSH1 0x3 PUSH1 0x7 SSTORE CALLVALUE DUP1 ISZERO PUSH1 0x14 JUMPI PUSH1 0x0 DUP1 REVERT JUMPDEST POP PUSH1 0x40 MLOAD PUSH2 0x1B05 CODESIZE SUB DUP1 PUSH2 0x1B05 DUP4 CODECOPY DUP2 ADD PUSH1 0x40 DUP2 SWAP1 MSTORE PUSH1 0x31 SWAP2 PUSH1 0x55 JUMP JUMPDEST PUSH1 0x0 DUP1 SLOAD PUSH1 0x1 PUSH1 0x1 PUSH1 0xA0 SHL SUB NOT AND PUSH1 0x1 PUSH1 0x1 PUSH1 0xA0 SHL SUB SWAP3 SWAP1 SWAP3 AND SWAP2 SWAP1 SWAP2 OR SWAP1 SSTORE PUSH1 0x83 JUMP JUMPDEST PUSH1 0x0 PUSH1 0x20 DUP3 DUP5 SUB SLT ISZERO PUSH1 0x66 JUMPI PUSH1 0x0 DUP1 REVERT JUMPDEST DUP2 MLOAD PUSH1 0x1 PUSH1 0x1 PUSH1 0xA0 SHL SUB DUP2 AND DUP2 EQ PUSH1 0x7C JUMPI PUSH1 0x0 DUP1 REVERT JUMPDEST SWAP4 SWAP3 POP POP POP JUMP JUMPDEST PUSH2 0x1A73 DUP1 PUSH2 0x92 PUSH1 0x0 CODECOPY PUSH1 0x0 RETURN INVALID PUSH1 0x80 PUSH1 0x40 MSTORE CALLVALUE DUP1 ISZERO PUSH2 0x10 JUMPI PUSH1 0x0 DUP1 REVERT JUMPDEST POP PUSH1 0x4 CALLDATASIZE LT PUSH2 0xF5 JUMPI PUSH1 0x0 CALLDATALOAD PUSH1 0xE0 SHR DUP1 PUSH4 0x67C2F3E1 GT PUSH2 0x97 JUMPI DUP1 PUSH4 0x9E4FFD54 GT PUSH2 0x66 JUMPI DUP1 PUSH4 0x9E4FFD54 EQ PUSH2 0x21A JUMPI DUP1 PUSH4 0xADD6BEAF EQ PUSH2 0x255 JUMPI DUP1 PUSH4 0xD2FFDCDD EQ PUSH2 0x268 JUMPI DUP1 PUSH4 0xDB144D01 EQ PUSH2 0x27B JUMPI PUSH1 0x0 DUP1 REVERT JUMPDEST DUP1 PUSH4 0x67C2F3E1 EQ PUSH2 0x1C8 JUMPI DUP1 PUSH4 0x7D36F4D3 EQ PUSH2 0x1EB JUMPI DUP1 PUSH4 0x893EBC21 EQ PUSH2 0x1F4 JUMPI DUP1 PUSH4 0x92DB6614 EQ PUSH2 0x207 JUMPI PUSH1 0x0 DUP1 REVERT JUMPDEST DUP1 PUSH4 0x4A7FFCBC GT PUSH2 0xD3 JUMPI DUP1 PUSH4 0x4A7FFCBC EQ PUSH2 0x13E JUMPI DUP1 PUSH4 0x4DEA6307 EQ PUSH2 0x169 JUMPI DUP1 PUSH4 0x564A565D EQ PUSH2 0x17C JUMPI DUP1 PUSH4 0x5B3A8E1C EQ PUSH2 0x1A5 JUMPI PUSH1 0x0 DUP1 REVERT JUMPDEST DUP1 PUSH4 0xB9ABBFA EQ PUSH2 0xFA JUMPI DUP1 PUSH4 0x340CADCD EQ PUSH2 0x116 JUMPI DUP1 PUSH4 0x40DB1A79 EQ PUSH2 0x12B JUMPI JUMPDEST PUSH1 0x0 DUP1 REVERT JUMPDEST PUSH2 0x103 PUSH1 0x7 SLOAD DUP2 JUMP JUMPDEST PUSH1 0x40 MLOAD SWAP1 DUP2 MSTORE PUSH1 0x20 ADD JUMPDEST PUSH1 0x40 MLOAD DUP1 SWAP2 SUB SWAP1 RETURN JUMPDEST PUSH2 0x129 PUSH2 0x124 CALLDATASIZE PUSH1 0x4 PUSH2 0x1203 JUMP JUMPDEST PUSH2 0x284 JUMP JUMPDEST STOP JUMPDEST PUSH2 0x129 PUSH2 0x139 CALLDATASIZE PUSH1 0x4 PUSH2 0x132F JUMP JUMPDEST PUSH2 0x40A JUMP JUMPDEST PUSH1 0x0 SLOAD PUSH2 0x151 SWAP1 PUSH1 0x1 PUSH1 0x1 PUSH1 0xA0 SHL SUB AND DUP2 JUMP JUMPDEST PUSH1 0x40 MLOAD PUSH1 0x1 PUSH1 0x1 PUSH1 0xA0 SHL SUB SWAP1 SWAP2 AND DUP2 MSTORE PUSH1 0x20 ADD PUSH2 0x10D JUMP JUMPDEST PUSH2 0x129 PUSH2 0x177 CALLDATASIZE PUSH1 0x4 PUSH2 0x136B JUMP JUMPDEST PUSH2 0x4D4 JUMP JUMPDEST PUSH2 0x18F PUSH2 0x18A CALLDATASIZE PUSH1 0x4 PUSH2 0x136B JUMP JUMPDEST PUSH2 0x503 JUMP JUMPDEST PUSH1 0x40 MLOAD PUSH2 0x10D SWAP11 SWAP10 SWAP9 SWAP8 SWAP7 SWAP6 SWAP5 SWAP4 SWAP3 SWAP2 SWAP1 PUSH2 0x13D4 JUMP JUMPDEST PUSH2 0x1B8 PUSH2 0x1B3 CALLDATASIZE PUSH1 0x4 PUSH2 0x136B JUMP JUMPDEST PUSH2 0x5EB JUMP JUMPDEST PUSH1 0x40 MLOAD PUSH2 0x10D SWAP5 SWAP4 SWAP3 SWAP2 SWAP1 PUSH2 0x143A JUMP JUMPDEST PUSH2 0x1DB PUSH2 0x1D6 CALLDATASIZE PUSH1 0x4 PUSH2 0x1481 JUMP JUMPDEST PUSH2 0x72E JUMP JUMPDEST PUSH1 0x40 MLOAD PUSH2 0x10D SWAP5 SWAP4 SWAP3 SWAP2 SWAP1 PUSH2 0x14B5 JUMP JUMPDEST PUSH2 0x103 PUSH1 0x6 SLOAD DUP2 JUMP JUMPDEST PUSH2 0x129 PUSH2 0x202 CALLDATASIZE PUSH1 0x4 PUSH2 0x1500 JUMP JUMPDEST PUSH2 0x8F9 JUMP JUMPDEST PUSH2 0x129 PUSH2 0x215 CALLDATASIZE PUSH1 0x4 PUSH2 0x136B JUMP JUMPDEST PUSH2 0x997 JUMP JUMPDEST PUSH2 0x103 PUSH2 0x228 CALLDATASIZE PUSH1 0x4 PUSH2 0x158C JUMP JUMPDEST DUP2 MLOAD PUSH1 0x20 DUP2 DUP5 ADD DUP2 ADD DUP1 MLOAD PUSH1 0x2 DUP3 MSTORE SWAP3 DUP3 ADD SWAP5 DUP3 ADD SWAP5 SWAP1 SWAP5 KECCAK256 SWAP2 SWAP1 SWAP4 MSTORE SWAP1 SWAP2 MSTORE PUSH1 0x0 SWAP1 DUP2 MSTORE PUSH1 0x40 SWAP1 KECCAK256 SLOAD DUP2 JUMP JUMPDEST PUSH2 0x129 PUSH2 0x263 CALLDATASIZE PUSH1 0x4 PUSH2 0x158C JUMP JUMPDEST PUSH2 0xC76 JUMP JUMPDEST PUSH2 0x129 PUSH2 0x276 CALLDATASIZE PUSH1 0x4 PUSH2 0x171F JUMP JUMPDEST PUSH2 0xE38 JUMP JUMPDEST PUSH2 0x103 PUSH1 0x5 SLOAD DUP2 JUMP JUMPDEST PUSH1 0x7 SLOAD PUSH1 0x1 DUP4 PUSH1 0x40 MLOAD PUSH2 0x297 SWAP2 SWAP1 PUSH2 0x182F JUMP JUMPDEST SWAP1 DUP2 MSTORE PUSH1 0x40 MLOAD SWAP1 DUP2 SWAP1 SUB PUSH1 0x20 ADD SWAP1 KECCAK256 PUSH1 0x1 ADD SLOAD LT ISZERO PUSH2 0x2F1 JUMPI PUSH1 0x40 MLOAD PUSH3 0x461BCD PUSH1 0xE5 SHL DUP2 MSTORE PUSH1 0x20 PUSH1 0x4 DUP3 ADD MSTORE PUSH1 0x11 PUSH1 0x24 DUP3 ADD MSTORE PUSH17 0x4F7261636C65206E6F7420616374697665 PUSH1 0x78 SHL PUSH1 0x44 DUP3 ADD MSTORE PUSH1 0x64 ADD JUMPDEST PUSH1 0x40 MLOAD DUP1 SWAP2 SUB SWAP1 REVERT JUMPDEST PUSH1 0x40 DUP1 MLOAD PUSH2 0x140 DUP2 ADD DUP3 MSTORE DUP6 DUP2 MSTORE PUSH1 0x20 DUP1 DUP3 ADD DUP5 DUP2 MSTORE DUP3 DUP5 ADD DUP8 DUP2 MSTORE CALLER PUSH1 0x60 DUP6 ADD MSTORE PUSH1 0x0 PUSH1 0x80 DUP6 ADD DUP2 SWAP1 MSTORE PUSH1 0xA0 DUP6 ADD DUP2 SWAP1 MSTORE PUSH1 0xC0 DUP6 ADD DUP2 SWAP1 MSTORE PUSH1 0x1 PUSH1 0xE0 DUP7 ADD DUP2 SWAP1 MSTORE TIMESTAMP PUSH2 0x100 DUP8 ADD MSTORE PUSH2 0x120 DUP7 ADD DUP9 SWAP1 MSTORE PUSH1 0x6 SLOAD DUP3 MSTORE PUSH1 0x4 SWAP1 SWAP5 MSTORE SWAP5 SWAP1 SWAP5 KECCAK256 DUP4 MLOAD DUP2 SSTORE SWAP1 MLOAD SWAP2 DUP2 ADD SWAP2 SWAP1 SWAP2 SSTORE SWAP2 MLOAD SWAP1 SWAP2 SWAP1 PUSH1 0x2 DUP3 ADD SWAP1 PUSH2 0x371 SWAP1 DUP3 PUSH2 0x18D4 JUMP JUMPDEST POP PUSH1 0x60 DUP3 ADD MLOAD PUSH1 0x3 DUP3 ADD DUP1 SLOAD PUSH1 0x1 PUSH1 0x1 PUSH1 0xA0 SHL SUB NOT AND PUSH1 0x1 PUSH1 0x1 PUSH1 0xA0 SHL SUB SWAP1 SWAP3 AND SWAP2 SWAP1 SWAP2 OR SWAP1 SSTORE PUSH1 0x80 DUP3 ADD MLOAD PUSH1 0x4 DUP3 ADD SSTORE PUSH1 0xA0 DUP3 ADD MLOAD PUSH1 0x5 DUP3 ADD SSTORE PUSH1 0xC0 DUP3 ADD MLOAD PUSH1 0x6 DUP1 DUP4 ADD DUP1 SLOAD PUSH1 0xE0 DUP7 ADD MLOAD PUSH2 0xFFFF NOT SWAP1 SWAP2 AND SWAP4 ISZERO ISZERO PUSH2 0xFF00 NOT AND SWAP4 SWAP1 SWAP4 OR PUSH2 0x100 SWAP4 ISZERO ISZERO DUP5 MUL OR SWAP1 SSTORE SWAP1 DUP4 ADD MLOAD PUSH1 0x7 DUP4 ADD SSTORE PUSH2 0x120 SWAP1 SWAP3 ADD MLOAD PUSH1 0x8 SWAP1 SWAP2 ADD SSTORE DUP1 SLOAD SWAP1 PUSH1 0x0 PUSH2 0x3FF DUP4 PUSH2 0x19A8 JUMP JUMPDEST SWAP2 SWAP1 POP SSTORE POP POP POP POP POP JUMP JUMPDEST PUSH1 0x0 SLOAD PUSH1 0x1 PUSH1 0x1 PUSH1 0xA0 SHL SUB AND CALLER EQ PUSH2 0x434 JUMPI PUSH1 0x40 MLOAD PUSH3 0x461BCD PUSH1 0xE5 SHL DUP2 MSTORE PUSH1 0x4 ADD PUSH2 0x2E8 SWAP1 PUSH2 0x19C1 JUMP JUMPDEST PUSH1 0x0 JUMPDEST DUP2 MLOAD DUP2 LT ISZERO PUSH2 0x4D0 JUMPI PUSH1 0x1 DUP3 DUP3 DUP2 MLOAD DUP2 LT PUSH2 0x454 JUMPI PUSH2 0x454 PUSH2 0x19F8 JUMP JUMPDEST PUSH1 0x20 MUL PUSH1 0x20 ADD ADD MLOAD PUSH1 0x40 MLOAD PUSH2 0x469 SWAP2 SWAP1 PUSH2 0x182F JUMP JUMPDEST SWAP1 DUP2 MSTORE PUSH1 0x40 MLOAD SWAP1 DUP2 SWAP1 SUB PUSH1 0x20 ADD SWAP1 KECCAK256 PUSH1 0x0 PUSH2 0x484 DUP3 DUP3 PUSH2 0x1079 JUMP JUMPDEST PUSH2 0x492 PUSH1 0x1 DUP4 ADD PUSH1 0x0 PUSH2 0x10B6 JUMP JUMPDEST PUSH2 0x4A0 PUSH1 0x2 DUP4 ADD PUSH1 0x0 PUSH2 0x1079 JUMP JUMPDEST PUSH2 0x4AE PUSH1 0x3 DUP4 ADD PUSH1 0x0 PUSH2 0x1079 JUMP JUMPDEST PUSH1 0x4 DUP3 ADD PUSH1 0x0 SWAP1 SSTORE PUSH1 0x5 DUP3 ADD PUSH1 0x0 PUSH2 0x4C6 SWAP2 SWAP1 PUSH2 0x10B6 JUMP JUMPDEST POP POP PUSH1 0x1 ADD PUSH2 0x437 JUMP JUMPDEST POP POP JUMP JUMPDEST PUSH1 0x0 SLOAD PUSH1 0x1 PUSH1 0x1 PUSH1 0xA0 SHL SUB AND CALLER EQ PUSH2 0x4FE JUMPI PUSH1 0x40 MLOAD PUSH3 0x461BCD PUSH1 0xE5 SHL DUP2 MSTORE PUSH1 0x4 ADD PUSH2 0x2E8 SWAP1 PUSH2 0x19C1 JUMP JUMPDEST PUSH1 0x7 SSTORE JUMP JUMPDEST PUSH1 0x4 PUSH1 0x20 MSTORE PUSH1 0x0 SWAP1 DUP2 MSTORE PUSH1 0x40 SWAP1 KECCAK256 DUP1 SLOAD PUSH1 0x1 DUP3 ADD SLOAD PUSH1 0x2 DUP4 ADD DUP1 SLOAD SWAP3 SWAP4 SWAP2 SWAP3 PUSH2 0x52B SWAP1 PUSH2 0x184B JUMP JUMPDEST DUP1 PUSH1 0x1F ADD PUSH1 0x20 DUP1 SWAP2 DIV MUL PUSH1 0x20 ADD PUSH1 0x40 MLOAD SWAP1 DUP2 ADD PUSH1 0x40 MSTORE DUP1 SWAP3 SWAP2 SWAP1 DUP2 DUP2 MSTORE PUSH1 0x20 ADD DUP3 DUP1 SLOAD PUSH2 0x557 SWAP1 PUSH2 0x184B JUMP JUMPDEST DUP1 ISZERO PUSH2 0x5A4 JUMPI DUP1 PUSH1 0x1F LT PUSH2 0x579 JUMPI PUSH2 0x100 DUP1 DUP4 SLOAD DIV MUL DUP4 MSTORE SWAP2 PUSH1 0x20 ADD SWAP2 PUSH2 0x5A4 JUMP JUMPDEST DUP3 ADD SWAP2 SWAP1 PUSH1 0x0 MSTORE PUSH1 0x20 PUSH1 0x0 KECCAK256 SWAP1 JUMPDEST DUP2 SLOAD DUP2 MSTORE SWAP1 PUSH1 0x1 ADD SWAP1 PUSH1 0x20 ADD DUP1 DUP4 GT PUSH2 0x587 JUMPI DUP3 SWAP1 SUB PUSH1 0x1F AND DUP3 ADD SWAP2 JUMPDEST POP POP POP PUSH1 0x3 DUP5 ADD SLOAD PUSH1 0x4 DUP6 ADD SLOAD PUSH1 0x5 DUP7 ADD SLOAD PUSH1 0x6 DUP8 ADD SLOAD PUSH1 0x7 DUP9 ADD SLOAD PUSH1 0x8 SWAP1 SWAP9 ADD SLOAD SWAP7 SWAP8 PUSH1 0x1 PUSH1 0x1 PUSH1 0xA0 SHL SUB SWAP1 SWAP5 AND SWAP7 SWAP3 SWAP6 POP SWAP1 SWAP4 POP PUSH1 0xFF DUP1 DUP3 AND SWAP4 PUSH2 0x100 SWAP1 SWAP3 DIV AND SWAP2 DUP11 JUMP JUMPDEST PUSH1 0x3 PUSH1 0x20 MSTORE PUSH1 0x0 SWAP1 DUP2 MSTORE PUSH1 0x40 SWAP1 KECCAK256 DUP1 SLOAD PUSH1 0x1 DUP3 ADD DUP1 SLOAD PUSH1 0x1 PUSH1 0x1 PUSH1 0xA0 SHL SUB SWAP1 SWAP3 AND SWAP3 SWAP2 PUSH2 0x617 SWAP1 PUSH2 0x184B JUMP JUMPDEST DUP1 PUSH1 0x1F ADD PUSH1 0x20 DUP1 SWAP2 DIV MUL PUSH1 0x20 ADD PUSH1 0x40 MLOAD SWAP1 DUP2 ADD PUSH1 0x40 MSTORE DUP1 SWAP3 SWAP2 SWAP1 DUP2 DUP2 MSTORE PUSH1 0x20 ADD DUP3 DUP1 SLOAD PUSH2 0x643 SWAP1 PUSH2 0x184B JUMP JUMPDEST DUP1 ISZERO PUSH2 0x690 JUMPI DUP1 PUSH1 0x1F LT PUSH2 0x665 JUMPI PUSH2 0x100 DUP1 DUP4 SLOAD DIV MUL DUP4 MSTORE SWAP2 PUSH1 0x20 ADD SWAP2 PUSH2 0x690 JUMP JUMPDEST DUP3 ADD SWAP2 SWAP1 PUSH1 0x0 MSTORE PUSH1 0x20 PUSH1 0x0 KECCAK256 SWAP1 JUMPDEST DUP2 SLOAD DUP2 MSTORE SWAP1 PUSH1 0x1 ADD SWAP1 PUSH1 0x20 ADD DUP1 DUP4 GT PUSH2 0x673 JUMPI DUP3 SWAP1 SUB PUSH1 0x1F AND DUP3 ADD SWAP2 JUMPDEST POP POP POP POP POP SWAP1 DUP1 PUSH1 0x2 ADD SLOAD SWAP1 DUP1 PUSH1 0x3 ADD DUP1 SLOAD PUSH2 0x6AB SWAP1 PUSH2 0x184B JUMP JUMPDEST DUP1 PUSH1 0x1F ADD PUSH1 0x20 DUP1 SWAP2 DIV MUL PUSH1 0x20 ADD PUSH1 0x40 MLOAD SWAP1 DUP2 ADD PUSH1 0x40 MSTORE DUP1 SWAP3 SWAP2 SWAP1 DUP2 DUP2 MSTORE PUSH1 0x20 ADD DUP3 DUP1 SLOAD PUSH2 0x6D7 SWAP1 PUSH2 0x184B JUMP JUMPDEST DUP1 ISZERO PUSH2 0x724 JUMPI DUP1 PUSH1 0x1F LT PUSH2 0x6F9 JUMPI PUSH2 0x100 DUP1 DUP4 SLOAD DIV MUL DUP4 MSTORE SWAP2 PUSH1 0x20 ADD SWAP2 PUSH2 0x724 JUMP JUMPDEST DUP3 ADD SWAP2 SWAP1 PUSH1 0x0 MSTORE PUSH1 0x20 PUSH1 0x0 KECCAK256 SWAP1 JUMPDEST DUP2 SLOAD DUP2 MSTORE SWAP1 PUSH1 0x1 ADD SWAP1 PUSH1 0x20 ADD DUP1 DUP4 GT PUSH2 0x707 JUMPI DUP3 SWAP1 SUB PUSH1 0x1F AND DUP3 ADD SWAP2 JUMPDEST POP POP POP POP POP SWAP1 POP DUP5 JUMP JUMPDEST DUP1 MLOAD PUSH1 0x20 DUP2 DUP4 ADD DUP2 ADD DUP1 MLOAD PUSH1 0x1 DUP3 MSTORE SWAP3 DUP3 ADD SWAP2 SWAP1 SWAP4 ADD KECCAK256 SWAP2 MSTORE DUP1 SLOAD DUP2 SWAP1 PUSH2 0x754 SWAP1 PUSH2 0x184B JUMP JUMPDEST DUP1 PUSH1 0x1F ADD PUSH1 0x20 DUP1 SWAP2 DIV MUL PUSH1 0x20 ADD PUSH1 0x40 MLOAD SWAP1 DUP2 ADD PUSH1 0x40 MSTORE DUP1 SWAP3 SWAP2 SWAP1 DUP2 DUP2 MSTORE PUSH1 0x20 ADD DUP3 DUP1 SLOAD PUSH2 0x780 SWAP1 PUSH2 0x184B JUMP JUMPDEST DUP1 ISZERO PUSH2 0x7CD JUMPI DUP1 PUSH1 0x1F LT PUSH2 0x7A2 JUMPI PUSH2 0x100 DUP1 DUP4 SLOAD DIV MUL DUP4 MSTORE SWAP2 PUSH1 0x20 ADD SWAP2 PUSH2 0x7CD JUMP JUMPDEST DUP3 ADD SWAP2 SWAP1 PUSH1 0x0 MSTORE PUSH1 0x20 PUSH1 0x0 KECCAK256 SWAP1 JUMPDEST DUP2 SLOAD DUP2 MSTORE SWAP1 PUSH1 0x1 ADD SWAP1 PUSH1 0x20 ADD DUP1 DUP4 GT PUSH2 0x7B0 JUMPI DUP3 SWAP1 SUB PUSH1 0x1F AND DUP3 ADD SWAP2 JUMPDEST POP POP POP POP POP SWAP1 DUP1 PUSH1 0x2 ADD DUP1 SLOAD PUSH2 0x7E2 SWAP1 PUSH2 0x184B JUMP JUMPDEST DUP1 PUSH1 0x1F ADD PUSH1 0x20 DUP1 SWAP2 DIV MUL PUSH1 0x20 ADD PUSH1 0x40 MLOAD SWAP1 DUP2 ADD PUSH1 0x40 MSTORE DUP1 SWAP3 SWAP2 SWAP1 DUP2 DUP2 MSTORE PUSH1 0x20 ADD DUP3 DUP1 SLOAD PUSH2 0x80E SWAP1 PUSH2 0x184B JUMP JUMPDEST DUP1 ISZERO PUSH2 0x85B JUMPI DUP1 PUSH1 0x1F LT PUSH2 0x830 JUMPI PUSH2 0x100 DUP1 DUP4 SLOAD DIV MUL DUP4 MSTORE SWAP2 PUSH1 0x20 ADD SWAP2 PUSH2 0x85B JUMP JUMPDEST DUP3 ADD SWAP2 SWAP1 PUSH1 0x0 MSTORE PUSH1 0x20 PUSH1 0x0 KECCAK256 SWAP1 JUMPDEST DUP2 SLOAD DUP2 MSTORE SWAP1 PUSH1 0x1 ADD SWAP1 PUSH1 0x20 ADD DUP1 DUP4 GT PUSH2 0x83E JUMPI DUP3 SWAP1 SUB PUSH1 0x1F AND DUP3 ADD SWAP2 JUMPDEST POP POP POP POP POP SWAP1 DUP1 PUSH1 0x3 ADD DUP1 SLOAD PUSH2 0x870 SWAP1 PUSH2 0x184B JUMP JUMPDEST DUP1 PUSH1 0x1F ADD PUSH1 0x20 DUP1 SWAP2 DIV MUL PUSH1 0x20 ADD PUSH1 0x40 MLOAD SWAP1 DUP2 ADD PUSH1 0x40 MSTORE DUP1 SWAP3 SWAP2 SWAP1 DUP2 DUP2 MSTORE PUSH1 0x20 ADD DUP3 DUP1 SLOAD PUSH2 0x89C SWAP1 PUSH2 0x184B JUMP JUMPDEST DUP1 ISZERO PUSH2 0x8E9 JUMPI DUP1 PUSH1 0x1F LT PUSH2 0x8BE JUMPI PUSH2 0x100 DUP1 DUP4 SLOAD DIV MUL DUP4 MSTORE SWAP2 PUSH1 0x20 ADD SWAP2 PUSH2 0x8E9 JUMP JUMPDEST DUP3 ADD SWAP2 SWAP1 PUSH1 0x0 MSTORE PUSH1 0x20 PUSH1 0x0 KECCAK256 SWAP1 JUMPDEST DUP2 SLOAD DUP2 MSTORE SWAP1 PUSH1 0x1 ADD SWAP1 PUSH1 0x20 ADD DUP1 DUP4 GT PUSH2 0x8CC JUMPI DUP3 SWAP1 SUB PUSH1 0x1F AND DUP3 ADD SWAP2 JUMPDEST POP POP POP POP POP SWAP1 DUP1 PUSH1 0x4 ADD SLOAD SWAP1 POP DUP5 JUMP JUMPDEST PUSH1 0x40 DUP1 MLOAD PUSH1 0x80 DUP2 ADD DUP3 MSTORE CALLER DUP2 MSTORE PUSH1 0x20 DUP1 DUP3 ADD DUP7 DUP2 MSTORE DUP3 DUP5 ADD DUP7 SWAP1 MSTORE PUSH1 0x60 DUP4 ADD DUP6 SWAP1 MSTORE PUSH1 0x5 SLOAD PUSH1 0x0 SWAP1 DUP2 MSTORE PUSH1 0x3 SWAP1 SWAP3 MSTORE SWAP3 SWAP1 KECCAK256 DUP2 MLOAD DUP2 SLOAD PUSH1 0x1 PUSH1 0x1 PUSH1 0xA0 SHL SUB NOT AND PUSH1 0x1 PUSH1 0x1 PUSH1 0xA0 SHL SUB SWAP1 SWAP2 AND OR DUP2 SSTORE SWAP2 MLOAD SWAP1 SWAP2 SWAP1 PUSH1 0x1 DUP3 ADD SWAP1 PUSH2 0x95B SWAP1 DUP3 PUSH2 0x18D4 JUMP JUMPDEST POP PUSH1 0x40 DUP3 ADD MLOAD PUSH1 0x2 DUP3 ADD SSTORE PUSH1 0x60 DUP3 ADD MLOAD PUSH1 0x3 DUP3 ADD SWAP1 PUSH2 0x97A SWAP1 DUP3 PUSH2 0x18D4 JUMP JUMPDEST POP POP PUSH1 0x5 DUP1 SLOAD SWAP2 POP PUSH1 0x0 PUSH2 0x98D DUP4 PUSH2 0x19A8 JUMP JUMPDEST SWAP2 SWAP1 POP SSTORE POP POP POP POP JUMP JUMPDEST PUSH1 0x0 SLOAD PUSH1 0x1 PUSH1 0x1 PUSH1 0xA0 SHL SUB AND CALLER EQ PUSH2 0x9C1 JUMPI PUSH1 0x40 MLOAD PUSH3 0x461BCD PUSH1 0xE5 SHL DUP2 MSTORE PUSH1 0x4 ADD PUSH2 0x2E8 SWAP1 PUSH2 0x19C1 JUMP JUMPDEST PUSH1 0x5 SLOAD DUP2 LT PUSH2 0xA0B JUMPI PUSH1 0x40 MLOAD PUSH3 0x461BCD PUSH1 0xE5 SHL DUP2 MSTORE PUSH1 0x20 PUSH1 0x4 DUP3 ADD MSTORE PUSH1 0x16 PUSH1 0x24 DUP3 ADD MSTORE PUSH22 0x125B9D985B1A5908185C1C1B1A58D85D1A5BDB881251 PUSH1 0x52 SHL PUSH1 0x44 DUP3 ADD MSTORE PUSH1 0x64 ADD PUSH2 0x2E8 JUMP JUMPDEST PUSH1 0x0 DUP2 DUP2 MSTORE PUSH1 0x3 PUSH1 0x20 SWAP1 DUP2 MSTORE PUSH1 0x40 DUP1 DUP4 KECCAK256 DUP2 MLOAD PUSH1 0x80 DUP2 ADD SWAP1 SWAP3 MSTORE DUP1 SLOAD PUSH1 0x1 PUSH1 0x1 PUSH1 0xA0 SHL SUB AND DUP3 MSTORE PUSH1 0x1 DUP2 ADD DUP1 SLOAD SWAP3 SWAP4 SWAP2 SWAP3 SWAP2 DUP5 ADD SWAP2 PUSH2 0xA49 SWAP1 PUSH2 0x184B JUMP JUMPDEST DUP1 PUSH1 0x1F ADD PUSH1 0x20 DUP1 SWAP2 DIV MUL PUSH1 0x20 ADD PUSH1 0x40 MLOAD SWAP1 DUP2 ADD PUSH1 0x40 MSTORE DUP1 SWAP3 SWAP2 SWAP1 DUP2 DUP2 MSTORE PUSH1 0x20 ADD DUP3 DUP1 SLOAD PUSH2 0xA75 SWAP1 PUSH2 0x184B JUMP JUMPDEST DUP1 ISZERO PUSH2 0xAC2 JUMPI DUP1 PUSH1 0x1F LT PUSH2 0xA97 JUMPI PUSH2 0x100 DUP1 DUP4 SLOAD DIV MUL DUP4 MSTORE SWAP2 PUSH1 0x20 ADD SWAP2 PUSH2 0xAC2 JUMP JUMPDEST DUP3 ADD SWAP2 SWAP1 PUSH1 0x0 MSTORE PUSH1 0x20 PUSH1 0x0 KECCAK256 SWAP1 JUMPDEST DUP2 SLOAD DUP2 MSTORE SWAP1 PUSH1 0x1 ADD SWAP1 PUSH1 0x20 ADD DUP1 DUP4 GT PUSH2 0xAA5 JUMPI DUP3 SWAP1 SUB PUSH1 0x1F AND DUP3 ADD SWAP2 JUMPDEST POP POP POP POP POP DUP2 MSTORE PUSH1 0x20 ADD PUSH1 0x2 DUP3 ADD SLOAD DUP2 MSTORE PUSH1 0x20 ADD PUSH1 0x3 DUP3 ADD DUP1 SLOAD PUSH2 0xAE5 SWAP1 PUSH2 0x184B JUMP JUMPDEST DUP1 PUSH1 0x1F ADD PUSH1 0x20 DUP1 SWAP2 DIV MUL PUSH1 0x20 ADD PUSH1 0x40 MLOAD SWAP1 DUP2 ADD PUSH1 0x40 MSTORE DUP1 SWAP3 SWAP2 SWAP1 DUP2 DUP2 MSTORE PUSH1 0x20 ADD DUP3 DUP1 SLOAD PUSH2 0xB11 SWAP1 PUSH2 0x184B JUMP JUMPDEST DUP1 ISZERO PUSH2 0xB5E JUMPI DUP1 PUSH1 0x1F LT PUSH2 0xB33 JUMPI PUSH2 0x100 DUP1 DUP4 SLOAD DIV MUL DUP4 MSTORE SWAP2 PUSH1 0x20 ADD SWAP2 PUSH2 0xB5E JUMP JUMPDEST DUP3 ADD SWAP2 SWAP1 PUSH1 0x0 MSTORE PUSH1 0x20 PUSH1 0x0 KECCAK256 SWAP1 JUMPDEST DUP2 SLOAD DUP2 MSTORE SWAP1 PUSH1 0x1 ADD SWAP1 PUSH1 0x20 ADD DUP1 DUP4 GT PUSH2 0xB41 JUMPI DUP3 SWAP1 SUB PUSH1 0x1F AND DUP3 ADD SWAP2 JUMPDEST POP POP POP POP POP DUP2 MSTORE POP POP SWAP1 POP PUSH1 0x0 PUSH1 0x1 DUP3 PUSH1 0x60 ADD MLOAD PUSH1 0x40 MLOAD PUSH2 0xB7F SWAP2 SWAP1 PUSH2 0x182F JUMP JUMPDEST SWAP1 DUP2 MSTORE PUSH1 0x40 MLOAD SWAP1 DUP2 SWAP1 SUB PUSH1 0x20 ADD SWAP1 KECCAK256 DUP1 SLOAD PUSH2 0xB99 SWAP1 PUSH2 0x184B JUMP JUMPDEST SWAP1 POP GT PUSH2 0xBDB JUMPI PUSH1 0x40 MLOAD PUSH3 0x461BCD PUSH1 0xE5 SHL DUP2 MSTORE PUSH1 0x20 PUSH1 0x4 DUP3 ADD MSTORE PUSH1 0x10 PUSH1 0x24 DUP3 ADD MSTORE PUSH16 0x13DC9858DB19481B9BDD08199BDD5B99 PUSH1 0x82 SHL PUSH1 0x44 DUP3 ADD MSTORE PUSH1 0x64 ADD PUSH2 0x2E8 JUMP JUMPDEST PUSH1 0x1 DUP2 PUSH1 0x60 ADD MLOAD PUSH1 0x40 MLOAD PUSH2 0xBEF SWAP2 SWAP1 PUSH2 0x182F JUMP JUMPDEST SWAP1 DUP2 MSTORE PUSH1 0x40 MLOAD PUSH1 0x20 SWAP2 DUP2 SWAP1 SUB DUP3 ADD DUP2 KECCAK256 DUP4 MLOAD PUSH1 0x5 SWAP1 SWAP2 ADD DUP1 SLOAD PUSH1 0x1 DUP2 ADD DUP3 SSTORE PUSH1 0x0 SWAP2 DUP3 MSTORE SWAP4 SWAP1 KECCAK256 SWAP1 SWAP3 ADD DUP1 SLOAD PUSH1 0x1 PUSH1 0x1 PUSH1 0xA0 SHL SUB NOT AND PUSH1 0x1 PUSH1 0x1 PUSH1 0xA0 SHL SUB SWAP1 SWAP4 AND SWAP3 SWAP1 SWAP3 OR SWAP1 SWAP2 SSTORE PUSH1 0x60 DUP3 ADD MLOAD TIMESTAMP SWAP2 PUSH1 0x2 SWAP2 PUSH2 0xC4A SWAP2 PUSH2 0x182F JUMP JUMPDEST SWAP1 DUP2 MSTORE PUSH1 0x40 DUP1 MLOAD PUSH1 0x20 SWAP3 DUP2 SWAP1 SUB DUP4 ADD SWAP1 KECCAK256 SWAP4 MLOAD PUSH1 0x1 PUSH1 0x1 PUSH1 0xA0 SHL SUB AND PUSH1 0x0 SWAP1 DUP2 MSTORE SWAP4 SWAP1 SWAP2 MSTORE SWAP1 SWAP2 KECCAK256 SSTORE POP JUMP JUMPDEST PUSH1 0x0 SLOAD PUSH1 0x1 PUSH1 0x1 PUSH1 0xA0 SHL SUB AND CALLER EQ PUSH2 0xCA0 JUMPI PUSH1 0x40 MLOAD PUSH3 0x461BCD PUSH1 0xE5 SHL DUP2 MSTORE PUSH1 0x4 ADD PUSH2 0x2E8 SWAP1 PUSH2 0x19C1 JUMP JUMPDEST PUSH1 0x0 PUSH1 0x1 DUP4 PUSH1 0x40 MLOAD PUSH2 0xCB2 SWAP2 SWAP1 PUSH2 0x182F JUMP JUMPDEST SWAP1 DUP2 MSTORE PUSH1 0x40 MLOAD SWAP1 DUP2 SWAP1 SUB PUSH1 0x20 ADD SWAP1 KECCAK256 DUP1 SLOAD PUSH2 0xCCC SWAP1 PUSH2 0x184B JUMP JUMPDEST SWAP1 POP GT PUSH2 0xD0E JUMPI PUSH1 0x40 MLOAD PUSH3 0x461BCD PUSH1 0xE5 SHL DUP2 MSTORE PUSH1 0x20 PUSH1 0x4 DUP3 ADD MSTORE PUSH1 0x10 PUSH1 0x24 DUP3 ADD MSTORE PUSH16 0x13DC9858DB19481B9BDD08199BDD5B99 PUSH1 0x82 SHL PUSH1 0x44 DUP3 ADD MSTORE PUSH1 0x64 ADD PUSH2 0x2E8 JUMP JUMPDEST PUSH1 0x0 PUSH1 0x1 DUP4 PUSH1 0x40 MLOAD PUSH2 0xD20 SWAP2 SWAP1 PUSH2 0x182F JUMP JUMPDEST SWAP1 DUP2 MSTORE PUSH1 0x20 ADD PUSH1 0x40 MLOAD DUP1 SWAP2 SUB SWAP1 KECCAK256 PUSH1 0x1 ADD SWAP1 POP PUSH1 0x0 JUMPDEST DUP2 SLOAD DUP2 LT ISZERO PUSH2 0xE32 JUMPI DUP3 PUSH1 0x1 PUSH1 0x1 PUSH1 0xA0 SHL SUB AND DUP3 DUP3 DUP2 SLOAD DUP2 LT PUSH2 0xD5B JUMPI PUSH2 0xD5B PUSH2 0x19F8 JUMP JUMPDEST PUSH1 0x0 SWAP2 DUP3 MSTORE PUSH1 0x20 SWAP1 SWAP2 KECCAK256 ADD SLOAD PUSH1 0x1 PUSH1 0x1 PUSH1 0xA0 SHL SUB AND SUB PUSH2 0xE2A JUMPI DUP2 SLOAD DUP3 SWAP1 PUSH2 0xD85 SWAP1 PUSH1 0x1 SWAP1 PUSH2 0x1A0E JUMP JUMPDEST DUP2 SLOAD DUP2 LT PUSH2 0xD95 JUMPI PUSH2 0xD95 PUSH2 0x19F8 JUMP JUMPDEST SWAP1 PUSH1 0x0 MSTORE PUSH1 0x20 PUSH1 0x0 KECCAK256 ADD PUSH1 0x0 SWAP1 SLOAD SWAP1 PUSH2 0x100 EXP SWAP1 DIV PUSH1 0x1 PUSH1 0x1 PUSH1 0xA0 SHL SUB AND DUP3 DUP3 DUP2 SLOAD DUP2 LT PUSH2 0xDC5 JUMPI PUSH2 0xDC5 PUSH2 0x19F8 JUMP JUMPDEST SWAP1 PUSH1 0x0 MSTORE PUSH1 0x20 PUSH1 0x0 KECCAK256 ADD PUSH1 0x0 PUSH2 0x100 EXP DUP2 SLOAD DUP2 PUSH1 0x1 PUSH1 0x1 PUSH1 0xA0 SHL SUB MUL NOT AND SWAP1 DUP4 PUSH1 0x1 PUSH1 0x1 PUSH1 0xA0 SHL SUB AND MUL OR SWAP1 SSTORE POP DUP2 DUP1 SLOAD DUP1 PUSH2 0xE03 JUMPI PUSH2 0xE03 PUSH2 0x1A27 JUMP JUMPDEST PUSH1 0x0 DUP3 DUP2 MSTORE PUSH1 0x20 SWAP1 KECCAK256 DUP2 ADD PUSH1 0x0 NOT SWAP1 DUP2 ADD DUP1 SLOAD PUSH1 0x1 PUSH1 0x1 PUSH1 0xA0 SHL SUB NOT AND SWAP1 SSTORE ADD SWAP1 SSTORE PUSH2 0xE32 JUMP JUMPDEST PUSH1 0x1 ADD PUSH2 0xD36 JUMP JUMPDEST POP POP POP POP JUMP JUMPDEST PUSH1 0x0 SLOAD PUSH1 0x1 PUSH1 0x1 PUSH1 0xA0 SHL SUB AND CALLER EQ PUSH2 0xE62 JUMPI PUSH1 0x40 MLOAD PUSH3 0x461BCD PUSH1 0xE5 SHL DUP2 MSTORE PUSH1 0x4 ADD PUSH2 0x2E8 SWAP1 PUSH2 0x19C1 JUMP JUMPDEST DUP5 MLOAD DUP7 MLOAD EQ DUP1 ISZERO PUSH2 0xE74 JUMPI POP DUP4 MLOAD DUP7 MLOAD EQ JUMPDEST DUP1 ISZERO PUSH2 0xE81 JUMPI POP DUP3 MLOAD DUP7 MLOAD EQ JUMPDEST DUP1 ISZERO PUSH2 0xE8E JUMPI POP DUP2 MLOAD DUP7 MLOAD EQ JUMPDEST DUP1 ISZERO PUSH2 0xE9B JUMPI POP DUP1 MLOAD DUP7 MLOAD EQ JUMPDEST PUSH2 0xEE7 JUMPI PUSH1 0x40 MLOAD PUSH3 0x461BCD PUSH1 0xE5 SHL DUP2 MSTORE PUSH1 0x20 PUSH1 0x4 DUP3 ADD MSTORE PUSH1 0x18 PUSH1 0x24 DUP3 ADD MSTORE PUSH32 0x4172726179206C656E67746873206D757374206D617463680000000000000000 PUSH1 0x44 DUP3 ADD MSTORE PUSH1 0x64 ADD PUSH2 0x2E8 JUMP JUMPDEST PUSH1 0x0 JUMPDEST DUP7 MLOAD DUP2 LT ISZERO PUSH2 0x1070 JUMPI PUSH1 0x40 MLOAD DUP1 PUSH1 0xC0 ADD PUSH1 0x40 MSTORE DUP1 DUP9 DUP4 DUP2 MLOAD DUP2 LT PUSH2 0xF10 JUMPI PUSH2 0xF10 PUSH2 0x19F8 JUMP JUMPDEST PUSH1 0x20 MUL PUSH1 0x20 ADD ADD MLOAD DUP2 MSTORE PUSH1 0x20 ADD DUP8 DUP4 DUP2 MLOAD DUP2 LT PUSH2 0xF2F JUMPI PUSH2 0xF2F PUSH2 0x19F8 JUMP JUMPDEST PUSH1 0x20 MUL PUSH1 0x20 ADD ADD MLOAD DUP2 MSTORE PUSH1 0x20 ADD DUP7 DUP4 DUP2 MLOAD DUP2 LT PUSH2 0xF4E JUMPI PUSH2 0xF4E PUSH2 0x19F8 JUMP JUMPDEST PUSH1 0x20 MUL PUSH1 0x20 ADD ADD MLOAD DUP2 MSTORE PUSH1 0x20 ADD DUP6 DUP4 DUP2 MLOAD DUP2 LT PUSH2 0xF6D JUMPI PUSH2 0xF6D PUSH2 0x19F8 JUMP JUMPDEST PUSH1 0x20 MUL PUSH1 0x20 ADD ADD MLOAD DUP2 MSTORE PUSH1 0x20 ADD DUP5 DUP4 DUP2 MLOAD DUP2 LT PUSH2 0xF8C JUMPI PUSH2 0xF8C PUSH2 0x19F8 JUMP JUMPDEST PUSH1 0x20 MUL PUSH1 0x20 ADD ADD MLOAD DUP2 MSTORE PUSH1 0x20 ADD DUP4 DUP4 DUP2 MLOAD DUP2 LT PUSH2 0xFAB JUMPI PUSH2 0xFAB PUSH2 0x19F8 JUMP JUMPDEST PUSH1 0x20 MUL PUSH1 0x20 ADD ADD MLOAD DUP2 MSTORE POP PUSH1 0x1 DUP9 DUP4 DUP2 MLOAD DUP2 LT PUSH2 0xFCA JUMPI PUSH2 0xFCA PUSH2 0x19F8 JUMP JUMPDEST PUSH1 0x20 MUL PUSH1 0x20 ADD ADD MLOAD PUSH1 0x40 MLOAD PUSH2 0xFDF SWAP2 SWAP1 PUSH2 0x182F JUMP JUMPDEST SWAP1 DUP2 MSTORE PUSH1 0x40 MLOAD SWAP1 DUP2 SWAP1 SUB PUSH1 0x20 ADD SWAP1 KECCAK256 DUP2 MLOAD DUP2 SWAP1 PUSH2 0xFFC SWAP1 DUP3 PUSH2 0x18D4 JUMP JUMPDEST POP PUSH1 0x20 DUP3 DUP2 ADD MLOAD DUP1 MLOAD PUSH2 0x1015 SWAP3 PUSH1 0x1 DUP6 ADD SWAP3 ADD SWAP1 PUSH2 0x10D4 JUMP JUMPDEST POP PUSH1 0x40 DUP3 ADD MLOAD PUSH1 0x2 DUP3 ADD SWAP1 PUSH2 0x102A SWAP1 DUP3 PUSH2 0x18D4 JUMP JUMPDEST POP PUSH1 0x60 DUP3 ADD MLOAD PUSH1 0x3 DUP3 ADD SWAP1 PUSH2 0x103F SWAP1 DUP3 PUSH2 0x18D4 JUMP JUMPDEST POP PUSH1 0x80 DUP3 ADD MLOAD PUSH1 0x4 DUP3 ADD SSTORE PUSH1 0xA0 DUP3 ADD MLOAD DUP1 MLOAD PUSH2 0x1065 SWAP2 PUSH1 0x5 DUP5 ADD SWAP2 PUSH1 0x20 SWAP1 SWAP2 ADD SWAP1 PUSH2 0x10D4 JUMP JUMPDEST POP POP POP PUSH1 0x1 ADD PUSH2 0xEEA JUMP JUMPDEST POP POP POP POP POP POP POP JUMP JUMPDEST POP DUP1 SLOAD PUSH2 0x1085 SWAP1 PUSH2 0x184B JUMP JUMPDEST PUSH1 0x0 DUP3 SSTORE DUP1 PUSH1 0x1F LT PUSH2 0x1095 JUMPI POP POP JUMP JUMPDEST PUSH1 0x1F ADD PUSH1 0x20 SWAP1 DIV SWAP1 PUSH1 0x0 MSTORE PUSH1 0x20 PUSH1 0x0 KECCAK256 SWAP1 DUP2 ADD SWAP1 PUSH2 0x10B3 SWAP2 SWAP1 PUSH2 0x1139 JUMP JUMPDEST POP JUMP JUMPDEST POP DUP1 SLOAD PUSH1 0x0 DUP3 SSTORE SWAP1 PUSH1 0x0 MSTORE PUSH1 0x20 PUSH1 0x0 KECCAK256 SWAP1 DUP2 ADD SWAP1 PUSH2 0x10B3 SWAP2 SWAP1 PUSH2 0x1139 JUMP JUMPDEST DUP3 DUP1 SLOAD DUP3 DUP3 SSTORE SWAP1 PUSH1 0x0 MSTORE PUSH1 0x20 PUSH1 0x0 KECCAK256 SWAP1 DUP2 ADD SWAP3 DUP3 ISZERO PUSH2 0x1129 JUMPI SWAP2 PUSH1 0x20 MUL DUP3 ADD JUMPDEST DUP3 DUP2 GT ISZERO PUSH2 0x1129 JUMPI DUP3 MLOAD DUP3 SLOAD PUSH1 0x1 PUSH1 0x1 PUSH1 0xA0 SHL SUB NOT AND PUSH1 0x1 PUSH1 0x1 PUSH1 0xA0 SHL SUB SWAP1 SWAP2 AND OR DUP3 SSTORE PUSH1 0x20 SWAP1 SWAP3 ADD SWAP2 PUSH1 0x1 SWAP1 SWAP2 ADD SWAP1 PUSH2 0x10F4 JUMP JUMPDEST POP PUSH2 0x1135 SWAP3 SWAP2 POP PUSH2 0x1139 JUMP JUMPDEST POP SWAP1 JUMP JUMPDEST JUMPDEST DUP1 DUP3 GT ISZERO PUSH2 0x1135 JUMPI PUSH1 0x0 DUP2 SSTORE PUSH1 0x1 ADD PUSH2 0x113A JUMP JUMPDEST PUSH4 0x4E487B71 PUSH1 0xE0 SHL PUSH1 0x0 MSTORE PUSH1 0x41 PUSH1 0x4 MSTORE PUSH1 0x24 PUSH1 0x0 REVERT JUMPDEST PUSH1 0x40 MLOAD PUSH1 0x1F DUP3 ADD PUSH1 0x1F NOT AND DUP2 ADD PUSH1 0x1 PUSH1 0x1 PUSH1 0x40 SHL SUB DUP2 GT DUP3 DUP3 LT OR ISZERO PUSH2 0x118C JUMPI PUSH2 0x118C PUSH2 0x114E JUMP JUMPDEST PUSH1 0x40 MSTORE SWAP2 SWAP1 POP JUMP JUMPDEST PUSH1 0x0 DUP3 PUSH1 0x1F DUP4 ADD SLT PUSH2 0x11A5 JUMPI PUSH1 0x0 DUP1 REVERT JUMPDEST DUP2 CALLDATALOAD PUSH1 0x1 PUSH1 0x1 PUSH1 0x40 SHL SUB DUP2 GT ISZERO PUSH2 0x11BE JUMPI PUSH2 0x11BE PUSH2 0x114E JUMP JUMPDEST PUSH2 0x11D1 PUSH1 0x1F DUP3 ADD PUSH1 0x1F NOT AND PUSH1 0x20 ADD PUSH2 0x1164 JUMP JUMPDEST DUP2 DUP2 MSTORE DUP5 PUSH1 0x20 DUP4 DUP7 ADD ADD GT ISZERO PUSH2 0x11E6 JUMPI PUSH1 0x0 DUP1 REVERT JUMPDEST DUP2 PUSH1 0x20 DUP6 ADD PUSH1 0x20 DUP4 ADD CALLDATACOPY PUSH1 0x0 SWAP2 DUP2 ADD PUSH1 0x20 ADD SWAP2 SWAP1 SWAP2 MSTORE SWAP4 SWAP3 POP POP POP JUMP JUMPDEST PUSH1 0x0 DUP1 PUSH1 0x0 DUP1 PUSH1 0x80 DUP6 DUP8 SUB SLT ISZERO PUSH2 0x1219 JUMPI PUSH1 0x0 DUP1 REVERT JUMPDEST DUP5 CALLDATALOAD SWAP4 POP PUSH1 0x20 DUP6 ADD CALLDATALOAD PUSH1 0x1 PUSH1 0x1 PUSH1 0x40 SHL SUB DUP2 GT ISZERO PUSH2 0x1236 JUMPI PUSH1 0x0 DUP1 REVERT JUMPDEST PUSH2 0x1242 DUP8 DUP3 DUP9 ADD PUSH2 0x1194 JUMP JUMPDEST SWAP4 POP POP PUSH1 0x40 DUP6 ADD CALLDATALOAD PUSH1 0x1 PUSH1 0x1 PUSH1 0x40 SHL SUB DUP2 GT ISZERO PUSH2 0x125E JUMPI PUSH1 0x0 DUP1 REVERT JUMPDEST PUSH2 0x126A DUP8 DUP3 DUP9 ADD PUSH2 0x1194 JUMP JUMPDEST SWAP5 SWAP8 SWAP4 SWAP7 POP SWAP4 SWAP5 PUSH1 0x60 ADD CALLDATALOAD SWAP4 POP POP POP JUMP JUMPDEST PUSH1 0x0 PUSH1 0x1 PUSH1 0x1 PUSH1 0x40 SHL SUB DUP3 GT ISZERO PUSH2 0x1294 JUMPI PUSH2 0x1294 PUSH2 0x114E JUMP JUMPDEST POP PUSH1 0x5 SHL PUSH1 0x20 ADD SWAP1 JUMP JUMPDEST PUSH1 0x0 DUP3 PUSH1 0x1F DUP4 ADD SLT PUSH2 0x12AF JUMPI PUSH1 0x0 DUP1 REVERT JUMPDEST DUP2 CALLDATALOAD PUSH2 0x12C2 PUSH2 0x12BD DUP3 PUSH2 0x127B JUMP JUMPDEST PUSH2 0x1164 JUMP JUMPDEST DUP1 DUP3 DUP3 MSTORE PUSH1 0x20 DUP3 ADD SWAP2 POP PUSH1 0x20 DUP4 PUSH1 0x5 SHL DUP7 ADD ADD SWAP3 POP DUP6 DUP4 GT ISZERO PUSH2 0x12E4 JUMPI PUSH1 0x0 DUP1 REVERT JUMPDEST PUSH1 0x20 DUP6 ADD JUMPDEST DUP4 DUP2 LT ISZERO PUSH2 0x1325 JUMPI DUP1 CALLDATALOAD PUSH1 0x1 PUSH1 0x1 PUSH1 0x40 SHL SUB DUP2 GT ISZERO PUSH2 0x1307 JUMPI PUSH1 0x0 DUP1 REVERT JUMPDEST PUSH2 0x1316 DUP9 PUSH1 0x20 DUP4 DUP11 ADD ADD PUSH2 0x1194 JUMP JUMPDEST DUP5 MSTORE POP PUSH1 0x20 SWAP3 DUP4 ADD SWAP3 ADD PUSH2 0x12E9 JUMP JUMPDEST POP SWAP6 SWAP5 POP POP POP POP POP JUMP JUMPDEST PUSH1 0x0 PUSH1 0x20 DUP3 DUP5 SUB SLT ISZERO PUSH2 0x1341 JUMPI PUSH1 0x0 DUP1 REVERT JUMPDEST DUP2 CALLDATALOAD PUSH1 0x1 PUSH1 0x1 PUSH1 0x40 SHL SUB DUP2 GT ISZERO PUSH2 0x1357 JUMPI PUSH1 0x0 DUP1 REVERT JUMPDEST PUSH2 0x1363 DUP5 DUP3 DUP6 ADD PUSH2 0x129E JUMP JUMPDEST SWAP5 SWAP4 POP POP POP POP JUMP JUMPDEST PUSH1 0x0 PUSH1 0x20 DUP3 DUP5 SUB SLT ISZERO PUSH2 0x137D JUMPI PUSH1 0x0 DUP1 REVERT JUMPDEST POP CALLDATALOAD SWAP2 SWAP1 POP JUMP JUMPDEST PUSH1 0x0 JUMPDEST DUP4 DUP2 LT ISZERO PUSH2 0x139F JUMPI DUP2 DUP2 ADD MLOAD DUP4 DUP3 ADD MSTORE PUSH1 0x20 ADD PUSH2 0x1387 JUMP JUMPDEST POP POP PUSH1 0x0 SWAP2 ADD MSTORE JUMP JUMPDEST PUSH1 0x0 DUP2 MLOAD DUP1 DUP5 MSTORE PUSH2 0x13C0 DUP2 PUSH1 0x20 DUP7 ADD PUSH1 0x20 DUP7 ADD PUSH2 0x1384 JUMP JUMPDEST PUSH1 0x1F ADD PUSH1 0x1F NOT AND SWAP3 SWAP1 SWAP3 ADD PUSH1 0x20 ADD SWAP3 SWAP2 POP POP JUMP JUMPDEST DUP11 DUP2 MSTORE DUP10 PUSH1 0x20 DUP3 ADD MSTORE PUSH2 0x140 PUSH1 0x40 DUP3 ADD MSTORE PUSH1 0x0 PUSH2 0x13F5 PUSH2 0x140 DUP4 ADD DUP12 PUSH2 0x13A8 JUMP JUMPDEST PUSH1 0x1 PUSH1 0x1 PUSH1 0xA0 SHL SUB SWAP10 SWAP1 SWAP10 AND PUSH1 0x60 DUP4 ADD MSTORE POP PUSH1 0x80 DUP2 ADD SWAP7 SWAP1 SWAP7 MSTORE PUSH1 0xA0 DUP7 ADD SWAP5 SWAP1 SWAP5 MSTORE SWAP2 ISZERO ISZERO PUSH1 0xC0 DUP6 ADD MSTORE ISZERO ISZERO PUSH1 0xE0 DUP5 ADD MSTORE PUSH2 0x100 DUP4 ADD MSTORE PUSH2 0x120 SWAP1 SWAP2 ADD MSTORE SWAP4 SWAP3 POP POP POP JUMP JUMPDEST PUSH1 0x1 PUSH1 0x1 PUSH1 0xA0 SHL SUB DUP6 AND DUP2 MSTORE PUSH1 0x80 PUSH1 0x20 DUP3 ADD DUP2 SWAP1 MSTORE PUSH1 0x0 SWAP1 PUSH2 0x145E SWAP1 DUP4 ADD DUP7 PUSH2 0x13A8 JUMP JUMPDEST DUP5 PUSH1 0x40 DUP5 ADD MSTORE DUP3 DUP2 SUB PUSH1 0x60 DUP5 ADD MSTORE PUSH2 0x1476 DUP2 DUP6 PUSH2 0x13A8 JUMP JUMPDEST SWAP8 SWAP7 POP POP POP POP POP POP POP JUMP JUMPDEST PUSH1 0x0 PUSH1 0x20 DUP3 DUP5 SUB SLT ISZERO PUSH2 0x1493 JUMPI PUSH1 0x0 DUP1 REVERT JUMPDEST DUP2 CALLDATALOAD PUSH1 0x1 PUSH1 0x1 PUSH1 0x40 SHL SUB DUP2 GT ISZERO PUSH2 0x14A9 JUMPI PUSH1 0x0 DUP1 REVERT JUMPDEST PUSH2 0x1363 DUP5 DUP3 DUP6 ADD PUSH2 0x1194 JUMP JUMPDEST PUSH1 0x80 DUP2 MSTORE PUSH1 0x0 PUSH2 0x14C8 PUSH1 0x80 DUP4 ADD DUP8 PUSH2 0x13A8 JUMP JUMPDEST DUP3 DUP2 SUB PUSH1 0x20 DUP5 ADD MSTORE PUSH2 0x14DA DUP2 DUP8 PUSH2 0x13A8 JUMP JUMPDEST SWAP1 POP DUP3 DUP2 SUB PUSH1 0x40 DUP5 ADD MSTORE PUSH2 0x14EE DUP2 DUP7 PUSH2 0x13A8 JUMP JUMPDEST SWAP2 POP POP DUP3 PUSH1 0x60 DUP4 ADD MSTORE SWAP6 SWAP5 POP POP POP POP POP JUMP JUMPDEST PUSH1 0x0 DUP1 PUSH1 0x0 PUSH1 0x60 DUP5 DUP7 SUB SLT ISZERO PUSH2 0x1515 JUMPI PUSH1 0x0 DUP1 REVERT JUMPDEST DUP4 CALLDATALOAD PUSH1 0x1 PUSH1 0x1 PUSH1 0x40 SHL SUB DUP2 GT ISZERO PUSH2 0x152B JUMPI PUSH1 0x0 DUP1 REVERT JUMPDEST PUSH2 0x1537 DUP7 DUP3 DUP8 ADD PUSH2 0x1194 JUMP JUMPDEST SWAP4 POP POP PUSH1 0x20 DUP5 ADD CALLDATALOAD SWAP2 POP PUSH1 0x40 DUP5 ADD CALLDATALOAD PUSH1 0x1 PUSH1 0x1 PUSH1 0x40 SHL SUB DUP2 GT ISZERO PUSH2 0x155A JUMPI PUSH1 0x0 DUP1 REVERT JUMPDEST PUSH2 0x1566 DUP7 DUP3 DUP8 ADD PUSH2 0x1194 JUMP JUMPDEST SWAP2 POP POP SWAP3 POP SWAP3 POP SWAP3 JUMP JUMPDEST DUP1 CALLDATALOAD PUSH1 0x1 PUSH1 0x1 PUSH1 0xA0 SHL SUB DUP2 AND DUP2 EQ PUSH2 0x1587 JUMPI PUSH1 0x0 DUP1 REVERT JUMPDEST SWAP2 SWAP1 POP JUMP JUMPDEST PUSH1 0x0 DUP1 PUSH1 0x40 DUP4 DUP6 SUB SLT ISZERO PUSH2 0x159F JUMPI PUSH1 0x0 DUP1 REVERT JUMPDEST DUP3 CALLDATALOAD PUSH1 0x1 PUSH1 0x1 PUSH1 0x40 SHL SUB DUP2 GT ISZERO PUSH2 0x15B5 JUMPI PUSH1 0x0 DUP1 REVERT JUMPDEST PUSH2 0x15C1 DUP6 DUP3 DUP7 ADD PUSH2 0x1194 JUMP JUMPDEST SWAP3 POP POP PUSH2 0x15D0 PUSH1 0x20 DUP5 ADD PUSH2 0x1570 JUMP JUMPDEST SWAP1 POP SWAP3 POP SWAP3 SWAP1 POP JUMP JUMPDEST PUSH1 0x0 DUP3 PUSH1 0x1F DUP4 ADD SLT PUSH2 0x15EA JUMPI PUSH1 0x0 DUP1 REVERT JUMPDEST DUP2 CALLDATALOAD PUSH2 0x15F8 PUSH2 0x12BD DUP3 PUSH2 0x127B JUMP JUMPDEST DUP1 DUP3 DUP3 MSTORE PUSH1 0x20 DUP3 ADD SWAP2 POP PUSH1 0x20 DUP4 PUSH1 0x5 SHL DUP7 ADD ADD SWAP3 POP DUP6 DUP4 GT ISZERO PUSH2 0x161A JUMPI PUSH1 0x0 DUP1 REVERT JUMPDEST PUSH1 0x20 DUP6 ADD JUMPDEST DUP4 DUP2 LT ISZERO PUSH2 0x1325 JUMPI DUP1 CALLDATALOAD PUSH1 0x1 PUSH1 0x1 PUSH1 0x40 SHL SUB DUP2 GT ISZERO PUSH2 0x163D JUMPI PUSH1 0x0 DUP1 REVERT JUMPDEST DUP7 ADD PUSH1 0x3F DUP2 ADD DUP9 SGT PUSH2 0x164E JUMPI PUSH1 0x0 DUP1 REVERT JUMPDEST PUSH1 0x20 DUP2 ADD CALLDATALOAD PUSH2 0x165F PUSH2 0x12BD DUP3 PUSH2 0x127B JUMP JUMPDEST DUP1 DUP3 DUP3 MSTORE PUSH1 0x20 DUP3 ADD SWAP2 POP PUSH1 0x20 DUP1 DUP5 PUSH1 0x5 SHL DUP7 ADD ADD ADD SWAP3 POP DUP11 DUP4 GT ISZERO PUSH2 0x1683 JUMPI PUSH1 0x0 DUP1 REVERT JUMPDEST PUSH1 0x40 DUP5 ADD SWAP4 POP JUMPDEST DUP3 DUP5 LT ISZERO PUSH2 0x16AC JUMPI PUSH2 0x169B DUP5 PUSH2 0x1570 JUMP JUMPDEST DUP3 MSTORE PUSH1 0x20 SWAP4 DUP5 ADD SWAP4 SWAP1 SWAP2 ADD SWAP1 PUSH2 0x168A JUMP JUMPDEST DUP7 MSTORE POP POP PUSH1 0x20 SWAP4 DUP5 ADD SWAP4 SWAP2 SWAP1 SWAP2 ADD SWAP1 POP PUSH2 0x161F JUMP JUMPDEST PUSH1 0x0 DUP3 PUSH1 0x1F DUP4 ADD SLT PUSH2 0x16D2 JUMPI PUSH1 0x0 DUP1 REVERT JUMPDEST DUP2 CALLDATALOAD PUSH2 0x16E0 PUSH2 0x12BD DUP3 PUSH2 0x127B JUMP JUMPDEST DUP1 DUP3 DUP3 MSTORE PUSH1 0x20 DUP3 ADD SWAP2 POP PUSH1 0x20 DUP4 PUSH1 0x5 SHL DUP7 ADD ADD SWAP3 POP DUP6 DUP4 GT ISZERO PUSH2 0x1702 JUMPI PUSH1 0x0 DUP1 REVERT JUMPDEST PUSH1 0x20 DUP6 ADD JUMPDEST DUP4 DUP2 LT ISZERO PUSH2 0x1325 JUMPI DUP1 CALLDATALOAD DUP4 MSTORE PUSH1 0x20 SWAP3 DUP4 ADD SWAP3 ADD PUSH2 0x1707 JUMP JUMPDEST PUSH1 0x0 DUP1 PUSH1 0x0 DUP1 PUSH1 0x0 DUP1 PUSH1 0xC0 DUP8 DUP10 SUB SLT ISZERO PUSH2 0x1738 JUMPI PUSH1 0x0 DUP1 REVERT JUMPDEST DUP7 CALLDATALOAD PUSH1 0x1 PUSH1 0x1 PUSH1 0x40 SHL SUB DUP2 GT ISZERO PUSH2 0x174E JUMPI PUSH1 0x0 DUP1 REVERT JUMPDEST PUSH2 0x175A DUP10 DUP3 DUP11 ADD PUSH2 0x129E JUMP JUMPDEST SWAP7 POP POP PUSH1 0x20 DUP8 ADD CALLDATALOAD PUSH1 0x1 PUSH1 0x1 PUSH1 0x40 SHL SUB DUP2 GT ISZERO PUSH2 0x1776 JUMPI PUSH1 0x0 DUP1 REVERT JUMPDEST PUSH2 0x1782 DUP10 DUP3 DUP11 ADD PUSH2 0x15D9 JUMP JUMPDEST SWAP6 POP POP PUSH1 0x40 DUP8 ADD CALLDATALOAD PUSH1 0x1 PUSH1 0x1 PUSH1 0x40 SHL SUB DUP2 GT ISZERO PUSH2 0x179E JUMPI PUSH1 0x0 DUP1 REVERT JUMPDEST PUSH2 0x17AA DUP10 DUP3 DUP11 ADD PUSH2 0x129E JUMP JUMPDEST SWAP5 POP POP PUSH1 0x60 DUP8 ADD CALLDATALOAD PUSH1 0x1 PUSH1 0x1 PUSH1 0x40 SHL SUB DUP2 GT ISZERO PUSH2 0x17C6 JUMPI PUSH1 0x0 DUP1 REVERT JUMPDEST PUSH2 0x17D2 DUP10 DUP3 DUP11 ADD PUSH2 0x129E JUMP JUMPDEST SWAP4 POP POP PUSH1 0x80 DUP8 ADD CALLDATALOAD PUSH1 0x1 PUSH1 0x1 PUSH1 0x40 SHL SUB DUP2 GT ISZERO PUSH2 0x17EE JUMPI PUSH1 0x0 DUP1 REVERT JUMPDEST PUSH2 0x17FA DUP10 DUP3 DUP11 ADD PUSH2 0x16C1 JUMP JUMPDEST SWAP3 POP POP PUSH1 0xA0 DUP8 ADD CALLDATALOAD PUSH1 0x1 PUSH1 0x1 PUSH1 0x40 SHL SUB DUP2 GT ISZERO PUSH2 0x1816 JUMPI PUSH1 0x0 DUP1 REVERT JUMPDEST PUSH2 0x1822 DUP10 DUP3 DUP11 ADD PUSH2 0x15D9 JUMP JUMPDEST SWAP2 POP POP SWAP3 SWAP6 POP SWAP3 SWAP6 POP SWAP3 SWAP6 JUMP JUMPDEST PUSH1 0x0 DUP3 MLOAD PUSH2 0x1841 DUP2 DUP5 PUSH1 0x20 DUP8 ADD PUSH2 0x1384 JUMP JUMPDEST SWAP2 SWAP1 SWAP2 ADD SWAP3 SWAP2 POP POP JUMP JUMPDEST PUSH1 0x1 DUP2 DUP2 SHR SWAP1 DUP3 AND DUP1 PUSH2 0x185F JUMPI PUSH1 0x7F DUP3 AND SWAP2 POP JUMPDEST PUSH1 0x20 DUP3 LT DUP2 SUB PUSH2 0x187F JUMPI PUSH4 0x4E487B71 PUSH1 0xE0 SHL PUSH1 0x0 MSTORE PUSH1 0x22 PUSH1 0x4 MSTORE PUSH1 0x24 PUSH1 0x0 REVERT JUMPDEST POP SWAP2 SWAP1 POP JUMP JUMPDEST PUSH1 0x1F DUP3 GT ISZERO PUSH2 0x18CF JUMPI DUP1 PUSH1 0x0 MSTORE PUSH1 0x20 PUSH1 0x0 KECCAK256 PUSH1 0x1F DUP5 ADD PUSH1 0x5 SHR DUP2 ADD PUSH1 0x20 DUP6 LT ISZERO PUSH2 0x18AC JUMPI POP DUP1 JUMPDEST PUSH1 0x1F DUP5 ADD PUSH1 0x5 SHR DUP3 ADD SWAP2 POP JUMPDEST DUP2 DUP2 LT ISZERO PUSH2 0x18CC JUMPI PUSH1 0x0 DUP2 SSTORE PUSH1 0x1 ADD PUSH2 0x18B8 JUMP JUMPDEST POP POP JUMPDEST POP POP POP JUMP JUMPDEST DUP2 MLOAD PUSH1 0x1 PUSH1 0x1 PUSH1 0x40 SHL SUB DUP2 GT ISZERO PUSH2 0x18ED JUMPI PUSH2 0x18ED PUSH2 0x114E JUMP JUMPDEST PUSH2 0x1901 DUP2 PUSH2 0x18FB DUP5 SLOAD PUSH2 0x184B JUMP JUMPDEST DUP5 PUSH2 0x1885 JUMP JUMPDEST PUSH1 0x20 PUSH1 0x1F DUP3 GT PUSH1 0x1 DUP2 EQ PUSH2 0x1935 JUMPI PUSH1 0x0 DUP4 ISZERO PUSH2 0x191D JUMPI POP DUP5 DUP3 ADD MLOAD JUMPDEST PUSH1 0x0 NOT PUSH1 0x3 DUP6 SWAP1 SHL SHR NOT AND PUSH1 0x1 DUP5 SWAP1 SHL OR DUP5 SSTORE PUSH2 0x18CC JUMP JUMPDEST PUSH1 0x0 DUP5 DUP2 MSTORE PUSH1 0x20 DUP2 KECCAK256 PUSH1 0x1F NOT DUP6 AND SWAP2 JUMPDEST DUP3 DUP2 LT ISZERO PUSH2 0x1965 JUMPI DUP8 DUP6 ADD MLOAD DUP3 SSTORE PUSH1 0x20 SWAP5 DUP6 ADD SWAP5 PUSH1 0x1 SWAP1 SWAP3 ADD SWAP2 ADD PUSH2 0x1945 JUMP JUMPDEST POP DUP5 DUP3 LT ISZERO PUSH2 0x1983 JUMPI DUP7 DUP5 ADD MLOAD PUSH1 0x0 NOT PUSH1 0x3 DUP8 SWAP1 SHL PUSH1 0xF8 AND SHR NOT AND DUP2 SSTORE JUMPDEST POP POP POP POP PUSH1 0x1 SWAP1 DUP2 SHL ADD SWAP1 SSTORE POP JUMP JUMPDEST PUSH4 0x4E487B71 PUSH1 0xE0 SHL PUSH1 0x0 MSTORE PUSH1 0x11 PUSH1 0x4 MSTORE PUSH1 0x24 PUSH1 0x0 REVERT JUMPDEST PUSH1 0x0 PUSH1 0x1 DUP3 ADD PUSH2 0x19BA JUMPI PUSH2 0x19BA PUSH2 0x1992 JUMP JUMPDEST POP PUSH1 0x1 ADD SWAP1 JUMP JUMPDEST PUSH1 0x20 DUP1 DUP3 MSTORE PUSH1 0x1F SWAP1 DUP3 ADD MSTORE PUSH32 0x4F6E6C792044414F2063616E2063616C6C20746869732066756E6374696F6E00 PUSH1 0x40 DUP3 ADD MSTORE PUSH1 0x60 ADD SWAP1 JUMP JUMPDEST PUSH4 0x4E487B71 PUSH1 0xE0 SHL PUSH1 0x0 MSTORE PUSH1 0x32 PUSH1 0x4 MSTORE PUSH1 0x24 PUSH1 0x0 REVERT JUMPDEST DUP2 DUP2 SUB DUP2 DUP2 GT ISZERO PUSH2 0x1A21 JUMPI PUSH2 0x1A21 PUSH2 0x1992 JUMP JUMPDEST SWAP3 SWAP2 POP POP JUMP JUMPDEST PUSH4 0x4E487B71 PUSH1 0xE0 SHL PUSH1 0x0 MSTORE PUSH1 0x31 PUSH1 0x4 MSTORE PUSH1 0x24 PUSH1 0x0 REVERT INVALID LOG2 PUSH5 0x6970667358 0x22 SLT KECCAK256 0xFC CALLER 0x24 0xF6 0xD9 PUSH23 0xBF63A4293CC72599F51603F6D28FF9317F8A68A25A7E3C 0x27 CALLVALUE 0xE2 PUSH5 0x736F6C6343 STOP ADDMOD SHR STOP CALLER "
				},
				"gasEstimates": {
					"creation": {
						"codeDepositCost": "1354200",
						"executionCost": "infinite",
						"totalCost": "infinite"
					},
					"external": {
						"addOrUpdateOracle(string[],address[][],string[],string[],uint256[],address[][])": "infinite",
						"applicationCounter()": "2372",
						"approveSkillVerification(uint256)": "infinite",
						"daoContract()": "2360",
						"disputeCounter()": "2329",
						"disputes(uint256)": "infinite",
						"minOracleMembers()": "2308",
						"oracles(string)": "infinite",
						"raiseDispute(uint256,string,string,uint256)": "infinite",
						"removeMemberFromOracle(string,address)": "infinite",
						"removeOracle(string[])": "infinite",
						"skillApplications(uint256)": "infinite",
						"skillVerificationDates(string,address)": "infinite",
						"submitSkillVerification(string,uint256,string)": "infinite",
						"updateMinOracleMembers(uint256)": "24509"
					}
				},
				"methodIdentifiers": {
					"addOrUpdateOracle(string[],address[][],string[],string[],uint256[],address[][])": "d2ffdcdd",
					"applicationCounter()": "db144d01",
					"approveSkillVerification(uint256)": "92db6614",
					"daoContract()": "4a7ffcbc",
					"disputeCounter()": "7d36f4d3",
					"disputes(uint256)": "564a565d",
					"minOracleMembers()": "0b9abbfa",
					"oracles(string)": "67c2f3e1",
					"raiseDispute(uint256,string,string,uint256)": "340cadcd",
					"removeMemberFromOracle(string,address)": "add6beaf",
					"removeOracle(string[])": "40db1a79",
					"skillApplications(uint256)": "5b3a8e1c",
					"skillVerificationDates(string,address)": "9e4ffd54",
					"submitSkillVerification(string,uint256,string)": "893ebc21",
					"updateMinOracleMembers(uint256)": "4dea6307"
				}
			},
			"storageLayout": {
				"storage": [
					{
						"astId": 3,
						"contract": "native-athena.sol:SkillOracle",
						"label": "daoContract",
						"offset": 0,
						"slot": "0",
						"type": "t_address"
					},
					{
						"astId": 53,
						"contract": "native-athena.sol:SkillOracle",
						"label": "oracles",
						"offset": 0,
						"slot": "1",
						"type": "t_mapping(t_string_memory_ptr,t_struct(Oracle)18_storage)"
					},
					{
						"astId": 59,
						"contract": "native-athena.sol:SkillOracle",
						"label": "skillVerificationDates",
						"offset": 0,
						"slot": "2",
						"type": "t_mapping(t_string_memory_ptr,t_mapping(t_address,t_uint256))"
					},
					{
						"astId": 64,
						"contract": "native-athena.sol:SkillOracle",
						"label": "skillApplications",
						"offset": 0,
						"slot": "3",
						"type": "t_mapping(t_uint256,t_struct(SkillVerificationApplication)27_storage)"
					},
					{
						"astId": 69,
						"contract": "native-athena.sol:SkillOracle",
						"label": "disputes",
						"offset": 0,
						"slot": "4",
						"type": "t_mapping(t_uint256,t_struct(Dispute)48_storage)"
					},
					{
						"astId": 71,
						"contract": "native-athena.sol:SkillOracle",
						"label": "applicationCounter",
						"offset": 0,
						"slot": "5",
						"type": "t_uint256"
					},
					{
						"astId": 73,
						"contract": "native-athena.sol:SkillOracle",
						"label": "disputeCounter",
						"offset": 0,
						"slot": "6",
						"type": "t_uint256"
					},
					{
						"astId": 76,
						"contract": "native-athena.sol:SkillOracle",
						"label": "minOracleMembers",
						"offset": 0,
						"slot": "7",
						"type": "t_uint256"
					}
				],
				"types": {
					"t_address": {
						"encoding": "inplace",
						"label": "address",
						"numberOfBytes": "20"
					},
					"t_array(t_address)dyn_storage": {
						"base": "t_address",
						"encoding": "dynamic_array",
						"label": "address[]",
						"numberOfBytes": "32"
					},
					"t_bool": {
						"encoding": "inplace",
						"label": "bool",
						"numberOfBytes": "1"
					},
					"t_mapping(t_address,t_uint256)": {
						"encoding": "mapping",
						"key": "t_address",
						"label": "mapping(address => uint256)",
						"numberOfBytes": "32",
						"value": "t_uint256"
					},
					"t_mapping(t_string_memory_ptr,t_mapping(t_address,t_uint256))": {
						"encoding": "mapping",
						"key": "t_string_memory_ptr",
						"label": "mapping(string => mapping(address => uint256))",
						"numberOfBytes": "32",
						"value": "t_mapping(t_address,t_uint256)"
					},
					"t_mapping(t_string_memory_ptr,t_struct(Oracle)18_storage)": {
						"encoding": "mapping",
						"key": "t_string_memory_ptr",
						"label": "mapping(string => struct SkillOracle.Oracle)",
						"numberOfBytes": "32",
						"value": "t_struct(Oracle)18_storage"
					},
					"t_mapping(t_uint256,t_struct(Dispute)48_storage)": {
						"encoding": "mapping",
						"key": "t_uint256",
						"label": "mapping(uint256 => struct SkillOracle.Dispute)",
						"numberOfBytes": "32",
						"value": "t_struct(Dispute)48_storage"
					},
					"t_mapping(t_uint256,t_struct(SkillVerificationApplication)27_storage)": {
						"encoding": "mapping",
						"key": "t_uint256",
						"label": "mapping(uint256 => struct SkillOracle.SkillVerificationApplication)",
						"numberOfBytes": "32",
						"value": "t_struct(SkillVerificationApplication)27_storage"
					},
					"t_string_memory_ptr": {
						"encoding": "bytes",
						"label": "string",
						"numberOfBytes": "32"
					},
					"t_string_storage": {
						"encoding": "bytes",
						"label": "string",
						"numberOfBytes": "32"
					},
					"t_struct(Dispute)48_storage": {
						"encoding": "inplace",
						"label": "struct SkillOracle.Dispute",
						"members": [
							{
								"astId": 29,
								"contract": "native-athena.sol:SkillOracle",
								"label": "jobID",
								"offset": 0,
								"slot": "0",
								"type": "t_uint256"
							},
							{
								"astId": 31,
								"contract": "native-athena.sol:SkillOracle",
								"label": "disputedAmount",
								"offset": 0,
								"slot": "1",
								"type": "t_uint256"
							},
							{
								"astId": 33,
								"contract": "native-athena.sol:SkillOracle",
								"label": "hash",
								"offset": 0,
								"slot": "2",
								"type": "t_string_storage"
							},
							{
								"astId": 35,
								"contract": "native-athena.sol:SkillOracle",
								"label": "disputeRaiserAddress",
								"offset": 0,
								"slot": "3",
								"type": "t_address"
							},
							{
								"astId": 37,
								"contract": "native-athena.sol:SkillOracle",
								"label": "votesFor",
								"offset": 0,
								"slot": "4",
								"type": "t_uint256"
							},
							{
								"astId": 39,
								"contract": "native-athena.sol:SkillOracle",
								"label": "votesAgainst",
								"offset": 0,
								"slot": "5",
								"type": "t_uint256"
							},
							{
								"astId": 41,
								"contract": "native-athena.sol:SkillOracle",
								"label": "result",
								"offset": 0,
								"slot": "6",
								"type": "t_bool"
							},
							{
								"astId": 43,
								"contract": "native-athena.sol:SkillOracle",
								"label": "isVotingActive",
								"offset": 1,
								"slot": "6",
								"type": "t_bool"
							},
							{
								"astId": 45,
								"contract": "native-athena.sol:SkillOracle",
								"label": "timeStamp",
								"offset": 0,
								"slot": "7",
								"type": "t_uint256"
							},
							{
								"astId": 47,
								"contract": "native-athena.sol:SkillOracle",
								"label": "fees",
								"offset": 0,
								"slot": "8",
								"type": "t_uint256"
							}
						],
						"numberOfBytes": "288"
					},
					"t_struct(Oracle)18_storage": {
						"encoding": "inplace",
						"label": "struct SkillOracle.Oracle",
						"members": [
							{
								"astId": 5,
								"contract": "native-athena.sol:SkillOracle",
								"label": "name",
								"offset": 0,
								"slot": "0",
								"type": "t_string_storage"
							},
							{
								"astId": 8,
								"contract": "native-athena.sol:SkillOracle",
								"label": "members",
								"offset": 0,
								"slot": "1",
								"type": "t_array(t_address)dyn_storage"
							},
							{
								"astId": 10,
								"contract": "native-athena.sol:SkillOracle",
								"label": "shortDescription",
								"offset": 0,
								"slot": "2",
								"type": "t_string_storage"
							},
							{
								"astId": 12,
								"contract": "native-athena.sol:SkillOracle",
								"label": "hashOfDetails",
								"offset": 0,
								"slot": "3",
								"type": "t_string_storage"
							},
							{
								"astId": 14,
								"contract": "native-athena.sol:SkillOracle",
								"label": "stakeAmount",
								"offset": 0,
								"slot": "4",
								"type": "t_uint256"
							},
							{
								"astId": 17,
								"contract": "native-athena.sol:SkillOracle",
								"label": "skillVerifiedAddresses",
								"offset": 0,
								"slot": "5",
								"type": "t_array(t_address)dyn_storage"
							}
						],
						"numberOfBytes": "192"
					},
					"t_struct(SkillVerificationApplication)27_storage": {
						"encoding": "inplace",
						"label": "struct SkillOracle.SkillVerificationApplication",
						"members": [
							{
								"astId": 20,
								"contract": "native-athena.sol:SkillOracle",
								"label": "applicant",
								"offset": 0,
								"slot": "0",
								"type": "t_address"
							},
							{
								"astId": 22,
								"contract": "native-athena.sol:SkillOracle",
								"label": "applicationHash",
								"offset": 0,
								"slot": "1",
								"type": "t_string_storage"
							},
							{
								"astId": 24,
								"contract": "native-athena.sol:SkillOracle",
								"label": "feeAmount",
								"offset": 0,
								"slot": "2",
								"type": "t_uint256"
							},
							{
								"astId": 26,
								"contract": "native-athena.sol:SkillOracle",
								"label": "targetOracleName",
								"offset": 0,
								"slot": "3",
								"type": "t_string_storage"
							}
						],
						"numberOfBytes": "128"
					},
					"t_uint256": {
						"encoding": "inplace",
						"label": "uint256",
						"numberOfBytes": "32"
					}
				}
			},
			"userdoc": {
				"kind": "user",
				"methods": {},
				"version": 1
			}
		}
	}
}