{
	"rewards-tracking-contract.sol": {
		"RewardsTrackingContract": {
			"abi": [
				{
					"inputs": [
						{
							"internalType": "address",
							"name": "_owner",
							"type": "address"
						}
					],
					"stateMutability": "nonpayable",
					"type": "constructor"
				},
				{
					"inputs": [
						{
							"internalType": "address",
							"name": "owner",
							"type": "address"
						}
					],
					"name": "OwnableInvalidOwner",
					"type": "error"
				},
				{
					"inputs": [
						{
							"internalType": "address",
							"name": "account",
							"type": "address"
						}
					],
					"name": "OwnableUnauthorizedAccount",
					"type": "error"
				},
				{
					"anonymous": false,
					"inputs": [
						{
							"indexed": true,
							"internalType": "address",
							"name": "previousOwner",
							"type": "address"
						},
						{
							"indexed": true,
							"internalType": "address",
							"name": "newOwner",
							"type": "address"
						}
					],
					"name": "OwnershipTransferred",
					"type": "event"
				},
				{
					"anonymous": false,
					"inputs": [
						{
							"indexed": true,
							"internalType": "uint256",
							"name": "jobId",
							"type": "uint256"
						},
						{
							"indexed": false,
							"internalType": "uint256",
							"name": "paidAmountUSDT",
							"type": "uint256"
						},
						{
							"indexed": true,
							"internalType": "address",
							"name": "jobGiver",
							"type": "address"
						},
						{
							"indexed": true,
							"internalType": "address",
							"name": "jobTaker",
							"type": "address"
						},
						{
							"indexed": false,
							"internalType": "uint256",
							"name": "jobGiverTokens",
							"type": "uint256"
						},
						{
							"indexed": false,
							"internalType": "uint256",
							"name": "jobTakerTokens",
							"type": "uint256"
						}
					],
					"name": "RewardsUpdated",
					"type": "event"
				},
				{
					"anonymous": false,
					"inputs": [
						{
							"indexed": true,
							"internalType": "address",
							"name": "user",
							"type": "address"
						},
						{
							"indexed": false,
							"internalType": "uint256",
							"name": "tokensEarned",
							"type": "uint256"
						},
						{
							"indexed": false,
							"internalType": "uint256",
							"name": "newCumulativeEarnings",
							"type": "uint256"
						},
						{
							"indexed": false,
							"internalType": "uint256",
							"name": "newTotalTokens",
							"type": "uint256"
						}
					],
					"name": "TokensEarned",
					"type": "event"
				},
				{
					"inputs": [
						{
							"internalType": "address",
							"name": "user",
							"type": "address"
						},
						{
							"internalType": "uint256",
							"name": "additionalAmount",
							"type": "uint256"
						}
					],
					"name": "calculateTokensForAmount",
					"outputs": [
						{
							"internalType": "uint256",
							"name": "",
							"type": "uint256"
						}
					],
					"stateMutability": "view",
					"type": "function"
				},
				{
					"inputs": [
						{
							"internalType": "uint256",
							"name": "fromAmount",
							"type": "uint256"
						},
						{
							"internalType": "uint256",
							"name": "toAmount",
							"type": "uint256"
						}
					],
					"name": "calculateTokensForRange",
					"outputs": [
						{
							"internalType": "uint256",
							"name": "",
							"type": "uint256"
						}
					],
					"stateMutability": "view",
					"type": "function"
				},
				{
					"inputs": [
						{
							"internalType": "uint256",
							"name": "jobId",
							"type": "uint256"
						}
					],
					"name": "getJobTotalPaid",
					"outputs": [
						{
							"internalType": "uint256",
							"name": "",
							"type": "uint256"
						}
					],
					"stateMutability": "view",
					"type": "function"
				},
				{
					"inputs": [
						{
							"internalType": "address",
							"name": "user",
							"type": "address"
						}
					],
					"name": "getReferrer",
					"outputs": [
						{
							"internalType": "address",
							"name": "",
							"type": "address"
						}
					],
					"stateMutability": "view",
					"type": "function"
				},
				{
					"inputs": [
						{
							"internalType": "uint256",
							"name": "index",
							"type": "uint256"
						}
					],
					"name": "getRewardBand",
					"outputs": [
						{
							"internalType": "uint256",
							"name": "minAmount",
							"type": "uint256"
						},
						{
							"internalType": "uint256",
							"name": "maxAmount",
							"type": "uint256"
						},
						{
							"internalType": "uint256",
							"name": "owPerDollar",
							"type": "uint256"
						}
					],
					"stateMutability": "view",
					"type": "function"
				},
				{
					"inputs": [],
					"name": "getRewardBandsCount",
					"outputs": [
						{
							"internalType": "uint256",
							"name": "",
							"type": "uint256"
						}
					],
					"stateMutability": "view",
					"type": "function"
				},
				{
					"inputs": [
						{
							"internalType": "address",
							"name": "user",
							"type": "address"
						}
					],
					"name": "getUserCumulativeEarnings",
					"outputs": [
						{
							"internalType": "uint256",
							"name": "",
							"type": "uint256"
						}
					],
					"stateMutability": "view",
					"type": "function"
				},
				{
					"inputs": [
						{
							"internalType": "address",
							"name": "user",
							"type": "address"
						}
					],
					"name": "getUserTotalOWTokens",
					"outputs": [
						{
							"internalType": "uint256",
							"name": "",
							"type": "uint256"
						}
					],
					"stateMutability": "view",
					"type": "function"
				},
				{
					"inputs": [],
					"name": "jobContract",
					"outputs": [
						{
							"internalType": "contract IJobContract",
							"name": "",
							"type": "address"
						}
					],
					"stateMutability": "view",
					"type": "function"
				},
				{
					"inputs": [
						{
							"internalType": "uint256",
							"name": "",
							"type": "uint256"
						}
					],
					"name": "jobProcessed",
					"outputs": [
						{
							"internalType": "bool",
							"name": "",
							"type": "bool"
						}
					],
					"stateMutability": "view",
					"type": "function"
				},
				{
					"inputs": [
						{
							"internalType": "uint256",
							"name": "",
							"type": "uint256"
						}
					],
					"name": "jobTotalPaid",
					"outputs": [
						{
							"internalType": "uint256",
							"name": "",
							"type": "uint256"
						}
					],
					"stateMutability": "view",
					"type": "function"
				},
				{
					"inputs": [],
					"name": "owner",
					"outputs": [
						{
							"internalType": "address",
							"name": "",
							"type": "address"
						}
					],
					"stateMutability": "view",
					"type": "function"
				},
				{
					"inputs": [],
					"name": "renounceOwnership",
					"outputs": [],
					"stateMutability": "nonpayable",
					"type": "function"
				},
				{
					"inputs": [
						{
							"internalType": "uint256",
							"name": "",
							"type": "uint256"
						}
					],
					"name": "rewardBands",
					"outputs": [
						{
							"internalType": "uint256",
							"name": "minAmount",
							"type": "uint256"
						},
						{
							"internalType": "uint256",
							"name": "maxAmount",
							"type": "uint256"
						},
						{
							"internalType": "uint256",
							"name": "owPerDollar",
							"type": "uint256"
						}
					],
					"stateMutability": "view",
					"type": "function"
				},
				{
					"inputs": [
						{
							"internalType": "address",
							"name": "_jobContract",
							"type": "address"
						}
					],
					"name": "setJobContract",
					"outputs": [],
					"stateMutability": "nonpayable",
					"type": "function"
				},
				{
					"inputs": [
						{
							"internalType": "address",
							"name": "newOwner",
							"type": "address"
						}
					],
					"name": "transferOwnership",
					"outputs": [],
					"stateMutability": "nonpayable",
					"type": "function"
				},
				{
					"inputs": [
						{
							"internalType": "uint256",
							"name": "jobId",
							"type": "uint256"
						},
						{
							"internalType": "uint256",
							"name": "paidAmountUSDT",
							"type": "uint256"
						}
					],
					"name": "updateRewards",
					"outputs": [],
					"stateMutability": "nonpayable",
					"type": "function"
				},
				{
					"inputs": [
						{
							"internalType": "address",
							"name": "user",
							"type": "address"
						},
						{
							"internalType": "uint256",
							"name": "newAmount",
							"type": "uint256"
						}
					],
					"name": "updateUserCumulativeEarnings",
					"outputs": [],
					"stateMutability": "nonpayable",
					"type": "function"
				},
				{
					"inputs": [
						{
							"internalType": "address",
							"name": "user",
							"type": "address"
						},
						{
							"internalType": "uint256",
							"name": "newAmount",
							"type": "uint256"
						}
					],
					"name": "updateUserTotalOWTokens",
					"outputs": [],
					"stateMutability": "nonpayable",
					"type": "function"
				},
				{
					"inputs": [
						{
							"internalType": "address",
							"name": "",
							"type": "address"
						}
					],
					"name": "userCumulativeEarnings",
					"outputs": [
						{
							"internalType": "uint256",
							"name": "",
							"type": "uint256"
						}
					],
					"stateMutability": "view",
					"type": "function"
				},
				{
					"inputs": [
						{
							"internalType": "address",
							"name": "",
							"type": "address"
						}
					],
					"name": "userTotalOWTokens",
					"outputs": [
						{
							"internalType": "uint256",
							"name": "",
							"type": "uint256"
						}
					],
					"stateMutability": "view",
					"type": "function"
				}
			],
			"devdoc": {
				"errors": {
					"OwnableInvalidOwner(address)": [
						{
							"details": "The owner is not a valid owner account. (eg. `address(0)`)"
						}
					],
					"OwnableUnauthorizedAccount(address)": [
						{
							"details": "The caller account is not authorized to perform an operation."
						}
					]
				},
				"kind": "dev",
				"methods": {
					"owner()": {
						"details": "Returns the address of the current owner."
					},
					"renounceOwnership()": {
						"details": "Leaves the contract without owner. It will not be possible to call `onlyOwner` functions. Can only be called by the current owner. NOTE: Renouncing ownership will leave the contract without an owner, thereby disabling any functionality that is only available to the owner."
					},
					"transferOwnership(address)": {
						"details": "Transfers ownership of the contract to a new account (`newOwner`). Can only be called by the current owner."
					}
				},
				"version": 1
			},
			"evm": {
				"assembly": "    /* \"rewards-tracking-contract.sol\":1056:10741  contract RewardsTrackingContract is Ownable {... */\n  mstore(0x40, 0x80)\n    /* \"rewards-tracking-contract.sol\":2205:2290  constructor(address _owner) Ownable(_owner) {... */\n  callvalue\n  dup1\n  iszero\n  tag_1\n  jumpi\n  0x00\n  dup1\n  revert\ntag_1:\n  pop\n  mload(0x40)\n  sub(codesize, bytecodeSize)\n  dup1\n  bytecodeSize\n  dup4\n  codecopy\n  dup2\n  add\n  0x40\n  dup2\n  swap1\n  mstore\n  tag_2\n  swap2\n  tag_3\n  jump\t// in\ntag_2:\n    /* \"rewards-tracking-contract.sol\":2241:2247  _owner */\n  dup1\n  sub(shl(0xa0, 0x01), 0x01)\n    /* \"@openzeppelin/contracts/access/Ownable.sol\":1273:1299  initialOwner == address(0) */\n  dup2\n  and\n    /* \"@openzeppelin/contracts/access/Ownable.sol\":1269:1364  if (initialOwner == address(0)) {... */\n  tag_7\n  jumpi\n    /* \"@openzeppelin/contracts/access/Ownable.sol\":1322:1353  OwnableInvalidOwner(address(0)) */\n  mload(0x40)\n  shl(0xe0, 0x1e4fbdf7)\n  dup2\n  mstore\n    /* \"@openzeppelin/contracts/access/Ownable.sol\":1350:1351  0 */\n  0x00\n    /* \"@openzeppelin/contracts/access/Ownable.sol\":1322:1353  OwnableInvalidOwner(address(0)) */\n  0x04\n  dup3\n  add\n    /* \"#utility.yul\":455:506   */\n  mstore\n    /* \"#utility.yul\":428:446   */\n  0x24\n  add\n    /* \"@openzeppelin/contracts/access/Ownable.sol\":1322:1353  OwnableInvalidOwner(address(0)) */\n  mload(0x40)\n  dup1\n  swap2\n  sub\n  swap1\n  revert\n    /* \"@openzeppelin/contracts/access/Ownable.sol\":1269:1364  if (initialOwner == address(0)) {... */\ntag_7:\n    /* \"@openzeppelin/contracts/access/Ownable.sol\":1373:1405  _transferOwnership(initialOwner) */\n  tag_10\n    /* \"@openzeppelin/contracts/access/Ownable.sol\":1392:1404  initialOwner */\n  dup2\n    /* \"@openzeppelin/contracts/access/Ownable.sol\":1373:1391  _transferOwnership */\n  tag_11\n    /* \"@openzeppelin/contracts/access/Ownable.sol\":1373:1405  _transferOwnership(initialOwner) */\n  jump\t// in\ntag_10:\n  pop\n    /* \"rewards-tracking-contract.sol\":2259:2283  _initializeRewardBands() */\n  tag_13\n    /* \"rewards-tracking-contract.sol\":2568:2607  RewardBand(0, 500 * 1e6, 100000 * 1e18) */\n  0x40\n  dup1\n  mload\n  0x60\n  dup1\n  dup3\n  add\n  dup4\n  mstore\n  0x00\n  dup1\n  dup4\n  mstore\n    /* \"rewards-tracking-contract.sol\":2582:2591  500 * 1e6 */\n  0x1dcd6500\n    /* \"rewards-tracking-contract.sol\":2568:2607  RewardBand(0, 500 * 1e6, 100000 * 1e18) */\n  0x20\n  dup1\n  dup6\n  add\n  dup3\n  dup2\n  mstore\n    /* \"rewards-tracking-contract.sol\":2593:2606  100000 * 1e18 */\n  0x152d02c7e14af6800000\n    /* \"rewards-tracking-contract.sol\":2568:2607  RewardBand(0, 500 * 1e6, 100000 * 1e18) */\n  dup7\n  dup9\n  add\n  swap1\n  dup2\n  mstore\n    /* \"rewards-tracking-contract.sol\":2551:2562  rewardBands */\n  0x06\n    /* \"rewards-tracking-contract.sol\":2551:2608  rewardBands.push(RewardBand(0, 500 * 1e6, 100000 * 1e18)) */\n  dup1\n  sload\n  0x01\n  dup2\n  dup2\n  add\n  dup4\n  sstore\n  dup3\n  dup9\n  mstore\n  swap9\n  mload\n  0x03\n  swap2\n  dup3\n  mul\n  0xf652222313e28459528d920b65115c16c04f3efc82aaedc97be59f3f377c0d3f\n  dup2\n  dup2\n  add\n  swap3\n  swap1\n  swap3\n  sstore\n  swap5\n  mload\n  0xf652222313e28459528d920b65115c16c04f3efc82aaedc97be59f3f377c0d40\n  dup1\n  dup8\n  add\n  swap2\n  swap1\n  swap2\n  sstore\n  swap4\n  mload\n  0xf652222313e28459528d920b65115c16c04f3efc82aaedc97be59f3f377c0d41\n  swap6\n  dup7\n  add\n  sstore\n    /* \"rewards-tracking-contract.sol\":2666:2713  RewardBand(500 * 1e6, 1000 * 1e6, 50000 * 1e18) */\n  dup11\n  mload\n  dup1\n  dup11\n  add\n  dup13\n  mstore\n  swap7\n  dup8\n  mstore\n    /* \"rewards-tracking-contract.sol\":2688:2698  1000 * 1e6 */\n  0x3b9aca00\n    /* \"rewards-tracking-contract.sol\":2666:2713  RewardBand(500 * 1e6, 1000 * 1e6, 50000 * 1e18) */\n  dup8\n  dup8\n  add\n  dup2\n  dup2\n  mstore\n    /* \"rewards-tracking-contract.sol\":2700:2712  50000 * 1e18 */\n  0x0a968163f0a57b400000\n    /* \"rewards-tracking-contract.sol\":2666:2713  RewardBand(500 * 1e6, 1000 * 1e6, 50000 * 1e18) */\n  dup10\n  dup15\n  add\n  swap1\n  dup2\n  mstore\n    /* \"rewards-tracking-contract.sol\":2649:2714  rewardBands.push(RewardBand(500 * 1e6, 1000 * 1e6, 50000 * 1e18)) */\n  dup6\n  sload\n  dup1\n  dup15\n  add\n  dup8\n  sstore\n  dup7\n  dup13\n  mstore\n  swap10\n  mload\n  swap10\n  dup6\n  mul\n  dup1\n  dup6\n  add\n  swap11\n  swap1\n  swap11\n  sstore\n  swap1\n  mload\n  dup10\n  dup8\n  add\n  sstore\n  mload\n  swap8\n  dup7\n  add\n  swap8\n  swap1\n  swap8\n  sstore\n    /* \"rewards-tracking-contract.sol\":2775:2823  RewardBand(1000 * 1e6, 2000 * 1e6, 25000 * 1e18) */\n  dup11\n  mload\n  dup1\n  dup11\n  add\n  dup13\n  mstore\n  swap7\n  dup8\n  mstore\n    /* \"rewards-tracking-contract.sol\":2798:2808  2000 * 1e6 */\n  0x77359400\n    /* \"rewards-tracking-contract.sol\":2775:2823  RewardBand(1000 * 1e6, 2000 * 1e6, 25000 * 1e18) */\n  dup8\n  dup8\n  add\n  dup2\n  dup2\n  mstore\n    /* \"rewards-tracking-contract.sol\":2810:2822  25000 * 1e18 */\n  0x054b40b1f852bda00000\n    /* \"rewards-tracking-contract.sol\":2775:2823  RewardBand(1000 * 1e6, 2000 * 1e6, 25000 * 1e18) */\n  dup10\n  dup15\n  add\n  swap1\n  dup2\n  mstore\n    /* \"rewards-tracking-contract.sol\":2758:2824  rewardBands.push(RewardBand(1000 * 1e6, 2000 * 1e6, 25000 * 1e18)) */\n  dup6\n  sload\n  dup1\n  dup15\n  add\n  dup8\n  sstore\n  dup7\n  dup13\n  mstore\n  swap10\n  mload\n  swap10\n  dup6\n  mul\n  dup1\n  dup6\n  add\n  swap11\n  swap1\n  swap11\n  sstore\n  swap1\n  mload\n  dup10\n  dup8\n  add\n  sstore\n  mload\n  swap8\n  dup7\n  add\n  swap8\n  swap1\n  swap8\n  sstore\n    /* \"rewards-tracking-contract.sol\":2887:2935  RewardBand(2000 * 1e6, 4000 * 1e6, 12500 * 1e18) */\n  dup11\n  mload\n  dup1\n  dup11\n  add\n  dup13\n  mstore\n  swap7\n  dup8\n  mstore\n    /* \"rewards-tracking-contract.sol\":2910:2920  4000 * 1e6 */\n  0xee6b2800\n    /* \"rewards-tracking-contract.sol\":2887:2935  RewardBand(2000 * 1e6, 4000 * 1e6, 12500 * 1e18) */\n  dup8\n  dup8\n  add\n  dup2\n  dup2\n  mstore\n    /* \"rewards-tracking-contract.sol\":2922:2934  12500 * 1e18 */\n  0x02a5a058fc295ed00000\n    /* \"rewards-tracking-contract.sol\":2887:2935  RewardBand(2000 * 1e6, 4000 * 1e6, 12500 * 1e18) */\n  dup10\n  dup15\n  add\n  swap1\n  dup2\n  mstore\n    /* \"rewards-tracking-contract.sol\":2870:2936  rewardBands.push(RewardBand(2000 * 1e6, 4000 * 1e6, 12500 * 1e18)) */\n  dup6\n  sload\n  dup1\n  dup15\n  add\n  dup8\n  sstore\n  dup7\n  dup13\n  mstore\n  swap10\n  mload\n  swap10\n  dup6\n  mul\n  dup1\n  dup6\n  add\n  swap11\n  swap1\n  swap11\n  sstore\n  swap1\n  mload\n  dup10\n  dup8\n  add\n  sstore\n  mload\n  swap8\n  dup7\n  add\n  swap8\n  swap1\n  swap8\n  sstore\n    /* \"rewards-tracking-contract.sol\":2999:3046  RewardBand(4000 * 1e6, 8000 * 1e6, 6250 * 1e18) */\n  dup11\n  mload\n  dup1\n  dup11\n  add\n  dup13\n  mstore\n  swap7\n  dup8\n  mstore\n    /* \"rewards-tracking-contract.sol\":3022:3032  8000 * 1e6 */\n  0x01dcd65000\n    /* \"rewards-tracking-contract.sol\":2999:3046  RewardBand(4000 * 1e6, 8000 * 1e6, 6250 * 1e18) */\n  dup8\n  dup8\n  add\n  dup2\n  dup2\n  mstore\n    /* \"rewards-tracking-contract.sol\":3034:3045  6250 * 1e18 */\n  0x0152d02c7e14af680000\n    /* \"rewards-tracking-contract.sol\":2999:3046  RewardBand(4000 * 1e6, 8000 * 1e6, 6250 * 1e18) */\n  dup10\n  dup15\n  add\n  swap1\n  dup2\n  mstore\n    /* \"rewards-tracking-contract.sol\":2982:3047  rewardBands.push(RewardBand(4000 * 1e6, 8000 * 1e6, 6250 * 1e18)) */\n  dup6\n  sload\n  dup1\n  dup15\n  add\n  dup8\n  sstore\n  dup7\n  dup13\n  mstore\n  swap10\n  mload\n  swap10\n  dup6\n  mul\n  dup1\n  dup6\n  add\n  swap11\n  swap1\n  swap11\n  sstore\n  swap1\n  mload\n  dup10\n  dup8\n  add\n  sstore\n  mload\n  swap8\n  dup7\n  add\n  swap8\n  swap1\n  swap8\n  sstore\n    /* \"rewards-tracking-contract.sol\":3109:3157  RewardBand(8000 * 1e6, 16000 * 1e6, 3125 * 1e18) */\n  dup11\n  mload\n  dup1\n  dup11\n  add\n  dup13\n  mstore\n  swap7\n  dup8\n  mstore\n    /* \"rewards-tracking-contract.sol\":3132:3143  16000 * 1e6 */\n  0x03b9aca000\n    /* \"rewards-tracking-contract.sol\":3109:3157  RewardBand(8000 * 1e6, 16000 * 1e6, 3125 * 1e18) */\n  dup8\n  dup8\n  add\n  dup2\n  dup2\n  mstore\n    /* \"rewards-tracking-contract.sol\":3145:3156  3125 * 1e18 */\n  0xa968163f0a57b40000\n    /* \"rewards-tracking-contract.sol\":3109:3157  RewardBand(8000 * 1e6, 16000 * 1e6, 3125 * 1e18) */\n  dup10\n  dup15\n  add\n  swap1\n  dup2\n  mstore\n    /* \"rewards-tracking-contract.sol\":3092:3158  rewardBands.push(RewardBand(8000 * 1e6, 16000 * 1e6, 3125 * 1e18)) */\n  dup6\n  sload\n  dup1\n  dup15\n  add\n  dup8\n  sstore\n  dup7\n  dup13\n  mstore\n  swap10\n  mload\n  swap10\n  dup6\n  mul\n  dup1\n  dup6\n  add\n  swap11\n  swap1\n  swap11\n  sstore\n  swap1\n  mload\n  dup10\n  dup8\n  add\n  sstore\n  mload\n  swap8\n  dup7\n  add\n  swap8\n  swap1\n  swap8\n  sstore\n    /* \"rewards-tracking-contract.sol\":3221:3270  RewardBand(16000 * 1e6, 32000 * 1e6, 1562 * 1e18) */\n  dup11\n  mload\n  dup1\n  dup11\n  add\n  dup13\n  mstore\n  swap7\n  dup8\n  mstore\n    /* \"rewards-tracking-contract.sol\":3245:3256  32000 * 1e6 */\n  0x0773594000\n    /* \"rewards-tracking-contract.sol\":3221:3270  RewardBand(16000 * 1e6, 32000 * 1e6, 1562 * 1e18) */\n  dup8\n  dup8\n  add\n  dup2\n  dup2\n  mstore\n    /* \"rewards-tracking-contract.sol\":3258:3269  1562 * 1e18 */\n  0x54ad1ac42b58280000\n    /* \"rewards-tracking-contract.sol\":3221:3270  RewardBand(16000 * 1e6, 32000 * 1e6, 1562 * 1e18) */\n  dup10\n  dup15\n  add\n  swap1\n  dup2\n  mstore\n    /* \"rewards-tracking-contract.sol\":3204:3271  rewardBands.push(RewardBand(16000 * 1e6, 32000 * 1e6, 1562 * 1e18)) */\n  dup6\n  sload\n  dup1\n  dup15\n  add\n  dup8\n  sstore\n  dup7\n  dup13\n  mstore\n  swap10\n  mload\n  swap10\n  dup6\n  mul\n  dup1\n  dup6\n  add\n  swap11\n  swap1\n  swap11\n  sstore\n  swap1\n  mload\n  dup10\n  dup8\n  add\n  sstore\n  mload\n  swap8\n  dup7\n  add\n  swap8\n  swap1\n  swap8\n  sstore\n    /* \"rewards-tracking-contract.sol\":3335:3383  RewardBand(32000 * 1e6, 64000 * 1e6, 781 * 1e18) */\n  dup11\n  mload\n  dup1\n  dup11\n  add\n  dup13\n  mstore\n  swap7\n  dup8\n  mstore\n    /* \"rewards-tracking-contract.sol\":3359:3370  64000 * 1e6 */\n  0x0ee6b28000\n    /* \"rewards-tracking-contract.sol\":3335:3383  RewardBand(32000 * 1e6, 64000 * 1e6, 781 * 1e18) */\n  dup8\n  dup8\n  add\n  dup2\n  dup2\n  mstore\n    /* \"rewards-tracking-contract.sol\":3372:3382  781 * 1e18 */\n  0x2a568d6215ac140000\n    /* \"rewards-tracking-contract.sol\":3335:3383  RewardBand(32000 * 1e6, 64000 * 1e6, 781 * 1e18) */\n  dup10\n  dup15\n  add\n  swap1\n  dup2\n  mstore\n    /* \"rewards-tracking-contract.sol\":3318:3384  rewardBands.push(RewardBand(32000 * 1e6, 64000 * 1e6, 781 * 1e18)) */\n  dup6\n  sload\n  dup1\n  dup15\n  add\n  dup8\n  sstore\n  dup7\n  dup13\n  mstore\n  swap10\n  mload\n  swap10\n  dup6\n  mul\n  dup1\n  dup6\n  add\n  swap11\n  swap1\n  swap11\n  sstore\n  swap1\n  mload\n  dup10\n  dup8\n  add\n  sstore\n  mload\n  swap8\n  dup7\n  add\n  swap8\n  swap1\n  swap8\n  sstore\n    /* \"rewards-tracking-contract.sol\":3446:3495  RewardBand(64000 * 1e6, 128000 * 1e6, 391 * 1e18) */\n  dup11\n  mload\n  dup1\n  dup11\n  add\n  dup13\n  mstore\n  swap7\n  dup8\n  mstore\n    /* \"rewards-tracking-contract.sol\":3470:3482  128000 * 1e6 */\n  0x1dcd650000\n    /* \"rewards-tracking-contract.sol\":3446:3495  RewardBand(64000 * 1e6, 128000 * 1e6, 391 * 1e18) */\n  dup8\n  dup8\n  add\n  dup2\n  dup2\n  mstore\n    /* \"rewards-tracking-contract.sol\":3484:3494  391 * 1e18 */\n  0x1532370c64a9bc0000\n    /* \"rewards-tracking-contract.sol\":3446:3495  RewardBand(64000 * 1e6, 128000 * 1e6, 391 * 1e18) */\n  dup10\n  dup15\n  add\n  swap1\n  dup2\n  mstore\n    /* \"rewards-tracking-contract.sol\":3429:3496  rewardBands.push(RewardBand(64000 * 1e6, 128000 * 1e6, 391 * 1e18)) */\n  dup6\n  sload\n  dup1\n  dup15\n  add\n  dup8\n  sstore\n  dup7\n  dup13\n  mstore\n  swap10\n  mload\n  swap10\n  dup6\n  mul\n  dup1\n  dup6\n  add\n  swap11\n  swap1\n  swap11\n  sstore\n  swap1\n  mload\n  dup10\n  dup8\n  add\n  sstore\n  mload\n  swap8\n  dup7\n  add\n  swap8\n  swap1\n  swap8\n  sstore\n    /* \"rewards-tracking-contract.sol\":3559:3609  RewardBand(128000 * 1e6, 256000 * 1e6, 195 * 1e18) */\n  dup11\n  mload\n  dup1\n  dup11\n  add\n  dup13\n  mstore\n  swap7\n  dup8\n  mstore\n    /* \"rewards-tracking-contract.sol\":3584:3596  256000 * 1e6 */\n  0x3b9aca0000\n    /* \"rewards-tracking-contract.sol\":3559:3609  RewardBand(128000 * 1e6, 256000 * 1e6, 195 * 1e18) */\n  dup8\n  dup8\n  add\n  dup2\n  dup2\n  mstore\n    /* \"rewards-tracking-contract.sol\":3598:3608  195 * 1e18 */\n  0x0a922b2ad8812c0000\n    /* \"rewards-tracking-contract.sol\":3559:3609  RewardBand(128000 * 1e6, 256000 * 1e6, 195 * 1e18) */\n  dup10\n  dup15\n  add\n  swap1\n  dup2\n  mstore\n    /* \"rewards-tracking-contract.sol\":3542:3610  rewardBands.push(RewardBand(128000 * 1e6, 256000 * 1e6, 195 * 1e18)) */\n  dup6\n  sload\n  dup1\n  dup15\n  add\n  dup8\n  sstore\n  dup7\n  dup13\n  mstore\n  swap10\n  mload\n  swap10\n  dup6\n  mul\n  dup1\n  dup6\n  add\n  swap11\n  swap1\n  swap11\n  sstore\n  swap1\n  mload\n  dup10\n  dup8\n  add\n  sstore\n  mload\n  swap8\n  dup7\n  add\n  swap8\n  swap1\n  swap8\n  sstore\n    /* \"rewards-tracking-contract.sol\":3674:3723  RewardBand(256000 * 1e6, 512000 * 1e6, 98 * 1e18) */\n  dup11\n  mload\n  dup1\n  dup11\n  add\n  dup13\n  mstore\n  swap7\n  dup8\n  mstore\n    /* \"rewards-tracking-contract.sol\":3699:3711  512000 * 1e6 */\n  0x7735940000\n    /* \"rewards-tracking-contract.sol\":3674:3723  RewardBand(256000 * 1e6, 512000 * 1e6, 98 * 1e18) */\n  dup8\n  dup8\n  add\n  dup2\n  dup2\n  mstore\n    /* \"rewards-tracking-contract.sol\":3713:3722  98 * 1e18 */\n  0x055005f0c614480000\n    /* \"rewards-tracking-contract.sol\":3674:3723  RewardBand(256000 * 1e6, 512000 * 1e6, 98 * 1e18) */\n  dup10\n  dup15\n  add\n  swap1\n  dup2\n  mstore\n    /* \"rewards-tracking-contract.sol\":3657:3724  rewardBands.push(RewardBand(256000 * 1e6, 512000 * 1e6, 98 * 1e18)) */\n  dup6\n  sload\n  dup1\n  dup15\n  add\n  dup8\n  sstore\n  dup7\n  dup13\n  mstore\n  swap10\n  mload\n  swap10\n  dup6\n  mul\n  dup1\n  dup6\n  add\n  swap11\n  swap1\n  swap11\n  sstore\n  swap1\n  mload\n  dup10\n  dup8\n  add\n  sstore\n  mload\n  swap8\n  dup7\n  add\n  swap8\n  swap1\n  swap8\n  sstore\n    /* \"rewards-tracking-contract.sol\":3787:3837  RewardBand(512000 * 1e6, 1024000 * 1e6, 49 * 1e18) */\n  dup11\n  mload\n  dup1\n  dup11\n  add\n  dup13\n  mstore\n  swap7\n  dup8\n  mstore\n    /* \"rewards-tracking-contract.sol\":3812:3825  1024000 * 1e6 */\n  0xee6b280000\n    /* \"rewards-tracking-contract.sol\":3787:3837  RewardBand(512000 * 1e6, 1024000 * 1e6, 49 * 1e18) */\n  dup8\n  dup8\n  add\n  dup2\n  dup2\n  mstore\n    /* \"rewards-tracking-contract.sol\":3827:3836  49 * 1e18 */\n  0x02a802f8630a240000\n    /* \"rewards-tracking-contract.sol\":3787:3837  RewardBand(512000 * 1e6, 1024000 * 1e6, 49 * 1e18) */\n  dup10\n  dup15\n  add\n  swap1\n  dup2\n  mstore\n    /* \"rewards-tracking-contract.sol\":3770:3838  rewardBands.push(RewardBand(512000 * 1e6, 1024000 * 1e6, 49 * 1e18)) */\n  dup6\n  sload\n  dup1\n  dup15\n  add\n  dup8\n  sstore\n  dup7\n  dup13\n  mstore\n  swap10\n  mload\n  swap10\n  dup6\n  mul\n  dup1\n  dup6\n  add\n  swap11\n  swap1\n  swap11\n  sstore\n  swap1\n  mload\n  dup10\n  dup8\n  add\n  sstore\n  mload\n  swap8\n  dup7\n  add\n  swap8\n  swap1\n  swap8\n  sstore\n    /* \"rewards-tracking-contract.sol\":3900:3951  RewardBand(1024000 * 1e6, 2048000 * 1e6, 24 * 1e18) */\n  dup11\n  mload\n  dup1\n  dup11\n  add\n  dup13\n  mstore\n  swap7\n  dup8\n  mstore\n    /* \"rewards-tracking-contract.sol\":3926:3939  2048000 * 1e6 */\n  0x01dcd6500000\n    /* \"rewards-tracking-contract.sol\":3900:3951  RewardBand(1024000 * 1e6, 2048000 * 1e6, 24 * 1e18) */\n  dup8\n  dup8\n  add\n  dup2\n  dup2\n  mstore\n    /* \"rewards-tracking-contract.sol\":3941:3950  24 * 1e18 */\n  0x014d1120d7b1600000\n    /* \"rewards-tracking-contract.sol\":3900:3951  RewardBand(1024000 * 1e6, 2048000 * 1e6, 24 * 1e18) */\n  dup10\n  dup15\n  add\n  swap1\n  dup2\n  mstore\n    /* \"rewards-tracking-contract.sol\":3883:3952  rewardBands.push(RewardBand(1024000 * 1e6, 2048000 * 1e6, 24 * 1e18)) */\n  dup6\n  sload\n  dup1\n  dup15\n  add\n  dup8\n  sstore\n  dup7\n  dup13\n  mstore\n  swap10\n  mload\n  swap10\n  dup6\n  mul\n  dup1\n  dup6\n  add\n  swap11\n  swap1\n  swap11\n  sstore\n  swap1\n  mload\n  dup10\n  dup8\n  add\n  sstore\n  mload\n  swap8\n  dup7\n  add\n  swap8\n  swap1\n  swap8\n  sstore\n    /* \"rewards-tracking-contract.sol\":4013:4064  RewardBand(2048000 * 1e6, 4096000 * 1e6, 12 * 1e18) */\n  dup11\n  mload\n  dup1\n  dup11\n  add\n  dup13\n  mstore\n  swap7\n  dup8\n  mstore\n    /* \"rewards-tracking-contract.sol\":4039:4052  4096000 * 1e6 */\n  0x03b9aca00000\n    /* \"rewards-tracking-contract.sol\":4013:4064  RewardBand(2048000 * 1e6, 4096000 * 1e6, 12 * 1e18) */\n  dup8\n  dup8\n  add\n  dup2\n  dup2\n  mstore\n    /* \"rewards-tracking-contract.sol\":4054:4063  12 * 1e18 */\n  0xa688906bd8b00000\n    /* \"rewards-tracking-contract.sol\":4013:4064  RewardBand(2048000 * 1e6, 4096000 * 1e6, 12 * 1e18) */\n  dup10\n  dup15\n  add\n  swap1\n  dup2\n  mstore\n    /* \"rewards-tracking-contract.sol\":3996:4065  rewardBands.push(RewardBand(2048000 * 1e6, 4096000 * 1e6, 12 * 1e18)) */\n  dup6\n  sload\n  dup1\n  dup15\n  add\n  dup8\n  sstore\n  dup7\n  dup13\n  mstore\n  swap10\n  mload\n  swap10\n  dup6\n  mul\n  dup1\n  dup6\n  add\n  swap11\n  swap1\n  swap11\n  sstore\n  swap1\n  mload\n  dup10\n  dup8\n  add\n  sstore\n  mload\n  swap8\n  dup7\n  add\n  swap8\n  swap1\n  swap8\n  sstore\n    /* \"rewards-tracking-contract.sol\":4126:4176  RewardBand(4096000 * 1e6, 8192000 * 1e6, 6 * 1e18) */\n  dup11\n  mload\n  dup1\n  dup11\n  add\n  dup13\n  mstore\n  swap7\n  dup8\n  mstore\n    /* \"rewards-tracking-contract.sol\":4152:4165  8192000 * 1e6 */\n  0x077359400000\n    /* \"rewards-tracking-contract.sol\":4126:4176  RewardBand(4096000 * 1e6, 8192000 * 1e6, 6 * 1e18) */\n  dup8\n  dup8\n  add\n  dup2\n  dup2\n  mstore\n    /* \"rewards-tracking-contract.sol\":4167:4175  6 * 1e18 */\n  0x53444835ec580000\n    /* \"rewards-tracking-contract.sol\":4126:4176  RewardBand(4096000 * 1e6, 8192000 * 1e6, 6 * 1e18) */\n  dup10\n  dup15\n  add\n  swap1\n  dup2\n  mstore\n    /* \"rewards-tracking-contract.sol\":4109:4177  rewardBands.push(RewardBand(4096000 * 1e6, 8192000 * 1e6, 6 * 1e18)) */\n  dup6\n  sload\n  dup1\n  dup15\n  add\n  dup8\n  sstore\n  dup7\n  dup13\n  mstore\n  swap10\n  mload\n  swap10\n  dup6\n  mul\n  dup1\n  dup6\n  add\n  swap11\n  swap1\n  swap11\n  sstore\n  swap1\n  mload\n  dup10\n  dup8\n  add\n  sstore\n  mload\n  swap8\n  dup7\n  add\n  swap8\n  swap1\n  swap8\n  sstore\n    /* \"rewards-tracking-contract.sol\":4237:4288  RewardBand(8192000 * 1e6, 16384000 * 1e6, 3 * 1e18) */\n  dup11\n  mload\n  dup1\n  dup11\n  add\n  dup13\n  mstore\n  swap7\n  dup8\n  mstore\n    /* \"rewards-tracking-contract.sol\":4263:4277  16384000 * 1e6 */\n  0x0ee6b2800000\n    /* \"rewards-tracking-contract.sol\":4237:4288  RewardBand(8192000 * 1e6, 16384000 * 1e6, 3 * 1e18) */\n  dup8\n  dup8\n  add\n  dup2\n  dup2\n  mstore\n    /* \"rewards-tracking-contract.sol\":4279:4287  3 * 1e18 */\n  0x29a2241af62c0000\n    /* \"rewards-tracking-contract.sol\":4237:4288  RewardBand(8192000 * 1e6, 16384000 * 1e6, 3 * 1e18) */\n  dup10\n  dup15\n  add\n  swap1\n  dup2\n  mstore\n    /* \"rewards-tracking-contract.sol\":4220:4289  rewardBands.push(RewardBand(8192000 * 1e6, 16384000 * 1e6, 3 * 1e18)) */\n  dup6\n  sload\n  dup1\n  dup15\n  add\n  dup8\n  sstore\n  dup7\n  dup13\n  mstore\n  swap10\n  mload\n  swap10\n  dup6\n  mul\n  dup1\n  dup6\n  add\n  swap11\n  swap1\n  swap11\n  sstore\n  swap1\n  mload\n  dup10\n  dup8\n  add\n  sstore\n  mload\n  swap8\n  dup7\n  add\n  swap8\n  swap1\n  swap8\n  sstore\n    /* \"rewards-tracking-contract.sol\":4350:4403  RewardBand(16384000 * 1e6, 32768000 * 1e6, 15 * 1e17) */\n  dup11\n  mload\n  dup1\n  dup11\n  add\n  dup13\n  mstore\n  swap7\n  dup8\n  mstore\n    /* \"rewards-tracking-contract.sol\":4377:4391  32768000 * 1e6 */\n  0x1dcd65000000\n    /* \"rewards-tracking-contract.sol\":4350:4403  RewardBand(16384000 * 1e6, 32768000 * 1e6, 15 * 1e17) */\n  dup8\n  dup8\n  add\n  dup2\n  dup2\n  mstore\n    /* \"rewards-tracking-contract.sol\":4393:4402  15 * 1e17 */\n  0x14d1120d7b160000\n    /* \"rewards-tracking-contract.sol\":4350:4403  RewardBand(16384000 * 1e6, 32768000 * 1e6, 15 * 1e17) */\n  dup10\n  dup15\n  add\n  swap1\n  dup2\n  mstore\n    /* \"rewards-tracking-contract.sol\":4333:4404  rewardBands.push(RewardBand(16384000 * 1e6, 32768000 * 1e6, 15 * 1e17)) */\n  dup6\n  sload\n  dup1\n  dup15\n  add\n  dup8\n  sstore\n  dup7\n  dup13\n  mstore\n  swap10\n  mload\n  swap10\n  dup6\n  mul\n  dup1\n  dup6\n  add\n  swap11\n  swap1\n  swap11\n  sstore\n  swap1\n  mload\n  dup10\n  dup8\n  add\n  sstore\n  mload\n  swap8\n  dup7\n  add\n  swap8\n  swap1\n  swap8\n  sstore\n    /* \"rewards-tracking-contract.sol\":4468:4521  RewardBand(32768000 * 1e6, 65536000 * 1e6, 75 * 1e16) */\n  dup11\n  mload\n  dup1\n  dup11\n  add\n  dup13\n  mstore\n  swap7\n  dup8\n  mstore\n    /* \"rewards-tracking-contract.sol\":4495:4509  65536000 * 1e6 */\n  0x3b9aca000000\n    /* \"rewards-tracking-contract.sol\":4468:4521  RewardBand(32768000 * 1e6, 65536000 * 1e6, 75 * 1e16) */\n  dup8\n  dup8\n  add\n  dup2\n  dup2\n  mstore\n    /* \"rewards-tracking-contract.sol\":4511:4520  75 * 1e16 */\n  0x0a688906bd8b0000\n    /* \"rewards-tracking-contract.sol\":4468:4521  RewardBand(32768000 * 1e6, 65536000 * 1e6, 75 * 1e16) */\n  dup10\n  dup15\n  add\n  swap1\n  dup2\n  mstore\n    /* \"rewards-tracking-contract.sol\":4451:4522  rewardBands.push(RewardBand(32768000 * 1e6, 65536000 * 1e6, 75 * 1e16)) */\n  dup6\n  sload\n  dup1\n  dup15\n  add\n  dup8\n  sstore\n  dup7\n  dup13\n  mstore\n  swap10\n  mload\n  swap10\n  dup6\n  mul\n  dup1\n  dup6\n  add\n  swap11\n  swap1\n  swap11\n  sstore\n  swap1\n  mload\n  dup10\n  dup8\n  add\n  sstore\n  mload\n  swap8\n  dup7\n  add\n  swap8\n  swap1\n  swap8\n  sstore\n    /* \"rewards-tracking-contract.sol\":4587:4641  RewardBand(65536000 * 1e6, 131072000 * 1e6, 38 * 1e16) */\n  dup11\n  mload\n  dup1\n  dup11\n  add\n  dup13\n  mstore\n  swap7\n  dup8\n  mstore\n    /* \"rewards-tracking-contract.sol\":4614:4629  131072000 * 1e6 */\n  0x773594000000\n    /* \"rewards-tracking-contract.sol\":4587:4641  RewardBand(65536000 * 1e6, 131072000 * 1e6, 38 * 1e16) */\n  dup8\n  dup8\n  add\n  dup2\n  dup2\n  mstore\n    /* \"rewards-tracking-contract.sol\":4631:4640  38 * 1e16 */\n  0x054607fc96a60000\n    /* \"rewards-tracking-contract.sol\":4587:4641  RewardBand(65536000 * 1e6, 131072000 * 1e6, 38 * 1e16) */\n  dup10\n  dup15\n  add\n  swap1\n  dup2\n  mstore\n    /* \"rewards-tracking-contract.sol\":4570:4642  rewardBands.push(RewardBand(65536000 * 1e6, 131072000 * 1e6, 38 * 1e16)) */\n  dup6\n  sload\n  dup1\n  dup15\n  add\n  dup8\n  sstore\n  dup7\n  dup13\n  mstore\n  swap10\n  mload\n  swap10\n  dup6\n  mul\n  dup1\n  dup6\n  add\n  swap11\n  swap1\n  swap11\n  sstore\n  swap1\n  mload\n  dup10\n  dup8\n  add\n  sstore\n  mload\n  swap8\n  dup7\n  add\n  swap8\n  swap1\n  swap8\n  sstore\n    /* \"rewards-tracking-contract.sol\":4708:4765  RewardBand(131072000 * 1e6, type(uint256).max, 19 * 1e16) */\n  dup11\n  mload\n  swap9\n  dup10\n  add\n  dup12\n  mstore\n  swap6\n  dup9\n  mstore\n  not(0x00)\n  swap5\n  dup9\n  add\n  swap5\n  dup6\n  mstore\n    /* \"rewards-tracking-contract.sol\":4755:4764  19 * 1e16 */\n  0x02a303fe4b530000\n    /* \"rewards-tracking-contract.sol\":4708:4765  RewardBand(131072000 * 1e6, type(uint256).max, 19 * 1e16) */\n  swap10\n  dup9\n  add\n  swap10\n  dup11\n  mstore\n    /* \"rewards-tracking-contract.sol\":4691:4766  rewardBands.push(RewardBand(131072000 * 1e6, type(uint256).max, 19 * 1e16)) */\n  dup2\n  sload\n  swap9\n  dup10\n  add\n  dup3\n  sstore\n  swap6\n  mstore\n  swap5\n  mload\n  swap6\n  swap1\n  swap4\n  mul\n  swap2\n  dup3\n  add\n  swap5\n  swap1\n  swap5\n  sstore\n  swap3\n  mload\n  swap2\n  dup4\n  add\n  swap2\n  swap1\n  swap2\n  sstore\n  swap2\n  mload\n  swap2\n  add\n  sstore\n    /* \"rewards-tracking-contract.sol\":2432:4802  function _initializeRewardBands() private {... */\n  jump\n    /* \"rewards-tracking-contract.sol\":2259:2283  _initializeRewardBands() */\ntag_13:\n    /* \"rewards-tracking-contract.sol\":2205:2290  constructor(address _owner) Ownable(_owner) {... */\n  pop\n    /* \"rewards-tracking-contract.sol\":1056:10741  contract RewardsTrackingContract is Ownable {... */\n  jump(tag_38)\n    /* \"@openzeppelin/contracts/access/Ownable.sol\":2912:3099  function _transferOwnership(address newOwner) internal virtual {... */\ntag_11:\n    /* \"@openzeppelin/contracts/access/Ownable.sol\":2985:3001  address oldOwner */\n  0x00\n    /* \"@openzeppelin/contracts/access/Ownable.sol\":3004:3010  _owner */\n  dup1\n  sload\n  sub(shl(0xa0, 0x01), 0x01)\n    /* \"@openzeppelin/contracts/access/Ownable.sol\":3020:3037  _owner = newOwner */\n  dup4\n  dup2\n  and\n  not(sub(shl(0xa0, 0x01), 0x01))\n  dup4\n  and\n  dup2\n  or\n  dup5\n  sstore\n    /* \"@openzeppelin/contracts/access/Ownable.sol\":3052:3092  OwnershipTransferred(oldOwner, newOwner) */\n  mload(0x40)\n    /* \"@openzeppelin/contracts/access/Ownable.sol\":3004:3010  _owner */\n  swap2\n  swap1\n  swap3\n  and\n  swap3\n  dup4\n  swap2\n    /* \"@openzeppelin/contracts/access/Ownable.sol\":3052:3092  OwnershipTransferred(oldOwner, newOwner) */\n  0x8be0079c531659141344cd1fd0a4f28419497f9722a3daafe3b4186f6b6457e0\n  swap2\n    /* \"@openzeppelin/contracts/access/Ownable.sol\":2985:3001  address oldOwner */\n  swap1\n    /* \"@openzeppelin/contracts/access/Ownable.sol\":3052:3092  OwnershipTransferred(oldOwner, newOwner) */\n  log3\n    /* \"@openzeppelin/contracts/access/Ownable.sol\":2975:3099  {... */\n  pop\n    /* \"@openzeppelin/contracts/access/Ownable.sol\":2912:3099  function _transferOwnership(address newOwner) internal virtual {... */\n  pop\n  jump\t// out\n    /* \"#utility.yul\":14:304   */\ntag_3:\n    /* \"#utility.yul\":84:90   */\n  0x00\n    /* \"#utility.yul\":137:139   */\n  0x20\n    /* \"#utility.yul\":125:134   */\n  dup3\n    /* \"#utility.yul\":116:123   */\n  dup5\n    /* \"#utility.yul\":112:135   */\n  sub\n    /* \"#utility.yul\":108:140   */\n  slt\n    /* \"#utility.yul\":105:157   */\n  iszero\n  tag_40\n  jumpi\n    /* \"#utility.yul\":153:154   */\n  0x00\n    /* \"#utility.yul\":150:151   */\n  dup1\n    /* \"#utility.yul\":143:155   */\n  revert\n    /* \"#utility.yul\":105:157   */\ntag_40:\n    /* \"#utility.yul\":179:195   */\n  dup2\n  mload\n  sub(shl(0xa0, 0x01), 0x01)\n    /* \"#utility.yul\":224:255   */\n  dup2\n  and\n    /* \"#utility.yul\":214:256   */\n  dup2\n  eq\n    /* \"#utility.yul\":204:274   */\n  tag_41\n  jumpi\n    /* \"#utility.yul\":270:271   */\n  0x00\n    /* \"#utility.yul\":267:268   */\n  dup1\n    /* \"#utility.yul\":260:272   */\n  revert\n    /* \"#utility.yul\":204:274   */\ntag_41:\n    /* \"#utility.yul\":293:298   */\n  swap4\n    /* \"#utility.yul\":14:304   */\n  swap3\n  pop\n  pop\n  pop\n  jump\t// out\n    /* \"#utility.yul\":309:512   */\ntag_38:\n    /* \"rewards-tracking-contract.sol\":1056:10741  contract RewardsTrackingContract is Ownable {... */\n  dataSize(sub_0)\n  dup1\n  dataOffset(sub_0)\n  0x00\n  codecopy\n  0x00\n  return\nstop\n\nsub_0: assembly {\n        /* \"rewards-tracking-contract.sol\":1056:10741  contract RewardsTrackingContract is Ownable {... */\n      mstore(0x40, 0x80)\n      callvalue\n      dup1\n      iszero\n      tag_1\n      jumpi\n      0x00\n      dup1\n      revert\n    tag_1:\n      pop\n      jumpi(tag_2, lt(calldatasize, 0x04))\n      shr(0xe0, calldataload(0x00))\n      dup1\n      0x8da5cb5b\n      gt\n      tag_24\n      jumpi\n      dup1\n      0xafd86a76\n      gt\n      tag_25\n      jumpi\n      dup1\n      0xafd86a76\n      eq\n      tag_18\n      jumpi\n      dup1\n      0xb014dc11\n      eq\n      tag_19\n      jumpi\n      dup1\n      0xba69e410\n      eq\n      tag_20\n      jumpi\n      dup1\n      0xf10f9a69\n      eq\n      tag_21\n      jumpi\n      dup1\n      0xf2fde38b\n      eq\n      tag_22\n      jumpi\n      dup1\n      0xfad58b21\n      eq\n      tag_23\n      jumpi\n      0x00\n      dup1\n      revert\n    tag_25:\n      dup1\n      0x8da5cb5b\n      eq\n      tag_13\n      jumpi\n      dup1\n      0x94928b84\n      eq\n      tag_14\n      jumpi\n      dup1\n      0x97e50818\n      eq\n      tag_15\n      jumpi\n      dup1\n      0x9bd8bd9e\n      eq\n      tag_16\n      jumpi\n      dup1\n      0xac16ba1d\n      eq\n      tag_17\n      jumpi\n      0x00\n      dup1\n      revert\n    tag_24:\n      dup1\n      0x5183d667\n      gt\n      tag_26\n      jumpi\n      dup1\n      0x5183d667\n      eq\n      tag_8\n      jumpi\n      dup1\n      0x6a55b7ca\n      eq\n      tag_9\n      jumpi\n      dup1\n      0x715018a6\n      eq\n      tag_10\n      jumpi\n      dup1\n      0x7e1fdbe8\n      eq\n      tag_11\n      jumpi\n      dup1\n      0x81d920ec\n      eq\n      tag_12\n      jumpi\n      0x00\n      dup1\n      revert\n    tag_26:\n      dup1\n      0x22834ddb\n      eq\n      tag_3\n      jumpi\n      dup1\n      0x2330ce70\n      eq\n      tag_4\n      jumpi\n      dup1\n      0x272e5a52\n      eq\n      tag_5\n      jumpi\n      dup1\n      0x2ebd9978\n      eq\n      tag_6\n      jumpi\n      dup1\n      0x4a9fefc7\n      eq\n      tag_7\n      jumpi\n    tag_2:\n      0x00\n      dup1\n      revert\n        /* \"rewards-tracking-contract.sol\":9577:9682  function getRewardBandsCount() external view returns (uint256) {... */\n    tag_3:\n        /* \"rewards-tracking-contract.sol\":9657:9668  rewardBands */\n      0x06\n        /* \"rewards-tracking-contract.sol\":9657:9675  rewardBands.length */\n      sload\n        /* \"rewards-tracking-contract.sol\":9577:9682  function getRewardBandsCount() external view returns (uint256) {... */\n    tag_27:\n      mload(0x40)\n        /* \"#utility.yul\":160:185   */\n      swap1\n      dup2\n      mstore\n        /* \"#utility.yul\":148:150   */\n      0x20\n        /* \"#utility.yul\":133:151   */\n      add\n        /* \"rewards-tracking-contract.sol\":9577:9682  function getRewardBandsCount() external view returns (uint256) {... */\n    tag_29:\n      mload(0x40)\n      dup1\n      swap2\n      sub\n      swap1\n      return\n        /* \"rewards-tracking-contract.sol\":9176:9309  function getUserCumulativeEarnings(address user) external view returns (uint256) {... */\n    tag_4:\n      tag_27\n      tag_32\n      calldatasize\n      0x04\n      tag_33\n      jump\t// in\n    tag_32:\n      sub(shl(0xa0, 0x01), 0x01)\n        /* \"rewards-tracking-contract.sol\":9274:9302  userCumulativeEarnings[user] */\n      and\n        /* \"rewards-tracking-contract.sol\":9248:9255  uint256 */\n      0x00\n        /* \"rewards-tracking-contract.sol\":9274:9302  userCumulativeEarnings[user] */\n      swap1\n      dup2\n      mstore\n        /* \"rewards-tracking-contract.sol\":9274:9296  userCumulativeEarnings */\n      0x02\n        /* \"rewards-tracking-contract.sol\":9274:9302  userCumulativeEarnings[user] */\n      0x20\n      mstore\n      0x40\n      swap1\n      keccak256\n      sload\n      swap1\n        /* \"rewards-tracking-contract.sol\":9176:9309  function getUserCumulativeEarnings(address user) external view returns (uint256) {... */\n      jump\n        /* \"rewards-tracking-contract.sol\":9452:9567  function getJobTotalPaid(uint256 jobId) external view returns (uint256) {... */\n    tag_5:\n      tag_27\n      tag_37\n      calldatasize\n      0x04\n      tag_38\n      jump\t// in\n    tag_37:\n        /* \"rewards-tracking-contract.sol\":9515:9522  uint256 */\n      0x00\n        /* \"rewards-tracking-contract.sol\":9541:9560  jobTotalPaid[jobId] */\n      swap1\n      dup2\n      mstore\n        /* \"rewards-tracking-contract.sol\":9541:9553  jobTotalPaid */\n      0x05\n        /* \"rewards-tracking-contract.sol\":9541:9560  jobTotalPaid[jobId] */\n      0x20\n      mstore\n      0x40\n      swap1\n      keccak256\n      sload\n      swap1\n        /* \"rewards-tracking-contract.sol\":9452:9567  function getJobTotalPaid(uint256 jobId) external view returns (uint256) {... */\n      jump\n        /* \"rewards-tracking-contract.sol\":1662:1709  mapping(uint256 => uint256) public jobTotalPaid */\n    tag_6:\n      tag_27\n      tag_42\n      calldatasize\n      0x04\n      tag_38\n      jump\t// in\n    tag_42:\n      mstore(0x20, 0x05)\n      0x00\n      swap1\n      dup2\n      mstore\n      0x40\n      swap1\n      keccak256\n      sload\n      dup2\n      jump\n        /* \"rewards-tracking-contract.sol\":8680:9144  function getReferrer(address user) public view returns (address) {... */\n    tag_7:\n      tag_45\n      tag_46\n      calldatasize\n      0x04\n      tag_33\n      jump\t// in\n    tag_46:\n      tag_47\n      jump\t// in\n    tag_45:\n      mload(0x40)\n      sub(shl(0xa0, 0x01), 0x01)\n        /* \"#utility.yul\":979:1011   */\n      swap1\n      swap2\n      and\n        /* \"#utility.yul\":961:1012   */\n      dup2\n      mstore\n        /* \"#utility.yul\":949:951   */\n      0x20\n        /* \"#utility.yul\":934:952   */\n      add\n        /* \"rewards-tracking-contract.sol\":8680:9144  function getReferrer(address user) public view returns (address) {... */\n      tag_29\n        /* \"#utility.yul\":815:1018   */\n      jump\n        /* \"rewards-tracking-contract.sol\":9319:9442  function getUserTotalOWTokens(address user) external view returns (uint256) {... */\n    tag_8:\n      tag_27\n      tag_51\n      calldatasize\n      0x04\n      tag_33\n      jump\t// in\n    tag_51:\n      sub(shl(0xa0, 0x01), 0x01)\n        /* \"rewards-tracking-contract.sol\":9412:9435  userTotalOWTokens[user] */\n      and\n        /* \"rewards-tracking-contract.sol\":9386:9393  uint256 */\n      0x00\n        /* \"rewards-tracking-contract.sol\":9412:9435  userTotalOWTokens[user] */\n      swap1\n      dup2\n      mstore\n        /* \"rewards-tracking-contract.sol\":9412:9429  userTotalOWTokens */\n      0x03\n        /* \"rewards-tracking-contract.sol\":9412:9435  userTotalOWTokens[user] */\n      0x20\n      mstore\n      0x40\n      swap1\n      keccak256\n      sload\n      swap1\n        /* \"rewards-tracking-contract.sol\":9319:9442  function getUserTotalOWTokens(address user) external view returns (uint256) {... */\n      jump\n        /* \"rewards-tracking-contract.sol\":1746:1777  RewardBand[] public rewardBands */\n    tag_9:\n      tag_54\n      tag_55\n      calldatasize\n      0x04\n      tag_38\n      jump\t// in\n    tag_55:\n      tag_56\n      jump\t// in\n    tag_54:\n      0x40\n      dup1\n      mload\n        /* \"#utility.yul\":1225:1250   */\n      swap4\n      dup5\n      mstore\n        /* \"#utility.yul\":1281:1283   */\n      0x20\n        /* \"#utility.yul\":1266:1284   */\n      dup5\n      add\n        /* \"#utility.yul\":1259:1293   */\n      swap3\n      swap1\n      swap3\n      mstore\n        /* \"#utility.yul\":1309:1327   */\n      swap1\n      dup3\n      add\n        /* \"#utility.yul\":1302:1336   */\n      mstore\n        /* \"#utility.yul\":1213:1215   */\n      0x60\n        /* \"#utility.yul\":1198:1216   */\n      add\n        /* \"rewards-tracking-contract.sol\":1746:1777  RewardBand[] public rewardBands */\n      tag_29\n        /* \"#utility.yul\":1023:1342   */\n      jump\n        /* \"@openzeppelin/contracts/access/Ownable.sol\":2293:2394  function renounceOwnership() public virtual onlyOwner {... */\n    tag_10:\n      tag_59\n      tag_60\n      jump\t// in\n    tag_59:\n      stop\n        /* \"rewards-tracking-contract.sol\":10602:10739  function updateUserTotalOWTokens(address user, uint256 newAmount) external onlyOwner {... */\n    tag_11:\n      tag_59\n      tag_62\n      calldatasize\n      0x04\n      tag_63\n      jump\t// in\n    tag_62:\n      tag_64\n      jump\t// in\n        /* \"rewards-tracking-contract.sol\":9692:10006  function getRewardBand(uint256 index) external view returns (uint256 minAmount, uint256 maxAmount, uint256 owPerDollar) {... */\n    tag_12:\n      tag_54\n      tag_66\n      calldatasize\n      0x04\n      tag_38\n      jump\t// in\n    tag_66:\n      tag_67\n      jump\t// in\n        /* \"@openzeppelin/contracts/access/Ownable.sol\":1638:1723  function owner() public view virtual returns (address) {... */\n    tag_13:\n        /* \"@openzeppelin/contracts/access/Ownable.sol\":1684:1691  address */\n      0x00\n        /* \"@openzeppelin/contracts/access/Ownable.sol\":1710:1716  _owner */\n      sload\n      sub(shl(0xa0, 0x01), 0x01)\n      and\n        /* \"@openzeppelin/contracts/access/Ownable.sol\":1638:1723  function owner() public view virtual returns (address) {... */\n      jump(tag_45)\n        /* \"rewards-tracking-contract.sol\":10085:10408  function calculateTokensForAmount(address user, uint256 additionalAmount) external view returns (uint256) {... */\n    tag_14:\n      tag_27\n      tag_73\n      calldatasize\n      0x04\n      tag_63\n      jump\t// in\n    tag_73:\n      tag_74\n      jump\t// in\n        /* \"rewards-tracking-contract.sol\":4812:6742  function updateRewards(uint256 jobId, uint256 paidAmountUSDT) external {... */\n    tag_15:\n      tag_59\n      tag_77\n      calldatasize\n      0x04\n      tag_78\n      jump\t// in\n    tag_77:\n      tag_79\n      jump\t// in\n        /* \"rewards-tracking-contract.sol\":10445:10592  function updateUserCumulativeEarnings(address user, uint256 newAmount) external onlyOwner {... */\n    tag_16:\n      tag_59\n      tag_81\n      calldatasize\n      0x04\n      tag_63\n      jump\t// in\n    tag_81:\n      tag_82\n      jump\t// in\n        /* \"rewards-tracking-contract.sol\":1612:1656  mapping(uint256 => bool) public jobProcessed */\n    tag_17:\n      tag_83\n      tag_84\n      calldatasize\n      0x04\n      tag_38\n      jump\t// in\n    tag_84:\n      mstore(0x20, 0x04)\n      0x00\n      swap1\n      dup2\n      mstore\n      0x40\n      swap1\n      keccak256\n      sload\n      0xff\n      and\n      dup2\n      jump\n    tag_83:\n      mload(0x40)\n        /* \"#utility.yul\":2235:2249   */\n      swap1\n      iszero\n        /* \"#utility.yul\":2228:2250   */\n      iszero\n        /* \"#utility.yul\":2210:2251   */\n      dup2\n      mstore\n        /* \"#utility.yul\":2198:2200   */\n      0x20\n        /* \"#utility.yul\":2183:2201   */\n      add\n        /* \"rewards-tracking-contract.sol\":1612:1656  mapping(uint256 => bool) public jobProcessed */\n      tag_29\n        /* \"#utility.yul\":2070:2257   */\n      jump\n        /* \"rewards-tracking-contract.sol\":1106:1137  IJobContract public jobContract */\n    tag_18:\n      sload(0x01)\n      tag_45\n      swap1\n      sub(shl(0xa0, 0x01), 0x01)\n      and\n      dup2\n      jump\n        /* \"rewards-tracking-contract.sol\":1466:1523  mapping(address => uint256) public userCumulativeEarnings */\n    tag_19:\n      tag_27\n      tag_93\n      calldatasize\n      0x04\n      tag_33\n      jump\t// in\n    tag_93:\n      mstore(0x20, 0x02)\n      0x00\n      swap1\n      dup2\n      mstore\n      0x40\n      swap1\n      keccak256\n      sload\n      dup2\n      jump\n        /* \"rewards-tracking-contract.sol\":7459:8670  function calculateTokensForRange(uint256 fromAmount, uint256 toAmount) public view returns (uint256) {... */\n    tag_20:\n      tag_27\n      tag_97\n      calldatasize\n      0x04\n      tag_78\n      jump\t// in\n    tag_97:\n      tag_98\n      jump\t// in\n        /* \"rewards-tracking-contract.sol\":1529:1581  mapping(address => uint256) public userTotalOWTokens */\n    tag_21:\n      tag_27\n      tag_101\n      calldatasize\n      0x04\n      tag_33\n      jump\t// in\n    tag_101:\n      mstore(0x20, 0x03)\n      0x00\n      swap1\n      dup2\n      mstore\n      0x40\n      swap1\n      keccak256\n      sload\n      dup2\n      jump\n        /* \"@openzeppelin/contracts/access/Ownable.sol\":2543:2758  function transferOwnership(address newOwner) public virtual onlyOwner {... */\n    tag_22:\n      tag_59\n      tag_105\n      calldatasize\n      0x04\n      tag_33\n      jump\t// in\n    tag_105:\n      tag_106\n      jump\t// in\n        /* \"rewards-tracking-contract.sol\":2300:2422  function setJobContract(address _jobContract) external onlyOwner {... */\n    tag_23:\n      tag_59\n      tag_108\n      calldatasize\n      0x04\n      tag_33\n      jump\t// in\n    tag_108:\n      tag_109\n      jump\t// in\n        /* \"rewards-tracking-contract.sol\":8680:9144  function getReferrer(address user) public view returns (address) {... */\n    tag_47:\n        /* \"rewards-tracking-contract.sol\":8767:8778  jobContract */\n      sload(0x01)\n        /* \"rewards-tracking-contract.sol\":8736:8743  address */\n      0x00\n      swap1\n      sub(shl(0xa0, 0x01), 0x01)\n        /* \"rewards-tracking-contract.sol\":8767:8778  jobContract */\n      and\n        /* \"rewards-tracking-contract.sol\":8755:8837  if (address(jobContract) == address(0)) {... */\n      tag_114\n      jumpi\n      pop\n        /* \"rewards-tracking-contract.sol\":8824:8825  0 */\n      0x00\n      swap2\n        /* \"rewards-tracking-contract.sol\":8680:9144  function getReferrer(address user) public view returns (address) {... */\n      swap1\n      pop\n      jump\t// out\n        /* \"rewards-tracking-contract.sol\":8755:8837  if (address(jobContract) == address(0)) {... */\n    tag_114:\n        /* \"rewards-tracking-contract.sol\":8859:8870  jobContract */\n      sload(0x01)\n        /* \"rewards-tracking-contract.sol\":8859:8887  jobContract.getProfile(user) */\n      mload(0x40)\n      shl(0xe4, 0xf53a47)\n      dup2\n      mstore\n      sub(shl(0xa0, 0x01), 0x01)\n        /* \"#utility.yul\":979:1011   */\n      dup5\n      dup2\n      and\n        /* \"rewards-tracking-contract.sol\":8859:8887  jobContract.getProfile(user) */\n      0x04\n      dup4\n      add\n        /* \"#utility.yul\":961:1012   */\n      mstore\n        /* \"rewards-tracking-contract.sol\":8859:8870  jobContract */\n      swap1\n      swap2\n      and\n      swap1\n        /* \"rewards-tracking-contract.sol\":8859:8881  jobContract.getProfile */\n      0x0f53a470\n      swap1\n        /* \"#utility.yul\":934:952   */\n      0x24\n      add\n        /* \"rewards-tracking-contract.sol\":8859:8887  jobContract.getProfile(user) */\n      0x00\n      mload(0x40)\n      dup1\n      dup4\n      sub\n      dup2\n      dup7\n      gas\n      staticcall\n      swap3\n      pop\n      pop\n      pop\n      dup1\n      iszero\n      tag_116\n      jumpi\n      pop\n      mload(0x40)\n      returndatasize\n      0x00\n      dup3\n      returndatacopy\n      0x1f\n      returndatasize\n      swap1\n      dup2\n      add\n      not(0x1f)\n      and\n      dup3\n      add\n      0x40\n      mstore\n      tag_117\n      swap2\n      swap1\n      dup2\n      add\n      swap1\n      tag_118\n      jump\t// in\n    tag_117:\n      0x01\n    tag_116:\n        /* \"rewards-tracking-contract.sol\":8855:9138  try jobContract.getProfile(user) returns (... */\n      tag_119\n      jumpi\n      pop\n        /* \"rewards-tracking-contract.sol\":9125:9126  0 */\n      0x00\n      swap2\n        /* \"rewards-tracking-contract.sol\":8680:9144  function getReferrer(address user) public view returns (address) {... */\n      swap1\n      pop\n      jump\t// out\n        /* \"rewards-tracking-contract.sol\":8855:9138  try jobContract.getProfile(user) returns (... */\n    tag_119:\n      pop\n        /* \"rewards-tracking-contract.sol\":9063:9078  referrerAddress */\n      swap1\n      swap6\n        /* \"rewards-tracking-contract.sol\":8680:9144  function getReferrer(address user) public view returns (address) {... */\n      swap5\n      pop\n      pop\n      pop\n      pop\n      pop\n      jump\t// out\n        /* \"rewards-tracking-contract.sol\":8855:9138  try jobContract.getProfile(user) returns (... */\n    tag_123:\n        /* \"rewards-tracking-contract.sol\":8680:9144  function getReferrer(address user) public view returns (address) {... */\n      swap2\n      swap1\n      pop\n      jump\t// out\n        /* \"rewards-tracking-contract.sol\":1746:1777  RewardBand[] public rewardBands */\n    tag_56:\n      0x06\n      dup2\n      dup2\n      sload\n      dup2\n      lt\n      tag_125\n      jumpi\n      0x00\n      dup1\n      revert\n    tag_125:\n      0x00\n      swap2\n      dup3\n      mstore\n      0x20\n      swap1\n      swap2\n      keccak256\n      0x03\n      swap1\n      swap2\n      mul\n      add\n      dup1\n      sload\n      0x01\n      dup3\n      add\n      sload\n      0x02\n      swap1\n      swap3\n      add\n      sload\n      swap1\n      swap3\n      pop\n      dup4\n      jump\t// out\n        /* \"@openzeppelin/contracts/access/Ownable.sol\":2293:2394  function renounceOwnership() public virtual onlyOwner {... */\n    tag_60:\n        /* \"@openzeppelin/contracts/access/Ownable.sol\":1531:1544  _checkOwner() */\n      tag_128\n        /* \"@openzeppelin/contracts/access/Ownable.sol\":1531:1542  _checkOwner */\n      tag_129\n        /* \"@openzeppelin/contracts/access/Ownable.sol\":1531:1544  _checkOwner() */\n      jump\t// in\n    tag_128:\n        /* \"@openzeppelin/contracts/access/Ownable.sol\":2357:2387  _transferOwnership(address(0)) */\n      tag_131\n        /* \"@openzeppelin/contracts/access/Ownable.sol\":2384:2385  0 */\n      0x00\n        /* \"@openzeppelin/contracts/access/Ownable.sol\":2357:2375  _transferOwnership */\n      tag_132\n        /* \"@openzeppelin/contracts/access/Ownable.sol\":2357:2387  _transferOwnership(address(0)) */\n      jump\t// in\n    tag_131:\n        /* \"@openzeppelin/contracts/access/Ownable.sol\":2293:2394  function renounceOwnership() public virtual onlyOwner {... */\n      jump\t// out\n        /* \"rewards-tracking-contract.sol\":10602:10739  function updateUserTotalOWTokens(address user, uint256 newAmount) external onlyOwner {... */\n    tag_64:\n        /* \"@openzeppelin/contracts/access/Ownable.sol\":1531:1544  _checkOwner() */\n      tag_134\n        /* \"@openzeppelin/contracts/access/Ownable.sol\":1531:1542  _checkOwner */\n      tag_129\n        /* \"@openzeppelin/contracts/access/Ownable.sol\":1531:1544  _checkOwner() */\n      jump\t// in\n    tag_134:\n      sub(shl(0xa0, 0x01), 0x01)\n        /* \"rewards-tracking-contract.sol\":10697:10720  userTotalOWTokens[user] */\n      swap1\n      swap2\n      and\n      0x00\n      swap1\n      dup2\n      mstore\n        /* \"rewards-tracking-contract.sol\":10697:10714  userTotalOWTokens */\n      0x03\n        /* \"rewards-tracking-contract.sol\":10697:10720  userTotalOWTokens[user] */\n      0x20\n      mstore\n      0x40\n      swap1\n      keccak256\n        /* \"rewards-tracking-contract.sol\":10697:10732  userTotalOWTokens[user] = newAmount */\n      sstore\n        /* \"rewards-tracking-contract.sol\":10602:10739  function updateUserTotalOWTokens(address user, uint256 newAmount) external onlyOwner {... */\n      jump\t// out\n        /* \"rewards-tracking-contract.sol\":9692:10006  function getRewardBand(uint256 index) external view returns (uint256 minAmount, uint256 maxAmount, uint256 owPerDollar) {... */\n    tag_67:\n        /* \"rewards-tracking-contract.sol\":9753:9770  uint256 minAmount */\n      0x00\n        /* \"rewards-tracking-contract.sol\":9772:9789  uint256 maxAmount */\n      dup1\n        /* \"rewards-tracking-contract.sol\":9791:9810  uint256 owPerDollar */\n      0x00\n        /* \"rewards-tracking-contract.sol\":9838:9849  rewardBands */\n      0x06\n        /* \"rewards-tracking-contract.sol\":9838:9856  rewardBands.length */\n      dup1\n      sload\n      swap1\n      pop\n        /* \"rewards-tracking-contract.sol\":9830:9835  index */\n      dup5\n        /* \"rewards-tracking-contract.sol\":9830:9856  index < rewardBands.length */\n      lt\n        /* \"rewards-tracking-contract.sol\":9822:9879  require(index < rewardBands.length, \"Invalid band index\") */\n      tag_137\n      jumpi\n      mload(0x40)\n      shl(0xe5, 0x461bcd)\n      dup2\n      mstore\n        /* \"#utility.yul\":5920:5922   */\n      0x20\n        /* \"rewards-tracking-contract.sol\":9822:9879  require(index < rewardBands.length, \"Invalid band index\") */\n      0x04\n      dup3\n      add\n        /* \"#utility.yul\":5902:5923   */\n      mstore\n        /* \"#utility.yul\":5959:5961   */\n      0x12\n        /* \"#utility.yul\":5939:5957   */\n      0x24\n      dup3\n      add\n        /* \"#utility.yul\":5932:5962   */\n      mstore\n      shl(0x73, 0x092dcecc2d8d2c840c4c2dcc840d2dcc8caf)\n        /* \"#utility.yul\":5978:5996   */\n      0x44\n      dup3\n      add\n        /* \"#utility.yul\":5971:6019   */\n      mstore\n        /* \"#utility.yul\":6036:6054   */\n      0x64\n      add\n        /* \"rewards-tracking-contract.sol\":9822:9879  require(index < rewardBands.length, \"Invalid band index\") */\n    tag_138:\n      mload(0x40)\n      dup1\n      swap2\n      sub\n      swap1\n      revert\n    tag_137:\n        /* \"rewards-tracking-contract.sol\":9889:9911  RewardBand memory band */\n      0x00\n        /* \"rewards-tracking-contract.sol\":9914:9925  rewardBands */\n      0x06\n        /* \"rewards-tracking-contract.sol\":9926:9931  index */\n      dup6\n        /* \"rewards-tracking-contract.sol\":9914:9932  rewardBands[index] */\n      dup2\n      sload\n      dup2\n      lt\n      tag_141\n      jumpi\n      tag_141\n      tag_142\n      jump\t// in\n    tag_141:\n      0x00\n      swap2\n      dup3\n      mstore\n      0x20\n      swap2\n      dup3\n      swap1\n      keccak256\n        /* \"rewards-tracking-contract.sol\":9889:9932  RewardBand memory band = rewardBands[index] */\n      0x40\n      dup1\n      mload\n      0x60\n      dup2\n      add\n      dup3\n      mstore\n        /* \"rewards-tracking-contract.sol\":9914:9932  rewardBands[index] */\n      0x03\n      swap4\n      swap1\n      swap4\n      mul\n      swap1\n      swap2\n      add\n        /* \"rewards-tracking-contract.sol\":9889:9932  RewardBand memory band = rewardBands[index] */\n      dup1\n      sload\n      dup1\n      dup5\n      mstore\n      0x01\n      dup3\n      add\n      sload\n      swap5\n      dup5\n      add\n      dup6\n      swap1\n      mstore\n      0x02\n      swap1\n      swap2\n      add\n      sload\n      swap3\n      swap1\n      swap2\n      add\n      dup3\n      swap1\n      mstore\n      swap8\n      swap2\n      swap7\n      pop\n      swap5\n      pop\n        /* \"rewards-tracking-contract.sol\":9692:10006  function getRewardBand(uint256 index) external view returns (uint256 minAmount, uint256 maxAmount, uint256 owPerDollar) {... */\n      swap3\n      pop\n      pop\n      pop\n      jump\t// out\n        /* \"rewards-tracking-contract.sol\":10085:10408  function calculateTokensForAmount(address user, uint256 additionalAmount) external view returns (uint256) {... */\n    tag_74:\n      sub(shl(0xa0, 0x01), 0x01)\n        /* \"rewards-tracking-contract.sol\":10229:10257  userCumulativeEarnings[user] */\n      dup3\n      and\n        /* \"rewards-tracking-contract.sol\":10182:10189  uint256 */\n      0x00\n        /* \"rewards-tracking-contract.sol\":10229:10257  userCumulativeEarnings[user] */\n      swap1\n      dup2\n      mstore\n        /* \"rewards-tracking-contract.sol\":10229:10251  userCumulativeEarnings */\n      0x02\n        /* \"rewards-tracking-contract.sol\":10229:10257  userCumulativeEarnings[user] */\n      0x20\n      mstore\n      0x40\n      dup2\n      keccak256\n      sload\n        /* \"rewards-tracking-contract.sol\":10182:10189  uint256 */\n      dup2\n        /* \"rewards-tracking-contract.sol\":10291:10327  currentCumulative + additionalAmount */\n      tag_146\n        /* \"rewards-tracking-contract.sol\":10311:10327  additionalAmount */\n      dup5\n        /* \"rewards-tracking-contract.sol\":10229:10257  userCumulativeEarnings[user] */\n      dup4\n        /* \"rewards-tracking-contract.sol\":10291:10327  currentCumulative + additionalAmount */\n      tag_147\n      jump\t// in\n    tag_146:\n        /* \"rewards-tracking-contract.sol\":10267:10327  uint256 newCumulative = currentCumulative + additionalAmount */\n      swap1\n      pop\n        /* \"rewards-tracking-contract.sol\":10344:10401  calculateTokensForRange(currentCumulative, newCumulative) */\n      tag_148\n        /* \"rewards-tracking-contract.sol\":10368:10385  currentCumulative */\n      dup3\n        /* \"rewards-tracking-contract.sol\":10387:10400  newCumulative */\n      dup3\n        /* \"rewards-tracking-contract.sol\":10344:10367  calculateTokensForRange */\n      tag_98\n        /* \"rewards-tracking-contract.sol\":10344:10401  calculateTokensForRange(currentCumulative, newCumulative) */\n      jump\t// in\n    tag_148:\n        /* \"rewards-tracking-contract.sol\":10337:10401  return calculateTokensForRange(currentCumulative, newCumulative) */\n      swap3\n      pop\n      pop\n      pop\n        /* \"rewards-tracking-contract.sol\":10085:10408  function calculateTokensForAmount(address user, uint256 additionalAmount) external view returns (uint256) {... */\n    tag_145:\n      swap3\n      swap2\n      pop\n      pop\n      jump\t// out\n        /* \"rewards-tracking-contract.sol\":4812:6742  function updateRewards(uint256 jobId, uint256 paidAmountUSDT) external {... */\n    tag_79:\n        /* \"rewards-tracking-contract.sol\":4909:4920  jobContract */\n      and(sub(shl(0xa0, 0x01), 0x01), sload(0x01))\n        /* \"rewards-tracking-contract.sol\":4893:4960  require(address(jobContract) != address(0), \"Job contract not set\") */\n      tag_150\n      jumpi\n      mload(0x40)\n      shl(0xe5, 0x461bcd)\n      dup2\n      mstore\n        /* \"#utility.yul\":6661:6663   */\n      0x20\n        /* \"rewards-tracking-contract.sol\":4893:4960  require(address(jobContract) != address(0), \"Job contract not set\") */\n      0x04\n      dup3\n      add\n        /* \"#utility.yul\":6643:6664   */\n      mstore\n        /* \"#utility.yul\":6700:6702   */\n      0x14\n        /* \"#utility.yul\":6680:6698   */\n      0x24\n      dup3\n      add\n        /* \"#utility.yul\":6673:6703   */\n      mstore\n      shl(0x62, 0x129bd88818dbdb9d1c9858dd081b9bdd081cd95d)\n        /* \"#utility.yul\":6719:6737   */\n      0x44\n      dup3\n      add\n        /* \"#utility.yul\":6712:6762   */\n      mstore\n        /* \"#utility.yul\":6779:6797   */\n      0x64\n      add\n        /* \"rewards-tracking-contract.sol\":4893:4960  require(address(jobContract) != address(0), \"Job contract not set\") */\n      tag_138\n        /* \"#utility.yul\":6459:6803   */\n      jump\n        /* \"rewards-tracking-contract.sol\":4893:4960  require(address(jobContract) != address(0), \"Job contract not set\") */\n    tag_150:\n        /* \"rewards-tracking-contract.sol\":5000:5011  jobContract */\n      and(sub(shl(0xa0, 0x01), 0x01), sload(0x01))\n        /* \"rewards-tracking-contract.sol\":4978:4988  msg.sender */\n      caller\n        /* \"rewards-tracking-contract.sol\":4978:5012  msg.sender == address(jobContract) */\n      eq\n        /* \"rewards-tracking-contract.sol\":4970:5048  require(msg.sender == address(jobContract), \"Only job contract can call this\") */\n      tag_153\n      jumpi\n      mload(0x40)\n      shl(0xe5, 0x461bcd)\n      dup2\n      mstore\n        /* \"#utility.yul\":7010:7012   */\n      0x20\n        /* \"rewards-tracking-contract.sol\":4970:5048  require(msg.sender == address(jobContract), \"Only job contract can call this\") */\n      0x04\n      dup3\n      add\n        /* \"#utility.yul\":6992:7013   */\n      mstore\n        /* \"#utility.yul\":7049:7051   */\n      0x1f\n        /* \"#utility.yul\":7029:7047   */\n      0x24\n      dup3\n      add\n        /* \"#utility.yul\":7022:7052   */\n      mstore\n        /* \"#utility.yul\":7088:7121   */\n      0x4f6e6c79206a6f6220636f6e74726163742063616e2063616c6c207468697300\n        /* \"#utility.yul\":7068:7086   */\n      0x44\n      dup3\n      add\n        /* \"#utility.yul\":7061:7122   */\n      mstore\n        /* \"#utility.yul\":7139:7157   */\n      0x64\n      add\n        /* \"rewards-tracking-contract.sol\":4970:5048  require(msg.sender == address(jobContract), \"Only job contract can call this\") */\n      tag_138\n        /* \"#utility.yul\":6808:7163   */\n      jump\n        /* \"rewards-tracking-contract.sol\":4970:5048  require(msg.sender == address(jobContract), \"Only job contract can call this\") */\n    tag_153:\n        /* \"rewards-tracking-contract.sol\":5083:5084  0 */\n      0x00\n        /* \"rewards-tracking-contract.sol\":5066:5080  paidAmountUSDT */\n      dup2\n        /* \"rewards-tracking-contract.sol\":5066:5084  paidAmountUSDT > 0 */\n      gt\n        /* \"rewards-tracking-contract.sol\":5058:5123  require(paidAmountUSDT > 0, \"Paid amount must be greater than 0\") */\n      tag_156\n      jumpi\n      mload(0x40)\n      shl(0xe5, 0x461bcd)\n      dup2\n      mstore\n        /* \"#utility.yul\":7370:7372   */\n      0x20\n        /* \"rewards-tracking-contract.sol\":5058:5123  require(paidAmountUSDT > 0, \"Paid amount must be greater than 0\") */\n      0x04\n      dup3\n      add\n        /* \"#utility.yul\":7352:7373   */\n      mstore\n        /* \"#utility.yul\":7409:7411   */\n      0x22\n        /* \"#utility.yul\":7389:7407   */\n      0x24\n      dup3\n      add\n        /* \"#utility.yul\":7382:7412   */\n      mstore\n        /* \"#utility.yul\":7448:7482   */\n      0x5061696420616d6f756e74206d7573742062652067726561746572207468616e\n        /* \"#utility.yul\":7428:7446   */\n      0x44\n      dup3\n      add\n        /* \"#utility.yul\":7421:7483   */\n      mstore\n      shl(0xf4, 0x0203)\n        /* \"#utility.yul\":7499:7517   */\n      0x64\n      dup3\n      add\n        /* \"#utility.yul\":7492:7524   */\n      mstore\n        /* \"#utility.yul\":7541:7560   */\n      0x84\n      add\n        /* \"rewards-tracking-contract.sol\":5058:5123  require(paidAmountUSDT > 0, \"Paid amount must be greater than 0\") */\n      tag_138\n        /* \"#utility.yul\":7168:7566   */\n      jump\n        /* \"rewards-tracking-contract.sol\":5058:5123  require(paidAmountUSDT > 0, \"Paid amount must be greater than 0\") */\n    tag_156:\n        /* \"rewards-tracking-contract.sol\":5364:5375  jobContract */\n      sload(0x01)\n        /* \"rewards-tracking-contract.sol\":5364:5389  jobContract.getJob(jobId) */\n      mload(0x40)\n      shl(0xe0, 0xbf22c457)\n      dup2\n      mstore\n      0x04\n      dup2\n      add\n        /* \"#utility.yul\":160:185   */\n      dup5\n      swap1\n      mstore\n        /* \"rewards-tracking-contract.sol\":5197:5213  address jobGiver */\n      0x00\n      swap2\n      dup3\n      swap2\n      sub(shl(0xa0, 0x01), 0x01)\n        /* \"rewards-tracking-contract.sol\":5364:5375  jobContract */\n      swap1\n      swap2\n      and\n      swap1\n        /* \"rewards-tracking-contract.sol\":5364:5382  jobContract.getJob */\n      0xbf22c457\n      swap1\n        /* \"#utility.yul\":133:151   */\n      0x24\n      add\n        /* \"rewards-tracking-contract.sol\":5364:5389  jobContract.getJob(jobId) */\n      0x00\n      mload(0x40)\n      dup1\n      dup4\n      sub\n      dup2\n      dup7\n      gas\n      staticcall\n      iszero\n      dup1\n      iszero\n      tag_161\n      jumpi\n      returndatasize\n      0x00\n      dup1\n      returndatacopy\n      revert(0x00, returndatasize)\n    tag_161:\n      pop\n      pop\n      pop\n      pop\n      mload(0x40)\n      returndatasize\n      0x00\n      dup3\n      returndatacopy\n      0x1f\n      returndatasize\n      swap1\n      dup2\n      add\n      not(0x1f)\n      and\n      dup3\n      add\n      0x40\n      mstore\n      tag_162\n      swap2\n      swap1\n      dup2\n      add\n      swap1\n      tag_163\n      jump\t// in\n    tag_162:\n        /* \"rewards-tracking-contract.sol\":5169:5389  (... */\n      pop\n      swap10\n      pop\n      pop\n      pop\n      pop\n      pop\n      pop\n      pop\n      pop\n      swap3\n      pop\n      pop\n        /* \"rewards-tracking-contract.sol\":5436:5437  0 */\n      0x00\n      sub(shl(0xa0, 0x01), 0x01)\n        /* \"rewards-tracking-contract.sol\":5416:5438  jobGiver != address(0) */\n      and\n        /* \"rewards-tracking-contract.sol\":5416:5424  jobGiver */\n      dup3\n      sub(shl(0xa0, 0x01), 0x01)\n        /* \"rewards-tracking-contract.sol\":5416:5438  jobGiver != address(0) */\n      and\n      sub\n        /* \"rewards-tracking-contract.sol\":5408:5460  require(jobGiver != address(0), \"Invalid job giver\") */\n      tag_164\n      jumpi\n      mload(0x40)\n      shl(0xe5, 0x461bcd)\n      dup2\n      mstore\n        /* \"#utility.yul\":10348:10350   */\n      0x20\n        /* \"rewards-tracking-contract.sol\":5408:5460  require(jobGiver != address(0), \"Invalid job giver\") */\n      0x04\n      dup3\n      add\n        /* \"#utility.yul\":10330:10351   */\n      mstore\n        /* \"#utility.yul\":10387:10389   */\n      0x11\n        /* \"#utility.yul\":10367:10385   */\n      0x24\n      dup3\n      add\n        /* \"#utility.yul\":10360:10390   */\n      mstore\n      shl(0x79, 0x24b73b30b634b2103537b11033b4bb32b9)\n        /* \"#utility.yul\":10406:10424   */\n      0x44\n      dup3\n      add\n        /* \"#utility.yul\":10399:10446   */\n      mstore\n        /* \"#utility.yul\":10463:10481   */\n      0x64\n      add\n        /* \"rewards-tracking-contract.sol\":5408:5460  require(jobGiver != address(0), \"Invalid job giver\") */\n      tag_138\n        /* \"#utility.yul\":10146:10487   */\n      jump\n        /* \"rewards-tracking-contract.sol\":5408:5460  require(jobGiver != address(0), \"Invalid job giver\") */\n    tag_164:\n      sub(shl(0xa0, 0x01), 0x01)\n        /* \"rewards-tracking-contract.sol\":5478:5509  selectedApplicant != address(0) */\n      dup2\n      and\n        /* \"rewards-tracking-contract.sol\":5470:5535  require(selectedApplicant != address(0), \"No selected applicant\") */\n      tag_167\n      jumpi\n      mload(0x40)\n      shl(0xe5, 0x461bcd)\n      dup2\n      mstore\n        /* \"#utility.yul\":10694:10696   */\n      0x20\n        /* \"rewards-tracking-contract.sol\":5470:5535  require(selectedApplicant != address(0), \"No selected applicant\") */\n      0x04\n      dup3\n      add\n        /* \"#utility.yul\":10676:10697   */\n      mstore\n        /* \"#utility.yul\":10733:10735   */\n      0x15\n        /* \"#utility.yul\":10713:10731   */\n      0x24\n      dup3\n      add\n        /* \"#utility.yul\":10706:10736   */\n      mstore\n      shl(0x5a, 0x139bc81cd95b1958dd195908185c1c1b1a58d85b9d)\n        /* \"#utility.yul\":10752:10770   */\n      0x44\n      dup3\n      add\n        /* \"#utility.yul\":10745:10796   */\n      mstore\n        /* \"#utility.yul\":10813:10831   */\n      0x64\n      add\n        /* \"rewards-tracking-contract.sol\":5470:5535  require(selectedApplicant != address(0), \"No selected applicant\") */\n      tag_138\n        /* \"#utility.yul\":10492:10837   */\n      jump\n        /* \"rewards-tracking-contract.sol\":5470:5535  require(selectedApplicant != address(0), \"No selected applicant\") */\n    tag_167:\n        /* \"rewards-tracking-contract.sol\":5596:5615  jobTotalPaid[jobId] */\n      0x00\n      dup5\n      dup2\n      mstore\n        /* \"rewards-tracking-contract.sol\":5596:5608  jobTotalPaid */\n      0x05\n        /* \"rewards-tracking-contract.sol\":5596:5615  jobTotalPaid[jobId] */\n      0x20\n      mstore\n      0x40\n      dup2\n      keccak256\n        /* \"rewards-tracking-contract.sol\":5596:5633  jobTotalPaid[jobId] += paidAmountUSDT */\n      dup1\n      sload\n        /* \"rewards-tracking-contract.sol\":5619:5633  paidAmountUSDT */\n      dup6\n      swap3\n        /* \"rewards-tracking-contract.sol\":5596:5615  jobTotalPaid[jobId] */\n      swap1\n        /* \"rewards-tracking-contract.sol\":5596:5633  jobTotalPaid[jobId] += paidAmountUSDT */\n      tag_170\n      swap1\n        /* \"rewards-tracking-contract.sol\":5619:5633  paidAmountUSDT */\n      dup5\n      swap1\n        /* \"rewards-tracking-contract.sol\":5596:5633  jobTotalPaid[jobId] += paidAmountUSDT */\n      tag_147\n      jump\t// in\n    tag_170:\n      swap1\n      swap2\n      sstore\n      pop\n        /* \"rewards-tracking-contract.sol\":5677:5701  address jobGiverReferrer */\n      0x00\n      swap1\n      pop\n        /* \"rewards-tracking-contract.sol\":5704:5725  getReferrer(jobGiver) */\n      tag_171\n        /* \"rewards-tracking-contract.sol\":5716:5724  jobGiver */\n      dup4\n        /* \"rewards-tracking-contract.sol\":5704:5715  getReferrer */\n      tag_47\n        /* \"rewards-tracking-contract.sol\":5704:5725  getReferrer(jobGiver) */\n      jump\t// in\n    tag_171:\n        /* \"rewards-tracking-contract.sol\":5677:5725  address jobGiverReferrer = getReferrer(jobGiver) */\n      swap1\n      pop\n        /* \"rewards-tracking-contract.sol\":5735:5759  address jobTakerReferrer */\n      0x00\n        /* \"rewards-tracking-contract.sol\":5762:5792  getReferrer(selectedApplicant) */\n      tag_172\n        /* \"rewards-tracking-contract.sol\":5774:5791  selectedApplicant */\n      dup4\n        /* \"rewards-tracking-contract.sol\":5762:5773  getReferrer */\n      tag_47\n        /* \"rewards-tracking-contract.sol\":5762:5792  getReferrer(selectedApplicant) */\n      jump\t// in\n    tag_172:\n        /* \"rewards-tracking-contract.sol\":5735:5792  address jobTakerReferrer = getReferrer(selectedApplicant) */\n      swap1\n      pop\n        /* \"rewards-tracking-contract.sol\":5865:5887  uint256 jobGiverTokens */\n      0x00\n        /* \"rewards-tracking-contract.sol\":5890:5940  calculateAndUpdateTokens(jobGiver, paidAmountUSDT) */\n      tag_173\n        /* \"rewards-tracking-contract.sol\":5915:5923  jobGiver */\n      dup6\n        /* \"rewards-tracking-contract.sol\":5925:5939  paidAmountUSDT */\n      dup8\n        /* \"rewards-tracking-contract.sol\":5890:5914  calculateAndUpdateTokens */\n      tag_174\n        /* \"rewards-tracking-contract.sol\":5890:5940  calculateAndUpdateTokens(jobGiver, paidAmountUSDT) */\n      jump\t// in\n    tag_173:\n        /* \"rewards-tracking-contract.sol\":5865:5940  uint256 jobGiverTokens = calculateAndUpdateTokens(jobGiver, paidAmountUSDT) */\n      swap1\n      pop\n        /* \"rewards-tracking-contract.sol\":6034:6056  uint256 jobTakerTokens */\n      0x00\n        /* \"rewards-tracking-contract.sol\":6059:6118  calculateAndUpdateTokens(selectedApplicant, paidAmountUSDT) */\n      tag_175\n        /* \"rewards-tracking-contract.sol\":6084:6101  selectedApplicant */\n      dup6\n        /* \"rewards-tracking-contract.sol\":6103:6117  paidAmountUSDT */\n      dup9\n        /* \"rewards-tracking-contract.sol\":6059:6083  calculateAndUpdateTokens */\n      tag_174\n        /* \"rewards-tracking-contract.sol\":6059:6118  calculateAndUpdateTokens(selectedApplicant, paidAmountUSDT) */\n      jump\t// in\n    tag_175:\n        /* \"rewards-tracking-contract.sol\":6034:6118  uint256 jobTakerTokens = calculateAndUpdateTokens(selectedApplicant, paidAmountUSDT) */\n      swap1\n      pop\n      sub(shl(0xa0, 0x01), 0x01)\n        /* \"rewards-tracking-contract.sol\":6195:6225  jobGiverReferrer != address(0) */\n      dup5\n      and\n      iszero\n      dup1\n      iszero\n      swap1\n        /* \"rewards-tracking-contract.sol\":6195:6257  jobGiverReferrer != address(0) && jobGiverReferrer != jobGiver */\n      tag_176\n      jumpi\n      pop\n        /* \"rewards-tracking-contract.sol\":6249:6257  jobGiver */\n      dup6\n      sub(shl(0xa0, 0x01), 0x01)\n        /* \"rewards-tracking-contract.sol\":6229:6257  jobGiverReferrer != jobGiver */\n      and\n        /* \"rewards-tracking-contract.sol\":6229:6245  jobGiverReferrer */\n      dup5\n      sub(shl(0xa0, 0x01), 0x01)\n        /* \"rewards-tracking-contract.sol\":6229:6257  jobGiverReferrer != jobGiver */\n      and\n      eq\n      iszero\n        /* \"rewards-tracking-contract.sol\":6195:6257  jobGiverReferrer != address(0) && jobGiverReferrer != jobGiver */\n    tag_176:\n        /* \"rewards-tracking-contract.sol\":6191:6369  if (jobGiverReferrer != address(0) && jobGiverReferrer != jobGiver) {... */\n      iszero\n      tag_177\n      jumpi\n        /* \"rewards-tracking-contract.sol\":6273:6336  calculateAndUpdateTokens(jobGiverReferrer, paidAmountUSDT / 10) */\n      tag_178\n        /* \"rewards-tracking-contract.sol\":6298:6314  jobGiverReferrer */\n      dup5\n        /* \"rewards-tracking-contract.sol\":6316:6335  paidAmountUSDT / 10 */\n      tag_179\n        /* \"rewards-tracking-contract.sol\":6333:6335  10 */\n      0x0a\n        /* \"rewards-tracking-contract.sol\":6316:6330  paidAmountUSDT */\n      dup11\n        /* \"rewards-tracking-contract.sol\":6316:6335  paidAmountUSDT / 10 */\n      tag_180\n      jump\t// in\n    tag_179:\n        /* \"rewards-tracking-contract.sol\":6273:6297  calculateAndUpdateTokens */\n      tag_174\n        /* \"rewards-tracking-contract.sol\":6273:6336  calculateAndUpdateTokens(jobGiverReferrer, paidAmountUSDT / 10) */\n      jump\t// in\n    tag_178:\n      pop\n        /* \"rewards-tracking-contract.sol\":6191:6369  if (jobGiverReferrer != address(0) && jobGiverReferrer != jobGiver) {... */\n    tag_177:\n      sub(shl(0xa0, 0x01), 0x01)\n        /* \"rewards-tracking-contract.sol\":6391:6421  jobTakerReferrer != address(0) */\n      dup4\n      and\n      iszero\n      dup1\n      iszero\n      swap1\n        /* \"rewards-tracking-contract.sol\":6391:6462  jobTakerReferrer != address(0) && jobTakerReferrer != selectedApplicant */\n      tag_181\n      jumpi\n      pop\n        /* \"rewards-tracking-contract.sol\":6445:6462  selectedApplicant */\n      dup5\n      sub(shl(0xa0, 0x01), 0x01)\n        /* \"rewards-tracking-contract.sol\":6425:6462  jobTakerReferrer != selectedApplicant */\n      and\n        /* \"rewards-tracking-contract.sol\":6425:6441  jobTakerReferrer */\n      dup4\n      sub(shl(0xa0, 0x01), 0x01)\n        /* \"rewards-tracking-contract.sol\":6425:6462  jobTakerReferrer != selectedApplicant */\n      and\n      eq\n      iszero\n        /* \"rewards-tracking-contract.sol\":6391:6462  jobTakerReferrer != address(0) && jobTakerReferrer != selectedApplicant */\n    tag_181:\n        /* \"rewards-tracking-contract.sol\":6391:6502  jobTakerReferrer != address(0) && jobTakerReferrer != selectedApplicant && jobTakerReferrer != jobGiverReferrer */\n      dup1\n      iszero\n      tag_182\n      jumpi\n      pop\n        /* \"rewards-tracking-contract.sol\":6486:6502  jobGiverReferrer */\n      dup4\n      sub(shl(0xa0, 0x01), 0x01)\n        /* \"rewards-tracking-contract.sol\":6466:6502  jobTakerReferrer != jobGiverReferrer */\n      and\n        /* \"rewards-tracking-contract.sol\":6466:6482  jobTakerReferrer */\n      dup4\n      sub(shl(0xa0, 0x01), 0x01)\n        /* \"rewards-tracking-contract.sol\":6466:6502  jobTakerReferrer != jobGiverReferrer */\n      and\n      eq\n      iszero\n        /* \"rewards-tracking-contract.sol\":6391:6502  jobTakerReferrer != address(0) && jobTakerReferrer != selectedApplicant && jobTakerReferrer != jobGiverReferrer */\n    tag_182:\n        /* \"rewards-tracking-contract.sol\":6387:6614  if (jobTakerReferrer != address(0) && jobTakerReferrer != selectedApplicant && jobTakerReferrer != jobGiverReferrer) {... */\n      iszero\n      tag_183\n      jumpi\n        /* \"rewards-tracking-contract.sol\":6518:6581  calculateAndUpdateTokens(jobTakerReferrer, paidAmountUSDT / 10) */\n      tag_184\n        /* \"rewards-tracking-contract.sol\":6543:6559  jobTakerReferrer */\n      dup4\n        /* \"rewards-tracking-contract.sol\":6561:6580  paidAmountUSDT / 10 */\n      tag_179\n        /* \"rewards-tracking-contract.sol\":6578:6580  10 */\n      0x0a\n        /* \"rewards-tracking-contract.sol\":6561:6575  paidAmountUSDT */\n      dup11\n        /* \"rewards-tracking-contract.sol\":6561:6580  paidAmountUSDT / 10 */\n      tag_180\n      jump\t// in\n        /* \"rewards-tracking-contract.sol\":6518:6581  calculateAndUpdateTokens(jobTakerReferrer, paidAmountUSDT / 10) */\n    tag_184:\n      pop\n        /* \"rewards-tracking-contract.sol\":6387:6614  if (jobTakerReferrer != address(0) && jobTakerReferrer != selectedApplicant && jobTakerReferrer != jobGiverReferrer) {... */\n    tag_183:\n        /* \"rewards-tracking-contract.sol\":6637:6735  RewardsUpdated(jobId, paidAmountUSDT, jobGiver, selectedApplicant, jobGiverTokens, jobTakerTokens) */\n      0x40\n      dup1\n      mload\n        /* \"#utility.yul\":1225:1250   */\n      dup9\n      dup2\n      mstore\n        /* \"#utility.yul\":1281:1283   */\n      0x20\n        /* \"#utility.yul\":1266:1284   */\n      dup2\n      add\n        /* \"#utility.yul\":1259:1293   */\n      dup5\n      swap1\n      mstore\n        /* \"#utility.yul\":1309:1327   */\n      swap1\n      dup2\n      add\n        /* \"#utility.yul\":1302:1336   */\n      dup3\n      swap1\n      mstore\n      sub(shl(0xa0, 0x01), 0x01)\n        /* \"rewards-tracking-contract.sol\":6637:6735  RewardsUpdated(jobId, paidAmountUSDT, jobGiver, selectedApplicant, jobGiverTokens, jobTakerTokens) */\n      dup1\n      dup8\n      and\n      swap2\n      swap1\n      dup9\n      and\n      swap1\n        /* \"rewards-tracking-contract.sol\":6652:6657  jobId */\n      dup11\n      swap1\n        /* \"rewards-tracking-contract.sol\":6637:6735  RewardsUpdated(jobId, paidAmountUSDT, jobGiver, selectedApplicant, jobGiverTokens, jobTakerTokens) */\n      0xf0507b68a744db6f63183fb7e722285fb3cbf6f6aa13c12ff186432859e368e2\n      swap1\n        /* \"#utility.yul\":1213:1215   */\n      0x60\n        /* \"#utility.yul\":1198:1216   */\n      add\n        /* \"rewards-tracking-contract.sol\":6637:6735  RewardsUpdated(jobId, paidAmountUSDT, jobGiver, selectedApplicant, jobGiverTokens, jobTakerTokens) */\n      mload(0x40)\n      dup1\n      swap2\n      sub\n      swap1\n      log4\n        /* \"rewards-tracking-contract.sol\":4883:6742  {... */\n      pop\n      pop\n      pop\n      pop\n      pop\n      pop\n        /* \"rewards-tracking-contract.sol\":4812:6742  function updateRewards(uint256 jobId, uint256 paidAmountUSDT) external {... */\n      pop\n      pop\n      jump\t// out\n        /* \"rewards-tracking-contract.sol\":10445:10592  function updateUserCumulativeEarnings(address user, uint256 newAmount) external onlyOwner {... */\n    tag_82:\n        /* \"@openzeppelin/contracts/access/Ownable.sol\":1531:1544  _checkOwner() */\n      tag_188\n        /* \"@openzeppelin/contracts/access/Ownable.sol\":1531:1542  _checkOwner */\n      tag_129\n        /* \"@openzeppelin/contracts/access/Ownable.sol\":1531:1544  _checkOwner() */\n      jump\t// in\n    tag_188:\n      sub(shl(0xa0, 0x01), 0x01)\n        /* \"rewards-tracking-contract.sol\":10545:10573  userCumulativeEarnings[user] */\n      swap1\n      swap2\n      and\n      0x00\n      swap1\n      dup2\n      mstore\n        /* \"rewards-tracking-contract.sol\":10545:10567  userCumulativeEarnings */\n      0x02\n        /* \"rewards-tracking-contract.sol\":10545:10573  userCumulativeEarnings[user] */\n      0x20\n      mstore\n      0x40\n      swap1\n      keccak256\n        /* \"rewards-tracking-contract.sol\":10545:10585  userCumulativeEarnings[user] = newAmount */\n      sstore\n        /* \"rewards-tracking-contract.sol\":10445:10592  function updateUserCumulativeEarnings(address user, uint256 newAmount) external onlyOwner {... */\n      jump\t// out\n        /* \"rewards-tracking-contract.sol\":7459:8670  function calculateTokensForRange(uint256 fromAmount, uint256 toAmount) public view returns (uint256) {... */\n    tag_98:\n        /* \"rewards-tracking-contract.sol\":7551:7558  uint256 */\n      0x00\n        /* \"rewards-tracking-contract.sol\":7588:7596  toAmount */\n      dup2\n        /* \"rewards-tracking-contract.sol\":7574:7584  fromAmount */\n      dup4\n        /* \"rewards-tracking-contract.sol\":7574:7596  fromAmount >= toAmount */\n      lt\n        /* \"rewards-tracking-contract.sol\":7570:7631  if (fromAmount >= toAmount) {... */\n      tag_191\n      jumpi\n      pop\n        /* \"rewards-tracking-contract.sol\":7619:7620  0 */\n      0x00\n        /* \"rewards-tracking-contract.sol\":7612:7620  return 0 */\n      jump(tag_145)\n        /* \"rewards-tracking-contract.sol\":7570:7631  if (fromAmount >= toAmount) {... */\n    tag_191:\n        /* \"rewards-tracking-contract.sol\":7649:7668  uint256 totalTokens */\n      0x00\n        /* \"rewards-tracking-contract.sol\":7706:7716  fromAmount */\n      dup4\n        /* \"rewards-tracking-contract.sol\":7649:7668  uint256 totalTokens */\n      dup2\n        /* \"rewards-tracking-contract.sol\":7735:8627  for (uint256 i = 0; i < rewardBands.length && currentAmount < toAmount; i++) {... */\n    tag_192:\n        /* \"rewards-tracking-contract.sol\":7759:7770  rewardBands */\n      0x06\n        /* \"rewards-tracking-contract.sol\":7759:7777  rewardBands.length */\n      sload\n        /* \"rewards-tracking-contract.sol\":7755:7777  i < rewardBands.length */\n      dup2\n      lt\n        /* \"rewards-tracking-contract.sol\":7755:7805  i < rewardBands.length && currentAmount < toAmount */\n      dup1\n      iszero\n      tag_195\n      jumpi\n      pop\n        /* \"rewards-tracking-contract.sol\":7797:7805  toAmount */\n      dup5\n        /* \"rewards-tracking-contract.sol\":7781:7794  currentAmount */\n      dup3\n        /* \"rewards-tracking-contract.sol\":7781:7805  currentAmount < toAmount */\n      lt\n        /* \"rewards-tracking-contract.sol\":7755:7805  i < rewardBands.length && currentAmount < toAmount */\n    tag_195:\n        /* \"rewards-tracking-contract.sol\":7735:8627  for (uint256 i = 0; i < rewardBands.length && currentAmount < toAmount; i++) {... */\n      iszero\n      tag_193\n      jumpi\n        /* \"rewards-tracking-contract.sol\":7826:7848  RewardBand memory band */\n      0x00\n        /* \"rewards-tracking-contract.sol\":7851:7862  rewardBands */\n      0x06\n        /* \"rewards-tracking-contract.sol\":7863:7864  i */\n      dup3\n        /* \"rewards-tracking-contract.sol\":7851:7865  rewardBands[i] */\n      dup2\n      sload\n      dup2\n      lt\n      tag_197\n      jumpi\n      tag_197\n      tag_142\n      jump\t// in\n    tag_197:\n      0x00\n      swap2\n      dup3\n      mstore\n      0x20\n      swap2\n      dup3\n      swap1\n      keccak256\n        /* \"rewards-tracking-contract.sol\":7826:7865  RewardBand memory band = rewardBands[i] */\n      0x40\n      dup1\n      mload\n      0x60\n      dup2\n      add\n      dup3\n      mstore\n        /* \"rewards-tracking-contract.sol\":7851:7865  rewardBands[i] */\n      0x03\n      swap1\n      swap4\n      mul\n      swap1\n      swap2\n      add\n        /* \"rewards-tracking-contract.sol\":7826:7865  RewardBand memory band = rewardBands[i] */\n      dup1\n      sload\n      dup4\n      mstore\n      0x01\n      dup2\n      add\n      sload\n      swap4\n      dup4\n      add\n      dup5\n      swap1\n      mstore\n      0x02\n      add\n      sload\n      swap1\n      dup3\n      add\n      mstore\n      swap2\n      pop\n        /* \"rewards-tracking-contract.sol\":7965:7996  band.maxAmount <= currentAmount */\n      dup4\n      lt\n        /* \"rewards-tracking-contract.sol\":7961:8039  if (band.maxAmount <= currentAmount) {... */\n      tag_199\n      jumpi\n        /* \"rewards-tracking-contract.sol\":8016:8024  continue */\n      pop\n      jump(tag_194)\n        /* \"rewards-tracking-contract.sol\":7961:8039  if (band.maxAmount <= currentAmount) {... */\n    tag_199:\n        /* \"rewards-tracking-contract.sol\":8153:8167  band.minAmount */\n      dup1\n      mload\n        /* \"rewards-tracking-contract.sol\":8117:8134  uint256 bandStart */\n      0x00\n      swap1\n        /* \"rewards-tracking-contract.sol\":8137:8167  currentAmount > band.minAmount */\n      dup5\n      gt\n        /* \"rewards-tracking-contract.sol\":8137:8200  currentAmount > band.minAmount ? currentAmount : band.minAmount */\n      tag_200\n      jumpi\n        /* \"rewards-tracking-contract.sol\":8186:8200  band.minAmount */\n      dup2\n      mload\n        /* \"rewards-tracking-contract.sol\":8137:8200  currentAmount > band.minAmount ? currentAmount : band.minAmount */\n      jump(tag_201)\n    tag_200:\n        /* \"rewards-tracking-contract.sol\":8170:8183  currentAmount */\n      dup4\n        /* \"rewards-tracking-contract.sol\":8137:8200  currentAmount > band.minAmount ? currentAmount : band.minAmount */\n    tag_201:\n        /* \"rewards-tracking-contract.sol\":8117:8200  uint256 bandStart = currentAmount > band.minAmount ? currentAmount : band.minAmount */\n      swap1\n      pop\n        /* \"rewards-tracking-contract.sol\":8214:8229  uint256 bandEnd */\n      0x00\n        /* \"rewards-tracking-contract.sol\":8243:8247  band */\n      dup3\n        /* \"rewards-tracking-contract.sol\":8243:8257  band.maxAmount */\n      0x20\n      add\n      mload\n        /* \"rewards-tracking-contract.sol\":8232:8240  toAmount */\n      dup9\n        /* \"rewards-tracking-contract.sol\":8232:8257  toAmount < band.maxAmount */\n      lt\n        /* \"rewards-tracking-contract.sol\":8232:8285  toAmount < band.maxAmount ? toAmount : band.maxAmount */\n      tag_202\n      jumpi\n        /* \"rewards-tracking-contract.sol\":8271:8275  band */\n      dup3\n        /* \"rewards-tracking-contract.sol\":8271:8285  band.maxAmount */\n      0x20\n      add\n      mload\n        /* \"rewards-tracking-contract.sol\":8232:8285  toAmount < band.maxAmount ? toAmount : band.maxAmount */\n      jump(tag_203)\n    tag_202:\n        /* \"rewards-tracking-contract.sol\":8260:8268  toAmount */\n      dup8\n        /* \"rewards-tracking-contract.sol\":8232:8285  toAmount < band.maxAmount ? toAmount : band.maxAmount */\n    tag_203:\n        /* \"rewards-tracking-contract.sol\":8214:8285  uint256 bandEnd = toAmount < band.maxAmount ? toAmount : band.maxAmount */\n      swap1\n      pop\n        /* \"rewards-tracking-contract.sol\":8328:8335  bandEnd */\n      dup1\n        /* \"rewards-tracking-contract.sol\":8316:8325  bandStart */\n      dup3\n        /* \"rewards-tracking-contract.sol\":8316:8335  bandStart < bandEnd */\n      lt\n        /* \"rewards-tracking-contract.sol\":8312:8617  if (bandStart < bandEnd) {... */\n      iszero\n      tag_204\n      jumpi\n        /* \"rewards-tracking-contract.sol\":8355:8375  uint256 amountInBand */\n      0x00\n        /* \"rewards-tracking-contract.sol\":8378:8397  bandEnd - bandStart */\n      tag_205\n        /* \"rewards-tracking-contract.sol\":8388:8397  bandStart */\n      dup4\n        /* \"rewards-tracking-contract.sol\":8378:8385  bandEnd */\n      dup4\n        /* \"rewards-tracking-contract.sol\":8378:8397  bandEnd - bandStart */\n      tag_206\n      jump\t// in\n    tag_205:\n        /* \"rewards-tracking-contract.sol\":8355:8397  uint256 amountInBand = bandEnd - bandStart */\n      swap1\n      pop\n        /* \"rewards-tracking-contract.sol\":8415:8435  uint256 tokensInBand */\n      0x00\n        /* \"rewards-tracking-contract.sol\":8474:8477  1e6 */\n      0x0f4240\n        /* \"rewards-tracking-contract.sol\":8454:8458  band */\n      dup6\n        /* \"rewards-tracking-contract.sol\":8454:8470  band.owPerDollar */\n      0x40\n      add\n      mload\n        /* \"rewards-tracking-contract.sol\":8439:8451  amountInBand */\n      dup4\n        /* \"rewards-tracking-contract.sol\":8439:8470  amountInBand * band.owPerDollar */\n      tag_207\n      swap2\n      swap1\n      tag_208\n      jump\t// in\n    tag_207:\n        /* \"rewards-tracking-contract.sol\":8438:8477  (amountInBand * band.owPerDollar) / 1e6 */\n      tag_209\n      swap2\n      swap1\n      tag_180\n      jump\t// in\n    tag_209:\n        /* \"rewards-tracking-contract.sol\":8415:8477  uint256 tokensInBand = (amountInBand * band.owPerDollar) / 1e6 */\n      swap1\n      pop\n        /* \"rewards-tracking-contract.sol\":8534:8561  totalTokens += tokensInBand */\n      tag_210\n        /* \"rewards-tracking-contract.sol\":8415:8477  uint256 tokensInBand = (amountInBand * band.owPerDollar) / 1e6 */\n      dup2\n        /* \"rewards-tracking-contract.sol\":8534:8561  totalTokens += tokensInBand */\n      dup10\n      tag_147\n      jump\t// in\n    tag_210:\n      swap8\n      pop\n        /* \"rewards-tracking-contract.sol\":8595:8602  bandEnd */\n      dup3\n        /* \"rewards-tracking-contract.sol\":8579:8602  currentAmount = bandEnd */\n      swap7\n      pop\n        /* \"rewards-tracking-contract.sol\":8337:8617  {... */\n      pop\n      pop\n        /* \"rewards-tracking-contract.sol\":8312:8617  if (bandStart < bandEnd) {... */\n    tag_204:\n        /* \"rewards-tracking-contract.sol\":7812:8627  {... */\n      pop\n      pop\n      pop\n        /* \"rewards-tracking-contract.sol\":7735:8627  for (uint256 i = 0; i < rewardBands.length && currentAmount < toAmount; i++) {... */\n    tag_194:\n        /* \"rewards-tracking-contract.sol\":7807:7810  i++ */\n      dup1\n      tag_211\n      dup2\n      tag_212\n      jump\t// in\n    tag_211:\n      swap2\n      pop\n      pop\n        /* \"rewards-tracking-contract.sol\":7735:8627  for (uint256 i = 0; i < rewardBands.length && currentAmount < toAmount; i++) {... */\n      jump(tag_192)\n    tag_193:\n      pop\n        /* \"rewards-tracking-contract.sol\":8652:8663  totalTokens */\n      swap1\n      swap5\n        /* \"rewards-tracking-contract.sol\":7459:8670  function calculateTokensForRange(uint256 fromAmount, uint256 toAmount) public view returns (uint256) {... */\n      swap4\n      pop\n      pop\n      pop\n      pop\n      jump\t// out\n        /* \"@openzeppelin/contracts/access/Ownable.sol\":2543:2758  function transferOwnership(address newOwner) public virtual onlyOwner {... */\n    tag_106:\n        /* \"@openzeppelin/contracts/access/Ownable.sol\":1531:1544  _checkOwner() */\n      tag_214\n        /* \"@openzeppelin/contracts/access/Ownable.sol\":1531:1542  _checkOwner */\n      tag_129\n        /* \"@openzeppelin/contracts/access/Ownable.sol\":1531:1544  _checkOwner() */\n      jump\t// in\n    tag_214:\n      sub(shl(0xa0, 0x01), 0x01)\n        /* \"@openzeppelin/contracts/access/Ownable.sol\":2627:2649  newOwner == address(0) */\n      dup2\n      and\n        /* \"@openzeppelin/contracts/access/Ownable.sol\":2623:2714  if (newOwner == address(0)) {... */\n      tag_216\n      jumpi\n        /* \"@openzeppelin/contracts/access/Ownable.sol\":2672:2703  OwnableInvalidOwner(address(0)) */\n      mload(0x40)\n      shl(0xe0, 0x1e4fbdf7)\n      dup2\n      mstore\n        /* \"@openzeppelin/contracts/access/Ownable.sol\":2700:2701  0 */\n      0x00\n        /* \"@openzeppelin/contracts/access/Ownable.sol\":2672:2703  OwnableInvalidOwner(address(0)) */\n      0x04\n      dup3\n      add\n        /* \"#utility.yul\":961:1012   */\n      mstore\n        /* \"#utility.yul\":934:952   */\n      0x24\n      add\n        /* \"@openzeppelin/contracts/access/Ownable.sol\":2672:2703  OwnableInvalidOwner(address(0)) */\n      tag_138\n        /* \"#utility.yul\":815:1018   */\n      jump\n        /* \"@openzeppelin/contracts/access/Ownable.sol\":2623:2714  if (newOwner == address(0)) {... */\n    tag_216:\n        /* \"@openzeppelin/contracts/access/Ownable.sol\":2723:2751  _transferOwnership(newOwner) */\n      tag_218\n        /* \"@openzeppelin/contracts/access/Ownable.sol\":2742:2750  newOwner */\n      dup2\n        /* \"@openzeppelin/contracts/access/Ownable.sol\":2723:2741  _transferOwnership */\n      tag_132\n        /* \"@openzeppelin/contracts/access/Ownable.sol\":2723:2751  _transferOwnership(newOwner) */\n      jump\t// in\n    tag_218:\n        /* \"@openzeppelin/contracts/access/Ownable.sol\":2543:2758  function transferOwnership(address newOwner) public virtual onlyOwner {... */\n      pop\n      jump\t// out\n        /* \"rewards-tracking-contract.sol\":2300:2422  function setJobContract(address _jobContract) external onlyOwner {... */\n    tag_109:\n        /* \"@openzeppelin/contracts/access/Ownable.sol\":1531:1544  _checkOwner() */\n      tag_220\n        /* \"@openzeppelin/contracts/access/Ownable.sol\":1531:1542  _checkOwner */\n      tag_129\n        /* \"@openzeppelin/contracts/access/Ownable.sol\":1531:1544  _checkOwner() */\n      jump\t// in\n    tag_220:\n        /* \"rewards-tracking-contract.sol\":2375:2386  jobContract */\n      0x01\n        /* \"rewards-tracking-contract.sol\":2375:2415  jobContract = IJobContract(_jobContract) */\n      dup1\n      sload\n      not(sub(shl(0xa0, 0x01), 0x01))\n      and\n      sub(shl(0xa0, 0x01), 0x01)\n      swap3\n      swap1\n      swap3\n      and\n      swap2\n      swap1\n      swap2\n      or\n      swap1\n      sstore\n        /* \"rewards-tracking-contract.sol\":2300:2422  function setJobContract(address _jobContract) external onlyOwner {... */\n      jump\t// out\n        /* \"@openzeppelin/contracts/access/Ownable.sol\":1796:1958  function _checkOwner() internal view virtual {... */\n    tag_129:\n        /* \"@openzeppelin/contracts/access/Ownable.sol\":1684:1691  address */\n      0x00\n        /* \"@openzeppelin/contracts/access/Ownable.sol\":1710:1716  _owner */\n      sload\n      sub(shl(0xa0, 0x01), 0x01)\n      and\n        /* \"@openzeppelin/contracts/utils/Context.sol\":735:745  msg.sender */\n      caller\n        /* \"@openzeppelin/contracts/access/Ownable.sol\":1855:1878  owner() != _msgSender() */\n      eq\n        /* \"@openzeppelin/contracts/access/Ownable.sol\":1851:1952  if (owner() != _msgSender()) {... */\n      tag_131\n      jumpi\n        /* \"@openzeppelin/contracts/access/Ownable.sol\":1901:1941  OwnableUnauthorizedAccount(_msgSender()) */\n      mload(0x40)\n      shl(0xe0, 0x118cdaa7)\n      dup2\n      mstore\n        /* \"@openzeppelin/contracts/utils/Context.sol\":735:745  msg.sender */\n      caller\n        /* \"@openzeppelin/contracts/access/Ownable.sol\":1901:1941  OwnableUnauthorizedAccount(_msgSender()) */\n      0x04\n      dup3\n      add\n        /* \"#utility.yul\":961:1012   */\n      mstore\n        /* \"#utility.yul\":934:952   */\n      0x24\n      add\n        /* \"@openzeppelin/contracts/access/Ownable.sol\":1901:1941  OwnableUnauthorizedAccount(_msgSender()) */\n      tag_138\n        /* \"#utility.yul\":815:1018   */\n      jump\n        /* \"@openzeppelin/contracts/access/Ownable.sol\":2912:3099  function _transferOwnership(address newOwner) internal virtual {... */\n    tag_132:\n        /* \"@openzeppelin/contracts/access/Ownable.sol\":2985:3001  address oldOwner */\n      0x00\n        /* \"@openzeppelin/contracts/access/Ownable.sol\":3004:3010  _owner */\n      dup1\n      sload\n      sub(shl(0xa0, 0x01), 0x01)\n        /* \"@openzeppelin/contracts/access/Ownable.sol\":3020:3037  _owner = newOwner */\n      dup4\n      dup2\n      and\n      not(sub(shl(0xa0, 0x01), 0x01))\n      dup4\n      and\n      dup2\n      or\n      dup5\n      sstore\n        /* \"@openzeppelin/contracts/access/Ownable.sol\":3052:3092  OwnershipTransferred(oldOwner, newOwner) */\n      mload(0x40)\n        /* \"@openzeppelin/contracts/access/Ownable.sol\":3004:3010  _owner */\n      swap2\n      swap1\n      swap3\n      and\n      swap3\n      dup4\n      swap2\n        /* \"@openzeppelin/contracts/access/Ownable.sol\":3052:3092  OwnershipTransferred(oldOwner, newOwner) */\n      0x8be0079c531659141344cd1fd0a4f28419497f9722a3daafe3b4186f6b6457e0\n      swap2\n        /* \"@openzeppelin/contracts/access/Ownable.sol\":2985:3001  address oldOwner */\n      swap1\n        /* \"@openzeppelin/contracts/access/Ownable.sol\":3052:3092  OwnershipTransferred(oldOwner, newOwner) */\n      log3\n        /* \"@openzeppelin/contracts/access/Ownable.sol\":2975:3099  {... */\n      pop\n        /* \"@openzeppelin/contracts/access/Ownable.sol\":2912:3099  function _transferOwnership(address newOwner) internal virtual {... */\n      pop\n      jump\t// out\n        /* \"rewards-tracking-contract.sol\":6752:7449  function calculateAndUpdateTokens(address user, uint256 amountUSDT) private returns (uint256) {... */\n    tag_174:\n      sub(shl(0xa0, 0x01), 0x01)\n        /* \"rewards-tracking-contract.sol\":6884:6912  userCumulativeEarnings[user] */\n      dup3\n      and\n        /* \"rewards-tracking-contract.sol\":6837:6844  uint256 */\n      0x00\n        /* \"rewards-tracking-contract.sol\":6884:6912  userCumulativeEarnings[user] */\n      swap1\n      dup2\n      mstore\n        /* \"rewards-tracking-contract.sol\":6884:6906  userCumulativeEarnings */\n      0x02\n        /* \"rewards-tracking-contract.sol\":6884:6912  userCumulativeEarnings[user] */\n      0x20\n      mstore\n      0x40\n      dup2\n      keccak256\n      sload\n        /* \"rewards-tracking-contract.sol\":6837:6844  uint256 */\n      dup2\n        /* \"rewards-tracking-contract.sol\":6946:6976  currentCumulative + amountUSDT */\n      tag_231\n        /* \"rewards-tracking-contract.sol\":6966:6976  amountUSDT */\n      dup5\n        /* \"rewards-tracking-contract.sol\":6884:6912  userCumulativeEarnings[user] */\n      dup4\n        /* \"rewards-tracking-contract.sol\":6946:6976  currentCumulative + amountUSDT */\n      tag_147\n      jump\t// in\n    tag_231:\n        /* \"rewards-tracking-contract.sol\":6922:6976  uint256 newCumulative = currentCumulative + amountUSDT */\n      swap1\n      pop\n        /* \"rewards-tracking-contract.sol\":7050:7071  uint256 tokensToAward */\n      0x00\n        /* \"rewards-tracking-contract.sol\":7074:7131  calculateTokensForRange(currentCumulative, newCumulative) */\n      tag_232\n        /* \"rewards-tracking-contract.sol\":7098:7115  currentCumulative */\n      dup4\n        /* \"rewards-tracking-contract.sol\":7117:7130  newCumulative */\n      dup4\n        /* \"rewards-tracking-contract.sol\":7074:7097  calculateTokensForRange */\n      tag_98\n        /* \"rewards-tracking-contract.sol\":7074:7131  calculateTokensForRange(currentCumulative, newCumulative) */\n      jump\t// in\n    tag_232:\n      sub(shl(0xa0, 0x01), 0x01)\n        /* \"rewards-tracking-contract.sol\":7212:7240  userCumulativeEarnings[user] */\n      dup8\n      and\n      0x00\n      swap1\n      dup2\n      mstore\n        /* \"rewards-tracking-contract.sol\":7212:7234  userCumulativeEarnings */\n      0x02\n        /* \"rewards-tracking-contract.sol\":7212:7240  userCumulativeEarnings[user] */\n      0x20\n      swap1\n      dup2\n      mstore\n      0x40\n      dup1\n      dup4\n      keccak256\n        /* \"rewards-tracking-contract.sol\":7212:7256  userCumulativeEarnings[user] = newCumulative */\n      dup7\n      swap1\n      sstore\n        /* \"rewards-tracking-contract.sol\":7266:7283  userTotalOWTokens */\n      0x03\n        /* \"rewards-tracking-contract.sol\":7266:7289  userTotalOWTokens[user] */\n      swap1\n      swap2\n      mstore\n      dup2\n      keccak256\n        /* \"rewards-tracking-contract.sol\":7266:7306  userTotalOWTokens[user] += tokensToAward */\n      dup1\n      sload\n        /* \"rewards-tracking-contract.sol\":7050:7131  uint256 tokensToAward = calculateTokensForRange(currentCumulative, newCumulative) */\n      swap3\n      swap4\n      pop\n      dup4\n      swap3\n        /* \"rewards-tracking-contract.sol\":7266:7289  userTotalOWTokens[user] */\n      swap1\n      swap2\n        /* \"rewards-tracking-contract.sol\":7212:7240  userCumulativeEarnings[user] */\n      swap1\n        /* \"rewards-tracking-contract.sol\":7266:7306  userTotalOWTokens[user] += tokensToAward */\n      tag_233\n      swap1\n        /* \"rewards-tracking-contract.sol\":7050:7131  uint256 tokensToAward = calculateTokensForRange(currentCumulative, newCumulative) */\n      dup5\n      swap1\n        /* \"rewards-tracking-contract.sol\":7266:7306  userTotalOWTokens[user] += tokensToAward */\n      tag_147\n      jump\t// in\n    tag_233:\n      swap1\n      swap2\n      sstore\n      pop\n      pop\n      sub(shl(0xa0, 0x01), 0x01)\n        /* \"rewards-tracking-contract.sol\":7330:7403  TokensEarned(user, tokensToAward, newCumulative, userTotalOWTokens[user]) */\n      dup7\n      and\n        /* \"rewards-tracking-contract.sol\":7379:7402  userTotalOWTokens[user] */\n      0x00\n      dup2\n      dup2\n      mstore\n        /* \"rewards-tracking-contract.sol\":7379:7396  userTotalOWTokens */\n      0x03\n        /* \"rewards-tracking-contract.sol\":7379:7402  userTotalOWTokens[user] */\n      0x20\n      swap1\n      dup2\n      mstore\n      0x40\n      swap2\n      dup3\n      swap1\n      keccak256\n      sload\n        /* \"rewards-tracking-contract.sol\":7330:7403  TokensEarned(user, tokensToAward, newCumulative, userTotalOWTokens[user]) */\n      dup3\n      mload\n        /* \"#utility.yul\":1225:1250   */\n      dup6\n      dup2\n      mstore\n        /* \"#utility.yul\":1266:1284   */\n      swap2\n      dup3\n      add\n        /* \"#utility.yul\":1259:1293   */\n      dup7\n      swap1\n      mstore\n        /* \"#utility.yul\":1309:1327   */\n      dup2\n      dup4\n      add\n        /* \"#utility.yul\":1302:1336   */\n      mstore\n        /* \"rewards-tracking-contract.sol\":7330:7403  TokensEarned(user, tokensToAward, newCumulative, userTotalOWTokens[user]) */\n      swap1\n      mload\n      0x53f3ad2fd40a9f84e221858c8242ce2e4a5f164c3a550d1e3a70e53123a402fa\n      swap2\n      dup2\n      swap1\n      sub\n        /* \"#utility.yul\":1213:1215   */\n      0x60\n        /* \"rewards-tracking-contract.sol\":7330:7403  TokensEarned(user, tokensToAward, newCumulative, userTotalOWTokens[user]) */\n      add\n      swap1\n      log2\n        /* \"rewards-tracking-contract.sol\":7429:7442  tokensToAward */\n      swap6\n        /* \"rewards-tracking-contract.sol\":6752:7449  function calculateAndUpdateTokens(address user, uint256 amountUSDT) private returns (uint256) {... */\n      swap5\n      pop\n      pop\n      pop\n      pop\n      pop\n      jump\t// out\n        /* \"#utility.yul\":196:327   */\n    tag_236:\n      sub(shl(0xa0, 0x01), 0x01)\n        /* \"#utility.yul\":271:302   */\n      dup2\n      and\n        /* \"#utility.yul\":261:303   */\n      dup2\n      eq\n        /* \"#utility.yul\":251:321   */\n      tag_218\n      jumpi\n        /* \"#utility.yul\":317:318   */\n      0x00\n        /* \"#utility.yul\":314:315   */\n      dup1\n        /* \"#utility.yul\":307:319   */\n      revert\n        /* \"#utility.yul\":332:579   */\n    tag_33:\n        /* \"#utility.yul\":391:397   */\n      0x00\n        /* \"#utility.yul\":444:446   */\n      0x20\n        /* \"#utility.yul\":432:441   */\n      dup3\n        /* \"#utility.yul\":423:430   */\n      dup5\n        /* \"#utility.yul\":419:442   */\n      sub\n        /* \"#utility.yul\":415:447   */\n      slt\n        /* \"#utility.yul\":412:464   */\n      iszero\n      tag_251\n      jumpi\n        /* \"#utility.yul\":460:461   */\n      0x00\n        /* \"#utility.yul\":457:458   */\n      dup1\n        /* \"#utility.yul\":450:462   */\n      revert\n        /* \"#utility.yul\":412:464   */\n    tag_251:\n        /* \"#utility.yul\":499:508   */\n      dup2\n        /* \"#utility.yul\":486:509   */\n      calldataload\n        /* \"#utility.yul\":518:549   */\n      tag_252\n        /* \"#utility.yul\":543:548   */\n      dup2\n        /* \"#utility.yul\":518:549   */\n      tag_236\n      jump\t// in\n    tag_252:\n        /* \"#utility.yul\":568:573   */\n      swap4\n        /* \"#utility.yul\":332:579   */\n      swap3\n      pop\n      pop\n      pop\n      jump\t// out\n        /* \"#utility.yul\":584:810   */\n    tag_38:\n        /* \"#utility.yul\":643:649   */\n      0x00\n        /* \"#utility.yul\":696:698   */\n      0x20\n        /* \"#utility.yul\":684:693   */\n      dup3\n        /* \"#utility.yul\":675:682   */\n      dup5\n        /* \"#utility.yul\":671:694   */\n      sub\n        /* \"#utility.yul\":667:699   */\n      slt\n        /* \"#utility.yul\":664:716   */\n      iszero\n      tag_254\n      jumpi\n        /* \"#utility.yul\":712:713   */\n      0x00\n        /* \"#utility.yul\":709:710   */\n      dup1\n        /* \"#utility.yul\":702:714   */\n      revert\n        /* \"#utility.yul\":664:716   */\n    tag_254:\n      pop\n        /* \"#utility.yul\":757:780   */\n      calldataload\n      swap2\n        /* \"#utility.yul\":584:810   */\n      swap1\n      pop\n      jump\t// out\n        /* \"#utility.yul\":1347:1714   */\n    tag_63:\n        /* \"#utility.yul\":1415:1421   */\n      0x00\n        /* \"#utility.yul\":1423:1429   */\n      dup1\n        /* \"#utility.yul\":1476:1478   */\n      0x40\n        /* \"#utility.yul\":1464:1473   */\n      dup4\n        /* \"#utility.yul\":1455:1462   */\n      dup6\n        /* \"#utility.yul\":1451:1474   */\n      sub\n        /* \"#utility.yul\":1447:1479   */\n      slt\n        /* \"#utility.yul\":1444:1496   */\n      iszero\n      tag_258\n      jumpi\n        /* \"#utility.yul\":1492:1493   */\n      0x00\n        /* \"#utility.yul\":1489:1490   */\n      dup1\n        /* \"#utility.yul\":1482:1494   */\n      revert\n        /* \"#utility.yul\":1444:1496   */\n    tag_258:\n        /* \"#utility.yul\":1531:1540   */\n      dup3\n        /* \"#utility.yul\":1518:1541   */\n      calldataload\n        /* \"#utility.yul\":1550:1581   */\n      tag_259\n        /* \"#utility.yul\":1575:1580   */\n      dup2\n        /* \"#utility.yul\":1550:1581   */\n      tag_236\n      jump\t// in\n    tag_259:\n        /* \"#utility.yul\":1600:1605   */\n      swap5\n        /* \"#utility.yul\":1678:1680   */\n      0x20\n        /* \"#utility.yul\":1663:1681   */\n      swap4\n      swap1\n      swap4\n      add\n        /* \"#utility.yul\":1650:1682   */\n      calldataload\n      swap4\n      pop\n      pop\n      pop\n        /* \"#utility.yul\":1347:1714   */\n      jump\t// out\n        /* \"#utility.yul\":1719:2065   */\n    tag_78:\n        /* \"#utility.yul\":1787:1793   */\n      0x00\n        /* \"#utility.yul\":1795:1801   */\n      dup1\n        /* \"#utility.yul\":1848:1850   */\n      0x40\n        /* \"#utility.yul\":1836:1845   */\n      dup4\n        /* \"#utility.yul\":1827:1834   */\n      dup6\n        /* \"#utility.yul\":1823:1846   */\n      sub\n        /* \"#utility.yul\":1819:1851   */\n      slt\n        /* \"#utility.yul\":1816:1868   */\n      iszero\n      tag_261\n      jumpi\n        /* \"#utility.yul\":1864:1865   */\n      0x00\n        /* \"#utility.yul\":1861:1862   */\n      dup1\n        /* \"#utility.yul\":1854:1866   */\n      revert\n        /* \"#utility.yul\":1816:1868   */\n    tag_261:\n      pop\n      pop\n        /* \"#utility.yul\":1909:1932   */\n      dup1\n      calldataload\n      swap3\n        /* \"#utility.yul\":2029:2031   */\n      0x20\n        /* \"#utility.yul\":2014:2032   */\n      swap1\n      swap2\n      add\n        /* \"#utility.yul\":2001:2033   */\n      calldataload\n      swap2\n      pop\n        /* \"#utility.yul\":1719:2065   */\n      jump\t// out\n        /* \"#utility.yul\":2491:2629   */\n    tag_237:\n        /* \"#utility.yul\":2570:2583   */\n      dup1\n      mload\n        /* \"#utility.yul\":2592:2623   */\n      tag_123\n        /* \"#utility.yul\":2570:2583   */\n      dup2\n        /* \"#utility.yul\":2592:2623   */\n      tag_236\n      jump\t// in\n        /* \"#utility.yul\":2634:2761   */\n    tag_238:\n        /* \"#utility.yul\":2695:2705   */\n      0x4e487b71\n        /* \"#utility.yul\":2690:2693   */\n      0xe0\n        /* \"#utility.yul\":2686:2706   */\n      shl\n        /* \"#utility.yul\":2683:2684   */\n      0x00\n        /* \"#utility.yul\":2676:2707   */\n      mstore\n        /* \"#utility.yul\":2726:2730   */\n      0x41\n        /* \"#utility.yul\":2723:2724   */\n      0x04\n        /* \"#utility.yul\":2716:2731   */\n      mstore\n        /* \"#utility.yul\":2750:2754   */\n      0x24\n        /* \"#utility.yul\":2747:2748   */\n      0x00\n        /* \"#utility.yul\":2740:2755   */\n      revert\n        /* \"#utility.yul\":2766:3041   */\n    tag_239:\n        /* \"#utility.yul\":2837:2839   */\n      0x40\n        /* \"#utility.yul\":2831:2840   */\n      mload\n        /* \"#utility.yul\":2902:2904   */\n      0x1f\n        /* \"#utility.yul\":2883:2896   */\n      dup3\n      add\n      not(0x1f)\n        /* \"#utility.yul\":2879:2906   */\n      and\n        /* \"#utility.yul\":2867:2907   */\n      dup2\n      add\n        /* \"#utility.yul\":2937:2955   */\n      0xffffffffffffffff\n        /* \"#utility.yul\":2922:2956   */\n      dup2\n      gt\n        /* \"#utility.yul\":2958:2980   */\n      dup3\n      dup3\n      lt\n        /* \"#utility.yul\":2919:2981   */\n      or\n        /* \"#utility.yul\":2916:3004   */\n      iszero\n      tag_269\n      jumpi\n        /* \"#utility.yul\":2984:3002   */\n      tag_269\n      tag_238\n      jump\t// in\n    tag_269:\n        /* \"#utility.yul\":3020:3022   */\n      0x40\n        /* \"#utility.yul\":3013:3035   */\n      mstore\n        /* \"#utility.yul\":2766:3041   */\n      swap2\n      swap1\n      pop\n      jump\t// out\n        /* \"#utility.yul\":3046:3713   */\n    tag_240:\n        /* \"#utility.yul\":3100:3105   */\n      0x00\n        /* \"#utility.yul\":3153:3156   */\n      dup3\n        /* \"#utility.yul\":3146:3150   */\n      0x1f\n        /* \"#utility.yul\":3138:3144   */\n      dup4\n        /* \"#utility.yul\":3134:3151   */\n      add\n        /* \"#utility.yul\":3130:3157   */\n      slt\n        /* \"#utility.yul\":3120:3175   */\n      tag_271\n      jumpi\n        /* \"#utility.yul\":3171:3172   */\n      0x00\n        /* \"#utility.yul\":3168:3169   */\n      dup1\n        /* \"#utility.yul\":3161:3173   */\n      revert\n        /* \"#utility.yul\":3120:3175   */\n    tag_271:\n        /* \"#utility.yul\":3204:3210   */\n      dup2\n        /* \"#utility.yul\":3198:3211   */\n      mload\n        /* \"#utility.yul\":3234:3252   */\n      0xffffffffffffffff\n        /* \"#utility.yul\":3226:3232   */\n      dup2\n        /* \"#utility.yul\":3223:3253   */\n      gt\n        /* \"#utility.yul\":3220:3276   */\n      iszero\n      tag_273\n      jumpi\n        /* \"#utility.yul\":3256:3274   */\n      tag_273\n      tag_238\n      jump\t// in\n    tag_273:\n        /* \"#utility.yul\":3300:3359   */\n      tag_274\n        /* \"#utility.yul\":3347:3349   */\n      0x1f\n        /* \"#utility.yul\":3324:3341   */\n      dup3\n      add\n      not(0x1f)\n        /* \"#utility.yul\":3320:3351   */\n      and\n        /* \"#utility.yul\":3353:3357   */\n      0x20\n        /* \"#utility.yul\":3316:3358   */\n      add\n        /* \"#utility.yul\":3300:3359   */\n      tag_239\n      jump\t// in\n    tag_274:\n        /* \"#utility.yul\":3384:3390   */\n      dup2\n        /* \"#utility.yul\":3375:3382   */\n      dup2\n        /* \"#utility.yul\":3368:3391   */\n      mstore\n        /* \"#utility.yul\":3438:3441   */\n      dup5\n        /* \"#utility.yul\":3431:3435   */\n      0x20\n        /* \"#utility.yul\":3422:3428   */\n      dup4\n        /* \"#utility.yul\":3414:3420   */\n      dup7\n        /* \"#utility.yul\":3410:3429   */\n      add\n        /* \"#utility.yul\":3406:3436   */\n      add\n        /* \"#utility.yul\":3403:3442   */\n      gt\n        /* \"#utility.yul\":3400:3459   */\n      iszero\n      tag_275\n      jumpi\n        /* \"#utility.yul\":3455:3456   */\n      0x00\n        /* \"#utility.yul\":3452:3453   */\n      dup1\n        /* \"#utility.yul\":3445:3457   */\n      revert\n        /* \"#utility.yul\":3400:3459   */\n    tag_275:\n        /* \"#utility.yul\":3477:3478   */\n      0x00\n        /* \"#utility.yul\":3487:3631   */\n    tag_276:\n        /* \"#utility.yul\":3501:3507   */\n      dup3\n        /* \"#utility.yul\":3498:3499   */\n      dup2\n        /* \"#utility.yul\":3495:3508   */\n      lt\n        /* \"#utility.yul\":3487:3631   */\n      iszero\n      tag_278\n      jumpi\n        /* \"#utility.yul\":3614:3618   */\n      0x20\n        /* \"#utility.yul\":3598:3612   */\n      dup2\n      dup7\n      add\n        /* \"#utility.yul\":3594:3619   */\n      dup2\n      add\n        /* \"#utility.yul\":3588:3620   */\n      mload\n        /* \"#utility.yul\":3564:3579   */\n      dup4\n      dup4\n      add\n        /* \"#utility.yul\":3560:3586   */\n      dup3\n      add\n        /* \"#utility.yul\":3553:3621   */\n      mstore\n        /* \"#utility.yul\":3516:3528   */\n      add\n        /* \"#utility.yul\":3487:3631   */\n      jump(tag_276)\n    tag_278:\n      pop\n        /* \"#utility.yul\":3680:3681   */\n      0x00\n        /* \"#utility.yul\":3651:3671   */\n      swap2\n      dup2\n      add\n        /* \"#utility.yul\":3673:3677   */\n      0x20\n        /* \"#utility.yul\":3647:3678   */\n      add\n        /* \"#utility.yul\":3640:3682   */\n      swap2\n      swap1\n      swap2\n      mstore\n        /* \"#utility.yul\":3655:3662   */\n      swap4\n        /* \"#utility.yul\":3046:3713   */\n      swap3\n      pop\n      pop\n      pop\n      jump\t// out\n        /* \"#utility.yul\":3718:3900   */\n    tag_241:\n        /* \"#utility.yul\":3777:3781   */\n      0x00\n        /* \"#utility.yul\":3810:3828   */\n      0xffffffffffffffff\n        /* \"#utility.yul\":3802:3808   */\n      dup3\n        /* \"#utility.yul\":3799:3829   */\n      gt\n        /* \"#utility.yul\":3796:3852   */\n      iszero\n      tag_281\n      jumpi\n        /* \"#utility.yul\":3832:3850   */\n      tag_281\n      tag_238\n      jump\t// in\n    tag_281:\n      pop\n        /* \"#utility.yul\":3877:3878   */\n      0x05\n        /* \"#utility.yul\":3873:3887   */\n      shl\n        /* \"#utility.yul\":3889:3893   */\n      0x20\n        /* \"#utility.yul\":3869:3894   */\n      add\n      swap1\n        /* \"#utility.yul\":3718:3900   */\n      jump\t// out\n        /* \"#utility.yul\":3905:4739   */\n    tag_242:\n        /* \"#utility.yul\":3969:3974   */\n      0x00\n        /* \"#utility.yul\":4022:4025   */\n      dup3\n        /* \"#utility.yul\":4015:4019   */\n      0x1f\n        /* \"#utility.yul\":4007:4013   */\n      dup4\n        /* \"#utility.yul\":4003:4020   */\n      add\n        /* \"#utility.yul\":3999:4026   */\n      slt\n        /* \"#utility.yul\":3989:4044   */\n      tag_283\n      jumpi\n        /* \"#utility.yul\":4040:4041   */\n      0x00\n        /* \"#utility.yul\":4037:4038   */\n      dup1\n        /* \"#utility.yul\":4030:4042   */\n      revert\n        /* \"#utility.yul\":3989:4044   */\n    tag_283:\n        /* \"#utility.yul\":4073:4079   */\n      dup2\n        /* \"#utility.yul\":4067:4080   */\n      mload\n        /* \"#utility.yul\":4100:4163   */\n      tag_284\n        /* \"#utility.yul\":4116:4162   */\n      tag_285\n        /* \"#utility.yul\":4155:4161   */\n      dup3\n        /* \"#utility.yul\":4116:4162   */\n      tag_241\n      jump\t// in\n    tag_285:\n        /* \"#utility.yul\":4100:4163   */\n      tag_239\n      jump\t// in\n    tag_284:\n        /* \"#utility.yul\":4187:4190   */\n      dup1\n        /* \"#utility.yul\":4211:4217   */\n      dup3\n        /* \"#utility.yul\":4206:4209   */\n      dup3\n        /* \"#utility.yul\":4199:4218   */\n      mstore\n        /* \"#utility.yul\":4243:4247   */\n      0x20\n        /* \"#utility.yul\":4238:4241   */\n      dup3\n        /* \"#utility.yul\":4234:4248   */\n      add\n        /* \"#utility.yul\":4227:4248   */\n      swap2\n      pop\n        /* \"#utility.yul\":4304:4308   */\n      0x20\n        /* \"#utility.yul\":4294:4300   */\n      dup4\n        /* \"#utility.yul\":4291:4292   */\n      0x05\n        /* \"#utility.yul\":4287:4301   */\n      shl\n        /* \"#utility.yul\":4279:4285   */\n      dup7\n        /* \"#utility.yul\":4275:4302   */\n      add\n        /* \"#utility.yul\":4271:4309   */\n      add\n        /* \"#utility.yul\":4257:4309   */\n      swap3\n      pop\n        /* \"#utility.yul\":4332:4335   */\n      dup6\n        /* \"#utility.yul\":4324:4330   */\n      dup4\n        /* \"#utility.yul\":4321:4336   */\n      gt\n        /* \"#utility.yul\":4318:4353   */\n      iszero\n      tag_286\n      jumpi\n        /* \"#utility.yul\":4349:4350   */\n      0x00\n        /* \"#utility.yul\":4346:4347   */\n      dup1\n        /* \"#utility.yul\":4339:4351   */\n      revert\n        /* \"#utility.yul\":4318:4353   */\n    tag_286:\n        /* \"#utility.yul\":4385:4389   */\n      0x20\n        /* \"#utility.yul\":4377:4383   */\n      dup6\n        /* \"#utility.yul\":4373:4390   */\n      add\n        /* \"#utility.yul\":4399:4708   */\n    tag_287:\n        /* \"#utility.yul\":4415:4421   */\n      dup4\n        /* \"#utility.yul\":4410:4413   */\n      dup2\n        /* \"#utility.yul\":4407:4422   */\n      lt\n        /* \"#utility.yul\":4399:4708   */\n      iszero\n      tag_289\n      jumpi\n        /* \"#utility.yul\":4496:4499   */\n      dup1\n        /* \"#utility.yul\":4490:4500   */\n      mload\n        /* \"#utility.yul\":4532:4550   */\n      0xffffffffffffffff\n        /* \"#utility.yul\":4519:4530   */\n      dup2\n        /* \"#utility.yul\":4516:4551   */\n      gt\n        /* \"#utility.yul\":4513:4568   */\n      iszero\n      tag_290\n      jumpi\n        /* \"#utility.yul\":4564:4565   */\n      0x00\n        /* \"#utility.yul\":4561:4562   */\n      dup1\n        /* \"#utility.yul\":4554:4566   */\n      revert\n        /* \"#utility.yul\":4513:4568   */\n    tag_290:\n        /* \"#utility.yul\":4593:4663   */\n      tag_291\n        /* \"#utility.yul\":4659:4662   */\n      dup9\n        /* \"#utility.yul\":4652:4656   */\n      0x20\n        /* \"#utility.yul\":4638:4649   */\n      dup4\n        /* \"#utility.yul\":4630:4636   */\n      dup11\n        /* \"#utility.yul\":4626:4650   */\n      add\n        /* \"#utility.yul\":4622:4657   */\n      add\n        /* \"#utility.yul\":4593:4663   */\n      tag_240\n      jump\t// in\n    tag_291:\n        /* \"#utility.yul\":4581:4664   */\n      dup5\n      mstore\n      pop\n        /* \"#utility.yul\":4693:4697   */\n      0x20\n        /* \"#utility.yul\":4684:4698   */\n      swap3\n      dup4\n      add\n      swap3\n        /* \"#utility.yul\":4432:4446   */\n      add\n        /* \"#utility.yul\":4399:4708   */\n      jump(tag_287)\n    tag_289:\n      pop\n        /* \"#utility.yul\":4726:4733   */\n      swap6\n        /* \"#utility.yul\":3905:4739   */\n      swap5\n      pop\n      pop\n      pop\n      pop\n      pop\n      jump\t// out\n        /* \"#utility.yul\":4744:5713   */\n    tag_118:\n        /* \"#utility.yul\":4895:4901   */\n      0x00\n        /* \"#utility.yul\":4903:4909   */\n      dup1\n        /* \"#utility.yul\":4911:4917   */\n      0x00\n        /* \"#utility.yul\":4919:4925   */\n      dup1\n        /* \"#utility.yul\":4927:4933   */\n      0x00\n        /* \"#utility.yul\":4980:4983   */\n      0xa0\n        /* \"#utility.yul\":4968:4977   */\n      dup7\n        /* \"#utility.yul\":4959:4966   */\n      dup9\n        /* \"#utility.yul\":4955:4978   */\n      sub\n        /* \"#utility.yul\":4951:4984   */\n      slt\n        /* \"#utility.yul\":4948:5001   */\n      iszero\n      tag_293\n      jumpi\n        /* \"#utility.yul\":4997:4998   */\n      0x00\n        /* \"#utility.yul\":4994:4995   */\n      dup1\n        /* \"#utility.yul\":4987:4999   */\n      revert\n        /* \"#utility.yul\":4948:5001   */\n    tag_293:\n        /* \"#utility.yul\":5029:5038   */\n      dup6\n        /* \"#utility.yul\":5023:5039   */\n      mload\n        /* \"#utility.yul\":5048:5079   */\n      tag_294\n        /* \"#utility.yul\":5073:5078   */\n      dup2\n        /* \"#utility.yul\":5048:5079   */\n      tag_236\n      jump\t// in\n    tag_294:\n        /* \"#utility.yul\":5147:5149   */\n      0x20\n        /* \"#utility.yul\":5132:5150   */\n      dup8\n      add\n        /* \"#utility.yul\":5126:5151   */\n      mload\n        /* \"#utility.yul\":5098:5103   */\n      swap1\n      swap6\n      pop\n        /* \"#utility.yul\":5174:5192   */\n      0xffffffffffffffff\n        /* \"#utility.yul\":5163:5193   */\n      dup2\n      gt\n        /* \"#utility.yul\":5160:5210   */\n      iszero\n      tag_295\n      jumpi\n        /* \"#utility.yul\":5206:5207   */\n      0x00\n        /* \"#utility.yul\":5203:5204   */\n      dup1\n        /* \"#utility.yul\":5196:5208   */\n      revert\n        /* \"#utility.yul\":5160:5210   */\n    tag_295:\n        /* \"#utility.yul\":5229:5290   */\n      tag_296\n        /* \"#utility.yul\":5282:5289   */\n      dup9\n        /* \"#utility.yul\":5273:5279   */\n      dup3\n        /* \"#utility.yul\":5262:5271   */\n      dup10\n        /* \"#utility.yul\":5258:5280   */\n      add\n        /* \"#utility.yul\":5229:5290   */\n      tag_240\n      jump\t// in\n    tag_296:\n        /* \"#utility.yul\":5219:5290   */\n      swap5\n      pop\n      pop\n        /* \"#utility.yul\":5335:5337   */\n      0x40\n        /* \"#utility.yul\":5324:5333   */\n      dup7\n        /* \"#utility.yul\":5320:5338   */\n      add\n        /* \"#utility.yul\":5314:5339   */\n      mload\n        /* \"#utility.yul\":5348:5381   */\n      tag_297\n        /* \"#utility.yul\":5373:5380   */\n      dup2\n        /* \"#utility.yul\":5348:5381   */\n      tag_236\n      jump\t// in\n    tag_297:\n        /* \"#utility.yul\":5473:5475   */\n      0x60\n        /* \"#utility.yul\":5458:5476   */\n      dup8\n      add\n        /* \"#utility.yul\":5452:5477   */\n      mload\n        /* \"#utility.yul\":5549:5552   */\n      0x80\n        /* \"#utility.yul\":5534:5553   */\n      dup9\n      add\n        /* \"#utility.yul\":5528:5554   */\n      mload\n        /* \"#utility.yul\":5400:5407   */\n      swap2\n      swap5\n      pop\n        /* \"#utility.yul\":5452:5477   */\n      swap3\n      pop\n        /* \"#utility.yul\":5579:5597   */\n      0xffffffffffffffff\n        /* \"#utility.yul\":5566:5598   */\n      dup2\n      gt\n        /* \"#utility.yul\":5563:5615   */\n      iszero\n      tag_298\n      jumpi\n        /* \"#utility.yul\":5611:5612   */\n      0x00\n        /* \"#utility.yul\":5608:5609   */\n      dup1\n        /* \"#utility.yul\":5601:5613   */\n      revert\n        /* \"#utility.yul\":5563:5615   */\n    tag_298:\n        /* \"#utility.yul\":5634:5707   */\n      tag_299\n        /* \"#utility.yul\":5699:5706   */\n      dup9\n        /* \"#utility.yul\":5688:5696   */\n      dup3\n        /* \"#utility.yul\":5677:5686   */\n      dup10\n        /* \"#utility.yul\":5673:5697   */\n      add\n        /* \"#utility.yul\":5634:5707   */\n      tag_242\n      jump\t// in\n    tag_299:\n        /* \"#utility.yul\":5624:5707   */\n      swap2\n      pop\n      pop\n        /* \"#utility.yul\":4744:5713   */\n      swap3\n      swap6\n      pop\n      swap3\n      swap6\n      swap1\n      swap4\n      pop\n      jump\t// out\n        /* \"#utility.yul\":6065:6192   */\n    tag_142:\n        /* \"#utility.yul\":6126:6136   */\n      0x4e487b71\n        /* \"#utility.yul\":6121:6124   */\n      0xe0\n        /* \"#utility.yul\":6117:6137   */\n      shl\n        /* \"#utility.yul\":6114:6115   */\n      0x00\n        /* \"#utility.yul\":6107:6138   */\n      mstore\n        /* \"#utility.yul\":6157:6161   */\n      0x32\n        /* \"#utility.yul\":6154:6155   */\n      0x04\n        /* \"#utility.yul\":6147:6162   */\n      mstore\n        /* \"#utility.yul\":6181:6185   */\n      0x24\n        /* \"#utility.yul\":6178:6179   */\n      0x00\n        /* \"#utility.yul\":6171:6186   */\n      revert\n        /* \"#utility.yul\":6197:6324   */\n    tag_243:\n        /* \"#utility.yul\":6258:6268   */\n      0x4e487b71\n        /* \"#utility.yul\":6253:6256   */\n      0xe0\n        /* \"#utility.yul\":6249:6269   */\n      shl\n        /* \"#utility.yul\":6246:6247   */\n      0x00\n        /* \"#utility.yul\":6239:6270   */\n      mstore\n        /* \"#utility.yul\":6289:6293   */\n      0x11\n        /* \"#utility.yul\":6286:6287   */\n      0x04\n        /* \"#utility.yul\":6279:6294   */\n      mstore\n        /* \"#utility.yul\":6313:6317   */\n      0x24\n        /* \"#utility.yul\":6310:6311   */\n      0x00\n        /* \"#utility.yul\":6303:6318   */\n      revert\n        /* \"#utility.yul\":6329:6454   */\n    tag_147:\n        /* \"#utility.yul\":6394:6403   */\n      dup1\n      dup3\n      add\n        /* \"#utility.yul\":6415:6425   */\n      dup1\n      dup3\n      gt\n        /* \"#utility.yul\":6412:6448   */\n      iszero\n      tag_145\n      jumpi\n        /* \"#utility.yul\":6428:6446   */\n      tag_145\n      tag_243\n      jump\t// in\n        /* \"#utility.yul\":7571:8311   */\n    tag_244:\n        /* \"#utility.yul\":7636:7641   */\n      0x00\n        /* \"#utility.yul\":7689:7692   */\n      dup3\n        /* \"#utility.yul\":7682:7686   */\n      0x1f\n        /* \"#utility.yul\":7674:7680   */\n      dup4\n        /* \"#utility.yul\":7670:7687   */\n      add\n        /* \"#utility.yul\":7666:7693   */\n      slt\n        /* \"#utility.yul\":7656:7711   */\n      tag_310\n      jumpi\n        /* \"#utility.yul\":7707:7708   */\n      0x00\n        /* \"#utility.yul\":7704:7705   */\n      dup1\n        /* \"#utility.yul\":7697:7709   */\n      revert\n        /* \"#utility.yul\":7656:7711   */\n    tag_310:\n        /* \"#utility.yul\":7740:7746   */\n      dup2\n        /* \"#utility.yul\":7734:7747   */\n      mload\n        /* \"#utility.yul\":7767:7830   */\n      tag_311\n        /* \"#utility.yul\":7783:7829   */\n      tag_285\n        /* \"#utility.yul\":7822:7828   */\n      dup3\n        /* \"#utility.yul\":7783:7829   */\n      tag_241\n      jump\t// in\n        /* \"#utility.yul\":7767:7830   */\n    tag_311:\n        /* \"#utility.yul\":7854:7857   */\n      dup1\n        /* \"#utility.yul\":7878:7884   */\n      dup3\n        /* \"#utility.yul\":7873:7876   */\n      dup3\n        /* \"#utility.yul\":7866:7885   */\n      mstore\n        /* \"#utility.yul\":7910:7914   */\n      0x20\n        /* \"#utility.yul\":7905:7908   */\n      dup3\n        /* \"#utility.yul\":7901:7915   */\n      add\n        /* \"#utility.yul\":7894:7915   */\n      swap2\n      pop\n        /* \"#utility.yul\":7971:7975   */\n      0x20\n        /* \"#utility.yul\":7961:7967   */\n      dup4\n        /* \"#utility.yul\":7958:7959   */\n      0x05\n        /* \"#utility.yul\":7954:7968   */\n      shl\n        /* \"#utility.yul\":7946:7952   */\n      dup7\n        /* \"#utility.yul\":7942:7969   */\n      add\n        /* \"#utility.yul\":7938:7976   */\n      add\n        /* \"#utility.yul\":7924:7976   */\n      swap3\n      pop\n        /* \"#utility.yul\":7999:8002   */\n      dup6\n        /* \"#utility.yul\":7991:7997   */\n      dup4\n        /* \"#utility.yul\":7988:8003   */\n      gt\n        /* \"#utility.yul\":7985:8020   */\n      iszero\n      tag_313\n      jumpi\n        /* \"#utility.yul\":8016:8017   */\n      0x00\n        /* \"#utility.yul\":8013:8014   */\n      dup1\n        /* \"#utility.yul\":8006:8018   */\n      revert\n        /* \"#utility.yul\":7985:8020   */\n    tag_313:\n        /* \"#utility.yul\":8052:8056   */\n      0x20\n        /* \"#utility.yul\":8044:8050   */\n      dup6\n        /* \"#utility.yul\":8040:8057   */\n      add\n        /* \"#utility.yul\":8066:8280   */\n    tag_314:\n        /* \"#utility.yul\":8082:8088   */\n      dup4\n        /* \"#utility.yul\":8077:8080   */\n      dup2\n        /* \"#utility.yul\":8074:8089   */\n      lt\n        /* \"#utility.yul\":8066:8280   */\n      iszero\n      tag_289\n      jumpi\n        /* \"#utility.yul\":8157:8160   */\n      dup1\n        /* \"#utility.yul\":8151:8161   */\n      mload\n        /* \"#utility.yul\":8174:8205   */\n      tag_317\n        /* \"#utility.yul\":8199:8204   */\n      dup2\n        /* \"#utility.yul\":8174:8205   */\n      tag_236\n      jump\t// in\n    tag_317:\n        /* \"#utility.yul\":8218:8236   */\n      dup4\n      mstore\n        /* \"#utility.yul\":8265:8269   */\n      0x20\n        /* \"#utility.yul\":8256:8270   */\n      swap3\n      dup4\n      add\n      swap3\n        /* \"#utility.yul\":8099:8113   */\n      add\n        /* \"#utility.yul\":8066:8280   */\n      jump(tag_314)\n        /* \"#utility.yul\":8316:8480   */\n    tag_245:\n        /* \"#utility.yul\":8392:8405   */\n      dup1\n      mload\n        /* \"#utility.yul\":8441:8454   */\n      dup1\n      iszero\n        /* \"#utility.yul\":8434:8455   */\n      iszero\n        /* \"#utility.yul\":8424:8456   */\n      dup2\n      eq\n        /* \"#utility.yul\":8414:8474   */\n      tag_123\n      jumpi\n        /* \"#utility.yul\":8470:8471   */\n      0x00\n        /* \"#utility.yul\":8467:8468   */\n      dup1\n        /* \"#utility.yul\":8460:8472   */\n      revert\n        /* \"#utility.yul\":8485:10141   */\n    tag_163:\n        /* \"#utility.yul\":8712:8718   */\n      0x00\n        /* \"#utility.yul\":8720:8726   */\n      dup1\n        /* \"#utility.yul\":8728:8734   */\n      0x00\n        /* \"#utility.yul\":8736:8742   */\n      dup1\n        /* \"#utility.yul\":8744:8750   */\n      0x00\n        /* \"#utility.yul\":8752:8758   */\n      dup1\n        /* \"#utility.yul\":8760:8766   */\n      0x00\n        /* \"#utility.yul\":8768:8774   */\n      dup1\n        /* \"#utility.yul\":8776:8782   */\n      0x00\n        /* \"#utility.yul\":8784:8790   */\n      dup1\n        /* \"#utility.yul\":8792:8799   */\n      0x00\n        /* \"#utility.yul\":8846:8849   */\n      0x0160\n        /* \"#utility.yul\":8834:8843   */\n      dup13\n        /* \"#utility.yul\":8825:8832   */\n      dup15\n        /* \"#utility.yul\":8821:8844   */\n      sub\n        /* \"#utility.yul\":8817:8850   */\n      slt\n        /* \"#utility.yul\":8814:8867   */\n      iszero\n      tag_321\n      jumpi\n        /* \"#utility.yul\":8863:8864   */\n      0x00\n        /* \"#utility.yul\":8860:8861   */\n      dup1\n        /* \"#utility.yul\":8853:8865   */\n      revert\n        /* \"#utility.yul\":8814:8867   */\n    tag_321:\n        /* \"#utility.yul\":8908:8924   */\n      dup12\n      mload\n      swap11\n      pop\n        /* \"#utility.yul\":8967:9016   */\n      tag_322\n        /* \"#utility.yul\":9012:9014   */\n      0x20\n        /* \"#utility.yul\":8997:9015   */\n      dup14\n      add\n        /* \"#utility.yul\":8967:9016   */\n      tag_237\n      jump\t// in\n    tag_322:\n        /* \"#utility.yul\":8957:9016   */\n      swap10\n      pop\n        /* \"#utility.yul\":9060:9062   */\n      0x40\n        /* \"#utility.yul\":9049:9058   */\n      dup13\n        /* \"#utility.yul\":9045:9063   */\n      add\n        /* \"#utility.yul\":9039:9064   */\n      mload\n        /* \"#utility.yul\":9087:9105   */\n      0xffffffffffffffff\n        /* \"#utility.yul\":9079:9085   */\n      dup2\n        /* \"#utility.yul\":9076:9106   */\n      gt\n        /* \"#utility.yul\":9073:9123   */\n      iszero\n      tag_323\n      jumpi\n        /* \"#utility.yul\":9119:9120   */\n      0x00\n        /* \"#utility.yul\":9116:9117   */\n      dup1\n        /* \"#utility.yul\":9109:9121   */\n      revert\n        /* \"#utility.yul\":9073:9123   */\n    tag_323:\n        /* \"#utility.yul\":9142:9214   */\n      tag_324\n        /* \"#utility.yul\":9206:9213   */\n      dup15\n        /* \"#utility.yul\":9197:9203   */\n      dup3\n        /* \"#utility.yul\":9186:9195   */\n      dup16\n        /* \"#utility.yul\":9182:9204   */\n      add\n        /* \"#utility.yul\":9142:9214   */\n      tag_244\n      jump\t// in\n    tag_324:\n        /* \"#utility.yul\":9132:9214   */\n      swap10\n      pop\n      pop\n        /* \"#utility.yul\":9260:9262   */\n      0x60\n        /* \"#utility.yul\":9249:9258   */\n      dup13\n        /* \"#utility.yul\":9245:9263   */\n      add\n        /* \"#utility.yul\":9239:9264   */\n      mload\n        /* \"#utility.yul\":9289:9307   */\n      0xffffffffffffffff\n        /* \"#utility.yul\":9279:9287   */\n      dup2\n        /* \"#utility.yul\":9276:9308   */\n      gt\n        /* \"#utility.yul\":9273:9325   */\n      iszero\n      tag_325\n      jumpi\n        /* \"#utility.yul\":9321:9322   */\n      0x00\n        /* \"#utility.yul\":9318:9319   */\n      dup1\n        /* \"#utility.yul\":9311:9323   */\n      revert\n        /* \"#utility.yul\":9273:9325   */\n    tag_325:\n        /* \"#utility.yul\":9344:9407   */\n      tag_326\n        /* \"#utility.yul\":9399:9406   */\n      dup15\n        /* \"#utility.yul\":9388:9396   */\n      dup3\n        /* \"#utility.yul\":9377:9386   */\n      dup16\n        /* \"#utility.yul\":9373:9397   */\n      add\n        /* \"#utility.yul\":9344:9407   */\n      tag_240\n      jump\t// in\n    tag_326:\n        /* \"#utility.yul\":9334:9407   */\n      swap9\n      pop\n      pop\n        /* \"#utility.yul\":9426:9473   */\n      tag_327\n        /* \"#utility.yul\":9468:9471   */\n      0x80\n        /* \"#utility.yul\":9457:9466   */\n      dup14\n        /* \"#utility.yul\":9453:9472   */\n      add\n        /* \"#utility.yul\":9426:9473   */\n      tag_245\n      jump\t// in\n    tag_327:\n        /* \"#utility.yul\":9416:9473   */\n      swap7\n      pop\n        /* \"#utility.yul\":9519:9522   */\n      0xa0\n        /* \"#utility.yul\":9508:9517   */\n      dup13\n        /* \"#utility.yul\":9504:9523   */\n      add\n        /* \"#utility.yul\":9498:9524   */\n      mload\n        /* \"#utility.yul\":9549:9567   */\n      0xffffffffffffffff\n        /* \"#utility.yul\":9539:9547   */\n      dup2\n        /* \"#utility.yul\":9536:9568   */\n      gt\n        /* \"#utility.yul\":9533:9585   */\n      iszero\n      tag_328\n      jumpi\n        /* \"#utility.yul\":9581:9582   */\n      0x00\n        /* \"#utility.yul\":9578:9579   */\n      dup1\n        /* \"#utility.yul\":9571:9583   */\n      revert\n        /* \"#utility.yul\":9533:9585   */\n    tag_328:\n        /* \"#utility.yul\":9604:9677   */\n      tag_329\n        /* \"#utility.yul\":9669:9676   */\n      dup15\n        /* \"#utility.yul\":9658:9666   */\n      dup3\n        /* \"#utility.yul\":9647:9656   */\n      dup16\n        /* \"#utility.yul\":9643:9667   */\n      add\n        /* \"#utility.yul\":9604:9677   */\n      tag_242\n      jump\t// in\n    tag_329:\n        /* \"#utility.yul\":9594:9677   */\n      swap7\n      pop\n      pop\n        /* \"#utility.yul\":9701:9702   */\n      0x00\n        /* \"#utility.yul\":9743:9746   */\n      0xc0\n        /* \"#utility.yul\":9732:9741   */\n      dup14\n        /* \"#utility.yul\":9728:9747   */\n      add\n        /* \"#utility.yul\":9722:9748   */\n      mload\n        /* \"#utility.yul\":9711:9748   */\n      swap1\n      pop\n        /* \"#utility.yul\":9767:9774   */\n      dup1\n        /* \"#utility.yul\":9757:9774   */\n      swap6\n      pop\n      pop\n        /* \"#utility.yul\":9798:9799   */\n      0x00\n        /* \"#utility.yul\":9840:9843   */\n      0xe0\n        /* \"#utility.yul\":9829:9838   */\n      dup14\n        /* \"#utility.yul\":9825:9844   */\n      add\n        /* \"#utility.yul\":9819:9845   */\n      mload\n        /* \"#utility.yul\":9808:9845   */\n      swap1\n      pop\n        /* \"#utility.yul\":9864:9871   */\n      dup1\n        /* \"#utility.yul\":9854:9871   */\n      swap5\n      pop\n      pop\n        /* \"#utility.yul\":9895:9896   */\n      0x00\n        /* \"#utility.yul\":9937:9940   */\n      0x0100\n        /* \"#utility.yul\":9926:9935   */\n      dup14\n        /* \"#utility.yul\":9922:9941   */\n      add\n        /* \"#utility.yul\":9916:9942   */\n      mload\n        /* \"#utility.yul\":9905:9942   */\n      swap1\n      pop\n        /* \"#utility.yul\":9961:9968   */\n      dup1\n        /* \"#utility.yul\":9951:9968   */\n      swap4\n      pop\n      pop\n        /* \"#utility.yul\":9987:10037   */\n      tag_330\n        /* \"#utility.yul\":10032:10035   */\n      0x0120\n        /* \"#utility.yul\":10021:10030   */\n      dup14\n        /* \"#utility.yul\":10017:10036   */\n      add\n        /* \"#utility.yul\":9987:10037   */\n      tag_237\n      jump\t// in\n    tag_330:\n        /* \"#utility.yul\":9977:10037   */\n      swap2\n      pop\n        /* \"#utility.yul\":10061:10062   */\n      0x00\n        /* \"#utility.yul\":10103:10106   */\n      0x0140\n        /* \"#utility.yul\":10092:10101   */\n      dup14\n        /* \"#utility.yul\":10088:10107   */\n      add\n        /* \"#utility.yul\":10082:10108   */\n      mload\n        /* \"#utility.yul\":10071:10108   */\n      swap1\n      pop\n        /* \"#utility.yul\":10128:10135   */\n      dup1\n        /* \"#utility.yul\":10117:10135   */\n      swap2\n      pop\n      pop\n        /* \"#utility.yul\":8485:10141   */\n      swap3\n      swap6\n      swap9\n      swap12\n      pop\n      swap3\n      swap6\n      swap9\n      swap12\n      swap1\n      swap4\n      swap7\n      swap10\n      pop\n      jump\t// out\n        /* \"#utility.yul\":10842:11059   */\n    tag_180:\n        /* \"#utility.yul\":10882:10883   */\n      0x00\n        /* \"#utility.yul\":10908:10909   */\n      dup3\n        /* \"#utility.yul\":10898:11030   */\n      tag_334\n      jumpi\n        /* \"#utility.yul\":10952:10962   */\n      0x4e487b71\n        /* \"#utility.yul\":10947:10950   */\n      0xe0\n        /* \"#utility.yul\":10943:10963   */\n      shl\n        /* \"#utility.yul\":10940:10941   */\n      0x00\n        /* \"#utility.yul\":10933:10964   */\n      mstore\n        /* \"#utility.yul\":10987:10991   */\n      0x12\n        /* \"#utility.yul\":10984:10985   */\n      0x04\n        /* \"#utility.yul\":10977:10992   */\n      mstore\n        /* \"#utility.yul\":11015:11019   */\n      0x24\n        /* \"#utility.yul\":11012:11013   */\n      0x00\n        /* \"#utility.yul\":11005:11020   */\n      revert\n        /* \"#utility.yul\":10898:11030   */\n    tag_334:\n      pop\n        /* \"#utility.yul\":11044:11053   */\n      div\n      swap1\n        /* \"#utility.yul\":10842:11059   */\n      jump\t// out\n        /* \"#utility.yul\":11064:11192   */\n    tag_206:\n        /* \"#utility.yul\":11131:11140   */\n      dup2\n      dup2\n      sub\n        /* \"#utility.yul\":11152:11163   */\n      dup2\n      dup2\n      gt\n        /* \"#utility.yul\":11149:11186   */\n      iszero\n      tag_145\n      jumpi\n        /* \"#utility.yul\":11166:11184   */\n      tag_145\n      tag_243\n      jump\t// in\n        /* \"#utility.yul\":11197:11365   */\n    tag_208:\n        /* \"#utility.yul\":11270:11279   */\n      dup1\n      dup3\n      mul\n        /* \"#utility.yul\":11301:11310   */\n      dup2\n      iszero\n        /* \"#utility.yul\":11318:11333   */\n      dup3\n      dup3\n      div\n        /* \"#utility.yul\":11312:11334   */\n      dup5\n      eq\n        /* \"#utility.yul\":11298:11335   */\n      or\n        /* \"#utility.yul\":11288:11359   */\n      tag_145\n      jumpi\n        /* \"#utility.yul\":11339:11357   */\n      tag_145\n      tag_243\n      jump\t// in\n        /* \"#utility.yul\":11370:11505   */\n    tag_212:\n        /* \"#utility.yul\":11409:11412   */\n      0x00\n        /* \"#utility.yul\":11430:11447   */\n      0x01\n      dup3\n      add\n        /* \"#utility.yul\":11427:11470   */\n      tag_343\n      jumpi\n        /* \"#utility.yul\":11450:11468   */\n      tag_343\n      tag_243\n      jump\t// in\n    tag_343:\n      pop\n        /* \"#utility.yul\":11497:11498   */\n      0x01\n        /* \"#utility.yul\":11486:11499   */\n      add\n      swap1\n        /* \"#utility.yul\":11370:11505   */\n      jump\t// out\n\n    auxdata: 0xa26469706673582212201a9a3ffd05104d814d5c7c570533532ea96476e25541861a7ad5f5617b40cac864736f6c634300081c0033\n}\n",
				"bytecode": {
					"linkReferences": {},
					"object": "608060405234801561001057600080fd5b5060405161184f38038061184f83398101604081905261002f916106fb565b806001600160a01b03811661005e57604051631e4fbdf760e01b81526000600482015260240160405180910390fd5b610067816106ab565b506106a560408051606080820183526000808352631dcd6500602080850182815269152d02c7e14af68000008688019081526006805460018181018355828852985160039182027ff652222313e28459528d920b65115c16c04f3efc82aaedc97be59f3f377c0d3f8181019290925594517ff652222313e28459528d920b65115c16c04f3efc82aaedc97be59f3f377c0d408087019190915593517ff652222313e28459528d920b65115c16c04f3efc82aaedc97be59f3f377c0d41958601558a51808a018c52968752633b9aca00878701818152690a968163f0a57b400000898e019081528554808e018755868c5299519985028085019a909a5590518987015551978601979097558a51808a018c52968752637735940087870181815269054b40b1f852bda00000898e019081528554808e018755868c5299519985028085019a909a5590518987015551978601979097558a51808a018c5296875263ee6b28008787018181526902a5a058fc295ed00000898e019081528554808e018755868c5299519985028085019a909a5590518987015551978601979097558a51808a018c529687526401dcd65000878701818152690152d02c7e14af680000898e019081528554808e018755868c5299519985028085019a909a5590518987015551978601979097558a51808a018c529687526403b9aca00087870181815268a968163f0a57b40000898e019081528554808e018755868c5299519985028085019a909a5590518987015551978601979097558a51808a018c529687526407735940008787018181526854ad1ac42b58280000898e019081528554808e018755868c5299519985028085019a909a5590518987015551978601979097558a51808a018c52968752640ee6b28000878701818152682a568d6215ac140000898e019081528554808e018755868c5299519985028085019a909a5590518987015551978601979097558a51808a018c52968752641dcd650000878701818152681532370c64a9bc0000898e019081528554808e018755868c5299519985028085019a909a5590518987015551978601979097558a51808a018c52968752643b9aca0000878701818152680a922b2ad8812c0000898e019081528554808e018755868c5299519985028085019a909a5590518987015551978601979097558a51808a018c5296875264773594000087870181815268055005f0c614480000898e019081528554808e018755868c5299519985028085019a909a5590518987015551978601979097558a51808a018c5296875264ee6b2800008787018181526802a802f8630a240000898e019081528554808e018755868c5299519985028085019a909a5590518987015551978601979097558a51808a018c529687526501dcd650000087870181815268014d1120d7b1600000898e019081528554808e018755868c5299519985028085019a909a5590518987015551978601979097558a51808a018c529687526503b9aca0000087870181815267a688906bd8b00000898e019081528554808e018755868c5299519985028085019a909a5590518987015551978601979097558a51808a018c52968752650773594000008787018181526753444835ec580000898e019081528554808e018755868c5299519985028085019a909a5590518987015551978601979097558a51808a018c52968752650ee6b28000008787018181526729a2241af62c0000898e019081528554808e018755868c5299519985028085019a909a5590518987015551978601979097558a51808a018c52968752651dcd650000008787018181526714d1120d7b160000898e019081528554808e018755868c5299519985028085019a909a5590518987015551978601979097558a51808a018c52968752653b9aca000000878701818152670a688906bd8b0000898e019081528554808e018755868c5299519985028085019a909a5590518987015551978601979097558a51808a018c529687526577359400000087870181815267054607fc96a60000898e019081528554808e018755868c5299519985028085019a909a5590518987015551978601979097558a519889018b529588526000199488019485526702a303fe4b530000998801998a52815498890182559552945195909302918201949094559251918301919091559151910155565b5061072b565b600080546001600160a01b038381166001600160a01b0319831681178455604051919092169283917f8be0079c531659141344cd1fd0a4f28419497f9722a3daafe3b4186f6b6457e09190a35050565b60006020828403121561070d57600080fd5b81516001600160a01b038116811461072457600080fd5b9392505050565b6111158061073a6000396000f3fe608060405234801561001057600080fd5b50600436106101375760003560e01c80638da5cb5b116100b8578063afd86a761161007c578063afd86a76146102eb578063b014dc11146102fe578063ba69e4101461031e578063f10f9a6914610331578063f2fde38b14610351578063fad58b211461036457600080fd5b80638da5cb5b1461026e57806394928b841461027f57806397e50818146102925780639bd8bd9e146102a5578063ac16ba1d146102b857600080fd5b80635183d667116100ff5780635183d667146101e75780636a55b7ca14610210578063715018a61461023e5780637e1fdbe81461024857806381d920ec1461025b57600080fd5b806322834ddb1461013c5780632330ce7014610153578063272e5a521461017c5780632ebd99781461019c5780634a9fefc7146101bc575b600080fd5b6006545b6040519081526020015b60405180910390f35b610140610161366004610bff565b6001600160a01b031660009081526002602052604090205490565b61014061018a366004610c23565b60009081526005602052604090205490565b6101406101aa366004610c23565b60056020526000908152604090205481565b6101cf6101ca366004610bff565b610377565b6040516001600160a01b03909116815260200161014a565b6101406101f5366004610bff565b6001600160a01b031660009081526003602052604090205490565b61022361021e366004610c23565b610418565b6040805193845260208401929092529082015260600161014a565b61024661044b565b005b610246610256366004610c3c565b61045f565b610223610269366004610c23565b610483565b6000546001600160a01b03166101cf565b61014061028d366004610c3c565b610532565b6102466102a0366004610c68565b61056d565b6102466102b3366004610c3c565b6108f2565b6102db6102c6366004610c23565b60046020526000908152604090205460ff1681565b604051901515815260200161014a565b6001546101cf906001600160a01b031681565b61014061030c366004610bff565b60026020526000908152604090205481565b61014061032c366004610c68565b610916565b61014061033f366004610bff565b60036020526000908152604090205481565b61024661035f366004610bff565b610a33565b610246610372366004610bff565b610a71565b6001546000906001600160a01b031661039257506000919050565b60015460405162f53a4760e41b81526001600160a01b03848116600483015290911690630f53a47090602401600060405180830381865afa9250505080156103fc57506040513d6000823e601f3d908101601f191682016040526103f99190810190610e18565b60015b61040857506000919050565b509095945050505050565b919050565b6006818154811061042857600080fd5b600091825260209091206003909102018054600182015460029092015490925083565b610453610a9b565b61045d6000610ac8565b565b610467610a9b565b6001600160a01b03909116600090815260036020526040902055565b600080600060068054905084106104d65760405162461bcd60e51b8152602060048201526012602482015271092dcecc2d8d2c840c4c2dcc840d2dcc8caf60731b60448201526064015b60405180910390fd5b6000600685815481106104eb576104eb610eb2565b600091825260209182902060408051606081018252600393909302909101805480845260018201549484018590526002909101549290910182905297919650945092505050565b6001600160a01b038216600090815260026020526040812054816105568483610ede565b90506105628282610916565b925050505b92915050565b6001546001600160a01b03166105bc5760405162461bcd60e51b8152602060048201526014602482015273129bd88818dbdb9d1c9858dd081b9bdd081cd95d60621b60448201526064016104cd565b6001546001600160a01b031633146106165760405162461bcd60e51b815260206004820152601f60248201527f4f6e6c79206a6f6220636f6e74726163742063616e2063616c6c20746869730060448201526064016104cd565b600081116106715760405162461bcd60e51b815260206004820152602260248201527f5061696420616d6f756e74206d7573742062652067726561746572207468616e604482015261020360f41b60648201526084016104cd565b60015460405163bf22c45760e01b81526004810184905260009182916001600160a01b039091169063bf22c45790602401600060405180830381865afa1580156106bf573d6000803e3d6000fd5b505050506040513d6000823e601f3d908101601f191682016040526106e79190810190610f68565b5099505050505050505092505060006001600160a01b0316826001600160a01b03160361074a5760405162461bcd60e51b815260206004820152601160248201527024b73b30b634b2103537b11033b4bb32b960791b60448201526064016104cd565b6001600160a01b0381166107985760405162461bcd60e51b8152602060048201526015602482015274139bc81cd95b1958dd195908185c1c1b1a58d85b9d605a1b60448201526064016104cd565b600084815260056020526040812080548592906107b6908490610ede565b90915550600090506107c783610377565b905060006107d483610377565b905060006107e28587610b18565b905060006107f08588610b18565b90506001600160a01b0384161580159061081c5750856001600160a01b0316846001600160a01b031614155b156108375761083584610830600a8a61107a565b610b18565b505b6001600160a01b038316158015906108615750846001600160a01b0316836001600160a01b031614155b801561087f5750836001600160a01b0316836001600160a01b031614155b156108955761089383610830600a8a61107a565b505b60408051888152602081018490529081018290526001600160a01b0380871691908816908a907ff0507b68a744db6f63183fb7e722285fb3cbf6f6aa13c12ff186432859e368e29060600160405180910390a45050505050505050565b6108fa610a9b565b6001600160a01b03909116600090815260026020526040902055565b600081831061092757506000610567565b600083815b6006548110801561093c57508482105b15610a295760006006828154811061095657610956610eb2565b60009182526020918290206040805160608101825260039093029091018054835260018101549383018490526002015490820152915083106109985750610a17565b805160009084116109aa5781516109ac565b835b90506000826020015188106109c55782602001516109c7565b875b905080821015610a135760006109dd838361109c565b90506000620f42408560400151836109f591906110af565b6109ff919061107a565b9050610a0b8189610ede565b975082965050505b5050505b80610a21816110c6565b91505061092c565b5090949350505050565b610a3b610a9b565b6001600160a01b038116610a6557604051631e4fbdf760e01b8152600060048201526024016104cd565b610a6e81610ac8565b50565b610a79610a9b565b600180546001600160a01b0319166001600160a01b0392909216919091179055565b6000546001600160a01b0316331461045d5760405163118cdaa760e01b81523360048201526024016104cd565b600080546001600160a01b038381166001600160a01b0319831681178455604051919092169283917f8be0079c531659141344cd1fd0a4f28419497f9722a3daafe3b4186f6b6457e09190a35050565b6001600160a01b03821660009081526002602052604081205481610b3c8483610ede565b90506000610b4a8383610916565b6001600160a01b03871660009081526002602090815260408083208690556003909152812080549293508392909190610b84908490610ede565b90915550506001600160a01b0386166000818152600360209081526040918290205482518581529182018690528183015290517f53f3ad2fd40a9f84e221858c8242ce2e4a5f164c3a550d1e3a70e53123a402fa9181900360600190a295945050505050565b6001600160a01b0381168114610a6e57600080fd5b600060208284031215610c1157600080fd5b8135610c1c81610bea565b9392505050565b600060208284031215610c3557600080fd5b5035919050565b60008060408385031215610c4f57600080fd5b8235610c5a81610bea565b946020939093013593505050565b60008060408385031215610c7b57600080fd5b50508035926020909101359150565b805161041381610bea565b634e487b7160e01b600052604160045260246000fd5b604051601f8201601f1916810167ffffffffffffffff81118282101715610cd457610cd4610c95565b604052919050565b600082601f830112610ced57600080fd5b815167ffffffffffffffff811115610d0757610d07610c95565b610d1a601f8201601f1916602001610cab565b818152846020838601011115610d2f57600080fd5b60005b82811015610d4e57602081860181015183830182015201610d32565b506000918101602001919091529392505050565b600067ffffffffffffffff821115610d7c57610d7c610c95565b5060051b60200190565b600082601f830112610d9757600080fd5b8151610daa610da582610d62565b610cab565b8082825260208201915060208360051b860101925085831115610dcc57600080fd5b602085015b83811015610e0e57805167ffffffffffffffff811115610df057600080fd5b610dff886020838a0101610cdc565b84525060209283019201610dd1565b5095945050505050565b600080600080600060a08688031215610e3057600080fd5b8551610e3b81610bea565b602087015190955067ffffffffffffffff811115610e5857600080fd5b610e6488828901610cdc565b9450506040860151610e7581610bea565b60608701516080880151919450925067ffffffffffffffff811115610e9957600080fd5b610ea588828901610d86565b9150509295509295909350565b634e487b7160e01b600052603260045260246000fd5b634e487b7160e01b600052601160045260246000fd5b8082018082111561056757610567610ec8565b600082601f830112610f0257600080fd5b8151610f10610da582610d62565b8082825260208201915060208360051b860101925085831115610f3257600080fd5b602085015b83811015610e0e578051610f4a81610bea565b835260209283019201610f37565b8051801515811461041357600080fd5b60008060008060008060008060008060006101608c8e031215610f8a57600080fd5b8b519a50610f9a60208d01610c8a565b995060408c015167ffffffffffffffff811115610fb657600080fd5b610fc28e828f01610ef1565b99505060608c015167ffffffffffffffff811115610fdf57600080fd5b610feb8e828f01610cdc565b985050610ffa60808d01610f58565b965060a08c015167ffffffffffffffff81111561101657600080fd5b6110228e828f01610d86565b965050600060c08d0151905080955050600060e08d015190508094505060006101008d015190508093505061105a6101208d01610c8a565b915060006101408d01519050809150509295989b509295989b9093969950565b60008261109757634e487b7160e01b600052601260045260246000fd5b500490565b8181038181111561056757610567610ec8565b808202811582820484141761056757610567610ec8565b6000600182016110d8576110d8610ec8565b506001019056fea26469706673582212201a9a3ffd05104d814d5c7c570533532ea96476e25541861a7ad5f5617b40cac864736f6c634300081c0033",
					"opcodes": "PUSH1 0x80 PUSH1 0x40 MSTORE CALLVALUE DUP1 ISZERO PUSH2 0x10 JUMPI PUSH1 0x0 DUP1 REVERT JUMPDEST POP PUSH1 0x40 MLOAD PUSH2 0x184F CODESIZE SUB DUP1 PUSH2 0x184F DUP4 CODECOPY DUP2 ADD PUSH1 0x40 DUP2 SWAP1 MSTORE PUSH2 0x2F SWAP2 PUSH2 0x6FB JUMP JUMPDEST DUP1 PUSH1 0x1 PUSH1 0x1 PUSH1 0xA0 SHL SUB DUP2 AND PUSH2 0x5E JUMPI PUSH1 0x40 MLOAD PUSH4 0x1E4FBDF7 PUSH1 0xE0 SHL DUP2 MSTORE PUSH1 0x0 PUSH1 0x4 DUP3 ADD MSTORE PUSH1 0x24 ADD PUSH1 0x40 MLOAD DUP1 SWAP2 SUB SWAP1 REVERT JUMPDEST PUSH2 0x67 DUP2 PUSH2 0x6AB JUMP JUMPDEST POP PUSH2 0x6A5 PUSH1 0x40 DUP1 MLOAD PUSH1 0x60 DUP1 DUP3 ADD DUP4 MSTORE PUSH1 0x0 DUP1 DUP4 MSTORE PUSH4 0x1DCD6500 PUSH1 0x20 DUP1 DUP6 ADD DUP3 DUP2 MSTORE PUSH10 0x152D02C7E14AF6800000 DUP7 DUP9 ADD SWAP1 DUP2 MSTORE PUSH1 0x6 DUP1 SLOAD PUSH1 0x1 DUP2 DUP2 ADD DUP4 SSTORE DUP3 DUP9 MSTORE SWAP9 MLOAD PUSH1 0x3 SWAP2 DUP3 MUL PUSH32 0xF652222313E28459528D920B65115C16C04F3EFC82AAEDC97BE59F3F377C0D3F DUP2 DUP2 ADD SWAP3 SWAP1 SWAP3 SSTORE SWAP5 MLOAD PUSH32 0xF652222313E28459528D920B65115C16C04F3EFC82AAEDC97BE59F3F377C0D40 DUP1 DUP8 ADD SWAP2 SWAP1 SWAP2 SSTORE SWAP4 MLOAD PUSH32 0xF652222313E28459528D920B65115C16C04F3EFC82AAEDC97BE59F3F377C0D41 SWAP6 DUP7 ADD SSTORE DUP11 MLOAD DUP1 DUP11 ADD DUP13 MSTORE SWAP7 DUP8 MSTORE PUSH4 0x3B9ACA00 DUP8 DUP8 ADD DUP2 DUP2 MSTORE PUSH10 0xA968163F0A57B400000 DUP10 DUP15 ADD SWAP1 DUP2 MSTORE DUP6 SLOAD DUP1 DUP15 ADD DUP8 SSTORE DUP7 DUP13 MSTORE SWAP10 MLOAD SWAP10 DUP6 MUL DUP1 DUP6 ADD SWAP11 SWAP1 SWAP11 SSTORE SWAP1 MLOAD DUP10 DUP8 ADD SSTORE MLOAD SWAP8 DUP7 ADD SWAP8 SWAP1 SWAP8 SSTORE DUP11 MLOAD DUP1 DUP11 ADD DUP13 MSTORE SWAP7 DUP8 MSTORE PUSH4 0x77359400 DUP8 DUP8 ADD DUP2 DUP2 MSTORE PUSH10 0x54B40B1F852BDA00000 DUP10 DUP15 ADD SWAP1 DUP2 MSTORE DUP6 SLOAD DUP1 DUP15 ADD DUP8 SSTORE DUP7 DUP13 MSTORE SWAP10 MLOAD SWAP10 DUP6 MUL DUP1 DUP6 ADD SWAP11 SWAP1 SWAP11 SSTORE SWAP1 MLOAD DUP10 DUP8 ADD SSTORE MLOAD SWAP8 DUP7 ADD SWAP8 SWAP1 SWAP8 SSTORE DUP11 MLOAD DUP1 DUP11 ADD DUP13 MSTORE SWAP7 DUP8 MSTORE PUSH4 0xEE6B2800 DUP8 DUP8 ADD DUP2 DUP2 MSTORE PUSH10 0x2A5A058FC295ED00000 DUP10 DUP15 ADD SWAP1 DUP2 MSTORE DUP6 SLOAD DUP1 DUP15 ADD DUP8 SSTORE DUP7 DUP13 MSTORE SWAP10 MLOAD SWAP10 DUP6 MUL DUP1 DUP6 ADD SWAP11 SWAP1 SWAP11 SSTORE SWAP1 MLOAD DUP10 DUP8 ADD SSTORE MLOAD SWAP8 DUP7 ADD SWAP8 SWAP1 SWAP8 SSTORE DUP11 MLOAD DUP1 DUP11 ADD DUP13 MSTORE SWAP7 DUP8 MSTORE PUSH5 0x1DCD65000 DUP8 DUP8 ADD DUP2 DUP2 MSTORE PUSH10 0x152D02C7E14AF680000 DUP10 DUP15 ADD SWAP1 DUP2 MSTORE DUP6 SLOAD DUP1 DUP15 ADD DUP8 SSTORE DUP7 DUP13 MSTORE SWAP10 MLOAD SWAP10 DUP6 MUL DUP1 DUP6 ADD SWAP11 SWAP1 SWAP11 SSTORE SWAP1 MLOAD DUP10 DUP8 ADD SSTORE MLOAD SWAP8 DUP7 ADD SWAP8 SWAP1 SWAP8 SSTORE DUP11 MLOAD DUP1 DUP11 ADD DUP13 MSTORE SWAP7 DUP8 MSTORE PUSH5 0x3B9ACA000 DUP8 DUP8 ADD DUP2 DUP2 MSTORE PUSH9 0xA968163F0A57B40000 DUP10 DUP15 ADD SWAP1 DUP2 MSTORE DUP6 SLOAD DUP1 DUP15 ADD DUP8 SSTORE DUP7 DUP13 MSTORE SWAP10 MLOAD SWAP10 DUP6 MUL DUP1 DUP6 ADD SWAP11 SWAP1 SWAP11 SSTORE SWAP1 MLOAD DUP10 DUP8 ADD SSTORE MLOAD SWAP8 DUP7 ADD SWAP8 SWAP1 SWAP8 SSTORE DUP11 MLOAD DUP1 DUP11 ADD DUP13 MSTORE SWAP7 DUP8 MSTORE PUSH5 0x773594000 DUP8 DUP8 ADD DUP2 DUP2 MSTORE PUSH9 0x54AD1AC42B58280000 DUP10 DUP15 ADD SWAP1 DUP2 MSTORE DUP6 SLOAD DUP1 DUP15 ADD DUP8 SSTORE DUP7 DUP13 MSTORE SWAP10 MLOAD SWAP10 DUP6 MUL DUP1 DUP6 ADD SWAP11 SWAP1 SWAP11 SSTORE SWAP1 MLOAD DUP10 DUP8 ADD SSTORE MLOAD SWAP8 DUP7 ADD SWAP8 SWAP1 SWAP8 SSTORE DUP11 MLOAD DUP1 DUP11 ADD DUP13 MSTORE SWAP7 DUP8 MSTORE PUSH5 0xEE6B28000 DUP8 DUP8 ADD DUP2 DUP2 MSTORE PUSH9 0x2A568D6215AC140000 DUP10 DUP15 ADD SWAP1 DUP2 MSTORE DUP6 SLOAD DUP1 DUP15 ADD DUP8 SSTORE DUP7 DUP13 MSTORE SWAP10 MLOAD SWAP10 DUP6 MUL DUP1 DUP6 ADD SWAP11 SWAP1 SWAP11 SSTORE SWAP1 MLOAD DUP10 DUP8 ADD SSTORE MLOAD SWAP8 DUP7 ADD SWAP8 SWAP1 SWAP8 SSTORE DUP11 MLOAD DUP1 DUP11 ADD DUP13 MSTORE SWAP7 DUP8 MSTORE PUSH5 0x1DCD650000 DUP8 DUP8 ADD DUP2 DUP2 MSTORE PUSH9 0x1532370C64A9BC0000 DUP10 DUP15 ADD SWAP1 DUP2 MSTORE DUP6 SLOAD DUP1 DUP15 ADD DUP8 SSTORE DUP7 DUP13 MSTORE SWAP10 MLOAD SWAP10 DUP6 MUL DUP1 DUP6 ADD SWAP11 SWAP1 SWAP11 SSTORE SWAP1 MLOAD DUP10 DUP8 ADD SSTORE MLOAD SWAP8 DUP7 ADD SWAP8 SWAP1 SWAP8 SSTORE DUP11 MLOAD DUP1 DUP11 ADD DUP13 MSTORE SWAP7 DUP8 MSTORE PUSH5 0x3B9ACA0000 DUP8 DUP8 ADD DUP2 DUP2 MSTORE PUSH9 0xA922B2AD8812C0000 DUP10 DUP15 ADD SWAP1 DUP2 MSTORE DUP6 SLOAD DUP1 DUP15 ADD DUP8 SSTORE DUP7 DUP13 MSTORE SWAP10 MLOAD SWAP10 DUP6 MUL DUP1 DUP6 ADD SWAP11 SWAP1 SWAP11 SSTORE SWAP1 MLOAD DUP10 DUP8 ADD SSTORE MLOAD SWAP8 DUP7 ADD SWAP8 SWAP1 SWAP8 SSTORE DUP11 MLOAD DUP1 DUP11 ADD DUP13 MSTORE SWAP7 DUP8 MSTORE PUSH5 0x7735940000 DUP8 DUP8 ADD DUP2 DUP2 MSTORE PUSH9 0x55005F0C614480000 DUP10 DUP15 ADD SWAP1 DUP2 MSTORE DUP6 SLOAD DUP1 DUP15 ADD DUP8 SSTORE DUP7 DUP13 MSTORE SWAP10 MLOAD SWAP10 DUP6 MUL DUP1 DUP6 ADD SWAP11 SWAP1 SWAP11 SSTORE SWAP1 MLOAD DUP10 DUP8 ADD SSTORE MLOAD SWAP8 DUP7 ADD SWAP8 SWAP1 SWAP8 SSTORE DUP11 MLOAD DUP1 DUP11 ADD DUP13 MSTORE SWAP7 DUP8 MSTORE PUSH5 0xEE6B280000 DUP8 DUP8 ADD DUP2 DUP2 MSTORE PUSH9 0x2A802F8630A240000 DUP10 DUP15 ADD SWAP1 DUP2 MSTORE DUP6 SLOAD DUP1 DUP15 ADD DUP8 SSTORE DUP7 DUP13 MSTORE SWAP10 MLOAD SWAP10 DUP6 MUL DUP1 DUP6 ADD SWAP11 SWAP1 SWAP11 SSTORE SWAP1 MLOAD DUP10 DUP8 ADD SSTORE MLOAD SWAP8 DUP7 ADD SWAP8 SWAP1 SWAP8 SSTORE DUP11 MLOAD DUP1 DUP11 ADD DUP13 MSTORE SWAP7 DUP8 MSTORE PUSH6 0x1DCD6500000 DUP8 DUP8 ADD DUP2 DUP2 MSTORE PUSH9 0x14D1120D7B1600000 DUP10 DUP15 ADD SWAP1 DUP2 MSTORE DUP6 SLOAD DUP1 DUP15 ADD DUP8 SSTORE DUP7 DUP13 MSTORE SWAP10 MLOAD SWAP10 DUP6 MUL DUP1 DUP6 ADD SWAP11 SWAP1 SWAP11 SSTORE SWAP1 MLOAD DUP10 DUP8 ADD SSTORE MLOAD SWAP8 DUP7 ADD SWAP8 SWAP1 SWAP8 SSTORE DUP11 MLOAD DUP1 DUP11 ADD DUP13 MSTORE SWAP7 DUP8 MSTORE PUSH6 0x3B9ACA00000 DUP8 DUP8 ADD DUP2 DUP2 MSTORE PUSH8 0xA688906BD8B00000 DUP10 DUP15 ADD SWAP1 DUP2 MSTORE DUP6 SLOAD DUP1 DUP15 ADD DUP8 SSTORE DUP7 DUP13 MSTORE SWAP10 MLOAD SWAP10 DUP6 MUL DUP1 DUP6 ADD SWAP11 SWAP1 SWAP11 SSTORE SWAP1 MLOAD DUP10 DUP8 ADD SSTORE MLOAD SWAP8 DUP7 ADD SWAP8 SWAP1 SWAP8 SSTORE DUP11 MLOAD DUP1 DUP11 ADD DUP13 MSTORE SWAP7 DUP8 MSTORE PUSH6 0x77359400000 DUP8 DUP8 ADD DUP2 DUP2 MSTORE PUSH8 0x53444835EC580000 DUP10 DUP15 ADD SWAP1 DUP2 MSTORE DUP6 SLOAD DUP1 DUP15 ADD DUP8 SSTORE DUP7 DUP13 MSTORE SWAP10 MLOAD SWAP10 DUP6 MUL DUP1 DUP6 ADD SWAP11 SWAP1 SWAP11 SSTORE SWAP1 MLOAD DUP10 DUP8 ADD SSTORE MLOAD SWAP8 DUP7 ADD SWAP8 SWAP1 SWAP8 SSTORE DUP11 MLOAD DUP1 DUP11 ADD DUP13 MSTORE SWAP7 DUP8 MSTORE PUSH6 0xEE6B2800000 DUP8 DUP8 ADD DUP2 DUP2 MSTORE PUSH8 0x29A2241AF62C0000 DUP10 DUP15 ADD SWAP1 DUP2 MSTORE DUP6 SLOAD DUP1 DUP15 ADD DUP8 SSTORE DUP7 DUP13 MSTORE SWAP10 MLOAD SWAP10 DUP6 MUL DUP1 DUP6 ADD SWAP11 SWAP1 SWAP11 SSTORE SWAP1 MLOAD DUP10 DUP8 ADD SSTORE MLOAD SWAP8 DUP7 ADD SWAP8 SWAP1 SWAP8 SSTORE DUP11 MLOAD DUP1 DUP11 ADD DUP13 MSTORE SWAP7 DUP8 MSTORE PUSH6 0x1DCD65000000 DUP8 DUP8 ADD DUP2 DUP2 MSTORE PUSH8 0x14D1120D7B160000 DUP10 DUP15 ADD SWAP1 DUP2 MSTORE DUP6 SLOAD DUP1 DUP15 ADD DUP8 SSTORE DUP7 DUP13 MSTORE SWAP10 MLOAD SWAP10 DUP6 MUL DUP1 DUP6 ADD SWAP11 SWAP1 SWAP11 SSTORE SWAP1 MLOAD DUP10 DUP8 ADD SSTORE MLOAD SWAP8 DUP7 ADD SWAP8 SWAP1 SWAP8 SSTORE DUP11 MLOAD DUP1 DUP11 ADD DUP13 MSTORE SWAP7 DUP8 MSTORE PUSH6 0x3B9ACA000000 DUP8 DUP8 ADD DUP2 DUP2 MSTORE PUSH8 0xA688906BD8B0000 DUP10 DUP15 ADD SWAP1 DUP2 MSTORE DUP6 SLOAD DUP1 DUP15 ADD DUP8 SSTORE DUP7 DUP13 MSTORE SWAP10 MLOAD SWAP10 DUP6 MUL DUP1 DUP6 ADD SWAP11 SWAP1 SWAP11 SSTORE SWAP1 MLOAD DUP10 DUP8 ADD SSTORE MLOAD SWAP8 DUP7 ADD SWAP8 SWAP1 SWAP8 SSTORE DUP11 MLOAD DUP1 DUP11 ADD DUP13 MSTORE SWAP7 DUP8 MSTORE PUSH6 0x773594000000 DUP8 DUP8 ADD DUP2 DUP2 MSTORE PUSH8 0x54607FC96A60000 DUP10 DUP15 ADD SWAP1 DUP2 MSTORE DUP6 SLOAD DUP1 DUP15 ADD DUP8 SSTORE DUP7 DUP13 MSTORE SWAP10 MLOAD SWAP10 DUP6 MUL DUP1 DUP6 ADD SWAP11 SWAP1 SWAP11 SSTORE SWAP1 MLOAD DUP10 DUP8 ADD SSTORE MLOAD SWAP8 DUP7 ADD SWAP8 SWAP1 SWAP8 SSTORE DUP11 MLOAD SWAP9 DUP10 ADD DUP12 MSTORE SWAP6 DUP9 MSTORE PUSH1 0x0 NOT SWAP5 DUP9 ADD SWAP5 DUP6 MSTORE PUSH8 0x2A303FE4B530000 SWAP10 DUP9 ADD SWAP10 DUP11 MSTORE DUP2 SLOAD SWAP9 DUP10 ADD DUP3 SSTORE SWAP6 MSTORE SWAP5 MLOAD SWAP6 SWAP1 SWAP4 MUL SWAP2 DUP3 ADD SWAP5 SWAP1 SWAP5 SSTORE SWAP3 MLOAD SWAP2 DUP4 ADD SWAP2 SWAP1 SWAP2 SSTORE SWAP2 MLOAD SWAP2 ADD SSTORE JUMP JUMPDEST POP PUSH2 0x72B JUMP JUMPDEST PUSH1 0x0 DUP1 SLOAD PUSH1 0x1 PUSH1 0x1 PUSH1 0xA0 SHL SUB DUP4 DUP2 AND PUSH1 0x1 PUSH1 0x1 PUSH1 0xA0 SHL SUB NOT DUP4 AND DUP2 OR DUP5 SSTORE PUSH1 0x40 MLOAD SWAP2 SWAP1 SWAP3 AND SWAP3 DUP4 SWAP2 PUSH32 0x8BE0079C531659141344CD1FD0A4F28419497F9722A3DAAFE3B4186F6B6457E0 SWAP2 SWAP1 LOG3 POP POP JUMP JUMPDEST PUSH1 0x0 PUSH1 0x20 DUP3 DUP5 SUB SLT ISZERO PUSH2 0x70D JUMPI PUSH1 0x0 DUP1 REVERT JUMPDEST DUP2 MLOAD PUSH1 0x1 PUSH1 0x1 PUSH1 0xA0 SHL SUB DUP2 AND DUP2 EQ PUSH2 0x724 JUMPI PUSH1 0x0 DUP1 REVERT JUMPDEST SWAP4 SWAP3 POP POP POP JUMP JUMPDEST PUSH2 0x1115 DUP1 PUSH2 0x73A PUSH1 0x0 CODECOPY PUSH1 0x0 RETURN INVALID PUSH1 0x80 PUSH1 0x40 MSTORE CALLVALUE DUP1 ISZERO PUSH2 0x10 JUMPI PUSH1 0x0 DUP1 REVERT JUMPDEST POP PUSH1 0x4 CALLDATASIZE LT PUSH2 0x137 JUMPI PUSH1 0x0 CALLDATALOAD PUSH1 0xE0 SHR DUP1 PUSH4 0x8DA5CB5B GT PUSH2 0xB8 JUMPI DUP1 PUSH4 0xAFD86A76 GT PUSH2 0x7C JUMPI DUP1 PUSH4 0xAFD86A76 EQ PUSH2 0x2EB JUMPI DUP1 PUSH4 0xB014DC11 EQ PUSH2 0x2FE JUMPI DUP1 PUSH4 0xBA69E410 EQ PUSH2 0x31E JUMPI DUP1 PUSH4 0xF10F9A69 EQ PUSH2 0x331 JUMPI DUP1 PUSH4 0xF2FDE38B EQ PUSH2 0x351 JUMPI DUP1 PUSH4 0xFAD58B21 EQ PUSH2 0x364 JUMPI PUSH1 0x0 DUP1 REVERT JUMPDEST DUP1 PUSH4 0x8DA5CB5B EQ PUSH2 0x26E JUMPI DUP1 PUSH4 0x94928B84 EQ PUSH2 0x27F JUMPI DUP1 PUSH4 0x97E50818 EQ PUSH2 0x292 JUMPI DUP1 PUSH4 0x9BD8BD9E EQ PUSH2 0x2A5 JUMPI DUP1 PUSH4 0xAC16BA1D EQ PUSH2 0x2B8 JUMPI PUSH1 0x0 DUP1 REVERT JUMPDEST DUP1 PUSH4 0x5183D667 GT PUSH2 0xFF JUMPI DUP1 PUSH4 0x5183D667 EQ PUSH2 0x1E7 JUMPI DUP1 PUSH4 0x6A55B7CA EQ PUSH2 0x210 JUMPI DUP1 PUSH4 0x715018A6 EQ PUSH2 0x23E JUMPI DUP1 PUSH4 0x7E1FDBE8 EQ PUSH2 0x248 JUMPI DUP1 PUSH4 0x81D920EC EQ PUSH2 0x25B JUMPI PUSH1 0x0 DUP1 REVERT JUMPDEST DUP1 PUSH4 0x22834DDB EQ PUSH2 0x13C JUMPI DUP1 PUSH4 0x2330CE70 EQ PUSH2 0x153 JUMPI DUP1 PUSH4 0x272E5A52 EQ PUSH2 0x17C JUMPI DUP1 PUSH4 0x2EBD9978 EQ PUSH2 0x19C JUMPI DUP1 PUSH4 0x4A9FEFC7 EQ PUSH2 0x1BC JUMPI JUMPDEST PUSH1 0x0 DUP1 REVERT JUMPDEST PUSH1 0x6 SLOAD JUMPDEST PUSH1 0x40 MLOAD SWAP1 DUP2 MSTORE PUSH1 0x20 ADD JUMPDEST PUSH1 0x40 MLOAD DUP1 SWAP2 SUB SWAP1 RETURN JUMPDEST PUSH2 0x140 PUSH2 0x161 CALLDATASIZE PUSH1 0x4 PUSH2 0xBFF JUMP JUMPDEST PUSH1 0x1 PUSH1 0x1 PUSH1 0xA0 SHL SUB AND PUSH1 0x0 SWAP1 DUP2 MSTORE PUSH1 0x2 PUSH1 0x20 MSTORE PUSH1 0x40 SWAP1 KECCAK256 SLOAD SWAP1 JUMP JUMPDEST PUSH2 0x140 PUSH2 0x18A CALLDATASIZE PUSH1 0x4 PUSH2 0xC23 JUMP JUMPDEST PUSH1 0x0 SWAP1 DUP2 MSTORE PUSH1 0x5 PUSH1 0x20 MSTORE PUSH1 0x40 SWAP1 KECCAK256 SLOAD SWAP1 JUMP JUMPDEST PUSH2 0x140 PUSH2 0x1AA CALLDATASIZE PUSH1 0x4 PUSH2 0xC23 JUMP JUMPDEST PUSH1 0x5 PUSH1 0x20 MSTORE PUSH1 0x0 SWAP1 DUP2 MSTORE PUSH1 0x40 SWAP1 KECCAK256 SLOAD DUP2 JUMP JUMPDEST PUSH2 0x1CF PUSH2 0x1CA CALLDATASIZE PUSH1 0x4 PUSH2 0xBFF JUMP JUMPDEST PUSH2 0x377 JUMP JUMPDEST PUSH1 0x40 MLOAD PUSH1 0x1 PUSH1 0x1 PUSH1 0xA0 SHL SUB SWAP1 SWAP2 AND DUP2 MSTORE PUSH1 0x20 ADD PUSH2 0x14A JUMP JUMPDEST PUSH2 0x140 PUSH2 0x1F5 CALLDATASIZE PUSH1 0x4 PUSH2 0xBFF JUMP JUMPDEST PUSH1 0x1 PUSH1 0x1 PUSH1 0xA0 SHL SUB AND PUSH1 0x0 SWAP1 DUP2 MSTORE PUSH1 0x3 PUSH1 0x20 MSTORE PUSH1 0x40 SWAP1 KECCAK256 SLOAD SWAP1 JUMP JUMPDEST PUSH2 0x223 PUSH2 0x21E CALLDATASIZE PUSH1 0x4 PUSH2 0xC23 JUMP JUMPDEST PUSH2 0x418 JUMP JUMPDEST PUSH1 0x40 DUP1 MLOAD SWAP4 DUP5 MSTORE PUSH1 0x20 DUP5 ADD SWAP3 SWAP1 SWAP3 MSTORE SWAP1 DUP3 ADD MSTORE PUSH1 0x60 ADD PUSH2 0x14A JUMP JUMPDEST PUSH2 0x246 PUSH2 0x44B JUMP JUMPDEST STOP JUMPDEST PUSH2 0x246 PUSH2 0x256 CALLDATASIZE PUSH1 0x4 PUSH2 0xC3C JUMP JUMPDEST PUSH2 0x45F JUMP JUMPDEST PUSH2 0x223 PUSH2 0x269 CALLDATASIZE PUSH1 0x4 PUSH2 0xC23 JUMP JUMPDEST PUSH2 0x483 JUMP JUMPDEST PUSH1 0x0 SLOAD PUSH1 0x1 PUSH1 0x1 PUSH1 0xA0 SHL SUB AND PUSH2 0x1CF JUMP JUMPDEST PUSH2 0x140 PUSH2 0x28D CALLDATASIZE PUSH1 0x4 PUSH2 0xC3C JUMP JUMPDEST PUSH2 0x532 JUMP JUMPDEST PUSH2 0x246 PUSH2 0x2A0 CALLDATASIZE PUSH1 0x4 PUSH2 0xC68 JUMP JUMPDEST PUSH2 0x56D JUMP JUMPDEST PUSH2 0x246 PUSH2 0x2B3 CALLDATASIZE PUSH1 0x4 PUSH2 0xC3C JUMP JUMPDEST PUSH2 0x8F2 JUMP JUMPDEST PUSH2 0x2DB PUSH2 0x2C6 CALLDATASIZE PUSH1 0x4 PUSH2 0xC23 JUMP JUMPDEST PUSH1 0x4 PUSH1 0x20 MSTORE PUSH1 0x0 SWAP1 DUP2 MSTORE PUSH1 0x40 SWAP1 KECCAK256 SLOAD PUSH1 0xFF AND DUP2 JUMP JUMPDEST PUSH1 0x40 MLOAD SWAP1 ISZERO ISZERO DUP2 MSTORE PUSH1 0x20 ADD PUSH2 0x14A JUMP JUMPDEST PUSH1 0x1 SLOAD PUSH2 0x1CF SWAP1 PUSH1 0x1 PUSH1 0x1 PUSH1 0xA0 SHL SUB AND DUP2 JUMP JUMPDEST PUSH2 0x140 PUSH2 0x30C CALLDATASIZE PUSH1 0x4 PUSH2 0xBFF JUMP JUMPDEST PUSH1 0x2 PUSH1 0x20 MSTORE PUSH1 0x0 SWAP1 DUP2 MSTORE PUSH1 0x40 SWAP1 KECCAK256 SLOAD DUP2 JUMP JUMPDEST PUSH2 0x140 PUSH2 0x32C CALLDATASIZE PUSH1 0x4 PUSH2 0xC68 JUMP JUMPDEST PUSH2 0x916 JUMP JUMPDEST PUSH2 0x140 PUSH2 0x33F CALLDATASIZE PUSH1 0x4 PUSH2 0xBFF JUMP JUMPDEST PUSH1 0x3 PUSH1 0x20 MSTORE PUSH1 0x0 SWAP1 DUP2 MSTORE PUSH1 0x40 SWAP1 KECCAK256 SLOAD DUP2 JUMP JUMPDEST PUSH2 0x246 PUSH2 0x35F CALLDATASIZE PUSH1 0x4 PUSH2 0xBFF JUMP JUMPDEST PUSH2 0xA33 JUMP JUMPDEST PUSH2 0x246 PUSH2 0x372 CALLDATASIZE PUSH1 0x4 PUSH2 0xBFF JUMP JUMPDEST PUSH2 0xA71 JUMP JUMPDEST PUSH1 0x1 SLOAD PUSH1 0x0 SWAP1 PUSH1 0x1 PUSH1 0x1 PUSH1 0xA0 SHL SUB AND PUSH2 0x392 JUMPI POP PUSH1 0x0 SWAP2 SWAP1 POP JUMP JUMPDEST PUSH1 0x1 SLOAD PUSH1 0x40 MLOAD PUSH3 0xF53A47 PUSH1 0xE4 SHL DUP2 MSTORE PUSH1 0x1 PUSH1 0x1 PUSH1 0xA0 SHL SUB DUP5 DUP2 AND PUSH1 0x4 DUP4 ADD MSTORE SWAP1 SWAP2 AND SWAP1 PUSH4 0xF53A470 SWAP1 PUSH1 0x24 ADD PUSH1 0x0 PUSH1 0x40 MLOAD DUP1 DUP4 SUB DUP2 DUP7 GAS STATICCALL SWAP3 POP POP POP DUP1 ISZERO PUSH2 0x3FC JUMPI POP PUSH1 0x40 MLOAD RETURNDATASIZE PUSH1 0x0 DUP3 RETURNDATACOPY PUSH1 0x1F RETURNDATASIZE SWAP1 DUP2 ADD PUSH1 0x1F NOT AND DUP3 ADD PUSH1 0x40 MSTORE PUSH2 0x3F9 SWAP2 SWAP1 DUP2 ADD SWAP1 PUSH2 0xE18 JUMP JUMPDEST PUSH1 0x1 JUMPDEST PUSH2 0x408 JUMPI POP PUSH1 0x0 SWAP2 SWAP1 POP JUMP JUMPDEST POP SWAP1 SWAP6 SWAP5 POP POP POP POP POP JUMP JUMPDEST SWAP2 SWAP1 POP JUMP JUMPDEST PUSH1 0x6 DUP2 DUP2 SLOAD DUP2 LT PUSH2 0x428 JUMPI PUSH1 0x0 DUP1 REVERT JUMPDEST PUSH1 0x0 SWAP2 DUP3 MSTORE PUSH1 0x20 SWAP1 SWAP2 KECCAK256 PUSH1 0x3 SWAP1 SWAP2 MUL ADD DUP1 SLOAD PUSH1 0x1 DUP3 ADD SLOAD PUSH1 0x2 SWAP1 SWAP3 ADD SLOAD SWAP1 SWAP3 POP DUP4 JUMP JUMPDEST PUSH2 0x453 PUSH2 0xA9B JUMP JUMPDEST PUSH2 0x45D PUSH1 0x0 PUSH2 0xAC8 JUMP JUMPDEST JUMP JUMPDEST PUSH2 0x467 PUSH2 0xA9B JUMP JUMPDEST PUSH1 0x1 PUSH1 0x1 PUSH1 0xA0 SHL SUB SWAP1 SWAP2 AND PUSH1 0x0 SWAP1 DUP2 MSTORE PUSH1 0x3 PUSH1 0x20 MSTORE PUSH1 0x40 SWAP1 KECCAK256 SSTORE JUMP JUMPDEST PUSH1 0x0 DUP1 PUSH1 0x0 PUSH1 0x6 DUP1 SLOAD SWAP1 POP DUP5 LT PUSH2 0x4D6 JUMPI PUSH1 0x40 MLOAD PUSH3 0x461BCD PUSH1 0xE5 SHL DUP2 MSTORE PUSH1 0x20 PUSH1 0x4 DUP3 ADD MSTORE PUSH1 0x12 PUSH1 0x24 DUP3 ADD MSTORE PUSH18 0x92DCECC2D8D2C840C4C2DCC840D2DCC8CAF PUSH1 0x73 SHL PUSH1 0x44 DUP3 ADD MSTORE PUSH1 0x64 ADD JUMPDEST PUSH1 0x40 MLOAD DUP1 SWAP2 SUB SWAP1 REVERT JUMPDEST PUSH1 0x0 PUSH1 0x6 DUP6 DUP2 SLOAD DUP2 LT PUSH2 0x4EB JUMPI PUSH2 0x4EB PUSH2 0xEB2 JUMP JUMPDEST PUSH1 0x0 SWAP2 DUP3 MSTORE PUSH1 0x20 SWAP2 DUP3 SWAP1 KECCAK256 PUSH1 0x40 DUP1 MLOAD PUSH1 0x60 DUP2 ADD DUP3 MSTORE PUSH1 0x3 SWAP4 SWAP1 SWAP4 MUL SWAP1 SWAP2 ADD DUP1 SLOAD DUP1 DUP5 MSTORE PUSH1 0x1 DUP3 ADD SLOAD SWAP5 DUP5 ADD DUP6 SWAP1 MSTORE PUSH1 0x2 SWAP1 SWAP2 ADD SLOAD SWAP3 SWAP1 SWAP2 ADD DUP3 SWAP1 MSTORE SWAP8 SWAP2 SWAP7 POP SWAP5 POP SWAP3 POP POP POP JUMP JUMPDEST PUSH1 0x1 PUSH1 0x1 PUSH1 0xA0 SHL SUB DUP3 AND PUSH1 0x0 SWAP1 DUP2 MSTORE PUSH1 0x2 PUSH1 0x20 MSTORE PUSH1 0x40 DUP2 KECCAK256 SLOAD DUP2 PUSH2 0x556 DUP5 DUP4 PUSH2 0xEDE JUMP JUMPDEST SWAP1 POP PUSH2 0x562 DUP3 DUP3 PUSH2 0x916 JUMP JUMPDEST SWAP3 POP POP POP JUMPDEST SWAP3 SWAP2 POP POP JUMP JUMPDEST PUSH1 0x1 SLOAD PUSH1 0x1 PUSH1 0x1 PUSH1 0xA0 SHL SUB AND PUSH2 0x5BC JUMPI PUSH1 0x40 MLOAD PUSH3 0x461BCD PUSH1 0xE5 SHL DUP2 MSTORE PUSH1 0x20 PUSH1 0x4 DUP3 ADD MSTORE PUSH1 0x14 PUSH1 0x24 DUP3 ADD MSTORE PUSH20 0x129BD88818DBDB9D1C9858DD081B9BDD081CD95D PUSH1 0x62 SHL PUSH1 0x44 DUP3 ADD MSTORE PUSH1 0x64 ADD PUSH2 0x4CD JUMP JUMPDEST PUSH1 0x1 SLOAD PUSH1 0x1 PUSH1 0x1 PUSH1 0xA0 SHL SUB AND CALLER EQ PUSH2 0x616 JUMPI PUSH1 0x40 MLOAD PUSH3 0x461BCD PUSH1 0xE5 SHL DUP2 MSTORE PUSH1 0x20 PUSH1 0x4 DUP3 ADD MSTORE PUSH1 0x1F PUSH1 0x24 DUP3 ADD MSTORE PUSH32 0x4F6E6C79206A6F6220636F6E74726163742063616E2063616C6C207468697300 PUSH1 0x44 DUP3 ADD MSTORE PUSH1 0x64 ADD PUSH2 0x4CD JUMP JUMPDEST PUSH1 0x0 DUP2 GT PUSH2 0x671 JUMPI PUSH1 0x40 MLOAD PUSH3 0x461BCD PUSH1 0xE5 SHL DUP2 MSTORE PUSH1 0x20 PUSH1 0x4 DUP3 ADD MSTORE PUSH1 0x22 PUSH1 0x24 DUP3 ADD MSTORE PUSH32 0x5061696420616D6F756E74206D7573742062652067726561746572207468616E PUSH1 0x44 DUP3 ADD MSTORE PUSH2 0x203 PUSH1 0xF4 SHL PUSH1 0x64 DUP3 ADD MSTORE PUSH1 0x84 ADD PUSH2 0x4CD JUMP JUMPDEST PUSH1 0x1 SLOAD PUSH1 0x40 MLOAD PUSH4 0xBF22C457 PUSH1 0xE0 SHL DUP2 MSTORE PUSH1 0x4 DUP2 ADD DUP5 SWAP1 MSTORE PUSH1 0x0 SWAP2 DUP3 SWAP2 PUSH1 0x1 PUSH1 0x1 PUSH1 0xA0 SHL SUB SWAP1 SWAP2 AND SWAP1 PUSH4 0xBF22C457 SWAP1 PUSH1 0x24 ADD PUSH1 0x0 PUSH1 0x40 MLOAD DUP1 DUP4 SUB DUP2 DUP7 GAS STATICCALL ISZERO DUP1 ISZERO PUSH2 0x6BF JUMPI RETURNDATASIZE PUSH1 0x0 DUP1 RETURNDATACOPY RETURNDATASIZE PUSH1 0x0 REVERT JUMPDEST POP POP POP POP PUSH1 0x40 MLOAD RETURNDATASIZE PUSH1 0x0 DUP3 RETURNDATACOPY PUSH1 0x1F RETURNDATASIZE SWAP1 DUP2 ADD PUSH1 0x1F NOT AND DUP3 ADD PUSH1 0x40 MSTORE PUSH2 0x6E7 SWAP2 SWAP1 DUP2 ADD SWAP1 PUSH2 0xF68 JUMP JUMPDEST POP SWAP10 POP POP POP POP POP POP POP POP SWAP3 POP POP PUSH1 0x0 PUSH1 0x1 PUSH1 0x1 PUSH1 0xA0 SHL SUB AND DUP3 PUSH1 0x1 PUSH1 0x1 PUSH1 0xA0 SHL SUB AND SUB PUSH2 0x74A JUMPI PUSH1 0x40 MLOAD PUSH3 0x461BCD PUSH1 0xE5 SHL DUP2 MSTORE PUSH1 0x20 PUSH1 0x4 DUP3 ADD MSTORE PUSH1 0x11 PUSH1 0x24 DUP3 ADD MSTORE PUSH17 0x24B73B30B634B2103537B11033B4BB32B9 PUSH1 0x79 SHL PUSH1 0x44 DUP3 ADD MSTORE PUSH1 0x64 ADD PUSH2 0x4CD JUMP JUMPDEST PUSH1 0x1 PUSH1 0x1 PUSH1 0xA0 SHL SUB DUP2 AND PUSH2 0x798 JUMPI PUSH1 0x40 MLOAD PUSH3 0x461BCD PUSH1 0xE5 SHL DUP2 MSTORE PUSH1 0x20 PUSH1 0x4 DUP3 ADD MSTORE PUSH1 0x15 PUSH1 0x24 DUP3 ADD MSTORE PUSH21 0x139BC81CD95B1958DD195908185C1C1B1A58D85B9D PUSH1 0x5A SHL PUSH1 0x44 DUP3 ADD MSTORE PUSH1 0x64 ADD PUSH2 0x4CD JUMP JUMPDEST PUSH1 0x0 DUP5 DUP2 MSTORE PUSH1 0x5 PUSH1 0x20 MSTORE PUSH1 0x40 DUP2 KECCAK256 DUP1 SLOAD DUP6 SWAP3 SWAP1 PUSH2 0x7B6 SWAP1 DUP5 SWAP1 PUSH2 0xEDE JUMP JUMPDEST SWAP1 SWAP2 SSTORE POP PUSH1 0x0 SWAP1 POP PUSH2 0x7C7 DUP4 PUSH2 0x377 JUMP JUMPDEST SWAP1 POP PUSH1 0x0 PUSH2 0x7D4 DUP4 PUSH2 0x377 JUMP JUMPDEST SWAP1 POP PUSH1 0x0 PUSH2 0x7E2 DUP6 DUP8 PUSH2 0xB18 JUMP JUMPDEST SWAP1 POP PUSH1 0x0 PUSH2 0x7F0 DUP6 DUP9 PUSH2 0xB18 JUMP JUMPDEST SWAP1 POP PUSH1 0x1 PUSH1 0x1 PUSH1 0xA0 SHL SUB DUP5 AND ISZERO DUP1 ISZERO SWAP1 PUSH2 0x81C JUMPI POP DUP6 PUSH1 0x1 PUSH1 0x1 PUSH1 0xA0 SHL SUB AND DUP5 PUSH1 0x1 PUSH1 0x1 PUSH1 0xA0 SHL SUB AND EQ ISZERO JUMPDEST ISZERO PUSH2 0x837 JUMPI PUSH2 0x835 DUP5 PUSH2 0x830 PUSH1 0xA DUP11 PUSH2 0x107A JUMP JUMPDEST PUSH2 0xB18 JUMP JUMPDEST POP JUMPDEST PUSH1 0x1 PUSH1 0x1 PUSH1 0xA0 SHL SUB DUP4 AND ISZERO DUP1 ISZERO SWAP1 PUSH2 0x861 JUMPI POP DUP5 PUSH1 0x1 PUSH1 0x1 PUSH1 0xA0 SHL SUB AND DUP4 PUSH1 0x1 PUSH1 0x1 PUSH1 0xA0 SHL SUB AND EQ ISZERO JUMPDEST DUP1 ISZERO PUSH2 0x87F JUMPI POP DUP4 PUSH1 0x1 PUSH1 0x1 PUSH1 0xA0 SHL SUB AND DUP4 PUSH1 0x1 PUSH1 0x1 PUSH1 0xA0 SHL SUB AND EQ ISZERO JUMPDEST ISZERO PUSH2 0x895 JUMPI PUSH2 0x893 DUP4 PUSH2 0x830 PUSH1 0xA DUP11 PUSH2 0x107A JUMP JUMPDEST POP JUMPDEST PUSH1 0x40 DUP1 MLOAD DUP9 DUP2 MSTORE PUSH1 0x20 DUP2 ADD DUP5 SWAP1 MSTORE SWAP1 DUP2 ADD DUP3 SWAP1 MSTORE PUSH1 0x1 PUSH1 0x1 PUSH1 0xA0 SHL SUB DUP1 DUP8 AND SWAP2 SWAP1 DUP9 AND SWAP1 DUP11 SWAP1 PUSH32 0xF0507B68A744DB6F63183FB7E722285FB3CBF6F6AA13C12FF186432859E368E2 SWAP1 PUSH1 0x60 ADD PUSH1 0x40 MLOAD DUP1 SWAP2 SUB SWAP1 LOG4 POP POP POP POP POP POP POP POP JUMP JUMPDEST PUSH2 0x8FA PUSH2 0xA9B JUMP JUMPDEST PUSH1 0x1 PUSH1 0x1 PUSH1 0xA0 SHL SUB SWAP1 SWAP2 AND PUSH1 0x0 SWAP1 DUP2 MSTORE PUSH1 0x2 PUSH1 0x20 MSTORE PUSH1 0x40 SWAP1 KECCAK256 SSTORE JUMP JUMPDEST PUSH1 0x0 DUP2 DUP4 LT PUSH2 0x927 JUMPI POP PUSH1 0x0 PUSH2 0x567 JUMP JUMPDEST PUSH1 0x0 DUP4 DUP2 JUMPDEST PUSH1 0x6 SLOAD DUP2 LT DUP1 ISZERO PUSH2 0x93C JUMPI POP DUP5 DUP3 LT JUMPDEST ISZERO PUSH2 0xA29 JUMPI PUSH1 0x0 PUSH1 0x6 DUP3 DUP2 SLOAD DUP2 LT PUSH2 0x956 JUMPI PUSH2 0x956 PUSH2 0xEB2 JUMP JUMPDEST PUSH1 0x0 SWAP2 DUP3 MSTORE PUSH1 0x20 SWAP2 DUP3 SWAP1 KECCAK256 PUSH1 0x40 DUP1 MLOAD PUSH1 0x60 DUP2 ADD DUP3 MSTORE PUSH1 0x3 SWAP1 SWAP4 MUL SWAP1 SWAP2 ADD DUP1 SLOAD DUP4 MSTORE PUSH1 0x1 DUP2 ADD SLOAD SWAP4 DUP4 ADD DUP5 SWAP1 MSTORE PUSH1 0x2 ADD SLOAD SWAP1 DUP3 ADD MSTORE SWAP2 POP DUP4 LT PUSH2 0x998 JUMPI POP PUSH2 0xA17 JUMP JUMPDEST DUP1 MLOAD PUSH1 0x0 SWAP1 DUP5 GT PUSH2 0x9AA JUMPI DUP2 MLOAD PUSH2 0x9AC JUMP JUMPDEST DUP4 JUMPDEST SWAP1 POP PUSH1 0x0 DUP3 PUSH1 0x20 ADD MLOAD DUP9 LT PUSH2 0x9C5 JUMPI DUP3 PUSH1 0x20 ADD MLOAD PUSH2 0x9C7 JUMP JUMPDEST DUP8 JUMPDEST SWAP1 POP DUP1 DUP3 LT ISZERO PUSH2 0xA13 JUMPI PUSH1 0x0 PUSH2 0x9DD DUP4 DUP4 PUSH2 0x109C JUMP JUMPDEST SWAP1 POP PUSH1 0x0 PUSH3 0xF4240 DUP6 PUSH1 0x40 ADD MLOAD DUP4 PUSH2 0x9F5 SWAP2 SWAP1 PUSH2 0x10AF JUMP JUMPDEST PUSH2 0x9FF SWAP2 SWAP1 PUSH2 0x107A JUMP JUMPDEST SWAP1 POP PUSH2 0xA0B DUP2 DUP10 PUSH2 0xEDE JUMP JUMPDEST SWAP8 POP DUP3 SWAP7 POP POP POP JUMPDEST POP POP POP JUMPDEST DUP1 PUSH2 0xA21 DUP2 PUSH2 0x10C6 JUMP JUMPDEST SWAP2 POP POP PUSH2 0x92C JUMP JUMPDEST POP SWAP1 SWAP5 SWAP4 POP POP POP POP JUMP JUMPDEST PUSH2 0xA3B PUSH2 0xA9B JUMP JUMPDEST PUSH1 0x1 PUSH1 0x1 PUSH1 0xA0 SHL SUB DUP2 AND PUSH2 0xA65 JUMPI PUSH1 0x40 MLOAD PUSH4 0x1E4FBDF7 PUSH1 0xE0 SHL DUP2 MSTORE PUSH1 0x0 PUSH1 0x4 DUP3 ADD MSTORE PUSH1 0x24 ADD PUSH2 0x4CD JUMP JUMPDEST PUSH2 0xA6E DUP2 PUSH2 0xAC8 JUMP JUMPDEST POP JUMP JUMPDEST PUSH2 0xA79 PUSH2 0xA9B JUMP JUMPDEST PUSH1 0x1 DUP1 SLOAD PUSH1 0x1 PUSH1 0x1 PUSH1 0xA0 SHL SUB NOT AND PUSH1 0x1 PUSH1 0x1 PUSH1 0xA0 SHL SUB SWAP3 SWAP1 SWAP3 AND SWAP2 SWAP1 SWAP2 OR SWAP1 SSTORE JUMP JUMPDEST PUSH1 0x0 SLOAD PUSH1 0x1 PUSH1 0x1 PUSH1 0xA0 SHL SUB AND CALLER EQ PUSH2 0x45D JUMPI PUSH1 0x40 MLOAD PUSH4 0x118CDAA7 PUSH1 0xE0 SHL DUP2 MSTORE CALLER PUSH1 0x4 DUP3 ADD MSTORE PUSH1 0x24 ADD PUSH2 0x4CD JUMP JUMPDEST PUSH1 0x0 DUP1 SLOAD PUSH1 0x1 PUSH1 0x1 PUSH1 0xA0 SHL SUB DUP4 DUP2 AND PUSH1 0x1 PUSH1 0x1 PUSH1 0xA0 SHL SUB NOT DUP4 AND DUP2 OR DUP5 SSTORE PUSH1 0x40 MLOAD SWAP2 SWAP1 SWAP3 AND SWAP3 DUP4 SWAP2 PUSH32 0x8BE0079C531659141344CD1FD0A4F28419497F9722A3DAAFE3B4186F6B6457E0 SWAP2 SWAP1 LOG3 POP POP JUMP JUMPDEST PUSH1 0x1 PUSH1 0x1 PUSH1 0xA0 SHL SUB DUP3 AND PUSH1 0x0 SWAP1 DUP2 MSTORE PUSH1 0x2 PUSH1 0x20 MSTORE PUSH1 0x40 DUP2 KECCAK256 SLOAD DUP2 PUSH2 0xB3C DUP5 DUP4 PUSH2 0xEDE JUMP JUMPDEST SWAP1 POP PUSH1 0x0 PUSH2 0xB4A DUP4 DUP4 PUSH2 0x916 JUMP JUMPDEST PUSH1 0x1 PUSH1 0x1 PUSH1 0xA0 SHL SUB DUP8 AND PUSH1 0x0 SWAP1 DUP2 MSTORE PUSH1 0x2 PUSH1 0x20 SWAP1 DUP2 MSTORE PUSH1 0x40 DUP1 DUP4 KECCAK256 DUP7 SWAP1 SSTORE PUSH1 0x3 SWAP1 SWAP2 MSTORE DUP2 KECCAK256 DUP1 SLOAD SWAP3 SWAP4 POP DUP4 SWAP3 SWAP1 SWAP2 SWAP1 PUSH2 0xB84 SWAP1 DUP5 SWAP1 PUSH2 0xEDE JUMP JUMPDEST SWAP1 SWAP2 SSTORE POP POP PUSH1 0x1 PUSH1 0x1 PUSH1 0xA0 SHL SUB DUP7 AND PUSH1 0x0 DUP2 DUP2 MSTORE PUSH1 0x3 PUSH1 0x20 SWAP1 DUP2 MSTORE PUSH1 0x40 SWAP2 DUP3 SWAP1 KECCAK256 SLOAD DUP3 MLOAD DUP6 DUP2 MSTORE SWAP2 DUP3 ADD DUP7 SWAP1 MSTORE DUP2 DUP4 ADD MSTORE SWAP1 MLOAD PUSH32 0x53F3AD2FD40A9F84E221858C8242CE2E4A5F164C3A550D1E3A70E53123A402FA SWAP2 DUP2 SWAP1 SUB PUSH1 0x60 ADD SWAP1 LOG2 SWAP6 SWAP5 POP POP POP POP POP JUMP JUMPDEST PUSH1 0x1 PUSH1 0x1 PUSH1 0xA0 SHL SUB DUP2 AND DUP2 EQ PUSH2 0xA6E JUMPI PUSH1 0x0 DUP1 REVERT JUMPDEST PUSH1 0x0 PUSH1 0x20 DUP3 DUP5 SUB SLT ISZERO PUSH2 0xC11 JUMPI PUSH1 0x0 DUP1 REVERT JUMPDEST DUP2 CALLDATALOAD PUSH2 0xC1C DUP2 PUSH2 0xBEA JUMP JUMPDEST SWAP4 SWAP3 POP POP POP JUMP JUMPDEST PUSH1 0x0 PUSH1 0x20 DUP3 DUP5 SUB SLT ISZERO PUSH2 0xC35 JUMPI PUSH1 0x0 DUP1 REVERT JUMPDEST POP CALLDATALOAD SWAP2 SWAP1 POP JUMP JUMPDEST PUSH1 0x0 DUP1 PUSH1 0x40 DUP4 DUP6 SUB SLT ISZERO PUSH2 0xC4F JUMPI PUSH1 0x0 DUP1 REVERT JUMPDEST DUP3 CALLDATALOAD PUSH2 0xC5A DUP2 PUSH2 0xBEA JUMP JUMPDEST SWAP5 PUSH1 0x20 SWAP4 SWAP1 SWAP4 ADD CALLDATALOAD SWAP4 POP POP POP JUMP JUMPDEST PUSH1 0x0 DUP1 PUSH1 0x40 DUP4 DUP6 SUB SLT ISZERO PUSH2 0xC7B JUMPI PUSH1 0x0 DUP1 REVERT JUMPDEST POP POP DUP1 CALLDATALOAD SWAP3 PUSH1 0x20 SWAP1 SWAP2 ADD CALLDATALOAD SWAP2 POP JUMP JUMPDEST DUP1 MLOAD PUSH2 0x413 DUP2 PUSH2 0xBEA JUMP JUMPDEST PUSH4 0x4E487B71 PUSH1 0xE0 SHL PUSH1 0x0 MSTORE PUSH1 0x41 PUSH1 0x4 MSTORE PUSH1 0x24 PUSH1 0x0 REVERT JUMPDEST PUSH1 0x40 MLOAD PUSH1 0x1F DUP3 ADD PUSH1 0x1F NOT AND DUP2 ADD PUSH8 0xFFFFFFFFFFFFFFFF DUP2 GT DUP3 DUP3 LT OR ISZERO PUSH2 0xCD4 JUMPI PUSH2 0xCD4 PUSH2 0xC95 JUMP JUMPDEST PUSH1 0x40 MSTORE SWAP2 SWAP1 POP JUMP JUMPDEST PUSH1 0x0 DUP3 PUSH1 0x1F DUP4 ADD SLT PUSH2 0xCED JUMPI PUSH1 0x0 DUP1 REVERT JUMPDEST DUP2 MLOAD PUSH8 0xFFFFFFFFFFFFFFFF DUP2 GT ISZERO PUSH2 0xD07 JUMPI PUSH2 0xD07 PUSH2 0xC95 JUMP JUMPDEST PUSH2 0xD1A PUSH1 0x1F DUP3 ADD PUSH1 0x1F NOT AND PUSH1 0x20 ADD PUSH2 0xCAB JUMP JUMPDEST DUP2 DUP2 MSTORE DUP5 PUSH1 0x20 DUP4 DUP7 ADD ADD GT ISZERO PUSH2 0xD2F JUMPI PUSH1 0x0 DUP1 REVERT JUMPDEST PUSH1 0x0 JUMPDEST DUP3 DUP2 LT ISZERO PUSH2 0xD4E JUMPI PUSH1 0x20 DUP2 DUP7 ADD DUP2 ADD MLOAD DUP4 DUP4 ADD DUP3 ADD MSTORE ADD PUSH2 0xD32 JUMP JUMPDEST POP PUSH1 0x0 SWAP2 DUP2 ADD PUSH1 0x20 ADD SWAP2 SWAP1 SWAP2 MSTORE SWAP4 SWAP3 POP POP POP JUMP JUMPDEST PUSH1 0x0 PUSH8 0xFFFFFFFFFFFFFFFF DUP3 GT ISZERO PUSH2 0xD7C JUMPI PUSH2 0xD7C PUSH2 0xC95 JUMP JUMPDEST POP PUSH1 0x5 SHL PUSH1 0x20 ADD SWAP1 JUMP JUMPDEST PUSH1 0x0 DUP3 PUSH1 0x1F DUP4 ADD SLT PUSH2 0xD97 JUMPI PUSH1 0x0 DUP1 REVERT JUMPDEST DUP2 MLOAD PUSH2 0xDAA PUSH2 0xDA5 DUP3 PUSH2 0xD62 JUMP JUMPDEST PUSH2 0xCAB JUMP JUMPDEST DUP1 DUP3 DUP3 MSTORE PUSH1 0x20 DUP3 ADD SWAP2 POP PUSH1 0x20 DUP4 PUSH1 0x5 SHL DUP7 ADD ADD SWAP3 POP DUP6 DUP4 GT ISZERO PUSH2 0xDCC JUMPI PUSH1 0x0 DUP1 REVERT JUMPDEST PUSH1 0x20 DUP6 ADD JUMPDEST DUP4 DUP2 LT ISZERO PUSH2 0xE0E JUMPI DUP1 MLOAD PUSH8 0xFFFFFFFFFFFFFFFF DUP2 GT ISZERO PUSH2 0xDF0 JUMPI PUSH1 0x0 DUP1 REVERT JUMPDEST PUSH2 0xDFF DUP9 PUSH1 0x20 DUP4 DUP11 ADD ADD PUSH2 0xCDC JUMP JUMPDEST DUP5 MSTORE POP PUSH1 0x20 SWAP3 DUP4 ADD SWAP3 ADD PUSH2 0xDD1 JUMP JUMPDEST POP SWAP6 SWAP5 POP POP POP POP POP JUMP JUMPDEST PUSH1 0x0 DUP1 PUSH1 0x0 DUP1 PUSH1 0x0 PUSH1 0xA0 DUP7 DUP9 SUB SLT ISZERO PUSH2 0xE30 JUMPI PUSH1 0x0 DUP1 REVERT JUMPDEST DUP6 MLOAD PUSH2 0xE3B DUP2 PUSH2 0xBEA JUMP JUMPDEST PUSH1 0x20 DUP8 ADD MLOAD SWAP1 SWAP6 POP PUSH8 0xFFFFFFFFFFFFFFFF DUP2 GT ISZERO PUSH2 0xE58 JUMPI PUSH1 0x0 DUP1 REVERT JUMPDEST PUSH2 0xE64 DUP9 DUP3 DUP10 ADD PUSH2 0xCDC JUMP JUMPDEST SWAP5 POP POP PUSH1 0x40 DUP7 ADD MLOAD PUSH2 0xE75 DUP2 PUSH2 0xBEA JUMP JUMPDEST PUSH1 0x60 DUP8 ADD MLOAD PUSH1 0x80 DUP9 ADD MLOAD SWAP2 SWAP5 POP SWAP3 POP PUSH8 0xFFFFFFFFFFFFFFFF DUP2 GT ISZERO PUSH2 0xE99 JUMPI PUSH1 0x0 DUP1 REVERT JUMPDEST PUSH2 0xEA5 DUP9 DUP3 DUP10 ADD PUSH2 0xD86 JUMP JUMPDEST SWAP2 POP POP SWAP3 SWAP6 POP SWAP3 SWAP6 SWAP1 SWAP4 POP JUMP JUMPDEST PUSH4 0x4E487B71 PUSH1 0xE0 SHL PUSH1 0x0 MSTORE PUSH1 0x32 PUSH1 0x4 MSTORE PUSH1 0x24 PUSH1 0x0 REVERT JUMPDEST PUSH4 0x4E487B71 PUSH1 0xE0 SHL PUSH1 0x0 MSTORE PUSH1 0x11 PUSH1 0x4 MSTORE PUSH1 0x24 PUSH1 0x0 REVERT JUMPDEST DUP1 DUP3 ADD DUP1 DUP3 GT ISZERO PUSH2 0x567 JUMPI PUSH2 0x567 PUSH2 0xEC8 JUMP JUMPDEST PUSH1 0x0 DUP3 PUSH1 0x1F DUP4 ADD SLT PUSH2 0xF02 JUMPI PUSH1 0x0 DUP1 REVERT JUMPDEST DUP2 MLOAD PUSH2 0xF10 PUSH2 0xDA5 DUP3 PUSH2 0xD62 JUMP JUMPDEST DUP1 DUP3 DUP3 MSTORE PUSH1 0x20 DUP3 ADD SWAP2 POP PUSH1 0x20 DUP4 PUSH1 0x5 SHL DUP7 ADD ADD SWAP3 POP DUP6 DUP4 GT ISZERO PUSH2 0xF32 JUMPI PUSH1 0x0 DUP1 REVERT JUMPDEST PUSH1 0x20 DUP6 ADD JUMPDEST DUP4 DUP2 LT ISZERO PUSH2 0xE0E JUMPI DUP1 MLOAD PUSH2 0xF4A DUP2 PUSH2 0xBEA JUMP JUMPDEST DUP4 MSTORE PUSH1 0x20 SWAP3 DUP4 ADD SWAP3 ADD PUSH2 0xF37 JUMP JUMPDEST DUP1 MLOAD DUP1 ISZERO ISZERO DUP2 EQ PUSH2 0x413 JUMPI PUSH1 0x0 DUP1 REVERT JUMPDEST PUSH1 0x0 DUP1 PUSH1 0x0 DUP1 PUSH1 0x0 DUP1 PUSH1 0x0 DUP1 PUSH1 0x0 DUP1 PUSH1 0x0 PUSH2 0x160 DUP13 DUP15 SUB SLT ISZERO PUSH2 0xF8A JUMPI PUSH1 0x0 DUP1 REVERT JUMPDEST DUP12 MLOAD SWAP11 POP PUSH2 0xF9A PUSH1 0x20 DUP14 ADD PUSH2 0xC8A JUMP JUMPDEST SWAP10 POP PUSH1 0x40 DUP13 ADD MLOAD PUSH8 0xFFFFFFFFFFFFFFFF DUP2 GT ISZERO PUSH2 0xFB6 JUMPI PUSH1 0x0 DUP1 REVERT JUMPDEST PUSH2 0xFC2 DUP15 DUP3 DUP16 ADD PUSH2 0xEF1 JUMP JUMPDEST SWAP10 POP POP PUSH1 0x60 DUP13 ADD MLOAD PUSH8 0xFFFFFFFFFFFFFFFF DUP2 GT ISZERO PUSH2 0xFDF JUMPI PUSH1 0x0 DUP1 REVERT JUMPDEST PUSH2 0xFEB DUP15 DUP3 DUP16 ADD PUSH2 0xCDC JUMP JUMPDEST SWAP9 POP POP PUSH2 0xFFA PUSH1 0x80 DUP14 ADD PUSH2 0xF58 JUMP JUMPDEST SWAP7 POP PUSH1 0xA0 DUP13 ADD MLOAD PUSH8 0xFFFFFFFFFFFFFFFF DUP2 GT ISZERO PUSH2 0x1016 JUMPI PUSH1 0x0 DUP1 REVERT JUMPDEST PUSH2 0x1022 DUP15 DUP3 DUP16 ADD PUSH2 0xD86 JUMP JUMPDEST SWAP7 POP POP PUSH1 0x0 PUSH1 0xC0 DUP14 ADD MLOAD SWAP1 POP DUP1 SWAP6 POP POP PUSH1 0x0 PUSH1 0xE0 DUP14 ADD MLOAD SWAP1 POP DUP1 SWAP5 POP POP PUSH1 0x0 PUSH2 0x100 DUP14 ADD MLOAD SWAP1 POP DUP1 SWAP4 POP POP PUSH2 0x105A PUSH2 0x120 DUP14 ADD PUSH2 0xC8A JUMP JUMPDEST SWAP2 POP PUSH1 0x0 PUSH2 0x140 DUP14 ADD MLOAD SWAP1 POP DUP1 SWAP2 POP POP SWAP3 SWAP6 SWAP9 SWAP12 POP SWAP3 SWAP6 SWAP9 SWAP12 SWAP1 SWAP4 SWAP7 SWAP10 POP JUMP JUMPDEST PUSH1 0x0 DUP3 PUSH2 0x1097 JUMPI PUSH4 0x4E487B71 PUSH1 0xE0 SHL PUSH1 0x0 MSTORE PUSH1 0x12 PUSH1 0x4 MSTORE PUSH1 0x24 PUSH1 0x0 REVERT JUMPDEST POP DIV SWAP1 JUMP JUMPDEST DUP2 DUP2 SUB DUP2 DUP2 GT ISZERO PUSH2 0x567 JUMPI PUSH2 0x567 PUSH2 0xEC8 JUMP JUMPDEST DUP1 DUP3 MUL DUP2 ISZERO DUP3 DUP3 DIV DUP5 EQ OR PUSH2 0x567 JUMPI PUSH2 0x567 PUSH2 0xEC8 JUMP JUMPDEST PUSH1 0x0 PUSH1 0x1 DUP3 ADD PUSH2 0x10D8 JUMPI PUSH2 0x10D8 PUSH2 0xEC8 JUMP JUMPDEST POP PUSH1 0x1 ADD SWAP1 JUMP INVALID LOG2 PUSH5 0x6970667358 0x22 SLT KECCAK256 BYTE SWAP11 EXTCODEHASH REVERT SDIV LT 0x4D DUP2 0x4D TLOAD PUSH29 0x570533532EA96476E25541861A7AD5F5617B40CAC864736F6C63430008 SHR STOP CALLER "
				},
				"gasEstimates": {
					"creation": {
						"codeDepositCost": "874600",
						"executionCost": "infinite",
						"totalCost": "infinite"
					},
					"external": {
						"calculateTokensForAmount(address,uint256)": "infinite",
						"calculateTokensForRange(uint256,uint256)": "infinite",
						"getJobTotalPaid(uint256)": "2495",
						"getReferrer(address)": "infinite",
						"getRewardBand(uint256)": "11219",
						"getRewardBandsCount()": "2294",
						"getUserCumulativeEarnings(address)": "2566",
						"getUserTotalOWTokens(address)": "2543",
						"jobContract()": "2359",
						"jobProcessed(uint256)": "2561",
						"jobTotalPaid(uint256)": "2517",
						"owner()": "2354",
						"renounceOwnership()": "infinite",
						"rewardBands(uint256)": "8903",
						"setJobContract(address)": "26861",
						"transferOwnership(address)": "infinite",
						"updateRewards(uint256,uint256)": "infinite",
						"updateUserCumulativeEarnings(address,uint256)": "24763",
						"updateUserTotalOWTokens(address,uint256)": "24763",
						"userCumulativeEarnings(address)": "2546",
						"userTotalOWTokens(address)": "2590"
					},
					"internal": {
						"_initializeRewardBands()": "infinite",
						"calculateAndUpdateTokens(address,uint256)": "infinite"
					}
				},
				"methodIdentifiers": {
					"calculateTokensForAmount(address,uint256)": "94928b84",
					"calculateTokensForRange(uint256,uint256)": "ba69e410",
					"getJobTotalPaid(uint256)": "272e5a52",
					"getReferrer(address)": "4a9fefc7",
					"getRewardBand(uint256)": "81d920ec",
					"getRewardBandsCount()": "22834ddb",
					"getUserCumulativeEarnings(address)": "2330ce70",
					"getUserTotalOWTokens(address)": "5183d667",
					"jobContract()": "afd86a76",
					"jobProcessed(uint256)": "ac16ba1d",
					"jobTotalPaid(uint256)": "2ebd9978",
					"owner()": "8da5cb5b",
					"renounceOwnership()": "715018a6",
					"rewardBands(uint256)": "6a55b7ca",
					"setJobContract(address)": "fad58b21",
					"transferOwnership(address)": "f2fde38b",
					"updateRewards(uint256,uint256)": "97e50818",
					"updateUserCumulativeEarnings(address,uint256)": "9bd8bd9e",
					"updateUserTotalOWTokens(address,uint256)": "7e1fdbe8",
					"userCumulativeEarnings(address)": "b014dc11",
					"userTotalOWTokens(address)": "f10f9a69"
				}
			},
			"storageLayout": {
				"storage": [
					{
						"astId": 1327,
						"contract": "rewards-tracking-contract.sol:RewardsTrackingContract",
						"label": "_owner",
						"offset": 0,
						"slot": "0",
						"type": "t_address"
					},
					{
						"astId": 2259,
						"contract": "rewards-tracking-contract.sol:RewardsTrackingContract",
						"label": "jobContract",
						"offset": 0,
						"slot": "1",
						"type": "t_contract(IJobContract)2254"
					},
					{
						"astId": 2270,
						"contract": "rewards-tracking-contract.sol:RewardsTrackingContract",
						"label": "userCumulativeEarnings",
						"offset": 0,
						"slot": "2",
						"type": "t_mapping(t_address,t_uint256)"
					},
					{
						"astId": 2274,
						"contract": "rewards-tracking-contract.sol:RewardsTrackingContract",
						"label": "userTotalOWTokens",
						"offset": 0,
						"slot": "3",
						"type": "t_mapping(t_address,t_uint256)"
					},
					{
						"astId": 2278,
						"contract": "rewards-tracking-contract.sol:RewardsTrackingContract",
						"label": "jobProcessed",
						"offset": 0,
						"slot": "4",
						"type": "t_mapping(t_uint256,t_bool)"
					},
					{
						"astId": 2282,
						"contract": "rewards-tracking-contract.sol:RewardsTrackingContract",
						"label": "jobTotalPaid",
						"offset": 0,
						"slot": "5",
						"type": "t_mapping(t_uint256,t_uint256)"
					},
					{
						"astId": 2286,
						"contract": "rewards-tracking-contract.sol:RewardsTrackingContract",
						"label": "rewardBands",
						"offset": 0,
						"slot": "6",
						"type": "t_array(t_struct(RewardBand)2266_storage)dyn_storage"
					}
				],
				"types": {
					"t_address": {
						"encoding": "inplace",
						"label": "address",
						"numberOfBytes": "20"
					},
					"t_array(t_struct(RewardBand)2266_storage)dyn_storage": {
						"base": "t_struct(RewardBand)2266_storage",
						"encoding": "dynamic_array",
						"label": "struct RewardsTrackingContract.RewardBand[]",
						"numberOfBytes": "32"
					},
					"t_bool": {
						"encoding": "inplace",
						"label": "bool",
						"numberOfBytes": "1"
					},
					"t_contract(IJobContract)2254": {
						"encoding": "inplace",
						"label": "contract IJobContract",
						"numberOfBytes": "20"
					},
					"t_mapping(t_address,t_uint256)": {
						"encoding": "mapping",
						"key": "t_address",
						"label": "mapping(address => uint256)",
						"numberOfBytes": "32",
						"value": "t_uint256"
					},
					"t_mapping(t_uint256,t_bool)": {
						"encoding": "mapping",
						"key": "t_uint256",
						"label": "mapping(uint256 => bool)",
						"numberOfBytes": "32",
						"value": "t_bool"
					},
					"t_mapping(t_uint256,t_uint256)": {
						"encoding": "mapping",
						"key": "t_uint256",
						"label": "mapping(uint256 => uint256)",
						"numberOfBytes": "32",
						"value": "t_uint256"
					},
					"t_struct(RewardBand)2266_storage": {
						"encoding": "inplace",
						"label": "struct RewardsTrackingContract.RewardBand",
						"members": [
							{
								"astId": 2261,
								"contract": "rewards-tracking-contract.sol:RewardsTrackingContract",
								"label": "minAmount",
								"offset": 0,
								"slot": "0",
								"type": "t_uint256"
							},
							{
								"astId": 2263,
								"contract": "rewards-tracking-contract.sol:RewardsTrackingContract",
								"label": "maxAmount",
								"offset": 0,
								"slot": "1",
								"type": "t_uint256"
							},
							{
								"astId": 2265,
								"contract": "rewards-tracking-contract.sol:RewardsTrackingContract",
								"label": "owPerDollar",
								"offset": 0,
								"slot": "2",
								"type": "t_uint256"
							}
						],
						"numberOfBytes": "96"
					},
					"t_uint256": {
						"encoding": "inplace",
						"label": "uint256",
						"numberOfBytes": "32"
					}
				}
			},
			"userdoc": {
				"kind": "user",
				"methods": {},
				"version": 1
			}
		}
	}
}