{
	"profile_sender.sol": {
		"ArbitrumProfileSender": {
			"abi": [
				{
					"inputs": [
						{
							"internalType": "address",
							"name": "_endpoint",
							"type": "address"
						},
						{
							"internalType": "address",
							"name": "_owner",
							"type": "address"
						}
					],
					"stateMutability": "nonpayable",
					"type": "constructor"
				},
				{
					"inputs": [],
					"name": "InvalidDelegate",
					"type": "error"
				},
				{
					"inputs": [],
					"name": "InvalidEndpointCall",
					"type": "error"
				},
				{
					"inputs": [],
					"name": "LzTokenUnavailable",
					"type": "error"
				},
				{
					"inputs": [
						{
							"internalType": "uint32",
							"name": "eid",
							"type": "uint32"
						}
					],
					"name": "NoPeer",
					"type": "error"
				},
				{
					"inputs": [
						{
							"internalType": "uint256",
							"name": "msgValue",
							"type": "uint256"
						}
					],
					"name": "NotEnoughNative",
					"type": "error"
				},
				{
					"inputs": [
						{
							"internalType": "address",
							"name": "addr",
							"type": "address"
						}
					],
					"name": "OnlyEndpoint",
					"type": "error"
				},
				{
					"inputs": [
						{
							"internalType": "uint32",
							"name": "eid",
							"type": "uint32"
						},
						{
							"internalType": "bytes32",
							"name": "sender",
							"type": "bytes32"
						}
					],
					"name": "OnlyPeer",
					"type": "error"
				},
				{
					"inputs": [
						{
							"internalType": "address",
							"name": "owner",
							"type": "address"
						}
					],
					"name": "OwnableInvalidOwner",
					"type": "error"
				},
				{
					"inputs": [
						{
							"internalType": "address",
							"name": "account",
							"type": "address"
						}
					],
					"name": "OwnableUnauthorizedAccount",
					"type": "error"
				},
				{
					"inputs": [
						{
							"internalType": "address",
							"name": "token",
							"type": "address"
						}
					],
					"name": "SafeERC20FailedOperation",
					"type": "error"
				},
				{
					"anonymous": false,
					"inputs": [
						{
							"indexed": true,
							"internalType": "address",
							"name": "previousOwner",
							"type": "address"
						},
						{
							"indexed": true,
							"internalType": "address",
							"name": "newOwner",
							"type": "address"
						}
					],
					"name": "OwnershipTransferred",
					"type": "event"
				},
				{
					"anonymous": false,
					"inputs": [
						{
							"indexed": false,
							"internalType": "uint32",
							"name": "eid",
							"type": "uint32"
						},
						{
							"indexed": false,
							"internalType": "bytes32",
							"name": "peer",
							"type": "bytes32"
						}
					],
					"name": "PeerSet",
					"type": "event"
				},
				{
					"anonymous": false,
					"inputs": [
						{
							"indexed": true,
							"internalType": "uint32",
							"name": "dstEid",
							"type": "uint32"
						},
						{
							"indexed": true,
							"internalType": "address",
							"name": "user",
							"type": "address"
						},
						{
							"indexed": false,
							"internalType": "string",
							"name": "username",
							"type": "string"
						}
					],
					"name": "ProfileCreationRequested",
					"type": "event"
				},
				{
					"inputs": [
						{
							"components": [
								{
									"internalType": "uint32",
									"name": "srcEid",
									"type": "uint32"
								},
								{
									"internalType": "bytes32",
									"name": "sender",
									"type": "bytes32"
								},
								{
									"internalType": "uint64",
									"name": "nonce",
									"type": "uint64"
								}
							],
							"internalType": "struct Origin",
							"name": "origin",
							"type": "tuple"
						}
					],
					"name": "allowInitializePath",
					"outputs": [
						{
							"internalType": "bool",
							"name": "",
							"type": "bool"
						}
					],
					"stateMutability": "view",
					"type": "function"
				},
				{
					"inputs": [
						{
							"internalType": "uint32",
							"name": "_dstEid",
							"type": "uint32"
						},
						{
							"internalType": "string",
							"name": "_username",
							"type": "string"
						},
						{
							"internalType": "bytes",
							"name": "_options",
							"type": "bytes"
						}
					],
					"name": "createProfile",
					"outputs": [],
					"stateMutability": "payable",
					"type": "function"
				},
				{
					"inputs": [],
					"name": "endpoint",
					"outputs": [
						{
							"internalType": "contract ILayerZeroEndpointV2",
							"name": "",
							"type": "address"
						}
					],
					"stateMutability": "view",
					"type": "function"
				},
				{
					"inputs": [
						{
							"components": [
								{
									"internalType": "uint32",
									"name": "srcEid",
									"type": "uint32"
								},
								{
									"internalType": "bytes32",
									"name": "sender",
									"type": "bytes32"
								},
								{
									"internalType": "uint64",
									"name": "nonce",
									"type": "uint64"
								}
							],
							"internalType": "struct Origin",
							"name": "",
							"type": "tuple"
						},
						{
							"internalType": "bytes",
							"name": "",
							"type": "bytes"
						},
						{
							"internalType": "address",
							"name": "_sender",
							"type": "address"
						}
					],
					"name": "isComposeMsgSender",
					"outputs": [
						{
							"internalType": "bool",
							"name": "",
							"type": "bool"
						}
					],
					"stateMutability": "view",
					"type": "function"
				},
				{
					"inputs": [
						{
							"components": [
								{
									"internalType": "uint32",
									"name": "srcEid",
									"type": "uint32"
								},
								{
									"internalType": "bytes32",
									"name": "sender",
									"type": "bytes32"
								},
								{
									"internalType": "uint64",
									"name": "nonce",
									"type": "uint64"
								}
							],
							"internalType": "struct Origin",
							"name": "_origin",
							"type": "tuple"
						},
						{
							"internalType": "bytes32",
							"name": "_guid",
							"type": "bytes32"
						},
						{
							"internalType": "bytes",
							"name": "_message",
							"type": "bytes"
						},
						{
							"internalType": "address",
							"name": "_executor",
							"type": "address"
						},
						{
							"internalType": "bytes",
							"name": "_extraData",
							"type": "bytes"
						}
					],
					"name": "lzReceive",
					"outputs": [],
					"stateMutability": "payable",
					"type": "function"
				},
				{
					"inputs": [
						{
							"internalType": "uint32",
							"name": "",
							"type": "uint32"
						},
						{
							"internalType": "bytes32",
							"name": "",
							"type": "bytes32"
						}
					],
					"name": "nextNonce",
					"outputs": [
						{
							"internalType": "uint64",
							"name": "nonce",
							"type": "uint64"
						}
					],
					"stateMutability": "view",
					"type": "function"
				},
				{
					"inputs": [],
					"name": "oAppVersion",
					"outputs": [
						{
							"internalType": "uint64",
							"name": "senderVersion",
							"type": "uint64"
						},
						{
							"internalType": "uint64",
							"name": "receiverVersion",
							"type": "uint64"
						}
					],
					"stateMutability": "pure",
					"type": "function"
				},
				{
					"inputs": [],
					"name": "owner",
					"outputs": [
						{
							"internalType": "address",
							"name": "",
							"type": "address"
						}
					],
					"stateMutability": "view",
					"type": "function"
				},
				{
					"inputs": [
						{
							"internalType": "uint32",
							"name": "eid",
							"type": "uint32"
						}
					],
					"name": "peers",
					"outputs": [
						{
							"internalType": "bytes32",
							"name": "peer",
							"type": "bytes32"
						}
					],
					"stateMutability": "view",
					"type": "function"
				},
				{
					"inputs": [
						{
							"internalType": "uint32",
							"name": "_dstEid",
							"type": "uint32"
						},
						{
							"internalType": "string",
							"name": "_username",
							"type": "string"
						},
						{
							"internalType": "bytes",
							"name": "_options",
							"type": "bytes"
						}
					],
					"name": "quote",
					"outputs": [
						{
							"components": [
								{
									"internalType": "uint256",
									"name": "nativeFee",
									"type": "uint256"
								},
								{
									"internalType": "uint256",
									"name": "lzTokenFee",
									"type": "uint256"
								}
							],
							"internalType": "struct MessagingFee",
							"name": "",
							"type": "tuple"
						}
					],
					"stateMutability": "view",
					"type": "function"
				},
				{
					"inputs": [],
					"name": "renounceOwnership",
					"outputs": [],
					"stateMutability": "nonpayable",
					"type": "function"
				},
				{
					"inputs": [
						{
							"internalType": "address",
							"name": "_delegate",
							"type": "address"
						}
					],
					"name": "setDelegate",
					"outputs": [],
					"stateMutability": "nonpayable",
					"type": "function"
				},
				{
					"inputs": [
						{
							"internalType": "uint32",
							"name": "_eid",
							"type": "uint32"
						},
						{
							"internalType": "bytes32",
							"name": "_peer",
							"type": "bytes32"
						}
					],
					"name": "setPeer",
					"outputs": [],
					"stateMutability": "nonpayable",
					"type": "function"
				},
				{
					"inputs": [
						{
							"internalType": "address",
							"name": "newOwner",
							"type": "address"
						}
					],
					"name": "transferOwnership",
					"outputs": [],
					"stateMutability": "nonpayable",
					"type": "function"
				}
			],
			"devdoc": {
				"details": "Sends cross-chain profile creation requests to Optimism",
				"errors": {
					"OwnableInvalidOwner(address)": [
						{
							"details": "The owner is not a valid owner account. (eg. `address(0)`)"
						}
					],
					"OwnableUnauthorizedAccount(address)": [
						{
							"details": "The caller account is not authorized to perform an operation."
						}
					],
					"SafeERC20FailedOperation(address)": [
						{
							"details": "An operation with an ERC-20 token failed."
						}
					]
				},
				"kind": "dev",
				"methods": {
					"allowInitializePath((uint32,bytes32,uint64))": {
						"details": "This indicates to the endpoint that the OApp has enabled msgs for this particular path to be received.This defaults to assuming if a peer has been set, its initialized. Can be overridden by the OApp if there is other logic to determine this.",
						"params": {
							"origin": "The origin information containing the source endpoint and sender address."
						},
						"returns": {
							"_0": "Whether the path has been initialized."
						}
					},
					"createProfile(uint32,string,bytes)": {
						"details": "Create profile on destination chain"
					},
					"isComposeMsgSender((uint32,bytes32,uint64),bytes,address)": {
						"details": "_origin The origin information containing the source endpoint and sender address.  - srcEid: The source chain endpoint ID.  - sender: The sender address on the src chain.  - nonce: The nonce of the message._message The lzReceive payload.Applications can optionally choose to implement separate composeMsg senders that are NOT the bridging layer.The default sender IS the OAppReceiver implementer.",
						"params": {
							"_sender": "The sender address."
						},
						"returns": {
							"_0": "isSender Is a valid sender."
						}
					},
					"lzReceive((uint32,bytes32,uint64),bytes32,bytes,address,bytes)": {
						"details": "Entry point for receiving messages or packets from the endpoint.Entry point for receiving msg/packet from the LayerZero endpoint.",
						"params": {
							"_executor": "The address of the executor for the received message.",
							"_extraData": "Additional arbitrary data provided by the corresponding executor.",
							"_guid": "The unique identifier for the received LayerZero message.",
							"_message": "The payload of the received message.",
							"_origin": "The origin information containing the source endpoint and sender address.  - srcEid: The source chain endpoint ID.  - sender: The sender address on the src chain.  - nonce: The nonce of the message."
						}
					},
					"nextNonce(uint32,bytes32)": {
						"details": "_srcEid The source endpoint ID._sender The sender address.The path nonce starts from 1. If 0 is returned it means that there is NO nonce ordered enforcement.Is required by the off-chain executor to determine the OApp expects msg execution is ordered.This is also enforced by the OApp.By default this is NOT enabled. ie. nextNonce is hardcoded to return 0.",
						"returns": {
							"nonce": "The next nonce."
						}
					},
					"oAppVersion()": {
						"returns": {
							"receiverVersion": "The version of the OAppReceiver.sol implementation.",
							"senderVersion": "The version of the OAppSender.sol implementation."
						}
					},
					"owner()": {
						"details": "Returns the address of the current owner."
					},
					"quote(uint32,string,bytes)": {
						"details": "Quote fee for profile creation"
					},
					"renounceOwnership()": {
						"details": "Leaves the contract without owner. It will not be possible to call `onlyOwner` functions. Can only be called by the current owner. NOTE: Renouncing ownership will leave the contract without an owner, thereby disabling any functionality that is only available to the owner."
					},
					"setDelegate(address)": {
						"details": "Only the owner/admin of the OApp can call this function.Provides the ability for a delegate to set configs, on behalf of the OApp, directly on the Endpoint contract.",
						"params": {
							"_delegate": "The address of the delegate to be set."
						}
					},
					"setPeer(uint32,bytes32)": {
						"details": "Only the owner/admin of the OApp can call this function.Indicates that the peer is trusted to send LayerZero messages to this OApp.Set this to bytes32(0) to remove the peer address.Peer is a bytes32 to accommodate non-evm chains.",
						"params": {
							"_eid": "The endpoint ID.",
							"_peer": "The address of the peer to be associated with the corresponding endpoint."
						}
					},
					"transferOwnership(address)": {
						"details": "Transfers ownership of the contract to a new account (`newOwner`). Can only be called by the current owner."
					}
				},
				"title": "ArbitrumProfileSender",
				"version": 1
			},
			"evm": {
				"assembly": "    /* \"profile_sender.sol\":417:1930  contract ArbitrumProfileSender is OApp {... */\n  mstore(0x40, 0xa0)\n    /* \"profile_sender.sol\":591:747  constructor(... */\n  callvalue\n  dup1\n  iszero\n  tag_1\n  jumpi\n  0x00\n  dup1\n  revert\ntag_1:\n  pop\n  mload(0x40)\n  sub(codesize, bytecodeSize)\n  dup1\n  bytecodeSize\n  dup4\n  codecopy\n  dup2\n  add\n  0x40\n  dup2\n  swap1\n  mstore\n  tag_2\n  swap2\n  tag_3\n  jump\t// in\ntag_2:\n    /* \"profile_sender.sol\":665:674  _endpoint */\n  dup2\n    /* \"profile_sender.sol\":676:682  _owner */\n  dup2\n    /* \"profile_sender.sol\":665:674  _endpoint */\n  dup2\n    /* \"profile_sender.sol\":676:682  _owner */\n  dup2\n    /* \"profile_sender.sol\":692:702  msg.sender */\n  caller\n  dup1\n    /* \"@openzeppelin/contracts/access/Ownable.sol\":1269:1364  if (initialOwner == address(0)) {... */\n  tag_9\n  jumpi\n    /* \"@openzeppelin/contracts/access/Ownable.sol\":1322:1353  OwnableInvalidOwner(address(0)) */\n  mload(0x40)\n  shl(0xe0, 0x1e4fbdf7)\n  dup2\n  mstore\n    /* \"@openzeppelin/contracts/access/Ownable.sol\":1350:1351  0 */\n  0x00\n    /* \"@openzeppelin/contracts/access/Ownable.sol\":1322:1353  OwnableInvalidOwner(address(0)) */\n  0x04\n  dup3\n  add\n    /* \"#utility.yul\":640:691   */\n  mstore\n    /* \"#utility.yul\":613:631   */\n  0x24\n  add\n    /* \"@openzeppelin/contracts/access/Ownable.sol\":1322:1353  OwnableInvalidOwner(address(0)) */\n  mload(0x40)\n  dup1\n  swap2\n  sub\n  swap1\n  revert\n    /* \"@openzeppelin/contracts/access/Ownable.sol\":1269:1364  if (initialOwner == address(0)) {... */\ntag_9:\n    /* \"@openzeppelin/contracts/access/Ownable.sol\":1373:1405  _transferOwnership(initialOwner) */\n  tag_12\n    /* \"@openzeppelin/contracts/access/Ownable.sol\":1392:1404  initialOwner */\n  dup2\n    /* \"@openzeppelin/contracts/access/Ownable.sol\":1373:1391  _transferOwnership */\n  tag_13\n    /* \"@openzeppelin/contracts/access/Ownable.sol\":1373:1405  _transferOwnership(initialOwner) */\n  jump\t// in\ntag_12:\n  pop\n  sub(shl(0xa0, 0x01), 0x01)\n    /* \"@layerzerolabs/oapp-evm/contracts/oapp/OAppCore.sol\":1047:1089  endpoint = ILayerZeroEndpointV2(_endpoint) */\n  dup1\n  dup4\n  and\n  0x80\n  mstore\n    /* \"@layerzerolabs/oapp-evm/contracts/oapp/OAppCore.sol\":1104:1127  _delegate == address(0) */\n  dup2\n  and\n    /* \"@layerzerolabs/oapp-evm/contracts/oapp/OAppCore.sol\":1100:1153  if (_delegate == address(0)) revert InvalidDelegate() */\n  tag_15\n  jumpi\n    /* \"@layerzerolabs/oapp-evm/contracts/oapp/OAppCore.sol\":1136:1153  InvalidDelegate() */\n  mload(0x40)\n  shl(0xe2, 0x2d618d81)\n  dup2\n  mstore\n  0x04\n  add\n  mload(0x40)\n  dup1\n  swap2\n  sub\n  swap1\n  revert\n    /* \"@layerzerolabs/oapp-evm/contracts/oapp/OAppCore.sol\":1100:1153  if (_delegate == address(0)) revert InvalidDelegate() */\ntag_15:\n    /* \"@layerzerolabs/oapp-evm/contracts/oapp/OAppCore.sol\":1163:1171  endpoint */\n  mload(0x80)\n    /* \"@layerzerolabs/oapp-evm/contracts/oapp/OAppCore.sol\":1163:1194  endpoint.setDelegate(_delegate) */\n  mload(0x40)\n  shl(0xe0, 0xca5eb5e1)\n  dup2\n  mstore\n  sub(shl(0xa0, 0x01), 0x01)\n    /* \"#utility.yul\":658:690   */\n  dup4\n  dup2\n  and\n    /* \"@layerzerolabs/oapp-evm/contracts/oapp/OAppCore.sol\":1163:1194  endpoint.setDelegate(_delegate) */\n  0x04\n  dup4\n  add\n    /* \"#utility.yul\":640:691   */\n  mstore\n    /* \"@layerzerolabs/oapp-evm/contracts/oapp/OAppCore.sol\":1163:1183  endpoint.setDelegate */\n  swap1\n  swap2\n  and\n  swap1\n  0xca5eb5e1\n  swap1\n    /* \"#utility.yul\":613:631   */\n  0x24\n  add\n    /* \"@layerzerolabs/oapp-evm/contracts/oapp/OAppCore.sol\":1163:1194  endpoint.setDelegate(_delegate) */\n  0x00\n  mload(0x40)\n  dup1\n  dup4\n  sub\n  dup2\n  0x00\n  dup8\n  dup1\n  extcodesize\n  iszero\n  dup1\n  iszero\n  tag_17\n  jumpi\n  0x00\n  dup1\n  revert\ntag_17:\n  pop\n  gas\n  call\n  iszero\n  dup1\n  iszero\n  tag_19\n  jumpi\n  returndatasize\n  0x00\n  dup1\n  returndatacopy\n  revert(0x00, returndatasize)\ntag_19:\n  pop\n  pop\n  pop\n  pop\n    /* \"@layerzerolabs/oapp-evm/contracts/oapp/OAppCore.sol\":987:1201  constructor(address _endpoint, address _delegate) {... */\n  pop\n  pop\n    /* \"@layerzerolabs/oapp-evm/contracts/oapp/OApp.sol\":965:1048  constructor(address _endpoint, address _delegate) OAppCore(_endpoint, _delegate) {} */\n  pop\n  pop\n    /* \"profile_sender.sol\":714:740  _transferOwnership(_owner) */\n  tag_22\n    /* \"profile_sender.sol\":733:739  _owner */\n  dup2\n    /* \"profile_sender.sol\":714:732  _transferOwnership */\n  shl(0x20, tag_13)\n    /* \"profile_sender.sol\":714:740  _transferOwnership(_owner) */\n  0x20\n  shr\n  jump\t// in\ntag_22:\n    /* \"profile_sender.sol\":591:747  constructor(... */\n  pop\n  pop\n    /* \"profile_sender.sol\":417:1930  contract ArbitrumProfileSender is OApp {... */\n  jump(tag_26)\n    /* \"@openzeppelin/contracts/access/Ownable.sol\":2912:3099  function _transferOwnership(address newOwner) internal virtual {... */\ntag_13:\n    /* \"@openzeppelin/contracts/access/Ownable.sol\":2985:3001  address oldOwner */\n  0x00\n    /* \"@openzeppelin/contracts/access/Ownable.sol\":3004:3010  _owner */\n  dup1\n  sload\n  sub(shl(0xa0, 0x01), 0x01)\n    /* \"@openzeppelin/contracts/access/Ownable.sol\":3020:3037  _owner = newOwner */\n  dup4\n  dup2\n  and\n  not(sub(shl(0xa0, 0x01), 0x01))\n  dup4\n  and\n  dup2\n  or\n  dup5\n  sstore\n    /* \"@openzeppelin/contracts/access/Ownable.sol\":3052:3092  OwnershipTransferred(oldOwner, newOwner) */\n  mload(0x40)\n    /* \"@openzeppelin/contracts/access/Ownable.sol\":3004:3010  _owner */\n  swap2\n  swap1\n  swap3\n  and\n  swap3\n  dup4\n  swap2\n    /* \"@openzeppelin/contracts/access/Ownable.sol\":3052:3092  OwnershipTransferred(oldOwner, newOwner) */\n  0x8be0079c531659141344cd1fd0a4f28419497f9722a3daafe3b4186f6b6457e0\n  swap2\n    /* \"@openzeppelin/contracts/access/Ownable.sol\":2985:3001  address oldOwner */\n  swap1\n    /* \"@openzeppelin/contracts/access/Ownable.sol\":3052:3092  OwnershipTransferred(oldOwner, newOwner) */\n  log3\n    /* \"@openzeppelin/contracts/access/Ownable.sol\":2975:3099  {... */\n  pop\n    /* \"@openzeppelin/contracts/access/Ownable.sol\":2912:3099  function _transferOwnership(address newOwner) internal virtual {... */\n  pop\n  jump\t// out\n    /* \"#utility.yul\":14:191   */\ntag_25:\n    /* \"#utility.yul\":93:106   */\n  dup1\n  mload\n  sub(shl(0xa0, 0x01), 0x01)\n    /* \"#utility.yul\":135:166   */\n  dup2\n  and\n    /* \"#utility.yul\":125:167   */\n  dup2\n  eq\n    /* \"#utility.yul\":115:185   */\n  tag_28\n  jumpi\n    /* \"#utility.yul\":181:182   */\n  0x00\n    /* \"#utility.yul\":178:179   */\n  dup1\n    /* \"#utility.yul\":171:183   */\n  revert\n    /* \"#utility.yul\":115:185   */\ntag_28:\n    /* \"#utility.yul\":14:191   */\n  swap2\n  swap1\n  pop\n  jump\t// out\n    /* \"#utility.yul\":196:489   */\ntag_3:\n    /* \"#utility.yul\":275:281   */\n  0x00\n    /* \"#utility.yul\":283:289   */\n  dup1\n    /* \"#utility.yul\":336:338   */\n  0x40\n    /* \"#utility.yul\":324:333   */\n  dup4\n    /* \"#utility.yul\":315:322   */\n  dup6\n    /* \"#utility.yul\":311:334   */\n  sub\n    /* \"#utility.yul\":307:339   */\n  slt\n    /* \"#utility.yul\":304:356   */\n  iszero\n  tag_30\n  jumpi\n    /* \"#utility.yul\":352:353   */\n  0x00\n    /* \"#utility.yul\":349:350   */\n  dup1\n    /* \"#utility.yul\":342:354   */\n  revert\n    /* \"#utility.yul\":304:356   */\ntag_30:\n    /* \"#utility.yul\":375:415   */\n  tag_31\n    /* \"#utility.yul\":405:414   */\n  dup4\n    /* \"#utility.yul\":375:415   */\n  tag_25\n  jump\t// in\ntag_31:\n    /* \"#utility.yul\":365:415   */\n  swap2\n  pop\n    /* \"#utility.yul\":434:483   */\n  tag_32\n    /* \"#utility.yul\":479:481   */\n  0x20\n    /* \"#utility.yul\":468:477   */\n  dup5\n    /* \"#utility.yul\":464:482   */\n  add\n    /* \"#utility.yul\":434:483   */\n  tag_25\n  jump\t// in\ntag_32:\n    /* \"#utility.yul\":424:483   */\n  swap1\n  pop\n    /* \"#utility.yul\":196:489   */\n  swap3\n  pop\n  swap3\n  swap1\n  pop\n  jump\t// out\n    /* \"#utility.yul\":494:697   */\ntag_26:\n    /* \"profile_sender.sol\":417:1930  contract ArbitrumProfileSender is OApp {... */\n  mload(0x80)\n  codecopy(0x00, dataOffset(sub_0), dataSize(sub_0))\n  0x00\n  assignImmutable(\"0xef80077fd7ee005d1b0377e3e959eb59d0ca83c4839422f862a3540a66a91fb5\")\n  return(0x00, dataSize(sub_0))\nstop\n\nsub_0: assembly {\n        /* \"profile_sender.sol\":417:1930  contract ArbitrumProfileSender is OApp {... */\n      mstore(0x40, 0x80)\n      jumpi(tag_1, lt(calldatasize, 0x04))\n      shr(0xe0, calldataload(0x00))\n      dup1\n      0x82413eac\n      gt\n      tag_16\n      jumpi\n      dup1\n      0xca5eb5e1\n      gt\n      tag_17\n      jumpi\n      dup1\n      0xca5eb5e1\n      eq\n      tag_12\n      jumpi\n      dup1\n      0xdab6ffde\n      eq\n      tag_13\n      jumpi\n      dup1\n      0xf2fde38b\n      eq\n      tag_14\n      jumpi\n      dup1\n      0xff7bd03d\n      eq\n      tag_15\n      jumpi\n      0x00\n      dup1\n      revert\n    tag_17:\n      dup1\n      0x82413eac\n      eq\n      tag_9\n      jumpi\n      dup1\n      0x8da5cb5b\n      eq\n      tag_10\n      jumpi\n      dup1\n      0xbb0b6a53\n      eq\n      tag_11\n      jumpi\n      0x00\n      dup1\n      revert\n    tag_16:\n      dup1\n      0x3400288b\n      gt\n      tag_18\n      jumpi\n      dup1\n      0x3400288b\n      eq\n      tag_5\n      jumpi\n      dup1\n      0x5e280f11\n      eq\n      tag_6\n      jumpi\n      dup1\n      0x715018a6\n      eq\n      tag_7\n      jumpi\n      dup1\n      0x7d25a05e\n      eq\n      tag_8\n      jumpi\n      0x00\n      dup1\n      revert\n    tag_18:\n      dup1\n      0x13137d65\n      eq\n      tag_2\n      jumpi\n      dup1\n      0x17442b70\n      eq\n      tag_3\n      jumpi\n      dup1\n      0x306e1d95\n      eq\n      tag_4\n      jumpi\n    tag_1:\n      0x00\n      dup1\n      revert\n        /* \"@layerzerolabs/oapp-evm/contracts/oapp/OAppReceiver.sol\":4368:5076  function lzReceive(... */\n    tag_2:\n      tag_19\n      tag_20\n      calldatasize\n      0x04\n      tag_21\n      jump\t// in\n    tag_20:\n      tag_22\n      jump\t// in\n    tag_19:\n      stop\n        /* \"@layerzerolabs/oapp-evm/contracts/oapp/OApp.sol\":1287:1522  function oAppVersion()... */\n    tag_3:\n      callvalue\n      dup1\n      iszero\n      tag_23\n      jumpi\n      0x00\n      dup1\n      revert\n    tag_23:\n      pop\n      0x40\n      dup1\n      mload\n        /* \"@layerzerolabs/oapp-evm/contracts/oapp/OAppSender.sol\":843:844  1 */\n      0x01\n        /* \"#utility.yul\":1952:2002   */\n      dup2\n      mstore\n        /* \"@layerzerolabs/oapp-evm/contracts/oapp/OAppReceiver.sol\":678:679  2 */\n      0x02\n        /* \"#utility.yul\":2033:2035   */\n      0x20\n        /* \"#utility.yul\":2018:2036   */\n      dup3\n      add\n        /* \"#utility.yul\":2011:2070   */\n      mstore\n        /* \"#utility.yul\":1925:1943   */\n      add\n        /* \"@layerzerolabs/oapp-evm/contracts/oapp/OApp.sol\":1287:1522  function oAppVersion()... */\n    tag_26:\n      mload(0x40)\n      dup1\n      swap2\n      sub\n      swap1\n      return\n        /* \"profile_sender.sol\":817:1416  function createProfile(... */\n    tag_4:\n      tag_19\n      tag_29\n      calldatasize\n      0x04\n      tag_30\n      jump\t// in\n    tag_29:\n      tag_31\n      jump\t// in\n        /* \"@layerzerolabs/oapp-evm/contracts/oapp/OAppCore.sol\":1724:1832  function setPeer(uint32 _eid, bytes32 _peer) public virtual onlyOwner {... */\n    tag_5:\n      callvalue\n      dup1\n      iszero\n      tag_32\n      jumpi\n      0x00\n      dup1\n      revert\n    tag_32:\n      pop\n      tag_19\n      tag_34\n      calldatasize\n      0x04\n      tag_35\n      jump\t// in\n    tag_34:\n      tag_36\n      jump\t// in\n        /* \"@layerzerolabs/oapp-evm/contracts/oapp/OAppCore.sol\":446:492  ILayerZeroEndpointV2 public immutable endpoint */\n    tag_6:\n      callvalue\n      dup1\n      iszero\n      tag_37\n      jumpi\n      0x00\n      dup1\n      revert\n    tag_37:\n      pop\n      tag_38\n      immutable(\"0xef80077fd7ee005d1b0377e3e959eb59d0ca83c4839422f862a3540a66a91fb5\")\n      dup2\n      jump\n    tag_38:\n      mload(0x40)\n      sub(shl(0xa0, 0x01), 0x01)\n        /* \"#utility.yul\":3534:3589   */\n      swap1\n      swap2\n      and\n        /* \"#utility.yul\":3516:3590   */\n      dup2\n      mstore\n        /* \"#utility.yul\":3504:3506   */\n      0x20\n        /* \"#utility.yul\":3489:3507   */\n      add\n        /* \"@layerzerolabs/oapp-evm/contracts/oapp/OAppCore.sol\":446:492  ILayerZeroEndpointV2 public immutable endpoint */\n      tag_26\n        /* \"#utility.yul\":3342:3596   */\n      jump\n        /* \"@openzeppelin/contracts/access/Ownable.sol\":2293:2394  function renounceOwnership() public virtual onlyOwner {... */\n    tag_7:\n      callvalue\n      dup1\n      iszero\n      tag_42\n      jumpi\n      0x00\n      dup1\n      revert\n    tag_42:\n      pop\n      tag_19\n      tag_44\n      jump\t// in\n        /* \"@layerzerolabs/oapp-evm/contracts/oapp/OAppReceiver.sol\":3507:3635  function nextNonce(uint32 /*_srcEid*/, bytes32 /*_sender*/) public view virtual returns (uint64 nonce) {... */\n    tag_8:\n      callvalue\n      dup1\n      iszero\n      tag_45\n      jumpi\n      0x00\n      dup1\n      revert\n    tag_45:\n      pop\n      tag_46\n      tag_47\n      calldatasize\n      0x04\n      tag_35\n      jump\t// in\n    tag_47:\n        /* \"@layerzerolabs/oapp-evm/contracts/oapp/OAppReceiver.sol\":3596:3608  uint64 nonce */\n      0x00\n        /* \"@layerzerolabs/oapp-evm/contracts/oapp/OAppReceiver.sol\":3507:3635  function nextNonce(uint32 /*_srcEid*/, bytes32 /*_sender*/) public view virtual returns (uint64 nonce) {... */\n      swap3\n      swap2\n      pop\n      pop\n      jump\n    tag_46:\n      mload(0x40)\n        /* \"#utility.yul\":3775:3793   */\n      0xffffffffffffffff\n        /* \"#utility.yul\":3763:3794   */\n      swap1\n      swap2\n      and\n        /* \"#utility.yul\":3745:3795   */\n      dup2\n      mstore\n        /* \"#utility.yul\":3733:3735   */\n      0x20\n        /* \"#utility.yul\":3718:3736   */\n      add\n        /* \"@layerzerolabs/oapp-evm/contracts/oapp/OAppReceiver.sol\":3507:3635  function nextNonce(uint32 /*_srcEid*/, bytes32 /*_sender*/) public view virtual returns (uint64 nonce) {... */\n      tag_26\n        /* \"#utility.yul\":3601:3801   */\n      jump\n        /* \"@layerzerolabs/oapp-evm/contracts/oapp/OAppReceiver.sol\":2013:2229  function isComposeMsgSender(... */\n    tag_9:\n      callvalue\n      dup1\n      iszero\n      tag_51\n      jumpi\n      0x00\n      dup1\n      revert\n    tag_51:\n      pop\n      tag_52\n      tag_53\n      calldatasize\n      0x04\n      tag_54\n      jump\t// in\n    tag_53:\n      sub(shl(0xa0, 0x01), 0x01)\n        /* \"@layerzerolabs/oapp-evm/contracts/oapp/OAppReceiver.sol\":2198:2222  _sender == address(this) */\n      dup2\n      and\n        /* \"@layerzerolabs/oapp-evm/contracts/oapp/OAppReceiver.sol\":2217:2221  this */\n      address\n        /* \"@layerzerolabs/oapp-evm/contracts/oapp/OAppReceiver.sol\":2198:2222  _sender == address(this) */\n      eq\n        /* \"@layerzerolabs/oapp-evm/contracts/oapp/OAppReceiver.sol\":2013:2229  function isComposeMsgSender(... */\n      swap5\n      swap4\n      pop\n      pop\n      pop\n      pop\n      jump\n    tag_52:\n      mload(0x40)\n        /* \"#utility.yul\":4644:4658   */\n      swap1\n      iszero\n        /* \"#utility.yul\":4637:4659   */\n      iszero\n        /* \"#utility.yul\":4619:4660   */\n      dup2\n      mstore\n        /* \"#utility.yul\":4607:4609   */\n      0x20\n        /* \"#utility.yul\":4592:4610   */\n      add\n        /* \"@layerzerolabs/oapp-evm/contracts/oapp/OAppReceiver.sol\":2013:2229  function isComposeMsgSender(... */\n      tag_26\n        /* \"#utility.yul\":4479:4666   */\n      jump\n        /* \"@openzeppelin/contracts/access/Ownable.sol\":1638:1723  function owner() public view virtual returns (address) {... */\n    tag_10:\n      callvalue\n      dup1\n      iszero\n      tag_58\n      jumpi\n      0x00\n      dup1\n      revert\n    tag_58:\n      pop\n        /* \"@openzeppelin/contracts/access/Ownable.sol\":1684:1691  address */\n      0x00\n        /* \"@openzeppelin/contracts/access/Ownable.sol\":1710:1716  _owner */\n      sload\n      sub(shl(0xa0, 0x01), 0x01)\n      and\n        /* \"@openzeppelin/contracts/access/Ownable.sol\":1638:1723  function owner() public view virtual returns (address) {... */\n      jump(tag_38)\n        /* \"@layerzerolabs/oapp-evm/contracts/oapp/OAppCore.sol\":569:617  mapping(uint32 eid => bytes32 peer) public peers */\n    tag_11:\n      callvalue\n      dup1\n      iszero\n      tag_63\n      jumpi\n      0x00\n      dup1\n      revert\n    tag_63:\n      pop\n      tag_64\n      tag_65\n      calldatasize\n      0x04\n      tag_66\n      jump\t// in\n    tag_65:\n      mstore(0x20, 0x01)\n      0x00\n      swap1\n      dup2\n      mstore\n      0x40\n      swap1\n      keccak256\n      sload\n      dup2\n      jump\n    tag_64:\n      mload(0x40)\n        /* \"#utility.yul\":5237:5262   */\n      swap1\n      dup2\n      mstore\n        /* \"#utility.yul\":5225:5227   */\n      0x20\n        /* \"#utility.yul\":5210:5228   */\n      add\n        /* \"@layerzerolabs/oapp-evm/contracts/oapp/OAppCore.sol\":569:617  mapping(uint32 eid => bytes32 peer) public peers */\n      tag_26\n        /* \"#utility.yul\":5091:5268   */\n      jump\n        /* \"@layerzerolabs/oapp-evm/contracts/oapp/OAppCore.sol\":3252:3357  function setDelegate(address _delegate) public onlyOwner {... */\n    tag_12:\n      callvalue\n      dup1\n      iszero\n      tag_70\n      jumpi\n      0x00\n      dup1\n      revert\n    tag_70:\n      pop\n      tag_19\n      tag_72\n      calldatasize\n      0x04\n      tag_73\n      jump\t// in\n    tag_72:\n      tag_74\n      jump\t// in\n        /* \"profile_sender.sol\":1481:1769  function quote(... */\n    tag_13:\n      callvalue\n      dup1\n      iszero\n      tag_75\n      jumpi\n      0x00\n      dup1\n      revert\n    tag_75:\n      pop\n      tag_76\n      tag_77\n      calldatasize\n      0x04\n      tag_30\n      jump\t// in\n    tag_77:\n      tag_78\n      jump\t// in\n    tag_76:\n      0x40\n      dup1\n      mload\n        /* \"#utility.yul\":5745:5758   */\n      dup3\n      mload\n        /* \"#utility.yul\":5727:5759   */\n      dup2\n      mstore\n        /* \"#utility.yul\":5815:5819   */\n      0x20\n        /* \"#utility.yul\":5803:5820   */\n      swap3\n      dup4\n      add\n        /* \"#utility.yul\":5797:5821   */\n      mload\n        /* \"#utility.yul\":5775:5795   */\n      swap3\n      dup2\n      add\n        /* \"#utility.yul\":5768:5822   */\n      swap3\n      swap1\n      swap3\n      mstore\n        /* \"#utility.yul\":5700:5718   */\n      add\n        /* \"profile_sender.sol\":1481:1769  function quote(... */\n      tag_26\n        /* \"#utility.yul\":5525:5828   */\n      jump\n        /* \"@openzeppelin/contracts/access/Ownable.sol\":2543:2758  function transferOwnership(address newOwner) public virtual onlyOwner {... */\n    tag_14:\n      callvalue\n      dup1\n      iszero\n      tag_81\n      jumpi\n      0x00\n      dup1\n      revert\n    tag_81:\n      pop\n      tag_19\n      tag_83\n      calldatasize\n      0x04\n      tag_73\n      jump\t// in\n    tag_83:\n      tag_84\n      jump\t// in\n        /* \"@layerzerolabs/oapp-evm/contracts/oapp/OAppReceiver.sol\":2771:2920  function allowInitializePath(Origin calldata origin) public view virtual returns (bool) {... */\n    tag_15:\n      callvalue\n      dup1\n      iszero\n      tag_85\n      jumpi\n      0x00\n      dup1\n      revert\n    tag_85:\n      pop\n      tag_52\n      tag_87\n      calldatasize\n      0x04\n      tag_88\n      jump\t// in\n    tag_87:\n      tag_89\n      jump\t// in\n        /* \"@layerzerolabs/oapp-evm/contracts/oapp/OAppReceiver.sol\":4368:5076  function lzReceive(... */\n    tag_22:\n        /* \"@layerzerolabs/oapp-evm/contracts/oapp/OAppReceiver.sol\":4681:4689  endpoint */\n      immutable(\"0xef80077fd7ee005d1b0377e3e959eb59d0ca83c4839422f862a3540a66a91fb5\")\n      sub(shl(0xa0, 0x01), 0x01)\n        /* \"@layerzerolabs/oapp-evm/contracts/oapp/OAppReceiver.sol\":4673:4704  address(endpoint) != msg.sender */\n      and\n        /* \"@layerzerolabs/oapp-evm/contracts/oapp/OAppReceiver.sol\":4694:4704  msg.sender */\n      caller\n        /* \"@layerzerolabs/oapp-evm/contracts/oapp/OAppReceiver.sol\":4673:4704  address(endpoint) != msg.sender */\n      eq\n        /* \"@layerzerolabs/oapp-evm/contracts/oapp/OAppReceiver.sol\":4669:4737  if (address(endpoint) != msg.sender) revert OnlyEndpoint(msg.sender) */\n      tag_92\n      jumpi\n        /* \"@layerzerolabs/oapp-evm/contracts/oapp/OAppReceiver.sol\":4713:4737  OnlyEndpoint(msg.sender) */\n      mload(0x40)\n      shl(0xe0, 0x91ac5e4f)\n      dup2\n      mstore\n        /* \"@layerzerolabs/oapp-evm/contracts/oapp/OAppReceiver.sol\":4726:4736  msg.sender */\n      caller\n        /* \"@layerzerolabs/oapp-evm/contracts/oapp/OAppReceiver.sol\":4713:4737  OnlyEndpoint(msg.sender) */\n      0x04\n      dup3\n      add\n        /* \"#utility.yul\":3516:3590   */\n      mstore\n        /* \"#utility.yul\":3489:3507   */\n      0x24\n      add\n        /* \"@layerzerolabs/oapp-evm/contracts/oapp/OAppReceiver.sol\":4713:4737  OnlyEndpoint(msg.sender) */\n    tag_93:\n      mload(0x40)\n      dup1\n      swap2\n      sub\n      swap1\n      revert\n        /* \"@layerzerolabs/oapp-evm/contracts/oapp/OAppReceiver.sol\":4669:4737  if (address(endpoint) != msg.sender) revert OnlyEndpoint(msg.sender) */\n    tag_92:\n        /* \"@layerzerolabs/oapp-evm/contracts/oapp/OAppReceiver.sol\":4873:4887  _origin.sender */\n      0x20\n      dup8\n      add\n      dup1\n      calldataload\n      swap1\n        /* \"@layerzerolabs/oapp-evm/contracts/oapp/OAppReceiver.sol\":4837:4869  _getPeerOrRevert(_origin.srcEid) */\n      tag_94\n      swap1\n        /* \"@layerzerolabs/oapp-evm/contracts/oapp/OAppReceiver.sol\":4854:4868  _origin.srcEid */\n      tag_95\n      swap1\n        /* \"@layerzerolabs/oapp-evm/contracts/oapp/OAppReceiver.sol\":4873:4880  _origin */\n      dup11\n        /* \"@layerzerolabs/oapp-evm/contracts/oapp/OAppReceiver.sol\":4854:4868  _origin.srcEid */\n      tag_66\n      jump\t// in\n    tag_95:\n        /* \"@layerzerolabs/oapp-evm/contracts/oapp/OAppReceiver.sol\":4837:4853  _getPeerOrRevert */\n      tag_96\n        /* \"@layerzerolabs/oapp-evm/contracts/oapp/OAppReceiver.sol\":4837:4869  _getPeerOrRevert(_origin.srcEid) */\n      jump\t// in\n    tag_94:\n        /* \"@layerzerolabs/oapp-evm/contracts/oapp/OAppReceiver.sol\":4837:4887  _getPeerOrRevert(_origin.srcEid) != _origin.sender */\n      eq\n        /* \"@layerzerolabs/oapp-evm/contracts/oapp/OAppReceiver.sol\":4833:4936  if (_getPeerOrRevert(_origin.srcEid) != _origin.sender) revert OnlyPeer(_origin.srcEid, _origin.sender) */\n      tag_97\n      jumpi\n        /* \"@layerzerolabs/oapp-evm/contracts/oapp/OAppReceiver.sol\":4905:4919  _origin.srcEid */\n      tag_98\n      0x20\n      dup9\n      add\n        /* \"@layerzerolabs/oapp-evm/contracts/oapp/OAppReceiver.sol\":4905:4912  _origin */\n      dup9\n        /* \"@layerzerolabs/oapp-evm/contracts/oapp/OAppReceiver.sol\":4905:4919  _origin.srcEid */\n      tag_66\n      jump\t// in\n    tag_98:\n        /* \"@layerzerolabs/oapp-evm/contracts/oapp/OAppReceiver.sol\":4896:4936  OnlyPeer(_origin.srcEid, _origin.sender) */\n      mload(0x40)\n      shl(0xe2, 0x309afaf3)\n      dup2\n      mstore\n        /* \"#utility.yul\":6274:6284   */\n      0xffffffff\n        /* \"#utility.yul\":6262:6285   */\n      swap1\n      swap2\n      and\n        /* \"@layerzerolabs/oapp-evm/contracts/oapp/OAppReceiver.sol\":4896:4936  OnlyPeer(_origin.srcEid, _origin.sender) */\n      0x04\n      dup3\n      add\n        /* \"#utility.yul\":6244:6286   */\n      mstore\n        /* \"@layerzerolabs/oapp-evm/contracts/oapp/OAppReceiver.sol\":4921:4935  _origin.sender */\n      0x20\n      dup9\n      add\n      calldataload\n        /* \"#utility.yul\":6302:6320   */\n      0x24\n      dup3\n      add\n        /* \"#utility.yul\":6295:6329   */\n      mstore\n        /* \"#utility.yul\":6217:6235   */\n      0x44\n      add\n        /* \"@layerzerolabs/oapp-evm/contracts/oapp/OAppReceiver.sol\":4896:4936  OnlyPeer(_origin.srcEid, _origin.sender) */\n      tag_93\n        /* \"#utility.yul\":6072:6335   */\n      jump\n        /* \"@layerzerolabs/oapp-evm/contracts/oapp/OAppReceiver.sol\":4833:4936  if (_getPeerOrRevert(_origin.srcEid) != _origin.sender) revert OnlyPeer(_origin.srcEid, _origin.sender) */\n    tag_97:\n        /* \"@layerzerolabs/oapp-evm/contracts/oapp/OAppReceiver.sol\":4368:5076  function lzReceive(... */\n      pop\n      pop\n      pop\n      pop\n      pop\n      pop\n      pop\n      jump\t// out\n        /* \"profile_sender.sol\":817:1416  function createProfile(... */\n    tag_31:\n        /* \"profile_sender.sol\":965:985  bytes memory payload */\n      0x00\n        /* \"profile_sender.sol\":999:1009  msg.sender */\n      caller\n        /* \"profile_sender.sol\":1011:1020  _username */\n      dup6\n      dup6\n        /* \"profile_sender.sol\":988:1021  abi.encode(msg.sender, _username) */\n      add(0x20, mload(0x40))\n      tag_105\n      swap4\n      swap3\n      swap2\n      swap1\n      tag_106\n      jump\t// in\n    tag_105:\n      0x40\n      dup1\n      mload\n      not(0x1f)\n      dup2\n      dup5\n      sub\n      add\n      dup2\n      mstore\n      0x20\n        /* \"profile_sender.sol\":1066:1107  _quote(_dstEid, payload, _options, false) */\n      0x1f\n      dup7\n      add\n      dup2\n      swap1\n      div\n      dup2\n      mul\n      dup5\n      add\n      dup2\n      add\n      swap1\n      swap3\n      mstore\n      dup5\n      dup4\n      mstore\n        /* \"profile_sender.sol\":988:1021  abi.encode(msg.sender, _username) */\n      swap3\n      pop\n        /* \"profile_sender.sol\":1040:1063  MessagingFee memory fee */\n      0x00\n      swap2\n        /* \"profile_sender.sol\":1066:1107  _quote(_dstEid, payload, _options, false) */\n      tag_107\n      swap2\n        /* \"profile_sender.sol\":1073:1080  _dstEid */\n      dup10\n      swap2\n        /* \"profile_sender.sol\":988:1021  abi.encode(msg.sender, _username) */\n      dup6\n      swap2\n        /* \"profile_sender.sol\":1091:1099  _options */\n      dup9\n      swap1\n      dup9\n      swap1\n      dup2\n      swap1\n        /* \"profile_sender.sol\":1066:1107  _quote(_dstEid, payload, _options, false) */\n      dup5\n      add\n        /* \"profile_sender.sol\":1091:1099  _options */\n      dup4\n      dup3\n      dup1\n      dup3\n        /* \"profile_sender.sol\":1066:1107  _quote(_dstEid, payload, _options, false) */\n      dup5\n      calldatacopy\n      0x00\n      swap3\n      add\n      dup3\n      swap1\n      mstore\n      pop\n      swap3\n      pop\n        /* \"profile_sender.sol\":1066:1072  _quote */\n      tag_108\n      swap2\n      pop\n      pop\n        /* \"profile_sender.sol\":1066:1107  _quote(_dstEid, payload, _options, false) */\n      jump\t// in\n    tag_107:\n        /* \"profile_sender.sol\":1138:1151  fee.nativeFee */\n      dup1\n      mload\n        /* \"profile_sender.sol\":1040:1107  MessagingFee memory fee = _quote(_dstEid, payload, _options, false) */\n      swap1\n      swap2\n      pop\n        /* \"profile_sender.sol\":1125:1134  msg.value */\n      callvalue\n        /* \"profile_sender.sol\":1125:1151  msg.value >= fee.nativeFee */\n      lt\n      iszero\n        /* \"profile_sender.sol\":1117:1172  require(msg.value >= fee.nativeFee, \"Insufficient fee\") */\n      tag_109\n      jumpi\n      mload(0x40)\n      shl(0xe5, 0x461bcd)\n      dup2\n      mstore\n        /* \"#utility.yul\":7186:7188   */\n      0x20\n        /* \"profile_sender.sol\":1117:1172  require(msg.value >= fee.nativeFee, \"Insufficient fee\") */\n      0x04\n      dup3\n      add\n        /* \"#utility.yul\":7168:7189   */\n      mstore\n        /* \"#utility.yul\":7225:7227   */\n      0x10\n        /* \"#utility.yul\":7205:7223   */\n      0x24\n      dup3\n      add\n        /* \"#utility.yul\":7198:7228   */\n      mstore\n      shl(0x80, 0x496e73756666696369656e7420666565)\n        /* \"#utility.yul\":7244:7262   */\n      0x44\n      dup3\n      add\n        /* \"#utility.yul\":7237:7283   */\n      mstore\n        /* \"#utility.yul\":7300:7318   */\n      0x64\n      add\n        /* \"profile_sender.sol\":1117:1172  require(msg.value >= fee.nativeFee, \"Insufficient fee\") */\n      tag_93\n        /* \"#utility.yul\":6984:7324   */\n      jump\n        /* \"profile_sender.sol\":1117:1172  require(msg.value >= fee.nativeFee, \"Insufficient fee\") */\n    tag_109:\n        /* \"profile_sender.sol\":1183:1337  _lzSend(... */\n      tag_112\n        /* \"profile_sender.sol\":1204:1211  _dstEid */\n      dup8\n        /* \"profile_sender.sol\":1225:1232  payload */\n      dup4\n        /* \"profile_sender.sol\":1246:1254  _options */\n      dup7\n      dup7\n        /* \"profile_sender.sol\":1183:1337  _lzSend(... */\n      dup1\n      dup1\n      0x1f\n      add\n      0x20\n      dup1\n      swap2\n      div\n      mul\n      0x20\n      add\n      mload(0x40)\n      swap1\n      dup2\n      add\n      0x40\n      mstore\n      dup1\n      swap4\n      swap3\n      swap2\n      swap1\n      dup2\n      dup2\n      mstore\n      0x20\n      add\n      dup4\n      dup4\n      dup1\n      dup3\n      dup5\n      calldatacopy\n      0x00\n      swap3\n      add\n      dup3\n      swap1\n      mstore\n      pop\n        /* \"profile_sender.sol\":1268:1294  MessagingFee(msg.value, 0) */\n      0x40\n      dup1\n      mload\n      dup1\n      dup3\n      add\n      swap1\n      swap2\n      mstore\n        /* \"profile_sender.sol\":1281:1290  msg.value */\n      callvalue\n        /* \"profile_sender.sol\":1268:1294  MessagingFee(msg.value, 0) */\n      dup2\n      mstore\n      0x20\n      dup2\n      add\n      swap2\n      swap1\n      swap2\n      mstore\n      swap3\n      pop\n        /* \"profile_sender.sol\":1316:1326  msg.sender */\n      caller\n      swap2\n      pop\n        /* \"profile_sender.sol\":1183:1190  _lzSend */\n      tag_113\n      swap1\n      pop\n        /* \"profile_sender.sol\":1183:1337  _lzSend(... */\n      jump\t// in\n    tag_112:\n      pop\n        /* \"profile_sender.sol\":1387:1397  msg.sender */\n      caller\n      sub(shl(0xa0, 0x01), 0x01)\n        /* \"profile_sender.sol\":1353:1409  ProfileCreationRequested(_dstEid, msg.sender, _username) */\n      and\n        /* \"profile_sender.sol\":1378:1385  _dstEid */\n      dup8\n        /* \"profile_sender.sol\":1353:1409  ProfileCreationRequested(_dstEid, msg.sender, _username) */\n      0xffffffff\n      and\n      0xe248e04963908a94d298fee201b5047f8a85f6e443c24ce21c12eaa7e27aa01a\n        /* \"profile_sender.sol\":1399:1408  _username */\n      dup9\n      dup9\n        /* \"profile_sender.sol\":1353:1409  ProfileCreationRequested(_dstEid, msg.sender, _username) */\n      mload(0x40)\n      tag_114\n      swap3\n      swap2\n      swap1\n      tag_115\n      jump\t// in\n    tag_114:\n      mload(0x40)\n      dup1\n      swap2\n      sub\n      swap1\n      log3\n        /* \"profile_sender.sol\":955:1416  {... */\n      pop\n      pop\n        /* \"profile_sender.sol\":817:1416  function createProfile(... */\n      pop\n      pop\n      pop\n      pop\n      pop\n      jump\t// out\n        /* \"@layerzerolabs/oapp-evm/contracts/oapp/OAppCore.sol\":1724:1832  function setPeer(uint32 _eid, bytes32 _peer) public virtual onlyOwner {... */\n    tag_36:\n        /* \"@openzeppelin/contracts/access/Ownable.sol\":1531:1544  _checkOwner() */\n      tag_117\n        /* \"@openzeppelin/contracts/access/Ownable.sol\":1531:1542  _checkOwner */\n      tag_118\n        /* \"@openzeppelin/contracts/access/Ownable.sol\":1531:1544  _checkOwner() */\n      jump\t// in\n    tag_117:\n        /* \"@layerzerolabs/oapp-evm/contracts/oapp/OAppCore.sol\":1804:1825  _setPeer(_eid, _peer) */\n      tag_120\n        /* \"@layerzerolabs/oapp-evm/contracts/oapp/OAppCore.sol\":1813:1817  _eid */\n      dup3\n        /* \"@layerzerolabs/oapp-evm/contracts/oapp/OAppCore.sol\":1819:1824  _peer */\n      dup3\n        /* \"@layerzerolabs/oapp-evm/contracts/oapp/OAppCore.sol\":1804:1812  _setPeer */\n      tag_121\n        /* \"@layerzerolabs/oapp-evm/contracts/oapp/OAppCore.sol\":1804:1825  _setPeer(_eid, _peer) */\n      jump\t// in\n    tag_120:\n        /* \"@layerzerolabs/oapp-evm/contracts/oapp/OAppCore.sol\":1724:1832  function setPeer(uint32 _eid, bytes32 _peer) public virtual onlyOwner {... */\n      pop\n      pop\n      jump\t// out\n        /* \"@openzeppelin/contracts/access/Ownable.sol\":2293:2394  function renounceOwnership() public virtual onlyOwner {... */\n    tag_44:\n        /* \"@openzeppelin/contracts/access/Ownable.sol\":1531:1544  _checkOwner() */\n      tag_123\n        /* \"@openzeppelin/contracts/access/Ownable.sol\":1531:1542  _checkOwner */\n      tag_118\n        /* \"@openzeppelin/contracts/access/Ownable.sol\":1531:1544  _checkOwner() */\n      jump\t// in\n    tag_123:\n        /* \"@openzeppelin/contracts/access/Ownable.sol\":2357:2387  _transferOwnership(address(0)) */\n      tag_125\n        /* \"@openzeppelin/contracts/access/Ownable.sol\":2384:2385  0 */\n      0x00\n        /* \"@openzeppelin/contracts/access/Ownable.sol\":2357:2375  _transferOwnership */\n      tag_126\n        /* \"@openzeppelin/contracts/access/Ownable.sol\":2357:2387  _transferOwnership(address(0)) */\n      jump\t// in\n    tag_125:\n        /* \"@openzeppelin/contracts/access/Ownable.sol\":2293:2394  function renounceOwnership() public virtual onlyOwner {... */\n      jump\t// out\n        /* \"@layerzerolabs/oapp-evm/contracts/oapp/OAppCore.sol\":3252:3357  function setDelegate(address _delegate) public onlyOwner {... */\n    tag_74:\n        /* \"@openzeppelin/contracts/access/Ownable.sol\":1531:1544  _checkOwner() */\n      tag_131\n        /* \"@openzeppelin/contracts/access/Ownable.sol\":1531:1542  _checkOwner */\n      tag_118\n        /* \"@openzeppelin/contracts/access/Ownable.sol\":1531:1544  _checkOwner() */\n      jump\t// in\n    tag_131:\n        /* \"@layerzerolabs/oapp-evm/contracts/oapp/OAppCore.sol\":3319:3350  endpoint.setDelegate(_delegate) */\n      mload(0x40)\n      shl(0xe0, 0xca5eb5e1)\n      dup2\n      mstore\n      sub(shl(0xa0, 0x01), 0x01)\n        /* \"#utility.yul\":3534:3589   */\n      dup3\n      dup2\n      and\n        /* \"@layerzerolabs/oapp-evm/contracts/oapp/OAppCore.sol\":3319:3350  endpoint.setDelegate(_delegate) */\n      0x04\n      dup4\n      add\n        /* \"#utility.yul\":3516:3590   */\n      mstore\n        /* \"@layerzerolabs/oapp-evm/contracts/oapp/OAppCore.sol\":3319:3327  endpoint */\n      immutable(\"0xef80077fd7ee005d1b0377e3e959eb59d0ca83c4839422f862a3540a66a91fb5\")\n        /* \"@layerzerolabs/oapp-evm/contracts/oapp/OAppCore.sol\":3319:3339  endpoint.setDelegate */\n      and\n      swap1\n      0xca5eb5e1\n      swap1\n        /* \"#utility.yul\":3489:3507   */\n      0x24\n      add\n        /* \"@layerzerolabs/oapp-evm/contracts/oapp/OAppCore.sol\":3319:3350  endpoint.setDelegate(_delegate) */\n      0x00\n      mload(0x40)\n      dup1\n      dup4\n      sub\n      dup2\n      0x00\n      dup8\n      dup1\n      extcodesize\n      iszero\n      dup1\n      iszero\n      tag_134\n      jumpi\n      0x00\n      dup1\n      revert\n    tag_134:\n      pop\n      gas\n      call\n      iszero\n      dup1\n      iszero\n      tag_136\n      jumpi\n      returndatasize\n      0x00\n      dup1\n      returndatacopy\n      revert(0x00, returndatasize)\n    tag_136:\n      pop\n      pop\n      pop\n      pop\n        /* \"@layerzerolabs/oapp-evm/contracts/oapp/OAppCore.sol\":3252:3357  function setDelegate(address _delegate) public onlyOwner {... */\n      pop\n      jump\t// out\n        /* \"profile_sender.sol\":1481:1769  function quote(... */\n    tag_78:\n      0x40\n      dup1\n      mload\n      dup1\n      dup3\n      add\n      swap1\n      swap2\n      mstore\n      0x00\n      dup1\n      dup3\n      mstore\n      0x20\n      dup3\n      add\n      mstore\n        /* \"profile_sender.sol\":1648:1668  bytes memory payload */\n      0x00\n        /* \"profile_sender.sol\":1682:1692  msg.sender */\n      caller\n        /* \"profile_sender.sol\":1694:1703  _username */\n      dup7\n      dup7\n        /* \"profile_sender.sol\":1671:1704  abi.encode(msg.sender, _username) */\n      add(0x20, mload(0x40))\n      tag_140\n      swap4\n      swap3\n      swap2\n      swap1\n      tag_106\n      jump\t// in\n    tag_140:\n      0x40\n      dup1\n      mload\n      not(0x1f)\n      dup2\n      dup5\n      sub\n      add\n      dup2\n      mstore\n      0x20\n        /* \"profile_sender.sol\":1721:1762  _quote(_dstEid, payload, _options, false) */\n      0x1f\n      dup8\n      add\n      dup2\n      swap1\n      div\n      dup2\n      mul\n      dup5\n      add\n      dup2\n      add\n      swap1\n      swap3\n      mstore\n      dup6\n      dup4\n      mstore\n        /* \"profile_sender.sol\":1671:1704  abi.encode(msg.sender, _username) */\n      swap3\n      pop\n        /* \"profile_sender.sol\":1721:1762  _quote(_dstEid, payload, _options, false) */\n      tag_141\n      swap2\n        /* \"profile_sender.sol\":1728:1735  _dstEid */\n      dup10\n      swap2\n        /* \"profile_sender.sol\":1671:1704  abi.encode(msg.sender, _username) */\n      dup5\n      swap2\n      swap1\n        /* \"profile_sender.sol\":1746:1754  _options */\n      dup9\n      swap1\n      dup9\n      swap1\n      dup2\n      swap1\n        /* \"profile_sender.sol\":1721:1762  _quote(_dstEid, payload, _options, false) */\n      dup5\n      add\n        /* \"profile_sender.sol\":1746:1754  _options */\n      dup4\n      dup3\n      dup1\n      dup3\n        /* \"profile_sender.sol\":1721:1762  _quote(_dstEid, payload, _options, false) */\n      dup5\n      calldatacopy\n      0x00\n      swap3\n      add\n      dup3\n      swap1\n      mstore\n      pop\n      swap3\n      pop\n        /* \"profile_sender.sol\":1721:1727  _quote */\n      tag_108\n      swap2\n      pop\n      pop\n        /* \"profile_sender.sol\":1721:1762  _quote(_dstEid, payload, _options, false) */\n      jump\t// in\n    tag_141:\n        /* \"profile_sender.sol\":1714:1762  return _quote(_dstEid, payload, _options, false) */\n      swap8\n        /* \"profile_sender.sol\":1481:1769  function quote(... */\n      swap7\n      pop\n      pop\n      pop\n      pop\n      pop\n      pop\n      pop\n      jump\t// out\n        /* \"@openzeppelin/contracts/access/Ownable.sol\":2543:2758  function transferOwnership(address newOwner) public virtual onlyOwner {... */\n    tag_84:\n        /* \"@openzeppelin/contracts/access/Ownable.sol\":1531:1544  _checkOwner() */\n      tag_143\n        /* \"@openzeppelin/contracts/access/Ownable.sol\":1531:1542  _checkOwner */\n      tag_118\n        /* \"@openzeppelin/contracts/access/Ownable.sol\":1531:1544  _checkOwner() */\n      jump\t// in\n    tag_143:\n      sub(shl(0xa0, 0x01), 0x01)\n        /* \"@openzeppelin/contracts/access/Ownable.sol\":2627:2649  newOwner == address(0) */\n      dup2\n      and\n        /* \"@openzeppelin/contracts/access/Ownable.sol\":2623:2714  if (newOwner == address(0)) {... */\n      tag_145\n      jumpi\n        /* \"@openzeppelin/contracts/access/Ownable.sol\":2672:2703  OwnableInvalidOwner(address(0)) */\n      mload(0x40)\n      shl(0xe0, 0x1e4fbdf7)\n      dup2\n      mstore\n        /* \"@openzeppelin/contracts/access/Ownable.sol\":2700:2701  0 */\n      0x00\n        /* \"@openzeppelin/contracts/access/Ownable.sol\":2672:2703  OwnableInvalidOwner(address(0)) */\n      0x04\n      dup3\n      add\n        /* \"#utility.yul\":3516:3590   */\n      mstore\n        /* \"#utility.yul\":3489:3507   */\n      0x24\n      add\n        /* \"@openzeppelin/contracts/access/Ownable.sol\":2672:2703  OwnableInvalidOwner(address(0)) */\n      tag_93\n        /* \"#utility.yul\":3342:3596   */\n      jump\n        /* \"@openzeppelin/contracts/access/Ownable.sol\":2623:2714  if (newOwner == address(0)) {... */\n    tag_145:\n        /* \"@openzeppelin/contracts/access/Ownable.sol\":2723:2751  _transferOwnership(newOwner) */\n      tag_147\n        /* \"@openzeppelin/contracts/access/Ownable.sol\":2742:2750  newOwner */\n      dup2\n        /* \"@openzeppelin/contracts/access/Ownable.sol\":2723:2741  _transferOwnership */\n      tag_126\n        /* \"@openzeppelin/contracts/access/Ownable.sol\":2723:2751  _transferOwnership(newOwner) */\n      jump\t// in\n    tag_147:\n        /* \"@openzeppelin/contracts/access/Ownable.sol\":2543:2758  function transferOwnership(address newOwner) public virtual onlyOwner {... */\n      pop\n      jump\t// out\n        /* \"@layerzerolabs/oapp-evm/contracts/oapp/OAppReceiver.sol\":2771:2920  function allowInitializePath(Origin calldata origin) public view virtual returns (bool) {... */\n    tag_89:\n        /* \"@layerzerolabs/oapp-evm/contracts/oapp/OAppReceiver.sol\":2853:2857  bool */\n      0x00\n        /* \"@layerzerolabs/oapp-evm/contracts/oapp/OAppReceiver.sol\":2900:2913  origin.sender */\n      0x20\n      dup3\n      add\n      dup1\n      calldataload\n      swap1\n        /* \"@layerzerolabs/oapp-evm/contracts/oapp/OAppReceiver.sol\":2876:2881  peers */\n      0x01\n      swap1\n        /* \"@layerzerolabs/oapp-evm/contracts/oapp/OAppReceiver.sol\":2853:2857  bool */\n      dup4\n      swap1\n        /* \"@layerzerolabs/oapp-evm/contracts/oapp/OAppReceiver.sol\":2882:2895  origin.srcEid */\n      tag_149\n      swap1\n        /* \"@layerzerolabs/oapp-evm/contracts/oapp/OAppReceiver.sol\":2900:2906  origin */\n      dup7\n        /* \"@layerzerolabs/oapp-evm/contracts/oapp/OAppReceiver.sol\":2882:2895  origin.srcEid */\n      tag_66\n      jump\t// in\n    tag_149:\n        /* \"@layerzerolabs/oapp-evm/contracts/oapp/OAppReceiver.sol\":2876:2896  peers[origin.srcEid] */\n      0xffffffff\n      and\n      dup2\n      mstore\n      0x20\n      dup2\n      add\n      swap2\n      swap1\n      swap2\n      mstore\n      0x40\n      add\n      0x00\n      keccak256\n      sload\n        /* \"@layerzerolabs/oapp-evm/contracts/oapp/OAppReceiver.sol\":2876:2913  peers[origin.srcEid] == origin.sender */\n      eq\n      swap3\n        /* \"@layerzerolabs/oapp-evm/contracts/oapp/OAppReceiver.sol\":2771:2920  function allowInitializePath(Origin calldata origin) public view virtual returns (bool) {... */\n      swap2\n      pop\n      pop\n      jump\t// out\n        /* \"@layerzerolabs/oapp-evm/contracts/oapp/OAppCore.sol\":2718:2914  function _getPeerOrRevert(uint32 _eid) internal view virtual returns (bytes32) {... */\n    tag_96:\n        /* \"@layerzerolabs/oapp-evm/contracts/oapp/OAppCore.sol\":2822:2833  peers[_eid] */\n      0xffffffff\n      dup2\n      and\n        /* \"@layerzerolabs/oapp-evm/contracts/oapp/OAppCore.sol\":2788:2795  bytes32 */\n      0x00\n        /* \"@layerzerolabs/oapp-evm/contracts/oapp/OAppCore.sol\":2822:2833  peers[_eid] */\n      swap1\n      dup2\n      mstore\n        /* \"@layerzerolabs/oapp-evm/contracts/oapp/OAppCore.sol\":2822:2827  peers */\n      0x01\n        /* \"@layerzerolabs/oapp-evm/contracts/oapp/OAppCore.sol\":2822:2833  peers[_eid] */\n      0x20\n      mstore\n      0x40\n      dup2\n      keccak256\n      sload\n      dup1\n        /* \"@layerzerolabs/oapp-evm/contracts/oapp/OAppCore.sol\":2843:2886  if (peer == bytes32(0)) revert NoPeer(_eid) */\n      tag_151\n      jumpi\n        /* \"@layerzerolabs/oapp-evm/contracts/oapp/OAppCore.sol\":2874:2886  NoPeer(_eid) */\n      mload(0x40)\n      shl(0xe0, 0xf6ff4fb7)\n      dup2\n      mstore\n        /* \"#utility.yul\":7755:7765   */\n      0xffffffff\n        /* \"#utility.yul\":7743:7766   */\n      dup5\n      and\n        /* \"@layerzerolabs/oapp-evm/contracts/oapp/OAppCore.sol\":2874:2886  NoPeer(_eid) */\n      0x04\n      dup3\n      add\n        /* \"#utility.yul\":7725:7767   */\n      mstore\n        /* \"#utility.yul\":7698:7716   */\n      0x24\n      add\n        /* \"@layerzerolabs/oapp-evm/contracts/oapp/OAppCore.sol\":2874:2886  NoPeer(_eid) */\n      tag_93\n        /* \"#utility.yul\":7581:7773   */\n      jump\n        /* \"@layerzerolabs/oapp-evm/contracts/oapp/OAppCore.sol\":2843:2886  if (peer == bytes32(0)) revert NoPeer(_eid) */\n    tag_151:\n        /* \"@layerzerolabs/oapp-evm/contracts/oapp/OAppCore.sol\":2903:2907  peer */\n      swap3\n        /* \"@layerzerolabs/oapp-evm/contracts/oapp/OAppCore.sol\":2718:2914  function _getPeerOrRevert(uint32 _eid) internal view virtual returns (bytes32) {... */\n      swap2\n      pop\n      pop\n      jump\t// out\n        /* \"@layerzerolabs/oapp-evm/contracts/oapp/OAppSender.sol\":2038:2429  function _quote(... */\n    tag_108:\n      0x40\n      dup1\n      mload\n      dup1\n      dup3\n      add\n      swap1\n      swap2\n      mstore\n      0x00\n      dup1\n      dup3\n      mstore\n      0x20\n      dup3\n      add\n      mstore\n        /* \"@layerzerolabs/oapp-evm/contracts/oapp/OAppSender.sol\":2259:2267  endpoint */\n      immutable(\"0xef80077fd7ee005d1b0377e3e959eb59d0ca83c4839422f862a3540a66a91fb5\")\n      sub(shl(0xa0, 0x01), 0x01)\n        /* \"@layerzerolabs/oapp-evm/contracts/oapp/OAppSender.sol\":2259:2273  endpoint.quote */\n      and\n      0xddc28c58\n        /* \"@layerzerolabs/oapp-evm/contracts/oapp/OAppSender.sol\":2291:2377  MessagingParams(_dstEid, _getPeerOrRevert(_dstEid), _message, _options, _payInLzToken) */\n      mload(0x40)\n      dup1\n      0xa0\n      add\n      0x40\n      mstore\n      dup1\n        /* \"@layerzerolabs/oapp-evm/contracts/oapp/OAppSender.sol\":2307:2314  _dstEid */\n      dup9\n        /* \"@layerzerolabs/oapp-evm/contracts/oapp/OAppSender.sol\":2291:2377  MessagingParams(_dstEid, _getPeerOrRevert(_dstEid), _message, _options, _payInLzToken) */\n      0xffffffff\n      and\n      dup2\n      mstore\n      0x20\n      add\n        /* \"@layerzerolabs/oapp-evm/contracts/oapp/OAppSender.sol\":2316:2341  _getPeerOrRevert(_dstEid) */\n      tag_157\n        /* \"@layerzerolabs/oapp-evm/contracts/oapp/OAppSender.sol\":2333:2340  _dstEid */\n      dup10\n        /* \"@layerzerolabs/oapp-evm/contracts/oapp/OAppSender.sol\":2316:2332  _getPeerOrRevert */\n      tag_96\n        /* \"@layerzerolabs/oapp-evm/contracts/oapp/OAppSender.sol\":2316:2341  _getPeerOrRevert(_dstEid) */\n      jump\t// in\n    tag_157:\n        /* \"@layerzerolabs/oapp-evm/contracts/oapp/OAppSender.sol\":2291:2377  MessagingParams(_dstEid, _getPeerOrRevert(_dstEid), _message, _options, _payInLzToken) */\n      dup2\n      mstore\n      0x20\n      add\n        /* \"@layerzerolabs/oapp-evm/contracts/oapp/OAppSender.sol\":2343:2351  _message */\n      dup8\n        /* \"@layerzerolabs/oapp-evm/contracts/oapp/OAppSender.sol\":2291:2377  MessagingParams(_dstEid, _getPeerOrRevert(_dstEid), _message, _options, _payInLzToken) */\n      dup2\n      mstore\n      0x20\n      add\n        /* \"@layerzerolabs/oapp-evm/contracts/oapp/OAppSender.sol\":2353:2361  _options */\n      dup7\n        /* \"@layerzerolabs/oapp-evm/contracts/oapp/OAppSender.sol\":2291:2377  MessagingParams(_dstEid, _getPeerOrRevert(_dstEid), _message, _options, _payInLzToken) */\n      dup2\n      mstore\n      0x20\n      add\n        /* \"@layerzerolabs/oapp-evm/contracts/oapp/OAppSender.sol\":2363:2376  _payInLzToken */\n      dup6\n        /* \"@layerzerolabs/oapp-evm/contracts/oapp/OAppSender.sol\":2291:2377  MessagingParams(_dstEid, _getPeerOrRevert(_dstEid), _message, _options, _payInLzToken) */\n      iszero\n      iszero\n      dup2\n      mstore\n      pop\n        /* \"@layerzerolabs/oapp-evm/contracts/oapp/OAppSender.sol\":2403:2407  this */\n      address\n        /* \"@layerzerolabs/oapp-evm/contracts/oapp/OAppSender.sol\":2259:2422  endpoint.quote(... */\n      mload(0x40)\n      dup4\n      0xffffffff\n      and\n      0xe0\n      shl\n      dup2\n      mstore\n      0x04\n      add\n      tag_158\n      swap3\n      swap2\n      swap1\n      tag_159\n      jump\t// in\n    tag_158:\n      0x40\n      dup1\n      mload\n      dup1\n      dup4\n      sub\n      dup2\n      dup7\n      gas\n      staticcall\n      iszero\n      dup1\n      iszero\n      tag_161\n      jumpi\n      returndatasize\n      0x00\n      dup1\n      returndatacopy\n      revert(0x00, returndatasize)\n    tag_161:\n      pop\n      pop\n      pop\n      pop\n      mload(0x40)\n      returndatasize\n      not(0x1f)\n      0x1f\n      dup3\n      add\n      and\n      dup3\n      add\n      dup1\n      0x40\n      mstore\n      pop\n      dup2\n      add\n      swap1\n      tag_162\n      swap2\n      swap1\n      tag_163\n      jump\t// in\n    tag_162:\n        /* \"@layerzerolabs/oapp-evm/contracts/oapp/OAppSender.sol\":2240:2422  return... */\n      swap6\n        /* \"@layerzerolabs/oapp-evm/contracts/oapp/OAppSender.sol\":2038:2429  function _quote(... */\n      swap5\n      pop\n      pop\n      pop\n      pop\n      pop\n      jump\t// out\n        /* \"@layerzerolabs/oapp-evm/contracts/oapp/OAppSender.sol\":3188:3954  function _lzSend(... */\n    tag_113:\n        /* \"@layerzerolabs/oapp-evm/contracts/oapp/OAppSender.sol\":3389:3420  MessagingReceipt memory receipt */\n      tag_164\n      tag_165\n      jump\t// in\n    tag_164:\n        /* \"@layerzerolabs/oapp-evm/contracts/oapp/OAppSender.sol\":3554:3574  uint256 messageValue */\n      0x00\n        /* \"@layerzerolabs/oapp-evm/contracts/oapp/OAppSender.sol\":3577:3603  _payNative(_fee.nativeFee) */\n      tag_167\n        /* \"@layerzerolabs/oapp-evm/contracts/oapp/OAppSender.sol\":3588:3592  _fee */\n      dup5\n        /* \"@layerzerolabs/oapp-evm/contracts/oapp/OAppSender.sol\":3588:3602  _fee.nativeFee */\n      0x00\n      add\n      mload\n        /* \"@layerzerolabs/oapp-evm/contracts/oapp/OAppSender.sol\":3577:3587  _payNative */\n      tag_168\n        /* \"@layerzerolabs/oapp-evm/contracts/oapp/OAppSender.sol\":3577:3603  _payNative(_fee.nativeFee) */\n      jump\t// in\n    tag_167:\n        /* \"@layerzerolabs/oapp-evm/contracts/oapp/OAppSender.sol\":3617:3632  _fee.lzTokenFee */\n      0x20\n      dup6\n      add\n      mload\n        /* \"@layerzerolabs/oapp-evm/contracts/oapp/OAppSender.sol\":3554:3603  uint256 messageValue = _payNative(_fee.nativeFee) */\n      swap1\n      swap2\n      pop\n        /* \"@layerzerolabs/oapp-evm/contracts/oapp/OAppSender.sol\":3617:3636  _fee.lzTokenFee > 0 */\n      iszero\n        /* \"@layerzerolabs/oapp-evm/contracts/oapp/OAppSender.sol\":3613:3666  if (_fee.lzTokenFee > 0) _payLzToken(_fee.lzTokenFee) */\n      tag_170\n      jumpi\n        /* \"@layerzerolabs/oapp-evm/contracts/oapp/OAppSender.sol\":3638:3666  _payLzToken(_fee.lzTokenFee) */\n      tag_170\n        /* \"@layerzerolabs/oapp-evm/contracts/oapp/OAppSender.sol\":3650:3654  _fee */\n      dup5\n        /* \"@layerzerolabs/oapp-evm/contracts/oapp/OAppSender.sol\":3650:3665  _fee.lzTokenFee */\n      0x20\n      add\n      mload\n        /* \"@layerzerolabs/oapp-evm/contracts/oapp/OAppSender.sol\":3638:3649  _payLzToken */\n      tag_171\n        /* \"@layerzerolabs/oapp-evm/contracts/oapp/OAppSender.sol\":3638:3666  _payLzToken(_fee.lzTokenFee) */\n      jump\t// in\n    tag_170:\n        /* \"@layerzerolabs/oapp-evm/contracts/oapp/OAppSender.sol\":3755:3763  endpoint */\n      immutable(\"0xef80077fd7ee005d1b0377e3e959eb59d0ca83c4839422f862a3540a66a91fb5\")\n      sub(shl(0xa0, 0x01), 0x01)\n        /* \"@layerzerolabs/oapp-evm/contracts/oapp/OAppSender.sol\":3755:3768  endpoint.send */\n      and\n      0x2637a450\n        /* \"@layerzerolabs/oapp-evm/contracts/oapp/OAppSender.sol\":3777:3789  messageValue */\n      dup3\n        /* \"@layerzerolabs/oapp-evm/contracts/oapp/OAppSender.sol\":3809:3901  MessagingParams(_dstEid, _getPeerOrRevert(_dstEid), _message, _options, _fee.lzTokenFee > 0) */\n      mload(0x40)\n      dup1\n      0xa0\n      add\n      0x40\n      mstore\n      dup1\n        /* \"@layerzerolabs/oapp-evm/contracts/oapp/OAppSender.sol\":3825:3832  _dstEid */\n      dup12\n        /* \"@layerzerolabs/oapp-evm/contracts/oapp/OAppSender.sol\":3809:3901  MessagingParams(_dstEid, _getPeerOrRevert(_dstEid), _message, _options, _fee.lzTokenFee > 0) */\n      0xffffffff\n      and\n      dup2\n      mstore\n      0x20\n      add\n        /* \"@layerzerolabs/oapp-evm/contracts/oapp/OAppSender.sol\":3834:3859  _getPeerOrRevert(_dstEid) */\n      tag_172\n        /* \"@layerzerolabs/oapp-evm/contracts/oapp/OAppSender.sol\":3851:3858  _dstEid */\n      dup13\n        /* \"@layerzerolabs/oapp-evm/contracts/oapp/OAppSender.sol\":3834:3850  _getPeerOrRevert */\n      tag_96\n        /* \"@layerzerolabs/oapp-evm/contracts/oapp/OAppSender.sol\":3834:3859  _getPeerOrRevert(_dstEid) */\n      jump\t// in\n    tag_172:\n        /* \"@layerzerolabs/oapp-evm/contracts/oapp/OAppSender.sol\":3809:3901  MessagingParams(_dstEid, _getPeerOrRevert(_dstEid), _message, _options, _fee.lzTokenFee > 0) */\n      dup2\n      mstore\n      0x20\n      add\n        /* \"@layerzerolabs/oapp-evm/contracts/oapp/OAppSender.sol\":3861:3869  _message */\n      dup11\n        /* \"@layerzerolabs/oapp-evm/contracts/oapp/OAppSender.sol\":3809:3901  MessagingParams(_dstEid, _getPeerOrRevert(_dstEid), _message, _options, _fee.lzTokenFee > 0) */\n      dup2\n      mstore\n      0x20\n      add\n        /* \"@layerzerolabs/oapp-evm/contracts/oapp/OAppSender.sol\":3871:3879  _options */\n      dup10\n        /* \"@layerzerolabs/oapp-evm/contracts/oapp/OAppSender.sol\":3809:3901  MessagingParams(_dstEid, _getPeerOrRevert(_dstEid), _message, _options, _fee.lzTokenFee > 0) */\n      dup2\n      mstore\n      0x20\n      add\n        /* \"@layerzerolabs/oapp-evm/contracts/oapp/OAppSender.sol\":3899:3900  0 */\n      0x00\n        /* \"@layerzerolabs/oapp-evm/contracts/oapp/OAppSender.sol\":3881:3885  _fee */\n      dup10\n        /* \"@layerzerolabs/oapp-evm/contracts/oapp/OAppSender.sol\":3881:3896  _fee.lzTokenFee */\n      0x20\n      add\n      mload\n        /* \"@layerzerolabs/oapp-evm/contracts/oapp/OAppSender.sol\":3881:3900  _fee.lzTokenFee > 0 */\n      gt\n        /* \"@layerzerolabs/oapp-evm/contracts/oapp/OAppSender.sol\":3809:3901  MessagingParams(_dstEid, _getPeerOrRevert(_dstEid), _message, _options, _fee.lzTokenFee > 0) */\n      iszero\n      iszero\n      dup2\n      mstore\n      pop\n        /* \"@layerzerolabs/oapp-evm/contracts/oapp/OAppSender.sol\":3919:3933  _refundAddress */\n      dup7\n        /* \"@layerzerolabs/oapp-evm/contracts/oapp/OAppSender.sol\":3755:3947  endpoint.send{ value: messageValue }(... */\n      mload(0x40)\n      dup5\n      0xffffffff\n      and\n      0xe0\n      shl\n      dup2\n      mstore\n      0x04\n      add\n      tag_173\n      swap3\n      swap2\n      swap1\n      tag_159\n      jump\t// in\n    tag_173:\n      0x80\n      mload(0x40)\n      dup1\n      dup4\n      sub\n      dup2\n      dup6\n      dup9\n      gas\n      call\n      iszero\n      dup1\n      iszero\n      tag_175\n      jumpi\n      returndatasize\n      0x00\n      dup1\n      returndatacopy\n      revert(0x00, returndatasize)\n    tag_175:\n      pop\n      pop\n      pop\n      pop\n      pop\n      mload(0x40)\n      returndatasize\n      not(0x1f)\n      0x1f\n      dup3\n      add\n      and\n      dup3\n      add\n      dup1\n      0x40\n      mstore\n      pop\n      dup2\n      add\n      swap1\n      tag_141\n      swap2\n      swap1\n      tag_177\n      jump\t// in\n        /* \"@openzeppelin/contracts/access/Ownable.sol\":1796:1958  function _checkOwner() internal view virtual {... */\n    tag_118:\n        /* \"@openzeppelin/contracts/access/Ownable.sol\":1684:1691  address */\n      0x00\n        /* \"@openzeppelin/contracts/access/Ownable.sol\":1710:1716  _owner */\n      sload\n      sub(shl(0xa0, 0x01), 0x01)\n      and\n        /* \"@openzeppelin/contracts/utils/Context.sol\":735:745  msg.sender */\n      caller\n        /* \"@openzeppelin/contracts/access/Ownable.sol\":1855:1878  owner() != _msgSender() */\n      eq\n        /* \"@openzeppelin/contracts/access/Ownable.sol\":1851:1952  if (owner() != _msgSender()) {... */\n      tag_125\n      jumpi\n        /* \"@openzeppelin/contracts/access/Ownable.sol\":1901:1941  OwnableUnauthorizedAccount(_msgSender()) */\n      mload(0x40)\n      shl(0xe0, 0x118cdaa7)\n      dup2\n      mstore\n        /* \"@openzeppelin/contracts/utils/Context.sol\":735:745  msg.sender */\n      caller\n        /* \"@openzeppelin/contracts/access/Ownable.sol\":1901:1941  OwnableUnauthorizedAccount(_msgSender()) */\n      0x04\n      dup3\n      add\n        /* \"#utility.yul\":3516:3590   */\n      mstore\n        /* \"#utility.yul\":3489:3507   */\n      0x24\n      add\n        /* \"@openzeppelin/contracts/access/Ownable.sol\":1901:1941  OwnableUnauthorizedAccount(_msgSender()) */\n      tag_93\n        /* \"#utility.yul\":3342:3596   */\n      jump\n        /* \"@layerzerolabs/oapp-evm/contracts/oapp/OAppCore.sol\":2286:2420  function _setPeer(uint32 _eid, bytes32 _peer) internal virtual {... */\n    tag_121:\n        /* \"@layerzerolabs/oapp-evm/contracts/oapp/OAppCore.sol\":2359:2370  peers[_eid] */\n      0xffffffff\n      dup3\n      and\n      0x00\n      dup2\n      dup2\n      mstore\n        /* \"@layerzerolabs/oapp-evm/contracts/oapp/OAppCore.sol\":2359:2364  peers */\n      0x01\n        /* \"@layerzerolabs/oapp-evm/contracts/oapp/OAppCore.sol\":2359:2370  peers[_eid] */\n      0x20\n      swap1\n      dup2\n      mstore\n      0x40\n      swap2\n      dup3\n      swap1\n      keccak256\n        /* \"@layerzerolabs/oapp-evm/contracts/oapp/OAppCore.sol\":2359:2378  peers[_eid] = _peer */\n      dup5\n      swap1\n      sstore\n        /* \"@layerzerolabs/oapp-evm/contracts/oapp/OAppCore.sol\":2393:2413  PeerSet(_eid, _peer) */\n      dup2\n      mload\n        /* \"#utility.yul\":6244:6286   */\n      swap3\n      dup4\n      mstore\n        /* \"#utility.yul\":6302:6320   */\n      dup3\n      add\n        /* \"#utility.yul\":6295:6329   */\n      dup4\n      swap1\n      mstore\n        /* \"@layerzerolabs/oapp-evm/contracts/oapp/OAppCore.sol\":2393:2413  PeerSet(_eid, _peer) */\n      0x238399d427b947898edb290f5ff0f9109849b1c3ba196a42e35f00c50a54b98b\n      swap2\n        /* \"#utility.yul\":6217:6235   */\n      add\n        /* \"@layerzerolabs/oapp-evm/contracts/oapp/OAppCore.sol\":2393:2413  PeerSet(_eid, _peer) */\n      mload(0x40)\n      dup1\n      swap2\n      sub\n      swap1\n      log1\n        /* \"@layerzerolabs/oapp-evm/contracts/oapp/OAppCore.sol\":2286:2420  function _setPeer(uint32 _eid, bytes32 _peer) internal virtual {... */\n      pop\n      pop\n      jump\t// out\n        /* \"@openzeppelin/contracts/access/Ownable.sol\":2912:3099  function _transferOwnership(address newOwner) internal virtual {... */\n    tag_126:\n        /* \"@openzeppelin/contracts/access/Ownable.sol\":2985:3001  address oldOwner */\n      0x00\n        /* \"@openzeppelin/contracts/access/Ownable.sol\":3004:3010  _owner */\n      dup1\n      sload\n      sub(shl(0xa0, 0x01), 0x01)\n        /* \"@openzeppelin/contracts/access/Ownable.sol\":3020:3037  _owner = newOwner */\n      dup4\n      dup2\n      and\n      not(0xffffffffffffffffffffffffffffffffffffffff)\n      dup4\n      and\n      dup2\n      or\n      dup5\n      sstore\n        /* \"@openzeppelin/contracts/access/Ownable.sol\":3052:3092  OwnershipTransferred(oldOwner, newOwner) */\n      mload(0x40)\n        /* \"@openzeppelin/contracts/access/Ownable.sol\":3004:3010  _owner */\n      swap2\n      swap1\n      swap3\n      and\n      swap3\n      dup4\n      swap2\n        /* \"@openzeppelin/contracts/access/Ownable.sol\":3052:3092  OwnershipTransferred(oldOwner, newOwner) */\n      0x8be0079c531659141344cd1fd0a4f28419497f9722a3daafe3b4186f6b6457e0\n      swap2\n        /* \"@openzeppelin/contracts/access/Ownable.sol\":2985:3001  address oldOwner */\n      swap1\n        /* \"@openzeppelin/contracts/access/Ownable.sol\":3052:3092  OwnershipTransferred(oldOwner, newOwner) */\n      log3\n        /* \"@openzeppelin/contracts/access/Ownable.sol\":2975:3099  {... */\n      pop\n        /* \"@openzeppelin/contracts/access/Ownable.sol\":2912:3099  function _transferOwnership(address newOwner) internal virtual {... */\n      pop\n      jump\t// out\n        /* \"@layerzerolabs/oapp-evm/contracts/oapp/OAppSender.sol\":4650:4841  function _payNative(uint256 _nativeFee) internal virtual returns (uint256 nativeFee) {... */\n    tag_168:\n        /* \"@layerzerolabs/oapp-evm/contracts/oapp/OAppSender.sol\":4716:4733  uint256 nativeFee */\n      0x00\n        /* \"@layerzerolabs/oapp-evm/contracts/oapp/OAppSender.sol\":4762:4772  _nativeFee */\n      dup2\n        /* \"@layerzerolabs/oapp-evm/contracts/oapp/OAppSender.sol\":4749:4758  msg.value */\n      callvalue\n        /* \"@layerzerolabs/oapp-evm/contracts/oapp/OAppSender.sol\":4749:4772  msg.value != _nativeFee */\n      eq\n        /* \"@layerzerolabs/oapp-evm/contracts/oapp/OAppSender.sol\":4745:4807  if (msg.value != _nativeFee) revert NotEnoughNative(msg.value) */\n      tag_189\n      jumpi\n        /* \"@layerzerolabs/oapp-evm/contracts/oapp/OAppSender.sol\":4781:4807  NotEnoughNative(msg.value) */\n      mload(0x40)\n      shl(0xe5, 0x04fb8209)\n      dup2\n      mstore\n        /* \"@layerzerolabs/oapp-evm/contracts/oapp/OAppSender.sol\":4797:4806  msg.value */\n      callvalue\n        /* \"@layerzerolabs/oapp-evm/contracts/oapp/OAppSender.sol\":4781:4807  NotEnoughNative(msg.value) */\n      0x04\n      dup3\n      add\n        /* \"#utility.yul\":5237:5262   */\n      mstore\n        /* \"#utility.yul\":5210:5228   */\n      0x24\n      add\n        /* \"@layerzerolabs/oapp-evm/contracts/oapp/OAppSender.sol\":4781:4807  NotEnoughNative(msg.value) */\n      tag_93\n        /* \"#utility.yul\":5091:5268   */\n      jump\n        /* \"@layerzerolabs/oapp-evm/contracts/oapp/OAppSender.sol\":4745:4807  if (msg.value != _nativeFee) revert NotEnoughNative(msg.value) */\n    tag_189:\n      pop\n        /* \"@layerzerolabs/oapp-evm/contracts/oapp/OAppSender.sol\":4824:4834  _nativeFee */\n      swap1\n        /* \"@layerzerolabs/oapp-evm/contracts/oapp/OAppSender.sol\":4650:4841  function _payNative(uint256 _nativeFee) internal virtual returns (uint256 nativeFee) {... */\n      jump\t// out\n        /* \"@layerzerolabs/oapp-evm/contracts/oapp/OAppSender.sol\":5218:5628  function _payLzToken(uint256 _lzTokenFee) internal virtual {... */\n    tag_171:\n        /* \"@layerzerolabs/oapp-evm/contracts/oapp/OAppSender.sol\":5371:5386  address lzToken */\n      0x00\n        /* \"@layerzerolabs/oapp-evm/contracts/oapp/OAppSender.sol\":5389:5397  endpoint */\n      immutable(\"0xef80077fd7ee005d1b0377e3e959eb59d0ca83c4839422f862a3540a66a91fb5\")\n      sub(shl(0xa0, 0x01), 0x01)\n        /* \"@layerzerolabs/oapp-evm/contracts/oapp/OAppSender.sol\":5389:5405  endpoint.lzToken */\n      and\n      0xe4fe1d94\n        /* \"@layerzerolabs/oapp-evm/contracts/oapp/OAppSender.sol\":5389:5407  endpoint.lzToken() */\n      mload(0x40)\n      dup2\n      0xffffffff\n      and\n      0xe0\n      shl\n      dup2\n      mstore\n      0x04\n      add\n      0x20\n      mload(0x40)\n      dup1\n      dup4\n      sub\n      dup2\n      dup7\n      gas\n      staticcall\n      iszero\n      dup1\n      iszero\n      tag_194\n      jumpi\n      returndatasize\n      0x00\n      dup1\n      returndatacopy\n      revert(0x00, returndatasize)\n    tag_194:\n      pop\n      pop\n      pop\n      pop\n      mload(0x40)\n      returndatasize\n      not(0x1f)\n      0x1f\n      dup3\n      add\n      and\n      dup3\n      add\n      dup1\n      0x40\n      mstore\n      pop\n      dup2\n      add\n      swap1\n      tag_195\n      swap2\n      swap1\n      tag_196\n      jump\t// in\n    tag_195:\n        /* \"@layerzerolabs/oapp-evm/contracts/oapp/OAppSender.sol\":5371:5407  address lzToken = endpoint.lzToken() */\n      swap1\n      pop\n      sub(shl(0xa0, 0x01), 0x01)\n        /* \"@layerzerolabs/oapp-evm/contracts/oapp/OAppSender.sol\":5421:5442  lzToken == address(0) */\n      dup2\n      and\n        /* \"@layerzerolabs/oapp-evm/contracts/oapp/OAppSender.sol\":5417:5471  if (lzToken == address(0)) revert LzTokenUnavailable() */\n      tag_197\n      jumpi\n        /* \"@layerzerolabs/oapp-evm/contracts/oapp/OAppSender.sol\":5451:5471  LzTokenUnavailable() */\n      mload(0x40)\n      shl(0xe1, 0x29b99a95)\n      dup2\n      mstore\n      0x04\n      add\n      mload(0x40)\n      dup1\n      swap2\n      sub\n      swap1\n      revert\n        /* \"@layerzerolabs/oapp-evm/contracts/oapp/OAppSender.sol\":5417:5471  if (lzToken == address(0)) revert LzTokenUnavailable() */\n    tag_197:\n        /* \"@openzeppelin/contracts/token/ERC20/utils/SafeERC20.sol\":1745:1798  abi.encodeCall(token.transferFrom, (from, to, value)) */\n      0x40\n      dup1\n      mload\n        /* \"@layerzerolabs/oapp-evm/contracts/oapp/OAppSender.sol\":5578:5588  msg.sender */\n      caller\n        /* \"@openzeppelin/contracts/token/ERC20/utils/SafeERC20.sol\":1745:1798  abi.encodeCall(token.transferFrom, (from, to, value)) */\n      0x24\n      dup3\n      add\n        /* \"#utility.yul\":11585:11659   */\n      dup2\n      swap1\n      mstore\n        /* \"@layerzerolabs/oapp-evm/contracts/oapp/OAppSender.sol\":5598:5606  endpoint */\n      immutable(\"0xef80077fd7ee005d1b0377e3e959eb59d0ca83c4839422f862a3540a66a91fb5\")\n      sub(shl(0xa0, 0x01), 0x01)\n        /* \"#utility.yul\":11695:11750   */\n      dup2\n      dup2\n      and\n        /* \"#utility.yul\":11675:11693   */\n      0x44\n      dup6\n      add\n        /* \"#utility.yul\":11668:11751   */\n      mstore\n        /* \"#utility.yul\":11767:11785   */\n      0x64\n      dup1\n      dup6\n      add\n        /* \"#utility.yul\":11760:11794   */\n      dup9\n      swap1\n      mstore\n        /* \"@openzeppelin/contracts/token/ERC20/utils/SafeERC20.sol\":1745:1798  abi.encodeCall(token.transferFrom, (from, to, value)) */\n      dup6\n      mload\n      dup1\n      dup7\n      sub\n      swap1\n      swap2\n      add\n      dup2\n      mstore\n        /* \"#utility.yul\":11558:11576   */\n      0x84\n      swap1\n      swap5\n      add\n        /* \"@openzeppelin/contracts/token/ERC20/utils/SafeERC20.sol\":1745:1798  abi.encodeCall(token.transferFrom, (from, to, value)) */\n      swap1\n      swap5\n      mstore\n      0x20\n      dup4\n      add\n      dup1\n      mload\n      sub(shl(0xe0, 0x01), 0x01)\n      and\n      shl(0xe0, 0x23b872dd)\n      or\n      swap1\n      mstore\n        /* \"@layerzerolabs/oapp-evm/contracts/oapp/OAppSender.sol\":5545:5621  IERC20(lzToken).safeTransferFrom(msg.sender, address(endpoint), _lzTokenFee) */\n      tag_120\n      swap4\n        /* \"@layerzerolabs/oapp-evm/contracts/oapp/OAppSender.sol\":5545:5577  IERC20(lzToken).safeTransferFrom */\n      dup6\n      and\n      swap3\n        /* \"@layerzerolabs/oapp-evm/contracts/oapp/OAppSender.sol\":5609:5620  _lzTokenFee */\n      dup7\n      swap1\n        /* \"@openzeppelin/contracts/token/ERC20/utils/SafeERC20.sol\":1718:1799  _callOptionalReturn(token, abi.encodeCall(token.transferFrom, (from, to, value))) */\n      tag_202\n      swap1\n        /* \"@layerzerolabs/oapp-evm/contracts/oapp/OAppSender.sol\":5545:5577  IERC20(lzToken).safeTransferFrom */\n      dup6\n      swap1\n        /* \"@openzeppelin/contracts/token/ERC20/utils/SafeERC20.sol\":1718:1737  _callOptionalReturn */\n      tag_205\n        /* \"@openzeppelin/contracts/token/ERC20/utils/SafeERC20.sol\":1718:1799  _callOptionalReturn(token, abi.encodeCall(token.transferFrom, (from, to, value))) */\n      jump\t// in\n    tag_202:\n        /* \"@openzeppelin/contracts/token/ERC20/utils/SafeERC20.sol\":1618:1806  function safeTransferFrom(IERC20 token, address from, address to, uint256 value) internal {... */\n      pop\n      pop\n      pop\n      pop\n      jump\t// out\n        /* \"@openzeppelin/contracts/token/ERC20/utils/SafeERC20.sol\":8370:9090  function _callOptionalReturn(IERC20 token, bytes memory data) private {... */\n    tag_205:\n        /* \"@openzeppelin/contracts/token/ERC20/utils/SafeERC20.sol\":8450:8468  uint256 returnSize */\n      0x00\n        /* \"@openzeppelin/contracts/token/ERC20/utils/SafeERC20.sol\":8478:8497  uint256 returnValue */\n      dup1\n        /* \"@openzeppelin/contracts/token/ERC20/utils/SafeERC20.sol\":8616:8620  0x20 */\n      0x20\n        /* \"@openzeppelin/contracts/token/ERC20/utils/SafeERC20.sol\":8613:8614  0 */\n      0x00\n        /* \"@openzeppelin/contracts/token/ERC20/utils/SafeERC20.sol\":8606:8610  data */\n      dup5\n        /* \"@openzeppelin/contracts/token/ERC20/utils/SafeERC20.sol\":8600:8611  mload(data) */\n      mload\n        /* \"@openzeppelin/contracts/token/ERC20/utils/SafeERC20.sol\":8593:8597  0x20 */\n      0x20\n        /* \"@openzeppelin/contracts/token/ERC20/utils/SafeERC20.sol\":8587:8591  data */\n      dup7\n        /* \"@openzeppelin/contracts/token/ERC20/utils/SafeERC20.sol\":8583:8598  add(data, 0x20) */\n      add\n        /* \"@openzeppelin/contracts/token/ERC20/utils/SafeERC20.sol\":8580:8581  0 */\n      0x00\n        /* \"@openzeppelin/contracts/token/ERC20/utils/SafeERC20.sol\":8573:8578  token */\n      dup9\n        /* \"@openzeppelin/contracts/token/ERC20/utils/SafeERC20.sol\":8566:8571  gas() */\n      gas\n        /* \"@openzeppelin/contracts/token/ERC20/utils/SafeERC20.sol\":8561:8621  call(gas(), token, 0, add(data, 0x20), mload(data), 0, 0x20) */\n      call\n        /* \"@openzeppelin/contracts/token/ERC20/utils/SafeERC20.sol\":8673:8680  success */\n      dup1\n        /* \"@openzeppelin/contracts/token/ERC20/utils/SafeERC20.sol\":8663:8839  if iszero(success) {... */\n      tag_207\n      jumpi\n        /* \"@openzeppelin/contracts/token/ERC20/utils/SafeERC20.sol\":8717:8721  0x40 */\n      0x40\n        /* \"@openzeppelin/contracts/token/ERC20/utils/SafeERC20.sol\":8711:8722  mload(0x40) */\n      mload\n        /* \"@openzeppelin/contracts/token/ERC20/utils/SafeERC20.sol\":8762:8778  returndatasize() */\n      returndatasize\n        /* \"@openzeppelin/contracts/token/ERC20/utils/SafeERC20.sol\":8759:8760  0 */\n      0x00\n        /* \"@openzeppelin/contracts/token/ERC20/utils/SafeERC20.sol\":8754:8757  ptr */\n      dup3\n        /* \"@openzeppelin/contracts/token/ERC20/utils/SafeERC20.sol\":8739:8779  returndatacopy(ptr, 0, returndatasize()) */\n      returndatacopy\n        /* \"@openzeppelin/contracts/token/ERC20/utils/SafeERC20.sol\":8808:8824  returndatasize() */\n      returndatasize\n        /* \"@openzeppelin/contracts/token/ERC20/utils/SafeERC20.sol\":8803:8806  ptr */\n      dup2\n        /* \"@openzeppelin/contracts/token/ERC20/utils/SafeERC20.sol\":8796:8825  revert(ptr, returndatasize()) */\n      revert\n        /* \"@openzeppelin/contracts/token/ERC20/utils/SafeERC20.sol\":8663:8839  if iszero(success) {... */\n    tag_207:\n      pop\n      pop\n        /* \"@openzeppelin/contracts/token/ERC20/utils/SafeERC20.sol\":8916:8917  0 */\n      0x00\n        /* \"@openzeppelin/contracts/token/ERC20/utils/SafeERC20.sol\":8910:8918  mload(0) */\n      mload\n        /* \"@openzeppelin/contracts/token/ERC20/utils/SafeERC20.sol\":8866:8882  returndatasize() */\n      returndatasize\n      swap2\n      pop\n        /* \"@openzeppelin/contracts/token/ERC20/utils/SafeERC20.sol\":8942:8957  returnSize == 0 */\n      dup2\n      iszero\n        /* \"@openzeppelin/contracts/token/ERC20/utils/SafeERC20.sol\":8942:9010  returnSize == 0 ? address(token).code.length == 0 : returnValue != 1 */\n      tag_208\n      jumpi\n        /* \"@openzeppelin/contracts/token/ERC20/utils/SafeERC20.sol\":8994:9005  returnValue */\n      dup1\n        /* \"@openzeppelin/contracts/token/ERC20/utils/SafeERC20.sol\":9009:9010  1 */\n      0x01\n        /* \"@openzeppelin/contracts/token/ERC20/utils/SafeERC20.sol\":8994:9010  returnValue != 1 */\n      eq\n      iszero\n        /* \"@openzeppelin/contracts/token/ERC20/utils/SafeERC20.sol\":8942:9010  returnSize == 0 ? address(token).code.length == 0 : returnValue != 1 */\n      jump(tag_209)\n    tag_208:\n      sub(shl(0xa0, 0x01), 0x01)\n        /* \"@openzeppelin/contracts/token/ERC20/utils/SafeERC20.sol\":8960:8986  address(token).code.length */\n      dup5\n      and\n      extcodesize\n        /* \"@openzeppelin/contracts/token/ERC20/utils/SafeERC20.sol\":8960:8991  address(token).code.length == 0 */\n      iszero\n        /* \"@openzeppelin/contracts/token/ERC20/utils/SafeERC20.sol\":8942:9010  returnSize == 0 ? address(token).code.length == 0 : returnValue != 1 */\n    tag_209:\n        /* \"@openzeppelin/contracts/token/ERC20/utils/SafeERC20.sol\":8938:9084  if (returnSize == 0 ? address(token).code.length == 0 : returnValue != 1) {... */\n      iszero\n      tag_202\n      jumpi\n        /* \"@openzeppelin/contracts/token/ERC20/utils/SafeERC20.sol\":9033:9073  SafeERC20FailedOperation(address(token)) */\n      mload(0x40)\n      shl(0xe0, 0x5274afe7)\n      dup2\n      mstore\n      sub(shl(0xa0, 0x01), 0x01)\n        /* \"#utility.yul\":3534:3589   */\n      dup6\n      and\n        /* \"@openzeppelin/contracts/token/ERC20/utils/SafeERC20.sol\":9033:9073  SafeERC20FailedOperation(address(token)) */\n      0x04\n      dup3\n      add\n        /* \"#utility.yul\":3516:3590   */\n      mstore\n        /* \"#utility.yul\":3489:3507   */\n      0x24\n      add\n        /* \"@openzeppelin/contracts/token/ERC20/utils/SafeERC20.sol\":9033:9073  SafeERC20FailedOperation(address(token)) */\n      tag_93\n        /* \"#utility.yul\":3342:3596   */\n      jump\n    tag_165:\n      mload(0x40)\n      dup1\n      0x60\n      add\n      0x40\n      mstore\n      dup1\n      0x00\n      dup1\n      not\n      and\n      dup2\n      mstore\n      0x20\n      add\n      and(0xffffffffffffffff, 0x00)\n      dup2\n      mstore\n      0x20\n      add\n      tag_212\n      mload(0x40)\n      dup1\n      0x40\n      add\n      0x40\n      mstore\n      dup1\n      0x00\n      dup2\n      mstore\n      0x20\n      add\n      0x00\n      dup2\n      mstore\n      pop\n      swap1\n      jump\n    tag_212:\n      swap1\n      mstore\n      swap1\n      jump\t// out\n        /* \"#utility.yul\":14:168   */\n    tag_213:\n        /* \"#utility.yul\":73:78   */\n      0x00\n        /* \"#utility.yul\":118:120   */\n      0x60\n        /* \"#utility.yul\":109:115   */\n      dup3\n        /* \"#utility.yul\":104:107   */\n      dup5\n        /* \"#utility.yul\":100:116   */\n      sub\n        /* \"#utility.yul\":96:121   */\n      slt\n        /* \"#utility.yul\":93:138   */\n      iszero\n      tag_222\n      jumpi\n        /* \"#utility.yul\":134:135   */\n      0x00\n        /* \"#utility.yul\":131:132   */\n      dup1\n        /* \"#utility.yul\":124:136   */\n      revert\n        /* \"#utility.yul\":93:138   */\n    tag_222:\n      pop\n        /* \"#utility.yul\":156:162   */\n      swap2\n        /* \"#utility.yul\":14:168   */\n      swap1\n      pop\n      jump\t// out\n        /* \"#utility.yul\":173:520   */\n    tag_214:\n        /* \"#utility.yul\":224:232   */\n      0x00\n        /* \"#utility.yul\":234:240   */\n      dup1\n        /* \"#utility.yul\":288:291   */\n      dup4\n        /* \"#utility.yul\":281:285   */\n      0x1f\n        /* \"#utility.yul\":273:279   */\n      dup5\n        /* \"#utility.yul\":269:286   */\n      add\n        /* \"#utility.yul\":265:292   */\n      slt\n        /* \"#utility.yul\":255:310   */\n      tag_224\n      jumpi\n        /* \"#utility.yul\":306:307   */\n      0x00\n        /* \"#utility.yul\":303:304   */\n      dup1\n        /* \"#utility.yul\":296:308   */\n      revert\n        /* \"#utility.yul\":255:310   */\n    tag_224:\n      pop\n        /* \"#utility.yul\":329:349   */\n      dup2\n      calldataload\n        /* \"#utility.yul\":372:390   */\n      0xffffffffffffffff\n        /* \"#utility.yul\":361:391   */\n      dup2\n      gt\n        /* \"#utility.yul\":358:408   */\n      iszero\n      tag_225\n      jumpi\n        /* \"#utility.yul\":404:405   */\n      0x00\n        /* \"#utility.yul\":401:402   */\n      dup1\n        /* \"#utility.yul\":394:406   */\n      revert\n        /* \"#utility.yul\":358:408   */\n    tag_225:\n        /* \"#utility.yul\":441:445   */\n      0x20\n        /* \"#utility.yul\":433:439   */\n      dup4\n        /* \"#utility.yul\":429:446   */\n      add\n        /* \"#utility.yul\":417:446   */\n      swap2\n      pop\n        /* \"#utility.yul\":493:496   */\n      dup4\n        /* \"#utility.yul\":486:490   */\n      0x20\n        /* \"#utility.yul\":477:483   */\n      dup3\n        /* \"#utility.yul\":469:475   */\n      dup6\n        /* \"#utility.yul\":465:484   */\n      add\n        /* \"#utility.yul\":461:491   */\n      add\n        /* \"#utility.yul\":458:497   */\n      gt\n        /* \"#utility.yul\":455:514   */\n      iszero\n      tag_226\n      jumpi\n        /* \"#utility.yul\":510:511   */\n      0x00\n        /* \"#utility.yul\":507:508   */\n      dup1\n        /* \"#utility.yul\":500:512   */\n      revert\n        /* \"#utility.yul\":455:514   */\n    tag_226:\n        /* \"#utility.yul\":173:520   */\n      swap3\n      pop\n      swap3\n      swap1\n      pop\n      jump\t// out\n        /* \"#utility.yul\":525:679   */\n    tag_215:\n      sub(shl(0xa0, 0x01), 0x01)\n        /* \"#utility.yul\":604:609   */\n      dup2\n        /* \"#utility.yul\":600:654   */\n      and\n        /* \"#utility.yul\":593:598   */\n      dup2\n        /* \"#utility.yul\":590:655   */\n      eq\n        /* \"#utility.yul\":580:673   */\n      tag_147\n      jumpi\n        /* \"#utility.yul\":669:670   */\n      0x00\n        /* \"#utility.yul\":666:667   */\n      dup1\n        /* \"#utility.yul\":659:671   */\n      revert\n        /* \"#utility.yul\":684:1777   */\n    tag_21:\n        /* \"#utility.yul\":825:831   */\n      0x00\n        /* \"#utility.yul\":833:839   */\n      dup1\n        /* \"#utility.yul\":841:847   */\n      0x00\n        /* \"#utility.yul\":849:855   */\n      dup1\n        /* \"#utility.yul\":857:863   */\n      0x00\n        /* \"#utility.yul\":865:871   */\n      dup1\n        /* \"#utility.yul\":873:879   */\n      0x00\n        /* \"#utility.yul\":926:929   */\n      0xe0\n        /* \"#utility.yul\":914:923   */\n      dup9\n        /* \"#utility.yul\":905:912   */\n      dup11\n        /* \"#utility.yul\":901:924   */\n      sub\n        /* \"#utility.yul\":897:930   */\n      slt\n        /* \"#utility.yul\":894:947   */\n      iszero\n      tag_230\n      jumpi\n        /* \"#utility.yul\":943:944   */\n      0x00\n        /* \"#utility.yul\":940:941   */\n      dup1\n        /* \"#utility.yul\":933:945   */\n      revert\n        /* \"#utility.yul\":894:947   */\n    tag_230:\n        /* \"#utility.yul\":966:1019   */\n      tag_231\n        /* \"#utility.yul\":1011:1018   */\n      dup10\n        /* \"#utility.yul\":1000:1009   */\n      dup10\n        /* \"#utility.yul\":966:1019   */\n      tag_213\n      jump\t// in\n    tag_231:\n        /* \"#utility.yul\":956:1019   */\n      swap7\n      pop\n        /* \"#utility.yul\":1088:1090   */\n      0x60\n        /* \"#utility.yul\":1073:1091   */\n      dup9\n      add\n        /* \"#utility.yul\":1060:1092   */\n      calldataload\n      swap6\n      pop\n        /* \"#utility.yul\":1167:1170   */\n      0x80\n        /* \"#utility.yul\":1152:1171   */\n      dup9\n      add\n        /* \"#utility.yul\":1139:1172   */\n      calldataload\n        /* \"#utility.yul\":1195:1213   */\n      0xffffffffffffffff\n        /* \"#utility.yul\":1184:1214   */\n      dup2\n      gt\n        /* \"#utility.yul\":1181:1231   */\n      iszero\n      tag_232\n      jumpi\n        /* \"#utility.yul\":1227:1228   */\n      0x00\n        /* \"#utility.yul\":1224:1225   */\n      dup1\n        /* \"#utility.yul\":1217:1229   */\n      revert\n        /* \"#utility.yul\":1181:1231   */\n    tag_232:\n        /* \"#utility.yul\":1266:1324   */\n      tag_233\n        /* \"#utility.yul\":1316:1323   */\n      dup11\n        /* \"#utility.yul\":1307:1313   */\n      dup3\n        /* \"#utility.yul\":1296:1305   */\n      dup12\n        /* \"#utility.yul\":1292:1314   */\n      add\n        /* \"#utility.yul\":1266:1324   */\n      tag_214\n      jump\t// in\n    tag_233:\n        /* \"#utility.yul\":1343:1351   */\n      swap1\n      swap7\n      pop\n        /* \"#utility.yul\":1240:1324   */\n      swap5\n      pop\n      pop\n        /* \"#utility.yul\":1430:1433   */\n      0xa0\n        /* \"#utility.yul\":1415:1434   */\n      dup9\n      add\n        /* \"#utility.yul\":1402:1435   */\n      calldataload\n        /* \"#utility.yul\":1444:1477   */\n      tag_234\n        /* \"#utility.yul\":1402:1435   */\n      dup2\n        /* \"#utility.yul\":1444:1477   */\n      tag_215\n      jump\t// in\n    tag_234:\n        /* \"#utility.yul\":1496:1503   */\n      swap3\n      pop\n        /* \"#utility.yul\":1556:1559   */\n      0xc0\n        /* \"#utility.yul\":1541:1560   */\n      dup9\n      add\n        /* \"#utility.yul\":1528:1561   */\n      calldataload\n        /* \"#utility.yul\":1586:1604   */\n      0xffffffffffffffff\n        /* \"#utility.yul\":1573:1605   */\n      dup2\n      gt\n        /* \"#utility.yul\":1570:1622   */\n      iszero\n      tag_235\n      jumpi\n        /* \"#utility.yul\":1618:1619   */\n      0x00\n        /* \"#utility.yul\":1615:1616   */\n      dup1\n        /* \"#utility.yul\":1608:1620   */\n      revert\n        /* \"#utility.yul\":1570:1622   */\n    tag_235:\n        /* \"#utility.yul\":1657:1717   */\n      tag_236\n        /* \"#utility.yul\":1709:1716   */\n      dup11\n        /* \"#utility.yul\":1698:1706   */\n      dup3\n        /* \"#utility.yul\":1687:1696   */\n      dup12\n        /* \"#utility.yul\":1683:1707   */\n      add\n        /* \"#utility.yul\":1657:1717   */\n      tag_214\n      jump\t// in\n    tag_236:\n        /* \"#utility.yul\":684:1777   */\n      swap9\n      swap12\n      swap8\n      swap11\n      pop\n      swap6\n      swap9\n      pop\n      swap4\n      swap7\n      swap3\n      swap6\n        /* \"#utility.yul\":1631:1717   */\n      swap3\n      swap4\n      pop\n      pop\n      pop\n        /* \"#utility.yul\":684:1777   */\n      jump\t// out\n        /* \"#utility.yul\":2081:2244   */\n    tag_216:\n        /* \"#utility.yul\":2148:2168   */\n      dup1\n      calldataload\n        /* \"#utility.yul\":2208:2218   */\n      0xffffffff\n        /* \"#utility.yul\":2197:2219   */\n      dup2\n      and\n        /* \"#utility.yul\":2187:2220   */\n      dup2\n      eq\n        /* \"#utility.yul\":2177:2238   */\n      tag_239\n      jumpi\n        /* \"#utility.yul\":2234:2235   */\n      0x00\n        /* \"#utility.yul\":2231:2232   */\n      dup1\n        /* \"#utility.yul\":2224:2236   */\n      revert\n        /* \"#utility.yul\":2177:2238   */\n    tag_239:\n        /* \"#utility.yul\":2081:2244   */\n      swap2\n      swap1\n      pop\n      jump\t// out\n        /* \"#utility.yul\":2249:3034   */\n    tag_30:\n        /* \"#utility.yul\":2348:2354   */\n      0x00\n        /* \"#utility.yul\":2356:2362   */\n      dup1\n        /* \"#utility.yul\":2364:2370   */\n      0x00\n        /* \"#utility.yul\":2372:2378   */\n      dup1\n        /* \"#utility.yul\":2380:2386   */\n      0x00\n        /* \"#utility.yul\":2433:2435   */\n      0x60\n        /* \"#utility.yul\":2421:2430   */\n      dup7\n        /* \"#utility.yul\":2412:2419   */\n      dup9\n        /* \"#utility.yul\":2408:2431   */\n      sub\n        /* \"#utility.yul\":2404:2436   */\n      slt\n        /* \"#utility.yul\":2401:2453   */\n      iszero\n      tag_241\n      jumpi\n        /* \"#utility.yul\":2449:2450   */\n      0x00\n        /* \"#utility.yul\":2446:2447   */\n      dup1\n        /* \"#utility.yul\":2439:2451   */\n      revert\n        /* \"#utility.yul\":2401:2453   */\n    tag_241:\n        /* \"#utility.yul\":2472:2500   */\n      tag_242\n        /* \"#utility.yul\":2490:2499   */\n      dup7\n        /* \"#utility.yul\":2472:2500   */\n      tag_216\n      jump\t// in\n    tag_242:\n        /* \"#utility.yul\":2462:2500   */\n      swap5\n      pop\n        /* \"#utility.yul\":2551:2553   */\n      0x20\n        /* \"#utility.yul\":2540:2549   */\n      dup7\n        /* \"#utility.yul\":2536:2554   */\n      add\n        /* \"#utility.yul\":2523:2555   */\n      calldataload\n        /* \"#utility.yul\":2578:2596   */\n      0xffffffffffffffff\n        /* \"#utility.yul\":2570:2576   */\n      dup2\n        /* \"#utility.yul\":2567:2597   */\n      gt\n        /* \"#utility.yul\":2564:2614   */\n      iszero\n      tag_243\n      jumpi\n        /* \"#utility.yul\":2610:2611   */\n      0x00\n        /* \"#utility.yul\":2607:2608   */\n      dup1\n        /* \"#utility.yul\":2600:2612   */\n      revert\n        /* \"#utility.yul\":2564:2614   */\n    tag_243:\n        /* \"#utility.yul\":2649:2707   */\n      tag_244\n        /* \"#utility.yul\":2699:2706   */\n      dup9\n        /* \"#utility.yul\":2690:2696   */\n      dup3\n        /* \"#utility.yul\":2679:2688   */\n      dup10\n        /* \"#utility.yul\":2675:2697   */\n      add\n        /* \"#utility.yul\":2649:2707   */\n      tag_214\n      jump\t// in\n    tag_244:\n        /* \"#utility.yul\":2726:2734   */\n      swap1\n      swap6\n      pop\n        /* \"#utility.yul\":2623:2707   */\n      swap4\n      pop\n      pop\n        /* \"#utility.yul\":2814:2816   */\n      0x40\n        /* \"#utility.yul\":2799:2817   */\n      dup7\n      add\n        /* \"#utility.yul\":2786:2818   */\n      calldataload\n        /* \"#utility.yul\":2843:2861   */\n      0xffffffffffffffff\n        /* \"#utility.yul\":2830:2862   */\n      dup2\n      gt\n        /* \"#utility.yul\":2827:2879   */\n      iszero\n      tag_245\n      jumpi\n        /* \"#utility.yul\":2875:2876   */\n      0x00\n        /* \"#utility.yul\":2872:2873   */\n      dup1\n        /* \"#utility.yul\":2865:2877   */\n      revert\n        /* \"#utility.yul\":2827:2879   */\n    tag_245:\n        /* \"#utility.yul\":2914:2974   */\n      tag_246\n        /* \"#utility.yul\":2966:2973   */\n      dup9\n        /* \"#utility.yul\":2955:2963   */\n      dup3\n        /* \"#utility.yul\":2944:2953   */\n      dup10\n        /* \"#utility.yul\":2940:2964   */\n      add\n        /* \"#utility.yul\":2914:2974   */\n      tag_214\n      jump\t// in\n    tag_246:\n        /* \"#utility.yul\":2249:3034   */\n      swap7\n      swap10\n      swap6\n      swap9\n      pop\n      swap4\n      swap7\n      pop\n        /* \"#utility.yul\":2993:3001   */\n      swap3\n      swap5\n        /* \"#utility.yul\":2888:2974   */\n      swap4\n        /* \"#utility.yul\":2249:3034   */\n      swap3\n      pop\n      pop\n      pop\n      jump\t// out\n        /* \"#utility.yul\":3039:3337   */\n    tag_35:\n        /* \"#utility.yul\":3106:3112   */\n      0x00\n        /* \"#utility.yul\":3114:3120   */\n      dup1\n        /* \"#utility.yul\":3167:3169   */\n      0x40\n        /* \"#utility.yul\":3155:3164   */\n      dup4\n        /* \"#utility.yul\":3146:3153   */\n      dup6\n        /* \"#utility.yul\":3142:3165   */\n      sub\n        /* \"#utility.yul\":3138:3170   */\n      slt\n        /* \"#utility.yul\":3135:3187   */\n      iszero\n      tag_248\n      jumpi\n        /* \"#utility.yul\":3183:3184   */\n      0x00\n        /* \"#utility.yul\":3180:3181   */\n      dup1\n        /* \"#utility.yul\":3173:3185   */\n      revert\n        /* \"#utility.yul\":3135:3187   */\n    tag_248:\n        /* \"#utility.yul\":3206:3234   */\n      tag_249\n        /* \"#utility.yul\":3224:3233   */\n      dup4\n        /* \"#utility.yul\":3206:3234   */\n      tag_216\n      jump\t// in\n    tag_249:\n        /* \"#utility.yul\":3196:3234   */\n      swap5\n        /* \"#utility.yul\":3303:3305   */\n      0x20\n        /* \"#utility.yul\":3288:3306   */\n      swap4\n      swap1\n      swap4\n      add\n        /* \"#utility.yul\":3275:3307   */\n      calldataload\n      swap4\n      pop\n      pop\n      pop\n        /* \"#utility.yul\":3039:3337   */\n      jump\t// out\n        /* \"#utility.yul\":3806:4474   */\n    tag_54:\n        /* \"#utility.yul\":3918:3924   */\n      0x00\n        /* \"#utility.yul\":3926:3932   */\n      dup1\n        /* \"#utility.yul\":3934:3940   */\n      0x00\n        /* \"#utility.yul\":3942:3948   */\n      dup1\n        /* \"#utility.yul\":3995:3998   */\n      0xa0\n        /* \"#utility.yul\":3983:3992   */\n      dup6\n        /* \"#utility.yul\":3974:3981   */\n      dup8\n        /* \"#utility.yul\":3970:3993   */\n      sub\n        /* \"#utility.yul\":3966:3999   */\n      slt\n        /* \"#utility.yul\":3963:4016   */\n      iszero\n      tag_253\n      jumpi\n        /* \"#utility.yul\":4012:4013   */\n      0x00\n        /* \"#utility.yul\":4009:4010   */\n      dup1\n        /* \"#utility.yul\":4002:4014   */\n      revert\n        /* \"#utility.yul\":3963:4016   */\n    tag_253:\n        /* \"#utility.yul\":4035:4088   */\n      tag_254\n        /* \"#utility.yul\":4080:4087   */\n      dup7\n        /* \"#utility.yul\":4069:4078   */\n      dup7\n        /* \"#utility.yul\":4035:4088   */\n      tag_213\n      jump\t// in\n    tag_254:\n        /* \"#utility.yul\":4025:4088   */\n      swap4\n      pop\n        /* \"#utility.yul\":4139:4141   */\n      0x60\n        /* \"#utility.yul\":4128:4137   */\n      dup6\n        /* \"#utility.yul\":4124:4142   */\n      add\n        /* \"#utility.yul\":4111:4143   */\n      calldataload\n        /* \"#utility.yul\":4166:4184   */\n      0xffffffffffffffff\n        /* \"#utility.yul\":4158:4164   */\n      dup2\n        /* \"#utility.yul\":4155:4185   */\n      gt\n        /* \"#utility.yul\":4152:4202   */\n      iszero\n      tag_255\n      jumpi\n        /* \"#utility.yul\":4198:4199   */\n      0x00\n        /* \"#utility.yul\":4195:4196   */\n      dup1\n        /* \"#utility.yul\":4188:4200   */\n      revert\n        /* \"#utility.yul\":4152:4202   */\n    tag_255:\n        /* \"#utility.yul\":4237:4295   */\n      tag_256\n        /* \"#utility.yul\":4287:4294   */\n      dup8\n        /* \"#utility.yul\":4278:4284   */\n      dup3\n        /* \"#utility.yul\":4267:4276   */\n      dup9\n        /* \"#utility.yul\":4263:4285   */\n      add\n        /* \"#utility.yul\":4237:4295   */\n      tag_214\n      jump\t// in\n    tag_256:\n        /* \"#utility.yul\":4314:4322   */\n      swap1\n      swap5\n      pop\n        /* \"#utility.yul\":4211:4295   */\n      swap3\n      pop\n      pop\n        /* \"#utility.yul\":4399:4402   */\n      0x80\n        /* \"#utility.yul\":4384:4403   */\n      dup6\n      add\n        /* \"#utility.yul\":4371:4404   */\n      calldataload\n        /* \"#utility.yul\":4413:4444   */\n      tag_257\n        /* \"#utility.yul\":4371:4404   */\n      dup2\n        /* \"#utility.yul\":4413:4444   */\n      tag_215\n      jump\t// in\n    tag_257:\n        /* \"#utility.yul\":3806:4474   */\n      swap4\n      swap7\n      swap3\n      swap6\n      pop\n      swap1\n      swap4\n      pop\n      pop\n      jump\t// out\n        /* \"#utility.yul\":4902:5086   */\n    tag_66:\n        /* \"#utility.yul\":4960:4966   */\n      0x00\n        /* \"#utility.yul\":5013:5015   */\n      0x20\n        /* \"#utility.yul\":5001:5010   */\n      dup3\n        /* \"#utility.yul\":4992:4999   */\n      dup5\n        /* \"#utility.yul\":4988:5011   */\n      sub\n        /* \"#utility.yul\":4984:5016   */\n      slt\n        /* \"#utility.yul\":4981:5033   */\n      iszero\n      tag_261\n      jumpi\n        /* \"#utility.yul\":5029:5030   */\n      0x00\n        /* \"#utility.yul\":5026:5027   */\n      dup1\n        /* \"#utility.yul\":5019:5031   */\n      revert\n        /* \"#utility.yul\":4981:5033   */\n    tag_261:\n        /* \"#utility.yul\":5052:5080   */\n      tag_262\n        /* \"#utility.yul\":5070:5079   */\n      dup3\n        /* \"#utility.yul\":5052:5080   */\n      tag_216\n      jump\t// in\n    tag_262:\n        /* \"#utility.yul\":5042:5080   */\n      swap4\n        /* \"#utility.yul\":4902:5086   */\n      swap3\n      pop\n      pop\n      pop\n      jump\t// out\n        /* \"#utility.yul\":5273:5520   */\n    tag_73:\n        /* \"#utility.yul\":5332:5338   */\n      0x00\n        /* \"#utility.yul\":5385:5387   */\n      0x20\n        /* \"#utility.yul\":5373:5382   */\n      dup3\n        /* \"#utility.yul\":5364:5371   */\n      dup5\n        /* \"#utility.yul\":5360:5383   */\n      sub\n        /* \"#utility.yul\":5356:5388   */\n      slt\n        /* \"#utility.yul\":5353:5405   */\n      iszero\n      tag_265\n      jumpi\n        /* \"#utility.yul\":5401:5402   */\n      0x00\n        /* \"#utility.yul\":5398:5399   */\n      dup1\n        /* \"#utility.yul\":5391:5403   */\n      revert\n        /* \"#utility.yul\":5353:5405   */\n    tag_265:\n        /* \"#utility.yul\":5440:5449   */\n      dup2\n        /* \"#utility.yul\":5427:5450   */\n      calldataload\n        /* \"#utility.yul\":5459:5490   */\n      tag_262\n        /* \"#utility.yul\":5484:5489   */\n      dup2\n        /* \"#utility.yul\":5459:5490   */\n      tag_215\n      jump\t// in\n        /* \"#utility.yul\":5833:6067   */\n    tag_88:\n        /* \"#utility.yul\":5916:5922   */\n      0x00\n        /* \"#utility.yul\":5969:5971   */\n      0x60\n        /* \"#utility.yul\":5957:5966   */\n      dup3\n        /* \"#utility.yul\":5948:5955   */\n      dup5\n        /* \"#utility.yul\":5944:5967   */\n      sub\n        /* \"#utility.yul\":5940:5972   */\n      slt\n        /* \"#utility.yul\":5937:5989   */\n      iszero\n      tag_269\n      jumpi\n        /* \"#utility.yul\":5985:5986   */\n      0x00\n        /* \"#utility.yul\":5982:5983   */\n      dup1\n        /* \"#utility.yul\":5975:5987   */\n      revert\n        /* \"#utility.yul\":5937:5989   */\n    tag_269:\n        /* \"#utility.yul\":6008:6061   */\n      tag_262\n        /* \"#utility.yul\":6053:6060   */\n      dup4\n        /* \"#utility.yul\":6042:6051   */\n      dup4\n        /* \"#utility.yul\":6008:6061   */\n      tag_213\n      jump\t// in\n        /* \"#utility.yul\":6340:6607   */\n    tag_217:\n        /* \"#utility.yul\":6429:6435   */\n      dup2\n        /* \"#utility.yul\":6424:6427   */\n      dup4\n        /* \"#utility.yul\":6417:6436   */\n      mstore\n        /* \"#utility.yul\":6481:6487   */\n      dup2\n        /* \"#utility.yul\":6474:6479   */\n      dup2\n        /* \"#utility.yul\":6467:6471   */\n      0x20\n        /* \"#utility.yul\":6462:6465   */\n      dup6\n        /* \"#utility.yul\":6458:6472   */\n      add\n        /* \"#utility.yul\":6445:6488   */\n      calldatacopy\n      pop\n        /* \"#utility.yul\":6533:6534   */\n      0x00\n        /* \"#utility.yul\":6508:6524   */\n      dup3\n      dup3\n      add\n        /* \"#utility.yul\":6526:6530   */\n      0x20\n        /* \"#utility.yul\":6504:6531   */\n      swap1\n      dup2\n      add\n        /* \"#utility.yul\":6497:6535   */\n      swap2\n      swap1\n      swap2\n      mstore\n        /* \"#utility.yul\":6589:6591   */\n      0x1f\n        /* \"#utility.yul\":6568:6583   */\n      swap1\n      swap2\n      add\n      not(0x1f)\n        /* \"#utility.yul\":6564:6593   */\n      and\n        /* \"#utility.yul\":6555:6594   */\n      swap1\n      swap2\n      add\n        /* \"#utility.yul\":6551:6601   */\n      add\n      swap1\n        /* \"#utility.yul\":6340:6607   */\n      jump\t// out\n        /* \"#utility.yul\":6612:6979   */\n    tag_106:\n      sub(shl(0xa0, 0x01), 0x01)\n        /* \"#utility.yul\":6803:6809   */\n      dup5\n        /* \"#utility.yul\":6799:6854   */\n      and\n        /* \"#utility.yul\":6788:6797   */\n      dup2\n        /* \"#utility.yul\":6781:6855   */\n      mstore\n        /* \"#utility.yul\":6891:6893   */\n      0x40\n        /* \"#utility.yul\":6886:6888   */\n      0x20\n        /* \"#utility.yul\":6875:6884   */\n      dup3\n        /* \"#utility.yul\":6871:6889   */\n      add\n        /* \"#utility.yul\":6864:6894   */\n      mstore\n        /* \"#utility.yul\":6762:6766   */\n      0x00\n        /* \"#utility.yul\":6911:6973   */\n      tag_162\n        /* \"#utility.yul\":6969:6971   */\n      0x40\n        /* \"#utility.yul\":6958:6967   */\n      dup4\n        /* \"#utility.yul\":6954:6972   */\n      add\n        /* \"#utility.yul\":6946:6952   */\n      dup5\n        /* \"#utility.yul\":6938:6944   */\n      dup7\n        /* \"#utility.yul\":6911:6973   */\n      tag_217\n      jump\t// in\n        /* \"#utility.yul\":7329:7576   */\n    tag_115:\n        /* \"#utility.yul\":7488:7490   */\n      0x20\n        /* \"#utility.yul\":7477:7486   */\n      dup2\n        /* \"#utility.yul\":7470:7491   */\n      mstore\n        /* \"#utility.yul\":7451:7455   */\n      0x00\n        /* \"#utility.yul\":7508:7570   */\n      tag_277\n        /* \"#utility.yul\":7566:7568   */\n      0x20\n        /* \"#utility.yul\":7555:7564   */\n      dup4\n        /* \"#utility.yul\":7551:7569   */\n      add\n        /* \"#utility.yul\":7543:7549   */\n      dup5\n        /* \"#utility.yul\":7535:7541   */\n      dup7\n        /* \"#utility.yul\":7508:7570   */\n      tag_217\n      jump\t// in\n    tag_277:\n        /* \"#utility.yul\":7500:7570   */\n      swap5\n        /* \"#utility.yul\":7329:7576   */\n      swap4\n      pop\n      pop\n      pop\n      pop\n      jump\t// out\n        /* \"#utility.yul\":7778:8177   */\n    tag_218:\n        /* \"#utility.yul\":7819:7822   */\n      0x00\n        /* \"#utility.yul\":7857:7862   */\n      dup2\n        /* \"#utility.yul\":7851:7863   */\n      mload\n        /* \"#utility.yul\":7884:7890   */\n      dup1\n        /* \"#utility.yul\":7879:7882   */\n      dup5\n        /* \"#utility.yul\":7872:7891   */\n      mstore\n        /* \"#utility.yul\":7909:7910   */\n      0x00\n        /* \"#utility.yul\":7919:8058   */\n    tag_280:\n        /* \"#utility.yul\":7933:7939   */\n      dup2\n        /* \"#utility.yul\":7930:7931   */\n      dup2\n        /* \"#utility.yul\":7927:7940   */\n      lt\n        /* \"#utility.yul\":7919:8058   */\n      iszero\n      tag_282\n      jumpi\n        /* \"#utility.yul\":8041:8045   */\n      0x20\n        /* \"#utility.yul\":8026:8039   */\n      dup2\n      dup6\n      add\n        /* \"#utility.yul\":8022:8046   */\n      dup2\n      add\n        /* \"#utility.yul\":8016:8047   */\n      mload\n        /* \"#utility.yul\":7996:8007   */\n      dup7\n      dup4\n      add\n        /* \"#utility.yul\":7992:8014   */\n      dup3\n      add\n        /* \"#utility.yul\":7985:8048   */\n      mstore\n        /* \"#utility.yul\":7948:7960   */\n      add\n        /* \"#utility.yul\":7919:8058   */\n      jump(tag_280)\n    tag_282:\n        /* \"#utility.yul\":7923:7926   */\n      pop\n        /* \"#utility.yul\":8103:8104   */\n      0x00\n        /* \"#utility.yul\":8096:8100   */\n      0x20\n        /* \"#utility.yul\":8087:8093   */\n      dup3\n        /* \"#utility.yul\":8082:8085   */\n      dup7\n        /* \"#utility.yul\":8078:8094   */\n      add\n        /* \"#utility.yul\":8074:8101   */\n      add\n        /* \"#utility.yul\":8067:8105   */\n      mstore\n        /* \"#utility.yul\":8166:8170   */\n      0x20\n        /* \"#utility.yul\":8159:8161   */\n      0x1f\n        /* \"#utility.yul\":8155:8162   */\n      not\n        /* \"#utility.yul\":8150:8152   */\n      0x1f\n        /* \"#utility.yul\":8142:8148   */\n      dup4\n        /* \"#utility.yul\":8138:8153   */\n      add\n        /* \"#utility.yul\":8134:8163   */\n      and\n        /* \"#utility.yul\":8129:8132   */\n      dup6\n        /* \"#utility.yul\":8125:8164   */\n      add\n        /* \"#utility.yul\":8121:8171   */\n      add\n        /* \"#utility.yul\":8114:8171   */\n      swap2\n      pop\n      pop\n        /* \"#utility.yul\":7778:8177   */\n      swap3\n      swap2\n      pop\n      pop\n      jump\t// out\n        /* \"#utility.yul\":8182:9090   */\n    tag_159:\n        /* \"#utility.yul\":8401:8403   */\n      0x40\n        /* \"#utility.yul\":8390:8399   */\n      dup2\n        /* \"#utility.yul\":8383:8404   */\n      mstore\n        /* \"#utility.yul\":8459:8469   */\n      0xffffffff\n        /* \"#utility.yul\":8450:8456   */\n      dup4\n        /* \"#utility.yul\":8444:8457   */\n      mload\n        /* \"#utility.yul\":8440:8470   */\n      and\n        /* \"#utility.yul\":8435:8437   */\n      0x40\n        /* \"#utility.yul\":8424:8433   */\n      dup3\n        /* \"#utility.yul\":8420:8438   */\n      add\n        /* \"#utility.yul\":8413:8471   */\n      mstore\n        /* \"#utility.yul\":8525:8529   */\n      0x20\n        /* \"#utility.yul\":8517:8523   */\n      dup4\n        /* \"#utility.yul\":8513:8530   */\n      add\n        /* \"#utility.yul\":8507:8531   */\n      mload\n        /* \"#utility.yul\":8502:8504   */\n      0x60\n        /* \"#utility.yul\":8491:8500   */\n      dup3\n        /* \"#utility.yul\":8487:8505   */\n      add\n        /* \"#utility.yul\":8480:8532   */\n      mstore\n        /* \"#utility.yul\":8364:8368   */\n      0x00\n        /* \"#utility.yul\":8579:8581   */\n      0x40\n        /* \"#utility.yul\":8571:8577   */\n      dup5\n        /* \"#utility.yul\":8567:8582   */\n      add\n        /* \"#utility.yul\":8561:8583   */\n      mload\n        /* \"#utility.yul\":8620:8624   */\n      0xa0\n        /* \"#utility.yul\":8614:8617   */\n      0x80\n        /* \"#utility.yul\":8603:8612   */\n      dup5\n        /* \"#utility.yul\":8599:8618   */\n      add\n        /* \"#utility.yul\":8592:8625   */\n      mstore\n        /* \"#utility.yul\":8648:8699   */\n      tag_284\n        /* \"#utility.yul\":8694:8697   */\n      0xe0\n        /* \"#utility.yul\":8683:8692   */\n      dup5\n        /* \"#utility.yul\":8679:8698   */\n      add\n        /* \"#utility.yul\":8665:8677   */\n      dup3\n        /* \"#utility.yul\":8648:8699   */\n      tag_218\n      jump\t// in\n    tag_284:\n        /* \"#utility.yul\":8634:8699   */\n      swap1\n      pop\n        /* \"#utility.yul\":8748:8750   */\n      0x60\n        /* \"#utility.yul\":8740:8746   */\n      dup6\n        /* \"#utility.yul\":8736:8751   */\n      add\n        /* \"#utility.yul\":8730:8752   */\n      mload\n        /* \"#utility.yul\":8822:8824   */\n      0x3f\n        /* \"#utility.yul\":8818:8825   */\n      not\n        /* \"#utility.yul\":8806:8815   */\n      dup5\n        /* \"#utility.yul\":8798:8804   */\n      dup4\n        /* \"#utility.yul\":8794:8816   */\n      sub\n        /* \"#utility.yul\":8790:8826   */\n      add\n        /* \"#utility.yul\":8783:8787   */\n      0xa0\n        /* \"#utility.yul\":8772:8781   */\n      dup6\n        /* \"#utility.yul\":8768:8788   */\n      add\n        /* \"#utility.yul\":8761:8827   */\n      mstore\n        /* \"#utility.yul\":8850:8890   */\n      tag_285\n        /* \"#utility.yul\":8883:8889   */\n      dup3\n        /* \"#utility.yul\":8867:8881   */\n      dup3\n        /* \"#utility.yul\":8850:8890   */\n      tag_218\n      jump\t// in\n    tag_285:\n        /* \"#utility.yul\":8959:8962   */\n      0x80\n        /* \"#utility.yul\":8947:8963   */\n      swap7\n      swap1\n      swap7\n      add\n        /* \"#utility.yul\":8941:8964   */\n      mload\n        /* \"#utility.yul\":8934:8965   */\n      iszero\n        /* \"#utility.yul\":8927:8966   */\n      iszero\n        /* \"#utility.yul\":8921:8924   */\n      0xc0\n        /* \"#utility.yul\":8906:8925   */\n      dup6\n      add\n        /* \"#utility.yul\":8899:8967   */\n      mstore\n      pop\n      pop\n      pop\n      sub(shl(0xa0, 0x01), 0x01)\n        /* \"#utility.yul\":9028:9083   */\n      swap2\n      swap1\n      swap2\n      and\n        /* \"#utility.yul\":9021:9025   */\n      0x20\n        /* \"#utility.yul\":9006:9026   */\n      swap1\n      swap2\n      add\n        /* \"#utility.yul\":8999:9084   */\n      mstore\n        /* \"#utility.yul\":8836:8890   */\n      swap1\n        /* \"#utility.yul\":8182:9090   */\n      jump\t// out\n        /* \"#utility.yul\":9095:9794   */\n    tag_219:\n        /* \"#utility.yul\":9165:9170   */\n      0x00\n        /* \"#utility.yul\":9213:9217   */\n      0x40\n        /* \"#utility.yul\":9201:9210   */\n      dup3\n        /* \"#utility.yul\":9196:9199   */\n      dup5\n        /* \"#utility.yul\":9192:9211   */\n      sub\n        /* \"#utility.yul\":9188:9218   */\n      slt\n        /* \"#utility.yul\":9185:9235   */\n      iszero\n      tag_287\n      jumpi\n        /* \"#utility.yul\":9231:9232   */\n      0x00\n        /* \"#utility.yul\":9228:9229   */\n      dup1\n        /* \"#utility.yul\":9221:9233   */\n      revert\n        /* \"#utility.yul\":9185:9235   */\n    tag_287:\n        /* \"#utility.yul\":9284:9288   */\n      0x40\n        /* \"#utility.yul\":9278:9289   */\n      dup1\n      mload\n      swap1\n        /* \"#utility.yul\":9316:9333   */\n      dup2\n      add\n        /* \"#utility.yul\":9363:9381   */\n      0xffffffffffffffff\n        /* \"#utility.yul\":9348:9382   */\n      dup2\n      gt\n        /* \"#utility.yul\":9384:9406   */\n      dup3\n      dup3\n      lt\n        /* \"#utility.yul\":9345:9407   */\n      or\n        /* \"#utility.yul\":9342:9527   */\n      iszero\n      tag_288\n      jumpi\n        /* \"#utility.yul\":9449:9459   */\n      0x4e487b71\n        /* \"#utility.yul\":9444:9447   */\n      0xe0\n        /* \"#utility.yul\":9440:9460   */\n      shl\n        /* \"#utility.yul\":9437:9438   */\n      0x00\n        /* \"#utility.yul\":9430:9461   */\n      mstore\n        /* \"#utility.yul\":9484:9488   */\n      0x41\n        /* \"#utility.yul\":9481:9482   */\n      0x04\n        /* \"#utility.yul\":9474:9489   */\n      mstore\n        /* \"#utility.yul\":9512:9516   */\n      0x24\n        /* \"#utility.yul\":9509:9510   */\n      0x00\n        /* \"#utility.yul\":9502:9517   */\n      revert\n        /* \"#utility.yul\":9342:9527   */\n    tag_288:\n        /* \"#utility.yul\":9543:9547   */\n      0x40\n        /* \"#utility.yul\":9536:9560   */\n      mstore\n        /* \"#utility.yul\":9629:9645   */\n      dup3\n      mload\n        /* \"#utility.yul\":9654:9677   */\n      dup2\n      mstore\n        /* \"#utility.yul\":9743:9745   */\n      0x20\n        /* \"#utility.yul\":9728:9746   */\n      swap3\n      dup4\n      add\n        /* \"#utility.yul\":9722:9747   */\n      mload\n        /* \"#utility.yul\":9763:9778   */\n      swap3\n      dup2\n      add\n        /* \"#utility.yul\":9756:9788   */\n      swap3\n      swap1\n      swap3\n      mstore\n      pop\n        /* \"#utility.yul\":9578:9584   */\n      swap2\n        /* \"#utility.yul\":9095:9794   */\n      swap1\n      pop\n      jump\t// out\n        /* \"#utility.yul\":9799:10056   */\n    tag_163:\n        /* \"#utility.yul\":9897:9903   */\n      0x00\n        /* \"#utility.yul\":9950:9952   */\n      0x40\n        /* \"#utility.yul\":9938:9947   */\n      dup3\n        /* \"#utility.yul\":9929:9936   */\n      dup5\n        /* \"#utility.yul\":9925:9948   */\n      sub\n        /* \"#utility.yul\":9921:9953   */\n      slt\n        /* \"#utility.yul\":9918:9970   */\n      iszero\n      tag_290\n      jumpi\n        /* \"#utility.yul\":9966:9967   */\n      0x00\n        /* \"#utility.yul\":9963:9964   */\n      dup1\n        /* \"#utility.yul\":9956:9968   */\n      revert\n        /* \"#utility.yul\":9918:9970   */\n    tag_290:\n        /* \"#utility.yul\":9989:10050   */\n      tag_262\n        /* \"#utility.yul\":10042:10049   */\n      dup4\n        /* \"#utility.yul\":10031:10040   */\n      dup4\n        /* \"#utility.yul\":9989:10050   */\n      tag_219\n      jump\t// in\n        /* \"#utility.yul\":10061:10940   */\n    tag_177:\n        /* \"#utility.yul\":10163:10169   */\n      0x00\n        /* \"#utility.yul\":10223:10226   */\n      0x80\n        /* \"#utility.yul\":10211:10220   */\n      dup3\n        /* \"#utility.yul\":10202:10209   */\n      dup5\n        /* \"#utility.yul\":10198:10221   */\n      sub\n        /* \"#utility.yul\":10194:10227   */\n      slt\n        /* \"#utility.yul\":10239:10241   */\n      dup1\n        /* \"#utility.yul\":10236:10258   */\n      iszero\n      tag_293\n      jumpi\n        /* \"#utility.yul\":10254:10255   */\n      0x00\n        /* \"#utility.yul\":10251:10252   */\n      dup1\n        /* \"#utility.yul\":10244:10256   */\n      revert\n        /* \"#utility.yul\":10236:10258   */\n    tag_293:\n      pop\n        /* \"#utility.yul\":10324:10326   */\n      0x40\n        /* \"#utility.yul\":10318:10327   */\n      mload\n        /* \"#utility.yul\":10273:10274   */\n      0x00\n      swap1\n        /* \"#utility.yul\":10366:10370   */\n      0x60\n        /* \"#utility.yul\":10354:10371   */\n      dup2\n      add\n        /* \"#utility.yul\":10401:10419   */\n      0xffffffffffffffff\n        /* \"#utility.yul\":10386:10420   */\n      dup2\n      gt\n        /* \"#utility.yul\":10422:10444   */\n      dup3\n      dup3\n      lt\n        /* \"#utility.yul\":10383:10445   */\n      or\n        /* \"#utility.yul\":10380:10567   */\n      iszero\n      tag_294\n      jumpi\n      shl(0xe0, 0x4e487b71)\n        /* \"#utility.yul\":10468:10500   */\n      dup4\n      mstore\n        /* \"#utility.yul\":10523:10527   */\n      0x41\n        /* \"#utility.yul\":10520:10521   */\n      0x04\n        /* \"#utility.yul\":10513:10528   */\n      mstore\n        /* \"#utility.yul\":10552:10556   */\n      0x24\n        /* \"#utility.yul\":10475:10477   */\n      dup4\n        /* \"#utility.yul\":10541:10557   */\n      revert\n        /* \"#utility.yul\":10380:10567   */\n    tag_294:\n        /* \"#utility.yul\":10583:10585   */\n      0x40\n        /* \"#utility.yul\":10576:10598   */\n      mstore\n        /* \"#utility.yul\":10622:10638   */\n      dup4\n      mload\n        /* \"#utility.yul\":10607:10639   */\n      dup2\n      mstore\n        /* \"#utility.yul\":10682:10684   */\n      0x20\n        /* \"#utility.yul\":10667:10685   */\n      dup5\n      add\n        /* \"#utility.yul\":10661:10686   */\n      mload\n        /* \"#utility.yul\":10726:10744   */\n      0xffffffffffffffff\n        /* \"#utility.yul\":10715:10745   */\n      dup2\n      and\n        /* \"#utility.yul\":10705:10746   */\n      dup2\n      eq\n        /* \"#utility.yul\":10695:10766   */\n      tag_295\n      jumpi\n        /* \"#utility.yul\":10761:10763   */\n      dup3\n        /* \"#utility.yul\":10757:10759   */\n      dup4\n        /* \"#utility.yul\":10750:10764   */\n      revert\n        /* \"#utility.yul\":10695:10766   */\n    tag_295:\n        /* \"#utility.yul\":10794:10796   */\n      0x20\n        /* \"#utility.yul\":10782:10797   */\n      dup3\n      add\n        /* \"#utility.yul\":10775:10805   */\n      mstore\n        /* \"#utility.yul\":10838:10908   */\n      tag_296\n        /* \"#utility.yul\":10900:10907   */\n      dup6\n        /* \"#utility.yul\":10895:10897   */\n      0x40\n        /* \"#utility.yul\":10880:10898   */\n      dup7\n      add\n        /* \"#utility.yul\":10838:10908   */\n      tag_219\n      jump\t// in\n    tag_296:\n        /* \"#utility.yul\":10833:10835   */\n      0x40\n        /* \"#utility.yul\":10821:10836   */\n      dup3\n      add\n        /* \"#utility.yul\":10814:10909   */\n      mstore\n        /* \"#utility.yul\":10825:10831   */\n      swap5\n        /* \"#utility.yul\":10061:10940   */\n      swap4\n      pop\n      pop\n      pop\n      pop\n      jump\t// out\n        /* \"#utility.yul\":11127:11378   */\n    tag_196:\n        /* \"#utility.yul\":11197:11203   */\n      0x00\n        /* \"#utility.yul\":11250:11252   */\n      0x20\n        /* \"#utility.yul\":11238:11247   */\n      dup3\n        /* \"#utility.yul\":11229:11236   */\n      dup5\n        /* \"#utility.yul\":11225:11248   */\n      sub\n        /* \"#utility.yul\":11221:11253   */\n      slt\n        /* \"#utility.yul\":11218:11270   */\n      iszero\n      tag_299\n      jumpi\n        /* \"#utility.yul\":11266:11267   */\n      0x00\n        /* \"#utility.yul\":11263:11264   */\n      dup1\n        /* \"#utility.yul\":11256:11268   */\n      revert\n        /* \"#utility.yul\":11218:11270   */\n    tag_299:\n        /* \"#utility.yul\":11298:11307   */\n      dup2\n        /* \"#utility.yul\":11292:11308   */\n      mload\n        /* \"#utility.yul\":11317:11348   */\n      tag_262\n        /* \"#utility.yul\":11342:11347   */\n      dup2\n        /* \"#utility.yul\":11317:11348   */\n      tag_215\n      jump\t// in\n\n    auxdata: 0xa264697066735822122056a345030c94734f829b69acf7143cfd529e86fa1cf18fc50ac1807420256f9964736f6c634300081c0033\n}\n",
				"bytecode": {
					"linkReferences": {},
					"object": "60a060405234801561001057600080fd5b506040516112f73803806112f783398101604081905261002f91610175565b81818181338061005957604051631e4fbdf760e01b81526000600482015260240160405180910390fd5b61006281610109565b506001600160a01b03808316608052811661009057604051632d618d8160e21b815260040160405180910390fd5b60805160405163ca5eb5e160e01b81526001600160a01b0383811660048301529091169063ca5eb5e190602401600060405180830381600087803b1580156100d757600080fd5b505af11580156100eb573d6000803e3d6000fd5b50505050505050506101028161010960201b60201c565b50506101a8565b600080546001600160a01b038381166001600160a01b0319831681178455604051919092169283917f8be0079c531659141344cd1fd0a4f28419497f9722a3daafe3b4186f6b6457e09190a35050565b80516001600160a01b038116811461017057600080fd5b919050565b6000806040838503121561018857600080fd5b61019183610159565b915061019f60208401610159565b90509250929050565b60805161110a6101ed60003960008181610163015281816103230152818161057c0152818161072a0152818161082801528181610a000152610ab7015261110a6000f3fe6080604052600436106100dd5760003560e01c806382413eac1161007f578063ca5eb5e111610059578063ca5eb5e114610286578063dab6ffde146102a6578063f2fde38b146102e1578063ff7bd03d1461030157600080fd5b806382413eac146101ee5780638da5cb5b1461022d578063bb0b6a531461024b57600080fd5b80633400288b116100bb5780633400288b146101315780635e280f1114610151578063715018a61461019d5780637d25a05e146101b257600080fd5b806313137d65146100e257806317442b70146100f7578063306e1d951461011e575b600080fd5b6100f56100f0366004610c63565b610321565b005b34801561010357600080fd5b50604080516001815260026020820152015b60405180910390f35b6100f561012c366004610d1f565b6103d2565b34801561013d57600080fd5b506100f561014c366004610da5565b61052b565b34801561015d57600080fd5b506101857f000000000000000000000000000000000000000000000000000000000000000081565b6040516001600160a01b039091168152602001610115565b3480156101a957600080fd5b506100f5610541565b3480156101be57600080fd5b506101d56101cd366004610da5565b600092915050565b60405167ffffffffffffffff9091168152602001610115565b3480156101fa57600080fd5b5061021d610209366004610dcf565b6001600160a01b0381163014949350505050565b6040519015158152602001610115565b34801561023957600080fd5b506000546001600160a01b0316610185565b34801561025757600080fd5b50610278610266366004610e36565b60016020526000908152604090205481565b604051908152602001610115565b34801561029257600080fd5b506100f56102a1366004610e58565b610555565b3480156102b257600080fd5b506102c66102c1366004610d1f565b6105db565b60408051825181526020928301519281019290925201610115565b3480156102ed57600080fd5b506100f56102fc366004610e58565b61065e565b34801561030d57600080fd5b5061021d61031c366004610e75565b61069c565b7f00000000000000000000000000000000000000000000000000000000000000006001600160a01b03163314610371576040516391ac5e4f60e01b81523360048201526024015b60405180910390fd5b6020870180359061038b90610386908a610e36565b6106d2565b146103c95761039d6020880188610e36565b60405163309afaf360e21b815263ffffffff909116600482015260208801356024820152604401610368565b50505050505050565b60003385856040516020016103e993929190610eba565b60408051601f198184030181526020601f860181900481028401810190925284835292506000916104389189918591889088908190840183828082843760009201829052509250610714915050565b805190915034101561047f5760405162461bcd60e51b815260206004820152601060248201526f496e73756666696369656e742066656560801b6044820152606401610368565b6104d7878386868080601f016020809104026020016040519081016040528093929190818152602001838380828437600092018290525060408051808201909152348152602081019190915292503391506107f59050565b50336001600160a01b03168763ffffffff167fe248e04963908a94d298fee201b5047f8a85f6e443c24ce21c12eaa7e27aa01a888860405161051a929190610edd565b60405180910390a350505050505050565b6105336108f5565b61053d8282610922565b5050565b6105496108f5565b6105536000610977565b565b61055d6108f5565b60405163ca5eb5e160e01b81526001600160a01b0382811660048301527f0000000000000000000000000000000000000000000000000000000000000000169063ca5eb5e190602401600060405180830381600087803b1580156105c057600080fd5b505af11580156105d4573d6000803e3d6000fd5b5050505050565b6040805180820190915260008082526020820152600033868660405160200161060693929190610eba565b60408051601f198184030181526020601f87018190048102840181019092528583529250610653918991849190889088908190840183828082843760009201829052509250610714915050565b979650505050505050565b6106666108f5565b6001600160a01b03811661069057604051631e4fbdf760e01b815260006004820152602401610368565b61069981610977565b50565b60006020820180359060019083906106b49086610e36565b63ffffffff1681526020810191909152604001600020541492915050565b63ffffffff81166000908152600160205260408120548061070e5760405163f6ff4fb760e01b815263ffffffff84166004820152602401610368565b92915050565b60408051808201909152600080825260208201527f00000000000000000000000000000000000000000000000000000000000000006001600160a01b031663ddc28c586040518060a001604052808863ffffffff168152602001610777896106d2565b8152602001878152602001868152602001851515815250306040518363ffffffff1660e01b81526004016107ac929190610f3f565b6040805180830381865afa1580156107c8573d6000803e3d6000fd5b505050506040513d601f19601f820116820180604052508101906107ec9190611015565b95945050505050565b6107fd610ba5565b600061080c84600001516109d4565b6020850151909150156108265761082684602001516109fc565b7f00000000000000000000000000000000000000000000000000000000000000006001600160a01b0316632637a450826040518060a001604052808b63ffffffff1681526020016108768c6106d2565b81526020018a815260200189815260200160008960200151111515815250866040518463ffffffff1660e01b81526004016108b2929190610f3f565b60806040518083038185885af11580156108d0573d6000803e3d6000fd5b50505050506040513d601f19601f820116820180604052508101906106539190611031565b6000546001600160a01b031633146105535760405163118cdaa760e01b8152336004820152602401610368565b63ffffffff8216600081815260016020908152604091829020849055815192835282018390527f238399d427b947898edb290f5ff0f9109849b1c3ba196a42e35f00c50a54b98b910160405180910390a15050565b600080546001600160a01b0383811673ffffffffffffffffffffffffffffffffffffffff19831681178455604051919092169283917f8be0079c531659141344cd1fd0a4f28419497f9722a3daafe3b4186f6b6457e09190a35050565b60008134146109f8576040516304fb820960e51b8152346004820152602401610368565b5090565b60007f00000000000000000000000000000000000000000000000000000000000000006001600160a01b031663e4fe1d946040518163ffffffff1660e01b8152600401602060405180830381865afa158015610a5c573d6000803e3d6000fd5b505050506040513d601f19601f82011682018060405250810190610a8091906110b7565b90506001600160a01b038116610aa9576040516329b99a9560e11b815260040160405180910390fd5b6040805133602482018190527f00000000000000000000000000000000000000000000000000000000000000006001600160a01b03818116604485015260648085018890528551808603909101815260849094019094526020830180516001600160e01b03166323b872dd60e01b17905261053d938516928690610b2e908590610b34565b50505050565b600080602060008451602086016000885af180610b57576040513d6000823e3d81fd5b50506000513d91508115610b6f578060011415610b7c565b6001600160a01b0384163b155b15610b2e57604051635274afe760e01b81526001600160a01b0385166004820152602401610368565b604051806060016040528060008019168152602001600067ffffffffffffffff168152602001610be8604051806040016040528060008152602001600081525090565b905290565b600060608284031215610bff57600080fd5b50919050565b60008083601f840112610c1757600080fd5b50813567ffffffffffffffff811115610c2f57600080fd5b602083019150836020828501011115610c4757600080fd5b9250929050565b6001600160a01b038116811461069957600080fd5b600080600080600080600060e0888a031215610c7e57600080fd5b610c888989610bed565b965060608801359550608088013567ffffffffffffffff811115610cab57600080fd5b610cb78a828b01610c05565b90965094505060a0880135610ccb81610c4e565b925060c088013567ffffffffffffffff811115610ce757600080fd5b610cf38a828b01610c05565b989b979a50959850939692959293505050565b803563ffffffff81168114610d1a57600080fd5b919050565b600080600080600060608688031215610d3757600080fd5b610d4086610d06565b9450602086013567ffffffffffffffff811115610d5c57600080fd5b610d6888828901610c05565b909550935050604086013567ffffffffffffffff811115610d8857600080fd5b610d9488828901610c05565b969995985093965092949392505050565b60008060408385031215610db857600080fd5b610dc183610d06565b946020939093013593505050565b60008060008060a08587031215610de557600080fd5b610def8686610bed565b9350606085013567ffffffffffffffff811115610e0b57600080fd5b610e1787828801610c05565b9094509250506080850135610e2b81610c4e565b939692955090935050565b600060208284031215610e4857600080fd5b610e5182610d06565b9392505050565b600060208284031215610e6a57600080fd5b8135610e5181610c4e565b600060608284031215610e8757600080fd5b610e518383610bed565b81835281816020850137506000828201602090810191909152601f909101601f19169091010190565b6001600160a01b03841681526040602082015260006107ec604083018486610e91565b602081526000610ef1602083018486610e91565b949350505050565b6000815180845260005b81811015610f1f57602081850181015186830182015201610f03565b506000602082860101526020601f19601f83011685010191505092915050565b6040815263ffffffff8351166040820152602083015160608201526000604084015160a06080840152610f7560e0840182610ef9565b90506060850151603f198483030160a0850152610f928282610ef9565b60809690960151151560c08501525050506001600160a01b039190911660209091015290565b600060408284031215610fca57600080fd5b6040805190810167ffffffffffffffff81118282101715610ffb57634e487b7160e01b600052604160045260246000fd5b604052825181526020928301519281019290925250919050565b60006040828403121561102757600080fd5b610e518383610fb8565b6000608082840312801561104457600080fd5b506040516000906060810167ffffffffffffffff8111828210171561107757634e487b7160e01b83526041600452602483fd5b60405283518152602084015167ffffffffffffffff81168114611098578283fd5b60208201526110aa8560408601610fb8565b6040820152949350505050565b6000602082840312156110c957600080fd5b8151610e5181610c4e56fea264697066735822122056a345030c94734f829b69acf7143cfd529e86fa1cf18fc50ac1807420256f9964736f6c634300081c0033",
					"opcodes": "PUSH1 0xA0 PUSH1 0x40 MSTORE CALLVALUE DUP1 ISZERO PUSH2 0x10 JUMPI PUSH1 0x0 DUP1 REVERT JUMPDEST POP PUSH1 0x40 MLOAD PUSH2 0x12F7 CODESIZE SUB DUP1 PUSH2 0x12F7 DUP4 CODECOPY DUP2 ADD PUSH1 0x40 DUP2 SWAP1 MSTORE PUSH2 0x2F SWAP2 PUSH2 0x175 JUMP JUMPDEST DUP2 DUP2 DUP2 DUP2 CALLER DUP1 PUSH2 0x59 JUMPI PUSH1 0x40 MLOAD PUSH4 0x1E4FBDF7 PUSH1 0xE0 SHL DUP2 MSTORE PUSH1 0x0 PUSH1 0x4 DUP3 ADD MSTORE PUSH1 0x24 ADD PUSH1 0x40 MLOAD DUP1 SWAP2 SUB SWAP1 REVERT JUMPDEST PUSH2 0x62 DUP2 PUSH2 0x109 JUMP JUMPDEST POP PUSH1 0x1 PUSH1 0x1 PUSH1 0xA0 SHL SUB DUP1 DUP4 AND PUSH1 0x80 MSTORE DUP2 AND PUSH2 0x90 JUMPI PUSH1 0x40 MLOAD PUSH4 0x2D618D81 PUSH1 0xE2 SHL DUP2 MSTORE PUSH1 0x4 ADD PUSH1 0x40 MLOAD DUP1 SWAP2 SUB SWAP1 REVERT JUMPDEST PUSH1 0x80 MLOAD PUSH1 0x40 MLOAD PUSH4 0xCA5EB5E1 PUSH1 0xE0 SHL DUP2 MSTORE PUSH1 0x1 PUSH1 0x1 PUSH1 0xA0 SHL SUB DUP4 DUP2 AND PUSH1 0x4 DUP4 ADD MSTORE SWAP1 SWAP2 AND SWAP1 PUSH4 0xCA5EB5E1 SWAP1 PUSH1 0x24 ADD PUSH1 0x0 PUSH1 0x40 MLOAD DUP1 DUP4 SUB DUP2 PUSH1 0x0 DUP8 DUP1 EXTCODESIZE ISZERO DUP1 ISZERO PUSH2 0xD7 JUMPI PUSH1 0x0 DUP1 REVERT JUMPDEST POP GAS CALL ISZERO DUP1 ISZERO PUSH2 0xEB JUMPI RETURNDATASIZE PUSH1 0x0 DUP1 RETURNDATACOPY RETURNDATASIZE PUSH1 0x0 REVERT JUMPDEST POP POP POP POP POP POP POP POP PUSH2 0x102 DUP2 PUSH2 0x109 PUSH1 0x20 SHL PUSH1 0x20 SHR JUMP JUMPDEST POP POP PUSH2 0x1A8 JUMP JUMPDEST PUSH1 0x0 DUP1 SLOAD PUSH1 0x1 PUSH1 0x1 PUSH1 0xA0 SHL SUB DUP4 DUP2 AND PUSH1 0x1 PUSH1 0x1 PUSH1 0xA0 SHL SUB NOT DUP4 AND DUP2 OR DUP5 SSTORE PUSH1 0x40 MLOAD SWAP2 SWAP1 SWAP3 AND SWAP3 DUP4 SWAP2 PUSH32 0x8BE0079C531659141344CD1FD0A4F28419497F9722A3DAAFE3B4186F6B6457E0 SWAP2 SWAP1 LOG3 POP POP JUMP JUMPDEST DUP1 MLOAD PUSH1 0x1 PUSH1 0x1 PUSH1 0xA0 SHL SUB DUP2 AND DUP2 EQ PUSH2 0x170 JUMPI PUSH1 0x0 DUP1 REVERT JUMPDEST SWAP2 SWAP1 POP JUMP JUMPDEST PUSH1 0x0 DUP1 PUSH1 0x40 DUP4 DUP6 SUB SLT ISZERO PUSH2 0x188 JUMPI PUSH1 0x0 DUP1 REVERT JUMPDEST PUSH2 0x191 DUP4 PUSH2 0x159 JUMP JUMPDEST SWAP2 POP PUSH2 0x19F PUSH1 0x20 DUP5 ADD PUSH2 0x159 JUMP JUMPDEST SWAP1 POP SWAP3 POP SWAP3 SWAP1 POP JUMP JUMPDEST PUSH1 0x80 MLOAD PUSH2 0x110A PUSH2 0x1ED PUSH1 0x0 CODECOPY PUSH1 0x0 DUP2 DUP2 PUSH2 0x163 ADD MSTORE DUP2 DUP2 PUSH2 0x323 ADD MSTORE DUP2 DUP2 PUSH2 0x57C ADD MSTORE DUP2 DUP2 PUSH2 0x72A ADD MSTORE DUP2 DUP2 PUSH2 0x828 ADD MSTORE DUP2 DUP2 PUSH2 0xA00 ADD MSTORE PUSH2 0xAB7 ADD MSTORE PUSH2 0x110A PUSH1 0x0 RETURN INVALID PUSH1 0x80 PUSH1 0x40 MSTORE PUSH1 0x4 CALLDATASIZE LT PUSH2 0xDD JUMPI PUSH1 0x0 CALLDATALOAD PUSH1 0xE0 SHR DUP1 PUSH4 0x82413EAC GT PUSH2 0x7F JUMPI DUP1 PUSH4 0xCA5EB5E1 GT PUSH2 0x59 JUMPI DUP1 PUSH4 0xCA5EB5E1 EQ PUSH2 0x286 JUMPI DUP1 PUSH4 0xDAB6FFDE EQ PUSH2 0x2A6 JUMPI DUP1 PUSH4 0xF2FDE38B EQ PUSH2 0x2E1 JUMPI DUP1 PUSH4 0xFF7BD03D EQ PUSH2 0x301 JUMPI PUSH1 0x0 DUP1 REVERT JUMPDEST DUP1 PUSH4 0x82413EAC EQ PUSH2 0x1EE JUMPI DUP1 PUSH4 0x8DA5CB5B EQ PUSH2 0x22D JUMPI DUP1 PUSH4 0xBB0B6A53 EQ PUSH2 0x24B JUMPI PUSH1 0x0 DUP1 REVERT JUMPDEST DUP1 PUSH4 0x3400288B GT PUSH2 0xBB JUMPI DUP1 PUSH4 0x3400288B EQ PUSH2 0x131 JUMPI DUP1 PUSH4 0x5E280F11 EQ PUSH2 0x151 JUMPI DUP1 PUSH4 0x715018A6 EQ PUSH2 0x19D JUMPI DUP1 PUSH4 0x7D25A05E EQ PUSH2 0x1B2 JUMPI PUSH1 0x0 DUP1 REVERT JUMPDEST DUP1 PUSH4 0x13137D65 EQ PUSH2 0xE2 JUMPI DUP1 PUSH4 0x17442B70 EQ PUSH2 0xF7 JUMPI DUP1 PUSH4 0x306E1D95 EQ PUSH2 0x11E JUMPI JUMPDEST PUSH1 0x0 DUP1 REVERT JUMPDEST PUSH2 0xF5 PUSH2 0xF0 CALLDATASIZE PUSH1 0x4 PUSH2 0xC63 JUMP JUMPDEST PUSH2 0x321 JUMP JUMPDEST STOP JUMPDEST CALLVALUE DUP1 ISZERO PUSH2 0x103 JUMPI PUSH1 0x0 DUP1 REVERT JUMPDEST POP PUSH1 0x40 DUP1 MLOAD PUSH1 0x1 DUP2 MSTORE PUSH1 0x2 PUSH1 0x20 DUP3 ADD MSTORE ADD JUMPDEST PUSH1 0x40 MLOAD DUP1 SWAP2 SUB SWAP1 RETURN JUMPDEST PUSH2 0xF5 PUSH2 0x12C CALLDATASIZE PUSH1 0x4 PUSH2 0xD1F JUMP JUMPDEST PUSH2 0x3D2 JUMP JUMPDEST CALLVALUE DUP1 ISZERO PUSH2 0x13D JUMPI PUSH1 0x0 DUP1 REVERT JUMPDEST POP PUSH2 0xF5 PUSH2 0x14C CALLDATASIZE PUSH1 0x4 PUSH2 0xDA5 JUMP JUMPDEST PUSH2 0x52B JUMP JUMPDEST CALLVALUE DUP1 ISZERO PUSH2 0x15D JUMPI PUSH1 0x0 DUP1 REVERT JUMPDEST POP PUSH2 0x185 PUSH32 0x0 DUP2 JUMP JUMPDEST PUSH1 0x40 MLOAD PUSH1 0x1 PUSH1 0x1 PUSH1 0xA0 SHL SUB SWAP1 SWAP2 AND DUP2 MSTORE PUSH1 0x20 ADD PUSH2 0x115 JUMP JUMPDEST CALLVALUE DUP1 ISZERO PUSH2 0x1A9 JUMPI PUSH1 0x0 DUP1 REVERT JUMPDEST POP PUSH2 0xF5 PUSH2 0x541 JUMP JUMPDEST CALLVALUE DUP1 ISZERO PUSH2 0x1BE JUMPI PUSH1 0x0 DUP1 REVERT JUMPDEST POP PUSH2 0x1D5 PUSH2 0x1CD CALLDATASIZE PUSH1 0x4 PUSH2 0xDA5 JUMP JUMPDEST PUSH1 0x0 SWAP3 SWAP2 POP POP JUMP JUMPDEST PUSH1 0x40 MLOAD PUSH8 0xFFFFFFFFFFFFFFFF SWAP1 SWAP2 AND DUP2 MSTORE PUSH1 0x20 ADD PUSH2 0x115 JUMP JUMPDEST CALLVALUE DUP1 ISZERO PUSH2 0x1FA JUMPI PUSH1 0x0 DUP1 REVERT JUMPDEST POP PUSH2 0x21D PUSH2 0x209 CALLDATASIZE PUSH1 0x4 PUSH2 0xDCF JUMP JUMPDEST PUSH1 0x1 PUSH1 0x1 PUSH1 0xA0 SHL SUB DUP2 AND ADDRESS EQ SWAP5 SWAP4 POP POP POP POP JUMP JUMPDEST PUSH1 0x40 MLOAD SWAP1 ISZERO ISZERO DUP2 MSTORE PUSH1 0x20 ADD PUSH2 0x115 JUMP JUMPDEST CALLVALUE DUP1 ISZERO PUSH2 0x239 JUMPI PUSH1 0x0 DUP1 REVERT JUMPDEST POP PUSH1 0x0 SLOAD PUSH1 0x1 PUSH1 0x1 PUSH1 0xA0 SHL SUB AND PUSH2 0x185 JUMP JUMPDEST CALLVALUE DUP1 ISZERO PUSH2 0x257 JUMPI PUSH1 0x0 DUP1 REVERT JUMPDEST POP PUSH2 0x278 PUSH2 0x266 CALLDATASIZE PUSH1 0x4 PUSH2 0xE36 JUMP JUMPDEST PUSH1 0x1 PUSH1 0x20 MSTORE PUSH1 0x0 SWAP1 DUP2 MSTORE PUSH1 0x40 SWAP1 KECCAK256 SLOAD DUP2 JUMP JUMPDEST PUSH1 0x40 MLOAD SWAP1 DUP2 MSTORE PUSH1 0x20 ADD PUSH2 0x115 JUMP JUMPDEST CALLVALUE DUP1 ISZERO PUSH2 0x292 JUMPI PUSH1 0x0 DUP1 REVERT JUMPDEST POP PUSH2 0xF5 PUSH2 0x2A1 CALLDATASIZE PUSH1 0x4 PUSH2 0xE58 JUMP JUMPDEST PUSH2 0x555 JUMP JUMPDEST CALLVALUE DUP1 ISZERO PUSH2 0x2B2 JUMPI PUSH1 0x0 DUP1 REVERT JUMPDEST POP PUSH2 0x2C6 PUSH2 0x2C1 CALLDATASIZE PUSH1 0x4 PUSH2 0xD1F JUMP JUMPDEST PUSH2 0x5DB JUMP JUMPDEST PUSH1 0x40 DUP1 MLOAD DUP3 MLOAD DUP2 MSTORE PUSH1 0x20 SWAP3 DUP4 ADD MLOAD SWAP3 DUP2 ADD SWAP3 SWAP1 SWAP3 MSTORE ADD PUSH2 0x115 JUMP JUMPDEST CALLVALUE DUP1 ISZERO PUSH2 0x2ED JUMPI PUSH1 0x0 DUP1 REVERT JUMPDEST POP PUSH2 0xF5 PUSH2 0x2FC CALLDATASIZE PUSH1 0x4 PUSH2 0xE58 JUMP JUMPDEST PUSH2 0x65E JUMP JUMPDEST CALLVALUE DUP1 ISZERO PUSH2 0x30D JUMPI PUSH1 0x0 DUP1 REVERT JUMPDEST POP PUSH2 0x21D PUSH2 0x31C CALLDATASIZE PUSH1 0x4 PUSH2 0xE75 JUMP JUMPDEST PUSH2 0x69C JUMP JUMPDEST PUSH32 0x0 PUSH1 0x1 PUSH1 0x1 PUSH1 0xA0 SHL SUB AND CALLER EQ PUSH2 0x371 JUMPI PUSH1 0x40 MLOAD PUSH4 0x91AC5E4F PUSH1 0xE0 SHL DUP2 MSTORE CALLER PUSH1 0x4 DUP3 ADD MSTORE PUSH1 0x24 ADD JUMPDEST PUSH1 0x40 MLOAD DUP1 SWAP2 SUB SWAP1 REVERT JUMPDEST PUSH1 0x20 DUP8 ADD DUP1 CALLDATALOAD SWAP1 PUSH2 0x38B SWAP1 PUSH2 0x386 SWAP1 DUP11 PUSH2 0xE36 JUMP JUMPDEST PUSH2 0x6D2 JUMP JUMPDEST EQ PUSH2 0x3C9 JUMPI PUSH2 0x39D PUSH1 0x20 DUP9 ADD DUP9 PUSH2 0xE36 JUMP JUMPDEST PUSH1 0x40 MLOAD PUSH4 0x309AFAF3 PUSH1 0xE2 SHL DUP2 MSTORE PUSH4 0xFFFFFFFF SWAP1 SWAP2 AND PUSH1 0x4 DUP3 ADD MSTORE PUSH1 0x20 DUP9 ADD CALLDATALOAD PUSH1 0x24 DUP3 ADD MSTORE PUSH1 0x44 ADD PUSH2 0x368 JUMP JUMPDEST POP POP POP POP POP POP POP JUMP JUMPDEST PUSH1 0x0 CALLER DUP6 DUP6 PUSH1 0x40 MLOAD PUSH1 0x20 ADD PUSH2 0x3E9 SWAP4 SWAP3 SWAP2 SWAP1 PUSH2 0xEBA JUMP JUMPDEST PUSH1 0x40 DUP1 MLOAD PUSH1 0x1F NOT DUP2 DUP5 SUB ADD DUP2 MSTORE PUSH1 0x20 PUSH1 0x1F DUP7 ADD DUP2 SWAP1 DIV DUP2 MUL DUP5 ADD DUP2 ADD SWAP1 SWAP3 MSTORE DUP5 DUP4 MSTORE SWAP3 POP PUSH1 0x0 SWAP2 PUSH2 0x438 SWAP2 DUP10 SWAP2 DUP6 SWAP2 DUP9 SWAP1 DUP9 SWAP1 DUP2 SWAP1 DUP5 ADD DUP4 DUP3 DUP1 DUP3 DUP5 CALLDATACOPY PUSH1 0x0 SWAP3 ADD DUP3 SWAP1 MSTORE POP SWAP3 POP PUSH2 0x714 SWAP2 POP POP JUMP JUMPDEST DUP1 MLOAD SWAP1 SWAP2 POP CALLVALUE LT ISZERO PUSH2 0x47F JUMPI PUSH1 0x40 MLOAD PUSH3 0x461BCD PUSH1 0xE5 SHL DUP2 MSTORE PUSH1 0x20 PUSH1 0x4 DUP3 ADD MSTORE PUSH1 0x10 PUSH1 0x24 DUP3 ADD MSTORE PUSH16 0x496E73756666696369656E7420666565 PUSH1 0x80 SHL PUSH1 0x44 DUP3 ADD MSTORE PUSH1 0x64 ADD PUSH2 0x368 JUMP JUMPDEST PUSH2 0x4D7 DUP8 DUP4 DUP7 DUP7 DUP1 DUP1 PUSH1 0x1F ADD PUSH1 0x20 DUP1 SWAP2 DIV MUL PUSH1 0x20 ADD PUSH1 0x40 MLOAD SWAP1 DUP2 ADD PUSH1 0x40 MSTORE DUP1 SWAP4 SWAP3 SWAP2 SWAP1 DUP2 DUP2 MSTORE PUSH1 0x20 ADD DUP4 DUP4 DUP1 DUP3 DUP5 CALLDATACOPY PUSH1 0x0 SWAP3 ADD DUP3 SWAP1 MSTORE POP PUSH1 0x40 DUP1 MLOAD DUP1 DUP3 ADD SWAP1 SWAP2 MSTORE CALLVALUE DUP2 MSTORE PUSH1 0x20 DUP2 ADD SWAP2 SWAP1 SWAP2 MSTORE SWAP3 POP CALLER SWAP2 POP PUSH2 0x7F5 SWAP1 POP JUMP JUMPDEST POP CALLER PUSH1 0x1 PUSH1 0x1 PUSH1 0xA0 SHL SUB AND DUP8 PUSH4 0xFFFFFFFF AND PUSH32 0xE248E04963908A94D298FEE201B5047F8A85F6E443C24CE21C12EAA7E27AA01A DUP9 DUP9 PUSH1 0x40 MLOAD PUSH2 0x51A SWAP3 SWAP2 SWAP1 PUSH2 0xEDD JUMP JUMPDEST PUSH1 0x40 MLOAD DUP1 SWAP2 SUB SWAP1 LOG3 POP POP POP POP POP POP POP JUMP JUMPDEST PUSH2 0x533 PUSH2 0x8F5 JUMP JUMPDEST PUSH2 0x53D DUP3 DUP3 PUSH2 0x922 JUMP JUMPDEST POP POP JUMP JUMPDEST PUSH2 0x549 PUSH2 0x8F5 JUMP JUMPDEST PUSH2 0x553 PUSH1 0x0 PUSH2 0x977 JUMP JUMPDEST JUMP JUMPDEST PUSH2 0x55D PUSH2 0x8F5 JUMP JUMPDEST PUSH1 0x40 MLOAD PUSH4 0xCA5EB5E1 PUSH1 0xE0 SHL DUP2 MSTORE PUSH1 0x1 PUSH1 0x1 PUSH1 0xA0 SHL SUB DUP3 DUP2 AND PUSH1 0x4 DUP4 ADD MSTORE PUSH32 0x0 AND SWAP1 PUSH4 0xCA5EB5E1 SWAP1 PUSH1 0x24 ADD PUSH1 0x0 PUSH1 0x40 MLOAD DUP1 DUP4 SUB DUP2 PUSH1 0x0 DUP8 DUP1 EXTCODESIZE ISZERO DUP1 ISZERO PUSH2 0x5C0 JUMPI PUSH1 0x0 DUP1 REVERT JUMPDEST POP GAS CALL ISZERO DUP1 ISZERO PUSH2 0x5D4 JUMPI RETURNDATASIZE PUSH1 0x0 DUP1 RETURNDATACOPY RETURNDATASIZE PUSH1 0x0 REVERT JUMPDEST POP POP POP POP POP JUMP JUMPDEST PUSH1 0x40 DUP1 MLOAD DUP1 DUP3 ADD SWAP1 SWAP2 MSTORE PUSH1 0x0 DUP1 DUP3 MSTORE PUSH1 0x20 DUP3 ADD MSTORE PUSH1 0x0 CALLER DUP7 DUP7 PUSH1 0x40 MLOAD PUSH1 0x20 ADD PUSH2 0x606 SWAP4 SWAP3 SWAP2 SWAP1 PUSH2 0xEBA JUMP JUMPDEST PUSH1 0x40 DUP1 MLOAD PUSH1 0x1F NOT DUP2 DUP5 SUB ADD DUP2 MSTORE PUSH1 0x20 PUSH1 0x1F DUP8 ADD DUP2 SWAP1 DIV DUP2 MUL DUP5 ADD DUP2 ADD SWAP1 SWAP3 MSTORE DUP6 DUP4 MSTORE SWAP3 POP PUSH2 0x653 SWAP2 DUP10 SWAP2 DUP5 SWAP2 SWAP1 DUP9 SWAP1 DUP9 SWAP1 DUP2 SWAP1 DUP5 ADD DUP4 DUP3 DUP1 DUP3 DUP5 CALLDATACOPY PUSH1 0x0 SWAP3 ADD DUP3 SWAP1 MSTORE POP SWAP3 POP PUSH2 0x714 SWAP2 POP POP JUMP JUMPDEST SWAP8 SWAP7 POP POP POP POP POP POP POP JUMP JUMPDEST PUSH2 0x666 PUSH2 0x8F5 JUMP JUMPDEST PUSH1 0x1 PUSH1 0x1 PUSH1 0xA0 SHL SUB DUP2 AND PUSH2 0x690 JUMPI PUSH1 0x40 MLOAD PUSH4 0x1E4FBDF7 PUSH1 0xE0 SHL DUP2 MSTORE PUSH1 0x0 PUSH1 0x4 DUP3 ADD MSTORE PUSH1 0x24 ADD PUSH2 0x368 JUMP JUMPDEST PUSH2 0x699 DUP2 PUSH2 0x977 JUMP JUMPDEST POP JUMP JUMPDEST PUSH1 0x0 PUSH1 0x20 DUP3 ADD DUP1 CALLDATALOAD SWAP1 PUSH1 0x1 SWAP1 DUP4 SWAP1 PUSH2 0x6B4 SWAP1 DUP7 PUSH2 0xE36 JUMP JUMPDEST PUSH4 0xFFFFFFFF AND DUP2 MSTORE PUSH1 0x20 DUP2 ADD SWAP2 SWAP1 SWAP2 MSTORE PUSH1 0x40 ADD PUSH1 0x0 KECCAK256 SLOAD EQ SWAP3 SWAP2 POP POP JUMP JUMPDEST PUSH4 0xFFFFFFFF DUP2 AND PUSH1 0x0 SWAP1 DUP2 MSTORE PUSH1 0x1 PUSH1 0x20 MSTORE PUSH1 0x40 DUP2 KECCAK256 SLOAD DUP1 PUSH2 0x70E JUMPI PUSH1 0x40 MLOAD PUSH4 0xF6FF4FB7 PUSH1 0xE0 SHL DUP2 MSTORE PUSH4 0xFFFFFFFF DUP5 AND PUSH1 0x4 DUP3 ADD MSTORE PUSH1 0x24 ADD PUSH2 0x368 JUMP JUMPDEST SWAP3 SWAP2 POP POP JUMP JUMPDEST PUSH1 0x40 DUP1 MLOAD DUP1 DUP3 ADD SWAP1 SWAP2 MSTORE PUSH1 0x0 DUP1 DUP3 MSTORE PUSH1 0x20 DUP3 ADD MSTORE PUSH32 0x0 PUSH1 0x1 PUSH1 0x1 PUSH1 0xA0 SHL SUB AND PUSH4 0xDDC28C58 PUSH1 0x40 MLOAD DUP1 PUSH1 0xA0 ADD PUSH1 0x40 MSTORE DUP1 DUP9 PUSH4 0xFFFFFFFF AND DUP2 MSTORE PUSH1 0x20 ADD PUSH2 0x777 DUP10 PUSH2 0x6D2 JUMP JUMPDEST DUP2 MSTORE PUSH1 0x20 ADD DUP8 DUP2 MSTORE PUSH1 0x20 ADD DUP7 DUP2 MSTORE PUSH1 0x20 ADD DUP6 ISZERO ISZERO DUP2 MSTORE POP ADDRESS PUSH1 0x40 MLOAD DUP4 PUSH4 0xFFFFFFFF AND PUSH1 0xE0 SHL DUP2 MSTORE PUSH1 0x4 ADD PUSH2 0x7AC SWAP3 SWAP2 SWAP1 PUSH2 0xF3F JUMP JUMPDEST PUSH1 0x40 DUP1 MLOAD DUP1 DUP4 SUB DUP2 DUP7 GAS STATICCALL ISZERO DUP1 ISZERO PUSH2 0x7C8 JUMPI RETURNDATASIZE PUSH1 0x0 DUP1 RETURNDATACOPY RETURNDATASIZE PUSH1 0x0 REVERT JUMPDEST POP POP POP POP PUSH1 0x40 MLOAD RETURNDATASIZE PUSH1 0x1F NOT PUSH1 0x1F DUP3 ADD AND DUP3 ADD DUP1 PUSH1 0x40 MSTORE POP DUP2 ADD SWAP1 PUSH2 0x7EC SWAP2 SWAP1 PUSH2 0x1015 JUMP JUMPDEST SWAP6 SWAP5 POP POP POP POP POP JUMP JUMPDEST PUSH2 0x7FD PUSH2 0xBA5 JUMP JUMPDEST PUSH1 0x0 PUSH2 0x80C DUP5 PUSH1 0x0 ADD MLOAD PUSH2 0x9D4 JUMP JUMPDEST PUSH1 0x20 DUP6 ADD MLOAD SWAP1 SWAP2 POP ISZERO PUSH2 0x826 JUMPI PUSH2 0x826 DUP5 PUSH1 0x20 ADD MLOAD PUSH2 0x9FC JUMP JUMPDEST PUSH32 0x0 PUSH1 0x1 PUSH1 0x1 PUSH1 0xA0 SHL SUB AND PUSH4 0x2637A450 DUP3 PUSH1 0x40 MLOAD DUP1 PUSH1 0xA0 ADD PUSH1 0x40 MSTORE DUP1 DUP12 PUSH4 0xFFFFFFFF AND DUP2 MSTORE PUSH1 0x20 ADD PUSH2 0x876 DUP13 PUSH2 0x6D2 JUMP JUMPDEST DUP2 MSTORE PUSH1 0x20 ADD DUP11 DUP2 MSTORE PUSH1 0x20 ADD DUP10 DUP2 MSTORE PUSH1 0x20 ADD PUSH1 0x0 DUP10 PUSH1 0x20 ADD MLOAD GT ISZERO ISZERO DUP2 MSTORE POP DUP7 PUSH1 0x40 MLOAD DUP5 PUSH4 0xFFFFFFFF AND PUSH1 0xE0 SHL DUP2 MSTORE PUSH1 0x4 ADD PUSH2 0x8B2 SWAP3 SWAP2 SWAP1 PUSH2 0xF3F JUMP JUMPDEST PUSH1 0x80 PUSH1 0x40 MLOAD DUP1 DUP4 SUB DUP2 DUP6 DUP9 GAS CALL ISZERO DUP1 ISZERO PUSH2 0x8D0 JUMPI RETURNDATASIZE PUSH1 0x0 DUP1 RETURNDATACOPY RETURNDATASIZE PUSH1 0x0 REVERT JUMPDEST POP POP POP POP POP PUSH1 0x40 MLOAD RETURNDATASIZE PUSH1 0x1F NOT PUSH1 0x1F DUP3 ADD AND DUP3 ADD DUP1 PUSH1 0x40 MSTORE POP DUP2 ADD SWAP1 PUSH2 0x653 SWAP2 SWAP1 PUSH2 0x1031 JUMP JUMPDEST PUSH1 0x0 SLOAD PUSH1 0x1 PUSH1 0x1 PUSH1 0xA0 SHL SUB AND CALLER EQ PUSH2 0x553 JUMPI PUSH1 0x40 MLOAD PUSH4 0x118CDAA7 PUSH1 0xE0 SHL DUP2 MSTORE CALLER PUSH1 0x4 DUP3 ADD MSTORE PUSH1 0x24 ADD PUSH2 0x368 JUMP JUMPDEST PUSH4 0xFFFFFFFF DUP3 AND PUSH1 0x0 DUP2 DUP2 MSTORE PUSH1 0x1 PUSH1 0x20 SWAP1 DUP2 MSTORE PUSH1 0x40 SWAP2 DUP3 SWAP1 KECCAK256 DUP5 SWAP1 SSTORE DUP2 MLOAD SWAP3 DUP4 MSTORE DUP3 ADD DUP4 SWAP1 MSTORE PUSH32 0x238399D427B947898EDB290F5FF0F9109849B1C3BA196A42E35F00C50A54B98B SWAP2 ADD PUSH1 0x40 MLOAD DUP1 SWAP2 SUB SWAP1 LOG1 POP POP JUMP JUMPDEST PUSH1 0x0 DUP1 SLOAD PUSH1 0x1 PUSH1 0x1 PUSH1 0xA0 SHL SUB DUP4 DUP2 AND PUSH20 0xFFFFFFFFFFFFFFFFFFFFFFFFFFFFFFFFFFFFFFFF NOT DUP4 AND DUP2 OR DUP5 SSTORE PUSH1 0x40 MLOAD SWAP2 SWAP1 SWAP3 AND SWAP3 DUP4 SWAP2 PUSH32 0x8BE0079C531659141344CD1FD0A4F28419497F9722A3DAAFE3B4186F6B6457E0 SWAP2 SWAP1 LOG3 POP POP JUMP JUMPDEST PUSH1 0x0 DUP2 CALLVALUE EQ PUSH2 0x9F8 JUMPI PUSH1 0x40 MLOAD PUSH4 0x4FB8209 PUSH1 0xE5 SHL DUP2 MSTORE CALLVALUE PUSH1 0x4 DUP3 ADD MSTORE PUSH1 0x24 ADD PUSH2 0x368 JUMP JUMPDEST POP SWAP1 JUMP JUMPDEST PUSH1 0x0 PUSH32 0x0 PUSH1 0x1 PUSH1 0x1 PUSH1 0xA0 SHL SUB AND PUSH4 0xE4FE1D94 PUSH1 0x40 MLOAD DUP2 PUSH4 0xFFFFFFFF AND PUSH1 0xE0 SHL DUP2 MSTORE PUSH1 0x4 ADD PUSH1 0x20 PUSH1 0x40 MLOAD DUP1 DUP4 SUB DUP2 DUP7 GAS STATICCALL ISZERO DUP1 ISZERO PUSH2 0xA5C JUMPI RETURNDATASIZE PUSH1 0x0 DUP1 RETURNDATACOPY RETURNDATASIZE PUSH1 0x0 REVERT JUMPDEST POP POP POP POP PUSH1 0x40 MLOAD RETURNDATASIZE PUSH1 0x1F NOT PUSH1 0x1F DUP3 ADD AND DUP3 ADD DUP1 PUSH1 0x40 MSTORE POP DUP2 ADD SWAP1 PUSH2 0xA80 SWAP2 SWAP1 PUSH2 0x10B7 JUMP JUMPDEST SWAP1 POP PUSH1 0x1 PUSH1 0x1 PUSH1 0xA0 SHL SUB DUP2 AND PUSH2 0xAA9 JUMPI PUSH1 0x40 MLOAD PUSH4 0x29B99A95 PUSH1 0xE1 SHL DUP2 MSTORE PUSH1 0x4 ADD PUSH1 0x40 MLOAD DUP1 SWAP2 SUB SWAP1 REVERT JUMPDEST PUSH1 0x40 DUP1 MLOAD CALLER PUSH1 0x24 DUP3 ADD DUP2 SWAP1 MSTORE PUSH32 0x0 PUSH1 0x1 PUSH1 0x1 PUSH1 0xA0 SHL SUB DUP2 DUP2 AND PUSH1 0x44 DUP6 ADD MSTORE PUSH1 0x64 DUP1 DUP6 ADD DUP9 SWAP1 MSTORE DUP6 MLOAD DUP1 DUP7 SUB SWAP1 SWAP2 ADD DUP2 MSTORE PUSH1 0x84 SWAP1 SWAP5 ADD SWAP1 SWAP5 MSTORE PUSH1 0x20 DUP4 ADD DUP1 MLOAD PUSH1 0x1 PUSH1 0x1 PUSH1 0xE0 SHL SUB AND PUSH4 0x23B872DD PUSH1 0xE0 SHL OR SWAP1 MSTORE PUSH2 0x53D SWAP4 DUP6 AND SWAP3 DUP7 SWAP1 PUSH2 0xB2E SWAP1 DUP6 SWAP1 PUSH2 0xB34 JUMP JUMPDEST POP POP POP POP JUMP JUMPDEST PUSH1 0x0 DUP1 PUSH1 0x20 PUSH1 0x0 DUP5 MLOAD PUSH1 0x20 DUP7 ADD PUSH1 0x0 DUP9 GAS CALL DUP1 PUSH2 0xB57 JUMPI PUSH1 0x40 MLOAD RETURNDATASIZE PUSH1 0x0 DUP3 RETURNDATACOPY RETURNDATASIZE DUP2 REVERT JUMPDEST POP POP PUSH1 0x0 MLOAD RETURNDATASIZE SWAP2 POP DUP2 ISZERO PUSH2 0xB6F JUMPI DUP1 PUSH1 0x1 EQ ISZERO PUSH2 0xB7C JUMP JUMPDEST PUSH1 0x1 PUSH1 0x1 PUSH1 0xA0 SHL SUB DUP5 AND EXTCODESIZE ISZERO JUMPDEST ISZERO PUSH2 0xB2E JUMPI PUSH1 0x40 MLOAD PUSH4 0x5274AFE7 PUSH1 0xE0 SHL DUP2 MSTORE PUSH1 0x1 PUSH1 0x1 PUSH1 0xA0 SHL SUB DUP6 AND PUSH1 0x4 DUP3 ADD MSTORE PUSH1 0x24 ADD PUSH2 0x368 JUMP JUMPDEST PUSH1 0x40 MLOAD DUP1 PUSH1 0x60 ADD PUSH1 0x40 MSTORE DUP1 PUSH1 0x0 DUP1 NOT AND DUP2 MSTORE PUSH1 0x20 ADD PUSH1 0x0 PUSH8 0xFFFFFFFFFFFFFFFF AND DUP2 MSTORE PUSH1 0x20 ADD PUSH2 0xBE8 PUSH1 0x40 MLOAD DUP1 PUSH1 0x40 ADD PUSH1 0x40 MSTORE DUP1 PUSH1 0x0 DUP2 MSTORE PUSH1 0x20 ADD PUSH1 0x0 DUP2 MSTORE POP SWAP1 JUMP JUMPDEST SWAP1 MSTORE SWAP1 JUMP JUMPDEST PUSH1 0x0 PUSH1 0x60 DUP3 DUP5 SUB SLT ISZERO PUSH2 0xBFF JUMPI PUSH1 0x0 DUP1 REVERT JUMPDEST POP SWAP2 SWAP1 POP JUMP JUMPDEST PUSH1 0x0 DUP1 DUP4 PUSH1 0x1F DUP5 ADD SLT PUSH2 0xC17 JUMPI PUSH1 0x0 DUP1 REVERT JUMPDEST POP DUP2 CALLDATALOAD PUSH8 0xFFFFFFFFFFFFFFFF DUP2 GT ISZERO PUSH2 0xC2F JUMPI PUSH1 0x0 DUP1 REVERT JUMPDEST PUSH1 0x20 DUP4 ADD SWAP2 POP DUP4 PUSH1 0x20 DUP3 DUP6 ADD ADD GT ISZERO PUSH2 0xC47 JUMPI PUSH1 0x0 DUP1 REVERT JUMPDEST SWAP3 POP SWAP3 SWAP1 POP JUMP JUMPDEST PUSH1 0x1 PUSH1 0x1 PUSH1 0xA0 SHL SUB DUP2 AND DUP2 EQ PUSH2 0x699 JUMPI PUSH1 0x0 DUP1 REVERT JUMPDEST PUSH1 0x0 DUP1 PUSH1 0x0 DUP1 PUSH1 0x0 DUP1 PUSH1 0x0 PUSH1 0xE0 DUP9 DUP11 SUB SLT ISZERO PUSH2 0xC7E JUMPI PUSH1 0x0 DUP1 REVERT JUMPDEST PUSH2 0xC88 DUP10 DUP10 PUSH2 0xBED JUMP JUMPDEST SWAP7 POP PUSH1 0x60 DUP9 ADD CALLDATALOAD SWAP6 POP PUSH1 0x80 DUP9 ADD CALLDATALOAD PUSH8 0xFFFFFFFFFFFFFFFF DUP2 GT ISZERO PUSH2 0xCAB JUMPI PUSH1 0x0 DUP1 REVERT JUMPDEST PUSH2 0xCB7 DUP11 DUP3 DUP12 ADD PUSH2 0xC05 JUMP JUMPDEST SWAP1 SWAP7 POP SWAP5 POP POP PUSH1 0xA0 DUP9 ADD CALLDATALOAD PUSH2 0xCCB DUP2 PUSH2 0xC4E JUMP JUMPDEST SWAP3 POP PUSH1 0xC0 DUP9 ADD CALLDATALOAD PUSH8 0xFFFFFFFFFFFFFFFF DUP2 GT ISZERO PUSH2 0xCE7 JUMPI PUSH1 0x0 DUP1 REVERT JUMPDEST PUSH2 0xCF3 DUP11 DUP3 DUP12 ADD PUSH2 0xC05 JUMP JUMPDEST SWAP9 SWAP12 SWAP8 SWAP11 POP SWAP6 SWAP9 POP SWAP4 SWAP7 SWAP3 SWAP6 SWAP3 SWAP4 POP POP POP JUMP JUMPDEST DUP1 CALLDATALOAD PUSH4 0xFFFFFFFF DUP2 AND DUP2 EQ PUSH2 0xD1A JUMPI PUSH1 0x0 DUP1 REVERT JUMPDEST SWAP2 SWAP1 POP JUMP JUMPDEST PUSH1 0x0 DUP1 PUSH1 0x0 DUP1 PUSH1 0x0 PUSH1 0x60 DUP7 DUP9 SUB SLT ISZERO PUSH2 0xD37 JUMPI PUSH1 0x0 DUP1 REVERT JUMPDEST PUSH2 0xD40 DUP7 PUSH2 0xD06 JUMP JUMPDEST SWAP5 POP PUSH1 0x20 DUP7 ADD CALLDATALOAD PUSH8 0xFFFFFFFFFFFFFFFF DUP2 GT ISZERO PUSH2 0xD5C JUMPI PUSH1 0x0 DUP1 REVERT JUMPDEST PUSH2 0xD68 DUP9 DUP3 DUP10 ADD PUSH2 0xC05 JUMP JUMPDEST SWAP1 SWAP6 POP SWAP4 POP POP PUSH1 0x40 DUP7 ADD CALLDATALOAD PUSH8 0xFFFFFFFFFFFFFFFF DUP2 GT ISZERO PUSH2 0xD88 JUMPI PUSH1 0x0 DUP1 REVERT JUMPDEST PUSH2 0xD94 DUP9 DUP3 DUP10 ADD PUSH2 0xC05 JUMP JUMPDEST SWAP7 SWAP10 SWAP6 SWAP9 POP SWAP4 SWAP7 POP SWAP3 SWAP5 SWAP4 SWAP3 POP POP POP JUMP JUMPDEST PUSH1 0x0 DUP1 PUSH1 0x40 DUP4 DUP6 SUB SLT ISZERO PUSH2 0xDB8 JUMPI PUSH1 0x0 DUP1 REVERT JUMPDEST PUSH2 0xDC1 DUP4 PUSH2 0xD06 JUMP JUMPDEST SWAP5 PUSH1 0x20 SWAP4 SWAP1 SWAP4 ADD CALLDATALOAD SWAP4 POP POP POP JUMP JUMPDEST PUSH1 0x0 DUP1 PUSH1 0x0 DUP1 PUSH1 0xA0 DUP6 DUP8 SUB SLT ISZERO PUSH2 0xDE5 JUMPI PUSH1 0x0 DUP1 REVERT JUMPDEST PUSH2 0xDEF DUP7 DUP7 PUSH2 0xBED JUMP JUMPDEST SWAP4 POP PUSH1 0x60 DUP6 ADD CALLDATALOAD PUSH8 0xFFFFFFFFFFFFFFFF DUP2 GT ISZERO PUSH2 0xE0B JUMPI PUSH1 0x0 DUP1 REVERT JUMPDEST PUSH2 0xE17 DUP8 DUP3 DUP9 ADD PUSH2 0xC05 JUMP JUMPDEST SWAP1 SWAP5 POP SWAP3 POP POP PUSH1 0x80 DUP6 ADD CALLDATALOAD PUSH2 0xE2B DUP2 PUSH2 0xC4E JUMP JUMPDEST SWAP4 SWAP7 SWAP3 SWAP6 POP SWAP1 SWAP4 POP POP JUMP JUMPDEST PUSH1 0x0 PUSH1 0x20 DUP3 DUP5 SUB SLT ISZERO PUSH2 0xE48 JUMPI PUSH1 0x0 DUP1 REVERT JUMPDEST PUSH2 0xE51 DUP3 PUSH2 0xD06 JUMP JUMPDEST SWAP4 SWAP3 POP POP POP JUMP JUMPDEST PUSH1 0x0 PUSH1 0x20 DUP3 DUP5 SUB SLT ISZERO PUSH2 0xE6A JUMPI PUSH1 0x0 DUP1 REVERT JUMPDEST DUP2 CALLDATALOAD PUSH2 0xE51 DUP2 PUSH2 0xC4E JUMP JUMPDEST PUSH1 0x0 PUSH1 0x60 DUP3 DUP5 SUB SLT ISZERO PUSH2 0xE87 JUMPI PUSH1 0x0 DUP1 REVERT JUMPDEST PUSH2 0xE51 DUP4 DUP4 PUSH2 0xBED JUMP JUMPDEST DUP2 DUP4 MSTORE DUP2 DUP2 PUSH1 0x20 DUP6 ADD CALLDATACOPY POP PUSH1 0x0 DUP3 DUP3 ADD PUSH1 0x20 SWAP1 DUP2 ADD SWAP2 SWAP1 SWAP2 MSTORE PUSH1 0x1F SWAP1 SWAP2 ADD PUSH1 0x1F NOT AND SWAP1 SWAP2 ADD ADD SWAP1 JUMP JUMPDEST PUSH1 0x1 PUSH1 0x1 PUSH1 0xA0 SHL SUB DUP5 AND DUP2 MSTORE PUSH1 0x40 PUSH1 0x20 DUP3 ADD MSTORE PUSH1 0x0 PUSH2 0x7EC PUSH1 0x40 DUP4 ADD DUP5 DUP7 PUSH2 0xE91 JUMP JUMPDEST PUSH1 0x20 DUP2 MSTORE PUSH1 0x0 PUSH2 0xEF1 PUSH1 0x20 DUP4 ADD DUP5 DUP7 PUSH2 0xE91 JUMP JUMPDEST SWAP5 SWAP4 POP POP POP POP JUMP JUMPDEST PUSH1 0x0 DUP2 MLOAD DUP1 DUP5 MSTORE PUSH1 0x0 JUMPDEST DUP2 DUP2 LT ISZERO PUSH2 0xF1F JUMPI PUSH1 0x20 DUP2 DUP6 ADD DUP2 ADD MLOAD DUP7 DUP4 ADD DUP3 ADD MSTORE ADD PUSH2 0xF03 JUMP JUMPDEST POP PUSH1 0x0 PUSH1 0x20 DUP3 DUP7 ADD ADD MSTORE PUSH1 0x20 PUSH1 0x1F NOT PUSH1 0x1F DUP4 ADD AND DUP6 ADD ADD SWAP2 POP POP SWAP3 SWAP2 POP POP JUMP JUMPDEST PUSH1 0x40 DUP2 MSTORE PUSH4 0xFFFFFFFF DUP4 MLOAD AND PUSH1 0x40 DUP3 ADD MSTORE PUSH1 0x20 DUP4 ADD MLOAD PUSH1 0x60 DUP3 ADD MSTORE PUSH1 0x0 PUSH1 0x40 DUP5 ADD MLOAD PUSH1 0xA0 PUSH1 0x80 DUP5 ADD MSTORE PUSH2 0xF75 PUSH1 0xE0 DUP5 ADD DUP3 PUSH2 0xEF9 JUMP JUMPDEST SWAP1 POP PUSH1 0x60 DUP6 ADD MLOAD PUSH1 0x3F NOT DUP5 DUP4 SUB ADD PUSH1 0xA0 DUP6 ADD MSTORE PUSH2 0xF92 DUP3 DUP3 PUSH2 0xEF9 JUMP JUMPDEST PUSH1 0x80 SWAP7 SWAP1 SWAP7 ADD MLOAD ISZERO ISZERO PUSH1 0xC0 DUP6 ADD MSTORE POP POP POP PUSH1 0x1 PUSH1 0x1 PUSH1 0xA0 SHL SUB SWAP2 SWAP1 SWAP2 AND PUSH1 0x20 SWAP1 SWAP2 ADD MSTORE SWAP1 JUMP JUMPDEST PUSH1 0x0 PUSH1 0x40 DUP3 DUP5 SUB SLT ISZERO PUSH2 0xFCA JUMPI PUSH1 0x0 DUP1 REVERT JUMPDEST PUSH1 0x40 DUP1 MLOAD SWAP1 DUP2 ADD PUSH8 0xFFFFFFFFFFFFFFFF DUP2 GT DUP3 DUP3 LT OR ISZERO PUSH2 0xFFB JUMPI PUSH4 0x4E487B71 PUSH1 0xE0 SHL PUSH1 0x0 MSTORE PUSH1 0x41 PUSH1 0x4 MSTORE PUSH1 0x24 PUSH1 0x0 REVERT JUMPDEST PUSH1 0x40 MSTORE DUP3 MLOAD DUP2 MSTORE PUSH1 0x20 SWAP3 DUP4 ADD MLOAD SWAP3 DUP2 ADD SWAP3 SWAP1 SWAP3 MSTORE POP SWAP2 SWAP1 POP JUMP JUMPDEST PUSH1 0x0 PUSH1 0x40 DUP3 DUP5 SUB SLT ISZERO PUSH2 0x1027 JUMPI PUSH1 0x0 DUP1 REVERT JUMPDEST PUSH2 0xE51 DUP4 DUP4 PUSH2 0xFB8 JUMP JUMPDEST PUSH1 0x0 PUSH1 0x80 DUP3 DUP5 SUB SLT DUP1 ISZERO PUSH2 0x1044 JUMPI PUSH1 0x0 DUP1 REVERT JUMPDEST POP PUSH1 0x40 MLOAD PUSH1 0x0 SWAP1 PUSH1 0x60 DUP2 ADD PUSH8 0xFFFFFFFFFFFFFFFF DUP2 GT DUP3 DUP3 LT OR ISZERO PUSH2 0x1077 JUMPI PUSH4 0x4E487B71 PUSH1 0xE0 SHL DUP4 MSTORE PUSH1 0x41 PUSH1 0x4 MSTORE PUSH1 0x24 DUP4 REVERT JUMPDEST PUSH1 0x40 MSTORE DUP4 MLOAD DUP2 MSTORE PUSH1 0x20 DUP5 ADD MLOAD PUSH8 0xFFFFFFFFFFFFFFFF DUP2 AND DUP2 EQ PUSH2 0x1098 JUMPI DUP3 DUP4 REVERT JUMPDEST PUSH1 0x20 DUP3 ADD MSTORE PUSH2 0x10AA DUP6 PUSH1 0x40 DUP7 ADD PUSH2 0xFB8 JUMP JUMPDEST PUSH1 0x40 DUP3 ADD MSTORE SWAP5 SWAP4 POP POP POP POP JUMP JUMPDEST PUSH1 0x0 PUSH1 0x20 DUP3 DUP5 SUB SLT ISZERO PUSH2 0x10C9 JUMPI PUSH1 0x0 DUP1 REVERT JUMPDEST DUP2 MLOAD PUSH2 0xE51 DUP2 PUSH2 0xC4E JUMP INVALID LOG2 PUSH5 0x6970667358 0x22 SLT KECCAK256 JUMP LOG3 GASLIMIT SUB 0xC SWAP5 PUSH20 0x4F829B69ACF7143CFD529E86FA1CF18FC50AC180 PUSH21 0x20256F9964736F6C634300081C0033000000000000 "
				},
				"gasEstimates": {
					"creation": {
						"codeDepositCost": "872400",
						"executionCost": "infinite",
						"totalCost": "infinite"
					},
					"external": {
						"allowInitializePath((uint32,bytes32,uint64))": "infinite",
						"createProfile(uint32,string,bytes)": "infinite",
						"endpoint()": "infinite",
						"isComposeMsgSender((uint32,bytes32,uint64),bytes,address)": "740",
						"lzReceive((uint32,bytes32,uint64),bytes32,bytes,address,bytes)": "infinite",
						"nextNonce(uint32,bytes32)": "467",
						"oAppVersion()": "230",
						"owner()": "2376",
						"peers(uint32)": "2574",
						"quote(uint32,string,bytes)": "infinite",
						"renounceOwnership()": "infinite",
						"setDelegate(address)": "infinite",
						"setPeer(uint32,bytes32)": "26060",
						"transferOwnership(address)": "infinite"
					},
					"internal": {
						"_lzReceive(struct Origin calldata,bytes32,bytes calldata,address,bytes calldata)": "infinite"
					}
				},
				"methodIdentifiers": {
					"allowInitializePath((uint32,bytes32,uint64))": "ff7bd03d",
					"createProfile(uint32,string,bytes)": "306e1d95",
					"endpoint()": "5e280f11",
					"isComposeMsgSender((uint32,bytes32,uint64),bytes,address)": "82413eac",
					"lzReceive((uint32,bytes32,uint64),bytes32,bytes,address,bytes)": "13137d65",
					"nextNonce(uint32,bytes32)": "7d25a05e",
					"oAppVersion()": "17442b70",
					"owner()": "8da5cb5b",
					"peers(uint32)": "bb0b6a53",
					"quote(uint32,string,bytes)": "dab6ffde",
					"renounceOwnership()": "715018a6",
					"setDelegate(address)": "ca5eb5e1",
					"setPeer(uint32,bytes32)": "3400288b",
					"transferOwnership(address)": "f2fde38b"
				}
			},
			"storageLayout": {
				"storage": [
					{
						"astId": 1327,
						"contract": "profile_sender.sol:ArbitrumProfileSender",
						"label": "_owner",
						"offset": 0,
						"slot": "0",
						"type": "t_address"
					},
					{
						"astId": 785,
						"contract": "profile_sender.sol:ArbitrumProfileSender",
						"label": "peers",
						"offset": 0,
						"slot": "1",
						"type": "t_mapping(t_uint32,t_bytes32)"
					}
				],
				"types": {
					"t_address": {
						"encoding": "inplace",
						"label": "address",
						"numberOfBytes": "20"
					},
					"t_bytes32": {
						"encoding": "inplace",
						"label": "bytes32",
						"numberOfBytes": "32"
					},
					"t_mapping(t_uint32,t_bytes32)": {
						"encoding": "mapping",
						"key": "t_uint32",
						"label": "mapping(uint32 => bytes32)",
						"numberOfBytes": "32",
						"value": "t_bytes32"
					},
					"t_uint32": {
						"encoding": "inplace",
						"label": "uint32",
						"numberOfBytes": "4"
					}
				}
			},
			"userdoc": {
				"kind": "user",
				"methods": {
					"allowInitializePath((uint32,bytes32,uint64))": {
						"notice": "Checks if the path initialization is allowed based on the provided origin."
					},
					"endpoint()": {
						"notice": "Retrieves the LayerZero endpoint associated with the OApp."
					},
					"isComposeMsgSender((uint32,bytes32,uint64),bytes,address)": {
						"notice": "Indicates whether an address is an approved composeMsg sender to the Endpoint."
					},
					"nextNonce(uint32,bytes32)": {
						"notice": "Retrieves the next nonce for a given source endpoint and sender address."
					},
					"oAppVersion()": {
						"notice": "Retrieves the OApp version information."
					},
					"peers(uint32)": {
						"notice": "Retrieves the peer (OApp) associated with a corresponding endpoint."
					},
					"setDelegate(address)": {
						"notice": "Sets the delegate address for the OApp."
					},
					"setPeer(uint32,bytes32)": {
						"notice": "Sets the peer address (OApp instance) for a corresponding endpoint."
					}
				},
				"version": 1
			}
		}
	}
}