{
	"proxy.sol": {
		"GenericProxyDeployer": {
			"abi": [
				{
					"anonymous": false,
					"inputs": [
						{
							"indexed": true,
							"internalType": "address",
							"name": "proxy",
							"type": "address"
						},
						{
							"indexed": true,
							"internalType": "address",
							"name": "implementation",
							"type": "address"
						}
					],
					"name": "ProxyDeployed",
					"type": "event"
				},
				{
					"inputs": [
						{
							"internalType": "address",
							"name": "implementation",
							"type": "address"
						},
						{
							"internalType": "bytes",
							"name": "initData",
							"type": "bytes"
						}
					],
					"name": "deployProxy",
					"outputs": [
						{
							"internalType": "address",
							"name": "",
							"type": "address"
						}
					],
					"stateMutability": "nonpayable",
					"type": "function"
				},
				{
					"inputs": [
						{
							"internalType": "address",
							"name": "implementation",
							"type": "address"
						}
					],
					"name": "deployProxyWithoutInit",
					"outputs": [
						{
							"internalType": "address",
							"name": "",
							"type": "address"
						}
					],
					"stateMutability": "nonpayable",
					"type": "function"
				}
			],
			"devdoc": {
				"details": "Helper contract to deploy proxies for any contract with any initialization data",
				"kind": "dev",
				"methods": {
					"deployProxy(address,bytes)": {
						"details": "Deploy a proxy with custom initialization data",
						"params": {
							"implementation": "Address of the implementation contract",
							"initData": "Encoded initialization function call"
						}
					},
					"deployProxyWithoutInit(address)": {
						"details": "Deploy a proxy without initialization (for contracts with no initializer)",
						"params": {
							"implementation": "Address of the implementation contract"
						}
					}
				},
				"title": "GenericProxyDeployer",
				"version": 1
			},
			"evm": {
				"assembly": "    /* \"proxy.sol\":519:1766  contract GenericProxyDeployer {... */\n  mstore(0x40, 0x80)\n  callvalue\n  dup1\n  iszero\n  tag_1\n  jumpi\n  0x00\n  dup1\n  revert\ntag_1:\n  pop\n  dataSize(sub_0)\n  dup1\n  dataOffset(sub_0)\n  0x00\n  codecopy\n  0x00\n  return\nstop\n\nsub_0: assembly {\n        /* \"proxy.sol\":519:1766  contract GenericProxyDeployer {... */\n      mstore(0x40, 0x80)\n      callvalue\n      dup1\n      iszero\n      tag_1\n      jumpi\n      0x00\n      dup1\n      revert\n    tag_1:\n      pop\n      jumpi(tag_2, lt(calldatasize, 0x04))\n      shr(0xe0, calldataload(0x00))\n      dup1\n      0x08826ac1\n      eq\n      tag_3\n      jumpi\n      dup1\n      0x9f5eed75\n      eq\n      tag_4\n      jumpi\n    tag_2:\n      0x00\n      dup1\n      revert\n        /* \"proxy.sol\":1392:1764  function deployProxyWithoutInit(... */\n    tag_3:\n      tag_5\n      tag_6\n      calldatasize\n      0x04\n      tag_7\n      jump\t// in\n    tag_6:\n      tag_8\n      jump\t// in\n    tag_5:\n      mload(0x40)\n      sub(shl(0xa0, 0x01), 0x01)\n        /* \"#utility.yul\":570:625   */\n      swap1\n      swap2\n      and\n        /* \"#utility.yul\":552:626   */\n      dup2\n      mstore\n        /* \"#utility.yul\":540:542   */\n      0x20\n        /* \"#utility.yul\":525:543   */\n      add\n        /* \"proxy.sol\":1392:1764  function deployProxyWithoutInit(... */\n      mload(0x40)\n      dup1\n      swap2\n      sub\n      swap1\n      return\n        /* \"proxy.sol\":843:1212  function deployProxy(... */\n    tag_4:\n      tag_5\n      tag_12\n      calldatasize\n      0x04\n      tag_13\n      jump\t// in\n    tag_12:\n      tag_14\n      jump\t// in\n        /* \"proxy.sol\":1392:1764  function deployProxyWithoutInit(... */\n    tag_8:\n        /* \"proxy.sol\":1480:1487  address */\n      0x00\n        /* \"proxy.sol\":1558:1580  GenericUUPSProxy proxy */\n      dup1\n        /* \"proxy.sol\":1617:1631  implementation */\n      dup3\n        /* \"proxy.sol\":1583:1657  new GenericUUPSProxy(... */\n      mload(0x40)\n      tag_17\n      swap1\n      tag_18\n      jump\t// in\n    tag_17:\n      sub(shl(0xa0, 0x01), 0x01)\n        /* \"#utility.yul\":1531:1586   */\n      swap1\n      swap2\n      and\n        /* \"#utility.yul\":1513:1587   */\n      dup2\n      mstore\n        /* \"#utility.yul\":1623:1625   */\n      0x40\n        /* \"#utility.yul\":1618:1620   */\n      0x20\n        /* \"#utility.yul\":1603:1621   */\n      dup3\n      add\n        /* \"#utility.yul\":1596:1626   */\n      dup2\n      swap1\n      mstore\n      0x00\n        /* \"#utility.yul\":1642:1660   */\n      swap1\n      dup3\n      add\n        /* \"#utility.yul\":1635:1664   */\n      mstore\n        /* \"#utility.yul\":1696:1698   */\n      0x60\n        /* \"#utility.yul\":1681:1699   */\n      add\n        /* \"proxy.sol\":1583:1657  new GenericUUPSProxy(... */\n      mload(0x40)\n      dup1\n      swap2\n      sub\n      swap1\n      0x00\n      create\n      dup1\n      iszero\n      dup1\n      iszero\n      tag_21\n      jumpi\n      returndatasize\n      0x00\n      dup1\n      returndatacopy\n      revert(0x00, returndatasize)\n    tag_21:\n      pop\n        /* \"proxy.sol\":1558:1657  GenericUUPSProxy proxy = new GenericUUPSProxy(... */\n      swap1\n      pop\n        /* \"proxy.sol\":1711:1725  implementation */\n      dup3\n      sub(shl(0xa0, 0x01), 0x01)\n        /* \"proxy.sol\":1681:1726  ProxyDeployed(address(proxy), implementation) */\n      and\n        /* \"proxy.sol\":1703:1708  proxy */\n      dup2\n      sub(shl(0xa0, 0x01), 0x01)\n        /* \"proxy.sol\":1681:1726  ProxyDeployed(address(proxy), implementation) */\n      and\n      0x3d2489efb661e8b1c3679865db649ca1de61d76a71184a1234de2e55786a6aad\n      mload(0x40)\n      mload(0x40)\n      dup1\n      swap2\n      sub\n      swap1\n      log3\n        /* \"proxy.sol\":1751:1756  proxy */\n      swap3\n        /* \"proxy.sol\":1392:1764  function deployProxyWithoutInit(... */\n      swap2\n      pop\n      pop\n      jump\t// out\n        /* \"proxy.sol\":843:1212  function deployProxy(... */\n    tag_14:\n        /* \"proxy.sol\":953:960  address */\n      0x00\n        /* \"proxy.sol\":1000:1022  GenericUUPSProxy proxy */\n      dup1\n        /* \"proxy.sol\":1059:1073  implementation */\n      dup5\n        /* \"proxy.sol\":1087:1095  initData */\n      dup5\n      dup5\n        /* \"proxy.sol\":1025:1105  new GenericUUPSProxy(... */\n      mload(0x40)\n      tag_23\n      swap1\n      tag_18\n      jump\t// in\n    tag_23:\n      tag_24\n      swap4\n      swap3\n      swap2\n      swap1\n      tag_25\n      jump\t// in\n    tag_24:\n      mload(0x40)\n      dup1\n      swap2\n      sub\n      swap1\n      0x00\n      create\n      dup1\n      iszero\n      dup1\n      iszero\n      tag_26\n      jumpi\n      returndatasize\n      0x00\n      dup1\n      returndatacopy\n      revert(0x00, returndatasize)\n    tag_26:\n      pop\n        /* \"proxy.sol\":1000:1105  GenericUUPSProxy proxy = new GenericUUPSProxy(... */\n      swap1\n      pop\n        /* \"proxy.sol\":1159:1173  implementation */\n      dup5\n      sub(shl(0xa0, 0x01), 0x01)\n        /* \"proxy.sol\":1129:1174  ProxyDeployed(address(proxy), implementation) */\n      and\n        /* \"proxy.sol\":1151:1156  proxy */\n      dup2\n      sub(shl(0xa0, 0x01), 0x01)\n        /* \"proxy.sol\":1129:1174  ProxyDeployed(address(proxy), implementation) */\n      and\n      0x3d2489efb661e8b1c3679865db649ca1de61d76a71184a1234de2e55786a6aad\n      mload(0x40)\n      mload(0x40)\n      dup1\n      swap2\n      sub\n      swap1\n      log3\n        /* \"proxy.sol\":1199:1204  proxy */\n      swap5\n        /* \"proxy.sol\":843:1212  function deployProxy(... */\n      swap4\n      pop\n      pop\n      pop\n      pop\n      jump\t// out\n    tag_18:\n      dataSize(sub_0)\n      dup1\n      dataOffset(sub_0)\n      dup4\n      codecopy\n      add\n      swap1\n      jump\t// out\n        /* \"#utility.yul\":14:210   */\n    tag_27:\n        /* \"#utility.yul\":82:102   */\n      dup1\n      calldataload\n      sub(shl(0xa0, 0x01), 0x01)\n        /* \"#utility.yul\":131:185   */\n      dup2\n      and\n        /* \"#utility.yul\":121:186   */\n      dup2\n      eq\n        /* \"#utility.yul\":111:204   */\n      tag_30\n      jumpi\n        /* \"#utility.yul\":200:201   */\n      0x00\n        /* \"#utility.yul\":197:198   */\n      dup1\n        /* \"#utility.yul\":190:202   */\n      revert\n        /* \"#utility.yul\":111:204   */\n    tag_30:\n        /* \"#utility.yul\":14:210   */\n      swap2\n      swap1\n      pop\n      jump\t// out\n        /* \"#utility.yul\":215:401   */\n    tag_7:\n        /* \"#utility.yul\":274:280   */\n      0x00\n        /* \"#utility.yul\":327:329   */\n      0x20\n        /* \"#utility.yul\":315:324   */\n      dup3\n        /* \"#utility.yul\":306:313   */\n      dup5\n        /* \"#utility.yul\":302:325   */\n      sub\n        /* \"#utility.yul\":298:330   */\n      slt\n        /* \"#utility.yul\":295:347   */\n      iszero\n      tag_32\n      jumpi\n        /* \"#utility.yul\":343:344   */\n      0x00\n        /* \"#utility.yul\":340:341   */\n      dup1\n        /* \"#utility.yul\":333:345   */\n      revert\n        /* \"#utility.yul\":295:347   */\n    tag_32:\n        /* \"#utility.yul\":366:395   */\n      tag_33\n        /* \"#utility.yul\":385:394   */\n      dup3\n        /* \"#utility.yul\":366:395   */\n      tag_27\n      jump\t// in\n    tag_33:\n        /* \"#utility.yul\":356:395   */\n      swap4\n        /* \"#utility.yul\":215:401   */\n      swap3\n      pop\n      pop\n      pop\n      jump\t// out\n        /* \"#utility.yul\":637:1297   */\n    tag_13:\n        /* \"#utility.yul\":716:722   */\n      0x00\n        /* \"#utility.yul\":724:730   */\n      dup1\n        /* \"#utility.yul\":732:738   */\n      0x00\n        /* \"#utility.yul\":785:787   */\n      0x40\n        /* \"#utility.yul\":773:782   */\n      dup5\n        /* \"#utility.yul\":764:771   */\n      dup7\n        /* \"#utility.yul\":760:783   */\n      sub\n        /* \"#utility.yul\":756:788   */\n      slt\n        /* \"#utility.yul\":753:805   */\n      iszero\n      tag_36\n      jumpi\n        /* \"#utility.yul\":801:802   */\n      0x00\n        /* \"#utility.yul\":798:799   */\n      dup1\n        /* \"#utility.yul\":791:803   */\n      revert\n        /* \"#utility.yul\":753:805   */\n    tag_36:\n        /* \"#utility.yul\":824:853   */\n      tag_37\n        /* \"#utility.yul\":843:852   */\n      dup5\n        /* \"#utility.yul\":824:853   */\n      tag_27\n      jump\t// in\n    tag_37:\n        /* \"#utility.yul\":814:853   */\n      swap3\n      pop\n        /* \"#utility.yul\":904:906   */\n      0x20\n        /* \"#utility.yul\":893:902   */\n      dup5\n        /* \"#utility.yul\":889:907   */\n      add\n        /* \"#utility.yul\":876:908   */\n      calldataload\n        /* \"#utility.yul\":931:949   */\n      0xffffffffffffffff\n        /* \"#utility.yul\":923:929   */\n      dup2\n        /* \"#utility.yul\":920:950   */\n      gt\n        /* \"#utility.yul\":917:967   */\n      iszero\n      tag_38\n      jumpi\n        /* \"#utility.yul\":963:964   */\n      0x00\n        /* \"#utility.yul\":960:961   */\n      dup1\n        /* \"#utility.yul\":953:965   */\n      revert\n        /* \"#utility.yul\":917:967   */\n    tag_38:\n        /* \"#utility.yul\":986:1008   */\n      dup5\n      add\n        /* \"#utility.yul\":1039:1043   */\n      0x1f\n        /* \"#utility.yul\":1031:1044   */\n      dup2\n      add\n        /* \"#utility.yul\":1027:1054   */\n      dup7\n      sgt\n        /* \"#utility.yul\":1017:1072   */\n      tag_39\n      jumpi\n        /* \"#utility.yul\":1068:1069   */\n      0x00\n        /* \"#utility.yul\":1065:1066   */\n      dup1\n        /* \"#utility.yul\":1058:1070   */\n      revert\n        /* \"#utility.yul\":1017:1072   */\n    tag_39:\n        /* \"#utility.yul\":1108:1110   */\n      dup1\n        /* \"#utility.yul\":1095:1111   */\n      calldataload\n        /* \"#utility.yul\":1134:1152   */\n      0xffffffffffffffff\n        /* \"#utility.yul\":1126:1132   */\n      dup2\n        /* \"#utility.yul\":1123:1153   */\n      gt\n        /* \"#utility.yul\":1120:1170   */\n      iszero\n      tag_40\n      jumpi\n        /* \"#utility.yul\":1166:1167   */\n      0x00\n        /* \"#utility.yul\":1163:1164   */\n      dup1\n        /* \"#utility.yul\":1156:1168   */\n      revert\n        /* \"#utility.yul\":1120:1170   */\n    tag_40:\n        /* \"#utility.yul\":1211:1218   */\n      dup7\n        /* \"#utility.yul\":1206:1208   */\n      0x20\n        /* \"#utility.yul\":1197:1203   */\n      dup3\n        /* \"#utility.yul\":1193:1195   */\n      dup5\n        /* \"#utility.yul\":1189:1204   */\n      add\n        /* \"#utility.yul\":1185:1209   */\n      add\n        /* \"#utility.yul\":1182:1219   */\n      gt\n        /* \"#utility.yul\":1179:1236   */\n      iszero\n      tag_41\n      jumpi\n        /* \"#utility.yul\":1232:1233   */\n      0x00\n        /* \"#utility.yul\":1229:1230   */\n      dup1\n        /* \"#utility.yul\":1222:1234   */\n      revert\n        /* \"#utility.yul\":1179:1236   */\n    tag_41:\n        /* \"#utility.yul\":637:1297   */\n      swap4\n      swap7\n        /* \"#utility.yul\":1263:1265   */\n      0x20\n        /* \"#utility.yul\":1255:1266   */\n      swap2\n      swap1\n      swap2\n      add\n      swap6\n      pop\n        /* \"#utility.yul\":1285:1291   */\n      swap3\n      swap4\n      pop\n      pop\n      pop\n        /* \"#utility.yul\":637:1297   */\n      jump\t// out\n        /* \"#utility.yul\":1710:2218   */\n    tag_25:\n      sub(shl(0xa0, 0x01), 0x01)\n        /* \"#utility.yul\":1899:1905   */\n      dup5\n        /* \"#utility.yul\":1895:1950   */\n      and\n        /* \"#utility.yul\":1884:1893   */\n      dup2\n        /* \"#utility.yul\":1877:1951   */\n      mstore\n        /* \"#utility.yul\":1987:1989   */\n      0x40\n        /* \"#utility.yul\":1982:1984   */\n      0x20\n        /* \"#utility.yul\":1971:1980   */\n      dup3\n        /* \"#utility.yul\":1967:1985   */\n      add\n        /* \"#utility.yul\":1960:1990   */\n      mstore\n        /* \"#utility.yul\":2026:2032   */\n      dup2\n        /* \"#utility.yul\":2021:2023   */\n      0x40\n        /* \"#utility.yul\":2010:2019   */\n      dup3\n        /* \"#utility.yul\":2006:2024   */\n      add\n        /* \"#utility.yul\":1999:2033   */\n      mstore\n        /* \"#utility.yul\":2083:2089   */\n      dup2\n        /* \"#utility.yul\":2075:2081   */\n      dup4\n        /* \"#utility.yul\":2070:2072   */\n      0x60\n        /* \"#utility.yul\":2059:2068   */\n      dup4\n        /* \"#utility.yul\":2055:2073   */\n      add\n        /* \"#utility.yul\":2042:2090   */\n      calldatacopy\n        /* \"#utility.yul\":2139:2140   */\n      0x00\n        /* \"#utility.yul\":2110:2132   */\n      dup2\n      dup4\n      add\n        /* \"#utility.yul\":2134:2136   */\n      0x60\n        /* \"#utility.yul\":2106:2137   */\n      swap1\n      dup2\n      add\n        /* \"#utility.yul\":2099:2141   */\n      swap2\n      swap1\n      swap2\n      mstore\n        /* \"#utility.yul\":2202:2204   */\n      0x1f\n        /* \"#utility.yul\":2181:2196   */\n      swap1\n      swap3\n      add\n      not(0x1f)\n        /* \"#utility.yul\":2177:2206   */\n      and\n        /* \"#utility.yul\":2162:2207   */\n      add\n        /* \"#utility.yul\":2158:2212   */\n      add\n      swap3\n        /* \"#utility.yul\":1710:2218   */\n      swap2\n      pop\n      pop\n      jump\t// out\n    stop\n\n    sub_0: assembly {\n            /* \"proxy.sol\":224:390  contract GenericUUPSProxy is ERC1967Proxy {... */\n          mstore(0x40, 0x80)\n            /* \"proxy.sol\":272:388  constructor(... */\n          callvalue\n          dup1\n          iszero\n          tag_1\n          jumpi\n          0x00\n          dup1\n          revert\n        tag_1:\n          pop\n          mload(0x40)\n          sub(codesize, bytecodeSize)\n          dup1\n          bytecodeSize\n          dup4\n          codecopy\n          dup2\n          add\n          0x40\n          dup2\n          swap1\n          mstore\n          tag_2\n          swap2\n          tag_3\n          jump\t// in\n        tag_2:\n            /* \"proxy.sol\":363:377  implementation */\n          dup2\n            /* \"proxy.sol\":379:384  _data */\n          dup2\n            /* \"@openzeppelin/contracts/proxy/ERC1967/ERC1967Proxy.sol\":1155:1207  ERC1967Utils.upgradeToAndCall(implementation, _data) */\n          tag_7\n            /* \"proxy.sol\":363:377  implementation */\n          dup3\n            /* \"proxy.sol\":379:384  _data */\n          dup3\n            /* \"@openzeppelin/contracts/proxy/ERC1967/ERC1967Proxy.sol\":1155:1184  ERC1967Utils.upgradeToAndCall */\n          tag_8\n            /* \"@openzeppelin/contracts/proxy/ERC1967/ERC1967Proxy.sol\":1155:1207  ERC1967Utils.upgradeToAndCall(implementation, _data) */\n          jump\t// in\n        tag_7:\n            /* \"@openzeppelin/contracts/proxy/ERC1967/ERC1967Proxy.sol\":1081:1214  constructor(address implementation, bytes memory _data) payable {... */\n          pop\n          pop\n            /* \"proxy.sol\":272:388  constructor(... */\n          pop\n          pop\n            /* \"proxy.sol\":224:390  contract GenericUUPSProxy is ERC1967Proxy {... */\n          jump(tag_50)\n            /* \"@openzeppelin/contracts/proxy/ERC1967/ERC1967Utils.sol\":2264:2608  function upgradeToAndCall(address newImplementation, bytes memory data) internal {... */\n        tag_8:\n            /* \"@openzeppelin/contracts/proxy/ERC1967/ERC1967Utils.sol\":2355:2392  _setImplementation(newImplementation) */\n          tag_12\n            /* \"@openzeppelin/contracts/proxy/ERC1967/ERC1967Utils.sol\":2374:2391  newImplementation */\n          dup3\n            /* \"@openzeppelin/contracts/proxy/ERC1967/ERC1967Utils.sol\":2355:2373  _setImplementation */\n          tag_13\n            /* \"@openzeppelin/contracts/proxy/ERC1967/ERC1967Utils.sol\":2355:2392  _setImplementation(newImplementation) */\n          jump\t// in\n        tag_12:\n            /* \"@openzeppelin/contracts/proxy/ERC1967/ERC1967Utils.sol\":2407:2443  IERC1967.Upgraded(newImplementation) */\n          mload(0x40)\n          sub(shl(0xa0, 0x01), 0x01)\n          dup4\n          and\n          swap1\n          0xbc7cd75a20ee27fd9adebab32041f755214dbc6bffa90cc0225b39da2e5c2d3b\n          swap1\n          0x00\n          swap1\n          log2\n            /* \"@openzeppelin/contracts/proxy/ERC1967/ERC1967Utils.sol\":2458:2469  data.length */\n          dup1\n          mload\n            /* \"@openzeppelin/contracts/proxy/ERC1967/ERC1967Utils.sol\":2458:2473  data.length > 0 */\n          iszero\n            /* \"@openzeppelin/contracts/proxy/ERC1967/ERC1967Utils.sol\":2454:2602  if (data.length > 0) {... */\n          tag_14\n          jumpi\n            /* \"@openzeppelin/contracts/proxy/ERC1967/ERC1967Utils.sol\":2489:2542  Address.functionDelegateCall(newImplementation, data) */\n          tag_15\n            /* \"@openzeppelin/contracts/proxy/ERC1967/ERC1967Utils.sol\":2518:2535  newImplementation */\n          dup3\n            /* \"@openzeppelin/contracts/proxy/ERC1967/ERC1967Utils.sol\":2537:2541  data */\n          dup3\n            /* \"@openzeppelin/contracts/proxy/ERC1967/ERC1967Utils.sol\":2489:2517  Address.functionDelegateCall */\n          tag_16\n            /* \"@openzeppelin/contracts/proxy/ERC1967/ERC1967Utils.sol\":2489:2542  Address.functionDelegateCall(newImplementation, data) */\n          jump\t// in\n        tag_15:\n          pop\n            /* \"@openzeppelin/contracts/proxy/ERC1967/ERC1967Utils.sol\":2264:2608  function upgradeToAndCall(address newImplementation, bytes memory data) internal {... */\n          pop\n          pop\n          jump\t// out\n            /* \"@openzeppelin/contracts/proxy/ERC1967/ERC1967Utils.sol\":2454:2602  if (data.length > 0) {... */\n        tag_14:\n            /* \"@openzeppelin/contracts/proxy/ERC1967/ERC1967Utils.sol\":2573:2591  _checkNonPayable() */\n          tag_18\n            /* \"@openzeppelin/contracts/proxy/ERC1967/ERC1967Utils.sol\":2573:2589  _checkNonPayable */\n          tag_19\n            /* \"@openzeppelin/contracts/proxy/ERC1967/ERC1967Utils.sol\":2573:2591  _checkNonPayable() */\n          jump\t// in\n        tag_18:\n            /* \"@openzeppelin/contracts/proxy/ERC1967/ERC1967Utils.sol\":2264:2608  function upgradeToAndCall(address newImplementation, bytes memory data) internal {... */\n          pop\n          pop\n          jump\t// out\n            /* \"@openzeppelin/contracts/proxy/ERC1967/ERC1967Utils.sol\":1671:1952  function _setImplementation(address newImplementation) private {... */\n        tag_13:\n            /* \"@openzeppelin/contracts/proxy/ERC1967/ERC1967Utils.sol\":1748:1765  newImplementation */\n          dup1\n          sub(shl(0xa0, 0x01), 0x01)\n            /* \"@openzeppelin/contracts/proxy/ERC1967/ERC1967Utils.sol\":1748:1777  newImplementation.code.length */\n          and\n          extcodesize\n            /* \"@openzeppelin/contracts/proxy/ERC1967/ERC1967Utils.sol\":1781:1782  0 */\n          0x00\n            /* \"@openzeppelin/contracts/proxy/ERC1967/ERC1967Utils.sol\":1748:1782  newImplementation.code.length == 0 */\n          sub\n            /* \"@openzeppelin/contracts/proxy/ERC1967/ERC1967Utils.sol\":1744:1863  if (newImplementation.code.length == 0) {... */\n          tag_21\n          jumpi\n            /* \"@openzeppelin/contracts/proxy/ERC1967/ERC1967Utils.sol\":1805:1852  ERC1967InvalidImplementation(newImplementation) */\n          mload(0x40)\n          shl(0xe0, 0x4c9c8ce3)\n          dup2\n          mstore\n          sub(shl(0xa0, 0x01), 0x01)\n            /* \"#utility.yul\":1652:1684   */\n          dup3\n          and\n            /* \"@openzeppelin/contracts/proxy/ERC1967/ERC1967Utils.sol\":1805:1852  ERC1967InvalidImplementation(newImplementation) */\n          0x04\n          dup3\n          add\n            /* \"#utility.yul\":1634:1685   */\n          mstore\n            /* \"#utility.yul\":1607:1625   */\n          0x24\n          add\n            /* \"@openzeppelin/contracts/proxy/ERC1967/ERC1967Utils.sol\":1805:1852  ERC1967InvalidImplementation(newImplementation) */\n        tag_22:\n          mload(0x40)\n          dup1\n          swap2\n          sub\n          swap1\n          revert\n            /* \"@openzeppelin/contracts/proxy/ERC1967/ERC1967Utils.sol\":1744:1863  if (newImplementation.code.length == 0) {... */\n        tag_21:\n            /* \"@openzeppelin/contracts/proxy/ERC1967/ERC1967Utils.sol\":811:877  0x360894a13ba1a3210667c828492db98dca3e2076cc3735a920a3ca505d382bbc */\n          0x360894a13ba1a3210667c828492db98dca3e2076cc3735a920a3ca505d382bbc\n            /* \"@openzeppelin/contracts/proxy/ERC1967/ERC1967Utils.sol\":1872:1945  StorageSlot.getAddressSlot(IMPLEMENTATION_SLOT).value = newImplementation */\n          dup1\n          sload\n          not(sub(shl(0xa0, 0x01), 0x01))\n          and\n          sub(shl(0xa0, 0x01), 0x01)\n          swap3\n          swap1\n          swap3\n          and\n          swap2\n          swap1\n          swap2\n          or\n          swap1\n          sstore\n            /* \"@openzeppelin/contracts/proxy/ERC1967/ERC1967Utils.sol\":1671:1952  function _setImplementation(address newImplementation) private {... */\n          jump\t// out\n            /* \"@openzeppelin/contracts/utils/Address.sol\":3916:4169  function functionDelegateCall(address target, bytes memory data) internal returns (bytes memory) {... */\n        tag_16:\n            /* \"@openzeppelin/contracts/utils/Address.sol\":3999:4011  bytes memory */\n          0x60\n            /* \"@openzeppelin/contracts/utils/Address.sol\":4024:4036  bool success */\n          0x00\n            /* \"@openzeppelin/contracts/utils/Address.sol\":4038:4061  bytes memory returndata */\n          dup1\n            /* \"@openzeppelin/contracts/utils/Address.sol\":4065:4071  target */\n          dup5\n          sub(shl(0xa0, 0x01), 0x01)\n            /* \"@openzeppelin/contracts/utils/Address.sol\":4065:4084  target.delegatecall */\n          and\n            /* \"@openzeppelin/contracts/utils/Address.sol\":4085:4089  data */\n          dup5\n            /* \"@openzeppelin/contracts/utils/Address.sol\":4065:4090  target.delegatecall(data) */\n          mload(0x40)\n          tag_27\n          swap2\n          swap1\n          tag_28\n          jump\t// in\n        tag_27:\n          0x00\n          mload(0x40)\n          dup1\n          dup4\n          sub\n          dup2\n          dup6\n          gas\n          delegatecall\n          swap2\n          pop\n          pop\n          returndatasize\n          dup1\n          0x00\n          dup2\n          eq\n          tag_31\n          jumpi\n          mload(0x40)\n          swap2\n          pop\n          and(add(returndatasize, 0x3f), not(0x1f))\n          dup3\n          add\n          0x40\n          mstore\n          returndatasize\n          dup3\n          mstore\n          returndatasize\n          0x00\n          0x20\n          dup5\n          add\n          returndatacopy\n          jump(tag_30)\n        tag_31:\n          0x60\n          swap2\n          pop\n        tag_30:\n          pop\n            /* \"@openzeppelin/contracts/utils/Address.sol\":4023:4090  (bool success, bytes memory returndata) = target.delegatecall(data) */\n          swap1\n          swap3\n          pop\n          swap1\n          pop\n            /* \"@openzeppelin/contracts/utils/Address.sol\":4107:4162  verifyCallResultFromTarget(target, success, returndata) */\n          tag_32\n            /* \"@openzeppelin/contracts/utils/Address.sol\":4134:4140  target */\n          dup6\n            /* \"@openzeppelin/contracts/utils/Address.sol\":4023:4090  (bool success, bytes memory returndata) = target.delegatecall(data) */\n          dup4\n          dup4\n            /* \"@openzeppelin/contracts/utils/Address.sol\":4107:4133  verifyCallResultFromTarget */\n          tag_33\n            /* \"@openzeppelin/contracts/utils/Address.sol\":4107:4162  verifyCallResultFromTarget(target, success, returndata) */\n          jump\t// in\n        tag_32:\n            /* \"@openzeppelin/contracts/utils/Address.sol\":4100:4162  return verifyCallResultFromTarget(target, success, returndata) */\n          swap6\n            /* \"@openzeppelin/contracts/utils/Address.sol\":3916:4169  function functionDelegateCall(address target, bytes memory data) internal returns (bytes memory) {... */\n          swap5\n          pop\n          pop\n          pop\n          pop\n          pop\n          jump\t// out\n            /* \"@openzeppelin/contracts/proxy/ERC1967/ERC1967Utils.sol\":6113:6235  function _checkNonPayable() private {... */\n        tag_19:\n            /* \"@openzeppelin/contracts/proxy/ERC1967/ERC1967Utils.sol\":6163:6172  msg.value */\n          callvalue\n            /* \"@openzeppelin/contracts/proxy/ERC1967/ERC1967Utils.sol\":6163:6176  msg.value > 0 */\n          iszero\n            /* \"@openzeppelin/contracts/proxy/ERC1967/ERC1967Utils.sol\":6159:6229  if (msg.value > 0) {... */\n          tag_35\n          jumpi\n            /* \"@openzeppelin/contracts/proxy/ERC1967/ERC1967Utils.sol\":6199:6218  ERC1967NonPayable() */\n          mload(0x40)\n          shl(0xe0, 0xb398979f)\n          dup2\n          mstore\n          0x04\n          add\n          mload(0x40)\n          dup1\n          swap2\n          sub\n          swap1\n          revert\n            /* \"@openzeppelin/contracts/proxy/ERC1967/ERC1967Utils.sol\":6159:6229  if (msg.value > 0) {... */\n        tag_35:\n            /* \"@openzeppelin/contracts/proxy/ERC1967/ERC1967Utils.sol\":6113:6235  function _checkNonPayable() private {... */\n          jump\t// out\n            /* \"@openzeppelin/contracts/utils/Address.sol\":4437:5019  function verifyCallResultFromTarget(... */\n        tag_33:\n            /* \"@openzeppelin/contracts/utils/Address.sol\":4581:4593  bytes memory */\n          0x60\n            /* \"@openzeppelin/contracts/utils/Address.sol\":4610:4617  success */\n          dup3\n            /* \"@openzeppelin/contracts/utils/Address.sol\":4605:5013  if (!success) {... */\n          tag_38\n          jumpi\n            /* \"@openzeppelin/contracts/utils/Address.sol\":4633:4652  _revert(returndata) */\n          tag_39\n            /* \"@openzeppelin/contracts/utils/Address.sol\":4641:4651  returndata */\n          dup3\n            /* \"@openzeppelin/contracts/utils/Address.sol\":4633:4640  _revert */\n          tag_40\n            /* \"@openzeppelin/contracts/utils/Address.sol\":4633:4652  _revert(returndata) */\n          jump\t// in\n        tag_39:\n            /* \"@openzeppelin/contracts/utils/Address.sol\":4605:5013  if (!success) {... */\n          jump(tag_41)\n        tag_38:\n            /* \"@openzeppelin/contracts/utils/Address.sol\":4857:4874  returndata.length */\n          dup2\n          mload\n            /* \"@openzeppelin/contracts/utils/Address.sol\":4857:4879  returndata.length == 0 */\n          iszero\n            /* \"@openzeppelin/contracts/utils/Address.sol\":4857:4906  returndata.length == 0 && target.code.length == 0 */\n          dup1\n          iszero\n          tag_42\n          jumpi\n          pop\n          sub(shl(0xa0, 0x01), 0x01)\n            /* \"@openzeppelin/contracts/utils/Address.sol\":4883:4901  target.code.length */\n          dup5\n          and\n          extcodesize\n            /* \"@openzeppelin/contracts/utils/Address.sol\":4883:4906  target.code.length == 0 */\n          iszero\n            /* \"@openzeppelin/contracts/utils/Address.sol\":4857:4906  returndata.length == 0 && target.code.length == 0 */\n        tag_42:\n            /* \"@openzeppelin/contracts/utils/Address.sol\":4853:4972  if (returndata.length == 0 && target.code.length == 0) {... */\n          iszero\n          tag_43\n          jumpi\n            /* \"@openzeppelin/contracts/utils/Address.sol\":4933:4957  AddressEmptyCode(target) */\n          mload(0x40)\n          shl(0xe0, 0x9996b315)\n          dup2\n          mstore\n          sub(shl(0xa0, 0x01), 0x01)\n            /* \"#utility.yul\":1652:1684   */\n          dup6\n          and\n            /* \"@openzeppelin/contracts/utils/Address.sol\":4933:4957  AddressEmptyCode(target) */\n          0x04\n          dup3\n          add\n            /* \"#utility.yul\":1634:1685   */\n          mstore\n            /* \"#utility.yul\":1607:1625   */\n          0x24\n          add\n            /* \"@openzeppelin/contracts/utils/Address.sol\":4933:4957  AddressEmptyCode(target) */\n          tag_22\n            /* \"#utility.yul\":1488:1691   */\n          jump\n            /* \"@openzeppelin/contracts/utils/Address.sol\":4853:4972  if (returndata.length == 0 && target.code.length == 0) {... */\n        tag_43:\n          pop\n            /* \"@openzeppelin/contracts/utils/Address.sol\":4992:5002  returndata */\n          dup1\n            /* \"@openzeppelin/contracts/utils/Address.sol\":4605:5013  if (!success) {... */\n        tag_41:\n            /* \"@openzeppelin/contracts/utils/Address.sol\":4437:5019  function verifyCallResultFromTarget(... */\n          swap4\n          swap3\n          pop\n          pop\n          pop\n          jump\t// out\n            /* \"@openzeppelin/contracts/utils/Address.sol\":5559:6046  function _revert(bytes memory returndata) private pure {... */\n        tag_40:\n            /* \"@openzeppelin/contracts/utils/Address.sol\":5690:5707  returndata.length */\n          dup1\n          mload\n            /* \"@openzeppelin/contracts/utils/Address.sol\":5690:5711  returndata.length > 0 */\n          iszero\n            /* \"@openzeppelin/contracts/utils/Address.sol\":5686:6040  if (returndata.length > 0) {... */\n          tag_46\n          jumpi\n            /* \"@openzeppelin/contracts/utils/Address.sol\":5887:5897  returndata */\n          dup1\n            /* \"@openzeppelin/contracts/utils/Address.sol\":5881:5898  mload(returndata) */\n          mload\n            /* \"@openzeppelin/contracts/utils/Address.sol\":5943:5958  returndata_size */\n          dup1\n            /* \"@openzeppelin/contracts/utils/Address.sol\":5930:5940  returndata */\n          dup3\n            /* \"@openzeppelin/contracts/utils/Address.sol\":5926:5928  32 */\n          0x20\n            /* \"@openzeppelin/contracts/utils/Address.sol\":5922:5941  add(32, returndata) */\n          add\n            /* \"@openzeppelin/contracts/utils/Address.sol\":5915:5959  revert(add(32, returndata), returndata_size) */\n          revert\n            /* \"@openzeppelin/contracts/utils/Address.sol\":5686:6040  if (returndata.length > 0) {... */\n        tag_46:\n            /* \"@openzeppelin/contracts/utils/Address.sol\":6010:6029  Errors.FailedCall() */\n          mload(0x40)\n          shl(0xe0, 0xd6bda275)\n          dup2\n          mstore\n          0x04\n          add\n          mload(0x40)\n          dup1\n          swap2\n          sub\n          swap1\n          revert\n            /* \"#utility.yul\":14:141   */\n        tag_48:\n            /* \"#utility.yul\":75:85   */\n          0x4e487b71\n            /* \"#utility.yul\":70:73   */\n          0xe0\n            /* \"#utility.yul\":66:86   */\n          shl\n            /* \"#utility.yul\":63:64   */\n          0x00\n            /* \"#utility.yul\":56:87   */\n          mstore\n            /* \"#utility.yul\":106:110   */\n          0x41\n            /* \"#utility.yul\":103:104   */\n          0x04\n            /* \"#utility.yul\":96:111   */\n          mstore\n            /* \"#utility.yul\":130:134   */\n          0x24\n            /* \"#utility.yul\":127:128   */\n          0x00\n            /* \"#utility.yul\":120:135   */\n          revert\n            /* \"#utility.yul\":146:396   */\n        tag_49:\n            /* \"#utility.yul\":231:232   */\n          0x00\n            /* \"#utility.yul\":241:354   */\n        tag_53:\n            /* \"#utility.yul\":255:261   */\n          dup4\n            /* \"#utility.yul\":252:253   */\n          dup2\n            /* \"#utility.yul\":249:262   */\n          lt\n            /* \"#utility.yul\":241:354   */\n          iszero\n          tag_55\n          jumpi\n            /* \"#utility.yul\":331:342   */\n          dup2\n          dup2\n          add\n            /* \"#utility.yul\":325:343   */\n          mload\n            /* \"#utility.yul\":312:323   */\n          dup4\n          dup3\n          add\n            /* \"#utility.yul\":305:344   */\n          mstore\n            /* \"#utility.yul\":277:279   */\n          0x20\n            /* \"#utility.yul\":270:280   */\n          add\n            /* \"#utility.yul\":241:354   */\n          jump(tag_53)\n        tag_55:\n          pop\n          pop\n            /* \"#utility.yul\":388:389   */\n          0x00\n            /* \"#utility.yul\":370:386   */\n          swap2\n          add\n            /* \"#utility.yul\":363:390   */\n          mstore\n            /* \"#utility.yul\":146:396   */\n          jump\t// out\n            /* \"#utility.yul\":401:1483   */\n        tag_3:\n            /* \"#utility.yul\":489:495   */\n          0x00\n            /* \"#utility.yul\":497:503   */\n          dup1\n            /* \"#utility.yul\":550:552   */\n          0x40\n            /* \"#utility.yul\":538:547   */\n          dup4\n            /* \"#utility.yul\":529:536   */\n          dup6\n            /* \"#utility.yul\":525:548   */\n          sub\n            /* \"#utility.yul\":521:553   */\n          slt\n            /* \"#utility.yul\":518:570   */\n          iszero\n          tag_57\n          jumpi\n            /* \"#utility.yul\":566:567   */\n          0x00\n            /* \"#utility.yul\":563:564   */\n          dup1\n            /* \"#utility.yul\":556:568   */\n          revert\n            /* \"#utility.yul\":518:570   */\n        tag_57:\n            /* \"#utility.yul\":592:608   */\n          dup3\n          mload\n          sub(shl(0xa0, 0x01), 0x01)\n            /* \"#utility.yul\":637:668   */\n          dup2\n          and\n            /* \"#utility.yul\":627:669   */\n          dup2\n          eq\n            /* \"#utility.yul\":617:687   */\n          tag_58\n          jumpi\n            /* \"#utility.yul\":683:684   */\n          0x00\n            /* \"#utility.yul\":680:681   */\n          dup1\n            /* \"#utility.yul\":673:685   */\n          revert\n            /* \"#utility.yul\":617:687   */\n        tag_58:\n            /* \"#utility.yul\":755:757   */\n          0x20\n            /* \"#utility.yul\":740:758   */\n          dup5\n          add\n            /* \"#utility.yul\":734:759   */\n          mload\n            /* \"#utility.yul\":706:711   */\n          swap1\n          swap3\n          pop\n          sub(shl(0x40, 0x01), 0x01)\n            /* \"#utility.yul\":771:801   */\n          dup2\n          gt\n            /* \"#utility.yul\":768:818   */\n          iszero\n          tag_59\n          jumpi\n            /* \"#utility.yul\":814:815   */\n          0x00\n            /* \"#utility.yul\":811:812   */\n          dup1\n            /* \"#utility.yul\":804:816   */\n          revert\n            /* \"#utility.yul\":768:818   */\n        tag_59:\n            /* \"#utility.yul\":837:859   */\n          dup4\n          add\n            /* \"#utility.yul\":890:894   */\n          0x1f\n            /* \"#utility.yul\":882:895   */\n          dup2\n          add\n            /* \"#utility.yul\":878:905   */\n          dup6\n          sgt\n            /* \"#utility.yul\":868:923   */\n          tag_60\n          jumpi\n            /* \"#utility.yul\":919:920   */\n          0x00\n            /* \"#utility.yul\":916:917   */\n          dup1\n            /* \"#utility.yul\":909:921   */\n          revert\n            /* \"#utility.yul\":868:923   */\n        tag_60:\n            /* \"#utility.yul\":946:955   */\n          dup1\n          mload\n          sub(shl(0x40, 0x01), 0x01)\n            /* \"#utility.yul\":967:997   */\n          dup2\n          gt\n            /* \"#utility.yul\":964:1020   */\n          iszero\n          tag_62\n          jumpi\n            /* \"#utility.yul\":1000:1018   */\n          tag_62\n          tag_48\n          jump\t// in\n        tag_62:\n            /* \"#utility.yul\":1049:1051   */\n          0x40\n            /* \"#utility.yul\":1043:1052   */\n          mload\n            /* \"#utility.yul\":1141:1143   */\n          0x1f\n            /* \"#utility.yul\":1103:1120   */\n          dup3\n          add\n          not(0x1f)\n            /* \"#utility.yul\":1099:1130   */\n          swap1\n          dup2\n          and\n            /* \"#utility.yul\":1132:1134   */\n          0x3f\n            /* \"#utility.yul\":1095:1135   */\n          add\n            /* \"#utility.yul\":1091:1145   */\n          and\n            /* \"#utility.yul\":1079:1146   */\n          dup2\n          add\n          sub(shl(0x40, 0x01), 0x01)\n            /* \"#utility.yul\":1161:1195   */\n          dup2\n          gt\n            /* \"#utility.yul\":1197:1219   */\n          dup3\n          dup3\n          lt\n            /* \"#utility.yul\":1158:1220   */\n          or\n            /* \"#utility.yul\":1155:1243   */\n          iszero\n          tag_64\n          jumpi\n            /* \"#utility.yul\":1223:1241   */\n          tag_64\n          tag_48\n          jump\t// in\n        tag_64:\n            /* \"#utility.yul\":1259:1261   */\n          0x40\n            /* \"#utility.yul\":1252:1274   */\n          mstore\n            /* \"#utility.yul\":1283:1305   */\n          dup2\n          dup2\n          mstore\n            /* \"#utility.yul\":1324:1339   */\n          dup3\n          dup3\n          add\n            /* \"#utility.yul\":1341:1343   */\n          0x20\n            /* \"#utility.yul\":1320:1344   */\n          add\n            /* \"#utility.yul\":1317:1354   */\n          dup8\n          lt\n            /* \"#utility.yul\":1314:1371   */\n          iszero\n          tag_65\n          jumpi\n            /* \"#utility.yul\":1367:1368   */\n          0x00\n            /* \"#utility.yul\":1364:1365   */\n          dup1\n            /* \"#utility.yul\":1357:1369   */\n          revert\n            /* \"#utility.yul\":1314:1371   */\n        tag_65:\n            /* \"#utility.yul\":1380:1452   */\n          tag_66\n            /* \"#utility.yul\":1445:1451   */\n          dup3\n            /* \"#utility.yul\":1440:1442   */\n          0x20\n            /* \"#utility.yul\":1432:1438   */\n          dup4\n            /* \"#utility.yul\":1428:1443   */\n          add\n            /* \"#utility.yul\":1423:1425   */\n          0x20\n            /* \"#utility.yul\":1419:1421   */\n          dup7\n            /* \"#utility.yul\":1415:1426   */\n          add\n            /* \"#utility.yul\":1380:1452   */\n          tag_49\n          jump\t// in\n        tag_66:\n            /* \"#utility.yul\":1471:1477   */\n          dup1\n            /* \"#utility.yul\":1461:1477   */\n          swap4\n          pop\n          pop\n          pop\n          pop\n            /* \"#utility.yul\":401:1483   */\n          swap3\n          pop\n          swap3\n          swap1\n          pop\n          jump\t// out\n            /* \"#utility.yul\":1696:1983   */\n        tag_28:\n            /* \"#utility.yul\":1825:1828   */\n          0x00\n            /* \"#utility.yul\":1863:1869   */\n          dup3\n            /* \"#utility.yul\":1857:1870   */\n          mload\n            /* \"#utility.yul\":1879:1945   */\n          tag_69\n            /* \"#utility.yul\":1938:1944   */\n          dup2\n            /* \"#utility.yul\":1933:1936   */\n          dup5\n            /* \"#utility.yul\":1926:1930   */\n          0x20\n            /* \"#utility.yul\":1918:1924   */\n          dup8\n            /* \"#utility.yul\":1914:1931   */\n          add\n            /* \"#utility.yul\":1879:1945   */\n          tag_49\n          jump\t// in\n        tag_69:\n            /* \"#utility.yul\":1961:1977   */\n          swap2\n          swap1\n          swap2\n          add\n          swap3\n            /* \"#utility.yul\":1696:1983   */\n          swap2\n          pop\n          pop\n          jump\t// out\n        tag_50:\n            /* \"proxy.sol\":224:390  contract GenericUUPSProxy is ERC1967Proxy {... */\n          dataSize(sub_0)\n          dup1\n          dataOffset(sub_0)\n          0x00\n          codecopy\n          0x00\n          return\n        stop\n\n        sub_0: assembly {\n                /* \"proxy.sol\":224:390  contract GenericUUPSProxy is ERC1967Proxy {... */\n              mstore(0x40, 0x80)\n                /* \"@openzeppelin/contracts/proxy/Proxy.sol\":2649:2660  _fallback() */\n              tag_5\n                /* \"@openzeppelin/contracts/proxy/Proxy.sol\":2649:2658  _fallback */\n              tag_6\n                /* \"@openzeppelin/contracts/proxy/Proxy.sol\":2649:2660  _fallback() */\n              jump\t// in\n            tag_5:\n                /* \"proxy.sol\":224:390  contract GenericUUPSProxy is ERC1967Proxy {... */\n              stop\n                /* \"@openzeppelin/contracts/proxy/Proxy.sol\":2323:2406  function _fallback() internal virtual {... */\n            tag_6:\n                /* \"@openzeppelin/contracts/proxy/Proxy.sol\":2371:2399  _delegate(_implementation()) */\n              tag_8\n                /* \"@openzeppelin/contracts/proxy/Proxy.sol\":2381:2398  _implementation() */\n              tag_9\n                /* \"@openzeppelin/contracts/proxy/Proxy.sol\":2381:2396  _implementation */\n              tag_10\n                /* \"@openzeppelin/contracts/proxy/Proxy.sol\":2381:2398  _implementation() */\n              jump\t// in\n            tag_9:\n                /* \"@openzeppelin/contracts/proxy/Proxy.sol\":2371:2380  _delegate */\n              tag_11\n                /* \"@openzeppelin/contracts/proxy/Proxy.sol\":2371:2399  _delegate(_implementation()) */\n              jump\t// in\n            tag_8:\n                /* \"@openzeppelin/contracts/proxy/Proxy.sol\":2323:2406  function _fallback() internal virtual {... */\n              jump\t// out\n                /* \"@openzeppelin/contracts/proxy/ERC1967/ERC1967Proxy.sol\":1583:1715  function _implementation() internal view virtual override returns (address) {... */\n            tag_10:\n                /* \"@openzeppelin/contracts/proxy/ERC1967/ERC1967Proxy.sol\":1650:1657  address */\n              0x00\n                /* \"@openzeppelin/contracts/proxy/ERC1967/ERC1967Proxy.sol\":1676:1708  ERC1967Utils.getImplementation() */\n              tag_13\n                /* \"@openzeppelin/contracts/proxy/ERC1967/ERC1967Utils.sol\":811:877  0x360894a13ba1a3210667c828492db98dca3e2076cc3735a920a3ca505d382bbc */\n              0x360894a13ba1a3210667c828492db98dca3e2076cc3735a920a3ca505d382bbc\n                /* \"@openzeppelin/contracts/proxy/ERC1967/ERC1967Utils.sol\":1519:1572  StorageSlot.getAddressSlot(IMPLEMENTATION_SLOT).value */\n              sload\n              0xffffffffffffffffffffffffffffffffffffffff\n              and\n              swap1\n                /* \"@openzeppelin/contracts/proxy/ERC1967/ERC1967Utils.sol\":1441:1579  function getImplementation() internal view returns (address) {... */\n              jump\n                /* \"@openzeppelin/contracts/proxy/ERC1967/ERC1967Proxy.sol\":1676:1708  ERC1967Utils.getImplementation() */\n            tag_13:\n                /* \"@openzeppelin/contracts/proxy/ERC1967/ERC1967Proxy.sol\":1669:1708  return ERC1967Utils.getImplementation() */\n              swap1\n              pop\n                /* \"@openzeppelin/contracts/proxy/ERC1967/ERC1967Proxy.sol\":1583:1715  function _implementation() internal view virtual override returns (address) {... */\n              swap1\n              jump\t// out\n                /* \"@openzeppelin/contracts/proxy/Proxy.sol\":949:1844  function _delegate(address implementation) internal virtual {... */\n            tag_11:\n                /* \"@openzeppelin/contracts/proxy/Proxy.sol\":1287:1301  calldatasize() */\n              calldatasize\n                /* \"@openzeppelin/contracts/proxy/Proxy.sol\":1284:1285  0 */\n              0x00\n                /* \"@openzeppelin/contracts/proxy/Proxy.sol\":1281:1282  0 */\n              dup1\n                /* \"@openzeppelin/contracts/proxy/Proxy.sol\":1268:1302  calldatacopy(0, 0, calldatasize()) */\n              calldatacopy\n                /* \"@openzeppelin/contracts/proxy/Proxy.sol\":1501:1502  0 */\n              0x00\n                /* \"@openzeppelin/contracts/proxy/Proxy.sol\":1498:1499  0 */\n              dup1\n                /* \"@openzeppelin/contracts/proxy/Proxy.sol\":1482:1496  calldatasize() */\n              calldatasize\n                /* \"@openzeppelin/contracts/proxy/Proxy.sol\":1479:1480  0 */\n              0x00\n                /* \"@openzeppelin/contracts/proxy/Proxy.sol\":1463:1477  implementation */\n              dup5\n                /* \"@openzeppelin/contracts/proxy/Proxy.sol\":1456:1461  gas() */\n              gas\n                /* \"@openzeppelin/contracts/proxy/Proxy.sol\":1443:1503  delegatecall(gas(), implementation, 0, calldatasize(), 0, 0) */\n              delegatecall\n                /* \"@openzeppelin/contracts/proxy/Proxy.sol\":1577:1593  returndatasize() */\n              returndatasize\n                /* \"@openzeppelin/contracts/proxy/Proxy.sol\":1574:1575  0 */\n              0x00\n                /* \"@openzeppelin/contracts/proxy/Proxy.sol\":1571:1572  0 */\n              dup1\n                /* \"@openzeppelin/contracts/proxy/Proxy.sol\":1556:1594  returndatacopy(0, 0, returndatasize()) */\n              returndatacopy\n                /* \"@openzeppelin/contracts/proxy/Proxy.sol\":1615:1621  result */\n              dup1\n                /* \"@openzeppelin/contracts/proxy/Proxy.sol\":1682:1748  case 0 {... */\n              dup1\n              iszero\n              tag_17\n              jumpi\n                /* \"@openzeppelin/contracts/proxy/Proxy.sol\":1797:1813  returndatasize() */\n              returndatasize\n                /* \"@openzeppelin/contracts/proxy/Proxy.sol\":1794:1795  0 */\n              0x00\n                /* \"@openzeppelin/contracts/proxy/Proxy.sol\":1787:1814  return(0, returndatasize()) */\n              return\n                /* \"@openzeppelin/contracts/proxy/Proxy.sol\":1682:1748  case 0 {... */\n            tag_17:\n                /* \"@openzeppelin/contracts/proxy/Proxy.sol\":1717:1733  returndatasize() */\n              returndatasize\n                /* \"@openzeppelin/contracts/proxy/Proxy.sol\":1714:1715  0 */\n              0x00\n                /* \"@openzeppelin/contracts/proxy/Proxy.sol\":1707:1734  revert(0, returndatasize()) */\n              revert\n\n            auxdata: 0xa264697066735822122031f8d7fe694f24f77d0cfb71d513b7eba51b88e6985f58bd9abb55731b68881f64736f6c634300081c0033\n        }\n    }\n\n    auxdata: 0xa2646970667358221220591506efb01e9c4fbc98b6cc0edcdbc8daad0c7df3a1becd463eef01fb13302364736f6c634300081c0033\n}\n",
				"bytecode": {
					"linkReferences": {},
					"object": "6080604052348015600f57600080fd5b506107098061001f6000396000f3fe608060405234801561001057600080fd5b50600436106100365760003560e01c806308826ac11461003b5780639f5eed751461006a575b600080fd5b61004e6100493660046101bf565b61007d565b6040516001600160a01b03909116815260200160405180910390f35b61004e6100783660046101e1565b610111565b6000808260405161008d90610196565b6001600160a01b039091168152604060208201819052600090820152606001604051809103906000f0801580156100c8573d6000803e3d6000fd5b509050826001600160a01b0316816001600160a01b03167f3d2489efb661e8b1c3679865db649ca1de61d76a71184a1234de2e55786a6aad60405160405180910390a392915050565b60008084848460405161012390610196565b61012f93929190610266565b604051809103906000f08015801561014b573d6000803e3d6000fd5b509050846001600160a01b0316816001600160a01b03167f3d2489efb661e8b1c3679865db649ca1de61d76a71184a1234de2e55786a6aad60405160405180910390a3949350505050565b61042e806102a683390190565b80356001600160a01b03811681146101ba57600080fd5b919050565b6000602082840312156101d157600080fd5b6101da826101a3565b9392505050565b6000806000604084860312156101f657600080fd5b6101ff846101a3565b9250602084013567ffffffffffffffff81111561021b57600080fd5b8401601f8101861361022c57600080fd5b803567ffffffffffffffff81111561024357600080fd5b86602082840101111561025557600080fd5b939660209190910195509293505050565b6001600160a01b038416815260406020820152816040820152818360608301376000818301606090810191909152601f909201601f191601019291505056fe608060405234801561001057600080fd5b5060405161042e38038061042e83398101604081905261002f91610279565b818161003b8282610044565b50505050610369565b61004d826100a3565b6040516001600160a01b038316907fbc7cd75a20ee27fd9adebab32041f755214dbc6bffa90cc0225b39da2e5c2d3b90600090a280511561009757610092828261011f565b505050565b61009f610196565b5050565b806001600160a01b03163b6000036100de57604051634c9c8ce360e01b81526001600160a01b03821660048201526024015b60405180910390fd5b7f360894a13ba1a3210667c828492db98dca3e2076cc3735a920a3ca505d382bbc80546001600160a01b0319166001600160a01b0392909216919091179055565b6060600080846001600160a01b03168460405161013c919061034d565b600060405180830381855af49150503d8060008114610177576040519150601f19603f3d011682016040523d82523d6000602084013e61017c565b606091505b50909250905061018d8583836101b7565b95945050505050565b34156101b55760405163b398979f60e01b815260040160405180910390fd5b565b6060826101cc576101c782610216565b61020f565b81511580156101e357506001600160a01b0384163b155b1561020c57604051639996b31560e01b81526001600160a01b03851660048201526024016100d5565b50805b9392505050565b8051156102265780518082602001fd5b60405163d6bda27560e01b815260040160405180910390fd5b634e487b7160e01b600052604160045260246000fd5b60005b83811015610270578181015183820152602001610258565b50506000910152565b6000806040838503121561028c57600080fd5b82516001600160a01b03811681146102a357600080fd5b60208401519092506001600160401b038111156102bf57600080fd5b8301601f810185136102d057600080fd5b80516001600160401b038111156102e9576102e961023f565b604051601f8201601f19908116603f011681016001600160401b03811182821017156103175761031761023f565b60405281815282820160200187101561032f57600080fd5b610340826020830160208601610255565b8093505050509250929050565b6000825161035f818460208701610255565b9190910192915050565b60b7806103776000396000f3fe6080604052600a600c565b005b60186014601a565b605e565b565b600060597f360894a13ba1a3210667c828492db98dca3e2076cc3735a920a3ca505d382bbc5473ffffffffffffffffffffffffffffffffffffffff1690565b905090565b3660008037600080366000845af43d6000803e808015607c573d6000f35b3d6000fdfea264697066735822122031f8d7fe694f24f77d0cfb71d513b7eba51b88e6985f58bd9abb55731b68881f64736f6c634300081c0033a2646970667358221220591506efb01e9c4fbc98b6cc0edcdbc8daad0c7df3a1becd463eef01fb13302364736f6c634300081c0033",
					"opcodes": "PUSH1 0x80 PUSH1 0x40 MSTORE CALLVALUE DUP1 ISZERO PUSH1 0xF JUMPI PUSH1 0x0 DUP1 REVERT JUMPDEST POP PUSH2 0x709 DUP1 PUSH2 0x1F PUSH1 0x0 CODECOPY PUSH1 0x0 RETURN INVALID PUSH1 0x80 PUSH1 0x40 MSTORE CALLVALUE DUP1 ISZERO PUSH2 0x10 JUMPI PUSH1 0x0 DUP1 REVERT JUMPDEST POP PUSH1 0x4 CALLDATASIZE LT PUSH2 0x36 JUMPI PUSH1 0x0 CALLDATALOAD PUSH1 0xE0 SHR DUP1 PUSH4 0x8826AC1 EQ PUSH2 0x3B JUMPI DUP1 PUSH4 0x9F5EED75 EQ PUSH2 0x6A JUMPI JUMPDEST PUSH1 0x0 DUP1 REVERT JUMPDEST PUSH2 0x4E PUSH2 0x49 CALLDATASIZE PUSH1 0x4 PUSH2 0x1BF JUMP JUMPDEST PUSH2 0x7D JUMP JUMPDEST PUSH1 0x40 MLOAD PUSH1 0x1 PUSH1 0x1 PUSH1 0xA0 SHL SUB SWAP1 SWAP2 AND DUP2 MSTORE PUSH1 0x20 ADD PUSH1 0x40 MLOAD DUP1 SWAP2 SUB SWAP1 RETURN JUMPDEST PUSH2 0x4E PUSH2 0x78 CALLDATASIZE PUSH1 0x4 PUSH2 0x1E1 JUMP JUMPDEST PUSH2 0x111 JUMP JUMPDEST PUSH1 0x0 DUP1 DUP3 PUSH1 0x40 MLOAD PUSH2 0x8D SWAP1 PUSH2 0x196 JUMP JUMPDEST PUSH1 0x1 PUSH1 0x1 PUSH1 0xA0 SHL SUB SWAP1 SWAP2 AND DUP2 MSTORE PUSH1 0x40 PUSH1 0x20 DUP3 ADD DUP2 SWAP1 MSTORE PUSH1 0x0 SWAP1 DUP3 ADD MSTORE PUSH1 0x60 ADD PUSH1 0x40 MLOAD DUP1 SWAP2 SUB SWAP1 PUSH1 0x0 CREATE DUP1 ISZERO DUP1 ISZERO PUSH2 0xC8 JUMPI RETURNDATASIZE PUSH1 0x0 DUP1 RETURNDATACOPY RETURNDATASIZE PUSH1 0x0 REVERT JUMPDEST POP SWAP1 POP DUP3 PUSH1 0x1 PUSH1 0x1 PUSH1 0xA0 SHL SUB AND DUP2 PUSH1 0x1 PUSH1 0x1 PUSH1 0xA0 SHL SUB AND PUSH32 0x3D2489EFB661E8B1C3679865DB649CA1DE61D76A71184A1234DE2E55786A6AAD PUSH1 0x40 MLOAD PUSH1 0x40 MLOAD DUP1 SWAP2 SUB SWAP1 LOG3 SWAP3 SWAP2 POP POP JUMP JUMPDEST PUSH1 0x0 DUP1 DUP5 DUP5 DUP5 PUSH1 0x40 MLOAD PUSH2 0x123 SWAP1 PUSH2 0x196 JUMP JUMPDEST PUSH2 0x12F SWAP4 SWAP3 SWAP2 SWAP1 PUSH2 0x266 JUMP JUMPDEST PUSH1 0x40 MLOAD DUP1 SWAP2 SUB SWAP1 PUSH1 0x0 CREATE DUP1 ISZERO DUP1 ISZERO PUSH2 0x14B JUMPI RETURNDATASIZE PUSH1 0x0 DUP1 RETURNDATACOPY RETURNDATASIZE PUSH1 0x0 REVERT JUMPDEST POP SWAP1 POP DUP5 PUSH1 0x1 PUSH1 0x1 PUSH1 0xA0 SHL SUB AND DUP2 PUSH1 0x1 PUSH1 0x1 PUSH1 0xA0 SHL SUB AND PUSH32 0x3D2489EFB661E8B1C3679865DB649CA1DE61D76A71184A1234DE2E55786A6AAD PUSH1 0x40 MLOAD PUSH1 0x40 MLOAD DUP1 SWAP2 SUB SWAP1 LOG3 SWAP5 SWAP4 POP POP POP POP JUMP JUMPDEST PUSH2 0x42E DUP1 PUSH2 0x2A6 DUP4 CODECOPY ADD SWAP1 JUMP JUMPDEST DUP1 CALLDATALOAD PUSH1 0x1 PUSH1 0x1 PUSH1 0xA0 SHL SUB DUP2 AND DUP2 EQ PUSH2 0x1BA JUMPI PUSH1 0x0 DUP1 REVERT JUMPDEST SWAP2 SWAP1 POP JUMP JUMPDEST PUSH1 0x0 PUSH1 0x20 DUP3 DUP5 SUB SLT ISZERO PUSH2 0x1D1 JUMPI PUSH1 0x0 DUP1 REVERT JUMPDEST PUSH2 0x1DA DUP3 PUSH2 0x1A3 JUMP JUMPDEST SWAP4 SWAP3 POP POP POP JUMP JUMPDEST PUSH1 0x0 DUP1 PUSH1 0x0 PUSH1 0x40 DUP5 DUP7 SUB SLT ISZERO PUSH2 0x1F6 JUMPI PUSH1 0x0 DUP1 REVERT JUMPDEST PUSH2 0x1FF DUP5 PUSH2 0x1A3 JUMP JUMPDEST SWAP3 POP PUSH1 0x20 DUP5 ADD CALLDATALOAD PUSH8 0xFFFFFFFFFFFFFFFF DUP2 GT ISZERO PUSH2 0x21B JUMPI PUSH1 0x0 DUP1 REVERT JUMPDEST DUP5 ADD PUSH1 0x1F DUP2 ADD DUP7 SGT PUSH2 0x22C JUMPI PUSH1 0x0 DUP1 REVERT JUMPDEST DUP1 CALLDATALOAD PUSH8 0xFFFFFFFFFFFFFFFF DUP2 GT ISZERO PUSH2 0x243 JUMPI PUSH1 0x0 DUP1 REVERT JUMPDEST DUP7 PUSH1 0x20 DUP3 DUP5 ADD ADD GT ISZERO PUSH2 0x255 JUMPI PUSH1 0x0 DUP1 REVERT JUMPDEST SWAP4 SWAP7 PUSH1 0x20 SWAP2 SWAP1 SWAP2 ADD SWAP6 POP SWAP3 SWAP4 POP POP POP JUMP JUMPDEST PUSH1 0x1 PUSH1 0x1 PUSH1 0xA0 SHL SUB DUP5 AND DUP2 MSTORE PUSH1 0x40 PUSH1 0x20 DUP3 ADD MSTORE DUP2 PUSH1 0x40 DUP3 ADD MSTORE DUP2 DUP4 PUSH1 0x60 DUP4 ADD CALLDATACOPY PUSH1 0x0 DUP2 DUP4 ADD PUSH1 0x60 SWAP1 DUP2 ADD SWAP2 SWAP1 SWAP2 MSTORE PUSH1 0x1F SWAP1 SWAP3 ADD PUSH1 0x1F NOT AND ADD ADD SWAP3 SWAP2 POP POP JUMP INVALID PUSH1 0x80 PUSH1 0x40 MSTORE CALLVALUE DUP1 ISZERO PUSH2 0x10 JUMPI PUSH1 0x0 DUP1 REVERT JUMPDEST POP PUSH1 0x40 MLOAD PUSH2 0x42E CODESIZE SUB DUP1 PUSH2 0x42E DUP4 CODECOPY DUP2 ADD PUSH1 0x40 DUP2 SWAP1 MSTORE PUSH2 0x2F SWAP2 PUSH2 0x279 JUMP JUMPDEST DUP2 DUP2 PUSH2 0x3B DUP3 DUP3 PUSH2 0x44 JUMP JUMPDEST POP POP POP POP PUSH2 0x369 JUMP JUMPDEST PUSH2 0x4D DUP3 PUSH2 0xA3 JUMP JUMPDEST PUSH1 0x40 MLOAD PUSH1 0x1 PUSH1 0x1 PUSH1 0xA0 SHL SUB DUP4 AND SWAP1 PUSH32 0xBC7CD75A20EE27FD9ADEBAB32041F755214DBC6BFFA90CC0225B39DA2E5C2D3B SWAP1 PUSH1 0x0 SWAP1 LOG2 DUP1 MLOAD ISZERO PUSH2 0x97 JUMPI PUSH2 0x92 DUP3 DUP3 PUSH2 0x11F JUMP JUMPDEST POP POP POP JUMP JUMPDEST PUSH2 0x9F PUSH2 0x196 JUMP JUMPDEST POP POP JUMP JUMPDEST DUP1 PUSH1 0x1 PUSH1 0x1 PUSH1 0xA0 SHL SUB AND EXTCODESIZE PUSH1 0x0 SUB PUSH2 0xDE JUMPI PUSH1 0x40 MLOAD PUSH4 0x4C9C8CE3 PUSH1 0xE0 SHL DUP2 MSTORE PUSH1 0x1 PUSH1 0x1 PUSH1 0xA0 SHL SUB DUP3 AND PUSH1 0x4 DUP3 ADD MSTORE PUSH1 0x24 ADD JUMPDEST PUSH1 0x40 MLOAD DUP1 SWAP2 SUB SWAP1 REVERT JUMPDEST PUSH32 0x360894A13BA1A3210667C828492DB98DCA3E2076CC3735A920A3CA505D382BBC DUP1 SLOAD PUSH1 0x1 PUSH1 0x1 PUSH1 0xA0 SHL SUB NOT AND PUSH1 0x1 PUSH1 0x1 PUSH1 0xA0 SHL SUB SWAP3 SWAP1 SWAP3 AND SWAP2 SWAP1 SWAP2 OR SWAP1 SSTORE JUMP JUMPDEST PUSH1 0x60 PUSH1 0x0 DUP1 DUP5 PUSH1 0x1 PUSH1 0x1 PUSH1 0xA0 SHL SUB AND DUP5 PUSH1 0x40 MLOAD PUSH2 0x13C SWAP2 SWAP1 PUSH2 0x34D JUMP JUMPDEST PUSH1 0x0 PUSH1 0x40 MLOAD DUP1 DUP4 SUB DUP2 DUP6 GAS DELEGATECALL SWAP2 POP POP RETURNDATASIZE DUP1 PUSH1 0x0 DUP2 EQ PUSH2 0x177 JUMPI PUSH1 0x40 MLOAD SWAP2 POP PUSH1 0x1F NOT PUSH1 0x3F RETURNDATASIZE ADD AND DUP3 ADD PUSH1 0x40 MSTORE RETURNDATASIZE DUP3 MSTORE RETURNDATASIZE PUSH1 0x0 PUSH1 0x20 DUP5 ADD RETURNDATACOPY PUSH2 0x17C JUMP JUMPDEST PUSH1 0x60 SWAP2 POP JUMPDEST POP SWAP1 SWAP3 POP SWAP1 POP PUSH2 0x18D DUP6 DUP4 DUP4 PUSH2 0x1B7 JUMP JUMPDEST SWAP6 SWAP5 POP POP POP POP POP JUMP JUMPDEST CALLVALUE ISZERO PUSH2 0x1B5 JUMPI PUSH1 0x40 MLOAD PUSH4 0xB398979F PUSH1 0xE0 SHL DUP2 MSTORE PUSH1 0x4 ADD PUSH1 0x40 MLOAD DUP1 SWAP2 SUB SWAP1 REVERT JUMPDEST JUMP JUMPDEST PUSH1 0x60 DUP3 PUSH2 0x1CC JUMPI PUSH2 0x1C7 DUP3 PUSH2 0x216 JUMP JUMPDEST PUSH2 0x20F JUMP JUMPDEST DUP2 MLOAD ISZERO DUP1 ISZERO PUSH2 0x1E3 JUMPI POP PUSH1 0x1 PUSH1 0x1 PUSH1 0xA0 SHL SUB DUP5 AND EXTCODESIZE ISZERO JUMPDEST ISZERO PUSH2 0x20C JUMPI PUSH1 0x40 MLOAD PUSH4 0x9996B315 PUSH1 0xE0 SHL DUP2 MSTORE PUSH1 0x1 PUSH1 0x1 PUSH1 0xA0 SHL SUB DUP6 AND PUSH1 0x4 DUP3 ADD MSTORE PUSH1 0x24 ADD PUSH2 0xD5 JUMP JUMPDEST POP DUP1 JUMPDEST SWAP4 SWAP3 POP POP POP JUMP JUMPDEST DUP1 MLOAD ISZERO PUSH2 0x226 JUMPI DUP1 MLOAD DUP1 DUP3 PUSH1 0x20 ADD REVERT JUMPDEST PUSH1 0x40 MLOAD PUSH4 0xD6BDA275 PUSH1 0xE0 SHL DUP2 MSTORE PUSH1 0x4 ADD PUSH1 0x40 MLOAD DUP1 SWAP2 SUB SWAP1 REVERT JUMPDEST PUSH4 0x4E487B71 PUSH1 0xE0 SHL PUSH1 0x0 MSTORE PUSH1 0x41 PUSH1 0x4 MSTORE PUSH1 0x24 PUSH1 0x0 REVERT JUMPDEST PUSH1 0x0 JUMPDEST DUP4 DUP2 LT ISZERO PUSH2 0x270 JUMPI DUP2 DUP2 ADD MLOAD DUP4 DUP3 ADD MSTORE PUSH1 0x20 ADD PUSH2 0x258 JUMP JUMPDEST POP POP PUSH1 0x0 SWAP2 ADD MSTORE JUMP JUMPDEST PUSH1 0x0 DUP1 PUSH1 0x40 DUP4 DUP6 SUB SLT ISZERO PUSH2 0x28C JUMPI PUSH1 0x0 DUP1 REVERT JUMPDEST DUP3 MLOAD PUSH1 0x1 PUSH1 0x1 PUSH1 0xA0 SHL SUB DUP2 AND DUP2 EQ PUSH2 0x2A3 JUMPI PUSH1 0x0 DUP1 REVERT JUMPDEST PUSH1 0x20 DUP5 ADD MLOAD SWAP1 SWAP3 POP PUSH1 0x1 PUSH1 0x1 PUSH1 0x40 SHL SUB DUP2 GT ISZERO PUSH2 0x2BF JUMPI PUSH1 0x0 DUP1 REVERT JUMPDEST DUP4 ADD PUSH1 0x1F DUP2 ADD DUP6 SGT PUSH2 0x2D0 JUMPI PUSH1 0x0 DUP1 REVERT JUMPDEST DUP1 MLOAD PUSH1 0x1 PUSH1 0x1 PUSH1 0x40 SHL SUB DUP2 GT ISZERO PUSH2 0x2E9 JUMPI PUSH2 0x2E9 PUSH2 0x23F JUMP JUMPDEST PUSH1 0x40 MLOAD PUSH1 0x1F DUP3 ADD PUSH1 0x1F NOT SWAP1 DUP2 AND PUSH1 0x3F ADD AND DUP2 ADD PUSH1 0x1 PUSH1 0x1 PUSH1 0x40 SHL SUB DUP2 GT DUP3 DUP3 LT OR ISZERO PUSH2 0x317 JUMPI PUSH2 0x317 PUSH2 0x23F JUMP JUMPDEST PUSH1 0x40 MSTORE DUP2 DUP2 MSTORE DUP3 DUP3 ADD PUSH1 0x20 ADD DUP8 LT ISZERO PUSH2 0x32F JUMPI PUSH1 0x0 DUP1 REVERT JUMPDEST PUSH2 0x340 DUP3 PUSH1 0x20 DUP4 ADD PUSH1 0x20 DUP7 ADD PUSH2 0x255 JUMP JUMPDEST DUP1 SWAP4 POP POP POP POP SWAP3 POP SWAP3 SWAP1 POP JUMP JUMPDEST PUSH1 0x0 DUP3 MLOAD PUSH2 0x35F DUP2 DUP5 PUSH1 0x20 DUP8 ADD PUSH2 0x255 JUMP JUMPDEST SWAP2 SWAP1 SWAP2 ADD SWAP3 SWAP2 POP POP JUMP JUMPDEST PUSH1 0xB7 DUP1 PUSH2 0x377 PUSH1 0x0 CODECOPY PUSH1 0x0 RETURN INVALID PUSH1 0x80 PUSH1 0x40 MSTORE PUSH1 0xA PUSH1 0xC JUMP JUMPDEST STOP JUMPDEST PUSH1 0x18 PUSH1 0x14 PUSH1 0x1A JUMP JUMPDEST PUSH1 0x5E JUMP JUMPDEST JUMP JUMPDEST PUSH1 0x0 PUSH1 0x59 PUSH32 0x360894A13BA1A3210667C828492DB98DCA3E2076CC3735A920A3CA505D382BBC SLOAD PUSH20 0xFFFFFFFFFFFFFFFFFFFFFFFFFFFFFFFFFFFFFFFF AND SWAP1 JUMP JUMPDEST SWAP1 POP SWAP1 JUMP JUMPDEST CALLDATASIZE PUSH1 0x0 DUP1 CALLDATACOPY PUSH1 0x0 DUP1 CALLDATASIZE PUSH1 0x0 DUP5 GAS DELEGATECALL RETURNDATASIZE PUSH1 0x0 DUP1 RETURNDATACOPY DUP1 DUP1 ISZERO PUSH1 0x7C JUMPI RETURNDATASIZE PUSH1 0x0 RETURN JUMPDEST RETURNDATASIZE PUSH1 0x0 REVERT INVALID LOG2 PUSH5 0x6970667358 0x22 SLT KECCAK256 BALANCE 0xF8 0xD7 INVALID PUSH10 0x4F24F77D0CFB71D513B7 0xEB 0xA5 SHL DUP9 0xE6 SWAP9 PUSH0 PC 0xBD SWAP11 0xBB SSTORE PUSH20 0x1B68881F64736F6C634300081C0033A264697066 PUSH20 0x58221220591506EFB01E9C4FBC98B6CC0EDCDBC8 0xDA 0xAD 0xC PUSH30 0xF3A1BECD463EEF01FB13302364736F6C634300081C003300000000000000 "
				},
				"gasEstimates": {
					"creation": {
						"codeDepositCost": "360200",
						"executionCost": "399",
						"totalCost": "360599"
					},
					"external": {
						"deployProxy(address,bytes)": "infinite",
						"deployProxyWithoutInit(address)": "infinite"
					}
				},
				"methodIdentifiers": {
					"deployProxy(address,bytes)": "9f5eed75",
					"deployProxyWithoutInit(address)": "08826ac1"
				}
			},
			"storageLayout": {
				"storage": [],
				"types": null
			},
			"userdoc": {
				"kind": "user",
				"methods": {},
				"version": 1
			}
		}
	}
}