{
	"bridge samples/profile-with-fee.sol": {
		"LocalOpenWorkV2": {
			"abi": [
				{
					"inputs": [
						{
							"internalType": "address",
							"name": "_endpoint",
							"type": "address"
						},
						{
							"internalType": "address",
							"name": "_owner",
							"type": "address"
						},
						{
							"internalType": "address",
							"name": "_usdToken",
							"type": "address"
						}
					],
					"stateMutability": "nonpayable",
					"type": "constructor"
				},
				{
					"inputs": [],
					"name": "InvalidDelegate",
					"type": "error"
				},
				{
					"inputs": [],
					"name": "InvalidEndpointCall",
					"type": "error"
				},
				{
					"inputs": [],
					"name": "LzTokenUnavailable",
					"type": "error"
				},
				{
					"inputs": [
						{
							"internalType": "uint32",
							"name": "eid",
							"type": "uint32"
						}
					],
					"name": "NoPeer",
					"type": "error"
				},
				{
					"inputs": [
						{
							"internalType": "uint256",
							"name": "msgValue",
							"type": "uint256"
						}
					],
					"name": "NotEnoughNative",
					"type": "error"
				},
				{
					"inputs": [
						{
							"internalType": "address",
							"name": "addr",
							"type": "address"
						}
					],
					"name": "OnlyEndpoint",
					"type": "error"
				},
				{
					"inputs": [
						{
							"internalType": "uint32",
							"name": "eid",
							"type": "uint32"
						},
						{
							"internalType": "bytes32",
							"name": "sender",
							"type": "bytes32"
						}
					],
					"name": "OnlyPeer",
					"type": "error"
				},
				{
					"inputs": [
						{
							"internalType": "address",
							"name": "owner",
							"type": "address"
						}
					],
					"name": "OwnableInvalidOwner",
					"type": "error"
				},
				{
					"inputs": [
						{
							"internalType": "address",
							"name": "account",
							"type": "address"
						}
					],
					"name": "OwnableUnauthorizedAccount",
					"type": "error"
				},
				{
					"inputs": [
						{
							"internalType": "address",
							"name": "token",
							"type": "address"
						}
					],
					"name": "SafeERC20FailedOperation",
					"type": "error"
				},
				{
					"anonymous": false,
					"inputs": [
						{
							"indexed": true,
							"internalType": "address",
							"name": "to",
							"type": "address"
						},
						{
							"indexed": false,
							"internalType": "uint256",
							"name": "amount",
							"type": "uint256"
						}
					],
					"name": "FeesWithdrawn",
					"type": "event"
				},
				{
					"anonymous": false,
					"inputs": [
						{
							"indexed": true,
							"internalType": "address",
							"name": "previousOwner",
							"type": "address"
						},
						{
							"indexed": true,
							"internalType": "address",
							"name": "newOwner",
							"type": "address"
						}
					],
					"name": "OwnershipTransferred",
					"type": "event"
				},
				{
					"anonymous": false,
					"inputs": [
						{
							"indexed": false,
							"internalType": "uint32",
							"name": "eid",
							"type": "uint32"
						},
						{
							"indexed": false,
							"internalType": "bytes32",
							"name": "peer",
							"type": "bytes32"
						}
					],
					"name": "PeerSet",
					"type": "event"
				},
				{
					"anonymous": false,
					"inputs": [
						{
							"indexed": true,
							"internalType": "uint32",
							"name": "dstEid",
							"type": "uint32"
						},
						{
							"indexed": true,
							"internalType": "address",
							"name": "user",
							"type": "address"
						},
						{
							"indexed": false,
							"internalType": "string",
							"name": "name",
							"type": "string"
						},
						{
							"indexed": false,
							"internalType": "uint256",
							"name": "usdtFee",
							"type": "uint256"
						}
					],
					"name": "UserProfileSent",
					"type": "event"
				},
				{
					"inputs": [
						{
							"components": [
								{
									"internalType": "uint32",
									"name": "srcEid",
									"type": "uint32"
								},
								{
									"internalType": "bytes32",
									"name": "sender",
									"type": "bytes32"
								},
								{
									"internalType": "uint64",
									"name": "nonce",
									"type": "uint64"
								}
							],
							"internalType": "struct Origin",
							"name": "origin",
							"type": "tuple"
						}
					],
					"name": "allowInitializePath",
					"outputs": [
						{
							"internalType": "bool",
							"name": "",
							"type": "bool"
						}
					],
					"stateMutability": "view",
					"type": "function"
				},
				{
					"inputs": [
						{
							"internalType": "uint32",
							"name": "_dstEid",
							"type": "uint32"
						},
						{
							"internalType": "string",
							"name": "name",
							"type": "string"
						},
						{
							"internalType": "string[]",
							"name": "skills",
							"type": "string[]"
						},
						{
							"internalType": "string",
							"name": "profileHash",
							"type": "string"
						},
						{
							"internalType": "uint256",
							"name": "usdtFee",
							"type": "uint256"
						},
						{
							"internalType": "bytes",
							"name": "_options",
							"type": "bytes"
						}
					],
					"name": "createUserProfile",
					"outputs": [],
					"stateMutability": "payable",
					"type": "function"
				},
				{
					"inputs": [],
					"name": "endpoint",
					"outputs": [
						{
							"internalType": "contract ILayerZeroEndpointV2",
							"name": "",
							"type": "address"
						}
					],
					"stateMutability": "view",
					"type": "function"
				},
				{
					"inputs": [
						{
							"components": [
								{
									"internalType": "uint32",
									"name": "srcEid",
									"type": "uint32"
								},
								{
									"internalType": "bytes32",
									"name": "sender",
									"type": "bytes32"
								},
								{
									"internalType": "uint64",
									"name": "nonce",
									"type": "uint64"
								}
							],
							"internalType": "struct Origin",
							"name": "",
							"type": "tuple"
						},
						{
							"internalType": "bytes",
							"name": "",
							"type": "bytes"
						},
						{
							"internalType": "address",
							"name": "_sender",
							"type": "address"
						}
					],
					"name": "isComposeMsgSender",
					"outputs": [
						{
							"internalType": "bool",
							"name": "",
							"type": "bool"
						}
					],
					"stateMutability": "view",
					"type": "function"
				},
				{
					"inputs": [
						{
							"components": [
								{
									"internalType": "uint32",
									"name": "srcEid",
									"type": "uint32"
								},
								{
									"internalType": "bytes32",
									"name": "sender",
									"type": "bytes32"
								},
								{
									"internalType": "uint64",
									"name": "nonce",
									"type": "uint64"
								}
							],
							"internalType": "struct Origin",
							"name": "_origin",
							"type": "tuple"
						},
						{
							"internalType": "bytes32",
							"name": "_guid",
							"type": "bytes32"
						},
						{
							"internalType": "bytes",
							"name": "_message",
							"type": "bytes"
						},
						{
							"internalType": "address",
							"name": "_executor",
							"type": "address"
						},
						{
							"internalType": "bytes",
							"name": "_extraData",
							"type": "bytes"
						}
					],
					"name": "lzReceive",
					"outputs": [],
					"stateMutability": "payable",
					"type": "function"
				},
				{
					"inputs": [
						{
							"internalType": "uint32",
							"name": "",
							"type": "uint32"
						},
						{
							"internalType": "bytes32",
							"name": "",
							"type": "bytes32"
						}
					],
					"name": "nextNonce",
					"outputs": [
						{
							"internalType": "uint64",
							"name": "nonce",
							"type": "uint64"
						}
					],
					"stateMutability": "view",
					"type": "function"
				},
				{
					"inputs": [],
					"name": "oAppVersion",
					"outputs": [
						{
							"internalType": "uint64",
							"name": "senderVersion",
							"type": "uint64"
						},
						{
							"internalType": "uint64",
							"name": "receiverVersion",
							"type": "uint64"
						}
					],
					"stateMutability": "pure",
					"type": "function"
				},
				{
					"inputs": [],
					"name": "owner",
					"outputs": [
						{
							"internalType": "address",
							"name": "",
							"type": "address"
						}
					],
					"stateMutability": "view",
					"type": "function"
				},
				{
					"inputs": [
						{
							"internalType": "uint32",
							"name": "eid",
							"type": "uint32"
						}
					],
					"name": "peers",
					"outputs": [
						{
							"internalType": "bytes32",
							"name": "peer",
							"type": "bytes32"
						}
					],
					"stateMutability": "view",
					"type": "function"
				},
				{
					"inputs": [
						{
							"internalType": "uint32",
							"name": "_dstEid",
							"type": "uint32"
						},
						{
							"internalType": "string",
							"name": "name",
							"type": "string"
						},
						{
							"internalType": "string[]",
							"name": "skills",
							"type": "string[]"
						},
						{
							"internalType": "string",
							"name": "profileHash",
							"type": "string"
						},
						{
							"internalType": "bytes",
							"name": "_options",
							"type": "bytes"
						}
					],
					"name": "quoteCreateUserProfile",
					"outputs": [
						{
							"components": [
								{
									"internalType": "uint256",
									"name": "nativeFee",
									"type": "uint256"
								},
								{
									"internalType": "uint256",
									"name": "lzTokenFee",
									"type": "uint256"
								}
							],
							"internalType": "struct MessagingFee",
							"name": "",
							"type": "tuple"
						}
					],
					"stateMutability": "view",
					"type": "function"
				},
				{
					"inputs": [],
					"name": "renounceOwnership",
					"outputs": [],
					"stateMutability": "nonpayable",
					"type": "function"
				},
				{
					"inputs": [
						{
							"internalType": "address",
							"name": "_delegate",
							"type": "address"
						}
					],
					"name": "setDelegate",
					"outputs": [],
					"stateMutability": "nonpayable",
					"type": "function"
				},
				{
					"inputs": [
						{
							"internalType": "uint32",
							"name": "_eid",
							"type": "uint32"
						},
						{
							"internalType": "bytes32",
							"name": "_peer",
							"type": "bytes32"
						}
					],
					"name": "setPeer",
					"outputs": [],
					"stateMutability": "nonpayable",
					"type": "function"
				},
				{
					"inputs": [
						{
							"internalType": "address",
							"name": "newOwner",
							"type": "address"
						}
					],
					"name": "transferOwnership",
					"outputs": [],
					"stateMutability": "nonpayable",
					"type": "function"
				},
				{
					"inputs": [],
					"name": "usdToken",
					"outputs": [
						{
							"internalType": "contract IERC20",
							"name": "",
							"type": "address"
						}
					],
					"stateMutability": "view",
					"type": "function"
				},
				{
					"inputs": [
						{
							"internalType": "address",
							"name": "to",
							"type": "address"
						},
						{
							"internalType": "uint256",
							"name": "amount",
							"type": "uint256"
						}
					],
					"name": "withdrawFees",
					"outputs": [],
					"stateMutability": "nonpayable",
					"type": "function"
				},
				{
					"stateMutability": "payable",
					"type": "receive"
				}
			],
			"devdoc": {
				"details": "LayerZero V2 OApp that lets **each caller decide the USDT fee** they deposit with the      profile-creation message.  The fee is passed as a parameter, pulled via `transferFrom`,      and retained in this contract.",
				"errors": {
					"OwnableInvalidOwner(address)": [
						{
							"details": "The owner is not a valid owner account. (eg. `address(0)`)"
						}
					],
					"OwnableUnauthorizedAccount(address)": [
						{
							"details": "The caller account is not authorized to perform an operation."
						}
					],
					"SafeERC20FailedOperation(address)": [
						{
							"details": "An operation with an ERC-20 token failed."
						}
					]
				},
				"kind": "dev",
				"methods": {
					"allowInitializePath((uint32,bytes32,uint64))": {
						"details": "This indicates to the endpoint that the OApp has enabled msgs for this particular path to be received.This defaults to assuming if a peer has been set, its initialized. Can be overridden by the OApp if there is other logic to determine this.",
						"params": {
							"origin": "The origin information containing the source endpoint and sender address."
						},
						"returns": {
							"_0": "Whether the path has been initialized."
						}
					},
					"createUserProfile(uint32,string,string[],string,uint256,bytes)": {
						"params": {
							"_dstEid": "LayerZero destination chain ID",
							"_options": "LayerZero options (e.g., gas limits); pass empty bytes if unsure",
							"name": "User name",
							"profileHash": "IPFS / Arweave hash",
							"skills": "Array of skills",
							"usdtFee": "Amount of USDT caller wants to deposit (6-dec units)"
						}
					},
					"isComposeMsgSender((uint32,bytes32,uint64),bytes,address)": {
						"details": "_origin The origin information containing the source endpoint and sender address.  - srcEid: The source chain endpoint ID.  - sender: The sender address on the src chain.  - nonce: The nonce of the message._message The lzReceive payload.Applications can optionally choose to implement separate composeMsg senders that are NOT the bridging layer.The default sender IS the OAppReceiver implementer.",
						"params": {
							"_sender": "The sender address."
						},
						"returns": {
							"_0": "isSender Is a valid sender."
						}
					},
					"lzReceive((uint32,bytes32,uint64),bytes32,bytes,address,bytes)": {
						"details": "Entry point for receiving messages or packets from the endpoint.Entry point for receiving msg/packet from the LayerZero endpoint.",
						"params": {
							"_executor": "The address of the executor for the received message.",
							"_extraData": "Additional arbitrary data provided by the corresponding executor.",
							"_guid": "The unique identifier for the received LayerZero message.",
							"_message": "The payload of the received message.",
							"_origin": "The origin information containing the source endpoint and sender address.  - srcEid: The source chain endpoint ID.  - sender: The sender address on the src chain.  - nonce: The nonce of the message."
						}
					},
					"nextNonce(uint32,bytes32)": {
						"details": "_srcEid The source endpoint ID._sender The sender address.The path nonce starts from 1. If 0 is returned it means that there is NO nonce ordered enforcement.Is required by the off-chain executor to determine the OApp expects msg execution is ordered.This is also enforced by the OApp.By default this is NOT enabled. ie. nextNonce is hardcoded to return 0.",
						"returns": {
							"nonce": "The next nonce."
						}
					},
					"oAppVersion()": {
						"returns": {
							"receiverVersion": "The version of the OAppReceiver.sol implementation.",
							"senderVersion": "The version of the OAppSender.sol implementation."
						}
					},
					"owner()": {
						"details": "Returns the address of the current owner."
					},
					"renounceOwnership()": {
						"details": "Leaves the contract without owner. It will not be possible to call `onlyOwner` functions. Can only be called by the current owner. NOTE: Renouncing ownership will leave the contract without an owner, thereby disabling any functionality that is only available to the owner."
					},
					"setDelegate(address)": {
						"details": "Only the owner/admin of the OApp can call this function.Provides the ability for a delegate to set configs, on behalf of the OApp, directly on the Endpoint contract.",
						"params": {
							"_delegate": "The address of the delegate to be set."
						}
					},
					"setPeer(uint32,bytes32)": {
						"details": "Only the owner/admin of the OApp can call this function.Indicates that the peer is trusted to send LayerZero messages to this OApp.Set this to bytes32(0) to remove the peer address.Peer is a bytes32 to accommodate non-evm chains.",
						"params": {
							"_eid": "The endpoint ID.",
							"_peer": "The address of the peer to be associated with the corresponding endpoint."
						}
					},
					"transferOwnership(address)": {
						"details": "Transfers ownership of the contract to a new account (`newOwner`). Can only be called by the current owner."
					}
				},
				"title": "LocalOpenWorkV2",
				"version": 1
			},
			"evm": {
				"assembly": "    /* \"bridge samples/profile-with-fee.sol\":622:5424  contract LocalOpenWorkV2 is OApp, ReentrancyGuard {... */\n  mstore(0x40, 0xc0)\n    /* \"bridge samples/profile-with-fee.sol\":1706:1887  constructor(... */\n  callvalue\n  dup1\n  iszero\n  tag_1\n  jumpi\n  0x00\n  dup1\n  revert\ntag_1:\n  pop\n  mload(0x40)\n  sub(codesize, bytecodeSize)\n  dup1\n  bytecodeSize\n  dup4\n  codecopy\n  dup2\n  add\n  0x40\n  dup2\n  swap1\n  mstore\n  tag_2\n  swap2\n  tag_3\n  jump\t// in\ntag_2:\n    /* \"bridge samples/profile-with-fee.sol\":1807:1816  _endpoint */\n  dup3\n    /* \"bridge samples/profile-with-fee.sol\":1818:1824  _owner */\n  dup3\n    /* \"bridge samples/profile-with-fee.sol\":1807:1816  _endpoint */\n  dup2\n    /* \"bridge samples/profile-with-fee.sol\":1818:1824  _owner */\n  dup2\n  dup1\n  sub(shl(0xa0, 0x01), 0x01)\n    /* \"@openzeppelin/contracts/access/Ownable.sol\":1273:1299  initialOwner == address(0) */\n  dup2\n  and\n    /* \"@openzeppelin/contracts/access/Ownable.sol\":1269:1364  if (initialOwner == address(0)) {... */\n  tag_10\n  jumpi\n    /* \"@openzeppelin/contracts/access/Ownable.sol\":1322:1353  OwnableInvalidOwner(address(0)) */\n  mload(0x40)\n  shl(0xe0, 0x1e4fbdf7)\n  dup2\n  mstore\n    /* \"@openzeppelin/contracts/access/Ownable.sol\":1350:1351  0 */\n  0x00\n    /* \"@openzeppelin/contracts/access/Ownable.sol\":1322:1353  OwnableInvalidOwner(address(0)) */\n  0x04\n  dup3\n  add\n    /* \"#utility.yul\":725:776   */\n  mstore\n    /* \"#utility.yul\":698:716   */\n  0x24\n  add\n    /* \"@openzeppelin/contracts/access/Ownable.sol\":1322:1353  OwnableInvalidOwner(address(0)) */\n  mload(0x40)\n  dup1\n  swap2\n  sub\n  swap1\n  revert\n    /* \"@openzeppelin/contracts/access/Ownable.sol\":1269:1364  if (initialOwner == address(0)) {... */\ntag_10:\n    /* \"@openzeppelin/contracts/access/Ownable.sol\":1373:1405  _transferOwnership(initialOwner) */\n  tag_13\n    /* \"@openzeppelin/contracts/access/Ownable.sol\":1392:1404  initialOwner */\n  dup2\n    /* \"@openzeppelin/contracts/access/Ownable.sol\":1373:1391  _transferOwnership */\n  tag_14\n    /* \"@openzeppelin/contracts/access/Ownable.sol\":1373:1405  _transferOwnership(initialOwner) */\n  jump\t// in\ntag_13:\n  pop\n  sub(shl(0xa0, 0x01), 0x01)\n    /* \"@layerzerolabs/oapp-evm/contracts/oapp/OAppCore.sol\":1047:1089  endpoint = ILayerZeroEndpointV2(_endpoint) */\n  dup1\n  dup4\n  and\n  0x80\n  mstore\n    /* \"@layerzerolabs/oapp-evm/contracts/oapp/OAppCore.sol\":1104:1127  _delegate == address(0) */\n  dup2\n  and\n    /* \"@layerzerolabs/oapp-evm/contracts/oapp/OAppCore.sol\":1100:1153  if (_delegate == address(0)) revert InvalidDelegate() */\n  tag_16\n  jumpi\n    /* \"@layerzerolabs/oapp-evm/contracts/oapp/OAppCore.sol\":1136:1153  InvalidDelegate() */\n  mload(0x40)\n  shl(0xe2, 0x2d618d81)\n  dup2\n  mstore\n  0x04\n  add\n  mload(0x40)\n  dup1\n  swap2\n  sub\n  swap1\n  revert\n    /* \"@layerzerolabs/oapp-evm/contracts/oapp/OAppCore.sol\":1100:1153  if (_delegate == address(0)) revert InvalidDelegate() */\ntag_16:\n    /* \"@layerzerolabs/oapp-evm/contracts/oapp/OAppCore.sol\":1163:1171  endpoint */\n  mload(0x80)\n    /* \"@layerzerolabs/oapp-evm/contracts/oapp/OAppCore.sol\":1163:1194  endpoint.setDelegate(_delegate) */\n  mload(0x40)\n  shl(0xe0, 0xca5eb5e1)\n  dup2\n  mstore\n  sub(shl(0xa0, 0x01), 0x01)\n    /* \"#utility.yul\":743:775   */\n  dup4\n  dup2\n  and\n    /* \"@layerzerolabs/oapp-evm/contracts/oapp/OAppCore.sol\":1163:1194  endpoint.setDelegate(_delegate) */\n  0x04\n  dup4\n  add\n    /* \"#utility.yul\":725:776   */\n  mstore\n    /* \"@layerzerolabs/oapp-evm/contracts/oapp/OAppCore.sol\":1163:1183  endpoint.setDelegate */\n  swap1\n  swap2\n  and\n  swap1\n  0xca5eb5e1\n  swap1\n    /* \"#utility.yul\":698:716   */\n  0x24\n  add\n    /* \"@layerzerolabs/oapp-evm/contracts/oapp/OAppCore.sol\":1163:1194  endpoint.setDelegate(_delegate) */\n  0x00\n  mload(0x40)\n  dup1\n  dup4\n  sub\n  dup2\n  0x00\n  dup8\n  dup1\n  extcodesize\n  iszero\n  dup1\n  iszero\n  tag_18\n  jumpi\n  0x00\n  dup1\n  revert\ntag_18:\n  pop\n  gas\n  call\n  iszero\n  dup1\n  iszero\n  tag_20\n  jumpi\n  returndatasize\n  0x00\n  dup1\n  returndatacopy\n  revert(0x00, returndatasize)\ntag_20:\n  pop\n  pop\n    /* \"@openzeppelin/contracts/security/ReentrancyGuard.sol\":1716:1717  1 */\n  0x01\n    /* \"@openzeppelin/contracts/security/ReentrancyGuard.sol\":1821:1828  _status */\n  0x02\n    /* \"@openzeppelin/contracts/security/ReentrancyGuard.sol\":1821:1843  _status = _NOT_ENTERED */\n  sstore\n  pop\n  pop\n  pop\n  sub(shl(0xa0, 0x01), 0x01)\n    /* \"bridge samples/profile-with-fee.sol\":1852:1880  usdToken = IERC20(_usdToken) */\n  swap1\n  swap4\n  and\n  0xa0\n  mstore\n  pop\n    /* \"bridge samples/profile-with-fee.sol\":622:5424  contract LocalOpenWorkV2 is OApp, ReentrancyGuard {... */\n  tag_27\n  swap4\n  pop\n  pop\n  pop\n  pop\n  jump\n    /* \"@openzeppelin/contracts/access/Ownable.sol\":2912:3099  function _transferOwnership(address newOwner) internal virtual {... */\ntag_14:\n    /* \"@openzeppelin/contracts/access/Ownable.sol\":2985:3001  address oldOwner */\n  0x00\n    /* \"@openzeppelin/contracts/access/Ownable.sol\":3004:3010  _owner */\n  dup1\n  sload\n  sub(shl(0xa0, 0x01), 0x01)\n    /* \"@openzeppelin/contracts/access/Ownable.sol\":3020:3037  _owner = newOwner */\n  dup4\n  dup2\n  and\n  not(sub(shl(0xa0, 0x01), 0x01))\n  dup4\n  and\n  dup2\n  or\n  dup5\n  sstore\n    /* \"@openzeppelin/contracts/access/Ownable.sol\":3052:3092  OwnershipTransferred(oldOwner, newOwner) */\n  mload(0x40)\n    /* \"@openzeppelin/contracts/access/Ownable.sol\":3004:3010  _owner */\n  swap2\n  swap1\n  swap3\n  and\n  swap3\n  dup4\n  swap2\n    /* \"@openzeppelin/contracts/access/Ownable.sol\":3052:3092  OwnershipTransferred(oldOwner, newOwner) */\n  0x8be0079c531659141344cd1fd0a4f28419497f9722a3daafe3b4186f6b6457e0\n  swap2\n    /* \"@openzeppelin/contracts/access/Ownable.sol\":2985:3001  address oldOwner */\n  swap1\n    /* \"@openzeppelin/contracts/access/Ownable.sol\":3052:3092  OwnershipTransferred(oldOwner, newOwner) */\n  log3\n    /* \"@openzeppelin/contracts/access/Ownable.sol\":2975:3099  {... */\n  pop\n    /* \"@openzeppelin/contracts/access/Ownable.sol\":2912:3099  function _transferOwnership(address newOwner) internal virtual {... */\n  pop\n  jump\t// out\n    /* \"#utility.yul\":14:191   */\ntag_26:\n    /* \"#utility.yul\":93:106   */\n  dup1\n  mload\n  sub(shl(0xa0, 0x01), 0x01)\n    /* \"#utility.yul\":135:166   */\n  dup2\n  and\n    /* \"#utility.yul\":125:167   */\n  dup2\n  eq\n    /* \"#utility.yul\":115:185   */\n  tag_29\n  jumpi\n    /* \"#utility.yul\":181:182   */\n  0x00\n    /* \"#utility.yul\":178:179   */\n  dup1\n    /* \"#utility.yul\":171:183   */\n  revert\n    /* \"#utility.yul\":115:185   */\ntag_29:\n    /* \"#utility.yul\":14:191   */\n  swap2\n  swap1\n  pop\n  jump\t// out\n    /* \"#utility.yul\":196:574   */\ntag_3:\n    /* \"#utility.yul\":284:290   */\n  0x00\n    /* \"#utility.yul\":292:298   */\n  dup1\n    /* \"#utility.yul\":300:306   */\n  0x00\n    /* \"#utility.yul\":353:355   */\n  0x60\n    /* \"#utility.yul\":341:350   */\n  dup5\n    /* \"#utility.yul\":332:339   */\n  dup7\n    /* \"#utility.yul\":328:351   */\n  sub\n    /* \"#utility.yul\":324:356   */\n  slt\n    /* \"#utility.yul\":321:373   */\n  iszero\n  tag_31\n  jumpi\n    /* \"#utility.yul\":369:370   */\n  0x00\n    /* \"#utility.yul\":366:367   */\n  dup1\n    /* \"#utility.yul\":359:371   */\n  revert\n    /* \"#utility.yul\":321:373   */\ntag_31:\n    /* \"#utility.yul\":392:432   */\n  tag_32\n    /* \"#utility.yul\":422:431   */\n  dup5\n    /* \"#utility.yul\":392:432   */\n  tag_26\n  jump\t// in\ntag_32:\n    /* \"#utility.yul\":382:432   */\n  swap3\n  pop\n    /* \"#utility.yul\":451:500   */\n  tag_33\n    /* \"#utility.yul\":496:498   */\n  0x20\n    /* \"#utility.yul\":485:494   */\n  dup6\n    /* \"#utility.yul\":481:499   */\n  add\n    /* \"#utility.yul\":451:500   */\n  tag_26\n  jump\t// in\ntag_33:\n    /* \"#utility.yul\":441:500   */\n  swap2\n  pop\n    /* \"#utility.yul\":519:568   */\n  tag_34\n    /* \"#utility.yul\":564:566   */\n  0x40\n    /* \"#utility.yul\":553:562   */\n  dup6\n    /* \"#utility.yul\":549:567   */\n  add\n    /* \"#utility.yul\":519:568   */\n  tag_26\n  jump\t// in\ntag_34:\n    /* \"#utility.yul\":509:568   */\n  swap1\n  pop\n    /* \"#utility.yul\":196:574   */\n  swap3\n  pop\n  swap3\n  pop\n  swap3\n  jump\t// out\n    /* \"#utility.yul\":579:782   */\ntag_27:\n    /* \"bridge samples/profile-with-fee.sol\":622:5424  contract LocalOpenWorkV2 is OApp, ReentrancyGuard {... */\n  mload(0x80)\n  mload(0xa0)\n  codecopy(0x00, dataOffset(sub_0), dataSize(sub_0))\n  0x00\n  assignImmutable(\"0x551ebb3edb72774934e005837770de585c3863f1eef743adee80bd22fdce145f\")\n  0x00\n  assignImmutable(\"0xef80077fd7ee005d1b0377e3e959eb59d0ca83c4839422f862a3540a66a91fb5\")\n  return(0x00, dataSize(sub_0))\nstop\n\nsub_0: assembly {\n        /* \"bridge samples/profile-with-fee.sol\":622:5424  contract LocalOpenWorkV2 is OApp, ReentrancyGuard {... */\n      mstore(0x40, 0x80)\n      jumpi(tag_1, lt(calldatasize, 0x04))\n      shr(0xe0, calldataload(0x00))\n      dup1\n      0x82413eac\n      gt\n      tag_19\n      jumpi\n      dup1\n      0xca5eb5e1\n      gt\n      tag_20\n      jumpi\n      dup1\n      0xca5eb5e1\n      eq\n      tag_15\n      jumpi\n      dup1\n      0xf2fde38b\n      eq\n      tag_16\n      jumpi\n      dup1\n      0xf897a22b\n      eq\n      tag_17\n      jumpi\n      dup1\n      0xff7bd03d\n      eq\n      tag_18\n      jumpi\n      0x00\n      dup1\n      revert\n    tag_20:\n      dup1\n      0x82413eac\n      eq\n      tag_11\n      jumpi\n      dup1\n      0x8da5cb5b\n      eq\n      tag_12\n      jumpi\n      dup1\n      0xad3b1b47\n      eq\n      tag_13\n      jumpi\n      dup1\n      0xbb0b6a53\n      eq\n      tag_14\n      jumpi\n      0x00\n      dup1\n      revert\n    tag_19:\n      dup1\n      0x64bd90eb\n      gt\n      tag_21\n      jumpi\n      dup1\n      0x64bd90eb\n      eq\n      tag_7\n      jumpi\n      dup1\n      0x682d54e6\n      eq\n      tag_8\n      jumpi\n      dup1\n      0x715018a6\n      eq\n      tag_9\n      jumpi\n      dup1\n      0x7d25a05e\n      eq\n      tag_10\n      jumpi\n      0x00\n      dup1\n      revert\n    tag_21:\n      dup1\n      0x13137d65\n      eq\n      tag_3\n      jumpi\n      dup1\n      0x17442b70\n      eq\n      tag_4\n      jumpi\n      dup1\n      0x3400288b\n      eq\n      tag_5\n      jumpi\n      dup1\n      0x5e280f11\n      eq\n      tag_6\n      jumpi\n      0x00\n      dup1\n      revert\n    tag_1:\n      jumpi(tag_2, calldatasize)\n      stop\n    tag_2:\n      0x00\n      dup1\n      revert\n        /* \"@layerzerolabs/oapp-evm/contracts/oapp/OAppReceiver.sol\":4368:5076  function lzReceive(... */\n    tag_3:\n      tag_24\n      tag_25\n      calldatasize\n      0x04\n      tag_26\n      jump\t// in\n    tag_25:\n      tag_27\n      jump\t// in\n    tag_24:\n      stop\n        /* \"@layerzerolabs/oapp-evm/contracts/oapp/OApp.sol\":1287:1522  function oAppVersion()... */\n    tag_4:\n      callvalue\n      dup1\n      iszero\n      tag_28\n      jumpi\n      0x00\n      dup1\n      revert\n    tag_28:\n      pop\n      0x40\n      dup1\n      mload\n        /* \"@layerzerolabs/oapp-evm/contracts/oapp/OAppSender.sol\":843:844  1 */\n      0x01\n        /* \"#utility.yul\":1929:1979   */\n      dup2\n      mstore\n        /* \"@layerzerolabs/oapp-evm/contracts/oapp/OAppReceiver.sol\":678:679  2 */\n      0x02\n        /* \"#utility.yul\":2010:2012   */\n      0x20\n        /* \"#utility.yul\":1995:2013   */\n      dup3\n      add\n        /* \"#utility.yul\":1988:2047   */\n      mstore\n        /* \"#utility.yul\":1902:1920   */\n      add\n        /* \"@layerzerolabs/oapp-evm/contracts/oapp/OApp.sol\":1287:1522  function oAppVersion()... */\n    tag_31:\n      mload(0x40)\n      dup1\n      swap2\n      sub\n      swap1\n      return\n        /* \"@layerzerolabs/oapp-evm/contracts/oapp/OAppCore.sol\":1724:1832  function setPeer(uint32 _eid, bytes32 _peer) public virtual onlyOwner {... */\n    tag_5:\n      callvalue\n      dup1\n      iszero\n      tag_33\n      jumpi\n      0x00\n      dup1\n      revert\n    tag_33:\n      pop\n      tag_24\n      tag_35\n      calldatasize\n      0x04\n      tag_36\n      jump\t// in\n    tag_35:\n      tag_37\n      jump\t// in\n        /* \"@layerzerolabs/oapp-evm/contracts/oapp/OAppCore.sol\":446:492  ILayerZeroEndpointV2 public immutable endpoint */\n    tag_6:\n      callvalue\n      dup1\n      iszero\n      tag_38\n      jumpi\n      0x00\n      dup1\n      revert\n    tag_38:\n      pop\n      tag_39\n      immutable(\"0xef80077fd7ee005d1b0377e3e959eb59d0ca83c4839422f862a3540a66a91fb5\")\n      dup2\n      jump\n    tag_39:\n      mload(0x40)\n      sub(shl(0xa0, 0x01), 0x01)\n        /* \"#utility.yul\":2721:2753   */\n      swap1\n      swap2\n      and\n        /* \"#utility.yul\":2703:2754   */\n      dup2\n      mstore\n        /* \"#utility.yul\":2691:2693   */\n      0x20\n        /* \"#utility.yul\":2676:2694   */\n      add\n        /* \"@layerzerolabs/oapp-evm/contracts/oapp/OAppCore.sol\":446:492  ILayerZeroEndpointV2 public immutable endpoint */\n      tag_31\n        /* \"#utility.yul\":2529:2760   */\n      jump\n        /* \"bridge samples/profile-with-fee.sol\":2516:3672  function createUserProfile(... */\n    tag_7:\n      tag_24\n      tag_44\n      calldatasize\n      0x04\n      tag_45\n      jump\t// in\n    tag_44:\n      tag_46\n      jump\t// in\n        /* \"bridge samples/profile-with-fee.sol\":3933:4274  function quoteCreateUserProfile(... */\n    tag_8:\n      callvalue\n      dup1\n      iszero\n      tag_47\n      jumpi\n      0x00\n      dup1\n      revert\n    tag_47:\n      pop\n      tag_48\n      tag_49\n      calldatasize\n      0x04\n      tag_50\n      jump\t// in\n    tag_49:\n      tag_51\n      jump\t// in\n    tag_48:\n      0x40\n      dup1\n      mload\n        /* \"#utility.yul\":7302:7315   */\n      dup3\n      mload\n        /* \"#utility.yul\":7284:7316   */\n      dup2\n      mstore\n        /* \"#utility.yul\":7372:7376   */\n      0x20\n        /* \"#utility.yul\":7360:7377   */\n      swap3\n      dup4\n      add\n        /* \"#utility.yul\":7354:7378   */\n      mload\n        /* \"#utility.yul\":7332:7352   */\n      swap3\n      dup2\n      add\n        /* \"#utility.yul\":7325:7379   */\n      swap3\n      swap1\n      swap3\n      mstore\n        /* \"#utility.yul\":7257:7275   */\n      add\n        /* \"bridge samples/profile-with-fee.sol\":3933:4274  function quoteCreateUserProfile(... */\n      tag_31\n        /* \"#utility.yul\":7082:7385   */\n      jump\n        /* \"@openzeppelin/contracts/access/Ownable.sol\":2293:2394  function renounceOwnership() public virtual onlyOwner {... */\n    tag_9:\n      callvalue\n      dup1\n      iszero\n      tag_54\n      jumpi\n      0x00\n      dup1\n      revert\n    tag_54:\n      pop\n      tag_24\n      tag_56\n      jump\t// in\n        /* \"@layerzerolabs/oapp-evm/contracts/oapp/OAppReceiver.sol\":3507:3635  function nextNonce(uint32 /*_srcEid*/, bytes32 /*_sender*/) public view virtual returns (uint64 nonce) {... */\n    tag_10:\n      callvalue\n      dup1\n      iszero\n      tag_57\n      jumpi\n      0x00\n      dup1\n      revert\n    tag_57:\n      pop\n      tag_58\n      tag_59\n      calldatasize\n      0x04\n      tag_36\n      jump\t// in\n    tag_59:\n        /* \"@layerzerolabs/oapp-evm/contracts/oapp/OAppReceiver.sol\":3596:3608  uint64 nonce */\n      0x00\n        /* \"@layerzerolabs/oapp-evm/contracts/oapp/OAppReceiver.sol\":3507:3635  function nextNonce(uint32 /*_srcEid*/, bytes32 /*_sender*/) public view virtual returns (uint64 nonce) {... */\n      swap3\n      swap2\n      pop\n      pop\n      jump\n    tag_58:\n      mload(0x40)\n      sub(shl(0x40, 0x01), 0x01)\n        /* \"#utility.yul\":7552:7583   */\n      swap1\n      swap2\n      and\n        /* \"#utility.yul\":7534:7584   */\n      dup2\n      mstore\n        /* \"#utility.yul\":7522:7524   */\n      0x20\n        /* \"#utility.yul\":7507:7525   */\n      add\n        /* \"@layerzerolabs/oapp-evm/contracts/oapp/OAppReceiver.sol\":3507:3635  function nextNonce(uint32 /*_srcEid*/, bytes32 /*_sender*/) public view virtual returns (uint64 nonce) {... */\n      tag_31\n        /* \"#utility.yul\":7390:7590   */\n      jump\n        /* \"@layerzerolabs/oapp-evm/contracts/oapp/OAppReceiver.sol\":2013:2229  function isComposeMsgSender(... */\n    tag_11:\n      callvalue\n      dup1\n      iszero\n      tag_63\n      jumpi\n      0x00\n      dup1\n      revert\n    tag_63:\n      pop\n      tag_64\n      tag_65\n      calldatasize\n      0x04\n      tag_66\n      jump\t// in\n    tag_65:\n      sub(shl(0xa0, 0x01), 0x01)\n        /* \"@layerzerolabs/oapp-evm/contracts/oapp/OAppReceiver.sol\":2198:2222  _sender == address(this) */\n      dup2\n      and\n        /* \"@layerzerolabs/oapp-evm/contracts/oapp/OAppReceiver.sol\":2217:2221  this */\n      address\n        /* \"@layerzerolabs/oapp-evm/contracts/oapp/OAppReceiver.sol\":2198:2222  _sender == address(this) */\n      eq\n        /* \"@layerzerolabs/oapp-evm/contracts/oapp/OAppReceiver.sol\":2013:2229  function isComposeMsgSender(... */\n      swap5\n      swap4\n      pop\n      pop\n      pop\n      pop\n      jump\n    tag_64:\n      mload(0x40)\n        /* \"#utility.yul\":8433:8447   */\n      swap1\n      iszero\n        /* \"#utility.yul\":8426:8448   */\n      iszero\n        /* \"#utility.yul\":8408:8449   */\n      dup2\n      mstore\n        /* \"#utility.yul\":8396:8398   */\n      0x20\n        /* \"#utility.yul\":8381:8399   */\n      add\n        /* \"@layerzerolabs/oapp-evm/contracts/oapp/OAppReceiver.sol\":2013:2229  function isComposeMsgSender(... */\n      tag_31\n        /* \"#utility.yul\":8268:8455   */\n      jump\n        /* \"@openzeppelin/contracts/access/Ownable.sol\":1638:1723  function owner() public view virtual returns (address) {... */\n    tag_12:\n      callvalue\n      dup1\n      iszero\n      tag_70\n      jumpi\n      0x00\n      dup1\n      revert\n    tag_70:\n      pop\n        /* \"@openzeppelin/contracts/access/Ownable.sol\":1684:1691  address */\n      0x00\n        /* \"@openzeppelin/contracts/access/Ownable.sol\":1710:1716  _owner */\n      sload\n      sub(shl(0xa0, 0x01), 0x01)\n      and\n        /* \"@openzeppelin/contracts/access/Ownable.sol\":1638:1723  function owner() public view virtual returns (address) {... */\n      jump(tag_39)\n        /* \"bridge samples/profile-with-fee.sol\":4535:4718  function withdrawFees(address to, uint256 amount) external onlyOwner {... */\n    tag_13:\n      callvalue\n      dup1\n      iszero\n      tag_75\n      jumpi\n      0x00\n      dup1\n      revert\n    tag_75:\n      pop\n      tag_24\n      tag_77\n      calldatasize\n      0x04\n      tag_78\n      jump\t// in\n    tag_77:\n      tag_79\n      jump\t// in\n        /* \"@layerzerolabs/oapp-evm/contracts/oapp/OAppCore.sol\":569:617  mapping(uint32 eid => bytes32 peer) public peers */\n    tag_14:\n      callvalue\n      dup1\n      iszero\n      tag_80\n      jumpi\n      0x00\n      dup1\n      revert\n    tag_80:\n      pop\n      tag_81\n      tag_82\n      calldatasize\n      0x04\n      tag_83\n      jump\t// in\n    tag_82:\n      mstore(0x20, 0x01)\n      0x00\n      swap1\n      dup2\n      mstore\n      0x40\n      swap1\n      keccak256\n      sload\n      dup2\n      jump\n    tag_81:\n      mload(0x40)\n        /* \"#utility.yul\":9375:9400   */\n      swap1\n      dup2\n      mstore\n        /* \"#utility.yul\":9363:9365   */\n      0x20\n        /* \"#utility.yul\":9348:9366   */\n      add\n        /* \"@layerzerolabs/oapp-evm/contracts/oapp/OAppCore.sol\":569:617  mapping(uint32 eid => bytes32 peer) public peers */\n      tag_31\n        /* \"#utility.yul\":9229:9406   */\n      jump\n        /* \"@layerzerolabs/oapp-evm/contracts/oapp/OAppCore.sol\":3252:3357  function setDelegate(address _delegate) public onlyOwner {... */\n    tag_15:\n      callvalue\n      dup1\n      iszero\n      tag_87\n      jumpi\n      0x00\n      dup1\n      revert\n    tag_87:\n      pop\n      tag_24\n      tag_89\n      calldatasize\n      0x04\n      tag_90\n      jump\t// in\n    tag_89:\n      tag_91\n      jump\t// in\n        /* \"@openzeppelin/contracts/access/Ownable.sol\":2543:2758  function transferOwnership(address newOwner) public virtual onlyOwner {... */\n    tag_16:\n      callvalue\n      dup1\n      iszero\n      tag_92\n      jumpi\n      0x00\n      dup1\n      revert\n    tag_92:\n      pop\n      tag_24\n      tag_94\n      calldatasize\n      0x04\n      tag_90\n      jump\t// in\n    tag_94:\n      tag_95\n      jump\t// in\n        /* \"bridge samples/profile-with-fee.sol\":933:965  IERC20 public immutable usdToken */\n    tag_17:\n      callvalue\n      dup1\n      iszero\n      tag_96\n      jumpi\n      0x00\n      dup1\n      revert\n    tag_96:\n      pop\n      tag_39\n      immutable(\"0x551ebb3edb72774934e005837770de585c3863f1eef743adee80bd22fdce145f\")\n      dup2\n      jump\n        /* \"@layerzerolabs/oapp-evm/contracts/oapp/OAppReceiver.sol\":2771:2920  function allowInitializePath(Origin calldata origin) public view virtual returns (bool) {... */\n    tag_18:\n      callvalue\n      dup1\n      iszero\n      tag_101\n      jumpi\n      0x00\n      dup1\n      revert\n    tag_101:\n      pop\n      tag_64\n      tag_103\n      calldatasize\n      0x04\n      tag_104\n      jump\t// in\n    tag_103:\n      tag_105\n      jump\t// in\n        /* \"@layerzerolabs/oapp-evm/contracts/oapp/OAppReceiver.sol\":4368:5076  function lzReceive(... */\n    tag_27:\n        /* \"@layerzerolabs/oapp-evm/contracts/oapp/OAppReceiver.sol\":4681:4689  endpoint */\n      immutable(\"0xef80077fd7ee005d1b0377e3e959eb59d0ca83c4839422f862a3540a66a91fb5\")\n      sub(shl(0xa0, 0x01), 0x01)\n        /* \"@layerzerolabs/oapp-evm/contracts/oapp/OAppReceiver.sol\":4673:4704  address(endpoint) != msg.sender */\n      and\n        /* \"@layerzerolabs/oapp-evm/contracts/oapp/OAppReceiver.sol\":4694:4704  msg.sender */\n      caller\n        /* \"@layerzerolabs/oapp-evm/contracts/oapp/OAppReceiver.sol\":4673:4704  address(endpoint) != msg.sender */\n      eq\n        /* \"@layerzerolabs/oapp-evm/contracts/oapp/OAppReceiver.sol\":4669:4737  if (address(endpoint) != msg.sender) revert OnlyEndpoint(msg.sender) */\n      tag_108\n      jumpi\n        /* \"@layerzerolabs/oapp-evm/contracts/oapp/OAppReceiver.sol\":4713:4737  OnlyEndpoint(msg.sender) */\n      mload(0x40)\n      shl(0xe0, 0x91ac5e4f)\n      dup2\n      mstore\n        /* \"@layerzerolabs/oapp-evm/contracts/oapp/OAppReceiver.sol\":4726:4736  msg.sender */\n      caller\n        /* \"@layerzerolabs/oapp-evm/contracts/oapp/OAppReceiver.sol\":4713:4737  OnlyEndpoint(msg.sender) */\n      0x04\n      dup3\n      add\n        /* \"#utility.yul\":2703:2754   */\n      mstore\n        /* \"#utility.yul\":2676:2694   */\n      0x24\n      add\n        /* \"@layerzerolabs/oapp-evm/contracts/oapp/OAppReceiver.sol\":4713:4737  OnlyEndpoint(msg.sender) */\n    tag_109:\n      mload(0x40)\n      dup1\n      swap2\n      sub\n      swap1\n      revert\n        /* \"@layerzerolabs/oapp-evm/contracts/oapp/OAppReceiver.sol\":4669:4737  if (address(endpoint) != msg.sender) revert OnlyEndpoint(msg.sender) */\n    tag_108:\n        /* \"@layerzerolabs/oapp-evm/contracts/oapp/OAppReceiver.sol\":4873:4887  _origin.sender */\n      0x20\n      dup8\n      add\n      dup1\n      calldataload\n      swap1\n        /* \"@layerzerolabs/oapp-evm/contracts/oapp/OAppReceiver.sol\":4837:4869  _getPeerOrRevert(_origin.srcEid) */\n      tag_110\n      swap1\n        /* \"@layerzerolabs/oapp-evm/contracts/oapp/OAppReceiver.sol\":4854:4868  _origin.srcEid */\n      tag_111\n      swap1\n        /* \"@layerzerolabs/oapp-evm/contracts/oapp/OAppReceiver.sol\":4873:4880  _origin */\n      dup11\n        /* \"@layerzerolabs/oapp-evm/contracts/oapp/OAppReceiver.sol\":4854:4868  _origin.srcEid */\n      tag_83\n      jump\t// in\n    tag_111:\n        /* \"@layerzerolabs/oapp-evm/contracts/oapp/OAppReceiver.sol\":4837:4853  _getPeerOrRevert */\n      tag_112\n        /* \"@layerzerolabs/oapp-evm/contracts/oapp/OAppReceiver.sol\":4837:4869  _getPeerOrRevert(_origin.srcEid) */\n      jump\t// in\n    tag_110:\n        /* \"@layerzerolabs/oapp-evm/contracts/oapp/OAppReceiver.sol\":4837:4887  _getPeerOrRevert(_origin.srcEid) != _origin.sender */\n      eq\n        /* \"@layerzerolabs/oapp-evm/contracts/oapp/OAppReceiver.sol\":4833:4936  if (_getPeerOrRevert(_origin.srcEid) != _origin.sender) revert OnlyPeer(_origin.srcEid, _origin.sender) */\n      tag_113\n      jumpi\n        /* \"@layerzerolabs/oapp-evm/contracts/oapp/OAppReceiver.sol\":4905:4919  _origin.srcEid */\n      tag_114\n      0x20\n      dup9\n      add\n        /* \"@layerzerolabs/oapp-evm/contracts/oapp/OAppReceiver.sol\":4905:4912  _origin */\n      dup9\n        /* \"@layerzerolabs/oapp-evm/contracts/oapp/OAppReceiver.sol\":4905:4919  _origin.srcEid */\n      tag_83\n      jump\t// in\n    tag_114:\n        /* \"@layerzerolabs/oapp-evm/contracts/oapp/OAppReceiver.sol\":4896:4936  OnlyPeer(_origin.srcEid, _origin.sender) */\n      mload(0x40)\n      shl(0xe2, 0x309afaf3)\n      dup2\n      mstore\n        /* \"#utility.yul\":10327:10337   */\n      0xffffffff\n        /* \"#utility.yul\":10315:10338   */\n      swap1\n      swap2\n      and\n        /* \"@layerzerolabs/oapp-evm/contracts/oapp/OAppReceiver.sol\":4896:4936  OnlyPeer(_origin.srcEid, _origin.sender) */\n      0x04\n      dup3\n      add\n        /* \"#utility.yul\":10297:10339   */\n      mstore\n        /* \"@layerzerolabs/oapp-evm/contracts/oapp/OAppReceiver.sol\":4921:4935  _origin.sender */\n      0x20\n      dup9\n      add\n      calldataload\n        /* \"#utility.yul\":10355:10373   */\n      0x24\n      dup3\n      add\n        /* \"#utility.yul\":10348:10382   */\n      mstore\n        /* \"#utility.yul\":10270:10288   */\n      0x44\n      add\n        /* \"@layerzerolabs/oapp-evm/contracts/oapp/OAppReceiver.sol\":4896:4936  OnlyPeer(_origin.srcEid, _origin.sender) */\n      tag_109\n        /* \"#utility.yul\":10125:10388   */\n      jump\n        /* \"@layerzerolabs/oapp-evm/contracts/oapp/OAppReceiver.sol\":4833:4936  if (_getPeerOrRevert(_origin.srcEid) != _origin.sender) revert OnlyPeer(_origin.srcEid, _origin.sender) */\n    tag_113:\n        /* \"@layerzerolabs/oapp-evm/contracts/oapp/OAppReceiver.sol\":4368:5076  function lzReceive(... */\n      pop\n      pop\n      pop\n      pop\n      pop\n      pop\n      pop\n      jump\t// out\n        /* \"@layerzerolabs/oapp-evm/contracts/oapp/OAppCore.sol\":1724:1832  function setPeer(uint32 _eid, bytes32 _peer) public virtual onlyOwner {... */\n    tag_37:\n        /* \"@openzeppelin/contracts/access/Ownable.sol\":1531:1544  _checkOwner() */\n      tag_121\n        /* \"@openzeppelin/contracts/access/Ownable.sol\":1531:1542  _checkOwner */\n      tag_122\n        /* \"@openzeppelin/contracts/access/Ownable.sol\":1531:1544  _checkOwner() */\n      jump\t// in\n    tag_121:\n        /* \"@layerzerolabs/oapp-evm/contracts/oapp/OAppCore.sol\":1804:1825  _setPeer(_eid, _peer) */\n      tag_124\n        /* \"@layerzerolabs/oapp-evm/contracts/oapp/OAppCore.sol\":1813:1817  _eid */\n      dup3\n        /* \"@layerzerolabs/oapp-evm/contracts/oapp/OAppCore.sol\":1819:1824  _peer */\n      dup3\n        /* \"@layerzerolabs/oapp-evm/contracts/oapp/OAppCore.sol\":1804:1812  _setPeer */\n      tag_125\n        /* \"@layerzerolabs/oapp-evm/contracts/oapp/OAppCore.sol\":1804:1825  _setPeer(_eid, _peer) */\n      jump\t// in\n    tag_124:\n        /* \"@layerzerolabs/oapp-evm/contracts/oapp/OAppCore.sol\":1724:1832  function setPeer(uint32 _eid, bytes32 _peer) public virtual onlyOwner {... */\n      pop\n      pop\n      jump\t// out\n        /* \"bridge samples/profile-with-fee.sol\":2516:3672  function createUserProfile(... */\n    tag_46:\n        /* \"@openzeppelin/contracts/security/ReentrancyGuard.sol\":2261:2282  _nonReentrantBefore() */\n      tag_127\n        /* \"@openzeppelin/contracts/security/ReentrancyGuard.sol\":2261:2280  _nonReentrantBefore */\n      tag_128\n        /* \"@openzeppelin/contracts/security/ReentrancyGuard.sol\":2261:2282  _nonReentrantBefore() */\n      jump\t// in\n    tag_127:\n        /* \"bridge samples/profile-with-fee.sol\":2795:2796  0 */\n      0x00\n        /* \"bridge samples/profile-with-fee.sol\":2780:2784  name */\n      dup7\n        /* \"bridge samples/profile-with-fee.sol\":2774:2792  bytes(name).length */\n      mload\n        /* \"bridge samples/profile-with-fee.sol\":2774:2796  bytes(name).length > 0 */\n      gt\n        /* \"bridge samples/profile-with-fee.sol\":2766:2811  require(bytes(name).length > 0, \"Name empty\") */\n      tag_130\n      jumpi\n      mload(0x40)\n      shl(0xe5, 0x461bcd)\n      dup2\n      mstore\n        /* \"#utility.yul\":10595:10597   */\n      0x20\n        /* \"bridge samples/profile-with-fee.sol\":2766:2811  require(bytes(name).length > 0, \"Name empty\") */\n      0x04\n      dup3\n      add\n        /* \"#utility.yul\":10577:10598   */\n      mstore\n        /* \"#utility.yul\":10634:10636   */\n      0x0a\n        /* \"#utility.yul\":10614:10632   */\n      0x24\n      dup3\n      add\n        /* \"#utility.yul\":10607:10637   */\n      mstore\n      shl(0xb0, 0x4e616d6520656d707479)\n        /* \"#utility.yul\":10653:10671   */\n      0x44\n      dup3\n      add\n        /* \"#utility.yul\":10646:10686   */\n      mstore\n        /* \"#utility.yul\":10703:10721   */\n      0x64\n      add\n        /* \"bridge samples/profile-with-fee.sol\":2766:2811  require(bytes(name).length > 0, \"Name empty\") */\n      tag_109\n        /* \"#utility.yul\":10393:10727   */\n      jump\n        /* \"bridge samples/profile-with-fee.sol\":2766:2811  require(bytes(name).length > 0, \"Name empty\") */\n    tag_130:\n        /* \"bridge samples/profile-with-fee.sol\":2845:2846  0 */\n      0x00\n        /* \"bridge samples/profile-with-fee.sol\":2829:2835  skills */\n      dup6\n        /* \"bridge samples/profile-with-fee.sol\":2829:2842  skills.length */\n      mload\n        /* \"bridge samples/profile-with-fee.sol\":2829:2846  skills.length > 0 */\n      gt\n        /* \"bridge samples/profile-with-fee.sol\":2821:2863  require(skills.length > 0, \"Skills empty\") */\n      tag_133\n      jumpi\n      mload(0x40)\n      shl(0xe5, 0x461bcd)\n      dup2\n      mstore\n        /* \"#utility.yul\":10934:10936   */\n      0x20\n        /* \"bridge samples/profile-with-fee.sol\":2821:2863  require(skills.length > 0, \"Skills empty\") */\n      0x04\n      dup3\n      add\n        /* \"#utility.yul\":10916:10937   */\n      mstore\n        /* \"#utility.yul\":10973:10975   */\n      0x0c\n        /* \"#utility.yul\":10953:10971   */\n      0x24\n      dup3\n      add\n        /* \"#utility.yul\":10946:10976   */\n      mstore\n      shl(0xa0, 0x536b696c6c7320656d707479)\n        /* \"#utility.yul\":10992:11010   */\n      0x44\n      dup3\n      add\n        /* \"#utility.yul\":10985:11027   */\n      mstore\n        /* \"#utility.yul\":11044:11062   */\n      0x64\n      add\n        /* \"bridge samples/profile-with-fee.sol\":2821:2863  require(skills.length > 0, \"Skills empty\") */\n      tag_109\n        /* \"#utility.yul\":10732:11068   */\n      jump\n        /* \"bridge samples/profile-with-fee.sol\":2821:2863  require(skills.length > 0, \"Skills empty\") */\n    tag_133:\n        /* \"bridge samples/profile-with-fee.sol\":2891:2892  0 */\n      0x00\n        /* \"bridge samples/profile-with-fee.sol\":2881:2888  usdtFee */\n      dup4\n        /* \"bridge samples/profile-with-fee.sol\":2881:2892  usdtFee > 0 */\n      gt\n        /* \"bridge samples/profile-with-fee.sol\":2873:2910  require(usdtFee > 0, \"USDT fee zero\") */\n      tag_136\n      jumpi\n      mload(0x40)\n      shl(0xe5, 0x461bcd)\n      dup2\n      mstore\n        /* \"#utility.yul\":11275:11277   */\n      0x20\n        /* \"bridge samples/profile-with-fee.sol\":2873:2910  require(usdtFee > 0, \"USDT fee zero\") */\n      0x04\n      dup3\n      add\n        /* \"#utility.yul\":11257:11278   */\n      mstore\n        /* \"#utility.yul\":11314:11316   */\n      0x0d\n        /* \"#utility.yul\":11294:11312   */\n      0x24\n      dup3\n      add\n        /* \"#utility.yul\":11287:11317   */\n      mstore\n      shl(0x98, 0x5553445420666565207a65726f)\n        /* \"#utility.yul\":11333:11351   */\n      0x44\n      dup3\n      add\n        /* \"#utility.yul\":11326:11369   */\n      mstore\n        /* \"#utility.yul\":11386:11404   */\n      0x64\n      add\n        /* \"bridge samples/profile-with-fee.sol\":2873:2910  require(usdtFee > 0, \"USDT fee zero\") */\n      tag_109\n        /* \"#utility.yul\":11073:11410   */\n      jump\n        /* \"bridge samples/profile-with-fee.sol\":2873:2910  require(usdtFee > 0, \"USDT fee zero\") */\n    tag_136:\n        /* \"bridge samples/profile-with-fee.sol\":2997:3054  usdToken.transferFrom(msg.sender, address(this), usdtFee) */\n      mload(0x40)\n      shl(0xe0, 0x23b872dd)\n      dup2\n      mstore\n        /* \"bridge samples/profile-with-fee.sol\":3019:3029  msg.sender */\n      caller\n        /* \"bridge samples/profile-with-fee.sol\":2997:3054  usdToken.transferFrom(msg.sender, address(this), usdtFee) */\n      0x04\n      dup3\n      add\n        /* \"#utility.yul\":11617:11668   */\n      mstore\n        /* \"bridge samples/profile-with-fee.sol\":3039:3043  this */\n      address\n        /* \"#utility.yul\":11684:11702   */\n      0x24\n      dup3\n      add\n        /* \"#utility.yul\":11677:11737   */\n      mstore\n        /* \"#utility.yul\":11753:11771   */\n      0x44\n      dup2\n      add\n        /* \"#utility.yul\":11746:11780   */\n      dup5\n      swap1\n      mstore\n        /* \"bridge samples/profile-with-fee.sol\":2997:3005  usdToken */\n      immutable(\"0x551ebb3edb72774934e005837770de585c3863f1eef743adee80bd22fdce145f\")\n      sub(shl(0xa0, 0x01), 0x01)\n        /* \"bridge samples/profile-with-fee.sol\":2997:3018  usdToken.transferFrom */\n      and\n      swap1\n      0x23b872dd\n      swap1\n        /* \"#utility.yul\":11590:11608   */\n      0x64\n      add\n        /* \"bridge samples/profile-with-fee.sol\":2997:3054  usdToken.transferFrom(msg.sender, address(this), usdtFee) */\n      0x20\n      mload(0x40)\n      dup1\n      dup4\n      sub\n      dup2\n      0x00\n      dup8\n      gas\n      call\n      iszero\n      dup1\n      iszero\n      tag_142\n      jumpi\n      returndatasize\n      0x00\n      dup1\n      returndatacopy\n      revert(0x00, returndatasize)\n    tag_142:\n      pop\n      pop\n      pop\n      pop\n      mload(0x40)\n      returndatasize\n      not(0x1f)\n      0x1f\n      dup3\n      add\n      and\n      dup3\n      add\n      dup1\n      0x40\n      mstore\n      pop\n      dup2\n      add\n      swap1\n      tag_143\n      swap2\n      swap1\n      tag_144\n      jump\t// in\n    tag_143:\n        /* \"bridge samples/profile-with-fee.sol\":2976:3100  require(... */\n      tag_145\n      jumpi\n      mload(0x40)\n      shl(0xe5, 0x461bcd)\n      dup2\n      mstore\n        /* \"#utility.yul\":12275:12277   */\n      0x20\n        /* \"bridge samples/profile-with-fee.sol\":2976:3100  require(... */\n      0x04\n      dup3\n      add\n        /* \"#utility.yul\":12257:12278   */\n      mstore\n        /* \"#utility.yul\":12314:12316   */\n      0x14\n        /* \"#utility.yul\":12294:12312   */\n      0x24\n      dup3\n      add\n        /* \"#utility.yul\":12287:12317   */\n      mstore\n      shl(0x62, 0x1554d115081d1c985b9cd9995c8819985a5b1959)\n        /* \"#utility.yul\":12333:12351   */\n      0x44\n      dup3\n      add\n        /* \"#utility.yul\":12326:12376   */\n      mstore\n        /* \"#utility.yul\":12393:12411   */\n      0x64\n      add\n        /* \"bridge samples/profile-with-fee.sol\":2976:3100  require(... */\n      tag_109\n        /* \"#utility.yul\":12073:12417   */\n      jump\n        /* \"bridge samples/profile-with-fee.sol\":2976:3100  require(... */\n    tag_145:\n        /* \"bridge samples/profile-with-fee.sol\":3163:3183  bytes memory payload */\n      0x00\n        /* \"bridge samples/profile-with-fee.sol\":3197:3207  msg.sender */\n      caller\n        /* \"bridge samples/profile-with-fee.sol\":3209:3213  name */\n      dup8\n        /* \"bridge samples/profile-with-fee.sol\":3215:3221  skills */\n      dup8\n        /* \"bridge samples/profile-with-fee.sol\":3223:3234  profileHash */\n      dup8\n        /* \"bridge samples/profile-with-fee.sol\":3186:3235  abi.encode(msg.sender, name, skills, profileHash) */\n      add(0x20, mload(0x40))\n      tag_148\n      swap5\n      swap4\n      swap3\n      swap2\n      swap1\n      tag_149\n      jump\t// in\n    tag_148:\n      0x40\n      dup1\n      mload\n      not(0x1f)\n      dup2\n      dup5\n      sub\n      add\n      dup2\n      mstore\n      0x20\n        /* \"bridge samples/profile-with-fee.sol\":3325:3366  _quote(_dstEid, payload, _options, false) */\n      0x1f\n      dup7\n      add\n      dup2\n      swap1\n      div\n      dup2\n      mul\n      dup5\n      add\n      dup2\n      add\n      swap1\n      swap3\n      mstore\n      dup5\n      dup4\n      mstore\n        /* \"bridge samples/profile-with-fee.sol\":3186:3235  abi.encode(msg.sender, name, skills, profileHash) */\n      swap3\n      pop\n        /* \"bridge samples/profile-with-fee.sol\":3299:3322  MessagingFee memory fee */\n      0x00\n      swap2\n        /* \"bridge samples/profile-with-fee.sol\":3325:3366  _quote(_dstEid, payload, _options, false) */\n      tag_150\n      swap2\n        /* \"bridge samples/profile-with-fee.sol\":3332:3339  _dstEid */\n      dup12\n      swap2\n        /* \"bridge samples/profile-with-fee.sol\":3186:3235  abi.encode(msg.sender, name, skills, profileHash) */\n      dup6\n      swap2\n        /* \"bridge samples/profile-with-fee.sol\":3350:3358  _options */\n      dup9\n      swap1\n      dup9\n      swap1\n      dup2\n      swap1\n        /* \"bridge samples/profile-with-fee.sol\":3325:3366  _quote(_dstEid, payload, _options, false) */\n      dup5\n      add\n        /* \"bridge samples/profile-with-fee.sol\":3350:3358  _options */\n      dup4\n      dup3\n      dup1\n      dup3\n        /* \"bridge samples/profile-with-fee.sol\":3325:3366  _quote(_dstEid, payload, _options, false) */\n      dup5\n      calldatacopy\n      0x00\n      swap3\n      add\n      dup3\n      swap1\n      mstore\n      pop\n      swap3\n      pop\n        /* \"bridge samples/profile-with-fee.sol\":3325:3331  _quote */\n      tag_151\n      swap2\n      pop\n      pop\n        /* \"bridge samples/profile-with-fee.sol\":3325:3366  _quote(_dstEid, payload, _options, false) */\n      jump\t// in\n    tag_150:\n        /* \"bridge samples/profile-with-fee.sol\":3397:3410  fee.nativeFee */\n      dup1\n      mload\n        /* \"bridge samples/profile-with-fee.sol\":3299:3366  MessagingFee memory fee = _quote(_dstEid, payload, _options, false) */\n      swap1\n      swap2\n      pop\n        /* \"bridge samples/profile-with-fee.sol\":3384:3393  msg.value */\n      callvalue\n        /* \"bridge samples/profile-with-fee.sol\":3384:3410  msg.value >= fee.nativeFee */\n      lt\n      iszero\n        /* \"bridge samples/profile-with-fee.sol\":3376:3433  require(msg.value >= fee.nativeFee, \"Native fee too low\") */\n      tag_152\n      jumpi\n      mload(0x40)\n      shl(0xe5, 0x461bcd)\n      dup2\n      mstore\n        /* \"#utility.yul\":14174:14176   */\n      0x20\n        /* \"bridge samples/profile-with-fee.sol\":3376:3433  require(msg.value >= fee.nativeFee, \"Native fee too low\") */\n      0x04\n      dup3\n      add\n        /* \"#utility.yul\":14156:14177   */\n      mstore\n        /* \"#utility.yul\":14213:14215   */\n      0x12\n        /* \"#utility.yul\":14193:14211   */\n      0x24\n      dup3\n      add\n        /* \"#utility.yul\":14186:14216   */\n      mstore\n      shl(0x70, 0x4e61746976652066656520746f6f206c6f77)\n        /* \"#utility.yul\":14232:14250   */\n      0x44\n      dup3\n      add\n        /* \"#utility.yul\":14225:14273   */\n      mstore\n        /* \"#utility.yul\":14290:14308   */\n      0x64\n      add\n        /* \"bridge samples/profile-with-fee.sol\":3376:3433  require(msg.value >= fee.nativeFee, \"Native fee too low\") */\n      tag_109\n        /* \"#utility.yul\":13972:14314   */\n      jump\n        /* \"bridge samples/profile-with-fee.sol\":3376:3433  require(msg.value >= fee.nativeFee, \"Native fee too low\") */\n    tag_152:\n        /* \"bridge samples/profile-with-fee.sol\":3444:3598  _lzSend(... */\n      tag_155\n        /* \"bridge samples/profile-with-fee.sol\":3465:3472  _dstEid */\n      dup10\n        /* \"bridge samples/profile-with-fee.sol\":3486:3493  payload */\n      dup4\n        /* \"bridge samples/profile-with-fee.sol\":3507:3515  _options */\n      dup7\n      dup7\n        /* \"bridge samples/profile-with-fee.sol\":3444:3598  _lzSend(... */\n      dup1\n      dup1\n      0x1f\n      add\n      0x20\n      dup1\n      swap2\n      div\n      mul\n      0x20\n      add\n      mload(0x40)\n      swap1\n      dup2\n      add\n      0x40\n      mstore\n      dup1\n      swap4\n      swap3\n      swap2\n      swap1\n      dup2\n      dup2\n      mstore\n      0x20\n      add\n      dup4\n      dup4\n      dup1\n      dup3\n      dup5\n      calldatacopy\n      0x00\n      swap3\n      add\n      dup3\n      swap1\n      mstore\n      pop\n        /* \"bridge samples/profile-with-fee.sol\":3529:3555  MessagingFee(msg.value, 0) */\n      0x40\n      dup1\n      mload\n      dup1\n      dup3\n      add\n      swap1\n      swap2\n      mstore\n        /* \"bridge samples/profile-with-fee.sol\":3542:3551  msg.value */\n      callvalue\n        /* \"bridge samples/profile-with-fee.sol\":3529:3555  MessagingFee(msg.value, 0) */\n      dup2\n      mstore\n      0x20\n      dup2\n      add\n      swap2\n      swap1\n      swap2\n      mstore\n      swap3\n      pop\n        /* \"bridge samples/profile-with-fee.sol\":3577:3587  msg.sender */\n      caller\n      swap2\n      pop\n        /* \"bridge samples/profile-with-fee.sol\":3444:3451  _lzSend */\n      tag_156\n      swap1\n      pop\n        /* \"bridge samples/profile-with-fee.sol\":3444:3598  _lzSend(... */\n      jump\t// in\n    tag_155:\n      pop\n        /* \"bridge samples/profile-with-fee.sol\":3639:3649  msg.sender */\n      caller\n      sub(shl(0xa0, 0x01), 0x01)\n        /* \"bridge samples/profile-with-fee.sol\":3614:3665  UserProfileSent(_dstEid, msg.sender, name, usdtFee) */\n      and\n        /* \"bridge samples/profile-with-fee.sol\":3630:3637  _dstEid */\n      dup10\n        /* \"bridge samples/profile-with-fee.sol\":3614:3665  UserProfileSent(_dstEid, msg.sender, name, usdtFee) */\n      0xffffffff\n      and\n      0x367df553a20f9d6a48f562a05a838605d973217c1e3980b1c5d542e2eeaafb63\n        /* \"bridge samples/profile-with-fee.sol\":3651:3655  name */\n      dup11\n        /* \"bridge samples/profile-with-fee.sol\":3657:3664  usdtFee */\n      dup9\n        /* \"bridge samples/profile-with-fee.sol\":3614:3665  UserProfileSent(_dstEid, msg.sender, name, usdtFee) */\n      mload(0x40)\n      tag_157\n      swap3\n      swap2\n      swap1\n      tag_158\n      jump\t// in\n    tag_157:\n      mload(0x40)\n      dup1\n      swap2\n      sub\n      swap1\n      log3\n        /* \"bridge samples/profile-with-fee.sol\":2756:3672  {... */\n      pop\n      pop\n        /* \"@openzeppelin/contracts/security/ReentrancyGuard.sol\":2303:2323  _nonReentrantAfter() */\n      tag_113\n        /* \"@openzeppelin/contracts/security/ReentrancyGuard.sol\":1716:1717  1 */\n      0x01\n        /* \"@openzeppelin/contracts/security/ReentrancyGuard.sol\":2809:2816  _status */\n      0x02\n        /* \"@openzeppelin/contracts/security/ReentrancyGuard.sol\":2809:2831  _status = _NOT_ENTERED */\n      sstore\n        /* \"@openzeppelin/contracts/security/ReentrancyGuard.sol\":2629:2838  function _nonReentrantAfter() private {... */\n      jump\n        /* \"bridge samples/profile-with-fee.sol\":3933:4274  function quoteCreateUserProfile(... */\n    tag_51:\n      0x40\n      dup1\n      mload\n      dup1\n      dup3\n      add\n      swap1\n      swap2\n      mstore\n      0x00\n      dup1\n      dup3\n      mstore\n      0x20\n      dup3\n      add\n      mstore\n        /* \"bridge samples/profile-with-fee.sol\":4184:4267  _quote(_dstEid, abi.encode(msg.sender, name, skills, profileHash), _options, false) */\n      tag_164\n        /* \"bridge samples/profile-with-fee.sol\":4191:4198  _dstEid */\n      dup8\n        /* \"bridge samples/profile-with-fee.sol\":4211:4221  msg.sender */\n      caller\n        /* \"bridge samples/profile-with-fee.sol\":4223:4227  name */\n      dup9\n        /* \"bridge samples/profile-with-fee.sol\":4229:4235  skills */\n      dup9\n        /* \"bridge samples/profile-with-fee.sol\":4237:4248  profileHash */\n      dup9\n        /* \"bridge samples/profile-with-fee.sol\":4200:4249  abi.encode(msg.sender, name, skills, profileHash) */\n      add(0x20, mload(0x40))\n      tag_165\n      swap5\n      swap4\n      swap3\n      swap2\n      swap1\n      tag_149\n      jump\t// in\n    tag_165:\n      0x40\n      dup1\n      mload\n      not(0x1f)\n      dup2\n      dup5\n      sub\n      add\n      dup2\n      mstore\n      0x20\n        /* \"bridge samples/profile-with-fee.sol\":4184:4267  _quote(_dstEid, abi.encode(msg.sender, name, skills, profileHash), _options, false) */\n      0x1f\n      dup9\n      add\n      dup2\n      swap1\n      div\n      dup2\n      mul\n      dup5\n      add\n      dup2\n      add\n      swap1\n      swap3\n      mstore\n      dup7\n      dup4\n      mstore\n        /* \"bridge samples/profile-with-fee.sol\":4200:4249  abi.encode(msg.sender, name, skills, profileHash) */\n      swap2\n      swap1\n        /* \"bridge samples/profile-with-fee.sol\":4251:4259  _options */\n      dup8\n      swap1\n      dup8\n      swap1\n      dup2\n      swap1\n        /* \"bridge samples/profile-with-fee.sol\":4184:4267  _quote(_dstEid, abi.encode(msg.sender, name, skills, profileHash), _options, false) */\n      dup5\n      add\n        /* \"bridge samples/profile-with-fee.sol\":4251:4259  _options */\n      dup4\n      dup3\n      dup1\n      dup3\n        /* \"bridge samples/profile-with-fee.sol\":4184:4267  _quote(_dstEid, abi.encode(msg.sender, name, skills, profileHash), _options, false) */\n      dup5\n      calldatacopy\n      0x00\n      swap3\n      add\n      dup3\n      swap1\n      mstore\n      pop\n      swap3\n      pop\n        /* \"bridge samples/profile-with-fee.sol\":4184:4190  _quote */\n      tag_151\n      swap2\n      pop\n      pop\n        /* \"bridge samples/profile-with-fee.sol\":4184:4267  _quote(_dstEid, abi.encode(msg.sender, name, skills, profileHash), _options, false) */\n      jump\t// in\n    tag_164:\n        /* \"bridge samples/profile-with-fee.sol\":4177:4267  return _quote(_dstEid, abi.encode(msg.sender, name, skills, profileHash), _options, false) */\n      swap8\n        /* \"bridge samples/profile-with-fee.sol\":3933:4274  function quoteCreateUserProfile(... */\n      swap7\n      pop\n      pop\n      pop\n      pop\n      pop\n      pop\n      pop\n      jump\t// out\n        /* \"@openzeppelin/contracts/access/Ownable.sol\":2293:2394  function renounceOwnership() public virtual onlyOwner {... */\n    tag_56:\n        /* \"@openzeppelin/contracts/access/Ownable.sol\":1531:1544  _checkOwner() */\n      tag_167\n        /* \"@openzeppelin/contracts/access/Ownable.sol\":1531:1542  _checkOwner */\n      tag_122\n        /* \"@openzeppelin/contracts/access/Ownable.sol\":1531:1544  _checkOwner() */\n      jump\t// in\n    tag_167:\n        /* \"@openzeppelin/contracts/access/Ownable.sol\":2357:2387  _transferOwnership(address(0)) */\n      tag_169\n        /* \"@openzeppelin/contracts/access/Ownable.sol\":2384:2385  0 */\n      0x00\n        /* \"@openzeppelin/contracts/access/Ownable.sol\":2357:2375  _transferOwnership */\n      tag_170\n        /* \"@openzeppelin/contracts/access/Ownable.sol\":2357:2387  _transferOwnership(address(0)) */\n      jump\t// in\n    tag_169:\n        /* \"@openzeppelin/contracts/access/Ownable.sol\":2293:2394  function renounceOwnership() public virtual onlyOwner {... */\n      jump\t// out\n        /* \"bridge samples/profile-with-fee.sol\":4535:4718  function withdrawFees(address to, uint256 amount) external onlyOwner {... */\n    tag_79:\n        /* \"@openzeppelin/contracts/access/Ownable.sol\":1531:1544  _checkOwner() */\n      tag_175\n        /* \"@openzeppelin/contracts/access/Ownable.sol\":1531:1542  _checkOwner */\n      tag_122\n        /* \"@openzeppelin/contracts/access/Ownable.sol\":1531:1544  _checkOwner() */\n      jump\t// in\n    tag_175:\n        /* \"bridge samples/profile-with-fee.sol\":4622:4651  usdToken.transfer(to, amount) */\n      mload(0x40)\n      shl(0xe0, 0xa9059cbb)\n      dup2\n      mstore\n      sub(shl(0xa0, 0x01), 0x01)\n        /* \"#utility.yul\":14807:14839   */\n      dup4\n      dup2\n      and\n        /* \"bridge samples/profile-with-fee.sol\":4622:4651  usdToken.transfer(to, amount) */\n      0x04\n      dup4\n      add\n        /* \"#utility.yul\":14789:14840   */\n      mstore\n        /* \"#utility.yul\":14856:14874   */\n      0x24\n      dup3\n      add\n        /* \"#utility.yul\":14849:14883   */\n      dup4\n      swap1\n      mstore\n        /* \"bridge samples/profile-with-fee.sol\":4622:4630  usdToken */\n      immutable(\"0x551ebb3edb72774934e005837770de585c3863f1eef743adee80bd22fdce145f\")\n        /* \"bridge samples/profile-with-fee.sol\":4622:4639  usdToken.transfer */\n      and\n      swap1\n      0xa9059cbb\n      swap1\n        /* \"#utility.yul\":14762:14780   */\n      0x44\n      add\n        /* \"bridge samples/profile-with-fee.sol\":4622:4651  usdToken.transfer(to, amount) */\n      0x20\n      mload(0x40)\n      dup1\n      dup4\n      sub\n      dup2\n      0x00\n      dup8\n      gas\n      call\n      iszero\n      dup1\n      iszero\n      tag_180\n      jumpi\n      returndatasize\n      0x00\n      dup1\n      returndatacopy\n      revert(0x00, returndatasize)\n    tag_180:\n      pop\n      pop\n      pop\n      pop\n      mload(0x40)\n      returndatasize\n      not(0x1f)\n      0x1f\n      dup3\n      add\n      and\n      dup3\n      add\n      dup1\n      0x40\n      mstore\n      pop\n      dup2\n      add\n      swap1\n      tag_181\n      swap2\n      swap1\n      tag_144\n      jump\t// in\n    tag_181:\n        /* \"bridge samples/profile-with-fee.sol\":4614:4671  require(usdToken.transfer(to, amount), \"Withdraw failed\") */\n      tag_182\n      jumpi\n      mload(0x40)\n      shl(0xe5, 0x461bcd)\n      dup2\n      mstore\n        /* \"#utility.yul\":15096:15098   */\n      0x20\n        /* \"bridge samples/profile-with-fee.sol\":4614:4671  require(usdToken.transfer(to, amount), \"Withdraw failed\") */\n      0x04\n      dup3\n      add\n        /* \"#utility.yul\":15078:15099   */\n      mstore\n        /* \"#utility.yul\":15135:15137   */\n      0x0f\n        /* \"#utility.yul\":15115:15133   */\n      0x24\n      dup3\n      add\n        /* \"#utility.yul\":15108:15138   */\n      mstore\n      shl(0x8a, 0x15da5d1a191c985dc819985a5b1959)\n        /* \"#utility.yul\":15154:15172   */\n      0x44\n      dup3\n      add\n        /* \"#utility.yul\":15147:15192   */\n      mstore\n        /* \"#utility.yul\":15209:15227   */\n      0x64\n      add\n        /* \"bridge samples/profile-with-fee.sol\":4614:4671  require(usdToken.transfer(to, amount), \"Withdraw failed\") */\n      tag_109\n        /* \"#utility.yul\":14894:15233   */\n      jump\n        /* \"bridge samples/profile-with-fee.sol\":4614:4671  require(usdToken.transfer(to, amount), \"Withdraw failed\") */\n    tag_182:\n        /* \"bridge samples/profile-with-fee.sol\":4700:4702  to */\n      dup2\n      sub(shl(0xa0, 0x01), 0x01)\n        /* \"bridge samples/profile-with-fee.sol\":4686:4711  FeesWithdrawn(to, amount) */\n      and\n      0xc0819c13be868895eb93e40eaceb96de976442fa1d404e5c55f14bb65a8c489a\n        /* \"bridge samples/profile-with-fee.sol\":4704:4710  amount */\n      dup3\n        /* \"bridge samples/profile-with-fee.sol\":4686:4711  FeesWithdrawn(to, amount) */\n      mload(0x40)\n      tag_185\n      swap2\n        /* \"#utility.yul\":9375:9400   */\n      dup2\n      mstore\n        /* \"#utility.yul\":9363:9365   */\n      0x20\n        /* \"#utility.yul\":9348:9366   */\n      add\n      swap1\n        /* \"#utility.yul\":9229:9406   */\n      jump\n        /* \"bridge samples/profile-with-fee.sol\":4686:4711  FeesWithdrawn(to, amount) */\n    tag_185:\n      mload(0x40)\n      dup1\n      swap2\n      sub\n      swap1\n      log2\n        /* \"bridge samples/profile-with-fee.sol\":4535:4718  function withdrawFees(address to, uint256 amount) external onlyOwner {... */\n      pop\n      pop\n      jump\t// out\n        /* \"@layerzerolabs/oapp-evm/contracts/oapp/OAppCore.sol\":3252:3357  function setDelegate(address _delegate) public onlyOwner {... */\n    tag_91:\n        /* \"@openzeppelin/contracts/access/Ownable.sol\":1531:1544  _checkOwner() */\n      tag_188\n        /* \"@openzeppelin/contracts/access/Ownable.sol\":1531:1542  _checkOwner */\n      tag_122\n        /* \"@openzeppelin/contracts/access/Ownable.sol\":1531:1544  _checkOwner() */\n      jump\t// in\n    tag_188:\n        /* \"@layerzerolabs/oapp-evm/contracts/oapp/OAppCore.sol\":3319:3350  endpoint.setDelegate(_delegate) */\n      mload(0x40)\n      shl(0xe0, 0xca5eb5e1)\n      dup2\n      mstore\n      sub(shl(0xa0, 0x01), 0x01)\n        /* \"#utility.yul\":2721:2753   */\n      dup3\n      dup2\n      and\n        /* \"@layerzerolabs/oapp-evm/contracts/oapp/OAppCore.sol\":3319:3350  endpoint.setDelegate(_delegate) */\n      0x04\n      dup4\n      add\n        /* \"#utility.yul\":2703:2754   */\n      mstore\n        /* \"@layerzerolabs/oapp-evm/contracts/oapp/OAppCore.sol\":3319:3327  endpoint */\n      immutable(\"0xef80077fd7ee005d1b0377e3e959eb59d0ca83c4839422f862a3540a66a91fb5\")\n        /* \"@layerzerolabs/oapp-evm/contracts/oapp/OAppCore.sol\":3319:3339  endpoint.setDelegate */\n      and\n      swap1\n      0xca5eb5e1\n      swap1\n        /* \"#utility.yul\":2676:2694   */\n      0x24\n      add\n        /* \"@layerzerolabs/oapp-evm/contracts/oapp/OAppCore.sol\":3319:3350  endpoint.setDelegate(_delegate) */\n      0x00\n      mload(0x40)\n      dup1\n      dup4\n      sub\n      dup2\n      0x00\n      dup8\n      dup1\n      extcodesize\n      iszero\n      dup1\n      iszero\n      tag_191\n      jumpi\n      0x00\n      dup1\n      revert\n    tag_191:\n      pop\n      gas\n      call\n      iszero\n      dup1\n      iszero\n      tag_193\n      jumpi\n      returndatasize\n      0x00\n      dup1\n      returndatacopy\n      revert(0x00, returndatasize)\n    tag_193:\n      pop\n      pop\n      pop\n      pop\n        /* \"@layerzerolabs/oapp-evm/contracts/oapp/OAppCore.sol\":3252:3357  function setDelegate(address _delegate) public onlyOwner {... */\n      pop\n      jump\t// out\n        /* \"@openzeppelin/contracts/access/Ownable.sol\":2543:2758  function transferOwnership(address newOwner) public virtual onlyOwner {... */\n    tag_95:\n        /* \"@openzeppelin/contracts/access/Ownable.sol\":1531:1544  _checkOwner() */\n      tag_195\n        /* \"@openzeppelin/contracts/access/Ownable.sol\":1531:1542  _checkOwner */\n      tag_122\n        /* \"@openzeppelin/contracts/access/Ownable.sol\":1531:1544  _checkOwner() */\n      jump\t// in\n    tag_195:\n      sub(shl(0xa0, 0x01), 0x01)\n        /* \"@openzeppelin/contracts/access/Ownable.sol\":2627:2649  newOwner == address(0) */\n      dup2\n      and\n        /* \"@openzeppelin/contracts/access/Ownable.sol\":2623:2714  if (newOwner == address(0)) {... */\n      tag_197\n      jumpi\n        /* \"@openzeppelin/contracts/access/Ownable.sol\":2672:2703  OwnableInvalidOwner(address(0)) */\n      mload(0x40)\n      shl(0xe0, 0x1e4fbdf7)\n      dup2\n      mstore\n        /* \"@openzeppelin/contracts/access/Ownable.sol\":2700:2701  0 */\n      0x00\n        /* \"@openzeppelin/contracts/access/Ownable.sol\":2672:2703  OwnableInvalidOwner(address(0)) */\n      0x04\n      dup3\n      add\n        /* \"#utility.yul\":2703:2754   */\n      mstore\n        /* \"#utility.yul\":2676:2694   */\n      0x24\n      add\n        /* \"@openzeppelin/contracts/access/Ownable.sol\":2672:2703  OwnableInvalidOwner(address(0)) */\n      tag_109\n        /* \"#utility.yul\":2529:2760   */\n      jump\n        /* \"@openzeppelin/contracts/access/Ownable.sol\":2623:2714  if (newOwner == address(0)) {... */\n    tag_197:\n        /* \"@openzeppelin/contracts/access/Ownable.sol\":2723:2751  _transferOwnership(newOwner) */\n      tag_199\n        /* \"@openzeppelin/contracts/access/Ownable.sol\":2742:2750  newOwner */\n      dup2\n        /* \"@openzeppelin/contracts/access/Ownable.sol\":2723:2741  _transferOwnership */\n      tag_170\n        /* \"@openzeppelin/contracts/access/Ownable.sol\":2723:2751  _transferOwnership(newOwner) */\n      jump\t// in\n    tag_199:\n        /* \"@openzeppelin/contracts/access/Ownable.sol\":2543:2758  function transferOwnership(address newOwner) public virtual onlyOwner {... */\n      pop\n      jump\t// out\n        /* \"@layerzerolabs/oapp-evm/contracts/oapp/OAppReceiver.sol\":2771:2920  function allowInitializePath(Origin calldata origin) public view virtual returns (bool) {... */\n    tag_105:\n        /* \"@layerzerolabs/oapp-evm/contracts/oapp/OAppReceiver.sol\":2853:2857  bool */\n      0x00\n        /* \"@layerzerolabs/oapp-evm/contracts/oapp/OAppReceiver.sol\":2900:2913  origin.sender */\n      0x20\n      dup3\n      add\n      dup1\n      calldataload\n      swap1\n        /* \"@layerzerolabs/oapp-evm/contracts/oapp/OAppReceiver.sol\":2876:2881  peers */\n      0x01\n      swap1\n        /* \"@layerzerolabs/oapp-evm/contracts/oapp/OAppReceiver.sol\":2853:2857  bool */\n      dup4\n      swap1\n        /* \"@layerzerolabs/oapp-evm/contracts/oapp/OAppReceiver.sol\":2882:2895  origin.srcEid */\n      tag_201\n      swap1\n        /* \"@layerzerolabs/oapp-evm/contracts/oapp/OAppReceiver.sol\":2900:2906  origin */\n      dup7\n        /* \"@layerzerolabs/oapp-evm/contracts/oapp/OAppReceiver.sol\":2882:2895  origin.srcEid */\n      tag_83\n      jump\t// in\n    tag_201:\n        /* \"@layerzerolabs/oapp-evm/contracts/oapp/OAppReceiver.sol\":2876:2896  peers[origin.srcEid] */\n      0xffffffff\n      and\n      dup2\n      mstore\n      0x20\n      dup2\n      add\n      swap2\n      swap1\n      swap2\n      mstore\n      0x40\n      add\n      0x00\n      keccak256\n      sload\n        /* \"@layerzerolabs/oapp-evm/contracts/oapp/OAppReceiver.sol\":2876:2913  peers[origin.srcEid] == origin.sender */\n      eq\n      swap3\n        /* \"@layerzerolabs/oapp-evm/contracts/oapp/OAppReceiver.sol\":2771:2920  function allowInitializePath(Origin calldata origin) public view virtual returns (bool) {... */\n      swap2\n      pop\n      pop\n      jump\t// out\n        /* \"@layerzerolabs/oapp-evm/contracts/oapp/OAppCore.sol\":2718:2914  function _getPeerOrRevert(uint32 _eid) internal view virtual returns (bytes32) {... */\n    tag_112:\n        /* \"@layerzerolabs/oapp-evm/contracts/oapp/OAppCore.sol\":2822:2833  peers[_eid] */\n      0xffffffff\n      dup2\n      and\n        /* \"@layerzerolabs/oapp-evm/contracts/oapp/OAppCore.sol\":2788:2795  bytes32 */\n      0x00\n        /* \"@layerzerolabs/oapp-evm/contracts/oapp/OAppCore.sol\":2822:2833  peers[_eid] */\n      swap1\n      dup2\n      mstore\n        /* \"@layerzerolabs/oapp-evm/contracts/oapp/OAppCore.sol\":2822:2827  peers */\n      0x01\n        /* \"@layerzerolabs/oapp-evm/contracts/oapp/OAppCore.sol\":2822:2833  peers[_eid] */\n      0x20\n      mstore\n      0x40\n      dup2\n      keccak256\n      sload\n      dup1\n        /* \"@layerzerolabs/oapp-evm/contracts/oapp/OAppCore.sol\":2843:2886  if (peer == bytes32(0)) revert NoPeer(_eid) */\n      tag_203\n      jumpi\n        /* \"@layerzerolabs/oapp-evm/contracts/oapp/OAppCore.sol\":2874:2886  NoPeer(_eid) */\n      mload(0x40)\n      shl(0xe0, 0xf6ff4fb7)\n      dup2\n      mstore\n        /* \"#utility.yul\":15594:15604   */\n      0xffffffff\n        /* \"#utility.yul\":15582:15605   */\n      dup5\n      and\n        /* \"@layerzerolabs/oapp-evm/contracts/oapp/OAppCore.sol\":2874:2886  NoPeer(_eid) */\n      0x04\n      dup3\n      add\n        /* \"#utility.yul\":15564:15606   */\n      mstore\n        /* \"#utility.yul\":15537:15555   */\n      0x24\n      add\n        /* \"@layerzerolabs/oapp-evm/contracts/oapp/OAppCore.sol\":2874:2886  NoPeer(_eid) */\n      tag_109\n        /* \"#utility.yul\":15420:15612   */\n      jump\n        /* \"@layerzerolabs/oapp-evm/contracts/oapp/OAppCore.sol\":2843:2886  if (peer == bytes32(0)) revert NoPeer(_eid) */\n    tag_203:\n        /* \"@layerzerolabs/oapp-evm/contracts/oapp/OAppCore.sol\":2903:2907  peer */\n      swap3\n        /* \"@layerzerolabs/oapp-evm/contracts/oapp/OAppCore.sol\":2718:2914  function _getPeerOrRevert(uint32 _eid) internal view virtual returns (bytes32) {... */\n      swap2\n      pop\n      pop\n      jump\t// out\n        /* \"@openzeppelin/contracts/access/Ownable.sol\":1796:1958  function _checkOwner() internal view virtual {... */\n    tag_122:\n        /* \"@openzeppelin/contracts/access/Ownable.sol\":1684:1691  address */\n      0x00\n        /* \"@openzeppelin/contracts/access/Ownable.sol\":1710:1716  _owner */\n      sload\n      sub(shl(0xa0, 0x01), 0x01)\n      and\n        /* \"@openzeppelin/contracts/utils/Context.sol\":735:745  msg.sender */\n      caller\n        /* \"@openzeppelin/contracts/access/Ownable.sol\":1855:1878  owner() != _msgSender() */\n      eq\n        /* \"@openzeppelin/contracts/access/Ownable.sol\":1851:1952  if (owner() != _msgSender()) {... */\n      tag_169\n      jumpi\n        /* \"@openzeppelin/contracts/access/Ownable.sol\":1901:1941  OwnableUnauthorizedAccount(_msgSender()) */\n      mload(0x40)\n      shl(0xe0, 0x118cdaa7)\n      dup2\n      mstore\n        /* \"@openzeppelin/contracts/utils/Context.sol\":735:745  msg.sender */\n      caller\n        /* \"@openzeppelin/contracts/access/Ownable.sol\":1901:1941  OwnableUnauthorizedAccount(_msgSender()) */\n      0x04\n      dup3\n      add\n        /* \"#utility.yul\":2703:2754   */\n      mstore\n        /* \"#utility.yul\":2676:2694   */\n      0x24\n      add\n        /* \"@openzeppelin/contracts/access/Ownable.sol\":1901:1941  OwnableUnauthorizedAccount(_msgSender()) */\n      tag_109\n        /* \"#utility.yul\":2529:2760   */\n      jump\n        /* \"@layerzerolabs/oapp-evm/contracts/oapp/OAppCore.sol\":2286:2420  function _setPeer(uint32 _eid, bytes32 _peer) internal virtual {... */\n    tag_125:\n        /* \"@layerzerolabs/oapp-evm/contracts/oapp/OAppCore.sol\":2359:2370  peers[_eid] */\n      0xffffffff\n      dup3\n      and\n      0x00\n      dup2\n      dup2\n      mstore\n        /* \"@layerzerolabs/oapp-evm/contracts/oapp/OAppCore.sol\":2359:2364  peers */\n      0x01\n        /* \"@layerzerolabs/oapp-evm/contracts/oapp/OAppCore.sol\":2359:2370  peers[_eid] */\n      0x20\n      swap1\n      dup2\n      mstore\n      0x40\n      swap2\n      dup3\n      swap1\n      keccak256\n        /* \"@layerzerolabs/oapp-evm/contracts/oapp/OAppCore.sol\":2359:2378  peers[_eid] = _peer */\n      dup5\n      swap1\n      sstore\n        /* \"@layerzerolabs/oapp-evm/contracts/oapp/OAppCore.sol\":2393:2413  PeerSet(_eid, _peer) */\n      dup2\n      mload\n        /* \"#utility.yul\":10297:10339   */\n      swap3\n      dup4\n      mstore\n        /* \"#utility.yul\":10355:10373   */\n      dup3\n      add\n        /* \"#utility.yul\":10348:10382   */\n      dup4\n      swap1\n      mstore\n        /* \"@layerzerolabs/oapp-evm/contracts/oapp/OAppCore.sol\":2393:2413  PeerSet(_eid, _peer) */\n      0x238399d427b947898edb290f5ff0f9109849b1c3ba196a42e35f00c50a54b98b\n      swap2\n        /* \"#utility.yul\":10270:10288   */\n      add\n        /* \"@layerzerolabs/oapp-evm/contracts/oapp/OAppCore.sol\":2393:2413  PeerSet(_eid, _peer) */\n      mload(0x40)\n      dup1\n      swap2\n      sub\n      swap1\n      log1\n        /* \"@layerzerolabs/oapp-evm/contracts/oapp/OAppCore.sol\":2286:2420  function _setPeer(uint32 _eid, bytes32 _peer) internal virtual {... */\n      pop\n      pop\n      jump\t// out\n        /* \"@openzeppelin/contracts/security/ReentrancyGuard.sol\":2336:2623  function _nonReentrantBefore() private {... */\n    tag_128:\n        /* \"@openzeppelin/contracts/security/ReentrancyGuard.sol\":1759:1760  2 */\n      0x02\n        /* \"@openzeppelin/contracts/security/ReentrancyGuard.sol\":2468:2475  _status */\n      dup1\n      sload\n        /* \"@openzeppelin/contracts/security/ReentrancyGuard.sol\":2468:2487  _status != _ENTERED */\n      sub\n        /* \"@openzeppelin/contracts/security/ReentrancyGuard.sol\":2460:2523  require(_status != _ENTERED, \"ReentrancyGuard: reentrant call\") */\n      tag_217\n      jumpi\n      mload(0x40)\n      shl(0xe5, 0x461bcd)\n      dup2\n      mstore\n        /* \"#utility.yul\":15819:15821   */\n      0x20\n        /* \"@openzeppelin/contracts/security/ReentrancyGuard.sol\":2460:2523  require(_status != _ENTERED, \"ReentrancyGuard: reentrant call\") */\n      0x04\n      dup3\n      add\n        /* \"#utility.yul\":15801:15822   */\n      mstore\n        /* \"#utility.yul\":15858:15860   */\n      0x1f\n        /* \"#utility.yul\":15838:15856   */\n      0x24\n      dup3\n      add\n        /* \"#utility.yul\":15831:15861   */\n      mstore\n        /* \"#utility.yul\":15897:15930   */\n      0x5265656e7472616e637947756172643a207265656e7472616e742063616c6c00\n        /* \"#utility.yul\":15877:15895   */\n      0x44\n      dup3\n      add\n        /* \"#utility.yul\":15870:15931   */\n      mstore\n        /* \"#utility.yul\":15948:15966   */\n      0x64\n      add\n        /* \"@openzeppelin/contracts/security/ReentrancyGuard.sol\":2460:2523  require(_status != _ENTERED, \"ReentrancyGuard: reentrant call\") */\n      tag_109\n        /* \"#utility.yul\":15617:15972   */\n      jump\n        /* \"@openzeppelin/contracts/security/ReentrancyGuard.sol\":2460:2523  require(_status != _ENTERED, \"ReentrancyGuard: reentrant call\") */\n    tag_217:\n        /* \"@openzeppelin/contracts/security/ReentrancyGuard.sol\":1759:1760  2 */\n      0x02\n        /* \"@openzeppelin/contracts/security/ReentrancyGuard.sol\":2598:2616  _status = _ENTERED */\n      dup1\n      sstore\n        /* \"@openzeppelin/contracts/security/ReentrancyGuard.sol\":2336:2623  function _nonReentrantBefore() private {... */\n      jump\t// out\n        /* \"@layerzerolabs/oapp-evm/contracts/oapp/OAppSender.sol\":2038:2429  function _quote(... */\n    tag_151:\n      0x40\n      dup1\n      mload\n      dup1\n      dup3\n      add\n      swap1\n      swap2\n      mstore\n      0x00\n      dup1\n      dup3\n      mstore\n      0x20\n      dup3\n      add\n      mstore\n        /* \"@layerzerolabs/oapp-evm/contracts/oapp/OAppSender.sol\":2259:2267  endpoint */\n      immutable(\"0xef80077fd7ee005d1b0377e3e959eb59d0ca83c4839422f862a3540a66a91fb5\")\n      sub(shl(0xa0, 0x01), 0x01)\n        /* \"@layerzerolabs/oapp-evm/contracts/oapp/OAppSender.sol\":2259:2273  endpoint.quote */\n      and\n      0xddc28c58\n        /* \"@layerzerolabs/oapp-evm/contracts/oapp/OAppSender.sol\":2291:2377  MessagingParams(_dstEid, _getPeerOrRevert(_dstEid), _message, _options, _payInLzToken) */\n      mload(0x40)\n      dup1\n      0xa0\n      add\n      0x40\n      mstore\n      dup1\n        /* \"@layerzerolabs/oapp-evm/contracts/oapp/OAppSender.sol\":2307:2314  _dstEid */\n      dup9\n        /* \"@layerzerolabs/oapp-evm/contracts/oapp/OAppSender.sol\":2291:2377  MessagingParams(_dstEid, _getPeerOrRevert(_dstEid), _message, _options, _payInLzToken) */\n      0xffffffff\n      and\n      dup2\n      mstore\n      0x20\n      add\n        /* \"@layerzerolabs/oapp-evm/contracts/oapp/OAppSender.sol\":2316:2341  _getPeerOrRevert(_dstEid) */\n      tag_222\n        /* \"@layerzerolabs/oapp-evm/contracts/oapp/OAppSender.sol\":2333:2340  _dstEid */\n      dup10\n        /* \"@layerzerolabs/oapp-evm/contracts/oapp/OAppSender.sol\":2316:2332  _getPeerOrRevert */\n      tag_112\n        /* \"@layerzerolabs/oapp-evm/contracts/oapp/OAppSender.sol\":2316:2341  _getPeerOrRevert(_dstEid) */\n      jump\t// in\n    tag_222:\n        /* \"@layerzerolabs/oapp-evm/contracts/oapp/OAppSender.sol\":2291:2377  MessagingParams(_dstEid, _getPeerOrRevert(_dstEid), _message, _options, _payInLzToken) */\n      dup2\n      mstore\n      0x20\n      add\n        /* \"@layerzerolabs/oapp-evm/contracts/oapp/OAppSender.sol\":2343:2351  _message */\n      dup8\n        /* \"@layerzerolabs/oapp-evm/contracts/oapp/OAppSender.sol\":2291:2377  MessagingParams(_dstEid, _getPeerOrRevert(_dstEid), _message, _options, _payInLzToken) */\n      dup2\n      mstore\n      0x20\n      add\n        /* \"@layerzerolabs/oapp-evm/contracts/oapp/OAppSender.sol\":2353:2361  _options */\n      dup7\n        /* \"@layerzerolabs/oapp-evm/contracts/oapp/OAppSender.sol\":2291:2377  MessagingParams(_dstEid, _getPeerOrRevert(_dstEid), _message, _options, _payInLzToken) */\n      dup2\n      mstore\n      0x20\n      add\n        /* \"@layerzerolabs/oapp-evm/contracts/oapp/OAppSender.sol\":2363:2376  _payInLzToken */\n      dup6\n        /* \"@layerzerolabs/oapp-evm/contracts/oapp/OAppSender.sol\":2291:2377  MessagingParams(_dstEid, _getPeerOrRevert(_dstEid), _message, _options, _payInLzToken) */\n      iszero\n      iszero\n      dup2\n      mstore\n      pop\n        /* \"@layerzerolabs/oapp-evm/contracts/oapp/OAppSender.sol\":2403:2407  this */\n      address\n        /* \"@layerzerolabs/oapp-evm/contracts/oapp/OAppSender.sol\":2259:2422  endpoint.quote(... */\n      mload(0x40)\n      dup4\n      0xffffffff\n      and\n      0xe0\n      shl\n      dup2\n      mstore\n      0x04\n      add\n      tag_223\n      swap3\n      swap2\n      swap1\n      tag_224\n      jump\t// in\n    tag_223:\n      0x40\n      dup1\n      mload\n      dup1\n      dup4\n      sub\n      dup2\n      dup7\n      gas\n      staticcall\n      iszero\n      dup1\n      iszero\n      tag_226\n      jumpi\n      returndatasize\n      0x00\n      dup1\n      returndatacopy\n      revert(0x00, returndatasize)\n    tag_226:\n      pop\n      pop\n      pop\n      pop\n      mload(0x40)\n      returndatasize\n      not(0x1f)\n      0x1f\n      dup3\n      add\n      and\n      dup3\n      add\n      dup1\n      0x40\n      mstore\n      pop\n      dup2\n      add\n      swap1\n      tag_227\n      swap2\n      swap1\n      tag_228\n      jump\t// in\n    tag_227:\n        /* \"@layerzerolabs/oapp-evm/contracts/oapp/OAppSender.sol\":2240:2422  return... */\n      swap6\n        /* \"@layerzerolabs/oapp-evm/contracts/oapp/OAppSender.sol\":2038:2429  function _quote(... */\n      swap5\n      pop\n      pop\n      pop\n      pop\n      pop\n      jump\t// out\n        /* \"@layerzerolabs/oapp-evm/contracts/oapp/OAppSender.sol\":3188:3954  function _lzSend(... */\n    tag_156:\n        /* \"@layerzerolabs/oapp-evm/contracts/oapp/OAppSender.sol\":3389:3420  MessagingReceipt memory receipt */\n      tag_229\n      tag_230\n      jump\t// in\n    tag_229:\n        /* \"@layerzerolabs/oapp-evm/contracts/oapp/OAppSender.sol\":3554:3574  uint256 messageValue */\n      0x00\n        /* \"@layerzerolabs/oapp-evm/contracts/oapp/OAppSender.sol\":3577:3603  _payNative(_fee.nativeFee) */\n      tag_232\n        /* \"@layerzerolabs/oapp-evm/contracts/oapp/OAppSender.sol\":3588:3592  _fee */\n      dup5\n        /* \"@layerzerolabs/oapp-evm/contracts/oapp/OAppSender.sol\":3588:3602  _fee.nativeFee */\n      0x00\n      add\n      mload\n        /* \"@layerzerolabs/oapp-evm/contracts/oapp/OAppSender.sol\":3577:3587  _payNative */\n      tag_233\n        /* \"@layerzerolabs/oapp-evm/contracts/oapp/OAppSender.sol\":3577:3603  _payNative(_fee.nativeFee) */\n      jump\t// in\n    tag_232:\n        /* \"@layerzerolabs/oapp-evm/contracts/oapp/OAppSender.sol\":3617:3632  _fee.lzTokenFee */\n      0x20\n      dup6\n      add\n      mload\n        /* \"@layerzerolabs/oapp-evm/contracts/oapp/OAppSender.sol\":3554:3603  uint256 messageValue = _payNative(_fee.nativeFee) */\n      swap1\n      swap2\n      pop\n        /* \"@layerzerolabs/oapp-evm/contracts/oapp/OAppSender.sol\":3617:3636  _fee.lzTokenFee > 0 */\n      iszero\n        /* \"@layerzerolabs/oapp-evm/contracts/oapp/OAppSender.sol\":3613:3666  if (_fee.lzTokenFee > 0) _payLzToken(_fee.lzTokenFee) */\n      tag_235\n      jumpi\n        /* \"@layerzerolabs/oapp-evm/contracts/oapp/OAppSender.sol\":3638:3666  _payLzToken(_fee.lzTokenFee) */\n      tag_235\n        /* \"@layerzerolabs/oapp-evm/contracts/oapp/OAppSender.sol\":3650:3654  _fee */\n      dup5\n        /* \"@layerzerolabs/oapp-evm/contracts/oapp/OAppSender.sol\":3650:3665  _fee.lzTokenFee */\n      0x20\n      add\n      mload\n        /* \"@layerzerolabs/oapp-evm/contracts/oapp/OAppSender.sol\":3638:3649  _payLzToken */\n      tag_236\n        /* \"@layerzerolabs/oapp-evm/contracts/oapp/OAppSender.sol\":3638:3666  _payLzToken(_fee.lzTokenFee) */\n      jump\t// in\n    tag_235:\n        /* \"@layerzerolabs/oapp-evm/contracts/oapp/OAppSender.sol\":3755:3763  endpoint */\n      immutable(\"0xef80077fd7ee005d1b0377e3e959eb59d0ca83c4839422f862a3540a66a91fb5\")\n      sub(shl(0xa0, 0x01), 0x01)\n        /* \"@layerzerolabs/oapp-evm/contracts/oapp/OAppSender.sol\":3755:3768  endpoint.send */\n      and\n      0x2637a450\n        /* \"@layerzerolabs/oapp-evm/contracts/oapp/OAppSender.sol\":3777:3789  messageValue */\n      dup3\n        /* \"@layerzerolabs/oapp-evm/contracts/oapp/OAppSender.sol\":3809:3901  MessagingParams(_dstEid, _getPeerOrRevert(_dstEid), _message, _options, _fee.lzTokenFee > 0) */\n      mload(0x40)\n      dup1\n      0xa0\n      add\n      0x40\n      mstore\n      dup1\n        /* \"@layerzerolabs/oapp-evm/contracts/oapp/OAppSender.sol\":3825:3832  _dstEid */\n      dup12\n        /* \"@layerzerolabs/oapp-evm/contracts/oapp/OAppSender.sol\":3809:3901  MessagingParams(_dstEid, _getPeerOrRevert(_dstEid), _message, _options, _fee.lzTokenFee > 0) */\n      0xffffffff\n      and\n      dup2\n      mstore\n      0x20\n      add\n        /* \"@layerzerolabs/oapp-evm/contracts/oapp/OAppSender.sol\":3834:3859  _getPeerOrRevert(_dstEid) */\n      tag_237\n        /* \"@layerzerolabs/oapp-evm/contracts/oapp/OAppSender.sol\":3851:3858  _dstEid */\n      dup13\n        /* \"@layerzerolabs/oapp-evm/contracts/oapp/OAppSender.sol\":3834:3850  _getPeerOrRevert */\n      tag_112\n        /* \"@layerzerolabs/oapp-evm/contracts/oapp/OAppSender.sol\":3834:3859  _getPeerOrRevert(_dstEid) */\n      jump\t// in\n    tag_237:\n        /* \"@layerzerolabs/oapp-evm/contracts/oapp/OAppSender.sol\":3809:3901  MessagingParams(_dstEid, _getPeerOrRevert(_dstEid), _message, _options, _fee.lzTokenFee > 0) */\n      dup2\n      mstore\n      0x20\n      add\n        /* \"@layerzerolabs/oapp-evm/contracts/oapp/OAppSender.sol\":3861:3869  _message */\n      dup11\n        /* \"@layerzerolabs/oapp-evm/contracts/oapp/OAppSender.sol\":3809:3901  MessagingParams(_dstEid, _getPeerOrRevert(_dstEid), _message, _options, _fee.lzTokenFee > 0) */\n      dup2\n      mstore\n      0x20\n      add\n        /* \"@layerzerolabs/oapp-evm/contracts/oapp/OAppSender.sol\":3871:3879  _options */\n      dup10\n        /* \"@layerzerolabs/oapp-evm/contracts/oapp/OAppSender.sol\":3809:3901  MessagingParams(_dstEid, _getPeerOrRevert(_dstEid), _message, _options, _fee.lzTokenFee > 0) */\n      dup2\n      mstore\n      0x20\n      add\n        /* \"@layerzerolabs/oapp-evm/contracts/oapp/OAppSender.sol\":3899:3900  0 */\n      0x00\n        /* \"@layerzerolabs/oapp-evm/contracts/oapp/OAppSender.sol\":3881:3885  _fee */\n      dup10\n        /* \"@layerzerolabs/oapp-evm/contracts/oapp/OAppSender.sol\":3881:3896  _fee.lzTokenFee */\n      0x20\n      add\n      mload\n        /* \"@layerzerolabs/oapp-evm/contracts/oapp/OAppSender.sol\":3881:3900  _fee.lzTokenFee > 0 */\n      gt\n        /* \"@layerzerolabs/oapp-evm/contracts/oapp/OAppSender.sol\":3809:3901  MessagingParams(_dstEid, _getPeerOrRevert(_dstEid), _message, _options, _fee.lzTokenFee > 0) */\n      iszero\n      iszero\n      dup2\n      mstore\n      pop\n        /* \"@layerzerolabs/oapp-evm/contracts/oapp/OAppSender.sol\":3919:3933  _refundAddress */\n      dup7\n        /* \"@layerzerolabs/oapp-evm/contracts/oapp/OAppSender.sol\":3755:3947  endpoint.send{ value: messageValue }(... */\n      mload(0x40)\n      dup5\n      0xffffffff\n      and\n      0xe0\n      shl\n      dup2\n      mstore\n      0x04\n      add\n      tag_238\n      swap3\n      swap2\n      swap1\n      tag_224\n      jump\t// in\n    tag_238:\n      0x80\n      mload(0x40)\n      dup1\n      dup4\n      sub\n      dup2\n      dup6\n      dup9\n      gas\n      call\n      iszero\n      dup1\n      iszero\n      tag_240\n      jumpi\n      returndatasize\n      0x00\n      dup1\n      returndatacopy\n      revert(0x00, returndatasize)\n    tag_240:\n      pop\n      pop\n      pop\n      pop\n      pop\n      mload(0x40)\n      returndatasize\n      not(0x1f)\n      0x1f\n      dup3\n      add\n      and\n      dup3\n      add\n      dup1\n      0x40\n      mstore\n      pop\n      dup2\n      add\n      swap1\n      tag_164\n      swap2\n      swap1\n      tag_242\n      jump\t// in\n        /* \"@openzeppelin/contracts/access/Ownable.sol\":2912:3099  function _transferOwnership(address newOwner) internal virtual {... */\n    tag_170:\n        /* \"@openzeppelin/contracts/access/Ownable.sol\":2985:3001  address oldOwner */\n      0x00\n        /* \"@openzeppelin/contracts/access/Ownable.sol\":3004:3010  _owner */\n      dup1\n      sload\n      sub(shl(0xa0, 0x01), 0x01)\n        /* \"@openzeppelin/contracts/access/Ownable.sol\":3020:3037  _owner = newOwner */\n      dup4\n      dup2\n      and\n      not(sub(shl(0xa0, 0x01), 0x01))\n      dup4\n      and\n      dup2\n      or\n      dup5\n      sstore\n        /* \"@openzeppelin/contracts/access/Ownable.sol\":3052:3092  OwnershipTransferred(oldOwner, newOwner) */\n      mload(0x40)\n        /* \"@openzeppelin/contracts/access/Ownable.sol\":3004:3010  _owner */\n      swap2\n      swap1\n      swap3\n      and\n      swap3\n      dup4\n      swap2\n        /* \"@openzeppelin/contracts/access/Ownable.sol\":3052:3092  OwnershipTransferred(oldOwner, newOwner) */\n      0x8be0079c531659141344cd1fd0a4f28419497f9722a3daafe3b4186f6b6457e0\n      swap2\n        /* \"@openzeppelin/contracts/access/Ownable.sol\":2985:3001  address oldOwner */\n      swap1\n        /* \"@openzeppelin/contracts/access/Ownable.sol\":3052:3092  OwnershipTransferred(oldOwner, newOwner) */\n      log3\n        /* \"@openzeppelin/contracts/access/Ownable.sol\":2975:3099  {... */\n      pop\n        /* \"@openzeppelin/contracts/access/Ownable.sol\":2912:3099  function _transferOwnership(address newOwner) internal virtual {... */\n      pop\n      jump\t// out\n        /* \"@layerzerolabs/oapp-evm/contracts/oapp/OAppSender.sol\":4650:4841  function _payNative(uint256 _nativeFee) internal virtual returns (uint256 nativeFee) {... */\n    tag_233:\n        /* \"@layerzerolabs/oapp-evm/contracts/oapp/OAppSender.sol\":4716:4733  uint256 nativeFee */\n      0x00\n        /* \"@layerzerolabs/oapp-evm/contracts/oapp/OAppSender.sol\":4762:4772  _nativeFee */\n      dup2\n        /* \"@layerzerolabs/oapp-evm/contracts/oapp/OAppSender.sol\":4749:4758  msg.value */\n      callvalue\n        /* \"@layerzerolabs/oapp-evm/contracts/oapp/OAppSender.sol\":4749:4772  msg.value != _nativeFee */\n      eq\n        /* \"@layerzerolabs/oapp-evm/contracts/oapp/OAppSender.sol\":4745:4807  if (msg.value != _nativeFee) revert NotEnoughNative(msg.value) */\n      tag_247\n      jumpi\n        /* \"@layerzerolabs/oapp-evm/contracts/oapp/OAppSender.sol\":4781:4807  NotEnoughNative(msg.value) */\n      mload(0x40)\n      shl(0xe5, 0x04fb8209)\n      dup2\n      mstore\n        /* \"@layerzerolabs/oapp-evm/contracts/oapp/OAppSender.sol\":4797:4806  msg.value */\n      callvalue\n        /* \"@layerzerolabs/oapp-evm/contracts/oapp/OAppSender.sol\":4781:4807  NotEnoughNative(msg.value) */\n      0x04\n      dup3\n      add\n        /* \"#utility.yul\":9375:9400   */\n      mstore\n        /* \"#utility.yul\":9348:9366   */\n      0x24\n      add\n        /* \"@layerzerolabs/oapp-evm/contracts/oapp/OAppSender.sol\":4781:4807  NotEnoughNative(msg.value) */\n      tag_109\n        /* \"#utility.yul\":9229:9406   */\n      jump\n        /* \"@layerzerolabs/oapp-evm/contracts/oapp/OAppSender.sol\":4745:4807  if (msg.value != _nativeFee) revert NotEnoughNative(msg.value) */\n    tag_247:\n      pop\n        /* \"@layerzerolabs/oapp-evm/contracts/oapp/OAppSender.sol\":4824:4834  _nativeFee */\n      swap1\n        /* \"@layerzerolabs/oapp-evm/contracts/oapp/OAppSender.sol\":4650:4841  function _payNative(uint256 _nativeFee) internal virtual returns (uint256 nativeFee) {... */\n      jump\t// out\n        /* \"@layerzerolabs/oapp-evm/contracts/oapp/OAppSender.sol\":5218:5628  function _payLzToken(uint256 _lzTokenFee) internal virtual {... */\n    tag_236:\n        /* \"@layerzerolabs/oapp-evm/contracts/oapp/OAppSender.sol\":5371:5386  address lzToken */\n      0x00\n        /* \"@layerzerolabs/oapp-evm/contracts/oapp/OAppSender.sol\":5389:5397  endpoint */\n      immutable(\"0xef80077fd7ee005d1b0377e3e959eb59d0ca83c4839422f862a3540a66a91fb5\")\n      sub(shl(0xa0, 0x01), 0x01)\n        /* \"@layerzerolabs/oapp-evm/contracts/oapp/OAppSender.sol\":5389:5405  endpoint.lzToken */\n      and\n      0xe4fe1d94\n        /* \"@layerzerolabs/oapp-evm/contracts/oapp/OAppSender.sol\":5389:5407  endpoint.lzToken() */\n      mload(0x40)\n      dup2\n      0xffffffff\n      and\n      0xe0\n      shl\n      dup2\n      mstore\n      0x04\n      add\n      0x20\n      mload(0x40)\n      dup1\n      dup4\n      sub\n      dup2\n      dup7\n      gas\n      staticcall\n      iszero\n      dup1\n      iszero\n      tag_251\n      jumpi\n      returndatasize\n      0x00\n      dup1\n      returndatacopy\n      revert(0x00, returndatasize)\n    tag_251:\n      pop\n      pop\n      pop\n      pop\n      mload(0x40)\n      returndatasize\n      not(0x1f)\n      0x1f\n      dup3\n      add\n      and\n      dup3\n      add\n      dup1\n      0x40\n      mstore\n      pop\n      dup2\n      add\n      swap1\n      tag_252\n      swap2\n      swap1\n      tag_253\n      jump\t// in\n    tag_252:\n        /* \"@layerzerolabs/oapp-evm/contracts/oapp/OAppSender.sol\":5371:5407  address lzToken = endpoint.lzToken() */\n      swap1\n      pop\n      sub(shl(0xa0, 0x01), 0x01)\n        /* \"@layerzerolabs/oapp-evm/contracts/oapp/OAppSender.sol\":5421:5442  lzToken == address(0) */\n      dup2\n      and\n        /* \"@layerzerolabs/oapp-evm/contracts/oapp/OAppSender.sol\":5417:5471  if (lzToken == address(0)) revert LzTokenUnavailable() */\n      tag_254\n      jumpi\n        /* \"@layerzerolabs/oapp-evm/contracts/oapp/OAppSender.sol\":5451:5471  LzTokenUnavailable() */\n      mload(0x40)\n      shl(0xe1, 0x29b99a95)\n      dup2\n      mstore\n      0x04\n      add\n      mload(0x40)\n      dup1\n      swap2\n      sub\n      swap1\n      revert\n        /* \"@layerzerolabs/oapp-evm/contracts/oapp/OAppSender.sol\":5417:5471  if (lzToken == address(0)) revert LzTokenUnavailable() */\n    tag_254:\n        /* \"@openzeppelin/contracts/token/ERC20/utils/SafeERC20.sol\":1745:1798  abi.encodeCall(token.transferFrom, (from, to, value)) */\n      0x40\n      dup1\n      mload\n        /* \"@layerzerolabs/oapp-evm/contracts/oapp/OAppSender.sol\":5578:5588  msg.sender */\n      caller\n        /* \"@openzeppelin/contracts/token/ERC20/utils/SafeERC20.sol\":1745:1798  abi.encodeCall(token.transferFrom, (from, to, value)) */\n      0x24\n      dup3\n      add\n        /* \"#utility.yul\":11617:11668   */\n      dup2\n      swap1\n      mstore\n        /* \"@layerzerolabs/oapp-evm/contracts/oapp/OAppSender.sol\":5598:5606  endpoint */\n      immutable(\"0xef80077fd7ee005d1b0377e3e959eb59d0ca83c4839422f862a3540a66a91fb5\")\n      sub(shl(0xa0, 0x01), 0x01)\n        /* \"#utility.yul\":11704:11736   */\n      dup2\n      dup2\n      and\n        /* \"#utility.yul\":11684:11702   */\n      0x44\n      dup6\n      add\n        /* \"#utility.yul\":11677:11737   */\n      mstore\n        /* \"#utility.yul\":11753:11771   */\n      0x64\n      dup1\n      dup6\n      add\n        /* \"#utility.yul\":11746:11780   */\n      dup9\n      swap1\n      mstore\n        /* \"@openzeppelin/contracts/token/ERC20/utils/SafeERC20.sol\":1745:1798  abi.encodeCall(token.transferFrom, (from, to, value)) */\n      dup6\n      mload\n      dup1\n      dup7\n      sub\n      swap1\n      swap2\n      add\n      dup2\n      mstore\n        /* \"#utility.yul\":11590:11608   */\n      0x84\n      swap1\n      swap5\n      add\n        /* \"@openzeppelin/contracts/token/ERC20/utils/SafeERC20.sol\":1745:1798  abi.encodeCall(token.transferFrom, (from, to, value)) */\n      swap1\n      swap5\n      mstore\n      0x20\n      dup4\n      add\n      dup1\n      mload\n      sub(shl(0xe0, 0x01), 0x01)\n      and\n      shl(0xe0, 0x23b872dd)\n      or\n      swap1\n      mstore\n        /* \"@layerzerolabs/oapp-evm/contracts/oapp/OAppSender.sol\":5545:5621  IERC20(lzToken).safeTransferFrom(msg.sender, address(endpoint), _lzTokenFee) */\n      tag_124\n      swap4\n        /* \"@layerzerolabs/oapp-evm/contracts/oapp/OAppSender.sol\":5545:5577  IERC20(lzToken).safeTransferFrom */\n      dup6\n      and\n      swap3\n        /* \"@layerzerolabs/oapp-evm/contracts/oapp/OAppSender.sol\":5609:5620  _lzTokenFee */\n      dup7\n      swap1\n        /* \"@openzeppelin/contracts/token/ERC20/utils/SafeERC20.sol\":1718:1799  _callOptionalReturn(token, abi.encodeCall(token.transferFrom, (from, to, value))) */\n      tag_258\n      swap1\n        /* \"@layerzerolabs/oapp-evm/contracts/oapp/OAppSender.sol\":5545:5577  IERC20(lzToken).safeTransferFrom */\n      dup6\n      swap1\n        /* \"@openzeppelin/contracts/token/ERC20/utils/SafeERC20.sol\":1718:1737  _callOptionalReturn */\n      tag_260\n        /* \"@openzeppelin/contracts/token/ERC20/utils/SafeERC20.sol\":1718:1799  _callOptionalReturn(token, abi.encodeCall(token.transferFrom, (from, to, value))) */\n      jump\t// in\n    tag_258:\n        /* \"@openzeppelin/contracts/token/ERC20/utils/SafeERC20.sol\":1618:1806  function safeTransferFrom(IERC20 token, address from, address to, uint256 value) internal {... */\n      pop\n      pop\n      pop\n      pop\n      jump\t// out\n        /* \"@openzeppelin/contracts/token/ERC20/utils/SafeERC20.sol\":8370:9090  function _callOptionalReturn(IERC20 token, bytes memory data) private {... */\n    tag_260:\n        /* \"@openzeppelin/contracts/token/ERC20/utils/SafeERC20.sol\":8450:8468  uint256 returnSize */\n      0x00\n        /* \"@openzeppelin/contracts/token/ERC20/utils/SafeERC20.sol\":8478:8497  uint256 returnValue */\n      dup1\n        /* \"@openzeppelin/contracts/token/ERC20/utils/SafeERC20.sol\":8616:8620  0x20 */\n      0x20\n        /* \"@openzeppelin/contracts/token/ERC20/utils/SafeERC20.sol\":8613:8614  0 */\n      0x00\n        /* \"@openzeppelin/contracts/token/ERC20/utils/SafeERC20.sol\":8606:8610  data */\n      dup5\n        /* \"@openzeppelin/contracts/token/ERC20/utils/SafeERC20.sol\":8600:8611  mload(data) */\n      mload\n        /* \"@openzeppelin/contracts/token/ERC20/utils/SafeERC20.sol\":8593:8597  0x20 */\n      0x20\n        /* \"@openzeppelin/contracts/token/ERC20/utils/SafeERC20.sol\":8587:8591  data */\n      dup7\n        /* \"@openzeppelin/contracts/token/ERC20/utils/SafeERC20.sol\":8583:8598  add(data, 0x20) */\n      add\n        /* \"@openzeppelin/contracts/token/ERC20/utils/SafeERC20.sol\":8580:8581  0 */\n      0x00\n        /* \"@openzeppelin/contracts/token/ERC20/utils/SafeERC20.sol\":8573:8578  token */\n      dup9\n        /* \"@openzeppelin/contracts/token/ERC20/utils/SafeERC20.sol\":8566:8571  gas() */\n      gas\n        /* \"@openzeppelin/contracts/token/ERC20/utils/SafeERC20.sol\":8561:8621  call(gas(), token, 0, add(data, 0x20), mload(data), 0, 0x20) */\n      call\n        /* \"@openzeppelin/contracts/token/ERC20/utils/SafeERC20.sol\":8673:8680  success */\n      dup1\n        /* \"@openzeppelin/contracts/token/ERC20/utils/SafeERC20.sol\":8663:8839  if iszero(success) {... */\n      tag_262\n      jumpi\n        /* \"@openzeppelin/contracts/token/ERC20/utils/SafeERC20.sol\":8717:8721  0x40 */\n      0x40\n        /* \"@openzeppelin/contracts/token/ERC20/utils/SafeERC20.sol\":8711:8722  mload(0x40) */\n      mload\n        /* \"@openzeppelin/contracts/token/ERC20/utils/SafeERC20.sol\":8762:8778  returndatasize() */\n      returndatasize\n        /* \"@openzeppelin/contracts/token/ERC20/utils/SafeERC20.sol\":8759:8760  0 */\n      0x00\n        /* \"@openzeppelin/contracts/token/ERC20/utils/SafeERC20.sol\":8754:8757  ptr */\n      dup3\n        /* \"@openzeppelin/contracts/token/ERC20/utils/SafeERC20.sol\":8739:8779  returndatacopy(ptr, 0, returndatasize()) */\n      returndatacopy\n        /* \"@openzeppelin/contracts/token/ERC20/utils/SafeERC20.sol\":8808:8824  returndatasize() */\n      returndatasize\n        /* \"@openzeppelin/contracts/token/ERC20/utils/SafeERC20.sol\":8803:8806  ptr */\n      dup2\n        /* \"@openzeppelin/contracts/token/ERC20/utils/SafeERC20.sol\":8796:8825  revert(ptr, returndatasize()) */\n      revert\n        /* \"@openzeppelin/contracts/token/ERC20/utils/SafeERC20.sol\":8663:8839  if iszero(success) {... */\n    tag_262:\n      pop\n      pop\n        /* \"@openzeppelin/contracts/token/ERC20/utils/SafeERC20.sol\":8916:8917  0 */\n      0x00\n        /* \"@openzeppelin/contracts/token/ERC20/utils/SafeERC20.sol\":8910:8918  mload(0) */\n      mload\n        /* \"@openzeppelin/contracts/token/ERC20/utils/SafeERC20.sol\":8866:8882  returndatasize() */\n      returndatasize\n      swap2\n      pop\n        /* \"@openzeppelin/contracts/token/ERC20/utils/SafeERC20.sol\":8942:8957  returnSize == 0 */\n      dup2\n      iszero\n        /* \"@openzeppelin/contracts/token/ERC20/utils/SafeERC20.sol\":8942:9010  returnSize == 0 ? address(token).code.length == 0 : returnValue != 1 */\n      tag_263\n      jumpi\n        /* \"@openzeppelin/contracts/token/ERC20/utils/SafeERC20.sol\":8994:9005  returnValue */\n      dup1\n        /* \"@openzeppelin/contracts/token/ERC20/utils/SafeERC20.sol\":9009:9010  1 */\n      0x01\n        /* \"@openzeppelin/contracts/token/ERC20/utils/SafeERC20.sol\":8994:9010  returnValue != 1 */\n      eq\n      iszero\n        /* \"@openzeppelin/contracts/token/ERC20/utils/SafeERC20.sol\":8942:9010  returnSize == 0 ? address(token).code.length == 0 : returnValue != 1 */\n      jump(tag_264)\n    tag_263:\n      sub(shl(0xa0, 0x01), 0x01)\n        /* \"@openzeppelin/contracts/token/ERC20/utils/SafeERC20.sol\":8960:8986  address(token).code.length */\n      dup5\n      and\n      extcodesize\n        /* \"@openzeppelin/contracts/token/ERC20/utils/SafeERC20.sol\":8960:8991  address(token).code.length == 0 */\n      iszero\n        /* \"@openzeppelin/contracts/token/ERC20/utils/SafeERC20.sol\":8942:9010  returnSize == 0 ? address(token).code.length == 0 : returnValue != 1 */\n    tag_264:\n        /* \"@openzeppelin/contracts/token/ERC20/utils/SafeERC20.sol\":8938:9084  if (returnSize == 0 ? address(token).code.length == 0 : returnValue != 1) {... */\n      iszero\n      tag_258\n      jumpi\n        /* \"@openzeppelin/contracts/token/ERC20/utils/SafeERC20.sol\":9033:9073  SafeERC20FailedOperation(address(token)) */\n      mload(0x40)\n      shl(0xe0, 0x5274afe7)\n      dup2\n      mstore\n      sub(shl(0xa0, 0x01), 0x01)\n        /* \"#utility.yul\":2721:2753   */\n      dup6\n      and\n        /* \"@openzeppelin/contracts/token/ERC20/utils/SafeERC20.sol\":9033:9073  SafeERC20FailedOperation(address(token)) */\n      0x04\n      dup3\n      add\n        /* \"#utility.yul\":2703:2754   */\n      mstore\n        /* \"#utility.yul\":2676:2694   */\n      0x24\n      add\n        /* \"@openzeppelin/contracts/token/ERC20/utils/SafeERC20.sol\":9033:9073  SafeERC20FailedOperation(address(token)) */\n      tag_109\n        /* \"#utility.yul\":2529:2760   */\n      jump\n    tag_230:\n      mload(0x40)\n      dup1\n      0x60\n      add\n      0x40\n      mstore\n      dup1\n      0x00\n      dup1\n      not\n      and\n      dup2\n      mstore\n      0x20\n      add\n      and(sub(shl(0x40, 0x01), 0x01), 0x00)\n      dup2\n      mstore\n      0x20\n      add\n      tag_267\n      mload(0x40)\n      dup1\n      0x40\n      add\n      0x40\n      mstore\n      dup1\n      0x00\n      dup2\n      mstore\n      0x20\n      add\n      0x00\n      dup2\n      mstore\n      pop\n      swap1\n      jump\n    tag_267:\n      swap1\n      mstore\n      swap1\n      jump\t// out\n        /* \"#utility.yul\":14:168   */\n    tag_268:\n        /* \"#utility.yul\":73:78   */\n      0x00\n        /* \"#utility.yul\":118:120   */\n      0x60\n        /* \"#utility.yul\":109:115   */\n      dup3\n        /* \"#utility.yul\":104:107   */\n      dup5\n        /* \"#utility.yul\":100:116   */\n      sub\n        /* \"#utility.yul\":96:121   */\n      slt\n        /* \"#utility.yul\":93:138   */\n      iszero\n      tag_280\n      jumpi\n        /* \"#utility.yul\":134:135   */\n      0x00\n        /* \"#utility.yul\":131:132   */\n      dup1\n        /* \"#utility.yul\":124:136   */\n      revert\n        /* \"#utility.yul\":93:138   */\n    tag_280:\n      pop\n        /* \"#utility.yul\":156:162   */\n      swap2\n        /* \"#utility.yul\":14:168   */\n      swap1\n      pop\n      jump\t// out\n        /* \"#utility.yul\":173:520   */\n    tag_269:\n        /* \"#utility.yul\":224:232   */\n      0x00\n        /* \"#utility.yul\":234:240   */\n      dup1\n        /* \"#utility.yul\":288:291   */\n      dup4\n        /* \"#utility.yul\":281:285   */\n      0x1f\n        /* \"#utility.yul\":273:279   */\n      dup5\n        /* \"#utility.yul\":269:286   */\n      add\n        /* \"#utility.yul\":265:292   */\n      slt\n        /* \"#utility.yul\":255:310   */\n      tag_282\n      jumpi\n        /* \"#utility.yul\":306:307   */\n      0x00\n        /* \"#utility.yul\":303:304   */\n      dup1\n        /* \"#utility.yul\":296:308   */\n      revert\n        /* \"#utility.yul\":255:310   */\n    tag_282:\n      pop\n        /* \"#utility.yul\":329:349   */\n      dup2\n      calldataload\n      sub(shl(0x40, 0x01), 0x01)\n        /* \"#utility.yul\":361:391   */\n      dup2\n      gt\n        /* \"#utility.yul\":358:408   */\n      iszero\n      tag_283\n      jumpi\n        /* \"#utility.yul\":404:405   */\n      0x00\n        /* \"#utility.yul\":401:402   */\n      dup1\n        /* \"#utility.yul\":394:406   */\n      revert\n        /* \"#utility.yul\":358:408   */\n    tag_283:\n        /* \"#utility.yul\":441:445   */\n      0x20\n        /* \"#utility.yul\":433:439   */\n      dup4\n        /* \"#utility.yul\":429:446   */\n      add\n        /* \"#utility.yul\":417:446   */\n      swap2\n      pop\n        /* \"#utility.yul\":493:496   */\n      dup4\n        /* \"#utility.yul\":486:490   */\n      0x20\n        /* \"#utility.yul\":477:483   */\n      dup3\n        /* \"#utility.yul\":469:475   */\n      dup6\n        /* \"#utility.yul\":465:484   */\n      add\n        /* \"#utility.yul\":461:491   */\n      add\n        /* \"#utility.yul\":458:497   */\n      gt\n        /* \"#utility.yul\":455:514   */\n      iszero\n      tag_284\n      jumpi\n        /* \"#utility.yul\":510:511   */\n      0x00\n        /* \"#utility.yul\":507:508   */\n      dup1\n        /* \"#utility.yul\":500:512   */\n      revert\n        /* \"#utility.yul\":455:514   */\n    tag_284:\n        /* \"#utility.yul\":173:520   */\n      swap3\n      pop\n      swap3\n      swap1\n      pop\n      jump\t// out\n        /* \"#utility.yul\":525:656   */\n    tag_270:\n      sub(shl(0xa0, 0x01), 0x01)\n        /* \"#utility.yul\":600:631   */\n      dup2\n      and\n        /* \"#utility.yul\":590:632   */\n      dup2\n      eq\n        /* \"#utility.yul\":580:650   */\n      tag_199\n      jumpi\n        /* \"#utility.yul\":646:647   */\n      0x00\n        /* \"#utility.yul\":643:644   */\n      dup1\n        /* \"#utility.yul\":636:648   */\n      revert\n        /* \"#utility.yul\":661:1754   */\n    tag_26:\n        /* \"#utility.yul\":802:808   */\n      0x00\n        /* \"#utility.yul\":810:816   */\n      dup1\n        /* \"#utility.yul\":818:824   */\n      0x00\n        /* \"#utility.yul\":826:832   */\n      dup1\n        /* \"#utility.yul\":834:840   */\n      0x00\n        /* \"#utility.yul\":842:848   */\n      dup1\n        /* \"#utility.yul\":850:856   */\n      0x00\n        /* \"#utility.yul\":903:906   */\n      0xe0\n        /* \"#utility.yul\":891:900   */\n      dup9\n        /* \"#utility.yul\":882:889   */\n      dup11\n        /* \"#utility.yul\":878:901   */\n      sub\n        /* \"#utility.yul\":874:907   */\n      slt\n        /* \"#utility.yul\":871:924   */\n      iszero\n      tag_288\n      jumpi\n        /* \"#utility.yul\":920:921   */\n      0x00\n        /* \"#utility.yul\":917:918   */\n      dup1\n        /* \"#utility.yul\":910:922   */\n      revert\n        /* \"#utility.yul\":871:924   */\n    tag_288:\n        /* \"#utility.yul\":943:996   */\n      tag_289\n        /* \"#utility.yul\":988:995   */\n      dup10\n        /* \"#utility.yul\":977:986   */\n      dup10\n        /* \"#utility.yul\":943:996   */\n      tag_268\n      jump\t// in\n    tag_289:\n        /* \"#utility.yul\":933:996   */\n      swap7\n      pop\n        /* \"#utility.yul\":1065:1067   */\n      0x60\n        /* \"#utility.yul\":1050:1068   */\n      dup9\n      add\n        /* \"#utility.yul\":1037:1069   */\n      calldataload\n      swap6\n      pop\n        /* \"#utility.yul\":1144:1147   */\n      0x80\n        /* \"#utility.yul\":1129:1148   */\n      dup9\n      add\n        /* \"#utility.yul\":1116:1149   */\n      calldataload\n      sub(shl(0x40, 0x01), 0x01)\n        /* \"#utility.yul\":1161:1191   */\n      dup2\n      gt\n        /* \"#utility.yul\":1158:1208   */\n      iszero\n      tag_290\n      jumpi\n        /* \"#utility.yul\":1204:1205   */\n      0x00\n        /* \"#utility.yul\":1201:1202   */\n      dup1\n        /* \"#utility.yul\":1194:1206   */\n      revert\n        /* \"#utility.yul\":1158:1208   */\n    tag_290:\n        /* \"#utility.yul\":1243:1301   */\n      tag_291\n        /* \"#utility.yul\":1293:1300   */\n      dup11\n        /* \"#utility.yul\":1284:1290   */\n      dup3\n        /* \"#utility.yul\":1273:1282   */\n      dup12\n        /* \"#utility.yul\":1269:1291   */\n      add\n        /* \"#utility.yul\":1243:1301   */\n      tag_269\n      jump\t// in\n    tag_291:\n        /* \"#utility.yul\":1320:1328   */\n      swap1\n      swap7\n      pop\n        /* \"#utility.yul\":1217:1301   */\n      swap5\n      pop\n      pop\n        /* \"#utility.yul\":1407:1410   */\n      0xa0\n        /* \"#utility.yul\":1392:1411   */\n      dup9\n      add\n        /* \"#utility.yul\":1379:1412   */\n      calldataload\n        /* \"#utility.yul\":1421:1454   */\n      tag_292\n        /* \"#utility.yul\":1379:1412   */\n      dup2\n        /* \"#utility.yul\":1421:1454   */\n      tag_270\n      jump\t// in\n    tag_292:\n        /* \"#utility.yul\":1473:1480   */\n      swap3\n      pop\n        /* \"#utility.yul\":1533:1536   */\n      0xc0\n        /* \"#utility.yul\":1518:1537   */\n      dup9\n      add\n        /* \"#utility.yul\":1505:1538   */\n      calldataload\n      sub(shl(0x40, 0x01), 0x01)\n        /* \"#utility.yul\":1550:1582   */\n      dup2\n      gt\n        /* \"#utility.yul\":1547:1599   */\n      iszero\n      tag_293\n      jumpi\n        /* \"#utility.yul\":1595:1596   */\n      0x00\n        /* \"#utility.yul\":1592:1593   */\n      dup1\n        /* \"#utility.yul\":1585:1597   */\n      revert\n        /* \"#utility.yul\":1547:1599   */\n    tag_293:\n        /* \"#utility.yul\":1634:1694   */\n      tag_294\n        /* \"#utility.yul\":1686:1693   */\n      dup11\n        /* \"#utility.yul\":1675:1683   */\n      dup3\n        /* \"#utility.yul\":1664:1673   */\n      dup12\n        /* \"#utility.yul\":1660:1684   */\n      add\n        /* \"#utility.yul\":1634:1694   */\n      tag_269\n      jump\t// in\n    tag_294:\n        /* \"#utility.yul\":661:1754   */\n      swap9\n      swap12\n      swap8\n      swap11\n      pop\n      swap6\n      swap9\n      pop\n      swap4\n      swap7\n      swap3\n      swap6\n        /* \"#utility.yul\":1608:1694   */\n      swap3\n      swap4\n      pop\n      pop\n      pop\n        /* \"#utility.yul\":661:1754   */\n      jump\t// out\n        /* \"#utility.yul\":2058:2221   */\n    tag_271:\n        /* \"#utility.yul\":2125:2145   */\n      dup1\n      calldataload\n        /* \"#utility.yul\":2185:2195   */\n      0xffffffff\n        /* \"#utility.yul\":2174:2196   */\n      dup2\n      and\n        /* \"#utility.yul\":2164:2197   */\n      dup2\n      eq\n        /* \"#utility.yul\":2154:2215   */\n      tag_297\n      jumpi\n        /* \"#utility.yul\":2211:2212   */\n      0x00\n        /* \"#utility.yul\":2208:2209   */\n      dup1\n        /* \"#utility.yul\":2201:2213   */\n      revert\n        /* \"#utility.yul\":2154:2215   */\n    tag_297:\n        /* \"#utility.yul\":2058:2221   */\n      swap2\n      swap1\n      pop\n      jump\t// out\n        /* \"#utility.yul\":2226:2524   */\n    tag_36:\n        /* \"#utility.yul\":2293:2299   */\n      0x00\n        /* \"#utility.yul\":2301:2307   */\n      dup1\n        /* \"#utility.yul\":2354:2356   */\n      0x40\n        /* \"#utility.yul\":2342:2351   */\n      dup4\n        /* \"#utility.yul\":2333:2340   */\n      dup6\n        /* \"#utility.yul\":2329:2352   */\n      sub\n        /* \"#utility.yul\":2325:2357   */\n      slt\n        /* \"#utility.yul\":2322:2374   */\n      iszero\n      tag_299\n      jumpi\n        /* \"#utility.yul\":2370:2371   */\n      0x00\n        /* \"#utility.yul\":2367:2368   */\n      dup1\n        /* \"#utility.yul\":2360:2372   */\n      revert\n        /* \"#utility.yul\":2322:2374   */\n    tag_299:\n        /* \"#utility.yul\":2393:2421   */\n      tag_300\n        /* \"#utility.yul\":2411:2420   */\n      dup4\n        /* \"#utility.yul\":2393:2421   */\n      tag_271\n      jump\t// in\n    tag_300:\n        /* \"#utility.yul\":2383:2421   */\n      swap5\n        /* \"#utility.yul\":2490:2492   */\n      0x20\n        /* \"#utility.yul\":2475:2493   */\n      swap4\n      swap1\n      swap4\n      add\n        /* \"#utility.yul\":2462:2494   */\n      calldataload\n      swap4\n      pop\n      pop\n      pop\n        /* \"#utility.yul\":2226:2524   */\n      jump\t// out\n        /* \"#utility.yul\":2765:2892   */\n    tag_272:\n        /* \"#utility.yul\":2826:2836   */\n      0x4e487b71\n        /* \"#utility.yul\":2821:2824   */\n      0xe0\n        /* \"#utility.yul\":2817:2837   */\n      shl\n        /* \"#utility.yul\":2814:2815   */\n      0x00\n        /* \"#utility.yul\":2807:2838   */\n      mstore\n        /* \"#utility.yul\":2857:2861   */\n      0x41\n        /* \"#utility.yul\":2854:2855   */\n      0x04\n        /* \"#utility.yul\":2847:2862   */\n      mstore\n        /* \"#utility.yul\":2881:2885   */\n      0x24\n        /* \"#utility.yul\":2878:2879   */\n      0x00\n        /* \"#utility.yul\":2871:2886   */\n      revert\n        /* \"#utility.yul\":2897:3172   */\n    tag_273:\n        /* \"#utility.yul\":2968:2970   */\n      0x40\n        /* \"#utility.yul\":2962:2971   */\n      mload\n        /* \"#utility.yul\":3033:3035   */\n      0x1f\n        /* \"#utility.yul\":3014:3027   */\n      dup3\n      add\n      not(0x1f)\n        /* \"#utility.yul\":3010:3037   */\n      and\n        /* \"#utility.yul\":2998:3038   */\n      dup2\n      add\n      sub(shl(0x40, 0x01), 0x01)\n        /* \"#utility.yul\":3053:3087   */\n      dup2\n      gt\n        /* \"#utility.yul\":3089:3111   */\n      dup3\n      dup3\n      lt\n        /* \"#utility.yul\":3050:3112   */\n      or\n        /* \"#utility.yul\":3047:3135   */\n      iszero\n      tag_305\n      jumpi\n        /* \"#utility.yul\":3115:3133   */\n      tag_305\n      tag_272\n      jump\t// in\n    tag_305:\n        /* \"#utility.yul\":3151:3153   */\n      0x40\n        /* \"#utility.yul\":3144:3166   */\n      mstore\n        /* \"#utility.yul\":2897:3172   */\n      swap2\n      swap1\n      pop\n      jump\t// out\n        /* \"#utility.yul\":3177:3736   */\n    tag_274:\n        /* \"#utility.yul\":3220:3225   */\n      0x00\n        /* \"#utility.yul\":3273:3276   */\n      dup3\n        /* \"#utility.yul\":3266:3270   */\n      0x1f\n        /* \"#utility.yul\":3258:3264   */\n      dup4\n        /* \"#utility.yul\":3254:3271   */\n      add\n        /* \"#utility.yul\":3250:3277   */\n      slt\n        /* \"#utility.yul\":3240:3295   */\n      tag_307\n      jumpi\n        /* \"#utility.yul\":3291:3292   */\n      0x00\n        /* \"#utility.yul\":3288:3289   */\n      dup1\n        /* \"#utility.yul\":3281:3293   */\n      revert\n        /* \"#utility.yul\":3240:3295   */\n    tag_307:\n        /* \"#utility.yul\":3331:3337   */\n      dup2\n        /* \"#utility.yul\":3318:3338   */\n      calldataload\n      sub(shl(0x40, 0x01), 0x01)\n        /* \"#utility.yul\":3353:3359   */\n      dup2\n        /* \"#utility.yul\":3350:3380   */\n      gt\n        /* \"#utility.yul\":3347:3403   */\n      iszero\n      tag_309\n      jumpi\n        /* \"#utility.yul\":3383:3401   */\n      tag_309\n      tag_272\n      jump\t// in\n    tag_309:\n        /* \"#utility.yul\":3427:3486   */\n      tag_310\n        /* \"#utility.yul\":3474:3476   */\n      0x1f\n        /* \"#utility.yul\":3451:3468   */\n      dup3\n      add\n      not(0x1f)\n        /* \"#utility.yul\":3447:3478   */\n      and\n        /* \"#utility.yul\":3480:3484   */\n      0x20\n        /* \"#utility.yul\":3443:3485   */\n      add\n        /* \"#utility.yul\":3427:3486   */\n      tag_273\n      jump\t// in\n    tag_310:\n        /* \"#utility.yul\":3511:3517   */\n      dup2\n        /* \"#utility.yul\":3502:3509   */\n      dup2\n        /* \"#utility.yul\":3495:3518   */\n      mstore\n        /* \"#utility.yul\":3565:3568   */\n      dup5\n        /* \"#utility.yul\":3558:3562   */\n      0x20\n        /* \"#utility.yul\":3549:3555   */\n      dup4\n        /* \"#utility.yul\":3541:3547   */\n      dup7\n        /* \"#utility.yul\":3537:3556   */\n      add\n        /* \"#utility.yul\":3533:3563   */\n      add\n        /* \"#utility.yul\":3530:3569   */\n      gt\n        /* \"#utility.yul\":3527:3586   */\n      iszero\n      tag_311\n      jumpi\n        /* \"#utility.yul\":3582:3583   */\n      0x00\n        /* \"#utility.yul\":3579:3580   */\n      dup1\n        /* \"#utility.yul\":3572:3584   */\n      revert\n        /* \"#utility.yul\":3527:3586   */\n    tag_311:\n        /* \"#utility.yul\":3647:3653   */\n      dup2\n        /* \"#utility.yul\":3640:3644   */\n      0x20\n        /* \"#utility.yul\":3632:3638   */\n      dup6\n        /* \"#utility.yul\":3628:3645   */\n      add\n        /* \"#utility.yul\":3621:3625   */\n      0x20\n        /* \"#utility.yul\":3612:3619   */\n      dup4\n        /* \"#utility.yul\":3608:3626   */\n      add\n        /* \"#utility.yul\":3595:3654   */\n      calldatacopy\n        /* \"#utility.yul\":3703:3704   */\n      0x00\n        /* \"#utility.yul\":3674:3694   */\n      swap2\n      dup2\n      add\n        /* \"#utility.yul\":3696:3700   */\n      0x20\n        /* \"#utility.yul\":3670:3701   */\n      add\n        /* \"#utility.yul\":3663:3705   */\n      swap2\n      swap1\n      swap2\n      mstore\n        /* \"#utility.yul\":3678:3685   */\n      swap4\n        /* \"#utility.yul\":3177:3736   */\n      swap3\n      pop\n      pop\n      pop\n      jump\t// out\n        /* \"#utility.yul\":3741:4620   */\n    tag_275:\n        /* \"#utility.yul\":3794:3799   */\n      0x00\n        /* \"#utility.yul\":3847:3850   */\n      dup3\n        /* \"#utility.yul\":3840:3844   */\n      0x1f\n        /* \"#utility.yul\":3832:3838   */\n      dup4\n        /* \"#utility.yul\":3828:3845   */\n      add\n        /* \"#utility.yul\":3824:3851   */\n      slt\n        /* \"#utility.yul\":3814:3869   */\n      tag_313\n      jumpi\n        /* \"#utility.yul\":3865:3866   */\n      0x00\n        /* \"#utility.yul\":3862:3863   */\n      dup1\n        /* \"#utility.yul\":3855:3867   */\n      revert\n        /* \"#utility.yul\":3814:3869   */\n    tag_313:\n        /* \"#utility.yul\":3905:3911   */\n      dup2\n        /* \"#utility.yul\":3892:3912   */\n      calldataload\n      sub(shl(0x40, 0x01), 0x01)\n        /* \"#utility.yul\":3927:3933   */\n      dup2\n        /* \"#utility.yul\":3924:3954   */\n      gt\n        /* \"#utility.yul\":3921:3977   */\n      iszero\n      tag_315\n      jumpi\n        /* \"#utility.yul\":3957:3975   */\n      tag_315\n      tag_272\n      jump\t// in\n    tag_315:\n        /* \"#utility.yul\":4003:4009   */\n      dup1\n        /* \"#utility.yul\":4000:4001   */\n      0x05\n        /* \"#utility.yul\":3996:4010   */\n      shl\n        /* \"#utility.yul\":4030:4060   */\n      tag_316\n        /* \"#utility.yul\":4054:4058   */\n      0x20\n        /* \"#utility.yul\":4050:4052   */\n      dup3\n        /* \"#utility.yul\":4046:4059   */\n      add\n        /* \"#utility.yul\":4030:4060   */\n      tag_273\n      jump\t// in\n    tag_316:\n        /* \"#utility.yul\":4096:4115   */\n      swap2\n      dup3\n      mstore\n        /* \"#utility.yul\":4140:4144   */\n      0x20\n        /* \"#utility.yul\":4172:4187   */\n      dup2\n      dup6\n      add\n        /* \"#utility.yul\":4168:4194   */\n      dup2\n      add\n      swap3\n        /* \"#utility.yul\":4131:4145   */\n      swap1\n      dup2\n      add\n      swap1\n        /* \"#utility.yul\":4206:4221   */\n      dup7\n      dup5\n      gt\n        /* \"#utility.yul\":4203:4238   */\n      iszero\n      tag_317\n      jumpi\n        /* \"#utility.yul\":4234:4235   */\n      0x00\n        /* \"#utility.yul\":4231:4232   */\n      dup1\n        /* \"#utility.yul\":4224:4236   */\n      revert\n        /* \"#utility.yul\":4203:4238   */\n    tag_317:\n        /* \"#utility.yul\":4270:4274   */\n      0x20\n        /* \"#utility.yul\":4262:4268   */\n      dup7\n        /* \"#utility.yul\":4258:4275   */\n      add\n        /* \"#utility.yul\":4247:4275   */\n      swap3\n      pop\n        /* \"#utility.yul\":4284:4589   */\n    tag_318:\n        /* \"#utility.yul\":4300:4306   */\n      dup4\n        /* \"#utility.yul\":4295:4298   */\n      dup4\n        /* \"#utility.yul\":4292:4307   */\n      lt\n        /* \"#utility.yul\":4284:4589   */\n      iszero\n      tag_320\n      jumpi\n        /* \"#utility.yul\":4388:4391   */\n      dup3\n        /* \"#utility.yul\":4375:4392   */\n      calldataload\n      sub(shl(0x40, 0x01), 0x01)\n        /* \"#utility.yul\":4411:4422   */\n      dup2\n        /* \"#utility.yul\":4408:4443   */\n      gt\n        /* \"#utility.yul\":4405:4460   */\n      iszero\n      tag_321\n      jumpi\n        /* \"#utility.yul\":4456:4457   */\n      0x00\n        /* \"#utility.yul\":4453:4454   */\n      dup1\n        /* \"#utility.yul\":4446:4458   */\n      revert\n        /* \"#utility.yul\":4405:4460   */\n    tag_321:\n        /* \"#utility.yul\":4485:4544   */\n      tag_322\n        /* \"#utility.yul\":4540:4543   */\n      dup9\n        /* \"#utility.yul\":4533:4537   */\n      0x20\n        /* \"#utility.yul\":4519:4530   */\n      dup4\n        /* \"#utility.yul\":4511:4517   */\n      dup11\n        /* \"#utility.yul\":4507:4531   */\n      add\n        /* \"#utility.yul\":4503:4538   */\n      add\n        /* \"#utility.yul\":4485:4544   */\n      tag_274\n      jump\t// in\n    tag_322:\n        /* \"#utility.yul\":4473:4545   */\n      dup4\n      mstore\n      pop\n        /* \"#utility.yul\":4574:4578   */\n      0x20\n        /* \"#utility.yul\":4317:4331   */\n      swap3\n      dup4\n      add\n      swap3\n        /* \"#utility.yul\":4565:4579   */\n      swap1\n      swap2\n      add\n      swap1\n        /* \"#utility.yul\":4284:4589   */\n      jump(tag_318)\n    tag_320:\n        /* \"#utility.yul\":4607:4614   */\n      swap7\n        /* \"#utility.yul\":3741:4620   */\n      swap6\n      pop\n      pop\n      pop\n      pop\n      pop\n      pop\n      jump\t// out\n        /* \"#utility.yul\":4625:5906   */\n    tag_45:\n        /* \"#utility.yul\":4794:4800   */\n      0x00\n        /* \"#utility.yul\":4802:4808   */\n      dup1\n        /* \"#utility.yul\":4810:4816   */\n      0x00\n        /* \"#utility.yul\":4818:4824   */\n      dup1\n        /* \"#utility.yul\":4826:4832   */\n      0x00\n        /* \"#utility.yul\":4834:4840   */\n      dup1\n        /* \"#utility.yul\":4842:4848   */\n      0x00\n        /* \"#utility.yul\":4895:4898   */\n      0xc0\n        /* \"#utility.yul\":4883:4892   */\n      dup9\n        /* \"#utility.yul\":4874:4881   */\n      dup11\n        /* \"#utility.yul\":4870:4893   */\n      sub\n        /* \"#utility.yul\":4866:4899   */\n      slt\n        /* \"#utility.yul\":4863:4916   */\n      iszero\n      tag_324\n      jumpi\n        /* \"#utility.yul\":4912:4913   */\n      0x00\n        /* \"#utility.yul\":4909:4910   */\n      dup1\n        /* \"#utility.yul\":4902:4914   */\n      revert\n        /* \"#utility.yul\":4863:4916   */\n    tag_324:\n        /* \"#utility.yul\":4935:4963   */\n      tag_325\n        /* \"#utility.yul\":4953:4962   */\n      dup9\n        /* \"#utility.yul\":4935:4963   */\n      tag_271\n      jump\t// in\n    tag_325:\n        /* \"#utility.yul\":4925:4963   */\n      swap7\n      pop\n        /* \"#utility.yul\":5014:5016   */\n      0x20\n        /* \"#utility.yul\":5003:5012   */\n      dup9\n        /* \"#utility.yul\":4999:5017   */\n      add\n        /* \"#utility.yul\":4986:5018   */\n      calldataload\n      sub(shl(0x40, 0x01), 0x01)\n        /* \"#utility.yul\":5033:5039   */\n      dup2\n        /* \"#utility.yul\":5030:5060   */\n      gt\n        /* \"#utility.yul\":5027:5077   */\n      iszero\n      tag_326\n      jumpi\n        /* \"#utility.yul\":5073:5074   */\n      0x00\n        /* \"#utility.yul\":5070:5071   */\n      dup1\n        /* \"#utility.yul\":5063:5075   */\n      revert\n        /* \"#utility.yul\":5027:5077   */\n    tag_326:\n        /* \"#utility.yul\":5096:5146   */\n      tag_327\n        /* \"#utility.yul\":5138:5145   */\n      dup11\n        /* \"#utility.yul\":5129:5135   */\n      dup3\n        /* \"#utility.yul\":5118:5127   */\n      dup12\n        /* \"#utility.yul\":5114:5136   */\n      add\n        /* \"#utility.yul\":5096:5146   */\n      tag_274\n      jump\t// in\n    tag_327:\n        /* \"#utility.yul\":5086:5146   */\n      swap7\n      pop\n      pop\n        /* \"#utility.yul\":5199:5201   */\n      0x40\n        /* \"#utility.yul\":5188:5197   */\n      dup9\n        /* \"#utility.yul\":5184:5202   */\n      add\n        /* \"#utility.yul\":5171:5203   */\n      calldataload\n      sub(shl(0x40, 0x01), 0x01)\n        /* \"#utility.yul\":5218:5226   */\n      dup2\n        /* \"#utility.yul\":5215:5247   */\n      gt\n        /* \"#utility.yul\":5212:5264   */\n      iszero\n      tag_328\n      jumpi\n        /* \"#utility.yul\":5260:5261   */\n      0x00\n        /* \"#utility.yul\":5257:5258   */\n      dup1\n        /* \"#utility.yul\":5250:5262   */\n      revert\n        /* \"#utility.yul\":5212:5264   */\n    tag_328:\n        /* \"#utility.yul\":5283:5345   */\n      tag_329\n        /* \"#utility.yul\":5337:5344   */\n      dup11\n        /* \"#utility.yul\":5326:5334   */\n      dup3\n        /* \"#utility.yul\":5315:5324   */\n      dup12\n        /* \"#utility.yul\":5311:5335   */\n      add\n        /* \"#utility.yul\":5283:5345   */\n      tag_275\n      jump\t// in\n    tag_329:\n        /* \"#utility.yul\":5273:5345   */\n      swap6\n      pop\n      pop\n        /* \"#utility.yul\":5398:5400   */\n      0x60\n        /* \"#utility.yul\":5387:5396   */\n      dup9\n        /* \"#utility.yul\":5383:5401   */\n      add\n        /* \"#utility.yul\":5370:5402   */\n      calldataload\n      sub(shl(0x40, 0x01), 0x01)\n        /* \"#utility.yul\":5417:5425   */\n      dup2\n        /* \"#utility.yul\":5414:5446   */\n      gt\n        /* \"#utility.yul\":5411:5463   */\n      iszero\n      tag_330\n      jumpi\n        /* \"#utility.yul\":5459:5460   */\n      0x00\n        /* \"#utility.yul\":5456:5457   */\n      dup1\n        /* \"#utility.yul\":5449:5461   */\n      revert\n        /* \"#utility.yul\":5411:5463   */\n    tag_330:\n        /* \"#utility.yul\":5482:5534   */\n      tag_331\n        /* \"#utility.yul\":5526:5533   */\n      dup11\n        /* \"#utility.yul\":5515:5523   */\n      dup3\n        /* \"#utility.yul\":5504:5513   */\n      dup12\n        /* \"#utility.yul\":5500:5524   */\n      add\n        /* \"#utility.yul\":5482:5534   */\n      tag_274\n      jump\t// in\n    tag_331:\n        /* \"#utility.yul\":5472:5534   */\n      swap5\n      pop\n      pop\n        /* \"#utility.yul\":5603:5606   */\n      0x80\n        /* \"#utility.yul\":5588:5607   */\n      dup9\n      add\n        /* \"#utility.yul\":5575:5608   */\n      calldataload\n      swap3\n      pop\n        /* \"#utility.yul\":5685:5688   */\n      0xa0\n        /* \"#utility.yul\":5670:5689   */\n      dup9\n      add\n        /* \"#utility.yul\":5657:5690   */\n      calldataload\n      sub(shl(0x40, 0x01), 0x01)\n        /* \"#utility.yul\":5702:5734   */\n      dup2\n      gt\n        /* \"#utility.yul\":5699:5751   */\n      iszero\n      tag_293\n      jumpi\n        /* \"#utility.yul\":5747:5748   */\n      0x00\n        /* \"#utility.yul\":5744:5745   */\n      dup1\n        /* \"#utility.yul\":5737:5749   */\n      revert\n        /* \"#utility.yul\":5911:7077   */\n    tag_50:\n        /* \"#utility.yul\":6071:6077   */\n      0x00\n        /* \"#utility.yul\":6079:6085   */\n      dup1\n        /* \"#utility.yul\":6087:6093   */\n      0x00\n        /* \"#utility.yul\":6095:6101   */\n      dup1\n        /* \"#utility.yul\":6103:6109   */\n      0x00\n        /* \"#utility.yul\":6111:6117   */\n      dup1\n        /* \"#utility.yul\":6164:6167   */\n      0xa0\n        /* \"#utility.yul\":6152:6161   */\n      dup8\n        /* \"#utility.yul\":6143:6150   */\n      dup10\n        /* \"#utility.yul\":6139:6162   */\n      sub\n        /* \"#utility.yul\":6135:6168   */\n      slt\n        /* \"#utility.yul\":6132:6185   */\n      iszero\n      tag_335\n      jumpi\n        /* \"#utility.yul\":6181:6182   */\n      0x00\n        /* \"#utility.yul\":6178:6179   */\n      dup1\n        /* \"#utility.yul\":6171:6183   */\n      revert\n        /* \"#utility.yul\":6132:6185   */\n    tag_335:\n        /* \"#utility.yul\":6204:6232   */\n      tag_336\n        /* \"#utility.yul\":6222:6231   */\n      dup8\n        /* \"#utility.yul\":6204:6232   */\n      tag_271\n      jump\t// in\n    tag_336:\n        /* \"#utility.yul\":6194:6232   */\n      swap6\n      pop\n        /* \"#utility.yul\":6283:6285   */\n      0x20\n        /* \"#utility.yul\":6272:6281   */\n      dup8\n        /* \"#utility.yul\":6268:6286   */\n      add\n        /* \"#utility.yul\":6255:6287   */\n      calldataload\n      sub(shl(0x40, 0x01), 0x01)\n        /* \"#utility.yul\":6302:6308   */\n      dup2\n        /* \"#utility.yul\":6299:6329   */\n      gt\n        /* \"#utility.yul\":6296:6346   */\n      iszero\n      tag_337\n      jumpi\n        /* \"#utility.yul\":6342:6343   */\n      0x00\n        /* \"#utility.yul\":6339:6340   */\n      dup1\n        /* \"#utility.yul\":6332:6344   */\n      revert\n        /* \"#utility.yul\":6296:6346   */\n    tag_337:\n        /* \"#utility.yul\":6365:6415   */\n      tag_338\n        /* \"#utility.yul\":6407:6414   */\n      dup10\n        /* \"#utility.yul\":6398:6404   */\n      dup3\n        /* \"#utility.yul\":6387:6396   */\n      dup11\n        /* \"#utility.yul\":6383:6405   */\n      add\n        /* \"#utility.yul\":6365:6415   */\n      tag_274\n      jump\t// in\n    tag_338:\n        /* \"#utility.yul\":6355:6415   */\n      swap6\n      pop\n      pop\n        /* \"#utility.yul\":6468:6470   */\n      0x40\n        /* \"#utility.yul\":6457:6466   */\n      dup8\n        /* \"#utility.yul\":6453:6471   */\n      add\n        /* \"#utility.yul\":6440:6472   */\n      calldataload\n      sub(shl(0x40, 0x01), 0x01)\n        /* \"#utility.yul\":6487:6495   */\n      dup2\n        /* \"#utility.yul\":6484:6516   */\n      gt\n        /* \"#utility.yul\":6481:6533   */\n      iszero\n      tag_339\n      jumpi\n        /* \"#utility.yul\":6529:6530   */\n      0x00\n        /* \"#utility.yul\":6526:6527   */\n      dup1\n        /* \"#utility.yul\":6519:6531   */\n      revert\n        /* \"#utility.yul\":6481:6533   */\n    tag_339:\n        /* \"#utility.yul\":6552:6614   */\n      tag_340\n        /* \"#utility.yul\":6606:6613   */\n      dup10\n        /* \"#utility.yul\":6595:6603   */\n      dup3\n        /* \"#utility.yul\":6584:6593   */\n      dup11\n        /* \"#utility.yul\":6580:6604   */\n      add\n        /* \"#utility.yul\":6552:6614   */\n      tag_275\n      jump\t// in\n    tag_340:\n        /* \"#utility.yul\":6542:6614   */\n      swap5\n      pop\n      pop\n        /* \"#utility.yul\":6667:6669   */\n      0x60\n        /* \"#utility.yul\":6656:6665   */\n      dup8\n        /* \"#utility.yul\":6652:6670   */\n      add\n        /* \"#utility.yul\":6639:6671   */\n      calldataload\n      sub(shl(0x40, 0x01), 0x01)\n        /* \"#utility.yul\":6686:6694   */\n      dup2\n        /* \"#utility.yul\":6683:6715   */\n      gt\n        /* \"#utility.yul\":6680:6732   */\n      iszero\n      tag_341\n      jumpi\n        /* \"#utility.yul\":6728:6729   */\n      0x00\n        /* \"#utility.yul\":6725:6726   */\n      dup1\n        /* \"#utility.yul\":6718:6730   */\n      revert\n        /* \"#utility.yul\":6680:6732   */\n    tag_341:\n        /* \"#utility.yul\":6751:6803   */\n      tag_342\n        /* \"#utility.yul\":6795:6802   */\n      dup10\n        /* \"#utility.yul\":6784:6792   */\n      dup3\n        /* \"#utility.yul\":6773:6782   */\n      dup11\n        /* \"#utility.yul\":6769:6793   */\n      add\n        /* \"#utility.yul\":6751:6803   */\n      tag_274\n      jump\t// in\n    tag_342:\n        /* \"#utility.yul\":6741:6803   */\n      swap4\n      pop\n      pop\n        /* \"#utility.yul\":6856:6859   */\n      0x80\n        /* \"#utility.yul\":6845:6854   */\n      dup8\n        /* \"#utility.yul\":6841:6860   */\n      add\n        /* \"#utility.yul\":6828:6861   */\n      calldataload\n      sub(shl(0x40, 0x01), 0x01)\n        /* \"#utility.yul\":6876:6884   */\n      dup2\n        /* \"#utility.yul\":6873:6905   */\n      gt\n        /* \"#utility.yul\":6870:6922   */\n      iszero\n      tag_343\n      jumpi\n        /* \"#utility.yul\":6918:6919   */\n      0x00\n        /* \"#utility.yul\":6915:6916   */\n      dup1\n        /* \"#utility.yul\":6908:6920   */\n      revert\n        /* \"#utility.yul\":6870:6922   */\n    tag_343:\n        /* \"#utility.yul\":6957:7017   */\n      tag_344\n        /* \"#utility.yul\":7009:7016   */\n      dup10\n        /* \"#utility.yul\":6998:7006   */\n      dup3\n        /* \"#utility.yul\":6987:6996   */\n      dup11\n        /* \"#utility.yul\":6983:7007   */\n      add\n        /* \"#utility.yul\":6957:7017   */\n      tag_269\n      jump\t// in\n    tag_344:\n        /* \"#utility.yul\":5911:7077   */\n      swap8\n      swap11\n      swap7\n      swap10\n      pop\n      swap5\n      swap8\n      pop\n      swap3\n      swap6\n        /* \"#utility.yul\":7036:7044   */\n      swap4\n      swap5\n        /* \"#utility.yul\":5911:7077   */\n      swap3\n      pop\n      pop\n      pop\n      jump\t// out\n        /* \"#utility.yul\":7595:8263   */\n    tag_66:\n        /* \"#utility.yul\":7707:7713   */\n      0x00\n        /* \"#utility.yul\":7715:7721   */\n      dup1\n        /* \"#utility.yul\":7723:7729   */\n      0x00\n        /* \"#utility.yul\":7731:7737   */\n      dup1\n        /* \"#utility.yul\":7784:7787   */\n      0xa0\n        /* \"#utility.yul\":7772:7781   */\n      dup6\n        /* \"#utility.yul\":7763:7770   */\n      dup8\n        /* \"#utility.yul\":7759:7782   */\n      sub\n        /* \"#utility.yul\":7755:7788   */\n      slt\n        /* \"#utility.yul\":7752:7805   */\n      iszero\n      tag_348\n      jumpi\n        /* \"#utility.yul\":7801:7802   */\n      0x00\n        /* \"#utility.yul\":7798:7799   */\n      dup1\n        /* \"#utility.yul\":7791:7803   */\n      revert\n        /* \"#utility.yul\":7752:7805   */\n    tag_348:\n        /* \"#utility.yul\":7824:7877   */\n      tag_349\n        /* \"#utility.yul\":7869:7876   */\n      dup7\n        /* \"#utility.yul\":7858:7867   */\n      dup7\n        /* \"#utility.yul\":7824:7877   */\n      tag_268\n      jump\t// in\n    tag_349:\n        /* \"#utility.yul\":7814:7877   */\n      swap4\n      pop\n        /* \"#utility.yul\":7928:7930   */\n      0x60\n        /* \"#utility.yul\":7917:7926   */\n      dup6\n        /* \"#utility.yul\":7913:7931   */\n      add\n        /* \"#utility.yul\":7900:7932   */\n      calldataload\n      sub(shl(0x40, 0x01), 0x01)\n        /* \"#utility.yul\":7947:7953   */\n      dup2\n        /* \"#utility.yul\":7944:7974   */\n      gt\n        /* \"#utility.yul\":7941:7991   */\n      iszero\n      tag_350\n      jumpi\n        /* \"#utility.yul\":7987:7988   */\n      0x00\n        /* \"#utility.yul\":7984:7985   */\n      dup1\n        /* \"#utility.yul\":7977:7989   */\n      revert\n        /* \"#utility.yul\":7941:7991   */\n    tag_350:\n        /* \"#utility.yul\":8026:8084   */\n      tag_351\n        /* \"#utility.yul\":8076:8083   */\n      dup8\n        /* \"#utility.yul\":8067:8073   */\n      dup3\n        /* \"#utility.yul\":8056:8065   */\n      dup9\n        /* \"#utility.yul\":8052:8074   */\n      add\n        /* \"#utility.yul\":8026:8084   */\n      tag_269\n      jump\t// in\n    tag_351:\n        /* \"#utility.yul\":8103:8111   */\n      swap1\n      swap5\n      pop\n        /* \"#utility.yul\":8000:8084   */\n      swap3\n      pop\n      pop\n        /* \"#utility.yul\":8188:8191   */\n      0x80\n        /* \"#utility.yul\":8173:8192   */\n      dup6\n      add\n        /* \"#utility.yul\":8160:8193   */\n      calldataload\n        /* \"#utility.yul\":8202:8233   */\n      tag_352\n        /* \"#utility.yul\":8160:8193   */\n      dup2\n        /* \"#utility.yul\":8202:8233   */\n      tag_270\n      jump\t// in\n    tag_352:\n        /* \"#utility.yul\":7595:8263   */\n      swap4\n      swap7\n      swap3\n      swap6\n      pop\n      swap1\n      swap4\n      pop\n      pop\n      jump\t// out\n        /* \"#utility.yul\":8668:9035   */\n    tag_78:\n        /* \"#utility.yul\":8736:8742   */\n      0x00\n        /* \"#utility.yul\":8744:8750   */\n      dup1\n        /* \"#utility.yul\":8797:8799   */\n      0x40\n        /* \"#utility.yul\":8785:8794   */\n      dup4\n        /* \"#utility.yul\":8776:8783   */\n      dup6\n        /* \"#utility.yul\":8772:8795   */\n      sub\n        /* \"#utility.yul\":8768:8800   */\n      slt\n        /* \"#utility.yul\":8765:8817   */\n      iszero\n      tag_356\n      jumpi\n        /* \"#utility.yul\":8813:8814   */\n      0x00\n        /* \"#utility.yul\":8810:8811   */\n      dup1\n        /* \"#utility.yul\":8803:8815   */\n      revert\n        /* \"#utility.yul\":8765:8817   */\n    tag_356:\n        /* \"#utility.yul\":8852:8861   */\n      dup3\n        /* \"#utility.yul\":8839:8862   */\n      calldataload\n        /* \"#utility.yul\":8871:8902   */\n      tag_300\n        /* \"#utility.yul\":8896:8901   */\n      dup2\n        /* \"#utility.yul\":8871:8902   */\n      tag_270\n      jump\t// in\n        /* \"#utility.yul\":9040:9224   */\n    tag_83:\n        /* \"#utility.yul\":9098:9104   */\n      0x00\n        /* \"#utility.yul\":9151:9153   */\n      0x20\n        /* \"#utility.yul\":9139:9148   */\n      dup3\n        /* \"#utility.yul\":9130:9137   */\n      dup5\n        /* \"#utility.yul\":9126:9149   */\n      sub\n        /* \"#utility.yul\":9122:9154   */\n      slt\n        /* \"#utility.yul\":9119:9171   */\n      iszero\n      tag_359\n      jumpi\n        /* \"#utility.yul\":9167:9168   */\n      0x00\n        /* \"#utility.yul\":9164:9165   */\n      dup1\n        /* \"#utility.yul\":9157:9169   */\n      revert\n        /* \"#utility.yul\":9119:9171   */\n    tag_359:\n        /* \"#utility.yul\":9190:9218   */\n      tag_360\n        /* \"#utility.yul\":9208:9217   */\n      dup3\n        /* \"#utility.yul\":9190:9218   */\n      tag_271\n      jump\t// in\n    tag_360:\n        /* \"#utility.yul\":9180:9218   */\n      swap4\n        /* \"#utility.yul\":9040:9224   */\n      swap3\n      pop\n      pop\n      pop\n      jump\t// out\n        /* \"#utility.yul\":9411:9658   */\n    tag_90:\n        /* \"#utility.yul\":9470:9476   */\n      0x00\n        /* \"#utility.yul\":9523:9525   */\n      0x20\n        /* \"#utility.yul\":9511:9520   */\n      dup3\n        /* \"#utility.yul\":9502:9509   */\n      dup5\n        /* \"#utility.yul\":9498:9521   */\n      sub\n        /* \"#utility.yul\":9494:9526   */\n      slt\n        /* \"#utility.yul\":9491:9543   */\n      iszero\n      tag_363\n      jumpi\n        /* \"#utility.yul\":9539:9540   */\n      0x00\n        /* \"#utility.yul\":9536:9537   */\n      dup1\n        /* \"#utility.yul\":9529:9541   */\n      revert\n        /* \"#utility.yul\":9491:9543   */\n    tag_363:\n        /* \"#utility.yul\":9578:9587   */\n      dup2\n        /* \"#utility.yul\":9565:9588   */\n      calldataload\n        /* \"#utility.yul\":9597:9628   */\n      tag_360\n        /* \"#utility.yul\":9622:9627   */\n      dup2\n        /* \"#utility.yul\":9597:9628   */\n      tag_270\n      jump\t// in\n        /* \"#utility.yul\":9886:10120   */\n    tag_104:\n        /* \"#utility.yul\":9969:9975   */\n      0x00\n        /* \"#utility.yul\":10022:10024   */\n      0x60\n        /* \"#utility.yul\":10010:10019   */\n      dup3\n        /* \"#utility.yul\":10001:10008   */\n      dup5\n        /* \"#utility.yul\":9997:10020   */\n      sub\n        /* \"#utility.yul\":9993:10025   */\n      slt\n        /* \"#utility.yul\":9990:10042   */\n      iszero\n      tag_367\n      jumpi\n        /* \"#utility.yul\":10038:10039   */\n      0x00\n        /* \"#utility.yul\":10035:10036   */\n      dup1\n        /* \"#utility.yul\":10028:10040   */\n      revert\n        /* \"#utility.yul\":9990:10042   */\n    tag_367:\n        /* \"#utility.yul\":10061:10114   */\n      tag_360\n        /* \"#utility.yul\":10106:10113   */\n      dup4\n        /* \"#utility.yul\":10095:10104   */\n      dup4\n        /* \"#utility.yul\":10061:10114   */\n      tag_268\n      jump\t// in\n        /* \"#utility.yul\":11791:12068   */\n    tag_144:\n        /* \"#utility.yul\":11858:11864   */\n      0x00\n        /* \"#utility.yul\":11911:11913   */\n      0x20\n        /* \"#utility.yul\":11899:11908   */\n      dup3\n        /* \"#utility.yul\":11890:11897   */\n      dup5\n        /* \"#utility.yul\":11886:11909   */\n      sub\n        /* \"#utility.yul\":11882:11914   */\n      slt\n        /* \"#utility.yul\":11879:11931   */\n      iszero\n      tag_375\n      jumpi\n        /* \"#utility.yul\":11927:11928   */\n      0x00\n        /* \"#utility.yul\":11924:11925   */\n      dup1\n        /* \"#utility.yul\":11917:11929   */\n      revert\n        /* \"#utility.yul\":11879:11931   */\n    tag_375:\n        /* \"#utility.yul\":11959:11968   */\n      dup2\n        /* \"#utility.yul\":11953:11969   */\n      mload\n        /* \"#utility.yul\":12012:12017   */\n      dup1\n        /* \"#utility.yul\":12005:12018   */\n      iszero\n        /* \"#utility.yul\":11998:12019   */\n      iszero\n        /* \"#utility.yul\":11991:11996   */\n      dup2\n        /* \"#utility.yul\":11988:12020   */\n      eq\n        /* \"#utility.yul\":11978:12038   */\n      tag_360\n      jumpi\n        /* \"#utility.yul\":12034:12035   */\n      0x00\n        /* \"#utility.yul\":12031:12032   */\n      dup1\n        /* \"#utility.yul\":12024:12036   */\n      revert\n        /* \"#utility.yul\":12422:12822   */\n    tag_276:\n        /* \"#utility.yul\":12464:12467   */\n      0x00\n        /* \"#utility.yul\":12502:12507   */\n      dup2\n        /* \"#utility.yul\":12496:12508   */\n      mload\n        /* \"#utility.yul\":12529:12535   */\n      dup1\n        /* \"#utility.yul\":12524:12527   */\n      dup5\n        /* \"#utility.yul\":12517:12536   */\n      mstore\n        /* \"#utility.yul\":12554:12555   */\n      0x00\n        /* \"#utility.yul\":12564:12703   */\n    tag_379:\n        /* \"#utility.yul\":12578:12584   */\n      dup2\n        /* \"#utility.yul\":12575:12576   */\n      dup2\n        /* \"#utility.yul\":12572:12585   */\n      lt\n        /* \"#utility.yul\":12564:12703   */\n      iszero\n      tag_381\n      jumpi\n        /* \"#utility.yul\":12686:12690   */\n      0x20\n        /* \"#utility.yul\":12671:12684   */\n      dup2\n      dup6\n      add\n        /* \"#utility.yul\":12667:12691   */\n      dup2\n      add\n        /* \"#utility.yul\":12661:12692   */\n      mload\n        /* \"#utility.yul\":12641:12652   */\n      dup7\n      dup4\n      add\n        /* \"#utility.yul\":12637:12659   */\n      dup3\n      add\n        /* \"#utility.yul\":12630:12693   */\n      mstore\n        /* \"#utility.yul\":12593:12605   */\n      add\n        /* \"#utility.yul\":12564:12703   */\n      jump(tag_379)\n    tag_381:\n        /* \"#utility.yul\":12568:12571   */\n      pop\n        /* \"#utility.yul\":12748:12749   */\n      0x00\n        /* \"#utility.yul\":12741:12745   */\n      0x20\n        /* \"#utility.yul\":12732:12738   */\n      dup3\n        /* \"#utility.yul\":12727:12730   */\n      dup7\n        /* \"#utility.yul\":12723:12739   */\n      add\n        /* \"#utility.yul\":12719:12746   */\n      add\n        /* \"#utility.yul\":12712:12750   */\n      mstore\n        /* \"#utility.yul\":12811:12815   */\n      0x20\n        /* \"#utility.yul\":12804:12806   */\n      0x1f\n        /* \"#utility.yul\":12800:12807   */\n      not\n        /* \"#utility.yul\":12795:12797   */\n      0x1f\n        /* \"#utility.yul\":12787:12793   */\n      dup4\n        /* \"#utility.yul\":12783:12798   */\n      add\n        /* \"#utility.yul\":12779:12808   */\n      and\n        /* \"#utility.yul\":12774:12777   */\n      dup6\n        /* \"#utility.yul\":12770:12809   */\n      add\n        /* \"#utility.yul\":12766:12816   */\n      add\n        /* \"#utility.yul\":12759:12816   */\n      swap2\n      pop\n      pop\n        /* \"#utility.yul\":12422:12822   */\n      swap3\n      swap2\n      pop\n      pop\n      jump\t// out\n        /* \"#utility.yul\":12827:13967   */\n    tag_149:\n      sub(shl(0xa0, 0x01), 0x01)\n        /* \"#utility.yul\":13150:13182   */\n      dup6\n      and\n        /* \"#utility.yul\":13132:13183   */\n      dup2\n      mstore\n        /* \"#utility.yul\":13219:13222   */\n      0x80\n        /* \"#utility.yul\":13214:13216   */\n      0x20\n        /* \"#utility.yul\":13199:13217   */\n      dup3\n      add\n        /* \"#utility.yul\":13192:13223   */\n      dup2\n      swap1\n      mstore\n      0x00\n      swap1\n        /* \"#utility.yul\":13246:13292   */\n      tag_383\n      swap1\n        /* \"#utility.yul\":13272:13291   */\n      dup4\n      add\n        /* \"#utility.yul\":13264:13270   */\n      dup7\n        /* \"#utility.yul\":13246:13292   */\n      tag_276\n      jump\t// in\n    tag_383:\n        /* \"#utility.yul\":13340:13349   */\n      dup3\n        /* \"#utility.yul\":13332:13338   */\n      dup2\n        /* \"#utility.yul\":13328:13350   */\n      sub\n        /* \"#utility.yul\":13323:13325   */\n      0x40\n        /* \"#utility.yul\":13312:13321   */\n      dup5\n        /* \"#utility.yul\":13308:13326   */\n      add\n        /* \"#utility.yul\":13301:13351   */\n      mstore\n        /* \"#utility.yul\":13371:13377   */\n      dup1\n        /* \"#utility.yul\":13406:13412   */\n      dup6\n        /* \"#utility.yul\":13400:13413   */\n      mload\n        /* \"#utility.yul\":13437:13443   */\n      dup1\n        /* \"#utility.yul\":13429:13435   */\n      dup4\n        /* \"#utility.yul\":13422:13444   */\n      mstore\n        /* \"#utility.yul\":13472:13474   */\n      0x20\n        /* \"#utility.yul\":13464:13470   */\n      dup4\n        /* \"#utility.yul\":13460:13475   */\n      add\n        /* \"#utility.yul\":13453:13475   */\n      swap2\n      pop\n        /* \"#utility.yul\":13531:13533   */\n      0x20\n        /* \"#utility.yul\":13521:13527   */\n      dup2\n        /* \"#utility.yul\":13518:13519   */\n      0x05\n        /* \"#utility.yul\":13514:13528   */\n      shl\n        /* \"#utility.yul\":13506:13512   */\n      dup5\n        /* \"#utility.yul\":13502:13529   */\n      add\n        /* \"#utility.yul\":13498:13534   */\n      add\n        /* \"#utility.yul\":13569:13571   */\n      0x20\n        /* \"#utility.yul\":13561:13567   */\n      dup9\n        /* \"#utility.yul\":13557:13572   */\n      add\n        /* \"#utility.yul\":13590:13591   */\n      0x00\n        /* \"#utility.yul\":13600:13852   */\n    tag_384:\n        /* \"#utility.yul\":13614:13620   */\n      dup4\n        /* \"#utility.yul\":13611:13612   */\n      dup2\n        /* \"#utility.yul\":13608:13621   */\n      lt\n        /* \"#utility.yul\":13600:13852   */\n      iszero\n      tag_386\n      jumpi\n        /* \"#utility.yul\":13704:13706   */\n      0x1f\n        /* \"#utility.yul\":13700:13707   */\n      not\n        /* \"#utility.yul\":13691:13697   */\n      dup7\n        /* \"#utility.yul\":13683:13689   */\n      dup5\n        /* \"#utility.yul\":13679:13698   */\n      sub\n        /* \"#utility.yul\":13675:13708   */\n      add\n        /* \"#utility.yul\":13670:13673   */\n      dup6\n        /* \"#utility.yul\":13663:13709   */\n      mstore\n        /* \"#utility.yul\":13732:13772   */\n      tag_387\n        /* \"#utility.yul\":13765:13771   */\n      dup4\n        /* \"#utility.yul\":13756:13762   */\n      dup4\n        /* \"#utility.yul\":13750:13763   */\n      mload\n        /* \"#utility.yul\":13732:13772   */\n      tag_276\n      jump\t// in\n    tag_387:\n        /* \"#utility.yul\":13807:13809   */\n      0x20\n        /* \"#utility.yul\":13830:13842   */\n      swap6\n      dup7\n      add\n      swap6\n        /* \"#utility.yul\":13722:13772   */\n      swap1\n      swap4\n      pop\n        /* \"#utility.yul\":13795:13810   */\n      swap2\n      swap1\n      swap2\n      add\n      swap1\n        /* \"#utility.yul\":13636:13637   */\n      0x01\n        /* \"#utility.yul\":13629:13638   */\n      add\n        /* \"#utility.yul\":13600:13852   */\n      jump(tag_384)\n    tag_386:\n        /* \"#utility.yul\":13604:13607   */\n      pop\n      pop\n        /* \"#utility.yul\":13900:13909   */\n      dup6\n        /* \"#utility.yul\":13892:13898   */\n      dup2\n        /* \"#utility.yul\":13888:13910   */\n      sub\n        /* \"#utility.yul\":13883:13885   */\n      0x60\n        /* \"#utility.yul\":13872:13881   */\n      dup8\n        /* \"#utility.yul\":13868:13886   */\n      add\n        /* \"#utility.yul\":13861:13911   */\n      mstore\n        /* \"#utility.yul\":13928:13961   */\n      tag_388\n        /* \"#utility.yul\":13954:13960   */\n      dup2\n        /* \"#utility.yul\":13946:13952   */\n      dup9\n        /* \"#utility.yul\":13928:13961   */\n      tag_276\n      jump\t// in\n    tag_388:\n        /* \"#utility.yul\":13920:13961   */\n      swap11\n        /* \"#utility.yul\":12827:13967   */\n      swap10\n      pop\n      pop\n      pop\n      pop\n      pop\n      pop\n      pop\n      pop\n      pop\n      pop\n      jump\t// out\n        /* \"#utility.yul\":14319:14610   */\n    tag_158:\n        /* \"#utility.yul\":14496:14498   */\n      0x40\n        /* \"#utility.yul\":14485:14494   */\n      dup2\n        /* \"#utility.yul\":14478:14499   */\n      mstore\n        /* \"#utility.yul\":14459:14463   */\n      0x00\n        /* \"#utility.yul\":14516:14561   */\n      tag_391\n        /* \"#utility.yul\":14557:14559   */\n      0x40\n        /* \"#utility.yul\":14546:14555   */\n      dup4\n        /* \"#utility.yul\":14542:14560   */\n      add\n        /* \"#utility.yul\":14534:14540   */\n      dup6\n        /* \"#utility.yul\":14516:14561   */\n      tag_276\n      jump\t// in\n    tag_391:\n        /* \"#utility.yul\":14508:14561   */\n      swap1\n      pop\n        /* \"#utility.yul\":14597:14603   */\n      dup3\n        /* \"#utility.yul\":14592:14594   */\n      0x20\n        /* \"#utility.yul\":14581:14590   */\n      dup4\n        /* \"#utility.yul\":14577:14595   */\n      add\n        /* \"#utility.yul\":14570:14604   */\n      mstore\n        /* \"#utility.yul\":14319:14610   */\n      swap4\n      swap3\n      pop\n      pop\n      pop\n      jump\t// out\n        /* \"#utility.yul\":15977:16864   */\n    tag_224:\n        /* \"#utility.yul\":16196:16198   */\n      0x40\n        /* \"#utility.yul\":16185:16194   */\n      dup2\n        /* \"#utility.yul\":16178:16199   */\n      mstore\n        /* \"#utility.yul\":16254:16264   */\n      0xffffffff\n        /* \"#utility.yul\":16245:16251   */\n      dup4\n        /* \"#utility.yul\":16239:16252   */\n      mload\n        /* \"#utility.yul\":16235:16265   */\n      and\n        /* \"#utility.yul\":16230:16232   */\n      0x40\n        /* \"#utility.yul\":16219:16228   */\n      dup3\n        /* \"#utility.yul\":16215:16233   */\n      add\n        /* \"#utility.yul\":16208:16266   */\n      mstore\n        /* \"#utility.yul\":16320:16324   */\n      0x20\n        /* \"#utility.yul\":16312:16318   */\n      dup4\n        /* \"#utility.yul\":16308:16325   */\n      add\n        /* \"#utility.yul\":16302:16326   */\n      mload\n        /* \"#utility.yul\":16297:16299   */\n      0x60\n        /* \"#utility.yul\":16286:16295   */\n      dup3\n        /* \"#utility.yul\":16282:16300   */\n      add\n        /* \"#utility.yul\":16275:16327   */\n      mstore\n        /* \"#utility.yul\":16159:16163   */\n      0x00\n        /* \"#utility.yul\":16374:16376   */\n      0x40\n        /* \"#utility.yul\":16366:16372   */\n      dup5\n        /* \"#utility.yul\":16362:16377   */\n      add\n        /* \"#utility.yul\":16356:16378   */\n      mload\n        /* \"#utility.yul\":16415:16419   */\n      0xa0\n        /* \"#utility.yul\":16409:16412   */\n      0x80\n        /* \"#utility.yul\":16398:16407   */\n      dup5\n        /* \"#utility.yul\":16394:16413   */\n      add\n        /* \"#utility.yul\":16387:16420   */\n      mstore\n        /* \"#utility.yul\":16443:16495   */\n      tag_398\n        /* \"#utility.yul\":16490:16493   */\n      0xe0\n        /* \"#utility.yul\":16479:16488   */\n      dup5\n        /* \"#utility.yul\":16475:16494   */\n      add\n        /* \"#utility.yul\":16461:16473   */\n      dup3\n        /* \"#utility.yul\":16443:16495   */\n      tag_276\n      jump\t// in\n    tag_398:\n        /* \"#utility.yul\":16429:16495   */\n      swap1\n      pop\n        /* \"#utility.yul\":16544:16546   */\n      0x60\n        /* \"#utility.yul\":16536:16542   */\n      dup6\n        /* \"#utility.yul\":16532:16547   */\n      add\n        /* \"#utility.yul\":16526:16548   */\n      mload\n        /* \"#utility.yul\":16618:16620   */\n      0x3f\n        /* \"#utility.yul\":16614:16621   */\n      not\n        /* \"#utility.yul\":16602:16611   */\n      dup5\n        /* \"#utility.yul\":16594:16600   */\n      dup4\n        /* \"#utility.yul\":16590:16612   */\n      sub\n        /* \"#utility.yul\":16586:16622   */\n      add\n        /* \"#utility.yul\":16579:16583   */\n      0xa0\n        /* \"#utility.yul\":16568:16577   */\n      dup6\n        /* \"#utility.yul\":16564:16584   */\n      add\n        /* \"#utility.yul\":16557:16623   */\n      mstore\n        /* \"#utility.yul\":16646:16687   */\n      tag_399\n        /* \"#utility.yul\":16680:16686   */\n      dup3\n        /* \"#utility.yul\":16664:16678   */\n      dup3\n        /* \"#utility.yul\":16646:16687   */\n      tag_276\n      jump\t// in\n    tag_399:\n        /* \"#utility.yul\":16756:16759   */\n      0x80\n        /* \"#utility.yul\":16744:16760   */\n      swap7\n      swap1\n      swap7\n      add\n        /* \"#utility.yul\":16738:16761   */\n      mload\n        /* \"#utility.yul\":16731:16762   */\n      iszero\n        /* \"#utility.yul\":16724:16763   */\n      iszero\n        /* \"#utility.yul\":16718:16721   */\n      0xc0\n        /* \"#utility.yul\":16703:16722   */\n      dup6\n      add\n        /* \"#utility.yul\":16696:16764   */\n      mstore\n      pop\n      pop\n      pop\n      sub(shl(0xa0, 0x01), 0x01)\n        /* \"#utility.yul\":16825:16857   */\n      swap2\n      swap1\n      swap2\n      and\n        /* \"#utility.yul\":16818:16822   */\n      0x20\n        /* \"#utility.yul\":16803:16823   */\n      swap1\n      swap2\n      add\n        /* \"#utility.yul\":16796:16858   */\n      mstore\n        /* \"#utility.yul\":16632:16687   */\n      swap1\n        /* \"#utility.yul\":15977:16864   */\n      jump\t// out\n        /* \"#utility.yul\":16869:17471   */\n    tag_277:\n        /* \"#utility.yul\":16939:16944   */\n      0x00\n        /* \"#utility.yul\":16987:16991   */\n      0x40\n        /* \"#utility.yul\":16975:16984   */\n      dup3\n        /* \"#utility.yul\":16970:16973   */\n      dup5\n        /* \"#utility.yul\":16966:16985   */\n      sub\n        /* \"#utility.yul\":16962:16992   */\n      slt\n        /* \"#utility.yul\":16959:17009   */\n      iszero\n      tag_401\n      jumpi\n        /* \"#utility.yul\":17005:17006   */\n      0x00\n        /* \"#utility.yul\":17002:17003   */\n      dup1\n        /* \"#utility.yul\":16995:17007   */\n      revert\n        /* \"#utility.yul\":16959:17009   */\n    tag_401:\n        /* \"#utility.yul\":17058:17062   */\n      0x40\n        /* \"#utility.yul\":17052:17063   */\n      dup1\n      mload\n      swap1\n        /* \"#utility.yul\":17090:17107   */\n      dup2\n      add\n      sub(shl(0x40, 0x01), 0x01)\n        /* \"#utility.yul\":17122:17156   */\n      dup2\n      gt\n        /* \"#utility.yul\":17158:17180   */\n      dup3\n      dup3\n      lt\n        /* \"#utility.yul\":17119:17181   */\n      or\n        /* \"#utility.yul\":17116:17204   */\n      iszero\n      tag_403\n      jumpi\n        /* \"#utility.yul\":17184:17202   */\n      tag_403\n      tag_272\n      jump\t// in\n    tag_403:\n        /* \"#utility.yul\":17220:17224   */\n      0x40\n        /* \"#utility.yul\":17213:17237   */\n      mstore\n        /* \"#utility.yul\":17306:17322   */\n      dup3\n      mload\n        /* \"#utility.yul\":17331:17354   */\n      dup2\n      mstore\n        /* \"#utility.yul\":17420:17422   */\n      0x20\n        /* \"#utility.yul\":17405:17423   */\n      swap3\n      dup4\n      add\n        /* \"#utility.yul\":17399:17424   */\n      mload\n        /* \"#utility.yul\":17440:17455   */\n      swap3\n      dup2\n      add\n        /* \"#utility.yul\":17433:17465   */\n      swap3\n      swap1\n      swap3\n      mstore\n      pop\n        /* \"#utility.yul\":17255:17261   */\n      swap2\n        /* \"#utility.yul\":16869:17471   */\n      swap1\n      pop\n      jump\t// out\n        /* \"#utility.yul\":17476:17733   */\n    tag_228:\n        /* \"#utility.yul\":17574:17580   */\n      0x00\n        /* \"#utility.yul\":17627:17629   */\n      0x40\n        /* \"#utility.yul\":17615:17624   */\n      dup3\n        /* \"#utility.yul\":17606:17613   */\n      dup5\n        /* \"#utility.yul\":17602:17625   */\n      sub\n        /* \"#utility.yul\":17598:17630   */\n      slt\n        /* \"#utility.yul\":17595:17647   */\n      iszero\n      tag_405\n      jumpi\n        /* \"#utility.yul\":17643:17644   */\n      0x00\n        /* \"#utility.yul\":17640:17641   */\n      dup1\n        /* \"#utility.yul\":17633:17645   */\n      revert\n        /* \"#utility.yul\":17595:17647   */\n    tag_405:\n        /* \"#utility.yul\":17666:17727   */\n      tag_360\n        /* \"#utility.yul\":17719:17726   */\n      dup4\n        /* \"#utility.yul\":17708:17717   */\n      dup4\n        /* \"#utility.yul\":17666:17727   */\n      tag_277\n      jump\t// in\n        /* \"#utility.yul\":17738:18515   */\n    tag_242:\n        /* \"#utility.yul\":17840:17846   */\n      0x00\n        /* \"#utility.yul\":17900:17903   */\n      0x80\n        /* \"#utility.yul\":17888:17897   */\n      dup3\n        /* \"#utility.yul\":17879:17886   */\n      dup5\n        /* \"#utility.yul\":17875:17898   */\n      sub\n        /* \"#utility.yul\":17871:17904   */\n      slt\n        /* \"#utility.yul\":17916:17918   */\n      dup1\n        /* \"#utility.yul\":17913:17935   */\n      iszero\n      tag_408\n      jumpi\n        /* \"#utility.yul\":17931:17932   */\n      0x00\n        /* \"#utility.yul\":17928:17929   */\n      dup1\n        /* \"#utility.yul\":17921:17933   */\n      revert\n        /* \"#utility.yul\":17913:17935   */\n    tag_408:\n      pop\n        /* \"#utility.yul\":18000:18002   */\n      0x40\n        /* \"#utility.yul\":17994:18003   */\n      mload\n        /* \"#utility.yul\":18042:18046   */\n      0x60\n        /* \"#utility.yul\":18030:18047   */\n      dup2\n      add\n      sub(shl(0x40, 0x01), 0x01)\n        /* \"#utility.yul\":18062:18096   */\n      dup2\n      gt\n        /* \"#utility.yul\":18098:18120   */\n      dup3\n      dup3\n      lt\n        /* \"#utility.yul\":18059:18121   */\n      or\n        /* \"#utility.yul\":18056:18144   */\n      iszero\n      tag_410\n      jumpi\n        /* \"#utility.yul\":18124:18142   */\n      tag_410\n      tag_272\n      jump\t// in\n    tag_410:\n        /* \"#utility.yul\":18160:18162   */\n      0x40\n        /* \"#utility.yul\":18153:18175   */\n      mstore\n        /* \"#utility.yul\":18199:18215   */\n      dup3\n      mload\n        /* \"#utility.yul\":18184:18216   */\n      dup2\n      mstore\n        /* \"#utility.yul\":18259:18261   */\n      0x20\n        /* \"#utility.yul\":18244:18262   */\n      dup4\n      add\n        /* \"#utility.yul\":18238:18263   */\n      mload\n      sub(shl(0x40, 0x01), 0x01)\n        /* \"#utility.yul\":18292:18322   */\n      dup2\n      and\n        /* \"#utility.yul\":18282:18323   */\n      dup2\n      eq\n        /* \"#utility.yul\":18272:18341   */\n      tag_411\n      jumpi\n        /* \"#utility.yul\":18337:18338   */\n      0x00\n        /* \"#utility.yul\":18334:18335   */\n      dup1\n        /* \"#utility.yul\":18327:18339   */\n      revert\n        /* \"#utility.yul\":18272:18341   */\n    tag_411:\n        /* \"#utility.yul\":18369:18371   */\n      0x20\n        /* \"#utility.yul\":18357:18372   */\n      dup3\n      add\n        /* \"#utility.yul\":18350:18380   */\n      mstore\n        /* \"#utility.yul\":18413:18483   */\n      tag_412\n        /* \"#utility.yul\":18475:18482   */\n      dup5\n        /* \"#utility.yul\":18470:18472   */\n      0x40\n        /* \"#utility.yul\":18455:18473   */\n      dup6\n      add\n        /* \"#utility.yul\":18413:18483   */\n      tag_277\n      jump\t// in\n    tag_412:\n        /* \"#utility.yul\":18408:18410   */\n      0x40\n        /* \"#utility.yul\":18396:18411   */\n      dup3\n      add\n        /* \"#utility.yul\":18389:18484   */\n      mstore\n        /* \"#utility.yul\":18400:18406   */\n      swap4\n        /* \"#utility.yul\":17738:18515   */\n      swap3\n      pop\n      pop\n      pop\n      jump\t// out\n        /* \"#utility.yul\":18520:18771   */\n    tag_253:\n        /* \"#utility.yul\":18590:18596   */\n      0x00\n        /* \"#utility.yul\":18643:18645   */\n      0x20\n        /* \"#utility.yul\":18631:18640   */\n      dup3\n        /* \"#utility.yul\":18622:18629   */\n      dup5\n        /* \"#utility.yul\":18618:18641   */\n      sub\n        /* \"#utility.yul\":18614:18646   */\n      slt\n        /* \"#utility.yul\":18611:18663   */\n      iszero\n      tag_414\n      jumpi\n        /* \"#utility.yul\":18659:18660   */\n      0x00\n        /* \"#utility.yul\":18656:18657   */\n      dup1\n        /* \"#utility.yul\":18649:18661   */\n      revert\n        /* \"#utility.yul\":18611:18663   */\n    tag_414:\n        /* \"#utility.yul\":18691:18700   */\n      dup2\n        /* \"#utility.yul\":18685:18701   */\n      mload\n        /* \"#utility.yul\":18710:18741   */\n      tag_360\n        /* \"#utility.yul\":18735:18740   */\n      dup2\n        /* \"#utility.yul\":18710:18741   */\n      tag_270\n      jump\t// in\n\n    auxdata: 0xa264697066735822122074cde31fcb521e3eb59bc6cd03199aa6ef1a2ef26282820cbaf737e21cf4ebf164736f6c634300081c0033\n}\n",
				"bytecode": {
					"linkReferences": {},
					"object": "60c060405234801561001057600080fd5b5060405161198438038061198483398101604081905261002f91610183565b82828181806001600160a01b03811661006257604051631e4fbdf760e01b81526000600482015260240160405180910390fd5b61006b81610117565b506001600160a01b03808316608052811661009957604051632d618d8160e21b815260040160405180910390fd5b60805160405163ca5eb5e160e01b81526001600160a01b0383811660048301529091169063ca5eb5e190602401600060405180830381600087803b1580156100e057600080fd5b505af11580156100f4573d6000803e3d6000fd5b505060016002555050506001600160a01b0390931660a052506101c69350505050565b600080546001600160a01b038381166001600160a01b0319831681178455604051919092169283917f8be0079c531659141344cd1fd0a4f28419497f9722a3daafe3b4186f6b6457e09190a35050565b80516001600160a01b038116811461017e57600080fd5b919050565b60008060006060848603121561019857600080fd5b6101a184610167565b92506101af60208501610167565b91506101bd60408501610167565b90509250925092565b60805160a0516117616102236000396000818161035301528181610544015261081c015260008181610171015281816103970152818161093501528181610b3901528181610c3701528181610d800152610e3701526117616000f3fe6080604052600436106100f75760003560e01c806382413eac1161008a578063ca5eb5e111610059578063ca5eb5e114610301578063f2fde38b14610321578063f897a22b14610341578063ff7bd03d1461037557600080fd5b806382413eac146102495780638da5cb5b14610288578063ad3b1b47146102a6578063bb0b6a53146102c657600080fd5b806364bd90eb116100c657806364bd90eb146101ab578063682d54e6146101be578063715018a6146101f95780637d25a05e1461020e57600080fd5b806313137d651461010357806317442b70146101185780633400288b1461013f5780635e280f111461015f57600080fd5b366100fe57005b600080fd5b610116610111366004610fe1565b610395565b005b34801561012457600080fd5b50604080516001815260026020820152015b60405180910390f35b34801561014b57600080fd5b5061011661015a36600461109b565b610446565b34801561016b57600080fd5b506101937f000000000000000000000000000000000000000000000000000000000000000081565b6040516001600160a01b039091168152602001610136565b6101166101b9366004611220565b61045c565b3480156101ca57600080fd5b506101de6101d93660046112de565b61075c565b60408051825181526020928301519281019290925201610136565b34801561020557600080fd5b506101166107da565b34801561021a57600080fd5b5061023161022936600461109b565b600092915050565b6040516001600160401b039091168152602001610136565b34801561025557600080fd5b506102786102643660046113b1565b6001600160a01b0381163014949350505050565b6040519015158152602001610136565b34801561029457600080fd5b506000546001600160a01b0316610193565b3480156102b257600080fd5b506101166102c1366004611417565b6107ee565b3480156102d257600080fd5b506102f36102e1366004611435565b60016020526000908152604090205481565b604051908152602001610136565b34801561030d57600080fd5b5061011661031c366004611457565b61090e565b34801561032d57600080fd5b5061011661033c366004611457565b610994565b34801561034d57600080fd5b506101937f000000000000000000000000000000000000000000000000000000000000000081565b34801561038157600080fd5b50610278610390366004611474565b6109d2565b7f00000000000000000000000000000000000000000000000000000000000000006001600160a01b031633146103e5576040516391ac5e4f60e01b81523360048201526024015b60405180910390fd5b602087018035906103ff906103fa908a611435565b610a08565b1461043d576104116020880188611435565b60405163309afaf360e21b815263ffffffff9091166004820152602088013560248201526044016103dc565b50505050505050565b61044e610a4a565b6104588282610a77565b5050565b610464610acc565b60008651116104a25760405162461bcd60e51b815260206004820152600a6024820152694e616d6520656d70747960b01b60448201526064016103dc565b60008551116104e25760405162461bcd60e51b815260206004820152600c60248201526b536b696c6c7320656d70747960a01b60448201526064016103dc565b600083116105225760405162461bcd60e51b815260206004820152600d60248201526c5553445420666565207a65726f60981b60448201526064016103dc565b6040516323b872dd60e01b8152336004820152306024820152604481018490527f00000000000000000000000000000000000000000000000000000000000000006001600160a01b0316906323b872dd906064016020604051808303816000875af1158015610595573d6000803e3d6000fd5b505050506040513d601f19601f820116820180604052508101906105b99190611490565b6105fc5760405162461bcd60e51b81526020600482015260146024820152731554d115081d1c985b9cd9995c8819985a5b195960621b60448201526064016103dc565b60003387878760405160200161061594939291906114f8565b60408051601f198184030181526020601f86018190048102840181019092528483529250600091610664918b918591889088908190840183828082843760009201829052509250610b23915050565b80519091503410156106ad5760405162461bcd60e51b81526020600482015260126024820152714e61746976652066656520746f6f206c6f7760701b60448201526064016103dc565b610705898386868080601f01602080910402602001604051908101604052809392919081815260200183838082843760009201829052506040805180820190915234815260208101919091529250339150610c049050565b50336001600160a01b03168963ffffffff167f367df553a20f9d6a48f562a05a838605d973217c1e3980b1c5d542e2eeaafb638a88604051610748929190611594565b60405180910390a3505061043d6001600255565b60408051808201909152600080825260208201526107cf873388888860405160200161078b94939291906114f8565b60408051601f198184030181526020601f88018190048102840181019092528683529190879087908190840183828082843760009201829052509250610b23915050565b979650505050505050565b6107e2610a4a565b6107ec6000610d04565b565b6107f6610a4a565b60405163a9059cbb60e01b81526001600160a01b038381166004830152602482018390527f0000000000000000000000000000000000000000000000000000000000000000169063a9059cbb906044016020604051808303816000875af1158015610865573d6000803e3d6000fd5b505050506040513d601f19601f820116820180604052508101906108899190611490565b6108c75760405162461bcd60e51b815260206004820152600f60248201526e15da5d1a191c985dc819985a5b1959608a1b60448201526064016103dc565b816001600160a01b03167fc0819c13be868895eb93e40eaceb96de976442fa1d404e5c55f14bb65a8c489a8260405161090291815260200190565b60405180910390a25050565b610916610a4a565b60405163ca5eb5e160e01b81526001600160a01b0382811660048301527f0000000000000000000000000000000000000000000000000000000000000000169063ca5eb5e190602401600060405180830381600087803b15801561097957600080fd5b505af115801561098d573d6000803e3d6000fd5b5050505050565b61099c610a4a565b6001600160a01b0381166109c657604051631e4fbdf760e01b8152600060048201526024016103dc565b6109cf81610d04565b50565b60006020820180359060019083906109ea9086611435565b63ffffffff1681526020810191909152604001600020541492915050565b63ffffffff811660009081526001602052604081205480610a445760405163f6ff4fb760e01b815263ffffffff841660048201526024016103dc565b92915050565b6000546001600160a01b031633146107ec5760405163118cdaa760e01b81523360048201526024016103dc565b63ffffffff8216600081815260016020908152604091829020849055815192835282018390527f238399d427b947898edb290f5ff0f9109849b1c3ba196a42e35f00c50a54b98b910160405180910390a15050565b6002805403610b1d5760405162461bcd60e51b815260206004820152601f60248201527f5265656e7472616e637947756172643a207265656e7472616e742063616c6c0060448201526064016103dc565b60028055565b60408051808201909152600080825260208201527f00000000000000000000000000000000000000000000000000000000000000006001600160a01b031663ddc28c586040518060a001604052808863ffffffff168152602001610b8689610a08565b8152602001878152602001868152602001851515815250306040518363ffffffff1660e01b8152600401610bbb9291906115b6565b6040805180830381865afa158015610bd7573d6000803e3d6000fd5b505050506040513d601f19601f82011682018060405250810190610bfb919061167d565b95945050505050565b610c0c610f25565b6000610c1b8460000151610d54565b602085015190915015610c3557610c358460200151610d7c565b7f00000000000000000000000000000000000000000000000000000000000000006001600160a01b0316632637a450826040518060a001604052808b63ffffffff168152602001610c858c610a08565b81526020018a815260200189815260200160008960200151111515815250866040518463ffffffff1660e01b8152600401610cc19291906115b6565b60806040518083038185885af1158015610cdf573d6000803e3d6000fd5b50505050506040513d601f19601f820116820180604052508101906107cf9190611699565b600080546001600160a01b038381166001600160a01b0319831681178455604051919092169283917f8be0079c531659141344cd1fd0a4f28419497f9722a3daafe3b4186f6b6457e09190a35050565b6000813414610d78576040516304fb820960e51b81523460048201526024016103dc565b5090565b60007f00000000000000000000000000000000000000000000000000000000000000006001600160a01b031663e4fe1d946040518163ffffffff1660e01b8152600401602060405180830381865afa158015610ddc573d6000803e3d6000fd5b505050506040513d601f19601f82011682018060405250810190610e00919061170e565b90506001600160a01b038116610e29576040516329b99a9560e11b815260040160405180910390fd5b6040805133602482018190527f00000000000000000000000000000000000000000000000000000000000000006001600160a01b03818116604485015260648085018890528551808603909101815260849094019094526020830180516001600160e01b03166323b872dd60e01b179052610458938516928690610eae908590610eb4565b50505050565b600080602060008451602086016000885af180610ed7576040513d6000823e3d81fd5b50506000513d91508115610eef578060011415610efc565b6001600160a01b0384163b155b15610eae57604051635274afe760e01b81526001600160a01b03851660048201526024016103dc565b60405180606001604052806000801916815260200160006001600160401b03168152602001610f67604051806040016040528060008152602001600081525090565b905290565b600060608284031215610f7e57600080fd5b50919050565b60008083601f840112610f9657600080fd5b5081356001600160401b03811115610fad57600080fd5b602083019150836020828501011115610fc557600080fd5b9250929050565b6001600160a01b03811681146109cf57600080fd5b600080600080600080600060e0888a031215610ffc57600080fd5b6110068989610f6c565b96506060880135955060808801356001600160401b0381111561102857600080fd5b6110348a828b01610f84565b90965094505060a088013561104881610fcc565b925060c08801356001600160401b0381111561106357600080fd5b61106f8a828b01610f84565b989b979a50959850939692959293505050565b803563ffffffff8116811461109657600080fd5b919050565b600080604083850312156110ae57600080fd5b6110b783611082565b946020939093013593505050565b634e487b7160e01b600052604160045260246000fd5b604051601f8201601f191681016001600160401b0381118282101715611103576111036110c5565b604052919050565b600082601f83011261111c57600080fd5b81356001600160401b03811115611135576111356110c5565b611148601f8201601f19166020016110db565b81815284602083860101111561115d57600080fd5b816020850160208301376000918101602001919091529392505050565b600082601f83011261118b57600080fd5b81356001600160401b038111156111a4576111a46110c5565b8060051b6111b4602082016110db565b918252602081850181019290810190868411156111d057600080fd5b6020860192505b838310156112165782356001600160401b038111156111f557600080fd5b611204886020838a010161110b565b835250602092830192909101906111d7565b9695505050505050565b600080600080600080600060c0888a03121561123b57600080fd5b61124488611082565b965060208801356001600160401b0381111561125f57600080fd5b61126b8a828b0161110b565b96505060408801356001600160401b0381111561128757600080fd5b6112938a828b0161117a565b95505060608801356001600160401b038111156112af57600080fd5b6112bb8a828b0161110b565b9450506080880135925060a08801356001600160401b0381111561106357600080fd5b60008060008060008060a087890312156112f757600080fd5b61130087611082565b955060208701356001600160401b0381111561131b57600080fd5b61132789828a0161110b565b95505060408701356001600160401b0381111561134357600080fd5b61134f89828a0161117a565b94505060608701356001600160401b0381111561136b57600080fd5b61137789828a0161110b565b93505060808701356001600160401b0381111561139357600080fd5b61139f89828a01610f84565b979a9699509497509295939492505050565b60008060008060a085870312156113c757600080fd5b6113d18686610f6c565b935060608501356001600160401b038111156113ec57600080fd5b6113f887828801610f84565b909450925050608085013561140c81610fcc565b939692955090935050565b6000806040838503121561142a57600080fd5b82356110b781610fcc565b60006020828403121561144757600080fd5b61145082611082565b9392505050565b60006020828403121561146957600080fd5b813561145081610fcc565b60006060828403121561148657600080fd5b6114508383610f6c565b6000602082840312156114a257600080fd5b8151801515811461145057600080fd5b6000815180845260005b818110156114d8576020818501810151868301820152016114bc565b506000602082860101526020601f19601f83011685010191505092915050565b6001600160a01b038516815260806020820181905260009061151c908301866114b2565b828103604084015280855180835260208301915060208160051b8401016020880160005b8381101561157257601f1986840301855261155c8383516114b2565b6020958601959093509190910190600101611540565b5050858103606087015261158681886114b2565b9a9950505050505050505050565b6040815260006115a760408301856114b2565b90508260208301529392505050565b6040815263ffffffff8351166040820152602083015160608201526000604084015160a060808401526115ec60e08401826114b2565b90506060850151603f198483030160a085015261160982826114b2565b60809690960151151560c08501525050506001600160a01b039190911660209091015290565b60006040828403121561164157600080fd5b604080519081016001600160401b0381118282101715611663576116636110c5565b604052825181526020928301519281019290925250919050565b60006040828403121561168f57600080fd5b611450838361162f565b600060808284031280156116ac57600080fd5b50604051606081016001600160401b03811182821017156116cf576116cf6110c5565b6040528251815260208301516001600160401b03811681146116f057600080fd5b6020820152611702846040850161162f565b60408201529392505050565b60006020828403121561172057600080fd5b815161145081610fcc56fea264697066735822122074cde31fcb521e3eb59bc6cd03199aa6ef1a2ef26282820cbaf737e21cf4ebf164736f6c634300081c0033",
					"opcodes": "PUSH1 0xC0 PUSH1 0x40 MSTORE CALLVALUE DUP1 ISZERO PUSH2 0x10 JUMPI PUSH1 0x0 DUP1 REVERT JUMPDEST POP PUSH1 0x40 MLOAD PUSH2 0x1984 CODESIZE SUB DUP1 PUSH2 0x1984 DUP4 CODECOPY DUP2 ADD PUSH1 0x40 DUP2 SWAP1 MSTORE PUSH2 0x2F SWAP2 PUSH2 0x183 JUMP JUMPDEST DUP3 DUP3 DUP2 DUP2 DUP1 PUSH1 0x1 PUSH1 0x1 PUSH1 0xA0 SHL SUB DUP2 AND PUSH2 0x62 JUMPI PUSH1 0x40 MLOAD PUSH4 0x1E4FBDF7 PUSH1 0xE0 SHL DUP2 MSTORE PUSH1 0x0 PUSH1 0x4 DUP3 ADD MSTORE PUSH1 0x24 ADD PUSH1 0x40 MLOAD DUP1 SWAP2 SUB SWAP1 REVERT JUMPDEST PUSH2 0x6B DUP2 PUSH2 0x117 JUMP JUMPDEST POP PUSH1 0x1 PUSH1 0x1 PUSH1 0xA0 SHL SUB DUP1 DUP4 AND PUSH1 0x80 MSTORE DUP2 AND PUSH2 0x99 JUMPI PUSH1 0x40 MLOAD PUSH4 0x2D618D81 PUSH1 0xE2 SHL DUP2 MSTORE PUSH1 0x4 ADD PUSH1 0x40 MLOAD DUP1 SWAP2 SUB SWAP1 REVERT JUMPDEST PUSH1 0x80 MLOAD PUSH1 0x40 MLOAD PUSH4 0xCA5EB5E1 PUSH1 0xE0 SHL DUP2 MSTORE PUSH1 0x1 PUSH1 0x1 PUSH1 0xA0 SHL SUB DUP4 DUP2 AND PUSH1 0x4 DUP4 ADD MSTORE SWAP1 SWAP2 AND SWAP1 PUSH4 0xCA5EB5E1 SWAP1 PUSH1 0x24 ADD PUSH1 0x0 PUSH1 0x40 MLOAD DUP1 DUP4 SUB DUP2 PUSH1 0x0 DUP8 DUP1 EXTCODESIZE ISZERO DUP1 ISZERO PUSH2 0xE0 JUMPI PUSH1 0x0 DUP1 REVERT JUMPDEST POP GAS CALL ISZERO DUP1 ISZERO PUSH2 0xF4 JUMPI RETURNDATASIZE PUSH1 0x0 DUP1 RETURNDATACOPY RETURNDATASIZE PUSH1 0x0 REVERT JUMPDEST POP POP PUSH1 0x1 PUSH1 0x2 SSTORE POP POP POP PUSH1 0x1 PUSH1 0x1 PUSH1 0xA0 SHL SUB SWAP1 SWAP4 AND PUSH1 0xA0 MSTORE POP PUSH2 0x1C6 SWAP4 POP POP POP POP JUMP JUMPDEST PUSH1 0x0 DUP1 SLOAD PUSH1 0x1 PUSH1 0x1 PUSH1 0xA0 SHL SUB DUP4 DUP2 AND PUSH1 0x1 PUSH1 0x1 PUSH1 0xA0 SHL SUB NOT DUP4 AND DUP2 OR DUP5 SSTORE PUSH1 0x40 MLOAD SWAP2 SWAP1 SWAP3 AND SWAP3 DUP4 SWAP2 PUSH32 0x8BE0079C531659141344CD1FD0A4F28419497F9722A3DAAFE3B4186F6B6457E0 SWAP2 SWAP1 LOG3 POP POP JUMP JUMPDEST DUP1 MLOAD PUSH1 0x1 PUSH1 0x1 PUSH1 0xA0 SHL SUB DUP2 AND DUP2 EQ PUSH2 0x17E JUMPI PUSH1 0x0 DUP1 REVERT JUMPDEST SWAP2 SWAP1 POP JUMP JUMPDEST PUSH1 0x0 DUP1 PUSH1 0x0 PUSH1 0x60 DUP5 DUP7 SUB SLT ISZERO PUSH2 0x198 JUMPI PUSH1 0x0 DUP1 REVERT JUMPDEST PUSH2 0x1A1 DUP5 PUSH2 0x167 JUMP JUMPDEST SWAP3 POP PUSH2 0x1AF PUSH1 0x20 DUP6 ADD PUSH2 0x167 JUMP JUMPDEST SWAP2 POP PUSH2 0x1BD PUSH1 0x40 DUP6 ADD PUSH2 0x167 JUMP JUMPDEST SWAP1 POP SWAP3 POP SWAP3 POP SWAP3 JUMP JUMPDEST PUSH1 0x80 MLOAD PUSH1 0xA0 MLOAD PUSH2 0x1761 PUSH2 0x223 PUSH1 0x0 CODECOPY PUSH1 0x0 DUP2 DUP2 PUSH2 0x353 ADD MSTORE DUP2 DUP2 PUSH2 0x544 ADD MSTORE PUSH2 0x81C ADD MSTORE PUSH1 0x0 DUP2 DUP2 PUSH2 0x171 ADD MSTORE DUP2 DUP2 PUSH2 0x397 ADD MSTORE DUP2 DUP2 PUSH2 0x935 ADD MSTORE DUP2 DUP2 PUSH2 0xB39 ADD MSTORE DUP2 DUP2 PUSH2 0xC37 ADD MSTORE DUP2 DUP2 PUSH2 0xD80 ADD MSTORE PUSH2 0xE37 ADD MSTORE PUSH2 0x1761 PUSH1 0x0 RETURN INVALID PUSH1 0x80 PUSH1 0x40 MSTORE PUSH1 0x4 CALLDATASIZE LT PUSH2 0xF7 JUMPI PUSH1 0x0 CALLDATALOAD PUSH1 0xE0 SHR DUP1 PUSH4 0x82413EAC GT PUSH2 0x8A JUMPI DUP1 PUSH4 0xCA5EB5E1 GT PUSH2 0x59 JUMPI DUP1 PUSH4 0xCA5EB5E1 EQ PUSH2 0x301 JUMPI DUP1 PUSH4 0xF2FDE38B EQ PUSH2 0x321 JUMPI DUP1 PUSH4 0xF897A22B EQ PUSH2 0x341 JUMPI DUP1 PUSH4 0xFF7BD03D EQ PUSH2 0x375 JUMPI PUSH1 0x0 DUP1 REVERT JUMPDEST DUP1 PUSH4 0x82413EAC EQ PUSH2 0x249 JUMPI DUP1 PUSH4 0x8DA5CB5B EQ PUSH2 0x288 JUMPI DUP1 PUSH4 0xAD3B1B47 EQ PUSH2 0x2A6 JUMPI DUP1 PUSH4 0xBB0B6A53 EQ PUSH2 0x2C6 JUMPI PUSH1 0x0 DUP1 REVERT JUMPDEST DUP1 PUSH4 0x64BD90EB GT PUSH2 0xC6 JUMPI DUP1 PUSH4 0x64BD90EB EQ PUSH2 0x1AB JUMPI DUP1 PUSH4 0x682D54E6 EQ PUSH2 0x1BE JUMPI DUP1 PUSH4 0x715018A6 EQ PUSH2 0x1F9 JUMPI DUP1 PUSH4 0x7D25A05E EQ PUSH2 0x20E JUMPI PUSH1 0x0 DUP1 REVERT JUMPDEST DUP1 PUSH4 0x13137D65 EQ PUSH2 0x103 JUMPI DUP1 PUSH4 0x17442B70 EQ PUSH2 0x118 JUMPI DUP1 PUSH4 0x3400288B EQ PUSH2 0x13F JUMPI DUP1 PUSH4 0x5E280F11 EQ PUSH2 0x15F JUMPI PUSH1 0x0 DUP1 REVERT JUMPDEST CALLDATASIZE PUSH2 0xFE JUMPI STOP JUMPDEST PUSH1 0x0 DUP1 REVERT JUMPDEST PUSH2 0x116 PUSH2 0x111 CALLDATASIZE PUSH1 0x4 PUSH2 0xFE1 JUMP JUMPDEST PUSH2 0x395 JUMP JUMPDEST STOP JUMPDEST CALLVALUE DUP1 ISZERO PUSH2 0x124 JUMPI PUSH1 0x0 DUP1 REVERT JUMPDEST POP PUSH1 0x40 DUP1 MLOAD PUSH1 0x1 DUP2 MSTORE PUSH1 0x2 PUSH1 0x20 DUP3 ADD MSTORE ADD JUMPDEST PUSH1 0x40 MLOAD DUP1 SWAP2 SUB SWAP1 RETURN JUMPDEST CALLVALUE DUP1 ISZERO PUSH2 0x14B JUMPI PUSH1 0x0 DUP1 REVERT JUMPDEST POP PUSH2 0x116 PUSH2 0x15A CALLDATASIZE PUSH1 0x4 PUSH2 0x109B JUMP JUMPDEST PUSH2 0x446 JUMP JUMPDEST CALLVALUE DUP1 ISZERO PUSH2 0x16B JUMPI PUSH1 0x0 DUP1 REVERT JUMPDEST POP PUSH2 0x193 PUSH32 0x0 DUP2 JUMP JUMPDEST PUSH1 0x40 MLOAD PUSH1 0x1 PUSH1 0x1 PUSH1 0xA0 SHL SUB SWAP1 SWAP2 AND DUP2 MSTORE PUSH1 0x20 ADD PUSH2 0x136 JUMP JUMPDEST PUSH2 0x116 PUSH2 0x1B9 CALLDATASIZE PUSH1 0x4 PUSH2 0x1220 JUMP JUMPDEST PUSH2 0x45C JUMP JUMPDEST CALLVALUE DUP1 ISZERO PUSH2 0x1CA JUMPI PUSH1 0x0 DUP1 REVERT JUMPDEST POP PUSH2 0x1DE PUSH2 0x1D9 CALLDATASIZE PUSH1 0x4 PUSH2 0x12DE JUMP JUMPDEST PUSH2 0x75C JUMP JUMPDEST PUSH1 0x40 DUP1 MLOAD DUP3 MLOAD DUP2 MSTORE PUSH1 0x20 SWAP3 DUP4 ADD MLOAD SWAP3 DUP2 ADD SWAP3 SWAP1 SWAP3 MSTORE ADD PUSH2 0x136 JUMP JUMPDEST CALLVALUE DUP1 ISZERO PUSH2 0x205 JUMPI PUSH1 0x0 DUP1 REVERT JUMPDEST POP PUSH2 0x116 PUSH2 0x7DA JUMP JUMPDEST CALLVALUE DUP1 ISZERO PUSH2 0x21A JUMPI PUSH1 0x0 DUP1 REVERT JUMPDEST POP PUSH2 0x231 PUSH2 0x229 CALLDATASIZE PUSH1 0x4 PUSH2 0x109B JUMP JUMPDEST PUSH1 0x0 SWAP3 SWAP2 POP POP JUMP JUMPDEST PUSH1 0x40 MLOAD PUSH1 0x1 PUSH1 0x1 PUSH1 0x40 SHL SUB SWAP1 SWAP2 AND DUP2 MSTORE PUSH1 0x20 ADD PUSH2 0x136 JUMP JUMPDEST CALLVALUE DUP1 ISZERO PUSH2 0x255 JUMPI PUSH1 0x0 DUP1 REVERT JUMPDEST POP PUSH2 0x278 PUSH2 0x264 CALLDATASIZE PUSH1 0x4 PUSH2 0x13B1 JUMP JUMPDEST PUSH1 0x1 PUSH1 0x1 PUSH1 0xA0 SHL SUB DUP2 AND ADDRESS EQ SWAP5 SWAP4 POP POP POP POP JUMP JUMPDEST PUSH1 0x40 MLOAD SWAP1 ISZERO ISZERO DUP2 MSTORE PUSH1 0x20 ADD PUSH2 0x136 JUMP JUMPDEST CALLVALUE DUP1 ISZERO PUSH2 0x294 JUMPI PUSH1 0x0 DUP1 REVERT JUMPDEST POP PUSH1 0x0 SLOAD PUSH1 0x1 PUSH1 0x1 PUSH1 0xA0 SHL SUB AND PUSH2 0x193 JUMP JUMPDEST CALLVALUE DUP1 ISZERO PUSH2 0x2B2 JUMPI PUSH1 0x0 DUP1 REVERT JUMPDEST POP PUSH2 0x116 PUSH2 0x2C1 CALLDATASIZE PUSH1 0x4 PUSH2 0x1417 JUMP JUMPDEST PUSH2 0x7EE JUMP JUMPDEST CALLVALUE DUP1 ISZERO PUSH2 0x2D2 JUMPI PUSH1 0x0 DUP1 REVERT JUMPDEST POP PUSH2 0x2F3 PUSH2 0x2E1 CALLDATASIZE PUSH1 0x4 PUSH2 0x1435 JUMP JUMPDEST PUSH1 0x1 PUSH1 0x20 MSTORE PUSH1 0x0 SWAP1 DUP2 MSTORE PUSH1 0x40 SWAP1 KECCAK256 SLOAD DUP2 JUMP JUMPDEST PUSH1 0x40 MLOAD SWAP1 DUP2 MSTORE PUSH1 0x20 ADD PUSH2 0x136 JUMP JUMPDEST CALLVALUE DUP1 ISZERO PUSH2 0x30D JUMPI PUSH1 0x0 DUP1 REVERT JUMPDEST POP PUSH2 0x116 PUSH2 0x31C CALLDATASIZE PUSH1 0x4 PUSH2 0x1457 JUMP JUMPDEST PUSH2 0x90E JUMP JUMPDEST CALLVALUE DUP1 ISZERO PUSH2 0x32D JUMPI PUSH1 0x0 DUP1 REVERT JUMPDEST POP PUSH2 0x116 PUSH2 0x33C CALLDATASIZE PUSH1 0x4 PUSH2 0x1457 JUMP JUMPDEST PUSH2 0x994 JUMP JUMPDEST CALLVALUE DUP1 ISZERO PUSH2 0x34D JUMPI PUSH1 0x0 DUP1 REVERT JUMPDEST POP PUSH2 0x193 PUSH32 0x0 DUP2 JUMP JUMPDEST CALLVALUE DUP1 ISZERO PUSH2 0x381 JUMPI PUSH1 0x0 DUP1 REVERT JUMPDEST POP PUSH2 0x278 PUSH2 0x390 CALLDATASIZE PUSH1 0x4 PUSH2 0x1474 JUMP JUMPDEST PUSH2 0x9D2 JUMP JUMPDEST PUSH32 0x0 PUSH1 0x1 PUSH1 0x1 PUSH1 0xA0 SHL SUB AND CALLER EQ PUSH2 0x3E5 JUMPI PUSH1 0x40 MLOAD PUSH4 0x91AC5E4F PUSH1 0xE0 SHL DUP2 MSTORE CALLER PUSH1 0x4 DUP3 ADD MSTORE PUSH1 0x24 ADD JUMPDEST PUSH1 0x40 MLOAD DUP1 SWAP2 SUB SWAP1 REVERT JUMPDEST PUSH1 0x20 DUP8 ADD DUP1 CALLDATALOAD SWAP1 PUSH2 0x3FF SWAP1 PUSH2 0x3FA SWAP1 DUP11 PUSH2 0x1435 JUMP JUMPDEST PUSH2 0xA08 JUMP JUMPDEST EQ PUSH2 0x43D JUMPI PUSH2 0x411 PUSH1 0x20 DUP9 ADD DUP9 PUSH2 0x1435 JUMP JUMPDEST PUSH1 0x40 MLOAD PUSH4 0x309AFAF3 PUSH1 0xE2 SHL DUP2 MSTORE PUSH4 0xFFFFFFFF SWAP1 SWAP2 AND PUSH1 0x4 DUP3 ADD MSTORE PUSH1 0x20 DUP9 ADD CALLDATALOAD PUSH1 0x24 DUP3 ADD MSTORE PUSH1 0x44 ADD PUSH2 0x3DC JUMP JUMPDEST POP POP POP POP POP POP POP JUMP JUMPDEST PUSH2 0x44E PUSH2 0xA4A JUMP JUMPDEST PUSH2 0x458 DUP3 DUP3 PUSH2 0xA77 JUMP JUMPDEST POP POP JUMP JUMPDEST PUSH2 0x464 PUSH2 0xACC JUMP JUMPDEST PUSH1 0x0 DUP7 MLOAD GT PUSH2 0x4A2 JUMPI PUSH1 0x40 MLOAD PUSH3 0x461BCD PUSH1 0xE5 SHL DUP2 MSTORE PUSH1 0x20 PUSH1 0x4 DUP3 ADD MSTORE PUSH1 0xA PUSH1 0x24 DUP3 ADD MSTORE PUSH10 0x4E616D6520656D707479 PUSH1 0xB0 SHL PUSH1 0x44 DUP3 ADD MSTORE PUSH1 0x64 ADD PUSH2 0x3DC JUMP JUMPDEST PUSH1 0x0 DUP6 MLOAD GT PUSH2 0x4E2 JUMPI PUSH1 0x40 MLOAD PUSH3 0x461BCD PUSH1 0xE5 SHL DUP2 MSTORE PUSH1 0x20 PUSH1 0x4 DUP3 ADD MSTORE PUSH1 0xC PUSH1 0x24 DUP3 ADD MSTORE PUSH12 0x536B696C6C7320656D707479 PUSH1 0xA0 SHL PUSH1 0x44 DUP3 ADD MSTORE PUSH1 0x64 ADD PUSH2 0x3DC JUMP JUMPDEST PUSH1 0x0 DUP4 GT PUSH2 0x522 JUMPI PUSH1 0x40 MLOAD PUSH3 0x461BCD PUSH1 0xE5 SHL DUP2 MSTORE PUSH1 0x20 PUSH1 0x4 DUP3 ADD MSTORE PUSH1 0xD PUSH1 0x24 DUP3 ADD MSTORE PUSH13 0x5553445420666565207A65726F PUSH1 0x98 SHL PUSH1 0x44 DUP3 ADD MSTORE PUSH1 0x64 ADD PUSH2 0x3DC JUMP JUMPDEST PUSH1 0x40 MLOAD PUSH4 0x23B872DD PUSH1 0xE0 SHL DUP2 MSTORE CALLER PUSH1 0x4 DUP3 ADD MSTORE ADDRESS PUSH1 0x24 DUP3 ADD MSTORE PUSH1 0x44 DUP2 ADD DUP5 SWAP1 MSTORE PUSH32 0x0 PUSH1 0x1 PUSH1 0x1 PUSH1 0xA0 SHL SUB AND SWAP1 PUSH4 0x23B872DD SWAP1 PUSH1 0x64 ADD PUSH1 0x20 PUSH1 0x40 MLOAD DUP1 DUP4 SUB DUP2 PUSH1 0x0 DUP8 GAS CALL ISZERO DUP1 ISZERO PUSH2 0x595 JUMPI RETURNDATASIZE PUSH1 0x0 DUP1 RETURNDATACOPY RETURNDATASIZE PUSH1 0x0 REVERT JUMPDEST POP POP POP POP PUSH1 0x40 MLOAD RETURNDATASIZE PUSH1 0x1F NOT PUSH1 0x1F DUP3 ADD AND DUP3 ADD DUP1 PUSH1 0x40 MSTORE POP DUP2 ADD SWAP1 PUSH2 0x5B9 SWAP2 SWAP1 PUSH2 0x1490 JUMP JUMPDEST PUSH2 0x5FC JUMPI PUSH1 0x40 MLOAD PUSH3 0x461BCD PUSH1 0xE5 SHL DUP2 MSTORE PUSH1 0x20 PUSH1 0x4 DUP3 ADD MSTORE PUSH1 0x14 PUSH1 0x24 DUP3 ADD MSTORE PUSH20 0x1554D115081D1C985B9CD9995C8819985A5B1959 PUSH1 0x62 SHL PUSH1 0x44 DUP3 ADD MSTORE PUSH1 0x64 ADD PUSH2 0x3DC JUMP JUMPDEST PUSH1 0x0 CALLER DUP8 DUP8 DUP8 PUSH1 0x40 MLOAD PUSH1 0x20 ADD PUSH2 0x615 SWAP5 SWAP4 SWAP3 SWAP2 SWAP1 PUSH2 0x14F8 JUMP JUMPDEST PUSH1 0x40 DUP1 MLOAD PUSH1 0x1F NOT DUP2 DUP5 SUB ADD DUP2 MSTORE PUSH1 0x20 PUSH1 0x1F DUP7 ADD DUP2 SWAP1 DIV DUP2 MUL DUP5 ADD DUP2 ADD SWAP1 SWAP3 MSTORE DUP5 DUP4 MSTORE SWAP3 POP PUSH1 0x0 SWAP2 PUSH2 0x664 SWAP2 DUP12 SWAP2 DUP6 SWAP2 DUP9 SWAP1 DUP9 SWAP1 DUP2 SWAP1 DUP5 ADD DUP4 DUP3 DUP1 DUP3 DUP5 CALLDATACOPY PUSH1 0x0 SWAP3 ADD DUP3 SWAP1 MSTORE POP SWAP3 POP PUSH2 0xB23 SWAP2 POP POP JUMP JUMPDEST DUP1 MLOAD SWAP1 SWAP2 POP CALLVALUE LT ISZERO PUSH2 0x6AD JUMPI PUSH1 0x40 MLOAD PUSH3 0x461BCD PUSH1 0xE5 SHL DUP2 MSTORE PUSH1 0x20 PUSH1 0x4 DUP3 ADD MSTORE PUSH1 0x12 PUSH1 0x24 DUP3 ADD MSTORE PUSH18 0x4E61746976652066656520746F6F206C6F77 PUSH1 0x70 SHL PUSH1 0x44 DUP3 ADD MSTORE PUSH1 0x64 ADD PUSH2 0x3DC JUMP JUMPDEST PUSH2 0x705 DUP10 DUP4 DUP7 DUP7 DUP1 DUP1 PUSH1 0x1F ADD PUSH1 0x20 DUP1 SWAP2 DIV MUL PUSH1 0x20 ADD PUSH1 0x40 MLOAD SWAP1 DUP2 ADD PUSH1 0x40 MSTORE DUP1 SWAP4 SWAP3 SWAP2 SWAP1 DUP2 DUP2 MSTORE PUSH1 0x20 ADD DUP4 DUP4 DUP1 DUP3 DUP5 CALLDATACOPY PUSH1 0x0 SWAP3 ADD DUP3 SWAP1 MSTORE POP PUSH1 0x40 DUP1 MLOAD DUP1 DUP3 ADD SWAP1 SWAP2 MSTORE CALLVALUE DUP2 MSTORE PUSH1 0x20 DUP2 ADD SWAP2 SWAP1 SWAP2 MSTORE SWAP3 POP CALLER SWAP2 POP PUSH2 0xC04 SWAP1 POP JUMP JUMPDEST POP CALLER PUSH1 0x1 PUSH1 0x1 PUSH1 0xA0 SHL SUB AND DUP10 PUSH4 0xFFFFFFFF AND PUSH32 0x367DF553A20F9D6A48F562A05A838605D973217C1E3980B1C5D542E2EEAAFB63 DUP11 DUP9 PUSH1 0x40 MLOAD PUSH2 0x748 SWAP3 SWAP2 SWAP1 PUSH2 0x1594 JUMP JUMPDEST PUSH1 0x40 MLOAD DUP1 SWAP2 SUB SWAP1 LOG3 POP POP PUSH2 0x43D PUSH1 0x1 PUSH1 0x2 SSTORE JUMP JUMPDEST PUSH1 0x40 DUP1 MLOAD DUP1 DUP3 ADD SWAP1 SWAP2 MSTORE PUSH1 0x0 DUP1 DUP3 MSTORE PUSH1 0x20 DUP3 ADD MSTORE PUSH2 0x7CF DUP8 CALLER DUP9 DUP9 DUP9 PUSH1 0x40 MLOAD PUSH1 0x20 ADD PUSH2 0x78B SWAP5 SWAP4 SWAP3 SWAP2 SWAP1 PUSH2 0x14F8 JUMP JUMPDEST PUSH1 0x40 DUP1 MLOAD PUSH1 0x1F NOT DUP2 DUP5 SUB ADD DUP2 MSTORE PUSH1 0x20 PUSH1 0x1F DUP9 ADD DUP2 SWAP1 DIV DUP2 MUL DUP5 ADD DUP2 ADD SWAP1 SWAP3 MSTORE DUP7 DUP4 MSTORE SWAP2 SWAP1 DUP8 SWAP1 DUP8 SWAP1 DUP2 SWAP1 DUP5 ADD DUP4 DUP3 DUP1 DUP3 DUP5 CALLDATACOPY PUSH1 0x0 SWAP3 ADD DUP3 SWAP1 MSTORE POP SWAP3 POP PUSH2 0xB23 SWAP2 POP POP JUMP JUMPDEST SWAP8 SWAP7 POP POP POP POP POP POP POP JUMP JUMPDEST PUSH2 0x7E2 PUSH2 0xA4A JUMP JUMPDEST PUSH2 0x7EC PUSH1 0x0 PUSH2 0xD04 JUMP JUMPDEST JUMP JUMPDEST PUSH2 0x7F6 PUSH2 0xA4A JUMP JUMPDEST PUSH1 0x40 MLOAD PUSH4 0xA9059CBB PUSH1 0xE0 SHL DUP2 MSTORE PUSH1 0x1 PUSH1 0x1 PUSH1 0xA0 SHL SUB DUP4 DUP2 AND PUSH1 0x4 DUP4 ADD MSTORE PUSH1 0x24 DUP3 ADD DUP4 SWAP1 MSTORE PUSH32 0x0 AND SWAP1 PUSH4 0xA9059CBB SWAP1 PUSH1 0x44 ADD PUSH1 0x20 PUSH1 0x40 MLOAD DUP1 DUP4 SUB DUP2 PUSH1 0x0 DUP8 GAS CALL ISZERO DUP1 ISZERO PUSH2 0x865 JUMPI RETURNDATASIZE PUSH1 0x0 DUP1 RETURNDATACOPY RETURNDATASIZE PUSH1 0x0 REVERT JUMPDEST POP POP POP POP PUSH1 0x40 MLOAD RETURNDATASIZE PUSH1 0x1F NOT PUSH1 0x1F DUP3 ADD AND DUP3 ADD DUP1 PUSH1 0x40 MSTORE POP DUP2 ADD SWAP1 PUSH2 0x889 SWAP2 SWAP1 PUSH2 0x1490 JUMP JUMPDEST PUSH2 0x8C7 JUMPI PUSH1 0x40 MLOAD PUSH3 0x461BCD PUSH1 0xE5 SHL DUP2 MSTORE PUSH1 0x20 PUSH1 0x4 DUP3 ADD MSTORE PUSH1 0xF PUSH1 0x24 DUP3 ADD MSTORE PUSH15 0x15DA5D1A191C985DC819985A5B1959 PUSH1 0x8A SHL PUSH1 0x44 DUP3 ADD MSTORE PUSH1 0x64 ADD PUSH2 0x3DC JUMP JUMPDEST DUP2 PUSH1 0x1 PUSH1 0x1 PUSH1 0xA0 SHL SUB AND PUSH32 0xC0819C13BE868895EB93E40EACEB96DE976442FA1D404E5C55F14BB65A8C489A DUP3 PUSH1 0x40 MLOAD PUSH2 0x902 SWAP2 DUP2 MSTORE PUSH1 0x20 ADD SWAP1 JUMP JUMPDEST PUSH1 0x40 MLOAD DUP1 SWAP2 SUB SWAP1 LOG2 POP POP JUMP JUMPDEST PUSH2 0x916 PUSH2 0xA4A JUMP JUMPDEST PUSH1 0x40 MLOAD PUSH4 0xCA5EB5E1 PUSH1 0xE0 SHL DUP2 MSTORE PUSH1 0x1 PUSH1 0x1 PUSH1 0xA0 SHL SUB DUP3 DUP2 AND PUSH1 0x4 DUP4 ADD MSTORE PUSH32 0x0 AND SWAP1 PUSH4 0xCA5EB5E1 SWAP1 PUSH1 0x24 ADD PUSH1 0x0 PUSH1 0x40 MLOAD DUP1 DUP4 SUB DUP2 PUSH1 0x0 DUP8 DUP1 EXTCODESIZE ISZERO DUP1 ISZERO PUSH2 0x979 JUMPI PUSH1 0x0 DUP1 REVERT JUMPDEST POP GAS CALL ISZERO DUP1 ISZERO PUSH2 0x98D JUMPI RETURNDATASIZE PUSH1 0x0 DUP1 RETURNDATACOPY RETURNDATASIZE PUSH1 0x0 REVERT JUMPDEST POP POP POP POP POP JUMP JUMPDEST PUSH2 0x99C PUSH2 0xA4A JUMP JUMPDEST PUSH1 0x1 PUSH1 0x1 PUSH1 0xA0 SHL SUB DUP2 AND PUSH2 0x9C6 JUMPI PUSH1 0x40 MLOAD PUSH4 0x1E4FBDF7 PUSH1 0xE0 SHL DUP2 MSTORE PUSH1 0x0 PUSH1 0x4 DUP3 ADD MSTORE PUSH1 0x24 ADD PUSH2 0x3DC JUMP JUMPDEST PUSH2 0x9CF DUP2 PUSH2 0xD04 JUMP JUMPDEST POP JUMP JUMPDEST PUSH1 0x0 PUSH1 0x20 DUP3 ADD DUP1 CALLDATALOAD SWAP1 PUSH1 0x1 SWAP1 DUP4 SWAP1 PUSH2 0x9EA SWAP1 DUP7 PUSH2 0x1435 JUMP JUMPDEST PUSH4 0xFFFFFFFF AND DUP2 MSTORE PUSH1 0x20 DUP2 ADD SWAP2 SWAP1 SWAP2 MSTORE PUSH1 0x40 ADD PUSH1 0x0 KECCAK256 SLOAD EQ SWAP3 SWAP2 POP POP JUMP JUMPDEST PUSH4 0xFFFFFFFF DUP2 AND PUSH1 0x0 SWAP1 DUP2 MSTORE PUSH1 0x1 PUSH1 0x20 MSTORE PUSH1 0x40 DUP2 KECCAK256 SLOAD DUP1 PUSH2 0xA44 JUMPI PUSH1 0x40 MLOAD PUSH4 0xF6FF4FB7 PUSH1 0xE0 SHL DUP2 MSTORE PUSH4 0xFFFFFFFF DUP5 AND PUSH1 0x4 DUP3 ADD MSTORE PUSH1 0x24 ADD PUSH2 0x3DC JUMP JUMPDEST SWAP3 SWAP2 POP POP JUMP JUMPDEST PUSH1 0x0 SLOAD PUSH1 0x1 PUSH1 0x1 PUSH1 0xA0 SHL SUB AND CALLER EQ PUSH2 0x7EC JUMPI PUSH1 0x40 MLOAD PUSH4 0x118CDAA7 PUSH1 0xE0 SHL DUP2 MSTORE CALLER PUSH1 0x4 DUP3 ADD MSTORE PUSH1 0x24 ADD PUSH2 0x3DC JUMP JUMPDEST PUSH4 0xFFFFFFFF DUP3 AND PUSH1 0x0 DUP2 DUP2 MSTORE PUSH1 0x1 PUSH1 0x20 SWAP1 DUP2 MSTORE PUSH1 0x40 SWAP2 DUP3 SWAP1 KECCAK256 DUP5 SWAP1 SSTORE DUP2 MLOAD SWAP3 DUP4 MSTORE DUP3 ADD DUP4 SWAP1 MSTORE PUSH32 0x238399D427B947898EDB290F5FF0F9109849B1C3BA196A42E35F00C50A54B98B SWAP2 ADD PUSH1 0x40 MLOAD DUP1 SWAP2 SUB SWAP1 LOG1 POP POP JUMP JUMPDEST PUSH1 0x2 DUP1 SLOAD SUB PUSH2 0xB1D JUMPI PUSH1 0x40 MLOAD PUSH3 0x461BCD PUSH1 0xE5 SHL DUP2 MSTORE PUSH1 0x20 PUSH1 0x4 DUP3 ADD MSTORE PUSH1 0x1F PUSH1 0x24 DUP3 ADD MSTORE PUSH32 0x5265656E7472616E637947756172643A207265656E7472616E742063616C6C00 PUSH1 0x44 DUP3 ADD MSTORE PUSH1 0x64 ADD PUSH2 0x3DC JUMP JUMPDEST PUSH1 0x2 DUP1 SSTORE JUMP JUMPDEST PUSH1 0x40 DUP1 MLOAD DUP1 DUP3 ADD SWAP1 SWAP2 MSTORE PUSH1 0x0 DUP1 DUP3 MSTORE PUSH1 0x20 DUP3 ADD MSTORE PUSH32 0x0 PUSH1 0x1 PUSH1 0x1 PUSH1 0xA0 SHL SUB AND PUSH4 0xDDC28C58 PUSH1 0x40 MLOAD DUP1 PUSH1 0xA0 ADD PUSH1 0x40 MSTORE DUP1 DUP9 PUSH4 0xFFFFFFFF AND DUP2 MSTORE PUSH1 0x20 ADD PUSH2 0xB86 DUP10 PUSH2 0xA08 JUMP JUMPDEST DUP2 MSTORE PUSH1 0x20 ADD DUP8 DUP2 MSTORE PUSH1 0x20 ADD DUP7 DUP2 MSTORE PUSH1 0x20 ADD DUP6 ISZERO ISZERO DUP2 MSTORE POP ADDRESS PUSH1 0x40 MLOAD DUP4 PUSH4 0xFFFFFFFF AND PUSH1 0xE0 SHL DUP2 MSTORE PUSH1 0x4 ADD PUSH2 0xBBB SWAP3 SWAP2 SWAP1 PUSH2 0x15B6 JUMP JUMPDEST PUSH1 0x40 DUP1 MLOAD DUP1 DUP4 SUB DUP2 DUP7 GAS STATICCALL ISZERO DUP1 ISZERO PUSH2 0xBD7 JUMPI RETURNDATASIZE PUSH1 0x0 DUP1 RETURNDATACOPY RETURNDATASIZE PUSH1 0x0 REVERT JUMPDEST POP POP POP POP PUSH1 0x40 MLOAD RETURNDATASIZE PUSH1 0x1F NOT PUSH1 0x1F DUP3 ADD AND DUP3 ADD DUP1 PUSH1 0x40 MSTORE POP DUP2 ADD SWAP1 PUSH2 0xBFB SWAP2 SWAP1 PUSH2 0x167D JUMP JUMPDEST SWAP6 SWAP5 POP POP POP POP POP JUMP JUMPDEST PUSH2 0xC0C PUSH2 0xF25 JUMP JUMPDEST PUSH1 0x0 PUSH2 0xC1B DUP5 PUSH1 0x0 ADD MLOAD PUSH2 0xD54 JUMP JUMPDEST PUSH1 0x20 DUP6 ADD MLOAD SWAP1 SWAP2 POP ISZERO PUSH2 0xC35 JUMPI PUSH2 0xC35 DUP5 PUSH1 0x20 ADD MLOAD PUSH2 0xD7C JUMP JUMPDEST PUSH32 0x0 PUSH1 0x1 PUSH1 0x1 PUSH1 0xA0 SHL SUB AND PUSH4 0x2637A450 DUP3 PUSH1 0x40 MLOAD DUP1 PUSH1 0xA0 ADD PUSH1 0x40 MSTORE DUP1 DUP12 PUSH4 0xFFFFFFFF AND DUP2 MSTORE PUSH1 0x20 ADD PUSH2 0xC85 DUP13 PUSH2 0xA08 JUMP JUMPDEST DUP2 MSTORE PUSH1 0x20 ADD DUP11 DUP2 MSTORE PUSH1 0x20 ADD DUP10 DUP2 MSTORE PUSH1 0x20 ADD PUSH1 0x0 DUP10 PUSH1 0x20 ADD MLOAD GT ISZERO ISZERO DUP2 MSTORE POP DUP7 PUSH1 0x40 MLOAD DUP5 PUSH4 0xFFFFFFFF AND PUSH1 0xE0 SHL DUP2 MSTORE PUSH1 0x4 ADD PUSH2 0xCC1 SWAP3 SWAP2 SWAP1 PUSH2 0x15B6 JUMP JUMPDEST PUSH1 0x80 PUSH1 0x40 MLOAD DUP1 DUP4 SUB DUP2 DUP6 DUP9 GAS CALL ISZERO DUP1 ISZERO PUSH2 0xCDF JUMPI RETURNDATASIZE PUSH1 0x0 DUP1 RETURNDATACOPY RETURNDATASIZE PUSH1 0x0 REVERT JUMPDEST POP POP POP POP POP PUSH1 0x40 MLOAD RETURNDATASIZE PUSH1 0x1F NOT PUSH1 0x1F DUP3 ADD AND DUP3 ADD DUP1 PUSH1 0x40 MSTORE POP DUP2 ADD SWAP1 PUSH2 0x7CF SWAP2 SWAP1 PUSH2 0x1699 JUMP JUMPDEST PUSH1 0x0 DUP1 SLOAD PUSH1 0x1 PUSH1 0x1 PUSH1 0xA0 SHL SUB DUP4 DUP2 AND PUSH1 0x1 PUSH1 0x1 PUSH1 0xA0 SHL SUB NOT DUP4 AND DUP2 OR DUP5 SSTORE PUSH1 0x40 MLOAD SWAP2 SWAP1 SWAP3 AND SWAP3 DUP4 SWAP2 PUSH32 0x8BE0079C531659141344CD1FD0A4F28419497F9722A3DAAFE3B4186F6B6457E0 SWAP2 SWAP1 LOG3 POP POP JUMP JUMPDEST PUSH1 0x0 DUP2 CALLVALUE EQ PUSH2 0xD78 JUMPI PUSH1 0x40 MLOAD PUSH4 0x4FB8209 PUSH1 0xE5 SHL DUP2 MSTORE CALLVALUE PUSH1 0x4 DUP3 ADD MSTORE PUSH1 0x24 ADD PUSH2 0x3DC JUMP JUMPDEST POP SWAP1 JUMP JUMPDEST PUSH1 0x0 PUSH32 0x0 PUSH1 0x1 PUSH1 0x1 PUSH1 0xA0 SHL SUB AND PUSH4 0xE4FE1D94 PUSH1 0x40 MLOAD DUP2 PUSH4 0xFFFFFFFF AND PUSH1 0xE0 SHL DUP2 MSTORE PUSH1 0x4 ADD PUSH1 0x20 PUSH1 0x40 MLOAD DUP1 DUP4 SUB DUP2 DUP7 GAS STATICCALL ISZERO DUP1 ISZERO PUSH2 0xDDC JUMPI RETURNDATASIZE PUSH1 0x0 DUP1 RETURNDATACOPY RETURNDATASIZE PUSH1 0x0 REVERT JUMPDEST POP POP POP POP PUSH1 0x40 MLOAD RETURNDATASIZE PUSH1 0x1F NOT PUSH1 0x1F DUP3 ADD AND DUP3 ADD DUP1 PUSH1 0x40 MSTORE POP DUP2 ADD SWAP1 PUSH2 0xE00 SWAP2 SWAP1 PUSH2 0x170E JUMP JUMPDEST SWAP1 POP PUSH1 0x1 PUSH1 0x1 PUSH1 0xA0 SHL SUB DUP2 AND PUSH2 0xE29 JUMPI PUSH1 0x40 MLOAD PUSH4 0x29B99A95 PUSH1 0xE1 SHL DUP2 MSTORE PUSH1 0x4 ADD PUSH1 0x40 MLOAD DUP1 SWAP2 SUB SWAP1 REVERT JUMPDEST PUSH1 0x40 DUP1 MLOAD CALLER PUSH1 0x24 DUP3 ADD DUP2 SWAP1 MSTORE PUSH32 0x0 PUSH1 0x1 PUSH1 0x1 PUSH1 0xA0 SHL SUB DUP2 DUP2 AND PUSH1 0x44 DUP6 ADD MSTORE PUSH1 0x64 DUP1 DUP6 ADD DUP9 SWAP1 MSTORE DUP6 MLOAD DUP1 DUP7 SUB SWAP1 SWAP2 ADD DUP2 MSTORE PUSH1 0x84 SWAP1 SWAP5 ADD SWAP1 SWAP5 MSTORE PUSH1 0x20 DUP4 ADD DUP1 MLOAD PUSH1 0x1 PUSH1 0x1 PUSH1 0xE0 SHL SUB AND PUSH4 0x23B872DD PUSH1 0xE0 SHL OR SWAP1 MSTORE PUSH2 0x458 SWAP4 DUP6 AND SWAP3 DUP7 SWAP1 PUSH2 0xEAE SWAP1 DUP6 SWAP1 PUSH2 0xEB4 JUMP JUMPDEST POP POP POP POP JUMP JUMPDEST PUSH1 0x0 DUP1 PUSH1 0x20 PUSH1 0x0 DUP5 MLOAD PUSH1 0x20 DUP7 ADD PUSH1 0x0 DUP9 GAS CALL DUP1 PUSH2 0xED7 JUMPI PUSH1 0x40 MLOAD RETURNDATASIZE PUSH1 0x0 DUP3 RETURNDATACOPY RETURNDATASIZE DUP2 REVERT JUMPDEST POP POP PUSH1 0x0 MLOAD RETURNDATASIZE SWAP2 POP DUP2 ISZERO PUSH2 0xEEF JUMPI DUP1 PUSH1 0x1 EQ ISZERO PUSH2 0xEFC JUMP JUMPDEST PUSH1 0x1 PUSH1 0x1 PUSH1 0xA0 SHL SUB DUP5 AND EXTCODESIZE ISZERO JUMPDEST ISZERO PUSH2 0xEAE JUMPI PUSH1 0x40 MLOAD PUSH4 0x5274AFE7 PUSH1 0xE0 SHL DUP2 MSTORE PUSH1 0x1 PUSH1 0x1 PUSH1 0xA0 SHL SUB DUP6 AND PUSH1 0x4 DUP3 ADD MSTORE PUSH1 0x24 ADD PUSH2 0x3DC JUMP JUMPDEST PUSH1 0x40 MLOAD DUP1 PUSH1 0x60 ADD PUSH1 0x40 MSTORE DUP1 PUSH1 0x0 DUP1 NOT AND DUP2 MSTORE PUSH1 0x20 ADD PUSH1 0x0 PUSH1 0x1 PUSH1 0x1 PUSH1 0x40 SHL SUB AND DUP2 MSTORE PUSH1 0x20 ADD PUSH2 0xF67 PUSH1 0x40 MLOAD DUP1 PUSH1 0x40 ADD PUSH1 0x40 MSTORE DUP1 PUSH1 0x0 DUP2 MSTORE PUSH1 0x20 ADD PUSH1 0x0 DUP2 MSTORE POP SWAP1 JUMP JUMPDEST SWAP1 MSTORE SWAP1 JUMP JUMPDEST PUSH1 0x0 PUSH1 0x60 DUP3 DUP5 SUB SLT ISZERO PUSH2 0xF7E JUMPI PUSH1 0x0 DUP1 REVERT JUMPDEST POP SWAP2 SWAP1 POP JUMP JUMPDEST PUSH1 0x0 DUP1 DUP4 PUSH1 0x1F DUP5 ADD SLT PUSH2 0xF96 JUMPI PUSH1 0x0 DUP1 REVERT JUMPDEST POP DUP2 CALLDATALOAD PUSH1 0x1 PUSH1 0x1 PUSH1 0x40 SHL SUB DUP2 GT ISZERO PUSH2 0xFAD JUMPI PUSH1 0x0 DUP1 REVERT JUMPDEST PUSH1 0x20 DUP4 ADD SWAP2 POP DUP4 PUSH1 0x20 DUP3 DUP6 ADD ADD GT ISZERO PUSH2 0xFC5 JUMPI PUSH1 0x0 DUP1 REVERT JUMPDEST SWAP3 POP SWAP3 SWAP1 POP JUMP JUMPDEST PUSH1 0x1 PUSH1 0x1 PUSH1 0xA0 SHL SUB DUP2 AND DUP2 EQ PUSH2 0x9CF JUMPI PUSH1 0x0 DUP1 REVERT JUMPDEST PUSH1 0x0 DUP1 PUSH1 0x0 DUP1 PUSH1 0x0 DUP1 PUSH1 0x0 PUSH1 0xE0 DUP9 DUP11 SUB SLT ISZERO PUSH2 0xFFC JUMPI PUSH1 0x0 DUP1 REVERT JUMPDEST PUSH2 0x1006 DUP10 DUP10 PUSH2 0xF6C JUMP JUMPDEST SWAP7 POP PUSH1 0x60 DUP9 ADD CALLDATALOAD SWAP6 POP PUSH1 0x80 DUP9 ADD CALLDATALOAD PUSH1 0x1 PUSH1 0x1 PUSH1 0x40 SHL SUB DUP2 GT ISZERO PUSH2 0x1028 JUMPI PUSH1 0x0 DUP1 REVERT JUMPDEST PUSH2 0x1034 DUP11 DUP3 DUP12 ADD PUSH2 0xF84 JUMP JUMPDEST SWAP1 SWAP7 POP SWAP5 POP POP PUSH1 0xA0 DUP9 ADD CALLDATALOAD PUSH2 0x1048 DUP2 PUSH2 0xFCC JUMP JUMPDEST SWAP3 POP PUSH1 0xC0 DUP9 ADD CALLDATALOAD PUSH1 0x1 PUSH1 0x1 PUSH1 0x40 SHL SUB DUP2 GT ISZERO PUSH2 0x1063 JUMPI PUSH1 0x0 DUP1 REVERT JUMPDEST PUSH2 0x106F DUP11 DUP3 DUP12 ADD PUSH2 0xF84 JUMP JUMPDEST SWAP9 SWAP12 SWAP8 SWAP11 POP SWAP6 SWAP9 POP SWAP4 SWAP7 SWAP3 SWAP6 SWAP3 SWAP4 POP POP POP JUMP JUMPDEST DUP1 CALLDATALOAD PUSH4 0xFFFFFFFF DUP2 AND DUP2 EQ PUSH2 0x1096 JUMPI PUSH1 0x0 DUP1 REVERT JUMPDEST SWAP2 SWAP1 POP JUMP JUMPDEST PUSH1 0x0 DUP1 PUSH1 0x40 DUP4 DUP6 SUB SLT ISZERO PUSH2 0x10AE JUMPI PUSH1 0x0 DUP1 REVERT JUMPDEST PUSH2 0x10B7 DUP4 PUSH2 0x1082 JUMP JUMPDEST SWAP5 PUSH1 0x20 SWAP4 SWAP1 SWAP4 ADD CALLDATALOAD SWAP4 POP POP POP JUMP JUMPDEST PUSH4 0x4E487B71 PUSH1 0xE0 SHL PUSH1 0x0 MSTORE PUSH1 0x41 PUSH1 0x4 MSTORE PUSH1 0x24 PUSH1 0x0 REVERT JUMPDEST PUSH1 0x40 MLOAD PUSH1 0x1F DUP3 ADD PUSH1 0x1F NOT AND DUP2 ADD PUSH1 0x1 PUSH1 0x1 PUSH1 0x40 SHL SUB DUP2 GT DUP3 DUP3 LT OR ISZERO PUSH2 0x1103 JUMPI PUSH2 0x1103 PUSH2 0x10C5 JUMP JUMPDEST PUSH1 0x40 MSTORE SWAP2 SWAP1 POP JUMP JUMPDEST PUSH1 0x0 DUP3 PUSH1 0x1F DUP4 ADD SLT PUSH2 0x111C JUMPI PUSH1 0x0 DUP1 REVERT JUMPDEST DUP2 CALLDATALOAD PUSH1 0x1 PUSH1 0x1 PUSH1 0x40 SHL SUB DUP2 GT ISZERO PUSH2 0x1135 JUMPI PUSH2 0x1135 PUSH2 0x10C5 JUMP JUMPDEST PUSH2 0x1148 PUSH1 0x1F DUP3 ADD PUSH1 0x1F NOT AND PUSH1 0x20 ADD PUSH2 0x10DB JUMP JUMPDEST DUP2 DUP2 MSTORE DUP5 PUSH1 0x20 DUP4 DUP7 ADD ADD GT ISZERO PUSH2 0x115D JUMPI PUSH1 0x0 DUP1 REVERT JUMPDEST DUP2 PUSH1 0x20 DUP6 ADD PUSH1 0x20 DUP4 ADD CALLDATACOPY PUSH1 0x0 SWAP2 DUP2 ADD PUSH1 0x20 ADD SWAP2 SWAP1 SWAP2 MSTORE SWAP4 SWAP3 POP POP POP JUMP JUMPDEST PUSH1 0x0 DUP3 PUSH1 0x1F DUP4 ADD SLT PUSH2 0x118B JUMPI PUSH1 0x0 DUP1 REVERT JUMPDEST DUP2 CALLDATALOAD PUSH1 0x1 PUSH1 0x1 PUSH1 0x40 SHL SUB DUP2 GT ISZERO PUSH2 0x11A4 JUMPI PUSH2 0x11A4 PUSH2 0x10C5 JUMP JUMPDEST DUP1 PUSH1 0x5 SHL PUSH2 0x11B4 PUSH1 0x20 DUP3 ADD PUSH2 0x10DB JUMP JUMPDEST SWAP2 DUP3 MSTORE PUSH1 0x20 DUP2 DUP6 ADD DUP2 ADD SWAP3 SWAP1 DUP2 ADD SWAP1 DUP7 DUP5 GT ISZERO PUSH2 0x11D0 JUMPI PUSH1 0x0 DUP1 REVERT JUMPDEST PUSH1 0x20 DUP7 ADD SWAP3 POP JUMPDEST DUP4 DUP4 LT ISZERO PUSH2 0x1216 JUMPI DUP3 CALLDATALOAD PUSH1 0x1 PUSH1 0x1 PUSH1 0x40 SHL SUB DUP2 GT ISZERO PUSH2 0x11F5 JUMPI PUSH1 0x0 DUP1 REVERT JUMPDEST PUSH2 0x1204 DUP9 PUSH1 0x20 DUP4 DUP11 ADD ADD PUSH2 0x110B JUMP JUMPDEST DUP4 MSTORE POP PUSH1 0x20 SWAP3 DUP4 ADD SWAP3 SWAP1 SWAP2 ADD SWAP1 PUSH2 0x11D7 JUMP JUMPDEST SWAP7 SWAP6 POP POP POP POP POP POP JUMP JUMPDEST PUSH1 0x0 DUP1 PUSH1 0x0 DUP1 PUSH1 0x0 DUP1 PUSH1 0x0 PUSH1 0xC0 DUP9 DUP11 SUB SLT ISZERO PUSH2 0x123B JUMPI PUSH1 0x0 DUP1 REVERT JUMPDEST PUSH2 0x1244 DUP9 PUSH2 0x1082 JUMP JUMPDEST SWAP7 POP PUSH1 0x20 DUP9 ADD CALLDATALOAD PUSH1 0x1 PUSH1 0x1 PUSH1 0x40 SHL SUB DUP2 GT ISZERO PUSH2 0x125F JUMPI PUSH1 0x0 DUP1 REVERT JUMPDEST PUSH2 0x126B DUP11 DUP3 DUP12 ADD PUSH2 0x110B JUMP JUMPDEST SWAP7 POP POP PUSH1 0x40 DUP9 ADD CALLDATALOAD PUSH1 0x1 PUSH1 0x1 PUSH1 0x40 SHL SUB DUP2 GT ISZERO PUSH2 0x1287 JUMPI PUSH1 0x0 DUP1 REVERT JUMPDEST PUSH2 0x1293 DUP11 DUP3 DUP12 ADD PUSH2 0x117A JUMP JUMPDEST SWAP6 POP POP PUSH1 0x60 DUP9 ADD CALLDATALOAD PUSH1 0x1 PUSH1 0x1 PUSH1 0x40 SHL SUB DUP2 GT ISZERO PUSH2 0x12AF JUMPI PUSH1 0x0 DUP1 REVERT JUMPDEST PUSH2 0x12BB DUP11 DUP3 DUP12 ADD PUSH2 0x110B JUMP JUMPDEST SWAP5 POP POP PUSH1 0x80 DUP9 ADD CALLDATALOAD SWAP3 POP PUSH1 0xA0 DUP9 ADD CALLDATALOAD PUSH1 0x1 PUSH1 0x1 PUSH1 0x40 SHL SUB DUP2 GT ISZERO PUSH2 0x1063 JUMPI PUSH1 0x0 DUP1 REVERT JUMPDEST PUSH1 0x0 DUP1 PUSH1 0x0 DUP1 PUSH1 0x0 DUP1 PUSH1 0xA0 DUP8 DUP10 SUB SLT ISZERO PUSH2 0x12F7 JUMPI PUSH1 0x0 DUP1 REVERT JUMPDEST PUSH2 0x1300 DUP8 PUSH2 0x1082 JUMP JUMPDEST SWAP6 POP PUSH1 0x20 DUP8 ADD CALLDATALOAD PUSH1 0x1 PUSH1 0x1 PUSH1 0x40 SHL SUB DUP2 GT ISZERO PUSH2 0x131B JUMPI PUSH1 0x0 DUP1 REVERT JUMPDEST PUSH2 0x1327 DUP10 DUP3 DUP11 ADD PUSH2 0x110B JUMP JUMPDEST SWAP6 POP POP PUSH1 0x40 DUP8 ADD CALLDATALOAD PUSH1 0x1 PUSH1 0x1 PUSH1 0x40 SHL SUB DUP2 GT ISZERO PUSH2 0x1343 JUMPI PUSH1 0x0 DUP1 REVERT JUMPDEST PUSH2 0x134F DUP10 DUP3 DUP11 ADD PUSH2 0x117A JUMP JUMPDEST SWAP5 POP POP PUSH1 0x60 DUP8 ADD CALLDATALOAD PUSH1 0x1 PUSH1 0x1 PUSH1 0x40 SHL SUB DUP2 GT ISZERO PUSH2 0x136B JUMPI PUSH1 0x0 DUP1 REVERT JUMPDEST PUSH2 0x1377 DUP10 DUP3 DUP11 ADD PUSH2 0x110B JUMP JUMPDEST SWAP4 POP POP PUSH1 0x80 DUP8 ADD CALLDATALOAD PUSH1 0x1 PUSH1 0x1 PUSH1 0x40 SHL SUB DUP2 GT ISZERO PUSH2 0x1393 JUMPI PUSH1 0x0 DUP1 REVERT JUMPDEST PUSH2 0x139F DUP10 DUP3 DUP11 ADD PUSH2 0xF84 JUMP JUMPDEST SWAP8 SWAP11 SWAP7 SWAP10 POP SWAP5 SWAP8 POP SWAP3 SWAP6 SWAP4 SWAP5 SWAP3 POP POP POP JUMP JUMPDEST PUSH1 0x0 DUP1 PUSH1 0x0 DUP1 PUSH1 0xA0 DUP6 DUP8 SUB SLT ISZERO PUSH2 0x13C7 JUMPI PUSH1 0x0 DUP1 REVERT JUMPDEST PUSH2 0x13D1 DUP7 DUP7 PUSH2 0xF6C JUMP JUMPDEST SWAP4 POP PUSH1 0x60 DUP6 ADD CALLDATALOAD PUSH1 0x1 PUSH1 0x1 PUSH1 0x40 SHL SUB DUP2 GT ISZERO PUSH2 0x13EC JUMPI PUSH1 0x0 DUP1 REVERT JUMPDEST PUSH2 0x13F8 DUP8 DUP3 DUP9 ADD PUSH2 0xF84 JUMP JUMPDEST SWAP1 SWAP5 POP SWAP3 POP POP PUSH1 0x80 DUP6 ADD CALLDATALOAD PUSH2 0x140C DUP2 PUSH2 0xFCC JUMP JUMPDEST SWAP4 SWAP7 SWAP3 SWAP6 POP SWAP1 SWAP4 POP POP JUMP JUMPDEST PUSH1 0x0 DUP1 PUSH1 0x40 DUP4 DUP6 SUB SLT ISZERO PUSH2 0x142A JUMPI PUSH1 0x0 DUP1 REVERT JUMPDEST DUP3 CALLDATALOAD PUSH2 0x10B7 DUP2 PUSH2 0xFCC JUMP JUMPDEST PUSH1 0x0 PUSH1 0x20 DUP3 DUP5 SUB SLT ISZERO PUSH2 0x1447 JUMPI PUSH1 0x0 DUP1 REVERT JUMPDEST PUSH2 0x1450 DUP3 PUSH2 0x1082 JUMP JUMPDEST SWAP4 SWAP3 POP POP POP JUMP JUMPDEST PUSH1 0x0 PUSH1 0x20 DUP3 DUP5 SUB SLT ISZERO PUSH2 0x1469 JUMPI PUSH1 0x0 DUP1 REVERT JUMPDEST DUP2 CALLDATALOAD PUSH2 0x1450 DUP2 PUSH2 0xFCC JUMP JUMPDEST PUSH1 0x0 PUSH1 0x60 DUP3 DUP5 SUB SLT ISZERO PUSH2 0x1486 JUMPI PUSH1 0x0 DUP1 REVERT JUMPDEST PUSH2 0x1450 DUP4 DUP4 PUSH2 0xF6C JUMP JUMPDEST PUSH1 0x0 PUSH1 0x20 DUP3 DUP5 SUB SLT ISZERO PUSH2 0x14A2 JUMPI PUSH1 0x0 DUP1 REVERT JUMPDEST DUP2 MLOAD DUP1 ISZERO ISZERO DUP2 EQ PUSH2 0x1450 JUMPI PUSH1 0x0 DUP1 REVERT JUMPDEST PUSH1 0x0 DUP2 MLOAD DUP1 DUP5 MSTORE PUSH1 0x0 JUMPDEST DUP2 DUP2 LT ISZERO PUSH2 0x14D8 JUMPI PUSH1 0x20 DUP2 DUP6 ADD DUP2 ADD MLOAD DUP7 DUP4 ADD DUP3 ADD MSTORE ADD PUSH2 0x14BC JUMP JUMPDEST POP PUSH1 0x0 PUSH1 0x20 DUP3 DUP7 ADD ADD MSTORE PUSH1 0x20 PUSH1 0x1F NOT PUSH1 0x1F DUP4 ADD AND DUP6 ADD ADD SWAP2 POP POP SWAP3 SWAP2 POP POP JUMP JUMPDEST PUSH1 0x1 PUSH1 0x1 PUSH1 0xA0 SHL SUB DUP6 AND DUP2 MSTORE PUSH1 0x80 PUSH1 0x20 DUP3 ADD DUP2 SWAP1 MSTORE PUSH1 0x0 SWAP1 PUSH2 0x151C SWAP1 DUP4 ADD DUP7 PUSH2 0x14B2 JUMP JUMPDEST DUP3 DUP2 SUB PUSH1 0x40 DUP5 ADD MSTORE DUP1 DUP6 MLOAD DUP1 DUP4 MSTORE PUSH1 0x20 DUP4 ADD SWAP2 POP PUSH1 0x20 DUP2 PUSH1 0x5 SHL DUP5 ADD ADD PUSH1 0x20 DUP9 ADD PUSH1 0x0 JUMPDEST DUP4 DUP2 LT ISZERO PUSH2 0x1572 JUMPI PUSH1 0x1F NOT DUP7 DUP5 SUB ADD DUP6 MSTORE PUSH2 0x155C DUP4 DUP4 MLOAD PUSH2 0x14B2 JUMP JUMPDEST PUSH1 0x20 SWAP6 DUP7 ADD SWAP6 SWAP1 SWAP4 POP SWAP2 SWAP1 SWAP2 ADD SWAP1 PUSH1 0x1 ADD PUSH2 0x1540 JUMP JUMPDEST POP POP DUP6 DUP2 SUB PUSH1 0x60 DUP8 ADD MSTORE PUSH2 0x1586 DUP2 DUP9 PUSH2 0x14B2 JUMP JUMPDEST SWAP11 SWAP10 POP POP POP POP POP POP POP POP POP POP JUMP JUMPDEST PUSH1 0x40 DUP2 MSTORE PUSH1 0x0 PUSH2 0x15A7 PUSH1 0x40 DUP4 ADD DUP6 PUSH2 0x14B2 JUMP JUMPDEST SWAP1 POP DUP3 PUSH1 0x20 DUP4 ADD MSTORE SWAP4 SWAP3 POP POP POP JUMP JUMPDEST PUSH1 0x40 DUP2 MSTORE PUSH4 0xFFFFFFFF DUP4 MLOAD AND PUSH1 0x40 DUP3 ADD MSTORE PUSH1 0x20 DUP4 ADD MLOAD PUSH1 0x60 DUP3 ADD MSTORE PUSH1 0x0 PUSH1 0x40 DUP5 ADD MLOAD PUSH1 0xA0 PUSH1 0x80 DUP5 ADD MSTORE PUSH2 0x15EC PUSH1 0xE0 DUP5 ADD DUP3 PUSH2 0x14B2 JUMP JUMPDEST SWAP1 POP PUSH1 0x60 DUP6 ADD MLOAD PUSH1 0x3F NOT DUP5 DUP4 SUB ADD PUSH1 0xA0 DUP6 ADD MSTORE PUSH2 0x1609 DUP3 DUP3 PUSH2 0x14B2 JUMP JUMPDEST PUSH1 0x80 SWAP7 SWAP1 SWAP7 ADD MLOAD ISZERO ISZERO PUSH1 0xC0 DUP6 ADD MSTORE POP POP POP PUSH1 0x1 PUSH1 0x1 PUSH1 0xA0 SHL SUB SWAP2 SWAP1 SWAP2 AND PUSH1 0x20 SWAP1 SWAP2 ADD MSTORE SWAP1 JUMP JUMPDEST PUSH1 0x0 PUSH1 0x40 DUP3 DUP5 SUB SLT ISZERO PUSH2 0x1641 JUMPI PUSH1 0x0 DUP1 REVERT JUMPDEST PUSH1 0x40 DUP1 MLOAD SWAP1 DUP2 ADD PUSH1 0x1 PUSH1 0x1 PUSH1 0x40 SHL SUB DUP2 GT DUP3 DUP3 LT OR ISZERO PUSH2 0x1663 JUMPI PUSH2 0x1663 PUSH2 0x10C5 JUMP JUMPDEST PUSH1 0x40 MSTORE DUP3 MLOAD DUP2 MSTORE PUSH1 0x20 SWAP3 DUP4 ADD MLOAD SWAP3 DUP2 ADD SWAP3 SWAP1 SWAP3 MSTORE POP SWAP2 SWAP1 POP JUMP JUMPDEST PUSH1 0x0 PUSH1 0x40 DUP3 DUP5 SUB SLT ISZERO PUSH2 0x168F JUMPI PUSH1 0x0 DUP1 REVERT JUMPDEST PUSH2 0x1450 DUP4 DUP4 PUSH2 0x162F JUMP JUMPDEST PUSH1 0x0 PUSH1 0x80 DUP3 DUP5 SUB SLT DUP1 ISZERO PUSH2 0x16AC JUMPI PUSH1 0x0 DUP1 REVERT JUMPDEST POP PUSH1 0x40 MLOAD PUSH1 0x60 DUP2 ADD PUSH1 0x1 PUSH1 0x1 PUSH1 0x40 SHL SUB DUP2 GT DUP3 DUP3 LT OR ISZERO PUSH2 0x16CF JUMPI PUSH2 0x16CF PUSH2 0x10C5 JUMP JUMPDEST PUSH1 0x40 MSTORE DUP3 MLOAD DUP2 MSTORE PUSH1 0x20 DUP4 ADD MLOAD PUSH1 0x1 PUSH1 0x1 PUSH1 0x40 SHL SUB DUP2 AND DUP2 EQ PUSH2 0x16F0 JUMPI PUSH1 0x0 DUP1 REVERT JUMPDEST PUSH1 0x20 DUP3 ADD MSTORE PUSH2 0x1702 DUP5 PUSH1 0x40 DUP6 ADD PUSH2 0x162F JUMP JUMPDEST PUSH1 0x40 DUP3 ADD MSTORE SWAP4 SWAP3 POP POP POP JUMP JUMPDEST PUSH1 0x0 PUSH1 0x20 DUP3 DUP5 SUB SLT ISZERO PUSH2 0x1720 JUMPI PUSH1 0x0 DUP1 REVERT JUMPDEST DUP2 MLOAD PUSH2 0x1450 DUP2 PUSH2 0xFCC JUMP INVALID LOG2 PUSH5 0x6970667358 0x22 SLT KECCAK256 PUSH21 0xCDE31FCB521E3EB59BC6CD03199AA6EF1A2EF26282 DUP3 0xC 0xBA 0xF7 CALLDATACOPY 0xE2 SHR DELEGATECALL 0xEB CALL PUSH5 0x736F6C6343 STOP ADDMOD SHR STOP CALLER "
				},
				"gasEstimates": {
					"creation": {
						"codeDepositCost": "1197000",
						"executionCost": "infinite",
						"totalCost": "infinite"
					},
					"external": {
						"allowInitializePath((uint32,bytes32,uint64))": "infinite",
						"createUserProfile(uint32,string,string[],string,uint256,bytes)": "infinite",
						"endpoint()": "infinite",
						"isComposeMsgSender((uint32,bytes32,uint64),bytes,address)": "764",
						"lzReceive((uint32,bytes32,uint64),bytes32,bytes,address,bytes)": "infinite",
						"nextNonce(uint32,bytes32)": "479",
						"oAppVersion()": "230",
						"owner()": "2376",
						"peers(uint32)": "2596",
						"quoteCreateUserProfile(uint32,string,string[],string,bytes)": "infinite",
						"renounceOwnership()": "infinite",
						"setDelegate(address)": "infinite",
						"setPeer(uint32,bytes32)": "26105",
						"transferOwnership(address)": "infinite",
						"usdToken()": "infinite",
						"withdrawFees(address,uint256)": "infinite"
					},
					"internal": {
						"_lzReceive(struct Origin calldata,bytes32,bytes calldata,address,bytes calldata)": "infinite"
					}
				},
				"methodIdentifiers": {
					"allowInitializePath((uint32,bytes32,uint64))": "ff7bd03d",
					"createUserProfile(uint32,string,string[],string,uint256,bytes)": "64bd90eb",
					"endpoint()": "5e280f11",
					"isComposeMsgSender((uint32,bytes32,uint64),bytes,address)": "82413eac",
					"lzReceive((uint32,bytes32,uint64),bytes32,bytes,address,bytes)": "13137d65",
					"nextNonce(uint32,bytes32)": "7d25a05e",
					"oAppVersion()": "17442b70",
					"owner()": "8da5cb5b",
					"peers(uint32)": "bb0b6a53",
					"quoteCreateUserProfile(uint32,string,string[],string,bytes)": "682d54e6",
					"renounceOwnership()": "715018a6",
					"setDelegate(address)": "ca5eb5e1",
					"setPeer(uint32,bytes32)": "3400288b",
					"transferOwnership(address)": "f2fde38b",
					"usdToken()": "f897a22b",
					"withdrawFees(address,uint256)": "ad3b1b47"
				}
			},
			"storageLayout": {
				"storage": [
					{
						"astId": 1327,
						"contract": "bridge samples/profile-with-fee.sol:LocalOpenWorkV2",
						"label": "_owner",
						"offset": 0,
						"slot": "0",
						"type": "t_address"
					},
					{
						"astId": 785,
						"contract": "bridge samples/profile-with-fee.sol:LocalOpenWorkV2",
						"label": "peers",
						"offset": 0,
						"slot": "1",
						"type": "t_mapping(t_uint32,t_bytes32)"
					},
					{
						"astId": 1567,
						"contract": "bridge samples/profile-with-fee.sol:LocalOpenWorkV2",
						"label": "_status",
						"offset": 0,
						"slot": "2",
						"type": "t_uint256"
					}
				],
				"types": {
					"t_address": {
						"encoding": "inplace",
						"label": "address",
						"numberOfBytes": "20"
					},
					"t_bytes32": {
						"encoding": "inplace",
						"label": "bytes32",
						"numberOfBytes": "32"
					},
					"t_mapping(t_uint32,t_bytes32)": {
						"encoding": "mapping",
						"key": "t_uint32",
						"label": "mapping(uint32 => bytes32)",
						"numberOfBytes": "32",
						"value": "t_bytes32"
					},
					"t_uint256": {
						"encoding": "inplace",
						"label": "uint256",
						"numberOfBytes": "32"
					},
					"t_uint32": {
						"encoding": "inplace",
						"label": "uint32",
						"numberOfBytes": "4"
					}
				}
			},
			"userdoc": {
				"kind": "user",
				"methods": {
					"allowInitializePath((uint32,bytes32,uint64))": {
						"notice": "Checks if the path initialization is allowed based on the provided origin."
					},
					"endpoint()": {
						"notice": "Retrieves the LayerZero endpoint associated with the OApp."
					},
					"isComposeMsgSender((uint32,bytes32,uint64),bytes,address)": {
						"notice": "Indicates whether an address is an approved composeMsg sender to the Endpoint."
					},
					"nextNonce(uint32,bytes32)": {
						"notice": "Retrieves the next nonce for a given source endpoint and sender address."
					},
					"oAppVersion()": {
						"notice": "Retrieves the OApp version information."
					},
					"peers(uint32)": {
						"notice": "Retrieves the peer (OApp) associated with a corresponding endpoint."
					},
					"setDelegate(address)": {
						"notice": "Sets the delegate address for the OApp."
					},
					"setPeer(uint32,bytes32)": {
						"notice": "Sets the peer address (OApp instance) for a corresponding endpoint."
					}
				},
				"version": 1
			}
		}
	}
}