{
	"bridge samples/LocalOpenworkSender.sol": {
		"LocalOpenWorkV2": {
			"abi": [
				{
					"inputs": [
						{
							"internalType": "address",
							"name": "_endpoint",
							"type": "address"
						},
						{
							"internalType": "address",
							"name": "_owner",
							"type": "address"
						}
					],
					"stateMutability": "nonpayable",
					"type": "constructor"
				},
				{
					"inputs": [],
					"name": "InvalidDelegate",
					"type": "error"
				},
				{
					"inputs": [],
					"name": "InvalidEndpointCall",
					"type": "error"
				},
				{
					"inputs": [],
					"name": "LzTokenUnavailable",
					"type": "error"
				},
				{
					"inputs": [
						{
							"internalType": "uint32",
							"name": "eid",
							"type": "uint32"
						}
					],
					"name": "NoPeer",
					"type": "error"
				},
				{
					"inputs": [
						{
							"internalType": "uint256",
							"name": "msgValue",
							"type": "uint256"
						}
					],
					"name": "NotEnoughNative",
					"type": "error"
				},
				{
					"inputs": [
						{
							"internalType": "address",
							"name": "addr",
							"type": "address"
						}
					],
					"name": "OnlyEndpoint",
					"type": "error"
				},
				{
					"inputs": [
						{
							"internalType": "uint32",
							"name": "eid",
							"type": "uint32"
						},
						{
							"internalType": "bytes32",
							"name": "sender",
							"type": "bytes32"
						}
					],
					"name": "OnlyPeer",
					"type": "error"
				},
				{
					"inputs": [
						{
							"internalType": "address",
							"name": "owner",
							"type": "address"
						}
					],
					"name": "OwnableInvalidOwner",
					"type": "error"
				},
				{
					"inputs": [
						{
							"internalType": "address",
							"name": "account",
							"type": "address"
						}
					],
					"name": "OwnableUnauthorizedAccount",
					"type": "error"
				},
				{
					"inputs": [
						{
							"internalType": "address",
							"name": "token",
							"type": "address"
						}
					],
					"name": "SafeERC20FailedOperation",
					"type": "error"
				},
				{
					"anonymous": false,
					"inputs": [
						{
							"indexed": true,
							"internalType": "address",
							"name": "previousOwner",
							"type": "address"
						},
						{
							"indexed": true,
							"internalType": "address",
							"name": "newOwner",
							"type": "address"
						}
					],
					"name": "OwnershipTransferred",
					"type": "event"
				},
				{
					"anonymous": false,
					"inputs": [
						{
							"indexed": false,
							"internalType": "uint32",
							"name": "eid",
							"type": "uint32"
						},
						{
							"indexed": false,
							"internalType": "bytes32",
							"name": "peer",
							"type": "bytes32"
						}
					],
					"name": "PeerSet",
					"type": "event"
				},
				{
					"anonymous": false,
					"inputs": [
						{
							"indexed": true,
							"internalType": "uint32",
							"name": "dstEid",
							"type": "uint32"
						},
						{
							"indexed": true,
							"internalType": "address",
							"name": "user",
							"type": "address"
						},
						{
							"indexed": false,
							"internalType": "string",
							"name": "name",
							"type": "string"
						}
					],
					"name": "UserProfileSent",
					"type": "event"
				},
				{
					"inputs": [
						{
							"components": [
								{
									"internalType": "uint32",
									"name": "srcEid",
									"type": "uint32"
								},
								{
									"internalType": "bytes32",
									"name": "sender",
									"type": "bytes32"
								},
								{
									"internalType": "uint64",
									"name": "nonce",
									"type": "uint64"
								}
							],
							"internalType": "struct Origin",
							"name": "origin",
							"type": "tuple"
						}
					],
					"name": "allowInitializePath",
					"outputs": [
						{
							"internalType": "bool",
							"name": "",
							"type": "bool"
						}
					],
					"stateMutability": "view",
					"type": "function"
				},
				{
					"inputs": [
						{
							"internalType": "uint32",
							"name": "_dstEid",
							"type": "uint32"
						},
						{
							"internalType": "string",
							"name": "name",
							"type": "string"
						},
						{
							"internalType": "string[]",
							"name": "skills",
							"type": "string[]"
						},
						{
							"internalType": "string",
							"name": "profileHash",
							"type": "string"
						},
						{
							"internalType": "bytes",
							"name": "_options",
							"type": "bytes"
						}
					],
					"name": "createUserProfile",
					"outputs": [],
					"stateMutability": "payable",
					"type": "function"
				},
				{
					"inputs": [],
					"name": "endpoint",
					"outputs": [
						{
							"internalType": "contract ILayerZeroEndpointV2",
							"name": "",
							"type": "address"
						}
					],
					"stateMutability": "view",
					"type": "function"
				},
				{
					"inputs": [
						{
							"components": [
								{
									"internalType": "uint32",
									"name": "srcEid",
									"type": "uint32"
								},
								{
									"internalType": "bytes32",
									"name": "sender",
									"type": "bytes32"
								},
								{
									"internalType": "uint64",
									"name": "nonce",
									"type": "uint64"
								}
							],
							"internalType": "struct Origin",
							"name": "",
							"type": "tuple"
						},
						{
							"internalType": "bytes",
							"name": "",
							"type": "bytes"
						},
						{
							"internalType": "address",
							"name": "_sender",
							"type": "address"
						}
					],
					"name": "isComposeMsgSender",
					"outputs": [
						{
							"internalType": "bool",
							"name": "",
							"type": "bool"
						}
					],
					"stateMutability": "view",
					"type": "function"
				},
				{
					"inputs": [
						{
							"components": [
								{
									"internalType": "uint32",
									"name": "srcEid",
									"type": "uint32"
								},
								{
									"internalType": "bytes32",
									"name": "sender",
									"type": "bytes32"
								},
								{
									"internalType": "uint64",
									"name": "nonce",
									"type": "uint64"
								}
							],
							"internalType": "struct Origin",
							"name": "_origin",
							"type": "tuple"
						},
						{
							"internalType": "bytes32",
							"name": "_guid",
							"type": "bytes32"
						},
						{
							"internalType": "bytes",
							"name": "_message",
							"type": "bytes"
						},
						{
							"internalType": "address",
							"name": "_executor",
							"type": "address"
						},
						{
							"internalType": "bytes",
							"name": "_extraData",
							"type": "bytes"
						}
					],
					"name": "lzReceive",
					"outputs": [],
					"stateMutability": "payable",
					"type": "function"
				},
				{
					"inputs": [
						{
							"internalType": "uint32",
							"name": "",
							"type": "uint32"
						},
						{
							"internalType": "bytes32",
							"name": "",
							"type": "bytes32"
						}
					],
					"name": "nextNonce",
					"outputs": [
						{
							"internalType": "uint64",
							"name": "nonce",
							"type": "uint64"
						}
					],
					"stateMutability": "view",
					"type": "function"
				},
				{
					"inputs": [],
					"name": "oAppVersion",
					"outputs": [
						{
							"internalType": "uint64",
							"name": "senderVersion",
							"type": "uint64"
						},
						{
							"internalType": "uint64",
							"name": "receiverVersion",
							"type": "uint64"
						}
					],
					"stateMutability": "pure",
					"type": "function"
				},
				{
					"inputs": [],
					"name": "owner",
					"outputs": [
						{
							"internalType": "address",
							"name": "",
							"type": "address"
						}
					],
					"stateMutability": "view",
					"type": "function"
				},
				{
					"inputs": [
						{
							"internalType": "uint32",
							"name": "eid",
							"type": "uint32"
						}
					],
					"name": "peers",
					"outputs": [
						{
							"internalType": "bytes32",
							"name": "peer",
							"type": "bytes32"
						}
					],
					"stateMutability": "view",
					"type": "function"
				},
				{
					"inputs": [
						{
							"internalType": "uint32",
							"name": "_dstEid",
							"type": "uint32"
						},
						{
							"internalType": "string",
							"name": "name",
							"type": "string"
						},
						{
							"internalType": "string[]",
							"name": "skills",
							"type": "string[]"
						},
						{
							"internalType": "string",
							"name": "profileHash",
							"type": "string"
						},
						{
							"internalType": "bytes",
							"name": "_options",
							"type": "bytes"
						}
					],
					"name": "quoteCreateUserProfile",
					"outputs": [
						{
							"components": [
								{
									"internalType": "uint256",
									"name": "nativeFee",
									"type": "uint256"
								},
								{
									"internalType": "uint256",
									"name": "lzTokenFee",
									"type": "uint256"
								}
							],
							"internalType": "struct MessagingFee",
							"name": "",
							"type": "tuple"
						}
					],
					"stateMutability": "view",
					"type": "function"
				},
				{
					"inputs": [],
					"name": "renounceOwnership",
					"outputs": [],
					"stateMutability": "nonpayable",
					"type": "function"
				},
				{
					"inputs": [
						{
							"internalType": "address",
							"name": "_delegate",
							"type": "address"
						}
					],
					"name": "setDelegate",
					"outputs": [],
					"stateMutability": "nonpayable",
					"type": "function"
				},
				{
					"inputs": [
						{
							"internalType": "uint32",
							"name": "_eid",
							"type": "uint32"
						},
						{
							"internalType": "bytes32",
							"name": "_peer",
							"type": "bytes32"
						}
					],
					"name": "setPeer",
					"outputs": [],
					"stateMutability": "nonpayable",
					"type": "function"
				},
				{
					"inputs": [
						{
							"internalType": "address",
							"name": "newOwner",
							"type": "address"
						}
					],
					"name": "transferOwnership",
					"outputs": [],
					"stateMutability": "nonpayable",
					"type": "function"
				},
				{
					"stateMutability": "payable",
					"type": "receive"
				}
			],
			"devdoc": {
				"details": "LayerZero V2 OApp for managing local chain operations and cross-chain profile creation",
				"errors": {
					"OwnableInvalidOwner(address)": [
						{
							"details": "The owner is not a valid owner account. (eg. `address(0)`)"
						}
					],
					"OwnableUnauthorizedAccount(address)": [
						{
							"details": "The caller account is not authorized to perform an operation."
						}
					],
					"SafeERC20FailedOperation(address)": [
						{
							"details": "An operation with an ERC-20 token failed."
						}
					]
				},
				"kind": "dev",
				"methods": {
					"allowInitializePath((uint32,bytes32,uint64))": {
						"details": "This indicates to the endpoint that the OApp has enabled msgs for this particular path to be received.This defaults to assuming if a peer has been set, its initialized. Can be overridden by the OApp if there is other logic to determine this.",
						"params": {
							"origin": "The origin information containing the source endpoint and sender address."
						},
						"returns": {
							"_0": "Whether the path has been initialized."
						}
					},
					"createUserProfile(uint32,string,string[],string,bytes)": {
						"details": "Create a user profile - sends a cross-chain message to the User Registry"
					},
					"isComposeMsgSender((uint32,bytes32,uint64),bytes,address)": {
						"details": "_origin The origin information containing the source endpoint and sender address.  - srcEid: The source chain endpoint ID.  - sender: The sender address on the src chain.  - nonce: The nonce of the message._message The lzReceive payload.Applications can optionally choose to implement separate composeMsg senders that are NOT the bridging layer.The default sender IS the OAppReceiver implementer.",
						"params": {
							"_sender": "The sender address."
						},
						"returns": {
							"_0": "isSender Is a valid sender."
						}
					},
					"lzReceive((uint32,bytes32,uint64),bytes32,bytes,address,bytes)": {
						"details": "Entry point for receiving messages or packets from the endpoint.Entry point for receiving msg/packet from the LayerZero endpoint.",
						"params": {
							"_executor": "The address of the executor for the received message.",
							"_extraData": "Additional arbitrary data provided by the corresponding executor.",
							"_guid": "The unique identifier for the received LayerZero message.",
							"_message": "The payload of the received message.",
							"_origin": "The origin information containing the source endpoint and sender address.  - srcEid: The source chain endpoint ID.  - sender: The sender address on the src chain.  - nonce: The nonce of the message."
						}
					},
					"nextNonce(uint32,bytes32)": {
						"details": "_srcEid The source endpoint ID._sender The sender address.The path nonce starts from 1. If 0 is returned it means that there is NO nonce ordered enforcement.Is required by the off-chain executor to determine the OApp expects msg execution is ordered.This is also enforced by the OApp.By default this is NOT enabled. ie. nextNonce is hardcoded to return 0.",
						"returns": {
							"nonce": "The next nonce."
						}
					},
					"oAppVersion()": {
						"returns": {
							"receiverVersion": "The version of the OAppReceiver.sol implementation.",
							"senderVersion": "The version of the OAppSender.sol implementation."
						}
					},
					"owner()": {
						"details": "Returns the address of the current owner."
					},
					"quoteCreateUserProfile(uint32,string,string[],string,bytes)": {
						"details": "Quote the fee for creating a user profile cross-chain"
					},
					"renounceOwnership()": {
						"details": "Leaves the contract without owner. It will not be possible to call `onlyOwner` functions. Can only be called by the current owner. NOTE: Renouncing ownership will leave the contract without an owner, thereby disabling any functionality that is only available to the owner."
					},
					"setDelegate(address)": {
						"details": "Only the owner/admin of the OApp can call this function.Provides the ability for a delegate to set configs, on behalf of the OApp, directly on the Endpoint contract.",
						"params": {
							"_delegate": "The address of the delegate to be set."
						}
					},
					"setPeer(uint32,bytes32)": {
						"details": "Only the owner/admin of the OApp can call this function.Indicates that the peer is trusted to send LayerZero messages to this OApp.Set this to bytes32(0) to remove the peer address.Peer is a bytes32 to accommodate non-evm chains.",
						"params": {
							"_eid": "The endpoint ID.",
							"_peer": "The address of the peer to be associated with the corresponding endpoint."
						}
					},
					"transferOwnership(address)": {
						"details": "Transfers ownership of the contract to a new account (`newOwner`). Can only be called by the current owner."
					}
				},
				"title": "LocalOpenWorkV2",
				"version": 1
			},
			"evm": {
				"assembly": "    /* \"bridge samples/LocalOpenworkSender.sol\":505:2653  contract LocalOpenWorkV2 is OApp, ReentrancyGuard {... */\n  mstore(0x40, 0xa0)\n    /* \"bridge samples/LocalOpenworkSender.sol\":666:822  constructor(... */\n  callvalue\n  dup1\n  iszero\n  tag_1\n  jumpi\n  0x00\n  dup1\n  revert\ntag_1:\n  pop\n  mload(0x40)\n  sub(codesize, bytecodeSize)\n  dup1\n  bytecodeSize\n  dup4\n  codecopy\n  dup2\n  add\n  0x40\n  dup2\n  swap1\n  mstore\n  tag_2\n  swap2\n  tag_3\n  jump\t// in\ntag_2:\n    /* \"bridge samples/LocalOpenworkSender.sol\":740:749  _endpoint */\n  dup2\n    /* \"bridge samples/LocalOpenworkSender.sol\":751:757  _owner */\n  dup2\n    /* \"bridge samples/LocalOpenworkSender.sol\":740:749  _endpoint */\n  dup2\n    /* \"bridge samples/LocalOpenworkSender.sol\":751:757  _owner */\n  dup2\n    /* \"bridge samples/LocalOpenworkSender.sol\":767:777  msg.sender */\n  caller\n  dup1\n    /* \"@openzeppelin/contracts/access/Ownable.sol\":1269:1364  if (initialOwner == address(0)) {... */\n  tag_10\n  jumpi\n    /* \"@openzeppelin/contracts/access/Ownable.sol\":1322:1353  OwnableInvalidOwner(address(0)) */\n  mload(0x40)\n  shl(0xe0, 0x1e4fbdf7)\n  dup2\n  mstore\n    /* \"@openzeppelin/contracts/access/Ownable.sol\":1350:1351  0 */\n  0x00\n    /* \"@openzeppelin/contracts/access/Ownable.sol\":1322:1353  OwnableInvalidOwner(address(0)) */\n  0x04\n  dup3\n  add\n    /* \"#utility.yul\":640:691   */\n  mstore\n    /* \"#utility.yul\":613:631   */\n  0x24\n  add\n    /* \"@openzeppelin/contracts/access/Ownable.sol\":1322:1353  OwnableInvalidOwner(address(0)) */\n  mload(0x40)\n  dup1\n  swap2\n  sub\n  swap1\n  revert\n    /* \"@openzeppelin/contracts/access/Ownable.sol\":1269:1364  if (initialOwner == address(0)) {... */\ntag_10:\n    /* \"@openzeppelin/contracts/access/Ownable.sol\":1373:1405  _transferOwnership(initialOwner) */\n  tag_13\n    /* \"@openzeppelin/contracts/access/Ownable.sol\":1392:1404  initialOwner */\n  dup2\n    /* \"@openzeppelin/contracts/access/Ownable.sol\":1373:1391  _transferOwnership */\n  tag_14\n    /* \"@openzeppelin/contracts/access/Ownable.sol\":1373:1405  _transferOwnership(initialOwner) */\n  jump\t// in\ntag_13:\n  pop\n  sub(shl(0xa0, 0x01), 0x01)\n    /* \"@layerzerolabs/oapp-evm/contracts/oapp/OAppCore.sol\":1047:1089  endpoint = ILayerZeroEndpointV2(_endpoint) */\n  dup1\n  dup4\n  and\n  0x80\n  mstore\n    /* \"@layerzerolabs/oapp-evm/contracts/oapp/OAppCore.sol\":1104:1127  _delegate == address(0) */\n  dup2\n  and\n    /* \"@layerzerolabs/oapp-evm/contracts/oapp/OAppCore.sol\":1100:1153  if (_delegate == address(0)) revert InvalidDelegate() */\n  tag_16\n  jumpi\n    /* \"@layerzerolabs/oapp-evm/contracts/oapp/OAppCore.sol\":1136:1153  InvalidDelegate() */\n  mload(0x40)\n  shl(0xe2, 0x2d618d81)\n  dup2\n  mstore\n  0x04\n  add\n  mload(0x40)\n  dup1\n  swap2\n  sub\n  swap1\n  revert\n    /* \"@layerzerolabs/oapp-evm/contracts/oapp/OAppCore.sol\":1100:1153  if (_delegate == address(0)) revert InvalidDelegate() */\ntag_16:\n    /* \"@layerzerolabs/oapp-evm/contracts/oapp/OAppCore.sol\":1163:1171  endpoint */\n  mload(0x80)\n    /* \"@layerzerolabs/oapp-evm/contracts/oapp/OAppCore.sol\":1163:1194  endpoint.setDelegate(_delegate) */\n  mload(0x40)\n  shl(0xe0, 0xca5eb5e1)\n  dup2\n  mstore\n  sub(shl(0xa0, 0x01), 0x01)\n    /* \"#utility.yul\":658:690   */\n  dup4\n  dup2\n  and\n    /* \"@layerzerolabs/oapp-evm/contracts/oapp/OAppCore.sol\":1163:1194  endpoint.setDelegate(_delegate) */\n  0x04\n  dup4\n  add\n    /* \"#utility.yul\":640:691   */\n  mstore\n    /* \"@layerzerolabs/oapp-evm/contracts/oapp/OAppCore.sol\":1163:1183  endpoint.setDelegate */\n  swap1\n  swap2\n  and\n  swap1\n  0xca5eb5e1\n  swap1\n    /* \"#utility.yul\":613:631   */\n  0x24\n  add\n    /* \"@layerzerolabs/oapp-evm/contracts/oapp/OAppCore.sol\":1163:1194  endpoint.setDelegate(_delegate) */\n  0x00\n  mload(0x40)\n  dup1\n  dup4\n  sub\n  dup2\n  0x00\n  dup8\n  dup1\n  extcodesize\n  iszero\n  dup1\n  iszero\n  tag_18\n  jumpi\n  0x00\n  dup1\n  revert\ntag_18:\n  pop\n  gas\n  call\n  iszero\n  dup1\n  iszero\n  tag_20\n  jumpi\n  returndatasize\n  0x00\n  dup1\n  returndatacopy\n  revert(0x00, returndatasize)\ntag_20:\n  pop\n  pop\n    /* \"@openzeppelin/contracts/security/ReentrancyGuard.sol\":1716:1717  1 */\n  0x01\n    /* \"@openzeppelin/contracts/security/ReentrancyGuard.sol\":1821:1828  _status */\n  0x02\n    /* \"@openzeppelin/contracts/security/ReentrancyGuard.sol\":1821:1843  _status = _NOT_ENTERED */\n  sstore\n  pop\n    /* \"bridge samples/LocalOpenworkSender.sol\":789:815  _transferOwnership(_owner) */\n  tag_24\n  swap5\n  pop\n    /* \"bridge samples/LocalOpenworkSender.sol\":808:814  _owner */\n  dup6\n  swap4\n  pop\n  pop\n    /* \"bridge samples/LocalOpenworkSender.sol\":789:807  _transferOwnership */\n  tag_14\n    /* \"bridge samples/LocalOpenworkSender.sol\":789:815  _transferOwnership(_owner) */\n  swap2\n  pop\n  pop\n  jump\t// in\ntag_24:\n    /* \"bridge samples/LocalOpenworkSender.sol\":666:822  constructor(... */\n  pop\n  pop\n    /* \"bridge samples/LocalOpenworkSender.sol\":505:2653  contract LocalOpenWorkV2 is OApp, ReentrancyGuard {... */\n  jump(tag_28)\n    /* \"@openzeppelin/contracts/access/Ownable.sol\":2912:3099  function _transferOwnership(address newOwner) internal virtual {... */\ntag_14:\n    /* \"@openzeppelin/contracts/access/Ownable.sol\":2985:3001  address oldOwner */\n  0x00\n    /* \"@openzeppelin/contracts/access/Ownable.sol\":3004:3010  _owner */\n  dup1\n  sload\n  sub(shl(0xa0, 0x01), 0x01)\n    /* \"@openzeppelin/contracts/access/Ownable.sol\":3020:3037  _owner = newOwner */\n  dup4\n  dup2\n  and\n  not(sub(shl(0xa0, 0x01), 0x01))\n  dup4\n  and\n  dup2\n  or\n  dup5\n  sstore\n    /* \"@openzeppelin/contracts/access/Ownable.sol\":3052:3092  OwnershipTransferred(oldOwner, newOwner) */\n  mload(0x40)\n    /* \"@openzeppelin/contracts/access/Ownable.sol\":3004:3010  _owner */\n  swap2\n  swap1\n  swap3\n  and\n  swap3\n  dup4\n  swap2\n    /* \"@openzeppelin/contracts/access/Ownable.sol\":3052:3092  OwnershipTransferred(oldOwner, newOwner) */\n  0x8be0079c531659141344cd1fd0a4f28419497f9722a3daafe3b4186f6b6457e0\n  swap2\n    /* \"@openzeppelin/contracts/access/Ownable.sol\":2985:3001  address oldOwner */\n  swap1\n    /* \"@openzeppelin/contracts/access/Ownable.sol\":3052:3092  OwnershipTransferred(oldOwner, newOwner) */\n  log3\n    /* \"@openzeppelin/contracts/access/Ownable.sol\":2975:3099  {... */\n  pop\n    /* \"@openzeppelin/contracts/access/Ownable.sol\":2912:3099  function _transferOwnership(address newOwner) internal virtual {... */\n  pop\n  jump\t// out\n    /* \"#utility.yul\":14:191   */\ntag_27:\n    /* \"#utility.yul\":93:106   */\n  dup1\n  mload\n  sub(shl(0xa0, 0x01), 0x01)\n    /* \"#utility.yul\":135:166   */\n  dup2\n  and\n    /* \"#utility.yul\":125:167   */\n  dup2\n  eq\n    /* \"#utility.yul\":115:185   */\n  tag_30\n  jumpi\n    /* \"#utility.yul\":181:182   */\n  0x00\n    /* \"#utility.yul\":178:179   */\n  dup1\n    /* \"#utility.yul\":171:183   */\n  revert\n    /* \"#utility.yul\":115:185   */\ntag_30:\n    /* \"#utility.yul\":14:191   */\n  swap2\n  swap1\n  pop\n  jump\t// out\n    /* \"#utility.yul\":196:489   */\ntag_3:\n    /* \"#utility.yul\":275:281   */\n  0x00\n    /* \"#utility.yul\":283:289   */\n  dup1\n    /* \"#utility.yul\":336:338   */\n  0x40\n    /* \"#utility.yul\":324:333   */\n  dup4\n    /* \"#utility.yul\":315:322   */\n  dup6\n    /* \"#utility.yul\":311:334   */\n  sub\n    /* \"#utility.yul\":307:339   */\n  slt\n    /* \"#utility.yul\":304:356   */\n  iszero\n  tag_32\n  jumpi\n    /* \"#utility.yul\":352:353   */\n  0x00\n    /* \"#utility.yul\":349:350   */\n  dup1\n    /* \"#utility.yul\":342:354   */\n  revert\n    /* \"#utility.yul\":304:356   */\ntag_32:\n    /* \"#utility.yul\":375:415   */\n  tag_33\n    /* \"#utility.yul\":405:414   */\n  dup4\n    /* \"#utility.yul\":375:415   */\n  tag_27\n  jump\t// in\ntag_33:\n    /* \"#utility.yul\":365:415   */\n  swap2\n  pop\n    /* \"#utility.yul\":434:483   */\n  tag_34\n    /* \"#utility.yul\":479:481   */\n  0x20\n    /* \"#utility.yul\":468:477   */\n  dup5\n    /* \"#utility.yul\":464:482   */\n  add\n    /* \"#utility.yul\":434:483   */\n  tag_27\n  jump\t// in\ntag_34:\n    /* \"#utility.yul\":424:483   */\n  swap1\n  pop\n    /* \"#utility.yul\":196:489   */\n  swap3\n  pop\n  swap3\n  swap1\n  pop\n  jump\t// out\n    /* \"#utility.yul\":494:697   */\ntag_28:\n    /* \"bridge samples/LocalOpenworkSender.sol\":505:2653  contract LocalOpenWorkV2 is OApp, ReentrancyGuard {... */\n  mload(0x80)\n  codecopy(0x00, dataOffset(sub_0), dataSize(sub_0))\n  0x00\n  assignImmutable(\"0xef80077fd7ee005d1b0377e3e959eb59d0ca83c4839422f862a3540a66a91fb5\")\n  return(0x00, dataSize(sub_0))\nstop\n\nsub_0: assembly {\n        /* \"bridge samples/LocalOpenworkSender.sol\":505:2653  contract LocalOpenWorkV2 is OApp, ReentrancyGuard {... */\n      mstore(0x40, 0x80)\n      jumpi(tag_1, lt(calldatasize, 0x04))\n      shr(0xe0, calldataload(0x00))\n      dup1\n      0x82413eac\n      gt\n      tag_17\n      jumpi\n      dup1\n      0xbb0b6a53\n      gt\n      tag_18\n      jumpi\n      dup1\n      0xbb0b6a53\n      eq\n      tag_13\n      jumpi\n      dup1\n      0xca5eb5e1\n      eq\n      tag_14\n      jumpi\n      dup1\n      0xf2fde38b\n      eq\n      tag_15\n      jumpi\n      dup1\n      0xff7bd03d\n      eq\n      tag_16\n      jumpi\n      0x00\n      dup1\n      revert\n    tag_18:\n      dup1\n      0x82413eac\n      eq\n      tag_10\n      jumpi\n      dup1\n      0x85920336\n      eq\n      tag_11\n      jumpi\n      dup1\n      0x8da5cb5b\n      eq\n      tag_12\n      jumpi\n      0x00\n      dup1\n      revert\n    tag_17:\n      dup1\n      0x5e280f11\n      gt\n      tag_19\n      jumpi\n      dup1\n      0x5e280f11\n      eq\n      tag_6\n      jumpi\n      dup1\n      0x682d54e6\n      eq\n      tag_7\n      jumpi\n      dup1\n      0x715018a6\n      eq\n      tag_8\n      jumpi\n      dup1\n      0x7d25a05e\n      eq\n      tag_9\n      jumpi\n      0x00\n      dup1\n      revert\n    tag_19:\n      dup1\n      0x13137d65\n      eq\n      tag_3\n      jumpi\n      dup1\n      0x17442b70\n      eq\n      tag_4\n      jumpi\n      dup1\n      0x3400288b\n      eq\n      tag_5\n      jumpi\n      0x00\n      dup1\n      revert\n    tag_1:\n      jumpi(tag_2, calldatasize)\n      stop\n    tag_2:\n      0x00\n      dup1\n      revert\n        /* \"@layerzerolabs/oapp-evm/contracts/oapp/OAppReceiver.sol\":4368:5076  function lzReceive(... */\n    tag_3:\n      tag_22\n      tag_23\n      calldatasize\n      0x04\n      tag_24\n      jump\t// in\n    tag_23:\n      tag_25\n      jump\t// in\n    tag_22:\n      stop\n        /* \"@layerzerolabs/oapp-evm/contracts/oapp/OApp.sol\":1287:1522  function oAppVersion()... */\n    tag_4:\n      callvalue\n      dup1\n      iszero\n      tag_26\n      jumpi\n      0x00\n      dup1\n      revert\n    tag_26:\n      pop\n      0x40\n      dup1\n      mload\n        /* \"@layerzerolabs/oapp-evm/contracts/oapp/OAppSender.sol\":843:844  1 */\n      0x01\n        /* \"#utility.yul\":1952:2002   */\n      dup2\n      mstore\n        /* \"@layerzerolabs/oapp-evm/contracts/oapp/OAppReceiver.sol\":678:679  2 */\n      0x02\n        /* \"#utility.yul\":2033:2035   */\n      0x20\n        /* \"#utility.yul\":2018:2036   */\n      dup3\n      add\n        /* \"#utility.yul\":2011:2070   */\n      mstore\n        /* \"#utility.yul\":1925:1943   */\n      add\n        /* \"@layerzerolabs/oapp-evm/contracts/oapp/OApp.sol\":1287:1522  function oAppVersion()... */\n    tag_29:\n      mload(0x40)\n      dup1\n      swap2\n      sub\n      swap1\n      return\n        /* \"@layerzerolabs/oapp-evm/contracts/oapp/OAppCore.sol\":1724:1832  function setPeer(uint32 _eid, bytes32 _peer) public virtual onlyOwner {... */\n    tag_5:\n      callvalue\n      dup1\n      iszero\n      tag_31\n      jumpi\n      0x00\n      dup1\n      revert\n    tag_31:\n      pop\n      tag_22\n      tag_33\n      calldatasize\n      0x04\n      tag_34\n      jump\t// in\n    tag_33:\n      tag_35\n      jump\t// in\n        /* \"@layerzerolabs/oapp-evm/contracts/oapp/OAppCore.sol\":446:492  ILayerZeroEndpointV2 public immutable endpoint */\n    tag_6:\n      callvalue\n      dup1\n      iszero\n      tag_36\n      jumpi\n      0x00\n      dup1\n      revert\n    tag_36:\n      pop\n      tag_37\n      immutable(\"0xef80077fd7ee005d1b0377e3e959eb59d0ca83c4839422f862a3540a66a91fb5\")\n      dup2\n      jump\n    tag_37:\n      mload(0x40)\n      sub(shl(0xa0, 0x01), 0x01)\n        /* \"#utility.yul\":2744:2799   */\n      swap1\n      swap2\n      and\n        /* \"#utility.yul\":2726:2800   */\n      dup2\n      mstore\n        /* \"#utility.yul\":2714:2716   */\n      0x20\n        /* \"#utility.yul\":2699:2717   */\n      add\n        /* \"@layerzerolabs/oapp-evm/contracts/oapp/OAppCore.sol\":446:492  ILayerZeroEndpointV2 public immutable endpoint */\n      tag_29\n        /* \"#utility.yul\":2552:2806   */\n      jump\n        /* \"bridge samples/LocalOpenworkSender.sol\":1873:2312  function quoteCreateUserProfile(... */\n    tag_7:\n      callvalue\n      dup1\n      iszero\n      tag_41\n      jumpi\n      0x00\n      dup1\n      revert\n    tag_41:\n      pop\n      tag_42\n      tag_43\n      calldatasize\n      0x04\n      tag_44\n      jump\t// in\n    tag_43:\n      tag_45\n      jump\t// in\n    tag_42:\n      0x40\n      dup1\n      mload\n        /* \"#utility.yul\":5924:5937   */\n      dup3\n      mload\n        /* \"#utility.yul\":5906:5938   */\n      dup2\n      mstore\n        /* \"#utility.yul\":5994:5998   */\n      0x20\n        /* \"#utility.yul\":5982:5999   */\n      swap3\n      dup4\n      add\n        /* \"#utility.yul\":5976:6000   */\n      mload\n        /* \"#utility.yul\":5954:5974   */\n      swap3\n      dup2\n      add\n        /* \"#utility.yul\":5947:6001   */\n      swap3\n      swap1\n      swap3\n      mstore\n        /* \"#utility.yul\":5879:5897   */\n      add\n        /* \"bridge samples/LocalOpenworkSender.sol\":1873:2312  function quoteCreateUserProfile(... */\n      tag_29\n        /* \"#utility.yul\":5704:6007   */\n      jump\n        /* \"@openzeppelin/contracts/access/Ownable.sol\":2293:2394  function renounceOwnership() public virtual onlyOwner {... */\n    tag_8:\n      callvalue\n      dup1\n      iszero\n      tag_48\n      jumpi\n      0x00\n      dup1\n      revert\n    tag_48:\n      pop\n      tag_22\n      tag_50\n      jump\t// in\n        /* \"@layerzerolabs/oapp-evm/contracts/oapp/OAppReceiver.sol\":3507:3635  function nextNonce(uint32 /*_srcEid*/, bytes32 /*_sender*/) public view virtual returns (uint64 nonce) {... */\n    tag_9:\n      callvalue\n      dup1\n      iszero\n      tag_51\n      jumpi\n      0x00\n      dup1\n      revert\n    tag_51:\n      pop\n      tag_52\n      tag_53\n      calldatasize\n      0x04\n      tag_34\n      jump\t// in\n    tag_53:\n        /* \"@layerzerolabs/oapp-evm/contracts/oapp/OAppReceiver.sol\":3596:3608  uint64 nonce */\n      0x00\n        /* \"@layerzerolabs/oapp-evm/contracts/oapp/OAppReceiver.sol\":3507:3635  function nextNonce(uint32 /*_srcEid*/, bytes32 /*_sender*/) public view virtual returns (uint64 nonce) {... */\n      swap3\n      swap2\n      pop\n      pop\n      jump\n    tag_52:\n      mload(0x40)\n        /* \"#utility.yul\":6186:6204   */\n      0xffffffffffffffff\n        /* \"#utility.yul\":6174:6205   */\n      swap1\n      swap2\n      and\n        /* \"#utility.yul\":6156:6206   */\n      dup2\n      mstore\n        /* \"#utility.yul\":6144:6146   */\n      0x20\n        /* \"#utility.yul\":6129:6147   */\n      add\n        /* \"@layerzerolabs/oapp-evm/contracts/oapp/OAppReceiver.sol\":3507:3635  function nextNonce(uint32 /*_srcEid*/, bytes32 /*_sender*/) public view virtual returns (uint64 nonce) {... */\n      tag_29\n        /* \"#utility.yul\":6012:6212   */\n      jump\n        /* \"@layerzerolabs/oapp-evm/contracts/oapp/OAppReceiver.sol\":2013:2229  function isComposeMsgSender(... */\n    tag_10:\n      callvalue\n      dup1\n      iszero\n      tag_57\n      jumpi\n      0x00\n      dup1\n      revert\n    tag_57:\n      pop\n      tag_58\n      tag_59\n      calldatasize\n      0x04\n      tag_60\n      jump\t// in\n    tag_59:\n      sub(shl(0xa0, 0x01), 0x01)\n        /* \"@layerzerolabs/oapp-evm/contracts/oapp/OAppReceiver.sol\":2198:2222  _sender == address(this) */\n      dup2\n      and\n        /* \"@layerzerolabs/oapp-evm/contracts/oapp/OAppReceiver.sol\":2217:2221  this */\n      address\n        /* \"@layerzerolabs/oapp-evm/contracts/oapp/OAppReceiver.sol\":2198:2222  _sender == address(this) */\n      eq\n        /* \"@layerzerolabs/oapp-evm/contracts/oapp/OAppReceiver.sol\":2013:2229  function isComposeMsgSender(... */\n      swap5\n      swap4\n      pop\n      pop\n      pop\n      pop\n      jump\n    tag_58:\n      mload(0x40)\n        /* \"#utility.yul\":7055:7069   */\n      swap1\n      iszero\n        /* \"#utility.yul\":7048:7070   */\n      iszero\n        /* \"#utility.yul\":7030:7071   */\n      dup2\n      mstore\n        /* \"#utility.yul\":7018:7020   */\n      0x20\n        /* \"#utility.yul\":7003:7021   */\n      add\n        /* \"@layerzerolabs/oapp-evm/contracts/oapp/OAppReceiver.sol\":2013:2229  function isComposeMsgSender(... */\n      tag_29\n        /* \"#utility.yul\":6890:7077   */\n      jump\n        /* \"bridge samples/LocalOpenworkSender.sol\":929:1785  function createUserProfile(... */\n    tag_11:\n      tag_22\n      tag_65\n      calldatasize\n      0x04\n      tag_44\n      jump\t// in\n    tag_65:\n      tag_66\n      jump\t// in\n        /* \"@openzeppelin/contracts/access/Ownable.sol\":1638:1723  function owner() public view virtual returns (address) {... */\n    tag_12:\n      callvalue\n      dup1\n      iszero\n      tag_67\n      jumpi\n      0x00\n      dup1\n      revert\n    tag_67:\n      pop\n        /* \"@openzeppelin/contracts/access/Ownable.sol\":1684:1691  address */\n      0x00\n        /* \"@openzeppelin/contracts/access/Ownable.sol\":1710:1716  _owner */\n      sload\n      sub(shl(0xa0, 0x01), 0x01)\n      and\n        /* \"@openzeppelin/contracts/access/Ownable.sol\":1638:1723  function owner() public view virtual returns (address) {... */\n      jump(tag_37)\n        /* \"@layerzerolabs/oapp-evm/contracts/oapp/OAppCore.sol\":569:617  mapping(uint32 eid => bytes32 peer) public peers */\n    tag_13:\n      callvalue\n      dup1\n      iszero\n      tag_72\n      jumpi\n      0x00\n      dup1\n      revert\n    tag_72:\n      pop\n      tag_73\n      tag_74\n      calldatasize\n      0x04\n      tag_75\n      jump\t// in\n    tag_74:\n      mstore(0x20, 0x01)\n      0x00\n      swap1\n      dup2\n      mstore\n      0x40\n      swap1\n      keccak256\n      sload\n      dup2\n      jump\n    tag_73:\n      mload(0x40)\n        /* \"#utility.yul\":7648:7673   */\n      swap1\n      dup2\n      mstore\n        /* \"#utility.yul\":7636:7638   */\n      0x20\n        /* \"#utility.yul\":7621:7639   */\n      add\n        /* \"@layerzerolabs/oapp-evm/contracts/oapp/OAppCore.sol\":569:617  mapping(uint32 eid => bytes32 peer) public peers */\n      tag_29\n        /* \"#utility.yul\":7502:7679   */\n      jump\n        /* \"@layerzerolabs/oapp-evm/contracts/oapp/OAppCore.sol\":3252:3357  function setDelegate(address _delegate) public onlyOwner {... */\n    tag_14:\n      callvalue\n      dup1\n      iszero\n      tag_79\n      jumpi\n      0x00\n      dup1\n      revert\n    tag_79:\n      pop\n      tag_22\n      tag_81\n      calldatasize\n      0x04\n      tag_82\n      jump\t// in\n    tag_81:\n      tag_83\n      jump\t// in\n        /* \"@openzeppelin/contracts/access/Ownable.sol\":2543:2758  function transferOwnership(address newOwner) public virtual onlyOwner {... */\n    tag_15:\n      callvalue\n      dup1\n      iszero\n      tag_84\n      jumpi\n      0x00\n      dup1\n      revert\n    tag_84:\n      pop\n      tag_22\n      tag_86\n      calldatasize\n      0x04\n      tag_82\n      jump\t// in\n    tag_86:\n      tag_87\n      jump\t// in\n        /* \"@layerzerolabs/oapp-evm/contracts/oapp/OAppReceiver.sol\":2771:2920  function allowInitializePath(Origin calldata origin) public view virtual returns (bool) {... */\n    tag_16:\n      callvalue\n      dup1\n      iszero\n      tag_88\n      jumpi\n      0x00\n      dup1\n      revert\n    tag_88:\n      pop\n      tag_58\n      tag_90\n      calldatasize\n      0x04\n      tag_91\n      jump\t// in\n    tag_90:\n      tag_92\n      jump\t// in\n        /* \"@layerzerolabs/oapp-evm/contracts/oapp/OAppReceiver.sol\":4368:5076  function lzReceive(... */\n    tag_25:\n        /* \"@layerzerolabs/oapp-evm/contracts/oapp/OAppReceiver.sol\":4681:4689  endpoint */\n      immutable(\"0xef80077fd7ee005d1b0377e3e959eb59d0ca83c4839422f862a3540a66a91fb5\")\n      sub(shl(0xa0, 0x01), 0x01)\n        /* \"@layerzerolabs/oapp-evm/contracts/oapp/OAppReceiver.sol\":4673:4704  address(endpoint) != msg.sender */\n      and\n        /* \"@layerzerolabs/oapp-evm/contracts/oapp/OAppReceiver.sol\":4694:4704  msg.sender */\n      caller\n        /* \"@layerzerolabs/oapp-evm/contracts/oapp/OAppReceiver.sol\":4673:4704  address(endpoint) != msg.sender */\n      eq\n        /* \"@layerzerolabs/oapp-evm/contracts/oapp/OAppReceiver.sol\":4669:4737  if (address(endpoint) != msg.sender) revert OnlyEndpoint(msg.sender) */\n      tag_95\n      jumpi\n        /* \"@layerzerolabs/oapp-evm/contracts/oapp/OAppReceiver.sol\":4713:4737  OnlyEndpoint(msg.sender) */\n      mload(0x40)\n      shl(0xe0, 0x91ac5e4f)\n      dup2\n      mstore\n        /* \"@layerzerolabs/oapp-evm/contracts/oapp/OAppReceiver.sol\":4726:4736  msg.sender */\n      caller\n        /* \"@layerzerolabs/oapp-evm/contracts/oapp/OAppReceiver.sol\":4713:4737  OnlyEndpoint(msg.sender) */\n      0x04\n      dup3\n      add\n        /* \"#utility.yul\":2726:2800   */\n      mstore\n        /* \"#utility.yul\":2699:2717   */\n      0x24\n      add\n        /* \"@layerzerolabs/oapp-evm/contracts/oapp/OAppReceiver.sol\":4713:4737  OnlyEndpoint(msg.sender) */\n    tag_96:\n      mload(0x40)\n      dup1\n      swap2\n      sub\n      swap1\n      revert\n        /* \"@layerzerolabs/oapp-evm/contracts/oapp/OAppReceiver.sol\":4669:4737  if (address(endpoint) != msg.sender) revert OnlyEndpoint(msg.sender) */\n    tag_95:\n        /* \"@layerzerolabs/oapp-evm/contracts/oapp/OAppReceiver.sol\":4873:4887  _origin.sender */\n      0x20\n      dup8\n      add\n      dup1\n      calldataload\n      swap1\n        /* \"@layerzerolabs/oapp-evm/contracts/oapp/OAppReceiver.sol\":4837:4869  _getPeerOrRevert(_origin.srcEid) */\n      tag_97\n      swap1\n        /* \"@layerzerolabs/oapp-evm/contracts/oapp/OAppReceiver.sol\":4854:4868  _origin.srcEid */\n      tag_98\n      swap1\n        /* \"@layerzerolabs/oapp-evm/contracts/oapp/OAppReceiver.sol\":4873:4880  _origin */\n      dup11\n        /* \"@layerzerolabs/oapp-evm/contracts/oapp/OAppReceiver.sol\":4854:4868  _origin.srcEid */\n      tag_75\n      jump\t// in\n    tag_98:\n        /* \"@layerzerolabs/oapp-evm/contracts/oapp/OAppReceiver.sol\":4837:4853  _getPeerOrRevert */\n      tag_99\n        /* \"@layerzerolabs/oapp-evm/contracts/oapp/OAppReceiver.sol\":4837:4869  _getPeerOrRevert(_origin.srcEid) */\n      jump\t// in\n    tag_97:\n        /* \"@layerzerolabs/oapp-evm/contracts/oapp/OAppReceiver.sol\":4837:4887  _getPeerOrRevert(_origin.srcEid) != _origin.sender */\n      eq\n        /* \"@layerzerolabs/oapp-evm/contracts/oapp/OAppReceiver.sol\":4833:4936  if (_getPeerOrRevert(_origin.srcEid) != _origin.sender) revert OnlyPeer(_origin.srcEid, _origin.sender) */\n      tag_100\n      jumpi\n        /* \"@layerzerolabs/oapp-evm/contracts/oapp/OAppReceiver.sol\":4905:4919  _origin.srcEid */\n      tag_101\n      0x20\n      dup9\n      add\n        /* \"@layerzerolabs/oapp-evm/contracts/oapp/OAppReceiver.sol\":4905:4912  _origin */\n      dup9\n        /* \"@layerzerolabs/oapp-evm/contracts/oapp/OAppReceiver.sol\":4905:4919  _origin.srcEid */\n      tag_75\n      jump\t// in\n    tag_101:\n        /* \"@layerzerolabs/oapp-evm/contracts/oapp/OAppReceiver.sol\":4896:4936  OnlyPeer(_origin.srcEid, _origin.sender) */\n      mload(0x40)\n      shl(0xe2, 0x309afaf3)\n      dup2\n      mstore\n        /* \"#utility.yul\":8377:8387   */\n      0xffffffff\n        /* \"#utility.yul\":8365:8388   */\n      swap1\n      swap2\n      and\n        /* \"@layerzerolabs/oapp-evm/contracts/oapp/OAppReceiver.sol\":4896:4936  OnlyPeer(_origin.srcEid, _origin.sender) */\n      0x04\n      dup3\n      add\n        /* \"#utility.yul\":8347:8389   */\n      mstore\n        /* \"@layerzerolabs/oapp-evm/contracts/oapp/OAppReceiver.sol\":4921:4935  _origin.sender */\n      0x20\n      dup9\n      add\n      calldataload\n        /* \"#utility.yul\":8405:8423   */\n      0x24\n      dup3\n      add\n        /* \"#utility.yul\":8398:8432   */\n      mstore\n        /* \"#utility.yul\":8320:8338   */\n      0x44\n      add\n        /* \"@layerzerolabs/oapp-evm/contracts/oapp/OAppReceiver.sol\":4896:4936  OnlyPeer(_origin.srcEid, _origin.sender) */\n      tag_96\n        /* \"#utility.yul\":8175:8438   */\n      jump\n        /* \"@layerzerolabs/oapp-evm/contracts/oapp/OAppReceiver.sol\":4833:4936  if (_getPeerOrRevert(_origin.srcEid) != _origin.sender) revert OnlyPeer(_origin.srcEid, _origin.sender) */\n    tag_100:\n        /* \"@layerzerolabs/oapp-evm/contracts/oapp/OAppReceiver.sol\":4368:5076  function lzReceive(... */\n      pop\n      pop\n      pop\n      pop\n      pop\n      pop\n      pop\n      jump\t// out\n        /* \"@layerzerolabs/oapp-evm/contracts/oapp/OAppCore.sol\":1724:1832  function setPeer(uint32 _eid, bytes32 _peer) public virtual onlyOwner {... */\n    tag_35:\n        /* \"@openzeppelin/contracts/access/Ownable.sol\":1531:1544  _checkOwner() */\n      tag_108\n        /* \"@openzeppelin/contracts/access/Ownable.sol\":1531:1542  _checkOwner */\n      tag_109\n        /* \"@openzeppelin/contracts/access/Ownable.sol\":1531:1544  _checkOwner() */\n      jump\t// in\n    tag_108:\n        /* \"@layerzerolabs/oapp-evm/contracts/oapp/OAppCore.sol\":1804:1825  _setPeer(_eid, _peer) */\n      tag_111\n        /* \"@layerzerolabs/oapp-evm/contracts/oapp/OAppCore.sol\":1813:1817  _eid */\n      dup3\n        /* \"@layerzerolabs/oapp-evm/contracts/oapp/OAppCore.sol\":1819:1824  _peer */\n      dup3\n        /* \"@layerzerolabs/oapp-evm/contracts/oapp/OAppCore.sol\":1804:1812  _setPeer */\n      tag_112\n        /* \"@layerzerolabs/oapp-evm/contracts/oapp/OAppCore.sol\":1804:1825  _setPeer(_eid, _peer) */\n      jump\t// in\n    tag_111:\n        /* \"@layerzerolabs/oapp-evm/contracts/oapp/OAppCore.sol\":1724:1832  function setPeer(uint32 _eid, bytes32 _peer) public virtual onlyOwner {... */\n      pop\n      pop\n      jump\t// out\n        /* \"bridge samples/LocalOpenworkSender.sol\":1873:2312  function quoteCreateUserProfile(... */\n    tag_45:\n      0x40\n      dup1\n      mload\n      dup1\n      dup3\n      add\n      swap1\n      swap2\n      mstore\n      0x00\n      dup1\n      dup3\n      mstore\n      0x20\n      dup3\n      add\n      mstore\n        /* \"bridge samples/LocalOpenworkSender.sol\":2117:2137  bytes memory payload */\n      0x00\n        /* \"bridge samples/LocalOpenworkSender.sol\":2164:2174  msg.sender */\n      caller\n        /* \"bridge samples/LocalOpenworkSender.sol\":2188:2192  name */\n      dup8\n        /* \"bridge samples/LocalOpenworkSender.sol\":2206:2212  skills */\n      dup8\n        /* \"bridge samples/LocalOpenworkSender.sol\":2226:2237  profileHash */\n      dup8\n        /* \"bridge samples/LocalOpenworkSender.sol\":2140:2247  abi.encode(... */\n      add(0x20, mload(0x40))\n      tag_116\n      swap5\n      swap4\n      swap3\n      swap2\n      swap1\n      tag_117\n      jump\t// in\n    tag_116:\n      0x40\n      dup1\n      mload\n      not(0x1f)\n      dup2\n      dup5\n      sub\n      add\n      dup2\n      mstore\n      0x20\n        /* \"bridge samples/LocalOpenworkSender.sol\":2264:2305  _quote(_dstEid, payload, _options, false) */\n      0x1f\n      dup8\n      add\n      dup2\n      swap1\n      div\n      dup2\n      mul\n      dup5\n      add\n      dup2\n      add\n      swap1\n      swap3\n      mstore\n      dup6\n      dup4\n      mstore\n        /* \"bridge samples/LocalOpenworkSender.sol\":2140:2247  abi.encode(... */\n      swap3\n      pop\n        /* \"bridge samples/LocalOpenworkSender.sol\":2264:2305  _quote(_dstEid, payload, _options, false) */\n      tag_118\n      swap2\n        /* \"bridge samples/LocalOpenworkSender.sol\":2271:2278  _dstEid */\n      dup11\n      swap2\n        /* \"bridge samples/LocalOpenworkSender.sol\":2140:2247  abi.encode(... */\n      dup5\n      swap2\n      swap1\n        /* \"bridge samples/LocalOpenworkSender.sol\":2289:2297  _options */\n      dup9\n      swap1\n      dup9\n      swap1\n      dup2\n      swap1\n        /* \"bridge samples/LocalOpenworkSender.sol\":2264:2305  _quote(_dstEid, payload, _options, false) */\n      dup5\n      add\n        /* \"bridge samples/LocalOpenworkSender.sol\":2289:2297  _options */\n      dup4\n      dup3\n      dup1\n      dup3\n        /* \"bridge samples/LocalOpenworkSender.sol\":2264:2305  _quote(_dstEid, payload, _options, false) */\n      dup5\n      calldatacopy\n      0x00\n      swap3\n      add\n      dup3\n      swap1\n      mstore\n      pop\n      swap3\n      pop\n        /* \"bridge samples/LocalOpenworkSender.sol\":2264:2270  _quote */\n      tag_119\n      swap2\n      pop\n      pop\n        /* \"bridge samples/LocalOpenworkSender.sol\":2264:2305  _quote(_dstEid, payload, _options, false) */\n      jump\t// in\n    tag_118:\n        /* \"bridge samples/LocalOpenworkSender.sol\":2257:2305  return _quote(_dstEid, payload, _options, false) */\n      swap9\n        /* \"bridge samples/LocalOpenworkSender.sol\":1873:2312  function quoteCreateUserProfile(... */\n      swap8\n      pop\n      pop\n      pop\n      pop\n      pop\n      pop\n      pop\n      pop\n      jump\t// out\n        /* \"@openzeppelin/contracts/access/Ownable.sol\":2293:2394  function renounceOwnership() public virtual onlyOwner {... */\n    tag_50:\n        /* \"@openzeppelin/contracts/access/Ownable.sol\":1531:1544  _checkOwner() */\n      tag_121\n        /* \"@openzeppelin/contracts/access/Ownable.sol\":1531:1542  _checkOwner */\n      tag_109\n        /* \"@openzeppelin/contracts/access/Ownable.sol\":1531:1544  _checkOwner() */\n      jump\t// in\n    tag_121:\n        /* \"@openzeppelin/contracts/access/Ownable.sol\":2357:2387  _transferOwnership(address(0)) */\n      tag_123\n        /* \"@openzeppelin/contracts/access/Ownable.sol\":2384:2385  0 */\n      0x00\n        /* \"@openzeppelin/contracts/access/Ownable.sol\":2357:2375  _transferOwnership */\n      tag_124\n        /* \"@openzeppelin/contracts/access/Ownable.sol\":2357:2387  _transferOwnership(address(0)) */\n      jump\t// in\n    tag_123:\n        /* \"@openzeppelin/contracts/access/Ownable.sol\":2293:2394  function renounceOwnership() public virtual onlyOwner {... */\n      jump\t// out\n        /* \"bridge samples/LocalOpenworkSender.sol\":929:1785  function createUserProfile(... */\n    tag_66:\n        /* \"@openzeppelin/contracts/security/ReentrancyGuard.sol\":2261:2282  _nonReentrantBefore() */\n      tag_128\n        /* \"@openzeppelin/contracts/security/ReentrancyGuard.sol\":2261:2280  _nonReentrantBefore */\n      tag_129\n        /* \"@openzeppelin/contracts/security/ReentrancyGuard.sol\":2261:2282  _nonReentrantBefore() */\n      jump\t// in\n    tag_128:\n        /* \"bridge samples/LocalOpenworkSender.sol\":1183:1184  0 */\n      0x00\n        /* \"bridge samples/LocalOpenworkSender.sol\":1168:1172  name */\n      dup6\n        /* \"bridge samples/LocalOpenworkSender.sol\":1162:1180  bytes(name).length */\n      mload\n        /* \"bridge samples/LocalOpenworkSender.sol\":1162:1184  bytes(name).length > 0 */\n      gt\n        /* \"bridge samples/LocalOpenworkSender.sol\":1154:1209  require(bytes(name).length > 0, \"Name cannot be empty\") */\n      tag_131\n      jumpi\n      mload(0x40)\n      shl(0xe5, 0x461bcd)\n      dup2\n      mstore\n        /* \"#utility.yul\":10218:10220   */\n      0x20\n        /* \"bridge samples/LocalOpenworkSender.sol\":1154:1209  require(bytes(name).length > 0, \"Name cannot be empty\") */\n      0x04\n      dup3\n      add\n        /* \"#utility.yul\":10200:10221   */\n      mstore\n        /* \"#utility.yul\":10257:10259   */\n      0x14\n        /* \"#utility.yul\":10237:10255   */\n      0x24\n      dup3\n      add\n        /* \"#utility.yul\":10230:10260   */\n      mstore\n        /* \"#utility.yul\":10296:10318   */\n      0x4e616d652063616e6e6f7420626520656d707479000000000000000000000000\n        /* \"#utility.yul\":10276:10294   */\n      0x44\n      dup3\n      add\n        /* \"#utility.yul\":10269:10319   */\n      mstore\n        /* \"#utility.yul\":10336:10354   */\n      0x64\n      add\n        /* \"bridge samples/LocalOpenworkSender.sol\":1154:1209  require(bytes(name).length > 0, \"Name cannot be empty\") */\n      tag_96\n        /* \"#utility.yul\":10016:10360   */\n      jump\n        /* \"bridge samples/LocalOpenworkSender.sol\":1154:1209  require(bytes(name).length > 0, \"Name cannot be empty\") */\n    tag_131:\n        /* \"bridge samples/LocalOpenworkSender.sol\":1243:1244  0 */\n      0x00\n        /* \"bridge samples/LocalOpenworkSender.sol\":1227:1233  skills */\n      dup5\n        /* \"bridge samples/LocalOpenworkSender.sol\":1227:1240  skills.length */\n      mload\n        /* \"bridge samples/LocalOpenworkSender.sol\":1227:1244  skills.length > 0 */\n      gt\n        /* \"bridge samples/LocalOpenworkSender.sol\":1219:1271  require(skills.length > 0, \"Skills cannot be empty\") */\n      tag_134\n      jumpi\n      mload(0x40)\n      shl(0xe5, 0x461bcd)\n      dup2\n      mstore\n        /* \"#utility.yul\":10567:10569   */\n      0x20\n        /* \"bridge samples/LocalOpenworkSender.sol\":1219:1271  require(skills.length > 0, \"Skills cannot be empty\") */\n      0x04\n      dup3\n      add\n        /* \"#utility.yul\":10549:10570   */\n      mstore\n        /* \"#utility.yul\":10606:10608   */\n      0x16\n        /* \"#utility.yul\":10586:10604   */\n      0x24\n      dup3\n      add\n        /* \"#utility.yul\":10579:10609   */\n      mstore\n        /* \"#utility.yul\":10645:10669   */\n      0x536b696c6c732063616e6e6f7420626520656d70747900000000000000000000\n        /* \"#utility.yul\":10625:10643   */\n      0x44\n      dup3\n      add\n        /* \"#utility.yul\":10618:10670   */\n      mstore\n        /* \"#utility.yul\":10687:10705   */\n      0x64\n      add\n        /* \"bridge samples/LocalOpenworkSender.sol\":1219:1271  require(skills.length > 0, \"Skills cannot be empty\") */\n      tag_96\n        /* \"#utility.yul\":10365:10711   */\n      jump\n        /* \"bridge samples/LocalOpenworkSender.sol\":1219:1271  require(skills.length > 0, \"Skills cannot be empty\") */\n    tag_134:\n        /* \"bridge samples/LocalOpenworkSender.sol\":1282:1302  bytes memory payload */\n      0x00\n        /* \"bridge samples/LocalOpenworkSender.sol\":1329:1339  msg.sender */\n      caller\n        /* \"bridge samples/LocalOpenworkSender.sol\":1353:1357  name */\n      dup7\n        /* \"bridge samples/LocalOpenworkSender.sol\":1371:1377  skills */\n      dup7\n        /* \"bridge samples/LocalOpenworkSender.sol\":1391:1402  profileHash */\n      dup7\n        /* \"bridge samples/LocalOpenworkSender.sol\":1305:1412  abi.encode(... */\n      add(0x20, mload(0x40))\n      tag_137\n      swap5\n      swap4\n      swap3\n      swap2\n      swap1\n      tag_117\n      jump\t// in\n    tag_137:\n      0x40\n      dup1\n      mload\n      not(0x1f)\n      dup2\n      dup5\n      sub\n      add\n      dup2\n      mstore\n      0x20\n        /* \"bridge samples/LocalOpenworkSender.sol\":1449:1490  _quote(_dstEid, payload, _options, false) */\n      0x1f\n      dup7\n      add\n      dup2\n      swap1\n      div\n      dup2\n      mul\n      dup5\n      add\n      dup2\n      add\n      swap1\n      swap3\n      mstore\n      dup5\n      dup4\n      mstore\n        /* \"bridge samples/LocalOpenworkSender.sol\":1305:1412  abi.encode(... */\n      swap3\n      pop\n        /* \"bridge samples/LocalOpenworkSender.sol\":1423:1446  MessagingFee memory fee */\n      0x00\n      swap2\n        /* \"bridge samples/LocalOpenworkSender.sol\":1449:1490  _quote(_dstEid, payload, _options, false) */\n      tag_138\n      swap2\n        /* \"bridge samples/LocalOpenworkSender.sol\":1456:1463  _dstEid */\n      dup11\n      swap2\n        /* \"bridge samples/LocalOpenworkSender.sol\":1305:1412  abi.encode(... */\n      dup6\n      swap2\n        /* \"bridge samples/LocalOpenworkSender.sol\":1474:1482  _options */\n      dup9\n      swap1\n      dup9\n      swap1\n      dup2\n      swap1\n        /* \"bridge samples/LocalOpenworkSender.sol\":1449:1490  _quote(_dstEid, payload, _options, false) */\n      dup5\n      add\n        /* \"bridge samples/LocalOpenworkSender.sol\":1474:1482  _options */\n      dup4\n      dup3\n      dup1\n      dup3\n        /* \"bridge samples/LocalOpenworkSender.sol\":1449:1490  _quote(_dstEid, payload, _options, false) */\n      dup5\n      calldatacopy\n      0x00\n      swap3\n      add\n      dup3\n      swap1\n      mstore\n      pop\n      swap3\n      pop\n        /* \"bridge samples/LocalOpenworkSender.sol\":1449:1455  _quote */\n      tag_119\n      swap2\n      pop\n      pop\n        /* \"bridge samples/LocalOpenworkSender.sol\":1449:1490  _quote(_dstEid, payload, _options, false) */\n      jump\t// in\n    tag_138:\n        /* \"bridge samples/LocalOpenworkSender.sol\":1521:1534  fee.nativeFee */\n      dup1\n      mload\n        /* \"bridge samples/LocalOpenworkSender.sol\":1423:1490  MessagingFee memory fee = _quote(_dstEid, payload, _options, false) */\n      swap1\n      swap2\n      pop\n        /* \"bridge samples/LocalOpenworkSender.sol\":1508:1517  msg.value */\n      callvalue\n        /* \"bridge samples/LocalOpenworkSender.sol\":1508:1534  msg.value >= fee.nativeFee */\n      lt\n      iszero\n        /* \"bridge samples/LocalOpenworkSender.sol\":1500:1555  require(msg.value >= fee.nativeFee, \"Insufficient fee\") */\n      tag_139\n      jumpi\n      mload(0x40)\n      shl(0xe5, 0x461bcd)\n      dup2\n      mstore\n        /* \"#utility.yul\":10918:10920   */\n      0x20\n        /* \"bridge samples/LocalOpenworkSender.sol\":1500:1555  require(msg.value >= fee.nativeFee, \"Insufficient fee\") */\n      0x04\n      dup3\n      add\n        /* \"#utility.yul\":10900:10921   */\n      mstore\n        /* \"#utility.yul\":10957:10959   */\n      0x10\n        /* \"#utility.yul\":10937:10955   */\n      0x24\n      dup3\n      add\n        /* \"#utility.yul\":10930:10960   */\n      mstore\n      shl(0x80, 0x496e73756666696369656e7420666565)\n        /* \"#utility.yul\":10976:10994   */\n      0x44\n      dup3\n      add\n        /* \"#utility.yul\":10969:11015   */\n      mstore\n        /* \"#utility.yul\":11032:11050   */\n      0x64\n      add\n        /* \"bridge samples/LocalOpenworkSender.sol\":1500:1555  require(msg.value >= fee.nativeFee, \"Insufficient fee\") */\n      tag_96\n        /* \"#utility.yul\":10716:11056   */\n      jump\n        /* \"bridge samples/LocalOpenworkSender.sol\":1500:1555  require(msg.value >= fee.nativeFee, \"Insufficient fee\") */\n    tag_139:\n        /* \"bridge samples/LocalOpenworkSender.sol\":1566:1720  _lzSend(... */\n      tag_142\n        /* \"bridge samples/LocalOpenworkSender.sol\":1587:1594  _dstEid */\n      dup9\n        /* \"bridge samples/LocalOpenworkSender.sol\":1608:1615  payload */\n      dup4\n        /* \"bridge samples/LocalOpenworkSender.sol\":1629:1637  _options */\n      dup7\n      dup7\n        /* \"bridge samples/LocalOpenworkSender.sol\":1566:1720  _lzSend(... */\n      dup1\n      dup1\n      0x1f\n      add\n      0x20\n      dup1\n      swap2\n      div\n      mul\n      0x20\n      add\n      mload(0x40)\n      swap1\n      dup2\n      add\n      0x40\n      mstore\n      dup1\n      swap4\n      swap3\n      swap2\n      swap1\n      dup2\n      dup2\n      mstore\n      0x20\n      add\n      dup4\n      dup4\n      dup1\n      dup3\n      dup5\n      calldatacopy\n      0x00\n      swap3\n      add\n      dup3\n      swap1\n      mstore\n      pop\n        /* \"bridge samples/LocalOpenworkSender.sol\":1651:1677  MessagingFee(msg.value, 0) */\n      0x40\n      dup1\n      mload\n      dup1\n      dup3\n      add\n      swap1\n      swap2\n      mstore\n        /* \"bridge samples/LocalOpenworkSender.sol\":1664:1673  msg.value */\n      callvalue\n        /* \"bridge samples/LocalOpenworkSender.sol\":1651:1677  MessagingFee(msg.value, 0) */\n      dup2\n      mstore\n      0x20\n      dup2\n      add\n      swap2\n      swap1\n      swap2\n      mstore\n      swap3\n      pop\n        /* \"bridge samples/LocalOpenworkSender.sol\":1699:1709  msg.sender */\n      caller\n      swap2\n      pop\n        /* \"bridge samples/LocalOpenworkSender.sol\":1566:1573  _lzSend */\n      tag_143\n      swap1\n      pop\n        /* \"bridge samples/LocalOpenworkSender.sol\":1566:1720  _lzSend(... */\n      jump\t// in\n    tag_142:\n      pop\n        /* \"bridge samples/LocalOpenworkSender.sol\":1761:1771  msg.sender */\n      caller\n      sub(shl(0xa0, 0x01), 0x01)\n        /* \"bridge samples/LocalOpenworkSender.sol\":1736:1778  UserProfileSent(_dstEid, msg.sender, name) */\n      and\n        /* \"bridge samples/LocalOpenworkSender.sol\":1752:1759  _dstEid */\n      dup9\n        /* \"bridge samples/LocalOpenworkSender.sol\":1736:1778  UserProfileSent(_dstEid, msg.sender, name) */\n      0xffffffff\n      and\n      0x1d5edbfa34a5048259c7762dd64a3221054d2fb1f2f2ccb0421674c86aed0bf3\n        /* \"bridge samples/LocalOpenworkSender.sol\":1773:1777  name */\n      dup10\n        /* \"bridge samples/LocalOpenworkSender.sol\":1736:1778  UserProfileSent(_dstEid, msg.sender, name) */\n      mload(0x40)\n      tag_144\n      swap2\n      swap1\n      tag_145\n      jump\t// in\n    tag_144:\n      mload(0x40)\n      dup1\n      swap2\n      sub\n      swap1\n      log3\n        /* \"bridge samples/LocalOpenworkSender.sol\":1144:1785  {... */\n      pop\n      pop\n        /* \"@openzeppelin/contracts/security/ReentrancyGuard.sol\":2303:2323  _nonReentrantAfter() */\n      tag_146\n        /* \"@openzeppelin/contracts/security/ReentrancyGuard.sol\":1716:1717  1 */\n      0x01\n        /* \"@openzeppelin/contracts/security/ReentrancyGuard.sol\":2809:2816  _status */\n      0x02\n        /* \"@openzeppelin/contracts/security/ReentrancyGuard.sol\":2809:2831  _status = _NOT_ENTERED */\n      sstore\n        /* \"@openzeppelin/contracts/security/ReentrancyGuard.sol\":2629:2838  function _nonReentrantAfter() private {... */\n      jump\n        /* \"@openzeppelin/contracts/security/ReentrancyGuard.sol\":2303:2323  _nonReentrantAfter() */\n    tag_146:\n        /* \"bridge samples/LocalOpenworkSender.sol\":929:1785  function createUserProfile(... */\n      pop\n      pop\n      pop\n      pop\n      pop\n      pop\n      jump\t// out\n        /* \"@layerzerolabs/oapp-evm/contracts/oapp/OAppCore.sol\":3252:3357  function setDelegate(address _delegate) public onlyOwner {... */\n    tag_83:\n        /* \"@openzeppelin/contracts/access/Ownable.sol\":1531:1544  _checkOwner() */\n      tag_150\n        /* \"@openzeppelin/contracts/access/Ownable.sol\":1531:1542  _checkOwner */\n      tag_109\n        /* \"@openzeppelin/contracts/access/Ownable.sol\":1531:1544  _checkOwner() */\n      jump\t// in\n    tag_150:\n        /* \"@layerzerolabs/oapp-evm/contracts/oapp/OAppCore.sol\":3319:3350  endpoint.setDelegate(_delegate) */\n      mload(0x40)\n      shl(0xe0, 0xca5eb5e1)\n      dup2\n      mstore\n      sub(shl(0xa0, 0x01), 0x01)\n        /* \"#utility.yul\":2744:2799   */\n      dup3\n      dup2\n      and\n        /* \"@layerzerolabs/oapp-evm/contracts/oapp/OAppCore.sol\":3319:3350  endpoint.setDelegate(_delegate) */\n      0x04\n      dup4\n      add\n        /* \"#utility.yul\":2726:2800   */\n      mstore\n        /* \"@layerzerolabs/oapp-evm/contracts/oapp/OAppCore.sol\":3319:3327  endpoint */\n      immutable(\"0xef80077fd7ee005d1b0377e3e959eb59d0ca83c4839422f862a3540a66a91fb5\")\n        /* \"@layerzerolabs/oapp-evm/contracts/oapp/OAppCore.sol\":3319:3339  endpoint.setDelegate */\n      and\n      swap1\n      0xca5eb5e1\n      swap1\n        /* \"#utility.yul\":2699:2717   */\n      0x24\n      add\n        /* \"@layerzerolabs/oapp-evm/contracts/oapp/OAppCore.sol\":3319:3350  endpoint.setDelegate(_delegate) */\n      0x00\n      mload(0x40)\n      dup1\n      dup4\n      sub\n      dup2\n      0x00\n      dup8\n      dup1\n      extcodesize\n      iszero\n      dup1\n      iszero\n      tag_153\n      jumpi\n      0x00\n      dup1\n      revert\n    tag_153:\n      pop\n      gas\n      call\n      iszero\n      dup1\n      iszero\n      tag_155\n      jumpi\n      returndatasize\n      0x00\n      dup1\n      returndatacopy\n      revert(0x00, returndatasize)\n    tag_155:\n      pop\n      pop\n      pop\n      pop\n        /* \"@layerzerolabs/oapp-evm/contracts/oapp/OAppCore.sol\":3252:3357  function setDelegate(address _delegate) public onlyOwner {... */\n      pop\n      jump\t// out\n        /* \"@openzeppelin/contracts/access/Ownable.sol\":2543:2758  function transferOwnership(address newOwner) public virtual onlyOwner {... */\n    tag_87:\n        /* \"@openzeppelin/contracts/access/Ownable.sol\":1531:1544  _checkOwner() */\n      tag_157\n        /* \"@openzeppelin/contracts/access/Ownable.sol\":1531:1542  _checkOwner */\n      tag_109\n        /* \"@openzeppelin/contracts/access/Ownable.sol\":1531:1544  _checkOwner() */\n      jump\t// in\n    tag_157:\n      sub(shl(0xa0, 0x01), 0x01)\n        /* \"@openzeppelin/contracts/access/Ownable.sol\":2627:2649  newOwner == address(0) */\n      dup2\n      and\n        /* \"@openzeppelin/contracts/access/Ownable.sol\":2623:2714  if (newOwner == address(0)) {... */\n      tag_159\n      jumpi\n        /* \"@openzeppelin/contracts/access/Ownable.sol\":2672:2703  OwnableInvalidOwner(address(0)) */\n      mload(0x40)\n      shl(0xe0, 0x1e4fbdf7)\n      dup2\n      mstore\n        /* \"@openzeppelin/contracts/access/Ownable.sol\":2700:2701  0 */\n      0x00\n        /* \"@openzeppelin/contracts/access/Ownable.sol\":2672:2703  OwnableInvalidOwner(address(0)) */\n      0x04\n      dup3\n      add\n        /* \"#utility.yul\":2726:2800   */\n      mstore\n        /* \"#utility.yul\":2699:2717   */\n      0x24\n      add\n        /* \"@openzeppelin/contracts/access/Ownable.sol\":2672:2703  OwnableInvalidOwner(address(0)) */\n      tag_96\n        /* \"#utility.yul\":2552:2806   */\n      jump\n        /* \"@openzeppelin/contracts/access/Ownable.sol\":2623:2714  if (newOwner == address(0)) {... */\n    tag_159:\n        /* \"@openzeppelin/contracts/access/Ownable.sol\":2723:2751  _transferOwnership(newOwner) */\n      tag_161\n        /* \"@openzeppelin/contracts/access/Ownable.sol\":2742:2750  newOwner */\n      dup2\n        /* \"@openzeppelin/contracts/access/Ownable.sol\":2723:2741  _transferOwnership */\n      tag_124\n        /* \"@openzeppelin/contracts/access/Ownable.sol\":2723:2751  _transferOwnership(newOwner) */\n      jump\t// in\n    tag_161:\n        /* \"@openzeppelin/contracts/access/Ownable.sol\":2543:2758  function transferOwnership(address newOwner) public virtual onlyOwner {... */\n      pop\n      jump\t// out\n        /* \"@layerzerolabs/oapp-evm/contracts/oapp/OAppReceiver.sol\":2771:2920  function allowInitializePath(Origin calldata origin) public view virtual returns (bool) {... */\n    tag_92:\n        /* \"@layerzerolabs/oapp-evm/contracts/oapp/OAppReceiver.sol\":2853:2857  bool */\n      0x00\n        /* \"@layerzerolabs/oapp-evm/contracts/oapp/OAppReceiver.sol\":2900:2913  origin.sender */\n      0x20\n      dup3\n      add\n      dup1\n      calldataload\n      swap1\n        /* \"@layerzerolabs/oapp-evm/contracts/oapp/OAppReceiver.sol\":2876:2881  peers */\n      0x01\n      swap1\n        /* \"@layerzerolabs/oapp-evm/contracts/oapp/OAppReceiver.sol\":2853:2857  bool */\n      dup4\n      swap1\n        /* \"@layerzerolabs/oapp-evm/contracts/oapp/OAppReceiver.sol\":2882:2895  origin.srcEid */\n      tag_163\n      swap1\n        /* \"@layerzerolabs/oapp-evm/contracts/oapp/OAppReceiver.sol\":2900:2906  origin */\n      dup7\n        /* \"@layerzerolabs/oapp-evm/contracts/oapp/OAppReceiver.sol\":2882:2895  origin.srcEid */\n      tag_75\n      jump\t// in\n    tag_163:\n        /* \"@layerzerolabs/oapp-evm/contracts/oapp/OAppReceiver.sol\":2876:2896  peers[origin.srcEid] */\n      0xffffffff\n      and\n      dup2\n      mstore\n      0x20\n      dup2\n      add\n      swap2\n      swap1\n      swap2\n      mstore\n      0x40\n      add\n      0x00\n      keccak256\n      sload\n        /* \"@layerzerolabs/oapp-evm/contracts/oapp/OAppReceiver.sol\":2876:2913  peers[origin.srcEid] == origin.sender */\n      eq\n      swap3\n        /* \"@layerzerolabs/oapp-evm/contracts/oapp/OAppReceiver.sol\":2771:2920  function allowInitializePath(Origin calldata origin) public view virtual returns (bool) {... */\n      swap2\n      pop\n      pop\n      jump\t// out\n        /* \"@layerzerolabs/oapp-evm/contracts/oapp/OAppCore.sol\":2718:2914  function _getPeerOrRevert(uint32 _eid) internal view virtual returns (bytes32) {... */\n    tag_99:\n        /* \"@layerzerolabs/oapp-evm/contracts/oapp/OAppCore.sol\":2822:2833  peers[_eid] */\n      0xffffffff\n      dup2\n      and\n        /* \"@layerzerolabs/oapp-evm/contracts/oapp/OAppCore.sol\":2788:2795  bytes32 */\n      0x00\n        /* \"@layerzerolabs/oapp-evm/contracts/oapp/OAppCore.sol\":2822:2833  peers[_eid] */\n      swap1\n      dup2\n      mstore\n        /* \"@layerzerolabs/oapp-evm/contracts/oapp/OAppCore.sol\":2822:2827  peers */\n      0x01\n        /* \"@layerzerolabs/oapp-evm/contracts/oapp/OAppCore.sol\":2822:2833  peers[_eid] */\n      0x20\n      mstore\n      0x40\n      dup2\n      keccak256\n      sload\n      dup1\n        /* \"@layerzerolabs/oapp-evm/contracts/oapp/OAppCore.sol\":2843:2886  if (peer == bytes32(0)) revert NoPeer(_eid) */\n      tag_165\n      jumpi\n        /* \"@layerzerolabs/oapp-evm/contracts/oapp/OAppCore.sol\":2874:2886  NoPeer(_eid) */\n      mload(0x40)\n      shl(0xe0, 0xf6ff4fb7)\n      dup2\n      mstore\n        /* \"#utility.yul\":11460:11470   */\n      0xffffffff\n        /* \"#utility.yul\":11448:11471   */\n      dup5\n      and\n        /* \"@layerzerolabs/oapp-evm/contracts/oapp/OAppCore.sol\":2874:2886  NoPeer(_eid) */\n      0x04\n      dup3\n      add\n        /* \"#utility.yul\":11430:11472   */\n      mstore\n        /* \"#utility.yul\":11403:11421   */\n      0x24\n      add\n        /* \"@layerzerolabs/oapp-evm/contracts/oapp/OAppCore.sol\":2874:2886  NoPeer(_eid) */\n      tag_96\n        /* \"#utility.yul\":11286:11478   */\n      jump\n        /* \"@layerzerolabs/oapp-evm/contracts/oapp/OAppCore.sol\":2843:2886  if (peer == bytes32(0)) revert NoPeer(_eid) */\n    tag_165:\n        /* \"@layerzerolabs/oapp-evm/contracts/oapp/OAppCore.sol\":2903:2907  peer */\n      swap3\n        /* \"@layerzerolabs/oapp-evm/contracts/oapp/OAppCore.sol\":2718:2914  function _getPeerOrRevert(uint32 _eid) internal view virtual returns (bytes32) {... */\n      swap2\n      pop\n      pop\n      jump\t// out\n        /* \"@openzeppelin/contracts/access/Ownable.sol\":1796:1958  function _checkOwner() internal view virtual {... */\n    tag_109:\n        /* \"@openzeppelin/contracts/access/Ownable.sol\":1684:1691  address */\n      0x00\n        /* \"@openzeppelin/contracts/access/Ownable.sol\":1710:1716  _owner */\n      sload\n      sub(shl(0xa0, 0x01), 0x01)\n      and\n        /* \"@openzeppelin/contracts/utils/Context.sol\":735:745  msg.sender */\n      caller\n        /* \"@openzeppelin/contracts/access/Ownable.sol\":1855:1878  owner() != _msgSender() */\n      eq\n        /* \"@openzeppelin/contracts/access/Ownable.sol\":1851:1952  if (owner() != _msgSender()) {... */\n      tag_123\n      jumpi\n        /* \"@openzeppelin/contracts/access/Ownable.sol\":1901:1941  OwnableUnauthorizedAccount(_msgSender()) */\n      mload(0x40)\n      shl(0xe0, 0x118cdaa7)\n      dup2\n      mstore\n        /* \"@openzeppelin/contracts/utils/Context.sol\":735:745  msg.sender */\n      caller\n        /* \"@openzeppelin/contracts/access/Ownable.sol\":1901:1941  OwnableUnauthorizedAccount(_msgSender()) */\n      0x04\n      dup3\n      add\n        /* \"#utility.yul\":2726:2800   */\n      mstore\n        /* \"#utility.yul\":2699:2717   */\n      0x24\n      add\n        /* \"@openzeppelin/contracts/access/Ownable.sol\":1901:1941  OwnableUnauthorizedAccount(_msgSender()) */\n      tag_96\n        /* \"#utility.yul\":2552:2806   */\n      jump\n        /* \"@layerzerolabs/oapp-evm/contracts/oapp/OAppCore.sol\":2286:2420  function _setPeer(uint32 _eid, bytes32 _peer) internal virtual {... */\n    tag_112:\n        /* \"@layerzerolabs/oapp-evm/contracts/oapp/OAppCore.sol\":2359:2370  peers[_eid] */\n      0xffffffff\n      dup3\n      and\n      0x00\n      dup2\n      dup2\n      mstore\n        /* \"@layerzerolabs/oapp-evm/contracts/oapp/OAppCore.sol\":2359:2364  peers */\n      0x01\n        /* \"@layerzerolabs/oapp-evm/contracts/oapp/OAppCore.sol\":2359:2370  peers[_eid] */\n      0x20\n      swap1\n      dup2\n      mstore\n      0x40\n      swap2\n      dup3\n      swap1\n      keccak256\n        /* \"@layerzerolabs/oapp-evm/contracts/oapp/OAppCore.sol\":2359:2378  peers[_eid] = _peer */\n      dup5\n      swap1\n      sstore\n        /* \"@layerzerolabs/oapp-evm/contracts/oapp/OAppCore.sol\":2393:2413  PeerSet(_eid, _peer) */\n      dup2\n      mload\n        /* \"#utility.yul\":8347:8389   */\n      swap3\n      dup4\n      mstore\n        /* \"#utility.yul\":8405:8423   */\n      dup3\n      add\n        /* \"#utility.yul\":8398:8432   */\n      dup4\n      swap1\n      mstore\n        /* \"@layerzerolabs/oapp-evm/contracts/oapp/OAppCore.sol\":2393:2413  PeerSet(_eid, _peer) */\n      0x238399d427b947898edb290f5ff0f9109849b1c3ba196a42e35f00c50a54b98b\n      swap2\n        /* \"#utility.yul\":8320:8338   */\n      add\n        /* \"@layerzerolabs/oapp-evm/contracts/oapp/OAppCore.sol\":2393:2413  PeerSet(_eid, _peer) */\n      mload(0x40)\n      dup1\n      swap2\n      sub\n      swap1\n      log1\n        /* \"@layerzerolabs/oapp-evm/contracts/oapp/OAppCore.sol\":2286:2420  function _setPeer(uint32 _eid, bytes32 _peer) internal virtual {... */\n      pop\n      pop\n      jump\t// out\n        /* \"@layerzerolabs/oapp-evm/contracts/oapp/OAppSender.sol\":2038:2429  function _quote(... */\n    tag_119:\n      0x40\n      dup1\n      mload\n      dup1\n      dup3\n      add\n      swap1\n      swap2\n      mstore\n      0x00\n      dup1\n      dup3\n      mstore\n      0x20\n      dup3\n      add\n      mstore\n        /* \"@layerzerolabs/oapp-evm/contracts/oapp/OAppSender.sol\":2259:2267  endpoint */\n      immutable(\"0xef80077fd7ee005d1b0377e3e959eb59d0ca83c4839422f862a3540a66a91fb5\")\n      sub(shl(0xa0, 0x01), 0x01)\n        /* \"@layerzerolabs/oapp-evm/contracts/oapp/OAppSender.sol\":2259:2273  endpoint.quote */\n      and\n      0xddc28c58\n        /* \"@layerzerolabs/oapp-evm/contracts/oapp/OAppSender.sol\":2291:2377  MessagingParams(_dstEid, _getPeerOrRevert(_dstEid), _message, _options, _payInLzToken) */\n      mload(0x40)\n      dup1\n      0xa0\n      add\n      0x40\n      mstore\n      dup1\n        /* \"@layerzerolabs/oapp-evm/contracts/oapp/OAppSender.sol\":2307:2314  _dstEid */\n      dup9\n        /* \"@layerzerolabs/oapp-evm/contracts/oapp/OAppSender.sol\":2291:2377  MessagingParams(_dstEid, _getPeerOrRevert(_dstEid), _message, _options, _payInLzToken) */\n      0xffffffff\n      and\n      dup2\n      mstore\n      0x20\n      add\n        /* \"@layerzerolabs/oapp-evm/contracts/oapp/OAppSender.sol\":2316:2341  _getPeerOrRevert(_dstEid) */\n      tag_180\n        /* \"@layerzerolabs/oapp-evm/contracts/oapp/OAppSender.sol\":2333:2340  _dstEid */\n      dup10\n        /* \"@layerzerolabs/oapp-evm/contracts/oapp/OAppSender.sol\":2316:2332  _getPeerOrRevert */\n      tag_99\n        /* \"@layerzerolabs/oapp-evm/contracts/oapp/OAppSender.sol\":2316:2341  _getPeerOrRevert(_dstEid) */\n      jump\t// in\n    tag_180:\n        /* \"@layerzerolabs/oapp-evm/contracts/oapp/OAppSender.sol\":2291:2377  MessagingParams(_dstEid, _getPeerOrRevert(_dstEid), _message, _options, _payInLzToken) */\n      dup2\n      mstore\n      0x20\n      add\n        /* \"@layerzerolabs/oapp-evm/contracts/oapp/OAppSender.sol\":2343:2351  _message */\n      dup8\n        /* \"@layerzerolabs/oapp-evm/contracts/oapp/OAppSender.sol\":2291:2377  MessagingParams(_dstEid, _getPeerOrRevert(_dstEid), _message, _options, _payInLzToken) */\n      dup2\n      mstore\n      0x20\n      add\n        /* \"@layerzerolabs/oapp-evm/contracts/oapp/OAppSender.sol\":2353:2361  _options */\n      dup7\n        /* \"@layerzerolabs/oapp-evm/contracts/oapp/OAppSender.sol\":2291:2377  MessagingParams(_dstEid, _getPeerOrRevert(_dstEid), _message, _options, _payInLzToken) */\n      dup2\n      mstore\n      0x20\n      add\n        /* \"@layerzerolabs/oapp-evm/contracts/oapp/OAppSender.sol\":2363:2376  _payInLzToken */\n      dup6\n        /* \"@layerzerolabs/oapp-evm/contracts/oapp/OAppSender.sol\":2291:2377  MessagingParams(_dstEid, _getPeerOrRevert(_dstEid), _message, _options, _payInLzToken) */\n      iszero\n      iszero\n      dup2\n      mstore\n      pop\n        /* \"@layerzerolabs/oapp-evm/contracts/oapp/OAppSender.sol\":2403:2407  this */\n      address\n        /* \"@layerzerolabs/oapp-evm/contracts/oapp/OAppSender.sol\":2259:2422  endpoint.quote(... */\n      mload(0x40)\n      dup4\n      0xffffffff\n      and\n      0xe0\n      shl\n      dup2\n      mstore\n      0x04\n      add\n      tag_181\n      swap3\n      swap2\n      swap1\n      tag_182\n      jump\t// in\n    tag_181:\n      0x40\n      dup1\n      mload\n      dup1\n      dup4\n      sub\n      dup2\n      dup7\n      gas\n      staticcall\n      iszero\n      dup1\n      iszero\n      tag_184\n      jumpi\n      returndatasize\n      0x00\n      dup1\n      returndatacopy\n      revert(0x00, returndatasize)\n    tag_184:\n      pop\n      pop\n      pop\n      pop\n      mload(0x40)\n      returndatasize\n      not(0x1f)\n      0x1f\n      dup3\n      add\n      and\n      dup3\n      add\n      dup1\n      0x40\n      mstore\n      pop\n      dup2\n      add\n      swap1\n      tag_185\n      swap2\n      swap1\n      tag_186\n      jump\t// in\n    tag_185:\n        /* \"@layerzerolabs/oapp-evm/contracts/oapp/OAppSender.sol\":2240:2422  return... */\n      swap6\n        /* \"@layerzerolabs/oapp-evm/contracts/oapp/OAppSender.sol\":2038:2429  function _quote(... */\n      swap5\n      pop\n      pop\n      pop\n      pop\n      pop\n      jump\t// out\n        /* \"@openzeppelin/contracts/access/Ownable.sol\":2912:3099  function _transferOwnership(address newOwner) internal virtual {... */\n    tag_124:\n        /* \"@openzeppelin/contracts/access/Ownable.sol\":2985:3001  address oldOwner */\n      0x00\n        /* \"@openzeppelin/contracts/access/Ownable.sol\":3004:3010  _owner */\n      dup1\n      sload\n      sub(shl(0xa0, 0x01), 0x01)\n        /* \"@openzeppelin/contracts/access/Ownable.sol\":3020:3037  _owner = newOwner */\n      dup4\n      dup2\n      and\n      not(0xffffffffffffffffffffffffffffffffffffffff)\n      dup4\n      and\n      dup2\n      or\n      dup5\n      sstore\n        /* \"@openzeppelin/contracts/access/Ownable.sol\":3052:3092  OwnershipTransferred(oldOwner, newOwner) */\n      mload(0x40)\n        /* \"@openzeppelin/contracts/access/Ownable.sol\":3004:3010  _owner */\n      swap2\n      swap1\n      swap3\n      and\n      swap3\n      dup4\n      swap2\n        /* \"@openzeppelin/contracts/access/Ownable.sol\":3052:3092  OwnershipTransferred(oldOwner, newOwner) */\n      0x8be0079c531659141344cd1fd0a4f28419497f9722a3daafe3b4186f6b6457e0\n      swap2\n        /* \"@openzeppelin/contracts/access/Ownable.sol\":2985:3001  address oldOwner */\n      swap1\n        /* \"@openzeppelin/contracts/access/Ownable.sol\":3052:3092  OwnershipTransferred(oldOwner, newOwner) */\n      log3\n        /* \"@openzeppelin/contracts/access/Ownable.sol\":2975:3099  {... */\n      pop\n        /* \"@openzeppelin/contracts/access/Ownable.sol\":2912:3099  function _transferOwnership(address newOwner) internal virtual {... */\n      pop\n      jump\t// out\n        /* \"@openzeppelin/contracts/security/ReentrancyGuard.sol\":2336:2623  function _nonReentrantBefore() private {... */\n    tag_129:\n        /* \"@openzeppelin/contracts/security/ReentrancyGuard.sol\":1759:1760  2 */\n      0x02\n        /* \"@openzeppelin/contracts/security/ReentrancyGuard.sol\":2468:2475  _status */\n      dup1\n      sload\n        /* \"@openzeppelin/contracts/security/ReentrancyGuard.sol\":2468:2487  _status != _ENTERED */\n      sub\n        /* \"@openzeppelin/contracts/security/ReentrancyGuard.sol\":2460:2523  require(_status != _ENTERED, \"ReentrancyGuard: reentrant call\") */\n      tag_189\n      jumpi\n      mload(0x40)\n      shl(0xe5, 0x461bcd)\n      dup2\n      mstore\n        /* \"#utility.yul\":13469:13471   */\n      0x20\n        /* \"@openzeppelin/contracts/security/ReentrancyGuard.sol\":2460:2523  require(_status != _ENTERED, \"ReentrancyGuard: reentrant call\") */\n      0x04\n      dup3\n      add\n        /* \"#utility.yul\":13451:13472   */\n      mstore\n        /* \"#utility.yul\":13508:13510   */\n      0x1f\n        /* \"#utility.yul\":13488:13506   */\n      0x24\n      dup3\n      add\n        /* \"#utility.yul\":13481:13511   */\n      mstore\n        /* \"#utility.yul\":13547:13580   */\n      0x5265656e7472616e637947756172643a207265656e7472616e742063616c6c00\n        /* \"#utility.yul\":13527:13545   */\n      0x44\n      dup3\n      add\n        /* \"#utility.yul\":13520:13581   */\n      mstore\n        /* \"#utility.yul\":13598:13616   */\n      0x64\n      add\n        /* \"@openzeppelin/contracts/security/ReentrancyGuard.sol\":2460:2523  require(_status != _ENTERED, \"ReentrancyGuard: reentrant call\") */\n      tag_96\n        /* \"#utility.yul\":13267:13622   */\n      jump\n        /* \"@openzeppelin/contracts/security/ReentrancyGuard.sol\":2460:2523  require(_status != _ENTERED, \"ReentrancyGuard: reentrant call\") */\n    tag_189:\n        /* \"@openzeppelin/contracts/security/ReentrancyGuard.sol\":1759:1760  2 */\n      0x02\n        /* \"@openzeppelin/contracts/security/ReentrancyGuard.sol\":2598:2616  _status = _ENTERED */\n      dup1\n      sstore\n        /* \"@openzeppelin/contracts/security/ReentrancyGuard.sol\":2336:2623  function _nonReentrantBefore() private {... */\n      jump\t// out\n        /* \"@layerzerolabs/oapp-evm/contracts/oapp/OAppSender.sol\":3188:3954  function _lzSend(... */\n    tag_143:\n        /* \"@layerzerolabs/oapp-evm/contracts/oapp/OAppSender.sol\":3389:3420  MessagingReceipt memory receipt */\n      tag_192\n      tag_193\n      jump\t// in\n    tag_192:\n        /* \"@layerzerolabs/oapp-evm/contracts/oapp/OAppSender.sol\":3554:3574  uint256 messageValue */\n      0x00\n        /* \"@layerzerolabs/oapp-evm/contracts/oapp/OAppSender.sol\":3577:3603  _payNative(_fee.nativeFee) */\n      tag_195\n        /* \"@layerzerolabs/oapp-evm/contracts/oapp/OAppSender.sol\":3588:3592  _fee */\n      dup5\n        /* \"@layerzerolabs/oapp-evm/contracts/oapp/OAppSender.sol\":3588:3602  _fee.nativeFee */\n      0x00\n      add\n      mload\n        /* \"@layerzerolabs/oapp-evm/contracts/oapp/OAppSender.sol\":3577:3587  _payNative */\n      tag_196\n        /* \"@layerzerolabs/oapp-evm/contracts/oapp/OAppSender.sol\":3577:3603  _payNative(_fee.nativeFee) */\n      jump\t// in\n    tag_195:\n        /* \"@layerzerolabs/oapp-evm/contracts/oapp/OAppSender.sol\":3617:3632  _fee.lzTokenFee */\n      0x20\n      dup6\n      add\n      mload\n        /* \"@layerzerolabs/oapp-evm/contracts/oapp/OAppSender.sol\":3554:3603  uint256 messageValue = _payNative(_fee.nativeFee) */\n      swap1\n      swap2\n      pop\n        /* \"@layerzerolabs/oapp-evm/contracts/oapp/OAppSender.sol\":3617:3636  _fee.lzTokenFee > 0 */\n      iszero\n        /* \"@layerzerolabs/oapp-evm/contracts/oapp/OAppSender.sol\":3613:3666  if (_fee.lzTokenFee > 0) _payLzToken(_fee.lzTokenFee) */\n      tag_198\n      jumpi\n        /* \"@layerzerolabs/oapp-evm/contracts/oapp/OAppSender.sol\":3638:3666  _payLzToken(_fee.lzTokenFee) */\n      tag_198\n        /* \"@layerzerolabs/oapp-evm/contracts/oapp/OAppSender.sol\":3650:3654  _fee */\n      dup5\n        /* \"@layerzerolabs/oapp-evm/contracts/oapp/OAppSender.sol\":3650:3665  _fee.lzTokenFee */\n      0x20\n      add\n      mload\n        /* \"@layerzerolabs/oapp-evm/contracts/oapp/OAppSender.sol\":3638:3649  _payLzToken */\n      tag_199\n        /* \"@layerzerolabs/oapp-evm/contracts/oapp/OAppSender.sol\":3638:3666  _payLzToken(_fee.lzTokenFee) */\n      jump\t// in\n    tag_198:\n        /* \"@layerzerolabs/oapp-evm/contracts/oapp/OAppSender.sol\":3755:3763  endpoint */\n      immutable(\"0xef80077fd7ee005d1b0377e3e959eb59d0ca83c4839422f862a3540a66a91fb5\")\n      sub(shl(0xa0, 0x01), 0x01)\n        /* \"@layerzerolabs/oapp-evm/contracts/oapp/OAppSender.sol\":3755:3768  endpoint.send */\n      and\n      0x2637a450\n        /* \"@layerzerolabs/oapp-evm/contracts/oapp/OAppSender.sol\":3777:3789  messageValue */\n      dup3\n        /* \"@layerzerolabs/oapp-evm/contracts/oapp/OAppSender.sol\":3809:3901  MessagingParams(_dstEid, _getPeerOrRevert(_dstEid), _message, _options, _fee.lzTokenFee > 0) */\n      mload(0x40)\n      dup1\n      0xa0\n      add\n      0x40\n      mstore\n      dup1\n        /* \"@layerzerolabs/oapp-evm/contracts/oapp/OAppSender.sol\":3825:3832  _dstEid */\n      dup12\n        /* \"@layerzerolabs/oapp-evm/contracts/oapp/OAppSender.sol\":3809:3901  MessagingParams(_dstEid, _getPeerOrRevert(_dstEid), _message, _options, _fee.lzTokenFee > 0) */\n      0xffffffff\n      and\n      dup2\n      mstore\n      0x20\n      add\n        /* \"@layerzerolabs/oapp-evm/contracts/oapp/OAppSender.sol\":3834:3859  _getPeerOrRevert(_dstEid) */\n      tag_200\n        /* \"@layerzerolabs/oapp-evm/contracts/oapp/OAppSender.sol\":3851:3858  _dstEid */\n      dup13\n        /* \"@layerzerolabs/oapp-evm/contracts/oapp/OAppSender.sol\":3834:3850  _getPeerOrRevert */\n      tag_99\n        /* \"@layerzerolabs/oapp-evm/contracts/oapp/OAppSender.sol\":3834:3859  _getPeerOrRevert(_dstEid) */\n      jump\t// in\n    tag_200:\n        /* \"@layerzerolabs/oapp-evm/contracts/oapp/OAppSender.sol\":3809:3901  MessagingParams(_dstEid, _getPeerOrRevert(_dstEid), _message, _options, _fee.lzTokenFee > 0) */\n      dup2\n      mstore\n      0x20\n      add\n        /* \"@layerzerolabs/oapp-evm/contracts/oapp/OAppSender.sol\":3861:3869  _message */\n      dup11\n        /* \"@layerzerolabs/oapp-evm/contracts/oapp/OAppSender.sol\":3809:3901  MessagingParams(_dstEid, _getPeerOrRevert(_dstEid), _message, _options, _fee.lzTokenFee > 0) */\n      dup2\n      mstore\n      0x20\n      add\n        /* \"@layerzerolabs/oapp-evm/contracts/oapp/OAppSender.sol\":3871:3879  _options */\n      dup10\n        /* \"@layerzerolabs/oapp-evm/contracts/oapp/OAppSender.sol\":3809:3901  MessagingParams(_dstEid, _getPeerOrRevert(_dstEid), _message, _options, _fee.lzTokenFee > 0) */\n      dup2\n      mstore\n      0x20\n      add\n        /* \"@layerzerolabs/oapp-evm/contracts/oapp/OAppSender.sol\":3899:3900  0 */\n      0x00\n        /* \"@layerzerolabs/oapp-evm/contracts/oapp/OAppSender.sol\":3881:3885  _fee */\n      dup10\n        /* \"@layerzerolabs/oapp-evm/contracts/oapp/OAppSender.sol\":3881:3896  _fee.lzTokenFee */\n      0x20\n      add\n      mload\n        /* \"@layerzerolabs/oapp-evm/contracts/oapp/OAppSender.sol\":3881:3900  _fee.lzTokenFee > 0 */\n      gt\n        /* \"@layerzerolabs/oapp-evm/contracts/oapp/OAppSender.sol\":3809:3901  MessagingParams(_dstEid, _getPeerOrRevert(_dstEid), _message, _options, _fee.lzTokenFee > 0) */\n      iszero\n      iszero\n      dup2\n      mstore\n      pop\n        /* \"@layerzerolabs/oapp-evm/contracts/oapp/OAppSender.sol\":3919:3933  _refundAddress */\n      dup7\n        /* \"@layerzerolabs/oapp-evm/contracts/oapp/OAppSender.sol\":3755:3947  endpoint.send{ value: messageValue }(... */\n      mload(0x40)\n      dup5\n      0xffffffff\n      and\n      0xe0\n      shl\n      dup2\n      mstore\n      0x04\n      add\n      tag_201\n      swap3\n      swap2\n      swap1\n      tag_182\n      jump\t// in\n    tag_201:\n      0x80\n      mload(0x40)\n      dup1\n      dup4\n      sub\n      dup2\n      dup6\n      dup9\n      gas\n      call\n      iszero\n      dup1\n      iszero\n      tag_203\n      jumpi\n      returndatasize\n      0x00\n      dup1\n      returndatacopy\n      revert(0x00, returndatasize)\n    tag_203:\n      pop\n      pop\n      pop\n      pop\n      pop\n      mload(0x40)\n      returndatasize\n      not(0x1f)\n      0x1f\n      dup3\n      add\n      and\n      dup3\n      add\n      dup1\n      0x40\n      mstore\n      pop\n      dup2\n      add\n      swap1\n      tag_204\n      swap2\n      swap1\n      tag_205\n      jump\t// in\n    tag_204:\n        /* \"@layerzerolabs/oapp-evm/contracts/oapp/OAppSender.sol\":3677:3947  return... */\n      swap8\n        /* \"@layerzerolabs/oapp-evm/contracts/oapp/OAppSender.sol\":3188:3954  function _lzSend(... */\n      swap7\n      pop\n      pop\n      pop\n      pop\n      pop\n      pop\n      pop\n      jump\t// out\n        /* \"@layerzerolabs/oapp-evm/contracts/oapp/OAppSender.sol\":4650:4841  function _payNative(uint256 _nativeFee) internal virtual returns (uint256 nativeFee) {... */\n    tag_196:\n        /* \"@layerzerolabs/oapp-evm/contracts/oapp/OAppSender.sol\":4716:4733  uint256 nativeFee */\n      0x00\n        /* \"@layerzerolabs/oapp-evm/contracts/oapp/OAppSender.sol\":4762:4772  _nativeFee */\n      dup2\n        /* \"@layerzerolabs/oapp-evm/contracts/oapp/OAppSender.sol\":4749:4758  msg.value */\n      callvalue\n        /* \"@layerzerolabs/oapp-evm/contracts/oapp/OAppSender.sol\":4749:4772  msg.value != _nativeFee */\n      eq\n        /* \"@layerzerolabs/oapp-evm/contracts/oapp/OAppSender.sol\":4745:4807  if (msg.value != _nativeFee) revert NotEnoughNative(msg.value) */\n      tag_209\n      jumpi\n        /* \"@layerzerolabs/oapp-evm/contracts/oapp/OAppSender.sol\":4781:4807  NotEnoughNative(msg.value) */\n      mload(0x40)\n      shl(0xe5, 0x04fb8209)\n      dup2\n      mstore\n        /* \"@layerzerolabs/oapp-evm/contracts/oapp/OAppSender.sol\":4797:4806  msg.value */\n      callvalue\n        /* \"@layerzerolabs/oapp-evm/contracts/oapp/OAppSender.sol\":4781:4807  NotEnoughNative(msg.value) */\n      0x04\n      dup3\n      add\n        /* \"#utility.yul\":7648:7673   */\n      mstore\n        /* \"#utility.yul\":7621:7639   */\n      0x24\n      add\n        /* \"@layerzerolabs/oapp-evm/contracts/oapp/OAppSender.sol\":4781:4807  NotEnoughNative(msg.value) */\n      tag_96\n        /* \"#utility.yul\":7502:7679   */\n      jump\n        /* \"@layerzerolabs/oapp-evm/contracts/oapp/OAppSender.sol\":4745:4807  if (msg.value != _nativeFee) revert NotEnoughNative(msg.value) */\n    tag_209:\n      pop\n        /* \"@layerzerolabs/oapp-evm/contracts/oapp/OAppSender.sol\":4824:4834  _nativeFee */\n      swap1\n        /* \"@layerzerolabs/oapp-evm/contracts/oapp/OAppSender.sol\":4650:4841  function _payNative(uint256 _nativeFee) internal virtual returns (uint256 nativeFee) {... */\n      jump\t// out\n        /* \"@layerzerolabs/oapp-evm/contracts/oapp/OAppSender.sol\":5218:5628  function _payLzToken(uint256 _lzTokenFee) internal virtual {... */\n    tag_199:\n        /* \"@layerzerolabs/oapp-evm/contracts/oapp/OAppSender.sol\":5371:5386  address lzToken */\n      0x00\n        /* \"@layerzerolabs/oapp-evm/contracts/oapp/OAppSender.sol\":5389:5397  endpoint */\n      immutable(\"0xef80077fd7ee005d1b0377e3e959eb59d0ca83c4839422f862a3540a66a91fb5\")\n      sub(shl(0xa0, 0x01), 0x01)\n        /* \"@layerzerolabs/oapp-evm/contracts/oapp/OAppSender.sol\":5389:5405  endpoint.lzToken */\n      and\n      0xe4fe1d94\n        /* \"@layerzerolabs/oapp-evm/contracts/oapp/OAppSender.sol\":5389:5407  endpoint.lzToken() */\n      mload(0x40)\n      dup2\n      0xffffffff\n      and\n      0xe0\n      shl\n      dup2\n      mstore\n      0x04\n      add\n      0x20\n      mload(0x40)\n      dup1\n      dup4\n      sub\n      dup2\n      dup7\n      gas\n      staticcall\n      iszero\n      dup1\n      iszero\n      tag_214\n      jumpi\n      returndatasize\n      0x00\n      dup1\n      returndatacopy\n      revert(0x00, returndatasize)\n    tag_214:\n      pop\n      pop\n      pop\n      pop\n      mload(0x40)\n      returndatasize\n      not(0x1f)\n      0x1f\n      dup3\n      add\n      and\n      dup3\n      add\n      dup1\n      0x40\n      mstore\n      pop\n      dup2\n      add\n      swap1\n      tag_215\n      swap2\n      swap1\n      tag_216\n      jump\t// in\n    tag_215:\n        /* \"@layerzerolabs/oapp-evm/contracts/oapp/OAppSender.sol\":5371:5407  address lzToken = endpoint.lzToken() */\n      swap1\n      pop\n      sub(shl(0xa0, 0x01), 0x01)\n        /* \"@layerzerolabs/oapp-evm/contracts/oapp/OAppSender.sol\":5421:5442  lzToken == address(0) */\n      dup2\n      and\n        /* \"@layerzerolabs/oapp-evm/contracts/oapp/OAppSender.sol\":5417:5471  if (lzToken == address(0)) revert LzTokenUnavailable() */\n      tag_217\n      jumpi\n        /* \"@layerzerolabs/oapp-evm/contracts/oapp/OAppSender.sol\":5451:5471  LzTokenUnavailable() */\n      mload(0x40)\n      shl(0xe1, 0x29b99a95)\n      dup2\n      mstore\n      0x04\n      add\n      mload(0x40)\n      dup1\n      swap2\n      sub\n      swap1\n      revert\n        /* \"@layerzerolabs/oapp-evm/contracts/oapp/OAppSender.sol\":5417:5471  if (lzToken == address(0)) revert LzTokenUnavailable() */\n    tag_217:\n        /* \"@openzeppelin/contracts/token/ERC20/utils/SafeERC20.sol\":1745:1798  abi.encodeCall(token.transferFrom, (from, to, value)) */\n      0x40\n      dup1\n      mload\n        /* \"@layerzerolabs/oapp-evm/contracts/oapp/OAppSender.sol\":5578:5588  msg.sender */\n      caller\n        /* \"@openzeppelin/contracts/token/ERC20/utils/SafeERC20.sol\":1745:1798  abi.encodeCall(token.transferFrom, (from, to, value)) */\n      0x24\n      dup3\n      add\n        /* \"#utility.yul\":15049:15123   */\n      dup2\n      swap1\n      mstore\n        /* \"@layerzerolabs/oapp-evm/contracts/oapp/OAppSender.sol\":5598:5606  endpoint */\n      immutable(\"0xef80077fd7ee005d1b0377e3e959eb59d0ca83c4839422f862a3540a66a91fb5\")\n      sub(shl(0xa0, 0x01), 0x01)\n        /* \"#utility.yul\":15159:15214   */\n      dup2\n      dup2\n      and\n        /* \"#utility.yul\":15139:15157   */\n      0x44\n      dup6\n      add\n        /* \"#utility.yul\":15132:15215   */\n      mstore\n        /* \"#utility.yul\":15231:15249   */\n      0x64\n      dup1\n      dup6\n      add\n        /* \"#utility.yul\":15224:15258   */\n      dup9\n      swap1\n      mstore\n        /* \"@openzeppelin/contracts/token/ERC20/utils/SafeERC20.sol\":1745:1798  abi.encodeCall(token.transferFrom, (from, to, value)) */\n      dup6\n      mload\n      dup1\n      dup7\n      sub\n      swap1\n      swap2\n      add\n      dup2\n      mstore\n        /* \"#utility.yul\":15022:15040   */\n      0x84\n      swap1\n      swap5\n      add\n        /* \"@openzeppelin/contracts/token/ERC20/utils/SafeERC20.sol\":1745:1798  abi.encodeCall(token.transferFrom, (from, to, value)) */\n      swap1\n      swap5\n      mstore\n      0x20\n      dup4\n      add\n      dup1\n      mload\n      sub(shl(0xe0, 0x01), 0x01)\n      and\n      shl(0xe0, 0x23b872dd)\n      or\n      swap1\n      mstore\n        /* \"@layerzerolabs/oapp-evm/contracts/oapp/OAppSender.sol\":5545:5621  IERC20(lzToken).safeTransferFrom(msg.sender, address(endpoint), _lzTokenFee) */\n      tag_111\n      swap4\n        /* \"@layerzerolabs/oapp-evm/contracts/oapp/OAppSender.sol\":5545:5577  IERC20(lzToken).safeTransferFrom */\n      dup6\n      and\n      swap3\n        /* \"@layerzerolabs/oapp-evm/contracts/oapp/OAppSender.sol\":5609:5620  _lzTokenFee */\n      dup7\n      swap1\n        /* \"@openzeppelin/contracts/token/ERC20/utils/SafeERC20.sol\":1718:1799  _callOptionalReturn(token, abi.encodeCall(token.transferFrom, (from, to, value))) */\n      tag_221\n      swap1\n        /* \"@layerzerolabs/oapp-evm/contracts/oapp/OAppSender.sol\":5545:5577  IERC20(lzToken).safeTransferFrom */\n      dup6\n      swap1\n        /* \"@openzeppelin/contracts/token/ERC20/utils/SafeERC20.sol\":1718:1737  _callOptionalReturn */\n      tag_224\n        /* \"@openzeppelin/contracts/token/ERC20/utils/SafeERC20.sol\":1718:1799  _callOptionalReturn(token, abi.encodeCall(token.transferFrom, (from, to, value))) */\n      jump\t// in\n    tag_221:\n        /* \"@openzeppelin/contracts/token/ERC20/utils/SafeERC20.sol\":1618:1806  function safeTransferFrom(IERC20 token, address from, address to, uint256 value) internal {... */\n      pop\n      pop\n      pop\n      pop\n      jump\t// out\n        /* \"@openzeppelin/contracts/token/ERC20/utils/SafeERC20.sol\":8370:9090  function _callOptionalReturn(IERC20 token, bytes memory data) private {... */\n    tag_224:\n        /* \"@openzeppelin/contracts/token/ERC20/utils/SafeERC20.sol\":8450:8468  uint256 returnSize */\n      0x00\n        /* \"@openzeppelin/contracts/token/ERC20/utils/SafeERC20.sol\":8478:8497  uint256 returnValue */\n      dup1\n        /* \"@openzeppelin/contracts/token/ERC20/utils/SafeERC20.sol\":8616:8620  0x20 */\n      0x20\n        /* \"@openzeppelin/contracts/token/ERC20/utils/SafeERC20.sol\":8613:8614  0 */\n      0x00\n        /* \"@openzeppelin/contracts/token/ERC20/utils/SafeERC20.sol\":8606:8610  data */\n      dup5\n        /* \"@openzeppelin/contracts/token/ERC20/utils/SafeERC20.sol\":8600:8611  mload(data) */\n      mload\n        /* \"@openzeppelin/contracts/token/ERC20/utils/SafeERC20.sol\":8593:8597  0x20 */\n      0x20\n        /* \"@openzeppelin/contracts/token/ERC20/utils/SafeERC20.sol\":8587:8591  data */\n      dup7\n        /* \"@openzeppelin/contracts/token/ERC20/utils/SafeERC20.sol\":8583:8598  add(data, 0x20) */\n      add\n        /* \"@openzeppelin/contracts/token/ERC20/utils/SafeERC20.sol\":8580:8581  0 */\n      0x00\n        /* \"@openzeppelin/contracts/token/ERC20/utils/SafeERC20.sol\":8573:8578  token */\n      dup9\n        /* \"@openzeppelin/contracts/token/ERC20/utils/SafeERC20.sol\":8566:8571  gas() */\n      gas\n        /* \"@openzeppelin/contracts/token/ERC20/utils/SafeERC20.sol\":8561:8621  call(gas(), token, 0, add(data, 0x20), mload(data), 0, 0x20) */\n      call\n        /* \"@openzeppelin/contracts/token/ERC20/utils/SafeERC20.sol\":8673:8680  success */\n      dup1\n        /* \"@openzeppelin/contracts/token/ERC20/utils/SafeERC20.sol\":8663:8839  if iszero(success) {... */\n      tag_226\n      jumpi\n        /* \"@openzeppelin/contracts/token/ERC20/utils/SafeERC20.sol\":8717:8721  0x40 */\n      0x40\n        /* \"@openzeppelin/contracts/token/ERC20/utils/SafeERC20.sol\":8711:8722  mload(0x40) */\n      mload\n        /* \"@openzeppelin/contracts/token/ERC20/utils/SafeERC20.sol\":8762:8778  returndatasize() */\n      returndatasize\n        /* \"@openzeppelin/contracts/token/ERC20/utils/SafeERC20.sol\":8759:8760  0 */\n      0x00\n        /* \"@openzeppelin/contracts/token/ERC20/utils/SafeERC20.sol\":8754:8757  ptr */\n      dup3\n        /* \"@openzeppelin/contracts/token/ERC20/utils/SafeERC20.sol\":8739:8779  returndatacopy(ptr, 0, returndatasize()) */\n      returndatacopy\n        /* \"@openzeppelin/contracts/token/ERC20/utils/SafeERC20.sol\":8808:8824  returndatasize() */\n      returndatasize\n        /* \"@openzeppelin/contracts/token/ERC20/utils/SafeERC20.sol\":8803:8806  ptr */\n      dup2\n        /* \"@openzeppelin/contracts/token/ERC20/utils/SafeERC20.sol\":8796:8825  revert(ptr, returndatasize()) */\n      revert\n        /* \"@openzeppelin/contracts/token/ERC20/utils/SafeERC20.sol\":8663:8839  if iszero(success) {... */\n    tag_226:\n      pop\n      pop\n        /* \"@openzeppelin/contracts/token/ERC20/utils/SafeERC20.sol\":8916:8917  0 */\n      0x00\n        /* \"@openzeppelin/contracts/token/ERC20/utils/SafeERC20.sol\":8910:8918  mload(0) */\n      mload\n        /* \"@openzeppelin/contracts/token/ERC20/utils/SafeERC20.sol\":8866:8882  returndatasize() */\n      returndatasize\n      swap2\n      pop\n        /* \"@openzeppelin/contracts/token/ERC20/utils/SafeERC20.sol\":8942:8957  returnSize == 0 */\n      dup2\n      iszero\n        /* \"@openzeppelin/contracts/token/ERC20/utils/SafeERC20.sol\":8942:9010  returnSize == 0 ? address(token).code.length == 0 : returnValue != 1 */\n      tag_227\n      jumpi\n        /* \"@openzeppelin/contracts/token/ERC20/utils/SafeERC20.sol\":8994:9005  returnValue */\n      dup1\n        /* \"@openzeppelin/contracts/token/ERC20/utils/SafeERC20.sol\":9009:9010  1 */\n      0x01\n        /* \"@openzeppelin/contracts/token/ERC20/utils/SafeERC20.sol\":8994:9010  returnValue != 1 */\n      eq\n      iszero\n        /* \"@openzeppelin/contracts/token/ERC20/utils/SafeERC20.sol\":8942:9010  returnSize == 0 ? address(token).code.length == 0 : returnValue != 1 */\n      jump(tag_228)\n    tag_227:\n      sub(shl(0xa0, 0x01), 0x01)\n        /* \"@openzeppelin/contracts/token/ERC20/utils/SafeERC20.sol\":8960:8986  address(token).code.length */\n      dup5\n      and\n      extcodesize\n        /* \"@openzeppelin/contracts/token/ERC20/utils/SafeERC20.sol\":8960:8991  address(token).code.length == 0 */\n      iszero\n        /* \"@openzeppelin/contracts/token/ERC20/utils/SafeERC20.sol\":8942:9010  returnSize == 0 ? address(token).code.length == 0 : returnValue != 1 */\n    tag_228:\n        /* \"@openzeppelin/contracts/token/ERC20/utils/SafeERC20.sol\":8938:9084  if (returnSize == 0 ? address(token).code.length == 0 : returnValue != 1) {... */\n      iszero\n      tag_221\n      jumpi\n        /* \"@openzeppelin/contracts/token/ERC20/utils/SafeERC20.sol\":9033:9073  SafeERC20FailedOperation(address(token)) */\n      mload(0x40)\n      shl(0xe0, 0x5274afe7)\n      dup2\n      mstore\n      sub(shl(0xa0, 0x01), 0x01)\n        /* \"#utility.yul\":2744:2799   */\n      dup6\n      and\n        /* \"@openzeppelin/contracts/token/ERC20/utils/SafeERC20.sol\":9033:9073  SafeERC20FailedOperation(address(token)) */\n      0x04\n      dup3\n      add\n        /* \"#utility.yul\":2726:2800   */\n      mstore\n        /* \"#utility.yul\":2699:2717   */\n      0x24\n      add\n        /* \"@openzeppelin/contracts/token/ERC20/utils/SafeERC20.sol\":9033:9073  SafeERC20FailedOperation(address(token)) */\n      tag_96\n        /* \"#utility.yul\":2552:2806   */\n      jump\n    tag_193:\n      mload(0x40)\n      dup1\n      0x60\n      add\n      0x40\n      mstore\n      dup1\n      0x00\n      dup1\n      not\n      and\n      dup2\n      mstore\n      0x20\n      add\n      and(0xffffffffffffffff, 0x00)\n      dup2\n      mstore\n      0x20\n      add\n      tag_231\n      mload(0x40)\n      dup1\n      0x40\n      add\n      0x40\n      mstore\n      dup1\n      0x00\n      dup2\n      mstore\n      0x20\n      add\n      0x00\n      dup2\n      mstore\n      pop\n      swap1\n      jump\n    tag_231:\n      swap1\n      mstore\n      swap1\n      jump\t// out\n        /* \"#utility.yul\":14:168   */\n    tag_232:\n        /* \"#utility.yul\":73:78   */\n      0x00\n        /* \"#utility.yul\":118:120   */\n      0x60\n        /* \"#utility.yul\":109:115   */\n      dup3\n        /* \"#utility.yul\":104:107   */\n      dup5\n        /* \"#utility.yul\":100:116   */\n      sub\n        /* \"#utility.yul\":96:121   */\n      slt\n        /* \"#utility.yul\":93:138   */\n      iszero\n      tag_243\n      jumpi\n        /* \"#utility.yul\":134:135   */\n      0x00\n        /* \"#utility.yul\":131:132   */\n      dup1\n        /* \"#utility.yul\":124:136   */\n      revert\n        /* \"#utility.yul\":93:138   */\n    tag_243:\n      pop\n        /* \"#utility.yul\":156:162   */\n      swap2\n        /* \"#utility.yul\":14:168   */\n      swap1\n      pop\n      jump\t// out\n        /* \"#utility.yul\":173:520   */\n    tag_233:\n        /* \"#utility.yul\":224:232   */\n      0x00\n        /* \"#utility.yul\":234:240   */\n      dup1\n        /* \"#utility.yul\":288:291   */\n      dup4\n        /* \"#utility.yul\":281:285   */\n      0x1f\n        /* \"#utility.yul\":273:279   */\n      dup5\n        /* \"#utility.yul\":269:286   */\n      add\n        /* \"#utility.yul\":265:292   */\n      slt\n        /* \"#utility.yul\":255:310   */\n      tag_245\n      jumpi\n        /* \"#utility.yul\":306:307   */\n      0x00\n        /* \"#utility.yul\":303:304   */\n      dup1\n        /* \"#utility.yul\":296:308   */\n      revert\n        /* \"#utility.yul\":255:310   */\n    tag_245:\n      pop\n        /* \"#utility.yul\":329:349   */\n      dup2\n      calldataload\n        /* \"#utility.yul\":372:390   */\n      0xffffffffffffffff\n        /* \"#utility.yul\":361:391   */\n      dup2\n      gt\n        /* \"#utility.yul\":358:408   */\n      iszero\n      tag_246\n      jumpi\n        /* \"#utility.yul\":404:405   */\n      0x00\n        /* \"#utility.yul\":401:402   */\n      dup1\n        /* \"#utility.yul\":394:406   */\n      revert\n        /* \"#utility.yul\":358:408   */\n    tag_246:\n        /* \"#utility.yul\":441:445   */\n      0x20\n        /* \"#utility.yul\":433:439   */\n      dup4\n        /* \"#utility.yul\":429:446   */\n      add\n        /* \"#utility.yul\":417:446   */\n      swap2\n      pop\n        /* \"#utility.yul\":493:496   */\n      dup4\n        /* \"#utility.yul\":486:490   */\n      0x20\n        /* \"#utility.yul\":477:483   */\n      dup3\n        /* \"#utility.yul\":469:475   */\n      dup6\n        /* \"#utility.yul\":465:484   */\n      add\n        /* \"#utility.yul\":461:491   */\n      add\n        /* \"#utility.yul\":458:497   */\n      gt\n        /* \"#utility.yul\":455:514   */\n      iszero\n      tag_247\n      jumpi\n        /* \"#utility.yul\":510:511   */\n      0x00\n        /* \"#utility.yul\":507:508   */\n      dup1\n        /* \"#utility.yul\":500:512   */\n      revert\n        /* \"#utility.yul\":455:514   */\n    tag_247:\n        /* \"#utility.yul\":173:520   */\n      swap3\n      pop\n      swap3\n      swap1\n      pop\n      jump\t// out\n        /* \"#utility.yul\":525:679   */\n    tag_234:\n      sub(shl(0xa0, 0x01), 0x01)\n        /* \"#utility.yul\":604:609   */\n      dup2\n        /* \"#utility.yul\":600:654   */\n      and\n        /* \"#utility.yul\":593:598   */\n      dup2\n        /* \"#utility.yul\":590:655   */\n      eq\n        /* \"#utility.yul\":580:673   */\n      tag_161\n      jumpi\n        /* \"#utility.yul\":669:670   */\n      0x00\n        /* \"#utility.yul\":666:667   */\n      dup1\n        /* \"#utility.yul\":659:671   */\n      revert\n        /* \"#utility.yul\":684:1777   */\n    tag_24:\n        /* \"#utility.yul\":825:831   */\n      0x00\n        /* \"#utility.yul\":833:839   */\n      dup1\n        /* \"#utility.yul\":841:847   */\n      0x00\n        /* \"#utility.yul\":849:855   */\n      dup1\n        /* \"#utility.yul\":857:863   */\n      0x00\n        /* \"#utility.yul\":865:871   */\n      dup1\n        /* \"#utility.yul\":873:879   */\n      0x00\n        /* \"#utility.yul\":926:929   */\n      0xe0\n        /* \"#utility.yul\":914:923   */\n      dup9\n        /* \"#utility.yul\":905:912   */\n      dup11\n        /* \"#utility.yul\":901:924   */\n      sub\n        /* \"#utility.yul\":897:930   */\n      slt\n        /* \"#utility.yul\":894:947   */\n      iszero\n      tag_251\n      jumpi\n        /* \"#utility.yul\":943:944   */\n      0x00\n        /* \"#utility.yul\":940:941   */\n      dup1\n        /* \"#utility.yul\":933:945   */\n      revert\n        /* \"#utility.yul\":894:947   */\n    tag_251:\n        /* \"#utility.yul\":966:1019   */\n      tag_252\n        /* \"#utility.yul\":1011:1018   */\n      dup10\n        /* \"#utility.yul\":1000:1009   */\n      dup10\n        /* \"#utility.yul\":966:1019   */\n      tag_232\n      jump\t// in\n    tag_252:\n        /* \"#utility.yul\":956:1019   */\n      swap7\n      pop\n        /* \"#utility.yul\":1088:1090   */\n      0x60\n        /* \"#utility.yul\":1073:1091   */\n      dup9\n      add\n        /* \"#utility.yul\":1060:1092   */\n      calldataload\n      swap6\n      pop\n        /* \"#utility.yul\":1167:1170   */\n      0x80\n        /* \"#utility.yul\":1152:1171   */\n      dup9\n      add\n        /* \"#utility.yul\":1139:1172   */\n      calldataload\n        /* \"#utility.yul\":1195:1213   */\n      0xffffffffffffffff\n        /* \"#utility.yul\":1184:1214   */\n      dup2\n      gt\n        /* \"#utility.yul\":1181:1231   */\n      iszero\n      tag_253\n      jumpi\n        /* \"#utility.yul\":1227:1228   */\n      0x00\n        /* \"#utility.yul\":1224:1225   */\n      dup1\n        /* \"#utility.yul\":1217:1229   */\n      revert\n        /* \"#utility.yul\":1181:1231   */\n    tag_253:\n        /* \"#utility.yul\":1266:1324   */\n      tag_254\n        /* \"#utility.yul\":1316:1323   */\n      dup11\n        /* \"#utility.yul\":1307:1313   */\n      dup3\n        /* \"#utility.yul\":1296:1305   */\n      dup12\n        /* \"#utility.yul\":1292:1314   */\n      add\n        /* \"#utility.yul\":1266:1324   */\n      tag_233\n      jump\t// in\n    tag_254:\n        /* \"#utility.yul\":1343:1351   */\n      swap1\n      swap7\n      pop\n        /* \"#utility.yul\":1240:1324   */\n      swap5\n      pop\n      pop\n        /* \"#utility.yul\":1430:1433   */\n      0xa0\n        /* \"#utility.yul\":1415:1434   */\n      dup9\n      add\n        /* \"#utility.yul\":1402:1435   */\n      calldataload\n        /* \"#utility.yul\":1444:1477   */\n      tag_255\n        /* \"#utility.yul\":1402:1435   */\n      dup2\n        /* \"#utility.yul\":1444:1477   */\n      tag_234\n      jump\t// in\n    tag_255:\n        /* \"#utility.yul\":1496:1503   */\n      swap3\n      pop\n        /* \"#utility.yul\":1556:1559   */\n      0xc0\n        /* \"#utility.yul\":1541:1560   */\n      dup9\n      add\n        /* \"#utility.yul\":1528:1561   */\n      calldataload\n        /* \"#utility.yul\":1586:1604   */\n      0xffffffffffffffff\n        /* \"#utility.yul\":1573:1605   */\n      dup2\n      gt\n        /* \"#utility.yul\":1570:1622   */\n      iszero\n      tag_256\n      jumpi\n        /* \"#utility.yul\":1618:1619   */\n      0x00\n        /* \"#utility.yul\":1615:1616   */\n      dup1\n        /* \"#utility.yul\":1608:1620   */\n      revert\n        /* \"#utility.yul\":1570:1622   */\n    tag_256:\n        /* \"#utility.yul\":1657:1717   */\n      tag_257\n        /* \"#utility.yul\":1709:1716   */\n      dup11\n        /* \"#utility.yul\":1698:1706   */\n      dup3\n        /* \"#utility.yul\":1687:1696   */\n      dup12\n        /* \"#utility.yul\":1683:1707   */\n      add\n        /* \"#utility.yul\":1657:1717   */\n      tag_233\n      jump\t// in\n    tag_257:\n        /* \"#utility.yul\":684:1777   */\n      swap9\n      swap12\n      swap8\n      swap11\n      pop\n      swap6\n      swap9\n      pop\n      swap4\n      swap7\n      swap3\n      swap6\n        /* \"#utility.yul\":1631:1717   */\n      swap3\n      swap4\n      pop\n      pop\n      pop\n        /* \"#utility.yul\":684:1777   */\n      jump\t// out\n        /* \"#utility.yul\":2081:2244   */\n    tag_235:\n        /* \"#utility.yul\":2148:2168   */\n      dup1\n      calldataload\n        /* \"#utility.yul\":2208:2218   */\n      0xffffffff\n        /* \"#utility.yul\":2197:2219   */\n      dup2\n      and\n        /* \"#utility.yul\":2187:2220   */\n      dup2\n      eq\n        /* \"#utility.yul\":2177:2238   */\n      tag_260\n      jumpi\n        /* \"#utility.yul\":2234:2235   */\n      0x00\n        /* \"#utility.yul\":2231:2232   */\n      dup1\n        /* \"#utility.yul\":2224:2236   */\n      revert\n        /* \"#utility.yul\":2177:2238   */\n    tag_260:\n        /* \"#utility.yul\":2081:2244   */\n      swap2\n      swap1\n      pop\n      jump\t// out\n        /* \"#utility.yul\":2249:2547   */\n    tag_34:\n        /* \"#utility.yul\":2316:2322   */\n      0x00\n        /* \"#utility.yul\":2324:2330   */\n      dup1\n        /* \"#utility.yul\":2377:2379   */\n      0x40\n        /* \"#utility.yul\":2365:2374   */\n      dup4\n        /* \"#utility.yul\":2356:2363   */\n      dup6\n        /* \"#utility.yul\":2352:2375   */\n      sub\n        /* \"#utility.yul\":2348:2380   */\n      slt\n        /* \"#utility.yul\":2345:2397   */\n      iszero\n      tag_262\n      jumpi\n        /* \"#utility.yul\":2393:2394   */\n      0x00\n        /* \"#utility.yul\":2390:2391   */\n      dup1\n        /* \"#utility.yul\":2383:2395   */\n      revert\n        /* \"#utility.yul\":2345:2397   */\n    tag_262:\n        /* \"#utility.yul\":2416:2444   */\n      tag_263\n        /* \"#utility.yul\":2434:2443   */\n      dup4\n        /* \"#utility.yul\":2416:2444   */\n      tag_235\n      jump\t// in\n    tag_263:\n        /* \"#utility.yul\":2406:2444   */\n      swap5\n        /* \"#utility.yul\":2513:2515   */\n      0x20\n        /* \"#utility.yul\":2498:2516   */\n      swap4\n      swap1\n      swap4\n      add\n        /* \"#utility.yul\":2485:2517   */\n      calldataload\n      swap4\n      pop\n      pop\n      pop\n        /* \"#utility.yul\":2249:2547   */\n      jump\t// out\n        /* \"#utility.yul\":2811:2938   */\n    tag_236:\n        /* \"#utility.yul\":2872:2882   */\n      0x4e487b71\n        /* \"#utility.yul\":2867:2870   */\n      0xe0\n        /* \"#utility.yul\":2863:2883   */\n      shl\n        /* \"#utility.yul\":2860:2861   */\n      0x00\n        /* \"#utility.yul\":2853:2884   */\n      mstore\n        /* \"#utility.yul\":2903:2907   */\n      0x41\n        /* \"#utility.yul\":2900:2901   */\n      0x04\n        /* \"#utility.yul\":2893:2908   */\n      mstore\n        /* \"#utility.yul\":2927:2931   */\n      0x24\n        /* \"#utility.yul\":2924:2925   */\n      0x00\n        /* \"#utility.yul\":2917:2932   */\n      revert\n        /* \"#utility.yul\":2943:3218   */\n    tag_237:\n        /* \"#utility.yul\":3014:3016   */\n      0x40\n        /* \"#utility.yul\":3008:3017   */\n      mload\n        /* \"#utility.yul\":3079:3081   */\n      0x1f\n        /* \"#utility.yul\":3060:3073   */\n      dup3\n      add\n      not(0x1f)\n        /* \"#utility.yul\":3056:3083   */\n      and\n        /* \"#utility.yul\":3044:3084   */\n      dup2\n      add\n        /* \"#utility.yul\":3114:3132   */\n      0xffffffffffffffff\n        /* \"#utility.yul\":3099:3133   */\n      dup2\n      gt\n        /* \"#utility.yul\":3135:3157   */\n      dup3\n      dup3\n      lt\n        /* \"#utility.yul\":3096:3158   */\n      or\n        /* \"#utility.yul\":3093:3181   */\n      iszero\n      tag_268\n      jumpi\n        /* \"#utility.yul\":3161:3179   */\n      tag_268\n      tag_236\n      jump\t// in\n    tag_268:\n        /* \"#utility.yul\":3197:3199   */\n      0x40\n        /* \"#utility.yul\":3190:3212   */\n      mstore\n        /* \"#utility.yul\":2943:3218   */\n      swap2\n      swap1\n      pop\n      jump\t// out\n        /* \"#utility.yul\":3223:3782   */\n    tag_238:\n        /* \"#utility.yul\":3266:3271   */\n      0x00\n        /* \"#utility.yul\":3319:3322   */\n      dup3\n        /* \"#utility.yul\":3312:3316   */\n      0x1f\n        /* \"#utility.yul\":3304:3310   */\n      dup4\n        /* \"#utility.yul\":3300:3317   */\n      add\n        /* \"#utility.yul\":3296:3323   */\n      slt\n        /* \"#utility.yul\":3286:3341   */\n      tag_270\n      jumpi\n        /* \"#utility.yul\":3337:3338   */\n      0x00\n        /* \"#utility.yul\":3334:3335   */\n      dup1\n        /* \"#utility.yul\":3327:3339   */\n      revert\n        /* \"#utility.yul\":3286:3341   */\n    tag_270:\n        /* \"#utility.yul\":3377:3383   */\n      dup2\n        /* \"#utility.yul\":3364:3384   */\n      calldataload\n        /* \"#utility.yul\":3407:3425   */\n      0xffffffffffffffff\n        /* \"#utility.yul\":3399:3405   */\n      dup2\n        /* \"#utility.yul\":3396:3426   */\n      gt\n        /* \"#utility.yul\":3393:3449   */\n      iszero\n      tag_272\n      jumpi\n        /* \"#utility.yul\":3429:3447   */\n      tag_272\n      tag_236\n      jump\t// in\n    tag_272:\n        /* \"#utility.yul\":3473:3532   */\n      tag_273\n        /* \"#utility.yul\":3520:3522   */\n      0x1f\n        /* \"#utility.yul\":3497:3514   */\n      dup3\n      add\n      not(0x1f)\n        /* \"#utility.yul\":3493:3524   */\n      and\n        /* \"#utility.yul\":3526:3530   */\n      0x20\n        /* \"#utility.yul\":3489:3531   */\n      add\n        /* \"#utility.yul\":3473:3532   */\n      tag_237\n      jump\t// in\n    tag_273:\n        /* \"#utility.yul\":3557:3563   */\n      dup2\n        /* \"#utility.yul\":3548:3555   */\n      dup2\n        /* \"#utility.yul\":3541:3564   */\n      mstore\n        /* \"#utility.yul\":3611:3614   */\n      dup5\n        /* \"#utility.yul\":3604:3608   */\n      0x20\n        /* \"#utility.yul\":3595:3601   */\n      dup4\n        /* \"#utility.yul\":3587:3593   */\n      dup7\n        /* \"#utility.yul\":3583:3602   */\n      add\n        /* \"#utility.yul\":3579:3609   */\n      add\n        /* \"#utility.yul\":3576:3615   */\n      gt\n        /* \"#utility.yul\":3573:3632   */\n      iszero\n      tag_274\n      jumpi\n        /* \"#utility.yul\":3628:3629   */\n      0x00\n        /* \"#utility.yul\":3625:3626   */\n      dup1\n        /* \"#utility.yul\":3618:3630   */\n      revert\n        /* \"#utility.yul\":3573:3632   */\n    tag_274:\n        /* \"#utility.yul\":3693:3699   */\n      dup2\n        /* \"#utility.yul\":3686:3690   */\n      0x20\n        /* \"#utility.yul\":3678:3684   */\n      dup6\n        /* \"#utility.yul\":3674:3691   */\n      add\n        /* \"#utility.yul\":3667:3671   */\n      0x20\n        /* \"#utility.yul\":3658:3665   */\n      dup4\n        /* \"#utility.yul\":3654:3672   */\n      add\n        /* \"#utility.yul\":3641:3700   */\n      calldatacopy\n        /* \"#utility.yul\":3749:3750   */\n      0x00\n        /* \"#utility.yul\":3720:3740   */\n      swap2\n      dup2\n      add\n        /* \"#utility.yul\":3742:3746   */\n      0x20\n        /* \"#utility.yul\":3716:3747   */\n      add\n        /* \"#utility.yul\":3709:3751   */\n      swap2\n      swap1\n      swap2\n      mstore\n        /* \"#utility.yul\":3724:3731   */\n      swap4\n        /* \"#utility.yul\":3223:3782   */\n      swap3\n      pop\n      pop\n      pop\n      jump\t// out\n        /* \"#utility.yul\":3787:5699   */\n    tag_44:\n        /* \"#utility.yul\":3947:3953   */\n      0x00\n        /* \"#utility.yul\":3955:3961   */\n      dup1\n        /* \"#utility.yul\":3963:3969   */\n      0x00\n        /* \"#utility.yul\":3971:3977   */\n      dup1\n        /* \"#utility.yul\":3979:3985   */\n      0x00\n        /* \"#utility.yul\":3987:3993   */\n      dup1\n        /* \"#utility.yul\":4040:4043   */\n      0xa0\n        /* \"#utility.yul\":4028:4037   */\n      dup8\n        /* \"#utility.yul\":4019:4026   */\n      dup10\n        /* \"#utility.yul\":4015:4038   */\n      sub\n        /* \"#utility.yul\":4011:4044   */\n      slt\n        /* \"#utility.yul\":4008:4061   */\n      iszero\n      tag_276\n      jumpi\n        /* \"#utility.yul\":4057:4058   */\n      0x00\n        /* \"#utility.yul\":4054:4055   */\n      dup1\n        /* \"#utility.yul\":4047:4059   */\n      revert\n        /* \"#utility.yul\":4008:4061   */\n    tag_276:\n        /* \"#utility.yul\":4080:4108   */\n      tag_277\n        /* \"#utility.yul\":4098:4107   */\n      dup8\n        /* \"#utility.yul\":4080:4108   */\n      tag_235\n      jump\t// in\n    tag_277:\n        /* \"#utility.yul\":4070:4108   */\n      swap6\n      pop\n        /* \"#utility.yul\":4159:4161   */\n      0x20\n        /* \"#utility.yul\":4148:4157   */\n      dup8\n        /* \"#utility.yul\":4144:4162   */\n      add\n        /* \"#utility.yul\":4131:4163   */\n      calldataload\n        /* \"#utility.yul\":4186:4204   */\n      0xffffffffffffffff\n        /* \"#utility.yul\":4178:4184   */\n      dup2\n        /* \"#utility.yul\":4175:4205   */\n      gt\n        /* \"#utility.yul\":4172:4222   */\n      iszero\n      tag_278\n      jumpi\n        /* \"#utility.yul\":4218:4219   */\n      0x00\n        /* \"#utility.yul\":4215:4216   */\n      dup1\n        /* \"#utility.yul\":4208:4220   */\n      revert\n        /* \"#utility.yul\":4172:4222   */\n    tag_278:\n        /* \"#utility.yul\":4241:4291   */\n      tag_279\n        /* \"#utility.yul\":4283:4290   */\n      dup10\n        /* \"#utility.yul\":4274:4280   */\n      dup3\n        /* \"#utility.yul\":4263:4272   */\n      dup11\n        /* \"#utility.yul\":4259:4281   */\n      add\n        /* \"#utility.yul\":4241:4291   */\n      tag_238\n      jump\t// in\n    tag_279:\n        /* \"#utility.yul\":4231:4291   */\n      swap6\n      pop\n      pop\n        /* \"#utility.yul\":4344:4346   */\n      0x40\n        /* \"#utility.yul\":4333:4342   */\n      dup8\n        /* \"#utility.yul\":4329:4347   */\n      add\n        /* \"#utility.yul\":4316:4348   */\n      calldataload\n        /* \"#utility.yul\":4373:4391   */\n      0xffffffffffffffff\n        /* \"#utility.yul\":4363:4371   */\n      dup2\n        /* \"#utility.yul\":4360:4392   */\n      gt\n        /* \"#utility.yul\":4357:4409   */\n      iszero\n      tag_280\n      jumpi\n        /* \"#utility.yul\":4405:4406   */\n      0x00\n        /* \"#utility.yul\":4402:4403   */\n      dup1\n        /* \"#utility.yul\":4395:4407   */\n      revert\n        /* \"#utility.yul\":4357:4409   */\n    tag_280:\n        /* \"#utility.yul\":4428:4452   */\n      dup8\n      add\n        /* \"#utility.yul\":4483:4487   */\n      0x1f\n        /* \"#utility.yul\":4475:4488   */\n      dup2\n      add\n        /* \"#utility.yul\":4471:4498   */\n      dup10\n      sgt\n        /* \"#utility.yul\":4461:4516   */\n      tag_281\n      jumpi\n        /* \"#utility.yul\":4512:4513   */\n      0x00\n        /* \"#utility.yul\":4509:4510   */\n      dup1\n        /* \"#utility.yul\":4502:4514   */\n      revert\n        /* \"#utility.yul\":4461:4516   */\n    tag_281:\n        /* \"#utility.yul\":4552:4554   */\n      dup1\n        /* \"#utility.yul\":4539:4555   */\n      calldataload\n        /* \"#utility.yul\":4578:4596   */\n      0xffffffffffffffff\n        /* \"#utility.yul\":4570:4576   */\n      dup2\n        /* \"#utility.yul\":4567:4597   */\n      gt\n        /* \"#utility.yul\":4564:4620   */\n      iszero\n      tag_283\n      jumpi\n        /* \"#utility.yul\":4600:4618   */\n      tag_283\n      tag_236\n      jump\t// in\n    tag_283:\n        /* \"#utility.yul\":4646:4652   */\n      dup1\n        /* \"#utility.yul\":4643:4644   */\n      0x05\n        /* \"#utility.yul\":4639:4653   */\n      shl\n        /* \"#utility.yul\":4673:4701   */\n      tag_284\n        /* \"#utility.yul\":4697:4699   */\n      0x20\n        /* \"#utility.yul\":4693:4695   */\n      dup3\n        /* \"#utility.yul\":4689:4700   */\n      add\n        /* \"#utility.yul\":4673:4701   */\n      tag_237\n      jump\t// in\n    tag_284:\n        /* \"#utility.yul\":4735:4754   */\n      swap2\n      dup3\n      mstore\n        /* \"#utility.yul\":4779:4781   */\n      0x20\n        /* \"#utility.yul\":4809:4820   */\n      dup2\n      dup5\n      add\n        /* \"#utility.yul\":4805:4825   */\n      dup2\n      add\n      swap3\n        /* \"#utility.yul\":4770:4782   */\n      swap1\n      dup2\n      add\n      swap1\n        /* \"#utility.yul\":4837:4856   */\n      dup13\n      dup5\n      gt\n        /* \"#utility.yul\":4834:4873   */\n      iszero\n      tag_285\n      jumpi\n        /* \"#utility.yul\":4869:4870   */\n      0x00\n        /* \"#utility.yul\":4866:4867   */\n      dup1\n        /* \"#utility.yul\":4859:4871   */\n      revert\n        /* \"#utility.yul\":4834:4873   */\n    tag_285:\n        /* \"#utility.yul\":4901:4903   */\n      0x20\n        /* \"#utility.yul\":4897:4899   */\n      dup6\n        /* \"#utility.yul\":4893:4904   */\n      add\n        /* \"#utility.yul\":4882:4904   */\n      swap3\n      pop\n        /* \"#utility.yul\":4913:5212   */\n    tag_286:\n        /* \"#utility.yul\":4929:4935   */\n      dup4\n        /* \"#utility.yul\":4924:4927   */\n      dup4\n        /* \"#utility.yul\":4921:4936   */\n      lt\n        /* \"#utility.yul\":4913:5212   */\n      iszero\n      tag_288\n      jumpi\n        /* \"#utility.yul\":5015:5018   */\n      dup3\n        /* \"#utility.yul\":5002:5019   */\n      calldataload\n        /* \"#utility.yul\":5051:5069   */\n      0xffffffffffffffff\n        /* \"#utility.yul\":5038:5049   */\n      dup2\n        /* \"#utility.yul\":5035:5070   */\n      gt\n        /* \"#utility.yul\":5032:5087   */\n      iszero\n      tag_289\n      jumpi\n        /* \"#utility.yul\":5083:5084   */\n      0x00\n        /* \"#utility.yul\":5080:5081   */\n      dup1\n        /* \"#utility.yul\":5073:5085   */\n      revert\n        /* \"#utility.yul\":5032:5087   */\n    tag_289:\n        /* \"#utility.yul\":5112:5169   */\n      tag_290\n        /* \"#utility.yul\":5161:5168   */\n      dup15\n        /* \"#utility.yul\":5156:5158   */\n      0x20\n        /* \"#utility.yul\":5142:5153   */\n      dup4\n        /* \"#utility.yul\":5138:5140   */\n      dup10\n        /* \"#utility.yul\":5134:5154   */\n      add\n        /* \"#utility.yul\":5130:5159   */\n      add\n        /* \"#utility.yul\":5112:5169   */\n      tag_238\n      jump\t// in\n    tag_290:\n        /* \"#utility.yul\":5100:5170   */\n      dup4\n      mstore\n      pop\n        /* \"#utility.yul\":5199:5201   */\n      0x20\n        /* \"#utility.yul\":4946:4958   */\n      swap3\n      dup4\n      add\n      swap3\n        /* \"#utility.yul\":5190:5202   */\n      swap1\n      swap2\n      add\n      swap1\n        /* \"#utility.yul\":4913:5212   */\n      jump(tag_286)\n    tag_288:\n        /* \"#utility.yul\":5231:5236   */\n      swap8\n      pop\n      pop\n      pop\n      pop\n        /* \"#utility.yul\":5289:5291   */\n      0x60\n        /* \"#utility.yul\":5274:5292   */\n      dup9\n      add\n        /* \"#utility.yul\":5261:5293   */\n      calldataload\n      swap1\n      pop\n        /* \"#utility.yul\":5318:5336   */\n      0xffffffffffffffff\n        /* \"#utility.yul\":5305:5337   */\n      dup2\n      gt\n        /* \"#utility.yul\":5302:5354   */\n      iszero\n      tag_291\n      jumpi\n        /* \"#utility.yul\":5350:5351   */\n      0x00\n        /* \"#utility.yul\":5347:5348   */\n      dup1\n        /* \"#utility.yul\":5340:5352   */\n      revert\n        /* \"#utility.yul\":5302:5354   */\n    tag_291:\n        /* \"#utility.yul\":5373:5425   */\n      tag_292\n        /* \"#utility.yul\":5417:5424   */\n      dup10\n        /* \"#utility.yul\":5406:5414   */\n      dup3\n        /* \"#utility.yul\":5395:5404   */\n      dup11\n        /* \"#utility.yul\":5391:5415   */\n      add\n        /* \"#utility.yul\":5373:5425   */\n      tag_238\n      jump\t// in\n    tag_292:\n        /* \"#utility.yul\":5363:5425   */\n      swap4\n      pop\n      pop\n        /* \"#utility.yul\":5478:5481   */\n      0x80\n        /* \"#utility.yul\":5467:5476   */\n      dup8\n        /* \"#utility.yul\":5463:5482   */\n      add\n        /* \"#utility.yul\":5450:5483   */\n      calldataload\n        /* \"#utility.yul\":5508:5526   */\n      0xffffffffffffffff\n        /* \"#utility.yul\":5498:5506   */\n      dup2\n        /* \"#utility.yul\":5495:5527   */\n      gt\n        /* \"#utility.yul\":5492:5544   */\n      iszero\n      tag_293\n      jumpi\n        /* \"#utility.yul\":5540:5541   */\n      0x00\n        /* \"#utility.yul\":5537:5538   */\n      dup1\n        /* \"#utility.yul\":5530:5542   */\n      revert\n        /* \"#utility.yul\":5492:5544   */\n    tag_293:\n        /* \"#utility.yul\":5579:5639   */\n      tag_294\n        /* \"#utility.yul\":5631:5638   */\n      dup10\n        /* \"#utility.yul\":5620:5628   */\n      dup3\n        /* \"#utility.yul\":5609:5618   */\n      dup11\n        /* \"#utility.yul\":5605:5629   */\n      add\n        /* \"#utility.yul\":5579:5639   */\n      tag_233\n      jump\t// in\n    tag_294:\n        /* \"#utility.yul\":3787:5699   */\n      swap8\n      swap11\n      swap7\n      swap10\n      pop\n      swap5\n      swap8\n      pop\n      swap3\n      swap6\n        /* \"#utility.yul\":5658:5666   */\n      swap4\n      swap5\n        /* \"#utility.yul\":3787:5699   */\n      swap3\n      pop\n      pop\n      pop\n      jump\t// out\n        /* \"#utility.yul\":6217:6885   */\n    tag_60:\n        /* \"#utility.yul\":6329:6335   */\n      0x00\n        /* \"#utility.yul\":6337:6343   */\n      dup1\n        /* \"#utility.yul\":6345:6351   */\n      0x00\n        /* \"#utility.yul\":6353:6359   */\n      dup1\n        /* \"#utility.yul\":6406:6409   */\n      0xa0\n        /* \"#utility.yul\":6394:6403   */\n      dup6\n        /* \"#utility.yul\":6385:6392   */\n      dup8\n        /* \"#utility.yul\":6381:6404   */\n      sub\n        /* \"#utility.yul\":6377:6410   */\n      slt\n        /* \"#utility.yul\":6374:6427   */\n      iszero\n      tag_298\n      jumpi\n        /* \"#utility.yul\":6423:6424   */\n      0x00\n        /* \"#utility.yul\":6420:6421   */\n      dup1\n        /* \"#utility.yul\":6413:6425   */\n      revert\n        /* \"#utility.yul\":6374:6427   */\n    tag_298:\n        /* \"#utility.yul\":6446:6499   */\n      tag_299\n        /* \"#utility.yul\":6491:6498   */\n      dup7\n        /* \"#utility.yul\":6480:6489   */\n      dup7\n        /* \"#utility.yul\":6446:6499   */\n      tag_232\n      jump\t// in\n    tag_299:\n        /* \"#utility.yul\":6436:6499   */\n      swap4\n      pop\n        /* \"#utility.yul\":6550:6552   */\n      0x60\n        /* \"#utility.yul\":6539:6548   */\n      dup6\n        /* \"#utility.yul\":6535:6553   */\n      add\n        /* \"#utility.yul\":6522:6554   */\n      calldataload\n        /* \"#utility.yul\":6577:6595   */\n      0xffffffffffffffff\n        /* \"#utility.yul\":6569:6575   */\n      dup2\n        /* \"#utility.yul\":6566:6596   */\n      gt\n        /* \"#utility.yul\":6563:6613   */\n      iszero\n      tag_300\n      jumpi\n        /* \"#utility.yul\":6609:6610   */\n      0x00\n        /* \"#utility.yul\":6606:6607   */\n      dup1\n        /* \"#utility.yul\":6599:6611   */\n      revert\n        /* \"#utility.yul\":6563:6613   */\n    tag_300:\n        /* \"#utility.yul\":6648:6706   */\n      tag_301\n        /* \"#utility.yul\":6698:6705   */\n      dup8\n        /* \"#utility.yul\":6689:6695   */\n      dup3\n        /* \"#utility.yul\":6678:6687   */\n      dup9\n        /* \"#utility.yul\":6674:6696   */\n      add\n        /* \"#utility.yul\":6648:6706   */\n      tag_233\n      jump\t// in\n    tag_301:\n        /* \"#utility.yul\":6725:6733   */\n      swap1\n      swap5\n      pop\n        /* \"#utility.yul\":6622:6706   */\n      swap3\n      pop\n      pop\n        /* \"#utility.yul\":6810:6813   */\n      0x80\n        /* \"#utility.yul\":6795:6814   */\n      dup6\n      add\n        /* \"#utility.yul\":6782:6815   */\n      calldataload\n        /* \"#utility.yul\":6824:6855   */\n      tag_302\n        /* \"#utility.yul\":6782:6815   */\n      dup2\n        /* \"#utility.yul\":6824:6855   */\n      tag_234\n      jump\t// in\n    tag_302:\n        /* \"#utility.yul\":6217:6885   */\n      swap4\n      swap7\n      swap3\n      swap6\n      pop\n      swap1\n      swap4\n      pop\n      pop\n      jump\t// out\n        /* \"#utility.yul\":7313:7497   */\n    tag_75:\n        /* \"#utility.yul\":7371:7377   */\n      0x00\n        /* \"#utility.yul\":7424:7426   */\n      0x20\n        /* \"#utility.yul\":7412:7421   */\n      dup3\n        /* \"#utility.yul\":7403:7410   */\n      dup5\n        /* \"#utility.yul\":7399:7422   */\n      sub\n        /* \"#utility.yul\":7395:7427   */\n      slt\n        /* \"#utility.yul\":7392:7444   */\n      iszero\n      tag_306\n      jumpi\n        /* \"#utility.yul\":7440:7441   */\n      0x00\n        /* \"#utility.yul\":7437:7438   */\n      dup1\n        /* \"#utility.yul\":7430:7442   */\n      revert\n        /* \"#utility.yul\":7392:7444   */\n    tag_306:\n        /* \"#utility.yul\":7463:7491   */\n      tag_307\n        /* \"#utility.yul\":7481:7490   */\n      dup3\n        /* \"#utility.yul\":7463:7491   */\n      tag_235\n      jump\t// in\n    tag_307:\n        /* \"#utility.yul\":7453:7491   */\n      swap4\n        /* \"#utility.yul\":7313:7497   */\n      swap3\n      pop\n      pop\n      pop\n      jump\t// out\n        /* \"#utility.yul\":7684:7931   */\n    tag_82:\n        /* \"#utility.yul\":7743:7749   */\n      0x00\n        /* \"#utility.yul\":7796:7798   */\n      0x20\n        /* \"#utility.yul\":7784:7793   */\n      dup3\n        /* \"#utility.yul\":7775:7782   */\n      dup5\n        /* \"#utility.yul\":7771:7794   */\n      sub\n        /* \"#utility.yul\":7767:7799   */\n      slt\n        /* \"#utility.yul\":7764:7816   */\n      iszero\n      tag_310\n      jumpi\n        /* \"#utility.yul\":7812:7813   */\n      0x00\n        /* \"#utility.yul\":7809:7810   */\n      dup1\n        /* \"#utility.yul\":7802:7814   */\n      revert\n        /* \"#utility.yul\":7764:7816   */\n    tag_310:\n        /* \"#utility.yul\":7851:7860   */\n      dup2\n        /* \"#utility.yul\":7838:7861   */\n      calldataload\n        /* \"#utility.yul\":7870:7901   */\n      tag_307\n        /* \"#utility.yul\":7895:7900   */\n      dup2\n        /* \"#utility.yul\":7870:7901   */\n      tag_234\n      jump\t// in\n        /* \"#utility.yul\":7936:8170   */\n    tag_91:\n        /* \"#utility.yul\":8019:8025   */\n      0x00\n        /* \"#utility.yul\":8072:8074   */\n      0x60\n        /* \"#utility.yul\":8060:8069   */\n      dup3\n        /* \"#utility.yul\":8051:8058   */\n      dup5\n        /* \"#utility.yul\":8047:8070   */\n      sub\n        /* \"#utility.yul\":8043:8075   */\n      slt\n        /* \"#utility.yul\":8040:8092   */\n      iszero\n      tag_313\n      jumpi\n        /* \"#utility.yul\":8088:8089   */\n      0x00\n        /* \"#utility.yul\":8085:8086   */\n      dup1\n        /* \"#utility.yul\":8078:8090   */\n      revert\n        /* \"#utility.yul\":8040:8092   */\n    tag_313:\n        /* \"#utility.yul\":8111:8164   */\n      tag_307\n        /* \"#utility.yul\":8156:8163   */\n      dup4\n        /* \"#utility.yul\":8145:8154   */\n      dup4\n        /* \"#utility.yul\":8111:8164   */\n      tag_232\n      jump\t// in\n        /* \"#utility.yul\":8443:8843   */\n    tag_239:\n        /* \"#utility.yul\":8485:8488   */\n      0x00\n        /* \"#utility.yul\":8523:8528   */\n      dup2\n        /* \"#utility.yul\":8517:8529   */\n      mload\n        /* \"#utility.yul\":8550:8556   */\n      dup1\n        /* \"#utility.yul\":8545:8548   */\n      dup5\n        /* \"#utility.yul\":8538:8557   */\n      mstore\n        /* \"#utility.yul\":8575:8576   */\n      0x00\n        /* \"#utility.yul\":8585:8724   */\n    tag_317:\n        /* \"#utility.yul\":8599:8605   */\n      dup2\n        /* \"#utility.yul\":8596:8597   */\n      dup2\n        /* \"#utility.yul\":8593:8606   */\n      lt\n        /* \"#utility.yul\":8585:8724   */\n      iszero\n      tag_319\n      jumpi\n        /* \"#utility.yul\":8707:8711   */\n      0x20\n        /* \"#utility.yul\":8692:8705   */\n      dup2\n      dup6\n      add\n        /* \"#utility.yul\":8688:8712   */\n      dup2\n      add\n        /* \"#utility.yul\":8682:8713   */\n      mload\n        /* \"#utility.yul\":8662:8673   */\n      dup7\n      dup4\n      add\n        /* \"#utility.yul\":8658:8680   */\n      dup3\n      add\n        /* \"#utility.yul\":8651:8714   */\n      mstore\n        /* \"#utility.yul\":8614:8626   */\n      add\n        /* \"#utility.yul\":8585:8724   */\n      jump(tag_317)\n    tag_319:\n        /* \"#utility.yul\":8589:8592   */\n      pop\n        /* \"#utility.yul\":8769:8770   */\n      0x00\n        /* \"#utility.yul\":8762:8766   */\n      0x20\n        /* \"#utility.yul\":8753:8759   */\n      dup3\n        /* \"#utility.yul\":8748:8751   */\n      dup7\n        /* \"#utility.yul\":8744:8760   */\n      add\n        /* \"#utility.yul\":8740:8767   */\n      add\n        /* \"#utility.yul\":8733:8771   */\n      mstore\n        /* \"#utility.yul\":8832:8836   */\n      0x20\n        /* \"#utility.yul\":8825:8827   */\n      0x1f\n        /* \"#utility.yul\":8821:8828   */\n      not\n        /* \"#utility.yul\":8816:8818   */\n      0x1f\n        /* \"#utility.yul\":8808:8814   */\n      dup4\n        /* \"#utility.yul\":8804:8819   */\n      add\n        /* \"#utility.yul\":8800:8829   */\n      and\n        /* \"#utility.yul\":8795:8798   */\n      dup6\n        /* \"#utility.yul\":8791:8830   */\n      add\n        /* \"#utility.yul\":8787:8837   */\n      add\n        /* \"#utility.yul\":8780:8837   */\n      swap2\n      pop\n      pop\n        /* \"#utility.yul\":8443:8843   */\n      swap3\n      swap2\n      pop\n      pop\n      jump\t// out\n        /* \"#utility.yul\":8848:10011   */\n    tag_117:\n      sub(shl(0xa0, 0x01), 0x01)\n        /* \"#utility.yul\":9175:9181   */\n      dup6\n        /* \"#utility.yul\":9171:9226   */\n      and\n        /* \"#utility.yul\":9160:9169   */\n      dup2\n        /* \"#utility.yul\":9153:9227   */\n      mstore\n        /* \"#utility.yul\":9263:9266   */\n      0x80\n        /* \"#utility.yul\":9258:9260   */\n      0x20\n        /* \"#utility.yul\":9247:9256   */\n      dup3\n        /* \"#utility.yul\":9243:9261   */\n      add\n        /* \"#utility.yul\":9236:9267   */\n      mstore\n        /* \"#utility.yul\":9134:9138   */\n      0x00\n        /* \"#utility.yul\":9290:9336   */\n      tag_321\n        /* \"#utility.yul\":9331:9334   */\n      0x80\n        /* \"#utility.yul\":9320:9329   */\n      dup4\n        /* \"#utility.yul\":9316:9335   */\n      add\n        /* \"#utility.yul\":9308:9314   */\n      dup7\n        /* \"#utility.yul\":9290:9336   */\n      tag_239\n      jump\t// in\n    tag_321:\n        /* \"#utility.yul\":9384:9393   */\n      dup3\n        /* \"#utility.yul\":9376:9382   */\n      dup2\n        /* \"#utility.yul\":9372:9394   */\n      sub\n        /* \"#utility.yul\":9367:9369   */\n      0x40\n        /* \"#utility.yul\":9356:9365   */\n      dup5\n        /* \"#utility.yul\":9352:9370   */\n      add\n        /* \"#utility.yul\":9345:9395   */\n      mstore\n        /* \"#utility.yul\":9415:9421   */\n      dup1\n        /* \"#utility.yul\":9450:9456   */\n      dup6\n        /* \"#utility.yul\":9444:9457   */\n      mload\n        /* \"#utility.yul\":9481:9487   */\n      dup1\n        /* \"#utility.yul\":9473:9479   */\n      dup4\n        /* \"#utility.yul\":9466:9488   */\n      mstore\n        /* \"#utility.yul\":9516:9518   */\n      0x20\n        /* \"#utility.yul\":9508:9514   */\n      dup4\n        /* \"#utility.yul\":9504:9519   */\n      add\n        /* \"#utility.yul\":9497:9519   */\n      swap2\n      pop\n        /* \"#utility.yul\":9575:9577   */\n      0x20\n        /* \"#utility.yul\":9565:9571   */\n      dup2\n        /* \"#utility.yul\":9562:9563   */\n      0x05\n        /* \"#utility.yul\":9558:9572   */\n      shl\n        /* \"#utility.yul\":9550:9556   */\n      dup5\n        /* \"#utility.yul\":9546:9573   */\n      add\n        /* \"#utility.yul\":9542:9578   */\n      add\n        /* \"#utility.yul\":9613:9615   */\n      0x20\n        /* \"#utility.yul\":9605:9611   */\n      dup9\n        /* \"#utility.yul\":9601:9616   */\n      add\n        /* \"#utility.yul\":9634:9635   */\n      0x00\n        /* \"#utility.yul\":9644:9896   */\n    tag_322:\n        /* \"#utility.yul\":9658:9664   */\n      dup4\n        /* \"#utility.yul\":9655:9656   */\n      dup2\n        /* \"#utility.yul\":9652:9665   */\n      lt\n        /* \"#utility.yul\":9644:9896   */\n      iszero\n      tag_324\n      jumpi\n        /* \"#utility.yul\":9748:9750   */\n      0x1f\n        /* \"#utility.yul\":9744:9751   */\n      not\n        /* \"#utility.yul\":9735:9741   */\n      dup7\n        /* \"#utility.yul\":9727:9733   */\n      dup5\n        /* \"#utility.yul\":9723:9742   */\n      sub\n        /* \"#utility.yul\":9719:9752   */\n      add\n        /* \"#utility.yul\":9714:9717   */\n      dup6\n        /* \"#utility.yul\":9707:9753   */\n      mstore\n        /* \"#utility.yul\":9776:9816   */\n      tag_325\n        /* \"#utility.yul\":9809:9815   */\n      dup4\n        /* \"#utility.yul\":9800:9806   */\n      dup4\n        /* \"#utility.yul\":9794:9807   */\n      mload\n        /* \"#utility.yul\":9776:9816   */\n      tag_239\n      jump\t// in\n    tag_325:\n        /* \"#utility.yul\":9851:9853   */\n      0x20\n        /* \"#utility.yul\":9874:9886   */\n      swap6\n      dup7\n      add\n      swap6\n        /* \"#utility.yul\":9766:9816   */\n      swap1\n      swap4\n      pop\n        /* \"#utility.yul\":9839:9854   */\n      swap2\n      swap1\n      swap2\n      add\n      swap1\n        /* \"#utility.yul\":9680:9681   */\n      0x01\n        /* \"#utility.yul\":9673:9682   */\n      add\n        /* \"#utility.yul\":9644:9896   */\n      jump(tag_322)\n    tag_324:\n        /* \"#utility.yul\":9648:9651   */\n      pop\n      pop\n        /* \"#utility.yul\":9944:9953   */\n      dup6\n        /* \"#utility.yul\":9936:9942   */\n      dup2\n        /* \"#utility.yul\":9932:9954   */\n      sub\n        /* \"#utility.yul\":9927:9929   */\n      0x60\n        /* \"#utility.yul\":9916:9925   */\n      dup8\n        /* \"#utility.yul\":9912:9930   */\n      add\n        /* \"#utility.yul\":9905:9955   */\n      mstore\n        /* \"#utility.yul\":9972:10005   */\n      tag_326\n        /* \"#utility.yul\":9998:10004   */\n      dup2\n        /* \"#utility.yul\":9990:9996   */\n      dup9\n        /* \"#utility.yul\":9972:10005   */\n      tag_239\n      jump\t// in\n    tag_326:\n        /* \"#utility.yul\":9964:10005   */\n      swap11\n        /* \"#utility.yul\":8848:10011   */\n      swap10\n      pop\n      pop\n      pop\n      pop\n      pop\n      pop\n      pop\n      pop\n      pop\n      pop\n      jump\t// out\n        /* \"#utility.yul\":11061:11281   */\n    tag_145:\n        /* \"#utility.yul\":11210:11212   */\n      0x20\n        /* \"#utility.yul\":11199:11208   */\n      dup2\n        /* \"#utility.yul\":11192:11213   */\n      mstore\n        /* \"#utility.yul\":11173:11177   */\n      0x00\n        /* \"#utility.yul\":11230:11275   */\n      tag_307\n        /* \"#utility.yul\":11271:11273   */\n      0x20\n        /* \"#utility.yul\":11260:11269   */\n      dup4\n        /* \"#utility.yul\":11256:11274   */\n      add\n        /* \"#utility.yul\":11248:11254   */\n      dup5\n        /* \"#utility.yul\":11230:11275   */\n      tag_239\n      jump\t// in\n        /* \"#utility.yul\":11483:12393   */\n    tag_182:\n        /* \"#utility.yul\":11702:11704   */\n      0x40\n        /* \"#utility.yul\":11691:11700   */\n      dup2\n        /* \"#utility.yul\":11684:11705   */\n      mstore\n        /* \"#utility.yul\":11760:11770   */\n      0xffffffff\n        /* \"#utility.yul\":11751:11757   */\n      dup4\n        /* \"#utility.yul\":11745:11758   */\n      mload\n        /* \"#utility.yul\":11741:11771   */\n      and\n        /* \"#utility.yul\":11736:11738   */\n      0x40\n        /* \"#utility.yul\":11725:11734   */\n      dup3\n        /* \"#utility.yul\":11721:11739   */\n      add\n        /* \"#utility.yul\":11714:11772   */\n      mstore\n        /* \"#utility.yul\":11826:11830   */\n      0x20\n        /* \"#utility.yul\":11818:11824   */\n      dup4\n        /* \"#utility.yul\":11814:11831   */\n      add\n        /* \"#utility.yul\":11808:11832   */\n      mload\n        /* \"#utility.yul\":11803:11805   */\n      0x60\n        /* \"#utility.yul\":11792:11801   */\n      dup3\n        /* \"#utility.yul\":11788:11806   */\n      add\n        /* \"#utility.yul\":11781:11833   */\n      mstore\n        /* \"#utility.yul\":11665:11669   */\n      0x00\n        /* \"#utility.yul\":11880:11882   */\n      0x40\n        /* \"#utility.yul\":11872:11878   */\n      dup5\n        /* \"#utility.yul\":11868:11883   */\n      add\n        /* \"#utility.yul\":11862:11884   */\n      mload\n        /* \"#utility.yul\":11921:11925   */\n      0xa0\n        /* \"#utility.yul\":11915:11918   */\n      0x80\n        /* \"#utility.yul\":11904:11913   */\n      dup5\n        /* \"#utility.yul\":11900:11919   */\n      add\n        /* \"#utility.yul\":11893:11926   */\n      mstore\n        /* \"#utility.yul\":11949:12001   */\n      tag_334\n        /* \"#utility.yul\":11996:11999   */\n      0xe0\n        /* \"#utility.yul\":11985:11994   */\n      dup5\n        /* \"#utility.yul\":11981:12000   */\n      add\n        /* \"#utility.yul\":11967:11979   */\n      dup3\n        /* \"#utility.yul\":11949:12001   */\n      tag_239\n      jump\t// in\n    tag_334:\n        /* \"#utility.yul\":11935:12001   */\n      swap1\n      pop\n        /* \"#utility.yul\":12050:12052   */\n      0x60\n        /* \"#utility.yul\":12042:12048   */\n      dup6\n        /* \"#utility.yul\":12038:12053   */\n      add\n        /* \"#utility.yul\":12032:12054   */\n      mload\n        /* \"#utility.yul\":12124:12126   */\n      0x3f\n        /* \"#utility.yul\":12120:12127   */\n      not\n        /* \"#utility.yul\":12108:12117   */\n      dup5\n        /* \"#utility.yul\":12100:12106   */\n      dup4\n        /* \"#utility.yul\":12096:12118   */\n      sub\n        /* \"#utility.yul\":12092:12128   */\n      add\n        /* \"#utility.yul\":12085:12089   */\n      0xa0\n        /* \"#utility.yul\":12074:12083   */\n      dup6\n        /* \"#utility.yul\":12070:12090   */\n      add\n        /* \"#utility.yul\":12063:12129   */\n      mstore\n        /* \"#utility.yul\":12152:12193   */\n      tag_335\n        /* \"#utility.yul\":12186:12192   */\n      dup3\n        /* \"#utility.yul\":12170:12184   */\n      dup3\n        /* \"#utility.yul\":12152:12193   */\n      tag_239\n      jump\t// in\n    tag_335:\n        /* \"#utility.yul\":12262:12265   */\n      0x80\n        /* \"#utility.yul\":12250:12266   */\n      swap7\n      swap1\n      swap7\n      add\n        /* \"#utility.yul\":12244:12267   */\n      mload\n        /* \"#utility.yul\":12237:12268   */\n      iszero\n        /* \"#utility.yul\":12230:12269   */\n      iszero\n        /* \"#utility.yul\":12224:12227   */\n      0xc0\n        /* \"#utility.yul\":12209:12228   */\n      dup6\n      add\n        /* \"#utility.yul\":12202:12270   */\n      mstore\n      pop\n      pop\n      pop\n      sub(shl(0xa0, 0x01), 0x01)\n        /* \"#utility.yul\":12331:12386   */\n      swap2\n      swap1\n      swap2\n      and\n        /* \"#utility.yul\":12324:12328   */\n      0x20\n        /* \"#utility.yul\":12309:12329   */\n      swap1\n      swap2\n      add\n        /* \"#utility.yul\":12302:12387   */\n      mstore\n        /* \"#utility.yul\":12138:12193   */\n      swap1\n        /* \"#utility.yul\":11483:12393   */\n      jump\t// out\n        /* \"#utility.yul\":12398:13000   */\n    tag_240:\n        /* \"#utility.yul\":12468:12473   */\n      0x00\n        /* \"#utility.yul\":12516:12520   */\n      0x40\n        /* \"#utility.yul\":12504:12513   */\n      dup3\n        /* \"#utility.yul\":12499:12502   */\n      dup5\n        /* \"#utility.yul\":12495:12514   */\n      sub\n        /* \"#utility.yul\":12491:12521   */\n      slt\n        /* \"#utility.yul\":12488:12538   */\n      iszero\n      tag_337\n      jumpi\n        /* \"#utility.yul\":12534:12535   */\n      0x00\n        /* \"#utility.yul\":12531:12532   */\n      dup1\n        /* \"#utility.yul\":12524:12536   */\n      revert\n        /* \"#utility.yul\":12488:12538   */\n    tag_337:\n        /* \"#utility.yul\":12587:12591   */\n      0x40\n        /* \"#utility.yul\":12581:12592   */\n      dup1\n      mload\n      swap1\n        /* \"#utility.yul\":12619:12636   */\n      dup2\n      add\n        /* \"#utility.yul\":12666:12684   */\n      0xffffffffffffffff\n        /* \"#utility.yul\":12651:12685   */\n      dup2\n      gt\n        /* \"#utility.yul\":12687:12709   */\n      dup3\n      dup3\n      lt\n        /* \"#utility.yul\":12648:12710   */\n      or\n        /* \"#utility.yul\":12645:12733   */\n      iszero\n      tag_339\n      jumpi\n        /* \"#utility.yul\":12713:12731   */\n      tag_339\n      tag_236\n      jump\t// in\n    tag_339:\n        /* \"#utility.yul\":12749:12753   */\n      0x40\n        /* \"#utility.yul\":12742:12766   */\n      mstore\n        /* \"#utility.yul\":12835:12851   */\n      dup3\n      mload\n        /* \"#utility.yul\":12860:12883   */\n      dup2\n      mstore\n        /* \"#utility.yul\":12949:12951   */\n      0x20\n        /* \"#utility.yul\":12934:12952   */\n      swap3\n      dup4\n      add\n        /* \"#utility.yul\":12928:12953   */\n      mload\n        /* \"#utility.yul\":12969:12984   */\n      swap3\n      dup2\n      add\n        /* \"#utility.yul\":12962:12994   */\n      swap3\n      swap1\n      swap3\n      mstore\n      pop\n        /* \"#utility.yul\":12784:12790   */\n      swap2\n        /* \"#utility.yul\":12398:13000   */\n      swap1\n      pop\n      jump\t// out\n        /* \"#utility.yul\":13005:13262   */\n    tag_186:\n        /* \"#utility.yul\":13103:13109   */\n      0x00\n        /* \"#utility.yul\":13156:13158   */\n      0x40\n        /* \"#utility.yul\":13144:13153   */\n      dup3\n        /* \"#utility.yul\":13135:13142   */\n      dup5\n        /* \"#utility.yul\":13131:13154   */\n      sub\n        /* \"#utility.yul\":13127:13159   */\n      slt\n        /* \"#utility.yul\":13124:13176   */\n      iszero\n      tag_341\n      jumpi\n        /* \"#utility.yul\":13172:13173   */\n      0x00\n        /* \"#utility.yul\":13169:13170   */\n      dup1\n        /* \"#utility.yul\":13162:13174   */\n      revert\n        /* \"#utility.yul\":13124:13176   */\n    tag_341:\n        /* \"#utility.yul\":13195:13256   */\n      tag_307\n        /* \"#utility.yul\":13248:13255   */\n      dup4\n        /* \"#utility.yul\":13237:13246   */\n      dup4\n        /* \"#utility.yul\":13195:13256   */\n      tag_240\n      jump\t// in\n        /* \"#utility.yul\":13627:14404   */\n    tag_205:\n        /* \"#utility.yul\":13729:13735   */\n      0x00\n        /* \"#utility.yul\":13789:13792   */\n      0x80\n        /* \"#utility.yul\":13777:13786   */\n      dup3\n        /* \"#utility.yul\":13768:13775   */\n      dup5\n        /* \"#utility.yul\":13764:13787   */\n      sub\n        /* \"#utility.yul\":13760:13793   */\n      slt\n        /* \"#utility.yul\":13805:13807   */\n      dup1\n        /* \"#utility.yul\":13802:13824   */\n      iszero\n      tag_345\n      jumpi\n        /* \"#utility.yul\":13820:13821   */\n      0x00\n        /* \"#utility.yul\":13817:13818   */\n      dup1\n        /* \"#utility.yul\":13810:13822   */\n      revert\n        /* \"#utility.yul\":13802:13824   */\n    tag_345:\n      pop\n        /* \"#utility.yul\":13889:13891   */\n      0x40\n        /* \"#utility.yul\":13883:13892   */\n      mload\n        /* \"#utility.yul\":13931:13935   */\n      0x60\n        /* \"#utility.yul\":13919:13936   */\n      dup2\n      add\n        /* \"#utility.yul\":13966:13984   */\n      0xffffffffffffffff\n        /* \"#utility.yul\":13951:13985   */\n      dup2\n      gt\n        /* \"#utility.yul\":13987:14009   */\n      dup3\n      dup3\n      lt\n        /* \"#utility.yul\":13948:14010   */\n      or\n        /* \"#utility.yul\":13945:14033   */\n      iszero\n      tag_347\n      jumpi\n        /* \"#utility.yul\":14013:14031   */\n      tag_347\n      tag_236\n      jump\t// in\n    tag_347:\n        /* \"#utility.yul\":14049:14051   */\n      0x40\n        /* \"#utility.yul\":14042:14064   */\n      mstore\n        /* \"#utility.yul\":14088:14104   */\n      dup3\n      mload\n        /* \"#utility.yul\":14073:14105   */\n      dup2\n      mstore\n        /* \"#utility.yul\":14148:14150   */\n      0x20\n        /* \"#utility.yul\":14133:14151   */\n      dup4\n      add\n        /* \"#utility.yul\":14127:14152   */\n      mload\n        /* \"#utility.yul\":14192:14210   */\n      0xffffffffffffffff\n        /* \"#utility.yul\":14181:14211   */\n      dup2\n      and\n        /* \"#utility.yul\":14171:14212   */\n      dup2\n      eq\n        /* \"#utility.yul\":14161:14230   */\n      tag_348\n      jumpi\n        /* \"#utility.yul\":14226:14227   */\n      0x00\n        /* \"#utility.yul\":14223:14224   */\n      dup1\n        /* \"#utility.yul\":14216:14228   */\n      revert\n        /* \"#utility.yul\":14161:14230   */\n    tag_348:\n        /* \"#utility.yul\":14258:14260   */\n      0x20\n        /* \"#utility.yul\":14246:14261   */\n      dup3\n      add\n        /* \"#utility.yul\":14239:14269   */\n      mstore\n        /* \"#utility.yul\":14302:14372   */\n      tag_349\n        /* \"#utility.yul\":14364:14371   */\n      dup5\n        /* \"#utility.yul\":14359:14361   */\n      0x40\n        /* \"#utility.yul\":14344:14362   */\n      dup6\n      add\n        /* \"#utility.yul\":14302:14372   */\n      tag_240\n      jump\t// in\n    tag_349:\n        /* \"#utility.yul\":14297:14299   */\n      0x40\n        /* \"#utility.yul\":14285:14300   */\n      dup3\n      add\n        /* \"#utility.yul\":14278:14373   */\n      mstore\n        /* \"#utility.yul\":14289:14295   */\n      swap4\n        /* \"#utility.yul\":13627:14404   */\n      swap3\n      pop\n      pop\n      pop\n      jump\t// out\n        /* \"#utility.yul\":14591:14842   */\n    tag_216:\n        /* \"#utility.yul\":14661:14667   */\n      0x00\n        /* \"#utility.yul\":14714:14716   */\n      0x20\n        /* \"#utility.yul\":14702:14711   */\n      dup3\n        /* \"#utility.yul\":14693:14700   */\n      dup5\n        /* \"#utility.yul\":14689:14712   */\n      sub\n        /* \"#utility.yul\":14685:14717   */\n      slt\n        /* \"#utility.yul\":14682:14734   */\n      iszero\n      tag_352\n      jumpi\n        /* \"#utility.yul\":14730:14731   */\n      0x00\n        /* \"#utility.yul\":14727:14728   */\n      dup1\n        /* \"#utility.yul\":14720:14732   */\n      revert\n        /* \"#utility.yul\":14682:14734   */\n    tag_352:\n        /* \"#utility.yul\":14762:14771   */\n      dup2\n        /* \"#utility.yul\":14756:14772   */\n      mload\n        /* \"#utility.yul\":14781:14812   */\n      tag_307\n        /* \"#utility.yul\":14806:14811   */\n      dup2\n        /* \"#utility.yul\":14781:14812   */\n      tag_234\n      jump\t// in\n\n    auxdata: 0xa2646970667358221220e47ecc10f452d6058bebd81a8cf0ce0183a479368ab7d2a89b43f318f8280b8364736f6c634300081c0033\n}\n",
				"bytecode": {
					"linkReferences": {},
					"object": "60a060405234801561001057600080fd5b506040516115e43803806115e483398101604081905261002f91610177565b81818181338061005957604051631e4fbdf760e01b81526000600482015260240160405180910390fd5b6100628161010b565b506001600160a01b03808316608052811661009057604051632d618d8160e21b815260040160405180910390fd5b60805160405163ca5eb5e160e01b81526001600160a01b0383811660048301529091169063ca5eb5e190602401600060405180830381600087803b1580156100d757600080fd5b505af11580156100eb573d6000803e3d6000fd5b505060016002555061010494508593505061010b915050565b50506101aa565b600080546001600160a01b038381166001600160a01b0319831681178455604051919092169283917f8be0079c531659141344cd1fd0a4f28419497f9722a3daafe3b4186f6b6457e09190a35050565b80516001600160a01b038116811461017257600080fd5b919050565b6000806040838503121561018a57600080fd5b6101938361015b565b91506101a16020840161015b565b90509250929050565b6080516113f56101ef6000396000818161015b0152818161032e015281816106c20152818161086f01528181610a2101528181610b250152610bdc01526113f56000f3fe6080604052600436106100e15760003560e01c806382413eac1161007f578063bb0b6a5311610059578063bb0b6a5314610291578063ca5eb5e1146102cc578063f2fde38b146102ec578063ff7bd03d1461030c57600080fd5b806382413eac1461022157806385920336146102605780638da5cb5b1461027357600080fd5b80635e280f11116100bb5780635e280f1114610149578063682d54e614610195578063715018a6146101d05780637d25a05e146101e557600080fd5b806313137d65146100ed57806317442b70146101025780633400288b1461012957600080fd5b366100e857005b600080fd5b6101006100fb366004610d88565b61032c565b005b34801561010e57600080fd5b50604080516001815260026020820152015b60405180910390f35b34801561013557600080fd5b50610100610144366004610e44565b6103dd565b34801561015557600080fd5b5061017d7f000000000000000000000000000000000000000000000000000000000000000081565b6040516001600160a01b039091168152602001610120565b3480156101a157600080fd5b506101b56101b0366004610f25565b6103f3565b60408051825181526020928301519281019290925201610120565b3480156101dc57600080fd5b50610100610479565b3480156101f157600080fd5b50610208610200366004610e44565b600092915050565b60405167ffffffffffffffff9091168152602001610120565b34801561022d57600080fd5b5061025061023c366004611092565b6001600160a01b0381163014949350505050565b6040519015158152602001610120565b61010061026e366004610f25565b61048d565b34801561027f57600080fd5b506000546001600160a01b031661017d565b34801561029d57600080fd5b506102be6102ac3660046110f9565b60016020526000908152604090205481565b604051908152602001610120565b3480156102d857600080fd5b506101006102e736600461111b565b61069b565b3480156102f857600080fd5b5061010061030736600461111b565b610721565b34801561031857600080fd5b50610250610327366004611138565b61075f565b7f00000000000000000000000000000000000000000000000000000000000000006001600160a01b0316331461037c576040516391ac5e4f60e01b81523360048201526024015b60405180910390fd5b6020870180359061039690610391908a6110f9565b610795565b146103d4576103a860208801886110f9565b60405163309afaf360e21b815263ffffffff909116600482015260208801356024820152604401610373565b50505050505050565b6103e56107d7565b6103ef8282610804565b5050565b6040805180820190915260008082526020820152600033878787604051602001610420949392919061119a565b60408051601f198184030181526020601f8701819004810284018101909252858352925061046d918a91849190889088908190840183828082843760009201829052509250610859915050565b98975050505050505050565b6104816107d7565b61048b600061093a565b565b610495610997565b60008551116104e65760405162461bcd60e51b815260206004820152601460248201527f4e616d652063616e6e6f7420626520656d7074790000000000000000000000006044820152606401610373565b60008451116105375760405162461bcd60e51b815260206004820152601660248201527f536b696c6c732063616e6e6f7420626520656d707479000000000000000000006044820152606401610373565b600033868686604051602001610550949392919061119a565b60408051601f198184030181526020601f8601819004810284018101909252848352925060009161059f918a918591889088908190840183828082843760009201829052509250610859915050565b80519091503410156105e65760405162461bcd60e51b815260206004820152601060248201526f496e73756666696369656e742066656560801b6044820152606401610373565b61063e888386868080601f016020809104026020016040519081016040528093929190818152602001838380828437600092018290525060408051808201909152348152602081019190915292503391506109ee9050565b50336001600160a01b03168863ffffffff167f1d5edbfa34a5048259c7762dd64a3221054d2fb1f2f2ccb0421674c86aed0bf38960405161067f9190611234565b60405180910390a350506106936001600255565b505050505050565b6106a36107d7565b60405163ca5eb5e160e01b81526001600160a01b0382811660048301527f0000000000000000000000000000000000000000000000000000000000000000169063ca5eb5e190602401600060405180830381600087803b15801561070657600080fd5b505af115801561071a573d6000803e3d6000fd5b5050505050565b6107296107d7565b6001600160a01b03811661075357604051631e4fbdf760e01b815260006004820152602401610373565b61075c8161093a565b50565b600060208201803590600190839061077790866110f9565b63ffffffff1681526020810191909152604001600020541492915050565b63ffffffff8116600090815260016020526040812054806107d15760405163f6ff4fb760e01b815263ffffffff84166004820152602401610373565b92915050565b6000546001600160a01b0316331461048b5760405163118cdaa760e01b8152336004820152602401610373565b63ffffffff8216600081815260016020908152604091829020849055815192835282018390527f238399d427b947898edb290f5ff0f9109849b1c3ba196a42e35f00c50a54b98b910160405180910390a15050565b60408051808201909152600080825260208201527f00000000000000000000000000000000000000000000000000000000000000006001600160a01b031663ddc28c586040518060a001604052808863ffffffff1681526020016108bc89610795565b8152602001878152602001868152602001851515815250306040518363ffffffff1660e01b81526004016108f1929190611247565b6040805180830381865afa15801561090d573d6000803e3d6000fd5b505050506040513d601f19601f82011682018060405250810190610931919061130f565b95945050505050565b600080546001600160a01b0383811673ffffffffffffffffffffffffffffffffffffffff19831681178455604051919092169283917f8be0079c531659141344cd1fd0a4f28419497f9722a3daafe3b4186f6b6457e09190a35050565b60028054036109e85760405162461bcd60e51b815260206004820152601f60248201527f5265656e7472616e637947756172643a207265656e7472616e742063616c6c006044820152606401610373565b60028055565b6109f6610cca565b6000610a058460000151610af9565b602085015190915015610a1f57610a1f8460200151610b21565b7f00000000000000000000000000000000000000000000000000000000000000006001600160a01b0316632637a450826040518060a001604052808b63ffffffff168152602001610a6f8c610795565b81526020018a815260200189815260200160008960200151111515815250866040518463ffffffff1660e01b8152600401610aab929190611247565b60806040518083038185885af1158015610ac9573d6000803e3d6000fd5b50505050506040513d601f19601f82011682018060405250810190610aee919061132b565b979650505050505050565b6000813414610b1d576040516304fb820960e51b8152346004820152602401610373565b5090565b60007f00000000000000000000000000000000000000000000000000000000000000006001600160a01b031663e4fe1d946040518163ffffffff1660e01b8152600401602060405180830381865afa158015610b81573d6000803e3d6000fd5b505050506040513d601f19601f82011682018060405250810190610ba591906113a2565b90506001600160a01b038116610bce576040516329b99a9560e11b815260040160405180910390fd5b6040805133602482018190527f00000000000000000000000000000000000000000000000000000000000000006001600160a01b03818116604485015260648085018890528551808603909101815260849094019094526020830180516001600160e01b03166323b872dd60e01b1790526103ef938516928690610c53908590610c59565b50505050565b600080602060008451602086016000885af180610c7c576040513d6000823e3d81fd5b50506000513d91508115610c94578060011415610ca1565b6001600160a01b0384163b155b15610c5357604051635274afe760e01b81526001600160a01b0385166004820152602401610373565b604051806060016040528060008019168152602001600067ffffffffffffffff168152602001610d0d604051806040016040528060008152602001600081525090565b905290565b600060608284031215610d2457600080fd5b50919050565b60008083601f840112610d3c57600080fd5b50813567ffffffffffffffff811115610d5457600080fd5b602083019150836020828501011115610d6c57600080fd5b9250929050565b6001600160a01b038116811461075c57600080fd5b600080600080600080600060e0888a031215610da357600080fd5b610dad8989610d12565b965060608801359550608088013567ffffffffffffffff811115610dd057600080fd5b610ddc8a828b01610d2a565b90965094505060a0880135610df081610d73565b925060c088013567ffffffffffffffff811115610e0c57600080fd5b610e188a828b01610d2a565b989b979a50959850939692959293505050565b803563ffffffff81168114610e3f57600080fd5b919050565b60008060408385031215610e5757600080fd5b610e6083610e2b565b946020939093013593505050565b634e487b7160e01b600052604160045260246000fd5b604051601f8201601f1916810167ffffffffffffffff81118282101715610ead57610ead610e6e565b604052919050565b600082601f830112610ec657600080fd5b813567ffffffffffffffff811115610ee057610ee0610e6e565b610ef3601f8201601f1916602001610e84565b818152846020838601011115610f0857600080fd5b816020850160208301376000918101602001919091529392505050565b60008060008060008060a08789031215610f3e57600080fd5b610f4787610e2b565b9550602087013567ffffffffffffffff811115610f6357600080fd5b610f6f89828a01610eb5565b955050604087013567ffffffffffffffff811115610f8c57600080fd5b8701601f81018913610f9d57600080fd5b803567ffffffffffffffff811115610fb757610fb7610e6e565b8060051b610fc760208201610e84565b9182526020818401810192908101908c841115610fe357600080fd5b6020850192505b8383101561102a57823567ffffffffffffffff81111561100957600080fd5b6110188e602083890101610eb5565b83525060209283019290910190610fea565b97505050506060880135905067ffffffffffffffff81111561104b57600080fd5b61105789828a01610eb5565b935050608087013567ffffffffffffffff81111561107457600080fd5b61108089828a01610d2a565b979a9699509497509295939492505050565b60008060008060a085870312156110a857600080fd5b6110b28686610d12565b9350606085013567ffffffffffffffff8111156110ce57600080fd5b6110da87828801610d2a565b90945092505060808501356110ee81610d73565b939692955090935050565b60006020828403121561110b57600080fd5b61111482610e2b565b9392505050565b60006020828403121561112d57600080fd5b813561111481610d73565b60006060828403121561114a57600080fd5b6111148383610d12565b6000815180845260005b8181101561117a5760208185018101518683018201520161115e565b506000602082860101526020601f19601f83011685010191505092915050565b6001600160a01b03851681526080602082015260006111bc6080830186611154565b828103604084015280855180835260208301915060208160051b8401016020880160005b8381101561121257601f198684030185526111fc838351611154565b60209586019590935091909101906001016111e0565b505085810360608701526112268188611154565b9a9950505050505050505050565b6020815260006111146020830184611154565b6040815263ffffffff8351166040820152602083015160608201526000604084015160a0608084015261127d60e0840182611154565b90506060850151603f198483030160a085015261129a8282611154565b60809690960151151560c08501525050506001600160a01b039190911660209091015290565b6000604082840312156112d257600080fd5b6040805190810167ffffffffffffffff811182821017156112f5576112f5610e6e565b604052825181526020928301519281019290925250919050565b60006040828403121561132157600080fd5b61111483836112c0565b6000608082840312801561133e57600080fd5b506040516060810167ffffffffffffffff8111828210171561136257611362610e6e565b60405282518152602083015167ffffffffffffffff8116811461138457600080fd5b602082015261139684604085016112c0565b60408201529392505050565b6000602082840312156113b457600080fd5b815161111481610d7356fea2646970667358221220e47ecc10f452d6058bebd81a8cf0ce0183a479368ab7d2a89b43f318f8280b8364736f6c634300081c0033",
					"opcodes": "PUSH1 0xA0 PUSH1 0x40 MSTORE CALLVALUE DUP1 ISZERO PUSH2 0x10 JUMPI PUSH1 0x0 DUP1 REVERT JUMPDEST POP PUSH1 0x40 MLOAD PUSH2 0x15E4 CODESIZE SUB DUP1 PUSH2 0x15E4 DUP4 CODECOPY DUP2 ADD PUSH1 0x40 DUP2 SWAP1 MSTORE PUSH2 0x2F SWAP2 PUSH2 0x177 JUMP JUMPDEST DUP2 DUP2 DUP2 DUP2 CALLER DUP1 PUSH2 0x59 JUMPI PUSH1 0x40 MLOAD PUSH4 0x1E4FBDF7 PUSH1 0xE0 SHL DUP2 MSTORE PUSH1 0x0 PUSH1 0x4 DUP3 ADD MSTORE PUSH1 0x24 ADD PUSH1 0x40 MLOAD DUP1 SWAP2 SUB SWAP1 REVERT JUMPDEST PUSH2 0x62 DUP2 PUSH2 0x10B JUMP JUMPDEST POP PUSH1 0x1 PUSH1 0x1 PUSH1 0xA0 SHL SUB DUP1 DUP4 AND PUSH1 0x80 MSTORE DUP2 AND PUSH2 0x90 JUMPI PUSH1 0x40 MLOAD PUSH4 0x2D618D81 PUSH1 0xE2 SHL DUP2 MSTORE PUSH1 0x4 ADD PUSH1 0x40 MLOAD DUP1 SWAP2 SUB SWAP1 REVERT JUMPDEST PUSH1 0x80 MLOAD PUSH1 0x40 MLOAD PUSH4 0xCA5EB5E1 PUSH1 0xE0 SHL DUP2 MSTORE PUSH1 0x1 PUSH1 0x1 PUSH1 0xA0 SHL SUB DUP4 DUP2 AND PUSH1 0x4 DUP4 ADD MSTORE SWAP1 SWAP2 AND SWAP1 PUSH4 0xCA5EB5E1 SWAP1 PUSH1 0x24 ADD PUSH1 0x0 PUSH1 0x40 MLOAD DUP1 DUP4 SUB DUP2 PUSH1 0x0 DUP8 DUP1 EXTCODESIZE ISZERO DUP1 ISZERO PUSH2 0xD7 JUMPI PUSH1 0x0 DUP1 REVERT JUMPDEST POP GAS CALL ISZERO DUP1 ISZERO PUSH2 0xEB JUMPI RETURNDATASIZE PUSH1 0x0 DUP1 RETURNDATACOPY RETURNDATASIZE PUSH1 0x0 REVERT JUMPDEST POP POP PUSH1 0x1 PUSH1 0x2 SSTORE POP PUSH2 0x104 SWAP5 POP DUP6 SWAP4 POP POP PUSH2 0x10B SWAP2 POP POP JUMP JUMPDEST POP POP PUSH2 0x1AA JUMP JUMPDEST PUSH1 0x0 DUP1 SLOAD PUSH1 0x1 PUSH1 0x1 PUSH1 0xA0 SHL SUB DUP4 DUP2 AND PUSH1 0x1 PUSH1 0x1 PUSH1 0xA0 SHL SUB NOT DUP4 AND DUP2 OR DUP5 SSTORE PUSH1 0x40 MLOAD SWAP2 SWAP1 SWAP3 AND SWAP3 DUP4 SWAP2 PUSH32 0x8BE0079C531659141344CD1FD0A4F28419497F9722A3DAAFE3B4186F6B6457E0 SWAP2 SWAP1 LOG3 POP POP JUMP JUMPDEST DUP1 MLOAD PUSH1 0x1 PUSH1 0x1 PUSH1 0xA0 SHL SUB DUP2 AND DUP2 EQ PUSH2 0x172 JUMPI PUSH1 0x0 DUP1 REVERT JUMPDEST SWAP2 SWAP1 POP JUMP JUMPDEST PUSH1 0x0 DUP1 PUSH1 0x40 DUP4 DUP6 SUB SLT ISZERO PUSH2 0x18A JUMPI PUSH1 0x0 DUP1 REVERT JUMPDEST PUSH2 0x193 DUP4 PUSH2 0x15B JUMP JUMPDEST SWAP2 POP PUSH2 0x1A1 PUSH1 0x20 DUP5 ADD PUSH2 0x15B JUMP JUMPDEST SWAP1 POP SWAP3 POP SWAP3 SWAP1 POP JUMP JUMPDEST PUSH1 0x80 MLOAD PUSH2 0x13F5 PUSH2 0x1EF PUSH1 0x0 CODECOPY PUSH1 0x0 DUP2 DUP2 PUSH2 0x15B ADD MSTORE DUP2 DUP2 PUSH2 0x32E ADD MSTORE DUP2 DUP2 PUSH2 0x6C2 ADD MSTORE DUP2 DUP2 PUSH2 0x86F ADD MSTORE DUP2 DUP2 PUSH2 0xA21 ADD MSTORE DUP2 DUP2 PUSH2 0xB25 ADD MSTORE PUSH2 0xBDC ADD MSTORE PUSH2 0x13F5 PUSH1 0x0 RETURN INVALID PUSH1 0x80 PUSH1 0x40 MSTORE PUSH1 0x4 CALLDATASIZE LT PUSH2 0xE1 JUMPI PUSH1 0x0 CALLDATALOAD PUSH1 0xE0 SHR DUP1 PUSH4 0x82413EAC GT PUSH2 0x7F JUMPI DUP1 PUSH4 0xBB0B6A53 GT PUSH2 0x59 JUMPI DUP1 PUSH4 0xBB0B6A53 EQ PUSH2 0x291 JUMPI DUP1 PUSH4 0xCA5EB5E1 EQ PUSH2 0x2CC JUMPI DUP1 PUSH4 0xF2FDE38B EQ PUSH2 0x2EC JUMPI DUP1 PUSH4 0xFF7BD03D EQ PUSH2 0x30C JUMPI PUSH1 0x0 DUP1 REVERT JUMPDEST DUP1 PUSH4 0x82413EAC EQ PUSH2 0x221 JUMPI DUP1 PUSH4 0x85920336 EQ PUSH2 0x260 JUMPI DUP1 PUSH4 0x8DA5CB5B EQ PUSH2 0x273 JUMPI PUSH1 0x0 DUP1 REVERT JUMPDEST DUP1 PUSH4 0x5E280F11 GT PUSH2 0xBB JUMPI DUP1 PUSH4 0x5E280F11 EQ PUSH2 0x149 JUMPI DUP1 PUSH4 0x682D54E6 EQ PUSH2 0x195 JUMPI DUP1 PUSH4 0x715018A6 EQ PUSH2 0x1D0 JUMPI DUP1 PUSH4 0x7D25A05E EQ PUSH2 0x1E5 JUMPI PUSH1 0x0 DUP1 REVERT JUMPDEST DUP1 PUSH4 0x13137D65 EQ PUSH2 0xED JUMPI DUP1 PUSH4 0x17442B70 EQ PUSH2 0x102 JUMPI DUP1 PUSH4 0x3400288B EQ PUSH2 0x129 JUMPI PUSH1 0x0 DUP1 REVERT JUMPDEST CALLDATASIZE PUSH2 0xE8 JUMPI STOP JUMPDEST PUSH1 0x0 DUP1 REVERT JUMPDEST PUSH2 0x100 PUSH2 0xFB CALLDATASIZE PUSH1 0x4 PUSH2 0xD88 JUMP JUMPDEST PUSH2 0x32C JUMP JUMPDEST STOP JUMPDEST CALLVALUE DUP1 ISZERO PUSH2 0x10E JUMPI PUSH1 0x0 DUP1 REVERT JUMPDEST POP PUSH1 0x40 DUP1 MLOAD PUSH1 0x1 DUP2 MSTORE PUSH1 0x2 PUSH1 0x20 DUP3 ADD MSTORE ADD JUMPDEST PUSH1 0x40 MLOAD DUP1 SWAP2 SUB SWAP1 RETURN JUMPDEST CALLVALUE DUP1 ISZERO PUSH2 0x135 JUMPI PUSH1 0x0 DUP1 REVERT JUMPDEST POP PUSH2 0x100 PUSH2 0x144 CALLDATASIZE PUSH1 0x4 PUSH2 0xE44 JUMP JUMPDEST PUSH2 0x3DD JUMP JUMPDEST CALLVALUE DUP1 ISZERO PUSH2 0x155 JUMPI PUSH1 0x0 DUP1 REVERT JUMPDEST POP PUSH2 0x17D PUSH32 0x0 DUP2 JUMP JUMPDEST PUSH1 0x40 MLOAD PUSH1 0x1 PUSH1 0x1 PUSH1 0xA0 SHL SUB SWAP1 SWAP2 AND DUP2 MSTORE PUSH1 0x20 ADD PUSH2 0x120 JUMP JUMPDEST CALLVALUE DUP1 ISZERO PUSH2 0x1A1 JUMPI PUSH1 0x0 DUP1 REVERT JUMPDEST POP PUSH2 0x1B5 PUSH2 0x1B0 CALLDATASIZE PUSH1 0x4 PUSH2 0xF25 JUMP JUMPDEST PUSH2 0x3F3 JUMP JUMPDEST PUSH1 0x40 DUP1 MLOAD DUP3 MLOAD DUP2 MSTORE PUSH1 0x20 SWAP3 DUP4 ADD MLOAD SWAP3 DUP2 ADD SWAP3 SWAP1 SWAP3 MSTORE ADD PUSH2 0x120 JUMP JUMPDEST CALLVALUE DUP1 ISZERO PUSH2 0x1DC JUMPI PUSH1 0x0 DUP1 REVERT JUMPDEST POP PUSH2 0x100 PUSH2 0x479 JUMP JUMPDEST CALLVALUE DUP1 ISZERO PUSH2 0x1F1 JUMPI PUSH1 0x0 DUP1 REVERT JUMPDEST POP PUSH2 0x208 PUSH2 0x200 CALLDATASIZE PUSH1 0x4 PUSH2 0xE44 JUMP JUMPDEST PUSH1 0x0 SWAP3 SWAP2 POP POP JUMP JUMPDEST PUSH1 0x40 MLOAD PUSH8 0xFFFFFFFFFFFFFFFF SWAP1 SWAP2 AND DUP2 MSTORE PUSH1 0x20 ADD PUSH2 0x120 JUMP JUMPDEST CALLVALUE DUP1 ISZERO PUSH2 0x22D JUMPI PUSH1 0x0 DUP1 REVERT JUMPDEST POP PUSH2 0x250 PUSH2 0x23C CALLDATASIZE PUSH1 0x4 PUSH2 0x1092 JUMP JUMPDEST PUSH1 0x1 PUSH1 0x1 PUSH1 0xA0 SHL SUB DUP2 AND ADDRESS EQ SWAP5 SWAP4 POP POP POP POP JUMP JUMPDEST PUSH1 0x40 MLOAD SWAP1 ISZERO ISZERO DUP2 MSTORE PUSH1 0x20 ADD PUSH2 0x120 JUMP JUMPDEST PUSH2 0x100 PUSH2 0x26E CALLDATASIZE PUSH1 0x4 PUSH2 0xF25 JUMP JUMPDEST PUSH2 0x48D JUMP JUMPDEST CALLVALUE DUP1 ISZERO PUSH2 0x27F JUMPI PUSH1 0x0 DUP1 REVERT JUMPDEST POP PUSH1 0x0 SLOAD PUSH1 0x1 PUSH1 0x1 PUSH1 0xA0 SHL SUB AND PUSH2 0x17D JUMP JUMPDEST CALLVALUE DUP1 ISZERO PUSH2 0x29D JUMPI PUSH1 0x0 DUP1 REVERT JUMPDEST POP PUSH2 0x2BE PUSH2 0x2AC CALLDATASIZE PUSH1 0x4 PUSH2 0x10F9 JUMP JUMPDEST PUSH1 0x1 PUSH1 0x20 MSTORE PUSH1 0x0 SWAP1 DUP2 MSTORE PUSH1 0x40 SWAP1 KECCAK256 SLOAD DUP2 JUMP JUMPDEST PUSH1 0x40 MLOAD SWAP1 DUP2 MSTORE PUSH1 0x20 ADD PUSH2 0x120 JUMP JUMPDEST CALLVALUE DUP1 ISZERO PUSH2 0x2D8 JUMPI PUSH1 0x0 DUP1 REVERT JUMPDEST POP PUSH2 0x100 PUSH2 0x2E7 CALLDATASIZE PUSH1 0x4 PUSH2 0x111B JUMP JUMPDEST PUSH2 0x69B JUMP JUMPDEST CALLVALUE DUP1 ISZERO PUSH2 0x2F8 JUMPI PUSH1 0x0 DUP1 REVERT JUMPDEST POP PUSH2 0x100 PUSH2 0x307 CALLDATASIZE PUSH1 0x4 PUSH2 0x111B JUMP JUMPDEST PUSH2 0x721 JUMP JUMPDEST CALLVALUE DUP1 ISZERO PUSH2 0x318 JUMPI PUSH1 0x0 DUP1 REVERT JUMPDEST POP PUSH2 0x250 PUSH2 0x327 CALLDATASIZE PUSH1 0x4 PUSH2 0x1138 JUMP JUMPDEST PUSH2 0x75F JUMP JUMPDEST PUSH32 0x0 PUSH1 0x1 PUSH1 0x1 PUSH1 0xA0 SHL SUB AND CALLER EQ PUSH2 0x37C JUMPI PUSH1 0x40 MLOAD PUSH4 0x91AC5E4F PUSH1 0xE0 SHL DUP2 MSTORE CALLER PUSH1 0x4 DUP3 ADD MSTORE PUSH1 0x24 ADD JUMPDEST PUSH1 0x40 MLOAD DUP1 SWAP2 SUB SWAP1 REVERT JUMPDEST PUSH1 0x20 DUP8 ADD DUP1 CALLDATALOAD SWAP1 PUSH2 0x396 SWAP1 PUSH2 0x391 SWAP1 DUP11 PUSH2 0x10F9 JUMP JUMPDEST PUSH2 0x795 JUMP JUMPDEST EQ PUSH2 0x3D4 JUMPI PUSH2 0x3A8 PUSH1 0x20 DUP9 ADD DUP9 PUSH2 0x10F9 JUMP JUMPDEST PUSH1 0x40 MLOAD PUSH4 0x309AFAF3 PUSH1 0xE2 SHL DUP2 MSTORE PUSH4 0xFFFFFFFF SWAP1 SWAP2 AND PUSH1 0x4 DUP3 ADD MSTORE PUSH1 0x20 DUP9 ADD CALLDATALOAD PUSH1 0x24 DUP3 ADD MSTORE PUSH1 0x44 ADD PUSH2 0x373 JUMP JUMPDEST POP POP POP POP POP POP POP JUMP JUMPDEST PUSH2 0x3E5 PUSH2 0x7D7 JUMP JUMPDEST PUSH2 0x3EF DUP3 DUP3 PUSH2 0x804 JUMP JUMPDEST POP POP JUMP JUMPDEST PUSH1 0x40 DUP1 MLOAD DUP1 DUP3 ADD SWAP1 SWAP2 MSTORE PUSH1 0x0 DUP1 DUP3 MSTORE PUSH1 0x20 DUP3 ADD MSTORE PUSH1 0x0 CALLER DUP8 DUP8 DUP8 PUSH1 0x40 MLOAD PUSH1 0x20 ADD PUSH2 0x420 SWAP5 SWAP4 SWAP3 SWAP2 SWAP1 PUSH2 0x119A JUMP JUMPDEST PUSH1 0x40 DUP1 MLOAD PUSH1 0x1F NOT DUP2 DUP5 SUB ADD DUP2 MSTORE PUSH1 0x20 PUSH1 0x1F DUP8 ADD DUP2 SWAP1 DIV DUP2 MUL DUP5 ADD DUP2 ADD SWAP1 SWAP3 MSTORE DUP6 DUP4 MSTORE SWAP3 POP PUSH2 0x46D SWAP2 DUP11 SWAP2 DUP5 SWAP2 SWAP1 DUP9 SWAP1 DUP9 SWAP1 DUP2 SWAP1 DUP5 ADD DUP4 DUP3 DUP1 DUP3 DUP5 CALLDATACOPY PUSH1 0x0 SWAP3 ADD DUP3 SWAP1 MSTORE POP SWAP3 POP PUSH2 0x859 SWAP2 POP POP JUMP JUMPDEST SWAP9 SWAP8 POP POP POP POP POP POP POP POP JUMP JUMPDEST PUSH2 0x481 PUSH2 0x7D7 JUMP JUMPDEST PUSH2 0x48B PUSH1 0x0 PUSH2 0x93A JUMP JUMPDEST JUMP JUMPDEST PUSH2 0x495 PUSH2 0x997 JUMP JUMPDEST PUSH1 0x0 DUP6 MLOAD GT PUSH2 0x4E6 JUMPI PUSH1 0x40 MLOAD PUSH3 0x461BCD PUSH1 0xE5 SHL DUP2 MSTORE PUSH1 0x20 PUSH1 0x4 DUP3 ADD MSTORE PUSH1 0x14 PUSH1 0x24 DUP3 ADD MSTORE PUSH32 0x4E616D652063616E6E6F7420626520656D707479000000000000000000000000 PUSH1 0x44 DUP3 ADD MSTORE PUSH1 0x64 ADD PUSH2 0x373 JUMP JUMPDEST PUSH1 0x0 DUP5 MLOAD GT PUSH2 0x537 JUMPI PUSH1 0x40 MLOAD PUSH3 0x461BCD PUSH1 0xE5 SHL DUP2 MSTORE PUSH1 0x20 PUSH1 0x4 DUP3 ADD MSTORE PUSH1 0x16 PUSH1 0x24 DUP3 ADD MSTORE PUSH32 0x536B696C6C732063616E6E6F7420626520656D70747900000000000000000000 PUSH1 0x44 DUP3 ADD MSTORE PUSH1 0x64 ADD PUSH2 0x373 JUMP JUMPDEST PUSH1 0x0 CALLER DUP7 DUP7 DUP7 PUSH1 0x40 MLOAD PUSH1 0x20 ADD PUSH2 0x550 SWAP5 SWAP4 SWAP3 SWAP2 SWAP1 PUSH2 0x119A JUMP JUMPDEST PUSH1 0x40 DUP1 MLOAD PUSH1 0x1F NOT DUP2 DUP5 SUB ADD DUP2 MSTORE PUSH1 0x20 PUSH1 0x1F DUP7 ADD DUP2 SWAP1 DIV DUP2 MUL DUP5 ADD DUP2 ADD SWAP1 SWAP3 MSTORE DUP5 DUP4 MSTORE SWAP3 POP PUSH1 0x0 SWAP2 PUSH2 0x59F SWAP2 DUP11 SWAP2 DUP6 SWAP2 DUP9 SWAP1 DUP9 SWAP1 DUP2 SWAP1 DUP5 ADD DUP4 DUP3 DUP1 DUP3 DUP5 CALLDATACOPY PUSH1 0x0 SWAP3 ADD DUP3 SWAP1 MSTORE POP SWAP3 POP PUSH2 0x859 SWAP2 POP POP JUMP JUMPDEST DUP1 MLOAD SWAP1 SWAP2 POP CALLVALUE LT ISZERO PUSH2 0x5E6 JUMPI PUSH1 0x40 MLOAD PUSH3 0x461BCD PUSH1 0xE5 SHL DUP2 MSTORE PUSH1 0x20 PUSH1 0x4 DUP3 ADD MSTORE PUSH1 0x10 PUSH1 0x24 DUP3 ADD MSTORE PUSH16 0x496E73756666696369656E7420666565 PUSH1 0x80 SHL PUSH1 0x44 DUP3 ADD MSTORE PUSH1 0x64 ADD PUSH2 0x373 JUMP JUMPDEST PUSH2 0x63E DUP9 DUP4 DUP7 DUP7 DUP1 DUP1 PUSH1 0x1F ADD PUSH1 0x20 DUP1 SWAP2 DIV MUL PUSH1 0x20 ADD PUSH1 0x40 MLOAD SWAP1 DUP2 ADD PUSH1 0x40 MSTORE DUP1 SWAP4 SWAP3 SWAP2 SWAP1 DUP2 DUP2 MSTORE PUSH1 0x20 ADD DUP4 DUP4 DUP1 DUP3 DUP5 CALLDATACOPY PUSH1 0x0 SWAP3 ADD DUP3 SWAP1 MSTORE POP PUSH1 0x40 DUP1 MLOAD DUP1 DUP3 ADD SWAP1 SWAP2 MSTORE CALLVALUE DUP2 MSTORE PUSH1 0x20 DUP2 ADD SWAP2 SWAP1 SWAP2 MSTORE SWAP3 POP CALLER SWAP2 POP PUSH2 0x9EE SWAP1 POP JUMP JUMPDEST POP CALLER PUSH1 0x1 PUSH1 0x1 PUSH1 0xA0 SHL SUB AND DUP9 PUSH4 0xFFFFFFFF AND PUSH32 0x1D5EDBFA34A5048259C7762DD64A3221054D2FB1F2F2CCB0421674C86AED0BF3 DUP10 PUSH1 0x40 MLOAD PUSH2 0x67F SWAP2 SWAP1 PUSH2 0x1234 JUMP JUMPDEST PUSH1 0x40 MLOAD DUP1 SWAP2 SUB SWAP1 LOG3 POP POP PUSH2 0x693 PUSH1 0x1 PUSH1 0x2 SSTORE JUMP JUMPDEST POP POP POP POP POP POP JUMP JUMPDEST PUSH2 0x6A3 PUSH2 0x7D7 JUMP JUMPDEST PUSH1 0x40 MLOAD PUSH4 0xCA5EB5E1 PUSH1 0xE0 SHL DUP2 MSTORE PUSH1 0x1 PUSH1 0x1 PUSH1 0xA0 SHL SUB DUP3 DUP2 AND PUSH1 0x4 DUP4 ADD MSTORE PUSH32 0x0 AND SWAP1 PUSH4 0xCA5EB5E1 SWAP1 PUSH1 0x24 ADD PUSH1 0x0 PUSH1 0x40 MLOAD DUP1 DUP4 SUB DUP2 PUSH1 0x0 DUP8 DUP1 EXTCODESIZE ISZERO DUP1 ISZERO PUSH2 0x706 JUMPI PUSH1 0x0 DUP1 REVERT JUMPDEST POP GAS CALL ISZERO DUP1 ISZERO PUSH2 0x71A JUMPI RETURNDATASIZE PUSH1 0x0 DUP1 RETURNDATACOPY RETURNDATASIZE PUSH1 0x0 REVERT JUMPDEST POP POP POP POP POP JUMP JUMPDEST PUSH2 0x729 PUSH2 0x7D7 JUMP JUMPDEST PUSH1 0x1 PUSH1 0x1 PUSH1 0xA0 SHL SUB DUP2 AND PUSH2 0x753 JUMPI PUSH1 0x40 MLOAD PUSH4 0x1E4FBDF7 PUSH1 0xE0 SHL DUP2 MSTORE PUSH1 0x0 PUSH1 0x4 DUP3 ADD MSTORE PUSH1 0x24 ADD PUSH2 0x373 JUMP JUMPDEST PUSH2 0x75C DUP2 PUSH2 0x93A JUMP JUMPDEST POP JUMP JUMPDEST PUSH1 0x0 PUSH1 0x20 DUP3 ADD DUP1 CALLDATALOAD SWAP1 PUSH1 0x1 SWAP1 DUP4 SWAP1 PUSH2 0x777 SWAP1 DUP7 PUSH2 0x10F9 JUMP JUMPDEST PUSH4 0xFFFFFFFF AND DUP2 MSTORE PUSH1 0x20 DUP2 ADD SWAP2 SWAP1 SWAP2 MSTORE PUSH1 0x40 ADD PUSH1 0x0 KECCAK256 SLOAD EQ SWAP3 SWAP2 POP POP JUMP JUMPDEST PUSH4 0xFFFFFFFF DUP2 AND PUSH1 0x0 SWAP1 DUP2 MSTORE PUSH1 0x1 PUSH1 0x20 MSTORE PUSH1 0x40 DUP2 KECCAK256 SLOAD DUP1 PUSH2 0x7D1 JUMPI PUSH1 0x40 MLOAD PUSH4 0xF6FF4FB7 PUSH1 0xE0 SHL DUP2 MSTORE PUSH4 0xFFFFFFFF DUP5 AND PUSH1 0x4 DUP3 ADD MSTORE PUSH1 0x24 ADD PUSH2 0x373 JUMP JUMPDEST SWAP3 SWAP2 POP POP JUMP JUMPDEST PUSH1 0x0 SLOAD PUSH1 0x1 PUSH1 0x1 PUSH1 0xA0 SHL SUB AND CALLER EQ PUSH2 0x48B JUMPI PUSH1 0x40 MLOAD PUSH4 0x118CDAA7 PUSH1 0xE0 SHL DUP2 MSTORE CALLER PUSH1 0x4 DUP3 ADD MSTORE PUSH1 0x24 ADD PUSH2 0x373 JUMP JUMPDEST PUSH4 0xFFFFFFFF DUP3 AND PUSH1 0x0 DUP2 DUP2 MSTORE PUSH1 0x1 PUSH1 0x20 SWAP1 DUP2 MSTORE PUSH1 0x40 SWAP2 DUP3 SWAP1 KECCAK256 DUP5 SWAP1 SSTORE DUP2 MLOAD SWAP3 DUP4 MSTORE DUP3 ADD DUP4 SWAP1 MSTORE PUSH32 0x238399D427B947898EDB290F5FF0F9109849B1C3BA196A42E35F00C50A54B98B SWAP2 ADD PUSH1 0x40 MLOAD DUP1 SWAP2 SUB SWAP1 LOG1 POP POP JUMP JUMPDEST PUSH1 0x40 DUP1 MLOAD DUP1 DUP3 ADD SWAP1 SWAP2 MSTORE PUSH1 0x0 DUP1 DUP3 MSTORE PUSH1 0x20 DUP3 ADD MSTORE PUSH32 0x0 PUSH1 0x1 PUSH1 0x1 PUSH1 0xA0 SHL SUB AND PUSH4 0xDDC28C58 PUSH1 0x40 MLOAD DUP1 PUSH1 0xA0 ADD PUSH1 0x40 MSTORE DUP1 DUP9 PUSH4 0xFFFFFFFF AND DUP2 MSTORE PUSH1 0x20 ADD PUSH2 0x8BC DUP10 PUSH2 0x795 JUMP JUMPDEST DUP2 MSTORE PUSH1 0x20 ADD DUP8 DUP2 MSTORE PUSH1 0x20 ADD DUP7 DUP2 MSTORE PUSH1 0x20 ADD DUP6 ISZERO ISZERO DUP2 MSTORE POP ADDRESS PUSH1 0x40 MLOAD DUP4 PUSH4 0xFFFFFFFF AND PUSH1 0xE0 SHL DUP2 MSTORE PUSH1 0x4 ADD PUSH2 0x8F1 SWAP3 SWAP2 SWAP1 PUSH2 0x1247 JUMP JUMPDEST PUSH1 0x40 DUP1 MLOAD DUP1 DUP4 SUB DUP2 DUP7 GAS STATICCALL ISZERO DUP1 ISZERO PUSH2 0x90D JUMPI RETURNDATASIZE PUSH1 0x0 DUP1 RETURNDATACOPY RETURNDATASIZE PUSH1 0x0 REVERT JUMPDEST POP POP POP POP PUSH1 0x40 MLOAD RETURNDATASIZE PUSH1 0x1F NOT PUSH1 0x1F DUP3 ADD AND DUP3 ADD DUP1 PUSH1 0x40 MSTORE POP DUP2 ADD SWAP1 PUSH2 0x931 SWAP2 SWAP1 PUSH2 0x130F JUMP JUMPDEST SWAP6 SWAP5 POP POP POP POP POP JUMP JUMPDEST PUSH1 0x0 DUP1 SLOAD PUSH1 0x1 PUSH1 0x1 PUSH1 0xA0 SHL SUB DUP4 DUP2 AND PUSH20 0xFFFFFFFFFFFFFFFFFFFFFFFFFFFFFFFFFFFFFFFF NOT DUP4 AND DUP2 OR DUP5 SSTORE PUSH1 0x40 MLOAD SWAP2 SWAP1 SWAP3 AND SWAP3 DUP4 SWAP2 PUSH32 0x8BE0079C531659141344CD1FD0A4F28419497F9722A3DAAFE3B4186F6B6457E0 SWAP2 SWAP1 LOG3 POP POP JUMP JUMPDEST PUSH1 0x2 DUP1 SLOAD SUB PUSH2 0x9E8 JUMPI PUSH1 0x40 MLOAD PUSH3 0x461BCD PUSH1 0xE5 SHL DUP2 MSTORE PUSH1 0x20 PUSH1 0x4 DUP3 ADD MSTORE PUSH1 0x1F PUSH1 0x24 DUP3 ADD MSTORE PUSH32 0x5265656E7472616E637947756172643A207265656E7472616E742063616C6C00 PUSH1 0x44 DUP3 ADD MSTORE PUSH1 0x64 ADD PUSH2 0x373 JUMP JUMPDEST PUSH1 0x2 DUP1 SSTORE JUMP JUMPDEST PUSH2 0x9F6 PUSH2 0xCCA JUMP JUMPDEST PUSH1 0x0 PUSH2 0xA05 DUP5 PUSH1 0x0 ADD MLOAD PUSH2 0xAF9 JUMP JUMPDEST PUSH1 0x20 DUP6 ADD MLOAD SWAP1 SWAP2 POP ISZERO PUSH2 0xA1F JUMPI PUSH2 0xA1F DUP5 PUSH1 0x20 ADD MLOAD PUSH2 0xB21 JUMP JUMPDEST PUSH32 0x0 PUSH1 0x1 PUSH1 0x1 PUSH1 0xA0 SHL SUB AND PUSH4 0x2637A450 DUP3 PUSH1 0x40 MLOAD DUP1 PUSH1 0xA0 ADD PUSH1 0x40 MSTORE DUP1 DUP12 PUSH4 0xFFFFFFFF AND DUP2 MSTORE PUSH1 0x20 ADD PUSH2 0xA6F DUP13 PUSH2 0x795 JUMP JUMPDEST DUP2 MSTORE PUSH1 0x20 ADD DUP11 DUP2 MSTORE PUSH1 0x20 ADD DUP10 DUP2 MSTORE PUSH1 0x20 ADD PUSH1 0x0 DUP10 PUSH1 0x20 ADD MLOAD GT ISZERO ISZERO DUP2 MSTORE POP DUP7 PUSH1 0x40 MLOAD DUP5 PUSH4 0xFFFFFFFF AND PUSH1 0xE0 SHL DUP2 MSTORE PUSH1 0x4 ADD PUSH2 0xAAB SWAP3 SWAP2 SWAP1 PUSH2 0x1247 JUMP JUMPDEST PUSH1 0x80 PUSH1 0x40 MLOAD DUP1 DUP4 SUB DUP2 DUP6 DUP9 GAS CALL ISZERO DUP1 ISZERO PUSH2 0xAC9 JUMPI RETURNDATASIZE PUSH1 0x0 DUP1 RETURNDATACOPY RETURNDATASIZE PUSH1 0x0 REVERT JUMPDEST POP POP POP POP POP PUSH1 0x40 MLOAD RETURNDATASIZE PUSH1 0x1F NOT PUSH1 0x1F DUP3 ADD AND DUP3 ADD DUP1 PUSH1 0x40 MSTORE POP DUP2 ADD SWAP1 PUSH2 0xAEE SWAP2 SWAP1 PUSH2 0x132B JUMP JUMPDEST SWAP8 SWAP7 POP POP POP POP POP POP POP JUMP JUMPDEST PUSH1 0x0 DUP2 CALLVALUE EQ PUSH2 0xB1D JUMPI PUSH1 0x40 MLOAD PUSH4 0x4FB8209 PUSH1 0xE5 SHL DUP2 MSTORE CALLVALUE PUSH1 0x4 DUP3 ADD MSTORE PUSH1 0x24 ADD PUSH2 0x373 JUMP JUMPDEST POP SWAP1 JUMP JUMPDEST PUSH1 0x0 PUSH32 0x0 PUSH1 0x1 PUSH1 0x1 PUSH1 0xA0 SHL SUB AND PUSH4 0xE4FE1D94 PUSH1 0x40 MLOAD DUP2 PUSH4 0xFFFFFFFF AND PUSH1 0xE0 SHL DUP2 MSTORE PUSH1 0x4 ADD PUSH1 0x20 PUSH1 0x40 MLOAD DUP1 DUP4 SUB DUP2 DUP7 GAS STATICCALL ISZERO DUP1 ISZERO PUSH2 0xB81 JUMPI RETURNDATASIZE PUSH1 0x0 DUP1 RETURNDATACOPY RETURNDATASIZE PUSH1 0x0 REVERT JUMPDEST POP POP POP POP PUSH1 0x40 MLOAD RETURNDATASIZE PUSH1 0x1F NOT PUSH1 0x1F DUP3 ADD AND DUP3 ADD DUP1 PUSH1 0x40 MSTORE POP DUP2 ADD SWAP1 PUSH2 0xBA5 SWAP2 SWAP1 PUSH2 0x13A2 JUMP JUMPDEST SWAP1 POP PUSH1 0x1 PUSH1 0x1 PUSH1 0xA0 SHL SUB DUP2 AND PUSH2 0xBCE JUMPI PUSH1 0x40 MLOAD PUSH4 0x29B99A95 PUSH1 0xE1 SHL DUP2 MSTORE PUSH1 0x4 ADD PUSH1 0x40 MLOAD DUP1 SWAP2 SUB SWAP1 REVERT JUMPDEST PUSH1 0x40 DUP1 MLOAD CALLER PUSH1 0x24 DUP3 ADD DUP2 SWAP1 MSTORE PUSH32 0x0 PUSH1 0x1 PUSH1 0x1 PUSH1 0xA0 SHL SUB DUP2 DUP2 AND PUSH1 0x44 DUP6 ADD MSTORE PUSH1 0x64 DUP1 DUP6 ADD DUP9 SWAP1 MSTORE DUP6 MLOAD DUP1 DUP7 SUB SWAP1 SWAP2 ADD DUP2 MSTORE PUSH1 0x84 SWAP1 SWAP5 ADD SWAP1 SWAP5 MSTORE PUSH1 0x20 DUP4 ADD DUP1 MLOAD PUSH1 0x1 PUSH1 0x1 PUSH1 0xE0 SHL SUB AND PUSH4 0x23B872DD PUSH1 0xE0 SHL OR SWAP1 MSTORE PUSH2 0x3EF SWAP4 DUP6 AND SWAP3 DUP7 SWAP1 PUSH2 0xC53 SWAP1 DUP6 SWAP1 PUSH2 0xC59 JUMP JUMPDEST POP POP POP POP JUMP JUMPDEST PUSH1 0x0 DUP1 PUSH1 0x20 PUSH1 0x0 DUP5 MLOAD PUSH1 0x20 DUP7 ADD PUSH1 0x0 DUP9 GAS CALL DUP1 PUSH2 0xC7C JUMPI PUSH1 0x40 MLOAD RETURNDATASIZE PUSH1 0x0 DUP3 RETURNDATACOPY RETURNDATASIZE DUP2 REVERT JUMPDEST POP POP PUSH1 0x0 MLOAD RETURNDATASIZE SWAP2 POP DUP2 ISZERO PUSH2 0xC94 JUMPI DUP1 PUSH1 0x1 EQ ISZERO PUSH2 0xCA1 JUMP JUMPDEST PUSH1 0x1 PUSH1 0x1 PUSH1 0xA0 SHL SUB DUP5 AND EXTCODESIZE ISZERO JUMPDEST ISZERO PUSH2 0xC53 JUMPI PUSH1 0x40 MLOAD PUSH4 0x5274AFE7 PUSH1 0xE0 SHL DUP2 MSTORE PUSH1 0x1 PUSH1 0x1 PUSH1 0xA0 SHL SUB DUP6 AND PUSH1 0x4 DUP3 ADD MSTORE PUSH1 0x24 ADD PUSH2 0x373 JUMP JUMPDEST PUSH1 0x40 MLOAD DUP1 PUSH1 0x60 ADD PUSH1 0x40 MSTORE DUP1 PUSH1 0x0 DUP1 NOT AND DUP2 MSTORE PUSH1 0x20 ADD PUSH1 0x0 PUSH8 0xFFFFFFFFFFFFFFFF AND DUP2 MSTORE PUSH1 0x20 ADD PUSH2 0xD0D PUSH1 0x40 MLOAD DUP1 PUSH1 0x40 ADD PUSH1 0x40 MSTORE DUP1 PUSH1 0x0 DUP2 MSTORE PUSH1 0x20 ADD PUSH1 0x0 DUP2 MSTORE POP SWAP1 JUMP JUMPDEST SWAP1 MSTORE SWAP1 JUMP JUMPDEST PUSH1 0x0 PUSH1 0x60 DUP3 DUP5 SUB SLT ISZERO PUSH2 0xD24 JUMPI PUSH1 0x0 DUP1 REVERT JUMPDEST POP SWAP2 SWAP1 POP JUMP JUMPDEST PUSH1 0x0 DUP1 DUP4 PUSH1 0x1F DUP5 ADD SLT PUSH2 0xD3C JUMPI PUSH1 0x0 DUP1 REVERT JUMPDEST POP DUP2 CALLDATALOAD PUSH8 0xFFFFFFFFFFFFFFFF DUP2 GT ISZERO PUSH2 0xD54 JUMPI PUSH1 0x0 DUP1 REVERT JUMPDEST PUSH1 0x20 DUP4 ADD SWAP2 POP DUP4 PUSH1 0x20 DUP3 DUP6 ADD ADD GT ISZERO PUSH2 0xD6C JUMPI PUSH1 0x0 DUP1 REVERT JUMPDEST SWAP3 POP SWAP3 SWAP1 POP JUMP JUMPDEST PUSH1 0x1 PUSH1 0x1 PUSH1 0xA0 SHL SUB DUP2 AND DUP2 EQ PUSH2 0x75C JUMPI PUSH1 0x0 DUP1 REVERT JUMPDEST PUSH1 0x0 DUP1 PUSH1 0x0 DUP1 PUSH1 0x0 DUP1 PUSH1 0x0 PUSH1 0xE0 DUP9 DUP11 SUB SLT ISZERO PUSH2 0xDA3 JUMPI PUSH1 0x0 DUP1 REVERT JUMPDEST PUSH2 0xDAD DUP10 DUP10 PUSH2 0xD12 JUMP JUMPDEST SWAP7 POP PUSH1 0x60 DUP9 ADD CALLDATALOAD SWAP6 POP PUSH1 0x80 DUP9 ADD CALLDATALOAD PUSH8 0xFFFFFFFFFFFFFFFF DUP2 GT ISZERO PUSH2 0xDD0 JUMPI PUSH1 0x0 DUP1 REVERT JUMPDEST PUSH2 0xDDC DUP11 DUP3 DUP12 ADD PUSH2 0xD2A JUMP JUMPDEST SWAP1 SWAP7 POP SWAP5 POP POP PUSH1 0xA0 DUP9 ADD CALLDATALOAD PUSH2 0xDF0 DUP2 PUSH2 0xD73 JUMP JUMPDEST SWAP3 POP PUSH1 0xC0 DUP9 ADD CALLDATALOAD PUSH8 0xFFFFFFFFFFFFFFFF DUP2 GT ISZERO PUSH2 0xE0C JUMPI PUSH1 0x0 DUP1 REVERT JUMPDEST PUSH2 0xE18 DUP11 DUP3 DUP12 ADD PUSH2 0xD2A JUMP JUMPDEST SWAP9 SWAP12 SWAP8 SWAP11 POP SWAP6 SWAP9 POP SWAP4 SWAP7 SWAP3 SWAP6 SWAP3 SWAP4 POP POP POP JUMP JUMPDEST DUP1 CALLDATALOAD PUSH4 0xFFFFFFFF DUP2 AND DUP2 EQ PUSH2 0xE3F JUMPI PUSH1 0x0 DUP1 REVERT JUMPDEST SWAP2 SWAP1 POP JUMP JUMPDEST PUSH1 0x0 DUP1 PUSH1 0x40 DUP4 DUP6 SUB SLT ISZERO PUSH2 0xE57 JUMPI PUSH1 0x0 DUP1 REVERT JUMPDEST PUSH2 0xE60 DUP4 PUSH2 0xE2B JUMP JUMPDEST SWAP5 PUSH1 0x20 SWAP4 SWAP1 SWAP4 ADD CALLDATALOAD SWAP4 POP POP POP JUMP JUMPDEST PUSH4 0x4E487B71 PUSH1 0xE0 SHL PUSH1 0x0 MSTORE PUSH1 0x41 PUSH1 0x4 MSTORE PUSH1 0x24 PUSH1 0x0 REVERT JUMPDEST PUSH1 0x40 MLOAD PUSH1 0x1F DUP3 ADD PUSH1 0x1F NOT AND DUP2 ADD PUSH8 0xFFFFFFFFFFFFFFFF DUP2 GT DUP3 DUP3 LT OR ISZERO PUSH2 0xEAD JUMPI PUSH2 0xEAD PUSH2 0xE6E JUMP JUMPDEST PUSH1 0x40 MSTORE SWAP2 SWAP1 POP JUMP JUMPDEST PUSH1 0x0 DUP3 PUSH1 0x1F DUP4 ADD SLT PUSH2 0xEC6 JUMPI PUSH1 0x0 DUP1 REVERT JUMPDEST DUP2 CALLDATALOAD PUSH8 0xFFFFFFFFFFFFFFFF DUP2 GT ISZERO PUSH2 0xEE0 JUMPI PUSH2 0xEE0 PUSH2 0xE6E JUMP JUMPDEST PUSH2 0xEF3 PUSH1 0x1F DUP3 ADD PUSH1 0x1F NOT AND PUSH1 0x20 ADD PUSH2 0xE84 JUMP JUMPDEST DUP2 DUP2 MSTORE DUP5 PUSH1 0x20 DUP4 DUP7 ADD ADD GT ISZERO PUSH2 0xF08 JUMPI PUSH1 0x0 DUP1 REVERT JUMPDEST DUP2 PUSH1 0x20 DUP6 ADD PUSH1 0x20 DUP4 ADD CALLDATACOPY PUSH1 0x0 SWAP2 DUP2 ADD PUSH1 0x20 ADD SWAP2 SWAP1 SWAP2 MSTORE SWAP4 SWAP3 POP POP POP JUMP JUMPDEST PUSH1 0x0 DUP1 PUSH1 0x0 DUP1 PUSH1 0x0 DUP1 PUSH1 0xA0 DUP8 DUP10 SUB SLT ISZERO PUSH2 0xF3E JUMPI PUSH1 0x0 DUP1 REVERT JUMPDEST PUSH2 0xF47 DUP8 PUSH2 0xE2B JUMP JUMPDEST SWAP6 POP PUSH1 0x20 DUP8 ADD CALLDATALOAD PUSH8 0xFFFFFFFFFFFFFFFF DUP2 GT ISZERO PUSH2 0xF63 JUMPI PUSH1 0x0 DUP1 REVERT JUMPDEST PUSH2 0xF6F DUP10 DUP3 DUP11 ADD PUSH2 0xEB5 JUMP JUMPDEST SWAP6 POP POP PUSH1 0x40 DUP8 ADD CALLDATALOAD PUSH8 0xFFFFFFFFFFFFFFFF DUP2 GT ISZERO PUSH2 0xF8C JUMPI PUSH1 0x0 DUP1 REVERT JUMPDEST DUP8 ADD PUSH1 0x1F DUP2 ADD DUP10 SGT PUSH2 0xF9D JUMPI PUSH1 0x0 DUP1 REVERT JUMPDEST DUP1 CALLDATALOAD PUSH8 0xFFFFFFFFFFFFFFFF DUP2 GT ISZERO PUSH2 0xFB7 JUMPI PUSH2 0xFB7 PUSH2 0xE6E JUMP JUMPDEST DUP1 PUSH1 0x5 SHL PUSH2 0xFC7 PUSH1 0x20 DUP3 ADD PUSH2 0xE84 JUMP JUMPDEST SWAP2 DUP3 MSTORE PUSH1 0x20 DUP2 DUP5 ADD DUP2 ADD SWAP3 SWAP1 DUP2 ADD SWAP1 DUP13 DUP5 GT ISZERO PUSH2 0xFE3 JUMPI PUSH1 0x0 DUP1 REVERT JUMPDEST PUSH1 0x20 DUP6 ADD SWAP3 POP JUMPDEST DUP4 DUP4 LT ISZERO PUSH2 0x102A JUMPI DUP3 CALLDATALOAD PUSH8 0xFFFFFFFFFFFFFFFF DUP2 GT ISZERO PUSH2 0x1009 JUMPI PUSH1 0x0 DUP1 REVERT JUMPDEST PUSH2 0x1018 DUP15 PUSH1 0x20 DUP4 DUP10 ADD ADD PUSH2 0xEB5 JUMP JUMPDEST DUP4 MSTORE POP PUSH1 0x20 SWAP3 DUP4 ADD SWAP3 SWAP1 SWAP2 ADD SWAP1 PUSH2 0xFEA JUMP JUMPDEST SWAP8 POP POP POP POP PUSH1 0x60 DUP9 ADD CALLDATALOAD SWAP1 POP PUSH8 0xFFFFFFFFFFFFFFFF DUP2 GT ISZERO PUSH2 0x104B JUMPI PUSH1 0x0 DUP1 REVERT JUMPDEST PUSH2 0x1057 DUP10 DUP3 DUP11 ADD PUSH2 0xEB5 JUMP JUMPDEST SWAP4 POP POP PUSH1 0x80 DUP8 ADD CALLDATALOAD PUSH8 0xFFFFFFFFFFFFFFFF DUP2 GT ISZERO PUSH2 0x1074 JUMPI PUSH1 0x0 DUP1 REVERT JUMPDEST PUSH2 0x1080 DUP10 DUP3 DUP11 ADD PUSH2 0xD2A JUMP JUMPDEST SWAP8 SWAP11 SWAP7 SWAP10 POP SWAP5 SWAP8 POP SWAP3 SWAP6 SWAP4 SWAP5 SWAP3 POP POP POP JUMP JUMPDEST PUSH1 0x0 DUP1 PUSH1 0x0 DUP1 PUSH1 0xA0 DUP6 DUP8 SUB SLT ISZERO PUSH2 0x10A8 JUMPI PUSH1 0x0 DUP1 REVERT JUMPDEST PUSH2 0x10B2 DUP7 DUP7 PUSH2 0xD12 JUMP JUMPDEST SWAP4 POP PUSH1 0x60 DUP6 ADD CALLDATALOAD PUSH8 0xFFFFFFFFFFFFFFFF DUP2 GT ISZERO PUSH2 0x10CE JUMPI PUSH1 0x0 DUP1 REVERT JUMPDEST PUSH2 0x10DA DUP8 DUP3 DUP9 ADD PUSH2 0xD2A JUMP JUMPDEST SWAP1 SWAP5 POP SWAP3 POP POP PUSH1 0x80 DUP6 ADD CALLDATALOAD PUSH2 0x10EE DUP2 PUSH2 0xD73 JUMP JUMPDEST SWAP4 SWAP7 SWAP3 SWAP6 POP SWAP1 SWAP4 POP POP JUMP JUMPDEST PUSH1 0x0 PUSH1 0x20 DUP3 DUP5 SUB SLT ISZERO PUSH2 0x110B JUMPI PUSH1 0x0 DUP1 REVERT JUMPDEST PUSH2 0x1114 DUP3 PUSH2 0xE2B JUMP JUMPDEST SWAP4 SWAP3 POP POP POP JUMP JUMPDEST PUSH1 0x0 PUSH1 0x20 DUP3 DUP5 SUB SLT ISZERO PUSH2 0x112D JUMPI PUSH1 0x0 DUP1 REVERT JUMPDEST DUP2 CALLDATALOAD PUSH2 0x1114 DUP2 PUSH2 0xD73 JUMP JUMPDEST PUSH1 0x0 PUSH1 0x60 DUP3 DUP5 SUB SLT ISZERO PUSH2 0x114A JUMPI PUSH1 0x0 DUP1 REVERT JUMPDEST PUSH2 0x1114 DUP4 DUP4 PUSH2 0xD12 JUMP JUMPDEST PUSH1 0x0 DUP2 MLOAD DUP1 DUP5 MSTORE PUSH1 0x0 JUMPDEST DUP2 DUP2 LT ISZERO PUSH2 0x117A JUMPI PUSH1 0x20 DUP2 DUP6 ADD DUP2 ADD MLOAD DUP7 DUP4 ADD DUP3 ADD MSTORE ADD PUSH2 0x115E JUMP JUMPDEST POP PUSH1 0x0 PUSH1 0x20 DUP3 DUP7 ADD ADD MSTORE PUSH1 0x20 PUSH1 0x1F NOT PUSH1 0x1F DUP4 ADD AND DUP6 ADD ADD SWAP2 POP POP SWAP3 SWAP2 POP POP JUMP JUMPDEST PUSH1 0x1 PUSH1 0x1 PUSH1 0xA0 SHL SUB DUP6 AND DUP2 MSTORE PUSH1 0x80 PUSH1 0x20 DUP3 ADD MSTORE PUSH1 0x0 PUSH2 0x11BC PUSH1 0x80 DUP4 ADD DUP7 PUSH2 0x1154 JUMP JUMPDEST DUP3 DUP2 SUB PUSH1 0x40 DUP5 ADD MSTORE DUP1 DUP6 MLOAD DUP1 DUP4 MSTORE PUSH1 0x20 DUP4 ADD SWAP2 POP PUSH1 0x20 DUP2 PUSH1 0x5 SHL DUP5 ADD ADD PUSH1 0x20 DUP9 ADD PUSH1 0x0 JUMPDEST DUP4 DUP2 LT ISZERO PUSH2 0x1212 JUMPI PUSH1 0x1F NOT DUP7 DUP5 SUB ADD DUP6 MSTORE PUSH2 0x11FC DUP4 DUP4 MLOAD PUSH2 0x1154 JUMP JUMPDEST PUSH1 0x20 SWAP6 DUP7 ADD SWAP6 SWAP1 SWAP4 POP SWAP2 SWAP1 SWAP2 ADD SWAP1 PUSH1 0x1 ADD PUSH2 0x11E0 JUMP JUMPDEST POP POP DUP6 DUP2 SUB PUSH1 0x60 DUP8 ADD MSTORE PUSH2 0x1226 DUP2 DUP9 PUSH2 0x1154 JUMP JUMPDEST SWAP11 SWAP10 POP POP POP POP POP POP POP POP POP POP JUMP JUMPDEST PUSH1 0x20 DUP2 MSTORE PUSH1 0x0 PUSH2 0x1114 PUSH1 0x20 DUP4 ADD DUP5 PUSH2 0x1154 JUMP JUMPDEST PUSH1 0x40 DUP2 MSTORE PUSH4 0xFFFFFFFF DUP4 MLOAD AND PUSH1 0x40 DUP3 ADD MSTORE PUSH1 0x20 DUP4 ADD MLOAD PUSH1 0x60 DUP3 ADD MSTORE PUSH1 0x0 PUSH1 0x40 DUP5 ADD MLOAD PUSH1 0xA0 PUSH1 0x80 DUP5 ADD MSTORE PUSH2 0x127D PUSH1 0xE0 DUP5 ADD DUP3 PUSH2 0x1154 JUMP JUMPDEST SWAP1 POP PUSH1 0x60 DUP6 ADD MLOAD PUSH1 0x3F NOT DUP5 DUP4 SUB ADD PUSH1 0xA0 DUP6 ADD MSTORE PUSH2 0x129A DUP3 DUP3 PUSH2 0x1154 JUMP JUMPDEST PUSH1 0x80 SWAP7 SWAP1 SWAP7 ADD MLOAD ISZERO ISZERO PUSH1 0xC0 DUP6 ADD MSTORE POP POP POP PUSH1 0x1 PUSH1 0x1 PUSH1 0xA0 SHL SUB SWAP2 SWAP1 SWAP2 AND PUSH1 0x20 SWAP1 SWAP2 ADD MSTORE SWAP1 JUMP JUMPDEST PUSH1 0x0 PUSH1 0x40 DUP3 DUP5 SUB SLT ISZERO PUSH2 0x12D2 JUMPI PUSH1 0x0 DUP1 REVERT JUMPDEST PUSH1 0x40 DUP1 MLOAD SWAP1 DUP2 ADD PUSH8 0xFFFFFFFFFFFFFFFF DUP2 GT DUP3 DUP3 LT OR ISZERO PUSH2 0x12F5 JUMPI PUSH2 0x12F5 PUSH2 0xE6E JUMP JUMPDEST PUSH1 0x40 MSTORE DUP3 MLOAD DUP2 MSTORE PUSH1 0x20 SWAP3 DUP4 ADD MLOAD SWAP3 DUP2 ADD SWAP3 SWAP1 SWAP3 MSTORE POP SWAP2 SWAP1 POP JUMP JUMPDEST PUSH1 0x0 PUSH1 0x40 DUP3 DUP5 SUB SLT ISZERO PUSH2 0x1321 JUMPI PUSH1 0x0 DUP1 REVERT JUMPDEST PUSH2 0x1114 DUP4 DUP4 PUSH2 0x12C0 JUMP JUMPDEST PUSH1 0x0 PUSH1 0x80 DUP3 DUP5 SUB SLT DUP1 ISZERO PUSH2 0x133E JUMPI PUSH1 0x0 DUP1 REVERT JUMPDEST POP PUSH1 0x40 MLOAD PUSH1 0x60 DUP2 ADD PUSH8 0xFFFFFFFFFFFFFFFF DUP2 GT DUP3 DUP3 LT OR ISZERO PUSH2 0x1362 JUMPI PUSH2 0x1362 PUSH2 0xE6E JUMP JUMPDEST PUSH1 0x40 MSTORE DUP3 MLOAD DUP2 MSTORE PUSH1 0x20 DUP4 ADD MLOAD PUSH8 0xFFFFFFFFFFFFFFFF DUP2 AND DUP2 EQ PUSH2 0x1384 JUMPI PUSH1 0x0 DUP1 REVERT JUMPDEST PUSH1 0x20 DUP3 ADD MSTORE PUSH2 0x1396 DUP5 PUSH1 0x40 DUP6 ADD PUSH2 0x12C0 JUMP JUMPDEST PUSH1 0x40 DUP3 ADD MSTORE SWAP4 SWAP3 POP POP POP JUMP JUMPDEST PUSH1 0x0 PUSH1 0x20 DUP3 DUP5 SUB SLT ISZERO PUSH2 0x13B4 JUMPI PUSH1 0x0 DUP1 REVERT JUMPDEST DUP2 MLOAD PUSH2 0x1114 DUP2 PUSH2 0xD73 JUMP INVALID LOG2 PUSH5 0x6970667358 0x22 SLT KECCAK256 0xE4 PUSH31 0xCC10F452D6058BEBD81A8CF0CE0183A479368AB7D2A89B43F318F8280B8364 PUSH20 0x6F6C634300081C00330000000000000000000000 "
				},
				"gasEstimates": {
					"creation": {
						"codeDepositCost": "1021800",
						"executionCost": "infinite",
						"totalCost": "infinite"
					},
					"external": {
						"allowInitializePath((uint32,bytes32,uint64))": "infinite",
						"createUserProfile(uint32,string,string[],string,bytes)": "infinite",
						"endpoint()": "infinite",
						"isComposeMsgSender((uint32,bytes32,uint64),bytes,address)": "740",
						"lzReceive((uint32,bytes32,uint64),bytes32,bytes,address,bytes)": "infinite",
						"nextNonce(uint32,bytes32)": "467",
						"oAppVersion()": "230",
						"owner()": "2398",
						"peers(uint32)": "2529",
						"quoteCreateUserProfile(uint32,string,string[],string,bytes)": "infinite",
						"renounceOwnership()": "infinite",
						"setDelegate(address)": "infinite",
						"setPeer(uint32,bytes32)": "26105",
						"transferOwnership(address)": "infinite"
					},
					"internal": {
						"_lzReceive(struct Origin calldata,bytes32,bytes calldata,address,bytes calldata)": "infinite"
					}
				},
				"methodIdentifiers": {
					"allowInitializePath((uint32,bytes32,uint64))": "ff7bd03d",
					"createUserProfile(uint32,string,string[],string,bytes)": "85920336",
					"endpoint()": "5e280f11",
					"isComposeMsgSender((uint32,bytes32,uint64),bytes,address)": "82413eac",
					"lzReceive((uint32,bytes32,uint64),bytes32,bytes,address,bytes)": "13137d65",
					"nextNonce(uint32,bytes32)": "7d25a05e",
					"oAppVersion()": "17442b70",
					"owner()": "8da5cb5b",
					"peers(uint32)": "bb0b6a53",
					"quoteCreateUserProfile(uint32,string,string[],string,bytes)": "682d54e6",
					"renounceOwnership()": "715018a6",
					"setDelegate(address)": "ca5eb5e1",
					"setPeer(uint32,bytes32)": "3400288b",
					"transferOwnership(address)": "f2fde38b"
				}
			},
			"storageLayout": {
				"storage": [
					{
						"astId": 1327,
						"contract": "bridge samples/LocalOpenworkSender.sol:LocalOpenWorkV2",
						"label": "_owner",
						"offset": 0,
						"slot": "0",
						"type": "t_address"
					},
					{
						"astId": 785,
						"contract": "bridge samples/LocalOpenworkSender.sol:LocalOpenWorkV2",
						"label": "peers",
						"offset": 0,
						"slot": "1",
						"type": "t_mapping(t_uint32,t_bytes32)"
					},
					{
						"astId": 1567,
						"contract": "bridge samples/LocalOpenworkSender.sol:LocalOpenWorkV2",
						"label": "_status",
						"offset": 0,
						"slot": "2",
						"type": "t_uint256"
					}
				],
				"types": {
					"t_address": {
						"encoding": "inplace",
						"label": "address",
						"numberOfBytes": "20"
					},
					"t_bytes32": {
						"encoding": "inplace",
						"label": "bytes32",
						"numberOfBytes": "32"
					},
					"t_mapping(t_uint32,t_bytes32)": {
						"encoding": "mapping",
						"key": "t_uint32",
						"label": "mapping(uint32 => bytes32)",
						"numberOfBytes": "32",
						"value": "t_bytes32"
					},
					"t_uint256": {
						"encoding": "inplace",
						"label": "uint256",
						"numberOfBytes": "32"
					},
					"t_uint32": {
						"encoding": "inplace",
						"label": "uint32",
						"numberOfBytes": "4"
					}
				}
			},
			"userdoc": {
				"kind": "user",
				"methods": {
					"allowInitializePath((uint32,bytes32,uint64))": {
						"notice": "Checks if the path initialization is allowed based on the provided origin."
					},
					"endpoint()": {
						"notice": "Retrieves the LayerZero endpoint associated with the OApp."
					},
					"isComposeMsgSender((uint32,bytes32,uint64),bytes,address)": {
						"notice": "Indicates whether an address is an approved composeMsg sender to the Endpoint."
					},
					"nextNonce(uint32,bytes32)": {
						"notice": "Retrieves the next nonce for a given source endpoint and sender address."
					},
					"oAppVersion()": {
						"notice": "Retrieves the OApp version information."
					},
					"peers(uint32)": {
						"notice": "Retrieves the peer (OApp) associated with a corresponding endpoint."
					},
					"setDelegate(address)": {
						"notice": "Sets the delegate address for the OApp."
					},
					"setPeer(uint32,bytes32)": {
						"notice": "Sets the peer address (OApp instance) for a corresponding endpoint."
					}
				},
				"version": 1
			}
		}
	}
}