{
	"data": {
		"bytecode": {
			"linkReferences": {},
			"object": "60c060405234801561001057600080fd5b506040516129ce3803806129ce83398101604081905261002f9161019e565b83838181806001600160a01b03811661006257604051631e4fbdf760e01b81526000600482015260240160405180910390fd5b61006b81610132565b506001600160a01b03808316608052811661009957604051632d618d8160e21b815260040160405180910390fd5b60805160405163ca5eb5e160e01b81526001600160a01b0383811660048301529091169063ca5eb5e190602401600060405180830381600087803b1580156100e057600080fd5b505af11580156100f4573d6000803e3d6000fd5b505060016002555050506001600160a01b0390941660a05250506003805463ffffffff90921663ffffffff19909216919091179055506101fd915050565b600080546001600160a01b038381166001600160a01b0319831681178455604051919092169283917f8be0079c531659141344cd1fd0a4f28419497f9722a3daafe3b4186f6b6457e09190a35050565b80516001600160a01b038116811461019957600080fd5b919050565b600080600080608085870312156101b457600080fd5b6101bd85610182565b93506101cb60208601610182565b92506101d960408601610182565b9150606085015163ffffffff811681146101f257600080fd5b939692955090935050565b60805160a051612766610268600039600081816105010152818161078001528181610af701528181610fd1015261135301526000818161025a015281816105c401528181611502015281816118940152818161198901528181611adf0152611b9601526127666000f3fe60806040526004361061019a5760003560e01c80638b46e627116100e1578063bcd957931161008a578063e870068711610064578063e8700687146104af578063f2fde38b146104cf578063f897a22b146104ef578063ff7bd03d1461052357600080fd5b8063bcd957931461044f578063ca5eb5e11461046f578063d6d3bb381461048f57600080fd5b80639209cb39116100bb5780639209cb39146103d4578063ad3b1b47146103f4578063bb0b6a531461041457600080fd5b80638b46e627146103685780638da5cb5b1461037b5780638dd2067c1461039957600080fd5b80635e280f11116101435780637d25a05e1161011d5780637d25a05e146102db578063819d9e381461031657806382413eac1461032957600080fd5b80635e280f1114610248578063715018a614610294578063734ff5f3146102a957600080fd5b80633400288b116101745780633400288b146102025780633cf1edac1461022257806348ee7f5d1461023557600080fd5b80630d14c92e146101a657806313137d65146101c857806317442b70146101db57600080fd5b366101a157005b600080fd5b3480156101b257600080fd5b506101c66101c1366004611ce4565b610543565b005b6101c66101d6366004611d7b565b6105c2565b3480156101e757600080fd5b50604080516001815260026020820152015b60405180910390f35b34801561020e57600080fd5b506101c661021d366004611e1c565b61067d565b6101c6610230366004611ee9565b610693565b6101c6610243366004611f8b565b6109b2565b34801561025457600080fd5b5061027c7f000000000000000000000000000000000000000000000000000000000000000081565b6040516001600160a01b0390911681526020016101f9565b3480156102a057600080fd5b506101c6610d2a565b3480156102b557600080fd5b506003546102c69063ffffffff1681565b60405163ffffffff90911681526020016101f9565b3480156102e757600080fd5b506102fe6102f6366004611e1c565b600092915050565b6040516001600160401b0390911681526020016101f9565b6101c6610324366004612021565b610d3e565b34801561033557600080fd5b5061035861034436600461206c565b6001600160a01b0381163014949350505050565b60405190151581526020016101f9565b6101c66103763660046120d2565b610ee0565b34801561038757600080fd5b506000546001600160a01b031661027c565b3480156103a557600080fd5b506103b96103b436600461219e565b611208565b604080518251815260209283015192810192909252016101f9565b3480156103e057600080fd5b506103b96103ef366004611ee9565b611295565b34801561040057600080fd5b506101c661040f366004612211565b611325565b34801561042057600080fd5b5061044161042f366004611ce4565b60016020526000908152604090205481565b6040519081526020016101f9565b34801561045b57600080fd5b506103b961046a366004611f8b565b611445565b34801561047b57600080fd5b506101c661048a36600461222f565b6114db565b34801561049b57600080fd5b506103b96104aa3660046120d2565b61155a565b3480156104bb57600080fd5b506103b96104ca366004612021565b6115ed565b3480156104db57600080fd5b506101c66104ea36600461222f565b6116a6565b3480156104fb57600080fd5b5061027c7f000000000000000000000000000000000000000000000000000000000000000081565b34801561052f57600080fd5b5061035861053e36600461224c565b6116e4565b61054b61171a565b60008163ffffffff16116105a65760405162461bcd60e51b815260206004820152601760248201527f496e76616c69642064657374696e6174696f6e2045494400000000000000000060448201526064015b60405180910390fd5b6003805463ffffffff191663ffffffff92909216919091179055565b7f00000000000000000000000000000000000000000000000000000000000000006001600160a01b0316331461060d576040516391ac5e4f60e01b815233600482015260240161059d565b6020870180359061062790610622908a611ce4565b611747565b14610665576106396020880188611ce4565b60405163309afaf360e21b815263ffffffff90911660048201526020880135602482015260440161059d565b61067487878787878787611789565b50505050505050565b61068561171a565b61068f82826117d2565b5050565b61069b611827565b60008551116106da5760405162461bcd60e51b815260206004820152600b60248201526a536b696c6c20656d70747960a81b604482015260640161059d565b600084511161071e5760405162461bcd60e51b815260206004820152601060248201526f50726f6f66206861736820656d70747960801b604482015260640161059d565b6000831161075e5760405162461bcd60e51b815260206004820152600d60248201526c5553445420666565207a65726f60981b604482015260640161059d565b6040516323b872dd60e01b8152336004820152306024820152604481018490527f00000000000000000000000000000000000000000000000000000000000000006001600160a01b0316906323b872dd906064016020604051808303816000875af11580156107d1573d6000803e3d6000fd5b505050506040513d601f19601f820116820180604052508101906107f59190612276565b6108385760405162461bcd60e51b81526020600482015260146024820152731554d115081d1c985b9cd9995c8819985a5b195960621b604482015260640161059d565b60003386868660405160200161085194939291906122d9565b60408051601f198184030181526003546020601f87018190048102850181019093528584529093506000926108ac9263ffffffff9092169185919088908890819084018382808284376000920182905250925061187e915050565b80519091503410156108f55760405162461bcd60e51b81526020600482015260126024820152714e61746976652066656520746f6f206c6f7760701b604482015260640161059d565b600354604080516020601f87018190048102820181019092528581526109569263ffffffff16918591908890889081908401838280828437600092018290525060408051808201909152348152602081019190915292503391506119569050565b50600354604051339163ffffffff16907f3e4b07ba31c4d6796b7895fe18e7487bcdb46a957f3f6fb31852f8134028ea7f90610997908b908b908b90612353565b60405180910390a350506109ab6001600255565b5050505050565b6109ba611827565b6000855111610a005760405162461bcd60e51b815260206004820152601260248201527144697370757465206861736820656d70747960701b604482015260640161059d565b6000845111610a455760405162461bcd60e51b81526020600482015260116024820152704f7261636c65206e616d6520656d70747960781b604482015260640161059d565b60008311610a855760405162461bcd60e51b815260206004820152600d60248201526c5553445420666565207a65726f60981b604482015260640161059d565b60008611610ad55760405162461bcd60e51b815260206004820152601460248201527f446973707574656420616d6f756e74207a65726f000000000000000000000000604482015260640161059d565b6040516323b872dd60e01b8152336004820152306024820152604481018490527f00000000000000000000000000000000000000000000000000000000000000006001600160a01b0316906323b872dd906064016020604051808303816000875af1158015610b48573d6000803e3d6000fd5b505050506040513d601f19601f82011682018060405250810190610b6c9190612276565b610baf5760405162461bcd60e51b81526020600482015260146024820152731554d115081d1c985b9cd9995c8819985a5b195960621b604482015260640161059d565b6000338888888888604051602001610bcc96959493929190612389565b60408051601f198184030181526003546020601f8701819004810285018101909352858452909350600092610c279263ffffffff9092169185919088908890819084018382808284376000920182905250925061187e915050565b8051909150341015610c705760405162461bcd60e51b81526020600482015260126024820152714e61746976652066656520746f6f206c6f7760701b604482015260640161059d565b600354604080516020601f8701819004810282018101909252858152610cd19263ffffffff16918591908890889081908401838280828437600092018290525060408051808201909152348152602081019190915292503391506119569050565b50600354604051339163ffffffff16907f1dcd71fb8aae58eea5679631d43661566ea0dee46f7435c2a70f5604ff92bb0590610d16908d908d908d908d908d90612403565b60405180910390a350506106746001600255565b610d3261171a565b610d3c6000611a56565b565b610d46611827565b60408051606060208201819052601360808301527218db185a5b511a5cdc1d5d1959105b5bdd5b9d606a1b60a0830152339282019290925290810184905260009060c00160408051601f198184030181526003546020601f8701819004810285018101909352858452909350600092610de59263ffffffff9092169185919088908890819084018382808284376000920182905250925061187e915050565b8051909150341015610e2e5760405162461bcd60e51b81526020600482015260126024820152714e61746976652066656520746f6f206c6f7760701b604482015260640161059d565b600354604080516020601f8701819004810282018101909252858152610e8f9263ffffffff16918591908890889081908401838280828437600092018290525060408051808201909152348152602081019190915292503391506119569050565b50600354604051868152339163ffffffff16907f6541184babe530df37651624302aebdd4dd75d4f40c7d1a32dd38168fd3e50119060200160405180910390a35050610edb6001600255565b505050565b610ee8611827565b6000865111610f2a5760405162461bcd60e51b815260206004820152600e60248201526d5175657374696f6e20656d70747960901b604482015260640161059d565b6000845111610f6f5760405162461bcd60e51b81526020600482015260116024820152704f7261636c65206e616d6520656d70747960781b604482015260640161059d565b60008311610faf5760405162461bcd60e51b815260206004820152600d60248201526c5553445420666565207a65726f60981b604482015260640161059d565b6040516323b872dd60e01b8152336004820152306024820152604481018490527f00000000000000000000000000000000000000000000000000000000000000006001600160a01b0316906323b872dd906064016020604051808303816000875af1158015611022573d6000803e3d6000fd5b505050506040513d601f19601f820116820180604052508101906110469190612276565b6110895760405162461bcd60e51b81526020600482015260146024820152731554d115081d1c985b9cd9995c8819985a5b195960621b604482015260640161059d565b600033878787876040516020016110a4959493929190612447565b60408051601f198184030181526003546020601f87018190048102850181019093528584529093506000926110ff9263ffffffff9092169185919088908890819084018382808284376000920182905250925061187e915050565b80519091503410156111485760405162461bcd60e51b81526020600482015260126024820152714e61746976652066656520746f6f206c6f7760701b604482015260640161059d565b600354604080516020601f87018190048102820181019092528581526111a99263ffffffff16918591908890889081908401838280828437600092018290525060408051808201909152348152602081019190915292503391506119569050565b50600354604051339163ffffffff16907fd55884cbcc73464244e119bb688bc3caf4fc0dcfbd16467d8e3bc4d112bc8ae0906111ec908c908c908c908c906124c4565b60405180910390a350506112006001600255565b505050505050565b604080518082019091526000808252602082015260003386866040516020016112339392919061250f565b60408051601f198184030181526003546020601f880181900481028501810190935286845290935061128b9263ffffffff9091169184919088908890819084018382808284376000920182905250925061187e915050565b9695505050505050565b60408051808201909152600080825260208201526000338787876040516020016112c294939291906122d9565b60408051601f198184030181526003546020601f880181900481028501810190935286845290935061131a9263ffffffff9091169184919088908890819084018382808284376000920182905250925061187e915050565b979650505050505050565b61132d61171a565b60405163a9059cbb60e01b81526001600160a01b038381166004830152602482018390527f0000000000000000000000000000000000000000000000000000000000000000169063a9059cbb906044016020604051808303816000875af115801561139c573d6000803e3d6000fd5b505050506040513d601f19601f820116820180604052508101906113c09190612276565b6113fe5760405162461bcd60e51b815260206004820152600f60248201526e15da5d1a191c985dc819985a5b1959608a1b604482015260640161059d565b816001600160a01b03167fc0819c13be868895eb93e40eaceb96de976442fa1d404e5c55f14bb65a8c489a8260405161143991815260200190565b60405180910390a25050565b6040805180820190915260008082526020820152600033898989898960405160200161147696959493929190612389565b60408051601f198184030181526003546020601f88018190048102850181019093528684529093506114ce9263ffffffff9091169184919088908890819084018382808284376000920182905250925061187e915050565b9998505050505050505050565b6114e361171a565b60405163ca5eb5e160e01b81526001600160a01b0382811660048301527f0000000000000000000000000000000000000000000000000000000000000000169063ca5eb5e190602401600060405180830381600087803b15801561154657600080fd5b505af11580156109ab573d6000803e3d6000fd5b604080518082019091526000808252602082015260003388888888604051602001611589959493929190612447565b60408051601f198184030181526003546020601f88018190048102850181019093528684529093506115e19263ffffffff9091169184919088908890819084018382808284376000920182905250925061187e915050565b98975050505050505050565b604080518082019091526000808252602082015260408051606060208201819052601360808301527218db185a5b511a5cdc1d5d1959105b5bdd5b9d606a1b60a0830152339282019290925290810185905260009060c00160408051601f198184030181526003546020601f880181900481028501810190935286845290935061169d9263ffffffff9091169184919088908890819084018382808284376000920182905250925061187e915050565b95945050505050565b6116ae61171a565b6001600160a01b0381166116d857604051631e4fbdf760e01b81526000600482015260240161059d565b6116e181611a56565b50565b60006020820180359060019083906116fc9086611ce4565b63ffffffff1681526020810191909152604001600020541492915050565b6000546001600160a01b03163314610d3c5760405163118cdaa760e01b815233600482015260240161059d565b63ffffffff8116600090815260016020526040812054806117835760405163f6ff4fb760e01b815263ffffffff8416600482015260240161059d565b92915050565b600080808061179a888a018a61255b565b505060408051808201909152600f81526e191a5cdc1d5d1954995cdbdb1d9959608a1b60209091015250505050505050505050505050565b63ffffffff8216600081815260016020908152604091829020849055815192835282018390527f238399d427b947898edb290f5ff0f9109849b1c3ba196a42e35f00c50a54b98b910160405180910390a15050565b60028054036118785760405162461bcd60e51b815260206004820152601f60248201527f5265656e7472616e637947756172643a207265656e7472616e742063616c6c00604482015260640161059d565b60028055565b60408051808201909152600080825260208201527f00000000000000000000000000000000000000000000000000000000000000006001600160a01b031663ddc28c586040518060a001604052808863ffffffff1681526020016118e189611747565b8152602001878152602001868152602001851515815250306040518363ffffffff1660e01b81526004016119169291906125bb565b6040805180830381865afa158015611932573d6000803e3d6000fd5b505050506040513d601f19601f8201168201806040525081019061169d9190612682565b61195e611c84565b600061196d8460000151611ab3565b602085015190915015611987576119878460200151611adb565b7f00000000000000000000000000000000000000000000000000000000000000006001600160a01b0316632637a450826040518060a001604052808b63ffffffff1681526020016119d78c611747565b81526020018a815260200189815260200160008960200151111515815250866040518463ffffffff1660e01b8152600401611a139291906125bb565b60806040518083038185885af1158015611a31573d6000803e3d6000fd5b50505050506040513d601f19601f8201168201806040525081019061131a919061269e565b600080546001600160a01b0383811673ffffffffffffffffffffffffffffffffffffffff19831681178455604051919092169283917f8be0079c531659141344cd1fd0a4f28419497f9722a3daafe3b4186f6b6457e09190a35050565b6000813414611ad7576040516304fb820960e51b815234600482015260240161059d565b5090565b60007f00000000000000000000000000000000000000000000000000000000000000006001600160a01b031663e4fe1d946040518163ffffffff1660e01b8152600401602060405180830381865afa158015611b3b573d6000803e3d6000fd5b505050506040513d601f19601f82011682018060405250810190611b5f9190612713565b90506001600160a01b038116611b88576040516329b99a9560e11b815260040160405180910390fd5b6040805133602482018190527f00000000000000000000000000000000000000000000000000000000000000006001600160a01b03818116604485015260648085018890528551808603909101815260849094019094526020830180516001600160e01b03166323b872dd60e01b17905261068f938516928690611c0d908590611c13565b50505050565b600080602060008451602086016000885af180611c36576040513d6000823e3d81fd5b50506000513d91508115611c4e578060011415611c5b565b6001600160a01b0384163b155b15611c0d57604051635274afe760e01b81526001600160a01b038516600482015260240161059d565b60405180606001604052806000801916815260200160006001600160401b03168152602001611cc6604051806040016040528060008152602001600081525090565b905290565b803563ffffffff81168114611cdf57600080fd5b919050565b600060208284031215611cf657600080fd5b611cff82611ccb565b9392505050565b600060608284031215611d1857600080fd5b50919050565b60008083601f840112611d3057600080fd5b5081356001600160401b03811115611d4757600080fd5b602083019150836020828501011115611d5f57600080fd5b9250929050565b6001600160a01b03811681146116e157600080fd5b600080600080600080600060e0888a031215611d9657600080fd5b611da08989611d06565b96506060880135955060808801356001600160401b03811115611dc257600080fd5b611dce8a828b01611d1e565b90965094505060a0880135611de281611d66565b925060c08801356001600160401b03811115611dfd57600080fd5b611e098a828b01611d1e565b989b979a50959850939692959293505050565b60008060408385031215611e2f57600080fd5b611e3883611ccb565b946020939093013593505050565b634e487b7160e01b600052604160045260246000fd5b600082601f830112611e6d57600080fd5b81356001600160401b03811115611e8657611e86611e46565b604051601f8201601f19908116603f011681016001600160401b0381118282101715611eb457611eb4611e46565b604052818152838201602001851015611ecc57600080fd5b816020850160208301376000918101602001919091529392505050565b600080600080600060808688031215611f0157600080fd5b85356001600160401b03811115611f1757600080fd5b611f2388828901611e5c565b95505060208601356001600160401b03811115611f3f57600080fd5b611f4b88828901611e5c565b9450506040860135925060608601356001600160401b03811115611f6e57600080fd5b611f7a88828901611d1e565b969995985093965092949392505050565b600080600080600080600060c0888a031215611fa657600080fd5b873596506020880135955060408801356001600160401b03811115611fca57600080fd5b611fd68a828b01611e5c565b95505060608801356001600160401b03811115611ff257600080fd5b611ffe8a828b01611e5c565b9450506080880135925060a08801356001600160401b03811115611dfd57600080fd5b60008060006040848603121561203657600080fd5b8335925060208401356001600160401b0381111561205357600080fd5b61205f86828701611d1e565b9497909650939450505050565b60008060008060a0858703121561208257600080fd5b61208c8686611d06565b935060608501356001600160401b038111156120a757600080fd5b6120b387828801611d1e565b90945092505060808501356120c781611d66565b939692955090935050565b60008060008060008060a087890312156120eb57600080fd5b86356001600160401b0381111561210157600080fd5b61210d89828a01611e5c565b96505060208701356001600160401b0381111561212957600080fd5b61213589828a01611e5c565b95505060408701356001600160401b0381111561215157600080fd5b61215d89828a01611e5c565b9450506060870135925060808701356001600160401b0381111561218057600080fd5b61218c89828a01611d1e565b979a9699509497509295939492505050565b600080600080606085870312156121b457600080fd5b8435935060208501356001600160401b038111156121d157600080fd5b6121dd87828801611e5c565b93505060408501356001600160401b038111156121f957600080fd5b61220587828801611d1e565b95989497509550505050565b6000806040838503121561222457600080fd5b8235611e3881611d66565b60006020828403121561224157600080fd5b8135611cff81611d66565b60006060828403121561225e57600080fd5b611cff8383611d06565b80151581146116e157600080fd5b60006020828403121561228857600080fd5b8151611cff81612268565b6000815180845260005b818110156122b95760208185018101518683018201520161229d565b506000602082860101526020601f19601f83011685010191505092915050565b60a08152601860a08201527f72657175657374536b696c6c566572696669636174696f6e000000000000000060c08201526001600160a01b038516602082015260e06040820152600061232f60e0830186612293565b82810360608401526123418186612293565b91505082608083015295945050505050565b6060815260006123666060830186612293565b82810360208401526123788186612293565b915050826040830152949350505050565b60e08152600c60e08201526b72616973654469737075746560a01b6101008201526001600160a01b0387166020820152856040820152846060820152610120608082015260006123dd610120830186612293565b82810360a08401526123ef8186612293565b9150508260c0830152979650505050505050565b85815284602082015260a06040820152600061242260a0830186612293565b82810360608401526124348186612293565b9150508260808301529695505050505050565b60c08152600960c08201526861736b417468656e6160b81b60e08201526001600160a01b03861660208201526101006040820152600061248b610100830187612293565b828103606084015261249d8187612293565b905082810360808401526124b18186612293565b9150508260a08301529695505050505050565b6080815260006124d76080830187612293565b82810360208401526124e98187612293565b905082810360408401526124fd8186612293565b91505082606083015295945050505050565b60808152600d60808201526c6372656174654469737075746560981b60a08201526001600160a01b038416602082015282604082015260c06060820152600061169d60c0830184612293565b6000806000806080858703121561257157600080fd5b84356001600160401b0381111561258757600080fd5b61259387828801611e5c565b94505060208501356125a481611d66565b92506040850135915060608501356120c781612268565b6040815263ffffffff8351166040820152602083015160608201526000604084015160a060808401526125f160e0840182612293565b90506060850151603f198483030160a085015261260e8282612293565b60809690960151151560c08501525050506001600160a01b039190911660209091015290565b60006040828403121561264657600080fd5b604080519081016001600160401b038111828210171561266857612668611e46565b604052825181526020928301519281019290925250919050565b60006040828403121561269457600080fd5b611cff8383612634565b600060808284031280156126b157600080fd5b50604051606081016001600160401b03811182821017156126d4576126d4611e46565b6040528251815260208301516001600160401b03811681146126f557600080fd5b60208201526127078460408501612634565b60408201529392505050565b60006020828403121561272557600080fd5b8151611cff81611d6656fea2646970667358221220849f28df77f47ff421438b2e7fa865c30e6e533d816fa6c98bd5ff4224ebc3d064736f6c634300081c0033",
			"opcodes": "PUSH1 0xC0 PUSH1 0x40 MSTORE CALLVALUE DUP1 ISZERO PUSH2 0x10 JUMPI PUSH1 0x0 DUP1 REVERT JUMPDEST POP PUSH1 0x40 MLOAD PUSH2 0x29CE CODESIZE SUB DUP1 PUSH2 0x29CE DUP4 CODECOPY DUP2 ADD PUSH1 0x40 DUP2 SWAP1 MSTORE PUSH2 0x2F SWAP2 PUSH2 0x19E JUMP JUMPDEST DUP4 DUP4 DUP2 DUP2 DUP1 PUSH1 0x1 PUSH1 0x1 PUSH1 0xA0 SHL SUB DUP2 AND PUSH2 0x62 JUMPI PUSH1 0x40 MLOAD PUSH4 0x1E4FBDF7 PUSH1 0xE0 SHL DUP2 MSTORE PUSH1 0x0 PUSH1 0x4 DUP3 ADD MSTORE PUSH1 0x24 ADD PUSH1 0x40 MLOAD DUP1 SWAP2 SUB SWAP1 REVERT JUMPDEST PUSH2 0x6B DUP2 PUSH2 0x132 JUMP JUMPDEST POP PUSH1 0x1 PUSH1 0x1 PUSH1 0xA0 SHL SUB DUP1 DUP4 AND PUSH1 0x80 MSTORE DUP2 AND PUSH2 0x99 JUMPI PUSH1 0x40 MLOAD PUSH4 0x2D618D81 PUSH1 0xE2 SHL DUP2 MSTORE PUSH1 0x4 ADD PUSH1 0x40 MLOAD DUP1 SWAP2 SUB SWAP1 REVERT JUMPDEST PUSH1 0x80 MLOAD PUSH1 0x40 MLOAD PUSH4 0xCA5EB5E1 PUSH1 0xE0 SHL DUP2 MSTORE PUSH1 0x1 PUSH1 0x1 PUSH1 0xA0 SHL SUB DUP4 DUP2 AND PUSH1 0x4 DUP4 ADD MSTORE SWAP1 SWAP2 AND SWAP1 PUSH4 0xCA5EB5E1 SWAP1 PUSH1 0x24 ADD PUSH1 0x0 PUSH1 0x40 MLOAD DUP1 DUP4 SUB DUP2 PUSH1 0x0 DUP8 DUP1 EXTCODESIZE ISZERO DUP1 ISZERO PUSH2 0xE0 JUMPI PUSH1 0x0 DUP1 REVERT JUMPDEST POP GAS CALL ISZERO DUP1 ISZERO PUSH2 0xF4 JUMPI RETURNDATASIZE PUSH1 0x0 DUP1 RETURNDATACOPY RETURNDATASIZE PUSH1 0x0 REVERT JUMPDEST POP POP PUSH1 0x1 PUSH1 0x2 SSTORE POP POP POP PUSH1 0x1 PUSH1 0x1 PUSH1 0xA0 SHL SUB SWAP1 SWAP5 AND PUSH1 0xA0 MSTORE POP POP PUSH1 0x3 DUP1 SLOAD PUSH4 0xFFFFFFFF SWAP1 SWAP3 AND PUSH4 0xFFFFFFFF NOT SWAP1 SWAP3 AND SWAP2 SWAP1 SWAP2 OR SWAP1 SSTORE POP PUSH2 0x1FD SWAP2 POP POP JUMP JUMPDEST PUSH1 0x0 DUP1 SLOAD PUSH1 0x1 PUSH1 0x1 PUSH1 0xA0 SHL SUB DUP4 DUP2 AND PUSH1 0x1 PUSH1 0x1 PUSH1 0xA0 SHL SUB NOT DUP4 AND DUP2 OR DUP5 SSTORE PUSH1 0x40 MLOAD SWAP2 SWAP1 SWAP3 AND SWAP3 DUP4 SWAP2 PUSH32 0x8BE0079C531659141344CD1FD0A4F28419497F9722A3DAAFE3B4186F6B6457E0 SWAP2 SWAP1 LOG3 POP POP JUMP JUMPDEST DUP1 MLOAD PUSH1 0x1 PUSH1 0x1 PUSH1 0xA0 SHL SUB DUP2 AND DUP2 EQ PUSH2 0x199 JUMPI PUSH1 0x0 DUP1 REVERT JUMPDEST SWAP2 SWAP1 POP JUMP JUMPDEST PUSH1 0x0 DUP1 PUSH1 0x0 DUP1 PUSH1 0x80 DUP6 DUP8 SUB SLT ISZERO PUSH2 0x1B4 JUMPI PUSH1 0x0 DUP1 REVERT JUMPDEST PUSH2 0x1BD DUP6 PUSH2 0x182 JUMP JUMPDEST SWAP4 POP PUSH2 0x1CB PUSH1 0x20 DUP7 ADD PUSH2 0x182 JUMP JUMPDEST SWAP3 POP PUSH2 0x1D9 PUSH1 0x40 DUP7 ADD PUSH2 0x182 JUMP JUMPDEST SWAP2 POP PUSH1 0x60 DUP6 ADD MLOAD PUSH4 0xFFFFFFFF DUP2 AND DUP2 EQ PUSH2 0x1F2 JUMPI PUSH1 0x0 DUP1 REVERT JUMPDEST SWAP4 SWAP7 SWAP3 SWAP6 POP SWAP1 SWAP4 POP POP JUMP JUMPDEST PUSH1 0x80 MLOAD PUSH1 0xA0 MLOAD PUSH2 0x2766 PUSH2 0x268 PUSH1 0x0 CODECOPY PUSH1 0x0 DUP2 DUP2 PUSH2 0x501 ADD MSTORE DUP2 DUP2 PUSH2 0x780 ADD MSTORE DUP2 DUP2 PUSH2 0xAF7 ADD MSTORE DUP2 DUP2 PUSH2 0xFD1 ADD MSTORE PUSH2 0x1353 ADD MSTORE PUSH1 0x0 DUP2 DUP2 PUSH2 0x25A ADD MSTORE DUP2 DUP2 PUSH2 0x5C4 ADD MSTORE DUP2 DUP2 PUSH2 0x1502 ADD MSTORE DUP2 DUP2 PUSH2 0x1894 ADD MSTORE DUP2 DUP2 PUSH2 0x1989 ADD MSTORE DUP2 DUP2 PUSH2 0x1ADF ADD MSTORE PUSH2 0x1B96 ADD MSTORE PUSH2 0x2766 PUSH1 0x0 RETURN INVALID PUSH1 0x80 PUSH1 0x40 MSTORE PUSH1 0x4 CALLDATASIZE LT PUSH2 0x19A JUMPI PUSH1 0x0 CALLDATALOAD PUSH1 0xE0 SHR DUP1 PUSH4 0x8B46E627 GT PUSH2 0xE1 JUMPI DUP1 PUSH4 0xBCD95793 GT PUSH2 0x8A JUMPI DUP1 PUSH4 0xE8700687 GT PUSH2 0x64 JUMPI DUP1 PUSH4 0xE8700687 EQ PUSH2 0x4AF JUMPI DUP1 PUSH4 0xF2FDE38B EQ PUSH2 0x4CF JUMPI DUP1 PUSH4 0xF897A22B EQ PUSH2 0x4EF JUMPI DUP1 PUSH4 0xFF7BD03D EQ PUSH2 0x523 JUMPI PUSH1 0x0 DUP1 REVERT JUMPDEST DUP1 PUSH4 0xBCD95793 EQ PUSH2 0x44F JUMPI DUP1 PUSH4 0xCA5EB5E1 EQ PUSH2 0x46F JUMPI DUP1 PUSH4 0xD6D3BB38 EQ PUSH2 0x48F JUMPI PUSH1 0x0 DUP1 REVERT JUMPDEST DUP1 PUSH4 0x9209CB39 GT PUSH2 0xBB JUMPI DUP1 PUSH4 0x9209CB39 EQ PUSH2 0x3D4 JUMPI DUP1 PUSH4 0xAD3B1B47 EQ PUSH2 0x3F4 JUMPI DUP1 PUSH4 0xBB0B6A53 EQ PUSH2 0x414 JUMPI PUSH1 0x0 DUP1 REVERT JUMPDEST DUP1 PUSH4 0x8B46E627 EQ PUSH2 0x368 JUMPI DUP1 PUSH4 0x8DA5CB5B EQ PUSH2 0x37B JUMPI DUP1 PUSH4 0x8DD2067C EQ PUSH2 0x399 JUMPI PUSH1 0x0 DUP1 REVERT JUMPDEST DUP1 PUSH4 0x5E280F11 GT PUSH2 0x143 JUMPI DUP1 PUSH4 0x7D25A05E GT PUSH2 0x11D JUMPI DUP1 PUSH4 0x7D25A05E EQ PUSH2 0x2DB JUMPI DUP1 PUSH4 0x819D9E38 EQ PUSH2 0x316 JUMPI DUP1 PUSH4 0x82413EAC EQ PUSH2 0x329 JUMPI PUSH1 0x0 DUP1 REVERT JUMPDEST DUP1 PUSH4 0x5E280F11 EQ PUSH2 0x248 JUMPI DUP1 PUSH4 0x715018A6 EQ PUSH2 0x294 JUMPI DUP1 PUSH4 0x734FF5F3 EQ PUSH2 0x2A9 JUMPI PUSH1 0x0 DUP1 REVERT JUMPDEST DUP1 PUSH4 0x3400288B GT PUSH2 0x174 JUMPI DUP1 PUSH4 0x3400288B EQ PUSH2 0x202 JUMPI DUP1 PUSH4 0x3CF1EDAC EQ PUSH2 0x222 JUMPI DUP1 PUSH4 0x48EE7F5D EQ PUSH2 0x235 JUMPI PUSH1 0x0 DUP1 REVERT JUMPDEST DUP1 PUSH4 0xD14C92E EQ PUSH2 0x1A6 JUMPI DUP1 PUSH4 0x13137D65 EQ PUSH2 0x1C8 JUMPI DUP1 PUSH4 0x17442B70 EQ PUSH2 0x1DB JUMPI PUSH1 0x0 DUP1 REVERT JUMPDEST CALLDATASIZE PUSH2 0x1A1 JUMPI STOP JUMPDEST PUSH1 0x0 DUP1 REVERT JUMPDEST CALLVALUE DUP1 ISZERO PUSH2 0x1B2 JUMPI PUSH1 0x0 DUP1 REVERT JUMPDEST POP PUSH2 0x1C6 PUSH2 0x1C1 CALLDATASIZE PUSH1 0x4 PUSH2 0x1CE4 JUMP JUMPDEST PUSH2 0x543 JUMP JUMPDEST STOP JUMPDEST PUSH2 0x1C6 PUSH2 0x1D6 CALLDATASIZE PUSH1 0x4 PUSH2 0x1D7B JUMP JUMPDEST PUSH2 0x5C2 JUMP JUMPDEST CALLVALUE DUP1 ISZERO PUSH2 0x1E7 JUMPI PUSH1 0x0 DUP1 REVERT JUMPDEST POP PUSH1 0x40 DUP1 MLOAD PUSH1 0x1 DUP2 MSTORE PUSH1 0x2 PUSH1 0x20 DUP3 ADD MSTORE ADD JUMPDEST PUSH1 0x40 MLOAD DUP1 SWAP2 SUB SWAP1 RETURN JUMPDEST CALLVALUE DUP1 ISZERO PUSH2 0x20E JUMPI PUSH1 0x0 DUP1 REVERT JUMPDEST POP PUSH2 0x1C6 PUSH2 0x21D CALLDATASIZE PUSH1 0x4 PUSH2 0x1E1C JUMP JUMPDEST PUSH2 0x67D JUMP JUMPDEST PUSH2 0x1C6 PUSH2 0x230 CALLDATASIZE PUSH1 0x4 PUSH2 0x1EE9 JUMP JUMPDEST PUSH2 0x693 JUMP JUMPDEST PUSH2 0x1C6 PUSH2 0x243 CALLDATASIZE PUSH1 0x4 PUSH2 0x1F8B JUMP JUMPDEST PUSH2 0x9B2 JUMP JUMPDEST CALLVALUE DUP1 ISZERO PUSH2 0x254 JUMPI PUSH1 0x0 DUP1 REVERT JUMPDEST POP PUSH2 0x27C PUSH32 0x0 DUP2 JUMP JUMPDEST PUSH1 0x40 MLOAD PUSH1 0x1 PUSH1 0x1 PUSH1 0xA0 SHL SUB SWAP1 SWAP2 AND DUP2 MSTORE PUSH1 0x20 ADD PUSH2 0x1F9 JUMP JUMPDEST CALLVALUE DUP1 ISZERO PUSH2 0x2A0 JUMPI PUSH1 0x0 DUP1 REVERT JUMPDEST POP PUSH2 0x1C6 PUSH2 0xD2A JUMP JUMPDEST CALLVALUE DUP1 ISZERO PUSH2 0x2B5 JUMPI PUSH1 0x0 DUP1 REVERT JUMPDEST POP PUSH1 0x3 SLOAD PUSH2 0x2C6 SWAP1 PUSH4 0xFFFFFFFF AND DUP2 JUMP JUMPDEST PUSH1 0x40 MLOAD PUSH4 0xFFFFFFFF SWAP1 SWAP2 AND DUP2 MSTORE PUSH1 0x20 ADD PUSH2 0x1F9 JUMP JUMPDEST CALLVALUE DUP1 ISZERO PUSH2 0x2E7 JUMPI PUSH1 0x0 DUP1 REVERT JUMPDEST POP PUSH2 0x2FE PUSH2 0x2F6 CALLDATASIZE PUSH1 0x4 PUSH2 0x1E1C JUMP JUMPDEST PUSH1 0x0 SWAP3 SWAP2 POP POP JUMP JUMPDEST PUSH1 0x40 MLOAD PUSH1 0x1 PUSH1 0x1 PUSH1 0x40 SHL SUB SWAP1 SWAP2 AND DUP2 MSTORE PUSH1 0x20 ADD PUSH2 0x1F9 JUMP JUMPDEST PUSH2 0x1C6 PUSH2 0x324 CALLDATASIZE PUSH1 0x4 PUSH2 0x2021 JUMP JUMPDEST PUSH2 0xD3E JUMP JUMPDEST CALLVALUE DUP1 ISZERO PUSH2 0x335 JUMPI PUSH1 0x0 DUP1 REVERT JUMPDEST POP PUSH2 0x358 PUSH2 0x344 CALLDATASIZE PUSH1 0x4 PUSH2 0x206C JUMP JUMPDEST PUSH1 0x1 PUSH1 0x1 PUSH1 0xA0 SHL SUB DUP2 AND ADDRESS EQ SWAP5 SWAP4 POP POP POP POP JUMP JUMPDEST PUSH1 0x40 MLOAD SWAP1 ISZERO ISZERO DUP2 MSTORE PUSH1 0x20 ADD PUSH2 0x1F9 JUMP JUMPDEST PUSH2 0x1C6 PUSH2 0x376 CALLDATASIZE PUSH1 0x4 PUSH2 0x20D2 JUMP JUMPDEST PUSH2 0xEE0 JUMP JUMPDEST CALLVALUE DUP1 ISZERO PUSH2 0x387 JUMPI PUSH1 0x0 DUP1 REVERT JUMPDEST POP PUSH1 0x0 SLOAD PUSH1 0x1 PUSH1 0x1 PUSH1 0xA0 SHL SUB AND PUSH2 0x27C JUMP JUMPDEST CALLVALUE DUP1 ISZERO PUSH2 0x3A5 JUMPI PUSH1 0x0 DUP1 REVERT JUMPDEST POP PUSH2 0x3B9 PUSH2 0x3B4 CALLDATASIZE PUSH1 0x4 PUSH2 0x219E JUMP JUMPDEST PUSH2 0x1208 JUMP JUMPDEST PUSH1 0x40 DUP1 MLOAD DUP3 MLOAD DUP2 MSTORE PUSH1 0x20 SWAP3 DUP4 ADD MLOAD SWAP3 DUP2 ADD SWAP3 SWAP1 SWAP3 MSTORE ADD PUSH2 0x1F9 JUMP JUMPDEST CALLVALUE DUP1 ISZERO PUSH2 0x3E0 JUMPI PUSH1 0x0 DUP1 REVERT JUMPDEST POP PUSH2 0x3B9 PUSH2 0x3EF CALLDATASIZE PUSH1 0x4 PUSH2 0x1EE9 JUMP JUMPDEST PUSH2 0x1295 JUMP JUMPDEST CALLVALUE DUP1 ISZERO PUSH2 0x400 JUMPI PUSH1 0x0 DUP1 REVERT JUMPDEST POP PUSH2 0x1C6 PUSH2 0x40F CALLDATASIZE PUSH1 0x4 PUSH2 0x2211 JUMP JUMPDEST PUSH2 0x1325 JUMP JUMPDEST CALLVALUE DUP1 ISZERO PUSH2 0x420 JUMPI PUSH1 0x0 DUP1 REVERT JUMPDEST POP PUSH2 0x441 PUSH2 0x42F CALLDATASIZE PUSH1 0x4 PUSH2 0x1CE4 JUMP JUMPDEST PUSH1 0x1 PUSH1 0x20 MSTORE PUSH1 0x0 SWAP1 DUP2 MSTORE PUSH1 0x40 SWAP1 KECCAK256 SLOAD DUP2 JUMP JUMPDEST PUSH1 0x40 MLOAD SWAP1 DUP2 MSTORE PUSH1 0x20 ADD PUSH2 0x1F9 JUMP JUMPDEST CALLVALUE DUP1 ISZERO PUSH2 0x45B JUMPI PUSH1 0x0 DUP1 REVERT JUMPDEST POP PUSH2 0x3B9 PUSH2 0x46A CALLDATASIZE PUSH1 0x4 PUSH2 0x1F8B JUMP JUMPDEST PUSH2 0x1445 JUMP JUMPDEST CALLVALUE DUP1 ISZERO PUSH2 0x47B JUMPI PUSH1 0x0 DUP1 REVERT JUMPDEST POP PUSH2 0x1C6 PUSH2 0x48A CALLDATASIZE PUSH1 0x4 PUSH2 0x222F JUMP JUMPDEST PUSH2 0x14DB JUMP JUMPDEST CALLVALUE DUP1 ISZERO PUSH2 0x49B JUMPI PUSH1 0x0 DUP1 REVERT JUMPDEST POP PUSH2 0x3B9 PUSH2 0x4AA CALLDATASIZE PUSH1 0x4 PUSH2 0x20D2 JUMP JUMPDEST PUSH2 0x155A JUMP JUMPDEST CALLVALUE DUP1 ISZERO PUSH2 0x4BB JUMPI PUSH1 0x0 DUP1 REVERT JUMPDEST POP PUSH2 0x3B9 PUSH2 0x4CA CALLDATASIZE PUSH1 0x4 PUSH2 0x2021 JUMP JUMPDEST PUSH2 0x15ED JUMP JUMPDEST CALLVALUE DUP1 ISZERO PUSH2 0x4DB JUMPI PUSH1 0x0 DUP1 REVERT JUMPDEST POP PUSH2 0x1C6 PUSH2 0x4EA CALLDATASIZE PUSH1 0x4 PUSH2 0x222F JUMP JUMPDEST PUSH2 0x16A6 JUMP JUMPDEST CALLVALUE DUP1 ISZERO PUSH2 0x4FB JUMPI PUSH1 0x0 DUP1 REVERT JUMPDEST POP PUSH2 0x27C PUSH32 0x0 DUP2 JUMP JUMPDEST CALLVALUE DUP1 ISZERO PUSH2 0x52F JUMPI PUSH1 0x0 DUP1 REVERT JUMPDEST POP PUSH2 0x358 PUSH2 0x53E CALLDATASIZE PUSH1 0x4 PUSH2 0x224C JUMP JUMPDEST PUSH2 0x16E4 JUMP JUMPDEST PUSH2 0x54B PUSH2 0x171A JUMP JUMPDEST PUSH1 0x0 DUP2 PUSH4 0xFFFFFFFF AND GT PUSH2 0x5A6 JUMPI PUSH1 0x40 MLOAD PUSH3 0x461BCD PUSH1 0xE5 SHL DUP2 MSTORE PUSH1 0x20 PUSH1 0x4 DUP3 ADD MSTORE PUSH1 0x17 PUSH1 0x24 DUP3 ADD MSTORE PUSH32 0x496E76616C69642064657374696E6174696F6E20454944000000000000000000 PUSH1 0x44 DUP3 ADD MSTORE PUSH1 0x64 ADD JUMPDEST PUSH1 0x40 MLOAD DUP1 SWAP2 SUB SWAP1 REVERT JUMPDEST PUSH1 0x3 DUP1 SLOAD PUSH4 0xFFFFFFFF NOT AND PUSH4 0xFFFFFFFF SWAP3 SWAP1 SWAP3 AND SWAP2 SWAP1 SWAP2 OR SWAP1 SSTORE JUMP JUMPDEST PUSH32 0x0 PUSH1 0x1 PUSH1 0x1 PUSH1 0xA0 SHL SUB AND CALLER EQ PUSH2 0x60D JUMPI PUSH1 0x40 MLOAD PUSH4 0x91AC5E4F PUSH1 0xE0 SHL DUP2 MSTORE CALLER PUSH1 0x4 DUP3 ADD MSTORE PUSH1 0x24 ADD PUSH2 0x59D JUMP JUMPDEST PUSH1 0x20 DUP8 ADD DUP1 CALLDATALOAD SWAP1 PUSH2 0x627 SWAP1 PUSH2 0x622 SWAP1 DUP11 PUSH2 0x1CE4 JUMP JUMPDEST PUSH2 0x1747 JUMP JUMPDEST EQ PUSH2 0x665 JUMPI PUSH2 0x639 PUSH1 0x20 DUP9 ADD DUP9 PUSH2 0x1CE4 JUMP JUMPDEST PUSH1 0x40 MLOAD PUSH4 0x309AFAF3 PUSH1 0xE2 SHL DUP2 MSTORE PUSH4 0xFFFFFFFF SWAP1 SWAP2 AND PUSH1 0x4 DUP3 ADD MSTORE PUSH1 0x20 DUP9 ADD CALLDATALOAD PUSH1 0x24 DUP3 ADD MSTORE PUSH1 0x44 ADD PUSH2 0x59D JUMP JUMPDEST PUSH2 0x674 DUP8 DUP8 DUP8 DUP8 DUP8 DUP8 DUP8 PUSH2 0x1789 JUMP JUMPDEST POP POP POP POP POP POP POP JUMP JUMPDEST PUSH2 0x685 PUSH2 0x171A JUMP JUMPDEST PUSH2 0x68F DUP3 DUP3 PUSH2 0x17D2 JUMP JUMPDEST POP POP JUMP JUMPDEST PUSH2 0x69B PUSH2 0x1827 JUMP JUMPDEST PUSH1 0x0 DUP6 MLOAD GT PUSH2 0x6DA JUMPI PUSH1 0x40 MLOAD PUSH3 0x461BCD PUSH1 0xE5 SHL DUP2 MSTORE PUSH1 0x20 PUSH1 0x4 DUP3 ADD MSTORE PUSH1 0xB PUSH1 0x24 DUP3 ADD MSTORE PUSH11 0x536B696C6C20656D707479 PUSH1 0xA8 SHL PUSH1 0x44 DUP3 ADD MSTORE PUSH1 0x64 ADD PUSH2 0x59D JUMP JUMPDEST PUSH1 0x0 DUP5 MLOAD GT PUSH2 0x71E JUMPI PUSH1 0x40 MLOAD PUSH3 0x461BCD PUSH1 0xE5 SHL DUP2 MSTORE PUSH1 0x20 PUSH1 0x4 DUP3 ADD MSTORE PUSH1 0x10 PUSH1 0x24 DUP3 ADD MSTORE PUSH16 0x50726F6F66206861736820656D707479 PUSH1 0x80 SHL PUSH1 0x44 DUP3 ADD MSTORE PUSH1 0x64 ADD PUSH2 0x59D JUMP JUMPDEST PUSH1 0x0 DUP4 GT PUSH2 0x75E JUMPI PUSH1 0x40 MLOAD PUSH3 0x461BCD PUSH1 0xE5 SHL DUP2 MSTORE PUSH1 0x20 PUSH1 0x4 DUP3 ADD MSTORE PUSH1 0xD PUSH1 0x24 DUP3 ADD MSTORE PUSH13 0x5553445420666565207A65726F PUSH1 0x98 SHL PUSH1 0x44 DUP3 ADD MSTORE PUSH1 0x64 ADD PUSH2 0x59D JUMP JUMPDEST PUSH1 0x40 MLOAD PUSH4 0x23B872DD PUSH1 0xE0 SHL DUP2 MSTORE CALLER PUSH1 0x4 DUP3 ADD MSTORE ADDRESS PUSH1 0x24 DUP3 ADD MSTORE PUSH1 0x44 DUP2 ADD DUP5 SWAP1 MSTORE PUSH32 0x0 PUSH1 0x1 PUSH1 0x1 PUSH1 0xA0 SHL SUB AND SWAP1 PUSH4 0x23B872DD SWAP1 PUSH1 0x64 ADD PUSH1 0x20 PUSH1 0x40 MLOAD DUP1 DUP4 SUB DUP2 PUSH1 0x0 DUP8 GAS CALL ISZERO DUP1 ISZERO PUSH2 0x7D1 JUMPI RETURNDATASIZE PUSH1 0x0 DUP1 RETURNDATACOPY RETURNDATASIZE PUSH1 0x0 REVERT JUMPDEST POP POP POP POP PUSH1 0x40 MLOAD RETURNDATASIZE PUSH1 0x1F NOT PUSH1 0x1F DUP3 ADD AND DUP3 ADD DUP1 PUSH1 0x40 MSTORE POP DUP2 ADD SWAP1 PUSH2 0x7F5 SWAP2 SWAP1 PUSH2 0x2276 JUMP JUMPDEST PUSH2 0x838 JUMPI PUSH1 0x40 MLOAD PUSH3 0x461BCD PUSH1 0xE5 SHL DUP2 MSTORE PUSH1 0x20 PUSH1 0x4 DUP3 ADD MSTORE PUSH1 0x14 PUSH1 0x24 DUP3 ADD MSTORE PUSH20 0x1554D115081D1C985B9CD9995C8819985A5B1959 PUSH1 0x62 SHL PUSH1 0x44 DUP3 ADD MSTORE PUSH1 0x64 ADD PUSH2 0x59D JUMP JUMPDEST PUSH1 0x0 CALLER DUP7 DUP7 DUP7 PUSH1 0x40 MLOAD PUSH1 0x20 ADD PUSH2 0x851 SWAP5 SWAP4 SWAP3 SWAP2 SWAP1 PUSH2 0x22D9 JUMP JUMPDEST PUSH1 0x40 DUP1 MLOAD PUSH1 0x1F NOT DUP2 DUP5 SUB ADD DUP2 MSTORE PUSH1 0x3 SLOAD PUSH1 0x20 PUSH1 0x1F DUP8 ADD DUP2 SWAP1 DIV DUP2 MUL DUP6 ADD DUP2 ADD SWAP1 SWAP4 MSTORE DUP6 DUP5 MSTORE SWAP1 SWAP4 POP PUSH1 0x0 SWAP3 PUSH2 0x8AC SWAP3 PUSH4 0xFFFFFFFF SWAP1 SWAP3 AND SWAP2 DUP6 SWAP2 SWAP1 DUP9 SWAP1 DUP9 SWAP1 DUP2 SWAP1 DUP5 ADD DUP4 DUP3 DUP1 DUP3 DUP5 CALLDATACOPY PUSH1 0x0 SWAP3 ADD DUP3 SWAP1 MSTORE POP SWAP3 POP PUSH2 0x187E SWAP2 POP POP JUMP JUMPDEST DUP1 MLOAD SWAP1 SWAP2 POP CALLVALUE LT ISZERO PUSH2 0x8F5 JUMPI PUSH1 0x40 MLOAD PUSH3 0x461BCD PUSH1 0xE5 SHL DUP2 MSTORE PUSH1 0x20 PUSH1 0x4 DUP3 ADD MSTORE PUSH1 0x12 PUSH1 0x24 DUP3 ADD MSTORE PUSH18 0x4E61746976652066656520746F6F206C6F77 PUSH1 0x70 SHL PUSH1 0x44 DUP3 ADD MSTORE PUSH1 0x64 ADD PUSH2 0x59D JUMP JUMPDEST PUSH1 0x3 SLOAD PUSH1 0x40 DUP1 MLOAD PUSH1 0x20 PUSH1 0x1F DUP8 ADD DUP2 SWAP1 DIV DUP2 MUL DUP3 ADD DUP2 ADD SWAP1 SWAP3 MSTORE DUP6 DUP2 MSTORE PUSH2 0x956 SWAP3 PUSH4 0xFFFFFFFF AND SWAP2 DUP6 SWAP2 SWAP1 DUP9 SWAP1 DUP9 SWAP1 DUP2 SWAP1 DUP5 ADD DUP4 DUP3 DUP1 DUP3 DUP5 CALLDATACOPY PUSH1 0x0 SWAP3 ADD DUP3 SWAP1 MSTORE POP PUSH1 0x40 DUP1 MLOAD DUP1 DUP3 ADD SWAP1 SWAP2 MSTORE CALLVALUE DUP2 MSTORE PUSH1 0x20 DUP2 ADD SWAP2 SWAP1 SWAP2 MSTORE SWAP3 POP CALLER SWAP2 POP PUSH2 0x1956 SWAP1 POP JUMP JUMPDEST POP PUSH1 0x3 SLOAD PUSH1 0x40 MLOAD CALLER SWAP2 PUSH4 0xFFFFFFFF AND SWAP1 PUSH32 0x3E4B07BA31C4D6796B7895FE18E7487BCDB46A957F3F6FB31852F8134028EA7F SWAP1 PUSH2 0x997 SWAP1 DUP12 SWAP1 DUP12 SWAP1 DUP12 SWAP1 PUSH2 0x2353 JUMP JUMPDEST PUSH1 0x40 MLOAD DUP1 SWAP2 SUB SWAP1 LOG3 POP POP PUSH2 0x9AB PUSH1 0x1 PUSH1 0x2 SSTORE JUMP JUMPDEST POP POP POP POP POP JUMP JUMPDEST PUSH2 0x9BA PUSH2 0x1827 JUMP JUMPDEST PUSH1 0x0 DUP6 MLOAD GT PUSH2 0xA00 JUMPI PUSH1 0x40 MLOAD PUSH3 0x461BCD PUSH1 0xE5 SHL DUP2 MSTORE PUSH1 0x20 PUSH1 0x4 DUP3 ADD MSTORE PUSH1 0x12 PUSH1 0x24 DUP3 ADD MSTORE PUSH18 0x44697370757465206861736820656D707479 PUSH1 0x70 SHL PUSH1 0x44 DUP3 ADD MSTORE PUSH1 0x64 ADD PUSH2 0x59D JUMP JUMPDEST PUSH1 0x0 DUP5 MLOAD GT PUSH2 0xA45 JUMPI PUSH1 0x40 MLOAD PUSH3 0x461BCD PUSH1 0xE5 SHL DUP2 MSTORE PUSH1 0x20 PUSH1 0x4 DUP3 ADD MSTORE PUSH1 0x11 PUSH1 0x24 DUP3 ADD MSTORE PUSH17 0x4F7261636C65206E616D6520656D707479 PUSH1 0x78 SHL PUSH1 0x44 DUP3 ADD MSTORE PUSH1 0x64 ADD PUSH2 0x59D JUMP JUMPDEST PUSH1 0x0 DUP4 GT PUSH2 0xA85 JUMPI PUSH1 0x40 MLOAD PUSH3 0x461BCD PUSH1 0xE5 SHL DUP2 MSTORE PUSH1 0x20 PUSH1 0x4 DUP3 ADD MSTORE PUSH1 0xD PUSH1 0x24 DUP3 ADD MSTORE PUSH13 0x5553445420666565207A65726F PUSH1 0x98 SHL PUSH1 0x44 DUP3 ADD MSTORE PUSH1 0x64 ADD PUSH2 0x59D JUMP JUMPDEST PUSH1 0x0 DUP7 GT PUSH2 0xAD5 JUMPI PUSH1 0x40 MLOAD PUSH3 0x461BCD PUSH1 0xE5 SHL DUP2 MSTORE PUSH1 0x20 PUSH1 0x4 DUP3 ADD MSTORE PUSH1 0x14 PUSH1 0x24 DUP3 ADD MSTORE PUSH32 0x446973707574656420616D6F756E74207A65726F000000000000000000000000 PUSH1 0x44 DUP3 ADD MSTORE PUSH1 0x64 ADD PUSH2 0x59D JUMP JUMPDEST PUSH1 0x40 MLOAD PUSH4 0x23B872DD PUSH1 0xE0 SHL DUP2 MSTORE CALLER PUSH1 0x4 DUP3 ADD MSTORE ADDRESS PUSH1 0x24 DUP3 ADD MSTORE PUSH1 0x44 DUP2 ADD DUP5 SWAP1 MSTORE PUSH32 0x0 PUSH1 0x1 PUSH1 0x1 PUSH1 0xA0 SHL SUB AND SWAP1 PUSH4 0x23B872DD SWAP1 PUSH1 0x64 ADD PUSH1 0x20 PUSH1 0x40 MLOAD DUP1 DUP4 SUB DUP2 PUSH1 0x0 DUP8 GAS CALL ISZERO DUP1 ISZERO PUSH2 0xB48 JUMPI RETURNDATASIZE PUSH1 0x0 DUP1 RETURNDATACOPY RETURNDATASIZE PUSH1 0x0 REVERT JUMPDEST POP POP POP POP PUSH1 0x40 MLOAD RETURNDATASIZE PUSH1 0x1F NOT PUSH1 0x1F DUP3 ADD AND DUP3 ADD DUP1 PUSH1 0x40 MSTORE POP DUP2 ADD SWAP1 PUSH2 0xB6C SWAP2 SWAP1 PUSH2 0x2276 JUMP JUMPDEST PUSH2 0xBAF JUMPI PUSH1 0x40 MLOAD PUSH3 0x461BCD PUSH1 0xE5 SHL DUP2 MSTORE PUSH1 0x20 PUSH1 0x4 DUP3 ADD MSTORE PUSH1 0x14 PUSH1 0x24 DUP3 ADD MSTORE PUSH20 0x1554D115081D1C985B9CD9995C8819985A5B1959 PUSH1 0x62 SHL PUSH1 0x44 DUP3 ADD MSTORE PUSH1 0x64 ADD PUSH2 0x59D JUMP JUMPDEST PUSH1 0x0 CALLER DUP9 DUP9 DUP9 DUP9 DUP9 PUSH1 0x40 MLOAD PUSH1 0x20 ADD PUSH2 0xBCC SWAP7 SWAP6 SWAP5 SWAP4 SWAP3 SWAP2 SWAP1 PUSH2 0x2389 JUMP JUMPDEST PUSH1 0x40 DUP1 MLOAD PUSH1 0x1F NOT DUP2 DUP5 SUB ADD DUP2 MSTORE PUSH1 0x3 SLOAD PUSH1 0x20 PUSH1 0x1F DUP8 ADD DUP2 SWAP1 DIV DUP2 MUL DUP6 ADD DUP2 ADD SWAP1 SWAP4 MSTORE DUP6 DUP5 MSTORE SWAP1 SWAP4 POP PUSH1 0x0 SWAP3 PUSH2 0xC27 SWAP3 PUSH4 0xFFFFFFFF SWAP1 SWAP3 AND SWAP2 DUP6 SWAP2 SWAP1 DUP9 SWAP1 DUP9 SWAP1 DUP2 SWAP1 DUP5 ADD DUP4 DUP3 DUP1 DUP3 DUP5 CALLDATACOPY PUSH1 0x0 SWAP3 ADD DUP3 SWAP1 MSTORE POP SWAP3 POP PUSH2 0x187E SWAP2 POP POP JUMP JUMPDEST DUP1 MLOAD SWAP1 SWAP2 POP CALLVALUE LT ISZERO PUSH2 0xC70 JUMPI PUSH1 0x40 MLOAD PUSH3 0x461BCD PUSH1 0xE5 SHL DUP2 MSTORE PUSH1 0x20 PUSH1 0x4 DUP3 ADD MSTORE PUSH1 0x12 PUSH1 0x24 DUP3 ADD MSTORE PUSH18 0x4E61746976652066656520746F6F206C6F77 PUSH1 0x70 SHL PUSH1 0x44 DUP3 ADD MSTORE PUSH1 0x64 ADD PUSH2 0x59D JUMP JUMPDEST PUSH1 0x3 SLOAD PUSH1 0x40 DUP1 MLOAD PUSH1 0x20 PUSH1 0x1F DUP8 ADD DUP2 SWAP1 DIV DUP2 MUL DUP3 ADD DUP2 ADD SWAP1 SWAP3 MSTORE DUP6 DUP2 MSTORE PUSH2 0xCD1 SWAP3 PUSH4 0xFFFFFFFF AND SWAP2 DUP6 SWAP2 SWAP1 DUP9 SWAP1 DUP9 SWAP1 DUP2 SWAP1 DUP5 ADD DUP4 DUP3 DUP1 DUP3 DUP5 CALLDATACOPY PUSH1 0x0 SWAP3 ADD DUP3 SWAP1 MSTORE POP PUSH1 0x40 DUP1 MLOAD DUP1 DUP3 ADD SWAP1 SWAP2 MSTORE CALLVALUE DUP2 MSTORE PUSH1 0x20 DUP2 ADD SWAP2 SWAP1 SWAP2 MSTORE SWAP3 POP CALLER SWAP2 POP PUSH2 0x1956 SWAP1 POP JUMP JUMPDEST POP PUSH1 0x3 SLOAD PUSH1 0x40 MLOAD CALLER SWAP2 PUSH4 0xFFFFFFFF AND SWAP1 PUSH32 0x1DCD71FB8AAE58EEA5679631D43661566EA0DEE46F7435C2A70F5604FF92BB05 SWAP1 PUSH2 0xD16 SWAP1 DUP14 SWAP1 DUP14 SWAP1 DUP14 SWAP1 DUP14 SWAP1 DUP14 SWAP1 PUSH2 0x2403 JUMP JUMPDEST PUSH1 0x40 MLOAD DUP1 SWAP2 SUB SWAP1 LOG3 POP POP PUSH2 0x674 PUSH1 0x1 PUSH1 0x2 SSTORE JUMP JUMPDEST PUSH2 0xD32 PUSH2 0x171A JUMP JUMPDEST PUSH2 0xD3C PUSH1 0x0 PUSH2 0x1A56 JUMP JUMPDEST JUMP JUMPDEST PUSH2 0xD46 PUSH2 0x1827 JUMP JUMPDEST PUSH1 0x40 DUP1 MLOAD PUSH1 0x60 PUSH1 0x20 DUP3 ADD DUP2 SWAP1 MSTORE PUSH1 0x13 PUSH1 0x80 DUP4 ADD MSTORE PUSH19 0x18DB185A5B511A5CDC1D5D1959105B5BDD5B9D PUSH1 0x6A SHL PUSH1 0xA0 DUP4 ADD MSTORE CALLER SWAP3 DUP3 ADD SWAP3 SWAP1 SWAP3 MSTORE SWAP1 DUP2 ADD DUP5 SWAP1 MSTORE PUSH1 0x0 SWAP1 PUSH1 0xC0 ADD PUSH1 0x40 DUP1 MLOAD PUSH1 0x1F NOT DUP2 DUP5 SUB ADD DUP2 MSTORE PUSH1 0x3 SLOAD PUSH1 0x20 PUSH1 0x1F DUP8 ADD DUP2 SWAP1 DIV DUP2 MUL DUP6 ADD DUP2 ADD SWAP1 SWAP4 MSTORE DUP6 DUP5 MSTORE SWAP1 SWAP4 POP PUSH1 0x0 SWAP3 PUSH2 0xDE5 SWAP3 PUSH4 0xFFFFFFFF SWAP1 SWAP3 AND SWAP2 DUP6 SWAP2 SWAP1 DUP9 SWAP1 DUP9 SWAP1 DUP2 SWAP1 DUP5 ADD DUP4 DUP3 DUP1 DUP3 DUP5 CALLDATACOPY PUSH1 0x0 SWAP3 ADD DUP3 SWAP1 MSTORE POP SWAP3 POP PUSH2 0x187E SWAP2 POP POP JUMP JUMPDEST DUP1 MLOAD SWAP1 SWAP2 POP CALLVALUE LT ISZERO PUSH2 0xE2E JUMPI PUSH1 0x40 MLOAD PUSH3 0x461BCD PUSH1 0xE5 SHL DUP2 MSTORE PUSH1 0x20 PUSH1 0x4 DUP3 ADD MSTORE PUSH1 0x12 PUSH1 0x24 DUP3 ADD MSTORE PUSH18 0x4E61746976652066656520746F6F206C6F77 PUSH1 0x70 SHL PUSH1 0x44 DUP3 ADD MSTORE PUSH1 0x64 ADD PUSH2 0x59D JUMP JUMPDEST PUSH1 0x3 SLOAD PUSH1 0x40 DUP1 MLOAD PUSH1 0x20 PUSH1 0x1F DUP8 ADD DUP2 SWAP1 DIV DUP2 MUL DUP3 ADD DUP2 ADD SWAP1 SWAP3 MSTORE DUP6 DUP2 MSTORE PUSH2 0xE8F SWAP3 PUSH4 0xFFFFFFFF AND SWAP2 DUP6 SWAP2 SWAP1 DUP9 SWAP1 DUP9 SWAP1 DUP2 SWAP1 DUP5 ADD DUP4 DUP3 DUP1 DUP3 DUP5 CALLDATACOPY PUSH1 0x0 SWAP3 ADD DUP3 SWAP1 MSTORE POP PUSH1 0x40 DUP1 MLOAD DUP1 DUP3 ADD SWAP1 SWAP2 MSTORE CALLVALUE DUP2 MSTORE PUSH1 0x20 DUP2 ADD SWAP2 SWAP1 SWAP2 MSTORE SWAP3 POP CALLER SWAP2 POP PUSH2 0x1956 SWAP1 POP JUMP JUMPDEST POP PUSH1 0x3 SLOAD PUSH1 0x40 MLOAD DUP7 DUP2 MSTORE CALLER SWAP2 PUSH4 0xFFFFFFFF AND SWAP1 PUSH32 0x6541184BABE530DF37651624302AEBDD4DD75D4F40C7D1A32DD38168FD3E5011 SWAP1 PUSH1 0x20 ADD PUSH1 0x40 MLOAD DUP1 SWAP2 SUB SWAP1 LOG3 POP POP PUSH2 0xEDB PUSH1 0x1 PUSH1 0x2 SSTORE JUMP JUMPDEST POP POP POP JUMP JUMPDEST PUSH2 0xEE8 PUSH2 0x1827 JUMP JUMPDEST PUSH1 0x0 DUP7 MLOAD GT PUSH2 0xF2A JUMPI PUSH1 0x40 MLOAD PUSH3 0x461BCD PUSH1 0xE5 SHL DUP2 MSTORE PUSH1 0x20 PUSH1 0x4 DUP3 ADD MSTORE PUSH1 0xE PUSH1 0x24 DUP3 ADD MSTORE PUSH14 0x5175657374696F6E20656D707479 PUSH1 0x90 SHL PUSH1 0x44 DUP3 ADD MSTORE PUSH1 0x64 ADD PUSH2 0x59D JUMP JUMPDEST PUSH1 0x0 DUP5 MLOAD GT PUSH2 0xF6F JUMPI PUSH1 0x40 MLOAD PUSH3 0x461BCD PUSH1 0xE5 SHL DUP2 MSTORE PUSH1 0x20 PUSH1 0x4 DUP3 ADD MSTORE PUSH1 0x11 PUSH1 0x24 DUP3 ADD MSTORE PUSH17 0x4F7261636C65206E616D6520656D707479 PUSH1 0x78 SHL PUSH1 0x44 DUP3 ADD MSTORE PUSH1 0x64 ADD PUSH2 0x59D JUMP JUMPDEST PUSH1 0x0 DUP4 GT PUSH2 0xFAF JUMPI PUSH1 0x40 MLOAD PUSH3 0x461BCD PUSH1 0xE5 SHL DUP2 MSTORE PUSH1 0x20 PUSH1 0x4 DUP3 ADD MSTORE PUSH1 0xD PUSH1 0x24 DUP3 ADD MSTORE PUSH13 0x5553445420666565207A65726F PUSH1 0x98 SHL PUSH1 0x44 DUP3 ADD MSTORE PUSH1 0x64 ADD PUSH2 0x59D JUMP JUMPDEST PUSH1 0x40 MLOAD PUSH4 0x23B872DD PUSH1 0xE0 SHL DUP2 MSTORE CALLER PUSH1 0x4 DUP3 ADD MSTORE ADDRESS PUSH1 0x24 DUP3 ADD MSTORE PUSH1 0x44 DUP2 ADD DUP5 SWAP1 MSTORE PUSH32 0x0 PUSH1 0x1 PUSH1 0x1 PUSH1 0xA0 SHL SUB AND SWAP1 PUSH4 0x23B872DD SWAP1 PUSH1 0x64 ADD PUSH1 0x20 PUSH1 0x40 MLOAD DUP1 DUP4 SUB DUP2 PUSH1 0x0 DUP8 GAS CALL ISZERO DUP1 ISZERO PUSH2 0x1022 JUMPI RETURNDATASIZE PUSH1 0x0 DUP1 RETURNDATACOPY RETURNDATASIZE PUSH1 0x0 REVERT JUMPDEST POP POP POP POP PUSH1 0x40 MLOAD RETURNDATASIZE PUSH1 0x1F NOT PUSH1 0x1F DUP3 ADD AND DUP3 ADD DUP1 PUSH1 0x40 MSTORE POP DUP2 ADD SWAP1 PUSH2 0x1046 SWAP2 SWAP1 PUSH2 0x2276 JUMP JUMPDEST PUSH2 0x1089 JUMPI PUSH1 0x40 MLOAD PUSH3 0x461BCD PUSH1 0xE5 SHL DUP2 MSTORE PUSH1 0x20 PUSH1 0x4 DUP3 ADD MSTORE PUSH1 0x14 PUSH1 0x24 DUP3 ADD MSTORE PUSH20 0x1554D115081D1C985B9CD9995C8819985A5B1959 PUSH1 0x62 SHL PUSH1 0x44 DUP3 ADD MSTORE PUSH1 0x64 ADD PUSH2 0x59D JUMP JUMPDEST PUSH1 0x0 CALLER DUP8 DUP8 DUP8 DUP8 PUSH1 0x40 MLOAD PUSH1 0x20 ADD PUSH2 0x10A4 SWAP6 SWAP5 SWAP4 SWAP3 SWAP2 SWAP1 PUSH2 0x2447 JUMP JUMPDEST PUSH1 0x40 DUP1 MLOAD PUSH1 0x1F NOT DUP2 DUP5 SUB ADD DUP2 MSTORE PUSH1 0x3 SLOAD PUSH1 0x20 PUSH1 0x1F DUP8 ADD DUP2 SWAP1 DIV DUP2 MUL DUP6 ADD DUP2 ADD SWAP1 SWAP4 MSTORE DUP6 DUP5 MSTORE SWAP1 SWAP4 POP PUSH1 0x0 SWAP3 PUSH2 0x10FF SWAP3 PUSH4 0xFFFFFFFF SWAP1 SWAP3 AND SWAP2 DUP6 SWAP2 SWAP1 DUP9 SWAP1 DUP9 SWAP1 DUP2 SWAP1 DUP5 ADD DUP4 DUP3 DUP1 DUP3 DUP5 CALLDATACOPY PUSH1 0x0 SWAP3 ADD DUP3 SWAP1 MSTORE POP SWAP3 POP PUSH2 0x187E SWAP2 POP POP JUMP JUMPDEST DUP1 MLOAD SWAP1 SWAP2 POP CALLVALUE LT ISZERO PUSH2 0x1148 JUMPI PUSH1 0x40 MLOAD PUSH3 0x461BCD PUSH1 0xE5 SHL DUP2 MSTORE PUSH1 0x20 PUSH1 0x4 DUP3 ADD MSTORE PUSH1 0x12 PUSH1 0x24 DUP3 ADD MSTORE PUSH18 0x4E61746976652066656520746F6F206C6F77 PUSH1 0x70 SHL PUSH1 0x44 DUP3 ADD MSTORE PUSH1 0x64 ADD PUSH2 0x59D JUMP JUMPDEST PUSH1 0x3 SLOAD PUSH1 0x40 DUP1 MLOAD PUSH1 0x20 PUSH1 0x1F DUP8 ADD DUP2 SWAP1 DIV DUP2 MUL DUP3 ADD DUP2 ADD SWAP1 SWAP3 MSTORE DUP6 DUP2 MSTORE PUSH2 0x11A9 SWAP3 PUSH4 0xFFFFFFFF AND SWAP2 DUP6 SWAP2 SWAP1 DUP9 SWAP1 DUP9 SWAP1 DUP2 SWAP1 DUP5 ADD DUP4 DUP3 DUP1 DUP3 DUP5 CALLDATACOPY PUSH1 0x0 SWAP3 ADD DUP3 SWAP1 MSTORE POP PUSH1 0x40 DUP1 MLOAD DUP1 DUP3 ADD SWAP1 SWAP2 MSTORE CALLVALUE DUP2 MSTORE PUSH1 0x20 DUP2 ADD SWAP2 SWAP1 SWAP2 MSTORE SWAP3 POP CALLER SWAP2 POP PUSH2 0x1956 SWAP1 POP JUMP JUMPDEST POP PUSH1 0x3 SLOAD PUSH1 0x40 MLOAD CALLER SWAP2 PUSH4 0xFFFFFFFF AND SWAP1 PUSH32 0xD55884CBCC73464244E119BB688BC3CAF4FC0DCFBD16467D8E3BC4D112BC8AE0 SWAP1 PUSH2 0x11EC SWAP1 DUP13 SWAP1 DUP13 SWAP1 DUP13 SWAP1 DUP13 SWAP1 PUSH2 0x24C4 JUMP JUMPDEST PUSH1 0x40 MLOAD DUP1 SWAP2 SUB SWAP1 LOG3 POP POP PUSH2 0x1200 PUSH1 0x1 PUSH1 0x2 SSTORE JUMP JUMPDEST POP POP POP POP POP POP JUMP JUMPDEST PUSH1 0x40 DUP1 MLOAD DUP1 DUP3 ADD SWAP1 SWAP2 MSTORE PUSH1 0x0 DUP1 DUP3 MSTORE PUSH1 0x20 DUP3 ADD MSTORE PUSH1 0x0 CALLER DUP7 DUP7 PUSH1 0x40 MLOAD PUSH1 0x20 ADD PUSH2 0x1233 SWAP4 SWAP3 SWAP2 SWAP1 PUSH2 0x250F JUMP JUMPDEST PUSH1 0x40 DUP1 MLOAD PUSH1 0x1F NOT DUP2 DUP5 SUB ADD DUP2 MSTORE PUSH1 0x3 SLOAD PUSH1 0x20 PUSH1 0x1F DUP9 ADD DUP2 SWAP1 DIV DUP2 MUL DUP6 ADD DUP2 ADD SWAP1 SWAP4 MSTORE DUP7 DUP5 MSTORE SWAP1 SWAP4 POP PUSH2 0x128B SWAP3 PUSH4 0xFFFFFFFF SWAP1 SWAP2 AND SWAP2 DUP5 SWAP2 SWAP1 DUP9 SWAP1 DUP9 SWAP1 DUP2 SWAP1 DUP5 ADD DUP4 DUP3 DUP1 DUP3 DUP5 CALLDATACOPY PUSH1 0x0 SWAP3 ADD DUP3 SWAP1 MSTORE POP SWAP3 POP PUSH2 0x187E SWAP2 POP POP JUMP JUMPDEST SWAP7 SWAP6 POP POP POP POP POP POP JUMP JUMPDEST PUSH1 0x40 DUP1 MLOAD DUP1 DUP3 ADD SWAP1 SWAP2 MSTORE PUSH1 0x0 DUP1 DUP3 MSTORE PUSH1 0x20 DUP3 ADD MSTORE PUSH1 0x0 CALLER DUP8 DUP8 DUP8 PUSH1 0x40 MLOAD PUSH1 0x20 ADD PUSH2 0x12C2 SWAP5 SWAP4 SWAP3 SWAP2 SWAP1 PUSH2 0x22D9 JUMP JUMPDEST PUSH1 0x40 DUP1 MLOAD PUSH1 0x1F NOT DUP2 DUP5 SUB ADD DUP2 MSTORE PUSH1 0x3 SLOAD PUSH1 0x20 PUSH1 0x1F DUP9 ADD DUP2 SWAP1 DIV DUP2 MUL DUP6 ADD DUP2 ADD SWAP1 SWAP4 MSTORE DUP7 DUP5 MSTORE SWAP1 SWAP4 POP PUSH2 0x131A SWAP3 PUSH4 0xFFFFFFFF SWAP1 SWAP2 AND SWAP2 DUP5 SWAP2 SWAP1 DUP9 SWAP1 DUP9 SWAP1 DUP2 SWAP1 DUP5 ADD DUP4 DUP3 DUP1 DUP3 DUP5 CALLDATACOPY PUSH1 0x0 SWAP3 ADD DUP3 SWAP1 MSTORE POP SWAP3 POP PUSH2 0x187E SWAP2 POP POP JUMP JUMPDEST SWAP8 SWAP7 POP POP POP POP POP POP POP JUMP JUMPDEST PUSH2 0x132D PUSH2 0x171A JUMP JUMPDEST PUSH1 0x40 MLOAD PUSH4 0xA9059CBB PUSH1 0xE0 SHL DUP2 MSTORE PUSH1 0x1 PUSH1 0x1 PUSH1 0xA0 SHL SUB DUP4 DUP2 AND PUSH1 0x4 DUP4 ADD MSTORE PUSH1 0x24 DUP3 ADD DUP4 SWAP1 MSTORE PUSH32 0x0 AND SWAP1 PUSH4 0xA9059CBB SWAP1 PUSH1 0x44 ADD PUSH1 0x20 PUSH1 0x40 MLOAD DUP1 DUP4 SUB DUP2 PUSH1 0x0 DUP8 GAS CALL ISZERO DUP1 ISZERO PUSH2 0x139C JUMPI RETURNDATASIZE PUSH1 0x0 DUP1 RETURNDATACOPY RETURNDATASIZE PUSH1 0x0 REVERT JUMPDEST POP POP POP POP PUSH1 0x40 MLOAD RETURNDATASIZE PUSH1 0x1F NOT PUSH1 0x1F DUP3 ADD AND DUP3 ADD DUP1 PUSH1 0x40 MSTORE POP DUP2 ADD SWAP1 PUSH2 0x13C0 SWAP2 SWAP1 PUSH2 0x2276 JUMP JUMPDEST PUSH2 0x13FE JUMPI PUSH1 0x40 MLOAD PUSH3 0x461BCD PUSH1 0xE5 SHL DUP2 MSTORE PUSH1 0x20 PUSH1 0x4 DUP3 ADD MSTORE PUSH1 0xF PUSH1 0x24 DUP3 ADD MSTORE PUSH15 0x15DA5D1A191C985DC819985A5B1959 PUSH1 0x8A SHL PUSH1 0x44 DUP3 ADD MSTORE PUSH1 0x64 ADD PUSH2 0x59D JUMP JUMPDEST DUP2 PUSH1 0x1 PUSH1 0x1 PUSH1 0xA0 SHL SUB AND PUSH32 0xC0819C13BE868895EB93E40EACEB96DE976442FA1D404E5C55F14BB65A8C489A DUP3 PUSH1 0x40 MLOAD PUSH2 0x1439 SWAP2 DUP2 MSTORE PUSH1 0x20 ADD SWAP1 JUMP JUMPDEST PUSH1 0x40 MLOAD DUP1 SWAP2 SUB SWAP1 LOG2 POP POP JUMP JUMPDEST PUSH1 0x40 DUP1 MLOAD DUP1 DUP3 ADD SWAP1 SWAP2 MSTORE PUSH1 0x0 DUP1 DUP3 MSTORE PUSH1 0x20 DUP3 ADD MSTORE PUSH1 0x0 CALLER DUP10 DUP10 DUP10 DUP10 DUP10 PUSH1 0x40 MLOAD PUSH1 0x20 ADD PUSH2 0x1476 SWAP7 SWAP6 SWAP5 SWAP4 SWAP3 SWAP2 SWAP1 PUSH2 0x2389 JUMP JUMPDEST PUSH1 0x40 DUP1 MLOAD PUSH1 0x1F NOT DUP2 DUP5 SUB ADD DUP2 MSTORE PUSH1 0x3 SLOAD PUSH1 0x20 PUSH1 0x1F DUP9 ADD DUP2 SWAP1 DIV DUP2 MUL DUP6 ADD DUP2 ADD SWAP1 SWAP4 MSTORE DUP7 DUP5 MSTORE SWAP1 SWAP4 POP PUSH2 0x14CE SWAP3 PUSH4 0xFFFFFFFF SWAP1 SWAP2 AND SWAP2 DUP5 SWAP2 SWAP1 DUP9 SWAP1 DUP9 SWAP1 DUP2 SWAP1 DUP5 ADD DUP4 DUP3 DUP1 DUP3 DUP5 CALLDATACOPY PUSH1 0x0 SWAP3 ADD DUP3 SWAP1 MSTORE POP SWAP3 POP PUSH2 0x187E SWAP2 POP POP JUMP JUMPDEST SWAP10 SWAP9 POP POP POP POP POP POP POP POP POP JUMP JUMPDEST PUSH2 0x14E3 PUSH2 0x171A JUMP JUMPDEST PUSH1 0x40 MLOAD PUSH4 0xCA5EB5E1 PUSH1 0xE0 SHL DUP2 MSTORE PUSH1 0x1 PUSH1 0x1 PUSH1 0xA0 SHL SUB DUP3 DUP2 AND PUSH1 0x4 DUP4 ADD MSTORE PUSH32 0x0 AND SWAP1 PUSH4 0xCA5EB5E1 SWAP1 PUSH1 0x24 ADD PUSH1 0x0 PUSH1 0x40 MLOAD DUP1 DUP4 SUB DUP2 PUSH1 0x0 DUP8 DUP1 EXTCODESIZE ISZERO DUP1 ISZERO PUSH2 0x1546 JUMPI PUSH1 0x0 DUP1 REVERT JUMPDEST POP GAS CALL ISZERO DUP1 ISZERO PUSH2 0x9AB JUMPI RETURNDATASIZE PUSH1 0x0 DUP1 RETURNDATACOPY RETURNDATASIZE PUSH1 0x0 REVERT JUMPDEST PUSH1 0x40 DUP1 MLOAD DUP1 DUP3 ADD SWAP1 SWAP2 MSTORE PUSH1 0x0 DUP1 DUP3 MSTORE PUSH1 0x20 DUP3 ADD MSTORE PUSH1 0x0 CALLER DUP9 DUP9 DUP9 DUP9 PUSH1 0x40 MLOAD PUSH1 0x20 ADD PUSH2 0x1589 SWAP6 SWAP5 SWAP4 SWAP3 SWAP2 SWAP1 PUSH2 0x2447 JUMP JUMPDEST PUSH1 0x40 DUP1 MLOAD PUSH1 0x1F NOT DUP2 DUP5 SUB ADD DUP2 MSTORE PUSH1 0x3 SLOAD PUSH1 0x20 PUSH1 0x1F DUP9 ADD DUP2 SWAP1 DIV DUP2 MUL DUP6 ADD DUP2 ADD SWAP1 SWAP4 MSTORE DUP7 DUP5 MSTORE SWAP1 SWAP4 POP PUSH2 0x15E1 SWAP3 PUSH4 0xFFFFFFFF SWAP1 SWAP2 AND SWAP2 DUP5 SWAP2 SWAP1 DUP9 SWAP1 DUP9 SWAP1 DUP2 SWAP1 DUP5 ADD DUP4 DUP3 DUP1 DUP3 DUP5 CALLDATACOPY PUSH1 0x0 SWAP3 ADD DUP3 SWAP1 MSTORE POP SWAP3 POP PUSH2 0x187E SWAP2 POP POP JUMP JUMPDEST SWAP9 SWAP8 POP POP POP POP POP POP POP POP JUMP JUMPDEST PUSH1 0x40 DUP1 MLOAD DUP1 DUP3 ADD SWAP1 SWAP2 MSTORE PUSH1 0x0 DUP1 DUP3 MSTORE PUSH1 0x20 DUP3 ADD MSTORE PUSH1 0x40 DUP1 MLOAD PUSH1 0x60 PUSH1 0x20 DUP3 ADD DUP2 SWAP1 MSTORE PUSH1 0x13 PUSH1 0x80 DUP4 ADD MSTORE PUSH19 0x18DB185A5B511A5CDC1D5D1959105B5BDD5B9D PUSH1 0x6A SHL PUSH1 0xA0 DUP4 ADD MSTORE CALLER SWAP3 DUP3 ADD SWAP3 SWAP1 SWAP3 MSTORE SWAP1 DUP2 ADD DUP6 SWAP1 MSTORE PUSH1 0x0 SWAP1 PUSH1 0xC0 ADD PUSH1 0x40 DUP1 MLOAD PUSH1 0x1F NOT DUP2 DUP5 SUB ADD DUP2 MSTORE PUSH1 0x3 SLOAD PUSH1 0x20 PUSH1 0x1F DUP9 ADD DUP2 SWAP1 DIV DUP2 MUL DUP6 ADD DUP2 ADD SWAP1 SWAP4 MSTORE DUP7 DUP5 MSTORE SWAP1 SWAP4 POP PUSH2 0x169D SWAP3 PUSH4 0xFFFFFFFF SWAP1 SWAP2 AND SWAP2 DUP5 SWAP2 SWAP1 DUP9 SWAP1 DUP9 SWAP1 DUP2 SWAP1 DUP5 ADD DUP4 DUP3 DUP1 DUP3 DUP5 CALLDATACOPY PUSH1 0x0 SWAP3 ADD DUP3 SWAP1 MSTORE POP SWAP3 POP PUSH2 0x187E SWAP2 POP POP JUMP JUMPDEST SWAP6 SWAP5 POP POP POP POP POP JUMP JUMPDEST PUSH2 0x16AE PUSH2 0x171A JUMP JUMPDEST PUSH1 0x1 PUSH1 0x1 PUSH1 0xA0 SHL SUB DUP2 AND PUSH2 0x16D8 JUMPI PUSH1 0x40 MLOAD PUSH4 0x1E4FBDF7 PUSH1 0xE0 SHL DUP2 MSTORE PUSH1 0x0 PUSH1 0x4 DUP3 ADD MSTORE PUSH1 0x24 ADD PUSH2 0x59D JUMP JUMPDEST PUSH2 0x16E1 DUP2 PUSH2 0x1A56 JUMP JUMPDEST POP JUMP JUMPDEST PUSH1 0x0 PUSH1 0x20 DUP3 ADD DUP1 CALLDATALOAD SWAP1 PUSH1 0x1 SWAP1 DUP4 SWAP1 PUSH2 0x16FC SWAP1 DUP7 PUSH2 0x1CE4 JUMP JUMPDEST PUSH4 0xFFFFFFFF AND DUP2 MSTORE PUSH1 0x20 DUP2 ADD SWAP2 SWAP1 SWAP2 MSTORE PUSH1 0x40 ADD PUSH1 0x0 KECCAK256 SLOAD EQ SWAP3 SWAP2 POP POP JUMP JUMPDEST PUSH1 0x0 SLOAD PUSH1 0x1 PUSH1 0x1 PUSH1 0xA0 SHL SUB AND CALLER EQ PUSH2 0xD3C JUMPI PUSH1 0x40 MLOAD PUSH4 0x118CDAA7 PUSH1 0xE0 SHL DUP2 MSTORE CALLER PUSH1 0x4 DUP3 ADD MSTORE PUSH1 0x24 ADD PUSH2 0x59D JUMP JUMPDEST PUSH4 0xFFFFFFFF DUP2 AND PUSH1 0x0 SWAP1 DUP2 MSTORE PUSH1 0x1 PUSH1 0x20 MSTORE PUSH1 0x40 DUP2 KECCAK256 SLOAD DUP1 PUSH2 0x1783 JUMPI PUSH1 0x40 MLOAD PUSH4 0xF6FF4FB7 PUSH1 0xE0 SHL DUP2 MSTORE PUSH4 0xFFFFFFFF DUP5 AND PUSH1 0x4 DUP3 ADD MSTORE PUSH1 0x24 ADD PUSH2 0x59D JUMP JUMPDEST SWAP3 SWAP2 POP POP JUMP JUMPDEST PUSH1 0x0 DUP1 DUP1 DUP1 PUSH2 0x179A DUP9 DUP11 ADD DUP11 PUSH2 0x255B JUMP JUMPDEST POP POP PUSH1 0x40 DUP1 MLOAD DUP1 DUP3 ADD SWAP1 SWAP2 MSTORE PUSH1 0xF DUP2 MSTORE PUSH15 0x191A5CDC1D5D1954995CDBDB1D9959 PUSH1 0x8A SHL PUSH1 0x20 SWAP1 SWAP2 ADD MSTORE POP POP POP POP POP POP POP POP POP POP POP POP POP JUMP JUMPDEST PUSH4 0xFFFFFFFF DUP3 AND PUSH1 0x0 DUP2 DUP2 MSTORE PUSH1 0x1 PUSH1 0x20 SWAP1 DUP2 MSTORE PUSH1 0x40 SWAP2 DUP3 SWAP1 KECCAK256 DUP5 SWAP1 SSTORE DUP2 MLOAD SWAP3 DUP4 MSTORE DUP3 ADD DUP4 SWAP1 MSTORE PUSH32 0x238399D427B947898EDB290F5FF0F9109849B1C3BA196A42E35F00C50A54B98B SWAP2 ADD PUSH1 0x40 MLOAD DUP1 SWAP2 SUB SWAP1 LOG1 POP POP JUMP JUMPDEST PUSH1 0x2 DUP1 SLOAD SUB PUSH2 0x1878 JUMPI PUSH1 0x40 MLOAD PUSH3 0x461BCD PUSH1 0xE5 SHL DUP2 MSTORE PUSH1 0x20 PUSH1 0x4 DUP3 ADD MSTORE PUSH1 0x1F PUSH1 0x24 DUP3 ADD MSTORE PUSH32 0x5265656E7472616E637947756172643A207265656E7472616E742063616C6C00 PUSH1 0x44 DUP3 ADD MSTORE PUSH1 0x64 ADD PUSH2 0x59D JUMP JUMPDEST PUSH1 0x2 DUP1 SSTORE JUMP JUMPDEST PUSH1 0x40 DUP1 MLOAD DUP1 DUP3 ADD SWAP1 SWAP2 MSTORE PUSH1 0x0 DUP1 DUP3 MSTORE PUSH1 0x20 DUP3 ADD MSTORE PUSH32 0x0 PUSH1 0x1 PUSH1 0x1 PUSH1 0xA0 SHL SUB AND PUSH4 0xDDC28C58 PUSH1 0x40 MLOAD DUP1 PUSH1 0xA0 ADD PUSH1 0x40 MSTORE DUP1 DUP9 PUSH4 0xFFFFFFFF AND DUP2 MSTORE PUSH1 0x20 ADD PUSH2 0x18E1 DUP10 PUSH2 0x1747 JUMP JUMPDEST DUP2 MSTORE PUSH1 0x20 ADD DUP8 DUP2 MSTORE PUSH1 0x20 ADD DUP7 DUP2 MSTORE PUSH1 0x20 ADD DUP6 ISZERO ISZERO DUP2 MSTORE POP ADDRESS PUSH1 0x40 MLOAD DUP4 PUSH4 0xFFFFFFFF AND PUSH1 0xE0 SHL DUP2 MSTORE PUSH1 0x4 ADD PUSH2 0x1916 SWAP3 SWAP2 SWAP1 PUSH2 0x25BB JUMP JUMPDEST PUSH1 0x40 DUP1 MLOAD DUP1 DUP4 SUB DUP2 DUP7 GAS STATICCALL ISZERO DUP1 ISZERO PUSH2 0x1932 JUMPI RETURNDATASIZE PUSH1 0x0 DUP1 RETURNDATACOPY RETURNDATASIZE PUSH1 0x0 REVERT JUMPDEST POP POP POP POP PUSH1 0x40 MLOAD RETURNDATASIZE PUSH1 0x1F NOT PUSH1 0x1F DUP3 ADD AND DUP3 ADD DUP1 PUSH1 0x40 MSTORE POP DUP2 ADD SWAP1 PUSH2 0x169D SWAP2 SWAP1 PUSH2 0x2682 JUMP JUMPDEST PUSH2 0x195E PUSH2 0x1C84 JUMP JUMPDEST PUSH1 0x0 PUSH2 0x196D DUP5 PUSH1 0x0 ADD MLOAD PUSH2 0x1AB3 JUMP JUMPDEST PUSH1 0x20 DUP6 ADD MLOAD SWAP1 SWAP2 POP ISZERO PUSH2 0x1987 JUMPI PUSH2 0x1987 DUP5 PUSH1 0x20 ADD MLOAD PUSH2 0x1ADB JUMP JUMPDEST PUSH32 0x0 PUSH1 0x1 PUSH1 0x1 PUSH1 0xA0 SHL SUB AND PUSH4 0x2637A450 DUP3 PUSH1 0x40 MLOAD DUP1 PUSH1 0xA0 ADD PUSH1 0x40 MSTORE DUP1 DUP12 PUSH4 0xFFFFFFFF AND DUP2 MSTORE PUSH1 0x20 ADD PUSH2 0x19D7 DUP13 PUSH2 0x1747 JUMP JUMPDEST DUP2 MSTORE PUSH1 0x20 ADD DUP11 DUP2 MSTORE PUSH1 0x20 ADD DUP10 DUP2 MSTORE PUSH1 0x20 ADD PUSH1 0x0 DUP10 PUSH1 0x20 ADD MLOAD GT ISZERO ISZERO DUP2 MSTORE POP DUP7 PUSH1 0x40 MLOAD DUP5 PUSH4 0xFFFFFFFF AND PUSH1 0xE0 SHL DUP2 MSTORE PUSH1 0x4 ADD PUSH2 0x1A13 SWAP3 SWAP2 SWAP1 PUSH2 0x25BB JUMP JUMPDEST PUSH1 0x80 PUSH1 0x40 MLOAD DUP1 DUP4 SUB DUP2 DUP6 DUP9 GAS CALL ISZERO DUP1 ISZERO PUSH2 0x1A31 JUMPI RETURNDATASIZE PUSH1 0x0 DUP1 RETURNDATACOPY RETURNDATASIZE PUSH1 0x0 REVERT JUMPDEST POP POP POP POP POP PUSH1 0x40 MLOAD RETURNDATASIZE PUSH1 0x1F NOT PUSH1 0x1F DUP3 ADD AND DUP3 ADD DUP1 PUSH1 0x40 MSTORE POP DUP2 ADD SWAP1 PUSH2 0x131A SWAP2 SWAP1 PUSH2 0x269E JUMP JUMPDEST PUSH1 0x0 DUP1 SLOAD PUSH1 0x1 PUSH1 0x1 PUSH1 0xA0 SHL SUB DUP4 DUP2 AND PUSH20 0xFFFFFFFFFFFFFFFFFFFFFFFFFFFFFFFFFFFFFFFF NOT DUP4 AND DUP2 OR DUP5 SSTORE PUSH1 0x40 MLOAD SWAP2 SWAP1 SWAP3 AND SWAP3 DUP4 SWAP2 PUSH32 0x8BE0079C531659141344CD1FD0A4F28419497F9722A3DAAFE3B4186F6B6457E0 SWAP2 SWAP1 LOG3 POP POP JUMP JUMPDEST PUSH1 0x0 DUP2 CALLVALUE EQ PUSH2 0x1AD7 JUMPI PUSH1 0x40 MLOAD PUSH4 0x4FB8209 PUSH1 0xE5 SHL DUP2 MSTORE CALLVALUE PUSH1 0x4 DUP3 ADD MSTORE PUSH1 0x24 ADD PUSH2 0x59D JUMP JUMPDEST POP SWAP1 JUMP JUMPDEST PUSH1 0x0 PUSH32 0x0 PUSH1 0x1 PUSH1 0x1 PUSH1 0xA0 SHL SUB AND PUSH4 0xE4FE1D94 PUSH1 0x40 MLOAD DUP2 PUSH4 0xFFFFFFFF AND PUSH1 0xE0 SHL DUP2 MSTORE PUSH1 0x4 ADD PUSH1 0x20 PUSH1 0x40 MLOAD DUP1 DUP4 SUB DUP2 DUP7 GAS STATICCALL ISZERO DUP1 ISZERO PUSH2 0x1B3B JUMPI RETURNDATASIZE PUSH1 0x0 DUP1 RETURNDATACOPY RETURNDATASIZE PUSH1 0x0 REVERT JUMPDEST POP POP POP POP PUSH1 0x40 MLOAD RETURNDATASIZE PUSH1 0x1F NOT PUSH1 0x1F DUP3 ADD AND DUP3 ADD DUP1 PUSH1 0x40 MSTORE POP DUP2 ADD SWAP1 PUSH2 0x1B5F SWAP2 SWAP1 PUSH2 0x2713 JUMP JUMPDEST SWAP1 POP PUSH1 0x1 PUSH1 0x1 PUSH1 0xA0 SHL SUB DUP2 AND PUSH2 0x1B88 JUMPI PUSH1 0x40 MLOAD PUSH4 0x29B99A95 PUSH1 0xE1 SHL DUP2 MSTORE PUSH1 0x4 ADD PUSH1 0x40 MLOAD DUP1 SWAP2 SUB SWAP1 REVERT JUMPDEST PUSH1 0x40 DUP1 MLOAD CALLER PUSH1 0x24 DUP3 ADD DUP2 SWAP1 MSTORE PUSH32 0x0 PUSH1 0x1 PUSH1 0x1 PUSH1 0xA0 SHL SUB DUP2 DUP2 AND PUSH1 0x44 DUP6 ADD MSTORE PUSH1 0x64 DUP1 DUP6 ADD DUP9 SWAP1 MSTORE DUP6 MLOAD DUP1 DUP7 SUB SWAP1 SWAP2 ADD DUP2 MSTORE PUSH1 0x84 SWAP1 SWAP5 ADD SWAP1 SWAP5 MSTORE PUSH1 0x20 DUP4 ADD DUP1 MLOAD PUSH1 0x1 PUSH1 0x1 PUSH1 0xE0 SHL SUB AND PUSH4 0x23B872DD PUSH1 0xE0 SHL OR SWAP1 MSTORE PUSH2 0x68F SWAP4 DUP6 AND SWAP3 DUP7 SWAP1 PUSH2 0x1C0D SWAP1 DUP6 SWAP1 PUSH2 0x1C13 JUMP JUMPDEST POP POP POP POP JUMP JUMPDEST PUSH1 0x0 DUP1 PUSH1 0x20 PUSH1 0x0 DUP5 MLOAD PUSH1 0x20 DUP7 ADD PUSH1 0x0 DUP9 GAS CALL DUP1 PUSH2 0x1C36 JUMPI PUSH1 0x40 MLOAD RETURNDATASIZE PUSH1 0x0 DUP3 RETURNDATACOPY RETURNDATASIZE DUP2 REVERT JUMPDEST POP POP PUSH1 0x0 MLOAD RETURNDATASIZE SWAP2 POP DUP2 ISZERO PUSH2 0x1C4E JUMPI DUP1 PUSH1 0x1 EQ ISZERO PUSH2 0x1C5B JUMP JUMPDEST PUSH1 0x1 PUSH1 0x1 PUSH1 0xA0 SHL SUB DUP5 AND EXTCODESIZE ISZERO JUMPDEST ISZERO PUSH2 0x1C0D JUMPI PUSH1 0x40 MLOAD PUSH4 0x5274AFE7 PUSH1 0xE0 SHL DUP2 MSTORE PUSH1 0x1 PUSH1 0x1 PUSH1 0xA0 SHL SUB DUP6 AND PUSH1 0x4 DUP3 ADD MSTORE PUSH1 0x24 ADD PUSH2 0x59D JUMP JUMPDEST PUSH1 0x40 MLOAD DUP1 PUSH1 0x60 ADD PUSH1 0x40 MSTORE DUP1 PUSH1 0x0 DUP1 NOT AND DUP2 MSTORE PUSH1 0x20 ADD PUSH1 0x0 PUSH1 0x1 PUSH1 0x1 PUSH1 0x40 SHL SUB AND DUP2 MSTORE PUSH1 0x20 ADD PUSH2 0x1CC6 PUSH1 0x40 MLOAD DUP1 PUSH1 0x40 ADD PUSH1 0x40 MSTORE DUP1 PUSH1 0x0 DUP2 MSTORE PUSH1 0x20 ADD PUSH1 0x0 DUP2 MSTORE POP SWAP1 JUMP JUMPDEST SWAP1 MSTORE SWAP1 JUMP JUMPDEST DUP1 CALLDATALOAD PUSH4 0xFFFFFFFF DUP2 AND DUP2 EQ PUSH2 0x1CDF JUMPI PUSH1 0x0 DUP1 REVERT JUMPDEST SWAP2 SWAP1 POP JUMP JUMPDEST PUSH1 0x0 PUSH1 0x20 DUP3 DUP5 SUB SLT ISZERO PUSH2 0x1CF6 JUMPI PUSH1 0x0 DUP1 REVERT JUMPDEST PUSH2 0x1CFF DUP3 PUSH2 0x1CCB JUMP JUMPDEST SWAP4 SWAP3 POP POP POP JUMP JUMPDEST PUSH1 0x0 PUSH1 0x60 DUP3 DUP5 SUB SLT ISZERO PUSH2 0x1D18 JUMPI PUSH1 0x0 DUP1 REVERT JUMPDEST POP SWAP2 SWAP1 POP JUMP JUMPDEST PUSH1 0x0 DUP1 DUP4 PUSH1 0x1F DUP5 ADD SLT PUSH2 0x1D30 JUMPI PUSH1 0x0 DUP1 REVERT JUMPDEST POP DUP2 CALLDATALOAD PUSH1 0x1 PUSH1 0x1 PUSH1 0x40 SHL SUB DUP2 GT ISZERO PUSH2 0x1D47 JUMPI PUSH1 0x0 DUP1 REVERT JUMPDEST PUSH1 0x20 DUP4 ADD SWAP2 POP DUP4 PUSH1 0x20 DUP3 DUP6 ADD ADD GT ISZERO PUSH2 0x1D5F JUMPI PUSH1 0x0 DUP1 REVERT JUMPDEST SWAP3 POP SWAP3 SWAP1 POP JUMP JUMPDEST PUSH1 0x1 PUSH1 0x1 PUSH1 0xA0 SHL SUB DUP2 AND DUP2 EQ PUSH2 0x16E1 JUMPI PUSH1 0x0 DUP1 REVERT JUMPDEST PUSH1 0x0 DUP1 PUSH1 0x0 DUP1 PUSH1 0x0 DUP1 PUSH1 0x0 PUSH1 0xE0 DUP9 DUP11 SUB SLT ISZERO PUSH2 0x1D96 JUMPI PUSH1 0x0 DUP1 REVERT JUMPDEST PUSH2 0x1DA0 DUP10 DUP10 PUSH2 0x1D06 JUMP JUMPDEST SWAP7 POP PUSH1 0x60 DUP9 ADD CALLDATALOAD SWAP6 POP PUSH1 0x80 DUP9 ADD CALLDATALOAD PUSH1 0x1 PUSH1 0x1 PUSH1 0x40 SHL SUB DUP2 GT ISZERO PUSH2 0x1DC2 JUMPI PUSH1 0x0 DUP1 REVERT JUMPDEST PUSH2 0x1DCE DUP11 DUP3 DUP12 ADD PUSH2 0x1D1E JUMP JUMPDEST SWAP1 SWAP7 POP SWAP5 POP POP PUSH1 0xA0 DUP9 ADD CALLDATALOAD PUSH2 0x1DE2 DUP2 PUSH2 0x1D66 JUMP JUMPDEST SWAP3 POP PUSH1 0xC0 DUP9 ADD CALLDATALOAD PUSH1 0x1 PUSH1 0x1 PUSH1 0x40 SHL SUB DUP2 GT ISZERO PUSH2 0x1DFD JUMPI PUSH1 0x0 DUP1 REVERT JUMPDEST PUSH2 0x1E09 DUP11 DUP3 DUP12 ADD PUSH2 0x1D1E JUMP JUMPDEST SWAP9 SWAP12 SWAP8 SWAP11 POP SWAP6 SWAP9 POP SWAP4 SWAP7 SWAP3 SWAP6 SWAP3 SWAP4 POP POP POP JUMP JUMPDEST PUSH1 0x0 DUP1 PUSH1 0x40 DUP4 DUP6 SUB SLT ISZERO PUSH2 0x1E2F JUMPI PUSH1 0x0 DUP1 REVERT JUMPDEST PUSH2 0x1E38 DUP4 PUSH2 0x1CCB JUMP JUMPDEST SWAP5 PUSH1 0x20 SWAP4 SWAP1 SWAP4 ADD CALLDATALOAD SWAP4 POP POP POP JUMP JUMPDEST PUSH4 0x4E487B71 PUSH1 0xE0 SHL PUSH1 0x0 MSTORE PUSH1 0x41 PUSH1 0x4 MSTORE PUSH1 0x24 PUSH1 0x0 REVERT JUMPDEST PUSH1 0x0 DUP3 PUSH1 0x1F DUP4 ADD SLT PUSH2 0x1E6D JUMPI PUSH1 0x0 DUP1 REVERT JUMPDEST DUP2 CALLDATALOAD PUSH1 0x1 PUSH1 0x1 PUSH1 0x40 SHL SUB DUP2 GT ISZERO PUSH2 0x1E86 JUMPI PUSH2 0x1E86 PUSH2 0x1E46 JUMP JUMPDEST PUSH1 0x40 MLOAD PUSH1 0x1F DUP3 ADD PUSH1 0x1F NOT SWAP1 DUP2 AND PUSH1 0x3F ADD AND DUP2 ADD PUSH1 0x1 PUSH1 0x1 PUSH1 0x40 SHL SUB DUP2 GT DUP3 DUP3 LT OR ISZERO PUSH2 0x1EB4 JUMPI PUSH2 0x1EB4 PUSH2 0x1E46 JUMP JUMPDEST PUSH1 0x40 MSTORE DUP2 DUP2 MSTORE DUP4 DUP3 ADD PUSH1 0x20 ADD DUP6 LT ISZERO PUSH2 0x1ECC JUMPI PUSH1 0x0 DUP1 REVERT JUMPDEST DUP2 PUSH1 0x20 DUP6 ADD PUSH1 0x20 DUP4 ADD CALLDATACOPY PUSH1 0x0 SWAP2 DUP2 ADD PUSH1 0x20 ADD SWAP2 SWAP1 SWAP2 MSTORE SWAP4 SWAP3 POP POP POP JUMP JUMPDEST PUSH1 0x0 DUP1 PUSH1 0x0 DUP1 PUSH1 0x0 PUSH1 0x80 DUP7 DUP9 SUB SLT ISZERO PUSH2 0x1F01 JUMPI PUSH1 0x0 DUP1 REVERT JUMPDEST DUP6 CALLDATALOAD PUSH1 0x1 PUSH1 0x1 PUSH1 0x40 SHL SUB DUP2 GT ISZERO PUSH2 0x1F17 JUMPI PUSH1 0x0 DUP1 REVERT JUMPDEST PUSH2 0x1F23 DUP9 DUP3 DUP10 ADD PUSH2 0x1E5C JUMP JUMPDEST SWAP6 POP POP PUSH1 0x20 DUP7 ADD CALLDATALOAD PUSH1 0x1 PUSH1 0x1 PUSH1 0x40 SHL SUB DUP2 GT ISZERO PUSH2 0x1F3F JUMPI PUSH1 0x0 DUP1 REVERT JUMPDEST PUSH2 0x1F4B DUP9 DUP3 DUP10 ADD PUSH2 0x1E5C JUMP JUMPDEST SWAP5 POP POP PUSH1 0x40 DUP7 ADD CALLDATALOAD SWAP3 POP PUSH1 0x60 DUP7 ADD CALLDATALOAD PUSH1 0x1 PUSH1 0x1 PUSH1 0x40 SHL SUB DUP2 GT ISZERO PUSH2 0x1F6E JUMPI PUSH1 0x0 DUP1 REVERT JUMPDEST PUSH2 0x1F7A DUP9 DUP3 DUP10 ADD PUSH2 0x1D1E JUMP JUMPDEST SWAP7 SWAP10 SWAP6 SWAP9 POP SWAP4 SWAP7 POP SWAP3 SWAP5 SWAP4 SWAP3 POP POP POP JUMP JUMPDEST PUSH1 0x0 DUP1 PUSH1 0x0 DUP1 PUSH1 0x0 DUP1 PUSH1 0x0 PUSH1 0xC0 DUP9 DUP11 SUB SLT ISZERO PUSH2 0x1FA6 JUMPI PUSH1 0x0 DUP1 REVERT JUMPDEST DUP8 CALLDATALOAD SWAP7 POP PUSH1 0x20 DUP9 ADD CALLDATALOAD SWAP6 POP PUSH1 0x40 DUP9 ADD CALLDATALOAD PUSH1 0x1 PUSH1 0x1 PUSH1 0x40 SHL SUB DUP2 GT ISZERO PUSH2 0x1FCA JUMPI PUSH1 0x0 DUP1 REVERT JUMPDEST PUSH2 0x1FD6 DUP11 DUP3 DUP12 ADD PUSH2 0x1E5C JUMP JUMPDEST SWAP6 POP POP PUSH1 0x60 DUP9 ADD CALLDATALOAD PUSH1 0x1 PUSH1 0x1 PUSH1 0x40 SHL SUB DUP2 GT ISZERO PUSH2 0x1FF2 JUMPI PUSH1 0x0 DUP1 REVERT JUMPDEST PUSH2 0x1FFE DUP11 DUP3 DUP12 ADD PUSH2 0x1E5C JUMP JUMPDEST SWAP5 POP POP PUSH1 0x80 DUP9 ADD CALLDATALOAD SWAP3 POP PUSH1 0xA0 DUP9 ADD CALLDATALOAD PUSH1 0x1 PUSH1 0x1 PUSH1 0x40 SHL SUB DUP2 GT ISZERO PUSH2 0x1DFD JUMPI PUSH1 0x0 DUP1 REVERT JUMPDEST PUSH1 0x0 DUP1 PUSH1 0x0 PUSH1 0x40 DUP5 DUP7 SUB SLT ISZERO PUSH2 0x2036 JUMPI PUSH1 0x0 DUP1 REVERT JUMPDEST DUP4 CALLDATALOAD SWAP3 POP PUSH1 0x20 DUP5 ADD CALLDATALOAD PUSH1 0x1 PUSH1 0x1 PUSH1 0x40 SHL SUB DUP2 GT ISZERO PUSH2 0x2053 JUMPI PUSH1 0x0 DUP1 REVERT JUMPDEST PUSH2 0x205F DUP7 DUP3 DUP8 ADD PUSH2 0x1D1E JUMP JUMPDEST SWAP5 SWAP8 SWAP1 SWAP7 POP SWAP4 SWAP5 POP POP POP POP JUMP JUMPDEST PUSH1 0x0 DUP1 PUSH1 0x0 DUP1 PUSH1 0xA0 DUP6 DUP8 SUB SLT ISZERO PUSH2 0x2082 JUMPI PUSH1 0x0 DUP1 REVERT JUMPDEST PUSH2 0x208C DUP7 DUP7 PUSH2 0x1D06 JUMP JUMPDEST SWAP4 POP PUSH1 0x60 DUP6 ADD CALLDATALOAD PUSH1 0x1 PUSH1 0x1 PUSH1 0x40 SHL SUB DUP2 GT ISZERO PUSH2 0x20A7 JUMPI PUSH1 0x0 DUP1 REVERT JUMPDEST PUSH2 0x20B3 DUP8 DUP3 DUP9 ADD PUSH2 0x1D1E JUMP JUMPDEST SWAP1 SWAP5 POP SWAP3 POP POP PUSH1 0x80 DUP6 ADD CALLDATALOAD PUSH2 0x20C7 DUP2 PUSH2 0x1D66 JUMP JUMPDEST SWAP4 SWAP7 SWAP3 SWAP6 POP SWAP1 SWAP4 POP POP JUMP JUMPDEST PUSH1 0x0 DUP1 PUSH1 0x0 DUP1 PUSH1 0x0 DUP1 PUSH1 0xA0 DUP8 DUP10 SUB SLT ISZERO PUSH2 0x20EB JUMPI PUSH1 0x0 DUP1 REVERT JUMPDEST DUP7 CALLDATALOAD PUSH1 0x1 PUSH1 0x1 PUSH1 0x40 SHL SUB DUP2 GT ISZERO PUSH2 0x2101 JUMPI PUSH1 0x0 DUP1 REVERT JUMPDEST PUSH2 0x210D DUP10 DUP3 DUP11 ADD PUSH2 0x1E5C JUMP JUMPDEST SWAP7 POP POP PUSH1 0x20 DUP8 ADD CALLDATALOAD PUSH1 0x1 PUSH1 0x1 PUSH1 0x40 SHL SUB DUP2 GT ISZERO PUSH2 0x2129 JUMPI PUSH1 0x0 DUP1 REVERT JUMPDEST PUSH2 0x2135 DUP10 DUP3 DUP11 ADD PUSH2 0x1E5C JUMP JUMPDEST SWAP6 POP POP PUSH1 0x40 DUP8 ADD CALLDATALOAD PUSH1 0x1 PUSH1 0x1 PUSH1 0x40 SHL SUB DUP2 GT ISZERO PUSH2 0x2151 JUMPI PUSH1 0x0 DUP1 REVERT JUMPDEST PUSH2 0x215D DUP10 DUP3 DUP11 ADD PUSH2 0x1E5C JUMP JUMPDEST SWAP5 POP POP PUSH1 0x60 DUP8 ADD CALLDATALOAD SWAP3 POP PUSH1 0x80 DUP8 ADD CALLDATALOAD PUSH1 0x1 PUSH1 0x1 PUSH1 0x40 SHL SUB DUP2 GT ISZERO PUSH2 0x2180 JUMPI PUSH1 0x0 DUP1 REVERT JUMPDEST PUSH2 0x218C DUP10 DUP3 DUP11 ADD PUSH2 0x1D1E JUMP JUMPDEST SWAP8 SWAP11 SWAP7 SWAP10 POP SWAP5 SWAP8 POP SWAP3 SWAP6 SWAP4 SWAP5 SWAP3 POP POP POP JUMP JUMPDEST PUSH1 0x0 DUP1 PUSH1 0x0 DUP1 PUSH1 0x60 DUP6 DUP8 SUB SLT ISZERO PUSH2 0x21B4 JUMPI PUSH1 0x0 DUP1 REVERT JUMPDEST DUP5 CALLDATALOAD SWAP4 POP PUSH1 0x20 DUP6 ADD CALLDATALOAD PUSH1 0x1 PUSH1 0x1 PUSH1 0x40 SHL SUB DUP2 GT ISZERO PUSH2 0x21D1 JUMPI PUSH1 0x0 DUP1 REVERT JUMPDEST PUSH2 0x21DD DUP8 DUP3 DUP9 ADD PUSH2 0x1E5C JUMP JUMPDEST SWAP4 POP POP PUSH1 0x40 DUP6 ADD CALLDATALOAD PUSH1 0x1 PUSH1 0x1 PUSH1 0x40 SHL SUB DUP2 GT ISZERO PUSH2 0x21F9 JUMPI PUSH1 0x0 DUP1 REVERT JUMPDEST PUSH2 0x2205 DUP8 DUP3 DUP9 ADD PUSH2 0x1D1E JUMP JUMPDEST SWAP6 SWAP9 SWAP5 SWAP8 POP SWAP6 POP POP POP POP JUMP JUMPDEST PUSH1 0x0 DUP1 PUSH1 0x40 DUP4 DUP6 SUB SLT ISZERO PUSH2 0x2224 JUMPI PUSH1 0x0 DUP1 REVERT JUMPDEST DUP3 CALLDATALOAD PUSH2 0x1E38 DUP2 PUSH2 0x1D66 JUMP JUMPDEST PUSH1 0x0 PUSH1 0x20 DUP3 DUP5 SUB SLT ISZERO PUSH2 0x2241 JUMPI PUSH1 0x0 DUP1 REVERT JUMPDEST DUP2 CALLDATALOAD PUSH2 0x1CFF DUP2 PUSH2 0x1D66 JUMP JUMPDEST PUSH1 0x0 PUSH1 0x60 DUP3 DUP5 SUB SLT ISZERO PUSH2 0x225E JUMPI PUSH1 0x0 DUP1 REVERT JUMPDEST PUSH2 0x1CFF DUP4 DUP4 PUSH2 0x1D06 JUMP JUMPDEST DUP1 ISZERO ISZERO DUP2 EQ PUSH2 0x16E1 JUMPI PUSH1 0x0 DUP1 REVERT JUMPDEST PUSH1 0x0 PUSH1 0x20 DUP3 DUP5 SUB SLT ISZERO PUSH2 0x2288 JUMPI PUSH1 0x0 DUP1 REVERT JUMPDEST DUP2 MLOAD PUSH2 0x1CFF DUP2 PUSH2 0x2268 JUMP JUMPDEST PUSH1 0x0 DUP2 MLOAD DUP1 DUP5 MSTORE PUSH1 0x0 JUMPDEST DUP2 DUP2 LT ISZERO PUSH2 0x22B9 JUMPI PUSH1 0x20 DUP2 DUP6 ADD DUP2 ADD MLOAD DUP7 DUP4 ADD DUP3 ADD MSTORE ADD PUSH2 0x229D JUMP JUMPDEST POP PUSH1 0x0 PUSH1 0x20 DUP3 DUP7 ADD ADD MSTORE PUSH1 0x20 PUSH1 0x1F NOT PUSH1 0x1F DUP4 ADD AND DUP6 ADD ADD SWAP2 POP POP SWAP3 SWAP2 POP POP JUMP JUMPDEST PUSH1 0xA0 DUP2 MSTORE PUSH1 0x18 PUSH1 0xA0 DUP3 ADD MSTORE PUSH32 0x72657175657374536B696C6C566572696669636174696F6E0000000000000000 PUSH1 0xC0 DUP3 ADD MSTORE PUSH1 0x1 PUSH1 0x1 PUSH1 0xA0 SHL SUB DUP6 AND PUSH1 0x20 DUP3 ADD MSTORE PUSH1 0xE0 PUSH1 0x40 DUP3 ADD MSTORE PUSH1 0x0 PUSH2 0x232F PUSH1 0xE0 DUP4 ADD DUP7 PUSH2 0x2293 JUMP JUMPDEST DUP3 DUP2 SUB PUSH1 0x60 DUP5 ADD MSTORE PUSH2 0x2341 DUP2 DUP7 PUSH2 0x2293 JUMP JUMPDEST SWAP2 POP POP DUP3 PUSH1 0x80 DUP4 ADD MSTORE SWAP6 SWAP5 POP POP POP POP POP JUMP JUMPDEST PUSH1 0x60 DUP2 MSTORE PUSH1 0x0 PUSH2 0x2366 PUSH1 0x60 DUP4 ADD DUP7 PUSH2 0x2293 JUMP JUMPDEST DUP3 DUP2 SUB PUSH1 0x20 DUP5 ADD MSTORE PUSH2 0x2378 DUP2 DUP7 PUSH2 0x2293 JUMP JUMPDEST SWAP2 POP POP DUP3 PUSH1 0x40 DUP4 ADD MSTORE SWAP5 SWAP4 POP POP POP POP JUMP JUMPDEST PUSH1 0xE0 DUP2 MSTORE PUSH1 0xC PUSH1 0xE0 DUP3 ADD MSTORE PUSH12 0x726169736544697370757465 PUSH1 0xA0 SHL PUSH2 0x100 DUP3 ADD MSTORE PUSH1 0x1 PUSH1 0x1 PUSH1 0xA0 SHL SUB DUP8 AND PUSH1 0x20 DUP3 ADD MSTORE DUP6 PUSH1 0x40 DUP3 ADD MSTORE DUP5 PUSH1 0x60 DUP3 ADD MSTORE PUSH2 0x120 PUSH1 0x80 DUP3 ADD MSTORE PUSH1 0x0 PUSH2 0x23DD PUSH2 0x120 DUP4 ADD DUP7 PUSH2 0x2293 JUMP JUMPDEST DUP3 DUP2 SUB PUSH1 0xA0 DUP5 ADD MSTORE PUSH2 0x23EF DUP2 DUP7 PUSH2 0x2293 JUMP JUMPDEST SWAP2 POP POP DUP3 PUSH1 0xC0 DUP4 ADD MSTORE SWAP8 SWAP7 POP POP POP POP POP POP POP JUMP JUMPDEST DUP6 DUP2 MSTORE DUP5 PUSH1 0x20 DUP3 ADD MSTORE PUSH1 0xA0 PUSH1 0x40 DUP3 ADD MSTORE PUSH1 0x0 PUSH2 0x2422 PUSH1 0xA0 DUP4 ADD DUP7 PUSH2 0x2293 JUMP JUMPDEST DUP3 DUP2 SUB PUSH1 0x60 DUP5 ADD MSTORE PUSH2 0x2434 DUP2 DUP7 PUSH2 0x2293 JUMP JUMPDEST SWAP2 POP POP DUP3 PUSH1 0x80 DUP4 ADD MSTORE SWAP7 SWAP6 POP POP POP POP POP POP JUMP JUMPDEST PUSH1 0xC0 DUP2 MSTORE PUSH1 0x9 PUSH1 0xC0 DUP3 ADD MSTORE PUSH9 0x61736B417468656E61 PUSH1 0xB8 SHL PUSH1 0xE0 DUP3 ADD MSTORE PUSH1 0x1 PUSH1 0x1 PUSH1 0xA0 SHL SUB DUP7 AND PUSH1 0x20 DUP3 ADD MSTORE PUSH2 0x100 PUSH1 0x40 DUP3 ADD MSTORE PUSH1 0x0 PUSH2 0x248B PUSH2 0x100 DUP4 ADD DUP8 PUSH2 0x2293 JUMP JUMPDEST DUP3 DUP2 SUB PUSH1 0x60 DUP5 ADD MSTORE PUSH2 0x249D DUP2 DUP8 PUSH2 0x2293 JUMP JUMPDEST SWAP1 POP DUP3 DUP2 SUB PUSH1 0x80 DUP5 ADD MSTORE PUSH2 0x24B1 DUP2 DUP7 PUSH2 0x2293 JUMP JUMPDEST SWAP2 POP POP DUP3 PUSH1 0xA0 DUP4 ADD MSTORE SWAP7 SWAP6 POP POP POP POP POP POP JUMP JUMPDEST PUSH1 0x80 DUP2 MSTORE PUSH1 0x0 PUSH2 0x24D7 PUSH1 0x80 DUP4 ADD DUP8 PUSH2 0x2293 JUMP JUMPDEST DUP3 DUP2 SUB PUSH1 0x20 DUP5 ADD MSTORE PUSH2 0x24E9 DUP2 DUP8 PUSH2 0x2293 JUMP JUMPDEST SWAP1 POP DUP3 DUP2 SUB PUSH1 0x40 DUP5 ADD MSTORE PUSH2 0x24FD DUP2 DUP7 PUSH2 0x2293 JUMP JUMPDEST SWAP2 POP POP DUP3 PUSH1 0x60 DUP4 ADD MSTORE SWAP6 SWAP5 POP POP POP POP POP JUMP JUMPDEST PUSH1 0x80 DUP2 MSTORE PUSH1 0xD PUSH1 0x80 DUP3 ADD MSTORE PUSH13 0x63726561746544697370757465 PUSH1 0x98 SHL PUSH1 0xA0 DUP3 ADD MSTORE PUSH1 0x1 PUSH1 0x1 PUSH1 0xA0 SHL SUB DUP5 AND PUSH1 0x20 DUP3 ADD MSTORE DUP3 PUSH1 0x40 DUP3 ADD MSTORE PUSH1 0xC0 PUSH1 0x60 DUP3 ADD MSTORE PUSH1 0x0 PUSH2 0x169D PUSH1 0xC0 DUP4 ADD DUP5 PUSH2 0x2293 JUMP JUMPDEST PUSH1 0x0 DUP1 PUSH1 0x0 DUP1 PUSH1 0x80 DUP6 DUP8 SUB SLT ISZERO PUSH2 0x2571 JUMPI PUSH1 0x0 DUP1 REVERT JUMPDEST DUP5 CALLDATALOAD PUSH1 0x1 PUSH1 0x1 PUSH1 0x40 SHL SUB DUP2 GT ISZERO PUSH2 0x2587 JUMPI PUSH1 0x0 DUP1 REVERT JUMPDEST PUSH2 0x2593 DUP8 DUP3 DUP9 ADD PUSH2 0x1E5C JUMP JUMPDEST SWAP5 POP POP PUSH1 0x20 DUP6 ADD CALLDATALOAD PUSH2 0x25A4 DUP2 PUSH2 0x1D66 JUMP JUMPDEST SWAP3 POP PUSH1 0x40 DUP6 ADD CALLDATALOAD SWAP2 POP PUSH1 0x60 DUP6 ADD CALLDATALOAD PUSH2 0x20C7 DUP2 PUSH2 0x2268 JUMP JUMPDEST PUSH1 0x40 DUP2 MSTORE PUSH4 0xFFFFFFFF DUP4 MLOAD AND PUSH1 0x40 DUP3 ADD MSTORE PUSH1 0x20 DUP4 ADD MLOAD PUSH1 0x60 DUP3 ADD MSTORE PUSH1 0x0 PUSH1 0x40 DUP5 ADD MLOAD PUSH1 0xA0 PUSH1 0x80 DUP5 ADD MSTORE PUSH2 0x25F1 PUSH1 0xE0 DUP5 ADD DUP3 PUSH2 0x2293 JUMP JUMPDEST SWAP1 POP PUSH1 0x60 DUP6 ADD MLOAD PUSH1 0x3F NOT DUP5 DUP4 SUB ADD PUSH1 0xA0 DUP6 ADD MSTORE PUSH2 0x260E DUP3 DUP3 PUSH2 0x2293 JUMP JUMPDEST PUSH1 0x80 SWAP7 SWAP1 SWAP7 ADD MLOAD ISZERO ISZERO PUSH1 0xC0 DUP6 ADD MSTORE POP POP POP PUSH1 0x1 PUSH1 0x1 PUSH1 0xA0 SHL SUB SWAP2 SWAP1 SWAP2 AND PUSH1 0x20 SWAP1 SWAP2 ADD MSTORE SWAP1 JUMP JUMPDEST PUSH1 0x0 PUSH1 0x40 DUP3 DUP5 SUB SLT ISZERO PUSH2 0x2646 JUMPI PUSH1 0x0 DUP1 REVERT JUMPDEST PUSH1 0x40 DUP1 MLOAD SWAP1 DUP2 ADD PUSH1 0x1 PUSH1 0x1 PUSH1 0x40 SHL SUB DUP2 GT DUP3 DUP3 LT OR ISZERO PUSH2 0x2668 JUMPI PUSH2 0x2668 PUSH2 0x1E46 JUMP JUMPDEST PUSH1 0x40 MSTORE DUP3 MLOAD DUP2 MSTORE PUSH1 0x20 SWAP3 DUP4 ADD MLOAD SWAP3 DUP2 ADD SWAP3 SWAP1 SWAP3 MSTORE POP SWAP2 SWAP1 POP JUMP JUMPDEST PUSH1 0x0 PUSH1 0x40 DUP3 DUP5 SUB SLT ISZERO PUSH2 0x2694 JUMPI PUSH1 0x0 DUP1 REVERT JUMPDEST PUSH2 0x1CFF DUP4 DUP4 PUSH2 0x2634 JUMP JUMPDEST PUSH1 0x0 PUSH1 0x80 DUP3 DUP5 SUB SLT DUP1 ISZERO PUSH2 0x26B1 JUMPI PUSH1 0x0 DUP1 REVERT JUMPDEST POP PUSH1 0x40 MLOAD PUSH1 0x60 DUP2 ADD PUSH1 0x1 PUSH1 0x1 PUSH1 0x40 SHL SUB DUP2 GT DUP3 DUP3 LT OR ISZERO PUSH2 0x26D4 JUMPI PUSH2 0x26D4 PUSH2 0x1E46 JUMP JUMPDEST PUSH1 0x40 MSTORE DUP3 MLOAD DUP2 MSTORE PUSH1 0x20 DUP4 ADD MLOAD PUSH1 0x1 PUSH1 0x1 PUSH1 0x40 SHL SUB DUP2 AND DUP2 EQ PUSH2 0x26F5 JUMPI PUSH1 0x0 DUP1 REVERT JUMPDEST PUSH1 0x20 DUP3 ADD MSTORE PUSH2 0x2707 DUP5 PUSH1 0x40 DUP6 ADD PUSH2 0x2634 JUMP JUMPDEST PUSH1 0x40 DUP3 ADD MSTORE SWAP4 SWAP3 POP POP POP JUMP JUMPDEST PUSH1 0x0 PUSH1 0x20 DUP3 DUP5 SUB SLT ISZERO PUSH2 0x2725 JUMPI PUSH1 0x0 DUP1 REVERT JUMPDEST DUP2 MLOAD PUSH2 0x1CFF DUP2 PUSH2 0x1D66 JUMP INVALID LOG2 PUSH5 0x6970667358 0x22 SLT KECCAK256 DUP5 SWAP16 0x28 0xDF PUSH24 0xF47FF421438B2E7FA865C30E6E533D816FA6C98BD5FF4224 0xEB 0xC3 0xD0 PUSH5 0x736F6C6343 STOP ADDMOD SHR STOP CALLER "
		},
		"gasEstimates": {
			"creation": {
				"codeDepositCost": "2017200",
				"executionCost": "infinite",
				"totalCost": "infinite"
			},
			"external": {
				"allowInitializePath((uint32,bytes32,uint64))": "infinite",
				"askAthena(string,string,string,uint256,bytes)": "infinite",
				"claimDisputedAmount(uint256,bytes)": "infinite",
				"dstEid()": "2403",
				"endpoint()": "infinite",
				"isComposeMsgSender((uint32,bytes32,uint64),bytes,address)": "830",
				"lzReceive((uint32,bytes32,uint64),bytes32,bytes,address,bytes)": "infinite",
				"nextNonce(uint32,bytes32)": "435",
				"oAppVersion()": "275",
				"owner()": "2399",
				"peers(uint32)": "2596",
				"quoteAskAthena(string,string,string,uint256,bytes)": "infinite",
				"quoteClaimDisputedAmount(uint256,bytes)": "infinite",
				"quoteCreateDispute(uint256,string,bytes)": "infinite",
				"quoteRaiseDispute(uint256,uint256,string,string,uint256,bytes)": "infinite",
				"quoteRequestSkillVerification(string,string,uint256,bytes)": "infinite",
				"raiseDispute(uint256,uint256,string,string,uint256,bytes)": "infinite",
				"renounceOwnership()": "infinite",
				"requestSkillVerification(string,string,uint256,bytes)": "infinite",
				"setDelegate(address)": "infinite",
				"setDstEid(uint32)": "26775",
				"setPeer(uint32,bytes32)": "26083",
				"transferOwnership(address)": "infinite",
				"usdToken()": "infinite",
				"withdrawFees(address,uint256)": "infinite"
			},
			"internal": {
				"_lzReceive(struct Origin calldata,bytes32,bytes calldata,address,bytes calldata)": "infinite"
			}
		},
		"methodIdentifiers": {
			"allowInitializePath((uint32,bytes32,uint64))": "ff7bd03d",
			"askAthena(string,string,string,uint256,bytes)": "8b46e627",
			"claimDisputedAmount(uint256,bytes)": "819d9e38",
			"dstEid()": "734ff5f3",
			"endpoint()": "5e280f11",
			"isComposeMsgSender((uint32,bytes32,uint64),bytes,address)": "82413eac",
			"lzReceive((uint32,bytes32,uint64),bytes32,bytes,address,bytes)": "13137d65",
			"nextNonce(uint32,bytes32)": "7d25a05e",
			"oAppVersion()": "17442b70",
			"owner()": "8da5cb5b",
			"peers(uint32)": "bb0b6a53",
			"quoteAskAthena(string,string,string,uint256,bytes)": "d6d3bb38",
			"quoteClaimDisputedAmount(uint256,bytes)": "e8700687",
			"quoteCreateDispute(uint256,string,bytes)": "8dd2067c",
			"quoteRaiseDispute(uint256,uint256,string,string,uint256,bytes)": "bcd95793",
			"quoteRequestSkillVerification(string,string,uint256,bytes)": "9209cb39",
			"raiseDispute(uint256,uint256,string,string,uint256,bytes)": "48ee7f5d",
			"renounceOwnership()": "715018a6",
			"requestSkillVerification(string,string,uint256,bytes)": "3cf1edac",
			"setDelegate(address)": "ca5eb5e1",
			"setDstEid(uint32)": "0d14c92e",
			"setPeer(uint32,bytes32)": "3400288b",
			"transferOwnership(address)": "f2fde38b",
			"usdToken()": "f897a22b",
			"withdrawFees(address,uint256)": "ad3b1b47"
		}
	},
	"abi": [
		{
			"inputs": [
				{
					"internalType": "address",
					"name": "_endpoint",
					"type": "address"
				},
				{
					"internalType": "address",
					"name": "_owner",
					"type": "address"
				},
				{
					"internalType": "address",
					"name": "_usdToken",
					"type": "address"
				},
				{
					"internalType": "uint32",
					"name": "_dstEid",
					"type": "uint32"
				}
			],
			"stateMutability": "nonpayable",
			"type": "constructor"
		},
		{
			"inputs": [],
			"name": "InvalidDelegate",
			"type": "error"
		},
		{
			"inputs": [],
			"name": "InvalidEndpointCall",
			"type": "error"
		},
		{
			"inputs": [],
			"name": "LzTokenUnavailable",
			"type": "error"
		},
		{
			"inputs": [
				{
					"internalType": "uint32",
					"name": "eid",
					"type": "uint32"
				}
			],
			"name": "NoPeer",
			"type": "error"
		},
		{
			"inputs": [
				{
					"internalType": "uint256",
					"name": "msgValue",
					"type": "uint256"
				}
			],
			"name": "NotEnoughNative",
			"type": "error"
		},
		{
			"inputs": [
				{
					"internalType": "address",
					"name": "addr",
					"type": "address"
				}
			],
			"name": "OnlyEndpoint",
			"type": "error"
		},
		{
			"inputs": [
				{
					"internalType": "uint32",
					"name": "eid",
					"type": "uint32"
				},
				{
					"internalType": "bytes32",
					"name": "sender",
					"type": "bytes32"
				}
			],
			"name": "OnlyPeer",
			"type": "error"
		},
		{
			"inputs": [
				{
					"internalType": "address",
					"name": "owner",
					"type": "address"
				}
			],
			"name": "OwnableInvalidOwner",
			"type": "error"
		},
		{
			"inputs": [
				{
					"internalType": "address",
					"name": "account",
					"type": "address"
				}
			],
			"name": "OwnableUnauthorizedAccount",
			"type": "error"
		},
		{
			"inputs": [
				{
					"internalType": "address",
					"name": "token",
					"type": "address"
				}
			],
			"name": "SafeERC20FailedOperation",
			"type": "error"
		},
		{
			"anonymous": false,
			"inputs": [
				{
					"indexed": true,
					"internalType": "uint32",
					"name": "dstEid",
					"type": "uint32"
				},
				{
					"indexed": true,
					"internalType": "address",
					"name": "user",
					"type": "address"
				},
				{
					"indexed": false,
					"internalType": "uint256",
					"name": "jobId",
					"type": "uint256"
				},
				{
					"indexed": false,
					"internalType": "string",
					"name": "reason",
					"type": "string"
				}
			],
			"name": "DisputeCreated",
			"type": "event"
		},
		{
			"anonymous": false,
			"inputs": [
				{
					"indexed": true,
					"internalType": "uint32",
					"name": "dstEid",
					"type": "uint32"
				},
				{
					"indexed": true,
					"internalType": "address",
					"name": "user",
					"type": "address"
				},
				{
					"indexed": false,
					"internalType": "uint256",
					"name": "jobId",
					"type": "uint256"
				},
				{
					"indexed": false,
					"internalType": "uint256",
					"name": "disputedAmount",
					"type": "uint256"
				},
				{
					"indexed": false,
					"internalType": "string",
					"name": "disputeHash",
					"type": "string"
				},
				{
					"indexed": false,
					"internalType": "string",
					"name": "oracleName",
					"type": "string"
				},
				{
					"indexed": false,
					"internalType": "uint256",
					"name": "usdtFee",
					"type": "uint256"
				}
			],
			"name": "DisputeRaised",
			"type": "event"
		},
		{
			"anonymous": false,
			"inputs": [
				{
					"indexed": true,
					"internalType": "uint32",
					"name": "dstEid",
					"type": "uint32"
				},
				{
					"indexed": true,
					"internalType": "address",
					"name": "user",
					"type": "address"
				},
				{
					"indexed": false,
					"internalType": "uint256",
					"name": "disputeId",
					"type": "uint256"
				}
			],
			"name": "DisputedAmountClaimed",
			"type": "event"
		},
		{
			"anonymous": false,
			"inputs": [
				{
					"indexed": true,
					"internalType": "address",
					"name": "to",
					"type": "address"
				},
				{
					"indexed": false,
					"internalType": "uint256",
					"name": "amount",
					"type": "uint256"
				}
			],
			"name": "FeesWithdrawn",
			"type": "event"
		},
		{
			"anonymous": false,
			"inputs": [
				{
					"indexed": true,
					"internalType": "address",
					"name": "previousOwner",
					"type": "address"
				},
				{
					"indexed": true,
					"internalType": "address",
					"name": "newOwner",
					"type": "address"
				}
			],
			"name": "OwnershipTransferred",
			"type": "event"
		},
		{
			"anonymous": false,
			"inputs": [
				{
					"indexed": false,
					"internalType": "uint32",
					"name": "eid",
					"type": "uint32"
				},
				{
					"indexed": false,
					"internalType": "bytes32",
					"name": "peer",
					"type": "bytes32"
				}
			],
			"name": "PeerSet",
			"type": "event"
		},
		{
			"anonymous": false,
			"inputs": [
				{
					"indexed": true,
					"internalType": "uint32",
					"name": "dstEid",
					"type": "uint32"
				},
				{
					"indexed": true,
					"internalType": "address",
					"name": "user",
					"type": "address"
				},
				{
					"indexed": false,
					"internalType": "string",
					"name": "question",
					"type": "string"
				},
				{
					"indexed": false,
					"internalType": "string",
					"name": "contextHash",
					"type": "string"
				},
				{
					"indexed": false,
					"internalType": "string",
					"name": "oracleName",
					"type": "string"
				},
				{
					"indexed": false,
					"internalType": "uint256",
					"name": "usdtFee",
					"type": "uint256"
				}
			],
			"name": "QuestionAsked",
			"type": "event"
		},
		{
			"anonymous": false,
			"inputs": [
				{
					"indexed": true,
					"internalType": "uint32",
					"name": "dstEid",
					"type": "uint32"
				},
				{
					"indexed": true,
					"internalType": "address",
					"name": "user",
					"type": "address"
				},
				{
					"indexed": false,
					"internalType": "string",
					"name": "skill",
					"type": "string"
				},
				{
					"indexed": false,
					"internalType": "string",
					"name": "proofHash",
					"type": "string"
				},
				{
					"indexed": false,
					"internalType": "uint256",
					"name": "usdtFee",
					"type": "uint256"
				}
			],
			"name": "SkillVerificationRequested",
			"type": "event"
		},
		{
			"inputs": [
				{
					"components": [
						{
							"internalType": "uint32",
							"name": "srcEid",
							"type": "uint32"
						},
						{
							"internalType": "bytes32",
							"name": "sender",
							"type": "bytes32"
						},
						{
							"internalType": "uint64",
							"name": "nonce",
							"type": "uint64"
						}
					],
					"internalType": "struct Origin",
					"name": "origin",
					"type": "tuple"
				}
			],
			"name": "allowInitializePath",
			"outputs": [
				{
					"internalType": "bool",
					"name": "",
					"type": "bool"
				}
			],
			"stateMutability": "view",
			"type": "function"
		},
		{
			"inputs": [
				{
					"internalType": "string",
					"name": "question",
					"type": "string"
				},
				{
					"internalType": "string",
					"name": "contextHash",
					"type": "string"
				},
				{
					"internalType": "string",
					"name": "oracleName",
					"type": "string"
				},
				{
					"internalType": "uint256",
					"name": "usdtFee",
					"type": "uint256"
				},
				{
					"internalType": "bytes",
					"name": "_options",
					"type": "bytes"
				}
			],
			"name": "askAthena",
			"outputs": [],
			"stateMutability": "payable",
			"type": "function"
		},
		{
			"inputs": [
				{
					"internalType": "uint256",
					"name": "disputeId",
					"type": "uint256"
				},
				{
					"internalType": "bytes",
					"name": "_options",
					"type": "bytes"
				}
			],
			"name": "claimDisputedAmount",
			"outputs": [],
			"stateMutability": "payable",
			"type": "function"
		},
		{
			"inputs": [],
			"name": "dstEid",
			"outputs": [
				{
					"internalType": "uint32",
					"name": "",
					"type": "uint32"
				}
			],
			"stateMutability": "view",
			"type": "function"
		},
		{
			"inputs": [],
			"name": "endpoint",
			"outputs": [
				{
					"internalType": "contract ILayerZeroEndpointV2",
					"name": "",
					"type": "address"
				}
			],
			"stateMutability": "view",
			"type": "function"
		},
		{
			"inputs": [
				{
					"components": [
						{
							"internalType": "uint32",
							"name": "srcEid",
							"type": "uint32"
						},
						{
							"internalType": "bytes32",
							"name": "sender",
							"type": "bytes32"
						},
						{
							"internalType": "uint64",
							"name": "nonce",
							"type": "uint64"
						}
					],
					"internalType": "struct Origin",
					"name": "",
					"type": "tuple"
				},
				{
					"internalType": "bytes",
					"name": "",
					"type": "bytes"
				},
				{
					"internalType": "address",
					"name": "_sender",
					"type": "address"
				}
			],
			"name": "isComposeMsgSender",
			"outputs": [
				{
					"internalType": "bool",
					"name": "",
					"type": "bool"
				}
			],
			"stateMutability": "view",
			"type": "function"
		},
		{
			"inputs": [
				{
					"components": [
						{
							"internalType": "uint32",
							"name": "srcEid",
							"type": "uint32"
						},
						{
							"internalType": "bytes32",
							"name": "sender",
							"type": "bytes32"
						},
						{
							"internalType": "uint64",
							"name": "nonce",
							"type": "uint64"
						}
					],
					"internalType": "struct Origin",
					"name": "_origin",
					"type": "tuple"
				},
				{
					"internalType": "bytes32",
					"name": "_guid",
					"type": "bytes32"
				},
				{
					"internalType": "bytes",
					"name": "_message",
					"type": "bytes"
				},
				{
					"internalType": "address",
					"name": "_executor",
					"type": "address"
				},
				{
					"internalType": "bytes",
					"name": "_extraData",
					"type": "bytes"
				}
			],
			"name": "lzReceive",
			"outputs": [],
			"stateMutability": "payable",
			"type": "function"
		},
		{
			"inputs": [
				{
					"internalType": "uint32",
					"name": "",
					"type": "uint32"
				},
				{
					"internalType": "bytes32",
					"name": "",
					"type": "bytes32"
				}
			],
			"name": "nextNonce",
			"outputs": [
				{
					"internalType": "uint64",
					"name": "nonce",
					"type": "uint64"
				}
			],
			"stateMutability": "view",
			"type": "function"
		},
		{
			"inputs": [],
			"name": "oAppVersion",
			"outputs": [
				{
					"internalType": "uint64",
					"name": "senderVersion",
					"type": "uint64"
				},
				{
					"internalType": "uint64",
					"name": "receiverVersion",
					"type": "uint64"
				}
			],
			"stateMutability": "pure",
			"type": "function"
		},
		{
			"inputs": [],
			"name": "owner",
			"outputs": [
				{
					"internalType": "address",
					"name": "",
					"type": "address"
				}
			],
			"stateMutability": "view",
			"type": "function"
		},
		{
			"inputs": [
				{
					"internalType": "uint32",
					"name": "eid",
					"type": "uint32"
				}
			],
			"name": "peers",
			"outputs": [
				{
					"internalType": "bytes32",
					"name": "peer",
					"type": "bytes32"
				}
			],
			"stateMutability": "view",
			"type": "function"
		},
		{
			"inputs": [
				{
					"internalType": "string",
					"name": "question",
					"type": "string"
				},
				{
					"internalType": "string",
					"name": "contextHash",
					"type": "string"
				},
				{
					"internalType": "string",
					"name": "oracleName",
					"type": "string"
				},
				{
					"internalType": "uint256",
					"name": "usdtFee",
					"type": "uint256"
				},
				{
					"internalType": "bytes",
					"name": "_options",
					"type": "bytes"
				}
			],
			"name": "quoteAskAthena",
			"outputs": [
				{
					"components": [
						{
							"internalType": "uint256",
							"name": "nativeFee",
							"type": "uint256"
						},
						{
							"internalType": "uint256",
							"name": "lzTokenFee",
							"type": "uint256"
						}
					],
					"internalType": "struct MessagingFee",
					"name": "",
					"type": "tuple"
				}
			],
			"stateMutability": "view",
			"type": "function"
		},
		{
			"inputs": [
				{
					"internalType": "uint256",
					"name": "disputeId",
					"type": "uint256"
				},
				{
					"internalType": "bytes",
					"name": "_options",
					"type": "bytes"
				}
			],
			"name": "quoteClaimDisputedAmount",
			"outputs": [
				{
					"components": [
						{
							"internalType": "uint256",
							"name": "nativeFee",
							"type": "uint256"
						},
						{
							"internalType": "uint256",
							"name": "lzTokenFee",
							"type": "uint256"
						}
					],
					"internalType": "struct MessagingFee",
					"name": "",
					"type": "tuple"
				}
			],
			"stateMutability": "view",
			"type": "function"
		},
		{
			"inputs": [
				{
					"internalType": "uint256",
					"name": "jobId",
					"type": "uint256"
				},
				{
					"internalType": "string",
					"name": "reason",
					"type": "string"
				},
				{
					"internalType": "bytes",
					"name": "_options",
					"type": "bytes"
				}
			],
			"name": "quoteCreateDispute",
			"outputs": [
				{
					"components": [
						{
							"internalType": "uint256",
							"name": "nativeFee",
							"type": "uint256"
						},
						{
							"internalType": "uint256",
							"name": "lzTokenFee",
							"type": "uint256"
						}
					],
					"internalType": "struct MessagingFee",
					"name": "",
					"type": "tuple"
				}
			],
			"stateMutability": "view",
			"type": "function"
		},
		{
			"inputs": [
				{
					"internalType": "uint256",
					"name": "jobId",
					"type": "uint256"
				},
				{
					"internalType": "uint256",
					"name": "disputedAmount",
					"type": "uint256"
				},
				{
					"internalType": "string",
					"name": "disputeHash",
					"type": "string"
				},
				{
					"internalType": "string",
					"name": "oracleName",
					"type": "string"
				},
				{
					"internalType": "uint256",
					"name": "usdtFee",
					"type": "uint256"
				},
				{
					"internalType": "bytes",
					"name": "_options",
					"type": "bytes"
				}
			],
			"name": "quoteRaiseDispute",
			"outputs": [
				{
					"components": [
						{
							"internalType": "uint256",
							"name": "nativeFee",
							"type": "uint256"
						},
						{
							"internalType": "uint256",
							"name": "lzTokenFee",
							"type": "uint256"
						}
					],
					"internalType": "struct MessagingFee",
					"name": "",
					"type": "tuple"
				}
			],
			"stateMutability": "view",
			"type": "function"
		},
		{
			"inputs": [
				{
					"internalType": "string",
					"name": "skill",
					"type": "string"
				},
				{
					"internalType": "string",
					"name": "proofHash",
					"type": "string"
				},
				{
					"internalType": "uint256",
					"name": "usdtFee",
					"type": "uint256"
				},
				{
					"internalType": "bytes",
					"name": "_options",
					"type": "bytes"
				}
			],
			"name": "quoteRequestSkillVerification",
			"outputs": [
				{
					"components": [
						{
							"internalType": "uint256",
							"name": "nativeFee",
							"type": "uint256"
						},
						{
							"internalType": "uint256",
							"name": "lzTokenFee",
							"type": "uint256"
						}
					],
					"internalType": "struct MessagingFee",
					"name": "",
					"type": "tuple"
				}
			],
			"stateMutability": "view",
			"type": "function"
		},
		{
			"inputs": [
				{
					"internalType": "uint256",
					"name": "jobId",
					"type": "uint256"
				},
				{
					"internalType": "uint256",
					"name": "disputedAmount",
					"type": "uint256"
				},
				{
					"internalType": "string",
					"name": "disputeHash",
					"type": "string"
				},
				{
					"internalType": "string",
					"name": "oracleName",
					"type": "string"
				},
				{
					"internalType": "uint256",
					"name": "usdtFee",
					"type": "uint256"
				},
				{
					"internalType": "bytes",
					"name": "_options",
					"type": "bytes"
				}
			],
			"name": "raiseDispute",
			"outputs": [],
			"stateMutability": "payable",
			"type": "function"
		},
		{
			"inputs": [],
			"name": "renounceOwnership",
			"outputs": [],
			"stateMutability": "nonpayable",
			"type": "function"
		},
		{
			"inputs": [
				{
					"internalType": "string",
					"name": "skill",
					"type": "string"
				},
				{
					"internalType": "string",
					"name": "proofHash",
					"type": "string"
				},
				{
					"internalType": "uint256",
					"name": "usdtFee",
					"type": "uint256"
				},
				{
					"internalType": "bytes",
					"name": "_options",
					"type": "bytes"
				}
			],
			"name": "requestSkillVerification",
			"outputs": [],
			"stateMutability": "payable",
			"type": "function"
		},
		{
			"inputs": [
				{
					"internalType": "address",
					"name": "_delegate",
					"type": "address"
				}
			],
			"name": "setDelegate",
			"outputs": [],
			"stateMutability": "nonpayable",
			"type": "function"
		},
		{
			"inputs": [
				{
					"internalType": "uint32",
					"name": "_dstEid",
					"type": "uint32"
				}
			],
			"name": "setDstEid",
			"outputs": [],
			"stateMutability": "nonpayable",
			"type": "function"
		},
		{
			"inputs": [
				{
					"internalType": "uint32",
					"name": "_eid",
					"type": "uint32"
				},
				{
					"internalType": "bytes32",
					"name": "_peer",
					"type": "bytes32"
				}
			],
			"name": "setPeer",
			"outputs": [],
			"stateMutability": "nonpayable",
			"type": "function"
		},
		{
			"inputs": [
				{
					"internalType": "address",
					"name": "newOwner",
					"type": "address"
				}
			],
			"name": "transferOwnership",
			"outputs": [],
			"stateMutability": "nonpayable",
			"type": "function"
		},
		{
			"inputs": [],
			"name": "usdToken",
			"outputs": [
				{
					"internalType": "contract IERC20",
					"name": "",
					"type": "address"
				}
			],
			"stateMutability": "view",
			"type": "function"
		},
		{
			"inputs": [
				{
					"internalType": "address",
					"name": "to",
					"type": "address"
				},
				{
					"internalType": "uint256",
					"name": "amount",
					"type": "uint256"
				}
			],
			"name": "withdrawFees",
			"outputs": [],
			"stateMutability": "nonpayable",
			"type": "function"
		},
		{
			"stateMutability": "payable",
			"type": "receive"
		}
	]
}