{
	"data": {
		"bytecode": {
			"linkReferences": {},
			"object": "6080604052348015600f57600080fd5b50604051610604380380610604833981016040819052602c916050565b600080546001600160a01b0319166001600160a01b0392909216919091179055607e565b600060208284031215606157600080fd5b81516001600160a01b0381168114607757600080fd5b9392505050565b6105778061008d6000396000f3fe608060405234801561001057600080fd5b506004361061010b5760003560e01c806391016e5d116100a2578063c421d27311610071578063c421d27314610212578063cbb6351c14610225578063d4a39a5714610238578063dc209f131461024b578063ddd794c61461025e57600080fd5b806391016e5d146101c6578063a2f7cb26146101d9578063a53ae226146101ec578063a77313a2146101ff57600080fd5b8063687694ae116100de578063687694ae1461015e57806369a4d17c1461018d5780637b4bb626146101a05780638d513382146101b357600080fd5b806316d61c21146101105780634a2e65f9146101255780634cbf5553146101385780634efac43f1461014b575b600080fd5b61012361011e3660046104da565b610271565b005b6101236101333660046104da565b6102c6565b6101236101463660046104da565b610312565b6101236101593660046104da565b61035e565b600154610171906001600160a01b031681565b6040516001600160a01b03909116815260200160405180910390f35b600054610171906001600160a01b031681565b600754610171906001600160a01b031681565b600654610171906001600160a01b031681565b6101236101d43660046104da565b6103aa565b6101236101e73660046104da565b6103f6565b600354610171906001600160a01b031681565b600554610171906001600160a01b031681565b600854610171906001600160a01b031681565b6101236102333660046104da565b610442565b600454610171906001600160a01b031681565b600254610171906001600160a01b031681565b61012361026c3660046104da565b61048e565b6000546001600160a01b031633146102a45760405162461bcd60e51b815260040161029b9061050a565b60405180910390fd5b600480546001600160a01b0319166001600160a01b0392909216919091179055565b6000546001600160a01b031633146102f05760405162461bcd60e51b815260040161029b9061050a565b600780546001600160a01b0319166001600160a01b0392909216919091179055565b6000546001600160a01b0316331461033c5760405162461bcd60e51b815260040161029b9061050a565b600880546001600160a01b0319166001600160a01b0392909216919091179055565b6000546001600160a01b031633146103885760405162461bcd60e51b815260040161029b9061050a565b600280546001600160a01b0319166001600160a01b0392909216919091179055565b6000546001600160a01b031633146103d45760405162461bcd60e51b815260040161029b9061050a565b600580546001600160a01b0319166001600160a01b0392909216919091179055565b6000546001600160a01b031633146104205760405162461bcd60e51b815260040161029b9061050a565b600180546001600160a01b0319166001600160a01b0392909216919091179055565b6000546001600160a01b0316331461046c5760405162461bcd60e51b815260040161029b9061050a565b600680546001600160a01b0319166001600160a01b0392909216919091179055565b6000546001600160a01b031633146104b85760405162461bcd60e51b815260040161029b9061050a565b600380546001600160a01b0319166001600160a01b0392909216919091179055565b6000602082840312156104ec57600080fd5b81356001600160a01b038116811461050357600080fd5b9392505050565b6020808252601f908201527f4f6e6c79204d61696e2044414f2063616e20736574206164647265737365730060408201526060019056fea264697066735822122060e948161f59e641734203030cd0af8b776304cb35cdbf4c73bcff91e36817ac64736f6c634300081c0033",
			"opcodes": "PUSH1 0x80 PUSH1 0x40 MSTORE CALLVALUE DUP1 ISZERO PUSH1 0xF JUMPI PUSH1 0x0 DUP1 REVERT JUMPDEST POP PUSH1 0x40 MLOAD PUSH2 0x604 CODESIZE SUB DUP1 PUSH2 0x604 DUP4 CODECOPY DUP2 ADD PUSH1 0x40 DUP2 SWAP1 MSTORE PUSH1 0x2C SWAP2 PUSH1 0x50 JUMP JUMPDEST PUSH1 0x0 DUP1 SLOAD PUSH1 0x1 PUSH1 0x1 PUSH1 0xA0 SHL SUB NOT AND PUSH1 0x1 PUSH1 0x1 PUSH1 0xA0 SHL SUB SWAP3 SWAP1 SWAP3 AND SWAP2 SWAP1 SWAP2 OR SWAP1 SSTORE PUSH1 0x7E JUMP JUMPDEST PUSH1 0x0 PUSH1 0x20 DUP3 DUP5 SUB SLT ISZERO PUSH1 0x61 JUMPI PUSH1 0x0 DUP1 REVERT JUMPDEST DUP2 MLOAD PUSH1 0x1 PUSH1 0x1 PUSH1 0xA0 SHL SUB DUP2 AND DUP2 EQ PUSH1 0x77 JUMPI PUSH1 0x0 DUP1 REVERT JUMPDEST SWAP4 SWAP3 POP POP POP JUMP JUMPDEST PUSH2 0x577 DUP1 PUSH2 0x8D PUSH1 0x0 CODECOPY PUSH1 0x0 RETURN INVALID PUSH1 0x80 PUSH1 0x40 MSTORE CALLVALUE DUP1 ISZERO PUSH2 0x10 JUMPI PUSH1 0x0 DUP1 REVERT JUMPDEST POP PUSH1 0x4 CALLDATASIZE LT PUSH2 0x10B JUMPI PUSH1 0x0 CALLDATALOAD PUSH1 0xE0 SHR DUP1 PUSH4 0x91016E5D GT PUSH2 0xA2 JUMPI DUP1 PUSH4 0xC421D273 GT PUSH2 0x71 JUMPI DUP1 PUSH4 0xC421D273 EQ PUSH2 0x212 JUMPI DUP1 PUSH4 0xCBB6351C EQ PUSH2 0x225 JUMPI DUP1 PUSH4 0xD4A39A57 EQ PUSH2 0x238 JUMPI DUP1 PUSH4 0xDC209F13 EQ PUSH2 0x24B JUMPI DUP1 PUSH4 0xDDD794C6 EQ PUSH2 0x25E JUMPI PUSH1 0x0 DUP1 REVERT JUMPDEST DUP1 PUSH4 0x91016E5D EQ PUSH2 0x1C6 JUMPI DUP1 PUSH4 0xA2F7CB26 EQ PUSH2 0x1D9 JUMPI DUP1 PUSH4 0xA53AE226 EQ PUSH2 0x1EC JUMPI DUP1 PUSH4 0xA77313A2 EQ PUSH2 0x1FF JUMPI PUSH1 0x0 DUP1 REVERT JUMPDEST DUP1 PUSH4 0x687694AE GT PUSH2 0xDE JUMPI DUP1 PUSH4 0x687694AE EQ PUSH2 0x15E JUMPI DUP1 PUSH4 0x69A4D17C EQ PUSH2 0x18D JUMPI DUP1 PUSH4 0x7B4BB626 EQ PUSH2 0x1A0 JUMPI DUP1 PUSH4 0x8D513382 EQ PUSH2 0x1B3 JUMPI PUSH1 0x0 DUP1 REVERT JUMPDEST DUP1 PUSH4 0x16D61C21 EQ PUSH2 0x110 JUMPI DUP1 PUSH4 0x4A2E65F9 EQ PUSH2 0x125 JUMPI DUP1 PUSH4 0x4CBF5553 EQ PUSH2 0x138 JUMPI DUP1 PUSH4 0x4EFAC43F EQ PUSH2 0x14B JUMPI JUMPDEST PUSH1 0x0 DUP1 REVERT JUMPDEST PUSH2 0x123 PUSH2 0x11E CALLDATASIZE PUSH1 0x4 PUSH2 0x4DA JUMP JUMPDEST PUSH2 0x271 JUMP JUMPDEST STOP JUMPDEST PUSH2 0x123 PUSH2 0x133 CALLDATASIZE PUSH1 0x4 PUSH2 0x4DA JUMP JUMPDEST PUSH2 0x2C6 JUMP JUMPDEST PUSH2 0x123 PUSH2 0x146 CALLDATASIZE PUSH1 0x4 PUSH2 0x4DA JUMP JUMPDEST PUSH2 0x312 JUMP JUMPDEST PUSH2 0x123 PUSH2 0x159 CALLDATASIZE PUSH1 0x4 PUSH2 0x4DA JUMP JUMPDEST PUSH2 0x35E JUMP JUMPDEST PUSH1 0x1 SLOAD PUSH2 0x171 SWAP1 PUSH1 0x1 PUSH1 0x1 PUSH1 0xA0 SHL SUB AND DUP2 JUMP JUMPDEST PUSH1 0x40 MLOAD PUSH1 0x1 PUSH1 0x1 PUSH1 0xA0 SHL SUB SWAP1 SWAP2 AND DUP2 MSTORE PUSH1 0x20 ADD PUSH1 0x40 MLOAD DUP1 SWAP2 SUB SWAP1 RETURN JUMPDEST PUSH1 0x0 SLOAD PUSH2 0x171 SWAP1 PUSH1 0x1 PUSH1 0x1 PUSH1 0xA0 SHL SUB AND DUP2 JUMP JUMPDEST PUSH1 0x7 SLOAD PUSH2 0x171 SWAP1 PUSH1 0x1 PUSH1 0x1 PUSH1 0xA0 SHL SUB AND DUP2 JUMP JUMPDEST PUSH1 0x6 SLOAD PUSH2 0x171 SWAP1 PUSH1 0x1 PUSH1 0x1 PUSH1 0xA0 SHL SUB AND DUP2 JUMP JUMPDEST PUSH2 0x123 PUSH2 0x1D4 CALLDATASIZE PUSH1 0x4 PUSH2 0x4DA JUMP JUMPDEST PUSH2 0x3AA JUMP JUMPDEST PUSH2 0x123 PUSH2 0x1E7 CALLDATASIZE PUSH1 0x4 PUSH2 0x4DA JUMP JUMPDEST PUSH2 0x3F6 JUMP JUMPDEST PUSH1 0x3 SLOAD PUSH2 0x171 SWAP1 PUSH1 0x1 PUSH1 0x1 PUSH1 0xA0 SHL SUB AND DUP2 JUMP JUMPDEST PUSH1 0x5 SLOAD PUSH2 0x171 SWAP1 PUSH1 0x1 PUSH1 0x1 PUSH1 0xA0 SHL SUB AND DUP2 JUMP JUMPDEST PUSH1 0x8 SLOAD PUSH2 0x171 SWAP1 PUSH1 0x1 PUSH1 0x1 PUSH1 0xA0 SHL SUB AND DUP2 JUMP JUMPDEST PUSH2 0x123 PUSH2 0x233 CALLDATASIZE PUSH1 0x4 PUSH2 0x4DA JUMP JUMPDEST PUSH2 0x442 JUMP JUMPDEST PUSH1 0x4 SLOAD PUSH2 0x171 SWAP1 PUSH1 0x1 PUSH1 0x1 PUSH1 0xA0 SHL SUB AND DUP2 JUMP JUMPDEST PUSH1 0x2 SLOAD PUSH2 0x171 SWAP1 PUSH1 0x1 PUSH1 0x1 PUSH1 0xA0 SHL SUB AND DUP2 JUMP JUMPDEST PUSH2 0x123 PUSH2 0x26C CALLDATASIZE PUSH1 0x4 PUSH2 0x4DA JUMP JUMPDEST PUSH2 0x48E JUMP JUMPDEST PUSH1 0x0 SLOAD PUSH1 0x1 PUSH1 0x1 PUSH1 0xA0 SHL SUB AND CALLER EQ PUSH2 0x2A4 JUMPI PUSH1 0x40 MLOAD PUSH3 0x461BCD PUSH1 0xE5 SHL DUP2 MSTORE PUSH1 0x4 ADD PUSH2 0x29B SWAP1 PUSH2 0x50A JUMP JUMPDEST PUSH1 0x40 MLOAD DUP1 SWAP2 SUB SWAP1 REVERT JUMPDEST PUSH1 0x4 DUP1 SLOAD PUSH1 0x1 PUSH1 0x1 PUSH1 0xA0 SHL SUB NOT AND PUSH1 0x1 PUSH1 0x1 PUSH1 0xA0 SHL SUB SWAP3 SWAP1 SWAP3 AND SWAP2 SWAP1 SWAP2 OR SWAP1 SSTORE JUMP JUMPDEST PUSH1 0x0 SLOAD PUSH1 0x1 PUSH1 0x1 PUSH1 0xA0 SHL SUB AND CALLER EQ PUSH2 0x2F0 JUMPI PUSH1 0x40 MLOAD PUSH3 0x461BCD PUSH1 0xE5 SHL DUP2 MSTORE PUSH1 0x4 ADD PUSH2 0x29B SWAP1 PUSH2 0x50A JUMP JUMPDEST PUSH1 0x7 DUP1 SLOAD PUSH1 0x1 PUSH1 0x1 PUSH1 0xA0 SHL SUB NOT AND PUSH1 0x1 PUSH1 0x1 PUSH1 0xA0 SHL SUB SWAP3 SWAP1 SWAP3 AND SWAP2 SWAP1 SWAP2 OR SWAP1 SSTORE JUMP JUMPDEST PUSH1 0x0 SLOAD PUSH1 0x1 PUSH1 0x1 PUSH1 0xA0 SHL SUB AND CALLER EQ PUSH2 0x33C JUMPI PUSH1 0x40 MLOAD PUSH3 0x461BCD PUSH1 0xE5 SHL DUP2 MSTORE PUSH1 0x4 ADD PUSH2 0x29B SWAP1 PUSH2 0x50A JUMP JUMPDEST PUSH1 0x8 DUP1 SLOAD PUSH1 0x1 PUSH1 0x1 PUSH1 0xA0 SHL SUB NOT AND PUSH1 0x1 PUSH1 0x1 PUSH1 0xA0 SHL SUB SWAP3 SWAP1 SWAP3 AND SWAP2 SWAP1 SWAP2 OR SWAP1 SSTORE JUMP JUMPDEST PUSH1 0x0 SLOAD PUSH1 0x1 PUSH1 0x1 PUSH1 0xA0 SHL SUB AND CALLER EQ PUSH2 0x388 JUMPI PUSH1 0x40 MLOAD PUSH3 0x461BCD PUSH1 0xE5 SHL DUP2 MSTORE PUSH1 0x4 ADD PUSH2 0x29B SWAP1 PUSH2 0x50A JUMP JUMPDEST PUSH1 0x2 DUP1 SLOAD PUSH1 0x1 PUSH1 0x1 PUSH1 0xA0 SHL SUB NOT AND PUSH1 0x1 PUSH1 0x1 PUSH1 0xA0 SHL SUB SWAP3 SWAP1 SWAP3 AND SWAP2 SWAP1 SWAP2 OR SWAP1 SSTORE JUMP JUMPDEST PUSH1 0x0 SLOAD PUSH1 0x1 PUSH1 0x1 PUSH1 0xA0 SHL SUB AND CALLER EQ PUSH2 0x3D4 JUMPI PUSH1 0x40 MLOAD PUSH3 0x461BCD PUSH1 0xE5 SHL DUP2 MSTORE PUSH1 0x4 ADD PUSH2 0x29B SWAP1 PUSH2 0x50A JUMP JUMPDEST PUSH1 0x5 DUP1 SLOAD PUSH1 0x1 PUSH1 0x1 PUSH1 0xA0 SHL SUB NOT AND PUSH1 0x1 PUSH1 0x1 PUSH1 0xA0 SHL SUB SWAP3 SWAP1 SWAP3 AND SWAP2 SWAP1 SWAP2 OR SWAP1 SSTORE JUMP JUMPDEST PUSH1 0x0 SLOAD PUSH1 0x1 PUSH1 0x1 PUSH1 0xA0 SHL SUB AND CALLER EQ PUSH2 0x420 JUMPI PUSH1 0x40 MLOAD PUSH3 0x461BCD PUSH1 0xE5 SHL DUP2 MSTORE PUSH1 0x4 ADD PUSH2 0x29B SWAP1 PUSH2 0x50A JUMP JUMPDEST PUSH1 0x1 DUP1 SLOAD PUSH1 0x1 PUSH1 0x1 PUSH1 0xA0 SHL SUB NOT AND PUSH1 0x1 PUSH1 0x1 PUSH1 0xA0 SHL SUB SWAP3 SWAP1 SWAP3 AND SWAP2 SWAP1 SWAP2 OR SWAP1 SSTORE JUMP JUMPDEST PUSH1 0x0 SLOAD PUSH1 0x1 PUSH1 0x1 PUSH1 0xA0 SHL SUB AND CALLER EQ PUSH2 0x46C JUMPI PUSH1 0x40 MLOAD PUSH3 0x461BCD PUSH1 0xE5 SHL DUP2 MSTORE PUSH1 0x4 ADD PUSH2 0x29B SWAP1 PUSH2 0x50A JUMP JUMPDEST PUSH1 0x6 DUP1 SLOAD PUSH1 0x1 PUSH1 0x1 PUSH1 0xA0 SHL SUB NOT AND PUSH1 0x1 PUSH1 0x1 PUSH1 0xA0 SHL SUB SWAP3 SWAP1 SWAP3 AND SWAP2 SWAP1 SWAP2 OR SWAP1 SSTORE JUMP JUMPDEST PUSH1 0x0 SLOAD PUSH1 0x1 PUSH1 0x1 PUSH1 0xA0 SHL SUB AND CALLER EQ PUSH2 0x4B8 JUMPI PUSH1 0x40 MLOAD PUSH3 0x461BCD PUSH1 0xE5 SHL DUP2 MSTORE PUSH1 0x4 ADD PUSH2 0x29B SWAP1 PUSH2 0x50A JUMP JUMPDEST PUSH1 0x3 DUP1 SLOAD PUSH1 0x1 PUSH1 0x1 PUSH1 0xA0 SHL SUB NOT AND PUSH1 0x1 PUSH1 0x1 PUSH1 0xA0 SHL SUB SWAP3 SWAP1 SWAP3 AND SWAP2 SWAP1 SWAP2 OR SWAP1 SSTORE JUMP JUMPDEST PUSH1 0x0 PUSH1 0x20 DUP3 DUP5 SUB SLT ISZERO PUSH2 0x4EC JUMPI PUSH1 0x0 DUP1 REVERT JUMPDEST DUP2 CALLDATALOAD PUSH1 0x1 PUSH1 0x1 PUSH1 0xA0 SHL SUB DUP2 AND DUP2 EQ PUSH2 0x503 JUMPI PUSH1 0x0 DUP1 REVERT JUMPDEST SWAP4 SWAP3 POP POP POP JUMP JUMPDEST PUSH1 0x20 DUP1 DUP3 MSTORE PUSH1 0x1F SWAP1 DUP3 ADD MSTORE PUSH32 0x4F6E6C79204D61696E2044414F2063616E207365742061646472657373657300 PUSH1 0x40 DUP3 ADD MSTORE PUSH1 0x60 ADD SWAP1 JUMP INVALID LOG2 PUSH5 0x6970667358 0x22 SLT KECCAK256 PUSH1 0xE9 BASEFEE AND 0x1F MSIZE 0xE6 COINBASE PUSH20 0x4203030CD0AF8B776304CB35CDBF4C73BCFF91E3 PUSH9 0x17AC64736F6C634300 ADDMOD SHR STOP CALLER "
		},
		"gasEstimates": {
			"creation": {
				"codeDepositCost": "279800",
				"executionCost": "infinite",
				"totalCost": "infinite"
			},
			"external": {
				"athenaClientContract()": "2392",
				"localOpenWorkContract()": "2414",
				"mainOpenworkDAO()": "2370",
				"mainTokenContract()": "2347",
				"nativeAthena()": "2413",
				"nativeDAO()": "2348",
				"nativeOpenWorkContract()": "2391",
				"payoutContracts()": "2392",
				"rewardsTracking()": "2414",
				"setAthenaClientContract(address)": "26786",
				"setLocalOpenWorkContract(address)": "26699",
				"setMainTokenContract(address)": "26744",
				"setNativeAthena(address)": "26766",
				"setNativeDAO(address)": "26721",
				"setNativeOpenWorkContract(address)": "26700",
				"setPayoutContracts(address)": "26722",
				"setRewardsTracking(address)": "26720"
			}
		},
		"methodIdentifiers": {
			"athenaClientContract()": "a53ae226",
			"localOpenWorkContract()": "a77313a2",
			"mainOpenworkDAO()": "69a4d17c",
			"mainTokenContract()": "c421d273",
			"nativeAthena()": "dc209f13",
			"nativeDAO()": "687694ae",
			"nativeOpenWorkContract()": "d4a39a57",
			"payoutContracts()": "7b4bb626",
			"rewardsTracking()": "8d513382",
			"setAthenaClientContract(address)": "ddd794c6",
			"setLocalOpenWorkContract(address)": "91016e5d",
			"setMainTokenContract(address)": "4cbf5553",
			"setNativeAthena(address)": "4efac43f",
			"setNativeDAO(address)": "a2f7cb26",
			"setNativeOpenWorkContract(address)": "16d61c21",
			"setPayoutContracts(address)": "4a2e65f9",
			"setRewardsTracking(address)": "cbb6351c"
		}
	},
	"abi": [
		{
			"inputs": [
				{
					"internalType": "address",
					"name": "_mainOpenworkDAO",
					"type": "address"
				}
			],
			"stateMutability": "nonpayable",
			"type": "constructor"
		},
		{
			"inputs": [],
			"name": "athenaClientContract",
			"outputs": [
				{
					"internalType": "address",
					"name": "",
					"type": "address"
				}
			],
			"stateMutability": "view",
			"type": "function"
		},
		{
			"inputs": [],
			"name": "localOpenWorkContract",
			"outputs": [
				{
					"internalType": "address",
					"name": "",
					"type": "address"
				}
			],
			"stateMutability": "view",
			"type": "function"
		},
		{
			"inputs": [],
			"name": "mainOpenworkDAO",
			"outputs": [
				{
					"internalType": "address",
					"name": "",
					"type": "address"
				}
			],
			"stateMutability": "view",
			"type": "function"
		},
		{
			"inputs": [],
			"name": "mainTokenContract",
			"outputs": [
				{
					"internalType": "address",
					"name": "",
					"type": "address"
				}
			],
			"stateMutability": "view",
			"type": "function"
		},
		{
			"inputs": [],
			"name": "nativeAthena",
			"outputs": [
				{
					"internalType": "address",
					"name": "",
					"type": "address"
				}
			],
			"stateMutability": "view",
			"type": "function"
		},
		{
			"inputs": [],
			"name": "nativeDAO",
			"outputs": [
				{
					"internalType": "address",
					"name": "",
					"type": "address"
				}
			],
			"stateMutability": "view",
			"type": "function"
		},
		{
			"inputs": [],
			"name": "nativeOpenWorkContract",
			"outputs": [
				{
					"internalType": "address",
					"name": "",
					"type": "address"
				}
			],
			"stateMutability": "view",
			"type": "function"
		},
		{
			"inputs": [],
			"name": "payoutContracts",
			"outputs": [
				{
					"internalType": "address",
					"name": "",
					"type": "address"
				}
			],
			"stateMutability": "view",
			"type": "function"
		},
		{
			"inputs": [],
			"name": "rewardsTracking",
			"outputs": [
				{
					"internalType": "address",
					"name": "",
					"type": "address"
				}
			],
			"stateMutability": "view",
			"type": "function"
		},
		{
			"inputs": [
				{
					"internalType": "address",
					"name": "_addr",
					"type": "address"
				}
			],
			"name": "setAthenaClientContract",
			"outputs": [],
			"stateMutability": "nonpayable",
			"type": "function"
		},
		{
			"inputs": [
				{
					"internalType": "address",
					"name": "_addr",
					"type": "address"
				}
			],
			"name": "setLocalOpenWorkContract",
			"outputs": [],
			"stateMutability": "nonpayable",
			"type": "function"
		},
		{
			"inputs": [
				{
					"internalType": "address",
					"name": "_addr",
					"type": "address"
				}
			],
			"name": "setMainTokenContract",
			"outputs": [],
			"stateMutability": "nonpayable",
			"type": "function"
		},
		{
			"inputs": [
				{
					"internalType": "address",
					"name": "_addr",
					"type": "address"
				}
			],
			"name": "setNativeAthena",
			"outputs": [],
			"stateMutability": "nonpayable",
			"type": "function"
		},
		{
			"inputs": [
				{
					"internalType": "address",
					"name": "_addr",
					"type": "address"
				}
			],
			"name": "setNativeDAO",
			"outputs": [],
			"stateMutability": "nonpayable",
			"type": "function"
		},
		{
			"inputs": [
				{
					"internalType": "address",
					"name": "_addr",
					"type": "address"
				}
			],
			"name": "setNativeOpenWorkContract",
			"outputs": [],
			"stateMutability": "nonpayable",
			"type": "function"
		},
		{
			"inputs": [
				{
					"internalType": "address",
					"name": "_addr",
					"type": "address"
				}
			],
			"name": "setPayoutContracts",
			"outputs": [],
			"stateMutability": "nonpayable",
			"type": "function"
		},
		{
			"inputs": [
				{
					"internalType": "address",
					"name": "_addr",
					"type": "address"
				}
			],
			"name": "setRewardsTracking",
			"outputs": [],
			"stateMutability": "nonpayable",
			"type": "function"
		}
	]
}