{
	"data": {
		"bytecode": {
			"linkReferences": {},
			"object": "60a06040523060805234801561001457600080fd5b5061001d610022565b6100d4565b7ff0c57e16840df040f15088dc2f81fe391c3923bec73e23a9662efc9c229c6a00805468010000000000000000900460ff16156100725760405163f92ee8a960e01b815260040160405180910390fd5b80546001600160401b03908116146100d15780546001600160401b0319166001600160401b0390811782556040519081527fc7f505b2f371ae2175ee4913f4499e1f2633a7b5936321eed1cdaeb6115181d29060200160405180910390a15b50565b60805161283c6100fd600039600081816115200152818161154901526116ae015261283c6000f3fe6080604052600436106101c25760003560e01c806365a26578116100f7578063bb0b6a5311610095578063dc296ae111610064578063dc296ae1146105a5578063e3a96cbd146105eb578063eb990c5914610618578063f2fde38b1461063857600080fd5b8063bb0b6a531461050b578063be118d7a14610538578063c2b7b86814610558578063c47360921461057857600080fd5b80638da5cb5b116100d15780638da5cb5b14610459578063ad3cb1cc14610496578063b1610d7e146104c7578063b2c2f2e8146104de57600080fd5b806365a265781461040e578063715018a61461042e5780637d36f4d31461044357600080fd5b8063438596321161016457806352d1902d1161013e57806352d1902d1461035257806354fd4d5014610367578063564a565d1461039e5780635e280f11146103d657600080fd5b806343859632146102ee5780634909f765146103295780634f1ef2861461033f57600080fd5b8063120ea202116101a0578063120ea2021461027757806313137d651461029b5780633400288b146102ae57806342da4a60146102ce57600080fd5b806301ffdb01146101c75780630308b41414610225578063072358b114610255575b600080fd5b3480156101d357600080fd5b506101e76101e2366004611e34565b610658565b604080516001600160a01b039687168152959094166020860152911515928401929092526060830191909152608082015260a0015b60405180910390f35b34801561023157600080fd5b50610245610240366004611e9f565b6106b7565b604051901515815260200161021c565b34801561026157600080fd5b50610275610270366004611ee1565b6106c5565b005b34801561028357600080fd5b5061028d60665481565b60405190815260200161021c565b6102756102a9366004611f87565b6108ac565b3480156102ba57600080fd5b506102756102c936600461204a565b610940565b3480156102da57600080fd5b506102756102e9366004612074565b6109bf565b3480156102fa57600080fd5b5061024561030936600461208d565b606960209081526000928352604080842090915290825290205460ff1681565b34801561033557600080fd5b5061028d60645481565b61027561034d36600461214d565b610a03565b34801561035e57600080fd5b5061028d610a22565b34801561037357600080fd5b506040805180820190915260058152640312e302e360dc1b60208201525b60405161021c9190612201565b3480156103aa57600080fd5b506103be6103b9366004612074565b610a51565b60405161021c9c9b9a99989796959493929190612214565b3480156103e257600080fd5b506000546103f6906001600160a01b031681565b6040516001600160a01b03909116815260200161021c565b34801561041a57600080fd5b50610275610429366004612074565b610b4a565b34801561043a57600080fd5b50610275610b87565b34801561044f57600080fd5b5061028d60655481565b34801561046557600080fd5b507f9016d09d72d40fdae2fd8ceac6b6234c7706214fd39c1cd1e609a0528c199300546001600160a01b03166103f6565b3480156104a257600080fd5b50610391604051806040016040528060058152602001640352e302e360dc1b81525081565b3480156104d357600080fd5b5061028d6205460081565b3480156104ea57600080fd5b5061028d6104f9366004612074565b60009081526068602052604090205490565b34801561051757600080fd5b5061028d610526366004612289565b60016020526000908152604090205481565b34801561054457600080fd5b506102756105533660046122a4565b610b9b565b34801561056457600080fd5b50610275610573366004612074565b610e31565b34801561058457600080fd5b50610598610593366004612074565b611012565b60405161021c91906122eb565b3480156105b157600080fd5b506102456105c036600461208d565b60009182526069602090815260408084206001600160a01b0393909316845291905290205460ff1690565b3480156105f757600080fd5b5061060b610606366004612074565b6110c6565b60405161021c9190612372565b34801561062457600080fd5b50610275610633366004612436565b611279565b34801561064457600080fd5b5061027561065336600461247c565b61138b565b6068602052816000526040600020818154811061067457600080fd5b600091825260209091206004909102018054600182015460028301546003909301546001600160a01b0392831695509181169350600160a01b900460ff16919085565b600060015b90505b92915050565b6106cd6113c6565b606580549060006106dd836124af565b919050555060405180610180016040528088815260200187815260200186868080601f016020809104026020016040519081016040528093929190818152602001838380828437600092018290525093855250503360208085019190915260408085018490526060850184905260808501849052600160a0860181905260c086018590524260e08701526101008601859052610120909501879052606554845260678252928390208551815590850151938101939093555082015160028201906107a79082612550565b5060608201516003820180546001600160a01b0319166001600160a01b039092169190911790556080820151600482015560a0820151600582015560c082015160068201805460e08501516101008087015161ffff1990931694151561ff001916949094179015159093029290921762ff0000191662010000921515929092029190911790556101208201516007820155610140820151600882015561016090910151600990910155606554604051339189917ff5e09dccbab139121dcc48f58c750c32e9b62b23bd1cb4939d267791442008b490610891908b908b908b908b908b908b90612638565b60405180910390a46108a36001603255565b50505050505050565b6000546001600160a01b031633146108d757604051630fd72cd960e31b815260040160405180910390fd5b600160006108e860208a018a612289565b63ffffffff1663ffffffff168152602001908152602001600020548760200135146109315760405163316693d960e21b8152602088013560048201526024015b60405180910390fd5b6108a387878787878787611426565b6109486114ba565b806109695760405163316693d960e21b815260048101829052602401610928565b63ffffffff821660008181526001602052604090819020839055517f238399d427b947898edb290f5ff0f9109849b1c3ba196a42e35f00c50a54b98b906109b39084815260200190565b60405180910390a25050565b6109c76114ba565b60668190556040518181527f1ad1fab414d51cddd5055bcb2430bc802e1c7fb28e0d5798f7f5d0d33eefb916906020015b60405180910390a150565b610a0b611515565b610a14826115cc565b610a1e82826115d4565b5050565b6000610a2c6116a3565b507f360894a13ba1a3210667c828492db98dca3e2076cc3735a920a3ca505d382bbc90565b60676020526000908152604090208054600182015460028301805492939192610a79906124c8565b80601f0160208091040260200160405190810160405280929190818152602001828054610aa5906124c8565b8015610af25780601f10610ac757610100808354040283529160200191610af2565b820191906000526020600020905b815481529060010190602001808311610ad557829003601f168201915b50505060038401546004850154600586015460068701546007880154600889015460099099015497986001600160a01b039095169793965091945060ff8082169461010083048216946201000090930490911692918c565b610b526114ba565b60648190556040518181527ff1a486561bbbfeeeac993dbd1b7036b91eff609a22f2ac18b37467bf0b3804cc906020016109f8565b610b8f6114ba565b610b9960006116ec565b565b610ba36113c6565b821580610bb1575060655483115b15610bd257604051634294e0f760e01b815260048101849052602401610928565b60008381526067602052604090206006810154610100900460ff161580610c035750600681015462010000900460ff165b15610c24576040516313ccbabd60e31b815260048101859052602401610928565b620546008160070154610c379190612679565b421115610c5a5760405163cca35f0360e01b815260048101859052602401610928565b600084815260696020908152604080832033845290915290205460ff1615610c9e57604051631bdd6e5960e11b815233600482015260248101859052604401610928565b6000848152606860209081526040808320815160a0810183523381526001600160a01b0387811682860190815289158015958401958652600160608501818152426080870190815287548084018955978b52989099209451600490960290940180549584166001600160a01b03199096169590951785559051848401805496511515600160a01b0274ffffffffffffffffffffffffffffffffffffffffff199097169190931617949094179055935160028201559151600390920191909155610d805780826004016000828254610d759190612679565b90915550610d9a9050565b80826005016000828254610d949190612679565b90915550505b80826008016000828254610dae9190612679565b909155505060008581526069602090815260408083203380855290835292819020805460ff19166001179055805187151581529182018490526001600160a01b038616929188917fe67bcbb082983775f52d474de7e0b293ee14bebef1dadab2923061af3972cad0910160405180910390a45050610e2c6001603255565b505050565b610e396113c6565b801580610e47575060655481115b15610e6857604051634294e0f760e01b815260048101829052602401610928565b6000818152606760205260409020600681015462010000900460ff1615610ea5576040516313ccbabd60e31b815260048101839052602401610928565b6000620546008260070154610eba9190612679565b4211905080610edf57604051634dab92f160e11b815260048101849052602401610928565b606060665483600801541015610f2f575060068201805462ffffff19166201000017905560408051808201909152601081526f4e4f545f454e4f5547485f564f54455360801b6020820152610fb8565b6005830154600484015460068501805462ffff0019939092119290921662ffffff199091161762010000179081905560ff16610f8b57604051806040016040528060088152602001671491529150d5115160c21b815250610fad565b604051806040016040528060088152602001671054141493d5915160c21b8152505b9050610fb88461175d565b6006830154600884015460405186927fa8f5a9e174811be5722400dab1c3b6f38a1ae463bc8a9571999c6768313bd56492610ffa9260ff90921691869061268c565b60405180910390a250505061100f6001603255565b50565b606060686000838152602001908152602001600020805480602002602001604051908101604052809291908181526020016000905b828210156110bb5760008481526020908190206040805160a0810182526004860290920180546001600160a01b03908116845260018083015491821685870152600160a01b90910460ff16151592840192909252600281015460608401526003015460808301529083529092019101611047565b505050509050919050565b61113960405180610180016040528060008152602001600081526020016060815260200160006001600160a01b0316815260200160008152602001600081526020016000151581526020016000151581526020016000151581526020016000815260200160008152602001600081525090565b6067600083815260200190815260200160002060405180610180016040529081600082015481526020016001820154815260200160028201805461117c906124c8565b80601f01602080910402602001604051908101604052809291908181526020018280546111a8906124c8565b80156111f55780601f106111ca576101008083540402835291602001916111f5565b820191906000526020600020905b8154815290600101906020018083116111d857829003601f168201915b505050918352505060038201546001600160a01b031660208201526004820154604082015260058201546060820152600682015460ff808216151560808401526101008083048216151560a08501526201000090920416151560c0830152600783015460e08301526008830154908201526009909101546101209091015292915050565b6000611283611925565b805490915060ff600160401b820416159067ffffffffffffffff166000811580156112ab5750825b905060008267ffffffffffffffff1660011480156112c85750303b155b9050811580156112d6575080155b156112f45760405163f92ee8a960e01b815260040160405180910390fd5b845467ffffffffffffffff19166001178555831561131e57845460ff60401b1916600160401b1785555b611328898961194e565b61133061198a565b60648790556066869055831561138057845460ff60401b19168555604051600181527fc7f505b2f371ae2175ee4913f4499e1f2633a7b5936321eed1cdaeb6115181d29060200160405180910390a15b505050505050505050565b6113936114ba565b6001600160a01b0381166113bd57604051631e4fbdf760e01b815260006004820152602401610928565b61100f816116ec565b6002603254036114185760405162461bcd60e51b815260206004820152601f60248201527f5265656e7472616e637947756172643a207265656e7472616e742063616c6c006044820152606401610928565b6002603255565b6001603255565b600080808080808061143a8b8d018d6126cd565b60408051808201909152600c81526b72616973654469737075746560a01b602091820152875190880120969d50949b509299509097509550935091507f32b61ace529fe8b099f26fe3bb302396efd1ac056f370a6b8b6dcd8407fa9f1a016114aa576114aa86868686868661199a565b5050505050505050505050505050565b336114ec7f9016d09d72d40fdae2fd8ceac6b6234c7706214fd39c1cd1e609a0528c199300546001600160a01b031690565b6001600160a01b031614610b995760405163118cdaa760e01b8152336004820152602401610928565b306001600160a01b037f00000000000000000000000000000000000000000000000000000000000000001614806115ae57507f00000000000000000000000000000000000000000000000000000000000000006001600160a01b03166115a27f360894a13ba1a3210667c828492db98dca3e2076cc3735a920a3ca505d382bbc546001600160a01b031690565b6001600160a01b031614155b15610b995760405163703e46dd60e11b815260040160405180910390fd5b61100f6114ba565b816001600160a01b03166352d1902d6040518163ffffffff1660e01b8152600401602060405180830381865afa92505050801561162e575060408051601f3d908101601f1916820190925261162b91810190612794565b60015b61165657604051634c9c8ce360e01b81526001600160a01b0383166004820152602401610928565b7f360894a13ba1a3210667c828492db98dca3e2076cc3735a920a3ca505d382bbc811461169957604051632a87526960e21b815260048101829052602401610928565b610e2c8383611be2565b306001600160a01b037f00000000000000000000000000000000000000000000000000000000000000001614610b995760405163703e46dd60e11b815260040160405180910390fd5b7f9016d09d72d40fdae2fd8ceac6b6234c7706214fd39c1cd1e609a0528c19930080546001600160a01b031981166001600160a01b03848116918217845560405192169182907f8be0079c531659141344cd1fd0a4f28419497f9722a3daafe3b4186f6b6457e090600090a3505050565b6000606760008381526020019081526020016000206040518061018001604052908160008201548152602001600182015481526020016002820180546117a2906124c8565b80601f01602080910402602001604051908101604052809291908181526020018280546117ce906124c8565b801561181b5780601f106117f05761010080835404028352916020019161181b565b820191906000526020600020905b8154815290600101906020018083116117fe57829003601f168201915b505050918352505060038201546001600160a01b031660208083019190915260048301546040808401919091526005840154606080850191909152600685015460ff808216151560808701526101008083048216151560a08801526201000090920416151560c080870191909152600787015460e08701526008870154918601919091526009909501546101209094019390935291840151928401519151939450600093611912939287929091016080808252600f908201526e191a5cdc1d5d1954995cdbdb1d9959608a1b60a08201526001600160a01b0393909316602084015260408301919091521515606082015260c00190565b60408051601f1981840301905252505050565b6000807ff0c57e16840df040f15088dc2f81fe391c3923bec73e23a9662efc9c229c6a006106bf565b611956611c38565b61195f81611c5d565b611967611c6e565b50600080546001600160a01b0319166001600160a01b0392909216919091179055565b611992611c38565b610b99611c76565b6064548110156119cb5760645460405163a458261b60e01b8152610928918391600401918252602082015260400190565b60015b6065548111611a3d5760008181526067602052604090205486148015611a0a5750600081815260676020526040902060060154610100900460ff165b15611a2b5760405163b40fec2160e01b815260048101879052602401610928565b80611a35816124af565b9150506119ce565b5060658054906000611a4e836124af565b9091555050604080516101808101825286815260208082018781528284018781526001600160a01b038b16606085015260006080850181905260a0850181905260c08501819052600160e086018190526101008601829052426101208701526101408601829052610160860188905260655482526067909452949094208351815590519181019190915591519091906002820190611aec9082612550565b5060608201516003820180546001600160a01b0319166001600160a01b039283161790556080830151600483015560a0830151600583015560c083015160068301805460e08601516101008088015161ffff1990931694151561ff001916949094179015159093029290921762ff0000191662010000921515929092029190911790556101208301516007830155610140830151600883015561016090920151600990910155606554604051918816918791907ff5e09dccbab139121dcc48f58c750c32e9b62b23bd1cb4939d267791442008b490611bd29089908990899089906127ad565b60405180910390a4505050505050565b611beb82611c7e565b6040516001600160a01b038316907fbc7cd75a20ee27fd9adebab32041f755214dbc6bffa90cc0225b39da2e5c2d3b90600090a2805115611c3057610e2c8282611cf5565b610a1e611d6b565b611c40611d8a565b610b9957604051631afcd79f60e31b815260040160405180910390fd5b611c65611c38565b61100f81611da4565b610b99611c38565b61141f611c38565b806001600160a01b03163b600003611cb457604051634c9c8ce360e01b81526001600160a01b0382166004820152602401610928565b7f360894a13ba1a3210667c828492db98dca3e2076cc3735a920a3ca505d382bbc80546001600160a01b0319166001600160a01b0392909216919091179055565b6060600080846001600160a01b031684604051611d1291906127ea565b600060405180830381855af49150503d8060008114611d4d576040519150601f19603f3d011682016040523d82523d6000602084013e611d52565b606091505b5091509150611d62858383611dac565b95945050505050565b3415610b995760405163b398979f60e01b815260040160405180910390fd5b6000611d94611925565b54600160401b900460ff16919050565b611393611c38565b606082611dc157611dbc82611e0b565b611e04565b8151158015611dd857506001600160a01b0384163b155b15611e0157604051639996b31560e01b81526001600160a01b0385166004820152602401610928565b50805b9392505050565b805115611e1b5780518082602001fd5b60405163d6bda27560e01b815260040160405180910390fd5b60008060408385031215611e4757600080fd5b50508035926020909101359150565b60008083601f840112611e6857600080fd5b50813567ffffffffffffffff811115611e8057600080fd5b602083019150836020828501011115611e9857600080fd5b9250929050565b60008060208385031215611eb257600080fd5b823567ffffffffffffffff811115611ec957600080fd5b611ed585828601611e56565b90969095509350505050565b600080600080600080600060a0888a031215611efc57600080fd5b8735965060208801359550604088013567ffffffffffffffff811115611f2157600080fd5b611f2d8a828b01611e56565b909650945050606088013567ffffffffffffffff811115611f4d57600080fd5b611f598a828b01611e56565b989b979a50959894979596608090950135949350505050565b6001600160a01b038116811461100f57600080fd5b600080600080600080600087890360e0811215611fa357600080fd5b6060811215611fb157600080fd5b5087965060608701359550608087013567ffffffffffffffff811115611fd657600080fd5b611fe28a828b01611e56565b90965094505060a0880135611ff681611f72565b925060c088013567ffffffffffffffff81111561201257600080fd5b61201e8a828b01611e56565b989b979a50959850939692959293505050565b803563ffffffff8116811461204557600080fd5b919050565b6000806040838503121561205d57600080fd5b61206683612031565b946020939093013593505050565b60006020828403121561208657600080fd5b5035919050565b600080604083850312156120a057600080fd5b8235915060208301356120b281611f72565b809150509250929050565b634e487b7160e01b600052604160045260246000fd5b60008067ffffffffffffffff8411156120ee576120ee6120bd565b50604051601f19601f85018116603f0116810181811067ffffffffffffffff8211171561211d5761211d6120bd565b60405283815290508082840185101561213557600080fd5b83836020830137600060208583010152509392505050565b6000806040838503121561216057600080fd5b823561216b81611f72565b9150602083013567ffffffffffffffff81111561218757600080fd5b8301601f8101851361219857600080fd5b6121a7858235602084016120d3565b9150509250929050565b60005b838110156121cc5781810151838201526020016121b4565b50506000910152565b600081518084526121ed8160208601602086016121b1565b601f01601f19169290920160200192915050565b6020815260006106bc60208301846121d5565b8c81528b60208201526101806040820152600061223561018083018d6121d5565b6001600160a01b039b909b16606083015250608081019890985260a088019690965293151560c087015291151560e08601521515610100850152610120840152610140830152610160909101529392505050565b60006020828403121561229b57600080fd5b6106bc82612031565b6000806000606084860312156122b957600080fd5b83359250602084013580151581146122d057600080fd5b915060408401356122e081611f72565b809150509250925092565b602080825282518282018190526000918401906040840190835b818110156123675783516001600160a01b0381511684526001600160a01b03602082015116602085015260408101511515604085015260608101516060850152608081015160808501525060a083019250602084019350600181019050612305565b509095945050505050565b6020815281516020820152602082015160408201526000604083015161018060608401526123a46101a08401826121d5565b905060608401516123c060808501826001600160a01b03169052565b50608084015160a084015260a084015160c084015260c08401516123e860e085018215159052565b5060e084015180151561010085015250610100840151801515610120850152506101208401516101408401526101408401516101608401526101608401516101808401528091505092915050565b6000806000806080858703121561244c57600080fd5b843561245781611f72565b9350602085013561246781611f72565b93969395505050506040820135916060013590565b60006020828403121561248e57600080fd5b8135611e0481611f72565b634e487b7160e01b600052601160045260246000fd5b6000600182016124c1576124c1612499565b5060010190565b600181811c908216806124dc57607f821691505b6020821081036124fc57634e487b7160e01b600052602260045260246000fd5b50919050565b601f821115610e2c57806000526020600020601f840160051c810160208510156125295750805b601f840160051c820191505b818110156125495760008155600101612535565b5050505050565b815167ffffffffffffffff81111561256a5761256a6120bd565b61257e8161257884546124c8565b84612502565b6020601f8211600181146125b2576000831561259a5750848201515b600019600385901b1c1916600184901b178455612549565b600084815260208120601f198516915b828110156125e257878501518255602094850194600190920191016125c2565b50848210156126005786840151600019600387901b60f8161c191681555b50505050600190811b01905550565b81835281816020850137506000828201602090810191909152601f909101601f19169091010190565b86815260806020820152600061265260808301878961260f565b828103604084015261266581868861260f565b915050826060830152979650505050505050565b808201808211156106bf576106bf612499565b8315158152826020820152606060408201526000611d6260608301846121d5565b600082601f8301126126be57600080fd5b6106bc838335602085016120d3565b600080600080600080600060e0888a0312156126e857600080fd5b873567ffffffffffffffff8111156126ff57600080fd5b61270b8a828b016126ad565b975050602088013561271c81611f72565b95506040880135945060608801359350608088013567ffffffffffffffff81111561274657600080fd5b6127528a828b016126ad565b93505060a088013567ffffffffffffffff81111561276f57600080fd5b61277b8a828b016126ad565b979a969950949793969295929450505060c09091013590565b6000602082840312156127a657600080fd5b5051919050565b8481526080602082015260006127c660808301866121d5565b82810360408401526127d881866121d5565b91505082606083015295945050505050565b600082516127fc8184602087016121b1565b919091019291505056fea2646970667358221220f8fe7586d527e566b9aec6ce96e3b52ff7313bc5e3bb7ddf5ea550da2bbb086264736f6c634300081c0033",
			"opcodes": "PUSH1 0xA0 PUSH1 0x40 MSTORE ADDRESS PUSH1 0x80 MSTORE CALLVALUE DUP1 ISZERO PUSH2 0x14 JUMPI PUSH1 0x0 DUP1 REVERT JUMPDEST POP PUSH2 0x1D PUSH2 0x22 JUMP JUMPDEST PUSH2 0xD4 JUMP JUMPDEST PUSH32 0xF0C57E16840DF040F15088DC2F81FE391C3923BEC73E23A9662EFC9C229C6A00 DUP1 SLOAD PUSH9 0x10000000000000000 SWAP1 DIV PUSH1 0xFF AND ISZERO PUSH2 0x72 JUMPI PUSH1 0x40 MLOAD PUSH4 0xF92EE8A9 PUSH1 0xE0 SHL DUP2 MSTORE PUSH1 0x4 ADD PUSH1 0x40 MLOAD DUP1 SWAP2 SUB SWAP1 REVERT JUMPDEST DUP1 SLOAD PUSH1 0x1 PUSH1 0x1 PUSH1 0x40 SHL SUB SWAP1 DUP2 AND EQ PUSH2 0xD1 JUMPI DUP1 SLOAD PUSH1 0x1 PUSH1 0x1 PUSH1 0x40 SHL SUB NOT AND PUSH1 0x1 PUSH1 0x1 PUSH1 0x40 SHL SUB SWAP1 DUP2 OR DUP3 SSTORE PUSH1 0x40 MLOAD SWAP1 DUP2 MSTORE PUSH32 0xC7F505B2F371AE2175EE4913F4499E1F2633A7B5936321EED1CDAEB6115181D2 SWAP1 PUSH1 0x20 ADD PUSH1 0x40 MLOAD DUP1 SWAP2 SUB SWAP1 LOG1 JUMPDEST POP JUMP JUMPDEST PUSH1 0x80 MLOAD PUSH2 0x283C PUSH2 0xFD PUSH1 0x0 CODECOPY PUSH1 0x0 DUP2 DUP2 PUSH2 0x1520 ADD MSTORE DUP2 DUP2 PUSH2 0x1549 ADD MSTORE PUSH2 0x16AE ADD MSTORE PUSH2 0x283C PUSH1 0x0 RETURN INVALID PUSH1 0x80 PUSH1 0x40 MSTORE PUSH1 0x4 CALLDATASIZE LT PUSH2 0x1C2 JUMPI PUSH1 0x0 CALLDATALOAD PUSH1 0xE0 SHR DUP1 PUSH4 0x65A26578 GT PUSH2 0xF7 JUMPI DUP1 PUSH4 0xBB0B6A53 GT PUSH2 0x95 JUMPI DUP1 PUSH4 0xDC296AE1 GT PUSH2 0x64 JUMPI DUP1 PUSH4 0xDC296AE1 EQ PUSH2 0x5A5 JUMPI DUP1 PUSH4 0xE3A96CBD EQ PUSH2 0x5EB JUMPI DUP1 PUSH4 0xEB990C59 EQ PUSH2 0x618 JUMPI DUP1 PUSH4 0xF2FDE38B EQ PUSH2 0x638 JUMPI PUSH1 0x0 DUP1 REVERT JUMPDEST DUP1 PUSH4 0xBB0B6A53 EQ PUSH2 0x50B JUMPI DUP1 PUSH4 0xBE118D7A EQ PUSH2 0x538 JUMPI DUP1 PUSH4 0xC2B7B868 EQ PUSH2 0x558 JUMPI DUP1 PUSH4 0xC4736092 EQ PUSH2 0x578 JUMPI PUSH1 0x0 DUP1 REVERT JUMPDEST DUP1 PUSH4 0x8DA5CB5B GT PUSH2 0xD1 JUMPI DUP1 PUSH4 0x8DA5CB5B EQ PUSH2 0x459 JUMPI DUP1 PUSH4 0xAD3CB1CC EQ PUSH2 0x496 JUMPI DUP1 PUSH4 0xB1610D7E EQ PUSH2 0x4C7 JUMPI DUP1 PUSH4 0xB2C2F2E8 EQ PUSH2 0x4DE JUMPI PUSH1 0x0 DUP1 REVERT JUMPDEST DUP1 PUSH4 0x65A26578 EQ PUSH2 0x40E JUMPI DUP1 PUSH4 0x715018A6 EQ PUSH2 0x42E JUMPI DUP1 PUSH4 0x7D36F4D3 EQ PUSH2 0x443 JUMPI PUSH1 0x0 DUP1 REVERT JUMPDEST DUP1 PUSH4 0x43859632 GT PUSH2 0x164 JUMPI DUP1 PUSH4 0x52D1902D GT PUSH2 0x13E JUMPI DUP1 PUSH4 0x52D1902D EQ PUSH2 0x352 JUMPI DUP1 PUSH4 0x54FD4D50 EQ PUSH2 0x367 JUMPI DUP1 PUSH4 0x564A565D EQ PUSH2 0x39E JUMPI DUP1 PUSH4 0x5E280F11 EQ PUSH2 0x3D6 JUMPI PUSH1 0x0 DUP1 REVERT JUMPDEST DUP1 PUSH4 0x43859632 EQ PUSH2 0x2EE JUMPI DUP1 PUSH4 0x4909F765 EQ PUSH2 0x329 JUMPI DUP1 PUSH4 0x4F1EF286 EQ PUSH2 0x33F JUMPI PUSH1 0x0 DUP1 REVERT JUMPDEST DUP1 PUSH4 0x120EA202 GT PUSH2 0x1A0 JUMPI DUP1 PUSH4 0x120EA202 EQ PUSH2 0x277 JUMPI DUP1 PUSH4 0x13137D65 EQ PUSH2 0x29B JUMPI DUP1 PUSH4 0x3400288B EQ PUSH2 0x2AE JUMPI DUP1 PUSH4 0x42DA4A60 EQ PUSH2 0x2CE JUMPI PUSH1 0x0 DUP1 REVERT JUMPDEST DUP1 PUSH4 0x1FFDB01 EQ PUSH2 0x1C7 JUMPI DUP1 PUSH4 0x308B414 EQ PUSH2 0x225 JUMPI DUP1 PUSH4 0x72358B1 EQ PUSH2 0x255 JUMPI JUMPDEST PUSH1 0x0 DUP1 REVERT JUMPDEST CALLVALUE DUP1 ISZERO PUSH2 0x1D3 JUMPI PUSH1 0x0 DUP1 REVERT JUMPDEST POP PUSH2 0x1E7 PUSH2 0x1E2 CALLDATASIZE PUSH1 0x4 PUSH2 0x1E34 JUMP JUMPDEST PUSH2 0x658 JUMP JUMPDEST PUSH1 0x40 DUP1 MLOAD PUSH1 0x1 PUSH1 0x1 PUSH1 0xA0 SHL SUB SWAP7 DUP8 AND DUP2 MSTORE SWAP6 SWAP1 SWAP5 AND PUSH1 0x20 DUP7 ADD MSTORE SWAP2 ISZERO ISZERO SWAP3 DUP5 ADD SWAP3 SWAP1 SWAP3 MSTORE PUSH1 0x60 DUP4 ADD SWAP2 SWAP1 SWAP2 MSTORE PUSH1 0x80 DUP3 ADD MSTORE PUSH1 0xA0 ADD JUMPDEST PUSH1 0x40 MLOAD DUP1 SWAP2 SUB SWAP1 RETURN JUMPDEST CALLVALUE DUP1 ISZERO PUSH2 0x231 JUMPI PUSH1 0x0 DUP1 REVERT JUMPDEST POP PUSH2 0x245 PUSH2 0x240 CALLDATASIZE PUSH1 0x4 PUSH2 0x1E9F JUMP JUMPDEST PUSH2 0x6B7 JUMP JUMPDEST PUSH1 0x40 MLOAD SWAP1 ISZERO ISZERO DUP2 MSTORE PUSH1 0x20 ADD PUSH2 0x21C JUMP JUMPDEST CALLVALUE DUP1 ISZERO PUSH2 0x261 JUMPI PUSH1 0x0 DUP1 REVERT JUMPDEST POP PUSH2 0x275 PUSH2 0x270 CALLDATASIZE PUSH1 0x4 PUSH2 0x1EE1 JUMP JUMPDEST PUSH2 0x6C5 JUMP JUMPDEST STOP JUMPDEST CALLVALUE DUP1 ISZERO PUSH2 0x283 JUMPI PUSH1 0x0 DUP1 REVERT JUMPDEST POP PUSH2 0x28D PUSH1 0x66 SLOAD DUP2 JUMP JUMPDEST PUSH1 0x40 MLOAD SWAP1 DUP2 MSTORE PUSH1 0x20 ADD PUSH2 0x21C JUMP JUMPDEST PUSH2 0x275 PUSH2 0x2A9 CALLDATASIZE PUSH1 0x4 PUSH2 0x1F87 JUMP JUMPDEST PUSH2 0x8AC JUMP JUMPDEST CALLVALUE DUP1 ISZERO PUSH2 0x2BA JUMPI PUSH1 0x0 DUP1 REVERT JUMPDEST POP PUSH2 0x275 PUSH2 0x2C9 CALLDATASIZE PUSH1 0x4 PUSH2 0x204A JUMP JUMPDEST PUSH2 0x940 JUMP JUMPDEST CALLVALUE DUP1 ISZERO PUSH2 0x2DA JUMPI PUSH1 0x0 DUP1 REVERT JUMPDEST POP PUSH2 0x275 PUSH2 0x2E9 CALLDATASIZE PUSH1 0x4 PUSH2 0x2074 JUMP JUMPDEST PUSH2 0x9BF JUMP JUMPDEST CALLVALUE DUP1 ISZERO PUSH2 0x2FA JUMPI PUSH1 0x0 DUP1 REVERT JUMPDEST POP PUSH2 0x245 PUSH2 0x309 CALLDATASIZE PUSH1 0x4 PUSH2 0x208D JUMP JUMPDEST PUSH1 0x69 PUSH1 0x20 SWAP1 DUP2 MSTORE PUSH1 0x0 SWAP3 DUP4 MSTORE PUSH1 0x40 DUP1 DUP5 KECCAK256 SWAP1 SWAP2 MSTORE SWAP1 DUP3 MSTORE SWAP1 KECCAK256 SLOAD PUSH1 0xFF AND DUP2 JUMP JUMPDEST CALLVALUE DUP1 ISZERO PUSH2 0x335 JUMPI PUSH1 0x0 DUP1 REVERT JUMPDEST POP PUSH2 0x28D PUSH1 0x64 SLOAD DUP2 JUMP JUMPDEST PUSH2 0x275 PUSH2 0x34D CALLDATASIZE PUSH1 0x4 PUSH2 0x214D JUMP JUMPDEST PUSH2 0xA03 JUMP JUMPDEST CALLVALUE DUP1 ISZERO PUSH2 0x35E JUMPI PUSH1 0x0 DUP1 REVERT JUMPDEST POP PUSH2 0x28D PUSH2 0xA22 JUMP JUMPDEST CALLVALUE DUP1 ISZERO PUSH2 0x373 JUMPI PUSH1 0x0 DUP1 REVERT JUMPDEST POP PUSH1 0x40 DUP1 MLOAD DUP1 DUP3 ADD SWAP1 SWAP2 MSTORE PUSH1 0x5 DUP2 MSTORE PUSH5 0x312E302E3 PUSH1 0xDC SHL PUSH1 0x20 DUP3 ADD MSTORE JUMPDEST PUSH1 0x40 MLOAD PUSH2 0x21C SWAP2 SWAP1 PUSH2 0x2201 JUMP JUMPDEST CALLVALUE DUP1 ISZERO PUSH2 0x3AA JUMPI PUSH1 0x0 DUP1 REVERT JUMPDEST POP PUSH2 0x3BE PUSH2 0x3B9 CALLDATASIZE PUSH1 0x4 PUSH2 0x2074 JUMP JUMPDEST PUSH2 0xA51 JUMP JUMPDEST PUSH1 0x40 MLOAD PUSH2 0x21C SWAP13 SWAP12 SWAP11 SWAP10 SWAP9 SWAP8 SWAP7 SWAP6 SWAP5 SWAP4 SWAP3 SWAP2 SWAP1 PUSH2 0x2214 JUMP JUMPDEST CALLVALUE DUP1 ISZERO PUSH2 0x3E2 JUMPI PUSH1 0x0 DUP1 REVERT JUMPDEST POP PUSH1 0x0 SLOAD PUSH2 0x3F6 SWAP1 PUSH1 0x1 PUSH1 0x1 PUSH1 0xA0 SHL SUB AND DUP2 JUMP JUMPDEST PUSH1 0x40 MLOAD PUSH1 0x1 PUSH1 0x1 PUSH1 0xA0 SHL SUB SWAP1 SWAP2 AND DUP2 MSTORE PUSH1 0x20 ADD PUSH2 0x21C JUMP JUMPDEST CALLVALUE DUP1 ISZERO PUSH2 0x41A JUMPI PUSH1 0x0 DUP1 REVERT JUMPDEST POP PUSH2 0x275 PUSH2 0x429 CALLDATASIZE PUSH1 0x4 PUSH2 0x2074 JUMP JUMPDEST PUSH2 0xB4A JUMP JUMPDEST CALLVALUE DUP1 ISZERO PUSH2 0x43A JUMPI PUSH1 0x0 DUP1 REVERT JUMPDEST POP PUSH2 0x275 PUSH2 0xB87 JUMP JUMPDEST CALLVALUE DUP1 ISZERO PUSH2 0x44F JUMPI PUSH1 0x0 DUP1 REVERT JUMPDEST POP PUSH2 0x28D PUSH1 0x65 SLOAD DUP2 JUMP JUMPDEST CALLVALUE DUP1 ISZERO PUSH2 0x465 JUMPI PUSH1 0x0 DUP1 REVERT JUMPDEST POP PUSH32 0x9016D09D72D40FDAE2FD8CEAC6B6234C7706214FD39C1CD1E609A0528C199300 SLOAD PUSH1 0x1 PUSH1 0x1 PUSH1 0xA0 SHL SUB AND PUSH2 0x3F6 JUMP JUMPDEST CALLVALUE DUP1 ISZERO PUSH2 0x4A2 JUMPI PUSH1 0x0 DUP1 REVERT JUMPDEST POP PUSH2 0x391 PUSH1 0x40 MLOAD DUP1 PUSH1 0x40 ADD PUSH1 0x40 MSTORE DUP1 PUSH1 0x5 DUP2 MSTORE PUSH1 0x20 ADD PUSH5 0x352E302E3 PUSH1 0xDC SHL DUP2 MSTORE POP DUP2 JUMP JUMPDEST CALLVALUE DUP1 ISZERO PUSH2 0x4D3 JUMPI PUSH1 0x0 DUP1 REVERT JUMPDEST POP PUSH2 0x28D PUSH3 0x54600 DUP2 JUMP JUMPDEST CALLVALUE DUP1 ISZERO PUSH2 0x4EA JUMPI PUSH1 0x0 DUP1 REVERT JUMPDEST POP PUSH2 0x28D PUSH2 0x4F9 CALLDATASIZE PUSH1 0x4 PUSH2 0x2074 JUMP JUMPDEST PUSH1 0x0 SWAP1 DUP2 MSTORE PUSH1 0x68 PUSH1 0x20 MSTORE PUSH1 0x40 SWAP1 KECCAK256 SLOAD SWAP1 JUMP JUMPDEST CALLVALUE DUP1 ISZERO PUSH2 0x517 JUMPI PUSH1 0x0 DUP1 REVERT JUMPDEST POP PUSH2 0x28D PUSH2 0x526 CALLDATASIZE PUSH1 0x4 PUSH2 0x2289 JUMP JUMPDEST PUSH1 0x1 PUSH1 0x20 MSTORE PUSH1 0x0 SWAP1 DUP2 MSTORE PUSH1 0x40 SWAP1 KECCAK256 SLOAD DUP2 JUMP JUMPDEST CALLVALUE DUP1 ISZERO PUSH2 0x544 JUMPI PUSH1 0x0 DUP1 REVERT JUMPDEST POP PUSH2 0x275 PUSH2 0x553 CALLDATASIZE PUSH1 0x4 PUSH2 0x22A4 JUMP JUMPDEST PUSH2 0xB9B JUMP JUMPDEST CALLVALUE DUP1 ISZERO PUSH2 0x564 JUMPI PUSH1 0x0 DUP1 REVERT JUMPDEST POP PUSH2 0x275 PUSH2 0x573 CALLDATASIZE PUSH1 0x4 PUSH2 0x2074 JUMP JUMPDEST PUSH2 0xE31 JUMP JUMPDEST CALLVALUE DUP1 ISZERO PUSH2 0x584 JUMPI PUSH1 0x0 DUP1 REVERT JUMPDEST POP PUSH2 0x598 PUSH2 0x593 CALLDATASIZE PUSH1 0x4 PUSH2 0x2074 JUMP JUMPDEST PUSH2 0x1012 JUMP JUMPDEST PUSH1 0x40 MLOAD PUSH2 0x21C SWAP2 SWAP1 PUSH2 0x22EB JUMP JUMPDEST CALLVALUE DUP1 ISZERO PUSH2 0x5B1 JUMPI PUSH1 0x0 DUP1 REVERT JUMPDEST POP PUSH2 0x245 PUSH2 0x5C0 CALLDATASIZE PUSH1 0x4 PUSH2 0x208D JUMP JUMPDEST PUSH1 0x0 SWAP2 DUP3 MSTORE PUSH1 0x69 PUSH1 0x20 SWAP1 DUP2 MSTORE PUSH1 0x40 DUP1 DUP5 KECCAK256 PUSH1 0x1 PUSH1 0x1 PUSH1 0xA0 SHL SUB SWAP4 SWAP1 SWAP4 AND DUP5 MSTORE SWAP2 SWAP1 MSTORE SWAP1 KECCAK256 SLOAD PUSH1 0xFF AND SWAP1 JUMP JUMPDEST CALLVALUE DUP1 ISZERO PUSH2 0x5F7 JUMPI PUSH1 0x0 DUP1 REVERT JUMPDEST POP PUSH2 0x60B PUSH2 0x606 CALLDATASIZE PUSH1 0x4 PUSH2 0x2074 JUMP JUMPDEST PUSH2 0x10C6 JUMP JUMPDEST PUSH1 0x40 MLOAD PUSH2 0x21C SWAP2 SWAP1 PUSH2 0x2372 JUMP JUMPDEST CALLVALUE DUP1 ISZERO PUSH2 0x624 JUMPI PUSH1 0x0 DUP1 REVERT JUMPDEST POP PUSH2 0x275 PUSH2 0x633 CALLDATASIZE PUSH1 0x4 PUSH2 0x2436 JUMP JUMPDEST PUSH2 0x1279 JUMP JUMPDEST CALLVALUE DUP1 ISZERO PUSH2 0x644 JUMPI PUSH1 0x0 DUP1 REVERT JUMPDEST POP PUSH2 0x275 PUSH2 0x653 CALLDATASIZE PUSH1 0x4 PUSH2 0x247C JUMP JUMPDEST PUSH2 0x138B JUMP JUMPDEST PUSH1 0x68 PUSH1 0x20 MSTORE DUP2 PUSH1 0x0 MSTORE PUSH1 0x40 PUSH1 0x0 KECCAK256 DUP2 DUP2 SLOAD DUP2 LT PUSH2 0x674 JUMPI PUSH1 0x0 DUP1 REVERT JUMPDEST PUSH1 0x0 SWAP2 DUP3 MSTORE PUSH1 0x20 SWAP1 SWAP2 KECCAK256 PUSH1 0x4 SWAP1 SWAP2 MUL ADD DUP1 SLOAD PUSH1 0x1 DUP3 ADD SLOAD PUSH1 0x2 DUP4 ADD SLOAD PUSH1 0x3 SWAP1 SWAP4 ADD SLOAD PUSH1 0x1 PUSH1 0x1 PUSH1 0xA0 SHL SUB SWAP3 DUP4 AND SWAP6 POP SWAP2 DUP2 AND SWAP4 POP PUSH1 0x1 PUSH1 0xA0 SHL SWAP1 DIV PUSH1 0xFF AND SWAP2 SWAP1 DUP6 JUMP JUMPDEST PUSH1 0x0 PUSH1 0x1 JUMPDEST SWAP1 POP JUMPDEST SWAP3 SWAP2 POP POP JUMP JUMPDEST PUSH2 0x6CD PUSH2 0x13C6 JUMP JUMPDEST PUSH1 0x65 DUP1 SLOAD SWAP1 PUSH1 0x0 PUSH2 0x6DD DUP4 PUSH2 0x24AF JUMP JUMPDEST SWAP2 SWAP1 POP SSTORE POP PUSH1 0x40 MLOAD DUP1 PUSH2 0x180 ADD PUSH1 0x40 MSTORE DUP1 DUP9 DUP2 MSTORE PUSH1 0x20 ADD DUP8 DUP2 MSTORE PUSH1 0x20 ADD DUP7 DUP7 DUP1 DUP1 PUSH1 0x1F ADD PUSH1 0x20 DUP1 SWAP2 DIV MUL PUSH1 0x20 ADD PUSH1 0x40 MLOAD SWAP1 DUP2 ADD PUSH1 0x40 MSTORE DUP1 SWAP4 SWAP3 SWAP2 SWAP1 DUP2 DUP2 MSTORE PUSH1 0x20 ADD DUP4 DUP4 DUP1 DUP3 DUP5 CALLDATACOPY PUSH1 0x0 SWAP3 ADD DUP3 SWAP1 MSTORE POP SWAP4 DUP6 MSTORE POP POP CALLER PUSH1 0x20 DUP1 DUP6 ADD SWAP2 SWAP1 SWAP2 MSTORE PUSH1 0x40 DUP1 DUP6 ADD DUP5 SWAP1 MSTORE PUSH1 0x60 DUP6 ADD DUP5 SWAP1 MSTORE PUSH1 0x80 DUP6 ADD DUP5 SWAP1 MSTORE PUSH1 0x1 PUSH1 0xA0 DUP7 ADD DUP2 SWAP1 MSTORE PUSH1 0xC0 DUP7 ADD DUP6 SWAP1 MSTORE TIMESTAMP PUSH1 0xE0 DUP8 ADD MSTORE PUSH2 0x100 DUP7 ADD DUP6 SWAP1 MSTORE PUSH2 0x120 SWAP1 SWAP6 ADD DUP8 SWAP1 MSTORE PUSH1 0x65 SLOAD DUP5 MSTORE PUSH1 0x67 DUP3 MSTORE SWAP3 DUP4 SWAP1 KECCAK256 DUP6 MLOAD DUP2 SSTORE SWAP1 DUP6 ADD MLOAD SWAP4 DUP2 ADD SWAP4 SWAP1 SWAP4 SSTORE POP DUP3 ADD MLOAD PUSH1 0x2 DUP3 ADD SWAP1 PUSH2 0x7A7 SWAP1 DUP3 PUSH2 0x2550 JUMP JUMPDEST POP PUSH1 0x60 DUP3 ADD MLOAD PUSH1 0x3 DUP3 ADD DUP1 SLOAD PUSH1 0x1 PUSH1 0x1 PUSH1 0xA0 SHL SUB NOT AND PUSH1 0x1 PUSH1 0x1 PUSH1 0xA0 SHL SUB SWAP1 SWAP3 AND SWAP2 SWAP1 SWAP2 OR SWAP1 SSTORE PUSH1 0x80 DUP3 ADD MLOAD PUSH1 0x4 DUP3 ADD SSTORE PUSH1 0xA0 DUP3 ADD MLOAD PUSH1 0x5 DUP3 ADD SSTORE PUSH1 0xC0 DUP3 ADD MLOAD PUSH1 0x6 DUP3 ADD DUP1 SLOAD PUSH1 0xE0 DUP6 ADD MLOAD PUSH2 0x100 DUP1 DUP8 ADD MLOAD PUSH2 0xFFFF NOT SWAP1 SWAP4 AND SWAP5 ISZERO ISZERO PUSH2 0xFF00 NOT AND SWAP5 SWAP1 SWAP5 OR SWAP1 ISZERO ISZERO SWAP1 SWAP4 MUL SWAP3 SWAP1 SWAP3 OR PUSH3 0xFF0000 NOT AND PUSH3 0x10000 SWAP3 ISZERO ISZERO SWAP3 SWAP1 SWAP3 MUL SWAP2 SWAP1 SWAP2 OR SWAP1 SSTORE PUSH2 0x120 DUP3 ADD MLOAD PUSH1 0x7 DUP3 ADD SSTORE PUSH2 0x140 DUP3 ADD MLOAD PUSH1 0x8 DUP3 ADD SSTORE PUSH2 0x160 SWAP1 SWAP2 ADD MLOAD PUSH1 0x9 SWAP1 SWAP2 ADD SSTORE PUSH1 0x65 SLOAD PUSH1 0x40 MLOAD CALLER SWAP2 DUP10 SWAP2 PUSH32 0xF5E09DCCBAB139121DCC48F58C750C32E9B62B23BD1CB4939D267791442008B4 SWAP1 PUSH2 0x891 SWAP1 DUP12 SWAP1 DUP12 SWAP1 DUP12 SWAP1 DUP12 SWAP1 DUP12 SWAP1 DUP12 SWAP1 PUSH2 0x2638 JUMP JUMPDEST PUSH1 0x40 MLOAD DUP1 SWAP2 SUB SWAP1 LOG4 PUSH2 0x8A3 PUSH1 0x1 PUSH1 0x32 SSTORE JUMP JUMPDEST POP POP POP POP POP POP POP JUMP JUMPDEST PUSH1 0x0 SLOAD PUSH1 0x1 PUSH1 0x1 PUSH1 0xA0 SHL SUB AND CALLER EQ PUSH2 0x8D7 JUMPI PUSH1 0x40 MLOAD PUSH4 0xFD72CD9 PUSH1 0xE3 SHL DUP2 MSTORE PUSH1 0x4 ADD PUSH1 0x40 MLOAD DUP1 SWAP2 SUB SWAP1 REVERT JUMPDEST PUSH1 0x1 PUSH1 0x0 PUSH2 0x8E8 PUSH1 0x20 DUP11 ADD DUP11 PUSH2 0x2289 JUMP JUMPDEST PUSH4 0xFFFFFFFF AND PUSH4 0xFFFFFFFF AND DUP2 MSTORE PUSH1 0x20 ADD SWAP1 DUP2 MSTORE PUSH1 0x20 ADD PUSH1 0x0 KECCAK256 SLOAD DUP8 PUSH1 0x20 ADD CALLDATALOAD EQ PUSH2 0x931 JUMPI PUSH1 0x40 MLOAD PUSH4 0x316693D9 PUSH1 0xE2 SHL DUP2 MSTORE PUSH1 0x20 DUP9 ADD CALLDATALOAD PUSH1 0x4 DUP3 ADD MSTORE PUSH1 0x24 ADD JUMPDEST PUSH1 0x40 MLOAD DUP1 SWAP2 SUB SWAP1 REVERT JUMPDEST PUSH2 0x8A3 DUP8 DUP8 DUP8 DUP8 DUP8 DUP8 DUP8 PUSH2 0x1426 JUMP JUMPDEST PUSH2 0x948 PUSH2 0x14BA JUMP JUMPDEST DUP1 PUSH2 0x969 JUMPI PUSH1 0x40 MLOAD PUSH4 0x316693D9 PUSH1 0xE2 SHL DUP2 MSTORE PUSH1 0x4 DUP2 ADD DUP3 SWAP1 MSTORE PUSH1 0x24 ADD PUSH2 0x928 JUMP JUMPDEST PUSH4 0xFFFFFFFF DUP3 AND PUSH1 0x0 DUP2 DUP2 MSTORE PUSH1 0x1 PUSH1 0x20 MSTORE PUSH1 0x40 SWAP1 DUP2 SWAP1 KECCAK256 DUP4 SWAP1 SSTORE MLOAD PUSH32 0x238399D427B947898EDB290F5FF0F9109849B1C3BA196A42E35F00C50A54B98B SWAP1 PUSH2 0x9B3 SWAP1 DUP5 DUP2 MSTORE PUSH1 0x20 ADD SWAP1 JUMP JUMPDEST PUSH1 0x40 MLOAD DUP1 SWAP2 SUB SWAP1 LOG2 POP POP JUMP JUMPDEST PUSH2 0x9C7 PUSH2 0x14BA JUMP JUMPDEST PUSH1 0x66 DUP2 SWAP1 SSTORE PUSH1 0x40 MLOAD DUP2 DUP2 MSTORE PUSH32 0x1AD1FAB414D51CDDD5055BCB2430BC802E1C7FB28E0D5798F7F5D0D33EEFB916 SWAP1 PUSH1 0x20 ADD JUMPDEST PUSH1 0x40 MLOAD DUP1 SWAP2 SUB SWAP1 LOG1 POP JUMP JUMPDEST PUSH2 0xA0B PUSH2 0x1515 JUMP JUMPDEST PUSH2 0xA14 DUP3 PUSH2 0x15CC JUMP JUMPDEST PUSH2 0xA1E DUP3 DUP3 PUSH2 0x15D4 JUMP JUMPDEST POP POP JUMP JUMPDEST PUSH1 0x0 PUSH2 0xA2C PUSH2 0x16A3 JUMP JUMPDEST POP PUSH32 0x360894A13BA1A3210667C828492DB98DCA3E2076CC3735A920A3CA505D382BBC SWAP1 JUMP JUMPDEST PUSH1 0x67 PUSH1 0x20 MSTORE PUSH1 0x0 SWAP1 DUP2 MSTORE PUSH1 0x40 SWAP1 KECCAK256 DUP1 SLOAD PUSH1 0x1 DUP3 ADD SLOAD PUSH1 0x2 DUP4 ADD DUP1 SLOAD SWAP3 SWAP4 SWAP2 SWAP3 PUSH2 0xA79 SWAP1 PUSH2 0x24C8 JUMP JUMPDEST DUP1 PUSH1 0x1F ADD PUSH1 0x20 DUP1 SWAP2 DIV MUL PUSH1 0x20 ADD PUSH1 0x40 MLOAD SWAP1 DUP2 ADD PUSH1 0x40 MSTORE DUP1 SWAP3 SWAP2 SWAP1 DUP2 DUP2 MSTORE PUSH1 0x20 ADD DUP3 DUP1 SLOAD PUSH2 0xAA5 SWAP1 PUSH2 0x24C8 JUMP JUMPDEST DUP1 ISZERO PUSH2 0xAF2 JUMPI DUP1 PUSH1 0x1F LT PUSH2 0xAC7 JUMPI PUSH2 0x100 DUP1 DUP4 SLOAD DIV MUL DUP4 MSTORE SWAP2 PUSH1 0x20 ADD SWAP2 PUSH2 0xAF2 JUMP JUMPDEST DUP3 ADD SWAP2 SWAP1 PUSH1 0x0 MSTORE PUSH1 0x20 PUSH1 0x0 KECCAK256 SWAP1 JUMPDEST DUP2 SLOAD DUP2 MSTORE SWAP1 PUSH1 0x1 ADD SWAP1 PUSH1 0x20 ADD DUP1 DUP4 GT PUSH2 0xAD5 JUMPI DUP3 SWAP1 SUB PUSH1 0x1F AND DUP3 ADD SWAP2 JUMPDEST POP POP POP PUSH1 0x3 DUP5 ADD SLOAD PUSH1 0x4 DUP6 ADD SLOAD PUSH1 0x5 DUP7 ADD SLOAD PUSH1 0x6 DUP8 ADD SLOAD PUSH1 0x7 DUP9 ADD SLOAD PUSH1 0x8 DUP10 ADD SLOAD PUSH1 0x9 SWAP1 SWAP10 ADD SLOAD SWAP8 SWAP9 PUSH1 0x1 PUSH1 0x1 PUSH1 0xA0 SHL SUB SWAP1 SWAP6 AND SWAP8 SWAP4 SWAP7 POP SWAP2 SWAP5 POP PUSH1 0xFF DUP1 DUP3 AND SWAP5 PUSH2 0x100 DUP4 DIV DUP3 AND SWAP5 PUSH3 0x10000 SWAP1 SWAP4 DIV SWAP1 SWAP2 AND SWAP3 SWAP2 DUP13 JUMP JUMPDEST PUSH2 0xB52 PUSH2 0x14BA JUMP JUMPDEST PUSH1 0x64 DUP2 SWAP1 SSTORE PUSH1 0x40 MLOAD DUP2 DUP2 MSTORE PUSH32 0xF1A486561BBBFEEEAC993DBD1B7036B91EFF609A22F2AC18B37467BF0B3804CC SWAP1 PUSH1 0x20 ADD PUSH2 0x9F8 JUMP JUMPDEST PUSH2 0xB8F PUSH2 0x14BA JUMP JUMPDEST PUSH2 0xB99 PUSH1 0x0 PUSH2 0x16EC JUMP JUMPDEST JUMP JUMPDEST PUSH2 0xBA3 PUSH2 0x13C6 JUMP JUMPDEST DUP3 ISZERO DUP1 PUSH2 0xBB1 JUMPI POP PUSH1 0x65 SLOAD DUP4 GT JUMPDEST ISZERO PUSH2 0xBD2 JUMPI PUSH1 0x40 MLOAD PUSH4 0x4294E0F7 PUSH1 0xE0 SHL DUP2 MSTORE PUSH1 0x4 DUP2 ADD DUP5 SWAP1 MSTORE PUSH1 0x24 ADD PUSH2 0x928 JUMP JUMPDEST PUSH1 0x0 DUP4 DUP2 MSTORE PUSH1 0x67 PUSH1 0x20 MSTORE PUSH1 0x40 SWAP1 KECCAK256 PUSH1 0x6 DUP2 ADD SLOAD PUSH2 0x100 SWAP1 DIV PUSH1 0xFF AND ISZERO DUP1 PUSH2 0xC03 JUMPI POP PUSH1 0x6 DUP2 ADD SLOAD PUSH3 0x10000 SWAP1 DIV PUSH1 0xFF AND JUMPDEST ISZERO PUSH2 0xC24 JUMPI PUSH1 0x40 MLOAD PUSH4 0x13CCBABD PUSH1 0xE3 SHL DUP2 MSTORE PUSH1 0x4 DUP2 ADD DUP6 SWAP1 MSTORE PUSH1 0x24 ADD PUSH2 0x928 JUMP JUMPDEST PUSH3 0x54600 DUP2 PUSH1 0x7 ADD SLOAD PUSH2 0xC37 SWAP2 SWAP1 PUSH2 0x2679 JUMP JUMPDEST TIMESTAMP GT ISZERO PUSH2 0xC5A JUMPI PUSH1 0x40 MLOAD PUSH4 0xCCA35F03 PUSH1 0xE0 SHL DUP2 MSTORE PUSH1 0x4 DUP2 ADD DUP6 SWAP1 MSTORE PUSH1 0x24 ADD PUSH2 0x928 JUMP JUMPDEST PUSH1 0x0 DUP5 DUP2 MSTORE PUSH1 0x69 PUSH1 0x20 SWAP1 DUP2 MSTORE PUSH1 0x40 DUP1 DUP4 KECCAK256 CALLER DUP5 MSTORE SWAP1 SWAP2 MSTORE SWAP1 KECCAK256 SLOAD PUSH1 0xFF AND ISZERO PUSH2 0xC9E JUMPI PUSH1 0x40 MLOAD PUSH4 0x1BDD6E59 PUSH1 0xE1 SHL DUP2 MSTORE CALLER PUSH1 0x4 DUP3 ADD MSTORE PUSH1 0x24 DUP2 ADD DUP6 SWAP1 MSTORE PUSH1 0x44 ADD PUSH2 0x928 JUMP JUMPDEST PUSH1 0x0 DUP5 DUP2 MSTORE PUSH1 0x68 PUSH1 0x20 SWAP1 DUP2 MSTORE PUSH1 0x40 DUP1 DUP4 KECCAK256 DUP2 MLOAD PUSH1 0xA0 DUP2 ADD DUP4 MSTORE CALLER DUP2 MSTORE PUSH1 0x1 PUSH1 0x1 PUSH1 0xA0 SHL SUB DUP8 DUP2 AND DUP3 DUP7 ADD SWAP1 DUP2 MSTORE DUP10 ISZERO DUP1 ISZERO SWAP6 DUP5 ADD SWAP6 DUP7 MSTORE PUSH1 0x1 PUSH1 0x60 DUP6 ADD DUP2 DUP2 MSTORE TIMESTAMP PUSH1 0x80 DUP8 ADD SWAP1 DUP2 MSTORE DUP8 SLOAD DUP1 DUP5 ADD DUP10 SSTORE SWAP8 DUP12 MSTORE SWAP9 SWAP1 SWAP10 KECCAK256 SWAP5 MLOAD PUSH1 0x4 SWAP1 SWAP7 MUL SWAP1 SWAP5 ADD DUP1 SLOAD SWAP6 DUP5 AND PUSH1 0x1 PUSH1 0x1 PUSH1 0xA0 SHL SUB NOT SWAP1 SWAP7 AND SWAP6 SWAP1 SWAP6 OR DUP6 SSTORE SWAP1 MLOAD DUP5 DUP5 ADD DUP1 SLOAD SWAP7 MLOAD ISZERO ISZERO PUSH1 0x1 PUSH1 0xA0 SHL MUL PUSH21 0xFFFFFFFFFFFFFFFFFFFFFFFFFFFFFFFFFFFFFFFFFF NOT SWAP1 SWAP8 AND SWAP2 SWAP1 SWAP4 AND OR SWAP5 SWAP1 SWAP5 OR SWAP1 SSTORE SWAP4 MLOAD PUSH1 0x2 DUP3 ADD SSTORE SWAP2 MLOAD PUSH1 0x3 SWAP1 SWAP3 ADD SWAP2 SWAP1 SWAP2 SSTORE PUSH2 0xD80 JUMPI DUP1 DUP3 PUSH1 0x4 ADD PUSH1 0x0 DUP3 DUP3 SLOAD PUSH2 0xD75 SWAP2 SWAP1 PUSH2 0x2679 JUMP JUMPDEST SWAP1 SWAP2 SSTORE POP PUSH2 0xD9A SWAP1 POP JUMP JUMPDEST DUP1 DUP3 PUSH1 0x5 ADD PUSH1 0x0 DUP3 DUP3 SLOAD PUSH2 0xD94 SWAP2 SWAP1 PUSH2 0x2679 JUMP JUMPDEST SWAP1 SWAP2 SSTORE POP POP JUMPDEST DUP1 DUP3 PUSH1 0x8 ADD PUSH1 0x0 DUP3 DUP3 SLOAD PUSH2 0xDAE SWAP2 SWAP1 PUSH2 0x2679 JUMP JUMPDEST SWAP1 SWAP2 SSTORE POP POP PUSH1 0x0 DUP6 DUP2 MSTORE PUSH1 0x69 PUSH1 0x20 SWAP1 DUP2 MSTORE PUSH1 0x40 DUP1 DUP4 KECCAK256 CALLER DUP1 DUP6 MSTORE SWAP1 DUP4 MSTORE SWAP3 DUP2 SWAP1 KECCAK256 DUP1 SLOAD PUSH1 0xFF NOT AND PUSH1 0x1 OR SWAP1 SSTORE DUP1 MLOAD DUP8 ISZERO ISZERO DUP2 MSTORE SWAP2 DUP3 ADD DUP5 SWAP1 MSTORE PUSH1 0x1 PUSH1 0x1 PUSH1 0xA0 SHL SUB DUP7 AND SWAP3 SWAP2 DUP9 SWAP2 PUSH32 0xE67BCBB082983775F52D474DE7E0B293EE14BEBEF1DADAB2923061AF3972CAD0 SWAP2 ADD PUSH1 0x40 MLOAD DUP1 SWAP2 SUB SWAP1 LOG4 POP POP PUSH2 0xE2C PUSH1 0x1 PUSH1 0x32 SSTORE JUMP JUMPDEST POP POP POP JUMP JUMPDEST PUSH2 0xE39 PUSH2 0x13C6 JUMP JUMPDEST DUP1 ISZERO DUP1 PUSH2 0xE47 JUMPI POP PUSH1 0x65 SLOAD DUP2 GT JUMPDEST ISZERO PUSH2 0xE68 JUMPI PUSH1 0x40 MLOAD PUSH4 0x4294E0F7 PUSH1 0xE0 SHL DUP2 MSTORE PUSH1 0x4 DUP2 ADD DUP3 SWAP1 MSTORE PUSH1 0x24 ADD PUSH2 0x928 JUMP JUMPDEST PUSH1 0x0 DUP2 DUP2 MSTORE PUSH1 0x67 PUSH1 0x20 MSTORE PUSH1 0x40 SWAP1 KECCAK256 PUSH1 0x6 DUP2 ADD SLOAD PUSH3 0x10000 SWAP1 DIV PUSH1 0xFF AND ISZERO PUSH2 0xEA5 JUMPI PUSH1 0x40 MLOAD PUSH4 0x13CCBABD PUSH1 0xE3 SHL DUP2 MSTORE PUSH1 0x4 DUP2 ADD DUP4 SWAP1 MSTORE PUSH1 0x24 ADD PUSH2 0x928 JUMP JUMPDEST PUSH1 0x0 PUSH3 0x54600 DUP3 PUSH1 0x7 ADD SLOAD PUSH2 0xEBA SWAP2 SWAP1 PUSH2 0x2679 JUMP JUMPDEST TIMESTAMP GT SWAP1 POP DUP1 PUSH2 0xEDF JUMPI PUSH1 0x40 MLOAD PUSH4 0x4DAB92F1 PUSH1 0xE1 SHL DUP2 MSTORE PUSH1 0x4 DUP2 ADD DUP5 SWAP1 MSTORE PUSH1 0x24 ADD PUSH2 0x928 JUMP JUMPDEST PUSH1 0x60 PUSH1 0x66 SLOAD DUP4 PUSH1 0x8 ADD SLOAD LT ISZERO PUSH2 0xF2F JUMPI POP PUSH1 0x6 DUP3 ADD DUP1 SLOAD PUSH3 0xFFFFFF NOT AND PUSH3 0x10000 OR SWAP1 SSTORE PUSH1 0x40 DUP1 MLOAD DUP1 DUP3 ADD SWAP1 SWAP2 MSTORE PUSH1 0x10 DUP2 MSTORE PUSH16 0x4E4F545F454E4F5547485F564F544553 PUSH1 0x80 SHL PUSH1 0x20 DUP3 ADD MSTORE PUSH2 0xFB8 JUMP JUMPDEST PUSH1 0x5 DUP4 ADD SLOAD PUSH1 0x4 DUP5 ADD SLOAD PUSH1 0x6 DUP6 ADD DUP1 SLOAD PUSH3 0xFFFF00 NOT SWAP4 SWAP1 SWAP3 GT SWAP3 SWAP1 SWAP3 AND PUSH3 0xFFFFFF NOT SWAP1 SWAP2 AND OR PUSH3 0x10000 OR SWAP1 DUP2 SWAP1 SSTORE PUSH1 0xFF AND PUSH2 0xF8B JUMPI PUSH1 0x40 MLOAD DUP1 PUSH1 0x40 ADD PUSH1 0x40 MSTORE DUP1 PUSH1 0x8 DUP2 MSTORE PUSH1 0x20 ADD PUSH8 0x1491529150D51151 PUSH1 0xC2 SHL DUP2 MSTORE POP PUSH2 0xFAD JUMP JUMPDEST PUSH1 0x40 MLOAD DUP1 PUSH1 0x40 ADD PUSH1 0x40 MSTORE DUP1 PUSH1 0x8 DUP2 MSTORE PUSH1 0x20 ADD PUSH8 0x1054141493D59151 PUSH1 0xC2 SHL DUP2 MSTORE POP JUMPDEST SWAP1 POP PUSH2 0xFB8 DUP5 PUSH2 0x175D JUMP JUMPDEST PUSH1 0x6 DUP4 ADD SLOAD PUSH1 0x8 DUP5 ADD SLOAD PUSH1 0x40 MLOAD DUP7 SWAP3 PUSH32 0xA8F5A9E174811BE5722400DAB1C3B6F38A1AE463BC8A9571999C6768313BD564 SWAP3 PUSH2 0xFFA SWAP3 PUSH1 0xFF SWAP1 SWAP3 AND SWAP2 DUP7 SWAP1 PUSH2 0x268C JUMP JUMPDEST PUSH1 0x40 MLOAD DUP1 SWAP2 SUB SWAP1 LOG2 POP POP POP PUSH2 0x100F PUSH1 0x1 PUSH1 0x32 SSTORE JUMP JUMPDEST POP JUMP JUMPDEST PUSH1 0x60 PUSH1 0x68 PUSH1 0x0 DUP4 DUP2 MSTORE PUSH1 0x20 ADD SWAP1 DUP2 MSTORE PUSH1 0x20 ADD PUSH1 0x0 KECCAK256 DUP1 SLOAD DUP1 PUSH1 0x20 MUL PUSH1 0x20 ADD PUSH1 0x40 MLOAD SWAP1 DUP2 ADD PUSH1 0x40 MSTORE DUP1 SWAP3 SWAP2 SWAP1 DUP2 DUP2 MSTORE PUSH1 0x20 ADD PUSH1 0x0 SWAP1 JUMPDEST DUP3 DUP3 LT ISZERO PUSH2 0x10BB JUMPI PUSH1 0x0 DUP5 DUP2 MSTORE PUSH1 0x20 SWAP1 DUP2 SWAP1 KECCAK256 PUSH1 0x40 DUP1 MLOAD PUSH1 0xA0 DUP2 ADD DUP3 MSTORE PUSH1 0x4 DUP7 MUL SWAP1 SWAP3 ADD DUP1 SLOAD PUSH1 0x1 PUSH1 0x1 PUSH1 0xA0 SHL SUB SWAP1 DUP2 AND DUP5 MSTORE PUSH1 0x1 DUP1 DUP4 ADD SLOAD SWAP2 DUP3 AND DUP6 DUP8 ADD MSTORE PUSH1 0x1 PUSH1 0xA0 SHL SWAP1 SWAP2 DIV PUSH1 0xFF AND ISZERO ISZERO SWAP3 DUP5 ADD SWAP3 SWAP1 SWAP3 MSTORE PUSH1 0x2 DUP2 ADD SLOAD PUSH1 0x60 DUP5 ADD MSTORE PUSH1 0x3 ADD SLOAD PUSH1 0x80 DUP4 ADD MSTORE SWAP1 DUP4 MSTORE SWAP1 SWAP3 ADD SWAP2 ADD PUSH2 0x1047 JUMP JUMPDEST POP POP POP POP SWAP1 POP SWAP2 SWAP1 POP JUMP JUMPDEST PUSH2 0x1139 PUSH1 0x40 MLOAD DUP1 PUSH2 0x180 ADD PUSH1 0x40 MSTORE DUP1 PUSH1 0x0 DUP2 MSTORE PUSH1 0x20 ADD PUSH1 0x0 DUP2 MSTORE PUSH1 0x20 ADD PUSH1 0x60 DUP2 MSTORE PUSH1 0x20 ADD PUSH1 0x0 PUSH1 0x1 PUSH1 0x1 PUSH1 0xA0 SHL SUB AND DUP2 MSTORE PUSH1 0x20 ADD PUSH1 0x0 DUP2 MSTORE PUSH1 0x20 ADD PUSH1 0x0 DUP2 MSTORE PUSH1 0x20 ADD PUSH1 0x0 ISZERO ISZERO DUP2 MSTORE PUSH1 0x20 ADD PUSH1 0x0 ISZERO ISZERO DUP2 MSTORE PUSH1 0x20 ADD PUSH1 0x0 ISZERO ISZERO DUP2 MSTORE PUSH1 0x20 ADD PUSH1 0x0 DUP2 MSTORE PUSH1 0x20 ADD PUSH1 0x0 DUP2 MSTORE PUSH1 0x20 ADD PUSH1 0x0 DUP2 MSTORE POP SWAP1 JUMP JUMPDEST PUSH1 0x67 PUSH1 0x0 DUP4 DUP2 MSTORE PUSH1 0x20 ADD SWAP1 DUP2 MSTORE PUSH1 0x20 ADD PUSH1 0x0 KECCAK256 PUSH1 0x40 MLOAD DUP1 PUSH2 0x180 ADD PUSH1 0x40 MSTORE SWAP1 DUP2 PUSH1 0x0 DUP3 ADD SLOAD DUP2 MSTORE PUSH1 0x20 ADD PUSH1 0x1 DUP3 ADD SLOAD DUP2 MSTORE PUSH1 0x20 ADD PUSH1 0x2 DUP3 ADD DUP1 SLOAD PUSH2 0x117C SWAP1 PUSH2 0x24C8 JUMP JUMPDEST DUP1 PUSH1 0x1F ADD PUSH1 0x20 DUP1 SWAP2 DIV MUL PUSH1 0x20 ADD PUSH1 0x40 MLOAD SWAP1 DUP2 ADD PUSH1 0x40 MSTORE DUP1 SWAP3 SWAP2 SWAP1 DUP2 DUP2 MSTORE PUSH1 0x20 ADD DUP3 DUP1 SLOAD PUSH2 0x11A8 SWAP1 PUSH2 0x24C8 JUMP JUMPDEST DUP1 ISZERO PUSH2 0x11F5 JUMPI DUP1 PUSH1 0x1F LT PUSH2 0x11CA JUMPI PUSH2 0x100 DUP1 DUP4 SLOAD DIV MUL DUP4 MSTORE SWAP2 PUSH1 0x20 ADD SWAP2 PUSH2 0x11F5 JUMP JUMPDEST DUP3 ADD SWAP2 SWAP1 PUSH1 0x0 MSTORE PUSH1 0x20 PUSH1 0x0 KECCAK256 SWAP1 JUMPDEST DUP2 SLOAD DUP2 MSTORE SWAP1 PUSH1 0x1 ADD SWAP1 PUSH1 0x20 ADD DUP1 DUP4 GT PUSH2 0x11D8 JUMPI DUP3 SWAP1 SUB PUSH1 0x1F AND DUP3 ADD SWAP2 JUMPDEST POP POP POP SWAP2 DUP4 MSTORE POP POP PUSH1 0x3 DUP3 ADD SLOAD PUSH1 0x1 PUSH1 0x1 PUSH1 0xA0 SHL SUB AND PUSH1 0x20 DUP3 ADD MSTORE PUSH1 0x4 DUP3 ADD SLOAD PUSH1 0x40 DUP3 ADD MSTORE PUSH1 0x5 DUP3 ADD SLOAD PUSH1 0x60 DUP3 ADD MSTORE PUSH1 0x6 DUP3 ADD SLOAD PUSH1 0xFF DUP1 DUP3 AND ISZERO ISZERO PUSH1 0x80 DUP5 ADD MSTORE PUSH2 0x100 DUP1 DUP4 DIV DUP3 AND ISZERO ISZERO PUSH1 0xA0 DUP6 ADD MSTORE PUSH3 0x10000 SWAP1 SWAP3 DIV AND ISZERO ISZERO PUSH1 0xC0 DUP4 ADD MSTORE PUSH1 0x7 DUP4 ADD SLOAD PUSH1 0xE0 DUP4 ADD MSTORE PUSH1 0x8 DUP4 ADD SLOAD SWAP1 DUP3 ADD MSTORE PUSH1 0x9 SWAP1 SWAP2 ADD SLOAD PUSH2 0x120 SWAP1 SWAP2 ADD MSTORE SWAP3 SWAP2 POP POP JUMP JUMPDEST PUSH1 0x0 PUSH2 0x1283 PUSH2 0x1925 JUMP JUMPDEST DUP1 SLOAD SWAP1 SWAP2 POP PUSH1 0xFF PUSH1 0x1 PUSH1 0x40 SHL DUP3 DIV AND ISZERO SWAP1 PUSH8 0xFFFFFFFFFFFFFFFF AND PUSH1 0x0 DUP2 ISZERO DUP1 ISZERO PUSH2 0x12AB JUMPI POP DUP3 JUMPDEST SWAP1 POP PUSH1 0x0 DUP3 PUSH8 0xFFFFFFFFFFFFFFFF AND PUSH1 0x1 EQ DUP1 ISZERO PUSH2 0x12C8 JUMPI POP ADDRESS EXTCODESIZE ISZERO JUMPDEST SWAP1 POP DUP2 ISZERO DUP1 ISZERO PUSH2 0x12D6 JUMPI POP DUP1 ISZERO JUMPDEST ISZERO PUSH2 0x12F4 JUMPI PUSH1 0x40 MLOAD PUSH4 0xF92EE8A9 PUSH1 0xE0 SHL DUP2 MSTORE PUSH1 0x4 ADD PUSH1 0x40 MLOAD DUP1 SWAP2 SUB SWAP1 REVERT JUMPDEST DUP5 SLOAD PUSH8 0xFFFFFFFFFFFFFFFF NOT AND PUSH1 0x1 OR DUP6 SSTORE DUP4 ISZERO PUSH2 0x131E JUMPI DUP5 SLOAD PUSH1 0xFF PUSH1 0x40 SHL NOT AND PUSH1 0x1 PUSH1 0x40 SHL OR DUP6 SSTORE JUMPDEST PUSH2 0x1328 DUP10 DUP10 PUSH2 0x194E JUMP JUMPDEST PUSH2 0x1330 PUSH2 0x198A JUMP JUMPDEST PUSH1 0x64 DUP8 SWAP1 SSTORE PUSH1 0x66 DUP7 SWAP1 SSTORE DUP4 ISZERO PUSH2 0x1380 JUMPI DUP5 SLOAD PUSH1 0xFF PUSH1 0x40 SHL NOT AND DUP6 SSTORE PUSH1 0x40 MLOAD PUSH1 0x1 DUP2 MSTORE PUSH32 0xC7F505B2F371AE2175EE4913F4499E1F2633A7B5936321EED1CDAEB6115181D2 SWAP1 PUSH1 0x20 ADD PUSH1 0x40 MLOAD DUP1 SWAP2 SUB SWAP1 LOG1 JUMPDEST POP POP POP POP POP POP POP POP POP JUMP JUMPDEST PUSH2 0x1393 PUSH2 0x14BA JUMP JUMPDEST PUSH1 0x1 PUSH1 0x1 PUSH1 0xA0 SHL SUB DUP2 AND PUSH2 0x13BD JUMPI PUSH1 0x40 MLOAD PUSH4 0x1E4FBDF7 PUSH1 0xE0 SHL DUP2 MSTORE PUSH1 0x0 PUSH1 0x4 DUP3 ADD MSTORE PUSH1 0x24 ADD PUSH2 0x928 JUMP JUMPDEST PUSH2 0x100F DUP2 PUSH2 0x16EC JUMP JUMPDEST PUSH1 0x2 PUSH1 0x32 SLOAD SUB PUSH2 0x1418 JUMPI PUSH1 0x40 MLOAD PUSH3 0x461BCD PUSH1 0xE5 SHL DUP2 MSTORE PUSH1 0x20 PUSH1 0x4 DUP3 ADD MSTORE PUSH1 0x1F PUSH1 0x24 DUP3 ADD MSTORE PUSH32 0x5265656E7472616E637947756172643A207265656E7472616E742063616C6C00 PUSH1 0x44 DUP3 ADD MSTORE PUSH1 0x64 ADD PUSH2 0x928 JUMP JUMPDEST PUSH1 0x2 PUSH1 0x32 SSTORE JUMP JUMPDEST PUSH1 0x1 PUSH1 0x32 SSTORE JUMP JUMPDEST PUSH1 0x0 DUP1 DUP1 DUP1 DUP1 DUP1 DUP1 PUSH2 0x143A DUP12 DUP14 ADD DUP14 PUSH2 0x26CD JUMP JUMPDEST PUSH1 0x40 DUP1 MLOAD DUP1 DUP3 ADD SWAP1 SWAP2 MSTORE PUSH1 0xC DUP2 MSTORE PUSH12 0x726169736544697370757465 PUSH1 0xA0 SHL PUSH1 0x20 SWAP2 DUP3 ADD MSTORE DUP8 MLOAD SWAP1 DUP9 ADD KECCAK256 SWAP7 SWAP14 POP SWAP5 SWAP12 POP SWAP3 SWAP10 POP SWAP1 SWAP8 POP SWAP6 POP SWAP4 POP SWAP2 POP PUSH32 0x32B61ACE529FE8B099F26FE3BB302396EFD1AC056F370A6B8B6DCD8407FA9F1A ADD PUSH2 0x14AA JUMPI PUSH2 0x14AA DUP7 DUP7 DUP7 DUP7 DUP7 DUP7 PUSH2 0x199A JUMP JUMPDEST POP POP POP POP POP POP POP POP POP POP POP POP POP POP JUMP JUMPDEST CALLER PUSH2 0x14EC PUSH32 0x9016D09D72D40FDAE2FD8CEAC6B6234C7706214FD39C1CD1E609A0528C199300 SLOAD PUSH1 0x1 PUSH1 0x1 PUSH1 0xA0 SHL SUB AND SWAP1 JUMP JUMPDEST PUSH1 0x1 PUSH1 0x1 PUSH1 0xA0 SHL SUB AND EQ PUSH2 0xB99 JUMPI PUSH1 0x40 MLOAD PUSH4 0x118CDAA7 PUSH1 0xE0 SHL DUP2 MSTORE CALLER PUSH1 0x4 DUP3 ADD MSTORE PUSH1 0x24 ADD PUSH2 0x928 JUMP JUMPDEST ADDRESS PUSH1 0x1 PUSH1 0x1 PUSH1 0xA0 SHL SUB PUSH32 0x0 AND EQ DUP1 PUSH2 0x15AE JUMPI POP PUSH32 0x0 PUSH1 0x1 PUSH1 0x1 PUSH1 0xA0 SHL SUB AND PUSH2 0x15A2 PUSH32 0x360894A13BA1A3210667C828492DB98DCA3E2076CC3735A920A3CA505D382BBC SLOAD PUSH1 0x1 PUSH1 0x1 PUSH1 0xA0 SHL SUB AND SWAP1 JUMP JUMPDEST PUSH1 0x1 PUSH1 0x1 PUSH1 0xA0 SHL SUB AND EQ ISZERO JUMPDEST ISZERO PUSH2 0xB99 JUMPI PUSH1 0x40 MLOAD PUSH4 0x703E46DD PUSH1 0xE1 SHL DUP2 MSTORE PUSH1 0x4 ADD PUSH1 0x40 MLOAD DUP1 SWAP2 SUB SWAP1 REVERT JUMPDEST PUSH2 0x100F PUSH2 0x14BA JUMP JUMPDEST DUP2 PUSH1 0x1 PUSH1 0x1 PUSH1 0xA0 SHL SUB AND PUSH4 0x52D1902D PUSH1 0x40 MLOAD DUP2 PUSH4 0xFFFFFFFF AND PUSH1 0xE0 SHL DUP2 MSTORE PUSH1 0x4 ADD PUSH1 0x20 PUSH1 0x40 MLOAD DUP1 DUP4 SUB DUP2 DUP7 GAS STATICCALL SWAP3 POP POP POP DUP1 ISZERO PUSH2 0x162E JUMPI POP PUSH1 0x40 DUP1 MLOAD PUSH1 0x1F RETURNDATASIZE SWAP1 DUP2 ADD PUSH1 0x1F NOT AND DUP3 ADD SWAP1 SWAP3 MSTORE PUSH2 0x162B SWAP2 DUP2 ADD SWAP1 PUSH2 0x2794 JUMP JUMPDEST PUSH1 0x1 JUMPDEST PUSH2 0x1656 JUMPI PUSH1 0x40 MLOAD PUSH4 0x4C9C8CE3 PUSH1 0xE0 SHL DUP2 MSTORE PUSH1 0x1 PUSH1 0x1 PUSH1 0xA0 SHL SUB DUP4 AND PUSH1 0x4 DUP3 ADD MSTORE PUSH1 0x24 ADD PUSH2 0x928 JUMP JUMPDEST PUSH32 0x360894A13BA1A3210667C828492DB98DCA3E2076CC3735A920A3CA505D382BBC DUP2 EQ PUSH2 0x1699 JUMPI PUSH1 0x40 MLOAD PUSH4 0x2A875269 PUSH1 0xE2 SHL DUP2 MSTORE PUSH1 0x4 DUP2 ADD DUP3 SWAP1 MSTORE PUSH1 0x24 ADD PUSH2 0x928 JUMP JUMPDEST PUSH2 0xE2C DUP4 DUP4 PUSH2 0x1BE2 JUMP JUMPDEST ADDRESS PUSH1 0x1 PUSH1 0x1 PUSH1 0xA0 SHL SUB PUSH32 0x0 AND EQ PUSH2 0xB99 JUMPI PUSH1 0x40 MLOAD PUSH4 0x703E46DD PUSH1 0xE1 SHL DUP2 MSTORE PUSH1 0x4 ADD PUSH1 0x40 MLOAD DUP1 SWAP2 SUB SWAP1 REVERT JUMPDEST PUSH32 0x9016D09D72D40FDAE2FD8CEAC6B6234C7706214FD39C1CD1E609A0528C199300 DUP1 SLOAD PUSH1 0x1 PUSH1 0x1 PUSH1 0xA0 SHL SUB NOT DUP2 AND PUSH1 0x1 PUSH1 0x1 PUSH1 0xA0 SHL SUB DUP5 DUP2 AND SWAP2 DUP3 OR DUP5 SSTORE PUSH1 0x40 MLOAD SWAP3 AND SWAP2 DUP3 SWAP1 PUSH32 0x8BE0079C531659141344CD1FD0A4F28419497F9722A3DAAFE3B4186F6B6457E0 SWAP1 PUSH1 0x0 SWAP1 LOG3 POP POP POP JUMP JUMPDEST PUSH1 0x0 PUSH1 0x67 PUSH1 0x0 DUP4 DUP2 MSTORE PUSH1 0x20 ADD SWAP1 DUP2 MSTORE PUSH1 0x20 ADD PUSH1 0x0 KECCAK256 PUSH1 0x40 MLOAD DUP1 PUSH2 0x180 ADD PUSH1 0x40 MSTORE SWAP1 DUP2 PUSH1 0x0 DUP3 ADD SLOAD DUP2 MSTORE PUSH1 0x20 ADD PUSH1 0x1 DUP3 ADD SLOAD DUP2 MSTORE PUSH1 0x20 ADD PUSH1 0x2 DUP3 ADD DUP1 SLOAD PUSH2 0x17A2 SWAP1 PUSH2 0x24C8 JUMP JUMPDEST DUP1 PUSH1 0x1F ADD PUSH1 0x20 DUP1 SWAP2 DIV MUL PUSH1 0x20 ADD PUSH1 0x40 MLOAD SWAP1 DUP2 ADD PUSH1 0x40 MSTORE DUP1 SWAP3 SWAP2 SWAP1 DUP2 DUP2 MSTORE PUSH1 0x20 ADD DUP3 DUP1 SLOAD PUSH2 0x17CE SWAP1 PUSH2 0x24C8 JUMP JUMPDEST DUP1 ISZERO PUSH2 0x181B JUMPI DUP1 PUSH1 0x1F LT PUSH2 0x17F0 JUMPI PUSH2 0x100 DUP1 DUP4 SLOAD DIV MUL DUP4 MSTORE SWAP2 PUSH1 0x20 ADD SWAP2 PUSH2 0x181B JUMP JUMPDEST DUP3 ADD SWAP2 SWAP1 PUSH1 0x0 MSTORE PUSH1 0x20 PUSH1 0x0 KECCAK256 SWAP1 JUMPDEST DUP2 SLOAD DUP2 MSTORE SWAP1 PUSH1 0x1 ADD SWAP1 PUSH1 0x20 ADD DUP1 DUP4 GT PUSH2 0x17FE JUMPI DUP3 SWAP1 SUB PUSH1 0x1F AND DUP3 ADD SWAP2 JUMPDEST POP POP POP SWAP2 DUP4 MSTORE POP POP PUSH1 0x3 DUP3 ADD SLOAD PUSH1 0x1 PUSH1 0x1 PUSH1 0xA0 SHL SUB AND PUSH1 0x20 DUP1 DUP4 ADD SWAP2 SWAP1 SWAP2 MSTORE PUSH1 0x4 DUP4 ADD SLOAD PUSH1 0x40 DUP1 DUP5 ADD SWAP2 SWAP1 SWAP2 MSTORE PUSH1 0x5 DUP5 ADD SLOAD PUSH1 0x60 DUP1 DUP6 ADD SWAP2 SWAP1 SWAP2 MSTORE PUSH1 0x6 DUP6 ADD SLOAD PUSH1 0xFF DUP1 DUP3 AND ISZERO ISZERO PUSH1 0x80 DUP8 ADD MSTORE PUSH2 0x100 DUP1 DUP4 DIV DUP3 AND ISZERO ISZERO PUSH1 0xA0 DUP9 ADD MSTORE PUSH3 0x10000 SWAP1 SWAP3 DIV AND ISZERO ISZERO PUSH1 0xC0 DUP1 DUP8 ADD SWAP2 SWAP1 SWAP2 MSTORE PUSH1 0x7 DUP8 ADD SLOAD PUSH1 0xE0 DUP8 ADD MSTORE PUSH1 0x8 DUP8 ADD SLOAD SWAP2 DUP7 ADD SWAP2 SWAP1 SWAP2 MSTORE PUSH1 0x9 SWAP1 SWAP6 ADD SLOAD PUSH2 0x120 SWAP1 SWAP5 ADD SWAP4 SWAP1 SWAP4 MSTORE SWAP2 DUP5 ADD MLOAD SWAP3 DUP5 ADD MLOAD SWAP2 MLOAD SWAP4 SWAP5 POP PUSH1 0x0 SWAP4 PUSH2 0x1912 SWAP4 SWAP3 DUP8 SWAP3 SWAP1 SWAP2 ADD PUSH1 0x80 DUP1 DUP3 MSTORE PUSH1 0xF SWAP1 DUP3 ADD MSTORE PUSH15 0x191A5CDC1D5D1954995CDBDB1D9959 PUSH1 0x8A SHL PUSH1 0xA0 DUP3 ADD MSTORE PUSH1 0x1 PUSH1 0x1 PUSH1 0xA0 SHL SUB SWAP4 SWAP1 SWAP4 AND PUSH1 0x20 DUP5 ADD MSTORE PUSH1 0x40 DUP4 ADD SWAP2 SWAP1 SWAP2 MSTORE ISZERO ISZERO PUSH1 0x60 DUP3 ADD MSTORE PUSH1 0xC0 ADD SWAP1 JUMP JUMPDEST PUSH1 0x40 DUP1 MLOAD PUSH1 0x1F NOT DUP2 DUP5 SUB ADD SWAP1 MSTORE MSTORE POP POP POP JUMP JUMPDEST PUSH1 0x0 DUP1 PUSH32 0xF0C57E16840DF040F15088DC2F81FE391C3923BEC73E23A9662EFC9C229C6A00 PUSH2 0x6BF JUMP JUMPDEST PUSH2 0x1956 PUSH2 0x1C38 JUMP JUMPDEST PUSH2 0x195F DUP2 PUSH2 0x1C5D JUMP JUMPDEST PUSH2 0x1967 PUSH2 0x1C6E JUMP JUMPDEST POP PUSH1 0x0 DUP1 SLOAD PUSH1 0x1 PUSH1 0x1 PUSH1 0xA0 SHL SUB NOT AND PUSH1 0x1 PUSH1 0x1 PUSH1 0xA0 SHL SUB SWAP3 SWAP1 SWAP3 AND SWAP2 SWAP1 SWAP2 OR SWAP1 SSTORE JUMP JUMPDEST PUSH2 0x1992 PUSH2 0x1C38 JUMP JUMPDEST PUSH2 0xB99 PUSH2 0x1C76 JUMP JUMPDEST PUSH1 0x64 SLOAD DUP2 LT ISZERO PUSH2 0x19CB JUMPI PUSH1 0x64 SLOAD PUSH1 0x40 MLOAD PUSH4 0xA458261B PUSH1 0xE0 SHL DUP2 MSTORE PUSH2 0x928 SWAP2 DUP4 SWAP2 PUSH1 0x4 ADD SWAP2 DUP3 MSTORE PUSH1 0x20 DUP3 ADD MSTORE PUSH1 0x40 ADD SWAP1 JUMP JUMPDEST PUSH1 0x1 JUMPDEST PUSH1 0x65 SLOAD DUP2 GT PUSH2 0x1A3D JUMPI PUSH1 0x0 DUP2 DUP2 MSTORE PUSH1 0x67 PUSH1 0x20 MSTORE PUSH1 0x40 SWAP1 KECCAK256 SLOAD DUP7 EQ DUP1 ISZERO PUSH2 0x1A0A JUMPI POP PUSH1 0x0 DUP2 DUP2 MSTORE PUSH1 0x67 PUSH1 0x20 MSTORE PUSH1 0x40 SWAP1 KECCAK256 PUSH1 0x6 ADD SLOAD PUSH2 0x100 SWAP1 DIV PUSH1 0xFF AND JUMPDEST ISZERO PUSH2 0x1A2B JUMPI PUSH1 0x40 MLOAD PUSH4 0xB40FEC21 PUSH1 0xE0 SHL DUP2 MSTORE PUSH1 0x4 DUP2 ADD DUP8 SWAP1 MSTORE PUSH1 0x24 ADD PUSH2 0x928 JUMP JUMPDEST DUP1 PUSH2 0x1A35 DUP2 PUSH2 0x24AF JUMP JUMPDEST SWAP2 POP POP PUSH2 0x19CE JUMP JUMPDEST POP PUSH1 0x65 DUP1 SLOAD SWAP1 PUSH1 0x0 PUSH2 0x1A4E DUP4 PUSH2 0x24AF JUMP JUMPDEST SWAP1 SWAP2 SSTORE POP POP PUSH1 0x40 DUP1 MLOAD PUSH2 0x180 DUP2 ADD DUP3 MSTORE DUP7 DUP2 MSTORE PUSH1 0x20 DUP1 DUP3 ADD DUP8 DUP2 MSTORE DUP3 DUP5 ADD DUP8 DUP2 MSTORE PUSH1 0x1 PUSH1 0x1 PUSH1 0xA0 SHL SUB DUP12 AND PUSH1 0x60 DUP6 ADD MSTORE PUSH1 0x0 PUSH1 0x80 DUP6 ADD DUP2 SWAP1 MSTORE PUSH1 0xA0 DUP6 ADD DUP2 SWAP1 MSTORE PUSH1 0xC0 DUP6 ADD DUP2 SWAP1 MSTORE PUSH1 0x1 PUSH1 0xE0 DUP7 ADD DUP2 SWAP1 MSTORE PUSH2 0x100 DUP7 ADD DUP3 SWAP1 MSTORE TIMESTAMP PUSH2 0x120 DUP8 ADD MSTORE PUSH2 0x140 DUP7 ADD DUP3 SWAP1 MSTORE PUSH2 0x160 DUP7 ADD DUP9 SWAP1 MSTORE PUSH1 0x65 SLOAD DUP3 MSTORE PUSH1 0x67 SWAP1 SWAP5 MSTORE SWAP5 SWAP1 SWAP5 KECCAK256 DUP4 MLOAD DUP2 SSTORE SWAP1 MLOAD SWAP2 DUP2 ADD SWAP2 SWAP1 SWAP2 SSTORE SWAP2 MLOAD SWAP1 SWAP2 SWAP1 PUSH1 0x2 DUP3 ADD SWAP1 PUSH2 0x1AEC SWAP1 DUP3 PUSH2 0x2550 JUMP JUMPDEST POP PUSH1 0x60 DUP3 ADD MLOAD PUSH1 0x3 DUP3 ADD DUP1 SLOAD PUSH1 0x1 PUSH1 0x1 PUSH1 0xA0 SHL SUB NOT AND PUSH1 0x1 PUSH1 0x1 PUSH1 0xA0 SHL SUB SWAP3 DUP4 AND OR SWAP1 SSTORE PUSH1 0x80 DUP4 ADD MLOAD PUSH1 0x4 DUP4 ADD SSTORE PUSH1 0xA0 DUP4 ADD MLOAD PUSH1 0x5 DUP4 ADD SSTORE PUSH1 0xC0 DUP4 ADD MLOAD PUSH1 0x6 DUP4 ADD DUP1 SLOAD PUSH1 0xE0 DUP7 ADD MLOAD PUSH2 0x100 DUP1 DUP9 ADD MLOAD PUSH2 0xFFFF NOT SWAP1 SWAP4 AND SWAP5 ISZERO ISZERO PUSH2 0xFF00 NOT AND SWAP5 SWAP1 SWAP5 OR SWAP1 ISZERO ISZERO SWAP1 SWAP4 MUL SWAP3 SWAP1 SWAP3 OR PUSH3 0xFF0000 NOT AND PUSH3 0x10000 SWAP3 ISZERO ISZERO SWAP3 SWAP1 SWAP3 MUL SWAP2 SWAP1 SWAP2 OR SWAP1 SSTORE PUSH2 0x120 DUP4 ADD MLOAD PUSH1 0x7 DUP4 ADD SSTORE PUSH2 0x140 DUP4 ADD MLOAD PUSH1 0x8 DUP4 ADD SSTORE PUSH2 0x160 SWAP1 SWAP3 ADD MLOAD PUSH1 0x9 SWAP1 SWAP2 ADD SSTORE PUSH1 0x65 SLOAD PUSH1 0x40 MLOAD SWAP2 DUP9 AND SWAP2 DUP8 SWAP2 SWAP1 PUSH32 0xF5E09DCCBAB139121DCC48F58C750C32E9B62B23BD1CB4939D267791442008B4 SWAP1 PUSH2 0x1BD2 SWAP1 DUP10 SWAP1 DUP10 SWAP1 DUP10 SWAP1 DUP10 SWAP1 PUSH2 0x27AD JUMP JUMPDEST PUSH1 0x40 MLOAD DUP1 SWAP2 SUB SWAP1 LOG4 POP POP POP POP POP POP JUMP JUMPDEST PUSH2 0x1BEB DUP3 PUSH2 0x1C7E JUMP JUMPDEST PUSH1 0x40 MLOAD PUSH1 0x1 PUSH1 0x1 PUSH1 0xA0 SHL SUB DUP4 AND SWAP1 PUSH32 0xBC7CD75A20EE27FD9ADEBAB32041F755214DBC6BFFA90CC0225B39DA2E5C2D3B SWAP1 PUSH1 0x0 SWAP1 LOG2 DUP1 MLOAD ISZERO PUSH2 0x1C30 JUMPI PUSH2 0xE2C DUP3 DUP3 PUSH2 0x1CF5 JUMP JUMPDEST PUSH2 0xA1E PUSH2 0x1D6B JUMP JUMPDEST PUSH2 0x1C40 PUSH2 0x1D8A JUMP JUMPDEST PUSH2 0xB99 JUMPI PUSH1 0x40 MLOAD PUSH4 0x1AFCD79F PUSH1 0xE3 SHL DUP2 MSTORE PUSH1 0x4 ADD PUSH1 0x40 MLOAD DUP1 SWAP2 SUB SWAP1 REVERT JUMPDEST PUSH2 0x1C65 PUSH2 0x1C38 JUMP JUMPDEST PUSH2 0x100F DUP2 PUSH2 0x1DA4 JUMP JUMPDEST PUSH2 0xB99 PUSH2 0x1C38 JUMP JUMPDEST PUSH2 0x141F PUSH2 0x1C38 JUMP JUMPDEST DUP1 PUSH1 0x1 PUSH1 0x1 PUSH1 0xA0 SHL SUB AND EXTCODESIZE PUSH1 0x0 SUB PUSH2 0x1CB4 JUMPI PUSH1 0x40 MLOAD PUSH4 0x4C9C8CE3 PUSH1 0xE0 SHL DUP2 MSTORE PUSH1 0x1 PUSH1 0x1 PUSH1 0xA0 SHL SUB DUP3 AND PUSH1 0x4 DUP3 ADD MSTORE PUSH1 0x24 ADD PUSH2 0x928 JUMP JUMPDEST PUSH32 0x360894A13BA1A3210667C828492DB98DCA3E2076CC3735A920A3CA505D382BBC DUP1 SLOAD PUSH1 0x1 PUSH1 0x1 PUSH1 0xA0 SHL SUB NOT AND PUSH1 0x1 PUSH1 0x1 PUSH1 0xA0 SHL SUB SWAP3 SWAP1 SWAP3 AND SWAP2 SWAP1 SWAP2 OR SWAP1 SSTORE JUMP JUMPDEST PUSH1 0x60 PUSH1 0x0 DUP1 DUP5 PUSH1 0x1 PUSH1 0x1 PUSH1 0xA0 SHL SUB AND DUP5 PUSH1 0x40 MLOAD PUSH2 0x1D12 SWAP2 SWAP1 PUSH2 0x27EA JUMP JUMPDEST PUSH1 0x0 PUSH1 0x40 MLOAD DUP1 DUP4 SUB DUP2 DUP6 GAS DELEGATECALL SWAP2 POP POP RETURNDATASIZE DUP1 PUSH1 0x0 DUP2 EQ PUSH2 0x1D4D JUMPI PUSH1 0x40 MLOAD SWAP2 POP PUSH1 0x1F NOT PUSH1 0x3F RETURNDATASIZE ADD AND DUP3 ADD PUSH1 0x40 MSTORE RETURNDATASIZE DUP3 MSTORE RETURNDATASIZE PUSH1 0x0 PUSH1 0x20 DUP5 ADD RETURNDATACOPY PUSH2 0x1D52 JUMP JUMPDEST PUSH1 0x60 SWAP2 POP JUMPDEST POP SWAP2 POP SWAP2 POP PUSH2 0x1D62 DUP6 DUP4 DUP4 PUSH2 0x1DAC JUMP JUMPDEST SWAP6 SWAP5 POP POP POP POP POP JUMP JUMPDEST CALLVALUE ISZERO PUSH2 0xB99 JUMPI PUSH1 0x40 MLOAD PUSH4 0xB398979F PUSH1 0xE0 SHL DUP2 MSTORE PUSH1 0x4 ADD PUSH1 0x40 MLOAD DUP1 SWAP2 SUB SWAP1 REVERT JUMPDEST PUSH1 0x0 PUSH2 0x1D94 PUSH2 0x1925 JUMP JUMPDEST SLOAD PUSH1 0x1 PUSH1 0x40 SHL SWAP1 DIV PUSH1 0xFF AND SWAP2 SWAP1 POP JUMP JUMPDEST PUSH2 0x1393 PUSH2 0x1C38 JUMP JUMPDEST PUSH1 0x60 DUP3 PUSH2 0x1DC1 JUMPI PUSH2 0x1DBC DUP3 PUSH2 0x1E0B JUMP JUMPDEST PUSH2 0x1E04 JUMP JUMPDEST DUP2 MLOAD ISZERO DUP1 ISZERO PUSH2 0x1DD8 JUMPI POP PUSH1 0x1 PUSH1 0x1 PUSH1 0xA0 SHL SUB DUP5 AND EXTCODESIZE ISZERO JUMPDEST ISZERO PUSH2 0x1E01 JUMPI PUSH1 0x40 MLOAD PUSH4 0x9996B315 PUSH1 0xE0 SHL DUP2 MSTORE PUSH1 0x1 PUSH1 0x1 PUSH1 0xA0 SHL SUB DUP6 AND PUSH1 0x4 DUP3 ADD MSTORE PUSH1 0x24 ADD PUSH2 0x928 JUMP JUMPDEST POP DUP1 JUMPDEST SWAP4 SWAP3 POP POP POP JUMP JUMPDEST DUP1 MLOAD ISZERO PUSH2 0x1E1B JUMPI DUP1 MLOAD DUP1 DUP3 PUSH1 0x20 ADD REVERT JUMPDEST PUSH1 0x40 MLOAD PUSH4 0xD6BDA275 PUSH1 0xE0 SHL DUP2 MSTORE PUSH1 0x4 ADD PUSH1 0x40 MLOAD DUP1 SWAP2 SUB SWAP1 REVERT JUMPDEST PUSH1 0x0 DUP1 PUSH1 0x40 DUP4 DUP6 SUB SLT ISZERO PUSH2 0x1E47 JUMPI PUSH1 0x0 DUP1 REVERT JUMPDEST POP POP DUP1 CALLDATALOAD SWAP3 PUSH1 0x20 SWAP1 SWAP2 ADD CALLDATALOAD SWAP2 POP JUMP JUMPDEST PUSH1 0x0 DUP1 DUP4 PUSH1 0x1F DUP5 ADD SLT PUSH2 0x1E68 JUMPI PUSH1 0x0 DUP1 REVERT JUMPDEST POP DUP2 CALLDATALOAD PUSH8 0xFFFFFFFFFFFFFFFF DUP2 GT ISZERO PUSH2 0x1E80 JUMPI PUSH1 0x0 DUP1 REVERT JUMPDEST PUSH1 0x20 DUP4 ADD SWAP2 POP DUP4 PUSH1 0x20 DUP3 DUP6 ADD ADD GT ISZERO PUSH2 0x1E98 JUMPI PUSH1 0x0 DUP1 REVERT JUMPDEST SWAP3 POP SWAP3 SWAP1 POP JUMP JUMPDEST PUSH1 0x0 DUP1 PUSH1 0x20 DUP4 DUP6 SUB SLT ISZERO PUSH2 0x1EB2 JUMPI PUSH1 0x0 DUP1 REVERT JUMPDEST DUP3 CALLDATALOAD PUSH8 0xFFFFFFFFFFFFFFFF DUP2 GT ISZERO PUSH2 0x1EC9 JUMPI PUSH1 0x0 DUP1 REVERT JUMPDEST PUSH2 0x1ED5 DUP6 DUP3 DUP7 ADD PUSH2 0x1E56 JUMP JUMPDEST SWAP1 SWAP7 SWAP1 SWAP6 POP SWAP4 POP POP POP POP JUMP JUMPDEST PUSH1 0x0 DUP1 PUSH1 0x0 DUP1 PUSH1 0x0 DUP1 PUSH1 0x0 PUSH1 0xA0 DUP9 DUP11 SUB SLT ISZERO PUSH2 0x1EFC JUMPI PUSH1 0x0 DUP1 REVERT JUMPDEST DUP8 CALLDATALOAD SWAP7 POP PUSH1 0x20 DUP9 ADD CALLDATALOAD SWAP6 POP PUSH1 0x40 DUP9 ADD CALLDATALOAD PUSH8 0xFFFFFFFFFFFFFFFF DUP2 GT ISZERO PUSH2 0x1F21 JUMPI PUSH1 0x0 DUP1 REVERT JUMPDEST PUSH2 0x1F2D DUP11 DUP3 DUP12 ADD PUSH2 0x1E56 JUMP JUMPDEST SWAP1 SWAP7 POP SWAP5 POP POP PUSH1 0x60 DUP9 ADD CALLDATALOAD PUSH8 0xFFFFFFFFFFFFFFFF DUP2 GT ISZERO PUSH2 0x1F4D JUMPI PUSH1 0x0 DUP1 REVERT JUMPDEST PUSH2 0x1F59 DUP11 DUP3 DUP12 ADD PUSH2 0x1E56 JUMP JUMPDEST SWAP9 SWAP12 SWAP8 SWAP11 POP SWAP6 SWAP9 SWAP5 SWAP8 SWAP6 SWAP7 PUSH1 0x80 SWAP1 SWAP6 ADD CALLDATALOAD SWAP5 SWAP4 POP POP POP POP JUMP JUMPDEST PUSH1 0x1 PUSH1 0x1 PUSH1 0xA0 SHL SUB DUP2 AND DUP2 EQ PUSH2 0x100F JUMPI PUSH1 0x0 DUP1 REVERT JUMPDEST PUSH1 0x0 DUP1 PUSH1 0x0 DUP1 PUSH1 0x0 DUP1 PUSH1 0x0 DUP8 DUP10 SUB PUSH1 0xE0 DUP2 SLT ISZERO PUSH2 0x1FA3 JUMPI PUSH1 0x0 DUP1 REVERT JUMPDEST PUSH1 0x60 DUP2 SLT ISZERO PUSH2 0x1FB1 JUMPI PUSH1 0x0 DUP1 REVERT JUMPDEST POP DUP8 SWAP7 POP PUSH1 0x60 DUP8 ADD CALLDATALOAD SWAP6 POP PUSH1 0x80 DUP8 ADD CALLDATALOAD PUSH8 0xFFFFFFFFFFFFFFFF DUP2 GT ISZERO PUSH2 0x1FD6 JUMPI PUSH1 0x0 DUP1 REVERT JUMPDEST PUSH2 0x1FE2 DUP11 DUP3 DUP12 ADD PUSH2 0x1E56 JUMP JUMPDEST SWAP1 SWAP7 POP SWAP5 POP POP PUSH1 0xA0 DUP9 ADD CALLDATALOAD PUSH2 0x1FF6 DUP2 PUSH2 0x1F72 JUMP JUMPDEST SWAP3 POP PUSH1 0xC0 DUP9 ADD CALLDATALOAD PUSH8 0xFFFFFFFFFFFFFFFF DUP2 GT ISZERO PUSH2 0x2012 JUMPI PUSH1 0x0 DUP1 REVERT JUMPDEST PUSH2 0x201E DUP11 DUP3 DUP12 ADD PUSH2 0x1E56 JUMP JUMPDEST SWAP9 SWAP12 SWAP8 SWAP11 POP SWAP6 SWAP9 POP SWAP4 SWAP7 SWAP3 SWAP6 SWAP3 SWAP4 POP POP POP JUMP JUMPDEST DUP1 CALLDATALOAD PUSH4 0xFFFFFFFF DUP2 AND DUP2 EQ PUSH2 0x2045 JUMPI PUSH1 0x0 DUP1 REVERT JUMPDEST SWAP2 SWAP1 POP JUMP JUMPDEST PUSH1 0x0 DUP1 PUSH1 0x40 DUP4 DUP6 SUB SLT ISZERO PUSH2 0x205D JUMPI PUSH1 0x0 DUP1 REVERT JUMPDEST PUSH2 0x2066 DUP4 PUSH2 0x2031 JUMP JUMPDEST SWAP5 PUSH1 0x20 SWAP4 SWAP1 SWAP4 ADD CALLDATALOAD SWAP4 POP POP POP JUMP JUMPDEST PUSH1 0x0 PUSH1 0x20 DUP3 DUP5 SUB SLT ISZERO PUSH2 0x2086 JUMPI PUSH1 0x0 DUP1 REVERT JUMPDEST POP CALLDATALOAD SWAP2 SWAP1 POP JUMP JUMPDEST PUSH1 0x0 DUP1 PUSH1 0x40 DUP4 DUP6 SUB SLT ISZERO PUSH2 0x20A0 JUMPI PUSH1 0x0 DUP1 REVERT JUMPDEST DUP3 CALLDATALOAD SWAP2 POP PUSH1 0x20 DUP4 ADD CALLDATALOAD PUSH2 0x20B2 DUP2 PUSH2 0x1F72 JUMP JUMPDEST DUP1 SWAP2 POP POP SWAP3 POP SWAP3 SWAP1 POP JUMP JUMPDEST PUSH4 0x4E487B71 PUSH1 0xE0 SHL PUSH1 0x0 MSTORE PUSH1 0x41 PUSH1 0x4 MSTORE PUSH1 0x24 PUSH1 0x0 REVERT JUMPDEST PUSH1 0x0 DUP1 PUSH8 0xFFFFFFFFFFFFFFFF DUP5 GT ISZERO PUSH2 0x20EE JUMPI PUSH2 0x20EE PUSH2 0x20BD JUMP JUMPDEST POP PUSH1 0x40 MLOAD PUSH1 0x1F NOT PUSH1 0x1F DUP6 ADD DUP2 AND PUSH1 0x3F ADD AND DUP2 ADD DUP2 DUP2 LT PUSH8 0xFFFFFFFFFFFFFFFF DUP3 GT OR ISZERO PUSH2 0x211D JUMPI PUSH2 0x211D PUSH2 0x20BD JUMP JUMPDEST PUSH1 0x40 MSTORE DUP4 DUP2 MSTORE SWAP1 POP DUP1 DUP3 DUP5 ADD DUP6 LT ISZERO PUSH2 0x2135 JUMPI PUSH1 0x0 DUP1 REVERT JUMPDEST DUP4 DUP4 PUSH1 0x20 DUP4 ADD CALLDATACOPY PUSH1 0x0 PUSH1 0x20 DUP6 DUP4 ADD ADD MSTORE POP SWAP4 SWAP3 POP POP POP JUMP JUMPDEST PUSH1 0x0 DUP1 PUSH1 0x40 DUP4 DUP6 SUB SLT ISZERO PUSH2 0x2160 JUMPI PUSH1 0x0 DUP1 REVERT JUMPDEST DUP3 CALLDATALOAD PUSH2 0x216B DUP2 PUSH2 0x1F72 JUMP JUMPDEST SWAP2 POP PUSH1 0x20 DUP4 ADD CALLDATALOAD PUSH8 0xFFFFFFFFFFFFFFFF DUP2 GT ISZERO PUSH2 0x2187 JUMPI PUSH1 0x0 DUP1 REVERT JUMPDEST DUP4 ADD PUSH1 0x1F DUP2 ADD DUP6 SGT PUSH2 0x2198 JUMPI PUSH1 0x0 DUP1 REVERT JUMPDEST PUSH2 0x21A7 DUP6 DUP3 CALLDATALOAD PUSH1 0x20 DUP5 ADD PUSH2 0x20D3 JUMP JUMPDEST SWAP2 POP POP SWAP3 POP SWAP3 SWAP1 POP JUMP JUMPDEST PUSH1 0x0 JUMPDEST DUP4 DUP2 LT ISZERO PUSH2 0x21CC JUMPI DUP2 DUP2 ADD MLOAD DUP4 DUP3 ADD MSTORE PUSH1 0x20 ADD PUSH2 0x21B4 JUMP JUMPDEST POP POP PUSH1 0x0 SWAP2 ADD MSTORE JUMP JUMPDEST PUSH1 0x0 DUP2 MLOAD DUP1 DUP5 MSTORE PUSH2 0x21ED DUP2 PUSH1 0x20 DUP7 ADD PUSH1 0x20 DUP7 ADD PUSH2 0x21B1 JUMP JUMPDEST PUSH1 0x1F ADD PUSH1 0x1F NOT AND SWAP3 SWAP1 SWAP3 ADD PUSH1 0x20 ADD SWAP3 SWAP2 POP POP JUMP JUMPDEST PUSH1 0x20 DUP2 MSTORE PUSH1 0x0 PUSH2 0x6BC PUSH1 0x20 DUP4 ADD DUP5 PUSH2 0x21D5 JUMP JUMPDEST DUP13 DUP2 MSTORE DUP12 PUSH1 0x20 DUP3 ADD MSTORE PUSH2 0x180 PUSH1 0x40 DUP3 ADD MSTORE PUSH1 0x0 PUSH2 0x2235 PUSH2 0x180 DUP4 ADD DUP14 PUSH2 0x21D5 JUMP JUMPDEST PUSH1 0x1 PUSH1 0x1 PUSH1 0xA0 SHL SUB SWAP12 SWAP1 SWAP12 AND PUSH1 0x60 DUP4 ADD MSTORE POP PUSH1 0x80 DUP2 ADD SWAP9 SWAP1 SWAP9 MSTORE PUSH1 0xA0 DUP9 ADD SWAP7 SWAP1 SWAP7 MSTORE SWAP4 ISZERO ISZERO PUSH1 0xC0 DUP8 ADD MSTORE SWAP2 ISZERO ISZERO PUSH1 0xE0 DUP7 ADD MSTORE ISZERO ISZERO PUSH2 0x100 DUP6 ADD MSTORE PUSH2 0x120 DUP5 ADD MSTORE PUSH2 0x140 DUP4 ADD MSTORE PUSH2 0x160 SWAP1 SWAP2 ADD MSTORE SWAP4 SWAP3 POP POP POP JUMP JUMPDEST PUSH1 0x0 PUSH1 0x20 DUP3 DUP5 SUB SLT ISZERO PUSH2 0x229B JUMPI PUSH1 0x0 DUP1 REVERT JUMPDEST PUSH2 0x6BC DUP3 PUSH2 0x2031 JUMP JUMPDEST PUSH1 0x0 DUP1 PUSH1 0x0 PUSH1 0x60 DUP5 DUP7 SUB SLT ISZERO PUSH2 0x22B9 JUMPI PUSH1 0x0 DUP1 REVERT JUMPDEST DUP4 CALLDATALOAD SWAP3 POP PUSH1 0x20 DUP5 ADD CALLDATALOAD DUP1 ISZERO ISZERO DUP2 EQ PUSH2 0x22D0 JUMPI PUSH1 0x0 DUP1 REVERT JUMPDEST SWAP2 POP PUSH1 0x40 DUP5 ADD CALLDATALOAD PUSH2 0x22E0 DUP2 PUSH2 0x1F72 JUMP JUMPDEST DUP1 SWAP2 POP POP SWAP3 POP SWAP3 POP SWAP3 JUMP JUMPDEST PUSH1 0x20 DUP1 DUP3 MSTORE DUP3 MLOAD DUP3 DUP3 ADD DUP2 SWAP1 MSTORE PUSH1 0x0 SWAP2 DUP5 ADD SWAP1 PUSH1 0x40 DUP5 ADD SWAP1 DUP4 JUMPDEST DUP2 DUP2 LT ISZERO PUSH2 0x2367 JUMPI DUP4 MLOAD PUSH1 0x1 PUSH1 0x1 PUSH1 0xA0 SHL SUB DUP2 MLOAD AND DUP5 MSTORE PUSH1 0x1 PUSH1 0x1 PUSH1 0xA0 SHL SUB PUSH1 0x20 DUP3 ADD MLOAD AND PUSH1 0x20 DUP6 ADD MSTORE PUSH1 0x40 DUP2 ADD MLOAD ISZERO ISZERO PUSH1 0x40 DUP6 ADD MSTORE PUSH1 0x60 DUP2 ADD MLOAD PUSH1 0x60 DUP6 ADD MSTORE PUSH1 0x80 DUP2 ADD MLOAD PUSH1 0x80 DUP6 ADD MSTORE POP PUSH1 0xA0 DUP4 ADD SWAP3 POP PUSH1 0x20 DUP5 ADD SWAP4 POP PUSH1 0x1 DUP2 ADD SWAP1 POP PUSH2 0x2305 JUMP JUMPDEST POP SWAP1 SWAP6 SWAP5 POP POP POP POP POP JUMP JUMPDEST PUSH1 0x20 DUP2 MSTORE DUP2 MLOAD PUSH1 0x20 DUP3 ADD MSTORE PUSH1 0x20 DUP3 ADD MLOAD PUSH1 0x40 DUP3 ADD MSTORE PUSH1 0x0 PUSH1 0x40 DUP4 ADD MLOAD PUSH2 0x180 PUSH1 0x60 DUP5 ADD MSTORE PUSH2 0x23A4 PUSH2 0x1A0 DUP5 ADD DUP3 PUSH2 0x21D5 JUMP JUMPDEST SWAP1 POP PUSH1 0x60 DUP5 ADD MLOAD PUSH2 0x23C0 PUSH1 0x80 DUP6 ADD DUP3 PUSH1 0x1 PUSH1 0x1 PUSH1 0xA0 SHL SUB AND SWAP1 MSTORE JUMP JUMPDEST POP PUSH1 0x80 DUP5 ADD MLOAD PUSH1 0xA0 DUP5 ADD MSTORE PUSH1 0xA0 DUP5 ADD MLOAD PUSH1 0xC0 DUP5 ADD MSTORE PUSH1 0xC0 DUP5 ADD MLOAD PUSH2 0x23E8 PUSH1 0xE0 DUP6 ADD DUP3 ISZERO ISZERO SWAP1 MSTORE JUMP JUMPDEST POP PUSH1 0xE0 DUP5 ADD MLOAD DUP1 ISZERO ISZERO PUSH2 0x100 DUP6 ADD MSTORE POP PUSH2 0x100 DUP5 ADD MLOAD DUP1 ISZERO ISZERO PUSH2 0x120 DUP6 ADD MSTORE POP PUSH2 0x120 DUP5 ADD MLOAD PUSH2 0x140 DUP5 ADD MSTORE PUSH2 0x140 DUP5 ADD MLOAD PUSH2 0x160 DUP5 ADD MSTORE PUSH2 0x160 DUP5 ADD MLOAD PUSH2 0x180 DUP5 ADD MSTORE DUP1 SWAP2 POP POP SWAP3 SWAP2 POP POP JUMP JUMPDEST PUSH1 0x0 DUP1 PUSH1 0x0 DUP1 PUSH1 0x80 DUP6 DUP8 SUB SLT ISZERO PUSH2 0x244C JUMPI PUSH1 0x0 DUP1 REVERT JUMPDEST DUP5 CALLDATALOAD PUSH2 0x2457 DUP2 PUSH2 0x1F72 JUMP JUMPDEST SWAP4 POP PUSH1 0x20 DUP6 ADD CALLDATALOAD PUSH2 0x2467 DUP2 PUSH2 0x1F72 JUMP JUMPDEST SWAP4 SWAP7 SWAP4 SWAP6 POP POP POP POP PUSH1 0x40 DUP3 ADD CALLDATALOAD SWAP2 PUSH1 0x60 ADD CALLDATALOAD SWAP1 JUMP JUMPDEST PUSH1 0x0 PUSH1 0x20 DUP3 DUP5 SUB SLT ISZERO PUSH2 0x248E JUMPI PUSH1 0x0 DUP1 REVERT JUMPDEST DUP2 CALLDATALOAD PUSH2 0x1E04 DUP2 PUSH2 0x1F72 JUMP JUMPDEST PUSH4 0x4E487B71 PUSH1 0xE0 SHL PUSH1 0x0 MSTORE PUSH1 0x11 PUSH1 0x4 MSTORE PUSH1 0x24 PUSH1 0x0 REVERT JUMPDEST PUSH1 0x0 PUSH1 0x1 DUP3 ADD PUSH2 0x24C1 JUMPI PUSH2 0x24C1 PUSH2 0x2499 JUMP JUMPDEST POP PUSH1 0x1 ADD SWAP1 JUMP JUMPDEST PUSH1 0x1 DUP2 DUP2 SHR SWAP1 DUP3 AND DUP1 PUSH2 0x24DC JUMPI PUSH1 0x7F DUP3 AND SWAP2 POP JUMPDEST PUSH1 0x20 DUP3 LT DUP2 SUB PUSH2 0x24FC JUMPI PUSH4 0x4E487B71 PUSH1 0xE0 SHL PUSH1 0x0 MSTORE PUSH1 0x22 PUSH1 0x4 MSTORE PUSH1 0x24 PUSH1 0x0 REVERT JUMPDEST POP SWAP2 SWAP1 POP JUMP JUMPDEST PUSH1 0x1F DUP3 GT ISZERO PUSH2 0xE2C JUMPI DUP1 PUSH1 0x0 MSTORE PUSH1 0x20 PUSH1 0x0 KECCAK256 PUSH1 0x1F DUP5 ADD PUSH1 0x5 SHR DUP2 ADD PUSH1 0x20 DUP6 LT ISZERO PUSH2 0x2529 JUMPI POP DUP1 JUMPDEST PUSH1 0x1F DUP5 ADD PUSH1 0x5 SHR DUP3 ADD SWAP2 POP JUMPDEST DUP2 DUP2 LT ISZERO PUSH2 0x2549 JUMPI PUSH1 0x0 DUP2 SSTORE PUSH1 0x1 ADD PUSH2 0x2535 JUMP JUMPDEST POP POP POP POP POP JUMP JUMPDEST DUP2 MLOAD PUSH8 0xFFFFFFFFFFFFFFFF DUP2 GT ISZERO PUSH2 0x256A JUMPI PUSH2 0x256A PUSH2 0x20BD JUMP JUMPDEST PUSH2 0x257E DUP2 PUSH2 0x2578 DUP5 SLOAD PUSH2 0x24C8 JUMP JUMPDEST DUP5 PUSH2 0x2502 JUMP JUMPDEST PUSH1 0x20 PUSH1 0x1F DUP3 GT PUSH1 0x1 DUP2 EQ PUSH2 0x25B2 JUMPI PUSH1 0x0 DUP4 ISZERO PUSH2 0x259A JUMPI POP DUP5 DUP3 ADD MLOAD JUMPDEST PUSH1 0x0 NOT PUSH1 0x3 DUP6 SWAP1 SHL SHR NOT AND PUSH1 0x1 DUP5 SWAP1 SHL OR DUP5 SSTORE PUSH2 0x2549 JUMP JUMPDEST PUSH1 0x0 DUP5 DUP2 MSTORE PUSH1 0x20 DUP2 KECCAK256 PUSH1 0x1F NOT DUP6 AND SWAP2 JUMPDEST DUP3 DUP2 LT ISZERO PUSH2 0x25E2 JUMPI DUP8 DUP6 ADD MLOAD DUP3 SSTORE PUSH1 0x20 SWAP5 DUP6 ADD SWAP5 PUSH1 0x1 SWAP1 SWAP3 ADD SWAP2 ADD PUSH2 0x25C2 JUMP JUMPDEST POP DUP5 DUP3 LT ISZERO PUSH2 0x2600 JUMPI DUP7 DUP5 ADD MLOAD PUSH1 0x0 NOT PUSH1 0x3 DUP8 SWAP1 SHL PUSH1 0xF8 AND SHR NOT AND DUP2 SSTORE JUMPDEST POP POP POP POP PUSH1 0x1 SWAP1 DUP2 SHL ADD SWAP1 SSTORE POP JUMP JUMPDEST DUP2 DUP4 MSTORE DUP2 DUP2 PUSH1 0x20 DUP6 ADD CALLDATACOPY POP PUSH1 0x0 DUP3 DUP3 ADD PUSH1 0x20 SWAP1 DUP2 ADD SWAP2 SWAP1 SWAP2 MSTORE PUSH1 0x1F SWAP1 SWAP2 ADD PUSH1 0x1F NOT AND SWAP1 SWAP2 ADD ADD SWAP1 JUMP JUMPDEST DUP7 DUP2 MSTORE PUSH1 0x80 PUSH1 0x20 DUP3 ADD MSTORE PUSH1 0x0 PUSH2 0x2652 PUSH1 0x80 DUP4 ADD DUP8 DUP10 PUSH2 0x260F JUMP JUMPDEST DUP3 DUP2 SUB PUSH1 0x40 DUP5 ADD MSTORE PUSH2 0x2665 DUP2 DUP7 DUP9 PUSH2 0x260F JUMP JUMPDEST SWAP2 POP POP DUP3 PUSH1 0x60 DUP4 ADD MSTORE SWAP8 SWAP7 POP POP POP POP POP POP POP JUMP JUMPDEST DUP1 DUP3 ADD DUP1 DUP3 GT ISZERO PUSH2 0x6BF JUMPI PUSH2 0x6BF PUSH2 0x2499 JUMP JUMPDEST DUP4 ISZERO ISZERO DUP2 MSTORE DUP3 PUSH1 0x20 DUP3 ADD MSTORE PUSH1 0x60 PUSH1 0x40 DUP3 ADD MSTORE PUSH1 0x0 PUSH2 0x1D62 PUSH1 0x60 DUP4 ADD DUP5 PUSH2 0x21D5 JUMP JUMPDEST PUSH1 0x0 DUP3 PUSH1 0x1F DUP4 ADD SLT PUSH2 0x26BE JUMPI PUSH1 0x0 DUP1 REVERT JUMPDEST PUSH2 0x6BC DUP4 DUP4 CALLDATALOAD PUSH1 0x20 DUP6 ADD PUSH2 0x20D3 JUMP JUMPDEST PUSH1 0x0 DUP1 PUSH1 0x0 DUP1 PUSH1 0x0 DUP1 PUSH1 0x0 PUSH1 0xE0 DUP9 DUP11 SUB SLT ISZERO PUSH2 0x26E8 JUMPI PUSH1 0x0 DUP1 REVERT JUMPDEST DUP8 CALLDATALOAD PUSH8 0xFFFFFFFFFFFFFFFF DUP2 GT ISZERO PUSH2 0x26FF JUMPI PUSH1 0x0 DUP1 REVERT JUMPDEST PUSH2 0x270B DUP11 DUP3 DUP12 ADD PUSH2 0x26AD JUMP JUMPDEST SWAP8 POP POP PUSH1 0x20 DUP9 ADD CALLDATALOAD PUSH2 0x271C DUP2 PUSH2 0x1F72 JUMP JUMPDEST SWAP6 POP PUSH1 0x40 DUP9 ADD CALLDATALOAD SWAP5 POP PUSH1 0x60 DUP9 ADD CALLDATALOAD SWAP4 POP PUSH1 0x80 DUP9 ADD CALLDATALOAD PUSH8 0xFFFFFFFFFFFFFFFF DUP2 GT ISZERO PUSH2 0x2746 JUMPI PUSH1 0x0 DUP1 REVERT JUMPDEST PUSH2 0x2752 DUP11 DUP3 DUP12 ADD PUSH2 0x26AD JUMP JUMPDEST SWAP4 POP POP PUSH1 0xA0 DUP9 ADD CALLDATALOAD PUSH8 0xFFFFFFFFFFFFFFFF DUP2 GT ISZERO PUSH2 0x276F JUMPI PUSH1 0x0 DUP1 REVERT JUMPDEST PUSH2 0x277B DUP11 DUP3 DUP12 ADD PUSH2 0x26AD JUMP JUMPDEST SWAP8 SWAP11 SWAP7 SWAP10 POP SWAP5 SWAP8 SWAP4 SWAP7 SWAP3 SWAP6 SWAP3 SWAP5 POP POP POP PUSH1 0xC0 SWAP1 SWAP2 ADD CALLDATALOAD SWAP1 JUMP JUMPDEST PUSH1 0x0 PUSH1 0x20 DUP3 DUP5 SUB SLT ISZERO PUSH2 0x27A6 JUMPI PUSH1 0x0 DUP1 REVERT JUMPDEST POP MLOAD SWAP2 SWAP1 POP JUMP JUMPDEST DUP5 DUP2 MSTORE PUSH1 0x80 PUSH1 0x20 DUP3 ADD MSTORE PUSH1 0x0 PUSH2 0x27C6 PUSH1 0x80 DUP4 ADD DUP7 PUSH2 0x21D5 JUMP JUMPDEST DUP3 DUP2 SUB PUSH1 0x40 DUP5 ADD MSTORE PUSH2 0x27D8 DUP2 DUP7 PUSH2 0x21D5 JUMP JUMPDEST SWAP2 POP POP DUP3 PUSH1 0x60 DUP4 ADD MSTORE SWAP6 SWAP5 POP POP POP POP POP JUMP JUMPDEST PUSH1 0x0 DUP3 MLOAD PUSH2 0x27FC DUP2 DUP5 PUSH1 0x20 DUP8 ADD PUSH2 0x21B1 JUMP JUMPDEST SWAP2 SWAP1 SWAP2 ADD SWAP3 SWAP2 POP POP JUMP INVALID LOG2 PUSH5 0x6970667358 0x22 SLT KECCAK256 0xF8 INVALID PUSH22 0x86D527E566B9AEC6CE96E3B52FF7313BC5E3BB7DDF5E 0xA5 POP 0xDA 0x2B 0xBB ADDMOD PUSH3 0x64736F PUSH13 0x634300081C0033000000000000 "
		},
		"gasEstimates": {
			"creation": {
				"codeDepositCost": "2060000",
				"executionCost": "infinite",
				"totalCost": "infinite"
			},
			"external": {
				"UPGRADE_INTERFACE_VERSION()": "infinite",
				"VOTING_PERIOD()": "284",
				"disputeCounter()": "2385",
				"disputeVotes(uint256,uint256)": "11234",
				"disputes(uint256)": "infinite",
				"endpoint()": "2448",
				"getDispute(uint256)": "infinite",
				"getDisputeVotes(uint256)": "infinite",
				"getVoteCount(uint256)": "2549",
				"hasUserVoted(uint256,address)": "2696",
				"hasVoted(uint256,address)": "2674",
				"initialize(address,address,uint256,uint256)": "infinite",
				"isOracleActive(string)": "593",
				"lzReceive((uint32,bytes32,uint64),bytes32,bytes,address,bytes)": "infinite",
				"minimumDisputeFee()": "2363",
				"minimumVotingPower()": "2341",
				"owner()": "2376",
				"peers(uint32)": "2556",
				"proxiableUUID()": "infinite",
				"raiseDispute(uint256,uint256,string,string,uint256)": "infinite",
				"renounceOwnership()": "infinite",
				"resolveDispute(uint256)": "infinite",
				"setMinimumDisputeFee(uint256)": "25644",
				"setMinimumVotingPower(uint256)": "25699",
				"setPeer(uint32,bytes32)": "26256",
				"transferOwnership(address)": "infinite",
				"upgradeToAndCall(address,bytes)": "infinite",
				"version()": "infinite",
				"voteOnDispute(uint256,bool,address)": "infinite"
			},
			"internal": {
				"_getOracleVotingPower(address)": "infinite",
				"_handleCrossChainDispute(address,uint256,uint256,string memory,string memory,uint256)": "infinite",
				"_isOracleActive(string calldata)": "infinite",
				"_isOracleMember(address)": "infinite",
				"_lzReceive(struct Origin calldata,bytes32,bytes calldata,address,bytes calldata)": "infinite",
				"_sendDisputeResolutionCrossChain(uint256)": "infinite",
				"_validateJobAndCaller(uint256,address)": "infinite"
			}
		},
		"methodIdentifiers": {
			"UPGRADE_INTERFACE_VERSION()": "ad3cb1cc",
			"VOTING_PERIOD()": "b1610d7e",
			"disputeCounter()": "7d36f4d3",
			"disputeVotes(uint256,uint256)": "01ffdb01",
			"disputes(uint256)": "564a565d",
			"endpoint()": "5e280f11",
			"getDispute(uint256)": "e3a96cbd",
			"getDisputeVotes(uint256)": "c4736092",
			"getVoteCount(uint256)": "b2c2f2e8",
			"hasUserVoted(uint256,address)": "dc296ae1",
			"hasVoted(uint256,address)": "43859632",
			"initialize(address,address,uint256,uint256)": "eb990c59",
			"isOracleActive(string)": "0308b414",
			"lzReceive((uint32,bytes32,uint64),bytes32,bytes,address,bytes)": "13137d65",
			"minimumDisputeFee()": "4909f765",
			"minimumVotingPower()": "120ea202",
			"owner()": "8da5cb5b",
			"peers(uint32)": "bb0b6a53",
			"proxiableUUID()": "52d1902d",
			"raiseDispute(uint256,uint256,string,string,uint256)": "072358b1",
			"renounceOwnership()": "715018a6",
			"resolveDispute(uint256)": "c2b7b868",
			"setMinimumDisputeFee(uint256)": "65a26578",
			"setMinimumVotingPower(uint256)": "42da4a60",
			"setPeer(uint32,bytes32)": "3400288b",
			"transferOwnership(address)": "f2fde38b",
			"upgradeToAndCall(address,bytes)": "4f1ef286",
			"version()": "54fd4d50",
			"voteOnDispute(uint256,bool,address)": "be118d7a"
		}
	},
	"abi": [
		{
			"inputs": [],
			"stateMutability": "nonpayable",
			"type": "constructor"
		},
		{
			"inputs": [
				{
					"internalType": "address",
					"name": "target",
					"type": "address"
				}
			],
			"name": "AddressEmptyCode",
			"type": "error"
		},
		{
			"inputs": [
				{
					"internalType": "address",
					"name": "voter",
					"type": "address"
				},
				{
					"internalType": "uint256",
					"name": "disputeId",
					"type": "uint256"
				}
			],
			"name": "AlreadyVoted",
			"type": "error"
		},
		{
			"inputs": [
				{
					"internalType": "uint256",
					"name": "jobId",
					"type": "uint256"
				}
			],
			"name": "DisputeAlreadyExists",
			"type": "error"
		},
		{
			"inputs": [
				{
					"internalType": "uint256",
					"name": "disputeId",
					"type": "uint256"
				}
			],
			"name": "DisputeAlreadyResolved",
			"type": "error"
		},
		{
			"inputs": [
				{
					"internalType": "uint256",
					"name": "disputeId",
					"type": "uint256"
				}
			],
			"name": "DisputeNotFound",
			"type": "error"
		},
		{
			"inputs": [
				{
					"internalType": "address",
					"name": "implementation",
					"type": "address"
				}
			],
			"name": "ERC1967InvalidImplementation",
			"type": "error"
		},
		{
			"inputs": [],
			"name": "ERC1967NonPayable",
			"type": "error"
		},
		{
			"inputs": [],
			"name": "FailedCall",
			"type": "error"
		},
		{
			"inputs": [
				{
					"internalType": "string",
					"name": "oracleName",
					"type": "string"
				}
			],
			"name": "InactiveOracle",
			"type": "error"
		},
		{
			"inputs": [
				{
					"internalType": "uint256",
					"name": "provided",
					"type": "uint256"
				},
				{
					"internalType": "uint256",
					"name": "required",
					"type": "uint256"
				}
			],
			"name": "InsufficientFee",
			"type": "error"
		},
		{
			"inputs": [
				{
					"internalType": "uint256",
					"name": "disputeId",
					"type": "uint256"
				}
			],
			"name": "InsufficientVotes",
			"type": "error"
		},
		{
			"inputs": [],
			"name": "InvalidInitialization",
			"type": "error"
		},
		{
			"inputs": [
				{
					"internalType": "bytes32",
					"name": "peer",
					"type": "bytes32"
				}
			],
			"name": "InvalidPeer",
			"type": "error"
		},
		{
			"inputs": [
				{
					"internalType": "uint256",
					"name": "jobId",
					"type": "uint256"
				}
			],
			"name": "JobNotFound",
			"type": "error"
		},
		{
			"inputs": [
				{
					"internalType": "uint32",
					"name": "eid",
					"type": "uint32"
				}
			],
			"name": "NoPeer",
			"type": "error"
		},
		{
			"inputs": [],
			"name": "NotInitializing",
			"type": "error"
		},
		{
			"inputs": [
				{
					"internalType": "address",
					"name": "caller",
					"type": "address"
				}
			],
			"name": "NotOracleMember",
			"type": "error"
		},
		{
			"inputs": [],
			"name": "OnlyEndpoint",
			"type": "error"
		},
		{
			"inputs": [
				{
					"internalType": "address",
					"name": "owner",
					"type": "address"
				}
			],
			"name": "OwnableInvalidOwner",
			"type": "error"
		},
		{
			"inputs": [
				{
					"internalType": "address",
					"name": "account",
					"type": "address"
				}
			],
			"name": "OwnableUnauthorizedAccount",
			"type": "error"
		},
		{
			"inputs": [],
			"name": "UUPSUnauthorizedCallContext",
			"type": "error"
		},
		{
			"inputs": [
				{
					"internalType": "bytes32",
					"name": "slot",
					"type": "bytes32"
				}
			],
			"name": "UUPSUnsupportedProxiableUUID",
			"type": "error"
		},
		{
			"inputs": [
				{
					"internalType": "address",
					"name": "caller",
					"type": "address"
				},
				{
					"internalType": "uint256",
					"name": "jobId",
					"type": "uint256"
				}
			],
			"name": "UnauthorizedDisputer",
			"type": "error"
		},
		{
			"inputs": [
				{
					"internalType": "uint256",
					"name": "disputeId",
					"type": "uint256"
				}
			],
			"name": "VotingPeriodActive",
			"type": "error"
		},
		{
			"inputs": [
				{
					"internalType": "uint256",
					"name": "disputeId",
					"type": "uint256"
				}
			],
			"name": "VotingPeriodExpired",
			"type": "error"
		},
		{
			"anonymous": false,
			"inputs": [
				{
					"indexed": true,
					"internalType": "uint256",
					"name": "disputeId",
					"type": "uint256"
				},
				{
					"indexed": true,
					"internalType": "uint256",
					"name": "jobId",
					"type": "uint256"
				},
				{
					"indexed": true,
					"internalType": "address",
					"name": "disputeRaiser",
					"type": "address"
				},
				{
					"indexed": false,
					"internalType": "uint256",
					"name": "disputedAmount",
					"type": "uint256"
				},
				{
					"indexed": false,
					"internalType": "string",
					"name": "disputeHash",
					"type": "string"
				},
				{
					"indexed": false,
					"internalType": "string",
					"name": "oracleName",
					"type": "string"
				},
				{
					"indexed": false,
					"internalType": "uint256",
					"name": "fee",
					"type": "uint256"
				}
			],
			"name": "DisputeRaised",
			"type": "event"
		},
		{
			"anonymous": false,
			"inputs": [
				{
					"indexed": true,
					"internalType": "uint256",
					"name": "disputeId",
					"type": "uint256"
				},
				{
					"indexed": false,
					"internalType": "bool",
					"name": "result",
					"type": "bool"
				},
				{
					"indexed": false,
					"internalType": "uint256",
					"name": "totalVotingPower",
					"type": "uint256"
				},
				{
					"indexed": false,
					"internalType": "string",
					"name": "resolutionType",
					"type": "string"
				}
			],
			"name": "DisputeResolved",
			"type": "event"
		},
		{
			"anonymous": false,
			"inputs": [
				{
					"indexed": false,
					"internalType": "uint64",
					"name": "version",
					"type": "uint64"
				}
			],
			"name": "Initialized",
			"type": "event"
		},
		{
			"anonymous": false,
			"inputs": [
				{
					"indexed": false,
					"internalType": "uint256",
					"name": "newFee",
					"type": "uint256"
				}
			],
			"name": "MinimumFeeUpdated",
			"type": "event"
		},
		{
			"anonymous": false,
			"inputs": [
				{
					"indexed": false,
					"internalType": "uint256",
					"name": "newPower",
					"type": "uint256"
				}
			],
			"name": "MinimumVotingPowerUpdated",
			"type": "event"
		},
		{
			"anonymous": false,
			"inputs": [
				{
					"indexed": true,
					"internalType": "address",
					"name": "previousOwner",
					"type": "address"
				},
				{
					"indexed": true,
					"internalType": "address",
					"name": "newOwner",
					"type": "address"
				}
			],
			"name": "OwnershipTransferred",
			"type": "event"
		},
		{
			"anonymous": false,
			"inputs": [
				{
					"indexed": true,
					"internalType": "uint32",
					"name": "eid",
					"type": "uint32"
				},
				{
					"indexed": false,
					"internalType": "bytes32",
					"name": "peer",
					"type": "bytes32"
				}
			],
			"name": "PeerSet",
			"type": "event"
		},
		{
			"anonymous": false,
			"inputs": [
				{
					"indexed": true,
					"internalType": "address",
					"name": "implementation",
					"type": "address"
				}
			],
			"name": "Upgraded",
			"type": "event"
		},
		{
			"anonymous": false,
			"inputs": [
				{
					"indexed": true,
					"internalType": "uint256",
					"name": "disputeId",
					"type": "uint256"
				},
				{
					"indexed": true,
					"internalType": "address",
					"name": "voter",
					"type": "address"
				},
				{
					"indexed": true,
					"internalType": "address",
					"name": "localAddress",
					"type": "address"
				},
				{
					"indexed": false,
					"internalType": "bool",
					"name": "voteChoice",
					"type": "bool"
				},
				{
					"indexed": false,
					"internalType": "uint256",
					"name": "votingPower",
					"type": "uint256"
				}
			],
			"name": "VoteCast",
			"type": "event"
		},
		{
			"inputs": [],
			"name": "UPGRADE_INTERFACE_VERSION",
			"outputs": [
				{
					"internalType": "string",
					"name": "",
					"type": "string"
				}
			],
			"stateMutability": "view",
			"type": "function"
		},
		{
			"inputs": [],
			"name": "VOTING_PERIOD",
			"outputs": [
				{
					"internalType": "uint256",
					"name": "",
					"type": "uint256"
				}
			],
			"stateMutability": "view",
			"type": "function"
		},
		{
			"inputs": [],
			"name": "disputeCounter",
			"outputs": [
				{
					"internalType": "uint256",
					"name": "",
					"type": "uint256"
				}
			],
			"stateMutability": "view",
			"type": "function"
		},
		{
			"inputs": [
				{
					"internalType": "uint256",
					"name": "",
					"type": "uint256"
				},
				{
					"internalType": "uint256",
					"name": "",
					"type": "uint256"
				}
			],
			"name": "disputeVotes",
			"outputs": [
				{
					"internalType": "address",
					"name": "voter",
					"type": "address"
				},
				{
					"internalType": "address",
					"name": "localAddress",
					"type": "address"
				},
				{
					"internalType": "bool",
					"name": "voteChoice",
					"type": "bool"
				},
				{
					"internalType": "uint256",
					"name": "votingPower",
					"type": "uint256"
				},
				{
					"internalType": "uint256",
					"name": "timestamp",
					"type": "uint256"
				}
			],
			"stateMutability": "view",
			"type": "function"
		},
		{
			"inputs": [
				{
					"internalType": "uint256",
					"name": "",
					"type": "uint256"
				}
			],
			"name": "disputes",
			"outputs": [
				{
					"internalType": "uint256",
					"name": "jobId",
					"type": "uint256"
				},
				{
					"internalType": "uint256",
					"name": "disputedAmount",
					"type": "uint256"
				},
				{
					"internalType": "string",
					"name": "disputeHash",
					"type": "string"
				},
				{
					"internalType": "address",
					"name": "disputeRaiser",
					"type": "address"
				},
				{
					"internalType": "uint256",
					"name": "votesFor",
					"type": "uint256"
				},
				{
					"internalType": "uint256",
					"name": "votesAgainst",
					"type": "uint256"
				},
				{
					"internalType": "bool",
					"name": "result",
					"type": "bool"
				},
				{
					"internalType": "bool",
					"name": "isVotingActive",
					"type": "bool"
				},
				{
					"internalType": "bool",
					"name": "isResolved",
					"type": "bool"
				},
				{
					"internalType": "uint256",
					"name": "timestamp",
					"type": "uint256"
				},
				{
					"internalType": "uint256",
					"name": "totalVotingPower",
					"type": "uint256"
				},
				{
					"internalType": "uint256",
					"name": "feeAmount",
					"type": "uint256"
				}
			],
			"stateMutability": "view",
			"type": "function"
		},
		{
			"inputs": [],
			"name": "endpoint",
			"outputs": [
				{
					"internalType": "contract ILayerZeroEndpointV2",
					"name": "",
					"type": "address"
				}
			],
			"stateMutability": "view",
			"type": "function"
		},
		{
			"inputs": [
				{
					"internalType": "uint256",
					"name": "disputeId",
					"type": "uint256"
				}
			],
			"name": "getDispute",
			"outputs": [
				{
					"components": [
						{
							"internalType": "uint256",
							"name": "jobId",
							"type": "uint256"
						},
						{
							"internalType": "uint256",
							"name": "disputedAmount",
							"type": "uint256"
						},
						{
							"internalType": "string",
							"name": "disputeHash",
							"type": "string"
						},
						{
							"internalType": "address",
							"name": "disputeRaiser",
							"type": "address"
						},
						{
							"internalType": "uint256",
							"name": "votesFor",
							"type": "uint256"
						},
						{
							"internalType": "uint256",
							"name": "votesAgainst",
							"type": "uint256"
						},
						{
							"internalType": "bool",
							"name": "result",
							"type": "bool"
						},
						{
							"internalType": "bool",
							"name": "isVotingActive",
							"type": "bool"
						},
						{
							"internalType": "bool",
							"name": "isResolved",
							"type": "bool"
						},
						{
							"internalType": "uint256",
							"name": "timestamp",
							"type": "uint256"
						},
						{
							"internalType": "uint256",
							"name": "totalVotingPower",
							"type": "uint256"
						},
						{
							"internalType": "uint256",
							"name": "feeAmount",
							"type": "uint256"
						}
					],
					"internalType": "struct DisputeResolution.Dispute",
					"name": "",
					"type": "tuple"
				}
			],
			"stateMutability": "view",
			"type": "function"
		},
		{
			"inputs": [
				{
					"internalType": "uint256",
					"name": "disputeId",
					"type": "uint256"
				}
			],
			"name": "getDisputeVotes",
			"outputs": [
				{
					"components": [
						{
							"internalType": "address",
							"name": "voter",
							"type": "address"
						},
						{
							"internalType": "address",
							"name": "localAddress",
							"type": "address"
						},
						{
							"internalType": "bool",
							"name": "voteChoice",
							"type": "bool"
						},
						{
							"internalType": "uint256",
							"name": "votingPower",
							"type": "uint256"
						},
						{
							"internalType": "uint256",
							"name": "timestamp",
							"type": "uint256"
						}
					],
					"internalType": "struct DisputeResolution.Vote[]",
					"name": "",
					"type": "tuple[]"
				}
			],
			"stateMutability": "view",
			"type": "function"
		},
		{
			"inputs": [
				{
					"internalType": "uint256",
					"name": "disputeId",
					"type": "uint256"
				}
			],
			"name": "getVoteCount",
			"outputs": [
				{
					"internalType": "uint256",
					"name": "",
					"type": "uint256"
				}
			],
			"stateMutability": "view",
			"type": "function"
		},
		{
			"inputs": [
				{
					"internalType": "uint256",
					"name": "disputeId",
					"type": "uint256"
				},
				{
					"internalType": "address",
					"name": "user",
					"type": "address"
				}
			],
			"name": "hasUserVoted",
			"outputs": [
				{
					"internalType": "bool",
					"name": "",
					"type": "bool"
				}
			],
			"stateMutability": "view",
			"type": "function"
		},
		{
			"inputs": [
				{
					"internalType": "uint256",
					"name": "",
					"type": "uint256"
				},
				{
					"internalType": "address",
					"name": "",
					"type": "address"
				}
			],
			"name": "hasVoted",
			"outputs": [
				{
					"internalType": "bool",
					"name": "",
					"type": "bool"
				}
			],
			"stateMutability": "view",
			"type": "function"
		},
		{
			"inputs": [
				{
					"internalType": "address",
					"name": "_endpoint",
					"type": "address"
				},
				{
					"internalType": "address",
					"name": "_owner",
					"type": "address"
				},
				{
					"internalType": "uint256",
					"name": "_minimumDisputeFee",
					"type": "uint256"
				},
				{
					"internalType": "uint256",
					"name": "_minimumVotingPower",
					"type": "uint256"
				}
			],
			"name": "initialize",
			"outputs": [],
			"stateMutability": "nonpayable",
			"type": "function"
		},
		{
			"inputs": [
				{
					"internalType": "string",
					"name": "oracleName",
					"type": "string"
				}
			],
			"name": "isOracleActive",
			"outputs": [
				{
					"internalType": "bool",
					"name": "",
					"type": "bool"
				}
			],
			"stateMutability": "view",
			"type": "function"
		},
		{
			"inputs": [
				{
					"components": [
						{
							"internalType": "uint32",
							"name": "srcEid",
							"type": "uint32"
						},
						{
							"internalType": "bytes32",
							"name": "sender",
							"type": "bytes32"
						},
						{
							"internalType": "uint64",
							"name": "nonce",
							"type": "uint64"
						}
					],
					"internalType": "struct Origin",
					"name": "_origin",
					"type": "tuple"
				},
				{
					"internalType": "bytes32",
					"name": "_guid",
					"type": "bytes32"
				},
				{
					"internalType": "bytes",
					"name": "_message",
					"type": "bytes"
				},
				{
					"internalType": "address",
					"name": "_executor",
					"type": "address"
				},
				{
					"internalType": "bytes",
					"name": "_extraData",
					"type": "bytes"
				}
			],
			"name": "lzReceive",
			"outputs": [],
			"stateMutability": "payable",
			"type": "function"
		},
		{
			"inputs": [],
			"name": "minimumDisputeFee",
			"outputs": [
				{
					"internalType": "uint256",
					"name": "",
					"type": "uint256"
				}
			],
			"stateMutability": "view",
			"type": "function"
		},
		{
			"inputs": [],
			"name": "minimumVotingPower",
			"outputs": [
				{
					"internalType": "uint256",
					"name": "",
					"type": "uint256"
				}
			],
			"stateMutability": "view",
			"type": "function"
		},
		{
			"inputs": [],
			"name": "owner",
			"outputs": [
				{
					"internalType": "address",
					"name": "",
					"type": "address"
				}
			],
			"stateMutability": "view",
			"type": "function"
		},
		{
			"inputs": [
				{
					"internalType": "uint32",
					"name": "",
					"type": "uint32"
				}
			],
			"name": "peers",
			"outputs": [
				{
					"internalType": "bytes32",
					"name": "",
					"type": "bytes32"
				}
			],
			"stateMutability": "view",
			"type": "function"
		},
		{
			"inputs": [],
			"name": "proxiableUUID",
			"outputs": [
				{
					"internalType": "bytes32",
					"name": "",
					"type": "bytes32"
				}
			],
			"stateMutability": "view",
			"type": "function"
		},
		{
			"inputs": [
				{
					"internalType": "uint256",
					"name": "jobId",
					"type": "uint256"
				},
				{
					"internalType": "uint256",
					"name": "disputedAmount",
					"type": "uint256"
				},
				{
					"internalType": "string",
					"name": "disputeHash",
					"type": "string"
				},
				{
					"internalType": "string",
					"name": "oracleName",
					"type": "string"
				},
				{
					"internalType": "uint256",
					"name": "fee",
					"type": "uint256"
				}
			],
			"name": "raiseDispute",
			"outputs": [],
			"stateMutability": "nonpayable",
			"type": "function"
		},
		{
			"inputs": [],
			"name": "renounceOwnership",
			"outputs": [],
			"stateMutability": "nonpayable",
			"type": "function"
		},
		{
			"inputs": [
				{
					"internalType": "uint256",
					"name": "disputeId",
					"type": "uint256"
				}
			],
			"name": "resolveDispute",
			"outputs": [],
			"stateMutability": "nonpayable",
			"type": "function"
		},
		{
			"inputs": [
				{
					"internalType": "uint256",
					"name": "newFee",
					"type": "uint256"
				}
			],
			"name": "setMinimumDisputeFee",
			"outputs": [],
			"stateMutability": "nonpayable",
			"type": "function"
		},
		{
			"inputs": [
				{
					"internalType": "uint256",
					"name": "newPower",
					"type": "uint256"
				}
			],
			"name": "setMinimumVotingPower",
			"outputs": [],
			"stateMutability": "nonpayable",
			"type": "function"
		},
		{
			"inputs": [
				{
					"internalType": "uint32",
					"name": "_eid",
					"type": "uint32"
				},
				{
					"internalType": "bytes32",
					"name": "_peer",
					"type": "bytes32"
				}
			],
			"name": "setPeer",
			"outputs": [],
			"stateMutability": "nonpayable",
			"type": "function"
		},
		{
			"inputs": [
				{
					"internalType": "address",
					"name": "newOwner",
					"type": "address"
				}
			],
			"name": "transferOwnership",
			"outputs": [],
			"stateMutability": "nonpayable",
			"type": "function"
		},
		{
			"inputs": [
				{
					"internalType": "address",
					"name": "newImplementation",
					"type": "address"
				},
				{
					"internalType": "bytes",
					"name": "data",
					"type": "bytes"
				}
			],
			"name": "upgradeToAndCall",
			"outputs": [],
			"stateMutability": "payable",
			"type": "function"
		},
		{
			"inputs": [],
			"name": "version",
			"outputs": [
				{
					"internalType": "string",
					"name": "",
					"type": "string"
				}
			],
			"stateMutability": "pure",
			"type": "function"
		},
		{
			"inputs": [
				{
					"internalType": "uint256",
					"name": "disputeId",
					"type": "uint256"
				},
				{
					"internalType": "bool",
					"name": "voteChoice",
					"type": "bool"
				},
				{
					"internalType": "address",
					"name": "localAddress",
					"type": "address"
				}
			],
			"name": "voteOnDispute",
			"outputs": [],
			"stateMutability": "nonpayable",
			"type": "function"
		}
	]
}