{
	"data": {
		"bytecode": {
			"linkReferences": {},
			"object": "60a060405234801561001057600080fd5b50604051612dbd380380612dbd83398101604081905261002f91610177565b81818181338061005957604051631e4fbdf760e01b81526000600482015260240160405180910390fd5b6100628161010b565b506001600160a01b03808316608052811661009057604051632d618d8160e21b815260040160405180910390fd5b60805160405163ca5eb5e160e01b81526001600160a01b0383811660048301529091169063ca5eb5e190602401600060405180830381600087803b1580156100d757600080fd5b505af11580156100eb573d6000803e3d6000fd5b505060016002555061010494508593505061010b915050565b50506101aa565b600080546001600160a01b038381166001600160a01b0319831681178455604051919092169283917f8be0079c531659141344cd1fd0a4f28419497f9722a3daafe3b4186f6b6457e09190a35050565b80516001600160a01b038116811461017257600080fd5b919050565b6000806040838503121561018a57600080fd5b6101938361015b565b91506101a16020840161015b565b90509250929050565b608051612bce6101ef60003960008181610361015281816107bc0152818161139a015281816118920152818161199001528181611b970152611c4e0152612bce6000f3fe6080604052600436106101c65760003560e01c8063715018a6116100f7578063bb0b6a5311610095578063dbfae8d711610064578063dbfae8d714610580578063f2fde38b146105b0578063fe4488f6146105d0578063ff7bd03d146105e357600080fd5b8063bb0b6a53146104d3578063ca5eb5e114610500578063ce99783314610520578063db91825c1461053357600080fd5b806382413eac116100d157806382413eac14610443578063891669e2146104825780638da5cb5b146104a25780639eb3f711146104c057600080fd5b8063715018a6146103e35780637d25a05e146103f85780637f6c884a1461043057600080fd5b80633e99eb2e116101645780635e280f111161013e5780635e280f111461034f5780635f3e849f14610383578063682d54e6146103a35780636a326ab1146103c357600080fd5b80633e99eb2e146102e15780635463f8e1146102f45780635c6900f71461032f57600080fd5b806317442b70116101a057806317442b701461023a5780633013ce291461025c5780633400288b146102945780633561c340146102b457600080fd5b80630c4f321f146101d25780630d82ddc31461021257806313137d651461022757600080fd5b366101cd57005b600080fd5b3480156101de57600080fd5b506101ff6101ed366004611d76565b60046020526000908152604090205481565b6040519081526020015b60405180910390f35b610225610220366004611ec5565b610603565b005b610225610235366004611fa2565b6107ba565b34801561024657600080fd5b5060408051600181526002602082015201610209565b34801561026857600080fd5b5060035461027c906001600160a01b031681565b6040516001600160a01b039091168152602001610209565b3480156102a057600080fd5b506102256102af366004612024565b610862565b3480156102c057600080fd5b506101ff6102cf366004611d76565b60009081526004602052604090205490565b6102256102ef3660046120de565b610878565b34801561030057600080fd5b5061031461030f3660046121cb565b610a2c565b60408051825181526020928301519281019290925201610209565b34801561033b57600080fd5b5061022561034a366004612274565b610aaf565b34801561035b57600080fd5b5061027c7f000000000000000000000000000000000000000000000000000000000000000081565b34801561038f57600080fd5b5061022561039e3660046122a0565b610c43565b3480156103af57600080fd5b506103146103be366004612363565b610cc4565b3480156103cf57600080fd5b506102256103de366004612436565b610d4a565b3480156103ef57600080fd5b50610225610d74565b34801561040457600080fd5b50610418610413366004612024565b610d88565b6040516001600160401b039091168152602001610209565b61022561043e36600461245a565b610d91565b34801561044f57600080fd5b5061047261045e3660046124db565b6001600160a01b0381163014949350505050565b6040519015158152602001610209565b34801561048e57600080fd5b506101ff61049d366004612541565b610f87565b3480156104ae57600080fd5b506000546001600160a01b031661027c565b6102256104ce36600461257a565b6111f3565b3480156104df57600080fd5b506101ff6104ee3660046125cd565b60016020526000908152604090205481565b34801561050c57600080fd5b5061022561051b366004612436565b611373565b61022561052e3660046125e8565b6113f2565b34801561053f57600080fd5b5061056e61054e366004612669565b600660209081526000928352604080842090915290825290205460ff1681565b60405160ff9091168152602001610209565b34801561058c57600080fd5b5061056e61059b366004611d76565b60056020526000908152604090205460ff1681565b3480156105bc57600080fd5b506102256105cb366004612436565b6115c6565b6102256105de36600461268b565b611604565b3480156105ef57600080fd5b506104726105fe366004612707565b6117ef565b61060b611825565b60008451116106615760405162461bcd60e51b815260206004820152601960248201527f576f726b20686173682063616e6e6f7420626520656d7074790000000000000060448201526064015b60405180910390fd5b610674876001600160a01b038816610862565b60003386868660405160200161068d9493929190612769565b60408051601f198184030181526020601f860181900481028401810190925284835292506000916106dc918b91859188908890819084018382808284376000920182905250925061187c915050565b80519091503410156107005760405162461bcd60e51b8152600401610658906127c4565b610758898386868080601f0160208091040260200160405190810160405280939291908181526020018383808284376000920182905250604080518082019091523481526020810191909152925033915061195d9050565b50604080513381526001600160a01b038a166020820152889163ffffffff8c16917f8af9a2f23ce315a83a333eb75c1d69f56b32c7c90d56b9bd88cbb38de4ea8f5891015b60405180910390a350506107b16001600255565b50505050505050565b7f00000000000000000000000000000000000000000000000000000000000000006001600160a01b03163314610805576040516391ac5e4f60e01b8152336004820152602401610658565b6020870180359061081f9061081a908a6125cd565b611a5d565b1461085d5761083160208801886125cd565b60405163309afaf360e21b815263ffffffff909116600482015260208801356024820152604401610658565b6107b1565b61086a611a99565b6108748282611ac6565b5050565b610880611825565b60008551116108d15760405162461bcd60e51b815260206004820181905260248201527f4170706c69636174696f6e20686173682063616e6e6f7420626520656d7074796044820152606401610658565b6108e4886001600160a01b038916610862565b600033878787876040516020016108ff95949392919061282a565b60408051601f198184030181526020601f8601819004810284018101909252848352925060009161094e918c91859188908890819084018382808284376000920182905250925061187c915050565b80519091503410156109725760405162461bcd60e51b8152600401610658906127c4565b6109ca8a8386868080601f0160208091040260200160405190810160405280939291908181526020018383808284376000920182905250604080518082019091523481526020810191909152925033915061195d9050565b50604080513381526001600160a01b038b166020820152899163ffffffff8d16917f8d4041c6bf1a6b1e3cd7eb349dac72e6a16c3378d238e19c5b16ce2cc6449e31910160405180910390a35050610a226001600255565b5050505050505050565b60408051808201909152600080825260208201526000338686604051602001610a579392919061289c565b60408051601f198184030181526020601f87018190048102840181019092528583529250610aa491899184919088908890819084018382808284376000920182905250925061187c915050565b979650505050505050565b6003546001600160a01b0316610aff5760405162461bcd60e51b815260206004820152601560248201527414185e5b595b9d081d1bdad95b881b9bdd081cd95d605a1b6044820152606401610658565b6003546040516323b872dd60e01b8152336004820152306024820152604481018390526001600160a01b03909116906323b872dd906064016020604051808303816000875af1158015610b56573d6000803e3d6000fd5b505050506040513d601f19601f82011682018060405250810190610b7a91906128f8565b610bbe5760405162461bcd60e51b8152602060048201526015602482015274151bdad95b881d1c985b9cd9995c8819985a5b1959605a1b6044820152606401610658565b60008381526004602052604081208054839290610bdc90849061291a565b90915550506000838152600660209081526040808320858452825291829020805460ff19166001179055815184815290810183905284917fa1ce508bcf5d7ad71cfa6aabc22b22d37808e77ad159508a05ef1a8cf1c0d945910160405180910390a2505050565b610c4b611a99565b60405163a9059cbb60e01b81526001600160a01b0383811660048301526024820183905284169063a9059cbb906044016020604051808303816000875af1158015610c9a573d6000803e3d6000fd5b505050506040513d601f19601f82011682018060405250810190610cbe91906128f8565b50505050565b6040805180820190915260008082526020820152600033878787604051602001610cf1949392919061293b565b60408051601f198184030181526020601f87018190048102840181019092528583529250610d3e918a9184919088908890819084018382808284376000920182905250925061187c915050565b98975050505050505050565b610d52611a99565b600380546001600160a01b0319166001600160a01b0392909216919091179055565b610d7c611a99565b610d866000611b1b565b565b60005b92915050565b610d99611825565b6000845111610dea5760405162461bcd60e51b815260206004820152601f60248201527f4a6f622064657461696c20686173682063616e6e6f7420626520656d707479006044820152606401610658565b6000835111610e3b5760405162461bcd60e51b815260206004820181905260248201527f4d7573742068617665206174206c65617374206f6e65206d696c6573746f6e656044820152606401610658565b610e4e866001600160a01b038716610862565b6000338585604051602001610e659392919061289c565b60408051601f198184030181526020601f86018190048102840181019092528483529250600091610eb4918a91859188908890819084018382808284376000920182905250925061187c915050565b8051909150341015610ed85760405162461bcd60e51b8152600401610658906127c4565b610f30888386868080601f0160208091040260200160405190810160405280939291908181526020018383808284376000920182905250604080518082019091523481526020810191909152925033915061195d9050565b5060008863ffffffff167f9d3921fa6202787a376e196a4db9f1f55f1ce7942d18c8146b1bd6e4deaef9e2888a604051610f6b9291906129f9565b60405180910390a35050610f7f6001600255565b505050505050565b6000610f91611a99565b6003546001600160a01b0316610fe15760405162461bcd60e51b815260206004820152601560248201527414185e5b595b9d081d1bdad95b881b9bdd081cd95d605a1b6044820152606401610658565b60008481526004602052604090205461102d5760405162461bcd60e51b815260206004820152600e60248201526d129bd8881b9bdd08199d5b99195960921b6044820152606401610658565b600084815260066020908152604080832086845290915290205460ff166001146110905760405162461bcd60e51b8152602060048201526014602482015273135a5b195cdd1bdb99481b9bdd08199d5b99195960621b6044820152606401610658565b60008481526004602081815260408084208054908590556006835281852088865290925292839020805460ff19166002179055600354925163a9059cbb60e01b815290926001600160a01b03169163a9059cbb916111069187918691016001600160a01b03929092168252602082015260400190565b6020604051808303816000875af1158015611125573d6000803e3d6000fd5b505050506040513d601f19601f8201168201806040525081019061114991906128f8565b6111a05760405162461bcd60e51b815260206004820152602260248201527f467265656c616e636572207061796d656e74207472616e73666572206661696c604482015261195960f21b6064820152608401610658565b604080518581526001600160a01b038516602082015290810182905285907f03f661635a4068c06840b7b53c055a655be7369b79609432ac5c097e8365e9a59060600160405180910390a2949350505050565b6111fb611825565b61120e856001600160a01b038616610862565b60408051606060208201819052600c60808301526b415050524f56455f574f524b60a01b60a0830152339282019290925290810184905260009060c00160408051601f198184030181526020601f8601819004810284018101909252848352925060009161129a918991859188908890819084018382808284376000920182905250925061187c915050565b80519091503410156112be5760405162461bcd60e51b8152600401610658906127c4565b611316878386868080601f0160208091040260200160405190810160405280939291908181526020018383808284376000920182905250604080518082019091523481526020810191909152925033915061195d9050565b50604080518681526001600160a01b038816602082015263ffffffff8916917f76bdec72c88c09d4c70a69194b68202dc9e65c4b221aa3830bbfcf54dd22799a910160405180910390a2505061136c6001600255565b5050505050565b61137b611a99565b60405163ca5eb5e160e01b81526001600160a01b0382811660048301527f0000000000000000000000000000000000000000000000000000000000000000169063ca5eb5e190602401600060405180830381600087803b1580156113de57600080fd5b505af115801561136c573d6000803e3d6000fd5b6113fa611825565b60008551116114425760405162461bcd60e51b81526020600482015260146024820152734e616d652063616e6e6f7420626520656d70747960601b6044820152606401610658565b600084511161148c5760405162461bcd60e51b8152602060048201526016602482015275536b696c6c732063616e6e6f7420626520656d70747960501b6044820152606401610658565b61149f876001600160a01b038816610862565b6000338686866040516020016114b8949392919061293b565b60408051601f198184030181526020601f86018190048102840181019092528483529250600091611507918b91859188908890819084018382808284376000920182905250925061187c915050565b805190915034101561152b5760405162461bcd60e51b8152600401610658906127c4565b611583898386868080601f0160208091040260200160405190810160405280939291908181526020018383808284376000920182905250604080518082019091523481526020810191909152925033915061195d9050565b50336001600160a01b03168963ffffffff167f55c2a5400eee8cf3bf6249454b995adb48669c3a785cc20c61735e7aea4171aa898b60405161079d9291906129f9565b6115ce611a99565b6001600160a01b0381166115f857604051631e4fbdf760e01b815260006004820152602401610658565b61160181611b1b565b50565b61160c611825565b60018360ff1610158015611624575060058360ff1611155b6116705760405162461bcd60e51b815260206004820152601e60248201527f526174696e67206d757374206265206265747765656e203120616e64203500006044820152606401610658565b611683876001600160a01b038816610862565b6040805160a060208201819052600960c0830152682920aa22afaaa9a2a960b91b60e08301523392820192909252606081018790526001600160a01b038616608082015260ff8516918101919091526000906101000160408051601f198184030181526020601f86018190048102840181019092528483529250600091611728918b91859188908890819084018382808284376000920182905250925061187c915050565b805190915034101561174c5760405162461bcd60e51b8152600401610658906127c4565b6117a4898386868080601f0160208091040260200160405190810160405280939291908181526020018383808284376000920182905250604080518082019091523481526020810191909152925033915061195d9050565b50604080516001600160a01b0380891682528a166020820152889163ffffffff8c16917fb8882ee5839b206f84224b7675b401f5d25e96dc6c088f6f933851cb071a2f3b910161079d565b600060208201803590600190839061180790866125cd565b63ffffffff1681526020810191909152604001600020541492915050565b60028054036118765760405162461bcd60e51b815260206004820152601f60248201527f5265656e7472616e637947756172643a207265656e7472616e742063616c6c006044820152606401610658565b60028055565b60408051808201909152600080825260208201527f00000000000000000000000000000000000000000000000000000000000000006001600160a01b031663ddc28c586040518060a001604052808863ffffffff1681526020016118df89611a5d565b8152602001878152602001868152602001851515815250306040518363ffffffff1660e01b8152600401611914929190612a23565b6040805180830381865afa158015611930573d6000803e3d6000fd5b505050506040513d601f19601f820116820180604052508101906119549190612aea565b95945050505050565b611965611d2f565b60006119748460000151611b6b565b60208501519091501561198e5761198e8460200151611b93565b7f00000000000000000000000000000000000000000000000000000000000000006001600160a01b0316632637a450826040518060a001604052808b63ffffffff1681526020016119de8c611a5d565b81526020018a815260200189815260200160008960200151111515815250866040518463ffffffff1660e01b8152600401611a1a929190612a23565b60806040518083038185885af1158015611a38573d6000803e3d6000fd5b50505050506040513d601f19601f82011682018060405250810190610aa49190612b06565b63ffffffff811660009081526001602052604081205480610d8b5760405163f6ff4fb760e01b815263ffffffff84166004820152602401610658565b6000546001600160a01b03163314610d865760405163118cdaa760e01b8152336004820152602401610658565b63ffffffff8216600081815260016020908152604091829020849055815192835282018390527f238399d427b947898edb290f5ff0f9109849b1c3ba196a42e35f00c50a54b98b910160405180910390a15050565b600080546001600160a01b038381166001600160a01b0319831681178455604051919092169283917f8be0079c531659141344cd1fd0a4f28419497f9722a3daafe3b4186f6b6457e09190a35050565b6000813414611b8f576040516304fb820960e51b8152346004820152602401610658565b5090565b60007f00000000000000000000000000000000000000000000000000000000000000006001600160a01b031663e4fe1d946040518163ffffffff1660e01b8152600401602060405180830381865afa158015611bf3573d6000803e3d6000fd5b505050506040513d601f19601f82011682018060405250810190611c179190612b7b565b90506001600160a01b038116611c40576040516329b99a9560e11b815260040160405180910390fd5b6040805133602482018190527f00000000000000000000000000000000000000000000000000000000000000006001600160a01b0381811660448501526064808501889052855180860390910181526084909401909452602080840180516001600160e01b03166323b872dd60e01b1781528451610874968816958993610cbe93889360009283929091839182885af180611ce1576040513d6000823e3d81fd5b50506000513d91508115611cf9578060011415611d06565b6001600160a01b0384163b155b15610cbe57604051635274afe760e01b81526001600160a01b0385166004820152602401610658565b60405180606001604052806000801916815260200160006001600160401b03168152602001611d71604051806040016040528060008152602001600081525090565b905290565b600060208284031215611d8857600080fd5b5035919050565b803563ffffffff81168114611da357600080fd5b919050565b6001600160a01b038116811461160157600080fd5b8035611da381611da8565b634e487b7160e01b600052604160045260246000fd5b604051601f8201601f191681016001600160401b0381118282101715611e0657611e06611dc8565b604052919050565b600082601f830112611e1f57600080fd5b81356001600160401b03811115611e3857611e38611dc8565b611e4b601f8201601f1916602001611dde565b818152846020838601011115611e6057600080fd5b816020850160208301376000918101602001919091529392505050565b60008083601f840112611e8f57600080fd5b5081356001600160401b03811115611ea657600080fd5b602083019150836020828501011115611ebe57600080fd5b9250929050565b600080600080600080600060c0888a031215611ee057600080fd5b611ee988611d8f565b96506020880135611ef981611da8565b95506040880135945060608801356001600160401b03811115611f1b57600080fd5b611f278a828b01611e0e565b94505060808801356001600160401b03811115611f4357600080fd5b611f4f8a828b01611e0e565b93505060a08801356001600160401b03811115611f6b57600080fd5b611f778a828b01611e7d565b989b979a50959850939692959293505050565b600060608284031215611f9c57600080fd5b50919050565b600080600080600080600060e0888a031215611fbd57600080fd5b611fc78989611f8a565b96506060880135955060808801356001600160401b03811115611fe957600080fd5b611ff58a828b01611e7d565b90965094505060a088013561200981611da8565b925060c08801356001600160401b03811115611f6b57600080fd5b6000806040838503121561203757600080fd5b61204083611d8f565b946020939093013593505050565b60006001600160401b0382111561206757612067611dc8565b5060051b60200190565b600082601f83011261208257600080fd5b81356120956120908261204e565b611dde565b8082825260208201915060208360051b8601019250858311156120b757600080fd5b602085015b838110156120d45780358352602092830192016120bc565b5095945050505050565b60008060008060008060008060e0898b0312156120fa57600080fd5b61210389611d8f565b975061211160208a01611dbd565b96506040890135955060608901356001600160401b0381111561213357600080fd5b61213f8b828c01611e0e565b95505060808901356001600160401b0381111561215b57600080fd5b6121678b828c01612071565b94505060a08901356001600160401b0381111561218357600080fd5b61218f8b828c01611e0e565b93505060c08901356001600160401b038111156121ab57600080fd5b6121b78b828c01611e7d565b999c989b5096995094979396929594505050565b6000806000806000608086880312156121e357600080fd5b6121ec86611d8f565b945060208601356001600160401b0381111561220757600080fd5b61221388828901611e0e565b94505060408601356001600160401b0381111561222f57600080fd5b61223b88828901612071565b93505060608601356001600160401b0381111561225757600080fd5b61226388828901611e7d565b969995985093965092949392505050565b60008060006060848603121561228957600080fd5b505081359360208301359350604090920135919050565b6000806000606084860312156122b557600080fd5b83356122c081611da8565b925060208401356122d081611da8565b929592945050506040919091013590565b600082601f8301126122f257600080fd5b81356123006120908261204e565b8082825260208201915060208360051b86010192508583111561232257600080fd5b602085015b838110156120d45780356001600160401b0381111561234557600080fd5b612354886020838a0101611e0e565b84525060209283019201612327565b60008060008060008060a0878903121561237c57600080fd5b61238587611d8f565b955060208701356001600160401b038111156123a057600080fd5b6123ac89828a01611e0e565b95505060408701356001600160401b038111156123c857600080fd5b6123d489828a016122e1565b94505060608701356001600160401b038111156123f057600080fd5b6123fc89828a01611e0e565b93505060808701356001600160401b0381111561241857600080fd5b61242489828a01611e7d565b979a9699509497509295939492505050565b60006020828403121561244857600080fd5b813561245381611da8565b9392505050565b60008060008060008060a0878903121561247357600080fd5b61247c87611d8f565b9550602087013561248c81611da8565b945060408701356001600160401b038111156124a757600080fd5b6124b389828a01611e0e565b94505060608701356001600160401b038111156124cf57600080fd5b6123fc89828a01612071565b60008060008060a085870312156124f157600080fd5b6124fb8686611f8a565b935060608501356001600160401b0381111561251657600080fd5b61252287828801611e7d565b909450925050608085013561253681611da8565b939692955090935050565b60008060006060848603121561255657600080fd5b8335925060208401359150604084013561256f81611da8565b809150509250925092565b60008060008060006080868803121561259257600080fd5b61259b86611d8f565b945060208601356125ab81611da8565b93506040860135925060608601356001600160401b0381111561225757600080fd5b6000602082840312156125df57600080fd5b61245382611d8f565b600080600080600080600060c0888a03121561260357600080fd5b61260c88611d8f565b965061261a60208901611dbd565b955060408801356001600160401b0381111561263557600080fd5b6126418a828b01611e0e565b95505060608801356001600160401b0381111561265d57600080fd5b611f278a828b016122e1565b6000806040838503121561267c57600080fd5b50508035926020909101359150565b600080600080600080600060c0888a0312156126a657600080fd5b6126af88611d8f565b965060208801356126bf81611da8565b95506040880135945060608801356126d681611da8565b9350608088013560ff811681146126ec57600080fd5b925060a08801356001600160401b03811115611f6b57600080fd5b60006060828403121561271957600080fd5b6124538383611f8a565b6000815180845260005b818110156127495760208185018101518683018201520161272d565b506000602082860101526020601f19601f83011685010191505092915050565b60a08152600b60a08201526a5355424d49545f574f524b60a81b60c082015260018060a01b038516602082015283604082015260e0606082015260006127b260e0830185612723565b8281036080840152610aa48185612723565b60208082526010908201526f496e73756666696369656e742066656560801b604082015260600190565b600081518084526020840193506020830160005b82811015612820578151865260209586019590910190600101612802565b5093949350505050565b60c08152600c60c08201526b20a828262cafaa27afa527a160a11b60e082015260018060a01b038616602082015284604082015261010060608201526000612876610100830186612723565b828103608084015261288881866127ee565b905082810360a0840152610d3e8185612723565b6080815260086080820152672827a9aa2fa527a160c11b60a082015260018060a01b038416602082015260c0604082015260006128dc60c0830185612723565b82810360608401526128ee81856127ee565b9695505050505050565b60006020828403121561290a57600080fd5b8151801515811461245357600080fd5b80820180821115610d8b57634e487b7160e01b600052601160045260246000fd5b60a08152600e60a08201526d4352454154455f50524f46494c4560901b60c082015260018060a01b038516602082015260e06040820152600061298160e0830186612723565b828103606084015280855180835260208301915060208160051b8401016020880160005b838110156129d757601f198684030185526129c1838351612723565b60209586019590935091909101906001016129a5565b505085810360808701526129eb8188612723565b9a9950505050505050505050565b604081526000612a0c6040830185612723565b905060018060a01b03831660208301529392505050565b6040815263ffffffff8351166040820152602083015160608201526000604084015160a06080840152612a5960e0840182612723565b90506060850151603f198483030160a0850152612a768282612723565b60809690960151151560c08501525050506001600160a01b039190911660209091015290565b600060408284031215612aae57600080fd5b604080519081016001600160401b0381118282101715612ad057612ad0611dc8565b604052825181526020928301519281019290925250919050565b600060408284031215612afc57600080fd5b6124538383612a9c565b60006080828403128015612b1957600080fd5b50604051606081016001600160401b0381118282101715612b3c57612b3c611dc8565b6040528251815260208301516001600160401b0381168114612b5d57600080fd5b6020820152612b6f8460408501612a9c565b60408201529392505050565b600060208284031215612b8d57600080fd5b815161245381611da856fea2646970667358221220542f5a0b87ca439049e622979fe68f2a2cf6da99fdd09c91e0f620960701a9ce64736f6c634300081c0033",
			"opcodes": "PUSH1 0xA0 PUSH1 0x40 MSTORE CALLVALUE DUP1 ISZERO PUSH2 0x10 JUMPI PUSH1 0x0 DUP1 REVERT JUMPDEST POP PUSH1 0x40 MLOAD PUSH2 0x2DBD CODESIZE SUB DUP1 PUSH2 0x2DBD DUP4 CODECOPY DUP2 ADD PUSH1 0x40 DUP2 SWAP1 MSTORE PUSH2 0x2F SWAP2 PUSH2 0x177 JUMP JUMPDEST DUP2 DUP2 DUP2 DUP2 CALLER DUP1 PUSH2 0x59 JUMPI PUSH1 0x40 MLOAD PUSH4 0x1E4FBDF7 PUSH1 0xE0 SHL DUP2 MSTORE PUSH1 0x0 PUSH1 0x4 DUP3 ADD MSTORE PUSH1 0x24 ADD PUSH1 0x40 MLOAD DUP1 SWAP2 SUB SWAP1 REVERT JUMPDEST PUSH2 0x62 DUP2 PUSH2 0x10B JUMP JUMPDEST POP PUSH1 0x1 PUSH1 0x1 PUSH1 0xA0 SHL SUB DUP1 DUP4 AND PUSH1 0x80 MSTORE DUP2 AND PUSH2 0x90 JUMPI PUSH1 0x40 MLOAD PUSH4 0x2D618D81 PUSH1 0xE2 SHL DUP2 MSTORE PUSH1 0x4 ADD PUSH1 0x40 MLOAD DUP1 SWAP2 SUB SWAP1 REVERT JUMPDEST PUSH1 0x80 MLOAD PUSH1 0x40 MLOAD PUSH4 0xCA5EB5E1 PUSH1 0xE0 SHL DUP2 MSTORE PUSH1 0x1 PUSH1 0x1 PUSH1 0xA0 SHL SUB DUP4 DUP2 AND PUSH1 0x4 DUP4 ADD MSTORE SWAP1 SWAP2 AND SWAP1 PUSH4 0xCA5EB5E1 SWAP1 PUSH1 0x24 ADD PUSH1 0x0 PUSH1 0x40 MLOAD DUP1 DUP4 SUB DUP2 PUSH1 0x0 DUP8 DUP1 EXTCODESIZE ISZERO DUP1 ISZERO PUSH2 0xD7 JUMPI PUSH1 0x0 DUP1 REVERT JUMPDEST POP GAS CALL ISZERO DUP1 ISZERO PUSH2 0xEB JUMPI RETURNDATASIZE PUSH1 0x0 DUP1 RETURNDATACOPY RETURNDATASIZE PUSH1 0x0 REVERT JUMPDEST POP POP PUSH1 0x1 PUSH1 0x2 SSTORE POP PUSH2 0x104 SWAP5 POP DUP6 SWAP4 POP POP PUSH2 0x10B SWAP2 POP POP JUMP JUMPDEST POP POP PUSH2 0x1AA JUMP JUMPDEST PUSH1 0x0 DUP1 SLOAD PUSH1 0x1 PUSH1 0x1 PUSH1 0xA0 SHL SUB DUP4 DUP2 AND PUSH1 0x1 PUSH1 0x1 PUSH1 0xA0 SHL SUB NOT DUP4 AND DUP2 OR DUP5 SSTORE PUSH1 0x40 MLOAD SWAP2 SWAP1 SWAP3 AND SWAP3 DUP4 SWAP2 PUSH32 0x8BE0079C531659141344CD1FD0A4F28419497F9722A3DAAFE3B4186F6B6457E0 SWAP2 SWAP1 LOG3 POP POP JUMP JUMPDEST DUP1 MLOAD PUSH1 0x1 PUSH1 0x1 PUSH1 0xA0 SHL SUB DUP2 AND DUP2 EQ PUSH2 0x172 JUMPI PUSH1 0x0 DUP1 REVERT JUMPDEST SWAP2 SWAP1 POP JUMP JUMPDEST PUSH1 0x0 DUP1 PUSH1 0x40 DUP4 DUP6 SUB SLT ISZERO PUSH2 0x18A JUMPI PUSH1 0x0 DUP1 REVERT JUMPDEST PUSH2 0x193 DUP4 PUSH2 0x15B JUMP JUMPDEST SWAP2 POP PUSH2 0x1A1 PUSH1 0x20 DUP5 ADD PUSH2 0x15B JUMP JUMPDEST SWAP1 POP SWAP3 POP SWAP3 SWAP1 POP JUMP JUMPDEST PUSH1 0x80 MLOAD PUSH2 0x2BCE PUSH2 0x1EF PUSH1 0x0 CODECOPY PUSH1 0x0 DUP2 DUP2 PUSH2 0x361 ADD MSTORE DUP2 DUP2 PUSH2 0x7BC ADD MSTORE DUP2 DUP2 PUSH2 0x139A ADD MSTORE DUP2 DUP2 PUSH2 0x1892 ADD MSTORE DUP2 DUP2 PUSH2 0x1990 ADD MSTORE DUP2 DUP2 PUSH2 0x1B97 ADD MSTORE PUSH2 0x1C4E ADD MSTORE PUSH2 0x2BCE PUSH1 0x0 RETURN INVALID PUSH1 0x80 PUSH1 0x40 MSTORE PUSH1 0x4 CALLDATASIZE LT PUSH2 0x1C6 JUMPI PUSH1 0x0 CALLDATALOAD PUSH1 0xE0 SHR DUP1 PUSH4 0x715018A6 GT PUSH2 0xF7 JUMPI DUP1 PUSH4 0xBB0B6A53 GT PUSH2 0x95 JUMPI DUP1 PUSH4 0xDBFAE8D7 GT PUSH2 0x64 JUMPI DUP1 PUSH4 0xDBFAE8D7 EQ PUSH2 0x580 JUMPI DUP1 PUSH4 0xF2FDE38B EQ PUSH2 0x5B0 JUMPI DUP1 PUSH4 0xFE4488F6 EQ PUSH2 0x5D0 JUMPI DUP1 PUSH4 0xFF7BD03D EQ PUSH2 0x5E3 JUMPI PUSH1 0x0 DUP1 REVERT JUMPDEST DUP1 PUSH4 0xBB0B6A53 EQ PUSH2 0x4D3 JUMPI DUP1 PUSH4 0xCA5EB5E1 EQ PUSH2 0x500 JUMPI DUP1 PUSH4 0xCE997833 EQ PUSH2 0x520 JUMPI DUP1 PUSH4 0xDB91825C EQ PUSH2 0x533 JUMPI PUSH1 0x0 DUP1 REVERT JUMPDEST DUP1 PUSH4 0x82413EAC GT PUSH2 0xD1 JUMPI DUP1 PUSH4 0x82413EAC EQ PUSH2 0x443 JUMPI DUP1 PUSH4 0x891669E2 EQ PUSH2 0x482 JUMPI DUP1 PUSH4 0x8DA5CB5B EQ PUSH2 0x4A2 JUMPI DUP1 PUSH4 0x9EB3F711 EQ PUSH2 0x4C0 JUMPI PUSH1 0x0 DUP1 REVERT JUMPDEST DUP1 PUSH4 0x715018A6 EQ PUSH2 0x3E3 JUMPI DUP1 PUSH4 0x7D25A05E EQ PUSH2 0x3F8 JUMPI DUP1 PUSH4 0x7F6C884A EQ PUSH2 0x430 JUMPI PUSH1 0x0 DUP1 REVERT JUMPDEST DUP1 PUSH4 0x3E99EB2E GT PUSH2 0x164 JUMPI DUP1 PUSH4 0x5E280F11 GT PUSH2 0x13E JUMPI DUP1 PUSH4 0x5E280F11 EQ PUSH2 0x34F JUMPI DUP1 PUSH4 0x5F3E849F EQ PUSH2 0x383 JUMPI DUP1 PUSH4 0x682D54E6 EQ PUSH2 0x3A3 JUMPI DUP1 PUSH4 0x6A326AB1 EQ PUSH2 0x3C3 JUMPI PUSH1 0x0 DUP1 REVERT JUMPDEST DUP1 PUSH4 0x3E99EB2E EQ PUSH2 0x2E1 JUMPI DUP1 PUSH4 0x5463F8E1 EQ PUSH2 0x2F4 JUMPI DUP1 PUSH4 0x5C6900F7 EQ PUSH2 0x32F JUMPI PUSH1 0x0 DUP1 REVERT JUMPDEST DUP1 PUSH4 0x17442B70 GT PUSH2 0x1A0 JUMPI DUP1 PUSH4 0x17442B70 EQ PUSH2 0x23A JUMPI DUP1 PUSH4 0x3013CE29 EQ PUSH2 0x25C JUMPI DUP1 PUSH4 0x3400288B EQ PUSH2 0x294 JUMPI DUP1 PUSH4 0x3561C340 EQ PUSH2 0x2B4 JUMPI PUSH1 0x0 DUP1 REVERT JUMPDEST DUP1 PUSH4 0xC4F321F EQ PUSH2 0x1D2 JUMPI DUP1 PUSH4 0xD82DDC3 EQ PUSH2 0x212 JUMPI DUP1 PUSH4 0x13137D65 EQ PUSH2 0x227 JUMPI PUSH1 0x0 DUP1 REVERT JUMPDEST CALLDATASIZE PUSH2 0x1CD JUMPI STOP JUMPDEST PUSH1 0x0 DUP1 REVERT JUMPDEST CALLVALUE DUP1 ISZERO PUSH2 0x1DE JUMPI PUSH1 0x0 DUP1 REVERT JUMPDEST POP PUSH2 0x1FF PUSH2 0x1ED CALLDATASIZE PUSH1 0x4 PUSH2 0x1D76 JUMP JUMPDEST PUSH1 0x4 PUSH1 0x20 MSTORE PUSH1 0x0 SWAP1 DUP2 MSTORE PUSH1 0x40 SWAP1 KECCAK256 SLOAD DUP2 JUMP JUMPDEST PUSH1 0x40 MLOAD SWAP1 DUP2 MSTORE PUSH1 0x20 ADD JUMPDEST PUSH1 0x40 MLOAD DUP1 SWAP2 SUB SWAP1 RETURN JUMPDEST PUSH2 0x225 PUSH2 0x220 CALLDATASIZE PUSH1 0x4 PUSH2 0x1EC5 JUMP JUMPDEST PUSH2 0x603 JUMP JUMPDEST STOP JUMPDEST PUSH2 0x225 PUSH2 0x235 CALLDATASIZE PUSH1 0x4 PUSH2 0x1FA2 JUMP JUMPDEST PUSH2 0x7BA JUMP JUMPDEST CALLVALUE DUP1 ISZERO PUSH2 0x246 JUMPI PUSH1 0x0 DUP1 REVERT JUMPDEST POP PUSH1 0x40 DUP1 MLOAD PUSH1 0x1 DUP2 MSTORE PUSH1 0x2 PUSH1 0x20 DUP3 ADD MSTORE ADD PUSH2 0x209 JUMP JUMPDEST CALLVALUE DUP1 ISZERO PUSH2 0x268 JUMPI PUSH1 0x0 DUP1 REVERT JUMPDEST POP PUSH1 0x3 SLOAD PUSH2 0x27C SWAP1 PUSH1 0x1 PUSH1 0x1 PUSH1 0xA0 SHL SUB AND DUP2 JUMP JUMPDEST PUSH1 0x40 MLOAD PUSH1 0x1 PUSH1 0x1 PUSH1 0xA0 SHL SUB SWAP1 SWAP2 AND DUP2 MSTORE PUSH1 0x20 ADD PUSH2 0x209 JUMP JUMPDEST CALLVALUE DUP1 ISZERO PUSH2 0x2A0 JUMPI PUSH1 0x0 DUP1 REVERT JUMPDEST POP PUSH2 0x225 PUSH2 0x2AF CALLDATASIZE PUSH1 0x4 PUSH2 0x2024 JUMP JUMPDEST PUSH2 0x862 JUMP JUMPDEST CALLVALUE DUP1 ISZERO PUSH2 0x2C0 JUMPI PUSH1 0x0 DUP1 REVERT JUMPDEST POP PUSH2 0x1FF PUSH2 0x2CF CALLDATASIZE PUSH1 0x4 PUSH2 0x1D76 JUMP JUMPDEST PUSH1 0x0 SWAP1 DUP2 MSTORE PUSH1 0x4 PUSH1 0x20 MSTORE PUSH1 0x40 SWAP1 KECCAK256 SLOAD SWAP1 JUMP JUMPDEST PUSH2 0x225 PUSH2 0x2EF CALLDATASIZE PUSH1 0x4 PUSH2 0x20DE JUMP JUMPDEST PUSH2 0x878 JUMP JUMPDEST CALLVALUE DUP1 ISZERO PUSH2 0x300 JUMPI PUSH1 0x0 DUP1 REVERT JUMPDEST POP PUSH2 0x314 PUSH2 0x30F CALLDATASIZE PUSH1 0x4 PUSH2 0x21CB JUMP JUMPDEST PUSH2 0xA2C JUMP JUMPDEST PUSH1 0x40 DUP1 MLOAD DUP3 MLOAD DUP2 MSTORE PUSH1 0x20 SWAP3 DUP4 ADD MLOAD SWAP3 DUP2 ADD SWAP3 SWAP1 SWAP3 MSTORE ADD PUSH2 0x209 JUMP JUMPDEST CALLVALUE DUP1 ISZERO PUSH2 0x33B JUMPI PUSH1 0x0 DUP1 REVERT JUMPDEST POP PUSH2 0x225 PUSH2 0x34A CALLDATASIZE PUSH1 0x4 PUSH2 0x2274 JUMP JUMPDEST PUSH2 0xAAF JUMP JUMPDEST CALLVALUE DUP1 ISZERO PUSH2 0x35B JUMPI PUSH1 0x0 DUP1 REVERT JUMPDEST POP PUSH2 0x27C PUSH32 0x0 DUP2 JUMP JUMPDEST CALLVALUE DUP1 ISZERO PUSH2 0x38F JUMPI PUSH1 0x0 DUP1 REVERT JUMPDEST POP PUSH2 0x225 PUSH2 0x39E CALLDATASIZE PUSH1 0x4 PUSH2 0x22A0 JUMP JUMPDEST PUSH2 0xC43 JUMP JUMPDEST CALLVALUE DUP1 ISZERO PUSH2 0x3AF JUMPI PUSH1 0x0 DUP1 REVERT JUMPDEST POP PUSH2 0x314 PUSH2 0x3BE CALLDATASIZE PUSH1 0x4 PUSH2 0x2363 JUMP JUMPDEST PUSH2 0xCC4 JUMP JUMPDEST CALLVALUE DUP1 ISZERO PUSH2 0x3CF JUMPI PUSH1 0x0 DUP1 REVERT JUMPDEST POP PUSH2 0x225 PUSH2 0x3DE CALLDATASIZE PUSH1 0x4 PUSH2 0x2436 JUMP JUMPDEST PUSH2 0xD4A JUMP JUMPDEST CALLVALUE DUP1 ISZERO PUSH2 0x3EF JUMPI PUSH1 0x0 DUP1 REVERT JUMPDEST POP PUSH2 0x225 PUSH2 0xD74 JUMP JUMPDEST CALLVALUE DUP1 ISZERO PUSH2 0x404 JUMPI PUSH1 0x0 DUP1 REVERT JUMPDEST POP PUSH2 0x418 PUSH2 0x413 CALLDATASIZE PUSH1 0x4 PUSH2 0x2024 JUMP JUMPDEST PUSH2 0xD88 JUMP JUMPDEST PUSH1 0x40 MLOAD PUSH1 0x1 PUSH1 0x1 PUSH1 0x40 SHL SUB SWAP1 SWAP2 AND DUP2 MSTORE PUSH1 0x20 ADD PUSH2 0x209 JUMP JUMPDEST PUSH2 0x225 PUSH2 0x43E CALLDATASIZE PUSH1 0x4 PUSH2 0x245A JUMP JUMPDEST PUSH2 0xD91 JUMP JUMPDEST CALLVALUE DUP1 ISZERO PUSH2 0x44F JUMPI PUSH1 0x0 DUP1 REVERT JUMPDEST POP PUSH2 0x472 PUSH2 0x45E CALLDATASIZE PUSH1 0x4 PUSH2 0x24DB JUMP JUMPDEST PUSH1 0x1 PUSH1 0x1 PUSH1 0xA0 SHL SUB DUP2 AND ADDRESS EQ SWAP5 SWAP4 POP POP POP POP JUMP JUMPDEST PUSH1 0x40 MLOAD SWAP1 ISZERO ISZERO DUP2 MSTORE PUSH1 0x20 ADD PUSH2 0x209 JUMP JUMPDEST CALLVALUE DUP1 ISZERO PUSH2 0x48E JUMPI PUSH1 0x0 DUP1 REVERT JUMPDEST POP PUSH2 0x1FF PUSH2 0x49D CALLDATASIZE PUSH1 0x4 PUSH2 0x2541 JUMP JUMPDEST PUSH2 0xF87 JUMP JUMPDEST CALLVALUE DUP1 ISZERO PUSH2 0x4AE JUMPI PUSH1 0x0 DUP1 REVERT JUMPDEST POP PUSH1 0x0 SLOAD PUSH1 0x1 PUSH1 0x1 PUSH1 0xA0 SHL SUB AND PUSH2 0x27C JUMP JUMPDEST PUSH2 0x225 PUSH2 0x4CE CALLDATASIZE PUSH1 0x4 PUSH2 0x257A JUMP JUMPDEST PUSH2 0x11F3 JUMP JUMPDEST CALLVALUE DUP1 ISZERO PUSH2 0x4DF JUMPI PUSH1 0x0 DUP1 REVERT JUMPDEST POP PUSH2 0x1FF PUSH2 0x4EE CALLDATASIZE PUSH1 0x4 PUSH2 0x25CD JUMP JUMPDEST PUSH1 0x1 PUSH1 0x20 MSTORE PUSH1 0x0 SWAP1 DUP2 MSTORE PUSH1 0x40 SWAP1 KECCAK256 SLOAD DUP2 JUMP JUMPDEST CALLVALUE DUP1 ISZERO PUSH2 0x50C JUMPI PUSH1 0x0 DUP1 REVERT JUMPDEST POP PUSH2 0x225 PUSH2 0x51B CALLDATASIZE PUSH1 0x4 PUSH2 0x2436 JUMP JUMPDEST PUSH2 0x1373 JUMP JUMPDEST PUSH2 0x225 PUSH2 0x52E CALLDATASIZE PUSH1 0x4 PUSH2 0x25E8 JUMP JUMPDEST PUSH2 0x13F2 JUMP JUMPDEST CALLVALUE DUP1 ISZERO PUSH2 0x53F JUMPI PUSH1 0x0 DUP1 REVERT JUMPDEST POP PUSH2 0x56E PUSH2 0x54E CALLDATASIZE PUSH1 0x4 PUSH2 0x2669 JUMP JUMPDEST PUSH1 0x6 PUSH1 0x20 SWAP1 DUP2 MSTORE PUSH1 0x0 SWAP3 DUP4 MSTORE PUSH1 0x40 DUP1 DUP5 KECCAK256 SWAP1 SWAP2 MSTORE SWAP1 DUP3 MSTORE SWAP1 KECCAK256 SLOAD PUSH1 0xFF AND DUP2 JUMP JUMPDEST PUSH1 0x40 MLOAD PUSH1 0xFF SWAP1 SWAP2 AND DUP2 MSTORE PUSH1 0x20 ADD PUSH2 0x209 JUMP JUMPDEST CALLVALUE DUP1 ISZERO PUSH2 0x58C JUMPI PUSH1 0x0 DUP1 REVERT JUMPDEST POP PUSH2 0x56E PUSH2 0x59B CALLDATASIZE PUSH1 0x4 PUSH2 0x1D76 JUMP JUMPDEST PUSH1 0x5 PUSH1 0x20 MSTORE PUSH1 0x0 SWAP1 DUP2 MSTORE PUSH1 0x40 SWAP1 KECCAK256 SLOAD PUSH1 0xFF AND DUP2 JUMP JUMPDEST CALLVALUE DUP1 ISZERO PUSH2 0x5BC JUMPI PUSH1 0x0 DUP1 REVERT JUMPDEST POP PUSH2 0x225 PUSH2 0x5CB CALLDATASIZE PUSH1 0x4 PUSH2 0x2436 JUMP JUMPDEST PUSH2 0x15C6 JUMP JUMPDEST PUSH2 0x225 PUSH2 0x5DE CALLDATASIZE PUSH1 0x4 PUSH2 0x268B JUMP JUMPDEST PUSH2 0x1604 JUMP JUMPDEST CALLVALUE DUP1 ISZERO PUSH2 0x5EF JUMPI PUSH1 0x0 DUP1 REVERT JUMPDEST POP PUSH2 0x472 PUSH2 0x5FE CALLDATASIZE PUSH1 0x4 PUSH2 0x2707 JUMP JUMPDEST PUSH2 0x17EF JUMP JUMPDEST PUSH2 0x60B PUSH2 0x1825 JUMP JUMPDEST PUSH1 0x0 DUP5 MLOAD GT PUSH2 0x661 JUMPI PUSH1 0x40 MLOAD PUSH3 0x461BCD PUSH1 0xE5 SHL DUP2 MSTORE PUSH1 0x20 PUSH1 0x4 DUP3 ADD MSTORE PUSH1 0x19 PUSH1 0x24 DUP3 ADD MSTORE PUSH32 0x576F726B20686173682063616E6E6F7420626520656D70747900000000000000 PUSH1 0x44 DUP3 ADD MSTORE PUSH1 0x64 ADD JUMPDEST PUSH1 0x40 MLOAD DUP1 SWAP2 SUB SWAP1 REVERT JUMPDEST PUSH2 0x674 DUP8 PUSH1 0x1 PUSH1 0x1 PUSH1 0xA0 SHL SUB DUP9 AND PUSH2 0x862 JUMP JUMPDEST PUSH1 0x0 CALLER DUP7 DUP7 DUP7 PUSH1 0x40 MLOAD PUSH1 0x20 ADD PUSH2 0x68D SWAP5 SWAP4 SWAP3 SWAP2 SWAP1 PUSH2 0x2769 JUMP JUMPDEST PUSH1 0x40 DUP1 MLOAD PUSH1 0x1F NOT DUP2 DUP5 SUB ADD DUP2 MSTORE PUSH1 0x20 PUSH1 0x1F DUP7 ADD DUP2 SWAP1 DIV DUP2 MUL DUP5 ADD DUP2 ADD SWAP1 SWAP3 MSTORE DUP5 DUP4 MSTORE SWAP3 POP PUSH1 0x0 SWAP2 PUSH2 0x6DC SWAP2 DUP12 SWAP2 DUP6 SWAP2 DUP9 SWAP1 DUP9 SWAP1 DUP2 SWAP1 DUP5 ADD DUP4 DUP3 DUP1 DUP3 DUP5 CALLDATACOPY PUSH1 0x0 SWAP3 ADD DUP3 SWAP1 MSTORE POP SWAP3 POP PUSH2 0x187C SWAP2 POP POP JUMP JUMPDEST DUP1 MLOAD SWAP1 SWAP2 POP CALLVALUE LT ISZERO PUSH2 0x700 JUMPI PUSH1 0x40 MLOAD PUSH3 0x461BCD PUSH1 0xE5 SHL DUP2 MSTORE PUSH1 0x4 ADD PUSH2 0x658 SWAP1 PUSH2 0x27C4 JUMP JUMPDEST PUSH2 0x758 DUP10 DUP4 DUP7 DUP7 DUP1 DUP1 PUSH1 0x1F ADD PUSH1 0x20 DUP1 SWAP2 DIV MUL PUSH1 0x20 ADD PUSH1 0x40 MLOAD SWAP1 DUP2 ADD PUSH1 0x40 MSTORE DUP1 SWAP4 SWAP3 SWAP2 SWAP1 DUP2 DUP2 MSTORE PUSH1 0x20 ADD DUP4 DUP4 DUP1 DUP3 DUP5 CALLDATACOPY PUSH1 0x0 SWAP3 ADD DUP3 SWAP1 MSTORE POP PUSH1 0x40 DUP1 MLOAD DUP1 DUP3 ADD SWAP1 SWAP2 MSTORE CALLVALUE DUP2 MSTORE PUSH1 0x20 DUP2 ADD SWAP2 SWAP1 SWAP2 MSTORE SWAP3 POP CALLER SWAP2 POP PUSH2 0x195D SWAP1 POP JUMP JUMPDEST POP PUSH1 0x40 DUP1 MLOAD CALLER DUP2 MSTORE PUSH1 0x1 PUSH1 0x1 PUSH1 0xA0 SHL SUB DUP11 AND PUSH1 0x20 DUP3 ADD MSTORE DUP9 SWAP2 PUSH4 0xFFFFFFFF DUP13 AND SWAP2 PUSH32 0x8AF9A2F23CE315A83A333EB75C1D69F56B32C7C90D56B9BD88CBB38DE4EA8F58 SWAP2 ADD JUMPDEST PUSH1 0x40 MLOAD DUP1 SWAP2 SUB SWAP1 LOG3 POP POP PUSH2 0x7B1 PUSH1 0x1 PUSH1 0x2 SSTORE JUMP JUMPDEST POP POP POP POP POP POP POP JUMP JUMPDEST PUSH32 0x0 PUSH1 0x1 PUSH1 0x1 PUSH1 0xA0 SHL SUB AND CALLER EQ PUSH2 0x805 JUMPI PUSH1 0x40 MLOAD PUSH4 0x91AC5E4F PUSH1 0xE0 SHL DUP2 MSTORE CALLER PUSH1 0x4 DUP3 ADD MSTORE PUSH1 0x24 ADD PUSH2 0x658 JUMP JUMPDEST PUSH1 0x20 DUP8 ADD DUP1 CALLDATALOAD SWAP1 PUSH2 0x81F SWAP1 PUSH2 0x81A SWAP1 DUP11 PUSH2 0x25CD JUMP JUMPDEST PUSH2 0x1A5D JUMP JUMPDEST EQ PUSH2 0x85D JUMPI PUSH2 0x831 PUSH1 0x20 DUP9 ADD DUP9 PUSH2 0x25CD JUMP JUMPDEST PUSH1 0x40 MLOAD PUSH4 0x309AFAF3 PUSH1 0xE2 SHL DUP2 MSTORE PUSH4 0xFFFFFFFF SWAP1 SWAP2 AND PUSH1 0x4 DUP3 ADD MSTORE PUSH1 0x20 DUP9 ADD CALLDATALOAD PUSH1 0x24 DUP3 ADD MSTORE PUSH1 0x44 ADD PUSH2 0x658 JUMP JUMPDEST PUSH2 0x7B1 JUMP JUMPDEST PUSH2 0x86A PUSH2 0x1A99 JUMP JUMPDEST PUSH2 0x874 DUP3 DUP3 PUSH2 0x1AC6 JUMP JUMPDEST POP POP JUMP JUMPDEST PUSH2 0x880 PUSH2 0x1825 JUMP JUMPDEST PUSH1 0x0 DUP6 MLOAD GT PUSH2 0x8D1 JUMPI PUSH1 0x40 MLOAD PUSH3 0x461BCD PUSH1 0xE5 SHL DUP2 MSTORE PUSH1 0x20 PUSH1 0x4 DUP3 ADD DUP2 SWAP1 MSTORE PUSH1 0x24 DUP3 ADD MSTORE PUSH32 0x4170706C69636174696F6E20686173682063616E6E6F7420626520656D707479 PUSH1 0x44 DUP3 ADD MSTORE PUSH1 0x64 ADD PUSH2 0x658 JUMP JUMPDEST PUSH2 0x8E4 DUP9 PUSH1 0x1 PUSH1 0x1 PUSH1 0xA0 SHL SUB DUP10 AND PUSH2 0x862 JUMP JUMPDEST PUSH1 0x0 CALLER DUP8 DUP8 DUP8 DUP8 PUSH1 0x40 MLOAD PUSH1 0x20 ADD PUSH2 0x8FF SWAP6 SWAP5 SWAP4 SWAP3 SWAP2 SWAP1 PUSH2 0x282A JUMP JUMPDEST PUSH1 0x40 DUP1 MLOAD PUSH1 0x1F NOT DUP2 DUP5 SUB ADD DUP2 MSTORE PUSH1 0x20 PUSH1 0x1F DUP7 ADD DUP2 SWAP1 DIV DUP2 MUL DUP5 ADD DUP2 ADD SWAP1 SWAP3 MSTORE DUP5 DUP4 MSTORE SWAP3 POP PUSH1 0x0 SWAP2 PUSH2 0x94E SWAP2 DUP13 SWAP2 DUP6 SWAP2 DUP9 SWAP1 DUP9 SWAP1 DUP2 SWAP1 DUP5 ADD DUP4 DUP3 DUP1 DUP3 DUP5 CALLDATACOPY PUSH1 0x0 SWAP3 ADD DUP3 SWAP1 MSTORE POP SWAP3 POP PUSH2 0x187C SWAP2 POP POP JUMP JUMPDEST DUP1 MLOAD SWAP1 SWAP2 POP CALLVALUE LT ISZERO PUSH2 0x972 JUMPI PUSH1 0x40 MLOAD PUSH3 0x461BCD PUSH1 0xE5 SHL DUP2 MSTORE PUSH1 0x4 ADD PUSH2 0x658 SWAP1 PUSH2 0x27C4 JUMP JUMPDEST PUSH2 0x9CA DUP11 DUP4 DUP7 DUP7 DUP1 DUP1 PUSH1 0x1F ADD PUSH1 0x20 DUP1 SWAP2 DIV MUL PUSH1 0x20 ADD PUSH1 0x40 MLOAD SWAP1 DUP2 ADD PUSH1 0x40 MSTORE DUP1 SWAP4 SWAP3 SWAP2 SWAP1 DUP2 DUP2 MSTORE PUSH1 0x20 ADD DUP4 DUP4 DUP1 DUP3 DUP5 CALLDATACOPY PUSH1 0x0 SWAP3 ADD DUP3 SWAP1 MSTORE POP PUSH1 0x40 DUP1 MLOAD DUP1 DUP3 ADD SWAP1 SWAP2 MSTORE CALLVALUE DUP2 MSTORE PUSH1 0x20 DUP2 ADD SWAP2 SWAP1 SWAP2 MSTORE SWAP3 POP CALLER SWAP2 POP PUSH2 0x195D SWAP1 POP JUMP JUMPDEST POP PUSH1 0x40 DUP1 MLOAD CALLER DUP2 MSTORE PUSH1 0x1 PUSH1 0x1 PUSH1 0xA0 SHL SUB DUP12 AND PUSH1 0x20 DUP3 ADD MSTORE DUP10 SWAP2 PUSH4 0xFFFFFFFF DUP14 AND SWAP2 PUSH32 0x8D4041C6BF1A6B1E3CD7EB349DAC72E6A16C3378D238E19C5B16CE2CC6449E31 SWAP2 ADD PUSH1 0x40 MLOAD DUP1 SWAP2 SUB SWAP1 LOG3 POP POP PUSH2 0xA22 PUSH1 0x1 PUSH1 0x2 SSTORE JUMP JUMPDEST POP POP POP POP POP POP POP POP JUMP JUMPDEST PUSH1 0x40 DUP1 MLOAD DUP1 DUP3 ADD SWAP1 SWAP2 MSTORE PUSH1 0x0 DUP1 DUP3 MSTORE PUSH1 0x20 DUP3 ADD MSTORE PUSH1 0x0 CALLER DUP7 DUP7 PUSH1 0x40 MLOAD PUSH1 0x20 ADD PUSH2 0xA57 SWAP4 SWAP3 SWAP2 SWAP1 PUSH2 0x289C JUMP JUMPDEST PUSH1 0x40 DUP1 MLOAD PUSH1 0x1F NOT DUP2 DUP5 SUB ADD DUP2 MSTORE PUSH1 0x20 PUSH1 0x1F DUP8 ADD DUP2 SWAP1 DIV DUP2 MUL DUP5 ADD DUP2 ADD SWAP1 SWAP3 MSTORE DUP6 DUP4 MSTORE SWAP3 POP PUSH2 0xAA4 SWAP2 DUP10 SWAP2 DUP5 SWAP2 SWAP1 DUP9 SWAP1 DUP9 SWAP1 DUP2 SWAP1 DUP5 ADD DUP4 DUP3 DUP1 DUP3 DUP5 CALLDATACOPY PUSH1 0x0 SWAP3 ADD DUP3 SWAP1 MSTORE POP SWAP3 POP PUSH2 0x187C SWAP2 POP POP JUMP JUMPDEST SWAP8 SWAP7 POP POP POP POP POP POP POP JUMP JUMPDEST PUSH1 0x3 SLOAD PUSH1 0x1 PUSH1 0x1 PUSH1 0xA0 SHL SUB AND PUSH2 0xAFF JUMPI PUSH1 0x40 MLOAD PUSH3 0x461BCD PUSH1 0xE5 SHL DUP2 MSTORE PUSH1 0x20 PUSH1 0x4 DUP3 ADD MSTORE PUSH1 0x15 PUSH1 0x24 DUP3 ADD MSTORE PUSH21 0x14185E5B595B9D081D1BDAD95B881B9BDD081CD95D PUSH1 0x5A SHL PUSH1 0x44 DUP3 ADD MSTORE PUSH1 0x64 ADD PUSH2 0x658 JUMP JUMPDEST PUSH1 0x3 SLOAD PUSH1 0x40 MLOAD PUSH4 0x23B872DD PUSH1 0xE0 SHL DUP2 MSTORE CALLER PUSH1 0x4 DUP3 ADD MSTORE ADDRESS PUSH1 0x24 DUP3 ADD MSTORE PUSH1 0x44 DUP2 ADD DUP4 SWAP1 MSTORE PUSH1 0x1 PUSH1 0x1 PUSH1 0xA0 SHL SUB SWAP1 SWAP2 AND SWAP1 PUSH4 0x23B872DD SWAP1 PUSH1 0x64 ADD PUSH1 0x20 PUSH1 0x40 MLOAD DUP1 DUP4 SUB DUP2 PUSH1 0x0 DUP8 GAS CALL ISZERO DUP1 ISZERO PUSH2 0xB56 JUMPI RETURNDATASIZE PUSH1 0x0 DUP1 RETURNDATACOPY RETURNDATASIZE PUSH1 0x0 REVERT JUMPDEST POP POP POP POP PUSH1 0x40 MLOAD RETURNDATASIZE PUSH1 0x1F NOT PUSH1 0x1F DUP3 ADD AND DUP3 ADD DUP1 PUSH1 0x40 MSTORE POP DUP2 ADD SWAP1 PUSH2 0xB7A SWAP2 SWAP1 PUSH2 0x28F8 JUMP JUMPDEST PUSH2 0xBBE JUMPI PUSH1 0x40 MLOAD PUSH3 0x461BCD PUSH1 0xE5 SHL DUP2 MSTORE PUSH1 0x20 PUSH1 0x4 DUP3 ADD MSTORE PUSH1 0x15 PUSH1 0x24 DUP3 ADD MSTORE PUSH21 0x151BDAD95B881D1C985B9CD9995C8819985A5B1959 PUSH1 0x5A SHL PUSH1 0x44 DUP3 ADD MSTORE PUSH1 0x64 ADD PUSH2 0x658 JUMP JUMPDEST PUSH1 0x0 DUP4 DUP2 MSTORE PUSH1 0x4 PUSH1 0x20 MSTORE PUSH1 0x40 DUP2 KECCAK256 DUP1 SLOAD DUP4 SWAP3 SWAP1 PUSH2 0xBDC SWAP1 DUP5 SWAP1 PUSH2 0x291A JUMP JUMPDEST SWAP1 SWAP2 SSTORE POP POP PUSH1 0x0 DUP4 DUP2 MSTORE PUSH1 0x6 PUSH1 0x20 SWAP1 DUP2 MSTORE PUSH1 0x40 DUP1 DUP4 KECCAK256 DUP6 DUP5 MSTORE DUP3 MSTORE SWAP2 DUP3 SWAP1 KECCAK256 DUP1 SLOAD PUSH1 0xFF NOT AND PUSH1 0x1 OR SWAP1 SSTORE DUP2 MLOAD DUP5 DUP2 MSTORE SWAP1 DUP2 ADD DUP4 SWAP1 MSTORE DUP5 SWAP2 PUSH32 0xA1CE508BCF5D7AD71CFA6AABC22B22D37808E77AD159508A05EF1A8CF1C0D945 SWAP2 ADD PUSH1 0x40 MLOAD DUP1 SWAP2 SUB SWAP1 LOG2 POP POP POP JUMP JUMPDEST PUSH2 0xC4B PUSH2 0x1A99 JUMP JUMPDEST PUSH1 0x40 MLOAD PUSH4 0xA9059CBB PUSH1 0xE0 SHL DUP2 MSTORE PUSH1 0x1 PUSH1 0x1 PUSH1 0xA0 SHL SUB DUP4 DUP2 AND PUSH1 0x4 DUP4 ADD MSTORE PUSH1 0x24 DUP3 ADD DUP4 SWAP1 MSTORE DUP5 AND SWAP1 PUSH4 0xA9059CBB SWAP1 PUSH1 0x44 ADD PUSH1 0x20 PUSH1 0x40 MLOAD DUP1 DUP4 SUB DUP2 PUSH1 0x0 DUP8 GAS CALL ISZERO DUP1 ISZERO PUSH2 0xC9A JUMPI RETURNDATASIZE PUSH1 0x0 DUP1 RETURNDATACOPY RETURNDATASIZE PUSH1 0x0 REVERT JUMPDEST POP POP POP POP PUSH1 0x40 MLOAD RETURNDATASIZE PUSH1 0x1F NOT PUSH1 0x1F DUP3 ADD AND DUP3 ADD DUP1 PUSH1 0x40 MSTORE POP DUP2 ADD SWAP1 PUSH2 0xCBE SWAP2 SWAP1 PUSH2 0x28F8 JUMP JUMPDEST POP POP POP POP JUMP JUMPDEST PUSH1 0x40 DUP1 MLOAD DUP1 DUP3 ADD SWAP1 SWAP2 MSTORE PUSH1 0x0 DUP1 DUP3 MSTORE PUSH1 0x20 DUP3 ADD MSTORE PUSH1 0x0 CALLER DUP8 DUP8 DUP8 PUSH1 0x40 MLOAD PUSH1 0x20 ADD PUSH2 0xCF1 SWAP5 SWAP4 SWAP3 SWAP2 SWAP1 PUSH2 0x293B JUMP JUMPDEST PUSH1 0x40 DUP1 MLOAD PUSH1 0x1F NOT DUP2 DUP5 SUB ADD DUP2 MSTORE PUSH1 0x20 PUSH1 0x1F DUP8 ADD DUP2 SWAP1 DIV DUP2 MUL DUP5 ADD DUP2 ADD SWAP1 SWAP3 MSTORE DUP6 DUP4 MSTORE SWAP3 POP PUSH2 0xD3E SWAP2 DUP11 SWAP2 DUP5 SWAP2 SWAP1 DUP9 SWAP1 DUP9 SWAP1 DUP2 SWAP1 DUP5 ADD DUP4 DUP3 DUP1 DUP3 DUP5 CALLDATACOPY PUSH1 0x0 SWAP3 ADD DUP3 SWAP1 MSTORE POP SWAP3 POP PUSH2 0x187C SWAP2 POP POP JUMP JUMPDEST SWAP9 SWAP8 POP POP POP POP POP POP POP POP JUMP JUMPDEST PUSH2 0xD52 PUSH2 0x1A99 JUMP JUMPDEST PUSH1 0x3 DUP1 SLOAD PUSH1 0x1 PUSH1 0x1 PUSH1 0xA0 SHL SUB NOT AND PUSH1 0x1 PUSH1 0x1 PUSH1 0xA0 SHL SUB SWAP3 SWAP1 SWAP3 AND SWAP2 SWAP1 SWAP2 OR SWAP1 SSTORE JUMP JUMPDEST PUSH2 0xD7C PUSH2 0x1A99 JUMP JUMPDEST PUSH2 0xD86 PUSH1 0x0 PUSH2 0x1B1B JUMP JUMPDEST JUMP JUMPDEST PUSH1 0x0 JUMPDEST SWAP3 SWAP2 POP POP JUMP JUMPDEST PUSH2 0xD99 PUSH2 0x1825 JUMP JUMPDEST PUSH1 0x0 DUP5 MLOAD GT PUSH2 0xDEA JUMPI PUSH1 0x40 MLOAD PUSH3 0x461BCD PUSH1 0xE5 SHL DUP2 MSTORE PUSH1 0x20 PUSH1 0x4 DUP3 ADD MSTORE PUSH1 0x1F PUSH1 0x24 DUP3 ADD MSTORE PUSH32 0x4A6F622064657461696C20686173682063616E6E6F7420626520656D70747900 PUSH1 0x44 DUP3 ADD MSTORE PUSH1 0x64 ADD PUSH2 0x658 JUMP JUMPDEST PUSH1 0x0 DUP4 MLOAD GT PUSH2 0xE3B JUMPI PUSH1 0x40 MLOAD PUSH3 0x461BCD PUSH1 0xE5 SHL DUP2 MSTORE PUSH1 0x20 PUSH1 0x4 DUP3 ADD DUP2 SWAP1 MSTORE PUSH1 0x24 DUP3 ADD MSTORE PUSH32 0x4D7573742068617665206174206C65617374206F6E65206D696C6573746F6E65 PUSH1 0x44 DUP3 ADD MSTORE PUSH1 0x64 ADD PUSH2 0x658 JUMP JUMPDEST PUSH2 0xE4E DUP7 PUSH1 0x1 PUSH1 0x1 PUSH1 0xA0 SHL SUB DUP8 AND PUSH2 0x862 JUMP JUMPDEST PUSH1 0x0 CALLER DUP6 DUP6 PUSH1 0x40 MLOAD PUSH1 0x20 ADD PUSH2 0xE65 SWAP4 SWAP3 SWAP2 SWAP1 PUSH2 0x289C JUMP JUMPDEST PUSH1 0x40 DUP1 MLOAD PUSH1 0x1F NOT DUP2 DUP5 SUB ADD DUP2 MSTORE PUSH1 0x20 PUSH1 0x1F DUP7 ADD DUP2 SWAP1 DIV DUP2 MUL DUP5 ADD DUP2 ADD SWAP1 SWAP3 MSTORE DUP5 DUP4 MSTORE SWAP3 POP PUSH1 0x0 SWAP2 PUSH2 0xEB4 SWAP2 DUP11 SWAP2 DUP6 SWAP2 DUP9 SWAP1 DUP9 SWAP1 DUP2 SWAP1 DUP5 ADD DUP4 DUP3 DUP1 DUP3 DUP5 CALLDATACOPY PUSH1 0x0 SWAP3 ADD DUP3 SWAP1 MSTORE POP SWAP3 POP PUSH2 0x187C SWAP2 POP POP JUMP JUMPDEST DUP1 MLOAD SWAP1 SWAP2 POP CALLVALUE LT ISZERO PUSH2 0xED8 JUMPI PUSH1 0x40 MLOAD PUSH3 0x461BCD PUSH1 0xE5 SHL DUP2 MSTORE PUSH1 0x4 ADD PUSH2 0x658 SWAP1 PUSH2 0x27C4 JUMP JUMPDEST PUSH2 0xF30 DUP9 DUP4 DUP7 DUP7 DUP1 DUP1 PUSH1 0x1F ADD PUSH1 0x20 DUP1 SWAP2 DIV MUL PUSH1 0x20 ADD PUSH1 0x40 MLOAD SWAP1 DUP2 ADD PUSH1 0x40 MSTORE DUP1 SWAP4 SWAP3 SWAP2 SWAP1 DUP2 DUP2 MSTORE PUSH1 0x20 ADD DUP4 DUP4 DUP1 DUP3 DUP5 CALLDATACOPY PUSH1 0x0 SWAP3 ADD DUP3 SWAP1 MSTORE POP PUSH1 0x40 DUP1 MLOAD DUP1 DUP3 ADD SWAP1 SWAP2 MSTORE CALLVALUE DUP2 MSTORE PUSH1 0x20 DUP2 ADD SWAP2 SWAP1 SWAP2 MSTORE SWAP3 POP CALLER SWAP2 POP PUSH2 0x195D SWAP1 POP JUMP JUMPDEST POP PUSH1 0x0 DUP9 PUSH4 0xFFFFFFFF AND PUSH32 0x9D3921FA6202787A376E196A4DB9F1F55F1CE7942D18C8146B1BD6E4DEAEF9E2 DUP9 DUP11 PUSH1 0x40 MLOAD PUSH2 0xF6B SWAP3 SWAP2 SWAP1 PUSH2 0x29F9 JUMP JUMPDEST PUSH1 0x40 MLOAD DUP1 SWAP2 SUB SWAP1 LOG3 POP POP PUSH2 0xF7F PUSH1 0x1 PUSH1 0x2 SSTORE JUMP JUMPDEST POP POP POP POP POP POP JUMP JUMPDEST PUSH1 0x0 PUSH2 0xF91 PUSH2 0x1A99 JUMP JUMPDEST PUSH1 0x3 SLOAD PUSH1 0x1 PUSH1 0x1 PUSH1 0xA0 SHL SUB AND PUSH2 0xFE1 JUMPI PUSH1 0x40 MLOAD PUSH3 0x461BCD PUSH1 0xE5 SHL DUP2 MSTORE PUSH1 0x20 PUSH1 0x4 DUP3 ADD MSTORE PUSH1 0x15 PUSH1 0x24 DUP3 ADD MSTORE PUSH21 0x14185E5B595B9D081D1BDAD95B881B9BDD081CD95D PUSH1 0x5A SHL PUSH1 0x44 DUP3 ADD MSTORE PUSH1 0x64 ADD PUSH2 0x658 JUMP JUMPDEST PUSH1 0x0 DUP5 DUP2 MSTORE PUSH1 0x4 PUSH1 0x20 MSTORE PUSH1 0x40 SWAP1 KECCAK256 SLOAD PUSH2 0x102D JUMPI PUSH1 0x40 MLOAD PUSH3 0x461BCD PUSH1 0xE5 SHL DUP2 MSTORE PUSH1 0x20 PUSH1 0x4 DUP3 ADD MSTORE PUSH1 0xE PUSH1 0x24 DUP3 ADD MSTORE PUSH14 0x129BD8881B9BDD08199D5B991959 PUSH1 0x92 SHL PUSH1 0x44 DUP3 ADD MSTORE PUSH1 0x64 ADD PUSH2 0x658 JUMP JUMPDEST PUSH1 0x0 DUP5 DUP2 MSTORE PUSH1 0x6 PUSH1 0x20 SWAP1 DUP2 MSTORE PUSH1 0x40 DUP1 DUP4 KECCAK256 DUP7 DUP5 MSTORE SWAP1 SWAP2 MSTORE SWAP1 KECCAK256 SLOAD PUSH1 0xFF AND PUSH1 0x1 EQ PUSH2 0x1090 JUMPI PUSH1 0x40 MLOAD PUSH3 0x461BCD PUSH1 0xE5 SHL DUP2 MSTORE PUSH1 0x20 PUSH1 0x4 DUP3 ADD MSTORE PUSH1 0x14 PUSH1 0x24 DUP3 ADD MSTORE PUSH20 0x135A5B195CDD1BDB99481B9BDD08199D5B991959 PUSH1 0x62 SHL PUSH1 0x44 DUP3 ADD MSTORE PUSH1 0x64 ADD PUSH2 0x658 JUMP JUMPDEST PUSH1 0x0 DUP5 DUP2 MSTORE PUSH1 0x4 PUSH1 0x20 DUP2 DUP2 MSTORE PUSH1 0x40 DUP1 DUP5 KECCAK256 DUP1 SLOAD SWAP1 DUP6 SWAP1 SSTORE PUSH1 0x6 DUP4 MSTORE DUP2 DUP6 KECCAK256 DUP9 DUP7 MSTORE SWAP1 SWAP3 MSTORE SWAP3 DUP4 SWAP1 KECCAK256 DUP1 SLOAD PUSH1 0xFF NOT AND PUSH1 0x2 OR SWAP1 SSTORE PUSH1 0x3 SLOAD SWAP3 MLOAD PUSH4 0xA9059CBB PUSH1 0xE0 SHL DUP2 MSTORE SWAP1 SWAP3 PUSH1 0x1 PUSH1 0x1 PUSH1 0xA0 SHL SUB AND SWAP2 PUSH4 0xA9059CBB SWAP2 PUSH2 0x1106 SWAP2 DUP8 SWAP2 DUP7 SWAP2 ADD PUSH1 0x1 PUSH1 0x1 PUSH1 0xA0 SHL SUB SWAP3 SWAP1 SWAP3 AND DUP3 MSTORE PUSH1 0x20 DUP3 ADD MSTORE PUSH1 0x40 ADD SWAP1 JUMP JUMPDEST PUSH1 0x20 PUSH1 0x40 MLOAD DUP1 DUP4 SUB DUP2 PUSH1 0x0 DUP8 GAS CALL ISZERO DUP1 ISZERO PUSH2 0x1125 JUMPI RETURNDATASIZE PUSH1 0x0 DUP1 RETURNDATACOPY RETURNDATASIZE PUSH1 0x0 REVERT JUMPDEST POP POP POP POP PUSH1 0x40 MLOAD RETURNDATASIZE PUSH1 0x1F NOT PUSH1 0x1F DUP3 ADD AND DUP3 ADD DUP1 PUSH1 0x40 MSTORE POP DUP2 ADD SWAP1 PUSH2 0x1149 SWAP2 SWAP1 PUSH2 0x28F8 JUMP JUMPDEST PUSH2 0x11A0 JUMPI PUSH1 0x40 MLOAD PUSH3 0x461BCD PUSH1 0xE5 SHL DUP2 MSTORE PUSH1 0x20 PUSH1 0x4 DUP3 ADD MSTORE PUSH1 0x22 PUSH1 0x24 DUP3 ADD MSTORE PUSH32 0x467265656C616E636572207061796D656E74207472616E73666572206661696C PUSH1 0x44 DUP3 ADD MSTORE PUSH2 0x1959 PUSH1 0xF2 SHL PUSH1 0x64 DUP3 ADD MSTORE PUSH1 0x84 ADD PUSH2 0x658 JUMP JUMPDEST PUSH1 0x40 DUP1 MLOAD DUP6 DUP2 MSTORE PUSH1 0x1 PUSH1 0x1 PUSH1 0xA0 SHL SUB DUP6 AND PUSH1 0x20 DUP3 ADD MSTORE SWAP1 DUP2 ADD DUP3 SWAP1 MSTORE DUP6 SWAP1 PUSH32 0x3F661635A4068C06840B7B53C055A655BE7369B79609432AC5C097E8365E9A5 SWAP1 PUSH1 0x60 ADD PUSH1 0x40 MLOAD DUP1 SWAP2 SUB SWAP1 LOG2 SWAP5 SWAP4 POP POP POP POP JUMP JUMPDEST PUSH2 0x11FB PUSH2 0x1825 JUMP JUMPDEST PUSH2 0x120E DUP6 PUSH1 0x1 PUSH1 0x1 PUSH1 0xA0 SHL SUB DUP7 AND PUSH2 0x862 JUMP JUMPDEST PUSH1 0x40 DUP1 MLOAD PUSH1 0x60 PUSH1 0x20 DUP3 ADD DUP2 SWAP1 MSTORE PUSH1 0xC PUSH1 0x80 DUP4 ADD MSTORE PUSH12 0x415050524F56455F574F524B PUSH1 0xA0 SHL PUSH1 0xA0 DUP4 ADD MSTORE CALLER SWAP3 DUP3 ADD SWAP3 SWAP1 SWAP3 MSTORE SWAP1 DUP2 ADD DUP5 SWAP1 MSTORE PUSH1 0x0 SWAP1 PUSH1 0xC0 ADD PUSH1 0x40 DUP1 MLOAD PUSH1 0x1F NOT DUP2 DUP5 SUB ADD DUP2 MSTORE PUSH1 0x20 PUSH1 0x1F DUP7 ADD DUP2 SWAP1 DIV DUP2 MUL DUP5 ADD DUP2 ADD SWAP1 SWAP3 MSTORE DUP5 DUP4 MSTORE SWAP3 POP PUSH1 0x0 SWAP2 PUSH2 0x129A SWAP2 DUP10 SWAP2 DUP6 SWAP2 DUP9 SWAP1 DUP9 SWAP1 DUP2 SWAP1 DUP5 ADD DUP4 DUP3 DUP1 DUP3 DUP5 CALLDATACOPY PUSH1 0x0 SWAP3 ADD DUP3 SWAP1 MSTORE POP SWAP3 POP PUSH2 0x187C SWAP2 POP POP JUMP JUMPDEST DUP1 MLOAD SWAP1 SWAP2 POP CALLVALUE LT ISZERO PUSH2 0x12BE JUMPI PUSH1 0x40 MLOAD PUSH3 0x461BCD PUSH1 0xE5 SHL DUP2 MSTORE PUSH1 0x4 ADD PUSH2 0x658 SWAP1 PUSH2 0x27C4 JUMP JUMPDEST PUSH2 0x1316 DUP8 DUP4 DUP7 DUP7 DUP1 DUP1 PUSH1 0x1F ADD PUSH1 0x20 DUP1 SWAP2 DIV MUL PUSH1 0x20 ADD PUSH1 0x40 MLOAD SWAP1 DUP2 ADD PUSH1 0x40 MSTORE DUP1 SWAP4 SWAP3 SWAP2 SWAP1 DUP2 DUP2 MSTORE PUSH1 0x20 ADD DUP4 DUP4 DUP1 DUP3 DUP5 CALLDATACOPY PUSH1 0x0 SWAP3 ADD DUP3 SWAP1 MSTORE POP PUSH1 0x40 DUP1 MLOAD DUP1 DUP3 ADD SWAP1 SWAP2 MSTORE CALLVALUE DUP2 MSTORE PUSH1 0x20 DUP2 ADD SWAP2 SWAP1 SWAP2 MSTORE SWAP3 POP CALLER SWAP2 POP PUSH2 0x195D SWAP1 POP JUMP JUMPDEST POP PUSH1 0x40 DUP1 MLOAD DUP7 DUP2 MSTORE PUSH1 0x1 PUSH1 0x1 PUSH1 0xA0 SHL SUB DUP9 AND PUSH1 0x20 DUP3 ADD MSTORE PUSH4 0xFFFFFFFF DUP10 AND SWAP2 PUSH32 0x76BDEC72C88C09D4C70A69194B68202DC9E65C4B221AA3830BBFCF54DD22799A SWAP2 ADD PUSH1 0x40 MLOAD DUP1 SWAP2 SUB SWAP1 LOG2 POP POP PUSH2 0x136C PUSH1 0x1 PUSH1 0x2 SSTORE JUMP JUMPDEST POP POP POP POP POP JUMP JUMPDEST PUSH2 0x137B PUSH2 0x1A99 JUMP JUMPDEST PUSH1 0x40 MLOAD PUSH4 0xCA5EB5E1 PUSH1 0xE0 SHL DUP2 MSTORE PUSH1 0x1 PUSH1 0x1 PUSH1 0xA0 SHL SUB DUP3 DUP2 AND PUSH1 0x4 DUP4 ADD MSTORE PUSH32 0x0 AND SWAP1 PUSH4 0xCA5EB5E1 SWAP1 PUSH1 0x24 ADD PUSH1 0x0 PUSH1 0x40 MLOAD DUP1 DUP4 SUB DUP2 PUSH1 0x0 DUP8 DUP1 EXTCODESIZE ISZERO DUP1 ISZERO PUSH2 0x13DE JUMPI PUSH1 0x0 DUP1 REVERT JUMPDEST POP GAS CALL ISZERO DUP1 ISZERO PUSH2 0x136C JUMPI RETURNDATASIZE PUSH1 0x0 DUP1 RETURNDATACOPY RETURNDATASIZE PUSH1 0x0 REVERT JUMPDEST PUSH2 0x13FA PUSH2 0x1825 JUMP JUMPDEST PUSH1 0x0 DUP6 MLOAD GT PUSH2 0x1442 JUMPI PUSH1 0x40 MLOAD PUSH3 0x461BCD PUSH1 0xE5 SHL DUP2 MSTORE PUSH1 0x20 PUSH1 0x4 DUP3 ADD MSTORE PUSH1 0x14 PUSH1 0x24 DUP3 ADD MSTORE PUSH20 0x4E616D652063616E6E6F7420626520656D707479 PUSH1 0x60 SHL PUSH1 0x44 DUP3 ADD MSTORE PUSH1 0x64 ADD PUSH2 0x658 JUMP JUMPDEST PUSH1 0x0 DUP5 MLOAD GT PUSH2 0x148C JUMPI PUSH1 0x40 MLOAD PUSH3 0x461BCD PUSH1 0xE5 SHL DUP2 MSTORE PUSH1 0x20 PUSH1 0x4 DUP3 ADD MSTORE PUSH1 0x16 PUSH1 0x24 DUP3 ADD MSTORE PUSH22 0x536B696C6C732063616E6E6F7420626520656D707479 PUSH1 0x50 SHL PUSH1 0x44 DUP3 ADD MSTORE PUSH1 0x64 ADD PUSH2 0x658 JUMP JUMPDEST PUSH2 0x149F DUP8 PUSH1 0x1 PUSH1 0x1 PUSH1 0xA0 SHL SUB DUP9 AND PUSH2 0x862 JUMP JUMPDEST PUSH1 0x0 CALLER DUP7 DUP7 DUP7 PUSH1 0x40 MLOAD PUSH1 0x20 ADD PUSH2 0x14B8 SWAP5 SWAP4 SWAP3 SWAP2 SWAP1 PUSH2 0x293B JUMP JUMPDEST PUSH1 0x40 DUP1 MLOAD PUSH1 0x1F NOT DUP2 DUP5 SUB ADD DUP2 MSTORE PUSH1 0x20 PUSH1 0x1F DUP7 ADD DUP2 SWAP1 DIV DUP2 MUL DUP5 ADD DUP2 ADD SWAP1 SWAP3 MSTORE DUP5 DUP4 MSTORE SWAP3 POP PUSH1 0x0 SWAP2 PUSH2 0x1507 SWAP2 DUP12 SWAP2 DUP6 SWAP2 DUP9 SWAP1 DUP9 SWAP1 DUP2 SWAP1 DUP5 ADD DUP4 DUP3 DUP1 DUP3 DUP5 CALLDATACOPY PUSH1 0x0 SWAP3 ADD DUP3 SWAP1 MSTORE POP SWAP3 POP PUSH2 0x187C SWAP2 POP POP JUMP JUMPDEST DUP1 MLOAD SWAP1 SWAP2 POP CALLVALUE LT ISZERO PUSH2 0x152B JUMPI PUSH1 0x40 MLOAD PUSH3 0x461BCD PUSH1 0xE5 SHL DUP2 MSTORE PUSH1 0x4 ADD PUSH2 0x658 SWAP1 PUSH2 0x27C4 JUMP JUMPDEST PUSH2 0x1583 DUP10 DUP4 DUP7 DUP7 DUP1 DUP1 PUSH1 0x1F ADD PUSH1 0x20 DUP1 SWAP2 DIV MUL PUSH1 0x20 ADD PUSH1 0x40 MLOAD SWAP1 DUP2 ADD PUSH1 0x40 MSTORE DUP1 SWAP4 SWAP3 SWAP2 SWAP1 DUP2 DUP2 MSTORE PUSH1 0x20 ADD DUP4 DUP4 DUP1 DUP3 DUP5 CALLDATACOPY PUSH1 0x0 SWAP3 ADD DUP3 SWAP1 MSTORE POP PUSH1 0x40 DUP1 MLOAD DUP1 DUP3 ADD SWAP1 SWAP2 MSTORE CALLVALUE DUP2 MSTORE PUSH1 0x20 DUP2 ADD SWAP2 SWAP1 SWAP2 MSTORE SWAP3 POP CALLER SWAP2 POP PUSH2 0x195D SWAP1 POP JUMP JUMPDEST POP CALLER PUSH1 0x1 PUSH1 0x1 PUSH1 0xA0 SHL SUB AND DUP10 PUSH4 0xFFFFFFFF AND PUSH32 0x55C2A5400EEE8CF3BF6249454B995ADB48669C3A785CC20C61735E7AEA4171AA DUP10 DUP12 PUSH1 0x40 MLOAD PUSH2 0x79D SWAP3 SWAP2 SWAP1 PUSH2 0x29F9 JUMP JUMPDEST PUSH2 0x15CE PUSH2 0x1A99 JUMP JUMPDEST PUSH1 0x1 PUSH1 0x1 PUSH1 0xA0 SHL SUB DUP2 AND PUSH2 0x15F8 JUMPI PUSH1 0x40 MLOAD PUSH4 0x1E4FBDF7 PUSH1 0xE0 SHL DUP2 MSTORE PUSH1 0x0 PUSH1 0x4 DUP3 ADD MSTORE PUSH1 0x24 ADD PUSH2 0x658 JUMP JUMPDEST PUSH2 0x1601 DUP2 PUSH2 0x1B1B JUMP JUMPDEST POP JUMP JUMPDEST PUSH2 0x160C PUSH2 0x1825 JUMP JUMPDEST PUSH1 0x1 DUP4 PUSH1 0xFF AND LT ISZERO DUP1 ISZERO PUSH2 0x1624 JUMPI POP PUSH1 0x5 DUP4 PUSH1 0xFF AND GT ISZERO JUMPDEST PUSH2 0x1670 JUMPI PUSH1 0x40 MLOAD PUSH3 0x461BCD PUSH1 0xE5 SHL DUP2 MSTORE PUSH1 0x20 PUSH1 0x4 DUP3 ADD MSTORE PUSH1 0x1E PUSH1 0x24 DUP3 ADD MSTORE PUSH32 0x526174696E67206D757374206265206265747765656E203120616E6420350000 PUSH1 0x44 DUP3 ADD MSTORE PUSH1 0x64 ADD PUSH2 0x658 JUMP JUMPDEST PUSH2 0x1683 DUP8 PUSH1 0x1 PUSH1 0x1 PUSH1 0xA0 SHL SUB DUP9 AND PUSH2 0x862 JUMP JUMPDEST PUSH1 0x40 DUP1 MLOAD PUSH1 0xA0 PUSH1 0x20 DUP3 ADD DUP2 SWAP1 MSTORE PUSH1 0x9 PUSH1 0xC0 DUP4 ADD MSTORE PUSH9 0x2920AA22AFAAA9A2A9 PUSH1 0xB9 SHL PUSH1 0xE0 DUP4 ADD MSTORE CALLER SWAP3 DUP3 ADD SWAP3 SWAP1 SWAP3 MSTORE PUSH1 0x60 DUP2 ADD DUP8 SWAP1 MSTORE PUSH1 0x1 PUSH1 0x1 PUSH1 0xA0 SHL SUB DUP7 AND PUSH1 0x80 DUP3 ADD MSTORE PUSH1 0xFF DUP6 AND SWAP2 DUP2 ADD SWAP2 SWAP1 SWAP2 MSTORE PUSH1 0x0 SWAP1 PUSH2 0x100 ADD PUSH1 0x40 DUP1 MLOAD PUSH1 0x1F NOT DUP2 DUP5 SUB ADD DUP2 MSTORE PUSH1 0x20 PUSH1 0x1F DUP7 ADD DUP2 SWAP1 DIV DUP2 MUL DUP5 ADD DUP2 ADD SWAP1 SWAP3 MSTORE DUP5 DUP4 MSTORE SWAP3 POP PUSH1 0x0 SWAP2 PUSH2 0x1728 SWAP2 DUP12 SWAP2 DUP6 SWAP2 DUP9 SWAP1 DUP9 SWAP1 DUP2 SWAP1 DUP5 ADD DUP4 DUP3 DUP1 DUP3 DUP5 CALLDATACOPY PUSH1 0x0 SWAP3 ADD DUP3 SWAP1 MSTORE POP SWAP3 POP PUSH2 0x187C SWAP2 POP POP JUMP JUMPDEST DUP1 MLOAD SWAP1 SWAP2 POP CALLVALUE LT ISZERO PUSH2 0x174C JUMPI PUSH1 0x40 MLOAD PUSH3 0x461BCD PUSH1 0xE5 SHL DUP2 MSTORE PUSH1 0x4 ADD PUSH2 0x658 SWAP1 PUSH2 0x27C4 JUMP JUMPDEST PUSH2 0x17A4 DUP10 DUP4 DUP7 DUP7 DUP1 DUP1 PUSH1 0x1F ADD PUSH1 0x20 DUP1 SWAP2 DIV MUL PUSH1 0x20 ADD PUSH1 0x40 MLOAD SWAP1 DUP2 ADD PUSH1 0x40 MSTORE DUP1 SWAP4 SWAP3 SWAP2 SWAP1 DUP2 DUP2 MSTORE PUSH1 0x20 ADD DUP4 DUP4 DUP1 DUP3 DUP5 CALLDATACOPY PUSH1 0x0 SWAP3 ADD DUP3 SWAP1 MSTORE POP PUSH1 0x40 DUP1 MLOAD DUP1 DUP3 ADD SWAP1 SWAP2 MSTORE CALLVALUE DUP2 MSTORE PUSH1 0x20 DUP2 ADD SWAP2 SWAP1 SWAP2 MSTORE SWAP3 POP CALLER SWAP2 POP PUSH2 0x195D SWAP1 POP JUMP JUMPDEST POP PUSH1 0x40 DUP1 MLOAD PUSH1 0x1 PUSH1 0x1 PUSH1 0xA0 SHL SUB DUP1 DUP10 AND DUP3 MSTORE DUP11 AND PUSH1 0x20 DUP3 ADD MSTORE DUP9 SWAP2 PUSH4 0xFFFFFFFF DUP13 AND SWAP2 PUSH32 0xB8882EE5839B206F84224B7675B401F5D25E96DC6C088F6F933851CB071A2F3B SWAP2 ADD PUSH2 0x79D JUMP JUMPDEST PUSH1 0x0 PUSH1 0x20 DUP3 ADD DUP1 CALLDATALOAD SWAP1 PUSH1 0x1 SWAP1 DUP4 SWAP1 PUSH2 0x1807 SWAP1 DUP7 PUSH2 0x25CD JUMP JUMPDEST PUSH4 0xFFFFFFFF AND DUP2 MSTORE PUSH1 0x20 DUP2 ADD SWAP2 SWAP1 SWAP2 MSTORE PUSH1 0x40 ADD PUSH1 0x0 KECCAK256 SLOAD EQ SWAP3 SWAP2 POP POP JUMP JUMPDEST PUSH1 0x2 DUP1 SLOAD SUB PUSH2 0x1876 JUMPI PUSH1 0x40 MLOAD PUSH3 0x461BCD PUSH1 0xE5 SHL DUP2 MSTORE PUSH1 0x20 PUSH1 0x4 DUP3 ADD MSTORE PUSH1 0x1F PUSH1 0x24 DUP3 ADD MSTORE PUSH32 0x5265656E7472616E637947756172643A207265656E7472616E742063616C6C00 PUSH1 0x44 DUP3 ADD MSTORE PUSH1 0x64 ADD PUSH2 0x658 JUMP JUMPDEST PUSH1 0x2 DUP1 SSTORE JUMP JUMPDEST PUSH1 0x40 DUP1 MLOAD DUP1 DUP3 ADD SWAP1 SWAP2 MSTORE PUSH1 0x0 DUP1 DUP3 MSTORE PUSH1 0x20 DUP3 ADD MSTORE PUSH32 0x0 PUSH1 0x1 PUSH1 0x1 PUSH1 0xA0 SHL SUB AND PUSH4 0xDDC28C58 PUSH1 0x40 MLOAD DUP1 PUSH1 0xA0 ADD PUSH1 0x40 MSTORE DUP1 DUP9 PUSH4 0xFFFFFFFF AND DUP2 MSTORE PUSH1 0x20 ADD PUSH2 0x18DF DUP10 PUSH2 0x1A5D JUMP JUMPDEST DUP2 MSTORE PUSH1 0x20 ADD DUP8 DUP2 MSTORE PUSH1 0x20 ADD DUP7 DUP2 MSTORE PUSH1 0x20 ADD DUP6 ISZERO ISZERO DUP2 MSTORE POP ADDRESS PUSH1 0x40 MLOAD DUP4 PUSH4 0xFFFFFFFF AND PUSH1 0xE0 SHL DUP2 MSTORE PUSH1 0x4 ADD PUSH2 0x1914 SWAP3 SWAP2 SWAP1 PUSH2 0x2A23 JUMP JUMPDEST PUSH1 0x40 DUP1 MLOAD DUP1 DUP4 SUB DUP2 DUP7 GAS STATICCALL ISZERO DUP1 ISZERO PUSH2 0x1930 JUMPI RETURNDATASIZE PUSH1 0x0 DUP1 RETURNDATACOPY RETURNDATASIZE PUSH1 0x0 REVERT JUMPDEST POP POP POP POP PUSH1 0x40 MLOAD RETURNDATASIZE PUSH1 0x1F NOT PUSH1 0x1F DUP3 ADD AND DUP3 ADD DUP1 PUSH1 0x40 MSTORE POP DUP2 ADD SWAP1 PUSH2 0x1954 SWAP2 SWAP1 PUSH2 0x2AEA JUMP JUMPDEST SWAP6 SWAP5 POP POP POP POP POP JUMP JUMPDEST PUSH2 0x1965 PUSH2 0x1D2F JUMP JUMPDEST PUSH1 0x0 PUSH2 0x1974 DUP5 PUSH1 0x0 ADD MLOAD PUSH2 0x1B6B JUMP JUMPDEST PUSH1 0x20 DUP6 ADD MLOAD SWAP1 SWAP2 POP ISZERO PUSH2 0x198E JUMPI PUSH2 0x198E DUP5 PUSH1 0x20 ADD MLOAD PUSH2 0x1B93 JUMP JUMPDEST PUSH32 0x0 PUSH1 0x1 PUSH1 0x1 PUSH1 0xA0 SHL SUB AND PUSH4 0x2637A450 DUP3 PUSH1 0x40 MLOAD DUP1 PUSH1 0xA0 ADD PUSH1 0x40 MSTORE DUP1 DUP12 PUSH4 0xFFFFFFFF AND DUP2 MSTORE PUSH1 0x20 ADD PUSH2 0x19DE DUP13 PUSH2 0x1A5D JUMP JUMPDEST DUP2 MSTORE PUSH1 0x20 ADD DUP11 DUP2 MSTORE PUSH1 0x20 ADD DUP10 DUP2 MSTORE PUSH1 0x20 ADD PUSH1 0x0 DUP10 PUSH1 0x20 ADD MLOAD GT ISZERO ISZERO DUP2 MSTORE POP DUP7 PUSH1 0x40 MLOAD DUP5 PUSH4 0xFFFFFFFF AND PUSH1 0xE0 SHL DUP2 MSTORE PUSH1 0x4 ADD PUSH2 0x1A1A SWAP3 SWAP2 SWAP1 PUSH2 0x2A23 JUMP JUMPDEST PUSH1 0x80 PUSH1 0x40 MLOAD DUP1 DUP4 SUB DUP2 DUP6 DUP9 GAS CALL ISZERO DUP1 ISZERO PUSH2 0x1A38 JUMPI RETURNDATASIZE PUSH1 0x0 DUP1 RETURNDATACOPY RETURNDATASIZE PUSH1 0x0 REVERT JUMPDEST POP POP POP POP POP PUSH1 0x40 MLOAD RETURNDATASIZE PUSH1 0x1F NOT PUSH1 0x1F DUP3 ADD AND DUP3 ADD DUP1 PUSH1 0x40 MSTORE POP DUP2 ADD SWAP1 PUSH2 0xAA4 SWAP2 SWAP1 PUSH2 0x2B06 JUMP JUMPDEST PUSH4 0xFFFFFFFF DUP2 AND PUSH1 0x0 SWAP1 DUP2 MSTORE PUSH1 0x1 PUSH1 0x20 MSTORE PUSH1 0x40 DUP2 KECCAK256 SLOAD DUP1 PUSH2 0xD8B JUMPI PUSH1 0x40 MLOAD PUSH4 0xF6FF4FB7 PUSH1 0xE0 SHL DUP2 MSTORE PUSH4 0xFFFFFFFF DUP5 AND PUSH1 0x4 DUP3 ADD MSTORE PUSH1 0x24 ADD PUSH2 0x658 JUMP JUMPDEST PUSH1 0x0 SLOAD PUSH1 0x1 PUSH1 0x1 PUSH1 0xA0 SHL SUB AND CALLER EQ PUSH2 0xD86 JUMPI PUSH1 0x40 MLOAD PUSH4 0x118CDAA7 PUSH1 0xE0 SHL DUP2 MSTORE CALLER PUSH1 0x4 DUP3 ADD MSTORE PUSH1 0x24 ADD PUSH2 0x658 JUMP JUMPDEST PUSH4 0xFFFFFFFF DUP3 AND PUSH1 0x0 DUP2 DUP2 MSTORE PUSH1 0x1 PUSH1 0x20 SWAP1 DUP2 MSTORE PUSH1 0x40 SWAP2 DUP3 SWAP1 KECCAK256 DUP5 SWAP1 SSTORE DUP2 MLOAD SWAP3 DUP4 MSTORE DUP3 ADD DUP4 SWAP1 MSTORE PUSH32 0x238399D427B947898EDB290F5FF0F9109849B1C3BA196A42E35F00C50A54B98B SWAP2 ADD PUSH1 0x40 MLOAD DUP1 SWAP2 SUB SWAP1 LOG1 POP POP JUMP JUMPDEST PUSH1 0x0 DUP1 SLOAD PUSH1 0x1 PUSH1 0x1 PUSH1 0xA0 SHL SUB DUP4 DUP2 AND PUSH1 0x1 PUSH1 0x1 PUSH1 0xA0 SHL SUB NOT DUP4 AND DUP2 OR DUP5 SSTORE PUSH1 0x40 MLOAD SWAP2 SWAP1 SWAP3 AND SWAP3 DUP4 SWAP2 PUSH32 0x8BE0079C531659141344CD1FD0A4F28419497F9722A3DAAFE3B4186F6B6457E0 SWAP2 SWAP1 LOG3 POP POP JUMP JUMPDEST PUSH1 0x0 DUP2 CALLVALUE EQ PUSH2 0x1B8F JUMPI PUSH1 0x40 MLOAD PUSH4 0x4FB8209 PUSH1 0xE5 SHL DUP2 MSTORE CALLVALUE PUSH1 0x4 DUP3 ADD MSTORE PUSH1 0x24 ADD PUSH2 0x658 JUMP JUMPDEST POP SWAP1 JUMP JUMPDEST PUSH1 0x0 PUSH32 0x0 PUSH1 0x1 PUSH1 0x1 PUSH1 0xA0 SHL SUB AND PUSH4 0xE4FE1D94 PUSH1 0x40 MLOAD DUP2 PUSH4 0xFFFFFFFF AND PUSH1 0xE0 SHL DUP2 MSTORE PUSH1 0x4 ADD PUSH1 0x20 PUSH1 0x40 MLOAD DUP1 DUP4 SUB DUP2 DUP7 GAS STATICCALL ISZERO DUP1 ISZERO PUSH2 0x1BF3 JUMPI RETURNDATASIZE PUSH1 0x0 DUP1 RETURNDATACOPY RETURNDATASIZE PUSH1 0x0 REVERT JUMPDEST POP POP POP POP PUSH1 0x40 MLOAD RETURNDATASIZE PUSH1 0x1F NOT PUSH1 0x1F DUP3 ADD AND DUP3 ADD DUP1 PUSH1 0x40 MSTORE POP DUP2 ADD SWAP1 PUSH2 0x1C17 SWAP2 SWAP1 PUSH2 0x2B7B JUMP JUMPDEST SWAP1 POP PUSH1 0x1 PUSH1 0x1 PUSH1 0xA0 SHL SUB DUP2 AND PUSH2 0x1C40 JUMPI PUSH1 0x40 MLOAD PUSH4 0x29B99A95 PUSH1 0xE1 SHL DUP2 MSTORE PUSH1 0x4 ADD PUSH1 0x40 MLOAD DUP1 SWAP2 SUB SWAP1 REVERT JUMPDEST PUSH1 0x40 DUP1 MLOAD CALLER PUSH1 0x24 DUP3 ADD DUP2 SWAP1 MSTORE PUSH32 0x0 PUSH1 0x1 PUSH1 0x1 PUSH1 0xA0 SHL SUB DUP2 DUP2 AND PUSH1 0x44 DUP6 ADD MSTORE PUSH1 0x64 DUP1 DUP6 ADD DUP9 SWAP1 MSTORE DUP6 MLOAD DUP1 DUP7 SUB SWAP1 SWAP2 ADD DUP2 MSTORE PUSH1 0x84 SWAP1 SWAP5 ADD SWAP1 SWAP5 MSTORE PUSH1 0x20 DUP1 DUP5 ADD DUP1 MLOAD PUSH1 0x1 PUSH1 0x1 PUSH1 0xE0 SHL SUB AND PUSH4 0x23B872DD PUSH1 0xE0 SHL OR DUP2 MSTORE DUP5 MLOAD PUSH2 0x874 SWAP7 DUP9 AND SWAP6 DUP10 SWAP4 PUSH2 0xCBE SWAP4 DUP9 SWAP4 PUSH1 0x0 SWAP3 DUP4 SWAP3 SWAP1 SWAP2 DUP4 SWAP2 DUP3 DUP9 GAS CALL DUP1 PUSH2 0x1CE1 JUMPI PUSH1 0x40 MLOAD RETURNDATASIZE PUSH1 0x0 DUP3 RETURNDATACOPY RETURNDATASIZE DUP2 REVERT JUMPDEST POP POP PUSH1 0x0 MLOAD RETURNDATASIZE SWAP2 POP DUP2 ISZERO PUSH2 0x1CF9 JUMPI DUP1 PUSH1 0x1 EQ ISZERO PUSH2 0x1D06 JUMP JUMPDEST PUSH1 0x1 PUSH1 0x1 PUSH1 0xA0 SHL SUB DUP5 AND EXTCODESIZE ISZERO JUMPDEST ISZERO PUSH2 0xCBE JUMPI PUSH1 0x40 MLOAD PUSH4 0x5274AFE7 PUSH1 0xE0 SHL DUP2 MSTORE PUSH1 0x1 PUSH1 0x1 PUSH1 0xA0 SHL SUB DUP6 AND PUSH1 0x4 DUP3 ADD MSTORE PUSH1 0x24 ADD PUSH2 0x658 JUMP JUMPDEST PUSH1 0x40 MLOAD DUP1 PUSH1 0x60 ADD PUSH1 0x40 MSTORE DUP1 PUSH1 0x0 DUP1 NOT AND DUP2 MSTORE PUSH1 0x20 ADD PUSH1 0x0 PUSH1 0x1 PUSH1 0x1 PUSH1 0x40 SHL SUB AND DUP2 MSTORE PUSH1 0x20 ADD PUSH2 0x1D71 PUSH1 0x40 MLOAD DUP1 PUSH1 0x40 ADD PUSH1 0x40 MSTORE DUP1 PUSH1 0x0 DUP2 MSTORE PUSH1 0x20 ADD PUSH1 0x0 DUP2 MSTORE POP SWAP1 JUMP JUMPDEST SWAP1 MSTORE SWAP1 JUMP JUMPDEST PUSH1 0x0 PUSH1 0x20 DUP3 DUP5 SUB SLT ISZERO PUSH2 0x1D88 JUMPI PUSH1 0x0 DUP1 REVERT JUMPDEST POP CALLDATALOAD SWAP2 SWAP1 POP JUMP JUMPDEST DUP1 CALLDATALOAD PUSH4 0xFFFFFFFF DUP2 AND DUP2 EQ PUSH2 0x1DA3 JUMPI PUSH1 0x0 DUP1 REVERT JUMPDEST SWAP2 SWAP1 POP JUMP JUMPDEST PUSH1 0x1 PUSH1 0x1 PUSH1 0xA0 SHL SUB DUP2 AND DUP2 EQ PUSH2 0x1601 JUMPI PUSH1 0x0 DUP1 REVERT JUMPDEST DUP1 CALLDATALOAD PUSH2 0x1DA3 DUP2 PUSH2 0x1DA8 JUMP JUMPDEST PUSH4 0x4E487B71 PUSH1 0xE0 SHL PUSH1 0x0 MSTORE PUSH1 0x41 PUSH1 0x4 MSTORE PUSH1 0x24 PUSH1 0x0 REVERT JUMPDEST PUSH1 0x40 MLOAD PUSH1 0x1F DUP3 ADD PUSH1 0x1F NOT AND DUP2 ADD PUSH1 0x1 PUSH1 0x1 PUSH1 0x40 SHL SUB DUP2 GT DUP3 DUP3 LT OR ISZERO PUSH2 0x1E06 JUMPI PUSH2 0x1E06 PUSH2 0x1DC8 JUMP JUMPDEST PUSH1 0x40 MSTORE SWAP2 SWAP1 POP JUMP JUMPDEST PUSH1 0x0 DUP3 PUSH1 0x1F DUP4 ADD SLT PUSH2 0x1E1F JUMPI PUSH1 0x0 DUP1 REVERT JUMPDEST DUP2 CALLDATALOAD PUSH1 0x1 PUSH1 0x1 PUSH1 0x40 SHL SUB DUP2 GT ISZERO PUSH2 0x1E38 JUMPI PUSH2 0x1E38 PUSH2 0x1DC8 JUMP JUMPDEST PUSH2 0x1E4B PUSH1 0x1F DUP3 ADD PUSH1 0x1F NOT AND PUSH1 0x20 ADD PUSH2 0x1DDE JUMP JUMPDEST DUP2 DUP2 MSTORE DUP5 PUSH1 0x20 DUP4 DUP7 ADD ADD GT ISZERO PUSH2 0x1E60 JUMPI PUSH1 0x0 DUP1 REVERT JUMPDEST DUP2 PUSH1 0x20 DUP6 ADD PUSH1 0x20 DUP4 ADD CALLDATACOPY PUSH1 0x0 SWAP2 DUP2 ADD PUSH1 0x20 ADD SWAP2 SWAP1 SWAP2 MSTORE SWAP4 SWAP3 POP POP POP JUMP JUMPDEST PUSH1 0x0 DUP1 DUP4 PUSH1 0x1F DUP5 ADD SLT PUSH2 0x1E8F JUMPI PUSH1 0x0 DUP1 REVERT JUMPDEST POP DUP2 CALLDATALOAD PUSH1 0x1 PUSH1 0x1 PUSH1 0x40 SHL SUB DUP2 GT ISZERO PUSH2 0x1EA6 JUMPI PUSH1 0x0 DUP1 REVERT JUMPDEST PUSH1 0x20 DUP4 ADD SWAP2 POP DUP4 PUSH1 0x20 DUP3 DUP6 ADD ADD GT ISZERO PUSH2 0x1EBE JUMPI PUSH1 0x0 DUP1 REVERT JUMPDEST SWAP3 POP SWAP3 SWAP1 POP JUMP JUMPDEST PUSH1 0x0 DUP1 PUSH1 0x0 DUP1 PUSH1 0x0 DUP1 PUSH1 0x0 PUSH1 0xC0 DUP9 DUP11 SUB SLT ISZERO PUSH2 0x1EE0 JUMPI PUSH1 0x0 DUP1 REVERT JUMPDEST PUSH2 0x1EE9 DUP9 PUSH2 0x1D8F JUMP JUMPDEST SWAP7 POP PUSH1 0x20 DUP9 ADD CALLDATALOAD PUSH2 0x1EF9 DUP2 PUSH2 0x1DA8 JUMP JUMPDEST SWAP6 POP PUSH1 0x40 DUP9 ADD CALLDATALOAD SWAP5 POP PUSH1 0x60 DUP9 ADD CALLDATALOAD PUSH1 0x1 PUSH1 0x1 PUSH1 0x40 SHL SUB DUP2 GT ISZERO PUSH2 0x1F1B JUMPI PUSH1 0x0 DUP1 REVERT JUMPDEST PUSH2 0x1F27 DUP11 DUP3 DUP12 ADD PUSH2 0x1E0E JUMP JUMPDEST SWAP5 POP POP PUSH1 0x80 DUP9 ADD CALLDATALOAD PUSH1 0x1 PUSH1 0x1 PUSH1 0x40 SHL SUB DUP2 GT ISZERO PUSH2 0x1F43 JUMPI PUSH1 0x0 DUP1 REVERT JUMPDEST PUSH2 0x1F4F DUP11 DUP3 DUP12 ADD PUSH2 0x1E0E JUMP JUMPDEST SWAP4 POP POP PUSH1 0xA0 DUP9 ADD CALLDATALOAD PUSH1 0x1 PUSH1 0x1 PUSH1 0x40 SHL SUB DUP2 GT ISZERO PUSH2 0x1F6B JUMPI PUSH1 0x0 DUP1 REVERT JUMPDEST PUSH2 0x1F77 DUP11 DUP3 DUP12 ADD PUSH2 0x1E7D JUMP JUMPDEST SWAP9 SWAP12 SWAP8 SWAP11 POP SWAP6 SWAP9 POP SWAP4 SWAP7 SWAP3 SWAP6 SWAP3 SWAP4 POP POP POP JUMP JUMPDEST PUSH1 0x0 PUSH1 0x60 DUP3 DUP5 SUB SLT ISZERO PUSH2 0x1F9C JUMPI PUSH1 0x0 DUP1 REVERT JUMPDEST POP SWAP2 SWAP1 POP JUMP JUMPDEST PUSH1 0x0 DUP1 PUSH1 0x0 DUP1 PUSH1 0x0 DUP1 PUSH1 0x0 PUSH1 0xE0 DUP9 DUP11 SUB SLT ISZERO PUSH2 0x1FBD JUMPI PUSH1 0x0 DUP1 REVERT JUMPDEST PUSH2 0x1FC7 DUP10 DUP10 PUSH2 0x1F8A JUMP JUMPDEST SWAP7 POP PUSH1 0x60 DUP9 ADD CALLDATALOAD SWAP6 POP PUSH1 0x80 DUP9 ADD CALLDATALOAD PUSH1 0x1 PUSH1 0x1 PUSH1 0x40 SHL SUB DUP2 GT ISZERO PUSH2 0x1FE9 JUMPI PUSH1 0x0 DUP1 REVERT JUMPDEST PUSH2 0x1FF5 DUP11 DUP3 DUP12 ADD PUSH2 0x1E7D JUMP JUMPDEST SWAP1 SWAP7 POP SWAP5 POP POP PUSH1 0xA0 DUP9 ADD CALLDATALOAD PUSH2 0x2009 DUP2 PUSH2 0x1DA8 JUMP JUMPDEST SWAP3 POP PUSH1 0xC0 DUP9 ADD CALLDATALOAD PUSH1 0x1 PUSH1 0x1 PUSH1 0x40 SHL SUB DUP2 GT ISZERO PUSH2 0x1F6B JUMPI PUSH1 0x0 DUP1 REVERT JUMPDEST PUSH1 0x0 DUP1 PUSH1 0x40 DUP4 DUP6 SUB SLT ISZERO PUSH2 0x2037 JUMPI PUSH1 0x0 DUP1 REVERT JUMPDEST PUSH2 0x2040 DUP4 PUSH2 0x1D8F JUMP JUMPDEST SWAP5 PUSH1 0x20 SWAP4 SWAP1 SWAP4 ADD CALLDATALOAD SWAP4 POP POP POP JUMP JUMPDEST PUSH1 0x0 PUSH1 0x1 PUSH1 0x1 PUSH1 0x40 SHL SUB DUP3 GT ISZERO PUSH2 0x2067 JUMPI PUSH2 0x2067 PUSH2 0x1DC8 JUMP JUMPDEST POP PUSH1 0x5 SHL PUSH1 0x20 ADD SWAP1 JUMP JUMPDEST PUSH1 0x0 DUP3 PUSH1 0x1F DUP4 ADD SLT PUSH2 0x2082 JUMPI PUSH1 0x0 DUP1 REVERT JUMPDEST DUP2 CALLDATALOAD PUSH2 0x2095 PUSH2 0x2090 DUP3 PUSH2 0x204E JUMP JUMPDEST PUSH2 0x1DDE JUMP JUMPDEST DUP1 DUP3 DUP3 MSTORE PUSH1 0x20 DUP3 ADD SWAP2 POP PUSH1 0x20 DUP4 PUSH1 0x5 SHL DUP7 ADD ADD SWAP3 POP DUP6 DUP4 GT ISZERO PUSH2 0x20B7 JUMPI PUSH1 0x0 DUP1 REVERT JUMPDEST PUSH1 0x20 DUP6 ADD JUMPDEST DUP4 DUP2 LT ISZERO PUSH2 0x20D4 JUMPI DUP1 CALLDATALOAD DUP4 MSTORE PUSH1 0x20 SWAP3 DUP4 ADD SWAP3 ADD PUSH2 0x20BC JUMP JUMPDEST POP SWAP6 SWAP5 POP POP POP POP POP JUMP JUMPDEST PUSH1 0x0 DUP1 PUSH1 0x0 DUP1 PUSH1 0x0 DUP1 PUSH1 0x0 DUP1 PUSH1 0xE0 DUP10 DUP12 SUB SLT ISZERO PUSH2 0x20FA JUMPI PUSH1 0x0 DUP1 REVERT JUMPDEST PUSH2 0x2103 DUP10 PUSH2 0x1D8F JUMP JUMPDEST SWAP8 POP PUSH2 0x2111 PUSH1 0x20 DUP11 ADD PUSH2 0x1DBD JUMP JUMPDEST SWAP7 POP PUSH1 0x40 DUP10 ADD CALLDATALOAD SWAP6 POP PUSH1 0x60 DUP10 ADD CALLDATALOAD PUSH1 0x1 PUSH1 0x1 PUSH1 0x40 SHL SUB DUP2 GT ISZERO PUSH2 0x2133 JUMPI PUSH1 0x0 DUP1 REVERT JUMPDEST PUSH2 0x213F DUP12 DUP3 DUP13 ADD PUSH2 0x1E0E JUMP JUMPDEST SWAP6 POP POP PUSH1 0x80 DUP10 ADD CALLDATALOAD PUSH1 0x1 PUSH1 0x1 PUSH1 0x40 SHL SUB DUP2 GT ISZERO PUSH2 0x215B JUMPI PUSH1 0x0 DUP1 REVERT JUMPDEST PUSH2 0x2167 DUP12 DUP3 DUP13 ADD PUSH2 0x2071 JUMP JUMPDEST SWAP5 POP POP PUSH1 0xA0 DUP10 ADD CALLDATALOAD PUSH1 0x1 PUSH1 0x1 PUSH1 0x40 SHL SUB DUP2 GT ISZERO PUSH2 0x2183 JUMPI PUSH1 0x0 DUP1 REVERT JUMPDEST PUSH2 0x218F DUP12 DUP3 DUP13 ADD PUSH2 0x1E0E JUMP JUMPDEST SWAP4 POP POP PUSH1 0xC0 DUP10 ADD CALLDATALOAD PUSH1 0x1 PUSH1 0x1 PUSH1 0x40 SHL SUB DUP2 GT ISZERO PUSH2 0x21AB JUMPI PUSH1 0x0 DUP1 REVERT JUMPDEST PUSH2 0x21B7 DUP12 DUP3 DUP13 ADD PUSH2 0x1E7D JUMP JUMPDEST SWAP10 SWAP13 SWAP9 SWAP12 POP SWAP7 SWAP10 POP SWAP5 SWAP8 SWAP4 SWAP7 SWAP3 SWAP6 SWAP5 POP POP POP JUMP JUMPDEST PUSH1 0x0 DUP1 PUSH1 0x0 DUP1 PUSH1 0x0 PUSH1 0x80 DUP7 DUP9 SUB SLT ISZERO PUSH2 0x21E3 JUMPI PUSH1 0x0 DUP1 REVERT JUMPDEST PUSH2 0x21EC DUP7 PUSH2 0x1D8F JUMP JUMPDEST SWAP5 POP PUSH1 0x20 DUP7 ADD CALLDATALOAD PUSH1 0x1 PUSH1 0x1 PUSH1 0x40 SHL SUB DUP2 GT ISZERO PUSH2 0x2207 JUMPI PUSH1 0x0 DUP1 REVERT JUMPDEST PUSH2 0x2213 DUP9 DUP3 DUP10 ADD PUSH2 0x1E0E JUMP JUMPDEST SWAP5 POP POP PUSH1 0x40 DUP7 ADD CALLDATALOAD PUSH1 0x1 PUSH1 0x1 PUSH1 0x40 SHL SUB DUP2 GT ISZERO PUSH2 0x222F JUMPI PUSH1 0x0 DUP1 REVERT JUMPDEST PUSH2 0x223B DUP9 DUP3 DUP10 ADD PUSH2 0x2071 JUMP JUMPDEST SWAP4 POP POP PUSH1 0x60 DUP7 ADD CALLDATALOAD PUSH1 0x1 PUSH1 0x1 PUSH1 0x40 SHL SUB DUP2 GT ISZERO PUSH2 0x2257 JUMPI PUSH1 0x0 DUP1 REVERT JUMPDEST PUSH2 0x2263 DUP9 DUP3 DUP10 ADD PUSH2 0x1E7D JUMP JUMPDEST SWAP7 SWAP10 SWAP6 SWAP9 POP SWAP4 SWAP7 POP SWAP3 SWAP5 SWAP4 SWAP3 POP POP POP JUMP JUMPDEST PUSH1 0x0 DUP1 PUSH1 0x0 PUSH1 0x60 DUP5 DUP7 SUB SLT ISZERO PUSH2 0x2289 JUMPI PUSH1 0x0 DUP1 REVERT JUMPDEST POP POP DUP2 CALLDATALOAD SWAP4 PUSH1 0x20 DUP4 ADD CALLDATALOAD SWAP4 POP PUSH1 0x40 SWAP1 SWAP3 ADD CALLDATALOAD SWAP2 SWAP1 POP JUMP JUMPDEST PUSH1 0x0 DUP1 PUSH1 0x0 PUSH1 0x60 DUP5 DUP7 SUB SLT ISZERO PUSH2 0x22B5 JUMPI PUSH1 0x0 DUP1 REVERT JUMPDEST DUP4 CALLDATALOAD PUSH2 0x22C0 DUP2 PUSH2 0x1DA8 JUMP JUMPDEST SWAP3 POP PUSH1 0x20 DUP5 ADD CALLDATALOAD PUSH2 0x22D0 DUP2 PUSH2 0x1DA8 JUMP JUMPDEST SWAP3 SWAP6 SWAP3 SWAP5 POP POP POP PUSH1 0x40 SWAP2 SWAP1 SWAP2 ADD CALLDATALOAD SWAP1 JUMP JUMPDEST PUSH1 0x0 DUP3 PUSH1 0x1F DUP4 ADD SLT PUSH2 0x22F2 JUMPI PUSH1 0x0 DUP1 REVERT JUMPDEST DUP2 CALLDATALOAD PUSH2 0x2300 PUSH2 0x2090 DUP3 PUSH2 0x204E JUMP JUMPDEST DUP1 DUP3 DUP3 MSTORE PUSH1 0x20 DUP3 ADD SWAP2 POP PUSH1 0x20 DUP4 PUSH1 0x5 SHL DUP7 ADD ADD SWAP3 POP DUP6 DUP4 GT ISZERO PUSH2 0x2322 JUMPI PUSH1 0x0 DUP1 REVERT JUMPDEST PUSH1 0x20 DUP6 ADD JUMPDEST DUP4 DUP2 LT ISZERO PUSH2 0x20D4 JUMPI DUP1 CALLDATALOAD PUSH1 0x1 PUSH1 0x1 PUSH1 0x40 SHL SUB DUP2 GT ISZERO PUSH2 0x2345 JUMPI PUSH1 0x0 DUP1 REVERT JUMPDEST PUSH2 0x2354 DUP9 PUSH1 0x20 DUP4 DUP11 ADD ADD PUSH2 0x1E0E JUMP JUMPDEST DUP5 MSTORE POP PUSH1 0x20 SWAP3 DUP4 ADD SWAP3 ADD PUSH2 0x2327 JUMP JUMPDEST PUSH1 0x0 DUP1 PUSH1 0x0 DUP1 PUSH1 0x0 DUP1 PUSH1 0xA0 DUP8 DUP10 SUB SLT ISZERO PUSH2 0x237C JUMPI PUSH1 0x0 DUP1 REVERT JUMPDEST PUSH2 0x2385 DUP8 PUSH2 0x1D8F JUMP JUMPDEST SWAP6 POP PUSH1 0x20 DUP8 ADD CALLDATALOAD PUSH1 0x1 PUSH1 0x1 PUSH1 0x40 SHL SUB DUP2 GT ISZERO PUSH2 0x23A0 JUMPI PUSH1 0x0 DUP1 REVERT JUMPDEST PUSH2 0x23AC DUP10 DUP3 DUP11 ADD PUSH2 0x1E0E JUMP JUMPDEST SWAP6 POP POP PUSH1 0x40 DUP8 ADD CALLDATALOAD PUSH1 0x1 PUSH1 0x1 PUSH1 0x40 SHL SUB DUP2 GT ISZERO PUSH2 0x23C8 JUMPI PUSH1 0x0 DUP1 REVERT JUMPDEST PUSH2 0x23D4 DUP10 DUP3 DUP11 ADD PUSH2 0x22E1 JUMP JUMPDEST SWAP5 POP POP PUSH1 0x60 DUP8 ADD CALLDATALOAD PUSH1 0x1 PUSH1 0x1 PUSH1 0x40 SHL SUB DUP2 GT ISZERO PUSH2 0x23F0 JUMPI PUSH1 0x0 DUP1 REVERT JUMPDEST PUSH2 0x23FC DUP10 DUP3 DUP11 ADD PUSH2 0x1E0E JUMP JUMPDEST SWAP4 POP POP PUSH1 0x80 DUP8 ADD CALLDATALOAD PUSH1 0x1 PUSH1 0x1 PUSH1 0x40 SHL SUB DUP2 GT ISZERO PUSH2 0x2418 JUMPI PUSH1 0x0 DUP1 REVERT JUMPDEST PUSH2 0x2424 DUP10 DUP3 DUP11 ADD PUSH2 0x1E7D JUMP JUMPDEST SWAP8 SWAP11 SWAP7 SWAP10 POP SWAP5 SWAP8 POP SWAP3 SWAP6 SWAP4 SWAP5 SWAP3 POP POP POP JUMP JUMPDEST PUSH1 0x0 PUSH1 0x20 DUP3 DUP5 SUB SLT ISZERO PUSH2 0x2448 JUMPI PUSH1 0x0 DUP1 REVERT JUMPDEST DUP2 CALLDATALOAD PUSH2 0x2453 DUP2 PUSH2 0x1DA8 JUMP JUMPDEST SWAP4 SWAP3 POP POP POP JUMP JUMPDEST PUSH1 0x0 DUP1 PUSH1 0x0 DUP1 PUSH1 0x0 DUP1 PUSH1 0xA0 DUP8 DUP10 SUB SLT ISZERO PUSH2 0x2473 JUMPI PUSH1 0x0 DUP1 REVERT JUMPDEST PUSH2 0x247C DUP8 PUSH2 0x1D8F JUMP JUMPDEST SWAP6 POP PUSH1 0x20 DUP8 ADD CALLDATALOAD PUSH2 0x248C DUP2 PUSH2 0x1DA8 JUMP JUMPDEST SWAP5 POP PUSH1 0x40 DUP8 ADD CALLDATALOAD PUSH1 0x1 PUSH1 0x1 PUSH1 0x40 SHL SUB DUP2 GT ISZERO PUSH2 0x24A7 JUMPI PUSH1 0x0 DUP1 REVERT JUMPDEST PUSH2 0x24B3 DUP10 DUP3 DUP11 ADD PUSH2 0x1E0E JUMP JUMPDEST SWAP5 POP POP PUSH1 0x60 DUP8 ADD CALLDATALOAD PUSH1 0x1 PUSH1 0x1 PUSH1 0x40 SHL SUB DUP2 GT ISZERO PUSH2 0x24CF JUMPI PUSH1 0x0 DUP1 REVERT JUMPDEST PUSH2 0x23FC DUP10 DUP3 DUP11 ADD PUSH2 0x2071 JUMP JUMPDEST PUSH1 0x0 DUP1 PUSH1 0x0 DUP1 PUSH1 0xA0 DUP6 DUP8 SUB SLT ISZERO PUSH2 0x24F1 JUMPI PUSH1 0x0 DUP1 REVERT JUMPDEST PUSH2 0x24FB DUP7 DUP7 PUSH2 0x1F8A JUMP JUMPDEST SWAP4 POP PUSH1 0x60 DUP6 ADD CALLDATALOAD PUSH1 0x1 PUSH1 0x1 PUSH1 0x40 SHL SUB DUP2 GT ISZERO PUSH2 0x2516 JUMPI PUSH1 0x0 DUP1 REVERT JUMPDEST PUSH2 0x2522 DUP8 DUP3 DUP9 ADD PUSH2 0x1E7D JUMP JUMPDEST SWAP1 SWAP5 POP SWAP3 POP POP PUSH1 0x80 DUP6 ADD CALLDATALOAD PUSH2 0x2536 DUP2 PUSH2 0x1DA8 JUMP JUMPDEST SWAP4 SWAP7 SWAP3 SWAP6 POP SWAP1 SWAP4 POP POP JUMP JUMPDEST PUSH1 0x0 DUP1 PUSH1 0x0 PUSH1 0x60 DUP5 DUP7 SUB SLT ISZERO PUSH2 0x2556 JUMPI PUSH1 0x0 DUP1 REVERT JUMPDEST DUP4 CALLDATALOAD SWAP3 POP PUSH1 0x20 DUP5 ADD CALLDATALOAD SWAP2 POP PUSH1 0x40 DUP5 ADD CALLDATALOAD PUSH2 0x256F DUP2 PUSH2 0x1DA8 JUMP JUMPDEST DUP1 SWAP2 POP POP SWAP3 POP SWAP3 POP SWAP3 JUMP JUMPDEST PUSH1 0x0 DUP1 PUSH1 0x0 DUP1 PUSH1 0x0 PUSH1 0x80 DUP7 DUP9 SUB SLT ISZERO PUSH2 0x2592 JUMPI PUSH1 0x0 DUP1 REVERT JUMPDEST PUSH2 0x259B DUP7 PUSH2 0x1D8F JUMP JUMPDEST SWAP5 POP PUSH1 0x20 DUP7 ADD CALLDATALOAD PUSH2 0x25AB DUP2 PUSH2 0x1DA8 JUMP JUMPDEST SWAP4 POP PUSH1 0x40 DUP7 ADD CALLDATALOAD SWAP3 POP PUSH1 0x60 DUP7 ADD CALLDATALOAD PUSH1 0x1 PUSH1 0x1 PUSH1 0x40 SHL SUB DUP2 GT ISZERO PUSH2 0x2257 JUMPI PUSH1 0x0 DUP1 REVERT JUMPDEST PUSH1 0x0 PUSH1 0x20 DUP3 DUP5 SUB SLT ISZERO PUSH2 0x25DF JUMPI PUSH1 0x0 DUP1 REVERT JUMPDEST PUSH2 0x2453 DUP3 PUSH2 0x1D8F JUMP JUMPDEST PUSH1 0x0 DUP1 PUSH1 0x0 DUP1 PUSH1 0x0 DUP1 PUSH1 0x0 PUSH1 0xC0 DUP9 DUP11 SUB SLT ISZERO PUSH2 0x2603 JUMPI PUSH1 0x0 DUP1 REVERT JUMPDEST PUSH2 0x260C DUP9 PUSH2 0x1D8F JUMP JUMPDEST SWAP7 POP PUSH2 0x261A PUSH1 0x20 DUP10 ADD PUSH2 0x1DBD JUMP JUMPDEST SWAP6 POP PUSH1 0x40 DUP9 ADD CALLDATALOAD PUSH1 0x1 PUSH1 0x1 PUSH1 0x40 SHL SUB DUP2 GT ISZERO PUSH2 0x2635 JUMPI PUSH1 0x0 DUP1 REVERT JUMPDEST PUSH2 0x2641 DUP11 DUP3 DUP12 ADD PUSH2 0x1E0E JUMP JUMPDEST SWAP6 POP POP PUSH1 0x60 DUP9 ADD CALLDATALOAD PUSH1 0x1 PUSH1 0x1 PUSH1 0x40 SHL SUB DUP2 GT ISZERO PUSH2 0x265D JUMPI PUSH1 0x0 DUP1 REVERT JUMPDEST PUSH2 0x1F27 DUP11 DUP3 DUP12 ADD PUSH2 0x22E1 JUMP JUMPDEST PUSH1 0x0 DUP1 PUSH1 0x40 DUP4 DUP6 SUB SLT ISZERO PUSH2 0x267C JUMPI PUSH1 0x0 DUP1 REVERT JUMPDEST POP POP DUP1 CALLDATALOAD SWAP3 PUSH1 0x20 SWAP1 SWAP2 ADD CALLDATALOAD SWAP2 POP JUMP JUMPDEST PUSH1 0x0 DUP1 PUSH1 0x0 DUP1 PUSH1 0x0 DUP1 PUSH1 0x0 PUSH1 0xC0 DUP9 DUP11 SUB SLT ISZERO PUSH2 0x26A6 JUMPI PUSH1 0x0 DUP1 REVERT JUMPDEST PUSH2 0x26AF DUP9 PUSH2 0x1D8F JUMP JUMPDEST SWAP7 POP PUSH1 0x20 DUP9 ADD CALLDATALOAD PUSH2 0x26BF DUP2 PUSH2 0x1DA8 JUMP JUMPDEST SWAP6 POP PUSH1 0x40 DUP9 ADD CALLDATALOAD SWAP5 POP PUSH1 0x60 DUP9 ADD CALLDATALOAD PUSH2 0x26D6 DUP2 PUSH2 0x1DA8 JUMP JUMPDEST SWAP4 POP PUSH1 0x80 DUP9 ADD CALLDATALOAD PUSH1 0xFF DUP2 AND DUP2 EQ PUSH2 0x26EC JUMPI PUSH1 0x0 DUP1 REVERT JUMPDEST SWAP3 POP PUSH1 0xA0 DUP9 ADD CALLDATALOAD PUSH1 0x1 PUSH1 0x1 PUSH1 0x40 SHL SUB DUP2 GT ISZERO PUSH2 0x1F6B JUMPI PUSH1 0x0 DUP1 REVERT JUMPDEST PUSH1 0x0 PUSH1 0x60 DUP3 DUP5 SUB SLT ISZERO PUSH2 0x2719 JUMPI PUSH1 0x0 DUP1 REVERT JUMPDEST PUSH2 0x2453 DUP4 DUP4 PUSH2 0x1F8A JUMP JUMPDEST PUSH1 0x0 DUP2 MLOAD DUP1 DUP5 MSTORE PUSH1 0x0 JUMPDEST DUP2 DUP2 LT ISZERO PUSH2 0x2749 JUMPI PUSH1 0x20 DUP2 DUP6 ADD DUP2 ADD MLOAD DUP7 DUP4 ADD DUP3 ADD MSTORE ADD PUSH2 0x272D JUMP JUMPDEST POP PUSH1 0x0 PUSH1 0x20 DUP3 DUP7 ADD ADD MSTORE PUSH1 0x20 PUSH1 0x1F NOT PUSH1 0x1F DUP4 ADD AND DUP6 ADD ADD SWAP2 POP POP SWAP3 SWAP2 POP POP JUMP JUMPDEST PUSH1 0xA0 DUP2 MSTORE PUSH1 0xB PUSH1 0xA0 DUP3 ADD MSTORE PUSH11 0x5355424D49545F574F524B PUSH1 0xA8 SHL PUSH1 0xC0 DUP3 ADD MSTORE PUSH1 0x1 DUP1 PUSH1 0xA0 SHL SUB DUP6 AND PUSH1 0x20 DUP3 ADD MSTORE DUP4 PUSH1 0x40 DUP3 ADD MSTORE PUSH1 0xE0 PUSH1 0x60 DUP3 ADD MSTORE PUSH1 0x0 PUSH2 0x27B2 PUSH1 0xE0 DUP4 ADD DUP6 PUSH2 0x2723 JUMP JUMPDEST DUP3 DUP2 SUB PUSH1 0x80 DUP5 ADD MSTORE PUSH2 0xAA4 DUP2 DUP6 PUSH2 0x2723 JUMP JUMPDEST PUSH1 0x20 DUP1 DUP3 MSTORE PUSH1 0x10 SWAP1 DUP3 ADD MSTORE PUSH16 0x496E73756666696369656E7420666565 PUSH1 0x80 SHL PUSH1 0x40 DUP3 ADD MSTORE PUSH1 0x60 ADD SWAP1 JUMP JUMPDEST PUSH1 0x0 DUP2 MLOAD DUP1 DUP5 MSTORE PUSH1 0x20 DUP5 ADD SWAP4 POP PUSH1 0x20 DUP4 ADD PUSH1 0x0 JUMPDEST DUP3 DUP2 LT ISZERO PUSH2 0x2820 JUMPI DUP2 MLOAD DUP7 MSTORE PUSH1 0x20 SWAP6 DUP7 ADD SWAP6 SWAP1 SWAP2 ADD SWAP1 PUSH1 0x1 ADD PUSH2 0x2802 JUMP JUMPDEST POP SWAP4 SWAP5 SWAP4 POP POP POP POP JUMP JUMPDEST PUSH1 0xC0 DUP2 MSTORE PUSH1 0xC PUSH1 0xC0 DUP3 ADD MSTORE PUSH12 0x20A828262CAFAA27AFA527A1 PUSH1 0xA1 SHL PUSH1 0xE0 DUP3 ADD MSTORE PUSH1 0x1 DUP1 PUSH1 0xA0 SHL SUB DUP7 AND PUSH1 0x20 DUP3 ADD MSTORE DUP5 PUSH1 0x40 DUP3 ADD MSTORE PUSH2 0x100 PUSH1 0x60 DUP3 ADD MSTORE PUSH1 0x0 PUSH2 0x2876 PUSH2 0x100 DUP4 ADD DUP7 PUSH2 0x2723 JUMP JUMPDEST DUP3 DUP2 SUB PUSH1 0x80 DUP5 ADD MSTORE PUSH2 0x2888 DUP2 DUP7 PUSH2 0x27EE JUMP JUMPDEST SWAP1 POP DUP3 DUP2 SUB PUSH1 0xA0 DUP5 ADD MSTORE PUSH2 0xD3E DUP2 DUP6 PUSH2 0x2723 JUMP JUMPDEST PUSH1 0x80 DUP2 MSTORE PUSH1 0x8 PUSH1 0x80 DUP3 ADD MSTORE PUSH8 0x2827A9AA2FA527A1 PUSH1 0xC1 SHL PUSH1 0xA0 DUP3 ADD MSTORE PUSH1 0x1 DUP1 PUSH1 0xA0 SHL SUB DUP5 AND PUSH1 0x20 DUP3 ADD MSTORE PUSH1 0xC0 PUSH1 0x40 DUP3 ADD MSTORE PUSH1 0x0 PUSH2 0x28DC PUSH1 0xC0 DUP4 ADD DUP6 PUSH2 0x2723 JUMP JUMPDEST DUP3 DUP2 SUB PUSH1 0x60 DUP5 ADD MSTORE PUSH2 0x28EE DUP2 DUP6 PUSH2 0x27EE JUMP JUMPDEST SWAP7 SWAP6 POP POP POP POP POP POP JUMP JUMPDEST PUSH1 0x0 PUSH1 0x20 DUP3 DUP5 SUB SLT ISZERO PUSH2 0x290A JUMPI PUSH1 0x0 DUP1 REVERT JUMPDEST DUP2 MLOAD DUP1 ISZERO ISZERO DUP2 EQ PUSH2 0x2453 JUMPI PUSH1 0x0 DUP1 REVERT JUMPDEST DUP1 DUP3 ADD DUP1 DUP3 GT ISZERO PUSH2 0xD8B JUMPI PUSH4 0x4E487B71 PUSH1 0xE0 SHL PUSH1 0x0 MSTORE PUSH1 0x11 PUSH1 0x4 MSTORE PUSH1 0x24 PUSH1 0x0 REVERT JUMPDEST PUSH1 0xA0 DUP2 MSTORE PUSH1 0xE PUSH1 0xA0 DUP3 ADD MSTORE PUSH14 0x4352454154455F50524F46494C45 PUSH1 0x90 SHL PUSH1 0xC0 DUP3 ADD MSTORE PUSH1 0x1 DUP1 PUSH1 0xA0 SHL SUB DUP6 AND PUSH1 0x20 DUP3 ADD MSTORE PUSH1 0xE0 PUSH1 0x40 DUP3 ADD MSTORE PUSH1 0x0 PUSH2 0x2981 PUSH1 0xE0 DUP4 ADD DUP7 PUSH2 0x2723 JUMP JUMPDEST DUP3 DUP2 SUB PUSH1 0x60 DUP5 ADD MSTORE DUP1 DUP6 MLOAD DUP1 DUP4 MSTORE PUSH1 0x20 DUP4 ADD SWAP2 POP PUSH1 0x20 DUP2 PUSH1 0x5 SHL DUP5 ADD ADD PUSH1 0x20 DUP9 ADD PUSH1 0x0 JUMPDEST DUP4 DUP2 LT ISZERO PUSH2 0x29D7 JUMPI PUSH1 0x1F NOT DUP7 DUP5 SUB ADD DUP6 MSTORE PUSH2 0x29C1 DUP4 DUP4 MLOAD PUSH2 0x2723 JUMP JUMPDEST PUSH1 0x20 SWAP6 DUP7 ADD SWAP6 SWAP1 SWAP4 POP SWAP2 SWAP1 SWAP2 ADD SWAP1 PUSH1 0x1 ADD PUSH2 0x29A5 JUMP JUMPDEST POP POP DUP6 DUP2 SUB PUSH1 0x80 DUP8 ADD MSTORE PUSH2 0x29EB DUP2 DUP9 PUSH2 0x2723 JUMP JUMPDEST SWAP11 SWAP10 POP POP POP POP POP POP POP POP POP POP JUMP JUMPDEST PUSH1 0x40 DUP2 MSTORE PUSH1 0x0 PUSH2 0x2A0C PUSH1 0x40 DUP4 ADD DUP6 PUSH2 0x2723 JUMP JUMPDEST SWAP1 POP PUSH1 0x1 DUP1 PUSH1 0xA0 SHL SUB DUP4 AND PUSH1 0x20 DUP4 ADD MSTORE SWAP4 SWAP3 POP POP POP JUMP JUMPDEST PUSH1 0x40 DUP2 MSTORE PUSH4 0xFFFFFFFF DUP4 MLOAD AND PUSH1 0x40 DUP3 ADD MSTORE PUSH1 0x20 DUP4 ADD MLOAD PUSH1 0x60 DUP3 ADD MSTORE PUSH1 0x0 PUSH1 0x40 DUP5 ADD MLOAD PUSH1 0xA0 PUSH1 0x80 DUP5 ADD MSTORE PUSH2 0x2A59 PUSH1 0xE0 DUP5 ADD DUP3 PUSH2 0x2723 JUMP JUMPDEST SWAP1 POP PUSH1 0x60 DUP6 ADD MLOAD PUSH1 0x3F NOT DUP5 DUP4 SUB ADD PUSH1 0xA0 DUP6 ADD MSTORE PUSH2 0x2A76 DUP3 DUP3 PUSH2 0x2723 JUMP JUMPDEST PUSH1 0x80 SWAP7 SWAP1 SWAP7 ADD MLOAD ISZERO ISZERO PUSH1 0xC0 DUP6 ADD MSTORE POP POP POP PUSH1 0x1 PUSH1 0x1 PUSH1 0xA0 SHL SUB SWAP2 SWAP1 SWAP2 AND PUSH1 0x20 SWAP1 SWAP2 ADD MSTORE SWAP1 JUMP JUMPDEST PUSH1 0x0 PUSH1 0x40 DUP3 DUP5 SUB SLT ISZERO PUSH2 0x2AAE JUMPI PUSH1 0x0 DUP1 REVERT JUMPDEST PUSH1 0x40 DUP1 MLOAD SWAP1 DUP2 ADD PUSH1 0x1 PUSH1 0x1 PUSH1 0x40 SHL SUB DUP2 GT DUP3 DUP3 LT OR ISZERO PUSH2 0x2AD0 JUMPI PUSH2 0x2AD0 PUSH2 0x1DC8 JUMP JUMPDEST PUSH1 0x40 MSTORE DUP3 MLOAD DUP2 MSTORE PUSH1 0x20 SWAP3 DUP4 ADD MLOAD SWAP3 DUP2 ADD SWAP3 SWAP1 SWAP3 MSTORE POP SWAP2 SWAP1 POP JUMP JUMPDEST PUSH1 0x0 PUSH1 0x40 DUP3 DUP5 SUB SLT ISZERO PUSH2 0x2AFC JUMPI PUSH1 0x0 DUP1 REVERT JUMPDEST PUSH2 0x2453 DUP4 DUP4 PUSH2 0x2A9C JUMP JUMPDEST PUSH1 0x0 PUSH1 0x80 DUP3 DUP5 SUB SLT DUP1 ISZERO PUSH2 0x2B19 JUMPI PUSH1 0x0 DUP1 REVERT JUMPDEST POP PUSH1 0x40 MLOAD PUSH1 0x60 DUP2 ADD PUSH1 0x1 PUSH1 0x1 PUSH1 0x40 SHL SUB DUP2 GT DUP3 DUP3 LT OR ISZERO PUSH2 0x2B3C JUMPI PUSH2 0x2B3C PUSH2 0x1DC8 JUMP JUMPDEST PUSH1 0x40 MSTORE DUP3 MLOAD DUP2 MSTORE PUSH1 0x20 DUP4 ADD MLOAD PUSH1 0x1 PUSH1 0x1 PUSH1 0x40 SHL SUB DUP2 AND DUP2 EQ PUSH2 0x2B5D JUMPI PUSH1 0x0 DUP1 REVERT JUMPDEST PUSH1 0x20 DUP3 ADD MSTORE PUSH2 0x2B6F DUP5 PUSH1 0x40 DUP6 ADD PUSH2 0x2A9C JUMP JUMPDEST PUSH1 0x40 DUP3 ADD MSTORE SWAP4 SWAP3 POP POP POP JUMP JUMPDEST PUSH1 0x0 PUSH1 0x20 DUP3 DUP5 SUB SLT ISZERO PUSH2 0x2B8D JUMPI PUSH1 0x0 DUP1 REVERT JUMPDEST DUP2 MLOAD PUSH2 0x2453 DUP2 PUSH2 0x1DA8 JUMP INVALID LOG2 PUSH5 0x6970667358 0x22 SLT KECCAK256 SLOAD 0x2F GAS SIGNEXTEND DUP8 0xCA NUMBER SWAP1 BLOBHASH 0xE6 0x22 SWAP8 SWAP16 0xE6 DUP16 0x2A 0x2C 0xF6 0xDA SWAP10 REVERT 0xD0 SWAP13 SWAP2 0xE0 0xF6 KECCAK256 SWAP7 SMOD ADD 0xA9 0xCE PUSH5 0x736F6C6343 STOP ADDMOD SHR STOP CALLER "
		},
		"gasEstimates": {
			"creation": {
				"codeDepositCost": "2242800",
				"executionCost": "infinite",
				"totalCost": "infinite"
			},
			"external": {
				"allowInitializePath((uint32,bytes32,uint64))": "infinite",
				"applyToJob(uint32,address,uint256,string,uint256[],string,bytes)": "infinite",
				"approveWork(uint32,address,uint256,bytes)": "infinite",
				"createUserProfile(uint32,address,string,string[],string,bytes)": "infinite",
				"endpoint()": "infinite",
				"fundMilestoneEscrow(uint256,uint256,uint256)": "infinite",
				"getJobEscrow(uint256)": "2539",
				"isComposeMsgSender((uint32,bytes32,uint64),bytes,address)": "786",
				"jobEscrow(uint256)": "2474",
				"localJobStatus(uint256)": "2497",
				"lzReceive((uint32,bytes32,uint64),bytes32,bytes,address,bytes)": "infinite",
				"milestoneFundingStatus(uint256,uint256)": "2659",
				"nextNonce(uint32,bytes32)": "471",
				"oAppVersion()": "241",
				"owner()": "2420",
				"paymentToken()": "2405",
				"peers(uint32)": "2541",
				"postJob(uint32,address,string,uint256[],bytes)": "infinite",
				"quoteCreateUserProfile(uint32,string,string[],string,bytes)": "infinite",
				"quotePostJob(uint32,string,uint256[],bytes)": "infinite",
				"rate(uint32,address,uint256,address,uint8,bytes)": "infinite",
				"recoverTokens(address,address,uint256)": "infinite",
				"releaseMilestonePayment(uint256,uint256,address)": "infinite",
				"renounceOwnership()": "infinite",
				"setDelegate(address)": "infinite",
				"setPaymentToken(address)": "26840",
				"setPeer(uint32,bytes32)": "26127",
				"submitWork(uint32,address,uint256,string,string,bytes)": "infinite",
				"transferOwnership(address)": "infinite"
			},
			"internal": {
				"_lzReceive(struct Origin calldata,bytes32,bytes calldata,address,bytes calldata)": "infinite"
			}
		},
		"methodIdentifiers": {
			"allowInitializePath((uint32,bytes32,uint64))": "ff7bd03d",
			"applyToJob(uint32,address,uint256,string,uint256[],string,bytes)": "3e99eb2e",
			"approveWork(uint32,address,uint256,bytes)": "9eb3f711",
			"createUserProfile(uint32,address,string,string[],string,bytes)": "ce997833",
			"endpoint()": "5e280f11",
			"fundMilestoneEscrow(uint256,uint256,uint256)": "5c6900f7",
			"getJobEscrow(uint256)": "3561c340",
			"isComposeMsgSender((uint32,bytes32,uint64),bytes,address)": "82413eac",
			"jobEscrow(uint256)": "0c4f321f",
			"localJobStatus(uint256)": "dbfae8d7",
			"lzReceive((uint32,bytes32,uint64),bytes32,bytes,address,bytes)": "13137d65",
			"milestoneFundingStatus(uint256,uint256)": "db91825c",
			"nextNonce(uint32,bytes32)": "7d25a05e",
			"oAppVersion()": "17442b70",
			"owner()": "8da5cb5b",
			"paymentToken()": "3013ce29",
			"peers(uint32)": "bb0b6a53",
			"postJob(uint32,address,string,uint256[],bytes)": "7f6c884a",
			"quoteCreateUserProfile(uint32,string,string[],string,bytes)": "682d54e6",
			"quotePostJob(uint32,string,uint256[],bytes)": "5463f8e1",
			"rate(uint32,address,uint256,address,uint8,bytes)": "fe4488f6",
			"recoverTokens(address,address,uint256)": "5f3e849f",
			"releaseMilestonePayment(uint256,uint256,address)": "891669e2",
			"renounceOwnership()": "715018a6",
			"setDelegate(address)": "ca5eb5e1",
			"setPaymentToken(address)": "6a326ab1",
			"setPeer(uint32,bytes32)": "3400288b",
			"submitWork(uint32,address,uint256,string,string,bytes)": "0d82ddc3",
			"transferOwnership(address)": "f2fde38b"
		}
	},
	"abi": [
		{
			"inputs": [
				{
					"internalType": "address",
					"name": "_endpoint",
					"type": "address"
				},
				{
					"internalType": "address",
					"name": "_owner",
					"type": "address"
				}
			],
			"stateMutability": "nonpayable",
			"type": "constructor"
		},
		{
			"inputs": [],
			"name": "InvalidDelegate",
			"type": "error"
		},
		{
			"inputs": [],
			"name": "InvalidEndpointCall",
			"type": "error"
		},
		{
			"inputs": [],
			"name": "LzTokenUnavailable",
			"type": "error"
		},
		{
			"inputs": [
				{
					"internalType": "uint32",
					"name": "eid",
					"type": "uint32"
				}
			],
			"name": "NoPeer",
			"type": "error"
		},
		{
			"inputs": [
				{
					"internalType": "uint256",
					"name": "msgValue",
					"type": "uint256"
				}
			],
			"name": "NotEnoughNative",
			"type": "error"
		},
		{
			"inputs": [
				{
					"internalType": "address",
					"name": "addr",
					"type": "address"
				}
			],
			"name": "OnlyEndpoint",
			"type": "error"
		},
		{
			"inputs": [
				{
					"internalType": "uint32",
					"name": "eid",
					"type": "uint32"
				},
				{
					"internalType": "bytes32",
					"name": "sender",
					"type": "bytes32"
				}
			],
			"name": "OnlyPeer",
			"type": "error"
		},
		{
			"inputs": [
				{
					"internalType": "address",
					"name": "owner",
					"type": "address"
				}
			],
			"name": "OwnableInvalidOwner",
			"type": "error"
		},
		{
			"inputs": [
				{
					"internalType": "address",
					"name": "account",
					"type": "address"
				}
			],
			"name": "OwnableUnauthorizedAccount",
			"type": "error"
		},
		{
			"inputs": [
				{
					"internalType": "address",
					"name": "token",
					"type": "address"
				}
			],
			"name": "SafeERC20FailedOperation",
			"type": "error"
		},
		{
			"anonymous": false,
			"inputs": [
				{
					"indexed": true,
					"internalType": "uint32",
					"name": "dstEid",
					"type": "uint32"
				},
				{
					"indexed": true,
					"internalType": "uint256",
					"name": "jobId",
					"type": "uint256"
				},
				{
					"indexed": false,
					"internalType": "address",
					"name": "applicant",
					"type": "address"
				},
				{
					"indexed": false,
					"internalType": "address",
					"name": "targetContract",
					"type": "address"
				}
			],
			"name": "JobApplicationSent",
			"type": "event"
		},
		{
			"anonymous": false,
			"inputs": [
				{
					"indexed": true,
					"internalType": "uint32",
					"name": "dstEid",
					"type": "uint32"
				},
				{
					"indexed": true,
					"internalType": "uint256",
					"name": "jobId",
					"type": "uint256"
				},
				{
					"indexed": false,
					"internalType": "string",
					"name": "title",
					"type": "string"
				},
				{
					"indexed": false,
					"internalType": "address",
					"name": "targetContract",
					"type": "address"
				}
			],
			"name": "JobCreated",
			"type": "event"
		},
		{
			"anonymous": false,
			"inputs": [
				{
					"indexed": true,
					"internalType": "uint256",
					"name": "jobId",
					"type": "uint256"
				},
				{
					"indexed": false,
					"internalType": "uint256",
					"name": "milestoneId",
					"type": "uint256"
				},
				{
					"indexed": false,
					"internalType": "uint256",
					"name": "amount",
					"type": "uint256"
				}
			],
			"name": "JobEscrowFunded",
			"type": "event"
		},
		{
			"anonymous": false,
			"inputs": [
				{
					"indexed": true,
					"internalType": "uint256",
					"name": "jobId",
					"type": "uint256"
				},
				{
					"indexed": false,
					"internalType": "uint256",
					"name": "milestoneId",
					"type": "uint256"
				},
				{
					"indexed": false,
					"internalType": "address",
					"name": "freelancer",
					"type": "address"
				},
				{
					"indexed": false,
					"internalType": "uint256",
					"name": "amount",
					"type": "uint256"
				}
			],
			"name": "JobPaymentReleased",
			"type": "event"
		},
		{
			"anonymous": false,
			"inputs": [
				{
					"indexed": true,
					"internalType": "uint256",
					"name": "jobId",
					"type": "uint256"
				},
				{
					"indexed": false,
					"internalType": "uint256",
					"name": "milestoneId",
					"type": "uint256"
				},
				{
					"indexed": false,
					"internalType": "uint256",
					"name": "amount",
					"type": "uint256"
				}
			],
			"name": "MilestoneLocked",
			"type": "event"
		},
		{
			"anonymous": false,
			"inputs": [
				{
					"indexed": true,
					"internalType": "uint32",
					"name": "dstEid",
					"type": "uint32"
				},
				{
					"indexed": true,
					"internalType": "uint256",
					"name": "jobId",
					"type": "uint256"
				},
				{
					"indexed": false,
					"internalType": "address",
					"name": "applicant",
					"type": "address"
				},
				{
					"indexed": false,
					"internalType": "address",
					"name": "targetContract",
					"type": "address"
				}
			],
			"name": "MilestoneProposalSent",
			"type": "event"
		},
		{
			"anonymous": false,
			"inputs": [
				{
					"indexed": true,
					"internalType": "address",
					"name": "previousOwner",
					"type": "address"
				},
				{
					"indexed": true,
					"internalType": "address",
					"name": "newOwner",
					"type": "address"
				}
			],
			"name": "OwnershipTransferred",
			"type": "event"
		},
		{
			"anonymous": false,
			"inputs": [
				{
					"indexed": false,
					"internalType": "uint32",
					"name": "eid",
					"type": "uint32"
				},
				{
					"indexed": false,
					"internalType": "bytes32",
					"name": "peer",
					"type": "bytes32"
				}
			],
			"name": "PeerSet",
			"type": "event"
		},
		{
			"anonymous": false,
			"inputs": [
				{
					"indexed": true,
					"internalType": "uint32",
					"name": "dstEid",
					"type": "uint32"
				},
				{
					"indexed": true,
					"internalType": "uint256",
					"name": "jobId",
					"type": "uint256"
				},
				{
					"indexed": false,
					"internalType": "address",
					"name": "rated",
					"type": "address"
				},
				{
					"indexed": false,
					"internalType": "address",
					"name": "targetContract",
					"type": "address"
				}
			],
			"name": "RatingSent",
			"type": "event"
		},
		{
			"anonymous": false,
			"inputs": [
				{
					"indexed": true,
					"internalType": "uint32",
					"name": "dstEid",
					"type": "uint32"
				},
				{
					"indexed": true,
					"internalType": "address",
					"name": "user",
					"type": "address"
				},
				{
					"indexed": false,
					"internalType": "string",
					"name": "name",
					"type": "string"
				},
				{
					"indexed": false,
					"internalType": "address",
					"name": "targetContract",
					"type": "address"
				}
			],
			"name": "UserProfileSent",
			"type": "event"
		},
		{
			"anonymous": false,
			"inputs": [
				{
					"indexed": true,
					"internalType": "uint32",
					"name": "dstEid",
					"type": "uint32"
				},
				{
					"indexed": false,
					"internalType": "uint256",
					"name": "submissionId",
					"type": "uint256"
				},
				{
					"indexed": false,
					"internalType": "address",
					"name": "targetContract",
					"type": "address"
				}
			],
			"name": "WorkApprovalSent",
			"type": "event"
		},
		{
			"anonymous": false,
			"inputs": [
				{
					"indexed": true,
					"internalType": "uint32",
					"name": "dstEid",
					"type": "uint32"
				},
				{
					"indexed": true,
					"internalType": "uint256",
					"name": "jobId",
					"type": "uint256"
				},
				{
					"indexed": false,
					"internalType": "address",
					"name": "freelancer",
					"type": "address"
				},
				{
					"indexed": false,
					"internalType": "address",
					"name": "targetContract",
					"type": "address"
				}
			],
			"name": "WorkSubmissionSent",
			"type": "event"
		},
		{
			"inputs": [
				{
					"components": [
						{
							"internalType": "uint32",
							"name": "srcEid",
							"type": "uint32"
						},
						{
							"internalType": "bytes32",
							"name": "sender",
							"type": "bytes32"
						},
						{
							"internalType": "uint64",
							"name": "nonce",
							"type": "uint64"
						}
					],
					"internalType": "struct Origin",
					"name": "origin",
					"type": "tuple"
				}
			],
			"name": "allowInitializePath",
			"outputs": [
				{
					"internalType": "bool",
					"name": "",
					"type": "bool"
				}
			],
			"stateMutability": "view",
			"type": "function"
		},
		{
			"inputs": [
				{
					"internalType": "uint32",
					"name": "_dstEid",
					"type": "uint32"
				},
				{
					"internalType": "address",
					"name": "_jobMarketContract",
					"type": "address"
				},
				{
					"internalType": "uint256",
					"name": "jobId",
					"type": "uint256"
				},
				{
					"internalType": "string",
					"name": "applicationHash",
					"type": "string"
				},
				{
					"internalType": "uint256[]",
					"name": "milestonePayments",
					"type": "uint256[]"
				},
				{
					"internalType": "string",
					"name": "milestoneDetailsHash",
					"type": "string"
				},
				{
					"internalType": "bytes",
					"name": "_options",
					"type": "bytes"
				}
			],
			"name": "applyToJob",
			"outputs": [],
			"stateMutability": "payable",
			"type": "function"
		},
		{
			"inputs": [
				{
					"internalType": "uint32",
					"name": "_dstEid",
					"type": "uint32"
				},
				{
					"internalType": "address",
					"name": "_jobMarketContract",
					"type": "address"
				},
				{
					"internalType": "uint256",
					"name": "submissionId",
					"type": "uint256"
				},
				{
					"internalType": "bytes",
					"name": "_options",
					"type": "bytes"
				}
			],
			"name": "approveWork",
			"outputs": [],
			"stateMutability": "payable",
			"type": "function"
		},
		{
			"inputs": [
				{
					"internalType": "uint32",
					"name": "_dstEid",
					"type": "uint32"
				},
				{
					"internalType": "address",
					"name": "_userRegistryContract",
					"type": "address"
				},
				{
					"internalType": "string",
					"name": "name",
					"type": "string"
				},
				{
					"internalType": "string[]",
					"name": "skills",
					"type": "string[]"
				},
				{
					"internalType": "string",
					"name": "profileHash",
					"type": "string"
				},
				{
					"internalType": "bytes",
					"name": "_options",
					"type": "bytes"
				}
			],
			"name": "createUserProfile",
			"outputs": [],
			"stateMutability": "payable",
			"type": "function"
		},
		{
			"inputs": [],
			"name": "endpoint",
			"outputs": [
				{
					"internalType": "contract ILayerZeroEndpointV2",
					"name": "",
					"type": "address"
				}
			],
			"stateMutability": "view",
			"type": "function"
		},
		{
			"inputs": [
				{
					"internalType": "uint256",
					"name": "jobId",
					"type": "uint256"
				},
				{
					"internalType": "uint256",
					"name": "milestoneId",
					"type": "uint256"
				},
				{
					"internalType": "uint256",
					"name": "amount",
					"type": "uint256"
				}
			],
			"name": "fundMilestoneEscrow",
			"outputs": [],
			"stateMutability": "nonpayable",
			"type": "function"
		},
		{
			"inputs": [
				{
					"internalType": "uint256",
					"name": "jobId",
					"type": "uint256"
				}
			],
			"name": "getJobEscrow",
			"outputs": [
				{
					"internalType": "uint256",
					"name": "",
					"type": "uint256"
				}
			],
			"stateMutability": "view",
			"type": "function"
		},
		{
			"inputs": [
				{
					"components": [
						{
							"internalType": "uint32",
							"name": "srcEid",
							"type": "uint32"
						},
						{
							"internalType": "bytes32",
							"name": "sender",
							"type": "bytes32"
						},
						{
							"internalType": "uint64",
							"name": "nonce",
							"type": "uint64"
						}
					],
					"internalType": "struct Origin",
					"name": "",
					"type": "tuple"
				},
				{
					"internalType": "bytes",
					"name": "",
					"type": "bytes"
				},
				{
					"internalType": "address",
					"name": "_sender",
					"type": "address"
				}
			],
			"name": "isComposeMsgSender",
			"outputs": [
				{
					"internalType": "bool",
					"name": "",
					"type": "bool"
				}
			],
			"stateMutability": "view",
			"type": "function"
		},
		{
			"inputs": [
				{
					"internalType": "uint256",
					"name": "",
					"type": "uint256"
				}
			],
			"name": "jobEscrow",
			"outputs": [
				{
					"internalType": "uint256",
					"name": "",
					"type": "uint256"
				}
			],
			"stateMutability": "view",
			"type": "function"
		},
		{
			"inputs": [
				{
					"internalType": "uint256",
					"name": "",
					"type": "uint256"
				}
			],
			"name": "localJobStatus",
			"outputs": [
				{
					"internalType": "uint8",
					"name": "",
					"type": "uint8"
				}
			],
			"stateMutability": "view",
			"type": "function"
		},
		{
			"inputs": [
				{
					"components": [
						{
							"internalType": "uint32",
							"name": "srcEid",
							"type": "uint32"
						},
						{
							"internalType": "bytes32",
							"name": "sender",
							"type": "bytes32"
						},
						{
							"internalType": "uint64",
							"name": "nonce",
							"type": "uint64"
						}
					],
					"internalType": "struct Origin",
					"name": "_origin",
					"type": "tuple"
				},
				{
					"internalType": "bytes32",
					"name": "_guid",
					"type": "bytes32"
				},
				{
					"internalType": "bytes",
					"name": "_message",
					"type": "bytes"
				},
				{
					"internalType": "address",
					"name": "_executor",
					"type": "address"
				},
				{
					"internalType": "bytes",
					"name": "_extraData",
					"type": "bytes"
				}
			],
			"name": "lzReceive",
			"outputs": [],
			"stateMutability": "payable",
			"type": "function"
		},
		{
			"inputs": [
				{
					"internalType": "uint256",
					"name": "",
					"type": "uint256"
				},
				{
					"internalType": "uint256",
					"name": "",
					"type": "uint256"
				}
			],
			"name": "milestoneFundingStatus",
			"outputs": [
				{
					"internalType": "uint8",
					"name": "",
					"type": "uint8"
				}
			],
			"stateMutability": "view",
			"type": "function"
		},
		{
			"inputs": [
				{
					"internalType": "uint32",
					"name": "",
					"type": "uint32"
				},
				{
					"internalType": "bytes32",
					"name": "",
					"type": "bytes32"
				}
			],
			"name": "nextNonce",
			"outputs": [
				{
					"internalType": "uint64",
					"name": "nonce",
					"type": "uint64"
				}
			],
			"stateMutability": "view",
			"type": "function"
		},
		{
			"inputs": [],
			"name": "oAppVersion",
			"outputs": [
				{
					"internalType": "uint64",
					"name": "senderVersion",
					"type": "uint64"
				},
				{
					"internalType": "uint64",
					"name": "receiverVersion",
					"type": "uint64"
				}
			],
			"stateMutability": "pure",
			"type": "function"
		},
		{
			"inputs": [],
			"name": "owner",
			"outputs": [
				{
					"internalType": "address",
					"name": "",
					"type": "address"
				}
			],
			"stateMutability": "view",
			"type": "function"
		},
		{
			"inputs": [],
			"name": "paymentToken",
			"outputs": [
				{
					"internalType": "contract IERC20",
					"name": "",
					"type": "address"
				}
			],
			"stateMutability": "view",
			"type": "function"
		},
		{
			"inputs": [
				{
					"internalType": "uint32",
					"name": "eid",
					"type": "uint32"
				}
			],
			"name": "peers",
			"outputs": [
				{
					"internalType": "bytes32",
					"name": "peer",
					"type": "bytes32"
				}
			],
			"stateMutability": "view",
			"type": "function"
		},
		{
			"inputs": [
				{
					"internalType": "uint32",
					"name": "_dstEid",
					"type": "uint32"
				},
				{
					"internalType": "address",
					"name": "_jobMarketContract",
					"type": "address"
				},
				{
					"internalType": "string",
					"name": "jobDetailHash",
					"type": "string"
				},
				{
					"internalType": "uint256[]",
					"name": "milestonePayments",
					"type": "uint256[]"
				},
				{
					"internalType": "bytes",
					"name": "_options",
					"type": "bytes"
				}
			],
			"name": "postJob",
			"outputs": [],
			"stateMutability": "payable",
			"type": "function"
		},
		{
			"inputs": [
				{
					"internalType": "uint32",
					"name": "_dstEid",
					"type": "uint32"
				},
				{
					"internalType": "string",
					"name": "name",
					"type": "string"
				},
				{
					"internalType": "string[]",
					"name": "skills",
					"type": "string[]"
				},
				{
					"internalType": "string",
					"name": "profileHash",
					"type": "string"
				},
				{
					"internalType": "bytes",
					"name": "_options",
					"type": "bytes"
				}
			],
			"name": "quoteCreateUserProfile",
			"outputs": [
				{
					"components": [
						{
							"internalType": "uint256",
							"name": "nativeFee",
							"type": "uint256"
						},
						{
							"internalType": "uint256",
							"name": "lzTokenFee",
							"type": "uint256"
						}
					],
					"internalType": "struct MessagingFee",
					"name": "",
					"type": "tuple"
				}
			],
			"stateMutability": "view",
			"type": "function"
		},
		{
			"inputs": [
				{
					"internalType": "uint32",
					"name": "_dstEid",
					"type": "uint32"
				},
				{
					"internalType": "string",
					"name": "jobDetailHash",
					"type": "string"
				},
				{
					"internalType": "uint256[]",
					"name": "milestonePayments",
					"type": "uint256[]"
				},
				{
					"internalType": "bytes",
					"name": "_options",
					"type": "bytes"
				}
			],
			"name": "quotePostJob",
			"outputs": [
				{
					"components": [
						{
							"internalType": "uint256",
							"name": "nativeFee",
							"type": "uint256"
						},
						{
							"internalType": "uint256",
							"name": "lzTokenFee",
							"type": "uint256"
						}
					],
					"internalType": "struct MessagingFee",
					"name": "",
					"type": "tuple"
				}
			],
			"stateMutability": "view",
			"type": "function"
		},
		{
			"inputs": [
				{
					"internalType": "uint32",
					"name": "_dstEid",
					"type": "uint32"
				},
				{
					"internalType": "address",
					"name": "_userRegistryContract",
					"type": "address"
				},
				{
					"internalType": "uint256",
					"name": "jobId",
					"type": "uint256"
				},
				{
					"internalType": "address",
					"name": "user",
					"type": "address"
				},
				{
					"internalType": "uint8",
					"name": "rating",
					"type": "uint8"
				},
				{
					"internalType": "bytes",
					"name": "_options",
					"type": "bytes"
				}
			],
			"name": "rate",
			"outputs": [],
			"stateMutability": "payable",
			"type": "function"
		},
		{
			"inputs": [
				{
					"internalType": "address",
					"name": "tokenAddress",
					"type": "address"
				},
				{
					"internalType": "address",
					"name": "to",
					"type": "address"
				},
				{
					"internalType": "uint256",
					"name": "amount",
					"type": "uint256"
				}
			],
			"name": "recoverTokens",
			"outputs": [],
			"stateMutability": "nonpayable",
			"type": "function"
		},
		{
			"inputs": [
				{
					"internalType": "uint256",
					"name": "jobId",
					"type": "uint256"
				},
				{
					"internalType": "uint256",
					"name": "milestoneId",
					"type": "uint256"
				},
				{
					"internalType": "address",
					"name": "freelancer",
					"type": "address"
				}
			],
			"name": "releaseMilestonePayment",
			"outputs": [
				{
					"internalType": "uint256",
					"name": "",
					"type": "uint256"
				}
			],
			"stateMutability": "nonpayable",
			"type": "function"
		},
		{
			"inputs": [],
			"name": "renounceOwnership",
			"outputs": [],
			"stateMutability": "nonpayable",
			"type": "function"
		},
		{
			"inputs": [
				{
					"internalType": "address",
					"name": "_delegate",
					"type": "address"
				}
			],
			"name": "setDelegate",
			"outputs": [],
			"stateMutability": "nonpayable",
			"type": "function"
		},
		{
			"inputs": [
				{
					"internalType": "address",
					"name": "_paymentToken",
					"type": "address"
				}
			],
			"name": "setPaymentToken",
			"outputs": [],
			"stateMutability": "nonpayable",
			"type": "function"
		},
		{
			"inputs": [
				{
					"internalType": "uint32",
					"name": "_eid",
					"type": "uint32"
				},
				{
					"internalType": "bytes32",
					"name": "_peer",
					"type": "bytes32"
				}
			],
			"name": "setPeer",
			"outputs": [],
			"stateMutability": "nonpayable",
			"type": "function"
		},
		{
			"inputs": [
				{
					"internalType": "uint32",
					"name": "_dstEid",
					"type": "uint32"
				},
				{
					"internalType": "address",
					"name": "_jobMarketContract",
					"type": "address"
				},
				{
					"internalType": "uint256",
					"name": "jobId",
					"type": "uint256"
				},
				{
					"internalType": "string",
					"name": "workHash",
					"type": "string"
				},
				{
					"internalType": "string",
					"name": "comments",
					"type": "string"
				},
				{
					"internalType": "bytes",
					"name": "_options",
					"type": "bytes"
				}
			],
			"name": "submitWork",
			"outputs": [],
			"stateMutability": "payable",
			"type": "function"
		},
		{
			"inputs": [
				{
					"internalType": "address",
					"name": "newOwner",
					"type": "address"
				}
			],
			"name": "transferOwnership",
			"outputs": [],
			"stateMutability": "nonpayable",
			"type": "function"
		},
		{
			"stateMutability": "payable",
			"type": "receive"
		}
	]
}