{
	"data": {
		"bytecode": {
			"linkReferences": {},
			"object": "60a060405234801561001057600080fd5b5060405161501038038061501083398101604081905261002f9161016f565b81818181806001600160a01b03811661006257604051631e4fbdf760e01b81526000600482015260240160405180910390fd5b61006b81610103565b506001600160a01b03808316608052811661009957604051632d618d8160e21b815260040160405180910390fd5b60805160405163ca5eb5e160e01b81526001600160a01b0383811660048301529091169063ca5eb5e190602401600060405180830381600087803b1580156100e057600080fd5b505af11580156100f4573d6000803e3d6000fd5b505050505050505050506101a2565b600080546001600160a01b038381166001600160a01b0319831681178455604051919092169283917f8be0079c531659141344cd1fd0a4f28419497f9722a3daafe3b4186f6b6457e09190a35050565b80516001600160a01b038116811461016a57600080fd5b919050565b6000806040838503121561018257600080fd5b61018b83610153565b915061019960208401610153565b90509250929050565b608051614e456101cb6000396000818161048f01528181610bac01526127990152614e456000f3fe60806040526004361061027d5760003560e01c80639d89a1db1161014f578063cd2abd66116100c1578063e18977671161007a578063e189776714610860578063e5deef6d1461088d578063ead39a11146108ad578063f2fde38b146108dd578063f4f824bb146108fd578063ff7bd03d1461091d57600080fd5b8063cd2abd6614610790578063ced25488146107c0578063d9f76f62146107e0578063da8accf914610800578063dc404aff14610820578063dfa0dfa51461084057600080fd5b8063bb0b6a5311610113578063bb0b6a531461069b578063bbbacdfc146106c8578063bbe1562714610700578063be001f6f14610730578063bf22c45714610750578063ca5eb5e11461077057600080fd5b80639d89a1db146105eb578063a787c80b1461060b578063a83b083c1461063b578063a89c09491461065b578063b7a930831461067b57600080fd5b806350355d76116101f357806380fc9c0e116101ac57806380fc9c0e1461051157806382413eac14610531578063832a05b7146105605780638da5cb5b1461058d57806397e99a80146105ab578063992a80e4146105cb57600080fd5b806350355d76146104395780635abb964d1461045d5780635e280f111461047d578063715018a6146104b15780637d25a05e146104c657806380cd2580146104fe57600080fd5b8063248506c311610245578063248506c31461035c5780632c317eb21461037c578063315e65421461039c5780633400288b146103bc5780634cac35c6146103dc5780634d6861a61461040957600080fd5b80630f53a4701461028257806313137d65146102b857806317442b70146102cd578063180aedf3146102ef578063220cce9714610324575b600080fd5b34801561028e57600080fd5b506102a261029d3660046139a3565b61093d565b6040516102af9190613a73565b60405180910390f35b6102cb6102c6366004613b43565b610baa565b005b3480156102d957600080fd5b50604080516001815260026020820152016102af565b3480156102fb57600080fd5b5061030f61030a366004613be4565b610c65565b6040516102af99989796959493929190613bfd565b34801561033057600080fd5b50600b54610344906001600160a01b031681565b6040516001600160a01b0390911681526020016102af565b34801561036857600080fd5b506102cb610377366004613e31565b610d4e565b34801561038857600080fd5b506102cb610397366004613eb2565b610ff1565b3480156103a857600080fd5b506102cb6103b7366004613f01565b611184565b3480156103c857600080fd5b506102cb6103d7366004613f3c565b611193565b3480156103e857600080fd5b506103fc6103f7366004613be4565b6111a5565b6040516102af919061400e565b34801561041557600080fd5b50610429610424366004613be4565b611619565b60405190151581526020016102af565b34801561044557600080fd5b5061044f60095481565b6040519081526020016102af565b34801561046957600080fd5b506102cb610478366004614137565b611660565b34801561048957600080fd5b506103447f000000000000000000000000000000000000000000000000000000000000000081565b3480156104bd57600080fd5b506102cb611671565b3480156104d257600080fd5b506104e66104e1366004613f3c565b611685565b6040516001600160401b0390911681526020016102af565b6102cb61050c3660046141a7565b61168e565b34801561051d57600080fd5b5061044f61052c3660046139a3565b61169a565b34801561053d57600080fd5b5061042961054c366004614204565b6001600160a01b0381163014949350505050565b34801561056c57600080fd5b5061058061057b366004613f01565b611761565b6040516102af919061426a565b34801561059957600080fd5b506000546001600160a01b0316610344565b3480156105b757600080fd5b506102cb6105c6366004613f01565b6119e7565b3480156105d757600080fd5b506102cb6105e63660046142d9565b6119f2565b3480156105f757600080fd5b506102cb610606366004614305565b6119fd565b34801561061757600080fd5b506104296106263660046139a3565b60036020526000908152604090205460ff1681565b34801561064757600080fd5b506102cb610656366004614388565b611dc8565b34801561066757600080fd5b506102cb6106763660046143c0565b611dd0565b34801561068757600080fd5b506102cb610696366004614408565b612089565b3480156106a757600080fd5b5061044f6106b6366004614456565b60016020526000908152604090205481565b3480156106d457600080fd5b5061044f6106e3366004614471565b600760209081526000928352604080842090915290825290205481565b34801561070c57600080fd5b5061072061071b3660046139a3565b612252565b6040516102af94939291906144a1565b34801561073c57600080fd5b5061044f61074b3660046144e1565b612317565b34801561075c57600080fd5b506103fc61076b366004613be4565b612348565b34801561077c57600080fd5b506102cb61078b3660046139a3565b612772565b34801561079c57600080fd5b506104296107ab366004613be4565b600a6020526000908152604090205460ff1681565b3480156107cc57600080fd5b506102cb6107db3660046144ff565b6127f8565b3480156107ec57600080fd5b506102cb6107fb36600461453d565b612b0c565b34801561080c57600080fd5b506102cb61081b366004614572565b612c53565b34801561082c57600080fd5b506102cb61083b36600461453d565b612c5e565b34801561084c57600080fd5b506102cb61085b3660046139a3565b612efb565b34801561086c57600080fd5b5061044f61087b366004613be4565b60066020526000908152604090205481565b34801561089957600080fd5b506102cb6108a83660046145a2565b612f25565b3480156108b957600080fd5b506108cd6108c8366004613f01565b613101565b6040516102af94939291906145fb565b3480156108e957600080fd5b506102cb6108f83660046139a3565b6131c9565b34801561090957600080fd5b506102cb610918366004614628565b613207565b34801561092957600080fd5b50610429610938366004614670565b613213565b6040805160a08101825260008082526060602083018190529282018190528282015260808101919091526001600160a01b03821660009081526003602052604090205460ff166109cd5760405162461bcd60e51b8152602060048201526016602482015275141c9bd99a5b1948191bd95cc81b9bdd08195e1a5cdd60521b60448201526064015b60405180910390fd5b6001600160a01b03808316600090815260026020908152604091829020825160a081019093528054909316825260018301805492939291840191610a109061468c565b80601f0160208091040260200160405190810160405280929190818152602001828054610a3c9061468c565b8015610a895780601f10610a5e57610100808354040283529160200191610a89565b820191906000526020600020905b815481529060010190602001808311610a6c57829003601f168201915b505050505081526020016002820160009054906101000a90046001600160a01b03166001600160a01b03166001600160a01b031681526020016003820154815260200160048201805480602002602001604051908101604052809291908181526020016000905b82821015610b9c578382906000526020600020018054610b0f9061468c565b80601f0160208091040260200160405190810160405280929190818152602001828054610b3b9061468c565b8015610b885780601f10610b5d57610100808354040283529160200191610b88565b820191906000526020600020905b815481529060010190602001808311610b6b57829003601f168201915b505050505081526020019060010190610af0565b505050915250909392505050565b7f00000000000000000000000000000000000000000000000000000000000000006001600160a01b03163314610bf5576040516391ac5e4f60e01b81523360048201526024016109c4565b60208701803590610c0f90610c0a908a614456565b613249565b14610c4d57610c216020880188614456565b60405163309afaf360e21b815263ffffffff9091166004820152602088013560248201526044016109c4565b610c5c87878787878787613285565b50505050505050565b60046020526000908152604090208054600182015460038301805492936001600160a01b0390921692610c979061468c565b80601f0160208091040260200160405190810160405280929190818152602001828054610cc39061468c565b8015610d105780601f10610ce557610100808354040283529160200191610d10565b820191906000526020600020905b815481529060010190602001808311610cf357829003601f168201915b505050600484015460088501546009860154600a870154600b880154600c90980154969760ff90941696929550909350916001600160a01b03169089565b6001600160a01b03841660009081526003602052604090205460ff16610db65760405162461bcd60e51b815260206004820152601d60248201527f4d75737420686176652070726f66696c6520746f20706f7374206a6f6200000060448201526064016109c4565b6000825111610e075760405162461bcd60e51b815260206004820181905260248201527f4d7573742068617665206174206c65617374206f6e65206d696c6573746f6e6560448201526064016109c4565b6000805b8351811015610e4757838181518110610e2657610e266146c0565b60200260200101516020015182610e3d91906146ec565b9150600101610e0b565b50808214610eaa5760405162461bcd60e51b815260206004820152602a60248201527f5061796d656e74206d75737420657175616c20746f74616c206d696c6573746f6044820152696e6520616d6f756e747360b01b60648201526084016109c4565b60098054906000610eba836146ff565b909155505060095460008181526004602052604090209081556001810180546001600160a01b0319166001600160a01b03881617905560038101610efe868261475f565b5060048101805460ff1916600117905560006008820181905560098201849055600a8201819055600b820180546001600160a01b0319169055600c82018190555b8451811015610fa45781600601858281518110610f5e57610f5e6146c0565b60209081029190910181015182546001810184556000938452919092208251600290920201908190610f90908261475f565b506020919091015160019182015501610f3f565b50856001600160a01b03166009547f874d4755e4be9f976c7833fc413deb77c1acbf096d6535b71953c36eb838cf4087604051610fe19190614820565b60405180910390a3505050505050565b6001600160a01b03821660009081526003602052604090205460ff166110525760405162461bcd60e51b8152602060048201526016602482015275141c9bd99a5b1948191bd95cc81b9bdd08195e1a5cdd60521b60448201526064016109c4565b336001600160a01b038316146110b85760405162461bcd60e51b815260206004820152602560248201527f43616e206f6e6c792061646420706f7274666f6c696f20746f206f776e2070726044820152646f66696c6560d81b60648201526084016109c4565b60008151116111095760405162461bcd60e51b815260206004820152601e60248201527f506f7274666f6c696f20686173682063616e6e6f7420626520656d707479000060448201526064016109c4565b6001600160a01b03821660009081526002602090815260408220600401805460018101825590835291200161113e828261475f565b50816001600160a01b03167fcc18228e480194b6eb176cebd651be35a4eb3236a2461b112a3e89ea1b1c40dd826040516111789190614820565b60405180910390a25050565b61118f338383612b0c565b5050565b61119b613783565b61118f82826137b0565b6111ad613855565b60008281526004602052604081205490036111da5760405162461bcd60e51b81526004016109c490614833565b60008281526004602090815260409182902082516101a0810184528154815260018201546001600160a01b0316818401526002820180548551818602810186018752818152929593949386019383018282801561126057602002820191906000526020600020905b81546001600160a01b03168152600190910190602001808311611242575b505050505081526020016003820180546112799061468c565b80601f01602080910402602001604051908101604052809291908181526020018280546112a59061468c565b80156112f25780601f106112c7576101008083540402835291602001916112f2565b820191906000526020600020905b8154815290600101906020018083116112d557829003601f168201915b5050509183525050600482015460ff161515602080830191909152600583018054604080518285028101850182528281529401939260009084015b828210156113d957838290600052602060002001805461134c9061468c565b80601f01602080910402602001604051908101604052809291908181526020018280546113789061468c565b80156113c55780601f1061139a576101008083540402835291602001916113c5565b820191906000526020600020905b8154815290600101906020018083116113a857829003601f168201915b50505050508152602001906001019061132d565b50505050815260200160068201805480602002602001604051908101604052809291908181526020016000905b828210156114d457838290600052602060002090600202016040518060400160405290816000820180546114399061468c565b80601f01602080910402602001604051908101604052809291908181526020018280546114659061468c565b80156114b25780601f10611487576101008083540402835291602001916114b2565b820191906000526020600020905b81548152906001019060200180831161149557829003601f168201915b5050505050815260200160018201548152505081526020019060010190611406565b50505050815260200160078201805480602002602001604051908101604052809291908181526020016000905b828210156115cf57838290600052602060002090600202016040518060400160405290816000820180546115349061468c565b80601f01602080910402602001604051908101604052809291908181526020018280546115609061468c565b80156115ad5780601f10611582576101008083540402835291602001916115ad565b820191906000526020600020905b81548152906001019060200180831161159057829003601f168201915b5050505050815260200160018201548152505081526020019060010190611501565b505050908252506008820154602082015260098201546040820152600a8201546060820152600b8201546001600160a01b03166080820152600c9091015460a09091015292915050565b60008181526004602052604081205481036116465760405162461bcd60e51b81526004016109c490614833565b506000908152600460208190526040909120015460ff1690565b61166c338484846119fd565b505050565b611679613783565b6116836000613805565b565b60005b92915050565b61118f33838334610d4e565b6001600160a01b0381166000908152600860209081526040808320805482518185028101850190935280835284938301828280156116f757602002820191906000526020600020905b8154815260200190600101908083116116e3575b5050505050905080516000036117105750600092915050565b6000805b825181101561174c5782818151811061172f5761172f6146c0565b60200260200101518261174291906146ec565b9150600101611714565b508151611759908261485f565b949350505050565b61179c6040518060a00160405280600081526020016000815260200160006001600160a01b0316815260200160608152602001606081525090565b600083815260056020908152604080832085845290915281205490036118045760405162461bcd60e51b815260206004820152601a60248201527f4170706c69636174696f6e20646f6573206e6f7420657869737400000000000060448201526064016109c4565b6000838152600560209081526040808320858452825291829020825160a0810184528154815260018201549281019290925260028101546001600160a01b0316928201929092526003820180549192916060840191906118639061468c565b80601f016020809104026020016040519081016040528092919081815260200182805461188f9061468c565b80156118dc5780601f106118b1576101008083540402835291602001916118dc565b820191906000526020600020905b8154815290600101906020018083116118bf57829003601f168201915b5050505050815260200160048201805480602002602001604051908101604052809291908181526020016000905b828210156119d8578382906000526020600020906002020160405180604001604052908160008201805461193d9061468c565b80601f01602080910402602001604051908101604052809291908181526020018280546119699061468c565b80156119b65780601f1061198b576101008083540402835291602001916119b6565b820191906000526020600020905b81548152906001019060200180831161199957829003601f168201915b505050505081526020016001820154815250508152602001906001019061190a565b50505091525090949350505050565b61118f338383612c5e565b61118f3383836127f8565b6001600160a01b03841660009081526003602052604090205460ff16611a655760405162461bcd60e51b815260206004820152601a60248201527f4d75737420686176652070726f66696c6520746f206170706c7900000000000060448201526064016109c4565b6000838152600460205260408120549003611a925760405162461bcd60e51b81526004016109c490614833565b6000838152600460208190526040909120015460ff16611ae65760405162461bcd60e51b815260206004820152600f60248201526e2537b11034b9903737ba1037b832b760891b60448201526064016109c4565b6000838152600460205260409020600101546001600160a01b03808616911603611b525760405162461bcd60e51b815260206004820152601760248201527f43616e6e6f74206170706c7920746f206f776e206a6f6200000000000000000060448201526064016109c4565b6000815111611baf5760405162461bcd60e51b815260206004820152602360248201527f4d7573742070726f706f7365206174206c65617374206f6e65206d696c6573746044820152626f6e6560e81b60648201526084016109c4565b60005b600084815260046020526040902060020154811015611c6457600084815260046020526040902060020180546001600160a01b038716919083908110611bfa57611bfa6146c0565b6000918252602090912001546001600160a01b031603611c5c5760405162461bcd60e51b815260206004820152601b60248201527f416c7265616479206170706c69656420746f2074686973206a6f62000000000060448201526064016109c4565b600101611bb2565b50600083815260046020908152604080832060020180546001810182559084528284200180546001600160a01b0319166001600160a01b03891617905585835260069091528120805491611cb7836146ff565b909155505060008381526006602090815260408083205460058352818420818552909252909120818155600181018590556002810180546001600160a01b0319166001600160a01b03881617905560038101611d13858261475f565b5060005b8351811015611d7c5781600401848281518110611d3657611d366146c0565b60209081029190910181015182546001810184556000938452919092208251600290920201908190611d68908261475f565b506020919091015160019182015501611d17565b50856001600160a01b031682867f5753f04758d72c07ffc0a1f59241391a57ce340804ebdda56f510ef21e83ebf087604051611db89190614820565b60405180910390a4505050505050565b61166c338484845b6000838152600460205260408120549003611dfd5760405162461bcd60e51b81526004016109c490614833565b6000838152600460208190526040909120015460ff1615611e305760405162461bcd60e51b81526004016109c490614881565b60018110158015611e42575060058111155b611e8e5760405162461bcd60e51b815260206004820152601e60248201527f526174696e67206d757374206265206265747765656e203120616e642035000060448201526064016109c4565b60008381526007602090815260408083206001600160a01b038616845290915290205415611efe5760405162461bcd60e51b815260206004820152601f60248201527f5573657220616c726561647920726174656420666f722074686973206a6f620060448201526064016109c4565b6000838152600460205260408120600101546001600160a01b038681169116148015611f4657506000848152600460205260409020600b01546001600160a01b038481169116145b15611f5357506001611fa4565b6000848152600460205260409020600b01546001600160a01b038681169116148015611f9b57506000848152600460205260409020600101546001600160a01b038481169116145b15611fa4575060015b806120075760405162461bcd60e51b815260206004820152602d60248201527f4e6f7420617574686f72697a656420746f20726174652074686973207573657260448201526c103337b9103a3434b9903537b160991b60648201526084016109c4565b60008481526007602090815260408083206001600160a01b03878116808652918452828520879055600884528285208054600181018255908652948490209094018690559051858152909288169187917fabfdb5ca6197e86c57b31cffb45dac27a3eff08d7e825b6f1fb66c2c06fef6d7910160405180910390a45050505050565b60008281526004602052604081205490036120b65760405162461bcd60e51b81526004016109c490614833565b6000828152600460208190526040909120015460ff16156120e95760405162461bcd60e51b81526004016109c490614881565b6000828152600460205260409020600b01546001600160a01b038481169116146121655760405162461bcd60e51b815260206004820152602760248201527f4f6e6c792073656c6563746564206170706c6963616e742063616e207375626d604482015266697420776f726b60c81b60648201526084016109c4565b60008281526004602052604090206007810154600a9091015411156121c75760405162461bcd60e51b8152602060048201526018602482015277105b1b081b5a5b195cdd1bdb995cc818dbdb5c1b195d195960421b60448201526064016109c4565b6000828152600460209081526040822060050180546001810182559083529120016121f2828261475f565b50826001600160a01b0316827f1ab2c8b3db130b04659c610d59cd31e68a4d43f1e7b4cdb8e98d9571c9c6bfd68360046000878152602001908152602001600020600a01546040516122459291906148ae565b60405180910390a3505050565b600260205260009081526040902080546001820180546001600160a01b03909216929161227e9061468c565b80601f01602080910402602001604051908101604052809291908181526020018280546122aa9061468c565b80156122f75780601f106122cc576101008083540402835291602001916122f7565b820191906000526020600020905b8154815290600101906020018083116122da57829003601f168201915b50505050600283015460039093015491926001600160a01b031691905084565b6008602052816000526040600020818154811061233357600080fd5b90600052602060002001600091509150505481565b612350613855565b600082815260046020526040812054900361237d5760405162461bcd60e51b81526004016109c490614833565b60008281526004602090815260409182902082516101a0810184528154815260018201546001600160a01b0316818401526002820180548551818602810186018752818152929593949386019383018282801561240357602002820191906000526020600020905b81546001600160a01b031681526001909101906020018083116123e5575b5050505050815260200160038201805461241c9061468c565b80601f01602080910402602001604051908101604052809291908181526020018280546124489061468c565b80156124955780601f1061246a57610100808354040283529160200191612495565b820191906000526020600020905b81548152906001019060200180831161247857829003601f168201915b5050509183525050600482015460ff161515602080830191909152600583018054604080518285028101850182528281529401939260009084015b8282101561257c5783829060005260206000200180546124ef9061468c565b80601f016020809104026020016040519081016040528092919081815260200182805461251b9061468c565b80156125685780601f1061253d57610100808354040283529160200191612568565b820191906000526020600020905b81548152906001019060200180831161254b57829003601f168201915b5050505050815260200190600101906124d0565b50505050815260200160068201805480602002602001604051908101604052809291908181526020016000905b8282101561267757838290600052602060002090600202016040518060400160405290816000820180546125dc9061468c565b80601f01602080910402602001604051908101604052809291908181526020018280546126089061468c565b80156126555780601f1061262a57610100808354040283529160200191612655565b820191906000526020600020905b81548152906001019060200180831161263857829003601f168201915b50505050508152602001600182015481525050815260200190600101906125a9565b50505050815260200160078201805480602002602001604051908101604052809291908181526020016000905b828210156115cf57838290600052602060002090600202016040518060400160405290816000820180546126d79061468c565b80601f01602080910402602001604051908101604052809291908181526020018280546127039061468c565b80156127505780601f1061272557610100808354040283529160200191612750565b820191906000526020600020905b81548152906001019060200180831161273357829003601f168201915b50505050508152602001600182015481525050815260200190600101906126a4565b61277a613783565b60405163ca5eb5e160e01b81526001600160a01b0382811660048301527f0000000000000000000000000000000000000000000000000000000000000000169063ca5eb5e190602401600060405180830381600087803b1580156127dd57600080fd5b505af11580156127f1573d6000803e3d6000fd5b5050505050565b600060015b600954811161284157600081815260056020908152604080832087845290915290205484900361282f57809150612841565b80612839816146ff565b9150506127fd565b50806000036128925760405162461bcd60e51b815260206004820152601a60248201527f4170706c69636174696f6e20646f6573206e6f7420657869737400000000000060448201526064016109c4565b60008181526005602090815260408083208684528252808320848452600490925290912060018101546001600160a01b038781169116146129155760405162461bcd60e51b815260206004820152601c60248201527f4f6e6c79206a6f622067697665722063616e207374617274206a6f620000000060448201526064016109c4565b600481015460ff1661295b5760405162461bcd60e51b815260206004820152600f60248201526e2537b11034b9903737ba1037b832b760891b60448201526064016109c4565b60028201546001600160a01b03166129ab5760405162461bcd60e51b815260206004820152601360248201527224b73b30b634b21030b8383634b1b0ba34b7b760691b60448201526064016109c4565b6002820154600b820180546001600160a01b0319166001600160a01b03909216919091179055600c810185905560048101805460ff191690556001600a8201558315612a5d5760005b6004830154811015612a575781600701836004018281548110612a1957612a196146c0565b6000918252602080832084546001810186559484529220600291820290920192020180612a4683826148d0565b5060019182015490820155016129f4565b50612ac5565b60005b6006820154811015612ac35781600701826006018281548110612a8557612a856146c0565b6000918252602080832084546001810186559484529220600291820290920192020180612ab283826148d0565b506001918201549082015501612a60565b505b600282015460405185151581526001600160a01b0390911690869085907ffca563cb5e680cd8fe4d8893c20edf9cc5b59f6e8b460ecdad7aa359a786cf6590602001611db8565b6000828152600460205260408120549003612b395760405162461bcd60e51b81526004016109c490614833565b6000828152600460208190526040909120015460ff1615612b6c5760405162461bcd60e51b81526004016109c490614881565b60008281526004602052604090206007810154600a9091015410612bd25760405162461bcd60e51b815260206004820181905260248201527f416c6c206d696c6573746f6e657320616c726561647920636f6d706c6574656460448201526064016109c4565b6000828152600460205260408120600a01805460019290612bf49084906146ec565b909155505060008281526004602090815260409182902060098101849055600a0154825190815290810183905283917fe60846a8f6e10630b3d17d79f8aa4962e7a3abe024c788262ec30bc55d17b797910160405180910390a2505050565b61118f338383612089565b6000828152600460205260408120549003612c8b5760405162461bcd60e51b81526004016109c490614833565b6000828152600460205260409020600101546001600160a01b03848116911614612d025760405162461bcd60e51b815260206004820152602260248201527f4f6e6c79206a6f622067697665722063616e2072656c65617365207061796d656044820152611b9d60f21b60648201526084016109c4565b6000828152600460208190526040909120015460ff1615612d355760405162461bcd60e51b81526004016109c490614881565b6000828152600460205260409020600b01546001600160a01b0316612d945760405162461bcd60e51b8152602060048201526015602482015274139bc8185c1c1b1a58d85b9d081cd95b1958dd1959605a1b60448201526064016109c4565b60008281526004602052604090206007810154600a909101541115612df65760405162461bcd60e51b8152602060048201526018602482015277105b1b081b5a5b195cdd1bdb995cc818dbdb5c1b195d195960421b60448201526064016109c4565b60008281526004602052604081206008018054839290612e179084906146ec565b9091555050600b546001600160a01b031615612e9357600b546040516312fca10360e31b815260048101849052602481018390526001600160a01b03909116906397e5081890604401600060405180830381600087803b158015612e7a57600080fd5b505af1158015612e8e573d6000803e3d6000fd5b505050505b600082815260046020908152604091829020600b810154600a909101548351858152928301526001600160a01b03908116929086169185917fd6879b8e4639bf88a9ca9e3122b381ed4a48625f051842c7e6885f72ef00f479910160405180910390a4505050565b612f03613783565b600b80546001600160a01b0319166001600160a01b0392909216919091179055565b6001600160a01b03841660009081526003602052604090205460ff1615612f875760405162461bcd60e51b815260206004820152601660248201527550726f66696c6520616c72656164792065786973747360501b60448201526064016109c4565b6040518060a00160405280856001600160a01b03168152602001848152602001836001600160a01b0316815260200182815260200160006001600160401b03811115612fd557612fd5613c65565b60405190808252806020026020018201604052801561300857816020015b6060815260200190600190039081612ff35790505b5090526001600160a01b038581166000908152600260209081526040909120835181546001600160a01b0319169316929092178255820151600182019061304f908261475f565b5060408201516002820180546001600160a01b0319166001600160a01b03909216919091179055606082015160038201556080820151805161309b9160048401916020909101906138d1565b5050506001600160a01b03841660008181526003602052604090819020805460ff19166001179055517f5874afb0d71e1f97e546fc6b15493e51e5ccbefa591556f8c6a80c8c5151a84f906130f390869086906149a4565b60405180910390a250505050565b60056020908152600092835260408084209091529082529020805460018201546002830154600384018054939492936001600160a01b0390921692916131469061468c565b80601f01602080910402602001604051908101604052809291908181526020018280546131729061468c565b80156131bf5780601f10613194576101008083540402835291602001916131bf565b820191906000526020600020905b8154815290600101906020018083116131a257829003601f168201915b5050505050905084565b6131d1613783565b6001600160a01b0381166131fb57604051631e4fbdf760e01b8152600060048201526024016109c4565b61320481613805565b50565b61166c33848484612f25565b600060208201803590600190839061322b9086614456565b63ffffffff1681526020810191909152604001600020541492915050565b63ffffffff8116600090815260016020526040812054806116885760405163f6ff4fb760e01b815263ffffffff841660048201526024016109c4565b6000868152600a602052604090205460ff16156132e45760405162461bcd60e51b815260206004820152601860248201527f4d65737361676520616c7265616479206578656375746564000000000000000060448201526064016109c4565b6000868152600a60205260408120805460ff19166001179055613309858701876149ce565b9050336001600160a01b0316816040516133239190614a02565b6040519081900381209089907f5a6cc5a65c270a83d2964f1dc0d5b6b345c1aceb3f47ccba69bc75717630512690600090a460408051808201909152600e81526d4352454154455f50524f46494c4560901b6020918201528151908201207fa4c6c5d741cc3b640f2d5a849409552e25d1193d542af6c32b92e821b8923236016133d65760008080806133b8898b018b614a1e565b9450945094509450506133cd84848484612f25565b50505050613779565b6040805180820190915260088152672827a9aa2fa527a160c11b6020918201528151908201207f0c3ef3e378689bb49c52bf3c6c3b1e2ae10691385a691cf00d777c75763414bd01613448576000808080613433898b018b614ab2565b9450945094509450506133cd84848484610d4e565b60408051808201909152600c81526b20a828262cafaa27afa527a160a11b6020918201528151908201207fc2d7c2b4ddee35e9c9c488d48ea07c3dfd0eb23f7f722aa027797ecd0439c9a7016134be5760008080806134a9898b018b614b5e565b9450945094509450506133cd848484846119fd565b60408051808201909152600981526829aa20a92a2fa527a160b91b6020918201528151908201207f958ad0391719420fc13ce18673c271b3c10483b1ded1d897959e64c0226b063601613535576000808061351b888a018a614c0c565b9350935093505061352d8383836127f8565b505050613779565b60408051808201909152600b81526a5355424d49545f574f524b60a81b6020918201528151908201207fa1727a5db69ab5f66aa3130f3696b97337cd1494e442d1fbcca529fa9db6d31b016135a65760008080613594888a018a614c75565b9350935093505061352d838383612089565b60408051808201909152600f81526e149153115054d157d4105653515395608a1b6020918201528151908201207f5993f055a8b2e0091d9e95bc098f92190a2f1e485b255835f749b7c6cba1e30b0161361b5760008080613609888a018a614cec565b9350935093505061352d838383612c5e565b6040805180820190915260138152724c4f434b5f4e4558545f4d494c4553544f4e4560681b6020918201528151908201207f92cdf19ab628ce526bae7529871630c52245f0976fe1eaa034700baa4b49aa16016136945760008080613682888a018a614cec565b9350935093505061352d838383612b0c565b6040805180820190915260098152682920aa22afaaa9a2a960b91b6020918201528151908201207f14c18a97b33195108aeef431d93081248a69532971fb84f3b8c1edc0d9d404d1016137075760008080806136f2898b018b614d4a565b9450945094509450506133cd84848484611dd0565b60408051808201909152600d81526c4144445f504f5254464f4c494f60981b6020918201528151908201207fbf9ce5c45a543f06fb7259612afbf5ddcbf73e06dd8753717dff4f12c5b21989016137795760008061376787890189614dac565b92509250506137768282610ff1565b50505b5050505050505050565b6000546001600160a01b031633146116835760405163118cdaa760e01b81523360048201526024016109c4565b63ffffffff8216600081815260016020908152604091829020849055815192835282018390527f238399d427b947898edb290f5ff0f9109849b1c3ba196a42e35f00c50a54b98b910160405180910390a15050565b600080546001600160a01b038381166001600160a01b0319831681178455604051919092169283917f8be0079c531659141344cd1fd0a4f28419497f9722a3daafe3b4186f6b6457e09190a35050565b604051806101a001604052806000815260200160006001600160a01b03168152602001606081526020016060815260200160001515815260200160608152602001606081526020016060815260200160008152602001600081526020016000815260200160006001600160a01b03168152602001600081525090565b828054828255906000526020600020908101928215613917579160200282015b828111156139175782518290613907908261475f565b50916020019190600101906138f1565b50613923929150613927565b5090565b8082111561392357600061393b8282613944565b50600101613927565b5080546139509061468c565b6000825580601f10613960575050565b601f01602090049060005260206000209081019061320491905b80821115613923576000815560010161397a565b6001600160a01b038116811461320457600080fd5b6000602082840312156139b557600080fd5b81356139c08161398e565b9392505050565b60005b838110156139e25781810151838201526020016139ca565b50506000910152565b60008151808452613a038160208601602086016139c7565b601f01601f19169290920160200192915050565b600082825180855260208501945060208160051b8301016020850160005b83811015613a6757601f19858403018852613a518383516139eb565b6020988901989093509190910190600101613a35565b50909695505050505050565b602080825282516001600160a01b03168282015282015160a06040830152600090613aa160c08401826139eb565b905060018060a01b036040850151166060840152606084015160808401526080840151601f198483030160a0850152613ada8282613a17565b95945050505050565b600060608284031215613af557600080fd5b50919050565b60008083601f840112613b0d57600080fd5b5081356001600160401b03811115613b2457600080fd5b602083019150836020828501011115613b3c57600080fd5b9250929050565b600080600080600080600060e0888a031215613b5e57600080fd5b613b688989613ae3565b96506060880135955060808801356001600160401b03811115613b8a57600080fd5b613b968a828b01613afb565b90965094505060a0880135613baa8161398e565b925060c08801356001600160401b03811115613bc557600080fd5b613bd18a828b01613afb565b989b979a50959850939692959293505050565b600060208284031215613bf657600080fd5b5035919050565b8981526001600160a01b038916602082015261012060408201819052600090613c289083018a6139eb565b971515606083015250608081019590955260a085019390935260c08401919091526001600160a01b031660e0830152610100909101529392505050565b634e487b7160e01b600052604160045260246000fd5b604080519081016001600160401b0381118282101715613c9d57613c9d613c65565b60405290565b604051601f8201601f191681016001600160401b0381118282101715613ccb57613ccb613c65565b604052919050565b600082601f830112613ce457600080fd5b81356001600160401b03811115613cfd57613cfd613c65565b613d10601f8201601f1916602001613ca3565b818152846020838601011115613d2557600080fd5b816020850160208301376000918101602001919091529392505050565b600082601f830112613d5357600080fd5b81356001600160401b03811115613d6c57613d6c613c65565b8060051b613d7c60208201613ca3565b91825260208185018101929081019086841115613d9857600080fd5b6020860192505b83831015613e275782356001600160401b03811115613dbd57600080fd5b86016040818903601f19011215613dd357600080fd5b613ddb613c7b565b60208201356001600160401b03811115613df457600080fd5b613e038a602083860101613cd3565b82525060409190910135602080830191909152908352928301929190910190613d9f565b9695505050505050565b60008060008060808587031215613e4757600080fd5b8435613e528161398e565b935060208501356001600160401b03811115613e6d57600080fd5b613e7987828801613cd3565b93505060408501356001600160401b03811115613e9557600080fd5b613ea187828801613d42565b949793965093946060013593505050565b60008060408385031215613ec557600080fd5b8235613ed08161398e565b915060208301356001600160401b03811115613eeb57600080fd5b613ef785828601613cd3565b9150509250929050565b60008060408385031215613f1457600080fd5b50508035926020909101359150565b803563ffffffff81168114613f3757600080fd5b919050565b60008060408385031215613f4f57600080fd5b613f5883613f23565b946020939093013593505050565b600081518084526020840193506020830160005b82811015613fa15781516001600160a01b0316865260209586019590910190600101613f7a565b5093949350505050565b600082825180855260208501945060208160051b8301016020850160005b83811015613a6757601f198584030188528151805160408552613fef60408601826139eb565b6020928301519583019590955250978801979190910190600101613fc9565b60208152815160208201526000602083015161403560408401826001600160a01b03169052565b5060408301516101a060608401526140516101c0840182613f66565b90506060840151601f1984830301608085015261406e82826139eb565b915050608084015161408460a085018215159052565b5060a0840151838203601f190160c08501526140a08282613a17565b91505060c0840151601f198483030160e08501526140be8282613fab565b91505060e0840151601f19848303016101008501526140dd8282613fab565b9150506101008401516101208401526101208401516101408401526101408401516101608401526101608401516141206101808501826001600160a01b03169052565b506101808401516101a08401528091505092915050565b60008060006060848603121561414c57600080fd5b8335925060208401356001600160401b0381111561416957600080fd5b61417586828701613cd3565b92505060408401356001600160401b0381111561419157600080fd5b61419d86828701613d42565b9150509250925092565b600080604083850312156141ba57600080fd5b82356001600160401b038111156141d057600080fd5b6141dc85828601613cd3565b92505060208301356001600160401b038111156141f857600080fd5b613ef785828601613d42565b60008060008060a0858703121561421a57600080fd5b6142248686613ae3565b935060608501356001600160401b0381111561423f57600080fd5b61424b87828801613afb565b909450925050608085013561425f8161398e565b939692955090935050565b60208152815160208201526020820151604082015260018060a01b0360408301511660608201526000606083015160a060808401526142ac60c08401826139eb565b90506080840151601f198483030160a0850152613ada8282613fab565b80358015158114613f3757600080fd5b600080604083850312156142ec57600080fd5b823591506142fc602084016142c9565b90509250929050565b6000806000806080858703121561431b57600080fd5b84356143268161398e565b93506020850135925060408501356001600160401b0381111561434857600080fd5b61435487828801613cd3565b92505060608501356001600160401b0381111561437057600080fd5b61437c87828801613d42565b91505092959194509250565b60008060006060848603121561439d57600080fd5b8335925060208401356143af8161398e565b929592945050506040919091013590565b600080600080608085870312156143d657600080fd5b84356143e18161398e565b93506020850135925060408501356143f88161398e565b9396929550929360600135925050565b60008060006060848603121561441d57600080fd5b83356144288161398e565b92506020840135915060408401356001600160401b0381111561444a57600080fd5b61419d86828701613cd3565b60006020828403121561446857600080fd5b6139c082613f23565b6000806040838503121561448457600080fd5b8235915060208301356144968161398e565b809150509250929050565b6001600160a01b03851681526080602082018190526000906144c5908301866139eb565b6001600160a01b03949094166040830152506060015292915050565b600080604083850312156144f457600080fd5b8235613f588161398e565b60008060006060848603121561451457600080fd5b833561451f8161398e565b925060208401359150614534604085016142c9565b90509250925092565b60008060006060848603121561455257600080fd5b833561455d8161398e565b95602085013595506040909401359392505050565b6000806040838503121561458557600080fd5b8235915060208301356001600160401b03811115613eeb57600080fd5b600080600080608085870312156145b857600080fd5b84356145c38161398e565b935060208501356001600160401b038111156145de57600080fd5b6145ea87828801613cd3565b93505060408501356143f88161398e565b84815283602082015260018060a01b0383166040820152608060608201526000613e2760808301846139eb565b60008060006060848603121561463d57600080fd5b83356001600160401b0381111561465357600080fd5b61465f86828701613cd3565b93505060208401356143af8161398e565b60006060828403121561468257600080fd5b6139c08383613ae3565b600181811c908216806146a057607f821691505b602082108103613af557634e487b7160e01b600052602260045260246000fd5b634e487b7160e01b600052603260045260246000fd5b634e487b7160e01b600052601160045260246000fd5b80820180821115611688576116886146d6565b600060018201614711576147116146d6565b5060010190565b601f82111561166c57806000526020600020601f840160051c8101602085101561473f5750805b601f840160051c820191505b818110156127f1576000815560010161474b565b81516001600160401b0381111561477857614778613c65565b61478c81614786845461468c565b84614718565b6020601f8211600181146147c357600083156147a85750848201515b600184901b600019600386901b1c198216175b8555506127f1565b600084815260208120601f198516915b828110156147f357878501518255602094850194600190920191016147d3565b50848210156148115786840151600019600387901b60f8161c191681555b50505050600190811b01905550565b6020815260006139c060208301846139eb565b602080825260129082015271129bd888191bd95cc81b9bdd08195e1a5cdd60721b604082015260600190565b60008261487c57634e487b7160e01b600052601260045260246000fd5b500490565b602080825260139082015272129bd8881b5d5cdd081899481cdd185c9d1959606a1b604082015260600190565b6040815260006148c160408301856139eb565b90508260208301529392505050565b8181036148db575050565b6148e5825461468c565b6001600160401b038111156148fc576148fc613c65565b61490a81614786845461468c565b6000601f82116001811461493c57600083156147a8575081850154600184901b600019600386901b1c198216176147bb565b600085815260209020601f19841690600086815260209020845b838110156149765782860154825560019586019590910190602001614956565b50858310156149945781850154600019600388901b60f8161c191681555b5050505050600190811b01905550565b6040815260006149b760408301856139eb565b905060018060a01b03831660208301529392505050565b6000602082840312156149e057600080fd5b81356001600160401b038111156149f657600080fd5b61175984828501613cd3565b60008251614a148184602087016139c7565b9190910192915050565b600080600080600060a08688031215614a3657600080fd5b85356001600160401b03811115614a4c57600080fd5b614a5888828901613cd3565b9550506020860135614a698161398e565b935060408601356001600160401b03811115614a8457600080fd5b614a9088828901613cd3565b9350506060860135614aa18161398e565b949793965091946080013592915050565b600080600080600060a08688031215614aca57600080fd5b85356001600160401b03811115614ae057600080fd5b614aec88828901613cd3565b9550506020860135614afd8161398e565b935060408601356001600160401b03811115614b1857600080fd5b614b2488828901613cd3565b93505060608601356001600160401b03811115614b4057600080fd5b614b4c88828901613d42565b95989497509295608001359392505050565b600080600080600060a08688031215614b7657600080fd5b85356001600160401b03811115614b8c57600080fd5b614b9888828901613cd3565b9550506020860135614ba98161398e565b93506040860135925060608601356001600160401b03811115614bcb57600080fd5b614bd788828901613cd3565b92505060808601356001600160401b03811115614bf357600080fd5b614bff88828901613d42565b9150509295509295909350565b60008060008060808587031215614c2257600080fd5b84356001600160401b03811115614c3857600080fd5b614c4487828801613cd3565b9450506020850135614c558161398e565b925060408501359150614c6a606086016142c9565b905092959194509250565b60008060008060808587031215614c8b57600080fd5b84356001600160401b03811115614ca157600080fd5b614cad87828801613cd3565b9450506020850135614cbe8161398e565b92506040850135915060608501356001600160401b03811115614ce057600080fd5b61437c87828801613cd3565b60008060008060808587031215614d0257600080fd5b84356001600160401b03811115614d1857600080fd5b614d2487828801613cd3565b9450506020850135614d358161398e565b93969395505050506040820135916060013590565b600080600080600060a08688031215614d6257600080fd5b85356001600160401b03811115614d7857600080fd5b614d8488828901613cd3565b9550506020860135614d958161398e565b9350604086013592506060860135614aa18161398e565b600080600060608486031215614dc157600080fd5b83356001600160401b03811115614dd757600080fd5b614de386828701613cd3565b9350506020840135614df48161398e565b915060408401356001600160401b0381111561444a57600080fdfea264697066735822122054871e8d843c0f78ded31babc34f5b5c9556de3bb4a4c59fd4389668f168078764736f6c634300081c0033",
			"opcodes": "PUSH1 0xA0 PUSH1 0x40 MSTORE CALLVALUE DUP1 ISZERO PUSH2 0x10 JUMPI PUSH1 0x0 DUP1 REVERT JUMPDEST POP PUSH1 0x40 MLOAD PUSH2 0x5010 CODESIZE SUB DUP1 PUSH2 0x5010 DUP4 CODECOPY DUP2 ADD PUSH1 0x40 DUP2 SWAP1 MSTORE PUSH2 0x2F SWAP2 PUSH2 0x16F JUMP JUMPDEST DUP2 DUP2 DUP2 DUP2 DUP1 PUSH1 0x1 PUSH1 0x1 PUSH1 0xA0 SHL SUB DUP2 AND PUSH2 0x62 JUMPI PUSH1 0x40 MLOAD PUSH4 0x1E4FBDF7 PUSH1 0xE0 SHL DUP2 MSTORE PUSH1 0x0 PUSH1 0x4 DUP3 ADD MSTORE PUSH1 0x24 ADD PUSH1 0x40 MLOAD DUP1 SWAP2 SUB SWAP1 REVERT JUMPDEST PUSH2 0x6B DUP2 PUSH2 0x103 JUMP JUMPDEST POP PUSH1 0x1 PUSH1 0x1 PUSH1 0xA0 SHL SUB DUP1 DUP4 AND PUSH1 0x80 MSTORE DUP2 AND PUSH2 0x99 JUMPI PUSH1 0x40 MLOAD PUSH4 0x2D618D81 PUSH1 0xE2 SHL DUP2 MSTORE PUSH1 0x4 ADD PUSH1 0x40 MLOAD DUP1 SWAP2 SUB SWAP1 REVERT JUMPDEST PUSH1 0x80 MLOAD PUSH1 0x40 MLOAD PUSH4 0xCA5EB5E1 PUSH1 0xE0 SHL DUP2 MSTORE PUSH1 0x1 PUSH1 0x1 PUSH1 0xA0 SHL SUB DUP4 DUP2 AND PUSH1 0x4 DUP4 ADD MSTORE SWAP1 SWAP2 AND SWAP1 PUSH4 0xCA5EB5E1 SWAP1 PUSH1 0x24 ADD PUSH1 0x0 PUSH1 0x40 MLOAD DUP1 DUP4 SUB DUP2 PUSH1 0x0 DUP8 DUP1 EXTCODESIZE ISZERO DUP1 ISZERO PUSH2 0xE0 JUMPI PUSH1 0x0 DUP1 REVERT JUMPDEST POP GAS CALL ISZERO DUP1 ISZERO PUSH2 0xF4 JUMPI RETURNDATASIZE PUSH1 0x0 DUP1 RETURNDATACOPY RETURNDATASIZE PUSH1 0x0 REVERT JUMPDEST POP POP POP POP POP POP POP POP POP POP PUSH2 0x1A2 JUMP JUMPDEST PUSH1 0x0 DUP1 SLOAD PUSH1 0x1 PUSH1 0x1 PUSH1 0xA0 SHL SUB DUP4 DUP2 AND PUSH1 0x1 PUSH1 0x1 PUSH1 0xA0 SHL SUB NOT DUP4 AND DUP2 OR DUP5 SSTORE PUSH1 0x40 MLOAD SWAP2 SWAP1 SWAP3 AND SWAP3 DUP4 SWAP2 PUSH32 0x8BE0079C531659141344CD1FD0A4F28419497F9722A3DAAFE3B4186F6B6457E0 SWAP2 SWAP1 LOG3 POP POP JUMP JUMPDEST DUP1 MLOAD PUSH1 0x1 PUSH1 0x1 PUSH1 0xA0 SHL SUB DUP2 AND DUP2 EQ PUSH2 0x16A JUMPI PUSH1 0x0 DUP1 REVERT JUMPDEST SWAP2 SWAP1 POP JUMP JUMPDEST PUSH1 0x0 DUP1 PUSH1 0x40 DUP4 DUP6 SUB SLT ISZERO PUSH2 0x182 JUMPI PUSH1 0x0 DUP1 REVERT JUMPDEST PUSH2 0x18B DUP4 PUSH2 0x153 JUMP JUMPDEST SWAP2 POP PUSH2 0x199 PUSH1 0x20 DUP5 ADD PUSH2 0x153 JUMP JUMPDEST SWAP1 POP SWAP3 POP SWAP3 SWAP1 POP JUMP JUMPDEST PUSH1 0x80 MLOAD PUSH2 0x4E45 PUSH2 0x1CB PUSH1 0x0 CODECOPY PUSH1 0x0 DUP2 DUP2 PUSH2 0x48F ADD MSTORE DUP2 DUP2 PUSH2 0xBAC ADD MSTORE PUSH2 0x2799 ADD MSTORE PUSH2 0x4E45 PUSH1 0x0 RETURN INVALID PUSH1 0x80 PUSH1 0x40 MSTORE PUSH1 0x4 CALLDATASIZE LT PUSH2 0x27D JUMPI PUSH1 0x0 CALLDATALOAD PUSH1 0xE0 SHR DUP1 PUSH4 0x9D89A1DB GT PUSH2 0x14F JUMPI DUP1 PUSH4 0xCD2ABD66 GT PUSH2 0xC1 JUMPI DUP1 PUSH4 0xE1897767 GT PUSH2 0x7A JUMPI DUP1 PUSH4 0xE1897767 EQ PUSH2 0x860 JUMPI DUP1 PUSH4 0xE5DEEF6D EQ PUSH2 0x88D JUMPI DUP1 PUSH4 0xEAD39A11 EQ PUSH2 0x8AD JUMPI DUP1 PUSH4 0xF2FDE38B EQ PUSH2 0x8DD JUMPI DUP1 PUSH4 0xF4F824BB EQ PUSH2 0x8FD JUMPI DUP1 PUSH4 0xFF7BD03D EQ PUSH2 0x91D JUMPI PUSH1 0x0 DUP1 REVERT JUMPDEST DUP1 PUSH4 0xCD2ABD66 EQ PUSH2 0x790 JUMPI DUP1 PUSH4 0xCED25488 EQ PUSH2 0x7C0 JUMPI DUP1 PUSH4 0xD9F76F62 EQ PUSH2 0x7E0 JUMPI DUP1 PUSH4 0xDA8ACCF9 EQ PUSH2 0x800 JUMPI DUP1 PUSH4 0xDC404AFF EQ PUSH2 0x820 JUMPI DUP1 PUSH4 0xDFA0DFA5 EQ PUSH2 0x840 JUMPI PUSH1 0x0 DUP1 REVERT JUMPDEST DUP1 PUSH4 0xBB0B6A53 GT PUSH2 0x113 JUMPI DUP1 PUSH4 0xBB0B6A53 EQ PUSH2 0x69B JUMPI DUP1 PUSH4 0xBBBACDFC EQ PUSH2 0x6C8 JUMPI DUP1 PUSH4 0xBBE15627 EQ PUSH2 0x700 JUMPI DUP1 PUSH4 0xBE001F6F EQ PUSH2 0x730 JUMPI DUP1 PUSH4 0xBF22C457 EQ PUSH2 0x750 JUMPI DUP1 PUSH4 0xCA5EB5E1 EQ PUSH2 0x770 JUMPI PUSH1 0x0 DUP1 REVERT JUMPDEST DUP1 PUSH4 0x9D89A1DB EQ PUSH2 0x5EB JUMPI DUP1 PUSH4 0xA787C80B EQ PUSH2 0x60B JUMPI DUP1 PUSH4 0xA83B083C EQ PUSH2 0x63B JUMPI DUP1 PUSH4 0xA89C0949 EQ PUSH2 0x65B JUMPI DUP1 PUSH4 0xB7A93083 EQ PUSH2 0x67B JUMPI PUSH1 0x0 DUP1 REVERT JUMPDEST DUP1 PUSH4 0x50355D76 GT PUSH2 0x1F3 JUMPI DUP1 PUSH4 0x80FC9C0E GT PUSH2 0x1AC JUMPI DUP1 PUSH4 0x80FC9C0E EQ PUSH2 0x511 JUMPI DUP1 PUSH4 0x82413EAC EQ PUSH2 0x531 JUMPI DUP1 PUSH4 0x832A05B7 EQ PUSH2 0x560 JUMPI DUP1 PUSH4 0x8DA5CB5B EQ PUSH2 0x58D JUMPI DUP1 PUSH4 0x97E99A80 EQ PUSH2 0x5AB JUMPI DUP1 PUSH4 0x992A80E4 EQ PUSH2 0x5CB JUMPI PUSH1 0x0 DUP1 REVERT JUMPDEST DUP1 PUSH4 0x50355D76 EQ PUSH2 0x439 JUMPI DUP1 PUSH4 0x5ABB964D EQ PUSH2 0x45D JUMPI DUP1 PUSH4 0x5E280F11 EQ PUSH2 0x47D JUMPI DUP1 PUSH4 0x715018A6 EQ PUSH2 0x4B1 JUMPI DUP1 PUSH4 0x7D25A05E EQ PUSH2 0x4C6 JUMPI DUP1 PUSH4 0x80CD2580 EQ PUSH2 0x4FE JUMPI PUSH1 0x0 DUP1 REVERT JUMPDEST DUP1 PUSH4 0x248506C3 GT PUSH2 0x245 JUMPI DUP1 PUSH4 0x248506C3 EQ PUSH2 0x35C JUMPI DUP1 PUSH4 0x2C317EB2 EQ PUSH2 0x37C JUMPI DUP1 PUSH4 0x315E6542 EQ PUSH2 0x39C JUMPI DUP1 PUSH4 0x3400288B EQ PUSH2 0x3BC JUMPI DUP1 PUSH4 0x4CAC35C6 EQ PUSH2 0x3DC JUMPI DUP1 PUSH4 0x4D6861A6 EQ PUSH2 0x409 JUMPI PUSH1 0x0 DUP1 REVERT JUMPDEST DUP1 PUSH4 0xF53A470 EQ PUSH2 0x282 JUMPI DUP1 PUSH4 0x13137D65 EQ PUSH2 0x2B8 JUMPI DUP1 PUSH4 0x17442B70 EQ PUSH2 0x2CD JUMPI DUP1 PUSH4 0x180AEDF3 EQ PUSH2 0x2EF JUMPI DUP1 PUSH4 0x220CCE97 EQ PUSH2 0x324 JUMPI JUMPDEST PUSH1 0x0 DUP1 REVERT JUMPDEST CALLVALUE DUP1 ISZERO PUSH2 0x28E JUMPI PUSH1 0x0 DUP1 REVERT JUMPDEST POP PUSH2 0x2A2 PUSH2 0x29D CALLDATASIZE PUSH1 0x4 PUSH2 0x39A3 JUMP JUMPDEST PUSH2 0x93D JUMP JUMPDEST PUSH1 0x40 MLOAD PUSH2 0x2AF SWAP2 SWAP1 PUSH2 0x3A73 JUMP JUMPDEST PUSH1 0x40 MLOAD DUP1 SWAP2 SUB SWAP1 RETURN JUMPDEST PUSH2 0x2CB PUSH2 0x2C6 CALLDATASIZE PUSH1 0x4 PUSH2 0x3B43 JUMP JUMPDEST PUSH2 0xBAA JUMP JUMPDEST STOP JUMPDEST CALLVALUE DUP1 ISZERO PUSH2 0x2D9 JUMPI PUSH1 0x0 DUP1 REVERT JUMPDEST POP PUSH1 0x40 DUP1 MLOAD PUSH1 0x1 DUP2 MSTORE PUSH1 0x2 PUSH1 0x20 DUP3 ADD MSTORE ADD PUSH2 0x2AF JUMP JUMPDEST CALLVALUE DUP1 ISZERO PUSH2 0x2FB JUMPI PUSH1 0x0 DUP1 REVERT JUMPDEST POP PUSH2 0x30F PUSH2 0x30A CALLDATASIZE PUSH1 0x4 PUSH2 0x3BE4 JUMP JUMPDEST PUSH2 0xC65 JUMP JUMPDEST PUSH1 0x40 MLOAD PUSH2 0x2AF SWAP10 SWAP9 SWAP8 SWAP7 SWAP6 SWAP5 SWAP4 SWAP3 SWAP2 SWAP1 PUSH2 0x3BFD JUMP JUMPDEST CALLVALUE DUP1 ISZERO PUSH2 0x330 JUMPI PUSH1 0x0 DUP1 REVERT JUMPDEST POP PUSH1 0xB SLOAD PUSH2 0x344 SWAP1 PUSH1 0x1 PUSH1 0x1 PUSH1 0xA0 SHL SUB AND DUP2 JUMP JUMPDEST PUSH1 0x40 MLOAD PUSH1 0x1 PUSH1 0x1 PUSH1 0xA0 SHL SUB SWAP1 SWAP2 AND DUP2 MSTORE PUSH1 0x20 ADD PUSH2 0x2AF JUMP JUMPDEST CALLVALUE DUP1 ISZERO PUSH2 0x368 JUMPI PUSH1 0x0 DUP1 REVERT JUMPDEST POP PUSH2 0x2CB PUSH2 0x377 CALLDATASIZE PUSH1 0x4 PUSH2 0x3E31 JUMP JUMPDEST PUSH2 0xD4E JUMP JUMPDEST CALLVALUE DUP1 ISZERO PUSH2 0x388 JUMPI PUSH1 0x0 DUP1 REVERT JUMPDEST POP PUSH2 0x2CB PUSH2 0x397 CALLDATASIZE PUSH1 0x4 PUSH2 0x3EB2 JUMP JUMPDEST PUSH2 0xFF1 JUMP JUMPDEST CALLVALUE DUP1 ISZERO PUSH2 0x3A8 JUMPI PUSH1 0x0 DUP1 REVERT JUMPDEST POP PUSH2 0x2CB PUSH2 0x3B7 CALLDATASIZE PUSH1 0x4 PUSH2 0x3F01 JUMP JUMPDEST PUSH2 0x1184 JUMP JUMPDEST CALLVALUE DUP1 ISZERO PUSH2 0x3C8 JUMPI PUSH1 0x0 DUP1 REVERT JUMPDEST POP PUSH2 0x2CB PUSH2 0x3D7 CALLDATASIZE PUSH1 0x4 PUSH2 0x3F3C JUMP JUMPDEST PUSH2 0x1193 JUMP JUMPDEST CALLVALUE DUP1 ISZERO PUSH2 0x3E8 JUMPI PUSH1 0x0 DUP1 REVERT JUMPDEST POP PUSH2 0x3FC PUSH2 0x3F7 CALLDATASIZE PUSH1 0x4 PUSH2 0x3BE4 JUMP JUMPDEST PUSH2 0x11A5 JUMP JUMPDEST PUSH1 0x40 MLOAD PUSH2 0x2AF SWAP2 SWAP1 PUSH2 0x400E JUMP JUMPDEST CALLVALUE DUP1 ISZERO PUSH2 0x415 JUMPI PUSH1 0x0 DUP1 REVERT JUMPDEST POP PUSH2 0x429 PUSH2 0x424 CALLDATASIZE PUSH1 0x4 PUSH2 0x3BE4 JUMP JUMPDEST PUSH2 0x1619 JUMP JUMPDEST PUSH1 0x40 MLOAD SWAP1 ISZERO ISZERO DUP2 MSTORE PUSH1 0x20 ADD PUSH2 0x2AF JUMP JUMPDEST CALLVALUE DUP1 ISZERO PUSH2 0x445 JUMPI PUSH1 0x0 DUP1 REVERT JUMPDEST POP PUSH2 0x44F PUSH1 0x9 SLOAD DUP2 JUMP JUMPDEST PUSH1 0x40 MLOAD SWAP1 DUP2 MSTORE PUSH1 0x20 ADD PUSH2 0x2AF JUMP JUMPDEST CALLVALUE DUP1 ISZERO PUSH2 0x469 JUMPI PUSH1 0x0 DUP1 REVERT JUMPDEST POP PUSH2 0x2CB PUSH2 0x478 CALLDATASIZE PUSH1 0x4 PUSH2 0x4137 JUMP JUMPDEST PUSH2 0x1660 JUMP JUMPDEST CALLVALUE DUP1 ISZERO PUSH2 0x489 JUMPI PUSH1 0x0 DUP1 REVERT JUMPDEST POP PUSH2 0x344 PUSH32 0x0 DUP2 JUMP JUMPDEST CALLVALUE DUP1 ISZERO PUSH2 0x4BD JUMPI PUSH1 0x0 DUP1 REVERT JUMPDEST POP PUSH2 0x2CB PUSH2 0x1671 JUMP JUMPDEST CALLVALUE DUP1 ISZERO PUSH2 0x4D2 JUMPI PUSH1 0x0 DUP1 REVERT JUMPDEST POP PUSH2 0x4E6 PUSH2 0x4E1 CALLDATASIZE PUSH1 0x4 PUSH2 0x3F3C JUMP JUMPDEST PUSH2 0x1685 JUMP JUMPDEST PUSH1 0x40 MLOAD PUSH1 0x1 PUSH1 0x1 PUSH1 0x40 SHL SUB SWAP1 SWAP2 AND DUP2 MSTORE PUSH1 0x20 ADD PUSH2 0x2AF JUMP JUMPDEST PUSH2 0x2CB PUSH2 0x50C CALLDATASIZE PUSH1 0x4 PUSH2 0x41A7 JUMP JUMPDEST PUSH2 0x168E JUMP JUMPDEST CALLVALUE DUP1 ISZERO PUSH2 0x51D JUMPI PUSH1 0x0 DUP1 REVERT JUMPDEST POP PUSH2 0x44F PUSH2 0x52C CALLDATASIZE PUSH1 0x4 PUSH2 0x39A3 JUMP JUMPDEST PUSH2 0x169A JUMP JUMPDEST CALLVALUE DUP1 ISZERO PUSH2 0x53D JUMPI PUSH1 0x0 DUP1 REVERT JUMPDEST POP PUSH2 0x429 PUSH2 0x54C CALLDATASIZE PUSH1 0x4 PUSH2 0x4204 JUMP JUMPDEST PUSH1 0x1 PUSH1 0x1 PUSH1 0xA0 SHL SUB DUP2 AND ADDRESS EQ SWAP5 SWAP4 POP POP POP POP JUMP JUMPDEST CALLVALUE DUP1 ISZERO PUSH2 0x56C JUMPI PUSH1 0x0 DUP1 REVERT JUMPDEST POP PUSH2 0x580 PUSH2 0x57B CALLDATASIZE PUSH1 0x4 PUSH2 0x3F01 JUMP JUMPDEST PUSH2 0x1761 JUMP JUMPDEST PUSH1 0x40 MLOAD PUSH2 0x2AF SWAP2 SWAP1 PUSH2 0x426A JUMP JUMPDEST CALLVALUE DUP1 ISZERO PUSH2 0x599 JUMPI PUSH1 0x0 DUP1 REVERT JUMPDEST POP PUSH1 0x0 SLOAD PUSH1 0x1 PUSH1 0x1 PUSH1 0xA0 SHL SUB AND PUSH2 0x344 JUMP JUMPDEST CALLVALUE DUP1 ISZERO PUSH2 0x5B7 JUMPI PUSH1 0x0 DUP1 REVERT JUMPDEST POP PUSH2 0x2CB PUSH2 0x5C6 CALLDATASIZE PUSH1 0x4 PUSH2 0x3F01 JUMP JUMPDEST PUSH2 0x19E7 JUMP JUMPDEST CALLVALUE DUP1 ISZERO PUSH2 0x5D7 JUMPI PUSH1 0x0 DUP1 REVERT JUMPDEST POP PUSH2 0x2CB PUSH2 0x5E6 CALLDATASIZE PUSH1 0x4 PUSH2 0x42D9 JUMP JUMPDEST PUSH2 0x19F2 JUMP JUMPDEST CALLVALUE DUP1 ISZERO PUSH2 0x5F7 JUMPI PUSH1 0x0 DUP1 REVERT JUMPDEST POP PUSH2 0x2CB PUSH2 0x606 CALLDATASIZE PUSH1 0x4 PUSH2 0x4305 JUMP JUMPDEST PUSH2 0x19FD JUMP JUMPDEST CALLVALUE DUP1 ISZERO PUSH2 0x617 JUMPI PUSH1 0x0 DUP1 REVERT JUMPDEST POP PUSH2 0x429 PUSH2 0x626 CALLDATASIZE PUSH1 0x4 PUSH2 0x39A3 JUMP JUMPDEST PUSH1 0x3 PUSH1 0x20 MSTORE PUSH1 0x0 SWAP1 DUP2 MSTORE PUSH1 0x40 SWAP1 KECCAK256 SLOAD PUSH1 0xFF AND DUP2 JUMP JUMPDEST CALLVALUE DUP1 ISZERO PUSH2 0x647 JUMPI PUSH1 0x0 DUP1 REVERT JUMPDEST POP PUSH2 0x2CB PUSH2 0x656 CALLDATASIZE PUSH1 0x4 PUSH2 0x4388 JUMP JUMPDEST PUSH2 0x1DC8 JUMP JUMPDEST CALLVALUE DUP1 ISZERO PUSH2 0x667 JUMPI PUSH1 0x0 DUP1 REVERT JUMPDEST POP PUSH2 0x2CB PUSH2 0x676 CALLDATASIZE PUSH1 0x4 PUSH2 0x43C0 JUMP JUMPDEST PUSH2 0x1DD0 JUMP JUMPDEST CALLVALUE DUP1 ISZERO PUSH2 0x687 JUMPI PUSH1 0x0 DUP1 REVERT JUMPDEST POP PUSH2 0x2CB PUSH2 0x696 CALLDATASIZE PUSH1 0x4 PUSH2 0x4408 JUMP JUMPDEST PUSH2 0x2089 JUMP JUMPDEST CALLVALUE DUP1 ISZERO PUSH2 0x6A7 JUMPI PUSH1 0x0 DUP1 REVERT JUMPDEST POP PUSH2 0x44F PUSH2 0x6B6 CALLDATASIZE PUSH1 0x4 PUSH2 0x4456 JUMP JUMPDEST PUSH1 0x1 PUSH1 0x20 MSTORE PUSH1 0x0 SWAP1 DUP2 MSTORE PUSH1 0x40 SWAP1 KECCAK256 SLOAD DUP2 JUMP JUMPDEST CALLVALUE DUP1 ISZERO PUSH2 0x6D4 JUMPI PUSH1 0x0 DUP1 REVERT JUMPDEST POP PUSH2 0x44F PUSH2 0x6E3 CALLDATASIZE PUSH1 0x4 PUSH2 0x4471 JUMP JUMPDEST PUSH1 0x7 PUSH1 0x20 SWAP1 DUP2 MSTORE PUSH1 0x0 SWAP3 DUP4 MSTORE PUSH1 0x40 DUP1 DUP5 KECCAK256 SWAP1 SWAP2 MSTORE SWAP1 DUP3 MSTORE SWAP1 KECCAK256 SLOAD DUP2 JUMP JUMPDEST CALLVALUE DUP1 ISZERO PUSH2 0x70C JUMPI PUSH1 0x0 DUP1 REVERT JUMPDEST POP PUSH2 0x720 PUSH2 0x71B CALLDATASIZE PUSH1 0x4 PUSH2 0x39A3 JUMP JUMPDEST PUSH2 0x2252 JUMP JUMPDEST PUSH1 0x40 MLOAD PUSH2 0x2AF SWAP5 SWAP4 SWAP3 SWAP2 SWAP1 PUSH2 0x44A1 JUMP JUMPDEST CALLVALUE DUP1 ISZERO PUSH2 0x73C JUMPI PUSH1 0x0 DUP1 REVERT JUMPDEST POP PUSH2 0x44F PUSH2 0x74B CALLDATASIZE PUSH1 0x4 PUSH2 0x44E1 JUMP JUMPDEST PUSH2 0x2317 JUMP JUMPDEST CALLVALUE DUP1 ISZERO PUSH2 0x75C JUMPI PUSH1 0x0 DUP1 REVERT JUMPDEST POP PUSH2 0x3FC PUSH2 0x76B CALLDATASIZE PUSH1 0x4 PUSH2 0x3BE4 JUMP JUMPDEST PUSH2 0x2348 JUMP JUMPDEST CALLVALUE DUP1 ISZERO PUSH2 0x77C JUMPI PUSH1 0x0 DUP1 REVERT JUMPDEST POP PUSH2 0x2CB PUSH2 0x78B CALLDATASIZE PUSH1 0x4 PUSH2 0x39A3 JUMP JUMPDEST PUSH2 0x2772 JUMP JUMPDEST CALLVALUE DUP1 ISZERO PUSH2 0x79C JUMPI PUSH1 0x0 DUP1 REVERT JUMPDEST POP PUSH2 0x429 PUSH2 0x7AB CALLDATASIZE PUSH1 0x4 PUSH2 0x3BE4 JUMP JUMPDEST PUSH1 0xA PUSH1 0x20 MSTORE PUSH1 0x0 SWAP1 DUP2 MSTORE PUSH1 0x40 SWAP1 KECCAK256 SLOAD PUSH1 0xFF AND DUP2 JUMP JUMPDEST CALLVALUE DUP1 ISZERO PUSH2 0x7CC JUMPI PUSH1 0x0 DUP1 REVERT JUMPDEST POP PUSH2 0x2CB PUSH2 0x7DB CALLDATASIZE PUSH1 0x4 PUSH2 0x44FF JUMP JUMPDEST PUSH2 0x27F8 JUMP JUMPDEST CALLVALUE DUP1 ISZERO PUSH2 0x7EC JUMPI PUSH1 0x0 DUP1 REVERT JUMPDEST POP PUSH2 0x2CB PUSH2 0x7FB CALLDATASIZE PUSH1 0x4 PUSH2 0x453D JUMP JUMPDEST PUSH2 0x2B0C JUMP JUMPDEST CALLVALUE DUP1 ISZERO PUSH2 0x80C JUMPI PUSH1 0x0 DUP1 REVERT JUMPDEST POP PUSH2 0x2CB PUSH2 0x81B CALLDATASIZE PUSH1 0x4 PUSH2 0x4572 JUMP JUMPDEST PUSH2 0x2C53 JUMP JUMPDEST CALLVALUE DUP1 ISZERO PUSH2 0x82C JUMPI PUSH1 0x0 DUP1 REVERT JUMPDEST POP PUSH2 0x2CB PUSH2 0x83B CALLDATASIZE PUSH1 0x4 PUSH2 0x453D JUMP JUMPDEST PUSH2 0x2C5E JUMP JUMPDEST CALLVALUE DUP1 ISZERO PUSH2 0x84C JUMPI PUSH1 0x0 DUP1 REVERT JUMPDEST POP PUSH2 0x2CB PUSH2 0x85B CALLDATASIZE PUSH1 0x4 PUSH2 0x39A3 JUMP JUMPDEST PUSH2 0x2EFB JUMP JUMPDEST CALLVALUE DUP1 ISZERO PUSH2 0x86C JUMPI PUSH1 0x0 DUP1 REVERT JUMPDEST POP PUSH2 0x44F PUSH2 0x87B CALLDATASIZE PUSH1 0x4 PUSH2 0x3BE4 JUMP JUMPDEST PUSH1 0x6 PUSH1 0x20 MSTORE PUSH1 0x0 SWAP1 DUP2 MSTORE PUSH1 0x40 SWAP1 KECCAK256 SLOAD DUP2 JUMP JUMPDEST CALLVALUE DUP1 ISZERO PUSH2 0x899 JUMPI PUSH1 0x0 DUP1 REVERT JUMPDEST POP PUSH2 0x2CB PUSH2 0x8A8 CALLDATASIZE PUSH1 0x4 PUSH2 0x45A2 JUMP JUMPDEST PUSH2 0x2F25 JUMP JUMPDEST CALLVALUE DUP1 ISZERO PUSH2 0x8B9 JUMPI PUSH1 0x0 DUP1 REVERT JUMPDEST POP PUSH2 0x8CD PUSH2 0x8C8 CALLDATASIZE PUSH1 0x4 PUSH2 0x3F01 JUMP JUMPDEST PUSH2 0x3101 JUMP JUMPDEST PUSH1 0x40 MLOAD PUSH2 0x2AF SWAP5 SWAP4 SWAP3 SWAP2 SWAP1 PUSH2 0x45FB JUMP JUMPDEST CALLVALUE DUP1 ISZERO PUSH2 0x8E9 JUMPI PUSH1 0x0 DUP1 REVERT JUMPDEST POP PUSH2 0x2CB PUSH2 0x8F8 CALLDATASIZE PUSH1 0x4 PUSH2 0x39A3 JUMP JUMPDEST PUSH2 0x31C9 JUMP JUMPDEST CALLVALUE DUP1 ISZERO PUSH2 0x909 JUMPI PUSH1 0x0 DUP1 REVERT JUMPDEST POP PUSH2 0x2CB PUSH2 0x918 CALLDATASIZE PUSH1 0x4 PUSH2 0x4628 JUMP JUMPDEST PUSH2 0x3207 JUMP JUMPDEST CALLVALUE DUP1 ISZERO PUSH2 0x929 JUMPI PUSH1 0x0 DUP1 REVERT JUMPDEST POP PUSH2 0x429 PUSH2 0x938 CALLDATASIZE PUSH1 0x4 PUSH2 0x4670 JUMP JUMPDEST PUSH2 0x3213 JUMP JUMPDEST PUSH1 0x40 DUP1 MLOAD PUSH1 0xA0 DUP2 ADD DUP3 MSTORE PUSH1 0x0 DUP1 DUP3 MSTORE PUSH1 0x60 PUSH1 0x20 DUP4 ADD DUP2 SWAP1 MSTORE SWAP3 DUP3 ADD DUP2 SWAP1 MSTORE DUP3 DUP3 ADD MSTORE PUSH1 0x80 DUP2 ADD SWAP2 SWAP1 SWAP2 MSTORE PUSH1 0x1 PUSH1 0x1 PUSH1 0xA0 SHL SUB DUP3 AND PUSH1 0x0 SWAP1 DUP2 MSTORE PUSH1 0x3 PUSH1 0x20 MSTORE PUSH1 0x40 SWAP1 KECCAK256 SLOAD PUSH1 0xFF AND PUSH2 0x9CD JUMPI PUSH1 0x40 MLOAD PUSH3 0x461BCD PUSH1 0xE5 SHL DUP2 MSTORE PUSH1 0x20 PUSH1 0x4 DUP3 ADD MSTORE PUSH1 0x16 PUSH1 0x24 DUP3 ADD MSTORE PUSH22 0x141C9BD99A5B1948191BD95CC81B9BDD08195E1A5CDD PUSH1 0x52 SHL PUSH1 0x44 DUP3 ADD MSTORE PUSH1 0x64 ADD JUMPDEST PUSH1 0x40 MLOAD DUP1 SWAP2 SUB SWAP1 REVERT JUMPDEST PUSH1 0x1 PUSH1 0x1 PUSH1 0xA0 SHL SUB DUP1 DUP4 AND PUSH1 0x0 SWAP1 DUP2 MSTORE PUSH1 0x2 PUSH1 0x20 SWAP1 DUP2 MSTORE PUSH1 0x40 SWAP2 DUP3 SWAP1 KECCAK256 DUP3 MLOAD PUSH1 0xA0 DUP2 ADD SWAP1 SWAP4 MSTORE DUP1 SLOAD SWAP1 SWAP4 AND DUP3 MSTORE PUSH1 0x1 DUP4 ADD DUP1 SLOAD SWAP3 SWAP4 SWAP3 SWAP2 DUP5 ADD SWAP2 PUSH2 0xA10 SWAP1 PUSH2 0x468C JUMP JUMPDEST DUP1 PUSH1 0x1F ADD PUSH1 0x20 DUP1 SWAP2 DIV MUL PUSH1 0x20 ADD PUSH1 0x40 MLOAD SWAP1 DUP2 ADD PUSH1 0x40 MSTORE DUP1 SWAP3 SWAP2 SWAP1 DUP2 DUP2 MSTORE PUSH1 0x20 ADD DUP3 DUP1 SLOAD PUSH2 0xA3C SWAP1 PUSH2 0x468C JUMP JUMPDEST DUP1 ISZERO PUSH2 0xA89 JUMPI DUP1 PUSH1 0x1F LT PUSH2 0xA5E JUMPI PUSH2 0x100 DUP1 DUP4 SLOAD DIV MUL DUP4 MSTORE SWAP2 PUSH1 0x20 ADD SWAP2 PUSH2 0xA89 JUMP JUMPDEST DUP3 ADD SWAP2 SWAP1 PUSH1 0x0 MSTORE PUSH1 0x20 PUSH1 0x0 KECCAK256 SWAP1 JUMPDEST DUP2 SLOAD DUP2 MSTORE SWAP1 PUSH1 0x1 ADD SWAP1 PUSH1 0x20 ADD DUP1 DUP4 GT PUSH2 0xA6C JUMPI DUP3 SWAP1 SUB PUSH1 0x1F AND DUP3 ADD SWAP2 JUMPDEST POP POP POP POP POP DUP2 MSTORE PUSH1 0x20 ADD PUSH1 0x2 DUP3 ADD PUSH1 0x0 SWAP1 SLOAD SWAP1 PUSH2 0x100 EXP SWAP1 DIV PUSH1 0x1 PUSH1 0x1 PUSH1 0xA0 SHL SUB AND PUSH1 0x1 PUSH1 0x1 PUSH1 0xA0 SHL SUB AND PUSH1 0x1 PUSH1 0x1 PUSH1 0xA0 SHL SUB AND DUP2 MSTORE PUSH1 0x20 ADD PUSH1 0x3 DUP3 ADD SLOAD DUP2 MSTORE PUSH1 0x20 ADD PUSH1 0x4 DUP3 ADD DUP1 SLOAD DUP1 PUSH1 0x20 MUL PUSH1 0x20 ADD PUSH1 0x40 MLOAD SWAP1 DUP2 ADD PUSH1 0x40 MSTORE DUP1 SWAP3 SWAP2 SWAP1 DUP2 DUP2 MSTORE PUSH1 0x20 ADD PUSH1 0x0 SWAP1 JUMPDEST DUP3 DUP3 LT ISZERO PUSH2 0xB9C JUMPI DUP4 DUP3 SWAP1 PUSH1 0x0 MSTORE PUSH1 0x20 PUSH1 0x0 KECCAK256 ADD DUP1 SLOAD PUSH2 0xB0F SWAP1 PUSH2 0x468C JUMP JUMPDEST DUP1 PUSH1 0x1F ADD PUSH1 0x20 DUP1 SWAP2 DIV MUL PUSH1 0x20 ADD PUSH1 0x40 MLOAD SWAP1 DUP2 ADD PUSH1 0x40 MSTORE DUP1 SWAP3 SWAP2 SWAP1 DUP2 DUP2 MSTORE PUSH1 0x20 ADD DUP3 DUP1 SLOAD PUSH2 0xB3B SWAP1 PUSH2 0x468C JUMP JUMPDEST DUP1 ISZERO PUSH2 0xB88 JUMPI DUP1 PUSH1 0x1F LT PUSH2 0xB5D JUMPI PUSH2 0x100 DUP1 DUP4 SLOAD DIV MUL DUP4 MSTORE SWAP2 PUSH1 0x20 ADD SWAP2 PUSH2 0xB88 JUMP JUMPDEST DUP3 ADD SWAP2 SWAP1 PUSH1 0x0 MSTORE PUSH1 0x20 PUSH1 0x0 KECCAK256 SWAP1 JUMPDEST DUP2 SLOAD DUP2 MSTORE SWAP1 PUSH1 0x1 ADD SWAP1 PUSH1 0x20 ADD DUP1 DUP4 GT PUSH2 0xB6B JUMPI DUP3 SWAP1 SUB PUSH1 0x1F AND DUP3 ADD SWAP2 JUMPDEST POP POP POP POP POP DUP2 MSTORE PUSH1 0x20 ADD SWAP1 PUSH1 0x1 ADD SWAP1 PUSH2 0xAF0 JUMP JUMPDEST POP POP POP SWAP2 MSTORE POP SWAP1 SWAP4 SWAP3 POP POP POP JUMP JUMPDEST PUSH32 0x0 PUSH1 0x1 PUSH1 0x1 PUSH1 0xA0 SHL SUB AND CALLER EQ PUSH2 0xBF5 JUMPI PUSH1 0x40 MLOAD PUSH4 0x91AC5E4F PUSH1 0xE0 SHL DUP2 MSTORE CALLER PUSH1 0x4 DUP3 ADD MSTORE PUSH1 0x24 ADD PUSH2 0x9C4 JUMP JUMPDEST PUSH1 0x20 DUP8 ADD DUP1 CALLDATALOAD SWAP1 PUSH2 0xC0F SWAP1 PUSH2 0xC0A SWAP1 DUP11 PUSH2 0x4456 JUMP JUMPDEST PUSH2 0x3249 JUMP JUMPDEST EQ PUSH2 0xC4D JUMPI PUSH2 0xC21 PUSH1 0x20 DUP9 ADD DUP9 PUSH2 0x4456 JUMP JUMPDEST PUSH1 0x40 MLOAD PUSH4 0x309AFAF3 PUSH1 0xE2 SHL DUP2 MSTORE PUSH4 0xFFFFFFFF SWAP1 SWAP2 AND PUSH1 0x4 DUP3 ADD MSTORE PUSH1 0x20 DUP9 ADD CALLDATALOAD PUSH1 0x24 DUP3 ADD MSTORE PUSH1 0x44 ADD PUSH2 0x9C4 JUMP JUMPDEST PUSH2 0xC5C DUP8 DUP8 DUP8 DUP8 DUP8 DUP8 DUP8 PUSH2 0x3285 JUMP JUMPDEST POP POP POP POP POP POP POP JUMP JUMPDEST PUSH1 0x4 PUSH1 0x20 MSTORE PUSH1 0x0 SWAP1 DUP2 MSTORE PUSH1 0x40 SWAP1 KECCAK256 DUP1 SLOAD PUSH1 0x1 DUP3 ADD SLOAD PUSH1 0x3 DUP4 ADD DUP1 SLOAD SWAP3 SWAP4 PUSH1 0x1 PUSH1 0x1 PUSH1 0xA0 SHL SUB SWAP1 SWAP3 AND SWAP3 PUSH2 0xC97 SWAP1 PUSH2 0x468C JUMP JUMPDEST DUP1 PUSH1 0x1F ADD PUSH1 0x20 DUP1 SWAP2 DIV MUL PUSH1 0x20 ADD PUSH1 0x40 MLOAD SWAP1 DUP2 ADD PUSH1 0x40 MSTORE DUP1 SWAP3 SWAP2 SWAP1 DUP2 DUP2 MSTORE PUSH1 0x20 ADD DUP3 DUP1 SLOAD PUSH2 0xCC3 SWAP1 PUSH2 0x468C JUMP JUMPDEST DUP1 ISZERO PUSH2 0xD10 JUMPI DUP1 PUSH1 0x1F LT PUSH2 0xCE5 JUMPI PUSH2 0x100 DUP1 DUP4 SLOAD DIV MUL DUP4 MSTORE SWAP2 PUSH1 0x20 ADD SWAP2 PUSH2 0xD10 JUMP JUMPDEST DUP3 ADD SWAP2 SWAP1 PUSH1 0x0 MSTORE PUSH1 0x20 PUSH1 0x0 KECCAK256 SWAP1 JUMPDEST DUP2 SLOAD DUP2 MSTORE SWAP1 PUSH1 0x1 ADD SWAP1 PUSH1 0x20 ADD DUP1 DUP4 GT PUSH2 0xCF3 JUMPI DUP3 SWAP1 SUB PUSH1 0x1F AND DUP3 ADD SWAP2 JUMPDEST POP POP POP PUSH1 0x4 DUP5 ADD SLOAD PUSH1 0x8 DUP6 ADD SLOAD PUSH1 0x9 DUP7 ADD SLOAD PUSH1 0xA DUP8 ADD SLOAD PUSH1 0xB DUP9 ADD SLOAD PUSH1 0xC SWAP1 SWAP9 ADD SLOAD SWAP7 SWAP8 PUSH1 0xFF SWAP1 SWAP5 AND SWAP7 SWAP3 SWAP6 POP SWAP1 SWAP4 POP SWAP2 PUSH1 0x1 PUSH1 0x1 PUSH1 0xA0 SHL SUB AND SWAP1 DUP10 JUMP JUMPDEST PUSH1 0x1 PUSH1 0x1 PUSH1 0xA0 SHL SUB DUP5 AND PUSH1 0x0 SWAP1 DUP2 MSTORE PUSH1 0x3 PUSH1 0x20 MSTORE PUSH1 0x40 SWAP1 KECCAK256 SLOAD PUSH1 0xFF AND PUSH2 0xDB6 JUMPI PUSH1 0x40 MLOAD PUSH3 0x461BCD PUSH1 0xE5 SHL DUP2 MSTORE PUSH1 0x20 PUSH1 0x4 DUP3 ADD MSTORE PUSH1 0x1D PUSH1 0x24 DUP3 ADD MSTORE PUSH32 0x4D75737420686176652070726F66696C6520746F20706F7374206A6F62000000 PUSH1 0x44 DUP3 ADD MSTORE PUSH1 0x64 ADD PUSH2 0x9C4 JUMP JUMPDEST PUSH1 0x0 DUP3 MLOAD GT PUSH2 0xE07 JUMPI PUSH1 0x40 MLOAD PUSH3 0x461BCD PUSH1 0xE5 SHL DUP2 MSTORE PUSH1 0x20 PUSH1 0x4 DUP3 ADD DUP2 SWAP1 MSTORE PUSH1 0x24 DUP3 ADD MSTORE PUSH32 0x4D7573742068617665206174206C65617374206F6E65206D696C6573746F6E65 PUSH1 0x44 DUP3 ADD MSTORE PUSH1 0x64 ADD PUSH2 0x9C4 JUMP JUMPDEST PUSH1 0x0 DUP1 JUMPDEST DUP4 MLOAD DUP2 LT ISZERO PUSH2 0xE47 JUMPI DUP4 DUP2 DUP2 MLOAD DUP2 LT PUSH2 0xE26 JUMPI PUSH2 0xE26 PUSH2 0x46C0 JUMP JUMPDEST PUSH1 0x20 MUL PUSH1 0x20 ADD ADD MLOAD PUSH1 0x20 ADD MLOAD DUP3 PUSH2 0xE3D SWAP2 SWAP1 PUSH2 0x46EC JUMP JUMPDEST SWAP2 POP PUSH1 0x1 ADD PUSH2 0xE0B JUMP JUMPDEST POP DUP1 DUP3 EQ PUSH2 0xEAA JUMPI PUSH1 0x40 MLOAD PUSH3 0x461BCD PUSH1 0xE5 SHL DUP2 MSTORE PUSH1 0x20 PUSH1 0x4 DUP3 ADD MSTORE PUSH1 0x2A PUSH1 0x24 DUP3 ADD MSTORE PUSH32 0x5061796D656E74206D75737420657175616C20746F74616C206D696C6573746F PUSH1 0x44 DUP3 ADD MSTORE PUSH10 0x6E6520616D6F756E7473 PUSH1 0xB0 SHL PUSH1 0x64 DUP3 ADD MSTORE PUSH1 0x84 ADD PUSH2 0x9C4 JUMP JUMPDEST PUSH1 0x9 DUP1 SLOAD SWAP1 PUSH1 0x0 PUSH2 0xEBA DUP4 PUSH2 0x46FF JUMP JUMPDEST SWAP1 SWAP2 SSTORE POP POP PUSH1 0x9 SLOAD PUSH1 0x0 DUP2 DUP2 MSTORE PUSH1 0x4 PUSH1 0x20 MSTORE PUSH1 0x40 SWAP1 KECCAK256 SWAP1 DUP2 SSTORE PUSH1 0x1 DUP2 ADD DUP1 SLOAD PUSH1 0x1 PUSH1 0x1 PUSH1 0xA0 SHL SUB NOT AND PUSH1 0x1 PUSH1 0x1 PUSH1 0xA0 SHL SUB DUP9 AND OR SWAP1 SSTORE PUSH1 0x3 DUP2 ADD PUSH2 0xEFE DUP7 DUP3 PUSH2 0x475F JUMP JUMPDEST POP PUSH1 0x4 DUP2 ADD DUP1 SLOAD PUSH1 0xFF NOT AND PUSH1 0x1 OR SWAP1 SSTORE PUSH1 0x0 PUSH1 0x8 DUP3 ADD DUP2 SWAP1 SSTORE PUSH1 0x9 DUP3 ADD DUP5 SWAP1 SSTORE PUSH1 0xA DUP3 ADD DUP2 SWAP1 SSTORE PUSH1 0xB DUP3 ADD DUP1 SLOAD PUSH1 0x1 PUSH1 0x1 PUSH1 0xA0 SHL SUB NOT AND SWAP1 SSTORE PUSH1 0xC DUP3 ADD DUP2 SWAP1 SSTORE JUMPDEST DUP5 MLOAD DUP2 LT ISZERO PUSH2 0xFA4 JUMPI DUP2 PUSH1 0x6 ADD DUP6 DUP3 DUP2 MLOAD DUP2 LT PUSH2 0xF5E JUMPI PUSH2 0xF5E PUSH2 0x46C0 JUMP JUMPDEST PUSH1 0x20 SWAP1 DUP2 MUL SWAP2 SWAP1 SWAP2 ADD DUP2 ADD MLOAD DUP3 SLOAD PUSH1 0x1 DUP2 ADD DUP5 SSTORE PUSH1 0x0 SWAP4 DUP5 MSTORE SWAP2 SWAP1 SWAP3 KECCAK256 DUP3 MLOAD PUSH1 0x2 SWAP1 SWAP3 MUL ADD SWAP1 DUP2 SWAP1 PUSH2 0xF90 SWAP1 DUP3 PUSH2 0x475F JUMP JUMPDEST POP PUSH1 0x20 SWAP2 SWAP1 SWAP2 ADD MLOAD PUSH1 0x1 SWAP2 DUP3 ADD SSTORE ADD PUSH2 0xF3F JUMP JUMPDEST POP DUP6 PUSH1 0x1 PUSH1 0x1 PUSH1 0xA0 SHL SUB AND PUSH1 0x9 SLOAD PUSH32 0x874D4755E4BE9F976C7833FC413DEB77C1ACBF096D6535B71953C36EB838CF40 DUP8 PUSH1 0x40 MLOAD PUSH2 0xFE1 SWAP2 SWAP1 PUSH2 0x4820 JUMP JUMPDEST PUSH1 0x40 MLOAD DUP1 SWAP2 SUB SWAP1 LOG3 POP POP POP POP POP POP JUMP JUMPDEST PUSH1 0x1 PUSH1 0x1 PUSH1 0xA0 SHL SUB DUP3 AND PUSH1 0x0 SWAP1 DUP2 MSTORE PUSH1 0x3 PUSH1 0x20 MSTORE PUSH1 0x40 SWAP1 KECCAK256 SLOAD PUSH1 0xFF AND PUSH2 0x1052 JUMPI PUSH1 0x40 MLOAD PUSH3 0x461BCD PUSH1 0xE5 SHL DUP2 MSTORE PUSH1 0x20 PUSH1 0x4 DUP3 ADD MSTORE PUSH1 0x16 PUSH1 0x24 DUP3 ADD MSTORE PUSH22 0x141C9BD99A5B1948191BD95CC81B9BDD08195E1A5CDD PUSH1 0x52 SHL PUSH1 0x44 DUP3 ADD MSTORE PUSH1 0x64 ADD PUSH2 0x9C4 JUMP JUMPDEST CALLER PUSH1 0x1 PUSH1 0x1 PUSH1 0xA0 SHL SUB DUP4 AND EQ PUSH2 0x10B8 JUMPI PUSH1 0x40 MLOAD PUSH3 0x461BCD PUSH1 0xE5 SHL DUP2 MSTORE PUSH1 0x20 PUSH1 0x4 DUP3 ADD MSTORE PUSH1 0x25 PUSH1 0x24 DUP3 ADD MSTORE PUSH32 0x43616E206F6E6C792061646420706F7274666F6C696F20746F206F776E207072 PUSH1 0x44 DUP3 ADD MSTORE PUSH5 0x6F66696C65 PUSH1 0xD8 SHL PUSH1 0x64 DUP3 ADD MSTORE PUSH1 0x84 ADD PUSH2 0x9C4 JUMP JUMPDEST PUSH1 0x0 DUP2 MLOAD GT PUSH2 0x1109 JUMPI PUSH1 0x40 MLOAD PUSH3 0x461BCD PUSH1 0xE5 SHL DUP2 MSTORE PUSH1 0x20 PUSH1 0x4 DUP3 ADD MSTORE PUSH1 0x1E PUSH1 0x24 DUP3 ADD MSTORE PUSH32 0x506F7274666F6C696F20686173682063616E6E6F7420626520656D7074790000 PUSH1 0x44 DUP3 ADD MSTORE PUSH1 0x64 ADD PUSH2 0x9C4 JUMP JUMPDEST PUSH1 0x1 PUSH1 0x1 PUSH1 0xA0 SHL SUB DUP3 AND PUSH1 0x0 SWAP1 DUP2 MSTORE PUSH1 0x2 PUSH1 0x20 SWAP1 DUP2 MSTORE PUSH1 0x40 DUP3 KECCAK256 PUSH1 0x4 ADD DUP1 SLOAD PUSH1 0x1 DUP2 ADD DUP3 SSTORE SWAP1 DUP4 MSTORE SWAP2 KECCAK256 ADD PUSH2 0x113E DUP3 DUP3 PUSH2 0x475F JUMP JUMPDEST POP DUP2 PUSH1 0x1 PUSH1 0x1 PUSH1 0xA0 SHL SUB AND PUSH32 0xCC18228E480194B6EB176CEBD651BE35A4EB3236A2461B112A3E89EA1B1C40DD DUP3 PUSH1 0x40 MLOAD PUSH2 0x1178 SWAP2 SWAP1 PUSH2 0x4820 JUMP JUMPDEST PUSH1 0x40 MLOAD DUP1 SWAP2 SUB SWAP1 LOG2 POP POP JUMP JUMPDEST PUSH2 0x118F CALLER DUP4 DUP4 PUSH2 0x2B0C JUMP JUMPDEST POP POP JUMP JUMPDEST PUSH2 0x119B PUSH2 0x3783 JUMP JUMPDEST PUSH2 0x118F DUP3 DUP3 PUSH2 0x37B0 JUMP JUMPDEST PUSH2 0x11AD PUSH2 0x3855 JUMP JUMPDEST PUSH1 0x0 DUP3 DUP2 MSTORE PUSH1 0x4 PUSH1 0x20 MSTORE PUSH1 0x40 DUP2 KECCAK256 SLOAD SWAP1 SUB PUSH2 0x11DA JUMPI PUSH1 0x40 MLOAD PUSH3 0x461BCD PUSH1 0xE5 SHL DUP2 MSTORE PUSH1 0x4 ADD PUSH2 0x9C4 SWAP1 PUSH2 0x4833 JUMP JUMPDEST PUSH1 0x0 DUP3 DUP2 MSTORE PUSH1 0x4 PUSH1 0x20 SWAP1 DUP2 MSTORE PUSH1 0x40 SWAP2 DUP3 SWAP1 KECCAK256 DUP3 MLOAD PUSH2 0x1A0 DUP2 ADD DUP5 MSTORE DUP2 SLOAD DUP2 MSTORE PUSH1 0x1 DUP3 ADD SLOAD PUSH1 0x1 PUSH1 0x1 PUSH1 0xA0 SHL SUB AND DUP2 DUP5 ADD MSTORE PUSH1 0x2 DUP3 ADD DUP1 SLOAD DUP6 MLOAD DUP2 DUP7 MUL DUP2 ADD DUP7 ADD DUP8 MSTORE DUP2 DUP2 MSTORE SWAP3 SWAP6 SWAP4 SWAP5 SWAP4 DUP7 ADD SWAP4 DUP4 ADD DUP3 DUP3 DUP1 ISZERO PUSH2 0x1260 JUMPI PUSH1 0x20 MUL DUP3 ADD SWAP2 SWAP1 PUSH1 0x0 MSTORE PUSH1 0x20 PUSH1 0x0 KECCAK256 SWAP1 JUMPDEST DUP2 SLOAD PUSH1 0x1 PUSH1 0x1 PUSH1 0xA0 SHL SUB AND DUP2 MSTORE PUSH1 0x1 SWAP1 SWAP2 ADD SWAP1 PUSH1 0x20 ADD DUP1 DUP4 GT PUSH2 0x1242 JUMPI JUMPDEST POP POP POP POP POP DUP2 MSTORE PUSH1 0x20 ADD PUSH1 0x3 DUP3 ADD DUP1 SLOAD PUSH2 0x1279 SWAP1 PUSH2 0x468C JUMP JUMPDEST DUP1 PUSH1 0x1F ADD PUSH1 0x20 DUP1 SWAP2 DIV MUL PUSH1 0x20 ADD PUSH1 0x40 MLOAD SWAP1 DUP2 ADD PUSH1 0x40 MSTORE DUP1 SWAP3 SWAP2 SWAP1 DUP2 DUP2 MSTORE PUSH1 0x20 ADD DUP3 DUP1 SLOAD PUSH2 0x12A5 SWAP1 PUSH2 0x468C JUMP JUMPDEST DUP1 ISZERO PUSH2 0x12F2 JUMPI DUP1 PUSH1 0x1F LT PUSH2 0x12C7 JUMPI PUSH2 0x100 DUP1 DUP4 SLOAD DIV MUL DUP4 MSTORE SWAP2 PUSH1 0x20 ADD SWAP2 PUSH2 0x12F2 JUMP JUMPDEST DUP3 ADD SWAP2 SWAP1 PUSH1 0x0 MSTORE PUSH1 0x20 PUSH1 0x0 KECCAK256 SWAP1 JUMPDEST DUP2 SLOAD DUP2 MSTORE SWAP1 PUSH1 0x1 ADD SWAP1 PUSH1 0x20 ADD DUP1 DUP4 GT PUSH2 0x12D5 JUMPI DUP3 SWAP1 SUB PUSH1 0x1F AND DUP3 ADD SWAP2 JUMPDEST POP POP POP SWAP2 DUP4 MSTORE POP POP PUSH1 0x4 DUP3 ADD SLOAD PUSH1 0xFF AND ISZERO ISZERO PUSH1 0x20 DUP1 DUP4 ADD SWAP2 SWAP1 SWAP2 MSTORE PUSH1 0x5 DUP4 ADD DUP1 SLOAD PUSH1 0x40 DUP1 MLOAD DUP3 DUP6 MUL DUP2 ADD DUP6 ADD DUP3 MSTORE DUP3 DUP2 MSTORE SWAP5 ADD SWAP4 SWAP3 PUSH1 0x0 SWAP1 DUP5 ADD JUMPDEST DUP3 DUP3 LT ISZERO PUSH2 0x13D9 JUMPI DUP4 DUP3 SWAP1 PUSH1 0x0 MSTORE PUSH1 0x20 PUSH1 0x0 KECCAK256 ADD DUP1 SLOAD PUSH2 0x134C SWAP1 PUSH2 0x468C JUMP JUMPDEST DUP1 PUSH1 0x1F ADD PUSH1 0x20 DUP1 SWAP2 DIV MUL PUSH1 0x20 ADD PUSH1 0x40 MLOAD SWAP1 DUP2 ADD PUSH1 0x40 MSTORE DUP1 SWAP3 SWAP2 SWAP1 DUP2 DUP2 MSTORE PUSH1 0x20 ADD DUP3 DUP1 SLOAD PUSH2 0x1378 SWAP1 PUSH2 0x468C JUMP JUMPDEST DUP1 ISZERO PUSH2 0x13C5 JUMPI DUP1 PUSH1 0x1F LT PUSH2 0x139A JUMPI PUSH2 0x100 DUP1 DUP4 SLOAD DIV MUL DUP4 MSTORE SWAP2 PUSH1 0x20 ADD SWAP2 PUSH2 0x13C5 JUMP JUMPDEST DUP3 ADD SWAP2 SWAP1 PUSH1 0x0 MSTORE PUSH1 0x20 PUSH1 0x0 KECCAK256 SWAP1 JUMPDEST DUP2 SLOAD DUP2 MSTORE SWAP1 PUSH1 0x1 ADD SWAP1 PUSH1 0x20 ADD DUP1 DUP4 GT PUSH2 0x13A8 JUMPI DUP3 SWAP1 SUB PUSH1 0x1F AND DUP3 ADD SWAP2 JUMPDEST POP POP POP POP POP DUP2 MSTORE PUSH1 0x20 ADD SWAP1 PUSH1 0x1 ADD SWAP1 PUSH2 0x132D JUMP JUMPDEST POP POP POP POP DUP2 MSTORE PUSH1 0x20 ADD PUSH1 0x6 DUP3 ADD DUP1 SLOAD DUP1 PUSH1 0x20 MUL PUSH1 0x20 ADD PUSH1 0x40 MLOAD SWAP1 DUP2 ADD PUSH1 0x40 MSTORE DUP1 SWAP3 SWAP2 SWAP1 DUP2 DUP2 MSTORE PUSH1 0x20 ADD PUSH1 0x0 SWAP1 JUMPDEST DUP3 DUP3 LT ISZERO PUSH2 0x14D4 JUMPI DUP4 DUP3 SWAP1 PUSH1 0x0 MSTORE PUSH1 0x20 PUSH1 0x0 KECCAK256 SWAP1 PUSH1 0x2 MUL ADD PUSH1 0x40 MLOAD DUP1 PUSH1 0x40 ADD PUSH1 0x40 MSTORE SWAP1 DUP2 PUSH1 0x0 DUP3 ADD DUP1 SLOAD PUSH2 0x1439 SWAP1 PUSH2 0x468C JUMP JUMPDEST DUP1 PUSH1 0x1F ADD PUSH1 0x20 DUP1 SWAP2 DIV MUL PUSH1 0x20 ADD PUSH1 0x40 MLOAD SWAP1 DUP2 ADD PUSH1 0x40 MSTORE DUP1 SWAP3 SWAP2 SWAP1 DUP2 DUP2 MSTORE PUSH1 0x20 ADD DUP3 DUP1 SLOAD PUSH2 0x1465 SWAP1 PUSH2 0x468C JUMP JUMPDEST DUP1 ISZERO PUSH2 0x14B2 JUMPI DUP1 PUSH1 0x1F LT PUSH2 0x1487 JUMPI PUSH2 0x100 DUP1 DUP4 SLOAD DIV MUL DUP4 MSTORE SWAP2 PUSH1 0x20 ADD SWAP2 PUSH2 0x14B2 JUMP JUMPDEST DUP3 ADD SWAP2 SWAP1 PUSH1 0x0 MSTORE PUSH1 0x20 PUSH1 0x0 KECCAK256 SWAP1 JUMPDEST DUP2 SLOAD DUP2 MSTORE SWAP1 PUSH1 0x1 ADD SWAP1 PUSH1 0x20 ADD DUP1 DUP4 GT PUSH2 0x1495 JUMPI DUP3 SWAP1 SUB PUSH1 0x1F AND DUP3 ADD SWAP2 JUMPDEST POP POP POP POP POP DUP2 MSTORE PUSH1 0x20 ADD PUSH1 0x1 DUP3 ADD SLOAD DUP2 MSTORE POP POP DUP2 MSTORE PUSH1 0x20 ADD SWAP1 PUSH1 0x1 ADD SWAP1 PUSH2 0x1406 JUMP JUMPDEST POP POP POP POP DUP2 MSTORE PUSH1 0x20 ADD PUSH1 0x7 DUP3 ADD DUP1 SLOAD DUP1 PUSH1 0x20 MUL PUSH1 0x20 ADD PUSH1 0x40 MLOAD SWAP1 DUP2 ADD PUSH1 0x40 MSTORE DUP1 SWAP3 SWAP2 SWAP1 DUP2 DUP2 MSTORE PUSH1 0x20 ADD PUSH1 0x0 SWAP1 JUMPDEST DUP3 DUP3 LT ISZERO PUSH2 0x15CF JUMPI DUP4 DUP3 SWAP1 PUSH1 0x0 MSTORE PUSH1 0x20 PUSH1 0x0 KECCAK256 SWAP1 PUSH1 0x2 MUL ADD PUSH1 0x40 MLOAD DUP1 PUSH1 0x40 ADD PUSH1 0x40 MSTORE SWAP1 DUP2 PUSH1 0x0 DUP3 ADD DUP1 SLOAD PUSH2 0x1534 SWAP1 PUSH2 0x468C JUMP JUMPDEST DUP1 PUSH1 0x1F ADD PUSH1 0x20 DUP1 SWAP2 DIV MUL PUSH1 0x20 ADD PUSH1 0x40 MLOAD SWAP1 DUP2 ADD PUSH1 0x40 MSTORE DUP1 SWAP3 SWAP2 SWAP1 DUP2 DUP2 MSTORE PUSH1 0x20 ADD DUP3 DUP1 SLOAD PUSH2 0x1560 SWAP1 PUSH2 0x468C JUMP JUMPDEST DUP1 ISZERO PUSH2 0x15AD JUMPI DUP1 PUSH1 0x1F LT PUSH2 0x1582 JUMPI PUSH2 0x100 DUP1 DUP4 SLOAD DIV MUL DUP4 MSTORE SWAP2 PUSH1 0x20 ADD SWAP2 PUSH2 0x15AD JUMP JUMPDEST DUP3 ADD SWAP2 SWAP1 PUSH1 0x0 MSTORE PUSH1 0x20 PUSH1 0x0 KECCAK256 SWAP1 JUMPDEST DUP2 SLOAD DUP2 MSTORE SWAP1 PUSH1 0x1 ADD SWAP1 PUSH1 0x20 ADD DUP1 DUP4 GT PUSH2 0x1590 JUMPI DUP3 SWAP1 SUB PUSH1 0x1F AND DUP3 ADD SWAP2 JUMPDEST POP POP POP POP POP DUP2 MSTORE PUSH1 0x20 ADD PUSH1 0x1 DUP3 ADD SLOAD DUP2 MSTORE POP POP DUP2 MSTORE PUSH1 0x20 ADD SWAP1 PUSH1 0x1 ADD SWAP1 PUSH2 0x1501 JUMP JUMPDEST POP POP POP SWAP1 DUP3 MSTORE POP PUSH1 0x8 DUP3 ADD SLOAD PUSH1 0x20 DUP3 ADD MSTORE PUSH1 0x9 DUP3 ADD SLOAD PUSH1 0x40 DUP3 ADD MSTORE PUSH1 0xA DUP3 ADD SLOAD PUSH1 0x60 DUP3 ADD MSTORE PUSH1 0xB DUP3 ADD SLOAD PUSH1 0x1 PUSH1 0x1 PUSH1 0xA0 SHL SUB AND PUSH1 0x80 DUP3 ADD MSTORE PUSH1 0xC SWAP1 SWAP2 ADD SLOAD PUSH1 0xA0 SWAP1 SWAP2 ADD MSTORE SWAP3 SWAP2 POP POP JUMP JUMPDEST PUSH1 0x0 DUP2 DUP2 MSTORE PUSH1 0x4 PUSH1 0x20 MSTORE PUSH1 0x40 DUP2 KECCAK256 SLOAD DUP2 SUB PUSH2 0x1646 JUMPI PUSH1 0x40 MLOAD PUSH3 0x461BCD PUSH1 0xE5 SHL DUP2 MSTORE PUSH1 0x4 ADD PUSH2 0x9C4 SWAP1 PUSH2 0x4833 JUMP JUMPDEST POP PUSH1 0x0 SWAP1 DUP2 MSTORE PUSH1 0x4 PUSH1 0x20 DUP2 SWAP1 MSTORE PUSH1 0x40 SWAP1 SWAP2 KECCAK256 ADD SLOAD PUSH1 0xFF AND SWAP1 JUMP JUMPDEST PUSH2 0x166C CALLER DUP5 DUP5 DUP5 PUSH2 0x19FD JUMP JUMPDEST POP POP POP JUMP JUMPDEST PUSH2 0x1679 PUSH2 0x3783 JUMP JUMPDEST PUSH2 0x1683 PUSH1 0x0 PUSH2 0x3805 JUMP JUMPDEST JUMP JUMPDEST PUSH1 0x0 JUMPDEST SWAP3 SWAP2 POP POP JUMP JUMPDEST PUSH2 0x118F CALLER DUP4 DUP4 CALLVALUE PUSH2 0xD4E JUMP JUMPDEST PUSH1 0x1 PUSH1 0x1 PUSH1 0xA0 SHL SUB DUP2 AND PUSH1 0x0 SWAP1 DUP2 MSTORE PUSH1 0x8 PUSH1 0x20 SWAP1 DUP2 MSTORE PUSH1 0x40 DUP1 DUP4 KECCAK256 DUP1 SLOAD DUP3 MLOAD DUP2 DUP6 MUL DUP2 ADD DUP6 ADD SWAP1 SWAP4 MSTORE DUP1 DUP4 MSTORE DUP5 SWAP4 DUP4 ADD DUP3 DUP3 DUP1 ISZERO PUSH2 0x16F7 JUMPI PUSH1 0x20 MUL DUP3 ADD SWAP2 SWAP1 PUSH1 0x0 MSTORE PUSH1 0x20 PUSH1 0x0 KECCAK256 SWAP1 JUMPDEST DUP2 SLOAD DUP2 MSTORE PUSH1 0x20 ADD SWAP1 PUSH1 0x1 ADD SWAP1 DUP1 DUP4 GT PUSH2 0x16E3 JUMPI JUMPDEST POP POP POP POP POP SWAP1 POP DUP1 MLOAD PUSH1 0x0 SUB PUSH2 0x1710 JUMPI POP PUSH1 0x0 SWAP3 SWAP2 POP POP JUMP JUMPDEST PUSH1 0x0 DUP1 JUMPDEST DUP3 MLOAD DUP2 LT ISZERO PUSH2 0x174C JUMPI DUP3 DUP2 DUP2 MLOAD DUP2 LT PUSH2 0x172F JUMPI PUSH2 0x172F PUSH2 0x46C0 JUMP JUMPDEST PUSH1 0x20 MUL PUSH1 0x20 ADD ADD MLOAD DUP3 PUSH2 0x1742 SWAP2 SWAP1 PUSH2 0x46EC JUMP JUMPDEST SWAP2 POP PUSH1 0x1 ADD PUSH2 0x1714 JUMP JUMPDEST POP DUP2 MLOAD PUSH2 0x1759 SWAP1 DUP3 PUSH2 0x485F JUMP JUMPDEST SWAP5 SWAP4 POP POP POP POP JUMP JUMPDEST PUSH2 0x179C PUSH1 0x40 MLOAD DUP1 PUSH1 0xA0 ADD PUSH1 0x40 MSTORE DUP1 PUSH1 0x0 DUP2 MSTORE PUSH1 0x20 ADD PUSH1 0x0 DUP2 MSTORE PUSH1 0x20 ADD PUSH1 0x0 PUSH1 0x1 PUSH1 0x1 PUSH1 0xA0 SHL SUB AND DUP2 MSTORE PUSH1 0x20 ADD PUSH1 0x60 DUP2 MSTORE PUSH1 0x20 ADD PUSH1 0x60 DUP2 MSTORE POP SWAP1 JUMP JUMPDEST PUSH1 0x0 DUP4 DUP2 MSTORE PUSH1 0x5 PUSH1 0x20 SWAP1 DUP2 MSTORE PUSH1 0x40 DUP1 DUP4 KECCAK256 DUP6 DUP5 MSTORE SWAP1 SWAP2 MSTORE DUP2 KECCAK256 SLOAD SWAP1 SUB PUSH2 0x1804 JUMPI PUSH1 0x40 MLOAD PUSH3 0x461BCD PUSH1 0xE5 SHL DUP2 MSTORE PUSH1 0x20 PUSH1 0x4 DUP3 ADD MSTORE PUSH1 0x1A PUSH1 0x24 DUP3 ADD MSTORE PUSH32 0x4170706C69636174696F6E20646F6573206E6F74206578697374000000000000 PUSH1 0x44 DUP3 ADD MSTORE PUSH1 0x64 ADD PUSH2 0x9C4 JUMP JUMPDEST PUSH1 0x0 DUP4 DUP2 MSTORE PUSH1 0x5 PUSH1 0x20 SWAP1 DUP2 MSTORE PUSH1 0x40 DUP1 DUP4 KECCAK256 DUP6 DUP5 MSTORE DUP3 MSTORE SWAP2 DUP3 SWAP1 KECCAK256 DUP3 MLOAD PUSH1 0xA0 DUP2 ADD DUP5 MSTORE DUP2 SLOAD DUP2 MSTORE PUSH1 0x1 DUP3 ADD SLOAD SWAP3 DUP2 ADD SWAP3 SWAP1 SWAP3 MSTORE PUSH1 0x2 DUP2 ADD SLOAD PUSH1 0x1 PUSH1 0x1 PUSH1 0xA0 SHL SUB AND SWAP3 DUP3 ADD SWAP3 SWAP1 SWAP3 MSTORE PUSH1 0x3 DUP3 ADD DUP1 SLOAD SWAP2 SWAP3 SWAP2 PUSH1 0x60 DUP5 ADD SWAP2 SWAP1 PUSH2 0x1863 SWAP1 PUSH2 0x468C JUMP JUMPDEST DUP1 PUSH1 0x1F ADD PUSH1 0x20 DUP1 SWAP2 DIV MUL PUSH1 0x20 ADD PUSH1 0x40 MLOAD SWAP1 DUP2 ADD PUSH1 0x40 MSTORE DUP1 SWAP3 SWAP2 SWAP1 DUP2 DUP2 MSTORE PUSH1 0x20 ADD DUP3 DUP1 SLOAD PUSH2 0x188F SWAP1 PUSH2 0x468C JUMP JUMPDEST DUP1 ISZERO PUSH2 0x18DC JUMPI DUP1 PUSH1 0x1F LT PUSH2 0x18B1 JUMPI PUSH2 0x100 DUP1 DUP4 SLOAD DIV MUL DUP4 MSTORE SWAP2 PUSH1 0x20 ADD SWAP2 PUSH2 0x18DC JUMP JUMPDEST DUP3 ADD SWAP2 SWAP1 PUSH1 0x0 MSTORE PUSH1 0x20 PUSH1 0x0 KECCAK256 SWAP1 JUMPDEST DUP2 SLOAD DUP2 MSTORE SWAP1 PUSH1 0x1 ADD SWAP1 PUSH1 0x20 ADD DUP1 DUP4 GT PUSH2 0x18BF JUMPI DUP3 SWAP1 SUB PUSH1 0x1F AND DUP3 ADD SWAP2 JUMPDEST POP POP POP POP POP DUP2 MSTORE PUSH1 0x20 ADD PUSH1 0x4 DUP3 ADD DUP1 SLOAD DUP1 PUSH1 0x20 MUL PUSH1 0x20 ADD PUSH1 0x40 MLOAD SWAP1 DUP2 ADD PUSH1 0x40 MSTORE DUP1 SWAP3 SWAP2 SWAP1 DUP2 DUP2 MSTORE PUSH1 0x20 ADD PUSH1 0x0 SWAP1 JUMPDEST DUP3 DUP3 LT ISZERO PUSH2 0x19D8 JUMPI DUP4 DUP3 SWAP1 PUSH1 0x0 MSTORE PUSH1 0x20 PUSH1 0x0 KECCAK256 SWAP1 PUSH1 0x2 MUL ADD PUSH1 0x40 MLOAD DUP1 PUSH1 0x40 ADD PUSH1 0x40 MSTORE SWAP1 DUP2 PUSH1 0x0 DUP3 ADD DUP1 SLOAD PUSH2 0x193D SWAP1 PUSH2 0x468C JUMP JUMPDEST DUP1 PUSH1 0x1F ADD PUSH1 0x20 DUP1 SWAP2 DIV MUL PUSH1 0x20 ADD PUSH1 0x40 MLOAD SWAP1 DUP2 ADD PUSH1 0x40 MSTORE DUP1 SWAP3 SWAP2 SWAP1 DUP2 DUP2 MSTORE PUSH1 0x20 ADD DUP3 DUP1 SLOAD PUSH2 0x1969 SWAP1 PUSH2 0x468C JUMP JUMPDEST DUP1 ISZERO PUSH2 0x19B6 JUMPI DUP1 PUSH1 0x1F LT PUSH2 0x198B JUMPI PUSH2 0x100 DUP1 DUP4 SLOAD DIV MUL DUP4 MSTORE SWAP2 PUSH1 0x20 ADD SWAP2 PUSH2 0x19B6 JUMP JUMPDEST DUP3 ADD SWAP2 SWAP1 PUSH1 0x0 MSTORE PUSH1 0x20 PUSH1 0x0 KECCAK256 SWAP1 JUMPDEST DUP2 SLOAD DUP2 MSTORE SWAP1 PUSH1 0x1 ADD SWAP1 PUSH1 0x20 ADD DUP1 DUP4 GT PUSH2 0x1999 JUMPI DUP3 SWAP1 SUB PUSH1 0x1F AND DUP3 ADD SWAP2 JUMPDEST POP POP POP POP POP DUP2 MSTORE PUSH1 0x20 ADD PUSH1 0x1 DUP3 ADD SLOAD DUP2 MSTORE POP POP DUP2 MSTORE PUSH1 0x20 ADD SWAP1 PUSH1 0x1 ADD SWAP1 PUSH2 0x190A JUMP JUMPDEST POP POP POP SWAP2 MSTORE POP SWAP1 SWAP5 SWAP4 POP POP POP POP JUMP JUMPDEST PUSH2 0x118F CALLER DUP4 DUP4 PUSH2 0x2C5E JUMP JUMPDEST PUSH2 0x118F CALLER DUP4 DUP4 PUSH2 0x27F8 JUMP JUMPDEST PUSH1 0x1 PUSH1 0x1 PUSH1 0xA0 SHL SUB DUP5 AND PUSH1 0x0 SWAP1 DUP2 MSTORE PUSH1 0x3 PUSH1 0x20 MSTORE PUSH1 0x40 SWAP1 KECCAK256 SLOAD PUSH1 0xFF AND PUSH2 0x1A65 JUMPI PUSH1 0x40 MLOAD PUSH3 0x461BCD PUSH1 0xE5 SHL DUP2 MSTORE PUSH1 0x20 PUSH1 0x4 DUP3 ADD MSTORE PUSH1 0x1A PUSH1 0x24 DUP3 ADD MSTORE PUSH32 0x4D75737420686176652070726F66696C6520746F206170706C79000000000000 PUSH1 0x44 DUP3 ADD MSTORE PUSH1 0x64 ADD PUSH2 0x9C4 JUMP JUMPDEST PUSH1 0x0 DUP4 DUP2 MSTORE PUSH1 0x4 PUSH1 0x20 MSTORE PUSH1 0x40 DUP2 KECCAK256 SLOAD SWAP1 SUB PUSH2 0x1A92 JUMPI PUSH1 0x40 MLOAD PUSH3 0x461BCD PUSH1 0xE5 SHL DUP2 MSTORE PUSH1 0x4 ADD PUSH2 0x9C4 SWAP1 PUSH2 0x4833 JUMP JUMPDEST PUSH1 0x0 DUP4 DUP2 MSTORE PUSH1 0x4 PUSH1 0x20 DUP2 SWAP1 MSTORE PUSH1 0x40 SWAP1 SWAP2 KECCAK256 ADD SLOAD PUSH1 0xFF AND PUSH2 0x1AE6 JUMPI PUSH1 0x40 MLOAD PUSH3 0x461BCD PUSH1 0xE5 SHL DUP2 MSTORE PUSH1 0x20 PUSH1 0x4 DUP3 ADD MSTORE PUSH1 0xF PUSH1 0x24 DUP3 ADD MSTORE PUSH15 0x2537B11034B9903737BA1037B832B7 PUSH1 0x89 SHL PUSH1 0x44 DUP3 ADD MSTORE PUSH1 0x64 ADD PUSH2 0x9C4 JUMP JUMPDEST PUSH1 0x0 DUP4 DUP2 MSTORE PUSH1 0x4 PUSH1 0x20 MSTORE PUSH1 0x40 SWAP1 KECCAK256 PUSH1 0x1 ADD SLOAD PUSH1 0x1 PUSH1 0x1 PUSH1 0xA0 SHL SUB DUP1 DUP7 AND SWAP2 AND SUB PUSH2 0x1B52 JUMPI PUSH1 0x40 MLOAD PUSH3 0x461BCD PUSH1 0xE5 SHL DUP2 MSTORE PUSH1 0x20 PUSH1 0x4 DUP3 ADD MSTORE PUSH1 0x17 PUSH1 0x24 DUP3 ADD MSTORE PUSH32 0x43616E6E6F74206170706C7920746F206F776E206A6F62000000000000000000 PUSH1 0x44 DUP3 ADD MSTORE PUSH1 0x64 ADD PUSH2 0x9C4 JUMP JUMPDEST PUSH1 0x0 DUP2 MLOAD GT PUSH2 0x1BAF JUMPI PUSH1 0x40 MLOAD PUSH3 0x461BCD PUSH1 0xE5 SHL DUP2 MSTORE PUSH1 0x20 PUSH1 0x4 DUP3 ADD MSTORE PUSH1 0x23 PUSH1 0x24 DUP3 ADD MSTORE PUSH32 0x4D7573742070726F706F7365206174206C65617374206F6E65206D696C657374 PUSH1 0x44 DUP3 ADD MSTORE PUSH3 0x6F6E65 PUSH1 0xE8 SHL PUSH1 0x64 DUP3 ADD MSTORE PUSH1 0x84 ADD PUSH2 0x9C4 JUMP JUMPDEST PUSH1 0x0 JUMPDEST PUSH1 0x0 DUP5 DUP2 MSTORE PUSH1 0x4 PUSH1 0x20 MSTORE PUSH1 0x40 SWAP1 KECCAK256 PUSH1 0x2 ADD SLOAD DUP2 LT ISZERO PUSH2 0x1C64 JUMPI PUSH1 0x0 DUP5 DUP2 MSTORE PUSH1 0x4 PUSH1 0x20 MSTORE PUSH1 0x40 SWAP1 KECCAK256 PUSH1 0x2 ADD DUP1 SLOAD PUSH1 0x1 PUSH1 0x1 PUSH1 0xA0 SHL SUB DUP8 AND SWAP2 SWAP1 DUP4 SWAP1 DUP2 LT PUSH2 0x1BFA JUMPI PUSH2 0x1BFA PUSH2 0x46C0 JUMP JUMPDEST PUSH1 0x0 SWAP2 DUP3 MSTORE PUSH1 0x20 SWAP1 SWAP2 KECCAK256 ADD SLOAD PUSH1 0x1 PUSH1 0x1 PUSH1 0xA0 SHL SUB AND SUB PUSH2 0x1C5C JUMPI PUSH1 0x40 MLOAD PUSH3 0x461BCD PUSH1 0xE5 SHL DUP2 MSTORE PUSH1 0x20 PUSH1 0x4 DUP3 ADD MSTORE PUSH1 0x1B PUSH1 0x24 DUP3 ADD MSTORE PUSH32 0x416C7265616479206170706C69656420746F2074686973206A6F620000000000 PUSH1 0x44 DUP3 ADD MSTORE PUSH1 0x64 ADD PUSH2 0x9C4 JUMP JUMPDEST PUSH1 0x1 ADD PUSH2 0x1BB2 JUMP JUMPDEST POP PUSH1 0x0 DUP4 DUP2 MSTORE PUSH1 0x4 PUSH1 0x20 SWAP1 DUP2 MSTORE PUSH1 0x40 DUP1 DUP4 KECCAK256 PUSH1 0x2 ADD DUP1 SLOAD PUSH1 0x1 DUP2 ADD DUP3 SSTORE SWAP1 DUP5 MSTORE DUP3 DUP5 KECCAK256 ADD DUP1 SLOAD PUSH1 0x1 PUSH1 0x1 PUSH1 0xA0 SHL SUB NOT AND PUSH1 0x1 PUSH1 0x1 PUSH1 0xA0 SHL SUB DUP10 AND OR SWAP1 SSTORE DUP6 DUP4 MSTORE PUSH1 0x6 SWAP1 SWAP2 MSTORE DUP2 KECCAK256 DUP1 SLOAD SWAP2 PUSH2 0x1CB7 DUP4 PUSH2 0x46FF JUMP JUMPDEST SWAP1 SWAP2 SSTORE POP POP PUSH1 0x0 DUP4 DUP2 MSTORE PUSH1 0x6 PUSH1 0x20 SWAP1 DUP2 MSTORE PUSH1 0x40 DUP1 DUP4 KECCAK256 SLOAD PUSH1 0x5 DUP4 MSTORE DUP2 DUP5 KECCAK256 DUP2 DUP6 MSTORE SWAP1 SWAP3 MSTORE SWAP1 SWAP2 KECCAK256 DUP2 DUP2 SSTORE PUSH1 0x1 DUP2 ADD DUP6 SWAP1 SSTORE PUSH1 0x2 DUP2 ADD DUP1 SLOAD PUSH1 0x1 PUSH1 0x1 PUSH1 0xA0 SHL SUB NOT AND PUSH1 0x1 PUSH1 0x1 PUSH1 0xA0 SHL SUB DUP9 AND OR SWAP1 SSTORE PUSH1 0x3 DUP2 ADD PUSH2 0x1D13 DUP6 DUP3 PUSH2 0x475F JUMP JUMPDEST POP PUSH1 0x0 JUMPDEST DUP4 MLOAD DUP2 LT ISZERO PUSH2 0x1D7C JUMPI DUP2 PUSH1 0x4 ADD DUP5 DUP3 DUP2 MLOAD DUP2 LT PUSH2 0x1D36 JUMPI PUSH2 0x1D36 PUSH2 0x46C0 JUMP JUMPDEST PUSH1 0x20 SWAP1 DUP2 MUL SWAP2 SWAP1 SWAP2 ADD DUP2 ADD MLOAD DUP3 SLOAD PUSH1 0x1 DUP2 ADD DUP5 SSTORE PUSH1 0x0 SWAP4 DUP5 MSTORE SWAP2 SWAP1 SWAP3 KECCAK256 DUP3 MLOAD PUSH1 0x2 SWAP1 SWAP3 MUL ADD SWAP1 DUP2 SWAP1 PUSH2 0x1D68 SWAP1 DUP3 PUSH2 0x475F JUMP JUMPDEST POP PUSH1 0x20 SWAP2 SWAP1 SWAP2 ADD MLOAD PUSH1 0x1 SWAP2 DUP3 ADD SSTORE ADD PUSH2 0x1D17 JUMP JUMPDEST POP DUP6 PUSH1 0x1 PUSH1 0x1 PUSH1 0xA0 SHL SUB AND DUP3 DUP7 PUSH32 0x5753F04758D72C07FFC0A1F59241391A57CE340804EBDDA56F510EF21E83EBF0 DUP8 PUSH1 0x40 MLOAD PUSH2 0x1DB8 SWAP2 SWAP1 PUSH2 0x4820 JUMP JUMPDEST PUSH1 0x40 MLOAD DUP1 SWAP2 SUB SWAP1 LOG4 POP POP POP POP POP POP JUMP JUMPDEST PUSH2 0x166C CALLER DUP5 DUP5 DUP5 JUMPDEST PUSH1 0x0 DUP4 DUP2 MSTORE PUSH1 0x4 PUSH1 0x20 MSTORE PUSH1 0x40 DUP2 KECCAK256 SLOAD SWAP1 SUB PUSH2 0x1DFD JUMPI PUSH1 0x40 MLOAD PUSH3 0x461BCD PUSH1 0xE5 SHL DUP2 MSTORE PUSH1 0x4 ADD PUSH2 0x9C4 SWAP1 PUSH2 0x4833 JUMP JUMPDEST PUSH1 0x0 DUP4 DUP2 MSTORE PUSH1 0x4 PUSH1 0x20 DUP2 SWAP1 MSTORE PUSH1 0x40 SWAP1 SWAP2 KECCAK256 ADD SLOAD PUSH1 0xFF AND ISZERO PUSH2 0x1E30 JUMPI PUSH1 0x40 MLOAD PUSH3 0x461BCD PUSH1 0xE5 SHL DUP2 MSTORE PUSH1 0x4 ADD PUSH2 0x9C4 SWAP1 PUSH2 0x4881 JUMP JUMPDEST PUSH1 0x1 DUP2 LT ISZERO DUP1 ISZERO PUSH2 0x1E42 JUMPI POP PUSH1 0x5 DUP2 GT ISZERO JUMPDEST PUSH2 0x1E8E JUMPI PUSH1 0x40 MLOAD PUSH3 0x461BCD PUSH1 0xE5 SHL DUP2 MSTORE PUSH1 0x20 PUSH1 0x4 DUP3 ADD MSTORE PUSH1 0x1E PUSH1 0x24 DUP3 ADD MSTORE PUSH32 0x526174696E67206D757374206265206265747765656E203120616E6420350000 PUSH1 0x44 DUP3 ADD MSTORE PUSH1 0x64 ADD PUSH2 0x9C4 JUMP JUMPDEST PUSH1 0x0 DUP4 DUP2 MSTORE PUSH1 0x7 PUSH1 0x20 SWAP1 DUP2 MSTORE PUSH1 0x40 DUP1 DUP4 KECCAK256 PUSH1 0x1 PUSH1 0x1 PUSH1 0xA0 SHL SUB DUP7 AND DUP5 MSTORE SWAP1 SWAP2 MSTORE SWAP1 KECCAK256 SLOAD ISZERO PUSH2 0x1EFE JUMPI PUSH1 0x40 MLOAD PUSH3 0x461BCD PUSH1 0xE5 SHL DUP2 MSTORE PUSH1 0x20 PUSH1 0x4 DUP3 ADD MSTORE PUSH1 0x1F PUSH1 0x24 DUP3 ADD MSTORE PUSH32 0x5573657220616C726561647920726174656420666F722074686973206A6F6200 PUSH1 0x44 DUP3 ADD MSTORE PUSH1 0x64 ADD PUSH2 0x9C4 JUMP JUMPDEST PUSH1 0x0 DUP4 DUP2 MSTORE PUSH1 0x4 PUSH1 0x20 MSTORE PUSH1 0x40 DUP2 KECCAK256 PUSH1 0x1 ADD SLOAD PUSH1 0x1 PUSH1 0x1 PUSH1 0xA0 SHL SUB DUP7 DUP2 AND SWAP2 AND EQ DUP1 ISZERO PUSH2 0x1F46 JUMPI POP PUSH1 0x0 DUP5 DUP2 MSTORE PUSH1 0x4 PUSH1 0x20 MSTORE PUSH1 0x40 SWAP1 KECCAK256 PUSH1 0xB ADD SLOAD PUSH1 0x1 PUSH1 0x1 PUSH1 0xA0 SHL SUB DUP5 DUP2 AND SWAP2 AND EQ JUMPDEST ISZERO PUSH2 0x1F53 JUMPI POP PUSH1 0x1 PUSH2 0x1FA4 JUMP JUMPDEST PUSH1 0x0 DUP5 DUP2 MSTORE PUSH1 0x4 PUSH1 0x20 MSTORE PUSH1 0x40 SWAP1 KECCAK256 PUSH1 0xB ADD SLOAD PUSH1 0x1 PUSH1 0x1 PUSH1 0xA0 SHL SUB DUP7 DUP2 AND SWAP2 AND EQ DUP1 ISZERO PUSH2 0x1F9B JUMPI POP PUSH1 0x0 DUP5 DUP2 MSTORE PUSH1 0x4 PUSH1 0x20 MSTORE PUSH1 0x40 SWAP1 KECCAK256 PUSH1 0x1 ADD SLOAD PUSH1 0x1 PUSH1 0x1 PUSH1 0xA0 SHL SUB DUP5 DUP2 AND SWAP2 AND EQ JUMPDEST ISZERO PUSH2 0x1FA4 JUMPI POP PUSH1 0x1 JUMPDEST DUP1 PUSH2 0x2007 JUMPI PUSH1 0x40 MLOAD PUSH3 0x461BCD PUSH1 0xE5 SHL DUP2 MSTORE PUSH1 0x20 PUSH1 0x4 DUP3 ADD MSTORE PUSH1 0x2D PUSH1 0x24 DUP3 ADD MSTORE PUSH32 0x4E6F7420617574686F72697A656420746F207261746520746869732075736572 PUSH1 0x44 DUP3 ADD MSTORE PUSH13 0x103337B9103A3434B9903537B1 PUSH1 0x99 SHL PUSH1 0x64 DUP3 ADD MSTORE PUSH1 0x84 ADD PUSH2 0x9C4 JUMP JUMPDEST PUSH1 0x0 DUP5 DUP2 MSTORE PUSH1 0x7 PUSH1 0x20 SWAP1 DUP2 MSTORE PUSH1 0x40 DUP1 DUP4 KECCAK256 PUSH1 0x1 PUSH1 0x1 PUSH1 0xA0 SHL SUB DUP8 DUP2 AND DUP1 DUP7 MSTORE SWAP2 DUP5 MSTORE DUP3 DUP6 KECCAK256 DUP8 SWAP1 SSTORE PUSH1 0x8 DUP5 MSTORE DUP3 DUP6 KECCAK256 DUP1 SLOAD PUSH1 0x1 DUP2 ADD DUP3 SSTORE SWAP1 DUP7 MSTORE SWAP5 DUP5 SWAP1 KECCAK256 SWAP1 SWAP5 ADD DUP7 SWAP1 SSTORE SWAP1 MLOAD DUP6 DUP2 MSTORE SWAP1 SWAP3 DUP9 AND SWAP2 DUP8 SWAP2 PUSH32 0xABFDB5CA6197E86C57B31CFFB45DAC27A3EFF08D7E825B6F1FB66C2C06FEF6D7 SWAP2 ADD PUSH1 0x40 MLOAD DUP1 SWAP2 SUB SWAP1 LOG4 POP POP POP POP POP JUMP JUMPDEST PUSH1 0x0 DUP3 DUP2 MSTORE PUSH1 0x4 PUSH1 0x20 MSTORE PUSH1 0x40 DUP2 KECCAK256 SLOAD SWAP1 SUB PUSH2 0x20B6 JUMPI PUSH1 0x40 MLOAD PUSH3 0x461BCD PUSH1 0xE5 SHL DUP2 MSTORE PUSH1 0x4 ADD PUSH2 0x9C4 SWAP1 PUSH2 0x4833 JUMP JUMPDEST PUSH1 0x0 DUP3 DUP2 MSTORE PUSH1 0x4 PUSH1 0x20 DUP2 SWAP1 MSTORE PUSH1 0x40 SWAP1 SWAP2 KECCAK256 ADD SLOAD PUSH1 0xFF AND ISZERO PUSH2 0x20E9 JUMPI PUSH1 0x40 MLOAD PUSH3 0x461BCD PUSH1 0xE5 SHL DUP2 MSTORE PUSH1 0x4 ADD PUSH2 0x9C4 SWAP1 PUSH2 0x4881 JUMP JUMPDEST PUSH1 0x0 DUP3 DUP2 MSTORE PUSH1 0x4 PUSH1 0x20 MSTORE PUSH1 0x40 SWAP1 KECCAK256 PUSH1 0xB ADD SLOAD PUSH1 0x1 PUSH1 0x1 PUSH1 0xA0 SHL SUB DUP5 DUP2 AND SWAP2 AND EQ PUSH2 0x2165 JUMPI PUSH1 0x40 MLOAD PUSH3 0x461BCD PUSH1 0xE5 SHL DUP2 MSTORE PUSH1 0x20 PUSH1 0x4 DUP3 ADD MSTORE PUSH1 0x27 PUSH1 0x24 DUP3 ADD MSTORE PUSH32 0x4F6E6C792073656C6563746564206170706C6963616E742063616E207375626D PUSH1 0x44 DUP3 ADD MSTORE PUSH7 0x697420776F726B PUSH1 0xC8 SHL PUSH1 0x64 DUP3 ADD MSTORE PUSH1 0x84 ADD PUSH2 0x9C4 JUMP JUMPDEST PUSH1 0x0 DUP3 DUP2 MSTORE PUSH1 0x4 PUSH1 0x20 MSTORE PUSH1 0x40 SWAP1 KECCAK256 PUSH1 0x7 DUP2 ADD SLOAD PUSH1 0xA SWAP1 SWAP2 ADD SLOAD GT ISZERO PUSH2 0x21C7 JUMPI PUSH1 0x40 MLOAD PUSH3 0x461BCD PUSH1 0xE5 SHL DUP2 MSTORE PUSH1 0x20 PUSH1 0x4 DUP3 ADD MSTORE PUSH1 0x18 PUSH1 0x24 DUP3 ADD MSTORE PUSH24 0x105B1B081B5A5B195CDD1BDB995CC818DBDB5C1B195D1959 PUSH1 0x42 SHL PUSH1 0x44 DUP3 ADD MSTORE PUSH1 0x64 ADD PUSH2 0x9C4 JUMP JUMPDEST PUSH1 0x0 DUP3 DUP2 MSTORE PUSH1 0x4 PUSH1 0x20 SWAP1 DUP2 MSTORE PUSH1 0x40 DUP3 KECCAK256 PUSH1 0x5 ADD DUP1 SLOAD PUSH1 0x1 DUP2 ADD DUP3 SSTORE SWAP1 DUP4 MSTORE SWAP2 KECCAK256 ADD PUSH2 0x21F2 DUP3 DUP3 PUSH2 0x475F JUMP JUMPDEST POP DUP3 PUSH1 0x1 PUSH1 0x1 PUSH1 0xA0 SHL SUB AND DUP3 PUSH32 0x1AB2C8B3DB130B04659C610D59CD31E68A4D43F1E7B4CDB8E98D9571C9C6BFD6 DUP4 PUSH1 0x4 PUSH1 0x0 DUP8 DUP2 MSTORE PUSH1 0x20 ADD SWAP1 DUP2 MSTORE PUSH1 0x20 ADD PUSH1 0x0 KECCAK256 PUSH1 0xA ADD SLOAD PUSH1 0x40 MLOAD PUSH2 0x2245 SWAP3 SWAP2 SWAP1 PUSH2 0x48AE JUMP JUMPDEST PUSH1 0x40 MLOAD DUP1 SWAP2 SUB SWAP1 LOG3 POP POP POP JUMP JUMPDEST PUSH1 0x2 PUSH1 0x20 MSTORE PUSH1 0x0 SWAP1 DUP2 MSTORE PUSH1 0x40 SWAP1 KECCAK256 DUP1 SLOAD PUSH1 0x1 DUP3 ADD DUP1 SLOAD PUSH1 0x1 PUSH1 0x1 PUSH1 0xA0 SHL SUB SWAP1 SWAP3 AND SWAP3 SWAP2 PUSH2 0x227E SWAP1 PUSH2 0x468C JUMP JUMPDEST DUP1 PUSH1 0x1F ADD PUSH1 0x20 DUP1 SWAP2 DIV MUL PUSH1 0x20 ADD PUSH1 0x40 MLOAD SWAP1 DUP2 ADD PUSH1 0x40 MSTORE DUP1 SWAP3 SWAP2 SWAP1 DUP2 DUP2 MSTORE PUSH1 0x20 ADD DUP3 DUP1 SLOAD PUSH2 0x22AA SWAP1 PUSH2 0x468C JUMP JUMPDEST DUP1 ISZERO PUSH2 0x22F7 JUMPI DUP1 PUSH1 0x1F LT PUSH2 0x22CC JUMPI PUSH2 0x100 DUP1 DUP4 SLOAD DIV MUL DUP4 MSTORE SWAP2 PUSH1 0x20 ADD SWAP2 PUSH2 0x22F7 JUMP JUMPDEST DUP3 ADD SWAP2 SWAP1 PUSH1 0x0 MSTORE PUSH1 0x20 PUSH1 0x0 KECCAK256 SWAP1 JUMPDEST DUP2 SLOAD DUP2 MSTORE SWAP1 PUSH1 0x1 ADD SWAP1 PUSH1 0x20 ADD DUP1 DUP4 GT PUSH2 0x22DA JUMPI DUP3 SWAP1 SUB PUSH1 0x1F AND DUP3 ADD SWAP2 JUMPDEST POP POP POP POP PUSH1 0x2 DUP4 ADD SLOAD PUSH1 0x3 SWAP1 SWAP4 ADD SLOAD SWAP2 SWAP3 PUSH1 0x1 PUSH1 0x1 PUSH1 0xA0 SHL SUB AND SWAP2 SWAP1 POP DUP5 JUMP JUMPDEST PUSH1 0x8 PUSH1 0x20 MSTORE DUP2 PUSH1 0x0 MSTORE PUSH1 0x40 PUSH1 0x0 KECCAK256 DUP2 DUP2 SLOAD DUP2 LT PUSH2 0x2333 JUMPI PUSH1 0x0 DUP1 REVERT JUMPDEST SWAP1 PUSH1 0x0 MSTORE PUSH1 0x20 PUSH1 0x0 KECCAK256 ADD PUSH1 0x0 SWAP2 POP SWAP2 POP POP SLOAD DUP2 JUMP JUMPDEST PUSH2 0x2350 PUSH2 0x3855 JUMP JUMPDEST PUSH1 0x0 DUP3 DUP2 MSTORE PUSH1 0x4 PUSH1 0x20 MSTORE PUSH1 0x40 DUP2 KECCAK256 SLOAD SWAP1 SUB PUSH2 0x237D JUMPI PUSH1 0x40 MLOAD PUSH3 0x461BCD PUSH1 0xE5 SHL DUP2 MSTORE PUSH1 0x4 ADD PUSH2 0x9C4 SWAP1 PUSH2 0x4833 JUMP JUMPDEST PUSH1 0x0 DUP3 DUP2 MSTORE PUSH1 0x4 PUSH1 0x20 SWAP1 DUP2 MSTORE PUSH1 0x40 SWAP2 DUP3 SWAP1 KECCAK256 DUP3 MLOAD PUSH2 0x1A0 DUP2 ADD DUP5 MSTORE DUP2 SLOAD DUP2 MSTORE PUSH1 0x1 DUP3 ADD SLOAD PUSH1 0x1 PUSH1 0x1 PUSH1 0xA0 SHL SUB AND DUP2 DUP5 ADD MSTORE PUSH1 0x2 DUP3 ADD DUP1 SLOAD DUP6 MLOAD DUP2 DUP7 MUL DUP2 ADD DUP7 ADD DUP8 MSTORE DUP2 DUP2 MSTORE SWAP3 SWAP6 SWAP4 SWAP5 SWAP4 DUP7 ADD SWAP4 DUP4 ADD DUP3 DUP3 DUP1 ISZERO PUSH2 0x2403 JUMPI PUSH1 0x20 MUL DUP3 ADD SWAP2 SWAP1 PUSH1 0x0 MSTORE PUSH1 0x20 PUSH1 0x0 KECCAK256 SWAP1 JUMPDEST DUP2 SLOAD PUSH1 0x1 PUSH1 0x1 PUSH1 0xA0 SHL SUB AND DUP2 MSTORE PUSH1 0x1 SWAP1 SWAP2 ADD SWAP1 PUSH1 0x20 ADD DUP1 DUP4 GT PUSH2 0x23E5 JUMPI JUMPDEST POP POP POP POP POP DUP2 MSTORE PUSH1 0x20 ADD PUSH1 0x3 DUP3 ADD DUP1 SLOAD PUSH2 0x241C SWAP1 PUSH2 0x468C JUMP JUMPDEST DUP1 PUSH1 0x1F ADD PUSH1 0x20 DUP1 SWAP2 DIV MUL PUSH1 0x20 ADD PUSH1 0x40 MLOAD SWAP1 DUP2 ADD PUSH1 0x40 MSTORE DUP1 SWAP3 SWAP2 SWAP1 DUP2 DUP2 MSTORE PUSH1 0x20 ADD DUP3 DUP1 SLOAD PUSH2 0x2448 SWAP1 PUSH2 0x468C JUMP JUMPDEST DUP1 ISZERO PUSH2 0x2495 JUMPI DUP1 PUSH1 0x1F LT PUSH2 0x246A JUMPI PUSH2 0x100 DUP1 DUP4 SLOAD DIV MUL DUP4 MSTORE SWAP2 PUSH1 0x20 ADD SWAP2 PUSH2 0x2495 JUMP JUMPDEST DUP3 ADD SWAP2 SWAP1 PUSH1 0x0 MSTORE PUSH1 0x20 PUSH1 0x0 KECCAK256 SWAP1 JUMPDEST DUP2 SLOAD DUP2 MSTORE SWAP1 PUSH1 0x1 ADD SWAP1 PUSH1 0x20 ADD DUP1 DUP4 GT PUSH2 0x2478 JUMPI DUP3 SWAP1 SUB PUSH1 0x1F AND DUP3 ADD SWAP2 JUMPDEST POP POP POP SWAP2 DUP4 MSTORE POP POP PUSH1 0x4 DUP3 ADD SLOAD PUSH1 0xFF AND ISZERO ISZERO PUSH1 0x20 DUP1 DUP4 ADD SWAP2 SWAP1 SWAP2 MSTORE PUSH1 0x5 DUP4 ADD DUP1 SLOAD PUSH1 0x40 DUP1 MLOAD DUP3 DUP6 MUL DUP2 ADD DUP6 ADD DUP3 MSTORE DUP3 DUP2 MSTORE SWAP5 ADD SWAP4 SWAP3 PUSH1 0x0 SWAP1 DUP5 ADD JUMPDEST DUP3 DUP3 LT ISZERO PUSH2 0x257C JUMPI DUP4 DUP3 SWAP1 PUSH1 0x0 MSTORE PUSH1 0x20 PUSH1 0x0 KECCAK256 ADD DUP1 SLOAD PUSH2 0x24EF SWAP1 PUSH2 0x468C JUMP JUMPDEST DUP1 PUSH1 0x1F ADD PUSH1 0x20 DUP1 SWAP2 DIV MUL PUSH1 0x20 ADD PUSH1 0x40 MLOAD SWAP1 DUP2 ADD PUSH1 0x40 MSTORE DUP1 SWAP3 SWAP2 SWAP1 DUP2 DUP2 MSTORE PUSH1 0x20 ADD DUP3 DUP1 SLOAD PUSH2 0x251B SWAP1 PUSH2 0x468C JUMP JUMPDEST DUP1 ISZERO PUSH2 0x2568 JUMPI DUP1 PUSH1 0x1F LT PUSH2 0x253D JUMPI PUSH2 0x100 DUP1 DUP4 SLOAD DIV MUL DUP4 MSTORE SWAP2 PUSH1 0x20 ADD SWAP2 PUSH2 0x2568 JUMP JUMPDEST DUP3 ADD SWAP2 SWAP1 PUSH1 0x0 MSTORE PUSH1 0x20 PUSH1 0x0 KECCAK256 SWAP1 JUMPDEST DUP2 SLOAD DUP2 MSTORE SWAP1 PUSH1 0x1 ADD SWAP1 PUSH1 0x20 ADD DUP1 DUP4 GT PUSH2 0x254B JUMPI DUP3 SWAP1 SUB PUSH1 0x1F AND DUP3 ADD SWAP2 JUMPDEST POP POP POP POP POP DUP2 MSTORE PUSH1 0x20 ADD SWAP1 PUSH1 0x1 ADD SWAP1 PUSH2 0x24D0 JUMP JUMPDEST POP POP POP POP DUP2 MSTORE PUSH1 0x20 ADD PUSH1 0x6 DUP3 ADD DUP1 SLOAD DUP1 PUSH1 0x20 MUL PUSH1 0x20 ADD PUSH1 0x40 MLOAD SWAP1 DUP2 ADD PUSH1 0x40 MSTORE DUP1 SWAP3 SWAP2 SWAP1 DUP2 DUP2 MSTORE PUSH1 0x20 ADD PUSH1 0x0 SWAP1 JUMPDEST DUP3 DUP3 LT ISZERO PUSH2 0x2677 JUMPI DUP4 DUP3 SWAP1 PUSH1 0x0 MSTORE PUSH1 0x20 PUSH1 0x0 KECCAK256 SWAP1 PUSH1 0x2 MUL ADD PUSH1 0x40 MLOAD DUP1 PUSH1 0x40 ADD PUSH1 0x40 MSTORE SWAP1 DUP2 PUSH1 0x0 DUP3 ADD DUP1 SLOAD PUSH2 0x25DC SWAP1 PUSH2 0x468C JUMP JUMPDEST DUP1 PUSH1 0x1F ADD PUSH1 0x20 DUP1 SWAP2 DIV MUL PUSH1 0x20 ADD PUSH1 0x40 MLOAD SWAP1 DUP2 ADD PUSH1 0x40 MSTORE DUP1 SWAP3 SWAP2 SWAP1 DUP2 DUP2 MSTORE PUSH1 0x20 ADD DUP3 DUP1 SLOAD PUSH2 0x2608 SWAP1 PUSH2 0x468C JUMP JUMPDEST DUP1 ISZERO PUSH2 0x2655 JUMPI DUP1 PUSH1 0x1F LT PUSH2 0x262A JUMPI PUSH2 0x100 DUP1 DUP4 SLOAD DIV MUL DUP4 MSTORE SWAP2 PUSH1 0x20 ADD SWAP2 PUSH2 0x2655 JUMP JUMPDEST DUP3 ADD SWAP2 SWAP1 PUSH1 0x0 MSTORE PUSH1 0x20 PUSH1 0x0 KECCAK256 SWAP1 JUMPDEST DUP2 SLOAD DUP2 MSTORE SWAP1 PUSH1 0x1 ADD SWAP1 PUSH1 0x20 ADD DUP1 DUP4 GT PUSH2 0x2638 JUMPI DUP3 SWAP1 SUB PUSH1 0x1F AND DUP3 ADD SWAP2 JUMPDEST POP POP POP POP POP DUP2 MSTORE PUSH1 0x20 ADD PUSH1 0x1 DUP3 ADD SLOAD DUP2 MSTORE POP POP DUP2 MSTORE PUSH1 0x20 ADD SWAP1 PUSH1 0x1 ADD SWAP1 PUSH2 0x25A9 JUMP JUMPDEST POP POP POP POP DUP2 MSTORE PUSH1 0x20 ADD PUSH1 0x7 DUP3 ADD DUP1 SLOAD DUP1 PUSH1 0x20 MUL PUSH1 0x20 ADD PUSH1 0x40 MLOAD SWAP1 DUP2 ADD PUSH1 0x40 MSTORE DUP1 SWAP3 SWAP2 SWAP1 DUP2 DUP2 MSTORE PUSH1 0x20 ADD PUSH1 0x0 SWAP1 JUMPDEST DUP3 DUP3 LT ISZERO PUSH2 0x15CF JUMPI DUP4 DUP3 SWAP1 PUSH1 0x0 MSTORE PUSH1 0x20 PUSH1 0x0 KECCAK256 SWAP1 PUSH1 0x2 MUL ADD PUSH1 0x40 MLOAD DUP1 PUSH1 0x40 ADD PUSH1 0x40 MSTORE SWAP1 DUP2 PUSH1 0x0 DUP3 ADD DUP1 SLOAD PUSH2 0x26D7 SWAP1 PUSH2 0x468C JUMP JUMPDEST DUP1 PUSH1 0x1F ADD PUSH1 0x20 DUP1 SWAP2 DIV MUL PUSH1 0x20 ADD PUSH1 0x40 MLOAD SWAP1 DUP2 ADD PUSH1 0x40 MSTORE DUP1 SWAP3 SWAP2 SWAP1 DUP2 DUP2 MSTORE PUSH1 0x20 ADD DUP3 DUP1 SLOAD PUSH2 0x2703 SWAP1 PUSH2 0x468C JUMP JUMPDEST DUP1 ISZERO PUSH2 0x2750 JUMPI DUP1 PUSH1 0x1F LT PUSH2 0x2725 JUMPI PUSH2 0x100 DUP1 DUP4 SLOAD DIV MUL DUP4 MSTORE SWAP2 PUSH1 0x20 ADD SWAP2 PUSH2 0x2750 JUMP JUMPDEST DUP3 ADD SWAP2 SWAP1 PUSH1 0x0 MSTORE PUSH1 0x20 PUSH1 0x0 KECCAK256 SWAP1 JUMPDEST DUP2 SLOAD DUP2 MSTORE SWAP1 PUSH1 0x1 ADD SWAP1 PUSH1 0x20 ADD DUP1 DUP4 GT PUSH2 0x2733 JUMPI DUP3 SWAP1 SUB PUSH1 0x1F AND DUP3 ADD SWAP2 JUMPDEST POP POP POP POP POP DUP2 MSTORE PUSH1 0x20 ADD PUSH1 0x1 DUP3 ADD SLOAD DUP2 MSTORE POP POP DUP2 MSTORE PUSH1 0x20 ADD SWAP1 PUSH1 0x1 ADD SWAP1 PUSH2 0x26A4 JUMP JUMPDEST PUSH2 0x277A PUSH2 0x3783 JUMP JUMPDEST PUSH1 0x40 MLOAD PUSH4 0xCA5EB5E1 PUSH1 0xE0 SHL DUP2 MSTORE PUSH1 0x1 PUSH1 0x1 PUSH1 0xA0 SHL SUB DUP3 DUP2 AND PUSH1 0x4 DUP4 ADD MSTORE PUSH32 0x0 AND SWAP1 PUSH4 0xCA5EB5E1 SWAP1 PUSH1 0x24 ADD PUSH1 0x0 PUSH1 0x40 MLOAD DUP1 DUP4 SUB DUP2 PUSH1 0x0 DUP8 DUP1 EXTCODESIZE ISZERO DUP1 ISZERO PUSH2 0x27DD JUMPI PUSH1 0x0 DUP1 REVERT JUMPDEST POP GAS CALL ISZERO DUP1 ISZERO PUSH2 0x27F1 JUMPI RETURNDATASIZE PUSH1 0x0 DUP1 RETURNDATACOPY RETURNDATASIZE PUSH1 0x0 REVERT JUMPDEST POP POP POP POP POP JUMP JUMPDEST PUSH1 0x0 PUSH1 0x1 JUMPDEST PUSH1 0x9 SLOAD DUP2 GT PUSH2 0x2841 JUMPI PUSH1 0x0 DUP2 DUP2 MSTORE PUSH1 0x5 PUSH1 0x20 SWAP1 DUP2 MSTORE PUSH1 0x40 DUP1 DUP4 KECCAK256 DUP8 DUP5 MSTORE SWAP1 SWAP2 MSTORE SWAP1 KECCAK256 SLOAD DUP5 SWAP1 SUB PUSH2 0x282F JUMPI DUP1 SWAP2 POP PUSH2 0x2841 JUMP JUMPDEST DUP1 PUSH2 0x2839 DUP2 PUSH2 0x46FF JUMP JUMPDEST SWAP2 POP POP PUSH2 0x27FD JUMP JUMPDEST POP DUP1 PUSH1 0x0 SUB PUSH2 0x2892 JUMPI PUSH1 0x40 MLOAD PUSH3 0x461BCD PUSH1 0xE5 SHL DUP2 MSTORE PUSH1 0x20 PUSH1 0x4 DUP3 ADD MSTORE PUSH1 0x1A PUSH1 0x24 DUP3 ADD MSTORE PUSH32 0x4170706C69636174696F6E20646F6573206E6F74206578697374000000000000 PUSH1 0x44 DUP3 ADD MSTORE PUSH1 0x64 ADD PUSH2 0x9C4 JUMP JUMPDEST PUSH1 0x0 DUP2 DUP2 MSTORE PUSH1 0x5 PUSH1 0x20 SWAP1 DUP2 MSTORE PUSH1 0x40 DUP1 DUP4 KECCAK256 DUP7 DUP5 MSTORE DUP3 MSTORE DUP1 DUP4 KECCAK256 DUP5 DUP5 MSTORE PUSH1 0x4 SWAP1 SWAP3 MSTORE SWAP1 SWAP2 KECCAK256 PUSH1 0x1 DUP2 ADD SLOAD PUSH1 0x1 PUSH1 0x1 PUSH1 0xA0 SHL SUB DUP8 DUP2 AND SWAP2 AND EQ PUSH2 0x2915 JUMPI PUSH1 0x40 MLOAD PUSH3 0x461BCD PUSH1 0xE5 SHL DUP2 MSTORE PUSH1 0x20 PUSH1 0x4 DUP3 ADD MSTORE PUSH1 0x1C PUSH1 0x24 DUP3 ADD MSTORE PUSH32 0x4F6E6C79206A6F622067697665722063616E207374617274206A6F6200000000 PUSH1 0x44 DUP3 ADD MSTORE PUSH1 0x64 ADD PUSH2 0x9C4 JUMP JUMPDEST PUSH1 0x4 DUP2 ADD SLOAD PUSH1 0xFF AND PUSH2 0x295B JUMPI PUSH1 0x40 MLOAD PUSH3 0x461BCD PUSH1 0xE5 SHL DUP2 MSTORE PUSH1 0x20 PUSH1 0x4 DUP3 ADD MSTORE PUSH1 0xF PUSH1 0x24 DUP3 ADD MSTORE PUSH15 0x2537B11034B9903737BA1037B832B7 PUSH1 0x89 SHL PUSH1 0x44 DUP3 ADD MSTORE PUSH1 0x64 ADD PUSH2 0x9C4 JUMP JUMPDEST PUSH1 0x2 DUP3 ADD SLOAD PUSH1 0x1 PUSH1 0x1 PUSH1 0xA0 SHL SUB AND PUSH2 0x29AB JUMPI PUSH1 0x40 MLOAD PUSH3 0x461BCD PUSH1 0xE5 SHL DUP2 MSTORE PUSH1 0x20 PUSH1 0x4 DUP3 ADD MSTORE PUSH1 0x13 PUSH1 0x24 DUP3 ADD MSTORE PUSH19 0x24B73B30B634B21030B8383634B1B0BA34B7B7 PUSH1 0x69 SHL PUSH1 0x44 DUP3 ADD MSTORE PUSH1 0x64 ADD PUSH2 0x9C4 JUMP JUMPDEST PUSH1 0x2 DUP3 ADD SLOAD PUSH1 0xB DUP3 ADD DUP1 SLOAD PUSH1 0x1 PUSH1 0x1 PUSH1 0xA0 SHL SUB NOT AND PUSH1 0x1 PUSH1 0x1 PUSH1 0xA0 SHL SUB SWAP1 SWAP3 AND SWAP2 SWAP1 SWAP2 OR SWAP1 SSTORE PUSH1 0xC DUP2 ADD DUP6 SWAP1 SSTORE PUSH1 0x4 DUP2 ADD DUP1 SLOAD PUSH1 0xFF NOT AND SWAP1 SSTORE PUSH1 0x1 PUSH1 0xA DUP3 ADD SSTORE DUP4 ISZERO PUSH2 0x2A5D JUMPI PUSH1 0x0 JUMPDEST PUSH1 0x4 DUP4 ADD SLOAD DUP2 LT ISZERO PUSH2 0x2A57 JUMPI DUP2 PUSH1 0x7 ADD DUP4 PUSH1 0x4 ADD DUP3 DUP2 SLOAD DUP2 LT PUSH2 0x2A19 JUMPI PUSH2 0x2A19 PUSH2 0x46C0 JUMP JUMPDEST PUSH1 0x0 SWAP2 DUP3 MSTORE PUSH1 0x20 DUP1 DUP4 KECCAK256 DUP5 SLOAD PUSH1 0x1 DUP2 ADD DUP7 SSTORE SWAP5 DUP5 MSTORE SWAP3 KECCAK256 PUSH1 0x2 SWAP2 DUP3 MUL SWAP1 SWAP3 ADD SWAP3 MUL ADD DUP1 PUSH2 0x2A46 DUP4 DUP3 PUSH2 0x48D0 JUMP JUMPDEST POP PUSH1 0x1 SWAP2 DUP3 ADD SLOAD SWAP1 DUP3 ADD SSTORE ADD PUSH2 0x29F4 JUMP JUMPDEST POP PUSH2 0x2AC5 JUMP JUMPDEST PUSH1 0x0 JUMPDEST PUSH1 0x6 DUP3 ADD SLOAD DUP2 LT ISZERO PUSH2 0x2AC3 JUMPI DUP2 PUSH1 0x7 ADD DUP3 PUSH1 0x6 ADD DUP3 DUP2 SLOAD DUP2 LT PUSH2 0x2A85 JUMPI PUSH2 0x2A85 PUSH2 0x46C0 JUMP JUMPDEST PUSH1 0x0 SWAP2 DUP3 MSTORE PUSH1 0x20 DUP1 DUP4 KECCAK256 DUP5 SLOAD PUSH1 0x1 DUP2 ADD DUP7 SSTORE SWAP5 DUP5 MSTORE SWAP3 KECCAK256 PUSH1 0x2 SWAP2 DUP3 MUL SWAP1 SWAP3 ADD SWAP3 MUL ADD DUP1 PUSH2 0x2AB2 DUP4 DUP3 PUSH2 0x48D0 JUMP JUMPDEST POP PUSH1 0x1 SWAP2 DUP3 ADD SLOAD SWAP1 DUP3 ADD SSTORE ADD PUSH2 0x2A60 JUMP JUMPDEST POP JUMPDEST PUSH1 0x2 DUP3 ADD SLOAD PUSH1 0x40 MLOAD DUP6 ISZERO ISZERO DUP2 MSTORE PUSH1 0x1 PUSH1 0x1 PUSH1 0xA0 SHL SUB SWAP1 SWAP2 AND SWAP1 DUP7 SWAP1 DUP6 SWAP1 PUSH32 0xFCA563CB5E680CD8FE4D8893C20EDF9CC5B59F6E8B460ECDAD7AA359A786CF65 SWAP1 PUSH1 0x20 ADD PUSH2 0x1DB8 JUMP JUMPDEST PUSH1 0x0 DUP3 DUP2 MSTORE PUSH1 0x4 PUSH1 0x20 MSTORE PUSH1 0x40 DUP2 KECCAK256 SLOAD SWAP1 SUB PUSH2 0x2B39 JUMPI PUSH1 0x40 MLOAD PUSH3 0x461BCD PUSH1 0xE5 SHL DUP2 MSTORE PUSH1 0x4 ADD PUSH2 0x9C4 SWAP1 PUSH2 0x4833 JUMP JUMPDEST PUSH1 0x0 DUP3 DUP2 MSTORE PUSH1 0x4 PUSH1 0x20 DUP2 SWAP1 MSTORE PUSH1 0x40 SWAP1 SWAP2 KECCAK256 ADD SLOAD PUSH1 0xFF AND ISZERO PUSH2 0x2B6C JUMPI PUSH1 0x40 MLOAD PUSH3 0x461BCD PUSH1 0xE5 SHL DUP2 MSTORE PUSH1 0x4 ADD PUSH2 0x9C4 SWAP1 PUSH2 0x4881 JUMP JUMPDEST PUSH1 0x0 DUP3 DUP2 MSTORE PUSH1 0x4 PUSH1 0x20 MSTORE PUSH1 0x40 SWAP1 KECCAK256 PUSH1 0x7 DUP2 ADD SLOAD PUSH1 0xA SWAP1 SWAP2 ADD SLOAD LT PUSH2 0x2BD2 JUMPI PUSH1 0x40 MLOAD PUSH3 0x461BCD PUSH1 0xE5 SHL DUP2 MSTORE PUSH1 0x20 PUSH1 0x4 DUP3 ADD DUP2 SWAP1 MSTORE PUSH1 0x24 DUP3 ADD MSTORE PUSH32 0x416C6C206D696C6573746F6E657320616C726561647920636F6D706C65746564 PUSH1 0x44 DUP3 ADD MSTORE PUSH1 0x64 ADD PUSH2 0x9C4 JUMP JUMPDEST PUSH1 0x0 DUP3 DUP2 MSTORE PUSH1 0x4 PUSH1 0x20 MSTORE PUSH1 0x40 DUP2 KECCAK256 PUSH1 0xA ADD DUP1 SLOAD PUSH1 0x1 SWAP3 SWAP1 PUSH2 0x2BF4 SWAP1 DUP5 SWAP1 PUSH2 0x46EC JUMP JUMPDEST SWAP1 SWAP2 SSTORE POP POP PUSH1 0x0 DUP3 DUP2 MSTORE PUSH1 0x4 PUSH1 0x20 SWAP1 DUP2 MSTORE PUSH1 0x40 SWAP2 DUP3 SWAP1 KECCAK256 PUSH1 0x9 DUP2 ADD DUP5 SWAP1 SSTORE PUSH1 0xA ADD SLOAD DUP3 MLOAD SWAP1 DUP2 MSTORE SWAP1 DUP2 ADD DUP4 SWAP1 MSTORE DUP4 SWAP2 PUSH32 0xE60846A8F6E10630B3D17D79F8AA4962E7A3ABE024C788262EC30BC55D17B797 SWAP2 ADD PUSH1 0x40 MLOAD DUP1 SWAP2 SUB SWAP1 LOG2 POP POP POP JUMP JUMPDEST PUSH2 0x118F CALLER DUP4 DUP4 PUSH2 0x2089 JUMP JUMPDEST PUSH1 0x0 DUP3 DUP2 MSTORE PUSH1 0x4 PUSH1 0x20 MSTORE PUSH1 0x40 DUP2 KECCAK256 SLOAD SWAP1 SUB PUSH2 0x2C8B JUMPI PUSH1 0x40 MLOAD PUSH3 0x461BCD PUSH1 0xE5 SHL DUP2 MSTORE PUSH1 0x4 ADD PUSH2 0x9C4 SWAP1 PUSH2 0x4833 JUMP JUMPDEST PUSH1 0x0 DUP3 DUP2 MSTORE PUSH1 0x4 PUSH1 0x20 MSTORE PUSH1 0x40 SWAP1 KECCAK256 PUSH1 0x1 ADD SLOAD PUSH1 0x1 PUSH1 0x1 PUSH1 0xA0 SHL SUB DUP5 DUP2 AND SWAP2 AND EQ PUSH2 0x2D02 JUMPI PUSH1 0x40 MLOAD PUSH3 0x461BCD PUSH1 0xE5 SHL DUP2 MSTORE PUSH1 0x20 PUSH1 0x4 DUP3 ADD MSTORE PUSH1 0x22 PUSH1 0x24 DUP3 ADD MSTORE PUSH32 0x4F6E6C79206A6F622067697665722063616E2072656C65617365207061796D65 PUSH1 0x44 DUP3 ADD MSTORE PUSH2 0x1B9D PUSH1 0xF2 SHL PUSH1 0x64 DUP3 ADD MSTORE PUSH1 0x84 ADD PUSH2 0x9C4 JUMP JUMPDEST PUSH1 0x0 DUP3 DUP2 MSTORE PUSH1 0x4 PUSH1 0x20 DUP2 SWAP1 MSTORE PUSH1 0x40 SWAP1 SWAP2 KECCAK256 ADD SLOAD PUSH1 0xFF AND ISZERO PUSH2 0x2D35 JUMPI PUSH1 0x40 MLOAD PUSH3 0x461BCD PUSH1 0xE5 SHL DUP2 MSTORE PUSH1 0x4 ADD PUSH2 0x9C4 SWAP1 PUSH2 0x4881 JUMP JUMPDEST PUSH1 0x0 DUP3 DUP2 MSTORE PUSH1 0x4 PUSH1 0x20 MSTORE PUSH1 0x40 SWAP1 KECCAK256 PUSH1 0xB ADD SLOAD PUSH1 0x1 PUSH1 0x1 PUSH1 0xA0 SHL SUB AND PUSH2 0x2D94 JUMPI PUSH1 0x40 MLOAD PUSH3 0x461BCD PUSH1 0xE5 SHL DUP2 MSTORE PUSH1 0x20 PUSH1 0x4 DUP3 ADD MSTORE PUSH1 0x15 PUSH1 0x24 DUP3 ADD MSTORE PUSH21 0x139BC8185C1C1B1A58D85B9D081CD95B1958DD1959 PUSH1 0x5A SHL PUSH1 0x44 DUP3 ADD MSTORE PUSH1 0x64 ADD PUSH2 0x9C4 JUMP JUMPDEST PUSH1 0x0 DUP3 DUP2 MSTORE PUSH1 0x4 PUSH1 0x20 MSTORE PUSH1 0x40 SWAP1 KECCAK256 PUSH1 0x7 DUP2 ADD SLOAD PUSH1 0xA SWAP1 SWAP2 ADD SLOAD GT ISZERO PUSH2 0x2DF6 JUMPI PUSH1 0x40 MLOAD PUSH3 0x461BCD PUSH1 0xE5 SHL DUP2 MSTORE PUSH1 0x20 PUSH1 0x4 DUP3 ADD MSTORE PUSH1 0x18 PUSH1 0x24 DUP3 ADD MSTORE PUSH24 0x105B1B081B5A5B195CDD1BDB995CC818DBDB5C1B195D1959 PUSH1 0x42 SHL PUSH1 0x44 DUP3 ADD MSTORE PUSH1 0x64 ADD PUSH2 0x9C4 JUMP JUMPDEST PUSH1 0x0 DUP3 DUP2 MSTORE PUSH1 0x4 PUSH1 0x20 MSTORE PUSH1 0x40 DUP2 KECCAK256 PUSH1 0x8 ADD DUP1 SLOAD DUP4 SWAP3 SWAP1 PUSH2 0x2E17 SWAP1 DUP5 SWAP1 PUSH2 0x46EC JUMP JUMPDEST SWAP1 SWAP2 SSTORE POP POP PUSH1 0xB SLOAD PUSH1 0x1 PUSH1 0x1 PUSH1 0xA0 SHL SUB AND ISZERO PUSH2 0x2E93 JUMPI PUSH1 0xB SLOAD PUSH1 0x40 MLOAD PUSH4 0x12FCA103 PUSH1 0xE3 SHL DUP2 MSTORE PUSH1 0x4 DUP2 ADD DUP5 SWAP1 MSTORE PUSH1 0x24 DUP2 ADD DUP4 SWAP1 MSTORE PUSH1 0x1 PUSH1 0x1 PUSH1 0xA0 SHL SUB SWAP1 SWAP2 AND SWAP1 PUSH4 0x97E50818 SWAP1 PUSH1 0x44 ADD PUSH1 0x0 PUSH1 0x40 MLOAD DUP1 DUP4 SUB DUP2 PUSH1 0x0 DUP8 DUP1 EXTCODESIZE ISZERO DUP1 ISZERO PUSH2 0x2E7A JUMPI PUSH1 0x0 DUP1 REVERT JUMPDEST POP GAS CALL ISZERO DUP1 ISZERO PUSH2 0x2E8E JUMPI RETURNDATASIZE PUSH1 0x0 DUP1 RETURNDATACOPY RETURNDATASIZE PUSH1 0x0 REVERT JUMPDEST POP POP POP POP JUMPDEST PUSH1 0x0 DUP3 DUP2 MSTORE PUSH1 0x4 PUSH1 0x20 SWAP1 DUP2 MSTORE PUSH1 0x40 SWAP2 DUP3 SWAP1 KECCAK256 PUSH1 0xB DUP2 ADD SLOAD PUSH1 0xA SWAP1 SWAP2 ADD SLOAD DUP4 MLOAD DUP6 DUP2 MSTORE SWAP3 DUP4 ADD MSTORE PUSH1 0x1 PUSH1 0x1 PUSH1 0xA0 SHL SUB SWAP1 DUP2 AND SWAP3 SWAP1 DUP7 AND SWAP2 DUP6 SWAP2 PUSH32 0xD6879B8E4639BF88A9CA9E3122B381ED4A48625F051842C7E6885F72EF00F479 SWAP2 ADD PUSH1 0x40 MLOAD DUP1 SWAP2 SUB SWAP1 LOG4 POP POP POP JUMP JUMPDEST PUSH2 0x2F03 PUSH2 0x3783 JUMP JUMPDEST PUSH1 0xB DUP1 SLOAD PUSH1 0x1 PUSH1 0x1 PUSH1 0xA0 SHL SUB NOT AND PUSH1 0x1 PUSH1 0x1 PUSH1 0xA0 SHL SUB SWAP3 SWAP1 SWAP3 AND SWAP2 SWAP1 SWAP2 OR SWAP1 SSTORE JUMP JUMPDEST PUSH1 0x1 PUSH1 0x1 PUSH1 0xA0 SHL SUB DUP5 AND PUSH1 0x0 SWAP1 DUP2 MSTORE PUSH1 0x3 PUSH1 0x20 MSTORE PUSH1 0x40 SWAP1 KECCAK256 SLOAD PUSH1 0xFF AND ISZERO PUSH2 0x2F87 JUMPI PUSH1 0x40 MLOAD PUSH3 0x461BCD PUSH1 0xE5 SHL DUP2 MSTORE PUSH1 0x20 PUSH1 0x4 DUP3 ADD MSTORE PUSH1 0x16 PUSH1 0x24 DUP3 ADD MSTORE PUSH22 0x50726F66696C6520616C726561647920657869737473 PUSH1 0x50 SHL PUSH1 0x44 DUP3 ADD MSTORE PUSH1 0x64 ADD PUSH2 0x9C4 JUMP JUMPDEST PUSH1 0x40 MLOAD DUP1 PUSH1 0xA0 ADD PUSH1 0x40 MSTORE DUP1 DUP6 PUSH1 0x1 PUSH1 0x1 PUSH1 0xA0 SHL SUB AND DUP2 MSTORE PUSH1 0x20 ADD DUP5 DUP2 MSTORE PUSH1 0x20 ADD DUP4 PUSH1 0x1 PUSH1 0x1 PUSH1 0xA0 SHL SUB AND DUP2 MSTORE PUSH1 0x20 ADD DUP3 DUP2 MSTORE PUSH1 0x20 ADD PUSH1 0x0 PUSH1 0x1 PUSH1 0x1 PUSH1 0x40 SHL SUB DUP2 GT ISZERO PUSH2 0x2FD5 JUMPI PUSH2 0x2FD5 PUSH2 0x3C65 JUMP JUMPDEST PUSH1 0x40 MLOAD SWAP1 DUP1 DUP3 MSTORE DUP1 PUSH1 0x20 MUL PUSH1 0x20 ADD DUP3 ADD PUSH1 0x40 MSTORE DUP1 ISZERO PUSH2 0x3008 JUMPI DUP2 PUSH1 0x20 ADD JUMPDEST PUSH1 0x60 DUP2 MSTORE PUSH1 0x20 ADD SWAP1 PUSH1 0x1 SWAP1 SUB SWAP1 DUP2 PUSH2 0x2FF3 JUMPI SWAP1 POP JUMPDEST POP SWAP1 MSTORE PUSH1 0x1 PUSH1 0x1 PUSH1 0xA0 SHL SUB DUP6 DUP2 AND PUSH1 0x0 SWAP1 DUP2 MSTORE PUSH1 0x2 PUSH1 0x20 SWAP1 DUP2 MSTORE PUSH1 0x40 SWAP1 SWAP2 KECCAK256 DUP4 MLOAD DUP2 SLOAD PUSH1 0x1 PUSH1 0x1 PUSH1 0xA0 SHL SUB NOT AND SWAP4 AND SWAP3 SWAP1 SWAP3 OR DUP3 SSTORE DUP3 ADD MLOAD PUSH1 0x1 DUP3 ADD SWAP1 PUSH2 0x304F SWAP1 DUP3 PUSH2 0x475F JUMP JUMPDEST POP PUSH1 0x40 DUP3 ADD MLOAD PUSH1 0x2 DUP3 ADD DUP1 SLOAD PUSH1 0x1 PUSH1 0x1 PUSH1 0xA0 SHL SUB NOT AND PUSH1 0x1 PUSH1 0x1 PUSH1 0xA0 SHL SUB SWAP1 SWAP3 AND SWAP2 SWAP1 SWAP2 OR SWAP1 SSTORE PUSH1 0x60 DUP3 ADD MLOAD PUSH1 0x3 DUP3 ADD SSTORE PUSH1 0x80 DUP3 ADD MLOAD DUP1 MLOAD PUSH2 0x309B SWAP2 PUSH1 0x4 DUP5 ADD SWAP2 PUSH1 0x20 SWAP1 SWAP2 ADD SWAP1 PUSH2 0x38D1 JUMP JUMPDEST POP POP POP PUSH1 0x1 PUSH1 0x1 PUSH1 0xA0 SHL SUB DUP5 AND PUSH1 0x0 DUP2 DUP2 MSTORE PUSH1 0x3 PUSH1 0x20 MSTORE PUSH1 0x40 SWAP1 DUP2 SWAP1 KECCAK256 DUP1 SLOAD PUSH1 0xFF NOT AND PUSH1 0x1 OR SWAP1 SSTORE MLOAD PUSH32 0x5874AFB0D71E1F97E546FC6B15493E51E5CCBEFA591556F8C6A80C8C5151A84F SWAP1 PUSH2 0x30F3 SWAP1 DUP7 SWAP1 DUP7 SWAP1 PUSH2 0x49A4 JUMP JUMPDEST PUSH1 0x40 MLOAD DUP1 SWAP2 SUB SWAP1 LOG2 POP POP POP POP JUMP JUMPDEST PUSH1 0x5 PUSH1 0x20 SWAP1 DUP2 MSTORE PUSH1 0x0 SWAP3 DUP4 MSTORE PUSH1 0x40 DUP1 DUP5 KECCAK256 SWAP1 SWAP2 MSTORE SWAP1 DUP3 MSTORE SWAP1 KECCAK256 DUP1 SLOAD PUSH1 0x1 DUP3 ADD SLOAD PUSH1 0x2 DUP4 ADD SLOAD PUSH1 0x3 DUP5 ADD DUP1 SLOAD SWAP4 SWAP5 SWAP3 SWAP4 PUSH1 0x1 PUSH1 0x1 PUSH1 0xA0 SHL SUB SWAP1 SWAP3 AND SWAP3 SWAP2 PUSH2 0x3146 SWAP1 PUSH2 0x468C JUMP JUMPDEST DUP1 PUSH1 0x1F ADD PUSH1 0x20 DUP1 SWAP2 DIV MUL PUSH1 0x20 ADD PUSH1 0x40 MLOAD SWAP1 DUP2 ADD PUSH1 0x40 MSTORE DUP1 SWAP3 SWAP2 SWAP1 DUP2 DUP2 MSTORE PUSH1 0x20 ADD DUP3 DUP1 SLOAD PUSH2 0x3172 SWAP1 PUSH2 0x468C JUMP JUMPDEST DUP1 ISZERO PUSH2 0x31BF JUMPI DUP1 PUSH1 0x1F LT PUSH2 0x3194 JUMPI PUSH2 0x100 DUP1 DUP4 SLOAD DIV MUL DUP4 MSTORE SWAP2 PUSH1 0x20 ADD SWAP2 PUSH2 0x31BF JUMP JUMPDEST DUP3 ADD SWAP2 SWAP1 PUSH1 0x0 MSTORE PUSH1 0x20 PUSH1 0x0 KECCAK256 SWAP1 JUMPDEST DUP2 SLOAD DUP2 MSTORE SWAP1 PUSH1 0x1 ADD SWAP1 PUSH1 0x20 ADD DUP1 DUP4 GT PUSH2 0x31A2 JUMPI DUP3 SWAP1 SUB PUSH1 0x1F AND DUP3 ADD SWAP2 JUMPDEST POP POP POP POP POP SWAP1 POP DUP5 JUMP JUMPDEST PUSH2 0x31D1 PUSH2 0x3783 JUMP JUMPDEST PUSH1 0x1 PUSH1 0x1 PUSH1 0xA0 SHL SUB DUP2 AND PUSH2 0x31FB JUMPI PUSH1 0x40 MLOAD PUSH4 0x1E4FBDF7 PUSH1 0xE0 SHL DUP2 MSTORE PUSH1 0x0 PUSH1 0x4 DUP3 ADD MSTORE PUSH1 0x24 ADD PUSH2 0x9C4 JUMP JUMPDEST PUSH2 0x3204 DUP2 PUSH2 0x3805 JUMP JUMPDEST POP JUMP JUMPDEST PUSH2 0x166C CALLER DUP5 DUP5 DUP5 PUSH2 0x2F25 JUMP JUMPDEST PUSH1 0x0 PUSH1 0x20 DUP3 ADD DUP1 CALLDATALOAD SWAP1 PUSH1 0x1 SWAP1 DUP4 SWAP1 PUSH2 0x322B SWAP1 DUP7 PUSH2 0x4456 JUMP JUMPDEST PUSH4 0xFFFFFFFF AND DUP2 MSTORE PUSH1 0x20 DUP2 ADD SWAP2 SWAP1 SWAP2 MSTORE PUSH1 0x40 ADD PUSH1 0x0 KECCAK256 SLOAD EQ SWAP3 SWAP2 POP POP JUMP JUMPDEST PUSH4 0xFFFFFFFF DUP2 AND PUSH1 0x0 SWAP1 DUP2 MSTORE PUSH1 0x1 PUSH1 0x20 MSTORE PUSH1 0x40 DUP2 KECCAK256 SLOAD DUP1 PUSH2 0x1688 JUMPI PUSH1 0x40 MLOAD PUSH4 0xF6FF4FB7 PUSH1 0xE0 SHL DUP2 MSTORE PUSH4 0xFFFFFFFF DUP5 AND PUSH1 0x4 DUP3 ADD MSTORE PUSH1 0x24 ADD PUSH2 0x9C4 JUMP JUMPDEST PUSH1 0x0 DUP7 DUP2 MSTORE PUSH1 0xA PUSH1 0x20 MSTORE PUSH1 0x40 SWAP1 KECCAK256 SLOAD PUSH1 0xFF AND ISZERO PUSH2 0x32E4 JUMPI PUSH1 0x40 MLOAD PUSH3 0x461BCD PUSH1 0xE5 SHL DUP2 MSTORE PUSH1 0x20 PUSH1 0x4 DUP3 ADD MSTORE PUSH1 0x18 PUSH1 0x24 DUP3 ADD MSTORE PUSH32 0x4D65737361676520616C72656164792065786563757465640000000000000000 PUSH1 0x44 DUP3 ADD MSTORE PUSH1 0x64 ADD PUSH2 0x9C4 JUMP JUMPDEST PUSH1 0x0 DUP7 DUP2 MSTORE PUSH1 0xA PUSH1 0x20 MSTORE PUSH1 0x40 DUP2 KECCAK256 DUP1 SLOAD PUSH1 0xFF NOT AND PUSH1 0x1 OR SWAP1 SSTORE PUSH2 0x3309 DUP6 DUP8 ADD DUP8 PUSH2 0x49CE JUMP JUMPDEST SWAP1 POP CALLER PUSH1 0x1 PUSH1 0x1 PUSH1 0xA0 SHL SUB AND DUP2 PUSH1 0x40 MLOAD PUSH2 0x3323 SWAP2 SWAP1 PUSH2 0x4A02 JUMP JUMPDEST PUSH1 0x40 MLOAD SWAP1 DUP2 SWAP1 SUB DUP2 KECCAK256 SWAP1 DUP10 SWAP1 PUSH32 0x5A6CC5A65C270A83D2964F1DC0D5B6B345C1ACEB3F47CCBA69BC757176305126 SWAP1 PUSH1 0x0 SWAP1 LOG4 PUSH1 0x40 DUP1 MLOAD DUP1 DUP3 ADD SWAP1 SWAP2 MSTORE PUSH1 0xE DUP2 MSTORE PUSH14 0x4352454154455F50524F46494C45 PUSH1 0x90 SHL PUSH1 0x20 SWAP2 DUP3 ADD MSTORE DUP2 MLOAD SWAP1 DUP3 ADD KECCAK256 PUSH32 0xA4C6C5D741CC3B640F2D5A849409552E25D1193D542AF6C32B92E821B8923236 ADD PUSH2 0x33D6 JUMPI PUSH1 0x0 DUP1 DUP1 DUP1 PUSH2 0x33B8 DUP10 DUP12 ADD DUP12 PUSH2 0x4A1E JUMP JUMPDEST SWAP5 POP SWAP5 POP SWAP5 POP SWAP5 POP POP PUSH2 0x33CD DUP5 DUP5 DUP5 DUP5 PUSH2 0x2F25 JUMP JUMPDEST POP POP POP POP PUSH2 0x3779 JUMP JUMPDEST PUSH1 0x40 DUP1 MLOAD DUP1 DUP3 ADD SWAP1 SWAP2 MSTORE PUSH1 0x8 DUP2 MSTORE PUSH8 0x2827A9AA2FA527A1 PUSH1 0xC1 SHL PUSH1 0x20 SWAP2 DUP3 ADD MSTORE DUP2 MLOAD SWAP1 DUP3 ADD KECCAK256 PUSH32 0xC3EF3E378689BB49C52BF3C6C3B1E2AE10691385A691CF00D777C75763414BD ADD PUSH2 0x3448 JUMPI PUSH1 0x0 DUP1 DUP1 DUP1 PUSH2 0x3433 DUP10 DUP12 ADD DUP12 PUSH2 0x4AB2 JUMP JUMPDEST SWAP5 POP SWAP5 POP SWAP5 POP SWAP5 POP POP PUSH2 0x33CD DUP5 DUP5 DUP5 DUP5 PUSH2 0xD4E JUMP JUMPDEST PUSH1 0x40 DUP1 MLOAD DUP1 DUP3 ADD SWAP1 SWAP2 MSTORE PUSH1 0xC DUP2 MSTORE PUSH12 0x20A828262CAFAA27AFA527A1 PUSH1 0xA1 SHL PUSH1 0x20 SWAP2 DUP3 ADD MSTORE DUP2 MLOAD SWAP1 DUP3 ADD KECCAK256 PUSH32 0xC2D7C2B4DDEE35E9C9C488D48EA07C3DFD0EB23F7F722AA027797ECD0439C9A7 ADD PUSH2 0x34BE JUMPI PUSH1 0x0 DUP1 DUP1 DUP1 PUSH2 0x34A9 DUP10 DUP12 ADD DUP12 PUSH2 0x4B5E JUMP JUMPDEST SWAP5 POP SWAP5 POP SWAP5 POP SWAP5 POP POP PUSH2 0x33CD DUP5 DUP5 DUP5 DUP5 PUSH2 0x19FD JUMP JUMPDEST PUSH1 0x40 DUP1 MLOAD DUP1 DUP3 ADD SWAP1 SWAP2 MSTORE PUSH1 0x9 DUP2 MSTORE PUSH9 0x29AA20A92A2FA527A1 PUSH1 0xB9 SHL PUSH1 0x20 SWAP2 DUP3 ADD MSTORE DUP2 MLOAD SWAP1 DUP3 ADD KECCAK256 PUSH32 0x958AD0391719420FC13CE18673C271B3C10483B1DED1D897959E64C0226B0636 ADD PUSH2 0x3535 JUMPI PUSH1 0x0 DUP1 DUP1 PUSH2 0x351B DUP9 DUP11 ADD DUP11 PUSH2 0x4C0C JUMP JUMPDEST SWAP4 POP SWAP4 POP SWAP4 POP POP PUSH2 0x352D DUP4 DUP4 DUP4 PUSH2 0x27F8 JUMP JUMPDEST POP POP POP PUSH2 0x3779 JUMP JUMPDEST PUSH1 0x40 DUP1 MLOAD DUP1 DUP3 ADD SWAP1 SWAP2 MSTORE PUSH1 0xB DUP2 MSTORE PUSH11 0x5355424D49545F574F524B PUSH1 0xA8 SHL PUSH1 0x20 SWAP2 DUP3 ADD MSTORE DUP2 MLOAD SWAP1 DUP3 ADD KECCAK256 PUSH32 0xA1727A5DB69AB5F66AA3130F3696B97337CD1494E442D1FBCCA529FA9DB6D31B ADD PUSH2 0x35A6 JUMPI PUSH1 0x0 DUP1 DUP1 PUSH2 0x3594 DUP9 DUP11 ADD DUP11 PUSH2 0x4C75 JUMP JUMPDEST SWAP4 POP SWAP4 POP SWAP4 POP POP PUSH2 0x352D DUP4 DUP4 DUP4 PUSH2 0x2089 JUMP JUMPDEST PUSH1 0x40 DUP1 MLOAD DUP1 DUP3 ADD SWAP1 SWAP2 MSTORE PUSH1 0xF DUP2 MSTORE PUSH15 0x149153115054D157D4105653515395 PUSH1 0x8A SHL PUSH1 0x20 SWAP2 DUP3 ADD MSTORE DUP2 MLOAD SWAP1 DUP3 ADD KECCAK256 PUSH32 0x5993F055A8B2E0091D9E95BC098F92190A2F1E485B255835F749B7C6CBA1E30B ADD PUSH2 0x361B JUMPI PUSH1 0x0 DUP1 DUP1 PUSH2 0x3609 DUP9 DUP11 ADD DUP11 PUSH2 0x4CEC JUMP JUMPDEST SWAP4 POP SWAP4 POP SWAP4 POP POP PUSH2 0x352D DUP4 DUP4 DUP4 PUSH2 0x2C5E JUMP JUMPDEST PUSH1 0x40 DUP1 MLOAD DUP1 DUP3 ADD SWAP1 SWAP2 MSTORE PUSH1 0x13 DUP2 MSTORE PUSH19 0x4C4F434B5F4E4558545F4D494C4553544F4E45 PUSH1 0x68 SHL PUSH1 0x20 SWAP2 DUP3 ADD MSTORE DUP2 MLOAD SWAP1 DUP3 ADD KECCAK256 PUSH32 0x92CDF19AB628CE526BAE7529871630C52245F0976FE1EAA034700BAA4B49AA16 ADD PUSH2 0x3694 JUMPI PUSH1 0x0 DUP1 DUP1 PUSH2 0x3682 DUP9 DUP11 ADD DUP11 PUSH2 0x4CEC JUMP JUMPDEST SWAP4 POP SWAP4 POP SWAP4 POP POP PUSH2 0x352D DUP4 DUP4 DUP4 PUSH2 0x2B0C JUMP JUMPDEST PUSH1 0x40 DUP1 MLOAD DUP1 DUP3 ADD SWAP1 SWAP2 MSTORE PUSH1 0x9 DUP2 MSTORE PUSH9 0x2920AA22AFAAA9A2A9 PUSH1 0xB9 SHL PUSH1 0x20 SWAP2 DUP3 ADD MSTORE DUP2 MLOAD SWAP1 DUP3 ADD KECCAK256 PUSH32 0x14C18A97B33195108AEEF431D93081248A69532971FB84F3B8C1EDC0D9D404D1 ADD PUSH2 0x3707 JUMPI PUSH1 0x0 DUP1 DUP1 DUP1 PUSH2 0x36F2 DUP10 DUP12 ADD DUP12 PUSH2 0x4D4A JUMP JUMPDEST SWAP5 POP SWAP5 POP SWAP5 POP SWAP5 POP POP PUSH2 0x33CD DUP5 DUP5 DUP5 DUP5 PUSH2 0x1DD0 JUMP JUMPDEST PUSH1 0x40 DUP1 MLOAD DUP1 DUP3 ADD SWAP1 SWAP2 MSTORE PUSH1 0xD DUP2 MSTORE PUSH13 0x4144445F504F5254464F4C494F PUSH1 0x98 SHL PUSH1 0x20 SWAP2 DUP3 ADD MSTORE DUP2 MLOAD SWAP1 DUP3 ADD KECCAK256 PUSH32 0xBF9CE5C45A543F06FB7259612AFBF5DDCBF73E06DD8753717DFF4F12C5B21989 ADD PUSH2 0x3779 JUMPI PUSH1 0x0 DUP1 PUSH2 0x3767 DUP8 DUP10 ADD DUP10 PUSH2 0x4DAC JUMP JUMPDEST SWAP3 POP SWAP3 POP POP PUSH2 0x3776 DUP3 DUP3 PUSH2 0xFF1 JUMP JUMPDEST POP POP JUMPDEST POP POP POP POP POP POP POP POP JUMP JUMPDEST PUSH1 0x0 SLOAD PUSH1 0x1 PUSH1 0x1 PUSH1 0xA0 SHL SUB AND CALLER EQ PUSH2 0x1683 JUMPI PUSH1 0x40 MLOAD PUSH4 0x118CDAA7 PUSH1 0xE0 SHL DUP2 MSTORE CALLER PUSH1 0x4 DUP3 ADD MSTORE PUSH1 0x24 ADD PUSH2 0x9C4 JUMP JUMPDEST PUSH4 0xFFFFFFFF DUP3 AND PUSH1 0x0 DUP2 DUP2 MSTORE PUSH1 0x1 PUSH1 0x20 SWAP1 DUP2 MSTORE PUSH1 0x40 SWAP2 DUP3 SWAP1 KECCAK256 DUP5 SWAP1 SSTORE DUP2 MLOAD SWAP3 DUP4 MSTORE DUP3 ADD DUP4 SWAP1 MSTORE PUSH32 0x238399D427B947898EDB290F5FF0F9109849B1C3BA196A42E35F00C50A54B98B SWAP2 ADD PUSH1 0x40 MLOAD DUP1 SWAP2 SUB SWAP1 LOG1 POP POP JUMP JUMPDEST PUSH1 0x0 DUP1 SLOAD PUSH1 0x1 PUSH1 0x1 PUSH1 0xA0 SHL SUB DUP4 DUP2 AND PUSH1 0x1 PUSH1 0x1 PUSH1 0xA0 SHL SUB NOT DUP4 AND DUP2 OR DUP5 SSTORE PUSH1 0x40 MLOAD SWAP2 SWAP1 SWAP3 AND SWAP3 DUP4 SWAP2 PUSH32 0x8BE0079C531659141344CD1FD0A4F28419497F9722A3DAAFE3B4186F6B6457E0 SWAP2 SWAP1 LOG3 POP POP JUMP JUMPDEST PUSH1 0x40 MLOAD DUP1 PUSH2 0x1A0 ADD PUSH1 0x40 MSTORE DUP1 PUSH1 0x0 DUP2 MSTORE PUSH1 0x20 ADD PUSH1 0x0 PUSH1 0x1 PUSH1 0x1 PUSH1 0xA0 SHL SUB AND DUP2 MSTORE PUSH1 0x20 ADD PUSH1 0x60 DUP2 MSTORE PUSH1 0x20 ADD PUSH1 0x60 DUP2 MSTORE PUSH1 0x20 ADD PUSH1 0x0 ISZERO ISZERO DUP2 MSTORE PUSH1 0x20 ADD PUSH1 0x60 DUP2 MSTORE PUSH1 0x20 ADD PUSH1 0x60 DUP2 MSTORE PUSH1 0x20 ADD PUSH1 0x60 DUP2 MSTORE PUSH1 0x20 ADD PUSH1 0x0 DUP2 MSTORE PUSH1 0x20 ADD PUSH1 0x0 DUP2 MSTORE PUSH1 0x20 ADD PUSH1 0x0 DUP2 MSTORE PUSH1 0x20 ADD PUSH1 0x0 PUSH1 0x1 PUSH1 0x1 PUSH1 0xA0 SHL SUB AND DUP2 MSTORE PUSH1 0x20 ADD PUSH1 0x0 DUP2 MSTORE POP SWAP1 JUMP JUMPDEST DUP3 DUP1 SLOAD DUP3 DUP3 SSTORE SWAP1 PUSH1 0x0 MSTORE PUSH1 0x20 PUSH1 0x0 KECCAK256 SWAP1 DUP2 ADD SWAP3 DUP3 ISZERO PUSH2 0x3917 JUMPI SWAP2 PUSH1 0x20 MUL DUP3 ADD JUMPDEST DUP3 DUP2 GT ISZERO PUSH2 0x3917 JUMPI DUP3 MLOAD DUP3 SWAP1 PUSH2 0x3907 SWAP1 DUP3 PUSH2 0x475F JUMP JUMPDEST POP SWAP2 PUSH1 0x20 ADD SWAP2 SWAP1 PUSH1 0x1 ADD SWAP1 PUSH2 0x38F1 JUMP JUMPDEST POP PUSH2 0x3923 SWAP3 SWAP2 POP PUSH2 0x3927 JUMP JUMPDEST POP SWAP1 JUMP JUMPDEST DUP1 DUP3 GT ISZERO PUSH2 0x3923 JUMPI PUSH1 0x0 PUSH2 0x393B DUP3 DUP3 PUSH2 0x3944 JUMP JUMPDEST POP PUSH1 0x1 ADD PUSH2 0x3927 JUMP JUMPDEST POP DUP1 SLOAD PUSH2 0x3950 SWAP1 PUSH2 0x468C JUMP JUMPDEST PUSH1 0x0 DUP3 SSTORE DUP1 PUSH1 0x1F LT PUSH2 0x3960 JUMPI POP POP JUMP JUMPDEST PUSH1 0x1F ADD PUSH1 0x20 SWAP1 DIV SWAP1 PUSH1 0x0 MSTORE PUSH1 0x20 PUSH1 0x0 KECCAK256 SWAP1 DUP2 ADD SWAP1 PUSH2 0x3204 SWAP2 SWAP1 JUMPDEST DUP1 DUP3 GT ISZERO PUSH2 0x3923 JUMPI PUSH1 0x0 DUP2 SSTORE PUSH1 0x1 ADD PUSH2 0x397A JUMP JUMPDEST PUSH1 0x1 PUSH1 0x1 PUSH1 0xA0 SHL SUB DUP2 AND DUP2 EQ PUSH2 0x3204 JUMPI PUSH1 0x0 DUP1 REVERT JUMPDEST PUSH1 0x0 PUSH1 0x20 DUP3 DUP5 SUB SLT ISZERO PUSH2 0x39B5 JUMPI PUSH1 0x0 DUP1 REVERT JUMPDEST DUP2 CALLDATALOAD PUSH2 0x39C0 DUP2 PUSH2 0x398E JUMP JUMPDEST SWAP4 SWAP3 POP POP POP JUMP JUMPDEST PUSH1 0x0 JUMPDEST DUP4 DUP2 LT ISZERO PUSH2 0x39E2 JUMPI DUP2 DUP2 ADD MLOAD DUP4 DUP3 ADD MSTORE PUSH1 0x20 ADD PUSH2 0x39CA JUMP JUMPDEST POP POP PUSH1 0x0 SWAP2 ADD MSTORE JUMP JUMPDEST PUSH1 0x0 DUP2 MLOAD DUP1 DUP5 MSTORE PUSH2 0x3A03 DUP2 PUSH1 0x20 DUP7 ADD PUSH1 0x20 DUP7 ADD PUSH2 0x39C7 JUMP JUMPDEST PUSH1 0x1F ADD PUSH1 0x1F NOT AND SWAP3 SWAP1 SWAP3 ADD PUSH1 0x20 ADD SWAP3 SWAP2 POP POP JUMP JUMPDEST PUSH1 0x0 DUP3 DUP3 MLOAD DUP1 DUP6 MSTORE PUSH1 0x20 DUP6 ADD SWAP5 POP PUSH1 0x20 DUP2 PUSH1 0x5 SHL DUP4 ADD ADD PUSH1 0x20 DUP6 ADD PUSH1 0x0 JUMPDEST DUP4 DUP2 LT ISZERO PUSH2 0x3A67 JUMPI PUSH1 0x1F NOT DUP6 DUP5 SUB ADD DUP9 MSTORE PUSH2 0x3A51 DUP4 DUP4 MLOAD PUSH2 0x39EB JUMP JUMPDEST PUSH1 0x20 SWAP9 DUP10 ADD SWAP9 SWAP1 SWAP4 POP SWAP2 SWAP1 SWAP2 ADD SWAP1 PUSH1 0x1 ADD PUSH2 0x3A35 JUMP JUMPDEST POP SWAP1 SWAP7 SWAP6 POP POP POP POP POP POP JUMP JUMPDEST PUSH1 0x20 DUP1 DUP3 MSTORE DUP3 MLOAD PUSH1 0x1 PUSH1 0x1 PUSH1 0xA0 SHL SUB AND DUP3 DUP3 ADD MSTORE DUP3 ADD MLOAD PUSH1 0xA0 PUSH1 0x40 DUP4 ADD MSTORE PUSH1 0x0 SWAP1 PUSH2 0x3AA1 PUSH1 0xC0 DUP5 ADD DUP3 PUSH2 0x39EB JUMP JUMPDEST SWAP1 POP PUSH1 0x1 DUP1 PUSH1 0xA0 SHL SUB PUSH1 0x40 DUP6 ADD MLOAD AND PUSH1 0x60 DUP5 ADD MSTORE PUSH1 0x60 DUP5 ADD MLOAD PUSH1 0x80 DUP5 ADD MSTORE PUSH1 0x80 DUP5 ADD MLOAD PUSH1 0x1F NOT DUP5 DUP4 SUB ADD PUSH1 0xA0 DUP6 ADD MSTORE PUSH2 0x3ADA DUP3 DUP3 PUSH2 0x3A17 JUMP JUMPDEST SWAP6 SWAP5 POP POP POP POP POP JUMP JUMPDEST PUSH1 0x0 PUSH1 0x60 DUP3 DUP5 SUB SLT ISZERO PUSH2 0x3AF5 JUMPI PUSH1 0x0 DUP1 REVERT JUMPDEST POP SWAP2 SWAP1 POP JUMP JUMPDEST PUSH1 0x0 DUP1 DUP4 PUSH1 0x1F DUP5 ADD SLT PUSH2 0x3B0D JUMPI PUSH1 0x0 DUP1 REVERT JUMPDEST POP DUP2 CALLDATALOAD PUSH1 0x1 PUSH1 0x1 PUSH1 0x40 SHL SUB DUP2 GT ISZERO PUSH2 0x3B24 JUMPI PUSH1 0x0 DUP1 REVERT JUMPDEST PUSH1 0x20 DUP4 ADD SWAP2 POP DUP4 PUSH1 0x20 DUP3 DUP6 ADD ADD GT ISZERO PUSH2 0x3B3C JUMPI PUSH1 0x0 DUP1 REVERT JUMPDEST SWAP3 POP SWAP3 SWAP1 POP JUMP JUMPDEST PUSH1 0x0 DUP1 PUSH1 0x0 DUP1 PUSH1 0x0 DUP1 PUSH1 0x0 PUSH1 0xE0 DUP9 DUP11 SUB SLT ISZERO PUSH2 0x3B5E JUMPI PUSH1 0x0 DUP1 REVERT JUMPDEST PUSH2 0x3B68 DUP10 DUP10 PUSH2 0x3AE3 JUMP JUMPDEST SWAP7 POP PUSH1 0x60 DUP9 ADD CALLDATALOAD SWAP6 POP PUSH1 0x80 DUP9 ADD CALLDATALOAD PUSH1 0x1 PUSH1 0x1 PUSH1 0x40 SHL SUB DUP2 GT ISZERO PUSH2 0x3B8A JUMPI PUSH1 0x0 DUP1 REVERT JUMPDEST PUSH2 0x3B96 DUP11 DUP3 DUP12 ADD PUSH2 0x3AFB JUMP JUMPDEST SWAP1 SWAP7 POP SWAP5 POP POP PUSH1 0xA0 DUP9 ADD CALLDATALOAD PUSH2 0x3BAA DUP2 PUSH2 0x398E JUMP JUMPDEST SWAP3 POP PUSH1 0xC0 DUP9 ADD CALLDATALOAD PUSH1 0x1 PUSH1 0x1 PUSH1 0x40 SHL SUB DUP2 GT ISZERO PUSH2 0x3BC5 JUMPI PUSH1 0x0 DUP1 REVERT JUMPDEST PUSH2 0x3BD1 DUP11 DUP3 DUP12 ADD PUSH2 0x3AFB JUMP JUMPDEST SWAP9 SWAP12 SWAP8 SWAP11 POP SWAP6 SWAP9 POP SWAP4 SWAP7 SWAP3 SWAP6 SWAP3 SWAP4 POP POP POP JUMP JUMPDEST PUSH1 0x0 PUSH1 0x20 DUP3 DUP5 SUB SLT ISZERO PUSH2 0x3BF6 JUMPI PUSH1 0x0 DUP1 REVERT JUMPDEST POP CALLDATALOAD SWAP2 SWAP1 POP JUMP JUMPDEST DUP10 DUP2 MSTORE PUSH1 0x1 PUSH1 0x1 PUSH1 0xA0 SHL SUB DUP10 AND PUSH1 0x20 DUP3 ADD MSTORE PUSH2 0x120 PUSH1 0x40 DUP3 ADD DUP2 SWAP1 MSTORE PUSH1 0x0 SWAP1 PUSH2 0x3C28 SWAP1 DUP4 ADD DUP11 PUSH2 0x39EB JUMP JUMPDEST SWAP8 ISZERO ISZERO PUSH1 0x60 DUP4 ADD MSTORE POP PUSH1 0x80 DUP2 ADD SWAP6 SWAP1 SWAP6 MSTORE PUSH1 0xA0 DUP6 ADD SWAP4 SWAP1 SWAP4 MSTORE PUSH1 0xC0 DUP5 ADD SWAP2 SWAP1 SWAP2 MSTORE PUSH1 0x1 PUSH1 0x1 PUSH1 0xA0 SHL SUB AND PUSH1 0xE0 DUP4 ADD MSTORE PUSH2 0x100 SWAP1 SWAP2 ADD MSTORE SWAP4 SWAP3 POP POP POP JUMP JUMPDEST PUSH4 0x4E487B71 PUSH1 0xE0 SHL PUSH1 0x0 MSTORE PUSH1 0x41 PUSH1 0x4 MSTORE PUSH1 0x24 PUSH1 0x0 REVERT JUMPDEST PUSH1 0x40 DUP1 MLOAD SWAP1 DUP2 ADD PUSH1 0x1 PUSH1 0x1 PUSH1 0x40 SHL SUB DUP2 GT DUP3 DUP3 LT OR ISZERO PUSH2 0x3C9D JUMPI PUSH2 0x3C9D PUSH2 0x3C65 JUMP JUMPDEST PUSH1 0x40 MSTORE SWAP1 JUMP JUMPDEST PUSH1 0x40 MLOAD PUSH1 0x1F DUP3 ADD PUSH1 0x1F NOT AND DUP2 ADD PUSH1 0x1 PUSH1 0x1 PUSH1 0x40 SHL SUB DUP2 GT DUP3 DUP3 LT OR ISZERO PUSH2 0x3CCB JUMPI PUSH2 0x3CCB PUSH2 0x3C65 JUMP JUMPDEST PUSH1 0x40 MSTORE SWAP2 SWAP1 POP JUMP JUMPDEST PUSH1 0x0 DUP3 PUSH1 0x1F DUP4 ADD SLT PUSH2 0x3CE4 JUMPI PUSH1 0x0 DUP1 REVERT JUMPDEST DUP2 CALLDATALOAD PUSH1 0x1 PUSH1 0x1 PUSH1 0x40 SHL SUB DUP2 GT ISZERO PUSH2 0x3CFD JUMPI PUSH2 0x3CFD PUSH2 0x3C65 JUMP JUMPDEST PUSH2 0x3D10 PUSH1 0x1F DUP3 ADD PUSH1 0x1F NOT AND PUSH1 0x20 ADD PUSH2 0x3CA3 JUMP JUMPDEST DUP2 DUP2 MSTORE DUP5 PUSH1 0x20 DUP4 DUP7 ADD ADD GT ISZERO PUSH2 0x3D25 JUMPI PUSH1 0x0 DUP1 REVERT JUMPDEST DUP2 PUSH1 0x20 DUP6 ADD PUSH1 0x20 DUP4 ADD CALLDATACOPY PUSH1 0x0 SWAP2 DUP2 ADD PUSH1 0x20 ADD SWAP2 SWAP1 SWAP2 MSTORE SWAP4 SWAP3 POP POP POP JUMP JUMPDEST PUSH1 0x0 DUP3 PUSH1 0x1F DUP4 ADD SLT PUSH2 0x3D53 JUMPI PUSH1 0x0 DUP1 REVERT JUMPDEST DUP2 CALLDATALOAD PUSH1 0x1 PUSH1 0x1 PUSH1 0x40 SHL SUB DUP2 GT ISZERO PUSH2 0x3D6C JUMPI PUSH2 0x3D6C PUSH2 0x3C65 JUMP JUMPDEST DUP1 PUSH1 0x5 SHL PUSH2 0x3D7C PUSH1 0x20 DUP3 ADD PUSH2 0x3CA3 JUMP JUMPDEST SWAP2 DUP3 MSTORE PUSH1 0x20 DUP2 DUP6 ADD DUP2 ADD SWAP3 SWAP1 DUP2 ADD SWAP1 DUP7 DUP5 GT ISZERO PUSH2 0x3D98 JUMPI PUSH1 0x0 DUP1 REVERT JUMPDEST PUSH1 0x20 DUP7 ADD SWAP3 POP JUMPDEST DUP4 DUP4 LT ISZERO PUSH2 0x3E27 JUMPI DUP3 CALLDATALOAD PUSH1 0x1 PUSH1 0x1 PUSH1 0x40 SHL SUB DUP2 GT ISZERO PUSH2 0x3DBD JUMPI PUSH1 0x0 DUP1 REVERT JUMPDEST DUP7 ADD PUSH1 0x40 DUP2 DUP10 SUB PUSH1 0x1F NOT ADD SLT ISZERO PUSH2 0x3DD3 JUMPI PUSH1 0x0 DUP1 REVERT JUMPDEST PUSH2 0x3DDB PUSH2 0x3C7B JUMP JUMPDEST PUSH1 0x20 DUP3 ADD CALLDATALOAD PUSH1 0x1 PUSH1 0x1 PUSH1 0x40 SHL SUB DUP2 GT ISZERO PUSH2 0x3DF4 JUMPI PUSH1 0x0 DUP1 REVERT JUMPDEST PUSH2 0x3E03 DUP11 PUSH1 0x20 DUP4 DUP7 ADD ADD PUSH2 0x3CD3 JUMP JUMPDEST DUP3 MSTORE POP PUSH1 0x40 SWAP2 SWAP1 SWAP2 ADD CALLDATALOAD PUSH1 0x20 DUP1 DUP4 ADD SWAP2 SWAP1 SWAP2 MSTORE SWAP1 DUP4 MSTORE SWAP3 DUP4 ADD SWAP3 SWAP2 SWAP1 SWAP2 ADD SWAP1 PUSH2 0x3D9F JUMP JUMPDEST SWAP7 SWAP6 POP POP POP POP POP POP JUMP JUMPDEST PUSH1 0x0 DUP1 PUSH1 0x0 DUP1 PUSH1 0x80 DUP6 DUP8 SUB SLT ISZERO PUSH2 0x3E47 JUMPI PUSH1 0x0 DUP1 REVERT JUMPDEST DUP5 CALLDATALOAD PUSH2 0x3E52 DUP2 PUSH2 0x398E JUMP JUMPDEST SWAP4 POP PUSH1 0x20 DUP6 ADD CALLDATALOAD PUSH1 0x1 PUSH1 0x1 PUSH1 0x40 SHL SUB DUP2 GT ISZERO PUSH2 0x3E6D JUMPI PUSH1 0x0 DUP1 REVERT JUMPDEST PUSH2 0x3E79 DUP8 DUP3 DUP9 ADD PUSH2 0x3CD3 JUMP JUMPDEST SWAP4 POP POP PUSH1 0x40 DUP6 ADD CALLDATALOAD PUSH1 0x1 PUSH1 0x1 PUSH1 0x40 SHL SUB DUP2 GT ISZERO PUSH2 0x3E95 JUMPI PUSH1 0x0 DUP1 REVERT JUMPDEST PUSH2 0x3EA1 DUP8 DUP3 DUP9 ADD PUSH2 0x3D42 JUMP JUMPDEST SWAP5 SWAP8 SWAP4 SWAP7 POP SWAP4 SWAP5 PUSH1 0x60 ADD CALLDATALOAD SWAP4 POP POP POP JUMP JUMPDEST PUSH1 0x0 DUP1 PUSH1 0x40 DUP4 DUP6 SUB SLT ISZERO PUSH2 0x3EC5 JUMPI PUSH1 0x0 DUP1 REVERT JUMPDEST DUP3 CALLDATALOAD PUSH2 0x3ED0 DUP2 PUSH2 0x398E JUMP JUMPDEST SWAP2 POP PUSH1 0x20 DUP4 ADD CALLDATALOAD PUSH1 0x1 PUSH1 0x1 PUSH1 0x40 SHL SUB DUP2 GT ISZERO PUSH2 0x3EEB JUMPI PUSH1 0x0 DUP1 REVERT JUMPDEST PUSH2 0x3EF7 DUP6 DUP3 DUP7 ADD PUSH2 0x3CD3 JUMP JUMPDEST SWAP2 POP POP SWAP3 POP SWAP3 SWAP1 POP JUMP JUMPDEST PUSH1 0x0 DUP1 PUSH1 0x40 DUP4 DUP6 SUB SLT ISZERO PUSH2 0x3F14 JUMPI PUSH1 0x0 DUP1 REVERT JUMPDEST POP POP DUP1 CALLDATALOAD SWAP3 PUSH1 0x20 SWAP1 SWAP2 ADD CALLDATALOAD SWAP2 POP JUMP JUMPDEST DUP1 CALLDATALOAD PUSH4 0xFFFFFFFF DUP2 AND DUP2 EQ PUSH2 0x3F37 JUMPI PUSH1 0x0 DUP1 REVERT JUMPDEST SWAP2 SWAP1 POP JUMP JUMPDEST PUSH1 0x0 DUP1 PUSH1 0x40 DUP4 DUP6 SUB SLT ISZERO PUSH2 0x3F4F JUMPI PUSH1 0x0 DUP1 REVERT JUMPDEST PUSH2 0x3F58 DUP4 PUSH2 0x3F23 JUMP JUMPDEST SWAP5 PUSH1 0x20 SWAP4 SWAP1 SWAP4 ADD CALLDATALOAD SWAP4 POP POP POP JUMP JUMPDEST PUSH1 0x0 DUP2 MLOAD DUP1 DUP5 MSTORE PUSH1 0x20 DUP5 ADD SWAP4 POP PUSH1 0x20 DUP4 ADD PUSH1 0x0 JUMPDEST DUP3 DUP2 LT ISZERO PUSH2 0x3FA1 JUMPI DUP2 MLOAD PUSH1 0x1 PUSH1 0x1 PUSH1 0xA0 SHL SUB AND DUP7 MSTORE PUSH1 0x20 SWAP6 DUP7 ADD SWAP6 SWAP1 SWAP2 ADD SWAP1 PUSH1 0x1 ADD PUSH2 0x3F7A JUMP JUMPDEST POP SWAP4 SWAP5 SWAP4 POP POP POP POP JUMP JUMPDEST PUSH1 0x0 DUP3 DUP3 MLOAD DUP1 DUP6 MSTORE PUSH1 0x20 DUP6 ADD SWAP5 POP PUSH1 0x20 DUP2 PUSH1 0x5 SHL DUP4 ADD ADD PUSH1 0x20 DUP6 ADD PUSH1 0x0 JUMPDEST DUP4 DUP2 LT ISZERO PUSH2 0x3A67 JUMPI PUSH1 0x1F NOT DUP6 DUP5 SUB ADD DUP9 MSTORE DUP2 MLOAD DUP1 MLOAD PUSH1 0x40 DUP6 MSTORE PUSH2 0x3FEF PUSH1 0x40 DUP7 ADD DUP3 PUSH2 0x39EB JUMP JUMPDEST PUSH1 0x20 SWAP3 DUP4 ADD MLOAD SWAP6 DUP4 ADD SWAP6 SWAP1 SWAP6 MSTORE POP SWAP8 DUP9 ADD SWAP8 SWAP2 SWAP1 SWAP2 ADD SWAP1 PUSH1 0x1 ADD PUSH2 0x3FC9 JUMP JUMPDEST PUSH1 0x20 DUP2 MSTORE DUP2 MLOAD PUSH1 0x20 DUP3 ADD MSTORE PUSH1 0x0 PUSH1 0x20 DUP4 ADD MLOAD PUSH2 0x4035 PUSH1 0x40 DUP5 ADD DUP3 PUSH1 0x1 PUSH1 0x1 PUSH1 0xA0 SHL SUB AND SWAP1 MSTORE JUMP JUMPDEST POP PUSH1 0x40 DUP4 ADD MLOAD PUSH2 0x1A0 PUSH1 0x60 DUP5 ADD MSTORE PUSH2 0x4051 PUSH2 0x1C0 DUP5 ADD DUP3 PUSH2 0x3F66 JUMP JUMPDEST SWAP1 POP PUSH1 0x60 DUP5 ADD MLOAD PUSH1 0x1F NOT DUP5 DUP4 SUB ADD PUSH1 0x80 DUP6 ADD MSTORE PUSH2 0x406E DUP3 DUP3 PUSH2 0x39EB JUMP JUMPDEST SWAP2 POP POP PUSH1 0x80 DUP5 ADD MLOAD PUSH2 0x4084 PUSH1 0xA0 DUP6 ADD DUP3 ISZERO ISZERO SWAP1 MSTORE JUMP JUMPDEST POP PUSH1 0xA0 DUP5 ADD MLOAD DUP4 DUP3 SUB PUSH1 0x1F NOT ADD PUSH1 0xC0 DUP6 ADD MSTORE PUSH2 0x40A0 DUP3 DUP3 PUSH2 0x3A17 JUMP JUMPDEST SWAP2 POP POP PUSH1 0xC0 DUP5 ADD MLOAD PUSH1 0x1F NOT DUP5 DUP4 SUB ADD PUSH1 0xE0 DUP6 ADD MSTORE PUSH2 0x40BE DUP3 DUP3 PUSH2 0x3FAB JUMP JUMPDEST SWAP2 POP POP PUSH1 0xE0 DUP5 ADD MLOAD PUSH1 0x1F NOT DUP5 DUP4 SUB ADD PUSH2 0x100 DUP6 ADD MSTORE PUSH2 0x40DD DUP3 DUP3 PUSH2 0x3FAB JUMP JUMPDEST SWAP2 POP POP PUSH2 0x100 DUP5 ADD MLOAD PUSH2 0x120 DUP5 ADD MSTORE PUSH2 0x120 DUP5 ADD MLOAD PUSH2 0x140 DUP5 ADD MSTORE PUSH2 0x140 DUP5 ADD MLOAD PUSH2 0x160 DUP5 ADD MSTORE PUSH2 0x160 DUP5 ADD MLOAD PUSH2 0x4120 PUSH2 0x180 DUP6 ADD DUP3 PUSH1 0x1 PUSH1 0x1 PUSH1 0xA0 SHL SUB AND SWAP1 MSTORE JUMP JUMPDEST POP PUSH2 0x180 DUP5 ADD MLOAD PUSH2 0x1A0 DUP5 ADD MSTORE DUP1 SWAP2 POP POP SWAP3 SWAP2 POP POP JUMP JUMPDEST PUSH1 0x0 DUP1 PUSH1 0x0 PUSH1 0x60 DUP5 DUP7 SUB SLT ISZERO PUSH2 0x414C JUMPI PUSH1 0x0 DUP1 REVERT JUMPDEST DUP4 CALLDATALOAD SWAP3 POP PUSH1 0x20 DUP5 ADD CALLDATALOAD PUSH1 0x1 PUSH1 0x1 PUSH1 0x40 SHL SUB DUP2 GT ISZERO PUSH2 0x4169 JUMPI PUSH1 0x0 DUP1 REVERT JUMPDEST PUSH2 0x4175 DUP7 DUP3 DUP8 ADD PUSH2 0x3CD3 JUMP JUMPDEST SWAP3 POP POP PUSH1 0x40 DUP5 ADD CALLDATALOAD PUSH1 0x1 PUSH1 0x1 PUSH1 0x40 SHL SUB DUP2 GT ISZERO PUSH2 0x4191 JUMPI PUSH1 0x0 DUP1 REVERT JUMPDEST PUSH2 0x419D DUP7 DUP3 DUP8 ADD PUSH2 0x3D42 JUMP JUMPDEST SWAP2 POP POP SWAP3 POP SWAP3 POP SWAP3 JUMP JUMPDEST PUSH1 0x0 DUP1 PUSH1 0x40 DUP4 DUP6 SUB SLT ISZERO PUSH2 0x41BA JUMPI PUSH1 0x0 DUP1 REVERT JUMPDEST DUP3 CALLDATALOAD PUSH1 0x1 PUSH1 0x1 PUSH1 0x40 SHL SUB DUP2 GT ISZERO PUSH2 0x41D0 JUMPI PUSH1 0x0 DUP1 REVERT JUMPDEST PUSH2 0x41DC DUP6 DUP3 DUP7 ADD PUSH2 0x3CD3 JUMP JUMPDEST SWAP3 POP POP PUSH1 0x20 DUP4 ADD CALLDATALOAD PUSH1 0x1 PUSH1 0x1 PUSH1 0x40 SHL SUB DUP2 GT ISZERO PUSH2 0x41F8 JUMPI PUSH1 0x0 DUP1 REVERT JUMPDEST PUSH2 0x3EF7 DUP6 DUP3 DUP7 ADD PUSH2 0x3D42 JUMP JUMPDEST PUSH1 0x0 DUP1 PUSH1 0x0 DUP1 PUSH1 0xA0 DUP6 DUP8 SUB SLT ISZERO PUSH2 0x421A JUMPI PUSH1 0x0 DUP1 REVERT JUMPDEST PUSH2 0x4224 DUP7 DUP7 PUSH2 0x3AE3 JUMP JUMPDEST SWAP4 POP PUSH1 0x60 DUP6 ADD CALLDATALOAD PUSH1 0x1 PUSH1 0x1 PUSH1 0x40 SHL SUB DUP2 GT ISZERO PUSH2 0x423F JUMPI PUSH1 0x0 DUP1 REVERT JUMPDEST PUSH2 0x424B DUP8 DUP3 DUP9 ADD PUSH2 0x3AFB JUMP JUMPDEST SWAP1 SWAP5 POP SWAP3 POP POP PUSH1 0x80 DUP6 ADD CALLDATALOAD PUSH2 0x425F DUP2 PUSH2 0x398E JUMP JUMPDEST SWAP4 SWAP7 SWAP3 SWAP6 POP SWAP1 SWAP4 POP POP JUMP JUMPDEST PUSH1 0x20 DUP2 MSTORE DUP2 MLOAD PUSH1 0x20 DUP3 ADD MSTORE PUSH1 0x20 DUP3 ADD MLOAD PUSH1 0x40 DUP3 ADD MSTORE PUSH1 0x1 DUP1 PUSH1 0xA0 SHL SUB PUSH1 0x40 DUP4 ADD MLOAD AND PUSH1 0x60 DUP3 ADD MSTORE PUSH1 0x0 PUSH1 0x60 DUP4 ADD MLOAD PUSH1 0xA0 PUSH1 0x80 DUP5 ADD MSTORE PUSH2 0x42AC PUSH1 0xC0 DUP5 ADD DUP3 PUSH2 0x39EB JUMP JUMPDEST SWAP1 POP PUSH1 0x80 DUP5 ADD MLOAD PUSH1 0x1F NOT DUP5 DUP4 SUB ADD PUSH1 0xA0 DUP6 ADD MSTORE PUSH2 0x3ADA DUP3 DUP3 PUSH2 0x3FAB JUMP JUMPDEST DUP1 CALLDATALOAD DUP1 ISZERO ISZERO DUP2 EQ PUSH2 0x3F37 JUMPI PUSH1 0x0 DUP1 REVERT JUMPDEST PUSH1 0x0 DUP1 PUSH1 0x40 DUP4 DUP6 SUB SLT ISZERO PUSH2 0x42EC JUMPI PUSH1 0x0 DUP1 REVERT JUMPDEST DUP3 CALLDATALOAD SWAP2 POP PUSH2 0x42FC PUSH1 0x20 DUP5 ADD PUSH2 0x42C9 JUMP JUMPDEST SWAP1 POP SWAP3 POP SWAP3 SWAP1 POP JUMP JUMPDEST PUSH1 0x0 DUP1 PUSH1 0x0 DUP1 PUSH1 0x80 DUP6 DUP8 SUB SLT ISZERO PUSH2 0x431B JUMPI PUSH1 0x0 DUP1 REVERT JUMPDEST DUP5 CALLDATALOAD PUSH2 0x4326 DUP2 PUSH2 0x398E JUMP JUMPDEST SWAP4 POP PUSH1 0x20 DUP6 ADD CALLDATALOAD SWAP3 POP PUSH1 0x40 DUP6 ADD CALLDATALOAD PUSH1 0x1 PUSH1 0x1 PUSH1 0x40 SHL SUB DUP2 GT ISZERO PUSH2 0x4348 JUMPI PUSH1 0x0 DUP1 REVERT JUMPDEST PUSH2 0x4354 DUP8 DUP3 DUP9 ADD PUSH2 0x3CD3 JUMP JUMPDEST SWAP3 POP POP PUSH1 0x60 DUP6 ADD CALLDATALOAD PUSH1 0x1 PUSH1 0x1 PUSH1 0x40 SHL SUB DUP2 GT ISZERO PUSH2 0x4370 JUMPI PUSH1 0x0 DUP1 REVERT JUMPDEST PUSH2 0x437C DUP8 DUP3 DUP9 ADD PUSH2 0x3D42 JUMP JUMPDEST SWAP2 POP POP SWAP3 SWAP6 SWAP2 SWAP5 POP SWAP3 POP JUMP JUMPDEST PUSH1 0x0 DUP1 PUSH1 0x0 PUSH1 0x60 DUP5 DUP7 SUB SLT ISZERO PUSH2 0x439D JUMPI PUSH1 0x0 DUP1 REVERT JUMPDEST DUP4 CALLDATALOAD SWAP3 POP PUSH1 0x20 DUP5 ADD CALLDATALOAD PUSH2 0x43AF DUP2 PUSH2 0x398E JUMP JUMPDEST SWAP3 SWAP6 SWAP3 SWAP5 POP POP POP PUSH1 0x40 SWAP2 SWAP1 SWAP2 ADD CALLDATALOAD SWAP1 JUMP JUMPDEST PUSH1 0x0 DUP1 PUSH1 0x0 DUP1 PUSH1 0x80 DUP6 DUP8 SUB SLT ISZERO PUSH2 0x43D6 JUMPI PUSH1 0x0 DUP1 REVERT JUMPDEST DUP5 CALLDATALOAD PUSH2 0x43E1 DUP2 PUSH2 0x398E JUMP JUMPDEST SWAP4 POP PUSH1 0x20 DUP6 ADD CALLDATALOAD SWAP3 POP PUSH1 0x40 DUP6 ADD CALLDATALOAD PUSH2 0x43F8 DUP2 PUSH2 0x398E JUMP JUMPDEST SWAP4 SWAP7 SWAP3 SWAP6 POP SWAP3 SWAP4 PUSH1 0x60 ADD CALLDATALOAD SWAP3 POP POP JUMP JUMPDEST PUSH1 0x0 DUP1 PUSH1 0x0 PUSH1 0x60 DUP5 DUP7 SUB SLT ISZERO PUSH2 0x441D JUMPI PUSH1 0x0 DUP1 REVERT JUMPDEST DUP4 CALLDATALOAD PUSH2 0x4428 DUP2 PUSH2 0x398E JUMP JUMPDEST SWAP3 POP PUSH1 0x20 DUP5 ADD CALLDATALOAD SWAP2 POP PUSH1 0x40 DUP5 ADD CALLDATALOAD PUSH1 0x1 PUSH1 0x1 PUSH1 0x40 SHL SUB DUP2 GT ISZERO PUSH2 0x444A JUMPI PUSH1 0x0 DUP1 REVERT JUMPDEST PUSH2 0x419D DUP7 DUP3 DUP8 ADD PUSH2 0x3CD3 JUMP JUMPDEST PUSH1 0x0 PUSH1 0x20 DUP3 DUP5 SUB SLT ISZERO PUSH2 0x4468 JUMPI PUSH1 0x0 DUP1 REVERT JUMPDEST PUSH2 0x39C0 DUP3 PUSH2 0x3F23 JUMP JUMPDEST PUSH1 0x0 DUP1 PUSH1 0x40 DUP4 DUP6 SUB SLT ISZERO PUSH2 0x4484 JUMPI PUSH1 0x0 DUP1 REVERT JUMPDEST DUP3 CALLDATALOAD SWAP2 POP PUSH1 0x20 DUP4 ADD CALLDATALOAD PUSH2 0x4496 DUP2 PUSH2 0x398E JUMP JUMPDEST DUP1 SWAP2 POP POP SWAP3 POP SWAP3 SWAP1 POP JUMP JUMPDEST PUSH1 0x1 PUSH1 0x1 PUSH1 0xA0 SHL SUB DUP6 AND DUP2 MSTORE PUSH1 0x80 PUSH1 0x20 DUP3 ADD DUP2 SWAP1 MSTORE PUSH1 0x0 SWAP1 PUSH2 0x44C5 SWAP1 DUP4 ADD DUP7 PUSH2 0x39EB JUMP JUMPDEST PUSH1 0x1 PUSH1 0x1 PUSH1 0xA0 SHL SUB SWAP5 SWAP1 SWAP5 AND PUSH1 0x40 DUP4 ADD MSTORE POP PUSH1 0x60 ADD MSTORE SWAP3 SWAP2 POP POP JUMP JUMPDEST PUSH1 0x0 DUP1 PUSH1 0x40 DUP4 DUP6 SUB SLT ISZERO PUSH2 0x44F4 JUMPI PUSH1 0x0 DUP1 REVERT JUMPDEST DUP3 CALLDATALOAD PUSH2 0x3F58 DUP2 PUSH2 0x398E JUMP JUMPDEST PUSH1 0x0 DUP1 PUSH1 0x0 PUSH1 0x60 DUP5 DUP7 SUB SLT ISZERO PUSH2 0x4514 JUMPI PUSH1 0x0 DUP1 REVERT JUMPDEST DUP4 CALLDATALOAD PUSH2 0x451F DUP2 PUSH2 0x398E JUMP JUMPDEST SWAP3 POP PUSH1 0x20 DUP5 ADD CALLDATALOAD SWAP2 POP PUSH2 0x4534 PUSH1 0x40 DUP6 ADD PUSH2 0x42C9 JUMP JUMPDEST SWAP1 POP SWAP3 POP SWAP3 POP SWAP3 JUMP JUMPDEST PUSH1 0x0 DUP1 PUSH1 0x0 PUSH1 0x60 DUP5 DUP7 SUB SLT ISZERO PUSH2 0x4552 JUMPI PUSH1 0x0 DUP1 REVERT JUMPDEST DUP4 CALLDATALOAD PUSH2 0x455D DUP2 PUSH2 0x398E JUMP JUMPDEST SWAP6 PUSH1 0x20 DUP6 ADD CALLDATALOAD SWAP6 POP PUSH1 0x40 SWAP1 SWAP5 ADD CALLDATALOAD SWAP4 SWAP3 POP POP POP JUMP JUMPDEST PUSH1 0x0 DUP1 PUSH1 0x40 DUP4 DUP6 SUB SLT ISZERO PUSH2 0x4585 JUMPI PUSH1 0x0 DUP1 REVERT JUMPDEST DUP3 CALLDATALOAD SWAP2 POP PUSH1 0x20 DUP4 ADD CALLDATALOAD PUSH1 0x1 PUSH1 0x1 PUSH1 0x40 SHL SUB DUP2 GT ISZERO PUSH2 0x3EEB JUMPI PUSH1 0x0 DUP1 REVERT JUMPDEST PUSH1 0x0 DUP1 PUSH1 0x0 DUP1 PUSH1 0x80 DUP6 DUP8 SUB SLT ISZERO PUSH2 0x45B8 JUMPI PUSH1 0x0 DUP1 REVERT JUMPDEST DUP5 CALLDATALOAD PUSH2 0x45C3 DUP2 PUSH2 0x398E JUMP JUMPDEST SWAP4 POP PUSH1 0x20 DUP6 ADD CALLDATALOAD PUSH1 0x1 PUSH1 0x1 PUSH1 0x40 SHL SUB DUP2 GT ISZERO PUSH2 0x45DE JUMPI PUSH1 0x0 DUP1 REVERT JUMPDEST PUSH2 0x45EA DUP8 DUP3 DUP9 ADD PUSH2 0x3CD3 JUMP JUMPDEST SWAP4 POP POP PUSH1 0x40 DUP6 ADD CALLDATALOAD PUSH2 0x43F8 DUP2 PUSH2 0x398E JUMP JUMPDEST DUP5 DUP2 MSTORE DUP4 PUSH1 0x20 DUP3 ADD MSTORE PUSH1 0x1 DUP1 PUSH1 0xA0 SHL SUB DUP4 AND PUSH1 0x40 DUP3 ADD MSTORE PUSH1 0x80 PUSH1 0x60 DUP3 ADD MSTORE PUSH1 0x0 PUSH2 0x3E27 PUSH1 0x80 DUP4 ADD DUP5 PUSH2 0x39EB JUMP JUMPDEST PUSH1 0x0 DUP1 PUSH1 0x0 PUSH1 0x60 DUP5 DUP7 SUB SLT ISZERO PUSH2 0x463D JUMPI PUSH1 0x0 DUP1 REVERT JUMPDEST DUP4 CALLDATALOAD PUSH1 0x1 PUSH1 0x1 PUSH1 0x40 SHL SUB DUP2 GT ISZERO PUSH2 0x4653 JUMPI PUSH1 0x0 DUP1 REVERT JUMPDEST PUSH2 0x465F DUP7 DUP3 DUP8 ADD PUSH2 0x3CD3 JUMP JUMPDEST SWAP4 POP POP PUSH1 0x20 DUP5 ADD CALLDATALOAD PUSH2 0x43AF DUP2 PUSH2 0x398E JUMP JUMPDEST PUSH1 0x0 PUSH1 0x60 DUP3 DUP5 SUB SLT ISZERO PUSH2 0x4682 JUMPI PUSH1 0x0 DUP1 REVERT JUMPDEST PUSH2 0x39C0 DUP4 DUP4 PUSH2 0x3AE3 JUMP JUMPDEST PUSH1 0x1 DUP2 DUP2 SHR SWAP1 DUP3 AND DUP1 PUSH2 0x46A0 JUMPI PUSH1 0x7F DUP3 AND SWAP2 POP JUMPDEST PUSH1 0x20 DUP3 LT DUP2 SUB PUSH2 0x3AF5 JUMPI PUSH4 0x4E487B71 PUSH1 0xE0 SHL PUSH1 0x0 MSTORE PUSH1 0x22 PUSH1 0x4 MSTORE PUSH1 0x24 PUSH1 0x0 REVERT JUMPDEST PUSH4 0x4E487B71 PUSH1 0xE0 SHL PUSH1 0x0 MSTORE PUSH1 0x32 PUSH1 0x4 MSTORE PUSH1 0x24 PUSH1 0x0 REVERT JUMPDEST PUSH4 0x4E487B71 PUSH1 0xE0 SHL PUSH1 0x0 MSTORE PUSH1 0x11 PUSH1 0x4 MSTORE PUSH1 0x24 PUSH1 0x0 REVERT JUMPDEST DUP1 DUP3 ADD DUP1 DUP3 GT ISZERO PUSH2 0x1688 JUMPI PUSH2 0x1688 PUSH2 0x46D6 JUMP JUMPDEST PUSH1 0x0 PUSH1 0x1 DUP3 ADD PUSH2 0x4711 JUMPI PUSH2 0x4711 PUSH2 0x46D6 JUMP JUMPDEST POP PUSH1 0x1 ADD SWAP1 JUMP JUMPDEST PUSH1 0x1F DUP3 GT ISZERO PUSH2 0x166C JUMPI DUP1 PUSH1 0x0 MSTORE PUSH1 0x20 PUSH1 0x0 KECCAK256 PUSH1 0x1F DUP5 ADD PUSH1 0x5 SHR DUP2 ADD PUSH1 0x20 DUP6 LT ISZERO PUSH2 0x473F JUMPI POP DUP1 JUMPDEST PUSH1 0x1F DUP5 ADD PUSH1 0x5 SHR DUP3 ADD SWAP2 POP JUMPDEST DUP2 DUP2 LT ISZERO PUSH2 0x27F1 JUMPI PUSH1 0x0 DUP2 SSTORE PUSH1 0x1 ADD PUSH2 0x474B JUMP JUMPDEST DUP2 MLOAD PUSH1 0x1 PUSH1 0x1 PUSH1 0x40 SHL SUB DUP2 GT ISZERO PUSH2 0x4778 JUMPI PUSH2 0x4778 PUSH2 0x3C65 JUMP JUMPDEST PUSH2 0x478C DUP2 PUSH2 0x4786 DUP5 SLOAD PUSH2 0x468C JUMP JUMPDEST DUP5 PUSH2 0x4718 JUMP JUMPDEST PUSH1 0x20 PUSH1 0x1F DUP3 GT PUSH1 0x1 DUP2 EQ PUSH2 0x47C3 JUMPI PUSH1 0x0 DUP4 ISZERO PUSH2 0x47A8 JUMPI POP DUP5 DUP3 ADD MLOAD JUMPDEST PUSH1 0x1 DUP5 SWAP1 SHL PUSH1 0x0 NOT PUSH1 0x3 DUP7 SWAP1 SHL SHR NOT DUP3 AND OR JUMPDEST DUP6 SSTORE POP PUSH2 0x27F1 JUMP JUMPDEST PUSH1 0x0 DUP5 DUP2 MSTORE PUSH1 0x20 DUP2 KECCAK256 PUSH1 0x1F NOT DUP6 AND SWAP2 JUMPDEST DUP3 DUP2 LT ISZERO PUSH2 0x47F3 JUMPI DUP8 DUP6 ADD MLOAD DUP3 SSTORE PUSH1 0x20 SWAP5 DUP6 ADD SWAP5 PUSH1 0x1 SWAP1 SWAP3 ADD SWAP2 ADD PUSH2 0x47D3 JUMP JUMPDEST POP DUP5 DUP3 LT ISZERO PUSH2 0x4811 JUMPI DUP7 DUP5 ADD MLOAD PUSH1 0x0 NOT PUSH1 0x3 DUP8 SWAP1 SHL PUSH1 0xF8 AND SHR NOT AND DUP2 SSTORE JUMPDEST POP POP POP POP PUSH1 0x1 SWAP1 DUP2 SHL ADD SWAP1 SSTORE POP JUMP JUMPDEST PUSH1 0x20 DUP2 MSTORE PUSH1 0x0 PUSH2 0x39C0 PUSH1 0x20 DUP4 ADD DUP5 PUSH2 0x39EB JUMP JUMPDEST PUSH1 0x20 DUP1 DUP3 MSTORE PUSH1 0x12 SWAP1 DUP3 ADD MSTORE PUSH18 0x129BD888191BD95CC81B9BDD08195E1A5CDD PUSH1 0x72 SHL PUSH1 0x40 DUP3 ADD MSTORE PUSH1 0x60 ADD SWAP1 JUMP JUMPDEST PUSH1 0x0 DUP3 PUSH2 0x487C JUMPI PUSH4 0x4E487B71 PUSH1 0xE0 SHL PUSH1 0x0 MSTORE PUSH1 0x12 PUSH1 0x4 MSTORE PUSH1 0x24 PUSH1 0x0 REVERT JUMPDEST POP DIV SWAP1 JUMP JUMPDEST PUSH1 0x20 DUP1 DUP3 MSTORE PUSH1 0x13 SWAP1 DUP3 ADD MSTORE PUSH19 0x129BD8881B5D5CDD081899481CDD185C9D1959 PUSH1 0x6A SHL PUSH1 0x40 DUP3 ADD MSTORE PUSH1 0x60 ADD SWAP1 JUMP JUMPDEST PUSH1 0x40 DUP2 MSTORE PUSH1 0x0 PUSH2 0x48C1 PUSH1 0x40 DUP4 ADD DUP6 PUSH2 0x39EB JUMP JUMPDEST SWAP1 POP DUP3 PUSH1 0x20 DUP4 ADD MSTORE SWAP4 SWAP3 POP POP POP JUMP JUMPDEST DUP2 DUP2 SUB PUSH2 0x48DB JUMPI POP POP JUMP JUMPDEST PUSH2 0x48E5 DUP3 SLOAD PUSH2 0x468C JUMP JUMPDEST PUSH1 0x1 PUSH1 0x1 PUSH1 0x40 SHL SUB DUP2 GT ISZERO PUSH2 0x48FC JUMPI PUSH2 0x48FC PUSH2 0x3C65 JUMP JUMPDEST PUSH2 0x490A DUP2 PUSH2 0x4786 DUP5 SLOAD PUSH2 0x468C JUMP JUMPDEST PUSH1 0x0 PUSH1 0x1F DUP3 GT PUSH1 0x1 DUP2 EQ PUSH2 0x493C JUMPI PUSH1 0x0 DUP4 ISZERO PUSH2 0x47A8 JUMPI POP DUP2 DUP6 ADD SLOAD PUSH1 0x1 DUP5 SWAP1 SHL PUSH1 0x0 NOT PUSH1 0x3 DUP7 SWAP1 SHL SHR NOT DUP3 AND OR PUSH2 0x47BB JUMP JUMPDEST PUSH1 0x0 DUP6 DUP2 MSTORE PUSH1 0x20 SWAP1 KECCAK256 PUSH1 0x1F NOT DUP5 AND SWAP1 PUSH1 0x0 DUP7 DUP2 MSTORE PUSH1 0x20 SWAP1 KECCAK256 DUP5 JUMPDEST DUP4 DUP2 LT ISZERO PUSH2 0x4976 JUMPI DUP3 DUP7 ADD SLOAD DUP3 SSTORE PUSH1 0x1 SWAP6 DUP7 ADD SWAP6 SWAP1 SWAP2 ADD SWAP1 PUSH1 0x20 ADD PUSH2 0x4956 JUMP JUMPDEST POP DUP6 DUP4 LT ISZERO PUSH2 0x4994 JUMPI DUP2 DUP6 ADD SLOAD PUSH1 0x0 NOT PUSH1 0x3 DUP9 SWAP1 SHL PUSH1 0xF8 AND SHR NOT AND DUP2 SSTORE JUMPDEST POP POP POP POP POP PUSH1 0x1 SWAP1 DUP2 SHL ADD SWAP1 SSTORE POP JUMP JUMPDEST PUSH1 0x40 DUP2 MSTORE PUSH1 0x0 PUSH2 0x49B7 PUSH1 0x40 DUP4 ADD DUP6 PUSH2 0x39EB JUMP JUMPDEST SWAP1 POP PUSH1 0x1 DUP1 PUSH1 0xA0 SHL SUB DUP4 AND PUSH1 0x20 DUP4 ADD MSTORE SWAP4 SWAP3 POP POP POP JUMP JUMPDEST PUSH1 0x0 PUSH1 0x20 DUP3 DUP5 SUB SLT ISZERO PUSH2 0x49E0 JUMPI PUSH1 0x0 DUP1 REVERT JUMPDEST DUP2 CALLDATALOAD PUSH1 0x1 PUSH1 0x1 PUSH1 0x40 SHL SUB DUP2 GT ISZERO PUSH2 0x49F6 JUMPI PUSH1 0x0 DUP1 REVERT JUMPDEST PUSH2 0x1759 DUP5 DUP3 DUP6 ADD PUSH2 0x3CD3 JUMP JUMPDEST PUSH1 0x0 DUP3 MLOAD PUSH2 0x4A14 DUP2 DUP5 PUSH1 0x20 DUP8 ADD PUSH2 0x39C7 JUMP JUMPDEST SWAP2 SWAP1 SWAP2 ADD SWAP3 SWAP2 POP POP JUMP JUMPDEST PUSH1 0x0 DUP1 PUSH1 0x0 DUP1 PUSH1 0x0 PUSH1 0xA0 DUP7 DUP9 SUB SLT ISZERO PUSH2 0x4A36 JUMPI PUSH1 0x0 DUP1 REVERT JUMPDEST DUP6 CALLDATALOAD PUSH1 0x1 PUSH1 0x1 PUSH1 0x40 SHL SUB DUP2 GT ISZERO PUSH2 0x4A4C JUMPI PUSH1 0x0 DUP1 REVERT JUMPDEST PUSH2 0x4A58 DUP9 DUP3 DUP10 ADD PUSH2 0x3CD3 JUMP JUMPDEST SWAP6 POP POP PUSH1 0x20 DUP7 ADD CALLDATALOAD PUSH2 0x4A69 DUP2 PUSH2 0x398E JUMP JUMPDEST SWAP4 POP PUSH1 0x40 DUP7 ADD CALLDATALOAD PUSH1 0x1 PUSH1 0x1 PUSH1 0x40 SHL SUB DUP2 GT ISZERO PUSH2 0x4A84 JUMPI PUSH1 0x0 DUP1 REVERT JUMPDEST PUSH2 0x4A90 DUP9 DUP3 DUP10 ADD PUSH2 0x3CD3 JUMP JUMPDEST SWAP4 POP POP PUSH1 0x60 DUP7 ADD CALLDATALOAD PUSH2 0x4AA1 DUP2 PUSH2 0x398E JUMP JUMPDEST SWAP5 SWAP8 SWAP4 SWAP7 POP SWAP2 SWAP5 PUSH1 0x80 ADD CALLDATALOAD SWAP3 SWAP2 POP POP JUMP JUMPDEST PUSH1 0x0 DUP1 PUSH1 0x0 DUP1 PUSH1 0x0 PUSH1 0xA0 DUP7 DUP9 SUB SLT ISZERO PUSH2 0x4ACA JUMPI PUSH1 0x0 DUP1 REVERT JUMPDEST DUP6 CALLDATALOAD PUSH1 0x1 PUSH1 0x1 PUSH1 0x40 SHL SUB DUP2 GT ISZERO PUSH2 0x4AE0 JUMPI PUSH1 0x0 DUP1 REVERT JUMPDEST PUSH2 0x4AEC DUP9 DUP3 DUP10 ADD PUSH2 0x3CD3 JUMP JUMPDEST SWAP6 POP POP PUSH1 0x20 DUP7 ADD CALLDATALOAD PUSH2 0x4AFD DUP2 PUSH2 0x398E JUMP JUMPDEST SWAP4 POP PUSH1 0x40 DUP7 ADD CALLDATALOAD PUSH1 0x1 PUSH1 0x1 PUSH1 0x40 SHL SUB DUP2 GT ISZERO PUSH2 0x4B18 JUMPI PUSH1 0x0 DUP1 REVERT JUMPDEST PUSH2 0x4B24 DUP9 DUP3 DUP10 ADD PUSH2 0x3CD3 JUMP JUMPDEST SWAP4 POP POP PUSH1 0x60 DUP7 ADD CALLDATALOAD PUSH1 0x1 PUSH1 0x1 PUSH1 0x40 SHL SUB DUP2 GT ISZERO PUSH2 0x4B40 JUMPI PUSH1 0x0 DUP1 REVERT JUMPDEST PUSH2 0x4B4C DUP9 DUP3 DUP10 ADD PUSH2 0x3D42 JUMP JUMPDEST SWAP6 SWAP9 SWAP5 SWAP8 POP SWAP3 SWAP6 PUSH1 0x80 ADD CALLDATALOAD SWAP4 SWAP3 POP POP POP JUMP JUMPDEST PUSH1 0x0 DUP1 PUSH1 0x0 DUP1 PUSH1 0x0 PUSH1 0xA0 DUP7 DUP9 SUB SLT ISZERO PUSH2 0x4B76 JUMPI PUSH1 0x0 DUP1 REVERT JUMPDEST DUP6 CALLDATALOAD PUSH1 0x1 PUSH1 0x1 PUSH1 0x40 SHL SUB DUP2 GT ISZERO PUSH2 0x4B8C JUMPI PUSH1 0x0 DUP1 REVERT JUMPDEST PUSH2 0x4B98 DUP9 DUP3 DUP10 ADD PUSH2 0x3CD3 JUMP JUMPDEST SWAP6 POP POP PUSH1 0x20 DUP7 ADD CALLDATALOAD PUSH2 0x4BA9 DUP2 PUSH2 0x398E JUMP JUMPDEST SWAP4 POP PUSH1 0x40 DUP7 ADD CALLDATALOAD SWAP3 POP PUSH1 0x60 DUP7 ADD CALLDATALOAD PUSH1 0x1 PUSH1 0x1 PUSH1 0x40 SHL SUB DUP2 GT ISZERO PUSH2 0x4BCB JUMPI PUSH1 0x0 DUP1 REVERT JUMPDEST PUSH2 0x4BD7 DUP9 DUP3 DUP10 ADD PUSH2 0x3CD3 JUMP JUMPDEST SWAP3 POP POP PUSH1 0x80 DUP7 ADD CALLDATALOAD PUSH1 0x1 PUSH1 0x1 PUSH1 0x40 SHL SUB DUP2 GT ISZERO PUSH2 0x4BF3 JUMPI PUSH1 0x0 DUP1 REVERT JUMPDEST PUSH2 0x4BFF DUP9 DUP3 DUP10 ADD PUSH2 0x3D42 JUMP JUMPDEST SWAP2 POP POP SWAP3 SWAP6 POP SWAP3 SWAP6 SWAP1 SWAP4 POP JUMP JUMPDEST PUSH1 0x0 DUP1 PUSH1 0x0 DUP1 PUSH1 0x80 DUP6 DUP8 SUB SLT ISZERO PUSH2 0x4C22 JUMPI PUSH1 0x0 DUP1 REVERT JUMPDEST DUP5 CALLDATALOAD PUSH1 0x1 PUSH1 0x1 PUSH1 0x40 SHL SUB DUP2 GT ISZERO PUSH2 0x4C38 JUMPI PUSH1 0x0 DUP1 REVERT JUMPDEST PUSH2 0x4C44 DUP8 DUP3 DUP9 ADD PUSH2 0x3CD3 JUMP JUMPDEST SWAP5 POP POP PUSH1 0x20 DUP6 ADD CALLDATALOAD PUSH2 0x4C55 DUP2 PUSH2 0x398E JUMP JUMPDEST SWAP3 POP PUSH1 0x40 DUP6 ADD CALLDATALOAD SWAP2 POP PUSH2 0x4C6A PUSH1 0x60 DUP7 ADD PUSH2 0x42C9 JUMP JUMPDEST SWAP1 POP SWAP3 SWAP6 SWAP2 SWAP5 POP SWAP3 POP JUMP JUMPDEST PUSH1 0x0 DUP1 PUSH1 0x0 DUP1 PUSH1 0x80 DUP6 DUP8 SUB SLT ISZERO PUSH2 0x4C8B JUMPI PUSH1 0x0 DUP1 REVERT JUMPDEST DUP5 CALLDATALOAD PUSH1 0x1 PUSH1 0x1 PUSH1 0x40 SHL SUB DUP2 GT ISZERO PUSH2 0x4CA1 JUMPI PUSH1 0x0 DUP1 REVERT JUMPDEST PUSH2 0x4CAD DUP8 DUP3 DUP9 ADD PUSH2 0x3CD3 JUMP JUMPDEST SWAP5 POP POP PUSH1 0x20 DUP6 ADD CALLDATALOAD PUSH2 0x4CBE DUP2 PUSH2 0x398E JUMP JUMPDEST SWAP3 POP PUSH1 0x40 DUP6 ADD CALLDATALOAD SWAP2 POP PUSH1 0x60 DUP6 ADD CALLDATALOAD PUSH1 0x1 PUSH1 0x1 PUSH1 0x40 SHL SUB DUP2 GT ISZERO PUSH2 0x4CE0 JUMPI PUSH1 0x0 DUP1 REVERT JUMPDEST PUSH2 0x437C DUP8 DUP3 DUP9 ADD PUSH2 0x3CD3 JUMP JUMPDEST PUSH1 0x0 DUP1 PUSH1 0x0 DUP1 PUSH1 0x80 DUP6 DUP8 SUB SLT ISZERO PUSH2 0x4D02 JUMPI PUSH1 0x0 DUP1 REVERT JUMPDEST DUP5 CALLDATALOAD PUSH1 0x1 PUSH1 0x1 PUSH1 0x40 SHL SUB DUP2 GT ISZERO PUSH2 0x4D18 JUMPI PUSH1 0x0 DUP1 REVERT JUMPDEST PUSH2 0x4D24 DUP8 DUP3 DUP9 ADD PUSH2 0x3CD3 JUMP JUMPDEST SWAP5 POP POP PUSH1 0x20 DUP6 ADD CALLDATALOAD PUSH2 0x4D35 DUP2 PUSH2 0x398E JUMP JUMPDEST SWAP4 SWAP7 SWAP4 SWAP6 POP POP POP POP PUSH1 0x40 DUP3 ADD CALLDATALOAD SWAP2 PUSH1 0x60 ADD CALLDATALOAD SWAP1 JUMP JUMPDEST PUSH1 0x0 DUP1 PUSH1 0x0 DUP1 PUSH1 0x0 PUSH1 0xA0 DUP7 DUP9 SUB SLT ISZERO PUSH2 0x4D62 JUMPI PUSH1 0x0 DUP1 REVERT JUMPDEST DUP6 CALLDATALOAD PUSH1 0x1 PUSH1 0x1 PUSH1 0x40 SHL SUB DUP2 GT ISZERO PUSH2 0x4D78 JUMPI PUSH1 0x0 DUP1 REVERT JUMPDEST PUSH2 0x4D84 DUP9 DUP3 DUP10 ADD PUSH2 0x3CD3 JUMP JUMPDEST SWAP6 POP POP PUSH1 0x20 DUP7 ADD CALLDATALOAD PUSH2 0x4D95 DUP2 PUSH2 0x398E JUMP JUMPDEST SWAP4 POP PUSH1 0x40 DUP7 ADD CALLDATALOAD SWAP3 POP PUSH1 0x60 DUP7 ADD CALLDATALOAD PUSH2 0x4AA1 DUP2 PUSH2 0x398E JUMP JUMPDEST PUSH1 0x0 DUP1 PUSH1 0x0 PUSH1 0x60 DUP5 DUP7 SUB SLT ISZERO PUSH2 0x4DC1 JUMPI PUSH1 0x0 DUP1 REVERT JUMPDEST DUP4 CALLDATALOAD PUSH1 0x1 PUSH1 0x1 PUSH1 0x40 SHL SUB DUP2 GT ISZERO PUSH2 0x4DD7 JUMPI PUSH1 0x0 DUP1 REVERT JUMPDEST PUSH2 0x4DE3 DUP7 DUP3 DUP8 ADD PUSH2 0x3CD3 JUMP JUMPDEST SWAP4 POP POP PUSH1 0x20 DUP5 ADD CALLDATALOAD PUSH2 0x4DF4 DUP2 PUSH2 0x398E JUMP JUMPDEST SWAP2 POP PUSH1 0x40 DUP5 ADD CALLDATALOAD PUSH1 0x1 PUSH1 0x1 PUSH1 0x40 SHL SUB DUP2 GT ISZERO PUSH2 0x444A JUMPI PUSH1 0x0 DUP1 REVERT INVALID LOG2 PUSH5 0x6970667358 0x22 SLT KECCAK256 SLOAD DUP8 0x1E DUP14 DUP5 EXTCODECOPY 0xF PUSH25 0xDED31BABC34F5B5C9556DE3BB4A4C59FD4389668F168078764 PUSH20 0x6F6C634300081C00330000000000000000000000 "
		},
		"gasEstimates": {
			"creation": {
				"codeDepositCost": "4007400",
				"executionCost": "infinite",
				"totalCost": "infinite"
			},
			"external": {
				"addPortfolio(address,string)": "infinite",
				"allowInitializePath((uint32,bytes32,uint64))": "infinite",
				"applyToJob(address,uint256,string,(string,uint256)[])": "infinite",
				"applyToJob(uint256,string,(string,uint256)[])": "infinite",
				"createProfile(address,string,address,uint256)": "infinite",
				"createProfile(string,address,uint256)": "infinite",
				"endpoint()": "infinite",
				"executedMessages(bytes32)": "2495",
				"getApplication(uint256,uint256)": "infinite",
				"getJob(uint256)": "infinite",
				"getJobDetails(uint256)": "infinite",
				"getProfile(address)": "infinite",
				"getRating(address)": "infinite",
				"hasProfile(address)": "2593",
				"isComposeMsgSender((uint32,bytes32,uint64),bytes,address)": "808",
				"isOpen(uint256)": "4821",
				"jobApplicationCounter(uint256)": "2482",
				"jobApplications(uint256,uint256)": "infinite",
				"jobCounter()": "2341",
				"jobRatings(uint256,address)": "2683",
				"jobs(uint256)": "infinite",
				"lockNextMilestone(address,uint256,uint256)": "59521",
				"lockNextMilestone(uint256,uint256)": "59465",
				"lzReceive((uint32,bytes32,uint64),bytes32,bytes,address,bytes)": "infinite",
				"nextNonce(uint32,bytes32)": "537",
				"oAppVersion()": "286",
				"owner()": "2442",
				"peers(uint32)": "2552",
				"postJob(address,string,(string,uint256)[],uint256)": "infinite",
				"postJob(string,(string,uint256)[])": "infinite",
				"profiles(address)": "infinite",
				"rate(address,uint256,address,uint256)": "infinite",
				"rate(uint256,address,uint256)": "87052",
				"releasePayment(address,uint256,uint256)": "infinite",
				"releasePayment(uint256,uint256)": "infinite",
				"renounceOwnership()": "infinite",
				"rewardsContract()": "2472",
				"setDelegate(address)": "infinite",
				"setPeer(uint32,bytes32)": "26149",
				"setRewardsContract(address)": "26884",
				"startJob(address,uint256,bool)": "infinite",
				"startJob(uint256,bool)": "infinite",
				"submitWork(address,uint256,string)": "infinite",
				"submitWork(uint256,string)": "infinite",
				"transferOwnership(address)": "infinite",
				"userRatings(address,uint256)": "4849"
			},
			"internal": {
				"_lzReceive(struct Origin calldata,bytes32,bytes calldata,address,bytes calldata)": "infinite"
			}
		},
		"methodIdentifiers": {
			"addPortfolio(address,string)": "2c317eb2",
			"allowInitializePath((uint32,bytes32,uint64))": "ff7bd03d",
			"applyToJob(address,uint256,string,(string,uint256)[])": "9d89a1db",
			"applyToJob(uint256,string,(string,uint256)[])": "5abb964d",
			"createProfile(address,string,address,uint256)": "e5deef6d",
			"createProfile(string,address,uint256)": "f4f824bb",
			"endpoint()": "5e280f11",
			"executedMessages(bytes32)": "cd2abd66",
			"getApplication(uint256,uint256)": "832a05b7",
			"getJob(uint256)": "bf22c457",
			"getJobDetails(uint256)": "4cac35c6",
			"getProfile(address)": "0f53a470",
			"getRating(address)": "80fc9c0e",
			"hasProfile(address)": "a787c80b",
			"isComposeMsgSender((uint32,bytes32,uint64),bytes,address)": "82413eac",
			"isOpen(uint256)": "4d6861a6",
			"jobApplicationCounter(uint256)": "e1897767",
			"jobApplications(uint256,uint256)": "ead39a11",
			"jobCounter()": "50355d76",
			"jobRatings(uint256,address)": "bbbacdfc",
			"jobs(uint256)": "180aedf3",
			"lockNextMilestone(address,uint256,uint256)": "d9f76f62",
			"lockNextMilestone(uint256,uint256)": "315e6542",
			"lzReceive((uint32,bytes32,uint64),bytes32,bytes,address,bytes)": "13137d65",
			"nextNonce(uint32,bytes32)": "7d25a05e",
			"oAppVersion()": "17442b70",
			"owner()": "8da5cb5b",
			"peers(uint32)": "bb0b6a53",
			"postJob(address,string,(string,uint256)[],uint256)": "248506c3",
			"postJob(string,(string,uint256)[])": "80cd2580",
			"profiles(address)": "bbe15627",
			"rate(address,uint256,address,uint256)": "a89c0949",
			"rate(uint256,address,uint256)": "a83b083c",
			"releasePayment(address,uint256,uint256)": "dc404aff",
			"releasePayment(uint256,uint256)": "97e99a80",
			"renounceOwnership()": "715018a6",
			"rewardsContract()": "220cce97",
			"setDelegate(address)": "ca5eb5e1",
			"setPeer(uint32,bytes32)": "3400288b",
			"setRewardsContract(address)": "dfa0dfa5",
			"startJob(address,uint256,bool)": "ced25488",
			"startJob(uint256,bool)": "992a80e4",
			"submitWork(address,uint256,string)": "b7a93083",
			"submitWork(uint256,string)": "da8accf9",
			"transferOwnership(address)": "f2fde38b",
			"userRatings(address,uint256)": "be001f6f"
		}
	},
	"abi": [
		{
			"inputs": [
				{
					"internalType": "address",
					"name": "_endpoint",
					"type": "address"
				},
				{
					"internalType": "address",
					"name": "_owner",
					"type": "address"
				}
			],
			"stateMutability": "nonpayable",
			"type": "constructor"
		},
		{
			"inputs": [],
			"name": "InvalidDelegate",
			"type": "error"
		},
		{
			"inputs": [],
			"name": "InvalidEndpointCall",
			"type": "error"
		},
		{
			"inputs": [],
			"name": "LzTokenUnavailable",
			"type": "error"
		},
		{
			"inputs": [
				{
					"internalType": "uint32",
					"name": "eid",
					"type": "uint32"
				}
			],
			"name": "NoPeer",
			"type": "error"
		},
		{
			"inputs": [
				{
					"internalType": "uint256",
					"name": "msgValue",
					"type": "uint256"
				}
			],
			"name": "NotEnoughNative",
			"type": "error"
		},
		{
			"inputs": [
				{
					"internalType": "address",
					"name": "addr",
					"type": "address"
				}
			],
			"name": "OnlyEndpoint",
			"type": "error"
		},
		{
			"inputs": [
				{
					"internalType": "uint32",
					"name": "eid",
					"type": "uint32"
				},
				{
					"internalType": "bytes32",
					"name": "sender",
					"type": "bytes32"
				}
			],
			"name": "OnlyPeer",
			"type": "error"
		},
		{
			"inputs": [
				{
					"internalType": "address",
					"name": "owner",
					"type": "address"
				}
			],
			"name": "OwnableInvalidOwner",
			"type": "error"
		},
		{
			"inputs": [
				{
					"internalType": "address",
					"name": "account",
					"type": "address"
				}
			],
			"name": "OwnableUnauthorizedAccount",
			"type": "error"
		},
		{
			"anonymous": false,
			"inputs": [
				{
					"indexed": true,
					"internalType": "bytes32",
					"name": "messageId",
					"type": "bytes32"
				},
				{
					"indexed": true,
					"internalType": "string",
					"name": "messageType",
					"type": "string"
				},
				{
					"indexed": true,
					"internalType": "address",
					"name": "executor",
					"type": "address"
				}
			],
			"name": "CrossChainMessageReceived",
			"type": "event"
		},
		{
			"anonymous": false,
			"inputs": [
				{
					"indexed": true,
					"internalType": "uint256",
					"name": "jobId",
					"type": "uint256"
				},
				{
					"indexed": true,
					"internalType": "uint256",
					"name": "applicationId",
					"type": "uint256"
				},
				{
					"indexed": true,
					"internalType": "address",
					"name": "applicant",
					"type": "address"
				},
				{
					"indexed": false,
					"internalType": "string",
					"name": "applicationHash",
					"type": "string"
				}
			],
			"name": "JobApplication",
			"type": "event"
		},
		{
			"anonymous": false,
			"inputs": [
				{
					"indexed": true,
					"internalType": "uint256",
					"name": "jobId",
					"type": "uint256"
				},
				{
					"indexed": true,
					"internalType": "address",
					"name": "jobGiver",
					"type": "address"
				},
				{
					"indexed": false,
					"internalType": "string",
					"name": "jobDetailHash",
					"type": "string"
				}
			],
			"name": "JobPosted",
			"type": "event"
		},
		{
			"anonymous": false,
			"inputs": [
				{
					"indexed": true,
					"internalType": "uint256",
					"name": "jobId",
					"type": "uint256"
				},
				{
					"indexed": true,
					"internalType": "uint256",
					"name": "applicationId",
					"type": "uint256"
				},
				{
					"indexed": true,
					"internalType": "address",
					"name": "selectedApplicant",
					"type": "address"
				},
				{
					"indexed": false,
					"internalType": "bool",
					"name": "useApplicantMilestones",
					"type": "bool"
				}
			],
			"name": "JobStarted",
			"type": "event"
		},
		{
			"anonymous": false,
			"inputs": [
				{
					"indexed": true,
					"internalType": "uint256",
					"name": "jobId",
					"type": "uint256"
				},
				{
					"indexed": false,
					"internalType": "uint256",
					"name": "newMilestone",
					"type": "uint256"
				},
				{
					"indexed": false,
					"internalType": "uint256",
					"name": "lockedAmount",
					"type": "uint256"
				}
			],
			"name": "MilestoneLocked",
			"type": "event"
		},
		{
			"anonymous": false,
			"inputs": [
				{
					"indexed": true,
					"internalType": "address",
					"name": "previousOwner",
					"type": "address"
				},
				{
					"indexed": true,
					"internalType": "address",
					"name": "newOwner",
					"type": "address"
				}
			],
			"name": "OwnershipTransferred",
			"type": "event"
		},
		{
			"anonymous": false,
			"inputs": [
				{
					"indexed": true,
					"internalType": "uint256",
					"name": "jobId",
					"type": "uint256"
				},
				{
					"indexed": true,
					"internalType": "address",
					"name": "jobGiver",
					"type": "address"
				},
				{
					"indexed": true,
					"internalType": "address",
					"name": "applicant",
					"type": "address"
				},
				{
					"indexed": false,
					"internalType": "uint256",
					"name": "amount",
					"type": "uint256"
				},
				{
					"indexed": false,
					"internalType": "uint256",
					"name": "milestone",
					"type": "uint256"
				}
			],
			"name": "PaymentReleased",
			"type": "event"
		},
		{
			"anonymous": false,
			"inputs": [
				{
					"indexed": false,
					"internalType": "uint32",
					"name": "eid",
					"type": "uint32"
				},
				{
					"indexed": false,
					"internalType": "bytes32",
					"name": "peer",
					"type": "bytes32"
				}
			],
			"name": "PeerSet",
			"type": "event"
		},
		{
			"anonymous": false,
			"inputs": [
				{
					"indexed": true,
					"internalType": "address",
					"name": "user",
					"type": "address"
				},
				{
					"indexed": false,
					"internalType": "string",
					"name": "portfolioHash",
					"type": "string"
				}
			],
			"name": "PortfolioAdded",
			"type": "event"
		},
		{
			"anonymous": false,
			"inputs": [
				{
					"indexed": true,
					"internalType": "address",
					"name": "user",
					"type": "address"
				},
				{
					"indexed": false,
					"internalType": "string",
					"name": "ipfsHash",
					"type": "string"
				},
				{
					"indexed": false,
					"internalType": "address",
					"name": "referrer",
					"type": "address"
				}
			],
			"name": "ProfileCreated",
			"type": "event"
		},
		{
			"anonymous": false,
			"inputs": [
				{
					"indexed": true,
					"internalType": "uint256",
					"name": "jobId",
					"type": "uint256"
				},
				{
					"indexed": true,
					"internalType": "address",
					"name": "rater",
					"type": "address"
				},
				{
					"indexed": true,
					"internalType": "address",
					"name": "rated",
					"type": "address"
				},
				{
					"indexed": false,
					"internalType": "uint256",
					"name": "rating",
					"type": "uint256"
				}
			],
			"name": "UserRated",
			"type": "event"
		},
		{
			"anonymous": false,
			"inputs": [
				{
					"indexed": true,
					"internalType": "uint256",
					"name": "jobId",
					"type": "uint256"
				},
				{
					"indexed": true,
					"internalType": "address",
					"name": "applicant",
					"type": "address"
				},
				{
					"indexed": false,
					"internalType": "string",
					"name": "submissionHash",
					"type": "string"
				},
				{
					"indexed": false,
					"internalType": "uint256",
					"name": "milestone",
					"type": "uint256"
				}
			],
			"name": "WorkSubmitted",
			"type": "event"
		},
		{
			"inputs": [
				{
					"internalType": "address",
					"name": "_user",
					"type": "address"
				},
				{
					"internalType": "string",
					"name": "_portfolioHash",
					"type": "string"
				}
			],
			"name": "addPortfolio",
			"outputs": [],
			"stateMutability": "nonpayable",
			"type": "function"
		},
		{
			"inputs": [
				{
					"components": [
						{
							"internalType": "uint32",
							"name": "srcEid",
							"type": "uint32"
						},
						{
							"internalType": "bytes32",
							"name": "sender",
							"type": "bytes32"
						},
						{
							"internalType": "uint64",
							"name": "nonce",
							"type": "uint64"
						}
					],
					"internalType": "struct Origin",
					"name": "origin",
					"type": "tuple"
				}
			],
			"name": "allowInitializePath",
			"outputs": [
				{
					"internalType": "bool",
					"name": "",
					"type": "bool"
				}
			],
			"stateMutability": "view",
			"type": "function"
		},
		{
			"inputs": [
				{
					"internalType": "uint256",
					"name": "_jobId",
					"type": "uint256"
				},
				{
					"internalType": "string",
					"name": "_applicationHash",
					"type": "string"
				},
				{
					"components": [
						{
							"internalType": "string",
							"name": "descriptionHash",
							"type": "string"
						},
						{
							"internalType": "uint256",
							"name": "amount",
							"type": "uint256"
						}
					],
					"internalType": "struct NativeOpenWorkJobContract.MilestonePayment[]",
					"name": "_proposedMilestones",
					"type": "tuple[]"
				}
			],
			"name": "applyToJob",
			"outputs": [],
			"stateMutability": "nonpayable",
			"type": "function"
		},
		{
			"inputs": [
				{
					"internalType": "address",
					"name": "_applicant",
					"type": "address"
				},
				{
					"internalType": "uint256",
					"name": "_jobId",
					"type": "uint256"
				},
				{
					"internalType": "string",
					"name": "_applicationHash",
					"type": "string"
				},
				{
					"components": [
						{
							"internalType": "string",
							"name": "descriptionHash",
							"type": "string"
						},
						{
							"internalType": "uint256",
							"name": "amount",
							"type": "uint256"
						}
					],
					"internalType": "struct NativeOpenWorkJobContract.MilestonePayment[]",
					"name": "_proposedMilestones",
					"type": "tuple[]"
				}
			],
			"name": "applyToJob",
			"outputs": [],
			"stateMutability": "nonpayable",
			"type": "function"
		},
		{
			"inputs": [
				{
					"internalType": "address",
					"name": "_user",
					"type": "address"
				},
				{
					"internalType": "string",
					"name": "_ipfsHash",
					"type": "string"
				},
				{
					"internalType": "address",
					"name": "_referrerAddress",
					"type": "address"
				},
				{
					"internalType": "uint256",
					"name": "_rating",
					"type": "uint256"
				}
			],
			"name": "createProfile",
			"outputs": [],
			"stateMutability": "nonpayable",
			"type": "function"
		},
		{
			"inputs": [
				{
					"internalType": "string",
					"name": "_ipfsHash",
					"type": "string"
				},
				{
					"internalType": "address",
					"name": "_referrerAddress",
					"type": "address"
				},
				{
					"internalType": "uint256",
					"name": "_rating",
					"type": "uint256"
				}
			],
			"name": "createProfile",
			"outputs": [],
			"stateMutability": "nonpayable",
			"type": "function"
		},
		{
			"inputs": [],
			"name": "endpoint",
			"outputs": [
				{
					"internalType": "contract ILayerZeroEndpointV2",
					"name": "",
					"type": "address"
				}
			],
			"stateMutability": "view",
			"type": "function"
		},
		{
			"inputs": [
				{
					"internalType": "bytes32",
					"name": "",
					"type": "bytes32"
				}
			],
			"name": "executedMessages",
			"outputs": [
				{
					"internalType": "bool",
					"name": "",
					"type": "bool"
				}
			],
			"stateMutability": "view",
			"type": "function"
		},
		{
			"inputs": [
				{
					"internalType": "uint256",
					"name": "_jobId",
					"type": "uint256"
				},
				{
					"internalType": "uint256",
					"name": "_applicationId",
					"type": "uint256"
				}
			],
			"name": "getApplication",
			"outputs": [
				{
					"components": [
						{
							"internalType": "uint256",
							"name": "id",
							"type": "uint256"
						},
						{
							"internalType": "uint256",
							"name": "jobId",
							"type": "uint256"
						},
						{
							"internalType": "address",
							"name": "applicant",
							"type": "address"
						},
						{
							"internalType": "string",
							"name": "applicationHash",
							"type": "string"
						},
						{
							"components": [
								{
									"internalType": "string",
									"name": "descriptionHash",
									"type": "string"
								},
								{
									"internalType": "uint256",
									"name": "amount",
									"type": "uint256"
								}
							],
							"internalType": "struct NativeOpenWorkJobContract.MilestonePayment[]",
							"name": "proposedMilestones",
							"type": "tuple[]"
						}
					],
					"internalType": "struct NativeOpenWorkJobContract.Application",
					"name": "",
					"type": "tuple"
				}
			],
			"stateMutability": "view",
			"type": "function"
		},
		{
			"inputs": [
				{
					"internalType": "uint256",
					"name": "_jobId",
					"type": "uint256"
				}
			],
			"name": "getJob",
			"outputs": [
				{
					"components": [
						{
							"internalType": "uint256",
							"name": "id",
							"type": "uint256"
						},
						{
							"internalType": "address",
							"name": "jobGiver",
							"type": "address"
						},
						{
							"internalType": "address[]",
							"name": "applicants",
							"type": "address[]"
						},
						{
							"internalType": "string",
							"name": "jobDetailHash",
							"type": "string"
						},
						{
							"internalType": "bool",
							"name": "isOpen",
							"type": "bool"
						},
						{
							"internalType": "string[]",
							"name": "workSubmissions",
							"type": "string[]"
						},
						{
							"components": [
								{
									"internalType": "string",
									"name": "descriptionHash",
									"type": "string"
								},
								{
									"internalType": "uint256",
									"name": "amount",
									"type": "uint256"
								}
							],
							"internalType": "struct NativeOpenWorkJobContract.MilestonePayment[]",
							"name": "milestonePayments",
							"type": "tuple[]"
						},
						{
							"components": [
								{
									"internalType": "string",
									"name": "descriptionHash",
									"type": "string"
								},
								{
									"internalType": "uint256",
									"name": "amount",
									"type": "uint256"
								}
							],
							"internalType": "struct NativeOpenWorkJobContract.MilestonePayment[]",
							"name": "finalMilestones",
							"type": "tuple[]"
						},
						{
							"internalType": "uint256",
							"name": "totalPaid",
							"type": "uint256"
						},
						{
							"internalType": "uint256",
							"name": "currentLockedAmount",
							"type": "uint256"
						},
						{
							"internalType": "uint256",
							"name": "currentMilestone",
							"type": "uint256"
						},
						{
							"internalType": "address",
							"name": "selectedApplicant",
							"type": "address"
						},
						{
							"internalType": "uint256",
							"name": "selectedApplicationId",
							"type": "uint256"
						}
					],
					"internalType": "struct NativeOpenWorkJobContract.Job",
					"name": "",
					"type": "tuple"
				}
			],
			"stateMutability": "view",
			"type": "function"
		},
		{
			"inputs": [
				{
					"internalType": "uint256",
					"name": "_jobId",
					"type": "uint256"
				}
			],
			"name": "getJobDetails",
			"outputs": [
				{
					"components": [
						{
							"internalType": "uint256",
							"name": "id",
							"type": "uint256"
						},
						{
							"internalType": "address",
							"name": "jobGiver",
							"type": "address"
						},
						{
							"internalType": "address[]",
							"name": "applicants",
							"type": "address[]"
						},
						{
							"internalType": "string",
							"name": "jobDetailHash",
							"type": "string"
						},
						{
							"internalType": "bool",
							"name": "isOpen",
							"type": "bool"
						},
						{
							"internalType": "string[]",
							"name": "workSubmissions",
							"type": "string[]"
						},
						{
							"components": [
								{
									"internalType": "string",
									"name": "descriptionHash",
									"type": "string"
								},
								{
									"internalType": "uint256",
									"name": "amount",
									"type": "uint256"
								}
							],
							"internalType": "struct NativeOpenWorkJobContract.MilestonePayment[]",
							"name": "milestonePayments",
							"type": "tuple[]"
						},
						{
							"components": [
								{
									"internalType": "string",
									"name": "descriptionHash",
									"type": "string"
								},
								{
									"internalType": "uint256",
									"name": "amount",
									"type": "uint256"
								}
							],
							"internalType": "struct NativeOpenWorkJobContract.MilestonePayment[]",
							"name": "finalMilestones",
							"type": "tuple[]"
						},
						{
							"internalType": "uint256",
							"name": "totalPaid",
							"type": "uint256"
						},
						{
							"internalType": "uint256",
							"name": "currentLockedAmount",
							"type": "uint256"
						},
						{
							"internalType": "uint256",
							"name": "currentMilestone",
							"type": "uint256"
						},
						{
							"internalType": "address",
							"name": "selectedApplicant",
							"type": "address"
						},
						{
							"internalType": "uint256",
							"name": "selectedApplicationId",
							"type": "uint256"
						}
					],
					"internalType": "struct NativeOpenWorkJobContract.Job",
					"name": "",
					"type": "tuple"
				}
			],
			"stateMutability": "view",
			"type": "function"
		},
		{
			"inputs": [
				{
					"internalType": "address",
					"name": "_user",
					"type": "address"
				}
			],
			"name": "getProfile",
			"outputs": [
				{
					"components": [
						{
							"internalType": "address",
							"name": "userAddress",
							"type": "address"
						},
						{
							"internalType": "string",
							"name": "ipfsHash",
							"type": "string"
						},
						{
							"internalType": "address",
							"name": "referrerAddress",
							"type": "address"
						},
						{
							"internalType": "uint256",
							"name": "rating",
							"type": "uint256"
						},
						{
							"internalType": "string[]",
							"name": "portfolioHashes",
							"type": "string[]"
						}
					],
					"internalType": "struct NativeOpenWorkJobContract.Profile",
					"name": "",
					"type": "tuple"
				}
			],
			"stateMutability": "view",
			"type": "function"
		},
		{
			"inputs": [
				{
					"internalType": "address",
					"name": "_user",
					"type": "address"
				}
			],
			"name": "getRating",
			"outputs": [
				{
					"internalType": "uint256",
					"name": "",
					"type": "uint256"
				}
			],
			"stateMutability": "view",
			"type": "function"
		},
		{
			"inputs": [
				{
					"internalType": "address",
					"name": "",
					"type": "address"
				}
			],
			"name": "hasProfile",
			"outputs": [
				{
					"internalType": "bool",
					"name": "",
					"type": "bool"
				}
			],
			"stateMutability": "view",
			"type": "function"
		},
		{
			"inputs": [
				{
					"components": [
						{
							"internalType": "uint32",
							"name": "srcEid",
							"type": "uint32"
						},
						{
							"internalType": "bytes32",
							"name": "sender",
							"type": "bytes32"
						},
						{
							"internalType": "uint64",
							"name": "nonce",
							"type": "uint64"
						}
					],
					"internalType": "struct Origin",
					"name": "",
					"type": "tuple"
				},
				{
					"internalType": "bytes",
					"name": "",
					"type": "bytes"
				},
				{
					"internalType": "address",
					"name": "_sender",
					"type": "address"
				}
			],
			"name": "isComposeMsgSender",
			"outputs": [
				{
					"internalType": "bool",
					"name": "",
					"type": "bool"
				}
			],
			"stateMutability": "view",
			"type": "function"
		},
		{
			"inputs": [
				{
					"internalType": "uint256",
					"name": "_jobId",
					"type": "uint256"
				}
			],
			"name": "isOpen",
			"outputs": [
				{
					"internalType": "bool",
					"name": "",
					"type": "bool"
				}
			],
			"stateMutability": "view",
			"type": "function"
		},
		{
			"inputs": [
				{
					"internalType": "uint256",
					"name": "",
					"type": "uint256"
				}
			],
			"name": "jobApplicationCounter",
			"outputs": [
				{
					"internalType": "uint256",
					"name": "",
					"type": "uint256"
				}
			],
			"stateMutability": "view",
			"type": "function"
		},
		{
			"inputs": [
				{
					"internalType": "uint256",
					"name": "",
					"type": "uint256"
				},
				{
					"internalType": "uint256",
					"name": "",
					"type": "uint256"
				}
			],
			"name": "jobApplications",
			"outputs": [
				{
					"internalType": "uint256",
					"name": "id",
					"type": "uint256"
				},
				{
					"internalType": "uint256",
					"name": "jobId",
					"type": "uint256"
				},
				{
					"internalType": "address",
					"name": "applicant",
					"type": "address"
				},
				{
					"internalType": "string",
					"name": "applicationHash",
					"type": "string"
				}
			],
			"stateMutability": "view",
			"type": "function"
		},
		{
			"inputs": [],
			"name": "jobCounter",
			"outputs": [
				{
					"internalType": "uint256",
					"name": "",
					"type": "uint256"
				}
			],
			"stateMutability": "view",
			"type": "function"
		},
		{
			"inputs": [
				{
					"internalType": "uint256",
					"name": "",
					"type": "uint256"
				},
				{
					"internalType": "address",
					"name": "",
					"type": "address"
				}
			],
			"name": "jobRatings",
			"outputs": [
				{
					"internalType": "uint256",
					"name": "",
					"type": "uint256"
				}
			],
			"stateMutability": "view",
			"type": "function"
		},
		{
			"inputs": [
				{
					"internalType": "uint256",
					"name": "",
					"type": "uint256"
				}
			],
			"name": "jobs",
			"outputs": [
				{
					"internalType": "uint256",
					"name": "id",
					"type": "uint256"
				},
				{
					"internalType": "address",
					"name": "jobGiver",
					"type": "address"
				},
				{
					"internalType": "string",
					"name": "jobDetailHash",
					"type": "string"
				},
				{
					"internalType": "bool",
					"name": "isOpen",
					"type": "bool"
				},
				{
					"internalType": "uint256",
					"name": "totalPaid",
					"type": "uint256"
				},
				{
					"internalType": "uint256",
					"name": "currentLockedAmount",
					"type": "uint256"
				},
				{
					"internalType": "uint256",
					"name": "currentMilestone",
					"type": "uint256"
				},
				{
					"internalType": "address",
					"name": "selectedApplicant",
					"type": "address"
				},
				{
					"internalType": "uint256",
					"name": "selectedApplicationId",
					"type": "uint256"
				}
			],
			"stateMutability": "view",
			"type": "function"
		},
		{
			"inputs": [
				{
					"internalType": "uint256",
					"name": "_jobId",
					"type": "uint256"
				},
				{
					"internalType": "uint256",
					"name": "_lockedAmount",
					"type": "uint256"
				}
			],
			"name": "lockNextMilestone",
			"outputs": [],
			"stateMutability": "nonpayable",
			"type": "function"
		},
		{
			"inputs": [
				{
					"internalType": "address",
					"name": "",
					"type": "address"
				},
				{
					"internalType": "uint256",
					"name": "_jobId",
					"type": "uint256"
				},
				{
					"internalType": "uint256",
					"name": "_lockedAmount",
					"type": "uint256"
				}
			],
			"name": "lockNextMilestone",
			"outputs": [],
			"stateMutability": "nonpayable",
			"type": "function"
		},
		{
			"inputs": [
				{
					"components": [
						{
							"internalType": "uint32",
							"name": "srcEid",
							"type": "uint32"
						},
						{
							"internalType": "bytes32",
							"name": "sender",
							"type": "bytes32"
						},
						{
							"internalType": "uint64",
							"name": "nonce",
							"type": "uint64"
						}
					],
					"internalType": "struct Origin",
					"name": "_origin",
					"type": "tuple"
				},
				{
					"internalType": "bytes32",
					"name": "_guid",
					"type": "bytes32"
				},
				{
					"internalType": "bytes",
					"name": "_message",
					"type": "bytes"
				},
				{
					"internalType": "address",
					"name": "_executor",
					"type": "address"
				},
				{
					"internalType": "bytes",
					"name": "_extraData",
					"type": "bytes"
				}
			],
			"name": "lzReceive",
			"outputs": [],
			"stateMutability": "payable",
			"type": "function"
		},
		{
			"inputs": [
				{
					"internalType": "uint32",
					"name": "",
					"type": "uint32"
				},
				{
					"internalType": "bytes32",
					"name": "",
					"type": "bytes32"
				}
			],
			"name": "nextNonce",
			"outputs": [
				{
					"internalType": "uint64",
					"name": "nonce",
					"type": "uint64"
				}
			],
			"stateMutability": "view",
			"type": "function"
		},
		{
			"inputs": [],
			"name": "oAppVersion",
			"outputs": [
				{
					"internalType": "uint64",
					"name": "senderVersion",
					"type": "uint64"
				},
				{
					"internalType": "uint64",
					"name": "receiverVersion",
					"type": "uint64"
				}
			],
			"stateMutability": "pure",
			"type": "function"
		},
		{
			"inputs": [],
			"name": "owner",
			"outputs": [
				{
					"internalType": "address",
					"name": "",
					"type": "address"
				}
			],
			"stateMutability": "view",
			"type": "function"
		},
		{
			"inputs": [
				{
					"internalType": "uint32",
					"name": "eid",
					"type": "uint32"
				}
			],
			"name": "peers",
			"outputs": [
				{
					"internalType": "bytes32",
					"name": "peer",
					"type": "bytes32"
				}
			],
			"stateMutability": "view",
			"type": "function"
		},
		{
			"inputs": [
				{
					"internalType": "address",
					"name": "_jobGiver",
					"type": "address"
				},
				{
					"internalType": "string",
					"name": "_jobDetailHash",
					"type": "string"
				},
				{
					"components": [
						{
							"internalType": "string",
							"name": "descriptionHash",
							"type": "string"
						},
						{
							"internalType": "uint256",
							"name": "amount",
							"type": "uint256"
						}
					],
					"internalType": "struct NativeOpenWorkJobContract.MilestonePayment[]",
					"name": "_milestonePayments",
					"type": "tuple[]"
				},
				{
					"internalType": "uint256",
					"name": "_totalValue",
					"type": "uint256"
				}
			],
			"name": "postJob",
			"outputs": [],
			"stateMutability": "nonpayable",
			"type": "function"
		},
		{
			"inputs": [
				{
					"internalType": "string",
					"name": "_jobDetailHash",
					"type": "string"
				},
				{
					"components": [
						{
							"internalType": "string",
							"name": "descriptionHash",
							"type": "string"
						},
						{
							"internalType": "uint256",
							"name": "amount",
							"type": "uint256"
						}
					],
					"internalType": "struct NativeOpenWorkJobContract.MilestonePayment[]",
					"name": "_milestonePayments",
					"type": "tuple[]"
				}
			],
			"name": "postJob",
			"outputs": [],
			"stateMutability": "payable",
			"type": "function"
		},
		{
			"inputs": [
				{
					"internalType": "address",
					"name": "",
					"type": "address"
				}
			],
			"name": "profiles",
			"outputs": [
				{
					"internalType": "address",
					"name": "userAddress",
					"type": "address"
				},
				{
					"internalType": "string",
					"name": "ipfsHash",
					"type": "string"
				},
				{
					"internalType": "address",
					"name": "referrerAddress",
					"type": "address"
				},
				{
					"internalType": "uint256",
					"name": "rating",
					"type": "uint256"
				}
			],
			"stateMutability": "view",
			"type": "function"
		},
		{
			"inputs": [
				{
					"internalType": "uint256",
					"name": "_jobId",
					"type": "uint256"
				},
				{
					"internalType": "address",
					"name": "_userToRate",
					"type": "address"
				},
				{
					"internalType": "uint256",
					"name": "_rating",
					"type": "uint256"
				}
			],
			"name": "rate",
			"outputs": [],
			"stateMutability": "nonpayable",
			"type": "function"
		},
		{
			"inputs": [
				{
					"internalType": "address",
					"name": "_rater",
					"type": "address"
				},
				{
					"internalType": "uint256",
					"name": "_jobId",
					"type": "uint256"
				},
				{
					"internalType": "address",
					"name": "_userToRate",
					"type": "address"
				},
				{
					"internalType": "uint256",
					"name": "_rating",
					"type": "uint256"
				}
			],
			"name": "rate",
			"outputs": [],
			"stateMutability": "nonpayable",
			"type": "function"
		},
		{
			"inputs": [
				{
					"internalType": "uint256",
					"name": "_jobId",
					"type": "uint256"
				},
				{
					"internalType": "uint256",
					"name": "_amount",
					"type": "uint256"
				}
			],
			"name": "releasePayment",
			"outputs": [],
			"stateMutability": "nonpayable",
			"type": "function"
		},
		{
			"inputs": [
				{
					"internalType": "address",
					"name": "_jobGiver",
					"type": "address"
				},
				{
					"internalType": "uint256",
					"name": "_jobId",
					"type": "uint256"
				},
				{
					"internalType": "uint256",
					"name": "_amount",
					"type": "uint256"
				}
			],
			"name": "releasePayment",
			"outputs": [],
			"stateMutability": "nonpayable",
			"type": "function"
		},
		{
			"inputs": [],
			"name": "renounceOwnership",
			"outputs": [],
			"stateMutability": "nonpayable",
			"type": "function"
		},
		{
			"inputs": [],
			"name": "rewardsContract",
			"outputs": [
				{
					"internalType": "contract IRewardsTrackingContract",
					"name": "",
					"type": "address"
				}
			],
			"stateMutability": "view",
			"type": "function"
		},
		{
			"inputs": [
				{
					"internalType": "address",
					"name": "_delegate",
					"type": "address"
				}
			],
			"name": "setDelegate",
			"outputs": [],
			"stateMutability": "nonpayable",
			"type": "function"
		},
		{
			"inputs": [
				{
					"internalType": "uint32",
					"name": "_eid",
					"type": "uint32"
				},
				{
					"internalType": "bytes32",
					"name": "_peer",
					"type": "bytes32"
				}
			],
			"name": "setPeer",
			"outputs": [],
			"stateMutability": "nonpayable",
			"type": "function"
		},
		{
			"inputs": [
				{
					"internalType": "address",
					"name": "_rewardsContract",
					"type": "address"
				}
			],
			"name": "setRewardsContract",
			"outputs": [],
			"stateMutability": "nonpayable",
			"type": "function"
		},
		{
			"inputs": [
				{
					"internalType": "uint256",
					"name": "_applicationId",
					"type": "uint256"
				},
				{
					"internalType": "bool",
					"name": "_useApplicantMilestones",
					"type": "bool"
				}
			],
			"name": "startJob",
			"outputs": [],
			"stateMutability": "nonpayable",
			"type": "function"
		},
		{
			"inputs": [
				{
					"internalType": "address",
					"name": "_jobGiver",
					"type": "address"
				},
				{
					"internalType": "uint256",
					"name": "_applicationId",
					"type": "uint256"
				},
				{
					"internalType": "bool",
					"name": "_useApplicantMilestones",
					"type": "bool"
				}
			],
			"name": "startJob",
			"outputs": [],
			"stateMutability": "nonpayable",
			"type": "function"
		},
		{
			"inputs": [
				{
					"internalType": "address",
					"name": "_applicant",
					"type": "address"
				},
				{
					"internalType": "uint256",
					"name": "_jobId",
					"type": "uint256"
				},
				{
					"internalType": "string",
					"name": "_submissionHash",
					"type": "string"
				}
			],
			"name": "submitWork",
			"outputs": [],
			"stateMutability": "nonpayable",
			"type": "function"
		},
		{
			"inputs": [
				{
					"internalType": "uint256",
					"name": "_jobId",
					"type": "uint256"
				},
				{
					"internalType": "string",
					"name": "_submissionHash",
					"type": "string"
				}
			],
			"name": "submitWork",
			"outputs": [],
			"stateMutability": "nonpayable",
			"type": "function"
		},
		{
			"inputs": [
				{
					"internalType": "address",
					"name": "newOwner",
					"type": "address"
				}
			],
			"name": "transferOwnership",
			"outputs": [],
			"stateMutability": "nonpayable",
			"type": "function"
		},
		{
			"inputs": [
				{
					"internalType": "address",
					"name": "",
					"type": "address"
				},
				{
					"internalType": "uint256",
					"name": "",
					"type": "uint256"
				}
			],
			"name": "userRatings",
			"outputs": [
				{
					"internalType": "uint256",
					"name": "",
					"type": "uint256"
				}
			],
			"stateMutability": "view",
			"type": "function"
		}
	]
}