{
	"data": {
		"bytecode": {
			"linkReferences": {},
			"object": "60a060405234801561001057600080fd5b506040516150ec3803806150ec83398101604081905261002f9161016f565b81818181806001600160a01b03811661006257604051631e4fbdf760e01b81526000600482015260240160405180910390fd5b61006b81610103565b506001600160a01b03808316608052811661009957604051632d618d8160e21b815260040160405180910390fd5b60805160405163ca5eb5e160e01b81526001600160a01b0383811660048301529091169063ca5eb5e190602401600060405180830381600087803b1580156100e057600080fd5b505af11580156100f4573d6000803e3d6000fd5b505050505050505050506101a2565b600080546001600160a01b038381166001600160a01b0319831681178455604051919092169283917f8be0079c531659141344cd1fd0a4f28419497f9722a3daafe3b4186f6b6457e09190a35050565b80516001600160a01b038116811461016a57600080fd5b919050565b6000806040838503121561018257600080fd5b61018b83610153565b915061019960208401610153565b90509250929050565b608051614f216101cb600039600081816104ef01528181610c0c01526128450152614f216000f3fe6080604052600436106102dd5760003560e01c80639d89a1db1161017f578063cd2abd66116100e1578063e18977671161008a578063f2fde38b11610064578063f2fde38b1461093d578063f4f824bb1461095d578063ff7bd03d1461097d57600080fd5b8063e1897767146108c0578063e5deef6d146108ed578063ead39a111461090d57600080fd5b8063da8accf9116100bb578063da8accf914610860578063dc404aff14610880578063dfa0dfa5146108a057600080fd5b8063cd2abd66146107f0578063ced2548814610820578063d9f76f621461084057600080fd5b8063bb0b6a5311610143578063be001f6f1161011d578063be001f6f14610790578063bf22c457146107b0578063ca5eb5e1146107d057600080fd5b8063bb0b6a53146106fb578063bbbacdfc14610728578063bbe156271461076057600080fd5b80639d89a1db1461064b578063a787c80b1461066b578063a83b083c1461069b578063a89c0949146106bb578063b7a93083146106db57600080fd5b806350355d761161024357806380fc9c0e116101ec5780638da5cb5b116101c65780638da5cb5b146105ed57806397e99a801461060b578063992a80e41461062b57600080fd5b806380fc9c0e1461057157806382413eac14610591578063832a05b7146105c057600080fd5b8063715018a61161021d578063715018a6146105115780637d25a05e1461052657806380cd25801461055e57600080fd5b806350355d76146104995780635abb964d146104bd5780635e280f11146104dd57600080fd5b8063248506c3116102a55780633400288b1161027f5780633400288b1461041c5780634cac35c61461043c5780634d6861a61461046957600080fd5b8063248506c3146103bc5780632c317eb2146103dc578063315e6542146103fc57600080fd5b80630f53a470146102e257806313137d651461031857806317442b701461032d578063180aedf31461034f578063220cce9714610384575b600080fd5b3480156102ee57600080fd5b506103026102fd366004613aaa565b61099d565b60405161030f9190613b7a565b60405180910390f35b61032b610326366004613c4c565b610c0a565b005b34801561033957600080fd5b506040805160018152600260208201520161030f565b34801561035b57600080fd5b5061036f61036a366004613ced565b610cc5565b60405161030f99989796959493929190613d06565b34801561039057600080fd5b50600b546103a4906001600160a01b031681565b6040516001600160a01b03909116815260200161030f565b3480156103c857600080fd5b5061032b6103d7366004613f39565b610dae565b3480156103e857600080fd5b5061032b6103f7366004613fba565b611051565b34801561040857600080fd5b5061032b610417366004614009565b6111e4565b34801561042857600080fd5b5061032b610437366004614044565b6111f3565b34801561044857600080fd5b5061045c610457366004613ced565b611205565b60405161030f9190614116565b34801561047557600080fd5b50610489610484366004613ced565b611679565b604051901515815260200161030f565b3480156104a557600080fd5b506104af60095481565b60405190815260200161030f565b3480156104c957600080fd5b5061032b6104d836600461423f565b6116c0565b3480156104e957600080fd5b506103a47f000000000000000000000000000000000000000000000000000000000000000081565b34801561051d57600080fd5b5061032b6116d1565b34801561053257600080fd5b50610546610541366004614044565b6116e5565b6040516001600160401b03909116815260200161030f565b61032b61056c3660046142af565b6116ee565b34801561057d57600080fd5b506104af61058c366004613aaa565b6116fa565b34801561059d57600080fd5b506104896105ac36600461430c565b6001600160a01b0381163014949350505050565b3480156105cc57600080fd5b506105e06105db366004614009565b6117c1565b60405161030f9190614372565b3480156105f957600080fd5b506000546001600160a01b03166103a4565b34801561061757600080fd5b5061032b610626366004614009565b611a47565b34801561063757600080fd5b5061032b6106463660046143e2565b611a52565b34801561065757600080fd5b5061032b61066636600461440e565b611a5d565b34801561067757600080fd5b50610489610686366004613aaa565b60036020526000908152604090205460ff1681565b3480156106a757600080fd5b5061032b6106b6366004614491565b611e28565b3480156106c757600080fd5b5061032b6106d63660046144c9565b611e30565b3480156106e757600080fd5b5061032b6106f6366004614511565b61210f565b34801561070757600080fd5b506104af61071636600461455f565b60016020526000908152604090205481565b34801561073457600080fd5b506104af61074336600461457a565b600760209081526000928352604080842090915290825290205481565b34801561076c57600080fd5b5061078061077b366004613aaa565b6122fe565b60405161030f94939291906145aa565b34801561079c57600080fd5b506104af6107ab3660046145e8565b6123c3565b3480156107bc57600080fd5b5061045c6107cb366004613ced565b6123f4565b3480156107dc57600080fd5b5061032b6107eb366004613aaa565b61281e565b3480156107fc57600080fd5b5061048961080b366004613ced565b600a6020526000908152604090205460ff1681565b34801561082c57600080fd5b5061032b61083b366004614606565b6128a4565b34801561084c57600080fd5b5061032b61085b366004614644565b612bb8565b34801561086c57600080fd5b5061032b61087b366004614679565b612d25565b34801561088c57600080fd5b5061032b61089b366004614644565b612d30565b3480156108ac57600080fd5b5061032b6108bb366004613aaa565b612ffb565b3480156108cc57600080fd5b506104af6108db366004613ced565b60066020526000908152604090205481565b3480156108f957600080fd5b5061032b6109083660046146a9565b613025565b34801561091957600080fd5b5061092d610928366004614009565b613208565b60405161030f9493929190614702565b34801561094957600080fd5b5061032b610958366004613aaa565b6132d0565b34801561096957600080fd5b5061032b610978366004614730565b61330e565b34801561098957600080fd5b50610489610998366004614778565b61331a565b6040805160a08101825260008082526060602083018190529282018190528282015260808101919091526001600160a01b03821660009081526003602052604090205460ff16610a2d5760405162461bcd60e51b8152602060048201526016602482015275141c9bd99a5b1948191bd95cc81b9bdd08195e1a5cdd60521b60448201526064015b60405180910390fd5b6001600160a01b03808316600090815260026020908152604091829020825160a081019093528054909316825260018301805492939291840191610a7090614794565b80601f0160208091040260200160405190810160405280929190818152602001828054610a9c90614794565b8015610ae95780601f10610abe57610100808354040283529160200191610ae9565b820191906000526020600020905b815481529060010190602001808311610acc57829003601f168201915b505050505081526020016002820160009054906101000a90046001600160a01b03166001600160a01b03166001600160a01b031681526020016003820154815260200160048201805480602002602001604051908101604052809291908181526020016000905b82821015610bfc578382906000526020600020018054610b6f90614794565b80601f0160208091040260200160405190810160405280929190818152602001828054610b9b90614794565b8015610be85780601f10610bbd57610100808354040283529160200191610be8565b820191906000526020600020905b815481529060010190602001808311610bcb57829003601f168201915b505050505081526020019060010190610b50565b505050915250909392505050565b7f00000000000000000000000000000000000000000000000000000000000000006001600160a01b03163314610c55576040516391ac5e4f60e01b8152336004820152602401610a24565b60208701803590610c6f90610c6a908a61455f565b613350565b14610cad57610c81602088018861455f565b60405163309afaf360e21b815263ffffffff909116600482015260208801356024820152604401610a24565b610cbc8787878787878761338c565b50505050505050565b60046020526000908152604090208054600182015460038301805492936001600160a01b0390921692610cf790614794565b80601f0160208091040260200160405190810160405280929190818152602001828054610d2390614794565b8015610d705780601f10610d4557610100808354040283529160200191610d70565b820191906000526020600020905b815481529060010190602001808311610d5357829003601f168201915b505050600484015460088501546009860154600a870154600b880154600c90980154969760ff90941696929550909350916001600160a01b03169089565b6001600160a01b03841660009081526003602052604090205460ff16610e165760405162461bcd60e51b815260206004820152601d60248201527f4d75737420686176652070726f66696c6520746f20706f7374206a6f620000006044820152606401610a24565b6000825111610e675760405162461bcd60e51b815260206004820181905260248201527f4d7573742068617665206174206c65617374206f6e65206d696c6573746f6e656044820152606401610a24565b6000805b8351811015610ea757838181518110610e8657610e866147c8565b60200260200101516020015182610e9d91906147f4565b9150600101610e6b565b50808214610f0a5760405162461bcd60e51b815260206004820152602a60248201527f5061796d656e74206d75737420657175616c20746f74616c206d696c6573746f6044820152696e6520616d6f756e747360b01b6064820152608401610a24565b60098054906000610f1a83614807565b909155505060095460008181526004602052604090209081556001810180546001600160a01b0319166001600160a01b03881617905560038101610f5e8682614867565b5060048101805460ff1916600117905560006008820181905560098201849055600a8201819055600b820180546001600160a01b0319169055600c82018190555b84518110156110045781600601858281518110610fbe57610fbe6147c8565b60209081029190910181015182546001810184556000938452919092208251600290920201908190610ff09082614867565b506020919091015160019182015501610f9f565b50856001600160a01b03166009547f874d4755e4be9f976c7833fc413deb77c1acbf096d6535b71953c36eb838cf40876040516110419190614928565b60405180910390a3505050505050565b6001600160a01b03821660009081526003602052604090205460ff166110b25760405162461bcd60e51b8152602060048201526016602482015275141c9bd99a5b1948191bd95cc81b9bdd08195e1a5cdd60521b6044820152606401610a24565b336001600160a01b038316146111185760405162461bcd60e51b815260206004820152602560248201527f43616e206f6e6c792061646420706f7274666f6c696f20746f206f776e2070726044820152646f66696c6560d81b6064820152608401610a24565b60008151116111695760405162461bcd60e51b815260206004820152601e60248201527f506f7274666f6c696f20686173682063616e6e6f7420626520656d70747900006044820152606401610a24565b6001600160a01b03821660009081526002602090815260408220600401805460018101825590835291200161119e8282614867565b50816001600160a01b03167fcc18228e480194b6eb176cebd651be35a4eb3236a2461b112a3e89ea1b1c40dd826040516111d89190614928565b60405180910390a25050565b6111ef338383612bb8565b5050565b6111fb61388a565b6111ef82826138b7565b61120d61395c565b600082815260046020526040812054900361123a5760405162461bcd60e51b8152600401610a249061493b565b60008281526004602090815260409182902082516101a0810184528154815260018201546001600160a01b031681840152600282018054855181860281018601875281815292959394938601938301828280156112c057602002820191906000526020600020905b81546001600160a01b031681526001909101906020018083116112a2575b505050505081526020016003820180546112d990614794565b80601f016020809104026020016040519081016040528092919081815260200182805461130590614794565b80156113525780601f1061132757610100808354040283529160200191611352565b820191906000526020600020905b81548152906001019060200180831161133557829003601f168201915b5050509183525050600482015460ff161515602080830191909152600583018054604080518285028101850182528281529401939260009084015b828210156114395783829060005260206000200180546113ac90614794565b80601f01602080910402602001604051908101604052809291908181526020018280546113d890614794565b80156114255780601f106113fa57610100808354040283529160200191611425565b820191906000526020600020905b81548152906001019060200180831161140857829003601f168201915b50505050508152602001906001019061138d565b50505050815260200160068201805480602002602001604051908101604052809291908181526020016000905b82821015611534578382906000526020600020906002020160405180604001604052908160008201805461149990614794565b80601f01602080910402602001604051908101604052809291908181526020018280546114c590614794565b80156115125780601f106114e757610100808354040283529160200191611512565b820191906000526020600020905b8154815290600101906020018083116114f557829003601f168201915b5050505050815260200160018201548152505081526020019060010190611466565b50505050815260200160078201805480602002602001604051908101604052809291908181526020016000905b8282101561162f578382906000526020600020906002020160405180604001604052908160008201805461159490614794565b80601f01602080910402602001604051908101604052809291908181526020018280546115c090614794565b801561160d5780601f106115e25761010080835404028352916020019161160d565b820191906000526020600020905b8154815290600101906020018083116115f057829003601f168201915b5050505050815260200160018201548152505081526020019060010190611561565b505050908252506008820154602082015260098201546040820152600a8201546060820152600b8201546001600160a01b03166080820152600c9091015460a09091015292915050565b60008181526004602052604081205481036116a65760405162461bcd60e51b8152600401610a249061493b565b506000908152600460208190526040909120015460ff1690565b6116cc33848484611a5d565b505050565b6116d961388a565b6116e3600061390c565b565b60005b92915050565b6111ef33838334610dae565b6001600160a01b03811660009081526008602090815260408083208054825181850281018501909352808352849383018282801561175757602002820191906000526020600020905b815481526020019060010190808311611743575b5050505050905080516000036117705750600092915050565b6000805b82518110156117ac5782818151811061178f5761178f6147c8565b6020026020010151826117a291906147f4565b9150600101611774565b5081516117b99082614967565b949350505050565b6117fc6040518060a00160405280600081526020016000815260200160006001600160a01b0316815260200160608152602001606081525090565b600083815260056020908152604080832085845290915281205490036118645760405162461bcd60e51b815260206004820152601a60248201527f4170706c69636174696f6e20646f6573206e6f742065786973740000000000006044820152606401610a24565b6000838152600560209081526040808320858452825291829020825160a0810184528154815260018201549281019290925260028101546001600160a01b0316928201929092526003820180549192916060840191906118c390614794565b80601f01602080910402602001604051908101604052809291908181526020018280546118ef90614794565b801561193c5780601f106119115761010080835404028352916020019161193c565b820191906000526020600020905b81548152906001019060200180831161191f57829003601f168201915b5050505050815260200160048201805480602002602001604051908101604052809291908181526020016000905b82821015611a38578382906000526020600020906002020160405180604001604052908160008201805461199d90614794565b80601f01602080910402602001604051908101604052809291908181526020018280546119c990614794565b8015611a165780601f106119eb57610100808354040283529160200191611a16565b820191906000526020600020905b8154815290600101906020018083116119f957829003601f168201915b505050505081526020016001820154815250508152602001906001019061196a565b50505091525090949350505050565b6111ef338383612d30565b6111ef3383836128a4565b6001600160a01b03841660009081526003602052604090205460ff16611ac55760405162461bcd60e51b815260206004820152601a60248201527f4d75737420686176652070726f66696c6520746f206170706c790000000000006044820152606401610a24565b6000838152600460205260408120549003611af25760405162461bcd60e51b8152600401610a249061493b565b6000838152600460208190526040909120015460ff16611b465760405162461bcd60e51b815260206004820152600f60248201526e2537b11034b9903737ba1037b832b760891b6044820152606401610a24565b6000838152600460205260409020600101546001600160a01b03808616911603611bb25760405162461bcd60e51b815260206004820152601760248201527f43616e6e6f74206170706c7920746f206f776e206a6f620000000000000000006044820152606401610a24565b6000815111611c0f5760405162461bcd60e51b815260206004820152602360248201527f4d7573742070726f706f7365206174206c65617374206f6e65206d696c6573746044820152626f6e6560e81b6064820152608401610a24565b60005b600084815260046020526040902060020154811015611cc457600084815260046020526040902060020180546001600160a01b038716919083908110611c5a57611c5a6147c8565b6000918252602090912001546001600160a01b031603611cbc5760405162461bcd60e51b815260206004820152601b60248201527f416c7265616479206170706c69656420746f2074686973206a6f6200000000006044820152606401610a24565b600101611c12565b50600083815260046020908152604080832060020180546001810182559084528284200180546001600160a01b0319166001600160a01b03891617905585835260069091528120805491611d1783614807565b909155505060008381526006602090815260408083205460058352818420818552909252909120818155600181018590556002810180546001600160a01b0319166001600160a01b03881617905560038101611d738582614867565b5060005b8351811015611ddc5781600401848281518110611d9657611d966147c8565b60209081029190910181015182546001810184556000938452919092208251600290920201908190611dc89082614867565b506020919091015160019182015501611d77565b50856001600160a01b031682867f5753f04758d72c07ffc0a1f59241391a57ce340804ebdda56f510ef21e83ebf087604051611e189190614928565b60405180910390a4505050505050565b6116cc338484845b6000838152600460205260408120549003611e5d5760405162461bcd60e51b8152600401610a249061493b565b6000838152600460208190526040909120015460ff1615611eb65760405162461bcd60e51b8152602060048201526013602482015272129bd8881b5d5cdd081899481cdd185c9d1959606a1b6044820152606401610a24565b60018110158015611ec8575060058111155b611f145760405162461bcd60e51b815260206004820152601e60248201527f526174696e67206d757374206265206265747765656e203120616e64203500006044820152606401610a24565b60008381526007602090815260408083206001600160a01b038616845290915290205415611f845760405162461bcd60e51b815260206004820152601f60248201527f5573657220616c726561647920726174656420666f722074686973206a6f62006044820152606401610a24565b6000838152600460205260408120600101546001600160a01b038681169116148015611fcc57506000848152600460205260409020600b01546001600160a01b038481169116145b15611fd95750600161202a565b6000848152600460205260409020600b01546001600160a01b03868116911614801561202157506000848152600460205260409020600101546001600160a01b038481169116145b1561202a575060015b8061208d5760405162461bcd60e51b815260206004820152602d60248201527f4e6f7420617574686f72697a656420746f20726174652074686973207573657260448201526c103337b9103a3434b9903537b160991b6064820152608401610a24565b60008481526007602090815260408083206001600160a01b03878116808652918452828520879055600884528285208054600181018255908652948490209094018690559051858152909288169187917fabfdb5ca6197e86c57b31cffb45dac27a3eff08d7e825b6f1fb66c2c06fef6d7910160405180910390a45050505050565b600082815260046020526040812054900361213c5760405162461bcd60e51b8152600401610a249061493b565b6000828152600460208190526040909120015460ff16156121955760405162461bcd60e51b8152602060048201526013602482015272129bd8881b5d5cdd081899481cdd185c9d1959606a1b6044820152606401610a24565b6000828152600460205260409020600b01546001600160a01b038481169116146122115760405162461bcd60e51b815260206004820152602760248201527f4f6e6c792073656c6563746564206170706c6963616e742063616e207375626d604482015266697420776f726b60c81b6064820152608401610a24565b60008281526004602052604090206007810154600a9091015411156122735760405162461bcd60e51b8152602060048201526018602482015277105b1b081b5a5b195cdd1bdb995cc818dbdb5c1b195d195960421b6044820152606401610a24565b60008281526004602090815260408220600501805460018101825590835291200161229e8282614867565b50826001600160a01b0316827f1ab2c8b3db130b04659c610d59cd31e68a4d43f1e7b4cdb8e98d9571c9c6bfd68360046000878152602001908152602001600020600a01546040516122f1929190614989565b60405180910390a3505050565b600260205260009081526040902080546001820180546001600160a01b03909216929161232a90614794565b80601f016020809104026020016040519081016040528092919081815260200182805461235690614794565b80156123a35780601f10612378576101008083540402835291602001916123a3565b820191906000526020600020905b81548152906001019060200180831161238657829003601f168201915b50505050600283015460039093015491926001600160a01b031691905084565b600860205281600052604060002081815481106123df57600080fd5b90600052602060002001600091509150505481565b6123fc61395c565b60008281526004602052604081205490036124295760405162461bcd60e51b8152600401610a249061493b565b60008281526004602090815260409182902082516101a0810184528154815260018201546001600160a01b031681840152600282018054855181860281018601875281815292959394938601938301828280156124af57602002820191906000526020600020905b81546001600160a01b03168152600190910190602001808311612491575b505050505081526020016003820180546124c890614794565b80601f01602080910402602001604051908101604052809291908181526020018280546124f490614794565b80156125415780601f1061251657610100808354040283529160200191612541565b820191906000526020600020905b81548152906001019060200180831161252457829003601f168201915b5050509183525050600482015460ff161515602080830191909152600583018054604080518285028101850182528281529401939260009084015b8282101561262857838290600052602060002001805461259b90614794565b80601f01602080910402602001604051908101604052809291908181526020018280546125c790614794565b80156126145780601f106125e957610100808354040283529160200191612614565b820191906000526020600020905b8154815290600101906020018083116125f757829003601f168201915b50505050508152602001906001019061257c565b50505050815260200160068201805480602002602001604051908101604052809291908181526020016000905b82821015612723578382906000526020600020906002020160405180604001604052908160008201805461268890614794565b80601f01602080910402602001604051908101604052809291908181526020018280546126b490614794565b80156127015780601f106126d657610100808354040283529160200191612701565b820191906000526020600020905b8154815290600101906020018083116126e457829003601f168201915b5050505050815260200160018201548152505081526020019060010190612655565b50505050815260200160078201805480602002602001604051908101604052809291908181526020016000905b8282101561162f578382906000526020600020906002020160405180604001604052908160008201805461278390614794565b80601f01602080910402602001604051908101604052809291908181526020018280546127af90614794565b80156127fc5780601f106127d1576101008083540402835291602001916127fc565b820191906000526020600020905b8154815290600101906020018083116127df57829003601f168201915b5050505050815260200160018201548152505081526020019060010190612750565b61282661388a565b60405163ca5eb5e160e01b81526001600160a01b0382811660048301527f0000000000000000000000000000000000000000000000000000000000000000169063ca5eb5e190602401600060405180830381600087803b15801561288957600080fd5b505af115801561289d573d6000803e3d6000fd5b5050505050565b600060015b60095481116128ed5760008181526005602090815260408083208784529091529020548490036128db578091506128ed565b806128e581614807565b9150506128a9565b508060000361293e5760405162461bcd60e51b815260206004820152601a60248201527f4170706c69636174696f6e20646f6573206e6f742065786973740000000000006044820152606401610a24565b60008181526005602090815260408083208684528252808320848452600490925290912060018101546001600160a01b038781169116146129c15760405162461bcd60e51b815260206004820152601c60248201527f4f6e6c79206a6f622067697665722063616e207374617274206a6f62000000006044820152606401610a24565b600481015460ff16612a075760405162461bcd60e51b815260206004820152600f60248201526e2537b11034b9903737ba1037b832b760891b6044820152606401610a24565b60028201546001600160a01b0316612a575760405162461bcd60e51b815260206004820152601360248201527224b73b30b634b21030b8383634b1b0ba34b7b760691b6044820152606401610a24565b6002820154600b820180546001600160a01b0319166001600160a01b03909216919091179055600c810185905560048101805460ff191690556001600a8201558315612b095760005b6004830154811015612b035781600701836004018281548110612ac557612ac56147c8565b6000918252602080832084546001810186559484529220600291820290920192020180612af283826149ab565b506001918201549082015501612aa0565b50612b71565b60005b6006820154811015612b6f5781600701826006018281548110612b3157612b316147c8565b6000918252602080832084546001810186559484529220600291820290920192020180612b5e83826149ab565b506001918201549082015501612b0c565b505b600282015460405185151581526001600160a01b0390911690869085907ffca563cb5e680cd8fe4d8893c20edf9cc5b59f6e8b460ecdad7aa359a786cf6590602001611e18565b6000828152600460205260408120549003612be55760405162461bcd60e51b8152600401610a249061493b565b6000828152600460208190526040909120015460ff1615612c3e5760405162461bcd60e51b8152602060048201526013602482015272129bd8881b5d5cdd081899481cdd185c9d1959606a1b6044820152606401610a24565b60008281526004602052604090206007810154600a9091015410612ca45760405162461bcd60e51b815260206004820181905260248201527f416c6c206d696c6573746f6e657320616c726561647920636f6d706c657465646044820152606401610a24565b6000828152600460205260408120600a01805460019290612cc69084906147f4565b909155505060008281526004602090815260409182902060098101849055600a0154825190815290810183905283917fe60846a8f6e10630b3d17d79f8aa4962e7a3abe024c788262ec30bc55d17b797910160405180910390a2505050565b6111ef33838361210f565b6000828152600460205260408120549003612d5d5760405162461bcd60e51b8152600401610a249061493b565b6000828152600460205260409020600101546001600160a01b03848116911614612dd45760405162461bcd60e51b815260206004820152602260248201527f4f6e6c79206a6f622067697665722063616e2072656c65617365207061796d656044820152611b9d60f21b6064820152608401610a24565b6000828152600460208190526040909120015460ff1615612e2d5760405162461bcd60e51b8152602060048201526013602482015272129bd8881b5d5cdd081899481cdd185c9d1959606a1b6044820152606401610a24565b6000828152600460205260409020600b01546001600160a01b0316612e945760405162461bcd60e51b815260206004820152601560248201527f4e6f206170706c6963616e742073656c656374656400000000000000000000006044820152606401610a24565b60008281526004602052604090206007810154600a909101541115612ef65760405162461bcd60e51b8152602060048201526018602482015277105b1b081b5a5b195cdd1bdb995cc818dbdb5c1b195d195960421b6044820152606401610a24565b60008281526004602052604081206008018054839290612f179084906147f4565b9091555050600b546001600160a01b031615612f9357600b546040516312fca10360e31b815260048101849052602481018390526001600160a01b03909116906397e5081890604401600060405180830381600087803b158015612f7a57600080fd5b505af1158015612f8e573d6000803e3d6000fd5b505050505b600082815260046020908152604091829020600b810154600a909101548351858152928301526001600160a01b03908116929086169185917fd6879b8e4639bf88a9ca9e3122b381ed4a48625f051842c7e6885f72ef00f479910160405180910390a4505050565b61300361388a565b600b80546001600160a01b0319166001600160a01b0392909216919091179055565b6001600160a01b03841660009081526003602052604090205460ff161561308e5760405162461bcd60e51b815260206004820152601660248201527f50726f66696c6520616c726561647920657869737473000000000000000000006044820152606401610a24565b6040518060a00160405280856001600160a01b03168152602001848152602001836001600160a01b0316815260200182815260200160006001600160401b038111156130dc576130dc613d6d565b60405190808252806020026020018201604052801561310f57816020015b60608152602001906001900390816130fa5790505b5090526001600160a01b038581166000908152600260209081526040909120835181546001600160a01b031916931692909217825582015160018201906131569082614867565b5060408201516002820180546001600160a01b0319166001600160a01b0390921691909117905560608201516003820155608082015180516131a29160048401916020909101906139d8565b5050506001600160a01b03841660008181526003602052604090819020805460ff19166001179055517f5874afb0d71e1f97e546fc6b15493e51e5ccbefa591556f8c6a80c8c5151a84f906131fa9086908690614a7f565b60405180910390a250505050565b60056020908152600092835260408084209091529082529020805460018201546002830154600384018054939492936001600160a01b03909216929161324d90614794565b80601f016020809104026020016040519081016040528092919081815260200182805461327990614794565b80156132c65780601f1061329b576101008083540402835291602001916132c6565b820191906000526020600020905b8154815290600101906020018083116132a957829003601f168201915b5050505050905084565b6132d861388a565b6001600160a01b03811661330257604051631e4fbdf760e01b815260006004820152602401610a24565b61330b8161390c565b50565b6116cc33848484613025565b6000602082018035906001908390613332908661455f565b63ffffffff1681526020810191909152604001600020541492915050565b63ffffffff8116600090815260016020526040812054806116e85760405163f6ff4fb760e01b815263ffffffff84166004820152602401610a24565b6000868152600a602052604090205460ff16156133eb5760405162461bcd60e51b815260206004820152601860248201527f4d65737361676520616c726561647920657865637574656400000000000000006044820152606401610a24565b6000868152600a60205260408120805460ff1916600117905561341085870187614aaa565b9050336001600160a01b03168160405161342a9190614ade565b6040519081900381209089907f5a6cc5a65c270a83d2964f1dc0d5b6b345c1aceb3f47ccba69bc75717630512690600090a460408051808201909152600e81526d4352454154455f50524f46494c4560901b6020918201528151908201207fa4c6c5d741cc3b640f2d5a849409552e25d1193d542af6c32b92e821b8923236016134dd5760008080806134bf898b018b614afa565b9450945094509450506134d484848484613025565b50505050613880565b6040805180820190915260088152672827a9aa2fa527a160c11b6020918201528151908201207f0c3ef3e378689bb49c52bf3c6c3b1e2ae10691385a691cf00d777c75763414bd0161354f57600080808061353a898b018b614b8e565b9450945094509450506134d484848484610dae565b60408051808201909152600c81526b20a828262cafaa27afa527a160a11b6020918201528151908201207fc2d7c2b4ddee35e9c9c488d48ea07c3dfd0eb23f7f722aa027797ecd0439c9a7016135c55760008080806135b0898b018b614c3a565b9450945094509450506134d484848484611a5d565b60408051808201909152600981526829aa20a92a2fa527a160b91b6020918201528151908201207f958ad0391719420fc13ce18673c271b3c10483b1ded1d897959e64c0226b06360161363c5760008080613622888a018a614ce8565b935093509350506136348383836128a4565b505050613880565b60408051808201909152600b81526a5355424d49545f574f524b60a81b6020918201528151908201207fa1727a5db69ab5f66aa3130f3696b97337cd1494e442d1fbcca529fa9db6d31b016136ad576000808061369b888a018a614d51565b9350935093505061363483838361210f565b60408051808201909152600f81526e149153115054d157d4105653515395608a1b6020918201528151908201207f5993f055a8b2e0091d9e95bc098f92190a2f1e485b255835f749b7c6cba1e30b016137225760008080613710888a018a614dc8565b93509350935050613634838383612d30565b6040805180820190915260138152724c4f434b5f4e4558545f4d494c4553544f4e4560681b6020918201528151908201207f92cdf19ab628ce526bae7529871630c52245f0976fe1eaa034700baa4b49aa160161379b5760008080613789888a018a614dc8565b93509350935050613634838383612bb8565b6040805180820190915260098152682920aa22afaaa9a2a960b91b6020918201528151908201207f14c18a97b33195108aeef431d93081248a69532971fb84f3b8c1edc0d9d404d10161380e5760008080806137f9898b018b614e26565b9450945094509450506134d484848484611e30565b60408051808201909152600d81526c4144445f504f5254464f4c494f60981b6020918201528151908201207fbf9ce5c45a543f06fb7259612afbf5ddcbf73e06dd8753717dff4f12c5b21989016138805760008061386e87890189614e88565b925092505061387d8282611051565b50505b5050505050505050565b6000546001600160a01b031633146116e35760405163118cdaa760e01b8152336004820152602401610a24565b63ffffffff8216600081815260016020908152604091829020849055815192835282018390527f238399d427b947898edb290f5ff0f9109849b1c3ba196a42e35f00c50a54b98b910160405180910390a15050565b600080546001600160a01b038381166001600160a01b0319831681178455604051919092169283917f8be0079c531659141344cd1fd0a4f28419497f9722a3daafe3b4186f6b6457e09190a35050565b604051806101a001604052806000815260200160006001600160a01b03168152602001606081526020016060815260200160001515815260200160608152602001606081526020016060815260200160008152602001600081526020016000815260200160006001600160a01b03168152602001600081525090565b828054828255906000526020600020908101928215613a1e579160200282015b82811115613a1e5782518290613a0e9082614867565b50916020019190600101906139f8565b50613a2a929150613a2e565b5090565b80821115613a2a576000613a428282613a4b565b50600101613a2e565b508054613a5790614794565b6000825580601f10613a67575050565b601f01602090049060005260206000209081019061330b91905b80821115613a2a5760008155600101613a81565b6001600160a01b038116811461330b57600080fd5b600060208284031215613abc57600080fd5b8135613ac781613a95565b9392505050565b60005b83811015613ae9578181015183820152602001613ad1565b50506000910152565b60008151808452613b0a816020860160208601613ace565b601f01601f19169290920160200192915050565b600082825180855260208501945060208160051b8301016020850160005b83811015613b6e57601f19858403018852613b58838351613af2565b6020988901989093509190910190600101613b3c565b50909695505050505050565b602081526001600160a01b0382511660208201526000602083015160a06040840152613ba960c0840182613af2565b90506001600160a01b036040850151166060840152606084015160808401526080840151601f198483030160a0850152613be38282613b1e565b95945050505050565b600060608284031215613bfe57600080fd5b50919050565b60008083601f840112613c1657600080fd5b5081356001600160401b03811115613c2d57600080fd5b602083019150836020828501011115613c4557600080fd5b9250929050565b600080600080600080600060e0888a031215613c6757600080fd5b613c718989613bec565b96506060880135955060808801356001600160401b03811115613c9357600080fd5b613c9f8a828b01613c04565b90965094505060a0880135613cb381613a95565b925060c08801356001600160401b03811115613cce57600080fd5b613cda8a828b01613c04565b989b979a50959850939692959293505050565b600060208284031215613cff57600080fd5b5035919050565b8981526001600160a01b038916602082015261012060408201526000613d3061012083018a613af2565b971515606083015250608081019590955260a085019390935260c08401919091526001600160a01b031660e0830152610100909101529392505050565b634e487b7160e01b600052604160045260246000fd5b604080519081016001600160401b0381118282101715613da557613da5613d6d565b60405290565b604051601f8201601f191681016001600160401b0381118282101715613dd357613dd3613d6d565b604052919050565b600082601f830112613dec57600080fd5b81356001600160401b03811115613e0557613e05613d6d565b613e18601f8201601f1916602001613dab565b818152846020838601011115613e2d57600080fd5b816020850160208301376000918101602001919091529392505050565b600082601f830112613e5b57600080fd5b81356001600160401b03811115613e7457613e74613d6d565b8060051b613e8460208201613dab565b91825260208185018101929081019086841115613ea057600080fd5b6020860192505b83831015613f2f5782356001600160401b03811115613ec557600080fd5b86016040818903601f19011215613edb57600080fd5b613ee3613d83565b60208201356001600160401b03811115613efc57600080fd5b613f0b8a602083860101613ddb565b82525060409190910135602080830191909152908352928301929190910190613ea7565b9695505050505050565b60008060008060808587031215613f4f57600080fd5b8435613f5a81613a95565b935060208501356001600160401b03811115613f7557600080fd5b613f8187828801613ddb565b93505060408501356001600160401b03811115613f9d57600080fd5b613fa987828801613e4a565b949793965093946060013593505050565b60008060408385031215613fcd57600080fd5b8235613fd881613a95565b915060208301356001600160401b03811115613ff357600080fd5b613fff85828601613ddb565b9150509250929050565b6000806040838503121561401c57600080fd5b50508035926020909101359150565b803563ffffffff8116811461403f57600080fd5b919050565b6000806040838503121561405757600080fd5b6140608361402b565b946020939093013593505050565b600081518084526020840193506020830160005b828110156140a95781516001600160a01b0316865260209586019590910190600101614082565b5093949350505050565b600082825180855260208501945060208160051b8301016020850160005b83811015613b6e57601f1985840301885281518051604085526140f76040860182613af2565b60209283015195830195909552509788019791909101906001016140d1565b60208152815160208201526000602083015161413d60408401826001600160a01b03169052565b5060408301516101a060608401526141596101c084018261406e565b90506060840151601f198483030160808501526141768282613af2565b915050608084015161418c60a085018215159052565b5060a0840151838203601f190160c08501526141a88282613b1e565b91505060c0840151601f198483030160e08501526141c682826140b3565b91505060e0840151601f19848303016101008501526141e582826140b3565b9150506101008401516101208401526101208401516101408401526101408401516101608401526101608401516142286101808501826001600160a01b03169052565b506101808401516101a08401528091505092915050565b60008060006060848603121561425457600080fd5b8335925060208401356001600160401b0381111561427157600080fd5b61427d86828701613ddb565b92505060408401356001600160401b0381111561429957600080fd5b6142a586828701613e4a565b9150509250925092565b600080604083850312156142c257600080fd5b82356001600160401b038111156142d857600080fd5b6142e485828601613ddb565b92505060208301356001600160401b0381111561430057600080fd5b613fff85828601613e4a565b60008060008060a0858703121561432257600080fd5b61432c8686613bec565b935060608501356001600160401b0381111561434757600080fd5b61435387828801613c04565b909450925050608085013561436781613a95565b939692955090935050565b6020815281516020820152602082015160408201526001600160a01b0360408301511660608201526000606083015160a060808401526143b560c0840182613af2565b90506080840151601f198483030160a0850152613be382826140b3565b8035801515811461403f57600080fd5b600080604083850312156143f557600080fd5b82359150614405602084016143d2565b90509250929050565b6000806000806080858703121561442457600080fd5b843561442f81613a95565b93506020850135925060408501356001600160401b0381111561445157600080fd5b61445d87828801613ddb565b92505060608501356001600160401b0381111561447957600080fd5b61448587828801613e4a565b91505092959194509250565b6000806000606084860312156144a657600080fd5b8335925060208401356144b881613a95565b929592945050506040919091013590565b600080600080608085870312156144df57600080fd5b84356144ea81613a95565b935060208501359250604085013561450181613a95565b9396929550929360600135925050565b60008060006060848603121561452657600080fd5b833561453181613a95565b92506020840135915060408401356001600160401b0381111561455357600080fd5b6142a586828701613ddb565b60006020828403121561457157600080fd5b613ac78261402b565b6000806040838503121561458d57600080fd5b82359150602083013561459f81613a95565b809150509250929050565b6001600160a01b03851681526080602082015260006145cc6080830186613af2565b6001600160a01b03949094166040830152506060015292915050565b600080604083850312156145fb57600080fd5b823561406081613a95565b60008060006060848603121561461b57600080fd5b833561462681613a95565b92506020840135915061463b604085016143d2565b90509250925092565b60008060006060848603121561465957600080fd5b833561466481613a95565b95602085013595506040909401359392505050565b6000806040838503121561468c57600080fd5b8235915060208301356001600160401b03811115613ff357600080fd5b600080600080608085870312156146bf57600080fd5b84356146ca81613a95565b935060208501356001600160401b038111156146e557600080fd5b6146f187828801613ddb565b935050604085013561450181613a95565b8481528360208201526001600160a01b0383166040820152608060608201526000613f2f6080830184613af2565b60008060006060848603121561474557600080fd5b83356001600160401b0381111561475b57600080fd5b61476786828701613ddb565b93505060208401356144b881613a95565b60006060828403121561478a57600080fd5b613ac78383613bec565b600181811c908216806147a857607f821691505b602082108103613bfe57634e487b7160e01b600052602260045260246000fd5b634e487b7160e01b600052603260045260246000fd5b634e487b7160e01b600052601160045260246000fd5b808201808211156116e8576116e86147de565b600060018201614819576148196147de565b5060010190565b601f8211156116cc57806000526020600020601f840160051c810160208510156148475750805b601f840160051c820191505b8181101561289d5760008155600101614853565b81516001600160401b0381111561488057614880613d6d565b6148948161488e8454614794565b84614820565b6020601f8211600181146148cb57600083156148b05750848201515b600184901b600019600386901b1c198216175b85555061289d565b600084815260208120601f198516915b828110156148fb57878501518255602094850194600190920191016148db565b50848210156149195786840151600019600387901b60f8161c191681555b50505050600190811b01905550565b602081526000613ac76020830184613af2565b602080825260129082015271129bd888191bd95cc81b9bdd08195e1a5cdd60721b604082015260600190565b60008261498457634e487b7160e01b600052601260045260246000fd5b500490565b60408152600061499c6040830185613af2565b90508260208301529392505050565b8181036149b6575050565b6149c08254614794565b6001600160401b038111156149d7576149d7613d6d565b6149e58161488e8454614794565b6000601f821160018114614a1757600083156148b0575081850154600184901b600019600386901b1c198216176148c3565b600085815260209020601f19841690600086815260209020845b83811015614a515782860154825560019586019590910190602001614a31565b5085831015614a6f5781850154600019600388901b60f8161c191681555b5050505050600190811b01905550565b604081526000614a926040830185613af2565b90506001600160a01b03831660208301529392505050565b600060208284031215614abc57600080fd5b81356001600160401b03811115614ad257600080fd5b6117b984828501613ddb565b60008251614af0818460208701613ace565b9190910192915050565b600080600080600060a08688031215614b1257600080fd5b85356001600160401b03811115614b2857600080fd5b614b3488828901613ddb565b9550506020860135614b4581613a95565b935060408601356001600160401b03811115614b6057600080fd5b614b6c88828901613ddb565b9350506060860135614b7d81613a95565b949793965091946080013592915050565b600080600080600060a08688031215614ba657600080fd5b85356001600160401b03811115614bbc57600080fd5b614bc888828901613ddb565b9550506020860135614bd981613a95565b935060408601356001600160401b03811115614bf457600080fd5b614c0088828901613ddb565b93505060608601356001600160401b03811115614c1c57600080fd5b614c2888828901613e4a565b95989497509295608001359392505050565b600080600080600060a08688031215614c5257600080fd5b85356001600160401b03811115614c6857600080fd5b614c7488828901613ddb565b9550506020860135614c8581613a95565b93506040860135925060608601356001600160401b03811115614ca757600080fd5b614cb388828901613ddb565b92505060808601356001600160401b03811115614ccf57600080fd5b614cdb88828901613e4a565b9150509295509295909350565b60008060008060808587031215614cfe57600080fd5b84356001600160401b03811115614d1457600080fd5b614d2087828801613ddb565b9450506020850135614d3181613a95565b925060408501359150614d46606086016143d2565b905092959194509250565b60008060008060808587031215614d6757600080fd5b84356001600160401b03811115614d7d57600080fd5b614d8987828801613ddb565b9450506020850135614d9a81613a95565b92506040850135915060608501356001600160401b03811115614dbc57600080fd5b61448587828801613ddb565b60008060008060808587031215614dde57600080fd5b84356001600160401b03811115614df457600080fd5b614e0087828801613ddb565b9450506020850135614e1181613a95565b93969395505050506040820135916060013590565b600080600080600060a08688031215614e3e57600080fd5b85356001600160401b03811115614e5457600080fd5b614e6088828901613ddb565b9550506020860135614e7181613a95565b9350604086013592506060860135614b7d81613a95565b600080600060608486031215614e9d57600080fd5b83356001600160401b03811115614eb357600080fd5b614ebf86828701613ddb565b9350506020840135614ed081613a95565b915060408401356001600160401b0381111561455357600080fdfea26469706673582212205931522cc3251d143aeb2e99f811f2ff704b3b33511363709947bb7802b4c1bb64736f6c634300081c0033",
			"opcodes": "PUSH1 0xA0 PUSH1 0x40 MSTORE CALLVALUE DUP1 ISZERO PUSH2 0x10 JUMPI PUSH1 0x0 DUP1 REVERT JUMPDEST POP PUSH1 0x40 MLOAD PUSH2 0x50EC CODESIZE SUB DUP1 PUSH2 0x50EC DUP4 CODECOPY DUP2 ADD PUSH1 0x40 DUP2 SWAP1 MSTORE PUSH2 0x2F SWAP2 PUSH2 0x16F JUMP JUMPDEST DUP2 DUP2 DUP2 DUP2 DUP1 PUSH1 0x1 PUSH1 0x1 PUSH1 0xA0 SHL SUB DUP2 AND PUSH2 0x62 JUMPI PUSH1 0x40 MLOAD PUSH4 0x1E4FBDF7 PUSH1 0xE0 SHL DUP2 MSTORE PUSH1 0x0 PUSH1 0x4 DUP3 ADD MSTORE PUSH1 0x24 ADD PUSH1 0x40 MLOAD DUP1 SWAP2 SUB SWAP1 REVERT JUMPDEST PUSH2 0x6B DUP2 PUSH2 0x103 JUMP JUMPDEST POP PUSH1 0x1 PUSH1 0x1 PUSH1 0xA0 SHL SUB DUP1 DUP4 AND PUSH1 0x80 MSTORE DUP2 AND PUSH2 0x99 JUMPI PUSH1 0x40 MLOAD PUSH4 0x2D618D81 PUSH1 0xE2 SHL DUP2 MSTORE PUSH1 0x4 ADD PUSH1 0x40 MLOAD DUP1 SWAP2 SUB SWAP1 REVERT JUMPDEST PUSH1 0x80 MLOAD PUSH1 0x40 MLOAD PUSH4 0xCA5EB5E1 PUSH1 0xE0 SHL DUP2 MSTORE PUSH1 0x1 PUSH1 0x1 PUSH1 0xA0 SHL SUB DUP4 DUP2 AND PUSH1 0x4 DUP4 ADD MSTORE SWAP1 SWAP2 AND SWAP1 PUSH4 0xCA5EB5E1 SWAP1 PUSH1 0x24 ADD PUSH1 0x0 PUSH1 0x40 MLOAD DUP1 DUP4 SUB DUP2 PUSH1 0x0 DUP8 DUP1 EXTCODESIZE ISZERO DUP1 ISZERO PUSH2 0xE0 JUMPI PUSH1 0x0 DUP1 REVERT JUMPDEST POP GAS CALL ISZERO DUP1 ISZERO PUSH2 0xF4 JUMPI RETURNDATASIZE PUSH1 0x0 DUP1 RETURNDATACOPY RETURNDATASIZE PUSH1 0x0 REVERT JUMPDEST POP POP POP POP POP POP POP POP POP POP PUSH2 0x1A2 JUMP JUMPDEST PUSH1 0x0 DUP1 SLOAD PUSH1 0x1 PUSH1 0x1 PUSH1 0xA0 SHL SUB DUP4 DUP2 AND PUSH1 0x1 PUSH1 0x1 PUSH1 0xA0 SHL SUB NOT DUP4 AND DUP2 OR DUP5 SSTORE PUSH1 0x40 MLOAD SWAP2 SWAP1 SWAP3 AND SWAP3 DUP4 SWAP2 PUSH32 0x8BE0079C531659141344CD1FD0A4F28419497F9722A3DAAFE3B4186F6B6457E0 SWAP2 SWAP1 LOG3 POP POP JUMP JUMPDEST DUP1 MLOAD PUSH1 0x1 PUSH1 0x1 PUSH1 0xA0 SHL SUB DUP2 AND DUP2 EQ PUSH2 0x16A JUMPI PUSH1 0x0 DUP1 REVERT JUMPDEST SWAP2 SWAP1 POP JUMP JUMPDEST PUSH1 0x0 DUP1 PUSH1 0x40 DUP4 DUP6 SUB SLT ISZERO PUSH2 0x182 JUMPI PUSH1 0x0 DUP1 REVERT JUMPDEST PUSH2 0x18B DUP4 PUSH2 0x153 JUMP JUMPDEST SWAP2 POP PUSH2 0x199 PUSH1 0x20 DUP5 ADD PUSH2 0x153 JUMP JUMPDEST SWAP1 POP SWAP3 POP SWAP3 SWAP1 POP JUMP JUMPDEST PUSH1 0x80 MLOAD PUSH2 0x4F21 PUSH2 0x1CB PUSH1 0x0 CODECOPY PUSH1 0x0 DUP2 DUP2 PUSH2 0x4EF ADD MSTORE DUP2 DUP2 PUSH2 0xC0C ADD MSTORE PUSH2 0x2845 ADD MSTORE PUSH2 0x4F21 PUSH1 0x0 RETURN INVALID PUSH1 0x80 PUSH1 0x40 MSTORE PUSH1 0x4 CALLDATASIZE LT PUSH2 0x2DD JUMPI PUSH1 0x0 CALLDATALOAD PUSH1 0xE0 SHR DUP1 PUSH4 0x9D89A1DB GT PUSH2 0x17F JUMPI DUP1 PUSH4 0xCD2ABD66 GT PUSH2 0xE1 JUMPI DUP1 PUSH4 0xE1897767 GT PUSH2 0x8A JUMPI DUP1 PUSH4 0xF2FDE38B GT PUSH2 0x64 JUMPI DUP1 PUSH4 0xF2FDE38B EQ PUSH2 0x93D JUMPI DUP1 PUSH4 0xF4F824BB EQ PUSH2 0x95D JUMPI DUP1 PUSH4 0xFF7BD03D EQ PUSH2 0x97D JUMPI PUSH1 0x0 DUP1 REVERT JUMPDEST DUP1 PUSH4 0xE1897767 EQ PUSH2 0x8C0 JUMPI DUP1 PUSH4 0xE5DEEF6D EQ PUSH2 0x8ED JUMPI DUP1 PUSH4 0xEAD39A11 EQ PUSH2 0x90D JUMPI PUSH1 0x0 DUP1 REVERT JUMPDEST DUP1 PUSH4 0xDA8ACCF9 GT PUSH2 0xBB JUMPI DUP1 PUSH4 0xDA8ACCF9 EQ PUSH2 0x860 JUMPI DUP1 PUSH4 0xDC404AFF EQ PUSH2 0x880 JUMPI DUP1 PUSH4 0xDFA0DFA5 EQ PUSH2 0x8A0 JUMPI PUSH1 0x0 DUP1 REVERT JUMPDEST DUP1 PUSH4 0xCD2ABD66 EQ PUSH2 0x7F0 JUMPI DUP1 PUSH4 0xCED25488 EQ PUSH2 0x820 JUMPI DUP1 PUSH4 0xD9F76F62 EQ PUSH2 0x840 JUMPI PUSH1 0x0 DUP1 REVERT JUMPDEST DUP1 PUSH4 0xBB0B6A53 GT PUSH2 0x143 JUMPI DUP1 PUSH4 0xBE001F6F GT PUSH2 0x11D JUMPI DUP1 PUSH4 0xBE001F6F EQ PUSH2 0x790 JUMPI DUP1 PUSH4 0xBF22C457 EQ PUSH2 0x7B0 JUMPI DUP1 PUSH4 0xCA5EB5E1 EQ PUSH2 0x7D0 JUMPI PUSH1 0x0 DUP1 REVERT JUMPDEST DUP1 PUSH4 0xBB0B6A53 EQ PUSH2 0x6FB JUMPI DUP1 PUSH4 0xBBBACDFC EQ PUSH2 0x728 JUMPI DUP1 PUSH4 0xBBE15627 EQ PUSH2 0x760 JUMPI PUSH1 0x0 DUP1 REVERT JUMPDEST DUP1 PUSH4 0x9D89A1DB EQ PUSH2 0x64B JUMPI DUP1 PUSH4 0xA787C80B EQ PUSH2 0x66B JUMPI DUP1 PUSH4 0xA83B083C EQ PUSH2 0x69B JUMPI DUP1 PUSH4 0xA89C0949 EQ PUSH2 0x6BB JUMPI DUP1 PUSH4 0xB7A93083 EQ PUSH2 0x6DB JUMPI PUSH1 0x0 DUP1 REVERT JUMPDEST DUP1 PUSH4 0x50355D76 GT PUSH2 0x243 JUMPI DUP1 PUSH4 0x80FC9C0E GT PUSH2 0x1EC JUMPI DUP1 PUSH4 0x8DA5CB5B GT PUSH2 0x1C6 JUMPI DUP1 PUSH4 0x8DA5CB5B EQ PUSH2 0x5ED JUMPI DUP1 PUSH4 0x97E99A80 EQ PUSH2 0x60B JUMPI DUP1 PUSH4 0x992A80E4 EQ PUSH2 0x62B JUMPI PUSH1 0x0 DUP1 REVERT JUMPDEST DUP1 PUSH4 0x80FC9C0E EQ PUSH2 0x571 JUMPI DUP1 PUSH4 0x82413EAC EQ PUSH2 0x591 JUMPI DUP1 PUSH4 0x832A05B7 EQ PUSH2 0x5C0 JUMPI PUSH1 0x0 DUP1 REVERT JUMPDEST DUP1 PUSH4 0x715018A6 GT PUSH2 0x21D JUMPI DUP1 PUSH4 0x715018A6 EQ PUSH2 0x511 JUMPI DUP1 PUSH4 0x7D25A05E EQ PUSH2 0x526 JUMPI DUP1 PUSH4 0x80CD2580 EQ PUSH2 0x55E JUMPI PUSH1 0x0 DUP1 REVERT JUMPDEST DUP1 PUSH4 0x50355D76 EQ PUSH2 0x499 JUMPI DUP1 PUSH4 0x5ABB964D EQ PUSH2 0x4BD JUMPI DUP1 PUSH4 0x5E280F11 EQ PUSH2 0x4DD JUMPI PUSH1 0x0 DUP1 REVERT JUMPDEST DUP1 PUSH4 0x248506C3 GT PUSH2 0x2A5 JUMPI DUP1 PUSH4 0x3400288B GT PUSH2 0x27F JUMPI DUP1 PUSH4 0x3400288B EQ PUSH2 0x41C JUMPI DUP1 PUSH4 0x4CAC35C6 EQ PUSH2 0x43C JUMPI DUP1 PUSH4 0x4D6861A6 EQ PUSH2 0x469 JUMPI PUSH1 0x0 DUP1 REVERT JUMPDEST DUP1 PUSH4 0x248506C3 EQ PUSH2 0x3BC JUMPI DUP1 PUSH4 0x2C317EB2 EQ PUSH2 0x3DC JUMPI DUP1 PUSH4 0x315E6542 EQ PUSH2 0x3FC JUMPI PUSH1 0x0 DUP1 REVERT JUMPDEST DUP1 PUSH4 0xF53A470 EQ PUSH2 0x2E2 JUMPI DUP1 PUSH4 0x13137D65 EQ PUSH2 0x318 JUMPI DUP1 PUSH4 0x17442B70 EQ PUSH2 0x32D JUMPI DUP1 PUSH4 0x180AEDF3 EQ PUSH2 0x34F JUMPI DUP1 PUSH4 0x220CCE97 EQ PUSH2 0x384 JUMPI JUMPDEST PUSH1 0x0 DUP1 REVERT JUMPDEST CALLVALUE DUP1 ISZERO PUSH2 0x2EE JUMPI PUSH1 0x0 DUP1 REVERT JUMPDEST POP PUSH2 0x302 PUSH2 0x2FD CALLDATASIZE PUSH1 0x4 PUSH2 0x3AAA JUMP JUMPDEST PUSH2 0x99D JUMP JUMPDEST PUSH1 0x40 MLOAD PUSH2 0x30F SWAP2 SWAP1 PUSH2 0x3B7A JUMP JUMPDEST PUSH1 0x40 MLOAD DUP1 SWAP2 SUB SWAP1 RETURN JUMPDEST PUSH2 0x32B PUSH2 0x326 CALLDATASIZE PUSH1 0x4 PUSH2 0x3C4C JUMP JUMPDEST PUSH2 0xC0A JUMP JUMPDEST STOP JUMPDEST CALLVALUE DUP1 ISZERO PUSH2 0x339 JUMPI PUSH1 0x0 DUP1 REVERT JUMPDEST POP PUSH1 0x40 DUP1 MLOAD PUSH1 0x1 DUP2 MSTORE PUSH1 0x2 PUSH1 0x20 DUP3 ADD MSTORE ADD PUSH2 0x30F JUMP JUMPDEST CALLVALUE DUP1 ISZERO PUSH2 0x35B JUMPI PUSH1 0x0 DUP1 REVERT JUMPDEST POP PUSH2 0x36F PUSH2 0x36A CALLDATASIZE PUSH1 0x4 PUSH2 0x3CED JUMP JUMPDEST PUSH2 0xCC5 JUMP JUMPDEST PUSH1 0x40 MLOAD PUSH2 0x30F SWAP10 SWAP9 SWAP8 SWAP7 SWAP6 SWAP5 SWAP4 SWAP3 SWAP2 SWAP1 PUSH2 0x3D06 JUMP JUMPDEST CALLVALUE DUP1 ISZERO PUSH2 0x390 JUMPI PUSH1 0x0 DUP1 REVERT JUMPDEST POP PUSH1 0xB SLOAD PUSH2 0x3A4 SWAP1 PUSH1 0x1 PUSH1 0x1 PUSH1 0xA0 SHL SUB AND DUP2 JUMP JUMPDEST PUSH1 0x40 MLOAD PUSH1 0x1 PUSH1 0x1 PUSH1 0xA0 SHL SUB SWAP1 SWAP2 AND DUP2 MSTORE PUSH1 0x20 ADD PUSH2 0x30F JUMP JUMPDEST CALLVALUE DUP1 ISZERO PUSH2 0x3C8 JUMPI PUSH1 0x0 DUP1 REVERT JUMPDEST POP PUSH2 0x32B PUSH2 0x3D7 CALLDATASIZE PUSH1 0x4 PUSH2 0x3F39 JUMP JUMPDEST PUSH2 0xDAE JUMP JUMPDEST CALLVALUE DUP1 ISZERO PUSH2 0x3E8 JUMPI PUSH1 0x0 DUP1 REVERT JUMPDEST POP PUSH2 0x32B PUSH2 0x3F7 CALLDATASIZE PUSH1 0x4 PUSH2 0x3FBA JUMP JUMPDEST PUSH2 0x1051 JUMP JUMPDEST CALLVALUE DUP1 ISZERO PUSH2 0x408 JUMPI PUSH1 0x0 DUP1 REVERT JUMPDEST POP PUSH2 0x32B PUSH2 0x417 CALLDATASIZE PUSH1 0x4 PUSH2 0x4009 JUMP JUMPDEST PUSH2 0x11E4 JUMP JUMPDEST CALLVALUE DUP1 ISZERO PUSH2 0x428 JUMPI PUSH1 0x0 DUP1 REVERT JUMPDEST POP PUSH2 0x32B PUSH2 0x437 CALLDATASIZE PUSH1 0x4 PUSH2 0x4044 JUMP JUMPDEST PUSH2 0x11F3 JUMP JUMPDEST CALLVALUE DUP1 ISZERO PUSH2 0x448 JUMPI PUSH1 0x0 DUP1 REVERT JUMPDEST POP PUSH2 0x45C PUSH2 0x457 CALLDATASIZE PUSH1 0x4 PUSH2 0x3CED JUMP JUMPDEST PUSH2 0x1205 JUMP JUMPDEST PUSH1 0x40 MLOAD PUSH2 0x30F SWAP2 SWAP1 PUSH2 0x4116 JUMP JUMPDEST CALLVALUE DUP1 ISZERO PUSH2 0x475 JUMPI PUSH1 0x0 DUP1 REVERT JUMPDEST POP PUSH2 0x489 PUSH2 0x484 CALLDATASIZE PUSH1 0x4 PUSH2 0x3CED JUMP JUMPDEST PUSH2 0x1679 JUMP JUMPDEST PUSH1 0x40 MLOAD SWAP1 ISZERO ISZERO DUP2 MSTORE PUSH1 0x20 ADD PUSH2 0x30F JUMP JUMPDEST CALLVALUE DUP1 ISZERO PUSH2 0x4A5 JUMPI PUSH1 0x0 DUP1 REVERT JUMPDEST POP PUSH2 0x4AF PUSH1 0x9 SLOAD DUP2 JUMP JUMPDEST PUSH1 0x40 MLOAD SWAP1 DUP2 MSTORE PUSH1 0x20 ADD PUSH2 0x30F JUMP JUMPDEST CALLVALUE DUP1 ISZERO PUSH2 0x4C9 JUMPI PUSH1 0x0 DUP1 REVERT JUMPDEST POP PUSH2 0x32B PUSH2 0x4D8 CALLDATASIZE PUSH1 0x4 PUSH2 0x423F JUMP JUMPDEST PUSH2 0x16C0 JUMP JUMPDEST CALLVALUE DUP1 ISZERO PUSH2 0x4E9 JUMPI PUSH1 0x0 DUP1 REVERT JUMPDEST POP PUSH2 0x3A4 PUSH32 0x0 DUP2 JUMP JUMPDEST CALLVALUE DUP1 ISZERO PUSH2 0x51D JUMPI PUSH1 0x0 DUP1 REVERT JUMPDEST POP PUSH2 0x32B PUSH2 0x16D1 JUMP JUMPDEST CALLVALUE DUP1 ISZERO PUSH2 0x532 JUMPI PUSH1 0x0 DUP1 REVERT JUMPDEST POP PUSH2 0x546 PUSH2 0x541 CALLDATASIZE PUSH1 0x4 PUSH2 0x4044 JUMP JUMPDEST PUSH2 0x16E5 JUMP JUMPDEST PUSH1 0x40 MLOAD PUSH1 0x1 PUSH1 0x1 PUSH1 0x40 SHL SUB SWAP1 SWAP2 AND DUP2 MSTORE PUSH1 0x20 ADD PUSH2 0x30F JUMP JUMPDEST PUSH2 0x32B PUSH2 0x56C CALLDATASIZE PUSH1 0x4 PUSH2 0x42AF JUMP JUMPDEST PUSH2 0x16EE JUMP JUMPDEST CALLVALUE DUP1 ISZERO PUSH2 0x57D JUMPI PUSH1 0x0 DUP1 REVERT JUMPDEST POP PUSH2 0x4AF PUSH2 0x58C CALLDATASIZE PUSH1 0x4 PUSH2 0x3AAA JUMP JUMPDEST PUSH2 0x16FA JUMP JUMPDEST CALLVALUE DUP1 ISZERO PUSH2 0x59D JUMPI PUSH1 0x0 DUP1 REVERT JUMPDEST POP PUSH2 0x489 PUSH2 0x5AC CALLDATASIZE PUSH1 0x4 PUSH2 0x430C JUMP JUMPDEST PUSH1 0x1 PUSH1 0x1 PUSH1 0xA0 SHL SUB DUP2 AND ADDRESS EQ SWAP5 SWAP4 POP POP POP POP JUMP JUMPDEST CALLVALUE DUP1 ISZERO PUSH2 0x5CC JUMPI PUSH1 0x0 DUP1 REVERT JUMPDEST POP PUSH2 0x5E0 PUSH2 0x5DB CALLDATASIZE PUSH1 0x4 PUSH2 0x4009 JUMP JUMPDEST PUSH2 0x17C1 JUMP JUMPDEST PUSH1 0x40 MLOAD PUSH2 0x30F SWAP2 SWAP1 PUSH2 0x4372 JUMP JUMPDEST CALLVALUE DUP1 ISZERO PUSH2 0x5F9 JUMPI PUSH1 0x0 DUP1 REVERT JUMPDEST POP PUSH1 0x0 SLOAD PUSH1 0x1 PUSH1 0x1 PUSH1 0xA0 SHL SUB AND PUSH2 0x3A4 JUMP JUMPDEST CALLVALUE DUP1 ISZERO PUSH2 0x617 JUMPI PUSH1 0x0 DUP1 REVERT JUMPDEST POP PUSH2 0x32B PUSH2 0x626 CALLDATASIZE PUSH1 0x4 PUSH2 0x4009 JUMP JUMPDEST PUSH2 0x1A47 JUMP JUMPDEST CALLVALUE DUP1 ISZERO PUSH2 0x637 JUMPI PUSH1 0x0 DUP1 REVERT JUMPDEST POP PUSH2 0x32B PUSH2 0x646 CALLDATASIZE PUSH1 0x4 PUSH2 0x43E2 JUMP JUMPDEST PUSH2 0x1A52 JUMP JUMPDEST CALLVALUE DUP1 ISZERO PUSH2 0x657 JUMPI PUSH1 0x0 DUP1 REVERT JUMPDEST POP PUSH2 0x32B PUSH2 0x666 CALLDATASIZE PUSH1 0x4 PUSH2 0x440E JUMP JUMPDEST PUSH2 0x1A5D JUMP JUMPDEST CALLVALUE DUP1 ISZERO PUSH2 0x677 JUMPI PUSH1 0x0 DUP1 REVERT JUMPDEST POP PUSH2 0x489 PUSH2 0x686 CALLDATASIZE PUSH1 0x4 PUSH2 0x3AAA JUMP JUMPDEST PUSH1 0x3 PUSH1 0x20 MSTORE PUSH1 0x0 SWAP1 DUP2 MSTORE PUSH1 0x40 SWAP1 KECCAK256 SLOAD PUSH1 0xFF AND DUP2 JUMP JUMPDEST CALLVALUE DUP1 ISZERO PUSH2 0x6A7 JUMPI PUSH1 0x0 DUP1 REVERT JUMPDEST POP PUSH2 0x32B PUSH2 0x6B6 CALLDATASIZE PUSH1 0x4 PUSH2 0x4491 JUMP JUMPDEST PUSH2 0x1E28 JUMP JUMPDEST CALLVALUE DUP1 ISZERO PUSH2 0x6C7 JUMPI PUSH1 0x0 DUP1 REVERT JUMPDEST POP PUSH2 0x32B PUSH2 0x6D6 CALLDATASIZE PUSH1 0x4 PUSH2 0x44C9 JUMP JUMPDEST PUSH2 0x1E30 JUMP JUMPDEST CALLVALUE DUP1 ISZERO PUSH2 0x6E7 JUMPI PUSH1 0x0 DUP1 REVERT JUMPDEST POP PUSH2 0x32B PUSH2 0x6F6 CALLDATASIZE PUSH1 0x4 PUSH2 0x4511 JUMP JUMPDEST PUSH2 0x210F JUMP JUMPDEST CALLVALUE DUP1 ISZERO PUSH2 0x707 JUMPI PUSH1 0x0 DUP1 REVERT JUMPDEST POP PUSH2 0x4AF PUSH2 0x716 CALLDATASIZE PUSH1 0x4 PUSH2 0x455F JUMP JUMPDEST PUSH1 0x1 PUSH1 0x20 MSTORE PUSH1 0x0 SWAP1 DUP2 MSTORE PUSH1 0x40 SWAP1 KECCAK256 SLOAD DUP2 JUMP JUMPDEST CALLVALUE DUP1 ISZERO PUSH2 0x734 JUMPI PUSH1 0x0 DUP1 REVERT JUMPDEST POP PUSH2 0x4AF PUSH2 0x743 CALLDATASIZE PUSH1 0x4 PUSH2 0x457A JUMP JUMPDEST PUSH1 0x7 PUSH1 0x20 SWAP1 DUP2 MSTORE PUSH1 0x0 SWAP3 DUP4 MSTORE PUSH1 0x40 DUP1 DUP5 KECCAK256 SWAP1 SWAP2 MSTORE SWAP1 DUP3 MSTORE SWAP1 KECCAK256 SLOAD DUP2 JUMP JUMPDEST CALLVALUE DUP1 ISZERO PUSH2 0x76C JUMPI PUSH1 0x0 DUP1 REVERT JUMPDEST POP PUSH2 0x780 PUSH2 0x77B CALLDATASIZE PUSH1 0x4 PUSH2 0x3AAA JUMP JUMPDEST PUSH2 0x22FE JUMP JUMPDEST PUSH1 0x40 MLOAD PUSH2 0x30F SWAP5 SWAP4 SWAP3 SWAP2 SWAP1 PUSH2 0x45AA JUMP JUMPDEST CALLVALUE DUP1 ISZERO PUSH2 0x79C JUMPI PUSH1 0x0 DUP1 REVERT JUMPDEST POP PUSH2 0x4AF PUSH2 0x7AB CALLDATASIZE PUSH1 0x4 PUSH2 0x45E8 JUMP JUMPDEST PUSH2 0x23C3 JUMP JUMPDEST CALLVALUE DUP1 ISZERO PUSH2 0x7BC JUMPI PUSH1 0x0 DUP1 REVERT JUMPDEST POP PUSH2 0x45C PUSH2 0x7CB CALLDATASIZE PUSH1 0x4 PUSH2 0x3CED JUMP JUMPDEST PUSH2 0x23F4 JUMP JUMPDEST CALLVALUE DUP1 ISZERO PUSH2 0x7DC JUMPI PUSH1 0x0 DUP1 REVERT JUMPDEST POP PUSH2 0x32B PUSH2 0x7EB CALLDATASIZE PUSH1 0x4 PUSH2 0x3AAA JUMP JUMPDEST PUSH2 0x281E JUMP JUMPDEST CALLVALUE DUP1 ISZERO PUSH2 0x7FC JUMPI PUSH1 0x0 DUP1 REVERT JUMPDEST POP PUSH2 0x489 PUSH2 0x80B CALLDATASIZE PUSH1 0x4 PUSH2 0x3CED JUMP JUMPDEST PUSH1 0xA PUSH1 0x20 MSTORE PUSH1 0x0 SWAP1 DUP2 MSTORE PUSH1 0x40 SWAP1 KECCAK256 SLOAD PUSH1 0xFF AND DUP2 JUMP JUMPDEST CALLVALUE DUP1 ISZERO PUSH2 0x82C JUMPI PUSH1 0x0 DUP1 REVERT JUMPDEST POP PUSH2 0x32B PUSH2 0x83B CALLDATASIZE PUSH1 0x4 PUSH2 0x4606 JUMP JUMPDEST PUSH2 0x28A4 JUMP JUMPDEST CALLVALUE DUP1 ISZERO PUSH2 0x84C JUMPI PUSH1 0x0 DUP1 REVERT JUMPDEST POP PUSH2 0x32B PUSH2 0x85B CALLDATASIZE PUSH1 0x4 PUSH2 0x4644 JUMP JUMPDEST PUSH2 0x2BB8 JUMP JUMPDEST CALLVALUE DUP1 ISZERO PUSH2 0x86C JUMPI PUSH1 0x0 DUP1 REVERT JUMPDEST POP PUSH2 0x32B PUSH2 0x87B CALLDATASIZE PUSH1 0x4 PUSH2 0x4679 JUMP JUMPDEST PUSH2 0x2D25 JUMP JUMPDEST CALLVALUE DUP1 ISZERO PUSH2 0x88C JUMPI PUSH1 0x0 DUP1 REVERT JUMPDEST POP PUSH2 0x32B PUSH2 0x89B CALLDATASIZE PUSH1 0x4 PUSH2 0x4644 JUMP JUMPDEST PUSH2 0x2D30 JUMP JUMPDEST CALLVALUE DUP1 ISZERO PUSH2 0x8AC JUMPI PUSH1 0x0 DUP1 REVERT JUMPDEST POP PUSH2 0x32B PUSH2 0x8BB CALLDATASIZE PUSH1 0x4 PUSH2 0x3AAA JUMP JUMPDEST PUSH2 0x2FFB JUMP JUMPDEST CALLVALUE DUP1 ISZERO PUSH2 0x8CC JUMPI PUSH1 0x0 DUP1 REVERT JUMPDEST POP PUSH2 0x4AF PUSH2 0x8DB CALLDATASIZE PUSH1 0x4 PUSH2 0x3CED JUMP JUMPDEST PUSH1 0x6 PUSH1 0x20 MSTORE PUSH1 0x0 SWAP1 DUP2 MSTORE PUSH1 0x40 SWAP1 KECCAK256 SLOAD DUP2 JUMP JUMPDEST CALLVALUE DUP1 ISZERO PUSH2 0x8F9 JUMPI PUSH1 0x0 DUP1 REVERT JUMPDEST POP PUSH2 0x32B PUSH2 0x908 CALLDATASIZE PUSH1 0x4 PUSH2 0x46A9 JUMP JUMPDEST PUSH2 0x3025 JUMP JUMPDEST CALLVALUE DUP1 ISZERO PUSH2 0x919 JUMPI PUSH1 0x0 DUP1 REVERT JUMPDEST POP PUSH2 0x92D PUSH2 0x928 CALLDATASIZE PUSH1 0x4 PUSH2 0x4009 JUMP JUMPDEST PUSH2 0x3208 JUMP JUMPDEST PUSH1 0x40 MLOAD PUSH2 0x30F SWAP5 SWAP4 SWAP3 SWAP2 SWAP1 PUSH2 0x4702 JUMP JUMPDEST CALLVALUE DUP1 ISZERO PUSH2 0x949 JUMPI PUSH1 0x0 DUP1 REVERT JUMPDEST POP PUSH2 0x32B PUSH2 0x958 CALLDATASIZE PUSH1 0x4 PUSH2 0x3AAA JUMP JUMPDEST PUSH2 0x32D0 JUMP JUMPDEST CALLVALUE DUP1 ISZERO PUSH2 0x969 JUMPI PUSH1 0x0 DUP1 REVERT JUMPDEST POP PUSH2 0x32B PUSH2 0x978 CALLDATASIZE PUSH1 0x4 PUSH2 0x4730 JUMP JUMPDEST PUSH2 0x330E JUMP JUMPDEST CALLVALUE DUP1 ISZERO PUSH2 0x989 JUMPI PUSH1 0x0 DUP1 REVERT JUMPDEST POP PUSH2 0x489 PUSH2 0x998 CALLDATASIZE PUSH1 0x4 PUSH2 0x4778 JUMP JUMPDEST PUSH2 0x331A JUMP JUMPDEST PUSH1 0x40 DUP1 MLOAD PUSH1 0xA0 DUP2 ADD DUP3 MSTORE PUSH1 0x0 DUP1 DUP3 MSTORE PUSH1 0x60 PUSH1 0x20 DUP4 ADD DUP2 SWAP1 MSTORE SWAP3 DUP3 ADD DUP2 SWAP1 MSTORE DUP3 DUP3 ADD MSTORE PUSH1 0x80 DUP2 ADD SWAP2 SWAP1 SWAP2 MSTORE PUSH1 0x1 PUSH1 0x1 PUSH1 0xA0 SHL SUB DUP3 AND PUSH1 0x0 SWAP1 DUP2 MSTORE PUSH1 0x3 PUSH1 0x20 MSTORE PUSH1 0x40 SWAP1 KECCAK256 SLOAD PUSH1 0xFF AND PUSH2 0xA2D JUMPI PUSH1 0x40 MLOAD PUSH3 0x461BCD PUSH1 0xE5 SHL DUP2 MSTORE PUSH1 0x20 PUSH1 0x4 DUP3 ADD MSTORE PUSH1 0x16 PUSH1 0x24 DUP3 ADD MSTORE PUSH22 0x141C9BD99A5B1948191BD95CC81B9BDD08195E1A5CDD PUSH1 0x52 SHL PUSH1 0x44 DUP3 ADD MSTORE PUSH1 0x64 ADD JUMPDEST PUSH1 0x40 MLOAD DUP1 SWAP2 SUB SWAP1 REVERT JUMPDEST PUSH1 0x1 PUSH1 0x1 PUSH1 0xA0 SHL SUB DUP1 DUP4 AND PUSH1 0x0 SWAP1 DUP2 MSTORE PUSH1 0x2 PUSH1 0x20 SWAP1 DUP2 MSTORE PUSH1 0x40 SWAP2 DUP3 SWAP1 KECCAK256 DUP3 MLOAD PUSH1 0xA0 DUP2 ADD SWAP1 SWAP4 MSTORE DUP1 SLOAD SWAP1 SWAP4 AND DUP3 MSTORE PUSH1 0x1 DUP4 ADD DUP1 SLOAD SWAP3 SWAP4 SWAP3 SWAP2 DUP5 ADD SWAP2 PUSH2 0xA70 SWAP1 PUSH2 0x4794 JUMP JUMPDEST DUP1 PUSH1 0x1F ADD PUSH1 0x20 DUP1 SWAP2 DIV MUL PUSH1 0x20 ADD PUSH1 0x40 MLOAD SWAP1 DUP2 ADD PUSH1 0x40 MSTORE DUP1 SWAP3 SWAP2 SWAP1 DUP2 DUP2 MSTORE PUSH1 0x20 ADD DUP3 DUP1 SLOAD PUSH2 0xA9C SWAP1 PUSH2 0x4794 JUMP JUMPDEST DUP1 ISZERO PUSH2 0xAE9 JUMPI DUP1 PUSH1 0x1F LT PUSH2 0xABE JUMPI PUSH2 0x100 DUP1 DUP4 SLOAD DIV MUL DUP4 MSTORE SWAP2 PUSH1 0x20 ADD SWAP2 PUSH2 0xAE9 JUMP JUMPDEST DUP3 ADD SWAP2 SWAP1 PUSH1 0x0 MSTORE PUSH1 0x20 PUSH1 0x0 KECCAK256 SWAP1 JUMPDEST DUP2 SLOAD DUP2 MSTORE SWAP1 PUSH1 0x1 ADD SWAP1 PUSH1 0x20 ADD DUP1 DUP4 GT PUSH2 0xACC JUMPI DUP3 SWAP1 SUB PUSH1 0x1F AND DUP3 ADD SWAP2 JUMPDEST POP POP POP POP POP DUP2 MSTORE PUSH1 0x20 ADD PUSH1 0x2 DUP3 ADD PUSH1 0x0 SWAP1 SLOAD SWAP1 PUSH2 0x100 EXP SWAP1 DIV PUSH1 0x1 PUSH1 0x1 PUSH1 0xA0 SHL SUB AND PUSH1 0x1 PUSH1 0x1 PUSH1 0xA0 SHL SUB AND PUSH1 0x1 PUSH1 0x1 PUSH1 0xA0 SHL SUB AND DUP2 MSTORE PUSH1 0x20 ADD PUSH1 0x3 DUP3 ADD SLOAD DUP2 MSTORE PUSH1 0x20 ADD PUSH1 0x4 DUP3 ADD DUP1 SLOAD DUP1 PUSH1 0x20 MUL PUSH1 0x20 ADD PUSH1 0x40 MLOAD SWAP1 DUP2 ADD PUSH1 0x40 MSTORE DUP1 SWAP3 SWAP2 SWAP1 DUP2 DUP2 MSTORE PUSH1 0x20 ADD PUSH1 0x0 SWAP1 JUMPDEST DUP3 DUP3 LT ISZERO PUSH2 0xBFC JUMPI DUP4 DUP3 SWAP1 PUSH1 0x0 MSTORE PUSH1 0x20 PUSH1 0x0 KECCAK256 ADD DUP1 SLOAD PUSH2 0xB6F SWAP1 PUSH2 0x4794 JUMP JUMPDEST DUP1 PUSH1 0x1F ADD PUSH1 0x20 DUP1 SWAP2 DIV MUL PUSH1 0x20 ADD PUSH1 0x40 MLOAD SWAP1 DUP2 ADD PUSH1 0x40 MSTORE DUP1 SWAP3 SWAP2 SWAP1 DUP2 DUP2 MSTORE PUSH1 0x20 ADD DUP3 DUP1 SLOAD PUSH2 0xB9B SWAP1 PUSH2 0x4794 JUMP JUMPDEST DUP1 ISZERO PUSH2 0xBE8 JUMPI DUP1 PUSH1 0x1F LT PUSH2 0xBBD JUMPI PUSH2 0x100 DUP1 DUP4 SLOAD DIV MUL DUP4 MSTORE SWAP2 PUSH1 0x20 ADD SWAP2 PUSH2 0xBE8 JUMP JUMPDEST DUP3 ADD SWAP2 SWAP1 PUSH1 0x0 MSTORE PUSH1 0x20 PUSH1 0x0 KECCAK256 SWAP1 JUMPDEST DUP2 SLOAD DUP2 MSTORE SWAP1 PUSH1 0x1 ADD SWAP1 PUSH1 0x20 ADD DUP1 DUP4 GT PUSH2 0xBCB JUMPI DUP3 SWAP1 SUB PUSH1 0x1F AND DUP3 ADD SWAP2 JUMPDEST POP POP POP POP POP DUP2 MSTORE PUSH1 0x20 ADD SWAP1 PUSH1 0x1 ADD SWAP1 PUSH2 0xB50 JUMP JUMPDEST POP POP POP SWAP2 MSTORE POP SWAP1 SWAP4 SWAP3 POP POP POP JUMP JUMPDEST PUSH32 0x0 PUSH1 0x1 PUSH1 0x1 PUSH1 0xA0 SHL SUB AND CALLER EQ PUSH2 0xC55 JUMPI PUSH1 0x40 MLOAD PUSH4 0x91AC5E4F PUSH1 0xE0 SHL DUP2 MSTORE CALLER PUSH1 0x4 DUP3 ADD MSTORE PUSH1 0x24 ADD PUSH2 0xA24 JUMP JUMPDEST PUSH1 0x20 DUP8 ADD DUP1 CALLDATALOAD SWAP1 PUSH2 0xC6F SWAP1 PUSH2 0xC6A SWAP1 DUP11 PUSH2 0x455F JUMP JUMPDEST PUSH2 0x3350 JUMP JUMPDEST EQ PUSH2 0xCAD JUMPI PUSH2 0xC81 PUSH1 0x20 DUP9 ADD DUP9 PUSH2 0x455F JUMP JUMPDEST PUSH1 0x40 MLOAD PUSH4 0x309AFAF3 PUSH1 0xE2 SHL DUP2 MSTORE PUSH4 0xFFFFFFFF SWAP1 SWAP2 AND PUSH1 0x4 DUP3 ADD MSTORE PUSH1 0x20 DUP9 ADD CALLDATALOAD PUSH1 0x24 DUP3 ADD MSTORE PUSH1 0x44 ADD PUSH2 0xA24 JUMP JUMPDEST PUSH2 0xCBC DUP8 DUP8 DUP8 DUP8 DUP8 DUP8 DUP8 PUSH2 0x338C JUMP JUMPDEST POP POP POP POP POP POP POP JUMP JUMPDEST PUSH1 0x4 PUSH1 0x20 MSTORE PUSH1 0x0 SWAP1 DUP2 MSTORE PUSH1 0x40 SWAP1 KECCAK256 DUP1 SLOAD PUSH1 0x1 DUP3 ADD SLOAD PUSH1 0x3 DUP4 ADD DUP1 SLOAD SWAP3 SWAP4 PUSH1 0x1 PUSH1 0x1 PUSH1 0xA0 SHL SUB SWAP1 SWAP3 AND SWAP3 PUSH2 0xCF7 SWAP1 PUSH2 0x4794 JUMP JUMPDEST DUP1 PUSH1 0x1F ADD PUSH1 0x20 DUP1 SWAP2 DIV MUL PUSH1 0x20 ADD PUSH1 0x40 MLOAD SWAP1 DUP2 ADD PUSH1 0x40 MSTORE DUP1 SWAP3 SWAP2 SWAP1 DUP2 DUP2 MSTORE PUSH1 0x20 ADD DUP3 DUP1 SLOAD PUSH2 0xD23 SWAP1 PUSH2 0x4794 JUMP JUMPDEST DUP1 ISZERO PUSH2 0xD70 JUMPI DUP1 PUSH1 0x1F LT PUSH2 0xD45 JUMPI PUSH2 0x100 DUP1 DUP4 SLOAD DIV MUL DUP4 MSTORE SWAP2 PUSH1 0x20 ADD SWAP2 PUSH2 0xD70 JUMP JUMPDEST DUP3 ADD SWAP2 SWAP1 PUSH1 0x0 MSTORE PUSH1 0x20 PUSH1 0x0 KECCAK256 SWAP1 JUMPDEST DUP2 SLOAD DUP2 MSTORE SWAP1 PUSH1 0x1 ADD SWAP1 PUSH1 0x20 ADD DUP1 DUP4 GT PUSH2 0xD53 JUMPI DUP3 SWAP1 SUB PUSH1 0x1F AND DUP3 ADD SWAP2 JUMPDEST POP POP POP PUSH1 0x4 DUP5 ADD SLOAD PUSH1 0x8 DUP6 ADD SLOAD PUSH1 0x9 DUP7 ADD SLOAD PUSH1 0xA DUP8 ADD SLOAD PUSH1 0xB DUP9 ADD SLOAD PUSH1 0xC SWAP1 SWAP9 ADD SLOAD SWAP7 SWAP8 PUSH1 0xFF SWAP1 SWAP5 AND SWAP7 SWAP3 SWAP6 POP SWAP1 SWAP4 POP SWAP2 PUSH1 0x1 PUSH1 0x1 PUSH1 0xA0 SHL SUB AND SWAP1 DUP10 JUMP JUMPDEST PUSH1 0x1 PUSH1 0x1 PUSH1 0xA0 SHL SUB DUP5 AND PUSH1 0x0 SWAP1 DUP2 MSTORE PUSH1 0x3 PUSH1 0x20 MSTORE PUSH1 0x40 SWAP1 KECCAK256 SLOAD PUSH1 0xFF AND PUSH2 0xE16 JUMPI PUSH1 0x40 MLOAD PUSH3 0x461BCD PUSH1 0xE5 SHL DUP2 MSTORE PUSH1 0x20 PUSH1 0x4 DUP3 ADD MSTORE PUSH1 0x1D PUSH1 0x24 DUP3 ADD MSTORE PUSH32 0x4D75737420686176652070726F66696C6520746F20706F7374206A6F62000000 PUSH1 0x44 DUP3 ADD MSTORE PUSH1 0x64 ADD PUSH2 0xA24 JUMP JUMPDEST PUSH1 0x0 DUP3 MLOAD GT PUSH2 0xE67 JUMPI PUSH1 0x40 MLOAD PUSH3 0x461BCD PUSH1 0xE5 SHL DUP2 MSTORE PUSH1 0x20 PUSH1 0x4 DUP3 ADD DUP2 SWAP1 MSTORE PUSH1 0x24 DUP3 ADD MSTORE PUSH32 0x4D7573742068617665206174206C65617374206F6E65206D696C6573746F6E65 PUSH1 0x44 DUP3 ADD MSTORE PUSH1 0x64 ADD PUSH2 0xA24 JUMP JUMPDEST PUSH1 0x0 DUP1 JUMPDEST DUP4 MLOAD DUP2 LT ISZERO PUSH2 0xEA7 JUMPI DUP4 DUP2 DUP2 MLOAD DUP2 LT PUSH2 0xE86 JUMPI PUSH2 0xE86 PUSH2 0x47C8 JUMP JUMPDEST PUSH1 0x20 MUL PUSH1 0x20 ADD ADD MLOAD PUSH1 0x20 ADD MLOAD DUP3 PUSH2 0xE9D SWAP2 SWAP1 PUSH2 0x47F4 JUMP JUMPDEST SWAP2 POP PUSH1 0x1 ADD PUSH2 0xE6B JUMP JUMPDEST POP DUP1 DUP3 EQ PUSH2 0xF0A JUMPI PUSH1 0x40 MLOAD PUSH3 0x461BCD PUSH1 0xE5 SHL DUP2 MSTORE PUSH1 0x20 PUSH1 0x4 DUP3 ADD MSTORE PUSH1 0x2A PUSH1 0x24 DUP3 ADD MSTORE PUSH32 0x5061796D656E74206D75737420657175616C20746F74616C206D696C6573746F PUSH1 0x44 DUP3 ADD MSTORE PUSH10 0x6E6520616D6F756E7473 PUSH1 0xB0 SHL PUSH1 0x64 DUP3 ADD MSTORE PUSH1 0x84 ADD PUSH2 0xA24 JUMP JUMPDEST PUSH1 0x9 DUP1 SLOAD SWAP1 PUSH1 0x0 PUSH2 0xF1A DUP4 PUSH2 0x4807 JUMP JUMPDEST SWAP1 SWAP2 SSTORE POP POP PUSH1 0x9 SLOAD PUSH1 0x0 DUP2 DUP2 MSTORE PUSH1 0x4 PUSH1 0x20 MSTORE PUSH1 0x40 SWAP1 KECCAK256 SWAP1 DUP2 SSTORE PUSH1 0x1 DUP2 ADD DUP1 SLOAD PUSH1 0x1 PUSH1 0x1 PUSH1 0xA0 SHL SUB NOT AND PUSH1 0x1 PUSH1 0x1 PUSH1 0xA0 SHL SUB DUP9 AND OR SWAP1 SSTORE PUSH1 0x3 DUP2 ADD PUSH2 0xF5E DUP7 DUP3 PUSH2 0x4867 JUMP JUMPDEST POP PUSH1 0x4 DUP2 ADD DUP1 SLOAD PUSH1 0xFF NOT AND PUSH1 0x1 OR SWAP1 SSTORE PUSH1 0x0 PUSH1 0x8 DUP3 ADD DUP2 SWAP1 SSTORE PUSH1 0x9 DUP3 ADD DUP5 SWAP1 SSTORE PUSH1 0xA DUP3 ADD DUP2 SWAP1 SSTORE PUSH1 0xB DUP3 ADD DUP1 SLOAD PUSH1 0x1 PUSH1 0x1 PUSH1 0xA0 SHL SUB NOT AND SWAP1 SSTORE PUSH1 0xC DUP3 ADD DUP2 SWAP1 SSTORE JUMPDEST DUP5 MLOAD DUP2 LT ISZERO PUSH2 0x1004 JUMPI DUP2 PUSH1 0x6 ADD DUP6 DUP3 DUP2 MLOAD DUP2 LT PUSH2 0xFBE JUMPI PUSH2 0xFBE PUSH2 0x47C8 JUMP JUMPDEST PUSH1 0x20 SWAP1 DUP2 MUL SWAP2 SWAP1 SWAP2 ADD DUP2 ADD MLOAD DUP3 SLOAD PUSH1 0x1 DUP2 ADD DUP5 SSTORE PUSH1 0x0 SWAP4 DUP5 MSTORE SWAP2 SWAP1 SWAP3 KECCAK256 DUP3 MLOAD PUSH1 0x2 SWAP1 SWAP3 MUL ADD SWAP1 DUP2 SWAP1 PUSH2 0xFF0 SWAP1 DUP3 PUSH2 0x4867 JUMP JUMPDEST POP PUSH1 0x20 SWAP2 SWAP1 SWAP2 ADD MLOAD PUSH1 0x1 SWAP2 DUP3 ADD SSTORE ADD PUSH2 0xF9F JUMP JUMPDEST POP DUP6 PUSH1 0x1 PUSH1 0x1 PUSH1 0xA0 SHL SUB AND PUSH1 0x9 SLOAD PUSH32 0x874D4755E4BE9F976C7833FC413DEB77C1ACBF096D6535B71953C36EB838CF40 DUP8 PUSH1 0x40 MLOAD PUSH2 0x1041 SWAP2 SWAP1 PUSH2 0x4928 JUMP JUMPDEST PUSH1 0x40 MLOAD DUP1 SWAP2 SUB SWAP1 LOG3 POP POP POP POP POP POP JUMP JUMPDEST PUSH1 0x1 PUSH1 0x1 PUSH1 0xA0 SHL SUB DUP3 AND PUSH1 0x0 SWAP1 DUP2 MSTORE PUSH1 0x3 PUSH1 0x20 MSTORE PUSH1 0x40 SWAP1 KECCAK256 SLOAD PUSH1 0xFF AND PUSH2 0x10B2 JUMPI PUSH1 0x40 MLOAD PUSH3 0x461BCD PUSH1 0xE5 SHL DUP2 MSTORE PUSH1 0x20 PUSH1 0x4 DUP3 ADD MSTORE PUSH1 0x16 PUSH1 0x24 DUP3 ADD MSTORE PUSH22 0x141C9BD99A5B1948191BD95CC81B9BDD08195E1A5CDD PUSH1 0x52 SHL PUSH1 0x44 DUP3 ADD MSTORE PUSH1 0x64 ADD PUSH2 0xA24 JUMP JUMPDEST CALLER PUSH1 0x1 PUSH1 0x1 PUSH1 0xA0 SHL SUB DUP4 AND EQ PUSH2 0x1118 JUMPI PUSH1 0x40 MLOAD PUSH3 0x461BCD PUSH1 0xE5 SHL DUP2 MSTORE PUSH1 0x20 PUSH1 0x4 DUP3 ADD MSTORE PUSH1 0x25 PUSH1 0x24 DUP3 ADD MSTORE PUSH32 0x43616E206F6E6C792061646420706F7274666F6C696F20746F206F776E207072 PUSH1 0x44 DUP3 ADD MSTORE PUSH5 0x6F66696C65 PUSH1 0xD8 SHL PUSH1 0x64 DUP3 ADD MSTORE PUSH1 0x84 ADD PUSH2 0xA24 JUMP JUMPDEST PUSH1 0x0 DUP2 MLOAD GT PUSH2 0x1169 JUMPI PUSH1 0x40 MLOAD PUSH3 0x461BCD PUSH1 0xE5 SHL DUP2 MSTORE PUSH1 0x20 PUSH1 0x4 DUP3 ADD MSTORE PUSH1 0x1E PUSH1 0x24 DUP3 ADD MSTORE PUSH32 0x506F7274666F6C696F20686173682063616E6E6F7420626520656D7074790000 PUSH1 0x44 DUP3 ADD MSTORE PUSH1 0x64 ADD PUSH2 0xA24 JUMP JUMPDEST PUSH1 0x1 PUSH1 0x1 PUSH1 0xA0 SHL SUB DUP3 AND PUSH1 0x0 SWAP1 DUP2 MSTORE PUSH1 0x2 PUSH1 0x20 SWAP1 DUP2 MSTORE PUSH1 0x40 DUP3 KECCAK256 PUSH1 0x4 ADD DUP1 SLOAD PUSH1 0x1 DUP2 ADD DUP3 SSTORE SWAP1 DUP4 MSTORE SWAP2 KECCAK256 ADD PUSH2 0x119E DUP3 DUP3 PUSH2 0x4867 JUMP JUMPDEST POP DUP2 PUSH1 0x1 PUSH1 0x1 PUSH1 0xA0 SHL SUB AND PUSH32 0xCC18228E480194B6EB176CEBD651BE35A4EB3236A2461B112A3E89EA1B1C40DD DUP3 PUSH1 0x40 MLOAD PUSH2 0x11D8 SWAP2 SWAP1 PUSH2 0x4928 JUMP JUMPDEST PUSH1 0x40 MLOAD DUP1 SWAP2 SUB SWAP1 LOG2 POP POP JUMP JUMPDEST PUSH2 0x11EF CALLER DUP4 DUP4 PUSH2 0x2BB8 JUMP JUMPDEST POP POP JUMP JUMPDEST PUSH2 0x11FB PUSH2 0x388A JUMP JUMPDEST PUSH2 0x11EF DUP3 DUP3 PUSH2 0x38B7 JUMP JUMPDEST PUSH2 0x120D PUSH2 0x395C JUMP JUMPDEST PUSH1 0x0 DUP3 DUP2 MSTORE PUSH1 0x4 PUSH1 0x20 MSTORE PUSH1 0x40 DUP2 KECCAK256 SLOAD SWAP1 SUB PUSH2 0x123A JUMPI PUSH1 0x40 MLOAD PUSH3 0x461BCD PUSH1 0xE5 SHL DUP2 MSTORE PUSH1 0x4 ADD PUSH2 0xA24 SWAP1 PUSH2 0x493B JUMP JUMPDEST PUSH1 0x0 DUP3 DUP2 MSTORE PUSH1 0x4 PUSH1 0x20 SWAP1 DUP2 MSTORE PUSH1 0x40 SWAP2 DUP3 SWAP1 KECCAK256 DUP3 MLOAD PUSH2 0x1A0 DUP2 ADD DUP5 MSTORE DUP2 SLOAD DUP2 MSTORE PUSH1 0x1 DUP3 ADD SLOAD PUSH1 0x1 PUSH1 0x1 PUSH1 0xA0 SHL SUB AND DUP2 DUP5 ADD MSTORE PUSH1 0x2 DUP3 ADD DUP1 SLOAD DUP6 MLOAD DUP2 DUP7 MUL DUP2 ADD DUP7 ADD DUP8 MSTORE DUP2 DUP2 MSTORE SWAP3 SWAP6 SWAP4 SWAP5 SWAP4 DUP7 ADD SWAP4 DUP4 ADD DUP3 DUP3 DUP1 ISZERO PUSH2 0x12C0 JUMPI PUSH1 0x20 MUL DUP3 ADD SWAP2 SWAP1 PUSH1 0x0 MSTORE PUSH1 0x20 PUSH1 0x0 KECCAK256 SWAP1 JUMPDEST DUP2 SLOAD PUSH1 0x1 PUSH1 0x1 PUSH1 0xA0 SHL SUB AND DUP2 MSTORE PUSH1 0x1 SWAP1 SWAP2 ADD SWAP1 PUSH1 0x20 ADD DUP1 DUP4 GT PUSH2 0x12A2 JUMPI JUMPDEST POP POP POP POP POP DUP2 MSTORE PUSH1 0x20 ADD PUSH1 0x3 DUP3 ADD DUP1 SLOAD PUSH2 0x12D9 SWAP1 PUSH2 0x4794 JUMP JUMPDEST DUP1 PUSH1 0x1F ADD PUSH1 0x20 DUP1 SWAP2 DIV MUL PUSH1 0x20 ADD PUSH1 0x40 MLOAD SWAP1 DUP2 ADD PUSH1 0x40 MSTORE DUP1 SWAP3 SWAP2 SWAP1 DUP2 DUP2 MSTORE PUSH1 0x20 ADD DUP3 DUP1 SLOAD PUSH2 0x1305 SWAP1 PUSH2 0x4794 JUMP JUMPDEST DUP1 ISZERO PUSH2 0x1352 JUMPI DUP1 PUSH1 0x1F LT PUSH2 0x1327 JUMPI PUSH2 0x100 DUP1 DUP4 SLOAD DIV MUL DUP4 MSTORE SWAP2 PUSH1 0x20 ADD SWAP2 PUSH2 0x1352 JUMP JUMPDEST DUP3 ADD SWAP2 SWAP1 PUSH1 0x0 MSTORE PUSH1 0x20 PUSH1 0x0 KECCAK256 SWAP1 JUMPDEST DUP2 SLOAD DUP2 MSTORE SWAP1 PUSH1 0x1 ADD SWAP1 PUSH1 0x20 ADD DUP1 DUP4 GT PUSH2 0x1335 JUMPI DUP3 SWAP1 SUB PUSH1 0x1F AND DUP3 ADD SWAP2 JUMPDEST POP POP POP SWAP2 DUP4 MSTORE POP POP PUSH1 0x4 DUP3 ADD SLOAD PUSH1 0xFF AND ISZERO ISZERO PUSH1 0x20 DUP1 DUP4 ADD SWAP2 SWAP1 SWAP2 MSTORE PUSH1 0x5 DUP4 ADD DUP1 SLOAD PUSH1 0x40 DUP1 MLOAD DUP3 DUP6 MUL DUP2 ADD DUP6 ADD DUP3 MSTORE DUP3 DUP2 MSTORE SWAP5 ADD SWAP4 SWAP3 PUSH1 0x0 SWAP1 DUP5 ADD JUMPDEST DUP3 DUP3 LT ISZERO PUSH2 0x1439 JUMPI DUP4 DUP3 SWAP1 PUSH1 0x0 MSTORE PUSH1 0x20 PUSH1 0x0 KECCAK256 ADD DUP1 SLOAD PUSH2 0x13AC SWAP1 PUSH2 0x4794 JUMP JUMPDEST DUP1 PUSH1 0x1F ADD PUSH1 0x20 DUP1 SWAP2 DIV MUL PUSH1 0x20 ADD PUSH1 0x40 MLOAD SWAP1 DUP2 ADD PUSH1 0x40 MSTORE DUP1 SWAP3 SWAP2 SWAP1 DUP2 DUP2 MSTORE PUSH1 0x20 ADD DUP3 DUP1 SLOAD PUSH2 0x13D8 SWAP1 PUSH2 0x4794 JUMP JUMPDEST DUP1 ISZERO PUSH2 0x1425 JUMPI DUP1 PUSH1 0x1F LT PUSH2 0x13FA JUMPI PUSH2 0x100 DUP1 DUP4 SLOAD DIV MUL DUP4 MSTORE SWAP2 PUSH1 0x20 ADD SWAP2 PUSH2 0x1425 JUMP JUMPDEST DUP3 ADD SWAP2 SWAP1 PUSH1 0x0 MSTORE PUSH1 0x20 PUSH1 0x0 KECCAK256 SWAP1 JUMPDEST DUP2 SLOAD DUP2 MSTORE SWAP1 PUSH1 0x1 ADD SWAP1 PUSH1 0x20 ADD DUP1 DUP4 GT PUSH2 0x1408 JUMPI DUP3 SWAP1 SUB PUSH1 0x1F AND DUP3 ADD SWAP2 JUMPDEST POP POP POP POP POP DUP2 MSTORE PUSH1 0x20 ADD SWAP1 PUSH1 0x1 ADD SWAP1 PUSH2 0x138D JUMP JUMPDEST POP POP POP POP DUP2 MSTORE PUSH1 0x20 ADD PUSH1 0x6 DUP3 ADD DUP1 SLOAD DUP1 PUSH1 0x20 MUL PUSH1 0x20 ADD PUSH1 0x40 MLOAD SWAP1 DUP2 ADD PUSH1 0x40 MSTORE DUP1 SWAP3 SWAP2 SWAP1 DUP2 DUP2 MSTORE PUSH1 0x20 ADD PUSH1 0x0 SWAP1 JUMPDEST DUP3 DUP3 LT ISZERO PUSH2 0x1534 JUMPI DUP4 DUP3 SWAP1 PUSH1 0x0 MSTORE PUSH1 0x20 PUSH1 0x0 KECCAK256 SWAP1 PUSH1 0x2 MUL ADD PUSH1 0x40 MLOAD DUP1 PUSH1 0x40 ADD PUSH1 0x40 MSTORE SWAP1 DUP2 PUSH1 0x0 DUP3 ADD DUP1 SLOAD PUSH2 0x1499 SWAP1 PUSH2 0x4794 JUMP JUMPDEST DUP1 PUSH1 0x1F ADD PUSH1 0x20 DUP1 SWAP2 DIV MUL PUSH1 0x20 ADD PUSH1 0x40 MLOAD SWAP1 DUP2 ADD PUSH1 0x40 MSTORE DUP1 SWAP3 SWAP2 SWAP1 DUP2 DUP2 MSTORE PUSH1 0x20 ADD DUP3 DUP1 SLOAD PUSH2 0x14C5 SWAP1 PUSH2 0x4794 JUMP JUMPDEST DUP1 ISZERO PUSH2 0x1512 JUMPI DUP1 PUSH1 0x1F LT PUSH2 0x14E7 JUMPI PUSH2 0x100 DUP1 DUP4 SLOAD DIV MUL DUP4 MSTORE SWAP2 PUSH1 0x20 ADD SWAP2 PUSH2 0x1512 JUMP JUMPDEST DUP3 ADD SWAP2 SWAP1 PUSH1 0x0 MSTORE PUSH1 0x20 PUSH1 0x0 KECCAK256 SWAP1 JUMPDEST DUP2 SLOAD DUP2 MSTORE SWAP1 PUSH1 0x1 ADD SWAP1 PUSH1 0x20 ADD DUP1 DUP4 GT PUSH2 0x14F5 JUMPI DUP3 SWAP1 SUB PUSH1 0x1F AND DUP3 ADD SWAP2 JUMPDEST POP POP POP POP POP DUP2 MSTORE PUSH1 0x20 ADD PUSH1 0x1 DUP3 ADD SLOAD DUP2 MSTORE POP POP DUP2 MSTORE PUSH1 0x20 ADD SWAP1 PUSH1 0x1 ADD SWAP1 PUSH2 0x1466 JUMP JUMPDEST POP POP POP POP DUP2 MSTORE PUSH1 0x20 ADD PUSH1 0x7 DUP3 ADD DUP1 SLOAD DUP1 PUSH1 0x20 MUL PUSH1 0x20 ADD PUSH1 0x40 MLOAD SWAP1 DUP2 ADD PUSH1 0x40 MSTORE DUP1 SWAP3 SWAP2 SWAP1 DUP2 DUP2 MSTORE PUSH1 0x20 ADD PUSH1 0x0 SWAP1 JUMPDEST DUP3 DUP3 LT ISZERO PUSH2 0x162F JUMPI DUP4 DUP3 SWAP1 PUSH1 0x0 MSTORE PUSH1 0x20 PUSH1 0x0 KECCAK256 SWAP1 PUSH1 0x2 MUL ADD PUSH1 0x40 MLOAD DUP1 PUSH1 0x40 ADD PUSH1 0x40 MSTORE SWAP1 DUP2 PUSH1 0x0 DUP3 ADD DUP1 SLOAD PUSH2 0x1594 SWAP1 PUSH2 0x4794 JUMP JUMPDEST DUP1 PUSH1 0x1F ADD PUSH1 0x20 DUP1 SWAP2 DIV MUL PUSH1 0x20 ADD PUSH1 0x40 MLOAD SWAP1 DUP2 ADD PUSH1 0x40 MSTORE DUP1 SWAP3 SWAP2 SWAP1 DUP2 DUP2 MSTORE PUSH1 0x20 ADD DUP3 DUP1 SLOAD PUSH2 0x15C0 SWAP1 PUSH2 0x4794 JUMP JUMPDEST DUP1 ISZERO PUSH2 0x160D JUMPI DUP1 PUSH1 0x1F LT PUSH2 0x15E2 JUMPI PUSH2 0x100 DUP1 DUP4 SLOAD DIV MUL DUP4 MSTORE SWAP2 PUSH1 0x20 ADD SWAP2 PUSH2 0x160D JUMP JUMPDEST DUP3 ADD SWAP2 SWAP1 PUSH1 0x0 MSTORE PUSH1 0x20 PUSH1 0x0 KECCAK256 SWAP1 JUMPDEST DUP2 SLOAD DUP2 MSTORE SWAP1 PUSH1 0x1 ADD SWAP1 PUSH1 0x20 ADD DUP1 DUP4 GT PUSH2 0x15F0 JUMPI DUP3 SWAP1 SUB PUSH1 0x1F AND DUP3 ADD SWAP2 JUMPDEST POP POP POP POP POP DUP2 MSTORE PUSH1 0x20 ADD PUSH1 0x1 DUP3 ADD SLOAD DUP2 MSTORE POP POP DUP2 MSTORE PUSH1 0x20 ADD SWAP1 PUSH1 0x1 ADD SWAP1 PUSH2 0x1561 JUMP JUMPDEST POP POP POP SWAP1 DUP3 MSTORE POP PUSH1 0x8 DUP3 ADD SLOAD PUSH1 0x20 DUP3 ADD MSTORE PUSH1 0x9 DUP3 ADD SLOAD PUSH1 0x40 DUP3 ADD MSTORE PUSH1 0xA DUP3 ADD SLOAD PUSH1 0x60 DUP3 ADD MSTORE PUSH1 0xB DUP3 ADD SLOAD PUSH1 0x1 PUSH1 0x1 PUSH1 0xA0 SHL SUB AND PUSH1 0x80 DUP3 ADD MSTORE PUSH1 0xC SWAP1 SWAP2 ADD SLOAD PUSH1 0xA0 SWAP1 SWAP2 ADD MSTORE SWAP3 SWAP2 POP POP JUMP JUMPDEST PUSH1 0x0 DUP2 DUP2 MSTORE PUSH1 0x4 PUSH1 0x20 MSTORE PUSH1 0x40 DUP2 KECCAK256 SLOAD DUP2 SUB PUSH2 0x16A6 JUMPI PUSH1 0x40 MLOAD PUSH3 0x461BCD PUSH1 0xE5 SHL DUP2 MSTORE PUSH1 0x4 ADD PUSH2 0xA24 SWAP1 PUSH2 0x493B JUMP JUMPDEST POP PUSH1 0x0 SWAP1 DUP2 MSTORE PUSH1 0x4 PUSH1 0x20 DUP2 SWAP1 MSTORE PUSH1 0x40 SWAP1 SWAP2 KECCAK256 ADD SLOAD PUSH1 0xFF AND SWAP1 JUMP JUMPDEST PUSH2 0x16CC CALLER DUP5 DUP5 DUP5 PUSH2 0x1A5D JUMP JUMPDEST POP POP POP JUMP JUMPDEST PUSH2 0x16D9 PUSH2 0x388A JUMP JUMPDEST PUSH2 0x16E3 PUSH1 0x0 PUSH2 0x390C JUMP JUMPDEST JUMP JUMPDEST PUSH1 0x0 JUMPDEST SWAP3 SWAP2 POP POP JUMP JUMPDEST PUSH2 0x11EF CALLER DUP4 DUP4 CALLVALUE PUSH2 0xDAE JUMP JUMPDEST PUSH1 0x1 PUSH1 0x1 PUSH1 0xA0 SHL SUB DUP2 AND PUSH1 0x0 SWAP1 DUP2 MSTORE PUSH1 0x8 PUSH1 0x20 SWAP1 DUP2 MSTORE PUSH1 0x40 DUP1 DUP4 KECCAK256 DUP1 SLOAD DUP3 MLOAD DUP2 DUP6 MUL DUP2 ADD DUP6 ADD SWAP1 SWAP4 MSTORE DUP1 DUP4 MSTORE DUP5 SWAP4 DUP4 ADD DUP3 DUP3 DUP1 ISZERO PUSH2 0x1757 JUMPI PUSH1 0x20 MUL DUP3 ADD SWAP2 SWAP1 PUSH1 0x0 MSTORE PUSH1 0x20 PUSH1 0x0 KECCAK256 SWAP1 JUMPDEST DUP2 SLOAD DUP2 MSTORE PUSH1 0x20 ADD SWAP1 PUSH1 0x1 ADD SWAP1 DUP1 DUP4 GT PUSH2 0x1743 JUMPI JUMPDEST POP POP POP POP POP SWAP1 POP DUP1 MLOAD PUSH1 0x0 SUB PUSH2 0x1770 JUMPI POP PUSH1 0x0 SWAP3 SWAP2 POP POP JUMP JUMPDEST PUSH1 0x0 DUP1 JUMPDEST DUP3 MLOAD DUP2 LT ISZERO PUSH2 0x17AC JUMPI DUP3 DUP2 DUP2 MLOAD DUP2 LT PUSH2 0x178F JUMPI PUSH2 0x178F PUSH2 0x47C8 JUMP JUMPDEST PUSH1 0x20 MUL PUSH1 0x20 ADD ADD MLOAD DUP3 PUSH2 0x17A2 SWAP2 SWAP1 PUSH2 0x47F4 JUMP JUMPDEST SWAP2 POP PUSH1 0x1 ADD PUSH2 0x1774 JUMP JUMPDEST POP DUP2 MLOAD PUSH2 0x17B9 SWAP1 DUP3 PUSH2 0x4967 JUMP JUMPDEST SWAP5 SWAP4 POP POP POP POP JUMP JUMPDEST PUSH2 0x17FC PUSH1 0x40 MLOAD DUP1 PUSH1 0xA0 ADD PUSH1 0x40 MSTORE DUP1 PUSH1 0x0 DUP2 MSTORE PUSH1 0x20 ADD PUSH1 0x0 DUP2 MSTORE PUSH1 0x20 ADD PUSH1 0x0 PUSH1 0x1 PUSH1 0x1 PUSH1 0xA0 SHL SUB AND DUP2 MSTORE PUSH1 0x20 ADD PUSH1 0x60 DUP2 MSTORE PUSH1 0x20 ADD PUSH1 0x60 DUP2 MSTORE POP SWAP1 JUMP JUMPDEST PUSH1 0x0 DUP4 DUP2 MSTORE PUSH1 0x5 PUSH1 0x20 SWAP1 DUP2 MSTORE PUSH1 0x40 DUP1 DUP4 KECCAK256 DUP6 DUP5 MSTORE SWAP1 SWAP2 MSTORE DUP2 KECCAK256 SLOAD SWAP1 SUB PUSH2 0x1864 JUMPI PUSH1 0x40 MLOAD PUSH3 0x461BCD PUSH1 0xE5 SHL DUP2 MSTORE PUSH1 0x20 PUSH1 0x4 DUP3 ADD MSTORE PUSH1 0x1A PUSH1 0x24 DUP3 ADD MSTORE PUSH32 0x4170706C69636174696F6E20646F6573206E6F74206578697374000000000000 PUSH1 0x44 DUP3 ADD MSTORE PUSH1 0x64 ADD PUSH2 0xA24 JUMP JUMPDEST PUSH1 0x0 DUP4 DUP2 MSTORE PUSH1 0x5 PUSH1 0x20 SWAP1 DUP2 MSTORE PUSH1 0x40 DUP1 DUP4 KECCAK256 DUP6 DUP5 MSTORE DUP3 MSTORE SWAP2 DUP3 SWAP1 KECCAK256 DUP3 MLOAD PUSH1 0xA0 DUP2 ADD DUP5 MSTORE DUP2 SLOAD DUP2 MSTORE PUSH1 0x1 DUP3 ADD SLOAD SWAP3 DUP2 ADD SWAP3 SWAP1 SWAP3 MSTORE PUSH1 0x2 DUP2 ADD SLOAD PUSH1 0x1 PUSH1 0x1 PUSH1 0xA0 SHL SUB AND SWAP3 DUP3 ADD SWAP3 SWAP1 SWAP3 MSTORE PUSH1 0x3 DUP3 ADD DUP1 SLOAD SWAP2 SWAP3 SWAP2 PUSH1 0x60 DUP5 ADD SWAP2 SWAP1 PUSH2 0x18C3 SWAP1 PUSH2 0x4794 JUMP JUMPDEST DUP1 PUSH1 0x1F ADD PUSH1 0x20 DUP1 SWAP2 DIV MUL PUSH1 0x20 ADD PUSH1 0x40 MLOAD SWAP1 DUP2 ADD PUSH1 0x40 MSTORE DUP1 SWAP3 SWAP2 SWAP1 DUP2 DUP2 MSTORE PUSH1 0x20 ADD DUP3 DUP1 SLOAD PUSH2 0x18EF SWAP1 PUSH2 0x4794 JUMP JUMPDEST DUP1 ISZERO PUSH2 0x193C JUMPI DUP1 PUSH1 0x1F LT PUSH2 0x1911 JUMPI PUSH2 0x100 DUP1 DUP4 SLOAD DIV MUL DUP4 MSTORE SWAP2 PUSH1 0x20 ADD SWAP2 PUSH2 0x193C JUMP JUMPDEST DUP3 ADD SWAP2 SWAP1 PUSH1 0x0 MSTORE PUSH1 0x20 PUSH1 0x0 KECCAK256 SWAP1 JUMPDEST DUP2 SLOAD DUP2 MSTORE SWAP1 PUSH1 0x1 ADD SWAP1 PUSH1 0x20 ADD DUP1 DUP4 GT PUSH2 0x191F JUMPI DUP3 SWAP1 SUB PUSH1 0x1F AND DUP3 ADD SWAP2 JUMPDEST POP POP POP POP POP DUP2 MSTORE PUSH1 0x20 ADD PUSH1 0x4 DUP3 ADD DUP1 SLOAD DUP1 PUSH1 0x20 MUL PUSH1 0x20 ADD PUSH1 0x40 MLOAD SWAP1 DUP2 ADD PUSH1 0x40 MSTORE DUP1 SWAP3 SWAP2 SWAP1 DUP2 DUP2 MSTORE PUSH1 0x20 ADD PUSH1 0x0 SWAP1 JUMPDEST DUP3 DUP3 LT ISZERO PUSH2 0x1A38 JUMPI DUP4 DUP3 SWAP1 PUSH1 0x0 MSTORE PUSH1 0x20 PUSH1 0x0 KECCAK256 SWAP1 PUSH1 0x2 MUL ADD PUSH1 0x40 MLOAD DUP1 PUSH1 0x40 ADD PUSH1 0x40 MSTORE SWAP1 DUP2 PUSH1 0x0 DUP3 ADD DUP1 SLOAD PUSH2 0x199D SWAP1 PUSH2 0x4794 JUMP JUMPDEST DUP1 PUSH1 0x1F ADD PUSH1 0x20 DUP1 SWAP2 DIV MUL PUSH1 0x20 ADD PUSH1 0x40 MLOAD SWAP1 DUP2 ADD PUSH1 0x40 MSTORE DUP1 SWAP3 SWAP2 SWAP1 DUP2 DUP2 MSTORE PUSH1 0x20 ADD DUP3 DUP1 SLOAD PUSH2 0x19C9 SWAP1 PUSH2 0x4794 JUMP JUMPDEST DUP1 ISZERO PUSH2 0x1A16 JUMPI DUP1 PUSH1 0x1F LT PUSH2 0x19EB JUMPI PUSH2 0x100 DUP1 DUP4 SLOAD DIV MUL DUP4 MSTORE SWAP2 PUSH1 0x20 ADD SWAP2 PUSH2 0x1A16 JUMP JUMPDEST DUP3 ADD SWAP2 SWAP1 PUSH1 0x0 MSTORE PUSH1 0x20 PUSH1 0x0 KECCAK256 SWAP1 JUMPDEST DUP2 SLOAD DUP2 MSTORE SWAP1 PUSH1 0x1 ADD SWAP1 PUSH1 0x20 ADD DUP1 DUP4 GT PUSH2 0x19F9 JUMPI DUP3 SWAP1 SUB PUSH1 0x1F AND DUP3 ADD SWAP2 JUMPDEST POP POP POP POP POP DUP2 MSTORE PUSH1 0x20 ADD PUSH1 0x1 DUP3 ADD SLOAD DUP2 MSTORE POP POP DUP2 MSTORE PUSH1 0x20 ADD SWAP1 PUSH1 0x1 ADD SWAP1 PUSH2 0x196A JUMP JUMPDEST POP POP POP SWAP2 MSTORE POP SWAP1 SWAP5 SWAP4 POP POP POP POP JUMP JUMPDEST PUSH2 0x11EF CALLER DUP4 DUP4 PUSH2 0x2D30 JUMP JUMPDEST PUSH2 0x11EF CALLER DUP4 DUP4 PUSH2 0x28A4 JUMP JUMPDEST PUSH1 0x1 PUSH1 0x1 PUSH1 0xA0 SHL SUB DUP5 AND PUSH1 0x0 SWAP1 DUP2 MSTORE PUSH1 0x3 PUSH1 0x20 MSTORE PUSH1 0x40 SWAP1 KECCAK256 SLOAD PUSH1 0xFF AND PUSH2 0x1AC5 JUMPI PUSH1 0x40 MLOAD PUSH3 0x461BCD PUSH1 0xE5 SHL DUP2 MSTORE PUSH1 0x20 PUSH1 0x4 DUP3 ADD MSTORE PUSH1 0x1A PUSH1 0x24 DUP3 ADD MSTORE PUSH32 0x4D75737420686176652070726F66696C6520746F206170706C79000000000000 PUSH1 0x44 DUP3 ADD MSTORE PUSH1 0x64 ADD PUSH2 0xA24 JUMP JUMPDEST PUSH1 0x0 DUP4 DUP2 MSTORE PUSH1 0x4 PUSH1 0x20 MSTORE PUSH1 0x40 DUP2 KECCAK256 SLOAD SWAP1 SUB PUSH2 0x1AF2 JUMPI PUSH1 0x40 MLOAD PUSH3 0x461BCD PUSH1 0xE5 SHL DUP2 MSTORE PUSH1 0x4 ADD PUSH2 0xA24 SWAP1 PUSH2 0x493B JUMP JUMPDEST PUSH1 0x0 DUP4 DUP2 MSTORE PUSH1 0x4 PUSH1 0x20 DUP2 SWAP1 MSTORE PUSH1 0x40 SWAP1 SWAP2 KECCAK256 ADD SLOAD PUSH1 0xFF AND PUSH2 0x1B46 JUMPI PUSH1 0x40 MLOAD PUSH3 0x461BCD PUSH1 0xE5 SHL DUP2 MSTORE PUSH1 0x20 PUSH1 0x4 DUP3 ADD MSTORE PUSH1 0xF PUSH1 0x24 DUP3 ADD MSTORE PUSH15 0x2537B11034B9903737BA1037B832B7 PUSH1 0x89 SHL PUSH1 0x44 DUP3 ADD MSTORE PUSH1 0x64 ADD PUSH2 0xA24 JUMP JUMPDEST PUSH1 0x0 DUP4 DUP2 MSTORE PUSH1 0x4 PUSH1 0x20 MSTORE PUSH1 0x40 SWAP1 KECCAK256 PUSH1 0x1 ADD SLOAD PUSH1 0x1 PUSH1 0x1 PUSH1 0xA0 SHL SUB DUP1 DUP7 AND SWAP2 AND SUB PUSH2 0x1BB2 JUMPI PUSH1 0x40 MLOAD PUSH3 0x461BCD PUSH1 0xE5 SHL DUP2 MSTORE PUSH1 0x20 PUSH1 0x4 DUP3 ADD MSTORE PUSH1 0x17 PUSH1 0x24 DUP3 ADD MSTORE PUSH32 0x43616E6E6F74206170706C7920746F206F776E206A6F62000000000000000000 PUSH1 0x44 DUP3 ADD MSTORE PUSH1 0x64 ADD PUSH2 0xA24 JUMP JUMPDEST PUSH1 0x0 DUP2 MLOAD GT PUSH2 0x1C0F JUMPI PUSH1 0x40 MLOAD PUSH3 0x461BCD PUSH1 0xE5 SHL DUP2 MSTORE PUSH1 0x20 PUSH1 0x4 DUP3 ADD MSTORE PUSH1 0x23 PUSH1 0x24 DUP3 ADD MSTORE PUSH32 0x4D7573742070726F706F7365206174206C65617374206F6E65206D696C657374 PUSH1 0x44 DUP3 ADD MSTORE PUSH3 0x6F6E65 PUSH1 0xE8 SHL PUSH1 0x64 DUP3 ADD MSTORE PUSH1 0x84 ADD PUSH2 0xA24 JUMP JUMPDEST PUSH1 0x0 JUMPDEST PUSH1 0x0 DUP5 DUP2 MSTORE PUSH1 0x4 PUSH1 0x20 MSTORE PUSH1 0x40 SWAP1 KECCAK256 PUSH1 0x2 ADD SLOAD DUP2 LT ISZERO PUSH2 0x1CC4 JUMPI PUSH1 0x0 DUP5 DUP2 MSTORE PUSH1 0x4 PUSH1 0x20 MSTORE PUSH1 0x40 SWAP1 KECCAK256 PUSH1 0x2 ADD DUP1 SLOAD PUSH1 0x1 PUSH1 0x1 PUSH1 0xA0 SHL SUB DUP8 AND SWAP2 SWAP1 DUP4 SWAP1 DUP2 LT PUSH2 0x1C5A JUMPI PUSH2 0x1C5A PUSH2 0x47C8 JUMP JUMPDEST PUSH1 0x0 SWAP2 DUP3 MSTORE PUSH1 0x20 SWAP1 SWAP2 KECCAK256 ADD SLOAD PUSH1 0x1 PUSH1 0x1 PUSH1 0xA0 SHL SUB AND SUB PUSH2 0x1CBC JUMPI PUSH1 0x40 MLOAD PUSH3 0x461BCD PUSH1 0xE5 SHL DUP2 MSTORE PUSH1 0x20 PUSH1 0x4 DUP3 ADD MSTORE PUSH1 0x1B PUSH1 0x24 DUP3 ADD MSTORE PUSH32 0x416C7265616479206170706C69656420746F2074686973206A6F620000000000 PUSH1 0x44 DUP3 ADD MSTORE PUSH1 0x64 ADD PUSH2 0xA24 JUMP JUMPDEST PUSH1 0x1 ADD PUSH2 0x1C12 JUMP JUMPDEST POP PUSH1 0x0 DUP4 DUP2 MSTORE PUSH1 0x4 PUSH1 0x20 SWAP1 DUP2 MSTORE PUSH1 0x40 DUP1 DUP4 KECCAK256 PUSH1 0x2 ADD DUP1 SLOAD PUSH1 0x1 DUP2 ADD DUP3 SSTORE SWAP1 DUP5 MSTORE DUP3 DUP5 KECCAK256 ADD DUP1 SLOAD PUSH1 0x1 PUSH1 0x1 PUSH1 0xA0 SHL SUB NOT AND PUSH1 0x1 PUSH1 0x1 PUSH1 0xA0 SHL SUB DUP10 AND OR SWAP1 SSTORE DUP6 DUP4 MSTORE PUSH1 0x6 SWAP1 SWAP2 MSTORE DUP2 KECCAK256 DUP1 SLOAD SWAP2 PUSH2 0x1D17 DUP4 PUSH2 0x4807 JUMP JUMPDEST SWAP1 SWAP2 SSTORE POP POP PUSH1 0x0 DUP4 DUP2 MSTORE PUSH1 0x6 PUSH1 0x20 SWAP1 DUP2 MSTORE PUSH1 0x40 DUP1 DUP4 KECCAK256 SLOAD PUSH1 0x5 DUP4 MSTORE DUP2 DUP5 KECCAK256 DUP2 DUP6 MSTORE SWAP1 SWAP3 MSTORE SWAP1 SWAP2 KECCAK256 DUP2 DUP2 SSTORE PUSH1 0x1 DUP2 ADD DUP6 SWAP1 SSTORE PUSH1 0x2 DUP2 ADD DUP1 SLOAD PUSH1 0x1 PUSH1 0x1 PUSH1 0xA0 SHL SUB NOT AND PUSH1 0x1 PUSH1 0x1 PUSH1 0xA0 SHL SUB DUP9 AND OR SWAP1 SSTORE PUSH1 0x3 DUP2 ADD PUSH2 0x1D73 DUP6 DUP3 PUSH2 0x4867 JUMP JUMPDEST POP PUSH1 0x0 JUMPDEST DUP4 MLOAD DUP2 LT ISZERO PUSH2 0x1DDC JUMPI DUP2 PUSH1 0x4 ADD DUP5 DUP3 DUP2 MLOAD DUP2 LT PUSH2 0x1D96 JUMPI PUSH2 0x1D96 PUSH2 0x47C8 JUMP JUMPDEST PUSH1 0x20 SWAP1 DUP2 MUL SWAP2 SWAP1 SWAP2 ADD DUP2 ADD MLOAD DUP3 SLOAD PUSH1 0x1 DUP2 ADD DUP5 SSTORE PUSH1 0x0 SWAP4 DUP5 MSTORE SWAP2 SWAP1 SWAP3 KECCAK256 DUP3 MLOAD PUSH1 0x2 SWAP1 SWAP3 MUL ADD SWAP1 DUP2 SWAP1 PUSH2 0x1DC8 SWAP1 DUP3 PUSH2 0x4867 JUMP JUMPDEST POP PUSH1 0x20 SWAP2 SWAP1 SWAP2 ADD MLOAD PUSH1 0x1 SWAP2 DUP3 ADD SSTORE ADD PUSH2 0x1D77 JUMP JUMPDEST POP DUP6 PUSH1 0x1 PUSH1 0x1 PUSH1 0xA0 SHL SUB AND DUP3 DUP7 PUSH32 0x5753F04758D72C07FFC0A1F59241391A57CE340804EBDDA56F510EF21E83EBF0 DUP8 PUSH1 0x40 MLOAD PUSH2 0x1E18 SWAP2 SWAP1 PUSH2 0x4928 JUMP JUMPDEST PUSH1 0x40 MLOAD DUP1 SWAP2 SUB SWAP1 LOG4 POP POP POP POP POP POP JUMP JUMPDEST PUSH2 0x16CC CALLER DUP5 DUP5 DUP5 JUMPDEST PUSH1 0x0 DUP4 DUP2 MSTORE PUSH1 0x4 PUSH1 0x20 MSTORE PUSH1 0x40 DUP2 KECCAK256 SLOAD SWAP1 SUB PUSH2 0x1E5D JUMPI PUSH1 0x40 MLOAD PUSH3 0x461BCD PUSH1 0xE5 SHL DUP2 MSTORE PUSH1 0x4 ADD PUSH2 0xA24 SWAP1 PUSH2 0x493B JUMP JUMPDEST PUSH1 0x0 DUP4 DUP2 MSTORE PUSH1 0x4 PUSH1 0x20 DUP2 SWAP1 MSTORE PUSH1 0x40 SWAP1 SWAP2 KECCAK256 ADD SLOAD PUSH1 0xFF AND ISZERO PUSH2 0x1EB6 JUMPI PUSH1 0x40 MLOAD PUSH3 0x461BCD PUSH1 0xE5 SHL DUP2 MSTORE PUSH1 0x20 PUSH1 0x4 DUP3 ADD MSTORE PUSH1 0x13 PUSH1 0x24 DUP3 ADD MSTORE PUSH19 0x129BD8881B5D5CDD081899481CDD185C9D1959 PUSH1 0x6A SHL PUSH1 0x44 DUP3 ADD MSTORE PUSH1 0x64 ADD PUSH2 0xA24 JUMP JUMPDEST PUSH1 0x1 DUP2 LT ISZERO DUP1 ISZERO PUSH2 0x1EC8 JUMPI POP PUSH1 0x5 DUP2 GT ISZERO JUMPDEST PUSH2 0x1F14 JUMPI PUSH1 0x40 MLOAD PUSH3 0x461BCD PUSH1 0xE5 SHL DUP2 MSTORE PUSH1 0x20 PUSH1 0x4 DUP3 ADD MSTORE PUSH1 0x1E PUSH1 0x24 DUP3 ADD MSTORE PUSH32 0x526174696E67206D757374206265206265747765656E203120616E6420350000 PUSH1 0x44 DUP3 ADD MSTORE PUSH1 0x64 ADD PUSH2 0xA24 JUMP JUMPDEST PUSH1 0x0 DUP4 DUP2 MSTORE PUSH1 0x7 PUSH1 0x20 SWAP1 DUP2 MSTORE PUSH1 0x40 DUP1 DUP4 KECCAK256 PUSH1 0x1 PUSH1 0x1 PUSH1 0xA0 SHL SUB DUP7 AND DUP5 MSTORE SWAP1 SWAP2 MSTORE SWAP1 KECCAK256 SLOAD ISZERO PUSH2 0x1F84 JUMPI PUSH1 0x40 MLOAD PUSH3 0x461BCD PUSH1 0xE5 SHL DUP2 MSTORE PUSH1 0x20 PUSH1 0x4 DUP3 ADD MSTORE PUSH1 0x1F PUSH1 0x24 DUP3 ADD MSTORE PUSH32 0x5573657220616C726561647920726174656420666F722074686973206A6F6200 PUSH1 0x44 DUP3 ADD MSTORE PUSH1 0x64 ADD PUSH2 0xA24 JUMP JUMPDEST PUSH1 0x0 DUP4 DUP2 MSTORE PUSH1 0x4 PUSH1 0x20 MSTORE PUSH1 0x40 DUP2 KECCAK256 PUSH1 0x1 ADD SLOAD PUSH1 0x1 PUSH1 0x1 PUSH1 0xA0 SHL SUB DUP7 DUP2 AND SWAP2 AND EQ DUP1 ISZERO PUSH2 0x1FCC JUMPI POP PUSH1 0x0 DUP5 DUP2 MSTORE PUSH1 0x4 PUSH1 0x20 MSTORE PUSH1 0x40 SWAP1 KECCAK256 PUSH1 0xB ADD SLOAD PUSH1 0x1 PUSH1 0x1 PUSH1 0xA0 SHL SUB DUP5 DUP2 AND SWAP2 AND EQ JUMPDEST ISZERO PUSH2 0x1FD9 JUMPI POP PUSH1 0x1 PUSH2 0x202A JUMP JUMPDEST PUSH1 0x0 DUP5 DUP2 MSTORE PUSH1 0x4 PUSH1 0x20 MSTORE PUSH1 0x40 SWAP1 KECCAK256 PUSH1 0xB ADD SLOAD PUSH1 0x1 PUSH1 0x1 PUSH1 0xA0 SHL SUB DUP7 DUP2 AND SWAP2 AND EQ DUP1 ISZERO PUSH2 0x2021 JUMPI POP PUSH1 0x0 DUP5 DUP2 MSTORE PUSH1 0x4 PUSH1 0x20 MSTORE PUSH1 0x40 SWAP1 KECCAK256 PUSH1 0x1 ADD SLOAD PUSH1 0x1 PUSH1 0x1 PUSH1 0xA0 SHL SUB DUP5 DUP2 AND SWAP2 AND EQ JUMPDEST ISZERO PUSH2 0x202A JUMPI POP PUSH1 0x1 JUMPDEST DUP1 PUSH2 0x208D JUMPI PUSH1 0x40 MLOAD PUSH3 0x461BCD PUSH1 0xE5 SHL DUP2 MSTORE PUSH1 0x20 PUSH1 0x4 DUP3 ADD MSTORE PUSH1 0x2D PUSH1 0x24 DUP3 ADD MSTORE PUSH32 0x4E6F7420617574686F72697A656420746F207261746520746869732075736572 PUSH1 0x44 DUP3 ADD MSTORE PUSH13 0x103337B9103A3434B9903537B1 PUSH1 0x99 SHL PUSH1 0x64 DUP3 ADD MSTORE PUSH1 0x84 ADD PUSH2 0xA24 JUMP JUMPDEST PUSH1 0x0 DUP5 DUP2 MSTORE PUSH1 0x7 PUSH1 0x20 SWAP1 DUP2 MSTORE PUSH1 0x40 DUP1 DUP4 KECCAK256 PUSH1 0x1 PUSH1 0x1 PUSH1 0xA0 SHL SUB DUP8 DUP2 AND DUP1 DUP7 MSTORE SWAP2 DUP5 MSTORE DUP3 DUP6 KECCAK256 DUP8 SWAP1 SSTORE PUSH1 0x8 DUP5 MSTORE DUP3 DUP6 KECCAK256 DUP1 SLOAD PUSH1 0x1 DUP2 ADD DUP3 SSTORE SWAP1 DUP7 MSTORE SWAP5 DUP5 SWAP1 KECCAK256 SWAP1 SWAP5 ADD DUP7 SWAP1 SSTORE SWAP1 MLOAD DUP6 DUP2 MSTORE SWAP1 SWAP3 DUP9 AND SWAP2 DUP8 SWAP2 PUSH32 0xABFDB5CA6197E86C57B31CFFB45DAC27A3EFF08D7E825B6F1FB66C2C06FEF6D7 SWAP2 ADD PUSH1 0x40 MLOAD DUP1 SWAP2 SUB SWAP1 LOG4 POP POP POP POP POP JUMP JUMPDEST PUSH1 0x0 DUP3 DUP2 MSTORE PUSH1 0x4 PUSH1 0x20 MSTORE PUSH1 0x40 DUP2 KECCAK256 SLOAD SWAP1 SUB PUSH2 0x213C JUMPI PUSH1 0x40 MLOAD PUSH3 0x461BCD PUSH1 0xE5 SHL DUP2 MSTORE PUSH1 0x4 ADD PUSH2 0xA24 SWAP1 PUSH2 0x493B JUMP JUMPDEST PUSH1 0x0 DUP3 DUP2 MSTORE PUSH1 0x4 PUSH1 0x20 DUP2 SWAP1 MSTORE PUSH1 0x40 SWAP1 SWAP2 KECCAK256 ADD SLOAD PUSH1 0xFF AND ISZERO PUSH2 0x2195 JUMPI PUSH1 0x40 MLOAD PUSH3 0x461BCD PUSH1 0xE5 SHL DUP2 MSTORE PUSH1 0x20 PUSH1 0x4 DUP3 ADD MSTORE PUSH1 0x13 PUSH1 0x24 DUP3 ADD MSTORE PUSH19 0x129BD8881B5D5CDD081899481CDD185C9D1959 PUSH1 0x6A SHL PUSH1 0x44 DUP3 ADD MSTORE PUSH1 0x64 ADD PUSH2 0xA24 JUMP JUMPDEST PUSH1 0x0 DUP3 DUP2 MSTORE PUSH1 0x4 PUSH1 0x20 MSTORE PUSH1 0x40 SWAP1 KECCAK256 PUSH1 0xB ADD SLOAD PUSH1 0x1 PUSH1 0x1 PUSH1 0xA0 SHL SUB DUP5 DUP2 AND SWAP2 AND EQ PUSH2 0x2211 JUMPI PUSH1 0x40 MLOAD PUSH3 0x461BCD PUSH1 0xE5 SHL DUP2 MSTORE PUSH1 0x20 PUSH1 0x4 DUP3 ADD MSTORE PUSH1 0x27 PUSH1 0x24 DUP3 ADD MSTORE PUSH32 0x4F6E6C792073656C6563746564206170706C6963616E742063616E207375626D PUSH1 0x44 DUP3 ADD MSTORE PUSH7 0x697420776F726B PUSH1 0xC8 SHL PUSH1 0x64 DUP3 ADD MSTORE PUSH1 0x84 ADD PUSH2 0xA24 JUMP JUMPDEST PUSH1 0x0 DUP3 DUP2 MSTORE PUSH1 0x4 PUSH1 0x20 MSTORE PUSH1 0x40 SWAP1 KECCAK256 PUSH1 0x7 DUP2 ADD SLOAD PUSH1 0xA SWAP1 SWAP2 ADD SLOAD GT ISZERO PUSH2 0x2273 JUMPI PUSH1 0x40 MLOAD PUSH3 0x461BCD PUSH1 0xE5 SHL DUP2 MSTORE PUSH1 0x20 PUSH1 0x4 DUP3 ADD MSTORE PUSH1 0x18 PUSH1 0x24 DUP3 ADD MSTORE PUSH24 0x105B1B081B5A5B195CDD1BDB995CC818DBDB5C1B195D1959 PUSH1 0x42 SHL PUSH1 0x44 DUP3 ADD MSTORE PUSH1 0x64 ADD PUSH2 0xA24 JUMP JUMPDEST PUSH1 0x0 DUP3 DUP2 MSTORE PUSH1 0x4 PUSH1 0x20 SWAP1 DUP2 MSTORE PUSH1 0x40 DUP3 KECCAK256 PUSH1 0x5 ADD DUP1 SLOAD PUSH1 0x1 DUP2 ADD DUP3 SSTORE SWAP1 DUP4 MSTORE SWAP2 KECCAK256 ADD PUSH2 0x229E DUP3 DUP3 PUSH2 0x4867 JUMP JUMPDEST POP DUP3 PUSH1 0x1 PUSH1 0x1 PUSH1 0xA0 SHL SUB AND DUP3 PUSH32 0x1AB2C8B3DB130B04659C610D59CD31E68A4D43F1E7B4CDB8E98D9571C9C6BFD6 DUP4 PUSH1 0x4 PUSH1 0x0 DUP8 DUP2 MSTORE PUSH1 0x20 ADD SWAP1 DUP2 MSTORE PUSH1 0x20 ADD PUSH1 0x0 KECCAK256 PUSH1 0xA ADD SLOAD PUSH1 0x40 MLOAD PUSH2 0x22F1 SWAP3 SWAP2 SWAP1 PUSH2 0x4989 JUMP JUMPDEST PUSH1 0x40 MLOAD DUP1 SWAP2 SUB SWAP1 LOG3 POP POP POP JUMP JUMPDEST PUSH1 0x2 PUSH1 0x20 MSTORE PUSH1 0x0 SWAP1 DUP2 MSTORE PUSH1 0x40 SWAP1 KECCAK256 DUP1 SLOAD PUSH1 0x1 DUP3 ADD DUP1 SLOAD PUSH1 0x1 PUSH1 0x1 PUSH1 0xA0 SHL SUB SWAP1 SWAP3 AND SWAP3 SWAP2 PUSH2 0x232A SWAP1 PUSH2 0x4794 JUMP JUMPDEST DUP1 PUSH1 0x1F ADD PUSH1 0x20 DUP1 SWAP2 DIV MUL PUSH1 0x20 ADD PUSH1 0x40 MLOAD SWAP1 DUP2 ADD PUSH1 0x40 MSTORE DUP1 SWAP3 SWAP2 SWAP1 DUP2 DUP2 MSTORE PUSH1 0x20 ADD DUP3 DUP1 SLOAD PUSH2 0x2356 SWAP1 PUSH2 0x4794 JUMP JUMPDEST DUP1 ISZERO PUSH2 0x23A3 JUMPI DUP1 PUSH1 0x1F LT PUSH2 0x2378 JUMPI PUSH2 0x100 DUP1 DUP4 SLOAD DIV MUL DUP4 MSTORE SWAP2 PUSH1 0x20 ADD SWAP2 PUSH2 0x23A3 JUMP JUMPDEST DUP3 ADD SWAP2 SWAP1 PUSH1 0x0 MSTORE PUSH1 0x20 PUSH1 0x0 KECCAK256 SWAP1 JUMPDEST DUP2 SLOAD DUP2 MSTORE SWAP1 PUSH1 0x1 ADD SWAP1 PUSH1 0x20 ADD DUP1 DUP4 GT PUSH2 0x2386 JUMPI DUP3 SWAP1 SUB PUSH1 0x1F AND DUP3 ADD SWAP2 JUMPDEST POP POP POP POP PUSH1 0x2 DUP4 ADD SLOAD PUSH1 0x3 SWAP1 SWAP4 ADD SLOAD SWAP2 SWAP3 PUSH1 0x1 PUSH1 0x1 PUSH1 0xA0 SHL SUB AND SWAP2 SWAP1 POP DUP5 JUMP JUMPDEST PUSH1 0x8 PUSH1 0x20 MSTORE DUP2 PUSH1 0x0 MSTORE PUSH1 0x40 PUSH1 0x0 KECCAK256 DUP2 DUP2 SLOAD DUP2 LT PUSH2 0x23DF JUMPI PUSH1 0x0 DUP1 REVERT JUMPDEST SWAP1 PUSH1 0x0 MSTORE PUSH1 0x20 PUSH1 0x0 KECCAK256 ADD PUSH1 0x0 SWAP2 POP SWAP2 POP POP SLOAD DUP2 JUMP JUMPDEST PUSH2 0x23FC PUSH2 0x395C JUMP JUMPDEST PUSH1 0x0 DUP3 DUP2 MSTORE PUSH1 0x4 PUSH1 0x20 MSTORE PUSH1 0x40 DUP2 KECCAK256 SLOAD SWAP1 SUB PUSH2 0x2429 JUMPI PUSH1 0x40 MLOAD PUSH3 0x461BCD PUSH1 0xE5 SHL DUP2 MSTORE PUSH1 0x4 ADD PUSH2 0xA24 SWAP1 PUSH2 0x493B JUMP JUMPDEST PUSH1 0x0 DUP3 DUP2 MSTORE PUSH1 0x4 PUSH1 0x20 SWAP1 DUP2 MSTORE PUSH1 0x40 SWAP2 DUP3 SWAP1 KECCAK256 DUP3 MLOAD PUSH2 0x1A0 DUP2 ADD DUP5 MSTORE DUP2 SLOAD DUP2 MSTORE PUSH1 0x1 DUP3 ADD SLOAD PUSH1 0x1 PUSH1 0x1 PUSH1 0xA0 SHL SUB AND DUP2 DUP5 ADD MSTORE PUSH1 0x2 DUP3 ADD DUP1 SLOAD DUP6 MLOAD DUP2 DUP7 MUL DUP2 ADD DUP7 ADD DUP8 MSTORE DUP2 DUP2 MSTORE SWAP3 SWAP6 SWAP4 SWAP5 SWAP4 DUP7 ADD SWAP4 DUP4 ADD DUP3 DUP3 DUP1 ISZERO PUSH2 0x24AF JUMPI PUSH1 0x20 MUL DUP3 ADD SWAP2 SWAP1 PUSH1 0x0 MSTORE PUSH1 0x20 PUSH1 0x0 KECCAK256 SWAP1 JUMPDEST DUP2 SLOAD PUSH1 0x1 PUSH1 0x1 PUSH1 0xA0 SHL SUB AND DUP2 MSTORE PUSH1 0x1 SWAP1 SWAP2 ADD SWAP1 PUSH1 0x20 ADD DUP1 DUP4 GT PUSH2 0x2491 JUMPI JUMPDEST POP POP POP POP POP DUP2 MSTORE PUSH1 0x20 ADD PUSH1 0x3 DUP3 ADD DUP1 SLOAD PUSH2 0x24C8 SWAP1 PUSH2 0x4794 JUMP JUMPDEST DUP1 PUSH1 0x1F ADD PUSH1 0x20 DUP1 SWAP2 DIV MUL PUSH1 0x20 ADD PUSH1 0x40 MLOAD SWAP1 DUP2 ADD PUSH1 0x40 MSTORE DUP1 SWAP3 SWAP2 SWAP1 DUP2 DUP2 MSTORE PUSH1 0x20 ADD DUP3 DUP1 SLOAD PUSH2 0x24F4 SWAP1 PUSH2 0x4794 JUMP JUMPDEST DUP1 ISZERO PUSH2 0x2541 JUMPI DUP1 PUSH1 0x1F LT PUSH2 0x2516 JUMPI PUSH2 0x100 DUP1 DUP4 SLOAD DIV MUL DUP4 MSTORE SWAP2 PUSH1 0x20 ADD SWAP2 PUSH2 0x2541 JUMP JUMPDEST DUP3 ADD SWAP2 SWAP1 PUSH1 0x0 MSTORE PUSH1 0x20 PUSH1 0x0 KECCAK256 SWAP1 JUMPDEST DUP2 SLOAD DUP2 MSTORE SWAP1 PUSH1 0x1 ADD SWAP1 PUSH1 0x20 ADD DUP1 DUP4 GT PUSH2 0x2524 JUMPI DUP3 SWAP1 SUB PUSH1 0x1F AND DUP3 ADD SWAP2 JUMPDEST POP POP POP SWAP2 DUP4 MSTORE POP POP PUSH1 0x4 DUP3 ADD SLOAD PUSH1 0xFF AND ISZERO ISZERO PUSH1 0x20 DUP1 DUP4 ADD SWAP2 SWAP1 SWAP2 MSTORE PUSH1 0x5 DUP4 ADD DUP1 SLOAD PUSH1 0x40 DUP1 MLOAD DUP3 DUP6 MUL DUP2 ADD DUP6 ADD DUP3 MSTORE DUP3 DUP2 MSTORE SWAP5 ADD SWAP4 SWAP3 PUSH1 0x0 SWAP1 DUP5 ADD JUMPDEST DUP3 DUP3 LT ISZERO PUSH2 0x2628 JUMPI DUP4 DUP3 SWAP1 PUSH1 0x0 MSTORE PUSH1 0x20 PUSH1 0x0 KECCAK256 ADD DUP1 SLOAD PUSH2 0x259B SWAP1 PUSH2 0x4794 JUMP JUMPDEST DUP1 PUSH1 0x1F ADD PUSH1 0x20 DUP1 SWAP2 DIV MUL PUSH1 0x20 ADD PUSH1 0x40 MLOAD SWAP1 DUP2 ADD PUSH1 0x40 MSTORE DUP1 SWAP3 SWAP2 SWAP1 DUP2 DUP2 MSTORE PUSH1 0x20 ADD DUP3 DUP1 SLOAD PUSH2 0x25C7 SWAP1 PUSH2 0x4794 JUMP JUMPDEST DUP1 ISZERO PUSH2 0x2614 JUMPI DUP1 PUSH1 0x1F LT PUSH2 0x25E9 JUMPI PUSH2 0x100 DUP1 DUP4 SLOAD DIV MUL DUP4 MSTORE SWAP2 PUSH1 0x20 ADD SWAP2 PUSH2 0x2614 JUMP JUMPDEST DUP3 ADD SWAP2 SWAP1 PUSH1 0x0 MSTORE PUSH1 0x20 PUSH1 0x0 KECCAK256 SWAP1 JUMPDEST DUP2 SLOAD DUP2 MSTORE SWAP1 PUSH1 0x1 ADD SWAP1 PUSH1 0x20 ADD DUP1 DUP4 GT PUSH2 0x25F7 JUMPI DUP3 SWAP1 SUB PUSH1 0x1F AND DUP3 ADD SWAP2 JUMPDEST POP POP POP POP POP DUP2 MSTORE PUSH1 0x20 ADD SWAP1 PUSH1 0x1 ADD SWAP1 PUSH2 0x257C JUMP JUMPDEST POP POP POP POP DUP2 MSTORE PUSH1 0x20 ADD PUSH1 0x6 DUP3 ADD DUP1 SLOAD DUP1 PUSH1 0x20 MUL PUSH1 0x20 ADD PUSH1 0x40 MLOAD SWAP1 DUP2 ADD PUSH1 0x40 MSTORE DUP1 SWAP3 SWAP2 SWAP1 DUP2 DUP2 MSTORE PUSH1 0x20 ADD PUSH1 0x0 SWAP1 JUMPDEST DUP3 DUP3 LT ISZERO PUSH2 0x2723 JUMPI DUP4 DUP3 SWAP1 PUSH1 0x0 MSTORE PUSH1 0x20 PUSH1 0x0 KECCAK256 SWAP1 PUSH1 0x2 MUL ADD PUSH1 0x40 MLOAD DUP1 PUSH1 0x40 ADD PUSH1 0x40 MSTORE SWAP1 DUP2 PUSH1 0x0 DUP3 ADD DUP1 SLOAD PUSH2 0x2688 SWAP1 PUSH2 0x4794 JUMP JUMPDEST DUP1 PUSH1 0x1F ADD PUSH1 0x20 DUP1 SWAP2 DIV MUL PUSH1 0x20 ADD PUSH1 0x40 MLOAD SWAP1 DUP2 ADD PUSH1 0x40 MSTORE DUP1 SWAP3 SWAP2 SWAP1 DUP2 DUP2 MSTORE PUSH1 0x20 ADD DUP3 DUP1 SLOAD PUSH2 0x26B4 SWAP1 PUSH2 0x4794 JUMP JUMPDEST DUP1 ISZERO PUSH2 0x2701 JUMPI DUP1 PUSH1 0x1F LT PUSH2 0x26D6 JUMPI PUSH2 0x100 DUP1 DUP4 SLOAD DIV MUL DUP4 MSTORE SWAP2 PUSH1 0x20 ADD SWAP2 PUSH2 0x2701 JUMP JUMPDEST DUP3 ADD SWAP2 SWAP1 PUSH1 0x0 MSTORE PUSH1 0x20 PUSH1 0x0 KECCAK256 SWAP1 JUMPDEST DUP2 SLOAD DUP2 MSTORE SWAP1 PUSH1 0x1 ADD SWAP1 PUSH1 0x20 ADD DUP1 DUP4 GT PUSH2 0x26E4 JUMPI DUP3 SWAP1 SUB PUSH1 0x1F AND DUP3 ADD SWAP2 JUMPDEST POP POP POP POP POP DUP2 MSTORE PUSH1 0x20 ADD PUSH1 0x1 DUP3 ADD SLOAD DUP2 MSTORE POP POP DUP2 MSTORE PUSH1 0x20 ADD SWAP1 PUSH1 0x1 ADD SWAP1 PUSH2 0x2655 JUMP JUMPDEST POP POP POP POP DUP2 MSTORE PUSH1 0x20 ADD PUSH1 0x7 DUP3 ADD DUP1 SLOAD DUP1 PUSH1 0x20 MUL PUSH1 0x20 ADD PUSH1 0x40 MLOAD SWAP1 DUP2 ADD PUSH1 0x40 MSTORE DUP1 SWAP3 SWAP2 SWAP1 DUP2 DUP2 MSTORE PUSH1 0x20 ADD PUSH1 0x0 SWAP1 JUMPDEST DUP3 DUP3 LT ISZERO PUSH2 0x162F JUMPI DUP4 DUP3 SWAP1 PUSH1 0x0 MSTORE PUSH1 0x20 PUSH1 0x0 KECCAK256 SWAP1 PUSH1 0x2 MUL ADD PUSH1 0x40 MLOAD DUP1 PUSH1 0x40 ADD PUSH1 0x40 MSTORE SWAP1 DUP2 PUSH1 0x0 DUP3 ADD DUP1 SLOAD PUSH2 0x2783 SWAP1 PUSH2 0x4794 JUMP JUMPDEST DUP1 PUSH1 0x1F ADD PUSH1 0x20 DUP1 SWAP2 DIV MUL PUSH1 0x20 ADD PUSH1 0x40 MLOAD SWAP1 DUP2 ADD PUSH1 0x40 MSTORE DUP1 SWAP3 SWAP2 SWAP1 DUP2 DUP2 MSTORE PUSH1 0x20 ADD DUP3 DUP1 SLOAD PUSH2 0x27AF SWAP1 PUSH2 0x4794 JUMP JUMPDEST DUP1 ISZERO PUSH2 0x27FC JUMPI DUP1 PUSH1 0x1F LT PUSH2 0x27D1 JUMPI PUSH2 0x100 DUP1 DUP4 SLOAD DIV MUL DUP4 MSTORE SWAP2 PUSH1 0x20 ADD SWAP2 PUSH2 0x27FC JUMP JUMPDEST DUP3 ADD SWAP2 SWAP1 PUSH1 0x0 MSTORE PUSH1 0x20 PUSH1 0x0 KECCAK256 SWAP1 JUMPDEST DUP2 SLOAD DUP2 MSTORE SWAP1 PUSH1 0x1 ADD SWAP1 PUSH1 0x20 ADD DUP1 DUP4 GT PUSH2 0x27DF JUMPI DUP3 SWAP1 SUB PUSH1 0x1F AND DUP3 ADD SWAP2 JUMPDEST POP POP POP POP POP DUP2 MSTORE PUSH1 0x20 ADD PUSH1 0x1 DUP3 ADD SLOAD DUP2 MSTORE POP POP DUP2 MSTORE PUSH1 0x20 ADD SWAP1 PUSH1 0x1 ADD SWAP1 PUSH2 0x2750 JUMP JUMPDEST PUSH2 0x2826 PUSH2 0x388A JUMP JUMPDEST PUSH1 0x40 MLOAD PUSH4 0xCA5EB5E1 PUSH1 0xE0 SHL DUP2 MSTORE PUSH1 0x1 PUSH1 0x1 PUSH1 0xA0 SHL SUB DUP3 DUP2 AND PUSH1 0x4 DUP4 ADD MSTORE PUSH32 0x0 AND SWAP1 PUSH4 0xCA5EB5E1 SWAP1 PUSH1 0x24 ADD PUSH1 0x0 PUSH1 0x40 MLOAD DUP1 DUP4 SUB DUP2 PUSH1 0x0 DUP8 DUP1 EXTCODESIZE ISZERO DUP1 ISZERO PUSH2 0x2889 JUMPI PUSH1 0x0 DUP1 REVERT JUMPDEST POP GAS CALL ISZERO DUP1 ISZERO PUSH2 0x289D JUMPI RETURNDATASIZE PUSH1 0x0 DUP1 RETURNDATACOPY RETURNDATASIZE PUSH1 0x0 REVERT JUMPDEST POP POP POP POP POP JUMP JUMPDEST PUSH1 0x0 PUSH1 0x1 JUMPDEST PUSH1 0x9 SLOAD DUP2 GT PUSH2 0x28ED JUMPI PUSH1 0x0 DUP2 DUP2 MSTORE PUSH1 0x5 PUSH1 0x20 SWAP1 DUP2 MSTORE PUSH1 0x40 DUP1 DUP4 KECCAK256 DUP8 DUP5 MSTORE SWAP1 SWAP2 MSTORE SWAP1 KECCAK256 SLOAD DUP5 SWAP1 SUB PUSH2 0x28DB JUMPI DUP1 SWAP2 POP PUSH2 0x28ED JUMP JUMPDEST DUP1 PUSH2 0x28E5 DUP2 PUSH2 0x4807 JUMP JUMPDEST SWAP2 POP POP PUSH2 0x28A9 JUMP JUMPDEST POP DUP1 PUSH1 0x0 SUB PUSH2 0x293E JUMPI PUSH1 0x40 MLOAD PUSH3 0x461BCD PUSH1 0xE5 SHL DUP2 MSTORE PUSH1 0x20 PUSH1 0x4 DUP3 ADD MSTORE PUSH1 0x1A PUSH1 0x24 DUP3 ADD MSTORE PUSH32 0x4170706C69636174696F6E20646F6573206E6F74206578697374000000000000 PUSH1 0x44 DUP3 ADD MSTORE PUSH1 0x64 ADD PUSH2 0xA24 JUMP JUMPDEST PUSH1 0x0 DUP2 DUP2 MSTORE PUSH1 0x5 PUSH1 0x20 SWAP1 DUP2 MSTORE PUSH1 0x40 DUP1 DUP4 KECCAK256 DUP7 DUP5 MSTORE DUP3 MSTORE DUP1 DUP4 KECCAK256 DUP5 DUP5 MSTORE PUSH1 0x4 SWAP1 SWAP3 MSTORE SWAP1 SWAP2 KECCAK256 PUSH1 0x1 DUP2 ADD SLOAD PUSH1 0x1 PUSH1 0x1 PUSH1 0xA0 SHL SUB DUP8 DUP2 AND SWAP2 AND EQ PUSH2 0x29C1 JUMPI PUSH1 0x40 MLOAD PUSH3 0x461BCD PUSH1 0xE5 SHL DUP2 MSTORE PUSH1 0x20 PUSH1 0x4 DUP3 ADD MSTORE PUSH1 0x1C PUSH1 0x24 DUP3 ADD MSTORE PUSH32 0x4F6E6C79206A6F622067697665722063616E207374617274206A6F6200000000 PUSH1 0x44 DUP3 ADD MSTORE PUSH1 0x64 ADD PUSH2 0xA24 JUMP JUMPDEST PUSH1 0x4 DUP2 ADD SLOAD PUSH1 0xFF AND PUSH2 0x2A07 JUMPI PUSH1 0x40 MLOAD PUSH3 0x461BCD PUSH1 0xE5 SHL DUP2 MSTORE PUSH1 0x20 PUSH1 0x4 DUP3 ADD MSTORE PUSH1 0xF PUSH1 0x24 DUP3 ADD MSTORE PUSH15 0x2537B11034B9903737BA1037B832B7 PUSH1 0x89 SHL PUSH1 0x44 DUP3 ADD MSTORE PUSH1 0x64 ADD PUSH2 0xA24 JUMP JUMPDEST PUSH1 0x2 DUP3 ADD SLOAD PUSH1 0x1 PUSH1 0x1 PUSH1 0xA0 SHL SUB AND PUSH2 0x2A57 JUMPI PUSH1 0x40 MLOAD PUSH3 0x461BCD PUSH1 0xE5 SHL DUP2 MSTORE PUSH1 0x20 PUSH1 0x4 DUP3 ADD MSTORE PUSH1 0x13 PUSH1 0x24 DUP3 ADD MSTORE PUSH19 0x24B73B30B634B21030B8383634B1B0BA34B7B7 PUSH1 0x69 SHL PUSH1 0x44 DUP3 ADD MSTORE PUSH1 0x64 ADD PUSH2 0xA24 JUMP JUMPDEST PUSH1 0x2 DUP3 ADD SLOAD PUSH1 0xB DUP3 ADD DUP1 SLOAD PUSH1 0x1 PUSH1 0x1 PUSH1 0xA0 SHL SUB NOT AND PUSH1 0x1 PUSH1 0x1 PUSH1 0xA0 SHL SUB SWAP1 SWAP3 AND SWAP2 SWAP1 SWAP2 OR SWAP1 SSTORE PUSH1 0xC DUP2 ADD DUP6 SWAP1 SSTORE PUSH1 0x4 DUP2 ADD DUP1 SLOAD PUSH1 0xFF NOT AND SWAP1 SSTORE PUSH1 0x1 PUSH1 0xA DUP3 ADD SSTORE DUP4 ISZERO PUSH2 0x2B09 JUMPI PUSH1 0x0 JUMPDEST PUSH1 0x4 DUP4 ADD SLOAD DUP2 LT ISZERO PUSH2 0x2B03 JUMPI DUP2 PUSH1 0x7 ADD DUP4 PUSH1 0x4 ADD DUP3 DUP2 SLOAD DUP2 LT PUSH2 0x2AC5 JUMPI PUSH2 0x2AC5 PUSH2 0x47C8 JUMP JUMPDEST PUSH1 0x0 SWAP2 DUP3 MSTORE PUSH1 0x20 DUP1 DUP4 KECCAK256 DUP5 SLOAD PUSH1 0x1 DUP2 ADD DUP7 SSTORE SWAP5 DUP5 MSTORE SWAP3 KECCAK256 PUSH1 0x2 SWAP2 DUP3 MUL SWAP1 SWAP3 ADD SWAP3 MUL ADD DUP1 PUSH2 0x2AF2 DUP4 DUP3 PUSH2 0x49AB JUMP JUMPDEST POP PUSH1 0x1 SWAP2 DUP3 ADD SLOAD SWAP1 DUP3 ADD SSTORE ADD PUSH2 0x2AA0 JUMP JUMPDEST POP PUSH2 0x2B71 JUMP JUMPDEST PUSH1 0x0 JUMPDEST PUSH1 0x6 DUP3 ADD SLOAD DUP2 LT ISZERO PUSH2 0x2B6F JUMPI DUP2 PUSH1 0x7 ADD DUP3 PUSH1 0x6 ADD DUP3 DUP2 SLOAD DUP2 LT PUSH2 0x2B31 JUMPI PUSH2 0x2B31 PUSH2 0x47C8 JUMP JUMPDEST PUSH1 0x0 SWAP2 DUP3 MSTORE PUSH1 0x20 DUP1 DUP4 KECCAK256 DUP5 SLOAD PUSH1 0x1 DUP2 ADD DUP7 SSTORE SWAP5 DUP5 MSTORE SWAP3 KECCAK256 PUSH1 0x2 SWAP2 DUP3 MUL SWAP1 SWAP3 ADD SWAP3 MUL ADD DUP1 PUSH2 0x2B5E DUP4 DUP3 PUSH2 0x49AB JUMP JUMPDEST POP PUSH1 0x1 SWAP2 DUP3 ADD SLOAD SWAP1 DUP3 ADD SSTORE ADD PUSH2 0x2B0C JUMP JUMPDEST POP JUMPDEST PUSH1 0x2 DUP3 ADD SLOAD PUSH1 0x40 MLOAD DUP6 ISZERO ISZERO DUP2 MSTORE PUSH1 0x1 PUSH1 0x1 PUSH1 0xA0 SHL SUB SWAP1 SWAP2 AND SWAP1 DUP7 SWAP1 DUP6 SWAP1 PUSH32 0xFCA563CB5E680CD8FE4D8893C20EDF9CC5B59F6E8B460ECDAD7AA359A786CF65 SWAP1 PUSH1 0x20 ADD PUSH2 0x1E18 JUMP JUMPDEST PUSH1 0x0 DUP3 DUP2 MSTORE PUSH1 0x4 PUSH1 0x20 MSTORE PUSH1 0x40 DUP2 KECCAK256 SLOAD SWAP1 SUB PUSH2 0x2BE5 JUMPI PUSH1 0x40 MLOAD PUSH3 0x461BCD PUSH1 0xE5 SHL DUP2 MSTORE PUSH1 0x4 ADD PUSH2 0xA24 SWAP1 PUSH2 0x493B JUMP JUMPDEST PUSH1 0x0 DUP3 DUP2 MSTORE PUSH1 0x4 PUSH1 0x20 DUP2 SWAP1 MSTORE PUSH1 0x40 SWAP1 SWAP2 KECCAK256 ADD SLOAD PUSH1 0xFF AND ISZERO PUSH2 0x2C3E JUMPI PUSH1 0x40 MLOAD PUSH3 0x461BCD PUSH1 0xE5 SHL DUP2 MSTORE PUSH1 0x20 PUSH1 0x4 DUP3 ADD MSTORE PUSH1 0x13 PUSH1 0x24 DUP3 ADD MSTORE PUSH19 0x129BD8881B5D5CDD081899481CDD185C9D1959 PUSH1 0x6A SHL PUSH1 0x44 DUP3 ADD MSTORE PUSH1 0x64 ADD PUSH2 0xA24 JUMP JUMPDEST PUSH1 0x0 DUP3 DUP2 MSTORE PUSH1 0x4 PUSH1 0x20 MSTORE PUSH1 0x40 SWAP1 KECCAK256 PUSH1 0x7 DUP2 ADD SLOAD PUSH1 0xA SWAP1 SWAP2 ADD SLOAD LT PUSH2 0x2CA4 JUMPI PUSH1 0x40 MLOAD PUSH3 0x461BCD PUSH1 0xE5 SHL DUP2 MSTORE PUSH1 0x20 PUSH1 0x4 DUP3 ADD DUP2 SWAP1 MSTORE PUSH1 0x24 DUP3 ADD MSTORE PUSH32 0x416C6C206D696C6573746F6E657320616C726561647920636F6D706C65746564 PUSH1 0x44 DUP3 ADD MSTORE PUSH1 0x64 ADD PUSH2 0xA24 JUMP JUMPDEST PUSH1 0x0 DUP3 DUP2 MSTORE PUSH1 0x4 PUSH1 0x20 MSTORE PUSH1 0x40 DUP2 KECCAK256 PUSH1 0xA ADD DUP1 SLOAD PUSH1 0x1 SWAP3 SWAP1 PUSH2 0x2CC6 SWAP1 DUP5 SWAP1 PUSH2 0x47F4 JUMP JUMPDEST SWAP1 SWAP2 SSTORE POP POP PUSH1 0x0 DUP3 DUP2 MSTORE PUSH1 0x4 PUSH1 0x20 SWAP1 DUP2 MSTORE PUSH1 0x40 SWAP2 DUP3 SWAP1 KECCAK256 PUSH1 0x9 DUP2 ADD DUP5 SWAP1 SSTORE PUSH1 0xA ADD SLOAD DUP3 MLOAD SWAP1 DUP2 MSTORE SWAP1 DUP2 ADD DUP4 SWAP1 MSTORE DUP4 SWAP2 PUSH32 0xE60846A8F6E10630B3D17D79F8AA4962E7A3ABE024C788262EC30BC55D17B797 SWAP2 ADD PUSH1 0x40 MLOAD DUP1 SWAP2 SUB SWAP1 LOG2 POP POP POP JUMP JUMPDEST PUSH2 0x11EF CALLER DUP4 DUP4 PUSH2 0x210F JUMP JUMPDEST PUSH1 0x0 DUP3 DUP2 MSTORE PUSH1 0x4 PUSH1 0x20 MSTORE PUSH1 0x40 DUP2 KECCAK256 SLOAD SWAP1 SUB PUSH2 0x2D5D JUMPI PUSH1 0x40 MLOAD PUSH3 0x461BCD PUSH1 0xE5 SHL DUP2 MSTORE PUSH1 0x4 ADD PUSH2 0xA24 SWAP1 PUSH2 0x493B JUMP JUMPDEST PUSH1 0x0 DUP3 DUP2 MSTORE PUSH1 0x4 PUSH1 0x20 MSTORE PUSH1 0x40 SWAP1 KECCAK256 PUSH1 0x1 ADD SLOAD PUSH1 0x1 PUSH1 0x1 PUSH1 0xA0 SHL SUB DUP5 DUP2 AND SWAP2 AND EQ PUSH2 0x2DD4 JUMPI PUSH1 0x40 MLOAD PUSH3 0x461BCD PUSH1 0xE5 SHL DUP2 MSTORE PUSH1 0x20 PUSH1 0x4 DUP3 ADD MSTORE PUSH1 0x22 PUSH1 0x24 DUP3 ADD MSTORE PUSH32 0x4F6E6C79206A6F622067697665722063616E2072656C65617365207061796D65 PUSH1 0x44 DUP3 ADD MSTORE PUSH2 0x1B9D PUSH1 0xF2 SHL PUSH1 0x64 DUP3 ADD MSTORE PUSH1 0x84 ADD PUSH2 0xA24 JUMP JUMPDEST PUSH1 0x0 DUP3 DUP2 MSTORE PUSH1 0x4 PUSH1 0x20 DUP2 SWAP1 MSTORE PUSH1 0x40 SWAP1 SWAP2 KECCAK256 ADD SLOAD PUSH1 0xFF AND ISZERO PUSH2 0x2E2D JUMPI PUSH1 0x40 MLOAD PUSH3 0x461BCD PUSH1 0xE5 SHL DUP2 MSTORE PUSH1 0x20 PUSH1 0x4 DUP3 ADD MSTORE PUSH1 0x13 PUSH1 0x24 DUP3 ADD MSTORE PUSH19 0x129BD8881B5D5CDD081899481CDD185C9D1959 PUSH1 0x6A SHL PUSH1 0x44 DUP3 ADD MSTORE PUSH1 0x64 ADD PUSH2 0xA24 JUMP JUMPDEST PUSH1 0x0 DUP3 DUP2 MSTORE PUSH1 0x4 PUSH1 0x20 MSTORE PUSH1 0x40 SWAP1 KECCAK256 PUSH1 0xB ADD SLOAD PUSH1 0x1 PUSH1 0x1 PUSH1 0xA0 SHL SUB AND PUSH2 0x2E94 JUMPI PUSH1 0x40 MLOAD PUSH3 0x461BCD PUSH1 0xE5 SHL DUP2 MSTORE PUSH1 0x20 PUSH1 0x4 DUP3 ADD MSTORE PUSH1 0x15 PUSH1 0x24 DUP3 ADD MSTORE PUSH32 0x4E6F206170706C6963616E742073656C65637465640000000000000000000000 PUSH1 0x44 DUP3 ADD MSTORE PUSH1 0x64 ADD PUSH2 0xA24 JUMP JUMPDEST PUSH1 0x0 DUP3 DUP2 MSTORE PUSH1 0x4 PUSH1 0x20 MSTORE PUSH1 0x40 SWAP1 KECCAK256 PUSH1 0x7 DUP2 ADD SLOAD PUSH1 0xA SWAP1 SWAP2 ADD SLOAD GT ISZERO PUSH2 0x2EF6 JUMPI PUSH1 0x40 MLOAD PUSH3 0x461BCD PUSH1 0xE5 SHL DUP2 MSTORE PUSH1 0x20 PUSH1 0x4 DUP3 ADD MSTORE PUSH1 0x18 PUSH1 0x24 DUP3 ADD MSTORE PUSH24 0x105B1B081B5A5B195CDD1BDB995CC818DBDB5C1B195D1959 PUSH1 0x42 SHL PUSH1 0x44 DUP3 ADD MSTORE PUSH1 0x64 ADD PUSH2 0xA24 JUMP JUMPDEST PUSH1 0x0 DUP3 DUP2 MSTORE PUSH1 0x4 PUSH1 0x20 MSTORE PUSH1 0x40 DUP2 KECCAK256 PUSH1 0x8 ADD DUP1 SLOAD DUP4 SWAP3 SWAP1 PUSH2 0x2F17 SWAP1 DUP5 SWAP1 PUSH2 0x47F4 JUMP JUMPDEST SWAP1 SWAP2 SSTORE POP POP PUSH1 0xB SLOAD PUSH1 0x1 PUSH1 0x1 PUSH1 0xA0 SHL SUB AND ISZERO PUSH2 0x2F93 JUMPI PUSH1 0xB SLOAD PUSH1 0x40 MLOAD PUSH4 0x12FCA103 PUSH1 0xE3 SHL DUP2 MSTORE PUSH1 0x4 DUP2 ADD DUP5 SWAP1 MSTORE PUSH1 0x24 DUP2 ADD DUP4 SWAP1 MSTORE PUSH1 0x1 PUSH1 0x1 PUSH1 0xA0 SHL SUB SWAP1 SWAP2 AND SWAP1 PUSH4 0x97E50818 SWAP1 PUSH1 0x44 ADD PUSH1 0x0 PUSH1 0x40 MLOAD DUP1 DUP4 SUB DUP2 PUSH1 0x0 DUP8 DUP1 EXTCODESIZE ISZERO DUP1 ISZERO PUSH2 0x2F7A JUMPI PUSH1 0x0 DUP1 REVERT JUMPDEST POP GAS CALL ISZERO DUP1 ISZERO PUSH2 0x2F8E JUMPI RETURNDATASIZE PUSH1 0x0 DUP1 RETURNDATACOPY RETURNDATASIZE PUSH1 0x0 REVERT JUMPDEST POP POP POP POP JUMPDEST PUSH1 0x0 DUP3 DUP2 MSTORE PUSH1 0x4 PUSH1 0x20 SWAP1 DUP2 MSTORE PUSH1 0x40 SWAP2 DUP3 SWAP1 KECCAK256 PUSH1 0xB DUP2 ADD SLOAD PUSH1 0xA SWAP1 SWAP2 ADD SLOAD DUP4 MLOAD DUP6 DUP2 MSTORE SWAP3 DUP4 ADD MSTORE PUSH1 0x1 PUSH1 0x1 PUSH1 0xA0 SHL SUB SWAP1 DUP2 AND SWAP3 SWAP1 DUP7 AND SWAP2 DUP6 SWAP2 PUSH32 0xD6879B8E4639BF88A9CA9E3122B381ED4A48625F051842C7E6885F72EF00F479 SWAP2 ADD PUSH1 0x40 MLOAD DUP1 SWAP2 SUB SWAP1 LOG4 POP POP POP JUMP JUMPDEST PUSH2 0x3003 PUSH2 0x388A JUMP JUMPDEST PUSH1 0xB DUP1 SLOAD PUSH1 0x1 PUSH1 0x1 PUSH1 0xA0 SHL SUB NOT AND PUSH1 0x1 PUSH1 0x1 PUSH1 0xA0 SHL SUB SWAP3 SWAP1 SWAP3 AND SWAP2 SWAP1 SWAP2 OR SWAP1 SSTORE JUMP JUMPDEST PUSH1 0x1 PUSH1 0x1 PUSH1 0xA0 SHL SUB DUP5 AND PUSH1 0x0 SWAP1 DUP2 MSTORE PUSH1 0x3 PUSH1 0x20 MSTORE PUSH1 0x40 SWAP1 KECCAK256 SLOAD PUSH1 0xFF AND ISZERO PUSH2 0x308E JUMPI PUSH1 0x40 MLOAD PUSH3 0x461BCD PUSH1 0xE5 SHL DUP2 MSTORE PUSH1 0x20 PUSH1 0x4 DUP3 ADD MSTORE PUSH1 0x16 PUSH1 0x24 DUP3 ADD MSTORE PUSH32 0x50726F66696C6520616C72656164792065786973747300000000000000000000 PUSH1 0x44 DUP3 ADD MSTORE PUSH1 0x64 ADD PUSH2 0xA24 JUMP JUMPDEST PUSH1 0x40 MLOAD DUP1 PUSH1 0xA0 ADD PUSH1 0x40 MSTORE DUP1 DUP6 PUSH1 0x1 PUSH1 0x1 PUSH1 0xA0 SHL SUB AND DUP2 MSTORE PUSH1 0x20 ADD DUP5 DUP2 MSTORE PUSH1 0x20 ADD DUP4 PUSH1 0x1 PUSH1 0x1 PUSH1 0xA0 SHL SUB AND DUP2 MSTORE PUSH1 0x20 ADD DUP3 DUP2 MSTORE PUSH1 0x20 ADD PUSH1 0x0 PUSH1 0x1 PUSH1 0x1 PUSH1 0x40 SHL SUB DUP2 GT ISZERO PUSH2 0x30DC JUMPI PUSH2 0x30DC PUSH2 0x3D6D JUMP JUMPDEST PUSH1 0x40 MLOAD SWAP1 DUP1 DUP3 MSTORE DUP1 PUSH1 0x20 MUL PUSH1 0x20 ADD DUP3 ADD PUSH1 0x40 MSTORE DUP1 ISZERO PUSH2 0x310F JUMPI DUP2 PUSH1 0x20 ADD JUMPDEST PUSH1 0x60 DUP2 MSTORE PUSH1 0x20 ADD SWAP1 PUSH1 0x1 SWAP1 SUB SWAP1 DUP2 PUSH2 0x30FA JUMPI SWAP1 POP JUMPDEST POP SWAP1 MSTORE PUSH1 0x1 PUSH1 0x1 PUSH1 0xA0 SHL SUB DUP6 DUP2 AND PUSH1 0x0 SWAP1 DUP2 MSTORE PUSH1 0x2 PUSH1 0x20 SWAP1 DUP2 MSTORE PUSH1 0x40 SWAP1 SWAP2 KECCAK256 DUP4 MLOAD DUP2 SLOAD PUSH1 0x1 PUSH1 0x1 PUSH1 0xA0 SHL SUB NOT AND SWAP4 AND SWAP3 SWAP1 SWAP3 OR DUP3 SSTORE DUP3 ADD MLOAD PUSH1 0x1 DUP3 ADD SWAP1 PUSH2 0x3156 SWAP1 DUP3 PUSH2 0x4867 JUMP JUMPDEST POP PUSH1 0x40 DUP3 ADD MLOAD PUSH1 0x2 DUP3 ADD DUP1 SLOAD PUSH1 0x1 PUSH1 0x1 PUSH1 0xA0 SHL SUB NOT AND PUSH1 0x1 PUSH1 0x1 PUSH1 0xA0 SHL SUB SWAP1 SWAP3 AND SWAP2 SWAP1 SWAP2 OR SWAP1 SSTORE PUSH1 0x60 DUP3 ADD MLOAD PUSH1 0x3 DUP3 ADD SSTORE PUSH1 0x80 DUP3 ADD MLOAD DUP1 MLOAD PUSH2 0x31A2 SWAP2 PUSH1 0x4 DUP5 ADD SWAP2 PUSH1 0x20 SWAP1 SWAP2 ADD SWAP1 PUSH2 0x39D8 JUMP JUMPDEST POP POP POP PUSH1 0x1 PUSH1 0x1 PUSH1 0xA0 SHL SUB DUP5 AND PUSH1 0x0 DUP2 DUP2 MSTORE PUSH1 0x3 PUSH1 0x20 MSTORE PUSH1 0x40 SWAP1 DUP2 SWAP1 KECCAK256 DUP1 SLOAD PUSH1 0xFF NOT AND PUSH1 0x1 OR SWAP1 SSTORE MLOAD PUSH32 0x5874AFB0D71E1F97E546FC6B15493E51E5CCBEFA591556F8C6A80C8C5151A84F SWAP1 PUSH2 0x31FA SWAP1 DUP7 SWAP1 DUP7 SWAP1 PUSH2 0x4A7F JUMP JUMPDEST PUSH1 0x40 MLOAD DUP1 SWAP2 SUB SWAP1 LOG2 POP POP POP POP JUMP JUMPDEST PUSH1 0x5 PUSH1 0x20 SWAP1 DUP2 MSTORE PUSH1 0x0 SWAP3 DUP4 MSTORE PUSH1 0x40 DUP1 DUP5 KECCAK256 SWAP1 SWAP2 MSTORE SWAP1 DUP3 MSTORE SWAP1 KECCAK256 DUP1 SLOAD PUSH1 0x1 DUP3 ADD SLOAD PUSH1 0x2 DUP4 ADD SLOAD PUSH1 0x3 DUP5 ADD DUP1 SLOAD SWAP4 SWAP5 SWAP3 SWAP4 PUSH1 0x1 PUSH1 0x1 PUSH1 0xA0 SHL SUB SWAP1 SWAP3 AND SWAP3 SWAP2 PUSH2 0x324D SWAP1 PUSH2 0x4794 JUMP JUMPDEST DUP1 PUSH1 0x1F ADD PUSH1 0x20 DUP1 SWAP2 DIV MUL PUSH1 0x20 ADD PUSH1 0x40 MLOAD SWAP1 DUP2 ADD PUSH1 0x40 MSTORE DUP1 SWAP3 SWAP2 SWAP1 DUP2 DUP2 MSTORE PUSH1 0x20 ADD DUP3 DUP1 SLOAD PUSH2 0x3279 SWAP1 PUSH2 0x4794 JUMP JUMPDEST DUP1 ISZERO PUSH2 0x32C6 JUMPI DUP1 PUSH1 0x1F LT PUSH2 0x329B JUMPI PUSH2 0x100 DUP1 DUP4 SLOAD DIV MUL DUP4 MSTORE SWAP2 PUSH1 0x20 ADD SWAP2 PUSH2 0x32C6 JUMP JUMPDEST DUP3 ADD SWAP2 SWAP1 PUSH1 0x0 MSTORE PUSH1 0x20 PUSH1 0x0 KECCAK256 SWAP1 JUMPDEST DUP2 SLOAD DUP2 MSTORE SWAP1 PUSH1 0x1 ADD SWAP1 PUSH1 0x20 ADD DUP1 DUP4 GT PUSH2 0x32A9 JUMPI DUP3 SWAP1 SUB PUSH1 0x1F AND DUP3 ADD SWAP2 JUMPDEST POP POP POP POP POP SWAP1 POP DUP5 JUMP JUMPDEST PUSH2 0x32D8 PUSH2 0x388A JUMP JUMPDEST PUSH1 0x1 PUSH1 0x1 PUSH1 0xA0 SHL SUB DUP2 AND PUSH2 0x3302 JUMPI PUSH1 0x40 MLOAD PUSH4 0x1E4FBDF7 PUSH1 0xE0 SHL DUP2 MSTORE PUSH1 0x0 PUSH1 0x4 DUP3 ADD MSTORE PUSH1 0x24 ADD PUSH2 0xA24 JUMP JUMPDEST PUSH2 0x330B DUP2 PUSH2 0x390C JUMP JUMPDEST POP JUMP JUMPDEST PUSH2 0x16CC CALLER DUP5 DUP5 DUP5 PUSH2 0x3025 JUMP JUMPDEST PUSH1 0x0 PUSH1 0x20 DUP3 ADD DUP1 CALLDATALOAD SWAP1 PUSH1 0x1 SWAP1 DUP4 SWAP1 PUSH2 0x3332 SWAP1 DUP7 PUSH2 0x455F JUMP JUMPDEST PUSH4 0xFFFFFFFF AND DUP2 MSTORE PUSH1 0x20 DUP2 ADD SWAP2 SWAP1 SWAP2 MSTORE PUSH1 0x40 ADD PUSH1 0x0 KECCAK256 SLOAD EQ SWAP3 SWAP2 POP POP JUMP JUMPDEST PUSH4 0xFFFFFFFF DUP2 AND PUSH1 0x0 SWAP1 DUP2 MSTORE PUSH1 0x1 PUSH1 0x20 MSTORE PUSH1 0x40 DUP2 KECCAK256 SLOAD DUP1 PUSH2 0x16E8 JUMPI PUSH1 0x40 MLOAD PUSH4 0xF6FF4FB7 PUSH1 0xE0 SHL DUP2 MSTORE PUSH4 0xFFFFFFFF DUP5 AND PUSH1 0x4 DUP3 ADD MSTORE PUSH1 0x24 ADD PUSH2 0xA24 JUMP JUMPDEST PUSH1 0x0 DUP7 DUP2 MSTORE PUSH1 0xA PUSH1 0x20 MSTORE PUSH1 0x40 SWAP1 KECCAK256 SLOAD PUSH1 0xFF AND ISZERO PUSH2 0x33EB JUMPI PUSH1 0x40 MLOAD PUSH3 0x461BCD PUSH1 0xE5 SHL DUP2 MSTORE PUSH1 0x20 PUSH1 0x4 DUP3 ADD MSTORE PUSH1 0x18 PUSH1 0x24 DUP3 ADD MSTORE PUSH32 0x4D65737361676520616C72656164792065786563757465640000000000000000 PUSH1 0x44 DUP3 ADD MSTORE PUSH1 0x64 ADD PUSH2 0xA24 JUMP JUMPDEST PUSH1 0x0 DUP7 DUP2 MSTORE PUSH1 0xA PUSH1 0x20 MSTORE PUSH1 0x40 DUP2 KECCAK256 DUP1 SLOAD PUSH1 0xFF NOT AND PUSH1 0x1 OR SWAP1 SSTORE PUSH2 0x3410 DUP6 DUP8 ADD DUP8 PUSH2 0x4AAA JUMP JUMPDEST SWAP1 POP CALLER PUSH1 0x1 PUSH1 0x1 PUSH1 0xA0 SHL SUB AND DUP2 PUSH1 0x40 MLOAD PUSH2 0x342A SWAP2 SWAP1 PUSH2 0x4ADE JUMP JUMPDEST PUSH1 0x40 MLOAD SWAP1 DUP2 SWAP1 SUB DUP2 KECCAK256 SWAP1 DUP10 SWAP1 PUSH32 0x5A6CC5A65C270A83D2964F1DC0D5B6B345C1ACEB3F47CCBA69BC757176305126 SWAP1 PUSH1 0x0 SWAP1 LOG4 PUSH1 0x40 DUP1 MLOAD DUP1 DUP3 ADD SWAP1 SWAP2 MSTORE PUSH1 0xE DUP2 MSTORE PUSH14 0x4352454154455F50524F46494C45 PUSH1 0x90 SHL PUSH1 0x20 SWAP2 DUP3 ADD MSTORE DUP2 MLOAD SWAP1 DUP3 ADD KECCAK256 PUSH32 0xA4C6C5D741CC3B640F2D5A849409552E25D1193D542AF6C32B92E821B8923236 ADD PUSH2 0x34DD JUMPI PUSH1 0x0 DUP1 DUP1 DUP1 PUSH2 0x34BF DUP10 DUP12 ADD DUP12 PUSH2 0x4AFA JUMP JUMPDEST SWAP5 POP SWAP5 POP SWAP5 POP SWAP5 POP POP PUSH2 0x34D4 DUP5 DUP5 DUP5 DUP5 PUSH2 0x3025 JUMP JUMPDEST POP POP POP POP PUSH2 0x3880 JUMP JUMPDEST PUSH1 0x40 DUP1 MLOAD DUP1 DUP3 ADD SWAP1 SWAP2 MSTORE PUSH1 0x8 DUP2 MSTORE PUSH8 0x2827A9AA2FA527A1 PUSH1 0xC1 SHL PUSH1 0x20 SWAP2 DUP3 ADD MSTORE DUP2 MLOAD SWAP1 DUP3 ADD KECCAK256 PUSH32 0xC3EF3E378689BB49C52BF3C6C3B1E2AE10691385A691CF00D777C75763414BD ADD PUSH2 0x354F JUMPI PUSH1 0x0 DUP1 DUP1 DUP1 PUSH2 0x353A DUP10 DUP12 ADD DUP12 PUSH2 0x4B8E JUMP JUMPDEST SWAP5 POP SWAP5 POP SWAP5 POP SWAP5 POP POP PUSH2 0x34D4 DUP5 DUP5 DUP5 DUP5 PUSH2 0xDAE JUMP JUMPDEST PUSH1 0x40 DUP1 MLOAD DUP1 DUP3 ADD SWAP1 SWAP2 MSTORE PUSH1 0xC DUP2 MSTORE PUSH12 0x20A828262CAFAA27AFA527A1 PUSH1 0xA1 SHL PUSH1 0x20 SWAP2 DUP3 ADD MSTORE DUP2 MLOAD SWAP1 DUP3 ADD KECCAK256 PUSH32 0xC2D7C2B4DDEE35E9C9C488D48EA07C3DFD0EB23F7F722AA027797ECD0439C9A7 ADD PUSH2 0x35C5 JUMPI PUSH1 0x0 DUP1 DUP1 DUP1 PUSH2 0x35B0 DUP10 DUP12 ADD DUP12 PUSH2 0x4C3A JUMP JUMPDEST SWAP5 POP SWAP5 POP SWAP5 POP SWAP5 POP POP PUSH2 0x34D4 DUP5 DUP5 DUP5 DUP5 PUSH2 0x1A5D JUMP JUMPDEST PUSH1 0x40 DUP1 MLOAD DUP1 DUP3 ADD SWAP1 SWAP2 MSTORE PUSH1 0x9 DUP2 MSTORE PUSH9 0x29AA20A92A2FA527A1 PUSH1 0xB9 SHL PUSH1 0x20 SWAP2 DUP3 ADD MSTORE DUP2 MLOAD SWAP1 DUP3 ADD KECCAK256 PUSH32 0x958AD0391719420FC13CE18673C271B3C10483B1DED1D897959E64C0226B0636 ADD PUSH2 0x363C JUMPI PUSH1 0x0 DUP1 DUP1 PUSH2 0x3622 DUP9 DUP11 ADD DUP11 PUSH2 0x4CE8 JUMP JUMPDEST SWAP4 POP SWAP4 POP SWAP4 POP POP PUSH2 0x3634 DUP4 DUP4 DUP4 PUSH2 0x28A4 JUMP JUMPDEST POP POP POP PUSH2 0x3880 JUMP JUMPDEST PUSH1 0x40 DUP1 MLOAD DUP1 DUP3 ADD SWAP1 SWAP2 MSTORE PUSH1 0xB DUP2 MSTORE PUSH11 0x5355424D49545F574F524B PUSH1 0xA8 SHL PUSH1 0x20 SWAP2 DUP3 ADD MSTORE DUP2 MLOAD SWAP1 DUP3 ADD KECCAK256 PUSH32 0xA1727A5DB69AB5F66AA3130F3696B97337CD1494E442D1FBCCA529FA9DB6D31B ADD PUSH2 0x36AD JUMPI PUSH1 0x0 DUP1 DUP1 PUSH2 0x369B DUP9 DUP11 ADD DUP11 PUSH2 0x4D51 JUMP JUMPDEST SWAP4 POP SWAP4 POP SWAP4 POP POP PUSH2 0x3634 DUP4 DUP4 DUP4 PUSH2 0x210F JUMP JUMPDEST PUSH1 0x40 DUP1 MLOAD DUP1 DUP3 ADD SWAP1 SWAP2 MSTORE PUSH1 0xF DUP2 MSTORE PUSH15 0x149153115054D157D4105653515395 PUSH1 0x8A SHL PUSH1 0x20 SWAP2 DUP3 ADD MSTORE DUP2 MLOAD SWAP1 DUP3 ADD KECCAK256 PUSH32 0x5993F055A8B2E0091D9E95BC098F92190A2F1E485B255835F749B7C6CBA1E30B ADD PUSH2 0x3722 JUMPI PUSH1 0x0 DUP1 DUP1 PUSH2 0x3710 DUP9 DUP11 ADD DUP11 PUSH2 0x4DC8 JUMP JUMPDEST SWAP4 POP SWAP4 POP SWAP4 POP POP PUSH2 0x3634 DUP4 DUP4 DUP4 PUSH2 0x2D30 JUMP JUMPDEST PUSH1 0x40 DUP1 MLOAD DUP1 DUP3 ADD SWAP1 SWAP2 MSTORE PUSH1 0x13 DUP2 MSTORE PUSH19 0x4C4F434B5F4E4558545F4D494C4553544F4E45 PUSH1 0x68 SHL PUSH1 0x20 SWAP2 DUP3 ADD MSTORE DUP2 MLOAD SWAP1 DUP3 ADD KECCAK256 PUSH32 0x92CDF19AB628CE526BAE7529871630C52245F0976FE1EAA034700BAA4B49AA16 ADD PUSH2 0x379B JUMPI PUSH1 0x0 DUP1 DUP1 PUSH2 0x3789 DUP9 DUP11 ADD DUP11 PUSH2 0x4DC8 JUMP JUMPDEST SWAP4 POP SWAP4 POP SWAP4 POP POP PUSH2 0x3634 DUP4 DUP4 DUP4 PUSH2 0x2BB8 JUMP JUMPDEST PUSH1 0x40 DUP1 MLOAD DUP1 DUP3 ADD SWAP1 SWAP2 MSTORE PUSH1 0x9 DUP2 MSTORE PUSH9 0x2920AA22AFAAA9A2A9 PUSH1 0xB9 SHL PUSH1 0x20 SWAP2 DUP3 ADD MSTORE DUP2 MLOAD SWAP1 DUP3 ADD KECCAK256 PUSH32 0x14C18A97B33195108AEEF431D93081248A69532971FB84F3B8C1EDC0D9D404D1 ADD PUSH2 0x380E JUMPI PUSH1 0x0 DUP1 DUP1 DUP1 PUSH2 0x37F9 DUP10 DUP12 ADD DUP12 PUSH2 0x4E26 JUMP JUMPDEST SWAP5 POP SWAP5 POP SWAP5 POP SWAP5 POP POP PUSH2 0x34D4 DUP5 DUP5 DUP5 DUP5 PUSH2 0x1E30 JUMP JUMPDEST PUSH1 0x40 DUP1 MLOAD DUP1 DUP3 ADD SWAP1 SWAP2 MSTORE PUSH1 0xD DUP2 MSTORE PUSH13 0x4144445F504F5254464F4C494F PUSH1 0x98 SHL PUSH1 0x20 SWAP2 DUP3 ADD MSTORE DUP2 MLOAD SWAP1 DUP3 ADD KECCAK256 PUSH32 0xBF9CE5C45A543F06FB7259612AFBF5DDCBF73E06DD8753717DFF4F12C5B21989 ADD PUSH2 0x3880 JUMPI PUSH1 0x0 DUP1 PUSH2 0x386E DUP8 DUP10 ADD DUP10 PUSH2 0x4E88 JUMP JUMPDEST SWAP3 POP SWAP3 POP POP PUSH2 0x387D DUP3 DUP3 PUSH2 0x1051 JUMP JUMPDEST POP POP JUMPDEST POP POP POP POP POP POP POP POP JUMP JUMPDEST PUSH1 0x0 SLOAD PUSH1 0x1 PUSH1 0x1 PUSH1 0xA0 SHL SUB AND CALLER EQ PUSH2 0x16E3 JUMPI PUSH1 0x40 MLOAD PUSH4 0x118CDAA7 PUSH1 0xE0 SHL DUP2 MSTORE CALLER PUSH1 0x4 DUP3 ADD MSTORE PUSH1 0x24 ADD PUSH2 0xA24 JUMP JUMPDEST PUSH4 0xFFFFFFFF DUP3 AND PUSH1 0x0 DUP2 DUP2 MSTORE PUSH1 0x1 PUSH1 0x20 SWAP1 DUP2 MSTORE PUSH1 0x40 SWAP2 DUP3 SWAP1 KECCAK256 DUP5 SWAP1 SSTORE DUP2 MLOAD SWAP3 DUP4 MSTORE DUP3 ADD DUP4 SWAP1 MSTORE PUSH32 0x238399D427B947898EDB290F5FF0F9109849B1C3BA196A42E35F00C50A54B98B SWAP2 ADD PUSH1 0x40 MLOAD DUP1 SWAP2 SUB SWAP1 LOG1 POP POP JUMP JUMPDEST PUSH1 0x0 DUP1 SLOAD PUSH1 0x1 PUSH1 0x1 PUSH1 0xA0 SHL SUB DUP4 DUP2 AND PUSH1 0x1 PUSH1 0x1 PUSH1 0xA0 SHL SUB NOT DUP4 AND DUP2 OR DUP5 SSTORE PUSH1 0x40 MLOAD SWAP2 SWAP1 SWAP3 AND SWAP3 DUP4 SWAP2 PUSH32 0x8BE0079C531659141344CD1FD0A4F28419497F9722A3DAAFE3B4186F6B6457E0 SWAP2 SWAP1 LOG3 POP POP JUMP JUMPDEST PUSH1 0x40 MLOAD DUP1 PUSH2 0x1A0 ADD PUSH1 0x40 MSTORE DUP1 PUSH1 0x0 DUP2 MSTORE PUSH1 0x20 ADD PUSH1 0x0 PUSH1 0x1 PUSH1 0x1 PUSH1 0xA0 SHL SUB AND DUP2 MSTORE PUSH1 0x20 ADD PUSH1 0x60 DUP2 MSTORE PUSH1 0x20 ADD PUSH1 0x60 DUP2 MSTORE PUSH1 0x20 ADD PUSH1 0x0 ISZERO ISZERO DUP2 MSTORE PUSH1 0x20 ADD PUSH1 0x60 DUP2 MSTORE PUSH1 0x20 ADD PUSH1 0x60 DUP2 MSTORE PUSH1 0x20 ADD PUSH1 0x60 DUP2 MSTORE PUSH1 0x20 ADD PUSH1 0x0 DUP2 MSTORE PUSH1 0x20 ADD PUSH1 0x0 DUP2 MSTORE PUSH1 0x20 ADD PUSH1 0x0 DUP2 MSTORE PUSH1 0x20 ADD PUSH1 0x0 PUSH1 0x1 PUSH1 0x1 PUSH1 0xA0 SHL SUB AND DUP2 MSTORE PUSH1 0x20 ADD PUSH1 0x0 DUP2 MSTORE POP SWAP1 JUMP JUMPDEST DUP3 DUP1 SLOAD DUP3 DUP3 SSTORE SWAP1 PUSH1 0x0 MSTORE PUSH1 0x20 PUSH1 0x0 KECCAK256 SWAP1 DUP2 ADD SWAP3 DUP3 ISZERO PUSH2 0x3A1E JUMPI SWAP2 PUSH1 0x20 MUL DUP3 ADD JUMPDEST DUP3 DUP2 GT ISZERO PUSH2 0x3A1E JUMPI DUP3 MLOAD DUP3 SWAP1 PUSH2 0x3A0E SWAP1 DUP3 PUSH2 0x4867 JUMP JUMPDEST POP SWAP2 PUSH1 0x20 ADD SWAP2 SWAP1 PUSH1 0x1 ADD SWAP1 PUSH2 0x39F8 JUMP JUMPDEST POP PUSH2 0x3A2A SWAP3 SWAP2 POP PUSH2 0x3A2E JUMP JUMPDEST POP SWAP1 JUMP JUMPDEST DUP1 DUP3 GT ISZERO PUSH2 0x3A2A JUMPI PUSH1 0x0 PUSH2 0x3A42 DUP3 DUP3 PUSH2 0x3A4B JUMP JUMPDEST POP PUSH1 0x1 ADD PUSH2 0x3A2E JUMP JUMPDEST POP DUP1 SLOAD PUSH2 0x3A57 SWAP1 PUSH2 0x4794 JUMP JUMPDEST PUSH1 0x0 DUP3 SSTORE DUP1 PUSH1 0x1F LT PUSH2 0x3A67 JUMPI POP POP JUMP JUMPDEST PUSH1 0x1F ADD PUSH1 0x20 SWAP1 DIV SWAP1 PUSH1 0x0 MSTORE PUSH1 0x20 PUSH1 0x0 KECCAK256 SWAP1 DUP2 ADD SWAP1 PUSH2 0x330B SWAP2 SWAP1 JUMPDEST DUP1 DUP3 GT ISZERO PUSH2 0x3A2A JUMPI PUSH1 0x0 DUP2 SSTORE PUSH1 0x1 ADD PUSH2 0x3A81 JUMP JUMPDEST PUSH1 0x1 PUSH1 0x1 PUSH1 0xA0 SHL SUB DUP2 AND DUP2 EQ PUSH2 0x330B JUMPI PUSH1 0x0 DUP1 REVERT JUMPDEST PUSH1 0x0 PUSH1 0x20 DUP3 DUP5 SUB SLT ISZERO PUSH2 0x3ABC JUMPI PUSH1 0x0 DUP1 REVERT JUMPDEST DUP2 CALLDATALOAD PUSH2 0x3AC7 DUP2 PUSH2 0x3A95 JUMP JUMPDEST SWAP4 SWAP3 POP POP POP JUMP JUMPDEST PUSH1 0x0 JUMPDEST DUP4 DUP2 LT ISZERO PUSH2 0x3AE9 JUMPI DUP2 DUP2 ADD MLOAD DUP4 DUP3 ADD MSTORE PUSH1 0x20 ADD PUSH2 0x3AD1 JUMP JUMPDEST POP POP PUSH1 0x0 SWAP2 ADD MSTORE JUMP JUMPDEST PUSH1 0x0 DUP2 MLOAD DUP1 DUP5 MSTORE PUSH2 0x3B0A DUP2 PUSH1 0x20 DUP7 ADD PUSH1 0x20 DUP7 ADD PUSH2 0x3ACE JUMP JUMPDEST PUSH1 0x1F ADD PUSH1 0x1F NOT AND SWAP3 SWAP1 SWAP3 ADD PUSH1 0x20 ADD SWAP3 SWAP2 POP POP JUMP JUMPDEST PUSH1 0x0 DUP3 DUP3 MLOAD DUP1 DUP6 MSTORE PUSH1 0x20 DUP6 ADD SWAP5 POP PUSH1 0x20 DUP2 PUSH1 0x5 SHL DUP4 ADD ADD PUSH1 0x20 DUP6 ADD PUSH1 0x0 JUMPDEST DUP4 DUP2 LT ISZERO PUSH2 0x3B6E JUMPI PUSH1 0x1F NOT DUP6 DUP5 SUB ADD DUP9 MSTORE PUSH2 0x3B58 DUP4 DUP4 MLOAD PUSH2 0x3AF2 JUMP JUMPDEST PUSH1 0x20 SWAP9 DUP10 ADD SWAP9 SWAP1 SWAP4 POP SWAP2 SWAP1 SWAP2 ADD SWAP1 PUSH1 0x1 ADD PUSH2 0x3B3C JUMP JUMPDEST POP SWAP1 SWAP7 SWAP6 POP POP POP POP POP POP JUMP JUMPDEST PUSH1 0x20 DUP2 MSTORE PUSH1 0x1 PUSH1 0x1 PUSH1 0xA0 SHL SUB DUP3 MLOAD AND PUSH1 0x20 DUP3 ADD MSTORE PUSH1 0x0 PUSH1 0x20 DUP4 ADD MLOAD PUSH1 0xA0 PUSH1 0x40 DUP5 ADD MSTORE PUSH2 0x3BA9 PUSH1 0xC0 DUP5 ADD DUP3 PUSH2 0x3AF2 JUMP JUMPDEST SWAP1 POP PUSH1 0x1 PUSH1 0x1 PUSH1 0xA0 SHL SUB PUSH1 0x40 DUP6 ADD MLOAD AND PUSH1 0x60 DUP5 ADD MSTORE PUSH1 0x60 DUP5 ADD MLOAD PUSH1 0x80 DUP5 ADD MSTORE PUSH1 0x80 DUP5 ADD MLOAD PUSH1 0x1F NOT DUP5 DUP4 SUB ADD PUSH1 0xA0 DUP6 ADD MSTORE PUSH2 0x3BE3 DUP3 DUP3 PUSH2 0x3B1E JUMP JUMPDEST SWAP6 SWAP5 POP POP POP POP POP JUMP JUMPDEST PUSH1 0x0 PUSH1 0x60 DUP3 DUP5 SUB SLT ISZERO PUSH2 0x3BFE JUMPI PUSH1 0x0 DUP1 REVERT JUMPDEST POP SWAP2 SWAP1 POP JUMP JUMPDEST PUSH1 0x0 DUP1 DUP4 PUSH1 0x1F DUP5 ADD SLT PUSH2 0x3C16 JUMPI PUSH1 0x0 DUP1 REVERT JUMPDEST POP DUP2 CALLDATALOAD PUSH1 0x1 PUSH1 0x1 PUSH1 0x40 SHL SUB DUP2 GT ISZERO PUSH2 0x3C2D JUMPI PUSH1 0x0 DUP1 REVERT JUMPDEST PUSH1 0x20 DUP4 ADD SWAP2 POP DUP4 PUSH1 0x20 DUP3 DUP6 ADD ADD GT ISZERO PUSH2 0x3C45 JUMPI PUSH1 0x0 DUP1 REVERT JUMPDEST SWAP3 POP SWAP3 SWAP1 POP JUMP JUMPDEST PUSH1 0x0 DUP1 PUSH1 0x0 DUP1 PUSH1 0x0 DUP1 PUSH1 0x0 PUSH1 0xE0 DUP9 DUP11 SUB SLT ISZERO PUSH2 0x3C67 JUMPI PUSH1 0x0 DUP1 REVERT JUMPDEST PUSH2 0x3C71 DUP10 DUP10 PUSH2 0x3BEC JUMP JUMPDEST SWAP7 POP PUSH1 0x60 DUP9 ADD CALLDATALOAD SWAP6 POP PUSH1 0x80 DUP9 ADD CALLDATALOAD PUSH1 0x1 PUSH1 0x1 PUSH1 0x40 SHL SUB DUP2 GT ISZERO PUSH2 0x3C93 JUMPI PUSH1 0x0 DUP1 REVERT JUMPDEST PUSH2 0x3C9F DUP11 DUP3 DUP12 ADD PUSH2 0x3C04 JUMP JUMPDEST SWAP1 SWAP7 POP SWAP5 POP POP PUSH1 0xA0 DUP9 ADD CALLDATALOAD PUSH2 0x3CB3 DUP2 PUSH2 0x3A95 JUMP JUMPDEST SWAP3 POP PUSH1 0xC0 DUP9 ADD CALLDATALOAD PUSH1 0x1 PUSH1 0x1 PUSH1 0x40 SHL SUB DUP2 GT ISZERO PUSH2 0x3CCE JUMPI PUSH1 0x0 DUP1 REVERT JUMPDEST PUSH2 0x3CDA DUP11 DUP3 DUP12 ADD PUSH2 0x3C04 JUMP JUMPDEST SWAP9 SWAP12 SWAP8 SWAP11 POP SWAP6 SWAP9 POP SWAP4 SWAP7 SWAP3 SWAP6 SWAP3 SWAP4 POP POP POP JUMP JUMPDEST PUSH1 0x0 PUSH1 0x20 DUP3 DUP5 SUB SLT ISZERO PUSH2 0x3CFF JUMPI PUSH1 0x0 DUP1 REVERT JUMPDEST POP CALLDATALOAD SWAP2 SWAP1 POP JUMP JUMPDEST DUP10 DUP2 MSTORE PUSH1 0x1 PUSH1 0x1 PUSH1 0xA0 SHL SUB DUP10 AND PUSH1 0x20 DUP3 ADD MSTORE PUSH2 0x120 PUSH1 0x40 DUP3 ADD MSTORE PUSH1 0x0 PUSH2 0x3D30 PUSH2 0x120 DUP4 ADD DUP11 PUSH2 0x3AF2 JUMP JUMPDEST SWAP8 ISZERO ISZERO PUSH1 0x60 DUP4 ADD MSTORE POP PUSH1 0x80 DUP2 ADD SWAP6 SWAP1 SWAP6 MSTORE PUSH1 0xA0 DUP6 ADD SWAP4 SWAP1 SWAP4 MSTORE PUSH1 0xC0 DUP5 ADD SWAP2 SWAP1 SWAP2 MSTORE PUSH1 0x1 PUSH1 0x1 PUSH1 0xA0 SHL SUB AND PUSH1 0xE0 DUP4 ADD MSTORE PUSH2 0x100 SWAP1 SWAP2 ADD MSTORE SWAP4 SWAP3 POP POP POP JUMP JUMPDEST PUSH4 0x4E487B71 PUSH1 0xE0 SHL PUSH1 0x0 MSTORE PUSH1 0x41 PUSH1 0x4 MSTORE PUSH1 0x24 PUSH1 0x0 REVERT JUMPDEST PUSH1 0x40 DUP1 MLOAD SWAP1 DUP2 ADD PUSH1 0x1 PUSH1 0x1 PUSH1 0x40 SHL SUB DUP2 GT DUP3 DUP3 LT OR ISZERO PUSH2 0x3DA5 JUMPI PUSH2 0x3DA5 PUSH2 0x3D6D JUMP JUMPDEST PUSH1 0x40 MSTORE SWAP1 JUMP JUMPDEST PUSH1 0x40 MLOAD PUSH1 0x1F DUP3 ADD PUSH1 0x1F NOT AND DUP2 ADD PUSH1 0x1 PUSH1 0x1 PUSH1 0x40 SHL SUB DUP2 GT DUP3 DUP3 LT OR ISZERO PUSH2 0x3DD3 JUMPI PUSH2 0x3DD3 PUSH2 0x3D6D JUMP JUMPDEST PUSH1 0x40 MSTORE SWAP2 SWAP1 POP JUMP JUMPDEST PUSH1 0x0 DUP3 PUSH1 0x1F DUP4 ADD SLT PUSH2 0x3DEC JUMPI PUSH1 0x0 DUP1 REVERT JUMPDEST DUP2 CALLDATALOAD PUSH1 0x1 PUSH1 0x1 PUSH1 0x40 SHL SUB DUP2 GT ISZERO PUSH2 0x3E05 JUMPI PUSH2 0x3E05 PUSH2 0x3D6D JUMP JUMPDEST PUSH2 0x3E18 PUSH1 0x1F DUP3 ADD PUSH1 0x1F NOT AND PUSH1 0x20 ADD PUSH2 0x3DAB JUMP JUMPDEST DUP2 DUP2 MSTORE DUP5 PUSH1 0x20 DUP4 DUP7 ADD ADD GT ISZERO PUSH2 0x3E2D JUMPI PUSH1 0x0 DUP1 REVERT JUMPDEST DUP2 PUSH1 0x20 DUP6 ADD PUSH1 0x20 DUP4 ADD CALLDATACOPY PUSH1 0x0 SWAP2 DUP2 ADD PUSH1 0x20 ADD SWAP2 SWAP1 SWAP2 MSTORE SWAP4 SWAP3 POP POP POP JUMP JUMPDEST PUSH1 0x0 DUP3 PUSH1 0x1F DUP4 ADD SLT PUSH2 0x3E5B JUMPI PUSH1 0x0 DUP1 REVERT JUMPDEST DUP2 CALLDATALOAD PUSH1 0x1 PUSH1 0x1 PUSH1 0x40 SHL SUB DUP2 GT ISZERO PUSH2 0x3E74 JUMPI PUSH2 0x3E74 PUSH2 0x3D6D JUMP JUMPDEST DUP1 PUSH1 0x5 SHL PUSH2 0x3E84 PUSH1 0x20 DUP3 ADD PUSH2 0x3DAB JUMP JUMPDEST SWAP2 DUP3 MSTORE PUSH1 0x20 DUP2 DUP6 ADD DUP2 ADD SWAP3 SWAP1 DUP2 ADD SWAP1 DUP7 DUP5 GT ISZERO PUSH2 0x3EA0 JUMPI PUSH1 0x0 DUP1 REVERT JUMPDEST PUSH1 0x20 DUP7 ADD SWAP3 POP JUMPDEST DUP4 DUP4 LT ISZERO PUSH2 0x3F2F JUMPI DUP3 CALLDATALOAD PUSH1 0x1 PUSH1 0x1 PUSH1 0x40 SHL SUB DUP2 GT ISZERO PUSH2 0x3EC5 JUMPI PUSH1 0x0 DUP1 REVERT JUMPDEST DUP7 ADD PUSH1 0x40 DUP2 DUP10 SUB PUSH1 0x1F NOT ADD SLT ISZERO PUSH2 0x3EDB JUMPI PUSH1 0x0 DUP1 REVERT JUMPDEST PUSH2 0x3EE3 PUSH2 0x3D83 JUMP JUMPDEST PUSH1 0x20 DUP3 ADD CALLDATALOAD PUSH1 0x1 PUSH1 0x1 PUSH1 0x40 SHL SUB DUP2 GT ISZERO PUSH2 0x3EFC JUMPI PUSH1 0x0 DUP1 REVERT JUMPDEST PUSH2 0x3F0B DUP11 PUSH1 0x20 DUP4 DUP7 ADD ADD PUSH2 0x3DDB JUMP JUMPDEST DUP3 MSTORE POP PUSH1 0x40 SWAP2 SWAP1 SWAP2 ADD CALLDATALOAD PUSH1 0x20 DUP1 DUP4 ADD SWAP2 SWAP1 SWAP2 MSTORE SWAP1 DUP4 MSTORE SWAP3 DUP4 ADD SWAP3 SWAP2 SWAP1 SWAP2 ADD SWAP1 PUSH2 0x3EA7 JUMP JUMPDEST SWAP7 SWAP6 POP POP POP POP POP POP JUMP JUMPDEST PUSH1 0x0 DUP1 PUSH1 0x0 DUP1 PUSH1 0x80 DUP6 DUP8 SUB SLT ISZERO PUSH2 0x3F4F JUMPI PUSH1 0x0 DUP1 REVERT JUMPDEST DUP5 CALLDATALOAD PUSH2 0x3F5A DUP2 PUSH2 0x3A95 JUMP JUMPDEST SWAP4 POP PUSH1 0x20 DUP6 ADD CALLDATALOAD PUSH1 0x1 PUSH1 0x1 PUSH1 0x40 SHL SUB DUP2 GT ISZERO PUSH2 0x3F75 JUMPI PUSH1 0x0 DUP1 REVERT JUMPDEST PUSH2 0x3F81 DUP8 DUP3 DUP9 ADD PUSH2 0x3DDB JUMP JUMPDEST SWAP4 POP POP PUSH1 0x40 DUP6 ADD CALLDATALOAD PUSH1 0x1 PUSH1 0x1 PUSH1 0x40 SHL SUB DUP2 GT ISZERO PUSH2 0x3F9D JUMPI PUSH1 0x0 DUP1 REVERT JUMPDEST PUSH2 0x3FA9 DUP8 DUP3 DUP9 ADD PUSH2 0x3E4A JUMP JUMPDEST SWAP5 SWAP8 SWAP4 SWAP7 POP SWAP4 SWAP5 PUSH1 0x60 ADD CALLDATALOAD SWAP4 POP POP POP JUMP JUMPDEST PUSH1 0x0 DUP1 PUSH1 0x40 DUP4 DUP6 SUB SLT ISZERO PUSH2 0x3FCD JUMPI PUSH1 0x0 DUP1 REVERT JUMPDEST DUP3 CALLDATALOAD PUSH2 0x3FD8 DUP2 PUSH2 0x3A95 JUMP JUMPDEST SWAP2 POP PUSH1 0x20 DUP4 ADD CALLDATALOAD PUSH1 0x1 PUSH1 0x1 PUSH1 0x40 SHL SUB DUP2 GT ISZERO PUSH2 0x3FF3 JUMPI PUSH1 0x0 DUP1 REVERT JUMPDEST PUSH2 0x3FFF DUP6 DUP3 DUP7 ADD PUSH2 0x3DDB JUMP JUMPDEST SWAP2 POP POP SWAP3 POP SWAP3 SWAP1 POP JUMP JUMPDEST PUSH1 0x0 DUP1 PUSH1 0x40 DUP4 DUP6 SUB SLT ISZERO PUSH2 0x401C JUMPI PUSH1 0x0 DUP1 REVERT JUMPDEST POP POP DUP1 CALLDATALOAD SWAP3 PUSH1 0x20 SWAP1 SWAP2 ADD CALLDATALOAD SWAP2 POP JUMP JUMPDEST DUP1 CALLDATALOAD PUSH4 0xFFFFFFFF DUP2 AND DUP2 EQ PUSH2 0x403F JUMPI PUSH1 0x0 DUP1 REVERT JUMPDEST SWAP2 SWAP1 POP JUMP JUMPDEST PUSH1 0x0 DUP1 PUSH1 0x40 DUP4 DUP6 SUB SLT ISZERO PUSH2 0x4057 JUMPI PUSH1 0x0 DUP1 REVERT JUMPDEST PUSH2 0x4060 DUP4 PUSH2 0x402B JUMP JUMPDEST SWAP5 PUSH1 0x20 SWAP4 SWAP1 SWAP4 ADD CALLDATALOAD SWAP4 POP POP POP JUMP JUMPDEST PUSH1 0x0 DUP2 MLOAD DUP1 DUP5 MSTORE PUSH1 0x20 DUP5 ADD SWAP4 POP PUSH1 0x20 DUP4 ADD PUSH1 0x0 JUMPDEST DUP3 DUP2 LT ISZERO PUSH2 0x40A9 JUMPI DUP2 MLOAD PUSH1 0x1 PUSH1 0x1 PUSH1 0xA0 SHL SUB AND DUP7 MSTORE PUSH1 0x20 SWAP6 DUP7 ADD SWAP6 SWAP1 SWAP2 ADD SWAP1 PUSH1 0x1 ADD PUSH2 0x4082 JUMP JUMPDEST POP SWAP4 SWAP5 SWAP4 POP POP POP POP JUMP JUMPDEST PUSH1 0x0 DUP3 DUP3 MLOAD DUP1 DUP6 MSTORE PUSH1 0x20 DUP6 ADD SWAP5 POP PUSH1 0x20 DUP2 PUSH1 0x5 SHL DUP4 ADD ADD PUSH1 0x20 DUP6 ADD PUSH1 0x0 JUMPDEST DUP4 DUP2 LT ISZERO PUSH2 0x3B6E JUMPI PUSH1 0x1F NOT DUP6 DUP5 SUB ADD DUP9 MSTORE DUP2 MLOAD DUP1 MLOAD PUSH1 0x40 DUP6 MSTORE PUSH2 0x40F7 PUSH1 0x40 DUP7 ADD DUP3 PUSH2 0x3AF2 JUMP JUMPDEST PUSH1 0x20 SWAP3 DUP4 ADD MLOAD SWAP6 DUP4 ADD SWAP6 SWAP1 SWAP6 MSTORE POP SWAP8 DUP9 ADD SWAP8 SWAP2 SWAP1 SWAP2 ADD SWAP1 PUSH1 0x1 ADD PUSH2 0x40D1 JUMP JUMPDEST PUSH1 0x20 DUP2 MSTORE DUP2 MLOAD PUSH1 0x20 DUP3 ADD MSTORE PUSH1 0x0 PUSH1 0x20 DUP4 ADD MLOAD PUSH2 0x413D PUSH1 0x40 DUP5 ADD DUP3 PUSH1 0x1 PUSH1 0x1 PUSH1 0xA0 SHL SUB AND SWAP1 MSTORE JUMP JUMPDEST POP PUSH1 0x40 DUP4 ADD MLOAD PUSH2 0x1A0 PUSH1 0x60 DUP5 ADD MSTORE PUSH2 0x4159 PUSH2 0x1C0 DUP5 ADD DUP3 PUSH2 0x406E JUMP JUMPDEST SWAP1 POP PUSH1 0x60 DUP5 ADD MLOAD PUSH1 0x1F NOT DUP5 DUP4 SUB ADD PUSH1 0x80 DUP6 ADD MSTORE PUSH2 0x4176 DUP3 DUP3 PUSH2 0x3AF2 JUMP JUMPDEST SWAP2 POP POP PUSH1 0x80 DUP5 ADD MLOAD PUSH2 0x418C PUSH1 0xA0 DUP6 ADD DUP3 ISZERO ISZERO SWAP1 MSTORE JUMP JUMPDEST POP PUSH1 0xA0 DUP5 ADD MLOAD DUP4 DUP3 SUB PUSH1 0x1F NOT ADD PUSH1 0xC0 DUP6 ADD MSTORE PUSH2 0x41A8 DUP3 DUP3 PUSH2 0x3B1E JUMP JUMPDEST SWAP2 POP POP PUSH1 0xC0 DUP5 ADD MLOAD PUSH1 0x1F NOT DUP5 DUP4 SUB ADD PUSH1 0xE0 DUP6 ADD MSTORE PUSH2 0x41C6 DUP3 DUP3 PUSH2 0x40B3 JUMP JUMPDEST SWAP2 POP POP PUSH1 0xE0 DUP5 ADD MLOAD PUSH1 0x1F NOT DUP5 DUP4 SUB ADD PUSH2 0x100 DUP6 ADD MSTORE PUSH2 0x41E5 DUP3 DUP3 PUSH2 0x40B3 JUMP JUMPDEST SWAP2 POP POP PUSH2 0x100 DUP5 ADD MLOAD PUSH2 0x120 DUP5 ADD MSTORE PUSH2 0x120 DUP5 ADD MLOAD PUSH2 0x140 DUP5 ADD MSTORE PUSH2 0x140 DUP5 ADD MLOAD PUSH2 0x160 DUP5 ADD MSTORE PUSH2 0x160 DUP5 ADD MLOAD PUSH2 0x4228 PUSH2 0x180 DUP6 ADD DUP3 PUSH1 0x1 PUSH1 0x1 PUSH1 0xA0 SHL SUB AND SWAP1 MSTORE JUMP JUMPDEST POP PUSH2 0x180 DUP5 ADD MLOAD PUSH2 0x1A0 DUP5 ADD MSTORE DUP1 SWAP2 POP POP SWAP3 SWAP2 POP POP JUMP JUMPDEST PUSH1 0x0 DUP1 PUSH1 0x0 PUSH1 0x60 DUP5 DUP7 SUB SLT ISZERO PUSH2 0x4254 JUMPI PUSH1 0x0 DUP1 REVERT JUMPDEST DUP4 CALLDATALOAD SWAP3 POP PUSH1 0x20 DUP5 ADD CALLDATALOAD PUSH1 0x1 PUSH1 0x1 PUSH1 0x40 SHL SUB DUP2 GT ISZERO PUSH2 0x4271 JUMPI PUSH1 0x0 DUP1 REVERT JUMPDEST PUSH2 0x427D DUP7 DUP3 DUP8 ADD PUSH2 0x3DDB JUMP JUMPDEST SWAP3 POP POP PUSH1 0x40 DUP5 ADD CALLDATALOAD PUSH1 0x1 PUSH1 0x1 PUSH1 0x40 SHL SUB DUP2 GT ISZERO PUSH2 0x4299 JUMPI PUSH1 0x0 DUP1 REVERT JUMPDEST PUSH2 0x42A5 DUP7 DUP3 DUP8 ADD PUSH2 0x3E4A JUMP JUMPDEST SWAP2 POP POP SWAP3 POP SWAP3 POP SWAP3 JUMP JUMPDEST PUSH1 0x0 DUP1 PUSH1 0x40 DUP4 DUP6 SUB SLT ISZERO PUSH2 0x42C2 JUMPI PUSH1 0x0 DUP1 REVERT JUMPDEST DUP3 CALLDATALOAD PUSH1 0x1 PUSH1 0x1 PUSH1 0x40 SHL SUB DUP2 GT ISZERO PUSH2 0x42D8 JUMPI PUSH1 0x0 DUP1 REVERT JUMPDEST PUSH2 0x42E4 DUP6 DUP3 DUP7 ADD PUSH2 0x3DDB JUMP JUMPDEST SWAP3 POP POP PUSH1 0x20 DUP4 ADD CALLDATALOAD PUSH1 0x1 PUSH1 0x1 PUSH1 0x40 SHL SUB DUP2 GT ISZERO PUSH2 0x4300 JUMPI PUSH1 0x0 DUP1 REVERT JUMPDEST PUSH2 0x3FFF DUP6 DUP3 DUP7 ADD PUSH2 0x3E4A JUMP JUMPDEST PUSH1 0x0 DUP1 PUSH1 0x0 DUP1 PUSH1 0xA0 DUP6 DUP8 SUB SLT ISZERO PUSH2 0x4322 JUMPI PUSH1 0x0 DUP1 REVERT JUMPDEST PUSH2 0x432C DUP7 DUP7 PUSH2 0x3BEC JUMP JUMPDEST SWAP4 POP PUSH1 0x60 DUP6 ADD CALLDATALOAD PUSH1 0x1 PUSH1 0x1 PUSH1 0x40 SHL SUB DUP2 GT ISZERO PUSH2 0x4347 JUMPI PUSH1 0x0 DUP1 REVERT JUMPDEST PUSH2 0x4353 DUP8 DUP3 DUP9 ADD PUSH2 0x3C04 JUMP JUMPDEST SWAP1 SWAP5 POP SWAP3 POP POP PUSH1 0x80 DUP6 ADD CALLDATALOAD PUSH2 0x4367 DUP2 PUSH2 0x3A95 JUMP JUMPDEST SWAP4 SWAP7 SWAP3 SWAP6 POP SWAP1 SWAP4 POP POP JUMP JUMPDEST PUSH1 0x20 DUP2 MSTORE DUP2 MLOAD PUSH1 0x20 DUP3 ADD MSTORE PUSH1 0x20 DUP3 ADD MLOAD PUSH1 0x40 DUP3 ADD MSTORE PUSH1 0x1 PUSH1 0x1 PUSH1 0xA0 SHL SUB PUSH1 0x40 DUP4 ADD MLOAD AND PUSH1 0x60 DUP3 ADD MSTORE PUSH1 0x0 PUSH1 0x60 DUP4 ADD MLOAD PUSH1 0xA0 PUSH1 0x80 DUP5 ADD MSTORE PUSH2 0x43B5 PUSH1 0xC0 DUP5 ADD DUP3 PUSH2 0x3AF2 JUMP JUMPDEST SWAP1 POP PUSH1 0x80 DUP5 ADD MLOAD PUSH1 0x1F NOT DUP5 DUP4 SUB ADD PUSH1 0xA0 DUP6 ADD MSTORE PUSH2 0x3BE3 DUP3 DUP3 PUSH2 0x40B3 JUMP JUMPDEST DUP1 CALLDATALOAD DUP1 ISZERO ISZERO DUP2 EQ PUSH2 0x403F JUMPI PUSH1 0x0 DUP1 REVERT JUMPDEST PUSH1 0x0 DUP1 PUSH1 0x40 DUP4 DUP6 SUB SLT ISZERO PUSH2 0x43F5 JUMPI PUSH1 0x0 DUP1 REVERT JUMPDEST DUP3 CALLDATALOAD SWAP2 POP PUSH2 0x4405 PUSH1 0x20 DUP5 ADD PUSH2 0x43D2 JUMP JUMPDEST SWAP1 POP SWAP3 POP SWAP3 SWAP1 POP JUMP JUMPDEST PUSH1 0x0 DUP1 PUSH1 0x0 DUP1 PUSH1 0x80 DUP6 DUP8 SUB SLT ISZERO PUSH2 0x4424 JUMPI PUSH1 0x0 DUP1 REVERT JUMPDEST DUP5 CALLDATALOAD PUSH2 0x442F DUP2 PUSH2 0x3A95 JUMP JUMPDEST SWAP4 POP PUSH1 0x20 DUP6 ADD CALLDATALOAD SWAP3 POP PUSH1 0x40 DUP6 ADD CALLDATALOAD PUSH1 0x1 PUSH1 0x1 PUSH1 0x40 SHL SUB DUP2 GT ISZERO PUSH2 0x4451 JUMPI PUSH1 0x0 DUP1 REVERT JUMPDEST PUSH2 0x445D DUP8 DUP3 DUP9 ADD PUSH2 0x3DDB JUMP JUMPDEST SWAP3 POP POP PUSH1 0x60 DUP6 ADD CALLDATALOAD PUSH1 0x1 PUSH1 0x1 PUSH1 0x40 SHL SUB DUP2 GT ISZERO PUSH2 0x4479 JUMPI PUSH1 0x0 DUP1 REVERT JUMPDEST PUSH2 0x4485 DUP8 DUP3 DUP9 ADD PUSH2 0x3E4A JUMP JUMPDEST SWAP2 POP POP SWAP3 SWAP6 SWAP2 SWAP5 POP SWAP3 POP JUMP JUMPDEST PUSH1 0x0 DUP1 PUSH1 0x0 PUSH1 0x60 DUP5 DUP7 SUB SLT ISZERO PUSH2 0x44A6 JUMPI PUSH1 0x0 DUP1 REVERT JUMPDEST DUP4 CALLDATALOAD SWAP3 POP PUSH1 0x20 DUP5 ADD CALLDATALOAD PUSH2 0x44B8 DUP2 PUSH2 0x3A95 JUMP JUMPDEST SWAP3 SWAP6 SWAP3 SWAP5 POP POP POP PUSH1 0x40 SWAP2 SWAP1 SWAP2 ADD CALLDATALOAD SWAP1 JUMP JUMPDEST PUSH1 0x0 DUP1 PUSH1 0x0 DUP1 PUSH1 0x80 DUP6 DUP8 SUB SLT ISZERO PUSH2 0x44DF JUMPI PUSH1 0x0 DUP1 REVERT JUMPDEST DUP5 CALLDATALOAD PUSH2 0x44EA DUP2 PUSH2 0x3A95 JUMP JUMPDEST SWAP4 POP PUSH1 0x20 DUP6 ADD CALLDATALOAD SWAP3 POP PUSH1 0x40 DUP6 ADD CALLDATALOAD PUSH2 0x4501 DUP2 PUSH2 0x3A95 JUMP JUMPDEST SWAP4 SWAP7 SWAP3 SWAP6 POP SWAP3 SWAP4 PUSH1 0x60 ADD CALLDATALOAD SWAP3 POP POP JUMP JUMPDEST PUSH1 0x0 DUP1 PUSH1 0x0 PUSH1 0x60 DUP5 DUP7 SUB SLT ISZERO PUSH2 0x4526 JUMPI PUSH1 0x0 DUP1 REVERT JUMPDEST DUP4 CALLDATALOAD PUSH2 0x4531 DUP2 PUSH2 0x3A95 JUMP JUMPDEST SWAP3 POP PUSH1 0x20 DUP5 ADD CALLDATALOAD SWAP2 POP PUSH1 0x40 DUP5 ADD CALLDATALOAD PUSH1 0x1 PUSH1 0x1 PUSH1 0x40 SHL SUB DUP2 GT ISZERO PUSH2 0x4553 JUMPI PUSH1 0x0 DUP1 REVERT JUMPDEST PUSH2 0x42A5 DUP7 DUP3 DUP8 ADD PUSH2 0x3DDB JUMP JUMPDEST PUSH1 0x0 PUSH1 0x20 DUP3 DUP5 SUB SLT ISZERO PUSH2 0x4571 JUMPI PUSH1 0x0 DUP1 REVERT JUMPDEST PUSH2 0x3AC7 DUP3 PUSH2 0x402B JUMP JUMPDEST PUSH1 0x0 DUP1 PUSH1 0x40 DUP4 DUP6 SUB SLT ISZERO PUSH2 0x458D JUMPI PUSH1 0x0 DUP1 REVERT JUMPDEST DUP3 CALLDATALOAD SWAP2 POP PUSH1 0x20 DUP4 ADD CALLDATALOAD PUSH2 0x459F DUP2 PUSH2 0x3A95 JUMP JUMPDEST DUP1 SWAP2 POP POP SWAP3 POP SWAP3 SWAP1 POP JUMP JUMPDEST PUSH1 0x1 PUSH1 0x1 PUSH1 0xA0 SHL SUB DUP6 AND DUP2 MSTORE PUSH1 0x80 PUSH1 0x20 DUP3 ADD MSTORE PUSH1 0x0 PUSH2 0x45CC PUSH1 0x80 DUP4 ADD DUP7 PUSH2 0x3AF2 JUMP JUMPDEST PUSH1 0x1 PUSH1 0x1 PUSH1 0xA0 SHL SUB SWAP5 SWAP1 SWAP5 AND PUSH1 0x40 DUP4 ADD MSTORE POP PUSH1 0x60 ADD MSTORE SWAP3 SWAP2 POP POP JUMP JUMPDEST PUSH1 0x0 DUP1 PUSH1 0x40 DUP4 DUP6 SUB SLT ISZERO PUSH2 0x45FB JUMPI PUSH1 0x0 DUP1 REVERT JUMPDEST DUP3 CALLDATALOAD PUSH2 0x4060 DUP2 PUSH2 0x3A95 JUMP JUMPDEST PUSH1 0x0 DUP1 PUSH1 0x0 PUSH1 0x60 DUP5 DUP7 SUB SLT ISZERO PUSH2 0x461B JUMPI PUSH1 0x0 DUP1 REVERT JUMPDEST DUP4 CALLDATALOAD PUSH2 0x4626 DUP2 PUSH2 0x3A95 JUMP JUMPDEST SWAP3 POP PUSH1 0x20 DUP5 ADD CALLDATALOAD SWAP2 POP PUSH2 0x463B PUSH1 0x40 DUP6 ADD PUSH2 0x43D2 JUMP JUMPDEST SWAP1 POP SWAP3 POP SWAP3 POP SWAP3 JUMP JUMPDEST PUSH1 0x0 DUP1 PUSH1 0x0 PUSH1 0x60 DUP5 DUP7 SUB SLT ISZERO PUSH2 0x4659 JUMPI PUSH1 0x0 DUP1 REVERT JUMPDEST DUP4 CALLDATALOAD PUSH2 0x4664 DUP2 PUSH2 0x3A95 JUMP JUMPDEST SWAP6 PUSH1 0x20 DUP6 ADD CALLDATALOAD SWAP6 POP PUSH1 0x40 SWAP1 SWAP5 ADD CALLDATALOAD SWAP4 SWAP3 POP POP POP JUMP JUMPDEST PUSH1 0x0 DUP1 PUSH1 0x40 DUP4 DUP6 SUB SLT ISZERO PUSH2 0x468C JUMPI PUSH1 0x0 DUP1 REVERT JUMPDEST DUP3 CALLDATALOAD SWAP2 POP PUSH1 0x20 DUP4 ADD CALLDATALOAD PUSH1 0x1 PUSH1 0x1 PUSH1 0x40 SHL SUB DUP2 GT ISZERO PUSH2 0x3FF3 JUMPI PUSH1 0x0 DUP1 REVERT JUMPDEST PUSH1 0x0 DUP1 PUSH1 0x0 DUP1 PUSH1 0x80 DUP6 DUP8 SUB SLT ISZERO PUSH2 0x46BF JUMPI PUSH1 0x0 DUP1 REVERT JUMPDEST DUP5 CALLDATALOAD PUSH2 0x46CA DUP2 PUSH2 0x3A95 JUMP JUMPDEST SWAP4 POP PUSH1 0x20 DUP6 ADD CALLDATALOAD PUSH1 0x1 PUSH1 0x1 PUSH1 0x40 SHL SUB DUP2 GT ISZERO PUSH2 0x46E5 JUMPI PUSH1 0x0 DUP1 REVERT JUMPDEST PUSH2 0x46F1 DUP8 DUP3 DUP9 ADD PUSH2 0x3DDB JUMP JUMPDEST SWAP4 POP POP PUSH1 0x40 DUP6 ADD CALLDATALOAD PUSH2 0x4501 DUP2 PUSH2 0x3A95 JUMP JUMPDEST DUP5 DUP2 MSTORE DUP4 PUSH1 0x20 DUP3 ADD MSTORE PUSH1 0x1 PUSH1 0x1 PUSH1 0xA0 SHL SUB DUP4 AND PUSH1 0x40 DUP3 ADD MSTORE PUSH1 0x80 PUSH1 0x60 DUP3 ADD MSTORE PUSH1 0x0 PUSH2 0x3F2F PUSH1 0x80 DUP4 ADD DUP5 PUSH2 0x3AF2 JUMP JUMPDEST PUSH1 0x0 DUP1 PUSH1 0x0 PUSH1 0x60 DUP5 DUP7 SUB SLT ISZERO PUSH2 0x4745 JUMPI PUSH1 0x0 DUP1 REVERT JUMPDEST DUP4 CALLDATALOAD PUSH1 0x1 PUSH1 0x1 PUSH1 0x40 SHL SUB DUP2 GT ISZERO PUSH2 0x475B JUMPI PUSH1 0x0 DUP1 REVERT JUMPDEST PUSH2 0x4767 DUP7 DUP3 DUP8 ADD PUSH2 0x3DDB JUMP JUMPDEST SWAP4 POP POP PUSH1 0x20 DUP5 ADD CALLDATALOAD PUSH2 0x44B8 DUP2 PUSH2 0x3A95 JUMP JUMPDEST PUSH1 0x0 PUSH1 0x60 DUP3 DUP5 SUB SLT ISZERO PUSH2 0x478A JUMPI PUSH1 0x0 DUP1 REVERT JUMPDEST PUSH2 0x3AC7 DUP4 DUP4 PUSH2 0x3BEC JUMP JUMPDEST PUSH1 0x1 DUP2 DUP2 SHR SWAP1 DUP3 AND DUP1 PUSH2 0x47A8 JUMPI PUSH1 0x7F DUP3 AND SWAP2 POP JUMPDEST PUSH1 0x20 DUP3 LT DUP2 SUB PUSH2 0x3BFE JUMPI PUSH4 0x4E487B71 PUSH1 0xE0 SHL PUSH1 0x0 MSTORE PUSH1 0x22 PUSH1 0x4 MSTORE PUSH1 0x24 PUSH1 0x0 REVERT JUMPDEST PUSH4 0x4E487B71 PUSH1 0xE0 SHL PUSH1 0x0 MSTORE PUSH1 0x32 PUSH1 0x4 MSTORE PUSH1 0x24 PUSH1 0x0 REVERT JUMPDEST PUSH4 0x4E487B71 PUSH1 0xE0 SHL PUSH1 0x0 MSTORE PUSH1 0x11 PUSH1 0x4 MSTORE PUSH1 0x24 PUSH1 0x0 REVERT JUMPDEST DUP1 DUP3 ADD DUP1 DUP3 GT ISZERO PUSH2 0x16E8 JUMPI PUSH2 0x16E8 PUSH2 0x47DE JUMP JUMPDEST PUSH1 0x0 PUSH1 0x1 DUP3 ADD PUSH2 0x4819 JUMPI PUSH2 0x4819 PUSH2 0x47DE JUMP JUMPDEST POP PUSH1 0x1 ADD SWAP1 JUMP JUMPDEST PUSH1 0x1F DUP3 GT ISZERO PUSH2 0x16CC JUMPI DUP1 PUSH1 0x0 MSTORE PUSH1 0x20 PUSH1 0x0 KECCAK256 PUSH1 0x1F DUP5 ADD PUSH1 0x5 SHR DUP2 ADD PUSH1 0x20 DUP6 LT ISZERO PUSH2 0x4847 JUMPI POP DUP1 JUMPDEST PUSH1 0x1F DUP5 ADD PUSH1 0x5 SHR DUP3 ADD SWAP2 POP JUMPDEST DUP2 DUP2 LT ISZERO PUSH2 0x289D JUMPI PUSH1 0x0 DUP2 SSTORE PUSH1 0x1 ADD PUSH2 0x4853 JUMP JUMPDEST DUP2 MLOAD PUSH1 0x1 PUSH1 0x1 PUSH1 0x40 SHL SUB DUP2 GT ISZERO PUSH2 0x4880 JUMPI PUSH2 0x4880 PUSH2 0x3D6D JUMP JUMPDEST PUSH2 0x4894 DUP2 PUSH2 0x488E DUP5 SLOAD PUSH2 0x4794 JUMP JUMPDEST DUP5 PUSH2 0x4820 JUMP JUMPDEST PUSH1 0x20 PUSH1 0x1F DUP3 GT PUSH1 0x1 DUP2 EQ PUSH2 0x48CB JUMPI PUSH1 0x0 DUP4 ISZERO PUSH2 0x48B0 JUMPI POP DUP5 DUP3 ADD MLOAD JUMPDEST PUSH1 0x1 DUP5 SWAP1 SHL PUSH1 0x0 NOT PUSH1 0x3 DUP7 SWAP1 SHL SHR NOT DUP3 AND OR JUMPDEST DUP6 SSTORE POP PUSH2 0x289D JUMP JUMPDEST PUSH1 0x0 DUP5 DUP2 MSTORE PUSH1 0x20 DUP2 KECCAK256 PUSH1 0x1F NOT DUP6 AND SWAP2 JUMPDEST DUP3 DUP2 LT ISZERO PUSH2 0x48FB JUMPI DUP8 DUP6 ADD MLOAD DUP3 SSTORE PUSH1 0x20 SWAP5 DUP6 ADD SWAP5 PUSH1 0x1 SWAP1 SWAP3 ADD SWAP2 ADD PUSH2 0x48DB JUMP JUMPDEST POP DUP5 DUP3 LT ISZERO PUSH2 0x4919 JUMPI DUP7 DUP5 ADD MLOAD PUSH1 0x0 NOT PUSH1 0x3 DUP8 SWAP1 SHL PUSH1 0xF8 AND SHR NOT AND DUP2 SSTORE JUMPDEST POP POP POP POP PUSH1 0x1 SWAP1 DUP2 SHL ADD SWAP1 SSTORE POP JUMP JUMPDEST PUSH1 0x20 DUP2 MSTORE PUSH1 0x0 PUSH2 0x3AC7 PUSH1 0x20 DUP4 ADD DUP5 PUSH2 0x3AF2 JUMP JUMPDEST PUSH1 0x20 DUP1 DUP3 MSTORE PUSH1 0x12 SWAP1 DUP3 ADD MSTORE PUSH18 0x129BD888191BD95CC81B9BDD08195E1A5CDD PUSH1 0x72 SHL PUSH1 0x40 DUP3 ADD MSTORE PUSH1 0x60 ADD SWAP1 JUMP JUMPDEST PUSH1 0x0 DUP3 PUSH2 0x4984 JUMPI PUSH4 0x4E487B71 PUSH1 0xE0 SHL PUSH1 0x0 MSTORE PUSH1 0x12 PUSH1 0x4 MSTORE PUSH1 0x24 PUSH1 0x0 REVERT JUMPDEST POP DIV SWAP1 JUMP JUMPDEST PUSH1 0x40 DUP2 MSTORE PUSH1 0x0 PUSH2 0x499C PUSH1 0x40 DUP4 ADD DUP6 PUSH2 0x3AF2 JUMP JUMPDEST SWAP1 POP DUP3 PUSH1 0x20 DUP4 ADD MSTORE SWAP4 SWAP3 POP POP POP JUMP JUMPDEST DUP2 DUP2 SUB PUSH2 0x49B6 JUMPI POP POP JUMP JUMPDEST PUSH2 0x49C0 DUP3 SLOAD PUSH2 0x4794 JUMP JUMPDEST PUSH1 0x1 PUSH1 0x1 PUSH1 0x40 SHL SUB DUP2 GT ISZERO PUSH2 0x49D7 JUMPI PUSH2 0x49D7 PUSH2 0x3D6D JUMP JUMPDEST PUSH2 0x49E5 DUP2 PUSH2 0x488E DUP5 SLOAD PUSH2 0x4794 JUMP JUMPDEST PUSH1 0x0 PUSH1 0x1F DUP3 GT PUSH1 0x1 DUP2 EQ PUSH2 0x4A17 JUMPI PUSH1 0x0 DUP4 ISZERO PUSH2 0x48B0 JUMPI POP DUP2 DUP6 ADD SLOAD PUSH1 0x1 DUP5 SWAP1 SHL PUSH1 0x0 NOT PUSH1 0x3 DUP7 SWAP1 SHL SHR NOT DUP3 AND OR PUSH2 0x48C3 JUMP JUMPDEST PUSH1 0x0 DUP6 DUP2 MSTORE PUSH1 0x20 SWAP1 KECCAK256 PUSH1 0x1F NOT DUP5 AND SWAP1 PUSH1 0x0 DUP7 DUP2 MSTORE PUSH1 0x20 SWAP1 KECCAK256 DUP5 JUMPDEST DUP4 DUP2 LT ISZERO PUSH2 0x4A51 JUMPI DUP3 DUP7 ADD SLOAD DUP3 SSTORE PUSH1 0x1 SWAP6 DUP7 ADD SWAP6 SWAP1 SWAP2 ADD SWAP1 PUSH1 0x20 ADD PUSH2 0x4A31 JUMP JUMPDEST POP DUP6 DUP4 LT ISZERO PUSH2 0x4A6F JUMPI DUP2 DUP6 ADD SLOAD PUSH1 0x0 NOT PUSH1 0x3 DUP9 SWAP1 SHL PUSH1 0xF8 AND SHR NOT AND DUP2 SSTORE JUMPDEST POP POP POP POP POP PUSH1 0x1 SWAP1 DUP2 SHL ADD SWAP1 SSTORE POP JUMP JUMPDEST PUSH1 0x40 DUP2 MSTORE PUSH1 0x0 PUSH2 0x4A92 PUSH1 0x40 DUP4 ADD DUP6 PUSH2 0x3AF2 JUMP JUMPDEST SWAP1 POP PUSH1 0x1 PUSH1 0x1 PUSH1 0xA0 SHL SUB DUP4 AND PUSH1 0x20 DUP4 ADD MSTORE SWAP4 SWAP3 POP POP POP JUMP JUMPDEST PUSH1 0x0 PUSH1 0x20 DUP3 DUP5 SUB SLT ISZERO PUSH2 0x4ABC JUMPI PUSH1 0x0 DUP1 REVERT JUMPDEST DUP2 CALLDATALOAD PUSH1 0x1 PUSH1 0x1 PUSH1 0x40 SHL SUB DUP2 GT ISZERO PUSH2 0x4AD2 JUMPI PUSH1 0x0 DUP1 REVERT JUMPDEST PUSH2 0x17B9 DUP5 DUP3 DUP6 ADD PUSH2 0x3DDB JUMP JUMPDEST PUSH1 0x0 DUP3 MLOAD PUSH2 0x4AF0 DUP2 DUP5 PUSH1 0x20 DUP8 ADD PUSH2 0x3ACE JUMP JUMPDEST SWAP2 SWAP1 SWAP2 ADD SWAP3 SWAP2 POP POP JUMP JUMPDEST PUSH1 0x0 DUP1 PUSH1 0x0 DUP1 PUSH1 0x0 PUSH1 0xA0 DUP7 DUP9 SUB SLT ISZERO PUSH2 0x4B12 JUMPI PUSH1 0x0 DUP1 REVERT JUMPDEST DUP6 CALLDATALOAD PUSH1 0x1 PUSH1 0x1 PUSH1 0x40 SHL SUB DUP2 GT ISZERO PUSH2 0x4B28 JUMPI PUSH1 0x0 DUP1 REVERT JUMPDEST PUSH2 0x4B34 DUP9 DUP3 DUP10 ADD PUSH2 0x3DDB JUMP JUMPDEST SWAP6 POP POP PUSH1 0x20 DUP7 ADD CALLDATALOAD PUSH2 0x4B45 DUP2 PUSH2 0x3A95 JUMP JUMPDEST SWAP4 POP PUSH1 0x40 DUP7 ADD CALLDATALOAD PUSH1 0x1 PUSH1 0x1 PUSH1 0x40 SHL SUB DUP2 GT ISZERO PUSH2 0x4B60 JUMPI PUSH1 0x0 DUP1 REVERT JUMPDEST PUSH2 0x4B6C DUP9 DUP3 DUP10 ADD PUSH2 0x3DDB JUMP JUMPDEST SWAP4 POP POP PUSH1 0x60 DUP7 ADD CALLDATALOAD PUSH2 0x4B7D DUP2 PUSH2 0x3A95 JUMP JUMPDEST SWAP5 SWAP8 SWAP4 SWAP7 POP SWAP2 SWAP5 PUSH1 0x80 ADD CALLDATALOAD SWAP3 SWAP2 POP POP JUMP JUMPDEST PUSH1 0x0 DUP1 PUSH1 0x0 DUP1 PUSH1 0x0 PUSH1 0xA0 DUP7 DUP9 SUB SLT ISZERO PUSH2 0x4BA6 JUMPI PUSH1 0x0 DUP1 REVERT JUMPDEST DUP6 CALLDATALOAD PUSH1 0x1 PUSH1 0x1 PUSH1 0x40 SHL SUB DUP2 GT ISZERO PUSH2 0x4BBC JUMPI PUSH1 0x0 DUP1 REVERT JUMPDEST PUSH2 0x4BC8 DUP9 DUP3 DUP10 ADD PUSH2 0x3DDB JUMP JUMPDEST SWAP6 POP POP PUSH1 0x20 DUP7 ADD CALLDATALOAD PUSH2 0x4BD9 DUP2 PUSH2 0x3A95 JUMP JUMPDEST SWAP4 POP PUSH1 0x40 DUP7 ADD CALLDATALOAD PUSH1 0x1 PUSH1 0x1 PUSH1 0x40 SHL SUB DUP2 GT ISZERO PUSH2 0x4BF4 JUMPI PUSH1 0x0 DUP1 REVERT JUMPDEST PUSH2 0x4C00 DUP9 DUP3 DUP10 ADD PUSH2 0x3DDB JUMP JUMPDEST SWAP4 POP POP PUSH1 0x60 DUP7 ADD CALLDATALOAD PUSH1 0x1 PUSH1 0x1 PUSH1 0x40 SHL SUB DUP2 GT ISZERO PUSH2 0x4C1C JUMPI PUSH1 0x0 DUP1 REVERT JUMPDEST PUSH2 0x4C28 DUP9 DUP3 DUP10 ADD PUSH2 0x3E4A JUMP JUMPDEST SWAP6 SWAP9 SWAP5 SWAP8 POP SWAP3 SWAP6 PUSH1 0x80 ADD CALLDATALOAD SWAP4 SWAP3 POP POP POP JUMP JUMPDEST PUSH1 0x0 DUP1 PUSH1 0x0 DUP1 PUSH1 0x0 PUSH1 0xA0 DUP7 DUP9 SUB SLT ISZERO PUSH2 0x4C52 JUMPI PUSH1 0x0 DUP1 REVERT JUMPDEST DUP6 CALLDATALOAD PUSH1 0x1 PUSH1 0x1 PUSH1 0x40 SHL SUB DUP2 GT ISZERO PUSH2 0x4C68 JUMPI PUSH1 0x0 DUP1 REVERT JUMPDEST PUSH2 0x4C74 DUP9 DUP3 DUP10 ADD PUSH2 0x3DDB JUMP JUMPDEST SWAP6 POP POP PUSH1 0x20 DUP7 ADD CALLDATALOAD PUSH2 0x4C85 DUP2 PUSH2 0x3A95 JUMP JUMPDEST SWAP4 POP PUSH1 0x40 DUP7 ADD CALLDATALOAD SWAP3 POP PUSH1 0x60 DUP7 ADD CALLDATALOAD PUSH1 0x1 PUSH1 0x1 PUSH1 0x40 SHL SUB DUP2 GT ISZERO PUSH2 0x4CA7 JUMPI PUSH1 0x0 DUP1 REVERT JUMPDEST PUSH2 0x4CB3 DUP9 DUP3 DUP10 ADD PUSH2 0x3DDB JUMP JUMPDEST SWAP3 POP POP PUSH1 0x80 DUP7 ADD CALLDATALOAD PUSH1 0x1 PUSH1 0x1 PUSH1 0x40 SHL SUB DUP2 GT ISZERO PUSH2 0x4CCF JUMPI PUSH1 0x0 DUP1 REVERT JUMPDEST PUSH2 0x4CDB DUP9 DUP3 DUP10 ADD PUSH2 0x3E4A JUMP JUMPDEST SWAP2 POP POP SWAP3 SWAP6 POP SWAP3 SWAP6 SWAP1 SWAP4 POP JUMP JUMPDEST PUSH1 0x0 DUP1 PUSH1 0x0 DUP1 PUSH1 0x80 DUP6 DUP8 SUB SLT ISZERO PUSH2 0x4CFE JUMPI PUSH1 0x0 DUP1 REVERT JUMPDEST DUP5 CALLDATALOAD PUSH1 0x1 PUSH1 0x1 PUSH1 0x40 SHL SUB DUP2 GT ISZERO PUSH2 0x4D14 JUMPI PUSH1 0x0 DUP1 REVERT JUMPDEST PUSH2 0x4D20 DUP8 DUP3 DUP9 ADD PUSH2 0x3DDB JUMP JUMPDEST SWAP5 POP POP PUSH1 0x20 DUP6 ADD CALLDATALOAD PUSH2 0x4D31 DUP2 PUSH2 0x3A95 JUMP JUMPDEST SWAP3 POP PUSH1 0x40 DUP6 ADD CALLDATALOAD SWAP2 POP PUSH2 0x4D46 PUSH1 0x60 DUP7 ADD PUSH2 0x43D2 JUMP JUMPDEST SWAP1 POP SWAP3 SWAP6 SWAP2 SWAP5 POP SWAP3 POP JUMP JUMPDEST PUSH1 0x0 DUP1 PUSH1 0x0 DUP1 PUSH1 0x80 DUP6 DUP8 SUB SLT ISZERO PUSH2 0x4D67 JUMPI PUSH1 0x0 DUP1 REVERT JUMPDEST DUP5 CALLDATALOAD PUSH1 0x1 PUSH1 0x1 PUSH1 0x40 SHL SUB DUP2 GT ISZERO PUSH2 0x4D7D JUMPI PUSH1 0x0 DUP1 REVERT JUMPDEST PUSH2 0x4D89 DUP8 DUP3 DUP9 ADD PUSH2 0x3DDB JUMP JUMPDEST SWAP5 POP POP PUSH1 0x20 DUP6 ADD CALLDATALOAD PUSH2 0x4D9A DUP2 PUSH2 0x3A95 JUMP JUMPDEST SWAP3 POP PUSH1 0x40 DUP6 ADD CALLDATALOAD SWAP2 POP PUSH1 0x60 DUP6 ADD CALLDATALOAD PUSH1 0x1 PUSH1 0x1 PUSH1 0x40 SHL SUB DUP2 GT ISZERO PUSH2 0x4DBC JUMPI PUSH1 0x0 DUP1 REVERT JUMPDEST PUSH2 0x4485 DUP8 DUP3 DUP9 ADD PUSH2 0x3DDB JUMP JUMPDEST PUSH1 0x0 DUP1 PUSH1 0x0 DUP1 PUSH1 0x80 DUP6 DUP8 SUB SLT ISZERO PUSH2 0x4DDE JUMPI PUSH1 0x0 DUP1 REVERT JUMPDEST DUP5 CALLDATALOAD PUSH1 0x1 PUSH1 0x1 PUSH1 0x40 SHL SUB DUP2 GT ISZERO PUSH2 0x4DF4 JUMPI PUSH1 0x0 DUP1 REVERT JUMPDEST PUSH2 0x4E00 DUP8 DUP3 DUP9 ADD PUSH2 0x3DDB JUMP JUMPDEST SWAP5 POP POP PUSH1 0x20 DUP6 ADD CALLDATALOAD PUSH2 0x4E11 DUP2 PUSH2 0x3A95 JUMP JUMPDEST SWAP4 SWAP7 SWAP4 SWAP6 POP POP POP POP PUSH1 0x40 DUP3 ADD CALLDATALOAD SWAP2 PUSH1 0x60 ADD CALLDATALOAD SWAP1 JUMP JUMPDEST PUSH1 0x0 DUP1 PUSH1 0x0 DUP1 PUSH1 0x0 PUSH1 0xA0 DUP7 DUP9 SUB SLT ISZERO PUSH2 0x4E3E JUMPI PUSH1 0x0 DUP1 REVERT JUMPDEST DUP6 CALLDATALOAD PUSH1 0x1 PUSH1 0x1 PUSH1 0x40 SHL SUB DUP2 GT ISZERO PUSH2 0x4E54 JUMPI PUSH1 0x0 DUP1 REVERT JUMPDEST PUSH2 0x4E60 DUP9 DUP3 DUP10 ADD PUSH2 0x3DDB JUMP JUMPDEST SWAP6 POP POP PUSH1 0x20 DUP7 ADD CALLDATALOAD PUSH2 0x4E71 DUP2 PUSH2 0x3A95 JUMP JUMPDEST SWAP4 POP PUSH1 0x40 DUP7 ADD CALLDATALOAD SWAP3 POP PUSH1 0x60 DUP7 ADD CALLDATALOAD PUSH2 0x4B7D DUP2 PUSH2 0x3A95 JUMP JUMPDEST PUSH1 0x0 DUP1 PUSH1 0x0 PUSH1 0x60 DUP5 DUP7 SUB SLT ISZERO PUSH2 0x4E9D JUMPI PUSH1 0x0 DUP1 REVERT JUMPDEST DUP4 CALLDATALOAD PUSH1 0x1 PUSH1 0x1 PUSH1 0x40 SHL SUB DUP2 GT ISZERO PUSH2 0x4EB3 JUMPI PUSH1 0x0 DUP1 REVERT JUMPDEST PUSH2 0x4EBF DUP7 DUP3 DUP8 ADD PUSH2 0x3DDB JUMP JUMPDEST SWAP4 POP POP PUSH1 0x20 DUP5 ADD CALLDATALOAD PUSH2 0x4ED0 DUP2 PUSH2 0x3A95 JUMP JUMPDEST SWAP2 POP PUSH1 0x40 DUP5 ADD CALLDATALOAD PUSH1 0x1 PUSH1 0x1 PUSH1 0x40 SHL SUB DUP2 GT ISZERO PUSH2 0x4553 JUMPI PUSH1 0x0 DUP1 REVERT INVALID LOG2 PUSH5 0x6970667358 0x22 SLT KECCAK256 MSIZE BALANCE MSTORE 0x2C 0xC3 0x25 SAR EQ GASPRICE 0xEB 0x2E SWAP10 0xF8 GT CALLCODE SELFDESTRUCT PUSH17 0x4B3B33511363709947BB7802B4C1BB6473 PUSH16 0x6C634300081C00330000000000000000 "
		},
		"gasEstimates": {
			"creation": {
				"codeDepositCost": "4051400",
				"executionCost": "infinite",
				"totalCost": "infinite"
			},
			"external": {
				"addPortfolio(address,string)": "infinite",
				"allowInitializePath((uint32,bytes32,uint64))": "infinite",
				"applyToJob(address,uint256,string,(string,uint256)[])": "infinite",
				"applyToJob(uint256,string,(string,uint256)[])": "infinite",
				"createProfile(address,string,address,uint256)": "infinite",
				"createProfile(string,address,uint256)": "infinite",
				"endpoint()": "infinite",
				"executedMessages(bytes32)": "2518",
				"getApplication(uint256,uint256)": "infinite",
				"getJob(uint256)": "infinite",
				"getJobDetails(uint256)": "infinite",
				"getProfile(address)": "infinite",
				"getRating(address)": "infinite",
				"hasProfile(address)": "2593",
				"isComposeMsgSender((uint32,bytes32,uint64),bytes,address)": "831",
				"isOpen(uint256)": "4777",
				"jobApplicationCounter(uint256)": "2505",
				"jobApplications(uint256,uint256)": "infinite",
				"jobCounter()": "2364",
				"jobRatings(uint256,address)": "2706",
				"jobs(uint256)": "infinite",
				"lockNextMilestone(address,uint256,uint256)": "59544",
				"lockNextMilestone(uint256,uint256)": "59488",
				"lzReceive((uint32,bytes32,uint64),bytes32,bytes,address,bytes)": "infinite",
				"nextNonce(uint32,bytes32)": "493",
				"oAppVersion()": "286",
				"owner()": "2398",
				"peers(uint32)": "2575",
				"postJob(address,string,(string,uint256)[],uint256)": "infinite",
				"postJob(string,(string,uint256)[])": "infinite",
				"profiles(address)": "infinite",
				"rate(address,uint256,address,uint256)": "infinite",
				"rate(uint256,address,uint256)": "87052",
				"releasePayment(address,uint256,uint256)": "infinite",
				"releasePayment(uint256,uint256)": "infinite",
				"renounceOwnership()": "infinite",
				"rewardsContract()": "2472",
				"setDelegate(address)": "infinite",
				"setPeer(uint32,bytes32)": "26105",
				"setRewardsContract(address)": "26840",
				"startJob(address,uint256,bool)": "infinite",
				"startJob(uint256,bool)": "infinite",
				"submitWork(address,uint256,string)": "infinite",
				"submitWork(uint256,string)": "infinite",
				"transferOwnership(address)": "infinite",
				"userRatings(address,uint256)": "4805"
			},
			"internal": {
				"_lzReceive(struct Origin calldata,bytes32,bytes calldata,address,bytes calldata)": "infinite"
			}
		},
		"methodIdentifiers": {
			"addPortfolio(address,string)": "2c317eb2",
			"allowInitializePath((uint32,bytes32,uint64))": "ff7bd03d",
			"applyToJob(address,uint256,string,(string,uint256)[])": "9d89a1db",
			"applyToJob(uint256,string,(string,uint256)[])": "5abb964d",
			"createProfile(address,string,address,uint256)": "e5deef6d",
			"createProfile(string,address,uint256)": "f4f824bb",
			"endpoint()": "5e280f11",
			"executedMessages(bytes32)": "cd2abd66",
			"getApplication(uint256,uint256)": "832a05b7",
			"getJob(uint256)": "bf22c457",
			"getJobDetails(uint256)": "4cac35c6",
			"getProfile(address)": "0f53a470",
			"getRating(address)": "80fc9c0e",
			"hasProfile(address)": "a787c80b",
			"isComposeMsgSender((uint32,bytes32,uint64),bytes,address)": "82413eac",
			"isOpen(uint256)": "4d6861a6",
			"jobApplicationCounter(uint256)": "e1897767",
			"jobApplications(uint256,uint256)": "ead39a11",
			"jobCounter()": "50355d76",
			"jobRatings(uint256,address)": "bbbacdfc",
			"jobs(uint256)": "180aedf3",
			"lockNextMilestone(address,uint256,uint256)": "d9f76f62",
			"lockNextMilestone(uint256,uint256)": "315e6542",
			"lzReceive((uint32,bytes32,uint64),bytes32,bytes,address,bytes)": "13137d65",
			"nextNonce(uint32,bytes32)": "7d25a05e",
			"oAppVersion()": "17442b70",
			"owner()": "8da5cb5b",
			"peers(uint32)": "bb0b6a53",
			"postJob(address,string,(string,uint256)[],uint256)": "248506c3",
			"postJob(string,(string,uint256)[])": "80cd2580",
			"profiles(address)": "bbe15627",
			"rate(address,uint256,address,uint256)": "a89c0949",
			"rate(uint256,address,uint256)": "a83b083c",
			"releasePayment(address,uint256,uint256)": "dc404aff",
			"releasePayment(uint256,uint256)": "97e99a80",
			"renounceOwnership()": "715018a6",
			"rewardsContract()": "220cce97",
			"setDelegate(address)": "ca5eb5e1",
			"setPeer(uint32,bytes32)": "3400288b",
			"setRewardsContract(address)": "dfa0dfa5",
			"startJob(address,uint256,bool)": "ced25488",
			"startJob(uint256,bool)": "992a80e4",
			"submitWork(address,uint256,string)": "b7a93083",
			"submitWork(uint256,string)": "da8accf9",
			"transferOwnership(address)": "f2fde38b",
			"userRatings(address,uint256)": "be001f6f"
		}
	},
	"abi": [
		{
			"inputs": [
				{
					"internalType": "address",
					"name": "_endpoint",
					"type": "address"
				},
				{
					"internalType": "address",
					"name": "_owner",
					"type": "address"
				}
			],
			"stateMutability": "nonpayable",
			"type": "constructor"
		},
		{
			"inputs": [],
			"name": "InvalidDelegate",
			"type": "error"
		},
		{
			"inputs": [],
			"name": "InvalidEndpointCall",
			"type": "error"
		},
		{
			"inputs": [],
			"name": "LzTokenUnavailable",
			"type": "error"
		},
		{
			"inputs": [
				{
					"internalType": "uint32",
					"name": "eid",
					"type": "uint32"
				}
			],
			"name": "NoPeer",
			"type": "error"
		},
		{
			"inputs": [
				{
					"internalType": "uint256",
					"name": "msgValue",
					"type": "uint256"
				}
			],
			"name": "NotEnoughNative",
			"type": "error"
		},
		{
			"inputs": [
				{
					"internalType": "address",
					"name": "addr",
					"type": "address"
				}
			],
			"name": "OnlyEndpoint",
			"type": "error"
		},
		{
			"inputs": [
				{
					"internalType": "uint32",
					"name": "eid",
					"type": "uint32"
				},
				{
					"internalType": "bytes32",
					"name": "sender",
					"type": "bytes32"
				}
			],
			"name": "OnlyPeer",
			"type": "error"
		},
		{
			"inputs": [
				{
					"internalType": "address",
					"name": "owner",
					"type": "address"
				}
			],
			"name": "OwnableInvalidOwner",
			"type": "error"
		},
		{
			"inputs": [
				{
					"internalType": "address",
					"name": "account",
					"type": "address"
				}
			],
			"name": "OwnableUnauthorizedAccount",
			"type": "error"
		},
		{
			"anonymous": false,
			"inputs": [
				{
					"indexed": true,
					"internalType": "bytes32",
					"name": "messageId",
					"type": "bytes32"
				},
				{
					"indexed": true,
					"internalType": "string",
					"name": "messageType",
					"type": "string"
				},
				{
					"indexed": true,
					"internalType": "address",
					"name": "executor",
					"type": "address"
				}
			],
			"name": "CrossChainMessageReceived",
			"type": "event"
		},
		{
			"anonymous": false,
			"inputs": [
				{
					"indexed": true,
					"internalType": "uint256",
					"name": "jobId",
					"type": "uint256"
				},
				{
					"indexed": true,
					"internalType": "uint256",
					"name": "applicationId",
					"type": "uint256"
				},
				{
					"indexed": true,
					"internalType": "address",
					"name": "applicant",
					"type": "address"
				},
				{
					"indexed": false,
					"internalType": "string",
					"name": "applicationHash",
					"type": "string"
				}
			],
			"name": "JobApplication",
			"type": "event"
		},
		{
			"anonymous": false,
			"inputs": [
				{
					"indexed": true,
					"internalType": "uint256",
					"name": "jobId",
					"type": "uint256"
				},
				{
					"indexed": true,
					"internalType": "address",
					"name": "jobGiver",
					"type": "address"
				},
				{
					"indexed": false,
					"internalType": "string",
					"name": "jobDetailHash",
					"type": "string"
				}
			],
			"name": "JobPosted",
			"type": "event"
		},
		{
			"anonymous": false,
			"inputs": [
				{
					"indexed": true,
					"internalType": "uint256",
					"name": "jobId",
					"type": "uint256"
				},
				{
					"indexed": true,
					"internalType": "uint256",
					"name": "applicationId",
					"type": "uint256"
				},
				{
					"indexed": true,
					"internalType": "address",
					"name": "selectedApplicant",
					"type": "address"
				},
				{
					"indexed": false,
					"internalType": "bool",
					"name": "useApplicantMilestones",
					"type": "bool"
				}
			],
			"name": "JobStarted",
			"type": "event"
		},
		{
			"anonymous": false,
			"inputs": [
				{
					"indexed": true,
					"internalType": "uint256",
					"name": "jobId",
					"type": "uint256"
				},
				{
					"indexed": false,
					"internalType": "uint256",
					"name": "newMilestone",
					"type": "uint256"
				},
				{
					"indexed": false,
					"internalType": "uint256",
					"name": "lockedAmount",
					"type": "uint256"
				}
			],
			"name": "MilestoneLocked",
			"type": "event"
		},
		{
			"anonymous": false,
			"inputs": [
				{
					"indexed": true,
					"internalType": "address",
					"name": "previousOwner",
					"type": "address"
				},
				{
					"indexed": true,
					"internalType": "address",
					"name": "newOwner",
					"type": "address"
				}
			],
			"name": "OwnershipTransferred",
			"type": "event"
		},
		{
			"anonymous": false,
			"inputs": [
				{
					"indexed": true,
					"internalType": "uint256",
					"name": "jobId",
					"type": "uint256"
				},
				{
					"indexed": true,
					"internalType": "address",
					"name": "jobGiver",
					"type": "address"
				},
				{
					"indexed": true,
					"internalType": "address",
					"name": "applicant",
					"type": "address"
				},
				{
					"indexed": false,
					"internalType": "uint256",
					"name": "amount",
					"type": "uint256"
				},
				{
					"indexed": false,
					"internalType": "uint256",
					"name": "milestone",
					"type": "uint256"
				}
			],
			"name": "PaymentReleased",
			"type": "event"
		},
		{
			"anonymous": false,
			"inputs": [
				{
					"indexed": false,
					"internalType": "uint32",
					"name": "eid",
					"type": "uint32"
				},
				{
					"indexed": false,
					"internalType": "bytes32",
					"name": "peer",
					"type": "bytes32"
				}
			],
			"name": "PeerSet",
			"type": "event"
		},
		{
			"anonymous": false,
			"inputs": [
				{
					"indexed": true,
					"internalType": "address",
					"name": "user",
					"type": "address"
				},
				{
					"indexed": false,
					"internalType": "string",
					"name": "portfolioHash",
					"type": "string"
				}
			],
			"name": "PortfolioAdded",
			"type": "event"
		},
		{
			"anonymous": false,
			"inputs": [
				{
					"indexed": true,
					"internalType": "address",
					"name": "user",
					"type": "address"
				},
				{
					"indexed": false,
					"internalType": "string",
					"name": "ipfsHash",
					"type": "string"
				},
				{
					"indexed": false,
					"internalType": "address",
					"name": "referrer",
					"type": "address"
				}
			],
			"name": "ProfileCreated",
			"type": "event"
		},
		{
			"anonymous": false,
			"inputs": [
				{
					"indexed": true,
					"internalType": "uint256",
					"name": "jobId",
					"type": "uint256"
				},
				{
					"indexed": true,
					"internalType": "address",
					"name": "rater",
					"type": "address"
				},
				{
					"indexed": true,
					"internalType": "address",
					"name": "rated",
					"type": "address"
				},
				{
					"indexed": false,
					"internalType": "uint256",
					"name": "rating",
					"type": "uint256"
				}
			],
			"name": "UserRated",
			"type": "event"
		},
		{
			"anonymous": false,
			"inputs": [
				{
					"indexed": true,
					"internalType": "uint256",
					"name": "jobId",
					"type": "uint256"
				},
				{
					"indexed": true,
					"internalType": "address",
					"name": "applicant",
					"type": "address"
				},
				{
					"indexed": false,
					"internalType": "string",
					"name": "submissionHash",
					"type": "string"
				},
				{
					"indexed": false,
					"internalType": "uint256",
					"name": "milestone",
					"type": "uint256"
				}
			],
			"name": "WorkSubmitted",
			"type": "event"
		},
		{
			"inputs": [
				{
					"internalType": "address",
					"name": "_user",
					"type": "address"
				},
				{
					"internalType": "string",
					"name": "_portfolioHash",
					"type": "string"
				}
			],
			"name": "addPortfolio",
			"outputs": [],
			"stateMutability": "nonpayable",
			"type": "function"
		},
		{
			"inputs": [
				{
					"components": [
						{
							"internalType": "uint32",
							"name": "srcEid",
							"type": "uint32"
						},
						{
							"internalType": "bytes32",
							"name": "sender",
							"type": "bytes32"
						},
						{
							"internalType": "uint64",
							"name": "nonce",
							"type": "uint64"
						}
					],
					"internalType": "struct Origin",
					"name": "origin",
					"type": "tuple"
				}
			],
			"name": "allowInitializePath",
			"outputs": [
				{
					"internalType": "bool",
					"name": "",
					"type": "bool"
				}
			],
			"stateMutability": "view",
			"type": "function"
		},
		{
			"inputs": [
				{
					"internalType": "uint256",
					"name": "_jobId",
					"type": "uint256"
				},
				{
					"internalType": "string",
					"name": "_applicationHash",
					"type": "string"
				},
				{
					"components": [
						{
							"internalType": "string",
							"name": "descriptionHash",
							"type": "string"
						},
						{
							"internalType": "uint256",
							"name": "amount",
							"type": "uint256"
						}
					],
					"internalType": "struct NativeOpenWorkJobContract.MilestonePayment[]",
					"name": "_proposedMilestones",
					"type": "tuple[]"
				}
			],
			"name": "applyToJob",
			"outputs": [],
			"stateMutability": "nonpayable",
			"type": "function"
		},
		{
			"inputs": [
				{
					"internalType": "address",
					"name": "_applicant",
					"type": "address"
				},
				{
					"internalType": "uint256",
					"name": "_jobId",
					"type": "uint256"
				},
				{
					"internalType": "string",
					"name": "_applicationHash",
					"type": "string"
				},
				{
					"components": [
						{
							"internalType": "string",
							"name": "descriptionHash",
							"type": "string"
						},
						{
							"internalType": "uint256",
							"name": "amount",
							"type": "uint256"
						}
					],
					"internalType": "struct NativeOpenWorkJobContract.MilestonePayment[]",
					"name": "_proposedMilestones",
					"type": "tuple[]"
				}
			],
			"name": "applyToJob",
			"outputs": [],
			"stateMutability": "nonpayable",
			"type": "function"
		},
		{
			"inputs": [
				{
					"internalType": "address",
					"name": "_user",
					"type": "address"
				},
				{
					"internalType": "string",
					"name": "_ipfsHash",
					"type": "string"
				},
				{
					"internalType": "address",
					"name": "_referrerAddress",
					"type": "address"
				},
				{
					"internalType": "uint256",
					"name": "_rating",
					"type": "uint256"
				}
			],
			"name": "createProfile",
			"outputs": [],
			"stateMutability": "nonpayable",
			"type": "function"
		},
		{
			"inputs": [
				{
					"internalType": "string",
					"name": "_ipfsHash",
					"type": "string"
				},
				{
					"internalType": "address",
					"name": "_referrerAddress",
					"type": "address"
				},
				{
					"internalType": "uint256",
					"name": "_rating",
					"type": "uint256"
				}
			],
			"name": "createProfile",
			"outputs": [],
			"stateMutability": "nonpayable",
			"type": "function"
		},
		{
			"inputs": [],
			"name": "endpoint",
			"outputs": [
				{
					"internalType": "contract ILayerZeroEndpointV2",
					"name": "",
					"type": "address"
				}
			],
			"stateMutability": "view",
			"type": "function"
		},
		{
			"inputs": [
				{
					"internalType": "bytes32",
					"name": "",
					"type": "bytes32"
				}
			],
			"name": "executedMessages",
			"outputs": [
				{
					"internalType": "bool",
					"name": "",
					"type": "bool"
				}
			],
			"stateMutability": "view",
			"type": "function"
		},
		{
			"inputs": [
				{
					"internalType": "uint256",
					"name": "_jobId",
					"type": "uint256"
				},
				{
					"internalType": "uint256",
					"name": "_applicationId",
					"type": "uint256"
				}
			],
			"name": "getApplication",
			"outputs": [
				{
					"components": [
						{
							"internalType": "uint256",
							"name": "id",
							"type": "uint256"
						},
						{
							"internalType": "uint256",
							"name": "jobId",
							"type": "uint256"
						},
						{
							"internalType": "address",
							"name": "applicant",
							"type": "address"
						},
						{
							"internalType": "string",
							"name": "applicationHash",
							"type": "string"
						},
						{
							"components": [
								{
									"internalType": "string",
									"name": "descriptionHash",
									"type": "string"
								},
								{
									"internalType": "uint256",
									"name": "amount",
									"type": "uint256"
								}
							],
							"internalType": "struct NativeOpenWorkJobContract.MilestonePayment[]",
							"name": "proposedMilestones",
							"type": "tuple[]"
						}
					],
					"internalType": "struct NativeOpenWorkJobContract.Application",
					"name": "",
					"type": "tuple"
				}
			],
			"stateMutability": "view",
			"type": "function"
		},
		{
			"inputs": [
				{
					"internalType": "uint256",
					"name": "_jobId",
					"type": "uint256"
				}
			],
			"name": "getJob",
			"outputs": [
				{
					"components": [
						{
							"internalType": "uint256",
							"name": "id",
							"type": "uint256"
						},
						{
							"internalType": "address",
							"name": "jobGiver",
							"type": "address"
						},
						{
							"internalType": "address[]",
							"name": "applicants",
							"type": "address[]"
						},
						{
							"internalType": "string",
							"name": "jobDetailHash",
							"type": "string"
						},
						{
							"internalType": "bool",
							"name": "isOpen",
							"type": "bool"
						},
						{
							"internalType": "string[]",
							"name": "workSubmissions",
							"type": "string[]"
						},
						{
							"components": [
								{
									"internalType": "string",
									"name": "descriptionHash",
									"type": "string"
								},
								{
									"internalType": "uint256",
									"name": "amount",
									"type": "uint256"
								}
							],
							"internalType": "struct NativeOpenWorkJobContract.MilestonePayment[]",
							"name": "milestonePayments",
							"type": "tuple[]"
						},
						{
							"components": [
								{
									"internalType": "string",
									"name": "descriptionHash",
									"type": "string"
								},
								{
									"internalType": "uint256",
									"name": "amount",
									"type": "uint256"
								}
							],
							"internalType": "struct NativeOpenWorkJobContract.MilestonePayment[]",
							"name": "finalMilestones",
							"type": "tuple[]"
						},
						{
							"internalType": "uint256",
							"name": "totalPaid",
							"type": "uint256"
						},
						{
							"internalType": "uint256",
							"name": "currentLockedAmount",
							"type": "uint256"
						},
						{
							"internalType": "uint256",
							"name": "currentMilestone",
							"type": "uint256"
						},
						{
							"internalType": "address",
							"name": "selectedApplicant",
							"type": "address"
						},
						{
							"internalType": "uint256",
							"name": "selectedApplicationId",
							"type": "uint256"
						}
					],
					"internalType": "struct NativeOpenWorkJobContract.Job",
					"name": "",
					"type": "tuple"
				}
			],
			"stateMutability": "view",
			"type": "function"
		},
		{
			"inputs": [
				{
					"internalType": "uint256",
					"name": "_jobId",
					"type": "uint256"
				}
			],
			"name": "getJobDetails",
			"outputs": [
				{
					"components": [
						{
							"internalType": "uint256",
							"name": "id",
							"type": "uint256"
						},
						{
							"internalType": "address",
							"name": "jobGiver",
							"type": "address"
						},
						{
							"internalType": "address[]",
							"name": "applicants",
							"type": "address[]"
						},
						{
							"internalType": "string",
							"name": "jobDetailHash",
							"type": "string"
						},
						{
							"internalType": "bool",
							"name": "isOpen",
							"type": "bool"
						},
						{
							"internalType": "string[]",
							"name": "workSubmissions",
							"type": "string[]"
						},
						{
							"components": [
								{
									"internalType": "string",
									"name": "descriptionHash",
									"type": "string"
								},
								{
									"internalType": "uint256",
									"name": "amount",
									"type": "uint256"
								}
							],
							"internalType": "struct NativeOpenWorkJobContract.MilestonePayment[]",
							"name": "milestonePayments",
							"type": "tuple[]"
						},
						{
							"components": [
								{
									"internalType": "string",
									"name": "descriptionHash",
									"type": "string"
								},
								{
									"internalType": "uint256",
									"name": "amount",
									"type": "uint256"
								}
							],
							"internalType": "struct NativeOpenWorkJobContract.MilestonePayment[]",
							"name": "finalMilestones",
							"type": "tuple[]"
						},
						{
							"internalType": "uint256",
							"name": "totalPaid",
							"type": "uint256"
						},
						{
							"internalType": "uint256",
							"name": "currentLockedAmount",
							"type": "uint256"
						},
						{
							"internalType": "uint256",
							"name": "currentMilestone",
							"type": "uint256"
						},
						{
							"internalType": "address",
							"name": "selectedApplicant",
							"type": "address"
						},
						{
							"internalType": "uint256",
							"name": "selectedApplicationId",
							"type": "uint256"
						}
					],
					"internalType": "struct NativeOpenWorkJobContract.Job",
					"name": "",
					"type": "tuple"
				}
			],
			"stateMutability": "view",
			"type": "function"
		},
		{
			"inputs": [
				{
					"internalType": "address",
					"name": "_user",
					"type": "address"
				}
			],
			"name": "getProfile",
			"outputs": [
				{
					"components": [
						{
							"internalType": "address",
							"name": "userAddress",
							"type": "address"
						},
						{
							"internalType": "string",
							"name": "ipfsHash",
							"type": "string"
						},
						{
							"internalType": "address",
							"name": "referrerAddress",
							"type": "address"
						},
						{
							"internalType": "uint256",
							"name": "rating",
							"type": "uint256"
						},
						{
							"internalType": "string[]",
							"name": "portfolioHashes",
							"type": "string[]"
						}
					],
					"internalType": "struct NativeOpenWorkJobContract.Profile",
					"name": "",
					"type": "tuple"
				}
			],
			"stateMutability": "view",
			"type": "function"
		},
		{
			"inputs": [
				{
					"internalType": "address",
					"name": "_user",
					"type": "address"
				}
			],
			"name": "getRating",
			"outputs": [
				{
					"internalType": "uint256",
					"name": "",
					"type": "uint256"
				}
			],
			"stateMutability": "view",
			"type": "function"
		},
		{
			"inputs": [
				{
					"internalType": "address",
					"name": "",
					"type": "address"
				}
			],
			"name": "hasProfile",
			"outputs": [
				{
					"internalType": "bool",
					"name": "",
					"type": "bool"
				}
			],
			"stateMutability": "view",
			"type": "function"
		},
		{
			"inputs": [
				{
					"components": [
						{
							"internalType": "uint32",
							"name": "srcEid",
							"type": "uint32"
						},
						{
							"internalType": "bytes32",
							"name": "sender",
							"type": "bytes32"
						},
						{
							"internalType": "uint64",
							"name": "nonce",
							"type": "uint64"
						}
					],
					"internalType": "struct Origin",
					"name": "",
					"type": "tuple"
				},
				{
					"internalType": "bytes",
					"name": "",
					"type": "bytes"
				},
				{
					"internalType": "address",
					"name": "_sender",
					"type": "address"
				}
			],
			"name": "isComposeMsgSender",
			"outputs": [
				{
					"internalType": "bool",
					"name": "",
					"type": "bool"
				}
			],
			"stateMutability": "view",
			"type": "function"
		},
		{
			"inputs": [
				{
					"internalType": "uint256",
					"name": "_jobId",
					"type": "uint256"
				}
			],
			"name": "isOpen",
			"outputs": [
				{
					"internalType": "bool",
					"name": "",
					"type": "bool"
				}
			],
			"stateMutability": "view",
			"type": "function"
		},
		{
			"inputs": [
				{
					"internalType": "uint256",
					"name": "",
					"type": "uint256"
				}
			],
			"name": "jobApplicationCounter",
			"outputs": [
				{
					"internalType": "uint256",
					"name": "",
					"type": "uint256"
				}
			],
			"stateMutability": "view",
			"type": "function"
		},
		{
			"inputs": [
				{
					"internalType": "uint256",
					"name": "",
					"type": "uint256"
				},
				{
					"internalType": "uint256",
					"name": "",
					"type": "uint256"
				}
			],
			"name": "jobApplications",
			"outputs": [
				{
					"internalType": "uint256",
					"name": "id",
					"type": "uint256"
				},
				{
					"internalType": "uint256",
					"name": "jobId",
					"type": "uint256"
				},
				{
					"internalType": "address",
					"name": "applicant",
					"type": "address"
				},
				{
					"internalType": "string",
					"name": "applicationHash",
					"type": "string"
				}
			],
			"stateMutability": "view",
			"type": "function"
		},
		{
			"inputs": [],
			"name": "jobCounter",
			"outputs": [
				{
					"internalType": "uint256",
					"name": "",
					"type": "uint256"
				}
			],
			"stateMutability": "view",
			"type": "function"
		},
		{
			"inputs": [
				{
					"internalType": "uint256",
					"name": "",
					"type": "uint256"
				},
				{
					"internalType": "address",
					"name": "",
					"type": "address"
				}
			],
			"name": "jobRatings",
			"outputs": [
				{
					"internalType": "uint256",
					"name": "",
					"type": "uint256"
				}
			],
			"stateMutability": "view",
			"type": "function"
		},
		{
			"inputs": [
				{
					"internalType": "uint256",
					"name": "",
					"type": "uint256"
				}
			],
			"name": "jobs",
			"outputs": [
				{
					"internalType": "uint256",
					"name": "id",
					"type": "uint256"
				},
				{
					"internalType": "address",
					"name": "jobGiver",
					"type": "address"
				},
				{
					"internalType": "string",
					"name": "jobDetailHash",
					"type": "string"
				},
				{
					"internalType": "bool",
					"name": "isOpen",
					"type": "bool"
				},
				{
					"internalType": "uint256",
					"name": "totalPaid",
					"type": "uint256"
				},
				{
					"internalType": "uint256",
					"name": "currentLockedAmount",
					"type": "uint256"
				},
				{
					"internalType": "uint256",
					"name": "currentMilestone",
					"type": "uint256"
				},
				{
					"internalType": "address",
					"name": "selectedApplicant",
					"type": "address"
				},
				{
					"internalType": "uint256",
					"name": "selectedApplicationId",
					"type": "uint256"
				}
			],
			"stateMutability": "view",
			"type": "function"
		},
		{
			"inputs": [
				{
					"internalType": "uint256",
					"name": "_jobId",
					"type": "uint256"
				},
				{
					"internalType": "uint256",
					"name": "_lockedAmount",
					"type": "uint256"
				}
			],
			"name": "lockNextMilestone",
			"outputs": [],
			"stateMutability": "nonpayable",
			"type": "function"
		},
		{
			"inputs": [
				{
					"internalType": "address",
					"name": "",
					"type": "address"
				},
				{
					"internalType": "uint256",
					"name": "_jobId",
					"type": "uint256"
				},
				{
					"internalType": "uint256",
					"name": "_lockedAmount",
					"type": "uint256"
				}
			],
			"name": "lockNextMilestone",
			"outputs": [],
			"stateMutability": "nonpayable",
			"type": "function"
		},
		{
			"inputs": [
				{
					"components": [
						{
							"internalType": "uint32",
							"name": "srcEid",
							"type": "uint32"
						},
						{
							"internalType": "bytes32",
							"name": "sender",
							"type": "bytes32"
						},
						{
							"internalType": "uint64",
							"name": "nonce",
							"type": "uint64"
						}
					],
					"internalType": "struct Origin",
					"name": "_origin",
					"type": "tuple"
				},
				{
					"internalType": "bytes32",
					"name": "_guid",
					"type": "bytes32"
				},
				{
					"internalType": "bytes",
					"name": "_message",
					"type": "bytes"
				},
				{
					"internalType": "address",
					"name": "_executor",
					"type": "address"
				},
				{
					"internalType": "bytes",
					"name": "_extraData",
					"type": "bytes"
				}
			],
			"name": "lzReceive",
			"outputs": [],
			"stateMutability": "payable",
			"type": "function"
		},
		{
			"inputs": [
				{
					"internalType": "uint32",
					"name": "",
					"type": "uint32"
				},
				{
					"internalType": "bytes32",
					"name": "",
					"type": "bytes32"
				}
			],
			"name": "nextNonce",
			"outputs": [
				{
					"internalType": "uint64",
					"name": "nonce",
					"type": "uint64"
				}
			],
			"stateMutability": "view",
			"type": "function"
		},
		{
			"inputs": [],
			"name": "oAppVersion",
			"outputs": [
				{
					"internalType": "uint64",
					"name": "senderVersion",
					"type": "uint64"
				},
				{
					"internalType": "uint64",
					"name": "receiverVersion",
					"type": "uint64"
				}
			],
			"stateMutability": "pure",
			"type": "function"
		},
		{
			"inputs": [],
			"name": "owner",
			"outputs": [
				{
					"internalType": "address",
					"name": "",
					"type": "address"
				}
			],
			"stateMutability": "view",
			"type": "function"
		},
		{
			"inputs": [
				{
					"internalType": "uint32",
					"name": "eid",
					"type": "uint32"
				}
			],
			"name": "peers",
			"outputs": [
				{
					"internalType": "bytes32",
					"name": "peer",
					"type": "bytes32"
				}
			],
			"stateMutability": "view",
			"type": "function"
		},
		{
			"inputs": [
				{
					"internalType": "address",
					"name": "_jobGiver",
					"type": "address"
				},
				{
					"internalType": "string",
					"name": "_jobDetailHash",
					"type": "string"
				},
				{
					"components": [
						{
							"internalType": "string",
							"name": "descriptionHash",
							"type": "string"
						},
						{
							"internalType": "uint256",
							"name": "amount",
							"type": "uint256"
						}
					],
					"internalType": "struct NativeOpenWorkJobContract.MilestonePayment[]",
					"name": "_milestonePayments",
					"type": "tuple[]"
				},
				{
					"internalType": "uint256",
					"name": "_totalValue",
					"type": "uint256"
				}
			],
			"name": "postJob",
			"outputs": [],
			"stateMutability": "nonpayable",
			"type": "function"
		},
		{
			"inputs": [
				{
					"internalType": "string",
					"name": "_jobDetailHash",
					"type": "string"
				},
				{
					"components": [
						{
							"internalType": "string",
							"name": "descriptionHash",
							"type": "string"
						},
						{
							"internalType": "uint256",
							"name": "amount",
							"type": "uint256"
						}
					],
					"internalType": "struct NativeOpenWorkJobContract.MilestonePayment[]",
					"name": "_milestonePayments",
					"type": "tuple[]"
				}
			],
			"name": "postJob",
			"outputs": [],
			"stateMutability": "payable",
			"type": "function"
		},
		{
			"inputs": [
				{
					"internalType": "address",
					"name": "",
					"type": "address"
				}
			],
			"name": "profiles",
			"outputs": [
				{
					"internalType": "address",
					"name": "userAddress",
					"type": "address"
				},
				{
					"internalType": "string",
					"name": "ipfsHash",
					"type": "string"
				},
				{
					"internalType": "address",
					"name": "referrerAddress",
					"type": "address"
				},
				{
					"internalType": "uint256",
					"name": "rating",
					"type": "uint256"
				}
			],
			"stateMutability": "view",
			"type": "function"
		},
		{
			"inputs": [
				{
					"internalType": "uint256",
					"name": "_jobId",
					"type": "uint256"
				},
				{
					"internalType": "address",
					"name": "_userToRate",
					"type": "address"
				},
				{
					"internalType": "uint256",
					"name": "_rating",
					"type": "uint256"
				}
			],
			"name": "rate",
			"outputs": [],
			"stateMutability": "nonpayable",
			"type": "function"
		},
		{
			"inputs": [
				{
					"internalType": "address",
					"name": "_rater",
					"type": "address"
				},
				{
					"internalType": "uint256",
					"name": "_jobId",
					"type": "uint256"
				},
				{
					"internalType": "address",
					"name": "_userToRate",
					"type": "address"
				},
				{
					"internalType": "uint256",
					"name": "_rating",
					"type": "uint256"
				}
			],
			"name": "rate",
			"outputs": [],
			"stateMutability": "nonpayable",
			"type": "function"
		},
		{
			"inputs": [
				{
					"internalType": "uint256",
					"name": "_jobId",
					"type": "uint256"
				},
				{
					"internalType": "uint256",
					"name": "_amount",
					"type": "uint256"
				}
			],
			"name": "releasePayment",
			"outputs": [],
			"stateMutability": "nonpayable",
			"type": "function"
		},
		{
			"inputs": [
				{
					"internalType": "address",
					"name": "_jobGiver",
					"type": "address"
				},
				{
					"internalType": "uint256",
					"name": "_jobId",
					"type": "uint256"
				},
				{
					"internalType": "uint256",
					"name": "_amount",
					"type": "uint256"
				}
			],
			"name": "releasePayment",
			"outputs": [],
			"stateMutability": "nonpayable",
			"type": "function"
		},
		{
			"inputs": [],
			"name": "renounceOwnership",
			"outputs": [],
			"stateMutability": "nonpayable",
			"type": "function"
		},
		{
			"inputs": [],
			"name": "rewardsContract",
			"outputs": [
				{
					"internalType": "contract IRewardsTrackingContract",
					"name": "",
					"type": "address"
				}
			],
			"stateMutability": "view",
			"type": "function"
		},
		{
			"inputs": [
				{
					"internalType": "address",
					"name": "_delegate",
					"type": "address"
				}
			],
			"name": "setDelegate",
			"outputs": [],
			"stateMutability": "nonpayable",
			"type": "function"
		},
		{
			"inputs": [
				{
					"internalType": "uint32",
					"name": "_eid",
					"type": "uint32"
				},
				{
					"internalType": "bytes32",
					"name": "_peer",
					"type": "bytes32"
				}
			],
			"name": "setPeer",
			"outputs": [],
			"stateMutability": "nonpayable",
			"type": "function"
		},
		{
			"inputs": [
				{
					"internalType": "address",
					"name": "_rewardsContract",
					"type": "address"
				}
			],
			"name": "setRewardsContract",
			"outputs": [],
			"stateMutability": "nonpayable",
			"type": "function"
		},
		{
			"inputs": [
				{
					"internalType": "uint256",
					"name": "_applicationId",
					"type": "uint256"
				},
				{
					"internalType": "bool",
					"name": "_useApplicantMilestones",
					"type": "bool"
				}
			],
			"name": "startJob",
			"outputs": [],
			"stateMutability": "nonpayable",
			"type": "function"
		},
		{
			"inputs": [
				{
					"internalType": "address",
					"name": "_jobGiver",
					"type": "address"
				},
				{
					"internalType": "uint256",
					"name": "_applicationId",
					"type": "uint256"
				},
				{
					"internalType": "bool",
					"name": "_useApplicantMilestones",
					"type": "bool"
				}
			],
			"name": "startJob",
			"outputs": [],
			"stateMutability": "nonpayable",
			"type": "function"
		},
		{
			"inputs": [
				{
					"internalType": "address",
					"name": "_applicant",
					"type": "address"
				},
				{
					"internalType": "uint256",
					"name": "_jobId",
					"type": "uint256"
				},
				{
					"internalType": "string",
					"name": "_submissionHash",
					"type": "string"
				}
			],
			"name": "submitWork",
			"outputs": [],
			"stateMutability": "nonpayable",
			"type": "function"
		},
		{
			"inputs": [
				{
					"internalType": "uint256",
					"name": "_jobId",
					"type": "uint256"
				},
				{
					"internalType": "string",
					"name": "_submissionHash",
					"type": "string"
				}
			],
			"name": "submitWork",
			"outputs": [],
			"stateMutability": "nonpayable",
			"type": "function"
		},
		{
			"inputs": [
				{
					"internalType": "address",
					"name": "newOwner",
					"type": "address"
				}
			],
			"name": "transferOwnership",
			"outputs": [],
			"stateMutability": "nonpayable",
			"type": "function"
		},
		{
			"inputs": [
				{
					"internalType": "address",
					"name": "",
					"type": "address"
				},
				{
					"internalType": "uint256",
					"name": "",
					"type": "uint256"
				}
			],
			"name": "userRatings",
			"outputs": [
				{
					"internalType": "uint256",
					"name": "",
					"type": "uint256"
				}
			],
			"stateMutability": "view",
			"type": "function"
		}
	]
}