{
	"data": {
		"bytecode": {
			"linkReferences": {},
			"object": "60a060405230608052348015601357600080fd5b5060805161693261003d60003960008181614c2801528181614c510152614dbb01526169326000f3fe6080604052600436106103345760003560e01c8063882578f0116101b0578063ad78b7ae116100ec578063dbb9d73511610095578063ec0886f41161006f578063ec0886f414610964578063eca8744914610984578063eec6ab0f146109b1578063f2fde38b146109d157600080fd5b8063dbb9d73514610900578063dd41cc2f14610920578063ea89735d1461093557600080fd5b8063bfa9ab0a116100c6578063bfa9ab0a146108a0578063c4d66de8146108c0578063d0d84a3a146108e057600080fd5b8063ad78b7ae1461084b578063b958835b1461086b578063bbf3e10b1461088b57600080fd5b806399d71b5511610159578063a063380711610133578063a0633807146107b8578063a53e8241146107cd578063a9d6ee6f146107ed578063ad3cb1cc1461080d57600080fd5b806399d71b55146107495780639de2e9d7146107695780639f8c45cf1461078957600080fd5b80638da5cb5b1161018a5780638da5cb5b146106f45780638fb40fb61461070957806397ad50f91461072957600080fd5b8063882578f01461069f5780638c0c19d4146106bf5780638d9a854b146106d457600080fd5b8063425d512a1161027f57806352d1902d1161022857806370a694081161020257806370a694081461062a578063715018a61461064a578063865795c31461065f578063865e52341461067f57600080fd5b806352d1902d14610598578063666347d8146105ad5780636a1465a6146105c257600080fd5b80635007d37d116102595780635007d37d146105385780635159d2041461055857806351f6a9e81461057857600080fd5b8063425d512a146104d5578063462e45fa146104f55780634f1ef2861461052557600080fd5b80632415d840116102e1578063348eb0ec116102bb578063348eb0ec1461046357806335bf6f151461048357806340c98a47146104a357600080fd5b80632415d840146104035780632502ad191461042357806330f590d01461044357600080fd5b806319c6e0641161031257806319c6e064146103a35780631abde88a146103c35780631baae20d146103e357600080fd5b80630115bae01461033957806304075a7f1461035b57806310987b771461038e575b600080fd5b34801561034557600080fd5b506103596103543660046157dc565b6109f1565b005b34801561036757600080fd5b5061037b6103763660046158b8565b610a63565b6040519081526020015b60405180910390f35b34801561039a57600080fd5b5061037b610c2d565b3480156103af57600080fd5b506103596103be366004615939565b610c43565b3480156103cf57600080fd5b506103596103de3660046157dc565b610d15565b3480156103ef57600080fd5b506103596103fe3660046157dc565b610d73565b34801561040f57600080fd5b5061035961041e366004615939565b610ddd565b34801561042f57600080fd5b5061035961043e366004615939565b610ed3565b34801561044f57600080fd5b5061035961045e366004615956565b610f7f565b34801561046f57600080fd5b5061037b61047e366004615982565b611148565b34801561048f57600080fd5b5061035961049e3660046157dc565b61125c565b3480156104af57600080fd5b506032546001600160a01b03165b6040516001600160a01b039091168152602001610385565b3480156104e157600080fd5b506103596104f0366004615939565b6112bc565b34801561050157600080fd5b506105156105103660046159c0565b61138e565b6040519015158152602001610385565b610359610533366004615a2b565b6117a3565b34801561054457600080fd5b50610515610553366004615a8e565b6117c2565b34801561056457600080fd5b5061037b610573366004615ae8565b61199c565b34801561058457600080fd5b5061037b610593366004615b88565b611e0c565b3480156105a457600080fd5b5061037b611fb1565b3480156105b957600080fd5b5060385461037b565b3480156105ce57600080fd5b5061060f6105dd366004615939565b6001600160a01b03166000908152605860209081526040808320546059835281842054605a9093529220549192909190565b60408051938452602084019290925290820152606001610385565b34801561063657600080fd5b5061037b610645366004615982565b611fe0565b34801561065657600080fd5b50610359612100565b34801561066b57600080fd5b5061051561067a366004615982565b612114565b34801561068b57600080fd5b5061051561069a366004615bdb565b612323565b3480156106ab57600080fd5b5061037b6106ba366004615c12565b6125f5565b3480156106cb57600080fd5b5060395461037b565b3480156106e057600080fd5b506105156106ef366004615c9d565b61278b565b34801561070057600080fd5b506104bd612865565b34801561071557600080fd5b5061037b610724366004615982565b612893565b34801561073557600080fd5b5061037b610744366004615ce2565b61291c565b34801561075557600080fd5b5061037b610764366004615982565b612a47565b34801561077557600080fd5b506103596107843660046157dc565b612bcc565b34801561079557600080fd5b506107a96107a43660046157dc565b612c23565b60405161038593929190615dbe565b3480156107c457600080fd5b5061037b612df1565b3480156107d957600080fd5b506105156107e83660046159c0565b612e02565b3480156107f957600080fd5b50610359610808366004615939565b613307565b34801561081957600080fd5b5061083e604051806040016040528060058152602001640352e302e360dc1b81525081565b6040516103859190615e54565b34801561085757600080fd5b5061037b610866366004615c9d565b6133ef565b34801561087757600080fd5b5061037b610886366004615982565b61342c565b34801561089757600080fd5b5060375461037b565b3480156108ac57600080fd5b506103596108bb3660046157dc565b613491565b3480156108cc57600080fd5b506103596108db366004615939565b6134e9565b3480156108ec57600080fd5b506103596108fb366004615e67565b613756565b34801561090c57600080fd5b5061037b61091b366004615ed9565b613a80565b34801561092c57600080fd5b5061037b613cfc565b34801561094157600080fd5b506109556109503660046157dc565b613d0d565b60405161038593929190615f72565b34801561097057600080fd5b5061051561097f3660046159c0565b61400b565b34801561099057600080fd5b506109a461099f3660046157dc565b61454d565b60405161038591906160be565b3480156109bd57600080fd5b5061037b6109cc366004615982565b614793565b3480156109dd57600080fd5b506103596109ec366004615939565b61482f565b6109f961486d565b603c8054908290556040805160608082526014908201527f5175657374696f6e566f74696e67506572696f640000000000000000000000006080820152602081018390529081018390526000805160206168dd8339815191529060a0015b60405180910390a15050565b6032546000906001600160a01b0316331480610a975750610a82612865565b6001600160a01b0316336001600160a01b0316145b610abc5760405162461bcd60e51b8152600401610ab390616171565b60405180910390fd5b6000845111610b005760405162461bcd60e51b815260206004820152601060248201526f456d70747920736b696c6c206e616d6560801b6044820152606401610ab3565b6000835111610b445760405162461bcd60e51b815260206004820152601060248201526f08adae0e8f240e0e4dedecc40d0c2e6d60831b6044820152606401610ab3565b603854821015610b895760405162461bcd60e51b815260206004820152601060248201526f496e73756666696369656e742066656560801b6044820152606401610ab3565b6001600160a01b038516600090815260446020526040908190209051610bb09086906161a8565b9081526040519081900360200190205460ff1615610c095760405162461bcd60e51b815260206004820152601660248201527514dada5b1b08185b1c9958591e481d995c9a599a595960521b6044820152606401610ab3565b610c2484604051806020016040528060008152508588613a80565b95945050505050565b60006001603e54610c3e91906161da565b905090565b610c4b61486d565b6001600160a01b038116610c935760405162461bcd60e51b815260206004820152600f60248201526e496e76616c6964206164647265737360881b6044820152606401610ab3565b603680546001600160a01b0319166001600160a01b038316908117909155604080518181526012918101919091527129b5b4b63627b930b1b632a6b0b730b3b2b960711b606082015260208101919091527fd1893b811e542389ca0d5fe90791e7959fee083d73da3a5f0d656f8dc256ee6f906080015b60405180910390a150565b610d1d61486d565b603b8054908290556040805160608082526011908201527014dada5b1b159bdd1a5b99d4195c9a5bd9607a1b6080820152602081018390529081018390526000805160206168dd8339815191529060a001610a57565b610d7b61486d565b60388054908290556040805160608082526014908201527f536b696c6c566572696669636174696f6e4665650000000000000000000000006080820152602081018390529081018390526000805160206168dd8339815191529060a001610a57565b610de561486d565b6001600160a01b038116610e4d5760405162461bcd60e51b815260206004820152602960248201527f496e76616c696420476f7665726e616e636520416374696f6e20547261636b6560448201526872206164647265737360b81b6064820152608401610ab3565b603580546001600160a01b0319166001600160a01b038316908117909155604080518181526017918101919091527f476f7665726e616e6365416374696f6e547261636b6572000000000000000000606082015260208101919091527fd1893b811e542389ca0d5fe90791e7959fee083d73da3a5f0d656f8dc256ee6f90608001610d0a565b610edb61486d565b6001600160a01b038116610f315760405162461bcd60e51b815260206004820152601860248201527f496e76616c69642066726f6e74656e64206164647265737300000000000000006044820152606401610ab3565b603280546001600160a01b0319166001600160a01b0383169081179091556040519081527f501de82d3e4e18cd1ebccc740aa5d59a060e2e767ffbad1ef9210d29698b7ebc90602001610d0a565b6032546001600160a01b0316331480610fb05750610f9b612865565b6001600160a01b0316336001600160a01b0316145b610fcc5760405162461bcd60e51b8152600401610ab390616171565b6000818152603d6020526040812080549091036110245760405162461bcd60e51b8152602060048201526016602482015275111a5cdc1d5d1948191bd95cc81b9bdd08195e1a5cdd60521b6044820152606401610ab3565b6005810154610100900460ff1661107d5760405162461bcd60e51b815260206004820152601560248201527f526573756c74206e6f742064657465726d696e656400000000000000000000006044820152606401610ab3565b60058101546001600160a01b03848116630100000090920416146110d75760405162461bcd60e51b8152602060048201526011602482015270139bdd081d1a19481c9958da5c1a595b9d607a1b6044820152606401610ab3565b600581015462010000900460ff16156111325760405162461bcd60e51b815260206004820152601660248201527f46756e647320616c72656164792072656c6561736564000000000000000000006044820152606401610ab3565b600501805462ff00001916620100001790555050565b6000828152604d602052604081208054158061117c57506000600482015460ff16600281111561117a5761117a615d98565b145b806111aa57506000848152604f602090815260408083206001600160a01b038716845290915290205460ff16155b156111b9576000915050611256565b60006001600483015460ff1660028111156111d6576111d6615d98565b60008781526050602090815260408083206001600160a01b038a16845290915290205460ff1615159114149050801561124f57600085815260526020908152604080832054605190925282205461122d91906161ed565b9050801561124d57603954611243908290616200565b9350505050611256565b505b6000925050505b92915050565b61126461486d565b603a80549082905560408051606080825260139082015272111a5cdc1d5d19559bdd1a5b99d4195c9a5bd9606a1b6080820152602081018390529081018390526000805160206168dd8339815191529060a001610a57565b6112c461486d565b6001600160a01b03811661131a5760405162461bcd60e51b815260206004820152601c60248201527f496e76616c69642044414f20636f6e74726163742061646472657373000000006044820152606401610ab3565b603380546001600160a01b0319166001600160a01b03831690811790915560408051818152600b918101919091526a111053d0dbdb9d1c9858dd60aa1b606082015260208101919091527fd1893b811e542389ca0d5fe90791e7959fee083d73da3a5f0d656f8dc256ee6f90608001610d0a565b6032546000906001600160a01b031633146113bb5760405162461bcd60e51b8152600401610ab390616222565b6000858152604d60205260408120805490910361141a5760405162461bcd60e51b815260206004820152601760248201527f5175657374696f6e20646f6573206e6f742065786973740000000000000000006044820152606401610ab3565b6000600482015460ff16600281111561143557611435615d98565b146114775760405162461bcd60e51b81526020600482015260126024820152714e6f7420696e2061736b656420737461746560701b6044820152606401610ab3565b6000868152604f602090815260408083206001600160a01b038716845290915290205460ff16156114da5760405162461bcd60e51b815260206004820152600d60248201526c105b1c9958591e481d9bdd1959609a1b6044820152606401610ab3565b60008160030180546114eb90616259565b80601f016020809104026020016040519081016040528092919081815260200182805461151790616259565b80156115645780601f1061153957610100808354040283529160200191611564565b820191906000526020600020905b81548152906001019060200180831161154757829003601f168201915b50505050509050611575818561489f565b6115b85760405162461bcd60e51b81526020600482015260146024820152732737ba1030b71037b930b1b6329036b2b6b132b960611b6044820152606401610ab3565b6000878152604f602090815260408083206001600160a01b038816808552908352818420805460ff199081166001179091558b85526050845282852091855292529091208054881580159190931617905561163157600087815260516020526040812080549161162783616293565b9190505550611651565b600087815260526020526040812080549161164b83616293565b91905055505b60008781526053602090815260408220805460018101825590835291200161167986826162f3565b507f3f9de12bcbc6cf19da694988cd8b561f6c6823c2a592032887d8e81dd224c857878588886040516116af94939291906163b1565b60405180910390a160008781526052602090815260408083205460519092528220546116db91906161ed565b90506116e68261496c565b1561178c5760006116f683614a1f565b9050611703600282616200565b61170e9060016161ed565b82101580156117355750600089815260526020908152604080832054605190925290912054115b1561178a5760048401805460ff191660011790554260068501556040517f561cfabf8b75cc7b1bc45a72a002f282785217662c2963af7ec5106d7be9161190611781908b908a906163e1565b60405180910390a15b505b61179585614ad0565b506001979650505050505050565b6117ab614c1d565b6117b482614cd4565b6117be8282614cdc565b5050565b6032546000906001600160a01b031633146117ef5760405162461bcd60e51b8152600401610ab390616222565b6000848152603d6020526040812080549091036118475760405162461bcd60e51b8152602060048201526016602482015275111a5cdc1d5d1948191bd95cc81b9bdd08195e1a5cdd60521b6044820152606401610ab3565b60028101546001600160a01b0384811691161480611874575060038101546001600160a01b038481169116145b6118b15760405162461bcd60e51b815260206004820152600e60248201526d139bdd08185d5d1a1bdc9a5e995960921b6044820152606401610ab3565b6003600582015460ff1660048111156118cc576118cc615d98565b036119145760405162461bcd60e51b8152602060048201526018602482015277111a5cdc1d5d1948185b1c9958591e481c995cdbdb1d995960421b6044820152606401610ab3565b6009810161192285826162f3565b506000600582015460ff16600481111561193e5761193e615d98565b0361198f5760058101805460ff1916600190811790915560405186917f07d55143b13d8fefdb3a1f27aea953a5e54365f38a17d57a8ced97b3afaa6d7e916119869190616402565b60405180910390a25b60019150505b9392505050565b6032546000906001600160a01b03163314806119d057506119bb612865565b6001600160a01b0316336001600160a01b0316145b6119ec5760405162461bcd60e51b8152600401610ab390616171565b6119f58561496c565b611a385760405162461bcd60e51b81526020600482015260146024820152734f7261636c65206973206e6f742061637469766560601b6044820152606401610ab3565b6036546000906003906001600160a01b031615611bd25760365460405163067e817960e31b81526001600160a01b03909116906333f40bc890611a7f908a90600401615e54565b602060405180830381865afa158015611a9c573d6000803e3d6000fd5b505050506040513d601f19601f82011682018060405250810190611ac09190616415565b915081611b355760405162461bcd60e51b815260206004820152603460248201527f4f7261636c6520646f6573206e6f74206d65657420646973707574652072657360448201527f6f6c7574696f6e20726571756972656d656e74730000000000000000000000006064820152608401610ab3565b603654604051633ce0f2f760e01b81526000916001600160a01b031690633ce0f2f790611b66908b90600401615e54565b602060405180830381865afa158015611b83573d6000803e3d6000fd5b505050506040513d601f19601f82011682018060405250810190611ba79190616432565b90506064611bb682603c61644b565b611bc09190616200565b91506003821015611bd057600391505b505b603e8054906000611be283616293565b9190505592506040518061020001604052808481526020018a8152602001876001600160a01b03168152602001866001600160a01b0316815260200189815260200160006004811115611c3757611c37615d98565b8152600060208083018290526040808401839052606080850184905260808086018b90524260a087015260c086018590528251808501845285815260e087015261010086018e9052610120860188905288151561014090960195909552888452603d835292819020855181559185015160018301558401516002820180546001600160a01b03199081166001600160a01b039384161790915592850151600383018054909416911617909155908201516004820190611cf690826162f3565b5060a082015160058201805460ff19166001836004811115611d1a57611d1a615d98565b021790555060c082015160058201805460e0850151610100808701516001600160a01b031663010000000276ffffffffffffffffffffffffffffffffffffffff00000019921515620100000262ff0000199615159092029590951662ffff00199093169290921791909117169190911790556101208201516006820155610140820151600782015561016082015160088201556101808201516009820190611dc290826162f3565b506101a0820151600a820190611dd890826162f3565b506101c0820151600b8201556101e090910151600c909101805460ff19169115159190911790555090979650505050505050565b6032546000906001600160a01b0316331480611e405750611e2b612865565b6001600160a01b0316336001600160a01b0316145b611e5c5760405162461bcd60e51b8152600401610ab390616171565b611e658361496c565b611ea55760405162461bcd60e51b81526020600482015260116024820152704f7261636c65206e6f742061637469766560781b6044820152606401610ab3565b604e8054906000611eb583616293565b9190505590506040518060e00160405280828152602001836001600160a01b0316815260200185815260200184815260200160006002811115611efa57611efa615d98565b81524260208083019190915260006040928301819052848152604d825282902083518155908301516001820180546001600160a01b0319166001600160a01b03909216919091179055908201516002820190611f5690826162f3565b5060608201516003820190611f6b90826162f3565b50608082015160048201805460ff19166001836002811115611f8f57611f8f615d98565b021790555060a0820151600582015560c0909101516006909101559392505050565b6000611fbb614db0565b507f360894a13ba1a3210667c828492db98dca3e2076cc3735a920a3ca505d382bbc90565b60008281526046602052604081208054158061203957506001600582015460ff16600281111561201257612012615d98565b1415801561203957506002600582015460ff16600281111561203657612036615d98565b14155b80612067575060008481526048602090815260408083206001600160a01b038716845290915290205460ff16155b15612076576000915050611256565b60006001600583015460ff16600281111561209357612093615d98565b60008781526049602090815260408083206001600160a01b038a16845290915290205460ff1615159114149050801561124f576000858152604b6020908152604080832054604a9092528220546120ea91906161ed565b9050801561124d57603854611243908290616200565b61210861486d565b6121126000614df9565b565b6032546000906001600160a01b031633146121415760405162461bcd60e51b8152600401610ab390616222565b6000838152603d6020526040812080549091036121995760405162461bcd60e51b8152602060048201526016602482015275111a5cdc1d5d1948191bd95cc81b9bdd08195e1a5cdd60521b6044820152606401610ab3565b6003600582015460ff1660048111156121b4576121b4615d98565b036121fc5760405162461bcd60e51b8152602060048201526018602482015277111a5cdc1d5d1948185b1c9958591e481c995cdbdb1d995960421b6044820152606401610ab3565b6004600582015460ff16600481111561221757612217615d98565b036122645760405162461bcd60e51b815260206004820152601960248201527f4469737075746520616c726561647920657363616c61746564000000000000006044820152606401610ab3565b60028101546001600160a01b0384811691161480612291575060038101546001600160a01b038481169116145b6122ce5760405162461bcd60e51b815260206004820152600e60248201526d139bdd08185d5d1a1bdc9a5e995960921b6044820152606401610ab3565b60058101805460ff1916600490811790915560405185917f07d55143b13d8fefdb3a1f27aea953a5e54365f38a17d57a8ced97b3afaa6d7e916123119190616402565b60405180910390a25060019392505050565b6032546000906001600160a01b031633146123505760405162461bcd60e51b8152600401610ab390616222565b6000848152603d6020526040812080549091036123a85760405162461bcd60e51b8152602060048201526016602482015275111a5cdc1d5d1948191bd95cc81b9bdd08195e1a5cdd60521b6044820152606401610ab3565b6005810154610100900460ff16156124025760405162461bcd60e51b815260206004820152601960248201527f526573756c7420616c72656164792064657465726d696e6564000000000000006044820152606401610ab3565b60028101546001600160a01b038581169116148061242f575060038101546001600160a01b038581169116145b61246f5760405162461bcd60e51b8152602060048201526011602482015270125b9d985b1a59081c9958da5c1a595b9d607a1b6044820152606401610ab3565b6000612479612865565b6001600160a01b0316846001600160a01b03160361249957506001612518565b6033546001600160a01b03161561251857603354604051634697b0ef60e01b81526001600160a01b03868116600483015290911690634697b0ef90602401602060405180830381865afa925050508015612510575060408051601f3d908101601f1916820190925261250d91810190616415565b60015b156125185790505b806125655760405162461bcd60e51b815260206004820152601960248201527f4e6f7420617574686f72697a656420746f207265736f6c7665000000000000006044820152606401610ab3565b60058201805460036001600160a01b03881663010000000276ffffffffffffffffffffffffffffffffffffffff00ff0019909216919091176101001760ff1916811790915542600884015560405187917f07d55143b13d8fefdb3a1f27aea953a5e54365f38a17d57a8ced97b3afaa6d7e916125e19190616402565b60405180910390a250600195945050505050565b6032546000906001600160a01b03163314806126295750612614612865565b6001600160a01b0316336001600160a01b0316145b6126455760405162461bcd60e51b8152600401610ab390616171565b61264e8361496c565b6126915760405162461bcd60e51b81526020600482015260146024820152734f7261636c65206973206e6f742061637469766560601b6044820152606401610ab3565b6037548210156126d65760405162461bcd60e51b815260206004820152601060248201526f496e73756666696369656e742066656560801b6044820152606401610ab3565b600084511161271c5760405162461bcd60e51b815260206004820152601260248201527108adae0e8f240c8d2e6e0eae8ca40d0c2e6d60731b6044820152606401610ab3565b6001600160a01b0386166127725760405162461bcd60e51b815260206004820152601460248201527f496e76616c6964207573657220616464726573730000000000000000000000006044820152606401610ab3565b6127818585858960008761199c565b9695505050505050565b6001600160a01b03821660009081526044602052604080822090518291906127b49085906161a8565b9081526040519081900360200190205460ff169050801580156127e157506036546001600160a01b031615155b15611995576036546040516376a9775560e01b81526001600160a01b03909116906376a97755906128189087908790600401616462565b602060405180830381865afa925050508015612851575060408051601f3d908101601f1916820190925261284e91810190616415565b60015b61285c579050611256565b91506112569050565b7f9016d09d72d40fdae2fd8ceac6b6234c7706214fd39c1cd1e609a0528c199300546001600160a01b031690565b6000828152603d60205260408120805415806128b957506005810154610100900460ff16155b806128d4575060028101546001600160a01b03848116911614155b156128e3576000915050611256565b600281015460058201546001600160a01b03918216630100000090910490911603612912575050603754611256565b5060009392505050565b6032546000906001600160a01b0316331480612950575061293b612865565b6001600160a01b0316336001600160a01b0316145b61296c5760405162461bcd60e51b8152600401610ab390616171565b6129758361496c565b6129b55760405162461bcd60e51b81526020600482015260116024820152704f7261636c65206e6f742061637469766560781b6044820152606401610ab3565b60008551116129f75760405162461bcd60e51b815260206004820152600e60248201526d22b6b83a3c9038bab2b9ba34b7b760911b6044820152606401610ab3565b603954821015612a3c5760405162461bcd60e51b815260206004820152601060248201526f496e73756666696369656e742066656560801b6044820152606401610ab3565b612781858488611e0c565b6000828152603d6020526040812080541580612a6d57506005810154610100900460ff16155b80612a9b57506000848152603f602090815260408083206001600160a01b038716845290915290205460ff16155b15612aaa576000915050611256565b600281015460058201546000868152604060208181528183206001600160a01b03898116855291529120549281166301000000909204161460ff909116151514801561124f576000858152604260209081526040808320546041909252822054612b1491906161ed565b9050801561124d576033546001906001600160a01b031615612ba757603354604051635da6a21b60e11b81526001600160a01b0388811660048301529091169063bb4d443690602401602060405180830381865afa925050508015612b96575060408051601f3d908101601f19168201909252612b9391810190616432565b60015b15612ba7578015612ba5578091505b505b6037548290612bb790839061644b565b612bc19190616200565b945050505050611256565b612bd461486d565b6037805490829055604080516060808252600a90820152694469737075746546656560b01b6080820152602081018390529081018390526000805160206168dd8339815191529060a001610a57565b612c2b6156af565b6000828152604d6020908152604080832060518352818420546052845282852054835160e0810185528354815260018401546001600160a01b0316958101959095526002830180548796949593949293869290840191612c8a90616259565b80601f0160208091040260200160405190810160405280929190818152602001828054612cb690616259565b8015612d035780601f10612cd857610100808354040283529160200191612d03565b820191906000526020600020905b815481529060010190602001808311612ce657829003601f168201915b50505050508152602001600382018054612d1c90616259565b80601f0160208091040260200160405190810160405280929190818152602001828054612d4890616259565b8015612d955780601f10612d6a57610100808354040283529160200191612d95565b820191906000526020600020905b815481529060010190602001808311612d7857829003601f168201915b5050509183525050600482015460209091019060ff166002811115612dbc57612dbc615d98565b6002811115612dcd57612dcd615d98565b81526005820154602082015260069091015460409091015297919650945092505050565b60006001604754610c3e91906161da565b6032546000906001600160a01b03163314612e2f5760405162461bcd60e51b8152600401610ab390616222565b60008581526046602052604081208054909103612e8e5760405162461bcd60e51b815260206004820152601a60248201527f4170706c69636174696f6e20646f6573206e6f742065786973740000000000006044820152606401610ab3565b6000600582015460ff166002811115612ea957612ea9615d98565b14612ef65760405162461bcd60e51b815260206004820152601460248201527f4e6f7420696e206170706c6965642073746174650000000000000000000000006044820152606401610ab3565b60008681526048602090815260408083206001600160a01b038716845290915290205460ff1615612f595760405162461bcd60e51b815260206004820152600d60248201526c105b1c9958591e481d9bdd1959609a1b6044820152606401610ab3565b6000816004018054612f6a90616259565b80601f0160208091040260200160405190810160405280929190818152602001828054612f9690616259565b8015612fe35780601f10612fb857610100808354040283529160200191612fe3565b820191906000526020600020905b815481529060010190602001808311612fc657829003601f168201915b50505050509050612ff4818561489f565b6130375760405162461bcd60e51b81526020600482015260146024820152732737ba1030b71037b930b1b6329036b2b6b132b960611b6044820152606401610ab3565b60008781526048602090815260408083206001600160a01b038816808552908352818420805460ff199081166001179091558b8552604984528285209185529252909120805488158015919093161790556130b0576000878152604a602052604081208054916130a683616293565b91905055506130d0565b6000878152604b602052604081208054916130ca83616293565b91905055505b6000878152604c60209081526040822080546001810182559083529120016130f886826162f3565b507f67478a45a46aa9d4efd1d6b17a97de80899c40002b5784349652aacaca49acfa8785888860405161312e94939291906163b1565b60405180910390a16000878152604b6020908152604080832054604a90925282205461315a91906161ed565b90506131658261496c565b1561178c57600061317583614a1f565b9050613182600282616200565b61318d9060016161ed565b821061178a576000898152604b6020908152604080832054604a90925290912054111561326057600184015460028501805461325b926001600160a01b031691906131d790616259565b80601f016020809104026020016040519081016040528092919081815260200182805461320390616259565b80156132505780601f1061322557610100808354040283529160200191613250565b820191906000526020600020905b81548152906001019060200180831161323357829003601f168201915b50505050508b614e6a565b61178a565b600184015460028501805461178a926001600160a01b0316919061328390616259565b80601f01602080910402602001604051908101604052809291908181526020018280546132af90616259565b80156132fc5780601f106132d1576101008083540402835291602001916132fc565b820191906000526020600020905b8154815290600101906020018083116132df57829003601f168201915b50505050508b61500d565b61330f61486d565b6001600160a01b0381166133735760405162461bcd60e51b815260206004820152602560248201527f496e76616c6964204e61746976652044414f20476f7665726e616e6365206164604482015264647265737360d81b6064820152608401610ab3565b603480546001600160a01b0319166001600160a01b03831690811790915560408051818152601391810191909152724e617469766544414f476f7665726e616e636560681b606082015260208101919091527fd1893b811e542389ca0d5fe90791e7959fee083d73da3a5f0d656f8dc256ee6f90608001610d0a565b6001600160a01b03821660009081526045602052604080822090516134159084906161a8565b908152602001604051809103902054905092915050565b600082815260466020526040812080541580613458575060018101546001600160a01b03848116911614155b15613467576000915050611256565b6001600582015460ff16600281111561348257613482615d98565b03612912575050603854611256565b61349961486d565b6039805490829055604080516060808252600b908201526a5175657374696f6e46656560a81b6080820152602081018390529081018390526000805160206168dd8339815191529060a001610a57565b60006134f361506d565b805490915060ff600160401b82041615906001600160401b031660008115801561351a5750825b90506000826001600160401b031660011480156135365750303b155b905081158015613544575080155b156135625760405163f92ee8a960e01b815260040160405180910390fd5b845467ffffffffffffffff19166001178555831561358c57845460ff60401b1916600160401b1785555b61359586615096565b61359d6150a7565b6135a56150b7565b662386f26fc100006037556611c37937e0800060385566071afd498d000060395562054600603a819055603b819055603c556001603e8190556047819055604e55604080516c44656661756c744f7261636c6560981b8082526054600d80840191909152835192839003602d01832083850190945282526020820152819061362d90826162f3565b506040518060600160405280602581526020016168b860259139600182019061365690826162f3565b5060038101805460ff191660011790554260048201556040517ff1c7074213d995c63650112c46b712eaa9df6c1c6f67189aeb4784aba4707668906136ff906040808252600d908201526c44656661756c744f7261636c6560981b60608201526080602082018190526025908201527f44656661756c74206f7261636c6520666f722064697370757465207265736f6c60a0820152643aba34b7b760d91b60c082015260e00190565b60405180910390a150831561374e57845460ff60401b19168555604051600181527fc7f505b2f371ae2175ee4913f4499e1f2633a7b5936321eed1cdaeb6115181d29060200160405180910390a15b505050505050565b6032546001600160a01b031633146137805760405162461bcd60e51b8152600401610ab390616222565b60008282604051613792929190616484565b604080519182900390912060008181526057602052919091205490915060ff16156137ff5760405162461bcd60e51b815260206004820152601960248201527f4d65737361676520616c72656164792070726f636573736564000000000000006044820152606401610ab3565b6000818152605760205260408120805460ff1916600117905561382483850185616494565b60408051808201909152600c81526b72616973654469737075746560a01b6020918201528151908201209091507f32b61ace529fe8b099f26fe3bb302396efd1ac056f370a6b8b6dcd8407fa9f1a01613887576138828484846150bf565b613a51565b60408051808201909152600d81526c6372656174654469737075746560981b6020918201528151908201207f7b1920c1c9b7f57f206613a52788e0f13e927e9543bffa07152a7ccd9836ee58016138e357613882848484615191565b60408051808201909152601881527f72657175657374536b696c6c566572696669636174696f6e00000000000000006020918201528151908201207f228a01f0ff6f46f51afb2796dc2599c5ef8f24a37bf19fbc7798b3db2dfa69d10161394f5761388284848461526c565b60408051808201909152600981526861736b417468656e6160b81b6020918201528151908201207fe503432b30e4407c8d77f061b4c8215bad2b53ddc779c0a3b1a87e3a58828f52016139a757613882848484615338565b60408051808201909152601381527218db185a5b511a5cdc1d5d1959105b5bdd5b9d606a1b6020918201528151908201207fe4de46bedae6875619a0119ee338471136af8ac256430cbdd466e75a0e8f8ddb01613a09576138828484846153f5565b60405162461bcd60e51b815260206004820152601a60248201527f556e6b6e6f776e2063726f73732d636861696e20616374696f6e0000000000006044820152606401610ab3565b81600080516020616898833981519152826000604051613a729291906164c8565b60405180910390a250505050565b6032546000906001600160a01b0316331480613ab45750613a9f612865565b6001600160a01b0316336001600160a01b0316145b613ad05760405162461bcd60e51b8152600401610ab390616171565b613ad98461496c565b613b195760405162461bcd60e51b81526020600482015260116024820152704f7261636c65206e6f742061637469766560781b6044820152606401610ab3565b6001600160a01b038216600090815260446020526040908190209051613b409087906161a8565b9081526040519081900360200190205460ff1615613b995760405162461bcd60e51b815260206004820152601660248201527514dada5b1b08185b1c9958591e481d995c9a599a595960521b6044820152606401610ab3565b60478054906000613ba983616293565b919050559050604051806101000160405280828152602001836001600160a01b0316815260200186815260200184815260200185815260200160006002811115613bf557613bf5615d98565b815242602080830191909152600060409283018190528481526046825282902083518155908301516001820180546001600160a01b0319166001600160a01b03909216919091179055908201516002820190613c5190826162f3565b5060608201516003820190613c6690826162f3565b5060808201516004820190613c7b90826162f3565b5060a082015160058201805460ff19166001836002811115613c9f57613c9f615d98565b021790555060c0820151600682015560e0909101516007909101556001600160a01b038216600090815260456020526040908190209051829190613ce49088906161a8565b90815260405190819003602001902055949350505050565b60006001604e54610c3e91906161da565b613d15615706565b6000828152603d602052604081208190613d2d615706565b815481526001820154602082015260028201546001600160a01b0390811660408301526003830154166060820152600482018054613d6a90616259565b80601f0160208091040260200160405190810160405280929190818152602001828054613d9690616259565b8015613de35780601f10613db857610100808354040283529160200191613de3565b820191906000526020600020905b815481529060010190602001808311613dc657829003601f168201915b50505050506080820152600582015460ff166004811115613e0657613e06615d98565b60ff166004811115613e1a57613e1a615d98565b8160a001906004811115613e3057613e30615d98565b90816004811115613e4357613e43615d98565b905250600582015461010080820460ff908116151560c085015262010000830416151560e084015263010000009091046001600160a01b031690820152600682015461012082015260078201546101408201526008820154610160820152600982018054613eb090616259565b80601f0160208091040260200160405190810160405280929190818152602001828054613edc90616259565b8015613f295780601f10613efe57610100808354040283529160200191613f29565b820191906000526020600020905b815481529060010190602001808311613f0c57829003601f168201915b505050505081610180018190525081600a018054613f4690616259565b80601f0160208091040260200160405190810160405280929190818152602001828054613f7290616259565b8015613fbf5780601f10613f9457610100808354040283529160200191613fbf565b820191906000526020600020905b815481529060010190602001808311613fa257829003601f168201915b50505050506101a0820152600b8201546101c0820152600c9091015460ff1615156101e08201526000948552604160209081526040808720546042909252909520549095909350915050565b6032546000906001600160a01b031633146140385760405162461bcd60e51b8152600401610ab390616222565b6000858152603d6020526040812080549091036140905760405162461bcd60e51b8152602060048201526016602482015275111a5cdc1d5d1948191bd95cc81b9bdd08195e1a5cdd60521b6044820152606401610ab3565b6003600582015460ff1660048111156140ab576140ab615d98565b036140f35760405162461bcd60e51b8152602060048201526018602482015277111a5cdc1d5d1948185b1c9958591e481c995cdbdb1d995960421b6044820152606401610ab3565b6000868152603f602090815260408083206001600160a01b038716845290915290205460ff16156141565760405162461bcd60e51b815260206004820152600d60248201526c105b1c9958591e481d9bdd1959609a1b6044820152606401610ab3565b600c81015460ff166141b45760405162461bcd60e51b815260206004820152602160248201527f4f7261636c65206e6f742076616c69646174656420666f7220646973707574656044820152607360f81b6064820152608401610ab3565b60365460009081906001600160a01b0316156142c2576036546040516306fd88eb60e41b81526001600160a01b0390911690636fd88eb0906141ff90600a87019089906004016164f3565b602060405180830381865afa15801561421c573d6000803e3d6000fd5b505050506040513d601f19601f820116820180604052508101906142409190616415565b156142c257603654604051631eed532960e01b8152600193506001600160a01b0390911690631eed53299061427e90600a87019089906004016164f3565b602060405180830381865afa15801561429b573d6000803e3d6000fd5b505050506040513d601f19601f820116820180604052508101906142bf9190616432565b90505b811580156142da57506033546001600160a01b031615155b1561435a57603354604051635da6a21b60e11b81526001600160a01b0387811660048301529091169063bb4d443690602401602060405180830381865afa925050508015614345575060408051601f3d908101601f1916820190925261434291810190616432565b60015b1561435a57801561435857600192508091505b505b8180156143675750600081115b6143c25760405162461bcd60e51b815260206004820152602660248201527f4e6f7420617574686f72697a656420746f20766f7465206f6e2074686973206460448201526569737075746560d01b6064820152608401610ab3565b6000888152603f602090815260408083206001600160a01b038916808552908352818420805460ff199081166001179091558c855282845282852091855292529091208054891580159190931617905561443f57600088815260416020526040812080548392906144349084906161ed565b909155506144639050565b6000888152604260205260408120805483929061445d9084906161ed565b90915550505b60008881526043602090815260408220805460018101825590835291200161448b87826162f3565b50604080516001600160a01b0387168152881515602082015290810182905288907ff52487ecfb56e1ea5749008407ab5db2967701bfe848f4d02183460d06a10ba39060600160405180910390a26001600584015460ff1660048111156144f4576144f4615d98565b0361178c5760058301805460ff1916600290811790915560405189917f07d55143b13d8fefdb3a1f27aea953a5e54365f38a17d57a8ced97b3afaa6d7e9161453c9190616402565b60405180910390a261179585614ad0565b614555615791565b6000828152604660209081526040918290208251610100810184528154815260018201546001600160a01b03169281019290925260028101805492939192918401916145a090616259565b80601f01602080910402602001604051908101604052809291908181526020018280546145cc90616259565b80156146195780601f106145ee57610100808354040283529160200191614619565b820191906000526020600020905b8154815290600101906020018083116145fc57829003601f168201915b5050505050815260200160038201805461463290616259565b80601f016020809104026020016040519081016040528092919081815260200182805461465e90616259565b80156146ab5780601f10614680576101008083540402835291602001916146ab565b820191906000526020600020905b81548152906001019060200180831161468e57829003601f168201915b505050505081526020016004820180546146c490616259565b80601f01602080910402602001604051908101604052809291908181526020018280546146f090616259565b801561473d5780601f106147125761010080835404028352916020019161473d565b820191906000526020600020905b81548152906001019060200180831161472057829003601f168201915b5050509183525050600582015460209091019060ff16600281111561476457614764615d98565b600281111561477557614775615d98565b81526006820154602082015260079091015460409091015292915050565b6000828152604d60205260408120805415806147bf575060018101546001600160a01b03848116911614155b156147ce576000915050611256565b6001600482015460ff1660028111156147e9576147e9615d98565b03614805576039546147fd90600290616200565b915050611256565b6002600482015460ff16600281111561482057614820615d98565b03612912575050603954611256565b61483761486d565b6001600160a01b03811661486157604051631e4fbdf760e01b815260006004820152602401610ab3565b61486a81614df9565b50565b33614876612865565b6001600160a01b0316146121125760405163118cdaa760e01b8152336004820152602401610ab3565b6036546000906001600160a01b03161561492a576036546040516306fd88eb60e41b81526001600160a01b0390911690636fd88eb0906148e590869086906004016164c8565b602060405180830381865afa92505050801561491e575060408051601f3d908101601f1916820190925261491b91810190616415565b60015b1561492a579050611256565b60558360405161493a91906161a8565b908152604080519182900360209081019092206001600160a01b0385166000908152925290205460ff16905092915050565b6036546000906001600160a01b0316156149f35760365460405162c22d0560e21b81526001600160a01b0390911690630308b414906149af908590600401615e54565b602060405180830381865afa9250505080156149e8575060408051601f3d908101601f191682019092526149e591810190616415565b60015b156149f35792915050565b605482604051614a0391906161a8565b9081526040519081900360200190206003015460ff1692915050565b6036546000906001600160a01b031615614aa757603654604051633ce0f2f760e01b81526001600160a01b0390911690633ce0f2f790614a63908590600401615e54565b602060405180830381865afa925050508015614a9c575060408051601f3d908101601f19168201909252614a9991810190616432565b60015b15614aa75792915050565b605482604051614ab791906161a8565b9081526020016040518091039020600501549050919050565b6035546001600160a01b031615614b415760355460405163369eca8f60e21b81526001600160a01b0383811660048301529091169063da7b2a3c90602401600060405180830381600087803b158015614b2857600080fd5b505af1925050508015614b39575060015b15614b415750565b6034546001600160a01b031615614bac5760345460405163369eca8f60e21b81526001600160a01b0383811660048301529091169063da7b2a3c90602401600060405180830381600087803b158015614b9957600080fd5b505af1925050508015614baa575060015b505b6033546001600160a01b03161561486a5760335460405163369eca8f60e21b81526001600160a01b0383811660048301529091169063da7b2a3c90602401600060405180830381600087803b158015614c0457600080fd5b505af1925050508015614c15575060015b1561486a5750565b306001600160a01b037f0000000000000000000000000000000000000000000000000000000000000000161480614cb657507f00000000000000000000000000000000000000000000000000000000000000006001600160a01b0316614caa7f360894a13ba1a3210667c828492db98dca3e2076cc3735a920a3ca505d382bbc546001600160a01b031690565b6001600160a01b031614155b156121125760405163703e46dd60e11b815260040160405180910390fd5b61486a61486d565b816001600160a01b03166352d1902d6040518163ffffffff1660e01b8152600401602060405180830381865afa925050508015614d36575060408051601f3d908101601f19168201909252614d3391810190616432565b60015b614d5e57604051634c9c8ce360e01b81526001600160a01b0383166004820152602401610ab3565b7f360894a13ba1a3210667c828492db98dca3e2076cc3735a920a3ca505d382bbc8114614da157604051632a87526960e21b815260048101829052602401610ab3565b614dab838361547b565b505050565b306001600160a01b037f000000000000000000000000000000000000000000000000000000000000000016146121125760405163703e46dd60e11b815260040160405180910390fd5b7f9016d09d72d40fdae2fd8ceac6b6234c7706214fd39c1cd1e609a0528c19930080546001600160a01b031981166001600160a01b03848116918217845560405192169182907f8be0079c531659141344cd1fd0a4f28419497f9722a3daafe3b4186f6b6457e090600090a3505050565b6001600160a01b03831660009081526044602052604090819020905160019190614e959085906161a8565b908152604080519182900360209081018320805494151560ff1995861617905560008581526046909152206005810180549093166001179092554260078301557fdbabe9b529fc24bfdfcd36b59a6dbe007a7821733b63a5b8c95f6277ab5ec86690614f069086908690869061658d565b60405180910390a16036546001600160a01b031615614f7e5760365460405163044b446160e31b81526001600160a01b039091169063225a230890614f519087908790600401616462565b600060405180830381600087803b158015614f6b57600080fd5b505af1925050508015614f7c575060015b505b6033546001600160a01b03161561500757603354604051639f38525960e01b81526001600160a01b0391821691639f38525991614fc491881690869088906004016165bf565b6020604051808303816000875af1925050508015614fff575060408051601f3d908101601f19168201909252614ffc91810190616415565b60015b15615007575b505b50505050565b6000818152604660205260409081902060058101805460ff1916600217905590517fec2ab926ab5489978021efcd4ebb416764a38efcdd076036b96d3b57b5e0625c9061505f9086908690869061658d565b60405180910390a150505050565b6000807ff0c57e16840df040f15088dc2f81fe391c3923bec73e23a9662efc9c229c6a00611256565b61509e6154d1565b61486a816154f6565b6150af6154d1565b6121126154fe565b6121126154d1565b600080808080806150d2888a018a6165ee565b95509550955095509550955060006150ed86868686866125f5565b6001600160a01b038716600090815260586020526040812080549293509061511483616293565b919050555084866001600160a01b03167fe95392ce3565e207e71fa9976b51715469a676007d49abc87a5f80261b7e78d28360405161515591815260200190565b60405180910390a387600080516020616898833981519152888860405161517d9291906164c8565b60405180910390a250505050505050505050565b60008080806151a2868801886166a6565b935093509350935060006151ca8383604051806020016040528060008152508760008061199c565b6001600160a01b03851660009081526058602052604081208054929350906151f183616293565b919050555082846001600160a01b03167fe95392ce3565e207e71fa9976b51715469a676007d49abc87a5f80261b7e78d28360405161523291815260200190565b60405180910390a385600080516020616898833981519152868660405161525a9291906164c8565b60405180910390a25050505050505050565b60008080808061527e87890189616729565b94509450945094509450600061529685858585610a63565b6001600160a01b03861660009081526059602052604081208054929350906152bd83616293565b9190505550846001600160a01b03167f82c540b852403f92232307109b61cec76aa5d2801328adfae34ac16d4286f25685836040516152fd92919061678f565b60405180910390a28660008051602061689883398151915287876040516153259291906164c8565b60405180910390a2505050505050505050565b6000808080808061534b888a018a6167b1565b9550955095509550955095506000615366868686868661291c565b6001600160a01b0387166000908152605a6020526040812080549293509061538d83616293565b9190505550856001600160a01b03167fa28adc59ed17d9026d7bbcf8edb8bccda9c9135e5f31c3deb1e532b049621cc486836040516153cd92919061678f565b60405180910390a287600080516020616898833981519152888860405161517d9291906164c8565b600080806154058587018761683e565b9250925092506154158282610f7f565b60405181906001600160a01b038416907f7791e5252a7e897a2c01600d418a19ccf95f2fe554f3af3a29a3a84565ecf17490600090a383600080516020616898833981519152848460405161546b9291906164c8565b60405180910390a2505050505050565b6154848261550d565b6040516001600160a01b038316907fbc7cd75a20ee27fd9adebab32041f755214dbc6bffa90cc0225b39da2e5c2d3b90600090a28051156154c957614dab8282615584565b6117be6155f1565b6154d9615610565b61211257604051631afcd79f60e31b815260040160405180910390fd5b6148376154d1565b6155066154d1565b6001600055565b806001600160a01b03163b60000361554357604051634c9c8ce360e01b81526001600160a01b0382166004820152602401610ab3565b7f360894a13ba1a3210667c828492db98dca3e2076cc3735a920a3ca505d382bbc80546001600160a01b0319166001600160a01b0392909216919091179055565b6060600080846001600160a01b0316846040516155a191906161a8565b600060405180830381855af49150503d80600081146155dc576040519150601f19603f3d011682016040523d82523d6000602084013e6155e1565b606091505b5091509150610c2485838361562a565b34156121125760405163b398979f60e01b815260040160405180910390fd5b600061561a61506d565b54600160401b900460ff16919050565b60608261563f5761563a82615686565b611995565b815115801561565657506001600160a01b0384163b155b1561567f57604051639996b31560e01b81526001600160a01b0385166004820152602401610ab3565b5080611995565b8051156156965780518082602001fd5b60405163d6bda27560e01b815260040160405180910390fd5b6040518060e001604052806000815260200160006001600160a01b031681526020016060815260200160608152602001600060028111156156f2576156f2615d98565b815260200160008152602001600081525090565b6040805161020081018252600080825260208201819052918101829052606080820183905260808201529060a0820190815260200160001515815260200160001515815260200160006001600160a01b031681526020016000815260200160008152602001600081526020016060815260200160608152602001600081526020016000151581525090565b6040518061010001604052806000815260200160006001600160a01b03168152602001606081526020016060815260200160608152602001600060028111156156f2576156f2615d98565b6000602082840312156157ee57600080fd5b5035919050565b6001600160a01b038116811461486a57600080fd5b634e487b7160e01b600052604160045260246000fd5b6000806001600160401b0384111561583a5761583a61580a565b50604051601f19601f85018116603f011681018181106001600160401b03821117156158685761586861580a565b60405283815290508082840185101561588057600080fd5b83836020830137600060208583010152509392505050565b600082601f8301126158a957600080fd5b61199583833560208501615820565b600080600080608085870312156158ce57600080fd5b84356158d9816157f5565b935060208501356001600160401b038111156158f457600080fd5b61590087828801615898565b93505060408501356001600160401b0381111561591c57600080fd5b61592887828801615898565b949793965093946060013593505050565b60006020828403121561594b57600080fd5b8135611995816157f5565b6000806040838503121561596957600080fd5b8235615974816157f5565b946020939093013593505050565b6000806040838503121561599557600080fd5b8235915060208301356159a7816157f5565b809150509250929050565b801515811461486a57600080fd5b600080600080608085870312156159d657600080fd5b8435935060208501356159e8816159b2565b925060408501356001600160401b03811115615a0357600080fd5b615a0f87828801615898565b9250506060850135615a20816157f5565b939692955090935050565b60008060408385031215615a3e57600080fd5b8235615a49816157f5565b915060208301356001600160401b03811115615a6457600080fd5b8301601f81018513615a7557600080fd5b615a8485823560208401615820565b9150509250929050565b600080600060608486031215615aa357600080fd5b8335925060208401356001600160401b03811115615ac057600080fd5b615acc86828701615898565b9250506040840135615add816157f5565b809150509250925092565b60008060008060008060c08789031215615b0157600080fd5b8635955060208701356001600160401b03811115615b1e57600080fd5b615b2a89828a01615898565b95505060408701356001600160401b03811115615b4657600080fd5b615b5289828a01615898565b9450506060870135615b63816157f5565b92506080870135615b73816157f5565b9598949750929591949360a090920135925050565b600080600060608486031215615b9d57600080fd5b83356001600160401b03811115615bb357600080fd5b615bbf86828701615898565b93505060208401356001600160401b03811115615ac057600080fd5b600080600060608486031215615bf057600080fd5b833592506020840135615c02816157f5565b91506040840135615add816157f5565b600080600080600060a08688031215615c2a57600080fd5b8535615c35816157f5565b94506020860135935060408601356001600160401b03811115615c5757600080fd5b615c6388828901615898565b93505060608601356001600160401b03811115615c7f57600080fd5b615c8b88828901615898565b95989497509295608001359392505050565b60008060408385031215615cb057600080fd5b8235615cbb816157f5565b915060208301356001600160401b03811115615cd657600080fd5b615a8485828601615898565b600080600080600060a08688031215615cfa57600080fd5b8535615d05816157f5565b945060208601356001600160401b03811115615d2057600080fd5b615d2c88828901615898565b94505060408601356001600160401b03811115615c5757600080fd5b60005b83811015615d63578181015183820152602001615d4b565b50506000910152565b60008151808452615d84816020860160208601615d48565b601f01601f19169290920160200192915050565b634e487b7160e01b600052602160045260246000fd5b6003811061486a5761486a615d98565b60608152835160608201526001600160a01b0360208501511660808201526000604085015160e060a0840152615df8610140840182615d6c565b90506060860151605f198483030160c0850152615e158282615d6c565b9150506080860151615e2681615dae565b60e084015260a086015161010084015260c09095015161012083015250602081019290925260409091015290565b6020815260006119956020830184615d6c565b60008060208385031215615e7a57600080fd5b82356001600160401b03811115615e9057600080fd5b8301601f81018513615ea157600080fd5b80356001600160401b03811115615eb757600080fd5b856020828401011115615ec957600080fd5b6020919091019590945092505050565b60008060008060808587031215615eef57600080fd5b84356001600160401b03811115615f0557600080fd5b615f1187828801615898565b94505060208501356001600160401b03811115615f2d57600080fd5b615f3987828801615898565b93505060408501356001600160401b03811115615a0357600080fd5b6005811061486a5761486a615d98565b615f6e81615f55565b9052565b60608152835160608201526020840151608082015260006040850151615fa360a08401826001600160a01b03169052565b5060608501516001600160a01b031660c0830152608085015161020060e0840152615fd2610260840182615d6c565b905060a0860151615fe7610100850182615f65565b5060c08601518015156101208501525060e0860151801515610140850152506101008601516001600160a01b038116610160850152506101208601516101808401526101408601516101a08401526101608601516101c0840152610180860151605f19848303016101e085015261605e8282615d6c565b9150506101a0860151605f198483030161020085015261607e8282615d6c565b9150506101c08601516102208401526101e08601516160a261024085018215159052565b5060208301949094525060400152919050565b615f6e81615dae565b6020815281516020820152600060208301516160e560408401826001600160a01b03169052565b5060408301516101006060840152616101610120840182615d6c565b90506060840151601f1984830301608085015261611e8282615d6c565b9150506080840151601f198483030160a085015261613c8282615d6c565b91505060a084015161615160c08501826160b5565b5060c084015160e084015260e08401516101008401528091505092915050565b6020808252601f908201527f4f6e6c792066726f6e74656e64206f72206f776e65722063616e2063616c6c00604082015260600190565b600082516161ba818460208701615d48565b9190910192915050565b634e487b7160e01b600052601160045260246000fd5b81810381811115611256576112566161c4565b80820180821115611256576112566161c4565b60008261621d57634e487b7160e01b600052601260045260246000fd5b500490565b60208082526016908201527f4f6e6c792066726f6e74656e642063616e2063616c6c00000000000000000000604082015260600190565b600181811c9082168061626d57607f821691505b60208210810361628d57634e487b7160e01b600052602260045260246000fd5b50919050565b6000600182016162a5576162a56161c4565b5060010190565b601f821115614dab57806000526020600020601f840160051c810160208510156162d35750805b601f840160051c820191505b8181101561500557600081556001016162df565b81516001600160401b0381111561630c5761630c61580a565b6163208161631a8454616259565b846162ac565b6020601f821160018114616354576000831561633c5750848201515b600019600385901b1c1916600184901b178455615005565b600084815260208120601f198516915b828110156163845787850151825560209485019460019092019101616364565b50848210156163a25786840151600019600387901b60f8161c191681555b50505050600190811b01905550565b8481526001600160a01b038416602082015282151560408201526080606082015260006127816080830184615d6c565b8281526040602082015260006163fa6040830184615d6c565b949350505050565b6020810161640f83615f55565b91905290565b60006020828403121561642757600080fd5b8151611995816159b2565b60006020828403121561644457600080fd5b5051919050565b8082028115828204841417611256576112566161c4565b6001600160a01b03831681526040602082015260006163fa6040830184615d6c565b8183823760009101908152919050565b6000602082840312156164a657600080fd5b81356001600160401b038111156164bc57600080fd5b6163fa84828501615898565b6040815260006164db6040830185615d6c565b90506001600160a01b03831660208301529392505050565b60408152600080845461650581616259565b8060408601526001821660008114616524576001811461654057616574565b60ff1983166060870152606082151560051b8701019350616574565b87600052602060002060005b8381101561656b5781548882016060015260019091019060200161654c565b87016060019450505b5050506001600160a01b03841660208401529050611995565b6001600160a01b03841681526060602082015260006165af6060830185615d6c565b9050826040830152949350505050565b838152826020820152606060408201526000610c246060830184615d6c565b80356165e9816157f5565b919050565b60008060008060008060c0878903121561660757600080fd5b86356001600160401b0381111561661d57600080fd5b61662989828a01615898565b965050602087013561663a816157f5565b94506040870135935060608701356001600160401b0381111561665c57600080fd5b61666889828a01615898565b93505060808701356001600160401b0381111561668457600080fd5b61669089828a01615898565b9699959850939692959460a09093013593505050565b600080600080608085870312156166bc57600080fd5b84356001600160401b038111156166d257600080fd5b6166de87828801615898565b94505060208501356166ef816157f5565b92506040850135915060608501356001600160401b0381111561671157600080fd5b61671d87828801615898565b91505092959194509250565b600080600080600060a0868803121561674157600080fd5b85356001600160401b0381111561675757600080fd5b61676388828901615898565b9550506020860135616774816157f5565b935060408601356001600160401b03811115615c5757600080fd5b6040815260006167a26040830185615d6c565b90508260208301529392505050565b60008060008060008060c087890312156167ca57600080fd5b86356001600160401b038111156167e057600080fd5b6167ec89828a01615898565b9650506167fb602088016165de565b945060408701356001600160401b0381111561681657600080fd5b61682289828a01615898565b94505060608701356001600160401b0381111561665c57600080fd5b60008060006060848603121561685357600080fd5b83356001600160401b0381111561686957600080fd5b61687586828701615898565b9350506020840135616886816157f5565b92959294505050604091909101359056fe4ce1012755cb9fff5f4b0795fece216dc26389cf909ce67ab4cd4c2b8eabc05a44656661756c74206f7261636c6520666f722064697370757465207265736f6c7574696f6e185daf617c465de5e0042f7aae1503b1a216ea8927cacf296e58b516e82afea8a264697066735822122078ce1eb8e0e10f2a53d9ebeae63fd9d4fc67de90b324b6d5dc22ed60f343554c64736f6c634300081c0033",
			"opcodes": "PUSH1 0xA0 PUSH1 0x40 MSTORE ADDRESS PUSH1 0x80 MSTORE CALLVALUE DUP1 ISZERO PUSH1 0x13 JUMPI PUSH1 0x0 DUP1 REVERT JUMPDEST POP PUSH1 0x80 MLOAD PUSH2 0x6932 PUSH2 0x3D PUSH1 0x0 CODECOPY PUSH1 0x0 DUP2 DUP2 PUSH2 0x4C28 ADD MSTORE DUP2 DUP2 PUSH2 0x4C51 ADD MSTORE PUSH2 0x4DBB ADD MSTORE PUSH2 0x6932 PUSH1 0x0 RETURN INVALID PUSH1 0x80 PUSH1 0x40 MSTORE PUSH1 0x4 CALLDATASIZE LT PUSH2 0x334 JUMPI PUSH1 0x0 CALLDATALOAD PUSH1 0xE0 SHR DUP1 PUSH4 0x882578F0 GT PUSH2 0x1B0 JUMPI DUP1 PUSH4 0xAD78B7AE GT PUSH2 0xEC JUMPI DUP1 PUSH4 0xDBB9D735 GT PUSH2 0x95 JUMPI DUP1 PUSH4 0xEC0886F4 GT PUSH2 0x6F JUMPI DUP1 PUSH4 0xEC0886F4 EQ PUSH2 0x964 JUMPI DUP1 PUSH4 0xECA87449 EQ PUSH2 0x984 JUMPI DUP1 PUSH4 0xEEC6AB0F EQ PUSH2 0x9B1 JUMPI DUP1 PUSH4 0xF2FDE38B EQ PUSH2 0x9D1 JUMPI PUSH1 0x0 DUP1 REVERT JUMPDEST DUP1 PUSH4 0xDBB9D735 EQ PUSH2 0x900 JUMPI DUP1 PUSH4 0xDD41CC2F EQ PUSH2 0x920 JUMPI DUP1 PUSH4 0xEA89735D EQ PUSH2 0x935 JUMPI PUSH1 0x0 DUP1 REVERT JUMPDEST DUP1 PUSH4 0xBFA9AB0A GT PUSH2 0xC6 JUMPI DUP1 PUSH4 0xBFA9AB0A EQ PUSH2 0x8A0 JUMPI DUP1 PUSH4 0xC4D66DE8 EQ PUSH2 0x8C0 JUMPI DUP1 PUSH4 0xD0D84A3A EQ PUSH2 0x8E0 JUMPI PUSH1 0x0 DUP1 REVERT JUMPDEST DUP1 PUSH4 0xAD78B7AE EQ PUSH2 0x84B JUMPI DUP1 PUSH4 0xB958835B EQ PUSH2 0x86B JUMPI DUP1 PUSH4 0xBBF3E10B EQ PUSH2 0x88B JUMPI PUSH1 0x0 DUP1 REVERT JUMPDEST DUP1 PUSH4 0x99D71B55 GT PUSH2 0x159 JUMPI DUP1 PUSH4 0xA0633807 GT PUSH2 0x133 JUMPI DUP1 PUSH4 0xA0633807 EQ PUSH2 0x7B8 JUMPI DUP1 PUSH4 0xA53E8241 EQ PUSH2 0x7CD JUMPI DUP1 PUSH4 0xA9D6EE6F EQ PUSH2 0x7ED JUMPI DUP1 PUSH4 0xAD3CB1CC EQ PUSH2 0x80D JUMPI PUSH1 0x0 DUP1 REVERT JUMPDEST DUP1 PUSH4 0x99D71B55 EQ PUSH2 0x749 JUMPI DUP1 PUSH4 0x9DE2E9D7 EQ PUSH2 0x769 JUMPI DUP1 PUSH4 0x9F8C45CF EQ PUSH2 0x789 JUMPI PUSH1 0x0 DUP1 REVERT JUMPDEST DUP1 PUSH4 0x8DA5CB5B GT PUSH2 0x18A JUMPI DUP1 PUSH4 0x8DA5CB5B EQ PUSH2 0x6F4 JUMPI DUP1 PUSH4 0x8FB40FB6 EQ PUSH2 0x709 JUMPI DUP1 PUSH4 0x97AD50F9 EQ PUSH2 0x729 JUMPI PUSH1 0x0 DUP1 REVERT JUMPDEST DUP1 PUSH4 0x882578F0 EQ PUSH2 0x69F JUMPI DUP1 PUSH4 0x8C0C19D4 EQ PUSH2 0x6BF JUMPI DUP1 PUSH4 0x8D9A854B EQ PUSH2 0x6D4 JUMPI PUSH1 0x0 DUP1 REVERT JUMPDEST DUP1 PUSH4 0x425D512A GT PUSH2 0x27F JUMPI DUP1 PUSH4 0x52D1902D GT PUSH2 0x228 JUMPI DUP1 PUSH4 0x70A69408 GT PUSH2 0x202 JUMPI DUP1 PUSH4 0x70A69408 EQ PUSH2 0x62A JUMPI DUP1 PUSH4 0x715018A6 EQ PUSH2 0x64A JUMPI DUP1 PUSH4 0x865795C3 EQ PUSH2 0x65F JUMPI DUP1 PUSH4 0x865E5234 EQ PUSH2 0x67F JUMPI PUSH1 0x0 DUP1 REVERT JUMPDEST DUP1 PUSH4 0x52D1902D EQ PUSH2 0x598 JUMPI DUP1 PUSH4 0x666347D8 EQ PUSH2 0x5AD JUMPI DUP1 PUSH4 0x6A1465A6 EQ PUSH2 0x5C2 JUMPI PUSH1 0x0 DUP1 REVERT JUMPDEST DUP1 PUSH4 0x5007D37D GT PUSH2 0x259 JUMPI DUP1 PUSH4 0x5007D37D EQ PUSH2 0x538 JUMPI DUP1 PUSH4 0x5159D204 EQ PUSH2 0x558 JUMPI DUP1 PUSH4 0x51F6A9E8 EQ PUSH2 0x578 JUMPI PUSH1 0x0 DUP1 REVERT JUMPDEST DUP1 PUSH4 0x425D512A EQ PUSH2 0x4D5 JUMPI DUP1 PUSH4 0x462E45FA EQ PUSH2 0x4F5 JUMPI DUP1 PUSH4 0x4F1EF286 EQ PUSH2 0x525 JUMPI PUSH1 0x0 DUP1 REVERT JUMPDEST DUP1 PUSH4 0x2415D840 GT PUSH2 0x2E1 JUMPI DUP1 PUSH4 0x348EB0EC GT PUSH2 0x2BB JUMPI DUP1 PUSH4 0x348EB0EC EQ PUSH2 0x463 JUMPI DUP1 PUSH4 0x35BF6F15 EQ PUSH2 0x483 JUMPI DUP1 PUSH4 0x40C98A47 EQ PUSH2 0x4A3 JUMPI PUSH1 0x0 DUP1 REVERT JUMPDEST DUP1 PUSH4 0x2415D840 EQ PUSH2 0x403 JUMPI DUP1 PUSH4 0x2502AD19 EQ PUSH2 0x423 JUMPI DUP1 PUSH4 0x30F590D0 EQ PUSH2 0x443 JUMPI PUSH1 0x0 DUP1 REVERT JUMPDEST DUP1 PUSH4 0x19C6E064 GT PUSH2 0x312 JUMPI DUP1 PUSH4 0x19C6E064 EQ PUSH2 0x3A3 JUMPI DUP1 PUSH4 0x1ABDE88A EQ PUSH2 0x3C3 JUMPI DUP1 PUSH4 0x1BAAE20D EQ PUSH2 0x3E3 JUMPI PUSH1 0x0 DUP1 REVERT JUMPDEST DUP1 PUSH4 0x115BAE0 EQ PUSH2 0x339 JUMPI DUP1 PUSH4 0x4075A7F EQ PUSH2 0x35B JUMPI DUP1 PUSH4 0x10987B77 EQ PUSH2 0x38E JUMPI JUMPDEST PUSH1 0x0 DUP1 REVERT JUMPDEST CALLVALUE DUP1 ISZERO PUSH2 0x345 JUMPI PUSH1 0x0 DUP1 REVERT JUMPDEST POP PUSH2 0x359 PUSH2 0x354 CALLDATASIZE PUSH1 0x4 PUSH2 0x57DC JUMP JUMPDEST PUSH2 0x9F1 JUMP JUMPDEST STOP JUMPDEST CALLVALUE DUP1 ISZERO PUSH2 0x367 JUMPI PUSH1 0x0 DUP1 REVERT JUMPDEST POP PUSH2 0x37B PUSH2 0x376 CALLDATASIZE PUSH1 0x4 PUSH2 0x58B8 JUMP JUMPDEST PUSH2 0xA63 JUMP JUMPDEST PUSH1 0x40 MLOAD SWAP1 DUP2 MSTORE PUSH1 0x20 ADD JUMPDEST PUSH1 0x40 MLOAD DUP1 SWAP2 SUB SWAP1 RETURN JUMPDEST CALLVALUE DUP1 ISZERO PUSH2 0x39A JUMPI PUSH1 0x0 DUP1 REVERT JUMPDEST POP PUSH2 0x37B PUSH2 0xC2D JUMP JUMPDEST CALLVALUE DUP1 ISZERO PUSH2 0x3AF JUMPI PUSH1 0x0 DUP1 REVERT JUMPDEST POP PUSH2 0x359 PUSH2 0x3BE CALLDATASIZE PUSH1 0x4 PUSH2 0x5939 JUMP JUMPDEST PUSH2 0xC43 JUMP JUMPDEST CALLVALUE DUP1 ISZERO PUSH2 0x3CF JUMPI PUSH1 0x0 DUP1 REVERT JUMPDEST POP PUSH2 0x359 PUSH2 0x3DE CALLDATASIZE PUSH1 0x4 PUSH2 0x57DC JUMP JUMPDEST PUSH2 0xD15 JUMP JUMPDEST CALLVALUE DUP1 ISZERO PUSH2 0x3EF JUMPI PUSH1 0x0 DUP1 REVERT JUMPDEST POP PUSH2 0x359 PUSH2 0x3FE CALLDATASIZE PUSH1 0x4 PUSH2 0x57DC JUMP JUMPDEST PUSH2 0xD73 JUMP JUMPDEST CALLVALUE DUP1 ISZERO PUSH2 0x40F JUMPI PUSH1 0x0 DUP1 REVERT JUMPDEST POP PUSH2 0x359 PUSH2 0x41E CALLDATASIZE PUSH1 0x4 PUSH2 0x5939 JUMP JUMPDEST PUSH2 0xDDD JUMP JUMPDEST CALLVALUE DUP1 ISZERO PUSH2 0x42F JUMPI PUSH1 0x0 DUP1 REVERT JUMPDEST POP PUSH2 0x359 PUSH2 0x43E CALLDATASIZE PUSH1 0x4 PUSH2 0x5939 JUMP JUMPDEST PUSH2 0xED3 JUMP JUMPDEST CALLVALUE DUP1 ISZERO PUSH2 0x44F JUMPI PUSH1 0x0 DUP1 REVERT JUMPDEST POP PUSH2 0x359 PUSH2 0x45E CALLDATASIZE PUSH1 0x4 PUSH2 0x5956 JUMP JUMPDEST PUSH2 0xF7F JUMP JUMPDEST CALLVALUE DUP1 ISZERO PUSH2 0x46F JUMPI PUSH1 0x0 DUP1 REVERT JUMPDEST POP PUSH2 0x37B PUSH2 0x47E CALLDATASIZE PUSH1 0x4 PUSH2 0x5982 JUMP JUMPDEST PUSH2 0x1148 JUMP JUMPDEST CALLVALUE DUP1 ISZERO PUSH2 0x48F JUMPI PUSH1 0x0 DUP1 REVERT JUMPDEST POP PUSH2 0x359 PUSH2 0x49E CALLDATASIZE PUSH1 0x4 PUSH2 0x57DC JUMP JUMPDEST PUSH2 0x125C JUMP JUMPDEST CALLVALUE DUP1 ISZERO PUSH2 0x4AF JUMPI PUSH1 0x0 DUP1 REVERT JUMPDEST POP PUSH1 0x32 SLOAD PUSH1 0x1 PUSH1 0x1 PUSH1 0xA0 SHL SUB AND JUMPDEST PUSH1 0x40 MLOAD PUSH1 0x1 PUSH1 0x1 PUSH1 0xA0 SHL SUB SWAP1 SWAP2 AND DUP2 MSTORE PUSH1 0x20 ADD PUSH2 0x385 JUMP JUMPDEST CALLVALUE DUP1 ISZERO PUSH2 0x4E1 JUMPI PUSH1 0x0 DUP1 REVERT JUMPDEST POP PUSH2 0x359 PUSH2 0x4F0 CALLDATASIZE PUSH1 0x4 PUSH2 0x5939 JUMP JUMPDEST PUSH2 0x12BC JUMP JUMPDEST CALLVALUE DUP1 ISZERO PUSH2 0x501 JUMPI PUSH1 0x0 DUP1 REVERT JUMPDEST POP PUSH2 0x515 PUSH2 0x510 CALLDATASIZE PUSH1 0x4 PUSH2 0x59C0 JUMP JUMPDEST PUSH2 0x138E JUMP JUMPDEST PUSH1 0x40 MLOAD SWAP1 ISZERO ISZERO DUP2 MSTORE PUSH1 0x20 ADD PUSH2 0x385 JUMP JUMPDEST PUSH2 0x359 PUSH2 0x533 CALLDATASIZE PUSH1 0x4 PUSH2 0x5A2B JUMP JUMPDEST PUSH2 0x17A3 JUMP JUMPDEST CALLVALUE DUP1 ISZERO PUSH2 0x544 JUMPI PUSH1 0x0 DUP1 REVERT JUMPDEST POP PUSH2 0x515 PUSH2 0x553 CALLDATASIZE PUSH1 0x4 PUSH2 0x5A8E JUMP JUMPDEST PUSH2 0x17C2 JUMP JUMPDEST CALLVALUE DUP1 ISZERO PUSH2 0x564 JUMPI PUSH1 0x0 DUP1 REVERT JUMPDEST POP PUSH2 0x37B PUSH2 0x573 CALLDATASIZE PUSH1 0x4 PUSH2 0x5AE8 JUMP JUMPDEST PUSH2 0x199C JUMP JUMPDEST CALLVALUE DUP1 ISZERO PUSH2 0x584 JUMPI PUSH1 0x0 DUP1 REVERT JUMPDEST POP PUSH2 0x37B PUSH2 0x593 CALLDATASIZE PUSH1 0x4 PUSH2 0x5B88 JUMP JUMPDEST PUSH2 0x1E0C JUMP JUMPDEST CALLVALUE DUP1 ISZERO PUSH2 0x5A4 JUMPI PUSH1 0x0 DUP1 REVERT JUMPDEST POP PUSH2 0x37B PUSH2 0x1FB1 JUMP JUMPDEST CALLVALUE DUP1 ISZERO PUSH2 0x5B9 JUMPI PUSH1 0x0 DUP1 REVERT JUMPDEST POP PUSH1 0x38 SLOAD PUSH2 0x37B JUMP JUMPDEST CALLVALUE DUP1 ISZERO PUSH2 0x5CE JUMPI PUSH1 0x0 DUP1 REVERT JUMPDEST POP PUSH2 0x60F PUSH2 0x5DD CALLDATASIZE PUSH1 0x4 PUSH2 0x5939 JUMP JUMPDEST PUSH1 0x1 PUSH1 0x1 PUSH1 0xA0 SHL SUB AND PUSH1 0x0 SWAP1 DUP2 MSTORE PUSH1 0x58 PUSH1 0x20 SWAP1 DUP2 MSTORE PUSH1 0x40 DUP1 DUP4 KECCAK256 SLOAD PUSH1 0x59 DUP4 MSTORE DUP2 DUP5 KECCAK256 SLOAD PUSH1 0x5A SWAP1 SWAP4 MSTORE SWAP3 KECCAK256 SLOAD SWAP2 SWAP3 SWAP1 SWAP2 SWAP1 JUMP JUMPDEST PUSH1 0x40 DUP1 MLOAD SWAP4 DUP5 MSTORE PUSH1 0x20 DUP5 ADD SWAP3 SWAP1 SWAP3 MSTORE SWAP1 DUP3 ADD MSTORE PUSH1 0x60 ADD PUSH2 0x385 JUMP JUMPDEST CALLVALUE DUP1 ISZERO PUSH2 0x636 JUMPI PUSH1 0x0 DUP1 REVERT JUMPDEST POP PUSH2 0x37B PUSH2 0x645 CALLDATASIZE PUSH1 0x4 PUSH2 0x5982 JUMP JUMPDEST PUSH2 0x1FE0 JUMP JUMPDEST CALLVALUE DUP1 ISZERO PUSH2 0x656 JUMPI PUSH1 0x0 DUP1 REVERT JUMPDEST POP PUSH2 0x359 PUSH2 0x2100 JUMP JUMPDEST CALLVALUE DUP1 ISZERO PUSH2 0x66B JUMPI PUSH1 0x0 DUP1 REVERT JUMPDEST POP PUSH2 0x515 PUSH2 0x67A CALLDATASIZE PUSH1 0x4 PUSH2 0x5982 JUMP JUMPDEST PUSH2 0x2114 JUMP JUMPDEST CALLVALUE DUP1 ISZERO PUSH2 0x68B JUMPI PUSH1 0x0 DUP1 REVERT JUMPDEST POP PUSH2 0x515 PUSH2 0x69A CALLDATASIZE PUSH1 0x4 PUSH2 0x5BDB JUMP JUMPDEST PUSH2 0x2323 JUMP JUMPDEST CALLVALUE DUP1 ISZERO PUSH2 0x6AB JUMPI PUSH1 0x0 DUP1 REVERT JUMPDEST POP PUSH2 0x37B PUSH2 0x6BA CALLDATASIZE PUSH1 0x4 PUSH2 0x5C12 JUMP JUMPDEST PUSH2 0x25F5 JUMP JUMPDEST CALLVALUE DUP1 ISZERO PUSH2 0x6CB JUMPI PUSH1 0x0 DUP1 REVERT JUMPDEST POP PUSH1 0x39 SLOAD PUSH2 0x37B JUMP JUMPDEST CALLVALUE DUP1 ISZERO PUSH2 0x6E0 JUMPI PUSH1 0x0 DUP1 REVERT JUMPDEST POP PUSH2 0x515 PUSH2 0x6EF CALLDATASIZE PUSH1 0x4 PUSH2 0x5C9D JUMP JUMPDEST PUSH2 0x278B JUMP JUMPDEST CALLVALUE DUP1 ISZERO PUSH2 0x700 JUMPI PUSH1 0x0 DUP1 REVERT JUMPDEST POP PUSH2 0x4BD PUSH2 0x2865 JUMP JUMPDEST CALLVALUE DUP1 ISZERO PUSH2 0x715 JUMPI PUSH1 0x0 DUP1 REVERT JUMPDEST POP PUSH2 0x37B PUSH2 0x724 CALLDATASIZE PUSH1 0x4 PUSH2 0x5982 JUMP JUMPDEST PUSH2 0x2893 JUMP JUMPDEST CALLVALUE DUP1 ISZERO PUSH2 0x735 JUMPI PUSH1 0x0 DUP1 REVERT JUMPDEST POP PUSH2 0x37B PUSH2 0x744 CALLDATASIZE PUSH1 0x4 PUSH2 0x5CE2 JUMP JUMPDEST PUSH2 0x291C JUMP JUMPDEST CALLVALUE DUP1 ISZERO PUSH2 0x755 JUMPI PUSH1 0x0 DUP1 REVERT JUMPDEST POP PUSH2 0x37B PUSH2 0x764 CALLDATASIZE PUSH1 0x4 PUSH2 0x5982 JUMP JUMPDEST PUSH2 0x2A47 JUMP JUMPDEST CALLVALUE DUP1 ISZERO PUSH2 0x775 JUMPI PUSH1 0x0 DUP1 REVERT JUMPDEST POP PUSH2 0x359 PUSH2 0x784 CALLDATASIZE PUSH1 0x4 PUSH2 0x57DC JUMP JUMPDEST PUSH2 0x2BCC JUMP JUMPDEST CALLVALUE DUP1 ISZERO PUSH2 0x795 JUMPI PUSH1 0x0 DUP1 REVERT JUMPDEST POP PUSH2 0x7A9 PUSH2 0x7A4 CALLDATASIZE PUSH1 0x4 PUSH2 0x57DC JUMP JUMPDEST PUSH2 0x2C23 JUMP JUMPDEST PUSH1 0x40 MLOAD PUSH2 0x385 SWAP4 SWAP3 SWAP2 SWAP1 PUSH2 0x5DBE JUMP JUMPDEST CALLVALUE DUP1 ISZERO PUSH2 0x7C4 JUMPI PUSH1 0x0 DUP1 REVERT JUMPDEST POP PUSH2 0x37B PUSH2 0x2DF1 JUMP JUMPDEST CALLVALUE DUP1 ISZERO PUSH2 0x7D9 JUMPI PUSH1 0x0 DUP1 REVERT JUMPDEST POP PUSH2 0x515 PUSH2 0x7E8 CALLDATASIZE PUSH1 0x4 PUSH2 0x59C0 JUMP JUMPDEST PUSH2 0x2E02 JUMP JUMPDEST CALLVALUE DUP1 ISZERO PUSH2 0x7F9 JUMPI PUSH1 0x0 DUP1 REVERT JUMPDEST POP PUSH2 0x359 PUSH2 0x808 CALLDATASIZE PUSH1 0x4 PUSH2 0x5939 JUMP JUMPDEST PUSH2 0x3307 JUMP JUMPDEST CALLVALUE DUP1 ISZERO PUSH2 0x819 JUMPI PUSH1 0x0 DUP1 REVERT JUMPDEST POP PUSH2 0x83E PUSH1 0x40 MLOAD DUP1 PUSH1 0x40 ADD PUSH1 0x40 MSTORE DUP1 PUSH1 0x5 DUP2 MSTORE PUSH1 0x20 ADD PUSH5 0x352E302E3 PUSH1 0xDC SHL DUP2 MSTORE POP DUP2 JUMP JUMPDEST PUSH1 0x40 MLOAD PUSH2 0x385 SWAP2 SWAP1 PUSH2 0x5E54 JUMP JUMPDEST CALLVALUE DUP1 ISZERO PUSH2 0x857 JUMPI PUSH1 0x0 DUP1 REVERT JUMPDEST POP PUSH2 0x37B PUSH2 0x866 CALLDATASIZE PUSH1 0x4 PUSH2 0x5C9D JUMP JUMPDEST PUSH2 0x33EF JUMP JUMPDEST CALLVALUE DUP1 ISZERO PUSH2 0x877 JUMPI PUSH1 0x0 DUP1 REVERT JUMPDEST POP PUSH2 0x37B PUSH2 0x886 CALLDATASIZE PUSH1 0x4 PUSH2 0x5982 JUMP JUMPDEST PUSH2 0x342C JUMP JUMPDEST CALLVALUE DUP1 ISZERO PUSH2 0x897 JUMPI PUSH1 0x0 DUP1 REVERT JUMPDEST POP PUSH1 0x37 SLOAD PUSH2 0x37B JUMP JUMPDEST CALLVALUE DUP1 ISZERO PUSH2 0x8AC JUMPI PUSH1 0x0 DUP1 REVERT JUMPDEST POP PUSH2 0x359 PUSH2 0x8BB CALLDATASIZE PUSH1 0x4 PUSH2 0x57DC JUMP JUMPDEST PUSH2 0x3491 JUMP JUMPDEST CALLVALUE DUP1 ISZERO PUSH2 0x8CC JUMPI PUSH1 0x0 DUP1 REVERT JUMPDEST POP PUSH2 0x359 PUSH2 0x8DB CALLDATASIZE PUSH1 0x4 PUSH2 0x5939 JUMP JUMPDEST PUSH2 0x34E9 JUMP JUMPDEST CALLVALUE DUP1 ISZERO PUSH2 0x8EC JUMPI PUSH1 0x0 DUP1 REVERT JUMPDEST POP PUSH2 0x359 PUSH2 0x8FB CALLDATASIZE PUSH1 0x4 PUSH2 0x5E67 JUMP JUMPDEST PUSH2 0x3756 JUMP JUMPDEST CALLVALUE DUP1 ISZERO PUSH2 0x90C JUMPI PUSH1 0x0 DUP1 REVERT JUMPDEST POP PUSH2 0x37B PUSH2 0x91B CALLDATASIZE PUSH1 0x4 PUSH2 0x5ED9 JUMP JUMPDEST PUSH2 0x3A80 JUMP JUMPDEST CALLVALUE DUP1 ISZERO PUSH2 0x92C JUMPI PUSH1 0x0 DUP1 REVERT JUMPDEST POP PUSH2 0x37B PUSH2 0x3CFC JUMP JUMPDEST CALLVALUE DUP1 ISZERO PUSH2 0x941 JUMPI PUSH1 0x0 DUP1 REVERT JUMPDEST POP PUSH2 0x955 PUSH2 0x950 CALLDATASIZE PUSH1 0x4 PUSH2 0x57DC JUMP JUMPDEST PUSH2 0x3D0D JUMP JUMPDEST PUSH1 0x40 MLOAD PUSH2 0x385 SWAP4 SWAP3 SWAP2 SWAP1 PUSH2 0x5F72 JUMP JUMPDEST CALLVALUE DUP1 ISZERO PUSH2 0x970 JUMPI PUSH1 0x0 DUP1 REVERT JUMPDEST POP PUSH2 0x515 PUSH2 0x97F CALLDATASIZE PUSH1 0x4 PUSH2 0x59C0 JUMP JUMPDEST PUSH2 0x400B JUMP JUMPDEST CALLVALUE DUP1 ISZERO PUSH2 0x990 JUMPI PUSH1 0x0 DUP1 REVERT JUMPDEST POP PUSH2 0x9A4 PUSH2 0x99F CALLDATASIZE PUSH1 0x4 PUSH2 0x57DC JUMP JUMPDEST PUSH2 0x454D JUMP JUMPDEST PUSH1 0x40 MLOAD PUSH2 0x385 SWAP2 SWAP1 PUSH2 0x60BE JUMP JUMPDEST CALLVALUE DUP1 ISZERO PUSH2 0x9BD JUMPI PUSH1 0x0 DUP1 REVERT JUMPDEST POP PUSH2 0x37B PUSH2 0x9CC CALLDATASIZE PUSH1 0x4 PUSH2 0x5982 JUMP JUMPDEST PUSH2 0x4793 JUMP JUMPDEST CALLVALUE DUP1 ISZERO PUSH2 0x9DD JUMPI PUSH1 0x0 DUP1 REVERT JUMPDEST POP PUSH2 0x359 PUSH2 0x9EC CALLDATASIZE PUSH1 0x4 PUSH2 0x5939 JUMP JUMPDEST PUSH2 0x482F JUMP JUMPDEST PUSH2 0x9F9 PUSH2 0x486D JUMP JUMPDEST PUSH1 0x3C DUP1 SLOAD SWAP1 DUP3 SWAP1 SSTORE PUSH1 0x40 DUP1 MLOAD PUSH1 0x60 DUP1 DUP3 MSTORE PUSH1 0x14 SWAP1 DUP3 ADD MSTORE PUSH32 0x5175657374696F6E566F74696E67506572696F64000000000000000000000000 PUSH1 0x80 DUP3 ADD MSTORE PUSH1 0x20 DUP2 ADD DUP4 SWAP1 MSTORE SWAP1 DUP2 ADD DUP4 SWAP1 MSTORE PUSH1 0x0 DUP1 MLOAD PUSH1 0x20 PUSH2 0x68DD DUP4 CODECOPY DUP2 MLOAD SWAP2 MSTORE SWAP1 PUSH1 0xA0 ADD JUMPDEST PUSH1 0x40 MLOAD DUP1 SWAP2 SUB SWAP1 LOG1 POP POP JUMP JUMPDEST PUSH1 0x32 SLOAD PUSH1 0x0 SWAP1 PUSH1 0x1 PUSH1 0x1 PUSH1 0xA0 SHL SUB AND CALLER EQ DUP1 PUSH2 0xA97 JUMPI POP PUSH2 0xA82 PUSH2 0x2865 JUMP JUMPDEST PUSH1 0x1 PUSH1 0x1 PUSH1 0xA0 SHL SUB AND CALLER PUSH1 0x1 PUSH1 0x1 PUSH1 0xA0 SHL SUB AND EQ JUMPDEST PUSH2 0xABC JUMPI PUSH1 0x40 MLOAD PUSH3 0x461BCD PUSH1 0xE5 SHL DUP2 MSTORE PUSH1 0x4 ADD PUSH2 0xAB3 SWAP1 PUSH2 0x6171 JUMP JUMPDEST PUSH1 0x40 MLOAD DUP1 SWAP2 SUB SWAP1 REVERT JUMPDEST PUSH1 0x0 DUP5 MLOAD GT PUSH2 0xB00 JUMPI PUSH1 0x40 MLOAD PUSH3 0x461BCD PUSH1 0xE5 SHL DUP2 MSTORE PUSH1 0x20 PUSH1 0x4 DUP3 ADD MSTORE PUSH1 0x10 PUSH1 0x24 DUP3 ADD MSTORE PUSH16 0x456D70747920736B696C6C206E616D65 PUSH1 0x80 SHL PUSH1 0x44 DUP3 ADD MSTORE PUSH1 0x64 ADD PUSH2 0xAB3 JUMP JUMPDEST PUSH1 0x0 DUP4 MLOAD GT PUSH2 0xB44 JUMPI PUSH1 0x40 MLOAD PUSH3 0x461BCD PUSH1 0xE5 SHL DUP2 MSTORE PUSH1 0x20 PUSH1 0x4 DUP3 ADD MSTORE PUSH1 0x10 PUSH1 0x24 DUP3 ADD MSTORE PUSH16 0x8ADAE0E8F240E0E4DEDECC40D0C2E6D PUSH1 0x83 SHL PUSH1 0x44 DUP3 ADD MSTORE PUSH1 0x64 ADD PUSH2 0xAB3 JUMP JUMPDEST PUSH1 0x38 SLOAD DUP3 LT ISZERO PUSH2 0xB89 JUMPI PUSH1 0x40 MLOAD PUSH3 0x461BCD PUSH1 0xE5 SHL DUP2 MSTORE PUSH1 0x20 PUSH1 0x4 DUP3 ADD MSTORE PUSH1 0x10 PUSH1 0x24 DUP3 ADD MSTORE PUSH16 0x496E73756666696369656E7420666565 PUSH1 0x80 SHL PUSH1 0x44 DUP3 ADD MSTORE PUSH1 0x64 ADD PUSH2 0xAB3 JUMP JUMPDEST PUSH1 0x1 PUSH1 0x1 PUSH1 0xA0 SHL SUB DUP6 AND PUSH1 0x0 SWAP1 DUP2 MSTORE PUSH1 0x44 PUSH1 0x20 MSTORE PUSH1 0x40 SWAP1 DUP2 SWAP1 KECCAK256 SWAP1 MLOAD PUSH2 0xBB0 SWAP1 DUP7 SWAP1 PUSH2 0x61A8 JUMP JUMPDEST SWAP1 DUP2 MSTORE PUSH1 0x40 MLOAD SWAP1 DUP2 SWAP1 SUB PUSH1 0x20 ADD SWAP1 KECCAK256 SLOAD PUSH1 0xFF AND ISZERO PUSH2 0xC09 JUMPI PUSH1 0x40 MLOAD PUSH3 0x461BCD PUSH1 0xE5 SHL DUP2 MSTORE PUSH1 0x20 PUSH1 0x4 DUP3 ADD MSTORE PUSH1 0x16 PUSH1 0x24 DUP3 ADD MSTORE PUSH22 0x14DADA5B1B08185B1C9958591E481D995C9A599A5959 PUSH1 0x52 SHL PUSH1 0x44 DUP3 ADD MSTORE PUSH1 0x64 ADD PUSH2 0xAB3 JUMP JUMPDEST PUSH2 0xC24 DUP5 PUSH1 0x40 MLOAD DUP1 PUSH1 0x20 ADD PUSH1 0x40 MSTORE DUP1 PUSH1 0x0 DUP2 MSTORE POP DUP6 DUP9 PUSH2 0x3A80 JUMP JUMPDEST SWAP6 SWAP5 POP POP POP POP POP JUMP JUMPDEST PUSH1 0x0 PUSH1 0x1 PUSH1 0x3E SLOAD PUSH2 0xC3E SWAP2 SWAP1 PUSH2 0x61DA JUMP JUMPDEST SWAP1 POP SWAP1 JUMP JUMPDEST PUSH2 0xC4B PUSH2 0x486D JUMP JUMPDEST PUSH1 0x1 PUSH1 0x1 PUSH1 0xA0 SHL SUB DUP2 AND PUSH2 0xC93 JUMPI PUSH1 0x40 MLOAD PUSH3 0x461BCD PUSH1 0xE5 SHL DUP2 MSTORE PUSH1 0x20 PUSH1 0x4 DUP3 ADD MSTORE PUSH1 0xF PUSH1 0x24 DUP3 ADD MSTORE PUSH15 0x496E76616C69642061646472657373 PUSH1 0x88 SHL PUSH1 0x44 DUP3 ADD MSTORE PUSH1 0x64 ADD PUSH2 0xAB3 JUMP JUMPDEST PUSH1 0x36 DUP1 SLOAD PUSH1 0x1 PUSH1 0x1 PUSH1 0xA0 SHL SUB NOT AND PUSH1 0x1 PUSH1 0x1 PUSH1 0xA0 SHL SUB DUP4 AND SWAP1 DUP2 OR SWAP1 SWAP2 SSTORE PUSH1 0x40 DUP1 MLOAD DUP2 DUP2 MSTORE PUSH1 0x12 SWAP2 DUP2 ADD SWAP2 SWAP1 SWAP2 MSTORE PUSH18 0x29B5B4B63627B930B1B632A6B0B730B3B2B9 PUSH1 0x71 SHL PUSH1 0x60 DUP3 ADD MSTORE PUSH1 0x20 DUP2 ADD SWAP2 SWAP1 SWAP2 MSTORE PUSH32 0xD1893B811E542389CA0D5FE90791E7959FEE083D73DA3A5F0D656F8DC256EE6F SWAP1 PUSH1 0x80 ADD JUMPDEST PUSH1 0x40 MLOAD DUP1 SWAP2 SUB SWAP1 LOG1 POP JUMP JUMPDEST PUSH2 0xD1D PUSH2 0x486D JUMP JUMPDEST PUSH1 0x3B DUP1 SLOAD SWAP1 DUP3 SWAP1 SSTORE PUSH1 0x40 DUP1 MLOAD PUSH1 0x60 DUP1 DUP3 MSTORE PUSH1 0x11 SWAP1 DUP3 ADD MSTORE PUSH17 0x14DADA5B1B159BDD1A5B99D4195C9A5BD9 PUSH1 0x7A SHL PUSH1 0x80 DUP3 ADD MSTORE PUSH1 0x20 DUP2 ADD DUP4 SWAP1 MSTORE SWAP1 DUP2 ADD DUP4 SWAP1 MSTORE PUSH1 0x0 DUP1 MLOAD PUSH1 0x20 PUSH2 0x68DD DUP4 CODECOPY DUP2 MLOAD SWAP2 MSTORE SWAP1 PUSH1 0xA0 ADD PUSH2 0xA57 JUMP JUMPDEST PUSH2 0xD7B PUSH2 0x486D JUMP JUMPDEST PUSH1 0x38 DUP1 SLOAD SWAP1 DUP3 SWAP1 SSTORE PUSH1 0x40 DUP1 MLOAD PUSH1 0x60 DUP1 DUP3 MSTORE PUSH1 0x14 SWAP1 DUP3 ADD MSTORE PUSH32 0x536B696C6C566572696669636174696F6E466565000000000000000000000000 PUSH1 0x80 DUP3 ADD MSTORE PUSH1 0x20 DUP2 ADD DUP4 SWAP1 MSTORE SWAP1 DUP2 ADD DUP4 SWAP1 MSTORE PUSH1 0x0 DUP1 MLOAD PUSH1 0x20 PUSH2 0x68DD DUP4 CODECOPY DUP2 MLOAD SWAP2 MSTORE SWAP1 PUSH1 0xA0 ADD PUSH2 0xA57 JUMP JUMPDEST PUSH2 0xDE5 PUSH2 0x486D JUMP JUMPDEST PUSH1 0x1 PUSH1 0x1 PUSH1 0xA0 SHL SUB DUP2 AND PUSH2 0xE4D JUMPI PUSH1 0x40 MLOAD PUSH3 0x461BCD PUSH1 0xE5 SHL DUP2 MSTORE PUSH1 0x20 PUSH1 0x4 DUP3 ADD MSTORE PUSH1 0x29 PUSH1 0x24 DUP3 ADD MSTORE PUSH32 0x496E76616C696420476F7665726E616E636520416374696F6E20547261636B65 PUSH1 0x44 DUP3 ADD MSTORE PUSH9 0x722061646472657373 PUSH1 0xB8 SHL PUSH1 0x64 DUP3 ADD MSTORE PUSH1 0x84 ADD PUSH2 0xAB3 JUMP JUMPDEST PUSH1 0x35 DUP1 SLOAD PUSH1 0x1 PUSH1 0x1 PUSH1 0xA0 SHL SUB NOT AND PUSH1 0x1 PUSH1 0x1 PUSH1 0xA0 SHL SUB DUP4 AND SWAP1 DUP2 OR SWAP1 SWAP2 SSTORE PUSH1 0x40 DUP1 MLOAD DUP2 DUP2 MSTORE PUSH1 0x17 SWAP2 DUP2 ADD SWAP2 SWAP1 SWAP2 MSTORE PUSH32 0x476F7665726E616E6365416374696F6E547261636B6572000000000000000000 PUSH1 0x60 DUP3 ADD MSTORE PUSH1 0x20 DUP2 ADD SWAP2 SWAP1 SWAP2 MSTORE PUSH32 0xD1893B811E542389CA0D5FE90791E7959FEE083D73DA3A5F0D656F8DC256EE6F SWAP1 PUSH1 0x80 ADD PUSH2 0xD0A JUMP JUMPDEST PUSH2 0xEDB PUSH2 0x486D JUMP JUMPDEST PUSH1 0x1 PUSH1 0x1 PUSH1 0xA0 SHL SUB DUP2 AND PUSH2 0xF31 JUMPI PUSH1 0x40 MLOAD PUSH3 0x461BCD PUSH1 0xE5 SHL DUP2 MSTORE PUSH1 0x20 PUSH1 0x4 DUP3 ADD MSTORE PUSH1 0x18 PUSH1 0x24 DUP3 ADD MSTORE PUSH32 0x496E76616C69642066726F6E74656E6420616464726573730000000000000000 PUSH1 0x44 DUP3 ADD MSTORE PUSH1 0x64 ADD PUSH2 0xAB3 JUMP JUMPDEST PUSH1 0x32 DUP1 SLOAD PUSH1 0x1 PUSH1 0x1 PUSH1 0xA0 SHL SUB NOT AND PUSH1 0x1 PUSH1 0x1 PUSH1 0xA0 SHL SUB DUP4 AND SWAP1 DUP2 OR SWAP1 SWAP2 SSTORE PUSH1 0x40 MLOAD SWAP1 DUP2 MSTORE PUSH32 0x501DE82D3E4E18CD1EBCCC740AA5D59A060E2E767FFBAD1EF9210D29698B7EBC SWAP1 PUSH1 0x20 ADD PUSH2 0xD0A JUMP JUMPDEST PUSH1 0x32 SLOAD PUSH1 0x1 PUSH1 0x1 PUSH1 0xA0 SHL SUB AND CALLER EQ DUP1 PUSH2 0xFB0 JUMPI POP PUSH2 0xF9B PUSH2 0x2865 JUMP JUMPDEST PUSH1 0x1 PUSH1 0x1 PUSH1 0xA0 SHL SUB AND CALLER PUSH1 0x1 PUSH1 0x1 PUSH1 0xA0 SHL SUB AND EQ JUMPDEST PUSH2 0xFCC JUMPI PUSH1 0x40 MLOAD PUSH3 0x461BCD PUSH1 0xE5 SHL DUP2 MSTORE PUSH1 0x4 ADD PUSH2 0xAB3 SWAP1 PUSH2 0x6171 JUMP JUMPDEST PUSH1 0x0 DUP2 DUP2 MSTORE PUSH1 0x3D PUSH1 0x20 MSTORE PUSH1 0x40 DUP2 KECCAK256 DUP1 SLOAD SWAP1 SWAP2 SUB PUSH2 0x1024 JUMPI PUSH1 0x40 MLOAD PUSH3 0x461BCD PUSH1 0xE5 SHL DUP2 MSTORE PUSH1 0x20 PUSH1 0x4 DUP3 ADD MSTORE PUSH1 0x16 PUSH1 0x24 DUP3 ADD MSTORE PUSH22 0x111A5CDC1D5D1948191BD95CC81B9BDD08195E1A5CDD PUSH1 0x52 SHL PUSH1 0x44 DUP3 ADD MSTORE PUSH1 0x64 ADD PUSH2 0xAB3 JUMP JUMPDEST PUSH1 0x5 DUP2 ADD SLOAD PUSH2 0x100 SWAP1 DIV PUSH1 0xFF AND PUSH2 0x107D JUMPI PUSH1 0x40 MLOAD PUSH3 0x461BCD PUSH1 0xE5 SHL DUP2 MSTORE PUSH1 0x20 PUSH1 0x4 DUP3 ADD MSTORE PUSH1 0x15 PUSH1 0x24 DUP3 ADD MSTORE PUSH32 0x526573756C74206E6F742064657465726D696E65640000000000000000000000 PUSH1 0x44 DUP3 ADD MSTORE PUSH1 0x64 ADD PUSH2 0xAB3 JUMP JUMPDEST PUSH1 0x5 DUP2 ADD SLOAD PUSH1 0x1 PUSH1 0x1 PUSH1 0xA0 SHL SUB DUP5 DUP2 AND PUSH4 0x1000000 SWAP1 SWAP3 DIV AND EQ PUSH2 0x10D7 JUMPI PUSH1 0x40 MLOAD PUSH3 0x461BCD PUSH1 0xE5 SHL DUP2 MSTORE PUSH1 0x20 PUSH1 0x4 DUP3 ADD MSTORE PUSH1 0x11 PUSH1 0x24 DUP3 ADD MSTORE PUSH17 0x139BDD081D1A19481C9958DA5C1A595B9D PUSH1 0x7A SHL PUSH1 0x44 DUP3 ADD MSTORE PUSH1 0x64 ADD PUSH2 0xAB3 JUMP JUMPDEST PUSH1 0x5 DUP2 ADD SLOAD PUSH3 0x10000 SWAP1 DIV PUSH1 0xFF AND ISZERO PUSH2 0x1132 JUMPI PUSH1 0x40 MLOAD PUSH3 0x461BCD PUSH1 0xE5 SHL DUP2 MSTORE PUSH1 0x20 PUSH1 0x4 DUP3 ADD MSTORE PUSH1 0x16 PUSH1 0x24 DUP3 ADD MSTORE PUSH32 0x46756E647320616C72656164792072656C656173656400000000000000000000 PUSH1 0x44 DUP3 ADD MSTORE PUSH1 0x64 ADD PUSH2 0xAB3 JUMP JUMPDEST PUSH1 0x5 ADD DUP1 SLOAD PUSH3 0xFF0000 NOT AND PUSH3 0x10000 OR SWAP1 SSTORE POP POP JUMP JUMPDEST PUSH1 0x0 DUP3 DUP2 MSTORE PUSH1 0x4D PUSH1 0x20 MSTORE PUSH1 0x40 DUP2 KECCAK256 DUP1 SLOAD ISZERO DUP1 PUSH2 0x117C JUMPI POP PUSH1 0x0 PUSH1 0x4 DUP3 ADD SLOAD PUSH1 0xFF AND PUSH1 0x2 DUP2 GT ISZERO PUSH2 0x117A JUMPI PUSH2 0x117A PUSH2 0x5D98 JUMP JUMPDEST EQ JUMPDEST DUP1 PUSH2 0x11AA JUMPI POP PUSH1 0x0 DUP5 DUP2 MSTORE PUSH1 0x4F PUSH1 0x20 SWAP1 DUP2 MSTORE PUSH1 0x40 DUP1 DUP4 KECCAK256 PUSH1 0x1 PUSH1 0x1 PUSH1 0xA0 SHL SUB DUP8 AND DUP5 MSTORE SWAP1 SWAP2 MSTORE SWAP1 KECCAK256 SLOAD PUSH1 0xFF AND ISZERO JUMPDEST ISZERO PUSH2 0x11B9 JUMPI PUSH1 0x0 SWAP2 POP POP PUSH2 0x1256 JUMP JUMPDEST PUSH1 0x0 PUSH1 0x1 PUSH1 0x4 DUP4 ADD SLOAD PUSH1 0xFF AND PUSH1 0x2 DUP2 GT ISZERO PUSH2 0x11D6 JUMPI PUSH2 0x11D6 PUSH2 0x5D98 JUMP JUMPDEST PUSH1 0x0 DUP8 DUP2 MSTORE PUSH1 0x50 PUSH1 0x20 SWAP1 DUP2 MSTORE PUSH1 0x40 DUP1 DUP4 KECCAK256 PUSH1 0x1 PUSH1 0x1 PUSH1 0xA0 SHL SUB DUP11 AND DUP5 MSTORE SWAP1 SWAP2 MSTORE SWAP1 KECCAK256 SLOAD PUSH1 0xFF AND ISZERO ISZERO SWAP2 EQ EQ SWAP1 POP DUP1 ISZERO PUSH2 0x124F JUMPI PUSH1 0x0 DUP6 DUP2 MSTORE PUSH1 0x52 PUSH1 0x20 SWAP1 DUP2 MSTORE PUSH1 0x40 DUP1 DUP4 KECCAK256 SLOAD PUSH1 0x51 SWAP1 SWAP3 MSTORE DUP3 KECCAK256 SLOAD PUSH2 0x122D SWAP2 SWAP1 PUSH2 0x61ED JUMP JUMPDEST SWAP1 POP DUP1 ISZERO PUSH2 0x124D JUMPI PUSH1 0x39 SLOAD PUSH2 0x1243 SWAP1 DUP3 SWAP1 PUSH2 0x6200 JUMP JUMPDEST SWAP4 POP POP POP POP PUSH2 0x1256 JUMP JUMPDEST POP JUMPDEST PUSH1 0x0 SWAP3 POP POP POP JUMPDEST SWAP3 SWAP2 POP POP JUMP JUMPDEST PUSH2 0x1264 PUSH2 0x486D JUMP JUMPDEST PUSH1 0x3A DUP1 SLOAD SWAP1 DUP3 SWAP1 SSTORE PUSH1 0x40 DUP1 MLOAD PUSH1 0x60 DUP1 DUP3 MSTORE PUSH1 0x13 SWAP1 DUP3 ADD MSTORE PUSH19 0x111A5CDC1D5D19559BDD1A5B99D4195C9A5BD9 PUSH1 0x6A SHL PUSH1 0x80 DUP3 ADD MSTORE PUSH1 0x20 DUP2 ADD DUP4 SWAP1 MSTORE SWAP1 DUP2 ADD DUP4 SWAP1 MSTORE PUSH1 0x0 DUP1 MLOAD PUSH1 0x20 PUSH2 0x68DD DUP4 CODECOPY DUP2 MLOAD SWAP2 MSTORE SWAP1 PUSH1 0xA0 ADD PUSH2 0xA57 JUMP JUMPDEST PUSH2 0x12C4 PUSH2 0x486D JUMP JUMPDEST PUSH1 0x1 PUSH1 0x1 PUSH1 0xA0 SHL SUB DUP2 AND PUSH2 0x131A JUMPI PUSH1 0x40 MLOAD PUSH3 0x461BCD PUSH1 0xE5 SHL DUP2 MSTORE PUSH1 0x20 PUSH1 0x4 DUP3 ADD MSTORE PUSH1 0x1C PUSH1 0x24 DUP3 ADD MSTORE PUSH32 0x496E76616C69642044414F20636F6E7472616374206164647265737300000000 PUSH1 0x44 DUP3 ADD MSTORE PUSH1 0x64 ADD PUSH2 0xAB3 JUMP JUMPDEST PUSH1 0x33 DUP1 SLOAD PUSH1 0x1 PUSH1 0x1 PUSH1 0xA0 SHL SUB NOT AND PUSH1 0x1 PUSH1 0x1 PUSH1 0xA0 SHL SUB DUP4 AND SWAP1 DUP2 OR SWAP1 SWAP2 SSTORE PUSH1 0x40 DUP1 MLOAD DUP2 DUP2 MSTORE PUSH1 0xB SWAP2 DUP2 ADD SWAP2 SWAP1 SWAP2 MSTORE PUSH11 0x111053D0DBDB9D1C9858DD PUSH1 0xAA SHL PUSH1 0x60 DUP3 ADD MSTORE PUSH1 0x20 DUP2 ADD SWAP2 SWAP1 SWAP2 MSTORE PUSH32 0xD1893B811E542389CA0D5FE90791E7959FEE083D73DA3A5F0D656F8DC256EE6F SWAP1 PUSH1 0x80 ADD PUSH2 0xD0A JUMP JUMPDEST PUSH1 0x32 SLOAD PUSH1 0x0 SWAP1 PUSH1 0x1 PUSH1 0x1 PUSH1 0xA0 SHL SUB AND CALLER EQ PUSH2 0x13BB JUMPI PUSH1 0x40 MLOAD PUSH3 0x461BCD PUSH1 0xE5 SHL DUP2 MSTORE PUSH1 0x4 ADD PUSH2 0xAB3 SWAP1 PUSH2 0x6222 JUMP JUMPDEST PUSH1 0x0 DUP6 DUP2 MSTORE PUSH1 0x4D PUSH1 0x20 MSTORE PUSH1 0x40 DUP2 KECCAK256 DUP1 SLOAD SWAP1 SWAP2 SUB PUSH2 0x141A JUMPI PUSH1 0x40 MLOAD PUSH3 0x461BCD PUSH1 0xE5 SHL DUP2 MSTORE PUSH1 0x20 PUSH1 0x4 DUP3 ADD MSTORE PUSH1 0x17 PUSH1 0x24 DUP3 ADD MSTORE PUSH32 0x5175657374696F6E20646F6573206E6F74206578697374000000000000000000 PUSH1 0x44 DUP3 ADD MSTORE PUSH1 0x64 ADD PUSH2 0xAB3 JUMP JUMPDEST PUSH1 0x0 PUSH1 0x4 DUP3 ADD SLOAD PUSH1 0xFF AND PUSH1 0x2 DUP2 GT ISZERO PUSH2 0x1435 JUMPI PUSH2 0x1435 PUSH2 0x5D98 JUMP JUMPDEST EQ PUSH2 0x1477 JUMPI PUSH1 0x40 MLOAD PUSH3 0x461BCD PUSH1 0xE5 SHL DUP2 MSTORE PUSH1 0x20 PUSH1 0x4 DUP3 ADD MSTORE PUSH1 0x12 PUSH1 0x24 DUP3 ADD MSTORE PUSH18 0x4E6F7420696E2061736B6564207374617465 PUSH1 0x70 SHL PUSH1 0x44 DUP3 ADD MSTORE PUSH1 0x64 ADD PUSH2 0xAB3 JUMP JUMPDEST PUSH1 0x0 DUP7 DUP2 MSTORE PUSH1 0x4F PUSH1 0x20 SWAP1 DUP2 MSTORE PUSH1 0x40 DUP1 DUP4 KECCAK256 PUSH1 0x1 PUSH1 0x1 PUSH1 0xA0 SHL SUB DUP8 AND DUP5 MSTORE SWAP1 SWAP2 MSTORE SWAP1 KECCAK256 SLOAD PUSH1 0xFF AND ISZERO PUSH2 0x14DA JUMPI PUSH1 0x40 MLOAD PUSH3 0x461BCD PUSH1 0xE5 SHL DUP2 MSTORE PUSH1 0x20 PUSH1 0x4 DUP3 ADD MSTORE PUSH1 0xD PUSH1 0x24 DUP3 ADD MSTORE PUSH13 0x105B1C9958591E481D9BDD1959 PUSH1 0x9A SHL PUSH1 0x44 DUP3 ADD MSTORE PUSH1 0x64 ADD PUSH2 0xAB3 JUMP JUMPDEST PUSH1 0x0 DUP2 PUSH1 0x3 ADD DUP1 SLOAD PUSH2 0x14EB SWAP1 PUSH2 0x6259 JUMP JUMPDEST DUP1 PUSH1 0x1F ADD PUSH1 0x20 DUP1 SWAP2 DIV MUL PUSH1 0x20 ADD PUSH1 0x40 MLOAD SWAP1 DUP2 ADD PUSH1 0x40 MSTORE DUP1 SWAP3 SWAP2 SWAP1 DUP2 DUP2 MSTORE PUSH1 0x20 ADD DUP3 DUP1 SLOAD PUSH2 0x1517 SWAP1 PUSH2 0x6259 JUMP JUMPDEST DUP1 ISZERO PUSH2 0x1564 JUMPI DUP1 PUSH1 0x1F LT PUSH2 0x1539 JUMPI PUSH2 0x100 DUP1 DUP4 SLOAD DIV MUL DUP4 MSTORE SWAP2 PUSH1 0x20 ADD SWAP2 PUSH2 0x1564 JUMP JUMPDEST DUP3 ADD SWAP2 SWAP1 PUSH1 0x0 MSTORE PUSH1 0x20 PUSH1 0x0 KECCAK256 SWAP1 JUMPDEST DUP2 SLOAD DUP2 MSTORE SWAP1 PUSH1 0x1 ADD SWAP1 PUSH1 0x20 ADD DUP1 DUP4 GT PUSH2 0x1547 JUMPI DUP3 SWAP1 SUB PUSH1 0x1F AND DUP3 ADD SWAP2 JUMPDEST POP POP POP POP POP SWAP1 POP PUSH2 0x1575 DUP2 DUP6 PUSH2 0x489F JUMP JUMPDEST PUSH2 0x15B8 JUMPI PUSH1 0x40 MLOAD PUSH3 0x461BCD PUSH1 0xE5 SHL DUP2 MSTORE PUSH1 0x20 PUSH1 0x4 DUP3 ADD MSTORE PUSH1 0x14 PUSH1 0x24 DUP3 ADD MSTORE PUSH20 0x2737BA1030B71037B930B1B6329036B2B6B132B9 PUSH1 0x61 SHL PUSH1 0x44 DUP3 ADD MSTORE PUSH1 0x64 ADD PUSH2 0xAB3 JUMP JUMPDEST PUSH1 0x0 DUP8 DUP2 MSTORE PUSH1 0x4F PUSH1 0x20 SWAP1 DUP2 MSTORE PUSH1 0x40 DUP1 DUP4 KECCAK256 PUSH1 0x1 PUSH1 0x1 PUSH1 0xA0 SHL SUB DUP9 AND DUP1 DUP6 MSTORE SWAP1 DUP4 MSTORE DUP2 DUP5 KECCAK256 DUP1 SLOAD PUSH1 0xFF NOT SWAP1 DUP2 AND PUSH1 0x1 OR SWAP1 SWAP2 SSTORE DUP12 DUP6 MSTORE PUSH1 0x50 DUP5 MSTORE DUP3 DUP6 KECCAK256 SWAP2 DUP6 MSTORE SWAP3 MSTORE SWAP1 SWAP2 KECCAK256 DUP1 SLOAD DUP9 ISZERO DUP1 ISZERO SWAP2 SWAP1 SWAP4 AND OR SWAP1 SSTORE PUSH2 0x1631 JUMPI PUSH1 0x0 DUP8 DUP2 MSTORE PUSH1 0x51 PUSH1 0x20 MSTORE PUSH1 0x40 DUP2 KECCAK256 DUP1 SLOAD SWAP2 PUSH2 0x1627 DUP4 PUSH2 0x6293 JUMP JUMPDEST SWAP2 SWAP1 POP SSTORE POP PUSH2 0x1651 JUMP JUMPDEST PUSH1 0x0 DUP8 DUP2 MSTORE PUSH1 0x52 PUSH1 0x20 MSTORE PUSH1 0x40 DUP2 KECCAK256 DUP1 SLOAD SWAP2 PUSH2 0x164B DUP4 PUSH2 0x6293 JUMP JUMPDEST SWAP2 SWAP1 POP SSTORE POP JUMPDEST PUSH1 0x0 DUP8 DUP2 MSTORE PUSH1 0x53 PUSH1 0x20 SWAP1 DUP2 MSTORE PUSH1 0x40 DUP3 KECCAK256 DUP1 SLOAD PUSH1 0x1 DUP2 ADD DUP3 SSTORE SWAP1 DUP4 MSTORE SWAP2 KECCAK256 ADD PUSH2 0x1679 DUP7 DUP3 PUSH2 0x62F3 JUMP JUMPDEST POP PUSH32 0x3F9DE12BCBC6CF19DA694988CD8B561F6C6823C2A592032887D8E81DD224C857 DUP8 DUP6 DUP9 DUP9 PUSH1 0x40 MLOAD PUSH2 0x16AF SWAP5 SWAP4 SWAP3 SWAP2 SWAP1 PUSH2 0x63B1 JUMP JUMPDEST PUSH1 0x40 MLOAD DUP1 SWAP2 SUB SWAP1 LOG1 PUSH1 0x0 DUP8 DUP2 MSTORE PUSH1 0x52 PUSH1 0x20 SWAP1 DUP2 MSTORE PUSH1 0x40 DUP1 DUP4 KECCAK256 SLOAD PUSH1 0x51 SWAP1 SWAP3 MSTORE DUP3 KECCAK256 SLOAD PUSH2 0x16DB SWAP2 SWAP1 PUSH2 0x61ED JUMP JUMPDEST SWAP1 POP PUSH2 0x16E6 DUP3 PUSH2 0x496C JUMP JUMPDEST ISZERO PUSH2 0x178C JUMPI PUSH1 0x0 PUSH2 0x16F6 DUP4 PUSH2 0x4A1F JUMP JUMPDEST SWAP1 POP PUSH2 0x1703 PUSH1 0x2 DUP3 PUSH2 0x6200 JUMP JUMPDEST PUSH2 0x170E SWAP1 PUSH1 0x1 PUSH2 0x61ED JUMP JUMPDEST DUP3 LT ISZERO DUP1 ISZERO PUSH2 0x1735 JUMPI POP PUSH1 0x0 DUP10 DUP2 MSTORE PUSH1 0x52 PUSH1 0x20 SWAP1 DUP2 MSTORE PUSH1 0x40 DUP1 DUP4 KECCAK256 SLOAD PUSH1 0x51 SWAP1 SWAP3 MSTORE SWAP1 SWAP2 KECCAK256 SLOAD GT JUMPDEST ISZERO PUSH2 0x178A JUMPI PUSH1 0x4 DUP5 ADD DUP1 SLOAD PUSH1 0xFF NOT AND PUSH1 0x1 OR SWAP1 SSTORE TIMESTAMP PUSH1 0x6 DUP6 ADD SSTORE PUSH1 0x40 MLOAD PUSH32 0x561CFABF8B75CC7B1BC45A72A002F282785217662C2963AF7EC5106D7BE91611 SWAP1 PUSH2 0x1781 SWAP1 DUP12 SWAP1 DUP11 SWAP1 PUSH2 0x63E1 JUMP JUMPDEST PUSH1 0x40 MLOAD DUP1 SWAP2 SUB SWAP1 LOG1 JUMPDEST POP JUMPDEST PUSH2 0x1795 DUP6 PUSH2 0x4AD0 JUMP JUMPDEST POP PUSH1 0x1 SWAP8 SWAP7 POP POP POP POP POP POP POP JUMP JUMPDEST PUSH2 0x17AB PUSH2 0x4C1D JUMP JUMPDEST PUSH2 0x17B4 DUP3 PUSH2 0x4CD4 JUMP JUMPDEST PUSH2 0x17BE DUP3 DUP3 PUSH2 0x4CDC JUMP JUMPDEST POP POP JUMP JUMPDEST PUSH1 0x32 SLOAD PUSH1 0x0 SWAP1 PUSH1 0x1 PUSH1 0x1 PUSH1 0xA0 SHL SUB AND CALLER EQ PUSH2 0x17EF JUMPI PUSH1 0x40 MLOAD PUSH3 0x461BCD PUSH1 0xE5 SHL DUP2 MSTORE PUSH1 0x4 ADD PUSH2 0xAB3 SWAP1 PUSH2 0x6222 JUMP JUMPDEST PUSH1 0x0 DUP5 DUP2 MSTORE PUSH1 0x3D PUSH1 0x20 MSTORE PUSH1 0x40 DUP2 KECCAK256 DUP1 SLOAD SWAP1 SWAP2 SUB PUSH2 0x1847 JUMPI PUSH1 0x40 MLOAD PUSH3 0x461BCD PUSH1 0xE5 SHL DUP2 MSTORE PUSH1 0x20 PUSH1 0x4 DUP3 ADD MSTORE PUSH1 0x16 PUSH1 0x24 DUP3 ADD MSTORE PUSH22 0x111A5CDC1D5D1948191BD95CC81B9BDD08195E1A5CDD PUSH1 0x52 SHL PUSH1 0x44 DUP3 ADD MSTORE PUSH1 0x64 ADD PUSH2 0xAB3 JUMP JUMPDEST PUSH1 0x2 DUP2 ADD SLOAD PUSH1 0x1 PUSH1 0x1 PUSH1 0xA0 SHL SUB DUP5 DUP2 AND SWAP2 AND EQ DUP1 PUSH2 0x1874 JUMPI POP PUSH1 0x3 DUP2 ADD SLOAD PUSH1 0x1 PUSH1 0x1 PUSH1 0xA0 SHL SUB DUP5 DUP2 AND SWAP2 AND EQ JUMPDEST PUSH2 0x18B1 JUMPI PUSH1 0x40 MLOAD PUSH3 0x461BCD PUSH1 0xE5 SHL DUP2 MSTORE PUSH1 0x20 PUSH1 0x4 DUP3 ADD MSTORE PUSH1 0xE PUSH1 0x24 DUP3 ADD MSTORE PUSH14 0x139BDD08185D5D1A1BDC9A5E9959 PUSH1 0x92 SHL PUSH1 0x44 DUP3 ADD MSTORE PUSH1 0x64 ADD PUSH2 0xAB3 JUMP JUMPDEST PUSH1 0x3 PUSH1 0x5 DUP3 ADD SLOAD PUSH1 0xFF AND PUSH1 0x4 DUP2 GT ISZERO PUSH2 0x18CC JUMPI PUSH2 0x18CC PUSH2 0x5D98 JUMP JUMPDEST SUB PUSH2 0x1914 JUMPI PUSH1 0x40 MLOAD PUSH3 0x461BCD PUSH1 0xE5 SHL DUP2 MSTORE PUSH1 0x20 PUSH1 0x4 DUP3 ADD MSTORE PUSH1 0x18 PUSH1 0x24 DUP3 ADD MSTORE PUSH24 0x111A5CDC1D5D1948185B1C9958591E481C995CDBDB1D9959 PUSH1 0x42 SHL PUSH1 0x44 DUP3 ADD MSTORE PUSH1 0x64 ADD PUSH2 0xAB3 JUMP JUMPDEST PUSH1 0x9 DUP2 ADD PUSH2 0x1922 DUP6 DUP3 PUSH2 0x62F3 JUMP JUMPDEST POP PUSH1 0x0 PUSH1 0x5 DUP3 ADD SLOAD PUSH1 0xFF AND PUSH1 0x4 DUP2 GT ISZERO PUSH2 0x193E JUMPI PUSH2 0x193E PUSH2 0x5D98 JUMP JUMPDEST SUB PUSH2 0x198F JUMPI PUSH1 0x5 DUP2 ADD DUP1 SLOAD PUSH1 0xFF NOT AND PUSH1 0x1 SWAP1 DUP2 OR SWAP1 SWAP2 SSTORE PUSH1 0x40 MLOAD DUP7 SWAP2 PUSH32 0x7D55143B13D8FEFDB3A1F27AEA953A5E54365F38A17D57A8CED97B3AFAA6D7E SWAP2 PUSH2 0x1986 SWAP2 SWAP1 PUSH2 0x6402 JUMP JUMPDEST PUSH1 0x40 MLOAD DUP1 SWAP2 SUB SWAP1 LOG2 JUMPDEST PUSH1 0x1 SWAP2 POP POP JUMPDEST SWAP4 SWAP3 POP POP POP JUMP JUMPDEST PUSH1 0x32 SLOAD PUSH1 0x0 SWAP1 PUSH1 0x1 PUSH1 0x1 PUSH1 0xA0 SHL SUB AND CALLER EQ DUP1 PUSH2 0x19D0 JUMPI POP PUSH2 0x19BB PUSH2 0x2865 JUMP JUMPDEST PUSH1 0x1 PUSH1 0x1 PUSH1 0xA0 SHL SUB AND CALLER PUSH1 0x1 PUSH1 0x1 PUSH1 0xA0 SHL SUB AND EQ JUMPDEST PUSH2 0x19EC JUMPI PUSH1 0x40 MLOAD PUSH3 0x461BCD PUSH1 0xE5 SHL DUP2 MSTORE PUSH1 0x4 ADD PUSH2 0xAB3 SWAP1 PUSH2 0x6171 JUMP JUMPDEST PUSH2 0x19F5 DUP6 PUSH2 0x496C JUMP JUMPDEST PUSH2 0x1A38 JUMPI PUSH1 0x40 MLOAD PUSH3 0x461BCD PUSH1 0xE5 SHL DUP2 MSTORE PUSH1 0x20 PUSH1 0x4 DUP3 ADD MSTORE PUSH1 0x14 PUSH1 0x24 DUP3 ADD MSTORE PUSH20 0x4F7261636C65206973206E6F7420616374697665 PUSH1 0x60 SHL PUSH1 0x44 DUP3 ADD MSTORE PUSH1 0x64 ADD PUSH2 0xAB3 JUMP JUMPDEST PUSH1 0x36 SLOAD PUSH1 0x0 SWAP1 PUSH1 0x3 SWAP1 PUSH1 0x1 PUSH1 0x1 PUSH1 0xA0 SHL SUB AND ISZERO PUSH2 0x1BD2 JUMPI PUSH1 0x36 SLOAD PUSH1 0x40 MLOAD PUSH4 0x67E8179 PUSH1 0xE3 SHL DUP2 MSTORE PUSH1 0x1 PUSH1 0x1 PUSH1 0xA0 SHL SUB SWAP1 SWAP2 AND SWAP1 PUSH4 0x33F40BC8 SWAP1 PUSH2 0x1A7F SWAP1 DUP11 SWAP1 PUSH1 0x4 ADD PUSH2 0x5E54 JUMP JUMPDEST PUSH1 0x20 PUSH1 0x40 MLOAD DUP1 DUP4 SUB DUP2 DUP7 GAS STATICCALL ISZERO DUP1 ISZERO PUSH2 0x1A9C JUMPI RETURNDATASIZE PUSH1 0x0 DUP1 RETURNDATACOPY RETURNDATASIZE PUSH1 0x0 REVERT JUMPDEST POP POP POP POP PUSH1 0x40 MLOAD RETURNDATASIZE PUSH1 0x1F NOT PUSH1 0x1F DUP3 ADD AND DUP3 ADD DUP1 PUSH1 0x40 MSTORE POP DUP2 ADD SWAP1 PUSH2 0x1AC0 SWAP2 SWAP1 PUSH2 0x6415 JUMP JUMPDEST SWAP2 POP DUP2 PUSH2 0x1B35 JUMPI PUSH1 0x40 MLOAD PUSH3 0x461BCD PUSH1 0xE5 SHL DUP2 MSTORE PUSH1 0x20 PUSH1 0x4 DUP3 ADD MSTORE PUSH1 0x34 PUSH1 0x24 DUP3 ADD MSTORE PUSH32 0x4F7261636C6520646F6573206E6F74206D656574206469737075746520726573 PUSH1 0x44 DUP3 ADD MSTORE PUSH32 0x6F6C7574696F6E20726571756972656D656E7473000000000000000000000000 PUSH1 0x64 DUP3 ADD MSTORE PUSH1 0x84 ADD PUSH2 0xAB3 JUMP JUMPDEST PUSH1 0x36 SLOAD PUSH1 0x40 MLOAD PUSH4 0x3CE0F2F7 PUSH1 0xE0 SHL DUP2 MSTORE PUSH1 0x0 SWAP2 PUSH1 0x1 PUSH1 0x1 PUSH1 0xA0 SHL SUB AND SWAP1 PUSH4 0x3CE0F2F7 SWAP1 PUSH2 0x1B66 SWAP1 DUP12 SWAP1 PUSH1 0x4 ADD PUSH2 0x5E54 JUMP JUMPDEST PUSH1 0x20 PUSH1 0x40 MLOAD DUP1 DUP4 SUB DUP2 DUP7 GAS STATICCALL ISZERO DUP1 ISZERO PUSH2 0x1B83 JUMPI RETURNDATASIZE PUSH1 0x0 DUP1 RETURNDATACOPY RETURNDATASIZE PUSH1 0x0 REVERT JUMPDEST POP POP POP POP PUSH1 0x40 MLOAD RETURNDATASIZE PUSH1 0x1F NOT PUSH1 0x1F DUP3 ADD AND DUP3 ADD DUP1 PUSH1 0x40 MSTORE POP DUP2 ADD SWAP1 PUSH2 0x1BA7 SWAP2 SWAP1 PUSH2 0x6432 JUMP JUMPDEST SWAP1 POP PUSH1 0x64 PUSH2 0x1BB6 DUP3 PUSH1 0x3C PUSH2 0x644B JUMP JUMPDEST PUSH2 0x1BC0 SWAP2 SWAP1 PUSH2 0x6200 JUMP JUMPDEST SWAP2 POP PUSH1 0x3 DUP3 LT ISZERO PUSH2 0x1BD0 JUMPI PUSH1 0x3 SWAP2 POP JUMPDEST POP JUMPDEST PUSH1 0x3E DUP1 SLOAD SWAP1 PUSH1 0x0 PUSH2 0x1BE2 DUP4 PUSH2 0x6293 JUMP JUMPDEST SWAP2 SWAP1 POP SSTORE SWAP3 POP PUSH1 0x40 MLOAD DUP1 PUSH2 0x200 ADD PUSH1 0x40 MSTORE DUP1 DUP5 DUP2 MSTORE PUSH1 0x20 ADD DUP11 DUP2 MSTORE PUSH1 0x20 ADD DUP8 PUSH1 0x1 PUSH1 0x1 PUSH1 0xA0 SHL SUB AND DUP2 MSTORE PUSH1 0x20 ADD DUP7 PUSH1 0x1 PUSH1 0x1 PUSH1 0xA0 SHL SUB AND DUP2 MSTORE PUSH1 0x20 ADD DUP10 DUP2 MSTORE PUSH1 0x20 ADD PUSH1 0x0 PUSH1 0x4 DUP2 GT ISZERO PUSH2 0x1C37 JUMPI PUSH2 0x1C37 PUSH2 0x5D98 JUMP JUMPDEST DUP2 MSTORE PUSH1 0x0 PUSH1 0x20 DUP1 DUP4 ADD DUP3 SWAP1 MSTORE PUSH1 0x40 DUP1 DUP5 ADD DUP4 SWAP1 MSTORE PUSH1 0x60 DUP1 DUP6 ADD DUP5 SWAP1 MSTORE PUSH1 0x80 DUP1 DUP7 ADD DUP12 SWAP1 MSTORE TIMESTAMP PUSH1 0xA0 DUP8 ADD MSTORE PUSH1 0xC0 DUP7 ADD DUP6 SWAP1 MSTORE DUP3 MLOAD DUP1 DUP6 ADD DUP5 MSTORE DUP6 DUP2 MSTORE PUSH1 0xE0 DUP8 ADD MSTORE PUSH2 0x100 DUP7 ADD DUP15 SWAP1 MSTORE PUSH2 0x120 DUP7 ADD DUP9 SWAP1 MSTORE DUP9 ISZERO ISZERO PUSH2 0x140 SWAP1 SWAP7 ADD SWAP6 SWAP1 SWAP6 MSTORE DUP9 DUP5 MSTORE PUSH1 0x3D DUP4 MSTORE SWAP3 DUP2 SWAP1 KECCAK256 DUP6 MLOAD DUP2 SSTORE SWAP2 DUP6 ADD MLOAD PUSH1 0x1 DUP4 ADD SSTORE DUP5 ADD MLOAD PUSH1 0x2 DUP3 ADD DUP1 SLOAD PUSH1 0x1 PUSH1 0x1 PUSH1 0xA0 SHL SUB NOT SWAP1 DUP2 AND PUSH1 0x1 PUSH1 0x1 PUSH1 0xA0 SHL SUB SWAP4 DUP5 AND OR SWAP1 SWAP2 SSTORE SWAP3 DUP6 ADD MLOAD PUSH1 0x3 DUP4 ADD DUP1 SLOAD SWAP1 SWAP5 AND SWAP2 AND OR SWAP1 SWAP2 SSTORE SWAP1 DUP3 ADD MLOAD PUSH1 0x4 DUP3 ADD SWAP1 PUSH2 0x1CF6 SWAP1 DUP3 PUSH2 0x62F3 JUMP JUMPDEST POP PUSH1 0xA0 DUP3 ADD MLOAD PUSH1 0x5 DUP3 ADD DUP1 SLOAD PUSH1 0xFF NOT AND PUSH1 0x1 DUP4 PUSH1 0x4 DUP2 GT ISZERO PUSH2 0x1D1A JUMPI PUSH2 0x1D1A PUSH2 0x5D98 JUMP JUMPDEST MUL OR SWAP1 SSTORE POP PUSH1 0xC0 DUP3 ADD MLOAD PUSH1 0x5 DUP3 ADD DUP1 SLOAD PUSH1 0xE0 DUP6 ADD MLOAD PUSH2 0x100 DUP1 DUP8 ADD MLOAD PUSH1 0x1 PUSH1 0x1 PUSH1 0xA0 SHL SUB AND PUSH4 0x1000000 MUL PUSH23 0xFFFFFFFFFFFFFFFFFFFFFFFFFFFFFFFFFFFFFFFF000000 NOT SWAP3 ISZERO ISZERO PUSH3 0x10000 MUL PUSH3 0xFF0000 NOT SWAP7 ISZERO ISZERO SWAP1 SWAP3 MUL SWAP6 SWAP1 SWAP6 AND PUSH3 0xFFFF00 NOT SWAP1 SWAP4 AND SWAP3 SWAP1 SWAP3 OR SWAP2 SWAP1 SWAP2 OR AND SWAP2 SWAP1 SWAP2 OR SWAP1 SSTORE PUSH2 0x120 DUP3 ADD MLOAD PUSH1 0x6 DUP3 ADD SSTORE PUSH2 0x140 DUP3 ADD MLOAD PUSH1 0x7 DUP3 ADD SSTORE PUSH2 0x160 DUP3 ADD MLOAD PUSH1 0x8 DUP3 ADD SSTORE PUSH2 0x180 DUP3 ADD MLOAD PUSH1 0x9 DUP3 ADD SWAP1 PUSH2 0x1DC2 SWAP1 DUP3 PUSH2 0x62F3 JUMP JUMPDEST POP PUSH2 0x1A0 DUP3 ADD MLOAD PUSH1 0xA DUP3 ADD SWAP1 PUSH2 0x1DD8 SWAP1 DUP3 PUSH2 0x62F3 JUMP JUMPDEST POP PUSH2 0x1C0 DUP3 ADD MLOAD PUSH1 0xB DUP3 ADD SSTORE PUSH2 0x1E0 SWAP1 SWAP2 ADD MLOAD PUSH1 0xC SWAP1 SWAP2 ADD DUP1 SLOAD PUSH1 0xFF NOT AND SWAP2 ISZERO ISZERO SWAP2 SWAP1 SWAP2 OR SWAP1 SSTORE POP SWAP1 SWAP8 SWAP7 POP POP POP POP POP POP POP JUMP JUMPDEST PUSH1 0x32 SLOAD PUSH1 0x0 SWAP1 PUSH1 0x1 PUSH1 0x1 PUSH1 0xA0 SHL SUB AND CALLER EQ DUP1 PUSH2 0x1E40 JUMPI POP PUSH2 0x1E2B PUSH2 0x2865 JUMP JUMPDEST PUSH1 0x1 PUSH1 0x1 PUSH1 0xA0 SHL SUB AND CALLER PUSH1 0x1 PUSH1 0x1 PUSH1 0xA0 SHL SUB AND EQ JUMPDEST PUSH2 0x1E5C JUMPI PUSH1 0x40 MLOAD PUSH3 0x461BCD PUSH1 0xE5 SHL DUP2 MSTORE PUSH1 0x4 ADD PUSH2 0xAB3 SWAP1 PUSH2 0x6171 JUMP JUMPDEST PUSH2 0x1E65 DUP4 PUSH2 0x496C JUMP JUMPDEST PUSH2 0x1EA5 JUMPI PUSH1 0x40 MLOAD PUSH3 0x461BCD PUSH1 0xE5 SHL DUP2 MSTORE PUSH1 0x20 PUSH1 0x4 DUP3 ADD MSTORE PUSH1 0x11 PUSH1 0x24 DUP3 ADD MSTORE PUSH17 0x4F7261636C65206E6F7420616374697665 PUSH1 0x78 SHL PUSH1 0x44 DUP3 ADD MSTORE PUSH1 0x64 ADD PUSH2 0xAB3 JUMP JUMPDEST PUSH1 0x4E DUP1 SLOAD SWAP1 PUSH1 0x0 PUSH2 0x1EB5 DUP4 PUSH2 0x6293 JUMP JUMPDEST SWAP2 SWAP1 POP SSTORE SWAP1 POP PUSH1 0x40 MLOAD DUP1 PUSH1 0xE0 ADD PUSH1 0x40 MSTORE DUP1 DUP3 DUP2 MSTORE PUSH1 0x20 ADD DUP4 PUSH1 0x1 PUSH1 0x1 PUSH1 0xA0 SHL SUB AND DUP2 MSTORE PUSH1 0x20 ADD DUP6 DUP2 MSTORE PUSH1 0x20 ADD DUP5 DUP2 MSTORE PUSH1 0x20 ADD PUSH1 0x0 PUSH1 0x2 DUP2 GT ISZERO PUSH2 0x1EFA JUMPI PUSH2 0x1EFA PUSH2 0x5D98 JUMP JUMPDEST DUP2 MSTORE TIMESTAMP PUSH1 0x20 DUP1 DUP4 ADD SWAP2 SWAP1 SWAP2 MSTORE PUSH1 0x0 PUSH1 0x40 SWAP3 DUP4 ADD DUP2 SWAP1 MSTORE DUP5 DUP2 MSTORE PUSH1 0x4D DUP3 MSTORE DUP3 SWAP1 KECCAK256 DUP4 MLOAD DUP2 SSTORE SWAP1 DUP4 ADD MLOAD PUSH1 0x1 DUP3 ADD DUP1 SLOAD PUSH1 0x1 PUSH1 0x1 PUSH1 0xA0 SHL SUB NOT AND PUSH1 0x1 PUSH1 0x1 PUSH1 0xA0 SHL SUB SWAP1 SWAP3 AND SWAP2 SWAP1 SWAP2 OR SWAP1 SSTORE SWAP1 DUP3 ADD MLOAD PUSH1 0x2 DUP3 ADD SWAP1 PUSH2 0x1F56 SWAP1 DUP3 PUSH2 0x62F3 JUMP JUMPDEST POP PUSH1 0x60 DUP3 ADD MLOAD PUSH1 0x3 DUP3 ADD SWAP1 PUSH2 0x1F6B SWAP1 DUP3 PUSH2 0x62F3 JUMP JUMPDEST POP PUSH1 0x80 DUP3 ADD MLOAD PUSH1 0x4 DUP3 ADD DUP1 SLOAD PUSH1 0xFF NOT AND PUSH1 0x1 DUP4 PUSH1 0x2 DUP2 GT ISZERO PUSH2 0x1F8F JUMPI PUSH2 0x1F8F PUSH2 0x5D98 JUMP JUMPDEST MUL OR SWAP1 SSTORE POP PUSH1 0xA0 DUP3 ADD MLOAD PUSH1 0x5 DUP3 ADD SSTORE PUSH1 0xC0 SWAP1 SWAP2 ADD MLOAD PUSH1 0x6 SWAP1 SWAP2 ADD SSTORE SWAP4 SWAP3 POP POP POP JUMP JUMPDEST PUSH1 0x0 PUSH2 0x1FBB PUSH2 0x4DB0 JUMP JUMPDEST POP PUSH32 0x360894A13BA1A3210667C828492DB98DCA3E2076CC3735A920A3CA505D382BBC SWAP1 JUMP JUMPDEST PUSH1 0x0 DUP3 DUP2 MSTORE PUSH1 0x46 PUSH1 0x20 MSTORE PUSH1 0x40 DUP2 KECCAK256 DUP1 SLOAD ISZERO DUP1 PUSH2 0x2039 JUMPI POP PUSH1 0x1 PUSH1 0x5 DUP3 ADD SLOAD PUSH1 0xFF AND PUSH1 0x2 DUP2 GT ISZERO PUSH2 0x2012 JUMPI PUSH2 0x2012 PUSH2 0x5D98 JUMP JUMPDEST EQ ISZERO DUP1 ISZERO PUSH2 0x2039 JUMPI POP PUSH1 0x2 PUSH1 0x5 DUP3 ADD SLOAD PUSH1 0xFF AND PUSH1 0x2 DUP2 GT ISZERO PUSH2 0x2036 JUMPI PUSH2 0x2036 PUSH2 0x5D98 JUMP JUMPDEST EQ ISZERO JUMPDEST DUP1 PUSH2 0x2067 JUMPI POP PUSH1 0x0 DUP5 DUP2 MSTORE PUSH1 0x48 PUSH1 0x20 SWAP1 DUP2 MSTORE PUSH1 0x40 DUP1 DUP4 KECCAK256 PUSH1 0x1 PUSH1 0x1 PUSH1 0xA0 SHL SUB DUP8 AND DUP5 MSTORE SWAP1 SWAP2 MSTORE SWAP1 KECCAK256 SLOAD PUSH1 0xFF AND ISZERO JUMPDEST ISZERO PUSH2 0x2076 JUMPI PUSH1 0x0 SWAP2 POP POP PUSH2 0x1256 JUMP JUMPDEST PUSH1 0x0 PUSH1 0x1 PUSH1 0x5 DUP4 ADD SLOAD PUSH1 0xFF AND PUSH1 0x2 DUP2 GT ISZERO PUSH2 0x2093 JUMPI PUSH2 0x2093 PUSH2 0x5D98 JUMP JUMPDEST PUSH1 0x0 DUP8 DUP2 MSTORE PUSH1 0x49 PUSH1 0x20 SWAP1 DUP2 MSTORE PUSH1 0x40 DUP1 DUP4 KECCAK256 PUSH1 0x1 PUSH1 0x1 PUSH1 0xA0 SHL SUB DUP11 AND DUP5 MSTORE SWAP1 SWAP2 MSTORE SWAP1 KECCAK256 SLOAD PUSH1 0xFF AND ISZERO ISZERO SWAP2 EQ EQ SWAP1 POP DUP1 ISZERO PUSH2 0x124F JUMPI PUSH1 0x0 DUP6 DUP2 MSTORE PUSH1 0x4B PUSH1 0x20 SWAP1 DUP2 MSTORE PUSH1 0x40 DUP1 DUP4 KECCAK256 SLOAD PUSH1 0x4A SWAP1 SWAP3 MSTORE DUP3 KECCAK256 SLOAD PUSH2 0x20EA SWAP2 SWAP1 PUSH2 0x61ED JUMP JUMPDEST SWAP1 POP DUP1 ISZERO PUSH2 0x124D JUMPI PUSH1 0x38 SLOAD PUSH2 0x1243 SWAP1 DUP3 SWAP1 PUSH2 0x6200 JUMP JUMPDEST PUSH2 0x2108 PUSH2 0x486D JUMP JUMPDEST PUSH2 0x2112 PUSH1 0x0 PUSH2 0x4DF9 JUMP JUMPDEST JUMP JUMPDEST PUSH1 0x32 SLOAD PUSH1 0x0 SWAP1 PUSH1 0x1 PUSH1 0x1 PUSH1 0xA0 SHL SUB AND CALLER EQ PUSH2 0x2141 JUMPI PUSH1 0x40 MLOAD PUSH3 0x461BCD PUSH1 0xE5 SHL DUP2 MSTORE PUSH1 0x4 ADD PUSH2 0xAB3 SWAP1 PUSH2 0x6222 JUMP JUMPDEST PUSH1 0x0 DUP4 DUP2 MSTORE PUSH1 0x3D PUSH1 0x20 MSTORE PUSH1 0x40 DUP2 KECCAK256 DUP1 SLOAD SWAP1 SWAP2 SUB PUSH2 0x2199 JUMPI PUSH1 0x40 MLOAD PUSH3 0x461BCD PUSH1 0xE5 SHL DUP2 MSTORE PUSH1 0x20 PUSH1 0x4 DUP3 ADD MSTORE PUSH1 0x16 PUSH1 0x24 DUP3 ADD MSTORE PUSH22 0x111A5CDC1D5D1948191BD95CC81B9BDD08195E1A5CDD PUSH1 0x52 SHL PUSH1 0x44 DUP3 ADD MSTORE PUSH1 0x64 ADD PUSH2 0xAB3 JUMP JUMPDEST PUSH1 0x3 PUSH1 0x5 DUP3 ADD SLOAD PUSH1 0xFF AND PUSH1 0x4 DUP2 GT ISZERO PUSH2 0x21B4 JUMPI PUSH2 0x21B4 PUSH2 0x5D98 JUMP JUMPDEST SUB PUSH2 0x21FC JUMPI PUSH1 0x40 MLOAD PUSH3 0x461BCD PUSH1 0xE5 SHL DUP2 MSTORE PUSH1 0x20 PUSH1 0x4 DUP3 ADD MSTORE PUSH1 0x18 PUSH1 0x24 DUP3 ADD MSTORE PUSH24 0x111A5CDC1D5D1948185B1C9958591E481C995CDBDB1D9959 PUSH1 0x42 SHL PUSH1 0x44 DUP3 ADD MSTORE PUSH1 0x64 ADD PUSH2 0xAB3 JUMP JUMPDEST PUSH1 0x4 PUSH1 0x5 DUP3 ADD SLOAD PUSH1 0xFF AND PUSH1 0x4 DUP2 GT ISZERO PUSH2 0x2217 JUMPI PUSH2 0x2217 PUSH2 0x5D98 JUMP JUMPDEST SUB PUSH2 0x2264 JUMPI PUSH1 0x40 MLOAD PUSH3 0x461BCD PUSH1 0xE5 SHL DUP2 MSTORE PUSH1 0x20 PUSH1 0x4 DUP3 ADD MSTORE PUSH1 0x19 PUSH1 0x24 DUP3 ADD MSTORE PUSH32 0x4469737075746520616C726561647920657363616C6174656400000000000000 PUSH1 0x44 DUP3 ADD MSTORE PUSH1 0x64 ADD PUSH2 0xAB3 JUMP JUMPDEST PUSH1 0x2 DUP2 ADD SLOAD PUSH1 0x1 PUSH1 0x1 PUSH1 0xA0 SHL SUB DUP5 DUP2 AND SWAP2 AND EQ DUP1 PUSH2 0x2291 JUMPI POP PUSH1 0x3 DUP2 ADD SLOAD PUSH1 0x1 PUSH1 0x1 PUSH1 0xA0 SHL SUB DUP5 DUP2 AND SWAP2 AND EQ JUMPDEST PUSH2 0x22CE JUMPI PUSH1 0x40 MLOAD PUSH3 0x461BCD PUSH1 0xE5 SHL DUP2 MSTORE PUSH1 0x20 PUSH1 0x4 DUP3 ADD MSTORE PUSH1 0xE PUSH1 0x24 DUP3 ADD MSTORE PUSH14 0x139BDD08185D5D1A1BDC9A5E9959 PUSH1 0x92 SHL PUSH1 0x44 DUP3 ADD MSTORE PUSH1 0x64 ADD PUSH2 0xAB3 JUMP JUMPDEST PUSH1 0x5 DUP2 ADD DUP1 SLOAD PUSH1 0xFF NOT AND PUSH1 0x4 SWAP1 DUP2 OR SWAP1 SWAP2 SSTORE PUSH1 0x40 MLOAD DUP6 SWAP2 PUSH32 0x7D55143B13D8FEFDB3A1F27AEA953A5E54365F38A17D57A8CED97B3AFAA6D7E SWAP2 PUSH2 0x2311 SWAP2 SWAP1 PUSH2 0x6402 JUMP JUMPDEST PUSH1 0x40 MLOAD DUP1 SWAP2 SUB SWAP1 LOG2 POP PUSH1 0x1 SWAP4 SWAP3 POP POP POP JUMP JUMPDEST PUSH1 0x32 SLOAD PUSH1 0x0 SWAP1 PUSH1 0x1 PUSH1 0x1 PUSH1 0xA0 SHL SUB AND CALLER EQ PUSH2 0x2350 JUMPI PUSH1 0x40 MLOAD PUSH3 0x461BCD PUSH1 0xE5 SHL DUP2 MSTORE PUSH1 0x4 ADD PUSH2 0xAB3 SWAP1 PUSH2 0x6222 JUMP JUMPDEST PUSH1 0x0 DUP5 DUP2 MSTORE PUSH1 0x3D PUSH1 0x20 MSTORE PUSH1 0x40 DUP2 KECCAK256 DUP1 SLOAD SWAP1 SWAP2 SUB PUSH2 0x23A8 JUMPI PUSH1 0x40 MLOAD PUSH3 0x461BCD PUSH1 0xE5 SHL DUP2 MSTORE PUSH1 0x20 PUSH1 0x4 DUP3 ADD MSTORE PUSH1 0x16 PUSH1 0x24 DUP3 ADD MSTORE PUSH22 0x111A5CDC1D5D1948191BD95CC81B9BDD08195E1A5CDD PUSH1 0x52 SHL PUSH1 0x44 DUP3 ADD MSTORE PUSH1 0x64 ADD PUSH2 0xAB3 JUMP JUMPDEST PUSH1 0x5 DUP2 ADD SLOAD PUSH2 0x100 SWAP1 DIV PUSH1 0xFF AND ISZERO PUSH2 0x2402 JUMPI PUSH1 0x40 MLOAD PUSH3 0x461BCD PUSH1 0xE5 SHL DUP2 MSTORE PUSH1 0x20 PUSH1 0x4 DUP3 ADD MSTORE PUSH1 0x19 PUSH1 0x24 DUP3 ADD MSTORE PUSH32 0x526573756C7420616C72656164792064657465726D696E656400000000000000 PUSH1 0x44 DUP3 ADD MSTORE PUSH1 0x64 ADD PUSH2 0xAB3 JUMP JUMPDEST PUSH1 0x2 DUP2 ADD SLOAD PUSH1 0x1 PUSH1 0x1 PUSH1 0xA0 SHL SUB DUP6 DUP2 AND SWAP2 AND EQ DUP1 PUSH2 0x242F JUMPI POP PUSH1 0x3 DUP2 ADD SLOAD PUSH1 0x1 PUSH1 0x1 PUSH1 0xA0 SHL SUB DUP6 DUP2 AND SWAP2 AND EQ JUMPDEST PUSH2 0x246F JUMPI PUSH1 0x40 MLOAD PUSH3 0x461BCD PUSH1 0xE5 SHL DUP2 MSTORE PUSH1 0x20 PUSH1 0x4 DUP3 ADD MSTORE PUSH1 0x11 PUSH1 0x24 DUP3 ADD MSTORE PUSH17 0x125B9D985B1A59081C9958DA5C1A595B9D PUSH1 0x7A SHL PUSH1 0x44 DUP3 ADD MSTORE PUSH1 0x64 ADD PUSH2 0xAB3 JUMP JUMPDEST PUSH1 0x0 PUSH2 0x2479 PUSH2 0x2865 JUMP JUMPDEST PUSH1 0x1 PUSH1 0x1 PUSH1 0xA0 SHL SUB AND DUP5 PUSH1 0x1 PUSH1 0x1 PUSH1 0xA0 SHL SUB AND SUB PUSH2 0x2499 JUMPI POP PUSH1 0x1 PUSH2 0x2518 JUMP JUMPDEST PUSH1 0x33 SLOAD PUSH1 0x1 PUSH1 0x1 PUSH1 0xA0 SHL SUB AND ISZERO PUSH2 0x2518 JUMPI PUSH1 0x33 SLOAD PUSH1 0x40 MLOAD PUSH4 0x4697B0EF PUSH1 0xE0 SHL DUP2 MSTORE PUSH1 0x1 PUSH1 0x1 PUSH1 0xA0 SHL SUB DUP7 DUP2 AND PUSH1 0x4 DUP4 ADD MSTORE SWAP1 SWAP2 AND SWAP1 PUSH4 0x4697B0EF SWAP1 PUSH1 0x24 ADD PUSH1 0x20 PUSH1 0x40 MLOAD DUP1 DUP4 SUB DUP2 DUP7 GAS STATICCALL SWAP3 POP POP POP DUP1 ISZERO PUSH2 0x2510 JUMPI POP PUSH1 0x40 DUP1 MLOAD PUSH1 0x1F RETURNDATASIZE SWAP1 DUP2 ADD PUSH1 0x1F NOT AND DUP3 ADD SWAP1 SWAP3 MSTORE PUSH2 0x250D SWAP2 DUP2 ADD SWAP1 PUSH2 0x6415 JUMP JUMPDEST PUSH1 0x1 JUMPDEST ISZERO PUSH2 0x2518 JUMPI SWAP1 POP JUMPDEST DUP1 PUSH2 0x2565 JUMPI PUSH1 0x40 MLOAD PUSH3 0x461BCD PUSH1 0xE5 SHL DUP2 MSTORE PUSH1 0x20 PUSH1 0x4 DUP3 ADD MSTORE PUSH1 0x19 PUSH1 0x24 DUP3 ADD MSTORE PUSH32 0x4E6F7420617574686F72697A656420746F207265736F6C766500000000000000 PUSH1 0x44 DUP3 ADD MSTORE PUSH1 0x64 ADD PUSH2 0xAB3 JUMP JUMPDEST PUSH1 0x5 DUP3 ADD DUP1 SLOAD PUSH1 0x3 PUSH1 0x1 PUSH1 0x1 PUSH1 0xA0 SHL SUB DUP9 AND PUSH4 0x1000000 MUL PUSH23 0xFFFFFFFFFFFFFFFFFFFFFFFFFFFFFFFFFFFFFFFF00FF00 NOT SWAP1 SWAP3 AND SWAP2 SWAP1 SWAP2 OR PUSH2 0x100 OR PUSH1 0xFF NOT AND DUP2 OR SWAP1 SWAP2 SSTORE TIMESTAMP PUSH1 0x8 DUP5 ADD SSTORE PUSH1 0x40 MLOAD DUP8 SWAP2 PUSH32 0x7D55143B13D8FEFDB3A1F27AEA953A5E54365F38A17D57A8CED97B3AFAA6D7E SWAP2 PUSH2 0x25E1 SWAP2 SWAP1 PUSH2 0x6402 JUMP JUMPDEST PUSH1 0x40 MLOAD DUP1 SWAP2 SUB SWAP1 LOG2 POP PUSH1 0x1 SWAP6 SWAP5 POP POP POP POP POP JUMP JUMPDEST PUSH1 0x32 SLOAD PUSH1 0x0 SWAP1 PUSH1 0x1 PUSH1 0x1 PUSH1 0xA0 SHL SUB AND CALLER EQ DUP1 PUSH2 0x2629 JUMPI POP PUSH2 0x2614 PUSH2 0x2865 JUMP JUMPDEST PUSH1 0x1 PUSH1 0x1 PUSH1 0xA0 SHL SUB AND CALLER PUSH1 0x1 PUSH1 0x1 PUSH1 0xA0 SHL SUB AND EQ JUMPDEST PUSH2 0x2645 JUMPI PUSH1 0x40 MLOAD PUSH3 0x461BCD PUSH1 0xE5 SHL DUP2 MSTORE PUSH1 0x4 ADD PUSH2 0xAB3 SWAP1 PUSH2 0x6171 JUMP JUMPDEST PUSH2 0x264E DUP4 PUSH2 0x496C JUMP JUMPDEST PUSH2 0x2691 JUMPI PUSH1 0x40 MLOAD PUSH3 0x461BCD PUSH1 0xE5 SHL DUP2 MSTORE PUSH1 0x20 PUSH1 0x4 DUP3 ADD MSTORE PUSH1 0x14 PUSH1 0x24 DUP3 ADD MSTORE PUSH20 0x4F7261636C65206973206E6F7420616374697665 PUSH1 0x60 SHL PUSH1 0x44 DUP3 ADD MSTORE PUSH1 0x64 ADD PUSH2 0xAB3 JUMP JUMPDEST PUSH1 0x37 SLOAD DUP3 LT ISZERO PUSH2 0x26D6 JUMPI PUSH1 0x40 MLOAD PUSH3 0x461BCD PUSH1 0xE5 SHL DUP2 MSTORE PUSH1 0x20 PUSH1 0x4 DUP3 ADD MSTORE PUSH1 0x10 PUSH1 0x24 DUP3 ADD MSTORE PUSH16 0x496E73756666696369656E7420666565 PUSH1 0x80 SHL PUSH1 0x44 DUP3 ADD MSTORE PUSH1 0x64 ADD PUSH2 0xAB3 JUMP JUMPDEST PUSH1 0x0 DUP5 MLOAD GT PUSH2 0x271C JUMPI PUSH1 0x40 MLOAD PUSH3 0x461BCD PUSH1 0xE5 SHL DUP2 MSTORE PUSH1 0x20 PUSH1 0x4 DUP3 ADD MSTORE PUSH1 0x12 PUSH1 0x24 DUP3 ADD MSTORE PUSH18 0x8ADAE0E8F240C8D2E6E0EAE8CA40D0C2E6D PUSH1 0x73 SHL PUSH1 0x44 DUP3 ADD MSTORE PUSH1 0x64 ADD PUSH2 0xAB3 JUMP JUMPDEST PUSH1 0x1 PUSH1 0x1 PUSH1 0xA0 SHL SUB DUP7 AND PUSH2 0x2772 JUMPI PUSH1 0x40 MLOAD PUSH3 0x461BCD PUSH1 0xE5 SHL DUP2 MSTORE PUSH1 0x20 PUSH1 0x4 DUP3 ADD MSTORE PUSH1 0x14 PUSH1 0x24 DUP3 ADD MSTORE PUSH32 0x496E76616C696420757365722061646472657373000000000000000000000000 PUSH1 0x44 DUP3 ADD MSTORE PUSH1 0x64 ADD PUSH2 0xAB3 JUMP JUMPDEST PUSH2 0x2781 DUP6 DUP6 DUP6 DUP10 PUSH1 0x0 DUP8 PUSH2 0x199C JUMP JUMPDEST SWAP7 SWAP6 POP POP POP POP POP POP JUMP JUMPDEST PUSH1 0x1 PUSH1 0x1 PUSH1 0xA0 SHL SUB DUP3 AND PUSH1 0x0 SWAP1 DUP2 MSTORE PUSH1 0x44 PUSH1 0x20 MSTORE PUSH1 0x40 DUP1 DUP3 KECCAK256 SWAP1 MLOAD DUP3 SWAP2 SWAP1 PUSH2 0x27B4 SWAP1 DUP6 SWAP1 PUSH2 0x61A8 JUMP JUMPDEST SWAP1 DUP2 MSTORE PUSH1 0x40 MLOAD SWAP1 DUP2 SWAP1 SUB PUSH1 0x20 ADD SWAP1 KECCAK256 SLOAD PUSH1 0xFF AND SWAP1 POP DUP1 ISZERO DUP1 ISZERO PUSH2 0x27E1 JUMPI POP PUSH1 0x36 SLOAD PUSH1 0x1 PUSH1 0x1 PUSH1 0xA0 SHL SUB AND ISZERO ISZERO JUMPDEST ISZERO PUSH2 0x1995 JUMPI PUSH1 0x36 SLOAD PUSH1 0x40 MLOAD PUSH4 0x76A97755 PUSH1 0xE0 SHL DUP2 MSTORE PUSH1 0x1 PUSH1 0x1 PUSH1 0xA0 SHL SUB SWAP1 SWAP2 AND SWAP1 PUSH4 0x76A97755 SWAP1 PUSH2 0x2818 SWAP1 DUP8 SWAP1 DUP8 SWAP1 PUSH1 0x4 ADD PUSH2 0x6462 JUMP JUMPDEST PUSH1 0x20 PUSH1 0x40 MLOAD DUP1 DUP4 SUB DUP2 DUP7 GAS STATICCALL SWAP3 POP POP POP DUP1 ISZERO PUSH2 0x2851 JUMPI POP PUSH1 0x40 DUP1 MLOAD PUSH1 0x1F RETURNDATASIZE SWAP1 DUP2 ADD PUSH1 0x1F NOT AND DUP3 ADD SWAP1 SWAP3 MSTORE PUSH2 0x284E SWAP2 DUP2 ADD SWAP1 PUSH2 0x6415 JUMP JUMPDEST PUSH1 0x1 JUMPDEST PUSH2 0x285C JUMPI SWAP1 POP PUSH2 0x1256 JUMP JUMPDEST SWAP2 POP PUSH2 0x1256 SWAP1 POP JUMP JUMPDEST PUSH32 0x9016D09D72D40FDAE2FD8CEAC6B6234C7706214FD39C1CD1E609A0528C199300 SLOAD PUSH1 0x1 PUSH1 0x1 PUSH1 0xA0 SHL SUB AND SWAP1 JUMP JUMPDEST PUSH1 0x0 DUP3 DUP2 MSTORE PUSH1 0x3D PUSH1 0x20 MSTORE PUSH1 0x40 DUP2 KECCAK256 DUP1 SLOAD ISZERO DUP1 PUSH2 0x28B9 JUMPI POP PUSH1 0x5 DUP2 ADD SLOAD PUSH2 0x100 SWAP1 DIV PUSH1 0xFF AND ISZERO JUMPDEST DUP1 PUSH2 0x28D4 JUMPI POP PUSH1 0x2 DUP2 ADD SLOAD PUSH1 0x1 PUSH1 0x1 PUSH1 0xA0 SHL SUB DUP5 DUP2 AND SWAP2 AND EQ ISZERO JUMPDEST ISZERO PUSH2 0x28E3 JUMPI PUSH1 0x0 SWAP2 POP POP PUSH2 0x1256 JUMP JUMPDEST PUSH1 0x2 DUP2 ADD SLOAD PUSH1 0x5 DUP3 ADD SLOAD PUSH1 0x1 PUSH1 0x1 PUSH1 0xA0 SHL SUB SWAP2 DUP3 AND PUSH4 0x1000000 SWAP1 SWAP2 DIV SWAP1 SWAP2 AND SUB PUSH2 0x2912 JUMPI POP POP PUSH1 0x37 SLOAD PUSH2 0x1256 JUMP JUMPDEST POP PUSH1 0x0 SWAP4 SWAP3 POP POP POP JUMP JUMPDEST PUSH1 0x32 SLOAD PUSH1 0x0 SWAP1 PUSH1 0x1 PUSH1 0x1 PUSH1 0xA0 SHL SUB AND CALLER EQ DUP1 PUSH2 0x2950 JUMPI POP PUSH2 0x293B PUSH2 0x2865 JUMP JUMPDEST PUSH1 0x1 PUSH1 0x1 PUSH1 0xA0 SHL SUB AND CALLER PUSH1 0x1 PUSH1 0x1 PUSH1 0xA0 SHL SUB AND EQ JUMPDEST PUSH2 0x296C JUMPI PUSH1 0x40 MLOAD PUSH3 0x461BCD PUSH1 0xE5 SHL DUP2 MSTORE PUSH1 0x4 ADD PUSH2 0xAB3 SWAP1 PUSH2 0x6171 JUMP JUMPDEST PUSH2 0x2975 DUP4 PUSH2 0x496C JUMP JUMPDEST PUSH2 0x29B5 JUMPI PUSH1 0x40 MLOAD PUSH3 0x461BCD PUSH1 0xE5 SHL DUP2 MSTORE PUSH1 0x20 PUSH1 0x4 DUP3 ADD MSTORE PUSH1 0x11 PUSH1 0x24 DUP3 ADD MSTORE PUSH17 0x4F7261636C65206E6F7420616374697665 PUSH1 0x78 SHL PUSH1 0x44 DUP3 ADD MSTORE PUSH1 0x64 ADD PUSH2 0xAB3 JUMP JUMPDEST PUSH1 0x0 DUP6 MLOAD GT PUSH2 0x29F7 JUMPI PUSH1 0x40 MLOAD PUSH3 0x461BCD PUSH1 0xE5 SHL DUP2 MSTORE PUSH1 0x20 PUSH1 0x4 DUP3 ADD MSTORE PUSH1 0xE PUSH1 0x24 DUP3 ADD MSTORE PUSH14 0x22B6B83A3C9038BAB2B9BA34B7B7 PUSH1 0x91 SHL PUSH1 0x44 DUP3 ADD MSTORE PUSH1 0x64 ADD PUSH2 0xAB3 JUMP JUMPDEST PUSH1 0x39 SLOAD DUP3 LT ISZERO PUSH2 0x2A3C JUMPI PUSH1 0x40 MLOAD PUSH3 0x461BCD PUSH1 0xE5 SHL DUP2 MSTORE PUSH1 0x20 PUSH1 0x4 DUP3 ADD MSTORE PUSH1 0x10 PUSH1 0x24 DUP3 ADD MSTORE PUSH16 0x496E73756666696369656E7420666565 PUSH1 0x80 SHL PUSH1 0x44 DUP3 ADD MSTORE PUSH1 0x64 ADD PUSH2 0xAB3 JUMP JUMPDEST PUSH2 0x2781 DUP6 DUP5 DUP9 PUSH2 0x1E0C JUMP JUMPDEST PUSH1 0x0 DUP3 DUP2 MSTORE PUSH1 0x3D PUSH1 0x20 MSTORE PUSH1 0x40 DUP2 KECCAK256 DUP1 SLOAD ISZERO DUP1 PUSH2 0x2A6D JUMPI POP PUSH1 0x5 DUP2 ADD SLOAD PUSH2 0x100 SWAP1 DIV PUSH1 0xFF AND ISZERO JUMPDEST DUP1 PUSH2 0x2A9B JUMPI POP PUSH1 0x0 DUP5 DUP2 MSTORE PUSH1 0x3F PUSH1 0x20 SWAP1 DUP2 MSTORE PUSH1 0x40 DUP1 DUP4 KECCAK256 PUSH1 0x1 PUSH1 0x1 PUSH1 0xA0 SHL SUB DUP8 AND DUP5 MSTORE SWAP1 SWAP2 MSTORE SWAP1 KECCAK256 SLOAD PUSH1 0xFF AND ISZERO JUMPDEST ISZERO PUSH2 0x2AAA JUMPI PUSH1 0x0 SWAP2 POP POP PUSH2 0x1256 JUMP JUMPDEST PUSH1 0x2 DUP2 ADD SLOAD PUSH1 0x5 DUP3 ADD SLOAD PUSH1 0x0 DUP7 DUP2 MSTORE PUSH1 0x40 PUSH1 0x20 DUP2 DUP2 MSTORE DUP2 DUP4 KECCAK256 PUSH1 0x1 PUSH1 0x1 PUSH1 0xA0 SHL SUB DUP10 DUP2 AND DUP6 MSTORE SWAP2 MSTORE SWAP2 KECCAK256 SLOAD SWAP3 DUP2 AND PUSH4 0x1000000 SWAP1 SWAP3 DIV AND EQ PUSH1 0xFF SWAP1 SWAP2 AND ISZERO ISZERO EQ DUP1 ISZERO PUSH2 0x124F JUMPI PUSH1 0x0 DUP6 DUP2 MSTORE PUSH1 0x42 PUSH1 0x20 SWAP1 DUP2 MSTORE PUSH1 0x40 DUP1 DUP4 KECCAK256 SLOAD PUSH1 0x41 SWAP1 SWAP3 MSTORE DUP3 KECCAK256 SLOAD PUSH2 0x2B14 SWAP2 SWAP1 PUSH2 0x61ED JUMP JUMPDEST SWAP1 POP DUP1 ISZERO PUSH2 0x124D JUMPI PUSH1 0x33 SLOAD PUSH1 0x1 SWAP1 PUSH1 0x1 PUSH1 0x1 PUSH1 0xA0 SHL SUB AND ISZERO PUSH2 0x2BA7 JUMPI PUSH1 0x33 SLOAD PUSH1 0x40 MLOAD PUSH4 0x5DA6A21B PUSH1 0xE1 SHL DUP2 MSTORE PUSH1 0x1 PUSH1 0x1 PUSH1 0xA0 SHL SUB DUP9 DUP2 AND PUSH1 0x4 DUP4 ADD MSTORE SWAP1 SWAP2 AND SWAP1 PUSH4 0xBB4D4436 SWAP1 PUSH1 0x24 ADD PUSH1 0x20 PUSH1 0x40 MLOAD DUP1 DUP4 SUB DUP2 DUP7 GAS STATICCALL SWAP3 POP POP POP DUP1 ISZERO PUSH2 0x2B96 JUMPI POP PUSH1 0x40 DUP1 MLOAD PUSH1 0x1F RETURNDATASIZE SWAP1 DUP2 ADD PUSH1 0x1F NOT AND DUP3 ADD SWAP1 SWAP3 MSTORE PUSH2 0x2B93 SWAP2 DUP2 ADD SWAP1 PUSH2 0x6432 JUMP JUMPDEST PUSH1 0x1 JUMPDEST ISZERO PUSH2 0x2BA7 JUMPI DUP1 ISZERO PUSH2 0x2BA5 JUMPI DUP1 SWAP2 POP JUMPDEST POP JUMPDEST PUSH1 0x37 SLOAD DUP3 SWAP1 PUSH2 0x2BB7 SWAP1 DUP4 SWAP1 PUSH2 0x644B JUMP JUMPDEST PUSH2 0x2BC1 SWAP2 SWAP1 PUSH2 0x6200 JUMP JUMPDEST SWAP5 POP POP POP POP POP PUSH2 0x1256 JUMP JUMPDEST PUSH2 0x2BD4 PUSH2 0x486D JUMP JUMPDEST PUSH1 0x37 DUP1 SLOAD SWAP1 DUP3 SWAP1 SSTORE PUSH1 0x40 DUP1 MLOAD PUSH1 0x60 DUP1 DUP3 MSTORE PUSH1 0xA SWAP1 DUP3 ADD MSTORE PUSH10 0x44697370757465466565 PUSH1 0xB0 SHL PUSH1 0x80 DUP3 ADD MSTORE PUSH1 0x20 DUP2 ADD DUP4 SWAP1 MSTORE SWAP1 DUP2 ADD DUP4 SWAP1 MSTORE PUSH1 0x0 DUP1 MLOAD PUSH1 0x20 PUSH2 0x68DD DUP4 CODECOPY DUP2 MLOAD SWAP2 MSTORE SWAP1 PUSH1 0xA0 ADD PUSH2 0xA57 JUMP JUMPDEST PUSH2 0x2C2B PUSH2 0x56AF JUMP JUMPDEST PUSH1 0x0 DUP3 DUP2 MSTORE PUSH1 0x4D PUSH1 0x20 SWAP1 DUP2 MSTORE PUSH1 0x40 DUP1 DUP4 KECCAK256 PUSH1 0x51 DUP4 MSTORE DUP2 DUP5 KECCAK256 SLOAD PUSH1 0x52 DUP5 MSTORE DUP3 DUP6 KECCAK256 SLOAD DUP4 MLOAD PUSH1 0xE0 DUP2 ADD DUP6 MSTORE DUP4 SLOAD DUP2 MSTORE PUSH1 0x1 DUP5 ADD SLOAD PUSH1 0x1 PUSH1 0x1 PUSH1 0xA0 SHL SUB AND SWAP6 DUP2 ADD SWAP6 SWAP1 SWAP6 MSTORE PUSH1 0x2 DUP4 ADD DUP1 SLOAD DUP8 SWAP7 SWAP5 SWAP6 SWAP4 SWAP5 SWAP3 SWAP4 DUP7 SWAP3 SWAP1 DUP5 ADD SWAP2 PUSH2 0x2C8A SWAP1 PUSH2 0x6259 JUMP JUMPDEST DUP1 PUSH1 0x1F ADD PUSH1 0x20 DUP1 SWAP2 DIV MUL PUSH1 0x20 ADD PUSH1 0x40 MLOAD SWAP1 DUP2 ADD PUSH1 0x40 MSTORE DUP1 SWAP3 SWAP2 SWAP1 DUP2 DUP2 MSTORE PUSH1 0x20 ADD DUP3 DUP1 SLOAD PUSH2 0x2CB6 SWAP1 PUSH2 0x6259 JUMP JUMPDEST DUP1 ISZERO PUSH2 0x2D03 JUMPI DUP1 PUSH1 0x1F LT PUSH2 0x2CD8 JUMPI PUSH2 0x100 DUP1 DUP4 SLOAD DIV MUL DUP4 MSTORE SWAP2 PUSH1 0x20 ADD SWAP2 PUSH2 0x2D03 JUMP JUMPDEST DUP3 ADD SWAP2 SWAP1 PUSH1 0x0 MSTORE PUSH1 0x20 PUSH1 0x0 KECCAK256 SWAP1 JUMPDEST DUP2 SLOAD DUP2 MSTORE SWAP1 PUSH1 0x1 ADD SWAP1 PUSH1 0x20 ADD DUP1 DUP4 GT PUSH2 0x2CE6 JUMPI DUP3 SWAP1 SUB PUSH1 0x1F AND DUP3 ADD SWAP2 JUMPDEST POP POP POP POP POP DUP2 MSTORE PUSH1 0x20 ADD PUSH1 0x3 DUP3 ADD DUP1 SLOAD PUSH2 0x2D1C SWAP1 PUSH2 0x6259 JUMP JUMPDEST DUP1 PUSH1 0x1F ADD PUSH1 0x20 DUP1 SWAP2 DIV MUL PUSH1 0x20 ADD PUSH1 0x40 MLOAD SWAP1 DUP2 ADD PUSH1 0x40 MSTORE DUP1 SWAP3 SWAP2 SWAP1 DUP2 DUP2 MSTORE PUSH1 0x20 ADD DUP3 DUP1 SLOAD PUSH2 0x2D48 SWAP1 PUSH2 0x6259 JUMP JUMPDEST DUP1 ISZERO PUSH2 0x2D95 JUMPI DUP1 PUSH1 0x1F LT PUSH2 0x2D6A JUMPI PUSH2 0x100 DUP1 DUP4 SLOAD DIV MUL DUP4 MSTORE SWAP2 PUSH1 0x20 ADD SWAP2 PUSH2 0x2D95 JUMP JUMPDEST DUP3 ADD SWAP2 SWAP1 PUSH1 0x0 MSTORE PUSH1 0x20 PUSH1 0x0 KECCAK256 SWAP1 JUMPDEST DUP2 SLOAD DUP2 MSTORE SWAP1 PUSH1 0x1 ADD SWAP1 PUSH1 0x20 ADD DUP1 DUP4 GT PUSH2 0x2D78 JUMPI DUP3 SWAP1 SUB PUSH1 0x1F AND DUP3 ADD SWAP2 JUMPDEST POP POP POP SWAP2 DUP4 MSTORE POP POP PUSH1 0x4 DUP3 ADD SLOAD PUSH1 0x20 SWAP1 SWAP2 ADD SWAP1 PUSH1 0xFF AND PUSH1 0x2 DUP2 GT ISZERO PUSH2 0x2DBC JUMPI PUSH2 0x2DBC PUSH2 0x5D98 JUMP JUMPDEST PUSH1 0x2 DUP2 GT ISZERO PUSH2 0x2DCD JUMPI PUSH2 0x2DCD PUSH2 0x5D98 JUMP JUMPDEST DUP2 MSTORE PUSH1 0x5 DUP3 ADD SLOAD PUSH1 0x20 DUP3 ADD MSTORE PUSH1 0x6 SWAP1 SWAP2 ADD SLOAD PUSH1 0x40 SWAP1 SWAP2 ADD MSTORE SWAP8 SWAP2 SWAP7 POP SWAP5 POP SWAP3 POP POP POP JUMP JUMPDEST PUSH1 0x0 PUSH1 0x1 PUSH1 0x47 SLOAD PUSH2 0xC3E SWAP2 SWAP1 PUSH2 0x61DA JUMP JUMPDEST PUSH1 0x32 SLOAD PUSH1 0x0 SWAP1 PUSH1 0x1 PUSH1 0x1 PUSH1 0xA0 SHL SUB AND CALLER EQ PUSH2 0x2E2F JUMPI PUSH1 0x40 MLOAD PUSH3 0x461BCD PUSH1 0xE5 SHL DUP2 MSTORE PUSH1 0x4 ADD PUSH2 0xAB3 SWAP1 PUSH2 0x6222 JUMP JUMPDEST PUSH1 0x0 DUP6 DUP2 MSTORE PUSH1 0x46 PUSH1 0x20 MSTORE PUSH1 0x40 DUP2 KECCAK256 DUP1 SLOAD SWAP1 SWAP2 SUB PUSH2 0x2E8E JUMPI PUSH1 0x40 MLOAD PUSH3 0x461BCD PUSH1 0xE5 SHL DUP2 MSTORE PUSH1 0x20 PUSH1 0x4 DUP3 ADD MSTORE PUSH1 0x1A PUSH1 0x24 DUP3 ADD MSTORE PUSH32 0x4170706C69636174696F6E20646F6573206E6F74206578697374000000000000 PUSH1 0x44 DUP3 ADD MSTORE PUSH1 0x64 ADD PUSH2 0xAB3 JUMP JUMPDEST PUSH1 0x0 PUSH1 0x5 DUP3 ADD SLOAD PUSH1 0xFF AND PUSH1 0x2 DUP2 GT ISZERO PUSH2 0x2EA9 JUMPI PUSH2 0x2EA9 PUSH2 0x5D98 JUMP JUMPDEST EQ PUSH2 0x2EF6 JUMPI PUSH1 0x40 MLOAD PUSH3 0x461BCD PUSH1 0xE5 SHL DUP2 MSTORE PUSH1 0x20 PUSH1 0x4 DUP3 ADD MSTORE PUSH1 0x14 PUSH1 0x24 DUP3 ADD MSTORE PUSH32 0x4E6F7420696E206170706C696564207374617465000000000000000000000000 PUSH1 0x44 DUP3 ADD MSTORE PUSH1 0x64 ADD PUSH2 0xAB3 JUMP JUMPDEST PUSH1 0x0 DUP7 DUP2 MSTORE PUSH1 0x48 PUSH1 0x20 SWAP1 DUP2 MSTORE PUSH1 0x40 DUP1 DUP4 KECCAK256 PUSH1 0x1 PUSH1 0x1 PUSH1 0xA0 SHL SUB DUP8 AND DUP5 MSTORE SWAP1 SWAP2 MSTORE SWAP1 KECCAK256 SLOAD PUSH1 0xFF AND ISZERO PUSH2 0x2F59 JUMPI PUSH1 0x40 MLOAD PUSH3 0x461BCD PUSH1 0xE5 SHL DUP2 MSTORE PUSH1 0x20 PUSH1 0x4 DUP3 ADD MSTORE PUSH1 0xD PUSH1 0x24 DUP3 ADD MSTORE PUSH13 0x105B1C9958591E481D9BDD1959 PUSH1 0x9A SHL PUSH1 0x44 DUP3 ADD MSTORE PUSH1 0x64 ADD PUSH2 0xAB3 JUMP JUMPDEST PUSH1 0x0 DUP2 PUSH1 0x4 ADD DUP1 SLOAD PUSH2 0x2F6A SWAP1 PUSH2 0x6259 JUMP JUMPDEST DUP1 PUSH1 0x1F ADD PUSH1 0x20 DUP1 SWAP2 DIV MUL PUSH1 0x20 ADD PUSH1 0x40 MLOAD SWAP1 DUP2 ADD PUSH1 0x40 MSTORE DUP1 SWAP3 SWAP2 SWAP1 DUP2 DUP2 MSTORE PUSH1 0x20 ADD DUP3 DUP1 SLOAD PUSH2 0x2F96 SWAP1 PUSH2 0x6259 JUMP JUMPDEST DUP1 ISZERO PUSH2 0x2FE3 JUMPI DUP1 PUSH1 0x1F LT PUSH2 0x2FB8 JUMPI PUSH2 0x100 DUP1 DUP4 SLOAD DIV MUL DUP4 MSTORE SWAP2 PUSH1 0x20 ADD SWAP2 PUSH2 0x2FE3 JUMP JUMPDEST DUP3 ADD SWAP2 SWAP1 PUSH1 0x0 MSTORE PUSH1 0x20 PUSH1 0x0 KECCAK256 SWAP1 JUMPDEST DUP2 SLOAD DUP2 MSTORE SWAP1 PUSH1 0x1 ADD SWAP1 PUSH1 0x20 ADD DUP1 DUP4 GT PUSH2 0x2FC6 JUMPI DUP3 SWAP1 SUB PUSH1 0x1F AND DUP3 ADD SWAP2 JUMPDEST POP POP POP POP POP SWAP1 POP PUSH2 0x2FF4 DUP2 DUP6 PUSH2 0x489F JUMP JUMPDEST PUSH2 0x3037 JUMPI PUSH1 0x40 MLOAD PUSH3 0x461BCD PUSH1 0xE5 SHL DUP2 MSTORE PUSH1 0x20 PUSH1 0x4 DUP3 ADD MSTORE PUSH1 0x14 PUSH1 0x24 DUP3 ADD MSTORE PUSH20 0x2737BA1030B71037B930B1B6329036B2B6B132B9 PUSH1 0x61 SHL PUSH1 0x44 DUP3 ADD MSTORE PUSH1 0x64 ADD PUSH2 0xAB3 JUMP JUMPDEST PUSH1 0x0 DUP8 DUP2 MSTORE PUSH1 0x48 PUSH1 0x20 SWAP1 DUP2 MSTORE PUSH1 0x40 DUP1 DUP4 KECCAK256 PUSH1 0x1 PUSH1 0x1 PUSH1 0xA0 SHL SUB DUP9 AND DUP1 DUP6 MSTORE SWAP1 DUP4 MSTORE DUP2 DUP5 KECCAK256 DUP1 SLOAD PUSH1 0xFF NOT SWAP1 DUP2 AND PUSH1 0x1 OR SWAP1 SWAP2 SSTORE DUP12 DUP6 MSTORE PUSH1 0x49 DUP5 MSTORE DUP3 DUP6 KECCAK256 SWAP2 DUP6 MSTORE SWAP3 MSTORE SWAP1 SWAP2 KECCAK256 DUP1 SLOAD DUP9 ISZERO DUP1 ISZERO SWAP2 SWAP1 SWAP4 AND OR SWAP1 SSTORE PUSH2 0x30B0 JUMPI PUSH1 0x0 DUP8 DUP2 MSTORE PUSH1 0x4A PUSH1 0x20 MSTORE PUSH1 0x40 DUP2 KECCAK256 DUP1 SLOAD SWAP2 PUSH2 0x30A6 DUP4 PUSH2 0x6293 JUMP JUMPDEST SWAP2 SWAP1 POP SSTORE POP PUSH2 0x30D0 JUMP JUMPDEST PUSH1 0x0 DUP8 DUP2 MSTORE PUSH1 0x4B PUSH1 0x20 MSTORE PUSH1 0x40 DUP2 KECCAK256 DUP1 SLOAD SWAP2 PUSH2 0x30CA DUP4 PUSH2 0x6293 JUMP JUMPDEST SWAP2 SWAP1 POP SSTORE POP JUMPDEST PUSH1 0x0 DUP8 DUP2 MSTORE PUSH1 0x4C PUSH1 0x20 SWAP1 DUP2 MSTORE PUSH1 0x40 DUP3 KECCAK256 DUP1 SLOAD PUSH1 0x1 DUP2 ADD DUP3 SSTORE SWAP1 DUP4 MSTORE SWAP2 KECCAK256 ADD PUSH2 0x30F8 DUP7 DUP3 PUSH2 0x62F3 JUMP JUMPDEST POP PUSH32 0x67478A45A46AA9D4EFD1D6B17A97DE80899C40002B5784349652AACACA49ACFA DUP8 DUP6 DUP9 DUP9 PUSH1 0x40 MLOAD PUSH2 0x312E SWAP5 SWAP4 SWAP3 SWAP2 SWAP1 PUSH2 0x63B1 JUMP JUMPDEST PUSH1 0x40 MLOAD DUP1 SWAP2 SUB SWAP1 LOG1 PUSH1 0x0 DUP8 DUP2 MSTORE PUSH1 0x4B PUSH1 0x20 SWAP1 DUP2 MSTORE PUSH1 0x40 DUP1 DUP4 KECCAK256 SLOAD PUSH1 0x4A SWAP1 SWAP3 MSTORE DUP3 KECCAK256 SLOAD PUSH2 0x315A SWAP2 SWAP1 PUSH2 0x61ED JUMP JUMPDEST SWAP1 POP PUSH2 0x3165 DUP3 PUSH2 0x496C JUMP JUMPDEST ISZERO PUSH2 0x178C JUMPI PUSH1 0x0 PUSH2 0x3175 DUP4 PUSH2 0x4A1F JUMP JUMPDEST SWAP1 POP PUSH2 0x3182 PUSH1 0x2 DUP3 PUSH2 0x6200 JUMP JUMPDEST PUSH2 0x318D SWAP1 PUSH1 0x1 PUSH2 0x61ED JUMP JUMPDEST DUP3 LT PUSH2 0x178A JUMPI PUSH1 0x0 DUP10 DUP2 MSTORE PUSH1 0x4B PUSH1 0x20 SWAP1 DUP2 MSTORE PUSH1 0x40 DUP1 DUP4 KECCAK256 SLOAD PUSH1 0x4A SWAP1 SWAP3 MSTORE SWAP1 SWAP2 KECCAK256 SLOAD GT ISZERO PUSH2 0x3260 JUMPI PUSH1 0x1 DUP5 ADD SLOAD PUSH1 0x2 DUP6 ADD DUP1 SLOAD PUSH2 0x325B SWAP3 PUSH1 0x1 PUSH1 0x1 PUSH1 0xA0 SHL SUB AND SWAP2 SWAP1 PUSH2 0x31D7 SWAP1 PUSH2 0x6259 JUMP JUMPDEST DUP1 PUSH1 0x1F ADD PUSH1 0x20 DUP1 SWAP2 DIV MUL PUSH1 0x20 ADD PUSH1 0x40 MLOAD SWAP1 DUP2 ADD PUSH1 0x40 MSTORE DUP1 SWAP3 SWAP2 SWAP1 DUP2 DUP2 MSTORE PUSH1 0x20 ADD DUP3 DUP1 SLOAD PUSH2 0x3203 SWAP1 PUSH2 0x6259 JUMP JUMPDEST DUP1 ISZERO PUSH2 0x3250 JUMPI DUP1 PUSH1 0x1F LT PUSH2 0x3225 JUMPI PUSH2 0x100 DUP1 DUP4 SLOAD DIV MUL DUP4 MSTORE SWAP2 PUSH1 0x20 ADD SWAP2 PUSH2 0x3250 JUMP JUMPDEST DUP3 ADD SWAP2 SWAP1 PUSH1 0x0 MSTORE PUSH1 0x20 PUSH1 0x0 KECCAK256 SWAP1 JUMPDEST DUP2 SLOAD DUP2 MSTORE SWAP1 PUSH1 0x1 ADD SWAP1 PUSH1 0x20 ADD DUP1 DUP4 GT PUSH2 0x3233 JUMPI DUP3 SWAP1 SUB PUSH1 0x1F AND DUP3 ADD SWAP2 JUMPDEST POP POP POP POP POP DUP12 PUSH2 0x4E6A JUMP JUMPDEST PUSH2 0x178A JUMP JUMPDEST PUSH1 0x1 DUP5 ADD SLOAD PUSH1 0x2 DUP6 ADD DUP1 SLOAD PUSH2 0x178A SWAP3 PUSH1 0x1 PUSH1 0x1 PUSH1 0xA0 SHL SUB AND SWAP2 SWAP1 PUSH2 0x3283 SWAP1 PUSH2 0x6259 JUMP JUMPDEST DUP1 PUSH1 0x1F ADD PUSH1 0x20 DUP1 SWAP2 DIV MUL PUSH1 0x20 ADD PUSH1 0x40 MLOAD SWAP1 DUP2 ADD PUSH1 0x40 MSTORE DUP1 SWAP3 SWAP2 SWAP1 DUP2 DUP2 MSTORE PUSH1 0x20 ADD DUP3 DUP1 SLOAD PUSH2 0x32AF SWAP1 PUSH2 0x6259 JUMP JUMPDEST DUP1 ISZERO PUSH2 0x32FC JUMPI DUP1 PUSH1 0x1F LT PUSH2 0x32D1 JUMPI PUSH2 0x100 DUP1 DUP4 SLOAD DIV MUL DUP4 MSTORE SWAP2 PUSH1 0x20 ADD SWAP2 PUSH2 0x32FC JUMP JUMPDEST DUP3 ADD SWAP2 SWAP1 PUSH1 0x0 MSTORE PUSH1 0x20 PUSH1 0x0 KECCAK256 SWAP1 JUMPDEST DUP2 SLOAD DUP2 MSTORE SWAP1 PUSH1 0x1 ADD SWAP1 PUSH1 0x20 ADD DUP1 DUP4 GT PUSH2 0x32DF JUMPI DUP3 SWAP1 SUB PUSH1 0x1F AND DUP3 ADD SWAP2 JUMPDEST POP POP POP POP POP DUP12 PUSH2 0x500D JUMP JUMPDEST PUSH2 0x330F PUSH2 0x486D JUMP JUMPDEST PUSH1 0x1 PUSH1 0x1 PUSH1 0xA0 SHL SUB DUP2 AND PUSH2 0x3373 JUMPI PUSH1 0x40 MLOAD PUSH3 0x461BCD PUSH1 0xE5 SHL DUP2 MSTORE PUSH1 0x20 PUSH1 0x4 DUP3 ADD MSTORE PUSH1 0x25 PUSH1 0x24 DUP3 ADD MSTORE PUSH32 0x496E76616C6964204E61746976652044414F20476F7665726E616E6365206164 PUSH1 0x44 DUP3 ADD MSTORE PUSH5 0x6472657373 PUSH1 0xD8 SHL PUSH1 0x64 DUP3 ADD MSTORE PUSH1 0x84 ADD PUSH2 0xAB3 JUMP JUMPDEST PUSH1 0x34 DUP1 SLOAD PUSH1 0x1 PUSH1 0x1 PUSH1 0xA0 SHL SUB NOT AND PUSH1 0x1 PUSH1 0x1 PUSH1 0xA0 SHL SUB DUP4 AND SWAP1 DUP2 OR SWAP1 SWAP2 SSTORE PUSH1 0x40 DUP1 MLOAD DUP2 DUP2 MSTORE PUSH1 0x13 SWAP2 DUP2 ADD SWAP2 SWAP1 SWAP2 MSTORE PUSH19 0x4E617469766544414F476F7665726E616E6365 PUSH1 0x68 SHL PUSH1 0x60 DUP3 ADD MSTORE PUSH1 0x20 DUP2 ADD SWAP2 SWAP1 SWAP2 MSTORE PUSH32 0xD1893B811E542389CA0D5FE90791E7959FEE083D73DA3A5F0D656F8DC256EE6F SWAP1 PUSH1 0x80 ADD PUSH2 0xD0A JUMP JUMPDEST PUSH1 0x1 PUSH1 0x1 PUSH1 0xA0 SHL SUB DUP3 AND PUSH1 0x0 SWAP1 DUP2 MSTORE PUSH1 0x45 PUSH1 0x20 MSTORE PUSH1 0x40 DUP1 DUP3 KECCAK256 SWAP1 MLOAD PUSH2 0x3415 SWAP1 DUP5 SWAP1 PUSH2 0x61A8 JUMP JUMPDEST SWAP1 DUP2 MSTORE PUSH1 0x20 ADD PUSH1 0x40 MLOAD DUP1 SWAP2 SUB SWAP1 KECCAK256 SLOAD SWAP1 POP SWAP3 SWAP2 POP POP JUMP JUMPDEST PUSH1 0x0 DUP3 DUP2 MSTORE PUSH1 0x46 PUSH1 0x20 MSTORE PUSH1 0x40 DUP2 KECCAK256 DUP1 SLOAD ISZERO DUP1 PUSH2 0x3458 JUMPI POP PUSH1 0x1 DUP2 ADD SLOAD PUSH1 0x1 PUSH1 0x1 PUSH1 0xA0 SHL SUB DUP5 DUP2 AND SWAP2 AND EQ ISZERO JUMPDEST ISZERO PUSH2 0x3467 JUMPI PUSH1 0x0 SWAP2 POP POP PUSH2 0x1256 JUMP JUMPDEST PUSH1 0x1 PUSH1 0x5 DUP3 ADD SLOAD PUSH1 0xFF AND PUSH1 0x2 DUP2 GT ISZERO PUSH2 0x3482 JUMPI PUSH2 0x3482 PUSH2 0x5D98 JUMP JUMPDEST SUB PUSH2 0x2912 JUMPI POP POP PUSH1 0x38 SLOAD PUSH2 0x1256 JUMP JUMPDEST PUSH2 0x3499 PUSH2 0x486D JUMP JUMPDEST PUSH1 0x39 DUP1 SLOAD SWAP1 DUP3 SWAP1 SSTORE PUSH1 0x40 DUP1 MLOAD PUSH1 0x60 DUP1 DUP3 MSTORE PUSH1 0xB SWAP1 DUP3 ADD MSTORE PUSH11 0x5175657374696F6E466565 PUSH1 0xA8 SHL PUSH1 0x80 DUP3 ADD MSTORE PUSH1 0x20 DUP2 ADD DUP4 SWAP1 MSTORE SWAP1 DUP2 ADD DUP4 SWAP1 MSTORE PUSH1 0x0 DUP1 MLOAD PUSH1 0x20 PUSH2 0x68DD DUP4 CODECOPY DUP2 MLOAD SWAP2 MSTORE SWAP1 PUSH1 0xA0 ADD PUSH2 0xA57 JUMP JUMPDEST PUSH1 0x0 PUSH2 0x34F3 PUSH2 0x506D JUMP JUMPDEST DUP1 SLOAD SWAP1 SWAP2 POP PUSH1 0xFF PUSH1 0x1 PUSH1 0x40 SHL DUP3 DIV AND ISZERO SWAP1 PUSH1 0x1 PUSH1 0x1 PUSH1 0x40 SHL SUB AND PUSH1 0x0 DUP2 ISZERO DUP1 ISZERO PUSH2 0x351A JUMPI POP DUP3 JUMPDEST SWAP1 POP PUSH1 0x0 DUP3 PUSH1 0x1 PUSH1 0x1 PUSH1 0x40 SHL SUB AND PUSH1 0x1 EQ DUP1 ISZERO PUSH2 0x3536 JUMPI POP ADDRESS EXTCODESIZE ISZERO JUMPDEST SWAP1 POP DUP2 ISZERO DUP1 ISZERO PUSH2 0x3544 JUMPI POP DUP1 ISZERO JUMPDEST ISZERO PUSH2 0x3562 JUMPI PUSH1 0x40 MLOAD PUSH4 0xF92EE8A9 PUSH1 0xE0 SHL DUP2 MSTORE PUSH1 0x4 ADD PUSH1 0x40 MLOAD DUP1 SWAP2 SUB SWAP1 REVERT JUMPDEST DUP5 SLOAD PUSH8 0xFFFFFFFFFFFFFFFF NOT AND PUSH1 0x1 OR DUP6 SSTORE DUP4 ISZERO PUSH2 0x358C JUMPI DUP5 SLOAD PUSH1 0xFF PUSH1 0x40 SHL NOT AND PUSH1 0x1 PUSH1 0x40 SHL OR DUP6 SSTORE JUMPDEST PUSH2 0x3595 DUP7 PUSH2 0x5096 JUMP JUMPDEST PUSH2 0x359D PUSH2 0x50A7 JUMP JUMPDEST PUSH2 0x35A5 PUSH2 0x50B7 JUMP JUMPDEST PUSH7 0x2386F26FC10000 PUSH1 0x37 SSTORE PUSH7 0x11C37937E08000 PUSH1 0x38 SSTORE PUSH7 0x71AFD498D0000 PUSH1 0x39 SSTORE PUSH3 0x54600 PUSH1 0x3A DUP2 SWAP1 SSTORE PUSH1 0x3B DUP2 SWAP1 SSTORE PUSH1 0x3C SSTORE PUSH1 0x1 PUSH1 0x3E DUP2 SWAP1 SSTORE PUSH1 0x47 DUP2 SWAP1 SSTORE PUSH1 0x4E SSTORE PUSH1 0x40 DUP1 MLOAD PUSH13 0x44656661756C744F7261636C65 PUSH1 0x98 SHL DUP1 DUP3 MSTORE PUSH1 0x54 PUSH1 0xD DUP1 DUP5 ADD SWAP2 SWAP1 SWAP2 MSTORE DUP4 MLOAD SWAP3 DUP4 SWAP1 SUB PUSH1 0x2D ADD DUP4 KECCAK256 DUP4 DUP6 ADD SWAP1 SWAP5 MSTORE DUP3 MSTORE PUSH1 0x20 DUP3 ADD MSTORE DUP2 SWAP1 PUSH2 0x362D SWAP1 DUP3 PUSH2 0x62F3 JUMP JUMPDEST POP PUSH1 0x40 MLOAD DUP1 PUSH1 0x60 ADD PUSH1 0x40 MSTORE DUP1 PUSH1 0x25 DUP2 MSTORE PUSH1 0x20 ADD PUSH2 0x68B8 PUSH1 0x25 SWAP2 CODECOPY PUSH1 0x1 DUP3 ADD SWAP1 PUSH2 0x3656 SWAP1 DUP3 PUSH2 0x62F3 JUMP JUMPDEST POP PUSH1 0x3 DUP2 ADD DUP1 SLOAD PUSH1 0xFF NOT AND PUSH1 0x1 OR SWAP1 SSTORE TIMESTAMP PUSH1 0x4 DUP3 ADD SSTORE PUSH1 0x40 MLOAD PUSH32 0xF1C7074213D995C63650112C46B712EAA9DF6C1C6F67189AEB4784ABA4707668 SWAP1 PUSH2 0x36FF SWAP1 PUSH1 0x40 DUP1 DUP3 MSTORE PUSH1 0xD SWAP1 DUP3 ADD MSTORE PUSH13 0x44656661756C744F7261636C65 PUSH1 0x98 SHL PUSH1 0x60 DUP3 ADD MSTORE PUSH1 0x80 PUSH1 0x20 DUP3 ADD DUP2 SWAP1 MSTORE PUSH1 0x25 SWAP1 DUP3 ADD MSTORE PUSH32 0x44656661756C74206F7261636C6520666F722064697370757465207265736F6C PUSH1 0xA0 DUP3 ADD MSTORE PUSH5 0x3ABA34B7B7 PUSH1 0xD9 SHL PUSH1 0xC0 DUP3 ADD MSTORE PUSH1 0xE0 ADD SWAP1 JUMP JUMPDEST PUSH1 0x40 MLOAD DUP1 SWAP2 SUB SWAP1 LOG1 POP DUP4 ISZERO PUSH2 0x374E JUMPI DUP5 SLOAD PUSH1 0xFF PUSH1 0x40 SHL NOT AND DUP6 SSTORE PUSH1 0x40 MLOAD PUSH1 0x1 DUP2 MSTORE PUSH32 0xC7F505B2F371AE2175EE4913F4499E1F2633A7B5936321EED1CDAEB6115181D2 SWAP1 PUSH1 0x20 ADD PUSH1 0x40 MLOAD DUP1 SWAP2 SUB SWAP1 LOG1 JUMPDEST POP POP POP POP POP POP JUMP JUMPDEST PUSH1 0x32 SLOAD PUSH1 0x1 PUSH1 0x1 PUSH1 0xA0 SHL SUB AND CALLER EQ PUSH2 0x3780 JUMPI PUSH1 0x40 MLOAD PUSH3 0x461BCD PUSH1 0xE5 SHL DUP2 MSTORE PUSH1 0x4 ADD PUSH2 0xAB3 SWAP1 PUSH2 0x6222 JUMP JUMPDEST PUSH1 0x0 DUP3 DUP3 PUSH1 0x40 MLOAD PUSH2 0x3792 SWAP3 SWAP2 SWAP1 PUSH2 0x6484 JUMP JUMPDEST PUSH1 0x40 DUP1 MLOAD SWAP2 DUP3 SWAP1 SUB SWAP1 SWAP2 KECCAK256 PUSH1 0x0 DUP2 DUP2 MSTORE PUSH1 0x57 PUSH1 0x20 MSTORE SWAP2 SWAP1 SWAP2 KECCAK256 SLOAD SWAP1 SWAP2 POP PUSH1 0xFF AND ISZERO PUSH2 0x37FF JUMPI PUSH1 0x40 MLOAD PUSH3 0x461BCD PUSH1 0xE5 SHL DUP2 MSTORE PUSH1 0x20 PUSH1 0x4 DUP3 ADD MSTORE PUSH1 0x19 PUSH1 0x24 DUP3 ADD MSTORE PUSH32 0x4D65737361676520616C72656164792070726F63657373656400000000000000 PUSH1 0x44 DUP3 ADD MSTORE PUSH1 0x64 ADD PUSH2 0xAB3 JUMP JUMPDEST PUSH1 0x0 DUP2 DUP2 MSTORE PUSH1 0x57 PUSH1 0x20 MSTORE PUSH1 0x40 DUP2 KECCAK256 DUP1 SLOAD PUSH1 0xFF NOT AND PUSH1 0x1 OR SWAP1 SSTORE PUSH2 0x3824 DUP4 DUP6 ADD DUP6 PUSH2 0x6494 JUMP JUMPDEST PUSH1 0x40 DUP1 MLOAD DUP1 DUP3 ADD SWAP1 SWAP2 MSTORE PUSH1 0xC DUP2 MSTORE PUSH12 0x726169736544697370757465 PUSH1 0xA0 SHL PUSH1 0x20 SWAP2 DUP3 ADD MSTORE DUP2 MLOAD SWAP1 DUP3 ADD KECCAK256 SWAP1 SWAP2 POP PUSH32 0x32B61ACE529FE8B099F26FE3BB302396EFD1AC056F370A6B8B6DCD8407FA9F1A ADD PUSH2 0x3887 JUMPI PUSH2 0x3882 DUP5 DUP5 DUP5 PUSH2 0x50BF JUMP JUMPDEST PUSH2 0x3A51 JUMP JUMPDEST PUSH1 0x40 DUP1 MLOAD DUP1 DUP3 ADD SWAP1 SWAP2 MSTORE PUSH1 0xD DUP2 MSTORE PUSH13 0x63726561746544697370757465 PUSH1 0x98 SHL PUSH1 0x20 SWAP2 DUP3 ADD MSTORE DUP2 MLOAD SWAP1 DUP3 ADD KECCAK256 PUSH32 0x7B1920C1C9B7F57F206613A52788E0F13E927E9543BFFA07152A7CCD9836EE58 ADD PUSH2 0x38E3 JUMPI PUSH2 0x3882 DUP5 DUP5 DUP5 PUSH2 0x5191 JUMP JUMPDEST PUSH1 0x40 DUP1 MLOAD DUP1 DUP3 ADD SWAP1 SWAP2 MSTORE PUSH1 0x18 DUP2 MSTORE PUSH32 0x72657175657374536B696C6C566572696669636174696F6E0000000000000000 PUSH1 0x20 SWAP2 DUP3 ADD MSTORE DUP2 MLOAD SWAP1 DUP3 ADD KECCAK256 PUSH32 0x228A01F0FF6F46F51AFB2796DC2599C5EF8F24A37BF19FBC7798B3DB2DFA69D1 ADD PUSH2 0x394F JUMPI PUSH2 0x3882 DUP5 DUP5 DUP5 PUSH2 0x526C JUMP JUMPDEST PUSH1 0x40 DUP1 MLOAD DUP1 DUP3 ADD SWAP1 SWAP2 MSTORE PUSH1 0x9 DUP2 MSTORE PUSH9 0x61736B417468656E61 PUSH1 0xB8 SHL PUSH1 0x20 SWAP2 DUP3 ADD MSTORE DUP2 MLOAD SWAP1 DUP3 ADD KECCAK256 PUSH32 0xE503432B30E4407C8D77F061B4C8215BAD2B53DDC779C0A3B1A87E3A58828F52 ADD PUSH2 0x39A7 JUMPI PUSH2 0x3882 DUP5 DUP5 DUP5 PUSH2 0x5338 JUMP JUMPDEST PUSH1 0x40 DUP1 MLOAD DUP1 DUP3 ADD SWAP1 SWAP2 MSTORE PUSH1 0x13 DUP2 MSTORE PUSH19 0x18DB185A5B511A5CDC1D5D1959105B5BDD5B9D PUSH1 0x6A SHL PUSH1 0x20 SWAP2 DUP3 ADD MSTORE DUP2 MLOAD SWAP1 DUP3 ADD KECCAK256 PUSH32 0xE4DE46BEDAE6875619A0119EE338471136AF8AC256430CBDD466E75A0E8F8DDB ADD PUSH2 0x3A09 JUMPI PUSH2 0x3882 DUP5 DUP5 DUP5 PUSH2 0x53F5 JUMP JUMPDEST PUSH1 0x40 MLOAD PUSH3 0x461BCD PUSH1 0xE5 SHL DUP2 MSTORE PUSH1 0x20 PUSH1 0x4 DUP3 ADD MSTORE PUSH1 0x1A PUSH1 0x24 DUP3 ADD MSTORE PUSH32 0x556E6B6E6F776E2063726F73732D636861696E20616374696F6E000000000000 PUSH1 0x44 DUP3 ADD MSTORE PUSH1 0x64 ADD PUSH2 0xAB3 JUMP JUMPDEST DUP2 PUSH1 0x0 DUP1 MLOAD PUSH1 0x20 PUSH2 0x6898 DUP4 CODECOPY DUP2 MLOAD SWAP2 MSTORE DUP3 PUSH1 0x0 PUSH1 0x40 MLOAD PUSH2 0x3A72 SWAP3 SWAP2 SWAP1 PUSH2 0x64C8 JUMP JUMPDEST PUSH1 0x40 MLOAD DUP1 SWAP2 SUB SWAP1 LOG2 POP POP POP POP JUMP JUMPDEST PUSH1 0x32 SLOAD PUSH1 0x0 SWAP1 PUSH1 0x1 PUSH1 0x1 PUSH1 0xA0 SHL SUB AND CALLER EQ DUP1 PUSH2 0x3AB4 JUMPI POP PUSH2 0x3A9F PUSH2 0x2865 JUMP JUMPDEST PUSH1 0x1 PUSH1 0x1 PUSH1 0xA0 SHL SUB AND CALLER PUSH1 0x1 PUSH1 0x1 PUSH1 0xA0 SHL SUB AND EQ JUMPDEST PUSH2 0x3AD0 JUMPI PUSH1 0x40 MLOAD PUSH3 0x461BCD PUSH1 0xE5 SHL DUP2 MSTORE PUSH1 0x4 ADD PUSH2 0xAB3 SWAP1 PUSH2 0x6171 JUMP JUMPDEST PUSH2 0x3AD9 DUP5 PUSH2 0x496C JUMP JUMPDEST PUSH2 0x3B19 JUMPI PUSH1 0x40 MLOAD PUSH3 0x461BCD PUSH1 0xE5 SHL DUP2 MSTORE PUSH1 0x20 PUSH1 0x4 DUP3 ADD MSTORE PUSH1 0x11 PUSH1 0x24 DUP3 ADD MSTORE PUSH17 0x4F7261636C65206E6F7420616374697665 PUSH1 0x78 SHL PUSH1 0x44 DUP3 ADD MSTORE PUSH1 0x64 ADD PUSH2 0xAB3 JUMP JUMPDEST PUSH1 0x1 PUSH1 0x1 PUSH1 0xA0 SHL SUB DUP3 AND PUSH1 0x0 SWAP1 DUP2 MSTORE PUSH1 0x44 PUSH1 0x20 MSTORE PUSH1 0x40 SWAP1 DUP2 SWAP1 KECCAK256 SWAP1 MLOAD PUSH2 0x3B40 SWAP1 DUP8 SWAP1 PUSH2 0x61A8 JUMP JUMPDEST SWAP1 DUP2 MSTORE PUSH1 0x40 MLOAD SWAP1 DUP2 SWAP1 SUB PUSH1 0x20 ADD SWAP1 KECCAK256 SLOAD PUSH1 0xFF AND ISZERO PUSH2 0x3B99 JUMPI PUSH1 0x40 MLOAD PUSH3 0x461BCD PUSH1 0xE5 SHL DUP2 MSTORE PUSH1 0x20 PUSH1 0x4 DUP3 ADD MSTORE PUSH1 0x16 PUSH1 0x24 DUP3 ADD MSTORE PUSH22 0x14DADA5B1B08185B1C9958591E481D995C9A599A5959 PUSH1 0x52 SHL PUSH1 0x44 DUP3 ADD MSTORE PUSH1 0x64 ADD PUSH2 0xAB3 JUMP JUMPDEST PUSH1 0x47 DUP1 SLOAD SWAP1 PUSH1 0x0 PUSH2 0x3BA9 DUP4 PUSH2 0x6293 JUMP JUMPDEST SWAP2 SWAP1 POP SSTORE SWAP1 POP PUSH1 0x40 MLOAD DUP1 PUSH2 0x100 ADD PUSH1 0x40 MSTORE DUP1 DUP3 DUP2 MSTORE PUSH1 0x20 ADD DUP4 PUSH1 0x1 PUSH1 0x1 PUSH1 0xA0 SHL SUB AND DUP2 MSTORE PUSH1 0x20 ADD DUP7 DUP2 MSTORE PUSH1 0x20 ADD DUP5 DUP2 MSTORE PUSH1 0x20 ADD DUP6 DUP2 MSTORE PUSH1 0x20 ADD PUSH1 0x0 PUSH1 0x2 DUP2 GT ISZERO PUSH2 0x3BF5 JUMPI PUSH2 0x3BF5 PUSH2 0x5D98 JUMP JUMPDEST DUP2 MSTORE TIMESTAMP PUSH1 0x20 DUP1 DUP4 ADD SWAP2 SWAP1 SWAP2 MSTORE PUSH1 0x0 PUSH1 0x40 SWAP3 DUP4 ADD DUP2 SWAP1 MSTORE DUP5 DUP2 MSTORE PUSH1 0x46 DUP3 MSTORE DUP3 SWAP1 KECCAK256 DUP4 MLOAD DUP2 SSTORE SWAP1 DUP4 ADD MLOAD PUSH1 0x1 DUP3 ADD DUP1 SLOAD PUSH1 0x1 PUSH1 0x1 PUSH1 0xA0 SHL SUB NOT AND PUSH1 0x1 PUSH1 0x1 PUSH1 0xA0 SHL SUB SWAP1 SWAP3 AND SWAP2 SWAP1 SWAP2 OR SWAP1 SSTORE SWAP1 DUP3 ADD MLOAD PUSH1 0x2 DUP3 ADD SWAP1 PUSH2 0x3C51 SWAP1 DUP3 PUSH2 0x62F3 JUMP JUMPDEST POP PUSH1 0x60 DUP3 ADD MLOAD PUSH1 0x3 DUP3 ADD SWAP1 PUSH2 0x3C66 SWAP1 DUP3 PUSH2 0x62F3 JUMP JUMPDEST POP PUSH1 0x80 DUP3 ADD MLOAD PUSH1 0x4 DUP3 ADD SWAP1 PUSH2 0x3C7B SWAP1 DUP3 PUSH2 0x62F3 JUMP JUMPDEST POP PUSH1 0xA0 DUP3 ADD MLOAD PUSH1 0x5 DUP3 ADD DUP1 SLOAD PUSH1 0xFF NOT AND PUSH1 0x1 DUP4 PUSH1 0x2 DUP2 GT ISZERO PUSH2 0x3C9F JUMPI PUSH2 0x3C9F PUSH2 0x5D98 JUMP JUMPDEST MUL OR SWAP1 SSTORE POP PUSH1 0xC0 DUP3 ADD MLOAD PUSH1 0x6 DUP3 ADD SSTORE PUSH1 0xE0 SWAP1 SWAP2 ADD MLOAD PUSH1 0x7 SWAP1 SWAP2 ADD SSTORE PUSH1 0x1 PUSH1 0x1 PUSH1 0xA0 SHL SUB DUP3 AND PUSH1 0x0 SWAP1 DUP2 MSTORE PUSH1 0x45 PUSH1 0x20 MSTORE PUSH1 0x40 SWAP1 DUP2 SWAP1 KECCAK256 SWAP1 MLOAD DUP3 SWAP2 SWAP1 PUSH2 0x3CE4 SWAP1 DUP9 SWAP1 PUSH2 0x61A8 JUMP JUMPDEST SWAP1 DUP2 MSTORE PUSH1 0x40 MLOAD SWAP1 DUP2 SWAP1 SUB PUSH1 0x20 ADD SWAP1 KECCAK256 SSTORE SWAP5 SWAP4 POP POP POP POP JUMP JUMPDEST PUSH1 0x0 PUSH1 0x1 PUSH1 0x4E SLOAD PUSH2 0xC3E SWAP2 SWAP1 PUSH2 0x61DA JUMP JUMPDEST PUSH2 0x3D15 PUSH2 0x5706 JUMP JUMPDEST PUSH1 0x0 DUP3 DUP2 MSTORE PUSH1 0x3D PUSH1 0x20 MSTORE PUSH1 0x40 DUP2 KECCAK256 DUP2 SWAP1 PUSH2 0x3D2D PUSH2 0x5706 JUMP JUMPDEST DUP2 SLOAD DUP2 MSTORE PUSH1 0x1 DUP3 ADD SLOAD PUSH1 0x20 DUP3 ADD MSTORE PUSH1 0x2 DUP3 ADD SLOAD PUSH1 0x1 PUSH1 0x1 PUSH1 0xA0 SHL SUB SWAP1 DUP2 AND PUSH1 0x40 DUP4 ADD MSTORE PUSH1 0x3 DUP4 ADD SLOAD AND PUSH1 0x60 DUP3 ADD MSTORE PUSH1 0x4 DUP3 ADD DUP1 SLOAD PUSH2 0x3D6A SWAP1 PUSH2 0x6259 JUMP JUMPDEST DUP1 PUSH1 0x1F ADD PUSH1 0x20 DUP1 SWAP2 DIV MUL PUSH1 0x20 ADD PUSH1 0x40 MLOAD SWAP1 DUP2 ADD PUSH1 0x40 MSTORE DUP1 SWAP3 SWAP2 SWAP1 DUP2 DUP2 MSTORE PUSH1 0x20 ADD DUP3 DUP1 SLOAD PUSH2 0x3D96 SWAP1 PUSH2 0x6259 JUMP JUMPDEST DUP1 ISZERO PUSH2 0x3DE3 JUMPI DUP1 PUSH1 0x1F LT PUSH2 0x3DB8 JUMPI PUSH2 0x100 DUP1 DUP4 SLOAD DIV MUL DUP4 MSTORE SWAP2 PUSH1 0x20 ADD SWAP2 PUSH2 0x3DE3 JUMP JUMPDEST DUP3 ADD SWAP2 SWAP1 PUSH1 0x0 MSTORE PUSH1 0x20 PUSH1 0x0 KECCAK256 SWAP1 JUMPDEST DUP2 SLOAD DUP2 MSTORE SWAP1 PUSH1 0x1 ADD SWAP1 PUSH1 0x20 ADD DUP1 DUP4 GT PUSH2 0x3DC6 JUMPI DUP3 SWAP1 SUB PUSH1 0x1F AND DUP3 ADD SWAP2 JUMPDEST POP POP POP POP POP PUSH1 0x80 DUP3 ADD MSTORE PUSH1 0x5 DUP3 ADD SLOAD PUSH1 0xFF AND PUSH1 0x4 DUP2 GT ISZERO PUSH2 0x3E06 JUMPI PUSH2 0x3E06 PUSH2 0x5D98 JUMP JUMPDEST PUSH1 0xFF AND PUSH1 0x4 DUP2 GT ISZERO PUSH2 0x3E1A JUMPI PUSH2 0x3E1A PUSH2 0x5D98 JUMP JUMPDEST DUP2 PUSH1 0xA0 ADD SWAP1 PUSH1 0x4 DUP2 GT ISZERO PUSH2 0x3E30 JUMPI PUSH2 0x3E30 PUSH2 0x5D98 JUMP JUMPDEST SWAP1 DUP2 PUSH1 0x4 DUP2 GT ISZERO PUSH2 0x3E43 JUMPI PUSH2 0x3E43 PUSH2 0x5D98 JUMP JUMPDEST SWAP1 MSTORE POP PUSH1 0x5 DUP3 ADD SLOAD PUSH2 0x100 DUP1 DUP3 DIV PUSH1 0xFF SWAP1 DUP2 AND ISZERO ISZERO PUSH1 0xC0 DUP6 ADD MSTORE PUSH3 0x10000 DUP4 DIV AND ISZERO ISZERO PUSH1 0xE0 DUP5 ADD MSTORE PUSH4 0x1000000 SWAP1 SWAP2 DIV PUSH1 0x1 PUSH1 0x1 PUSH1 0xA0 SHL SUB AND SWAP1 DUP3 ADD MSTORE PUSH1 0x6 DUP3 ADD SLOAD PUSH2 0x120 DUP3 ADD MSTORE PUSH1 0x7 DUP3 ADD SLOAD PUSH2 0x140 DUP3 ADD MSTORE PUSH1 0x8 DUP3 ADD SLOAD PUSH2 0x160 DUP3 ADD MSTORE PUSH1 0x9 DUP3 ADD DUP1 SLOAD PUSH2 0x3EB0 SWAP1 PUSH2 0x6259 JUMP JUMPDEST DUP1 PUSH1 0x1F ADD PUSH1 0x20 DUP1 SWAP2 DIV MUL PUSH1 0x20 ADD PUSH1 0x40 MLOAD SWAP1 DUP2 ADD PUSH1 0x40 MSTORE DUP1 SWAP3 SWAP2 SWAP1 DUP2 DUP2 MSTORE PUSH1 0x20 ADD DUP3 DUP1 SLOAD PUSH2 0x3EDC SWAP1 PUSH2 0x6259 JUMP JUMPDEST DUP1 ISZERO PUSH2 0x3F29 JUMPI DUP1 PUSH1 0x1F LT PUSH2 0x3EFE JUMPI PUSH2 0x100 DUP1 DUP4 SLOAD DIV MUL DUP4 MSTORE SWAP2 PUSH1 0x20 ADD SWAP2 PUSH2 0x3F29 JUMP JUMPDEST DUP3 ADD SWAP2 SWAP1 PUSH1 0x0 MSTORE PUSH1 0x20 PUSH1 0x0 KECCAK256 SWAP1 JUMPDEST DUP2 SLOAD DUP2 MSTORE SWAP1 PUSH1 0x1 ADD SWAP1 PUSH1 0x20 ADD DUP1 DUP4 GT PUSH2 0x3F0C JUMPI DUP3 SWAP1 SUB PUSH1 0x1F AND DUP3 ADD SWAP2 JUMPDEST POP POP POP POP POP DUP2 PUSH2 0x180 ADD DUP2 SWAP1 MSTORE POP DUP2 PUSH1 0xA ADD DUP1 SLOAD PUSH2 0x3F46 SWAP1 PUSH2 0x6259 JUMP JUMPDEST DUP1 PUSH1 0x1F ADD PUSH1 0x20 DUP1 SWAP2 DIV MUL PUSH1 0x20 ADD PUSH1 0x40 MLOAD SWAP1 DUP2 ADD PUSH1 0x40 MSTORE DUP1 SWAP3 SWAP2 SWAP1 DUP2 DUP2 MSTORE PUSH1 0x20 ADD DUP3 DUP1 SLOAD PUSH2 0x3F72 SWAP1 PUSH2 0x6259 JUMP JUMPDEST DUP1 ISZERO PUSH2 0x3FBF JUMPI DUP1 PUSH1 0x1F LT PUSH2 0x3F94 JUMPI PUSH2 0x100 DUP1 DUP4 SLOAD DIV MUL DUP4 MSTORE SWAP2 PUSH1 0x20 ADD SWAP2 PUSH2 0x3FBF JUMP JUMPDEST DUP3 ADD SWAP2 SWAP1 PUSH1 0x0 MSTORE PUSH1 0x20 PUSH1 0x0 KECCAK256 SWAP1 JUMPDEST DUP2 SLOAD DUP2 MSTORE SWAP1 PUSH1 0x1 ADD SWAP1 PUSH1 0x20 ADD DUP1 DUP4 GT PUSH2 0x3FA2 JUMPI DUP3 SWAP1 SUB PUSH1 0x1F AND DUP3 ADD SWAP2 JUMPDEST POP POP POP POP POP PUSH2 0x1A0 DUP3 ADD MSTORE PUSH1 0xB DUP3 ADD SLOAD PUSH2 0x1C0 DUP3 ADD MSTORE PUSH1 0xC SWAP1 SWAP2 ADD SLOAD PUSH1 0xFF AND ISZERO ISZERO PUSH2 0x1E0 DUP3 ADD MSTORE PUSH1 0x0 SWAP5 DUP6 MSTORE PUSH1 0x41 PUSH1 0x20 SWAP1 DUP2 MSTORE PUSH1 0x40 DUP1 DUP8 KECCAK256 SLOAD PUSH1 0x42 SWAP1 SWAP3 MSTORE SWAP1 SWAP6 KECCAK256 SLOAD SWAP1 SWAP6 SWAP1 SWAP4 POP SWAP2 POP POP JUMP JUMPDEST PUSH1 0x32 SLOAD PUSH1 0x0 SWAP1 PUSH1 0x1 PUSH1 0x1 PUSH1 0xA0 SHL SUB AND CALLER EQ PUSH2 0x4038 JUMPI PUSH1 0x40 MLOAD PUSH3 0x461BCD PUSH1 0xE5 SHL DUP2 MSTORE PUSH1 0x4 ADD PUSH2 0xAB3 SWAP1 PUSH2 0x6222 JUMP JUMPDEST PUSH1 0x0 DUP6 DUP2 MSTORE PUSH1 0x3D PUSH1 0x20 MSTORE PUSH1 0x40 DUP2 KECCAK256 DUP1 SLOAD SWAP1 SWAP2 SUB PUSH2 0x4090 JUMPI PUSH1 0x40 MLOAD PUSH3 0x461BCD PUSH1 0xE5 SHL DUP2 MSTORE PUSH1 0x20 PUSH1 0x4 DUP3 ADD MSTORE PUSH1 0x16 PUSH1 0x24 DUP3 ADD MSTORE PUSH22 0x111A5CDC1D5D1948191BD95CC81B9BDD08195E1A5CDD PUSH1 0x52 SHL PUSH1 0x44 DUP3 ADD MSTORE PUSH1 0x64 ADD PUSH2 0xAB3 JUMP JUMPDEST PUSH1 0x3 PUSH1 0x5 DUP3 ADD SLOAD PUSH1 0xFF AND PUSH1 0x4 DUP2 GT ISZERO PUSH2 0x40AB JUMPI PUSH2 0x40AB PUSH2 0x5D98 JUMP JUMPDEST SUB PUSH2 0x40F3 JUMPI PUSH1 0x40 MLOAD PUSH3 0x461BCD PUSH1 0xE5 SHL DUP2 MSTORE PUSH1 0x20 PUSH1 0x4 DUP3 ADD MSTORE PUSH1 0x18 PUSH1 0x24 DUP3 ADD MSTORE PUSH24 0x111A5CDC1D5D1948185B1C9958591E481C995CDBDB1D9959 PUSH1 0x42 SHL PUSH1 0x44 DUP3 ADD MSTORE PUSH1 0x64 ADD PUSH2 0xAB3 JUMP JUMPDEST PUSH1 0x0 DUP7 DUP2 MSTORE PUSH1 0x3F PUSH1 0x20 SWAP1 DUP2 MSTORE PUSH1 0x40 DUP1 DUP4 KECCAK256 PUSH1 0x1 PUSH1 0x1 PUSH1 0xA0 SHL SUB DUP8 AND DUP5 MSTORE SWAP1 SWAP2 MSTORE SWAP1 KECCAK256 SLOAD PUSH1 0xFF AND ISZERO PUSH2 0x4156 JUMPI PUSH1 0x40 MLOAD PUSH3 0x461BCD PUSH1 0xE5 SHL DUP2 MSTORE PUSH1 0x20 PUSH1 0x4 DUP3 ADD MSTORE PUSH1 0xD PUSH1 0x24 DUP3 ADD MSTORE PUSH13 0x105B1C9958591E481D9BDD1959 PUSH1 0x9A SHL PUSH1 0x44 DUP3 ADD MSTORE PUSH1 0x64 ADD PUSH2 0xAB3 JUMP JUMPDEST PUSH1 0xC DUP2 ADD SLOAD PUSH1 0xFF AND PUSH2 0x41B4 JUMPI PUSH1 0x40 MLOAD PUSH3 0x461BCD PUSH1 0xE5 SHL DUP2 MSTORE PUSH1 0x20 PUSH1 0x4 DUP3 ADD MSTORE PUSH1 0x21 PUSH1 0x24 DUP3 ADD MSTORE PUSH32 0x4F7261636C65206E6F742076616C69646174656420666F722064697370757465 PUSH1 0x44 DUP3 ADD MSTORE PUSH1 0x73 PUSH1 0xF8 SHL PUSH1 0x64 DUP3 ADD MSTORE PUSH1 0x84 ADD PUSH2 0xAB3 JUMP JUMPDEST PUSH1 0x36 SLOAD PUSH1 0x0 SWAP1 DUP2 SWAP1 PUSH1 0x1 PUSH1 0x1 PUSH1 0xA0 SHL SUB AND ISZERO PUSH2 0x42C2 JUMPI PUSH1 0x36 SLOAD PUSH1 0x40 MLOAD PUSH4 0x6FD88EB PUSH1 0xE4 SHL DUP2 MSTORE PUSH1 0x1 PUSH1 0x1 PUSH1 0xA0 SHL SUB SWAP1 SWAP2 AND SWAP1 PUSH4 0x6FD88EB0 SWAP1 PUSH2 0x41FF SWAP1 PUSH1 0xA DUP8 ADD SWAP1 DUP10 SWAP1 PUSH1 0x4 ADD PUSH2 0x64F3 JUMP JUMPDEST PUSH1 0x20 PUSH1 0x40 MLOAD DUP1 DUP4 SUB DUP2 DUP7 GAS STATICCALL ISZERO DUP1 ISZERO PUSH2 0x421C JUMPI RETURNDATASIZE PUSH1 0x0 DUP1 RETURNDATACOPY RETURNDATASIZE PUSH1 0x0 REVERT JUMPDEST POP POP POP POP PUSH1 0x40 MLOAD RETURNDATASIZE PUSH1 0x1F NOT PUSH1 0x1F DUP3 ADD AND DUP3 ADD DUP1 PUSH1 0x40 MSTORE POP DUP2 ADD SWAP1 PUSH2 0x4240 SWAP2 SWAP1 PUSH2 0x6415 JUMP JUMPDEST ISZERO PUSH2 0x42C2 JUMPI PUSH1 0x36 SLOAD PUSH1 0x40 MLOAD PUSH4 0x1EED5329 PUSH1 0xE0 SHL DUP2 MSTORE PUSH1 0x1 SWAP4 POP PUSH1 0x1 PUSH1 0x1 PUSH1 0xA0 SHL SUB SWAP1 SWAP2 AND SWAP1 PUSH4 0x1EED5329 SWAP1 PUSH2 0x427E SWAP1 PUSH1 0xA DUP8 ADD SWAP1 DUP10 SWAP1 PUSH1 0x4 ADD PUSH2 0x64F3 JUMP JUMPDEST PUSH1 0x20 PUSH1 0x40 MLOAD DUP1 DUP4 SUB DUP2 DUP7 GAS STATICCALL ISZERO DUP1 ISZERO PUSH2 0x429B JUMPI RETURNDATASIZE PUSH1 0x0 DUP1 RETURNDATACOPY RETURNDATASIZE PUSH1 0x0 REVERT JUMPDEST POP POP POP POP PUSH1 0x40 MLOAD RETURNDATASIZE PUSH1 0x1F NOT PUSH1 0x1F DUP3 ADD AND DUP3 ADD DUP1 PUSH1 0x40 MSTORE POP DUP2 ADD SWAP1 PUSH2 0x42BF SWAP2 SWAP1 PUSH2 0x6432 JUMP JUMPDEST SWAP1 POP JUMPDEST DUP2 ISZERO DUP1 ISZERO PUSH2 0x42DA JUMPI POP PUSH1 0x33 SLOAD PUSH1 0x1 PUSH1 0x1 PUSH1 0xA0 SHL SUB AND ISZERO ISZERO JUMPDEST ISZERO PUSH2 0x435A JUMPI PUSH1 0x33 SLOAD PUSH1 0x40 MLOAD PUSH4 0x5DA6A21B PUSH1 0xE1 SHL DUP2 MSTORE PUSH1 0x1 PUSH1 0x1 PUSH1 0xA0 SHL SUB DUP8 DUP2 AND PUSH1 0x4 DUP4 ADD MSTORE SWAP1 SWAP2 AND SWAP1 PUSH4 0xBB4D4436 SWAP1 PUSH1 0x24 ADD PUSH1 0x20 PUSH1 0x40 MLOAD DUP1 DUP4 SUB DUP2 DUP7 GAS STATICCALL SWAP3 POP POP POP DUP1 ISZERO PUSH2 0x4345 JUMPI POP PUSH1 0x40 DUP1 MLOAD PUSH1 0x1F RETURNDATASIZE SWAP1 DUP2 ADD PUSH1 0x1F NOT AND DUP3 ADD SWAP1 SWAP3 MSTORE PUSH2 0x4342 SWAP2 DUP2 ADD SWAP1 PUSH2 0x6432 JUMP JUMPDEST PUSH1 0x1 JUMPDEST ISZERO PUSH2 0x435A JUMPI DUP1 ISZERO PUSH2 0x4358 JUMPI PUSH1 0x1 SWAP3 POP DUP1 SWAP2 POP JUMPDEST POP JUMPDEST DUP2 DUP1 ISZERO PUSH2 0x4367 JUMPI POP PUSH1 0x0 DUP2 GT JUMPDEST PUSH2 0x43C2 JUMPI PUSH1 0x40 MLOAD PUSH3 0x461BCD PUSH1 0xE5 SHL DUP2 MSTORE PUSH1 0x20 PUSH1 0x4 DUP3 ADD MSTORE PUSH1 0x26 PUSH1 0x24 DUP3 ADD MSTORE PUSH32 0x4E6F7420617574686F72697A656420746F20766F7465206F6E20746869732064 PUSH1 0x44 DUP3 ADD MSTORE PUSH6 0x697370757465 PUSH1 0xD0 SHL PUSH1 0x64 DUP3 ADD MSTORE PUSH1 0x84 ADD PUSH2 0xAB3 JUMP JUMPDEST PUSH1 0x0 DUP9 DUP2 MSTORE PUSH1 0x3F PUSH1 0x20 SWAP1 DUP2 MSTORE PUSH1 0x40 DUP1 DUP4 KECCAK256 PUSH1 0x1 PUSH1 0x1 PUSH1 0xA0 SHL SUB DUP10 AND DUP1 DUP6 MSTORE SWAP1 DUP4 MSTORE DUP2 DUP5 KECCAK256 DUP1 SLOAD PUSH1 0xFF NOT SWAP1 DUP2 AND PUSH1 0x1 OR SWAP1 SWAP2 SSTORE DUP13 DUP6 MSTORE DUP3 DUP5 MSTORE DUP3 DUP6 KECCAK256 SWAP2 DUP6 MSTORE SWAP3 MSTORE SWAP1 SWAP2 KECCAK256 DUP1 SLOAD DUP10 ISZERO DUP1 ISZERO SWAP2 SWAP1 SWAP4 AND OR SWAP1 SSTORE PUSH2 0x443F JUMPI PUSH1 0x0 DUP9 DUP2 MSTORE PUSH1 0x41 PUSH1 0x20 MSTORE PUSH1 0x40 DUP2 KECCAK256 DUP1 SLOAD DUP4 SWAP3 SWAP1 PUSH2 0x4434 SWAP1 DUP5 SWAP1 PUSH2 0x61ED JUMP JUMPDEST SWAP1 SWAP2 SSTORE POP PUSH2 0x4463 SWAP1 POP JUMP JUMPDEST PUSH1 0x0 DUP9 DUP2 MSTORE PUSH1 0x42 PUSH1 0x20 MSTORE PUSH1 0x40 DUP2 KECCAK256 DUP1 SLOAD DUP4 SWAP3 SWAP1 PUSH2 0x445D SWAP1 DUP5 SWAP1 PUSH2 0x61ED JUMP JUMPDEST SWAP1 SWAP2 SSTORE POP POP JUMPDEST PUSH1 0x0 DUP9 DUP2 MSTORE PUSH1 0x43 PUSH1 0x20 SWAP1 DUP2 MSTORE PUSH1 0x40 DUP3 KECCAK256 DUP1 SLOAD PUSH1 0x1 DUP2 ADD DUP3 SSTORE SWAP1 DUP4 MSTORE SWAP2 KECCAK256 ADD PUSH2 0x448B DUP8 DUP3 PUSH2 0x62F3 JUMP JUMPDEST POP PUSH1 0x40 DUP1 MLOAD PUSH1 0x1 PUSH1 0x1 PUSH1 0xA0 SHL SUB DUP8 AND DUP2 MSTORE DUP9 ISZERO ISZERO PUSH1 0x20 DUP3 ADD MSTORE SWAP1 DUP2 ADD DUP3 SWAP1 MSTORE DUP9 SWAP1 PUSH32 0xF52487ECFB56E1EA5749008407AB5DB2967701BFE848F4D02183460D06A10BA3 SWAP1 PUSH1 0x60 ADD PUSH1 0x40 MLOAD DUP1 SWAP2 SUB SWAP1 LOG2 PUSH1 0x1 PUSH1 0x5 DUP5 ADD SLOAD PUSH1 0xFF AND PUSH1 0x4 DUP2 GT ISZERO PUSH2 0x44F4 JUMPI PUSH2 0x44F4 PUSH2 0x5D98 JUMP JUMPDEST SUB PUSH2 0x178C JUMPI PUSH1 0x5 DUP4 ADD DUP1 SLOAD PUSH1 0xFF NOT AND PUSH1 0x2 SWAP1 DUP2 OR SWAP1 SWAP2 SSTORE PUSH1 0x40 MLOAD DUP10 SWAP2 PUSH32 0x7D55143B13D8FEFDB3A1F27AEA953A5E54365F38A17D57A8CED97B3AFAA6D7E SWAP2 PUSH2 0x453C SWAP2 SWAP1 PUSH2 0x6402 JUMP JUMPDEST PUSH1 0x40 MLOAD DUP1 SWAP2 SUB SWAP1 LOG2 PUSH2 0x1795 DUP6 PUSH2 0x4AD0 JUMP JUMPDEST PUSH2 0x4555 PUSH2 0x5791 JUMP JUMPDEST PUSH1 0x0 DUP3 DUP2 MSTORE PUSH1 0x46 PUSH1 0x20 SWAP1 DUP2 MSTORE PUSH1 0x40 SWAP2 DUP3 SWAP1 KECCAK256 DUP3 MLOAD PUSH2 0x100 DUP2 ADD DUP5 MSTORE DUP2 SLOAD DUP2 MSTORE PUSH1 0x1 DUP3 ADD SLOAD PUSH1 0x1 PUSH1 0x1 PUSH1 0xA0 SHL SUB AND SWAP3 DUP2 ADD SWAP3 SWAP1 SWAP3 MSTORE PUSH1 0x2 DUP2 ADD DUP1 SLOAD SWAP3 SWAP4 SWAP2 SWAP3 SWAP2 DUP5 ADD SWAP2 PUSH2 0x45A0 SWAP1 PUSH2 0x6259 JUMP JUMPDEST DUP1 PUSH1 0x1F ADD PUSH1 0x20 DUP1 SWAP2 DIV MUL PUSH1 0x20 ADD PUSH1 0x40 MLOAD SWAP1 DUP2 ADD PUSH1 0x40 MSTORE DUP1 SWAP3 SWAP2 SWAP1 DUP2 DUP2 MSTORE PUSH1 0x20 ADD DUP3 DUP1 SLOAD PUSH2 0x45CC SWAP1 PUSH2 0x6259 JUMP JUMPDEST DUP1 ISZERO PUSH2 0x4619 JUMPI DUP1 PUSH1 0x1F LT PUSH2 0x45EE JUMPI PUSH2 0x100 DUP1 DUP4 SLOAD DIV MUL DUP4 MSTORE SWAP2 PUSH1 0x20 ADD SWAP2 PUSH2 0x4619 JUMP JUMPDEST DUP3 ADD SWAP2 SWAP1 PUSH1 0x0 MSTORE PUSH1 0x20 PUSH1 0x0 KECCAK256 SWAP1 JUMPDEST DUP2 SLOAD DUP2 MSTORE SWAP1 PUSH1 0x1 ADD SWAP1 PUSH1 0x20 ADD DUP1 DUP4 GT PUSH2 0x45FC JUMPI DUP3 SWAP1 SUB PUSH1 0x1F AND DUP3 ADD SWAP2 JUMPDEST POP POP POP POP POP DUP2 MSTORE PUSH1 0x20 ADD PUSH1 0x3 DUP3 ADD DUP1 SLOAD PUSH2 0x4632 SWAP1 PUSH2 0x6259 JUMP JUMPDEST DUP1 PUSH1 0x1F ADD PUSH1 0x20 DUP1 SWAP2 DIV MUL PUSH1 0x20 ADD PUSH1 0x40 MLOAD SWAP1 DUP2 ADD PUSH1 0x40 MSTORE DUP1 SWAP3 SWAP2 SWAP1 DUP2 DUP2 MSTORE PUSH1 0x20 ADD DUP3 DUP1 SLOAD PUSH2 0x465E SWAP1 PUSH2 0x6259 JUMP JUMPDEST DUP1 ISZERO PUSH2 0x46AB JUMPI DUP1 PUSH1 0x1F LT PUSH2 0x4680 JUMPI PUSH2 0x100 DUP1 DUP4 SLOAD DIV MUL DUP4 MSTORE SWAP2 PUSH1 0x20 ADD SWAP2 PUSH2 0x46AB JUMP JUMPDEST DUP3 ADD SWAP2 SWAP1 PUSH1 0x0 MSTORE PUSH1 0x20 PUSH1 0x0 KECCAK256 SWAP1 JUMPDEST DUP2 SLOAD DUP2 MSTORE SWAP1 PUSH1 0x1 ADD SWAP1 PUSH1 0x20 ADD DUP1 DUP4 GT PUSH2 0x468E JUMPI DUP3 SWAP1 SUB PUSH1 0x1F AND DUP3 ADD SWAP2 JUMPDEST POP POP POP POP POP DUP2 MSTORE PUSH1 0x20 ADD PUSH1 0x4 DUP3 ADD DUP1 SLOAD PUSH2 0x46C4 SWAP1 PUSH2 0x6259 JUMP JUMPDEST DUP1 PUSH1 0x1F ADD PUSH1 0x20 DUP1 SWAP2 DIV MUL PUSH1 0x20 ADD PUSH1 0x40 MLOAD SWAP1 DUP2 ADD PUSH1 0x40 MSTORE DUP1 SWAP3 SWAP2 SWAP1 DUP2 DUP2 MSTORE PUSH1 0x20 ADD DUP3 DUP1 SLOAD PUSH2 0x46F0 SWAP1 PUSH2 0x6259 JUMP JUMPDEST DUP1 ISZERO PUSH2 0x473D JUMPI DUP1 PUSH1 0x1F LT PUSH2 0x4712 JUMPI PUSH2 0x100 DUP1 DUP4 SLOAD DIV MUL DUP4 MSTORE SWAP2 PUSH1 0x20 ADD SWAP2 PUSH2 0x473D JUMP JUMPDEST DUP3 ADD SWAP2 SWAP1 PUSH1 0x0 MSTORE PUSH1 0x20 PUSH1 0x0 KECCAK256 SWAP1 JUMPDEST DUP2 SLOAD DUP2 MSTORE SWAP1 PUSH1 0x1 ADD SWAP1 PUSH1 0x20 ADD DUP1 DUP4 GT PUSH2 0x4720 JUMPI DUP3 SWAP1 SUB PUSH1 0x1F AND DUP3 ADD SWAP2 JUMPDEST POP POP POP SWAP2 DUP4 MSTORE POP POP PUSH1 0x5 DUP3 ADD SLOAD PUSH1 0x20 SWAP1 SWAP2 ADD SWAP1 PUSH1 0xFF AND PUSH1 0x2 DUP2 GT ISZERO PUSH2 0x4764 JUMPI PUSH2 0x4764 PUSH2 0x5D98 JUMP JUMPDEST PUSH1 0x2 DUP2 GT ISZERO PUSH2 0x4775 JUMPI PUSH2 0x4775 PUSH2 0x5D98 JUMP JUMPDEST DUP2 MSTORE PUSH1 0x6 DUP3 ADD SLOAD PUSH1 0x20 DUP3 ADD MSTORE PUSH1 0x7 SWAP1 SWAP2 ADD SLOAD PUSH1 0x40 SWAP1 SWAP2 ADD MSTORE SWAP3 SWAP2 POP POP JUMP JUMPDEST PUSH1 0x0 DUP3 DUP2 MSTORE PUSH1 0x4D PUSH1 0x20 MSTORE PUSH1 0x40 DUP2 KECCAK256 DUP1 SLOAD ISZERO DUP1 PUSH2 0x47BF JUMPI POP PUSH1 0x1 DUP2 ADD SLOAD PUSH1 0x1 PUSH1 0x1 PUSH1 0xA0 SHL SUB DUP5 DUP2 AND SWAP2 AND EQ ISZERO JUMPDEST ISZERO PUSH2 0x47CE JUMPI PUSH1 0x0 SWAP2 POP POP PUSH2 0x1256 JUMP JUMPDEST PUSH1 0x1 PUSH1 0x4 DUP3 ADD SLOAD PUSH1 0xFF AND PUSH1 0x2 DUP2 GT ISZERO PUSH2 0x47E9 JUMPI PUSH2 0x47E9 PUSH2 0x5D98 JUMP JUMPDEST SUB PUSH2 0x4805 JUMPI PUSH1 0x39 SLOAD PUSH2 0x47FD SWAP1 PUSH1 0x2 SWAP1 PUSH2 0x6200 JUMP JUMPDEST SWAP2 POP POP PUSH2 0x1256 JUMP JUMPDEST PUSH1 0x2 PUSH1 0x4 DUP3 ADD SLOAD PUSH1 0xFF AND PUSH1 0x2 DUP2 GT ISZERO PUSH2 0x4820 JUMPI PUSH2 0x4820 PUSH2 0x5D98 JUMP JUMPDEST SUB PUSH2 0x2912 JUMPI POP POP PUSH1 0x39 SLOAD PUSH2 0x1256 JUMP JUMPDEST PUSH2 0x4837 PUSH2 0x486D JUMP JUMPDEST PUSH1 0x1 PUSH1 0x1 PUSH1 0xA0 SHL SUB DUP2 AND PUSH2 0x4861 JUMPI PUSH1 0x40 MLOAD PUSH4 0x1E4FBDF7 PUSH1 0xE0 SHL DUP2 MSTORE PUSH1 0x0 PUSH1 0x4 DUP3 ADD MSTORE PUSH1 0x24 ADD PUSH2 0xAB3 JUMP JUMPDEST PUSH2 0x486A DUP2 PUSH2 0x4DF9 JUMP JUMPDEST POP JUMP JUMPDEST CALLER PUSH2 0x4876 PUSH2 0x2865 JUMP JUMPDEST PUSH1 0x1 PUSH1 0x1 PUSH1 0xA0 SHL SUB AND EQ PUSH2 0x2112 JUMPI PUSH1 0x40 MLOAD PUSH4 0x118CDAA7 PUSH1 0xE0 SHL DUP2 MSTORE CALLER PUSH1 0x4 DUP3 ADD MSTORE PUSH1 0x24 ADD PUSH2 0xAB3 JUMP JUMPDEST PUSH1 0x36 SLOAD PUSH1 0x0 SWAP1 PUSH1 0x1 PUSH1 0x1 PUSH1 0xA0 SHL SUB AND ISZERO PUSH2 0x492A JUMPI PUSH1 0x36 SLOAD PUSH1 0x40 MLOAD PUSH4 0x6FD88EB PUSH1 0xE4 SHL DUP2 MSTORE PUSH1 0x1 PUSH1 0x1 PUSH1 0xA0 SHL SUB SWAP1 SWAP2 AND SWAP1 PUSH4 0x6FD88EB0 SWAP1 PUSH2 0x48E5 SWAP1 DUP7 SWAP1 DUP7 SWAP1 PUSH1 0x4 ADD PUSH2 0x64C8 JUMP JUMPDEST PUSH1 0x20 PUSH1 0x40 MLOAD DUP1 DUP4 SUB DUP2 DUP7 GAS STATICCALL SWAP3 POP POP POP DUP1 ISZERO PUSH2 0x491E JUMPI POP PUSH1 0x40 DUP1 MLOAD PUSH1 0x1F RETURNDATASIZE SWAP1 DUP2 ADD PUSH1 0x1F NOT AND DUP3 ADD SWAP1 SWAP3 MSTORE PUSH2 0x491B SWAP2 DUP2 ADD SWAP1 PUSH2 0x6415 JUMP JUMPDEST PUSH1 0x1 JUMPDEST ISZERO PUSH2 0x492A JUMPI SWAP1 POP PUSH2 0x1256 JUMP JUMPDEST PUSH1 0x55 DUP4 PUSH1 0x40 MLOAD PUSH2 0x493A SWAP2 SWAP1 PUSH2 0x61A8 JUMP JUMPDEST SWAP1 DUP2 MSTORE PUSH1 0x40 DUP1 MLOAD SWAP2 DUP3 SWAP1 SUB PUSH1 0x20 SWAP1 DUP2 ADD SWAP1 SWAP3 KECCAK256 PUSH1 0x1 PUSH1 0x1 PUSH1 0xA0 SHL SUB DUP6 AND PUSH1 0x0 SWAP1 DUP2 MSTORE SWAP3 MSTORE SWAP1 KECCAK256 SLOAD PUSH1 0xFF AND SWAP1 POP SWAP3 SWAP2 POP POP JUMP JUMPDEST PUSH1 0x36 SLOAD PUSH1 0x0 SWAP1 PUSH1 0x1 PUSH1 0x1 PUSH1 0xA0 SHL SUB AND ISZERO PUSH2 0x49F3 JUMPI PUSH1 0x36 SLOAD PUSH1 0x40 MLOAD PUSH3 0xC22D05 PUSH1 0xE2 SHL DUP2 MSTORE PUSH1 0x1 PUSH1 0x1 PUSH1 0xA0 SHL SUB SWAP1 SWAP2 AND SWAP1 PUSH4 0x308B414 SWAP1 PUSH2 0x49AF SWAP1 DUP6 SWAP1 PUSH1 0x4 ADD PUSH2 0x5E54 JUMP JUMPDEST PUSH1 0x20 PUSH1 0x40 MLOAD DUP1 DUP4 SUB DUP2 DUP7 GAS STATICCALL SWAP3 POP POP POP DUP1 ISZERO PUSH2 0x49E8 JUMPI POP PUSH1 0x40 DUP1 MLOAD PUSH1 0x1F RETURNDATASIZE SWAP1 DUP2 ADD PUSH1 0x1F NOT AND DUP3 ADD SWAP1 SWAP3 MSTORE PUSH2 0x49E5 SWAP2 DUP2 ADD SWAP1 PUSH2 0x6415 JUMP JUMPDEST PUSH1 0x1 JUMPDEST ISZERO PUSH2 0x49F3 JUMPI SWAP3 SWAP2 POP POP JUMP JUMPDEST PUSH1 0x54 DUP3 PUSH1 0x40 MLOAD PUSH2 0x4A03 SWAP2 SWAP1 PUSH2 0x61A8 JUMP JUMPDEST SWAP1 DUP2 MSTORE PUSH1 0x40 MLOAD SWAP1 DUP2 SWAP1 SUB PUSH1 0x20 ADD SWAP1 KECCAK256 PUSH1 0x3 ADD SLOAD PUSH1 0xFF AND SWAP3 SWAP2 POP POP JUMP JUMPDEST PUSH1 0x36 SLOAD PUSH1 0x0 SWAP1 PUSH1 0x1 PUSH1 0x1 PUSH1 0xA0 SHL SUB AND ISZERO PUSH2 0x4AA7 JUMPI PUSH1 0x36 SLOAD PUSH1 0x40 MLOAD PUSH4 0x3CE0F2F7 PUSH1 0xE0 SHL DUP2 MSTORE PUSH1 0x1 PUSH1 0x1 PUSH1 0xA0 SHL SUB SWAP1 SWAP2 AND SWAP1 PUSH4 0x3CE0F2F7 SWAP1 PUSH2 0x4A63 SWAP1 DUP6 SWAP1 PUSH1 0x4 ADD PUSH2 0x5E54 JUMP JUMPDEST PUSH1 0x20 PUSH1 0x40 MLOAD DUP1 DUP4 SUB DUP2 DUP7 GAS STATICCALL SWAP3 POP POP POP DUP1 ISZERO PUSH2 0x4A9C JUMPI POP PUSH1 0x40 DUP1 MLOAD PUSH1 0x1F RETURNDATASIZE SWAP1 DUP2 ADD PUSH1 0x1F NOT AND DUP3 ADD SWAP1 SWAP3 MSTORE PUSH2 0x4A99 SWAP2 DUP2 ADD SWAP1 PUSH2 0x6432 JUMP JUMPDEST PUSH1 0x1 JUMPDEST ISZERO PUSH2 0x4AA7 JUMPI SWAP3 SWAP2 POP POP JUMP JUMPDEST PUSH1 0x54 DUP3 PUSH1 0x40 MLOAD PUSH2 0x4AB7 SWAP2 SWAP1 PUSH2 0x61A8 JUMP JUMPDEST SWAP1 DUP2 MSTORE PUSH1 0x20 ADD PUSH1 0x40 MLOAD DUP1 SWAP2 SUB SWAP1 KECCAK256 PUSH1 0x5 ADD SLOAD SWAP1 POP SWAP2 SWAP1 POP JUMP JUMPDEST PUSH1 0x35 SLOAD PUSH1 0x1 PUSH1 0x1 PUSH1 0xA0 SHL SUB AND ISZERO PUSH2 0x4B41 JUMPI PUSH1 0x35 SLOAD PUSH1 0x40 MLOAD PUSH4 0x369ECA8F PUSH1 0xE2 SHL DUP2 MSTORE PUSH1 0x1 PUSH1 0x1 PUSH1 0xA0 SHL SUB DUP4 DUP2 AND PUSH1 0x4 DUP4 ADD MSTORE SWAP1 SWAP2 AND SWAP1 PUSH4 0xDA7B2A3C SWAP1 PUSH1 0x24 ADD PUSH1 0x0 PUSH1 0x40 MLOAD DUP1 DUP4 SUB DUP2 PUSH1 0x0 DUP8 DUP1 EXTCODESIZE ISZERO DUP1 ISZERO PUSH2 0x4B28 JUMPI PUSH1 0x0 DUP1 REVERT JUMPDEST POP GAS CALL SWAP3 POP POP POP DUP1 ISZERO PUSH2 0x4B39 JUMPI POP PUSH1 0x1 JUMPDEST ISZERO PUSH2 0x4B41 JUMPI POP JUMP JUMPDEST PUSH1 0x34 SLOAD PUSH1 0x1 PUSH1 0x1 PUSH1 0xA0 SHL SUB AND ISZERO PUSH2 0x4BAC JUMPI PUSH1 0x34 SLOAD PUSH1 0x40 MLOAD PUSH4 0x369ECA8F PUSH1 0xE2 SHL DUP2 MSTORE PUSH1 0x1 PUSH1 0x1 PUSH1 0xA0 SHL SUB DUP4 DUP2 AND PUSH1 0x4 DUP4 ADD MSTORE SWAP1 SWAP2 AND SWAP1 PUSH4 0xDA7B2A3C SWAP1 PUSH1 0x24 ADD PUSH1 0x0 PUSH1 0x40 MLOAD DUP1 DUP4 SUB DUP2 PUSH1 0x0 DUP8 DUP1 EXTCODESIZE ISZERO DUP1 ISZERO PUSH2 0x4B99 JUMPI PUSH1 0x0 DUP1 REVERT JUMPDEST POP GAS CALL SWAP3 POP POP POP DUP1 ISZERO PUSH2 0x4BAA JUMPI POP PUSH1 0x1 JUMPDEST POP JUMPDEST PUSH1 0x33 SLOAD PUSH1 0x1 PUSH1 0x1 PUSH1 0xA0 SHL SUB AND ISZERO PUSH2 0x486A JUMPI PUSH1 0x33 SLOAD PUSH1 0x40 MLOAD PUSH4 0x369ECA8F PUSH1 0xE2 SHL DUP2 MSTORE PUSH1 0x1 PUSH1 0x1 PUSH1 0xA0 SHL SUB DUP4 DUP2 AND PUSH1 0x4 DUP4 ADD MSTORE SWAP1 SWAP2 AND SWAP1 PUSH4 0xDA7B2A3C SWAP1 PUSH1 0x24 ADD PUSH1 0x0 PUSH1 0x40 MLOAD DUP1 DUP4 SUB DUP2 PUSH1 0x0 DUP8 DUP1 EXTCODESIZE ISZERO DUP1 ISZERO PUSH2 0x4C04 JUMPI PUSH1 0x0 DUP1 REVERT JUMPDEST POP GAS CALL SWAP3 POP POP POP DUP1 ISZERO PUSH2 0x4C15 JUMPI POP PUSH1 0x1 JUMPDEST ISZERO PUSH2 0x486A JUMPI POP JUMP JUMPDEST ADDRESS PUSH1 0x1 PUSH1 0x1 PUSH1 0xA0 SHL SUB PUSH32 0x0 AND EQ DUP1 PUSH2 0x4CB6 JUMPI POP PUSH32 0x0 PUSH1 0x1 PUSH1 0x1 PUSH1 0xA0 SHL SUB AND PUSH2 0x4CAA PUSH32 0x360894A13BA1A3210667C828492DB98DCA3E2076CC3735A920A3CA505D382BBC SLOAD PUSH1 0x1 PUSH1 0x1 PUSH1 0xA0 SHL SUB AND SWAP1 JUMP JUMPDEST PUSH1 0x1 PUSH1 0x1 PUSH1 0xA0 SHL SUB AND EQ ISZERO JUMPDEST ISZERO PUSH2 0x2112 JUMPI PUSH1 0x40 MLOAD PUSH4 0x703E46DD PUSH1 0xE1 SHL DUP2 MSTORE PUSH1 0x4 ADD PUSH1 0x40 MLOAD DUP1 SWAP2 SUB SWAP1 REVERT JUMPDEST PUSH2 0x486A PUSH2 0x486D JUMP JUMPDEST DUP2 PUSH1 0x1 PUSH1 0x1 PUSH1 0xA0 SHL SUB AND PUSH4 0x52D1902D PUSH1 0x40 MLOAD DUP2 PUSH4 0xFFFFFFFF AND PUSH1 0xE0 SHL DUP2 MSTORE PUSH1 0x4 ADD PUSH1 0x20 PUSH1 0x40 MLOAD DUP1 DUP4 SUB DUP2 DUP7 GAS STATICCALL SWAP3 POP POP POP DUP1 ISZERO PUSH2 0x4D36 JUMPI POP PUSH1 0x40 DUP1 MLOAD PUSH1 0x1F RETURNDATASIZE SWAP1 DUP2 ADD PUSH1 0x1F NOT AND DUP3 ADD SWAP1 SWAP3 MSTORE PUSH2 0x4D33 SWAP2 DUP2 ADD SWAP1 PUSH2 0x6432 JUMP JUMPDEST PUSH1 0x1 JUMPDEST PUSH2 0x4D5E JUMPI PUSH1 0x40 MLOAD PUSH4 0x4C9C8CE3 PUSH1 0xE0 SHL DUP2 MSTORE PUSH1 0x1 PUSH1 0x1 PUSH1 0xA0 SHL SUB DUP4 AND PUSH1 0x4 DUP3 ADD MSTORE PUSH1 0x24 ADD PUSH2 0xAB3 JUMP JUMPDEST PUSH32 0x360894A13BA1A3210667C828492DB98DCA3E2076CC3735A920A3CA505D382BBC DUP2 EQ PUSH2 0x4DA1 JUMPI PUSH1 0x40 MLOAD PUSH4 0x2A875269 PUSH1 0xE2 SHL DUP2 MSTORE PUSH1 0x4 DUP2 ADD DUP3 SWAP1 MSTORE PUSH1 0x24 ADD PUSH2 0xAB3 JUMP JUMPDEST PUSH2 0x4DAB DUP4 DUP4 PUSH2 0x547B JUMP JUMPDEST POP POP POP JUMP JUMPDEST ADDRESS PUSH1 0x1 PUSH1 0x1 PUSH1 0xA0 SHL SUB PUSH32 0x0 AND EQ PUSH2 0x2112 JUMPI PUSH1 0x40 MLOAD PUSH4 0x703E46DD PUSH1 0xE1 SHL DUP2 MSTORE PUSH1 0x4 ADD PUSH1 0x40 MLOAD DUP1 SWAP2 SUB SWAP1 REVERT JUMPDEST PUSH32 0x9016D09D72D40FDAE2FD8CEAC6B6234C7706214FD39C1CD1E609A0528C199300 DUP1 SLOAD PUSH1 0x1 PUSH1 0x1 PUSH1 0xA0 SHL SUB NOT DUP2 AND PUSH1 0x1 PUSH1 0x1 PUSH1 0xA0 SHL SUB DUP5 DUP2 AND SWAP2 DUP3 OR DUP5 SSTORE PUSH1 0x40 MLOAD SWAP3 AND SWAP2 DUP3 SWAP1 PUSH32 0x8BE0079C531659141344CD1FD0A4F28419497F9722A3DAAFE3B4186F6B6457E0 SWAP1 PUSH1 0x0 SWAP1 LOG3 POP POP POP JUMP JUMPDEST PUSH1 0x1 PUSH1 0x1 PUSH1 0xA0 SHL SUB DUP4 AND PUSH1 0x0 SWAP1 DUP2 MSTORE PUSH1 0x44 PUSH1 0x20 MSTORE PUSH1 0x40 SWAP1 DUP2 SWAP1 KECCAK256 SWAP1 MLOAD PUSH1 0x1 SWAP2 SWAP1 PUSH2 0x4E95 SWAP1 DUP6 SWAP1 PUSH2 0x61A8 JUMP JUMPDEST SWAP1 DUP2 MSTORE PUSH1 0x40 DUP1 MLOAD SWAP2 DUP3 SWAP1 SUB PUSH1 0x20 SWAP1 DUP2 ADD DUP4 KECCAK256 DUP1 SLOAD SWAP5 ISZERO ISZERO PUSH1 0xFF NOT SWAP6 DUP7 AND OR SWAP1 SSTORE PUSH1 0x0 DUP6 DUP2 MSTORE PUSH1 0x46 SWAP1 SWAP2 MSTORE KECCAK256 PUSH1 0x5 DUP2 ADD DUP1 SLOAD SWAP1 SWAP4 AND PUSH1 0x1 OR SWAP1 SWAP3 SSTORE TIMESTAMP PUSH1 0x7 DUP4 ADD SSTORE PUSH32 0xDBABE9B529FC24BFDFCD36B59A6DBE007A7821733B63A5B8C95F6277AB5EC866 SWAP1 PUSH2 0x4F06 SWAP1 DUP7 SWAP1 DUP7 SWAP1 DUP7 SWAP1 PUSH2 0x658D JUMP JUMPDEST PUSH1 0x40 MLOAD DUP1 SWAP2 SUB SWAP1 LOG1 PUSH1 0x36 SLOAD PUSH1 0x1 PUSH1 0x1 PUSH1 0xA0 SHL SUB AND ISZERO PUSH2 0x4F7E JUMPI PUSH1 0x36 SLOAD PUSH1 0x40 MLOAD PUSH4 0x44B4461 PUSH1 0xE3 SHL DUP2 MSTORE PUSH1 0x1 PUSH1 0x1 PUSH1 0xA0 SHL SUB SWAP1 SWAP2 AND SWAP1 PUSH4 0x225A2308 SWAP1 PUSH2 0x4F51 SWAP1 DUP8 SWAP1 DUP8 SWAP1 PUSH1 0x4 ADD PUSH2 0x6462 JUMP JUMPDEST PUSH1 0x0 PUSH1 0x40 MLOAD DUP1 DUP4 SUB DUP2 PUSH1 0x0 DUP8 DUP1 EXTCODESIZE ISZERO DUP1 ISZERO PUSH2 0x4F6B JUMPI PUSH1 0x0 DUP1 REVERT JUMPDEST POP GAS CALL SWAP3 POP POP POP DUP1 ISZERO PUSH2 0x4F7C JUMPI POP PUSH1 0x1 JUMPDEST POP JUMPDEST PUSH1 0x33 SLOAD PUSH1 0x1 PUSH1 0x1 PUSH1 0xA0 SHL SUB AND ISZERO PUSH2 0x5007 JUMPI PUSH1 0x33 SLOAD PUSH1 0x40 MLOAD PUSH4 0x9F385259 PUSH1 0xE0 SHL DUP2 MSTORE PUSH1 0x1 PUSH1 0x1 PUSH1 0xA0 SHL SUB SWAP2 DUP3 AND SWAP2 PUSH4 0x9F385259 SWAP2 PUSH2 0x4FC4 SWAP2 DUP9 AND SWAP1 DUP7 SWAP1 DUP9 SWAP1 PUSH1 0x4 ADD PUSH2 0x65BF JUMP JUMPDEST PUSH1 0x20 PUSH1 0x40 MLOAD DUP1 DUP4 SUB DUP2 PUSH1 0x0 DUP8 GAS CALL SWAP3 POP POP POP DUP1 ISZERO PUSH2 0x4FFF JUMPI POP PUSH1 0x40 DUP1 MLOAD PUSH1 0x1F RETURNDATASIZE SWAP1 DUP2 ADD PUSH1 0x1F NOT AND DUP3 ADD SWAP1 SWAP3 MSTORE PUSH2 0x4FFC SWAP2 DUP2 ADD SWAP1 PUSH2 0x6415 JUMP JUMPDEST PUSH1 0x1 JUMPDEST ISZERO PUSH2 0x5007 JUMPI JUMPDEST POP JUMPDEST POP POP POP POP JUMP JUMPDEST PUSH1 0x0 DUP2 DUP2 MSTORE PUSH1 0x46 PUSH1 0x20 MSTORE PUSH1 0x40 SWAP1 DUP2 SWAP1 KECCAK256 PUSH1 0x5 DUP2 ADD DUP1 SLOAD PUSH1 0xFF NOT AND PUSH1 0x2 OR SWAP1 SSTORE SWAP1 MLOAD PUSH32 0xEC2AB926AB5489978021EFCD4EBB416764A38EFCDD076036B96D3B57B5E0625C SWAP1 PUSH2 0x505F SWAP1 DUP7 SWAP1 DUP7 SWAP1 DUP7 SWAP1 PUSH2 0x658D JUMP JUMPDEST PUSH1 0x40 MLOAD DUP1 SWAP2 SUB SWAP1 LOG1 POP POP POP POP JUMP JUMPDEST PUSH1 0x0 DUP1 PUSH32 0xF0C57E16840DF040F15088DC2F81FE391C3923BEC73E23A9662EFC9C229C6A00 PUSH2 0x1256 JUMP JUMPDEST PUSH2 0x509E PUSH2 0x54D1 JUMP JUMPDEST PUSH2 0x486A DUP2 PUSH2 0x54F6 JUMP JUMPDEST PUSH2 0x50AF PUSH2 0x54D1 JUMP JUMPDEST PUSH2 0x2112 PUSH2 0x54FE JUMP JUMPDEST PUSH2 0x2112 PUSH2 0x54D1 JUMP JUMPDEST PUSH1 0x0 DUP1 DUP1 DUP1 DUP1 DUP1 PUSH2 0x50D2 DUP9 DUP11 ADD DUP11 PUSH2 0x65EE JUMP JUMPDEST SWAP6 POP SWAP6 POP SWAP6 POP SWAP6 POP SWAP6 POP SWAP6 POP PUSH1 0x0 PUSH2 0x50ED DUP7 DUP7 DUP7 DUP7 DUP7 PUSH2 0x25F5 JUMP JUMPDEST PUSH1 0x1 PUSH1 0x1 PUSH1 0xA0 SHL SUB DUP8 AND PUSH1 0x0 SWAP1 DUP2 MSTORE PUSH1 0x58 PUSH1 0x20 MSTORE PUSH1 0x40 DUP2 KECCAK256 DUP1 SLOAD SWAP3 SWAP4 POP SWAP1 PUSH2 0x5114 DUP4 PUSH2 0x6293 JUMP JUMPDEST SWAP2 SWAP1 POP SSTORE POP DUP5 DUP7 PUSH1 0x1 PUSH1 0x1 PUSH1 0xA0 SHL SUB AND PUSH32 0xE95392CE3565E207E71FA9976B51715469A676007D49ABC87A5F80261B7E78D2 DUP4 PUSH1 0x40 MLOAD PUSH2 0x5155 SWAP2 DUP2 MSTORE PUSH1 0x20 ADD SWAP1 JUMP JUMPDEST PUSH1 0x40 MLOAD DUP1 SWAP2 SUB SWAP1 LOG3 DUP8 PUSH1 0x0 DUP1 MLOAD PUSH1 0x20 PUSH2 0x6898 DUP4 CODECOPY DUP2 MLOAD SWAP2 MSTORE DUP9 DUP9 PUSH1 0x40 MLOAD PUSH2 0x517D SWAP3 SWAP2 SWAP1 PUSH2 0x64C8 JUMP JUMPDEST PUSH1 0x40 MLOAD DUP1 SWAP2 SUB SWAP1 LOG2 POP POP POP POP POP POP POP POP POP POP JUMP JUMPDEST PUSH1 0x0 DUP1 DUP1 DUP1 PUSH2 0x51A2 DUP7 DUP9 ADD DUP9 PUSH2 0x66A6 JUMP JUMPDEST SWAP4 POP SWAP4 POP SWAP4 POP SWAP4 POP PUSH1 0x0 PUSH2 0x51CA DUP4 DUP4 PUSH1 0x40 MLOAD DUP1 PUSH1 0x20 ADD PUSH1 0x40 MSTORE DUP1 PUSH1 0x0 DUP2 MSTORE POP DUP8 PUSH1 0x0 DUP1 PUSH2 0x199C JUMP JUMPDEST PUSH1 0x1 PUSH1 0x1 PUSH1 0xA0 SHL SUB DUP6 AND PUSH1 0x0 SWAP1 DUP2 MSTORE PUSH1 0x58 PUSH1 0x20 MSTORE PUSH1 0x40 DUP2 KECCAK256 DUP1 SLOAD SWAP3 SWAP4 POP SWAP1 PUSH2 0x51F1 DUP4 PUSH2 0x6293 JUMP JUMPDEST SWAP2 SWAP1 POP SSTORE POP DUP3 DUP5 PUSH1 0x1 PUSH1 0x1 PUSH1 0xA0 SHL SUB AND PUSH32 0xE95392CE3565E207E71FA9976B51715469A676007D49ABC87A5F80261B7E78D2 DUP4 PUSH1 0x40 MLOAD PUSH2 0x5232 SWAP2 DUP2 MSTORE PUSH1 0x20 ADD SWAP1 JUMP JUMPDEST PUSH1 0x40 MLOAD DUP1 SWAP2 SUB SWAP1 LOG3 DUP6 PUSH1 0x0 DUP1 MLOAD PUSH1 0x20 PUSH2 0x6898 DUP4 CODECOPY DUP2 MLOAD SWAP2 MSTORE DUP7 DUP7 PUSH1 0x40 MLOAD PUSH2 0x525A SWAP3 SWAP2 SWAP1 PUSH2 0x64C8 JUMP JUMPDEST PUSH1 0x40 MLOAD DUP1 SWAP2 SUB SWAP1 LOG2 POP POP POP POP POP POP POP POP JUMP JUMPDEST PUSH1 0x0 DUP1 DUP1 DUP1 DUP1 PUSH2 0x527E DUP8 DUP10 ADD DUP10 PUSH2 0x6729 JUMP JUMPDEST SWAP5 POP SWAP5 POP SWAP5 POP SWAP5 POP SWAP5 POP PUSH1 0x0 PUSH2 0x5296 DUP6 DUP6 DUP6 DUP6 PUSH2 0xA63 JUMP JUMPDEST PUSH1 0x1 PUSH1 0x1 PUSH1 0xA0 SHL SUB DUP7 AND PUSH1 0x0 SWAP1 DUP2 MSTORE PUSH1 0x59 PUSH1 0x20 MSTORE PUSH1 0x40 DUP2 KECCAK256 DUP1 SLOAD SWAP3 SWAP4 POP SWAP1 PUSH2 0x52BD DUP4 PUSH2 0x6293 JUMP JUMPDEST SWAP2 SWAP1 POP SSTORE POP DUP5 PUSH1 0x1 PUSH1 0x1 PUSH1 0xA0 SHL SUB AND PUSH32 0x82C540B852403F92232307109B61CEC76AA5D2801328ADFAE34AC16D4286F256 DUP6 DUP4 PUSH1 0x40 MLOAD PUSH2 0x52FD SWAP3 SWAP2 SWAP1 PUSH2 0x678F JUMP JUMPDEST PUSH1 0x40 MLOAD DUP1 SWAP2 SUB SWAP1 LOG2 DUP7 PUSH1 0x0 DUP1 MLOAD PUSH1 0x20 PUSH2 0x6898 DUP4 CODECOPY DUP2 MLOAD SWAP2 MSTORE DUP8 DUP8 PUSH1 0x40 MLOAD PUSH2 0x5325 SWAP3 SWAP2 SWAP1 PUSH2 0x64C8 JUMP JUMPDEST PUSH1 0x40 MLOAD DUP1 SWAP2 SUB SWAP1 LOG2 POP POP POP POP POP POP POP POP POP JUMP JUMPDEST PUSH1 0x0 DUP1 DUP1 DUP1 DUP1 DUP1 PUSH2 0x534B DUP9 DUP11 ADD DUP11 PUSH2 0x67B1 JUMP JUMPDEST SWAP6 POP SWAP6 POP SWAP6 POP SWAP6 POP SWAP6 POP SWAP6 POP PUSH1 0x0 PUSH2 0x5366 DUP7 DUP7 DUP7 DUP7 DUP7 PUSH2 0x291C JUMP JUMPDEST PUSH1 0x1 PUSH1 0x1 PUSH1 0xA0 SHL SUB DUP8 AND PUSH1 0x0 SWAP1 DUP2 MSTORE PUSH1 0x5A PUSH1 0x20 MSTORE PUSH1 0x40 DUP2 KECCAK256 DUP1 SLOAD SWAP3 SWAP4 POP SWAP1 PUSH2 0x538D DUP4 PUSH2 0x6293 JUMP JUMPDEST SWAP2 SWAP1 POP SSTORE POP DUP6 PUSH1 0x1 PUSH1 0x1 PUSH1 0xA0 SHL SUB AND PUSH32 0xA28ADC59ED17D9026D7BBCF8EDB8BCCDA9C9135E5F31C3DEB1E532B049621CC4 DUP7 DUP4 PUSH1 0x40 MLOAD PUSH2 0x53CD SWAP3 SWAP2 SWAP1 PUSH2 0x678F JUMP JUMPDEST PUSH1 0x40 MLOAD DUP1 SWAP2 SUB SWAP1 LOG2 DUP8 PUSH1 0x0 DUP1 MLOAD PUSH1 0x20 PUSH2 0x6898 DUP4 CODECOPY DUP2 MLOAD SWAP2 MSTORE DUP9 DUP9 PUSH1 0x40 MLOAD PUSH2 0x517D SWAP3 SWAP2 SWAP1 PUSH2 0x64C8 JUMP JUMPDEST PUSH1 0x0 DUP1 DUP1 PUSH2 0x5405 DUP6 DUP8 ADD DUP8 PUSH2 0x683E JUMP JUMPDEST SWAP3 POP SWAP3 POP SWAP3 POP PUSH2 0x5415 DUP3 DUP3 PUSH2 0xF7F JUMP JUMPDEST PUSH1 0x40 MLOAD DUP2 SWAP1 PUSH1 0x1 PUSH1 0x1 PUSH1 0xA0 SHL SUB DUP5 AND SWAP1 PUSH32 0x7791E5252A7E897A2C01600D418A19CCF95F2FE554F3AF3A29A3A84565ECF174 SWAP1 PUSH1 0x0 SWAP1 LOG3 DUP4 PUSH1 0x0 DUP1 MLOAD PUSH1 0x20 PUSH2 0x6898 DUP4 CODECOPY DUP2 MLOAD SWAP2 MSTORE DUP5 DUP5 PUSH1 0x40 MLOAD PUSH2 0x546B SWAP3 SWAP2 SWAP1 PUSH2 0x64C8 JUMP JUMPDEST PUSH1 0x40 MLOAD DUP1 SWAP2 SUB SWAP1 LOG2 POP POP POP POP POP POP JUMP JUMPDEST PUSH2 0x5484 DUP3 PUSH2 0x550D JUMP JUMPDEST PUSH1 0x40 MLOAD PUSH1 0x1 PUSH1 0x1 PUSH1 0xA0 SHL SUB DUP4 AND SWAP1 PUSH32 0xBC7CD75A20EE27FD9ADEBAB32041F755214DBC6BFFA90CC0225B39DA2E5C2D3B SWAP1 PUSH1 0x0 SWAP1 LOG2 DUP1 MLOAD ISZERO PUSH2 0x54C9 JUMPI PUSH2 0x4DAB DUP3 DUP3 PUSH2 0x5584 JUMP JUMPDEST PUSH2 0x17BE PUSH2 0x55F1 JUMP JUMPDEST PUSH2 0x54D9 PUSH2 0x5610 JUMP JUMPDEST PUSH2 0x2112 JUMPI PUSH1 0x40 MLOAD PUSH4 0x1AFCD79F PUSH1 0xE3 SHL DUP2 MSTORE PUSH1 0x4 ADD PUSH1 0x40 MLOAD DUP1 SWAP2 SUB SWAP1 REVERT JUMPDEST PUSH2 0x4837 PUSH2 0x54D1 JUMP JUMPDEST PUSH2 0x5506 PUSH2 0x54D1 JUMP JUMPDEST PUSH1 0x1 PUSH1 0x0 SSTORE JUMP JUMPDEST DUP1 PUSH1 0x1 PUSH1 0x1 PUSH1 0xA0 SHL SUB AND EXTCODESIZE PUSH1 0x0 SUB PUSH2 0x5543 JUMPI PUSH1 0x40 MLOAD PUSH4 0x4C9C8CE3 PUSH1 0xE0 SHL DUP2 MSTORE PUSH1 0x1 PUSH1 0x1 PUSH1 0xA0 SHL SUB DUP3 AND PUSH1 0x4 DUP3 ADD MSTORE PUSH1 0x24 ADD PUSH2 0xAB3 JUMP JUMPDEST PUSH32 0x360894A13BA1A3210667C828492DB98DCA3E2076CC3735A920A3CA505D382BBC DUP1 SLOAD PUSH1 0x1 PUSH1 0x1 PUSH1 0xA0 SHL SUB NOT AND PUSH1 0x1 PUSH1 0x1 PUSH1 0xA0 SHL SUB SWAP3 SWAP1 SWAP3 AND SWAP2 SWAP1 SWAP2 OR SWAP1 SSTORE JUMP JUMPDEST PUSH1 0x60 PUSH1 0x0 DUP1 DUP5 PUSH1 0x1 PUSH1 0x1 PUSH1 0xA0 SHL SUB AND DUP5 PUSH1 0x40 MLOAD PUSH2 0x55A1 SWAP2 SWAP1 PUSH2 0x61A8 JUMP JUMPDEST PUSH1 0x0 PUSH1 0x40 MLOAD DUP1 DUP4 SUB DUP2 DUP6 GAS DELEGATECALL SWAP2 POP POP RETURNDATASIZE DUP1 PUSH1 0x0 DUP2 EQ PUSH2 0x55DC JUMPI PUSH1 0x40 MLOAD SWAP2 POP PUSH1 0x1F NOT PUSH1 0x3F RETURNDATASIZE ADD AND DUP3 ADD PUSH1 0x40 MSTORE RETURNDATASIZE DUP3 MSTORE RETURNDATASIZE PUSH1 0x0 PUSH1 0x20 DUP5 ADD RETURNDATACOPY PUSH2 0x55E1 JUMP JUMPDEST PUSH1 0x60 SWAP2 POP JUMPDEST POP SWAP2 POP SWAP2 POP PUSH2 0xC24 DUP6 DUP4 DUP4 PUSH2 0x562A JUMP JUMPDEST CALLVALUE ISZERO PUSH2 0x2112 JUMPI PUSH1 0x40 MLOAD PUSH4 0xB398979F PUSH1 0xE0 SHL DUP2 MSTORE PUSH1 0x4 ADD PUSH1 0x40 MLOAD DUP1 SWAP2 SUB SWAP1 REVERT JUMPDEST PUSH1 0x0 PUSH2 0x561A PUSH2 0x506D JUMP JUMPDEST SLOAD PUSH1 0x1 PUSH1 0x40 SHL SWAP1 DIV PUSH1 0xFF AND SWAP2 SWAP1 POP JUMP JUMPDEST PUSH1 0x60 DUP3 PUSH2 0x563F JUMPI PUSH2 0x563A DUP3 PUSH2 0x5686 JUMP JUMPDEST PUSH2 0x1995 JUMP JUMPDEST DUP2 MLOAD ISZERO DUP1 ISZERO PUSH2 0x5656 JUMPI POP PUSH1 0x1 PUSH1 0x1 PUSH1 0xA0 SHL SUB DUP5 AND EXTCODESIZE ISZERO JUMPDEST ISZERO PUSH2 0x567F JUMPI PUSH1 0x40 MLOAD PUSH4 0x9996B315 PUSH1 0xE0 SHL DUP2 MSTORE PUSH1 0x1 PUSH1 0x1 PUSH1 0xA0 SHL SUB DUP6 AND PUSH1 0x4 DUP3 ADD MSTORE PUSH1 0x24 ADD PUSH2 0xAB3 JUMP JUMPDEST POP DUP1 PUSH2 0x1995 JUMP JUMPDEST DUP1 MLOAD ISZERO PUSH2 0x5696 JUMPI DUP1 MLOAD DUP1 DUP3 PUSH1 0x20 ADD REVERT JUMPDEST PUSH1 0x40 MLOAD PUSH4 0xD6BDA275 PUSH1 0xE0 SHL DUP2 MSTORE PUSH1 0x4 ADD PUSH1 0x40 MLOAD DUP1 SWAP2 SUB SWAP1 REVERT JUMPDEST PUSH1 0x40 MLOAD DUP1 PUSH1 0xE0 ADD PUSH1 0x40 MSTORE DUP1 PUSH1 0x0 DUP2 MSTORE PUSH1 0x20 ADD PUSH1 0x0 PUSH1 0x1 PUSH1 0x1 PUSH1 0xA0 SHL SUB AND DUP2 MSTORE PUSH1 0x20 ADD PUSH1 0x60 DUP2 MSTORE PUSH1 0x20 ADD PUSH1 0x60 DUP2 MSTORE PUSH1 0x20 ADD PUSH1 0x0 PUSH1 0x2 DUP2 GT ISZERO PUSH2 0x56F2 JUMPI PUSH2 0x56F2 PUSH2 0x5D98 JUMP JUMPDEST DUP2 MSTORE PUSH1 0x20 ADD PUSH1 0x0 DUP2 MSTORE PUSH1 0x20 ADD PUSH1 0x0 DUP2 MSTORE POP SWAP1 JUMP JUMPDEST PUSH1 0x40 DUP1 MLOAD PUSH2 0x200 DUP2 ADD DUP3 MSTORE PUSH1 0x0 DUP1 DUP3 MSTORE PUSH1 0x20 DUP3 ADD DUP2 SWAP1 MSTORE SWAP2 DUP2 ADD DUP3 SWAP1 MSTORE PUSH1 0x60 DUP1 DUP3 ADD DUP4 SWAP1 MSTORE PUSH1 0x80 DUP3 ADD MSTORE SWAP1 PUSH1 0xA0 DUP3 ADD SWAP1 DUP2 MSTORE PUSH1 0x20 ADD PUSH1 0x0 ISZERO ISZERO DUP2 MSTORE PUSH1 0x20 ADD PUSH1 0x0 ISZERO ISZERO DUP2 MSTORE PUSH1 0x20 ADD PUSH1 0x0 PUSH1 0x1 PUSH1 0x1 PUSH1 0xA0 SHL SUB AND DUP2 MSTORE PUSH1 0x20 ADD PUSH1 0x0 DUP2 MSTORE PUSH1 0x20 ADD PUSH1 0x0 DUP2 MSTORE PUSH1 0x20 ADD PUSH1 0x0 DUP2 MSTORE PUSH1 0x20 ADD PUSH1 0x60 DUP2 MSTORE PUSH1 0x20 ADD PUSH1 0x60 DUP2 MSTORE PUSH1 0x20 ADD PUSH1 0x0 DUP2 MSTORE PUSH1 0x20 ADD PUSH1 0x0 ISZERO ISZERO DUP2 MSTORE POP SWAP1 JUMP JUMPDEST PUSH1 0x40 MLOAD DUP1 PUSH2 0x100 ADD PUSH1 0x40 MSTORE DUP1 PUSH1 0x0 DUP2 MSTORE PUSH1 0x20 ADD PUSH1 0x0 PUSH1 0x1 PUSH1 0x1 PUSH1 0xA0 SHL SUB AND DUP2 MSTORE PUSH1 0x20 ADD PUSH1 0x60 DUP2 MSTORE PUSH1 0x20 ADD PUSH1 0x60 DUP2 MSTORE PUSH1 0x20 ADD PUSH1 0x60 DUP2 MSTORE PUSH1 0x20 ADD PUSH1 0x0 PUSH1 0x2 DUP2 GT ISZERO PUSH2 0x56F2 JUMPI PUSH2 0x56F2 PUSH2 0x5D98 JUMP JUMPDEST PUSH1 0x0 PUSH1 0x20 DUP3 DUP5 SUB SLT ISZERO PUSH2 0x57EE JUMPI PUSH1 0x0 DUP1 REVERT JUMPDEST POP CALLDATALOAD SWAP2 SWAP1 POP JUMP JUMPDEST PUSH1 0x1 PUSH1 0x1 PUSH1 0xA0 SHL SUB DUP2 AND DUP2 EQ PUSH2 0x486A JUMPI PUSH1 0x0 DUP1 REVERT JUMPDEST PUSH4 0x4E487B71 PUSH1 0xE0 SHL PUSH1 0x0 MSTORE PUSH1 0x41 PUSH1 0x4 MSTORE PUSH1 0x24 PUSH1 0x0 REVERT JUMPDEST PUSH1 0x0 DUP1 PUSH1 0x1 PUSH1 0x1 PUSH1 0x40 SHL SUB DUP5 GT ISZERO PUSH2 0x583A JUMPI PUSH2 0x583A PUSH2 0x580A JUMP JUMPDEST POP PUSH1 0x40 MLOAD PUSH1 0x1F NOT PUSH1 0x1F DUP6 ADD DUP2 AND PUSH1 0x3F ADD AND DUP2 ADD DUP2 DUP2 LT PUSH1 0x1 PUSH1 0x1 PUSH1 0x40 SHL SUB DUP3 GT OR ISZERO PUSH2 0x5868 JUMPI PUSH2 0x5868 PUSH2 0x580A JUMP JUMPDEST PUSH1 0x40 MSTORE DUP4 DUP2 MSTORE SWAP1 POP DUP1 DUP3 DUP5 ADD DUP6 LT ISZERO PUSH2 0x5880 JUMPI PUSH1 0x0 DUP1 REVERT JUMPDEST DUP4 DUP4 PUSH1 0x20 DUP4 ADD CALLDATACOPY PUSH1 0x0 PUSH1 0x20 DUP6 DUP4 ADD ADD MSTORE POP SWAP4 SWAP3 POP POP POP JUMP JUMPDEST PUSH1 0x0 DUP3 PUSH1 0x1F DUP4 ADD SLT PUSH2 0x58A9 JUMPI PUSH1 0x0 DUP1 REVERT JUMPDEST PUSH2 0x1995 DUP4 DUP4 CALLDATALOAD PUSH1 0x20 DUP6 ADD PUSH2 0x5820 JUMP JUMPDEST PUSH1 0x0 DUP1 PUSH1 0x0 DUP1 PUSH1 0x80 DUP6 DUP8 SUB SLT ISZERO PUSH2 0x58CE JUMPI PUSH1 0x0 DUP1 REVERT JUMPDEST DUP5 CALLDATALOAD PUSH2 0x58D9 DUP2 PUSH2 0x57F5 JUMP JUMPDEST SWAP4 POP PUSH1 0x20 DUP6 ADD CALLDATALOAD PUSH1 0x1 PUSH1 0x1 PUSH1 0x40 SHL SUB DUP2 GT ISZERO PUSH2 0x58F4 JUMPI PUSH1 0x0 DUP1 REVERT JUMPDEST PUSH2 0x5900 DUP8 DUP3 DUP9 ADD PUSH2 0x5898 JUMP JUMPDEST SWAP4 POP POP PUSH1 0x40 DUP6 ADD CALLDATALOAD PUSH1 0x1 PUSH1 0x1 PUSH1 0x40 SHL SUB DUP2 GT ISZERO PUSH2 0x591C JUMPI PUSH1 0x0 DUP1 REVERT JUMPDEST PUSH2 0x5928 DUP8 DUP3 DUP9 ADD PUSH2 0x5898 JUMP JUMPDEST SWAP5 SWAP8 SWAP4 SWAP7 POP SWAP4 SWAP5 PUSH1 0x60 ADD CALLDATALOAD SWAP4 POP POP POP JUMP JUMPDEST PUSH1 0x0 PUSH1 0x20 DUP3 DUP5 SUB SLT ISZERO PUSH2 0x594B JUMPI PUSH1 0x0 DUP1 REVERT JUMPDEST DUP2 CALLDATALOAD PUSH2 0x1995 DUP2 PUSH2 0x57F5 JUMP JUMPDEST PUSH1 0x0 DUP1 PUSH1 0x40 DUP4 DUP6 SUB SLT ISZERO PUSH2 0x5969 JUMPI PUSH1 0x0 DUP1 REVERT JUMPDEST DUP3 CALLDATALOAD PUSH2 0x5974 DUP2 PUSH2 0x57F5 JUMP JUMPDEST SWAP5 PUSH1 0x20 SWAP4 SWAP1 SWAP4 ADD CALLDATALOAD SWAP4 POP POP POP JUMP JUMPDEST PUSH1 0x0 DUP1 PUSH1 0x40 DUP4 DUP6 SUB SLT ISZERO PUSH2 0x5995 JUMPI PUSH1 0x0 DUP1 REVERT JUMPDEST DUP3 CALLDATALOAD SWAP2 POP PUSH1 0x20 DUP4 ADD CALLDATALOAD PUSH2 0x59A7 DUP2 PUSH2 0x57F5 JUMP JUMPDEST DUP1 SWAP2 POP POP SWAP3 POP SWAP3 SWAP1 POP JUMP JUMPDEST DUP1 ISZERO ISZERO DUP2 EQ PUSH2 0x486A JUMPI PUSH1 0x0 DUP1 REVERT JUMPDEST PUSH1 0x0 DUP1 PUSH1 0x0 DUP1 PUSH1 0x80 DUP6 DUP8 SUB SLT ISZERO PUSH2 0x59D6 JUMPI PUSH1 0x0 DUP1 REVERT JUMPDEST DUP5 CALLDATALOAD SWAP4 POP PUSH1 0x20 DUP6 ADD CALLDATALOAD PUSH2 0x59E8 DUP2 PUSH2 0x59B2 JUMP JUMPDEST SWAP3 POP PUSH1 0x40 DUP6 ADD CALLDATALOAD PUSH1 0x1 PUSH1 0x1 PUSH1 0x40 SHL SUB DUP2 GT ISZERO PUSH2 0x5A03 JUMPI PUSH1 0x0 DUP1 REVERT JUMPDEST PUSH2 0x5A0F DUP8 DUP3 DUP9 ADD PUSH2 0x5898 JUMP JUMPDEST SWAP3 POP POP PUSH1 0x60 DUP6 ADD CALLDATALOAD PUSH2 0x5A20 DUP2 PUSH2 0x57F5 JUMP JUMPDEST SWAP4 SWAP7 SWAP3 SWAP6 POP SWAP1 SWAP4 POP POP JUMP JUMPDEST PUSH1 0x0 DUP1 PUSH1 0x40 DUP4 DUP6 SUB SLT ISZERO PUSH2 0x5A3E JUMPI PUSH1 0x0 DUP1 REVERT JUMPDEST DUP3 CALLDATALOAD PUSH2 0x5A49 DUP2 PUSH2 0x57F5 JUMP JUMPDEST SWAP2 POP PUSH1 0x20 DUP4 ADD CALLDATALOAD PUSH1 0x1 PUSH1 0x1 PUSH1 0x40 SHL SUB DUP2 GT ISZERO PUSH2 0x5A64 JUMPI PUSH1 0x0 DUP1 REVERT JUMPDEST DUP4 ADD PUSH1 0x1F DUP2 ADD DUP6 SGT PUSH2 0x5A75 JUMPI PUSH1 0x0 DUP1 REVERT JUMPDEST PUSH2 0x5A84 DUP6 DUP3 CALLDATALOAD PUSH1 0x20 DUP5 ADD PUSH2 0x5820 JUMP JUMPDEST SWAP2 POP POP SWAP3 POP SWAP3 SWAP1 POP JUMP JUMPDEST PUSH1 0x0 DUP1 PUSH1 0x0 PUSH1 0x60 DUP5 DUP7 SUB SLT ISZERO PUSH2 0x5AA3 JUMPI PUSH1 0x0 DUP1 REVERT JUMPDEST DUP4 CALLDATALOAD SWAP3 POP PUSH1 0x20 DUP5 ADD CALLDATALOAD PUSH1 0x1 PUSH1 0x1 PUSH1 0x40 SHL SUB DUP2 GT ISZERO PUSH2 0x5AC0 JUMPI PUSH1 0x0 DUP1 REVERT JUMPDEST PUSH2 0x5ACC DUP7 DUP3 DUP8 ADD PUSH2 0x5898 JUMP JUMPDEST SWAP3 POP POP PUSH1 0x40 DUP5 ADD CALLDATALOAD PUSH2 0x5ADD DUP2 PUSH2 0x57F5 JUMP JUMPDEST DUP1 SWAP2 POP POP SWAP3 POP SWAP3 POP SWAP3 JUMP JUMPDEST PUSH1 0x0 DUP1 PUSH1 0x0 DUP1 PUSH1 0x0 DUP1 PUSH1 0xC0 DUP8 DUP10 SUB SLT ISZERO PUSH2 0x5B01 JUMPI PUSH1 0x0 DUP1 REVERT JUMPDEST DUP7 CALLDATALOAD SWAP6 POP PUSH1 0x20 DUP8 ADD CALLDATALOAD PUSH1 0x1 PUSH1 0x1 PUSH1 0x40 SHL SUB DUP2 GT ISZERO PUSH2 0x5B1E JUMPI PUSH1 0x0 DUP1 REVERT JUMPDEST PUSH2 0x5B2A DUP10 DUP3 DUP11 ADD PUSH2 0x5898 JUMP JUMPDEST SWAP6 POP POP PUSH1 0x40 DUP8 ADD CALLDATALOAD PUSH1 0x1 PUSH1 0x1 PUSH1 0x40 SHL SUB DUP2 GT ISZERO PUSH2 0x5B46 JUMPI PUSH1 0x0 DUP1 REVERT JUMPDEST PUSH2 0x5B52 DUP10 DUP3 DUP11 ADD PUSH2 0x5898 JUMP JUMPDEST SWAP5 POP POP PUSH1 0x60 DUP8 ADD CALLDATALOAD PUSH2 0x5B63 DUP2 PUSH2 0x57F5 JUMP JUMPDEST SWAP3 POP PUSH1 0x80 DUP8 ADD CALLDATALOAD PUSH2 0x5B73 DUP2 PUSH2 0x57F5 JUMP JUMPDEST SWAP6 SWAP9 SWAP5 SWAP8 POP SWAP3 SWAP6 SWAP2 SWAP5 SWAP4 PUSH1 0xA0 SWAP1 SWAP3 ADD CALLDATALOAD SWAP3 POP POP JUMP JUMPDEST PUSH1 0x0 DUP1 PUSH1 0x0 PUSH1 0x60 DUP5 DUP7 SUB SLT ISZERO PUSH2 0x5B9D JUMPI PUSH1 0x0 DUP1 REVERT JUMPDEST DUP4 CALLDATALOAD PUSH1 0x1 PUSH1 0x1 PUSH1 0x40 SHL SUB DUP2 GT ISZERO PUSH2 0x5BB3 JUMPI PUSH1 0x0 DUP1 REVERT JUMPDEST PUSH2 0x5BBF DUP7 DUP3 DUP8 ADD PUSH2 0x5898 JUMP JUMPDEST SWAP4 POP POP PUSH1 0x20 DUP5 ADD CALLDATALOAD PUSH1 0x1 PUSH1 0x1 PUSH1 0x40 SHL SUB DUP2 GT ISZERO PUSH2 0x5AC0 JUMPI PUSH1 0x0 DUP1 REVERT JUMPDEST PUSH1 0x0 DUP1 PUSH1 0x0 PUSH1 0x60 DUP5 DUP7 SUB SLT ISZERO PUSH2 0x5BF0 JUMPI PUSH1 0x0 DUP1 REVERT JUMPDEST DUP4 CALLDATALOAD SWAP3 POP PUSH1 0x20 DUP5 ADD CALLDATALOAD PUSH2 0x5C02 DUP2 PUSH2 0x57F5 JUMP JUMPDEST SWAP2 POP PUSH1 0x40 DUP5 ADD CALLDATALOAD PUSH2 0x5ADD DUP2 PUSH2 0x57F5 JUMP JUMPDEST PUSH1 0x0 DUP1 PUSH1 0x0 DUP1 PUSH1 0x0 PUSH1 0xA0 DUP7 DUP9 SUB SLT ISZERO PUSH2 0x5C2A JUMPI PUSH1 0x0 DUP1 REVERT JUMPDEST DUP6 CALLDATALOAD PUSH2 0x5C35 DUP2 PUSH2 0x57F5 JUMP JUMPDEST SWAP5 POP PUSH1 0x20 DUP7 ADD CALLDATALOAD SWAP4 POP PUSH1 0x40 DUP7 ADD CALLDATALOAD PUSH1 0x1 PUSH1 0x1 PUSH1 0x40 SHL SUB DUP2 GT ISZERO PUSH2 0x5C57 JUMPI PUSH1 0x0 DUP1 REVERT JUMPDEST PUSH2 0x5C63 DUP9 DUP3 DUP10 ADD PUSH2 0x5898 JUMP JUMPDEST SWAP4 POP POP PUSH1 0x60 DUP7 ADD CALLDATALOAD PUSH1 0x1 PUSH1 0x1 PUSH1 0x40 SHL SUB DUP2 GT ISZERO PUSH2 0x5C7F JUMPI PUSH1 0x0 DUP1 REVERT JUMPDEST PUSH2 0x5C8B DUP9 DUP3 DUP10 ADD PUSH2 0x5898 JUMP JUMPDEST SWAP6 SWAP9 SWAP5 SWAP8 POP SWAP3 SWAP6 PUSH1 0x80 ADD CALLDATALOAD SWAP4 SWAP3 POP POP POP JUMP JUMPDEST PUSH1 0x0 DUP1 PUSH1 0x40 DUP4 DUP6 SUB SLT ISZERO PUSH2 0x5CB0 JUMPI PUSH1 0x0 DUP1 REVERT JUMPDEST DUP3 CALLDATALOAD PUSH2 0x5CBB DUP2 PUSH2 0x57F5 JUMP JUMPDEST SWAP2 POP PUSH1 0x20 DUP4 ADD CALLDATALOAD PUSH1 0x1 PUSH1 0x1 PUSH1 0x40 SHL SUB DUP2 GT ISZERO PUSH2 0x5CD6 JUMPI PUSH1 0x0 DUP1 REVERT JUMPDEST PUSH2 0x5A84 DUP6 DUP3 DUP7 ADD PUSH2 0x5898 JUMP JUMPDEST PUSH1 0x0 DUP1 PUSH1 0x0 DUP1 PUSH1 0x0 PUSH1 0xA0 DUP7 DUP9 SUB SLT ISZERO PUSH2 0x5CFA JUMPI PUSH1 0x0 DUP1 REVERT JUMPDEST DUP6 CALLDATALOAD PUSH2 0x5D05 DUP2 PUSH2 0x57F5 JUMP JUMPDEST SWAP5 POP PUSH1 0x20 DUP7 ADD CALLDATALOAD PUSH1 0x1 PUSH1 0x1 PUSH1 0x40 SHL SUB DUP2 GT ISZERO PUSH2 0x5D20 JUMPI PUSH1 0x0 DUP1 REVERT JUMPDEST PUSH2 0x5D2C DUP9 DUP3 DUP10 ADD PUSH2 0x5898 JUMP JUMPDEST SWAP5 POP POP PUSH1 0x40 DUP7 ADD CALLDATALOAD PUSH1 0x1 PUSH1 0x1 PUSH1 0x40 SHL SUB DUP2 GT ISZERO PUSH2 0x5C57 JUMPI PUSH1 0x0 DUP1 REVERT JUMPDEST PUSH1 0x0 JUMPDEST DUP4 DUP2 LT ISZERO PUSH2 0x5D63 JUMPI DUP2 DUP2 ADD MLOAD DUP4 DUP3 ADD MSTORE PUSH1 0x20 ADD PUSH2 0x5D4B JUMP JUMPDEST POP POP PUSH1 0x0 SWAP2 ADD MSTORE JUMP JUMPDEST PUSH1 0x0 DUP2 MLOAD DUP1 DUP5 MSTORE PUSH2 0x5D84 DUP2 PUSH1 0x20 DUP7 ADD PUSH1 0x20 DUP7 ADD PUSH2 0x5D48 JUMP JUMPDEST PUSH1 0x1F ADD PUSH1 0x1F NOT AND SWAP3 SWAP1 SWAP3 ADD PUSH1 0x20 ADD SWAP3 SWAP2 POP POP JUMP JUMPDEST PUSH4 0x4E487B71 PUSH1 0xE0 SHL PUSH1 0x0 MSTORE PUSH1 0x21 PUSH1 0x4 MSTORE PUSH1 0x24 PUSH1 0x0 REVERT JUMPDEST PUSH1 0x3 DUP2 LT PUSH2 0x486A JUMPI PUSH2 0x486A PUSH2 0x5D98 JUMP JUMPDEST PUSH1 0x60 DUP2 MSTORE DUP4 MLOAD PUSH1 0x60 DUP3 ADD MSTORE PUSH1 0x1 PUSH1 0x1 PUSH1 0xA0 SHL SUB PUSH1 0x20 DUP6 ADD MLOAD AND PUSH1 0x80 DUP3 ADD MSTORE PUSH1 0x0 PUSH1 0x40 DUP6 ADD MLOAD PUSH1 0xE0 PUSH1 0xA0 DUP5 ADD MSTORE PUSH2 0x5DF8 PUSH2 0x140 DUP5 ADD DUP3 PUSH2 0x5D6C JUMP JUMPDEST SWAP1 POP PUSH1 0x60 DUP7 ADD MLOAD PUSH1 0x5F NOT DUP5 DUP4 SUB ADD PUSH1 0xC0 DUP6 ADD MSTORE PUSH2 0x5E15 DUP3 DUP3 PUSH2 0x5D6C JUMP JUMPDEST SWAP2 POP POP PUSH1 0x80 DUP7 ADD MLOAD PUSH2 0x5E26 DUP2 PUSH2 0x5DAE JUMP JUMPDEST PUSH1 0xE0 DUP5 ADD MSTORE PUSH1 0xA0 DUP7 ADD MLOAD PUSH2 0x100 DUP5 ADD MSTORE PUSH1 0xC0 SWAP1 SWAP6 ADD MLOAD PUSH2 0x120 DUP4 ADD MSTORE POP PUSH1 0x20 DUP2 ADD SWAP3 SWAP1 SWAP3 MSTORE PUSH1 0x40 SWAP1 SWAP2 ADD MSTORE SWAP1 JUMP JUMPDEST PUSH1 0x20 DUP2 MSTORE PUSH1 0x0 PUSH2 0x1995 PUSH1 0x20 DUP4 ADD DUP5 PUSH2 0x5D6C JUMP JUMPDEST PUSH1 0x0 DUP1 PUSH1 0x20 DUP4 DUP6 SUB SLT ISZERO PUSH2 0x5E7A JUMPI PUSH1 0x0 DUP1 REVERT JUMPDEST DUP3 CALLDATALOAD PUSH1 0x1 PUSH1 0x1 PUSH1 0x40 SHL SUB DUP2 GT ISZERO PUSH2 0x5E90 JUMPI PUSH1 0x0 DUP1 REVERT JUMPDEST DUP4 ADD PUSH1 0x1F DUP2 ADD DUP6 SGT PUSH2 0x5EA1 JUMPI PUSH1 0x0 DUP1 REVERT JUMPDEST DUP1 CALLDATALOAD PUSH1 0x1 PUSH1 0x1 PUSH1 0x40 SHL SUB DUP2 GT ISZERO PUSH2 0x5EB7 JUMPI PUSH1 0x0 DUP1 REVERT JUMPDEST DUP6 PUSH1 0x20 DUP3 DUP5 ADD ADD GT ISZERO PUSH2 0x5EC9 JUMPI PUSH1 0x0 DUP1 REVERT JUMPDEST PUSH1 0x20 SWAP2 SWAP1 SWAP2 ADD SWAP6 SWAP1 SWAP5 POP SWAP3 POP POP POP JUMP JUMPDEST PUSH1 0x0 DUP1 PUSH1 0x0 DUP1 PUSH1 0x80 DUP6 DUP8 SUB SLT ISZERO PUSH2 0x5EEF JUMPI PUSH1 0x0 DUP1 REVERT JUMPDEST DUP5 CALLDATALOAD PUSH1 0x1 PUSH1 0x1 PUSH1 0x40 SHL SUB DUP2 GT ISZERO PUSH2 0x5F05 JUMPI PUSH1 0x0 DUP1 REVERT JUMPDEST PUSH2 0x5F11 DUP8 DUP3 DUP9 ADD PUSH2 0x5898 JUMP JUMPDEST SWAP5 POP POP PUSH1 0x20 DUP6 ADD CALLDATALOAD PUSH1 0x1 PUSH1 0x1 PUSH1 0x40 SHL SUB DUP2 GT ISZERO PUSH2 0x5F2D JUMPI PUSH1 0x0 DUP1 REVERT JUMPDEST PUSH2 0x5F39 DUP8 DUP3 DUP9 ADD PUSH2 0x5898 JUMP JUMPDEST SWAP4 POP POP PUSH1 0x40 DUP6 ADD CALLDATALOAD PUSH1 0x1 PUSH1 0x1 PUSH1 0x40 SHL SUB DUP2 GT ISZERO PUSH2 0x5A03 JUMPI PUSH1 0x0 DUP1 REVERT JUMPDEST PUSH1 0x5 DUP2 LT PUSH2 0x486A JUMPI PUSH2 0x486A PUSH2 0x5D98 JUMP JUMPDEST PUSH2 0x5F6E DUP2 PUSH2 0x5F55 JUMP JUMPDEST SWAP1 MSTORE JUMP JUMPDEST PUSH1 0x60 DUP2 MSTORE DUP4 MLOAD PUSH1 0x60 DUP3 ADD MSTORE PUSH1 0x20 DUP5 ADD MLOAD PUSH1 0x80 DUP3 ADD MSTORE PUSH1 0x0 PUSH1 0x40 DUP6 ADD MLOAD PUSH2 0x5FA3 PUSH1 0xA0 DUP5 ADD DUP3 PUSH1 0x1 PUSH1 0x1 PUSH1 0xA0 SHL SUB AND SWAP1 MSTORE JUMP JUMPDEST POP PUSH1 0x60 DUP6 ADD MLOAD PUSH1 0x1 PUSH1 0x1 PUSH1 0xA0 SHL SUB AND PUSH1 0xC0 DUP4 ADD MSTORE PUSH1 0x80 DUP6 ADD MLOAD PUSH2 0x200 PUSH1 0xE0 DUP5 ADD MSTORE PUSH2 0x5FD2 PUSH2 0x260 DUP5 ADD DUP3 PUSH2 0x5D6C JUMP JUMPDEST SWAP1 POP PUSH1 0xA0 DUP7 ADD MLOAD PUSH2 0x5FE7 PUSH2 0x100 DUP6 ADD DUP3 PUSH2 0x5F65 JUMP JUMPDEST POP PUSH1 0xC0 DUP7 ADD MLOAD DUP1 ISZERO ISZERO PUSH2 0x120 DUP6 ADD MSTORE POP PUSH1 0xE0 DUP7 ADD MLOAD DUP1 ISZERO ISZERO PUSH2 0x140 DUP6 ADD MSTORE POP PUSH2 0x100 DUP7 ADD MLOAD PUSH1 0x1 PUSH1 0x1 PUSH1 0xA0 SHL SUB DUP2 AND PUSH2 0x160 DUP6 ADD MSTORE POP PUSH2 0x120 DUP7 ADD MLOAD PUSH2 0x180 DUP5 ADD MSTORE PUSH2 0x140 DUP7 ADD MLOAD PUSH2 0x1A0 DUP5 ADD MSTORE PUSH2 0x160 DUP7 ADD MLOAD PUSH2 0x1C0 DUP5 ADD MSTORE PUSH2 0x180 DUP7 ADD MLOAD PUSH1 0x5F NOT DUP5 DUP4 SUB ADD PUSH2 0x1E0 DUP6 ADD MSTORE PUSH2 0x605E DUP3 DUP3 PUSH2 0x5D6C JUMP JUMPDEST SWAP2 POP POP PUSH2 0x1A0 DUP7 ADD MLOAD PUSH1 0x5F NOT DUP5 DUP4 SUB ADD PUSH2 0x200 DUP6 ADD MSTORE PUSH2 0x607E DUP3 DUP3 PUSH2 0x5D6C JUMP JUMPDEST SWAP2 POP POP PUSH2 0x1C0 DUP7 ADD MLOAD PUSH2 0x220 DUP5 ADD MSTORE PUSH2 0x1E0 DUP7 ADD MLOAD PUSH2 0x60A2 PUSH2 0x240 DUP6 ADD DUP3 ISZERO ISZERO SWAP1 MSTORE JUMP JUMPDEST POP PUSH1 0x20 DUP4 ADD SWAP5 SWAP1 SWAP5 MSTORE POP PUSH1 0x40 ADD MSTORE SWAP2 SWAP1 POP JUMP JUMPDEST PUSH2 0x5F6E DUP2 PUSH2 0x5DAE JUMP JUMPDEST PUSH1 0x20 DUP2 MSTORE DUP2 MLOAD PUSH1 0x20 DUP3 ADD MSTORE PUSH1 0x0 PUSH1 0x20 DUP4 ADD MLOAD PUSH2 0x60E5 PUSH1 0x40 DUP5 ADD DUP3 PUSH1 0x1 PUSH1 0x1 PUSH1 0xA0 SHL SUB AND SWAP1 MSTORE JUMP JUMPDEST POP PUSH1 0x40 DUP4 ADD MLOAD PUSH2 0x100 PUSH1 0x60 DUP5 ADD MSTORE PUSH2 0x6101 PUSH2 0x120 DUP5 ADD DUP3 PUSH2 0x5D6C JUMP JUMPDEST SWAP1 POP PUSH1 0x60 DUP5 ADD MLOAD PUSH1 0x1F NOT DUP5 DUP4 SUB ADD PUSH1 0x80 DUP6 ADD MSTORE PUSH2 0x611E DUP3 DUP3 PUSH2 0x5D6C JUMP JUMPDEST SWAP2 POP POP PUSH1 0x80 DUP5 ADD MLOAD PUSH1 0x1F NOT DUP5 DUP4 SUB ADD PUSH1 0xA0 DUP6 ADD MSTORE PUSH2 0x613C DUP3 DUP3 PUSH2 0x5D6C JUMP JUMPDEST SWAP2 POP POP PUSH1 0xA0 DUP5 ADD MLOAD PUSH2 0x6151 PUSH1 0xC0 DUP6 ADD DUP3 PUSH2 0x60B5 JUMP JUMPDEST POP PUSH1 0xC0 DUP5 ADD MLOAD PUSH1 0xE0 DUP5 ADD MSTORE PUSH1 0xE0 DUP5 ADD MLOAD PUSH2 0x100 DUP5 ADD MSTORE DUP1 SWAP2 POP POP SWAP3 SWAP2 POP POP JUMP JUMPDEST PUSH1 0x20 DUP1 DUP3 MSTORE PUSH1 0x1F SWAP1 DUP3 ADD MSTORE PUSH32 0x4F6E6C792066726F6E74656E64206F72206F776E65722063616E2063616C6C00 PUSH1 0x40 DUP3 ADD MSTORE PUSH1 0x60 ADD SWAP1 JUMP JUMPDEST PUSH1 0x0 DUP3 MLOAD PUSH2 0x61BA DUP2 DUP5 PUSH1 0x20 DUP8 ADD PUSH2 0x5D48 JUMP JUMPDEST SWAP2 SWAP1 SWAP2 ADD SWAP3 SWAP2 POP POP JUMP JUMPDEST PUSH4 0x4E487B71 PUSH1 0xE0 SHL PUSH1 0x0 MSTORE PUSH1 0x11 PUSH1 0x4 MSTORE PUSH1 0x24 PUSH1 0x0 REVERT JUMPDEST DUP2 DUP2 SUB DUP2 DUP2 GT ISZERO PUSH2 0x1256 JUMPI PUSH2 0x1256 PUSH2 0x61C4 JUMP JUMPDEST DUP1 DUP3 ADD DUP1 DUP3 GT ISZERO PUSH2 0x1256 JUMPI PUSH2 0x1256 PUSH2 0x61C4 JUMP JUMPDEST PUSH1 0x0 DUP3 PUSH2 0x621D JUMPI PUSH4 0x4E487B71 PUSH1 0xE0 SHL PUSH1 0x0 MSTORE PUSH1 0x12 PUSH1 0x4 MSTORE PUSH1 0x24 PUSH1 0x0 REVERT JUMPDEST POP DIV SWAP1 JUMP JUMPDEST PUSH1 0x20 DUP1 DUP3 MSTORE PUSH1 0x16 SWAP1 DUP3 ADD MSTORE PUSH32 0x4F6E6C792066726F6E74656E642063616E2063616C6C00000000000000000000 PUSH1 0x40 DUP3 ADD MSTORE PUSH1 0x60 ADD SWAP1 JUMP JUMPDEST PUSH1 0x1 DUP2 DUP2 SHR SWAP1 DUP3 AND DUP1 PUSH2 0x626D JUMPI PUSH1 0x7F DUP3 AND SWAP2 POP JUMPDEST PUSH1 0x20 DUP3 LT DUP2 SUB PUSH2 0x628D JUMPI PUSH4 0x4E487B71 PUSH1 0xE0 SHL PUSH1 0x0 MSTORE PUSH1 0x22 PUSH1 0x4 MSTORE PUSH1 0x24 PUSH1 0x0 REVERT JUMPDEST POP SWAP2 SWAP1 POP JUMP JUMPDEST PUSH1 0x0 PUSH1 0x1 DUP3 ADD PUSH2 0x62A5 JUMPI PUSH2 0x62A5 PUSH2 0x61C4 JUMP JUMPDEST POP PUSH1 0x1 ADD SWAP1 JUMP JUMPDEST PUSH1 0x1F DUP3 GT ISZERO PUSH2 0x4DAB JUMPI DUP1 PUSH1 0x0 MSTORE PUSH1 0x20 PUSH1 0x0 KECCAK256 PUSH1 0x1F DUP5 ADD PUSH1 0x5 SHR DUP2 ADD PUSH1 0x20 DUP6 LT ISZERO PUSH2 0x62D3 JUMPI POP DUP1 JUMPDEST PUSH1 0x1F DUP5 ADD PUSH1 0x5 SHR DUP3 ADD SWAP2 POP JUMPDEST DUP2 DUP2 LT ISZERO PUSH2 0x5005 JUMPI PUSH1 0x0 DUP2 SSTORE PUSH1 0x1 ADD PUSH2 0x62DF JUMP JUMPDEST DUP2 MLOAD PUSH1 0x1 PUSH1 0x1 PUSH1 0x40 SHL SUB DUP2 GT ISZERO PUSH2 0x630C JUMPI PUSH2 0x630C PUSH2 0x580A JUMP JUMPDEST PUSH2 0x6320 DUP2 PUSH2 0x631A DUP5 SLOAD PUSH2 0x6259 JUMP JUMPDEST DUP5 PUSH2 0x62AC JUMP JUMPDEST PUSH1 0x20 PUSH1 0x1F DUP3 GT PUSH1 0x1 DUP2 EQ PUSH2 0x6354 JUMPI PUSH1 0x0 DUP4 ISZERO PUSH2 0x633C JUMPI POP DUP5 DUP3 ADD MLOAD JUMPDEST PUSH1 0x0 NOT PUSH1 0x3 DUP6 SWAP1 SHL SHR NOT AND PUSH1 0x1 DUP5 SWAP1 SHL OR DUP5 SSTORE PUSH2 0x5005 JUMP JUMPDEST PUSH1 0x0 DUP5 DUP2 MSTORE PUSH1 0x20 DUP2 KECCAK256 PUSH1 0x1F NOT DUP6 AND SWAP2 JUMPDEST DUP3 DUP2 LT ISZERO PUSH2 0x6384 JUMPI DUP8 DUP6 ADD MLOAD DUP3 SSTORE PUSH1 0x20 SWAP5 DUP6 ADD SWAP5 PUSH1 0x1 SWAP1 SWAP3 ADD SWAP2 ADD PUSH2 0x6364 JUMP JUMPDEST POP DUP5 DUP3 LT ISZERO PUSH2 0x63A2 JUMPI DUP7 DUP5 ADD MLOAD PUSH1 0x0 NOT PUSH1 0x3 DUP8 SWAP1 SHL PUSH1 0xF8 AND SHR NOT AND DUP2 SSTORE JUMPDEST POP POP POP POP PUSH1 0x1 SWAP1 DUP2 SHL ADD SWAP1 SSTORE POP JUMP JUMPDEST DUP5 DUP2 MSTORE PUSH1 0x1 PUSH1 0x1 PUSH1 0xA0 SHL SUB DUP5 AND PUSH1 0x20 DUP3 ADD MSTORE DUP3 ISZERO ISZERO PUSH1 0x40 DUP3 ADD MSTORE PUSH1 0x80 PUSH1 0x60 DUP3 ADD MSTORE PUSH1 0x0 PUSH2 0x2781 PUSH1 0x80 DUP4 ADD DUP5 PUSH2 0x5D6C JUMP JUMPDEST DUP3 DUP2 MSTORE PUSH1 0x40 PUSH1 0x20 DUP3 ADD MSTORE PUSH1 0x0 PUSH2 0x63FA PUSH1 0x40 DUP4 ADD DUP5 PUSH2 0x5D6C JUMP JUMPDEST SWAP5 SWAP4 POP POP POP POP JUMP JUMPDEST PUSH1 0x20 DUP2 ADD PUSH2 0x640F DUP4 PUSH2 0x5F55 JUMP JUMPDEST SWAP2 SWAP1 MSTORE SWAP1 JUMP JUMPDEST PUSH1 0x0 PUSH1 0x20 DUP3 DUP5 SUB SLT ISZERO PUSH2 0x6427 JUMPI PUSH1 0x0 DUP1 REVERT JUMPDEST DUP2 MLOAD PUSH2 0x1995 DUP2 PUSH2 0x59B2 JUMP JUMPDEST PUSH1 0x0 PUSH1 0x20 DUP3 DUP5 SUB SLT ISZERO PUSH2 0x6444 JUMPI PUSH1 0x0 DUP1 REVERT JUMPDEST POP MLOAD SWAP2 SWAP1 POP JUMP JUMPDEST DUP1 DUP3 MUL DUP2 ISZERO DUP3 DUP3 DIV DUP5 EQ OR PUSH2 0x1256 JUMPI PUSH2 0x1256 PUSH2 0x61C4 JUMP JUMPDEST PUSH1 0x1 PUSH1 0x1 PUSH1 0xA0 SHL SUB DUP4 AND DUP2 MSTORE PUSH1 0x40 PUSH1 0x20 DUP3 ADD MSTORE PUSH1 0x0 PUSH2 0x63FA PUSH1 0x40 DUP4 ADD DUP5 PUSH2 0x5D6C JUMP JUMPDEST DUP2 DUP4 DUP3 CALLDATACOPY PUSH1 0x0 SWAP2 ADD SWAP1 DUP2 MSTORE SWAP2 SWAP1 POP JUMP JUMPDEST PUSH1 0x0 PUSH1 0x20 DUP3 DUP5 SUB SLT ISZERO PUSH2 0x64A6 JUMPI PUSH1 0x0 DUP1 REVERT JUMPDEST DUP2 CALLDATALOAD PUSH1 0x1 PUSH1 0x1 PUSH1 0x40 SHL SUB DUP2 GT ISZERO PUSH2 0x64BC JUMPI PUSH1 0x0 DUP1 REVERT JUMPDEST PUSH2 0x63FA DUP5 DUP3 DUP6 ADD PUSH2 0x5898 JUMP JUMPDEST PUSH1 0x40 DUP2 MSTORE PUSH1 0x0 PUSH2 0x64DB PUSH1 0x40 DUP4 ADD DUP6 PUSH2 0x5D6C JUMP JUMPDEST SWAP1 POP PUSH1 0x1 PUSH1 0x1 PUSH1 0xA0 SHL SUB DUP4 AND PUSH1 0x20 DUP4 ADD MSTORE SWAP4 SWAP3 POP POP POP JUMP JUMPDEST PUSH1 0x40 DUP2 MSTORE PUSH1 0x0 DUP1 DUP5 SLOAD PUSH2 0x6505 DUP2 PUSH2 0x6259 JUMP JUMPDEST DUP1 PUSH1 0x40 DUP7 ADD MSTORE PUSH1 0x1 DUP3 AND PUSH1 0x0 DUP2 EQ PUSH2 0x6524 JUMPI PUSH1 0x1 DUP2 EQ PUSH2 0x6540 JUMPI PUSH2 0x6574 JUMP JUMPDEST PUSH1 0xFF NOT DUP4 AND PUSH1 0x60 DUP8 ADD MSTORE PUSH1 0x60 DUP3 ISZERO ISZERO PUSH1 0x5 SHL DUP8 ADD ADD SWAP4 POP PUSH2 0x6574 JUMP JUMPDEST DUP8 PUSH1 0x0 MSTORE PUSH1 0x20 PUSH1 0x0 KECCAK256 PUSH1 0x0 JUMPDEST DUP4 DUP2 LT ISZERO PUSH2 0x656B JUMPI DUP2 SLOAD DUP9 DUP3 ADD PUSH1 0x60 ADD MSTORE PUSH1 0x1 SWAP1 SWAP2 ADD SWAP1 PUSH1 0x20 ADD PUSH2 0x654C JUMP JUMPDEST DUP8 ADD PUSH1 0x60 ADD SWAP5 POP POP JUMPDEST POP POP POP PUSH1 0x1 PUSH1 0x1 PUSH1 0xA0 SHL SUB DUP5 AND PUSH1 0x20 DUP5 ADD MSTORE SWAP1 POP PUSH2 0x1995 JUMP JUMPDEST PUSH1 0x1 PUSH1 0x1 PUSH1 0xA0 SHL SUB DUP5 AND DUP2 MSTORE PUSH1 0x60 PUSH1 0x20 DUP3 ADD MSTORE PUSH1 0x0 PUSH2 0x65AF PUSH1 0x60 DUP4 ADD DUP6 PUSH2 0x5D6C JUMP JUMPDEST SWAP1 POP DUP3 PUSH1 0x40 DUP4 ADD MSTORE SWAP5 SWAP4 POP POP POP POP JUMP JUMPDEST DUP4 DUP2 MSTORE DUP3 PUSH1 0x20 DUP3 ADD MSTORE PUSH1 0x60 PUSH1 0x40 DUP3 ADD MSTORE PUSH1 0x0 PUSH2 0xC24 PUSH1 0x60 DUP4 ADD DUP5 PUSH2 0x5D6C JUMP JUMPDEST DUP1 CALLDATALOAD PUSH2 0x65E9 DUP2 PUSH2 0x57F5 JUMP JUMPDEST SWAP2 SWAP1 POP JUMP JUMPDEST PUSH1 0x0 DUP1 PUSH1 0x0 DUP1 PUSH1 0x0 DUP1 PUSH1 0xC0 DUP8 DUP10 SUB SLT ISZERO PUSH2 0x6607 JUMPI PUSH1 0x0 DUP1 REVERT JUMPDEST DUP7 CALLDATALOAD PUSH1 0x1 PUSH1 0x1 PUSH1 0x40 SHL SUB DUP2 GT ISZERO PUSH2 0x661D JUMPI PUSH1 0x0 DUP1 REVERT JUMPDEST PUSH2 0x6629 DUP10 DUP3 DUP11 ADD PUSH2 0x5898 JUMP JUMPDEST SWAP7 POP POP PUSH1 0x20 DUP8 ADD CALLDATALOAD PUSH2 0x663A DUP2 PUSH2 0x57F5 JUMP JUMPDEST SWAP5 POP PUSH1 0x40 DUP8 ADD CALLDATALOAD SWAP4 POP PUSH1 0x60 DUP8 ADD CALLDATALOAD PUSH1 0x1 PUSH1 0x1 PUSH1 0x40 SHL SUB DUP2 GT ISZERO PUSH2 0x665C JUMPI PUSH1 0x0 DUP1 REVERT JUMPDEST PUSH2 0x6668 DUP10 DUP3 DUP11 ADD PUSH2 0x5898 JUMP JUMPDEST SWAP4 POP POP PUSH1 0x80 DUP8 ADD CALLDATALOAD PUSH1 0x1 PUSH1 0x1 PUSH1 0x40 SHL SUB DUP2 GT ISZERO PUSH2 0x6684 JUMPI PUSH1 0x0 DUP1 REVERT JUMPDEST PUSH2 0x6690 DUP10 DUP3 DUP11 ADD PUSH2 0x5898 JUMP JUMPDEST SWAP7 SWAP10 SWAP6 SWAP9 POP SWAP4 SWAP7 SWAP3 SWAP6 SWAP5 PUSH1 0xA0 SWAP1 SWAP4 ADD CALLDATALOAD SWAP4 POP POP POP JUMP JUMPDEST PUSH1 0x0 DUP1 PUSH1 0x0 DUP1 PUSH1 0x80 DUP6 DUP8 SUB SLT ISZERO PUSH2 0x66BC JUMPI PUSH1 0x0 DUP1 REVERT JUMPDEST DUP5 CALLDATALOAD PUSH1 0x1 PUSH1 0x1 PUSH1 0x40 SHL SUB DUP2 GT ISZERO PUSH2 0x66D2 JUMPI PUSH1 0x0 DUP1 REVERT JUMPDEST PUSH2 0x66DE DUP8 DUP3 DUP9 ADD PUSH2 0x5898 JUMP JUMPDEST SWAP5 POP POP PUSH1 0x20 DUP6 ADD CALLDATALOAD PUSH2 0x66EF DUP2 PUSH2 0x57F5 JUMP JUMPDEST SWAP3 POP PUSH1 0x40 DUP6 ADD CALLDATALOAD SWAP2 POP PUSH1 0x60 DUP6 ADD CALLDATALOAD PUSH1 0x1 PUSH1 0x1 PUSH1 0x40 SHL SUB DUP2 GT ISZERO PUSH2 0x6711 JUMPI PUSH1 0x0 DUP1 REVERT JUMPDEST PUSH2 0x671D DUP8 DUP3 DUP9 ADD PUSH2 0x5898 JUMP JUMPDEST SWAP2 POP POP SWAP3 SWAP6 SWAP2 SWAP5 POP SWAP3 POP JUMP JUMPDEST PUSH1 0x0 DUP1 PUSH1 0x0 DUP1 PUSH1 0x0 PUSH1 0xA0 DUP7 DUP9 SUB SLT ISZERO PUSH2 0x6741 JUMPI PUSH1 0x0 DUP1 REVERT JUMPDEST DUP6 CALLDATALOAD PUSH1 0x1 PUSH1 0x1 PUSH1 0x40 SHL SUB DUP2 GT ISZERO PUSH2 0x6757 JUMPI PUSH1 0x0 DUP1 REVERT JUMPDEST PUSH2 0x6763 DUP9 DUP3 DUP10 ADD PUSH2 0x5898 JUMP JUMPDEST SWAP6 POP POP PUSH1 0x20 DUP7 ADD CALLDATALOAD PUSH2 0x6774 DUP2 PUSH2 0x57F5 JUMP JUMPDEST SWAP4 POP PUSH1 0x40 DUP7 ADD CALLDATALOAD PUSH1 0x1 PUSH1 0x1 PUSH1 0x40 SHL SUB DUP2 GT ISZERO PUSH2 0x5C57 JUMPI PUSH1 0x0 DUP1 REVERT JUMPDEST PUSH1 0x40 DUP2 MSTORE PUSH1 0x0 PUSH2 0x67A2 PUSH1 0x40 DUP4 ADD DUP6 PUSH2 0x5D6C JUMP JUMPDEST SWAP1 POP DUP3 PUSH1 0x20 DUP4 ADD MSTORE SWAP4 SWAP3 POP POP POP JUMP JUMPDEST PUSH1 0x0 DUP1 PUSH1 0x0 DUP1 PUSH1 0x0 DUP1 PUSH1 0xC0 DUP8 DUP10 SUB SLT ISZERO PUSH2 0x67CA JUMPI PUSH1 0x0 DUP1 REVERT JUMPDEST DUP7 CALLDATALOAD PUSH1 0x1 PUSH1 0x1 PUSH1 0x40 SHL SUB DUP2 GT ISZERO PUSH2 0x67E0 JUMPI PUSH1 0x0 DUP1 REVERT JUMPDEST PUSH2 0x67EC DUP10 DUP3 DUP11 ADD PUSH2 0x5898 JUMP JUMPDEST SWAP7 POP POP PUSH2 0x67FB PUSH1 0x20 DUP9 ADD PUSH2 0x65DE JUMP JUMPDEST SWAP5 POP PUSH1 0x40 DUP8 ADD CALLDATALOAD PUSH1 0x1 PUSH1 0x1 PUSH1 0x40 SHL SUB DUP2 GT ISZERO PUSH2 0x6816 JUMPI PUSH1 0x0 DUP1 REVERT JUMPDEST PUSH2 0x6822 DUP10 DUP3 DUP11 ADD PUSH2 0x5898 JUMP JUMPDEST SWAP5 POP POP PUSH1 0x60 DUP8 ADD CALLDATALOAD PUSH1 0x1 PUSH1 0x1 PUSH1 0x40 SHL SUB DUP2 GT ISZERO PUSH2 0x665C JUMPI PUSH1 0x0 DUP1 REVERT JUMPDEST PUSH1 0x0 DUP1 PUSH1 0x0 PUSH1 0x60 DUP5 DUP7 SUB SLT ISZERO PUSH2 0x6853 JUMPI PUSH1 0x0 DUP1 REVERT JUMPDEST DUP4 CALLDATALOAD PUSH1 0x1 PUSH1 0x1 PUSH1 0x40 SHL SUB DUP2 GT ISZERO PUSH2 0x6869 JUMPI PUSH1 0x0 DUP1 REVERT JUMPDEST PUSH2 0x6875 DUP7 DUP3 DUP8 ADD PUSH2 0x5898 JUMP JUMPDEST SWAP4 POP POP PUSH1 0x20 DUP5 ADD CALLDATALOAD PUSH2 0x6886 DUP2 PUSH2 0x57F5 JUMP JUMPDEST SWAP3 SWAP6 SWAP3 SWAP5 POP POP POP PUSH1 0x40 SWAP2 SWAP1 SWAP2 ADD CALLDATALOAD SWAP1 JUMP INVALID 0x4C 0xE1 ADD 0x27 SSTORE 0xCB SWAP16 SELFDESTRUCT PUSH0 0x4B SMOD SWAP6 INVALID 0xCE 0x21 PUSH14 0xC26389CF909CE67AB4CD4C2B8EAB 0xC0 GAS PREVRANDAO PUSH6 0x6661756C7420 PUSH16 0x7261636C6520666F7220646973707574 PUSH6 0x207265736F6C PUSH22 0x74696F6E185DAF617C465DE5E0042F7AAE1503B1A216 0xEA DUP10 0x27 0xCA 0xCF 0x29 PUSH15 0x58B516E82AFEA8A264697066735822 SLT KECCAK256 PUSH25 0xCE1EB8E0E10F2A53D9EBEAE63FD9D4FC67DE90B324B6D5DC22 0xED PUSH1 0xF3 NUMBER SSTORE 0x4C PUSH5 0x736F6C6343 STOP ADDMOD SHR STOP CALLER "
		},
		"gasEstimates": {
			"creation": {
				"codeDepositCost": "5386000",
				"executionCost": "infinite",
				"totalCost": "infinite"
			},
			"external": {
				"UPGRADE_INTERFACE_VERSION()": "infinite",
				"calculateDisputeRefund(uint256,address)": "13377",
				"calculateDisputeReward(uint256,address)": "infinite",
				"calculateQuestionRefund(uint256,address)": "11289",
				"calculateQuestionReward(uint256,address)": "infinite",
				"calculateSkillRefund(uint256,address)": "9108",
				"calculateSkillReward(uint256,address)": "infinite",
				"getCrossChainStats(address)": "7020",
				"getDisputeCount()": "2496",
				"getDisputeDetails(uint256)": "infinite",
				"getDisputeFee()": "2393",
				"getFrontendContract()": "2432",
				"getQuestionCount()": "2471",
				"getQuestionDetails(uint256)": "infinite",
				"getQuestionFee()": "2372",
				"getSkillApplicationCount()": "2449",
				"getSkillApplicationDetails(uint256)": "infinite",
				"getSkillApplicationId(address,string)": "infinite",
				"getSkillVerificationFee()": "2371",
				"initialize(address)": "infinite",
				"isSkillVerified(address,string)": "infinite",
				"owner()": "2414",
				"processCrossChainMessage(bytes)": "infinite",
				"processDispute(uint256,string,string,address,address,uint256)": "infinite",
				"processDisputeEscalation(uint256,address)": "infinite",
				"processDisputeResolution(uint256,address,address)": "infinite",
				"processDisputeVote(uint256,bool,string,address)": "infinite",
				"processEvidenceSubmission(uint256,string,address)": "infinite",
				"processQuestion(string,string,address)": "infinite",
				"processQuestionVote(uint256,bool,string,address)": "infinite",
				"processSkillApplication(string,string,string,address)": "infinite",
				"processSkillVote(uint256,bool,string,address)": "infinite",
				"proxiableUUID()": "infinite",
				"renounceOwnership()": "infinite",
				"setDAOContract(address)": "28789",
				"setFrontendContract(address)": "27965",
				"setGovernanceActionTracker(address)": "28783",
				"setNativeDAOGovernanceContract(address)": "28831",
				"setSkillOracleManager(address)": "28778",
				"transferOwnership(address)": "infinite",
				"updateDisputeFee(uint256)": "infinite",
				"updateDisputeVotingPeriod(uint256)": "infinite",
				"updateQuestionFee(uint256)": "infinite",
				"updateQuestionVotingPeriod(uint256)": "infinite",
				"updateSkillVerificationFee(uint256)": "infinite",
				"updateSkillVotingPeriod(uint256)": "infinite",
				"upgradeToAndCall(address,bytes)": "infinite",
				"validateCrossChainDispute(address,uint256,string,string,uint256)": "infinite",
				"validateCrossChainDisputeClaim(address,uint256)": "37654",
				"validateCrossChainQuestion(address,string,string,string,uint256)": "infinite",
				"validateCrossChainSkillVerification(address,string,string,uint256)": "infinite"
			},
			"internal": {
				"_authorizeUpgrade(address)": "infinite",
				"_getOracleMemberCount(string memory)": "infinite",
				"_isOracleActive(string memory)": "infinite",
				"_isOracleMember(string memory,address)": "infinite",
				"_processCrossChainCreateDispute(bytes calldata,bytes32)": "infinite",
				"_processCrossChainDispute(bytes calldata,bytes32)": "infinite",
				"_processCrossChainDisputeClaim(bytes calldata,bytes32)": "infinite",
				"_processCrossChainQuestion(bytes calldata,bytes32)": "infinite",
				"_processCrossChainSkillVerification(bytes calldata,bytes32)": "infinite",
				"_recordGovernanceAction(address)": "infinite",
				"_rejectSkill(address,string memory,uint256)": "infinite",
				"_verifySkill(address,string memory,uint256)": "infinite"
			}
		},
		"methodIdentifiers": {
			"UPGRADE_INTERFACE_VERSION()": "ad3cb1cc",
			"calculateDisputeRefund(uint256,address)": "8fb40fb6",
			"calculateDisputeReward(uint256,address)": "99d71b55",
			"calculateQuestionRefund(uint256,address)": "eec6ab0f",
			"calculateQuestionReward(uint256,address)": "348eb0ec",
			"calculateSkillRefund(uint256,address)": "b958835b",
			"calculateSkillReward(uint256,address)": "70a69408",
			"getCrossChainStats(address)": "6a1465a6",
			"getDisputeCount()": "10987b77",
			"getDisputeDetails(uint256)": "ea89735d",
			"getDisputeFee()": "bbf3e10b",
			"getFrontendContract()": "40c98a47",
			"getQuestionCount()": "dd41cc2f",
			"getQuestionDetails(uint256)": "9f8c45cf",
			"getQuestionFee()": "8c0c19d4",
			"getSkillApplicationCount()": "a0633807",
			"getSkillApplicationDetails(uint256)": "eca87449",
			"getSkillApplicationId(address,string)": "ad78b7ae",
			"getSkillVerificationFee()": "666347d8",
			"initialize(address)": "c4d66de8",
			"isSkillVerified(address,string)": "8d9a854b",
			"owner()": "8da5cb5b",
			"processCrossChainMessage(bytes)": "d0d84a3a",
			"processDispute(uint256,string,string,address,address,uint256)": "5159d204",
			"processDisputeEscalation(uint256,address)": "865795c3",
			"processDisputeResolution(uint256,address,address)": "865e5234",
			"processDisputeVote(uint256,bool,string,address)": "ec0886f4",
			"processEvidenceSubmission(uint256,string,address)": "5007d37d",
			"processQuestion(string,string,address)": "51f6a9e8",
			"processQuestionVote(uint256,bool,string,address)": "462e45fa",
			"processSkillApplication(string,string,string,address)": "dbb9d735",
			"processSkillVote(uint256,bool,string,address)": "a53e8241",
			"proxiableUUID()": "52d1902d",
			"renounceOwnership()": "715018a6",
			"setDAOContract(address)": "425d512a",
			"setFrontendContract(address)": "2502ad19",
			"setGovernanceActionTracker(address)": "2415d840",
			"setNativeDAOGovernanceContract(address)": "a9d6ee6f",
			"setSkillOracleManager(address)": "19c6e064",
			"transferOwnership(address)": "f2fde38b",
			"updateDisputeFee(uint256)": "9de2e9d7",
			"updateDisputeVotingPeriod(uint256)": "35bf6f15",
			"updateQuestionFee(uint256)": "bfa9ab0a",
			"updateQuestionVotingPeriod(uint256)": "0115bae0",
			"updateSkillVerificationFee(uint256)": "1baae20d",
			"updateSkillVotingPeriod(uint256)": "1abde88a",
			"upgradeToAndCall(address,bytes)": "4f1ef286",
			"validateCrossChainDispute(address,uint256,string,string,uint256)": "882578f0",
			"validateCrossChainDisputeClaim(address,uint256)": "30f590d0",
			"validateCrossChainQuestion(address,string,string,string,uint256)": "97ad50f9",
			"validateCrossChainSkillVerification(address,string,string,uint256)": "04075a7f"
		}
	},
	"abi": [
		{
			"inputs": [
				{
					"internalType": "address",
					"name": "target",
					"type": "address"
				}
			],
			"name": "AddressEmptyCode",
			"type": "error"
		},
		{
			"inputs": [
				{
					"internalType": "address",
					"name": "implementation",
					"type": "address"
				}
			],
			"name": "ERC1967InvalidImplementation",
			"type": "error"
		},
		{
			"inputs": [],
			"name": "ERC1967NonPayable",
			"type": "error"
		},
		{
			"inputs": [],
			"name": "FailedCall",
			"type": "error"
		},
		{
			"inputs": [],
			"name": "InvalidInitialization",
			"type": "error"
		},
		{
			"inputs": [],
			"name": "NotInitializing",
			"type": "error"
		},
		{
			"inputs": [
				{
					"internalType": "address",
					"name": "owner",
					"type": "address"
				}
			],
			"name": "OwnableInvalidOwner",
			"type": "error"
		},
		{
			"inputs": [
				{
					"internalType": "address",
					"name": "account",
					"type": "address"
				}
			],
			"name": "OwnableUnauthorizedAccount",
			"type": "error"
		},
		{
			"inputs": [],
			"name": "UUPSUnauthorizedCallContext",
			"type": "error"
		},
		{
			"inputs": [
				{
					"internalType": "bytes32",
					"name": "slot",
					"type": "bytes32"
				}
			],
			"name": "UUPSUnsupportedProxiableUUID",
			"type": "error"
		},
		{
			"anonymous": false,
			"inputs": [
				{
					"indexed": false,
					"internalType": "string",
					"name": "contractType",
					"type": "string"
				},
				{
					"indexed": false,
					"internalType": "address",
					"name": "newAddress",
					"type": "address"
				}
			],
			"name": "ContractReferenceUpdated",
			"type": "event"
		},
		{
			"anonymous": false,
			"inputs": [
				{
					"indexed": true,
					"internalType": "address",
					"name": "user",
					"type": "address"
				},
				{
					"indexed": true,
					"internalType": "uint256",
					"name": "disputeId",
					"type": "uint256"
				}
			],
			"name": "CrossChainClaimValidated",
			"type": "event"
		},
		{
			"anonymous": false,
			"inputs": [
				{
					"indexed": true,
					"internalType": "address",
					"name": "user",
					"type": "address"
				},
				{
					"indexed": true,
					"internalType": "uint256",
					"name": "jobId",
					"type": "uint256"
				},
				{
					"indexed": false,
					"internalType": "uint256",
					"name": "disputeId",
					"type": "uint256"
				}
			],
			"name": "CrossChainDisputeValidated",
			"type": "event"
		},
		{
			"anonymous": false,
			"inputs": [
				{
					"indexed": true,
					"internalType": "bytes32",
					"name": "messageHash",
					"type": "bytes32"
				},
				{
					"indexed": false,
					"internalType": "string",
					"name": "action",
					"type": "string"
				},
				{
					"indexed": false,
					"internalType": "address",
					"name": "user",
					"type": "address"
				}
			],
			"name": "CrossChainMessageProcessed",
			"type": "event"
		},
		{
			"anonymous": false,
			"inputs": [
				{
					"indexed": true,
					"internalType": "address",
					"name": "user",
					"type": "address"
				},
				{
					"indexed": false,
					"internalType": "string",
					"name": "question",
					"type": "string"
				},
				{
					"indexed": false,
					"internalType": "uint256",
					"name": "questionId",
					"type": "uint256"
				}
			],
			"name": "CrossChainQuestionValidated",
			"type": "event"
		},
		{
			"anonymous": false,
			"inputs": [
				{
					"indexed": true,
					"internalType": "address",
					"name": "user",
					"type": "address"
				},
				{
					"indexed": false,
					"internalType": "string",
					"name": "skill",
					"type": "string"
				},
				{
					"indexed": false,
					"internalType": "uint256",
					"name": "applicationId",
					"type": "uint256"
				}
			],
			"name": "CrossChainSkillValidated",
			"type": "event"
		},
		{
			"anonymous": false,
			"inputs": [
				{
					"indexed": true,
					"internalType": "uint256",
					"name": "disputeId",
					"type": "uint256"
				},
				{
					"indexed": false,
					"internalType": "enum NativeAthenaBack.DisputeStatus",
					"name": "newStatus",
					"type": "uint8"
				}
			],
			"name": "DisputeStatusChanged",
			"type": "event"
		},
		{
			"anonymous": false,
			"inputs": [
				{
					"indexed": true,
					"internalType": "uint256",
					"name": "disputeId",
					"type": "uint256"
				},
				{
					"indexed": false,
					"internalType": "address",
					"name": "voter",
					"type": "address"
				},
				{
					"indexed": false,
					"internalType": "bool",
					"name": "inFavor",
					"type": "bool"
				},
				{
					"indexed": false,
					"internalType": "uint256",
					"name": "weight",
					"type": "uint256"
				}
			],
			"name": "DisputeVoteCast",
			"type": "event"
		},
		{
			"anonymous": false,
			"inputs": [
				{
					"indexed": false,
					"internalType": "address",
					"name": "newFrontend",
					"type": "address"
				}
			],
			"name": "FrontendContractUpdated",
			"type": "event"
		},
		{
			"anonymous": false,
			"inputs": [
				{
					"indexed": false,
					"internalType": "uint64",
					"name": "version",
					"type": "uint64"
				}
			],
			"name": "Initialized",
			"type": "event"
		},
		{
			"anonymous": false,
			"inputs": [
				{
					"indexed": false,
					"internalType": "string",
					"name": "oracleName",
					"type": "string"
				},
				{
					"indexed": false,
					"internalType": "address",
					"name": "member",
					"type": "address"
				},
				{
					"indexed": false,
					"internalType": "address",
					"name": "reporter",
					"type": "address"
				},
				{
					"indexed": false,
					"internalType": "string",
					"name": "evidenceHash",
					"type": "string"
				}
			],
			"name": "MaliciousActorReported",
			"type": "event"
		},
		{
			"anonymous": false,
			"inputs": [
				{
					"indexed": false,
					"internalType": "string",
					"name": "oracleName",
					"type": "string"
				}
			],
			"name": "OracleActivated",
			"type": "event"
		},
		{
			"anonymous": false,
			"inputs": [
				{
					"indexed": false,
					"internalType": "string",
					"name": "name",
					"type": "string"
				},
				{
					"indexed": false,
					"internalType": "string",
					"name": "description",
					"type": "string"
				}
			],
			"name": "OracleCreated",
			"type": "event"
		},
		{
			"anonymous": false,
			"inputs": [
				{
					"indexed": false,
					"internalType": "string",
					"name": "oracleName",
					"type": "string"
				},
				{
					"indexed": false,
					"internalType": "address",
					"name": "member",
					"type": "address"
				}
			],
			"name": "OracleMemberAdded",
			"type": "event"
		},
		{
			"anonymous": false,
			"inputs": [
				{
					"indexed": false,
					"internalType": "string",
					"name": "oracleName",
					"type": "string"
				},
				{
					"indexed": false,
					"internalType": "address",
					"name": "member",
					"type": "address"
				}
			],
			"name": "OracleMemberRemoved",
			"type": "event"
		},
		{
			"anonymous": false,
			"inputs": [
				{
					"indexed": true,
					"internalType": "address",
					"name": "previousOwner",
					"type": "address"
				},
				{
					"indexed": true,
					"internalType": "address",
					"name": "newOwner",
					"type": "address"
				}
			],
			"name": "OwnershipTransferred",
			"type": "event"
		},
		{
			"anonymous": false,
			"inputs": [
				{
					"indexed": false,
					"internalType": "string",
					"name": "paramName",
					"type": "string"
				},
				{
					"indexed": false,
					"internalType": "uint256",
					"name": "oldValue",
					"type": "uint256"
				},
				{
					"indexed": false,
					"internalType": "uint256",
					"name": "newValue",
					"type": "uint256"
				}
			],
			"name": "ParameterUpdated",
			"type": "event"
		},
		{
			"anonymous": false,
			"inputs": [
				{
					"indexed": false,
					"internalType": "uint256",
					"name": "questionId",
					"type": "uint256"
				},
				{
					"indexed": false,
					"internalType": "string",
					"name": "answerHash",
					"type": "string"
				}
			],
			"name": "QuestionAnswered",
			"type": "event"
		},
		{
			"anonymous": false,
			"inputs": [
				{
					"indexed": false,
					"internalType": "uint256",
					"name": "questionId",
					"type": "uint256"
				},
				{
					"indexed": false,
					"internalType": "address",
					"name": "voter",
					"type": "address"
				},
				{
					"indexed": false,
					"internalType": "bool",
					"name": "inFavor",
					"type": "bool"
				},
				{
					"indexed": false,
					"internalType": "string",
					"name": "reason",
					"type": "string"
				}
			],
			"name": "QuestionVoteCast",
			"type": "event"
		},
		{
			"anonymous": false,
			"inputs": [
				{
					"indexed": false,
					"internalType": "address",
					"name": "applicant",
					"type": "address"
				},
				{
					"indexed": false,
					"internalType": "string",
					"name": "skillName",
					"type": "string"
				},
				{
					"indexed": false,
					"internalType": "uint256",
					"name": "applicationId",
					"type": "uint256"
				}
			],
			"name": "SkillRejected",
			"type": "event"
		},
		{
			"anonymous": false,
			"inputs": [
				{
					"indexed": false,
					"internalType": "address",
					"name": "applicant",
					"type": "address"
				},
				{
					"indexed": false,
					"internalType": "string",
					"name": "skillName",
					"type": "string"
				},
				{
					"indexed": false,
					"internalType": "uint256",
					"name": "applicationId",
					"type": "uint256"
				}
			],
			"name": "SkillVerified",
			"type": "event"
		},
		{
			"anonymous": false,
			"inputs": [
				{
					"indexed": false,
					"internalType": "uint256",
					"name": "applicationId",
					"type": "uint256"
				},
				{
					"indexed": false,
					"internalType": "address",
					"name": "voter",
					"type": "address"
				},
				{
					"indexed": false,
					"internalType": "bool",
					"name": "inFavor",
					"type": "bool"
				},
				{
					"indexed": false,
					"internalType": "string",
					"name": "reason",
					"type": "string"
				}
			],
			"name": "SkillVoteCast",
			"type": "event"
		},
		{
			"anonymous": false,
			"inputs": [
				{
					"indexed": true,
					"internalType": "address",
					"name": "implementation",
					"type": "address"
				}
			],
			"name": "Upgraded",
			"type": "event"
		},
		{
			"inputs": [],
			"name": "UPGRADE_INTERFACE_VERSION",
			"outputs": [
				{
					"internalType": "string",
					"name": "",
					"type": "string"
				}
			],
			"stateMutability": "view",
			"type": "function"
		},
		{
			"inputs": [
				{
					"internalType": "uint256",
					"name": "disputeId",
					"type": "uint256"
				},
				{
					"internalType": "address",
					"name": "initiator",
					"type": "address"
				}
			],
			"name": "calculateDisputeRefund",
			"outputs": [
				{
					"internalType": "uint256",
					"name": "",
					"type": "uint256"
				}
			],
			"stateMutability": "view",
			"type": "function"
		},
		{
			"inputs": [
				{
					"internalType": "uint256",
					"name": "disputeId",
					"type": "uint256"
				},
				{
					"internalType": "address",
					"name": "voter",
					"type": "address"
				}
			],
			"name": "calculateDisputeReward",
			"outputs": [
				{
					"internalType": "uint256",
					"name": "",
					"type": "uint256"
				}
			],
			"stateMutability": "view",
			"type": "function"
		},
		{
			"inputs": [
				{
					"internalType": "uint256",
					"name": "questionId",
					"type": "uint256"
				},
				{
					"internalType": "address",
					"name": "asker",
					"type": "address"
				}
			],
			"name": "calculateQuestionRefund",
			"outputs": [
				{
					"internalType": "uint256",
					"name": "",
					"type": "uint256"
				}
			],
			"stateMutability": "view",
			"type": "function"
		},
		{
			"inputs": [
				{
					"internalType": "uint256",
					"name": "questionId",
					"type": "uint256"
				},
				{
					"internalType": "address",
					"name": "voter",
					"type": "address"
				}
			],
			"name": "calculateQuestionReward",
			"outputs": [
				{
					"internalType": "uint256",
					"name": "",
					"type": "uint256"
				}
			],
			"stateMutability": "view",
			"type": "function"
		},
		{
			"inputs": [
				{
					"internalType": "uint256",
					"name": "applicationId",
					"type": "uint256"
				},
				{
					"internalType": "address",
					"name": "applicant",
					"type": "address"
				}
			],
			"name": "calculateSkillRefund",
			"outputs": [
				{
					"internalType": "uint256",
					"name": "",
					"type": "uint256"
				}
			],
			"stateMutability": "view",
			"type": "function"
		},
		{
			"inputs": [
				{
					"internalType": "uint256",
					"name": "applicationId",
					"type": "uint256"
				},
				{
					"internalType": "address",
					"name": "voter",
					"type": "address"
				}
			],
			"name": "calculateSkillReward",
			"outputs": [
				{
					"internalType": "uint256",
					"name": "",
					"type": "uint256"
				}
			],
			"stateMutability": "view",
			"type": "function"
		},
		{
			"inputs": [
				{
					"internalType": "address",
					"name": "user",
					"type": "address"
				}
			],
			"name": "getCrossChainStats",
			"outputs": [
				{
					"internalType": "uint256",
					"name": "disputeCount",
					"type": "uint256"
				},
				{
					"internalType": "uint256",
					"name": "skillCount",
					"type": "uint256"
				},
				{
					"internalType": "uint256",
					"name": "questionCount",
					"type": "uint256"
				}
			],
			"stateMutability": "view",
			"type": "function"
		},
		{
			"inputs": [],
			"name": "getDisputeCount",
			"outputs": [
				{
					"internalType": "uint256",
					"name": "",
					"type": "uint256"
				}
			],
			"stateMutability": "view",
			"type": "function"
		},
		{
			"inputs": [
				{
					"internalType": "uint256",
					"name": "disputeId",
					"type": "uint256"
				}
			],
			"name": "getDisputeDetails",
			"outputs": [
				{
					"components": [
						{
							"internalType": "uint256",
							"name": "id",
							"type": "uint256"
						},
						{
							"internalType": "uint256",
							"name": "jobId",
							"type": "uint256"
						},
						{
							"internalType": "address",
							"name": "initiator",
							"type": "address"
						},
						{
							"internalType": "address",
							"name": "respondent",
							"type": "address"
						},
						{
							"internalType": "string",
							"name": "reason",
							"type": "string"
						},
						{
							"internalType": "enum DisputeStorage.DisputeStatus",
							"name": "status",
							"type": "uint8"
						},
						{
							"internalType": "bool",
							"name": "resultDetermined",
							"type": "bool"
						},
						{
							"internalType": "bool",
							"name": "fundsReleased",
							"type": "bool"
						},
						{
							"internalType": "address",
							"name": "recipient",
							"type": "address"
						},
						{
							"internalType": "uint256",
							"name": "lockedAmount",
							"type": "uint256"
						},
						{
							"internalType": "uint256",
							"name": "createdAt",
							"type": "uint256"
						},
						{
							"internalType": "uint256",
							"name": "resolvedAt",
							"type": "uint256"
						},
						{
							"internalType": "string",
							"name": "evidence",
							"type": "string"
						},
						{
							"internalType": "string",
							"name": "assignedOracle",
							"type": "string"
						},
						{
							"internalType": "uint256",
							"name": "requiredVotes",
							"type": "uint256"
						},
						{
							"internalType": "bool",
							"name": "oracleValidated",
							"type": "bool"
						}
					],
					"internalType": "struct DisputeStorage.Dispute",
					"name": "dispute",
					"type": "tuple"
				},
				{
					"internalType": "uint256",
					"name": "votesFor",
					"type": "uint256"
				},
				{
					"internalType": "uint256",
					"name": "votesAgainst",
					"type": "uint256"
				}
			],
			"stateMutability": "view",
			"type": "function"
		},
		{
			"inputs": [],
			"name": "getDisputeFee",
			"outputs": [
				{
					"internalType": "uint256",
					"name": "",
					"type": "uint256"
				}
			],
			"stateMutability": "view",
			"type": "function"
		},
		{
			"inputs": [],
			"name": "getFrontendContract",
			"outputs": [
				{
					"internalType": "address",
					"name": "",
					"type": "address"
				}
			],
			"stateMutability": "view",
			"type": "function"
		},
		{
			"inputs": [],
			"name": "getQuestionCount",
			"outputs": [
				{
					"internalType": "uint256",
					"name": "",
					"type": "uint256"
				}
			],
			"stateMutability": "view",
			"type": "function"
		},
		{
			"inputs": [
				{
					"internalType": "uint256",
					"name": "questionId",
					"type": "uint256"
				}
			],
			"name": "getQuestionDetails",
			"outputs": [
				{
					"components": [
						{
							"internalType": "uint256",
							"name": "id",
							"type": "uint256"
						},
						{
							"internalType": "address",
							"name": "asker",
							"type": "address"
						},
						{
							"internalType": "string",
							"name": "questionHash",
							"type": "string"
						},
						{
							"internalType": "string",
							"name": "oracleName",
							"type": "string"
						},
						{
							"internalType": "enum QuestionStorage.QuestionStatus",
							"name": "status",
							"type": "uint8"
						},
						{
							"internalType": "uint256",
							"name": "createdAt",
							"type": "uint256"
						},
						{
							"internalType": "uint256",
							"name": "answeredAt",
							"type": "uint256"
						}
					],
					"internalType": "struct QuestionStorage.Question",
					"name": "question",
					"type": "tuple"
				},
				{
					"internalType": "uint256",
					"name": "votesFor",
					"type": "uint256"
				},
				{
					"internalType": "uint256",
					"name": "votesAgainst",
					"type": "uint256"
				}
			],
			"stateMutability": "view",
			"type": "function"
		},
		{
			"inputs": [],
			"name": "getQuestionFee",
			"outputs": [
				{
					"internalType": "uint256",
					"name": "",
					"type": "uint256"
				}
			],
			"stateMutability": "view",
			"type": "function"
		},
		{
			"inputs": [],
			"name": "getSkillApplicationCount",
			"outputs": [
				{
					"internalType": "uint256",
					"name": "",
					"type": "uint256"
				}
			],
			"stateMutability": "view",
			"type": "function"
		},
		{
			"inputs": [
				{
					"internalType": "uint256",
					"name": "applicationId",
					"type": "uint256"
				}
			],
			"name": "getSkillApplicationDetails",
			"outputs": [
				{
					"components": [
						{
							"internalType": "uint256",
							"name": "id",
							"type": "uint256"
						},
						{
							"internalType": "address",
							"name": "applicant",
							"type": "address"
						},
						{
							"internalType": "string",
							"name": "skillName",
							"type": "string"
						},
						{
							"internalType": "string",
							"name": "evidence",
							"type": "string"
						},
						{
							"internalType": "string",
							"name": "oracleName",
							"type": "string"
						},
						{
							"internalType": "enum SkillStorage.SkillStatus",
							"name": "status",
							"type": "uint8"
						},
						{
							"internalType": "uint256",
							"name": "createdAt",
							"type": "uint256"
						},
						{
							"internalType": "uint256",
							"name": "verifiedAt",
							"type": "uint256"
						}
					],
					"internalType": "struct SkillStorage.SkillApplication",
					"name": "",
					"type": "tuple"
				}
			],
			"stateMutability": "view",
			"type": "function"
		},
		{
			"inputs": [
				{
					"internalType": "address",
					"name": "applicant",
					"type": "address"
				},
				{
					"internalType": "string",
					"name": "skillName",
					"type": "string"
				}
			],
			"name": "getSkillApplicationId",
			"outputs": [
				{
					"internalType": "uint256",
					"name": "",
					"type": "uint256"
				}
			],
			"stateMutability": "view",
			"type": "function"
		},
		{
			"inputs": [],
			"name": "getSkillVerificationFee",
			"outputs": [
				{
					"internalType": "uint256",
					"name": "",
					"type": "uint256"
				}
			],
			"stateMutability": "view",
			"type": "function"
		},
		{
			"inputs": [
				{
					"internalType": "address",
					"name": "initialOwner",
					"type": "address"
				}
			],
			"name": "initialize",
			"outputs": [],
			"stateMutability": "nonpayable",
			"type": "function"
		},
		{
			"inputs": [
				{
					"internalType": "address",
					"name": "applicant",
					"type": "address"
				},
				{
					"internalType": "string",
					"name": "skillName",
					"type": "string"
				}
			],
			"name": "isSkillVerified",
			"outputs": [
				{
					"internalType": "bool",
					"name": "",
					"type": "bool"
				}
			],
			"stateMutability": "view",
			"type": "function"
		},
		{
			"inputs": [],
			"name": "owner",
			"outputs": [
				{
					"internalType": "address",
					"name": "",
					"type": "address"
				}
			],
			"stateMutability": "view",
			"type": "function"
		},
		{
			"inputs": [
				{
					"internalType": "bytes",
					"name": "payload",
					"type": "bytes"
				}
			],
			"name": "processCrossChainMessage",
			"outputs": [],
			"stateMutability": "nonpayable",
			"type": "function"
		},
		{
			"inputs": [
				{
					"internalType": "uint256",
					"name": "jobId",
					"type": "uint256"
				},
				{
					"internalType": "string",
					"name": "disputeHash",
					"type": "string"
				},
				{
					"internalType": "string",
					"name": "oracleName",
					"type": "string"
				},
				{
					"internalType": "address",
					"name": "initiator",
					"type": "address"
				},
				{
					"internalType": "address",
					"name": "respondent",
					"type": "address"
				},
				{
					"internalType": "uint256",
					"name": "lockedAmount",
					"type": "uint256"
				}
			],
			"name": "processDispute",
			"outputs": [
				{
					"internalType": "uint256",
					"name": "disputeId",
					"type": "uint256"
				}
			],
			"stateMutability": "nonpayable",
			"type": "function"
		},
		{
			"inputs": [
				{
					"internalType": "uint256",
					"name": "disputeId",
					"type": "uint256"
				},
				{
					"internalType": "address",
					"name": "escalator",
					"type": "address"
				}
			],
			"name": "processDisputeEscalation",
			"outputs": [
				{
					"internalType": "bool",
					"name": "",
					"type": "bool"
				}
			],
			"stateMutability": "nonpayable",
			"type": "function"
		},
		{
			"inputs": [
				{
					"internalType": "uint256",
					"name": "disputeId",
					"type": "uint256"
				},
				{
					"internalType": "address",
					"name": "recipient",
					"type": "address"
				},
				{
					"internalType": "address",
					"name": "resolver",
					"type": "address"
				}
			],
			"name": "processDisputeResolution",
			"outputs": [
				{
					"internalType": "bool",
					"name": "",
					"type": "bool"
				}
			],
			"stateMutability": "nonpayable",
			"type": "function"
		},
		{
			"inputs": [
				{
					"internalType": "uint256",
					"name": "disputeId",
					"type": "uint256"
				},
				{
					"internalType": "bool",
					"name": "inFavor",
					"type": "bool"
				},
				{
					"internalType": "string",
					"name": "reasonHash",
					"type": "string"
				},
				{
					"internalType": "address",
					"name": "voter",
					"type": "address"
				}
			],
			"name": "processDisputeVote",
			"outputs": [
				{
					"internalType": "bool",
					"name": "",
					"type": "bool"
				}
			],
			"stateMutability": "nonpayable",
			"type": "function"
		},
		{
			"inputs": [
				{
					"internalType": "uint256",
					"name": "disputeId",
					"type": "uint256"
				},
				{
					"internalType": "string",
					"name": "evidenceHash",
					"type": "string"
				},
				{
					"internalType": "address",
					"name": "submitter",
					"type": "address"
				}
			],
			"name": "processEvidenceSubmission",
			"outputs": [
				{
					"internalType": "bool",
					"name": "",
					"type": "bool"
				}
			],
			"stateMutability": "nonpayable",
			"type": "function"
		},
		{
			"inputs": [
				{
					"internalType": "string",
					"name": "questionHash",
					"type": "string"
				},
				{
					"internalType": "string",
					"name": "oracleName",
					"type": "string"
				},
				{
					"internalType": "address",
					"name": "asker",
					"type": "address"
				}
			],
			"name": "processQuestion",
			"outputs": [
				{
					"internalType": "uint256",
					"name": "questionId",
					"type": "uint256"
				}
			],
			"stateMutability": "nonpayable",
			"type": "function"
		},
		{
			"inputs": [
				{
					"internalType": "uint256",
					"name": "questionId",
					"type": "uint256"
				},
				{
					"internalType": "bool",
					"name": "inFavor",
					"type": "bool"
				},
				{
					"internalType": "string",
					"name": "reasonHash",
					"type": "string"
				},
				{
					"internalType": "address",
					"name": "voter",
					"type": "address"
				}
			],
			"name": "processQuestionVote",
			"outputs": [
				{
					"internalType": "bool",
					"name": "",
					"type": "bool"
				}
			],
			"stateMutability": "nonpayable",
			"type": "function"
		},
		{
			"inputs": [
				{
					"internalType": "string",
					"name": "skillName",
					"type": "string"
				},
				{
					"internalType": "string",
					"name": "oracleName",
					"type": "string"
				},
				{
					"internalType": "string",
					"name": "evidenceHash",
					"type": "string"
				},
				{
					"internalType": "address",
					"name": "applicant",
					"type": "address"
				}
			],
			"name": "processSkillApplication",
			"outputs": [
				{
					"internalType": "uint256",
					"name": "applicationId",
					"type": "uint256"
				}
			],
			"stateMutability": "nonpayable",
			"type": "function"
		},
		{
			"inputs": [
				{
					"internalType": "uint256",
					"name": "applicationId",
					"type": "uint256"
				},
				{
					"internalType": "bool",
					"name": "inFavor",
					"type": "bool"
				},
				{
					"internalType": "string",
					"name": "reasonHash",
					"type": "string"
				},
				{
					"internalType": "address",
					"name": "voter",
					"type": "address"
				}
			],
			"name": "processSkillVote",
			"outputs": [
				{
					"internalType": "bool",
					"name": "",
					"type": "bool"
				}
			],
			"stateMutability": "nonpayable",
			"type": "function"
		},
		{
			"inputs": [],
			"name": "proxiableUUID",
			"outputs": [
				{
					"internalType": "bytes32",
					"name": "",
					"type": "bytes32"
				}
			],
			"stateMutability": "view",
			"type": "function"
		},
		{
			"inputs": [],
			"name": "renounceOwnership",
			"outputs": [],
			"stateMutability": "nonpayable",
			"type": "function"
		},
		{
			"inputs": [
				{
					"internalType": "address",
					"name": "newContract",
					"type": "address"
				}
			],
			"name": "setDAOContract",
			"outputs": [],
			"stateMutability": "nonpayable",
			"type": "function"
		},
		{
			"inputs": [
				{
					"internalType": "address",
					"name": "frontendAddress",
					"type": "address"
				}
			],
			"name": "setFrontendContract",
			"outputs": [],
			"stateMutability": "nonpayable",
			"type": "function"
		},
		{
			"inputs": [
				{
					"internalType": "address",
					"name": "newContract",
					"type": "address"
				}
			],
			"name": "setGovernanceActionTracker",
			"outputs": [],
			"stateMutability": "nonpayable",
			"type": "function"
		},
		{
			"inputs": [
				{
					"internalType": "address",
					"name": "newContract",
					"type": "address"
				}
			],
			"name": "setNativeDAOGovernanceContract",
			"outputs": [],
			"stateMutability": "nonpayable",
			"type": "function"
		},
		{
			"inputs": [
				{
					"internalType": "address",
					"name": "skillOracleManagerAddress",
					"type": "address"
				}
			],
			"name": "setSkillOracleManager",
			"outputs": [],
			"stateMutability": "nonpayable",
			"type": "function"
		},
		{
			"inputs": [
				{
					"internalType": "address",
					"name": "newOwner",
					"type": "address"
				}
			],
			"name": "transferOwnership",
			"outputs": [],
			"stateMutability": "nonpayable",
			"type": "function"
		},
		{
			"inputs": [
				{
					"internalType": "uint256",
					"name": "newFee",
					"type": "uint256"
				}
			],
			"name": "updateDisputeFee",
			"outputs": [],
			"stateMutability": "nonpayable",
			"type": "function"
		},
		{
			"inputs": [
				{
					"internalType": "uint256",
					"name": "newPeriod",
					"type": "uint256"
				}
			],
			"name": "updateDisputeVotingPeriod",
			"outputs": [],
			"stateMutability": "nonpayable",
			"type": "function"
		},
		{
			"inputs": [
				{
					"internalType": "uint256",
					"name": "newFee",
					"type": "uint256"
				}
			],
			"name": "updateQuestionFee",
			"outputs": [],
			"stateMutability": "nonpayable",
			"type": "function"
		},
		{
			"inputs": [
				{
					"internalType": "uint256",
					"name": "newPeriod",
					"type": "uint256"
				}
			],
			"name": "updateQuestionVotingPeriod",
			"outputs": [],
			"stateMutability": "nonpayable",
			"type": "function"
		},
		{
			"inputs": [
				{
					"internalType": "uint256",
					"name": "newFee",
					"type": "uint256"
				}
			],
			"name": "updateSkillVerificationFee",
			"outputs": [],
			"stateMutability": "nonpayable",
			"type": "function"
		},
		{
			"inputs": [
				{
					"internalType": "uint256",
					"name": "newPeriod",
					"type": "uint256"
				}
			],
			"name": "updateSkillVotingPeriod",
			"outputs": [],
			"stateMutability": "nonpayable",
			"type": "function"
		},
		{
			"inputs": [
				{
					"internalType": "address",
					"name": "newImplementation",
					"type": "address"
				},
				{
					"internalType": "bytes",
					"name": "data",
					"type": "bytes"
				}
			],
			"name": "upgradeToAndCall",
			"outputs": [],
			"stateMutability": "payable",
			"type": "function"
		},
		{
			"inputs": [
				{
					"internalType": "address",
					"name": "user",
					"type": "address"
				},
				{
					"internalType": "uint256",
					"name": "jobId",
					"type": "uint256"
				},
				{
					"internalType": "string",
					"name": "disputeHash",
					"type": "string"
				},
				{
					"internalType": "string",
					"name": "oracleName",
					"type": "string"
				},
				{
					"internalType": "uint256",
					"name": "usdtFee",
					"type": "uint256"
				}
			],
			"name": "validateCrossChainDispute",
			"outputs": [
				{
					"internalType": "uint256",
					"name": "disputeId",
					"type": "uint256"
				}
			],
			"stateMutability": "nonpayable",
			"type": "function"
		},
		{
			"inputs": [
				{
					"internalType": "address",
					"name": "user",
					"type": "address"
				},
				{
					"internalType": "uint256",
					"name": "disputeId",
					"type": "uint256"
				}
			],
			"name": "validateCrossChainDisputeClaim",
			"outputs": [],
			"stateMutability": "nonpayable",
			"type": "function"
		},
		{
			"inputs": [
				{
					"internalType": "address",
					"name": "user",
					"type": "address"
				},
				{
					"internalType": "string",
					"name": "question",
					"type": "string"
				},
				{
					"internalType": "string",
					"name": "contextHash",
					"type": "string"
				},
				{
					"internalType": "string",
					"name": "oracleName",
					"type": "string"
				},
				{
					"internalType": "uint256",
					"name": "usdtFee",
					"type": "uint256"
				}
			],
			"name": "validateCrossChainQuestion",
			"outputs": [
				{
					"internalType": "uint256",
					"name": "questionId",
					"type": "uint256"
				}
			],
			"stateMutability": "nonpayable",
			"type": "function"
		},
		{
			"inputs": [
				{
					"internalType": "address",
					"name": "user",
					"type": "address"
				},
				{
					"internalType": "string",
					"name": "skill",
					"type": "string"
				},
				{
					"internalType": "string",
					"name": "proofHash",
					"type": "string"
				},
				{
					"internalType": "uint256",
					"name": "usdtFee",
					"type": "uint256"
				}
			],
			"name": "validateCrossChainSkillVerification",
			"outputs": [
				{
					"internalType": "uint256",
					"name": "applicationId",
					"type": "uint256"
				}
			],
			"stateMutability": "nonpayable",
			"type": "function"
		}
	]
}