{
	"data": {
		"bytecode": {
			"linkReferences": {},
			"object": "60a060405230608052348015601357600080fd5b50608051614fd961003d600039600081816139b8015281816139e10152613cf90152614fd96000f3fe6080604052600436106102c25760003560e01c80638d22b8631161017f578063b4daf3a0116100e1578063d7ec40ee1161008a578063f2fde38b11610064578063f2fde38b1461084e578063f3a4735a1461039e578063f7cbfd181461086e57600080fd5b8063d7ec40ee146107fb578063dc85be7a1461081b578063ec4859c91461082e57600080fd5b8063c2010e50116100bb578063c2010e501461079b578063cfa3f450146107bb578063d566a411146107db57600080fd5b8063b4daf3a01461073b578063ba6f70311461075b578063bf5203b31461077b57600080fd5b80639e5d9c0911610143578063ad3cb1cc1161011d578063ad3cb1cc146106ae578063ae540f8a146106ec578063b4ae33fa1461071b57600080fd5b80639e5d9c091461065b578063a1c0d32f1461066e578063a30b77631461068e57600080fd5b80638d22b8631461059e5780638d2c71d0146105b15780638da5cb5b146105d15780638ed9895c146105fe5780639c32c4471461063b57600080fd5b80634f1ef286116102285780636c09a5e3116101ec5780637a149ab4116101c65780637a149ab41461053b5780638129fc1c1461055b578063832a05b71461057057600080fd5b80636c09a5e3146104e6578063715018a6146105065780637416963d1461051b57600080fd5b80634f1ef2861461045d578063501555fa14610470578063514f45de1461049057806352d1902d146104b057806364cc6b59146104d357600080fd5b80632f0a551d1161028a5780633d01e0fa116102645780633d01e0fa146103e75780633efaea1f146104075780634cac35c61461042757600080fd5b80632f0a551d1461037e57806337ff6fff1461039e57806339b0d477146103b157600080fd5b806311461014146102c757806315cce0c9146102fc57806316a8852a1461031c5780631dffa3dc1461033e5780632273bd051461035e575b600080fd5b3480156102d357600080fd5b506102e76102e23660046144e1565b61088e565b60405190151581526020015b60405180910390f35b34801561030857600080fd5b506102e7610317366004614511565b6108b2565b34801561032857600080fd5b5061033c61033736600461453d565b610922565b005b34801561034a57600080fd5b506102e76103593660046144e1565b610ca9565b34801561036a57600080fd5b5061033c61037936600461453d565b610e04565b34801561038a57600080fd5b5061033c61039936600461456d565b610f01565b61033c6103ac366004614511565b610fa5565b3480156103bd57600080fd5b506103d16103cc3660046144e1565b610fb3565b6040516102f39a99989796959493929190614605565b3480156103f357600080fd5b5061033c6104023660046144e1565b61114c565b34801561041357600080fd5b5061033c610422366004614744565b61152a565b34801561043357600080fd5b506104476104423660046144e1565b61154d565b6040516102f39a9998979695949392919061478b565b61033c61046b3660046147f8565b6116a7565b34801561047c57600080fd5b5061033c61048b366004614850565b6116c2565b34801561049c57600080fd5b506035546001600160a01b031615156102e7565b3480156104bc57600080fd5b506104c561173d565b6040519081526020016102f3565b61033c6104e1366004614850565b61176c565b3480156104f257600080fd5b5061033c610501366004614744565b61188b565b34801561051257600080fd5b5061033c611895565b34801561052757600080fd5b5061033c610536366004614885565b6118a9565b34801561054757600080fd5b5061033c6105563660046148af565b611a64565b34801561056757600080fd5b5061033c611ab6565b34801561057c57600080fd5b5061059061058b36600461453d565b611bc0565b6040516102f39291906148ca565b61033c6105ac3660046144e1565b611d31565b3480156105bd57600080fd5b506104c56105cc36600461453d565b611e3a565b3480156105dd57600080fd5b506105e6611f51565b6040516001600160a01b0390911681526020016102f3565b34801561060a57600080fd5b5061061e61061936600461453d565b611f7f565b6040805193845291151560208401521515908201526060016102f3565b34801561064757600080fd5b5061033c610656366004614744565b612067565b61033c610669366004614511565b6121a8565b34801561067a57600080fd5b5061033c6106893660046144e1565b6121b2565b34801561069a57600080fd5b5061033c6106a93660046148f4565b6122bd565b3480156106ba57600080fd5b506106df604051806040016040528060058152602001640352e302e360dc1b81525081565b6040516102f39190614920565b3480156106f857600080fd5b5061070c610707366004614511565b612582565b6040516102f393929190614933565b34801561072757600080fd5b506102e7610736366004614997565b6126de565b34801561074757600080fd5b5061033c6107563660046148af565b61299a565b34801561076757600080fd5b506104c56107763660046144e1565b6129ec565b34801561078757600080fd5b5061033c610796366004614a5d565b612a7d565b3480156107a757600080fd5b506104c56107b63660046144e1565b612f0c565b3480156107c757600080fd5b506105e66107d636600461453d565b612f59565b3480156107e757600080fd5b506104c56107f63660046144e1565b61301d565b34801561080757600080fd5b5061033c610816366004614744565b61306a565b61033c6108293660046144e1565b6131ad565b34801561083a57600080fd5b506104c5610849366004614afb565b613405565b34801561085a57600080fd5b5061033c6108693660046148af565b613628565b34801561087a57600080fd5b506104c5610889366004614b5a565b613666565b6000818152603660205260408120600101546001600160a01b031615155b92915050565b6000828152603660205260408120600101546001600160a01b03166108f25760405162461bcd60e51b81526004016108e990614bcc565b60405180910390fd5b5060008281526036602090815260408083206001600160a01b0385168452600d0190915290205460ff1692915050565b6000828152603660205260409020600101546001600160a01b03166109595760405162461bcd60e51b81526004016108e990614bcc565b600082815260366020526040902060018101546001600160a01b031633146109d15760405162461bcd60e51b815260206004820152602560248201527f4f6e6c79206a6f622067697665722063616e20636f6d706c657465206d696c6560448201526473746f6e6560d81b60648201526084016108e9565b6004810154610100900460ff16156109fb5760405162461bcd60e51b81526004016108e990614bf8565b81816009015414610a1e5760405162461bcd60e51b81526004016108e990614c2f565b600881018054600a83015460009283905560078401805492936001600160a01b0390921692849290610a51908490614c88565b90915550508115610b4e576040516001600160a01b0382169083156108fc029084906000818181858888f19350505050158015610a92573d6000803e3d6000fd5b506034546001600160a01b031615610b4e57603454604051639b1df01760e01b81526001600160a01b0383811660048301526024820185905290911690639b1df01790604401600060405180830381600087803b158015610af257600080fd5b505af1158015610b06573d6000803e3d6000fd5b50505050806001600160a01b03167f9062dc956de097cda36ff6c116b8ac45aa85d92caf323e282ac98556ded8946083604051610b4591815260200190565b60405180910390a25b83857fd4dbda378623f00b72ef135b4579b7ba064c49645217eb107d663831efac635884604051610b8191815260200190565b60405180910390a383857fafc8fc5dd6037bf38d34d9d51bb5ecc0af143248332c63ae9e83bbef6d4638d984604051610bbc91815260200190565b60405180910390a36006830154610bd590600190614c9b565b8403610c1c5760048301805461ff00191661010017905560405185907f02244c8529cb95e213ee542e76e7776342b3dabd10203d01472bbf4441be892990600090a2610ca2565b600983018054906000610c2e83614cae565b909155508590507ff61b08d14084992ca42ecc6f6c1b58e0007a0f9156069ad2d36218fa7ea1eb32610c61866001614c88565b60068601610c70886001614c88565b81548110610c8057610c80614cc7565b6000918252602091829020015460408051938452918301520160405180910390a25b5050505050565b6000818152603660205260408120600101546001600160a01b0316610ce05760405162461bcd60e51b81526004016108e990614bcc565b600082815260366020526040902060018101546001600160a01b03163314610d545760405162461bcd60e51b815260206004820152602160248201527f4f6e6c79206a6f622067697665722063616e2063616e63656c20746865206a6f6044820152603160f91b60648201526084016108e9565b6004810154610100900460ff1615610d7e5760405162461bcd60e51b81526004016108e990614bf8565b600881018054600090915560048201805461ffff19166101001790558015610dcf57604051339082156108fc029083906000818181858888f19350505050158015610dcd573d6000803e3d6000fd5b505b60405184907f58243f872c550ad02802199ade99eb4250f6bb19e9abbf2d3de7b969c0eb5e4f90600090a25060019392505050565b6000828152603660205260409020600101546001600160a01b0316610e3b5760405162461bcd60e51b81526004016108e990614bcc565b60008281526036602052604090206004810154610100900460ff1615610e735760405162461bcd60e51b81526004016108e990614bf8565b600981015460068201548110610ec05760405162461bcd60e51b81526020600482015260126024820152714e6f206d6f7265206d696c6573746f6e657360701b60448201526064016108e9565b80847fe60846a8f6e10630b3d17d79f8aa4962e7a3abe024c788262ec30bc55d17b79785604051610ef391815260200190565b60405180910390a350505050565b6000838152603660205260409020600101546001600160a01b0316610f385760405162461bcd60e51b81526004016108e990614bcc565b610f40611f51565b6001600160a01b0316336001600160a01b031614610fa05760405162461bcd60e51b815260206004820152601f60248201527f4f6e6c79206f776e65722063616e207265736f6c76652064697370757465730060448201526064016108e9565b505050565b610faf82826138d3565b5050565b600080606080600080600080600080610fe68b6000908152603660205260409020600101546001600160a01b0316151590565b6110025760405162461bcd60e51b81526004016108e990614bcc565b60008b815260366020526040812090805b60068301548110156110545782600601818154811061103457611034614cc7565b90600052602060002001548261104a9190614c88565b9150600101611013565b506004820154600090610100900460ff1615611072575060026110b9565b600483015460ff161580156110935750600a8301546001600160a01b031615155b156110a0575060016110b9565b600483015460ff16156110b5575060006110b9565b5060035b82546001840154600b850154600a86015460048701546001600160a01b0393841693879360009390929116908790610100900460ff166110fa5760006110fc565b425b60405180602001604052806000815250959493929190604051806020016040528060008152509594939291909c509c509c509c509c509c509c509c509c509c505050509193959799509193959799565b6000818152603760205260409020805482146111aa5760405162461bcd60e51b815260206004820152601960248201527f5375626d697373696f6e20646f6573206e6f742065786973740000000000000060448201526064016108e9565b600581015460ff16156111cf5760405162461bcd60e51b81526004016108e990614cdd565b6001818101546000908152603660205260409020908101546001600160a01b0316331461123e5760405162461bcd60e51b815260206004820152601f60248201527f4f6e6c79206a6f622067697665722063616e20617070726f766520776f726b0060448201526064016108e9565b60058201805460ff191660011790556009810154600882018054600285015460009283905560078501805492936001600160a01b0390921692849290611285908490614c88565b90915550508115611382576040516001600160a01b0382169083156108fc029084906000818181858888f193505050501580156112c6573d6000803e3d6000fd5b506034546001600160a01b03161561138257603454604051639b1df01760e01b81526001600160a01b0383811660048301526024820185905290911690639b1df01790604401600060405180830381600087803b15801561132657600080fd5b505af115801561133a573d6000803e3d6000fd5b50505050806001600160a01b03167f9062dc956de097cda36ff6c116b8ac45aa85d92caf323e282ac98556ded894608360405161137991815260200190565b60405180910390a25b6035546001600160a01b03161561140c5760355460405163168ca89d60e31b81526001600160a01b038381166004830152600160248301529091169063b46544e8906044016020604051808303816000875af11580156113e6573d6000803e3d6000fd5b505050506040513d601f19601f8201168201806040525081019061140a9190614d23565b505b600684015461141d90600190614c9b565b83036114675760048401805461ff00191661010017905560018501546040517f02244c8529cb95e213ee542e76e7776342b3dabd10203d01472bbf4441be892990600090a26114f2565b60098401805490600061147983614cae565b919050555084600101547ff61b08d14084992ca42ecc6f6c1b58e0007a0f9156069ad2d36218fa7ea1eb328460016114b19190614c88565b600687016114c0876001614c88565b815481106114d0576114d0614cc7565b6000918252602091829020015460408051938452918301520160405180910390a25b600185015460405187907faf8c00204411d5f080de0913186cb59749c06fed4928e61473415b44facf6d8e90600090a3505050505050565b60408051600080825281830190925260208101918252610faf9184918491612a7d565b600080606060008060008060008060006115818b6000908152603660205260409020600101546001600160a01b0316151590565b61159d5760405162461bcd60e51b81526004016108e990614bcc565b60008b8152603660205260409020805460018201546004830154600a84015460098501546006860154600787015460028801546003890180546001600160a01b0398891698919760ff8082169861010090920416969216949193919290889061160590614d3c565b80601f016020809104026020016040519081016040528092919081815260200182805461163190614d3c565b801561167e5780601f106116535761010080835404028352916020019161167e565b820191906000526020600020905b81548152906001019060200180831161166157829003601f168201915b505050505097509a509a509a509a509a509a509a509a509a509a50509193959799509193959799565b6116af6139ad565b6116b882613a64565b610faf8282613a6c565b6000838152603660205260409020600101546001600160a01b03166116f95760405162461bcd60e51b81526004016108e990614bcc565b6000838152603660205260409020600101546001600160a01b031633146117325760405162461bcd60e51b81526004016108e990614d76565b610fa0838383613b3b565b6000611747613cee565b507f360894a13ba1a3210667c828492db98dca3e2076cc3735a920a3ca505d382bbc90565b6000838152603660205260409020600101546001600160a01b03166117a35760405162461bcd60e51b81526004016108e990614bcc565b6000838152603660205260409020600101546001600160a01b031633146117dc5760405162461bcd60e51b81526004016108e990614d76565b6117e7838383613b3b565b6000838152603660205260408120600681018054919291829061180c5761180c614cc7565b90600052602060002001549050803410156118395760405162461bcd60e51b81526004016108e990614db7565b61184585600083613d37565b80341115610ca257336108fc61185b8334614c9b565b6040518115909202916000818181858888f19350505050158015611883573d6000803e3d6000fd5b505050505050565b610faf828261152a565b61189d613ddb565b6118a76000613e0d565b565b60006118b3613e7e565b805490915060ff600160401b820416159067ffffffffffffffff166000811580156118db5750825b905060008267ffffffffffffffff1660011480156118f85750303b155b905081158015611906575080155b156119245760405163f92ee8a960e01b815260040160405180910390fd5b845467ffffffffffffffff19166001178555831561194e57845460ff60401b1916600160401b1785555b61195733613ea7565b61195f613eb8565b611967613ec0565b6001600160a01b038716156119be57603580546001600160a01b0319166001600160a01b0389169081179091556040517f3d5c4663d297c84de39c0f2d425dd7ceccfcf293f3cda8a3b70c2679b767a0be90600090a25b6001600160a01b03861615611a1557603480546001600160a01b0319166001600160a01b0388169081179091556040517f3797cdcf2854123dbfdcea167ca6e2c6eff61f1a41f5774244c532f9d2fbd7b390600090a25b8315611a5b57845460ff60401b19168555604051600181527fc7f505b2f371ae2175ee4913f4499e1f2633a7b5936321eed1cdaeb6115181d29060200160405180910390a15b50505050505050565b611a6c613ddb565b603480546001600160a01b0319166001600160a01b0383169081179091556040517f3797cdcf2854123dbfdcea167ca6e2c6eff61f1a41f5774244c532f9d2fbd7b390600090a250565b6000611ac0613e7e565b805490915060ff600160401b820416159067ffffffffffffffff16600081158015611ae85750825b905060008267ffffffffffffffff166001148015611b055750303b155b905081158015611b13575080155b15611b315760405163f92ee8a960e01b815260040160405180910390fd5b845467ffffffffffffffff191660011785558315611b5b57845460ff60401b1916600160401b1785555b611b6433613ea7565b611b6c613eb8565b611b74613ec0565b8315610ca257845460ff60401b19168555604051600181527fc7f505b2f371ae2175ee4913f4499e1f2633a7b5936321eed1cdaeb6115181d29060200160405180910390a15050505050565b6000828152603660205260408120600101546060906001600160a01b0316611bfa5760405162461bcd60e51b81526004016108e990614bcc565b600084815260366020526040902060028101548410611c555760405162461bcd60e51b8152602060048201526017602482015276092dcecc2d8d2c840c2e0e0d8d2c6c2dce840d2dcc8caf604b1b60448201526064016108e9565b6000816002018581548110611c6c57611c6c614cc7565b60009182526020808320909101546001600160a01b0316808352600c85019091526040909120805491925082918190611ca490614d3c565b80601f0160208091040260200160405190810160405280929190818152602001828054611cd090614d3c565b8015611d1d5780601f10611cf257610100808354040283529160200191611d1d565b820191906000526020600020905b815481529060010190602001808311611d0057829003601f168201915b505050505090509350935050509250929050565b6000818152603660205260409020600101546001600160a01b0316611d685760405162461bcd60e51b81526004016108e990614bcc565b600081815260366020526040902060018101546001600160a01b03163314611dd25760405162461bcd60e51b815260206004820152601f60248201527f4f6e6c79206a6f622067697665722063616e2066756e6420746865206a6f620060448201526064016108e9565b6004810154610100900460ff1615611dfc5760405162461bcd60e51b81526004016108e990614bf8565b817f9d25c5cf940eed311c45e5a0b4c7c8790a356d3c356453b76bb7e232db3f384a34604051611e2e91815260200190565b60405180910390a25050565b6000828152603660205260408120600101546001600160a01b0316611e715760405162461bcd60e51b81526004016108e990614bcc565b6000838152603660205260409020600481015460ff1615611eef5760405162461bcd60e51b815260206004820152603260248201527f4a6f62206d7573742062652061737369676e6564206265666f7265206c6f636b604482015271696e672064697370757465642066756e647360701b60648201526084016108e9565b60088101805460009182905584825260396020526040918290208190559051849086907fdcd1b584798444b5aa8d1e99de5359308e14d34a63eb3b0c32a815f05ca62d4190611f419085815260200190565b60405180910390a3949350505050565b7f9016d09d72d40fdae2fd8ceac6b6234c7706214fd39c1cd1e609a0528c199300546001600160a01b031690565b600082815260366020526040812060010154819081906001600160a01b0316611fba5760405162461bcd60e51b81526004016108e990614bcc565b6000858152603660205260409020600681015485106120155760405162461bcd60e51b8152602060048201526017602482015276092dcecc2d8d2c840dad2d8cae6e8dedcca40d2dcc8caf604b1b60448201526064016108e9565b6000858260090154118061203257506004820154610100900460ff165b9050600081905082600601878154811061204e5761204e614cc7565b6000918252602090912001549891975095509350505050565b6000828152603660205260409020600101546001600160a01b031661209e5760405162461bcd60e51b81526004016108e990614bcc565b60008281526036602052604090206004810154610100900460ff16156120d65760405162461bcd60e51b81526004016108e990614bf8565b60018101546001600160a01b03163314806120fd5750600a8101546001600160a01b031633145b6121615760405162461bcd60e51b815260206004820152602f60248201527f4f6e6c79206a6f62206769766572206f7220667265656c616e6365722063616e60448201526e20637265617465206469737075746560881b60648201526084016108e9565b336001600160a01b0316837f05a12122ea7f59c09200ff43c3cfb5a65767c9229840796857acad1cc8246f658460405161219b9190614920565b60405180910390a3505050565b610faf8282610fa5565b6000818152603660205260409020600101546001600160a01b03166121e95760405162461bcd60e51b81526004016108e990614bcc565b600081815260366020526040902060018101546001600160a01b031633146122535760405162461bcd60e51b815260206004820152601f60248201527f4f6e6c79206a6f622067697665722063616e20636f6d706c657465206a6f620060448201526064016108e9565b6004810154610100900460ff161561227d5760405162461bcd60e51b81526004016108e990614bf8565b60048101805461ff00191661010017905560405182907f02244c8529cb95e213ee542e76e7776342b3dabd10203d01472bbf4441be892990600090a25050565b6000838152603660205260409020600101546001600160a01b03166122f45760405162461bcd60e51b81526004016108e990614bcc565b60008381526036602052604090206004810154610100900460ff161561232c5760405162461bcd60e51b81526004016108e990614bf8565b8281600901541461234f5760405162461bcd60e51b81526004016108e990614c2f565b818160070160008282546123639190614c88565b90915550506034546001600160a01b03161561242857603454600a820154604051639b1df01760e01b81526001600160a01b03918216600482015260248101859052911690639b1df01790604401600060405180830381600087803b1580156123cb57600080fd5b505af11580156123df573d6000803e3d6000fd5b50505050600a8101546040518381526001600160a01b03909116907f9062dc956de097cda36ff6c116b8ac45aa85d92caf323e282ac98556ded894609060200160405180910390a25b82847fd4dbda378623f00b72ef135b4579b7ba064c49645217eb107d663831efac63588460405161245b91815260200190565b60405180910390a382847fafc8fc5dd6037bf38d34d9d51bb5ecc0af143248332c63ae9e83bbef6d4638d98460405161249691815260200190565b60405180910390a360068101546124af90600190614c9b565b83036124f65760048101805461ff00191661010017905560405184907f02244c8529cb95e213ee542e76e7776342b3dabd10203d01472bbf4441be892990600090a261257c565b60098101805490600061250883614cae565b909155508490507ff61b08d14084992ca42ecc6f6c1b58e0007a0f9156069ad2d36218fa7ea1eb3261253b856001614c88565b6006840161254a876001614c88565b8154811061255a5761255a614cc7565b6000918252602091829020015460408051938452918301520160405180910390a25b50505050565b60008281526036602052604081206001015460609081906001600160a01b03166125be5760405162461bcd60e51b81526004016108e990614bcc565b60008581526036602090815260408083206001600160a01b0388168452600d018252918290208054600182018054855181860281018601909652808652929460ff90921693909260028601929184919083018282801561263d57602002820191906000526020600020905b815481526020019060010190808311612629575b5050505050915080805461265090614d3c565b80601f016020809104026020016040519081016040528092919081815260200182805461267c90614d3c565b80156126c95780601f1061269e576101008083540402835291602001916126c9565b820191906000526020600020905b8154815290600101906020018083116126ac57829003601f168201915b50505050509050935093509350509250925092565b60006126e8611f51565b6001600160a01b0316336001600160a01b0316146127565760405162461bcd60e51b815260206004820152602560248201527f4f6e6c79206f776e65722063616e2072656c656173652064697370757465642060448201526466756e647360d81b60648201526084016108e9565b6000868152603960205260409020548311156127b45760405162461bcd60e51b815260206004820152601960248201527f496e73756666696369656e74206c6f636b65642066756e64730000000000000060448201526064016108e9565b600086815260396020526040812080548592906127d2908490614c9b565b90915550859050600060646127e78587614e09565b6127f19190614e20565b905060006127ff8287614c9b565b905081156128495761280f611f51565b6001600160a01b03166108fc839081150290604051600060405180830381858888f19350505050158015612847573d6000803e3d6000fd5b505b801561294f576040516001600160a01b0384169082156108fc029083906000818181858888f19350505050158015612885573d6000803e3d6000fd5b508760011480156128a057506034546001600160a01b031615155b1561294f57603454604051639b1df01760e01b81526001600160a01b0385811660048301526024820189905290911690639b1df01790604401600060405180830381600087803b1580156128f357600080fd5b505af1158015612907573d6000803e3d6000fd5b50505050826001600160a01b03167f9062dc956de097cda36ff6c116b8ac45aa85d92caf323e282ac98556ded894608760405161294691815260200190565b60405180910390a25b888a7ff9498d861a0eb9e71886671c14cb9fe1153a422cb069fb0e5cea324fc6f5e34c8860405161298291815260200190565b60405180910390a35060019998505050505050505050565b6129a2613ddb565b603580546001600160a01b0319166001600160a01b0383169081179091556040517f3d5c4663d297c84de39c0f2d425dd7ceccfcf293f3cda8a3b70c2679b767a0be90600090a250565b6000818152603660205260408120600101546001600160a01b0316612a235760405162461bcd60e51b81526004016108e990614bcc565b600082815260366020526040812090805b6006830154811015612a7557826006018181548110612a5557612a55614cc7565b906000526020600020015482612a6b9190614c88565b9150600101612a34565b509392505050565b612a8633613ed0565b612ad25760405162461bcd60e51b815260206004820152601b60248201527f557365722070726f66696c6520646f6573206e6f74206578697374000000000060448201526064016108e9565b6000848152603660205260409020600101546001600160a01b0316612b095760405162461bcd60e51b81526004016108e990614bcc565b60008481526036602052604090206004015460ff16612b6a5760405162461bcd60e51b815260206004820181905260248201527f4a6f62206973206e6f74206f70656e20666f72206170706c69636174696f6e7360448201526064016108e9565b600084815260366020526040902060010154336001600160a01b0390911603612bd55760405162461bcd60e51b815260206004820152601c60248201527f43616e6e6f74206170706c7920746f20796f7572206f776e206a6f620000000060448201526064016108e9565b6000848152603660205260408120905b6002820154811015612c7a57336001600160a01b0316826002018281548110612c1057612c10614cc7565b6000918252602090912001546001600160a01b031603612c725760405162461bcd60e51b815260206004820152601b60248201527f416c7265616479206170706c69656420746f2074686973206a6f62000000000060448201526064016108e9565b600101612be5565b506002810180546001810182556000918252602080832090910180546001600160a01b031916339081179091558252600c8301905260409020612cbd8582614e89565b50825115612ed8576000805b8451811015612d84576000858281518110612ce657612ce6614cc7565b602002602001015111612d555760405162461bcd60e51b815260206004820152603160248201527f50726f706f736564206d696c6573746f6e65207061796d656e74206d75737420604482015270062652067726561746572207468616e203607c1b60648201526084016108e9565b848181518110612d6757612d67614cc7565b602002602001015182612d7a9190614c88565b9150600101612cc9565b5060008111612deb5760405162461bcd60e51b815260206004820152602d60248201527f546f74616c2070726f706f736564207061796d656e74206d757374206265206760448201526c0726561746572207468616e203609c1b60648201526084016108e9565b69021e19e0c9bab2400000811115612e6b5760405162461bcd60e51b815260206004820152603460248201527f50726f706f736564206a6f622076616c75652065786365656473206d6178696d60448201527f756d206c696d6974206f662031304b205553445400000000000000000000000060648201526084016108e9565b6040805160608101825260018082526020808301888152838501889052336000908152600d88018352949094208351815460ff191690151517815593518051939493612ebe938501929190910190614481565b5060408201516002820190612ed39082614e89565b505050505b604051339086907f7af8dab8f5b5481df3e0d9f1ac4bf4af4a4e76f28dba128d6e12201b992bebbe90600090a35050505050565b6000818152603660205260408120600101546001600160a01b0316612f435760405162461bcd60e51b81526004016108e990614bcc565b5060009081526036602052604090206006015490565b6000828152603660205260408120600101546001600160a01b0316612f905760405162461bcd60e51b81526004016108e990614bcc565b600083815260366020526040902060028101548310612feb5760405162461bcd60e51b8152602060048201526017602482015276092dcecc2d8d2c840c2e0e0d8d2c6c2dce840d2dcc8caf604b1b60448201526064016108e9565b80600201838154811061300057613000614cc7565b6000918252602090912001546001600160a01b0316949350505050565b6000818152603660205260408120600101546001600160a01b03166130545760405162461bcd60e51b81526004016108e990614bcc565b5060009081526036602052604090206002015490565b6000828152603760205260409020805483146130c85760405162461bcd60e51b815260206004820152601960248201527f5375626d697373696f6e20646f6573206e6f742065786973740000000000000060448201526064016108e9565b600581015460ff16156130ed5760405162461bcd60e51b81526004016108e990614cdd565b600180820154600090815260366020526040902001546001600160a01b0316331461315a5760405162461bcd60e51b815260206004820152601e60248201527f4f6e6c79206a6f622067697665722063616e2072656a65637420776f726b000060448201526064016108e9565b60058101805460ff19166002179055600781016131778382614e89565b508060010154837f2cc9879e06322808fb5d10c0ac885de12551e3e854b2cb378581fac616d5b9e88460405161219b9190614920565b6000818152603660205260409020600101546001600160a01b03166131e45760405162461bcd60e51b81526004016108e990614bcc565b600081815260366020526040902060018101546001600160a01b0316331461325e5760405162461bcd60e51b815260206004820152602760248201527f4f6e6c79206a6f622067697665722063616e207374617274206e657874206d696044820152666c6573746f6e6560c81b60648201526084016108e9565b6004810154610100900460ff16156132885760405162461bcd60e51b81526004016108e990614bf8565b6008810154156132ea5760405162461bcd60e51b815260206004820152602760248201527f50726576696f7573206d696c6573746f6e65207061796d656e74207374696c6c604482015266081b1bd8dad95960ca1b60648201526084016108e9565b6009810154600682015481106133375760405162461bcd60e51b81526020600482015260126024820152714e6f206d6f7265206d696c6573746f6e657360701b60448201526064016108e9565b600082600601828154811061334e5761334e614cc7565b90600052602060002001549050803410156133bc5760405162461bcd60e51b815260206004820152602860248201527f496e73756666696369656e742066756e647320666f72206d696c6573746f6e65604482015267081c185e5b595b9d60c21b60648201526084016108e9565b6133c7848383613d37565b8034111561257c57336108fc6133dd8334614c9b565b6040518115909202916000818181858888f19350505050158015610ca2573d6000803e3d6000fd5b600061341033613ed0565b61345c5760405162461bcd60e51b815260206004820152601b60248201527f557365722070726f66696c6520646f6573206e6f74206578697374000000000060448201526064016108e9565b60008351116134ad5760405162461bcd60e51b815260206004820152601960248201527f4950465320686173682063616e6e6f7420626520656d7074790000000000000060448201526064016108e9565b60008251116134fe5760405162461bcd60e51b815260206004820181905260248201527f4d7573742068617665206174206c65617374206f6e65206d696c6573746f6e6560448201526064016108e9565b600061350960325490565b9050613519603280546001019055565b60008181526036602052604081208281556001810180546001600160a01b0319163317905542600b8201556009810182905560078101829055600881019190915560048101805461ff00191690556135718286613f66565b61357b8285613fd2565b61359d826000908152603660205260409020600401805460ff19166001179055565b6000805b85518110156135d9578581815181106135bc576135bc614cc7565b6020026020010151826135cf9190614c88565b91506001016135a1565b50336001600160a01b0316837fe2664ff85acbefce4793e83fe4a10e88680b3172a3e401c7946d7cfb8f19ebdb8884604051613616929190614f48565b60405180910390a35090949350505050565b613630613ddb565b6001600160a01b03811661365a57604051631e4fbdf760e01b8152600060048201526024016108e9565b61366381613e0d565b50565b6000838152603660205260408120600101546001600160a01b031661369d5760405162461bcd60e51b81526004016108e990614bcc565b6000848152603660205260409020600481015460ff16156137145760405162461bcd60e51b815260206004820152602b60248201527f4a6f62206d7573742062652061737369676e6564206265666f7265207375626d60448201526a697474696e6720776f726b60a81b60648201526084016108e9565b6004810154610100900460ff161561373e5760405162461bcd60e51b81526004016108e990614bf8565b600a8101546001600160a01b031633146137af5760405162461bcd60e51b815260206004820152602c60248201527f4f6e6c79207468652061737369676e656420667265656c616e6365722063616e60448201526b207375626d697420776f726b60a01b60648201526084016108e9565b60008451116138005760405162461bcd60e51b815260206004820152601960248201527f576f726b20686173682063616e6e6f7420626520656d7074790000000000000060448201526064016108e9565b600061380b60335490565b905061381b603380546001019055565b6000818152603760205260409020818155600181018790556002810180546001600160a01b03191633179055600381016138558782614e89565b50600481016138648682614e89565b506005808201805460ff191690554260068301558301805460018101825560009182526020909120016138978782614e89565b506040513390889084907ff15792963411ea93d0dd51152416e388cb5a06c4cbc876be63620a5795bd340c90600090a4509150505b9392505050565b6000828152603660205260409020600101546001600160a01b031661390a5760405162461bcd60e51b81526004016108e990614bcc565b6000828152603660205260409020600101546001600160a01b031633146139435760405162461bcd60e51b81526004016108e990614d76565b61394f82826000613b3b565b6000828152603660205260408120600681018054919291829061397457613974614cc7565b90600052602060002001549050803410156139a15760405162461bcd60e51b81526004016108e990614db7565b6133c784600083613d37565b306001600160a01b037f0000000000000000000000000000000000000000000000000000000000000000161480613a4657507f00000000000000000000000000000000000000000000000000000000000000006001600160a01b0316613a3a7f360894a13ba1a3210667c828492db98dca3e2076cc3735a920a3ca505d382bbc546001600160a01b031690565b6001600160a01b031614155b156118a75760405163703e46dd60e11b815260040160405180910390fd5b613663613ddb565b816001600160a01b03166352d1902d6040518163ffffffff1660e01b8152600401602060405180830381865afa925050508015613ac6575060408051601f3d908101601f19168201909252613ac391810190614d23565b60015b613aee57604051634c9c8ce360e01b81526001600160a01b03831660048201526024016108e9565b7f360894a13ba1a3210667c828492db98dca3e2076cc3735a920a3ca505d382bbc8114613b3157604051632a87526960e21b8152600481018290526024016108e9565b610fa083836141da565b600083815260366020526040812090805b6002830154811015613ba257846001600160a01b0316836002018281548110613b7757613b77614cc7565b6000918252602090912001546001600160a01b031603613b9a5760019150613ba2565b600101613b4c565b5080613bff5760405162461bcd60e51b815260206004820152602660248201527f4170706c6963616e7420686173206e6f74206170706c69656420666f7220746860448201526534b9903537b160d11b60648201526084016108e9565b828015613c2657506001600160a01b0384166000908152600d8301602052604090205460ff165b15613ce457613cad8583600d016000876001600160a01b03166001600160a01b03168152602001908152602001600020600101805480602002602001604051908101604052809291908181526020018280548015613ca357602002820191906000526020600020905b815481526020019060010190808311613c8f575b5050505050613fd2565b6040516001600160a01b0385169086907f0b5df2bdae97966c51e5f15c7cdece887de27f5e0583a0069c0227767d52f34590600090a35b610ca28585614230565b306001600160a01b037f000000000000000000000000000000000000000000000000000000000000000016146118a75760405163703e46dd60e11b815260040160405180910390fd5b6000838152603660205260409020600601548210613d915760405162461bcd60e51b8152602060048201526017602482015276092dcecc2d8d2c840dad2d8cae6e8dedcca40d2dcc8caf604b1b60448201526064016108e9565b6000838152603660205260409081902060080182905551829084907fe60846a8f6e10630b3d17d79f8aa4962e7a3abe024c788262ec30bc55d17b7979061219b9085815260200190565b33613de4611f51565b6001600160a01b0316146118a75760405163118cdaa760e01b81523360048201526024016108e9565b7f9016d09d72d40fdae2fd8ceac6b6234c7706214fd39c1cd1e609a0528c19930080546001600160a01b031981166001600160a01b03848116918217845560405192169182907f8be0079c531659141344cd1fd0a4f28419497f9722a3daafe3b4186f6b6457e090600090a3505050565b6000807ff0c57e16840df040f15088dc2f81fe391c3923bec73e23a9662efc9c229c6a006108ac565b613eaf61429a565b613663816142bf565b6118a761429a565b613ec861429a565b6118a76142c7565b6000613ee66035546001600160a01b0316151590565b15613f5957603554604051630e666e4960e01b81526001600160a01b03848116600483015290911690630e666e4990602401602060405180830381865afa158015613f35573d6000803e3d6000fd5b505050506040513d601f19601f820116820180604052508101906108ac9190614f6a565b506001919050565b919050565b6000815111613fb75760405162461bcd60e51b815260206004820152601f60248201527f4a6f622064657461696c20686173682063616e6e6f7420626520656d7074790060448201526064016108e9565b6000828152603660205260409020600301610fa08282614e89565b60008151116140345760405162461bcd60e51b815260206004820152602860248201527f4d7573742068617665206174206c65617374206f6e65206d696c6573746f6e65604482015267081c185e5b595b9d60c21b60648201526084016108e9565b6000805b82518110156140ea57600083828151811061405557614055614cc7565b6020026020010151116140bb5760405162461bcd60e51b815260206004820152602860248201527f4d696c6573746f6e65207061796d656e74206d75737420626520677265617465604482015267072207468616e20360c41b60648201526084016108e9565b8281815181106140cd576140cd614cc7565b6020026020010151826140e09190614c88565b9150600101614038565b50600081116141475760405162461bcd60e51b8152602060048201526024808201527f546f74616c207061796d656e74206d75737420626520677265617465722074686044820152630616e20360e41b60648201526084016108e9565b69021e19e0c9bab24000008111156141b55760405162461bcd60e51b815260206004820152602b60248201527f4a6f622076616c75652065786365656473206d6178696d756d206c696d69742060448201526a1bd9880c4c12c81554d11560aa1b60648201526084016108e9565b6000838152603660209081526040909120835161257c92600690920191850190614481565b6141e3826142d6565b6040516001600160a01b038316907fbc7cd75a20ee27fd9adebab32041f755214dbc6bffa90cc0225b39da2e5c2d3b90600090a280511561422857610fa0828261434d565b610faf6143c3565b600082815260366020526040808220600a810180546001600160a01b0319166001600160a01b0386169081179091556004909101805460ff191690559051909184917f3738a681a43a0b6a554742a08bae57e0215e8a774217dc2e7de6c9411b6d0ddc9190a35050565b6142a26143e2565b6118a757604051631afcd79f60e31b815260040160405180910390fd5b61363061429a565b6142cf61429a565b6001600055565b806001600160a01b03163b60000361430c57604051634c9c8ce360e01b81526001600160a01b03821660048201526024016108e9565b7f360894a13ba1a3210667c828492db98dca3e2076cc3735a920a3ca505d382bbc80546001600160a01b0319166001600160a01b0392909216919091179055565b6060600080846001600160a01b03168460405161436a9190614f87565b600060405180830381855af49150503d80600081146143a5576040519150601f19603f3d011682016040523d82523d6000602084013e6143aa565b606091505b50915091506143ba8583836143fc565b95945050505050565b34156118a75760405163b398979f60e01b815260040160405180910390fd5b60006143ec613e7e565b54600160401b900460ff16919050565b6060826144115761440c82614458565b6138cc565b815115801561442857506001600160a01b0384163b155b1561445157604051639996b31560e01b81526001600160a01b03851660048201526024016108e9565b50806138cc565b8051156144685780518082602001fd5b60405163d6bda27560e01b815260040160405180910390fd5b8280548282559060005260206000209081019282156144bc579160200282015b828111156144bc5782518255916020019190600101906144a1565b506144c89291506144cc565b5090565b5b808211156144c857600081556001016144cd565b6000602082840312156144f357600080fd5b5035919050565b80356001600160a01b0381168114613f6157600080fd5b6000806040838503121561452457600080fd5b82359150614534602084016144fa565b90509250929050565b6000806040838503121561455057600080fd5b50508035926020909101359150565b801515811461366357600080fd5b60008060006060848603121561458257600080fd5b8335925060208401356145948161455f565b9150604084013560ff811681146145aa57600080fd5b809150509250925092565b60005b838110156145d05781810151838201526020016145b8565b50506000910152565b600081518084526145f18160208601602086016145b5565b601f01601f19169290920160200192915050565b8a81526001600160a01b038a1660208201526101406040820152600061462f61014083018b6145d9565b8281036060840152614641818b6145d9565b6080840199909952505060a081019590955260c08501939093526001600160a01b039190911660e084015261010083015261012090910152949350505050565b634e487b7160e01b600052604160045260246000fd5b604051601f8201601f1916810167ffffffffffffffff811182821017156146c0576146c0614681565b604052919050565b60008067ffffffffffffffff8411156146e3576146e3614681565b50601f8301601f19166020016146f881614697565b91505082815283838301111561470d57600080fd5b828260208301376000602084830101529392505050565b600082601f83011261473557600080fd5b6138cc838335602085016146c8565b6000806040838503121561475757600080fd5b82359150602083013567ffffffffffffffff81111561477557600080fd5b61478185828601614724565b9150509250929050565b8a81526001600160a01b038a166020820152610140604082015260006147b561014083018b6145d9565b98151560608301525095151560808701526001600160a01b039490941660a086015260c085019290925260e0840152610100830152610120909101529392505050565b6000806040838503121561480b57600080fd5b614814836144fa565b9150602083013567ffffffffffffffff81111561483057600080fd5b8301601f8101851361484157600080fd5b614781858235602084016146c8565b60008060006060848603121561486557600080fd5b83359250614875602085016144fa565b915060408401356145aa8161455f565b6000806040838503121561489857600080fd5b6148a1836144fa565b9150614534602084016144fa565b6000602082840312156148c157600080fd5b6138cc826144fa565b6001600160a01b03831681526040602082015260006148ec60408301846145d9565b949350505050565b60008060006060848603121561490957600080fd5b505081359360208301359350604090920135919050565b6020815260006138cc60208301846145d9565b60006060820185151583526060602084015280855180835260808501915060208701925060005b8181101561497857835183526020938401939092019160010161495a565b5050838103604085015261498c81866145d9565b979650505050505050565b60008060008060008060c087890312156149b057600080fd5b505084359660208601359650604086013595606081013595506080810135945060a0013592509050565b600082601f8301126149eb57600080fd5b813567ffffffffffffffff811115614a0557614a05614681565b8060051b614a1560208201614697565b91825260208185018101929081019086841115614a3157600080fd5b6020860192505b83831015614a53578235825260209283019290910190614a38565b9695505050505050565b60008060008060808587031215614a7357600080fd5b84359350602085013567ffffffffffffffff811115614a9157600080fd5b614a9d87828801614724565b935050604085013567ffffffffffffffff811115614aba57600080fd5b614ac6878288016149da565b925050606085013567ffffffffffffffff811115614ae357600080fd5b614aef87828801614724565b91505092959194509250565b60008060408385031215614b0e57600080fd5b823567ffffffffffffffff811115614b2557600080fd5b614b3185828601614724565b925050602083013567ffffffffffffffff811115614b4e57600080fd5b614781858286016149da565b600080600060608486031215614b6f57600080fd5b83359250602084013567ffffffffffffffff811115614b8d57600080fd5b614b9986828701614724565b925050604084013567ffffffffffffffff811115614bb657600080fd5b614bc286828701614724565b9150509250925092565b602080825260129082015271129bd888191bd95cc81b9bdd08195e1a5cdd60721b604082015260600190565b60208082526018908201527f4a6f6220697320616c726561647920636f6d706c657465640000000000000000604082015260600190565b60208082526023908201527f43616e206f6e6c7920636f6d706c6574652063757272656e74206d696c6573746040820152626f6e6560e81b606082015260800190565b634e487b7160e01b600052601160045260246000fd5b808201808211156108ac576108ac614c72565b818103818111156108ac576108ac614c72565b600060018201614cc057614cc0614c72565b5060010190565b634e487b7160e01b600052603260045260246000fd5b60208082526026908201527f5375626d697373696f6e206d75737420626520696e207375626d69747465642060408201526573746174757360d01b606082015260800190565b600060208284031215614d3557600080fd5b5051919050565b600181811c90821680614d5057607f821691505b602082108103614d7057634e487b7160e01b600052602260045260246000fd5b50919050565b60208082526021908201527f4f6e6c79206a6f622067697665722063616e2061737369676e20746865206a6f6040820152603160f91b606082015260800190565b60208082526032908201527f496e73756666696369656e742066756e647320746f206c6f636b206669727374604082015271081b5a5b195cdd1bdb99481c185e5b595b9d60721b606082015260800190565b80820281158282048414176108ac576108ac614c72565b600082614e3d57634e487b7160e01b600052601260045260246000fd5b500490565b601f821115610fa057806000526020600020601f840160051c81016020851015614e695750805b601f840160051c820191505b81811015610ca25760008155600101614e75565b815167ffffffffffffffff811115614ea357614ea3614681565b614eb781614eb18454614d3c565b84614e42565b6020601f821160018114614eeb5760008315614ed35750848201515b600019600385901b1c1916600184901b178455610ca2565b600084815260208120601f198516915b82811015614f1b5787850151825560209485019460019092019101614efb565b5084821015614f395786840151600019600387901b60f8161c191681555b50505050600190811b01905550565b604081526000614f5b60408301856145d9565b90508260208301529392505050565b600060208284031215614f7c57600080fd5b81516138cc8161455f565b60008251614f998184602087016145b5565b919091019291505056fea26469706673582212205a27f4d6e1c96f83f7b0455e87f1f9301c3017b334d405a48dbd44cf1e3c1b8a64736f6c634300081c0033",
			"opcodes": "PUSH1 0xA0 PUSH1 0x40 MSTORE ADDRESS PUSH1 0x80 MSTORE CALLVALUE DUP1 ISZERO PUSH1 0x13 JUMPI PUSH1 0x0 DUP1 REVERT JUMPDEST POP PUSH1 0x80 MLOAD PUSH2 0x4FD9 PUSH2 0x3D PUSH1 0x0 CODECOPY PUSH1 0x0 DUP2 DUP2 PUSH2 0x39B8 ADD MSTORE DUP2 DUP2 PUSH2 0x39E1 ADD MSTORE PUSH2 0x3CF9 ADD MSTORE PUSH2 0x4FD9 PUSH1 0x0 RETURN INVALID PUSH1 0x80 PUSH1 0x40 MSTORE PUSH1 0x4 CALLDATASIZE LT PUSH2 0x2C2 JUMPI PUSH1 0x0 CALLDATALOAD PUSH1 0xE0 SHR DUP1 PUSH4 0x8D22B863 GT PUSH2 0x17F JUMPI DUP1 PUSH4 0xB4DAF3A0 GT PUSH2 0xE1 JUMPI DUP1 PUSH4 0xD7EC40EE GT PUSH2 0x8A JUMPI DUP1 PUSH4 0xF2FDE38B GT PUSH2 0x64 JUMPI DUP1 PUSH4 0xF2FDE38B EQ PUSH2 0x84E JUMPI DUP1 PUSH4 0xF3A4735A EQ PUSH2 0x39E JUMPI DUP1 PUSH4 0xF7CBFD18 EQ PUSH2 0x86E JUMPI PUSH1 0x0 DUP1 REVERT JUMPDEST DUP1 PUSH4 0xD7EC40EE EQ PUSH2 0x7FB JUMPI DUP1 PUSH4 0xDC85BE7A EQ PUSH2 0x81B JUMPI DUP1 PUSH4 0xEC4859C9 EQ PUSH2 0x82E JUMPI PUSH1 0x0 DUP1 REVERT JUMPDEST DUP1 PUSH4 0xC2010E50 GT PUSH2 0xBB JUMPI DUP1 PUSH4 0xC2010E50 EQ PUSH2 0x79B JUMPI DUP1 PUSH4 0xCFA3F450 EQ PUSH2 0x7BB JUMPI DUP1 PUSH4 0xD566A411 EQ PUSH2 0x7DB JUMPI PUSH1 0x0 DUP1 REVERT JUMPDEST DUP1 PUSH4 0xB4DAF3A0 EQ PUSH2 0x73B JUMPI DUP1 PUSH4 0xBA6F7031 EQ PUSH2 0x75B JUMPI DUP1 PUSH4 0xBF5203B3 EQ PUSH2 0x77B JUMPI PUSH1 0x0 DUP1 REVERT JUMPDEST DUP1 PUSH4 0x9E5D9C09 GT PUSH2 0x143 JUMPI DUP1 PUSH4 0xAD3CB1CC GT PUSH2 0x11D JUMPI DUP1 PUSH4 0xAD3CB1CC EQ PUSH2 0x6AE JUMPI DUP1 PUSH4 0xAE540F8A EQ PUSH2 0x6EC JUMPI DUP1 PUSH4 0xB4AE33FA EQ PUSH2 0x71B JUMPI PUSH1 0x0 DUP1 REVERT JUMPDEST DUP1 PUSH4 0x9E5D9C09 EQ PUSH2 0x65B JUMPI DUP1 PUSH4 0xA1C0D32F EQ PUSH2 0x66E JUMPI DUP1 PUSH4 0xA30B7763 EQ PUSH2 0x68E JUMPI PUSH1 0x0 DUP1 REVERT JUMPDEST DUP1 PUSH4 0x8D22B863 EQ PUSH2 0x59E JUMPI DUP1 PUSH4 0x8D2C71D0 EQ PUSH2 0x5B1 JUMPI DUP1 PUSH4 0x8DA5CB5B EQ PUSH2 0x5D1 JUMPI DUP1 PUSH4 0x8ED9895C EQ PUSH2 0x5FE JUMPI DUP1 PUSH4 0x9C32C447 EQ PUSH2 0x63B JUMPI PUSH1 0x0 DUP1 REVERT JUMPDEST DUP1 PUSH4 0x4F1EF286 GT PUSH2 0x228 JUMPI DUP1 PUSH4 0x6C09A5E3 GT PUSH2 0x1EC JUMPI DUP1 PUSH4 0x7A149AB4 GT PUSH2 0x1C6 JUMPI DUP1 PUSH4 0x7A149AB4 EQ PUSH2 0x53B JUMPI DUP1 PUSH4 0x8129FC1C EQ PUSH2 0x55B JUMPI DUP1 PUSH4 0x832A05B7 EQ PUSH2 0x570 JUMPI PUSH1 0x0 DUP1 REVERT JUMPDEST DUP1 PUSH4 0x6C09A5E3 EQ PUSH2 0x4E6 JUMPI DUP1 PUSH4 0x715018A6 EQ PUSH2 0x506 JUMPI DUP1 PUSH4 0x7416963D EQ PUSH2 0x51B JUMPI PUSH1 0x0 DUP1 REVERT JUMPDEST DUP1 PUSH4 0x4F1EF286 EQ PUSH2 0x45D JUMPI DUP1 PUSH4 0x501555FA EQ PUSH2 0x470 JUMPI DUP1 PUSH4 0x514F45DE EQ PUSH2 0x490 JUMPI DUP1 PUSH4 0x52D1902D EQ PUSH2 0x4B0 JUMPI DUP1 PUSH4 0x64CC6B59 EQ PUSH2 0x4D3 JUMPI PUSH1 0x0 DUP1 REVERT JUMPDEST DUP1 PUSH4 0x2F0A551D GT PUSH2 0x28A JUMPI DUP1 PUSH4 0x3D01E0FA GT PUSH2 0x264 JUMPI DUP1 PUSH4 0x3D01E0FA EQ PUSH2 0x3E7 JUMPI DUP1 PUSH4 0x3EFAEA1F EQ PUSH2 0x407 JUMPI DUP1 PUSH4 0x4CAC35C6 EQ PUSH2 0x427 JUMPI PUSH1 0x0 DUP1 REVERT JUMPDEST DUP1 PUSH4 0x2F0A551D EQ PUSH2 0x37E JUMPI DUP1 PUSH4 0x37FF6FFF EQ PUSH2 0x39E JUMPI DUP1 PUSH4 0x39B0D477 EQ PUSH2 0x3B1 JUMPI PUSH1 0x0 DUP1 REVERT JUMPDEST DUP1 PUSH4 0x11461014 EQ PUSH2 0x2C7 JUMPI DUP1 PUSH4 0x15CCE0C9 EQ PUSH2 0x2FC JUMPI DUP1 PUSH4 0x16A8852A EQ PUSH2 0x31C JUMPI DUP1 PUSH4 0x1DFFA3DC EQ PUSH2 0x33E JUMPI DUP1 PUSH4 0x2273BD05 EQ PUSH2 0x35E JUMPI JUMPDEST PUSH1 0x0 DUP1 REVERT JUMPDEST CALLVALUE DUP1 ISZERO PUSH2 0x2D3 JUMPI PUSH1 0x0 DUP1 REVERT JUMPDEST POP PUSH2 0x2E7 PUSH2 0x2E2 CALLDATASIZE PUSH1 0x4 PUSH2 0x44E1 JUMP JUMPDEST PUSH2 0x88E JUMP JUMPDEST PUSH1 0x40 MLOAD SWAP1 ISZERO ISZERO DUP2 MSTORE PUSH1 0x20 ADD JUMPDEST PUSH1 0x40 MLOAD DUP1 SWAP2 SUB SWAP1 RETURN JUMPDEST CALLVALUE DUP1 ISZERO PUSH2 0x308 JUMPI PUSH1 0x0 DUP1 REVERT JUMPDEST POP PUSH2 0x2E7 PUSH2 0x317 CALLDATASIZE PUSH1 0x4 PUSH2 0x4511 JUMP JUMPDEST PUSH2 0x8B2 JUMP JUMPDEST CALLVALUE DUP1 ISZERO PUSH2 0x328 JUMPI PUSH1 0x0 DUP1 REVERT JUMPDEST POP PUSH2 0x33C PUSH2 0x337 CALLDATASIZE PUSH1 0x4 PUSH2 0x453D JUMP JUMPDEST PUSH2 0x922 JUMP JUMPDEST STOP JUMPDEST CALLVALUE DUP1 ISZERO PUSH2 0x34A JUMPI PUSH1 0x0 DUP1 REVERT JUMPDEST POP PUSH2 0x2E7 PUSH2 0x359 CALLDATASIZE PUSH1 0x4 PUSH2 0x44E1 JUMP JUMPDEST PUSH2 0xCA9 JUMP JUMPDEST CALLVALUE DUP1 ISZERO PUSH2 0x36A JUMPI PUSH1 0x0 DUP1 REVERT JUMPDEST POP PUSH2 0x33C PUSH2 0x379 CALLDATASIZE PUSH1 0x4 PUSH2 0x453D JUMP JUMPDEST PUSH2 0xE04 JUMP JUMPDEST CALLVALUE DUP1 ISZERO PUSH2 0x38A JUMPI PUSH1 0x0 DUP1 REVERT JUMPDEST POP PUSH2 0x33C PUSH2 0x399 CALLDATASIZE PUSH1 0x4 PUSH2 0x456D JUMP JUMPDEST PUSH2 0xF01 JUMP JUMPDEST PUSH2 0x33C PUSH2 0x3AC CALLDATASIZE PUSH1 0x4 PUSH2 0x4511 JUMP JUMPDEST PUSH2 0xFA5 JUMP JUMPDEST CALLVALUE DUP1 ISZERO PUSH2 0x3BD JUMPI PUSH1 0x0 DUP1 REVERT JUMPDEST POP PUSH2 0x3D1 PUSH2 0x3CC CALLDATASIZE PUSH1 0x4 PUSH2 0x44E1 JUMP JUMPDEST PUSH2 0xFB3 JUMP JUMPDEST PUSH1 0x40 MLOAD PUSH2 0x2F3 SWAP11 SWAP10 SWAP9 SWAP8 SWAP7 SWAP6 SWAP5 SWAP4 SWAP3 SWAP2 SWAP1 PUSH2 0x4605 JUMP JUMPDEST CALLVALUE DUP1 ISZERO PUSH2 0x3F3 JUMPI PUSH1 0x0 DUP1 REVERT JUMPDEST POP PUSH2 0x33C PUSH2 0x402 CALLDATASIZE PUSH1 0x4 PUSH2 0x44E1 JUMP JUMPDEST PUSH2 0x114C JUMP JUMPDEST CALLVALUE DUP1 ISZERO PUSH2 0x413 JUMPI PUSH1 0x0 DUP1 REVERT JUMPDEST POP PUSH2 0x33C PUSH2 0x422 CALLDATASIZE PUSH1 0x4 PUSH2 0x4744 JUMP JUMPDEST PUSH2 0x152A JUMP JUMPDEST CALLVALUE DUP1 ISZERO PUSH2 0x433 JUMPI PUSH1 0x0 DUP1 REVERT JUMPDEST POP PUSH2 0x447 PUSH2 0x442 CALLDATASIZE PUSH1 0x4 PUSH2 0x44E1 JUMP JUMPDEST PUSH2 0x154D JUMP JUMPDEST PUSH1 0x40 MLOAD PUSH2 0x2F3 SWAP11 SWAP10 SWAP9 SWAP8 SWAP7 SWAP6 SWAP5 SWAP4 SWAP3 SWAP2 SWAP1 PUSH2 0x478B JUMP JUMPDEST PUSH2 0x33C PUSH2 0x46B CALLDATASIZE PUSH1 0x4 PUSH2 0x47F8 JUMP JUMPDEST PUSH2 0x16A7 JUMP JUMPDEST CALLVALUE DUP1 ISZERO PUSH2 0x47C JUMPI PUSH1 0x0 DUP1 REVERT JUMPDEST POP PUSH2 0x33C PUSH2 0x48B CALLDATASIZE PUSH1 0x4 PUSH2 0x4850 JUMP JUMPDEST PUSH2 0x16C2 JUMP JUMPDEST CALLVALUE DUP1 ISZERO PUSH2 0x49C JUMPI PUSH1 0x0 DUP1 REVERT JUMPDEST POP PUSH1 0x35 SLOAD PUSH1 0x1 PUSH1 0x1 PUSH1 0xA0 SHL SUB AND ISZERO ISZERO PUSH2 0x2E7 JUMP JUMPDEST CALLVALUE DUP1 ISZERO PUSH2 0x4BC JUMPI PUSH1 0x0 DUP1 REVERT JUMPDEST POP PUSH2 0x4C5 PUSH2 0x173D JUMP JUMPDEST PUSH1 0x40 MLOAD SWAP1 DUP2 MSTORE PUSH1 0x20 ADD PUSH2 0x2F3 JUMP JUMPDEST PUSH2 0x33C PUSH2 0x4E1 CALLDATASIZE PUSH1 0x4 PUSH2 0x4850 JUMP JUMPDEST PUSH2 0x176C JUMP JUMPDEST CALLVALUE DUP1 ISZERO PUSH2 0x4F2 JUMPI PUSH1 0x0 DUP1 REVERT JUMPDEST POP PUSH2 0x33C PUSH2 0x501 CALLDATASIZE PUSH1 0x4 PUSH2 0x4744 JUMP JUMPDEST PUSH2 0x188B JUMP JUMPDEST CALLVALUE DUP1 ISZERO PUSH2 0x512 JUMPI PUSH1 0x0 DUP1 REVERT JUMPDEST POP PUSH2 0x33C PUSH2 0x1895 JUMP JUMPDEST CALLVALUE DUP1 ISZERO PUSH2 0x527 JUMPI PUSH1 0x0 DUP1 REVERT JUMPDEST POP PUSH2 0x33C PUSH2 0x536 CALLDATASIZE PUSH1 0x4 PUSH2 0x4885 JUMP JUMPDEST PUSH2 0x18A9 JUMP JUMPDEST CALLVALUE DUP1 ISZERO PUSH2 0x547 JUMPI PUSH1 0x0 DUP1 REVERT JUMPDEST POP PUSH2 0x33C PUSH2 0x556 CALLDATASIZE PUSH1 0x4 PUSH2 0x48AF JUMP JUMPDEST PUSH2 0x1A64 JUMP JUMPDEST CALLVALUE DUP1 ISZERO PUSH2 0x567 JUMPI PUSH1 0x0 DUP1 REVERT JUMPDEST POP PUSH2 0x33C PUSH2 0x1AB6 JUMP JUMPDEST CALLVALUE DUP1 ISZERO PUSH2 0x57C JUMPI PUSH1 0x0 DUP1 REVERT JUMPDEST POP PUSH2 0x590 PUSH2 0x58B CALLDATASIZE PUSH1 0x4 PUSH2 0x453D JUMP JUMPDEST PUSH2 0x1BC0 JUMP JUMPDEST PUSH1 0x40 MLOAD PUSH2 0x2F3 SWAP3 SWAP2 SWAP1 PUSH2 0x48CA JUMP JUMPDEST PUSH2 0x33C PUSH2 0x5AC CALLDATASIZE PUSH1 0x4 PUSH2 0x44E1 JUMP JUMPDEST PUSH2 0x1D31 JUMP JUMPDEST CALLVALUE DUP1 ISZERO PUSH2 0x5BD JUMPI PUSH1 0x0 DUP1 REVERT JUMPDEST POP PUSH2 0x4C5 PUSH2 0x5CC CALLDATASIZE PUSH1 0x4 PUSH2 0x453D JUMP JUMPDEST PUSH2 0x1E3A JUMP JUMPDEST CALLVALUE DUP1 ISZERO PUSH2 0x5DD JUMPI PUSH1 0x0 DUP1 REVERT JUMPDEST POP PUSH2 0x5E6 PUSH2 0x1F51 JUMP JUMPDEST PUSH1 0x40 MLOAD PUSH1 0x1 PUSH1 0x1 PUSH1 0xA0 SHL SUB SWAP1 SWAP2 AND DUP2 MSTORE PUSH1 0x20 ADD PUSH2 0x2F3 JUMP JUMPDEST CALLVALUE DUP1 ISZERO PUSH2 0x60A JUMPI PUSH1 0x0 DUP1 REVERT JUMPDEST POP PUSH2 0x61E PUSH2 0x619 CALLDATASIZE PUSH1 0x4 PUSH2 0x453D JUMP JUMPDEST PUSH2 0x1F7F JUMP JUMPDEST PUSH1 0x40 DUP1 MLOAD SWAP4 DUP5 MSTORE SWAP2 ISZERO ISZERO PUSH1 0x20 DUP5 ADD MSTORE ISZERO ISZERO SWAP1 DUP3 ADD MSTORE PUSH1 0x60 ADD PUSH2 0x2F3 JUMP JUMPDEST CALLVALUE DUP1 ISZERO PUSH2 0x647 JUMPI PUSH1 0x0 DUP1 REVERT JUMPDEST POP PUSH2 0x33C PUSH2 0x656 CALLDATASIZE PUSH1 0x4 PUSH2 0x4744 JUMP JUMPDEST PUSH2 0x2067 JUMP JUMPDEST PUSH2 0x33C PUSH2 0x669 CALLDATASIZE PUSH1 0x4 PUSH2 0x4511 JUMP JUMPDEST PUSH2 0x21A8 JUMP JUMPDEST CALLVALUE DUP1 ISZERO PUSH2 0x67A JUMPI PUSH1 0x0 DUP1 REVERT JUMPDEST POP PUSH2 0x33C PUSH2 0x689 CALLDATASIZE PUSH1 0x4 PUSH2 0x44E1 JUMP JUMPDEST PUSH2 0x21B2 JUMP JUMPDEST CALLVALUE DUP1 ISZERO PUSH2 0x69A JUMPI PUSH1 0x0 DUP1 REVERT JUMPDEST POP PUSH2 0x33C PUSH2 0x6A9 CALLDATASIZE PUSH1 0x4 PUSH2 0x48F4 JUMP JUMPDEST PUSH2 0x22BD JUMP JUMPDEST CALLVALUE DUP1 ISZERO PUSH2 0x6BA JUMPI PUSH1 0x0 DUP1 REVERT JUMPDEST POP PUSH2 0x6DF PUSH1 0x40 MLOAD DUP1 PUSH1 0x40 ADD PUSH1 0x40 MSTORE DUP1 PUSH1 0x5 DUP2 MSTORE PUSH1 0x20 ADD PUSH5 0x352E302E3 PUSH1 0xDC SHL DUP2 MSTORE POP DUP2 JUMP JUMPDEST PUSH1 0x40 MLOAD PUSH2 0x2F3 SWAP2 SWAP1 PUSH2 0x4920 JUMP JUMPDEST CALLVALUE DUP1 ISZERO PUSH2 0x6F8 JUMPI PUSH1 0x0 DUP1 REVERT JUMPDEST POP PUSH2 0x70C PUSH2 0x707 CALLDATASIZE PUSH1 0x4 PUSH2 0x4511 JUMP JUMPDEST PUSH2 0x2582 JUMP JUMPDEST PUSH1 0x40 MLOAD PUSH2 0x2F3 SWAP4 SWAP3 SWAP2 SWAP1 PUSH2 0x4933 JUMP JUMPDEST CALLVALUE DUP1 ISZERO PUSH2 0x727 JUMPI PUSH1 0x0 DUP1 REVERT JUMPDEST POP PUSH2 0x2E7 PUSH2 0x736 CALLDATASIZE PUSH1 0x4 PUSH2 0x4997 JUMP JUMPDEST PUSH2 0x26DE JUMP JUMPDEST CALLVALUE DUP1 ISZERO PUSH2 0x747 JUMPI PUSH1 0x0 DUP1 REVERT JUMPDEST POP PUSH2 0x33C PUSH2 0x756 CALLDATASIZE PUSH1 0x4 PUSH2 0x48AF JUMP JUMPDEST PUSH2 0x299A JUMP JUMPDEST CALLVALUE DUP1 ISZERO PUSH2 0x767 JUMPI PUSH1 0x0 DUP1 REVERT JUMPDEST POP PUSH2 0x4C5 PUSH2 0x776 CALLDATASIZE PUSH1 0x4 PUSH2 0x44E1 JUMP JUMPDEST PUSH2 0x29EC JUMP JUMPDEST CALLVALUE DUP1 ISZERO PUSH2 0x787 JUMPI PUSH1 0x0 DUP1 REVERT JUMPDEST POP PUSH2 0x33C PUSH2 0x796 CALLDATASIZE PUSH1 0x4 PUSH2 0x4A5D JUMP JUMPDEST PUSH2 0x2A7D JUMP JUMPDEST CALLVALUE DUP1 ISZERO PUSH2 0x7A7 JUMPI PUSH1 0x0 DUP1 REVERT JUMPDEST POP PUSH2 0x4C5 PUSH2 0x7B6 CALLDATASIZE PUSH1 0x4 PUSH2 0x44E1 JUMP JUMPDEST PUSH2 0x2F0C JUMP JUMPDEST CALLVALUE DUP1 ISZERO PUSH2 0x7C7 JUMPI PUSH1 0x0 DUP1 REVERT JUMPDEST POP PUSH2 0x5E6 PUSH2 0x7D6 CALLDATASIZE PUSH1 0x4 PUSH2 0x453D JUMP JUMPDEST PUSH2 0x2F59 JUMP JUMPDEST CALLVALUE DUP1 ISZERO PUSH2 0x7E7 JUMPI PUSH1 0x0 DUP1 REVERT JUMPDEST POP PUSH2 0x4C5 PUSH2 0x7F6 CALLDATASIZE PUSH1 0x4 PUSH2 0x44E1 JUMP JUMPDEST PUSH2 0x301D JUMP JUMPDEST CALLVALUE DUP1 ISZERO PUSH2 0x807 JUMPI PUSH1 0x0 DUP1 REVERT JUMPDEST POP PUSH2 0x33C PUSH2 0x816 CALLDATASIZE PUSH1 0x4 PUSH2 0x4744 JUMP JUMPDEST PUSH2 0x306A JUMP JUMPDEST PUSH2 0x33C PUSH2 0x829 CALLDATASIZE PUSH1 0x4 PUSH2 0x44E1 JUMP JUMPDEST PUSH2 0x31AD JUMP JUMPDEST CALLVALUE DUP1 ISZERO PUSH2 0x83A JUMPI PUSH1 0x0 DUP1 REVERT JUMPDEST POP PUSH2 0x4C5 PUSH2 0x849 CALLDATASIZE PUSH1 0x4 PUSH2 0x4AFB JUMP JUMPDEST PUSH2 0x3405 JUMP JUMPDEST CALLVALUE DUP1 ISZERO PUSH2 0x85A JUMPI PUSH1 0x0 DUP1 REVERT JUMPDEST POP PUSH2 0x33C PUSH2 0x869 CALLDATASIZE PUSH1 0x4 PUSH2 0x48AF JUMP JUMPDEST PUSH2 0x3628 JUMP JUMPDEST CALLVALUE DUP1 ISZERO PUSH2 0x87A JUMPI PUSH1 0x0 DUP1 REVERT JUMPDEST POP PUSH2 0x4C5 PUSH2 0x889 CALLDATASIZE PUSH1 0x4 PUSH2 0x4B5A JUMP JUMPDEST PUSH2 0x3666 JUMP JUMPDEST PUSH1 0x0 DUP2 DUP2 MSTORE PUSH1 0x36 PUSH1 0x20 MSTORE PUSH1 0x40 DUP2 KECCAK256 PUSH1 0x1 ADD SLOAD PUSH1 0x1 PUSH1 0x1 PUSH1 0xA0 SHL SUB AND ISZERO ISZERO JUMPDEST SWAP3 SWAP2 POP POP JUMP JUMPDEST PUSH1 0x0 DUP3 DUP2 MSTORE PUSH1 0x36 PUSH1 0x20 MSTORE PUSH1 0x40 DUP2 KECCAK256 PUSH1 0x1 ADD SLOAD PUSH1 0x1 PUSH1 0x1 PUSH1 0xA0 SHL SUB AND PUSH2 0x8F2 JUMPI PUSH1 0x40 MLOAD PUSH3 0x461BCD PUSH1 0xE5 SHL DUP2 MSTORE PUSH1 0x4 ADD PUSH2 0x8E9 SWAP1 PUSH2 0x4BCC JUMP JUMPDEST PUSH1 0x40 MLOAD DUP1 SWAP2 SUB SWAP1 REVERT JUMPDEST POP PUSH1 0x0 DUP3 DUP2 MSTORE PUSH1 0x36 PUSH1 0x20 SWAP1 DUP2 MSTORE PUSH1 0x40 DUP1 DUP4 KECCAK256 PUSH1 0x1 PUSH1 0x1 PUSH1 0xA0 SHL SUB DUP6 AND DUP5 MSTORE PUSH1 0xD ADD SWAP1 SWAP2 MSTORE SWAP1 KECCAK256 SLOAD PUSH1 0xFF AND SWAP3 SWAP2 POP POP JUMP JUMPDEST PUSH1 0x0 DUP3 DUP2 MSTORE PUSH1 0x36 PUSH1 0x20 MSTORE PUSH1 0x40 SWAP1 KECCAK256 PUSH1 0x1 ADD SLOAD PUSH1 0x1 PUSH1 0x1 PUSH1 0xA0 SHL SUB AND PUSH2 0x959 JUMPI PUSH1 0x40 MLOAD PUSH3 0x461BCD PUSH1 0xE5 SHL DUP2 MSTORE PUSH1 0x4 ADD PUSH2 0x8E9 SWAP1 PUSH2 0x4BCC JUMP JUMPDEST PUSH1 0x0 DUP3 DUP2 MSTORE PUSH1 0x36 PUSH1 0x20 MSTORE PUSH1 0x40 SWAP1 KECCAK256 PUSH1 0x1 DUP2 ADD SLOAD PUSH1 0x1 PUSH1 0x1 PUSH1 0xA0 SHL SUB AND CALLER EQ PUSH2 0x9D1 JUMPI PUSH1 0x40 MLOAD PUSH3 0x461BCD PUSH1 0xE5 SHL DUP2 MSTORE PUSH1 0x20 PUSH1 0x4 DUP3 ADD MSTORE PUSH1 0x25 PUSH1 0x24 DUP3 ADD MSTORE PUSH32 0x4F6E6C79206A6F622067697665722063616E20636F6D706C657465206D696C65 PUSH1 0x44 DUP3 ADD MSTORE PUSH5 0x73746F6E65 PUSH1 0xD8 SHL PUSH1 0x64 DUP3 ADD MSTORE PUSH1 0x84 ADD PUSH2 0x8E9 JUMP JUMPDEST PUSH1 0x4 DUP2 ADD SLOAD PUSH2 0x100 SWAP1 DIV PUSH1 0xFF AND ISZERO PUSH2 0x9FB JUMPI PUSH1 0x40 MLOAD PUSH3 0x461BCD PUSH1 0xE5 SHL DUP2 MSTORE PUSH1 0x4 ADD PUSH2 0x8E9 SWAP1 PUSH2 0x4BF8 JUMP JUMPDEST DUP2 DUP2 PUSH1 0x9 ADD SLOAD EQ PUSH2 0xA1E JUMPI PUSH1 0x40 MLOAD PUSH3 0x461BCD PUSH1 0xE5 SHL DUP2 MSTORE PUSH1 0x4 ADD PUSH2 0x8E9 SWAP1 PUSH2 0x4C2F JUMP JUMPDEST PUSH1 0x8 DUP2 ADD DUP1 SLOAD PUSH1 0xA DUP4 ADD SLOAD PUSH1 0x0 SWAP3 DUP4 SWAP1 SSTORE PUSH1 0x7 DUP5 ADD DUP1 SLOAD SWAP3 SWAP4 PUSH1 0x1 PUSH1 0x1 PUSH1 0xA0 SHL SUB SWAP1 SWAP3 AND SWAP3 DUP5 SWAP3 SWAP1 PUSH2 0xA51 SWAP1 DUP5 SWAP1 PUSH2 0x4C88 JUMP JUMPDEST SWAP1 SWAP2 SSTORE POP POP DUP2 ISZERO PUSH2 0xB4E JUMPI PUSH1 0x40 MLOAD PUSH1 0x1 PUSH1 0x1 PUSH1 0xA0 SHL SUB DUP3 AND SWAP1 DUP4 ISZERO PUSH2 0x8FC MUL SWAP1 DUP5 SWAP1 PUSH1 0x0 DUP2 DUP2 DUP2 DUP6 DUP9 DUP9 CALL SWAP4 POP POP POP POP ISZERO DUP1 ISZERO PUSH2 0xA92 JUMPI RETURNDATASIZE PUSH1 0x0 DUP1 RETURNDATACOPY RETURNDATASIZE PUSH1 0x0 REVERT JUMPDEST POP PUSH1 0x34 SLOAD PUSH1 0x1 PUSH1 0x1 PUSH1 0xA0 SHL SUB AND ISZERO PUSH2 0xB4E JUMPI PUSH1 0x34 SLOAD PUSH1 0x40 MLOAD PUSH4 0x9B1DF017 PUSH1 0xE0 SHL DUP2 MSTORE PUSH1 0x1 PUSH1 0x1 PUSH1 0xA0 SHL SUB DUP4 DUP2 AND PUSH1 0x4 DUP4 ADD MSTORE PUSH1 0x24 DUP3 ADD DUP6 SWAP1 MSTORE SWAP1 SWAP2 AND SWAP1 PUSH4 0x9B1DF017 SWAP1 PUSH1 0x44 ADD PUSH1 0x0 PUSH1 0x40 MLOAD DUP1 DUP4 SUB DUP2 PUSH1 0x0 DUP8 DUP1 EXTCODESIZE ISZERO DUP1 ISZERO PUSH2 0xAF2 JUMPI PUSH1 0x0 DUP1 REVERT JUMPDEST POP GAS CALL ISZERO DUP1 ISZERO PUSH2 0xB06 JUMPI RETURNDATASIZE PUSH1 0x0 DUP1 RETURNDATACOPY RETURNDATASIZE PUSH1 0x0 REVERT JUMPDEST POP POP POP POP DUP1 PUSH1 0x1 PUSH1 0x1 PUSH1 0xA0 SHL SUB AND PUSH32 0x9062DC956DE097CDA36FF6C116B8AC45AA85D92CAF323E282AC98556DED89460 DUP4 PUSH1 0x40 MLOAD PUSH2 0xB45 SWAP2 DUP2 MSTORE PUSH1 0x20 ADD SWAP1 JUMP JUMPDEST PUSH1 0x40 MLOAD DUP1 SWAP2 SUB SWAP1 LOG2 JUMPDEST DUP4 DUP6 PUSH32 0xD4DBDA378623F00B72EF135B4579B7BA064C49645217EB107D663831EFAC6358 DUP5 PUSH1 0x40 MLOAD PUSH2 0xB81 SWAP2 DUP2 MSTORE PUSH1 0x20 ADD SWAP1 JUMP JUMPDEST PUSH1 0x40 MLOAD DUP1 SWAP2 SUB SWAP1 LOG3 DUP4 DUP6 PUSH32 0xAFC8FC5DD6037BF38D34D9D51BB5ECC0AF143248332C63AE9E83BBEF6D4638D9 DUP5 PUSH1 0x40 MLOAD PUSH2 0xBBC SWAP2 DUP2 MSTORE PUSH1 0x20 ADD SWAP1 JUMP JUMPDEST PUSH1 0x40 MLOAD DUP1 SWAP2 SUB SWAP1 LOG3 PUSH1 0x6 DUP4 ADD SLOAD PUSH2 0xBD5 SWAP1 PUSH1 0x1 SWAP1 PUSH2 0x4C9B JUMP JUMPDEST DUP5 SUB PUSH2 0xC1C JUMPI PUSH1 0x4 DUP4 ADD DUP1 SLOAD PUSH2 0xFF00 NOT AND PUSH2 0x100 OR SWAP1 SSTORE PUSH1 0x40 MLOAD DUP6 SWAP1 PUSH32 0x2244C8529CB95E213EE542E76E7776342B3DABD10203D01472BBF4441BE8929 SWAP1 PUSH1 0x0 SWAP1 LOG2 PUSH2 0xCA2 JUMP JUMPDEST PUSH1 0x9 DUP4 ADD DUP1 SLOAD SWAP1 PUSH1 0x0 PUSH2 0xC2E DUP4 PUSH2 0x4CAE JUMP JUMPDEST SWAP1 SWAP2 SSTORE POP DUP6 SWAP1 POP PUSH32 0xF61B08D14084992CA42ECC6F6C1B58E0007A0F9156069AD2D36218FA7EA1EB32 PUSH2 0xC61 DUP7 PUSH1 0x1 PUSH2 0x4C88 JUMP JUMPDEST PUSH1 0x6 DUP7 ADD PUSH2 0xC70 DUP9 PUSH1 0x1 PUSH2 0x4C88 JUMP JUMPDEST DUP2 SLOAD DUP2 LT PUSH2 0xC80 JUMPI PUSH2 0xC80 PUSH2 0x4CC7 JUMP JUMPDEST PUSH1 0x0 SWAP2 DUP3 MSTORE PUSH1 0x20 SWAP2 DUP3 SWAP1 KECCAK256 ADD SLOAD PUSH1 0x40 DUP1 MLOAD SWAP4 DUP5 MSTORE SWAP2 DUP4 ADD MSTORE ADD PUSH1 0x40 MLOAD DUP1 SWAP2 SUB SWAP1 LOG2 JUMPDEST POP POP POP POP POP JUMP JUMPDEST PUSH1 0x0 DUP2 DUP2 MSTORE PUSH1 0x36 PUSH1 0x20 MSTORE PUSH1 0x40 DUP2 KECCAK256 PUSH1 0x1 ADD SLOAD PUSH1 0x1 PUSH1 0x1 PUSH1 0xA0 SHL SUB AND PUSH2 0xCE0 JUMPI PUSH1 0x40 MLOAD PUSH3 0x461BCD PUSH1 0xE5 SHL DUP2 MSTORE PUSH1 0x4 ADD PUSH2 0x8E9 SWAP1 PUSH2 0x4BCC JUMP JUMPDEST PUSH1 0x0 DUP3 DUP2 MSTORE PUSH1 0x36 PUSH1 0x20 MSTORE PUSH1 0x40 SWAP1 KECCAK256 PUSH1 0x1 DUP2 ADD SLOAD PUSH1 0x1 PUSH1 0x1 PUSH1 0xA0 SHL SUB AND CALLER EQ PUSH2 0xD54 JUMPI PUSH1 0x40 MLOAD PUSH3 0x461BCD PUSH1 0xE5 SHL DUP2 MSTORE PUSH1 0x20 PUSH1 0x4 DUP3 ADD MSTORE PUSH1 0x21 PUSH1 0x24 DUP3 ADD MSTORE PUSH32 0x4F6E6C79206A6F622067697665722063616E2063616E63656C20746865206A6F PUSH1 0x44 DUP3 ADD MSTORE PUSH1 0x31 PUSH1 0xF9 SHL PUSH1 0x64 DUP3 ADD MSTORE PUSH1 0x84 ADD PUSH2 0x8E9 JUMP JUMPDEST PUSH1 0x4 DUP2 ADD SLOAD PUSH2 0x100 SWAP1 DIV PUSH1 0xFF AND ISZERO PUSH2 0xD7E JUMPI PUSH1 0x40 MLOAD PUSH3 0x461BCD PUSH1 0xE5 SHL DUP2 MSTORE PUSH1 0x4 ADD PUSH2 0x8E9 SWAP1 PUSH2 0x4BF8 JUMP JUMPDEST PUSH1 0x8 DUP2 ADD DUP1 SLOAD PUSH1 0x0 SWAP1 SWAP2 SSTORE PUSH1 0x4 DUP3 ADD DUP1 SLOAD PUSH2 0xFFFF NOT AND PUSH2 0x100 OR SWAP1 SSTORE DUP1 ISZERO PUSH2 0xDCF JUMPI PUSH1 0x40 MLOAD CALLER SWAP1 DUP3 ISZERO PUSH2 0x8FC MUL SWAP1 DUP4 SWAP1 PUSH1 0x0 DUP2 DUP2 DUP2 DUP6 DUP9 DUP9 CALL SWAP4 POP POP POP POP ISZERO DUP1 ISZERO PUSH2 0xDCD JUMPI RETURNDATASIZE PUSH1 0x0 DUP1 RETURNDATACOPY RETURNDATASIZE PUSH1 0x0 REVERT JUMPDEST POP JUMPDEST PUSH1 0x40 MLOAD DUP5 SWAP1 PUSH32 0x58243F872C550AD02802199ADE99EB4250F6BB19E9ABBF2D3DE7B969C0EB5E4F SWAP1 PUSH1 0x0 SWAP1 LOG2 POP PUSH1 0x1 SWAP4 SWAP3 POP POP POP JUMP JUMPDEST PUSH1 0x0 DUP3 DUP2 MSTORE PUSH1 0x36 PUSH1 0x20 MSTORE PUSH1 0x40 SWAP1 KECCAK256 PUSH1 0x1 ADD SLOAD PUSH1 0x1 PUSH1 0x1 PUSH1 0xA0 SHL SUB AND PUSH2 0xE3B JUMPI PUSH1 0x40 MLOAD PUSH3 0x461BCD PUSH1 0xE5 SHL DUP2 MSTORE PUSH1 0x4 ADD PUSH2 0x8E9 SWAP1 PUSH2 0x4BCC JUMP JUMPDEST PUSH1 0x0 DUP3 DUP2 MSTORE PUSH1 0x36 PUSH1 0x20 MSTORE PUSH1 0x40 SWAP1 KECCAK256 PUSH1 0x4 DUP2 ADD SLOAD PUSH2 0x100 SWAP1 DIV PUSH1 0xFF AND ISZERO PUSH2 0xE73 JUMPI PUSH1 0x40 MLOAD PUSH3 0x461BCD PUSH1 0xE5 SHL DUP2 MSTORE PUSH1 0x4 ADD PUSH2 0x8E9 SWAP1 PUSH2 0x4BF8 JUMP JUMPDEST PUSH1 0x9 DUP2 ADD SLOAD PUSH1 0x6 DUP3 ADD SLOAD DUP2 LT PUSH2 0xEC0 JUMPI PUSH1 0x40 MLOAD PUSH3 0x461BCD PUSH1 0xE5 SHL DUP2 MSTORE PUSH1 0x20 PUSH1 0x4 DUP3 ADD MSTORE PUSH1 0x12 PUSH1 0x24 DUP3 ADD MSTORE PUSH18 0x4E6F206D6F7265206D696C6573746F6E6573 PUSH1 0x70 SHL PUSH1 0x44 DUP3 ADD MSTORE PUSH1 0x64 ADD PUSH2 0x8E9 JUMP JUMPDEST DUP1 DUP5 PUSH32 0xE60846A8F6E10630B3D17D79F8AA4962E7A3ABE024C788262EC30BC55D17B797 DUP6 PUSH1 0x40 MLOAD PUSH2 0xEF3 SWAP2 DUP2 MSTORE PUSH1 0x20 ADD SWAP1 JUMP JUMPDEST PUSH1 0x40 MLOAD DUP1 SWAP2 SUB SWAP1 LOG3 POP POP POP POP JUMP JUMPDEST PUSH1 0x0 DUP4 DUP2 MSTORE PUSH1 0x36 PUSH1 0x20 MSTORE PUSH1 0x40 SWAP1 KECCAK256 PUSH1 0x1 ADD SLOAD PUSH1 0x1 PUSH1 0x1 PUSH1 0xA0 SHL SUB AND PUSH2 0xF38 JUMPI PUSH1 0x40 MLOAD PUSH3 0x461BCD PUSH1 0xE5 SHL DUP2 MSTORE PUSH1 0x4 ADD PUSH2 0x8E9 SWAP1 PUSH2 0x4BCC JUMP JUMPDEST PUSH2 0xF40 PUSH2 0x1F51 JUMP JUMPDEST PUSH1 0x1 PUSH1 0x1 PUSH1 0xA0 SHL SUB AND CALLER PUSH1 0x1 PUSH1 0x1 PUSH1 0xA0 SHL SUB AND EQ PUSH2 0xFA0 JUMPI PUSH1 0x40 MLOAD PUSH3 0x461BCD PUSH1 0xE5 SHL DUP2 MSTORE PUSH1 0x20 PUSH1 0x4 DUP3 ADD MSTORE PUSH1 0x1F PUSH1 0x24 DUP3 ADD MSTORE PUSH32 0x4F6E6C79206F776E65722063616E207265736F6C766520646973707574657300 PUSH1 0x44 DUP3 ADD MSTORE PUSH1 0x64 ADD PUSH2 0x8E9 JUMP JUMPDEST POP POP POP JUMP JUMPDEST PUSH2 0xFAF DUP3 DUP3 PUSH2 0x38D3 JUMP JUMPDEST POP POP JUMP JUMPDEST PUSH1 0x0 DUP1 PUSH1 0x60 DUP1 PUSH1 0x0 DUP1 PUSH1 0x0 DUP1 PUSH1 0x0 DUP1 PUSH2 0xFE6 DUP12 PUSH1 0x0 SWAP1 DUP2 MSTORE PUSH1 0x36 PUSH1 0x20 MSTORE PUSH1 0x40 SWAP1 KECCAK256 PUSH1 0x1 ADD SLOAD PUSH1 0x1 PUSH1 0x1 PUSH1 0xA0 SHL SUB AND ISZERO ISZERO SWAP1 JUMP JUMPDEST PUSH2 0x1002 JUMPI PUSH1 0x40 MLOAD PUSH3 0x461BCD PUSH1 0xE5 SHL DUP2 MSTORE PUSH1 0x4 ADD PUSH2 0x8E9 SWAP1 PUSH2 0x4BCC JUMP JUMPDEST PUSH1 0x0 DUP12 DUP2 MSTORE PUSH1 0x36 PUSH1 0x20 MSTORE PUSH1 0x40 DUP2 KECCAK256 SWAP1 DUP1 JUMPDEST PUSH1 0x6 DUP4 ADD SLOAD DUP2 LT ISZERO PUSH2 0x1054 JUMPI DUP3 PUSH1 0x6 ADD DUP2 DUP2 SLOAD DUP2 LT PUSH2 0x1034 JUMPI PUSH2 0x1034 PUSH2 0x4CC7 JUMP JUMPDEST SWAP1 PUSH1 0x0 MSTORE PUSH1 0x20 PUSH1 0x0 KECCAK256 ADD SLOAD DUP3 PUSH2 0x104A SWAP2 SWAP1 PUSH2 0x4C88 JUMP JUMPDEST SWAP2 POP PUSH1 0x1 ADD PUSH2 0x1013 JUMP JUMPDEST POP PUSH1 0x4 DUP3 ADD SLOAD PUSH1 0x0 SWAP1 PUSH2 0x100 SWAP1 DIV PUSH1 0xFF AND ISZERO PUSH2 0x1072 JUMPI POP PUSH1 0x2 PUSH2 0x10B9 JUMP JUMPDEST PUSH1 0x4 DUP4 ADD SLOAD PUSH1 0xFF AND ISZERO DUP1 ISZERO PUSH2 0x1093 JUMPI POP PUSH1 0xA DUP4 ADD SLOAD PUSH1 0x1 PUSH1 0x1 PUSH1 0xA0 SHL SUB AND ISZERO ISZERO JUMPDEST ISZERO PUSH2 0x10A0 JUMPI POP PUSH1 0x1 PUSH2 0x10B9 JUMP JUMPDEST PUSH1 0x4 DUP4 ADD SLOAD PUSH1 0xFF AND ISZERO PUSH2 0x10B5 JUMPI POP PUSH1 0x0 PUSH2 0x10B9 JUMP JUMPDEST POP PUSH1 0x3 JUMPDEST DUP3 SLOAD PUSH1 0x1 DUP5 ADD SLOAD PUSH1 0xB DUP6 ADD SLOAD PUSH1 0xA DUP7 ADD SLOAD PUSH1 0x4 DUP8 ADD SLOAD PUSH1 0x1 PUSH1 0x1 PUSH1 0xA0 SHL SUB SWAP4 DUP5 AND SWAP4 DUP8 SWAP4 PUSH1 0x0 SWAP4 SWAP1 SWAP3 SWAP2 AND SWAP1 DUP8 SWAP1 PUSH2 0x100 SWAP1 DIV PUSH1 0xFF AND PUSH2 0x10FA JUMPI PUSH1 0x0 PUSH2 0x10FC JUMP JUMPDEST TIMESTAMP JUMPDEST PUSH1 0x40 MLOAD DUP1 PUSH1 0x20 ADD PUSH1 0x40 MSTORE DUP1 PUSH1 0x0 DUP2 MSTORE POP SWAP6 SWAP5 SWAP4 SWAP3 SWAP2 SWAP1 PUSH1 0x40 MLOAD DUP1 PUSH1 0x20 ADD PUSH1 0x40 MSTORE DUP1 PUSH1 0x0 DUP2 MSTORE POP SWAP6 SWAP5 SWAP4 SWAP3 SWAP2 SWAP1 SWAP13 POP SWAP13 POP SWAP13 POP SWAP13 POP SWAP13 POP SWAP13 POP SWAP13 POP SWAP13 POP SWAP13 POP SWAP13 POP POP POP POP SWAP2 SWAP4 SWAP6 SWAP8 SWAP10 POP SWAP2 SWAP4 SWAP6 SWAP8 SWAP10 JUMP JUMPDEST PUSH1 0x0 DUP2 DUP2 MSTORE PUSH1 0x37 PUSH1 0x20 MSTORE PUSH1 0x40 SWAP1 KECCAK256 DUP1 SLOAD DUP3 EQ PUSH2 0x11AA JUMPI PUSH1 0x40 MLOAD PUSH3 0x461BCD PUSH1 0xE5 SHL DUP2 MSTORE PUSH1 0x20 PUSH1 0x4 DUP3 ADD MSTORE PUSH1 0x19 PUSH1 0x24 DUP3 ADD MSTORE PUSH32 0x5375626D697373696F6E20646F6573206E6F7420657869737400000000000000 PUSH1 0x44 DUP3 ADD MSTORE PUSH1 0x64 ADD PUSH2 0x8E9 JUMP JUMPDEST PUSH1 0x5 DUP2 ADD SLOAD PUSH1 0xFF AND ISZERO PUSH2 0x11CF JUMPI PUSH1 0x40 MLOAD PUSH3 0x461BCD PUSH1 0xE5 SHL DUP2 MSTORE PUSH1 0x4 ADD PUSH2 0x8E9 SWAP1 PUSH2 0x4CDD JUMP JUMPDEST PUSH1 0x1 DUP2 DUP2 ADD SLOAD PUSH1 0x0 SWAP1 DUP2 MSTORE PUSH1 0x36 PUSH1 0x20 MSTORE PUSH1 0x40 SWAP1 KECCAK256 SWAP1 DUP2 ADD SLOAD PUSH1 0x1 PUSH1 0x1 PUSH1 0xA0 SHL SUB AND CALLER EQ PUSH2 0x123E JUMPI PUSH1 0x40 MLOAD PUSH3 0x461BCD PUSH1 0xE5 SHL DUP2 MSTORE PUSH1 0x20 PUSH1 0x4 DUP3 ADD MSTORE PUSH1 0x1F PUSH1 0x24 DUP3 ADD MSTORE PUSH32 0x4F6E6C79206A6F622067697665722063616E20617070726F766520776F726B00 PUSH1 0x44 DUP3 ADD MSTORE PUSH1 0x64 ADD PUSH2 0x8E9 JUMP JUMPDEST PUSH1 0x5 DUP3 ADD DUP1 SLOAD PUSH1 0xFF NOT AND PUSH1 0x1 OR SWAP1 SSTORE PUSH1 0x9 DUP2 ADD SLOAD PUSH1 0x8 DUP3 ADD DUP1 SLOAD PUSH1 0x2 DUP6 ADD SLOAD PUSH1 0x0 SWAP3 DUP4 SWAP1 SSTORE PUSH1 0x7 DUP6 ADD DUP1 SLOAD SWAP3 SWAP4 PUSH1 0x1 PUSH1 0x1 PUSH1 0xA0 SHL SUB SWAP1 SWAP3 AND SWAP3 DUP5 SWAP3 SWAP1 PUSH2 0x1285 SWAP1 DUP5 SWAP1 PUSH2 0x4C88 JUMP JUMPDEST SWAP1 SWAP2 SSTORE POP POP DUP2 ISZERO PUSH2 0x1382 JUMPI PUSH1 0x40 MLOAD PUSH1 0x1 PUSH1 0x1 PUSH1 0xA0 SHL SUB DUP3 AND SWAP1 DUP4 ISZERO PUSH2 0x8FC MUL SWAP1 DUP5 SWAP1 PUSH1 0x0 DUP2 DUP2 DUP2 DUP6 DUP9 DUP9 CALL SWAP4 POP POP POP POP ISZERO DUP1 ISZERO PUSH2 0x12C6 JUMPI RETURNDATASIZE PUSH1 0x0 DUP1 RETURNDATACOPY RETURNDATASIZE PUSH1 0x0 REVERT JUMPDEST POP PUSH1 0x34 SLOAD PUSH1 0x1 PUSH1 0x1 PUSH1 0xA0 SHL SUB AND ISZERO PUSH2 0x1382 JUMPI PUSH1 0x34 SLOAD PUSH1 0x40 MLOAD PUSH4 0x9B1DF017 PUSH1 0xE0 SHL DUP2 MSTORE PUSH1 0x1 PUSH1 0x1 PUSH1 0xA0 SHL SUB DUP4 DUP2 AND PUSH1 0x4 DUP4 ADD MSTORE PUSH1 0x24 DUP3 ADD DUP6 SWAP1 MSTORE SWAP1 SWAP2 AND SWAP1 PUSH4 0x9B1DF017 SWAP1 PUSH1 0x44 ADD PUSH1 0x0 PUSH1 0x40 MLOAD DUP1 DUP4 SUB DUP2 PUSH1 0x0 DUP8 DUP1 EXTCODESIZE ISZERO DUP1 ISZERO PUSH2 0x1326 JUMPI PUSH1 0x0 DUP1 REVERT JUMPDEST POP GAS CALL ISZERO DUP1 ISZERO PUSH2 0x133A JUMPI RETURNDATASIZE PUSH1 0x0 DUP1 RETURNDATACOPY RETURNDATASIZE PUSH1 0x0 REVERT JUMPDEST POP POP POP POP DUP1 PUSH1 0x1 PUSH1 0x1 PUSH1 0xA0 SHL SUB AND PUSH32 0x9062DC956DE097CDA36FF6C116B8AC45AA85D92CAF323E282AC98556DED89460 DUP4 PUSH1 0x40 MLOAD PUSH2 0x1379 SWAP2 DUP2 MSTORE PUSH1 0x20 ADD SWAP1 JUMP JUMPDEST PUSH1 0x40 MLOAD DUP1 SWAP2 SUB SWAP1 LOG2 JUMPDEST PUSH1 0x35 SLOAD PUSH1 0x1 PUSH1 0x1 PUSH1 0xA0 SHL SUB AND ISZERO PUSH2 0x140C JUMPI PUSH1 0x35 SLOAD PUSH1 0x40 MLOAD PUSH4 0x168CA89D PUSH1 0xE3 SHL DUP2 MSTORE PUSH1 0x1 PUSH1 0x1 PUSH1 0xA0 SHL SUB DUP4 DUP2 AND PUSH1 0x4 DUP4 ADD MSTORE PUSH1 0x1 PUSH1 0x24 DUP4 ADD MSTORE SWAP1 SWAP2 AND SWAP1 PUSH4 0xB46544E8 SWAP1 PUSH1 0x44 ADD PUSH1 0x20 PUSH1 0x40 MLOAD DUP1 DUP4 SUB DUP2 PUSH1 0x0 DUP8 GAS CALL ISZERO DUP1 ISZERO PUSH2 0x13E6 JUMPI RETURNDATASIZE PUSH1 0x0 DUP1 RETURNDATACOPY RETURNDATASIZE PUSH1 0x0 REVERT JUMPDEST POP POP POP POP PUSH1 0x40 MLOAD RETURNDATASIZE PUSH1 0x1F NOT PUSH1 0x1F DUP3 ADD AND DUP3 ADD DUP1 PUSH1 0x40 MSTORE POP DUP2 ADD SWAP1 PUSH2 0x140A SWAP2 SWAP1 PUSH2 0x4D23 JUMP JUMPDEST POP JUMPDEST PUSH1 0x6 DUP5 ADD SLOAD PUSH2 0x141D SWAP1 PUSH1 0x1 SWAP1 PUSH2 0x4C9B JUMP JUMPDEST DUP4 SUB PUSH2 0x1467 JUMPI PUSH1 0x4 DUP5 ADD DUP1 SLOAD PUSH2 0xFF00 NOT AND PUSH2 0x100 OR SWAP1 SSTORE PUSH1 0x1 DUP6 ADD SLOAD PUSH1 0x40 MLOAD PUSH32 0x2244C8529CB95E213EE542E76E7776342B3DABD10203D01472BBF4441BE8929 SWAP1 PUSH1 0x0 SWAP1 LOG2 PUSH2 0x14F2 JUMP JUMPDEST PUSH1 0x9 DUP5 ADD DUP1 SLOAD SWAP1 PUSH1 0x0 PUSH2 0x1479 DUP4 PUSH2 0x4CAE JUMP JUMPDEST SWAP2 SWAP1 POP SSTORE POP DUP5 PUSH1 0x1 ADD SLOAD PUSH32 0xF61B08D14084992CA42ECC6F6C1B58E0007A0F9156069AD2D36218FA7EA1EB32 DUP5 PUSH1 0x1 PUSH2 0x14B1 SWAP2 SWAP1 PUSH2 0x4C88 JUMP JUMPDEST PUSH1 0x6 DUP8 ADD PUSH2 0x14C0 DUP8 PUSH1 0x1 PUSH2 0x4C88 JUMP JUMPDEST DUP2 SLOAD DUP2 LT PUSH2 0x14D0 JUMPI PUSH2 0x14D0 PUSH2 0x4CC7 JUMP JUMPDEST PUSH1 0x0 SWAP2 DUP3 MSTORE PUSH1 0x20 SWAP2 DUP3 SWAP1 KECCAK256 ADD SLOAD PUSH1 0x40 DUP1 MLOAD SWAP4 DUP5 MSTORE SWAP2 DUP4 ADD MSTORE ADD PUSH1 0x40 MLOAD DUP1 SWAP2 SUB SWAP1 LOG2 JUMPDEST PUSH1 0x1 DUP6 ADD SLOAD PUSH1 0x40 MLOAD DUP8 SWAP1 PUSH32 0xAF8C00204411D5F080DE0913186CB59749C06FED4928E61473415B44FACF6D8E SWAP1 PUSH1 0x0 SWAP1 LOG3 POP POP POP POP POP POP JUMP JUMPDEST PUSH1 0x40 DUP1 MLOAD PUSH1 0x0 DUP1 DUP3 MSTORE DUP2 DUP4 ADD SWAP1 SWAP3 MSTORE PUSH1 0x20 DUP2 ADD SWAP2 DUP3 MSTORE PUSH2 0xFAF SWAP2 DUP5 SWAP2 DUP5 SWAP2 PUSH2 0x2A7D JUMP JUMPDEST PUSH1 0x0 DUP1 PUSH1 0x60 PUSH1 0x0 DUP1 PUSH1 0x0 DUP1 PUSH1 0x0 DUP1 PUSH1 0x0 PUSH2 0x1581 DUP12 PUSH1 0x0 SWAP1 DUP2 MSTORE PUSH1 0x36 PUSH1 0x20 MSTORE PUSH1 0x40 SWAP1 KECCAK256 PUSH1 0x1 ADD SLOAD PUSH1 0x1 PUSH1 0x1 PUSH1 0xA0 SHL SUB AND ISZERO ISZERO SWAP1 JUMP JUMPDEST PUSH2 0x159D JUMPI PUSH1 0x40 MLOAD PUSH3 0x461BCD PUSH1 0xE5 SHL DUP2 MSTORE PUSH1 0x4 ADD PUSH2 0x8E9 SWAP1 PUSH2 0x4BCC JUMP JUMPDEST PUSH1 0x0 DUP12 DUP2 MSTORE PUSH1 0x36 PUSH1 0x20 MSTORE PUSH1 0x40 SWAP1 KECCAK256 DUP1 SLOAD PUSH1 0x1 DUP3 ADD SLOAD PUSH1 0x4 DUP4 ADD SLOAD PUSH1 0xA DUP5 ADD SLOAD PUSH1 0x9 DUP6 ADD SLOAD PUSH1 0x6 DUP7 ADD SLOAD PUSH1 0x7 DUP8 ADD SLOAD PUSH1 0x2 DUP9 ADD SLOAD PUSH1 0x3 DUP10 ADD DUP1 SLOAD PUSH1 0x1 PUSH1 0x1 PUSH1 0xA0 SHL SUB SWAP9 DUP10 AND SWAP9 SWAP2 SWAP8 PUSH1 0xFF DUP1 DUP3 AND SWAP9 PUSH2 0x100 SWAP1 SWAP3 DIV AND SWAP7 SWAP3 AND SWAP5 SWAP2 SWAP4 SWAP2 SWAP3 SWAP1 DUP9 SWAP1 PUSH2 0x1605 SWAP1 PUSH2 0x4D3C JUMP JUMPDEST DUP1 PUSH1 0x1F ADD PUSH1 0x20 DUP1 SWAP2 DIV MUL PUSH1 0x20 ADD PUSH1 0x40 MLOAD SWAP1 DUP2 ADD PUSH1 0x40 MSTORE DUP1 SWAP3 SWAP2 SWAP1 DUP2 DUP2 MSTORE PUSH1 0x20 ADD DUP3 DUP1 SLOAD PUSH2 0x1631 SWAP1 PUSH2 0x4D3C JUMP JUMPDEST DUP1 ISZERO PUSH2 0x167E JUMPI DUP1 PUSH1 0x1F LT PUSH2 0x1653 JUMPI PUSH2 0x100 DUP1 DUP4 SLOAD DIV MUL DUP4 MSTORE SWAP2 PUSH1 0x20 ADD SWAP2 PUSH2 0x167E JUMP JUMPDEST DUP3 ADD SWAP2 SWAP1 PUSH1 0x0 MSTORE PUSH1 0x20 PUSH1 0x0 KECCAK256 SWAP1 JUMPDEST DUP2 SLOAD DUP2 MSTORE SWAP1 PUSH1 0x1 ADD SWAP1 PUSH1 0x20 ADD DUP1 DUP4 GT PUSH2 0x1661 JUMPI DUP3 SWAP1 SUB PUSH1 0x1F AND DUP3 ADD SWAP2 JUMPDEST POP POP POP POP POP SWAP8 POP SWAP11 POP SWAP11 POP SWAP11 POP SWAP11 POP SWAP11 POP SWAP11 POP SWAP11 POP SWAP11 POP SWAP11 POP SWAP11 POP POP SWAP2 SWAP4 SWAP6 SWAP8 SWAP10 POP SWAP2 SWAP4 SWAP6 SWAP8 SWAP10 JUMP JUMPDEST PUSH2 0x16AF PUSH2 0x39AD JUMP JUMPDEST PUSH2 0x16B8 DUP3 PUSH2 0x3A64 JUMP JUMPDEST PUSH2 0xFAF DUP3 DUP3 PUSH2 0x3A6C JUMP JUMPDEST PUSH1 0x0 DUP4 DUP2 MSTORE PUSH1 0x36 PUSH1 0x20 MSTORE PUSH1 0x40 SWAP1 KECCAK256 PUSH1 0x1 ADD SLOAD PUSH1 0x1 PUSH1 0x1 PUSH1 0xA0 SHL SUB AND PUSH2 0x16F9 JUMPI PUSH1 0x40 MLOAD PUSH3 0x461BCD PUSH1 0xE5 SHL DUP2 MSTORE PUSH1 0x4 ADD PUSH2 0x8E9 SWAP1 PUSH2 0x4BCC JUMP JUMPDEST PUSH1 0x0 DUP4 DUP2 MSTORE PUSH1 0x36 PUSH1 0x20 MSTORE PUSH1 0x40 SWAP1 KECCAK256 PUSH1 0x1 ADD SLOAD PUSH1 0x1 PUSH1 0x1 PUSH1 0xA0 SHL SUB AND CALLER EQ PUSH2 0x1732 JUMPI PUSH1 0x40 MLOAD PUSH3 0x461BCD PUSH1 0xE5 SHL DUP2 MSTORE PUSH1 0x4 ADD PUSH2 0x8E9 SWAP1 PUSH2 0x4D76 JUMP JUMPDEST PUSH2 0xFA0 DUP4 DUP4 DUP4 PUSH2 0x3B3B JUMP JUMPDEST PUSH1 0x0 PUSH2 0x1747 PUSH2 0x3CEE JUMP JUMPDEST POP PUSH32 0x360894A13BA1A3210667C828492DB98DCA3E2076CC3735A920A3CA505D382BBC SWAP1 JUMP JUMPDEST PUSH1 0x0 DUP4 DUP2 MSTORE PUSH1 0x36 PUSH1 0x20 MSTORE PUSH1 0x40 SWAP1 KECCAK256 PUSH1 0x1 ADD SLOAD PUSH1 0x1 PUSH1 0x1 PUSH1 0xA0 SHL SUB AND PUSH2 0x17A3 JUMPI PUSH1 0x40 MLOAD PUSH3 0x461BCD PUSH1 0xE5 SHL DUP2 MSTORE PUSH1 0x4 ADD PUSH2 0x8E9 SWAP1 PUSH2 0x4BCC JUMP JUMPDEST PUSH1 0x0 DUP4 DUP2 MSTORE PUSH1 0x36 PUSH1 0x20 MSTORE PUSH1 0x40 SWAP1 KECCAK256 PUSH1 0x1 ADD SLOAD PUSH1 0x1 PUSH1 0x1 PUSH1 0xA0 SHL SUB AND CALLER EQ PUSH2 0x17DC JUMPI PUSH1 0x40 MLOAD PUSH3 0x461BCD PUSH1 0xE5 SHL DUP2 MSTORE PUSH1 0x4 ADD PUSH2 0x8E9 SWAP1 PUSH2 0x4D76 JUMP JUMPDEST PUSH2 0x17E7 DUP4 DUP4 DUP4 PUSH2 0x3B3B JUMP JUMPDEST PUSH1 0x0 DUP4 DUP2 MSTORE PUSH1 0x36 PUSH1 0x20 MSTORE PUSH1 0x40 DUP2 KECCAK256 PUSH1 0x6 DUP2 ADD DUP1 SLOAD SWAP2 SWAP3 SWAP2 DUP3 SWAP1 PUSH2 0x180C JUMPI PUSH2 0x180C PUSH2 0x4CC7 JUMP JUMPDEST SWAP1 PUSH1 0x0 MSTORE PUSH1 0x20 PUSH1 0x0 KECCAK256 ADD SLOAD SWAP1 POP DUP1 CALLVALUE LT ISZERO PUSH2 0x1839 JUMPI PUSH1 0x40 MLOAD PUSH3 0x461BCD PUSH1 0xE5 SHL DUP2 MSTORE PUSH1 0x4 ADD PUSH2 0x8E9 SWAP1 PUSH2 0x4DB7 JUMP JUMPDEST PUSH2 0x1845 DUP6 PUSH1 0x0 DUP4 PUSH2 0x3D37 JUMP JUMPDEST DUP1 CALLVALUE GT ISZERO PUSH2 0xCA2 JUMPI CALLER PUSH2 0x8FC PUSH2 0x185B DUP4 CALLVALUE PUSH2 0x4C9B JUMP JUMPDEST PUSH1 0x40 MLOAD DUP2 ISZERO SWAP1 SWAP3 MUL SWAP2 PUSH1 0x0 DUP2 DUP2 DUP2 DUP6 DUP9 DUP9 CALL SWAP4 POP POP POP POP ISZERO DUP1 ISZERO PUSH2 0x1883 JUMPI RETURNDATASIZE PUSH1 0x0 DUP1 RETURNDATACOPY RETURNDATASIZE PUSH1 0x0 REVERT JUMPDEST POP POP POP POP POP POP JUMP JUMPDEST PUSH2 0xFAF DUP3 DUP3 PUSH2 0x152A JUMP JUMPDEST PUSH2 0x189D PUSH2 0x3DDB JUMP JUMPDEST PUSH2 0x18A7 PUSH1 0x0 PUSH2 0x3E0D JUMP JUMPDEST JUMP JUMPDEST PUSH1 0x0 PUSH2 0x18B3 PUSH2 0x3E7E JUMP JUMPDEST DUP1 SLOAD SWAP1 SWAP2 POP PUSH1 0xFF PUSH1 0x1 PUSH1 0x40 SHL DUP3 DIV AND ISZERO SWAP1 PUSH8 0xFFFFFFFFFFFFFFFF AND PUSH1 0x0 DUP2 ISZERO DUP1 ISZERO PUSH2 0x18DB JUMPI POP DUP3 JUMPDEST SWAP1 POP PUSH1 0x0 DUP3 PUSH8 0xFFFFFFFFFFFFFFFF AND PUSH1 0x1 EQ DUP1 ISZERO PUSH2 0x18F8 JUMPI POP ADDRESS EXTCODESIZE ISZERO JUMPDEST SWAP1 POP DUP2 ISZERO DUP1 ISZERO PUSH2 0x1906 JUMPI POP DUP1 ISZERO JUMPDEST ISZERO PUSH2 0x1924 JUMPI PUSH1 0x40 MLOAD PUSH4 0xF92EE8A9 PUSH1 0xE0 SHL DUP2 MSTORE PUSH1 0x4 ADD PUSH1 0x40 MLOAD DUP1 SWAP2 SUB SWAP1 REVERT JUMPDEST DUP5 SLOAD PUSH8 0xFFFFFFFFFFFFFFFF NOT AND PUSH1 0x1 OR DUP6 SSTORE DUP4 ISZERO PUSH2 0x194E JUMPI DUP5 SLOAD PUSH1 0xFF PUSH1 0x40 SHL NOT AND PUSH1 0x1 PUSH1 0x40 SHL OR DUP6 SSTORE JUMPDEST PUSH2 0x1957 CALLER PUSH2 0x3EA7 JUMP JUMPDEST PUSH2 0x195F PUSH2 0x3EB8 JUMP JUMPDEST PUSH2 0x1967 PUSH2 0x3EC0 JUMP JUMPDEST PUSH1 0x1 PUSH1 0x1 PUSH1 0xA0 SHL SUB DUP8 AND ISZERO PUSH2 0x19BE JUMPI PUSH1 0x35 DUP1 SLOAD PUSH1 0x1 PUSH1 0x1 PUSH1 0xA0 SHL SUB NOT AND PUSH1 0x1 PUSH1 0x1 PUSH1 0xA0 SHL SUB DUP10 AND SWAP1 DUP2 OR SWAP1 SWAP2 SSTORE PUSH1 0x40 MLOAD PUSH32 0x3D5C4663D297C84DE39C0F2D425DD7CECCFCF293F3CDA8A3B70C2679B767A0BE SWAP1 PUSH1 0x0 SWAP1 LOG2 JUMPDEST PUSH1 0x1 PUSH1 0x1 PUSH1 0xA0 SHL SUB DUP7 AND ISZERO PUSH2 0x1A15 JUMPI PUSH1 0x34 DUP1 SLOAD PUSH1 0x1 PUSH1 0x1 PUSH1 0xA0 SHL SUB NOT AND PUSH1 0x1 PUSH1 0x1 PUSH1 0xA0 SHL SUB DUP9 AND SWAP1 DUP2 OR SWAP1 SWAP2 SSTORE PUSH1 0x40 MLOAD PUSH32 0x3797CDCF2854123DBFDCEA167CA6E2C6EFF61F1A41F5774244C532F9D2FBD7B3 SWAP1 PUSH1 0x0 SWAP1 LOG2 JUMPDEST DUP4 ISZERO PUSH2 0x1A5B JUMPI DUP5 SLOAD PUSH1 0xFF PUSH1 0x40 SHL NOT AND DUP6 SSTORE PUSH1 0x40 MLOAD PUSH1 0x1 DUP2 MSTORE PUSH32 0xC7F505B2F371AE2175EE4913F4499E1F2633A7B5936321EED1CDAEB6115181D2 SWAP1 PUSH1 0x20 ADD PUSH1 0x40 MLOAD DUP1 SWAP2 SUB SWAP1 LOG1 JUMPDEST POP POP POP POP POP POP POP JUMP JUMPDEST PUSH2 0x1A6C PUSH2 0x3DDB JUMP JUMPDEST PUSH1 0x34 DUP1 SLOAD PUSH1 0x1 PUSH1 0x1 PUSH1 0xA0 SHL SUB NOT AND PUSH1 0x1 PUSH1 0x1 PUSH1 0xA0 SHL SUB DUP4 AND SWAP1 DUP2 OR SWAP1 SWAP2 SSTORE PUSH1 0x40 MLOAD PUSH32 0x3797CDCF2854123DBFDCEA167CA6E2C6EFF61F1A41F5774244C532F9D2FBD7B3 SWAP1 PUSH1 0x0 SWAP1 LOG2 POP JUMP JUMPDEST PUSH1 0x0 PUSH2 0x1AC0 PUSH2 0x3E7E JUMP JUMPDEST DUP1 SLOAD SWAP1 SWAP2 POP PUSH1 0xFF PUSH1 0x1 PUSH1 0x40 SHL DUP3 DIV AND ISZERO SWAP1 PUSH8 0xFFFFFFFFFFFFFFFF AND PUSH1 0x0 DUP2 ISZERO DUP1 ISZERO PUSH2 0x1AE8 JUMPI POP DUP3 JUMPDEST SWAP1 POP PUSH1 0x0 DUP3 PUSH8 0xFFFFFFFFFFFFFFFF AND PUSH1 0x1 EQ DUP1 ISZERO PUSH2 0x1B05 JUMPI POP ADDRESS EXTCODESIZE ISZERO JUMPDEST SWAP1 POP DUP2 ISZERO DUP1 ISZERO PUSH2 0x1B13 JUMPI POP DUP1 ISZERO JUMPDEST ISZERO PUSH2 0x1B31 JUMPI PUSH1 0x40 MLOAD PUSH4 0xF92EE8A9 PUSH1 0xE0 SHL DUP2 MSTORE PUSH1 0x4 ADD PUSH1 0x40 MLOAD DUP1 SWAP2 SUB SWAP1 REVERT JUMPDEST DUP5 SLOAD PUSH8 0xFFFFFFFFFFFFFFFF NOT AND PUSH1 0x1 OR DUP6 SSTORE DUP4 ISZERO PUSH2 0x1B5B JUMPI DUP5 SLOAD PUSH1 0xFF PUSH1 0x40 SHL NOT AND PUSH1 0x1 PUSH1 0x40 SHL OR DUP6 SSTORE JUMPDEST PUSH2 0x1B64 CALLER PUSH2 0x3EA7 JUMP JUMPDEST PUSH2 0x1B6C PUSH2 0x3EB8 JUMP JUMPDEST PUSH2 0x1B74 PUSH2 0x3EC0 JUMP JUMPDEST DUP4 ISZERO PUSH2 0xCA2 JUMPI DUP5 SLOAD PUSH1 0xFF PUSH1 0x40 SHL NOT AND DUP6 SSTORE PUSH1 0x40 MLOAD PUSH1 0x1 DUP2 MSTORE PUSH32 0xC7F505B2F371AE2175EE4913F4499E1F2633A7B5936321EED1CDAEB6115181D2 SWAP1 PUSH1 0x20 ADD PUSH1 0x40 MLOAD DUP1 SWAP2 SUB SWAP1 LOG1 POP POP POP POP POP JUMP JUMPDEST PUSH1 0x0 DUP3 DUP2 MSTORE PUSH1 0x36 PUSH1 0x20 MSTORE PUSH1 0x40 DUP2 KECCAK256 PUSH1 0x1 ADD SLOAD PUSH1 0x60 SWAP1 PUSH1 0x1 PUSH1 0x1 PUSH1 0xA0 SHL SUB AND PUSH2 0x1BFA JUMPI PUSH1 0x40 MLOAD PUSH3 0x461BCD PUSH1 0xE5 SHL DUP2 MSTORE PUSH1 0x4 ADD PUSH2 0x8E9 SWAP1 PUSH2 0x4BCC JUMP JUMPDEST PUSH1 0x0 DUP5 DUP2 MSTORE PUSH1 0x36 PUSH1 0x20 MSTORE PUSH1 0x40 SWAP1 KECCAK256 PUSH1 0x2 DUP2 ADD SLOAD DUP5 LT PUSH2 0x1C55 JUMPI PUSH1 0x40 MLOAD PUSH3 0x461BCD PUSH1 0xE5 SHL DUP2 MSTORE PUSH1 0x20 PUSH1 0x4 DUP3 ADD MSTORE PUSH1 0x17 PUSH1 0x24 DUP3 ADD MSTORE PUSH23 0x92DCECC2D8D2C840C2E0E0D8D2C6C2DCE840D2DCC8CAF PUSH1 0x4B SHL PUSH1 0x44 DUP3 ADD MSTORE PUSH1 0x64 ADD PUSH2 0x8E9 JUMP JUMPDEST PUSH1 0x0 DUP2 PUSH1 0x2 ADD DUP6 DUP2 SLOAD DUP2 LT PUSH2 0x1C6C JUMPI PUSH2 0x1C6C PUSH2 0x4CC7 JUMP JUMPDEST PUSH1 0x0 SWAP2 DUP3 MSTORE PUSH1 0x20 DUP1 DUP4 KECCAK256 SWAP1 SWAP2 ADD SLOAD PUSH1 0x1 PUSH1 0x1 PUSH1 0xA0 SHL SUB AND DUP1 DUP4 MSTORE PUSH1 0xC DUP6 ADD SWAP1 SWAP2 MSTORE PUSH1 0x40 SWAP1 SWAP2 KECCAK256 DUP1 SLOAD SWAP2 SWAP3 POP DUP3 SWAP2 DUP2 SWAP1 PUSH2 0x1CA4 SWAP1 PUSH2 0x4D3C JUMP JUMPDEST DUP1 PUSH1 0x1F ADD PUSH1 0x20 DUP1 SWAP2 DIV MUL PUSH1 0x20 ADD PUSH1 0x40 MLOAD SWAP1 DUP2 ADD PUSH1 0x40 MSTORE DUP1 SWAP3 SWAP2 SWAP1 DUP2 DUP2 MSTORE PUSH1 0x20 ADD DUP3 DUP1 SLOAD PUSH2 0x1CD0 SWAP1 PUSH2 0x4D3C JUMP JUMPDEST DUP1 ISZERO PUSH2 0x1D1D JUMPI DUP1 PUSH1 0x1F LT PUSH2 0x1CF2 JUMPI PUSH2 0x100 DUP1 DUP4 SLOAD DIV MUL DUP4 MSTORE SWAP2 PUSH1 0x20 ADD SWAP2 PUSH2 0x1D1D JUMP JUMPDEST DUP3 ADD SWAP2 SWAP1 PUSH1 0x0 MSTORE PUSH1 0x20 PUSH1 0x0 KECCAK256 SWAP1 JUMPDEST DUP2 SLOAD DUP2 MSTORE SWAP1 PUSH1 0x1 ADD SWAP1 PUSH1 0x20 ADD DUP1 DUP4 GT PUSH2 0x1D00 JUMPI DUP3 SWAP1 SUB PUSH1 0x1F AND DUP3 ADD SWAP2 JUMPDEST POP POP POP POP POP SWAP1 POP SWAP4 POP SWAP4 POP POP POP SWAP3 POP SWAP3 SWAP1 POP JUMP JUMPDEST PUSH1 0x0 DUP2 DUP2 MSTORE PUSH1 0x36 PUSH1 0x20 MSTORE PUSH1 0x40 SWAP1 KECCAK256 PUSH1 0x1 ADD SLOAD PUSH1 0x1 PUSH1 0x1 PUSH1 0xA0 SHL SUB AND PUSH2 0x1D68 JUMPI PUSH1 0x40 MLOAD PUSH3 0x461BCD PUSH1 0xE5 SHL DUP2 MSTORE PUSH1 0x4 ADD PUSH2 0x8E9 SWAP1 PUSH2 0x4BCC JUMP JUMPDEST PUSH1 0x0 DUP2 DUP2 MSTORE PUSH1 0x36 PUSH1 0x20 MSTORE PUSH1 0x40 SWAP1 KECCAK256 PUSH1 0x1 DUP2 ADD SLOAD PUSH1 0x1 PUSH1 0x1 PUSH1 0xA0 SHL SUB AND CALLER EQ PUSH2 0x1DD2 JUMPI PUSH1 0x40 MLOAD PUSH3 0x461BCD PUSH1 0xE5 SHL DUP2 MSTORE PUSH1 0x20 PUSH1 0x4 DUP3 ADD MSTORE PUSH1 0x1F PUSH1 0x24 DUP3 ADD MSTORE PUSH32 0x4F6E6C79206A6F622067697665722063616E2066756E6420746865206A6F6200 PUSH1 0x44 DUP3 ADD MSTORE PUSH1 0x64 ADD PUSH2 0x8E9 JUMP JUMPDEST PUSH1 0x4 DUP2 ADD SLOAD PUSH2 0x100 SWAP1 DIV PUSH1 0xFF AND ISZERO PUSH2 0x1DFC JUMPI PUSH1 0x40 MLOAD PUSH3 0x461BCD PUSH1 0xE5 SHL DUP2 MSTORE PUSH1 0x4 ADD PUSH2 0x8E9 SWAP1 PUSH2 0x4BF8 JUMP JUMPDEST DUP2 PUSH32 0x9D25C5CF940EED311C45E5A0B4C7C8790A356D3C356453B76BB7E232DB3F384A CALLVALUE PUSH1 0x40 MLOAD PUSH2 0x1E2E SWAP2 DUP2 MSTORE PUSH1 0x20 ADD SWAP1 JUMP JUMPDEST PUSH1 0x40 MLOAD DUP1 SWAP2 SUB SWAP1 LOG2 POP POP JUMP JUMPDEST PUSH1 0x0 DUP3 DUP2 MSTORE PUSH1 0x36 PUSH1 0x20 MSTORE PUSH1 0x40 DUP2 KECCAK256 PUSH1 0x1 ADD SLOAD PUSH1 0x1 PUSH1 0x1 PUSH1 0xA0 SHL SUB AND PUSH2 0x1E71 JUMPI PUSH1 0x40 MLOAD PUSH3 0x461BCD PUSH1 0xE5 SHL DUP2 MSTORE PUSH1 0x4 ADD PUSH2 0x8E9 SWAP1 PUSH2 0x4BCC JUMP JUMPDEST PUSH1 0x0 DUP4 DUP2 MSTORE PUSH1 0x36 PUSH1 0x20 MSTORE PUSH1 0x40 SWAP1 KECCAK256 PUSH1 0x4 DUP2 ADD SLOAD PUSH1 0xFF AND ISZERO PUSH2 0x1EEF JUMPI PUSH1 0x40 MLOAD PUSH3 0x461BCD PUSH1 0xE5 SHL DUP2 MSTORE PUSH1 0x20 PUSH1 0x4 DUP3 ADD MSTORE PUSH1 0x32 PUSH1 0x24 DUP3 ADD MSTORE PUSH32 0x4A6F62206D7573742062652061737369676E6564206265666F7265206C6F636B PUSH1 0x44 DUP3 ADD MSTORE PUSH18 0x696E672064697370757465642066756E6473 PUSH1 0x70 SHL PUSH1 0x64 DUP3 ADD MSTORE PUSH1 0x84 ADD PUSH2 0x8E9 JUMP JUMPDEST PUSH1 0x8 DUP2 ADD DUP1 SLOAD PUSH1 0x0 SWAP2 DUP3 SWAP1 SSTORE DUP5 DUP3 MSTORE PUSH1 0x39 PUSH1 0x20 MSTORE PUSH1 0x40 SWAP2 DUP3 SWAP1 KECCAK256 DUP2 SWAP1 SSTORE SWAP1 MLOAD DUP5 SWAP1 DUP7 SWAP1 PUSH32 0xDCD1B584798444B5AA8D1E99DE5359308E14D34A63EB3B0C32A815F05CA62D41 SWAP1 PUSH2 0x1F41 SWAP1 DUP6 DUP2 MSTORE PUSH1 0x20 ADD SWAP1 JUMP JUMPDEST PUSH1 0x40 MLOAD DUP1 SWAP2 SUB SWAP1 LOG3 SWAP5 SWAP4 POP POP POP POP JUMP JUMPDEST PUSH32 0x9016D09D72D40FDAE2FD8CEAC6B6234C7706214FD39C1CD1E609A0528C199300 SLOAD PUSH1 0x1 PUSH1 0x1 PUSH1 0xA0 SHL SUB AND SWAP1 JUMP JUMPDEST PUSH1 0x0 DUP3 DUP2 MSTORE PUSH1 0x36 PUSH1 0x20 MSTORE PUSH1 0x40 DUP2 KECCAK256 PUSH1 0x1 ADD SLOAD DUP2 SWAP1 DUP2 SWAP1 PUSH1 0x1 PUSH1 0x1 PUSH1 0xA0 SHL SUB AND PUSH2 0x1FBA JUMPI PUSH1 0x40 MLOAD PUSH3 0x461BCD PUSH1 0xE5 SHL DUP2 MSTORE PUSH1 0x4 ADD PUSH2 0x8E9 SWAP1 PUSH2 0x4BCC JUMP JUMPDEST PUSH1 0x0 DUP6 DUP2 MSTORE PUSH1 0x36 PUSH1 0x20 MSTORE PUSH1 0x40 SWAP1 KECCAK256 PUSH1 0x6 DUP2 ADD SLOAD DUP6 LT PUSH2 0x2015 JUMPI PUSH1 0x40 MLOAD PUSH3 0x461BCD PUSH1 0xE5 SHL DUP2 MSTORE PUSH1 0x20 PUSH1 0x4 DUP3 ADD MSTORE PUSH1 0x17 PUSH1 0x24 DUP3 ADD MSTORE PUSH23 0x92DCECC2D8D2C840DAD2D8CAE6E8DEDCCA40D2DCC8CAF PUSH1 0x4B SHL PUSH1 0x44 DUP3 ADD MSTORE PUSH1 0x64 ADD PUSH2 0x8E9 JUMP JUMPDEST PUSH1 0x0 DUP6 DUP3 PUSH1 0x9 ADD SLOAD GT DUP1 PUSH2 0x2032 JUMPI POP PUSH1 0x4 DUP3 ADD SLOAD PUSH2 0x100 SWAP1 DIV PUSH1 0xFF AND JUMPDEST SWAP1 POP PUSH1 0x0 DUP2 SWAP1 POP DUP3 PUSH1 0x6 ADD DUP8 DUP2 SLOAD DUP2 LT PUSH2 0x204E JUMPI PUSH2 0x204E PUSH2 0x4CC7 JUMP JUMPDEST PUSH1 0x0 SWAP2 DUP3 MSTORE PUSH1 0x20 SWAP1 SWAP2 KECCAK256 ADD SLOAD SWAP9 SWAP2 SWAP8 POP SWAP6 POP SWAP4 POP POP POP POP JUMP JUMPDEST PUSH1 0x0 DUP3 DUP2 MSTORE PUSH1 0x36 PUSH1 0x20 MSTORE PUSH1 0x40 SWAP1 KECCAK256 PUSH1 0x1 ADD SLOAD PUSH1 0x1 PUSH1 0x1 PUSH1 0xA0 SHL SUB AND PUSH2 0x209E JUMPI PUSH1 0x40 MLOAD PUSH3 0x461BCD PUSH1 0xE5 SHL DUP2 MSTORE PUSH1 0x4 ADD PUSH2 0x8E9 SWAP1 PUSH2 0x4BCC JUMP JUMPDEST PUSH1 0x0 DUP3 DUP2 MSTORE PUSH1 0x36 PUSH1 0x20 MSTORE PUSH1 0x40 SWAP1 KECCAK256 PUSH1 0x4 DUP2 ADD SLOAD PUSH2 0x100 SWAP1 DIV PUSH1 0xFF AND ISZERO PUSH2 0x20D6 JUMPI PUSH1 0x40 MLOAD PUSH3 0x461BCD PUSH1 0xE5 SHL DUP2 MSTORE PUSH1 0x4 ADD PUSH2 0x8E9 SWAP1 PUSH2 0x4BF8 JUMP JUMPDEST PUSH1 0x1 DUP2 ADD SLOAD PUSH1 0x1 PUSH1 0x1 PUSH1 0xA0 SHL SUB AND CALLER EQ DUP1 PUSH2 0x20FD JUMPI POP PUSH1 0xA DUP2 ADD SLOAD PUSH1 0x1 PUSH1 0x1 PUSH1 0xA0 SHL SUB AND CALLER EQ JUMPDEST PUSH2 0x2161 JUMPI PUSH1 0x40 MLOAD PUSH3 0x461BCD PUSH1 0xE5 SHL DUP2 MSTORE PUSH1 0x20 PUSH1 0x4 DUP3 ADD MSTORE PUSH1 0x2F PUSH1 0x24 DUP3 ADD MSTORE PUSH32 0x4F6E6C79206A6F62206769766572206F7220667265656C616E6365722063616E PUSH1 0x44 DUP3 ADD MSTORE PUSH15 0x206372656174652064697370757465 PUSH1 0x88 SHL PUSH1 0x64 DUP3 ADD MSTORE PUSH1 0x84 ADD PUSH2 0x8E9 JUMP JUMPDEST CALLER PUSH1 0x1 PUSH1 0x1 PUSH1 0xA0 SHL SUB AND DUP4 PUSH32 0x5A12122EA7F59C09200FF43C3CFB5A65767C9229840796857ACAD1CC8246F65 DUP5 PUSH1 0x40 MLOAD PUSH2 0x219B SWAP2 SWAP1 PUSH2 0x4920 JUMP JUMPDEST PUSH1 0x40 MLOAD DUP1 SWAP2 SUB SWAP1 LOG3 POP POP POP JUMP JUMPDEST PUSH2 0xFAF DUP3 DUP3 PUSH2 0xFA5 JUMP JUMPDEST PUSH1 0x0 DUP2 DUP2 MSTORE PUSH1 0x36 PUSH1 0x20 MSTORE PUSH1 0x40 SWAP1 KECCAK256 PUSH1 0x1 ADD SLOAD PUSH1 0x1 PUSH1 0x1 PUSH1 0xA0 SHL SUB AND PUSH2 0x21E9 JUMPI PUSH1 0x40 MLOAD PUSH3 0x461BCD PUSH1 0xE5 SHL DUP2 MSTORE PUSH1 0x4 ADD PUSH2 0x8E9 SWAP1 PUSH2 0x4BCC JUMP JUMPDEST PUSH1 0x0 DUP2 DUP2 MSTORE PUSH1 0x36 PUSH1 0x20 MSTORE PUSH1 0x40 SWAP1 KECCAK256 PUSH1 0x1 DUP2 ADD SLOAD PUSH1 0x1 PUSH1 0x1 PUSH1 0xA0 SHL SUB AND CALLER EQ PUSH2 0x2253 JUMPI PUSH1 0x40 MLOAD PUSH3 0x461BCD PUSH1 0xE5 SHL DUP2 MSTORE PUSH1 0x20 PUSH1 0x4 DUP3 ADD MSTORE PUSH1 0x1F PUSH1 0x24 DUP3 ADD MSTORE PUSH32 0x4F6E6C79206A6F622067697665722063616E20636F6D706C657465206A6F6200 PUSH1 0x44 DUP3 ADD MSTORE PUSH1 0x64 ADD PUSH2 0x8E9 JUMP JUMPDEST PUSH1 0x4 DUP2 ADD SLOAD PUSH2 0x100 SWAP1 DIV PUSH1 0xFF AND ISZERO PUSH2 0x227D JUMPI PUSH1 0x40 MLOAD PUSH3 0x461BCD PUSH1 0xE5 SHL DUP2 MSTORE PUSH1 0x4 ADD PUSH2 0x8E9 SWAP1 PUSH2 0x4BF8 JUMP JUMPDEST PUSH1 0x4 DUP2 ADD DUP1 SLOAD PUSH2 0xFF00 NOT AND PUSH2 0x100 OR SWAP1 SSTORE PUSH1 0x40 MLOAD DUP3 SWAP1 PUSH32 0x2244C8529CB95E213EE542E76E7776342B3DABD10203D01472BBF4441BE8929 SWAP1 PUSH1 0x0 SWAP1 LOG2 POP POP JUMP JUMPDEST PUSH1 0x0 DUP4 DUP2 MSTORE PUSH1 0x36 PUSH1 0x20 MSTORE PUSH1 0x40 SWAP1 KECCAK256 PUSH1 0x1 ADD SLOAD PUSH1 0x1 PUSH1 0x1 PUSH1 0xA0 SHL SUB AND PUSH2 0x22F4 JUMPI PUSH1 0x40 MLOAD PUSH3 0x461BCD PUSH1 0xE5 SHL DUP2 MSTORE PUSH1 0x4 ADD PUSH2 0x8E9 SWAP1 PUSH2 0x4BCC JUMP JUMPDEST PUSH1 0x0 DUP4 DUP2 MSTORE PUSH1 0x36 PUSH1 0x20 MSTORE PUSH1 0x40 SWAP1 KECCAK256 PUSH1 0x4 DUP2 ADD SLOAD PUSH2 0x100 SWAP1 DIV PUSH1 0xFF AND ISZERO PUSH2 0x232C JUMPI PUSH1 0x40 MLOAD PUSH3 0x461BCD PUSH1 0xE5 SHL DUP2 MSTORE PUSH1 0x4 ADD PUSH2 0x8E9 SWAP1 PUSH2 0x4BF8 JUMP JUMPDEST DUP3 DUP2 PUSH1 0x9 ADD SLOAD EQ PUSH2 0x234F JUMPI PUSH1 0x40 MLOAD PUSH3 0x461BCD PUSH1 0xE5 SHL DUP2 MSTORE PUSH1 0x4 ADD PUSH2 0x8E9 SWAP1 PUSH2 0x4C2F JUMP JUMPDEST DUP2 DUP2 PUSH1 0x7 ADD PUSH1 0x0 DUP3 DUP3 SLOAD PUSH2 0x2363 SWAP2 SWAP1 PUSH2 0x4C88 JUMP JUMPDEST SWAP1 SWAP2 SSTORE POP POP PUSH1 0x34 SLOAD PUSH1 0x1 PUSH1 0x1 PUSH1 0xA0 SHL SUB AND ISZERO PUSH2 0x2428 JUMPI PUSH1 0x34 SLOAD PUSH1 0xA DUP3 ADD SLOAD PUSH1 0x40 MLOAD PUSH4 0x9B1DF017 PUSH1 0xE0 SHL DUP2 MSTORE PUSH1 0x1 PUSH1 0x1 PUSH1 0xA0 SHL SUB SWAP2 DUP3 AND PUSH1 0x4 DUP3 ADD MSTORE PUSH1 0x24 DUP2 ADD DUP6 SWAP1 MSTORE SWAP2 AND SWAP1 PUSH4 0x9B1DF017 SWAP1 PUSH1 0x44 ADD PUSH1 0x0 PUSH1 0x40 MLOAD DUP1 DUP4 SUB DUP2 PUSH1 0x0 DUP8 DUP1 EXTCODESIZE ISZERO DUP1 ISZERO PUSH2 0x23CB JUMPI PUSH1 0x0 DUP1 REVERT JUMPDEST POP GAS CALL ISZERO DUP1 ISZERO PUSH2 0x23DF JUMPI RETURNDATASIZE PUSH1 0x0 DUP1 RETURNDATACOPY RETURNDATASIZE PUSH1 0x0 REVERT JUMPDEST POP POP POP POP PUSH1 0xA DUP2 ADD SLOAD PUSH1 0x40 MLOAD DUP4 DUP2 MSTORE PUSH1 0x1 PUSH1 0x1 PUSH1 0xA0 SHL SUB SWAP1 SWAP2 AND SWAP1 PUSH32 0x9062DC956DE097CDA36FF6C116B8AC45AA85D92CAF323E282AC98556DED89460 SWAP1 PUSH1 0x20 ADD PUSH1 0x40 MLOAD DUP1 SWAP2 SUB SWAP1 LOG2 JUMPDEST DUP3 DUP5 PUSH32 0xD4DBDA378623F00B72EF135B4579B7BA064C49645217EB107D663831EFAC6358 DUP5 PUSH1 0x40 MLOAD PUSH2 0x245B SWAP2 DUP2 MSTORE PUSH1 0x20 ADD SWAP1 JUMP JUMPDEST PUSH1 0x40 MLOAD DUP1 SWAP2 SUB SWAP1 LOG3 DUP3 DUP5 PUSH32 0xAFC8FC5DD6037BF38D34D9D51BB5ECC0AF143248332C63AE9E83BBEF6D4638D9 DUP5 PUSH1 0x40 MLOAD PUSH2 0x2496 SWAP2 DUP2 MSTORE PUSH1 0x20 ADD SWAP1 JUMP JUMPDEST PUSH1 0x40 MLOAD DUP1 SWAP2 SUB SWAP1 LOG3 PUSH1 0x6 DUP2 ADD SLOAD PUSH2 0x24AF SWAP1 PUSH1 0x1 SWAP1 PUSH2 0x4C9B JUMP JUMPDEST DUP4 SUB PUSH2 0x24F6 JUMPI PUSH1 0x4 DUP2 ADD DUP1 SLOAD PUSH2 0xFF00 NOT AND PUSH2 0x100 OR SWAP1 SSTORE PUSH1 0x40 MLOAD DUP5 SWAP1 PUSH32 0x2244C8529CB95E213EE542E76E7776342B3DABD10203D01472BBF4441BE8929 SWAP1 PUSH1 0x0 SWAP1 LOG2 PUSH2 0x257C JUMP JUMPDEST PUSH1 0x9 DUP2 ADD DUP1 SLOAD SWAP1 PUSH1 0x0 PUSH2 0x2508 DUP4 PUSH2 0x4CAE JUMP JUMPDEST SWAP1 SWAP2 SSTORE POP DUP5 SWAP1 POP PUSH32 0xF61B08D14084992CA42ECC6F6C1B58E0007A0F9156069AD2D36218FA7EA1EB32 PUSH2 0x253B DUP6 PUSH1 0x1 PUSH2 0x4C88 JUMP JUMPDEST PUSH1 0x6 DUP5 ADD PUSH2 0x254A DUP8 PUSH1 0x1 PUSH2 0x4C88 JUMP JUMPDEST DUP2 SLOAD DUP2 LT PUSH2 0x255A JUMPI PUSH2 0x255A PUSH2 0x4CC7 JUMP JUMPDEST PUSH1 0x0 SWAP2 DUP3 MSTORE PUSH1 0x20 SWAP2 DUP3 SWAP1 KECCAK256 ADD SLOAD PUSH1 0x40 DUP1 MLOAD SWAP4 DUP5 MSTORE SWAP2 DUP4 ADD MSTORE ADD PUSH1 0x40 MLOAD DUP1 SWAP2 SUB SWAP1 LOG2 JUMPDEST POP POP POP POP JUMP JUMPDEST PUSH1 0x0 DUP3 DUP2 MSTORE PUSH1 0x36 PUSH1 0x20 MSTORE PUSH1 0x40 DUP2 KECCAK256 PUSH1 0x1 ADD SLOAD PUSH1 0x60 SWAP1 DUP2 SWAP1 PUSH1 0x1 PUSH1 0x1 PUSH1 0xA0 SHL SUB AND PUSH2 0x25BE JUMPI PUSH1 0x40 MLOAD PUSH3 0x461BCD PUSH1 0xE5 SHL DUP2 MSTORE PUSH1 0x4 ADD PUSH2 0x8E9 SWAP1 PUSH2 0x4BCC JUMP JUMPDEST PUSH1 0x0 DUP6 DUP2 MSTORE PUSH1 0x36 PUSH1 0x20 SWAP1 DUP2 MSTORE PUSH1 0x40 DUP1 DUP4 KECCAK256 PUSH1 0x1 PUSH1 0x1 PUSH1 0xA0 SHL SUB DUP9 AND DUP5 MSTORE PUSH1 0xD ADD DUP3 MSTORE SWAP2 DUP3 SWAP1 KECCAK256 DUP1 SLOAD PUSH1 0x1 DUP3 ADD DUP1 SLOAD DUP6 MLOAD DUP2 DUP7 MUL DUP2 ADD DUP7 ADD SWAP1 SWAP7 MSTORE DUP1 DUP7 MSTORE SWAP3 SWAP5 PUSH1 0xFF SWAP1 SWAP3 AND SWAP4 SWAP1 SWAP3 PUSH1 0x2 DUP7 ADD SWAP3 SWAP2 DUP5 SWAP2 SWAP1 DUP4 ADD DUP3 DUP3 DUP1 ISZERO PUSH2 0x263D JUMPI PUSH1 0x20 MUL DUP3 ADD SWAP2 SWAP1 PUSH1 0x0 MSTORE PUSH1 0x20 PUSH1 0x0 KECCAK256 SWAP1 JUMPDEST DUP2 SLOAD DUP2 MSTORE PUSH1 0x20 ADD SWAP1 PUSH1 0x1 ADD SWAP1 DUP1 DUP4 GT PUSH2 0x2629 JUMPI JUMPDEST POP POP POP POP POP SWAP2 POP DUP1 DUP1 SLOAD PUSH2 0x2650 SWAP1 PUSH2 0x4D3C JUMP JUMPDEST DUP1 PUSH1 0x1F ADD PUSH1 0x20 DUP1 SWAP2 DIV MUL PUSH1 0x20 ADD PUSH1 0x40 MLOAD SWAP1 DUP2 ADD PUSH1 0x40 MSTORE DUP1 SWAP3 SWAP2 SWAP1 DUP2 DUP2 MSTORE PUSH1 0x20 ADD DUP3 DUP1 SLOAD PUSH2 0x267C SWAP1 PUSH2 0x4D3C JUMP JUMPDEST DUP1 ISZERO PUSH2 0x26C9 JUMPI DUP1 PUSH1 0x1F LT PUSH2 0x269E JUMPI PUSH2 0x100 DUP1 DUP4 SLOAD DIV MUL DUP4 MSTORE SWAP2 PUSH1 0x20 ADD SWAP2 PUSH2 0x26C9 JUMP JUMPDEST DUP3 ADD SWAP2 SWAP1 PUSH1 0x0 MSTORE PUSH1 0x20 PUSH1 0x0 KECCAK256 SWAP1 JUMPDEST DUP2 SLOAD DUP2 MSTORE SWAP1 PUSH1 0x1 ADD SWAP1 PUSH1 0x20 ADD DUP1 DUP4 GT PUSH2 0x26AC JUMPI DUP3 SWAP1 SUB PUSH1 0x1F AND DUP3 ADD SWAP2 JUMPDEST POP POP POP POP POP SWAP1 POP SWAP4 POP SWAP4 POP SWAP4 POP POP SWAP3 POP SWAP3 POP SWAP3 JUMP JUMPDEST PUSH1 0x0 PUSH2 0x26E8 PUSH2 0x1F51 JUMP JUMPDEST PUSH1 0x1 PUSH1 0x1 PUSH1 0xA0 SHL SUB AND CALLER PUSH1 0x1 PUSH1 0x1 PUSH1 0xA0 SHL SUB AND EQ PUSH2 0x2756 JUMPI PUSH1 0x40 MLOAD PUSH3 0x461BCD PUSH1 0xE5 SHL DUP2 MSTORE PUSH1 0x20 PUSH1 0x4 DUP3 ADD MSTORE PUSH1 0x25 PUSH1 0x24 DUP3 ADD MSTORE PUSH32 0x4F6E6C79206F776E65722063616E2072656C6561736520646973707574656420 PUSH1 0x44 DUP3 ADD MSTORE PUSH5 0x66756E6473 PUSH1 0xD8 SHL PUSH1 0x64 DUP3 ADD MSTORE PUSH1 0x84 ADD PUSH2 0x8E9 JUMP JUMPDEST PUSH1 0x0 DUP7 DUP2 MSTORE PUSH1 0x39 PUSH1 0x20 MSTORE PUSH1 0x40 SWAP1 KECCAK256 SLOAD DUP4 GT ISZERO PUSH2 0x27B4 JUMPI PUSH1 0x40 MLOAD PUSH3 0x461BCD PUSH1 0xE5 SHL DUP2 MSTORE PUSH1 0x20 PUSH1 0x4 DUP3 ADD MSTORE PUSH1 0x19 PUSH1 0x24 DUP3 ADD MSTORE PUSH32 0x496E73756666696369656E74206C6F636B65642066756E647300000000000000 PUSH1 0x44 DUP3 ADD MSTORE PUSH1 0x64 ADD PUSH2 0x8E9 JUMP JUMPDEST PUSH1 0x0 DUP7 DUP2 MSTORE PUSH1 0x39 PUSH1 0x20 MSTORE PUSH1 0x40 DUP2 KECCAK256 DUP1 SLOAD DUP6 SWAP3 SWAP1 PUSH2 0x27D2 SWAP1 DUP5 SWAP1 PUSH2 0x4C9B JUMP JUMPDEST SWAP1 SWAP2 SSTORE POP DUP6 SWAP1 POP PUSH1 0x0 PUSH1 0x64 PUSH2 0x27E7 DUP6 DUP8 PUSH2 0x4E09 JUMP JUMPDEST PUSH2 0x27F1 SWAP2 SWAP1 PUSH2 0x4E20 JUMP JUMPDEST SWAP1 POP PUSH1 0x0 PUSH2 0x27FF DUP3 DUP8 PUSH2 0x4C9B JUMP JUMPDEST SWAP1 POP DUP2 ISZERO PUSH2 0x2849 JUMPI PUSH2 0x280F PUSH2 0x1F51 JUMP JUMPDEST PUSH1 0x1 PUSH1 0x1 PUSH1 0xA0 SHL SUB AND PUSH2 0x8FC DUP4 SWAP1 DUP2 ISZERO MUL SWAP1 PUSH1 0x40 MLOAD PUSH1 0x0 PUSH1 0x40 MLOAD DUP1 DUP4 SUB DUP2 DUP6 DUP9 DUP9 CALL SWAP4 POP POP POP POP ISZERO DUP1 ISZERO PUSH2 0x2847 JUMPI RETURNDATASIZE PUSH1 0x0 DUP1 RETURNDATACOPY RETURNDATASIZE PUSH1 0x0 REVERT JUMPDEST POP JUMPDEST DUP1 ISZERO PUSH2 0x294F JUMPI PUSH1 0x40 MLOAD PUSH1 0x1 PUSH1 0x1 PUSH1 0xA0 SHL SUB DUP5 AND SWAP1 DUP3 ISZERO PUSH2 0x8FC MUL SWAP1 DUP4 SWAP1 PUSH1 0x0 DUP2 DUP2 DUP2 DUP6 DUP9 DUP9 CALL SWAP4 POP POP POP POP ISZERO DUP1 ISZERO PUSH2 0x2885 JUMPI RETURNDATASIZE PUSH1 0x0 DUP1 RETURNDATACOPY RETURNDATASIZE PUSH1 0x0 REVERT JUMPDEST POP DUP8 PUSH1 0x1 EQ DUP1 ISZERO PUSH2 0x28A0 JUMPI POP PUSH1 0x34 SLOAD PUSH1 0x1 PUSH1 0x1 PUSH1 0xA0 SHL SUB AND ISZERO ISZERO JUMPDEST ISZERO PUSH2 0x294F JUMPI PUSH1 0x34 SLOAD PUSH1 0x40 MLOAD PUSH4 0x9B1DF017 PUSH1 0xE0 SHL DUP2 MSTORE PUSH1 0x1 PUSH1 0x1 PUSH1 0xA0 SHL SUB DUP6 DUP2 AND PUSH1 0x4 DUP4 ADD MSTORE PUSH1 0x24 DUP3 ADD DUP10 SWAP1 MSTORE SWAP1 SWAP2 AND SWAP1 PUSH4 0x9B1DF017 SWAP1 PUSH1 0x44 ADD PUSH1 0x0 PUSH1 0x40 MLOAD DUP1 DUP4 SUB DUP2 PUSH1 0x0 DUP8 DUP1 EXTCODESIZE ISZERO DUP1 ISZERO PUSH2 0x28F3 JUMPI PUSH1 0x0 DUP1 REVERT JUMPDEST POP GAS CALL ISZERO DUP1 ISZERO PUSH2 0x2907 JUMPI RETURNDATASIZE PUSH1 0x0 DUP1 RETURNDATACOPY RETURNDATASIZE PUSH1 0x0 REVERT JUMPDEST POP POP POP POP DUP3 PUSH1 0x1 PUSH1 0x1 PUSH1 0xA0 SHL SUB AND PUSH32 0x9062DC956DE097CDA36FF6C116B8AC45AA85D92CAF323E282AC98556DED89460 DUP8 PUSH1 0x40 MLOAD PUSH2 0x2946 SWAP2 DUP2 MSTORE PUSH1 0x20 ADD SWAP1 JUMP JUMPDEST PUSH1 0x40 MLOAD DUP1 SWAP2 SUB SWAP1 LOG2 JUMPDEST DUP9 DUP11 PUSH32 0xF9498D861A0EB9E71886671C14CB9FE1153A422CB069FB0E5CEA324FC6F5E34C DUP9 PUSH1 0x40 MLOAD PUSH2 0x2982 SWAP2 DUP2 MSTORE PUSH1 0x20 ADD SWAP1 JUMP JUMPDEST PUSH1 0x40 MLOAD DUP1 SWAP2 SUB SWAP1 LOG3 POP PUSH1 0x1 SWAP10 SWAP9 POP POP POP POP POP POP POP POP POP JUMP JUMPDEST PUSH2 0x29A2 PUSH2 0x3DDB JUMP JUMPDEST PUSH1 0x35 DUP1 SLOAD PUSH1 0x1 PUSH1 0x1 PUSH1 0xA0 SHL SUB NOT AND PUSH1 0x1 PUSH1 0x1 PUSH1 0xA0 SHL SUB DUP4 AND SWAP1 DUP2 OR SWAP1 SWAP2 SSTORE PUSH1 0x40 MLOAD PUSH32 0x3D5C4663D297C84DE39C0F2D425DD7CECCFCF293F3CDA8A3B70C2679B767A0BE SWAP1 PUSH1 0x0 SWAP1 LOG2 POP JUMP JUMPDEST PUSH1 0x0 DUP2 DUP2 MSTORE PUSH1 0x36 PUSH1 0x20 MSTORE PUSH1 0x40 DUP2 KECCAK256 PUSH1 0x1 ADD SLOAD PUSH1 0x1 PUSH1 0x1 PUSH1 0xA0 SHL SUB AND PUSH2 0x2A23 JUMPI PUSH1 0x40 MLOAD PUSH3 0x461BCD PUSH1 0xE5 SHL DUP2 MSTORE PUSH1 0x4 ADD PUSH2 0x8E9 SWAP1 PUSH2 0x4BCC JUMP JUMPDEST PUSH1 0x0 DUP3 DUP2 MSTORE PUSH1 0x36 PUSH1 0x20 MSTORE PUSH1 0x40 DUP2 KECCAK256 SWAP1 DUP1 JUMPDEST PUSH1 0x6 DUP4 ADD SLOAD DUP2 LT ISZERO PUSH2 0x2A75 JUMPI DUP3 PUSH1 0x6 ADD DUP2 DUP2 SLOAD DUP2 LT PUSH2 0x2A55 JUMPI PUSH2 0x2A55 PUSH2 0x4CC7 JUMP JUMPDEST SWAP1 PUSH1 0x0 MSTORE PUSH1 0x20 PUSH1 0x0 KECCAK256 ADD SLOAD DUP3 PUSH2 0x2A6B SWAP2 SWAP1 PUSH2 0x4C88 JUMP JUMPDEST SWAP2 POP PUSH1 0x1 ADD PUSH2 0x2A34 JUMP JUMPDEST POP SWAP4 SWAP3 POP POP POP JUMP JUMPDEST PUSH2 0x2A86 CALLER PUSH2 0x3ED0 JUMP JUMPDEST PUSH2 0x2AD2 JUMPI PUSH1 0x40 MLOAD PUSH3 0x461BCD PUSH1 0xE5 SHL DUP2 MSTORE PUSH1 0x20 PUSH1 0x4 DUP3 ADD MSTORE PUSH1 0x1B PUSH1 0x24 DUP3 ADD MSTORE PUSH32 0x557365722070726F66696C6520646F6573206E6F742065786973740000000000 PUSH1 0x44 DUP3 ADD MSTORE PUSH1 0x64 ADD PUSH2 0x8E9 JUMP JUMPDEST PUSH1 0x0 DUP5 DUP2 MSTORE PUSH1 0x36 PUSH1 0x20 MSTORE PUSH1 0x40 SWAP1 KECCAK256 PUSH1 0x1 ADD SLOAD PUSH1 0x1 PUSH1 0x1 PUSH1 0xA0 SHL SUB AND PUSH2 0x2B09 JUMPI PUSH1 0x40 MLOAD PUSH3 0x461BCD PUSH1 0xE5 SHL DUP2 MSTORE PUSH1 0x4 ADD PUSH2 0x8E9 SWAP1 PUSH2 0x4BCC JUMP JUMPDEST PUSH1 0x0 DUP5 DUP2 MSTORE PUSH1 0x36 PUSH1 0x20 MSTORE PUSH1 0x40 SWAP1 KECCAK256 PUSH1 0x4 ADD SLOAD PUSH1 0xFF AND PUSH2 0x2B6A JUMPI PUSH1 0x40 MLOAD PUSH3 0x461BCD PUSH1 0xE5 SHL DUP2 MSTORE PUSH1 0x20 PUSH1 0x4 DUP3 ADD DUP2 SWAP1 MSTORE PUSH1 0x24 DUP3 ADD MSTORE PUSH32 0x4A6F62206973206E6F74206F70656E20666F72206170706C69636174696F6E73 PUSH1 0x44 DUP3 ADD MSTORE PUSH1 0x64 ADD PUSH2 0x8E9 JUMP JUMPDEST PUSH1 0x0 DUP5 DUP2 MSTORE PUSH1 0x36 PUSH1 0x20 MSTORE PUSH1 0x40 SWAP1 KECCAK256 PUSH1 0x1 ADD SLOAD CALLER PUSH1 0x1 PUSH1 0x1 PUSH1 0xA0 SHL SUB SWAP1 SWAP2 AND SUB PUSH2 0x2BD5 JUMPI PUSH1 0x40 MLOAD PUSH3 0x461BCD PUSH1 0xE5 SHL DUP2 MSTORE PUSH1 0x20 PUSH1 0x4 DUP3 ADD MSTORE PUSH1 0x1C PUSH1 0x24 DUP3 ADD MSTORE PUSH32 0x43616E6E6F74206170706C7920746F20796F7572206F776E206A6F6200000000 PUSH1 0x44 DUP3 ADD MSTORE PUSH1 0x64 ADD PUSH2 0x8E9 JUMP JUMPDEST PUSH1 0x0 DUP5 DUP2 MSTORE PUSH1 0x36 PUSH1 0x20 MSTORE PUSH1 0x40 DUP2 KECCAK256 SWAP1 JUMPDEST PUSH1 0x2 DUP3 ADD SLOAD DUP2 LT ISZERO PUSH2 0x2C7A JUMPI CALLER PUSH1 0x1 PUSH1 0x1 PUSH1 0xA0 SHL SUB AND DUP3 PUSH1 0x2 ADD DUP3 DUP2 SLOAD DUP2 LT PUSH2 0x2C10 JUMPI PUSH2 0x2C10 PUSH2 0x4CC7 JUMP JUMPDEST PUSH1 0x0 SWAP2 DUP3 MSTORE PUSH1 0x20 SWAP1 SWAP2 KECCAK256 ADD SLOAD PUSH1 0x1 PUSH1 0x1 PUSH1 0xA0 SHL SUB AND SUB PUSH2 0x2C72 JUMPI PUSH1 0x40 MLOAD PUSH3 0x461BCD PUSH1 0xE5 SHL DUP2 MSTORE PUSH1 0x20 PUSH1 0x4 DUP3 ADD MSTORE PUSH1 0x1B PUSH1 0x24 DUP3 ADD MSTORE PUSH32 0x416C7265616479206170706C69656420746F2074686973206A6F620000000000 PUSH1 0x44 DUP3 ADD MSTORE PUSH1 0x64 ADD PUSH2 0x8E9 JUMP JUMPDEST PUSH1 0x1 ADD PUSH2 0x2BE5 JUMP JUMPDEST POP PUSH1 0x2 DUP2 ADD DUP1 SLOAD PUSH1 0x1 DUP2 ADD DUP3 SSTORE PUSH1 0x0 SWAP2 DUP3 MSTORE PUSH1 0x20 DUP1 DUP4 KECCAK256 SWAP1 SWAP2 ADD DUP1 SLOAD PUSH1 0x1 PUSH1 0x1 PUSH1 0xA0 SHL SUB NOT AND CALLER SWAP1 DUP2 OR SWAP1 SWAP2 SSTORE DUP3 MSTORE PUSH1 0xC DUP4 ADD SWAP1 MSTORE PUSH1 0x40 SWAP1 KECCAK256 PUSH2 0x2CBD DUP6 DUP3 PUSH2 0x4E89 JUMP JUMPDEST POP DUP3 MLOAD ISZERO PUSH2 0x2ED8 JUMPI PUSH1 0x0 DUP1 JUMPDEST DUP5 MLOAD DUP2 LT ISZERO PUSH2 0x2D84 JUMPI PUSH1 0x0 DUP6 DUP3 DUP2 MLOAD DUP2 LT PUSH2 0x2CE6 JUMPI PUSH2 0x2CE6 PUSH2 0x4CC7 JUMP JUMPDEST PUSH1 0x20 MUL PUSH1 0x20 ADD ADD MLOAD GT PUSH2 0x2D55 JUMPI PUSH1 0x40 MLOAD PUSH3 0x461BCD PUSH1 0xE5 SHL DUP2 MSTORE PUSH1 0x20 PUSH1 0x4 DUP3 ADD MSTORE PUSH1 0x31 PUSH1 0x24 DUP3 ADD MSTORE PUSH32 0x50726F706F736564206D696C6573746F6E65207061796D656E74206D75737420 PUSH1 0x44 DUP3 ADD MSTORE PUSH17 0x62652067726561746572207468616E203 PUSH1 0x7C SHL PUSH1 0x64 DUP3 ADD MSTORE PUSH1 0x84 ADD PUSH2 0x8E9 JUMP JUMPDEST DUP5 DUP2 DUP2 MLOAD DUP2 LT PUSH2 0x2D67 JUMPI PUSH2 0x2D67 PUSH2 0x4CC7 JUMP JUMPDEST PUSH1 0x20 MUL PUSH1 0x20 ADD ADD MLOAD DUP3 PUSH2 0x2D7A SWAP2 SWAP1 PUSH2 0x4C88 JUMP JUMPDEST SWAP2 POP PUSH1 0x1 ADD PUSH2 0x2CC9 JUMP JUMPDEST POP PUSH1 0x0 DUP2 GT PUSH2 0x2DEB JUMPI PUSH1 0x40 MLOAD PUSH3 0x461BCD PUSH1 0xE5 SHL DUP2 MSTORE PUSH1 0x20 PUSH1 0x4 DUP3 ADD MSTORE PUSH1 0x2D PUSH1 0x24 DUP3 ADD MSTORE PUSH32 0x546F74616C2070726F706F736564207061796D656E74206D7573742062652067 PUSH1 0x44 DUP3 ADD MSTORE PUSH13 0x726561746572207468616E203 PUSH1 0x9C SHL PUSH1 0x64 DUP3 ADD MSTORE PUSH1 0x84 ADD PUSH2 0x8E9 JUMP JUMPDEST PUSH10 0x21E19E0C9BAB2400000 DUP2 GT ISZERO PUSH2 0x2E6B JUMPI PUSH1 0x40 MLOAD PUSH3 0x461BCD PUSH1 0xE5 SHL DUP2 MSTORE PUSH1 0x20 PUSH1 0x4 DUP3 ADD MSTORE PUSH1 0x34 PUSH1 0x24 DUP3 ADD MSTORE PUSH32 0x50726F706F736564206A6F622076616C75652065786365656473206D6178696D PUSH1 0x44 DUP3 ADD MSTORE PUSH32 0x756D206C696D6974206F662031304B2055534454000000000000000000000000 PUSH1 0x64 DUP3 ADD MSTORE PUSH1 0x84 ADD PUSH2 0x8E9 JUMP JUMPDEST PUSH1 0x40 DUP1 MLOAD PUSH1 0x60 DUP2 ADD DUP3 MSTORE PUSH1 0x1 DUP1 DUP3 MSTORE PUSH1 0x20 DUP1 DUP4 ADD DUP9 DUP2 MSTORE DUP4 DUP6 ADD DUP9 SWAP1 MSTORE CALLER PUSH1 0x0 SWAP1 DUP2 MSTORE PUSH1 0xD DUP9 ADD DUP4 MSTORE SWAP5 SWAP1 SWAP5 KECCAK256 DUP4 MLOAD DUP2 SLOAD PUSH1 0xFF NOT AND SWAP1 ISZERO ISZERO OR DUP2 SSTORE SWAP4 MLOAD DUP1 MLOAD SWAP4 SWAP5 SWAP4 PUSH2 0x2EBE SWAP4 DUP6 ADD SWAP3 SWAP2 SWAP1 SWAP2 ADD SWAP1 PUSH2 0x4481 JUMP JUMPDEST POP PUSH1 0x40 DUP3 ADD MLOAD PUSH1 0x2 DUP3 ADD SWAP1 PUSH2 0x2ED3 SWAP1 DUP3 PUSH2 0x4E89 JUMP JUMPDEST POP POP POP POP JUMPDEST PUSH1 0x40 MLOAD CALLER SWAP1 DUP7 SWAP1 PUSH32 0x7AF8DAB8F5B5481DF3E0D9F1AC4BF4AF4A4E76F28DBA128D6E12201B992BEBBE SWAP1 PUSH1 0x0 SWAP1 LOG3 POP POP POP POP POP JUMP JUMPDEST PUSH1 0x0 DUP2 DUP2 MSTORE PUSH1 0x36 PUSH1 0x20 MSTORE PUSH1 0x40 DUP2 KECCAK256 PUSH1 0x1 ADD SLOAD PUSH1 0x1 PUSH1 0x1 PUSH1 0xA0 SHL SUB AND PUSH2 0x2F43 JUMPI PUSH1 0x40 MLOAD PUSH3 0x461BCD PUSH1 0xE5 SHL DUP2 MSTORE PUSH1 0x4 ADD PUSH2 0x8E9 SWAP1 PUSH2 0x4BCC JUMP JUMPDEST POP PUSH1 0x0 SWAP1 DUP2 MSTORE PUSH1 0x36 PUSH1 0x20 MSTORE PUSH1 0x40 SWAP1 KECCAK256 PUSH1 0x6 ADD SLOAD SWAP1 JUMP JUMPDEST PUSH1 0x0 DUP3 DUP2 MSTORE PUSH1 0x36 PUSH1 0x20 MSTORE PUSH1 0x40 DUP2 KECCAK256 PUSH1 0x1 ADD SLOAD PUSH1 0x1 PUSH1 0x1 PUSH1 0xA0 SHL SUB AND PUSH2 0x2F90 JUMPI PUSH1 0x40 MLOAD PUSH3 0x461BCD PUSH1 0xE5 SHL DUP2 MSTORE PUSH1 0x4 ADD PUSH2 0x8E9 SWAP1 PUSH2 0x4BCC JUMP JUMPDEST PUSH1 0x0 DUP4 DUP2 MSTORE PUSH1 0x36 PUSH1 0x20 MSTORE PUSH1 0x40 SWAP1 KECCAK256 PUSH1 0x2 DUP2 ADD SLOAD DUP4 LT PUSH2 0x2FEB JUMPI PUSH1 0x40 MLOAD PUSH3 0x461BCD PUSH1 0xE5 SHL DUP2 MSTORE PUSH1 0x20 PUSH1 0x4 DUP3 ADD MSTORE PUSH1 0x17 PUSH1 0x24 DUP3 ADD MSTORE PUSH23 0x92DCECC2D8D2C840C2E0E0D8D2C6C2DCE840D2DCC8CAF PUSH1 0x4B SHL PUSH1 0x44 DUP3 ADD MSTORE PUSH1 0x64 ADD PUSH2 0x8E9 JUMP JUMPDEST DUP1 PUSH1 0x2 ADD DUP4 DUP2 SLOAD DUP2 LT PUSH2 0x3000 JUMPI PUSH2 0x3000 PUSH2 0x4CC7 JUMP JUMPDEST PUSH1 0x0 SWAP2 DUP3 MSTORE PUSH1 0x20 SWAP1 SWAP2 KECCAK256 ADD SLOAD PUSH1 0x1 PUSH1 0x1 PUSH1 0xA0 SHL SUB AND SWAP5 SWAP4 POP POP POP POP JUMP JUMPDEST PUSH1 0x0 DUP2 DUP2 MSTORE PUSH1 0x36 PUSH1 0x20 MSTORE PUSH1 0x40 DUP2 KECCAK256 PUSH1 0x1 ADD SLOAD PUSH1 0x1 PUSH1 0x1 PUSH1 0xA0 SHL SUB AND PUSH2 0x3054 JUMPI PUSH1 0x40 MLOAD PUSH3 0x461BCD PUSH1 0xE5 SHL DUP2 MSTORE PUSH1 0x4 ADD PUSH2 0x8E9 SWAP1 PUSH2 0x4BCC JUMP JUMPDEST POP PUSH1 0x0 SWAP1 DUP2 MSTORE PUSH1 0x36 PUSH1 0x20 MSTORE PUSH1 0x40 SWAP1 KECCAK256 PUSH1 0x2 ADD SLOAD SWAP1 JUMP JUMPDEST PUSH1 0x0 DUP3 DUP2 MSTORE PUSH1 0x37 PUSH1 0x20 MSTORE PUSH1 0x40 SWAP1 KECCAK256 DUP1 SLOAD DUP4 EQ PUSH2 0x30C8 JUMPI PUSH1 0x40 MLOAD PUSH3 0x461BCD PUSH1 0xE5 SHL DUP2 MSTORE PUSH1 0x20 PUSH1 0x4 DUP3 ADD MSTORE PUSH1 0x19 PUSH1 0x24 DUP3 ADD MSTORE PUSH32 0x5375626D697373696F6E20646F6573206E6F7420657869737400000000000000 PUSH1 0x44 DUP3 ADD MSTORE PUSH1 0x64 ADD PUSH2 0x8E9 JUMP JUMPDEST PUSH1 0x5 DUP2 ADD SLOAD PUSH1 0xFF AND ISZERO PUSH2 0x30ED JUMPI PUSH1 0x40 MLOAD PUSH3 0x461BCD PUSH1 0xE5 SHL DUP2 MSTORE PUSH1 0x4 ADD PUSH2 0x8E9 SWAP1 PUSH2 0x4CDD JUMP JUMPDEST PUSH1 0x1 DUP1 DUP3 ADD SLOAD PUSH1 0x0 SWAP1 DUP2 MSTORE PUSH1 0x36 PUSH1 0x20 MSTORE PUSH1 0x40 SWAP1 KECCAK256 ADD SLOAD PUSH1 0x1 PUSH1 0x1 PUSH1 0xA0 SHL SUB AND CALLER EQ PUSH2 0x315A JUMPI PUSH1 0x40 MLOAD PUSH3 0x461BCD PUSH1 0xE5 SHL DUP2 MSTORE PUSH1 0x20 PUSH1 0x4 DUP3 ADD MSTORE PUSH1 0x1E PUSH1 0x24 DUP3 ADD MSTORE PUSH32 0x4F6E6C79206A6F622067697665722063616E2072656A65637420776F726B0000 PUSH1 0x44 DUP3 ADD MSTORE PUSH1 0x64 ADD PUSH2 0x8E9 JUMP JUMPDEST PUSH1 0x5 DUP2 ADD DUP1 SLOAD PUSH1 0xFF NOT AND PUSH1 0x2 OR SWAP1 SSTORE PUSH1 0x7 DUP2 ADD PUSH2 0x3177 DUP4 DUP3 PUSH2 0x4E89 JUMP JUMPDEST POP DUP1 PUSH1 0x1 ADD SLOAD DUP4 PUSH32 0x2CC9879E06322808FB5D10C0AC885DE12551E3E854B2CB378581FAC616D5B9E8 DUP5 PUSH1 0x40 MLOAD PUSH2 0x219B SWAP2 SWAP1 PUSH2 0x4920 JUMP JUMPDEST PUSH1 0x0 DUP2 DUP2 MSTORE PUSH1 0x36 PUSH1 0x20 MSTORE PUSH1 0x40 SWAP1 KECCAK256 PUSH1 0x1 ADD SLOAD PUSH1 0x1 PUSH1 0x1 PUSH1 0xA0 SHL SUB AND PUSH2 0x31E4 JUMPI PUSH1 0x40 MLOAD PUSH3 0x461BCD PUSH1 0xE5 SHL DUP2 MSTORE PUSH1 0x4 ADD PUSH2 0x8E9 SWAP1 PUSH2 0x4BCC JUMP JUMPDEST PUSH1 0x0 DUP2 DUP2 MSTORE PUSH1 0x36 PUSH1 0x20 MSTORE PUSH1 0x40 SWAP1 KECCAK256 PUSH1 0x1 DUP2 ADD SLOAD PUSH1 0x1 PUSH1 0x1 PUSH1 0xA0 SHL SUB AND CALLER EQ PUSH2 0x325E JUMPI PUSH1 0x40 MLOAD PUSH3 0x461BCD PUSH1 0xE5 SHL DUP2 MSTORE PUSH1 0x20 PUSH1 0x4 DUP3 ADD MSTORE PUSH1 0x27 PUSH1 0x24 DUP3 ADD MSTORE PUSH32 0x4F6E6C79206A6F622067697665722063616E207374617274206E657874206D69 PUSH1 0x44 DUP3 ADD MSTORE PUSH7 0x6C6573746F6E65 PUSH1 0xC8 SHL PUSH1 0x64 DUP3 ADD MSTORE PUSH1 0x84 ADD PUSH2 0x8E9 JUMP JUMPDEST PUSH1 0x4 DUP2 ADD SLOAD PUSH2 0x100 SWAP1 DIV PUSH1 0xFF AND ISZERO PUSH2 0x3288 JUMPI PUSH1 0x40 MLOAD PUSH3 0x461BCD PUSH1 0xE5 SHL DUP2 MSTORE PUSH1 0x4 ADD PUSH2 0x8E9 SWAP1 PUSH2 0x4BF8 JUMP JUMPDEST PUSH1 0x8 DUP2 ADD SLOAD ISZERO PUSH2 0x32EA JUMPI PUSH1 0x40 MLOAD PUSH3 0x461BCD PUSH1 0xE5 SHL DUP2 MSTORE PUSH1 0x20 PUSH1 0x4 DUP3 ADD MSTORE PUSH1 0x27 PUSH1 0x24 DUP3 ADD MSTORE PUSH32 0x50726576696F7573206D696C6573746F6E65207061796D656E74207374696C6C PUSH1 0x44 DUP3 ADD MSTORE PUSH7 0x81B1BD8DAD959 PUSH1 0xCA SHL PUSH1 0x64 DUP3 ADD MSTORE PUSH1 0x84 ADD PUSH2 0x8E9 JUMP JUMPDEST PUSH1 0x9 DUP2 ADD SLOAD PUSH1 0x6 DUP3 ADD SLOAD DUP2 LT PUSH2 0x3337 JUMPI PUSH1 0x40 MLOAD PUSH3 0x461BCD PUSH1 0xE5 SHL DUP2 MSTORE PUSH1 0x20 PUSH1 0x4 DUP3 ADD MSTORE PUSH1 0x12 PUSH1 0x24 DUP3 ADD MSTORE PUSH18 0x4E6F206D6F7265206D696C6573746F6E6573 PUSH1 0x70 SHL PUSH1 0x44 DUP3 ADD MSTORE PUSH1 0x64 ADD PUSH2 0x8E9 JUMP JUMPDEST PUSH1 0x0 DUP3 PUSH1 0x6 ADD DUP3 DUP2 SLOAD DUP2 LT PUSH2 0x334E JUMPI PUSH2 0x334E PUSH2 0x4CC7 JUMP JUMPDEST SWAP1 PUSH1 0x0 MSTORE PUSH1 0x20 PUSH1 0x0 KECCAK256 ADD SLOAD SWAP1 POP DUP1 CALLVALUE LT ISZERO PUSH2 0x33BC JUMPI PUSH1 0x40 MLOAD PUSH3 0x461BCD PUSH1 0xE5 SHL DUP2 MSTORE PUSH1 0x20 PUSH1 0x4 DUP3 ADD MSTORE PUSH1 0x28 PUSH1 0x24 DUP3 ADD MSTORE PUSH32 0x496E73756666696369656E742066756E647320666F72206D696C6573746F6E65 PUSH1 0x44 DUP3 ADD MSTORE PUSH8 0x81C185E5B595B9D PUSH1 0xC2 SHL PUSH1 0x64 DUP3 ADD MSTORE PUSH1 0x84 ADD PUSH2 0x8E9 JUMP JUMPDEST PUSH2 0x33C7 DUP5 DUP4 DUP4 PUSH2 0x3D37 JUMP JUMPDEST DUP1 CALLVALUE GT ISZERO PUSH2 0x257C JUMPI CALLER PUSH2 0x8FC PUSH2 0x33DD DUP4 CALLVALUE PUSH2 0x4C9B JUMP JUMPDEST PUSH1 0x40 MLOAD DUP2 ISZERO SWAP1 SWAP3 MUL SWAP2 PUSH1 0x0 DUP2 DUP2 DUP2 DUP6 DUP9 DUP9 CALL SWAP4 POP POP POP POP ISZERO DUP1 ISZERO PUSH2 0xCA2 JUMPI RETURNDATASIZE PUSH1 0x0 DUP1 RETURNDATACOPY RETURNDATASIZE PUSH1 0x0 REVERT JUMPDEST PUSH1 0x0 PUSH2 0x3410 CALLER PUSH2 0x3ED0 JUMP JUMPDEST PUSH2 0x345C JUMPI PUSH1 0x40 MLOAD PUSH3 0x461BCD PUSH1 0xE5 SHL DUP2 MSTORE PUSH1 0x20 PUSH1 0x4 DUP3 ADD MSTORE PUSH1 0x1B PUSH1 0x24 DUP3 ADD MSTORE PUSH32 0x557365722070726F66696C6520646F6573206E6F742065786973740000000000 PUSH1 0x44 DUP3 ADD MSTORE PUSH1 0x64 ADD PUSH2 0x8E9 JUMP JUMPDEST PUSH1 0x0 DUP4 MLOAD GT PUSH2 0x34AD JUMPI PUSH1 0x40 MLOAD PUSH3 0x461BCD PUSH1 0xE5 SHL DUP2 MSTORE PUSH1 0x20 PUSH1 0x4 DUP3 ADD MSTORE PUSH1 0x19 PUSH1 0x24 DUP3 ADD MSTORE PUSH32 0x4950465320686173682063616E6E6F7420626520656D70747900000000000000 PUSH1 0x44 DUP3 ADD MSTORE PUSH1 0x64 ADD PUSH2 0x8E9 JUMP JUMPDEST PUSH1 0x0 DUP3 MLOAD GT PUSH2 0x34FE JUMPI PUSH1 0x40 MLOAD PUSH3 0x461BCD PUSH1 0xE5 SHL DUP2 MSTORE PUSH1 0x20 PUSH1 0x4 DUP3 ADD DUP2 SWAP1 MSTORE PUSH1 0x24 DUP3 ADD MSTORE PUSH32 0x4D7573742068617665206174206C65617374206F6E65206D696C6573746F6E65 PUSH1 0x44 DUP3 ADD MSTORE PUSH1 0x64 ADD PUSH2 0x8E9 JUMP JUMPDEST PUSH1 0x0 PUSH2 0x3509 PUSH1 0x32 SLOAD SWAP1 JUMP JUMPDEST SWAP1 POP PUSH2 0x3519 PUSH1 0x32 DUP1 SLOAD PUSH1 0x1 ADD SWAP1 SSTORE JUMP JUMPDEST PUSH1 0x0 DUP2 DUP2 MSTORE PUSH1 0x36 PUSH1 0x20 MSTORE PUSH1 0x40 DUP2 KECCAK256 DUP3 DUP2 SSTORE PUSH1 0x1 DUP2 ADD DUP1 SLOAD PUSH1 0x1 PUSH1 0x1 PUSH1 0xA0 SHL SUB NOT AND CALLER OR SWAP1 SSTORE TIMESTAMP PUSH1 0xB DUP3 ADD SSTORE PUSH1 0x9 DUP2 ADD DUP3 SWAP1 SSTORE PUSH1 0x7 DUP2 ADD DUP3 SWAP1 SSTORE PUSH1 0x8 DUP2 ADD SWAP2 SWAP1 SWAP2 SSTORE PUSH1 0x4 DUP2 ADD DUP1 SLOAD PUSH2 0xFF00 NOT AND SWAP1 SSTORE PUSH2 0x3571 DUP3 DUP7 PUSH2 0x3F66 JUMP JUMPDEST PUSH2 0x357B DUP3 DUP6 PUSH2 0x3FD2 JUMP JUMPDEST PUSH2 0x359D DUP3 PUSH1 0x0 SWAP1 DUP2 MSTORE PUSH1 0x36 PUSH1 0x20 MSTORE PUSH1 0x40 SWAP1 KECCAK256 PUSH1 0x4 ADD DUP1 SLOAD PUSH1 0xFF NOT AND PUSH1 0x1 OR SWAP1 SSTORE JUMP JUMPDEST PUSH1 0x0 DUP1 JUMPDEST DUP6 MLOAD DUP2 LT ISZERO PUSH2 0x35D9 JUMPI DUP6 DUP2 DUP2 MLOAD DUP2 LT PUSH2 0x35BC JUMPI PUSH2 0x35BC PUSH2 0x4CC7 JUMP JUMPDEST PUSH1 0x20 MUL PUSH1 0x20 ADD ADD MLOAD DUP3 PUSH2 0x35CF SWAP2 SWAP1 PUSH2 0x4C88 JUMP JUMPDEST SWAP2 POP PUSH1 0x1 ADD PUSH2 0x35A1 JUMP JUMPDEST POP CALLER PUSH1 0x1 PUSH1 0x1 PUSH1 0xA0 SHL SUB AND DUP4 PUSH32 0xE2664FF85ACBEFCE4793E83FE4A10E88680B3172A3E401C7946D7CFB8F19EBDB DUP9 DUP5 PUSH1 0x40 MLOAD PUSH2 0x3616 SWAP3 SWAP2 SWAP1 PUSH2 0x4F48 JUMP JUMPDEST PUSH1 0x40 MLOAD DUP1 SWAP2 SUB SWAP1 LOG3 POP SWAP1 SWAP5 SWAP4 POP POP POP POP JUMP JUMPDEST PUSH2 0x3630 PUSH2 0x3DDB JUMP JUMPDEST PUSH1 0x1 PUSH1 0x1 PUSH1 0xA0 SHL SUB DUP2 AND PUSH2 0x365A JUMPI PUSH1 0x40 MLOAD PUSH4 0x1E4FBDF7 PUSH1 0xE0 SHL DUP2 MSTORE PUSH1 0x0 PUSH1 0x4 DUP3 ADD MSTORE PUSH1 0x24 ADD PUSH2 0x8E9 JUMP JUMPDEST PUSH2 0x3663 DUP2 PUSH2 0x3E0D JUMP JUMPDEST POP JUMP JUMPDEST PUSH1 0x0 DUP4 DUP2 MSTORE PUSH1 0x36 PUSH1 0x20 MSTORE PUSH1 0x40 DUP2 KECCAK256 PUSH1 0x1 ADD SLOAD PUSH1 0x1 PUSH1 0x1 PUSH1 0xA0 SHL SUB AND PUSH2 0x369D JUMPI PUSH1 0x40 MLOAD PUSH3 0x461BCD PUSH1 0xE5 SHL DUP2 MSTORE PUSH1 0x4 ADD PUSH2 0x8E9 SWAP1 PUSH2 0x4BCC JUMP JUMPDEST PUSH1 0x0 DUP5 DUP2 MSTORE PUSH1 0x36 PUSH1 0x20 MSTORE PUSH1 0x40 SWAP1 KECCAK256 PUSH1 0x4 DUP2 ADD SLOAD PUSH1 0xFF AND ISZERO PUSH2 0x3714 JUMPI PUSH1 0x40 MLOAD PUSH3 0x461BCD PUSH1 0xE5 SHL DUP2 MSTORE PUSH1 0x20 PUSH1 0x4 DUP3 ADD MSTORE PUSH1 0x2B PUSH1 0x24 DUP3 ADD MSTORE PUSH32 0x4A6F62206D7573742062652061737369676E6564206265666F7265207375626D PUSH1 0x44 DUP3 ADD MSTORE PUSH11 0x697474696E6720776F726B PUSH1 0xA8 SHL PUSH1 0x64 DUP3 ADD MSTORE PUSH1 0x84 ADD PUSH2 0x8E9 JUMP JUMPDEST PUSH1 0x4 DUP2 ADD SLOAD PUSH2 0x100 SWAP1 DIV PUSH1 0xFF AND ISZERO PUSH2 0x373E JUMPI PUSH1 0x40 MLOAD PUSH3 0x461BCD PUSH1 0xE5 SHL DUP2 MSTORE PUSH1 0x4 ADD PUSH2 0x8E9 SWAP1 PUSH2 0x4BF8 JUMP JUMPDEST PUSH1 0xA DUP2 ADD SLOAD PUSH1 0x1 PUSH1 0x1 PUSH1 0xA0 SHL SUB AND CALLER EQ PUSH2 0x37AF JUMPI PUSH1 0x40 MLOAD PUSH3 0x461BCD PUSH1 0xE5 SHL DUP2 MSTORE PUSH1 0x20 PUSH1 0x4 DUP3 ADD MSTORE PUSH1 0x2C PUSH1 0x24 DUP3 ADD MSTORE PUSH32 0x4F6E6C79207468652061737369676E656420667265656C616E6365722063616E PUSH1 0x44 DUP3 ADD MSTORE PUSH12 0x207375626D697420776F726B PUSH1 0xA0 SHL PUSH1 0x64 DUP3 ADD MSTORE PUSH1 0x84 ADD PUSH2 0x8E9 JUMP JUMPDEST PUSH1 0x0 DUP5 MLOAD GT PUSH2 0x3800 JUMPI PUSH1 0x40 MLOAD PUSH3 0x461BCD PUSH1 0xE5 SHL DUP2 MSTORE PUSH1 0x20 PUSH1 0x4 DUP3 ADD MSTORE PUSH1 0x19 PUSH1 0x24 DUP3 ADD MSTORE PUSH32 0x576F726B20686173682063616E6E6F7420626520656D70747900000000000000 PUSH1 0x44 DUP3 ADD MSTORE PUSH1 0x64 ADD PUSH2 0x8E9 JUMP JUMPDEST PUSH1 0x0 PUSH2 0x380B PUSH1 0x33 SLOAD SWAP1 JUMP JUMPDEST SWAP1 POP PUSH2 0x381B PUSH1 0x33 DUP1 SLOAD PUSH1 0x1 ADD SWAP1 SSTORE JUMP JUMPDEST PUSH1 0x0 DUP2 DUP2 MSTORE PUSH1 0x37 PUSH1 0x20 MSTORE PUSH1 0x40 SWAP1 KECCAK256 DUP2 DUP2 SSTORE PUSH1 0x1 DUP2 ADD DUP8 SWAP1 SSTORE PUSH1 0x2 DUP2 ADD DUP1 SLOAD PUSH1 0x1 PUSH1 0x1 PUSH1 0xA0 SHL SUB NOT AND CALLER OR SWAP1 SSTORE PUSH1 0x3 DUP2 ADD PUSH2 0x3855 DUP8 DUP3 PUSH2 0x4E89 JUMP JUMPDEST POP PUSH1 0x4 DUP2 ADD PUSH2 0x3864 DUP7 DUP3 PUSH2 0x4E89 JUMP JUMPDEST POP PUSH1 0x5 DUP1 DUP3 ADD DUP1 SLOAD PUSH1 0xFF NOT AND SWAP1 SSTORE TIMESTAMP PUSH1 0x6 DUP4 ADD SSTORE DUP4 ADD DUP1 SLOAD PUSH1 0x1 DUP2 ADD DUP3 SSTORE PUSH1 0x0 SWAP2 DUP3 MSTORE PUSH1 0x20 SWAP1 SWAP2 KECCAK256 ADD PUSH2 0x3897 DUP8 DUP3 PUSH2 0x4E89 JUMP JUMPDEST POP PUSH1 0x40 MLOAD CALLER SWAP1 DUP9 SWAP1 DUP5 SWAP1 PUSH32 0xF15792963411EA93D0DD51152416E388CB5A06C4CBC876BE63620A5795BD340C SWAP1 PUSH1 0x0 SWAP1 LOG4 POP SWAP2 POP POP JUMPDEST SWAP4 SWAP3 POP POP POP JUMP JUMPDEST PUSH1 0x0 DUP3 DUP2 MSTORE PUSH1 0x36 PUSH1 0x20 MSTORE PUSH1 0x40 SWAP1 KECCAK256 PUSH1 0x1 ADD SLOAD PUSH1 0x1 PUSH1 0x1 PUSH1 0xA0 SHL SUB AND PUSH2 0x390A JUMPI PUSH1 0x40 MLOAD PUSH3 0x461BCD PUSH1 0xE5 SHL DUP2 MSTORE PUSH1 0x4 ADD PUSH2 0x8E9 SWAP1 PUSH2 0x4BCC JUMP JUMPDEST PUSH1 0x0 DUP3 DUP2 MSTORE PUSH1 0x36 PUSH1 0x20 MSTORE PUSH1 0x40 SWAP1 KECCAK256 PUSH1 0x1 ADD SLOAD PUSH1 0x1 PUSH1 0x1 PUSH1 0xA0 SHL SUB AND CALLER EQ PUSH2 0x3943 JUMPI PUSH1 0x40 MLOAD PUSH3 0x461BCD PUSH1 0xE5 SHL DUP2 MSTORE PUSH1 0x4 ADD PUSH2 0x8E9 SWAP1 PUSH2 0x4D76 JUMP JUMPDEST PUSH2 0x394F DUP3 DUP3 PUSH1 0x0 PUSH2 0x3B3B JUMP JUMPDEST PUSH1 0x0 DUP3 DUP2 MSTORE PUSH1 0x36 PUSH1 0x20 MSTORE PUSH1 0x40 DUP2 KECCAK256 PUSH1 0x6 DUP2 ADD DUP1 SLOAD SWAP2 SWAP3 SWAP2 DUP3 SWAP1 PUSH2 0x3974 JUMPI PUSH2 0x3974 PUSH2 0x4CC7 JUMP JUMPDEST SWAP1 PUSH1 0x0 MSTORE PUSH1 0x20 PUSH1 0x0 KECCAK256 ADD SLOAD SWAP1 POP DUP1 CALLVALUE LT ISZERO PUSH2 0x39A1 JUMPI PUSH1 0x40 MLOAD PUSH3 0x461BCD PUSH1 0xE5 SHL DUP2 MSTORE PUSH1 0x4 ADD PUSH2 0x8E9 SWAP1 PUSH2 0x4DB7 JUMP JUMPDEST PUSH2 0x33C7 DUP5 PUSH1 0x0 DUP4 PUSH2 0x3D37 JUMP JUMPDEST ADDRESS PUSH1 0x1 PUSH1 0x1 PUSH1 0xA0 SHL SUB PUSH32 0x0 AND EQ DUP1 PUSH2 0x3A46 JUMPI POP PUSH32 0x0 PUSH1 0x1 PUSH1 0x1 PUSH1 0xA0 SHL SUB AND PUSH2 0x3A3A PUSH32 0x360894A13BA1A3210667C828492DB98DCA3E2076CC3735A920A3CA505D382BBC SLOAD PUSH1 0x1 PUSH1 0x1 PUSH1 0xA0 SHL SUB AND SWAP1 JUMP JUMPDEST PUSH1 0x1 PUSH1 0x1 PUSH1 0xA0 SHL SUB AND EQ ISZERO JUMPDEST ISZERO PUSH2 0x18A7 JUMPI PUSH1 0x40 MLOAD PUSH4 0x703E46DD PUSH1 0xE1 SHL DUP2 MSTORE PUSH1 0x4 ADD PUSH1 0x40 MLOAD DUP1 SWAP2 SUB SWAP1 REVERT JUMPDEST PUSH2 0x3663 PUSH2 0x3DDB JUMP JUMPDEST DUP2 PUSH1 0x1 PUSH1 0x1 PUSH1 0xA0 SHL SUB AND PUSH4 0x52D1902D PUSH1 0x40 MLOAD DUP2 PUSH4 0xFFFFFFFF AND PUSH1 0xE0 SHL DUP2 MSTORE PUSH1 0x4 ADD PUSH1 0x20 PUSH1 0x40 MLOAD DUP1 DUP4 SUB DUP2 DUP7 GAS STATICCALL SWAP3 POP POP POP DUP1 ISZERO PUSH2 0x3AC6 JUMPI POP PUSH1 0x40 DUP1 MLOAD PUSH1 0x1F RETURNDATASIZE SWAP1 DUP2 ADD PUSH1 0x1F NOT AND DUP3 ADD SWAP1 SWAP3 MSTORE PUSH2 0x3AC3 SWAP2 DUP2 ADD SWAP1 PUSH2 0x4D23 JUMP JUMPDEST PUSH1 0x1 JUMPDEST PUSH2 0x3AEE JUMPI PUSH1 0x40 MLOAD PUSH4 0x4C9C8CE3 PUSH1 0xE0 SHL DUP2 MSTORE PUSH1 0x1 PUSH1 0x1 PUSH1 0xA0 SHL SUB DUP4 AND PUSH1 0x4 DUP3 ADD MSTORE PUSH1 0x24 ADD PUSH2 0x8E9 JUMP JUMPDEST PUSH32 0x360894A13BA1A3210667C828492DB98DCA3E2076CC3735A920A3CA505D382BBC DUP2 EQ PUSH2 0x3B31 JUMPI PUSH1 0x40 MLOAD PUSH4 0x2A875269 PUSH1 0xE2 SHL DUP2 MSTORE PUSH1 0x4 DUP2 ADD DUP3 SWAP1 MSTORE PUSH1 0x24 ADD PUSH2 0x8E9 JUMP JUMPDEST PUSH2 0xFA0 DUP4 DUP4 PUSH2 0x41DA JUMP JUMPDEST PUSH1 0x0 DUP4 DUP2 MSTORE PUSH1 0x36 PUSH1 0x20 MSTORE PUSH1 0x40 DUP2 KECCAK256 SWAP1 DUP1 JUMPDEST PUSH1 0x2 DUP4 ADD SLOAD DUP2 LT ISZERO PUSH2 0x3BA2 JUMPI DUP5 PUSH1 0x1 PUSH1 0x1 PUSH1 0xA0 SHL SUB AND DUP4 PUSH1 0x2 ADD DUP3 DUP2 SLOAD DUP2 LT PUSH2 0x3B77 JUMPI PUSH2 0x3B77 PUSH2 0x4CC7 JUMP JUMPDEST PUSH1 0x0 SWAP2 DUP3 MSTORE PUSH1 0x20 SWAP1 SWAP2 KECCAK256 ADD SLOAD PUSH1 0x1 PUSH1 0x1 PUSH1 0xA0 SHL SUB AND SUB PUSH2 0x3B9A JUMPI PUSH1 0x1 SWAP2 POP PUSH2 0x3BA2 JUMP JUMPDEST PUSH1 0x1 ADD PUSH2 0x3B4C JUMP JUMPDEST POP DUP1 PUSH2 0x3BFF JUMPI PUSH1 0x40 MLOAD PUSH3 0x461BCD PUSH1 0xE5 SHL DUP2 MSTORE PUSH1 0x20 PUSH1 0x4 DUP3 ADD MSTORE PUSH1 0x26 PUSH1 0x24 DUP3 ADD MSTORE PUSH32 0x4170706C6963616E7420686173206E6F74206170706C69656420666F72207468 PUSH1 0x44 DUP3 ADD MSTORE PUSH6 0x34B9903537B1 PUSH1 0xD1 SHL PUSH1 0x64 DUP3 ADD MSTORE PUSH1 0x84 ADD PUSH2 0x8E9 JUMP JUMPDEST DUP3 DUP1 ISZERO PUSH2 0x3C26 JUMPI POP PUSH1 0x1 PUSH1 0x1 PUSH1 0xA0 SHL SUB DUP5 AND PUSH1 0x0 SWAP1 DUP2 MSTORE PUSH1 0xD DUP4 ADD PUSH1 0x20 MSTORE PUSH1 0x40 SWAP1 KECCAK256 SLOAD PUSH1 0xFF AND JUMPDEST ISZERO PUSH2 0x3CE4 JUMPI PUSH2 0x3CAD DUP6 DUP4 PUSH1 0xD ADD PUSH1 0x0 DUP8 PUSH1 0x1 PUSH1 0x1 PUSH1 0xA0 SHL SUB AND PUSH1 0x1 PUSH1 0x1 PUSH1 0xA0 SHL SUB AND DUP2 MSTORE PUSH1 0x20 ADD SWAP1 DUP2 MSTORE PUSH1 0x20 ADD PUSH1 0x0 KECCAK256 PUSH1 0x1 ADD DUP1 SLOAD DUP1 PUSH1 0x20 MUL PUSH1 0x20 ADD PUSH1 0x40 MLOAD SWAP1 DUP2 ADD PUSH1 0x40 MSTORE DUP1 SWAP3 SWAP2 SWAP1 DUP2 DUP2 MSTORE PUSH1 0x20 ADD DUP3 DUP1 SLOAD DUP1 ISZERO PUSH2 0x3CA3 JUMPI PUSH1 0x20 MUL DUP3 ADD SWAP2 SWAP1 PUSH1 0x0 MSTORE PUSH1 0x20 PUSH1 0x0 KECCAK256 SWAP1 JUMPDEST DUP2 SLOAD DUP2 MSTORE PUSH1 0x20 ADD SWAP1 PUSH1 0x1 ADD SWAP1 DUP1 DUP4 GT PUSH2 0x3C8F JUMPI JUMPDEST POP POP POP POP POP PUSH2 0x3FD2 JUMP JUMPDEST PUSH1 0x40 MLOAD PUSH1 0x1 PUSH1 0x1 PUSH1 0xA0 SHL SUB DUP6 AND SWAP1 DUP7 SWAP1 PUSH32 0xB5DF2BDAE97966C51E5F15C7CDECE887DE27F5E0583A0069C0227767D52F345 SWAP1 PUSH1 0x0 SWAP1 LOG3 JUMPDEST PUSH2 0xCA2 DUP6 DUP6 PUSH2 0x4230 JUMP JUMPDEST ADDRESS PUSH1 0x1 PUSH1 0x1 PUSH1 0xA0 SHL SUB PUSH32 0x0 AND EQ PUSH2 0x18A7 JUMPI PUSH1 0x40 MLOAD PUSH4 0x703E46DD PUSH1 0xE1 SHL DUP2 MSTORE PUSH1 0x4 ADD PUSH1 0x40 MLOAD DUP1 SWAP2 SUB SWAP1 REVERT JUMPDEST PUSH1 0x0 DUP4 DUP2 MSTORE PUSH1 0x36 PUSH1 0x20 MSTORE PUSH1 0x40 SWAP1 KECCAK256 PUSH1 0x6 ADD SLOAD DUP3 LT PUSH2 0x3D91 JUMPI PUSH1 0x40 MLOAD PUSH3 0x461BCD PUSH1 0xE5 SHL DUP2 MSTORE PUSH1 0x20 PUSH1 0x4 DUP3 ADD MSTORE PUSH1 0x17 PUSH1 0x24 DUP3 ADD MSTORE PUSH23 0x92DCECC2D8D2C840DAD2D8CAE6E8DEDCCA40D2DCC8CAF PUSH1 0x4B SHL PUSH1 0x44 DUP3 ADD MSTORE PUSH1 0x64 ADD PUSH2 0x8E9 JUMP JUMPDEST PUSH1 0x0 DUP4 DUP2 MSTORE PUSH1 0x36 PUSH1 0x20 MSTORE PUSH1 0x40 SWAP1 DUP2 SWAP1 KECCAK256 PUSH1 0x8 ADD DUP3 SWAP1 SSTORE MLOAD DUP3 SWAP1 DUP5 SWAP1 PUSH32 0xE60846A8F6E10630B3D17D79F8AA4962E7A3ABE024C788262EC30BC55D17B797 SWAP1 PUSH2 0x219B SWAP1 DUP6 DUP2 MSTORE PUSH1 0x20 ADD SWAP1 JUMP JUMPDEST CALLER PUSH2 0x3DE4 PUSH2 0x1F51 JUMP JUMPDEST PUSH1 0x1 PUSH1 0x1 PUSH1 0xA0 SHL SUB AND EQ PUSH2 0x18A7 JUMPI PUSH1 0x40 MLOAD PUSH4 0x118CDAA7 PUSH1 0xE0 SHL DUP2 MSTORE CALLER PUSH1 0x4 DUP3 ADD MSTORE PUSH1 0x24 ADD PUSH2 0x8E9 JUMP JUMPDEST PUSH32 0x9016D09D72D40FDAE2FD8CEAC6B6234C7706214FD39C1CD1E609A0528C199300 DUP1 SLOAD PUSH1 0x1 PUSH1 0x1 PUSH1 0xA0 SHL SUB NOT DUP2 AND PUSH1 0x1 PUSH1 0x1 PUSH1 0xA0 SHL SUB DUP5 DUP2 AND SWAP2 DUP3 OR DUP5 SSTORE PUSH1 0x40 MLOAD SWAP3 AND SWAP2 DUP3 SWAP1 PUSH32 0x8BE0079C531659141344CD1FD0A4F28419497F9722A3DAAFE3B4186F6B6457E0 SWAP1 PUSH1 0x0 SWAP1 LOG3 POP POP POP JUMP JUMPDEST PUSH1 0x0 DUP1 PUSH32 0xF0C57E16840DF040F15088DC2F81FE391C3923BEC73E23A9662EFC9C229C6A00 PUSH2 0x8AC JUMP JUMPDEST PUSH2 0x3EAF PUSH2 0x429A JUMP JUMPDEST PUSH2 0x3663 DUP2 PUSH2 0x42BF JUMP JUMPDEST PUSH2 0x18A7 PUSH2 0x429A JUMP JUMPDEST PUSH2 0x3EC8 PUSH2 0x429A JUMP JUMPDEST PUSH2 0x18A7 PUSH2 0x42C7 JUMP JUMPDEST PUSH1 0x0 PUSH2 0x3EE6 PUSH1 0x35 SLOAD PUSH1 0x1 PUSH1 0x1 PUSH1 0xA0 SHL SUB AND ISZERO ISZERO SWAP1 JUMP JUMPDEST ISZERO PUSH2 0x3F59 JUMPI PUSH1 0x35 SLOAD PUSH1 0x40 MLOAD PUSH4 0xE666E49 PUSH1 0xE0 SHL DUP2 MSTORE PUSH1 0x1 PUSH1 0x1 PUSH1 0xA0 SHL SUB DUP5 DUP2 AND PUSH1 0x4 DUP4 ADD MSTORE SWAP1 SWAP2 AND SWAP1 PUSH4 0xE666E49 SWAP1 PUSH1 0x24 ADD PUSH1 0x20 PUSH1 0x40 MLOAD DUP1 DUP4 SUB DUP2 DUP7 GAS STATICCALL ISZERO DUP1 ISZERO PUSH2 0x3F35 JUMPI RETURNDATASIZE PUSH1 0x0 DUP1 RETURNDATACOPY RETURNDATASIZE PUSH1 0x0 REVERT JUMPDEST POP POP POP POP PUSH1 0x40 MLOAD RETURNDATASIZE PUSH1 0x1F NOT PUSH1 0x1F DUP3 ADD AND DUP3 ADD DUP1 PUSH1 0x40 MSTORE POP DUP2 ADD SWAP1 PUSH2 0x8AC SWAP2 SWAP1 PUSH2 0x4F6A JUMP JUMPDEST POP PUSH1 0x1 SWAP2 SWAP1 POP JUMP JUMPDEST SWAP2 SWAP1 POP JUMP JUMPDEST PUSH1 0x0 DUP2 MLOAD GT PUSH2 0x3FB7 JUMPI PUSH1 0x40 MLOAD PUSH3 0x461BCD PUSH1 0xE5 SHL DUP2 MSTORE PUSH1 0x20 PUSH1 0x4 DUP3 ADD MSTORE PUSH1 0x1F PUSH1 0x24 DUP3 ADD MSTORE PUSH32 0x4A6F622064657461696C20686173682063616E6E6F7420626520656D70747900 PUSH1 0x44 DUP3 ADD MSTORE PUSH1 0x64 ADD PUSH2 0x8E9 JUMP JUMPDEST PUSH1 0x0 DUP3 DUP2 MSTORE PUSH1 0x36 PUSH1 0x20 MSTORE PUSH1 0x40 SWAP1 KECCAK256 PUSH1 0x3 ADD PUSH2 0xFA0 DUP3 DUP3 PUSH2 0x4E89 JUMP JUMPDEST PUSH1 0x0 DUP2 MLOAD GT PUSH2 0x4034 JUMPI PUSH1 0x40 MLOAD PUSH3 0x461BCD PUSH1 0xE5 SHL DUP2 MSTORE PUSH1 0x20 PUSH1 0x4 DUP3 ADD MSTORE PUSH1 0x28 PUSH1 0x24 DUP3 ADD MSTORE PUSH32 0x4D7573742068617665206174206C65617374206F6E65206D696C6573746F6E65 PUSH1 0x44 DUP3 ADD MSTORE PUSH8 0x81C185E5B595B9D PUSH1 0xC2 SHL PUSH1 0x64 DUP3 ADD MSTORE PUSH1 0x84 ADD PUSH2 0x8E9 JUMP JUMPDEST PUSH1 0x0 DUP1 JUMPDEST DUP3 MLOAD DUP2 LT ISZERO PUSH2 0x40EA JUMPI PUSH1 0x0 DUP4 DUP3 DUP2 MLOAD DUP2 LT PUSH2 0x4055 JUMPI PUSH2 0x4055 PUSH2 0x4CC7 JUMP JUMPDEST PUSH1 0x20 MUL PUSH1 0x20 ADD ADD MLOAD GT PUSH2 0x40BB JUMPI PUSH1 0x40 MLOAD PUSH3 0x461BCD PUSH1 0xE5 SHL DUP2 MSTORE PUSH1 0x20 PUSH1 0x4 DUP3 ADD MSTORE PUSH1 0x28 PUSH1 0x24 DUP3 ADD MSTORE PUSH32 0x4D696C6573746F6E65207061796D656E74206D75737420626520677265617465 PUSH1 0x44 DUP3 ADD MSTORE PUSH8 0x72207468616E203 PUSH1 0xC4 SHL PUSH1 0x64 DUP3 ADD MSTORE PUSH1 0x84 ADD PUSH2 0x8E9 JUMP JUMPDEST DUP3 DUP2 DUP2 MLOAD DUP2 LT PUSH2 0x40CD JUMPI PUSH2 0x40CD PUSH2 0x4CC7 JUMP JUMPDEST PUSH1 0x20 MUL PUSH1 0x20 ADD ADD MLOAD DUP3 PUSH2 0x40E0 SWAP2 SWAP1 PUSH2 0x4C88 JUMP JUMPDEST SWAP2 POP PUSH1 0x1 ADD PUSH2 0x4038 JUMP JUMPDEST POP PUSH1 0x0 DUP2 GT PUSH2 0x4147 JUMPI PUSH1 0x40 MLOAD PUSH3 0x461BCD PUSH1 0xE5 SHL DUP2 MSTORE PUSH1 0x20 PUSH1 0x4 DUP3 ADD MSTORE PUSH1 0x24 DUP1 DUP3 ADD MSTORE PUSH32 0x546F74616C207061796D656E74206D7573742062652067726561746572207468 PUSH1 0x44 DUP3 ADD MSTORE PUSH4 0x616E203 PUSH1 0xE4 SHL PUSH1 0x64 DUP3 ADD MSTORE PUSH1 0x84 ADD PUSH2 0x8E9 JUMP JUMPDEST PUSH10 0x21E19E0C9BAB2400000 DUP2 GT ISZERO PUSH2 0x41B5 JUMPI PUSH1 0x40 MLOAD PUSH3 0x461BCD PUSH1 0xE5 SHL DUP2 MSTORE PUSH1 0x20 PUSH1 0x4 DUP3 ADD MSTORE PUSH1 0x2B PUSH1 0x24 DUP3 ADD MSTORE PUSH32 0x4A6F622076616C75652065786365656473206D6178696D756D206C696D697420 PUSH1 0x44 DUP3 ADD MSTORE PUSH11 0x1BD9880C4C12C81554D115 PUSH1 0xAA SHL PUSH1 0x64 DUP3 ADD MSTORE PUSH1 0x84 ADD PUSH2 0x8E9 JUMP JUMPDEST PUSH1 0x0 DUP4 DUP2 MSTORE PUSH1 0x36 PUSH1 0x20 SWAP1 DUP2 MSTORE PUSH1 0x40 SWAP1 SWAP2 KECCAK256 DUP4 MLOAD PUSH2 0x257C SWAP3 PUSH1 0x6 SWAP1 SWAP3 ADD SWAP2 DUP6 ADD SWAP1 PUSH2 0x4481 JUMP JUMPDEST PUSH2 0x41E3 DUP3 PUSH2 0x42D6 JUMP JUMPDEST PUSH1 0x40 MLOAD PUSH1 0x1 PUSH1 0x1 PUSH1 0xA0 SHL SUB DUP4 AND SWAP1 PUSH32 0xBC7CD75A20EE27FD9ADEBAB32041F755214DBC6BFFA90CC0225B39DA2E5C2D3B SWAP1 PUSH1 0x0 SWAP1 LOG2 DUP1 MLOAD ISZERO PUSH2 0x4228 JUMPI PUSH2 0xFA0 DUP3 DUP3 PUSH2 0x434D JUMP JUMPDEST PUSH2 0xFAF PUSH2 0x43C3 JUMP JUMPDEST PUSH1 0x0 DUP3 DUP2 MSTORE PUSH1 0x36 PUSH1 0x20 MSTORE PUSH1 0x40 DUP1 DUP3 KECCAK256 PUSH1 0xA DUP2 ADD DUP1 SLOAD PUSH1 0x1 PUSH1 0x1 PUSH1 0xA0 SHL SUB NOT AND PUSH1 0x1 PUSH1 0x1 PUSH1 0xA0 SHL SUB DUP7 AND SWAP1 DUP2 OR SWAP1 SWAP2 SSTORE PUSH1 0x4 SWAP1 SWAP2 ADD DUP1 SLOAD PUSH1 0xFF NOT AND SWAP1 SSTORE SWAP1 MLOAD SWAP1 SWAP2 DUP5 SWAP2 PUSH32 0x3738A681A43A0B6A554742A08BAE57E0215E8A774217DC2E7DE6C9411B6D0DDC SWAP2 SWAP1 LOG3 POP POP JUMP JUMPDEST PUSH2 0x42A2 PUSH2 0x43E2 JUMP JUMPDEST PUSH2 0x18A7 JUMPI PUSH1 0x40 MLOAD PUSH4 0x1AFCD79F PUSH1 0xE3 SHL DUP2 MSTORE PUSH1 0x4 ADD PUSH1 0x40 MLOAD DUP1 SWAP2 SUB SWAP1 REVERT JUMPDEST PUSH2 0x3630 PUSH2 0x429A JUMP JUMPDEST PUSH2 0x42CF PUSH2 0x429A JUMP JUMPDEST PUSH1 0x1 PUSH1 0x0 SSTORE JUMP JUMPDEST DUP1 PUSH1 0x1 PUSH1 0x1 PUSH1 0xA0 SHL SUB AND EXTCODESIZE PUSH1 0x0 SUB PUSH2 0x430C JUMPI PUSH1 0x40 MLOAD PUSH4 0x4C9C8CE3 PUSH1 0xE0 SHL DUP2 MSTORE PUSH1 0x1 PUSH1 0x1 PUSH1 0xA0 SHL SUB DUP3 AND PUSH1 0x4 DUP3 ADD MSTORE PUSH1 0x24 ADD PUSH2 0x8E9 JUMP JUMPDEST PUSH32 0x360894A13BA1A3210667C828492DB98DCA3E2076CC3735A920A3CA505D382BBC DUP1 SLOAD PUSH1 0x1 PUSH1 0x1 PUSH1 0xA0 SHL SUB NOT AND PUSH1 0x1 PUSH1 0x1 PUSH1 0xA0 SHL SUB SWAP3 SWAP1 SWAP3 AND SWAP2 SWAP1 SWAP2 OR SWAP1 SSTORE JUMP JUMPDEST PUSH1 0x60 PUSH1 0x0 DUP1 DUP5 PUSH1 0x1 PUSH1 0x1 PUSH1 0xA0 SHL SUB AND DUP5 PUSH1 0x40 MLOAD PUSH2 0x436A SWAP2 SWAP1 PUSH2 0x4F87 JUMP JUMPDEST PUSH1 0x0 PUSH1 0x40 MLOAD DUP1 DUP4 SUB DUP2 DUP6 GAS DELEGATECALL SWAP2 POP POP RETURNDATASIZE DUP1 PUSH1 0x0 DUP2 EQ PUSH2 0x43A5 JUMPI PUSH1 0x40 MLOAD SWAP2 POP PUSH1 0x1F NOT PUSH1 0x3F RETURNDATASIZE ADD AND DUP3 ADD PUSH1 0x40 MSTORE RETURNDATASIZE DUP3 MSTORE RETURNDATASIZE PUSH1 0x0 PUSH1 0x20 DUP5 ADD RETURNDATACOPY PUSH2 0x43AA JUMP JUMPDEST PUSH1 0x60 SWAP2 POP JUMPDEST POP SWAP2 POP SWAP2 POP PUSH2 0x43BA DUP6 DUP4 DUP4 PUSH2 0x43FC JUMP JUMPDEST SWAP6 SWAP5 POP POP POP POP POP JUMP JUMPDEST CALLVALUE ISZERO PUSH2 0x18A7 JUMPI PUSH1 0x40 MLOAD PUSH4 0xB398979F PUSH1 0xE0 SHL DUP2 MSTORE PUSH1 0x4 ADD PUSH1 0x40 MLOAD DUP1 SWAP2 SUB SWAP1 REVERT JUMPDEST PUSH1 0x0 PUSH2 0x43EC PUSH2 0x3E7E JUMP JUMPDEST SLOAD PUSH1 0x1 PUSH1 0x40 SHL SWAP1 DIV PUSH1 0xFF AND SWAP2 SWAP1 POP JUMP JUMPDEST PUSH1 0x60 DUP3 PUSH2 0x4411 JUMPI PUSH2 0x440C DUP3 PUSH2 0x4458 JUMP JUMPDEST PUSH2 0x38CC JUMP JUMPDEST DUP2 MLOAD ISZERO DUP1 ISZERO PUSH2 0x4428 JUMPI POP PUSH1 0x1 PUSH1 0x1 PUSH1 0xA0 SHL SUB DUP5 AND EXTCODESIZE ISZERO JUMPDEST ISZERO PUSH2 0x4451 JUMPI PUSH1 0x40 MLOAD PUSH4 0x9996B315 PUSH1 0xE0 SHL DUP2 MSTORE PUSH1 0x1 PUSH1 0x1 PUSH1 0xA0 SHL SUB DUP6 AND PUSH1 0x4 DUP3 ADD MSTORE PUSH1 0x24 ADD PUSH2 0x8E9 JUMP JUMPDEST POP DUP1 PUSH2 0x38CC JUMP JUMPDEST DUP1 MLOAD ISZERO PUSH2 0x4468 JUMPI DUP1 MLOAD DUP1 DUP3 PUSH1 0x20 ADD REVERT JUMPDEST PUSH1 0x40 MLOAD PUSH4 0xD6BDA275 PUSH1 0xE0 SHL DUP2 MSTORE PUSH1 0x4 ADD PUSH1 0x40 MLOAD DUP1 SWAP2 SUB SWAP1 REVERT JUMPDEST DUP3 DUP1 SLOAD DUP3 DUP3 SSTORE SWAP1 PUSH1 0x0 MSTORE PUSH1 0x20 PUSH1 0x0 KECCAK256 SWAP1 DUP2 ADD SWAP3 DUP3 ISZERO PUSH2 0x44BC JUMPI SWAP2 PUSH1 0x20 MUL DUP3 ADD JUMPDEST DUP3 DUP2 GT ISZERO PUSH2 0x44BC JUMPI DUP3 MLOAD DUP3 SSTORE SWAP2 PUSH1 0x20 ADD SWAP2 SWAP1 PUSH1 0x1 ADD SWAP1 PUSH2 0x44A1 JUMP JUMPDEST POP PUSH2 0x44C8 SWAP3 SWAP2 POP PUSH2 0x44CC JUMP JUMPDEST POP SWAP1 JUMP JUMPDEST JUMPDEST DUP1 DUP3 GT ISZERO PUSH2 0x44C8 JUMPI PUSH1 0x0 DUP2 SSTORE PUSH1 0x1 ADD PUSH2 0x44CD JUMP JUMPDEST PUSH1 0x0 PUSH1 0x20 DUP3 DUP5 SUB SLT ISZERO PUSH2 0x44F3 JUMPI PUSH1 0x0 DUP1 REVERT JUMPDEST POP CALLDATALOAD SWAP2 SWAP1 POP JUMP JUMPDEST DUP1 CALLDATALOAD PUSH1 0x1 PUSH1 0x1 PUSH1 0xA0 SHL SUB DUP2 AND DUP2 EQ PUSH2 0x3F61 JUMPI PUSH1 0x0 DUP1 REVERT JUMPDEST PUSH1 0x0 DUP1 PUSH1 0x40 DUP4 DUP6 SUB SLT ISZERO PUSH2 0x4524 JUMPI PUSH1 0x0 DUP1 REVERT JUMPDEST DUP3 CALLDATALOAD SWAP2 POP PUSH2 0x4534 PUSH1 0x20 DUP5 ADD PUSH2 0x44FA JUMP JUMPDEST SWAP1 POP SWAP3 POP SWAP3 SWAP1 POP JUMP JUMPDEST PUSH1 0x0 DUP1 PUSH1 0x40 DUP4 DUP6 SUB SLT ISZERO PUSH2 0x4550 JUMPI PUSH1 0x0 DUP1 REVERT JUMPDEST POP POP DUP1 CALLDATALOAD SWAP3 PUSH1 0x20 SWAP1 SWAP2 ADD CALLDATALOAD SWAP2 POP JUMP JUMPDEST DUP1 ISZERO ISZERO DUP2 EQ PUSH2 0x3663 JUMPI PUSH1 0x0 DUP1 REVERT JUMPDEST PUSH1 0x0 DUP1 PUSH1 0x0 PUSH1 0x60 DUP5 DUP7 SUB SLT ISZERO PUSH2 0x4582 JUMPI PUSH1 0x0 DUP1 REVERT JUMPDEST DUP4 CALLDATALOAD SWAP3 POP PUSH1 0x20 DUP5 ADD CALLDATALOAD PUSH2 0x4594 DUP2 PUSH2 0x455F JUMP JUMPDEST SWAP2 POP PUSH1 0x40 DUP5 ADD CALLDATALOAD PUSH1 0xFF DUP2 AND DUP2 EQ PUSH2 0x45AA JUMPI PUSH1 0x0 DUP1 REVERT JUMPDEST DUP1 SWAP2 POP POP SWAP3 POP SWAP3 POP SWAP3 JUMP JUMPDEST PUSH1 0x0 JUMPDEST DUP4 DUP2 LT ISZERO PUSH2 0x45D0 JUMPI DUP2 DUP2 ADD MLOAD DUP4 DUP3 ADD MSTORE PUSH1 0x20 ADD PUSH2 0x45B8 JUMP JUMPDEST POP POP PUSH1 0x0 SWAP2 ADD MSTORE JUMP JUMPDEST PUSH1 0x0 DUP2 MLOAD DUP1 DUP5 MSTORE PUSH2 0x45F1 DUP2 PUSH1 0x20 DUP7 ADD PUSH1 0x20 DUP7 ADD PUSH2 0x45B5 JUMP JUMPDEST PUSH1 0x1F ADD PUSH1 0x1F NOT AND SWAP3 SWAP1 SWAP3 ADD PUSH1 0x20 ADD SWAP3 SWAP2 POP POP JUMP JUMPDEST DUP11 DUP2 MSTORE PUSH1 0x1 PUSH1 0x1 PUSH1 0xA0 SHL SUB DUP11 AND PUSH1 0x20 DUP3 ADD MSTORE PUSH2 0x140 PUSH1 0x40 DUP3 ADD MSTORE PUSH1 0x0 PUSH2 0x462F PUSH2 0x140 DUP4 ADD DUP12 PUSH2 0x45D9 JUMP JUMPDEST DUP3 DUP2 SUB PUSH1 0x60 DUP5 ADD MSTORE PUSH2 0x4641 DUP2 DUP12 PUSH2 0x45D9 JUMP JUMPDEST PUSH1 0x80 DUP5 ADD SWAP10 SWAP1 SWAP10 MSTORE POP POP PUSH1 0xA0 DUP2 ADD SWAP6 SWAP1 SWAP6 MSTORE PUSH1 0xC0 DUP6 ADD SWAP4 SWAP1 SWAP4 MSTORE PUSH1 0x1 PUSH1 0x1 PUSH1 0xA0 SHL SUB SWAP2 SWAP1 SWAP2 AND PUSH1 0xE0 DUP5 ADD MSTORE PUSH2 0x100 DUP4 ADD MSTORE PUSH2 0x120 SWAP1 SWAP2 ADD MSTORE SWAP5 SWAP4 POP POP POP POP JUMP JUMPDEST PUSH4 0x4E487B71 PUSH1 0xE0 SHL PUSH1 0x0 MSTORE PUSH1 0x41 PUSH1 0x4 MSTORE PUSH1 0x24 PUSH1 0x0 REVERT JUMPDEST PUSH1 0x40 MLOAD PUSH1 0x1F DUP3 ADD PUSH1 0x1F NOT AND DUP2 ADD PUSH8 0xFFFFFFFFFFFFFFFF DUP2 GT DUP3 DUP3 LT OR ISZERO PUSH2 0x46C0 JUMPI PUSH2 0x46C0 PUSH2 0x4681 JUMP JUMPDEST PUSH1 0x40 MSTORE SWAP2 SWAP1 POP JUMP JUMPDEST PUSH1 0x0 DUP1 PUSH8 0xFFFFFFFFFFFFFFFF DUP5 GT ISZERO PUSH2 0x46E3 JUMPI PUSH2 0x46E3 PUSH2 0x4681 JUMP JUMPDEST POP PUSH1 0x1F DUP4 ADD PUSH1 0x1F NOT AND PUSH1 0x20 ADD PUSH2 0x46F8 DUP2 PUSH2 0x4697 JUMP JUMPDEST SWAP2 POP POP DUP3 DUP2 MSTORE DUP4 DUP4 DUP4 ADD GT ISZERO PUSH2 0x470D JUMPI PUSH1 0x0 DUP1 REVERT JUMPDEST DUP3 DUP3 PUSH1 0x20 DUP4 ADD CALLDATACOPY PUSH1 0x0 PUSH1 0x20 DUP5 DUP4 ADD ADD MSTORE SWAP4 SWAP3 POP POP POP JUMP JUMPDEST PUSH1 0x0 DUP3 PUSH1 0x1F DUP4 ADD SLT PUSH2 0x4735 JUMPI PUSH1 0x0 DUP1 REVERT JUMPDEST PUSH2 0x38CC DUP4 DUP4 CALLDATALOAD PUSH1 0x20 DUP6 ADD PUSH2 0x46C8 JUMP JUMPDEST PUSH1 0x0 DUP1 PUSH1 0x40 DUP4 DUP6 SUB SLT ISZERO PUSH2 0x4757 JUMPI PUSH1 0x0 DUP1 REVERT JUMPDEST DUP3 CALLDATALOAD SWAP2 POP PUSH1 0x20 DUP4 ADD CALLDATALOAD PUSH8 0xFFFFFFFFFFFFFFFF DUP2 GT ISZERO PUSH2 0x4775 JUMPI PUSH1 0x0 DUP1 REVERT JUMPDEST PUSH2 0x4781 DUP6 DUP3 DUP7 ADD PUSH2 0x4724 JUMP JUMPDEST SWAP2 POP POP SWAP3 POP SWAP3 SWAP1 POP JUMP JUMPDEST DUP11 DUP2 MSTORE PUSH1 0x1 PUSH1 0x1 PUSH1 0xA0 SHL SUB DUP11 AND PUSH1 0x20 DUP3 ADD MSTORE PUSH2 0x140 PUSH1 0x40 DUP3 ADD MSTORE PUSH1 0x0 PUSH2 0x47B5 PUSH2 0x140 DUP4 ADD DUP12 PUSH2 0x45D9 JUMP JUMPDEST SWAP9 ISZERO ISZERO PUSH1 0x60 DUP4 ADD MSTORE POP SWAP6 ISZERO ISZERO PUSH1 0x80 DUP8 ADD MSTORE PUSH1 0x1 PUSH1 0x1 PUSH1 0xA0 SHL SUB SWAP5 SWAP1 SWAP5 AND PUSH1 0xA0 DUP7 ADD MSTORE PUSH1 0xC0 DUP6 ADD SWAP3 SWAP1 SWAP3 MSTORE PUSH1 0xE0 DUP5 ADD MSTORE PUSH2 0x100 DUP4 ADD MSTORE PUSH2 0x120 SWAP1 SWAP2 ADD MSTORE SWAP4 SWAP3 POP POP POP JUMP JUMPDEST PUSH1 0x0 DUP1 PUSH1 0x40 DUP4 DUP6 SUB SLT ISZERO PUSH2 0x480B JUMPI PUSH1 0x0 DUP1 REVERT JUMPDEST PUSH2 0x4814 DUP4 PUSH2 0x44FA JUMP JUMPDEST SWAP2 POP PUSH1 0x20 DUP4 ADD CALLDATALOAD PUSH8 0xFFFFFFFFFFFFFFFF DUP2 GT ISZERO PUSH2 0x4830 JUMPI PUSH1 0x0 DUP1 REVERT JUMPDEST DUP4 ADD PUSH1 0x1F DUP2 ADD DUP6 SGT PUSH2 0x4841 JUMPI PUSH1 0x0 DUP1 REVERT JUMPDEST PUSH2 0x4781 DUP6 DUP3 CALLDATALOAD PUSH1 0x20 DUP5 ADD PUSH2 0x46C8 JUMP JUMPDEST PUSH1 0x0 DUP1 PUSH1 0x0 PUSH1 0x60 DUP5 DUP7 SUB SLT ISZERO PUSH2 0x4865 JUMPI PUSH1 0x0 DUP1 REVERT JUMPDEST DUP4 CALLDATALOAD SWAP3 POP PUSH2 0x4875 PUSH1 0x20 DUP6 ADD PUSH2 0x44FA JUMP JUMPDEST SWAP2 POP PUSH1 0x40 DUP5 ADD CALLDATALOAD PUSH2 0x45AA DUP2 PUSH2 0x455F JUMP JUMPDEST PUSH1 0x0 DUP1 PUSH1 0x40 DUP4 DUP6 SUB SLT ISZERO PUSH2 0x4898 JUMPI PUSH1 0x0 DUP1 REVERT JUMPDEST PUSH2 0x48A1 DUP4 PUSH2 0x44FA JUMP JUMPDEST SWAP2 POP PUSH2 0x4534 PUSH1 0x20 DUP5 ADD PUSH2 0x44FA JUMP JUMPDEST PUSH1 0x0 PUSH1 0x20 DUP3 DUP5 SUB SLT ISZERO PUSH2 0x48C1 JUMPI PUSH1 0x0 DUP1 REVERT JUMPDEST PUSH2 0x38CC DUP3 PUSH2 0x44FA JUMP JUMPDEST PUSH1 0x1 PUSH1 0x1 PUSH1 0xA0 SHL SUB DUP4 AND DUP2 MSTORE PUSH1 0x40 PUSH1 0x20 DUP3 ADD MSTORE PUSH1 0x0 PUSH2 0x48EC PUSH1 0x40 DUP4 ADD DUP5 PUSH2 0x45D9 JUMP JUMPDEST SWAP5 SWAP4 POP POP POP POP JUMP JUMPDEST PUSH1 0x0 DUP1 PUSH1 0x0 PUSH1 0x60 DUP5 DUP7 SUB SLT ISZERO PUSH2 0x4909 JUMPI PUSH1 0x0 DUP1 REVERT JUMPDEST POP POP DUP2 CALLDATALOAD SWAP4 PUSH1 0x20 DUP4 ADD CALLDATALOAD SWAP4 POP PUSH1 0x40 SWAP1 SWAP3 ADD CALLDATALOAD SWAP2 SWAP1 POP JUMP JUMPDEST PUSH1 0x20 DUP2 MSTORE PUSH1 0x0 PUSH2 0x38CC PUSH1 0x20 DUP4 ADD DUP5 PUSH2 0x45D9 JUMP JUMPDEST PUSH1 0x0 PUSH1 0x60 DUP3 ADD DUP6 ISZERO ISZERO DUP4 MSTORE PUSH1 0x60 PUSH1 0x20 DUP5 ADD MSTORE DUP1 DUP6 MLOAD DUP1 DUP4 MSTORE PUSH1 0x80 DUP6 ADD SWAP2 POP PUSH1 0x20 DUP8 ADD SWAP3 POP PUSH1 0x0 JUMPDEST DUP2 DUP2 LT ISZERO PUSH2 0x4978 JUMPI DUP4 MLOAD DUP4 MSTORE PUSH1 0x20 SWAP4 DUP5 ADD SWAP4 SWAP1 SWAP3 ADD SWAP2 PUSH1 0x1 ADD PUSH2 0x495A JUMP JUMPDEST POP POP DUP4 DUP2 SUB PUSH1 0x40 DUP6 ADD MSTORE PUSH2 0x498C DUP2 DUP7 PUSH2 0x45D9 JUMP JUMPDEST SWAP8 SWAP7 POP POP POP POP POP POP POP JUMP JUMPDEST PUSH1 0x0 DUP1 PUSH1 0x0 DUP1 PUSH1 0x0 DUP1 PUSH1 0xC0 DUP8 DUP10 SUB SLT ISZERO PUSH2 0x49B0 JUMPI PUSH1 0x0 DUP1 REVERT JUMPDEST POP POP DUP5 CALLDATALOAD SWAP7 PUSH1 0x20 DUP7 ADD CALLDATALOAD SWAP7 POP PUSH1 0x40 DUP7 ADD CALLDATALOAD SWAP6 PUSH1 0x60 DUP2 ADD CALLDATALOAD SWAP6 POP PUSH1 0x80 DUP2 ADD CALLDATALOAD SWAP5 POP PUSH1 0xA0 ADD CALLDATALOAD SWAP3 POP SWAP1 POP JUMP JUMPDEST PUSH1 0x0 DUP3 PUSH1 0x1F DUP4 ADD SLT PUSH2 0x49EB JUMPI PUSH1 0x0 DUP1 REVERT JUMPDEST DUP2 CALLDATALOAD PUSH8 0xFFFFFFFFFFFFFFFF DUP2 GT ISZERO PUSH2 0x4A05 JUMPI PUSH2 0x4A05 PUSH2 0x4681 JUMP JUMPDEST DUP1 PUSH1 0x5 SHL PUSH2 0x4A15 PUSH1 0x20 DUP3 ADD PUSH2 0x4697 JUMP JUMPDEST SWAP2 DUP3 MSTORE PUSH1 0x20 DUP2 DUP6 ADD DUP2 ADD SWAP3 SWAP1 DUP2 ADD SWAP1 DUP7 DUP5 GT ISZERO PUSH2 0x4A31 JUMPI PUSH1 0x0 DUP1 REVERT JUMPDEST PUSH1 0x20 DUP7 ADD SWAP3 POP JUMPDEST DUP4 DUP4 LT ISZERO PUSH2 0x4A53 JUMPI DUP3 CALLDATALOAD DUP3 MSTORE PUSH1 0x20 SWAP3 DUP4 ADD SWAP3 SWAP1 SWAP2 ADD SWAP1 PUSH2 0x4A38 JUMP JUMPDEST SWAP7 SWAP6 POP POP POP POP POP POP JUMP JUMPDEST PUSH1 0x0 DUP1 PUSH1 0x0 DUP1 PUSH1 0x80 DUP6 DUP8 SUB SLT ISZERO PUSH2 0x4A73 JUMPI PUSH1 0x0 DUP1 REVERT JUMPDEST DUP5 CALLDATALOAD SWAP4 POP PUSH1 0x20 DUP6 ADD CALLDATALOAD PUSH8 0xFFFFFFFFFFFFFFFF DUP2 GT ISZERO PUSH2 0x4A91 JUMPI PUSH1 0x0 DUP1 REVERT JUMPDEST PUSH2 0x4A9D DUP8 DUP3 DUP9 ADD PUSH2 0x4724 JUMP JUMPDEST SWAP4 POP POP PUSH1 0x40 DUP6 ADD CALLDATALOAD PUSH8 0xFFFFFFFFFFFFFFFF DUP2 GT ISZERO PUSH2 0x4ABA JUMPI PUSH1 0x0 DUP1 REVERT JUMPDEST PUSH2 0x4AC6 DUP8 DUP3 DUP9 ADD PUSH2 0x49DA JUMP JUMPDEST SWAP3 POP POP PUSH1 0x60 DUP6 ADD CALLDATALOAD PUSH8 0xFFFFFFFFFFFFFFFF DUP2 GT ISZERO PUSH2 0x4AE3 JUMPI PUSH1 0x0 DUP1 REVERT JUMPDEST PUSH2 0x4AEF DUP8 DUP3 DUP9 ADD PUSH2 0x4724 JUMP JUMPDEST SWAP2 POP POP SWAP3 SWAP6 SWAP2 SWAP5 POP SWAP3 POP JUMP JUMPDEST PUSH1 0x0 DUP1 PUSH1 0x40 DUP4 DUP6 SUB SLT ISZERO PUSH2 0x4B0E JUMPI PUSH1 0x0 DUP1 REVERT JUMPDEST DUP3 CALLDATALOAD PUSH8 0xFFFFFFFFFFFFFFFF DUP2 GT ISZERO PUSH2 0x4B25 JUMPI PUSH1 0x0 DUP1 REVERT JUMPDEST PUSH2 0x4B31 DUP6 DUP3 DUP7 ADD PUSH2 0x4724 JUMP JUMPDEST SWAP3 POP POP PUSH1 0x20 DUP4 ADD CALLDATALOAD PUSH8 0xFFFFFFFFFFFFFFFF DUP2 GT ISZERO PUSH2 0x4B4E JUMPI PUSH1 0x0 DUP1 REVERT JUMPDEST PUSH2 0x4781 DUP6 DUP3 DUP7 ADD PUSH2 0x49DA JUMP JUMPDEST PUSH1 0x0 DUP1 PUSH1 0x0 PUSH1 0x60 DUP5 DUP7 SUB SLT ISZERO PUSH2 0x4B6F JUMPI PUSH1 0x0 DUP1 REVERT JUMPDEST DUP4 CALLDATALOAD SWAP3 POP PUSH1 0x20 DUP5 ADD CALLDATALOAD PUSH8 0xFFFFFFFFFFFFFFFF DUP2 GT ISZERO PUSH2 0x4B8D JUMPI PUSH1 0x0 DUP1 REVERT JUMPDEST PUSH2 0x4B99 DUP7 DUP3 DUP8 ADD PUSH2 0x4724 JUMP JUMPDEST SWAP3 POP POP PUSH1 0x40 DUP5 ADD CALLDATALOAD PUSH8 0xFFFFFFFFFFFFFFFF DUP2 GT ISZERO PUSH2 0x4BB6 JUMPI PUSH1 0x0 DUP1 REVERT JUMPDEST PUSH2 0x4BC2 DUP7 DUP3 DUP8 ADD PUSH2 0x4724 JUMP JUMPDEST SWAP2 POP POP SWAP3 POP SWAP3 POP SWAP3 JUMP JUMPDEST PUSH1 0x20 DUP1 DUP3 MSTORE PUSH1 0x12 SWAP1 DUP3 ADD MSTORE PUSH18 0x129BD888191BD95CC81B9BDD08195E1A5CDD PUSH1 0x72 SHL PUSH1 0x40 DUP3 ADD MSTORE PUSH1 0x60 ADD SWAP1 JUMP JUMPDEST PUSH1 0x20 DUP1 DUP3 MSTORE PUSH1 0x18 SWAP1 DUP3 ADD MSTORE PUSH32 0x4A6F6220697320616C726561647920636F6D706C657465640000000000000000 PUSH1 0x40 DUP3 ADD MSTORE PUSH1 0x60 ADD SWAP1 JUMP JUMPDEST PUSH1 0x20 DUP1 DUP3 MSTORE PUSH1 0x23 SWAP1 DUP3 ADD MSTORE PUSH32 0x43616E206F6E6C7920636F6D706C6574652063757272656E74206D696C657374 PUSH1 0x40 DUP3 ADD MSTORE PUSH3 0x6F6E65 PUSH1 0xE8 SHL PUSH1 0x60 DUP3 ADD MSTORE PUSH1 0x80 ADD SWAP1 JUMP JUMPDEST PUSH4 0x4E487B71 PUSH1 0xE0 SHL PUSH1 0x0 MSTORE PUSH1 0x11 PUSH1 0x4 MSTORE PUSH1 0x24 PUSH1 0x0 REVERT JUMPDEST DUP1 DUP3 ADD DUP1 DUP3 GT ISZERO PUSH2 0x8AC JUMPI PUSH2 0x8AC PUSH2 0x4C72 JUMP JUMPDEST DUP2 DUP2 SUB DUP2 DUP2 GT ISZERO PUSH2 0x8AC JUMPI PUSH2 0x8AC PUSH2 0x4C72 JUMP JUMPDEST PUSH1 0x0 PUSH1 0x1 DUP3 ADD PUSH2 0x4CC0 JUMPI PUSH2 0x4CC0 PUSH2 0x4C72 JUMP JUMPDEST POP PUSH1 0x1 ADD SWAP1 JUMP JUMPDEST PUSH4 0x4E487B71 PUSH1 0xE0 SHL PUSH1 0x0 MSTORE PUSH1 0x32 PUSH1 0x4 MSTORE PUSH1 0x24 PUSH1 0x0 REVERT JUMPDEST PUSH1 0x20 DUP1 DUP3 MSTORE PUSH1 0x26 SWAP1 DUP3 ADD MSTORE PUSH32 0x5375626D697373696F6E206D75737420626520696E207375626D697474656420 PUSH1 0x40 DUP3 ADD MSTORE PUSH6 0x737461747573 PUSH1 0xD0 SHL PUSH1 0x60 DUP3 ADD MSTORE PUSH1 0x80 ADD SWAP1 JUMP JUMPDEST PUSH1 0x0 PUSH1 0x20 DUP3 DUP5 SUB SLT ISZERO PUSH2 0x4D35 JUMPI PUSH1 0x0 DUP1 REVERT JUMPDEST POP MLOAD SWAP2 SWAP1 POP JUMP JUMPDEST PUSH1 0x1 DUP2 DUP2 SHR SWAP1 DUP3 AND DUP1 PUSH2 0x4D50 JUMPI PUSH1 0x7F DUP3 AND SWAP2 POP JUMPDEST PUSH1 0x20 DUP3 LT DUP2 SUB PUSH2 0x4D70 JUMPI PUSH4 0x4E487B71 PUSH1 0xE0 SHL PUSH1 0x0 MSTORE PUSH1 0x22 PUSH1 0x4 MSTORE PUSH1 0x24 PUSH1 0x0 REVERT JUMPDEST POP SWAP2 SWAP1 POP JUMP JUMPDEST PUSH1 0x20 DUP1 DUP3 MSTORE PUSH1 0x21 SWAP1 DUP3 ADD MSTORE PUSH32 0x4F6E6C79206A6F622067697665722063616E2061737369676E20746865206A6F PUSH1 0x40 DUP3 ADD MSTORE PUSH1 0x31 PUSH1 0xF9 SHL PUSH1 0x60 DUP3 ADD MSTORE PUSH1 0x80 ADD SWAP1 JUMP JUMPDEST PUSH1 0x20 DUP1 DUP3 MSTORE PUSH1 0x32 SWAP1 DUP3 ADD MSTORE PUSH32 0x496E73756666696369656E742066756E647320746F206C6F636B206669727374 PUSH1 0x40 DUP3 ADD MSTORE PUSH18 0x81B5A5B195CDD1BDB99481C185E5B595B9D PUSH1 0x72 SHL PUSH1 0x60 DUP3 ADD MSTORE PUSH1 0x80 ADD SWAP1 JUMP JUMPDEST DUP1 DUP3 MUL DUP2 ISZERO DUP3 DUP3 DIV DUP5 EQ OR PUSH2 0x8AC JUMPI PUSH2 0x8AC PUSH2 0x4C72 JUMP JUMPDEST PUSH1 0x0 DUP3 PUSH2 0x4E3D JUMPI PUSH4 0x4E487B71 PUSH1 0xE0 SHL PUSH1 0x0 MSTORE PUSH1 0x12 PUSH1 0x4 MSTORE PUSH1 0x24 PUSH1 0x0 REVERT JUMPDEST POP DIV SWAP1 JUMP JUMPDEST PUSH1 0x1F DUP3 GT ISZERO PUSH2 0xFA0 JUMPI DUP1 PUSH1 0x0 MSTORE PUSH1 0x20 PUSH1 0x0 KECCAK256 PUSH1 0x1F DUP5 ADD PUSH1 0x5 SHR DUP2 ADD PUSH1 0x20 DUP6 LT ISZERO PUSH2 0x4E69 JUMPI POP DUP1 JUMPDEST PUSH1 0x1F DUP5 ADD PUSH1 0x5 SHR DUP3 ADD SWAP2 POP JUMPDEST DUP2 DUP2 LT ISZERO PUSH2 0xCA2 JUMPI PUSH1 0x0 DUP2 SSTORE PUSH1 0x1 ADD PUSH2 0x4E75 JUMP JUMPDEST DUP2 MLOAD PUSH8 0xFFFFFFFFFFFFFFFF DUP2 GT ISZERO PUSH2 0x4EA3 JUMPI PUSH2 0x4EA3 PUSH2 0x4681 JUMP JUMPDEST PUSH2 0x4EB7 DUP2 PUSH2 0x4EB1 DUP5 SLOAD PUSH2 0x4D3C JUMP JUMPDEST DUP5 PUSH2 0x4E42 JUMP JUMPDEST PUSH1 0x20 PUSH1 0x1F DUP3 GT PUSH1 0x1 DUP2 EQ PUSH2 0x4EEB JUMPI PUSH1 0x0 DUP4 ISZERO PUSH2 0x4ED3 JUMPI POP DUP5 DUP3 ADD MLOAD JUMPDEST PUSH1 0x0 NOT PUSH1 0x3 DUP6 SWAP1 SHL SHR NOT AND PUSH1 0x1 DUP5 SWAP1 SHL OR DUP5 SSTORE PUSH2 0xCA2 JUMP JUMPDEST PUSH1 0x0 DUP5 DUP2 MSTORE PUSH1 0x20 DUP2 KECCAK256 PUSH1 0x1F NOT DUP6 AND SWAP2 JUMPDEST DUP3 DUP2 LT ISZERO PUSH2 0x4F1B JUMPI DUP8 DUP6 ADD MLOAD DUP3 SSTORE PUSH1 0x20 SWAP5 DUP6 ADD SWAP5 PUSH1 0x1 SWAP1 SWAP3 ADD SWAP2 ADD PUSH2 0x4EFB JUMP JUMPDEST POP DUP5 DUP3 LT ISZERO PUSH2 0x4F39 JUMPI DUP7 DUP5 ADD MLOAD PUSH1 0x0 NOT PUSH1 0x3 DUP8 SWAP1 SHL PUSH1 0xF8 AND SHR NOT AND DUP2 SSTORE JUMPDEST POP POP POP POP PUSH1 0x1 SWAP1 DUP2 SHL ADD SWAP1 SSTORE POP JUMP JUMPDEST PUSH1 0x40 DUP2 MSTORE PUSH1 0x0 PUSH2 0x4F5B PUSH1 0x40 DUP4 ADD DUP6 PUSH2 0x45D9 JUMP JUMPDEST SWAP1 POP DUP3 PUSH1 0x20 DUP4 ADD MSTORE SWAP4 SWAP3 POP POP POP JUMP JUMPDEST PUSH1 0x0 PUSH1 0x20 DUP3 DUP5 SUB SLT ISZERO PUSH2 0x4F7C JUMPI PUSH1 0x0 DUP1 REVERT JUMPDEST DUP2 MLOAD PUSH2 0x38CC DUP2 PUSH2 0x455F JUMP JUMPDEST PUSH1 0x0 DUP3 MLOAD PUSH2 0x4F99 DUP2 DUP5 PUSH1 0x20 DUP8 ADD PUSH2 0x45B5 JUMP JUMPDEST SWAP2 SWAP1 SWAP2 ADD SWAP3 SWAP2 POP POP JUMP INVALID LOG2 PUSH5 0x6970667358 0x22 SLT KECCAK256 GAS 0x27 DELEGATECALL 0xD6 0xE1 0xC9 PUSH16 0x83F7B0455E87F1F9301C3017B334D405 LOG4 DUP14 0xBD PREVRANDAO 0xCF 0x1E EXTCODECOPY SHL DUP11 PUSH5 0x736F6C6343 STOP ADDMOD SHR STOP CALLER "
		},
		"gasEstimates": {
			"creation": {
				"codeDepositCost": "4088200",
				"executionCost": "infinite",
				"totalCost": "infinite"
			},
			"external": {
				"UPGRADE_INTERFACE_VERSION()": "infinite",
				"applyForJob(uint256,string)": "infinite",
				"applyToJob(uint256,string)": "infinite",
				"applyToJobWithProposal(uint256,string,uint256[],string)": "infinite",
				"approveWork(uint256)": "infinite",
				"assignJob(uint256,address)": "infinite",
				"cancelJob(uint256)": "infinite",
				"completeJob(uint256)": "32259",
				"completeMilestone_UnlockNext(uint256,uint256)": "infinite",
				"createDispute(uint256,string)": "infinite",
				"fundJob(uint256)": "8261",
				"getApplicant(uint256,uint256)": "9143",
				"getApplicantCount(uint256)": "4776",
				"getApplication(uint256,uint256)": "infinite",
				"getJobDetails(uint256)": "infinite",
				"getJobPosting(uint256)": "infinite",
				"getMilestone(uint256,uint256)": "13479",
				"getMilestoneCount(uint256)": "4732",
				"getProposedMilestones(uint256,address)": "infinite",
				"getTotalMilestoneAmount(uint256)": "infinite",
				"hasProposedMilestones(uint256,address)": "4939",
				"initialize()": "infinite",
				"initializeWithContracts(address,address)": "infinite",
				"isUserRegistryConfigured()": "2401",
				"jobExists(uint256)": "2530",
				"lockDisputedFunds(uint256,uint256)": "35924",
				"lockNextMilestoneInterchain(uint256,uint256)": "10872",
				"owner()": "2436",
				"postJob(string,uint256[])": "infinite",
				"proxiableUUID()": "infinite",
				"rejectWork(uint256,string)": "infinite",
				"releaseDisputedFunds(uint256,uint256,uint256,uint256,uint256,uint256)": "infinite",
				"releasePaymentInterchain(uint256,uint256,uint256)": "infinite",
				"renounceOwnership()": "infinite",
				"resolveDispute(uint256,bool,uint8)": "4950",
				"selectApplicant(uint256,address)": "infinite",
				"setEarningsContract(address)": "27986",
				"setUserRegistryContract(address)": "27987",
				"startJobInterChain(uint256,address,bool)": "infinite",
				"startJobWithProposedMilestones(uint256,address,bool)": "infinite",
				"startJob_LockMilestone1(uint256,address)": "infinite",
				"startNextMilestone(uint256)": "infinite",
				"submitWork(uint256,string,string)": "infinite",
				"transferOwnership(address)": "28446",
				"upgradeToAndCall(address,bytes)": "infinite"
			},
			"internal": {
				"_addSelectedApplicant(uint256,address)": "50117",
				"_authorizeUpgrade(address)": "infinite",
				"_implementJobStart(uint256,address,bool)": "infinite",
				"_isJobGiver(uint256,address)": "infinite",
				"_jobExists(uint256)": "infinite",
				"_lockMilestonePayment(uint256,uint256,uint256)": "infinite",
				"_setIsOpen(uint256)": "infinite",
				"_setJobDetailHash(uint256,string memory)": "infinite",
				"_setMilestonePayments(uint256,uint256[] memory)": "infinite",
				"_startJobBasic(uint256,address)": "infinite",
				"_userExists(address)": "infinite"
			}
		},
		"methodIdentifiers": {
			"UPGRADE_INTERFACE_VERSION()": "ad3cb1cc",
			"applyForJob(uint256,string)": "6c09a5e3",
			"applyToJob(uint256,string)": "3efaea1f",
			"applyToJobWithProposal(uint256,string,uint256[],string)": "bf5203b3",
			"approveWork(uint256)": "3d01e0fa",
			"assignJob(uint256,address)": "f3a4735a",
			"cancelJob(uint256)": "1dffa3dc",
			"completeJob(uint256)": "a1c0d32f",
			"completeMilestone_UnlockNext(uint256,uint256)": "16a8852a",
			"createDispute(uint256,string)": "9c32c447",
			"fundJob(uint256)": "8d22b863",
			"getApplicant(uint256,uint256)": "cfa3f450",
			"getApplicantCount(uint256)": "d566a411",
			"getApplication(uint256,uint256)": "832a05b7",
			"getJobDetails(uint256)": "4cac35c6",
			"getJobPosting(uint256)": "39b0d477",
			"getMilestone(uint256,uint256)": "8ed9895c",
			"getMilestoneCount(uint256)": "c2010e50",
			"getProposedMilestones(uint256,address)": "ae540f8a",
			"getTotalMilestoneAmount(uint256)": "ba6f7031",
			"hasProposedMilestones(uint256,address)": "15cce0c9",
			"initialize()": "8129fc1c",
			"initializeWithContracts(address,address)": "7416963d",
			"isUserRegistryConfigured()": "514f45de",
			"jobExists(uint256)": "11461014",
			"lockDisputedFunds(uint256,uint256)": "8d2c71d0",
			"lockNextMilestoneInterchain(uint256,uint256)": "2273bd05",
			"owner()": "8da5cb5b",
			"postJob(string,uint256[])": "ec4859c9",
			"proxiableUUID()": "52d1902d",
			"rejectWork(uint256,string)": "d7ec40ee",
			"releaseDisputedFunds(uint256,uint256,uint256,uint256,uint256,uint256)": "b4ae33fa",
			"releasePaymentInterchain(uint256,uint256,uint256)": "a30b7763",
			"renounceOwnership()": "715018a6",
			"resolveDispute(uint256,bool,uint8)": "2f0a551d",
			"selectApplicant(uint256,address)": "9e5d9c09",
			"setEarningsContract(address)": "7a149ab4",
			"setUserRegistryContract(address)": "b4daf3a0",
			"startJobInterChain(uint256,address,bool)": "501555fa",
			"startJobWithProposedMilestones(uint256,address,bool)": "64cc6b59",
			"startJob_LockMilestone1(uint256,address)": "37ff6fff",
			"startNextMilestone(uint256)": "dc85be7a",
			"submitWork(uint256,string,string)": "f7cbfd18",
			"transferOwnership(address)": "f2fde38b",
			"upgradeToAndCall(address,bytes)": "4f1ef286"
		}
	},
	"abi": [
		{
			"inputs": [
				{
					"internalType": "address",
					"name": "target",
					"type": "address"
				}
			],
			"name": "AddressEmptyCode",
			"type": "error"
		},
		{
			"inputs": [
				{
					"internalType": "address",
					"name": "implementation",
					"type": "address"
				}
			],
			"name": "ERC1967InvalidImplementation",
			"type": "error"
		},
		{
			"inputs": [],
			"name": "ERC1967NonPayable",
			"type": "error"
		},
		{
			"inputs": [],
			"name": "FailedCall",
			"type": "error"
		},
		{
			"inputs": [],
			"name": "InvalidInitialization",
			"type": "error"
		},
		{
			"inputs": [],
			"name": "NotInitializing",
			"type": "error"
		},
		{
			"inputs": [
				{
					"internalType": "address",
					"name": "owner",
					"type": "address"
				}
			],
			"name": "OwnableInvalidOwner",
			"type": "error"
		},
		{
			"inputs": [
				{
					"internalType": "address",
					"name": "account",
					"type": "address"
				}
			],
			"name": "OwnableUnauthorizedAccount",
			"type": "error"
		},
		{
			"inputs": [],
			"name": "UUPSUnauthorizedCallContext",
			"type": "error"
		},
		{
			"inputs": [
				{
					"internalType": "bytes32",
					"name": "slot",
					"type": "bytes32"
				}
			],
			"name": "UUPSUnsupportedProxiableUUID",
			"type": "error"
		},
		{
			"anonymous": false,
			"inputs": [
				{
					"indexed": true,
					"internalType": "uint256",
					"name": "jobId",
					"type": "uint256"
				},
				{
					"indexed": false,
					"internalType": "string",
					"name": "reason",
					"type": "string"
				},
				{
					"indexed": true,
					"internalType": "address",
					"name": "initiator",
					"type": "address"
				}
			],
			"name": "DisputeCreated",
			"type": "event"
		},
		{
			"anonymous": false,
			"inputs": [
				{
					"indexed": true,
					"internalType": "uint256",
					"name": "jobId",
					"type": "uint256"
				},
				{
					"indexed": true,
					"internalType": "uint256",
					"name": "disputeId",
					"type": "uint256"
				},
				{
					"indexed": false,
					"internalType": "uint256",
					"name": "amount",
					"type": "uint256"
				}
			],
			"name": "DisputedFundsReleased",
			"type": "event"
		},
		{
			"anonymous": false,
			"inputs": [
				{
					"indexed": true,
					"internalType": "address",
					"name": "earningsContract",
					"type": "address"
				}
			],
			"name": "EarningsContractSet",
			"type": "event"
		},
		{
			"anonymous": false,
			"inputs": [
				{
					"indexed": true,
					"internalType": "address",
					"name": "user",
					"type": "address"
				},
				{
					"indexed": false,
					"internalType": "uint256",
					"name": "amount",
					"type": "uint256"
				}
			],
			"name": "EarningsRecorded",
			"type": "event"
		},
		{
			"anonymous": false,
			"inputs": [
				{
					"indexed": true,
					"internalType": "uint256",
					"name": "jobId",
					"type": "uint256"
				},
				{
					"indexed": true,
					"internalType": "uint256",
					"name": "disputeId",
					"type": "uint256"
				},
				{
					"indexed": false,
					"internalType": "uint256",
					"name": "amount",
					"type": "uint256"
				}
			],
			"name": "FundsLocked",
			"type": "event"
		},
		{
			"anonymous": false,
			"inputs": [
				{
					"indexed": false,
					"internalType": "uint64",
					"name": "version",
					"type": "uint64"
				}
			],
			"name": "Initialized",
			"type": "event"
		},
		{
			"anonymous": false,
			"inputs": [
				{
					"indexed": true,
					"internalType": "uint256",
					"name": "jobId",
					"type": "uint256"
				},
				{
					"indexed": true,
					"internalType": "address",
					"name": "freelancer",
					"type": "address"
				}
			],
			"name": "JobApplicationSubmitted",
			"type": "event"
		},
		{
			"anonymous": false,
			"inputs": [
				{
					"indexed": true,
					"internalType": "uint256",
					"name": "jobId",
					"type": "uint256"
				},
				{
					"indexed": true,
					"internalType": "address",
					"name": "freelancer",
					"type": "address"
				}
			],
			"name": "JobAssigned",
			"type": "event"
		},
		{
			"anonymous": false,
			"inputs": [
				{
					"indexed": true,
					"internalType": "uint256",
					"name": "jobId",
					"type": "uint256"
				}
			],
			"name": "JobCancelled",
			"type": "event"
		},
		{
			"anonymous": false,
			"inputs": [
				{
					"indexed": true,
					"internalType": "uint256",
					"name": "jobId",
					"type": "uint256"
				}
			],
			"name": "JobCompleted",
			"type": "event"
		},
		{
			"anonymous": false,
			"inputs": [
				{
					"indexed": true,
					"internalType": "uint256",
					"name": "jobId",
					"type": "uint256"
				},
				{
					"indexed": true,
					"internalType": "address",
					"name": "jobGiver",
					"type": "address"
				},
				{
					"indexed": false,
					"internalType": "string",
					"name": "jobDetailHash",
					"type": "string"
				},
				{
					"indexed": false,
					"internalType": "uint256",
					"name": "budget",
					"type": "uint256"
				}
			],
			"name": "JobCreated",
			"type": "event"
		},
		{
			"anonymous": false,
			"inputs": [
				{
					"indexed": true,
					"internalType": "uint256",
					"name": "jobId",
					"type": "uint256"
				},
				{
					"indexed": false,
					"internalType": "uint256",
					"name": "amount",
					"type": "uint256"
				}
			],
			"name": "JobFunded",
			"type": "event"
		},
		{
			"anonymous": false,
			"inputs": [
				{
					"indexed": true,
					"internalType": "uint256",
					"name": "jobId",
					"type": "uint256"
				},
				{
					"indexed": true,
					"internalType": "address",
					"name": "applicant",
					"type": "address"
				}
			],
			"name": "JobMilestonesUpdated",
			"type": "event"
		},
		{
			"anonymous": false,
			"inputs": [
				{
					"indexed": true,
					"internalType": "uint256",
					"name": "jobId",
					"type": "uint256"
				},
				{
					"indexed": true,
					"internalType": "uint256",
					"name": "milestoneId",
					"type": "uint256"
				},
				{
					"indexed": false,
					"internalType": "uint256",
					"name": "amount",
					"type": "uint256"
				}
			],
			"name": "MilestoneCompleted",
			"type": "event"
		},
		{
			"anonymous": false,
			"inputs": [
				{
					"indexed": true,
					"internalType": "uint256",
					"name": "jobId",
					"type": "uint256"
				},
				{
					"indexed": true,
					"internalType": "uint256",
					"name": "milestoneId",
					"type": "uint256"
				},
				{
					"indexed": false,
					"internalType": "string",
					"name": "description",
					"type": "string"
				},
				{
					"indexed": false,
					"internalType": "uint256",
					"name": "amount",
					"type": "uint256"
				}
			],
			"name": "MilestoneCreated",
			"type": "event"
		},
		{
			"anonymous": false,
			"inputs": [
				{
					"indexed": true,
					"internalType": "uint256",
					"name": "jobId",
					"type": "uint256"
				},
				{
					"indexed": true,
					"internalType": "uint256",
					"name": "milestoneIndex",
					"type": "uint256"
				},
				{
					"indexed": false,
					"internalType": "uint256",
					"name": "amount",
					"type": "uint256"
				}
			],
			"name": "MilestoneLocked",
			"type": "event"
		},
		{
			"anonymous": false,
			"inputs": [
				{
					"indexed": true,
					"internalType": "uint256",
					"name": "jobId",
					"type": "uint256"
				},
				{
					"indexed": true,
					"internalType": "uint256",
					"name": "milestoneId",
					"type": "uint256"
				},
				{
					"indexed": false,
					"internalType": "uint256",
					"name": "amount",
					"type": "uint256"
				}
			],
			"name": "MilestonePaid",
			"type": "event"
		},
		{
			"anonymous": false,
			"inputs": [
				{
					"indexed": true,
					"internalType": "uint256",
					"name": "jobId",
					"type": "uint256"
				},
				{
					"indexed": false,
					"internalType": "uint256",
					"name": "milestoneIndex",
					"type": "uint256"
				},
				{
					"indexed": false,
					"internalType": "uint256",
					"name": "amount",
					"type": "uint256"
				}
			],
			"name": "NextMilestoneReady",
			"type": "event"
		},
		{
			"anonymous": false,
			"inputs": [
				{
					"indexed": true,
					"internalType": "address",
					"name": "previousOwner",
					"type": "address"
				},
				{
					"indexed": true,
					"internalType": "address",
					"name": "newOwner",
					"type": "address"
				}
			],
			"name": "OwnershipTransferred",
			"type": "event"
		},
		{
			"anonymous": false,
			"inputs": [
				{
					"indexed": true,
					"internalType": "address",
					"name": "implementation",
					"type": "address"
				}
			],
			"name": "Upgraded",
			"type": "event"
		},
		{
			"anonymous": false,
			"inputs": [
				{
					"indexed": true,
					"internalType": "address",
					"name": "userRegistryContract",
					"type": "address"
				}
			],
			"name": "UserRegistryContractSet",
			"type": "event"
		},
		{
			"anonymous": false,
			"inputs": [
				{
					"indexed": true,
					"internalType": "uint256",
					"name": "submissionId",
					"type": "uint256"
				},
				{
					"indexed": true,
					"internalType": "uint256",
					"name": "jobId",
					"type": "uint256"
				}
			],
			"name": "WorkApproved",
			"type": "event"
		},
		{
			"anonymous": false,
			"inputs": [
				{
					"indexed": true,
					"internalType": "uint256",
					"name": "submissionId",
					"type": "uint256"
				},
				{
					"indexed": true,
					"internalType": "uint256",
					"name": "jobId",
					"type": "uint256"
				},
				{
					"indexed": false,
					"internalType": "string",
					"name": "feedback",
					"type": "string"
				}
			],
			"name": "WorkRejected",
			"type": "event"
		},
		{
			"anonymous": false,
			"inputs": [
				{
					"indexed": true,
					"internalType": "uint256",
					"name": "submissionId",
					"type": "uint256"
				},
				{
					"indexed": true,
					"internalType": "uint256",
					"name": "jobId",
					"type": "uint256"
				},
				{
					"indexed": true,
					"internalType": "address",
					"name": "freelancer",
					"type": "address"
				}
			],
			"name": "WorkSubmitted",
			"type": "event"
		},
		{
			"inputs": [],
			"name": "UPGRADE_INTERFACE_VERSION",
			"outputs": [
				{
					"internalType": "string",
					"name": "",
					"type": "string"
				}
			],
			"stateMutability": "view",
			"type": "function"
		},
		{
			"inputs": [
				{
					"internalType": "uint256",
					"name": "jobId",
					"type": "uint256"
				},
				{
					"internalType": "string",
					"name": "proposal",
					"type": "string"
				}
			],
			"name": "applyForJob",
			"outputs": [],
			"stateMutability": "nonpayable",
			"type": "function"
		},
		{
			"inputs": [
				{
					"internalType": "uint256",
					"name": "jobId",
					"type": "uint256"
				},
				{
					"internalType": "string",
					"name": "application_hash",
					"type": "string"
				}
			],
			"name": "applyToJob",
			"outputs": [],
			"stateMutability": "nonpayable",
			"type": "function"
		},
		{
			"inputs": [
				{
					"internalType": "uint256",
					"name": "jobId",
					"type": "uint256"
				},
				{
					"internalType": "string",
					"name": "application_hash",
					"type": "string"
				},
				{
					"internalType": "uint256[]",
					"name": "proposedMilestones",
					"type": "uint256[]"
				},
				{
					"internalType": "string",
					"name": "milestoneDetailsHash",
					"type": "string"
				}
			],
			"name": "applyToJobWithProposal",
			"outputs": [],
			"stateMutability": "nonpayable",
			"type": "function"
		},
		{
			"inputs": [
				{
					"internalType": "uint256",
					"name": "submissionId",
					"type": "uint256"
				}
			],
			"name": "approveWork",
			"outputs": [],
			"stateMutability": "nonpayable",
			"type": "function"
		},
		{
			"inputs": [
				{
					"internalType": "uint256",
					"name": "jobId",
					"type": "uint256"
				},
				{
					"internalType": "address",
					"name": "freelancer",
					"type": "address"
				}
			],
			"name": "assignJob",
			"outputs": [],
			"stateMutability": "payable",
			"type": "function"
		},
		{
			"inputs": [
				{
					"internalType": "uint256",
					"name": "jobId",
					"type": "uint256"
				}
			],
			"name": "cancelJob",
			"outputs": [
				{
					"internalType": "bool",
					"name": "",
					"type": "bool"
				}
			],
			"stateMutability": "nonpayable",
			"type": "function"
		},
		{
			"inputs": [
				{
					"internalType": "uint256",
					"name": "jobId",
					"type": "uint256"
				}
			],
			"name": "completeJob",
			"outputs": [],
			"stateMutability": "nonpayable",
			"type": "function"
		},
		{
			"inputs": [
				{
					"internalType": "uint256",
					"name": "jobId",
					"type": "uint256"
				},
				{
					"internalType": "uint256",
					"name": "milestoneIndex",
					"type": "uint256"
				}
			],
			"name": "completeMilestone_UnlockNext",
			"outputs": [],
			"stateMutability": "nonpayable",
			"type": "function"
		},
		{
			"inputs": [
				{
					"internalType": "uint256",
					"name": "jobId",
					"type": "uint256"
				},
				{
					"internalType": "string",
					"name": "reason",
					"type": "string"
				}
			],
			"name": "createDispute",
			"outputs": [],
			"stateMutability": "nonpayable",
			"type": "function"
		},
		{
			"inputs": [
				{
					"internalType": "uint256",
					"name": "jobId",
					"type": "uint256"
				}
			],
			"name": "fundJob",
			"outputs": [],
			"stateMutability": "payable",
			"type": "function"
		},
		{
			"inputs": [
				{
					"internalType": "uint256",
					"name": "jobId",
					"type": "uint256"
				},
				{
					"internalType": "uint256",
					"name": "applicantIndex",
					"type": "uint256"
				}
			],
			"name": "getApplicant",
			"outputs": [
				{
					"internalType": "address",
					"name": "applicant",
					"type": "address"
				}
			],
			"stateMutability": "view",
			"type": "function"
		},
		{
			"inputs": [
				{
					"internalType": "uint256",
					"name": "jobId",
					"type": "uint256"
				}
			],
			"name": "getApplicantCount",
			"outputs": [
				{
					"internalType": "uint256",
					"name": "count",
					"type": "uint256"
				}
			],
			"stateMutability": "view",
			"type": "function"
		},
		{
			"inputs": [
				{
					"internalType": "uint256",
					"name": "jobId",
					"type": "uint256"
				},
				{
					"internalType": "uint256",
					"name": "applicantIndex",
					"type": "uint256"
				}
			],
			"name": "getApplication",
			"outputs": [
				{
					"internalType": "address",
					"name": "applicant",
					"type": "address"
				},
				{
					"internalType": "string",
					"name": "proposalHash",
					"type": "string"
				}
			],
			"stateMutability": "view",
			"type": "function"
		},
		{
			"inputs": [
				{
					"internalType": "uint256",
					"name": "jobId",
					"type": "uint256"
				}
			],
			"name": "getJobDetails",
			"outputs": [
				{
					"internalType": "uint256",
					"name": "id",
					"type": "uint256"
				},
				{
					"internalType": "address",
					"name": "jobGiver",
					"type": "address"
				},
				{
					"internalType": "string",
					"name": "jobDetailHash",
					"type": "string"
				},
				{
					"internalType": "bool",
					"name": "isOpen",
					"type": "bool"
				},
				{
					"internalType": "bool",
					"name": "isCompleted",
					"type": "bool"
				},
				{
					"internalType": "address",
					"name": "selectedApplicant",
					"type": "address"
				},
				{
					"internalType": "uint256",
					"name": "currentMilestone",
					"type": "uint256"
				},
				{
					"internalType": "uint256",
					"name": "totalMilestones",
					"type": "uint256"
				},
				{
					"internalType": "uint256",
					"name": "totalPaid",
					"type": "uint256"
				},
				{
					"internalType": "uint256",
					"name": "applicantCount",
					"type": "uint256"
				}
			],
			"stateMutability": "view",
			"type": "function"
		},
		{
			"inputs": [
				{
					"internalType": "uint256",
					"name": "jobId",
					"type": "uint256"
				}
			],
			"name": "getJobPosting",
			"outputs": [
				{
					"internalType": "uint256",
					"name": "id",
					"type": "uint256"
				},
				{
					"internalType": "address",
					"name": "client",
					"type": "address"
				},
				{
					"internalType": "string",
					"name": "title",
					"type": "string"
				},
				{
					"internalType": "string",
					"name": "description",
					"type": "string"
				},
				{
					"internalType": "uint256",
					"name": "budget",
					"type": "uint256"
				},
				{
					"internalType": "uint256",
					"name": "deadline",
					"type": "uint256"
				},
				{
					"internalType": "uint256",
					"name": "createdAt",
					"type": "uint256"
				},
				{
					"internalType": "address",
					"name": "freelancer",
					"type": "address"
				},
				{
					"internalType": "uint256",
					"name": "status",
					"type": "uint256"
				},
				{
					"internalType": "uint256",
					"name": "completedAt",
					"type": "uint256"
				}
			],
			"stateMutability": "view",
			"type": "function"
		},
		{
			"inputs": [
				{
					"internalType": "uint256",
					"name": "jobId",
					"type": "uint256"
				},
				{
					"internalType": "uint256",
					"name": "milestoneIndex",
					"type": "uint256"
				}
			],
			"name": "getMilestone",
			"outputs": [
				{
					"internalType": "uint256",
					"name": "amount",
					"type": "uint256"
				},
				{
					"internalType": "bool",
					"name": "completed",
					"type": "bool"
				},
				{
					"internalType": "bool",
					"name": "paid",
					"type": "bool"
				}
			],
			"stateMutability": "view",
			"type": "function"
		},
		{
			"inputs": [
				{
					"internalType": "uint256",
					"name": "jobId",
					"type": "uint256"
				}
			],
			"name": "getMilestoneCount",
			"outputs": [
				{
					"internalType": "uint256",
					"name": "count",
					"type": "uint256"
				}
			],
			"stateMutability": "view",
			"type": "function"
		},
		{
			"inputs": [
				{
					"internalType": "uint256",
					"name": "jobId",
					"type": "uint256"
				},
				{
					"internalType": "address",
					"name": "applicant",
					"type": "address"
				}
			],
			"name": "getProposedMilestones",
			"outputs": [
				{
					"internalType": "bool",
					"name": "hasMilestoneProposal",
					"type": "bool"
				},
				{
					"internalType": "uint256[]",
					"name": "milestonePayments",
					"type": "uint256[]"
				},
				{
					"internalType": "string",
					"name": "milestoneDetailsHash",
					"type": "string"
				}
			],
			"stateMutability": "view",
			"type": "function"
		},
		{
			"inputs": [
				{
					"internalType": "uint256",
					"name": "jobId",
					"type": "uint256"
				}
			],
			"name": "getTotalMilestoneAmount",
			"outputs": [
				{
					"internalType": "uint256",
					"name": "totalAmount",
					"type": "uint256"
				}
			],
			"stateMutability": "view",
			"type": "function"
		},
		{
			"inputs": [
				{
					"internalType": "uint256",
					"name": "jobId",
					"type": "uint256"
				},
				{
					"internalType": "address",
					"name": "applicant",
					"type": "address"
				}
			],
			"name": "hasProposedMilestones",
			"outputs": [
				{
					"internalType": "bool",
					"name": "hasProposal",
					"type": "bool"
				}
			],
			"stateMutability": "view",
			"type": "function"
		},
		{
			"inputs": [],
			"name": "initialize",
			"outputs": [],
			"stateMutability": "nonpayable",
			"type": "function"
		},
		{
			"inputs": [
				{
					"internalType": "address",
					"name": "userRegistryAddress",
					"type": "address"
				},
				{
					"internalType": "address",
					"name": "earningsContractAddress",
					"type": "address"
				}
			],
			"name": "initializeWithContracts",
			"outputs": [],
			"stateMutability": "nonpayable",
			"type": "function"
		},
		{
			"inputs": [],
			"name": "isUserRegistryConfigured",
			"outputs": [
				{
					"internalType": "bool",
					"name": "",
					"type": "bool"
				}
			],
			"stateMutability": "view",
			"type": "function"
		},
		{
			"inputs": [
				{
					"internalType": "uint256",
					"name": "jobId",
					"type": "uint256"
				}
			],
			"name": "jobExists",
			"outputs": [
				{
					"internalType": "bool",
					"name": "exists",
					"type": "bool"
				}
			],
			"stateMutability": "view",
			"type": "function"
		},
		{
			"inputs": [
				{
					"internalType": "uint256",
					"name": "jobId",
					"type": "uint256"
				},
				{
					"internalType": "uint256",
					"name": "disputeId",
					"type": "uint256"
				}
			],
			"name": "lockDisputedFunds",
			"outputs": [
				{
					"internalType": "uint256",
					"name": "lockedAmount",
					"type": "uint256"
				}
			],
			"stateMutability": "nonpayable",
			"type": "function"
		},
		{
			"inputs": [
				{
					"internalType": "uint256",
					"name": "jobId",
					"type": "uint256"
				},
				{
					"internalType": "uint256",
					"name": "milestoneAmount",
					"type": "uint256"
				}
			],
			"name": "lockNextMilestoneInterchain",
			"outputs": [],
			"stateMutability": "nonpayable",
			"type": "function"
		},
		{
			"inputs": [],
			"name": "owner",
			"outputs": [
				{
					"internalType": "address",
					"name": "",
					"type": "address"
				}
			],
			"stateMutability": "view",
			"type": "function"
		},
		{
			"inputs": [
				{
					"internalType": "string",
					"name": "ipfsHash",
					"type": "string"
				},
				{
					"internalType": "uint256[]",
					"name": "milestones",
					"type": "uint256[]"
				}
			],
			"name": "postJob",
			"outputs": [
				{
					"internalType": "uint256",
					"name": "",
					"type": "uint256"
				}
			],
			"stateMutability": "nonpayable",
			"type": "function"
		},
		{
			"inputs": [],
			"name": "proxiableUUID",
			"outputs": [
				{
					"internalType": "bytes32",
					"name": "",
					"type": "bytes32"
				}
			],
			"stateMutability": "view",
			"type": "function"
		},
		{
			"inputs": [
				{
					"internalType": "uint256",
					"name": "submissionId",
					"type": "uint256"
				},
				{
					"internalType": "string",
					"name": "feedback",
					"type": "string"
				}
			],
			"name": "rejectWork",
			"outputs": [],
			"stateMutability": "nonpayable",
			"type": "function"
		},
		{
			"inputs": [
				{
					"internalType": "uint256",
					"name": "jobId",
					"type": "uint256"
				},
				{
					"internalType": "uint256",
					"name": "disputeId",
					"type": "uint256"
				},
				{
					"internalType": "uint256",
					"name": "winner",
					"type": "uint256"
				},
				{
					"internalType": "uint256",
					"name": "",
					"type": "uint256"
				},
				{
					"internalType": "uint256",
					"name": "amount",
					"type": "uint256"
				},
				{
					"internalType": "uint256",
					"name": "platformFee",
					"type": "uint256"
				}
			],
			"name": "releaseDisputedFunds",
			"outputs": [
				{
					"internalType": "bool",
					"name": "success",
					"type": "bool"
				}
			],
			"stateMutability": "nonpayable",
			"type": "function"
		},
		{
			"inputs": [
				{
					"internalType": "uint256",
					"name": "jobId",
					"type": "uint256"
				},
				{
					"internalType": "uint256",
					"name": "milestoneIndex",
					"type": "uint256"
				},
				{
					"internalType": "uint256",
					"name": "amountReleased",
					"type": "uint256"
				}
			],
			"name": "releasePaymentInterchain",
			"outputs": [],
			"stateMutability": "nonpayable",
			"type": "function"
		},
		{
			"inputs": [],
			"name": "renounceOwnership",
			"outputs": [],
			"stateMutability": "nonpayable",
			"type": "function"
		},
		{
			"inputs": [
				{
					"internalType": "uint256",
					"name": "jobId",
					"type": "uint256"
				},
				{
					"internalType": "bool",
					"name": "",
					"type": "bool"
				},
				{
					"internalType": "uint8",
					"name": "",
					"type": "uint8"
				}
			],
			"name": "resolveDispute",
			"outputs": [],
			"stateMutability": "view",
			"type": "function"
		},
		{
			"inputs": [
				{
					"internalType": "uint256",
					"name": "jobId",
					"type": "uint256"
				},
				{
					"internalType": "address",
					"name": "freelancer",
					"type": "address"
				}
			],
			"name": "selectApplicant",
			"outputs": [],
			"stateMutability": "payable",
			"type": "function"
		},
		{
			"inputs": [
				{
					"internalType": "address",
					"name": "earningsContractAddress",
					"type": "address"
				}
			],
			"name": "setEarningsContract",
			"outputs": [],
			"stateMutability": "nonpayable",
			"type": "function"
		},
		{
			"inputs": [
				{
					"internalType": "address",
					"name": "userRegistryAddress",
					"type": "address"
				}
			],
			"name": "setUserRegistryContract",
			"outputs": [],
			"stateMutability": "nonpayable",
			"type": "function"
		},
		{
			"inputs": [
				{
					"internalType": "uint256",
					"name": "jobId",
					"type": "uint256"
				},
				{
					"internalType": "address",
					"name": "applicant",
					"type": "address"
				},
				{
					"internalType": "bool",
					"name": "acceptProposedMilestones",
					"type": "bool"
				}
			],
			"name": "startJobInterChain",
			"outputs": [],
			"stateMutability": "nonpayable",
			"type": "function"
		},
		{
			"inputs": [
				{
					"internalType": "uint256",
					"name": "jobId",
					"type": "uint256"
				},
				{
					"internalType": "address",
					"name": "applicant",
					"type": "address"
				},
				{
					"internalType": "bool",
					"name": "acceptProposedMilestones",
					"type": "bool"
				}
			],
			"name": "startJobWithProposedMilestones",
			"outputs": [],
			"stateMutability": "payable",
			"type": "function"
		},
		{
			"inputs": [
				{
					"internalType": "uint256",
					"name": "jobId",
					"type": "uint256"
				},
				{
					"internalType": "address",
					"name": "applicant",
					"type": "address"
				}
			],
			"name": "startJob_LockMilestone1",
			"outputs": [],
			"stateMutability": "payable",
			"type": "function"
		},
		{
			"inputs": [
				{
					"internalType": "uint256",
					"name": "jobId",
					"type": "uint256"
				}
			],
			"name": "startNextMilestone",
			"outputs": [],
			"stateMutability": "payable",
			"type": "function"
		},
		{
			"inputs": [
				{
					"internalType": "uint256",
					"name": "jobId",
					"type": "uint256"
				},
				{
					"internalType": "string",
					"name": "workHash",
					"type": "string"
				},
				{
					"internalType": "string",
					"name": "comments",
					"type": "string"
				}
			],
			"name": "submitWork",
			"outputs": [
				{
					"internalType": "uint256",
					"name": "",
					"type": "uint256"
				}
			],
			"stateMutability": "nonpayable",
			"type": "function"
		},
		{
			"inputs": [
				{
					"internalType": "address",
					"name": "newOwner",
					"type": "address"
				}
			],
			"name": "transferOwnership",
			"outputs": [],
			"stateMutability": "nonpayable",
			"type": "function"
		},
		{
			"inputs": [
				{
					"internalType": "address",
					"name": "newImplementation",
					"type": "address"
				},
				{
					"internalType": "bytes",
					"name": "data",
					"type": "bytes"
				}
			],
			"name": "upgradeToAndCall",
			"outputs": [],
			"stateMutability": "payable",
			"type": "function"
		}
	]
}