{
	"data": {
		"bytecode": {
			"linkReferences": {},
			"object": "60a060405234801561001057600080fd5b50604051614fd5380380614fd583398101604081905261002f9161016f565b81818181806001600160a01b03811661006257604051631e4fbdf760e01b81526000600482015260240160405180910390fd5b61006b81610103565b506001600160a01b03808316608052811661009957604051632d618d8160e21b815260040160405180910390fd5b60805160405163ca5eb5e160e01b81526001600160a01b0383811660048301529091169063ca5eb5e190602401600060405180830381600087803b1580156100e057600080fd5b505af11580156100f4573d6000803e3d6000fd5b505050505050505050506101a2565b600080546001600160a01b038381166001600160a01b0319831681178455604051919092169283917f8be0079c531659141344cd1fd0a4f28419497f9722a3daafe3b4186f6b6457e09190a35050565b80516001600160a01b038116811461016a57600080fd5b919050565b6000806040838503121561018257600080fd5b61018b83610153565b915061019960208401610153565b90509250929050565b608051614e0a6101cb6000396000818161048101528181610b9601526127cf0152614e0a6000f3fe6080604052600436106102a75760003560e01c80639d89a1db11610164578063cd2abd66116100c6578063e18977671161008a578063f2fde38b11610064578063f2fde38b146108c7578063f4f824bb146108e7578063ff7bd03d1461090757600080fd5b8063e18977671461084a578063e5deef6d14610877578063ead39a111461089757600080fd5b8063cd2abd661461079a578063ced25488146107ca578063d9f76f62146107ea578063da8accf91461080a578063dc404aff1461082a57600080fd5b8063bb0b6a5311610128578063be001f6f11610102578063be001f6f1461073a578063bf22c4571461075a578063ca5eb5e11461077a57600080fd5b8063bb0b6a53146106a5578063bbbacdfc146106d2578063bbe156271461070a57600080fd5b80639d89a1db146105f5578063a787c80b14610615578063a83b083c14610645578063a89c094914610665578063b7a930831461068557600080fd5b80635abb964d1161020d57806380fc9c0e116101d15780638da5cb5b116101ab5780638da5cb5b1461059757806397e99a80146105b5578063992a80e4146105d557600080fd5b806380fc9c0e1461051b57806382413eac1461053b578063832a05b71461056a57600080fd5b80635abb964d1461044f5780635e280f111461046f578063715018a6146104bb5780637d25a05e146104d057806380cd25801461050857600080fd5b80632c317eb21161026f5780634cac35c6116102495780634cac35c6146103ce5780634d6861a6146103fb57806350355d761461042b57600080fd5b80632c317eb21461036e578063315e65421461038e5780633400288b146103ae57600080fd5b80630f53a470146102ac57806313137d65146102e257806317442b70146102f7578063180aedf314610319578063248506c31461034e575b600080fd5b3480156102b857600080fd5b506102cc6102c7366004613993565b610927565b6040516102d99190613a63565b60405180910390f35b6102f56102f0366004613b35565b610b94565b005b34801561030357600080fd5b50604080516001815260026020820152016102d9565b34801561032557600080fd5b50610339610334366004613bd6565b610c4f565b6040516102d999989796959493929190613bef565b34801561035a57600080fd5b506102f5610369366004613e22565b610d38565b34801561037a57600080fd5b506102f5610389366004613ea3565b610fdb565b34801561039a57600080fd5b506102f56103a9366004613ef2565b61116e565b3480156103ba57600080fd5b506102f56103c9366004613f2d565b61117d565b3480156103da57600080fd5b506103ee6103e9366004613bd6565b61118f565b6040516102d99190613fff565b34801561040757600080fd5b5061041b610416366004613bd6565b611603565b60405190151581526020016102d9565b34801561043757600080fd5b5061044160095481565b6040519081526020016102d9565b34801561045b57600080fd5b506102f561046a366004614128565b61164a565b34801561047b57600080fd5b506104a37f000000000000000000000000000000000000000000000000000000000000000081565b6040516001600160a01b0390911681526020016102d9565b3480156104c757600080fd5b506102f561165b565b3480156104dc57600080fd5b506104f06104eb366004613f2d565b61166f565b6040516001600160401b0390911681526020016102d9565b6102f5610516366004614198565b611678565b34801561052757600080fd5b50610441610536366004613993565b611684565b34801561054757600080fd5b5061041b6105563660046141f5565b6001600160a01b0381163014949350505050565b34801561057657600080fd5b5061058a610585366004613ef2565b61174b565b6040516102d9919061425b565b3480156105a357600080fd5b506000546001600160a01b03166104a3565b3480156105c157600080fd5b506102f56105d0366004613ef2565b6119d1565b3480156105e157600080fd5b506102f56105f03660046142cb565b6119dc565b34801561060157600080fd5b506102f56106103660046142f7565b6119e7565b34801561062157600080fd5b5061041b610630366004613993565b60036020526000908152604090205460ff1681565b34801561065157600080fd5b506102f561066036600461437a565b611db2565b34801561067157600080fd5b506102f56106803660046143b2565b611dba565b34801561069157600080fd5b506102f56106a03660046143fa565b612099565b3480156106b157600080fd5b506104416106c0366004614448565b60016020526000908152604090205481565b3480156106de57600080fd5b506104416106ed366004614463565b600760209081526000928352604080842090915290825290205481565b34801561071657600080fd5b5061072a610725366004613993565b612288565b6040516102d99493929190614493565b34801561074657600080fd5b506104416107553660046144d1565b61234d565b34801561076657600080fd5b506103ee610775366004613bd6565b61237e565b34801561078657600080fd5b506102f5610795366004613993565b6127a8565b3480156107a657600080fd5b5061041b6107b5366004613bd6565b600a6020526000908152604090205460ff1681565b3480156107d657600080fd5b506102f56107e53660046144ef565b61282e565b3480156107f657600080fd5b506102f561080536600461452d565b612b42565b34801561081657600080fd5b506102f5610825366004614562565b612caf565b34801561083657600080fd5b506102f561084536600461452d565b612cba565b34801561085657600080fd5b50610441610865366004613bd6565b60066020526000908152604090205481565b34801561088357600080fd5b506102f5610892366004614592565b612f0e565b3480156108a357600080fd5b506108b76108b2366004613ef2565b6130f1565b6040516102d994939291906145eb565b3480156108d357600080fd5b506102f56108e2366004613993565b6131b9565b3480156108f357600080fd5b506102f5610902366004614619565b6131f7565b34801561091357600080fd5b5061041b610922366004614661565b613203565b6040805160a08101825260008082526060602083018190529282018190528282015260808101919091526001600160a01b03821660009081526003602052604090205460ff166109b75760405162461bcd60e51b8152602060048201526016602482015275141c9bd99a5b1948191bd95cc81b9bdd08195e1a5cdd60521b60448201526064015b60405180910390fd5b6001600160a01b03808316600090815260026020908152604091829020825160a0810190935280549093168252600183018054929392918401916109fa9061467d565b80601f0160208091040260200160405190810160405280929190818152602001828054610a269061467d565b8015610a735780601f10610a4857610100808354040283529160200191610a73565b820191906000526020600020905b815481529060010190602001808311610a5657829003601f168201915b505050505081526020016002820160009054906101000a90046001600160a01b03166001600160a01b03166001600160a01b031681526020016003820154815260200160048201805480602002602001604051908101604052809291908181526020016000905b82821015610b86578382906000526020600020018054610af99061467d565b80601f0160208091040260200160405190810160405280929190818152602001828054610b259061467d565b8015610b725780601f10610b4757610100808354040283529160200191610b72565b820191906000526020600020905b815481529060010190602001808311610b5557829003601f168201915b505050505081526020019060010190610ada565b505050915250909392505050565b7f00000000000000000000000000000000000000000000000000000000000000006001600160a01b03163314610bdf576040516391ac5e4f60e01b81523360048201526024016109ae565b60208701803590610bf990610bf4908a614448565b613239565b14610c3757610c0b6020880188614448565b60405163309afaf360e21b815263ffffffff9091166004820152602088013560248201526044016109ae565b610c4687878787878787613275565b50505050505050565b60046020526000908152604090208054600182015460038301805492936001600160a01b0390921692610c819061467d565b80601f0160208091040260200160405190810160405280929190818152602001828054610cad9061467d565b8015610cfa5780601f10610ccf57610100808354040283529160200191610cfa565b820191906000526020600020905b815481529060010190602001808311610cdd57829003601f168201915b505050600484015460088501546009860154600a870154600b880154600c90980154969760ff90941696929550909350916001600160a01b03169089565b6001600160a01b03841660009081526003602052604090205460ff16610da05760405162461bcd60e51b815260206004820152601d60248201527f4d75737420686176652070726f66696c6520746f20706f7374206a6f6200000060448201526064016109ae565b6000825111610df15760405162461bcd60e51b815260206004820181905260248201527f4d7573742068617665206174206c65617374206f6e65206d696c6573746f6e6560448201526064016109ae565b6000805b8351811015610e3157838181518110610e1057610e106146b1565b60200260200101516020015182610e2791906146dd565b9150600101610df5565b50808214610e945760405162461bcd60e51b815260206004820152602a60248201527f5061796d656e74206d75737420657175616c20746f74616c206d696c6573746f6044820152696e6520616d6f756e747360b01b60648201526084016109ae565b60098054906000610ea4836146f0565b909155505060095460008181526004602052604090209081556001810180546001600160a01b0319166001600160a01b03881617905560038101610ee88682614750565b5060048101805460ff1916600117905560006008820181905560098201849055600a8201819055600b820180546001600160a01b0319169055600c82018190555b8451811015610f8e5781600601858281518110610f4857610f486146b1565b60209081029190910181015182546001810184556000938452919092208251600290920201908190610f7a9082614750565b506020919091015160019182015501610f29565b50856001600160a01b03166009547f874d4755e4be9f976c7833fc413deb77c1acbf096d6535b71953c36eb838cf4087604051610fcb9190614811565b60405180910390a3505050505050565b6001600160a01b03821660009081526003602052604090205460ff1661103c5760405162461bcd60e51b8152602060048201526016602482015275141c9bd99a5b1948191bd95cc81b9bdd08195e1a5cdd60521b60448201526064016109ae565b336001600160a01b038316146110a25760405162461bcd60e51b815260206004820152602560248201527f43616e206f6e6c792061646420706f7274666f6c696f20746f206f776e2070726044820152646f66696c6560d81b60648201526084016109ae565b60008151116110f35760405162461bcd60e51b815260206004820152601e60248201527f506f7274666f6c696f20686173682063616e6e6f7420626520656d707479000060448201526064016109ae565b6001600160a01b0382166000908152600260209081526040822060040180546001810182559083529120016111288282614750565b50816001600160a01b03167fcc18228e480194b6eb176cebd651be35a4eb3236a2461b112a3e89ea1b1c40dd826040516111629190614811565b60405180910390a25050565b611179338383612b42565b5050565b611185613773565b61117982826137a0565b611197613845565b60008281526004602052604081205490036111c45760405162461bcd60e51b81526004016109ae90614824565b60008281526004602090815260409182902082516101a0810184528154815260018201546001600160a01b0316818401526002820180548551818602810186018752818152929593949386019383018282801561124a57602002820191906000526020600020905b81546001600160a01b0316815260019091019060200180831161122c575b505050505081526020016003820180546112639061467d565b80601f016020809104026020016040519081016040528092919081815260200182805461128f9061467d565b80156112dc5780601f106112b1576101008083540402835291602001916112dc565b820191906000526020600020905b8154815290600101906020018083116112bf57829003601f168201915b5050509183525050600482015460ff161515602080830191909152600583018054604080518285028101850182528281529401939260009084015b828210156113c35783829060005260206000200180546113369061467d565b80601f01602080910402602001604051908101604052809291908181526020018280546113629061467d565b80156113af5780601f10611384576101008083540402835291602001916113af565b820191906000526020600020905b81548152906001019060200180831161139257829003601f168201915b505050505081526020019060010190611317565b50505050815260200160068201805480602002602001604051908101604052809291908181526020016000905b828210156114be57838290600052602060002090600202016040518060400160405290816000820180546114239061467d565b80601f016020809104026020016040519081016040528092919081815260200182805461144f9061467d565b801561149c5780601f106114715761010080835404028352916020019161149c565b820191906000526020600020905b81548152906001019060200180831161147f57829003601f168201915b50505050508152602001600182015481525050815260200190600101906113f0565b50505050815260200160078201805480602002602001604051908101604052809291908181526020016000905b828210156115b9578382906000526020600020906002020160405180604001604052908160008201805461151e9061467d565b80601f016020809104026020016040519081016040528092919081815260200182805461154a9061467d565b80156115975780601f1061156c57610100808354040283529160200191611597565b820191906000526020600020905b81548152906001019060200180831161157a57829003601f168201915b50505050508152602001600182015481525050815260200190600101906114eb565b505050908252506008820154602082015260098201546040820152600a8201546060820152600b8201546001600160a01b03166080820152600c9091015460a09091015292915050565b60008181526004602052604081205481036116305760405162461bcd60e51b81526004016109ae90614824565b506000908152600460208190526040909120015460ff1690565b611656338484846119e7565b505050565b611663613773565b61166d60006137f5565b565b60005b92915050565b61117933838334610d38565b6001600160a01b0381166000908152600860209081526040808320805482518185028101850190935280835284938301828280156116e157602002820191906000526020600020905b8154815260200190600101908083116116cd575b5050505050905080516000036116fa5750600092915050565b6000805b825181101561173657828181518110611719576117196146b1565b60200260200101518261172c91906146dd565b91506001016116fe565b5081516117439082614850565b949350505050565b6117866040518060a00160405280600081526020016000815260200160006001600160a01b0316815260200160608152602001606081525090565b600083815260056020908152604080832085845290915281205490036117ee5760405162461bcd60e51b815260206004820152601a60248201527f4170706c69636174696f6e20646f6573206e6f7420657869737400000000000060448201526064016109ae565b6000838152600560209081526040808320858452825291829020825160a0810184528154815260018201549281019290925260028101546001600160a01b03169282019290925260038201805491929160608401919061184d9061467d565b80601f01602080910402602001604051908101604052809291908181526020018280546118799061467d565b80156118c65780601f1061189b576101008083540402835291602001916118c6565b820191906000526020600020905b8154815290600101906020018083116118a957829003601f168201915b5050505050815260200160048201805480602002602001604051908101604052809291908181526020016000905b828210156119c257838290600052602060002090600202016040518060400160405290816000820180546119279061467d565b80601f01602080910402602001604051908101604052809291908181526020018280546119539061467d565b80156119a05780601f10611975576101008083540402835291602001916119a0565b820191906000526020600020905b81548152906001019060200180831161198357829003601f168201915b50505050508152602001600182015481525050815260200190600101906118f4565b50505091525090949350505050565b611179338383612cba565b61117933838361282e565b6001600160a01b03841660009081526003602052604090205460ff16611a4f5760405162461bcd60e51b815260206004820152601a60248201527f4d75737420686176652070726f66696c6520746f206170706c7900000000000060448201526064016109ae565b6000838152600460205260408120549003611a7c5760405162461bcd60e51b81526004016109ae90614824565b6000838152600460208190526040909120015460ff16611ad05760405162461bcd60e51b815260206004820152600f60248201526e2537b11034b9903737ba1037b832b760891b60448201526064016109ae565b6000838152600460205260409020600101546001600160a01b03808616911603611b3c5760405162461bcd60e51b815260206004820152601760248201527f43616e6e6f74206170706c7920746f206f776e206a6f6200000000000000000060448201526064016109ae565b6000815111611b995760405162461bcd60e51b815260206004820152602360248201527f4d7573742070726f706f7365206174206c65617374206f6e65206d696c6573746044820152626f6e6560e81b60648201526084016109ae565b60005b600084815260046020526040902060020154811015611c4e57600084815260046020526040902060020180546001600160a01b038716919083908110611be457611be46146b1565b6000918252602090912001546001600160a01b031603611c465760405162461bcd60e51b815260206004820152601b60248201527f416c7265616479206170706c69656420746f2074686973206a6f62000000000060448201526064016109ae565b600101611b9c565b50600083815260046020908152604080832060020180546001810182559084528284200180546001600160a01b0319166001600160a01b03891617905585835260069091528120805491611ca1836146f0565b909155505060008381526006602090815260408083205460058352818420818552909252909120818155600181018590556002810180546001600160a01b0319166001600160a01b03881617905560038101611cfd8582614750565b5060005b8351811015611d665781600401848281518110611d2057611d206146b1565b60209081029190910181015182546001810184556000938452919092208251600290920201908190611d529082614750565b506020919091015160019182015501611d01565b50856001600160a01b031682867f5753f04758d72c07ffc0a1f59241391a57ce340804ebdda56f510ef21e83ebf087604051611da29190614811565b60405180910390a4505050505050565b611656338484845b6000838152600460205260408120549003611de75760405162461bcd60e51b81526004016109ae90614824565b6000838152600460208190526040909120015460ff1615611e405760405162461bcd60e51b8152602060048201526013602482015272129bd8881b5d5cdd081899481cdd185c9d1959606a1b60448201526064016109ae565b60018110158015611e52575060058111155b611e9e5760405162461bcd60e51b815260206004820152601e60248201527f526174696e67206d757374206265206265747765656e203120616e642035000060448201526064016109ae565b60008381526007602090815260408083206001600160a01b038616845290915290205415611f0e5760405162461bcd60e51b815260206004820152601f60248201527f5573657220616c726561647920726174656420666f722074686973206a6f620060448201526064016109ae565b6000838152600460205260408120600101546001600160a01b038681169116148015611f5657506000848152600460205260409020600b01546001600160a01b038481169116145b15611f6357506001611fb4565b6000848152600460205260409020600b01546001600160a01b038681169116148015611fab57506000848152600460205260409020600101546001600160a01b038481169116145b15611fb4575060015b806120175760405162461bcd60e51b815260206004820152602d60248201527f4e6f7420617574686f72697a656420746f20726174652074686973207573657260448201526c103337b9103a3434b9903537b160991b60648201526084016109ae565b60008481526007602090815260408083206001600160a01b03878116808652918452828520879055600884528285208054600181018255908652948490209094018690559051858152909288169187917fabfdb5ca6197e86c57b31cffb45dac27a3eff08d7e825b6f1fb66c2c06fef6d7910160405180910390a45050505050565b60008281526004602052604081205490036120c65760405162461bcd60e51b81526004016109ae90614824565b6000828152600460208190526040909120015460ff161561211f5760405162461bcd60e51b8152602060048201526013602482015272129bd8881b5d5cdd081899481cdd185c9d1959606a1b60448201526064016109ae565b6000828152600460205260409020600b01546001600160a01b0384811691161461219b5760405162461bcd60e51b815260206004820152602760248201527f4f6e6c792073656c6563746564206170706c6963616e742063616e207375626d604482015266697420776f726b60c81b60648201526084016109ae565b60008281526004602052604090206007810154600a9091015411156121fd5760405162461bcd60e51b8152602060048201526018602482015277105b1b081b5a5b195cdd1bdb995cc818dbdb5c1b195d195960421b60448201526064016109ae565b6000828152600460209081526040822060050180546001810182559083529120016122288282614750565b50826001600160a01b0316827f1ab2c8b3db130b04659c610d59cd31e68a4d43f1e7b4cdb8e98d9571c9c6bfd68360046000878152602001908152602001600020600a015460405161227b929190614872565b60405180910390a3505050565b600260205260009081526040902080546001820180546001600160a01b0390921692916122b49061467d565b80601f01602080910402602001604051908101604052809291908181526020018280546122e09061467d565b801561232d5780601f106123025761010080835404028352916020019161232d565b820191906000526020600020905b81548152906001019060200180831161231057829003601f168201915b50505050600283015460039093015491926001600160a01b031691905084565b6008602052816000526040600020818154811061236957600080fd5b90600052602060002001600091509150505481565b612386613845565b60008281526004602052604081205490036123b35760405162461bcd60e51b81526004016109ae90614824565b60008281526004602090815260409182902082516101a0810184528154815260018201546001600160a01b0316818401526002820180548551818602810186018752818152929593949386019383018282801561243957602002820191906000526020600020905b81546001600160a01b0316815260019091019060200180831161241b575b505050505081526020016003820180546124529061467d565b80601f016020809104026020016040519081016040528092919081815260200182805461247e9061467d565b80156124cb5780601f106124a0576101008083540402835291602001916124cb565b820191906000526020600020905b8154815290600101906020018083116124ae57829003601f168201915b5050509183525050600482015460ff161515602080830191909152600583018054604080518285028101850182528281529401939260009084015b828210156125b25783829060005260206000200180546125259061467d565b80601f01602080910402602001604051908101604052809291908181526020018280546125519061467d565b801561259e5780601f106125735761010080835404028352916020019161259e565b820191906000526020600020905b81548152906001019060200180831161258157829003601f168201915b505050505081526020019060010190612506565b50505050815260200160068201805480602002602001604051908101604052809291908181526020016000905b828210156126ad57838290600052602060002090600202016040518060400160405290816000820180546126129061467d565b80601f016020809104026020016040519081016040528092919081815260200182805461263e9061467d565b801561268b5780601f106126605761010080835404028352916020019161268b565b820191906000526020600020905b81548152906001019060200180831161266e57829003601f168201915b50505050508152602001600182015481525050815260200190600101906125df565b50505050815260200160078201805480602002602001604051908101604052809291908181526020016000905b828210156115b9578382906000526020600020906002020160405180604001604052908160008201805461270d9061467d565b80601f01602080910402602001604051908101604052809291908181526020018280546127399061467d565b80156127865780601f1061275b57610100808354040283529160200191612786565b820191906000526020600020905b81548152906001019060200180831161276957829003601f168201915b50505050508152602001600182015481525050815260200190600101906126da565b6127b0613773565b60405163ca5eb5e160e01b81526001600160a01b0382811660048301527f0000000000000000000000000000000000000000000000000000000000000000169063ca5eb5e190602401600060405180830381600087803b15801561281357600080fd5b505af1158015612827573d6000803e3d6000fd5b5050505050565b600060015b600954811161287757600081815260056020908152604080832087845290915290205484900361286557809150612877565b8061286f816146f0565b915050612833565b50806000036128c85760405162461bcd60e51b815260206004820152601a60248201527f4170706c69636174696f6e20646f6573206e6f7420657869737400000000000060448201526064016109ae565b60008181526005602090815260408083208684528252808320848452600490925290912060018101546001600160a01b0387811691161461294b5760405162461bcd60e51b815260206004820152601c60248201527f4f6e6c79206a6f622067697665722063616e207374617274206a6f620000000060448201526064016109ae565b600481015460ff166129915760405162461bcd60e51b815260206004820152600f60248201526e2537b11034b9903737ba1037b832b760891b60448201526064016109ae565b60028201546001600160a01b03166129e15760405162461bcd60e51b815260206004820152601360248201527224b73b30b634b21030b8383634b1b0ba34b7b760691b60448201526064016109ae565b6002820154600b820180546001600160a01b0319166001600160a01b03909216919091179055600c810185905560048101805460ff191690556001600a8201558315612a935760005b6004830154811015612a8d5781600701836004018281548110612a4f57612a4f6146b1565b6000918252602080832084546001810186559484529220600291820290920192020180612a7c8382614894565b506001918201549082015501612a2a565b50612afb565b60005b6006820154811015612af95781600701826006018281548110612abb57612abb6146b1565b6000918252602080832084546001810186559484529220600291820290920192020180612ae88382614894565b506001918201549082015501612a96565b505b600282015460405185151581526001600160a01b0390911690869085907ffca563cb5e680cd8fe4d8893c20edf9cc5b59f6e8b460ecdad7aa359a786cf6590602001611da2565b6000828152600460205260408120549003612b6f5760405162461bcd60e51b81526004016109ae90614824565b6000828152600460208190526040909120015460ff1615612bc85760405162461bcd60e51b8152602060048201526013602482015272129bd8881b5d5cdd081899481cdd185c9d1959606a1b60448201526064016109ae565b60008281526004602052604090206007810154600a9091015410612c2e5760405162461bcd60e51b815260206004820181905260248201527f416c6c206d696c6573746f6e657320616c726561647920636f6d706c6574656460448201526064016109ae565b6000828152600460205260408120600a01805460019290612c509084906146dd565b909155505060008281526004602090815260409182902060098101849055600a0154825190815290810183905283917fe60846a8f6e10630b3d17d79f8aa4962e7a3abe024c788262ec30bc55d17b797910160405180910390a2505050565b611179338383612099565b6000828152600460205260408120549003612ce75760405162461bcd60e51b81526004016109ae90614824565b6000828152600460205260409020600101546001600160a01b03848116911614612d5e5760405162461bcd60e51b815260206004820152602260248201527f4f6e6c79206a6f622067697665722063616e2072656c65617365207061796d656044820152611b9d60f21b60648201526084016109ae565b6000828152600460208190526040909120015460ff1615612db75760405162461bcd60e51b8152602060048201526013602482015272129bd8881b5d5cdd081899481cdd185c9d1959606a1b60448201526064016109ae565b6000828152600460205260409020600b01546001600160a01b0316612e1e5760405162461bcd60e51b815260206004820152601560248201527f4e6f206170706c6963616e742073656c6563746564000000000000000000000060448201526064016109ae565b60008281526004602052604090206007810154600a909101541115612e805760405162461bcd60e51b8152602060048201526018602482015277105b1b081b5a5b195cdd1bdb995cc818dbdb5c1b195d195960421b60448201526064016109ae565b60008281526004602052604081206008018054839290612ea19084906146dd565b9091555050600082815260046020908152604091829020600b810154600a909101548351858152928301526001600160a01b03908116929086169185917fd6879b8e4639bf88a9ca9e3122b381ed4a48625f051842c7e6885f72ef00f479910160405180910390a4505050565b6001600160a01b03841660009081526003602052604090205460ff1615612f775760405162461bcd60e51b815260206004820152601660248201527f50726f66696c6520616c7265616479206578697374730000000000000000000060448201526064016109ae565b6040518060a00160405280856001600160a01b03168152602001848152602001836001600160a01b0316815260200182815260200160006001600160401b03811115612fc557612fc5613c56565b604051908082528060200260200182016040528015612ff857816020015b6060815260200190600190039081612fe35790505b5090526001600160a01b038581166000908152600260209081526040909120835181546001600160a01b0319169316929092178255820151600182019061303f9082614750565b5060408201516002820180546001600160a01b0319166001600160a01b03909216919091179055606082015160038201556080820151805161308b9160048401916020909101906138c1565b5050506001600160a01b03841660008181526003602052604090819020805460ff19166001179055517f5874afb0d71e1f97e546fc6b15493e51e5ccbefa591556f8c6a80c8c5151a84f906130e39086908690614968565b60405180910390a250505050565b60056020908152600092835260408084209091529082529020805460018201546002830154600384018054939492936001600160a01b0390921692916131369061467d565b80601f01602080910402602001604051908101604052809291908181526020018280546131629061467d565b80156131af5780601f10613184576101008083540402835291602001916131af565b820191906000526020600020905b81548152906001019060200180831161319257829003601f168201915b5050505050905084565b6131c1613773565b6001600160a01b0381166131eb57604051631e4fbdf760e01b8152600060048201526024016109ae565b6131f4816137f5565b50565b61165633848484612f0e565b600060208201803590600190839061321b9086614448565b63ffffffff1681526020810191909152604001600020541492915050565b63ffffffff8116600090815260016020526040812054806116725760405163f6ff4fb760e01b815263ffffffff841660048201526024016109ae565b6000868152600a602052604090205460ff16156132d45760405162461bcd60e51b815260206004820152601860248201527f4d65737361676520616c7265616479206578656375746564000000000000000060448201526064016109ae565b6000868152600a60205260408120805460ff191660011790556132f985870187614993565b9050336001600160a01b03168160405161331391906149c7565b6040519081900381209089907f5a6cc5a65c270a83d2964f1dc0d5b6b345c1aceb3f47ccba69bc75717630512690600090a460408051808201909152600e81526d4352454154455f50524f46494c4560901b6020918201528151908201207fa4c6c5d741cc3b640f2d5a849409552e25d1193d542af6c32b92e821b8923236016133c65760008080806133a8898b018b6149e3565b9450945094509450506133bd84848484612f0e565b50505050613769565b6040805180820190915260088152672827a9aa2fa527a160c11b6020918201528151908201207f0c3ef3e378689bb49c52bf3c6c3b1e2ae10691385a691cf00d777c75763414bd01613438576000808080613423898b018b614a77565b9450945094509450506133bd84848484610d38565b60408051808201909152600c81526b20a828262cafaa27afa527a160a11b6020918201528151908201207fc2d7c2b4ddee35e9c9c488d48ea07c3dfd0eb23f7f722aa027797ecd0439c9a7016134ae576000808080613499898b018b614b23565b9450945094509450506133bd848484846119e7565b60408051808201909152600981526829aa20a92a2fa527a160b91b6020918201528151908201207f958ad0391719420fc13ce18673c271b3c10483b1ded1d897959e64c0226b063601613525576000808061350b888a018a614bd1565b9350935093505061351d83838361282e565b505050613769565b60408051808201909152600b81526a5355424d49545f574f524b60a81b6020918201528151908201207fa1727a5db69ab5f66aa3130f3696b97337cd1494e442d1fbcca529fa9db6d31b016135965760008080613584888a018a614c3a565b9350935093505061351d838383612099565b60408051808201909152600f81526e149153115054d157d4105653515395608a1b6020918201528151908201207f5993f055a8b2e0091d9e95bc098f92190a2f1e485b255835f749b7c6cba1e30b0161360b57600080806135f9888a018a614cb1565b9350935093505061351d838383612cba565b6040805180820190915260138152724c4f434b5f4e4558545f4d494c4553544f4e4560681b6020918201528151908201207f92cdf19ab628ce526bae7529871630c52245f0976fe1eaa034700baa4b49aa16016136845760008080613672888a018a614cb1565b9350935093505061351d838383612b42565b6040805180820190915260098152682920aa22afaaa9a2a960b91b6020918201528151908201207f14c18a97b33195108aeef431d93081248a69532971fb84f3b8c1edc0d9d404d1016136f75760008080806136e2898b018b614d0f565b9450945094509450506133bd84848484611dba565b60408051808201909152600d81526c4144445f504f5254464f4c494f60981b6020918201528151908201207fbf9ce5c45a543f06fb7259612afbf5ddcbf73e06dd8753717dff4f12c5b21989016137695760008061375787890189614d71565b92509250506137668282610fdb565b50505b5050505050505050565b6000546001600160a01b0316331461166d5760405163118cdaa760e01b81523360048201526024016109ae565b63ffffffff8216600081815260016020908152604091829020849055815192835282018390527f238399d427b947898edb290f5ff0f9109849b1c3ba196a42e35f00c50a54b98b910160405180910390a15050565b600080546001600160a01b038381166001600160a01b0319831681178455604051919092169283917f8be0079c531659141344cd1fd0a4f28419497f9722a3daafe3b4186f6b6457e09190a35050565b604051806101a001604052806000815260200160006001600160a01b03168152602001606081526020016060815260200160001515815260200160608152602001606081526020016060815260200160008152602001600081526020016000815260200160006001600160a01b03168152602001600081525090565b828054828255906000526020600020908101928215613907579160200282015b8281111561390757825182906138f79082614750565b50916020019190600101906138e1565b50613913929150613917565b5090565b8082111561391357600061392b8282613934565b50600101613917565b5080546139409061467d565b6000825580601f10613950575050565b601f0160209004906000526020600020908101906131f491905b80821115613913576000815560010161396a565b6001600160a01b03811681146131f457600080fd5b6000602082840312156139a557600080fd5b81356139b08161397e565b9392505050565b60005b838110156139d25781810151838201526020016139ba565b50506000910152565b600081518084526139f38160208601602086016139b7565b601f01601f19169290920160200192915050565b600082825180855260208501945060208160051b8301016020850160005b83811015613a5757601f19858403018852613a418383516139db565b6020988901989093509190910190600101613a25565b50909695505050505050565b602081526001600160a01b0382511660208201526000602083015160a06040840152613a9260c08401826139db565b90506001600160a01b036040850151166060840152606084015160808401526080840151601f198483030160a0850152613acc8282613a07565b95945050505050565b600060608284031215613ae757600080fd5b50919050565b60008083601f840112613aff57600080fd5b5081356001600160401b03811115613b1657600080fd5b602083019150836020828501011115613b2e57600080fd5b9250929050565b600080600080600080600060e0888a031215613b5057600080fd5b613b5a8989613ad5565b96506060880135955060808801356001600160401b03811115613b7c57600080fd5b613b888a828b01613aed565b90965094505060a0880135613b9c8161397e565b925060c08801356001600160401b03811115613bb757600080fd5b613bc38a828b01613aed565b989b979a50959850939692959293505050565b600060208284031215613be857600080fd5b5035919050565b8981526001600160a01b038916602082015261012060408201526000613c1961012083018a6139db565b971515606083015250608081019590955260a085019390935260c08401919091526001600160a01b031660e0830152610100909101529392505050565b634e487b7160e01b600052604160045260246000fd5b604080519081016001600160401b0381118282101715613c8e57613c8e613c56565b60405290565b604051601f8201601f191681016001600160401b0381118282101715613cbc57613cbc613c56565b604052919050565b600082601f830112613cd557600080fd5b81356001600160401b03811115613cee57613cee613c56565b613d01601f8201601f1916602001613c94565b818152846020838601011115613d1657600080fd5b816020850160208301376000918101602001919091529392505050565b600082601f830112613d4457600080fd5b81356001600160401b03811115613d5d57613d5d613c56565b8060051b613d6d60208201613c94565b91825260208185018101929081019086841115613d8957600080fd5b6020860192505b83831015613e185782356001600160401b03811115613dae57600080fd5b86016040818903601f19011215613dc457600080fd5b613dcc613c6c565b60208201356001600160401b03811115613de557600080fd5b613df48a602083860101613cc4565b82525060409190910135602080830191909152908352928301929190910190613d90565b9695505050505050565b60008060008060808587031215613e3857600080fd5b8435613e438161397e565b935060208501356001600160401b03811115613e5e57600080fd5b613e6a87828801613cc4565b93505060408501356001600160401b03811115613e8657600080fd5b613e9287828801613d33565b949793965093946060013593505050565b60008060408385031215613eb657600080fd5b8235613ec18161397e565b915060208301356001600160401b03811115613edc57600080fd5b613ee885828601613cc4565b9150509250929050565b60008060408385031215613f0557600080fd5b50508035926020909101359150565b803563ffffffff81168114613f2857600080fd5b919050565b60008060408385031215613f4057600080fd5b613f4983613f14565b946020939093013593505050565b600081518084526020840193506020830160005b82811015613f925781516001600160a01b0316865260209586019590910190600101613f6b565b5093949350505050565b600082825180855260208501945060208160051b8301016020850160005b83811015613a5757601f198584030188528151805160408552613fe060408601826139db565b6020928301519583019590955250978801979190910190600101613fba565b60208152815160208201526000602083015161402660408401826001600160a01b03169052565b5060408301516101a060608401526140426101c0840182613f57565b90506060840151601f1984830301608085015261405f82826139db565b915050608084015161407560a085018215159052565b5060a0840151838203601f190160c08501526140918282613a07565b91505060c0840151601f198483030160e08501526140af8282613f9c565b91505060e0840151601f19848303016101008501526140ce8282613f9c565b9150506101008401516101208401526101208401516101408401526101408401516101608401526101608401516141116101808501826001600160a01b03169052565b506101808401516101a08401528091505092915050565b60008060006060848603121561413d57600080fd5b8335925060208401356001600160401b0381111561415a57600080fd5b61416686828701613cc4565b92505060408401356001600160401b0381111561418257600080fd5b61418e86828701613d33565b9150509250925092565b600080604083850312156141ab57600080fd5b82356001600160401b038111156141c157600080fd5b6141cd85828601613cc4565b92505060208301356001600160401b038111156141e957600080fd5b613ee885828601613d33565b60008060008060a0858703121561420b57600080fd5b6142158686613ad5565b935060608501356001600160401b0381111561423057600080fd5b61423c87828801613aed565b90945092505060808501356142508161397e565b939692955090935050565b6020815281516020820152602082015160408201526001600160a01b0360408301511660608201526000606083015160a0608084015261429e60c08401826139db565b90506080840151601f198483030160a0850152613acc8282613f9c565b80358015158114613f2857600080fd5b600080604083850312156142de57600080fd5b823591506142ee602084016142bb565b90509250929050565b6000806000806080858703121561430d57600080fd5b84356143188161397e565b93506020850135925060408501356001600160401b0381111561433a57600080fd5b61434687828801613cc4565b92505060608501356001600160401b0381111561436257600080fd5b61436e87828801613d33565b91505092959194509250565b60008060006060848603121561438f57600080fd5b8335925060208401356143a18161397e565b929592945050506040919091013590565b600080600080608085870312156143c857600080fd5b84356143d38161397e565b93506020850135925060408501356143ea8161397e565b9396929550929360600135925050565b60008060006060848603121561440f57600080fd5b833561441a8161397e565b92506020840135915060408401356001600160401b0381111561443c57600080fd5b61418e86828701613cc4565b60006020828403121561445a57600080fd5b6139b082613f14565b6000806040838503121561447657600080fd5b8235915060208301356144888161397e565b809150509250929050565b6001600160a01b03851681526080602082015260006144b560808301866139db565b6001600160a01b03949094166040830152506060015292915050565b600080604083850312156144e457600080fd5b8235613f498161397e565b60008060006060848603121561450457600080fd5b833561450f8161397e565b925060208401359150614524604085016142bb565b90509250925092565b60008060006060848603121561454257600080fd5b833561454d8161397e565b95602085013595506040909401359392505050565b6000806040838503121561457557600080fd5b8235915060208301356001600160401b03811115613edc57600080fd5b600080600080608085870312156145a857600080fd5b84356145b38161397e565b935060208501356001600160401b038111156145ce57600080fd5b6145da87828801613cc4565b93505060408501356143ea8161397e565b8481528360208201526001600160a01b0383166040820152608060608201526000613e1860808301846139db565b60008060006060848603121561462e57600080fd5b83356001600160401b0381111561464457600080fd5b61465086828701613cc4565b93505060208401356143a18161397e565b60006060828403121561467357600080fd5b6139b08383613ad5565b600181811c9082168061469157607f821691505b602082108103613ae757634e487b7160e01b600052602260045260246000fd5b634e487b7160e01b600052603260045260246000fd5b634e487b7160e01b600052601160045260246000fd5b80820180821115611672576116726146c7565b600060018201614702576147026146c7565b5060010190565b601f82111561165657806000526020600020601f840160051c810160208510156147305750805b601f840160051c820191505b81811015612827576000815560010161473c565b81516001600160401b0381111561476957614769613c56565b61477d81614777845461467d565b84614709565b6020601f8211600181146147b457600083156147995750848201515b600184901b600019600386901b1c198216175b855550612827565b600084815260208120601f198516915b828110156147e457878501518255602094850194600190920191016147c4565b50848210156148025786840151600019600387901b60f8161c191681555b50505050600190811b01905550565b6020815260006139b060208301846139db565b602080825260129082015271129bd888191bd95cc81b9bdd08195e1a5cdd60721b604082015260600190565b60008261486d57634e487b7160e01b600052601260045260246000fd5b500490565b60408152600061488560408301856139db565b90508260208301529392505050565b81810361489f575050565b6148a9825461467d565b6001600160401b038111156148c0576148c0613c56565b6148ce81614777845461467d565b6000601f8211600181146149005760008315614799575081850154600184901b600019600386901b1c198216176147ac565b600085815260209020601f19841690600086815260209020845b8381101561493a578286015482556001958601959091019060200161491a565b50858310156149585781850154600019600388901b60f8161c191681555b5050505050600190811b01905550565b60408152600061497b60408301856139db565b90506001600160a01b03831660208301529392505050565b6000602082840312156149a557600080fd5b81356001600160401b038111156149bb57600080fd5b61174384828501613cc4565b600082516149d98184602087016139b7565b9190910192915050565b600080600080600060a086880312156149fb57600080fd5b85356001600160401b03811115614a1157600080fd5b614a1d88828901613cc4565b9550506020860135614a2e8161397e565b935060408601356001600160401b03811115614a4957600080fd5b614a5588828901613cc4565b9350506060860135614a668161397e565b949793965091946080013592915050565b600080600080600060a08688031215614a8f57600080fd5b85356001600160401b03811115614aa557600080fd5b614ab188828901613cc4565b9550506020860135614ac28161397e565b935060408601356001600160401b03811115614add57600080fd5b614ae988828901613cc4565b93505060608601356001600160401b03811115614b0557600080fd5b614b1188828901613d33565b95989497509295608001359392505050565b600080600080600060a08688031215614b3b57600080fd5b85356001600160401b03811115614b5157600080fd5b614b5d88828901613cc4565b9550506020860135614b6e8161397e565b93506040860135925060608601356001600160401b03811115614b9057600080fd5b614b9c88828901613cc4565b92505060808601356001600160401b03811115614bb857600080fd5b614bc488828901613d33565b9150509295509295909350565b60008060008060808587031215614be757600080fd5b84356001600160401b03811115614bfd57600080fd5b614c0987828801613cc4565b9450506020850135614c1a8161397e565b925060408501359150614c2f606086016142bb565b905092959194509250565b60008060008060808587031215614c5057600080fd5b84356001600160401b03811115614c6657600080fd5b614c7287828801613cc4565b9450506020850135614c838161397e565b92506040850135915060608501356001600160401b03811115614ca557600080fd5b61436e87828801613cc4565b60008060008060808587031215614cc757600080fd5b84356001600160401b03811115614cdd57600080fd5b614ce987828801613cc4565b9450506020850135614cfa8161397e565b93969395505050506040820135916060013590565b600080600080600060a08688031215614d2757600080fd5b85356001600160401b03811115614d3d57600080fd5b614d4988828901613cc4565b9550506020860135614d5a8161397e565b9350604086013592506060860135614a668161397e565b600080600060608486031215614d8657600080fd5b83356001600160401b03811115614d9c57600080fd5b614da886828701613cc4565b9350506020840135614db98161397e565b915060408401356001600160401b0381111561443c57600080fdfea26469706673582212202678c3763d0cedf6f95eb3e7d6d7fae3192671b3da45b135c7d895cf8856dd6364736f6c634300081c0033",
			"opcodes": "PUSH1 0xA0 PUSH1 0x40 MSTORE CALLVALUE DUP1 ISZERO PUSH2 0x10 JUMPI PUSH1 0x0 DUP1 REVERT JUMPDEST POP PUSH1 0x40 MLOAD PUSH2 0x4FD5 CODESIZE SUB DUP1 PUSH2 0x4FD5 DUP4 CODECOPY DUP2 ADD PUSH1 0x40 DUP2 SWAP1 MSTORE PUSH2 0x2F SWAP2 PUSH2 0x16F JUMP JUMPDEST DUP2 DUP2 DUP2 DUP2 DUP1 PUSH1 0x1 PUSH1 0x1 PUSH1 0xA0 SHL SUB DUP2 AND PUSH2 0x62 JUMPI PUSH1 0x40 MLOAD PUSH4 0x1E4FBDF7 PUSH1 0xE0 SHL DUP2 MSTORE PUSH1 0x0 PUSH1 0x4 DUP3 ADD MSTORE PUSH1 0x24 ADD PUSH1 0x40 MLOAD DUP1 SWAP2 SUB SWAP1 REVERT JUMPDEST PUSH2 0x6B DUP2 PUSH2 0x103 JUMP JUMPDEST POP PUSH1 0x1 PUSH1 0x1 PUSH1 0xA0 SHL SUB DUP1 DUP4 AND PUSH1 0x80 MSTORE DUP2 AND PUSH2 0x99 JUMPI PUSH1 0x40 MLOAD PUSH4 0x2D618D81 PUSH1 0xE2 SHL DUP2 MSTORE PUSH1 0x4 ADD PUSH1 0x40 MLOAD DUP1 SWAP2 SUB SWAP1 REVERT JUMPDEST PUSH1 0x80 MLOAD PUSH1 0x40 MLOAD PUSH4 0xCA5EB5E1 PUSH1 0xE0 SHL DUP2 MSTORE PUSH1 0x1 PUSH1 0x1 PUSH1 0xA0 SHL SUB DUP4 DUP2 AND PUSH1 0x4 DUP4 ADD MSTORE SWAP1 SWAP2 AND SWAP1 PUSH4 0xCA5EB5E1 SWAP1 PUSH1 0x24 ADD PUSH1 0x0 PUSH1 0x40 MLOAD DUP1 DUP4 SUB DUP2 PUSH1 0x0 DUP8 DUP1 EXTCODESIZE ISZERO DUP1 ISZERO PUSH2 0xE0 JUMPI PUSH1 0x0 DUP1 REVERT JUMPDEST POP GAS CALL ISZERO DUP1 ISZERO PUSH2 0xF4 JUMPI RETURNDATASIZE PUSH1 0x0 DUP1 RETURNDATACOPY RETURNDATASIZE PUSH1 0x0 REVERT JUMPDEST POP POP POP POP POP POP POP POP POP POP PUSH2 0x1A2 JUMP JUMPDEST PUSH1 0x0 DUP1 SLOAD PUSH1 0x1 PUSH1 0x1 PUSH1 0xA0 SHL SUB DUP4 DUP2 AND PUSH1 0x1 PUSH1 0x1 PUSH1 0xA0 SHL SUB NOT DUP4 AND DUP2 OR DUP5 SSTORE PUSH1 0x40 MLOAD SWAP2 SWAP1 SWAP3 AND SWAP3 DUP4 SWAP2 PUSH32 0x8BE0079C531659141344CD1FD0A4F28419497F9722A3DAAFE3B4186F6B6457E0 SWAP2 SWAP1 LOG3 POP POP JUMP JUMPDEST DUP1 MLOAD PUSH1 0x1 PUSH1 0x1 PUSH1 0xA0 SHL SUB DUP2 AND DUP2 EQ PUSH2 0x16A JUMPI PUSH1 0x0 DUP1 REVERT JUMPDEST SWAP2 SWAP1 POP JUMP JUMPDEST PUSH1 0x0 DUP1 PUSH1 0x40 DUP4 DUP6 SUB SLT ISZERO PUSH2 0x182 JUMPI PUSH1 0x0 DUP1 REVERT JUMPDEST PUSH2 0x18B DUP4 PUSH2 0x153 JUMP JUMPDEST SWAP2 POP PUSH2 0x199 PUSH1 0x20 DUP5 ADD PUSH2 0x153 JUMP JUMPDEST SWAP1 POP SWAP3 POP SWAP3 SWAP1 POP JUMP JUMPDEST PUSH1 0x80 MLOAD PUSH2 0x4E0A PUSH2 0x1CB PUSH1 0x0 CODECOPY PUSH1 0x0 DUP2 DUP2 PUSH2 0x481 ADD MSTORE DUP2 DUP2 PUSH2 0xB96 ADD MSTORE PUSH2 0x27CF ADD MSTORE PUSH2 0x4E0A PUSH1 0x0 RETURN INVALID PUSH1 0x80 PUSH1 0x40 MSTORE PUSH1 0x4 CALLDATASIZE LT PUSH2 0x2A7 JUMPI PUSH1 0x0 CALLDATALOAD PUSH1 0xE0 SHR DUP1 PUSH4 0x9D89A1DB GT PUSH2 0x164 JUMPI DUP1 PUSH4 0xCD2ABD66 GT PUSH2 0xC6 JUMPI DUP1 PUSH4 0xE1897767 GT PUSH2 0x8A JUMPI DUP1 PUSH4 0xF2FDE38B GT PUSH2 0x64 JUMPI DUP1 PUSH4 0xF2FDE38B EQ PUSH2 0x8C7 JUMPI DUP1 PUSH4 0xF4F824BB EQ PUSH2 0x8E7 JUMPI DUP1 PUSH4 0xFF7BD03D EQ PUSH2 0x907 JUMPI PUSH1 0x0 DUP1 REVERT JUMPDEST DUP1 PUSH4 0xE1897767 EQ PUSH2 0x84A JUMPI DUP1 PUSH4 0xE5DEEF6D EQ PUSH2 0x877 JUMPI DUP1 PUSH4 0xEAD39A11 EQ PUSH2 0x897 JUMPI PUSH1 0x0 DUP1 REVERT JUMPDEST DUP1 PUSH4 0xCD2ABD66 EQ PUSH2 0x79A JUMPI DUP1 PUSH4 0xCED25488 EQ PUSH2 0x7CA JUMPI DUP1 PUSH4 0xD9F76F62 EQ PUSH2 0x7EA JUMPI DUP1 PUSH4 0xDA8ACCF9 EQ PUSH2 0x80A JUMPI DUP1 PUSH4 0xDC404AFF EQ PUSH2 0x82A JUMPI PUSH1 0x0 DUP1 REVERT JUMPDEST DUP1 PUSH4 0xBB0B6A53 GT PUSH2 0x128 JUMPI DUP1 PUSH4 0xBE001F6F GT PUSH2 0x102 JUMPI DUP1 PUSH4 0xBE001F6F EQ PUSH2 0x73A JUMPI DUP1 PUSH4 0xBF22C457 EQ PUSH2 0x75A JUMPI DUP1 PUSH4 0xCA5EB5E1 EQ PUSH2 0x77A JUMPI PUSH1 0x0 DUP1 REVERT JUMPDEST DUP1 PUSH4 0xBB0B6A53 EQ PUSH2 0x6A5 JUMPI DUP1 PUSH4 0xBBBACDFC EQ PUSH2 0x6D2 JUMPI DUP1 PUSH4 0xBBE15627 EQ PUSH2 0x70A JUMPI PUSH1 0x0 DUP1 REVERT JUMPDEST DUP1 PUSH4 0x9D89A1DB EQ PUSH2 0x5F5 JUMPI DUP1 PUSH4 0xA787C80B EQ PUSH2 0x615 JUMPI DUP1 PUSH4 0xA83B083C EQ PUSH2 0x645 JUMPI DUP1 PUSH4 0xA89C0949 EQ PUSH2 0x665 JUMPI DUP1 PUSH4 0xB7A93083 EQ PUSH2 0x685 JUMPI PUSH1 0x0 DUP1 REVERT JUMPDEST DUP1 PUSH4 0x5ABB964D GT PUSH2 0x20D JUMPI DUP1 PUSH4 0x80FC9C0E GT PUSH2 0x1D1 JUMPI DUP1 PUSH4 0x8DA5CB5B GT PUSH2 0x1AB JUMPI DUP1 PUSH4 0x8DA5CB5B EQ PUSH2 0x597 JUMPI DUP1 PUSH4 0x97E99A80 EQ PUSH2 0x5B5 JUMPI DUP1 PUSH4 0x992A80E4 EQ PUSH2 0x5D5 JUMPI PUSH1 0x0 DUP1 REVERT JUMPDEST DUP1 PUSH4 0x80FC9C0E EQ PUSH2 0x51B JUMPI DUP1 PUSH4 0x82413EAC EQ PUSH2 0x53B JUMPI DUP1 PUSH4 0x832A05B7 EQ PUSH2 0x56A JUMPI PUSH1 0x0 DUP1 REVERT JUMPDEST DUP1 PUSH4 0x5ABB964D EQ PUSH2 0x44F JUMPI DUP1 PUSH4 0x5E280F11 EQ PUSH2 0x46F JUMPI DUP1 PUSH4 0x715018A6 EQ PUSH2 0x4BB JUMPI DUP1 PUSH4 0x7D25A05E EQ PUSH2 0x4D0 JUMPI DUP1 PUSH4 0x80CD2580 EQ PUSH2 0x508 JUMPI PUSH1 0x0 DUP1 REVERT JUMPDEST DUP1 PUSH4 0x2C317EB2 GT PUSH2 0x26F JUMPI DUP1 PUSH4 0x4CAC35C6 GT PUSH2 0x249 JUMPI DUP1 PUSH4 0x4CAC35C6 EQ PUSH2 0x3CE JUMPI DUP1 PUSH4 0x4D6861A6 EQ PUSH2 0x3FB JUMPI DUP1 PUSH4 0x50355D76 EQ PUSH2 0x42B JUMPI PUSH1 0x0 DUP1 REVERT JUMPDEST DUP1 PUSH4 0x2C317EB2 EQ PUSH2 0x36E JUMPI DUP1 PUSH4 0x315E6542 EQ PUSH2 0x38E JUMPI DUP1 PUSH4 0x3400288B EQ PUSH2 0x3AE JUMPI PUSH1 0x0 DUP1 REVERT JUMPDEST DUP1 PUSH4 0xF53A470 EQ PUSH2 0x2AC JUMPI DUP1 PUSH4 0x13137D65 EQ PUSH2 0x2E2 JUMPI DUP1 PUSH4 0x17442B70 EQ PUSH2 0x2F7 JUMPI DUP1 PUSH4 0x180AEDF3 EQ PUSH2 0x319 JUMPI DUP1 PUSH4 0x248506C3 EQ PUSH2 0x34E JUMPI JUMPDEST PUSH1 0x0 DUP1 REVERT JUMPDEST CALLVALUE DUP1 ISZERO PUSH2 0x2B8 JUMPI PUSH1 0x0 DUP1 REVERT JUMPDEST POP PUSH2 0x2CC PUSH2 0x2C7 CALLDATASIZE PUSH1 0x4 PUSH2 0x3993 JUMP JUMPDEST PUSH2 0x927 JUMP JUMPDEST PUSH1 0x40 MLOAD PUSH2 0x2D9 SWAP2 SWAP1 PUSH2 0x3A63 JUMP JUMPDEST PUSH1 0x40 MLOAD DUP1 SWAP2 SUB SWAP1 RETURN JUMPDEST PUSH2 0x2F5 PUSH2 0x2F0 CALLDATASIZE PUSH1 0x4 PUSH2 0x3B35 JUMP JUMPDEST PUSH2 0xB94 JUMP JUMPDEST STOP JUMPDEST CALLVALUE DUP1 ISZERO PUSH2 0x303 JUMPI PUSH1 0x0 DUP1 REVERT JUMPDEST POP PUSH1 0x40 DUP1 MLOAD PUSH1 0x1 DUP2 MSTORE PUSH1 0x2 PUSH1 0x20 DUP3 ADD MSTORE ADD PUSH2 0x2D9 JUMP JUMPDEST CALLVALUE DUP1 ISZERO PUSH2 0x325 JUMPI PUSH1 0x0 DUP1 REVERT JUMPDEST POP PUSH2 0x339 PUSH2 0x334 CALLDATASIZE PUSH1 0x4 PUSH2 0x3BD6 JUMP JUMPDEST PUSH2 0xC4F JUMP JUMPDEST PUSH1 0x40 MLOAD PUSH2 0x2D9 SWAP10 SWAP9 SWAP8 SWAP7 SWAP6 SWAP5 SWAP4 SWAP3 SWAP2 SWAP1 PUSH2 0x3BEF JUMP JUMPDEST CALLVALUE DUP1 ISZERO PUSH2 0x35A JUMPI PUSH1 0x0 DUP1 REVERT JUMPDEST POP PUSH2 0x2F5 PUSH2 0x369 CALLDATASIZE PUSH1 0x4 PUSH2 0x3E22 JUMP JUMPDEST PUSH2 0xD38 JUMP JUMPDEST CALLVALUE DUP1 ISZERO PUSH2 0x37A JUMPI PUSH1 0x0 DUP1 REVERT JUMPDEST POP PUSH2 0x2F5 PUSH2 0x389 CALLDATASIZE PUSH1 0x4 PUSH2 0x3EA3 JUMP JUMPDEST PUSH2 0xFDB JUMP JUMPDEST CALLVALUE DUP1 ISZERO PUSH2 0x39A JUMPI PUSH1 0x0 DUP1 REVERT JUMPDEST POP PUSH2 0x2F5 PUSH2 0x3A9 CALLDATASIZE PUSH1 0x4 PUSH2 0x3EF2 JUMP JUMPDEST PUSH2 0x116E JUMP JUMPDEST CALLVALUE DUP1 ISZERO PUSH2 0x3BA JUMPI PUSH1 0x0 DUP1 REVERT JUMPDEST POP PUSH2 0x2F5 PUSH2 0x3C9 CALLDATASIZE PUSH1 0x4 PUSH2 0x3F2D JUMP JUMPDEST PUSH2 0x117D JUMP JUMPDEST CALLVALUE DUP1 ISZERO PUSH2 0x3DA JUMPI PUSH1 0x0 DUP1 REVERT JUMPDEST POP PUSH2 0x3EE PUSH2 0x3E9 CALLDATASIZE PUSH1 0x4 PUSH2 0x3BD6 JUMP JUMPDEST PUSH2 0x118F JUMP JUMPDEST PUSH1 0x40 MLOAD PUSH2 0x2D9 SWAP2 SWAP1 PUSH2 0x3FFF JUMP JUMPDEST CALLVALUE DUP1 ISZERO PUSH2 0x407 JUMPI PUSH1 0x0 DUP1 REVERT JUMPDEST POP PUSH2 0x41B PUSH2 0x416 CALLDATASIZE PUSH1 0x4 PUSH2 0x3BD6 JUMP JUMPDEST PUSH2 0x1603 JUMP JUMPDEST PUSH1 0x40 MLOAD SWAP1 ISZERO ISZERO DUP2 MSTORE PUSH1 0x20 ADD PUSH2 0x2D9 JUMP JUMPDEST CALLVALUE DUP1 ISZERO PUSH2 0x437 JUMPI PUSH1 0x0 DUP1 REVERT JUMPDEST POP PUSH2 0x441 PUSH1 0x9 SLOAD DUP2 JUMP JUMPDEST PUSH1 0x40 MLOAD SWAP1 DUP2 MSTORE PUSH1 0x20 ADD PUSH2 0x2D9 JUMP JUMPDEST CALLVALUE DUP1 ISZERO PUSH2 0x45B JUMPI PUSH1 0x0 DUP1 REVERT JUMPDEST POP PUSH2 0x2F5 PUSH2 0x46A CALLDATASIZE PUSH1 0x4 PUSH2 0x4128 JUMP JUMPDEST PUSH2 0x164A JUMP JUMPDEST CALLVALUE DUP1 ISZERO PUSH2 0x47B JUMPI PUSH1 0x0 DUP1 REVERT JUMPDEST POP PUSH2 0x4A3 PUSH32 0x0 DUP2 JUMP JUMPDEST PUSH1 0x40 MLOAD PUSH1 0x1 PUSH1 0x1 PUSH1 0xA0 SHL SUB SWAP1 SWAP2 AND DUP2 MSTORE PUSH1 0x20 ADD PUSH2 0x2D9 JUMP JUMPDEST CALLVALUE DUP1 ISZERO PUSH2 0x4C7 JUMPI PUSH1 0x0 DUP1 REVERT JUMPDEST POP PUSH2 0x2F5 PUSH2 0x165B JUMP JUMPDEST CALLVALUE DUP1 ISZERO PUSH2 0x4DC JUMPI PUSH1 0x0 DUP1 REVERT JUMPDEST POP PUSH2 0x4F0 PUSH2 0x4EB CALLDATASIZE PUSH1 0x4 PUSH2 0x3F2D JUMP JUMPDEST PUSH2 0x166F JUMP JUMPDEST PUSH1 0x40 MLOAD PUSH1 0x1 PUSH1 0x1 PUSH1 0x40 SHL SUB SWAP1 SWAP2 AND DUP2 MSTORE PUSH1 0x20 ADD PUSH2 0x2D9 JUMP JUMPDEST PUSH2 0x2F5 PUSH2 0x516 CALLDATASIZE PUSH1 0x4 PUSH2 0x4198 JUMP JUMPDEST PUSH2 0x1678 JUMP JUMPDEST CALLVALUE DUP1 ISZERO PUSH2 0x527 JUMPI PUSH1 0x0 DUP1 REVERT JUMPDEST POP PUSH2 0x441 PUSH2 0x536 CALLDATASIZE PUSH1 0x4 PUSH2 0x3993 JUMP JUMPDEST PUSH2 0x1684 JUMP JUMPDEST CALLVALUE DUP1 ISZERO PUSH2 0x547 JUMPI PUSH1 0x0 DUP1 REVERT JUMPDEST POP PUSH2 0x41B PUSH2 0x556 CALLDATASIZE PUSH1 0x4 PUSH2 0x41F5 JUMP JUMPDEST PUSH1 0x1 PUSH1 0x1 PUSH1 0xA0 SHL SUB DUP2 AND ADDRESS EQ SWAP5 SWAP4 POP POP POP POP JUMP JUMPDEST CALLVALUE DUP1 ISZERO PUSH2 0x576 JUMPI PUSH1 0x0 DUP1 REVERT JUMPDEST POP PUSH2 0x58A PUSH2 0x585 CALLDATASIZE PUSH1 0x4 PUSH2 0x3EF2 JUMP JUMPDEST PUSH2 0x174B JUMP JUMPDEST PUSH1 0x40 MLOAD PUSH2 0x2D9 SWAP2 SWAP1 PUSH2 0x425B JUMP JUMPDEST CALLVALUE DUP1 ISZERO PUSH2 0x5A3 JUMPI PUSH1 0x0 DUP1 REVERT JUMPDEST POP PUSH1 0x0 SLOAD PUSH1 0x1 PUSH1 0x1 PUSH1 0xA0 SHL SUB AND PUSH2 0x4A3 JUMP JUMPDEST CALLVALUE DUP1 ISZERO PUSH2 0x5C1 JUMPI PUSH1 0x0 DUP1 REVERT JUMPDEST POP PUSH2 0x2F5 PUSH2 0x5D0 CALLDATASIZE PUSH1 0x4 PUSH2 0x3EF2 JUMP JUMPDEST PUSH2 0x19D1 JUMP JUMPDEST CALLVALUE DUP1 ISZERO PUSH2 0x5E1 JUMPI PUSH1 0x0 DUP1 REVERT JUMPDEST POP PUSH2 0x2F5 PUSH2 0x5F0 CALLDATASIZE PUSH1 0x4 PUSH2 0x42CB JUMP JUMPDEST PUSH2 0x19DC JUMP JUMPDEST CALLVALUE DUP1 ISZERO PUSH2 0x601 JUMPI PUSH1 0x0 DUP1 REVERT JUMPDEST POP PUSH2 0x2F5 PUSH2 0x610 CALLDATASIZE PUSH1 0x4 PUSH2 0x42F7 JUMP JUMPDEST PUSH2 0x19E7 JUMP JUMPDEST CALLVALUE DUP1 ISZERO PUSH2 0x621 JUMPI PUSH1 0x0 DUP1 REVERT JUMPDEST POP PUSH2 0x41B PUSH2 0x630 CALLDATASIZE PUSH1 0x4 PUSH2 0x3993 JUMP JUMPDEST PUSH1 0x3 PUSH1 0x20 MSTORE PUSH1 0x0 SWAP1 DUP2 MSTORE PUSH1 0x40 SWAP1 KECCAK256 SLOAD PUSH1 0xFF AND DUP2 JUMP JUMPDEST CALLVALUE DUP1 ISZERO PUSH2 0x651 JUMPI PUSH1 0x0 DUP1 REVERT JUMPDEST POP PUSH2 0x2F5 PUSH2 0x660 CALLDATASIZE PUSH1 0x4 PUSH2 0x437A JUMP JUMPDEST PUSH2 0x1DB2 JUMP JUMPDEST CALLVALUE DUP1 ISZERO PUSH2 0x671 JUMPI PUSH1 0x0 DUP1 REVERT JUMPDEST POP PUSH2 0x2F5 PUSH2 0x680 CALLDATASIZE PUSH1 0x4 PUSH2 0x43B2 JUMP JUMPDEST PUSH2 0x1DBA JUMP JUMPDEST CALLVALUE DUP1 ISZERO PUSH2 0x691 JUMPI PUSH1 0x0 DUP1 REVERT JUMPDEST POP PUSH2 0x2F5 PUSH2 0x6A0 CALLDATASIZE PUSH1 0x4 PUSH2 0x43FA JUMP JUMPDEST PUSH2 0x2099 JUMP JUMPDEST CALLVALUE DUP1 ISZERO PUSH2 0x6B1 JUMPI PUSH1 0x0 DUP1 REVERT JUMPDEST POP PUSH2 0x441 PUSH2 0x6C0 CALLDATASIZE PUSH1 0x4 PUSH2 0x4448 JUMP JUMPDEST PUSH1 0x1 PUSH1 0x20 MSTORE PUSH1 0x0 SWAP1 DUP2 MSTORE PUSH1 0x40 SWAP1 KECCAK256 SLOAD DUP2 JUMP JUMPDEST CALLVALUE DUP1 ISZERO PUSH2 0x6DE JUMPI PUSH1 0x0 DUP1 REVERT JUMPDEST POP PUSH2 0x441 PUSH2 0x6ED CALLDATASIZE PUSH1 0x4 PUSH2 0x4463 JUMP JUMPDEST PUSH1 0x7 PUSH1 0x20 SWAP1 DUP2 MSTORE PUSH1 0x0 SWAP3 DUP4 MSTORE PUSH1 0x40 DUP1 DUP5 KECCAK256 SWAP1 SWAP2 MSTORE SWAP1 DUP3 MSTORE SWAP1 KECCAK256 SLOAD DUP2 JUMP JUMPDEST CALLVALUE DUP1 ISZERO PUSH2 0x716 JUMPI PUSH1 0x0 DUP1 REVERT JUMPDEST POP PUSH2 0x72A PUSH2 0x725 CALLDATASIZE PUSH1 0x4 PUSH2 0x3993 JUMP JUMPDEST PUSH2 0x2288 JUMP JUMPDEST PUSH1 0x40 MLOAD PUSH2 0x2D9 SWAP5 SWAP4 SWAP3 SWAP2 SWAP1 PUSH2 0x4493 JUMP JUMPDEST CALLVALUE DUP1 ISZERO PUSH2 0x746 JUMPI PUSH1 0x0 DUP1 REVERT JUMPDEST POP PUSH2 0x441 PUSH2 0x755 CALLDATASIZE PUSH1 0x4 PUSH2 0x44D1 JUMP JUMPDEST PUSH2 0x234D JUMP JUMPDEST CALLVALUE DUP1 ISZERO PUSH2 0x766 JUMPI PUSH1 0x0 DUP1 REVERT JUMPDEST POP PUSH2 0x3EE PUSH2 0x775 CALLDATASIZE PUSH1 0x4 PUSH2 0x3BD6 JUMP JUMPDEST PUSH2 0x237E JUMP JUMPDEST CALLVALUE DUP1 ISZERO PUSH2 0x786 JUMPI PUSH1 0x0 DUP1 REVERT JUMPDEST POP PUSH2 0x2F5 PUSH2 0x795 CALLDATASIZE PUSH1 0x4 PUSH2 0x3993 JUMP JUMPDEST PUSH2 0x27A8 JUMP JUMPDEST CALLVALUE DUP1 ISZERO PUSH2 0x7A6 JUMPI PUSH1 0x0 DUP1 REVERT JUMPDEST POP PUSH2 0x41B PUSH2 0x7B5 CALLDATASIZE PUSH1 0x4 PUSH2 0x3BD6 JUMP JUMPDEST PUSH1 0xA PUSH1 0x20 MSTORE PUSH1 0x0 SWAP1 DUP2 MSTORE PUSH1 0x40 SWAP1 KECCAK256 SLOAD PUSH1 0xFF AND DUP2 JUMP JUMPDEST CALLVALUE DUP1 ISZERO PUSH2 0x7D6 JUMPI PUSH1 0x0 DUP1 REVERT JUMPDEST POP PUSH2 0x2F5 PUSH2 0x7E5 CALLDATASIZE PUSH1 0x4 PUSH2 0x44EF JUMP JUMPDEST PUSH2 0x282E JUMP JUMPDEST CALLVALUE DUP1 ISZERO PUSH2 0x7F6 JUMPI PUSH1 0x0 DUP1 REVERT JUMPDEST POP PUSH2 0x2F5 PUSH2 0x805 CALLDATASIZE PUSH1 0x4 PUSH2 0x452D JUMP JUMPDEST PUSH2 0x2B42 JUMP JUMPDEST CALLVALUE DUP1 ISZERO PUSH2 0x816 JUMPI PUSH1 0x0 DUP1 REVERT JUMPDEST POP PUSH2 0x2F5 PUSH2 0x825 CALLDATASIZE PUSH1 0x4 PUSH2 0x4562 JUMP JUMPDEST PUSH2 0x2CAF JUMP JUMPDEST CALLVALUE DUP1 ISZERO PUSH2 0x836 JUMPI PUSH1 0x0 DUP1 REVERT JUMPDEST POP PUSH2 0x2F5 PUSH2 0x845 CALLDATASIZE PUSH1 0x4 PUSH2 0x452D JUMP JUMPDEST PUSH2 0x2CBA JUMP JUMPDEST CALLVALUE DUP1 ISZERO PUSH2 0x856 JUMPI PUSH1 0x0 DUP1 REVERT JUMPDEST POP PUSH2 0x441 PUSH2 0x865 CALLDATASIZE PUSH1 0x4 PUSH2 0x3BD6 JUMP JUMPDEST PUSH1 0x6 PUSH1 0x20 MSTORE PUSH1 0x0 SWAP1 DUP2 MSTORE PUSH1 0x40 SWAP1 KECCAK256 SLOAD DUP2 JUMP JUMPDEST CALLVALUE DUP1 ISZERO PUSH2 0x883 JUMPI PUSH1 0x0 DUP1 REVERT JUMPDEST POP PUSH2 0x2F5 PUSH2 0x892 CALLDATASIZE PUSH1 0x4 PUSH2 0x4592 JUMP JUMPDEST PUSH2 0x2F0E JUMP JUMPDEST CALLVALUE DUP1 ISZERO PUSH2 0x8A3 JUMPI PUSH1 0x0 DUP1 REVERT JUMPDEST POP PUSH2 0x8B7 PUSH2 0x8B2 CALLDATASIZE PUSH1 0x4 PUSH2 0x3EF2 JUMP JUMPDEST PUSH2 0x30F1 JUMP JUMPDEST PUSH1 0x40 MLOAD PUSH2 0x2D9 SWAP5 SWAP4 SWAP3 SWAP2 SWAP1 PUSH2 0x45EB JUMP JUMPDEST CALLVALUE DUP1 ISZERO PUSH2 0x8D3 JUMPI PUSH1 0x0 DUP1 REVERT JUMPDEST POP PUSH2 0x2F5 PUSH2 0x8E2 CALLDATASIZE PUSH1 0x4 PUSH2 0x3993 JUMP JUMPDEST PUSH2 0x31B9 JUMP JUMPDEST CALLVALUE DUP1 ISZERO PUSH2 0x8F3 JUMPI PUSH1 0x0 DUP1 REVERT JUMPDEST POP PUSH2 0x2F5 PUSH2 0x902 CALLDATASIZE PUSH1 0x4 PUSH2 0x4619 JUMP JUMPDEST PUSH2 0x31F7 JUMP JUMPDEST CALLVALUE DUP1 ISZERO PUSH2 0x913 JUMPI PUSH1 0x0 DUP1 REVERT JUMPDEST POP PUSH2 0x41B PUSH2 0x922 CALLDATASIZE PUSH1 0x4 PUSH2 0x4661 JUMP JUMPDEST PUSH2 0x3203 JUMP JUMPDEST PUSH1 0x40 DUP1 MLOAD PUSH1 0xA0 DUP2 ADD DUP3 MSTORE PUSH1 0x0 DUP1 DUP3 MSTORE PUSH1 0x60 PUSH1 0x20 DUP4 ADD DUP2 SWAP1 MSTORE SWAP3 DUP3 ADD DUP2 SWAP1 MSTORE DUP3 DUP3 ADD MSTORE PUSH1 0x80 DUP2 ADD SWAP2 SWAP1 SWAP2 MSTORE PUSH1 0x1 PUSH1 0x1 PUSH1 0xA0 SHL SUB DUP3 AND PUSH1 0x0 SWAP1 DUP2 MSTORE PUSH1 0x3 PUSH1 0x20 MSTORE PUSH1 0x40 SWAP1 KECCAK256 SLOAD PUSH1 0xFF AND PUSH2 0x9B7 JUMPI PUSH1 0x40 MLOAD PUSH3 0x461BCD PUSH1 0xE5 SHL DUP2 MSTORE PUSH1 0x20 PUSH1 0x4 DUP3 ADD MSTORE PUSH1 0x16 PUSH1 0x24 DUP3 ADD MSTORE PUSH22 0x141C9BD99A5B1948191BD95CC81B9BDD08195E1A5CDD PUSH1 0x52 SHL PUSH1 0x44 DUP3 ADD MSTORE PUSH1 0x64 ADD JUMPDEST PUSH1 0x40 MLOAD DUP1 SWAP2 SUB SWAP1 REVERT JUMPDEST PUSH1 0x1 PUSH1 0x1 PUSH1 0xA0 SHL SUB DUP1 DUP4 AND PUSH1 0x0 SWAP1 DUP2 MSTORE PUSH1 0x2 PUSH1 0x20 SWAP1 DUP2 MSTORE PUSH1 0x40 SWAP2 DUP3 SWAP1 KECCAK256 DUP3 MLOAD PUSH1 0xA0 DUP2 ADD SWAP1 SWAP4 MSTORE DUP1 SLOAD SWAP1 SWAP4 AND DUP3 MSTORE PUSH1 0x1 DUP4 ADD DUP1 SLOAD SWAP3 SWAP4 SWAP3 SWAP2 DUP5 ADD SWAP2 PUSH2 0x9FA SWAP1 PUSH2 0x467D JUMP JUMPDEST DUP1 PUSH1 0x1F ADD PUSH1 0x20 DUP1 SWAP2 DIV MUL PUSH1 0x20 ADD PUSH1 0x40 MLOAD SWAP1 DUP2 ADD PUSH1 0x40 MSTORE DUP1 SWAP3 SWAP2 SWAP1 DUP2 DUP2 MSTORE PUSH1 0x20 ADD DUP3 DUP1 SLOAD PUSH2 0xA26 SWAP1 PUSH2 0x467D JUMP JUMPDEST DUP1 ISZERO PUSH2 0xA73 JUMPI DUP1 PUSH1 0x1F LT PUSH2 0xA48 JUMPI PUSH2 0x100 DUP1 DUP4 SLOAD DIV MUL DUP4 MSTORE SWAP2 PUSH1 0x20 ADD SWAP2 PUSH2 0xA73 JUMP JUMPDEST DUP3 ADD SWAP2 SWAP1 PUSH1 0x0 MSTORE PUSH1 0x20 PUSH1 0x0 KECCAK256 SWAP1 JUMPDEST DUP2 SLOAD DUP2 MSTORE SWAP1 PUSH1 0x1 ADD SWAP1 PUSH1 0x20 ADD DUP1 DUP4 GT PUSH2 0xA56 JUMPI DUP3 SWAP1 SUB PUSH1 0x1F AND DUP3 ADD SWAP2 JUMPDEST POP POP POP POP POP DUP2 MSTORE PUSH1 0x20 ADD PUSH1 0x2 DUP3 ADD PUSH1 0x0 SWAP1 SLOAD SWAP1 PUSH2 0x100 EXP SWAP1 DIV PUSH1 0x1 PUSH1 0x1 PUSH1 0xA0 SHL SUB AND PUSH1 0x1 PUSH1 0x1 PUSH1 0xA0 SHL SUB AND PUSH1 0x1 PUSH1 0x1 PUSH1 0xA0 SHL SUB AND DUP2 MSTORE PUSH1 0x20 ADD PUSH1 0x3 DUP3 ADD SLOAD DUP2 MSTORE PUSH1 0x20 ADD PUSH1 0x4 DUP3 ADD DUP1 SLOAD DUP1 PUSH1 0x20 MUL PUSH1 0x20 ADD PUSH1 0x40 MLOAD SWAP1 DUP2 ADD PUSH1 0x40 MSTORE DUP1 SWAP3 SWAP2 SWAP1 DUP2 DUP2 MSTORE PUSH1 0x20 ADD PUSH1 0x0 SWAP1 JUMPDEST DUP3 DUP3 LT ISZERO PUSH2 0xB86 JUMPI DUP4 DUP3 SWAP1 PUSH1 0x0 MSTORE PUSH1 0x20 PUSH1 0x0 KECCAK256 ADD DUP1 SLOAD PUSH2 0xAF9 SWAP1 PUSH2 0x467D JUMP JUMPDEST DUP1 PUSH1 0x1F ADD PUSH1 0x20 DUP1 SWAP2 DIV MUL PUSH1 0x20 ADD PUSH1 0x40 MLOAD SWAP1 DUP2 ADD PUSH1 0x40 MSTORE DUP1 SWAP3 SWAP2 SWAP1 DUP2 DUP2 MSTORE PUSH1 0x20 ADD DUP3 DUP1 SLOAD PUSH2 0xB25 SWAP1 PUSH2 0x467D JUMP JUMPDEST DUP1 ISZERO PUSH2 0xB72 JUMPI DUP1 PUSH1 0x1F LT PUSH2 0xB47 JUMPI PUSH2 0x100 DUP1 DUP4 SLOAD DIV MUL DUP4 MSTORE SWAP2 PUSH1 0x20 ADD SWAP2 PUSH2 0xB72 JUMP JUMPDEST DUP3 ADD SWAP2 SWAP1 PUSH1 0x0 MSTORE PUSH1 0x20 PUSH1 0x0 KECCAK256 SWAP1 JUMPDEST DUP2 SLOAD DUP2 MSTORE SWAP1 PUSH1 0x1 ADD SWAP1 PUSH1 0x20 ADD DUP1 DUP4 GT PUSH2 0xB55 JUMPI DUP3 SWAP1 SUB PUSH1 0x1F AND DUP3 ADD SWAP2 JUMPDEST POP POP POP POP POP DUP2 MSTORE PUSH1 0x20 ADD SWAP1 PUSH1 0x1 ADD SWAP1 PUSH2 0xADA JUMP JUMPDEST POP POP POP SWAP2 MSTORE POP SWAP1 SWAP4 SWAP3 POP POP POP JUMP JUMPDEST PUSH32 0x0 PUSH1 0x1 PUSH1 0x1 PUSH1 0xA0 SHL SUB AND CALLER EQ PUSH2 0xBDF JUMPI PUSH1 0x40 MLOAD PUSH4 0x91AC5E4F PUSH1 0xE0 SHL DUP2 MSTORE CALLER PUSH1 0x4 DUP3 ADD MSTORE PUSH1 0x24 ADD PUSH2 0x9AE JUMP JUMPDEST PUSH1 0x20 DUP8 ADD DUP1 CALLDATALOAD SWAP1 PUSH2 0xBF9 SWAP1 PUSH2 0xBF4 SWAP1 DUP11 PUSH2 0x4448 JUMP JUMPDEST PUSH2 0x3239 JUMP JUMPDEST EQ PUSH2 0xC37 JUMPI PUSH2 0xC0B PUSH1 0x20 DUP9 ADD DUP9 PUSH2 0x4448 JUMP JUMPDEST PUSH1 0x40 MLOAD PUSH4 0x309AFAF3 PUSH1 0xE2 SHL DUP2 MSTORE PUSH4 0xFFFFFFFF SWAP1 SWAP2 AND PUSH1 0x4 DUP3 ADD MSTORE PUSH1 0x20 DUP9 ADD CALLDATALOAD PUSH1 0x24 DUP3 ADD MSTORE PUSH1 0x44 ADD PUSH2 0x9AE JUMP JUMPDEST PUSH2 0xC46 DUP8 DUP8 DUP8 DUP8 DUP8 DUP8 DUP8 PUSH2 0x3275 JUMP JUMPDEST POP POP POP POP POP POP POP JUMP JUMPDEST PUSH1 0x4 PUSH1 0x20 MSTORE PUSH1 0x0 SWAP1 DUP2 MSTORE PUSH1 0x40 SWAP1 KECCAK256 DUP1 SLOAD PUSH1 0x1 DUP3 ADD SLOAD PUSH1 0x3 DUP4 ADD DUP1 SLOAD SWAP3 SWAP4 PUSH1 0x1 PUSH1 0x1 PUSH1 0xA0 SHL SUB SWAP1 SWAP3 AND SWAP3 PUSH2 0xC81 SWAP1 PUSH2 0x467D JUMP JUMPDEST DUP1 PUSH1 0x1F ADD PUSH1 0x20 DUP1 SWAP2 DIV MUL PUSH1 0x20 ADD PUSH1 0x40 MLOAD SWAP1 DUP2 ADD PUSH1 0x40 MSTORE DUP1 SWAP3 SWAP2 SWAP1 DUP2 DUP2 MSTORE PUSH1 0x20 ADD DUP3 DUP1 SLOAD PUSH2 0xCAD SWAP1 PUSH2 0x467D JUMP JUMPDEST DUP1 ISZERO PUSH2 0xCFA JUMPI DUP1 PUSH1 0x1F LT PUSH2 0xCCF JUMPI PUSH2 0x100 DUP1 DUP4 SLOAD DIV MUL DUP4 MSTORE SWAP2 PUSH1 0x20 ADD SWAP2 PUSH2 0xCFA JUMP JUMPDEST DUP3 ADD SWAP2 SWAP1 PUSH1 0x0 MSTORE PUSH1 0x20 PUSH1 0x0 KECCAK256 SWAP1 JUMPDEST DUP2 SLOAD DUP2 MSTORE SWAP1 PUSH1 0x1 ADD SWAP1 PUSH1 0x20 ADD DUP1 DUP4 GT PUSH2 0xCDD JUMPI DUP3 SWAP1 SUB PUSH1 0x1F AND DUP3 ADD SWAP2 JUMPDEST POP POP POP PUSH1 0x4 DUP5 ADD SLOAD PUSH1 0x8 DUP6 ADD SLOAD PUSH1 0x9 DUP7 ADD SLOAD PUSH1 0xA DUP8 ADD SLOAD PUSH1 0xB DUP9 ADD SLOAD PUSH1 0xC SWAP1 SWAP9 ADD SLOAD SWAP7 SWAP8 PUSH1 0xFF SWAP1 SWAP5 AND SWAP7 SWAP3 SWAP6 POP SWAP1 SWAP4 POP SWAP2 PUSH1 0x1 PUSH1 0x1 PUSH1 0xA0 SHL SUB AND SWAP1 DUP10 JUMP JUMPDEST PUSH1 0x1 PUSH1 0x1 PUSH1 0xA0 SHL SUB DUP5 AND PUSH1 0x0 SWAP1 DUP2 MSTORE PUSH1 0x3 PUSH1 0x20 MSTORE PUSH1 0x40 SWAP1 KECCAK256 SLOAD PUSH1 0xFF AND PUSH2 0xDA0 JUMPI PUSH1 0x40 MLOAD PUSH3 0x461BCD PUSH1 0xE5 SHL DUP2 MSTORE PUSH1 0x20 PUSH1 0x4 DUP3 ADD MSTORE PUSH1 0x1D PUSH1 0x24 DUP3 ADD MSTORE PUSH32 0x4D75737420686176652070726F66696C6520746F20706F7374206A6F62000000 PUSH1 0x44 DUP3 ADD MSTORE PUSH1 0x64 ADD PUSH2 0x9AE JUMP JUMPDEST PUSH1 0x0 DUP3 MLOAD GT PUSH2 0xDF1 JUMPI PUSH1 0x40 MLOAD PUSH3 0x461BCD PUSH1 0xE5 SHL DUP2 MSTORE PUSH1 0x20 PUSH1 0x4 DUP3 ADD DUP2 SWAP1 MSTORE PUSH1 0x24 DUP3 ADD MSTORE PUSH32 0x4D7573742068617665206174206C65617374206F6E65206D696C6573746F6E65 PUSH1 0x44 DUP3 ADD MSTORE PUSH1 0x64 ADD PUSH2 0x9AE JUMP JUMPDEST PUSH1 0x0 DUP1 JUMPDEST DUP4 MLOAD DUP2 LT ISZERO PUSH2 0xE31 JUMPI DUP4 DUP2 DUP2 MLOAD DUP2 LT PUSH2 0xE10 JUMPI PUSH2 0xE10 PUSH2 0x46B1 JUMP JUMPDEST PUSH1 0x20 MUL PUSH1 0x20 ADD ADD MLOAD PUSH1 0x20 ADD MLOAD DUP3 PUSH2 0xE27 SWAP2 SWAP1 PUSH2 0x46DD JUMP JUMPDEST SWAP2 POP PUSH1 0x1 ADD PUSH2 0xDF5 JUMP JUMPDEST POP DUP1 DUP3 EQ PUSH2 0xE94 JUMPI PUSH1 0x40 MLOAD PUSH3 0x461BCD PUSH1 0xE5 SHL DUP2 MSTORE PUSH1 0x20 PUSH1 0x4 DUP3 ADD MSTORE PUSH1 0x2A PUSH1 0x24 DUP3 ADD MSTORE PUSH32 0x5061796D656E74206D75737420657175616C20746F74616C206D696C6573746F PUSH1 0x44 DUP3 ADD MSTORE PUSH10 0x6E6520616D6F756E7473 PUSH1 0xB0 SHL PUSH1 0x64 DUP3 ADD MSTORE PUSH1 0x84 ADD PUSH2 0x9AE JUMP JUMPDEST PUSH1 0x9 DUP1 SLOAD SWAP1 PUSH1 0x0 PUSH2 0xEA4 DUP4 PUSH2 0x46F0 JUMP JUMPDEST SWAP1 SWAP2 SSTORE POP POP PUSH1 0x9 SLOAD PUSH1 0x0 DUP2 DUP2 MSTORE PUSH1 0x4 PUSH1 0x20 MSTORE PUSH1 0x40 SWAP1 KECCAK256 SWAP1 DUP2 SSTORE PUSH1 0x1 DUP2 ADD DUP1 SLOAD PUSH1 0x1 PUSH1 0x1 PUSH1 0xA0 SHL SUB NOT AND PUSH1 0x1 PUSH1 0x1 PUSH1 0xA0 SHL SUB DUP9 AND OR SWAP1 SSTORE PUSH1 0x3 DUP2 ADD PUSH2 0xEE8 DUP7 DUP3 PUSH2 0x4750 JUMP JUMPDEST POP PUSH1 0x4 DUP2 ADD DUP1 SLOAD PUSH1 0xFF NOT AND PUSH1 0x1 OR SWAP1 SSTORE PUSH1 0x0 PUSH1 0x8 DUP3 ADD DUP2 SWAP1 SSTORE PUSH1 0x9 DUP3 ADD DUP5 SWAP1 SSTORE PUSH1 0xA DUP3 ADD DUP2 SWAP1 SSTORE PUSH1 0xB DUP3 ADD DUP1 SLOAD PUSH1 0x1 PUSH1 0x1 PUSH1 0xA0 SHL SUB NOT AND SWAP1 SSTORE PUSH1 0xC DUP3 ADD DUP2 SWAP1 SSTORE JUMPDEST DUP5 MLOAD DUP2 LT ISZERO PUSH2 0xF8E JUMPI DUP2 PUSH1 0x6 ADD DUP6 DUP3 DUP2 MLOAD DUP2 LT PUSH2 0xF48 JUMPI PUSH2 0xF48 PUSH2 0x46B1 JUMP JUMPDEST PUSH1 0x20 SWAP1 DUP2 MUL SWAP2 SWAP1 SWAP2 ADD DUP2 ADD MLOAD DUP3 SLOAD PUSH1 0x1 DUP2 ADD DUP5 SSTORE PUSH1 0x0 SWAP4 DUP5 MSTORE SWAP2 SWAP1 SWAP3 KECCAK256 DUP3 MLOAD PUSH1 0x2 SWAP1 SWAP3 MUL ADD SWAP1 DUP2 SWAP1 PUSH2 0xF7A SWAP1 DUP3 PUSH2 0x4750 JUMP JUMPDEST POP PUSH1 0x20 SWAP2 SWAP1 SWAP2 ADD MLOAD PUSH1 0x1 SWAP2 DUP3 ADD SSTORE ADD PUSH2 0xF29 JUMP JUMPDEST POP DUP6 PUSH1 0x1 PUSH1 0x1 PUSH1 0xA0 SHL SUB AND PUSH1 0x9 SLOAD PUSH32 0x874D4755E4BE9F976C7833FC413DEB77C1ACBF096D6535B71953C36EB838CF40 DUP8 PUSH1 0x40 MLOAD PUSH2 0xFCB SWAP2 SWAP1 PUSH2 0x4811 JUMP JUMPDEST PUSH1 0x40 MLOAD DUP1 SWAP2 SUB SWAP1 LOG3 POP POP POP POP POP POP JUMP JUMPDEST PUSH1 0x1 PUSH1 0x1 PUSH1 0xA0 SHL SUB DUP3 AND PUSH1 0x0 SWAP1 DUP2 MSTORE PUSH1 0x3 PUSH1 0x20 MSTORE PUSH1 0x40 SWAP1 KECCAK256 SLOAD PUSH1 0xFF AND PUSH2 0x103C JUMPI PUSH1 0x40 MLOAD PUSH3 0x461BCD PUSH1 0xE5 SHL DUP2 MSTORE PUSH1 0x20 PUSH1 0x4 DUP3 ADD MSTORE PUSH1 0x16 PUSH1 0x24 DUP3 ADD MSTORE PUSH22 0x141C9BD99A5B1948191BD95CC81B9BDD08195E1A5CDD PUSH1 0x52 SHL PUSH1 0x44 DUP3 ADD MSTORE PUSH1 0x64 ADD PUSH2 0x9AE JUMP JUMPDEST CALLER PUSH1 0x1 PUSH1 0x1 PUSH1 0xA0 SHL SUB DUP4 AND EQ PUSH2 0x10A2 JUMPI PUSH1 0x40 MLOAD PUSH3 0x461BCD PUSH1 0xE5 SHL DUP2 MSTORE PUSH1 0x20 PUSH1 0x4 DUP3 ADD MSTORE PUSH1 0x25 PUSH1 0x24 DUP3 ADD MSTORE PUSH32 0x43616E206F6E6C792061646420706F7274666F6C696F20746F206F776E207072 PUSH1 0x44 DUP3 ADD MSTORE PUSH5 0x6F66696C65 PUSH1 0xD8 SHL PUSH1 0x64 DUP3 ADD MSTORE PUSH1 0x84 ADD PUSH2 0x9AE JUMP JUMPDEST PUSH1 0x0 DUP2 MLOAD GT PUSH2 0x10F3 JUMPI PUSH1 0x40 MLOAD PUSH3 0x461BCD PUSH1 0xE5 SHL DUP2 MSTORE PUSH1 0x20 PUSH1 0x4 DUP3 ADD MSTORE PUSH1 0x1E PUSH1 0x24 DUP3 ADD MSTORE PUSH32 0x506F7274666F6C696F20686173682063616E6E6F7420626520656D7074790000 PUSH1 0x44 DUP3 ADD MSTORE PUSH1 0x64 ADD PUSH2 0x9AE JUMP JUMPDEST PUSH1 0x1 PUSH1 0x1 PUSH1 0xA0 SHL SUB DUP3 AND PUSH1 0x0 SWAP1 DUP2 MSTORE PUSH1 0x2 PUSH1 0x20 SWAP1 DUP2 MSTORE PUSH1 0x40 DUP3 KECCAK256 PUSH1 0x4 ADD DUP1 SLOAD PUSH1 0x1 DUP2 ADD DUP3 SSTORE SWAP1 DUP4 MSTORE SWAP2 KECCAK256 ADD PUSH2 0x1128 DUP3 DUP3 PUSH2 0x4750 JUMP JUMPDEST POP DUP2 PUSH1 0x1 PUSH1 0x1 PUSH1 0xA0 SHL SUB AND PUSH32 0xCC18228E480194B6EB176CEBD651BE35A4EB3236A2461B112A3E89EA1B1C40DD DUP3 PUSH1 0x40 MLOAD PUSH2 0x1162 SWAP2 SWAP1 PUSH2 0x4811 JUMP JUMPDEST PUSH1 0x40 MLOAD DUP1 SWAP2 SUB SWAP1 LOG2 POP POP JUMP JUMPDEST PUSH2 0x1179 CALLER DUP4 DUP4 PUSH2 0x2B42 JUMP JUMPDEST POP POP JUMP JUMPDEST PUSH2 0x1185 PUSH2 0x3773 JUMP JUMPDEST PUSH2 0x1179 DUP3 DUP3 PUSH2 0x37A0 JUMP JUMPDEST PUSH2 0x1197 PUSH2 0x3845 JUMP JUMPDEST PUSH1 0x0 DUP3 DUP2 MSTORE PUSH1 0x4 PUSH1 0x20 MSTORE PUSH1 0x40 DUP2 KECCAK256 SLOAD SWAP1 SUB PUSH2 0x11C4 JUMPI PUSH1 0x40 MLOAD PUSH3 0x461BCD PUSH1 0xE5 SHL DUP2 MSTORE PUSH1 0x4 ADD PUSH2 0x9AE SWAP1 PUSH2 0x4824 JUMP JUMPDEST PUSH1 0x0 DUP3 DUP2 MSTORE PUSH1 0x4 PUSH1 0x20 SWAP1 DUP2 MSTORE PUSH1 0x40 SWAP2 DUP3 SWAP1 KECCAK256 DUP3 MLOAD PUSH2 0x1A0 DUP2 ADD DUP5 MSTORE DUP2 SLOAD DUP2 MSTORE PUSH1 0x1 DUP3 ADD SLOAD PUSH1 0x1 PUSH1 0x1 PUSH1 0xA0 SHL SUB AND DUP2 DUP5 ADD MSTORE PUSH1 0x2 DUP3 ADD DUP1 SLOAD DUP6 MLOAD DUP2 DUP7 MUL DUP2 ADD DUP7 ADD DUP8 MSTORE DUP2 DUP2 MSTORE SWAP3 SWAP6 SWAP4 SWAP5 SWAP4 DUP7 ADD SWAP4 DUP4 ADD DUP3 DUP3 DUP1 ISZERO PUSH2 0x124A JUMPI PUSH1 0x20 MUL DUP3 ADD SWAP2 SWAP1 PUSH1 0x0 MSTORE PUSH1 0x20 PUSH1 0x0 KECCAK256 SWAP1 JUMPDEST DUP2 SLOAD PUSH1 0x1 PUSH1 0x1 PUSH1 0xA0 SHL SUB AND DUP2 MSTORE PUSH1 0x1 SWAP1 SWAP2 ADD SWAP1 PUSH1 0x20 ADD DUP1 DUP4 GT PUSH2 0x122C JUMPI JUMPDEST POP POP POP POP POP DUP2 MSTORE PUSH1 0x20 ADD PUSH1 0x3 DUP3 ADD DUP1 SLOAD PUSH2 0x1263 SWAP1 PUSH2 0x467D JUMP JUMPDEST DUP1 PUSH1 0x1F ADD PUSH1 0x20 DUP1 SWAP2 DIV MUL PUSH1 0x20 ADD PUSH1 0x40 MLOAD SWAP1 DUP2 ADD PUSH1 0x40 MSTORE DUP1 SWAP3 SWAP2 SWAP1 DUP2 DUP2 MSTORE PUSH1 0x20 ADD DUP3 DUP1 SLOAD PUSH2 0x128F SWAP1 PUSH2 0x467D JUMP JUMPDEST DUP1 ISZERO PUSH2 0x12DC JUMPI DUP1 PUSH1 0x1F LT PUSH2 0x12B1 JUMPI PUSH2 0x100 DUP1 DUP4 SLOAD DIV MUL DUP4 MSTORE SWAP2 PUSH1 0x20 ADD SWAP2 PUSH2 0x12DC JUMP JUMPDEST DUP3 ADD SWAP2 SWAP1 PUSH1 0x0 MSTORE PUSH1 0x20 PUSH1 0x0 KECCAK256 SWAP1 JUMPDEST DUP2 SLOAD DUP2 MSTORE SWAP1 PUSH1 0x1 ADD SWAP1 PUSH1 0x20 ADD DUP1 DUP4 GT PUSH2 0x12BF JUMPI DUP3 SWAP1 SUB PUSH1 0x1F AND DUP3 ADD SWAP2 JUMPDEST POP POP POP SWAP2 DUP4 MSTORE POP POP PUSH1 0x4 DUP3 ADD SLOAD PUSH1 0xFF AND ISZERO ISZERO PUSH1 0x20 DUP1 DUP4 ADD SWAP2 SWAP1 SWAP2 MSTORE PUSH1 0x5 DUP4 ADD DUP1 SLOAD PUSH1 0x40 DUP1 MLOAD DUP3 DUP6 MUL DUP2 ADD DUP6 ADD DUP3 MSTORE DUP3 DUP2 MSTORE SWAP5 ADD SWAP4 SWAP3 PUSH1 0x0 SWAP1 DUP5 ADD JUMPDEST DUP3 DUP3 LT ISZERO PUSH2 0x13C3 JUMPI DUP4 DUP3 SWAP1 PUSH1 0x0 MSTORE PUSH1 0x20 PUSH1 0x0 KECCAK256 ADD DUP1 SLOAD PUSH2 0x1336 SWAP1 PUSH2 0x467D JUMP JUMPDEST DUP1 PUSH1 0x1F ADD PUSH1 0x20 DUP1 SWAP2 DIV MUL PUSH1 0x20 ADD PUSH1 0x40 MLOAD SWAP1 DUP2 ADD PUSH1 0x40 MSTORE DUP1 SWAP3 SWAP2 SWAP1 DUP2 DUP2 MSTORE PUSH1 0x20 ADD DUP3 DUP1 SLOAD PUSH2 0x1362 SWAP1 PUSH2 0x467D JUMP JUMPDEST DUP1 ISZERO PUSH2 0x13AF JUMPI DUP1 PUSH1 0x1F LT PUSH2 0x1384 JUMPI PUSH2 0x100 DUP1 DUP4 SLOAD DIV MUL DUP4 MSTORE SWAP2 PUSH1 0x20 ADD SWAP2 PUSH2 0x13AF JUMP JUMPDEST DUP3 ADD SWAP2 SWAP1 PUSH1 0x0 MSTORE PUSH1 0x20 PUSH1 0x0 KECCAK256 SWAP1 JUMPDEST DUP2 SLOAD DUP2 MSTORE SWAP1 PUSH1 0x1 ADD SWAP1 PUSH1 0x20 ADD DUP1 DUP4 GT PUSH2 0x1392 JUMPI DUP3 SWAP1 SUB PUSH1 0x1F AND DUP3 ADD SWAP2 JUMPDEST POP POP POP POP POP DUP2 MSTORE PUSH1 0x20 ADD SWAP1 PUSH1 0x1 ADD SWAP1 PUSH2 0x1317 JUMP JUMPDEST POP POP POP POP DUP2 MSTORE PUSH1 0x20 ADD PUSH1 0x6 DUP3 ADD DUP1 SLOAD DUP1 PUSH1 0x20 MUL PUSH1 0x20 ADD PUSH1 0x40 MLOAD SWAP1 DUP2 ADD PUSH1 0x40 MSTORE DUP1 SWAP3 SWAP2 SWAP1 DUP2 DUP2 MSTORE PUSH1 0x20 ADD PUSH1 0x0 SWAP1 JUMPDEST DUP3 DUP3 LT ISZERO PUSH2 0x14BE JUMPI DUP4 DUP3 SWAP1 PUSH1 0x0 MSTORE PUSH1 0x20 PUSH1 0x0 KECCAK256 SWAP1 PUSH1 0x2 MUL ADD PUSH1 0x40 MLOAD DUP1 PUSH1 0x40 ADD PUSH1 0x40 MSTORE SWAP1 DUP2 PUSH1 0x0 DUP3 ADD DUP1 SLOAD PUSH2 0x1423 SWAP1 PUSH2 0x467D JUMP JUMPDEST DUP1 PUSH1 0x1F ADD PUSH1 0x20 DUP1 SWAP2 DIV MUL PUSH1 0x20 ADD PUSH1 0x40 MLOAD SWAP1 DUP2 ADD PUSH1 0x40 MSTORE DUP1 SWAP3 SWAP2 SWAP1 DUP2 DUP2 MSTORE PUSH1 0x20 ADD DUP3 DUP1 SLOAD PUSH2 0x144F SWAP1 PUSH2 0x467D JUMP JUMPDEST DUP1 ISZERO PUSH2 0x149C JUMPI DUP1 PUSH1 0x1F LT PUSH2 0x1471 JUMPI PUSH2 0x100 DUP1 DUP4 SLOAD DIV MUL DUP4 MSTORE SWAP2 PUSH1 0x20 ADD SWAP2 PUSH2 0x149C JUMP JUMPDEST DUP3 ADD SWAP2 SWAP1 PUSH1 0x0 MSTORE PUSH1 0x20 PUSH1 0x0 KECCAK256 SWAP1 JUMPDEST DUP2 SLOAD DUP2 MSTORE SWAP1 PUSH1 0x1 ADD SWAP1 PUSH1 0x20 ADD DUP1 DUP4 GT PUSH2 0x147F JUMPI DUP3 SWAP1 SUB PUSH1 0x1F AND DUP3 ADD SWAP2 JUMPDEST POP POP POP POP POP DUP2 MSTORE PUSH1 0x20 ADD PUSH1 0x1 DUP3 ADD SLOAD DUP2 MSTORE POP POP DUP2 MSTORE PUSH1 0x20 ADD SWAP1 PUSH1 0x1 ADD SWAP1 PUSH2 0x13F0 JUMP JUMPDEST POP POP POP POP DUP2 MSTORE PUSH1 0x20 ADD PUSH1 0x7 DUP3 ADD DUP1 SLOAD DUP1 PUSH1 0x20 MUL PUSH1 0x20 ADD PUSH1 0x40 MLOAD SWAP1 DUP2 ADD PUSH1 0x40 MSTORE DUP1 SWAP3 SWAP2 SWAP1 DUP2 DUP2 MSTORE PUSH1 0x20 ADD PUSH1 0x0 SWAP1 JUMPDEST DUP3 DUP3 LT ISZERO PUSH2 0x15B9 JUMPI DUP4 DUP3 SWAP1 PUSH1 0x0 MSTORE PUSH1 0x20 PUSH1 0x0 KECCAK256 SWAP1 PUSH1 0x2 MUL ADD PUSH1 0x40 MLOAD DUP1 PUSH1 0x40 ADD PUSH1 0x40 MSTORE SWAP1 DUP2 PUSH1 0x0 DUP3 ADD DUP1 SLOAD PUSH2 0x151E SWAP1 PUSH2 0x467D JUMP JUMPDEST DUP1 PUSH1 0x1F ADD PUSH1 0x20 DUP1 SWAP2 DIV MUL PUSH1 0x20 ADD PUSH1 0x40 MLOAD SWAP1 DUP2 ADD PUSH1 0x40 MSTORE DUP1 SWAP3 SWAP2 SWAP1 DUP2 DUP2 MSTORE PUSH1 0x20 ADD DUP3 DUP1 SLOAD PUSH2 0x154A SWAP1 PUSH2 0x467D JUMP JUMPDEST DUP1 ISZERO PUSH2 0x1597 JUMPI DUP1 PUSH1 0x1F LT PUSH2 0x156C JUMPI PUSH2 0x100 DUP1 DUP4 SLOAD DIV MUL DUP4 MSTORE SWAP2 PUSH1 0x20 ADD SWAP2 PUSH2 0x1597 JUMP JUMPDEST DUP3 ADD SWAP2 SWAP1 PUSH1 0x0 MSTORE PUSH1 0x20 PUSH1 0x0 KECCAK256 SWAP1 JUMPDEST DUP2 SLOAD DUP2 MSTORE SWAP1 PUSH1 0x1 ADD SWAP1 PUSH1 0x20 ADD DUP1 DUP4 GT PUSH2 0x157A JUMPI DUP3 SWAP1 SUB PUSH1 0x1F AND DUP3 ADD SWAP2 JUMPDEST POP POP POP POP POP DUP2 MSTORE PUSH1 0x20 ADD PUSH1 0x1 DUP3 ADD SLOAD DUP2 MSTORE POP POP DUP2 MSTORE PUSH1 0x20 ADD SWAP1 PUSH1 0x1 ADD SWAP1 PUSH2 0x14EB JUMP JUMPDEST POP POP POP SWAP1 DUP3 MSTORE POP PUSH1 0x8 DUP3 ADD SLOAD PUSH1 0x20 DUP3 ADD MSTORE PUSH1 0x9 DUP3 ADD SLOAD PUSH1 0x40 DUP3 ADD MSTORE PUSH1 0xA DUP3 ADD SLOAD PUSH1 0x60 DUP3 ADD MSTORE PUSH1 0xB DUP3 ADD SLOAD PUSH1 0x1 PUSH1 0x1 PUSH1 0xA0 SHL SUB AND PUSH1 0x80 DUP3 ADD MSTORE PUSH1 0xC SWAP1 SWAP2 ADD SLOAD PUSH1 0xA0 SWAP1 SWAP2 ADD MSTORE SWAP3 SWAP2 POP POP JUMP JUMPDEST PUSH1 0x0 DUP2 DUP2 MSTORE PUSH1 0x4 PUSH1 0x20 MSTORE PUSH1 0x40 DUP2 KECCAK256 SLOAD DUP2 SUB PUSH2 0x1630 JUMPI PUSH1 0x40 MLOAD PUSH3 0x461BCD PUSH1 0xE5 SHL DUP2 MSTORE PUSH1 0x4 ADD PUSH2 0x9AE SWAP1 PUSH2 0x4824 JUMP JUMPDEST POP PUSH1 0x0 SWAP1 DUP2 MSTORE PUSH1 0x4 PUSH1 0x20 DUP2 SWAP1 MSTORE PUSH1 0x40 SWAP1 SWAP2 KECCAK256 ADD SLOAD PUSH1 0xFF AND SWAP1 JUMP JUMPDEST PUSH2 0x1656 CALLER DUP5 DUP5 DUP5 PUSH2 0x19E7 JUMP JUMPDEST POP POP POP JUMP JUMPDEST PUSH2 0x1663 PUSH2 0x3773 JUMP JUMPDEST PUSH2 0x166D PUSH1 0x0 PUSH2 0x37F5 JUMP JUMPDEST JUMP JUMPDEST PUSH1 0x0 JUMPDEST SWAP3 SWAP2 POP POP JUMP JUMPDEST PUSH2 0x1179 CALLER DUP4 DUP4 CALLVALUE PUSH2 0xD38 JUMP JUMPDEST PUSH1 0x1 PUSH1 0x1 PUSH1 0xA0 SHL SUB DUP2 AND PUSH1 0x0 SWAP1 DUP2 MSTORE PUSH1 0x8 PUSH1 0x20 SWAP1 DUP2 MSTORE PUSH1 0x40 DUP1 DUP4 KECCAK256 DUP1 SLOAD DUP3 MLOAD DUP2 DUP6 MUL DUP2 ADD DUP6 ADD SWAP1 SWAP4 MSTORE DUP1 DUP4 MSTORE DUP5 SWAP4 DUP4 ADD DUP3 DUP3 DUP1 ISZERO PUSH2 0x16E1 JUMPI PUSH1 0x20 MUL DUP3 ADD SWAP2 SWAP1 PUSH1 0x0 MSTORE PUSH1 0x20 PUSH1 0x0 KECCAK256 SWAP1 JUMPDEST DUP2 SLOAD DUP2 MSTORE PUSH1 0x20 ADD SWAP1 PUSH1 0x1 ADD SWAP1 DUP1 DUP4 GT PUSH2 0x16CD JUMPI JUMPDEST POP POP POP POP POP SWAP1 POP DUP1 MLOAD PUSH1 0x0 SUB PUSH2 0x16FA JUMPI POP PUSH1 0x0 SWAP3 SWAP2 POP POP JUMP JUMPDEST PUSH1 0x0 DUP1 JUMPDEST DUP3 MLOAD DUP2 LT ISZERO PUSH2 0x1736 JUMPI DUP3 DUP2 DUP2 MLOAD DUP2 LT PUSH2 0x1719 JUMPI PUSH2 0x1719 PUSH2 0x46B1 JUMP JUMPDEST PUSH1 0x20 MUL PUSH1 0x20 ADD ADD MLOAD DUP3 PUSH2 0x172C SWAP2 SWAP1 PUSH2 0x46DD JUMP JUMPDEST SWAP2 POP PUSH1 0x1 ADD PUSH2 0x16FE JUMP JUMPDEST POP DUP2 MLOAD PUSH2 0x1743 SWAP1 DUP3 PUSH2 0x4850 JUMP JUMPDEST SWAP5 SWAP4 POP POP POP POP JUMP JUMPDEST PUSH2 0x1786 PUSH1 0x40 MLOAD DUP1 PUSH1 0xA0 ADD PUSH1 0x40 MSTORE DUP1 PUSH1 0x0 DUP2 MSTORE PUSH1 0x20 ADD PUSH1 0x0 DUP2 MSTORE PUSH1 0x20 ADD PUSH1 0x0 PUSH1 0x1 PUSH1 0x1 PUSH1 0xA0 SHL SUB AND DUP2 MSTORE PUSH1 0x20 ADD PUSH1 0x60 DUP2 MSTORE PUSH1 0x20 ADD PUSH1 0x60 DUP2 MSTORE POP SWAP1 JUMP JUMPDEST PUSH1 0x0 DUP4 DUP2 MSTORE PUSH1 0x5 PUSH1 0x20 SWAP1 DUP2 MSTORE PUSH1 0x40 DUP1 DUP4 KECCAK256 DUP6 DUP5 MSTORE SWAP1 SWAP2 MSTORE DUP2 KECCAK256 SLOAD SWAP1 SUB PUSH2 0x17EE JUMPI PUSH1 0x40 MLOAD PUSH3 0x461BCD PUSH1 0xE5 SHL DUP2 MSTORE PUSH1 0x20 PUSH1 0x4 DUP3 ADD MSTORE PUSH1 0x1A PUSH1 0x24 DUP3 ADD MSTORE PUSH32 0x4170706C69636174696F6E20646F6573206E6F74206578697374000000000000 PUSH1 0x44 DUP3 ADD MSTORE PUSH1 0x64 ADD PUSH2 0x9AE JUMP JUMPDEST PUSH1 0x0 DUP4 DUP2 MSTORE PUSH1 0x5 PUSH1 0x20 SWAP1 DUP2 MSTORE PUSH1 0x40 DUP1 DUP4 KECCAK256 DUP6 DUP5 MSTORE DUP3 MSTORE SWAP2 DUP3 SWAP1 KECCAK256 DUP3 MLOAD PUSH1 0xA0 DUP2 ADD DUP5 MSTORE DUP2 SLOAD DUP2 MSTORE PUSH1 0x1 DUP3 ADD SLOAD SWAP3 DUP2 ADD SWAP3 SWAP1 SWAP3 MSTORE PUSH1 0x2 DUP2 ADD SLOAD PUSH1 0x1 PUSH1 0x1 PUSH1 0xA0 SHL SUB AND SWAP3 DUP3 ADD SWAP3 SWAP1 SWAP3 MSTORE PUSH1 0x3 DUP3 ADD DUP1 SLOAD SWAP2 SWAP3 SWAP2 PUSH1 0x60 DUP5 ADD SWAP2 SWAP1 PUSH2 0x184D SWAP1 PUSH2 0x467D JUMP JUMPDEST DUP1 PUSH1 0x1F ADD PUSH1 0x20 DUP1 SWAP2 DIV MUL PUSH1 0x20 ADD PUSH1 0x40 MLOAD SWAP1 DUP2 ADD PUSH1 0x40 MSTORE DUP1 SWAP3 SWAP2 SWAP1 DUP2 DUP2 MSTORE PUSH1 0x20 ADD DUP3 DUP1 SLOAD PUSH2 0x1879 SWAP1 PUSH2 0x467D JUMP JUMPDEST DUP1 ISZERO PUSH2 0x18C6 JUMPI DUP1 PUSH1 0x1F LT PUSH2 0x189B JUMPI PUSH2 0x100 DUP1 DUP4 SLOAD DIV MUL DUP4 MSTORE SWAP2 PUSH1 0x20 ADD SWAP2 PUSH2 0x18C6 JUMP JUMPDEST DUP3 ADD SWAP2 SWAP1 PUSH1 0x0 MSTORE PUSH1 0x20 PUSH1 0x0 KECCAK256 SWAP1 JUMPDEST DUP2 SLOAD DUP2 MSTORE SWAP1 PUSH1 0x1 ADD SWAP1 PUSH1 0x20 ADD DUP1 DUP4 GT PUSH2 0x18A9 JUMPI DUP3 SWAP1 SUB PUSH1 0x1F AND DUP3 ADD SWAP2 JUMPDEST POP POP POP POP POP DUP2 MSTORE PUSH1 0x20 ADD PUSH1 0x4 DUP3 ADD DUP1 SLOAD DUP1 PUSH1 0x20 MUL PUSH1 0x20 ADD PUSH1 0x40 MLOAD SWAP1 DUP2 ADD PUSH1 0x40 MSTORE DUP1 SWAP3 SWAP2 SWAP1 DUP2 DUP2 MSTORE PUSH1 0x20 ADD PUSH1 0x0 SWAP1 JUMPDEST DUP3 DUP3 LT ISZERO PUSH2 0x19C2 JUMPI DUP4 DUP3 SWAP1 PUSH1 0x0 MSTORE PUSH1 0x20 PUSH1 0x0 KECCAK256 SWAP1 PUSH1 0x2 MUL ADD PUSH1 0x40 MLOAD DUP1 PUSH1 0x40 ADD PUSH1 0x40 MSTORE SWAP1 DUP2 PUSH1 0x0 DUP3 ADD DUP1 SLOAD PUSH2 0x1927 SWAP1 PUSH2 0x467D JUMP JUMPDEST DUP1 PUSH1 0x1F ADD PUSH1 0x20 DUP1 SWAP2 DIV MUL PUSH1 0x20 ADD PUSH1 0x40 MLOAD SWAP1 DUP2 ADD PUSH1 0x40 MSTORE DUP1 SWAP3 SWAP2 SWAP1 DUP2 DUP2 MSTORE PUSH1 0x20 ADD DUP3 DUP1 SLOAD PUSH2 0x1953 SWAP1 PUSH2 0x467D JUMP JUMPDEST DUP1 ISZERO PUSH2 0x19A0 JUMPI DUP1 PUSH1 0x1F LT PUSH2 0x1975 JUMPI PUSH2 0x100 DUP1 DUP4 SLOAD DIV MUL DUP4 MSTORE SWAP2 PUSH1 0x20 ADD SWAP2 PUSH2 0x19A0 JUMP JUMPDEST DUP3 ADD SWAP2 SWAP1 PUSH1 0x0 MSTORE PUSH1 0x20 PUSH1 0x0 KECCAK256 SWAP1 JUMPDEST DUP2 SLOAD DUP2 MSTORE SWAP1 PUSH1 0x1 ADD SWAP1 PUSH1 0x20 ADD DUP1 DUP4 GT PUSH2 0x1983 JUMPI DUP3 SWAP1 SUB PUSH1 0x1F AND DUP3 ADD SWAP2 JUMPDEST POP POP POP POP POP DUP2 MSTORE PUSH1 0x20 ADD PUSH1 0x1 DUP3 ADD SLOAD DUP2 MSTORE POP POP DUP2 MSTORE PUSH1 0x20 ADD SWAP1 PUSH1 0x1 ADD SWAP1 PUSH2 0x18F4 JUMP JUMPDEST POP POP POP SWAP2 MSTORE POP SWAP1 SWAP5 SWAP4 POP POP POP POP JUMP JUMPDEST PUSH2 0x1179 CALLER DUP4 DUP4 PUSH2 0x2CBA JUMP JUMPDEST PUSH2 0x1179 CALLER DUP4 DUP4 PUSH2 0x282E JUMP JUMPDEST PUSH1 0x1 PUSH1 0x1 PUSH1 0xA0 SHL SUB DUP5 AND PUSH1 0x0 SWAP1 DUP2 MSTORE PUSH1 0x3 PUSH1 0x20 MSTORE PUSH1 0x40 SWAP1 KECCAK256 SLOAD PUSH1 0xFF AND PUSH2 0x1A4F JUMPI PUSH1 0x40 MLOAD PUSH3 0x461BCD PUSH1 0xE5 SHL DUP2 MSTORE PUSH1 0x20 PUSH1 0x4 DUP3 ADD MSTORE PUSH1 0x1A PUSH1 0x24 DUP3 ADD MSTORE PUSH32 0x4D75737420686176652070726F66696C6520746F206170706C79000000000000 PUSH1 0x44 DUP3 ADD MSTORE PUSH1 0x64 ADD PUSH2 0x9AE JUMP JUMPDEST PUSH1 0x0 DUP4 DUP2 MSTORE PUSH1 0x4 PUSH1 0x20 MSTORE PUSH1 0x40 DUP2 KECCAK256 SLOAD SWAP1 SUB PUSH2 0x1A7C JUMPI PUSH1 0x40 MLOAD PUSH3 0x461BCD PUSH1 0xE5 SHL DUP2 MSTORE PUSH1 0x4 ADD PUSH2 0x9AE SWAP1 PUSH2 0x4824 JUMP JUMPDEST PUSH1 0x0 DUP4 DUP2 MSTORE PUSH1 0x4 PUSH1 0x20 DUP2 SWAP1 MSTORE PUSH1 0x40 SWAP1 SWAP2 KECCAK256 ADD SLOAD PUSH1 0xFF AND PUSH2 0x1AD0 JUMPI PUSH1 0x40 MLOAD PUSH3 0x461BCD PUSH1 0xE5 SHL DUP2 MSTORE PUSH1 0x20 PUSH1 0x4 DUP3 ADD MSTORE PUSH1 0xF PUSH1 0x24 DUP3 ADD MSTORE PUSH15 0x2537B11034B9903737BA1037B832B7 PUSH1 0x89 SHL PUSH1 0x44 DUP3 ADD MSTORE PUSH1 0x64 ADD PUSH2 0x9AE JUMP JUMPDEST PUSH1 0x0 DUP4 DUP2 MSTORE PUSH1 0x4 PUSH1 0x20 MSTORE PUSH1 0x40 SWAP1 KECCAK256 PUSH1 0x1 ADD SLOAD PUSH1 0x1 PUSH1 0x1 PUSH1 0xA0 SHL SUB DUP1 DUP7 AND SWAP2 AND SUB PUSH2 0x1B3C JUMPI PUSH1 0x40 MLOAD PUSH3 0x461BCD PUSH1 0xE5 SHL DUP2 MSTORE PUSH1 0x20 PUSH1 0x4 DUP3 ADD MSTORE PUSH1 0x17 PUSH1 0x24 DUP3 ADD MSTORE PUSH32 0x43616E6E6F74206170706C7920746F206F776E206A6F62000000000000000000 PUSH1 0x44 DUP3 ADD MSTORE PUSH1 0x64 ADD PUSH2 0x9AE JUMP JUMPDEST PUSH1 0x0 DUP2 MLOAD GT PUSH2 0x1B99 JUMPI PUSH1 0x40 MLOAD PUSH3 0x461BCD PUSH1 0xE5 SHL DUP2 MSTORE PUSH1 0x20 PUSH1 0x4 DUP3 ADD MSTORE PUSH1 0x23 PUSH1 0x24 DUP3 ADD MSTORE PUSH32 0x4D7573742070726F706F7365206174206C65617374206F6E65206D696C657374 PUSH1 0x44 DUP3 ADD MSTORE PUSH3 0x6F6E65 PUSH1 0xE8 SHL PUSH1 0x64 DUP3 ADD MSTORE PUSH1 0x84 ADD PUSH2 0x9AE JUMP JUMPDEST PUSH1 0x0 JUMPDEST PUSH1 0x0 DUP5 DUP2 MSTORE PUSH1 0x4 PUSH1 0x20 MSTORE PUSH1 0x40 SWAP1 KECCAK256 PUSH1 0x2 ADD SLOAD DUP2 LT ISZERO PUSH2 0x1C4E JUMPI PUSH1 0x0 DUP5 DUP2 MSTORE PUSH1 0x4 PUSH1 0x20 MSTORE PUSH1 0x40 SWAP1 KECCAK256 PUSH1 0x2 ADD DUP1 SLOAD PUSH1 0x1 PUSH1 0x1 PUSH1 0xA0 SHL SUB DUP8 AND SWAP2 SWAP1 DUP4 SWAP1 DUP2 LT PUSH2 0x1BE4 JUMPI PUSH2 0x1BE4 PUSH2 0x46B1 JUMP JUMPDEST PUSH1 0x0 SWAP2 DUP3 MSTORE PUSH1 0x20 SWAP1 SWAP2 KECCAK256 ADD SLOAD PUSH1 0x1 PUSH1 0x1 PUSH1 0xA0 SHL SUB AND SUB PUSH2 0x1C46 JUMPI PUSH1 0x40 MLOAD PUSH3 0x461BCD PUSH1 0xE5 SHL DUP2 MSTORE PUSH1 0x20 PUSH1 0x4 DUP3 ADD MSTORE PUSH1 0x1B PUSH1 0x24 DUP3 ADD MSTORE PUSH32 0x416C7265616479206170706C69656420746F2074686973206A6F620000000000 PUSH1 0x44 DUP3 ADD MSTORE PUSH1 0x64 ADD PUSH2 0x9AE JUMP JUMPDEST PUSH1 0x1 ADD PUSH2 0x1B9C JUMP JUMPDEST POP PUSH1 0x0 DUP4 DUP2 MSTORE PUSH1 0x4 PUSH1 0x20 SWAP1 DUP2 MSTORE PUSH1 0x40 DUP1 DUP4 KECCAK256 PUSH1 0x2 ADD DUP1 SLOAD PUSH1 0x1 DUP2 ADD DUP3 SSTORE SWAP1 DUP5 MSTORE DUP3 DUP5 KECCAK256 ADD DUP1 SLOAD PUSH1 0x1 PUSH1 0x1 PUSH1 0xA0 SHL SUB NOT AND PUSH1 0x1 PUSH1 0x1 PUSH1 0xA0 SHL SUB DUP10 AND OR SWAP1 SSTORE DUP6 DUP4 MSTORE PUSH1 0x6 SWAP1 SWAP2 MSTORE DUP2 KECCAK256 DUP1 SLOAD SWAP2 PUSH2 0x1CA1 DUP4 PUSH2 0x46F0 JUMP JUMPDEST SWAP1 SWAP2 SSTORE POP POP PUSH1 0x0 DUP4 DUP2 MSTORE PUSH1 0x6 PUSH1 0x20 SWAP1 DUP2 MSTORE PUSH1 0x40 DUP1 DUP4 KECCAK256 SLOAD PUSH1 0x5 DUP4 MSTORE DUP2 DUP5 KECCAK256 DUP2 DUP6 MSTORE SWAP1 SWAP3 MSTORE SWAP1 SWAP2 KECCAK256 DUP2 DUP2 SSTORE PUSH1 0x1 DUP2 ADD DUP6 SWAP1 SSTORE PUSH1 0x2 DUP2 ADD DUP1 SLOAD PUSH1 0x1 PUSH1 0x1 PUSH1 0xA0 SHL SUB NOT AND PUSH1 0x1 PUSH1 0x1 PUSH1 0xA0 SHL SUB DUP9 AND OR SWAP1 SSTORE PUSH1 0x3 DUP2 ADD PUSH2 0x1CFD DUP6 DUP3 PUSH2 0x4750 JUMP JUMPDEST POP PUSH1 0x0 JUMPDEST DUP4 MLOAD DUP2 LT ISZERO PUSH2 0x1D66 JUMPI DUP2 PUSH1 0x4 ADD DUP5 DUP3 DUP2 MLOAD DUP2 LT PUSH2 0x1D20 JUMPI PUSH2 0x1D20 PUSH2 0x46B1 JUMP JUMPDEST PUSH1 0x20 SWAP1 DUP2 MUL SWAP2 SWAP1 SWAP2 ADD DUP2 ADD MLOAD DUP3 SLOAD PUSH1 0x1 DUP2 ADD DUP5 SSTORE PUSH1 0x0 SWAP4 DUP5 MSTORE SWAP2 SWAP1 SWAP3 KECCAK256 DUP3 MLOAD PUSH1 0x2 SWAP1 SWAP3 MUL ADD SWAP1 DUP2 SWAP1 PUSH2 0x1D52 SWAP1 DUP3 PUSH2 0x4750 JUMP JUMPDEST POP PUSH1 0x20 SWAP2 SWAP1 SWAP2 ADD MLOAD PUSH1 0x1 SWAP2 DUP3 ADD SSTORE ADD PUSH2 0x1D01 JUMP JUMPDEST POP DUP6 PUSH1 0x1 PUSH1 0x1 PUSH1 0xA0 SHL SUB AND DUP3 DUP7 PUSH32 0x5753F04758D72C07FFC0A1F59241391A57CE340804EBDDA56F510EF21E83EBF0 DUP8 PUSH1 0x40 MLOAD PUSH2 0x1DA2 SWAP2 SWAP1 PUSH2 0x4811 JUMP JUMPDEST PUSH1 0x40 MLOAD DUP1 SWAP2 SUB SWAP1 LOG4 POP POP POP POP POP POP JUMP JUMPDEST PUSH2 0x1656 CALLER DUP5 DUP5 DUP5 JUMPDEST PUSH1 0x0 DUP4 DUP2 MSTORE PUSH1 0x4 PUSH1 0x20 MSTORE PUSH1 0x40 DUP2 KECCAK256 SLOAD SWAP1 SUB PUSH2 0x1DE7 JUMPI PUSH1 0x40 MLOAD PUSH3 0x461BCD PUSH1 0xE5 SHL DUP2 MSTORE PUSH1 0x4 ADD PUSH2 0x9AE SWAP1 PUSH2 0x4824 JUMP JUMPDEST PUSH1 0x0 DUP4 DUP2 MSTORE PUSH1 0x4 PUSH1 0x20 DUP2 SWAP1 MSTORE PUSH1 0x40 SWAP1 SWAP2 KECCAK256 ADD SLOAD PUSH1 0xFF AND ISZERO PUSH2 0x1E40 JUMPI PUSH1 0x40 MLOAD PUSH3 0x461BCD PUSH1 0xE5 SHL DUP2 MSTORE PUSH1 0x20 PUSH1 0x4 DUP3 ADD MSTORE PUSH1 0x13 PUSH1 0x24 DUP3 ADD MSTORE PUSH19 0x129BD8881B5D5CDD081899481CDD185C9D1959 PUSH1 0x6A SHL PUSH1 0x44 DUP3 ADD MSTORE PUSH1 0x64 ADD PUSH2 0x9AE JUMP JUMPDEST PUSH1 0x1 DUP2 LT ISZERO DUP1 ISZERO PUSH2 0x1E52 JUMPI POP PUSH1 0x5 DUP2 GT ISZERO JUMPDEST PUSH2 0x1E9E JUMPI PUSH1 0x40 MLOAD PUSH3 0x461BCD PUSH1 0xE5 SHL DUP2 MSTORE PUSH1 0x20 PUSH1 0x4 DUP3 ADD MSTORE PUSH1 0x1E PUSH1 0x24 DUP3 ADD MSTORE PUSH32 0x526174696E67206D757374206265206265747765656E203120616E6420350000 PUSH1 0x44 DUP3 ADD MSTORE PUSH1 0x64 ADD PUSH2 0x9AE JUMP JUMPDEST PUSH1 0x0 DUP4 DUP2 MSTORE PUSH1 0x7 PUSH1 0x20 SWAP1 DUP2 MSTORE PUSH1 0x40 DUP1 DUP4 KECCAK256 PUSH1 0x1 PUSH1 0x1 PUSH1 0xA0 SHL SUB DUP7 AND DUP5 MSTORE SWAP1 SWAP2 MSTORE SWAP1 KECCAK256 SLOAD ISZERO PUSH2 0x1F0E JUMPI PUSH1 0x40 MLOAD PUSH3 0x461BCD PUSH1 0xE5 SHL DUP2 MSTORE PUSH1 0x20 PUSH1 0x4 DUP3 ADD MSTORE PUSH1 0x1F PUSH1 0x24 DUP3 ADD MSTORE PUSH32 0x5573657220616C726561647920726174656420666F722074686973206A6F6200 PUSH1 0x44 DUP3 ADD MSTORE PUSH1 0x64 ADD PUSH2 0x9AE JUMP JUMPDEST PUSH1 0x0 DUP4 DUP2 MSTORE PUSH1 0x4 PUSH1 0x20 MSTORE PUSH1 0x40 DUP2 KECCAK256 PUSH1 0x1 ADD SLOAD PUSH1 0x1 PUSH1 0x1 PUSH1 0xA0 SHL SUB DUP7 DUP2 AND SWAP2 AND EQ DUP1 ISZERO PUSH2 0x1F56 JUMPI POP PUSH1 0x0 DUP5 DUP2 MSTORE PUSH1 0x4 PUSH1 0x20 MSTORE PUSH1 0x40 SWAP1 KECCAK256 PUSH1 0xB ADD SLOAD PUSH1 0x1 PUSH1 0x1 PUSH1 0xA0 SHL SUB DUP5 DUP2 AND SWAP2 AND EQ JUMPDEST ISZERO PUSH2 0x1F63 JUMPI POP PUSH1 0x1 PUSH2 0x1FB4 JUMP JUMPDEST PUSH1 0x0 DUP5 DUP2 MSTORE PUSH1 0x4 PUSH1 0x20 MSTORE PUSH1 0x40 SWAP1 KECCAK256 PUSH1 0xB ADD SLOAD PUSH1 0x1 PUSH1 0x1 PUSH1 0xA0 SHL SUB DUP7 DUP2 AND SWAP2 AND EQ DUP1 ISZERO PUSH2 0x1FAB JUMPI POP PUSH1 0x0 DUP5 DUP2 MSTORE PUSH1 0x4 PUSH1 0x20 MSTORE PUSH1 0x40 SWAP1 KECCAK256 PUSH1 0x1 ADD SLOAD PUSH1 0x1 PUSH1 0x1 PUSH1 0xA0 SHL SUB DUP5 DUP2 AND SWAP2 AND EQ JUMPDEST ISZERO PUSH2 0x1FB4 JUMPI POP PUSH1 0x1 JUMPDEST DUP1 PUSH2 0x2017 JUMPI PUSH1 0x40 MLOAD PUSH3 0x461BCD PUSH1 0xE5 SHL DUP2 MSTORE PUSH1 0x20 PUSH1 0x4 DUP3 ADD MSTORE PUSH1 0x2D PUSH1 0x24 DUP3 ADD MSTORE PUSH32 0x4E6F7420617574686F72697A656420746F207261746520746869732075736572 PUSH1 0x44 DUP3 ADD MSTORE PUSH13 0x103337B9103A3434B9903537B1 PUSH1 0x99 SHL PUSH1 0x64 DUP3 ADD MSTORE PUSH1 0x84 ADD PUSH2 0x9AE JUMP JUMPDEST PUSH1 0x0 DUP5 DUP2 MSTORE PUSH1 0x7 PUSH1 0x20 SWAP1 DUP2 MSTORE PUSH1 0x40 DUP1 DUP4 KECCAK256 PUSH1 0x1 PUSH1 0x1 PUSH1 0xA0 SHL SUB DUP8 DUP2 AND DUP1 DUP7 MSTORE SWAP2 DUP5 MSTORE DUP3 DUP6 KECCAK256 DUP8 SWAP1 SSTORE PUSH1 0x8 DUP5 MSTORE DUP3 DUP6 KECCAK256 DUP1 SLOAD PUSH1 0x1 DUP2 ADD DUP3 SSTORE SWAP1 DUP7 MSTORE SWAP5 DUP5 SWAP1 KECCAK256 SWAP1 SWAP5 ADD DUP7 SWAP1 SSTORE SWAP1 MLOAD DUP6 DUP2 MSTORE SWAP1 SWAP3 DUP9 AND SWAP2 DUP8 SWAP2 PUSH32 0xABFDB5CA6197E86C57B31CFFB45DAC27A3EFF08D7E825B6F1FB66C2C06FEF6D7 SWAP2 ADD PUSH1 0x40 MLOAD DUP1 SWAP2 SUB SWAP1 LOG4 POP POP POP POP POP JUMP JUMPDEST PUSH1 0x0 DUP3 DUP2 MSTORE PUSH1 0x4 PUSH1 0x20 MSTORE PUSH1 0x40 DUP2 KECCAK256 SLOAD SWAP1 SUB PUSH2 0x20C6 JUMPI PUSH1 0x40 MLOAD PUSH3 0x461BCD PUSH1 0xE5 SHL DUP2 MSTORE PUSH1 0x4 ADD PUSH2 0x9AE SWAP1 PUSH2 0x4824 JUMP JUMPDEST PUSH1 0x0 DUP3 DUP2 MSTORE PUSH1 0x4 PUSH1 0x20 DUP2 SWAP1 MSTORE PUSH1 0x40 SWAP1 SWAP2 KECCAK256 ADD SLOAD PUSH1 0xFF AND ISZERO PUSH2 0x211F JUMPI PUSH1 0x40 MLOAD PUSH3 0x461BCD PUSH1 0xE5 SHL DUP2 MSTORE PUSH1 0x20 PUSH1 0x4 DUP3 ADD MSTORE PUSH1 0x13 PUSH1 0x24 DUP3 ADD MSTORE PUSH19 0x129BD8881B5D5CDD081899481CDD185C9D1959 PUSH1 0x6A SHL PUSH1 0x44 DUP3 ADD MSTORE PUSH1 0x64 ADD PUSH2 0x9AE JUMP JUMPDEST PUSH1 0x0 DUP3 DUP2 MSTORE PUSH1 0x4 PUSH1 0x20 MSTORE PUSH1 0x40 SWAP1 KECCAK256 PUSH1 0xB ADD SLOAD PUSH1 0x1 PUSH1 0x1 PUSH1 0xA0 SHL SUB DUP5 DUP2 AND SWAP2 AND EQ PUSH2 0x219B JUMPI PUSH1 0x40 MLOAD PUSH3 0x461BCD PUSH1 0xE5 SHL DUP2 MSTORE PUSH1 0x20 PUSH1 0x4 DUP3 ADD MSTORE PUSH1 0x27 PUSH1 0x24 DUP3 ADD MSTORE PUSH32 0x4F6E6C792073656C6563746564206170706C6963616E742063616E207375626D PUSH1 0x44 DUP3 ADD MSTORE PUSH7 0x697420776F726B PUSH1 0xC8 SHL PUSH1 0x64 DUP3 ADD MSTORE PUSH1 0x84 ADD PUSH2 0x9AE JUMP JUMPDEST PUSH1 0x0 DUP3 DUP2 MSTORE PUSH1 0x4 PUSH1 0x20 MSTORE PUSH1 0x40 SWAP1 KECCAK256 PUSH1 0x7 DUP2 ADD SLOAD PUSH1 0xA SWAP1 SWAP2 ADD SLOAD GT ISZERO PUSH2 0x21FD JUMPI PUSH1 0x40 MLOAD PUSH3 0x461BCD PUSH1 0xE5 SHL DUP2 MSTORE PUSH1 0x20 PUSH1 0x4 DUP3 ADD MSTORE PUSH1 0x18 PUSH1 0x24 DUP3 ADD MSTORE PUSH24 0x105B1B081B5A5B195CDD1BDB995CC818DBDB5C1B195D1959 PUSH1 0x42 SHL PUSH1 0x44 DUP3 ADD MSTORE PUSH1 0x64 ADD PUSH2 0x9AE JUMP JUMPDEST PUSH1 0x0 DUP3 DUP2 MSTORE PUSH1 0x4 PUSH1 0x20 SWAP1 DUP2 MSTORE PUSH1 0x40 DUP3 KECCAK256 PUSH1 0x5 ADD DUP1 SLOAD PUSH1 0x1 DUP2 ADD DUP3 SSTORE SWAP1 DUP4 MSTORE SWAP2 KECCAK256 ADD PUSH2 0x2228 DUP3 DUP3 PUSH2 0x4750 JUMP JUMPDEST POP DUP3 PUSH1 0x1 PUSH1 0x1 PUSH1 0xA0 SHL SUB AND DUP3 PUSH32 0x1AB2C8B3DB130B04659C610D59CD31E68A4D43F1E7B4CDB8E98D9571C9C6BFD6 DUP4 PUSH1 0x4 PUSH1 0x0 DUP8 DUP2 MSTORE PUSH1 0x20 ADD SWAP1 DUP2 MSTORE PUSH1 0x20 ADD PUSH1 0x0 KECCAK256 PUSH1 0xA ADD SLOAD PUSH1 0x40 MLOAD PUSH2 0x227B SWAP3 SWAP2 SWAP1 PUSH2 0x4872 JUMP JUMPDEST PUSH1 0x40 MLOAD DUP1 SWAP2 SUB SWAP1 LOG3 POP POP POP JUMP JUMPDEST PUSH1 0x2 PUSH1 0x20 MSTORE PUSH1 0x0 SWAP1 DUP2 MSTORE PUSH1 0x40 SWAP1 KECCAK256 DUP1 SLOAD PUSH1 0x1 DUP3 ADD DUP1 SLOAD PUSH1 0x1 PUSH1 0x1 PUSH1 0xA0 SHL SUB SWAP1 SWAP3 AND SWAP3 SWAP2 PUSH2 0x22B4 SWAP1 PUSH2 0x467D JUMP JUMPDEST DUP1 PUSH1 0x1F ADD PUSH1 0x20 DUP1 SWAP2 DIV MUL PUSH1 0x20 ADD PUSH1 0x40 MLOAD SWAP1 DUP2 ADD PUSH1 0x40 MSTORE DUP1 SWAP3 SWAP2 SWAP1 DUP2 DUP2 MSTORE PUSH1 0x20 ADD DUP3 DUP1 SLOAD PUSH2 0x22E0 SWAP1 PUSH2 0x467D JUMP JUMPDEST DUP1 ISZERO PUSH2 0x232D JUMPI DUP1 PUSH1 0x1F LT PUSH2 0x2302 JUMPI PUSH2 0x100 DUP1 DUP4 SLOAD DIV MUL DUP4 MSTORE SWAP2 PUSH1 0x20 ADD SWAP2 PUSH2 0x232D JUMP JUMPDEST DUP3 ADD SWAP2 SWAP1 PUSH1 0x0 MSTORE PUSH1 0x20 PUSH1 0x0 KECCAK256 SWAP1 JUMPDEST DUP2 SLOAD DUP2 MSTORE SWAP1 PUSH1 0x1 ADD SWAP1 PUSH1 0x20 ADD DUP1 DUP4 GT PUSH2 0x2310 JUMPI DUP3 SWAP1 SUB PUSH1 0x1F AND DUP3 ADD SWAP2 JUMPDEST POP POP POP POP PUSH1 0x2 DUP4 ADD SLOAD PUSH1 0x3 SWAP1 SWAP4 ADD SLOAD SWAP2 SWAP3 PUSH1 0x1 PUSH1 0x1 PUSH1 0xA0 SHL SUB AND SWAP2 SWAP1 POP DUP5 JUMP JUMPDEST PUSH1 0x8 PUSH1 0x20 MSTORE DUP2 PUSH1 0x0 MSTORE PUSH1 0x40 PUSH1 0x0 KECCAK256 DUP2 DUP2 SLOAD DUP2 LT PUSH2 0x2369 JUMPI PUSH1 0x0 DUP1 REVERT JUMPDEST SWAP1 PUSH1 0x0 MSTORE PUSH1 0x20 PUSH1 0x0 KECCAK256 ADD PUSH1 0x0 SWAP2 POP SWAP2 POP POP SLOAD DUP2 JUMP JUMPDEST PUSH2 0x2386 PUSH2 0x3845 JUMP JUMPDEST PUSH1 0x0 DUP3 DUP2 MSTORE PUSH1 0x4 PUSH1 0x20 MSTORE PUSH1 0x40 DUP2 KECCAK256 SLOAD SWAP1 SUB PUSH2 0x23B3 JUMPI PUSH1 0x40 MLOAD PUSH3 0x461BCD PUSH1 0xE5 SHL DUP2 MSTORE PUSH1 0x4 ADD PUSH2 0x9AE SWAP1 PUSH2 0x4824 JUMP JUMPDEST PUSH1 0x0 DUP3 DUP2 MSTORE PUSH1 0x4 PUSH1 0x20 SWAP1 DUP2 MSTORE PUSH1 0x40 SWAP2 DUP3 SWAP1 KECCAK256 DUP3 MLOAD PUSH2 0x1A0 DUP2 ADD DUP5 MSTORE DUP2 SLOAD DUP2 MSTORE PUSH1 0x1 DUP3 ADD SLOAD PUSH1 0x1 PUSH1 0x1 PUSH1 0xA0 SHL SUB AND DUP2 DUP5 ADD MSTORE PUSH1 0x2 DUP3 ADD DUP1 SLOAD DUP6 MLOAD DUP2 DUP7 MUL DUP2 ADD DUP7 ADD DUP8 MSTORE DUP2 DUP2 MSTORE SWAP3 SWAP6 SWAP4 SWAP5 SWAP4 DUP7 ADD SWAP4 DUP4 ADD DUP3 DUP3 DUP1 ISZERO PUSH2 0x2439 JUMPI PUSH1 0x20 MUL DUP3 ADD SWAP2 SWAP1 PUSH1 0x0 MSTORE PUSH1 0x20 PUSH1 0x0 KECCAK256 SWAP1 JUMPDEST DUP2 SLOAD PUSH1 0x1 PUSH1 0x1 PUSH1 0xA0 SHL SUB AND DUP2 MSTORE PUSH1 0x1 SWAP1 SWAP2 ADD SWAP1 PUSH1 0x20 ADD DUP1 DUP4 GT PUSH2 0x241B JUMPI JUMPDEST POP POP POP POP POP DUP2 MSTORE PUSH1 0x20 ADD PUSH1 0x3 DUP3 ADD DUP1 SLOAD PUSH2 0x2452 SWAP1 PUSH2 0x467D JUMP JUMPDEST DUP1 PUSH1 0x1F ADD PUSH1 0x20 DUP1 SWAP2 DIV MUL PUSH1 0x20 ADD PUSH1 0x40 MLOAD SWAP1 DUP2 ADD PUSH1 0x40 MSTORE DUP1 SWAP3 SWAP2 SWAP1 DUP2 DUP2 MSTORE PUSH1 0x20 ADD DUP3 DUP1 SLOAD PUSH2 0x247E SWAP1 PUSH2 0x467D JUMP JUMPDEST DUP1 ISZERO PUSH2 0x24CB JUMPI DUP1 PUSH1 0x1F LT PUSH2 0x24A0 JUMPI PUSH2 0x100 DUP1 DUP4 SLOAD DIV MUL DUP4 MSTORE SWAP2 PUSH1 0x20 ADD SWAP2 PUSH2 0x24CB JUMP JUMPDEST DUP3 ADD SWAP2 SWAP1 PUSH1 0x0 MSTORE PUSH1 0x20 PUSH1 0x0 KECCAK256 SWAP1 JUMPDEST DUP2 SLOAD DUP2 MSTORE SWAP1 PUSH1 0x1 ADD SWAP1 PUSH1 0x20 ADD DUP1 DUP4 GT PUSH2 0x24AE JUMPI DUP3 SWAP1 SUB PUSH1 0x1F AND DUP3 ADD SWAP2 JUMPDEST POP POP POP SWAP2 DUP4 MSTORE POP POP PUSH1 0x4 DUP3 ADD SLOAD PUSH1 0xFF AND ISZERO ISZERO PUSH1 0x20 DUP1 DUP4 ADD SWAP2 SWAP1 SWAP2 MSTORE PUSH1 0x5 DUP4 ADD DUP1 SLOAD PUSH1 0x40 DUP1 MLOAD DUP3 DUP6 MUL DUP2 ADD DUP6 ADD DUP3 MSTORE DUP3 DUP2 MSTORE SWAP5 ADD SWAP4 SWAP3 PUSH1 0x0 SWAP1 DUP5 ADD JUMPDEST DUP3 DUP3 LT ISZERO PUSH2 0x25B2 JUMPI DUP4 DUP3 SWAP1 PUSH1 0x0 MSTORE PUSH1 0x20 PUSH1 0x0 KECCAK256 ADD DUP1 SLOAD PUSH2 0x2525 SWAP1 PUSH2 0x467D JUMP JUMPDEST DUP1 PUSH1 0x1F ADD PUSH1 0x20 DUP1 SWAP2 DIV MUL PUSH1 0x20 ADD PUSH1 0x40 MLOAD SWAP1 DUP2 ADD PUSH1 0x40 MSTORE DUP1 SWAP3 SWAP2 SWAP1 DUP2 DUP2 MSTORE PUSH1 0x20 ADD DUP3 DUP1 SLOAD PUSH2 0x2551 SWAP1 PUSH2 0x467D JUMP JUMPDEST DUP1 ISZERO PUSH2 0x259E JUMPI DUP1 PUSH1 0x1F LT PUSH2 0x2573 JUMPI PUSH2 0x100 DUP1 DUP4 SLOAD DIV MUL DUP4 MSTORE SWAP2 PUSH1 0x20 ADD SWAP2 PUSH2 0x259E JUMP JUMPDEST DUP3 ADD SWAP2 SWAP1 PUSH1 0x0 MSTORE PUSH1 0x20 PUSH1 0x0 KECCAK256 SWAP1 JUMPDEST DUP2 SLOAD DUP2 MSTORE SWAP1 PUSH1 0x1 ADD SWAP1 PUSH1 0x20 ADD DUP1 DUP4 GT PUSH2 0x2581 JUMPI DUP3 SWAP1 SUB PUSH1 0x1F AND DUP3 ADD SWAP2 JUMPDEST POP POP POP POP POP DUP2 MSTORE PUSH1 0x20 ADD SWAP1 PUSH1 0x1 ADD SWAP1 PUSH2 0x2506 JUMP JUMPDEST POP POP POP POP DUP2 MSTORE PUSH1 0x20 ADD PUSH1 0x6 DUP3 ADD DUP1 SLOAD DUP1 PUSH1 0x20 MUL PUSH1 0x20 ADD PUSH1 0x40 MLOAD SWAP1 DUP2 ADD PUSH1 0x40 MSTORE DUP1 SWAP3 SWAP2 SWAP1 DUP2 DUP2 MSTORE PUSH1 0x20 ADD PUSH1 0x0 SWAP1 JUMPDEST DUP3 DUP3 LT ISZERO PUSH2 0x26AD JUMPI DUP4 DUP3 SWAP1 PUSH1 0x0 MSTORE PUSH1 0x20 PUSH1 0x0 KECCAK256 SWAP1 PUSH1 0x2 MUL ADD PUSH1 0x40 MLOAD DUP1 PUSH1 0x40 ADD PUSH1 0x40 MSTORE SWAP1 DUP2 PUSH1 0x0 DUP3 ADD DUP1 SLOAD PUSH2 0x2612 SWAP1 PUSH2 0x467D JUMP JUMPDEST DUP1 PUSH1 0x1F ADD PUSH1 0x20 DUP1 SWAP2 DIV MUL PUSH1 0x20 ADD PUSH1 0x40 MLOAD SWAP1 DUP2 ADD PUSH1 0x40 MSTORE DUP1 SWAP3 SWAP2 SWAP1 DUP2 DUP2 MSTORE PUSH1 0x20 ADD DUP3 DUP1 SLOAD PUSH2 0x263E SWAP1 PUSH2 0x467D JUMP JUMPDEST DUP1 ISZERO PUSH2 0x268B JUMPI DUP1 PUSH1 0x1F LT PUSH2 0x2660 JUMPI PUSH2 0x100 DUP1 DUP4 SLOAD DIV MUL DUP4 MSTORE SWAP2 PUSH1 0x20 ADD SWAP2 PUSH2 0x268B JUMP JUMPDEST DUP3 ADD SWAP2 SWAP1 PUSH1 0x0 MSTORE PUSH1 0x20 PUSH1 0x0 KECCAK256 SWAP1 JUMPDEST DUP2 SLOAD DUP2 MSTORE SWAP1 PUSH1 0x1 ADD SWAP1 PUSH1 0x20 ADD DUP1 DUP4 GT PUSH2 0x266E JUMPI DUP3 SWAP1 SUB PUSH1 0x1F AND DUP3 ADD SWAP2 JUMPDEST POP POP POP POP POP DUP2 MSTORE PUSH1 0x20 ADD PUSH1 0x1 DUP3 ADD SLOAD DUP2 MSTORE POP POP DUP2 MSTORE PUSH1 0x20 ADD SWAP1 PUSH1 0x1 ADD SWAP1 PUSH2 0x25DF JUMP JUMPDEST POP POP POP POP DUP2 MSTORE PUSH1 0x20 ADD PUSH1 0x7 DUP3 ADD DUP1 SLOAD DUP1 PUSH1 0x20 MUL PUSH1 0x20 ADD PUSH1 0x40 MLOAD SWAP1 DUP2 ADD PUSH1 0x40 MSTORE DUP1 SWAP3 SWAP2 SWAP1 DUP2 DUP2 MSTORE PUSH1 0x20 ADD PUSH1 0x0 SWAP1 JUMPDEST DUP3 DUP3 LT ISZERO PUSH2 0x15B9 JUMPI DUP4 DUP3 SWAP1 PUSH1 0x0 MSTORE PUSH1 0x20 PUSH1 0x0 KECCAK256 SWAP1 PUSH1 0x2 MUL ADD PUSH1 0x40 MLOAD DUP1 PUSH1 0x40 ADD PUSH1 0x40 MSTORE SWAP1 DUP2 PUSH1 0x0 DUP3 ADD DUP1 SLOAD PUSH2 0x270D SWAP1 PUSH2 0x467D JUMP JUMPDEST DUP1 PUSH1 0x1F ADD PUSH1 0x20 DUP1 SWAP2 DIV MUL PUSH1 0x20 ADD PUSH1 0x40 MLOAD SWAP1 DUP2 ADD PUSH1 0x40 MSTORE DUP1 SWAP3 SWAP2 SWAP1 DUP2 DUP2 MSTORE PUSH1 0x20 ADD DUP3 DUP1 SLOAD PUSH2 0x2739 SWAP1 PUSH2 0x467D JUMP JUMPDEST DUP1 ISZERO PUSH2 0x2786 JUMPI DUP1 PUSH1 0x1F LT PUSH2 0x275B JUMPI PUSH2 0x100 DUP1 DUP4 SLOAD DIV MUL DUP4 MSTORE SWAP2 PUSH1 0x20 ADD SWAP2 PUSH2 0x2786 JUMP JUMPDEST DUP3 ADD SWAP2 SWAP1 PUSH1 0x0 MSTORE PUSH1 0x20 PUSH1 0x0 KECCAK256 SWAP1 JUMPDEST DUP2 SLOAD DUP2 MSTORE SWAP1 PUSH1 0x1 ADD SWAP1 PUSH1 0x20 ADD DUP1 DUP4 GT PUSH2 0x2769 JUMPI DUP3 SWAP1 SUB PUSH1 0x1F AND DUP3 ADD SWAP2 JUMPDEST POP POP POP POP POP DUP2 MSTORE PUSH1 0x20 ADD PUSH1 0x1 DUP3 ADD SLOAD DUP2 MSTORE POP POP DUP2 MSTORE PUSH1 0x20 ADD SWAP1 PUSH1 0x1 ADD SWAP1 PUSH2 0x26DA JUMP JUMPDEST PUSH2 0x27B0 PUSH2 0x3773 JUMP JUMPDEST PUSH1 0x40 MLOAD PUSH4 0xCA5EB5E1 PUSH1 0xE0 SHL DUP2 MSTORE PUSH1 0x1 PUSH1 0x1 PUSH1 0xA0 SHL SUB DUP3 DUP2 AND PUSH1 0x4 DUP4 ADD MSTORE PUSH32 0x0 AND SWAP1 PUSH4 0xCA5EB5E1 SWAP1 PUSH1 0x24 ADD PUSH1 0x0 PUSH1 0x40 MLOAD DUP1 DUP4 SUB DUP2 PUSH1 0x0 DUP8 DUP1 EXTCODESIZE ISZERO DUP1 ISZERO PUSH2 0x2813 JUMPI PUSH1 0x0 DUP1 REVERT JUMPDEST POP GAS CALL ISZERO DUP1 ISZERO PUSH2 0x2827 JUMPI RETURNDATASIZE PUSH1 0x0 DUP1 RETURNDATACOPY RETURNDATASIZE PUSH1 0x0 REVERT JUMPDEST POP POP POP POP POP JUMP JUMPDEST PUSH1 0x0 PUSH1 0x1 JUMPDEST PUSH1 0x9 SLOAD DUP2 GT PUSH2 0x2877 JUMPI PUSH1 0x0 DUP2 DUP2 MSTORE PUSH1 0x5 PUSH1 0x20 SWAP1 DUP2 MSTORE PUSH1 0x40 DUP1 DUP4 KECCAK256 DUP8 DUP5 MSTORE SWAP1 SWAP2 MSTORE SWAP1 KECCAK256 SLOAD DUP5 SWAP1 SUB PUSH2 0x2865 JUMPI DUP1 SWAP2 POP PUSH2 0x2877 JUMP JUMPDEST DUP1 PUSH2 0x286F DUP2 PUSH2 0x46F0 JUMP JUMPDEST SWAP2 POP POP PUSH2 0x2833 JUMP JUMPDEST POP DUP1 PUSH1 0x0 SUB PUSH2 0x28C8 JUMPI PUSH1 0x40 MLOAD PUSH3 0x461BCD PUSH1 0xE5 SHL DUP2 MSTORE PUSH1 0x20 PUSH1 0x4 DUP3 ADD MSTORE PUSH1 0x1A PUSH1 0x24 DUP3 ADD MSTORE PUSH32 0x4170706C69636174696F6E20646F6573206E6F74206578697374000000000000 PUSH1 0x44 DUP3 ADD MSTORE PUSH1 0x64 ADD PUSH2 0x9AE JUMP JUMPDEST PUSH1 0x0 DUP2 DUP2 MSTORE PUSH1 0x5 PUSH1 0x20 SWAP1 DUP2 MSTORE PUSH1 0x40 DUP1 DUP4 KECCAK256 DUP7 DUP5 MSTORE DUP3 MSTORE DUP1 DUP4 KECCAK256 DUP5 DUP5 MSTORE PUSH1 0x4 SWAP1 SWAP3 MSTORE SWAP1 SWAP2 KECCAK256 PUSH1 0x1 DUP2 ADD SLOAD PUSH1 0x1 PUSH1 0x1 PUSH1 0xA0 SHL SUB DUP8 DUP2 AND SWAP2 AND EQ PUSH2 0x294B JUMPI PUSH1 0x40 MLOAD PUSH3 0x461BCD PUSH1 0xE5 SHL DUP2 MSTORE PUSH1 0x20 PUSH1 0x4 DUP3 ADD MSTORE PUSH1 0x1C PUSH1 0x24 DUP3 ADD MSTORE PUSH32 0x4F6E6C79206A6F622067697665722063616E207374617274206A6F6200000000 PUSH1 0x44 DUP3 ADD MSTORE PUSH1 0x64 ADD PUSH2 0x9AE JUMP JUMPDEST PUSH1 0x4 DUP2 ADD SLOAD PUSH1 0xFF AND PUSH2 0x2991 JUMPI PUSH1 0x40 MLOAD PUSH3 0x461BCD PUSH1 0xE5 SHL DUP2 MSTORE PUSH1 0x20 PUSH1 0x4 DUP3 ADD MSTORE PUSH1 0xF PUSH1 0x24 DUP3 ADD MSTORE PUSH15 0x2537B11034B9903737BA1037B832B7 PUSH1 0x89 SHL PUSH1 0x44 DUP3 ADD MSTORE PUSH1 0x64 ADD PUSH2 0x9AE JUMP JUMPDEST PUSH1 0x2 DUP3 ADD SLOAD PUSH1 0x1 PUSH1 0x1 PUSH1 0xA0 SHL SUB AND PUSH2 0x29E1 JUMPI PUSH1 0x40 MLOAD PUSH3 0x461BCD PUSH1 0xE5 SHL DUP2 MSTORE PUSH1 0x20 PUSH1 0x4 DUP3 ADD MSTORE PUSH1 0x13 PUSH1 0x24 DUP3 ADD MSTORE PUSH19 0x24B73B30B634B21030B8383634B1B0BA34B7B7 PUSH1 0x69 SHL PUSH1 0x44 DUP3 ADD MSTORE PUSH1 0x64 ADD PUSH2 0x9AE JUMP JUMPDEST PUSH1 0x2 DUP3 ADD SLOAD PUSH1 0xB DUP3 ADD DUP1 SLOAD PUSH1 0x1 PUSH1 0x1 PUSH1 0xA0 SHL SUB NOT AND PUSH1 0x1 PUSH1 0x1 PUSH1 0xA0 SHL SUB SWAP1 SWAP3 AND SWAP2 SWAP1 SWAP2 OR SWAP1 SSTORE PUSH1 0xC DUP2 ADD DUP6 SWAP1 SSTORE PUSH1 0x4 DUP2 ADD DUP1 SLOAD PUSH1 0xFF NOT AND SWAP1 SSTORE PUSH1 0x1 PUSH1 0xA DUP3 ADD SSTORE DUP4 ISZERO PUSH2 0x2A93 JUMPI PUSH1 0x0 JUMPDEST PUSH1 0x4 DUP4 ADD SLOAD DUP2 LT ISZERO PUSH2 0x2A8D JUMPI DUP2 PUSH1 0x7 ADD DUP4 PUSH1 0x4 ADD DUP3 DUP2 SLOAD DUP2 LT PUSH2 0x2A4F JUMPI PUSH2 0x2A4F PUSH2 0x46B1 JUMP JUMPDEST PUSH1 0x0 SWAP2 DUP3 MSTORE PUSH1 0x20 DUP1 DUP4 KECCAK256 DUP5 SLOAD PUSH1 0x1 DUP2 ADD DUP7 SSTORE SWAP5 DUP5 MSTORE SWAP3 KECCAK256 PUSH1 0x2 SWAP2 DUP3 MUL SWAP1 SWAP3 ADD SWAP3 MUL ADD DUP1 PUSH2 0x2A7C DUP4 DUP3 PUSH2 0x4894 JUMP JUMPDEST POP PUSH1 0x1 SWAP2 DUP3 ADD SLOAD SWAP1 DUP3 ADD SSTORE ADD PUSH2 0x2A2A JUMP JUMPDEST POP PUSH2 0x2AFB JUMP JUMPDEST PUSH1 0x0 JUMPDEST PUSH1 0x6 DUP3 ADD SLOAD DUP2 LT ISZERO PUSH2 0x2AF9 JUMPI DUP2 PUSH1 0x7 ADD DUP3 PUSH1 0x6 ADD DUP3 DUP2 SLOAD DUP2 LT PUSH2 0x2ABB JUMPI PUSH2 0x2ABB PUSH2 0x46B1 JUMP JUMPDEST PUSH1 0x0 SWAP2 DUP3 MSTORE PUSH1 0x20 DUP1 DUP4 KECCAK256 DUP5 SLOAD PUSH1 0x1 DUP2 ADD DUP7 SSTORE SWAP5 DUP5 MSTORE SWAP3 KECCAK256 PUSH1 0x2 SWAP2 DUP3 MUL SWAP1 SWAP3 ADD SWAP3 MUL ADD DUP1 PUSH2 0x2AE8 DUP4 DUP3 PUSH2 0x4894 JUMP JUMPDEST POP PUSH1 0x1 SWAP2 DUP3 ADD SLOAD SWAP1 DUP3 ADD SSTORE ADD PUSH2 0x2A96 JUMP JUMPDEST POP JUMPDEST PUSH1 0x2 DUP3 ADD SLOAD PUSH1 0x40 MLOAD DUP6 ISZERO ISZERO DUP2 MSTORE PUSH1 0x1 PUSH1 0x1 PUSH1 0xA0 SHL SUB SWAP1 SWAP2 AND SWAP1 DUP7 SWAP1 DUP6 SWAP1 PUSH32 0xFCA563CB5E680CD8FE4D8893C20EDF9CC5B59F6E8B460ECDAD7AA359A786CF65 SWAP1 PUSH1 0x20 ADD PUSH2 0x1DA2 JUMP JUMPDEST PUSH1 0x0 DUP3 DUP2 MSTORE PUSH1 0x4 PUSH1 0x20 MSTORE PUSH1 0x40 DUP2 KECCAK256 SLOAD SWAP1 SUB PUSH2 0x2B6F JUMPI PUSH1 0x40 MLOAD PUSH3 0x461BCD PUSH1 0xE5 SHL DUP2 MSTORE PUSH1 0x4 ADD PUSH2 0x9AE SWAP1 PUSH2 0x4824 JUMP JUMPDEST PUSH1 0x0 DUP3 DUP2 MSTORE PUSH1 0x4 PUSH1 0x20 DUP2 SWAP1 MSTORE PUSH1 0x40 SWAP1 SWAP2 KECCAK256 ADD SLOAD PUSH1 0xFF AND ISZERO PUSH2 0x2BC8 JUMPI PUSH1 0x40 MLOAD PUSH3 0x461BCD PUSH1 0xE5 SHL DUP2 MSTORE PUSH1 0x20 PUSH1 0x4 DUP3 ADD MSTORE PUSH1 0x13 PUSH1 0x24 DUP3 ADD MSTORE PUSH19 0x129BD8881B5D5CDD081899481CDD185C9D1959 PUSH1 0x6A SHL PUSH1 0x44 DUP3 ADD MSTORE PUSH1 0x64 ADD PUSH2 0x9AE JUMP JUMPDEST PUSH1 0x0 DUP3 DUP2 MSTORE PUSH1 0x4 PUSH1 0x20 MSTORE PUSH1 0x40 SWAP1 KECCAK256 PUSH1 0x7 DUP2 ADD SLOAD PUSH1 0xA SWAP1 SWAP2 ADD SLOAD LT PUSH2 0x2C2E JUMPI PUSH1 0x40 MLOAD PUSH3 0x461BCD PUSH1 0xE5 SHL DUP2 MSTORE PUSH1 0x20 PUSH1 0x4 DUP3 ADD DUP2 SWAP1 MSTORE PUSH1 0x24 DUP3 ADD MSTORE PUSH32 0x416C6C206D696C6573746F6E657320616C726561647920636F6D706C65746564 PUSH1 0x44 DUP3 ADD MSTORE PUSH1 0x64 ADD PUSH2 0x9AE JUMP JUMPDEST PUSH1 0x0 DUP3 DUP2 MSTORE PUSH1 0x4 PUSH1 0x20 MSTORE PUSH1 0x40 DUP2 KECCAK256 PUSH1 0xA ADD DUP1 SLOAD PUSH1 0x1 SWAP3 SWAP1 PUSH2 0x2C50 SWAP1 DUP5 SWAP1 PUSH2 0x46DD JUMP JUMPDEST SWAP1 SWAP2 SSTORE POP POP PUSH1 0x0 DUP3 DUP2 MSTORE PUSH1 0x4 PUSH1 0x20 SWAP1 DUP2 MSTORE PUSH1 0x40 SWAP2 DUP3 SWAP1 KECCAK256 PUSH1 0x9 DUP2 ADD DUP5 SWAP1 SSTORE PUSH1 0xA ADD SLOAD DUP3 MLOAD SWAP1 DUP2 MSTORE SWAP1 DUP2 ADD DUP4 SWAP1 MSTORE DUP4 SWAP2 PUSH32 0xE60846A8F6E10630B3D17D79F8AA4962E7A3ABE024C788262EC30BC55D17B797 SWAP2 ADD PUSH1 0x40 MLOAD DUP1 SWAP2 SUB SWAP1 LOG2 POP POP POP JUMP JUMPDEST PUSH2 0x1179 CALLER DUP4 DUP4 PUSH2 0x2099 JUMP JUMPDEST PUSH1 0x0 DUP3 DUP2 MSTORE PUSH1 0x4 PUSH1 0x20 MSTORE PUSH1 0x40 DUP2 KECCAK256 SLOAD SWAP1 SUB PUSH2 0x2CE7 JUMPI PUSH1 0x40 MLOAD PUSH3 0x461BCD PUSH1 0xE5 SHL DUP2 MSTORE PUSH1 0x4 ADD PUSH2 0x9AE SWAP1 PUSH2 0x4824 JUMP JUMPDEST PUSH1 0x0 DUP3 DUP2 MSTORE PUSH1 0x4 PUSH1 0x20 MSTORE PUSH1 0x40 SWAP1 KECCAK256 PUSH1 0x1 ADD SLOAD PUSH1 0x1 PUSH1 0x1 PUSH1 0xA0 SHL SUB DUP5 DUP2 AND SWAP2 AND EQ PUSH2 0x2D5E JUMPI PUSH1 0x40 MLOAD PUSH3 0x461BCD PUSH1 0xE5 SHL DUP2 MSTORE PUSH1 0x20 PUSH1 0x4 DUP3 ADD MSTORE PUSH1 0x22 PUSH1 0x24 DUP3 ADD MSTORE PUSH32 0x4F6E6C79206A6F622067697665722063616E2072656C65617365207061796D65 PUSH1 0x44 DUP3 ADD MSTORE PUSH2 0x1B9D PUSH1 0xF2 SHL PUSH1 0x64 DUP3 ADD MSTORE PUSH1 0x84 ADD PUSH2 0x9AE JUMP JUMPDEST PUSH1 0x0 DUP3 DUP2 MSTORE PUSH1 0x4 PUSH1 0x20 DUP2 SWAP1 MSTORE PUSH1 0x40 SWAP1 SWAP2 KECCAK256 ADD SLOAD PUSH1 0xFF AND ISZERO PUSH2 0x2DB7 JUMPI PUSH1 0x40 MLOAD PUSH3 0x461BCD PUSH1 0xE5 SHL DUP2 MSTORE PUSH1 0x20 PUSH1 0x4 DUP3 ADD MSTORE PUSH1 0x13 PUSH1 0x24 DUP3 ADD MSTORE PUSH19 0x129BD8881B5D5CDD081899481CDD185C9D1959 PUSH1 0x6A SHL PUSH1 0x44 DUP3 ADD MSTORE PUSH1 0x64 ADD PUSH2 0x9AE JUMP JUMPDEST PUSH1 0x0 DUP3 DUP2 MSTORE PUSH1 0x4 PUSH1 0x20 MSTORE PUSH1 0x40 SWAP1 KECCAK256 PUSH1 0xB ADD SLOAD PUSH1 0x1 PUSH1 0x1 PUSH1 0xA0 SHL SUB AND PUSH2 0x2E1E JUMPI PUSH1 0x40 MLOAD PUSH3 0x461BCD PUSH1 0xE5 SHL DUP2 MSTORE PUSH1 0x20 PUSH1 0x4 DUP3 ADD MSTORE PUSH1 0x15 PUSH1 0x24 DUP3 ADD MSTORE PUSH32 0x4E6F206170706C6963616E742073656C65637465640000000000000000000000 PUSH1 0x44 DUP3 ADD MSTORE PUSH1 0x64 ADD PUSH2 0x9AE JUMP JUMPDEST PUSH1 0x0 DUP3 DUP2 MSTORE PUSH1 0x4 PUSH1 0x20 MSTORE PUSH1 0x40 SWAP1 KECCAK256 PUSH1 0x7 DUP2 ADD SLOAD PUSH1 0xA SWAP1 SWAP2 ADD SLOAD GT ISZERO PUSH2 0x2E80 JUMPI PUSH1 0x40 MLOAD PUSH3 0x461BCD PUSH1 0xE5 SHL DUP2 MSTORE PUSH1 0x20 PUSH1 0x4 DUP3 ADD MSTORE PUSH1 0x18 PUSH1 0x24 DUP3 ADD MSTORE PUSH24 0x105B1B081B5A5B195CDD1BDB995CC818DBDB5C1B195D1959 PUSH1 0x42 SHL PUSH1 0x44 DUP3 ADD MSTORE PUSH1 0x64 ADD PUSH2 0x9AE JUMP JUMPDEST PUSH1 0x0 DUP3 DUP2 MSTORE PUSH1 0x4 PUSH1 0x20 MSTORE PUSH1 0x40 DUP2 KECCAK256 PUSH1 0x8 ADD DUP1 SLOAD DUP4 SWAP3 SWAP1 PUSH2 0x2EA1 SWAP1 DUP5 SWAP1 PUSH2 0x46DD JUMP JUMPDEST SWAP1 SWAP2 SSTORE POP POP PUSH1 0x0 DUP3 DUP2 MSTORE PUSH1 0x4 PUSH1 0x20 SWAP1 DUP2 MSTORE PUSH1 0x40 SWAP2 DUP3 SWAP1 KECCAK256 PUSH1 0xB DUP2 ADD SLOAD PUSH1 0xA SWAP1 SWAP2 ADD SLOAD DUP4 MLOAD DUP6 DUP2 MSTORE SWAP3 DUP4 ADD MSTORE PUSH1 0x1 PUSH1 0x1 PUSH1 0xA0 SHL SUB SWAP1 DUP2 AND SWAP3 SWAP1 DUP7 AND SWAP2 DUP6 SWAP2 PUSH32 0xD6879B8E4639BF88A9CA9E3122B381ED4A48625F051842C7E6885F72EF00F479 SWAP2 ADD PUSH1 0x40 MLOAD DUP1 SWAP2 SUB SWAP1 LOG4 POP POP POP JUMP JUMPDEST PUSH1 0x1 PUSH1 0x1 PUSH1 0xA0 SHL SUB DUP5 AND PUSH1 0x0 SWAP1 DUP2 MSTORE PUSH1 0x3 PUSH1 0x20 MSTORE PUSH1 0x40 SWAP1 KECCAK256 SLOAD PUSH1 0xFF AND ISZERO PUSH2 0x2F77 JUMPI PUSH1 0x40 MLOAD PUSH3 0x461BCD PUSH1 0xE5 SHL DUP2 MSTORE PUSH1 0x20 PUSH1 0x4 DUP3 ADD MSTORE PUSH1 0x16 PUSH1 0x24 DUP3 ADD MSTORE PUSH32 0x50726F66696C6520616C72656164792065786973747300000000000000000000 PUSH1 0x44 DUP3 ADD MSTORE PUSH1 0x64 ADD PUSH2 0x9AE JUMP JUMPDEST PUSH1 0x40 MLOAD DUP1 PUSH1 0xA0 ADD PUSH1 0x40 MSTORE DUP1 DUP6 PUSH1 0x1 PUSH1 0x1 PUSH1 0xA0 SHL SUB AND DUP2 MSTORE PUSH1 0x20 ADD DUP5 DUP2 MSTORE PUSH1 0x20 ADD DUP4 PUSH1 0x1 PUSH1 0x1 PUSH1 0xA0 SHL SUB AND DUP2 MSTORE PUSH1 0x20 ADD DUP3 DUP2 MSTORE PUSH1 0x20 ADD PUSH1 0x0 PUSH1 0x1 PUSH1 0x1 PUSH1 0x40 SHL SUB DUP2 GT ISZERO PUSH2 0x2FC5 JUMPI PUSH2 0x2FC5 PUSH2 0x3C56 JUMP JUMPDEST PUSH1 0x40 MLOAD SWAP1 DUP1 DUP3 MSTORE DUP1 PUSH1 0x20 MUL PUSH1 0x20 ADD DUP3 ADD PUSH1 0x40 MSTORE DUP1 ISZERO PUSH2 0x2FF8 JUMPI DUP2 PUSH1 0x20 ADD JUMPDEST PUSH1 0x60 DUP2 MSTORE PUSH1 0x20 ADD SWAP1 PUSH1 0x1 SWAP1 SUB SWAP1 DUP2 PUSH2 0x2FE3 JUMPI SWAP1 POP JUMPDEST POP SWAP1 MSTORE PUSH1 0x1 PUSH1 0x1 PUSH1 0xA0 SHL SUB DUP6 DUP2 AND PUSH1 0x0 SWAP1 DUP2 MSTORE PUSH1 0x2 PUSH1 0x20 SWAP1 DUP2 MSTORE PUSH1 0x40 SWAP1 SWAP2 KECCAK256 DUP4 MLOAD DUP2 SLOAD PUSH1 0x1 PUSH1 0x1 PUSH1 0xA0 SHL SUB NOT AND SWAP4 AND SWAP3 SWAP1 SWAP3 OR DUP3 SSTORE DUP3 ADD MLOAD PUSH1 0x1 DUP3 ADD SWAP1 PUSH2 0x303F SWAP1 DUP3 PUSH2 0x4750 JUMP JUMPDEST POP PUSH1 0x40 DUP3 ADD MLOAD PUSH1 0x2 DUP3 ADD DUP1 SLOAD PUSH1 0x1 PUSH1 0x1 PUSH1 0xA0 SHL SUB NOT AND PUSH1 0x1 PUSH1 0x1 PUSH1 0xA0 SHL SUB SWAP1 SWAP3 AND SWAP2 SWAP1 SWAP2 OR SWAP1 SSTORE PUSH1 0x60 DUP3 ADD MLOAD PUSH1 0x3 DUP3 ADD SSTORE PUSH1 0x80 DUP3 ADD MLOAD DUP1 MLOAD PUSH2 0x308B SWAP2 PUSH1 0x4 DUP5 ADD SWAP2 PUSH1 0x20 SWAP1 SWAP2 ADD SWAP1 PUSH2 0x38C1 JUMP JUMPDEST POP POP POP PUSH1 0x1 PUSH1 0x1 PUSH1 0xA0 SHL SUB DUP5 AND PUSH1 0x0 DUP2 DUP2 MSTORE PUSH1 0x3 PUSH1 0x20 MSTORE PUSH1 0x40 SWAP1 DUP2 SWAP1 KECCAK256 DUP1 SLOAD PUSH1 0xFF NOT AND PUSH1 0x1 OR SWAP1 SSTORE MLOAD PUSH32 0x5874AFB0D71E1F97E546FC6B15493E51E5CCBEFA591556F8C6A80C8C5151A84F SWAP1 PUSH2 0x30E3 SWAP1 DUP7 SWAP1 DUP7 SWAP1 PUSH2 0x4968 JUMP JUMPDEST PUSH1 0x40 MLOAD DUP1 SWAP2 SUB SWAP1 LOG2 POP POP POP POP JUMP JUMPDEST PUSH1 0x5 PUSH1 0x20 SWAP1 DUP2 MSTORE PUSH1 0x0 SWAP3 DUP4 MSTORE PUSH1 0x40 DUP1 DUP5 KECCAK256 SWAP1 SWAP2 MSTORE SWAP1 DUP3 MSTORE SWAP1 KECCAK256 DUP1 SLOAD PUSH1 0x1 DUP3 ADD SLOAD PUSH1 0x2 DUP4 ADD SLOAD PUSH1 0x3 DUP5 ADD DUP1 SLOAD SWAP4 SWAP5 SWAP3 SWAP4 PUSH1 0x1 PUSH1 0x1 PUSH1 0xA0 SHL SUB SWAP1 SWAP3 AND SWAP3 SWAP2 PUSH2 0x3136 SWAP1 PUSH2 0x467D JUMP JUMPDEST DUP1 PUSH1 0x1F ADD PUSH1 0x20 DUP1 SWAP2 DIV MUL PUSH1 0x20 ADD PUSH1 0x40 MLOAD SWAP1 DUP2 ADD PUSH1 0x40 MSTORE DUP1 SWAP3 SWAP2 SWAP1 DUP2 DUP2 MSTORE PUSH1 0x20 ADD DUP3 DUP1 SLOAD PUSH2 0x3162 SWAP1 PUSH2 0x467D JUMP JUMPDEST DUP1 ISZERO PUSH2 0x31AF JUMPI DUP1 PUSH1 0x1F LT PUSH2 0x3184 JUMPI PUSH2 0x100 DUP1 DUP4 SLOAD DIV MUL DUP4 MSTORE SWAP2 PUSH1 0x20 ADD SWAP2 PUSH2 0x31AF JUMP JUMPDEST DUP3 ADD SWAP2 SWAP1 PUSH1 0x0 MSTORE PUSH1 0x20 PUSH1 0x0 KECCAK256 SWAP1 JUMPDEST DUP2 SLOAD DUP2 MSTORE SWAP1 PUSH1 0x1 ADD SWAP1 PUSH1 0x20 ADD DUP1 DUP4 GT PUSH2 0x3192 JUMPI DUP3 SWAP1 SUB PUSH1 0x1F AND DUP3 ADD SWAP2 JUMPDEST POP POP POP POP POP SWAP1 POP DUP5 JUMP JUMPDEST PUSH2 0x31C1 PUSH2 0x3773 JUMP JUMPDEST PUSH1 0x1 PUSH1 0x1 PUSH1 0xA0 SHL SUB DUP2 AND PUSH2 0x31EB JUMPI PUSH1 0x40 MLOAD PUSH4 0x1E4FBDF7 PUSH1 0xE0 SHL DUP2 MSTORE PUSH1 0x0 PUSH1 0x4 DUP3 ADD MSTORE PUSH1 0x24 ADD PUSH2 0x9AE JUMP JUMPDEST PUSH2 0x31F4 DUP2 PUSH2 0x37F5 JUMP JUMPDEST POP JUMP JUMPDEST PUSH2 0x1656 CALLER DUP5 DUP5 DUP5 PUSH2 0x2F0E JUMP JUMPDEST PUSH1 0x0 PUSH1 0x20 DUP3 ADD DUP1 CALLDATALOAD SWAP1 PUSH1 0x1 SWAP1 DUP4 SWAP1 PUSH2 0x321B SWAP1 DUP7 PUSH2 0x4448 JUMP JUMPDEST PUSH4 0xFFFFFFFF AND DUP2 MSTORE PUSH1 0x20 DUP2 ADD SWAP2 SWAP1 SWAP2 MSTORE PUSH1 0x40 ADD PUSH1 0x0 KECCAK256 SLOAD EQ SWAP3 SWAP2 POP POP JUMP JUMPDEST PUSH4 0xFFFFFFFF DUP2 AND PUSH1 0x0 SWAP1 DUP2 MSTORE PUSH1 0x1 PUSH1 0x20 MSTORE PUSH1 0x40 DUP2 KECCAK256 SLOAD DUP1 PUSH2 0x1672 JUMPI PUSH1 0x40 MLOAD PUSH4 0xF6FF4FB7 PUSH1 0xE0 SHL DUP2 MSTORE PUSH4 0xFFFFFFFF DUP5 AND PUSH1 0x4 DUP3 ADD MSTORE PUSH1 0x24 ADD PUSH2 0x9AE JUMP JUMPDEST PUSH1 0x0 DUP7 DUP2 MSTORE PUSH1 0xA PUSH1 0x20 MSTORE PUSH1 0x40 SWAP1 KECCAK256 SLOAD PUSH1 0xFF AND ISZERO PUSH2 0x32D4 JUMPI PUSH1 0x40 MLOAD PUSH3 0x461BCD PUSH1 0xE5 SHL DUP2 MSTORE PUSH1 0x20 PUSH1 0x4 DUP3 ADD MSTORE PUSH1 0x18 PUSH1 0x24 DUP3 ADD MSTORE PUSH32 0x4D65737361676520616C72656164792065786563757465640000000000000000 PUSH1 0x44 DUP3 ADD MSTORE PUSH1 0x64 ADD PUSH2 0x9AE JUMP JUMPDEST PUSH1 0x0 DUP7 DUP2 MSTORE PUSH1 0xA PUSH1 0x20 MSTORE PUSH1 0x40 DUP2 KECCAK256 DUP1 SLOAD PUSH1 0xFF NOT AND PUSH1 0x1 OR SWAP1 SSTORE PUSH2 0x32F9 DUP6 DUP8 ADD DUP8 PUSH2 0x4993 JUMP JUMPDEST SWAP1 POP CALLER PUSH1 0x1 PUSH1 0x1 PUSH1 0xA0 SHL SUB AND DUP2 PUSH1 0x40 MLOAD PUSH2 0x3313 SWAP2 SWAP1 PUSH2 0x49C7 JUMP JUMPDEST PUSH1 0x40 MLOAD SWAP1 DUP2 SWAP1 SUB DUP2 KECCAK256 SWAP1 DUP10 SWAP1 PUSH32 0x5A6CC5A65C270A83D2964F1DC0D5B6B345C1ACEB3F47CCBA69BC757176305126 SWAP1 PUSH1 0x0 SWAP1 LOG4 PUSH1 0x40 DUP1 MLOAD DUP1 DUP3 ADD SWAP1 SWAP2 MSTORE PUSH1 0xE DUP2 MSTORE PUSH14 0x4352454154455F50524F46494C45 PUSH1 0x90 SHL PUSH1 0x20 SWAP2 DUP3 ADD MSTORE DUP2 MLOAD SWAP1 DUP3 ADD KECCAK256 PUSH32 0xA4C6C5D741CC3B640F2D5A849409552E25D1193D542AF6C32B92E821B8923236 ADD PUSH2 0x33C6 JUMPI PUSH1 0x0 DUP1 DUP1 DUP1 PUSH2 0x33A8 DUP10 DUP12 ADD DUP12 PUSH2 0x49E3 JUMP JUMPDEST SWAP5 POP SWAP5 POP SWAP5 POP SWAP5 POP POP PUSH2 0x33BD DUP5 DUP5 DUP5 DUP5 PUSH2 0x2F0E JUMP JUMPDEST POP POP POP POP PUSH2 0x3769 JUMP JUMPDEST PUSH1 0x40 DUP1 MLOAD DUP1 DUP3 ADD SWAP1 SWAP2 MSTORE PUSH1 0x8 DUP2 MSTORE PUSH8 0x2827A9AA2FA527A1 PUSH1 0xC1 SHL PUSH1 0x20 SWAP2 DUP3 ADD MSTORE DUP2 MLOAD SWAP1 DUP3 ADD KECCAK256 PUSH32 0xC3EF3E378689BB49C52BF3C6C3B1E2AE10691385A691CF00D777C75763414BD ADD PUSH2 0x3438 JUMPI PUSH1 0x0 DUP1 DUP1 DUP1 PUSH2 0x3423 DUP10 DUP12 ADD DUP12 PUSH2 0x4A77 JUMP JUMPDEST SWAP5 POP SWAP5 POP SWAP5 POP SWAP5 POP POP PUSH2 0x33BD DUP5 DUP5 DUP5 DUP5 PUSH2 0xD38 JUMP JUMPDEST PUSH1 0x40 DUP1 MLOAD DUP1 DUP3 ADD SWAP1 SWAP2 MSTORE PUSH1 0xC DUP2 MSTORE PUSH12 0x20A828262CAFAA27AFA527A1 PUSH1 0xA1 SHL PUSH1 0x20 SWAP2 DUP3 ADD MSTORE DUP2 MLOAD SWAP1 DUP3 ADD KECCAK256 PUSH32 0xC2D7C2B4DDEE35E9C9C488D48EA07C3DFD0EB23F7F722AA027797ECD0439C9A7 ADD PUSH2 0x34AE JUMPI PUSH1 0x0 DUP1 DUP1 DUP1 PUSH2 0x3499 DUP10 DUP12 ADD DUP12 PUSH2 0x4B23 JUMP JUMPDEST SWAP5 POP SWAP5 POP SWAP5 POP SWAP5 POP POP PUSH2 0x33BD DUP5 DUP5 DUP5 DUP5 PUSH2 0x19E7 JUMP JUMPDEST PUSH1 0x40 DUP1 MLOAD DUP1 DUP3 ADD SWAP1 SWAP2 MSTORE PUSH1 0x9 DUP2 MSTORE PUSH9 0x29AA20A92A2FA527A1 PUSH1 0xB9 SHL PUSH1 0x20 SWAP2 DUP3 ADD MSTORE DUP2 MLOAD SWAP1 DUP3 ADD KECCAK256 PUSH32 0x958AD0391719420FC13CE18673C271B3C10483B1DED1D897959E64C0226B0636 ADD PUSH2 0x3525 JUMPI PUSH1 0x0 DUP1 DUP1 PUSH2 0x350B DUP9 DUP11 ADD DUP11 PUSH2 0x4BD1 JUMP JUMPDEST SWAP4 POP SWAP4 POP SWAP4 POP POP PUSH2 0x351D DUP4 DUP4 DUP4 PUSH2 0x282E JUMP JUMPDEST POP POP POP PUSH2 0x3769 JUMP JUMPDEST PUSH1 0x40 DUP1 MLOAD DUP1 DUP3 ADD SWAP1 SWAP2 MSTORE PUSH1 0xB DUP2 MSTORE PUSH11 0x5355424D49545F574F524B PUSH1 0xA8 SHL PUSH1 0x20 SWAP2 DUP3 ADD MSTORE DUP2 MLOAD SWAP1 DUP3 ADD KECCAK256 PUSH32 0xA1727A5DB69AB5F66AA3130F3696B97337CD1494E442D1FBCCA529FA9DB6D31B ADD PUSH2 0x3596 JUMPI PUSH1 0x0 DUP1 DUP1 PUSH2 0x3584 DUP9 DUP11 ADD DUP11 PUSH2 0x4C3A JUMP JUMPDEST SWAP4 POP SWAP4 POP SWAP4 POP POP PUSH2 0x351D DUP4 DUP4 DUP4 PUSH2 0x2099 JUMP JUMPDEST PUSH1 0x40 DUP1 MLOAD DUP1 DUP3 ADD SWAP1 SWAP2 MSTORE PUSH1 0xF DUP2 MSTORE PUSH15 0x149153115054D157D4105653515395 PUSH1 0x8A SHL PUSH1 0x20 SWAP2 DUP3 ADD MSTORE DUP2 MLOAD SWAP1 DUP3 ADD KECCAK256 PUSH32 0x5993F055A8B2E0091D9E95BC098F92190A2F1E485B255835F749B7C6CBA1E30B ADD PUSH2 0x360B JUMPI PUSH1 0x0 DUP1 DUP1 PUSH2 0x35F9 DUP9 DUP11 ADD DUP11 PUSH2 0x4CB1 JUMP JUMPDEST SWAP4 POP SWAP4 POP SWAP4 POP POP PUSH2 0x351D DUP4 DUP4 DUP4 PUSH2 0x2CBA JUMP JUMPDEST PUSH1 0x40 DUP1 MLOAD DUP1 DUP3 ADD SWAP1 SWAP2 MSTORE PUSH1 0x13 DUP2 MSTORE PUSH19 0x4C4F434B5F4E4558545F4D494C4553544F4E45 PUSH1 0x68 SHL PUSH1 0x20 SWAP2 DUP3 ADD MSTORE DUP2 MLOAD SWAP1 DUP3 ADD KECCAK256 PUSH32 0x92CDF19AB628CE526BAE7529871630C52245F0976FE1EAA034700BAA4B49AA16 ADD PUSH2 0x3684 JUMPI PUSH1 0x0 DUP1 DUP1 PUSH2 0x3672 DUP9 DUP11 ADD DUP11 PUSH2 0x4CB1 JUMP JUMPDEST SWAP4 POP SWAP4 POP SWAP4 POP POP PUSH2 0x351D DUP4 DUP4 DUP4 PUSH2 0x2B42 JUMP JUMPDEST PUSH1 0x40 DUP1 MLOAD DUP1 DUP3 ADD SWAP1 SWAP2 MSTORE PUSH1 0x9 DUP2 MSTORE PUSH9 0x2920AA22AFAAA9A2A9 PUSH1 0xB9 SHL PUSH1 0x20 SWAP2 DUP3 ADD MSTORE DUP2 MLOAD SWAP1 DUP3 ADD KECCAK256 PUSH32 0x14C18A97B33195108AEEF431D93081248A69532971FB84F3B8C1EDC0D9D404D1 ADD PUSH2 0x36F7 JUMPI PUSH1 0x0 DUP1 DUP1 DUP1 PUSH2 0x36E2 DUP10 DUP12 ADD DUP12 PUSH2 0x4D0F JUMP JUMPDEST SWAP5 POP SWAP5 POP SWAP5 POP SWAP5 POP POP PUSH2 0x33BD DUP5 DUP5 DUP5 DUP5 PUSH2 0x1DBA JUMP JUMPDEST PUSH1 0x40 DUP1 MLOAD DUP1 DUP3 ADD SWAP1 SWAP2 MSTORE PUSH1 0xD DUP2 MSTORE PUSH13 0x4144445F504F5254464F4C494F PUSH1 0x98 SHL PUSH1 0x20 SWAP2 DUP3 ADD MSTORE DUP2 MLOAD SWAP1 DUP3 ADD KECCAK256 PUSH32 0xBF9CE5C45A543F06FB7259612AFBF5DDCBF73E06DD8753717DFF4F12C5B21989 ADD PUSH2 0x3769 JUMPI PUSH1 0x0 DUP1 PUSH2 0x3757 DUP8 DUP10 ADD DUP10 PUSH2 0x4D71 JUMP JUMPDEST SWAP3 POP SWAP3 POP POP PUSH2 0x3766 DUP3 DUP3 PUSH2 0xFDB JUMP JUMPDEST POP POP JUMPDEST POP POP POP POP POP POP POP POP JUMP JUMPDEST PUSH1 0x0 SLOAD PUSH1 0x1 PUSH1 0x1 PUSH1 0xA0 SHL SUB AND CALLER EQ PUSH2 0x166D JUMPI PUSH1 0x40 MLOAD PUSH4 0x118CDAA7 PUSH1 0xE0 SHL DUP2 MSTORE CALLER PUSH1 0x4 DUP3 ADD MSTORE PUSH1 0x24 ADD PUSH2 0x9AE JUMP JUMPDEST PUSH4 0xFFFFFFFF DUP3 AND PUSH1 0x0 DUP2 DUP2 MSTORE PUSH1 0x1 PUSH1 0x20 SWAP1 DUP2 MSTORE PUSH1 0x40 SWAP2 DUP3 SWAP1 KECCAK256 DUP5 SWAP1 SSTORE DUP2 MLOAD SWAP3 DUP4 MSTORE DUP3 ADD DUP4 SWAP1 MSTORE PUSH32 0x238399D427B947898EDB290F5FF0F9109849B1C3BA196A42E35F00C50A54B98B SWAP2 ADD PUSH1 0x40 MLOAD DUP1 SWAP2 SUB SWAP1 LOG1 POP POP JUMP JUMPDEST PUSH1 0x0 DUP1 SLOAD PUSH1 0x1 PUSH1 0x1 PUSH1 0xA0 SHL SUB DUP4 DUP2 AND PUSH1 0x1 PUSH1 0x1 PUSH1 0xA0 SHL SUB NOT DUP4 AND DUP2 OR DUP5 SSTORE PUSH1 0x40 MLOAD SWAP2 SWAP1 SWAP3 AND SWAP3 DUP4 SWAP2 PUSH32 0x8BE0079C531659141344CD1FD0A4F28419497F9722A3DAAFE3B4186F6B6457E0 SWAP2 SWAP1 LOG3 POP POP JUMP JUMPDEST PUSH1 0x40 MLOAD DUP1 PUSH2 0x1A0 ADD PUSH1 0x40 MSTORE DUP1 PUSH1 0x0 DUP2 MSTORE PUSH1 0x20 ADD PUSH1 0x0 PUSH1 0x1 PUSH1 0x1 PUSH1 0xA0 SHL SUB AND DUP2 MSTORE PUSH1 0x20 ADD PUSH1 0x60 DUP2 MSTORE PUSH1 0x20 ADD PUSH1 0x60 DUP2 MSTORE PUSH1 0x20 ADD PUSH1 0x0 ISZERO ISZERO DUP2 MSTORE PUSH1 0x20 ADD PUSH1 0x60 DUP2 MSTORE PUSH1 0x20 ADD PUSH1 0x60 DUP2 MSTORE PUSH1 0x20 ADD PUSH1 0x60 DUP2 MSTORE PUSH1 0x20 ADD PUSH1 0x0 DUP2 MSTORE PUSH1 0x20 ADD PUSH1 0x0 DUP2 MSTORE PUSH1 0x20 ADD PUSH1 0x0 DUP2 MSTORE PUSH1 0x20 ADD PUSH1 0x0 PUSH1 0x1 PUSH1 0x1 PUSH1 0xA0 SHL SUB AND DUP2 MSTORE PUSH1 0x20 ADD PUSH1 0x0 DUP2 MSTORE POP SWAP1 JUMP JUMPDEST DUP3 DUP1 SLOAD DUP3 DUP3 SSTORE SWAP1 PUSH1 0x0 MSTORE PUSH1 0x20 PUSH1 0x0 KECCAK256 SWAP1 DUP2 ADD SWAP3 DUP3 ISZERO PUSH2 0x3907 JUMPI SWAP2 PUSH1 0x20 MUL DUP3 ADD JUMPDEST DUP3 DUP2 GT ISZERO PUSH2 0x3907 JUMPI DUP3 MLOAD DUP3 SWAP1 PUSH2 0x38F7 SWAP1 DUP3 PUSH2 0x4750 JUMP JUMPDEST POP SWAP2 PUSH1 0x20 ADD SWAP2 SWAP1 PUSH1 0x1 ADD SWAP1 PUSH2 0x38E1 JUMP JUMPDEST POP PUSH2 0x3913 SWAP3 SWAP2 POP PUSH2 0x3917 JUMP JUMPDEST POP SWAP1 JUMP JUMPDEST DUP1 DUP3 GT ISZERO PUSH2 0x3913 JUMPI PUSH1 0x0 PUSH2 0x392B DUP3 DUP3 PUSH2 0x3934 JUMP JUMPDEST POP PUSH1 0x1 ADD PUSH2 0x3917 JUMP JUMPDEST POP DUP1 SLOAD PUSH2 0x3940 SWAP1 PUSH2 0x467D JUMP JUMPDEST PUSH1 0x0 DUP3 SSTORE DUP1 PUSH1 0x1F LT PUSH2 0x3950 JUMPI POP POP JUMP JUMPDEST PUSH1 0x1F ADD PUSH1 0x20 SWAP1 DIV SWAP1 PUSH1 0x0 MSTORE PUSH1 0x20 PUSH1 0x0 KECCAK256 SWAP1 DUP2 ADD SWAP1 PUSH2 0x31F4 SWAP2 SWAP1 JUMPDEST DUP1 DUP3 GT ISZERO PUSH2 0x3913 JUMPI PUSH1 0x0 DUP2 SSTORE PUSH1 0x1 ADD PUSH2 0x396A JUMP JUMPDEST PUSH1 0x1 PUSH1 0x1 PUSH1 0xA0 SHL SUB DUP2 AND DUP2 EQ PUSH2 0x31F4 JUMPI PUSH1 0x0 DUP1 REVERT JUMPDEST PUSH1 0x0 PUSH1 0x20 DUP3 DUP5 SUB SLT ISZERO PUSH2 0x39A5 JUMPI PUSH1 0x0 DUP1 REVERT JUMPDEST DUP2 CALLDATALOAD PUSH2 0x39B0 DUP2 PUSH2 0x397E JUMP JUMPDEST SWAP4 SWAP3 POP POP POP JUMP JUMPDEST PUSH1 0x0 JUMPDEST DUP4 DUP2 LT ISZERO PUSH2 0x39D2 JUMPI DUP2 DUP2 ADD MLOAD DUP4 DUP3 ADD MSTORE PUSH1 0x20 ADD PUSH2 0x39BA JUMP JUMPDEST POP POP PUSH1 0x0 SWAP2 ADD MSTORE JUMP JUMPDEST PUSH1 0x0 DUP2 MLOAD DUP1 DUP5 MSTORE PUSH2 0x39F3 DUP2 PUSH1 0x20 DUP7 ADD PUSH1 0x20 DUP7 ADD PUSH2 0x39B7 JUMP JUMPDEST PUSH1 0x1F ADD PUSH1 0x1F NOT AND SWAP3 SWAP1 SWAP3 ADD PUSH1 0x20 ADD SWAP3 SWAP2 POP POP JUMP JUMPDEST PUSH1 0x0 DUP3 DUP3 MLOAD DUP1 DUP6 MSTORE PUSH1 0x20 DUP6 ADD SWAP5 POP PUSH1 0x20 DUP2 PUSH1 0x5 SHL DUP4 ADD ADD PUSH1 0x20 DUP6 ADD PUSH1 0x0 JUMPDEST DUP4 DUP2 LT ISZERO PUSH2 0x3A57 JUMPI PUSH1 0x1F NOT DUP6 DUP5 SUB ADD DUP9 MSTORE PUSH2 0x3A41 DUP4 DUP4 MLOAD PUSH2 0x39DB JUMP JUMPDEST PUSH1 0x20 SWAP9 DUP10 ADD SWAP9 SWAP1 SWAP4 POP SWAP2 SWAP1 SWAP2 ADD SWAP1 PUSH1 0x1 ADD PUSH2 0x3A25 JUMP JUMPDEST POP SWAP1 SWAP7 SWAP6 POP POP POP POP POP POP JUMP JUMPDEST PUSH1 0x20 DUP2 MSTORE PUSH1 0x1 PUSH1 0x1 PUSH1 0xA0 SHL SUB DUP3 MLOAD AND PUSH1 0x20 DUP3 ADD MSTORE PUSH1 0x0 PUSH1 0x20 DUP4 ADD MLOAD PUSH1 0xA0 PUSH1 0x40 DUP5 ADD MSTORE PUSH2 0x3A92 PUSH1 0xC0 DUP5 ADD DUP3 PUSH2 0x39DB JUMP JUMPDEST SWAP1 POP PUSH1 0x1 PUSH1 0x1 PUSH1 0xA0 SHL SUB PUSH1 0x40 DUP6 ADD MLOAD AND PUSH1 0x60 DUP5 ADD MSTORE PUSH1 0x60 DUP5 ADD MLOAD PUSH1 0x80 DUP5 ADD MSTORE PUSH1 0x80 DUP5 ADD MLOAD PUSH1 0x1F NOT DUP5 DUP4 SUB ADD PUSH1 0xA0 DUP6 ADD MSTORE PUSH2 0x3ACC DUP3 DUP3 PUSH2 0x3A07 JUMP JUMPDEST SWAP6 SWAP5 POP POP POP POP POP JUMP JUMPDEST PUSH1 0x0 PUSH1 0x60 DUP3 DUP5 SUB SLT ISZERO PUSH2 0x3AE7 JUMPI PUSH1 0x0 DUP1 REVERT JUMPDEST POP SWAP2 SWAP1 POP JUMP JUMPDEST PUSH1 0x0 DUP1 DUP4 PUSH1 0x1F DUP5 ADD SLT PUSH2 0x3AFF JUMPI PUSH1 0x0 DUP1 REVERT JUMPDEST POP DUP2 CALLDATALOAD PUSH1 0x1 PUSH1 0x1 PUSH1 0x40 SHL SUB DUP2 GT ISZERO PUSH2 0x3B16 JUMPI PUSH1 0x0 DUP1 REVERT JUMPDEST PUSH1 0x20 DUP4 ADD SWAP2 POP DUP4 PUSH1 0x20 DUP3 DUP6 ADD ADD GT ISZERO PUSH2 0x3B2E JUMPI PUSH1 0x0 DUP1 REVERT JUMPDEST SWAP3 POP SWAP3 SWAP1 POP JUMP JUMPDEST PUSH1 0x0 DUP1 PUSH1 0x0 DUP1 PUSH1 0x0 DUP1 PUSH1 0x0 PUSH1 0xE0 DUP9 DUP11 SUB SLT ISZERO PUSH2 0x3B50 JUMPI PUSH1 0x0 DUP1 REVERT JUMPDEST PUSH2 0x3B5A DUP10 DUP10 PUSH2 0x3AD5 JUMP JUMPDEST SWAP7 POP PUSH1 0x60 DUP9 ADD CALLDATALOAD SWAP6 POP PUSH1 0x80 DUP9 ADD CALLDATALOAD PUSH1 0x1 PUSH1 0x1 PUSH1 0x40 SHL SUB DUP2 GT ISZERO PUSH2 0x3B7C JUMPI PUSH1 0x0 DUP1 REVERT JUMPDEST PUSH2 0x3B88 DUP11 DUP3 DUP12 ADD PUSH2 0x3AED JUMP JUMPDEST SWAP1 SWAP7 POP SWAP5 POP POP PUSH1 0xA0 DUP9 ADD CALLDATALOAD PUSH2 0x3B9C DUP2 PUSH2 0x397E JUMP JUMPDEST SWAP3 POP PUSH1 0xC0 DUP9 ADD CALLDATALOAD PUSH1 0x1 PUSH1 0x1 PUSH1 0x40 SHL SUB DUP2 GT ISZERO PUSH2 0x3BB7 JUMPI PUSH1 0x0 DUP1 REVERT JUMPDEST PUSH2 0x3BC3 DUP11 DUP3 DUP12 ADD PUSH2 0x3AED JUMP JUMPDEST SWAP9 SWAP12 SWAP8 SWAP11 POP SWAP6 SWAP9 POP SWAP4 SWAP7 SWAP3 SWAP6 SWAP3 SWAP4 POP POP POP JUMP JUMPDEST PUSH1 0x0 PUSH1 0x20 DUP3 DUP5 SUB SLT ISZERO PUSH2 0x3BE8 JUMPI PUSH1 0x0 DUP1 REVERT JUMPDEST POP CALLDATALOAD SWAP2 SWAP1 POP JUMP JUMPDEST DUP10 DUP2 MSTORE PUSH1 0x1 PUSH1 0x1 PUSH1 0xA0 SHL SUB DUP10 AND PUSH1 0x20 DUP3 ADD MSTORE PUSH2 0x120 PUSH1 0x40 DUP3 ADD MSTORE PUSH1 0x0 PUSH2 0x3C19 PUSH2 0x120 DUP4 ADD DUP11 PUSH2 0x39DB JUMP JUMPDEST SWAP8 ISZERO ISZERO PUSH1 0x60 DUP4 ADD MSTORE POP PUSH1 0x80 DUP2 ADD SWAP6 SWAP1 SWAP6 MSTORE PUSH1 0xA0 DUP6 ADD SWAP4 SWAP1 SWAP4 MSTORE PUSH1 0xC0 DUP5 ADD SWAP2 SWAP1 SWAP2 MSTORE PUSH1 0x1 PUSH1 0x1 PUSH1 0xA0 SHL SUB AND PUSH1 0xE0 DUP4 ADD MSTORE PUSH2 0x100 SWAP1 SWAP2 ADD MSTORE SWAP4 SWAP3 POP POP POP JUMP JUMPDEST PUSH4 0x4E487B71 PUSH1 0xE0 SHL PUSH1 0x0 MSTORE PUSH1 0x41 PUSH1 0x4 MSTORE PUSH1 0x24 PUSH1 0x0 REVERT JUMPDEST PUSH1 0x40 DUP1 MLOAD SWAP1 DUP2 ADD PUSH1 0x1 PUSH1 0x1 PUSH1 0x40 SHL SUB DUP2 GT DUP3 DUP3 LT OR ISZERO PUSH2 0x3C8E JUMPI PUSH2 0x3C8E PUSH2 0x3C56 JUMP JUMPDEST PUSH1 0x40 MSTORE SWAP1 JUMP JUMPDEST PUSH1 0x40 MLOAD PUSH1 0x1F DUP3 ADD PUSH1 0x1F NOT AND DUP2 ADD PUSH1 0x1 PUSH1 0x1 PUSH1 0x40 SHL SUB DUP2 GT DUP3 DUP3 LT OR ISZERO PUSH2 0x3CBC JUMPI PUSH2 0x3CBC PUSH2 0x3C56 JUMP JUMPDEST PUSH1 0x40 MSTORE SWAP2 SWAP1 POP JUMP JUMPDEST PUSH1 0x0 DUP3 PUSH1 0x1F DUP4 ADD SLT PUSH2 0x3CD5 JUMPI PUSH1 0x0 DUP1 REVERT JUMPDEST DUP2 CALLDATALOAD PUSH1 0x1 PUSH1 0x1 PUSH1 0x40 SHL SUB DUP2 GT ISZERO PUSH2 0x3CEE JUMPI PUSH2 0x3CEE PUSH2 0x3C56 JUMP JUMPDEST PUSH2 0x3D01 PUSH1 0x1F DUP3 ADD PUSH1 0x1F NOT AND PUSH1 0x20 ADD PUSH2 0x3C94 JUMP JUMPDEST DUP2 DUP2 MSTORE DUP5 PUSH1 0x20 DUP4 DUP7 ADD ADD GT ISZERO PUSH2 0x3D16 JUMPI PUSH1 0x0 DUP1 REVERT JUMPDEST DUP2 PUSH1 0x20 DUP6 ADD PUSH1 0x20 DUP4 ADD CALLDATACOPY PUSH1 0x0 SWAP2 DUP2 ADD PUSH1 0x20 ADD SWAP2 SWAP1 SWAP2 MSTORE SWAP4 SWAP3 POP POP POP JUMP JUMPDEST PUSH1 0x0 DUP3 PUSH1 0x1F DUP4 ADD SLT PUSH2 0x3D44 JUMPI PUSH1 0x0 DUP1 REVERT JUMPDEST DUP2 CALLDATALOAD PUSH1 0x1 PUSH1 0x1 PUSH1 0x40 SHL SUB DUP2 GT ISZERO PUSH2 0x3D5D JUMPI PUSH2 0x3D5D PUSH2 0x3C56 JUMP JUMPDEST DUP1 PUSH1 0x5 SHL PUSH2 0x3D6D PUSH1 0x20 DUP3 ADD PUSH2 0x3C94 JUMP JUMPDEST SWAP2 DUP3 MSTORE PUSH1 0x20 DUP2 DUP6 ADD DUP2 ADD SWAP3 SWAP1 DUP2 ADD SWAP1 DUP7 DUP5 GT ISZERO PUSH2 0x3D89 JUMPI PUSH1 0x0 DUP1 REVERT JUMPDEST PUSH1 0x20 DUP7 ADD SWAP3 POP JUMPDEST DUP4 DUP4 LT ISZERO PUSH2 0x3E18 JUMPI DUP3 CALLDATALOAD PUSH1 0x1 PUSH1 0x1 PUSH1 0x40 SHL SUB DUP2 GT ISZERO PUSH2 0x3DAE JUMPI PUSH1 0x0 DUP1 REVERT JUMPDEST DUP7 ADD PUSH1 0x40 DUP2 DUP10 SUB PUSH1 0x1F NOT ADD SLT ISZERO PUSH2 0x3DC4 JUMPI PUSH1 0x0 DUP1 REVERT JUMPDEST PUSH2 0x3DCC PUSH2 0x3C6C JUMP JUMPDEST PUSH1 0x20 DUP3 ADD CALLDATALOAD PUSH1 0x1 PUSH1 0x1 PUSH1 0x40 SHL SUB DUP2 GT ISZERO PUSH2 0x3DE5 JUMPI PUSH1 0x0 DUP1 REVERT JUMPDEST PUSH2 0x3DF4 DUP11 PUSH1 0x20 DUP4 DUP7 ADD ADD PUSH2 0x3CC4 JUMP JUMPDEST DUP3 MSTORE POP PUSH1 0x40 SWAP2 SWAP1 SWAP2 ADD CALLDATALOAD PUSH1 0x20 DUP1 DUP4 ADD SWAP2 SWAP1 SWAP2 MSTORE SWAP1 DUP4 MSTORE SWAP3 DUP4 ADD SWAP3 SWAP2 SWAP1 SWAP2 ADD SWAP1 PUSH2 0x3D90 JUMP JUMPDEST SWAP7 SWAP6 POP POP POP POP POP POP JUMP JUMPDEST PUSH1 0x0 DUP1 PUSH1 0x0 DUP1 PUSH1 0x80 DUP6 DUP8 SUB SLT ISZERO PUSH2 0x3E38 JUMPI PUSH1 0x0 DUP1 REVERT JUMPDEST DUP5 CALLDATALOAD PUSH2 0x3E43 DUP2 PUSH2 0x397E JUMP JUMPDEST SWAP4 POP PUSH1 0x20 DUP6 ADD CALLDATALOAD PUSH1 0x1 PUSH1 0x1 PUSH1 0x40 SHL SUB DUP2 GT ISZERO PUSH2 0x3E5E JUMPI PUSH1 0x0 DUP1 REVERT JUMPDEST PUSH2 0x3E6A DUP8 DUP3 DUP9 ADD PUSH2 0x3CC4 JUMP JUMPDEST SWAP4 POP POP PUSH1 0x40 DUP6 ADD CALLDATALOAD PUSH1 0x1 PUSH1 0x1 PUSH1 0x40 SHL SUB DUP2 GT ISZERO PUSH2 0x3E86 JUMPI PUSH1 0x0 DUP1 REVERT JUMPDEST PUSH2 0x3E92 DUP8 DUP3 DUP9 ADD PUSH2 0x3D33 JUMP JUMPDEST SWAP5 SWAP8 SWAP4 SWAP7 POP SWAP4 SWAP5 PUSH1 0x60 ADD CALLDATALOAD SWAP4 POP POP POP JUMP JUMPDEST PUSH1 0x0 DUP1 PUSH1 0x40 DUP4 DUP6 SUB SLT ISZERO PUSH2 0x3EB6 JUMPI PUSH1 0x0 DUP1 REVERT JUMPDEST DUP3 CALLDATALOAD PUSH2 0x3EC1 DUP2 PUSH2 0x397E JUMP JUMPDEST SWAP2 POP PUSH1 0x20 DUP4 ADD CALLDATALOAD PUSH1 0x1 PUSH1 0x1 PUSH1 0x40 SHL SUB DUP2 GT ISZERO PUSH2 0x3EDC JUMPI PUSH1 0x0 DUP1 REVERT JUMPDEST PUSH2 0x3EE8 DUP6 DUP3 DUP7 ADD PUSH2 0x3CC4 JUMP JUMPDEST SWAP2 POP POP SWAP3 POP SWAP3 SWAP1 POP JUMP JUMPDEST PUSH1 0x0 DUP1 PUSH1 0x40 DUP4 DUP6 SUB SLT ISZERO PUSH2 0x3F05 JUMPI PUSH1 0x0 DUP1 REVERT JUMPDEST POP POP DUP1 CALLDATALOAD SWAP3 PUSH1 0x20 SWAP1 SWAP2 ADD CALLDATALOAD SWAP2 POP JUMP JUMPDEST DUP1 CALLDATALOAD PUSH4 0xFFFFFFFF DUP2 AND DUP2 EQ PUSH2 0x3F28 JUMPI PUSH1 0x0 DUP1 REVERT JUMPDEST SWAP2 SWAP1 POP JUMP JUMPDEST PUSH1 0x0 DUP1 PUSH1 0x40 DUP4 DUP6 SUB SLT ISZERO PUSH2 0x3F40 JUMPI PUSH1 0x0 DUP1 REVERT JUMPDEST PUSH2 0x3F49 DUP4 PUSH2 0x3F14 JUMP JUMPDEST SWAP5 PUSH1 0x20 SWAP4 SWAP1 SWAP4 ADD CALLDATALOAD SWAP4 POP POP POP JUMP JUMPDEST PUSH1 0x0 DUP2 MLOAD DUP1 DUP5 MSTORE PUSH1 0x20 DUP5 ADD SWAP4 POP PUSH1 0x20 DUP4 ADD PUSH1 0x0 JUMPDEST DUP3 DUP2 LT ISZERO PUSH2 0x3F92 JUMPI DUP2 MLOAD PUSH1 0x1 PUSH1 0x1 PUSH1 0xA0 SHL SUB AND DUP7 MSTORE PUSH1 0x20 SWAP6 DUP7 ADD SWAP6 SWAP1 SWAP2 ADD SWAP1 PUSH1 0x1 ADD PUSH2 0x3F6B JUMP JUMPDEST POP SWAP4 SWAP5 SWAP4 POP POP POP POP JUMP JUMPDEST PUSH1 0x0 DUP3 DUP3 MLOAD DUP1 DUP6 MSTORE PUSH1 0x20 DUP6 ADD SWAP5 POP PUSH1 0x20 DUP2 PUSH1 0x5 SHL DUP4 ADD ADD PUSH1 0x20 DUP6 ADD PUSH1 0x0 JUMPDEST DUP4 DUP2 LT ISZERO PUSH2 0x3A57 JUMPI PUSH1 0x1F NOT DUP6 DUP5 SUB ADD DUP9 MSTORE DUP2 MLOAD DUP1 MLOAD PUSH1 0x40 DUP6 MSTORE PUSH2 0x3FE0 PUSH1 0x40 DUP7 ADD DUP3 PUSH2 0x39DB JUMP JUMPDEST PUSH1 0x20 SWAP3 DUP4 ADD MLOAD SWAP6 DUP4 ADD SWAP6 SWAP1 SWAP6 MSTORE POP SWAP8 DUP9 ADD SWAP8 SWAP2 SWAP1 SWAP2 ADD SWAP1 PUSH1 0x1 ADD PUSH2 0x3FBA JUMP JUMPDEST PUSH1 0x20 DUP2 MSTORE DUP2 MLOAD PUSH1 0x20 DUP3 ADD MSTORE PUSH1 0x0 PUSH1 0x20 DUP4 ADD MLOAD PUSH2 0x4026 PUSH1 0x40 DUP5 ADD DUP3 PUSH1 0x1 PUSH1 0x1 PUSH1 0xA0 SHL SUB AND SWAP1 MSTORE JUMP JUMPDEST POP PUSH1 0x40 DUP4 ADD MLOAD PUSH2 0x1A0 PUSH1 0x60 DUP5 ADD MSTORE PUSH2 0x4042 PUSH2 0x1C0 DUP5 ADD DUP3 PUSH2 0x3F57 JUMP JUMPDEST SWAP1 POP PUSH1 0x60 DUP5 ADD MLOAD PUSH1 0x1F NOT DUP5 DUP4 SUB ADD PUSH1 0x80 DUP6 ADD MSTORE PUSH2 0x405F DUP3 DUP3 PUSH2 0x39DB JUMP JUMPDEST SWAP2 POP POP PUSH1 0x80 DUP5 ADD MLOAD PUSH2 0x4075 PUSH1 0xA0 DUP6 ADD DUP3 ISZERO ISZERO SWAP1 MSTORE JUMP JUMPDEST POP PUSH1 0xA0 DUP5 ADD MLOAD DUP4 DUP3 SUB PUSH1 0x1F NOT ADD PUSH1 0xC0 DUP6 ADD MSTORE PUSH2 0x4091 DUP3 DUP3 PUSH2 0x3A07 JUMP JUMPDEST SWAP2 POP POP PUSH1 0xC0 DUP5 ADD MLOAD PUSH1 0x1F NOT DUP5 DUP4 SUB ADD PUSH1 0xE0 DUP6 ADD MSTORE PUSH2 0x40AF DUP3 DUP3 PUSH2 0x3F9C JUMP JUMPDEST SWAP2 POP POP PUSH1 0xE0 DUP5 ADD MLOAD PUSH1 0x1F NOT DUP5 DUP4 SUB ADD PUSH2 0x100 DUP6 ADD MSTORE PUSH2 0x40CE DUP3 DUP3 PUSH2 0x3F9C JUMP JUMPDEST SWAP2 POP POP PUSH2 0x100 DUP5 ADD MLOAD PUSH2 0x120 DUP5 ADD MSTORE PUSH2 0x120 DUP5 ADD MLOAD PUSH2 0x140 DUP5 ADD MSTORE PUSH2 0x140 DUP5 ADD MLOAD PUSH2 0x160 DUP5 ADD MSTORE PUSH2 0x160 DUP5 ADD MLOAD PUSH2 0x4111 PUSH2 0x180 DUP6 ADD DUP3 PUSH1 0x1 PUSH1 0x1 PUSH1 0xA0 SHL SUB AND SWAP1 MSTORE JUMP JUMPDEST POP PUSH2 0x180 DUP5 ADD MLOAD PUSH2 0x1A0 DUP5 ADD MSTORE DUP1 SWAP2 POP POP SWAP3 SWAP2 POP POP JUMP JUMPDEST PUSH1 0x0 DUP1 PUSH1 0x0 PUSH1 0x60 DUP5 DUP7 SUB SLT ISZERO PUSH2 0x413D JUMPI PUSH1 0x0 DUP1 REVERT JUMPDEST DUP4 CALLDATALOAD SWAP3 POP PUSH1 0x20 DUP5 ADD CALLDATALOAD PUSH1 0x1 PUSH1 0x1 PUSH1 0x40 SHL SUB DUP2 GT ISZERO PUSH2 0x415A JUMPI PUSH1 0x0 DUP1 REVERT JUMPDEST PUSH2 0x4166 DUP7 DUP3 DUP8 ADD PUSH2 0x3CC4 JUMP JUMPDEST SWAP3 POP POP PUSH1 0x40 DUP5 ADD CALLDATALOAD PUSH1 0x1 PUSH1 0x1 PUSH1 0x40 SHL SUB DUP2 GT ISZERO PUSH2 0x4182 JUMPI PUSH1 0x0 DUP1 REVERT JUMPDEST PUSH2 0x418E DUP7 DUP3 DUP8 ADD PUSH2 0x3D33 JUMP JUMPDEST SWAP2 POP POP SWAP3 POP SWAP3 POP SWAP3 JUMP JUMPDEST PUSH1 0x0 DUP1 PUSH1 0x40 DUP4 DUP6 SUB SLT ISZERO PUSH2 0x41AB JUMPI PUSH1 0x0 DUP1 REVERT JUMPDEST DUP3 CALLDATALOAD PUSH1 0x1 PUSH1 0x1 PUSH1 0x40 SHL SUB DUP2 GT ISZERO PUSH2 0x41C1 JUMPI PUSH1 0x0 DUP1 REVERT JUMPDEST PUSH2 0x41CD DUP6 DUP3 DUP7 ADD PUSH2 0x3CC4 JUMP JUMPDEST SWAP3 POP POP PUSH1 0x20 DUP4 ADD CALLDATALOAD PUSH1 0x1 PUSH1 0x1 PUSH1 0x40 SHL SUB DUP2 GT ISZERO PUSH2 0x41E9 JUMPI PUSH1 0x0 DUP1 REVERT JUMPDEST PUSH2 0x3EE8 DUP6 DUP3 DUP7 ADD PUSH2 0x3D33 JUMP JUMPDEST PUSH1 0x0 DUP1 PUSH1 0x0 DUP1 PUSH1 0xA0 DUP6 DUP8 SUB SLT ISZERO PUSH2 0x420B JUMPI PUSH1 0x0 DUP1 REVERT JUMPDEST PUSH2 0x4215 DUP7 DUP7 PUSH2 0x3AD5 JUMP JUMPDEST SWAP4 POP PUSH1 0x60 DUP6 ADD CALLDATALOAD PUSH1 0x1 PUSH1 0x1 PUSH1 0x40 SHL SUB DUP2 GT ISZERO PUSH2 0x4230 JUMPI PUSH1 0x0 DUP1 REVERT JUMPDEST PUSH2 0x423C DUP8 DUP3 DUP9 ADD PUSH2 0x3AED JUMP JUMPDEST SWAP1 SWAP5 POP SWAP3 POP POP PUSH1 0x80 DUP6 ADD CALLDATALOAD PUSH2 0x4250 DUP2 PUSH2 0x397E JUMP JUMPDEST SWAP4 SWAP7 SWAP3 SWAP6 POP SWAP1 SWAP4 POP POP JUMP JUMPDEST PUSH1 0x20 DUP2 MSTORE DUP2 MLOAD PUSH1 0x20 DUP3 ADD MSTORE PUSH1 0x20 DUP3 ADD MLOAD PUSH1 0x40 DUP3 ADD MSTORE PUSH1 0x1 PUSH1 0x1 PUSH1 0xA0 SHL SUB PUSH1 0x40 DUP4 ADD MLOAD AND PUSH1 0x60 DUP3 ADD MSTORE PUSH1 0x0 PUSH1 0x60 DUP4 ADD MLOAD PUSH1 0xA0 PUSH1 0x80 DUP5 ADD MSTORE PUSH2 0x429E PUSH1 0xC0 DUP5 ADD DUP3 PUSH2 0x39DB JUMP JUMPDEST SWAP1 POP PUSH1 0x80 DUP5 ADD MLOAD PUSH1 0x1F NOT DUP5 DUP4 SUB ADD PUSH1 0xA0 DUP6 ADD MSTORE PUSH2 0x3ACC DUP3 DUP3 PUSH2 0x3F9C JUMP JUMPDEST DUP1 CALLDATALOAD DUP1 ISZERO ISZERO DUP2 EQ PUSH2 0x3F28 JUMPI PUSH1 0x0 DUP1 REVERT JUMPDEST PUSH1 0x0 DUP1 PUSH1 0x40 DUP4 DUP6 SUB SLT ISZERO PUSH2 0x42DE JUMPI PUSH1 0x0 DUP1 REVERT JUMPDEST DUP3 CALLDATALOAD SWAP2 POP PUSH2 0x42EE PUSH1 0x20 DUP5 ADD PUSH2 0x42BB JUMP JUMPDEST SWAP1 POP SWAP3 POP SWAP3 SWAP1 POP JUMP JUMPDEST PUSH1 0x0 DUP1 PUSH1 0x0 DUP1 PUSH1 0x80 DUP6 DUP8 SUB SLT ISZERO PUSH2 0x430D JUMPI PUSH1 0x0 DUP1 REVERT JUMPDEST DUP5 CALLDATALOAD PUSH2 0x4318 DUP2 PUSH2 0x397E JUMP JUMPDEST SWAP4 POP PUSH1 0x20 DUP6 ADD CALLDATALOAD SWAP3 POP PUSH1 0x40 DUP6 ADD CALLDATALOAD PUSH1 0x1 PUSH1 0x1 PUSH1 0x40 SHL SUB DUP2 GT ISZERO PUSH2 0x433A JUMPI PUSH1 0x0 DUP1 REVERT JUMPDEST PUSH2 0x4346 DUP8 DUP3 DUP9 ADD PUSH2 0x3CC4 JUMP JUMPDEST SWAP3 POP POP PUSH1 0x60 DUP6 ADD CALLDATALOAD PUSH1 0x1 PUSH1 0x1 PUSH1 0x40 SHL SUB DUP2 GT ISZERO PUSH2 0x4362 JUMPI PUSH1 0x0 DUP1 REVERT JUMPDEST PUSH2 0x436E DUP8 DUP3 DUP9 ADD PUSH2 0x3D33 JUMP JUMPDEST SWAP2 POP POP SWAP3 SWAP6 SWAP2 SWAP5 POP SWAP3 POP JUMP JUMPDEST PUSH1 0x0 DUP1 PUSH1 0x0 PUSH1 0x60 DUP5 DUP7 SUB SLT ISZERO PUSH2 0x438F JUMPI PUSH1 0x0 DUP1 REVERT JUMPDEST DUP4 CALLDATALOAD SWAP3 POP PUSH1 0x20 DUP5 ADD CALLDATALOAD PUSH2 0x43A1 DUP2 PUSH2 0x397E JUMP JUMPDEST SWAP3 SWAP6 SWAP3 SWAP5 POP POP POP PUSH1 0x40 SWAP2 SWAP1 SWAP2 ADD CALLDATALOAD SWAP1 JUMP JUMPDEST PUSH1 0x0 DUP1 PUSH1 0x0 DUP1 PUSH1 0x80 DUP6 DUP8 SUB SLT ISZERO PUSH2 0x43C8 JUMPI PUSH1 0x0 DUP1 REVERT JUMPDEST DUP5 CALLDATALOAD PUSH2 0x43D3 DUP2 PUSH2 0x397E JUMP JUMPDEST SWAP4 POP PUSH1 0x20 DUP6 ADD CALLDATALOAD SWAP3 POP PUSH1 0x40 DUP6 ADD CALLDATALOAD PUSH2 0x43EA DUP2 PUSH2 0x397E JUMP JUMPDEST SWAP4 SWAP7 SWAP3 SWAP6 POP SWAP3 SWAP4 PUSH1 0x60 ADD CALLDATALOAD SWAP3 POP POP JUMP JUMPDEST PUSH1 0x0 DUP1 PUSH1 0x0 PUSH1 0x60 DUP5 DUP7 SUB SLT ISZERO PUSH2 0x440F JUMPI PUSH1 0x0 DUP1 REVERT JUMPDEST DUP4 CALLDATALOAD PUSH2 0x441A DUP2 PUSH2 0x397E JUMP JUMPDEST SWAP3 POP PUSH1 0x20 DUP5 ADD CALLDATALOAD SWAP2 POP PUSH1 0x40 DUP5 ADD CALLDATALOAD PUSH1 0x1 PUSH1 0x1 PUSH1 0x40 SHL SUB DUP2 GT ISZERO PUSH2 0x443C JUMPI PUSH1 0x0 DUP1 REVERT JUMPDEST PUSH2 0x418E DUP7 DUP3 DUP8 ADD PUSH2 0x3CC4 JUMP JUMPDEST PUSH1 0x0 PUSH1 0x20 DUP3 DUP5 SUB SLT ISZERO PUSH2 0x445A JUMPI PUSH1 0x0 DUP1 REVERT JUMPDEST PUSH2 0x39B0 DUP3 PUSH2 0x3F14 JUMP JUMPDEST PUSH1 0x0 DUP1 PUSH1 0x40 DUP4 DUP6 SUB SLT ISZERO PUSH2 0x4476 JUMPI PUSH1 0x0 DUP1 REVERT JUMPDEST DUP3 CALLDATALOAD SWAP2 POP PUSH1 0x20 DUP4 ADD CALLDATALOAD PUSH2 0x4488 DUP2 PUSH2 0x397E JUMP JUMPDEST DUP1 SWAP2 POP POP SWAP3 POP SWAP3 SWAP1 POP JUMP JUMPDEST PUSH1 0x1 PUSH1 0x1 PUSH1 0xA0 SHL SUB DUP6 AND DUP2 MSTORE PUSH1 0x80 PUSH1 0x20 DUP3 ADD MSTORE PUSH1 0x0 PUSH2 0x44B5 PUSH1 0x80 DUP4 ADD DUP7 PUSH2 0x39DB JUMP JUMPDEST PUSH1 0x1 PUSH1 0x1 PUSH1 0xA0 SHL SUB SWAP5 SWAP1 SWAP5 AND PUSH1 0x40 DUP4 ADD MSTORE POP PUSH1 0x60 ADD MSTORE SWAP3 SWAP2 POP POP JUMP JUMPDEST PUSH1 0x0 DUP1 PUSH1 0x40 DUP4 DUP6 SUB SLT ISZERO PUSH2 0x44E4 JUMPI PUSH1 0x0 DUP1 REVERT JUMPDEST DUP3 CALLDATALOAD PUSH2 0x3F49 DUP2 PUSH2 0x397E JUMP JUMPDEST PUSH1 0x0 DUP1 PUSH1 0x0 PUSH1 0x60 DUP5 DUP7 SUB SLT ISZERO PUSH2 0x4504 JUMPI PUSH1 0x0 DUP1 REVERT JUMPDEST DUP4 CALLDATALOAD PUSH2 0x450F DUP2 PUSH2 0x397E JUMP JUMPDEST SWAP3 POP PUSH1 0x20 DUP5 ADD CALLDATALOAD SWAP2 POP PUSH2 0x4524 PUSH1 0x40 DUP6 ADD PUSH2 0x42BB JUMP JUMPDEST SWAP1 POP SWAP3 POP SWAP3 POP SWAP3 JUMP JUMPDEST PUSH1 0x0 DUP1 PUSH1 0x0 PUSH1 0x60 DUP5 DUP7 SUB SLT ISZERO PUSH2 0x4542 JUMPI PUSH1 0x0 DUP1 REVERT JUMPDEST DUP4 CALLDATALOAD PUSH2 0x454D DUP2 PUSH2 0x397E JUMP JUMPDEST SWAP6 PUSH1 0x20 DUP6 ADD CALLDATALOAD SWAP6 POP PUSH1 0x40 SWAP1 SWAP5 ADD CALLDATALOAD SWAP4 SWAP3 POP POP POP JUMP JUMPDEST PUSH1 0x0 DUP1 PUSH1 0x40 DUP4 DUP6 SUB SLT ISZERO PUSH2 0x4575 JUMPI PUSH1 0x0 DUP1 REVERT JUMPDEST DUP3 CALLDATALOAD SWAP2 POP PUSH1 0x20 DUP4 ADD CALLDATALOAD PUSH1 0x1 PUSH1 0x1 PUSH1 0x40 SHL SUB DUP2 GT ISZERO PUSH2 0x3EDC JUMPI PUSH1 0x0 DUP1 REVERT JUMPDEST PUSH1 0x0 DUP1 PUSH1 0x0 DUP1 PUSH1 0x80 DUP6 DUP8 SUB SLT ISZERO PUSH2 0x45A8 JUMPI PUSH1 0x0 DUP1 REVERT JUMPDEST DUP5 CALLDATALOAD PUSH2 0x45B3 DUP2 PUSH2 0x397E JUMP JUMPDEST SWAP4 POP PUSH1 0x20 DUP6 ADD CALLDATALOAD PUSH1 0x1 PUSH1 0x1 PUSH1 0x40 SHL SUB DUP2 GT ISZERO PUSH2 0x45CE JUMPI PUSH1 0x0 DUP1 REVERT JUMPDEST PUSH2 0x45DA DUP8 DUP3 DUP9 ADD PUSH2 0x3CC4 JUMP JUMPDEST SWAP4 POP POP PUSH1 0x40 DUP6 ADD CALLDATALOAD PUSH2 0x43EA DUP2 PUSH2 0x397E JUMP JUMPDEST DUP5 DUP2 MSTORE DUP4 PUSH1 0x20 DUP3 ADD MSTORE PUSH1 0x1 PUSH1 0x1 PUSH1 0xA0 SHL SUB DUP4 AND PUSH1 0x40 DUP3 ADD MSTORE PUSH1 0x80 PUSH1 0x60 DUP3 ADD MSTORE PUSH1 0x0 PUSH2 0x3E18 PUSH1 0x80 DUP4 ADD DUP5 PUSH2 0x39DB JUMP JUMPDEST PUSH1 0x0 DUP1 PUSH1 0x0 PUSH1 0x60 DUP5 DUP7 SUB SLT ISZERO PUSH2 0x462E JUMPI PUSH1 0x0 DUP1 REVERT JUMPDEST DUP4 CALLDATALOAD PUSH1 0x1 PUSH1 0x1 PUSH1 0x40 SHL SUB DUP2 GT ISZERO PUSH2 0x4644 JUMPI PUSH1 0x0 DUP1 REVERT JUMPDEST PUSH2 0x4650 DUP7 DUP3 DUP8 ADD PUSH2 0x3CC4 JUMP JUMPDEST SWAP4 POP POP PUSH1 0x20 DUP5 ADD CALLDATALOAD PUSH2 0x43A1 DUP2 PUSH2 0x397E JUMP JUMPDEST PUSH1 0x0 PUSH1 0x60 DUP3 DUP5 SUB SLT ISZERO PUSH2 0x4673 JUMPI PUSH1 0x0 DUP1 REVERT JUMPDEST PUSH2 0x39B0 DUP4 DUP4 PUSH2 0x3AD5 JUMP JUMPDEST PUSH1 0x1 DUP2 DUP2 SHR SWAP1 DUP3 AND DUP1 PUSH2 0x4691 JUMPI PUSH1 0x7F DUP3 AND SWAP2 POP JUMPDEST PUSH1 0x20 DUP3 LT DUP2 SUB PUSH2 0x3AE7 JUMPI PUSH4 0x4E487B71 PUSH1 0xE0 SHL PUSH1 0x0 MSTORE PUSH1 0x22 PUSH1 0x4 MSTORE PUSH1 0x24 PUSH1 0x0 REVERT JUMPDEST PUSH4 0x4E487B71 PUSH1 0xE0 SHL PUSH1 0x0 MSTORE PUSH1 0x32 PUSH1 0x4 MSTORE PUSH1 0x24 PUSH1 0x0 REVERT JUMPDEST PUSH4 0x4E487B71 PUSH1 0xE0 SHL PUSH1 0x0 MSTORE PUSH1 0x11 PUSH1 0x4 MSTORE PUSH1 0x24 PUSH1 0x0 REVERT JUMPDEST DUP1 DUP3 ADD DUP1 DUP3 GT ISZERO PUSH2 0x1672 JUMPI PUSH2 0x1672 PUSH2 0x46C7 JUMP JUMPDEST PUSH1 0x0 PUSH1 0x1 DUP3 ADD PUSH2 0x4702 JUMPI PUSH2 0x4702 PUSH2 0x46C7 JUMP JUMPDEST POP PUSH1 0x1 ADD SWAP1 JUMP JUMPDEST PUSH1 0x1F DUP3 GT ISZERO PUSH2 0x1656 JUMPI DUP1 PUSH1 0x0 MSTORE PUSH1 0x20 PUSH1 0x0 KECCAK256 PUSH1 0x1F DUP5 ADD PUSH1 0x5 SHR DUP2 ADD PUSH1 0x20 DUP6 LT ISZERO PUSH2 0x4730 JUMPI POP DUP1 JUMPDEST PUSH1 0x1F DUP5 ADD PUSH1 0x5 SHR DUP3 ADD SWAP2 POP JUMPDEST DUP2 DUP2 LT ISZERO PUSH2 0x2827 JUMPI PUSH1 0x0 DUP2 SSTORE PUSH1 0x1 ADD PUSH2 0x473C JUMP JUMPDEST DUP2 MLOAD PUSH1 0x1 PUSH1 0x1 PUSH1 0x40 SHL SUB DUP2 GT ISZERO PUSH2 0x4769 JUMPI PUSH2 0x4769 PUSH2 0x3C56 JUMP JUMPDEST PUSH2 0x477D DUP2 PUSH2 0x4777 DUP5 SLOAD PUSH2 0x467D JUMP JUMPDEST DUP5 PUSH2 0x4709 JUMP JUMPDEST PUSH1 0x20 PUSH1 0x1F DUP3 GT PUSH1 0x1 DUP2 EQ PUSH2 0x47B4 JUMPI PUSH1 0x0 DUP4 ISZERO PUSH2 0x4799 JUMPI POP DUP5 DUP3 ADD MLOAD JUMPDEST PUSH1 0x1 DUP5 SWAP1 SHL PUSH1 0x0 NOT PUSH1 0x3 DUP7 SWAP1 SHL SHR NOT DUP3 AND OR JUMPDEST DUP6 SSTORE POP PUSH2 0x2827 JUMP JUMPDEST PUSH1 0x0 DUP5 DUP2 MSTORE PUSH1 0x20 DUP2 KECCAK256 PUSH1 0x1F NOT DUP6 AND SWAP2 JUMPDEST DUP3 DUP2 LT ISZERO PUSH2 0x47E4 JUMPI DUP8 DUP6 ADD MLOAD DUP3 SSTORE PUSH1 0x20 SWAP5 DUP6 ADD SWAP5 PUSH1 0x1 SWAP1 SWAP3 ADD SWAP2 ADD PUSH2 0x47C4 JUMP JUMPDEST POP DUP5 DUP3 LT ISZERO PUSH2 0x4802 JUMPI DUP7 DUP5 ADD MLOAD PUSH1 0x0 NOT PUSH1 0x3 DUP8 SWAP1 SHL PUSH1 0xF8 AND SHR NOT AND DUP2 SSTORE JUMPDEST POP POP POP POP PUSH1 0x1 SWAP1 DUP2 SHL ADD SWAP1 SSTORE POP JUMP JUMPDEST PUSH1 0x20 DUP2 MSTORE PUSH1 0x0 PUSH2 0x39B0 PUSH1 0x20 DUP4 ADD DUP5 PUSH2 0x39DB JUMP JUMPDEST PUSH1 0x20 DUP1 DUP3 MSTORE PUSH1 0x12 SWAP1 DUP3 ADD MSTORE PUSH18 0x129BD888191BD95CC81B9BDD08195E1A5CDD PUSH1 0x72 SHL PUSH1 0x40 DUP3 ADD MSTORE PUSH1 0x60 ADD SWAP1 JUMP JUMPDEST PUSH1 0x0 DUP3 PUSH2 0x486D JUMPI PUSH4 0x4E487B71 PUSH1 0xE0 SHL PUSH1 0x0 MSTORE PUSH1 0x12 PUSH1 0x4 MSTORE PUSH1 0x24 PUSH1 0x0 REVERT JUMPDEST POP DIV SWAP1 JUMP JUMPDEST PUSH1 0x40 DUP2 MSTORE PUSH1 0x0 PUSH2 0x4885 PUSH1 0x40 DUP4 ADD DUP6 PUSH2 0x39DB JUMP JUMPDEST SWAP1 POP DUP3 PUSH1 0x20 DUP4 ADD MSTORE SWAP4 SWAP3 POP POP POP JUMP JUMPDEST DUP2 DUP2 SUB PUSH2 0x489F JUMPI POP POP JUMP JUMPDEST PUSH2 0x48A9 DUP3 SLOAD PUSH2 0x467D JUMP JUMPDEST PUSH1 0x1 PUSH1 0x1 PUSH1 0x40 SHL SUB DUP2 GT ISZERO PUSH2 0x48C0 JUMPI PUSH2 0x48C0 PUSH2 0x3C56 JUMP JUMPDEST PUSH2 0x48CE DUP2 PUSH2 0x4777 DUP5 SLOAD PUSH2 0x467D JUMP JUMPDEST PUSH1 0x0 PUSH1 0x1F DUP3 GT PUSH1 0x1 DUP2 EQ PUSH2 0x4900 JUMPI PUSH1 0x0 DUP4 ISZERO PUSH2 0x4799 JUMPI POP DUP2 DUP6 ADD SLOAD PUSH1 0x1 DUP5 SWAP1 SHL PUSH1 0x0 NOT PUSH1 0x3 DUP7 SWAP1 SHL SHR NOT DUP3 AND OR PUSH2 0x47AC JUMP JUMPDEST PUSH1 0x0 DUP6 DUP2 MSTORE PUSH1 0x20 SWAP1 KECCAK256 PUSH1 0x1F NOT DUP5 AND SWAP1 PUSH1 0x0 DUP7 DUP2 MSTORE PUSH1 0x20 SWAP1 KECCAK256 DUP5 JUMPDEST DUP4 DUP2 LT ISZERO PUSH2 0x493A JUMPI DUP3 DUP7 ADD SLOAD DUP3 SSTORE PUSH1 0x1 SWAP6 DUP7 ADD SWAP6 SWAP1 SWAP2 ADD SWAP1 PUSH1 0x20 ADD PUSH2 0x491A JUMP JUMPDEST POP DUP6 DUP4 LT ISZERO PUSH2 0x4958 JUMPI DUP2 DUP6 ADD SLOAD PUSH1 0x0 NOT PUSH1 0x3 DUP9 SWAP1 SHL PUSH1 0xF8 AND SHR NOT AND DUP2 SSTORE JUMPDEST POP POP POP POP POP PUSH1 0x1 SWAP1 DUP2 SHL ADD SWAP1 SSTORE POP JUMP JUMPDEST PUSH1 0x40 DUP2 MSTORE PUSH1 0x0 PUSH2 0x497B PUSH1 0x40 DUP4 ADD DUP6 PUSH2 0x39DB JUMP JUMPDEST SWAP1 POP PUSH1 0x1 PUSH1 0x1 PUSH1 0xA0 SHL SUB DUP4 AND PUSH1 0x20 DUP4 ADD MSTORE SWAP4 SWAP3 POP POP POP JUMP JUMPDEST PUSH1 0x0 PUSH1 0x20 DUP3 DUP5 SUB SLT ISZERO PUSH2 0x49A5 JUMPI PUSH1 0x0 DUP1 REVERT JUMPDEST DUP2 CALLDATALOAD PUSH1 0x1 PUSH1 0x1 PUSH1 0x40 SHL SUB DUP2 GT ISZERO PUSH2 0x49BB JUMPI PUSH1 0x0 DUP1 REVERT JUMPDEST PUSH2 0x1743 DUP5 DUP3 DUP6 ADD PUSH2 0x3CC4 JUMP JUMPDEST PUSH1 0x0 DUP3 MLOAD PUSH2 0x49D9 DUP2 DUP5 PUSH1 0x20 DUP8 ADD PUSH2 0x39B7 JUMP JUMPDEST SWAP2 SWAP1 SWAP2 ADD SWAP3 SWAP2 POP POP JUMP JUMPDEST PUSH1 0x0 DUP1 PUSH1 0x0 DUP1 PUSH1 0x0 PUSH1 0xA0 DUP7 DUP9 SUB SLT ISZERO PUSH2 0x49FB JUMPI PUSH1 0x0 DUP1 REVERT JUMPDEST DUP6 CALLDATALOAD PUSH1 0x1 PUSH1 0x1 PUSH1 0x40 SHL SUB DUP2 GT ISZERO PUSH2 0x4A11 JUMPI PUSH1 0x0 DUP1 REVERT JUMPDEST PUSH2 0x4A1D DUP9 DUP3 DUP10 ADD PUSH2 0x3CC4 JUMP JUMPDEST SWAP6 POP POP PUSH1 0x20 DUP7 ADD CALLDATALOAD PUSH2 0x4A2E DUP2 PUSH2 0x397E JUMP JUMPDEST SWAP4 POP PUSH1 0x40 DUP7 ADD CALLDATALOAD PUSH1 0x1 PUSH1 0x1 PUSH1 0x40 SHL SUB DUP2 GT ISZERO PUSH2 0x4A49 JUMPI PUSH1 0x0 DUP1 REVERT JUMPDEST PUSH2 0x4A55 DUP9 DUP3 DUP10 ADD PUSH2 0x3CC4 JUMP JUMPDEST SWAP4 POP POP PUSH1 0x60 DUP7 ADD CALLDATALOAD PUSH2 0x4A66 DUP2 PUSH2 0x397E JUMP JUMPDEST SWAP5 SWAP8 SWAP4 SWAP7 POP SWAP2 SWAP5 PUSH1 0x80 ADD CALLDATALOAD SWAP3 SWAP2 POP POP JUMP JUMPDEST PUSH1 0x0 DUP1 PUSH1 0x0 DUP1 PUSH1 0x0 PUSH1 0xA0 DUP7 DUP9 SUB SLT ISZERO PUSH2 0x4A8F JUMPI PUSH1 0x0 DUP1 REVERT JUMPDEST DUP6 CALLDATALOAD PUSH1 0x1 PUSH1 0x1 PUSH1 0x40 SHL SUB DUP2 GT ISZERO PUSH2 0x4AA5 JUMPI PUSH1 0x0 DUP1 REVERT JUMPDEST PUSH2 0x4AB1 DUP9 DUP3 DUP10 ADD PUSH2 0x3CC4 JUMP JUMPDEST SWAP6 POP POP PUSH1 0x20 DUP7 ADD CALLDATALOAD PUSH2 0x4AC2 DUP2 PUSH2 0x397E JUMP JUMPDEST SWAP4 POP PUSH1 0x40 DUP7 ADD CALLDATALOAD PUSH1 0x1 PUSH1 0x1 PUSH1 0x40 SHL SUB DUP2 GT ISZERO PUSH2 0x4ADD JUMPI PUSH1 0x0 DUP1 REVERT JUMPDEST PUSH2 0x4AE9 DUP9 DUP3 DUP10 ADD PUSH2 0x3CC4 JUMP JUMPDEST SWAP4 POP POP PUSH1 0x60 DUP7 ADD CALLDATALOAD PUSH1 0x1 PUSH1 0x1 PUSH1 0x40 SHL SUB DUP2 GT ISZERO PUSH2 0x4B05 JUMPI PUSH1 0x0 DUP1 REVERT JUMPDEST PUSH2 0x4B11 DUP9 DUP3 DUP10 ADD PUSH2 0x3D33 JUMP JUMPDEST SWAP6 SWAP9 SWAP5 SWAP8 POP SWAP3 SWAP6 PUSH1 0x80 ADD CALLDATALOAD SWAP4 SWAP3 POP POP POP JUMP JUMPDEST PUSH1 0x0 DUP1 PUSH1 0x0 DUP1 PUSH1 0x0 PUSH1 0xA0 DUP7 DUP9 SUB SLT ISZERO PUSH2 0x4B3B JUMPI PUSH1 0x0 DUP1 REVERT JUMPDEST DUP6 CALLDATALOAD PUSH1 0x1 PUSH1 0x1 PUSH1 0x40 SHL SUB DUP2 GT ISZERO PUSH2 0x4B51 JUMPI PUSH1 0x0 DUP1 REVERT JUMPDEST PUSH2 0x4B5D DUP9 DUP3 DUP10 ADD PUSH2 0x3CC4 JUMP JUMPDEST SWAP6 POP POP PUSH1 0x20 DUP7 ADD CALLDATALOAD PUSH2 0x4B6E DUP2 PUSH2 0x397E JUMP JUMPDEST SWAP4 POP PUSH1 0x40 DUP7 ADD CALLDATALOAD SWAP3 POP PUSH1 0x60 DUP7 ADD CALLDATALOAD PUSH1 0x1 PUSH1 0x1 PUSH1 0x40 SHL SUB DUP2 GT ISZERO PUSH2 0x4B90 JUMPI PUSH1 0x0 DUP1 REVERT JUMPDEST PUSH2 0x4B9C DUP9 DUP3 DUP10 ADD PUSH2 0x3CC4 JUMP JUMPDEST SWAP3 POP POP PUSH1 0x80 DUP7 ADD CALLDATALOAD PUSH1 0x1 PUSH1 0x1 PUSH1 0x40 SHL SUB DUP2 GT ISZERO PUSH2 0x4BB8 JUMPI PUSH1 0x0 DUP1 REVERT JUMPDEST PUSH2 0x4BC4 DUP9 DUP3 DUP10 ADD PUSH2 0x3D33 JUMP JUMPDEST SWAP2 POP POP SWAP3 SWAP6 POP SWAP3 SWAP6 SWAP1 SWAP4 POP JUMP JUMPDEST PUSH1 0x0 DUP1 PUSH1 0x0 DUP1 PUSH1 0x80 DUP6 DUP8 SUB SLT ISZERO PUSH2 0x4BE7 JUMPI PUSH1 0x0 DUP1 REVERT JUMPDEST DUP5 CALLDATALOAD PUSH1 0x1 PUSH1 0x1 PUSH1 0x40 SHL SUB DUP2 GT ISZERO PUSH2 0x4BFD JUMPI PUSH1 0x0 DUP1 REVERT JUMPDEST PUSH2 0x4C09 DUP8 DUP3 DUP9 ADD PUSH2 0x3CC4 JUMP JUMPDEST SWAP5 POP POP PUSH1 0x20 DUP6 ADD CALLDATALOAD PUSH2 0x4C1A DUP2 PUSH2 0x397E JUMP JUMPDEST SWAP3 POP PUSH1 0x40 DUP6 ADD CALLDATALOAD SWAP2 POP PUSH2 0x4C2F PUSH1 0x60 DUP7 ADD PUSH2 0x42BB JUMP JUMPDEST SWAP1 POP SWAP3 SWAP6 SWAP2 SWAP5 POP SWAP3 POP JUMP JUMPDEST PUSH1 0x0 DUP1 PUSH1 0x0 DUP1 PUSH1 0x80 DUP6 DUP8 SUB SLT ISZERO PUSH2 0x4C50 JUMPI PUSH1 0x0 DUP1 REVERT JUMPDEST DUP5 CALLDATALOAD PUSH1 0x1 PUSH1 0x1 PUSH1 0x40 SHL SUB DUP2 GT ISZERO PUSH2 0x4C66 JUMPI PUSH1 0x0 DUP1 REVERT JUMPDEST PUSH2 0x4C72 DUP8 DUP3 DUP9 ADD PUSH2 0x3CC4 JUMP JUMPDEST SWAP5 POP POP PUSH1 0x20 DUP6 ADD CALLDATALOAD PUSH2 0x4C83 DUP2 PUSH2 0x397E JUMP JUMPDEST SWAP3 POP PUSH1 0x40 DUP6 ADD CALLDATALOAD SWAP2 POP PUSH1 0x60 DUP6 ADD CALLDATALOAD PUSH1 0x1 PUSH1 0x1 PUSH1 0x40 SHL SUB DUP2 GT ISZERO PUSH2 0x4CA5 JUMPI PUSH1 0x0 DUP1 REVERT JUMPDEST PUSH2 0x436E DUP8 DUP3 DUP9 ADD PUSH2 0x3CC4 JUMP JUMPDEST PUSH1 0x0 DUP1 PUSH1 0x0 DUP1 PUSH1 0x80 DUP6 DUP8 SUB SLT ISZERO PUSH2 0x4CC7 JUMPI PUSH1 0x0 DUP1 REVERT JUMPDEST DUP5 CALLDATALOAD PUSH1 0x1 PUSH1 0x1 PUSH1 0x40 SHL SUB DUP2 GT ISZERO PUSH2 0x4CDD JUMPI PUSH1 0x0 DUP1 REVERT JUMPDEST PUSH2 0x4CE9 DUP8 DUP3 DUP9 ADD PUSH2 0x3CC4 JUMP JUMPDEST SWAP5 POP POP PUSH1 0x20 DUP6 ADD CALLDATALOAD PUSH2 0x4CFA DUP2 PUSH2 0x397E JUMP JUMPDEST SWAP4 SWAP7 SWAP4 SWAP6 POP POP POP POP PUSH1 0x40 DUP3 ADD CALLDATALOAD SWAP2 PUSH1 0x60 ADD CALLDATALOAD SWAP1 JUMP JUMPDEST PUSH1 0x0 DUP1 PUSH1 0x0 DUP1 PUSH1 0x0 PUSH1 0xA0 DUP7 DUP9 SUB SLT ISZERO PUSH2 0x4D27 JUMPI PUSH1 0x0 DUP1 REVERT JUMPDEST DUP6 CALLDATALOAD PUSH1 0x1 PUSH1 0x1 PUSH1 0x40 SHL SUB DUP2 GT ISZERO PUSH2 0x4D3D JUMPI PUSH1 0x0 DUP1 REVERT JUMPDEST PUSH2 0x4D49 DUP9 DUP3 DUP10 ADD PUSH2 0x3CC4 JUMP JUMPDEST SWAP6 POP POP PUSH1 0x20 DUP7 ADD CALLDATALOAD PUSH2 0x4D5A DUP2 PUSH2 0x397E JUMP JUMPDEST SWAP4 POP PUSH1 0x40 DUP7 ADD CALLDATALOAD SWAP3 POP PUSH1 0x60 DUP7 ADD CALLDATALOAD PUSH2 0x4A66 DUP2 PUSH2 0x397E JUMP JUMPDEST PUSH1 0x0 DUP1 PUSH1 0x0 PUSH1 0x60 DUP5 DUP7 SUB SLT ISZERO PUSH2 0x4D86 JUMPI PUSH1 0x0 DUP1 REVERT JUMPDEST DUP4 CALLDATALOAD PUSH1 0x1 PUSH1 0x1 PUSH1 0x40 SHL SUB DUP2 GT ISZERO PUSH2 0x4D9C JUMPI PUSH1 0x0 DUP1 REVERT JUMPDEST PUSH2 0x4DA8 DUP7 DUP3 DUP8 ADD PUSH2 0x3CC4 JUMP JUMPDEST SWAP4 POP POP PUSH1 0x20 DUP5 ADD CALLDATALOAD PUSH2 0x4DB9 DUP2 PUSH2 0x397E JUMP JUMPDEST SWAP2 POP PUSH1 0x40 DUP5 ADD CALLDATALOAD PUSH1 0x1 PUSH1 0x1 PUSH1 0x40 SHL SUB DUP2 GT ISZERO PUSH2 0x443C JUMPI PUSH1 0x0 DUP1 REVERT INVALID LOG2 PUSH5 0x6970667358 0x22 SLT KECCAK256 0x26 PUSH25 0xC3763D0CEDF6F95EB3E7D6D7FAE3192671B3DA45B135C7D895 0xCF DUP9 JUMP 0xDD PUSH4 0x64736F6C PUSH4 0x4300081C STOP CALLER "
		},
		"gasEstimates": {
			"creation": {
				"codeDepositCost": "3995600",
				"executionCost": "infinite",
				"totalCost": "infinite"
			},
			"external": {
				"addPortfolio(address,string)": "infinite",
				"allowInitializePath((uint32,bytes32,uint64))": "infinite",
				"applyToJob(address,uint256,string,(string,uint256)[])": "infinite",
				"applyToJob(uint256,string,(string,uint256)[])": "infinite",
				"createProfile(address,string,address,uint256)": "infinite",
				"createProfile(string,address,uint256)": "infinite",
				"endpoint()": "infinite",
				"executedMessages(bytes32)": "2495",
				"getApplication(uint256,uint256)": "infinite",
				"getJob(uint256)": "infinite",
				"getJobDetails(uint256)": "infinite",
				"getProfile(address)": "infinite",
				"getRating(address)": "infinite",
				"hasProfile(address)": "2593",
				"isComposeMsgSender((uint32,bytes32,uint64),bytes,address)": "831",
				"isOpen(uint256)": "4755",
				"jobApplicationCounter(uint256)": "2505",
				"jobApplications(uint256,uint256)": "infinite",
				"jobCounter()": "2407",
				"jobRatings(uint256,address)": "2706",
				"jobs(uint256)": "infinite",
				"lockNextMilestone(address,uint256,uint256)": "59521",
				"lockNextMilestone(uint256,uint256)": "59466",
				"lzReceive((uint32,bytes32,uint64),bytes32,bytes,address,bytes)": "infinite",
				"nextNonce(uint32,bytes32)": "515",
				"oAppVersion()": "286",
				"owner()": "2398",
				"peers(uint32)": "2575",
				"postJob(address,string,(string,uint256)[],uint256)": "infinite",
				"postJob(string,(string,uint256)[])": "infinite",
				"profiles(address)": "infinite",
				"rate(address,uint256,address,uint256)": "infinite",
				"rate(uint256,address,uint256)": "87052",
				"releasePayment(address,uint256,uint256)": "44780",
				"releasePayment(uint256,uint256)": "44679",
				"renounceOwnership()": "infinite",
				"setDelegate(address)": "infinite",
				"setPeer(uint32,bytes32)": "26150",
				"startJob(address,uint256,bool)": "infinite",
				"startJob(uint256,bool)": "infinite",
				"submitWork(address,uint256,string)": "infinite",
				"submitWork(uint256,string)": "infinite",
				"transferOwnership(address)": "infinite",
				"userRatings(address,uint256)": "4805"
			},
			"internal": {
				"_lzReceive(struct Origin calldata,bytes32,bytes calldata,address,bytes calldata)": "infinite"
			}
		},
		"methodIdentifiers": {
			"addPortfolio(address,string)": "2c317eb2",
			"allowInitializePath((uint32,bytes32,uint64))": "ff7bd03d",
			"applyToJob(address,uint256,string,(string,uint256)[])": "9d89a1db",
			"applyToJob(uint256,string,(string,uint256)[])": "5abb964d",
			"createProfile(address,string,address,uint256)": "e5deef6d",
			"createProfile(string,address,uint256)": "f4f824bb",
			"endpoint()": "5e280f11",
			"executedMessages(bytes32)": "cd2abd66",
			"getApplication(uint256,uint256)": "832a05b7",
			"getJob(uint256)": "bf22c457",
			"getJobDetails(uint256)": "4cac35c6",
			"getProfile(address)": "0f53a470",
			"getRating(address)": "80fc9c0e",
			"hasProfile(address)": "a787c80b",
			"isComposeMsgSender((uint32,bytes32,uint64),bytes,address)": "82413eac",
			"isOpen(uint256)": "4d6861a6",
			"jobApplicationCounter(uint256)": "e1897767",
			"jobApplications(uint256,uint256)": "ead39a11",
			"jobCounter()": "50355d76",
			"jobRatings(uint256,address)": "bbbacdfc",
			"jobs(uint256)": "180aedf3",
			"lockNextMilestone(address,uint256,uint256)": "d9f76f62",
			"lockNextMilestone(uint256,uint256)": "315e6542",
			"lzReceive((uint32,bytes32,uint64),bytes32,bytes,address,bytes)": "13137d65",
			"nextNonce(uint32,bytes32)": "7d25a05e",
			"oAppVersion()": "17442b70",
			"owner()": "8da5cb5b",
			"peers(uint32)": "bb0b6a53",
			"postJob(address,string,(string,uint256)[],uint256)": "248506c3",
			"postJob(string,(string,uint256)[])": "80cd2580",
			"profiles(address)": "bbe15627",
			"rate(address,uint256,address,uint256)": "a89c0949",
			"rate(uint256,address,uint256)": "a83b083c",
			"releasePayment(address,uint256,uint256)": "dc404aff",
			"releasePayment(uint256,uint256)": "97e99a80",
			"renounceOwnership()": "715018a6",
			"setDelegate(address)": "ca5eb5e1",
			"setPeer(uint32,bytes32)": "3400288b",
			"startJob(address,uint256,bool)": "ced25488",
			"startJob(uint256,bool)": "992a80e4",
			"submitWork(address,uint256,string)": "b7a93083",
			"submitWork(uint256,string)": "da8accf9",
			"transferOwnership(address)": "f2fde38b",
			"userRatings(address,uint256)": "be001f6f"
		}
	},
	"abi": [
		{
			"inputs": [
				{
					"internalType": "address",
					"name": "_endpoint",
					"type": "address"
				},
				{
					"internalType": "address",
					"name": "_owner",
					"type": "address"
				}
			],
			"stateMutability": "nonpayable",
			"type": "constructor"
		},
		{
			"inputs": [],
			"name": "InvalidDelegate",
			"type": "error"
		},
		{
			"inputs": [],
			"name": "InvalidEndpointCall",
			"type": "error"
		},
		{
			"inputs": [],
			"name": "LzTokenUnavailable",
			"type": "error"
		},
		{
			"inputs": [
				{
					"internalType": "uint32",
					"name": "eid",
					"type": "uint32"
				}
			],
			"name": "NoPeer",
			"type": "error"
		},
		{
			"inputs": [
				{
					"internalType": "uint256",
					"name": "msgValue",
					"type": "uint256"
				}
			],
			"name": "NotEnoughNative",
			"type": "error"
		},
		{
			"inputs": [
				{
					"internalType": "address",
					"name": "addr",
					"type": "address"
				}
			],
			"name": "OnlyEndpoint",
			"type": "error"
		},
		{
			"inputs": [
				{
					"internalType": "uint32",
					"name": "eid",
					"type": "uint32"
				},
				{
					"internalType": "bytes32",
					"name": "sender",
					"type": "bytes32"
				}
			],
			"name": "OnlyPeer",
			"type": "error"
		},
		{
			"inputs": [
				{
					"internalType": "address",
					"name": "owner",
					"type": "address"
				}
			],
			"name": "OwnableInvalidOwner",
			"type": "error"
		},
		{
			"inputs": [
				{
					"internalType": "address",
					"name": "account",
					"type": "address"
				}
			],
			"name": "OwnableUnauthorizedAccount",
			"type": "error"
		},
		{
			"anonymous": false,
			"inputs": [
				{
					"indexed": true,
					"internalType": "bytes32",
					"name": "messageId",
					"type": "bytes32"
				},
				{
					"indexed": true,
					"internalType": "string",
					"name": "messageType",
					"type": "string"
				},
				{
					"indexed": true,
					"internalType": "address",
					"name": "executor",
					"type": "address"
				}
			],
			"name": "CrossChainMessageReceived",
			"type": "event"
		},
		{
			"anonymous": false,
			"inputs": [
				{
					"indexed": true,
					"internalType": "uint256",
					"name": "jobId",
					"type": "uint256"
				},
				{
					"indexed": true,
					"internalType": "uint256",
					"name": "applicationId",
					"type": "uint256"
				},
				{
					"indexed": true,
					"internalType": "address",
					"name": "applicant",
					"type": "address"
				},
				{
					"indexed": false,
					"internalType": "string",
					"name": "applicationHash",
					"type": "string"
				}
			],
			"name": "JobApplication",
			"type": "event"
		},
		{
			"anonymous": false,
			"inputs": [
				{
					"indexed": true,
					"internalType": "uint256",
					"name": "jobId",
					"type": "uint256"
				},
				{
					"indexed": true,
					"internalType": "address",
					"name": "jobGiver",
					"type": "address"
				},
				{
					"indexed": false,
					"internalType": "string",
					"name": "jobDetailHash",
					"type": "string"
				}
			],
			"name": "JobPosted",
			"type": "event"
		},
		{
			"anonymous": false,
			"inputs": [
				{
					"indexed": true,
					"internalType": "uint256",
					"name": "jobId",
					"type": "uint256"
				},
				{
					"indexed": true,
					"internalType": "uint256",
					"name": "applicationId",
					"type": "uint256"
				},
				{
					"indexed": true,
					"internalType": "address",
					"name": "selectedApplicant",
					"type": "address"
				},
				{
					"indexed": false,
					"internalType": "bool",
					"name": "useApplicantMilestones",
					"type": "bool"
				}
			],
			"name": "JobStarted",
			"type": "event"
		},
		{
			"anonymous": false,
			"inputs": [
				{
					"indexed": true,
					"internalType": "uint256",
					"name": "jobId",
					"type": "uint256"
				},
				{
					"indexed": false,
					"internalType": "uint256",
					"name": "newMilestone",
					"type": "uint256"
				},
				{
					"indexed": false,
					"internalType": "uint256",
					"name": "lockedAmount",
					"type": "uint256"
				}
			],
			"name": "MilestoneLocked",
			"type": "event"
		},
		{
			"anonymous": false,
			"inputs": [
				{
					"indexed": true,
					"internalType": "address",
					"name": "previousOwner",
					"type": "address"
				},
				{
					"indexed": true,
					"internalType": "address",
					"name": "newOwner",
					"type": "address"
				}
			],
			"name": "OwnershipTransferred",
			"type": "event"
		},
		{
			"anonymous": false,
			"inputs": [
				{
					"indexed": true,
					"internalType": "uint256",
					"name": "jobId",
					"type": "uint256"
				},
				{
					"indexed": true,
					"internalType": "address",
					"name": "jobGiver",
					"type": "address"
				},
				{
					"indexed": true,
					"internalType": "address",
					"name": "applicant",
					"type": "address"
				},
				{
					"indexed": false,
					"internalType": "uint256",
					"name": "amount",
					"type": "uint256"
				},
				{
					"indexed": false,
					"internalType": "uint256",
					"name": "milestone",
					"type": "uint256"
				}
			],
			"name": "PaymentReleased",
			"type": "event"
		},
		{
			"anonymous": false,
			"inputs": [
				{
					"indexed": false,
					"internalType": "uint32",
					"name": "eid",
					"type": "uint32"
				},
				{
					"indexed": false,
					"internalType": "bytes32",
					"name": "peer",
					"type": "bytes32"
				}
			],
			"name": "PeerSet",
			"type": "event"
		},
		{
			"anonymous": false,
			"inputs": [
				{
					"indexed": true,
					"internalType": "address",
					"name": "user",
					"type": "address"
				},
				{
					"indexed": false,
					"internalType": "string",
					"name": "portfolioHash",
					"type": "string"
				}
			],
			"name": "PortfolioAdded",
			"type": "event"
		},
		{
			"anonymous": false,
			"inputs": [
				{
					"indexed": true,
					"internalType": "address",
					"name": "user",
					"type": "address"
				},
				{
					"indexed": false,
					"internalType": "string",
					"name": "ipfsHash",
					"type": "string"
				},
				{
					"indexed": false,
					"internalType": "address",
					"name": "referrer",
					"type": "address"
				}
			],
			"name": "ProfileCreated",
			"type": "event"
		},
		{
			"anonymous": false,
			"inputs": [
				{
					"indexed": true,
					"internalType": "uint256",
					"name": "jobId",
					"type": "uint256"
				},
				{
					"indexed": true,
					"internalType": "address",
					"name": "rater",
					"type": "address"
				},
				{
					"indexed": true,
					"internalType": "address",
					"name": "rated",
					"type": "address"
				},
				{
					"indexed": false,
					"internalType": "uint256",
					"name": "rating",
					"type": "uint256"
				}
			],
			"name": "UserRated",
			"type": "event"
		},
		{
			"anonymous": false,
			"inputs": [
				{
					"indexed": true,
					"internalType": "uint256",
					"name": "jobId",
					"type": "uint256"
				},
				{
					"indexed": true,
					"internalType": "address",
					"name": "applicant",
					"type": "address"
				},
				{
					"indexed": false,
					"internalType": "string",
					"name": "submissionHash",
					"type": "string"
				},
				{
					"indexed": false,
					"internalType": "uint256",
					"name": "milestone",
					"type": "uint256"
				}
			],
			"name": "WorkSubmitted",
			"type": "event"
		},
		{
			"inputs": [
				{
					"internalType": "address",
					"name": "_user",
					"type": "address"
				},
				{
					"internalType": "string",
					"name": "_portfolioHash",
					"type": "string"
				}
			],
			"name": "addPortfolio",
			"outputs": [],
			"stateMutability": "nonpayable",
			"type": "function"
		},
		{
			"inputs": [
				{
					"components": [
						{
							"internalType": "uint32",
							"name": "srcEid",
							"type": "uint32"
						},
						{
							"internalType": "bytes32",
							"name": "sender",
							"type": "bytes32"
						},
						{
							"internalType": "uint64",
							"name": "nonce",
							"type": "uint64"
						}
					],
					"internalType": "struct Origin",
					"name": "origin",
					"type": "tuple"
				}
			],
			"name": "allowInitializePath",
			"outputs": [
				{
					"internalType": "bool",
					"name": "",
					"type": "bool"
				}
			],
			"stateMutability": "view",
			"type": "function"
		},
		{
			"inputs": [
				{
					"internalType": "uint256",
					"name": "_jobId",
					"type": "uint256"
				},
				{
					"internalType": "string",
					"name": "_applicationHash",
					"type": "string"
				},
				{
					"components": [
						{
							"internalType": "string",
							"name": "descriptionHash",
							"type": "string"
						},
						{
							"internalType": "uint256",
							"name": "amount",
							"type": "uint256"
						}
					],
					"internalType": "struct OpenWorkJ.MilestonePayment[]",
					"name": "_proposedMilestones",
					"type": "tuple[]"
				}
			],
			"name": "applyToJob",
			"outputs": [],
			"stateMutability": "nonpayable",
			"type": "function"
		},
		{
			"inputs": [
				{
					"internalType": "address",
					"name": "_applicant",
					"type": "address"
				},
				{
					"internalType": "uint256",
					"name": "_jobId",
					"type": "uint256"
				},
				{
					"internalType": "string",
					"name": "_applicationHash",
					"type": "string"
				},
				{
					"components": [
						{
							"internalType": "string",
							"name": "descriptionHash",
							"type": "string"
						},
						{
							"internalType": "uint256",
							"name": "amount",
							"type": "uint256"
						}
					],
					"internalType": "struct OpenWorkJ.MilestonePayment[]",
					"name": "_proposedMilestones",
					"type": "tuple[]"
				}
			],
			"name": "applyToJob",
			"outputs": [],
			"stateMutability": "nonpayable",
			"type": "function"
		},
		{
			"inputs": [
				{
					"internalType": "address",
					"name": "_user",
					"type": "address"
				},
				{
					"internalType": "string",
					"name": "_ipfsHash",
					"type": "string"
				},
				{
					"internalType": "address",
					"name": "_referrerAddress",
					"type": "address"
				},
				{
					"internalType": "uint256",
					"name": "_rating",
					"type": "uint256"
				}
			],
			"name": "createProfile",
			"outputs": [],
			"stateMutability": "nonpayable",
			"type": "function"
		},
		{
			"inputs": [
				{
					"internalType": "string",
					"name": "_ipfsHash",
					"type": "string"
				},
				{
					"internalType": "address",
					"name": "_referrerAddress",
					"type": "address"
				},
				{
					"internalType": "uint256",
					"name": "_rating",
					"type": "uint256"
				}
			],
			"name": "createProfile",
			"outputs": [],
			"stateMutability": "nonpayable",
			"type": "function"
		},
		{
			"inputs": [],
			"name": "endpoint",
			"outputs": [
				{
					"internalType": "contract ILayerZeroEndpointV2",
					"name": "",
					"type": "address"
				}
			],
			"stateMutability": "view",
			"type": "function"
		},
		{
			"inputs": [
				{
					"internalType": "bytes32",
					"name": "",
					"type": "bytes32"
				}
			],
			"name": "executedMessages",
			"outputs": [
				{
					"internalType": "bool",
					"name": "",
					"type": "bool"
				}
			],
			"stateMutability": "view",
			"type": "function"
		},
		{
			"inputs": [
				{
					"internalType": "uint256",
					"name": "_jobId",
					"type": "uint256"
				},
				{
					"internalType": "uint256",
					"name": "_applicationId",
					"type": "uint256"
				}
			],
			"name": "getApplication",
			"outputs": [
				{
					"components": [
						{
							"internalType": "uint256",
							"name": "id",
							"type": "uint256"
						},
						{
							"internalType": "uint256",
							"name": "jobId",
							"type": "uint256"
						},
						{
							"internalType": "address",
							"name": "applicant",
							"type": "address"
						},
						{
							"internalType": "string",
							"name": "applicationHash",
							"type": "string"
						},
						{
							"components": [
								{
									"internalType": "string",
									"name": "descriptionHash",
									"type": "string"
								},
								{
									"internalType": "uint256",
									"name": "amount",
									"type": "uint256"
								}
							],
							"internalType": "struct OpenWorkJ.MilestonePayment[]",
							"name": "proposedMilestones",
							"type": "tuple[]"
						}
					],
					"internalType": "struct OpenWorkJ.Application",
					"name": "",
					"type": "tuple"
				}
			],
			"stateMutability": "view",
			"type": "function"
		},
		{
			"inputs": [
				{
					"internalType": "uint256",
					"name": "_jobId",
					"type": "uint256"
				}
			],
			"name": "getJob",
			"outputs": [
				{
					"components": [
						{
							"internalType": "uint256",
							"name": "id",
							"type": "uint256"
						},
						{
							"internalType": "address",
							"name": "jobGiver",
							"type": "address"
						},
						{
							"internalType": "address[]",
							"name": "applicants",
							"type": "address[]"
						},
						{
							"internalType": "string",
							"name": "jobDetailHash",
							"type": "string"
						},
						{
							"internalType": "bool",
							"name": "isOpen",
							"type": "bool"
						},
						{
							"internalType": "string[]",
							"name": "workSubmissions",
							"type": "string[]"
						},
						{
							"components": [
								{
									"internalType": "string",
									"name": "descriptionHash",
									"type": "string"
								},
								{
									"internalType": "uint256",
									"name": "amount",
									"type": "uint256"
								}
							],
							"internalType": "struct OpenWorkJ.MilestonePayment[]",
							"name": "milestonePayments",
							"type": "tuple[]"
						},
						{
							"components": [
								{
									"internalType": "string",
									"name": "descriptionHash",
									"type": "string"
								},
								{
									"internalType": "uint256",
									"name": "amount",
									"type": "uint256"
								}
							],
							"internalType": "struct OpenWorkJ.MilestonePayment[]",
							"name": "finalMilestones",
							"type": "tuple[]"
						},
						{
							"internalType": "uint256",
							"name": "totalPaid",
							"type": "uint256"
						},
						{
							"internalType": "uint256",
							"name": "currentLockedAmount",
							"type": "uint256"
						},
						{
							"internalType": "uint256",
							"name": "currentMilestone",
							"type": "uint256"
						},
						{
							"internalType": "address",
							"name": "selectedApplicant",
							"type": "address"
						},
						{
							"internalType": "uint256",
							"name": "selectedApplicationId",
							"type": "uint256"
						}
					],
					"internalType": "struct OpenWorkJ.Job",
					"name": "",
					"type": "tuple"
				}
			],
			"stateMutability": "view",
			"type": "function"
		},
		{
			"inputs": [
				{
					"internalType": "uint256",
					"name": "_jobId",
					"type": "uint256"
				}
			],
			"name": "getJobDetails",
			"outputs": [
				{
					"components": [
						{
							"internalType": "uint256",
							"name": "id",
							"type": "uint256"
						},
						{
							"internalType": "address",
							"name": "jobGiver",
							"type": "address"
						},
						{
							"internalType": "address[]",
							"name": "applicants",
							"type": "address[]"
						},
						{
							"internalType": "string",
							"name": "jobDetailHash",
							"type": "string"
						},
						{
							"internalType": "bool",
							"name": "isOpen",
							"type": "bool"
						},
						{
							"internalType": "string[]",
							"name": "workSubmissions",
							"type": "string[]"
						},
						{
							"components": [
								{
									"internalType": "string",
									"name": "descriptionHash",
									"type": "string"
								},
								{
									"internalType": "uint256",
									"name": "amount",
									"type": "uint256"
								}
							],
							"internalType": "struct OpenWorkJ.MilestonePayment[]",
							"name": "milestonePayments",
							"type": "tuple[]"
						},
						{
							"components": [
								{
									"internalType": "string",
									"name": "descriptionHash",
									"type": "string"
								},
								{
									"internalType": "uint256",
									"name": "amount",
									"type": "uint256"
								}
							],
							"internalType": "struct OpenWorkJ.MilestonePayment[]",
							"name": "finalMilestones",
							"type": "tuple[]"
						},
						{
							"internalType": "uint256",
							"name": "totalPaid",
							"type": "uint256"
						},
						{
							"internalType": "uint256",
							"name": "currentLockedAmount",
							"type": "uint256"
						},
						{
							"internalType": "uint256",
							"name": "currentMilestone",
							"type": "uint256"
						},
						{
							"internalType": "address",
							"name": "selectedApplicant",
							"type": "address"
						},
						{
							"internalType": "uint256",
							"name": "selectedApplicationId",
							"type": "uint256"
						}
					],
					"internalType": "struct OpenWorkJ.Job",
					"name": "",
					"type": "tuple"
				}
			],
			"stateMutability": "view",
			"type": "function"
		},
		{
			"inputs": [
				{
					"internalType": "address",
					"name": "_user",
					"type": "address"
				}
			],
			"name": "getProfile",
			"outputs": [
				{
					"components": [
						{
							"internalType": "address",
							"name": "userAddress",
							"type": "address"
						},
						{
							"internalType": "string",
							"name": "ipfsHash",
							"type": "string"
						},
						{
							"internalType": "address",
							"name": "referrerAddress",
							"type": "address"
						},
						{
							"internalType": "uint256",
							"name": "rating",
							"type": "uint256"
						},
						{
							"internalType": "string[]",
							"name": "portfolioHashes",
							"type": "string[]"
						}
					],
					"internalType": "struct OpenWorkJ.Profile",
					"name": "",
					"type": "tuple"
				}
			],
			"stateMutability": "view",
			"type": "function"
		},
		{
			"inputs": [
				{
					"internalType": "address",
					"name": "_user",
					"type": "address"
				}
			],
			"name": "getRating",
			"outputs": [
				{
					"internalType": "uint256",
					"name": "",
					"type": "uint256"
				}
			],
			"stateMutability": "view",
			"type": "function"
		},
		{
			"inputs": [
				{
					"internalType": "address",
					"name": "",
					"type": "address"
				}
			],
			"name": "hasProfile",
			"outputs": [
				{
					"internalType": "bool",
					"name": "",
					"type": "bool"
				}
			],
			"stateMutability": "view",
			"type": "function"
		},
		{
			"inputs": [
				{
					"components": [
						{
							"internalType": "uint32",
							"name": "srcEid",
							"type": "uint32"
						},
						{
							"internalType": "bytes32",
							"name": "sender",
							"type": "bytes32"
						},
						{
							"internalType": "uint64",
							"name": "nonce",
							"type": "uint64"
						}
					],
					"internalType": "struct Origin",
					"name": "",
					"type": "tuple"
				},
				{
					"internalType": "bytes",
					"name": "",
					"type": "bytes"
				},
				{
					"internalType": "address",
					"name": "_sender",
					"type": "address"
				}
			],
			"name": "isComposeMsgSender",
			"outputs": [
				{
					"internalType": "bool",
					"name": "",
					"type": "bool"
				}
			],
			"stateMutability": "view",
			"type": "function"
		},
		{
			"inputs": [
				{
					"internalType": "uint256",
					"name": "_jobId",
					"type": "uint256"
				}
			],
			"name": "isOpen",
			"outputs": [
				{
					"internalType": "bool",
					"name": "",
					"type": "bool"
				}
			],
			"stateMutability": "view",
			"type": "function"
		},
		{
			"inputs": [
				{
					"internalType": "uint256",
					"name": "",
					"type": "uint256"
				}
			],
			"name": "jobApplicationCounter",
			"outputs": [
				{
					"internalType": "uint256",
					"name": "",
					"type": "uint256"
				}
			],
			"stateMutability": "view",
			"type": "function"
		},
		{
			"inputs": [
				{
					"internalType": "uint256",
					"name": "",
					"type": "uint256"
				},
				{
					"internalType": "uint256",
					"name": "",
					"type": "uint256"
				}
			],
			"name": "jobApplications",
			"outputs": [
				{
					"internalType": "uint256",
					"name": "id",
					"type": "uint256"
				},
				{
					"internalType": "uint256",
					"name": "jobId",
					"type": "uint256"
				},
				{
					"internalType": "address",
					"name": "applicant",
					"type": "address"
				},
				{
					"internalType": "string",
					"name": "applicationHash",
					"type": "string"
				}
			],
			"stateMutability": "view",
			"type": "function"
		},
		{
			"inputs": [],
			"name": "jobCounter",
			"outputs": [
				{
					"internalType": "uint256",
					"name": "",
					"type": "uint256"
				}
			],
			"stateMutability": "view",
			"type": "function"
		},
		{
			"inputs": [
				{
					"internalType": "uint256",
					"name": "",
					"type": "uint256"
				},
				{
					"internalType": "address",
					"name": "",
					"type": "address"
				}
			],
			"name": "jobRatings",
			"outputs": [
				{
					"internalType": "uint256",
					"name": "",
					"type": "uint256"
				}
			],
			"stateMutability": "view",
			"type": "function"
		},
		{
			"inputs": [
				{
					"internalType": "uint256",
					"name": "",
					"type": "uint256"
				}
			],
			"name": "jobs",
			"outputs": [
				{
					"internalType": "uint256",
					"name": "id",
					"type": "uint256"
				},
				{
					"internalType": "address",
					"name": "jobGiver",
					"type": "address"
				},
				{
					"internalType": "string",
					"name": "jobDetailHash",
					"type": "string"
				},
				{
					"internalType": "bool",
					"name": "isOpen",
					"type": "bool"
				},
				{
					"internalType": "uint256",
					"name": "totalPaid",
					"type": "uint256"
				},
				{
					"internalType": "uint256",
					"name": "currentLockedAmount",
					"type": "uint256"
				},
				{
					"internalType": "uint256",
					"name": "currentMilestone",
					"type": "uint256"
				},
				{
					"internalType": "address",
					"name": "selectedApplicant",
					"type": "address"
				},
				{
					"internalType": "uint256",
					"name": "selectedApplicationId",
					"type": "uint256"
				}
			],
			"stateMutability": "view",
			"type": "function"
		},
		{
			"inputs": [
				{
					"internalType": "uint256",
					"name": "_jobId",
					"type": "uint256"
				},
				{
					"internalType": "uint256",
					"name": "_lockedAmount",
					"type": "uint256"
				}
			],
			"name": "lockNextMilestone",
			"outputs": [],
			"stateMutability": "nonpayable",
			"type": "function"
		},
		{
			"inputs": [
				{
					"internalType": "address",
					"name": "_caller",
					"type": "address"
				},
				{
					"internalType": "uint256",
					"name": "_jobId",
					"type": "uint256"
				},
				{
					"internalType": "uint256",
					"name": "_lockedAmount",
					"type": "uint256"
				}
			],
			"name": "lockNextMilestone",
			"outputs": [],
			"stateMutability": "nonpayable",
			"type": "function"
		},
		{
			"inputs": [
				{
					"components": [
						{
							"internalType": "uint32",
							"name": "srcEid",
							"type": "uint32"
						},
						{
							"internalType": "bytes32",
							"name": "sender",
							"type": "bytes32"
						},
						{
							"internalType": "uint64",
							"name": "nonce",
							"type": "uint64"
						}
					],
					"internalType": "struct Origin",
					"name": "_origin",
					"type": "tuple"
				},
				{
					"internalType": "bytes32",
					"name": "_guid",
					"type": "bytes32"
				},
				{
					"internalType": "bytes",
					"name": "_message",
					"type": "bytes"
				},
				{
					"internalType": "address",
					"name": "_executor",
					"type": "address"
				},
				{
					"internalType": "bytes",
					"name": "_extraData",
					"type": "bytes"
				}
			],
			"name": "lzReceive",
			"outputs": [],
			"stateMutability": "payable",
			"type": "function"
		},
		{
			"inputs": [
				{
					"internalType": "uint32",
					"name": "",
					"type": "uint32"
				},
				{
					"internalType": "bytes32",
					"name": "",
					"type": "bytes32"
				}
			],
			"name": "nextNonce",
			"outputs": [
				{
					"internalType": "uint64",
					"name": "nonce",
					"type": "uint64"
				}
			],
			"stateMutability": "view",
			"type": "function"
		},
		{
			"inputs": [],
			"name": "oAppVersion",
			"outputs": [
				{
					"internalType": "uint64",
					"name": "senderVersion",
					"type": "uint64"
				},
				{
					"internalType": "uint64",
					"name": "receiverVersion",
					"type": "uint64"
				}
			],
			"stateMutability": "pure",
			"type": "function"
		},
		{
			"inputs": [],
			"name": "owner",
			"outputs": [
				{
					"internalType": "address",
					"name": "",
					"type": "address"
				}
			],
			"stateMutability": "view",
			"type": "function"
		},
		{
			"inputs": [
				{
					"internalType": "uint32",
					"name": "eid",
					"type": "uint32"
				}
			],
			"name": "peers",
			"outputs": [
				{
					"internalType": "bytes32",
					"name": "peer",
					"type": "bytes32"
				}
			],
			"stateMutability": "view",
			"type": "function"
		},
		{
			"inputs": [
				{
					"internalType": "address",
					"name": "_jobGiver",
					"type": "address"
				},
				{
					"internalType": "string",
					"name": "_jobDetailHash",
					"type": "string"
				},
				{
					"components": [
						{
							"internalType": "string",
							"name": "descriptionHash",
							"type": "string"
						},
						{
							"internalType": "uint256",
							"name": "amount",
							"type": "uint256"
						}
					],
					"internalType": "struct OpenWorkJ.MilestonePayment[]",
					"name": "_milestonePayments",
					"type": "tuple[]"
				},
				{
					"internalType": "uint256",
					"name": "_totalValue",
					"type": "uint256"
				}
			],
			"name": "postJob",
			"outputs": [],
			"stateMutability": "nonpayable",
			"type": "function"
		},
		{
			"inputs": [
				{
					"internalType": "string",
					"name": "_jobDetailHash",
					"type": "string"
				},
				{
					"components": [
						{
							"internalType": "string",
							"name": "descriptionHash",
							"type": "string"
						},
						{
							"internalType": "uint256",
							"name": "amount",
							"type": "uint256"
						}
					],
					"internalType": "struct OpenWorkJ.MilestonePayment[]",
					"name": "_milestonePayments",
					"type": "tuple[]"
				}
			],
			"name": "postJob",
			"outputs": [],
			"stateMutability": "payable",
			"type": "function"
		},
		{
			"inputs": [
				{
					"internalType": "address",
					"name": "",
					"type": "address"
				}
			],
			"name": "profiles",
			"outputs": [
				{
					"internalType": "address",
					"name": "userAddress",
					"type": "address"
				},
				{
					"internalType": "string",
					"name": "ipfsHash",
					"type": "string"
				},
				{
					"internalType": "address",
					"name": "referrerAddress",
					"type": "address"
				},
				{
					"internalType": "uint256",
					"name": "rating",
					"type": "uint256"
				}
			],
			"stateMutability": "view",
			"type": "function"
		},
		{
			"inputs": [
				{
					"internalType": "uint256",
					"name": "_jobId",
					"type": "uint256"
				},
				{
					"internalType": "address",
					"name": "_userToRate",
					"type": "address"
				},
				{
					"internalType": "uint256",
					"name": "_rating",
					"type": "uint256"
				}
			],
			"name": "rate",
			"outputs": [],
			"stateMutability": "nonpayable",
			"type": "function"
		},
		{
			"inputs": [
				{
					"internalType": "address",
					"name": "_rater",
					"type": "address"
				},
				{
					"internalType": "uint256",
					"name": "_jobId",
					"type": "uint256"
				},
				{
					"internalType": "address",
					"name": "_userToRate",
					"type": "address"
				},
				{
					"internalType": "uint256",
					"name": "_rating",
					"type": "uint256"
				}
			],
			"name": "rate",
			"outputs": [],
			"stateMutability": "nonpayable",
			"type": "function"
		},
		{
			"inputs": [
				{
					"internalType": "uint256",
					"name": "_jobId",
					"type": "uint256"
				},
				{
					"internalType": "uint256",
					"name": "_amount",
					"type": "uint256"
				}
			],
			"name": "releasePayment",
			"outputs": [],
			"stateMutability": "nonpayable",
			"type": "function"
		},
		{
			"inputs": [
				{
					"internalType": "address",
					"name": "_jobGiver",
					"type": "address"
				},
				{
					"internalType": "uint256",
					"name": "_jobId",
					"type": "uint256"
				},
				{
					"internalType": "uint256",
					"name": "_amount",
					"type": "uint256"
				}
			],
			"name": "releasePayment",
			"outputs": [],
			"stateMutability": "nonpayable",
			"type": "function"
		},
		{
			"inputs": [],
			"name": "renounceOwnership",
			"outputs": [],
			"stateMutability": "nonpayable",
			"type": "function"
		},
		{
			"inputs": [
				{
					"internalType": "address",
					"name": "_delegate",
					"type": "address"
				}
			],
			"name": "setDelegate",
			"outputs": [],
			"stateMutability": "nonpayable",
			"type": "function"
		},
		{
			"inputs": [
				{
					"internalType": "uint32",
					"name": "_eid",
					"type": "uint32"
				},
				{
					"internalType": "bytes32",
					"name": "_peer",
					"type": "bytes32"
				}
			],
			"name": "setPeer",
			"outputs": [],
			"stateMutability": "nonpayable",
			"type": "function"
		},
		{
			"inputs": [
				{
					"internalType": "uint256",
					"name": "_applicationId",
					"type": "uint256"
				},
				{
					"internalType": "bool",
					"name": "_useApplicantMilestones",
					"type": "bool"
				}
			],
			"name": "startJob",
			"outputs": [],
			"stateMutability": "nonpayable",
			"type": "function"
		},
		{
			"inputs": [
				{
					"internalType": "address",
					"name": "_jobGiver",
					"type": "address"
				},
				{
					"internalType": "uint256",
					"name": "_applicationId",
					"type": "uint256"
				},
				{
					"internalType": "bool",
					"name": "_useApplicantMilestones",
					"type": "bool"
				}
			],
			"name": "startJob",
			"outputs": [],
			"stateMutability": "nonpayable",
			"type": "function"
		},
		{
			"inputs": [
				{
					"internalType": "address",
					"name": "_applicant",
					"type": "address"
				},
				{
					"internalType": "uint256",
					"name": "_jobId",
					"type": "uint256"
				},
				{
					"internalType": "string",
					"name": "_submissionHash",
					"type": "string"
				}
			],
			"name": "submitWork",
			"outputs": [],
			"stateMutability": "nonpayable",
			"type": "function"
		},
		{
			"inputs": [
				{
					"internalType": "uint256",
					"name": "_jobId",
					"type": "uint256"
				},
				{
					"internalType": "string",
					"name": "_submissionHash",
					"type": "string"
				}
			],
			"name": "submitWork",
			"outputs": [],
			"stateMutability": "nonpayable",
			"type": "function"
		},
		{
			"inputs": [
				{
					"internalType": "address",
					"name": "newOwner",
					"type": "address"
				}
			],
			"name": "transferOwnership",
			"outputs": [],
			"stateMutability": "nonpayable",
			"type": "function"
		},
		{
			"inputs": [
				{
					"internalType": "address",
					"name": "",
					"type": "address"
				},
				{
					"internalType": "uint256",
					"name": "",
					"type": "uint256"
				}
			],
			"name": "userRatings",
			"outputs": [
				{
					"internalType": "uint256",
					"name": "",
					"type": "uint256"
				}
			],
			"stateMutability": "view",
			"type": "function"
		}
	]
}