{
	"data": {
		"bytecode": {
			"linkReferences": {},
			"object": "6080604052348015600f57600080fd5b50608280601d6000396000f3fe60806040526004361060265760003560e01c806312065fe014602b578063835c19f314604a575b600080fd5b348015603657600080fd5b504760405190815260200160405180910390f35b00fea2646970667358221220f4ddb9d248ada8205e295fe07b3903af271b86db193441bf46b1cd8d871cb56064736f6c634300081c0033",
			"opcodes": "PUSH1 0x80 PUSH1 0x40 MSTORE CALLVALUE DUP1 ISZERO PUSH1 0xF JUMPI PUSH1 0x0 DUP1 REVERT JUMPDEST POP PUSH1 0x82 DUP1 PUSH1 0x1D PUSH1 0x0 CODECOPY PUSH1 0x0 RETURN INVALID PUSH1 0x80 PUSH1 0x40 MSTORE PUSH1 0x4 CALLDATASIZE LT PUSH1 0x26 JUMPI PUSH1 0x0 CALLDATALOAD PUSH1 0xE0 SHR DUP1 PUSH4 0x12065FE0 EQ PUSH1 0x2B JUMPI DUP1 PUSH4 0x835C19F3 EQ PUSH1 0x4A JUMPI JUMPDEST PUSH1 0x0 DUP1 REVERT JUMPDEST CALLVALUE DUP1 ISZERO PUSH1 0x36 JUMPI PUSH1 0x0 DUP1 REVERT JUMPDEST POP SELFBALANCE PUSH1 0x40 MLOAD SWAP1 DUP2 MSTORE PUSH1 0x20 ADD PUSH1 0x40 MLOAD DUP1 SWAP2 SUB SWAP1 RETURN JUMPDEST STOP INVALID LOG2 PUSH5 0x6970667358 0x22 SLT KECCAK256 DELEGATECALL 0xDD 0xB9 0xD2 BASEFEE 0xAD 0xA8 KECCAK256 MCOPY 0x29 PUSH0 0xE0 PUSH28 0x3903AF271B86DB193441BF46B1CD8D871CB56064736F6C634300081C STOP CALLER "
		},
		"gasEstimates": {
			"creation": {
				"codeDepositCost": "26000",
				"executionCost": "81",
				"totalCost": "26081"
			},
			"external": {
				"getBalance()": "148",
				"receivePayment()": "96"
			}
		},
		"methodIdentifiers": {
			"getBalance()": "12065fe0",
			"receivePayment()": "835c19f3"
		}
	},
	"abi": [
		{
			"inputs": [],
			"name": "getBalance",
			"outputs": [
				{
					"internalType": "uint256",
					"name": "",
					"type": "uint256"
				}
			],
			"stateMutability": "view",
			"type": "function"
		},
		{
			"inputs": [],
			"name": "receivePayment",
			"outputs": [],
			"stateMutability": "payable",
			"type": "function"
		}
	]
}