{
	"data": {
		"bytecode": {
			"linkReferences": {},
			"object": "608060405234801561001057600080fd5b5060405161184f38038061184f83398101604081905261002f916106fb565b806001600160a01b03811661005e57604051631e4fbdf760e01b81526000600482015260240160405180910390fd5b610067816106ab565b506106a560408051606080820183526000808352631dcd6500602080850182815269152d02c7e14af68000008688019081526006805460018181018355828852985160039182027ff652222313e28459528d920b65115c16c04f3efc82aaedc97be59f3f377c0d3f8181019290925594517ff652222313e28459528d920b65115c16c04f3efc82aaedc97be59f3f377c0d408087019190915593517ff652222313e28459528d920b65115c16c04f3efc82aaedc97be59f3f377c0d41958601558a51808a018c52968752633b9aca00878701818152690a968163f0a57b400000898e019081528554808e018755868c5299519985028085019a909a5590518987015551978601979097558a51808a018c52968752637735940087870181815269054b40b1f852bda00000898e019081528554808e018755868c5299519985028085019a909a5590518987015551978601979097558a51808a018c5296875263ee6b28008787018181526902a5a058fc295ed00000898e019081528554808e018755868c5299519985028085019a909a5590518987015551978601979097558a51808a018c529687526401dcd65000878701818152690152d02c7e14af680000898e019081528554808e018755868c5299519985028085019a909a5590518987015551978601979097558a51808a018c529687526403b9aca00087870181815268a968163f0a57b40000898e019081528554808e018755868c5299519985028085019a909a5590518987015551978601979097558a51808a018c529687526407735940008787018181526854ad1ac42b58280000898e019081528554808e018755868c5299519985028085019a909a5590518987015551978601979097558a51808a018c52968752640ee6b28000878701818152682a568d6215ac140000898e019081528554808e018755868c5299519985028085019a909a5590518987015551978601979097558a51808a018c52968752641dcd650000878701818152681532370c64a9bc0000898e019081528554808e018755868c5299519985028085019a909a5590518987015551978601979097558a51808a018c52968752643b9aca0000878701818152680a922b2ad8812c0000898e019081528554808e018755868c5299519985028085019a909a5590518987015551978601979097558a51808a018c5296875264773594000087870181815268055005f0c614480000898e019081528554808e018755868c5299519985028085019a909a5590518987015551978601979097558a51808a018c5296875264ee6b2800008787018181526802a802f8630a240000898e019081528554808e018755868c5299519985028085019a909a5590518987015551978601979097558a51808a018c529687526501dcd650000087870181815268014d1120d7b1600000898e019081528554808e018755868c5299519985028085019a909a5590518987015551978601979097558a51808a018c529687526503b9aca0000087870181815267a688906bd8b00000898e019081528554808e018755868c5299519985028085019a909a5590518987015551978601979097558a51808a018c52968752650773594000008787018181526753444835ec580000898e019081528554808e018755868c5299519985028085019a909a5590518987015551978601979097558a51808a018c52968752650ee6b28000008787018181526729a2241af62c0000898e019081528554808e018755868c5299519985028085019a909a5590518987015551978601979097558a51808a018c52968752651dcd650000008787018181526714d1120d7b160000898e019081528554808e018755868c5299519985028085019a909a5590518987015551978601979097558a51808a018c52968752653b9aca000000878701818152670a688906bd8b0000898e019081528554808e018755868c5299519985028085019a909a5590518987015551978601979097558a51808a018c529687526577359400000087870181815267054607fc96a60000898e019081528554808e018755868c5299519985028085019a909a5590518987015551978601979097558a519889018b529588526000199488019485526702a303fe4b530000998801998a52815498890182559552945195909302918201949094559251918301919091559151910155565b5061072b565b600080546001600160a01b038381166001600160a01b0319831681178455604051919092169283917f8be0079c531659141344cd1fd0a4f28419497f9722a3daafe3b4186f6b6457e09190a35050565b60006020828403121561070d57600080fd5b81516001600160a01b038116811461072457600080fd5b9392505050565b6111158061073a6000396000f3fe608060405234801561001057600080fd5b50600436106101375760003560e01c80638da5cb5b116100b8578063afd86a761161007c578063afd86a76146102eb578063b014dc11146102fe578063ba69e4101461031e578063f10f9a6914610331578063f2fde38b14610351578063fad58b211461036457600080fd5b80638da5cb5b1461026e57806394928b841461027f57806397e50818146102925780639bd8bd9e146102a5578063ac16ba1d146102b857600080fd5b80635183d667116100ff5780635183d667146101e75780636a55b7ca14610210578063715018a61461023e5780637e1fdbe81461024857806381d920ec1461025b57600080fd5b806322834ddb1461013c5780632330ce7014610153578063272e5a521461017c5780632ebd99781461019c5780634a9fefc7146101bc575b600080fd5b6006545b6040519081526020015b60405180910390f35b610140610161366004610bff565b6001600160a01b031660009081526002602052604090205490565b61014061018a366004610c23565b60009081526005602052604090205490565b6101406101aa366004610c23565b60056020526000908152604090205481565b6101cf6101ca366004610bff565b610377565b6040516001600160a01b03909116815260200161014a565b6101406101f5366004610bff565b6001600160a01b031660009081526003602052604090205490565b61022361021e366004610c23565b610418565b6040805193845260208401929092529082015260600161014a565b61024661044b565b005b610246610256366004610c3c565b61045f565b610223610269366004610c23565b610483565b6000546001600160a01b03166101cf565b61014061028d366004610c3c565b610532565b6102466102a0366004610c68565b61056d565b6102466102b3366004610c3c565b6108f2565b6102db6102c6366004610c23565b60046020526000908152604090205460ff1681565b604051901515815260200161014a565b6001546101cf906001600160a01b031681565b61014061030c366004610bff565b60026020526000908152604090205481565b61014061032c366004610c68565b610916565b61014061033f366004610bff565b60036020526000908152604090205481565b61024661035f366004610bff565b610a33565b610246610372366004610bff565b610a71565b6001546000906001600160a01b031661039257506000919050565b60015460405162f53a4760e41b81526001600160a01b03848116600483015290911690630f53a47090602401600060405180830381865afa9250505080156103fc57506040513d6000823e601f3d908101601f191682016040526103f99190810190610e18565b60015b61040857506000919050565b509095945050505050565b919050565b6006818154811061042857600080fd5b600091825260209091206003909102018054600182015460029092015490925083565b610453610a9b565b61045d6000610ac8565b565b610467610a9b565b6001600160a01b03909116600090815260036020526040902055565b600080600060068054905084106104d65760405162461bcd60e51b8152602060048201526012602482015271092dcecc2d8d2c840c4c2dcc840d2dcc8caf60731b60448201526064015b60405180910390fd5b6000600685815481106104eb576104eb610eb2565b600091825260209182902060408051606081018252600393909302909101805480845260018201549484018590526002909101549290910182905297919650945092505050565b6001600160a01b038216600090815260026020526040812054816105568483610ede565b90506105628282610916565b925050505b92915050565b6001546001600160a01b03166105bc5760405162461bcd60e51b8152602060048201526014602482015273129bd88818dbdb9d1c9858dd081b9bdd081cd95d60621b60448201526064016104cd565b6001546001600160a01b031633146106165760405162461bcd60e51b815260206004820152601f60248201527f4f6e6c79206a6f6220636f6e74726163742063616e2063616c6c20746869730060448201526064016104cd565b600081116106715760405162461bcd60e51b815260206004820152602260248201527f5061696420616d6f756e74206d7573742062652067726561746572207468616e604482015261020360f41b60648201526084016104cd565b60015460405163bf22c45760e01b81526004810184905260009182916001600160a01b039091169063bf22c45790602401600060405180830381865afa1580156106bf573d6000803e3d6000fd5b505050506040513d6000823e601f3d908101601f191682016040526106e79190810190610f68565b5099505050505050505092505060006001600160a01b0316826001600160a01b03160361074a5760405162461bcd60e51b815260206004820152601160248201527024b73b30b634b2103537b11033b4bb32b960791b60448201526064016104cd565b6001600160a01b0381166107985760405162461bcd60e51b8152602060048201526015602482015274139bc81cd95b1958dd195908185c1c1b1a58d85b9d605a1b60448201526064016104cd565b600084815260056020526040812080548592906107b6908490610ede565b90915550600090506107c783610377565b905060006107d483610377565b905060006107e28587610b18565b905060006107f08588610b18565b90506001600160a01b0384161580159061081c5750856001600160a01b0316846001600160a01b031614155b156108375761083584610830600a8a61107a565b610b18565b505b6001600160a01b038316158015906108615750846001600160a01b0316836001600160a01b031614155b801561087f5750836001600160a01b0316836001600160a01b031614155b156108955761089383610830600a8a61107a565b505b60408051888152602081018490529081018290526001600160a01b0380871691908816908a907ff0507b68a744db6f63183fb7e722285fb3cbf6f6aa13c12ff186432859e368e29060600160405180910390a45050505050505050565b6108fa610a9b565b6001600160a01b03909116600090815260026020526040902055565b600081831061092757506000610567565b600083815b6006548110801561093c57508482105b15610a295760006006828154811061095657610956610eb2565b60009182526020918290206040805160608101825260039093029091018054835260018101549383018490526002015490820152915083106109985750610a17565b805160009084116109aa5781516109ac565b835b90506000826020015188106109c55782602001516109c7565b875b905080821015610a135760006109dd838361109c565b90506000620f42408560400151836109f591906110af565b6109ff919061107a565b9050610a0b8189610ede565b975082965050505b5050505b80610a21816110c6565b91505061092c565b5090949350505050565b610a3b610a9b565b6001600160a01b038116610a6557604051631e4fbdf760e01b8152600060048201526024016104cd565b610a6e81610ac8565b50565b610a79610a9b565b600180546001600160a01b0319166001600160a01b0392909216919091179055565b6000546001600160a01b0316331461045d5760405163118cdaa760e01b81523360048201526024016104cd565b600080546001600160a01b038381166001600160a01b0319831681178455604051919092169283917f8be0079c531659141344cd1fd0a4f28419497f9722a3daafe3b4186f6b6457e09190a35050565b6001600160a01b03821660009081526002602052604081205481610b3c8483610ede565b90506000610b4a8383610916565b6001600160a01b03871660009081526002602090815260408083208690556003909152812080549293508392909190610b84908490610ede565b90915550506001600160a01b0386166000818152600360209081526040918290205482518581529182018690528183015290517f53f3ad2fd40a9f84e221858c8242ce2e4a5f164c3a550d1e3a70e53123a402fa9181900360600190a295945050505050565b6001600160a01b0381168114610a6e57600080fd5b600060208284031215610c1157600080fd5b8135610c1c81610bea565b9392505050565b600060208284031215610c3557600080fd5b5035919050565b60008060408385031215610c4f57600080fd5b8235610c5a81610bea565b946020939093013593505050565b60008060408385031215610c7b57600080fd5b50508035926020909101359150565b805161041381610bea565b634e487b7160e01b600052604160045260246000fd5b604051601f8201601f1916810167ffffffffffffffff81118282101715610cd457610cd4610c95565b604052919050565b600082601f830112610ced57600080fd5b815167ffffffffffffffff811115610d0757610d07610c95565b610d1a601f8201601f1916602001610cab565b818152846020838601011115610d2f57600080fd5b60005b82811015610d4e57602081860181015183830182015201610d32565b506000918101602001919091529392505050565b600067ffffffffffffffff821115610d7c57610d7c610c95565b5060051b60200190565b600082601f830112610d9757600080fd5b8151610daa610da582610d62565b610cab565b8082825260208201915060208360051b860101925085831115610dcc57600080fd5b602085015b83811015610e0e57805167ffffffffffffffff811115610df057600080fd5b610dff886020838a0101610cdc565b84525060209283019201610dd1565b5095945050505050565b600080600080600060a08688031215610e3057600080fd5b8551610e3b81610bea565b602087015190955067ffffffffffffffff811115610e5857600080fd5b610e6488828901610cdc565b9450506040860151610e7581610bea565b60608701516080880151919450925067ffffffffffffffff811115610e9957600080fd5b610ea588828901610d86565b9150509295509295909350565b634e487b7160e01b600052603260045260246000fd5b634e487b7160e01b600052601160045260246000fd5b8082018082111561056757610567610ec8565b600082601f830112610f0257600080fd5b8151610f10610da582610d62565b8082825260208201915060208360051b860101925085831115610f3257600080fd5b602085015b83811015610e0e578051610f4a81610bea565b835260209283019201610f37565b8051801515811461041357600080fd5b60008060008060008060008060008060006101608c8e031215610f8a57600080fd5b8b519a50610f9a60208d01610c8a565b995060408c015167ffffffffffffffff811115610fb657600080fd5b610fc28e828f01610ef1565b99505060608c015167ffffffffffffffff811115610fdf57600080fd5b610feb8e828f01610cdc565b985050610ffa60808d01610f58565b965060a08c015167ffffffffffffffff81111561101657600080fd5b6110228e828f01610d86565b965050600060c08d0151905080955050600060e08d015190508094505060006101008d015190508093505061105a6101208d01610c8a565b915060006101408d01519050809150509295989b509295989b9093969950565b60008261109757634e487b7160e01b600052601260045260246000fd5b500490565b8181038181111561056757610567610ec8565b808202811582820484141761056757610567610ec8565b6000600182016110d8576110d8610ec8565b506001019056fea26469706673582212201a9a3ffd05104d814d5c7c570533532ea96476e25541861a7ad5f5617b40cac864736f6c634300081c0033",
			"opcodes": "PUSH1 0x80 PUSH1 0x40 MSTORE CALLVALUE DUP1 ISZERO PUSH2 0x10 JUMPI PUSH1 0x0 DUP1 REVERT JUMPDEST POP PUSH1 0x40 MLOAD PUSH2 0x184F CODESIZE SUB DUP1 PUSH2 0x184F DUP4 CODECOPY DUP2 ADD PUSH1 0x40 DUP2 SWAP1 MSTORE PUSH2 0x2F SWAP2 PUSH2 0x6FB JUMP JUMPDEST DUP1 PUSH1 0x1 PUSH1 0x1 PUSH1 0xA0 SHL SUB DUP2 AND PUSH2 0x5E JUMPI PUSH1 0x40 MLOAD PUSH4 0x1E4FBDF7 PUSH1 0xE0 SHL DUP2 MSTORE PUSH1 0x0 PUSH1 0x4 DUP3 ADD MSTORE PUSH1 0x24 ADD PUSH1 0x40 MLOAD DUP1 SWAP2 SUB SWAP1 REVERT JUMPDEST PUSH2 0x67 DUP2 PUSH2 0x6AB JUMP JUMPDEST POP PUSH2 0x6A5 PUSH1 0x40 DUP1 MLOAD PUSH1 0x60 DUP1 DUP3 ADD DUP4 MSTORE PUSH1 0x0 DUP1 DUP4 MSTORE PUSH4 0x1DCD6500 PUSH1 0x20 DUP1 DUP6 ADD DUP3 DUP2 MSTORE PUSH10 0x152D02C7E14AF6800000 DUP7 DUP9 ADD SWAP1 DUP2 MSTORE PUSH1 0x6 DUP1 SLOAD PUSH1 0x1 DUP2 DUP2 ADD DUP4 SSTORE DUP3 DUP9 MSTORE SWAP9 MLOAD PUSH1 0x3 SWAP2 DUP3 MUL PUSH32 0xF652222313E28459528D920B65115C16C04F3EFC82AAEDC97BE59F3F377C0D3F DUP2 DUP2 ADD SWAP3 SWAP1 SWAP3 SSTORE SWAP5 MLOAD PUSH32 0xF652222313E28459528D920B65115C16C04F3EFC82AAEDC97BE59F3F377C0D40 DUP1 DUP8 ADD SWAP2 SWAP1 SWAP2 SSTORE SWAP4 MLOAD PUSH32 0xF652222313E28459528D920B65115C16C04F3EFC82AAEDC97BE59F3F377C0D41 SWAP6 DUP7 ADD SSTORE DUP11 MLOAD DUP1 DUP11 ADD DUP13 MSTORE SWAP7 DUP8 MSTORE PUSH4 0x3B9ACA00 DUP8 DUP8 ADD DUP2 DUP2 MSTORE PUSH10 0xA968163F0A57B400000 DUP10 DUP15 ADD SWAP1 DUP2 MSTORE DUP6 SLOAD DUP1 DUP15 ADD DUP8 SSTORE DUP7 DUP13 MSTORE SWAP10 MLOAD SWAP10 DUP6 MUL DUP1 DUP6 ADD SWAP11 SWAP1 SWAP11 SSTORE SWAP1 MLOAD DUP10 DUP8 ADD SSTORE MLOAD SWAP8 DUP7 ADD SWAP8 SWAP1 SWAP8 SSTORE DUP11 MLOAD DUP1 DUP11 ADD DUP13 MSTORE SWAP7 DUP8 MSTORE PUSH4 0x77359400 DUP8 DUP8 ADD DUP2 DUP2 MSTORE PUSH10 0x54B40B1F852BDA00000 DUP10 DUP15 ADD SWAP1 DUP2 MSTORE DUP6 SLOAD DUP1 DUP15 ADD DUP8 SSTORE DUP7 DUP13 MSTORE SWAP10 MLOAD SWAP10 DUP6 MUL DUP1 DUP6 ADD SWAP11 SWAP1 SWAP11 SSTORE SWAP1 MLOAD DUP10 DUP8 ADD SSTORE MLOAD SWAP8 DUP7 ADD SWAP8 SWAP1 SWAP8 SSTORE DUP11 MLOAD DUP1 DUP11 ADD DUP13 MSTORE SWAP7 DUP8 MSTORE PUSH4 0xEE6B2800 DUP8 DUP8 ADD DUP2 DUP2 MSTORE PUSH10 0x2A5A058FC295ED00000 DUP10 DUP15 ADD SWAP1 DUP2 MSTORE DUP6 SLOAD DUP1 DUP15 ADD DUP8 SSTORE DUP7 DUP13 MSTORE SWAP10 MLOAD SWAP10 DUP6 MUL DUP1 DUP6 ADD SWAP11 SWAP1 SWAP11 SSTORE SWAP1 MLOAD DUP10 DUP8 ADD SSTORE MLOAD SWAP8 DUP7 ADD SWAP8 SWAP1 SWAP8 SSTORE DUP11 MLOAD DUP1 DUP11 ADD DUP13 MSTORE SWAP7 DUP8 MSTORE PUSH5 0x1DCD65000 DUP8 DUP8 ADD DUP2 DUP2 MSTORE PUSH10 0x152D02C7E14AF680000 DUP10 DUP15 ADD SWAP1 DUP2 MSTORE DUP6 SLOAD DUP1 DUP15 ADD DUP8 SSTORE DUP7 DUP13 MSTORE SWAP10 MLOAD SWAP10 DUP6 MUL DUP1 DUP6 ADD SWAP11 SWAP1 SWAP11 SSTORE SWAP1 MLOAD DUP10 DUP8 ADD SSTORE MLOAD SWAP8 DUP7 ADD SWAP8 SWAP1 SWAP8 SSTORE DUP11 MLOAD DUP1 DUP11 ADD DUP13 MSTORE SWAP7 DUP8 MSTORE PUSH5 0x3B9ACA000 DUP8 DUP8 ADD DUP2 DUP2 MSTORE PUSH9 0xA968163F0A57B40000 DUP10 DUP15 ADD SWAP1 DUP2 MSTORE DUP6 SLOAD DUP1 DUP15 ADD DUP8 SSTORE DUP7 DUP13 MSTORE SWAP10 MLOAD SWAP10 DUP6 MUL DUP1 DUP6 ADD SWAP11 SWAP1 SWAP11 SSTORE SWAP1 MLOAD DUP10 DUP8 ADD SSTORE MLOAD SWAP8 DUP7 ADD SWAP8 SWAP1 SWAP8 SSTORE DUP11 MLOAD DUP1 DUP11 ADD DUP13 MSTORE SWAP7 DUP8 MSTORE PUSH5 0x773594000 DUP8 DUP8 ADD DUP2 DUP2 MSTORE PUSH9 0x54AD1AC42B58280000 DUP10 DUP15 ADD SWAP1 DUP2 MSTORE DUP6 SLOAD DUP1 DUP15 ADD DUP8 SSTORE DUP7 DUP13 MSTORE SWAP10 MLOAD SWAP10 DUP6 MUL DUP1 DUP6 ADD SWAP11 SWAP1 SWAP11 SSTORE SWAP1 MLOAD DUP10 DUP8 ADD SSTORE MLOAD SWAP8 DUP7 ADD SWAP8 SWAP1 SWAP8 SSTORE DUP11 MLOAD DUP1 DUP11 ADD DUP13 MSTORE SWAP7 DUP8 MSTORE PUSH5 0xEE6B28000 DUP8 DUP8 ADD DUP2 DUP2 MSTORE PUSH9 0x2A568D6215AC140000 DUP10 DUP15 ADD SWAP1 DUP2 MSTORE DUP6 SLOAD DUP1 DUP15 ADD DUP8 SSTORE DUP7 DUP13 MSTORE SWAP10 MLOAD SWAP10 DUP6 MUL DUP1 DUP6 ADD SWAP11 SWAP1 SWAP11 SSTORE SWAP1 MLOAD DUP10 DUP8 ADD SSTORE MLOAD SWAP8 DUP7 ADD SWAP8 SWAP1 SWAP8 SSTORE DUP11 MLOAD DUP1 DUP11 ADD DUP13 MSTORE SWAP7 DUP8 MSTORE PUSH5 0x1DCD650000 DUP8 DUP8 ADD DUP2 DUP2 MSTORE PUSH9 0x1532370C64A9BC0000 DUP10 DUP15 ADD SWAP1 DUP2 MSTORE DUP6 SLOAD DUP1 DUP15 ADD DUP8 SSTORE DUP7 DUP13 MSTORE SWAP10 MLOAD SWAP10 DUP6 MUL DUP1 DUP6 ADD SWAP11 SWAP1 SWAP11 SSTORE SWAP1 MLOAD DUP10 DUP8 ADD SSTORE MLOAD SWAP8 DUP7 ADD SWAP8 SWAP1 SWAP8 SSTORE DUP11 MLOAD DUP1 DUP11 ADD DUP13 MSTORE SWAP7 DUP8 MSTORE PUSH5 0x3B9ACA0000 DUP8 DUP8 ADD DUP2 DUP2 MSTORE PUSH9 0xA922B2AD8812C0000 DUP10 DUP15 ADD SWAP1 DUP2 MSTORE DUP6 SLOAD DUP1 DUP15 ADD DUP8 SSTORE DUP7 DUP13 MSTORE SWAP10 MLOAD SWAP10 DUP6 MUL DUP1 DUP6 ADD SWAP11 SWAP1 SWAP11 SSTORE SWAP1 MLOAD DUP10 DUP8 ADD SSTORE MLOAD SWAP8 DUP7 ADD SWAP8 SWAP1 SWAP8 SSTORE DUP11 MLOAD DUP1 DUP11 ADD DUP13 MSTORE SWAP7 DUP8 MSTORE PUSH5 0x7735940000 DUP8 DUP8 ADD DUP2 DUP2 MSTORE PUSH9 0x55005F0C614480000 DUP10 DUP15 ADD SWAP1 DUP2 MSTORE DUP6 SLOAD DUP1 DUP15 ADD DUP8 SSTORE DUP7 DUP13 MSTORE SWAP10 MLOAD SWAP10 DUP6 MUL DUP1 DUP6 ADD SWAP11 SWAP1 SWAP11 SSTORE SWAP1 MLOAD DUP10 DUP8 ADD SSTORE MLOAD SWAP8 DUP7 ADD SWAP8 SWAP1 SWAP8 SSTORE DUP11 MLOAD DUP1 DUP11 ADD DUP13 MSTORE SWAP7 DUP8 MSTORE PUSH5 0xEE6B280000 DUP8 DUP8 ADD DUP2 DUP2 MSTORE PUSH9 0x2A802F8630A240000 DUP10 DUP15 ADD SWAP1 DUP2 MSTORE DUP6 SLOAD DUP1 DUP15 ADD DUP8 SSTORE DUP7 DUP13 MSTORE SWAP10 MLOAD SWAP10 DUP6 MUL DUP1 DUP6 ADD SWAP11 SWAP1 SWAP11 SSTORE SWAP1 MLOAD DUP10 DUP8 ADD SSTORE MLOAD SWAP8 DUP7 ADD SWAP8 SWAP1 SWAP8 SSTORE DUP11 MLOAD DUP1 DUP11 ADD DUP13 MSTORE SWAP7 DUP8 MSTORE PUSH6 0x1DCD6500000 DUP8 DUP8 ADD DUP2 DUP2 MSTORE PUSH9 0x14D1120D7B1600000 DUP10 DUP15 ADD SWAP1 DUP2 MSTORE DUP6 SLOAD DUP1 DUP15 ADD DUP8 SSTORE DUP7 DUP13 MSTORE SWAP10 MLOAD SWAP10 DUP6 MUL DUP1 DUP6 ADD SWAP11 SWAP1 SWAP11 SSTORE SWAP1 MLOAD DUP10 DUP8 ADD SSTORE MLOAD SWAP8 DUP7 ADD SWAP8 SWAP1 SWAP8 SSTORE DUP11 MLOAD DUP1 DUP11 ADD DUP13 MSTORE SWAP7 DUP8 MSTORE PUSH6 0x3B9ACA00000 DUP8 DUP8 ADD DUP2 DUP2 MSTORE PUSH8 0xA688906BD8B00000 DUP10 DUP15 ADD SWAP1 DUP2 MSTORE DUP6 SLOAD DUP1 DUP15 ADD DUP8 SSTORE DUP7 DUP13 MSTORE SWAP10 MLOAD SWAP10 DUP6 MUL DUP1 DUP6 ADD SWAP11 SWAP1 SWAP11 SSTORE SWAP1 MLOAD DUP10 DUP8 ADD SSTORE MLOAD SWAP8 DUP7 ADD SWAP8 SWAP1 SWAP8 SSTORE DUP11 MLOAD DUP1 DUP11 ADD DUP13 MSTORE SWAP7 DUP8 MSTORE PUSH6 0x77359400000 DUP8 DUP8 ADD DUP2 DUP2 MSTORE PUSH8 0x53444835EC580000 DUP10 DUP15 ADD SWAP1 DUP2 MSTORE DUP6 SLOAD DUP1 DUP15 ADD DUP8 SSTORE DUP7 DUP13 MSTORE SWAP10 MLOAD SWAP10 DUP6 MUL DUP1 DUP6 ADD SWAP11 SWAP1 SWAP11 SSTORE SWAP1 MLOAD DUP10 DUP8 ADD SSTORE MLOAD SWAP8 DUP7 ADD SWAP8 SWAP1 SWAP8 SSTORE DUP11 MLOAD DUP1 DUP11 ADD DUP13 MSTORE SWAP7 DUP8 MSTORE PUSH6 0xEE6B2800000 DUP8 DUP8 ADD DUP2 DUP2 MSTORE PUSH8 0x29A2241AF62C0000 DUP10 DUP15 ADD SWAP1 DUP2 MSTORE DUP6 SLOAD DUP1 DUP15 ADD DUP8 SSTORE DUP7 DUP13 MSTORE SWAP10 MLOAD SWAP10 DUP6 MUL DUP1 DUP6 ADD SWAP11 SWAP1 SWAP11 SSTORE SWAP1 MLOAD DUP10 DUP8 ADD SSTORE MLOAD SWAP8 DUP7 ADD SWAP8 SWAP1 SWAP8 SSTORE DUP11 MLOAD DUP1 DUP11 ADD DUP13 MSTORE SWAP7 DUP8 MSTORE PUSH6 0x1DCD65000000 DUP8 DUP8 ADD DUP2 DUP2 MSTORE PUSH8 0x14D1120D7B160000 DUP10 DUP15 ADD SWAP1 DUP2 MSTORE DUP6 SLOAD DUP1 DUP15 ADD DUP8 SSTORE DUP7 DUP13 MSTORE SWAP10 MLOAD SWAP10 DUP6 MUL DUP1 DUP6 ADD SWAP11 SWAP1 SWAP11 SSTORE SWAP1 MLOAD DUP10 DUP8 ADD SSTORE MLOAD SWAP8 DUP7 ADD SWAP8 SWAP1 SWAP8 SSTORE DUP11 MLOAD DUP1 DUP11 ADD DUP13 MSTORE SWAP7 DUP8 MSTORE PUSH6 0x3B9ACA000000 DUP8 DUP8 ADD DUP2 DUP2 MSTORE PUSH8 0xA688906BD8B0000 DUP10 DUP15 ADD SWAP1 DUP2 MSTORE DUP6 SLOAD DUP1 DUP15 ADD DUP8 SSTORE DUP7 DUP13 MSTORE SWAP10 MLOAD SWAP10 DUP6 MUL DUP1 DUP6 ADD SWAP11 SWAP1 SWAP11 SSTORE SWAP1 MLOAD DUP10 DUP8 ADD SSTORE MLOAD SWAP8 DUP7 ADD SWAP8 SWAP1 SWAP8 SSTORE DUP11 MLOAD DUP1 DUP11 ADD DUP13 MSTORE SWAP7 DUP8 MSTORE PUSH6 0x773594000000 DUP8 DUP8 ADD DUP2 DUP2 MSTORE PUSH8 0x54607FC96A60000 DUP10 DUP15 ADD SWAP1 DUP2 MSTORE DUP6 SLOAD DUP1 DUP15 ADD DUP8 SSTORE DUP7 DUP13 MSTORE SWAP10 MLOAD SWAP10 DUP6 MUL DUP1 DUP6 ADD SWAP11 SWAP1 SWAP11 SSTORE SWAP1 MLOAD DUP10 DUP8 ADD SSTORE MLOAD SWAP8 DUP7 ADD SWAP8 SWAP1 SWAP8 SSTORE DUP11 MLOAD SWAP9 DUP10 ADD DUP12 MSTORE SWAP6 DUP9 MSTORE PUSH1 0x0 NOT SWAP5 DUP9 ADD SWAP5 DUP6 MSTORE PUSH8 0x2A303FE4B530000 SWAP10 DUP9 ADD SWAP10 DUP11 MSTORE DUP2 SLOAD SWAP9 DUP10 ADD DUP3 SSTORE SWAP6 MSTORE SWAP5 MLOAD SWAP6 SWAP1 SWAP4 MUL SWAP2 DUP3 ADD SWAP5 SWAP1 SWAP5 SSTORE SWAP3 MLOAD SWAP2 DUP4 ADD SWAP2 SWAP1 SWAP2 SSTORE SWAP2 MLOAD SWAP2 ADD SSTORE JUMP JUMPDEST POP PUSH2 0x72B JUMP JUMPDEST PUSH1 0x0 DUP1 SLOAD PUSH1 0x1 PUSH1 0x1 PUSH1 0xA0 SHL SUB DUP4 DUP2 AND PUSH1 0x1 PUSH1 0x1 PUSH1 0xA0 SHL SUB NOT DUP4 AND DUP2 OR DUP5 SSTORE PUSH1 0x40 MLOAD SWAP2 SWAP1 SWAP3 AND SWAP3 DUP4 SWAP2 PUSH32 0x8BE0079C531659141344CD1FD0A4F28419497F9722A3DAAFE3B4186F6B6457E0 SWAP2 SWAP1 LOG3 POP POP JUMP JUMPDEST PUSH1 0x0 PUSH1 0x20 DUP3 DUP5 SUB SLT ISZERO PUSH2 0x70D JUMPI PUSH1 0x0 DUP1 REVERT JUMPDEST DUP2 MLOAD PUSH1 0x1 PUSH1 0x1 PUSH1 0xA0 SHL SUB DUP2 AND DUP2 EQ PUSH2 0x724 JUMPI PUSH1 0x0 DUP1 REVERT JUMPDEST SWAP4 SWAP3 POP POP POP JUMP JUMPDEST PUSH2 0x1115 DUP1 PUSH2 0x73A PUSH1 0x0 CODECOPY PUSH1 0x0 RETURN INVALID PUSH1 0x80 PUSH1 0x40 MSTORE CALLVALUE DUP1 ISZERO PUSH2 0x10 JUMPI PUSH1 0x0 DUP1 REVERT JUMPDEST POP PUSH1 0x4 CALLDATASIZE LT PUSH2 0x137 JUMPI PUSH1 0x0 CALLDATALOAD PUSH1 0xE0 SHR DUP1 PUSH4 0x8DA5CB5B GT PUSH2 0xB8 JUMPI DUP1 PUSH4 0xAFD86A76 GT PUSH2 0x7C JUMPI DUP1 PUSH4 0xAFD86A76 EQ PUSH2 0x2EB JUMPI DUP1 PUSH4 0xB014DC11 EQ PUSH2 0x2FE JUMPI DUP1 PUSH4 0xBA69E410 EQ PUSH2 0x31E JUMPI DUP1 PUSH4 0xF10F9A69 EQ PUSH2 0x331 JUMPI DUP1 PUSH4 0xF2FDE38B EQ PUSH2 0x351 JUMPI DUP1 PUSH4 0xFAD58B21 EQ PUSH2 0x364 JUMPI PUSH1 0x0 DUP1 REVERT JUMPDEST DUP1 PUSH4 0x8DA5CB5B EQ PUSH2 0x26E JUMPI DUP1 PUSH4 0x94928B84 EQ PUSH2 0x27F JUMPI DUP1 PUSH4 0x97E50818 EQ PUSH2 0x292 JUMPI DUP1 PUSH4 0x9BD8BD9E EQ PUSH2 0x2A5 JUMPI DUP1 PUSH4 0xAC16BA1D EQ PUSH2 0x2B8 JUMPI PUSH1 0x0 DUP1 REVERT JUMPDEST DUP1 PUSH4 0x5183D667 GT PUSH2 0xFF JUMPI DUP1 PUSH4 0x5183D667 EQ PUSH2 0x1E7 JUMPI DUP1 PUSH4 0x6A55B7CA EQ PUSH2 0x210 JUMPI DUP1 PUSH4 0x715018A6 EQ PUSH2 0x23E JUMPI DUP1 PUSH4 0x7E1FDBE8 EQ PUSH2 0x248 JUMPI DUP1 PUSH4 0x81D920EC EQ PUSH2 0x25B JUMPI PUSH1 0x0 DUP1 REVERT JUMPDEST DUP1 PUSH4 0x22834DDB EQ PUSH2 0x13C JUMPI DUP1 PUSH4 0x2330CE70 EQ PUSH2 0x153 JUMPI DUP1 PUSH4 0x272E5A52 EQ PUSH2 0x17C JUMPI DUP1 PUSH4 0x2EBD9978 EQ PUSH2 0x19C JUMPI DUP1 PUSH4 0x4A9FEFC7 EQ PUSH2 0x1BC JUMPI JUMPDEST PUSH1 0x0 DUP1 REVERT JUMPDEST PUSH1 0x6 SLOAD JUMPDEST PUSH1 0x40 MLOAD SWAP1 DUP2 MSTORE PUSH1 0x20 ADD JUMPDEST PUSH1 0x40 MLOAD DUP1 SWAP2 SUB SWAP1 RETURN JUMPDEST PUSH2 0x140 PUSH2 0x161 CALLDATASIZE PUSH1 0x4 PUSH2 0xBFF JUMP JUMPDEST PUSH1 0x1 PUSH1 0x1 PUSH1 0xA0 SHL SUB AND PUSH1 0x0 SWAP1 DUP2 MSTORE PUSH1 0x2 PUSH1 0x20 MSTORE PUSH1 0x40 SWAP1 KECCAK256 SLOAD SWAP1 JUMP JUMPDEST PUSH2 0x140 PUSH2 0x18A CALLDATASIZE PUSH1 0x4 PUSH2 0xC23 JUMP JUMPDEST PUSH1 0x0 SWAP1 DUP2 MSTORE PUSH1 0x5 PUSH1 0x20 MSTORE PUSH1 0x40 SWAP1 KECCAK256 SLOAD SWAP1 JUMP JUMPDEST PUSH2 0x140 PUSH2 0x1AA CALLDATASIZE PUSH1 0x4 PUSH2 0xC23 JUMP JUMPDEST PUSH1 0x5 PUSH1 0x20 MSTORE PUSH1 0x0 SWAP1 DUP2 MSTORE PUSH1 0x40 SWAP1 KECCAK256 SLOAD DUP2 JUMP JUMPDEST PUSH2 0x1CF PUSH2 0x1CA CALLDATASIZE PUSH1 0x4 PUSH2 0xBFF JUMP JUMPDEST PUSH2 0x377 JUMP JUMPDEST PUSH1 0x40 MLOAD PUSH1 0x1 PUSH1 0x1 PUSH1 0xA0 SHL SUB SWAP1 SWAP2 AND DUP2 MSTORE PUSH1 0x20 ADD PUSH2 0x14A JUMP JUMPDEST PUSH2 0x140 PUSH2 0x1F5 CALLDATASIZE PUSH1 0x4 PUSH2 0xBFF JUMP JUMPDEST PUSH1 0x1 PUSH1 0x1 PUSH1 0xA0 SHL SUB AND PUSH1 0x0 SWAP1 DUP2 MSTORE PUSH1 0x3 PUSH1 0x20 MSTORE PUSH1 0x40 SWAP1 KECCAK256 SLOAD SWAP1 JUMP JUMPDEST PUSH2 0x223 PUSH2 0x21E CALLDATASIZE PUSH1 0x4 PUSH2 0xC23 JUMP JUMPDEST PUSH2 0x418 JUMP JUMPDEST PUSH1 0x40 DUP1 MLOAD SWAP4 DUP5 MSTORE PUSH1 0x20 DUP5 ADD SWAP3 SWAP1 SWAP3 MSTORE SWAP1 DUP3 ADD MSTORE PUSH1 0x60 ADD PUSH2 0x14A JUMP JUMPDEST PUSH2 0x246 PUSH2 0x44B JUMP JUMPDEST STOP JUMPDEST PUSH2 0x246 PUSH2 0x256 CALLDATASIZE PUSH1 0x4 PUSH2 0xC3C JUMP JUMPDEST PUSH2 0x45F JUMP JUMPDEST PUSH2 0x223 PUSH2 0x269 CALLDATASIZE PUSH1 0x4 PUSH2 0xC23 JUMP JUMPDEST PUSH2 0x483 JUMP JUMPDEST PUSH1 0x0 SLOAD PUSH1 0x1 PUSH1 0x1 PUSH1 0xA0 SHL SUB AND PUSH2 0x1CF JUMP JUMPDEST PUSH2 0x140 PUSH2 0x28D CALLDATASIZE PUSH1 0x4 PUSH2 0xC3C JUMP JUMPDEST PUSH2 0x532 JUMP JUMPDEST PUSH2 0x246 PUSH2 0x2A0 CALLDATASIZE PUSH1 0x4 PUSH2 0xC68 JUMP JUMPDEST PUSH2 0x56D JUMP JUMPDEST PUSH2 0x246 PUSH2 0x2B3 CALLDATASIZE PUSH1 0x4 PUSH2 0xC3C JUMP JUMPDEST PUSH2 0x8F2 JUMP JUMPDEST PUSH2 0x2DB PUSH2 0x2C6 CALLDATASIZE PUSH1 0x4 PUSH2 0xC23 JUMP JUMPDEST PUSH1 0x4 PUSH1 0x20 MSTORE PUSH1 0x0 SWAP1 DUP2 MSTORE PUSH1 0x40 SWAP1 KECCAK256 SLOAD PUSH1 0xFF AND DUP2 JUMP JUMPDEST PUSH1 0x40 MLOAD SWAP1 ISZERO ISZERO DUP2 MSTORE PUSH1 0x20 ADD PUSH2 0x14A JUMP JUMPDEST PUSH1 0x1 SLOAD PUSH2 0x1CF SWAP1 PUSH1 0x1 PUSH1 0x1 PUSH1 0xA0 SHL SUB AND DUP2 JUMP JUMPDEST PUSH2 0x140 PUSH2 0x30C CALLDATASIZE PUSH1 0x4 PUSH2 0xBFF JUMP JUMPDEST PUSH1 0x2 PUSH1 0x20 MSTORE PUSH1 0x0 SWAP1 DUP2 MSTORE PUSH1 0x40 SWAP1 KECCAK256 SLOAD DUP2 JUMP JUMPDEST PUSH2 0x140 PUSH2 0x32C CALLDATASIZE PUSH1 0x4 PUSH2 0xC68 JUMP JUMPDEST PUSH2 0x916 JUMP JUMPDEST PUSH2 0x140 PUSH2 0x33F CALLDATASIZE PUSH1 0x4 PUSH2 0xBFF JUMP JUMPDEST PUSH1 0x3 PUSH1 0x20 MSTORE PUSH1 0x0 SWAP1 DUP2 MSTORE PUSH1 0x40 SWAP1 KECCAK256 SLOAD DUP2 JUMP JUMPDEST PUSH2 0x246 PUSH2 0x35F CALLDATASIZE PUSH1 0x4 PUSH2 0xBFF JUMP JUMPDEST PUSH2 0xA33 JUMP JUMPDEST PUSH2 0x246 PUSH2 0x372 CALLDATASIZE PUSH1 0x4 PUSH2 0xBFF JUMP JUMPDEST PUSH2 0xA71 JUMP JUMPDEST PUSH1 0x1 SLOAD PUSH1 0x0 SWAP1 PUSH1 0x1 PUSH1 0x1 PUSH1 0xA0 SHL SUB AND PUSH2 0x392 JUMPI POP PUSH1 0x0 SWAP2 SWAP1 POP JUMP JUMPDEST PUSH1 0x1 SLOAD PUSH1 0x40 MLOAD PUSH3 0xF53A47 PUSH1 0xE4 SHL DUP2 MSTORE PUSH1 0x1 PUSH1 0x1 PUSH1 0xA0 SHL SUB DUP5 DUP2 AND PUSH1 0x4 DUP4 ADD MSTORE SWAP1 SWAP2 AND SWAP1 PUSH4 0xF53A470 SWAP1 PUSH1 0x24 ADD PUSH1 0x0 PUSH1 0x40 MLOAD DUP1 DUP4 SUB DUP2 DUP7 GAS STATICCALL SWAP3 POP POP POP DUP1 ISZERO PUSH2 0x3FC JUMPI POP PUSH1 0x40 MLOAD RETURNDATASIZE PUSH1 0x0 DUP3 RETURNDATACOPY PUSH1 0x1F RETURNDATASIZE SWAP1 DUP2 ADD PUSH1 0x1F NOT AND DUP3 ADD PUSH1 0x40 MSTORE PUSH2 0x3F9 SWAP2 SWAP1 DUP2 ADD SWAP1 PUSH2 0xE18 JUMP JUMPDEST PUSH1 0x1 JUMPDEST PUSH2 0x408 JUMPI POP PUSH1 0x0 SWAP2 SWAP1 POP JUMP JUMPDEST POP SWAP1 SWAP6 SWAP5 POP POP POP POP POP JUMP JUMPDEST SWAP2 SWAP1 POP JUMP JUMPDEST PUSH1 0x6 DUP2 DUP2 SLOAD DUP2 LT PUSH2 0x428 JUMPI PUSH1 0x0 DUP1 REVERT JUMPDEST PUSH1 0x0 SWAP2 DUP3 MSTORE PUSH1 0x20 SWAP1 SWAP2 KECCAK256 PUSH1 0x3 SWAP1 SWAP2 MUL ADD DUP1 SLOAD PUSH1 0x1 DUP3 ADD SLOAD PUSH1 0x2 SWAP1 SWAP3 ADD SLOAD SWAP1 SWAP3 POP DUP4 JUMP JUMPDEST PUSH2 0x453 PUSH2 0xA9B JUMP JUMPDEST PUSH2 0x45D PUSH1 0x0 PUSH2 0xAC8 JUMP JUMPDEST JUMP JUMPDEST PUSH2 0x467 PUSH2 0xA9B JUMP JUMPDEST PUSH1 0x1 PUSH1 0x1 PUSH1 0xA0 SHL SUB SWAP1 SWAP2 AND PUSH1 0x0 SWAP1 DUP2 MSTORE PUSH1 0x3 PUSH1 0x20 MSTORE PUSH1 0x40 SWAP1 KECCAK256 SSTORE JUMP JUMPDEST PUSH1 0x0 DUP1 PUSH1 0x0 PUSH1 0x6 DUP1 SLOAD SWAP1 POP DUP5 LT PUSH2 0x4D6 JUMPI PUSH1 0x40 MLOAD PUSH3 0x461BCD PUSH1 0xE5 SHL DUP2 MSTORE PUSH1 0x20 PUSH1 0x4 DUP3 ADD MSTORE PUSH1 0x12 PUSH1 0x24 DUP3 ADD MSTORE PUSH18 0x92DCECC2D8D2C840C4C2DCC840D2DCC8CAF PUSH1 0x73 SHL PUSH1 0x44 DUP3 ADD MSTORE PUSH1 0x64 ADD JUMPDEST PUSH1 0x40 MLOAD DUP1 SWAP2 SUB SWAP1 REVERT JUMPDEST PUSH1 0x0 PUSH1 0x6 DUP6 DUP2 SLOAD DUP2 LT PUSH2 0x4EB JUMPI PUSH2 0x4EB PUSH2 0xEB2 JUMP JUMPDEST PUSH1 0x0 SWAP2 DUP3 MSTORE PUSH1 0x20 SWAP2 DUP3 SWAP1 KECCAK256 PUSH1 0x40 DUP1 MLOAD PUSH1 0x60 DUP2 ADD DUP3 MSTORE PUSH1 0x3 SWAP4 SWAP1 SWAP4 MUL SWAP1 SWAP2 ADD DUP1 SLOAD DUP1 DUP5 MSTORE PUSH1 0x1 DUP3 ADD SLOAD SWAP5 DUP5 ADD DUP6 SWAP1 MSTORE PUSH1 0x2 SWAP1 SWAP2 ADD SLOAD SWAP3 SWAP1 SWAP2 ADD DUP3 SWAP1 MSTORE SWAP8 SWAP2 SWAP7 POP SWAP5 POP SWAP3 POP POP POP JUMP JUMPDEST PUSH1 0x1 PUSH1 0x1 PUSH1 0xA0 SHL SUB DUP3 AND PUSH1 0x0 SWAP1 DUP2 MSTORE PUSH1 0x2 PUSH1 0x20 MSTORE PUSH1 0x40 DUP2 KECCAK256 SLOAD DUP2 PUSH2 0x556 DUP5 DUP4 PUSH2 0xEDE JUMP JUMPDEST SWAP1 POP PUSH2 0x562 DUP3 DUP3 PUSH2 0x916 JUMP JUMPDEST SWAP3 POP POP POP JUMPDEST SWAP3 SWAP2 POP POP JUMP JUMPDEST PUSH1 0x1 SLOAD PUSH1 0x1 PUSH1 0x1 PUSH1 0xA0 SHL SUB AND PUSH2 0x5BC JUMPI PUSH1 0x40 MLOAD PUSH3 0x461BCD PUSH1 0xE5 SHL DUP2 MSTORE PUSH1 0x20 PUSH1 0x4 DUP3 ADD MSTORE PUSH1 0x14 PUSH1 0x24 DUP3 ADD MSTORE PUSH20 0x129BD88818DBDB9D1C9858DD081B9BDD081CD95D PUSH1 0x62 SHL PUSH1 0x44 DUP3 ADD MSTORE PUSH1 0x64 ADD PUSH2 0x4CD JUMP JUMPDEST PUSH1 0x1 SLOAD PUSH1 0x1 PUSH1 0x1 PUSH1 0xA0 SHL SUB AND CALLER EQ PUSH2 0x616 JUMPI PUSH1 0x40 MLOAD PUSH3 0x461BCD PUSH1 0xE5 SHL DUP2 MSTORE PUSH1 0x20 PUSH1 0x4 DUP3 ADD MSTORE PUSH1 0x1F PUSH1 0x24 DUP3 ADD MSTORE PUSH32 0x4F6E6C79206A6F6220636F6E74726163742063616E2063616C6C207468697300 PUSH1 0x44 DUP3 ADD MSTORE PUSH1 0x64 ADD PUSH2 0x4CD JUMP JUMPDEST PUSH1 0x0 DUP2 GT PUSH2 0x671 JUMPI PUSH1 0x40 MLOAD PUSH3 0x461BCD PUSH1 0xE5 SHL DUP2 MSTORE PUSH1 0x20 PUSH1 0x4 DUP3 ADD MSTORE PUSH1 0x22 PUSH1 0x24 DUP3 ADD MSTORE PUSH32 0x5061696420616D6F756E74206D7573742062652067726561746572207468616E PUSH1 0x44 DUP3 ADD MSTORE PUSH2 0x203 PUSH1 0xF4 SHL PUSH1 0x64 DUP3 ADD MSTORE PUSH1 0x84 ADD PUSH2 0x4CD JUMP JUMPDEST PUSH1 0x1 SLOAD PUSH1 0x40 MLOAD PUSH4 0xBF22C457 PUSH1 0xE0 SHL DUP2 MSTORE PUSH1 0x4 DUP2 ADD DUP5 SWAP1 MSTORE PUSH1 0x0 SWAP2 DUP3 SWAP2 PUSH1 0x1 PUSH1 0x1 PUSH1 0xA0 SHL SUB SWAP1 SWAP2 AND SWAP1 PUSH4 0xBF22C457 SWAP1 PUSH1 0x24 ADD PUSH1 0x0 PUSH1 0x40 MLOAD DUP1 DUP4 SUB DUP2 DUP7 GAS STATICCALL ISZERO DUP1 ISZERO PUSH2 0x6BF JUMPI RETURNDATASIZE PUSH1 0x0 DUP1 RETURNDATACOPY RETURNDATASIZE PUSH1 0x0 REVERT JUMPDEST POP POP POP POP PUSH1 0x40 MLOAD RETURNDATASIZE PUSH1 0x0 DUP3 RETURNDATACOPY PUSH1 0x1F RETURNDATASIZE SWAP1 DUP2 ADD PUSH1 0x1F NOT AND DUP3 ADD PUSH1 0x40 MSTORE PUSH2 0x6E7 SWAP2 SWAP1 DUP2 ADD SWAP1 PUSH2 0xF68 JUMP JUMPDEST POP SWAP10 POP POP POP POP POP POP POP POP SWAP3 POP POP PUSH1 0x0 PUSH1 0x1 PUSH1 0x1 PUSH1 0xA0 SHL SUB AND DUP3 PUSH1 0x1 PUSH1 0x1 PUSH1 0xA0 SHL SUB AND SUB PUSH2 0x74A JUMPI PUSH1 0x40 MLOAD PUSH3 0x461BCD PUSH1 0xE5 SHL DUP2 MSTORE PUSH1 0x20 PUSH1 0x4 DUP3 ADD MSTORE PUSH1 0x11 PUSH1 0x24 DUP3 ADD MSTORE PUSH17 0x24B73B30B634B2103537B11033B4BB32B9 PUSH1 0x79 SHL PUSH1 0x44 DUP3 ADD MSTORE PUSH1 0x64 ADD PUSH2 0x4CD JUMP JUMPDEST PUSH1 0x1 PUSH1 0x1 PUSH1 0xA0 SHL SUB DUP2 AND PUSH2 0x798 JUMPI PUSH1 0x40 MLOAD PUSH3 0x461BCD PUSH1 0xE5 SHL DUP2 MSTORE PUSH1 0x20 PUSH1 0x4 DUP3 ADD MSTORE PUSH1 0x15 PUSH1 0x24 DUP3 ADD MSTORE PUSH21 0x139BC81CD95B1958DD195908185C1C1B1A58D85B9D PUSH1 0x5A SHL PUSH1 0x44 DUP3 ADD MSTORE PUSH1 0x64 ADD PUSH2 0x4CD JUMP JUMPDEST PUSH1 0x0 DUP5 DUP2 MSTORE PUSH1 0x5 PUSH1 0x20 MSTORE PUSH1 0x40 DUP2 KECCAK256 DUP1 SLOAD DUP6 SWAP3 SWAP1 PUSH2 0x7B6 SWAP1 DUP5 SWAP1 PUSH2 0xEDE JUMP JUMPDEST SWAP1 SWAP2 SSTORE POP PUSH1 0x0 SWAP1 POP PUSH2 0x7C7 DUP4 PUSH2 0x377 JUMP JUMPDEST SWAP1 POP PUSH1 0x0 PUSH2 0x7D4 DUP4 PUSH2 0x377 JUMP JUMPDEST SWAP1 POP PUSH1 0x0 PUSH2 0x7E2 DUP6 DUP8 PUSH2 0xB18 JUMP JUMPDEST SWAP1 POP PUSH1 0x0 PUSH2 0x7F0 DUP6 DUP9 PUSH2 0xB18 JUMP JUMPDEST SWAP1 POP PUSH1 0x1 PUSH1 0x1 PUSH1 0xA0 SHL SUB DUP5 AND ISZERO DUP1 ISZERO SWAP1 PUSH2 0x81C JUMPI POP DUP6 PUSH1 0x1 PUSH1 0x1 PUSH1 0xA0 SHL SUB AND DUP5 PUSH1 0x1 PUSH1 0x1 PUSH1 0xA0 SHL SUB AND EQ ISZERO JUMPDEST ISZERO PUSH2 0x837 JUMPI PUSH2 0x835 DUP5 PUSH2 0x830 PUSH1 0xA DUP11 PUSH2 0x107A JUMP JUMPDEST PUSH2 0xB18 JUMP JUMPDEST POP JUMPDEST PUSH1 0x1 PUSH1 0x1 PUSH1 0xA0 SHL SUB DUP4 AND ISZERO DUP1 ISZERO SWAP1 PUSH2 0x861 JUMPI POP DUP5 PUSH1 0x1 PUSH1 0x1 PUSH1 0xA0 SHL SUB AND DUP4 PUSH1 0x1 PUSH1 0x1 PUSH1 0xA0 SHL SUB AND EQ ISZERO JUMPDEST DUP1 ISZERO PUSH2 0x87F JUMPI POP DUP4 PUSH1 0x1 PUSH1 0x1 PUSH1 0xA0 SHL SUB AND DUP4 PUSH1 0x1 PUSH1 0x1 PUSH1 0xA0 SHL SUB AND EQ ISZERO JUMPDEST ISZERO PUSH2 0x895 JUMPI PUSH2 0x893 DUP4 PUSH2 0x830 PUSH1 0xA DUP11 PUSH2 0x107A JUMP JUMPDEST POP JUMPDEST PUSH1 0x40 DUP1 MLOAD DUP9 DUP2 MSTORE PUSH1 0x20 DUP2 ADD DUP5 SWAP1 MSTORE SWAP1 DUP2 ADD DUP3 SWAP1 MSTORE PUSH1 0x1 PUSH1 0x1 PUSH1 0xA0 SHL SUB DUP1 DUP8 AND SWAP2 SWAP1 DUP9 AND SWAP1 DUP11 SWAP1 PUSH32 0xF0507B68A744DB6F63183FB7E722285FB3CBF6F6AA13C12FF186432859E368E2 SWAP1 PUSH1 0x60 ADD PUSH1 0x40 MLOAD DUP1 SWAP2 SUB SWAP1 LOG4 POP POP POP POP POP POP POP POP JUMP JUMPDEST PUSH2 0x8FA PUSH2 0xA9B JUMP JUMPDEST PUSH1 0x1 PUSH1 0x1 PUSH1 0xA0 SHL SUB SWAP1 SWAP2 AND PUSH1 0x0 SWAP1 DUP2 MSTORE PUSH1 0x2 PUSH1 0x20 MSTORE PUSH1 0x40 SWAP1 KECCAK256 SSTORE JUMP JUMPDEST PUSH1 0x0 DUP2 DUP4 LT PUSH2 0x927 JUMPI POP PUSH1 0x0 PUSH2 0x567 JUMP JUMPDEST PUSH1 0x0 DUP4 DUP2 JUMPDEST PUSH1 0x6 SLOAD DUP2 LT DUP1 ISZERO PUSH2 0x93C JUMPI POP DUP5 DUP3 LT JUMPDEST ISZERO PUSH2 0xA29 JUMPI PUSH1 0x0 PUSH1 0x6 DUP3 DUP2 SLOAD DUP2 LT PUSH2 0x956 JUMPI PUSH2 0x956 PUSH2 0xEB2 JUMP JUMPDEST PUSH1 0x0 SWAP2 DUP3 MSTORE PUSH1 0x20 SWAP2 DUP3 SWAP1 KECCAK256 PUSH1 0x40 DUP1 MLOAD PUSH1 0x60 DUP2 ADD DUP3 MSTORE PUSH1 0x3 SWAP1 SWAP4 MUL SWAP1 SWAP2 ADD DUP1 SLOAD DUP4 MSTORE PUSH1 0x1 DUP2 ADD SLOAD SWAP4 DUP4 ADD DUP5 SWAP1 MSTORE PUSH1 0x2 ADD SLOAD SWAP1 DUP3 ADD MSTORE SWAP2 POP DUP4 LT PUSH2 0x998 JUMPI POP PUSH2 0xA17 JUMP JUMPDEST DUP1 MLOAD PUSH1 0x0 SWAP1 DUP5 GT PUSH2 0x9AA JUMPI DUP2 MLOAD PUSH2 0x9AC JUMP JUMPDEST DUP4 JUMPDEST SWAP1 POP PUSH1 0x0 DUP3 PUSH1 0x20 ADD MLOAD DUP9 LT PUSH2 0x9C5 JUMPI DUP3 PUSH1 0x20 ADD MLOAD PUSH2 0x9C7 JUMP JUMPDEST DUP8 JUMPDEST SWAP1 POP DUP1 DUP3 LT ISZERO PUSH2 0xA13 JUMPI PUSH1 0x0 PUSH2 0x9DD DUP4 DUP4 PUSH2 0x109C JUMP JUMPDEST SWAP1 POP PUSH1 0x0 PUSH3 0xF4240 DUP6 PUSH1 0x40 ADD MLOAD DUP4 PUSH2 0x9F5 SWAP2 SWAP1 PUSH2 0x10AF JUMP JUMPDEST PUSH2 0x9FF SWAP2 SWAP1 PUSH2 0x107A JUMP JUMPDEST SWAP1 POP PUSH2 0xA0B DUP2 DUP10 PUSH2 0xEDE JUMP JUMPDEST SWAP8 POP DUP3 SWAP7 POP POP POP JUMPDEST POP POP POP JUMPDEST DUP1 PUSH2 0xA21 DUP2 PUSH2 0x10C6 JUMP JUMPDEST SWAP2 POP POP PUSH2 0x92C JUMP JUMPDEST POP SWAP1 SWAP5 SWAP4 POP POP POP POP JUMP JUMPDEST PUSH2 0xA3B PUSH2 0xA9B JUMP JUMPDEST PUSH1 0x1 PUSH1 0x1 PUSH1 0xA0 SHL SUB DUP2 AND PUSH2 0xA65 JUMPI PUSH1 0x40 MLOAD PUSH4 0x1E4FBDF7 PUSH1 0xE0 SHL DUP2 MSTORE PUSH1 0x0 PUSH1 0x4 DUP3 ADD MSTORE PUSH1 0x24 ADD PUSH2 0x4CD JUMP JUMPDEST PUSH2 0xA6E DUP2 PUSH2 0xAC8 JUMP JUMPDEST POP JUMP JUMPDEST PUSH2 0xA79 PUSH2 0xA9B JUMP JUMPDEST PUSH1 0x1 DUP1 SLOAD PUSH1 0x1 PUSH1 0x1 PUSH1 0xA0 SHL SUB NOT AND PUSH1 0x1 PUSH1 0x1 PUSH1 0xA0 SHL SUB SWAP3 SWAP1 SWAP3 AND SWAP2 SWAP1 SWAP2 OR SWAP1 SSTORE JUMP JUMPDEST PUSH1 0x0 SLOAD PUSH1 0x1 PUSH1 0x1 PUSH1 0xA0 SHL SUB AND CALLER EQ PUSH2 0x45D JUMPI PUSH1 0x40 MLOAD PUSH4 0x118CDAA7 PUSH1 0xE0 SHL DUP2 MSTORE CALLER PUSH1 0x4 DUP3 ADD MSTORE PUSH1 0x24 ADD PUSH2 0x4CD JUMP JUMPDEST PUSH1 0x0 DUP1 SLOAD PUSH1 0x1 PUSH1 0x1 PUSH1 0xA0 SHL SUB DUP4 DUP2 AND PUSH1 0x1 PUSH1 0x1 PUSH1 0xA0 SHL SUB NOT DUP4 AND DUP2 OR DUP5 SSTORE PUSH1 0x40 MLOAD SWAP2 SWAP1 SWAP3 AND SWAP3 DUP4 SWAP2 PUSH32 0x8BE0079C531659141344CD1FD0A4F28419497F9722A3DAAFE3B4186F6B6457E0 SWAP2 SWAP1 LOG3 POP POP JUMP JUMPDEST PUSH1 0x1 PUSH1 0x1 PUSH1 0xA0 SHL SUB DUP3 AND PUSH1 0x0 SWAP1 DUP2 MSTORE PUSH1 0x2 PUSH1 0x20 MSTORE PUSH1 0x40 DUP2 KECCAK256 SLOAD DUP2 PUSH2 0xB3C DUP5 DUP4 PUSH2 0xEDE JUMP JUMPDEST SWAP1 POP PUSH1 0x0 PUSH2 0xB4A DUP4 DUP4 PUSH2 0x916 JUMP JUMPDEST PUSH1 0x1 PUSH1 0x1 PUSH1 0xA0 SHL SUB DUP8 AND PUSH1 0x0 SWAP1 DUP2 MSTORE PUSH1 0x2 PUSH1 0x20 SWAP1 DUP2 MSTORE PUSH1 0x40 DUP1 DUP4 KECCAK256 DUP7 SWAP1 SSTORE PUSH1 0x3 SWAP1 SWAP2 MSTORE DUP2 KECCAK256 DUP1 SLOAD SWAP3 SWAP4 POP DUP4 SWAP3 SWAP1 SWAP2 SWAP1 PUSH2 0xB84 SWAP1 DUP5 SWAP1 PUSH2 0xEDE JUMP JUMPDEST SWAP1 SWAP2 SSTORE POP POP PUSH1 0x1 PUSH1 0x1 PUSH1 0xA0 SHL SUB DUP7 AND PUSH1 0x0 DUP2 DUP2 MSTORE PUSH1 0x3 PUSH1 0x20 SWAP1 DUP2 MSTORE PUSH1 0x40 SWAP2 DUP3 SWAP1 KECCAK256 SLOAD DUP3 MLOAD DUP6 DUP2 MSTORE SWAP2 DUP3 ADD DUP7 SWAP1 MSTORE DUP2 DUP4 ADD MSTORE SWAP1 MLOAD PUSH32 0x53F3AD2FD40A9F84E221858C8242CE2E4A5F164C3A550D1E3A70E53123A402FA SWAP2 DUP2 SWAP1 SUB PUSH1 0x60 ADD SWAP1 LOG2 SWAP6 SWAP5 POP POP POP POP POP JUMP JUMPDEST PUSH1 0x1 PUSH1 0x1 PUSH1 0xA0 SHL SUB DUP2 AND DUP2 EQ PUSH2 0xA6E JUMPI PUSH1 0x0 DUP1 REVERT JUMPDEST PUSH1 0x0 PUSH1 0x20 DUP3 DUP5 SUB SLT ISZERO PUSH2 0xC11 JUMPI PUSH1 0x0 DUP1 REVERT JUMPDEST DUP2 CALLDATALOAD PUSH2 0xC1C DUP2 PUSH2 0xBEA JUMP JUMPDEST SWAP4 SWAP3 POP POP POP JUMP JUMPDEST PUSH1 0x0 PUSH1 0x20 DUP3 DUP5 SUB SLT ISZERO PUSH2 0xC35 JUMPI PUSH1 0x0 DUP1 REVERT JUMPDEST POP CALLDATALOAD SWAP2 SWAP1 POP JUMP JUMPDEST PUSH1 0x0 DUP1 PUSH1 0x40 DUP4 DUP6 SUB SLT ISZERO PUSH2 0xC4F JUMPI PUSH1 0x0 DUP1 REVERT JUMPDEST DUP3 CALLDATALOAD PUSH2 0xC5A DUP2 PUSH2 0xBEA JUMP JUMPDEST SWAP5 PUSH1 0x20 SWAP4 SWAP1 SWAP4 ADD CALLDATALOAD SWAP4 POP POP POP JUMP JUMPDEST PUSH1 0x0 DUP1 PUSH1 0x40 DUP4 DUP6 SUB SLT ISZERO PUSH2 0xC7B JUMPI PUSH1 0x0 DUP1 REVERT JUMPDEST POP POP DUP1 CALLDATALOAD SWAP3 PUSH1 0x20 SWAP1 SWAP2 ADD CALLDATALOAD SWAP2 POP JUMP JUMPDEST DUP1 MLOAD PUSH2 0x413 DUP2 PUSH2 0xBEA JUMP JUMPDEST PUSH4 0x4E487B71 PUSH1 0xE0 SHL PUSH1 0x0 MSTORE PUSH1 0x41 PUSH1 0x4 MSTORE PUSH1 0x24 PUSH1 0x0 REVERT JUMPDEST PUSH1 0x40 MLOAD PUSH1 0x1F DUP3 ADD PUSH1 0x1F NOT AND DUP2 ADD PUSH8 0xFFFFFFFFFFFFFFFF DUP2 GT DUP3 DUP3 LT OR ISZERO PUSH2 0xCD4 JUMPI PUSH2 0xCD4 PUSH2 0xC95 JUMP JUMPDEST PUSH1 0x40 MSTORE SWAP2 SWAP1 POP JUMP JUMPDEST PUSH1 0x0 DUP3 PUSH1 0x1F DUP4 ADD SLT PUSH2 0xCED JUMPI PUSH1 0x0 DUP1 REVERT JUMPDEST DUP2 MLOAD PUSH8 0xFFFFFFFFFFFFFFFF DUP2 GT ISZERO PUSH2 0xD07 JUMPI PUSH2 0xD07 PUSH2 0xC95 JUMP JUMPDEST PUSH2 0xD1A PUSH1 0x1F DUP3 ADD PUSH1 0x1F NOT AND PUSH1 0x20 ADD PUSH2 0xCAB JUMP JUMPDEST DUP2 DUP2 MSTORE DUP5 PUSH1 0x20 DUP4 DUP7 ADD ADD GT ISZERO PUSH2 0xD2F JUMPI PUSH1 0x0 DUP1 REVERT JUMPDEST PUSH1 0x0 JUMPDEST DUP3 DUP2 LT ISZERO PUSH2 0xD4E JUMPI PUSH1 0x20 DUP2 DUP7 ADD DUP2 ADD MLOAD DUP4 DUP4 ADD DUP3 ADD MSTORE ADD PUSH2 0xD32 JUMP JUMPDEST POP PUSH1 0x0 SWAP2 DUP2 ADD PUSH1 0x20 ADD SWAP2 SWAP1 SWAP2 MSTORE SWAP4 SWAP3 POP POP POP JUMP JUMPDEST PUSH1 0x0 PUSH8 0xFFFFFFFFFFFFFFFF DUP3 GT ISZERO PUSH2 0xD7C JUMPI PUSH2 0xD7C PUSH2 0xC95 JUMP JUMPDEST POP PUSH1 0x5 SHL PUSH1 0x20 ADD SWAP1 JUMP JUMPDEST PUSH1 0x0 DUP3 PUSH1 0x1F DUP4 ADD SLT PUSH2 0xD97 JUMPI PUSH1 0x0 DUP1 REVERT JUMPDEST DUP2 MLOAD PUSH2 0xDAA PUSH2 0xDA5 DUP3 PUSH2 0xD62 JUMP JUMPDEST PUSH2 0xCAB JUMP JUMPDEST DUP1 DUP3 DUP3 MSTORE PUSH1 0x20 DUP3 ADD SWAP2 POP PUSH1 0x20 DUP4 PUSH1 0x5 SHL DUP7 ADD ADD SWAP3 POP DUP6 DUP4 GT ISZERO PUSH2 0xDCC JUMPI PUSH1 0x0 DUP1 REVERT JUMPDEST PUSH1 0x20 DUP6 ADD JUMPDEST DUP4 DUP2 LT ISZERO PUSH2 0xE0E JUMPI DUP1 MLOAD PUSH8 0xFFFFFFFFFFFFFFFF DUP2 GT ISZERO PUSH2 0xDF0 JUMPI PUSH1 0x0 DUP1 REVERT JUMPDEST PUSH2 0xDFF DUP9 PUSH1 0x20 DUP4 DUP11 ADD ADD PUSH2 0xCDC JUMP JUMPDEST DUP5 MSTORE POP PUSH1 0x20 SWAP3 DUP4 ADD SWAP3 ADD PUSH2 0xDD1 JUMP JUMPDEST POP SWAP6 SWAP5 POP POP POP POP POP JUMP JUMPDEST PUSH1 0x0 DUP1 PUSH1 0x0 DUP1 PUSH1 0x0 PUSH1 0xA0 DUP7 DUP9 SUB SLT ISZERO PUSH2 0xE30 JUMPI PUSH1 0x0 DUP1 REVERT JUMPDEST DUP6 MLOAD PUSH2 0xE3B DUP2 PUSH2 0xBEA JUMP JUMPDEST PUSH1 0x20 DUP8 ADD MLOAD SWAP1 SWAP6 POP PUSH8 0xFFFFFFFFFFFFFFFF DUP2 GT ISZERO PUSH2 0xE58 JUMPI PUSH1 0x0 DUP1 REVERT JUMPDEST PUSH2 0xE64 DUP9 DUP3 DUP10 ADD PUSH2 0xCDC JUMP JUMPDEST SWAP5 POP POP PUSH1 0x40 DUP7 ADD MLOAD PUSH2 0xE75 DUP2 PUSH2 0xBEA JUMP JUMPDEST PUSH1 0x60 DUP8 ADD MLOAD PUSH1 0x80 DUP9 ADD MLOAD SWAP2 SWAP5 POP SWAP3 POP PUSH8 0xFFFFFFFFFFFFFFFF DUP2 GT ISZERO PUSH2 0xE99 JUMPI PUSH1 0x0 DUP1 REVERT JUMPDEST PUSH2 0xEA5 DUP9 DUP3 DUP10 ADD PUSH2 0xD86 JUMP JUMPDEST SWAP2 POP POP SWAP3 SWAP6 POP SWAP3 SWAP6 SWAP1 SWAP4 POP JUMP JUMPDEST PUSH4 0x4E487B71 PUSH1 0xE0 SHL PUSH1 0x0 MSTORE PUSH1 0x32 PUSH1 0x4 MSTORE PUSH1 0x24 PUSH1 0x0 REVERT JUMPDEST PUSH4 0x4E487B71 PUSH1 0xE0 SHL PUSH1 0x0 MSTORE PUSH1 0x11 PUSH1 0x4 MSTORE PUSH1 0x24 PUSH1 0x0 REVERT JUMPDEST DUP1 DUP3 ADD DUP1 DUP3 GT ISZERO PUSH2 0x567 JUMPI PUSH2 0x567 PUSH2 0xEC8 JUMP JUMPDEST PUSH1 0x0 DUP3 PUSH1 0x1F DUP4 ADD SLT PUSH2 0xF02 JUMPI PUSH1 0x0 DUP1 REVERT JUMPDEST DUP2 MLOAD PUSH2 0xF10 PUSH2 0xDA5 DUP3 PUSH2 0xD62 JUMP JUMPDEST DUP1 DUP3 DUP3 MSTORE PUSH1 0x20 DUP3 ADD SWAP2 POP PUSH1 0x20 DUP4 PUSH1 0x5 SHL DUP7 ADD ADD SWAP3 POP DUP6 DUP4 GT ISZERO PUSH2 0xF32 JUMPI PUSH1 0x0 DUP1 REVERT JUMPDEST PUSH1 0x20 DUP6 ADD JUMPDEST DUP4 DUP2 LT ISZERO PUSH2 0xE0E JUMPI DUP1 MLOAD PUSH2 0xF4A DUP2 PUSH2 0xBEA JUMP JUMPDEST DUP4 MSTORE PUSH1 0x20 SWAP3 DUP4 ADD SWAP3 ADD PUSH2 0xF37 JUMP JUMPDEST DUP1 MLOAD DUP1 ISZERO ISZERO DUP2 EQ PUSH2 0x413 JUMPI PUSH1 0x0 DUP1 REVERT JUMPDEST PUSH1 0x0 DUP1 PUSH1 0x0 DUP1 PUSH1 0x0 DUP1 PUSH1 0x0 DUP1 PUSH1 0x0 DUP1 PUSH1 0x0 PUSH2 0x160 DUP13 DUP15 SUB SLT ISZERO PUSH2 0xF8A JUMPI PUSH1 0x0 DUP1 REVERT JUMPDEST DUP12 MLOAD SWAP11 POP PUSH2 0xF9A PUSH1 0x20 DUP14 ADD PUSH2 0xC8A JUMP JUMPDEST SWAP10 POP PUSH1 0x40 DUP13 ADD MLOAD PUSH8 0xFFFFFFFFFFFFFFFF DUP2 GT ISZERO PUSH2 0xFB6 JUMPI PUSH1 0x0 DUP1 REVERT JUMPDEST PUSH2 0xFC2 DUP15 DUP3 DUP16 ADD PUSH2 0xEF1 JUMP JUMPDEST SWAP10 POP POP PUSH1 0x60 DUP13 ADD MLOAD PUSH8 0xFFFFFFFFFFFFFFFF DUP2 GT ISZERO PUSH2 0xFDF JUMPI PUSH1 0x0 DUP1 REVERT JUMPDEST PUSH2 0xFEB DUP15 DUP3 DUP16 ADD PUSH2 0xCDC JUMP JUMPDEST SWAP9 POP POP PUSH2 0xFFA PUSH1 0x80 DUP14 ADD PUSH2 0xF58 JUMP JUMPDEST SWAP7 POP PUSH1 0xA0 DUP13 ADD MLOAD PUSH8 0xFFFFFFFFFFFFFFFF DUP2 GT ISZERO PUSH2 0x1016 JUMPI PUSH1 0x0 DUP1 REVERT JUMPDEST PUSH2 0x1022 DUP15 DUP3 DUP16 ADD PUSH2 0xD86 JUMP JUMPDEST SWAP7 POP POP PUSH1 0x0 PUSH1 0xC0 DUP14 ADD MLOAD SWAP1 POP DUP1 SWAP6 POP POP PUSH1 0x0 PUSH1 0xE0 DUP14 ADD MLOAD SWAP1 POP DUP1 SWAP5 POP POP PUSH1 0x0 PUSH2 0x100 DUP14 ADD MLOAD SWAP1 POP DUP1 SWAP4 POP POP PUSH2 0x105A PUSH2 0x120 DUP14 ADD PUSH2 0xC8A JUMP JUMPDEST SWAP2 POP PUSH1 0x0 PUSH2 0x140 DUP14 ADD MLOAD SWAP1 POP DUP1 SWAP2 POP POP SWAP3 SWAP6 SWAP9 SWAP12 POP SWAP3 SWAP6 SWAP9 SWAP12 SWAP1 SWAP4 SWAP7 SWAP10 POP JUMP JUMPDEST PUSH1 0x0 DUP3 PUSH2 0x1097 JUMPI PUSH4 0x4E487B71 PUSH1 0xE0 SHL PUSH1 0x0 MSTORE PUSH1 0x12 PUSH1 0x4 MSTORE PUSH1 0x24 PUSH1 0x0 REVERT JUMPDEST POP DIV SWAP1 JUMP JUMPDEST DUP2 DUP2 SUB DUP2 DUP2 GT ISZERO PUSH2 0x567 JUMPI PUSH2 0x567 PUSH2 0xEC8 JUMP JUMPDEST DUP1 DUP3 MUL DUP2 ISZERO DUP3 DUP3 DIV DUP5 EQ OR PUSH2 0x567 JUMPI PUSH2 0x567 PUSH2 0xEC8 JUMP JUMPDEST PUSH1 0x0 PUSH1 0x1 DUP3 ADD PUSH2 0x10D8 JUMPI PUSH2 0x10D8 PUSH2 0xEC8 JUMP JUMPDEST POP PUSH1 0x1 ADD SWAP1 JUMP INVALID LOG2 PUSH5 0x6970667358 0x22 SLT KECCAK256 BYTE SWAP11 EXTCODEHASH REVERT SDIV LT 0x4D DUP2 0x4D TLOAD PUSH29 0x570533532EA96476E25541861A7AD5F5617B40CAC864736F6C63430008 SHR STOP CALLER "
		},
		"gasEstimates": {
			"creation": {
				"codeDepositCost": "874600",
				"executionCost": "infinite",
				"totalCost": "infinite"
			},
			"external": {
				"calculateTokensForAmount(address,uint256)": "infinite",
				"calculateTokensForRange(uint256,uint256)": "infinite",
				"getJobTotalPaid(uint256)": "2495",
				"getReferrer(address)": "infinite",
				"getRewardBand(uint256)": "11219",
				"getRewardBandsCount()": "2294",
				"getUserCumulativeEarnings(address)": "2566",
				"getUserTotalOWTokens(address)": "2543",
				"jobContract()": "2359",
				"jobProcessed(uint256)": "2561",
				"jobTotalPaid(uint256)": "2517",
				"owner()": "2354",
				"renounceOwnership()": "infinite",
				"rewardBands(uint256)": "8903",
				"setJobContract(address)": "26861",
				"transferOwnership(address)": "infinite",
				"updateRewards(uint256,uint256)": "infinite",
				"updateUserCumulativeEarnings(address,uint256)": "24763",
				"updateUserTotalOWTokens(address,uint256)": "24763",
				"userCumulativeEarnings(address)": "2546",
				"userTotalOWTokens(address)": "2590"
			},
			"internal": {
				"_initializeRewardBands()": "infinite",
				"calculateAndUpdateTokens(address,uint256)": "infinite"
			}
		},
		"methodIdentifiers": {
			"calculateTokensForAmount(address,uint256)": "94928b84",
			"calculateTokensForRange(uint256,uint256)": "ba69e410",
			"getJobTotalPaid(uint256)": "272e5a52",
			"getReferrer(address)": "4a9fefc7",
			"getRewardBand(uint256)": "81d920ec",
			"getRewardBandsCount()": "22834ddb",
			"getUserCumulativeEarnings(address)": "2330ce70",
			"getUserTotalOWTokens(address)": "5183d667",
			"jobContract()": "afd86a76",
			"jobProcessed(uint256)": "ac16ba1d",
			"jobTotalPaid(uint256)": "2ebd9978",
			"owner()": "8da5cb5b",
			"renounceOwnership()": "715018a6",
			"rewardBands(uint256)": "6a55b7ca",
			"setJobContract(address)": "fad58b21",
			"transferOwnership(address)": "f2fde38b",
			"updateRewards(uint256,uint256)": "97e50818",
			"updateUserCumulativeEarnings(address,uint256)": "9bd8bd9e",
			"updateUserTotalOWTokens(address,uint256)": "7e1fdbe8",
			"userCumulativeEarnings(address)": "b014dc11",
			"userTotalOWTokens(address)": "f10f9a69"
		}
	},
	"abi": [
		{
			"inputs": [
				{
					"internalType": "address",
					"name": "_owner",
					"type": "address"
				}
			],
			"stateMutability": "nonpayable",
			"type": "constructor"
		},
		{
			"inputs": [
				{
					"internalType": "address",
					"name": "owner",
					"type": "address"
				}
			],
			"name": "OwnableInvalidOwner",
			"type": "error"
		},
		{
			"inputs": [
				{
					"internalType": "address",
					"name": "account",
					"type": "address"
				}
			],
			"name": "OwnableUnauthorizedAccount",
			"type": "error"
		},
		{
			"anonymous": false,
			"inputs": [
				{
					"indexed": true,
					"internalType": "address",
					"name": "previousOwner",
					"type": "address"
				},
				{
					"indexed": true,
					"internalType": "address",
					"name": "newOwner",
					"type": "address"
				}
			],
			"name": "OwnershipTransferred",
			"type": "event"
		},
		{
			"anonymous": false,
			"inputs": [
				{
					"indexed": true,
					"internalType": "uint256",
					"name": "jobId",
					"type": "uint256"
				},
				{
					"indexed": false,
					"internalType": "uint256",
					"name": "paidAmountUSDT",
					"type": "uint256"
				},
				{
					"indexed": true,
					"internalType": "address",
					"name": "jobGiver",
					"type": "address"
				},
				{
					"indexed": true,
					"internalType": "address",
					"name": "jobTaker",
					"type": "address"
				},
				{
					"indexed": false,
					"internalType": "uint256",
					"name": "jobGiverTokens",
					"type": "uint256"
				},
				{
					"indexed": false,
					"internalType": "uint256",
					"name": "jobTakerTokens",
					"type": "uint256"
				}
			],
			"name": "RewardsUpdated",
			"type": "event"
		},
		{
			"anonymous": false,
			"inputs": [
				{
					"indexed": true,
					"internalType": "address",
					"name": "user",
					"type": "address"
				},
				{
					"indexed": false,
					"internalType": "uint256",
					"name": "tokensEarned",
					"type": "uint256"
				},
				{
					"indexed": false,
					"internalType": "uint256",
					"name": "newCumulativeEarnings",
					"type": "uint256"
				},
				{
					"indexed": false,
					"internalType": "uint256",
					"name": "newTotalTokens",
					"type": "uint256"
				}
			],
			"name": "TokensEarned",
			"type": "event"
		},
		{
			"inputs": [
				{
					"internalType": "address",
					"name": "user",
					"type": "address"
				},
				{
					"internalType": "uint256",
					"name": "additionalAmount",
					"type": "uint256"
				}
			],
			"name": "calculateTokensForAmount",
			"outputs": [
				{
					"internalType": "uint256",
					"name": "",
					"type": "uint256"
				}
			],
			"stateMutability": "view",
			"type": "function"
		},
		{
			"inputs": [
				{
					"internalType": "uint256",
					"name": "fromAmount",
					"type": "uint256"
				},
				{
					"internalType": "uint256",
					"name": "toAmount",
					"type": "uint256"
				}
			],
			"name": "calculateTokensForRange",
			"outputs": [
				{
					"internalType": "uint256",
					"name": "",
					"type": "uint256"
				}
			],
			"stateMutability": "view",
			"type": "function"
		},
		{
			"inputs": [
				{
					"internalType": "uint256",
					"name": "jobId",
					"type": "uint256"
				}
			],
			"name": "getJobTotalPaid",
			"outputs": [
				{
					"internalType": "uint256",
					"name": "",
					"type": "uint256"
				}
			],
			"stateMutability": "view",
			"type": "function"
		},
		{
			"inputs": [
				{
					"internalType": "address",
					"name": "user",
					"type": "address"
				}
			],
			"name": "getReferrer",
			"outputs": [
				{
					"internalType": "address",
					"name": "",
					"type": "address"
				}
			],
			"stateMutability": "view",
			"type": "function"
		},
		{
			"inputs": [
				{
					"internalType": "uint256",
					"name": "index",
					"type": "uint256"
				}
			],
			"name": "getRewardBand",
			"outputs": [
				{
					"internalType": "uint256",
					"name": "minAmount",
					"type": "uint256"
				},
				{
					"internalType": "uint256",
					"name": "maxAmount",
					"type": "uint256"
				},
				{
					"internalType": "uint256",
					"name": "owPerDollar",
					"type": "uint256"
				}
			],
			"stateMutability": "view",
			"type": "function"
		},
		{
			"inputs": [],
			"name": "getRewardBandsCount",
			"outputs": [
				{
					"internalType": "uint256",
					"name": "",
					"type": "uint256"
				}
			],
			"stateMutability": "view",
			"type": "function"
		},
		{
			"inputs": [
				{
					"internalType": "address",
					"name": "user",
					"type": "address"
				}
			],
			"name": "getUserCumulativeEarnings",
			"outputs": [
				{
					"internalType": "uint256",
					"name": "",
					"type": "uint256"
				}
			],
			"stateMutability": "view",
			"type": "function"
		},
		{
			"inputs": [
				{
					"internalType": "address",
					"name": "user",
					"type": "address"
				}
			],
			"name": "getUserTotalOWTokens",
			"outputs": [
				{
					"internalType": "uint256",
					"name": "",
					"type": "uint256"
				}
			],
			"stateMutability": "view",
			"type": "function"
		},
		{
			"inputs": [],
			"name": "jobContract",
			"outputs": [
				{
					"internalType": "contract IJobContract",
					"name": "",
					"type": "address"
				}
			],
			"stateMutability": "view",
			"type": "function"
		},
		{
			"inputs": [
				{
					"internalType": "uint256",
					"name": "",
					"type": "uint256"
				}
			],
			"name": "jobProcessed",
			"outputs": [
				{
					"internalType": "bool",
					"name": "",
					"type": "bool"
				}
			],
			"stateMutability": "view",
			"type": "function"
		},
		{
			"inputs": [
				{
					"internalType": "uint256",
					"name": "",
					"type": "uint256"
				}
			],
			"name": "jobTotalPaid",
			"outputs": [
				{
					"internalType": "uint256",
					"name": "",
					"type": "uint256"
				}
			],
			"stateMutability": "view",
			"type": "function"
		},
		{
			"inputs": [],
			"name": "owner",
			"outputs": [
				{
					"internalType": "address",
					"name": "",
					"type": "address"
				}
			],
			"stateMutability": "view",
			"type": "function"
		},
		{
			"inputs": [],
			"name": "renounceOwnership",
			"outputs": [],
			"stateMutability": "nonpayable",
			"type": "function"
		},
		{
			"inputs": [
				{
					"internalType": "uint256",
					"name": "",
					"type": "uint256"
				}
			],
			"name": "rewardBands",
			"outputs": [
				{
					"internalType": "uint256",
					"name": "minAmount",
					"type": "uint256"
				},
				{
					"internalType": "uint256",
					"name": "maxAmount",
					"type": "uint256"
				},
				{
					"internalType": "uint256",
					"name": "owPerDollar",
					"type": "uint256"
				}
			],
			"stateMutability": "view",
			"type": "function"
		},
		{
			"inputs": [
				{
					"internalType": "address",
					"name": "_jobContract",
					"type": "address"
				}
			],
			"name": "setJobContract",
			"outputs": [],
			"stateMutability": "nonpayable",
			"type": "function"
		},
		{
			"inputs": [
				{
					"internalType": "address",
					"name": "newOwner",
					"type": "address"
				}
			],
			"name": "transferOwnership",
			"outputs": [],
			"stateMutability": "nonpayable",
			"type": "function"
		},
		{
			"inputs": [
				{
					"internalType": "uint256",
					"name": "jobId",
					"type": "uint256"
				},
				{
					"internalType": "uint256",
					"name": "paidAmountUSDT",
					"type": "uint256"
				}
			],
			"name": "updateRewards",
			"outputs": [],
			"stateMutability": "nonpayable",
			"type": "function"
		},
		{
			"inputs": [
				{
					"internalType": "address",
					"name": "user",
					"type": "address"
				},
				{
					"internalType": "uint256",
					"name": "newAmount",
					"type": "uint256"
				}
			],
			"name": "updateUserCumulativeEarnings",
			"outputs": [],
			"stateMutability": "nonpayable",
			"type": "function"
		},
		{
			"inputs": [
				{
					"internalType": "address",
					"name": "user",
					"type": "address"
				},
				{
					"internalType": "uint256",
					"name": "newAmount",
					"type": "uint256"
				}
			],
			"name": "updateUserTotalOWTokens",
			"outputs": [],
			"stateMutability": "nonpayable",
			"type": "function"
		},
		{
			"inputs": [
				{
					"internalType": "address",
					"name": "",
					"type": "address"
				}
			],
			"name": "userCumulativeEarnings",
			"outputs": [
				{
					"internalType": "uint256",
					"name": "",
					"type": "uint256"
				}
			],
			"stateMutability": "view",
			"type": "function"
		},
		{
			"inputs": [
				{
					"internalType": "address",
					"name": "",
					"type": "address"
				}
			],
			"name": "userTotalOWTokens",
			"outputs": [
				{
					"internalType": "uint256",
					"name": "",
					"type": "uint256"
				}
			],
			"stateMutability": "view",
			"type": "function"
		}
	]
}