{
	"data": {
		"bytecode": {
			"linkReferences": {},
			"object": "608060405234801561001057600080fd5b5060405161187038038061187083398101604081905261002f916106fb565b806001600160a01b03811661005e57604051631e4fbdf760e01b81526000600482015260240160405180910390fd5b610067816106ab565b506106a560408051606080820183526000808352631dcd6500602080850182815269152d02c7e14af68000008688019081526006805460018181018355828852985160039182027ff652222313e28459528d920b65115c16c04f3efc82aaedc97be59f3f377c0d3f8181019290925594517ff652222313e28459528d920b65115c16c04f3efc82aaedc97be59f3f377c0d408087019190915593517ff652222313e28459528d920b65115c16c04f3efc82aaedc97be59f3f377c0d41958601558a51808a018c52968752633b9aca00878701818152690a968163f0a57b400000898e019081528554808e018755868c5299519985028085019a909a5590518987015551978601979097558a51808a018c52968752637735940087870181815269054b40b1f852bda00000898e019081528554808e018755868c5299519985028085019a909a5590518987015551978601979097558a51808a018c5296875263ee6b28008787018181526902a5a058fc295ed00000898e019081528554808e018755868c5299519985028085019a909a5590518987015551978601979097558a51808a018c529687526401dcd65000878701818152690152d02c7e14af680000898e019081528554808e018755868c5299519985028085019a909a5590518987015551978601979097558a51808a018c529687526403b9aca00087870181815268a968163f0a57b40000898e019081528554808e018755868c5299519985028085019a909a5590518987015551978601979097558a51808a018c529687526407735940008787018181526854ad1ac42b58280000898e019081528554808e018755868c5299519985028085019a909a5590518987015551978601979097558a51808a018c52968752640ee6b28000878701818152682a568d6215ac140000898e019081528554808e018755868c5299519985028085019a909a5590518987015551978601979097558a51808a018c52968752641dcd650000878701818152681532370c64a9bc0000898e019081528554808e018755868c5299519985028085019a909a5590518987015551978601979097558a51808a018c52968752643b9aca0000878701818152680a922b2ad8812c0000898e019081528554808e018755868c5299519985028085019a909a5590518987015551978601979097558a51808a018c5296875264773594000087870181815268055005f0c614480000898e019081528554808e018755868c5299519985028085019a909a5590518987015551978601979097558a51808a018c5296875264ee6b2800008787018181526802a802f8630a240000898e019081528554808e018755868c5299519985028085019a909a5590518987015551978601979097558a51808a018c529687526501dcd650000087870181815268014d1120d7b1600000898e019081528554808e018755868c5299519985028085019a909a5590518987015551978601979097558a51808a018c529687526503b9aca0000087870181815267a688906bd8b00000898e019081528554808e018755868c5299519985028085019a909a5590518987015551978601979097558a51808a018c52968752650773594000008787018181526753444835ec580000898e019081528554808e018755868c5299519985028085019a909a5590518987015551978601979097558a51808a018c52968752650ee6b28000008787018181526729a2241af62c0000898e019081528554808e018755868c5299519985028085019a909a5590518987015551978601979097558a51808a018c52968752651dcd650000008787018181526714d1120d7b160000898e019081528554808e018755868c5299519985028085019a909a5590518987015551978601979097558a51808a018c52968752653b9aca000000878701818152670a688906bd8b0000898e019081528554808e018755868c5299519985028085019a909a5590518987015551978601979097558a51808a018c529687526577359400000087870181815267054607fc96a60000898e019081528554808e018755868c5299519985028085019a909a5590518987015551978601979097558a519889018b529588526000199488019485526702a303fe4b530000998801998a52815498890182559552945195909302918201949094559251918301919091559151910155565b5061072b565b600080546001600160a01b038381166001600160a01b0319831681178455604051919092169283917f8be0079c531659141344cd1fd0a4f28419497f9722a3daafe3b4186f6b6457e09190a35050565b60006020828403121561070d57600080fd5b81516001600160a01b038116811461072457600080fd5b9392505050565b6111368061073a6000396000f3fe608060405234801561001057600080fd5b50600436106101475760003560e01c80638da5cb5b116100c8578063afd86a761161008c578063f10f9a6911610066578063f10f9a6914610341578063f2fde38b14610361578063fad58b211461037457600080fd5b8063afd86a76146102fb578063b014dc111461030e578063ba69e4101461032e57600080fd5b80638da5cb5b1461027e57806394928b841461028f57806397e50818146102a25780639bd8bd9e146102b5578063ac16ba1d146102c857600080fd5b80635183d6671161010f5780635183d667146101f75780636a55b7ca14610220578063715018a61461024e5780637e1fdbe81461025857806381d920ec1461026b57600080fd5b806322834ddb1461014c5780632330ce7014610163578063272e5a521461018c5780632ebd9978146101ac5780634a9fefc7146101cc575b600080fd5b6006545b6040519081526020015b60405180910390f35b610150610171366004610c20565b6001600160a01b031660009081526002602052604090205490565b61015061019a366004610c44565b60009081526005602052604090205490565b6101506101ba366004610c44565b60056020526000908152604090205481565b6101df6101da366004610c20565b610387565b6040516001600160a01b03909116815260200161015a565b610150610205366004610c20565b6001600160a01b031660009081526003602052604090205490565b61023361022e366004610c44565b610428565b6040805193845260208401929092529082015260600161015a565b61025661045b565b005b610256610266366004610c5d565b61046f565b610233610279366004610c44565b610493565b6000546001600160a01b03166101df565b61015061029d366004610c5d565b610542565b6102566102b0366004610c89565b61057d565b6102566102c3366004610c5d565b610913565b6102eb6102d6366004610c44565b60046020526000908152604090205460ff1681565b604051901515815260200161015a565b6001546101df906001600160a01b031681565b61015061031c366004610c20565b60026020526000908152604090205481565b61015061033c366004610c89565b610937565b61015061034f366004610c20565b60036020526000908152604090205481565b61025661036f366004610c20565b610a54565b610256610382366004610c20565b610a92565b6001546000906001600160a01b03166103a257506000919050565b60015460405162f53a4760e41b81526001600160a01b03848116600483015290911690630f53a47090602401600060405180830381865afa92505050801561040c57506040513d6000823e601f3d908101601f191682016040526104099190810190610e39565b60015b61041857506000919050565b509095945050505050565b919050565b6006818154811061043857600080fd5b600091825260209091206003909102018054600182015460029092015490925083565b610463610abc565b61046d6000610ae9565b565b610477610abc565b6001600160a01b03909116600090815260036020526040902055565b600080600060068054905084106104e65760405162461bcd60e51b8152602060048201526012602482015271092dcecc2d8d2c840c4c2dcc840d2dcc8caf60731b60448201526064015b60405180910390fd5b6000600685815481106104fb576104fb610ed3565b600091825260209182902060408051606081018252600393909302909101805480845260018201549484018590526002909101549290910182905297919650945092505050565b6001600160a01b038216600090815260026020526040812054816105668483610eff565b90506105728282610937565b925050505b92915050565b6001546001600160a01b03166105d55760405162461bcd60e51b815260206004820152601460248201527f4a6f6220636f6e7472616374206e6f742073657400000000000000000000000060448201526064016104dd565b6001546001600160a01b0316331461062f5760405162461bcd60e51b815260206004820152601f60248201527f4f6e6c79206a6f6220636f6e74726163742063616e2063616c6c20746869730060448201526064016104dd565b6000811161068a5760405162461bcd60e51b815260206004820152602260248201527f5061696420616d6f756e74206d7573742062652067726561746572207468616e604482015261020360f41b60648201526084016104dd565b60015460405163bf22c45760e01b81526004810184905260009182916001600160a01b039091169063bf22c45790602401600060405180830381865afa1580156106d8573d6000803e3d6000fd5b505050506040513d6000823e601f3d908101601f191682016040526107009190810190610f89565b5099505050505050505092505060006001600160a01b0316826001600160a01b0316036107635760405162461bcd60e51b815260206004820152601160248201527024b73b30b634b2103537b11033b4bb32b960791b60448201526064016104dd565b6001600160a01b0381166107b95760405162461bcd60e51b815260206004820152601560248201527f4e6f2073656c6563746564206170706c6963616e74000000000000000000000060448201526064016104dd565b600084815260056020526040812080548592906107d7908490610eff565b90915550600090506107e883610387565b905060006107f583610387565b905060006108038587610b39565b905060006108118588610b39565b90506001600160a01b0384161580159061083d5750856001600160a01b0316846001600160a01b031614155b156108585761085684610851600a8a61109b565b610b39565b505b6001600160a01b038316158015906108825750846001600160a01b0316836001600160a01b031614155b80156108a05750836001600160a01b0316836001600160a01b031614155b156108b6576108b483610851600a8a61109b565b505b60408051888152602081018490529081018290526001600160a01b0380871691908816908a907ff0507b68a744db6f63183fb7e722285fb3cbf6f6aa13c12ff186432859e368e29060600160405180910390a45050505050505050565b61091b610abc565b6001600160a01b03909116600090815260026020526040902055565b600081831061094857506000610577565b600083815b6006548110801561095d57508482105b15610a4a5760006006828154811061097757610977610ed3565b60009182526020918290206040805160608101825260039093029091018054835260018101549383018490526002015490820152915083106109b95750610a38565b805160009084116109cb5781516109cd565b835b90506000826020015188106109e65782602001516109e8565b875b905080821015610a345760006109fe83836110bd565b90506000620f4240856040015183610a1691906110d0565b610a20919061109b565b9050610a2c8189610eff565b975082965050505b5050505b80610a42816110e7565b91505061094d565b5090949350505050565b610a5c610abc565b6001600160a01b038116610a8657604051631e4fbdf760e01b8152600060048201526024016104dd565b610a8f81610ae9565b50565b610a9a610abc565b600180546001600160a01b0319166001600160a01b0392909216919091179055565b6000546001600160a01b0316331461046d5760405163118cdaa760e01b81523360048201526024016104dd565b600080546001600160a01b038381166001600160a01b0319831681178455604051919092169283917f8be0079c531659141344cd1fd0a4f28419497f9722a3daafe3b4186f6b6457e09190a35050565b6001600160a01b03821660009081526002602052604081205481610b5d8483610eff565b90506000610b6b8383610937565b6001600160a01b03871660009081526002602090815260408083208690556003909152812080549293508392909190610ba5908490610eff565b90915550506001600160a01b0386166000818152600360209081526040918290205482518581529182018690528183015290517f53f3ad2fd40a9f84e221858c8242ce2e4a5f164c3a550d1e3a70e53123a402fa9181900360600190a295945050505050565b6001600160a01b0381168114610a8f57600080fd5b600060208284031215610c3257600080fd5b8135610c3d81610c0b565b9392505050565b600060208284031215610c5657600080fd5b5035919050565b60008060408385031215610c7057600080fd5b8235610c7b81610c0b565b946020939093013593505050565b60008060408385031215610c9c57600080fd5b50508035926020909101359150565b805161042381610c0b565b634e487b7160e01b600052604160045260246000fd5b604051601f8201601f1916810167ffffffffffffffff81118282101715610cf557610cf5610cb6565b604052919050565b600082601f830112610d0e57600080fd5b815167ffffffffffffffff811115610d2857610d28610cb6565b610d3b601f8201601f1916602001610ccc565b818152846020838601011115610d5057600080fd5b60005b82811015610d6f57602081860181015183830182015201610d53565b506000918101602001919091529392505050565b600067ffffffffffffffff821115610d9d57610d9d610cb6565b5060051b60200190565b600082601f830112610db857600080fd5b8151610dcb610dc682610d83565b610ccc565b8082825260208201915060208360051b860101925085831115610ded57600080fd5b602085015b83811015610e2f57805167ffffffffffffffff811115610e1157600080fd5b610e20886020838a0101610cfd565b84525060209283019201610df2565b5095945050505050565b600080600080600060a08688031215610e5157600080fd5b8551610e5c81610c0b565b602087015190955067ffffffffffffffff811115610e7957600080fd5b610e8588828901610cfd565b9450506040860151610e9681610c0b565b60608701516080880151919450925067ffffffffffffffff811115610eba57600080fd5b610ec688828901610da7565b9150509295509295909350565b634e487b7160e01b600052603260045260246000fd5b634e487b7160e01b600052601160045260246000fd5b8082018082111561057757610577610ee9565b600082601f830112610f2357600080fd5b8151610f31610dc682610d83565b8082825260208201915060208360051b860101925085831115610f5357600080fd5b602085015b83811015610e2f578051610f6b81610c0b565b835260209283019201610f58565b8051801515811461042357600080fd5b60008060008060008060008060008060006101608c8e031215610fab57600080fd5b8b519a50610fbb60208d01610cab565b995060408c015167ffffffffffffffff811115610fd757600080fd5b610fe38e828f01610f12565b99505060608c015167ffffffffffffffff81111561100057600080fd5b61100c8e828f01610cfd565b98505061101b60808d01610f79565b965060a08c015167ffffffffffffffff81111561103757600080fd5b6110438e828f01610da7565b965050600060c08d0151905080955050600060e08d015190508094505060006101008d015190508093505061107b6101208d01610cab565b915060006101408d01519050809150509295989b509295989b9093969950565b6000826110b857634e487b7160e01b600052601260045260246000fd5b500490565b8181038181111561057757610577610ee9565b808202811582820484141761057757610577610ee9565b6000600182016110f9576110f9610ee9565b506001019056fea2646970667358221220cfe9fc1fb88db6d60d2613874cbcdd86750ddafa9300ee6dd66013e5a3dbb31764736f6c634300081c0033",
			"opcodes": "PUSH1 0x80 PUSH1 0x40 MSTORE CALLVALUE DUP1 ISZERO PUSH2 0x10 JUMPI PUSH1 0x0 DUP1 REVERT JUMPDEST POP PUSH1 0x40 MLOAD PUSH2 0x1870 CODESIZE SUB DUP1 PUSH2 0x1870 DUP4 CODECOPY DUP2 ADD PUSH1 0x40 DUP2 SWAP1 MSTORE PUSH2 0x2F SWAP2 PUSH2 0x6FB JUMP JUMPDEST DUP1 PUSH1 0x1 PUSH1 0x1 PUSH1 0xA0 SHL SUB DUP2 AND PUSH2 0x5E JUMPI PUSH1 0x40 MLOAD PUSH4 0x1E4FBDF7 PUSH1 0xE0 SHL DUP2 MSTORE PUSH1 0x0 PUSH1 0x4 DUP3 ADD MSTORE PUSH1 0x24 ADD PUSH1 0x40 MLOAD DUP1 SWAP2 SUB SWAP1 REVERT JUMPDEST PUSH2 0x67 DUP2 PUSH2 0x6AB JUMP JUMPDEST POP PUSH2 0x6A5 PUSH1 0x40 DUP1 MLOAD PUSH1 0x60 DUP1 DUP3 ADD DUP4 MSTORE PUSH1 0x0 DUP1 DUP4 MSTORE PUSH4 0x1DCD6500 PUSH1 0x20 DUP1 DUP6 ADD DUP3 DUP2 MSTORE PUSH10 0x152D02C7E14AF6800000 DUP7 DUP9 ADD SWAP1 DUP2 MSTORE PUSH1 0x6 DUP1 SLOAD PUSH1 0x1 DUP2 DUP2 ADD DUP4 SSTORE DUP3 DUP9 MSTORE SWAP9 MLOAD PUSH1 0x3 SWAP2 DUP3 MUL PUSH32 0xF652222313E28459528D920B65115C16C04F3EFC82AAEDC97BE59F3F377C0D3F DUP2 DUP2 ADD SWAP3 SWAP1 SWAP3 SSTORE SWAP5 MLOAD PUSH32 0xF652222313E28459528D920B65115C16C04F3EFC82AAEDC97BE59F3F377C0D40 DUP1 DUP8 ADD SWAP2 SWAP1 SWAP2 SSTORE SWAP4 MLOAD PUSH32 0xF652222313E28459528D920B65115C16C04F3EFC82AAEDC97BE59F3F377C0D41 SWAP6 DUP7 ADD SSTORE DUP11 MLOAD DUP1 DUP11 ADD DUP13 MSTORE SWAP7 DUP8 MSTORE PUSH4 0x3B9ACA00 DUP8 DUP8 ADD DUP2 DUP2 MSTORE PUSH10 0xA968163F0A57B400000 DUP10 DUP15 ADD SWAP1 DUP2 MSTORE DUP6 SLOAD DUP1 DUP15 ADD DUP8 SSTORE DUP7 DUP13 MSTORE SWAP10 MLOAD SWAP10 DUP6 MUL DUP1 DUP6 ADD SWAP11 SWAP1 SWAP11 SSTORE SWAP1 MLOAD DUP10 DUP8 ADD SSTORE MLOAD SWAP8 DUP7 ADD SWAP8 SWAP1 SWAP8 SSTORE DUP11 MLOAD DUP1 DUP11 ADD DUP13 MSTORE SWAP7 DUP8 MSTORE PUSH4 0x77359400 DUP8 DUP8 ADD DUP2 DUP2 MSTORE PUSH10 0x54B40B1F852BDA00000 DUP10 DUP15 ADD SWAP1 DUP2 MSTORE DUP6 SLOAD DUP1 DUP15 ADD DUP8 SSTORE DUP7 DUP13 MSTORE SWAP10 MLOAD SWAP10 DUP6 MUL DUP1 DUP6 ADD SWAP11 SWAP1 SWAP11 SSTORE SWAP1 MLOAD DUP10 DUP8 ADD SSTORE MLOAD SWAP8 DUP7 ADD SWAP8 SWAP1 SWAP8 SSTORE DUP11 MLOAD DUP1 DUP11 ADD DUP13 MSTORE SWAP7 DUP8 MSTORE PUSH4 0xEE6B2800 DUP8 DUP8 ADD DUP2 DUP2 MSTORE PUSH10 0x2A5A058FC295ED00000 DUP10 DUP15 ADD SWAP1 DUP2 MSTORE DUP6 SLOAD DUP1 DUP15 ADD DUP8 SSTORE DUP7 DUP13 MSTORE SWAP10 MLOAD SWAP10 DUP6 MUL DUP1 DUP6 ADD SWAP11 SWAP1 SWAP11 SSTORE SWAP1 MLOAD DUP10 DUP8 ADD SSTORE MLOAD SWAP8 DUP7 ADD SWAP8 SWAP1 SWAP8 SSTORE DUP11 MLOAD DUP1 DUP11 ADD DUP13 MSTORE SWAP7 DUP8 MSTORE PUSH5 0x1DCD65000 DUP8 DUP8 ADD DUP2 DUP2 MSTORE PUSH10 0x152D02C7E14AF680000 DUP10 DUP15 ADD SWAP1 DUP2 MSTORE DUP6 SLOAD DUP1 DUP15 ADD DUP8 SSTORE DUP7 DUP13 MSTORE SWAP10 MLOAD SWAP10 DUP6 MUL DUP1 DUP6 ADD SWAP11 SWAP1 SWAP11 SSTORE SWAP1 MLOAD DUP10 DUP8 ADD SSTORE MLOAD SWAP8 DUP7 ADD SWAP8 SWAP1 SWAP8 SSTORE DUP11 MLOAD DUP1 DUP11 ADD DUP13 MSTORE SWAP7 DUP8 MSTORE PUSH5 0x3B9ACA000 DUP8 DUP8 ADD DUP2 DUP2 MSTORE PUSH9 0xA968163F0A57B40000 DUP10 DUP15 ADD SWAP1 DUP2 MSTORE DUP6 SLOAD DUP1 DUP15 ADD DUP8 SSTORE DUP7 DUP13 MSTORE SWAP10 MLOAD SWAP10 DUP6 MUL DUP1 DUP6 ADD SWAP11 SWAP1 SWAP11 SSTORE SWAP1 MLOAD DUP10 DUP8 ADD SSTORE MLOAD SWAP8 DUP7 ADD SWAP8 SWAP1 SWAP8 SSTORE DUP11 MLOAD DUP1 DUP11 ADD DUP13 MSTORE SWAP7 DUP8 MSTORE PUSH5 0x773594000 DUP8 DUP8 ADD DUP2 DUP2 MSTORE PUSH9 0x54AD1AC42B58280000 DUP10 DUP15 ADD SWAP1 DUP2 MSTORE DUP6 SLOAD DUP1 DUP15 ADD DUP8 SSTORE DUP7 DUP13 MSTORE SWAP10 MLOAD SWAP10 DUP6 MUL DUP1 DUP6 ADD SWAP11 SWAP1 SWAP11 SSTORE SWAP1 MLOAD DUP10 DUP8 ADD SSTORE MLOAD SWAP8 DUP7 ADD SWAP8 SWAP1 SWAP8 SSTORE DUP11 MLOAD DUP1 DUP11 ADD DUP13 MSTORE SWAP7 DUP8 MSTORE PUSH5 0xEE6B28000 DUP8 DUP8 ADD DUP2 DUP2 MSTORE PUSH9 0x2A568D6215AC140000 DUP10 DUP15 ADD SWAP1 DUP2 MSTORE DUP6 SLOAD DUP1 DUP15 ADD DUP8 SSTORE DUP7 DUP13 MSTORE SWAP10 MLOAD SWAP10 DUP6 MUL DUP1 DUP6 ADD SWAP11 SWAP1 SWAP11 SSTORE SWAP1 MLOAD DUP10 DUP8 ADD SSTORE MLOAD SWAP8 DUP7 ADD SWAP8 SWAP1 SWAP8 SSTORE DUP11 MLOAD DUP1 DUP11 ADD DUP13 MSTORE SWAP7 DUP8 MSTORE PUSH5 0x1DCD650000 DUP8 DUP8 ADD DUP2 DUP2 MSTORE PUSH9 0x1532370C64A9BC0000 DUP10 DUP15 ADD SWAP1 DUP2 MSTORE DUP6 SLOAD DUP1 DUP15 ADD DUP8 SSTORE DUP7 DUP13 MSTORE SWAP10 MLOAD SWAP10 DUP6 MUL DUP1 DUP6 ADD SWAP11 SWAP1 SWAP11 SSTORE SWAP1 MLOAD DUP10 DUP8 ADD SSTORE MLOAD SWAP8 DUP7 ADD SWAP8 SWAP1 SWAP8 SSTORE DUP11 MLOAD DUP1 DUP11 ADD DUP13 MSTORE SWAP7 DUP8 MSTORE PUSH5 0x3B9ACA0000 DUP8 DUP8 ADD DUP2 DUP2 MSTORE PUSH9 0xA922B2AD8812C0000 DUP10 DUP15 ADD SWAP1 DUP2 MSTORE DUP6 SLOAD DUP1 DUP15 ADD DUP8 SSTORE DUP7 DUP13 MSTORE SWAP10 MLOAD SWAP10 DUP6 MUL DUP1 DUP6 ADD SWAP11 SWAP1 SWAP11 SSTORE SWAP1 MLOAD DUP10 DUP8 ADD SSTORE MLOAD SWAP8 DUP7 ADD SWAP8 SWAP1 SWAP8 SSTORE DUP11 MLOAD DUP1 DUP11 ADD DUP13 MSTORE SWAP7 DUP8 MSTORE PUSH5 0x7735940000 DUP8 DUP8 ADD DUP2 DUP2 MSTORE PUSH9 0x55005F0C614480000 DUP10 DUP15 ADD SWAP1 DUP2 MSTORE DUP6 SLOAD DUP1 DUP15 ADD DUP8 SSTORE DUP7 DUP13 MSTORE SWAP10 MLOAD SWAP10 DUP6 MUL DUP1 DUP6 ADD SWAP11 SWAP1 SWAP11 SSTORE SWAP1 MLOAD DUP10 DUP8 ADD SSTORE MLOAD SWAP8 DUP7 ADD SWAP8 SWAP1 SWAP8 SSTORE DUP11 MLOAD DUP1 DUP11 ADD DUP13 MSTORE SWAP7 DUP8 MSTORE PUSH5 0xEE6B280000 DUP8 DUP8 ADD DUP2 DUP2 MSTORE PUSH9 0x2A802F8630A240000 DUP10 DUP15 ADD SWAP1 DUP2 MSTORE DUP6 SLOAD DUP1 DUP15 ADD DUP8 SSTORE DUP7 DUP13 MSTORE SWAP10 MLOAD SWAP10 DUP6 MUL DUP1 DUP6 ADD SWAP11 SWAP1 SWAP11 SSTORE SWAP1 MLOAD DUP10 DUP8 ADD SSTORE MLOAD SWAP8 DUP7 ADD SWAP8 SWAP1 SWAP8 SSTORE DUP11 MLOAD DUP1 DUP11 ADD DUP13 MSTORE SWAP7 DUP8 MSTORE PUSH6 0x1DCD6500000 DUP8 DUP8 ADD DUP2 DUP2 MSTORE PUSH9 0x14D1120D7B1600000 DUP10 DUP15 ADD SWAP1 DUP2 MSTORE DUP6 SLOAD DUP1 DUP15 ADD DUP8 SSTORE DUP7 DUP13 MSTORE SWAP10 MLOAD SWAP10 DUP6 MUL DUP1 DUP6 ADD SWAP11 SWAP1 SWAP11 SSTORE SWAP1 MLOAD DUP10 DUP8 ADD SSTORE MLOAD SWAP8 DUP7 ADD SWAP8 SWAP1 SWAP8 SSTORE DUP11 MLOAD DUP1 DUP11 ADD DUP13 MSTORE SWAP7 DUP8 MSTORE PUSH6 0x3B9ACA00000 DUP8 DUP8 ADD DUP2 DUP2 MSTORE PUSH8 0xA688906BD8B00000 DUP10 DUP15 ADD SWAP1 DUP2 MSTORE DUP6 SLOAD DUP1 DUP15 ADD DUP8 SSTORE DUP7 DUP13 MSTORE SWAP10 MLOAD SWAP10 DUP6 MUL DUP1 DUP6 ADD SWAP11 SWAP1 SWAP11 SSTORE SWAP1 MLOAD DUP10 DUP8 ADD SSTORE MLOAD SWAP8 DUP7 ADD SWAP8 SWAP1 SWAP8 SSTORE DUP11 MLOAD DUP1 DUP11 ADD DUP13 MSTORE SWAP7 DUP8 MSTORE PUSH6 0x77359400000 DUP8 DUP8 ADD DUP2 DUP2 MSTORE PUSH8 0x53444835EC580000 DUP10 DUP15 ADD SWAP1 DUP2 MSTORE DUP6 SLOAD DUP1 DUP15 ADD DUP8 SSTORE DUP7 DUP13 MSTORE SWAP10 MLOAD SWAP10 DUP6 MUL DUP1 DUP6 ADD SWAP11 SWAP1 SWAP11 SSTORE SWAP1 MLOAD DUP10 DUP8 ADD SSTORE MLOAD SWAP8 DUP7 ADD SWAP8 SWAP1 SWAP8 SSTORE DUP11 MLOAD DUP1 DUP11 ADD DUP13 MSTORE SWAP7 DUP8 MSTORE PUSH6 0xEE6B2800000 DUP8 DUP8 ADD DUP2 DUP2 MSTORE PUSH8 0x29A2241AF62C0000 DUP10 DUP15 ADD SWAP1 DUP2 MSTORE DUP6 SLOAD DUP1 DUP15 ADD DUP8 SSTORE DUP7 DUP13 MSTORE SWAP10 MLOAD SWAP10 DUP6 MUL DUP1 DUP6 ADD SWAP11 SWAP1 SWAP11 SSTORE SWAP1 MLOAD DUP10 DUP8 ADD SSTORE MLOAD SWAP8 DUP7 ADD SWAP8 SWAP1 SWAP8 SSTORE DUP11 MLOAD DUP1 DUP11 ADD DUP13 MSTORE SWAP7 DUP8 MSTORE PUSH6 0x1DCD65000000 DUP8 DUP8 ADD DUP2 DUP2 MSTORE PUSH8 0x14D1120D7B160000 DUP10 DUP15 ADD SWAP1 DUP2 MSTORE DUP6 SLOAD DUP1 DUP15 ADD DUP8 SSTORE DUP7 DUP13 MSTORE SWAP10 MLOAD SWAP10 DUP6 MUL DUP1 DUP6 ADD SWAP11 SWAP1 SWAP11 SSTORE SWAP1 MLOAD DUP10 DUP8 ADD SSTORE MLOAD SWAP8 DUP7 ADD SWAP8 SWAP1 SWAP8 SSTORE DUP11 MLOAD DUP1 DUP11 ADD DUP13 MSTORE SWAP7 DUP8 MSTORE PUSH6 0x3B9ACA000000 DUP8 DUP8 ADD DUP2 DUP2 MSTORE PUSH8 0xA688906BD8B0000 DUP10 DUP15 ADD SWAP1 DUP2 MSTORE DUP6 SLOAD DUP1 DUP15 ADD DUP8 SSTORE DUP7 DUP13 MSTORE SWAP10 MLOAD SWAP10 DUP6 MUL DUP1 DUP6 ADD SWAP11 SWAP1 SWAP11 SSTORE SWAP1 MLOAD DUP10 DUP8 ADD SSTORE MLOAD SWAP8 DUP7 ADD SWAP8 SWAP1 SWAP8 SSTORE DUP11 MLOAD DUP1 DUP11 ADD DUP13 MSTORE SWAP7 DUP8 MSTORE PUSH6 0x773594000000 DUP8 DUP8 ADD DUP2 DUP2 MSTORE PUSH8 0x54607FC96A60000 DUP10 DUP15 ADD SWAP1 DUP2 MSTORE DUP6 SLOAD DUP1 DUP15 ADD DUP8 SSTORE DUP7 DUP13 MSTORE SWAP10 MLOAD SWAP10 DUP6 MUL DUP1 DUP6 ADD SWAP11 SWAP1 SWAP11 SSTORE SWAP1 MLOAD DUP10 DUP8 ADD SSTORE MLOAD SWAP8 DUP7 ADD SWAP8 SWAP1 SWAP8 SSTORE DUP11 MLOAD SWAP9 DUP10 ADD DUP12 MSTORE SWAP6 DUP9 MSTORE PUSH1 0x0 NOT SWAP5 DUP9 ADD SWAP5 DUP6 MSTORE PUSH8 0x2A303FE4B530000 SWAP10 DUP9 ADD SWAP10 DUP11 MSTORE DUP2 SLOAD SWAP9 DUP10 ADD DUP3 SSTORE SWAP6 MSTORE SWAP5 MLOAD SWAP6 SWAP1 SWAP4 MUL SWAP2 DUP3 ADD SWAP5 SWAP1 SWAP5 SSTORE SWAP3 MLOAD SWAP2 DUP4 ADD SWAP2 SWAP1 SWAP2 SSTORE SWAP2 MLOAD SWAP2 ADD SSTORE JUMP JUMPDEST POP PUSH2 0x72B JUMP JUMPDEST PUSH1 0x0 DUP1 SLOAD PUSH1 0x1 PUSH1 0x1 PUSH1 0xA0 SHL SUB DUP4 DUP2 AND PUSH1 0x1 PUSH1 0x1 PUSH1 0xA0 SHL SUB NOT DUP4 AND DUP2 OR DUP5 SSTORE PUSH1 0x40 MLOAD SWAP2 SWAP1 SWAP3 AND SWAP3 DUP4 SWAP2 PUSH32 0x8BE0079C531659141344CD1FD0A4F28419497F9722A3DAAFE3B4186F6B6457E0 SWAP2 SWAP1 LOG3 POP POP JUMP JUMPDEST PUSH1 0x0 PUSH1 0x20 DUP3 DUP5 SUB SLT ISZERO PUSH2 0x70D JUMPI PUSH1 0x0 DUP1 REVERT JUMPDEST DUP2 MLOAD PUSH1 0x1 PUSH1 0x1 PUSH1 0xA0 SHL SUB DUP2 AND DUP2 EQ PUSH2 0x724 JUMPI PUSH1 0x0 DUP1 REVERT JUMPDEST SWAP4 SWAP3 POP POP POP JUMP JUMPDEST PUSH2 0x1136 DUP1 PUSH2 0x73A PUSH1 0x0 CODECOPY PUSH1 0x0 RETURN INVALID PUSH1 0x80 PUSH1 0x40 MSTORE CALLVALUE DUP1 ISZERO PUSH2 0x10 JUMPI PUSH1 0x0 DUP1 REVERT JUMPDEST POP PUSH1 0x4 CALLDATASIZE LT PUSH2 0x147 JUMPI PUSH1 0x0 CALLDATALOAD PUSH1 0xE0 SHR DUP1 PUSH4 0x8DA5CB5B GT PUSH2 0xC8 JUMPI DUP1 PUSH4 0xAFD86A76 GT PUSH2 0x8C JUMPI DUP1 PUSH4 0xF10F9A69 GT PUSH2 0x66 JUMPI DUP1 PUSH4 0xF10F9A69 EQ PUSH2 0x341 JUMPI DUP1 PUSH4 0xF2FDE38B EQ PUSH2 0x361 JUMPI DUP1 PUSH4 0xFAD58B21 EQ PUSH2 0x374 JUMPI PUSH1 0x0 DUP1 REVERT JUMPDEST DUP1 PUSH4 0xAFD86A76 EQ PUSH2 0x2FB JUMPI DUP1 PUSH4 0xB014DC11 EQ PUSH2 0x30E JUMPI DUP1 PUSH4 0xBA69E410 EQ PUSH2 0x32E JUMPI PUSH1 0x0 DUP1 REVERT JUMPDEST DUP1 PUSH4 0x8DA5CB5B EQ PUSH2 0x27E JUMPI DUP1 PUSH4 0x94928B84 EQ PUSH2 0x28F JUMPI DUP1 PUSH4 0x97E50818 EQ PUSH2 0x2A2 JUMPI DUP1 PUSH4 0x9BD8BD9E EQ PUSH2 0x2B5 JUMPI DUP1 PUSH4 0xAC16BA1D EQ PUSH2 0x2C8 JUMPI PUSH1 0x0 DUP1 REVERT JUMPDEST DUP1 PUSH4 0x5183D667 GT PUSH2 0x10F JUMPI DUP1 PUSH4 0x5183D667 EQ PUSH2 0x1F7 JUMPI DUP1 PUSH4 0x6A55B7CA EQ PUSH2 0x220 JUMPI DUP1 PUSH4 0x715018A6 EQ PUSH2 0x24E JUMPI DUP1 PUSH4 0x7E1FDBE8 EQ PUSH2 0x258 JUMPI DUP1 PUSH4 0x81D920EC EQ PUSH2 0x26B JUMPI PUSH1 0x0 DUP1 REVERT JUMPDEST DUP1 PUSH4 0x22834DDB EQ PUSH2 0x14C JUMPI DUP1 PUSH4 0x2330CE70 EQ PUSH2 0x163 JUMPI DUP1 PUSH4 0x272E5A52 EQ PUSH2 0x18C JUMPI DUP1 PUSH4 0x2EBD9978 EQ PUSH2 0x1AC JUMPI DUP1 PUSH4 0x4A9FEFC7 EQ PUSH2 0x1CC JUMPI JUMPDEST PUSH1 0x0 DUP1 REVERT JUMPDEST PUSH1 0x6 SLOAD JUMPDEST PUSH1 0x40 MLOAD SWAP1 DUP2 MSTORE PUSH1 0x20 ADD JUMPDEST PUSH1 0x40 MLOAD DUP1 SWAP2 SUB SWAP1 RETURN JUMPDEST PUSH2 0x150 PUSH2 0x171 CALLDATASIZE PUSH1 0x4 PUSH2 0xC20 JUMP JUMPDEST PUSH1 0x1 PUSH1 0x1 PUSH1 0xA0 SHL SUB AND PUSH1 0x0 SWAP1 DUP2 MSTORE PUSH1 0x2 PUSH1 0x20 MSTORE PUSH1 0x40 SWAP1 KECCAK256 SLOAD SWAP1 JUMP JUMPDEST PUSH2 0x150 PUSH2 0x19A CALLDATASIZE PUSH1 0x4 PUSH2 0xC44 JUMP JUMPDEST PUSH1 0x0 SWAP1 DUP2 MSTORE PUSH1 0x5 PUSH1 0x20 MSTORE PUSH1 0x40 SWAP1 KECCAK256 SLOAD SWAP1 JUMP JUMPDEST PUSH2 0x150 PUSH2 0x1BA CALLDATASIZE PUSH1 0x4 PUSH2 0xC44 JUMP JUMPDEST PUSH1 0x5 PUSH1 0x20 MSTORE PUSH1 0x0 SWAP1 DUP2 MSTORE PUSH1 0x40 SWAP1 KECCAK256 SLOAD DUP2 JUMP JUMPDEST PUSH2 0x1DF PUSH2 0x1DA CALLDATASIZE PUSH1 0x4 PUSH2 0xC20 JUMP JUMPDEST PUSH2 0x387 JUMP JUMPDEST PUSH1 0x40 MLOAD PUSH1 0x1 PUSH1 0x1 PUSH1 0xA0 SHL SUB SWAP1 SWAP2 AND DUP2 MSTORE PUSH1 0x20 ADD PUSH2 0x15A JUMP JUMPDEST PUSH2 0x150 PUSH2 0x205 CALLDATASIZE PUSH1 0x4 PUSH2 0xC20 JUMP JUMPDEST PUSH1 0x1 PUSH1 0x1 PUSH1 0xA0 SHL SUB AND PUSH1 0x0 SWAP1 DUP2 MSTORE PUSH1 0x3 PUSH1 0x20 MSTORE PUSH1 0x40 SWAP1 KECCAK256 SLOAD SWAP1 JUMP JUMPDEST PUSH2 0x233 PUSH2 0x22E CALLDATASIZE PUSH1 0x4 PUSH2 0xC44 JUMP JUMPDEST PUSH2 0x428 JUMP JUMPDEST PUSH1 0x40 DUP1 MLOAD SWAP4 DUP5 MSTORE PUSH1 0x20 DUP5 ADD SWAP3 SWAP1 SWAP3 MSTORE SWAP1 DUP3 ADD MSTORE PUSH1 0x60 ADD PUSH2 0x15A JUMP JUMPDEST PUSH2 0x256 PUSH2 0x45B JUMP JUMPDEST STOP JUMPDEST PUSH2 0x256 PUSH2 0x266 CALLDATASIZE PUSH1 0x4 PUSH2 0xC5D JUMP JUMPDEST PUSH2 0x46F JUMP JUMPDEST PUSH2 0x233 PUSH2 0x279 CALLDATASIZE PUSH1 0x4 PUSH2 0xC44 JUMP JUMPDEST PUSH2 0x493 JUMP JUMPDEST PUSH1 0x0 SLOAD PUSH1 0x1 PUSH1 0x1 PUSH1 0xA0 SHL SUB AND PUSH2 0x1DF JUMP JUMPDEST PUSH2 0x150 PUSH2 0x29D CALLDATASIZE PUSH1 0x4 PUSH2 0xC5D JUMP JUMPDEST PUSH2 0x542 JUMP JUMPDEST PUSH2 0x256 PUSH2 0x2B0 CALLDATASIZE PUSH1 0x4 PUSH2 0xC89 JUMP JUMPDEST PUSH2 0x57D JUMP JUMPDEST PUSH2 0x256 PUSH2 0x2C3 CALLDATASIZE PUSH1 0x4 PUSH2 0xC5D JUMP JUMPDEST PUSH2 0x913 JUMP JUMPDEST PUSH2 0x2EB PUSH2 0x2D6 CALLDATASIZE PUSH1 0x4 PUSH2 0xC44 JUMP JUMPDEST PUSH1 0x4 PUSH1 0x20 MSTORE PUSH1 0x0 SWAP1 DUP2 MSTORE PUSH1 0x40 SWAP1 KECCAK256 SLOAD PUSH1 0xFF AND DUP2 JUMP JUMPDEST PUSH1 0x40 MLOAD SWAP1 ISZERO ISZERO DUP2 MSTORE PUSH1 0x20 ADD PUSH2 0x15A JUMP JUMPDEST PUSH1 0x1 SLOAD PUSH2 0x1DF SWAP1 PUSH1 0x1 PUSH1 0x1 PUSH1 0xA0 SHL SUB AND DUP2 JUMP JUMPDEST PUSH2 0x150 PUSH2 0x31C CALLDATASIZE PUSH1 0x4 PUSH2 0xC20 JUMP JUMPDEST PUSH1 0x2 PUSH1 0x20 MSTORE PUSH1 0x0 SWAP1 DUP2 MSTORE PUSH1 0x40 SWAP1 KECCAK256 SLOAD DUP2 JUMP JUMPDEST PUSH2 0x150 PUSH2 0x33C CALLDATASIZE PUSH1 0x4 PUSH2 0xC89 JUMP JUMPDEST PUSH2 0x937 JUMP JUMPDEST PUSH2 0x150 PUSH2 0x34F CALLDATASIZE PUSH1 0x4 PUSH2 0xC20 JUMP JUMPDEST PUSH1 0x3 PUSH1 0x20 MSTORE PUSH1 0x0 SWAP1 DUP2 MSTORE PUSH1 0x40 SWAP1 KECCAK256 SLOAD DUP2 JUMP JUMPDEST PUSH2 0x256 PUSH2 0x36F CALLDATASIZE PUSH1 0x4 PUSH2 0xC20 JUMP JUMPDEST PUSH2 0xA54 JUMP JUMPDEST PUSH2 0x256 PUSH2 0x382 CALLDATASIZE PUSH1 0x4 PUSH2 0xC20 JUMP JUMPDEST PUSH2 0xA92 JUMP JUMPDEST PUSH1 0x1 SLOAD PUSH1 0x0 SWAP1 PUSH1 0x1 PUSH1 0x1 PUSH1 0xA0 SHL SUB AND PUSH2 0x3A2 JUMPI POP PUSH1 0x0 SWAP2 SWAP1 POP JUMP JUMPDEST PUSH1 0x1 SLOAD PUSH1 0x40 MLOAD PUSH3 0xF53A47 PUSH1 0xE4 SHL DUP2 MSTORE PUSH1 0x1 PUSH1 0x1 PUSH1 0xA0 SHL SUB DUP5 DUP2 AND PUSH1 0x4 DUP4 ADD MSTORE SWAP1 SWAP2 AND SWAP1 PUSH4 0xF53A470 SWAP1 PUSH1 0x24 ADD PUSH1 0x0 PUSH1 0x40 MLOAD DUP1 DUP4 SUB DUP2 DUP7 GAS STATICCALL SWAP3 POP POP POP DUP1 ISZERO PUSH2 0x40C JUMPI POP PUSH1 0x40 MLOAD RETURNDATASIZE PUSH1 0x0 DUP3 RETURNDATACOPY PUSH1 0x1F RETURNDATASIZE SWAP1 DUP2 ADD PUSH1 0x1F NOT AND DUP3 ADD PUSH1 0x40 MSTORE PUSH2 0x409 SWAP2 SWAP1 DUP2 ADD SWAP1 PUSH2 0xE39 JUMP JUMPDEST PUSH1 0x1 JUMPDEST PUSH2 0x418 JUMPI POP PUSH1 0x0 SWAP2 SWAP1 POP JUMP JUMPDEST POP SWAP1 SWAP6 SWAP5 POP POP POP POP POP JUMP JUMPDEST SWAP2 SWAP1 POP JUMP JUMPDEST PUSH1 0x6 DUP2 DUP2 SLOAD DUP2 LT PUSH2 0x438 JUMPI PUSH1 0x0 DUP1 REVERT JUMPDEST PUSH1 0x0 SWAP2 DUP3 MSTORE PUSH1 0x20 SWAP1 SWAP2 KECCAK256 PUSH1 0x3 SWAP1 SWAP2 MUL ADD DUP1 SLOAD PUSH1 0x1 DUP3 ADD SLOAD PUSH1 0x2 SWAP1 SWAP3 ADD SLOAD SWAP1 SWAP3 POP DUP4 JUMP JUMPDEST PUSH2 0x463 PUSH2 0xABC JUMP JUMPDEST PUSH2 0x46D PUSH1 0x0 PUSH2 0xAE9 JUMP JUMPDEST JUMP JUMPDEST PUSH2 0x477 PUSH2 0xABC JUMP JUMPDEST PUSH1 0x1 PUSH1 0x1 PUSH1 0xA0 SHL SUB SWAP1 SWAP2 AND PUSH1 0x0 SWAP1 DUP2 MSTORE PUSH1 0x3 PUSH1 0x20 MSTORE PUSH1 0x40 SWAP1 KECCAK256 SSTORE JUMP JUMPDEST PUSH1 0x0 DUP1 PUSH1 0x0 PUSH1 0x6 DUP1 SLOAD SWAP1 POP DUP5 LT PUSH2 0x4E6 JUMPI PUSH1 0x40 MLOAD PUSH3 0x461BCD PUSH1 0xE5 SHL DUP2 MSTORE PUSH1 0x20 PUSH1 0x4 DUP3 ADD MSTORE PUSH1 0x12 PUSH1 0x24 DUP3 ADD MSTORE PUSH18 0x92DCECC2D8D2C840C4C2DCC840D2DCC8CAF PUSH1 0x73 SHL PUSH1 0x44 DUP3 ADD MSTORE PUSH1 0x64 ADD JUMPDEST PUSH1 0x40 MLOAD DUP1 SWAP2 SUB SWAP1 REVERT JUMPDEST PUSH1 0x0 PUSH1 0x6 DUP6 DUP2 SLOAD DUP2 LT PUSH2 0x4FB JUMPI PUSH2 0x4FB PUSH2 0xED3 JUMP JUMPDEST PUSH1 0x0 SWAP2 DUP3 MSTORE PUSH1 0x20 SWAP2 DUP3 SWAP1 KECCAK256 PUSH1 0x40 DUP1 MLOAD PUSH1 0x60 DUP2 ADD DUP3 MSTORE PUSH1 0x3 SWAP4 SWAP1 SWAP4 MUL SWAP1 SWAP2 ADD DUP1 SLOAD DUP1 DUP5 MSTORE PUSH1 0x1 DUP3 ADD SLOAD SWAP5 DUP5 ADD DUP6 SWAP1 MSTORE PUSH1 0x2 SWAP1 SWAP2 ADD SLOAD SWAP3 SWAP1 SWAP2 ADD DUP3 SWAP1 MSTORE SWAP8 SWAP2 SWAP7 POP SWAP5 POP SWAP3 POP POP POP JUMP JUMPDEST PUSH1 0x1 PUSH1 0x1 PUSH1 0xA0 SHL SUB DUP3 AND PUSH1 0x0 SWAP1 DUP2 MSTORE PUSH1 0x2 PUSH1 0x20 MSTORE PUSH1 0x40 DUP2 KECCAK256 SLOAD DUP2 PUSH2 0x566 DUP5 DUP4 PUSH2 0xEFF JUMP JUMPDEST SWAP1 POP PUSH2 0x572 DUP3 DUP3 PUSH2 0x937 JUMP JUMPDEST SWAP3 POP POP POP JUMPDEST SWAP3 SWAP2 POP POP JUMP JUMPDEST PUSH1 0x1 SLOAD PUSH1 0x1 PUSH1 0x1 PUSH1 0xA0 SHL SUB AND PUSH2 0x5D5 JUMPI PUSH1 0x40 MLOAD PUSH3 0x461BCD PUSH1 0xE5 SHL DUP2 MSTORE PUSH1 0x20 PUSH1 0x4 DUP3 ADD MSTORE PUSH1 0x14 PUSH1 0x24 DUP3 ADD MSTORE PUSH32 0x4A6F6220636F6E7472616374206E6F7420736574000000000000000000000000 PUSH1 0x44 DUP3 ADD MSTORE PUSH1 0x64 ADD PUSH2 0x4DD JUMP JUMPDEST PUSH1 0x1 SLOAD PUSH1 0x1 PUSH1 0x1 PUSH1 0xA0 SHL SUB AND CALLER EQ PUSH2 0x62F JUMPI PUSH1 0x40 MLOAD PUSH3 0x461BCD PUSH1 0xE5 SHL DUP2 MSTORE PUSH1 0x20 PUSH1 0x4 DUP3 ADD MSTORE PUSH1 0x1F PUSH1 0x24 DUP3 ADD MSTORE PUSH32 0x4F6E6C79206A6F6220636F6E74726163742063616E2063616C6C207468697300 PUSH1 0x44 DUP3 ADD MSTORE PUSH1 0x64 ADD PUSH2 0x4DD JUMP JUMPDEST PUSH1 0x0 DUP2 GT PUSH2 0x68A JUMPI PUSH1 0x40 MLOAD PUSH3 0x461BCD PUSH1 0xE5 SHL DUP2 MSTORE PUSH1 0x20 PUSH1 0x4 DUP3 ADD MSTORE PUSH1 0x22 PUSH1 0x24 DUP3 ADD MSTORE PUSH32 0x5061696420616D6F756E74206D7573742062652067726561746572207468616E PUSH1 0x44 DUP3 ADD MSTORE PUSH2 0x203 PUSH1 0xF4 SHL PUSH1 0x64 DUP3 ADD MSTORE PUSH1 0x84 ADD PUSH2 0x4DD JUMP JUMPDEST PUSH1 0x1 SLOAD PUSH1 0x40 MLOAD PUSH4 0xBF22C457 PUSH1 0xE0 SHL DUP2 MSTORE PUSH1 0x4 DUP2 ADD DUP5 SWAP1 MSTORE PUSH1 0x0 SWAP2 DUP3 SWAP2 PUSH1 0x1 PUSH1 0x1 PUSH1 0xA0 SHL SUB SWAP1 SWAP2 AND SWAP1 PUSH4 0xBF22C457 SWAP1 PUSH1 0x24 ADD PUSH1 0x0 PUSH1 0x40 MLOAD DUP1 DUP4 SUB DUP2 DUP7 GAS STATICCALL ISZERO DUP1 ISZERO PUSH2 0x6D8 JUMPI RETURNDATASIZE PUSH1 0x0 DUP1 RETURNDATACOPY RETURNDATASIZE PUSH1 0x0 REVERT JUMPDEST POP POP POP POP PUSH1 0x40 MLOAD RETURNDATASIZE PUSH1 0x0 DUP3 RETURNDATACOPY PUSH1 0x1F RETURNDATASIZE SWAP1 DUP2 ADD PUSH1 0x1F NOT AND DUP3 ADD PUSH1 0x40 MSTORE PUSH2 0x700 SWAP2 SWAP1 DUP2 ADD SWAP1 PUSH2 0xF89 JUMP JUMPDEST POP SWAP10 POP POP POP POP POP POP POP POP SWAP3 POP POP PUSH1 0x0 PUSH1 0x1 PUSH1 0x1 PUSH1 0xA0 SHL SUB AND DUP3 PUSH1 0x1 PUSH1 0x1 PUSH1 0xA0 SHL SUB AND SUB PUSH2 0x763 JUMPI PUSH1 0x40 MLOAD PUSH3 0x461BCD PUSH1 0xE5 SHL DUP2 MSTORE PUSH1 0x20 PUSH1 0x4 DUP3 ADD MSTORE PUSH1 0x11 PUSH1 0x24 DUP3 ADD MSTORE PUSH17 0x24B73B30B634B2103537B11033B4BB32B9 PUSH1 0x79 SHL PUSH1 0x44 DUP3 ADD MSTORE PUSH1 0x64 ADD PUSH2 0x4DD JUMP JUMPDEST PUSH1 0x1 PUSH1 0x1 PUSH1 0xA0 SHL SUB DUP2 AND PUSH2 0x7B9 JUMPI PUSH1 0x40 MLOAD PUSH3 0x461BCD PUSH1 0xE5 SHL DUP2 MSTORE PUSH1 0x20 PUSH1 0x4 DUP3 ADD MSTORE PUSH1 0x15 PUSH1 0x24 DUP3 ADD MSTORE PUSH32 0x4E6F2073656C6563746564206170706C6963616E740000000000000000000000 PUSH1 0x44 DUP3 ADD MSTORE PUSH1 0x64 ADD PUSH2 0x4DD JUMP JUMPDEST PUSH1 0x0 DUP5 DUP2 MSTORE PUSH1 0x5 PUSH1 0x20 MSTORE PUSH1 0x40 DUP2 KECCAK256 DUP1 SLOAD DUP6 SWAP3 SWAP1 PUSH2 0x7D7 SWAP1 DUP5 SWAP1 PUSH2 0xEFF JUMP JUMPDEST SWAP1 SWAP2 SSTORE POP PUSH1 0x0 SWAP1 POP PUSH2 0x7E8 DUP4 PUSH2 0x387 JUMP JUMPDEST SWAP1 POP PUSH1 0x0 PUSH2 0x7F5 DUP4 PUSH2 0x387 JUMP JUMPDEST SWAP1 POP PUSH1 0x0 PUSH2 0x803 DUP6 DUP8 PUSH2 0xB39 JUMP JUMPDEST SWAP1 POP PUSH1 0x0 PUSH2 0x811 DUP6 DUP9 PUSH2 0xB39 JUMP JUMPDEST SWAP1 POP PUSH1 0x1 PUSH1 0x1 PUSH1 0xA0 SHL SUB DUP5 AND ISZERO DUP1 ISZERO SWAP1 PUSH2 0x83D JUMPI POP DUP6 PUSH1 0x1 PUSH1 0x1 PUSH1 0xA0 SHL SUB AND DUP5 PUSH1 0x1 PUSH1 0x1 PUSH1 0xA0 SHL SUB AND EQ ISZERO JUMPDEST ISZERO PUSH2 0x858 JUMPI PUSH2 0x856 DUP5 PUSH2 0x851 PUSH1 0xA DUP11 PUSH2 0x109B JUMP JUMPDEST PUSH2 0xB39 JUMP JUMPDEST POP JUMPDEST PUSH1 0x1 PUSH1 0x1 PUSH1 0xA0 SHL SUB DUP4 AND ISZERO DUP1 ISZERO SWAP1 PUSH2 0x882 JUMPI POP DUP5 PUSH1 0x1 PUSH1 0x1 PUSH1 0xA0 SHL SUB AND DUP4 PUSH1 0x1 PUSH1 0x1 PUSH1 0xA0 SHL SUB AND EQ ISZERO JUMPDEST DUP1 ISZERO PUSH2 0x8A0 JUMPI POP DUP4 PUSH1 0x1 PUSH1 0x1 PUSH1 0xA0 SHL SUB AND DUP4 PUSH1 0x1 PUSH1 0x1 PUSH1 0xA0 SHL SUB AND EQ ISZERO JUMPDEST ISZERO PUSH2 0x8B6 JUMPI PUSH2 0x8B4 DUP4 PUSH2 0x851 PUSH1 0xA DUP11 PUSH2 0x109B JUMP JUMPDEST POP JUMPDEST PUSH1 0x40 DUP1 MLOAD DUP9 DUP2 MSTORE PUSH1 0x20 DUP2 ADD DUP5 SWAP1 MSTORE SWAP1 DUP2 ADD DUP3 SWAP1 MSTORE PUSH1 0x1 PUSH1 0x1 PUSH1 0xA0 SHL SUB DUP1 DUP8 AND SWAP2 SWAP1 DUP9 AND SWAP1 DUP11 SWAP1 PUSH32 0xF0507B68A744DB6F63183FB7E722285FB3CBF6F6AA13C12FF186432859E368E2 SWAP1 PUSH1 0x60 ADD PUSH1 0x40 MLOAD DUP1 SWAP2 SUB SWAP1 LOG4 POP POP POP POP POP POP POP POP JUMP JUMPDEST PUSH2 0x91B PUSH2 0xABC JUMP JUMPDEST PUSH1 0x1 PUSH1 0x1 PUSH1 0xA0 SHL SUB SWAP1 SWAP2 AND PUSH1 0x0 SWAP1 DUP2 MSTORE PUSH1 0x2 PUSH1 0x20 MSTORE PUSH1 0x40 SWAP1 KECCAK256 SSTORE JUMP JUMPDEST PUSH1 0x0 DUP2 DUP4 LT PUSH2 0x948 JUMPI POP PUSH1 0x0 PUSH2 0x577 JUMP JUMPDEST PUSH1 0x0 DUP4 DUP2 JUMPDEST PUSH1 0x6 SLOAD DUP2 LT DUP1 ISZERO PUSH2 0x95D JUMPI POP DUP5 DUP3 LT JUMPDEST ISZERO PUSH2 0xA4A JUMPI PUSH1 0x0 PUSH1 0x6 DUP3 DUP2 SLOAD DUP2 LT PUSH2 0x977 JUMPI PUSH2 0x977 PUSH2 0xED3 JUMP JUMPDEST PUSH1 0x0 SWAP2 DUP3 MSTORE PUSH1 0x20 SWAP2 DUP3 SWAP1 KECCAK256 PUSH1 0x40 DUP1 MLOAD PUSH1 0x60 DUP2 ADD DUP3 MSTORE PUSH1 0x3 SWAP1 SWAP4 MUL SWAP1 SWAP2 ADD DUP1 SLOAD DUP4 MSTORE PUSH1 0x1 DUP2 ADD SLOAD SWAP4 DUP4 ADD DUP5 SWAP1 MSTORE PUSH1 0x2 ADD SLOAD SWAP1 DUP3 ADD MSTORE SWAP2 POP DUP4 LT PUSH2 0x9B9 JUMPI POP PUSH2 0xA38 JUMP JUMPDEST DUP1 MLOAD PUSH1 0x0 SWAP1 DUP5 GT PUSH2 0x9CB JUMPI DUP2 MLOAD PUSH2 0x9CD JUMP JUMPDEST DUP4 JUMPDEST SWAP1 POP PUSH1 0x0 DUP3 PUSH1 0x20 ADD MLOAD DUP9 LT PUSH2 0x9E6 JUMPI DUP3 PUSH1 0x20 ADD MLOAD PUSH2 0x9E8 JUMP JUMPDEST DUP8 JUMPDEST SWAP1 POP DUP1 DUP3 LT ISZERO PUSH2 0xA34 JUMPI PUSH1 0x0 PUSH2 0x9FE DUP4 DUP4 PUSH2 0x10BD JUMP JUMPDEST SWAP1 POP PUSH1 0x0 PUSH3 0xF4240 DUP6 PUSH1 0x40 ADD MLOAD DUP4 PUSH2 0xA16 SWAP2 SWAP1 PUSH2 0x10D0 JUMP JUMPDEST PUSH2 0xA20 SWAP2 SWAP1 PUSH2 0x109B JUMP JUMPDEST SWAP1 POP PUSH2 0xA2C DUP2 DUP10 PUSH2 0xEFF JUMP JUMPDEST SWAP8 POP DUP3 SWAP7 POP POP POP JUMPDEST POP POP POP JUMPDEST DUP1 PUSH2 0xA42 DUP2 PUSH2 0x10E7 JUMP JUMPDEST SWAP2 POP POP PUSH2 0x94D JUMP JUMPDEST POP SWAP1 SWAP5 SWAP4 POP POP POP POP JUMP JUMPDEST PUSH2 0xA5C PUSH2 0xABC JUMP JUMPDEST PUSH1 0x1 PUSH1 0x1 PUSH1 0xA0 SHL SUB DUP2 AND PUSH2 0xA86 JUMPI PUSH1 0x40 MLOAD PUSH4 0x1E4FBDF7 PUSH1 0xE0 SHL DUP2 MSTORE PUSH1 0x0 PUSH1 0x4 DUP3 ADD MSTORE PUSH1 0x24 ADD PUSH2 0x4DD JUMP JUMPDEST PUSH2 0xA8F DUP2 PUSH2 0xAE9 JUMP JUMPDEST POP JUMP JUMPDEST PUSH2 0xA9A PUSH2 0xABC JUMP JUMPDEST PUSH1 0x1 DUP1 SLOAD PUSH1 0x1 PUSH1 0x1 PUSH1 0xA0 SHL SUB NOT AND PUSH1 0x1 PUSH1 0x1 PUSH1 0xA0 SHL SUB SWAP3 SWAP1 SWAP3 AND SWAP2 SWAP1 SWAP2 OR SWAP1 SSTORE JUMP JUMPDEST PUSH1 0x0 SLOAD PUSH1 0x1 PUSH1 0x1 PUSH1 0xA0 SHL SUB AND CALLER EQ PUSH2 0x46D JUMPI PUSH1 0x40 MLOAD PUSH4 0x118CDAA7 PUSH1 0xE0 SHL DUP2 MSTORE CALLER PUSH1 0x4 DUP3 ADD MSTORE PUSH1 0x24 ADD PUSH2 0x4DD JUMP JUMPDEST PUSH1 0x0 DUP1 SLOAD PUSH1 0x1 PUSH1 0x1 PUSH1 0xA0 SHL SUB DUP4 DUP2 AND PUSH1 0x1 PUSH1 0x1 PUSH1 0xA0 SHL SUB NOT DUP4 AND DUP2 OR DUP5 SSTORE PUSH1 0x40 MLOAD SWAP2 SWAP1 SWAP3 AND SWAP3 DUP4 SWAP2 PUSH32 0x8BE0079C531659141344CD1FD0A4F28419497F9722A3DAAFE3B4186F6B6457E0 SWAP2 SWAP1 LOG3 POP POP JUMP JUMPDEST PUSH1 0x1 PUSH1 0x1 PUSH1 0xA0 SHL SUB DUP3 AND PUSH1 0x0 SWAP1 DUP2 MSTORE PUSH1 0x2 PUSH1 0x20 MSTORE PUSH1 0x40 DUP2 KECCAK256 SLOAD DUP2 PUSH2 0xB5D DUP5 DUP4 PUSH2 0xEFF JUMP JUMPDEST SWAP1 POP PUSH1 0x0 PUSH2 0xB6B DUP4 DUP4 PUSH2 0x937 JUMP JUMPDEST PUSH1 0x1 PUSH1 0x1 PUSH1 0xA0 SHL SUB DUP8 AND PUSH1 0x0 SWAP1 DUP2 MSTORE PUSH1 0x2 PUSH1 0x20 SWAP1 DUP2 MSTORE PUSH1 0x40 DUP1 DUP4 KECCAK256 DUP7 SWAP1 SSTORE PUSH1 0x3 SWAP1 SWAP2 MSTORE DUP2 KECCAK256 DUP1 SLOAD SWAP3 SWAP4 POP DUP4 SWAP3 SWAP1 SWAP2 SWAP1 PUSH2 0xBA5 SWAP1 DUP5 SWAP1 PUSH2 0xEFF JUMP JUMPDEST SWAP1 SWAP2 SSTORE POP POP PUSH1 0x1 PUSH1 0x1 PUSH1 0xA0 SHL SUB DUP7 AND PUSH1 0x0 DUP2 DUP2 MSTORE PUSH1 0x3 PUSH1 0x20 SWAP1 DUP2 MSTORE PUSH1 0x40 SWAP2 DUP3 SWAP1 KECCAK256 SLOAD DUP3 MLOAD DUP6 DUP2 MSTORE SWAP2 DUP3 ADD DUP7 SWAP1 MSTORE DUP2 DUP4 ADD MSTORE SWAP1 MLOAD PUSH32 0x53F3AD2FD40A9F84E221858C8242CE2E4A5F164C3A550D1E3A70E53123A402FA SWAP2 DUP2 SWAP1 SUB PUSH1 0x60 ADD SWAP1 LOG2 SWAP6 SWAP5 POP POP POP POP POP JUMP JUMPDEST PUSH1 0x1 PUSH1 0x1 PUSH1 0xA0 SHL SUB DUP2 AND DUP2 EQ PUSH2 0xA8F JUMPI PUSH1 0x0 DUP1 REVERT JUMPDEST PUSH1 0x0 PUSH1 0x20 DUP3 DUP5 SUB SLT ISZERO PUSH2 0xC32 JUMPI PUSH1 0x0 DUP1 REVERT JUMPDEST DUP2 CALLDATALOAD PUSH2 0xC3D DUP2 PUSH2 0xC0B JUMP JUMPDEST SWAP4 SWAP3 POP POP POP JUMP JUMPDEST PUSH1 0x0 PUSH1 0x20 DUP3 DUP5 SUB SLT ISZERO PUSH2 0xC56 JUMPI PUSH1 0x0 DUP1 REVERT JUMPDEST POP CALLDATALOAD SWAP2 SWAP1 POP JUMP JUMPDEST PUSH1 0x0 DUP1 PUSH1 0x40 DUP4 DUP6 SUB SLT ISZERO PUSH2 0xC70 JUMPI PUSH1 0x0 DUP1 REVERT JUMPDEST DUP3 CALLDATALOAD PUSH2 0xC7B DUP2 PUSH2 0xC0B JUMP JUMPDEST SWAP5 PUSH1 0x20 SWAP4 SWAP1 SWAP4 ADD CALLDATALOAD SWAP4 POP POP POP JUMP JUMPDEST PUSH1 0x0 DUP1 PUSH1 0x40 DUP4 DUP6 SUB SLT ISZERO PUSH2 0xC9C JUMPI PUSH1 0x0 DUP1 REVERT JUMPDEST POP POP DUP1 CALLDATALOAD SWAP3 PUSH1 0x20 SWAP1 SWAP2 ADD CALLDATALOAD SWAP2 POP JUMP JUMPDEST DUP1 MLOAD PUSH2 0x423 DUP2 PUSH2 0xC0B JUMP JUMPDEST PUSH4 0x4E487B71 PUSH1 0xE0 SHL PUSH1 0x0 MSTORE PUSH1 0x41 PUSH1 0x4 MSTORE PUSH1 0x24 PUSH1 0x0 REVERT JUMPDEST PUSH1 0x40 MLOAD PUSH1 0x1F DUP3 ADD PUSH1 0x1F NOT AND DUP2 ADD PUSH8 0xFFFFFFFFFFFFFFFF DUP2 GT DUP3 DUP3 LT OR ISZERO PUSH2 0xCF5 JUMPI PUSH2 0xCF5 PUSH2 0xCB6 JUMP JUMPDEST PUSH1 0x40 MSTORE SWAP2 SWAP1 POP JUMP JUMPDEST PUSH1 0x0 DUP3 PUSH1 0x1F DUP4 ADD SLT PUSH2 0xD0E JUMPI PUSH1 0x0 DUP1 REVERT JUMPDEST DUP2 MLOAD PUSH8 0xFFFFFFFFFFFFFFFF DUP2 GT ISZERO PUSH2 0xD28 JUMPI PUSH2 0xD28 PUSH2 0xCB6 JUMP JUMPDEST PUSH2 0xD3B PUSH1 0x1F DUP3 ADD PUSH1 0x1F NOT AND PUSH1 0x20 ADD PUSH2 0xCCC JUMP JUMPDEST DUP2 DUP2 MSTORE DUP5 PUSH1 0x20 DUP4 DUP7 ADD ADD GT ISZERO PUSH2 0xD50 JUMPI PUSH1 0x0 DUP1 REVERT JUMPDEST PUSH1 0x0 JUMPDEST DUP3 DUP2 LT ISZERO PUSH2 0xD6F JUMPI PUSH1 0x20 DUP2 DUP7 ADD DUP2 ADD MLOAD DUP4 DUP4 ADD DUP3 ADD MSTORE ADD PUSH2 0xD53 JUMP JUMPDEST POP PUSH1 0x0 SWAP2 DUP2 ADD PUSH1 0x20 ADD SWAP2 SWAP1 SWAP2 MSTORE SWAP4 SWAP3 POP POP POP JUMP JUMPDEST PUSH1 0x0 PUSH8 0xFFFFFFFFFFFFFFFF DUP3 GT ISZERO PUSH2 0xD9D JUMPI PUSH2 0xD9D PUSH2 0xCB6 JUMP JUMPDEST POP PUSH1 0x5 SHL PUSH1 0x20 ADD SWAP1 JUMP JUMPDEST PUSH1 0x0 DUP3 PUSH1 0x1F DUP4 ADD SLT PUSH2 0xDB8 JUMPI PUSH1 0x0 DUP1 REVERT JUMPDEST DUP2 MLOAD PUSH2 0xDCB PUSH2 0xDC6 DUP3 PUSH2 0xD83 JUMP JUMPDEST PUSH2 0xCCC JUMP JUMPDEST DUP1 DUP3 DUP3 MSTORE PUSH1 0x20 DUP3 ADD SWAP2 POP PUSH1 0x20 DUP4 PUSH1 0x5 SHL DUP7 ADD ADD SWAP3 POP DUP6 DUP4 GT ISZERO PUSH2 0xDED JUMPI PUSH1 0x0 DUP1 REVERT JUMPDEST PUSH1 0x20 DUP6 ADD JUMPDEST DUP4 DUP2 LT ISZERO PUSH2 0xE2F JUMPI DUP1 MLOAD PUSH8 0xFFFFFFFFFFFFFFFF DUP2 GT ISZERO PUSH2 0xE11 JUMPI PUSH1 0x0 DUP1 REVERT JUMPDEST PUSH2 0xE20 DUP9 PUSH1 0x20 DUP4 DUP11 ADD ADD PUSH2 0xCFD JUMP JUMPDEST DUP5 MSTORE POP PUSH1 0x20 SWAP3 DUP4 ADD SWAP3 ADD PUSH2 0xDF2 JUMP JUMPDEST POP SWAP6 SWAP5 POP POP POP POP POP JUMP JUMPDEST PUSH1 0x0 DUP1 PUSH1 0x0 DUP1 PUSH1 0x0 PUSH1 0xA0 DUP7 DUP9 SUB SLT ISZERO PUSH2 0xE51 JUMPI PUSH1 0x0 DUP1 REVERT JUMPDEST DUP6 MLOAD PUSH2 0xE5C DUP2 PUSH2 0xC0B JUMP JUMPDEST PUSH1 0x20 DUP8 ADD MLOAD SWAP1 SWAP6 POP PUSH8 0xFFFFFFFFFFFFFFFF DUP2 GT ISZERO PUSH2 0xE79 JUMPI PUSH1 0x0 DUP1 REVERT JUMPDEST PUSH2 0xE85 DUP9 DUP3 DUP10 ADD PUSH2 0xCFD JUMP JUMPDEST SWAP5 POP POP PUSH1 0x40 DUP7 ADD MLOAD PUSH2 0xE96 DUP2 PUSH2 0xC0B JUMP JUMPDEST PUSH1 0x60 DUP8 ADD MLOAD PUSH1 0x80 DUP9 ADD MLOAD SWAP2 SWAP5 POP SWAP3 POP PUSH8 0xFFFFFFFFFFFFFFFF DUP2 GT ISZERO PUSH2 0xEBA JUMPI PUSH1 0x0 DUP1 REVERT JUMPDEST PUSH2 0xEC6 DUP9 DUP3 DUP10 ADD PUSH2 0xDA7 JUMP JUMPDEST SWAP2 POP POP SWAP3 SWAP6 POP SWAP3 SWAP6 SWAP1 SWAP4 POP JUMP JUMPDEST PUSH4 0x4E487B71 PUSH1 0xE0 SHL PUSH1 0x0 MSTORE PUSH1 0x32 PUSH1 0x4 MSTORE PUSH1 0x24 PUSH1 0x0 REVERT JUMPDEST PUSH4 0x4E487B71 PUSH1 0xE0 SHL PUSH1 0x0 MSTORE PUSH1 0x11 PUSH1 0x4 MSTORE PUSH1 0x24 PUSH1 0x0 REVERT JUMPDEST DUP1 DUP3 ADD DUP1 DUP3 GT ISZERO PUSH2 0x577 JUMPI PUSH2 0x577 PUSH2 0xEE9 JUMP JUMPDEST PUSH1 0x0 DUP3 PUSH1 0x1F DUP4 ADD SLT PUSH2 0xF23 JUMPI PUSH1 0x0 DUP1 REVERT JUMPDEST DUP2 MLOAD PUSH2 0xF31 PUSH2 0xDC6 DUP3 PUSH2 0xD83 JUMP JUMPDEST DUP1 DUP3 DUP3 MSTORE PUSH1 0x20 DUP3 ADD SWAP2 POP PUSH1 0x20 DUP4 PUSH1 0x5 SHL DUP7 ADD ADD SWAP3 POP DUP6 DUP4 GT ISZERO PUSH2 0xF53 JUMPI PUSH1 0x0 DUP1 REVERT JUMPDEST PUSH1 0x20 DUP6 ADD JUMPDEST DUP4 DUP2 LT ISZERO PUSH2 0xE2F JUMPI DUP1 MLOAD PUSH2 0xF6B DUP2 PUSH2 0xC0B JUMP JUMPDEST DUP4 MSTORE PUSH1 0x20 SWAP3 DUP4 ADD SWAP3 ADD PUSH2 0xF58 JUMP JUMPDEST DUP1 MLOAD DUP1 ISZERO ISZERO DUP2 EQ PUSH2 0x423 JUMPI PUSH1 0x0 DUP1 REVERT JUMPDEST PUSH1 0x0 DUP1 PUSH1 0x0 DUP1 PUSH1 0x0 DUP1 PUSH1 0x0 DUP1 PUSH1 0x0 DUP1 PUSH1 0x0 PUSH2 0x160 DUP13 DUP15 SUB SLT ISZERO PUSH2 0xFAB JUMPI PUSH1 0x0 DUP1 REVERT JUMPDEST DUP12 MLOAD SWAP11 POP PUSH2 0xFBB PUSH1 0x20 DUP14 ADD PUSH2 0xCAB JUMP JUMPDEST SWAP10 POP PUSH1 0x40 DUP13 ADD MLOAD PUSH8 0xFFFFFFFFFFFFFFFF DUP2 GT ISZERO PUSH2 0xFD7 JUMPI PUSH1 0x0 DUP1 REVERT JUMPDEST PUSH2 0xFE3 DUP15 DUP3 DUP16 ADD PUSH2 0xF12 JUMP JUMPDEST SWAP10 POP POP PUSH1 0x60 DUP13 ADD MLOAD PUSH8 0xFFFFFFFFFFFFFFFF DUP2 GT ISZERO PUSH2 0x1000 JUMPI PUSH1 0x0 DUP1 REVERT JUMPDEST PUSH2 0x100C DUP15 DUP3 DUP16 ADD PUSH2 0xCFD JUMP JUMPDEST SWAP9 POP POP PUSH2 0x101B PUSH1 0x80 DUP14 ADD PUSH2 0xF79 JUMP JUMPDEST SWAP7 POP PUSH1 0xA0 DUP13 ADD MLOAD PUSH8 0xFFFFFFFFFFFFFFFF DUP2 GT ISZERO PUSH2 0x1037 JUMPI PUSH1 0x0 DUP1 REVERT JUMPDEST PUSH2 0x1043 DUP15 DUP3 DUP16 ADD PUSH2 0xDA7 JUMP JUMPDEST SWAP7 POP POP PUSH1 0x0 PUSH1 0xC0 DUP14 ADD MLOAD SWAP1 POP DUP1 SWAP6 POP POP PUSH1 0x0 PUSH1 0xE0 DUP14 ADD MLOAD SWAP1 POP DUP1 SWAP5 POP POP PUSH1 0x0 PUSH2 0x100 DUP14 ADD MLOAD SWAP1 POP DUP1 SWAP4 POP POP PUSH2 0x107B PUSH2 0x120 DUP14 ADD PUSH2 0xCAB JUMP JUMPDEST SWAP2 POP PUSH1 0x0 PUSH2 0x140 DUP14 ADD MLOAD SWAP1 POP DUP1 SWAP2 POP POP SWAP3 SWAP6 SWAP9 SWAP12 POP SWAP3 SWAP6 SWAP9 SWAP12 SWAP1 SWAP4 SWAP7 SWAP10 POP JUMP JUMPDEST PUSH1 0x0 DUP3 PUSH2 0x10B8 JUMPI PUSH4 0x4E487B71 PUSH1 0xE0 SHL PUSH1 0x0 MSTORE PUSH1 0x12 PUSH1 0x4 MSTORE PUSH1 0x24 PUSH1 0x0 REVERT JUMPDEST POP DIV SWAP1 JUMP JUMPDEST DUP2 DUP2 SUB DUP2 DUP2 GT ISZERO PUSH2 0x577 JUMPI PUSH2 0x577 PUSH2 0xEE9 JUMP JUMPDEST DUP1 DUP3 MUL DUP2 ISZERO DUP3 DUP3 DIV DUP5 EQ OR PUSH2 0x577 JUMPI PUSH2 0x577 PUSH2 0xEE9 JUMP JUMPDEST PUSH1 0x0 PUSH1 0x1 DUP3 ADD PUSH2 0x10F9 JUMPI PUSH2 0x10F9 PUSH2 0xEE9 JUMP JUMPDEST POP PUSH1 0x1 ADD SWAP1 JUMP INVALID LOG2 PUSH5 0x6970667358 0x22 SLT KECCAK256 0xCF 0xE9 0xFC 0x1F 0xB8 DUP14 0xB6 0xD6 0xD 0x26 SGT DUP8 0x4C 0xBC 0xDD DUP7 PUSH22 0xDDAFA9300EE6DD66013E5A3DBB31764736F6C634300 ADDMOD SHR STOP CALLER "
		},
		"gasEstimates": {
			"creation": {
				"codeDepositCost": "881200",
				"executionCost": "infinite",
				"totalCost": "infinite"
			},
			"external": {
				"calculateTokensForAmount(address,uint256)": "infinite",
				"calculateTokensForRange(uint256,uint256)": "infinite",
				"getJobTotalPaid(uint256)": "2495",
				"getReferrer(address)": "infinite",
				"getRewardBand(uint256)": "11219",
				"getRewardBandsCount()": "2294",
				"getUserCumulativeEarnings(address)": "2566",
				"getUserTotalOWTokens(address)": "2543",
				"jobContract()": "2382",
				"jobProcessed(uint256)": "2561",
				"jobTotalPaid(uint256)": "2517",
				"owner()": "2354",
				"renounceOwnership()": "infinite",
				"rewardBands(uint256)": "8903",
				"setJobContract(address)": "26817",
				"transferOwnership(address)": "infinite",
				"updateRewards(uint256,uint256)": "infinite",
				"updateUserCumulativeEarnings(address,uint256)": "24763",
				"updateUserTotalOWTokens(address,uint256)": "24763",
				"userCumulativeEarnings(address)": "2569",
				"userTotalOWTokens(address)": "2546"
			},
			"internal": {
				"_initializeRewardBands()": "infinite",
				"calculateAndUpdateTokens(address,uint256)": "infinite"
			}
		},
		"methodIdentifiers": {
			"calculateTokensForAmount(address,uint256)": "94928b84",
			"calculateTokensForRange(uint256,uint256)": "ba69e410",
			"getJobTotalPaid(uint256)": "272e5a52",
			"getReferrer(address)": "4a9fefc7",
			"getRewardBand(uint256)": "81d920ec",
			"getRewardBandsCount()": "22834ddb",
			"getUserCumulativeEarnings(address)": "2330ce70",
			"getUserTotalOWTokens(address)": "5183d667",
			"jobContract()": "afd86a76",
			"jobProcessed(uint256)": "ac16ba1d",
			"jobTotalPaid(uint256)": "2ebd9978",
			"owner()": "8da5cb5b",
			"renounceOwnership()": "715018a6",
			"rewardBands(uint256)": "6a55b7ca",
			"setJobContract(address)": "fad58b21",
			"transferOwnership(address)": "f2fde38b",
			"updateRewards(uint256,uint256)": "97e50818",
			"updateUserCumulativeEarnings(address,uint256)": "9bd8bd9e",
			"updateUserTotalOWTokens(address,uint256)": "7e1fdbe8",
			"userCumulativeEarnings(address)": "b014dc11",
			"userTotalOWTokens(address)": "f10f9a69"
		}
	},
	"abi": [
		{
			"inputs": [
				{
					"internalType": "address",
					"name": "_owner",
					"type": "address"
				}
			],
			"stateMutability": "nonpayable",
			"type": "constructor"
		},
		{
			"inputs": [
				{
					"internalType": "address",
					"name": "owner",
					"type": "address"
				}
			],
			"name": "OwnableInvalidOwner",
			"type": "error"
		},
		{
			"inputs": [
				{
					"internalType": "address",
					"name": "account",
					"type": "address"
				}
			],
			"name": "OwnableUnauthorizedAccount",
			"type": "error"
		},
		{
			"anonymous": false,
			"inputs": [
				{
					"indexed": true,
					"internalType": "address",
					"name": "previousOwner",
					"type": "address"
				},
				{
					"indexed": true,
					"internalType": "address",
					"name": "newOwner",
					"type": "address"
				}
			],
			"name": "OwnershipTransferred",
			"type": "event"
		},
		{
			"anonymous": false,
			"inputs": [
				{
					"indexed": true,
					"internalType": "uint256",
					"name": "jobId",
					"type": "uint256"
				},
				{
					"indexed": false,
					"internalType": "uint256",
					"name": "paidAmountUSDT",
					"type": "uint256"
				},
				{
					"indexed": true,
					"internalType": "address",
					"name": "jobGiver",
					"type": "address"
				},
				{
					"indexed": true,
					"internalType": "address",
					"name": "jobTaker",
					"type": "address"
				},
				{
					"indexed": false,
					"internalType": "uint256",
					"name": "jobGiverTokens",
					"type": "uint256"
				},
				{
					"indexed": false,
					"internalType": "uint256",
					"name": "jobTakerTokens",
					"type": "uint256"
				}
			],
			"name": "RewardsUpdated",
			"type": "event"
		},
		{
			"anonymous": false,
			"inputs": [
				{
					"indexed": true,
					"internalType": "address",
					"name": "user",
					"type": "address"
				},
				{
					"indexed": false,
					"internalType": "uint256",
					"name": "tokensEarned",
					"type": "uint256"
				},
				{
					"indexed": false,
					"internalType": "uint256",
					"name": "newCumulativeEarnings",
					"type": "uint256"
				},
				{
					"indexed": false,
					"internalType": "uint256",
					"name": "newTotalTokens",
					"type": "uint256"
				}
			],
			"name": "TokensEarned",
			"type": "event"
		},
		{
			"inputs": [
				{
					"internalType": "address",
					"name": "user",
					"type": "address"
				},
				{
					"internalType": "uint256",
					"name": "additionalAmount",
					"type": "uint256"
				}
			],
			"name": "calculateTokensForAmount",
			"outputs": [
				{
					"internalType": "uint256",
					"name": "",
					"type": "uint256"
				}
			],
			"stateMutability": "view",
			"type": "function"
		},
		{
			"inputs": [
				{
					"internalType": "uint256",
					"name": "fromAmount",
					"type": "uint256"
				},
				{
					"internalType": "uint256",
					"name": "toAmount",
					"type": "uint256"
				}
			],
			"name": "calculateTokensForRange",
			"outputs": [
				{
					"internalType": "uint256",
					"name": "",
					"type": "uint256"
				}
			],
			"stateMutability": "view",
			"type": "function"
		},
		{
			"inputs": [
				{
					"internalType": "uint256",
					"name": "jobId",
					"type": "uint256"
				}
			],
			"name": "getJobTotalPaid",
			"outputs": [
				{
					"internalType": "uint256",
					"name": "",
					"type": "uint256"
				}
			],
			"stateMutability": "view",
			"type": "function"
		},
		{
			"inputs": [
				{
					"internalType": "address",
					"name": "user",
					"type": "address"
				}
			],
			"name": "getReferrer",
			"outputs": [
				{
					"internalType": "address",
					"name": "",
					"type": "address"
				}
			],
			"stateMutability": "view",
			"type": "function"
		},
		{
			"inputs": [
				{
					"internalType": "uint256",
					"name": "index",
					"type": "uint256"
				}
			],
			"name": "getRewardBand",
			"outputs": [
				{
					"internalType": "uint256",
					"name": "minAmount",
					"type": "uint256"
				},
				{
					"internalType": "uint256",
					"name": "maxAmount",
					"type": "uint256"
				},
				{
					"internalType": "uint256",
					"name": "owPerDollar",
					"type": "uint256"
				}
			],
			"stateMutability": "view",
			"type": "function"
		},
		{
			"inputs": [],
			"name": "getRewardBandsCount",
			"outputs": [
				{
					"internalType": "uint256",
					"name": "",
					"type": "uint256"
				}
			],
			"stateMutability": "view",
			"type": "function"
		},
		{
			"inputs": [
				{
					"internalType": "address",
					"name": "user",
					"type": "address"
				}
			],
			"name": "getUserCumulativeEarnings",
			"outputs": [
				{
					"internalType": "uint256",
					"name": "",
					"type": "uint256"
				}
			],
			"stateMutability": "view",
			"type": "function"
		},
		{
			"inputs": [
				{
					"internalType": "address",
					"name": "user",
					"type": "address"
				}
			],
			"name": "getUserTotalOWTokens",
			"outputs": [
				{
					"internalType": "uint256",
					"name": "",
					"type": "uint256"
				}
			],
			"stateMutability": "view",
			"type": "function"
		},
		{
			"inputs": [],
			"name": "jobContract",
			"outputs": [
				{
					"internalType": "contract IJobContract",
					"name": "",
					"type": "address"
				}
			],
			"stateMutability": "view",
			"type": "function"
		},
		{
			"inputs": [
				{
					"internalType": "uint256",
					"name": "",
					"type": "uint256"
				}
			],
			"name": "jobProcessed",
			"outputs": [
				{
					"internalType": "bool",
					"name": "",
					"type": "bool"
				}
			],
			"stateMutability": "view",
			"type": "function"
		},
		{
			"inputs": [
				{
					"internalType": "uint256",
					"name": "",
					"type": "uint256"
				}
			],
			"name": "jobTotalPaid",
			"outputs": [
				{
					"internalType": "uint256",
					"name": "",
					"type": "uint256"
				}
			],
			"stateMutability": "view",
			"type": "function"
		},
		{
			"inputs": [],
			"name": "owner",
			"outputs": [
				{
					"internalType": "address",
					"name": "",
					"type": "address"
				}
			],
			"stateMutability": "view",
			"type": "function"
		},
		{
			"inputs": [],
			"name": "renounceOwnership",
			"outputs": [],
			"stateMutability": "nonpayable",
			"type": "function"
		},
		{
			"inputs": [
				{
					"internalType": "uint256",
					"name": "",
					"type": "uint256"
				}
			],
			"name": "rewardBands",
			"outputs": [
				{
					"internalType": "uint256",
					"name": "minAmount",
					"type": "uint256"
				},
				{
					"internalType": "uint256",
					"name": "maxAmount",
					"type": "uint256"
				},
				{
					"internalType": "uint256",
					"name": "owPerDollar",
					"type": "uint256"
				}
			],
			"stateMutability": "view",
			"type": "function"
		},
		{
			"inputs": [
				{
					"internalType": "address",
					"name": "_jobContract",
					"type": "address"
				}
			],
			"name": "setJobContract",
			"outputs": [],
			"stateMutability": "nonpayable",
			"type": "function"
		},
		{
			"inputs": [
				{
					"internalType": "address",
					"name": "newOwner",
					"type": "address"
				}
			],
			"name": "transferOwnership",
			"outputs": [],
			"stateMutability": "nonpayable",
			"type": "function"
		},
		{
			"inputs": [
				{
					"internalType": "uint256",
					"name": "jobId",
					"type": "uint256"
				},
				{
					"internalType": "uint256",
					"name": "paidAmountUSDT",
					"type": "uint256"
				}
			],
			"name": "updateRewards",
			"outputs": [],
			"stateMutability": "nonpayable",
			"type": "function"
		},
		{
			"inputs": [
				{
					"internalType": "address",
					"name": "user",
					"type": "address"
				},
				{
					"internalType": "uint256",
					"name": "newAmount",
					"type": "uint256"
				}
			],
			"name": "updateUserCumulativeEarnings",
			"outputs": [],
			"stateMutability": "nonpayable",
			"type": "function"
		},
		{
			"inputs": [
				{
					"internalType": "address",
					"name": "user",
					"type": "address"
				},
				{
					"internalType": "uint256",
					"name": "newAmount",
					"type": "uint256"
				}
			],
			"name": "updateUserTotalOWTokens",
			"outputs": [],
			"stateMutability": "nonpayable",
			"type": "function"
		},
		{
			"inputs": [
				{
					"internalType": "address",
					"name": "",
					"type": "address"
				}
			],
			"name": "userCumulativeEarnings",
			"outputs": [
				{
					"internalType": "uint256",
					"name": "",
					"type": "uint256"
				}
			],
			"stateMutability": "view",
			"type": "function"
		},
		{
			"inputs": [
				{
					"internalType": "address",
					"name": "",
					"type": "address"
				}
			],
			"name": "userTotalOWTokens",
			"outputs": [
				{
					"internalType": "uint256",
					"name": "",
					"type": "uint256"
				}
			],
			"stateMutability": "view",
			"type": "function"
		}
	]
}