{
	"data": {
		"bytecode": {
			"linkReferences": {},
			"object": "60a06040523060805234801561001457600080fd5b5061001d610022565b6100d4565b7ff0c57e16840df040f15088dc2f81fe391c3923bec73e23a9662efc9c229c6a00805468010000000000000000900460ff16156100725760405163f92ee8a960e01b815260040160405180910390fd5b80546001600160401b03908116146100d15780546001600160401b0319166001600160401b0390811782556040519081527fc7f505b2f371ae2175ee4913f4499e1f2633a7b5936321eed1cdaeb6115181d29060200160405180910390a15b50565b60805161250d6100fd60003960008181611cd201528181611cfb0152611e60015261250d6000f3fe6080604052600436106102045760003560e01c80637f0ebb0311610118578063b7277bc8116100a0578063cdc87f681161006f578063cdc87f6814610736578063f2fde38b14610757578063f6814da714610777578063f6ed201714610797578063ffd9888f146107cd57600080fd5b8063b7277bc81461068d578063b9e35db0146106bd578063bd2d3aa2146106f6578063c03d55a51461071657600080fd5b80639b1df017116100e75780639b1df017146105cf5780639d6b522a146105ef578063ad1b3feb1461060f578063ad3cb1cc1461062f578063b3e265661461066d57600080fd5b80637f0ebb031461050157806388105f6b146105215780638da5cb5b1461054157806393632a6f1461059257600080fd5b80634f1ef2861161019b57806366219a001161016a57806366219a00146104305780636a55b7ca14610450578063715018a61461048c578063718431d1146104a15780637d548c64146104d157600080fd5b80634f1ef286146103c857806350cf7279146103db57806352d1902d146103fb578063608e4dd01461041057600080fd5b8063372500ab116101d7578063372500ab146102e55780633b7b6188146102fa578063485cc9551461031a5780634e43603a1461033a57600080fd5b80630660f1e8146102095780632415d840146102805780632557d6b9146102a25780632e0f2625146102c2575b600080fd5b34801561021557600080fd5b506102536102243660046120f0565b603660205260009081526040902080546001820154600283015460038401546004909401549293919290919085565b604080519586526020860194909452928401919091526060830152608082015260a0015b60405180910390f35b34801561028c57600080fd5b506102a061029b3660046120f0565b6107ed565b005b3480156102ae57600080fd5b506102a06102bd36600461210b565b610864565b3480156102ce57600080fd5b506102d7600681565b604051908152602001610277565b3480156102f157600080fd5b506102a0610913565b34801561030657600080fd5b506102a061031536600461213d565b610abd565b34801561032657600080fd5b506102a061033536600461215f565b610b28565b34801561034657600080fd5b506103ad6103553660046120f0565b6001600160a01b0316600090815260366020908152604091829020825160a081018452815480825260018301549382018490526002830154948201859052600383015460608301526004909201546080909101529192565b60408051938452602084019290925290820152606001610277565b6102a06103d63660046121a8565b6112d4565b3480156103e757600080fd5b506102a06103f63660046120f0565b6112f3565b34801561040757600080fd5b506102d7611365565b34801561041c57600080fd5b506102a061042b366004612272565b610acf565b34801561043c57600080fd5b506102d761044b36600461228b565b611394565b34801561045c57600080fd5b506103ad61046b366004612272565b60396020526000908152604090208054600182015460029092015490919083565b34801561049857600080fd5b506102a0611579565b3480156104ad57600080fd5b506104c16104bc3660046122c0565b61158b565b6040519015158152602001610277565b3480156104dd57600080fd5b506104c16104ec366004612272565b60386020526000908152604090205460ff1681565b34801561050d57600080fd5b506102a061051c3660046120f0565b6115b0565b34801561052d57600080fd5b506102a061053c3660046120f0565b611622565b34801561054d57600080fd5b507f9016d09d72d40fdae2fd8ceac6b6234c7706214fd39c1cd1e609a0528c199300546001600160a01b03165b6040516001600160a01b039091168152602001610277565b34801561059e57600080fd5b506104c16105ad3660046122c0565b6001600160a01b03919091166000908152603660205260409020600201541190565b3480156105db57600080fd5b506102a06105ea3660046122c0565b611694565b3480156105fb57600080fd5b506102d761060a366004612272565b6117b9565b34801561061b57600080fd5b506102a061062a3660046122c0565b611833565b34801561063b57600080fd5b50610660604051806040016040528060058152602001640352e302e360dc1b81525081565b604051610277919061233a565b34801561067957600080fd5b5060325461057a906001600160a01b031681565b34801561069957600080fd5b506104c16106a8366004612272565b60376020526000908152604090205460ff1681565b3480156106c957600080fd5b506102d76106d83660046120f0565b6001600160a01b031660009081526036602052604090206001015490565b34801561070257600080fd5b5060335461057a906001600160a01b031681565b34801561072257600080fd5b506102d7610731366004612272565b6118b7565b34801561074257600080fd5b506102d76107513660046120f0565b50600090565b34801561076357600080fd5b506102a06107723660046120f0565b6118c2565b34801561078357600080fd5b5060345461057a906001600160a01b031681565b3480156107a357600080fd5b506102d76107b23660046120f0565b6001600160a01b031660009081526036602052604090205490565b3480156107d957600080fd5b50603a5461057a906001600160a01b031681565b6107f5611900565b6001600160a01b0381166108425760405162461bcd60e51b815260206004820152600f60248201526e496e76616c6964206164647265737360881b60448201526064015b60405180910390fd5b603480546001600160a01b0319166001600160a01b0392909216919091179055565b61086c611900565b60355484106108b25760405162461bcd60e51b8152602060048201526012602482015271092dcecc2d8d2c840c4c2dcc840d2dcc8caf60731b6044820152606401610839565b8183106109015760405162461bcd60e51b815260206004820152601960248201527f4d696e206d757374206265206c657373207468616e206d6178000000000000006044820152606401610839565b61090d8484848461195b565b50505050565b61091b6119f7565b33600081815260366020526040902080548061096f5760405162461bcd60e51b81526020600482015260136024820152724e6f207265776172647320746f20636c61696d60681b6044820152606401610839565b6000808355600183018054839290610988908490612363565b90915550504260048301556032546001600160a01b031615610a5757604080516001600160a01b038581166020830152818301849052825180830384018152606083019384905260325463104c8d4b60e31b909452926000929116906382646a58906109f890859060640161233a565b6020604051808303816000875af1158015610a17573d6000803e3d6000fd5b505050506040513d601f19601f82011682018060405250810190610a3b9190612376565b6000908152603860205260409020805460ff1916600117905550505b826001600160a01b03167ffc30cddea38e2bf4d6ea7d3f9ed3b6ad7f176419f4963bd81318067a4aee73fe82604051610a9291815260200190565b60405180910390a2610aae83610aa9600a8461238f565b611a50565b505050610abb6001600055565b565b600082118015610acd5750600081115b505b60405162461bcd60e51b815260206004820152602860248201527f5374616b696e67206e6f7420696d706c656d656e74656420696e20746869732060448201526718dbdb9d1c9858dd60c21b6064820152608401610839565b6000610b32611c04565b805490915060ff600160401b820416159067ffffffffffffffff16600081158015610b5a5750825b905060008267ffffffffffffffff166001148015610b775750303b155b905081158015610b85575080155b15610ba35760405163f92ee8a960e01b815260040160405180910390fd5b845467ffffffffffffffff191660011785558315610bcd57845460ff60401b1916600160401b1785555b6001600160a01b038716610c235760405162461bcd60e51b815260206004820152601560248201527f496e76616c6964206f776e6572206164647265737300000000000000000000006044820152606401610839565b6001600160a01b038616610c795760405162461bcd60e51b815260206004820152601a60248201527f496e76616c6964206a6f62206d61726b657420616464726573730000000000006044820152606401610839565b610c8233611c2d565b610c8a611c3e565b610c92611c4e565b610c9b87611c56565b603a80546001600160a01b0319166001600160a01b038816179055610cef600080610cc86006600a612498565b610cd39060646124a4565b610cdf6006600a612498565b610cea9060056124a4565b61195b565b610d3a6001610d006006600a612498565b610d0b9060646124a4565b610d176006600a612498565b610d239061012c6124a4565b610d2f6006600a612498565b610cea90600f6124a4565b610d866002610d4b6006600a612498565b610d579061012c6124a4565b610d636006600a612498565b610d6f906101f46124a4565b610d7b6006600a612498565b610cea9060196124a4565b610dd26003610d976006600a612498565b610da3906101f46124a4565b610daf6006600a612498565b610dbb906103e86124a4565b610dc76006600a612498565b610cea9060326124a4565b610e1e6004610de36006600a612498565b610def906103e86124a4565b610dfb6006600a612498565b610e07906105dc6124a4565b610e136006600a612498565b610cea90604b6124a4565b610e6a6005610e2f6006600a612498565b610e3b906105dc6124a4565b610e476006600a612498565b610e53906107d06124a4565b610e5f6006600a612498565b610cea9060646124a4565b610eb56006610e7a81600a612498565b610e86906107d06124a4565b610e926006600a612498565b610e9e906109c46124a4565b610eaa6006600a612498565b610cea90607d6124a4565b610f016007610ec66006600a612498565b610ed2906109c46124a4565b610ede6006600a612498565b610eea90610bb86124a4565b610ef66006600a612498565b610cea9060966124a4565b610f4d6008610f126006600a612498565b610f1e90610bb86124a4565b610f2a6006600a612498565b610f3690610fa06124a4565b610f426006600a612498565b610cea9060c86124a4565b610f996009610f5e6006600a612498565b610f6a90610fa06124a4565b610f766006600a612498565b610f82906113886124a4565b610f8e6006600a612498565b610cea9060fa6124a4565b610fe5600a610fa9600682612498565b610fb5906113886124a4565b610fc16006600a612498565b610fcd906117706124a4565b610fd96006600a612498565b610cea9061012c6124a4565b611032600b610ff66006600a612498565b611002906117706124a4565b61100e6006600a612498565b61101a90611b586124a4565b6110266006600a612498565b610cea9061015e6124a4565b61107f600c6110436006600a612498565b61104f90611b586124a4565b61105b6006600a612498565b61106790611f406124a4565b6110736006600a612498565b610cea906101906124a4565b6110cc600d6110906006600a612498565b61109c90611f406124a4565b6110a86006600a612498565b6110b4906123286124a4565b6110c06006600a612498565b610cea906101c26124a4565b611119600e6110dd6006600a612498565b6110e9906123286124a4565b6110f56006600a612498565b611101906127106124a4565b61110d6006600a612498565b610cea906101f46124a4565b611166600f61112a6006600a612498565b611136906127106124a4565b6111426006600a612498565b61114e90613a986124a4565b61115a6006600a612498565b610cea906102ee6124a4565b6111b360106111776006600a612498565b61118390613a986124a4565b61118f6006600a612498565b61119b90614e206124a4565b6111a76006600a612498565b610cea906103e86124a4565b61120060116111c46006600a612498565b6111d090614e206124a4565b6111dc6006600a612498565b6111e8906175306124a4565b6111f46006600a612498565b610cea906105dc6124a4565b61124d60126112116006600a612498565b61121d906175306124a4565b6112296006600a612498565b6112359061c3506124a4565b6112416006600a612498565b610cea906109c46124a4565b611285601361125e6006600a612498565b61126a9061c3506124a4565b6000196112796006600a612498565b610cea90610fa06124a4565b83156112cb57845460ff60401b19168555604051600181527fc7f505b2f371ae2175ee4913f4499e1f2633a7b5936321eed1cdaeb6115181d29060200160405180910390a15b50505050505050565b6112dc611cc7565b6112e582611d7e565b6112ef8282611d86565b5050565b6112fb611900565b6001600160a01b0381166113435760405162461bcd60e51b815260206004820152600f60248201526e496e76616c6964206164647265737360881b6044820152606401610839565b603380546001600160a01b0319166001600160a01b0392909216919091179055565b600061136f611e55565b507f360894a13ba1a3210667c828492db98dca3e2076cc3735a920a3ca505d382bbc90565b600061139e6119f7565b603a546001600160a01b031633146113f85760405162461bcd60e51b815260206004820181905260248201527f4f6e6c79204a6f624d61726b657420636f6e74726163742063616e2063616c6c6044820152606401610839565b60008481526037602052604090205460ff16156114575760405162461bcd60e51b815260206004820152601560248201527f4a6f6220616c72656164792070726f63657373656400000000000000000000006044820152606401610839565b6001600160a01b0382166114a15760405162461bcd60e51b8152602060048201526011602482015270125b9d985b1a59081c9958da5c1a595b9d607a1b6044820152606401610839565b6114aa836117b9565b6001600160a01b0383166000908152603660205260408120805492935091839183916114d7908490612363565b9250508190555060018160020160008282546114f39190612363565b909155505042600382015560008581526037602052604090819020805460ff19166001179055516001600160a01b0384169086907f8563182a6d6478c8bc8164ac771bee11cd3bfafd0b73d5b1d6b8102ee44575089061155f9088908790918252602082015260400190565b60405180910390a3506115726001600055565b9392505050565b611581611900565b610abb6000611c56565b60006001600160a01b038316158015906115a55750600082115b505060015b92915050565b6115b8611900565b6001600160a01b0381166116005760405162461bcd60e51b815260206004820152600f60248201526e496e76616c6964206164647265737360881b6044820152606401610839565b603280546001600160a01b0319166001600160a01b0392909216919091179055565b61162a611900565b6001600160a01b0381166116725760405162461bcd60e51b815260206004820152600f60248201526e496e76616c6964206164647265737360881b6044820152606401610839565b603a80546001600160a01b0319166001600160a01b0392909216919091179055565b603a546001600160a01b031633146116ee5760405162461bcd60e51b815260206004820181905260248201527f4f6e6c79204a6f624d61726b657420636f6e74726163742063616e2063616c6c6044820152606401610839565b6001600160a01b0382166117445760405162461bcd60e51b815260206004820152601460248201527f496e76616c6964207573657220616464726573730000000000000000000000006044820152606401610839565b6001600160a01b0382166000908152603660205260408120805490918391839190611770908490612363565b90915550506040518281526001600160a01b038416907f1e3c6a120ccc93a72cdb446d81242f41580d6977f954e38ad8b184995ffaa674906020015b60405180910390a2505050565b6000805b60355481101561182a57600081815260396020908152604091829020825160608101845281548082526001830154938201939093526002909101549281019290925284108015906118115750806020015184105b1561182157604001519392505050565b506001016117bd565b50600092915050565b603a546001600160a01b031633148061185657506033546001600160a01b031633145b6118ad5760405162461bcd60e51b815260206004820152602260248201527f4f6e6c7920617574686f72697a656420636f6e7472616374732063616e2063616044820152611b1b60f21b6064820152608401610839565b6112ef8282611a50565b60006115aa826117b9565b6118ca611900565b6001600160a01b0381166118f457604051631e4fbdf760e01b815260006004820152602401610839565b6118fd81611c56565b50565b336119327f9016d09d72d40fdae2fd8ceac6b6234c7706214fd39c1cd1e609a0528c199300546001600160a01b031690565b6001600160a01b031614610abb5760405163118cdaa760e01b8152336004820152602401610839565b603554841061197257611972603580546001019055565b6040805160608082018352858252602080830186815283850186815260008a8152603984528690209451855590516001850155516002909301929092558251878152918201869052818301859052810183905290517faa53b9e0177be60613500ae23d39bde30eb5e4cb18b7ea4b9d7085237df8ac8f9181900360800190a150505050565b600260005403611a495760405162461bcd60e51b815260206004820152601f60248201527f5265656e7472616e637947756172643a207265656e7472616e742063616c6c006044820152606401610839565b6002600055565b6034546001600160a01b031615611b0d576034546040516334a3602160e01b81526001600160a01b03848116600483015260248201849052909116906334a3602190604401600060405180830381600087803b158015611aaf57600080fd5b505af1925050508015611ac0575060015b15611b0d575b816001600160a01b03167f4d7518945787ec56ab0988ce8b3a7d06779c9b81c4b50755c40ef8afee4e57f482604051611b0191815260200190565b60405180910390a25050565b6033546001600160a01b031615611ac6576033546040516001600160a01b038481166024830152600092169060440160408051601f198184030181529181526020820180516001600160e01b031663369eca8f60e21b17905251611b7191906124bb565b6000604051808303816000865af19150503d8060008114611bae576040519150601f19603f3d011682016040523d82523d6000602084013e611bb3565b606091505b505090508015611bf857826001600160a01b03167f4d7518945787ec56ab0988ce8b3a7d06779c9b81c4b50755c40ef8afee4e57f4836040516117ac91815260200190565b505050565b6001600055565b6000807ff0c57e16840df040f15088dc2f81fe391c3923bec73e23a9662efc9c229c6a006115aa565b611c35611e9e565b6118fd81611ec3565b611c46611e9e565b610abb611ecb565b610abb611e9e565b7f9016d09d72d40fdae2fd8ceac6b6234c7706214fd39c1cd1e609a0528c19930080546001600160a01b031981166001600160a01b03848116918217845560405192169182907f8be0079c531659141344cd1fd0a4f28419497f9722a3daafe3b4186f6b6457e090600090a3505050565b306001600160a01b037f0000000000000000000000000000000000000000000000000000000000000000161480611d6057507f00000000000000000000000000000000000000000000000000000000000000006001600160a01b0316611d547f360894a13ba1a3210667c828492db98dca3e2076cc3735a920a3ca505d382bbc546001600160a01b031690565b6001600160a01b031614155b15610abb5760405163703e46dd60e11b815260040160405180910390fd5b6118fd611900565b816001600160a01b03166352d1902d6040518163ffffffff1660e01b8152600401602060405180830381865afa925050508015611de0575060408051601f3d908101601f19168201909252611ddd91810190612376565b60015b611e0857604051634c9c8ce360e01b81526001600160a01b0383166004820152602401610839565b7f360894a13ba1a3210667c828492db98dca3e2076cc3735a920a3ca505d382bbc8114611e4b57604051632a87526960e21b815260048101829052602401610839565b611bf88383611ed3565b306001600160a01b037f00000000000000000000000000000000000000000000000000000000000000001614610abb5760405163703e46dd60e11b815260040160405180910390fd5b611ea6611f29565b610abb57604051631afcd79f60e31b815260040160405180910390fd5b6118ca611e9e565b611bfd611e9e565b611edc82611f43565b6040516001600160a01b038316907fbc7cd75a20ee27fd9adebab32041f755214dbc6bffa90cc0225b39da2e5c2d3b90600090a2805115611f2157611bf88282611fba565b6112ef612030565b6000611f33611c04565b54600160401b900460ff16919050565b806001600160a01b03163b600003611f7957604051634c9c8ce360e01b81526001600160a01b0382166004820152602401610839565b7f360894a13ba1a3210667c828492db98dca3e2076cc3735a920a3ca505d382bbc80546001600160a01b0319166001600160a01b0392909216919091179055565b6060600080846001600160a01b031684604051611fd791906124bb565b600060405180830381855af49150503d8060008114612012576040519150601f19603f3d011682016040523d82523d6000602084013e612017565b606091505b509150915061202785838361204f565b95945050505050565b3415610abb5760405163b398979f60e01b815260040160405180910390fd5b6060826120645761205f826120ab565b611572565b815115801561207b57506001600160a01b0384163b155b156120a457604051639996b31560e01b81526001600160a01b0385166004820152602401610839565b5080611572565b8051156120bb5780518082602001fd5b60405163d6bda27560e01b815260040160405180910390fd5b80356001600160a01b03811681146120eb57600080fd5b919050565b60006020828403121561210257600080fd5b611572826120d4565b6000806000806080858703121561212157600080fd5b5050823594602084013594506040840135936060013592509050565b6000806040838503121561215057600080fd5b50508035926020909101359150565b6000806040838503121561217257600080fd5b61217b836120d4565b9150612189602084016120d4565b90509250929050565b634e487b7160e01b600052604160045260246000fd5b600080604083850312156121bb57600080fd5b6121c4836120d4565b9150602083013567ffffffffffffffff8111156121e057600080fd5b8301601f810185136121f157600080fd5b803567ffffffffffffffff81111561220b5761220b612192565b604051601f8201601f19908116603f0116810167ffffffffffffffff8111828210171561223a5761223a612192565b60405281815282820160200187101561225257600080fd5b816020840160208301376000602083830101528093505050509250929050565b60006020828403121561228457600080fd5b5035919050565b6000806000606084860312156122a057600080fd5b83359250602084013591506122b7604085016120d4565b90509250925092565b600080604083850312156122d357600080fd5b6122dc836120d4565b946020939093013593505050565b60005b838110156123055781810151838201526020016122ed565b50506000910152565b600081518084526123268160208601602086016122ea565b601f01601f19169290920160200192915050565b602081526000611572602083018461230e565b634e487b7160e01b600052601160045260246000fd5b808201808211156115aa576115aa61234d565b60006020828403121561238857600080fd5b5051919050565b6000826123ac57634e487b7160e01b600052601260045260246000fd5b500490565b6001815b60018411156123ec578085048111156123d0576123d061234d565b60018416156123de57908102905b60019390931c9280026123b5565b935093915050565b600082612403575060016115aa565b81612410575060006115aa565b816001811461242657600281146124305761244c565b60019150506115aa565b60ff8411156124415761244161234d565b50506001821b6115aa565b5060208310610133831016604e8410600b841016171561246f575081810a6115aa565b61247c60001984846123b1565b80600019048211156124905761249061234d565b029392505050565b600061157283836123f4565b80820281158282048414176115aa576115aa61234d565b600082516124cd8184602087016122ea565b919091019291505056fea26469706673582212201abd2709a7b88a6db66858c92ec21076dcdd1fe324d1c15c3ae99f50beb4b0ea64736f6c634300081c0033",
			"opcodes": "PUSH1 0xA0 PUSH1 0x40 MSTORE ADDRESS PUSH1 0x80 MSTORE CALLVALUE DUP1 ISZERO PUSH2 0x14 JUMPI PUSH1 0x0 DUP1 REVERT JUMPDEST POP PUSH2 0x1D PUSH2 0x22 JUMP JUMPDEST PUSH2 0xD4 JUMP JUMPDEST PUSH32 0xF0C57E16840DF040F15088DC2F81FE391C3923BEC73E23A9662EFC9C229C6A00 DUP1 SLOAD PUSH9 0x10000000000000000 SWAP1 DIV PUSH1 0xFF AND ISZERO PUSH2 0x72 JUMPI PUSH1 0x40 MLOAD PUSH4 0xF92EE8A9 PUSH1 0xE0 SHL DUP2 MSTORE PUSH1 0x4 ADD PUSH1 0x40 MLOAD DUP1 SWAP2 SUB SWAP1 REVERT JUMPDEST DUP1 SLOAD PUSH1 0x1 PUSH1 0x1 PUSH1 0x40 SHL SUB SWAP1 DUP2 AND EQ PUSH2 0xD1 JUMPI DUP1 SLOAD PUSH1 0x1 PUSH1 0x1 PUSH1 0x40 SHL SUB NOT AND PUSH1 0x1 PUSH1 0x1 PUSH1 0x40 SHL SUB SWAP1 DUP2 OR DUP3 SSTORE PUSH1 0x40 MLOAD SWAP1 DUP2 MSTORE PUSH32 0xC7F505B2F371AE2175EE4913F4499E1F2633A7B5936321EED1CDAEB6115181D2 SWAP1 PUSH1 0x20 ADD PUSH1 0x40 MLOAD DUP1 SWAP2 SUB SWAP1 LOG1 JUMPDEST POP JUMP JUMPDEST PUSH1 0x80 MLOAD PUSH2 0x250D PUSH2 0xFD PUSH1 0x0 CODECOPY PUSH1 0x0 DUP2 DUP2 PUSH2 0x1CD2 ADD MSTORE DUP2 DUP2 PUSH2 0x1CFB ADD MSTORE PUSH2 0x1E60 ADD MSTORE PUSH2 0x250D PUSH1 0x0 RETURN INVALID PUSH1 0x80 PUSH1 0x40 MSTORE PUSH1 0x4 CALLDATASIZE LT PUSH2 0x204 JUMPI PUSH1 0x0 CALLDATALOAD PUSH1 0xE0 SHR DUP1 PUSH4 0x7F0EBB03 GT PUSH2 0x118 JUMPI DUP1 PUSH4 0xB7277BC8 GT PUSH2 0xA0 JUMPI DUP1 PUSH4 0xCDC87F68 GT PUSH2 0x6F JUMPI DUP1 PUSH4 0xCDC87F68 EQ PUSH2 0x736 JUMPI DUP1 PUSH4 0xF2FDE38B EQ PUSH2 0x757 JUMPI DUP1 PUSH4 0xF6814DA7 EQ PUSH2 0x777 JUMPI DUP1 PUSH4 0xF6ED2017 EQ PUSH2 0x797 JUMPI DUP1 PUSH4 0xFFD9888F EQ PUSH2 0x7CD JUMPI PUSH1 0x0 DUP1 REVERT JUMPDEST DUP1 PUSH4 0xB7277BC8 EQ PUSH2 0x68D JUMPI DUP1 PUSH4 0xB9E35DB0 EQ PUSH2 0x6BD JUMPI DUP1 PUSH4 0xBD2D3AA2 EQ PUSH2 0x6F6 JUMPI DUP1 PUSH4 0xC03D55A5 EQ PUSH2 0x716 JUMPI PUSH1 0x0 DUP1 REVERT JUMPDEST DUP1 PUSH4 0x9B1DF017 GT PUSH2 0xE7 JUMPI DUP1 PUSH4 0x9B1DF017 EQ PUSH2 0x5CF JUMPI DUP1 PUSH4 0x9D6B522A EQ PUSH2 0x5EF JUMPI DUP1 PUSH4 0xAD1B3FEB EQ PUSH2 0x60F JUMPI DUP1 PUSH4 0xAD3CB1CC EQ PUSH2 0x62F JUMPI DUP1 PUSH4 0xB3E26566 EQ PUSH2 0x66D JUMPI PUSH1 0x0 DUP1 REVERT JUMPDEST DUP1 PUSH4 0x7F0EBB03 EQ PUSH2 0x501 JUMPI DUP1 PUSH4 0x88105F6B EQ PUSH2 0x521 JUMPI DUP1 PUSH4 0x8DA5CB5B EQ PUSH2 0x541 JUMPI DUP1 PUSH4 0x93632A6F EQ PUSH2 0x592 JUMPI PUSH1 0x0 DUP1 REVERT JUMPDEST DUP1 PUSH4 0x4F1EF286 GT PUSH2 0x19B JUMPI DUP1 PUSH4 0x66219A00 GT PUSH2 0x16A JUMPI DUP1 PUSH4 0x66219A00 EQ PUSH2 0x430 JUMPI DUP1 PUSH4 0x6A55B7CA EQ PUSH2 0x450 JUMPI DUP1 PUSH4 0x715018A6 EQ PUSH2 0x48C JUMPI DUP1 PUSH4 0x718431D1 EQ PUSH2 0x4A1 JUMPI DUP1 PUSH4 0x7D548C64 EQ PUSH2 0x4D1 JUMPI PUSH1 0x0 DUP1 REVERT JUMPDEST DUP1 PUSH4 0x4F1EF286 EQ PUSH2 0x3C8 JUMPI DUP1 PUSH4 0x50CF7279 EQ PUSH2 0x3DB JUMPI DUP1 PUSH4 0x52D1902D EQ PUSH2 0x3FB JUMPI DUP1 PUSH4 0x608E4DD0 EQ PUSH2 0x410 JUMPI PUSH1 0x0 DUP1 REVERT JUMPDEST DUP1 PUSH4 0x372500AB GT PUSH2 0x1D7 JUMPI DUP1 PUSH4 0x372500AB EQ PUSH2 0x2E5 JUMPI DUP1 PUSH4 0x3B7B6188 EQ PUSH2 0x2FA JUMPI DUP1 PUSH4 0x485CC955 EQ PUSH2 0x31A JUMPI DUP1 PUSH4 0x4E43603A EQ PUSH2 0x33A JUMPI PUSH1 0x0 DUP1 REVERT JUMPDEST DUP1 PUSH4 0x660F1E8 EQ PUSH2 0x209 JUMPI DUP1 PUSH4 0x2415D840 EQ PUSH2 0x280 JUMPI DUP1 PUSH4 0x2557D6B9 EQ PUSH2 0x2A2 JUMPI DUP1 PUSH4 0x2E0F2625 EQ PUSH2 0x2C2 JUMPI JUMPDEST PUSH1 0x0 DUP1 REVERT JUMPDEST CALLVALUE DUP1 ISZERO PUSH2 0x215 JUMPI PUSH1 0x0 DUP1 REVERT JUMPDEST POP PUSH2 0x253 PUSH2 0x224 CALLDATASIZE PUSH1 0x4 PUSH2 0x20F0 JUMP JUMPDEST PUSH1 0x36 PUSH1 0x20 MSTORE PUSH1 0x0 SWAP1 DUP2 MSTORE PUSH1 0x40 SWAP1 KECCAK256 DUP1 SLOAD PUSH1 0x1 DUP3 ADD SLOAD PUSH1 0x2 DUP4 ADD SLOAD PUSH1 0x3 DUP5 ADD SLOAD PUSH1 0x4 SWAP1 SWAP5 ADD SLOAD SWAP3 SWAP4 SWAP2 SWAP3 SWAP1 SWAP2 SWAP1 DUP6 JUMP JUMPDEST PUSH1 0x40 DUP1 MLOAD SWAP6 DUP7 MSTORE PUSH1 0x20 DUP7 ADD SWAP5 SWAP1 SWAP5 MSTORE SWAP3 DUP5 ADD SWAP2 SWAP1 SWAP2 MSTORE PUSH1 0x60 DUP4 ADD MSTORE PUSH1 0x80 DUP3 ADD MSTORE PUSH1 0xA0 ADD JUMPDEST PUSH1 0x40 MLOAD DUP1 SWAP2 SUB SWAP1 RETURN JUMPDEST CALLVALUE DUP1 ISZERO PUSH2 0x28C JUMPI PUSH1 0x0 DUP1 REVERT JUMPDEST POP PUSH2 0x2A0 PUSH2 0x29B CALLDATASIZE PUSH1 0x4 PUSH2 0x20F0 JUMP JUMPDEST PUSH2 0x7ED JUMP JUMPDEST STOP JUMPDEST CALLVALUE DUP1 ISZERO PUSH2 0x2AE JUMPI PUSH1 0x0 DUP1 REVERT JUMPDEST POP PUSH2 0x2A0 PUSH2 0x2BD CALLDATASIZE PUSH1 0x4 PUSH2 0x210B JUMP JUMPDEST PUSH2 0x864 JUMP JUMPDEST CALLVALUE DUP1 ISZERO PUSH2 0x2CE JUMPI PUSH1 0x0 DUP1 REVERT JUMPDEST POP PUSH2 0x2D7 PUSH1 0x6 DUP2 JUMP JUMPDEST PUSH1 0x40 MLOAD SWAP1 DUP2 MSTORE PUSH1 0x20 ADD PUSH2 0x277 JUMP JUMPDEST CALLVALUE DUP1 ISZERO PUSH2 0x2F1 JUMPI PUSH1 0x0 DUP1 REVERT JUMPDEST POP PUSH2 0x2A0 PUSH2 0x913 JUMP JUMPDEST CALLVALUE DUP1 ISZERO PUSH2 0x306 JUMPI PUSH1 0x0 DUP1 REVERT JUMPDEST POP PUSH2 0x2A0 PUSH2 0x315 CALLDATASIZE PUSH1 0x4 PUSH2 0x213D JUMP JUMPDEST PUSH2 0xABD JUMP JUMPDEST CALLVALUE DUP1 ISZERO PUSH2 0x326 JUMPI PUSH1 0x0 DUP1 REVERT JUMPDEST POP PUSH2 0x2A0 PUSH2 0x335 CALLDATASIZE PUSH1 0x4 PUSH2 0x215F JUMP JUMPDEST PUSH2 0xB28 JUMP JUMPDEST CALLVALUE DUP1 ISZERO PUSH2 0x346 JUMPI PUSH1 0x0 DUP1 REVERT JUMPDEST POP PUSH2 0x3AD PUSH2 0x355 CALLDATASIZE PUSH1 0x4 PUSH2 0x20F0 JUMP JUMPDEST PUSH1 0x1 PUSH1 0x1 PUSH1 0xA0 SHL SUB AND PUSH1 0x0 SWAP1 DUP2 MSTORE PUSH1 0x36 PUSH1 0x20 SWAP1 DUP2 MSTORE PUSH1 0x40 SWAP2 DUP3 SWAP1 KECCAK256 DUP3 MLOAD PUSH1 0xA0 DUP2 ADD DUP5 MSTORE DUP2 SLOAD DUP1 DUP3 MSTORE PUSH1 0x1 DUP4 ADD SLOAD SWAP4 DUP3 ADD DUP5 SWAP1 MSTORE PUSH1 0x2 DUP4 ADD SLOAD SWAP5 DUP3 ADD DUP6 SWAP1 MSTORE PUSH1 0x3 DUP4 ADD SLOAD PUSH1 0x60 DUP4 ADD MSTORE PUSH1 0x4 SWAP1 SWAP3 ADD SLOAD PUSH1 0x80 SWAP1 SWAP2 ADD MSTORE SWAP2 SWAP3 JUMP JUMPDEST PUSH1 0x40 DUP1 MLOAD SWAP4 DUP5 MSTORE PUSH1 0x20 DUP5 ADD SWAP3 SWAP1 SWAP3 MSTORE SWAP1 DUP3 ADD MSTORE PUSH1 0x60 ADD PUSH2 0x277 JUMP JUMPDEST PUSH2 0x2A0 PUSH2 0x3D6 CALLDATASIZE PUSH1 0x4 PUSH2 0x21A8 JUMP JUMPDEST PUSH2 0x12D4 JUMP JUMPDEST CALLVALUE DUP1 ISZERO PUSH2 0x3E7 JUMPI PUSH1 0x0 DUP1 REVERT JUMPDEST POP PUSH2 0x2A0 PUSH2 0x3F6 CALLDATASIZE PUSH1 0x4 PUSH2 0x20F0 JUMP JUMPDEST PUSH2 0x12F3 JUMP JUMPDEST CALLVALUE DUP1 ISZERO PUSH2 0x407 JUMPI PUSH1 0x0 DUP1 REVERT JUMPDEST POP PUSH2 0x2D7 PUSH2 0x1365 JUMP JUMPDEST CALLVALUE DUP1 ISZERO PUSH2 0x41C JUMPI PUSH1 0x0 DUP1 REVERT JUMPDEST POP PUSH2 0x2A0 PUSH2 0x42B CALLDATASIZE PUSH1 0x4 PUSH2 0x2272 JUMP JUMPDEST PUSH2 0xACF JUMP JUMPDEST CALLVALUE DUP1 ISZERO PUSH2 0x43C JUMPI PUSH1 0x0 DUP1 REVERT JUMPDEST POP PUSH2 0x2D7 PUSH2 0x44B CALLDATASIZE PUSH1 0x4 PUSH2 0x228B JUMP JUMPDEST PUSH2 0x1394 JUMP JUMPDEST CALLVALUE DUP1 ISZERO PUSH2 0x45C JUMPI PUSH1 0x0 DUP1 REVERT JUMPDEST POP PUSH2 0x3AD PUSH2 0x46B CALLDATASIZE PUSH1 0x4 PUSH2 0x2272 JUMP JUMPDEST PUSH1 0x39 PUSH1 0x20 MSTORE PUSH1 0x0 SWAP1 DUP2 MSTORE PUSH1 0x40 SWAP1 KECCAK256 DUP1 SLOAD PUSH1 0x1 DUP3 ADD SLOAD PUSH1 0x2 SWAP1 SWAP3 ADD SLOAD SWAP1 SWAP2 SWAP1 DUP4 JUMP JUMPDEST CALLVALUE DUP1 ISZERO PUSH2 0x498 JUMPI PUSH1 0x0 DUP1 REVERT JUMPDEST POP PUSH2 0x2A0 PUSH2 0x1579 JUMP JUMPDEST CALLVALUE DUP1 ISZERO PUSH2 0x4AD JUMPI PUSH1 0x0 DUP1 REVERT JUMPDEST POP PUSH2 0x4C1 PUSH2 0x4BC CALLDATASIZE PUSH1 0x4 PUSH2 0x22C0 JUMP JUMPDEST PUSH2 0x158B JUMP JUMPDEST PUSH1 0x40 MLOAD SWAP1 ISZERO ISZERO DUP2 MSTORE PUSH1 0x20 ADD PUSH2 0x277 JUMP JUMPDEST CALLVALUE DUP1 ISZERO PUSH2 0x4DD JUMPI PUSH1 0x0 DUP1 REVERT JUMPDEST POP PUSH2 0x4C1 PUSH2 0x4EC CALLDATASIZE PUSH1 0x4 PUSH2 0x2272 JUMP JUMPDEST PUSH1 0x38 PUSH1 0x20 MSTORE PUSH1 0x0 SWAP1 DUP2 MSTORE PUSH1 0x40 SWAP1 KECCAK256 SLOAD PUSH1 0xFF AND DUP2 JUMP JUMPDEST CALLVALUE DUP1 ISZERO PUSH2 0x50D JUMPI PUSH1 0x0 DUP1 REVERT JUMPDEST POP PUSH2 0x2A0 PUSH2 0x51C CALLDATASIZE PUSH1 0x4 PUSH2 0x20F0 JUMP JUMPDEST PUSH2 0x15B0 JUMP JUMPDEST CALLVALUE DUP1 ISZERO PUSH2 0x52D JUMPI PUSH1 0x0 DUP1 REVERT JUMPDEST POP PUSH2 0x2A0 PUSH2 0x53C CALLDATASIZE PUSH1 0x4 PUSH2 0x20F0 JUMP JUMPDEST PUSH2 0x1622 JUMP JUMPDEST CALLVALUE DUP1 ISZERO PUSH2 0x54D JUMPI PUSH1 0x0 DUP1 REVERT JUMPDEST POP PUSH32 0x9016D09D72D40FDAE2FD8CEAC6B6234C7706214FD39C1CD1E609A0528C199300 SLOAD PUSH1 0x1 PUSH1 0x1 PUSH1 0xA0 SHL SUB AND JUMPDEST PUSH1 0x40 MLOAD PUSH1 0x1 PUSH1 0x1 PUSH1 0xA0 SHL SUB SWAP1 SWAP2 AND DUP2 MSTORE PUSH1 0x20 ADD PUSH2 0x277 JUMP JUMPDEST CALLVALUE DUP1 ISZERO PUSH2 0x59E JUMPI PUSH1 0x0 DUP1 REVERT JUMPDEST POP PUSH2 0x4C1 PUSH2 0x5AD CALLDATASIZE PUSH1 0x4 PUSH2 0x22C0 JUMP JUMPDEST PUSH1 0x1 PUSH1 0x1 PUSH1 0xA0 SHL SUB SWAP2 SWAP1 SWAP2 AND PUSH1 0x0 SWAP1 DUP2 MSTORE PUSH1 0x36 PUSH1 0x20 MSTORE PUSH1 0x40 SWAP1 KECCAK256 PUSH1 0x2 ADD SLOAD GT SWAP1 JUMP JUMPDEST CALLVALUE DUP1 ISZERO PUSH2 0x5DB JUMPI PUSH1 0x0 DUP1 REVERT JUMPDEST POP PUSH2 0x2A0 PUSH2 0x5EA CALLDATASIZE PUSH1 0x4 PUSH2 0x22C0 JUMP JUMPDEST PUSH2 0x1694 JUMP JUMPDEST CALLVALUE DUP1 ISZERO PUSH2 0x5FB JUMPI PUSH1 0x0 DUP1 REVERT JUMPDEST POP PUSH2 0x2D7 PUSH2 0x60A CALLDATASIZE PUSH1 0x4 PUSH2 0x2272 JUMP JUMPDEST PUSH2 0x17B9 JUMP JUMPDEST CALLVALUE DUP1 ISZERO PUSH2 0x61B JUMPI PUSH1 0x0 DUP1 REVERT JUMPDEST POP PUSH2 0x2A0 PUSH2 0x62A CALLDATASIZE PUSH1 0x4 PUSH2 0x22C0 JUMP JUMPDEST PUSH2 0x1833 JUMP JUMPDEST CALLVALUE DUP1 ISZERO PUSH2 0x63B JUMPI PUSH1 0x0 DUP1 REVERT JUMPDEST POP PUSH2 0x660 PUSH1 0x40 MLOAD DUP1 PUSH1 0x40 ADD PUSH1 0x40 MSTORE DUP1 PUSH1 0x5 DUP2 MSTORE PUSH1 0x20 ADD PUSH5 0x352E302E3 PUSH1 0xDC SHL DUP2 MSTORE POP DUP2 JUMP JUMPDEST PUSH1 0x40 MLOAD PUSH2 0x277 SWAP2 SWAP1 PUSH2 0x233A JUMP JUMPDEST CALLVALUE DUP1 ISZERO PUSH2 0x679 JUMPI PUSH1 0x0 DUP1 REVERT JUMPDEST POP PUSH1 0x32 SLOAD PUSH2 0x57A SWAP1 PUSH1 0x1 PUSH1 0x1 PUSH1 0xA0 SHL SUB AND DUP2 JUMP JUMPDEST CALLVALUE DUP1 ISZERO PUSH2 0x699 JUMPI PUSH1 0x0 DUP1 REVERT JUMPDEST POP PUSH2 0x4C1 PUSH2 0x6A8 CALLDATASIZE PUSH1 0x4 PUSH2 0x2272 JUMP JUMPDEST PUSH1 0x37 PUSH1 0x20 MSTORE PUSH1 0x0 SWAP1 DUP2 MSTORE PUSH1 0x40 SWAP1 KECCAK256 SLOAD PUSH1 0xFF AND DUP2 JUMP JUMPDEST CALLVALUE DUP1 ISZERO PUSH2 0x6C9 JUMPI PUSH1 0x0 DUP1 REVERT JUMPDEST POP PUSH2 0x2D7 PUSH2 0x6D8 CALLDATASIZE PUSH1 0x4 PUSH2 0x20F0 JUMP JUMPDEST PUSH1 0x1 PUSH1 0x1 PUSH1 0xA0 SHL SUB AND PUSH1 0x0 SWAP1 DUP2 MSTORE PUSH1 0x36 PUSH1 0x20 MSTORE PUSH1 0x40 SWAP1 KECCAK256 PUSH1 0x1 ADD SLOAD SWAP1 JUMP JUMPDEST CALLVALUE DUP1 ISZERO PUSH2 0x702 JUMPI PUSH1 0x0 DUP1 REVERT JUMPDEST POP PUSH1 0x33 SLOAD PUSH2 0x57A SWAP1 PUSH1 0x1 PUSH1 0x1 PUSH1 0xA0 SHL SUB AND DUP2 JUMP JUMPDEST CALLVALUE DUP1 ISZERO PUSH2 0x722 JUMPI PUSH1 0x0 DUP1 REVERT JUMPDEST POP PUSH2 0x2D7 PUSH2 0x731 CALLDATASIZE PUSH1 0x4 PUSH2 0x2272 JUMP JUMPDEST PUSH2 0x18B7 JUMP JUMPDEST CALLVALUE DUP1 ISZERO PUSH2 0x742 JUMPI PUSH1 0x0 DUP1 REVERT JUMPDEST POP PUSH2 0x2D7 PUSH2 0x751 CALLDATASIZE PUSH1 0x4 PUSH2 0x20F0 JUMP JUMPDEST POP PUSH1 0x0 SWAP1 JUMP JUMPDEST CALLVALUE DUP1 ISZERO PUSH2 0x763 JUMPI PUSH1 0x0 DUP1 REVERT JUMPDEST POP PUSH2 0x2A0 PUSH2 0x772 CALLDATASIZE PUSH1 0x4 PUSH2 0x20F0 JUMP JUMPDEST PUSH2 0x18C2 JUMP JUMPDEST CALLVALUE DUP1 ISZERO PUSH2 0x783 JUMPI PUSH1 0x0 DUP1 REVERT JUMPDEST POP PUSH1 0x34 SLOAD PUSH2 0x57A SWAP1 PUSH1 0x1 PUSH1 0x1 PUSH1 0xA0 SHL SUB AND DUP2 JUMP JUMPDEST CALLVALUE DUP1 ISZERO PUSH2 0x7A3 JUMPI PUSH1 0x0 DUP1 REVERT JUMPDEST POP PUSH2 0x2D7 PUSH2 0x7B2 CALLDATASIZE PUSH1 0x4 PUSH2 0x20F0 JUMP JUMPDEST PUSH1 0x1 PUSH1 0x1 PUSH1 0xA0 SHL SUB AND PUSH1 0x0 SWAP1 DUP2 MSTORE PUSH1 0x36 PUSH1 0x20 MSTORE PUSH1 0x40 SWAP1 KECCAK256 SLOAD SWAP1 JUMP JUMPDEST CALLVALUE DUP1 ISZERO PUSH2 0x7D9 JUMPI PUSH1 0x0 DUP1 REVERT JUMPDEST POP PUSH1 0x3A SLOAD PUSH2 0x57A SWAP1 PUSH1 0x1 PUSH1 0x1 PUSH1 0xA0 SHL SUB AND DUP2 JUMP JUMPDEST PUSH2 0x7F5 PUSH2 0x1900 JUMP JUMPDEST PUSH1 0x1 PUSH1 0x1 PUSH1 0xA0 SHL SUB DUP2 AND PUSH2 0x842 JUMPI PUSH1 0x40 MLOAD PUSH3 0x461BCD PUSH1 0xE5 SHL DUP2 MSTORE PUSH1 0x20 PUSH1 0x4 DUP3 ADD MSTORE PUSH1 0xF PUSH1 0x24 DUP3 ADD MSTORE PUSH15 0x496E76616C69642061646472657373 PUSH1 0x88 SHL PUSH1 0x44 DUP3 ADD MSTORE PUSH1 0x64 ADD JUMPDEST PUSH1 0x40 MLOAD DUP1 SWAP2 SUB SWAP1 REVERT JUMPDEST PUSH1 0x34 DUP1 SLOAD PUSH1 0x1 PUSH1 0x1 PUSH1 0xA0 SHL SUB NOT AND PUSH1 0x1 PUSH1 0x1 PUSH1 0xA0 SHL SUB SWAP3 SWAP1 SWAP3 AND SWAP2 SWAP1 SWAP2 OR SWAP1 SSTORE JUMP JUMPDEST PUSH2 0x86C PUSH2 0x1900 JUMP JUMPDEST PUSH1 0x35 SLOAD DUP5 LT PUSH2 0x8B2 JUMPI PUSH1 0x40 MLOAD PUSH3 0x461BCD PUSH1 0xE5 SHL DUP2 MSTORE PUSH1 0x20 PUSH1 0x4 DUP3 ADD MSTORE PUSH1 0x12 PUSH1 0x24 DUP3 ADD MSTORE PUSH18 0x92DCECC2D8D2C840C4C2DCC840D2DCC8CAF PUSH1 0x73 SHL PUSH1 0x44 DUP3 ADD MSTORE PUSH1 0x64 ADD PUSH2 0x839 JUMP JUMPDEST DUP2 DUP4 LT PUSH2 0x901 JUMPI PUSH1 0x40 MLOAD PUSH3 0x461BCD PUSH1 0xE5 SHL DUP2 MSTORE PUSH1 0x20 PUSH1 0x4 DUP3 ADD MSTORE PUSH1 0x19 PUSH1 0x24 DUP3 ADD MSTORE PUSH32 0x4D696E206D757374206265206C657373207468616E206D617800000000000000 PUSH1 0x44 DUP3 ADD MSTORE PUSH1 0x64 ADD PUSH2 0x839 JUMP JUMPDEST PUSH2 0x90D DUP5 DUP5 DUP5 DUP5 PUSH2 0x195B JUMP JUMPDEST POP POP POP POP JUMP JUMPDEST PUSH2 0x91B PUSH2 0x19F7 JUMP JUMPDEST CALLER PUSH1 0x0 DUP2 DUP2 MSTORE PUSH1 0x36 PUSH1 0x20 MSTORE PUSH1 0x40 SWAP1 KECCAK256 DUP1 SLOAD DUP1 PUSH2 0x96F JUMPI PUSH1 0x40 MLOAD PUSH3 0x461BCD PUSH1 0xE5 SHL DUP2 MSTORE PUSH1 0x20 PUSH1 0x4 DUP3 ADD MSTORE PUSH1 0x13 PUSH1 0x24 DUP3 ADD MSTORE PUSH19 0x4E6F207265776172647320746F20636C61696D PUSH1 0x68 SHL PUSH1 0x44 DUP3 ADD MSTORE PUSH1 0x64 ADD PUSH2 0x839 JUMP JUMPDEST PUSH1 0x0 DUP1 DUP4 SSTORE PUSH1 0x1 DUP4 ADD DUP1 SLOAD DUP4 SWAP3 SWAP1 PUSH2 0x988 SWAP1 DUP5 SWAP1 PUSH2 0x2363 JUMP JUMPDEST SWAP1 SWAP2 SSTORE POP POP TIMESTAMP PUSH1 0x4 DUP4 ADD SSTORE PUSH1 0x32 SLOAD PUSH1 0x1 PUSH1 0x1 PUSH1 0xA0 SHL SUB AND ISZERO PUSH2 0xA57 JUMPI PUSH1 0x40 DUP1 MLOAD PUSH1 0x1 PUSH1 0x1 PUSH1 0xA0 SHL SUB DUP6 DUP2 AND PUSH1 0x20 DUP4 ADD MSTORE DUP2 DUP4 ADD DUP5 SWAP1 MSTORE DUP3 MLOAD DUP1 DUP4 SUB DUP5 ADD DUP2 MSTORE PUSH1 0x60 DUP4 ADD SWAP4 DUP5 SWAP1 MSTORE PUSH1 0x32 SLOAD PUSH4 0x104C8D4B PUSH1 0xE3 SHL SWAP1 SWAP5 MSTORE SWAP3 PUSH1 0x0 SWAP3 SWAP2 AND SWAP1 PUSH4 0x82646A58 SWAP1 PUSH2 0x9F8 SWAP1 DUP6 SWAP1 PUSH1 0x64 ADD PUSH2 0x233A JUMP JUMPDEST PUSH1 0x20 PUSH1 0x40 MLOAD DUP1 DUP4 SUB DUP2 PUSH1 0x0 DUP8 GAS CALL ISZERO DUP1 ISZERO PUSH2 0xA17 JUMPI RETURNDATASIZE PUSH1 0x0 DUP1 RETURNDATACOPY RETURNDATASIZE PUSH1 0x0 REVERT JUMPDEST POP POP POP POP PUSH1 0x40 MLOAD RETURNDATASIZE PUSH1 0x1F NOT PUSH1 0x1F DUP3 ADD AND DUP3 ADD DUP1 PUSH1 0x40 MSTORE POP DUP2 ADD SWAP1 PUSH2 0xA3B SWAP2 SWAP1 PUSH2 0x2376 JUMP JUMPDEST PUSH1 0x0 SWAP1 DUP2 MSTORE PUSH1 0x38 PUSH1 0x20 MSTORE PUSH1 0x40 SWAP1 KECCAK256 DUP1 SLOAD PUSH1 0xFF NOT AND PUSH1 0x1 OR SWAP1 SSTORE POP POP JUMPDEST DUP3 PUSH1 0x1 PUSH1 0x1 PUSH1 0xA0 SHL SUB AND PUSH32 0xFC30CDDEA38E2BF4D6EA7D3F9ED3B6AD7F176419F4963BD81318067A4AEE73FE DUP3 PUSH1 0x40 MLOAD PUSH2 0xA92 SWAP2 DUP2 MSTORE PUSH1 0x20 ADD SWAP1 JUMP JUMPDEST PUSH1 0x40 MLOAD DUP1 SWAP2 SUB SWAP1 LOG2 PUSH2 0xAAE DUP4 PUSH2 0xAA9 PUSH1 0xA DUP5 PUSH2 0x238F JUMP JUMPDEST PUSH2 0x1A50 JUMP JUMPDEST POP POP POP PUSH2 0xABB PUSH1 0x1 PUSH1 0x0 SSTORE JUMP JUMPDEST JUMP JUMPDEST PUSH1 0x0 DUP3 GT DUP1 ISZERO PUSH2 0xACD JUMPI POP PUSH1 0x0 DUP2 GT JUMPDEST POP JUMPDEST PUSH1 0x40 MLOAD PUSH3 0x461BCD PUSH1 0xE5 SHL DUP2 MSTORE PUSH1 0x20 PUSH1 0x4 DUP3 ADD MSTORE PUSH1 0x28 PUSH1 0x24 DUP3 ADD MSTORE PUSH32 0x5374616B696E67206E6F7420696D706C656D656E74656420696E207468697320 PUSH1 0x44 DUP3 ADD MSTORE PUSH8 0x18DBDB9D1C9858DD PUSH1 0xC2 SHL PUSH1 0x64 DUP3 ADD MSTORE PUSH1 0x84 ADD PUSH2 0x839 JUMP JUMPDEST PUSH1 0x0 PUSH2 0xB32 PUSH2 0x1C04 JUMP JUMPDEST DUP1 SLOAD SWAP1 SWAP2 POP PUSH1 0xFF PUSH1 0x1 PUSH1 0x40 SHL DUP3 DIV AND ISZERO SWAP1 PUSH8 0xFFFFFFFFFFFFFFFF AND PUSH1 0x0 DUP2 ISZERO DUP1 ISZERO PUSH2 0xB5A JUMPI POP DUP3 JUMPDEST SWAP1 POP PUSH1 0x0 DUP3 PUSH8 0xFFFFFFFFFFFFFFFF AND PUSH1 0x1 EQ DUP1 ISZERO PUSH2 0xB77 JUMPI POP ADDRESS EXTCODESIZE ISZERO JUMPDEST SWAP1 POP DUP2 ISZERO DUP1 ISZERO PUSH2 0xB85 JUMPI POP DUP1 ISZERO JUMPDEST ISZERO PUSH2 0xBA3 JUMPI PUSH1 0x40 MLOAD PUSH4 0xF92EE8A9 PUSH1 0xE0 SHL DUP2 MSTORE PUSH1 0x4 ADD PUSH1 0x40 MLOAD DUP1 SWAP2 SUB SWAP1 REVERT JUMPDEST DUP5 SLOAD PUSH8 0xFFFFFFFFFFFFFFFF NOT AND PUSH1 0x1 OR DUP6 SSTORE DUP4 ISZERO PUSH2 0xBCD JUMPI DUP5 SLOAD PUSH1 0xFF PUSH1 0x40 SHL NOT AND PUSH1 0x1 PUSH1 0x40 SHL OR DUP6 SSTORE JUMPDEST PUSH1 0x1 PUSH1 0x1 PUSH1 0xA0 SHL SUB DUP8 AND PUSH2 0xC23 JUMPI PUSH1 0x40 MLOAD PUSH3 0x461BCD PUSH1 0xE5 SHL DUP2 MSTORE PUSH1 0x20 PUSH1 0x4 DUP3 ADD MSTORE PUSH1 0x15 PUSH1 0x24 DUP3 ADD MSTORE PUSH32 0x496E76616C6964206F776E657220616464726573730000000000000000000000 PUSH1 0x44 DUP3 ADD MSTORE PUSH1 0x64 ADD PUSH2 0x839 JUMP JUMPDEST PUSH1 0x1 PUSH1 0x1 PUSH1 0xA0 SHL SUB DUP7 AND PUSH2 0xC79 JUMPI PUSH1 0x40 MLOAD PUSH3 0x461BCD PUSH1 0xE5 SHL DUP2 MSTORE PUSH1 0x20 PUSH1 0x4 DUP3 ADD MSTORE PUSH1 0x1A PUSH1 0x24 DUP3 ADD MSTORE PUSH32 0x496E76616C6964206A6F62206D61726B65742061646472657373000000000000 PUSH1 0x44 DUP3 ADD MSTORE PUSH1 0x64 ADD PUSH2 0x839 JUMP JUMPDEST PUSH2 0xC82 CALLER PUSH2 0x1C2D JUMP JUMPDEST PUSH2 0xC8A PUSH2 0x1C3E JUMP JUMPDEST PUSH2 0xC92 PUSH2 0x1C4E JUMP JUMPDEST PUSH2 0xC9B DUP8 PUSH2 0x1C56 JUMP JUMPDEST PUSH1 0x3A DUP1 SLOAD PUSH1 0x1 PUSH1 0x1 PUSH1 0xA0 SHL SUB NOT AND PUSH1 0x1 PUSH1 0x1 PUSH1 0xA0 SHL SUB DUP9 AND OR SWAP1 SSTORE PUSH2 0xCEF PUSH1 0x0 DUP1 PUSH2 0xCC8 PUSH1 0x6 PUSH1 0xA PUSH2 0x2498 JUMP JUMPDEST PUSH2 0xCD3 SWAP1 PUSH1 0x64 PUSH2 0x24A4 JUMP JUMPDEST PUSH2 0xCDF PUSH1 0x6 PUSH1 0xA PUSH2 0x2498 JUMP JUMPDEST PUSH2 0xCEA SWAP1 PUSH1 0x5 PUSH2 0x24A4 JUMP JUMPDEST PUSH2 0x195B JUMP JUMPDEST PUSH2 0xD3A PUSH1 0x1 PUSH2 0xD00 PUSH1 0x6 PUSH1 0xA PUSH2 0x2498 JUMP JUMPDEST PUSH2 0xD0B SWAP1 PUSH1 0x64 PUSH2 0x24A4 JUMP JUMPDEST PUSH2 0xD17 PUSH1 0x6 PUSH1 0xA PUSH2 0x2498 JUMP JUMPDEST PUSH2 0xD23 SWAP1 PUSH2 0x12C PUSH2 0x24A4 JUMP JUMPDEST PUSH2 0xD2F PUSH1 0x6 PUSH1 0xA PUSH2 0x2498 JUMP JUMPDEST PUSH2 0xCEA SWAP1 PUSH1 0xF PUSH2 0x24A4 JUMP JUMPDEST PUSH2 0xD86 PUSH1 0x2 PUSH2 0xD4B PUSH1 0x6 PUSH1 0xA PUSH2 0x2498 JUMP JUMPDEST PUSH2 0xD57 SWAP1 PUSH2 0x12C PUSH2 0x24A4 JUMP JUMPDEST PUSH2 0xD63 PUSH1 0x6 PUSH1 0xA PUSH2 0x2498 JUMP JUMPDEST PUSH2 0xD6F SWAP1 PUSH2 0x1F4 PUSH2 0x24A4 JUMP JUMPDEST PUSH2 0xD7B PUSH1 0x6 PUSH1 0xA PUSH2 0x2498 JUMP JUMPDEST PUSH2 0xCEA SWAP1 PUSH1 0x19 PUSH2 0x24A4 JUMP JUMPDEST PUSH2 0xDD2 PUSH1 0x3 PUSH2 0xD97 PUSH1 0x6 PUSH1 0xA PUSH2 0x2498 JUMP JUMPDEST PUSH2 0xDA3 SWAP1 PUSH2 0x1F4 PUSH2 0x24A4 JUMP JUMPDEST PUSH2 0xDAF PUSH1 0x6 PUSH1 0xA PUSH2 0x2498 JUMP JUMPDEST PUSH2 0xDBB SWAP1 PUSH2 0x3E8 PUSH2 0x24A4 JUMP JUMPDEST PUSH2 0xDC7 PUSH1 0x6 PUSH1 0xA PUSH2 0x2498 JUMP JUMPDEST PUSH2 0xCEA SWAP1 PUSH1 0x32 PUSH2 0x24A4 JUMP JUMPDEST PUSH2 0xE1E PUSH1 0x4 PUSH2 0xDE3 PUSH1 0x6 PUSH1 0xA PUSH2 0x2498 JUMP JUMPDEST PUSH2 0xDEF SWAP1 PUSH2 0x3E8 PUSH2 0x24A4 JUMP JUMPDEST PUSH2 0xDFB PUSH1 0x6 PUSH1 0xA PUSH2 0x2498 JUMP JUMPDEST PUSH2 0xE07 SWAP1 PUSH2 0x5DC PUSH2 0x24A4 JUMP JUMPDEST PUSH2 0xE13 PUSH1 0x6 PUSH1 0xA PUSH2 0x2498 JUMP JUMPDEST PUSH2 0xCEA SWAP1 PUSH1 0x4B PUSH2 0x24A4 JUMP JUMPDEST PUSH2 0xE6A PUSH1 0x5 PUSH2 0xE2F PUSH1 0x6 PUSH1 0xA PUSH2 0x2498 JUMP JUMPDEST PUSH2 0xE3B SWAP1 PUSH2 0x5DC PUSH2 0x24A4 JUMP JUMPDEST PUSH2 0xE47 PUSH1 0x6 PUSH1 0xA PUSH2 0x2498 JUMP JUMPDEST PUSH2 0xE53 SWAP1 PUSH2 0x7D0 PUSH2 0x24A4 JUMP JUMPDEST PUSH2 0xE5F PUSH1 0x6 PUSH1 0xA PUSH2 0x2498 JUMP JUMPDEST PUSH2 0xCEA SWAP1 PUSH1 0x64 PUSH2 0x24A4 JUMP JUMPDEST PUSH2 0xEB5 PUSH1 0x6 PUSH2 0xE7A DUP2 PUSH1 0xA PUSH2 0x2498 JUMP JUMPDEST PUSH2 0xE86 SWAP1 PUSH2 0x7D0 PUSH2 0x24A4 JUMP JUMPDEST PUSH2 0xE92 PUSH1 0x6 PUSH1 0xA PUSH2 0x2498 JUMP JUMPDEST PUSH2 0xE9E SWAP1 PUSH2 0x9C4 PUSH2 0x24A4 JUMP JUMPDEST PUSH2 0xEAA PUSH1 0x6 PUSH1 0xA PUSH2 0x2498 JUMP JUMPDEST PUSH2 0xCEA SWAP1 PUSH1 0x7D PUSH2 0x24A4 JUMP JUMPDEST PUSH2 0xF01 PUSH1 0x7 PUSH2 0xEC6 PUSH1 0x6 PUSH1 0xA PUSH2 0x2498 JUMP JUMPDEST PUSH2 0xED2 SWAP1 PUSH2 0x9C4 PUSH2 0x24A4 JUMP JUMPDEST PUSH2 0xEDE PUSH1 0x6 PUSH1 0xA PUSH2 0x2498 JUMP JUMPDEST PUSH2 0xEEA SWAP1 PUSH2 0xBB8 PUSH2 0x24A4 JUMP JUMPDEST PUSH2 0xEF6 PUSH1 0x6 PUSH1 0xA PUSH2 0x2498 JUMP JUMPDEST PUSH2 0xCEA SWAP1 PUSH1 0x96 PUSH2 0x24A4 JUMP JUMPDEST PUSH2 0xF4D PUSH1 0x8 PUSH2 0xF12 PUSH1 0x6 PUSH1 0xA PUSH2 0x2498 JUMP JUMPDEST PUSH2 0xF1E SWAP1 PUSH2 0xBB8 PUSH2 0x24A4 JUMP JUMPDEST PUSH2 0xF2A PUSH1 0x6 PUSH1 0xA PUSH2 0x2498 JUMP JUMPDEST PUSH2 0xF36 SWAP1 PUSH2 0xFA0 PUSH2 0x24A4 JUMP JUMPDEST PUSH2 0xF42 PUSH1 0x6 PUSH1 0xA PUSH2 0x2498 JUMP JUMPDEST PUSH2 0xCEA SWAP1 PUSH1 0xC8 PUSH2 0x24A4 JUMP JUMPDEST PUSH2 0xF99 PUSH1 0x9 PUSH2 0xF5E PUSH1 0x6 PUSH1 0xA PUSH2 0x2498 JUMP JUMPDEST PUSH2 0xF6A SWAP1 PUSH2 0xFA0 PUSH2 0x24A4 JUMP JUMPDEST PUSH2 0xF76 PUSH1 0x6 PUSH1 0xA PUSH2 0x2498 JUMP JUMPDEST PUSH2 0xF82 SWAP1 PUSH2 0x1388 PUSH2 0x24A4 JUMP JUMPDEST PUSH2 0xF8E PUSH1 0x6 PUSH1 0xA PUSH2 0x2498 JUMP JUMPDEST PUSH2 0xCEA SWAP1 PUSH1 0xFA PUSH2 0x24A4 JUMP JUMPDEST PUSH2 0xFE5 PUSH1 0xA PUSH2 0xFA9 PUSH1 0x6 DUP3 PUSH2 0x2498 JUMP JUMPDEST PUSH2 0xFB5 SWAP1 PUSH2 0x1388 PUSH2 0x24A4 JUMP JUMPDEST PUSH2 0xFC1 PUSH1 0x6 PUSH1 0xA PUSH2 0x2498 JUMP JUMPDEST PUSH2 0xFCD SWAP1 PUSH2 0x1770 PUSH2 0x24A4 JUMP JUMPDEST PUSH2 0xFD9 PUSH1 0x6 PUSH1 0xA PUSH2 0x2498 JUMP JUMPDEST PUSH2 0xCEA SWAP1 PUSH2 0x12C PUSH2 0x24A4 JUMP JUMPDEST PUSH2 0x1032 PUSH1 0xB PUSH2 0xFF6 PUSH1 0x6 PUSH1 0xA PUSH2 0x2498 JUMP JUMPDEST PUSH2 0x1002 SWAP1 PUSH2 0x1770 PUSH2 0x24A4 JUMP JUMPDEST PUSH2 0x100E PUSH1 0x6 PUSH1 0xA PUSH2 0x2498 JUMP JUMPDEST PUSH2 0x101A SWAP1 PUSH2 0x1B58 PUSH2 0x24A4 JUMP JUMPDEST PUSH2 0x1026 PUSH1 0x6 PUSH1 0xA PUSH2 0x2498 JUMP JUMPDEST PUSH2 0xCEA SWAP1 PUSH2 0x15E PUSH2 0x24A4 JUMP JUMPDEST PUSH2 0x107F PUSH1 0xC PUSH2 0x1043 PUSH1 0x6 PUSH1 0xA PUSH2 0x2498 JUMP JUMPDEST PUSH2 0x104F SWAP1 PUSH2 0x1B58 PUSH2 0x24A4 JUMP JUMPDEST PUSH2 0x105B PUSH1 0x6 PUSH1 0xA PUSH2 0x2498 JUMP JUMPDEST PUSH2 0x1067 SWAP1 PUSH2 0x1F40 PUSH2 0x24A4 JUMP JUMPDEST PUSH2 0x1073 PUSH1 0x6 PUSH1 0xA PUSH2 0x2498 JUMP JUMPDEST PUSH2 0xCEA SWAP1 PUSH2 0x190 PUSH2 0x24A4 JUMP JUMPDEST PUSH2 0x10CC PUSH1 0xD PUSH2 0x1090 PUSH1 0x6 PUSH1 0xA PUSH2 0x2498 JUMP JUMPDEST PUSH2 0x109C SWAP1 PUSH2 0x1F40 PUSH2 0x24A4 JUMP JUMPDEST PUSH2 0x10A8 PUSH1 0x6 PUSH1 0xA PUSH2 0x2498 JUMP JUMPDEST PUSH2 0x10B4 SWAP1 PUSH2 0x2328 PUSH2 0x24A4 JUMP JUMPDEST PUSH2 0x10C0 PUSH1 0x6 PUSH1 0xA PUSH2 0x2498 JUMP JUMPDEST PUSH2 0xCEA SWAP1 PUSH2 0x1C2 PUSH2 0x24A4 JUMP JUMPDEST PUSH2 0x1119 PUSH1 0xE PUSH2 0x10DD PUSH1 0x6 PUSH1 0xA PUSH2 0x2498 JUMP JUMPDEST PUSH2 0x10E9 SWAP1 PUSH2 0x2328 PUSH2 0x24A4 JUMP JUMPDEST PUSH2 0x10F5 PUSH1 0x6 PUSH1 0xA PUSH2 0x2498 JUMP JUMPDEST PUSH2 0x1101 SWAP1 PUSH2 0x2710 PUSH2 0x24A4 JUMP JUMPDEST PUSH2 0x110D PUSH1 0x6 PUSH1 0xA PUSH2 0x2498 JUMP JUMPDEST PUSH2 0xCEA SWAP1 PUSH2 0x1F4 PUSH2 0x24A4 JUMP JUMPDEST PUSH2 0x1166 PUSH1 0xF PUSH2 0x112A PUSH1 0x6 PUSH1 0xA PUSH2 0x2498 JUMP JUMPDEST PUSH2 0x1136 SWAP1 PUSH2 0x2710 PUSH2 0x24A4 JUMP JUMPDEST PUSH2 0x1142 PUSH1 0x6 PUSH1 0xA PUSH2 0x2498 JUMP JUMPDEST PUSH2 0x114E SWAP1 PUSH2 0x3A98 PUSH2 0x24A4 JUMP JUMPDEST PUSH2 0x115A PUSH1 0x6 PUSH1 0xA PUSH2 0x2498 JUMP JUMPDEST PUSH2 0xCEA SWAP1 PUSH2 0x2EE PUSH2 0x24A4 JUMP JUMPDEST PUSH2 0x11B3 PUSH1 0x10 PUSH2 0x1177 PUSH1 0x6 PUSH1 0xA PUSH2 0x2498 JUMP JUMPDEST PUSH2 0x1183 SWAP1 PUSH2 0x3A98 PUSH2 0x24A4 JUMP JUMPDEST PUSH2 0x118F PUSH1 0x6 PUSH1 0xA PUSH2 0x2498 JUMP JUMPDEST PUSH2 0x119B SWAP1 PUSH2 0x4E20 PUSH2 0x24A4 JUMP JUMPDEST PUSH2 0x11A7 PUSH1 0x6 PUSH1 0xA PUSH2 0x2498 JUMP JUMPDEST PUSH2 0xCEA SWAP1 PUSH2 0x3E8 PUSH2 0x24A4 JUMP JUMPDEST PUSH2 0x1200 PUSH1 0x11 PUSH2 0x11C4 PUSH1 0x6 PUSH1 0xA PUSH2 0x2498 JUMP JUMPDEST PUSH2 0x11D0 SWAP1 PUSH2 0x4E20 PUSH2 0x24A4 JUMP JUMPDEST PUSH2 0x11DC PUSH1 0x6 PUSH1 0xA PUSH2 0x2498 JUMP JUMPDEST PUSH2 0x11E8 SWAP1 PUSH2 0x7530 PUSH2 0x24A4 JUMP JUMPDEST PUSH2 0x11F4 PUSH1 0x6 PUSH1 0xA PUSH2 0x2498 JUMP JUMPDEST PUSH2 0xCEA SWAP1 PUSH2 0x5DC PUSH2 0x24A4 JUMP JUMPDEST PUSH2 0x124D PUSH1 0x12 PUSH2 0x1211 PUSH1 0x6 PUSH1 0xA PUSH2 0x2498 JUMP JUMPDEST PUSH2 0x121D SWAP1 PUSH2 0x7530 PUSH2 0x24A4 JUMP JUMPDEST PUSH2 0x1229 PUSH1 0x6 PUSH1 0xA PUSH2 0x2498 JUMP JUMPDEST PUSH2 0x1235 SWAP1 PUSH2 0xC350 PUSH2 0x24A4 JUMP JUMPDEST PUSH2 0x1241 PUSH1 0x6 PUSH1 0xA PUSH2 0x2498 JUMP JUMPDEST PUSH2 0xCEA SWAP1 PUSH2 0x9C4 PUSH2 0x24A4 JUMP JUMPDEST PUSH2 0x1285 PUSH1 0x13 PUSH2 0x125E PUSH1 0x6 PUSH1 0xA PUSH2 0x2498 JUMP JUMPDEST PUSH2 0x126A SWAP1 PUSH2 0xC350 PUSH2 0x24A4 JUMP JUMPDEST PUSH1 0x0 NOT PUSH2 0x1279 PUSH1 0x6 PUSH1 0xA PUSH2 0x2498 JUMP JUMPDEST PUSH2 0xCEA SWAP1 PUSH2 0xFA0 PUSH2 0x24A4 JUMP JUMPDEST DUP4 ISZERO PUSH2 0x12CB JUMPI DUP5 SLOAD PUSH1 0xFF PUSH1 0x40 SHL NOT AND DUP6 SSTORE PUSH1 0x40 MLOAD PUSH1 0x1 DUP2 MSTORE PUSH32 0xC7F505B2F371AE2175EE4913F4499E1F2633A7B5936321EED1CDAEB6115181D2 SWAP1 PUSH1 0x20 ADD PUSH1 0x40 MLOAD DUP1 SWAP2 SUB SWAP1 LOG1 JUMPDEST POP POP POP POP POP POP POP JUMP JUMPDEST PUSH2 0x12DC PUSH2 0x1CC7 JUMP JUMPDEST PUSH2 0x12E5 DUP3 PUSH2 0x1D7E JUMP JUMPDEST PUSH2 0x12EF DUP3 DUP3 PUSH2 0x1D86 JUMP JUMPDEST POP POP JUMP JUMPDEST PUSH2 0x12FB PUSH2 0x1900 JUMP JUMPDEST PUSH1 0x1 PUSH1 0x1 PUSH1 0xA0 SHL SUB DUP2 AND PUSH2 0x1343 JUMPI PUSH1 0x40 MLOAD PUSH3 0x461BCD PUSH1 0xE5 SHL DUP2 MSTORE PUSH1 0x20 PUSH1 0x4 DUP3 ADD MSTORE PUSH1 0xF PUSH1 0x24 DUP3 ADD MSTORE PUSH15 0x496E76616C69642061646472657373 PUSH1 0x88 SHL PUSH1 0x44 DUP3 ADD MSTORE PUSH1 0x64 ADD PUSH2 0x839 JUMP JUMPDEST PUSH1 0x33 DUP1 SLOAD PUSH1 0x1 PUSH1 0x1 PUSH1 0xA0 SHL SUB NOT AND PUSH1 0x1 PUSH1 0x1 PUSH1 0xA0 SHL SUB SWAP3 SWAP1 SWAP3 AND SWAP2 SWAP1 SWAP2 OR SWAP1 SSTORE JUMP JUMPDEST PUSH1 0x0 PUSH2 0x136F PUSH2 0x1E55 JUMP JUMPDEST POP PUSH32 0x360894A13BA1A3210667C828492DB98DCA3E2076CC3735A920A3CA505D382BBC SWAP1 JUMP JUMPDEST PUSH1 0x0 PUSH2 0x139E PUSH2 0x19F7 JUMP JUMPDEST PUSH1 0x3A SLOAD PUSH1 0x1 PUSH1 0x1 PUSH1 0xA0 SHL SUB AND CALLER EQ PUSH2 0x13F8 JUMPI PUSH1 0x40 MLOAD PUSH3 0x461BCD PUSH1 0xE5 SHL DUP2 MSTORE PUSH1 0x20 PUSH1 0x4 DUP3 ADD DUP2 SWAP1 MSTORE PUSH1 0x24 DUP3 ADD MSTORE PUSH32 0x4F6E6C79204A6F624D61726B657420636F6E74726163742063616E2063616C6C PUSH1 0x44 DUP3 ADD MSTORE PUSH1 0x64 ADD PUSH2 0x839 JUMP JUMPDEST PUSH1 0x0 DUP5 DUP2 MSTORE PUSH1 0x37 PUSH1 0x20 MSTORE PUSH1 0x40 SWAP1 KECCAK256 SLOAD PUSH1 0xFF AND ISZERO PUSH2 0x1457 JUMPI PUSH1 0x40 MLOAD PUSH3 0x461BCD PUSH1 0xE5 SHL DUP2 MSTORE PUSH1 0x20 PUSH1 0x4 DUP3 ADD MSTORE PUSH1 0x15 PUSH1 0x24 DUP3 ADD MSTORE PUSH32 0x4A6F6220616C72656164792070726F6365737365640000000000000000000000 PUSH1 0x44 DUP3 ADD MSTORE PUSH1 0x64 ADD PUSH2 0x839 JUMP JUMPDEST PUSH1 0x1 PUSH1 0x1 PUSH1 0xA0 SHL SUB DUP3 AND PUSH2 0x14A1 JUMPI PUSH1 0x40 MLOAD PUSH3 0x461BCD PUSH1 0xE5 SHL DUP2 MSTORE PUSH1 0x20 PUSH1 0x4 DUP3 ADD MSTORE PUSH1 0x11 PUSH1 0x24 DUP3 ADD MSTORE PUSH17 0x125B9D985B1A59081C9958DA5C1A595B9D PUSH1 0x7A SHL PUSH1 0x44 DUP3 ADD MSTORE PUSH1 0x64 ADD PUSH2 0x839 JUMP JUMPDEST PUSH2 0x14AA DUP4 PUSH2 0x17B9 JUMP JUMPDEST PUSH1 0x1 PUSH1 0x1 PUSH1 0xA0 SHL SUB DUP4 AND PUSH1 0x0 SWAP1 DUP2 MSTORE PUSH1 0x36 PUSH1 0x20 MSTORE PUSH1 0x40 DUP2 KECCAK256 DUP1 SLOAD SWAP3 SWAP4 POP SWAP2 DUP4 SWAP2 DUP4 SWAP2 PUSH2 0x14D7 SWAP1 DUP5 SWAP1 PUSH2 0x2363 JUMP JUMPDEST SWAP3 POP POP DUP2 SWAP1 SSTORE POP PUSH1 0x1 DUP2 PUSH1 0x2 ADD PUSH1 0x0 DUP3 DUP3 SLOAD PUSH2 0x14F3 SWAP2 SWAP1 PUSH2 0x2363 JUMP JUMPDEST SWAP1 SWAP2 SSTORE POP POP TIMESTAMP PUSH1 0x3 DUP3 ADD SSTORE PUSH1 0x0 DUP6 DUP2 MSTORE PUSH1 0x37 PUSH1 0x20 MSTORE PUSH1 0x40 SWAP1 DUP2 SWAP1 KECCAK256 DUP1 SLOAD PUSH1 0xFF NOT AND PUSH1 0x1 OR SWAP1 SSTORE MLOAD PUSH1 0x1 PUSH1 0x1 PUSH1 0xA0 SHL SUB DUP5 AND SWAP1 DUP7 SWAP1 PUSH32 0x8563182A6D6478C8BC8164AC771BEE11CD3BFAFD0B73D5B1D6B8102EE4457508 SWAP1 PUSH2 0x155F SWAP1 DUP9 SWAP1 DUP8 SWAP1 SWAP2 DUP3 MSTORE PUSH1 0x20 DUP3 ADD MSTORE PUSH1 0x40 ADD SWAP1 JUMP JUMPDEST PUSH1 0x40 MLOAD DUP1 SWAP2 SUB SWAP1 LOG3 POP PUSH2 0x1572 PUSH1 0x1 PUSH1 0x0 SSTORE JUMP JUMPDEST SWAP4 SWAP3 POP POP POP JUMP JUMPDEST PUSH2 0x1581 PUSH2 0x1900 JUMP JUMPDEST PUSH2 0xABB PUSH1 0x0 PUSH2 0x1C56 JUMP JUMPDEST PUSH1 0x0 PUSH1 0x1 PUSH1 0x1 PUSH1 0xA0 SHL SUB DUP4 AND ISZERO DUP1 ISZERO SWAP1 PUSH2 0x15A5 JUMPI POP PUSH1 0x0 DUP3 GT JUMPDEST POP POP PUSH1 0x1 JUMPDEST SWAP3 SWAP2 POP POP JUMP JUMPDEST PUSH2 0x15B8 PUSH2 0x1900 JUMP JUMPDEST PUSH1 0x1 PUSH1 0x1 PUSH1 0xA0 SHL SUB DUP2 AND PUSH2 0x1600 JUMPI PUSH1 0x40 MLOAD PUSH3 0x461BCD PUSH1 0xE5 SHL DUP2 MSTORE PUSH1 0x20 PUSH1 0x4 DUP3 ADD MSTORE PUSH1 0xF PUSH1 0x24 DUP3 ADD MSTORE PUSH15 0x496E76616C69642061646472657373 PUSH1 0x88 SHL PUSH1 0x44 DUP3 ADD MSTORE PUSH1 0x64 ADD PUSH2 0x839 JUMP JUMPDEST PUSH1 0x32 DUP1 SLOAD PUSH1 0x1 PUSH1 0x1 PUSH1 0xA0 SHL SUB NOT AND PUSH1 0x1 PUSH1 0x1 PUSH1 0xA0 SHL SUB SWAP3 SWAP1 SWAP3 AND SWAP2 SWAP1 SWAP2 OR SWAP1 SSTORE JUMP JUMPDEST PUSH2 0x162A PUSH2 0x1900 JUMP JUMPDEST PUSH1 0x1 PUSH1 0x1 PUSH1 0xA0 SHL SUB DUP2 AND PUSH2 0x1672 JUMPI PUSH1 0x40 MLOAD PUSH3 0x461BCD PUSH1 0xE5 SHL DUP2 MSTORE PUSH1 0x20 PUSH1 0x4 DUP3 ADD MSTORE PUSH1 0xF PUSH1 0x24 DUP3 ADD MSTORE PUSH15 0x496E76616C69642061646472657373 PUSH1 0x88 SHL PUSH1 0x44 DUP3 ADD MSTORE PUSH1 0x64 ADD PUSH2 0x839 JUMP JUMPDEST PUSH1 0x3A DUP1 SLOAD PUSH1 0x1 PUSH1 0x1 PUSH1 0xA0 SHL SUB NOT AND PUSH1 0x1 PUSH1 0x1 PUSH1 0xA0 SHL SUB SWAP3 SWAP1 SWAP3 AND SWAP2 SWAP1 SWAP2 OR SWAP1 SSTORE JUMP JUMPDEST PUSH1 0x3A SLOAD PUSH1 0x1 PUSH1 0x1 PUSH1 0xA0 SHL SUB AND CALLER EQ PUSH2 0x16EE JUMPI PUSH1 0x40 MLOAD PUSH3 0x461BCD PUSH1 0xE5 SHL DUP2 MSTORE PUSH1 0x20 PUSH1 0x4 DUP3 ADD DUP2 SWAP1 MSTORE PUSH1 0x24 DUP3 ADD MSTORE PUSH32 0x4F6E6C79204A6F624D61726B657420636F6E74726163742063616E2063616C6C PUSH1 0x44 DUP3 ADD MSTORE PUSH1 0x64 ADD PUSH2 0x839 JUMP JUMPDEST PUSH1 0x1 PUSH1 0x1 PUSH1 0xA0 SHL SUB DUP3 AND PUSH2 0x1744 JUMPI PUSH1 0x40 MLOAD PUSH3 0x461BCD PUSH1 0xE5 SHL DUP2 MSTORE PUSH1 0x20 PUSH1 0x4 DUP3 ADD MSTORE PUSH1 0x14 PUSH1 0x24 DUP3 ADD MSTORE PUSH32 0x496E76616C696420757365722061646472657373000000000000000000000000 PUSH1 0x44 DUP3 ADD MSTORE PUSH1 0x64 ADD PUSH2 0x839 JUMP JUMPDEST PUSH1 0x1 PUSH1 0x1 PUSH1 0xA0 SHL SUB DUP3 AND PUSH1 0x0 SWAP1 DUP2 MSTORE PUSH1 0x36 PUSH1 0x20 MSTORE PUSH1 0x40 DUP2 KECCAK256 DUP1 SLOAD SWAP1 SWAP2 DUP4 SWAP2 DUP4 SWAP2 SWAP1 PUSH2 0x1770 SWAP1 DUP5 SWAP1 PUSH2 0x2363 JUMP JUMPDEST SWAP1 SWAP2 SSTORE POP POP PUSH1 0x40 MLOAD DUP3 DUP2 MSTORE PUSH1 0x1 PUSH1 0x1 PUSH1 0xA0 SHL SUB DUP5 AND SWAP1 PUSH32 0x1E3C6A120CCC93A72CDB446D81242F41580D6977F954E38AD8B184995FFAA674 SWAP1 PUSH1 0x20 ADD JUMPDEST PUSH1 0x40 MLOAD DUP1 SWAP2 SUB SWAP1 LOG2 POP POP POP JUMP JUMPDEST PUSH1 0x0 DUP1 JUMPDEST PUSH1 0x35 SLOAD DUP2 LT ISZERO PUSH2 0x182A JUMPI PUSH1 0x0 DUP2 DUP2 MSTORE PUSH1 0x39 PUSH1 0x20 SWAP1 DUP2 MSTORE PUSH1 0x40 SWAP2 DUP3 SWAP1 KECCAK256 DUP3 MLOAD PUSH1 0x60 DUP2 ADD DUP5 MSTORE DUP2 SLOAD DUP1 DUP3 MSTORE PUSH1 0x1 DUP4 ADD SLOAD SWAP4 DUP3 ADD SWAP4 SWAP1 SWAP4 MSTORE PUSH1 0x2 SWAP1 SWAP2 ADD SLOAD SWAP3 DUP2 ADD SWAP3 SWAP1 SWAP3 MSTORE DUP5 LT DUP1 ISZERO SWAP1 PUSH2 0x1811 JUMPI POP DUP1 PUSH1 0x20 ADD MLOAD DUP5 LT JUMPDEST ISZERO PUSH2 0x1821 JUMPI PUSH1 0x40 ADD MLOAD SWAP4 SWAP3 POP POP POP JUMP JUMPDEST POP PUSH1 0x1 ADD PUSH2 0x17BD JUMP JUMPDEST POP PUSH1 0x0 SWAP3 SWAP2 POP POP JUMP JUMPDEST PUSH1 0x3A SLOAD PUSH1 0x1 PUSH1 0x1 PUSH1 0xA0 SHL SUB AND CALLER EQ DUP1 PUSH2 0x1856 JUMPI POP PUSH1 0x33 SLOAD PUSH1 0x1 PUSH1 0x1 PUSH1 0xA0 SHL SUB AND CALLER EQ JUMPDEST PUSH2 0x18AD JUMPI PUSH1 0x40 MLOAD PUSH3 0x461BCD PUSH1 0xE5 SHL DUP2 MSTORE PUSH1 0x20 PUSH1 0x4 DUP3 ADD MSTORE PUSH1 0x22 PUSH1 0x24 DUP3 ADD MSTORE PUSH32 0x4F6E6C7920617574686F72697A656420636F6E7472616374732063616E206361 PUSH1 0x44 DUP3 ADD MSTORE PUSH2 0x1B1B PUSH1 0xF2 SHL PUSH1 0x64 DUP3 ADD MSTORE PUSH1 0x84 ADD PUSH2 0x839 JUMP JUMPDEST PUSH2 0x12EF DUP3 DUP3 PUSH2 0x1A50 JUMP JUMPDEST PUSH1 0x0 PUSH2 0x15AA DUP3 PUSH2 0x17B9 JUMP JUMPDEST PUSH2 0x18CA PUSH2 0x1900 JUMP JUMPDEST PUSH1 0x1 PUSH1 0x1 PUSH1 0xA0 SHL SUB DUP2 AND PUSH2 0x18F4 JUMPI PUSH1 0x40 MLOAD PUSH4 0x1E4FBDF7 PUSH1 0xE0 SHL DUP2 MSTORE PUSH1 0x0 PUSH1 0x4 DUP3 ADD MSTORE PUSH1 0x24 ADD PUSH2 0x839 JUMP JUMPDEST PUSH2 0x18FD DUP2 PUSH2 0x1C56 JUMP JUMPDEST POP JUMP JUMPDEST CALLER PUSH2 0x1932 PUSH32 0x9016D09D72D40FDAE2FD8CEAC6B6234C7706214FD39C1CD1E609A0528C199300 SLOAD PUSH1 0x1 PUSH1 0x1 PUSH1 0xA0 SHL SUB AND SWAP1 JUMP JUMPDEST PUSH1 0x1 PUSH1 0x1 PUSH1 0xA0 SHL SUB AND EQ PUSH2 0xABB JUMPI PUSH1 0x40 MLOAD PUSH4 0x118CDAA7 PUSH1 0xE0 SHL DUP2 MSTORE CALLER PUSH1 0x4 DUP3 ADD MSTORE PUSH1 0x24 ADD PUSH2 0x839 JUMP JUMPDEST PUSH1 0x35 SLOAD DUP5 LT PUSH2 0x1972 JUMPI PUSH2 0x1972 PUSH1 0x35 DUP1 SLOAD PUSH1 0x1 ADD SWAP1 SSTORE JUMP JUMPDEST PUSH1 0x40 DUP1 MLOAD PUSH1 0x60 DUP1 DUP3 ADD DUP4 MSTORE DUP6 DUP3 MSTORE PUSH1 0x20 DUP1 DUP4 ADD DUP7 DUP2 MSTORE DUP4 DUP6 ADD DUP7 DUP2 MSTORE PUSH1 0x0 DUP11 DUP2 MSTORE PUSH1 0x39 DUP5 MSTORE DUP7 SWAP1 KECCAK256 SWAP5 MLOAD DUP6 SSTORE SWAP1 MLOAD PUSH1 0x1 DUP6 ADD SSTORE MLOAD PUSH1 0x2 SWAP1 SWAP4 ADD SWAP3 SWAP1 SWAP3 SSTORE DUP3 MLOAD DUP8 DUP2 MSTORE SWAP2 DUP3 ADD DUP7 SWAP1 MSTORE DUP2 DUP4 ADD DUP6 SWAP1 MSTORE DUP2 ADD DUP4 SWAP1 MSTORE SWAP1 MLOAD PUSH32 0xAA53B9E0177BE60613500AE23D39BDE30EB5E4CB18B7EA4B9D7085237DF8AC8F SWAP2 DUP2 SWAP1 SUB PUSH1 0x80 ADD SWAP1 LOG1 POP POP POP POP JUMP JUMPDEST PUSH1 0x2 PUSH1 0x0 SLOAD SUB PUSH2 0x1A49 JUMPI PUSH1 0x40 MLOAD PUSH3 0x461BCD PUSH1 0xE5 SHL DUP2 MSTORE PUSH1 0x20 PUSH1 0x4 DUP3 ADD MSTORE PUSH1 0x1F PUSH1 0x24 DUP3 ADD MSTORE PUSH32 0x5265656E7472616E637947756172643A207265656E7472616E742063616C6C00 PUSH1 0x44 DUP3 ADD MSTORE PUSH1 0x64 ADD PUSH2 0x839 JUMP JUMPDEST PUSH1 0x2 PUSH1 0x0 SSTORE JUMP JUMPDEST PUSH1 0x34 SLOAD PUSH1 0x1 PUSH1 0x1 PUSH1 0xA0 SHL SUB AND ISZERO PUSH2 0x1B0D JUMPI PUSH1 0x34 SLOAD PUSH1 0x40 MLOAD PUSH4 0x34A36021 PUSH1 0xE0 SHL DUP2 MSTORE PUSH1 0x1 PUSH1 0x1 PUSH1 0xA0 SHL SUB DUP5 DUP2 AND PUSH1 0x4 DUP4 ADD MSTORE PUSH1 0x24 DUP3 ADD DUP5 SWAP1 MSTORE SWAP1 SWAP2 AND SWAP1 PUSH4 0x34A36021 SWAP1 PUSH1 0x44 ADD PUSH1 0x0 PUSH1 0x40 MLOAD DUP1 DUP4 SUB DUP2 PUSH1 0x0 DUP8 DUP1 EXTCODESIZE ISZERO DUP1 ISZERO PUSH2 0x1AAF JUMPI PUSH1 0x0 DUP1 REVERT JUMPDEST POP GAS CALL SWAP3 POP POP POP DUP1 ISZERO PUSH2 0x1AC0 JUMPI POP PUSH1 0x1 JUMPDEST ISZERO PUSH2 0x1B0D JUMPI JUMPDEST DUP2 PUSH1 0x1 PUSH1 0x1 PUSH1 0xA0 SHL SUB AND PUSH32 0x4D7518945787EC56AB0988CE8B3A7D06779C9B81C4B50755C40EF8AFEE4E57F4 DUP3 PUSH1 0x40 MLOAD PUSH2 0x1B01 SWAP2 DUP2 MSTORE PUSH1 0x20 ADD SWAP1 JUMP JUMPDEST PUSH1 0x40 MLOAD DUP1 SWAP2 SUB SWAP1 LOG2 POP POP JUMP JUMPDEST PUSH1 0x33 SLOAD PUSH1 0x1 PUSH1 0x1 PUSH1 0xA0 SHL SUB AND ISZERO PUSH2 0x1AC6 JUMPI PUSH1 0x33 SLOAD PUSH1 0x40 MLOAD PUSH1 0x1 PUSH1 0x1 PUSH1 0xA0 SHL SUB DUP5 DUP2 AND PUSH1 0x24 DUP4 ADD MSTORE PUSH1 0x0 SWAP3 AND SWAP1 PUSH1 0x44 ADD PUSH1 0x40 DUP1 MLOAD PUSH1 0x1F NOT DUP2 DUP5 SUB ADD DUP2 MSTORE SWAP2 DUP2 MSTORE PUSH1 0x20 DUP3 ADD DUP1 MLOAD PUSH1 0x1 PUSH1 0x1 PUSH1 0xE0 SHL SUB AND PUSH4 0x369ECA8F PUSH1 0xE2 SHL OR SWAP1 MSTORE MLOAD PUSH2 0x1B71 SWAP2 SWAP1 PUSH2 0x24BB JUMP JUMPDEST PUSH1 0x0 PUSH1 0x40 MLOAD DUP1 DUP4 SUB DUP2 PUSH1 0x0 DUP7 GAS CALL SWAP2 POP POP RETURNDATASIZE DUP1 PUSH1 0x0 DUP2 EQ PUSH2 0x1BAE JUMPI PUSH1 0x40 MLOAD SWAP2 POP PUSH1 0x1F NOT PUSH1 0x3F RETURNDATASIZE ADD AND DUP3 ADD PUSH1 0x40 MSTORE RETURNDATASIZE DUP3 MSTORE RETURNDATASIZE PUSH1 0x0 PUSH1 0x20 DUP5 ADD RETURNDATACOPY PUSH2 0x1BB3 JUMP JUMPDEST PUSH1 0x60 SWAP2 POP JUMPDEST POP POP SWAP1 POP DUP1 ISZERO PUSH2 0x1BF8 JUMPI DUP3 PUSH1 0x1 PUSH1 0x1 PUSH1 0xA0 SHL SUB AND PUSH32 0x4D7518945787EC56AB0988CE8B3A7D06779C9B81C4B50755C40EF8AFEE4E57F4 DUP4 PUSH1 0x40 MLOAD PUSH2 0x17AC SWAP2 DUP2 MSTORE PUSH1 0x20 ADD SWAP1 JUMP JUMPDEST POP POP POP JUMP JUMPDEST PUSH1 0x1 PUSH1 0x0 SSTORE JUMP JUMPDEST PUSH1 0x0 DUP1 PUSH32 0xF0C57E16840DF040F15088DC2F81FE391C3923BEC73E23A9662EFC9C229C6A00 PUSH2 0x15AA JUMP JUMPDEST PUSH2 0x1C35 PUSH2 0x1E9E JUMP JUMPDEST PUSH2 0x18FD DUP2 PUSH2 0x1EC3 JUMP JUMPDEST PUSH2 0x1C46 PUSH2 0x1E9E JUMP JUMPDEST PUSH2 0xABB PUSH2 0x1ECB JUMP JUMPDEST PUSH2 0xABB PUSH2 0x1E9E JUMP JUMPDEST PUSH32 0x9016D09D72D40FDAE2FD8CEAC6B6234C7706214FD39C1CD1E609A0528C199300 DUP1 SLOAD PUSH1 0x1 PUSH1 0x1 PUSH1 0xA0 SHL SUB NOT DUP2 AND PUSH1 0x1 PUSH1 0x1 PUSH1 0xA0 SHL SUB DUP5 DUP2 AND SWAP2 DUP3 OR DUP5 SSTORE PUSH1 0x40 MLOAD SWAP3 AND SWAP2 DUP3 SWAP1 PUSH32 0x8BE0079C531659141344CD1FD0A4F28419497F9722A3DAAFE3B4186F6B6457E0 SWAP1 PUSH1 0x0 SWAP1 LOG3 POP POP POP JUMP JUMPDEST ADDRESS PUSH1 0x1 PUSH1 0x1 PUSH1 0xA0 SHL SUB PUSH32 0x0 AND EQ DUP1 PUSH2 0x1D60 JUMPI POP PUSH32 0x0 PUSH1 0x1 PUSH1 0x1 PUSH1 0xA0 SHL SUB AND PUSH2 0x1D54 PUSH32 0x360894A13BA1A3210667C828492DB98DCA3E2076CC3735A920A3CA505D382BBC SLOAD PUSH1 0x1 PUSH1 0x1 PUSH1 0xA0 SHL SUB AND SWAP1 JUMP JUMPDEST PUSH1 0x1 PUSH1 0x1 PUSH1 0xA0 SHL SUB AND EQ ISZERO JUMPDEST ISZERO PUSH2 0xABB JUMPI PUSH1 0x40 MLOAD PUSH4 0x703E46DD PUSH1 0xE1 SHL DUP2 MSTORE PUSH1 0x4 ADD PUSH1 0x40 MLOAD DUP1 SWAP2 SUB SWAP1 REVERT JUMPDEST PUSH2 0x18FD PUSH2 0x1900 JUMP JUMPDEST DUP2 PUSH1 0x1 PUSH1 0x1 PUSH1 0xA0 SHL SUB AND PUSH4 0x52D1902D PUSH1 0x40 MLOAD DUP2 PUSH4 0xFFFFFFFF AND PUSH1 0xE0 SHL DUP2 MSTORE PUSH1 0x4 ADD PUSH1 0x20 PUSH1 0x40 MLOAD DUP1 DUP4 SUB DUP2 DUP7 GAS STATICCALL SWAP3 POP POP POP DUP1 ISZERO PUSH2 0x1DE0 JUMPI POP PUSH1 0x40 DUP1 MLOAD PUSH1 0x1F RETURNDATASIZE SWAP1 DUP2 ADD PUSH1 0x1F NOT AND DUP3 ADD SWAP1 SWAP3 MSTORE PUSH2 0x1DDD SWAP2 DUP2 ADD SWAP1 PUSH2 0x2376 JUMP JUMPDEST PUSH1 0x1 JUMPDEST PUSH2 0x1E08 JUMPI PUSH1 0x40 MLOAD PUSH4 0x4C9C8CE3 PUSH1 0xE0 SHL DUP2 MSTORE PUSH1 0x1 PUSH1 0x1 PUSH1 0xA0 SHL SUB DUP4 AND PUSH1 0x4 DUP3 ADD MSTORE PUSH1 0x24 ADD PUSH2 0x839 JUMP JUMPDEST PUSH32 0x360894A13BA1A3210667C828492DB98DCA3E2076CC3735A920A3CA505D382BBC DUP2 EQ PUSH2 0x1E4B JUMPI PUSH1 0x40 MLOAD PUSH4 0x2A875269 PUSH1 0xE2 SHL DUP2 MSTORE PUSH1 0x4 DUP2 ADD DUP3 SWAP1 MSTORE PUSH1 0x24 ADD PUSH2 0x839 JUMP JUMPDEST PUSH2 0x1BF8 DUP4 DUP4 PUSH2 0x1ED3 JUMP JUMPDEST ADDRESS PUSH1 0x1 PUSH1 0x1 PUSH1 0xA0 SHL SUB PUSH32 0x0 AND EQ PUSH2 0xABB JUMPI PUSH1 0x40 MLOAD PUSH4 0x703E46DD PUSH1 0xE1 SHL DUP2 MSTORE PUSH1 0x4 ADD PUSH1 0x40 MLOAD DUP1 SWAP2 SUB SWAP1 REVERT JUMPDEST PUSH2 0x1EA6 PUSH2 0x1F29 JUMP JUMPDEST PUSH2 0xABB JUMPI PUSH1 0x40 MLOAD PUSH4 0x1AFCD79F PUSH1 0xE3 SHL DUP2 MSTORE PUSH1 0x4 ADD PUSH1 0x40 MLOAD DUP1 SWAP2 SUB SWAP1 REVERT JUMPDEST PUSH2 0x18CA PUSH2 0x1E9E JUMP JUMPDEST PUSH2 0x1BFD PUSH2 0x1E9E JUMP JUMPDEST PUSH2 0x1EDC DUP3 PUSH2 0x1F43 JUMP JUMPDEST PUSH1 0x40 MLOAD PUSH1 0x1 PUSH1 0x1 PUSH1 0xA0 SHL SUB DUP4 AND SWAP1 PUSH32 0xBC7CD75A20EE27FD9ADEBAB32041F755214DBC6BFFA90CC0225B39DA2E5C2D3B SWAP1 PUSH1 0x0 SWAP1 LOG2 DUP1 MLOAD ISZERO PUSH2 0x1F21 JUMPI PUSH2 0x1BF8 DUP3 DUP3 PUSH2 0x1FBA JUMP JUMPDEST PUSH2 0x12EF PUSH2 0x2030 JUMP JUMPDEST PUSH1 0x0 PUSH2 0x1F33 PUSH2 0x1C04 JUMP JUMPDEST SLOAD PUSH1 0x1 PUSH1 0x40 SHL SWAP1 DIV PUSH1 0xFF AND SWAP2 SWAP1 POP JUMP JUMPDEST DUP1 PUSH1 0x1 PUSH1 0x1 PUSH1 0xA0 SHL SUB AND EXTCODESIZE PUSH1 0x0 SUB PUSH2 0x1F79 JUMPI PUSH1 0x40 MLOAD PUSH4 0x4C9C8CE3 PUSH1 0xE0 SHL DUP2 MSTORE PUSH1 0x1 PUSH1 0x1 PUSH1 0xA0 SHL SUB DUP3 AND PUSH1 0x4 DUP3 ADD MSTORE PUSH1 0x24 ADD PUSH2 0x839 JUMP JUMPDEST PUSH32 0x360894A13BA1A3210667C828492DB98DCA3E2076CC3735A920A3CA505D382BBC DUP1 SLOAD PUSH1 0x1 PUSH1 0x1 PUSH1 0xA0 SHL SUB NOT AND PUSH1 0x1 PUSH1 0x1 PUSH1 0xA0 SHL SUB SWAP3 SWAP1 SWAP3 AND SWAP2 SWAP1 SWAP2 OR SWAP1 SSTORE JUMP JUMPDEST PUSH1 0x60 PUSH1 0x0 DUP1 DUP5 PUSH1 0x1 PUSH1 0x1 PUSH1 0xA0 SHL SUB AND DUP5 PUSH1 0x40 MLOAD PUSH2 0x1FD7 SWAP2 SWAP1 PUSH2 0x24BB JUMP JUMPDEST PUSH1 0x0 PUSH1 0x40 MLOAD DUP1 DUP4 SUB DUP2 DUP6 GAS DELEGATECALL SWAP2 POP POP RETURNDATASIZE DUP1 PUSH1 0x0 DUP2 EQ PUSH2 0x2012 JUMPI PUSH1 0x40 MLOAD SWAP2 POP PUSH1 0x1F NOT PUSH1 0x3F RETURNDATASIZE ADD AND DUP3 ADD PUSH1 0x40 MSTORE RETURNDATASIZE DUP3 MSTORE RETURNDATASIZE PUSH1 0x0 PUSH1 0x20 DUP5 ADD RETURNDATACOPY PUSH2 0x2017 JUMP JUMPDEST PUSH1 0x60 SWAP2 POP JUMPDEST POP SWAP2 POP SWAP2 POP PUSH2 0x2027 DUP6 DUP4 DUP4 PUSH2 0x204F JUMP JUMPDEST SWAP6 SWAP5 POP POP POP POP POP JUMP JUMPDEST CALLVALUE ISZERO PUSH2 0xABB JUMPI PUSH1 0x40 MLOAD PUSH4 0xB398979F PUSH1 0xE0 SHL DUP2 MSTORE PUSH1 0x4 ADD PUSH1 0x40 MLOAD DUP1 SWAP2 SUB SWAP1 REVERT JUMPDEST PUSH1 0x60 DUP3 PUSH2 0x2064 JUMPI PUSH2 0x205F DUP3 PUSH2 0x20AB JUMP JUMPDEST PUSH2 0x1572 JUMP JUMPDEST DUP2 MLOAD ISZERO DUP1 ISZERO PUSH2 0x207B JUMPI POP PUSH1 0x1 PUSH1 0x1 PUSH1 0xA0 SHL SUB DUP5 AND EXTCODESIZE ISZERO JUMPDEST ISZERO PUSH2 0x20A4 JUMPI PUSH1 0x40 MLOAD PUSH4 0x9996B315 PUSH1 0xE0 SHL DUP2 MSTORE PUSH1 0x1 PUSH1 0x1 PUSH1 0xA0 SHL SUB DUP6 AND PUSH1 0x4 DUP3 ADD MSTORE PUSH1 0x24 ADD PUSH2 0x839 JUMP JUMPDEST POP DUP1 PUSH2 0x1572 JUMP JUMPDEST DUP1 MLOAD ISZERO PUSH2 0x20BB JUMPI DUP1 MLOAD DUP1 DUP3 PUSH1 0x20 ADD REVERT JUMPDEST PUSH1 0x40 MLOAD PUSH4 0xD6BDA275 PUSH1 0xE0 SHL DUP2 MSTORE PUSH1 0x4 ADD PUSH1 0x40 MLOAD DUP1 SWAP2 SUB SWAP1 REVERT JUMPDEST DUP1 CALLDATALOAD PUSH1 0x1 PUSH1 0x1 PUSH1 0xA0 SHL SUB DUP2 AND DUP2 EQ PUSH2 0x20EB JUMPI PUSH1 0x0 DUP1 REVERT JUMPDEST SWAP2 SWAP1 POP JUMP JUMPDEST PUSH1 0x0 PUSH1 0x20 DUP3 DUP5 SUB SLT ISZERO PUSH2 0x2102 JUMPI PUSH1 0x0 DUP1 REVERT JUMPDEST PUSH2 0x1572 DUP3 PUSH2 0x20D4 JUMP JUMPDEST PUSH1 0x0 DUP1 PUSH1 0x0 DUP1 PUSH1 0x80 DUP6 DUP8 SUB SLT ISZERO PUSH2 0x2121 JUMPI PUSH1 0x0 DUP1 REVERT JUMPDEST POP POP DUP3 CALLDATALOAD SWAP5 PUSH1 0x20 DUP5 ADD CALLDATALOAD SWAP5 POP PUSH1 0x40 DUP5 ADD CALLDATALOAD SWAP4 PUSH1 0x60 ADD CALLDATALOAD SWAP3 POP SWAP1 POP JUMP JUMPDEST PUSH1 0x0 DUP1 PUSH1 0x40 DUP4 DUP6 SUB SLT ISZERO PUSH2 0x2150 JUMPI PUSH1 0x0 DUP1 REVERT JUMPDEST POP POP DUP1 CALLDATALOAD SWAP3 PUSH1 0x20 SWAP1 SWAP2 ADD CALLDATALOAD SWAP2 POP JUMP JUMPDEST PUSH1 0x0 DUP1 PUSH1 0x40 DUP4 DUP6 SUB SLT ISZERO PUSH2 0x2172 JUMPI PUSH1 0x0 DUP1 REVERT JUMPDEST PUSH2 0x217B DUP4 PUSH2 0x20D4 JUMP JUMPDEST SWAP2 POP PUSH2 0x2189 PUSH1 0x20 DUP5 ADD PUSH2 0x20D4 JUMP JUMPDEST SWAP1 POP SWAP3 POP SWAP3 SWAP1 POP JUMP JUMPDEST PUSH4 0x4E487B71 PUSH1 0xE0 SHL PUSH1 0x0 MSTORE PUSH1 0x41 PUSH1 0x4 MSTORE PUSH1 0x24 PUSH1 0x0 REVERT JUMPDEST PUSH1 0x0 DUP1 PUSH1 0x40 DUP4 DUP6 SUB SLT ISZERO PUSH2 0x21BB JUMPI PUSH1 0x0 DUP1 REVERT JUMPDEST PUSH2 0x21C4 DUP4 PUSH2 0x20D4 JUMP JUMPDEST SWAP2 POP PUSH1 0x20 DUP4 ADD CALLDATALOAD PUSH8 0xFFFFFFFFFFFFFFFF DUP2 GT ISZERO PUSH2 0x21E0 JUMPI PUSH1 0x0 DUP1 REVERT JUMPDEST DUP4 ADD PUSH1 0x1F DUP2 ADD DUP6 SGT PUSH2 0x21F1 JUMPI PUSH1 0x0 DUP1 REVERT JUMPDEST DUP1 CALLDATALOAD PUSH8 0xFFFFFFFFFFFFFFFF DUP2 GT ISZERO PUSH2 0x220B JUMPI PUSH2 0x220B PUSH2 0x2192 JUMP JUMPDEST PUSH1 0x40 MLOAD PUSH1 0x1F DUP3 ADD PUSH1 0x1F NOT SWAP1 DUP2 AND PUSH1 0x3F ADD AND DUP2 ADD PUSH8 0xFFFFFFFFFFFFFFFF DUP2 GT DUP3 DUP3 LT OR ISZERO PUSH2 0x223A JUMPI PUSH2 0x223A PUSH2 0x2192 JUMP JUMPDEST PUSH1 0x40 MSTORE DUP2 DUP2 MSTORE DUP3 DUP3 ADD PUSH1 0x20 ADD DUP8 LT ISZERO PUSH2 0x2252 JUMPI PUSH1 0x0 DUP1 REVERT JUMPDEST DUP2 PUSH1 0x20 DUP5 ADD PUSH1 0x20 DUP4 ADD CALLDATACOPY PUSH1 0x0 PUSH1 0x20 DUP4 DUP4 ADD ADD MSTORE DUP1 SWAP4 POP POP POP POP SWAP3 POP SWAP3 SWAP1 POP JUMP JUMPDEST PUSH1 0x0 PUSH1 0x20 DUP3 DUP5 SUB SLT ISZERO PUSH2 0x2284 JUMPI PUSH1 0x0 DUP1 REVERT JUMPDEST POP CALLDATALOAD SWAP2 SWAP1 POP JUMP JUMPDEST PUSH1 0x0 DUP1 PUSH1 0x0 PUSH1 0x60 DUP5 DUP7 SUB SLT ISZERO PUSH2 0x22A0 JUMPI PUSH1 0x0 DUP1 REVERT JUMPDEST DUP4 CALLDATALOAD SWAP3 POP PUSH1 0x20 DUP5 ADD CALLDATALOAD SWAP2 POP PUSH2 0x22B7 PUSH1 0x40 DUP6 ADD PUSH2 0x20D4 JUMP JUMPDEST SWAP1 POP SWAP3 POP SWAP3 POP SWAP3 JUMP JUMPDEST PUSH1 0x0 DUP1 PUSH1 0x40 DUP4 DUP6 SUB SLT ISZERO PUSH2 0x22D3 JUMPI PUSH1 0x0 DUP1 REVERT JUMPDEST PUSH2 0x22DC DUP4 PUSH2 0x20D4 JUMP JUMPDEST SWAP5 PUSH1 0x20 SWAP4 SWAP1 SWAP4 ADD CALLDATALOAD SWAP4 POP POP POP JUMP JUMPDEST PUSH1 0x0 JUMPDEST DUP4 DUP2 LT ISZERO PUSH2 0x2305 JUMPI DUP2 DUP2 ADD MLOAD DUP4 DUP3 ADD MSTORE PUSH1 0x20 ADD PUSH2 0x22ED JUMP JUMPDEST POP POP PUSH1 0x0 SWAP2 ADD MSTORE JUMP JUMPDEST PUSH1 0x0 DUP2 MLOAD DUP1 DUP5 MSTORE PUSH2 0x2326 DUP2 PUSH1 0x20 DUP7 ADD PUSH1 0x20 DUP7 ADD PUSH2 0x22EA JUMP JUMPDEST PUSH1 0x1F ADD PUSH1 0x1F NOT AND SWAP3 SWAP1 SWAP3 ADD PUSH1 0x20 ADD SWAP3 SWAP2 POP POP JUMP JUMPDEST PUSH1 0x20 DUP2 MSTORE PUSH1 0x0 PUSH2 0x1572 PUSH1 0x20 DUP4 ADD DUP5 PUSH2 0x230E JUMP JUMPDEST PUSH4 0x4E487B71 PUSH1 0xE0 SHL PUSH1 0x0 MSTORE PUSH1 0x11 PUSH1 0x4 MSTORE PUSH1 0x24 PUSH1 0x0 REVERT JUMPDEST DUP1 DUP3 ADD DUP1 DUP3 GT ISZERO PUSH2 0x15AA JUMPI PUSH2 0x15AA PUSH2 0x234D JUMP JUMPDEST PUSH1 0x0 PUSH1 0x20 DUP3 DUP5 SUB SLT ISZERO PUSH2 0x2388 JUMPI PUSH1 0x0 DUP1 REVERT JUMPDEST POP MLOAD SWAP2 SWAP1 POP JUMP JUMPDEST PUSH1 0x0 DUP3 PUSH2 0x23AC JUMPI PUSH4 0x4E487B71 PUSH1 0xE0 SHL PUSH1 0x0 MSTORE PUSH1 0x12 PUSH1 0x4 MSTORE PUSH1 0x24 PUSH1 0x0 REVERT JUMPDEST POP DIV SWAP1 JUMP JUMPDEST PUSH1 0x1 DUP2 JUMPDEST PUSH1 0x1 DUP5 GT ISZERO PUSH2 0x23EC JUMPI DUP1 DUP6 DIV DUP2 GT ISZERO PUSH2 0x23D0 JUMPI PUSH2 0x23D0 PUSH2 0x234D JUMP JUMPDEST PUSH1 0x1 DUP5 AND ISZERO PUSH2 0x23DE JUMPI SWAP1 DUP2 MUL SWAP1 JUMPDEST PUSH1 0x1 SWAP4 SWAP1 SWAP4 SHR SWAP3 DUP1 MUL PUSH2 0x23B5 JUMP JUMPDEST SWAP4 POP SWAP4 SWAP2 POP POP JUMP JUMPDEST PUSH1 0x0 DUP3 PUSH2 0x2403 JUMPI POP PUSH1 0x1 PUSH2 0x15AA JUMP JUMPDEST DUP2 PUSH2 0x2410 JUMPI POP PUSH1 0x0 PUSH2 0x15AA JUMP JUMPDEST DUP2 PUSH1 0x1 DUP2 EQ PUSH2 0x2426 JUMPI PUSH1 0x2 DUP2 EQ PUSH2 0x2430 JUMPI PUSH2 0x244C JUMP JUMPDEST PUSH1 0x1 SWAP2 POP POP PUSH2 0x15AA JUMP JUMPDEST PUSH1 0xFF DUP5 GT ISZERO PUSH2 0x2441 JUMPI PUSH2 0x2441 PUSH2 0x234D JUMP JUMPDEST POP POP PUSH1 0x1 DUP3 SHL PUSH2 0x15AA JUMP JUMPDEST POP PUSH1 0x20 DUP4 LT PUSH2 0x133 DUP4 LT AND PUSH1 0x4E DUP5 LT PUSH1 0xB DUP5 LT AND OR ISZERO PUSH2 0x246F JUMPI POP DUP2 DUP2 EXP PUSH2 0x15AA JUMP JUMPDEST PUSH2 0x247C PUSH1 0x0 NOT DUP5 DUP5 PUSH2 0x23B1 JUMP JUMPDEST DUP1 PUSH1 0x0 NOT DIV DUP3 GT ISZERO PUSH2 0x2490 JUMPI PUSH2 0x2490 PUSH2 0x234D JUMP JUMPDEST MUL SWAP4 SWAP3 POP POP POP JUMP JUMPDEST PUSH1 0x0 PUSH2 0x1572 DUP4 DUP4 PUSH2 0x23F4 JUMP JUMPDEST DUP1 DUP3 MUL DUP2 ISZERO DUP3 DUP3 DIV DUP5 EQ OR PUSH2 0x15AA JUMPI PUSH2 0x15AA PUSH2 0x234D JUMP JUMPDEST PUSH1 0x0 DUP3 MLOAD PUSH2 0x24CD DUP2 DUP5 PUSH1 0x20 DUP8 ADD PUSH2 0x22EA JUMP JUMPDEST SWAP2 SWAP1 SWAP2 ADD SWAP3 SWAP2 POP POP JUMP INVALID LOG2 PUSH5 0x6970667358 0x22 SLT KECCAK256 BYTE 0xBD 0x27 MULMOD 0xA7 0xB8 DUP11 PUSH14 0xB66858C92EC21076DCDD1FE324D1 0xC1 TLOAD GASPRICE 0xE9 SWAP16 POP 0xBE 0xB4 0xB0 0xEA PUSH5 0x736F6C6343 STOP ADDMOD SHR STOP CALLER "
		},
		"gasEstimates": {
			"creation": {
				"codeDepositCost": "1897000",
				"executionCost": "infinite",
				"totalCost": "infinite"
			},
			"external": {
				"DECIMALS()": "308",
				"UPGRADE_INTERFACE_VERSION()": "infinite",
				"addToClaimAllowlist(address,uint256)": "576",
				"calculateRewardAmount(uint256)": "infinite",
				"calculateTokenReward(uint256)": "infinite",
				"claimRewards()": "infinite",
				"crossChainBridge()": "2470",
				"daoGovernanceContract()": "2426",
				"getClaimedRewards(address)": "2610",
				"getPendingRewards(address)": "2647",
				"getTotalStakedTokens(address)": "399",
				"getUserStats(address)": "11256",
				"governanceActionTracker()": "2425",
				"hasCompletedGovernanceActions(address,uint256)": "2694",
				"initialize(address,address)": "infinite",
				"jobMarketContract()": "2469",
				"owner()": "2410",
				"processedClaims(bytes32)": "2583",
				"processedJobs(bytes32)": "2495",
				"proxiableUUID()": "infinite",
				"recordEarnings(address,uint256)": "28408",
				"recordGovernanceAction(address,uint256)": "infinite",
				"recordJobCompletion(bytes32,uint256,address)": "infinite",
				"renounceOwnership()": "infinite",
				"rewardBands(uint256)": "6780",
				"setCrossChainBridge(address)": "26849",
				"setDAOGovernanceContract(address)": "26871",
				"setGovernanceActionTracker(address)": "26872",
				"setJobMarketContract(address)": "26871",
				"stakeTokens(uint256,uint256)": "487",
				"transferOwnership(address)": "28434",
				"unstakeTokens(uint256)": "465",
				"updateRewardBand(uint256,uint256,uint256,uint256)": "99502",
				"upgradeToAndCall(address,bytes)": "infinite",
				"userRewards(address)": "11099"
			},
			"internal": {
				"_authorizeUpgrade(address)": "infinite",
				"_recordGovernanceAction(address,uint256)": "infinite",
				"_setRewardBand(uint256,uint256,uint256,uint256)": "infinite"
			}
		},
		"methodIdentifiers": {
			"DECIMALS()": "2e0f2625",
			"UPGRADE_INTERFACE_VERSION()": "ad3cb1cc",
			"addToClaimAllowlist(address,uint256)": "718431d1",
			"calculateRewardAmount(uint256)": "9d6b522a",
			"calculateTokenReward(uint256)": "c03d55a5",
			"claimRewards()": "372500ab",
			"crossChainBridge()": "b3e26566",
			"daoGovernanceContract()": "bd2d3aa2",
			"getClaimedRewards(address)": "b9e35db0",
			"getPendingRewards(address)": "f6ed2017",
			"getTotalStakedTokens(address)": "cdc87f68",
			"getUserStats(address)": "4e43603a",
			"governanceActionTracker()": "f6814da7",
			"hasCompletedGovernanceActions(address,uint256)": "93632a6f",
			"initialize(address,address)": "485cc955",
			"jobMarketContract()": "ffd9888f",
			"owner()": "8da5cb5b",
			"processedClaims(bytes32)": "7d548c64",
			"processedJobs(bytes32)": "b7277bc8",
			"proxiableUUID()": "52d1902d",
			"recordEarnings(address,uint256)": "9b1df017",
			"recordGovernanceAction(address,uint256)": "ad1b3feb",
			"recordJobCompletion(bytes32,uint256,address)": "66219a00",
			"renounceOwnership()": "715018a6",
			"rewardBands(uint256)": "6a55b7ca",
			"setCrossChainBridge(address)": "7f0ebb03",
			"setDAOGovernanceContract(address)": "50cf7279",
			"setGovernanceActionTracker(address)": "2415d840",
			"setJobMarketContract(address)": "88105f6b",
			"stakeTokens(uint256,uint256)": "3b7b6188",
			"transferOwnership(address)": "f2fde38b",
			"unstakeTokens(uint256)": "608e4dd0",
			"updateRewardBand(uint256,uint256,uint256,uint256)": "2557d6b9",
			"upgradeToAndCall(address,bytes)": "4f1ef286",
			"userRewards(address)": "0660f1e8"
		}
	},
	"abi": [
		{
			"inputs": [],
			"stateMutability": "nonpayable",
			"type": "constructor"
		},
		{
			"inputs": [
				{
					"internalType": "address",
					"name": "target",
					"type": "address"
				}
			],
			"name": "AddressEmptyCode",
			"type": "error"
		},
		{
			"inputs": [
				{
					"internalType": "address",
					"name": "implementation",
					"type": "address"
				}
			],
			"name": "ERC1967InvalidImplementation",
			"type": "error"
		},
		{
			"inputs": [],
			"name": "ERC1967NonPayable",
			"type": "error"
		},
		{
			"inputs": [],
			"name": "FailedCall",
			"type": "error"
		},
		{
			"inputs": [],
			"name": "InvalidInitialization",
			"type": "error"
		},
		{
			"inputs": [],
			"name": "NotInitializing",
			"type": "error"
		},
		{
			"inputs": [
				{
					"internalType": "address",
					"name": "owner",
					"type": "address"
				}
			],
			"name": "OwnableInvalidOwner",
			"type": "error"
		},
		{
			"inputs": [
				{
					"internalType": "address",
					"name": "account",
					"type": "address"
				}
			],
			"name": "OwnableUnauthorizedAccount",
			"type": "error"
		},
		{
			"inputs": [],
			"name": "UUPSUnauthorizedCallContext",
			"type": "error"
		},
		{
			"inputs": [
				{
					"internalType": "bytes32",
					"name": "slot",
					"type": "bytes32"
				}
			],
			"name": "UUPSUnsupportedProxiableUUID",
			"type": "error"
		},
		{
			"anonymous": false,
			"inputs": [
				{
					"indexed": true,
					"internalType": "address",
					"name": "user",
					"type": "address"
				},
				{
					"indexed": false,
					"internalType": "uint256",
					"name": "actionWeight",
					"type": "uint256"
				}
			],
			"name": "GovernanceActionRecorded",
			"type": "event"
		},
		{
			"anonymous": false,
			"inputs": [
				{
					"indexed": false,
					"internalType": "uint64",
					"name": "version",
					"type": "uint64"
				}
			],
			"name": "Initialized",
			"type": "event"
		},
		{
			"anonymous": false,
			"inputs": [
				{
					"indexed": true,
					"internalType": "bytes32",
					"name": "jobId",
					"type": "bytes32"
				},
				{
					"indexed": true,
					"internalType": "address",
					"name": "recipient",
					"type": "address"
				},
				{
					"indexed": false,
					"internalType": "uint256",
					"name": "jobValue",
					"type": "uint256"
				},
				{
					"indexed": false,
					"internalType": "uint256",
					"name": "rewardsAmount",
					"type": "uint256"
				}
			],
			"name": "JobProcessed",
			"type": "event"
		},
		{
			"anonymous": false,
			"inputs": [
				{
					"indexed": true,
					"internalType": "address",
					"name": "previousOwner",
					"type": "address"
				},
				{
					"indexed": true,
					"internalType": "address",
					"name": "newOwner",
					"type": "address"
				}
			],
			"name": "OwnershipTransferred",
			"type": "event"
		},
		{
			"anonymous": false,
			"inputs": [
				{
					"indexed": false,
					"internalType": "uint256",
					"name": "bandIndex",
					"type": "uint256"
				},
				{
					"indexed": false,
					"internalType": "uint256",
					"name": "minJobValue",
					"type": "uint256"
				},
				{
					"indexed": false,
					"internalType": "uint256",
					"name": "maxJobValue",
					"type": "uint256"
				},
				{
					"indexed": false,
					"internalType": "uint256",
					"name": "rewardAmount",
					"type": "uint256"
				}
			],
			"name": "RewardBandSet",
			"type": "event"
		},
		{
			"anonymous": false,
			"inputs": [
				{
					"indexed": true,
					"internalType": "address",
					"name": "user",
					"type": "address"
				},
				{
					"indexed": false,
					"internalType": "uint256",
					"name": "amount",
					"type": "uint256"
				}
			],
			"name": "RewardsClaimed",
			"type": "event"
		},
		{
			"anonymous": false,
			"inputs": [
				{
					"indexed": true,
					"internalType": "bytes32",
					"name": "jobId",
					"type": "bytes32"
				},
				{
					"indexed": true,
					"internalType": "address",
					"name": "jobPoster",
					"type": "address"
				},
				{
					"indexed": false,
					"internalType": "uint256",
					"name": "jobValue",
					"type": "uint256"
				}
			],
			"name": "UnifiedJobCompleted",
			"type": "event"
		},
		{
			"anonymous": false,
			"inputs": [
				{
					"indexed": true,
					"internalType": "address",
					"name": "user",
					"type": "address"
				},
				{
					"indexed": false,
					"internalType": "uint256",
					"name": "amount",
					"type": "uint256"
				}
			],
			"name": "UnifiedRewardsClaimed",
			"type": "event"
		},
		{
			"anonymous": false,
			"inputs": [
				{
					"indexed": true,
					"internalType": "address",
					"name": "user",
					"type": "address"
				},
				{
					"indexed": false,
					"internalType": "uint256",
					"name": "amount",
					"type": "uint256"
				}
			],
			"name": "UnifiedRewardsEarned",
			"type": "event"
		},
		{
			"anonymous": false,
			"inputs": [
				{
					"indexed": true,
					"internalType": "address",
					"name": "implementation",
					"type": "address"
				}
			],
			"name": "Upgraded",
			"type": "event"
		},
		{
			"inputs": [],
			"name": "DECIMALS",
			"outputs": [
				{
					"internalType": "uint256",
					"name": "",
					"type": "uint256"
				}
			],
			"stateMutability": "view",
			"type": "function"
		},
		{
			"inputs": [],
			"name": "UPGRADE_INTERFACE_VERSION",
			"outputs": [
				{
					"internalType": "string",
					"name": "",
					"type": "string"
				}
			],
			"stateMutability": "view",
			"type": "function"
		},
		{
			"inputs": [
				{
					"internalType": "address",
					"name": "user",
					"type": "address"
				},
				{
					"internalType": "uint256",
					"name": "amount",
					"type": "uint256"
				}
			],
			"name": "addToClaimAllowlist",
			"outputs": [
				{
					"internalType": "bool",
					"name": "",
					"type": "bool"
				}
			],
			"stateMutability": "pure",
			"type": "function"
		},
		{
			"inputs": [
				{
					"internalType": "uint256",
					"name": "jobValue",
					"type": "uint256"
				}
			],
			"name": "calculateRewardAmount",
			"outputs": [
				{
					"internalType": "uint256",
					"name": "",
					"type": "uint256"
				}
			],
			"stateMutability": "view",
			"type": "function"
		},
		{
			"inputs": [
				{
					"internalType": "uint256",
					"name": "jobValue",
					"type": "uint256"
				}
			],
			"name": "calculateTokenReward",
			"outputs": [
				{
					"internalType": "uint256",
					"name": "",
					"type": "uint256"
				}
			],
			"stateMutability": "view",
			"type": "function"
		},
		{
			"inputs": [],
			"name": "claimRewards",
			"outputs": [],
			"stateMutability": "nonpayable",
			"type": "function"
		},
		{
			"inputs": [],
			"name": "crossChainBridge",
			"outputs": [
				{
					"internalType": "address",
					"name": "",
					"type": "address"
				}
			],
			"stateMutability": "view",
			"type": "function"
		},
		{
			"inputs": [],
			"name": "daoGovernanceContract",
			"outputs": [
				{
					"internalType": "address",
					"name": "",
					"type": "address"
				}
			],
			"stateMutability": "view",
			"type": "function"
		},
		{
			"inputs": [
				{
					"internalType": "address",
					"name": "user",
					"type": "address"
				}
			],
			"name": "getClaimedRewards",
			"outputs": [
				{
					"internalType": "uint256",
					"name": "",
					"type": "uint256"
				}
			],
			"stateMutability": "view",
			"type": "function"
		},
		{
			"inputs": [
				{
					"internalType": "address",
					"name": "user",
					"type": "address"
				}
			],
			"name": "getPendingRewards",
			"outputs": [
				{
					"internalType": "uint256",
					"name": "",
					"type": "uint256"
				}
			],
			"stateMutability": "view",
			"type": "function"
		},
		{
			"inputs": [
				{
					"internalType": "address",
					"name": "user",
					"type": "address"
				}
			],
			"name": "getTotalStakedTokens",
			"outputs": [
				{
					"internalType": "uint256",
					"name": "",
					"type": "uint256"
				}
			],
			"stateMutability": "pure",
			"type": "function"
		},
		{
			"inputs": [
				{
					"internalType": "address",
					"name": "user",
					"type": "address"
				}
			],
			"name": "getUserStats",
			"outputs": [
				{
					"internalType": "uint256",
					"name": "totalJobs",
					"type": "uint256"
				},
				{
					"internalType": "uint256",
					"name": "totalPending",
					"type": "uint256"
				},
				{
					"internalType": "uint256",
					"name": "totalClaimed",
					"type": "uint256"
				}
			],
			"stateMutability": "view",
			"type": "function"
		},
		{
			"inputs": [],
			"name": "governanceActionTracker",
			"outputs": [
				{
					"internalType": "contract IGovernanceActionTracker",
					"name": "",
					"type": "address"
				}
			],
			"stateMutability": "view",
			"type": "function"
		},
		{
			"inputs": [
				{
					"internalType": "address",
					"name": "user",
					"type": "address"
				},
				{
					"internalType": "uint256",
					"name": "level",
					"type": "uint256"
				}
			],
			"name": "hasCompletedGovernanceActions",
			"outputs": [
				{
					"internalType": "bool",
					"name": "",
					"type": "bool"
				}
			],
			"stateMutability": "view",
			"type": "function"
		},
		{
			"inputs": [
				{
					"internalType": "address",
					"name": "initialOwner",
					"type": "address"
				},
				{
					"internalType": "address",
					"name": "_jobMarketContract",
					"type": "address"
				}
			],
			"name": "initialize",
			"outputs": [],
			"stateMutability": "nonpayable",
			"type": "function"
		},
		{
			"inputs": [],
			"name": "jobMarketContract",
			"outputs": [
				{
					"internalType": "address",
					"name": "",
					"type": "address"
				}
			],
			"stateMutability": "view",
			"type": "function"
		},
		{
			"inputs": [],
			"name": "owner",
			"outputs": [
				{
					"internalType": "address",
					"name": "",
					"type": "address"
				}
			],
			"stateMutability": "view",
			"type": "function"
		},
		{
			"inputs": [
				{
					"internalType": "bytes32",
					"name": "",
					"type": "bytes32"
				}
			],
			"name": "processedClaims",
			"outputs": [
				{
					"internalType": "bool",
					"name": "",
					"type": "bool"
				}
			],
			"stateMutability": "view",
			"type": "function"
		},
		{
			"inputs": [
				{
					"internalType": "bytes32",
					"name": "",
					"type": "bytes32"
				}
			],
			"name": "processedJobs",
			"outputs": [
				{
					"internalType": "bool",
					"name": "",
					"type": "bool"
				}
			],
			"stateMutability": "view",
			"type": "function"
		},
		{
			"inputs": [],
			"name": "proxiableUUID",
			"outputs": [
				{
					"internalType": "bytes32",
					"name": "",
					"type": "bytes32"
				}
			],
			"stateMutability": "view",
			"type": "function"
		},
		{
			"inputs": [
				{
					"internalType": "address",
					"name": "user",
					"type": "address"
				},
				{
					"internalType": "uint256",
					"name": "amount",
					"type": "uint256"
				}
			],
			"name": "recordEarnings",
			"outputs": [],
			"stateMutability": "nonpayable",
			"type": "function"
		},
		{
			"inputs": [
				{
					"internalType": "address",
					"name": "user",
					"type": "address"
				},
				{
					"internalType": "uint256",
					"name": "actionWeight",
					"type": "uint256"
				}
			],
			"name": "recordGovernanceAction",
			"outputs": [],
			"stateMutability": "nonpayable",
			"type": "function"
		},
		{
			"inputs": [
				{
					"internalType": "bytes32",
					"name": "jobId",
					"type": "bytes32"
				},
				{
					"internalType": "uint256",
					"name": "jobValue",
					"type": "uint256"
				},
				{
					"internalType": "address",
					"name": "recipient",
					"type": "address"
				}
			],
			"name": "recordJobCompletion",
			"outputs": [
				{
					"internalType": "uint256",
					"name": "rewardsAmount",
					"type": "uint256"
				}
			],
			"stateMutability": "nonpayable",
			"type": "function"
		},
		{
			"inputs": [],
			"name": "renounceOwnership",
			"outputs": [],
			"stateMutability": "nonpayable",
			"type": "function"
		},
		{
			"inputs": [
				{
					"internalType": "uint256",
					"name": "",
					"type": "uint256"
				}
			],
			"name": "rewardBands",
			"outputs": [
				{
					"internalType": "uint256",
					"name": "minJobValue",
					"type": "uint256"
				},
				{
					"internalType": "uint256",
					"name": "maxJobValue",
					"type": "uint256"
				},
				{
					"internalType": "uint256",
					"name": "rewardAmount",
					"type": "uint256"
				}
			],
			"stateMutability": "view",
			"type": "function"
		},
		{
			"inputs": [
				{
					"internalType": "address",
					"name": "_crossChainBridge",
					"type": "address"
				}
			],
			"name": "setCrossChainBridge",
			"outputs": [],
			"stateMutability": "nonpayable",
			"type": "function"
		},
		{
			"inputs": [
				{
					"internalType": "address",
					"name": "_daoGovernanceContract",
					"type": "address"
				}
			],
			"name": "setDAOGovernanceContract",
			"outputs": [],
			"stateMutability": "nonpayable",
			"type": "function"
		},
		{
			"inputs": [
				{
					"internalType": "address",
					"name": "_governanceActionTracker",
					"type": "address"
				}
			],
			"name": "setGovernanceActionTracker",
			"outputs": [],
			"stateMutability": "nonpayable",
			"type": "function"
		},
		{
			"inputs": [
				{
					"internalType": "address",
					"name": "_jobMarketContract",
					"type": "address"
				}
			],
			"name": "setJobMarketContract",
			"outputs": [],
			"stateMutability": "nonpayable",
			"type": "function"
		},
		{
			"inputs": [
				{
					"internalType": "uint256",
					"name": "amount",
					"type": "uint256"
				},
				{
					"internalType": "uint256",
					"name": "duration",
					"type": "uint256"
				}
			],
			"name": "stakeTokens",
			"outputs": [],
			"stateMutability": "pure",
			"type": "function"
		},
		{
			"inputs": [
				{
					"internalType": "address",
					"name": "newOwner",
					"type": "address"
				}
			],
			"name": "transferOwnership",
			"outputs": [],
			"stateMutability": "nonpayable",
			"type": "function"
		},
		{
			"inputs": [
				{
					"internalType": "uint256",
					"name": "stakeIndex",
					"type": "uint256"
				}
			],
			"name": "unstakeTokens",
			"outputs": [],
			"stateMutability": "pure",
			"type": "function"
		},
		{
			"inputs": [
				{
					"internalType": "uint256",
					"name": "bandIndex",
					"type": "uint256"
				},
				{
					"internalType": "uint256",
					"name": "minJobValue",
					"type": "uint256"
				},
				{
					"internalType": "uint256",
					"name": "maxJobValue",
					"type": "uint256"
				},
				{
					"internalType": "uint256",
					"name": "rewardAmount",
					"type": "uint256"
				}
			],
			"name": "updateRewardBand",
			"outputs": [],
			"stateMutability": "nonpayable",
			"type": "function"
		},
		{
			"inputs": [
				{
					"internalType": "address",
					"name": "newImplementation",
					"type": "address"
				},
				{
					"internalType": "bytes",
					"name": "data",
					"type": "bytes"
				}
			],
			"name": "upgradeToAndCall",
			"outputs": [],
			"stateMutability": "payable",
			"type": "function"
		},
		{
			"inputs": [
				{
					"internalType": "address",
					"name": "",
					"type": "address"
				}
			],
			"name": "userRewards",
			"outputs": [
				{
					"internalType": "uint256",
					"name": "pendingAmount",
					"type": "uint256"
				},
				{
					"internalType": "uint256",
					"name": "claimedAmount",
					"type": "uint256"
				},
				{
					"internalType": "uint256",
					"name": "totalJobsCompleted",
					"type": "uint256"
				},
				{
					"internalType": "uint256",
					"name": "lastJobTimestamp",
					"type": "uint256"
				},
				{
					"internalType": "uint256",
					"name": "lastClaimTimestamp",
					"type": "uint256"
				}
			],
			"stateMutability": "view",
			"type": "function"
		}
	]
}